{
  "_format": "hh-sol-artifact-1",
  "contractName": "GeneralConverter",
  "sourceName": "contracts/v3/converters/GeneralConverter.sol",
  "abi": [
    {
      "inputs": [
        {
          "internalType": "uint256",
          "name": "_coinCount",
          "type": "uint256"
        },
        {
          "internalType": "contract IERC20",
          "name": "_tokenCRV",
          "type": "address"
        },
        {
          "internalType": "contract ICurvePool",
          "name": "_swapPool",
          "type": "address"
        },
        {
          "internalType": "contract IManager",
          "name": "_manager",
          "type": "address"
        }
      ],
      "stateMutability": "nonpayable",
      "type": "constructor"
    },
    {
      "inputs": [
        {
          "internalType": "contract IERC20",
          "name": "_token",
          "type": "address"
        },
        {
          "internalType": "address",
          "name": "_spender",
          "type": "address"
        },
        {
          "internalType": "uint256",
          "name": "_amount",
          "type": "uint256"
        }
      ],
      "name": "approveForSpender",
      "outputs": [],
      "stateMutability": "nonpayable",
      "type": "function"
    },
    {
      "inputs": [
        {
          "internalType": "address",
          "name": "_input",
          "type": "address"
        },
        {
          "internalType": "address",
          "name": "_output",
          "type": "address"
        },
        {
          "internalType": "uint256",
          "name": "_inputAmount",
          "type": "uint256"
        },
        {
          "internalType": "uint256",
          "name": "_estimatedOutput",
          "type": "uint256"
        }
      ],
      "name": "convert",
      "outputs": [
        {
          "internalType": "uint256",
          "name": "_outputAmount",
          "type": "uint256"
        }
      ],
      "stateMutability": "nonpayable",
      "type": "function"
    },
    {
      "inputs": [
        {
          "internalType": "address",
          "name": "_input",
          "type": "address"
        },
        {
          "internalType": "address",
          "name": "_output",
          "type": "address"
        },
        {
          "internalType": "uint256",
          "name": "_inputAmount",
          "type": "uint256"
        }
      ],
      "name": "expected",
      "outputs": [
        {
          "internalType": "uint256",
          "name": "",
          "type": "uint256"
        }
      ],
      "stateMutability": "view",
      "type": "function"
    },
    {
      "inputs": [],
      "name": "manager",
      "outputs": [
        {
          "internalType": "contract IManager",
          "name": "",
          "type": "address"
        }
      ],
      "stateMutability": "view",
      "type": "function"
    },
    {
      "inputs": [
        {
          "internalType": "contract IERC20",
          "name": "_token",
          "type": "address"
        },
        {
          "internalType": "uint256",
          "name": "_amount",
          "type": "uint256"
        },
        {
          "internalType": "address",
          "name": "_to",
          "type": "address"
        }
      ],
      "name": "recoverUnsupported",
      "outputs": [],
      "stateMutability": "nonpayable",
      "type": "function"
    },
    {
      "inputs": [],
      "name": "swapPool",
      "outputs": [
        {
          "internalType": "contract ICurvePool",
          "name": "",
          "type": "address"
        }
      ],
      "stateMutability": "view",
      "type": "function"
    },
    {
      "inputs": [],
      "name": "tokenCRV",
      "outputs": [
        {
          "internalType": "contract IERC20",
          "name": "",
          "type": "address"
        }
      ],
      "stateMutability": "view",
      "type": "function"
    },
    {
      "inputs": [
        {
          "internalType": "uint256",
          "name": "",
          "type": "uint256"
        }
      ],
      "name": "tokens",
      "outputs": [
        {
          "internalType": "contract IERC20",
          "name": "",
          "type": "address"
        }
      ],
      "stateMutability": "view",
      "type": "function"
    }
  ],
  "bytecode": "0x60e06040523480156200001157600080fd5b5060405162001edd38038062001edd833981810160405260808110156200003757600080fd5b508051602082015160408301516060909301519192909160028414806200005e5750836003145b620000b0576040805162461bcd60e51b815260206004820152601b60248201527f5f636f696e436f756e742073686f756c642062652032206f7220330000000000604482015290519081900360640190fd5b6001600160601b0319606084811b821660c05283811b821660a05282901b1660805260005b848110156200022a576000836001600160a01b031663c6610657836040518263ffffffff1660e01b81526004018082815260200191505060206040518083038186803b1580156200012557600080fd5b505afa1580156200013a573d6000803e3d6000fd5b505050506040513d60208110156200015157600080fd5b505181546001808201845560009384526020842090910180546001600160a01b0319166001600160a01b039093169290921790915581548392908190849081106200019857fe5b60009182526020808320909101546001600160a01b0316835282019290925260400181208054600f9390930b6001600160801b03166001600160801b031990931692909217909155805462000221918591600019919085908110620001f957fe5b600091825260209182902001546001600160a01b0316929190620011946200025c821b17901c565b600101620000d5565b506200025282600019856001600160a01b03166200025c60201b62001194179092919060201c565b505050506200066f565b801580620002e6575060408051636eb1769f60e11b81523060048201526001600160a01b03848116602483015291519185169163dd62ed3e91604480820192602092909190829003018186803b158015620002b657600080fd5b505afa158015620002cb573d6000803e3d6000fd5b505050506040513d6020811015620002e257600080fd5b5051155b620003235760405162461bcd60e51b815260040180806020018281038252603681526020018062001ea76036913960400191505060405180910390fd5b604080516001600160a01b038416602482015260448082018490528251808303909101815260649091019091526020810180516001600160e01b0390811663095ea7b360e01b179091526200037b9185916200038016565b505050565b6060620003dc826040518060400160405280602081526020017f5361666545524332303a206c6f772d6c6576656c2063616c6c206661696c6564815250856001600160a01b03166200043c60201b620012a7179092919060201c565b8051909150156200037b57808060200190516020811015620003fd57600080fd5b50516200037b5760405162461bcd60e51b815260040180806020018281038252602a81526020018062001e7d602a913960400191505060405180910390fd5b60606200044d848460008562000457565b90505b9392505050565b6060824710156200049a5760405162461bcd60e51b815260040180806020018281038252602681526020018062001e576026913960400191505060405180910390fd5b620004a585620005bf565b620004f7576040805162461bcd60e51b815260206004820152601d60248201527f416464726573733a2063616c6c20746f206e6f6e2d636f6e7472616374000000604482015290519081900360640190fd5b60006060866001600160a01b031685876040518082805190602001908083835b60208310620005385780518252601f19909201916020918201910162000517565b6001836020036101000a03801982511681845116808217855250505050505090500191505060006040518083038185875af1925050503d80600081146200059c576040519150601f19603f3d011682016040523d82523d6000602084013e620005a1565b606091505b509092509050620005b4828286620005c5565b979650505050505050565b3b151590565b60608315620005d657508162000450565b825115620005e75782518084602001fd5b8160405162461bcd60e51b81526004018080602001828103825283818151815260200191508051906020019080838360005b838110156200063357818101518382015260200162000619565b50505050905090810190601f168015620006615780820380516001836020036101000a031916815260200191505b509250505060405180910390fd5b60805160601c60a05160601c60c05160601c61174e620007096000398061021f5280610415528061081d52806108985280610ad95280610b8b5280610bca52806110935250806102d652806103b5528061048e528061058c52806109725280610a405280610d015280610e8d5280610f875250806101d2528061061352806106d052806107695280610fab52806110b7525061174e6000f3fe608060405234801561001057600080fd5b50600436106100885760003560e01c8063982697dd1161005b578063982697dd14610152578063a081ddbd1461015a578063e1e6478f14610192578063ef9e23791461019a57610088565b8063481c6a751461008d5780634f64b2be146100b1578063717e7389146100ce57806375892cf114610116575b600080fd5b6100956101d0565b604080516001600160a01b039092168252519081900360200190f35b610095600480360360208110156100c757600080fd5b50356101f4565b610104600480360360608110156100e457600080fd5b506001600160a01b0381358116916020810135909116906040013561021b565b60408051918252519081900360200190f35b6101046004803603608081101561012c57600080fd5b506001600160a01b0381358116916020810135909116906040810135906060013561060f565b610095610f85565b6101906004803603606081101561017057600080fd5b506001600160a01b03813581169160208101359160409091013516610fa9565b005b610095611091565b610190600480360360608110156101b057600080fd5b506001600160a01b038135811691602081013590911690604001356110b5565b7f000000000000000000000000000000000000000000000000000000000000000081565b6000818154811061020157fe5b6000918252602090912001546001600160a01b0316905081565b60007f00000000000000000000000000000000000000000000000000000000000000006001600160a01b0316836001600160a01b031614156104135760005b60005460ff8216101561040d5760008160ff168154811061027757fe5b6000918252602090912001546001600160a01b03868116911614156104055760005460021415610389576102a9611656565b83818360ff16600281106102b957fe5b60200201526040805163ed8e84f360e01b81526001600160a01b037f0000000000000000000000000000000000000000000000000000000000000000169163ed8e84f3918491600191600401908190849080838360005b83811015610328578181015183820152602001610310565b5050505090500182151581526020019250505060206040518083038186803b15801561035357600080fd5b505afa158015610367573d6000803e3d6000fd5b505050506040513d602081101561037d57600080fd5b50519250610608915050565b610391611674565b83818360ff16600381106103a157fe5b6020020152604051633883e11960e01b81527f00000000000000000000000000000000000000000000000000000000000000006001600160a01b031690633883e1199083906001906004018083606080838360008181015183820152602001610310565b60010161025a565b50610604565b7f00000000000000000000000000000000000000000000000000000000000000006001600160a01b0316846001600160a01b031614156105385760005b60005460ff8216101561040d5760008160ff168154811061046d57fe5b6000918252602090912001546001600160a01b0385811691161415610530577f00000000000000000000000000000000000000000000000000000000000000006001600160a01b031663cc2b27d784836040518363ffffffff1660e01b8152600401808381526020018260ff1681526020019250505060206040518083038186803b1580156104fb57600080fd5b505afa15801561050f573d6000803e3d6000fd5b505050506040513d602081101561052557600080fd5b505191506106089050565b600101610450565b6001600160a01b03848116600090815260016020908152604080832054878516845292819020548151635e0d443f60e01b8152600f94850b850b600482015290840b90930b602484015260448301869052517f000000000000000000000000000000000000000000000000000000000000000090931692635e0d443f926064808201939291829003018186803b1580156105d157600080fd5b505afa1580156105e5573d6000803e3d6000fd5b505050506040513d60208110156105fb57600080fd5b50519050610608565b5060005b9392505050565b60007f00000000000000000000000000000000000000000000000000000000000000006001600160a01b031663e8d76bce336040518263ffffffff1660e01b815260040180826001600160a01b0316815260200191505060206040518083038186803b15801561067e57600080fd5b505afa158015610692573d6000803e3d6000fd5b505050506040513d60208110156106a857600080fd5b505180610743575060408051633577910560e11b815233600482015290516001600160a01b037f00000000000000000000000000000000000000000000000000000000000000001691636aef220a916024808301926020929190829003018186803b15801561071657600080fd5b505afa15801561072a573d6000803e3d6000fd5b505050506040513d602081101561074057600080fd5b50515b806107dc575060408051631eb9b23560e21b815233600482015290516001600160a01b037f00000000000000000000000000000000000000000000000000000000000000001691637ae6c8d4916024808301926020929190829003018186803b1580156107af57600080fd5b505afa1580156107c3573d6000803e3d6000fd5b505050506040513d60208110156107d957600080fd5b50515b61081b576040805162461bcd60e51b815260206004820152600b60248201526a08585d5d1a1bdc9a5e995960aa1b604482015290519081900360640190fd5b7f00000000000000000000000000000000000000000000000000000000000000006001600160a01b0316846001600160a01b03161415610bc85760005b60005460ff82161015610bc25760008160ff168154811061087557fe5b6000918252602090912001546001600160a01b0387811691161415610bba5760007f00000000000000000000000000000000000000000000000000000000000000006001600160a01b03166370a08231306040518263ffffffff1660e01b815260040180826001600160a01b0316815260200191505060206040518083038186803b15801561090357600080fd5b505afa158015610917573d6000803e3d6000fd5b505050506040513d602081101561092d57600080fd5b505160005490915060021415610a0c57610945611656565b85818460ff166002811061095557fe5b602002015260408051630b4c7e4d60e01b81526001600160a01b037f00000000000000000000000000000000000000000000000000000000000000001691630b4c7e4d9184918991600401908190849080838360005b838110156109c35781810151838201526020016109ab565b5050505090500182815260200192505050600060405180830381600087803b1580156109ee57600080fd5b505af1158015610a02573d6000803e3d6000fd5b5050505050610ad5565b610a14611674565b85818460ff1660038110610a2457fe5b6020020152604051634515cef360e01b81526001600160a01b037f00000000000000000000000000000000000000000000000000000000000000001690634515cef390839088906004018083606080838360005b83811015610a90578181015183820152602001610a78565b5050505090500182815260200192505050600060405180830381600087803b158015610abb57600080fd5b505af1158015610acf573d6000803e3d6000fd5b50505050505b60007f00000000000000000000000000000000000000000000000000000000000000006001600160a01b03166370a08231306040518263ffffffff1660e01b815260040180826001600160a01b0316815260200191505060206040518083038186803b158015610b4457600080fd5b505afa158015610b58573d6000803e3d6000fd5b505050506040513d6020811015610b6e57600080fd5b50519050610b7c81836112b6565b9350610bb26001600160a01b037f00000000000000000000000000000000000000000000000000000000000000001633866112f8565b505050610f7d565b600101610858565b50610f79565b7f00000000000000000000000000000000000000000000000000000000000000006001600160a01b0316856001600160a01b03161415610e345760005b60005460ff82161015610bc25760008160ff1681548110610c2257fe5b6000918252602090912001546001600160a01b0386811691161415610e2c576000808260ff1681548110610c5257fe5b60009182526020918290200154604080516370a0823160e01b815230600482015290516001600160a01b03909216926370a0823192602480840193829003018186803b158015610ca157600080fd5b505afa158015610cb5573d6000803e3d6000fd5b505050506040513d6020811015610ccb57600080fd5b505160408051630d2680e960e11b81526004810188905260ff851660248201526044810187905290519192506001600160a01b037f00000000000000000000000000000000000000000000000000000000000000001691631a4d01d29160648082019260009290919082900301818387803b158015610d4957600080fd5b505af1158015610d5d573d6000803e3d6000fd5b505050506000808360ff1681548110610d7257fe5b60009182526020918290200154604080516370a0823160e01b815230600482015290516001600160a01b03909216926370a0823192602480840193829003018186803b158015610dc157600080fd5b505afa158015610dd5573d6000803e3d6000fd5b505050506040513d6020811015610deb57600080fd5b50519050610df981836112b6565b9350610bb2338560008660ff1681548110610e1057fe5b6000918252602090912001546001600160a01b031691906112f8565b600101610c05565b6001600160a01b03858116600090815260016020526040808220548784168352818320548251630f7c084960e21b8152600f92830b830b600482015290820b90910b6024820152604481018790526064810186905290517f000000000000000000000000000000000000000000000000000000000000000090931692633df021249260848084019391929182900301818387803b158015610ed457600080fd5b505af1158015610ee8573d6000803e3d6000fd5b5050604080516370a0823160e01b815230600482015290516001600160a01b03881693506370a0823192506024808301926020929190829003018186803b158015610f3257600080fd5b505afa158015610f46573d6000803e3d6000fd5b505050506040513d6020811015610f5c57600080fd5b50519050610f746001600160a01b03851633836112f8565b610f7d565b5060005b949350505050565b7f000000000000000000000000000000000000000000000000000000000000000081565b7f00000000000000000000000000000000000000000000000000000000000000006001600160a01b0316631fe4a6866040518163ffffffff1660e01b815260040160206040518083038186803b15801561100257600080fd5b505afa158015611016573d6000803e3d6000fd5b505050506040513d602081101561102c57600080fd5b50516001600160a01b03163314611078576040805162461bcd60e51b815260206004820152600b60248201526a085cdd1c985d1959da5cdd60aa1b604482015290519081900360640190fd5b61108c6001600160a01b03841682846112f8565b505050565b7f000000000000000000000000000000000000000000000000000000000000000081565b7f00000000000000000000000000000000000000000000000000000000000000006001600160a01b0316631fe4a6866040518163ffffffff1660e01b815260040160206040518083038186803b15801561110e57600080fd5b505afa158015611122573d6000803e3d6000fd5b505050506040513d602081101561113857600080fd5b50516001600160a01b03163314611184576040805162461bcd60e51b815260206004820152600b60248201526a085cdd1c985d1959da5cdd60aa1b604482015290519081900360640190fd5b61108c6001600160a01b03841683835b80158061121a575060408051636eb1769f60e11b81523060048201526001600160a01b03848116602483015291519185169163dd62ed3e91604480820192602092909190829003018186803b1580156111ec57600080fd5b505afa158015611200573d6000803e3d6000fd5b505050506040513d602081101561121657600080fd5b5051155b6112555760405162461bcd60e51b81526004018080602001828103825260368152602001806116e36036913960400191505060405180910390fd5b604080516001600160a01b038416602482015260448082018490528251808303909101815260649091019091526020810180516001600160e01b031663095ea7b360e01b17905261108c908490611346565b6060610f7d84846000856113f7565b600061060883836040518060400160405280601e81526020017f536166654d6174683a207375627472616374696f6e206f766572666c6f770000815250611553565b604080516001600160a01b038416602482015260448082018490528251808303909101815260649091019091526020810180516001600160e01b031663a9059cbb60e01b17905261108c9084905b606061139b826040518060400160405280602081526020017f5361666545524332303a206c6f772d6c6576656c2063616c6c206661696c6564815250856001600160a01b03166112a79092919063ffffffff16565b80519091501561108c578080602001905160208110156113ba57600080fd5b505161108c5760405162461bcd60e51b815260040180806020018281038252602a8152602001806116b9602a913960400191505060405180910390fd5b6060824710156114385760405162461bcd60e51b81526004018080602001828103825260268152602001806116936026913960400191505060405180910390fd5b611441856115ea565b611492576040805162461bcd60e51b815260206004820152601d60248201527f416464726573733a2063616c6c20746f206e6f6e2d636f6e7472616374000000604482015290519081900360640190fd5b60006060866001600160a01b031685876040518082805190602001908083835b602083106114d15780518252601f1990920191602091820191016114b2565b6001836020036101000a03801982511681845116808217855250505050505090500191505060006040518083038185875af1925050503d8060008114611533576040519150601f19603f3d011682016040523d82523d6000602084013e611538565b606091505b50915091506115488282866115f0565b979650505050505050565b600081848411156115e25760405162461bcd60e51b81526004018080602001828103825283818151815260200191508051906020019080838360005b838110156115a757818101518382015260200161158f565b50505050905090810190601f1680156115d45780820380516001836020036101000a031916815260200191505b509250505060405180910390fd5b505050900390565b3b151590565b606083156115ff575081610608565b82511561160f5782518084602001fd5b60405162461bcd60e51b81526020600482018181528451602484015284518593919283926044019190850190808383600083156115a757818101518382015260200161158f565b60405180604001604052806002906020820280368337509192915050565b6040518060600160405280600390602082028036833750919291505056fe416464726573733a20696e73756666696369656e742062616c616e636520666f722063616c6c5361666545524332303a204552433230206f7065726174696f6e20646964206e6f7420737563636565645361666545524332303a20617070726f76652066726f6d206e6f6e2d7a65726f20746f206e6f6e2d7a65726f20616c6c6f77616e6365a2646970667358221220c3aea88464703aad27a9133d2e3592923f96335367b2ff0d35621289dc245f4464736f6c634300060c0033416464726573733a20696e73756666696369656e742062616c616e636520666f722063616c6c5361666545524332303a204552433230206f7065726174696f6e20646964206e6f7420737563636565645361666545524332303a20617070726f76652066726f6d206e6f6e2d7a65726f20746f206e6f6e2d7a65726f20616c6c6f77616e6365",
  "linkReferences": {},
  "deployedLinkReferences": {}
}