{
  "contracts/flat/BentoBoxV1Flat.sol": {
    "BoringBatchable": {
      "abi": [
        {
          "inputs": [
            {
              "internalType": "bytes[]",
              "name": "calls",
              "type": "bytes[]"
            },
            {
              "internalType": "bool",
              "name": "revertOnFail",
              "type": "bool"
            }
          ],
          "name": "batch",
          "outputs": [
            {
              "internalType": "bool[]",
              "name": "successes",
              "type": "bool[]"
            },
            {
              "internalType": "bytes[]",
              "name": "results",
              "type": "bytes[]"
            }
          ],
          "stateMutability": "payable",
          "type": "function"
        },
        {
          "inputs": [
            {
              "internalType": "contract IERC20",
              "name": "token",
              "type": "address"
            },
            {
              "internalType": "address",
              "name": "from",
              "type": "address"
            },
            {
              "internalType": "address",
              "name": "to",
              "type": "address"
            },
            {
              "internalType": "uint256",
              "name": "amount",
              "type": "uint256"
            },
            {
              "internalType": "uint256",
              "name": "deadline",
              "type": "uint256"
            },
            {
              "internalType": "uint8",
              "name": "v",
              "type": "uint8"
            },
            {
              "internalType": "bytes32",
              "name": "r",
              "type": "bytes32"
            },
            {
              "internalType": "bytes32",
              "name": "s",
              "type": "bytes32"
            }
          ],
          "name": "permitToken",
          "outputs": [],
          "stateMutability": "nonpayable",
          "type": "function"
        }
      ],
      "devdoc": {
        "kind": "dev",
        "methods": {
          "batch(bytes[],bool)": {
            "params": {
              "calls": "An array of inputs for each call.",
              "revertOnFail": "If True then reverts after a failed call and stops doing further calls."
            },
            "returns": {
              "results": "An array with the returned data of each function call, mapped one-to-one to `calls`.",
              "successes": "An array indicating the success of a call, mapped one-to-one to `calls`."
            }
          }
        },
        "version": 1
      },
      "evm": {
        "bytecode": {
          "linkReferences": {},
          "object": "608060405234801561001057600080fd5b5061074f806100206000396000f3fe6080604052600436106100295760003560e01c80637c516e941461002e578063d2423b5114610050575b600080fd5b34801561003a57600080fd5b5061004e6100493660046103b5565b61007a565b005b61006361005e366004610331565b610114565b60405161007192919061059d565b60405180910390f35b6040517fd505accf00000000000000000000000000000000000000000000000000000000815273ffffffffffffffffffffffffffffffffffffffff89169063d505accf906100d8908a908a908a908a908a908a908a9060040161054f565b600060405180830381600087803b1580156100f257600080fd5b505af1158015610106573d6000803e3d6000fd5b505050505050505050505050565b6060808367ffffffffffffffff8111801561012e57600080fd5b50604051908082528060200260200182016040528015610158578160200160208202803683370190505b5091508367ffffffffffffffff8111801561017257600080fd5b506040519080825280602002602001820160405280156101a657816020015b60608152602001906001900390816101915790505b50905060005b848110156102c05760006060308888858181106101c557fe5b90506020028101906101d79190610651565b6040516101e592919061053f565b600060405180830381855af49150503d8060008114610220576040519150601f19603f3d011682016040523d82523d6000602084013e610225565b606091505b50915091508180610234575085155b61023d826102c9565b9061027e576040517f08c379a00000000000000000000000000000000000000000000000000000000081526004016102759190610637565b60405180910390fd5b508185848151811061028c57fe5b602002602001019015159081151581525050808484815181106102ab57fe5b602090810291909101015250506001016101ac565b50935093915050565b606060448251101561030f575060408051808201909152601d81527f5472616e73616374696f6e2072657665727465642073696c656e746c79000000602082015261032c565b60048201915081806020019051810190610329919061043c565b90505b919050565b600080600060408486031215610345578283fd5b833567ffffffffffffffff8082111561035c578485fd5b818601915086601f83011261036f578485fd5b81358181111561037d578586fd5b8760208083028501011115610390578586fd5b6020928301955093505084013580151581146103aa578182fd5b809150509250925092565b600080600080600080600080610100898b0312156103d1578384fd5b88356103dc816106f4565b975060208901356103ec816106f4565b965060408901356103fc816106f4565b9550606089013594506080890135935060a089013560ff8116811461041f578384fd5b979a969950949793969295929450505060c08201359160e0013590565b60006020828403121561044d578081fd5b815167ffffffffffffffff80821115610464578283fd5b818401915084601f830112610477578283fd5b815181811115610485578384fd5b60405160207fffffffffffffffffffffffffffffffffffffffffffffffffffffffffffffffe0601f84011682010181811084821117156104c3578586fd5b6040528181528382016020018710156104da578485fd5b6104eb8260208301602087016106c4565b9695505050505050565b6000815180845261050d8160208601602086016106c4565b601f017fffffffffffffffffffffffffffffffffffffffffffffffffffffffffffffffe0169290920160200192915050565b6000828483379101908152919050565b73ffffffffffffffffffffffffffffffffffffffff97881681529590961660208601526040850193909352606084019190915260ff16608083015260a082015260c081019190915260e00190565b604080825283519082018190526000906020906060840190828701845b828110156105d85781511515845292840192908401906001016105ba565b505050838103828501528085516105ef81846106bb565b91508192508381028201848801865b838110156106285785830385526106168383516104f5565b948701949250908601906001016105fe565b50909998505050505050505050565b60006020825261064a60208301846104f5565b9392505050565b60008083357fffffffffffffffffffffffffffffffffffffffffffffffffffffffffffffffe1843603018112610685578283fd5b83018035915067ffffffffffffffff82111561069f578283fd5b6020019150368190038213156106b457600080fd5b9250929050565b90815260200190565b60005b838110156106df5781810151838201526020016106c7565b838111156106ee576000848401525b50505050565b73ffffffffffffffffffffffffffffffffffffffff8116811461071657600080fd5b5056fea264697066735822122015128420a304fb200fc32fc8bc9a5c85576adcad7f8d6fef21539bc461b0768f64736f6c634300060c0033",
          "opcodes": "PUSH1 0x80 PUSH1 0x40 MSTORE CALLVALUE DUP1 ISZERO PUSH2 0x10 JUMPI PUSH1 0x0 DUP1 REVERT JUMPDEST POP PUSH2 0x74F DUP1 PUSH2 0x20 PUSH1 0x0 CODECOPY PUSH1 0x0 RETURN INVALID PUSH1 0x80 PUSH1 0x40 MSTORE PUSH1 0x4 CALLDATASIZE LT PUSH2 0x29 JUMPI PUSH1 0x0 CALLDATALOAD PUSH1 0xE0 SHR DUP1 PUSH4 0x7C516E94 EQ PUSH2 0x2E JUMPI DUP1 PUSH4 0xD2423B51 EQ PUSH2 0x50 JUMPI JUMPDEST PUSH1 0x0 DUP1 REVERT JUMPDEST CALLVALUE DUP1 ISZERO PUSH2 0x3A JUMPI PUSH1 0x0 DUP1 REVERT JUMPDEST POP PUSH2 0x4E PUSH2 0x49 CALLDATASIZE PUSH1 0x4 PUSH2 0x3B5 JUMP JUMPDEST PUSH2 0x7A JUMP JUMPDEST STOP JUMPDEST PUSH2 0x63 PUSH2 0x5E CALLDATASIZE PUSH1 0x4 PUSH2 0x331 JUMP JUMPDEST PUSH2 0x114 JUMP JUMPDEST PUSH1 0x40 MLOAD PUSH2 0x71 SWAP3 SWAP2 SWAP1 PUSH2 0x59D JUMP JUMPDEST PUSH1 0x40 MLOAD DUP1 SWAP2 SUB SWAP1 RETURN JUMPDEST PUSH1 0x40 MLOAD PUSH32 0xD505ACCF00000000000000000000000000000000000000000000000000000000 DUP2 MSTORE PUSH20 0xFFFFFFFFFFFFFFFFFFFFFFFFFFFFFFFFFFFFFFFF DUP10 AND SWAP1 PUSH4 0xD505ACCF SWAP1 PUSH2 0xD8 SWAP1 DUP11 SWAP1 DUP11 SWAP1 DUP11 SWAP1 DUP11 SWAP1 DUP11 SWAP1 DUP11 SWAP1 DUP11 SWAP1 PUSH1 0x4 ADD PUSH2 0x54F JUMP JUMPDEST PUSH1 0x0 PUSH1 0x40 MLOAD DUP1 DUP4 SUB DUP2 PUSH1 0x0 DUP8 DUP1 EXTCODESIZE ISZERO DUP1 ISZERO PUSH2 0xF2 JUMPI PUSH1 0x0 DUP1 REVERT JUMPDEST POP GAS CALL ISZERO DUP1 ISZERO PUSH2 0x106 JUMPI RETURNDATASIZE PUSH1 0x0 DUP1 RETURNDATACOPY RETURNDATASIZE PUSH1 0x0 REVERT JUMPDEST POP POP POP POP POP POP POP POP POP POP POP POP JUMP JUMPDEST PUSH1 0x60 DUP1 DUP4 PUSH8 0xFFFFFFFFFFFFFFFF DUP2 GT DUP1 ISZERO PUSH2 0x12E JUMPI PUSH1 0x0 DUP1 REVERT JUMPDEST POP PUSH1 0x40 MLOAD SWAP1 DUP1 DUP3 MSTORE DUP1 PUSH1 0x20 MUL PUSH1 0x20 ADD DUP3 ADD PUSH1 0x40 MSTORE DUP1 ISZERO PUSH2 0x158 JUMPI DUP2 PUSH1 0x20 ADD PUSH1 0x20 DUP3 MUL DUP1 CALLDATASIZE DUP4 CALLDATACOPY ADD SWAP1 POP JUMPDEST POP SWAP2 POP DUP4 PUSH8 0xFFFFFFFFFFFFFFFF DUP2 GT DUP1 ISZERO PUSH2 0x172 JUMPI PUSH1 0x0 DUP1 REVERT JUMPDEST POP PUSH1 0x40 MLOAD SWAP1 DUP1 DUP3 MSTORE DUP1 PUSH1 0x20 MUL PUSH1 0x20 ADD DUP3 ADD PUSH1 0x40 MSTORE DUP1 ISZERO PUSH2 0x1A6 JUMPI DUP2 PUSH1 0x20 ADD JUMPDEST PUSH1 0x60 DUP2 MSTORE PUSH1 0x20 ADD SWAP1 PUSH1 0x1 SWAP1 SUB SWAP1 DUP2 PUSH2 0x191 JUMPI SWAP1 POP JUMPDEST POP SWAP1 POP PUSH1 0x0 JUMPDEST DUP5 DUP2 LT ISZERO PUSH2 0x2C0 JUMPI PUSH1 0x0 PUSH1 0x60 ADDRESS DUP9 DUP9 DUP6 DUP2 DUP2 LT PUSH2 0x1C5 JUMPI INVALID JUMPDEST SWAP1 POP PUSH1 0x20 MUL DUP2 ADD SWAP1 PUSH2 0x1D7 SWAP2 SWAP1 PUSH2 0x651 JUMP JUMPDEST PUSH1 0x40 MLOAD PUSH2 0x1E5 SWAP3 SWAP2 SWAP1 PUSH2 0x53F JUMP JUMPDEST PUSH1 0x0 PUSH1 0x40 MLOAD DUP1 DUP4 SUB DUP2 DUP6 GAS DELEGATECALL SWAP2 POP POP RETURNDATASIZE DUP1 PUSH1 0x0 DUP2 EQ PUSH2 0x220 JUMPI PUSH1 0x40 MLOAD SWAP2 POP PUSH1 0x1F NOT PUSH1 0x3F RETURNDATASIZE ADD AND DUP3 ADD PUSH1 0x40 MSTORE RETURNDATASIZE DUP3 MSTORE RETURNDATASIZE PUSH1 0x0 PUSH1 0x20 DUP5 ADD RETURNDATACOPY PUSH2 0x225 JUMP JUMPDEST PUSH1 0x60 SWAP2 POP JUMPDEST POP SWAP2 POP SWAP2 POP DUP2 DUP1 PUSH2 0x234 JUMPI POP DUP6 ISZERO JUMPDEST PUSH2 0x23D DUP3 PUSH2 0x2C9 JUMP JUMPDEST SWAP1 PUSH2 0x27E JUMPI PUSH1 0x40 MLOAD PUSH32 0x8C379A000000000000000000000000000000000000000000000000000000000 DUP2 MSTORE PUSH1 0x4 ADD PUSH2 0x275 SWAP2 SWAP1 PUSH2 0x637 JUMP JUMPDEST PUSH1 0x40 MLOAD DUP1 SWAP2 SUB SWAP1 REVERT JUMPDEST POP DUP2 DUP6 DUP5 DUP2 MLOAD DUP2 LT PUSH2 0x28C JUMPI INVALID JUMPDEST PUSH1 0x20 MUL PUSH1 0x20 ADD ADD SWAP1 ISZERO ISZERO SWAP1 DUP2 ISZERO ISZERO DUP2 MSTORE POP POP DUP1 DUP5 DUP5 DUP2 MLOAD DUP2 LT PUSH2 0x2AB JUMPI INVALID JUMPDEST PUSH1 0x20 SWAP1 DUP2 MUL SWAP2 SWAP1 SWAP2 ADD ADD MSTORE POP POP PUSH1 0x1 ADD PUSH2 0x1AC JUMP JUMPDEST POP SWAP4 POP SWAP4 SWAP2 POP POP JUMP JUMPDEST PUSH1 0x60 PUSH1 0x44 DUP3 MLOAD LT ISZERO PUSH2 0x30F JUMPI POP PUSH1 0x40 DUP1 MLOAD DUP1 DUP3 ADD SWAP1 SWAP2 MSTORE PUSH1 0x1D DUP2 MSTORE PUSH32 0x5472616E73616374696F6E2072657665727465642073696C656E746C79000000 PUSH1 0x20 DUP3 ADD MSTORE PUSH2 0x32C JUMP JUMPDEST PUSH1 0x4 DUP3 ADD SWAP2 POP DUP2 DUP1 PUSH1 0x20 ADD SWAP1 MLOAD DUP2 ADD SWAP1 PUSH2 0x329 SWAP2 SWAP1 PUSH2 0x43C JUMP JUMPDEST SWAP1 POP JUMPDEST SWAP2 SWAP1 POP JUMP JUMPDEST PUSH1 0x0 DUP1 PUSH1 0x0 PUSH1 0x40 DUP5 DUP7 SUB SLT ISZERO PUSH2 0x345 JUMPI DUP3 DUP4 REVERT JUMPDEST DUP4 CALLDATALOAD PUSH8 0xFFFFFFFFFFFFFFFF DUP1 DUP3 GT ISZERO PUSH2 0x35C JUMPI DUP5 DUP6 REVERT JUMPDEST DUP2 DUP7 ADD SWAP2 POP DUP7 PUSH1 0x1F DUP4 ADD SLT PUSH2 0x36F JUMPI DUP5 DUP6 REVERT JUMPDEST DUP2 CALLDATALOAD DUP2 DUP2 GT ISZERO PUSH2 0x37D JUMPI DUP6 DUP7 REVERT JUMPDEST DUP8 PUSH1 0x20 DUP1 DUP4 MUL DUP6 ADD ADD GT ISZERO PUSH2 0x390 JUMPI DUP6 DUP7 REVERT JUMPDEST PUSH1 0x20 SWAP3 DUP4 ADD SWAP6 POP SWAP4 POP POP DUP5 ADD CALLDATALOAD DUP1 ISZERO ISZERO DUP2 EQ PUSH2 0x3AA JUMPI DUP2 DUP3 REVERT JUMPDEST DUP1 SWAP2 POP POP SWAP3 POP SWAP3 POP SWAP3 JUMP JUMPDEST PUSH1 0x0 DUP1 PUSH1 0x0 DUP1 PUSH1 0x0 DUP1 PUSH1 0x0 DUP1 PUSH2 0x100 DUP10 DUP12 SUB SLT ISZERO PUSH2 0x3D1 JUMPI DUP4 DUP5 REVERT JUMPDEST DUP9 CALLDATALOAD PUSH2 0x3DC DUP2 PUSH2 0x6F4 JUMP JUMPDEST SWAP8 POP PUSH1 0x20 DUP10 ADD CALLDATALOAD PUSH2 0x3EC DUP2 PUSH2 0x6F4 JUMP JUMPDEST SWAP7 POP PUSH1 0x40 DUP10 ADD CALLDATALOAD PUSH2 0x3FC DUP2 PUSH2 0x6F4 JUMP JUMPDEST SWAP6 POP PUSH1 0x60 DUP10 ADD CALLDATALOAD SWAP5 POP PUSH1 0x80 DUP10 ADD CALLDATALOAD SWAP4 POP PUSH1 0xA0 DUP10 ADD CALLDATALOAD PUSH1 0xFF DUP2 AND DUP2 EQ PUSH2 0x41F JUMPI DUP4 DUP5 REVERT JUMPDEST SWAP8 SWAP11 SWAP7 SWAP10 POP SWAP5 SWAP8 SWAP4 SWAP7 SWAP3 SWAP6 SWAP3 SWAP5 POP POP POP PUSH1 0xC0 DUP3 ADD CALLDATALOAD SWAP2 PUSH1 0xE0 ADD CALLDATALOAD SWAP1 JUMP JUMPDEST PUSH1 0x0 PUSH1 0x20 DUP3 DUP5 SUB SLT ISZERO PUSH2 0x44D JUMPI DUP1 DUP2 REVERT JUMPDEST DUP2 MLOAD PUSH8 0xFFFFFFFFFFFFFFFF DUP1 DUP3 GT ISZERO PUSH2 0x464 JUMPI DUP3 DUP4 REVERT JUMPDEST DUP2 DUP5 ADD SWAP2 POP DUP5 PUSH1 0x1F DUP4 ADD SLT PUSH2 0x477 JUMPI DUP3 DUP4 REVERT JUMPDEST DUP2 MLOAD DUP2 DUP2 GT ISZERO PUSH2 0x485 JUMPI DUP4 DUP5 REVERT JUMPDEST PUSH1 0x40 MLOAD PUSH1 0x20 PUSH32 0xFFFFFFFFFFFFFFFFFFFFFFFFFFFFFFFFFFFFFFFFFFFFFFFFFFFFFFFFFFFFFFE0 PUSH1 0x1F DUP5 ADD AND DUP3 ADD ADD DUP2 DUP2 LT DUP5 DUP3 GT OR ISZERO PUSH2 0x4C3 JUMPI DUP6 DUP7 REVERT JUMPDEST PUSH1 0x40 MSTORE DUP2 DUP2 MSTORE DUP4 DUP3 ADD PUSH1 0x20 ADD DUP8 LT ISZERO PUSH2 0x4DA JUMPI DUP5 DUP6 REVERT JUMPDEST PUSH2 0x4EB DUP3 PUSH1 0x20 DUP4 ADD PUSH1 0x20 DUP8 ADD PUSH2 0x6C4 JUMP JUMPDEST SWAP7 SWAP6 POP POP POP POP POP POP JUMP JUMPDEST PUSH1 0x0 DUP2 MLOAD DUP1 DUP5 MSTORE PUSH2 0x50D DUP2 PUSH1 0x20 DUP7 ADD PUSH1 0x20 DUP7 ADD PUSH2 0x6C4 JUMP JUMPDEST PUSH1 0x1F ADD PUSH32 0xFFFFFFFFFFFFFFFFFFFFFFFFFFFFFFFFFFFFFFFFFFFFFFFFFFFFFFFFFFFFFFE0 AND SWAP3 SWAP1 SWAP3 ADD PUSH1 0x20 ADD SWAP3 SWAP2 POP POP JUMP JUMPDEST PUSH1 0x0 DUP3 DUP5 DUP4 CALLDATACOPY SWAP2 ADD SWAP1 DUP2 MSTORE SWAP2 SWAP1 POP JUMP JUMPDEST PUSH20 0xFFFFFFFFFFFFFFFFFFFFFFFFFFFFFFFFFFFFFFFF SWAP8 DUP9 AND DUP2 MSTORE SWAP6 SWAP1 SWAP7 AND PUSH1 0x20 DUP7 ADD MSTORE PUSH1 0x40 DUP6 ADD SWAP4 SWAP1 SWAP4 MSTORE PUSH1 0x60 DUP5 ADD SWAP2 SWAP1 SWAP2 MSTORE PUSH1 0xFF AND PUSH1 0x80 DUP4 ADD MSTORE PUSH1 0xA0 DUP3 ADD MSTORE PUSH1 0xC0 DUP2 ADD SWAP2 SWAP1 SWAP2 MSTORE PUSH1 0xE0 ADD SWAP1 JUMP JUMPDEST PUSH1 0x40 DUP1 DUP3 MSTORE DUP4 MLOAD SWAP1 DUP3 ADD DUP2 SWAP1 MSTORE PUSH1 0x0 SWAP1 PUSH1 0x20 SWAP1 PUSH1 0x60 DUP5 ADD SWAP1 DUP3 DUP8 ADD DUP5 JUMPDEST DUP3 DUP2 LT ISZERO PUSH2 0x5D8 JUMPI DUP2 MLOAD ISZERO ISZERO DUP5 MSTORE SWAP3 DUP5 ADD SWAP3 SWAP1 DUP5 ADD SWAP1 PUSH1 0x1 ADD PUSH2 0x5BA JUMP JUMPDEST POP POP POP DUP4 DUP2 SUB DUP3 DUP6 ADD MSTORE DUP1 DUP6 MLOAD PUSH2 0x5EF DUP2 DUP5 PUSH2 0x6BB JUMP JUMPDEST SWAP2 POP DUP2 SWAP3 POP DUP4 DUP2 MUL DUP3 ADD DUP5 DUP9 ADD DUP7 JUMPDEST DUP4 DUP2 LT ISZERO PUSH2 0x628 JUMPI DUP6 DUP4 SUB DUP6 MSTORE PUSH2 0x616 DUP4 DUP4 MLOAD PUSH2 0x4F5 JUMP JUMPDEST SWAP5 DUP8 ADD SWAP5 SWAP3 POP SWAP1 DUP7 ADD SWAP1 PUSH1 0x1 ADD PUSH2 0x5FE JUMP JUMPDEST POP SWAP1 SWAP10 SWAP9 POP POP POP POP POP POP POP POP POP JUMP JUMPDEST PUSH1 0x0 PUSH1 0x20 DUP3 MSTORE PUSH2 0x64A PUSH1 0x20 DUP4 ADD DUP5 PUSH2 0x4F5 JUMP JUMPDEST SWAP4 SWAP3 POP POP POP JUMP JUMPDEST PUSH1 0x0 DUP1 DUP4 CALLDATALOAD PUSH32 0xFFFFFFFFFFFFFFFFFFFFFFFFFFFFFFFFFFFFFFFFFFFFFFFFFFFFFFFFFFFFFFE1 DUP5 CALLDATASIZE SUB ADD DUP2 SLT PUSH2 0x685 JUMPI DUP3 DUP4 REVERT JUMPDEST DUP4 ADD DUP1 CALLDATALOAD SWAP2 POP PUSH8 0xFFFFFFFFFFFFFFFF DUP3 GT ISZERO PUSH2 0x69F JUMPI DUP3 DUP4 REVERT JUMPDEST PUSH1 0x20 ADD SWAP2 POP CALLDATASIZE DUP2 SWAP1 SUB DUP3 SGT ISZERO PUSH2 0x6B4 JUMPI PUSH1 0x0 DUP1 REVERT JUMPDEST SWAP3 POP SWAP3 SWAP1 POP JUMP JUMPDEST SWAP1 DUP2 MSTORE PUSH1 0x20 ADD SWAP1 JUMP JUMPDEST PUSH1 0x0 JUMPDEST DUP4 DUP2 LT ISZERO PUSH2 0x6DF JUMPI DUP2 DUP2 ADD MLOAD DUP4 DUP3 ADD MSTORE PUSH1 0x20 ADD PUSH2 0x6C7 JUMP JUMPDEST DUP4 DUP2 GT ISZERO PUSH2 0x6EE JUMPI PUSH1 0x0 DUP5 DUP5 ADD MSTORE JUMPDEST POP POP POP POP JUMP JUMPDEST PUSH20 0xFFFFFFFFFFFFFFFFFFFFFFFFFFFFFFFFFFFFFFFF DUP2 AND DUP2 EQ PUSH2 0x716 JUMPI PUSH1 0x0 DUP1 REVERT JUMPDEST POP JUMP INVALID LOG2 PUSH5 0x6970667358 0x22 SLT KECCAK256 ISZERO SLT DUP5 KECCAK256 LOG3 DIV 0xFB KECCAK256 0xF 0xC3 0x2F 0xC8 0xBC SWAP11 0x5C DUP6 JUMPI PUSH11 0xDCAD7F8D6FEF21539BC461 0xB0 PUSH23 0x8F64736F6C634300060C00330000000000000000000000 "
        },
        "gasEstimates": {
          "creation": {
            "codeDepositCost": "374200",
            "executionCost": "411",
            "totalCost": "374611"
          },
          "external": {
            "batch(bytes[],bool)": "infinite",
            "permitToken(address,address,address,uint256,uint256,uint8,bytes32,bytes32)": "infinite"
          }
        },
        "methodIdentifiers": {
          "batch(bytes[],bool)": "d2423b51",
          "permitToken(address,address,address,uint256,uint256,uint8,bytes32,bytes32)": "7c516e94"
        }
      },
      "storageLayout": {
        "storage": [],
        "types": null
      },
      "userdoc": {
        "kind": "user",
        "methods": {
          "batch(bytes[],bool)": {
            "notice": "Allows batched call to self (this contract)."
          },
          "permitToken(address,address,address,uint256,uint256,uint8,bytes32,bytes32)": {
            "notice": "Call wrapper that performs `ERC20.permit` on `token`. Lookup `IERC20.permit`."
          }
        },
        "version": 1
      }
    }
  }
}