{
  "_format": "hh-sol-artifact-1",
  "contractName": "SplitProxy",
  "sourceName": "@chestrnft/splits/contracts/SplitProxy.sol",
  "abi": [
    {
      "inputs": [],
      "stateMutability": "nonpayable",
      "type": "constructor"
    },
    {
      "stateMutability": "payable",
      "type": "fallback"
    },
    {
      "inputs": [
        {
          "internalType": "uint256",
          "name": "",
          "type": "uint256"
        }
      ],
      "name": "balanceForWindow",
      "outputs": [
        {
          "internalType": "uint256",
          "name": "",
          "type": "uint256"
        }
      ],
      "stateMutability": "view",
      "type": "function"
    },
    {
      "inputs": [],
      "name": "currentWindow",
      "outputs": [
        {
          "internalType": "uint256",
          "name": "",
          "type": "uint256"
        }
      ],
      "stateMutability": "view",
      "type": "function"
    },
    {
      "inputs": [],
      "name": "merkleRoot",
      "outputs": [
        {
          "internalType": "bytes32",
          "name": "",
          "type": "bytes32"
        }
      ],
      "stateMutability": "view",
      "type": "function"
    },
    {
      "inputs": [],
      "name": "splitter",
      "outputs": [
        {
          "internalType": "address",
          "name": "",
          "type": "address"
        }
      ],
      "stateMutability": "view",
      "type": "function"
    },
    {
      "stateMutability": "payable",
      "type": "receive"
    }
  ],
  "bytecode": "0x608060405234801561001057600080fd5b50336001600160a01b0316633cd8045e6040518163ffffffff1660e01b8152600401602060405180830381600087803b15801561004c57600080fd5b505af1158015610060573d6000803e3d6000fd5b505050506040513d601f19601f8201168201806040525081019061008491906101be565b600360006101000a8154816001600160a01b0302191690836001600160a01b03160217905550336001600160a01b031663297848566040518163ffffffff1660e01b8152600401602060405180830381600087803b1580156100e557600080fd5b505af11580156100f9573d6000803e3d6000fd5b505050506040513d601f19601f8201168201806040525081019061011d91906101be565b600260006101000a8154816001600160a01b0302191690836001600160a01b03160217905550336001600160a01b0316632eb4a7ab6040518163ffffffff1660e01b8152600401602060405180830381600087803b15801561017e57600080fd5b505af1158015610192573d6000803e3d6000fd5b505050506040513d601f19601f820116820180604052508101906101b691906101ec565b600055610204565b6000602082840312156101cf578081fd5b81516001600160a01b03811681146101e5578182fd5b9392505050565b6000602082840312156101fd578081fd5b5051919050565b610195806102136000396000f3fe6080604052600436106100435760003560e01c80632eb4a7ab146100925780633cd8045e146100bb57806381e580d3146100f0578063ba0bafb4146101105761004a565b3661004a57005b600061006b60035473ffffffffffffffffffffffffffffffffffffffff1690565b905060405136600082376000803683855af43d806000843e81801561008e578184f35b8184fd5b34801561009e57600080fd5b506100a860005481565b6040519081526020015b60405180910390f35b3480156100c757600080fd5b5060035460405173ffffffffffffffffffffffffffffffffffffffff90911681526020016100b2565b3480156100fc57600080fd5b506100a861010b366004610147565b610126565b34801561011c57600080fd5b506100a860015481565b6004818154811061013657600080fd5b600091825260209091200154905081565b600060208284031215610158578081fd5b503591905056fea2646970667358221220bf39875ad21919586cf089aeb89ce06a2c2b11a9dfbf42b04a792ce5fbf1267264736f6c63430008040033",
  "linkReferences": {},
  "deployedLinkReferences": {}
}