{
  "_format": "hh-sol-artifact-1",
  "contractName": "L2TimelockTrigger",
  "sourceName": "contracts/L2TimelockTrigger.sol",
  "abi": [
    {
      "inputs": [
        {
          "internalType": "address",
          "name": "_owner",
          "type": "address"
        },
        {
          "internalType": "contract IDrawBuffer",
          "name": "_drawBuffer",
          "type": "address"
        },
        {
          "internalType": "contract IPrizeDistributionBuffer",
          "name": "_prizeDistributionBuffer",
          "type": "address"
        },
        {
          "internalType": "contract IDrawCalculatorTimelock",
          "name": "_timelock",
          "type": "address"
        }
      ],
      "stateMutability": "nonpayable",
      "type": "constructor"
    },
    {
      "anonymous": false,
      "inputs": [
        {
          "indexed": true,
          "internalType": "contract IDrawBuffer",
          "name": "drawBuffer",
          "type": "address"
        },
        {
          "indexed": true,
          "internalType": "contract IPrizeDistributionBuffer",
          "name": "prizeDistributionBuffer",
          "type": "address"
        },
        {
          "indexed": true,
          "internalType": "contract IDrawCalculatorTimelock",
          "name": "timelock",
          "type": "address"
        }
      ],
      "name": "Deployed",
      "type": "event"
    },
    {
      "anonymous": false,
      "inputs": [
        {
          "indexed": true,
          "internalType": "uint32",
          "name": "drawId",
          "type": "uint32"
        },
        {
          "components": [
            {
              "internalType": "uint256",
              "name": "winningRandomNumber",
              "type": "uint256"
            },
            {
              "internalType": "uint32",
              "name": "drawId",
              "type": "uint32"
            },
            {
              "internalType": "uint64",
              "name": "timestamp",
              "type": "uint64"
            },
            {
              "internalType": "uint64",
              "name": "beaconPeriodStartedAt",
              "type": "uint64"
            },
            {
              "internalType": "uint32",
              "name": "beaconPeriodSeconds",
              "type": "uint32"
            }
          ],
          "indexed": false,
          "internalType": "struct IDrawBeacon.Draw",
          "name": "draw",
          "type": "tuple"
        },
        {
          "components": [
            {
              "internalType": "uint8",
              "name": "bitRangeSize",
              "type": "uint8"
            },
            {
              "internalType": "uint8",
              "name": "matchCardinality",
              "type": "uint8"
            },
            {
              "internalType": "uint32",
              "name": "startTimestampOffset",
              "type": "uint32"
            },
            {
              "internalType": "uint32",
              "name": "endTimestampOffset",
              "type": "uint32"
            },
            {
              "internalType": "uint32",
              "name": "maxPicksPerUser",
              "type": "uint32"
            },
            {
              "internalType": "uint32",
              "name": "expiryDuration",
              "type": "uint32"
            },
            {
              "internalType": "uint104",
              "name": "numberOfPicks",
              "type": "uint104"
            },
            {
              "internalType": "uint32[16]",
              "name": "tiers",
              "type": "uint32[16]"
            },
            {
              "internalType": "uint256",
              "name": "prize",
              "type": "uint256"
            }
          ],
          "indexed": false,
          "internalType": "struct IPrizeDistributionSource.PrizeDistribution",
          "name": "prizeDistribution",
          "type": "tuple"
        }
      ],
      "name": "DrawAndPrizeDistributionPushed",
      "type": "event"
    },
    {
      "anonymous": false,
      "inputs": [
        {
          "indexed": true,
          "internalType": "address",
          "name": "previousManager",
          "type": "address"
        },
        {
          "indexed": true,
          "internalType": "address",
          "name": "newManager",
          "type": "address"
        }
      ],
      "name": "ManagerTransferred",
      "type": "event"
    },
    {
      "anonymous": false,
      "inputs": [
        {
          "indexed": true,
          "internalType": "address",
          "name": "pendingOwner",
          "type": "address"
        }
      ],
      "name": "OwnershipOffered",
      "type": "event"
    },
    {
      "anonymous": false,
      "inputs": [
        {
          "indexed": true,
          "internalType": "address",
          "name": "previousOwner",
          "type": "address"
        },
        {
          "indexed": true,
          "internalType": "address",
          "name": "newOwner",
          "type": "address"
        }
      ],
      "name": "OwnershipTransferred",
      "type": "event"
    },
    {
      "inputs": [],
      "name": "claimOwnership",
      "outputs": [],
      "stateMutability": "nonpayable",
      "type": "function"
    },
    {
      "inputs": [],
      "name": "drawBuffer",
      "outputs": [
        {
          "internalType": "contract IDrawBuffer",
          "name": "",
          "type": "address"
        }
      ],
      "stateMutability": "view",
      "type": "function"
    },
    {
      "inputs": [],
      "name": "manager",
      "outputs": [
        {
          "internalType": "address",
          "name": "",
          "type": "address"
        }
      ],
      "stateMutability": "view",
      "type": "function"
    },
    {
      "inputs": [],
      "name": "owner",
      "outputs": [
        {
          "internalType": "address",
          "name": "",
          "type": "address"
        }
      ],
      "stateMutability": "view",
      "type": "function"
    },
    {
      "inputs": [],
      "name": "pendingOwner",
      "outputs": [
        {
          "internalType": "address",
          "name": "",
          "type": "address"
        }
      ],
      "stateMutability": "view",
      "type": "function"
    },
    {
      "inputs": [],
      "name": "prizeDistributionBuffer",
      "outputs": [
        {
          "internalType": "contract IPrizeDistributionBuffer",
          "name": "",
          "type": "address"
        }
      ],
      "stateMutability": "view",
      "type": "function"
    },
    {
      "inputs": [
        {
          "components": [
            {
              "internalType": "uint256",
              "name": "winningRandomNumber",
              "type": "uint256"
            },
            {
              "internalType": "uint32",
              "name": "drawId",
              "type": "uint32"
            },
            {
              "internalType": "uint64",
              "name": "timestamp",
              "type": "uint64"
            },
            {
              "internalType": "uint64",
              "name": "beaconPeriodStartedAt",
              "type": "uint64"
            },
            {
              "internalType": "uint32",
              "name": "beaconPeriodSeconds",
              "type": "uint32"
            }
          ],
          "internalType": "struct IDrawBeacon.Draw",
          "name": "_draw",
          "type": "tuple"
        },
        {
          "components": [
            {
              "internalType": "uint8",
              "name": "bitRangeSize",
              "type": "uint8"
            },
            {
              "internalType": "uint8",
              "name": "matchCardinality",
              "type": "uint8"
            },
            {
              "internalType": "uint32",
              "name": "startTimestampOffset",
              "type": "uint32"
            },
            {
              "internalType": "uint32",
              "name": "endTimestampOffset",
              "type": "uint32"
            },
            {
              "internalType": "uint32",
              "name": "maxPicksPerUser",
              "type": "uint32"
            },
            {
              "internalType": "uint32",
              "name": "expiryDuration",
              "type": "uint32"
            },
            {
              "internalType": "uint104",
              "name": "numberOfPicks",
              "type": "uint104"
            },
            {
              "internalType": "uint32[16]",
              "name": "tiers",
              "type": "uint32[16]"
            },
            {
              "internalType": "uint256",
              "name": "prize",
              "type": "uint256"
            }
          ],
          "internalType": "struct IPrizeDistributionSource.PrizeDistribution",
          "name": "_prizeDistribution",
          "type": "tuple"
        }
      ],
      "name": "push",
      "outputs": [],
      "stateMutability": "nonpayable",
      "type": "function"
    },
    {
      "inputs": [],
      "name": "renounceOwnership",
      "outputs": [],
      "stateMutability": "nonpayable",
      "type": "function"
    },
    {
      "inputs": [
        {
          "internalType": "address",
          "name": "_newManager",
          "type": "address"
        }
      ],
      "name": "setManager",
      "outputs": [
        {
          "internalType": "bool",
          "name": "",
          "type": "bool"
        }
      ],
      "stateMutability": "nonpayable",
      "type": "function"
    },
    {
      "inputs": [],
      "name": "timelock",
      "outputs": [
        {
          "internalType": "contract IDrawCalculatorTimelock",
          "name": "",
          "type": "address"
        }
      ],
      "stateMutability": "view",
      "type": "function"
    },
    {
      "inputs": [
        {
          "internalType": "address",
          "name": "_newOwner",
          "type": "address"
        }
      ],
      "name": "transferOwnership",
      "outputs": [],
      "stateMutability": "nonpayable",
      "type": "function"
    }
  ],
  "bytecode": "0x60c060405234801561001057600080fd5b50604051610e07380380610e0783398101604081905261002f91610100565b83610039816100b0565b506001600160601b0319606084811b821660805283901b1660a052600380546001600160a01b038381166001600160a01b03199092168217909255604051909184811691908616907fc95935a66d15e0da5e412aca0ad27ae891d20b2fb91cf3994b6a3bf2b817808290600090a450505050610177565b600080546001600160a01b038381166001600160a01b0319831681178455604051919092169283917f8be0079c531659141344cd1fd0a4f28419497f9722a3daafe3b4186f6b6457e09190a35050565b6000806000806080858703121561011657600080fd5b84516101218161015f565b60208601519094506101328161015f565b60408601519093506101438161015f565b60608601519092506101548161015f565b939692955090935050565b6001600160a01b038116811461017457600080fd5b50565b60805160601c60a05160601c610c586101af6000396000818160b3015261046601526000818161013e01526103c20152610c586000f3fe608060405234801561001057600080fd5b50600436106100a95760003560e01c8063af32b60511610071578063af32b60514610126578063ce343bb614610139578063d0ebdbe714610160578063d33219b414610183578063e30c397814610196578063f2fde38b146101a757600080fd5b80630840bbdd146100ae578063481c6a75146100f25780634e71e0c814610103578063715018a61461010d5780638da5cb5b14610115575b600080fd5b6100d57f000000000000000000000000000000000000000000000000000000000000000081565b6040516001600160a01b0390911681526020015b60405180910390f35b6002546001600160a01b03166100d5565b61010b6101ba565b005b61010b610240565b6000546001600160a01b03166100d5565b61010b6101343660046108a5565b610285565b6100d57f000000000000000000000000000000000000000000000000000000000000000081565b61017361016e366004610853565b610537565b60405190151581526020016100e9565b6003546100d5906001600160a01b031681565b6001546001600160a01b03166100d5565b61010b6101b5366004610853565b610583565b6001546001600160a01b031633146102195760405162461bcd60e51b815260206004820152601f60248201527f4f776e61626c652f63616c6c65722d6e6f742d70656e64696e674f776e65720060448201526064015b60405180910390fd5b60015461022e906001600160a01b031661066a565b600180546001600160a01b0319169055565b336102536000546001600160a01b031690565b6001600160a01b0316146102795760405162461bcd60e51b815260040161021090610b2c565b610283600061066a565b565b336102986002546001600160a01b031690565b6001600160a01b031614806102c65750336102bb6000546001600160a01b031690565b6001600160a01b0316145b6103215760405162461bcd60e51b815260206004820152602660248201527f4d616e61676561626c652f63616c6c65722d6e6f742d6d616e616765722d6f7260448201526516b7bbb732b960d11b6064820152608401610210565b600354602083015160405163d3c45b8d60e01b815263ffffffff90911660048201526001600160a01b039091169063d3c45b8d90602401602060405180830381600087803b15801561037257600080fd5b505af1158015610386573d6000803e3d6000fd5b505050506040513d601f19601f820116820180604052508101906103aa9190610883565b5060405163089eb92560e01b81526001600160a01b037f0000000000000000000000000000000000000000000000000000000000000000169063089eb925906103f7908590600401610b63565b602060405180830381600087803b15801561041157600080fd5b505af1158015610425573d6000803e3d6000fd5b505050506040513d601f19601f8201168201806040525081019061044991906109dc565b506020820151604051630449387760e21b81526001600160a01b037f00000000000000000000000000000000000000000000000000000000000000001691631124e1dc9161049c91908590600401610b93565b602060405180830381600087803b1580156104b657600080fd5b505af11580156104ca573d6000803e3d6000fd5b505050506040513d601f19601f820116820180604052508101906104ee9190610883565b50816020015163ffffffff167f4b2c9bed31045ac093e453f0c6fcdde124408fae75b3e3b3f788c1c0a8775f95838360405161052b929190610b77565b60405180910390a25050565b60003361054c6000546001600160a01b031690565b6001600160a01b0316146105725760405162461bcd60e51b815260040161021090610b2c565b61057b826106ba565b90505b919050565b336105966000546001600160a01b031690565b6001600160a01b0316146105bc5760405162461bcd60e51b815260040161021090610b2c565b6001600160a01b0381166106205760405162461bcd60e51b815260206004820152602560248201527f4f776e61626c652f70656e64696e674f776e65722d6e6f742d7a65726f2d6164604482015264647265737360d81b6064820152608401610210565b600180546001600160a01b0319166001600160a01b0383169081179091556040517f239a2ddded15777fa246aed5f7e1a9bc69a39d4eb4a397034d1d85766cca7d4c90600090a250565b600080546001600160a01b038381166001600160a01b0319831681178455604051919092169283917f8be0079c531659141344cd1fd0a4f28419497f9722a3daafe3b4186f6b6457e09190a35050565b6002546000906001600160a01b039081169083168114156107295760405162461bcd60e51b815260206004820152602360248201527f4d616e61676561626c652f6578697374696e672d6d616e616765722d6164647260448201526265737360e81b6064820152608401610210565b600280546001600160a01b0319166001600160a01b0385811691821790925560405190918316907f9cb45c728de594dab506a1f1a8554e24c8eeaf983618d5ec5dd7bc6f3c49feee90600090a350600192915050565b600082601f83011261079057600080fd5b60405161020080820182811067ffffffffffffffff821117156107b5576107b5610bf7565b60405281848281018710156107c957600080fd5b600092505b60108310156107f75780356107e281610c0d565b825260019290920191602091820191016107ce565b509195945050505050565b80356cffffffffffffffffffffffffff8116811461057e57600080fd5b803561057e81610c0d565b803567ffffffffffffffff8116811461057e57600080fd5b803560ff8116811461057e57600080fd5b60006020828403121561086557600080fd5b81356001600160a01b038116811461087c57600080fd5b9392505050565b60006020828403121561089557600080fd5b8151801515811461087c57600080fd5b6000808284036103a08112156108ba57600080fd5b60a08112156108c857600080fd5b6108d0610bae565b8435815260208501356108e281610c0d565b60208201526108f36040860161082a565b60408201526109046060860161082a565b6060820152608085013561091781610c0d565b60808201529250610300609f198201121561093157600080fd5b5061093a610bd7565b61094660a08501610842565b815261095460c08501610842565b602082015261096560e0850161081f565b604082015261010061097881860161081f565b606083015261098a610120860161081f565b608083015261099c610140860161081f565b60a08301526109ae6101608601610802565b60c08301526109c186610180870161077f565b60e08301526103808501358183015250809150509250929050565b6000602082840312156109ee57600080fd5b815161087c81610c0d565b8060005b6010811015610a2257815163ffffffff168452602093840193909101906001016109fd565b50505050565b80518252602081015163ffffffff80821660208501526040830151915067ffffffffffffffff80831660408601528060608501511660608601525080608084015116608085015250505050565b60ff815116825260ff60208201511660208301526040810151610aa0604084018263ffffffff169052565b506060810151610ab8606084018263ffffffff169052565b506080810151610ad0608084018263ffffffff169052565b5060a0810151610ae860a084018263ffffffff169052565b5060c0810151610b0960c08401826cffffffffffffffffffffffffff169052565b5060e0810151610b1c60e08401826109f9565b5061010001516102e09190910152565b60208082526018908201527f4f776e61626c652f63616c6c65722d6e6f742d6f776e65720000000000000000604082015260600190565b60a08101610b718284610a28565b92915050565b6103a08101610b868285610a28565b61087c60a0830184610a75565b63ffffffff83168152610320810161087c6020830184610a75565b60405160a0810167ffffffffffffffff81118282101715610bd157610bd1610bf7565b60405290565b604051610120810167ffffffffffffffff81118282101715610bd157610bd15b634e487b7160e01b600052604160045260246000fd5b63ffffffff81168114610c1f57600080fd5b5056fea2646970667358221220bae684da9d1b90fb475ee77cd37943f21ed1b80a5b1d3cdb19bee2426b13c7ca64736f6c63430008060033",
  "linkReferences": {},
  "deployedLinkReferences": {}
}