{
  "_format": "hh-sol-artifact-1",
  "contractName": "EIP2612PermitAndDeposit",
  "sourceName": "contracts/permit/EIP2612PermitAndDeposit.sol",
  "abi": [
    {
      "inputs": [
        {
          "internalType": "address",
          "name": "_token",
          "type": "address"
        },
        {
          "internalType": "address",
          "name": "_owner",
          "type": "address"
        },
        {
          "internalType": "uint256",
          "name": "_amount",
          "type": "uint256"
        },
        {
          "internalType": "uint256",
          "name": "_deadline",
          "type": "uint256"
        },
        {
          "internalType": "uint8",
          "name": "_v",
          "type": "uint8"
        },
        {
          "internalType": "bytes32",
          "name": "_r",
          "type": "bytes32"
        },
        {
          "internalType": "bytes32",
          "name": "_s",
          "type": "bytes32"
        },
        {
          "internalType": "address",
          "name": "_prizePool",
          "type": "address"
        },
        {
          "internalType": "address",
          "name": "_to",
          "type": "address"
        }
      ],
      "name": "permitAndDepositTo",
      "outputs": [],
      "stateMutability": "nonpayable",
      "type": "function"
    }
  ],
  "bytecode": "0x608060405234801561001057600080fd5b5061084a806100206000396000f3fe608060405234801561001057600080fd5b506004361061002b5760003560e01c80636e369b7814610030575b600080fd5b61004361003e3660046106ca565b610045565b005b336001600160a01b038916146100c85760405162461bcd60e51b815260206004820152602360248201527f454950323631325065726d6974416e644465706f7369742f6f6e6c792d73696760448201527f6e6572000000000000000000000000000000000000000000000000000000000060648201526084015b60405180910390fd5b6040517fd505accf0000000000000000000000000000000000000000000000000000000081526001600160a01b038981166004830152306024830152604482018990526064820188905260ff8716608483015260a4820186905260c482018590528a169063d505accf9060e401600060405180830381600087803b15801561014f57600080fd5b505af1158015610163573d6000803e3d6000fd5b50505050610174898989858561017f565b505050505050505050565b6101946001600160a01b03861685308661021f565b6101a86001600160a01b03861683856102d6565b6040517fffaad6a50000000000000000000000000000000000000000000000000000000081526001600160a01b0382811660048301526024820185905283169063ffaad6a590604401600060405180830381600087803b15801561020b57600080fd5b505af1158015610174573d6000803e3d6000fd5b6040516001600160a01b03808516602483015283166044820152606481018290526102d09085907f23b872dd00000000000000000000000000000000000000000000000000000000906084015b60408051601f198184030181529190526020810180517bffffffffffffffffffffffffffffffffffffffffffffffffffffffff167fffffffff0000000000000000000000000000000000000000000000000000000090931692909217909152610438565b50505050565b80158061037857506040517fdd62ed3e0000000000000000000000000000000000000000000000000000000081523060048201526001600160a01b03838116602483015284169063dd62ed3e9060440160206040518083038186803b15801561033e57600080fd5b505afa158015610352573d6000803e3d6000fd5b505050506040513d601f19601f820116820180604052508101906103769190610780565b155b6103ea5760405162461bcd60e51b815260206004820152603660248201527f5361666545524332303a20617070726f76652066726f6d206e6f6e2d7a65726f60448201527f20746f206e6f6e2d7a65726f20616c6c6f77616e63650000000000000000000060648201526084016100bf565b6040516001600160a01b0383166024820152604481018290526104339084907f095ea7b3000000000000000000000000000000000000000000000000000000009060640161026c565b505050565b600061048d826040518060400160405280602081526020017f5361666545524332303a206c6f772d6c6576656c2063616c6c206661696c6564815250856001600160a01b031661051d9092919063ffffffff16565b80519091501561043357808060200190518101906104ab919061075e565b6104335760405162461bcd60e51b815260206004820152602a60248201527f5361666545524332303a204552433230206f7065726174696f6e20646964206e60448201527f6f7420737563636565640000000000000000000000000000000000000000000060648201526084016100bf565b606061052c8484600085610536565b90505b9392505050565b6060824710156105ae5760405162461bcd60e51b815260206004820152602660248201527f416464726573733a20696e73756666696369656e742062616c616e636520666f60448201527f722063616c6c000000000000000000000000000000000000000000000000000060648201526084016100bf565b843b6105fc5760405162461bcd60e51b815260206004820152601d60248201527f416464726573733a2063616c6c20746f206e6f6e2d636f6e747261637400000060448201526064016100bf565b600080866001600160a01b031685876040516106189190610799565b60006040518083038185875af1925050503d8060008114610655576040519150601f19603f3d011682016040523d82523d6000602084013e61065a565b606091505b509150915061066a828286610675565b979650505050505050565b6060831561068457508161052f565b8251156106945782518084602001fd5b8160405162461bcd60e51b81526004016100bf91906107b5565b80356001600160a01b03811681146106c557600080fd5b919050565b60008060008060008060008060006101208a8c0312156106e957600080fd5b6106f28a6106ae565b985061070060208b016106ae565b975060408a0135965060608a0135955060808a013560ff8116811461072457600080fd5b945060a08a0135935060c08a0135925061074060e08b016106ae565b915061074f6101008b016106ae565b90509295985092959850929598565b60006020828403121561077057600080fd5b8151801515811461052f57600080fd5b60006020828403121561079257600080fd5b5051919050565b600082516107ab8184602087016107e8565b9190910192915050565b60208152600082518060208401526107d48160408501602087016107e8565b601f01601f19169190910160400192915050565b60005b838110156108035781810151838201526020016107eb565b838111156102d0575050600091015256fea264697066735822122034c2f184b77ae6a71f24b9efc390d9bf50d42f0d37d148303a8d4ed0b49e1a3864736f6c63430008060033",
  "linkReferences": {},
  "deployedLinkReferences": {}
}