{
  "_format": "hh-sol-artifact-1",
  "contractName": "MockKeeperGauge",
  "sourceName": "contracts/testing/MockKeeperGauge.sol",
  "abi": [
    {
      "inputs": [
        {
          "internalType": "contract IController",
          "name": "_controller",
          "type": "address"
        },
        {
          "internalType": "address",
          "name": "_pool",
          "type": "address"
        }
      ],
      "stateMutability": "nonpayable",
      "type": "constructor"
    },
    {
      "inputs": [],
      "name": "advanceEpoch",
      "outputs": [
        {
          "internalType": "bool",
          "name": "",
          "type": "bool"
        }
      ],
      "stateMutability": "nonpayable",
      "type": "function"
    },
    {
      "inputs": [
        {
          "internalType": "address",
          "name": "beneficiary",
          "type": "address"
        },
        {
          "internalType": "uint256",
          "name": "endEpoch",
          "type": "uint256"
        }
      ],
      "name": "claimRewards",
      "outputs": [
        {
          "internalType": "uint256",
          "name": "",
          "type": "uint256"
        }
      ],
      "stateMutability": "nonpayable",
      "type": "function"
    },
    {
      "inputs": [
        {
          "internalType": "address",
          "name": "beneficiary",
          "type": "address"
        }
      ],
      "name": "claimRewards",
      "outputs": [
        {
          "internalType": "uint256",
          "name": "",
          "type": "uint256"
        }
      ],
      "stateMutability": "nonpayable",
      "type": "function"
    },
    {
      "inputs": [
        {
          "internalType": "address",
          "name": "beneficiary",
          "type": "address"
        }
      ],
      "name": "claimableRewards",
      "outputs": [
        {
          "internalType": "uint256",
          "name": "",
          "type": "uint256"
        }
      ],
      "stateMutability": "view",
      "type": "function"
    },
    {
      "inputs": [],
      "name": "controller",
      "outputs": [
        {
          "internalType": "contract IController",
          "name": "",
          "type": "address"
        }
      ],
      "stateMutability": "view",
      "type": "function"
    },
    {
      "inputs": [],
      "name": "epoch",
      "outputs": [
        {
          "internalType": "uint256",
          "name": "",
          "type": "uint256"
        }
      ],
      "stateMutability": "view",
      "type": "function"
    },
    {
      "inputs": [
        {
          "internalType": "address",
          "name": "",
          "type": "address"
        }
      ],
      "name": "keeperRecords",
      "outputs": [
        {
          "internalType": "uint256",
          "name": "nextEpochToClaim",
          "type": "uint256"
        },
        {
          "internalType": "bool",
          "name": "firstEpochSet",
          "type": "bool"
        }
      ],
      "stateMutability": "view",
      "type": "function"
    },
    {
      "inputs": [],
      "name": "kill",
      "outputs": [
        {
          "internalType": "bool",
          "name": "",
          "type": "bool"
        }
      ],
      "stateMutability": "nonpayable",
      "type": "function"
    },
    {
      "inputs": [],
      "name": "killed",
      "outputs": [
        {
          "internalType": "bool",
          "name": "",
          "type": "bool"
        }
      ],
      "stateMutability": "view",
      "type": "function"
    },
    {
      "inputs": [],
      "name": "lastUpdated",
      "outputs": [
        {
          "internalType": "uint48",
          "name": "",
          "type": "uint48"
        }
      ],
      "stateMutability": "view",
      "type": "function"
    },
    {
      "inputs": [
        {
          "internalType": "uint256",
          "name": "",
          "type": "uint256"
        }
      ],
      "name": "perPeriodTotalFees",
      "outputs": [
        {
          "internalType": "uint256",
          "name": "",
          "type": "uint256"
        }
      ],
      "stateMutability": "view",
      "type": "function"
    },
    {
      "inputs": [
        {
          "internalType": "uint256",
          "name": "",
          "type": "uint256"
        }
      ],
      "name": "perPeriodTotalInflation",
      "outputs": [
        {
          "internalType": "uint256",
          "name": "",
          "type": "uint256"
        }
      ],
      "stateMutability": "view",
      "type": "function"
    },
    {
      "inputs": [],
      "name": "pool",
      "outputs": [
        {
          "internalType": "address",
          "name": "",
          "type": "address"
        }
      ],
      "stateMutability": "view",
      "type": "function"
    },
    {
      "inputs": [],
      "name": "poolCheckpoint",
      "outputs": [
        {
          "internalType": "bool",
          "name": "",
          "type": "bool"
        }
      ],
      "stateMutability": "nonpayable",
      "type": "function"
    },
    {
      "inputs": [
        {
          "internalType": "address",
          "name": "beneficiary",
          "type": "address"
        },
        {
          "internalType": "uint256",
          "name": "amount",
          "type": "uint256"
        },
        {
          "internalType": "address",
          "name": "lpTokenAddress",
          "type": "address"
        }
      ],
      "name": "reportFees",
      "outputs": [
        {
          "internalType": "bool",
          "name": "",
          "type": "bool"
        }
      ],
      "stateMutability": "nonpayable",
      "type": "function"
    },
    {
      "inputs": [],
      "name": "roleManager",
      "outputs": [
        {
          "internalType": "contract IRoleManager",
          "name": "",
          "type": "address"
        }
      ],
      "stateMutability": "view",
      "type": "function"
    }
  ],
  "bytecode": "0x60e06040523480156200001157600080fd5b5060405162001111380380620011118339810160408190526200003491620001ad565b8181620000c9826001600160a01b0316632954018c6040518163ffffffff1660e01b815260040160206040518083038186803b1580156200007457600080fd5b505afa15801562000089573d6000803e3d6000fd5b505050506040513d601f19601f82011682018060405250810190620000af9190620001ec565b6001600160a01b03166200010260201b62000a231760201c565b6001600160a01b0390811660805291821660a0521660c05250506003805465ffffffffffff19164265ffffffffffff1617905562000213565b6040516321f8a72160e01b81526a3937b632a6b0b730b3b2b960a91b60048201526000906001600160a01b038316906321f8a7219060240160206040518083038186803b1580156200015357600080fd5b505afa15801562000168573d6000803e3d6000fd5b505050506040513d601f19601f820116820180604052508101906200018e9190620001ec565b92915050565b6001600160a01b0381168114620001aa57600080fd5b50565b60008060408385031215620001c157600080fd5b8251620001ce8162000194565b6020840151909250620001e18162000194565b809150509250929050565b600060208284031215620001ff57600080fd5b81516200020c8162000194565b9392505050565b60805160a05160c051610ea46200026d6000396000818161014801526107450152600081816102b1015281816102d70152818161054c0152818161069f0152610b2d01526000818161010601526108330152610ea46000f3fe608060405234801561001057600080fd5b50600436106100ff5760003560e01c806383c70f9711610097578063d0b06f5d11610066578063d0b06f5d1461025d578063dc01f60d14610286578063ef5cfb8c14610299578063f77c4791146102ac57600080fd5b806383c70f97146101df57806385e4de1b146101ff578063900cf0cf146102415780639a99b4f01461024a57600080fd5b80633cf80e6c116100d35780633cf80e6c1461019a57806341c0e1b5146101a15780634c56c559146101a95780635790a0c8146101d757600080fd5b8062435da51461010457806316f0115b146101435780631ec360681461016a5780631f3a0e411461018d575b600080fd5b7f00000000000000000000000000000000000000000000000000000000000000005b6040516001600160a01b0390911681526020015b60405180910390f35b6101267f000000000000000000000000000000000000000000000000000000000000000081565b61017d610178366004610c7c565b6102d3565b604051901515815260200161013a565b60055461017d9060ff1681565b600161017d565b61017d610548565b6101c96101b7366004610cbe565b60016020526000908152604090205481565b60405190815260200161013a565b61017d61066d565b6101c96101ed366004610cbe565b60046020526000908152604090205481565b61022c61020d366004610cd7565b6000602081905290815260409020600181015460029091015460ff1682565b6040805192835290151560208301520161013a565b6101c960025481565b6101c9610258366004610cf4565b61081d565b60035461026f9065ffffffffffff1681565b60405165ffffffffffff909116815260200161013a565b6101c9610294366004610cd7565b6109e5565b6101c96102a7366004610cd7565b610a15565b6101267f000000000000000000000000000000000000000000000000000000000000000081565b60007f00000000000000000000000000000000000000000000000000000000000000006001600160a01b0316632954018c6040518163ffffffff1660e01b815260040160206040518083038186803b15801561032e57600080fd5b505afa158015610342573d6000803e3d6000fd5b505050506040513d601f19601f820116820180604052508101906103669190610d20565b604051631fd4b62560e21b81523360048201526001600160a01b039190911690637f52d8949060240160206040518083038186803b1580156103a757600080fd5b505afa1580156103bb573d6000803e3d6000fd5b505050506040513d601f19601f820116820180604052508101906103df9190610d3d565b6040518060400160405280601781526020017f61646472657373206e6f742077686974656c69737465640000000000000000008152509061043c5760405162461bcd60e51b81526004016104339190610d5f565b60405180910390fd5b5060055460408051808201909152601281527118dbdb9d1c9858dd081a5cc81c185d5cd95960721b60208201529060ff161561048b5760405162461bcd60e51b81526004016104339190610d5f565b506001600160a01b03841660009081526020819052604090206002015460ff166104e0576001600160a01b03841660009081526020819052604090206002808201805460ff1916600190811790915590549101555b6001600160a01b038416600090815260208181526040808320600254845290915281208054859290610513908490610dca565b909155505060025460009081526001602052604081208054859290610539908490610dca565b90915550600195945050505050565b60007f00000000000000000000000000000000000000000000000000000000000000006001600160a01b031663dbcd89fa6040518163ffffffff1660e01b815260040160206040518083038186803b1580156105a357600080fd5b505afa1580156105b7573d6000803e3d6000fd5b505050506040513d601f19601f820116820180604052508101906105db9190610d20565b6001600160a01b0316336001600160a01b03161460405180604001604052806013815260200172756e617574686f72697a65642061636365737360681b815250906106395760405162461bcd60e51b81526004016104339190610d5f565b5061064261066d565b506002805490600061065383610de2565b90915550506005805460ff19166001908117909155905090565b60055460009060ff16156106815750600090565b6003546000906106999065ffffffffffff1642610dfd565b905060007f00000000000000000000000000000000000000000000000000000000000000006001600160a01b031663dbcd89fa6040518163ffffffff1660e01b815260040160206040518083038186803b1580156106f657600080fd5b505afa15801561070a573d6000803e3d6000fd5b505050506040513d601f19601f8201168201806040525081019061072e9190610d20565b60405163271a15bf60e21b81526001600160a01b037f0000000000000000000000000000000000000000000000000000000000000000811660048301529190911690639c6856fc9060240160206040518083038186803b15801561079157600080fd5b505afa1580156107a5573d6000803e3d6000fd5b505050506040513d601f19601f820116820180604052508101906107c99190610e14565b90506107d58282610e2d565b600254600090815260046020526040812080549091906107f6908490610dca565b90915550506003805465ffffffffffff19164265ffffffffffff1617905550600192915050565b6000336001600160a01b03841614806108dd57507f0000000000000000000000000000000000000000000000000000000000000000604051632474521560e21b815268067617567655f7a61760bc1b60048201523360248201526001600160a01b0391909116906391d148549060440160206040518083038186803b1580156108a557600080fd5b505afa1580156108b9573d6000803e3d6000fd5b505050506040513d601f19601f820116820180604052508101906108dd9190610d3d565b60405180604001604052806013815260200172756e617574686f72697a65642061636365737360681b815250906109275760405162461bcd60e51b81526004016104339190610d5f565b506002548211156109385760025491505b6001600160a01b03831660009081526020819052604081206001015461096090859085610aab565b6001600160a01b038516600090815260208181526040918290206001018690558151808301909252601982527f7a65726f207472616e73666572206e6f7420616c6c6f7765640000000000000090820152909150816109d25760405162461bcd60e51b81526004016104339190610d5f565b506109dd8482610b29565b509392505050565b6001600160a01b038116600090815260208190526040812060010154600254610a0f918491610aab565b92915050565b6000610a0f8260025461081d565b6040516321f8a72160e01b81526a3937b632a6b0b730b3b2b960a91b60048201526000906001600160a01b038316906321f8a7219060240160206040518083038186803b158015610a7357600080fd5b505afa158015610a87573d6000803e3d6000fd5b505050506040513d601f19601f82011682018060405250810190610a0f9190610d20565b600080835b83811015610b205760008181526004602090815260408083205460018352818420546001600160a01b038b168552848452828520868652909352922054610b029291610afc9190610c29565b90610c4f565b610b0c9083610dca565b915080610b1881610de2565b915050610ab0565b50949350505050565b60007f00000000000000000000000000000000000000000000000000000000000000006001600160a01b031663dbcd89fa6040518163ffffffff1660e01b815260040160206040518083038186803b158015610b8457600080fd5b505afa158015610b98573d6000803e3d6000fd5b505050506040513d601f19601f82011682018060405250810190610bbc9190610d20565b6040516335106f4960e11b81526001600160a01b038581166004830152602482018590529190911690636a20de9290604401600060405180830381600087803b158015610c0857600080fd5b505af1158015610c1c573d6000803e3d6000fd5b5060019695505050505050565b600081610c3e670de0b6b3a764000085610e2d565b610c489190610e4c565b9392505050565b6000670de0b6b3a7640000610c3e8385610e2d565b6001600160a01b0381168114610c7957600080fd5b50565b600080600060608486031215610c9157600080fd5b8335610c9c81610c64565b9250602084013591506040840135610cb381610c64565b809150509250925092565b600060208284031215610cd057600080fd5b5035919050565b600060208284031215610ce957600080fd5b8135610c4881610c64565b60008060408385031215610d0757600080fd5b8235610d1281610c64565b946020939093013593505050565b600060208284031215610d3257600080fd5b8151610c4881610c64565b600060208284031215610d4f57600080fd5b81518015158114610c4857600080fd5b600060208083528351808285015260005b81811015610d8c57858101830151858201604001528201610d70565b81811115610d9e576000604083870101525b50601f01601f1916929092016040019392505050565b634e487b7160e01b600052601160045260246000fd5b60008219821115610ddd57610ddd610db4565b500190565b6000600019821415610df657610df6610db4565b5060010190565b600082821015610e0f57610e0f610db4565b500390565b600060208284031215610e2657600080fd5b5051919050565b6000816000190483118215151615610e4757610e47610db4565b500290565b600082610e6957634e487b7160e01b600052601260045260246000fd5b50049056fea26469706673582212209ba04a8df1e65d367086b50a9e38150c94c01dfcb487ac0f2a854d8414c9ebd764736f6c63430008090033",
  "linkReferences": {},
  "deployedLinkReferences": {}
}