{
  "_format": "hh-sol-artifact-1",
  "contractName": "MockErc20Vault",
  "sourceName": "contracts/testing/MockVault.sol",
  "abi": [
    {
      "inputs": [
        {
          "internalType": "contract IController",
          "name": "controller",
          "type": "address"
        }
      ],
      "stateMutability": "nonpayable",
      "type": "constructor"
    },
    {
      "anonymous": false,
      "inputs": [
        {
          "indexed": true,
          "internalType": "bytes32",
          "name": "key",
          "type": "bytes32"
        },
        {
          "indexed": false,
          "internalType": "address",
          "name": "value",
          "type": "address"
        },
        {
          "indexed": false,
          "internalType": "uint256",
          "name": "delay",
          "type": "uint256"
        }
      ],
      "name": "ConfigPreparedAddress",
      "type": "event"
    },
    {
      "anonymous": false,
      "inputs": [
        {
          "indexed": true,
          "internalType": "bytes32",
          "name": "key",
          "type": "bytes32"
        },
        {
          "indexed": false,
          "internalType": "uint256",
          "name": "value",
          "type": "uint256"
        },
        {
          "indexed": false,
          "internalType": "uint256",
          "name": "delay",
          "type": "uint256"
        }
      ],
      "name": "ConfigPreparedNumber",
      "type": "event"
    },
    {
      "anonymous": false,
      "inputs": [
        {
          "indexed": true,
          "internalType": "bytes32",
          "name": "key",
          "type": "bytes32"
        }
      ],
      "name": "ConfigReset",
      "type": "event"
    },
    {
      "anonymous": false,
      "inputs": [
        {
          "indexed": true,
          "internalType": "bytes32",
          "name": "key",
          "type": "bytes32"
        },
        {
          "indexed": false,
          "internalType": "address",
          "name": "oldValue",
          "type": "address"
        },
        {
          "indexed": false,
          "internalType": "address",
          "name": "newValue",
          "type": "address"
        }
      ],
      "name": "ConfigUpdatedAddress",
      "type": "event"
    },
    {
      "anonymous": false,
      "inputs": [
        {
          "indexed": true,
          "internalType": "bytes32",
          "name": "key",
          "type": "bytes32"
        },
        {
          "indexed": false,
          "internalType": "uint256",
          "name": "oldValue",
          "type": "uint256"
        },
        {
          "indexed": false,
          "internalType": "uint256",
          "name": "newValue",
          "type": "uint256"
        }
      ],
      "name": "ConfigUpdatedNumber",
      "type": "event"
    },
    {
      "anonymous": false,
      "inputs": [
        {
          "indexed": true,
          "internalType": "uint256",
          "name": "netProfit",
          "type": "uint256"
        },
        {
          "indexed": true,
          "internalType": "uint256",
          "name": "loss",
          "type": "uint256"
        }
      ],
      "name": "Harvest",
      "type": "event"
    },
    {
      "anonymous": false,
      "inputs": [
        {
          "indexed": true,
          "internalType": "address",
          "name": "strategy",
          "type": "address"
        }
      ],
      "name": "StrategyActivated",
      "type": "event"
    },
    {
      "anonymous": false,
      "inputs": [
        {
          "indexed": true,
          "internalType": "address",
          "name": "strategy",
          "type": "address"
        }
      ],
      "name": "StrategyDeactivated",
      "type": "event"
    },
    {
      "inputs": [],
      "name": "MAX_DEVIATION_BOUND",
      "outputs": [
        {
          "internalType": "uint256",
          "name": "",
          "type": "uint256"
        }
      ],
      "stateMutability": "view",
      "type": "function"
    },
    {
      "inputs": [],
      "name": "MAX_PERFORMANCE_FEE",
      "outputs": [
        {
          "internalType": "uint256",
          "name": "",
          "type": "uint256"
        }
      ],
      "stateMutability": "view",
      "type": "function"
    },
    {
      "inputs": [],
      "name": "STRATEGY_DELAY",
      "outputs": [
        {
          "internalType": "uint256",
          "name": "",
          "type": "uint256"
        }
      ],
      "stateMutability": "view",
      "type": "function"
    },
    {
      "inputs": [],
      "name": "activateStrategy",
      "outputs": [
        {
          "internalType": "bool",
          "name": "",
          "type": "bool"
        }
      ],
      "stateMutability": "nonpayable",
      "type": "function"
    },
    {
      "inputs": [],
      "name": "addressProvider",
      "outputs": [
        {
          "internalType": "contract IAddressProvider",
          "name": "",
          "type": "address"
        }
      ],
      "stateMutability": "view",
      "type": "function"
    },
    {
      "inputs": [],
      "name": "controller",
      "outputs": [
        {
          "internalType": "contract IController",
          "name": "",
          "type": "address"
        }
      ],
      "stateMutability": "view",
      "type": "function"
    },
    {
      "inputs": [
        {
          "internalType": "bytes32",
          "name": "",
          "type": "bytes32"
        }
      ],
      "name": "currentAddresses",
      "outputs": [
        {
          "internalType": "address",
          "name": "",
          "type": "address"
        }
      ],
      "stateMutability": "view",
      "type": "function"
    },
    {
      "inputs": [],
      "name": "currentAllocated",
      "outputs": [
        {
          "internalType": "uint256",
          "name": "",
          "type": "uint256"
        }
      ],
      "stateMutability": "view",
      "type": "function"
    },
    {
      "inputs": [
        {
          "internalType": "bytes32",
          "name": "",
          "type": "bytes32"
        }
      ],
      "name": "currentUInts256",
      "outputs": [
        {
          "internalType": "uint256",
          "name": "",
          "type": "uint256"
        }
      ],
      "stateMutability": "view",
      "type": "function"
    },
    {
      "inputs": [],
      "name": "deactivateStrategy",
      "outputs": [
        {
          "internalType": "bool",
          "name": "",
          "type": "bool"
        }
      ],
      "stateMutability": "nonpayable",
      "type": "function"
    },
    {
      "inputs": [
        {
          "internalType": "bytes32",
          "name": "",
          "type": "bytes32"
        }
      ],
      "name": "deadlines",
      "outputs": [
        {
          "internalType": "uint256",
          "name": "",
          "type": "uint256"
        }
      ],
      "stateMutability": "view",
      "type": "function"
    },
    {
      "inputs": [],
      "name": "deposit",
      "outputs": [],
      "stateMutability": "payable",
      "type": "function"
    },
    {
      "inputs": [
        {
          "internalType": "address",
          "name": "coin",
          "type": "address"
        },
        {
          "internalType": "uint256",
          "name": "amount",
          "type": "uint256"
        }
      ],
      "name": "depositToReserve",
      "outputs": [],
      "stateMutability": "nonpayable",
      "type": "function"
    },
    {
      "inputs": [],
      "name": "executeBound",
      "outputs": [
        {
          "internalType": "uint256",
          "name": "",
          "type": "uint256"
        }
      ],
      "stateMutability": "nonpayable",
      "type": "function"
    },
    {
      "inputs": [],
      "name": "executeDebtLimit",
      "outputs": [
        {
          "internalType": "uint256",
          "name": "",
          "type": "uint256"
        }
      ],
      "stateMutability": "nonpayable",
      "type": "function"
    },
    {
      "inputs": [],
      "name": "executeNewStrategy",
      "outputs": [
        {
          "internalType": "address",
          "name": "",
          "type": "address"
        }
      ],
      "stateMutability": "nonpayable",
      "type": "function"
    },
    {
      "inputs": [],
      "name": "executePerformanceFee",
      "outputs": [
        {
          "internalType": "uint256",
          "name": "",
          "type": "uint256"
        }
      ],
      "stateMutability": "nonpayable",
      "type": "function"
    },
    {
      "inputs": [],
      "name": "executeReserveFee",
      "outputs": [
        {
          "internalType": "uint256",
          "name": "",
          "type": "uint256"
        }
      ],
      "stateMutability": "nonpayable",
      "type": "function"
    },
    {
      "inputs": [],
      "name": "executeStrategistFee",
      "outputs": [
        {
          "internalType": "uint256",
          "name": "",
          "type": "uint256"
        }
      ],
      "stateMutability": "nonpayable",
      "type": "function"
    },
    {
      "inputs": [],
      "name": "executeTargetAllocation",
      "outputs": [
        {
          "internalType": "uint256",
          "name": "",
          "type": "uint256"
        }
      ],
      "stateMutability": "nonpayable",
      "type": "function"
    },
    {
      "inputs": [
        {
          "internalType": "address",
          "name": "strategy",
          "type": "address"
        }
      ],
      "name": "getAllocatedToStrategyWaitingForRemoval",
      "outputs": [
        {
          "internalType": "uint256",
          "name": "",
          "type": "uint256"
        }
      ],
      "stateMutability": "view",
      "type": "function"
    },
    {
      "inputs": [],
      "name": "getBound",
      "outputs": [
        {
          "internalType": "uint256",
          "name": "",
          "type": "uint256"
        }
      ],
      "stateMutability": "view",
      "type": "function"
    },
    {
      "inputs": [],
      "name": "getDebtLimit",
      "outputs": [
        {
          "internalType": "uint256",
          "name": "",
          "type": "uint256"
        }
      ],
      "stateMutability": "view",
      "type": "function"
    },
    {
      "inputs": [],
      "name": "getPerformanceFee",
      "outputs": [
        {
          "internalType": "uint256",
          "name": "",
          "type": "uint256"
        }
      ],
      "stateMutability": "view",
      "type": "function"
    },
    {
      "inputs": [],
      "name": "getReserveFee",
      "outputs": [
        {
          "internalType": "uint256",
          "name": "",
          "type": "uint256"
        }
      ],
      "stateMutability": "view",
      "type": "function"
    },
    {
      "inputs": [],
      "name": "getStrategiesWaitingForRemoval",
      "outputs": [
        {
          "internalType": "address[]",
          "name": "",
          "type": "address[]"
        }
      ],
      "stateMutability": "view",
      "type": "function"
    },
    {
      "inputs": [],
      "name": "getStrategistFee",
      "outputs": [
        {
          "internalType": "uint256",
          "name": "",
          "type": "uint256"
        }
      ],
      "stateMutability": "view",
      "type": "function"
    },
    {
      "inputs": [],
      "name": "getStrategy",
      "outputs": [
        {
          "internalType": "contract IStrategy",
          "name": "",
          "type": "address"
        }
      ],
      "stateMutability": "view",
      "type": "function"
    },
    {
      "inputs": [],
      "name": "getTargetAllocation",
      "outputs": [
        {
          "internalType": "uint256",
          "name": "",
          "type": "uint256"
        }
      ],
      "stateMutability": "view",
      "type": "function"
    },
    {
      "inputs": [],
      "name": "getTotalUnderlying",
      "outputs": [
        {
          "internalType": "uint256",
          "name": "",
          "type": "uint256"
        }
      ],
      "stateMutability": "view",
      "type": "function"
    },
    {
      "inputs": [],
      "name": "getUnderlying",
      "outputs": [
        {
          "internalType": "address",
          "name": "",
          "type": "address"
        }
      ],
      "stateMutability": "view",
      "type": "function"
    },
    {
      "inputs": [],
      "name": "harvest",
      "outputs": [
        {
          "internalType": "bool",
          "name": "",
          "type": "bool"
        }
      ],
      "stateMutability": "nonpayable",
      "type": "function"
    },
    {
      "inputs": [
        {
          "internalType": "address",
          "name": "_pool",
          "type": "address"
        },
        {
          "internalType": "uint256",
          "name": "_debtLimit",
          "type": "uint256"
        },
        {
          "internalType": "uint256",
          "name": "_targetAllocation",
          "type": "uint256"
        },
        {
          "internalType": "uint256",
          "name": "_bound",
          "type": "uint256"
        }
      ],
      "name": "initialize",
      "outputs": [],
      "stateMutability": "nonpayable",
      "type": "function"
    },
    {
      "inputs": [
        {
          "internalType": "address",
          "name": "strategy_",
          "type": "address"
        }
      ],
      "name": "initializeStrategy",
      "outputs": [
        {
          "internalType": "bool",
          "name": "",
          "type": "bool"
        }
      ],
      "stateMutability": "nonpayable",
      "type": "function"
    },
    {
      "inputs": [
        {
          "internalType": "bytes32",
          "name": "",
          "type": "bytes32"
        }
      ],
      "name": "pendingAddresses",
      "outputs": [
        {
          "internalType": "address",
          "name": "",
          "type": "address"
        }
      ],
      "stateMutability": "view",
      "type": "function"
    },
    {
      "inputs": [
        {
          "internalType": "bytes32",
          "name": "",
          "type": "bytes32"
        }
      ],
      "name": "pendingUInts256",
      "outputs": [
        {
          "internalType": "uint256",
          "name": "",
          "type": "uint256"
        }
      ],
      "stateMutability": "view",
      "type": "function"
    },
    {
      "inputs": [],
      "name": "pool",
      "outputs": [
        {
          "internalType": "address",
          "name": "",
          "type": "address"
        }
      ],
      "stateMutability": "view",
      "type": "function"
    },
    {
      "inputs": [
        {
          "internalType": "uint256",
          "name": "newBound",
          "type": "uint256"
        }
      ],
      "name": "prepareBound",
      "outputs": [
        {
          "internalType": "bool",
          "name": "",
          "type": "bool"
        }
      ],
      "stateMutability": "nonpayable",
      "type": "function"
    },
    {
      "inputs": [
        {
          "internalType": "uint256",
          "name": "newDebtLimit",
          "type": "uint256"
        }
      ],
      "name": "prepareDebtLimit",
      "outputs": [
        {
          "internalType": "bool",
          "name": "",
          "type": "bool"
        }
      ],
      "stateMutability": "nonpayable",
      "type": "function"
    },
    {
      "inputs": [
        {
          "internalType": "address",
          "name": "newStrategy",
          "type": "address"
        }
      ],
      "name": "prepareNewStrategy",
      "outputs": [
        {
          "internalType": "bool",
          "name": "",
          "type": "bool"
        }
      ],
      "stateMutability": "nonpayable",
      "type": "function"
    },
    {
      "inputs": [
        {
          "internalType": "uint256",
          "name": "newPerformanceFee",
          "type": "uint256"
        }
      ],
      "name": "preparePerformanceFee",
      "outputs": [
        {
          "internalType": "bool",
          "name": "",
          "type": "bool"
        }
      ],
      "stateMutability": "nonpayable",
      "type": "function"
    },
    {
      "inputs": [
        {
          "internalType": "uint256",
          "name": "newReserveFee",
          "type": "uint256"
        }
      ],
      "name": "prepareReserveFee",
      "outputs": [
        {
          "internalType": "bool",
          "name": "",
          "type": "bool"
        }
      ],
      "stateMutability": "nonpayable",
      "type": "function"
    },
    {
      "inputs": [
        {
          "internalType": "uint256",
          "name": "newStrategistFee",
          "type": "uint256"
        }
      ],
      "name": "prepareStrategistFee",
      "outputs": [
        {
          "internalType": "bool",
          "name": "",
          "type": "bool"
        }
      ],
      "stateMutability": "nonpayable",
      "type": "function"
    },
    {
      "inputs": [
        {
          "internalType": "uint256",
          "name": "newTargetAllocation",
          "type": "uint256"
        }
      ],
      "name": "prepareTargetAllocation",
      "outputs": [
        {
          "internalType": "bool",
          "name": "",
          "type": "bool"
        }
      ],
      "stateMutability": "nonpayable",
      "type": "function"
    },
    {
      "inputs": [],
      "name": "reserve",
      "outputs": [
        {
          "internalType": "contract IVaultReserve",
          "name": "",
          "type": "address"
        }
      ],
      "stateMutability": "view",
      "type": "function"
    },
    {
      "inputs": [],
      "name": "resetBound",
      "outputs": [
        {
          "internalType": "bool",
          "name": "",
          "type": "bool"
        }
      ],
      "stateMutability": "nonpayable",
      "type": "function"
    },
    {
      "inputs": [],
      "name": "resetDebtLimit",
      "outputs": [
        {
          "internalType": "bool",
          "name": "",
          "type": "bool"
        }
      ],
      "stateMutability": "nonpayable",
      "type": "function"
    },
    {
      "inputs": [],
      "name": "resetNewStrategy",
      "outputs": [
        {
          "internalType": "bool",
          "name": "",
          "type": "bool"
        }
      ],
      "stateMutability": "nonpayable",
      "type": "function"
    },
    {
      "inputs": [],
      "name": "resetPerformanceFee",
      "outputs": [
        {
          "internalType": "bool",
          "name": "",
          "type": "bool"
        }
      ],
      "stateMutability": "nonpayable",
      "type": "function"
    },
    {
      "inputs": [],
      "name": "resetReserveFee",
      "outputs": [
        {
          "internalType": "bool",
          "name": "",
          "type": "bool"
        }
      ],
      "stateMutability": "nonpayable",
      "type": "function"
    },
    {
      "inputs": [],
      "name": "resetStrategistFee",
      "outputs": [
        {
          "internalType": "bool",
          "name": "",
          "type": "bool"
        }
      ],
      "stateMutability": "nonpayable",
      "type": "function"
    },
    {
      "inputs": [],
      "name": "resetTargetAllocation",
      "outputs": [
        {
          "internalType": "bool",
          "name": "",
          "type": "bool"
        }
      ],
      "stateMutability": "nonpayable",
      "type": "function"
    },
    {
      "inputs": [],
      "name": "roleManager",
      "outputs": [
        {
          "internalType": "contract IRoleManager",
          "name": "",
          "type": "address"
        }
      ],
      "stateMutability": "view",
      "type": "function"
    },
    {
      "inputs": [
        {
          "internalType": "uint256",
          "name": "newBound",
          "type": "uint256"
        }
      ],
      "name": "setBound",
      "outputs": [
        {
          "internalType": "uint256",
          "name": "",
          "type": "uint256"
        }
      ],
      "stateMutability": "nonpayable",
      "type": "function"
    },
    {
      "inputs": [
        {
          "internalType": "address",
          "name": "_strategy",
          "type": "address"
        }
      ],
      "name": "setStrategy",
      "outputs": [
        {
          "internalType": "bool",
          "name": "",
          "type": "bool"
        }
      ],
      "stateMutability": "nonpayable",
      "type": "function"
    },
    {
      "inputs": [
        {
          "internalType": "uint256",
          "name": "allocation",
          "type": "uint256"
        }
      ],
      "name": "setTargetAllocation",
      "outputs": [
        {
          "internalType": "uint256",
          "name": "",
          "type": "uint256"
        }
      ],
      "stateMutability": "nonpayable",
      "type": "function"
    },
    {
      "inputs": [],
      "name": "strategyActive",
      "outputs": [
        {
          "internalType": "bool",
          "name": "",
          "type": "bool"
        }
      ],
      "stateMutability": "view",
      "type": "function"
    },
    {
      "inputs": [],
      "name": "totalDebt",
      "outputs": [
        {
          "internalType": "uint256",
          "name": "",
          "type": "uint256"
        }
      ],
      "stateMutability": "view",
      "type": "function"
    },
    {
      "inputs": [],
      "name": "waitingForRemovalAllocated",
      "outputs": [
        {
          "internalType": "uint256",
          "name": "",
          "type": "uint256"
        }
      ],
      "stateMutability": "view",
      "type": "function"
    },
    {
      "inputs": [
        {
          "internalType": "uint256",
          "name": "amount",
          "type": "uint256"
        }
      ],
      "name": "withdraw",
      "outputs": [
        {
          "internalType": "bool",
          "name": "",
          "type": "bool"
        }
      ],
      "stateMutability": "nonpayable",
      "type": "function"
    },
    {
      "inputs": [],
      "name": "withdrawAll",
      "outputs": [],
      "stateMutability": "nonpayable",
      "type": "function"
    },
    {
      "inputs": [],
      "name": "withdrawAllFromStrategy",
      "outputs": [
        {
          "internalType": "bool",
          "name": "",
          "type": "bool"
        }
      ],
      "stateMutability": "nonpayable",
      "type": "function"
    },
    {
      "inputs": [
        {
          "internalType": "uint256",
          "name": "amount",
          "type": "uint256"
        }
      ],
      "name": "withdrawFromReserve",
      "outputs": [],
      "stateMutability": "nonpayable",
      "type": "function"
    },
    {
      "inputs": [
        {
          "internalType": "address",
          "name": "coin",
          "type": "address"
        },
        {
          "internalType": "uint256",
          "name": "amount",
          "type": "uint256"
        }
      ],
      "name": "withdrawFromReserve",
      "outputs": [],
      "stateMutability": "nonpayable",
      "type": "function"
    },
    {
      "inputs": [
        {
          "internalType": "uint256",
          "name": "amount",
          "type": "uint256"
        }
      ],
      "name": "withdrawFromStrategy",
      "outputs": [
        {
          "internalType": "bool",
          "name": "",
          "type": "bool"
        }
      ],
      "stateMutability": "nonpayable",
      "type": "function"
    },
    {
      "inputs": [
        {
          "internalType": "address",
          "name": "strategy",
          "type": "address"
        }
      ],
      "name": "withdrawFromStrategyWaitingForRemoval",
      "outputs": [
        {
          "internalType": "uint256",
          "name": "",
          "type": "uint256"
        }
      ],
      "stateMutability": "nonpayable",
      "type": "function"
    }
  ],
  "bytecode": "0x6101006040523480156200001257600080fd5b50604051620060ad380380620060ad833981016040819052620000359162000291565b8080620000ca816001600160a01b0316632954018c6040518163ffffffff1660e01b815260040160206040518083038186803b1580156200007557600080fd5b505afa1580156200008a573d6000803e3d6000fd5b505050506040513d601f19601f82011682018060405250810190620000b0919062000291565b6001600160a01b0316620001a660201b620039d71760201c565b6001600160a01b03908116608052811660a081905260408051630a55006360e21b8152905160009291632954018c916004808301926020929190829003018186803b1580156200011957600080fd5b505afa1580156200012e573d6000803e3d6000fd5b505050506040513d601f19601f8201168201806040525081019062000154919062000291565b9050806001600160a01b031660c0816001600160a01b0316815250506200018f816001600160a01b03166200023960201b62003a601760201c565b6001600160a01b031660e05250620002b892505050565b6040516321f8a72160e01b81526a3937b632a6b0b730b3b2b960a91b60048201526000906001600160a01b038316906321f8a721906024015b60206040518083038186803b158015620001f857600080fd5b505afa1580156200020d573d6000803e3d6000fd5b505050506040513d601f19601f8201168201806040525081019062000233919062000291565b92915050565b6040516321f8a72160e01b81526b7661756c745265736572766560a01b60048201526000906001600160a01b038316906321f8a72190602401620001df565b6001600160a01b03811681146200028e57600080fd5b50565b600060208284031215620002a457600080fd5b8151620002b18162000278565b9392505050565b60805160a05160c05160e051615d5962000354600039600081816109af01528181610d7801528181610e800152818161154101528181611a3801528181611acc015281816121e801528181614d8b01528181614e6c01528181614ef50152818161528401528181615428015281816154b8015261556b0152600081816105a2015261533101526000610af501526000613aa00152615d596000f3fe6080604052600436106103d85760003560e01c8063890f5f83116101fd578063bdca916511610118578063d8ae7bf8116100ab578063f3e7fc801161007a578063f3e7fc8014610a98578063f76c339914610aad578063f77c479114610ae3578063f95d943814610b17578063fc7b9c1814610b2d57600080fd5b8063d8ae7bf814610a18578063e3976edf14610a2d578063f09b8fb114610a63578063f1eeb9e614610a7857600080fd5b8063d0e30db0116100e7578063d0e30db0146109d1578063d46a8478146109d9578063d583e659146109ee578063d698e2bb14610a0357600080fd5b8063bdca916514610825578063c4baed9314610968578063c9fd922714610988578063cd3293de1461099d57600080fd5b8063a50ec87611610190578063af2a8fff1161015f578063af2a8fff146108ec578063aff1b7e41461090c578063b40494e514610939578063bd2a8b071461094e57600080fd5b8063a50ec8761461088d578063a852d3e0146108a2578063a966bc09146108c2578063ade10960146108d757600080fd5b80639407d08f116101cc5780639407d08f146108255780639816f473146108415780639cf7fcc9146108565780639d711f3b1461087857600080fd5b8063890f5f83146107d057806389efcaac146107e55780638e6ac89b146107fb57806390f389181461081057600080fd5b806333a100ca116102f85780636741c1b91161028b578063779ce5a41161025a578063779ce5a414610767578063798cf01d1461077c5780637cd32a12146107915780637fef50da146107a6578063853828b6146107bb57600080fd5b80636741c1b9146106fb578063678cbcb5146107105780636d785cf3146107305780636f21cac31461074757600080fd5b80634641257d116102c75780634641257d1461068657806348b193351461069b5780634b149e79146106bb5780634ec81af1146106db57600080fd5b806333a100ca146105f9578063346a4a5114610619578063393bd5d4146106465780634278a6731461066657600080fd5b806321401dd11161037057806327f576d11161033f57806327f576d1146105705780632954018c146105905780632e1a7d4d146105c457806332a894c1146105e457600080fd5b806321401dd1146105065780632182a5c41461051b578063235c36031461053b57806327709cf71461055057600080fd5b80630fe6cbcf116103ac5780630fe6cbcf1461046b578063102a91261461048b57806315dbfe62146104ab57806316f0115b146104e657600080fd5b8062435da5146103dd57806307da06031461040f5780630a8bcdb9146104245780630ee43c2014610446575b600080fd5b3480156103e957600080fd5b506103f2610b43565b6040516001600160a01b0390911681526020015b60405180910390f35b34801561041b57600080fd5b506103f2610b52565b34801561043057600080fd5b5061044461043f3660046159d1565b610b94565b005b34801561045257600080fd5b5061045b610f2a565b6040519015158152602001610406565b34801561047757600080fd5b5061045b6104863660046159d1565b61101d565b34801561049757600080fd5b5061045b6104a63660046159d1565b611125565b3480156104b757600080fd5b506104d86104c63660046159d1565b603b6020526000908152604090205481565b604051908152602001610406565b3480156104f257600080fd5b506002546103f2906001600160a01b031681565b34801561051257600080fd5b5061045b611224565b34801561052757600080fd5b5061045b6105363660046159d1565b611303565b34801561054757600080fd5b506104d86113f0565b34801561055c57600080fd5b506104d861056b3660046159d1565b61142f565b34801561057c57600080fd5b5061044461058b3660046159ff565b61152a565b34801561059c57600080fd5b506103f27f000000000000000000000000000000000000000000000000000000000000000081565b3480156105d057600080fd5b5061045b6105df3660046159d1565b611578565b3480156105f057600080fd5b506104d86118d3565b34801561060557600080fd5b5061045b610614366004615a2b565b6118f6565b34801561062557600080fd5b506104d86106343660046159d1565b603e6020526000908152604090205481565b34801561065257600080fd5b506104446106613660046159ff565b611a14565b34801561067257600080fd5b5061045b6106813660046159d1565b611b03565b34801561069257600080fd5b5061045b611c3b565b3480156106a757600080fd5b5061045b6106b63660046159d1565b611d30565b3480156106c757600080fd5b506104d86106d63660046159d1565b611f69565b3480156106e757600080fd5b506104446106f6366004615a48565b612052565b34801561070757600080fd5b5061045b61223f565b34801561071c57600080fd5b5061045b61072b366004615a2b565b61231e565b34801561073c57600080fd5b506104d86206978081565b34801561075357600080fd5b506104d8610762366004615a2b565b6125d0565b34801561077357600080fd5b506104d86125dd565b34801561078857600080fd5b506104d861261e565b34801561079d57600080fd5b506104d861265c565b3480156107b257600080fd5b506104d8612696565b3480156107c757600080fd5b506104446126cc565b3480156107dc57600080fd5b5061045b6127dd565b3480156107f157600080fd5b506104d860015481565b34801561080757600080fd5b5061045b6128ca565b34801561081c57600080fd5b506104d86129ba565b34801561083157600080fd5b506104d86706f05b59d3b2000081565b34801561084d57600080fd5b506103f26129e9565b34801561086257600080fd5b5061086b612a66565b6040516104069190615a83565b34801561088457600080fd5b5061045b612a72565b34801561089957600080fd5b506103f2612b5d565b3480156108ae57600080fd5b5061045b6108bd3660046159d1565b612d9e565b3480156108ce57600080fd5b5061045b612e92565b3480156108e357600080fd5b5061045b612f7a565b3480156108f857600080fd5b5061045b610907366004615a2b565b61306e565b34801561091857600080fd5b506104d86109273660046159d1565b603d6020526000908152604090205481565b34801561094557600080fd5b506104d861315e565b34801561095a57600080fd5b5060045461045b9060ff1681565b34801561097457600080fd5b5061045b6109833660046159d1565b6131ce565b34801561099457600080fd5b506104d861330f565b3480156109a957600080fd5b506103f27f000000000000000000000000000000000000000000000000000000000000000081565b61044461332e565b3480156109e557600080fd5b506104d8613420565b3480156109fa57600080fd5b506104d8613447565b348015610a0f57600080fd5b5061045b613491565b348015610a2457600080fd5b5061045b613582565b348015610a3957600080fd5b506103f2610a483660046159d1565b603a602052600090815260409020546001600160a01b031681565b348015610a6f57600080fd5b506104d861366e565b348015610a8457600080fd5b506104d8610a93366004615a2b565b61368a565b348015610aa457600080fd5b506104d861399c565b348015610ab957600080fd5b506103f2610ac83660046159d1565b603c602052600090815260409020546001600160a01b031681565b348015610aef57600080fd5b506103f27f000000000000000000000000000000000000000000000000000000000000000081565b348015610b2357600080fd5b506104d860005481565b348015610b3957600080fd5b506104d860035481565b6000610b4d613a9e565b905090565b67537472617465677960c01b600052603c6020527f15bdd40257915f753934b43755984618aeb2ae4fff096845769c2bb729e989be546001600160a01b031690565b610b9c613a9e565b6001600160a01b03166391d1485469676f7665726e616e636560b01b336040518363ffffffff1660e01b8152600401610bd6929190615ad0565b60206040518083038186803b158015610bee57600080fd5b505afa158015610c02573d6000803e3d6000fd5b505050506040513d601f19601f82011682018060405250810190610c269190615ae7565b604051806040016040528060138152602001600080516020615ce383398151915281525090610c715760405162461bcd60e51b8152600401610c689190615b35565b60405180910390fd5b5060408051808201909152600e81526d1a5b9d985b1a5908185b5bdd5b9d60921b602082015281610cb55760405162461bcd60e51b8152600401610c689190615b35565b50600260009054906101000a90046001600160a01b03166001600160a01b031663b187bd266040518163ffffffff1660e01b815260040160206040518083038186803b158015610d0457600080fd5b505afa158015610d18573d6000803e3d6000fd5b505050506040513d601f19601f82011682018060405250810190610d3c9190615ae7565b6040518060600160405280602c8152602001615cb7602c913990610d735760405162461bcd60e51b8152600401610c689190615b35565b5060007f00000000000000000000000000000000000000000000000000000000000000006001600160a01b031663d4fac45d30610dae6129e9565b6040516001600160e01b031960e085901b1681526001600160a01b0392831660048201529116602482015260440160206040518083038186803b158015610df457600080fd5b505afa158015610e08573d6000803e3d6000fd5b505050506040513d601f19601f82011682018060405250810190610e2c9190615b68565b90508082111560405180604001604052806014815260200173696e73756666696369656e742062616c616e636560601b81525090610e7d5760405162461bcd60e51b8152600401610c689190615b35565b507f00000000000000000000000000000000000000000000000000000000000000006001600160a01b031663f3fef3a3610eb56129e9565b846040518363ffffffff1660e01b8152600401610ed3929190615b81565b602060405180830381600087803b158015610eed57600080fd5b505af1158015610f01573d6000803e3d6000fd5b505050506040513d601f19601f82011682018060405250810190610f259190615ae7565b505050565b6000610f34613a9e565b6001600160a01b03166391d1485469676f7665726e616e636560b01b336040518363ffffffff1660e01b8152600401610f6e929190615ad0565b60206040518083038186803b158015610f8657600080fd5b505afa158015610f9a573d6000803e3d6000fd5b505050506040513d601f19601f82011682018060405250810190610fbe9190615ae7565b604051806040016040528060138152602001600080516020615ce3833981519152815250906110005760405162461bcd60e51b8152600401610c689190615b35565b50610b4d6f2a30b933b2ba20b63637b1b0ba34b7b760811b613ac2565b6000611027613a9e565b6001600160a01b03166391d1485469676f7665726e616e636560b01b336040518363ffffffff1660e01b8152600401611061929190615ad0565b60206040518083038186803b15801561107957600080fd5b505afa15801561108d573d6000803e3d6000fd5b505050506040513d601f19601f820116820180604052508101906110b19190615ae7565b604051806040016040528060138152602001600080516020615ce3833981519152815250906110f35760405162461bcd60e51b8152600401610c689190615b35565b506111056110ff61399c565b83613b69565b61111f6c5374726174656769737446656560981b83613bf4565b92915050565b600061112f613a9e565b6001600160a01b03166391d1485469676f7665726e616e636560b01b336040518363ffffffff1660e01b8152600401611169929190615ad0565b60206040518083038186803b15801561118157600080fd5b505afa158015611195573d6000803e3d6000fd5b505050506040513d601f19601f820116820180604052508101906111b99190615ae7565b604051806040016040528060138152602001600080516020615ce3833981519152815250906111fb5760405162461bcd60e51b8152600401610c689190615b35565b5061120d8261120861261e565b613b69565b61111f695265736572766546656560b01b83613bf4565b600061122e613a9e565b6001600160a01b03166391d1485469676f7665726e616e636560b01b336040518363ffffffff1660e01b8152600401611268929190615ad0565b60206040518083038186803b15801561128057600080fd5b505afa158015611294573d6000803e3d6000fd5b505050506040513d601f19601f820116820180604052508101906112b89190615ae7565b604051806040016040528060138152602001600080516020615ce3833981519152815250906112fa5760405162461bcd60e51b8152600401610c689190615b35565b50610b4d613c0b565b600061130d613a9e565b6001600160a01b03166391d1485469676f7665726e616e636560b01b336040518363ffffffff1660e01b8152600401611347929190615ad0565b60206040518083038186803b15801561135f57600080fd5b505afa158015611373573d6000803e3d6000fd5b505050506040513d601f19601f820116820180604052508101906113979190615ae7565b604051806040016040528060138152602001600080516020615ce3833981519152815250906113d95760405162461bcd60e51b8152600401610c689190615b35565b5061111f681119589d131a5b5a5d60ba1b83613bf4565b6d506572666f726d616e636546656560901b600052603d6020527fbadb955f4a57baa7811abc9bcd6809eb9d3b80456cae1a7ea27f30fddfd0c0a65490565b6000611439613a9e565b6001600160a01b03166391d1485469676f7665726e616e636560b01b336040518363ffffffff1660e01b8152600401611473929190615ad0565b60206040518083038186803b15801561148b57600080fd5b505afa15801561149f573d6000803e3d6000fd5b505050506040513d601f19601f820116820180604052508101906114c39190615ae7565b604051806040016040528060138152602001600080516020615ce3833981519152815250906115055760405162461bcd60e51b8152600401610c689190615b35565b506115236f2a30b933b2ba20b63637b1b0ba34b7b760811b83613c6b565b5090919050565b60405163f3fef3a360e01b81526001600160a01b037f0000000000000000000000000000000000000000000000000000000000000000169063f3fef3a390610ed39085908590600401615b81565b6002546000906001600160a01b03163314806116215750611597613a9e565b6001600160a01b03166391d1485469676f7665726e616e636560b01b336040518363ffffffff1660e01b81526004016115d1929190615ad0565b60206040518083038186803b1580156115e957600080fd5b505afa1580156115fd573d6000803e3d6000fd5b505050506040513d601f19601f820116820180604052508101906116219190615ae7565b604051806040016040528060138152602001600080516020615ce3833981519152815250906116635760405162461bcd60e51b8152600401610c689190615b35565b50600061166e610b52565b9050600061167a613cd8565b9050838110156117f5576001600160a01b03821661169c575060009392505050565b6000826001600160a01b031663b69ef8a86040518163ffffffff1660e01b815260040160206040518083038186803b1580156116d757600080fd5b505afa1580156116eb573d6000803e3d6000fd5b505050506040513d601f19601f8201168201806040525081019061170f9190615b68565b9050600061171d8387615bb0565b9050818111156117335750600095945050505050565b60006117506117406125dd565b61174a8486615bb0565b90613d5b565b9050600061175e8285615bb0565b604051632e1a7d4d60e01b8152600481018290529091506001600160a01b03871690632e1a7d4d90602401602060405180830381600087803b1580156117a357600080fd5b505af11580156117b7573d6000803e3d6000fd5b505050506040513d601f19601f820116820180604052508101906117db9190615ae7565b506117e860005482613d7a565b600055506118b392505050565b60006001600160a01b0383161561187a57826001600160a01b031663b69ef8a86040518163ffffffff1660e01b815260040160206040518083038186803b15801561183f57600080fd5b505afa158015611853573d6000803e3d6000fd5b505050506040513d601f19601f820116820180604052508101906118779190615b68565b90505b60015460009061188a8385615bc7565b6118949190615bc7565b905060006118a28783615bb0565b90506118ae8184613d9e565b505050505b6002546118c9906001600160a01b031685613fb5565b5060019392505050565b6000806118e764109bdd5b9960da1b613fd2565b90506118f1613ff6565b919050565b6000611900613a9e565b6001600160a01b03166391d1485469676f7665726e616e636560b01b336040518363ffffffff1660e01b815260040161193a929190615ad0565b60206040518083038186803b15801561195257600080fd5b505afa158015611966573d6000803e3d6000fd5b505050506040513d601f19601f8201168201806040525081019061198a9190615ae7565b604051806040016040528060138152602001600080516020615ce3833981519152815250906119cc5760405162461bcd60e51b8152600401610c689190615b35565b50816001600160a01b03166119df610b52565b6001600160a01b031614156119f657506000919050565b611a0b67537472617465677960c01b836140b5565b50600192915050565b60405163095ea7b360e01b81526001600160a01b0383169063095ea7b390611a62907f0000000000000000000000000000000000000000000000000000000000000000908590600401615b81565b602060405180830381600087803b158015611a7c57600080fd5b505af1158015611a90573d6000803e3d6000fd5b505050506040513d601f19601f82011682018060405250810190611ab49190615ae7565b506040516311f9fbc960e21b81526001600160a01b037f000000000000000000000000000000000000000000000000000000000000000016906347e7ef2490610ed39085908590600401615b81565b6000611b0d613a9e565b6001600160a01b03166391d1485469676f7665726e616e636560b01b336040518363ffffffff1660e01b8152600401611b47929190615ad0565b60206040518083038186803b158015611b5f57600080fd5b505afa158015611b73573d6000803e3d6000fd5b505050506040513d601f19601f82011682018060405250810190611b979190615ae7565b604051806040016040528060138152602001600080516020615ce383398151915281525090611bd95760405162461bcd60e51b8152600401610c689190615b35565b5060408051808201909152600e81526d1a5b9d985b1a5908185b5bdd5b9d60921b60208201526706f05b59d3b20000831115611c285760405162461bcd60e51b8152600401610c689190615b35565b5061111f64109bdd5b9960da1b83613bf4565b6002546000906001600160a01b0316331480611ce55750611c5a613a9e565b6001600160a01b03166391d148546a6d61696e74656e616e636560a81b336040518363ffffffff1660e01b8152600401611c95929190615ad0565b60206040518083038186803b158015611cad57600080fd5b505afa158015611cc1573d6000803e3d6000fd5b505050506040513d601f19601f82011682018060405250810190611ce59190615ae7565b604051806040016040528060138152602001600080516020615ce383398151915281525090611d275760405162461bcd60e51b8152600401610c689190615b35565b50610b4d614135565b6000611d3a613a9e565b6001600160a01b03166391d1485469676f7665726e616e636560b01b336040518363ffffffff1660e01b8152600401611d74929190615ad0565b60206040518083038186803b158015611d8c57600080fd5b505afa158015611da0573d6000803e3d6000fd5b505050506040513d601f19601f82011682018060405250810190611dc49190615ae7565b604051806040016040528060138152602001600080516020615ce383398151915281525090611e065760405162461bcd60e51b8152600401610c689190615b35565b506000611e11610b52565b90506001600160a01b038116611e2a5750600092915050565b82816001600160a01b031663b69ef8a86040518163ffffffff1660e01b815260040160206040518083038186803b158015611e6457600080fd5b505afa158015611e78573d6000803e3d6000fd5b505050506040513d601f19601f82011682018060405250810190611e9c9190615b68565b1015611eab5750600092915050565b6000611eb5613cd8565b604051632e1a7d4d60e01b8152600481018690529091506001600160a01b03831690632e1a7d4d90602401602060405180830381600087803b158015611efa57600080fd5b505af1158015611f0e573d6000803e3d6000fd5b505050506040513d601f19601f82011682018060405250810190611f329190615ae7565b506000611f3d613cd8565b9050611f498282615bb0565b600080828254611f599190615bb0565b9091555060019695505050505050565b6000611f73613a9e565b6001600160a01b03166391d1485469676f7665726e616e636560b01b336040518363ffffffff1660e01b8152600401611fad929190615ad0565b60206040518083038186803b158015611fc557600080fd5b505afa158015611fd9573d6000803e3d6000fd5b505050506040513d601f19601f82011682018060405250810190611ffd9190615ae7565b604051806040016040528060138152602001600080516020615ce38339815191528152509061203f5760405162461bcd60e51b8152600401610c689190615b35565b5061152364109bdd5b9960da1b83613c6b565b603f54610100900460ff1661206d57603f5460ff1615612071565b303b155b6120d45760405162461bcd60e51b815260206004820152602e60248201527f496e697469616c697a61626c653a20636f6e747261637420697320616c72656160448201526d191e481a5b9a5d1a585b1a5e995960921b6064820152608401610c68565b603f54610100900460ff161580156120f657603f805461ffff19166101011790555b612102858585856143ec565b60025460408051639816f47360e01b815290516000926001600160a01b031691639816f473916004808301926020929190829003018186803b15801561214757600080fd5b505afa15801561215b573d6000803e3d6000fd5b505050506040513d601f19601f8201168201806040525081019061217f9190615bdf565b6040805180820190915260188152771e995c9bc81859191c995cdcc81b9bdd08185b1b1bddd95960421b60208201529091506001600160a01b0382166121d85760405162461bcd60e51b8152600401610c689190615b35565b5061220f6001600160a01b0382167f000000000000000000000000000000000000000000000000000000000000000060001961459a565b6122256001600160a01b0382168760001961459a565b50801561223857603f805461ff00191690555b5050505050565b6000612249613a9e565b6001600160a01b03166391d1485469676f7665726e616e636560b01b336040518363ffffffff1660e01b8152600401612283929190615ad0565b60206040518083038186803b15801561229b57600080fd5b505afa1580156122af573d6000803e3d6000fd5b505050506040513d601f19601f820116820180604052508101906122d39190615ae7565b604051806040016040528060138152602001600080516020615ce3833981519152815250906123155760405162461bcd60e51b8152600401610c689190615b35565b50610b4d6146e4565b6000612328613a9e565b6001600160a01b03166391d1485469676f7665726e616e636560b01b336040518363ffffffff1660e01b8152600401612362929190615ad0565b60206040518083038186803b15801561237a57600080fd5b505afa15801561238e573d6000803e3d6000fd5b505050506040513d601f19601f820116820180604052508101906123b29190615ae7565b604051806040016040528060138152602001600080516020615ce3833981519152815250906123f45760405162461bcd60e51b8152600401610c689190615b35565b5067537472617465677960c01b600052603c60209081527f15bdd40257915f753934b43755984618aeb2ae4fff096845769c2bb729e989be546040805180820190915260168152751059191c995cdcc81a5cc8185b1c9958591e481cd95d60521b928101929092526001600160a01b0316156124835760405162461bcd60e51b8152600401610c689190615b35565b506040805180820190915260188152771e995c9bc81859191c995cdcc81b9bdd08185b1b1bddd95960421b60208201526001600160a01b0383166124da5760405162461bcd60e51b8152600401610c689190615b35565b506124f067537472617465677960c01b836140b5565b506124f96146e4565b5060006001600160a01b0316826001600160a01b0316631fe4a6866040518163ffffffff1660e01b815260040160206040518083038186803b15801561253e57600080fd5b505afa158015612552573d6000803e3d6000fd5b505050506040513d601f19601f820116820180604052508101906125769190615bdf565b6001600160a01b03161415604051806040016040528060188152602001771e995c9bc81859191c995cdcc81b9bdd08185b1b1bddd95960421b81525090611a0b5760405162461bcd60e51b8152600401610c689190615b35565b600061111f600583614758565b6f2a30b933b2ba20b63637b1b0ba34b7b760811b600052603d6020527f0a3006de449e2f6da78c92d58370b3dd2ef3b1e1963fc373ed67d46ced02eb8f5490565b6c5374726174656769737446656560981b600052603d6020527f9991a201724620367b875943d3f1e2d8a65d067f05ccd6a37af85ae33cf679e95490565b681119589d131a5b5a5d60ba1b600052603d6020527fed35bbff007ae1d09677de3676c3cb1b0411569c4ab270913b3fb2a177a703195490565b64109bdd5b9960da1b600052603d6020527fcba6df5081839cab6ded1888d57f2772386c9d156438bb2faa7b07ec10c244705490565b6002546001600160a01b031633148061277257506126e8613a9e565b6001600160a01b03166391d1485469676f7665726e616e636560b01b336040518363ffffffff1660e01b8152600401612722929190615ad0565b60206040518083038186803b15801561273a57600080fd5b505afa15801561274e573d6000803e3d6000fd5b505050506040513d601f19601f820116820180604052508101906127729190615ae7565b604051806040016040528060138152602001600080516020615ce3833981519152815250906127b45760405162461bcd60e51b8152600401610c689190615b35565b506127bd61476d565b506002546127db906001600160a01b03166127d6613cd8565b613fb5565b565b60006127e7613a9e565b6001600160a01b03166391d1485469676f7665726e616e636560b01b336040518363ffffffff1660e01b8152600401612821929190615ad0565b60206040518083038186803b15801561283957600080fd5b505afa15801561284d573d6000803e3d6000fd5b505050506040513d601f19601f820116820180604052508101906128719190615ae7565b604051806040016040528060138152602001600080516020615ce3833981519152815250906128b35760405162461bcd60e51b8152600401610c689190615b35565b50610b4d695265736572766546656560b01b613ac2565b60006128d4613a9e565b6001600160a01b03166391d1485469676f7665726e616e636560b01b336040518363ffffffff1660e01b815260040161290e929190615ad0565b60206040518083038186803b15801561292657600080fd5b505afa15801561293a573d6000803e3d6000fd5b505050506040513d601f19601f8201168201806040525081019061295e9190615ae7565b604051806040016040528060138152602001600080516020615ce3833981519152815250906129a05760405162461bcd60e51b8152600401610c689190615b35565b50610b4d6c5374726174656769737446656560981b613ac2565b6000806129d66c5374726174656769737446656560981b613fd2565b90506118f16129e361399c565b82613b69565b60025460408051639816f47360e01b815290516000926001600160a01b031691639816f473916004808301926020929190829003018186803b158015612a2e57600080fd5b505afa158015612a42573d6000803e3d6000fd5b505050506040513d601f19601f82011682018060405250810190610b4d9190615bdf565b6060610b4d6005614856565b6000612a7c613a9e565b6001600160a01b03166391d1485469676f7665726e616e636560b01b336040518363ffffffff1660e01b8152600401612ab6929190615ad0565b60206040518083038186803b158015612ace57600080fd5b505afa158015612ae2573d6000803e3d6000fd5b505050506040513d601f19601f82011682018060405250810190612b069190615ae7565b604051806040016040528060138152602001600080516020615ce383398151915281525090612b485760405162461bcd60e51b8152600401610c689190615b35565b50610b4d67537472617465677960c01b614905565b6000612b7367537472617465677960c01b6149b7565b6000612b7d610b52565b90506001600160a01b03811615612d2157612b96614135565b50806001600160a01b031663fc0e74d16040518163ffffffff1660e01b8152600401602060405180830381600087803b158015612bd257600080fd5b505af1158015612be6573d6000803e3d6000fd5b505050506040513d601f19601f82011682018060405250810190612c0a9190615ae7565b50806001600160a01b031663853828b66040518163ffffffff1660e01b8152600401602060405180830381600087803b158015612c4657600080fd5b505af1158015612c5a573d6000803e3d6000fd5b505050506040513d601f19601f82011682018060405250810190612c7e9190615b68565b506000816001600160a01b031663b69ef8a86040518163ffffffff1660e01b815260040160206040518083038186803b158015612cba57600080fd5b505afa158015612cce573d6000803e3d6000fd5b505050506040513d601f19601f82011682018060405250810190612cf29190615b68565b90508015612d1f57612d0660058383614a60565b508060016000828254612d199190615bc7565b90915550505b505b612d29613c0b565b506000808055600381905567537472617465677960c01b90819052603a6020527fa4caf68bc3013a9a5274c5d8968485ae05b8c28e9f50493f41acc96b22818c23546001600160a01b031690612d7f90826140b5565b506001600160a01b0381161561111f57612d976146e4565b5092915050565b6000612da8613a9e565b6001600160a01b03166391d1485469676f7665726e616e636560b01b336040518363ffffffff1660e01b8152600401612de2929190615ad0565b60206040518083038186803b158015612dfa57600080fd5b505afa158015612e0e573d6000803e3d6000fd5b505050506040513d601f19601f82011682018060405250810190612e329190615ae7565b604051806040016040528060138152602001600080516020615ce383398151915281525090612e745760405162461bcd60e51b8152600401610c689190615b35565b5061111f6f2a30b933b2ba20b63637b1b0ba34b7b760811b83613bf4565b6000612e9c613a9e565b6001600160a01b03166391d1485469676f7665726e616e636560b01b336040518363ffffffff1660e01b8152600401612ed6929190615ad0565b60206040518083038186803b158015612eee57600080fd5b505afa158015612f02573d6000803e3d6000fd5b505050506040513d601f19601f82011682018060405250810190612f269190615ae7565b604051806040016040528060138152602001600080516020615ce383398151915281525090612f685760405162461bcd60e51b8152600401610c689190615b35565b50610b4d64109bdd5b9960da1b613ac2565b6002546000906001600160a01b03163314806130235750612f99613a9e565b6001600160a01b03166391d1485469676f7665726e616e636560b01b336040518363ffffffff1660e01b8152600401612fd3929190615ad0565b60206040518083038186803b158015612feb57600080fd5b505afa158015612fff573d6000803e3d6000fd5b505050506040513d601f19601f820116820180604052508101906130239190615ae7565b604051806040016040528060138152602001600080516020615ce3833981519152815250906130655760405162461bcd60e51b8152600401610c689190615b35565b50610b4d61476d565b6000613078613a9e565b6001600160a01b03166391d1485469676f7665726e616e636560b01b336040518363ffffffff1660e01b81526004016130b2929190615ad0565b60206040518083038186803b1580156130ca57600080fd5b505afa1580156130de573d6000803e3d6000fd5b505050506040513d601f19601f820116820180604052508101906131029190615ae7565b604051806040016040528060138152602001600080516020615ce3833981519152815250906131445760405162461bcd60e51b8152600401610c689190615b35565b5061111f67537472617465677960c01b8362069780614a7e565b600080613169613cd8565b90506000613175610b52565b6001600160a01b0316141561318957919050565b60006001546000548361319c9190615bc7565b6131a69190615bc7565b905080600354116131c5576003546131be9082615bb0565b9250505090565b60009250505090565b60006131d8613a9e565b6001600160a01b03166391d1485469676f7665726e616e636560b01b336040518363ffffffff1660e01b8152600401613212929190615ad0565b60206040518083038186803b15801561322a57600080fd5b505afa15801561323e573d6000803e3d6000fd5b505050506040513d601f19601f820116820180604052508101906132629190615ae7565b604051806040016040528060138152602001600080516020615ce3833981519152815250906132a45760405162461bcd60e51b8152600401610c689190615b35565b5060408051808201909152600e81526d1a5b9d985b1a5908185b5bdd5b9d60921b60208201526706f05b59d3b200008311156132f35760405162461bcd60e51b8152600401610c689190615b35565b5061111f6d506572666f726d616e636546656560901b83613bf4565b6000806118e76f2a30b933b2ba20b63637b1b0ba34b7b760811b613fd2565b6002546001600160a01b03163314806133d5575061334a613a9e565b6001600160a01b03166391d148546a6d61696e74656e616e636560a81b336040518363ffffffff1660e01b8152600401613385929190615ad0565b60206040518083038186803b15801561339d57600080fd5b505afa1580156133b1573d6000803e3d6000fd5b505050506040513d601f19601f820116820180604052508101906133d59190615ae7565b604051806040016040528060138152602001600080516020615ce3833981519152815250906134175760405162461bcd60e51b8152600401610c689190615b35565b506127db613ff6565b600080613439695265736572766546656560b01b613fd2565b90506118f18161120861261e565b60008061345f681119589d131a5b5a5d60ba1b613fd2565b9050600061347882600054613d5b90919063ffffffff16565b9050806003541061348b5761348b614af7565b50919050565b600061349b613a9e565b6001600160a01b03166391d1485469676f7665726e616e636560b01b336040518363ffffffff1660e01b81526004016134d5929190615ad0565b60206040518083038186803b1580156134ed57600080fd5b505afa158015613501573d6000803e3d6000fd5b505050506040513d601f19601f820116820180604052508101906135259190615ae7565b604051806040016040528060138152602001600080516020615ce3833981519152815250906135675760405162461bcd60e51b8152600401610c689190615b35565b50610b4d6d506572666f726d616e636546656560901b613ac2565b600061358c613a9e565b6001600160a01b03166391d1485469676f7665726e616e636560b01b336040518363ffffffff1660e01b81526004016135c6929190615ad0565b60206040518083038186803b1580156135de57600080fd5b505afa1580156135f2573d6000803e3d6000fd5b505050506040513d601f19601f820116820180604052508101906136169190615ae7565b604051806040016040528060138152602001600080516020615ce3833981519152815250906136585760405162461bcd60e51b8152600401610c689190615b35565b50610b4d681119589d131a5b5a5d60ba1b613ac2565b6000610b4d6d506572666f726d616e636546656560901b613fd2565b60008080613699600585614b14565b91509150816040518060400160405280601781526020017f537472617465677920646f6573206e6f74206578697374000000000000000000815250906136f25760405162461bcd60e51b8152600401610c689190615b35565b506000849050806001600160a01b0316634641257d6040518163ffffffff1660e01b8152600401602060405180830381600087803b15801561373357600080fd5b505af1158015613747573d6000803e3d6000fd5b505050506040513d601f19601f8201168201806040525081019061376b9190615b68565b506000816001600160a01b031663853828b66040518163ffffffff1660e01b8152600401602060405180830381600087803b1580156137a957600080fd5b505af11580156137bd573d6000803e3d6000fd5b505050506040513d601f19601f820116820180604052508101906137e19190615b68565b6001549091508082106137f8576000600155613806565b6138028282615bb0565b6001555b838211156138f157600061381a8584615bb0565b9050600061383861383361382c6113f0565b8490613d5b565b614b3b565b905080156138ba576138ba81866001600160a01b0316631fe4a6866040518163ffffffff1660e01b815260040160206040518083038186803b15801561387d57600080fd5b505afa158015613891573d6000803e3d6000fd5b505050506040513d601f19601f820116820180604052508101906138b59190615bdf565b614b9b565b60405160009650869083907f6c8433a8e155f0af04dba058d4e4695f7da554578963d876bdf4a6d8d6399d9c908390a350506138fe565b6138fb8285615bb0565b93505b826001600160a01b031663b69ef8a86040518163ffffffff1660e01b815260040160206040518083038186803b15801561393757600080fd5b505afa15801561394b573d6000803e3d6000fd5b505050506040513d601f19601f8201168201806040525081019061396f9190615b68565b6139845761397e600584614c31565b50613992565b61399060058486614a60565b505b5095945050505050565b695265736572766546656560b01b600052603d6020527fa61f8e25cb35ba15fc70bbd3ba789d53bf34a4deddb38a43a213af3182d35aae5490565b6040516321f8a72160e01b81526a3937b632a6b0b730b3b2b960a91b60048201526000906001600160a01b038316906321f8a721906024015b60206040518083038186803b158015613a2857600080fd5b505afa158015613a3c573d6000803e3d6000fd5b505050506040513d601f19601f8201168201806040525081019061111f9190615bdf565b6040516321f8a72160e01b81526b7661756c745265736572766560a01b60048201526000906001600160a01b038316906321f8a72190602401613a10565b7f000000000000000000000000000000000000000000000000000000000000000090565b6000818152603e6020908152604080832054815180830190925260128252710646561646c696e65206d75737420626520360741b9282019290925290613b1b5760405162461bcd60e51b8152600401610c689190615b35565b506000828152603e60209081526040808320839055603b9091528082208290555183917f90fb84ad67dd037c388289337bb80b61b8605d38ba9a875dc38b5600909d172f91a2506001919050565b670de0b6b3a7640000613b7c8284615bc7565b1115613bf05760405162461bcd60e51b815260206004820152603760248201527f73756d206f6620737472617465676973742066656520616e642072657365727660448201527f65206665652073686f756c642062652062656c6f7720310000000000000000006064820152608401610c68565b5050565b6000613c0483836203f480614c46565b9392505050565b60045460009060ff16613c1e5750600090565b6004805460ff19169055613c30610b52565b6001600160a01b03167f274ec28d31430170ad5dd350f8e7505ffab078c309300878c710383ae4cbed4960405160405180910390a250600190565b6000828152603d60209081526040808320805490859055603b8352818420849055603e835281842084905581518181529283018590529185917fcc0bafe2accb565ea70674bf4b2555e49a47d410fb9932dfab3e5f41855d0a2f91015b60405180910390a2509092915050565b6000613ce26129e9565b6040516370a0823160e01b81523060048201526001600160a01b0391909116906370a082319060240160206040518083038186803b158015613d2357600080fd5b505afa158015613d37573d6000803e3d6000fd5b505050506040513d601f19601f82011682018060405250810190610b4d9190615b68565b6000670de0b6b3a7640000613d708385615bfc565b613c049190615c1b565b600081831115613d9557613d8e8284615bb0565b905061111f565b50600092915050565b60045460009060ff16613db35750600061111f565b6000613dbd6125dd565b90506000613dc9610b52565b90506000613dd5612696565b90506000613de38785613d5b565b905060008415613dfc57613df78386615bc7565b613dff565b60005b9050670de0b6b3a76400008111613e165780613e20565b670de0b6b3a76400005b90506000858411613e3a57613e358487615bb0565b613e3d565b60005b9050613e498983613d5b565b881115613eef576000613e5c848a615bb0565b604051632e1a7d4d60e01b8152600481018290529091506001600160a01b03871690632e1a7d4d90602401602060405180830381600087803b158015613ea157600080fd5b505af1158015613eb5573d6000803e3d6000fd5b505050506040513d601f19601f82011682018060405250810190613ed99190615ae7565b50613ee660005482613d7a565b60005550613fa6565b613ef98982613d5b565b881015613fa6576000613f0c8985615bb0565b9050613f188682613fb5565b80600080828254613f299190615bc7565b92505081905550856001600160a01b031663d0e30db06040518163ffffffff1660e01b8152600401602060405180830381600087803b158015613f6b57600080fd5b505af1158015613f7f573d6000803e3d6000fd5b505050506040513d601f19601f82011682018060405250810190613fa39190615ae7565b50505b50600198975050505050505050565b613bf08282613fc26129e9565b6001600160a01b03169190614c9c565b6000613fdd826149b7565b6000828152603b6020526040902054612d978382613c6b565b60045460ff1661400257565b600061400c610b52565b6001600160a01b031663b69ef8a86040518163ffffffff1660e01b815260040160206040518083038186803b15801561404457600080fd5b505afa158015614058573d6000803e3d6000fd5b505050506040513d601f19601f8201168201806040525081019061407c9190615b68565b905060006001548261408c613cd8565b6140969190615bc7565b6140a09190615bc7565b9050806140ab575050565b610f258183613d9e565b6000828152603c6020908152604080832080546001600160a01b03198082166001600160a01b03888116918217909455603a86528487208054909216909155603e85528386208690558351929091168083529382015285917fc4a957706c639829ad54381b04930c464db6c7ffdc09d2b4b1acc9ee34fb92619101613cc8565b600080614140610b52565b90506001600160a01b03811661415857600091505090565b806001600160a01b0316634641257d6040518163ffffffff1660e01b8152600401602060405180830381600087803b15801561419357600080fd5b505af11580156141a7573d6000803e3d6000fd5b505050506040513d601f19601f820116820180604052508101906141cb9190615b68565b50600080826001600160a01b031663b69ef8a86040518163ffffffff1660e01b815260040160206040518083038186803b15801561420857600080fd5b505afa15801561421c573d6000803e3d6000fd5b505050506040513d601f19601f820116820180604052508101906142409190615b68565b60005460035491925090818311156142d157600061425e8385615bb0565b90508181111561429157811561427f576142788282615bb0565b9050600091505b61428881614cbb565b9550905061429e565b61429b8183615bb0565b91505b60405160009082907f6c8433a8e155f0af04dba058d4e4695f7da554578963d876bdf4a6d8d6399d9c908390a350614362565b818310156143565760006142e58484615bb0565b90506142f18183615bc7565b915060006142fd61265c565b9050600061430b8583613d5b565b9050808411156143215761431e84614d86565b93505b60405183906000907f6c8433a8e155f0af04dba058d4e4695f7da554578963d876bdf4a6d8d6399d9c908290a3505050614362565b60019550505050505090565b80600381905550846001600160a01b031663b69ef8a86040518163ffffffff1660e01b815260040160206040518083038186803b1580156143a257600080fd5b505afa1580156143b6573d6000803e3d6000fd5b505050506040513d601f19601f820116820180604052508101906143da9190615b68565b60005583156143565761435684614fa7565b60408051808201909152600e81526d1a5b9d985b1a5908185b5bdd5b9d60921b6020820152670de0b6b3a764000084111561443a5760405162461bcd60e51b8152600401610c689190615b35565b5060408051808201909152600e81526d1a5b9d985b1a5908185b5bdd5b9d60921b6020820152670de0b6b3a76400008311156144895760405162461bcd60e51b8152600401610c689190615b35565b5060408051808201909152600e81526d1a5b9d985b1a5908185b5bdd5b9d60921b60208201526706f05b59d3b200008211156144d85760405162461bcd60e51b8152600401610c689190615b35565b50600280546001600160a01b0319166001600160a01b03861617905561450a681119589d131a5b5a5d60ba1b84613c6b565b506145286f2a30b933b2ba20b63637b1b0ba34b7b760811b83613c6b565b5061453b64109bdd5b9960da1b82613c6b565b5061455a695265736572766546656560b01b662386f26fc10000613c6b565b5061457d6c5374726174656769737446656560981b67016345785d8a0000613c6b565b506122386d506572666f726d616e636546656560901b6000613c6b565b8015806146235750604051636eb1769f60e11b81523060048201526001600160a01b03838116602483015284169063dd62ed3e9060440160206040518083038186803b1580156145e957600080fd5b505afa1580156145fd573d6000803e3d6000fd5b505050506040513d601f19601f820116820180604052508101906146219190615b68565b155b61468e5760405162461bcd60e51b815260206004820152603660248201527f5361666545524332303a20617070726f76652066726f6d206e6f6e2d7a65726f60448201527520746f206e6f6e2d7a65726f20616c6c6f77616e636560501b6064820152608401610c68565b610f258363095ea7b360e01b84846040516024016146ad929190615b81565b60408051601f198184030181529190526020810180516001600160e01b03166001600160e01b031990931692909217909152614fee565b6000806146ef610b52565b90506001600160a01b03811661470757600091505090565b6004805460ff191660011790556040516001600160a01b038216907f652f053fc39779b70b29678135ade972fcb79966fc68fcb77c996b1aa4fd9afb90600090a2614750613ff6565b600191505090565b6000613c04836001600160a01b0384166150c0565b600080614778610b52565b90506001600160a01b03811661479057600091505090565b614798614135565b5060006147a3613cd8565b9050816001600160a01b031663853828b66040518163ffffffff1660e01b8152600401602060405180830381600087803b1580156147e057600080fd5b505af11580156147f4573d6000803e3d6000fd5b505050506040513d601f19601f820116820180604052508101906148189190615b68565b506000614823613cd8565b905060006148318383615bb0565b905061483f60005482613d7a565b60005561484a613c0b565b50600194505050505090565b6060600061486383615130565b905060008167ffffffffffffffff81111561488057614880615c3d565b6040519080825280602002602001820160405280156148a9578160200160208202803683370190505b50905060005b828110156148fd576148c1858261513b565b8282815181106148d3576148d3615c53565b6001600160a01b0390921660209283029190910190910152806148f581615c69565b9150506148af565b509392505050565b6000818152603e6020908152604080832054815180830190925260128252710646561646c696e65206d75737420626520360741b928201929092529061495e5760405162461bcd60e51b8152600401610c689190615b35565b506000828152603e60209081526040808320839055603a90915280822080546001600160a01b03191690555183917f90fb84ad67dd037c388289337bb80b61b8605d38ba9a875dc38b5600909d172f91a2506001919050565b6000603e600083815260200190815260200160002054905080421015604051806060016040528060218152602001615d036021913990614a0a5760405162461bcd60e51b8152600401610c689190615b35565b5060408051808201909152600d81526c0646561646c696e65206973203609c1b602082015281614a4d5760405162461bcd60e51b8152600401610c689190615b35565b50506000908152603e6020526040812055565b6000614a76846001600160a01b03851684615151565b949350505050565b6000614a8a848361516e565b6000848152603a60205260409081902080546001600160a01b0319166001600160a01b0386161790555184907fd46e58ee9dc1ae703349f8c09c19f23213a531b4d57f00cfd4a5a6cb6519668d90614ae59086908690615b81565b60405180910390a25060019392505050565b6003546000614b0582614d86565b9050808214613bf05760035550565b6000808080614b2c866001600160a01b038716615248565b909450925050505b9250929050565b600080614b4961382c61261e565b90506000614b5f614b5861399c565b8590613d5b565b9050600081614b6e8487615bb0565b614b789190615bb0565b9050614b8382615282565b8015614b9257614b9281615329565b50909392505050565b6001600160a01b038116614bad575050565b6002546040516317a790f160e11b81526001600160a01b0390911690632f4f21e290614bdf9084908690600401615b81565b602060405180830381600087803b158015614bf957600080fd5b505af1158015614c0d573d6000803e3d6000fd5b505050506040513d601f19601f82011682018060405250810190610f259190615b68565b6000613c04836001600160a01b038416615367565b6000614c52848361516e565b6000848152603b6020908152604091829020859055815185815290810184905285917f0e6790002e78fb96ff1fdfe3a3bb2a86489d3f3923372c1fe5b6b1fed071eed49101614ae5565b610f258363a9059cbb60e01b84846040516024016146ad929190615b81565b6000806000614ccb614b586113f0565b905080614cd6613cd8565b1015614d6557614ce4610b52565b6001600160a01b0316632e1a7d4d826040518263ffffffff1660e01b8152600401614d1191815260200190565b602060405180830381600087803b158015614d2b57600080fd5b505af1158015614d3f573d6000803e3d6000fd5b505050506040513d601f19601f82011682018060405250810190614d639190615ae7565b505b6000614d7082614b3b565b9050614d7c8286615bb0565b9590945092505050565b6000807f00000000000000000000000000000000000000000000000000000000000000006001600160a01b031663d4fac45d30614dc16129e9565b6040516001600160e01b031960e085901b1681526001600160a01b0392831660048201529116602482015260440160206040518083038186803b158015614e0757600080fd5b505afa158015614e1b573d6000803e3d6000fd5b505050506040513d601f19601f82011682018060405250810190614e3f9190615b68565b905080831115614e5757614e5281615384565b611523565b60405163019262d360e41b81523060048201527f00000000000000000000000000000000000000000000000000000000000000006001600160a01b0316906319262d309060240160206040518083038186803b158015614eb657600080fd5b505afa158015614eca573d6000803e3d6000fd5b505050506040513d601f19601f82011682018060405250810190614eee9190615ae7565b15611523577f00000000000000000000000000000000000000000000000000000000000000006001600160a01b031663f3fef3a3614f2a6129e9565b856040518363ffffffff1660e01b8152600401614f48929190615b81565b602060405180830381600087803b158015614f6257600080fd5b505af1158015614f76573d6000803e3d6000fd5b505050506040513d601f19601f82011682018060405250810190614f9a9190615ae7565b5060009250611523613ff6565b614feb81614fb3610b52565b6001600160a01b0316631fe4a6866040518163ffffffff1660e01b815260040160206040518083038186803b15801561387d57600080fd5b50565b6000615043826040518060400160405280602081526020017f5361666545524332303a206c6f772d6c6576656c2063616c6c206661696c6564815250856001600160a01b03166156209092919063ffffffff16565b805190915015610f2557808060200190518101906150619190615ae7565b610f255760405162461bcd60e51b815260206004820152602a60248201527f5361666545524332303a204552433230206f7065726174696f6e20646964206e6044820152691bdd081cdd58d8d9595960b21b6064820152608401610c68565b6000818152600283016020526040812054801515806150e457506150e4848461562f565b613c045760405162461bcd60e51b815260206004820152601e60248201527f456e756d657261626c654d61703a206e6f6e6578697374656e74206b657900006044820152606401610c68565b600061111f8261563b565b6000806151488484615646565b50949350505050565b60008281526002840160205260408120829055614a768484615655565b603e600083815260200190815260200160002054600014604051806040016040528060128152602001710646561646c696e65206d75737420626520360741b815250906151ce5760405162461bcd60e51b8152600401610c689190615b35565b5060408051808201909152601881527f64656c6179206265206174206c6561737420332064617973000000000000000060208201526203f4808210156152275760405162461bcd60e51b8152600401610c689190615b35565b506152328142615bc7565b6000928352603e60205260409092209190915550565b60008181526002830160205260408120548190806152775761526a858561562f565b925060009150614b349050565b600192509050614b34565b7f00000000000000000000000000000000000000000000000000000000000000006001600160a01b03166347e7ef246152b96129e9565b836040518363ffffffff1660e01b81526004016152d7929190615b81565b602060405180830381600087803b1580156152f157600080fd5b505af1158015615305573d6000803e3d6000fd5b505050506040513d601f19601f82011682018060405250810190613bf09190615ae7565b614feb61535e7f00000000000000000000000000000000000000000000000000000000000000006001600160a01b0316615661565b82613fc26129e9565b60008181526002830160205260408120819055613c04838361569b565b600061538e610b52565b6001600160a01b031663853828b66040518163ffffffff1660e01b8152600401602060405180830381600087803b1580156153c857600080fd5b505af11580156153dc573d6000803e3d6000fd5b505050506040513d601f19601f820116820180604052508101906154009190615b68565b9050600061541060005483613d7a565b60405163019262d360e41b81523060048201529091507f00000000000000000000000000000000000000000000000000000000000000006001600160a01b0316906319262d309060240160206040518083038186803b15801561547257600080fd5b505afa158015615486573d6000803e3d6000fd5b505050506040513d601f19601f820116820180604052508101906154aa9190615ae7565b1561561257808310615563577f00000000000000000000000000000000000000000000000000000000000000006001600160a01b031663f3fef3a36154ed6129e9565b836040518363ffffffff1660e01b815260040161550b929190615b81565b602060405180830381600087803b15801561552557600080fd5b505af1158015615539573d6000803e3d6000fd5b505050506040513d601f19601f8201168201806040525081019061555d9190615ae7565b50615612565b8215615612577f00000000000000000000000000000000000000000000000000000000000000006001600160a01b031663f3fef3a36155a06129e9565b856040518363ffffffff1660e01b81526004016155be929190615b81565b602060405180830381600087803b1580156155d857600080fd5b505af11580156155ec573d6000803e3d6000fd5b505050506040513d601f19601f820116820180604052508101906156109190615ae7565b505b61561a613c0b565b50505050565b6060614a7684846000856156a7565b6000613c0483836157d8565b600061111f826157f0565b6000808080614b2c86866157fa565b6000613c048383615825565b6040516321f8a72160e01b815267747265617375727960c01b60048201526000906001600160a01b038316906321f8a72190602401613a10565b6000613c048383615874565b6060824710156157085760405162461bcd60e51b815260206004820152602660248201527f416464726573733a20696e73756666696369656e742062616c616e636520666f6044820152651c8818d85b1b60d21b6064820152608401610c68565b6001600160a01b0385163b61575f5760405162461bcd60e51b815260206004820152601d60248201527f416464726573733a2063616c6c20746f206e6f6e2d636f6e74726163740000006044820152606401610c68565b600080866001600160a01b0316858760405161577b9190615c84565b60006040518083038185875af1925050503d80600081146157b8576040519150601f19603f3d011682016040523d82523d6000602084013e6157bd565b606091505b50915091506157cd828286615967565b979650505050505050565b60008181526001830160205260408120541515613c04565b600061111f825490565b6000808061580885856159a0565b600081815260029690960160205260409095205494959350505050565b600081815260018301602052604081205461586c5750815460018181018455600084815260208082209093018490558454848252828601909352604090209190915561111f565b50600061111f565b6000818152600183016020526040812054801561595d576000615898600183615bb0565b85549091506000906158ac90600190615bb0565b90508181146159115760008660000182815481106158cc576158cc615c53565b90600052602060002001549050808760000184815481106158ef576158ef615c53565b6000918252602080832090910192909255918252600188019052604090208390555b855486908061592257615922615ca0565b60019003818190600052602060002001600090559055856001016000868152602001908152602001600020600090556001935050505061111f565b600091505061111f565b60608315615976575081613c04565b8251156159865782518084602001fd5b8160405162461bcd60e51b8152600401610c689190615b35565b6000613c04838360008260000182815481106159be576159be615c53565b9060005260206000200154905092915050565b6000602082840312156159e357600080fd5b5035919050565b6001600160a01b0381168114614feb57600080fd5b60008060408385031215615a1257600080fd5b8235615a1d816159ea565b946020939093013593505050565b600060208284031215615a3d57600080fd5b8135613c04816159ea565b60008060008060808587031215615a5e57600080fd5b8435615a69816159ea565b966020860135965060408601359560600135945092505050565b6020808252825182820181905260009190848201906040850190845b81811015615ac45783516001600160a01b031683529284019291840191600101615a9f565b50909695505050505050565b9182526001600160a01b0316602082015260400190565b600060208284031215615af957600080fd5b81518015158114613c0457600080fd5b60005b83811015615b24578181015183820152602001615b0c565b8381111561561a5750506000910152565b6020815260008251806020840152615b54816040850160208701615b09565b601f01601f19169190910160400192915050565b600060208284031215615b7a57600080fd5b5051919050565b6001600160a01b03929092168252602082015260400190565b634e487b7160e01b600052601160045260246000fd5b600082821015615bc257615bc2615b9a565b500390565b60008219821115615bda57615bda615b9a565b500190565b600060208284031215615bf157600080fd5b8151613c04816159ea565b6000816000190483118215151615615c1657615c16615b9a565b500290565b600082615c3857634e487b7160e01b600052601260045260246000fd5b500490565b634e487b7160e01b600052604160045260246000fd5b634e487b7160e01b600052603260045260246000fd5b6000600019821415615c7d57615c7d615b9a565b5060010190565b60008251615c96818460208701615b09565b9190910192915050565b634e487b7160e01b600052603160045260246000fdfe506f6f6c206d7573742062652070617573656420746f2077697468647261772066726f6d2072657365727665756e617574686f72697a65642061636365737300000000000000000000000000646561646c696e6520686173206e6f74206265656e207265616368656420796574a26469706673582212205e01ea55b1988f6645014d71b370a8a5aa42f8416a442e0eab524a74ce60595064736f6c63430008090033",
  "linkReferences": {},
  "deployedLinkReferences": {}
}