{
  "_format": "hh-sol-artifact-1",
  "contractName": "MockEthVault",
  "sourceName": "contracts/testing/MockVault.sol",
  "abi": [
    {
      "inputs": [
        {
          "internalType": "contract IController",
          "name": "controller",
          "type": "address"
        }
      ],
      "stateMutability": "nonpayable",
      "type": "constructor"
    },
    {
      "anonymous": false,
      "inputs": [
        {
          "indexed": true,
          "internalType": "bytes32",
          "name": "key",
          "type": "bytes32"
        },
        {
          "indexed": false,
          "internalType": "address",
          "name": "value",
          "type": "address"
        },
        {
          "indexed": false,
          "internalType": "uint256",
          "name": "delay",
          "type": "uint256"
        }
      ],
      "name": "ConfigPreparedAddress",
      "type": "event"
    },
    {
      "anonymous": false,
      "inputs": [
        {
          "indexed": true,
          "internalType": "bytes32",
          "name": "key",
          "type": "bytes32"
        },
        {
          "indexed": false,
          "internalType": "uint256",
          "name": "value",
          "type": "uint256"
        },
        {
          "indexed": false,
          "internalType": "uint256",
          "name": "delay",
          "type": "uint256"
        }
      ],
      "name": "ConfigPreparedNumber",
      "type": "event"
    },
    {
      "anonymous": false,
      "inputs": [
        {
          "indexed": true,
          "internalType": "bytes32",
          "name": "key",
          "type": "bytes32"
        }
      ],
      "name": "ConfigReset",
      "type": "event"
    },
    {
      "anonymous": false,
      "inputs": [
        {
          "indexed": true,
          "internalType": "bytes32",
          "name": "key",
          "type": "bytes32"
        },
        {
          "indexed": false,
          "internalType": "address",
          "name": "oldValue",
          "type": "address"
        },
        {
          "indexed": false,
          "internalType": "address",
          "name": "newValue",
          "type": "address"
        }
      ],
      "name": "ConfigUpdatedAddress",
      "type": "event"
    },
    {
      "anonymous": false,
      "inputs": [
        {
          "indexed": true,
          "internalType": "bytes32",
          "name": "key",
          "type": "bytes32"
        },
        {
          "indexed": false,
          "internalType": "uint256",
          "name": "oldValue",
          "type": "uint256"
        },
        {
          "indexed": false,
          "internalType": "uint256",
          "name": "newValue",
          "type": "uint256"
        }
      ],
      "name": "ConfigUpdatedNumber",
      "type": "event"
    },
    {
      "anonymous": false,
      "inputs": [
        {
          "indexed": true,
          "internalType": "uint256",
          "name": "netProfit",
          "type": "uint256"
        },
        {
          "indexed": true,
          "internalType": "uint256",
          "name": "loss",
          "type": "uint256"
        }
      ],
      "name": "Harvest",
      "type": "event"
    },
    {
      "anonymous": false,
      "inputs": [
        {
          "indexed": true,
          "internalType": "address",
          "name": "strategy",
          "type": "address"
        }
      ],
      "name": "StrategyActivated",
      "type": "event"
    },
    {
      "anonymous": false,
      "inputs": [
        {
          "indexed": true,
          "internalType": "address",
          "name": "strategy",
          "type": "address"
        }
      ],
      "name": "StrategyDeactivated",
      "type": "event"
    },
    {
      "inputs": [],
      "name": "MAX_DEVIATION_BOUND",
      "outputs": [
        {
          "internalType": "uint256",
          "name": "",
          "type": "uint256"
        }
      ],
      "stateMutability": "view",
      "type": "function"
    },
    {
      "inputs": [],
      "name": "MAX_PERFORMANCE_FEE",
      "outputs": [
        {
          "internalType": "uint256",
          "name": "",
          "type": "uint256"
        }
      ],
      "stateMutability": "view",
      "type": "function"
    },
    {
      "inputs": [],
      "name": "STRATEGY_DELAY",
      "outputs": [
        {
          "internalType": "uint256",
          "name": "",
          "type": "uint256"
        }
      ],
      "stateMutability": "view",
      "type": "function"
    },
    {
      "inputs": [],
      "name": "activateStrategy",
      "outputs": [
        {
          "internalType": "bool",
          "name": "",
          "type": "bool"
        }
      ],
      "stateMutability": "nonpayable",
      "type": "function"
    },
    {
      "inputs": [],
      "name": "addressProvider",
      "outputs": [
        {
          "internalType": "contract IAddressProvider",
          "name": "",
          "type": "address"
        }
      ],
      "stateMutability": "view",
      "type": "function"
    },
    {
      "inputs": [],
      "name": "controller",
      "outputs": [
        {
          "internalType": "contract IController",
          "name": "",
          "type": "address"
        }
      ],
      "stateMutability": "view",
      "type": "function"
    },
    {
      "inputs": [
        {
          "internalType": "bytes32",
          "name": "",
          "type": "bytes32"
        }
      ],
      "name": "currentAddresses",
      "outputs": [
        {
          "internalType": "address",
          "name": "",
          "type": "address"
        }
      ],
      "stateMutability": "view",
      "type": "function"
    },
    {
      "inputs": [],
      "name": "currentAllocated",
      "outputs": [
        {
          "internalType": "uint256",
          "name": "",
          "type": "uint256"
        }
      ],
      "stateMutability": "view",
      "type": "function"
    },
    {
      "inputs": [
        {
          "internalType": "bytes32",
          "name": "",
          "type": "bytes32"
        }
      ],
      "name": "currentUInts256",
      "outputs": [
        {
          "internalType": "uint256",
          "name": "",
          "type": "uint256"
        }
      ],
      "stateMutability": "view",
      "type": "function"
    },
    {
      "inputs": [],
      "name": "deactivateStrategy",
      "outputs": [
        {
          "internalType": "bool",
          "name": "",
          "type": "bool"
        }
      ],
      "stateMutability": "nonpayable",
      "type": "function"
    },
    {
      "inputs": [
        {
          "internalType": "bytes32",
          "name": "",
          "type": "bytes32"
        }
      ],
      "name": "deadlines",
      "outputs": [
        {
          "internalType": "uint256",
          "name": "",
          "type": "uint256"
        }
      ],
      "stateMutability": "view",
      "type": "function"
    },
    {
      "inputs": [],
      "name": "deposit",
      "outputs": [],
      "stateMutability": "payable",
      "type": "function"
    },
    {
      "inputs": [
        {
          "internalType": "address",
          "name": "coin",
          "type": "address"
        },
        {
          "internalType": "uint256",
          "name": "amount",
          "type": "uint256"
        }
      ],
      "name": "depositToReserve",
      "outputs": [],
      "stateMutability": "nonpayable",
      "type": "function"
    },
    {
      "inputs": [],
      "name": "executeBound",
      "outputs": [
        {
          "internalType": "uint256",
          "name": "",
          "type": "uint256"
        }
      ],
      "stateMutability": "nonpayable",
      "type": "function"
    },
    {
      "inputs": [],
      "name": "executeDebtLimit",
      "outputs": [
        {
          "internalType": "uint256",
          "name": "",
          "type": "uint256"
        }
      ],
      "stateMutability": "nonpayable",
      "type": "function"
    },
    {
      "inputs": [],
      "name": "executeNewStrategy",
      "outputs": [
        {
          "internalType": "address",
          "name": "",
          "type": "address"
        }
      ],
      "stateMutability": "nonpayable",
      "type": "function"
    },
    {
      "inputs": [],
      "name": "executePerformanceFee",
      "outputs": [
        {
          "internalType": "uint256",
          "name": "",
          "type": "uint256"
        }
      ],
      "stateMutability": "nonpayable",
      "type": "function"
    },
    {
      "inputs": [],
      "name": "executeReserveFee",
      "outputs": [
        {
          "internalType": "uint256",
          "name": "",
          "type": "uint256"
        }
      ],
      "stateMutability": "nonpayable",
      "type": "function"
    },
    {
      "inputs": [],
      "name": "executeStrategistFee",
      "outputs": [
        {
          "internalType": "uint256",
          "name": "",
          "type": "uint256"
        }
      ],
      "stateMutability": "nonpayable",
      "type": "function"
    },
    {
      "inputs": [],
      "name": "executeTargetAllocation",
      "outputs": [
        {
          "internalType": "uint256",
          "name": "",
          "type": "uint256"
        }
      ],
      "stateMutability": "nonpayable",
      "type": "function"
    },
    {
      "inputs": [
        {
          "internalType": "address",
          "name": "strategy",
          "type": "address"
        }
      ],
      "name": "getAllocatedToStrategyWaitingForRemoval",
      "outputs": [
        {
          "internalType": "uint256",
          "name": "",
          "type": "uint256"
        }
      ],
      "stateMutability": "view",
      "type": "function"
    },
    {
      "inputs": [],
      "name": "getBound",
      "outputs": [
        {
          "internalType": "uint256",
          "name": "",
          "type": "uint256"
        }
      ],
      "stateMutability": "view",
      "type": "function"
    },
    {
      "inputs": [],
      "name": "getDebtLimit",
      "outputs": [
        {
          "internalType": "uint256",
          "name": "",
          "type": "uint256"
        }
      ],
      "stateMutability": "view",
      "type": "function"
    },
    {
      "inputs": [],
      "name": "getPerformanceFee",
      "outputs": [
        {
          "internalType": "uint256",
          "name": "",
          "type": "uint256"
        }
      ],
      "stateMutability": "view",
      "type": "function"
    },
    {
      "inputs": [],
      "name": "getReserveFee",
      "outputs": [
        {
          "internalType": "uint256",
          "name": "",
          "type": "uint256"
        }
      ],
      "stateMutability": "view",
      "type": "function"
    },
    {
      "inputs": [],
      "name": "getStrategiesWaitingForRemoval",
      "outputs": [
        {
          "internalType": "address[]",
          "name": "",
          "type": "address[]"
        }
      ],
      "stateMutability": "view",
      "type": "function"
    },
    {
      "inputs": [],
      "name": "getStrategistFee",
      "outputs": [
        {
          "internalType": "uint256",
          "name": "",
          "type": "uint256"
        }
      ],
      "stateMutability": "view",
      "type": "function"
    },
    {
      "inputs": [],
      "name": "getStrategy",
      "outputs": [
        {
          "internalType": "contract IStrategy",
          "name": "",
          "type": "address"
        }
      ],
      "stateMutability": "view",
      "type": "function"
    },
    {
      "inputs": [],
      "name": "getTargetAllocation",
      "outputs": [
        {
          "internalType": "uint256",
          "name": "",
          "type": "uint256"
        }
      ],
      "stateMutability": "view",
      "type": "function"
    },
    {
      "inputs": [],
      "name": "getTotalUnderlying",
      "outputs": [
        {
          "internalType": "uint256",
          "name": "",
          "type": "uint256"
        }
      ],
      "stateMutability": "view",
      "type": "function"
    },
    {
      "inputs": [],
      "name": "getUnderlying",
      "outputs": [
        {
          "internalType": "address",
          "name": "",
          "type": "address"
        }
      ],
      "stateMutability": "pure",
      "type": "function"
    },
    {
      "inputs": [],
      "name": "harvest",
      "outputs": [
        {
          "internalType": "bool",
          "name": "",
          "type": "bool"
        }
      ],
      "stateMutability": "nonpayable",
      "type": "function"
    },
    {
      "inputs": [
        {
          "internalType": "address",
          "name": "_pool",
          "type": "address"
        },
        {
          "internalType": "uint256",
          "name": "_debtLimit",
          "type": "uint256"
        },
        {
          "internalType": "uint256",
          "name": "_targetAllocation",
          "type": "uint256"
        },
        {
          "internalType": "uint256",
          "name": "_bound",
          "type": "uint256"
        }
      ],
      "name": "initialize",
      "outputs": [],
      "stateMutability": "nonpayable",
      "type": "function"
    },
    {
      "inputs": [
        {
          "internalType": "address",
          "name": "strategy_",
          "type": "address"
        }
      ],
      "name": "initializeStrategy",
      "outputs": [
        {
          "internalType": "bool",
          "name": "",
          "type": "bool"
        }
      ],
      "stateMutability": "nonpayable",
      "type": "function"
    },
    {
      "inputs": [
        {
          "internalType": "bytes32",
          "name": "",
          "type": "bytes32"
        }
      ],
      "name": "pendingAddresses",
      "outputs": [
        {
          "internalType": "address",
          "name": "",
          "type": "address"
        }
      ],
      "stateMutability": "view",
      "type": "function"
    },
    {
      "inputs": [
        {
          "internalType": "bytes32",
          "name": "",
          "type": "bytes32"
        }
      ],
      "name": "pendingUInts256",
      "outputs": [
        {
          "internalType": "uint256",
          "name": "",
          "type": "uint256"
        }
      ],
      "stateMutability": "view",
      "type": "function"
    },
    {
      "inputs": [],
      "name": "pool",
      "outputs": [
        {
          "internalType": "address",
          "name": "",
          "type": "address"
        }
      ],
      "stateMutability": "view",
      "type": "function"
    },
    {
      "inputs": [
        {
          "internalType": "uint256",
          "name": "newBound",
          "type": "uint256"
        }
      ],
      "name": "prepareBound",
      "outputs": [
        {
          "internalType": "bool",
          "name": "",
          "type": "bool"
        }
      ],
      "stateMutability": "nonpayable",
      "type": "function"
    },
    {
      "inputs": [
        {
          "internalType": "uint256",
          "name": "newDebtLimit",
          "type": "uint256"
        }
      ],
      "name": "prepareDebtLimit",
      "outputs": [
        {
          "internalType": "bool",
          "name": "",
          "type": "bool"
        }
      ],
      "stateMutability": "nonpayable",
      "type": "function"
    },
    {
      "inputs": [
        {
          "internalType": "address",
          "name": "newStrategy",
          "type": "address"
        }
      ],
      "name": "prepareNewStrategy",
      "outputs": [
        {
          "internalType": "bool",
          "name": "",
          "type": "bool"
        }
      ],
      "stateMutability": "nonpayable",
      "type": "function"
    },
    {
      "inputs": [
        {
          "internalType": "uint256",
          "name": "newPerformanceFee",
          "type": "uint256"
        }
      ],
      "name": "preparePerformanceFee",
      "outputs": [
        {
          "internalType": "bool",
          "name": "",
          "type": "bool"
        }
      ],
      "stateMutability": "nonpayable",
      "type": "function"
    },
    {
      "inputs": [
        {
          "internalType": "uint256",
          "name": "newReserveFee",
          "type": "uint256"
        }
      ],
      "name": "prepareReserveFee",
      "outputs": [
        {
          "internalType": "bool",
          "name": "",
          "type": "bool"
        }
      ],
      "stateMutability": "nonpayable",
      "type": "function"
    },
    {
      "inputs": [
        {
          "internalType": "uint256",
          "name": "newStrategistFee",
          "type": "uint256"
        }
      ],
      "name": "prepareStrategistFee",
      "outputs": [
        {
          "internalType": "bool",
          "name": "",
          "type": "bool"
        }
      ],
      "stateMutability": "nonpayable",
      "type": "function"
    },
    {
      "inputs": [
        {
          "internalType": "uint256",
          "name": "newTargetAllocation",
          "type": "uint256"
        }
      ],
      "name": "prepareTargetAllocation",
      "outputs": [
        {
          "internalType": "bool",
          "name": "",
          "type": "bool"
        }
      ],
      "stateMutability": "nonpayable",
      "type": "function"
    },
    {
      "inputs": [],
      "name": "reserve",
      "outputs": [
        {
          "internalType": "contract IVaultReserve",
          "name": "",
          "type": "address"
        }
      ],
      "stateMutability": "view",
      "type": "function"
    },
    {
      "inputs": [],
      "name": "resetBound",
      "outputs": [
        {
          "internalType": "bool",
          "name": "",
          "type": "bool"
        }
      ],
      "stateMutability": "nonpayable",
      "type": "function"
    },
    {
      "inputs": [],
      "name": "resetDebtLimit",
      "outputs": [
        {
          "internalType": "bool",
          "name": "",
          "type": "bool"
        }
      ],
      "stateMutability": "nonpayable",
      "type": "function"
    },
    {
      "inputs": [],
      "name": "resetNewStrategy",
      "outputs": [
        {
          "internalType": "bool",
          "name": "",
          "type": "bool"
        }
      ],
      "stateMutability": "nonpayable",
      "type": "function"
    },
    {
      "inputs": [],
      "name": "resetPerformanceFee",
      "outputs": [
        {
          "internalType": "bool",
          "name": "",
          "type": "bool"
        }
      ],
      "stateMutability": "nonpayable",
      "type": "function"
    },
    {
      "inputs": [],
      "name": "resetReserveFee",
      "outputs": [
        {
          "internalType": "bool",
          "name": "",
          "type": "bool"
        }
      ],
      "stateMutability": "nonpayable",
      "type": "function"
    },
    {
      "inputs": [],
      "name": "resetStrategistFee",
      "outputs": [
        {
          "internalType": "bool",
          "name": "",
          "type": "bool"
        }
      ],
      "stateMutability": "nonpayable",
      "type": "function"
    },
    {
      "inputs": [],
      "name": "resetTargetAllocation",
      "outputs": [
        {
          "internalType": "bool",
          "name": "",
          "type": "bool"
        }
      ],
      "stateMutability": "nonpayable",
      "type": "function"
    },
    {
      "inputs": [],
      "name": "roleManager",
      "outputs": [
        {
          "internalType": "contract IRoleManager",
          "name": "",
          "type": "address"
        }
      ],
      "stateMutability": "view",
      "type": "function"
    },
    {
      "inputs": [
        {
          "internalType": "uint256",
          "name": "newBound",
          "type": "uint256"
        }
      ],
      "name": "setBound",
      "outputs": [
        {
          "internalType": "uint256",
          "name": "",
          "type": "uint256"
        }
      ],
      "stateMutability": "nonpayable",
      "type": "function"
    },
    {
      "inputs": [
        {
          "internalType": "address",
          "name": "_strategy",
          "type": "address"
        }
      ],
      "name": "setStrategy",
      "outputs": [
        {
          "internalType": "bool",
          "name": "",
          "type": "bool"
        }
      ],
      "stateMutability": "nonpayable",
      "type": "function"
    },
    {
      "inputs": [
        {
          "internalType": "uint256",
          "name": "allocation",
          "type": "uint256"
        }
      ],
      "name": "setTargetAllocation",
      "outputs": [
        {
          "internalType": "uint256",
          "name": "",
          "type": "uint256"
        }
      ],
      "stateMutability": "nonpayable",
      "type": "function"
    },
    {
      "inputs": [],
      "name": "strategyActive",
      "outputs": [
        {
          "internalType": "bool",
          "name": "",
          "type": "bool"
        }
      ],
      "stateMutability": "view",
      "type": "function"
    },
    {
      "inputs": [],
      "name": "totalDebt",
      "outputs": [
        {
          "internalType": "uint256",
          "name": "",
          "type": "uint256"
        }
      ],
      "stateMutability": "view",
      "type": "function"
    },
    {
      "inputs": [],
      "name": "waitingForRemovalAllocated",
      "outputs": [
        {
          "internalType": "uint256",
          "name": "",
          "type": "uint256"
        }
      ],
      "stateMutability": "view",
      "type": "function"
    },
    {
      "inputs": [
        {
          "internalType": "uint256",
          "name": "amount",
          "type": "uint256"
        }
      ],
      "name": "withdraw",
      "outputs": [
        {
          "internalType": "bool",
          "name": "",
          "type": "bool"
        }
      ],
      "stateMutability": "nonpayable",
      "type": "function"
    },
    {
      "inputs": [],
      "name": "withdrawAll",
      "outputs": [],
      "stateMutability": "nonpayable",
      "type": "function"
    },
    {
      "inputs": [],
      "name": "withdrawAllFromStrategy",
      "outputs": [
        {
          "internalType": "bool",
          "name": "",
          "type": "bool"
        }
      ],
      "stateMutability": "nonpayable",
      "type": "function"
    },
    {
      "inputs": [
        {
          "internalType": "uint256",
          "name": "amount",
          "type": "uint256"
        }
      ],
      "name": "withdrawFromReserve",
      "outputs": [],
      "stateMutability": "nonpayable",
      "type": "function"
    },
    {
      "inputs": [
        {
          "internalType": "address",
          "name": "coin",
          "type": "address"
        },
        {
          "internalType": "uint256",
          "name": "amount",
          "type": "uint256"
        }
      ],
      "name": "withdrawFromReserve",
      "outputs": [],
      "stateMutability": "nonpayable",
      "type": "function"
    },
    {
      "inputs": [
        {
          "internalType": "uint256",
          "name": "amount",
          "type": "uint256"
        }
      ],
      "name": "withdrawFromStrategy",
      "outputs": [
        {
          "internalType": "bool",
          "name": "",
          "type": "bool"
        }
      ],
      "stateMutability": "nonpayable",
      "type": "function"
    },
    {
      "inputs": [
        {
          "internalType": "address",
          "name": "strategy",
          "type": "address"
        }
      ],
      "name": "withdrawFromStrategyWaitingForRemoval",
      "outputs": [
        {
          "internalType": "uint256",
          "name": "",
          "type": "uint256"
        }
      ],
      "stateMutability": "nonpayable",
      "type": "function"
    },
    {
      "stateMutability": "payable",
      "type": "receive"
    }
  ],
  "bytecode": "0x6101006040523480156200001257600080fd5b5060405162005a8638038062005a86833981016040819052620000359162000291565b8080620000ca816001600160a01b0316632954018c6040518163ffffffff1660e01b815260040160206040518083038186803b1580156200007557600080fd5b505afa1580156200008a573d6000803e3d6000fd5b505050506040513d601f19601f82011682018060405250810190620000b0919062000291565b6001600160a01b0316620001a660201b620038041760201c565b6001600160a01b03908116608052811660a081905260408051630a55006360e21b8152905160009291632954018c916004808301926020929190829003018186803b1580156200011957600080fd5b505afa1580156200012e573d6000803e3d6000fd5b505050506040513d601f19601f8201168201806040525081019062000154919062000291565b9050806001600160a01b031660c0816001600160a01b0316815250506200018f816001600160a01b03166200023960201b6200388d1760201c565b6001600160a01b031660e05250620002b892505050565b6040516321f8a72160e01b81526a3937b632a6b0b730b3b2b960a91b60048201526000906001600160a01b038316906321f8a721906024015b60206040518083038186803b158015620001f857600080fd5b505afa1580156200020d573d6000803e3d6000fd5b505050506040513d601f19601f8201168201806040525081019062000233919062000291565b92915050565b6040516321f8a72160e01b81526b7661756c745265736572766560a01b60048201526000906001600160a01b038316906321f8a72190602401620001df565b6001600160a01b03811681146200028e57600080fd5b50565b600060208284031215620002a457600080fd5b8151620002b18162000278565b9392505050565b60805160a05160c05160e0516157396200034d600039600081816109b901528181610d8a01528181610e900152818161153e01528181611a2a01528181611abe015281816149d501528181614aa701528181614b3d01528181614dfc01528181614fb30152818161505001526150fd0152600081816105ad0152614e8d01526000610aff015260006138cd01526157396000f3fe6080604052600436106103dc5760003560e01c8063890f5f83116101fd578063bdca916511610118578063d8ae7bf8116100ab578063f3e7fc801161007a578063f3e7fc8014610aa2578063f76c339914610ab7578063f77c479114610aed578063f95d943814610b21578063fc7b9c1814610b3757600080fd5b8063d8ae7bf814610a22578063e3976edf14610a37578063f09b8fb114610a6d578063f1eeb9e614610a8257600080fd5b8063d0e30db0116100e7578063d0e30db0146109db578063d46a8478146109e3578063d583e659146109f8578063d698e2bb14610a0d57600080fd5b8063bdca916514610830578063c4baed9314610972578063c9fd922714610992578063cd3293de146109a757600080fd5b8063a50ec87611610190578063af2a8fff1161015f578063af2a8fff146108f6578063aff1b7e414610916578063b40494e514610943578063bd2a8b071461095857600080fd5b8063a50ec87614610897578063a852d3e0146108ac578063a966bc09146108cc578063ade10960146108e157600080fd5b80639407d08f116101cc5780639407d08f146108305780639816f4731461084c5780639cf7fcc9146108605780639d711f3b1461088257600080fd5b8063890f5f83146107db57806389efcaac146107f05780638e6ac89b1461080657806390f389181461081b57600080fd5b806333a100ca116102f85780636741c1b91161028b578063779ce5a41161025a578063779ce5a414610772578063798cf01d146107875780637cd32a121461079c5780637fef50da146107b1578063853828b6146107c657600080fd5b80636741c1b914610706578063678cbcb51461071b5780636d785cf31461073b5780636f21cac31461075257600080fd5b80634641257d116102c75780634641257d1461069157806348b19335146106a65780634b149e79146106c65780634ec81af1146106e657600080fd5b806333a100ca14610604578063346a4a5114610624578063393bd5d4146106515780634278a6731461067157600080fd5b806321401dd11161037057806327f576d11161033f57806327f576d11461057b5780632954018c1461059b5780632e1a7d4d146105cf57806332a894c1146105ef57600080fd5b806321401dd1146105115780632182a5c414610526578063235c36031461054657806327709cf71461055b57600080fd5b80630fe6cbcf116103ac5780630fe6cbcf14610476578063102a91261461049657806315dbfe62146104b657806316f0115b146104f157600080fd5b8062435da5146103e857806307da06031461041a5780630a8bcdb91461042f5780630ee43c201461045157600080fd5b366103e357005b600080fd5b3480156103f457600080fd5b506103fd610b4d565b6040516001600160a01b0390911681526020015b60405180910390f35b34801561042657600080fd5b506103fd610b5c565b34801561043b57600080fd5b5061044f61044a3660046153d7565b610b9e565b005b34801561045d57600080fd5b50610466610f27565b6040519015158152602001610411565b34801561048257600080fd5b506104666104913660046153d7565b61101a565b3480156104a257600080fd5b506104666104b13660046153d7565b611122565b3480156104c257600080fd5b506104e36104d13660046153d7565b603b6020526000908152604090205481565b604051908152602001610411565b3480156104fd57600080fd5b506002546103fd906001600160a01b031681565b34801561051d57600080fd5b50610466611221565b34801561053257600080fd5b506104666105413660046153d7565b611300565b34801561055257600080fd5b506104e36113ed565b34801561056757600080fd5b506104e36105763660046153d7565b61142c565b34801561058757600080fd5b5061044f610596366004615405565b611527565b3480156105a757600080fd5b506103fd7f000000000000000000000000000000000000000000000000000000000000000081565b3480156105db57600080fd5b506104666105ea3660046153d7565b611575565b3480156105fb57600080fd5b506104e36118c5565b34801561061057600080fd5b5061046661061f366004615431565b6118e8565b34801561063057600080fd5b506104e361063f3660046153d7565b603e6020526000908152604090205481565b34801561065d57600080fd5b5061044f61066c366004615405565b611a06565b34801561067d57600080fd5b5061046661068c3660046153d7565b611af5565b34801561069d57600080fd5b50610466611c2d565b3480156106b257600080fd5b506104666106c13660046153d7565b611d22565b3480156106d257600080fd5b506104e36106e13660046153d7565b611f49565b3480156106f257600080fd5b5061044f61070136600461544e565b612032565b34801561071257600080fd5b506104666120fb565b34801561072757600080fd5b50610466610736366004615431565b6121da565b34801561074757600080fd5b506104e36206978081565b34801561075e57600080fd5b506104e361076d366004615431565b61248c565b34801561077e57600080fd5b506104e3612499565b34801561079357600080fd5b506104e36124da565b3480156107a857600080fd5b506104e3612518565b3480156107bd57600080fd5b506104e3612552565b3480156107d257600080fd5b5061044f612588565b3480156107e757600080fd5b50610466612692565b3480156107fc57600080fd5b506104e360015481565b34801561081257600080fd5b5061046661277f565b34801561082757600080fd5b506104e361286f565b34801561083c57600080fd5b506104e36706f05b59d3b2000081565b34801561085857600080fd5b5060006103fd565b34801561086c57600080fd5b5061087561289e565b6040516104119190615489565b34801561088e57600080fd5b506104666128aa565b3480156108a357600080fd5b506103fd612995565b3480156108b857600080fd5b506104666108c73660046153d7565b612bd6565b3480156108d857600080fd5b50610466612cca565b3480156108ed57600080fd5b50610466612db2565b34801561090257600080fd5b50610466610911366004615431565b612ea6565b34801561092257600080fd5b506104e36109313660046153d7565b603d6020526000908152604090205481565b34801561094f57600080fd5b506104e3612f96565b34801561096457600080fd5b506004546104669060ff1681565b34801561097e57600080fd5b5061046661098d3660046153d7565b612ffb565b34801561099e57600080fd5b506104e361313c565b3480156109b357600080fd5b506103fd7f000000000000000000000000000000000000000000000000000000000000000081565b61044f61315b565b3480156109ef57600080fd5b506104e361324d565b348015610a0457600080fd5b506104e3613274565b348015610a1957600080fd5b506104666132be565b348015610a2e57600080fd5b506104666133af565b348015610a4357600080fd5b506103fd610a523660046153d7565b603a602052600090815260409020546001600160a01b031681565b348015610a7957600080fd5b506104e361349b565b348015610a8e57600080fd5b506104e3610a9d366004615431565b6134b7565b348015610aae57600080fd5b506104e36137c9565b348015610ac357600080fd5b506103fd610ad23660046153d7565b603c602052600090815260409020546001600160a01b031681565b348015610af957600080fd5b506103fd7f000000000000000000000000000000000000000000000000000000000000000081565b348015610b2d57600080fd5b506104e360005481565b348015610b4357600080fd5b506104e360035481565b6000610b576138cb565b905090565b67537472617465677960c01b600052603c6020527f15bdd40257915f753934b43755984618aeb2ae4fff096845769c2bb729e989be546001600160a01b031690565b610ba66138cb565b6001600160a01b03166391d1485469676f7665726e616e636560b01b336040518363ffffffff1660e01b8152600401610be09291906154d6565b60206040518083038186803b158015610bf857600080fd5b505afa158015610c0c573d6000803e3d6000fd5b505050506040513d601f19601f82011682018060405250810190610c3091906154ed565b6040518060400160405280601381526020016000805160206156c383398151915281525090610c7b5760405162461bcd60e51b8152600401610c72919061550f565b60405180910390fd5b5060408051808201909152600e81526d1a5b9d985b1a5908185b5bdd5b9d60921b602082015281610cbf5760405162461bcd60e51b8152600401610c72919061550f565b50600260009054906101000a90046001600160a01b03166001600160a01b031663b187bd266040518163ffffffff1660e01b815260040160206040518083038186803b158015610d0e57600080fd5b505afa158015610d22573d6000803e3d6000fd5b505050506040513d601f19601f82011682018060405250810190610d4691906154ed565b6040518060600160405280602c8152602001615697602c913990610d7d5760405162461bcd60e51b8152600401610c72919061550f565b5060006001600160a01b037f00000000000000000000000000000000000000000000000000000000000000001663d4fac45d30836040516001600160e01b031960e085901b1681526001600160a01b0392831660048201529116602482015260440160206040518083038186803b158015610df757600080fd5b505afa158015610e0b573d6000803e3d6000fd5b505050506040513d601f19601f82011682018060405250810190610e2f9190615564565b90508082111560405180604001604052806014815260200173696e73756666696369656e742062616c616e636560601b81525090610e805760405162461bcd60e51b8152600401610c72919061550f565b5060405163f3fef3a360e01b81527f00000000000000000000000000000000000000000000000000000000000000006001600160a01b03169063f3fef3a390610ed090600090869060040161557d565b602060405180830381600087803b158015610eea57600080fd5b505af1158015610efe573d6000803e3d6000fd5b505050506040513d601f19601f82011682018060405250810190610f2291906154ed565b505050565b6000610f316138cb565b6001600160a01b03166391d1485469676f7665726e616e636560b01b336040518363ffffffff1660e01b8152600401610f6b9291906154d6565b60206040518083038186803b158015610f8357600080fd5b505afa158015610f97573d6000803e3d6000fd5b505050506040513d601f19601f82011682018060405250810190610fbb91906154ed565b6040518060400160405280601381526020016000805160206156c383398151915281525090610ffd5760405162461bcd60e51b8152600401610c72919061550f565b50610b576f2a30b933b2ba20b63637b1b0ba34b7b760811b6138ef565b60006110246138cb565b6001600160a01b03166391d1485469676f7665726e616e636560b01b336040518363ffffffff1660e01b815260040161105e9291906154d6565b60206040518083038186803b15801561107657600080fd5b505afa15801561108a573d6000803e3d6000fd5b505050506040513d601f19601f820116820180604052508101906110ae91906154ed565b6040518060400160405280601381526020016000805160206156c3833981519152815250906110f05760405162461bcd60e51b8152600401610c72919061550f565b506111026110fc6137c9565b83613996565b61111c6c5374726174656769737446656560981b83613a21565b92915050565b600061112c6138cb565b6001600160a01b03166391d1485469676f7665726e616e636560b01b336040518363ffffffff1660e01b81526004016111669291906154d6565b60206040518083038186803b15801561117e57600080fd5b505afa158015611192573d6000803e3d6000fd5b505050506040513d601f19601f820116820180604052508101906111b691906154ed565b6040518060400160405280601381526020016000805160206156c3833981519152815250906111f85760405162461bcd60e51b8152600401610c72919061550f565b5061120a826112056124da565b613996565b61111c695265736572766546656560b01b83613a21565b600061122b6138cb565b6001600160a01b03166391d1485469676f7665726e616e636560b01b336040518363ffffffff1660e01b81526004016112659291906154d6565b60206040518083038186803b15801561127d57600080fd5b505afa158015611291573d6000803e3d6000fd5b505050506040513d601f19601f820116820180604052508101906112b591906154ed565b6040518060400160405280601381526020016000805160206156c3833981519152815250906112f75760405162461bcd60e51b8152600401610c72919061550f565b50610b57613a38565b600061130a6138cb565b6001600160a01b03166391d1485469676f7665726e616e636560b01b336040518363ffffffff1660e01b81526004016113449291906154d6565b60206040518083038186803b15801561135c57600080fd5b505afa158015611370573d6000803e3d6000fd5b505050506040513d601f19601f8201168201806040525081019061139491906154ed565b6040518060400160405280601381526020016000805160206156c3833981519152815250906113d65760405162461bcd60e51b8152600401610c72919061550f565b5061111c681119589d131a5b5a5d60ba1b83613a21565b6d506572666f726d616e636546656560901b600052603d6020527fbadb955f4a57baa7811abc9bcd6809eb9d3b80456cae1a7ea27f30fddfd0c0a65490565b60006114366138cb565b6001600160a01b03166391d1485469676f7665726e616e636560b01b336040518363ffffffff1660e01b81526004016114709291906154d6565b60206040518083038186803b15801561148857600080fd5b505afa15801561149c573d6000803e3d6000fd5b505050506040513d601f19601f820116820180604052508101906114c091906154ed565b6040518060400160405280601381526020016000805160206156c3833981519152815250906115025760405162461bcd60e51b8152600401610c72919061550f565b506115206f2a30b933b2ba20b63637b1b0ba34b7b760811b83613a98565b5090919050565b60405163f3fef3a360e01b81526001600160a01b037f0000000000000000000000000000000000000000000000000000000000000000169063f3fef3a390610ed0908590859060040161557d565b6002546000906001600160a01b031633148061161e57506115946138cb565b6001600160a01b03166391d1485469676f7665726e616e636560b01b336040518363ffffffff1660e01b81526004016115ce9291906154d6565b60206040518083038186803b1580156115e657600080fd5b505afa1580156115fa573d6000803e3d6000fd5b505050506040513d601f19601f8201168201806040525081019061161e91906154ed565b6040518060400160405280601381526020016000805160206156c3833981519152815250906116605760405162461bcd60e51b8152600401610c72919061550f565b50600061166b610b5c565b905047838110156117e7576001600160a01b03821661168e575060009392505050565b6000826001600160a01b031663b69ef8a86040518163ffffffff1660e01b815260040160206040518083038186803b1580156116c957600080fd5b505afa1580156116dd573d6000803e3d6000fd5b505050506040513d601f19601f820116820180604052508101906117019190615564565b9050600061170f83876155ac565b9050818111156117255750600095945050505050565b6000611742611732612499565b61173c84866155ac565b90613b05565b9050600061175082856155ac565b604051632e1a7d4d60e01b8152600481018290529091506001600160a01b03871690632e1a7d4d90602401602060405180830381600087803b15801561179557600080fd5b505af11580156117a9573d6000803e3d6000fd5b505050506040513d601f19601f820116820180604052508101906117cd91906154ed565b506117da60005482613b24565b600055506118a592505050565b60006001600160a01b0383161561186c57826001600160a01b031663b69ef8a86040518163ffffffff1660e01b815260040160206040518083038186803b15801561183157600080fd5b505afa158015611845573d6000803e3d6000fd5b505050506040513d601f19601f820116820180604052508101906118699190615564565b90505b60015460009061187c83856155c3565b61188691906155c3565b9050600061189487836155ac565b90506118a08184613b48565b505050505b6002546118bb906001600160a01b031685613d5f565b5060019392505050565b6000806118d964109bdd5b9960da1b613d95565b90506118e3613db9565b919050565b60006118f26138cb565b6001600160a01b03166391d1485469676f7665726e616e636560b01b336040518363ffffffff1660e01b815260040161192c9291906154d6565b60206040518083038186803b15801561194457600080fd5b505afa158015611958573d6000803e3d6000fd5b505050506040513d601f19601f8201168201806040525081019061197c91906154ed565b6040518060400160405280601381526020016000805160206156c3833981519152815250906119be5760405162461bcd60e51b8152600401610c72919061550f565b50816001600160a01b03166119d1610b5c565b6001600160a01b031614156119e857506000919050565b6119fd67537472617465677960c01b83613e77565b50600192915050565b60405163095ea7b360e01b81526001600160a01b0383169063095ea7b390611a54907f000000000000000000000000000000000000000000000000000000000000000090859060040161557d565b602060405180830381600087803b158015611a6e57600080fd5b505af1158015611a82573d6000803e3d6000fd5b505050506040513d601f19601f82011682018060405250810190611aa691906154ed565b506040516311f9fbc960e21b81526001600160a01b037f000000000000000000000000000000000000000000000000000000000000000016906347e7ef2490610ed0908590859060040161557d565b6000611aff6138cb565b6001600160a01b03166391d1485469676f7665726e616e636560b01b336040518363ffffffff1660e01b8152600401611b399291906154d6565b60206040518083038186803b158015611b5157600080fd5b505afa158015611b65573d6000803e3d6000fd5b505050506040513d601f19601f82011682018060405250810190611b8991906154ed565b6040518060400160405280601381526020016000805160206156c383398151915281525090611bcb5760405162461bcd60e51b8152600401610c72919061550f565b5060408051808201909152600e81526d1a5b9d985b1a5908185b5bdd5b9d60921b60208201526706f05b59d3b20000831115611c1a5760405162461bcd60e51b8152600401610c72919061550f565b5061111c64109bdd5b9960da1b83613a21565b6002546000906001600160a01b0316331480611cd75750611c4c6138cb565b6001600160a01b03166391d148546a6d61696e74656e616e636560a81b336040518363ffffffff1660e01b8152600401611c879291906154d6565b60206040518083038186803b158015611c9f57600080fd5b505afa158015611cb3573d6000803e3d6000fd5b505050506040513d601f19601f82011682018060405250810190611cd791906154ed565b6040518060400160405280601381526020016000805160206156c383398151915281525090611d195760405162461bcd60e51b8152600401610c72919061550f565b50610b57613ef7565b6000611d2c6138cb565b6001600160a01b03166391d1485469676f7665726e616e636560b01b336040518363ffffffff1660e01b8152600401611d669291906154d6565b60206040518083038186803b158015611d7e57600080fd5b505afa158015611d92573d6000803e3d6000fd5b505050506040513d601f19601f82011682018060405250810190611db691906154ed565b6040518060400160405280601381526020016000805160206156c383398151915281525090611df85760405162461bcd60e51b8152600401610c72919061550f565b506000611e03610b5c565b90506001600160a01b038116611e1c5750600092915050565b82816001600160a01b031663b69ef8a86040518163ffffffff1660e01b815260040160206040518083038186803b158015611e5657600080fd5b505afa158015611e6a573d6000803e3d6000fd5b505050506040513d601f19601f82011682018060405250810190611e8e9190615564565b1015611e9d5750600092915050565b600047604051632e1a7d4d60e01b8152600481018690529091506001600160a01b03831690632e1a7d4d90602401602060405180830381600087803b158015611ee557600080fd5b505af1158015611ef9573d6000803e3d6000fd5b505050506040513d601f19601f82011682018060405250810190611f1d91906154ed565b5047611f2982826155ac565b600080828254611f3991906155ac565b9091555060019695505050505050565b6000611f536138cb565b6001600160a01b03166391d1485469676f7665726e616e636560b01b336040518363ffffffff1660e01b8152600401611f8d9291906154d6565b60206040518083038186803b158015611fa557600080fd5b505afa158015611fb9573d6000803e3d6000fd5b505050506040513d601f19601f82011682018060405250810190611fdd91906154ed565b6040518060400160405280601381526020016000805160206156c38339815191528152509061201f5760405162461bcd60e51b8152600401610c72919061550f565b5061152064109bdd5b9960da1b83613a98565b603f54610100900460ff1661204d57603f5460ff1615612051565b303b155b6120b45760405162461bcd60e51b815260206004820152602e60248201527f496e697469616c697a61626c653a20636f6e747261637420697320616c72656160448201526d191e481a5b9a5d1a585b1a5e995960921b6064820152608401610c72565b603f54610100900460ff161580156120d657603f805461ffff19166101011790555b6120e2858585856141ae565b80156120f457603f805461ff00191690555b5050505050565b60006121056138cb565b6001600160a01b03166391d1485469676f7665726e616e636560b01b336040518363ffffffff1660e01b815260040161213f9291906154d6565b60206040518083038186803b15801561215757600080fd5b505afa15801561216b573d6000803e3d6000fd5b505050506040513d601f19601f8201168201806040525081019061218f91906154ed565b6040518060400160405280601381526020016000805160206156c3833981519152815250906121d15760405162461bcd60e51b8152600401610c72919061550f565b50610b5761435c565b60006121e46138cb565b6001600160a01b03166391d1485469676f7665726e616e636560b01b336040518363ffffffff1660e01b815260040161221e9291906154d6565b60206040518083038186803b15801561223657600080fd5b505afa15801561224a573d6000803e3d6000fd5b505050506040513d601f19601f8201168201806040525081019061226e91906154ed565b6040518060400160405280601381526020016000805160206156c3833981519152815250906122b05760405162461bcd60e51b8152600401610c72919061550f565b5067537472617465677960c01b600052603c60209081527f15bdd40257915f753934b43755984618aeb2ae4fff096845769c2bb729e989be546040805180820190915260168152751059191c995cdcc81a5cc8185b1c9958591e481cd95d60521b928101929092526001600160a01b03161561233f5760405162461bcd60e51b8152600401610c72919061550f565b506040805180820190915260188152771e995c9bc81859191c995cdcc81b9bdd08185b1b1bddd95960421b60208201526001600160a01b0383166123965760405162461bcd60e51b8152600401610c72919061550f565b506123ac67537472617465677960c01b83613e77565b506123b561435c565b5060006001600160a01b0316826001600160a01b0316631fe4a6866040518163ffffffff1660e01b815260040160206040518083038186803b1580156123fa57600080fd5b505afa15801561240e573d6000803e3d6000fd5b505050506040513d601f19601f8201168201806040525081019061243291906155db565b6001600160a01b03161415604051806040016040528060188152602001771e995c9bc81859191c995cdcc81b9bdd08185b1b1bddd95960421b815250906119fd5760405162461bcd60e51b8152600401610c72919061550f565b600061111c6005836143d0565b6f2a30b933b2ba20b63637b1b0ba34b7b760811b600052603d6020527f0a3006de449e2f6da78c92d58370b3dd2ef3b1e1963fc373ed67d46ced02eb8f5490565b6c5374726174656769737446656560981b600052603d6020527f9991a201724620367b875943d3f1e2d8a65d067f05ccd6a37af85ae33cf679e95490565b681119589d131a5b5a5d60ba1b600052603d6020527fed35bbff007ae1d09677de3676c3cb1b0411569c4ab270913b3fb2a177a703195490565b64109bdd5b9960da1b600052603d6020527fcba6df5081839cab6ded1888d57f2772386c9d156438bb2faa7b07ec10c244705490565b6002546001600160a01b031633148061262e57506125a46138cb565b6001600160a01b03166391d1485469676f7665726e616e636560b01b336040518363ffffffff1660e01b81526004016125de9291906154d6565b60206040518083038186803b1580156125f657600080fd5b505afa15801561260a573d6000803e3d6000fd5b505050506040513d601f19601f8201168201806040525081019061262e91906154ed565b6040518060400160405280601381526020016000805160206156c3833981519152815250906126705760405162461bcd60e51b8152600401610c72919061550f565b506126796143e5565b50600254612690906001600160a01b031647613d5f565b565b600061269c6138cb565b6001600160a01b03166391d1485469676f7665726e616e636560b01b336040518363ffffffff1660e01b81526004016126d69291906154d6565b60206040518083038186803b1580156126ee57600080fd5b505afa158015612702573d6000803e3d6000fd5b505050506040513d601f19601f8201168201806040525081019061272691906154ed565b6040518060400160405280601381526020016000805160206156c3833981519152815250906127685760405162461bcd60e51b8152600401610c72919061550f565b50610b57695265736572766546656560b01b6138ef565b60006127896138cb565b6001600160a01b03166391d1485469676f7665726e616e636560b01b336040518363ffffffff1660e01b81526004016127c39291906154d6565b60206040518083038186803b1580156127db57600080fd5b505afa1580156127ef573d6000803e3d6000fd5b505050506040513d601f19601f8201168201806040525081019061281391906154ed565b6040518060400160405280601381526020016000805160206156c3833981519152815250906128555760405162461bcd60e51b8152600401610c72919061550f565b50610b576c5374726174656769737446656560981b6138ef565b60008061288b6c5374726174656769737446656560981b613d95565b90506118e36128986137c9565b82613996565b6060610b5760056144bc565b60006128b46138cb565b6001600160a01b03166391d1485469676f7665726e616e636560b01b336040518363ffffffff1660e01b81526004016128ee9291906154d6565b60206040518083038186803b15801561290657600080fd5b505afa15801561291a573d6000803e3d6000fd5b505050506040513d601f19601f8201168201806040525081019061293e91906154ed565b6040518060400160405280601381526020016000805160206156c3833981519152815250906129805760405162461bcd60e51b8152600401610c72919061550f565b50610b5767537472617465677960c01b61456b565b60006129ab67537472617465677960c01b61461d565b60006129b5610b5c565b90506001600160a01b03811615612b59576129ce613ef7565b50806001600160a01b031663fc0e74d16040518163ffffffff1660e01b8152600401602060405180830381600087803b158015612a0a57600080fd5b505af1158015612a1e573d6000803e3d6000fd5b505050506040513d601f19601f82011682018060405250810190612a4291906154ed565b50806001600160a01b031663853828b66040518163ffffffff1660e01b8152600401602060405180830381600087803b158015612a7e57600080fd5b505af1158015612a92573d6000803e3d6000fd5b505050506040513d601f19601f82011682018060405250810190612ab69190615564565b506000816001600160a01b031663b69ef8a86040518163ffffffff1660e01b815260040160206040518083038186803b158015612af257600080fd5b505afa158015612b06573d6000803e3d6000fd5b505050506040513d601f19601f82011682018060405250810190612b2a9190615564565b90508015612b5757612b3e600583836146c6565b508060016000828254612b5191906155c3565b90915550505b505b612b61613a38565b506000808055600381905567537472617465677960c01b90819052603a6020527fa4caf68bc3013a9a5274c5d8968485ae05b8c28e9f50493f41acc96b22818c23546001600160a01b031690612bb79082613e77565b506001600160a01b0381161561111c57612bcf61435c565b5092915050565b6000612be06138cb565b6001600160a01b03166391d1485469676f7665726e616e636560b01b336040518363ffffffff1660e01b8152600401612c1a9291906154d6565b60206040518083038186803b158015612c3257600080fd5b505afa158015612c46573d6000803e3d6000fd5b505050506040513d601f19601f82011682018060405250810190612c6a91906154ed565b6040518060400160405280601381526020016000805160206156c383398151915281525090612cac5760405162461bcd60e51b8152600401610c72919061550f565b5061111c6f2a30b933b2ba20b63637b1b0ba34b7b760811b83613a21565b6000612cd46138cb565b6001600160a01b03166391d1485469676f7665726e616e636560b01b336040518363ffffffff1660e01b8152600401612d0e9291906154d6565b60206040518083038186803b158015612d2657600080fd5b505afa158015612d3a573d6000803e3d6000fd5b505050506040513d601f19601f82011682018060405250810190612d5e91906154ed565b6040518060400160405280601381526020016000805160206156c383398151915281525090612da05760405162461bcd60e51b8152600401610c72919061550f565b50610b5764109bdd5b9960da1b6138ef565b6002546000906001600160a01b0316331480612e5b5750612dd16138cb565b6001600160a01b03166391d1485469676f7665726e616e636560b01b336040518363ffffffff1660e01b8152600401612e0b9291906154d6565b60206040518083038186803b158015612e2357600080fd5b505afa158015612e37573d6000803e3d6000fd5b505050506040513d601f19601f82011682018060405250810190612e5b91906154ed565b6040518060400160405280601381526020016000805160206156c383398151915281525090612e9d5760405162461bcd60e51b8152600401610c72919061550f565b50610b576143e5565b6000612eb06138cb565b6001600160a01b03166391d1485469676f7665726e616e636560b01b336040518363ffffffff1660e01b8152600401612eea9291906154d6565b60206040518083038186803b158015612f0257600080fd5b505afa158015612f16573d6000803e3d6000fd5b505050506040513d601f19601f82011682018060405250810190612f3a91906154ed565b6040518060400160405280601381526020016000805160206156c383398151915281525090612f7c5760405162461bcd60e51b8152600401610c72919061550f565b5061111c67537472617465677960c01b83620697806146e4565b60004781612fa2610b5c565b6001600160a01b03161415612fb657919050565b600060015460005483612fc991906155c3565b612fd391906155c3565b90508060035411612ff257600354612feb90826155ac565b9250505090565b60009250505090565b60006130056138cb565b6001600160a01b03166391d1485469676f7665726e616e636560b01b336040518363ffffffff1660e01b815260040161303f9291906154d6565b60206040518083038186803b15801561305757600080fd5b505afa15801561306b573d6000803e3d6000fd5b505050506040513d601f19601f8201168201806040525081019061308f91906154ed565b6040518060400160405280601381526020016000805160206156c3833981519152815250906130d15760405162461bcd60e51b8152600401610c72919061550f565b5060408051808201909152600e81526d1a5b9d985b1a5908185b5bdd5b9d60921b60208201526706f05b59d3b200008311156131205760405162461bcd60e51b8152600401610c72919061550f565b5061111c6d506572666f726d616e636546656560901b83613a21565b6000806118d96f2a30b933b2ba20b63637b1b0ba34b7b760811b613d95565b6002546001600160a01b031633148061320257506131776138cb565b6001600160a01b03166391d148546a6d61696e74656e616e636560a81b336040518363ffffffff1660e01b81526004016131b29291906154d6565b60206040518083038186803b1580156131ca57600080fd5b505afa1580156131de573d6000803e3d6000fd5b505050506040513d601f19601f8201168201806040525081019061320291906154ed565b6040518060400160405280601381526020016000805160206156c3833981519152815250906132445760405162461bcd60e51b8152600401610c72919061550f565b50612690613db9565b600080613266695265736572766546656560b01b613d95565b90506118e3816112056124da565b60008061328c681119589d131a5b5a5d60ba1b613d95565b905060006132a582600054613b0590919063ffffffff16565b905080600354106132b8576132b861475d565b50919050565b60006132c86138cb565b6001600160a01b03166391d1485469676f7665726e616e636560b01b336040518363ffffffff1660e01b81526004016133029291906154d6565b60206040518083038186803b15801561331a57600080fd5b505afa15801561332e573d6000803e3d6000fd5b505050506040513d601f19601f8201168201806040525081019061335291906154ed565b6040518060400160405280601381526020016000805160206156c3833981519152815250906133945760405162461bcd60e51b8152600401610c72919061550f565b50610b576d506572666f726d616e636546656560901b6138ef565b60006133b96138cb565b6001600160a01b03166391d1485469676f7665726e616e636560b01b336040518363ffffffff1660e01b81526004016133f39291906154d6565b60206040518083038186803b15801561340b57600080fd5b505afa15801561341f573d6000803e3d6000fd5b505050506040513d601f19601f8201168201806040525081019061344391906154ed565b6040518060400160405280601381526020016000805160206156c3833981519152815250906134855760405162461bcd60e51b8152600401610c72919061550f565b50610b57681119589d131a5b5a5d60ba1b6138ef565b6000610b576d506572666f726d616e636546656560901b613d95565b600080806134c660058561477a565b91509150816040518060400160405280601781526020017f537472617465677920646f6573206e6f742065786973740000000000000000008152509061351f5760405162461bcd60e51b8152600401610c72919061550f565b506000849050806001600160a01b0316634641257d6040518163ffffffff1660e01b8152600401602060405180830381600087803b15801561356057600080fd5b505af1158015613574573d6000803e3d6000fd5b505050506040513d601f19601f820116820180604052508101906135989190615564565b506000816001600160a01b031663853828b66040518163ffffffff1660e01b8152600401602060405180830381600087803b1580156135d657600080fd5b505af11580156135ea573d6000803e3d6000fd5b505050506040513d601f19601f8201168201806040525081019061360e9190615564565b600154909150808210613625576000600155613633565b61362f82826155ac565b6001555b8382111561371e57600061364785846155ac565b905060006136656136606136596113ed565b8490613b05565b6147a1565b905080156136e7576136e781866001600160a01b0316631fe4a6866040518163ffffffff1660e01b815260040160206040518083038186803b1580156136aa57600080fd5b505afa1580156136be573d6000803e3d6000fd5b505050506040513d601f19601f820116820180604052508101906136e291906155db565b614801565b60405160009650869083907f6c8433a8e155f0af04dba058d4e4695f7da554578963d876bdf4a6d8d6399d9c908390a3505061372b565b61372882856155ac565b93505b826001600160a01b031663b69ef8a86040518163ffffffff1660e01b815260040160206040518083038186803b15801561376457600080fd5b505afa158015613778573d6000803e3d6000fd5b505050506040513d601f19601f8201168201806040525081019061379c9190615564565b6137b1576137ab600584614899565b506137bf565b6137bd600584866146c6565b505b5095945050505050565b695265736572766546656560b01b600052603d6020527fa61f8e25cb35ba15fc70bbd3ba789d53bf34a4deddb38a43a213af3182d35aae5490565b6040516321f8a72160e01b81526a3937b632a6b0b730b3b2b960a91b60048201526000906001600160a01b038316906321f8a721906024015b60206040518083038186803b15801561385557600080fd5b505afa158015613869573d6000803e3d6000fd5b505050506040513d601f19601f8201168201806040525081019061111c91906155db565b6040516321f8a72160e01b81526b7661756c745265736572766560a01b60048201526000906001600160a01b038316906321f8a7219060240161383d565b7f000000000000000000000000000000000000000000000000000000000000000090565b6000818152603e6020908152604080832054815180830190925260128252710646561646c696e65206d75737420626520360741b92820192909252906139485760405162461bcd60e51b8152600401610c72919061550f565b506000828152603e60209081526040808320839055603b9091528082208290555183917f90fb84ad67dd037c388289337bb80b61b8605d38ba9a875dc38b5600909d172f91a2506001919050565b670de0b6b3a76400006139a982846155c3565b1115613a1d5760405162461bcd60e51b815260206004820152603760248201527f73756d206f6620737472617465676973742066656520616e642072657365727660448201527f65206665652073686f756c642062652062656c6f7720310000000000000000006064820152608401610c72565b5050565b6000613a3183836203f4806148ae565b9392505050565b60045460009060ff16613a4b5750600090565b6004805460ff19169055613a5d610b5c565b6001600160a01b03167f274ec28d31430170ad5dd350f8e7505ffab078c309300878c710383ae4cbed4960405160405180910390a250600190565b6000828152603d60209081526040808320805490859055603b8352818420849055603e835281842084905581518181529283018590529185917fcc0bafe2accb565ea70674bf4b2555e49a47d410fb9932dfab3e5f41855d0a2f91015b60405180910390a2509092915050565b6000670de0b6b3a7640000613b1a83856155f8565b613a319190615617565b600081831115613b3f57613b3882846155ac565b905061111c565b50600092915050565b60045460009060ff16613b5d5750600061111c565b6000613b67612499565b90506000613b73610b5c565b90506000613b7f612552565b90506000613b8d8785613b05565b905060008415613ba657613ba183866155c3565b613ba9565b60005b9050670de0b6b3a76400008111613bc05780613bca565b670de0b6b3a76400005b90506000858411613be457613bdf84876155ac565b613be7565b60005b9050613bf38983613b05565b881115613c99576000613c06848a6155ac565b604051632e1a7d4d60e01b8152600481018290529091506001600160a01b03871690632e1a7d4d90602401602060405180830381600087803b158015613c4b57600080fd5b505af1158015613c5f573d6000803e3d6000fd5b505050506040513d601f19601f82011682018060405250810190613c8391906154ed565b50613c9060005482613b24565b60005550613d50565b613ca38982613b05565b881015613d50576000613cb689856155ac565b9050613cc28682613d5f565b80600080828254613cd391906155c3565b92505081905550856001600160a01b031663d0e30db06040518163ffffffff1660e01b8152600401602060405180830381600087803b158015613d1557600080fd5b505af1158015613d29573d6000803e3d6000fd5b505050506040513d601f19601f82011682018060405250810190613d4d91906154ed565b50505b50600198975050505050505050565b6040516001600160a01b0383169082156108fc029083906000818181858888f19350505050158015610f22573d6000803e3d6000fd5b6000613da08261461d565b6000828152603b6020526040902054612bcf8382613a98565b60045460ff16613dc557565b6000613dcf610b5c565b6001600160a01b031663b69ef8a86040518163ffffffff1660e01b815260040160206040518083038186803b158015613e0757600080fd5b505afa158015613e1b573d6000803e3d6000fd5b505050506040513d601f19601f82011682018060405250810190613e3f9190615564565b9050600060015482613e4e4790565b613e5891906155c3565b613e6291906155c3565b905080613e6d575050565b610f228183613b48565b6000828152603c6020908152604080832080546001600160a01b03198082166001600160a01b03888116918217909455603a86528487208054909216909155603e85528386208690558351929091168083529382015285917fc4a957706c639829ad54381b04930c464db6c7ffdc09d2b4b1acc9ee34fb92619101613af5565b600080613f02610b5c565b90506001600160a01b038116613f1a57600091505090565b806001600160a01b0316634641257d6040518163ffffffff1660e01b8152600401602060405180830381600087803b158015613f5557600080fd5b505af1158015613f69573d6000803e3d6000fd5b505050506040513d601f19601f82011682018060405250810190613f8d9190615564565b50600080826001600160a01b031663b69ef8a86040518163ffffffff1660e01b815260040160206040518083038186803b158015613fca57600080fd5b505afa158015613fde573d6000803e3d6000fd5b505050506040513d601f19601f820116820180604052508101906140029190615564565b600054600354919250908183111561409357600061402083856155ac565b9050818111156140535781156140415761403a82826155ac565b9050600091505b61404a81614904565b95509050614060565b61405d81836155ac565b91505b60405160009082907f6c8433a8e155f0af04dba058d4e4695f7da554578963d876bdf4a6d8d6399d9c908390a350614124565b818310156141185760006140a784846155ac565b90506140b381836155c3565b915060006140bf612518565b905060006140cd8583613b05565b9050808411156140e3576140e0846149c8565b93505b60405183906000907f6c8433a8e155f0af04dba058d4e4695f7da554578963d876bdf4a6d8d6399d9c908290a3505050614124565b60019550505050505090565b80600381905550846001600160a01b031663b69ef8a86040518163ffffffff1660e01b815260040160206040518083038186803b15801561416457600080fd5b505afa158015614178573d6000803e3d6000fd5b505050506040513d601f19601f8201168201806040525081019061419c9190615564565b60005583156141185761411884614bdc565b60408051808201909152600e81526d1a5b9d985b1a5908185b5bdd5b9d60921b6020820152670de0b6b3a76400008411156141fc5760405162461bcd60e51b8152600401610c72919061550f565b5060408051808201909152600e81526d1a5b9d985b1a5908185b5bdd5b9d60921b6020820152670de0b6b3a764000083111561424b5760405162461bcd60e51b8152600401610c72919061550f565b5060408051808201909152600e81526d1a5b9d985b1a5908185b5bdd5b9d60921b60208201526706f05b59d3b2000082111561429a5760405162461bcd60e51b8152600401610c72919061550f565b50600280546001600160a01b0319166001600160a01b0386161790556142cc681119589d131a5b5a5d60ba1b84613a98565b506142ea6f2a30b933b2ba20b63637b1b0ba34b7b760811b83613a98565b506142fd64109bdd5b9960da1b82613a98565b5061431c695265736572766546656560b01b662386f26fc10000613a98565b5061433f6c5374726174656769737446656560981b67016345785d8a0000613a98565b506120f46d506572666f726d616e636546656560901b6000613a98565b600080614367610b5c565b90506001600160a01b03811661437f57600091505090565b6004805460ff191660011790556040516001600160a01b038216907f652f053fc39779b70b29678135ade972fcb79966fc68fcb77c996b1aa4fd9afb90600090a26143c8613db9565b600191505090565b6000613a31836001600160a01b038416614c23565b6000806143f0610b5c565b90506001600160a01b03811661440857600091505090565b614410613ef7565b506000479050816001600160a01b031663853828b66040518163ffffffff1660e01b8152600401602060405180830381600087803b15801561445157600080fd5b505af1158015614465573d6000803e3d6000fd5b505050506040513d601f19601f820116820180604052508101906144899190615564565b5047600061449783836155ac565b90506144a560005482613b24565b6000556144b0613a38565b50600194505050505090565b606060006144c983614c93565b905060008167ffffffffffffffff8111156144e6576144e6615639565b60405190808252806020026020018201604052801561450f578160200160208202803683370190505b50905060005b82811015614563576145278582614c9e565b8282815181106145395761453961564f565b6001600160a01b03909216602092830291909101909101528061455b81615665565b915050614515565b509392505050565b6000818152603e6020908152604080832054815180830190925260128252710646561646c696e65206d75737420626520360741b92820192909252906145c45760405162461bcd60e51b8152600401610c72919061550f565b506000828152603e60209081526040808320839055603a90915280822080546001600160a01b03191690555183917f90fb84ad67dd037c388289337bb80b61b8605d38ba9a875dc38b5600909d172f91a2506001919050565b6000603e6000838152602001908152602001600020549050804210156040518060600160405280602181526020016156e360219139906146705760405162461bcd60e51b8152600401610c72919061550f565b5060408051808201909152600d81526c0646561646c696e65206973203609c1b6020820152816146b35760405162461bcd60e51b8152600401610c72919061550f565b50506000908152603e6020526040812055565b60006146dc846001600160a01b03851684614cb4565b949350505050565b60006146f08483614cd1565b6000848152603a60205260409081902080546001600160a01b0319166001600160a01b0386161790555184907fd46e58ee9dc1ae703349f8c09c19f23213a531b4d57f00cfd4a5a6cb6519668d9061474b908690869061557d565b60405180910390a25060019392505050565b600354600061476b826149c8565b9050808214613a1d5760035550565b6000808080614792866001600160a01b038716614dab565b909450925050505b9250929050565b6000806147af6136596124da565b905060006147c56147be6137c9565b8590613b05565b90506000816147d484876155ac565b6147de91906155ac565b90506147e982614de5565b80156147f8576147f881614e88565b50909392505050565b6001600160a01b038116614813575050565b6002546040516317a790f160e11b81526001600160a01b0390911690632f4f21e2908490614847908590839060040161557d565b6020604051808303818588803b15801561486057600080fd5b505af1158015614874573d6000803e3d6000fd5b50505050506040513d601f19601f82011682018060405250810190610f229190615564565b6000613a31836001600160a01b038416614ef2565b60006148ba8483614cd1565b6000848152603b6020908152604091829020859055815185815290810184905285917f0e6790002e78fb96ff1fdfe3a3bb2a86489d3f3923372c1fe5b6b1fed071eed4910161474b565b60008060006149146147be6113ed565b9050804710156149a757614926610b5c565b6001600160a01b0316632e1a7d4d826040518263ffffffff1660e01b815260040161495391815260200190565b602060405180830381600087803b15801561496d57600080fd5b505af1158015614981573d6000803e3d6000fd5b505050506040513d601f19601f820116820180604052508101906149a591906154ed565b505b60006149b2826147a1565b90506149be82866155ac565b9590945092505050565b6000806001600160a01b037f00000000000000000000000000000000000000000000000000000000000000001663d4fac45d30836040516001600160e01b031960e085901b1681526001600160a01b0392831660048201529116602482015260440160206040518083038186803b158015614a4257600080fd5b505afa158015614a56573d6000803e3d6000fd5b505050506040513d601f19601f82011682018060405250810190614a7a9190615564565b905080831115614a9257614a8d81614f0f565b611520565b60405163019262d360e41b81523060048201527f00000000000000000000000000000000000000000000000000000000000000006001600160a01b0316906319262d309060240160206040518083038186803b158015614af157600080fd5b505afa158015614b05573d6000803e3d6000fd5b505050506040513d601f19601f82011682018060405250810190614b2991906154ed565b156115205760405163f3fef3a360e01b81527f00000000000000000000000000000000000000000000000000000000000000006001600160a01b03169063f3fef3a390614b7d90600090879060040161557d565b602060405180830381600087803b158015614b9757600080fd5b505af1158015614bab573d6000803e3d6000fd5b505050506040513d601f19601f82011682018060405250810190614bcf91906154ed565b5060009250611520613db9565b614c2081614be8610b5c565b6001600160a01b0316631fe4a6866040518163ffffffff1660e01b815260040160206040518083038186803b1580156136aa57600080fd5b50565b600081815260028301602052604081205480151580614c475750614c47848461519f565b613a315760405162461bcd60e51b815260206004820152601e60248201527f456e756d657261626c654d61703a206e6f6e6578697374656e74206b657900006044820152606401610c72565b600061111c826151ab565b600080614cab84846151b6565b50949350505050565b600082815260028401602052604081208290556146dc84846151c5565b603e600083815260200190815260200160002054600014604051806040016040528060128152602001710646561646c696e65206d75737420626520360741b81525090614d315760405162461bcd60e51b8152600401610c72919061550f565b5060408051808201909152601881527f64656c6179206265206174206c6561737420332064617973000000000000000060208201526203f480821015614d8a5760405162461bcd60e51b8152600401610c72919061550f565b50614d9581426155c3565b6000928352603e60205260409092209190915550565b6000818152600283016020526040812054819080614dda57614dcd858561519f565b92506000915061479a9050565b60019250905061479a565b6040516311f9fbc960e21b81526001600160a01b037f000000000000000000000000000000000000000000000000000000000000000016906347e7ef24908390614e3690600090839060040161557d565b6020604051808303818588803b158015614e4f57600080fd5b505af1158015614e63573d6000803e3d6000fd5b50505050506040513d601f19601f82011682018060405250810190613a1d91906154ed565b614eba7f00000000000000000000000000000000000000000000000000000000000000006001600160a01b03166151d1565b6001600160a01b03166108fc829081150290604051600060405180830381858888f19350505050158015613a1d573d6000803e3d6000fd5b60008181526002830160205260408120819055613a31838361520b565b6000614f19610b5c565b6001600160a01b031663853828b66040518163ffffffff1660e01b8152600401602060405180830381600087803b158015614f5357600080fd5b505af1158015614f67573d6000803e3d6000fd5b505050506040513d601f19601f82011682018060405250810190614f8b9190615564565b90506000614f9b60005483613b24565b60405163019262d360e41b81523060048201529091507f00000000000000000000000000000000000000000000000000000000000000006001600160a01b0316906319262d309060240160206040518083038186803b158015614ffd57600080fd5b505afa158015615011573d6000803e3d6000fd5b505050506040513d601f19601f8201168201806040525081019061503591906154ed565b15615191578083106150e85760405163f3fef3a360e01b81527f00000000000000000000000000000000000000000000000000000000000000006001600160a01b03169063f3fef3a39061509090600090859060040161557d565b602060405180830381600087803b1580156150aa57600080fd5b505af11580156150be573d6000803e3d6000fd5b505050506040513d601f19601f820116820180604052508101906150e291906154ed565b50615191565b82156151915760405163f3fef3a360e01b81527f00000000000000000000000000000000000000000000000000000000000000006001600160a01b03169063f3fef3a39061513d90600090879060040161557d565b602060405180830381600087803b15801561515757600080fd5b505af115801561516b573d6000803e3d6000fd5b505050506040513d601f19601f8201168201806040525081019061518f91906154ed565b505b615199613a38565b50505050565b6000613a318383615217565b600061111c8261522f565b60008080806147928686615239565b6000613a318383615264565b6040516321f8a72160e01b815267747265617375727960c01b60048201526000906001600160a01b038316906321f8a7219060240161383d565b6000613a3183836152b3565b60008181526001830160205260408120541515613a31565b600061111c825490565b6000808061524785856153a6565b600081815260029690960160205260409095205494959350505050565b60008181526001830160205260408120546152ab5750815460018181018455600084815260208082209093018490558454848252828601909352604090209190915561111c565b50600061111c565b6000818152600183016020526040812054801561539c5760006152d76001836155ac565b85549091506000906152eb906001906155ac565b905081811461535057600086600001828154811061530b5761530b61564f565b906000526020600020015490508087600001848154811061532e5761532e61564f565b6000918252602080832090910192909255918252600188019052604090208390555b855486908061536157615361615680565b60019003818190600052602060002001600090559055856001016000868152602001908152602001600020600090556001935050505061111c565b600091505061111c565b6000613a31838360008260000182815481106153c4576153c461564f565b9060005260206000200154905092915050565b6000602082840312156153e957600080fd5b5035919050565b6001600160a01b0381168114614c2057600080fd5b6000806040838503121561541857600080fd5b8235615423816153f0565b946020939093013593505050565b60006020828403121561544357600080fd5b8135613a31816153f0565b6000806000806080858703121561546457600080fd5b843561546f816153f0565b966020860135965060408601359560600135945092505050565b6020808252825182820181905260009190848201906040850190845b818110156154ca5783516001600160a01b0316835292840192918401916001016154a5565b50909695505050505050565b9182526001600160a01b0316602082015260400190565b6000602082840312156154ff57600080fd5b81518015158114613a3157600080fd5b600060208083528351808285015260005b8181101561553c57858101830151858201604001528201615520565b8181111561554e576000604083870101525b50601f01601f1916929092016040019392505050565b60006020828403121561557657600080fd5b5051919050565b6001600160a01b03929092168252602082015260400190565b634e487b7160e01b600052601160045260246000fd5b6000828210156155be576155be615596565b500390565b600082198211156155d6576155d6615596565b500190565b6000602082840312156155ed57600080fd5b8151613a31816153f0565b600081600019048311821515161561561257615612615596565b500290565b60008261563457634e487b7160e01b600052601260045260246000fd5b500490565b634e487b7160e01b600052604160045260246000fd5b634e487b7160e01b600052603260045260246000fd5b600060001982141561567957615679615596565b5060010190565b634e487b7160e01b600052603160045260246000fdfe506f6f6c206d7573742062652070617573656420746f2077697468647261772066726f6d2072657365727665756e617574686f72697a65642061636365737300000000000000000000000000646561646c696e6520686173206e6f74206265656e207265616368656420796574a2646970667358221220bbe84ddc854d06493c39b903bf0bedb72ec700674d630cb509718e2f1ffb68b264736f6c63430008090033",
  "linkReferences": {},
  "deployedLinkReferences": {}
}