{
  "_format": "hh-sol-artifact-1",
  "contractName": "Rebalance",
  "sourceName": "contracts/Rebalance.sol",
  "abi": [
    {
      "inputs": [],
      "name": "byvWbtcPeak",
      "outputs": [
        {
          "internalType": "contract IByvWbtcPeak",
          "name": "",
          "type": "address"
        }
      ],
      "stateMutability": "view",
      "type": "function"
    },
    {
      "inputs": [
        {
          "internalType": "uint256",
          "name": "poolId",
          "type": "uint256"
        },
        {
          "internalType": "uint256",
          "name": "amount",
          "type": "uint256"
        }
      ],
      "name": "cycleWithSett",
      "outputs": [],
      "stateMutability": "nonpayable",
      "type": "function"
    },
    {
      "inputs": [
        {
          "internalType": "uint256",
          "name": "poolId",
          "type": "uint256"
        },
        {
          "internalType": "uint256",
          "name": "idx",
          "type": "uint256"
        },
        {
          "internalType": "uint256",
          "name": "amount",
          "type": "uint256"
        }
      ],
      "name": "cycleWithWbtc",
      "outputs": [],
      "stateMutability": "nonpayable",
      "type": "function"
    },
    {
      "inputs": [],
      "name": "ibbtc",
      "outputs": [
        {
          "internalType": "contract IERC20",
          "name": "",
          "type": "address"
        }
      ],
      "stateMutability": "view",
      "type": "function"
    },
    {
      "inputs": [],
      "name": "settPeak",
      "outputs": [
        {
          "internalType": "contract IBadgerSettPeak",
          "name": "",
          "type": "address"
        }
      ],
      "stateMutability": "view",
      "type": "function"
    },
    {
      "inputs": [],
      "name": "wbtc",
      "outputs": [
        {
          "internalType": "contract IERC20",
          "name": "",
          "type": "address"
        }
      ],
      "stateMutability": "view",
      "type": "function"
    },
    {
      "inputs": [],
      "name": "zap",
      "outputs": [
        {
          "internalType": "contract IZap",
          "name": "",
          "type": "address"
        }
      ],
      "stateMutability": "view",
      "type": "function"
    }
  ],
  "bytecode": "0x608060405234801561001057600080fd5b506117e5806100206000396000f3fe608060405234801561001057600080fd5b506004361061007d5760003560e01c80633cdc53891161005b5780633cdc5389146100dc5780635f560a3d146100fa5780637b258849146101165780638e2691dd146101325761007d565b8063238101ec14610082578063262d6152146100a057806331f458d1146100be575b600080fd5b61008a610150565b6040516100979190611313565b60405180910390f35b6100a8610168565b6040516100b591906113ef565b60405180910390f35b6100c6610180565b6040516100d391906112f8565b60405180910390f35b6100e4610198565b6040516100f1919061132e565b60405180910390f35b610114600480360381019061010f9190610eca565b6101b0565b005b610130600480360381019061012b9190610f06565b6104fc565b005b61013a6106c3565b604051610147919061132e565b60405180910390f35b73825218bed8be0b30be39475755acee0250c5062781565b734459a591c61cabd905eab8486bf628432b15c8b181565b7341671ba1abcba387b9b2b752c205e22e916be6e381565b732260fac5e5542a773aa44fbcfedf7c193bc2c59981565b6101b8610d0e565b734459a591c61cabd905eab8486bf628432b15c8b173ffffffffffffffffffffffffffffffffffffffff1663ac4afa38846040518263ffffffff1660e01b815260040161020591906114ac565b606060405180830381600087803b15801561021f57600080fd5b505af1158015610233573d6000803e3d6000fd5b505050506040513d601f19601f820116820180604052508101906102579190610e78565b905061028a333084846000015173ffffffffffffffffffffffffffffffffffffffff166106db909392919063ffffffff16565b6102bd816040015183836000015173ffffffffffffffffffffffffffffffffffffffff166107649092919063ffffffff16565b806040015173ffffffffffffffffffffffffffffffffffffffff1663b6b55f25836040518263ffffffff1660e01b81526004016102fa91906114ac565b600060405180830381600087803b15801561031457600080fd5b505af1158015610328573d6000803e3d6000fd5b50505050806040015173ffffffffffffffffffffffffffffffffffffffff166370a08231306040518263ffffffff1660e01b81526004016103699190611254565b60206040518083038186803b15801561038157600080fd5b505afa158015610395573d6000803e3d6000fd5b505050506040513d601f19601f820116820180604052508101906103b99190610ea1565b91506103fe7341671ba1abcba387b9b2b752c205e22e916be6e383836040015173ffffffffffffffffffffffffffffffffffffffff166107649092919063ffffffff16565b60007341671ba1abcba387b9b2b752c205e22e916be6e373ffffffffffffffffffffffffffffffffffffffff1663e6d37b888585600067ffffffffffffffff8111801561044a57600080fd5b506040519080825280602002602001820160405280156104795781602001602082028036833780820191505090505b506040518463ffffffff1660e01b8152600401610498939291906114c7565b602060405180830381600087803b1580156104b257600080fd5b505af11580156104c6573d6000803e3d6000fd5b505050506040513d601f19601f820116820180604052508101906104ea9190610ea1565b90506104f681336108c2565b50505050565b61053d333083732260fac5e5542a773aa44fbcfedf7c193bc2c59973ffffffffffffffffffffffffffffffffffffffff166106db909392919063ffffffff16565b732260fac5e5542a773aa44fbcfedf7c193bc2c59973ffffffffffffffffffffffffffffffffffffffff1663095ea7b3734459a591c61cabd905eab8486bf628432b15c8b1836040518363ffffffff1660e01b81526004016105a09291906112cf565b602060405180830381600087803b1580156105ba57600080fd5b505af11580156105ce573d6000803e3d6000fd5b505050506040513d601f19601f820116820180604052508101906105f29190610e4f565b506000734459a591c61cabd905eab8486bf628432b15c8b173ffffffffffffffffffffffffffffffffffffffff1663f92883a2732260fac5e5542a773aa44fbcfedf7c193bc2c59984878760006040518663ffffffff1660e01b815260040161065f95949392919061139c565b602060405180830381600087803b15801561067957600080fd5b505af115801561068d573d6000803e3d6000fd5b505050506040513d601f19601f820116820180604052508101906106b19190610ea1565b90506106bd81336108c2565b50505050565b73c4e15973e6ff2a35cc804c2cf9d2a1b817a8b40f81565b61075e846323b872dd60e01b8585856040516024016106fc93929190611298565b604051602081830303815290604052907bffffffffffffffffffffffffffffffffffffffffffffffffffffffff19166020820180517bffffffffffffffffffffffffffffffffffffffffffffffffffffffff8381831617835250505050610a1a565b50505050565b60008114806107fd575060008373ffffffffffffffffffffffffffffffffffffffff1663dd62ed3e30856040518363ffffffff1660e01b81526004016107ab92919061126f565b60206040518083038186803b1580156107c357600080fd5b505afa1580156107d7573d6000803e3d6000fd5b505050506040513d601f19601f820116820180604052508101906107fb9190610ea1565b145b61083c576040517f08c379a00000000000000000000000000000000000000000000000000000000081526004016108339061148c565b60405180910390fd5b6108bd8363095ea7b360e01b848460405160240161085b9291906112cf565b604051602081830303815290604052907bffffffffffffffffffffffffffffffffffffffffffffffffffffffff19166020820180517bffffffffffffffffffffffffffffffffffffffffffffffffffffffff8381831617835250505050610a1a565b505050565b610915734459a591c61cabd905eab8486bf628432b15c8b18373c4e15973e6ff2a35cc804c2cf9d2a1b817a8b40f73ffffffffffffffffffffffffffffffffffffffff166107649092919063ffffffff16565b6000734459a591c61cabd905eab8486bf628432b15c8b173ffffffffffffffffffffffffffffffffffffffff166370e67f7f732260fac5e5542a773aa44fbcfedf7c193bc2c5998560036000806040518663ffffffff1660e01b8152600401610982959493929190611349565b602060405180830381600087803b15801561099c57600080fd5b505af11580156109b0573d6000803e3d6000fd5b505050506040513d601f19601f820116820180604052508101906109d49190610ea1565b9050610a158282732260fac5e5542a773aa44fbcfedf7c193bc2c59973ffffffffffffffffffffffffffffffffffffffff16610ae19092919063ffffffff16565b505050565b6060610a7c826040518060400160405280602081526020017f5361666545524332303a206c6f772d6c6576656c2063616c6c206661696c65648152508573ffffffffffffffffffffffffffffffffffffffff16610b679092919063ffffffff16565b9050600081511115610adc5780806020019051810190610a9c9190610e4f565b610adb576040517f08c379a0000000000000000000000000000000000000000000000000000000008152600401610ad29061146c565b60405180910390fd5b5b505050565b610b628363a9059cbb60e01b8484604051602401610b009291906112cf565b604051602081830303815290604052907bffffffffffffffffffffffffffffffffffffffffffffffffffffffff19166020820180517bffffffffffffffffffffffffffffffffffffffffffffffffffffffff8381831617835250505050610a1a565b505050565b6060610b768484600085610b7f565b90509392505050565b606082471015610bc4576040517f08c379a0000000000000000000000000000000000000000000000000000000008152600401610bbb9061142c565b60405180910390fd5b610bcd85610c94565b610c0c576040517f08c379a0000000000000000000000000000000000000000000000000000000008152600401610c039061144c565b60405180910390fd5b600060608673ffffffffffffffffffffffffffffffffffffffff168587604051610c36919061123d565b60006040518083038185875af1925050503d8060008114610c73576040519150601f19603f3d011682016040523d82523d6000602084013e610c78565b606091505b5091509150610c88828286610ca7565b92505050949350505050565b600080823b905060008111915050919050565b60608315610cb757829050610d07565b600083511115610cca5782518084602001fd5b816040517f08c379a0000000000000000000000000000000000000000000000000000000008152600401610cfe919061140a565b60405180910390fd5b9392505050565b6040518060600160405280600073ffffffffffffffffffffffffffffffffffffffff168152602001600073ffffffffffffffffffffffffffffffffffffffff168152602001600073ffffffffffffffffffffffffffffffffffffffff1681525090565b600081519050610d808161173c565b92915050565b600081519050610d9581611753565b92915050565b600081519050610daa8161176a565b92915050565b600081519050610dbf81611781565b92915050565b600060608284031215610dd757600080fd5b610de16060611505565b90506000610df184828501610d9b565b6000830152506020610e0584828501610d86565b6020830152506040610e1984828501610db0565b60408301525092915050565b600081359050610e3481611798565b92915050565b600081519050610e4981611798565b92915050565b600060208284031215610e6157600080fd5b6000610e6f84828501610d71565b91505092915050565b600060608284031215610e8a57600080fd5b6000610e9884828501610dc5565b91505092915050565b600060208284031215610eb357600080fd5b6000610ec184828501610e3a565b91505092915050565b60008060408385031215610edd57600080fd5b6000610eeb85828601610e25565b9250506020610efc85828601610e25565b9150509250929050565b600080600060608486031215610f1b57600080fd5b6000610f2986828701610e25565b9350506020610f3a86828701610e25565b9250506040610f4b86828701610e25565b9150509250925092565b6000610f618383610fda565b60208301905092915050565b610f768161159d565b82525050565b6000610f8782611542565b610f918185611570565b9350610f9c83611532565b8060005b83811015610fcd578151610fb48882610f55565b9750610fbf83611563565b925050600181019050610fa0565b5085935050505092915050565b610fe3816115bb565b82525050565b6000610ff48261154d565b610ffe8185611581565b935061100e8185602086016116f8565b80840191505092915050565b61102381611632565b82525050565b61103281611656565b82525050565b6110418161167a565b82525050565b6110508161169e565b82525050565b61105f816116c2565b82525050565b61106e816116d4565b82525050565b61107d816116e6565b82525050565b600061108e82611558565b611098818561158c565b93506110a88185602086016116f8565b6110b18161172b565b840191505092915050565b60006110c960268361158c565b91507f416464726573733a20696e73756666696369656e742062616c616e636520666f60008301527f722063616c6c00000000000000000000000000000000000000000000000000006020830152604082019050919050565b600061112f601d8361158c565b91507f416464726573733a2063616c6c20746f206e6f6e2d636f6e74726163740000006000830152602082019050919050565b600061116f602a8361158c565b91507f5361666545524332303a204552433230206f7065726174696f6e20646964206e60008301527f6f742073756363656564000000000000000000000000000000000000000000006020830152604082019050919050565b60006111d560368361158c565b91507f5361666545524332303a20617070726f76652066726f6d206e6f6e2d7a65726f60008301527f20746f206e6f6e2d7a65726f20616c6c6f77616e6365000000000000000000006020830152604082019050919050565b61123781611628565b82525050565b60006112498284610fe9565b915081905092915050565b60006020820190506112696000830184610f6d565b92915050565b60006040820190506112846000830185610f6d565b6112916020830184610f6d565b9392505050565b60006060820190506112ad6000830186610f6d565b6112ba6020830185610f6d565b6112c7604083018461122e565b949350505050565b60006040820190506112e46000830185610f6d565b6112f1602083018461122e565b9392505050565b600060208201905061130d600083018461101a565b92915050565b60006020820190506113286000830184611029565b92915050565b60006020820190506113436000830184611038565b92915050565b600060a08201905061135e6000830188611038565b61136b602083018761122e565b6113786040830186611074565b6113856060830185611056565b6113926080830184611065565b9695505050505050565b600060a0820190506113b16000830188611038565b6113be602083018761122e565b6113cb604083018661122e565b6113d8606083018561122e565b6113e56080830184611065565b9695505050505050565b60006020820190506114046000830184611047565b92915050565b600060208201905081810360008301526114248184611083565b905092915050565b60006020820190508181036000830152611445816110bc565b9050919050565b6000602082019050818103600083015261146581611122565b9050919050565b6000602082019050818103600083015261148581611162565b9050919050565b600060208201905081810360008301526114a5816111c8565b9050919050565b60006020820190506114c1600083018461122e565b92915050565b60006060820190506114dc600083018661122e565b6114e9602083018561122e565b81810360408301526114fb8184610f7c565b9050949350505050565b6000604051905081810181811067ffffffffffffffff8211171561152857600080fd5b8060405250919050565b6000819050602082019050919050565b600081519050919050565b600081519050919050565b600081519050919050565b6000602082019050919050565b600082825260208201905092915050565b600081905092915050565b600082825260208201905092915050565b60006115a882611608565b9050919050565b60008115159050919050565b6000819050919050565b60006115d08261159d565b9050919050565b60006115e28261159d565b9050919050565b60006115f48261159d565b9050919050565b600081600f0b9050919050565b600073ffffffffffffffffffffffffffffffffffffffff82169050919050565b6000819050919050565b600061163d82611644565b9050919050565b600061164f82611608565b9050919050565b600061166182611668565b9050919050565b600061167382611608565b9050919050565b60006116858261168c565b9050919050565b600061169782611608565b9050919050565b60006116a9826116b0565b9050919050565b60006116bb82611608565b9050919050565b60006116cd826115fb565b9050919050565b60006116df82611628565b9050919050565b60006116f182611628565b9050919050565b60005b838110156117165780820151818401526020810190506116fb565b83811115611725576000848401525b50505050565b6000601f19601f8301169050919050565b611745816115af565b811461175057600080fd5b50565b61175c816115c5565b811461176757600080fd5b50565b611773816115d7565b811461177e57600080fd5b50565b61178a816115e9565b811461179557600080fd5b50565b6117a181611628565b81146117ac57600080fd5b5056fea26469706673582212208444767e395099b70cc810f5fa82cb3425f2ac49bf6066227a16fba6c55d221664736f6c634300060b0033",
  "linkReferences": {},
  "deployedLinkReferences": {}
}