{
  "_format": "hh-sol-artifact-1",
  "contractName": "MockStableSwap",
  "sourceName": "contracts/testing/MockStableSwap.sol",
  "abi": [
    {
      "inputs": [
        {
          "internalType": "address[3]",
          "name": "_coins",
          "type": "address[3]"
        },
        {
          "internalType": "address",
          "name": "lpToken_",
          "type": "address"
        }
      ],
      "stateMutability": "nonpayable",
      "type": "constructor"
    },
    {
      "inputs": [
        {
          "internalType": "uint256[2]",
          "name": "amounts",
          "type": "uint256[2]"
        },
        {
          "internalType": "uint256",
          "name": "",
          "type": "uint256"
        }
      ],
      "name": "add_liquidity",
      "outputs": [],
      "stateMutability": "nonpayable",
      "type": "function"
    },
    {
      "inputs": [
        {
          "internalType": "uint256[3]",
          "name": "amounts",
          "type": "uint256[3]"
        },
        {
          "internalType": "uint256",
          "name": "",
          "type": "uint256"
        }
      ],
      "name": "add_liquidity",
      "outputs": [],
      "stateMutability": "nonpayable",
      "type": "function"
    },
    {
      "inputs": [
        {
          "internalType": "uint256[3]",
          "name": "amounts",
          "type": "uint256[3]"
        },
        {
          "internalType": "bool",
          "name": "deposit",
          "type": "bool"
        }
      ],
      "name": "calc_token_amount",
      "outputs": [
        {
          "internalType": "uint256",
          "name": "",
          "type": "uint256"
        }
      ],
      "stateMutability": "view",
      "type": "function"
    },
    {
      "inputs": [
        {
          "internalType": "uint256[4]",
          "name": "amounts",
          "type": "uint256[4]"
        },
        {
          "internalType": "bool",
          "name": "deposit",
          "type": "bool"
        }
      ],
      "name": "calc_token_amount",
      "outputs": [
        {
          "internalType": "uint256",
          "name": "",
          "type": "uint256"
        }
      ],
      "stateMutability": "pure",
      "type": "function"
    },
    {
      "inputs": [
        {
          "internalType": "uint256[2]",
          "name": "amounts",
          "type": "uint256[2]"
        },
        {
          "internalType": "bool",
          "name": "deposit",
          "type": "bool"
        }
      ],
      "name": "calc_token_amount",
      "outputs": [
        {
          "internalType": "uint256",
          "name": "",
          "type": "uint256"
        }
      ],
      "stateMutability": "pure",
      "type": "function"
    },
    {
      "inputs": [
        {
          "internalType": "uint256",
          "name": "tokenAmount",
          "type": "uint256"
        },
        {
          "internalType": "int128",
          "name": "",
          "type": "int128"
        }
      ],
      "name": "calc_withdraw_one_coin",
      "outputs": [
        {
          "internalType": "uint256",
          "name": "",
          "type": "uint256"
        }
      ],
      "stateMutability": "pure",
      "type": "function"
    },
    {
      "inputs": [
        {
          "internalType": "uint256",
          "name": "index",
          "type": "uint256"
        }
      ],
      "name": "coins",
      "outputs": [
        {
          "internalType": "address",
          "name": "",
          "type": "address"
        }
      ],
      "stateMutability": "view",
      "type": "function"
    },
    {
      "inputs": [
        {
          "internalType": "int128",
          "name": "from",
          "type": "int128"
        },
        {
          "internalType": "int128",
          "name": "to",
          "type": "int128"
        },
        {
          "internalType": "uint256",
          "name": "fromAmount",
          "type": "uint256"
        },
        {
          "internalType": "uint256",
          "name": "minToAmount",
          "type": "uint256"
        }
      ],
      "name": "exchange",
      "outputs": [],
      "stateMutability": "nonpayable",
      "type": "function"
    },
    {
      "inputs": [],
      "name": "get_balances",
      "outputs": [
        {
          "internalType": "uint256[3]",
          "name": "",
          "type": "uint256[3]"
        }
      ],
      "stateMutability": "view",
      "type": "function"
    },
    {
      "inputs": [
        {
          "internalType": "int128",
          "name": "",
          "type": "int128"
        },
        {
          "internalType": "int128",
          "name": "",
          "type": "int128"
        },
        {
          "internalType": "uint256",
          "name": "",
          "type": "uint256"
        }
      ],
      "name": "get_dy",
      "outputs": [
        {
          "internalType": "uint256",
          "name": "",
          "type": "uint256"
        }
      ],
      "stateMutability": "pure",
      "type": "function"
    },
    {
      "inputs": [],
      "name": "get_virtual_price",
      "outputs": [
        {
          "internalType": "uint256",
          "name": "",
          "type": "uint256"
        }
      ],
      "stateMutability": "view",
      "type": "function"
    },
    {
      "inputs": [
        {
          "internalType": "uint256",
          "name": "_amount",
          "type": "uint256"
        },
        {
          "internalType": "uint256[3]",
          "name": "minAmounts",
          "type": "uint256[3]"
        }
      ],
      "name": "remove_liquidity",
      "outputs": [],
      "stateMutability": "nonpayable",
      "type": "function"
    },
    {
      "inputs": [
        {
          "internalType": "uint256[3]",
          "name": "amounts",
          "type": "uint256[3]"
        },
        {
          "internalType": "uint256",
          "name": "maxBurnAmount",
          "type": "uint256"
        }
      ],
      "name": "remove_liquidity_imbalance",
      "outputs": [],
      "stateMutability": "nonpayable",
      "type": "function"
    },
    {
      "inputs": [
        {
          "internalType": "uint256[2]",
          "name": "amounts",
          "type": "uint256[2]"
        },
        {
          "internalType": "uint256",
          "name": "maxBurnAmount",
          "type": "uint256"
        }
      ],
      "name": "remove_liquidity_imbalance",
      "outputs": [],
      "stateMutability": "nonpayable",
      "type": "function"
    },
    {
      "inputs": [
        {
          "internalType": "uint256",
          "name": "tokenAmount",
          "type": "uint256"
        },
        {
          "internalType": "int128",
          "name": "i",
          "type": "int128"
        },
        {
          "internalType": "uint256",
          "name": "minAmount",
          "type": "uint256"
        }
      ],
      "name": "remove_liquidity_one_coin",
      "outputs": [],
      "stateMutability": "nonpayable",
      "type": "function"
    }
  ],
  "bytecode": "0x670de0b6b3a7640000600090815560e0604052608081815260a082905260c091909152620000329060019060036200009a565b503480156200004057600080fd5b5060405162000f1338038062000f13833981016040819052620000639162000177565b620000726004836003620000e2565b50600780546001600160a01b0319166001600160a01b03929092169190911790555062000216565b8260038101928215620000d0579160200282015b82811115620000d0578251829060ff16905591602001919060010190620000ae565b50620000de9291506200012d565b5090565b8260038101928215620000d0579160200282015b82811115620000d057825182546001600160a01b0319166001600160a01b03909116178255602090920191600190910190620000f6565b5b80821115620000de57600081556001016200012e565b634e487b7160e01b600052604160045260246000fd5b80516001600160a01b03811681146200017257600080fd5b919050565b600080608083850312156200018b57600080fd5b83601f8401126200019b57600080fd5b604051606081016001600160401b0381118282101715620001c057620001c062000144565b604052806060850186811115620001d657600080fd5b855b81811015620001fb57620001ec816200015a565b835260209283019201620001d8565b508294506200020a816200015a565b93505050509250929050565b610ced80620002266000396000f3fe608060405234801561001057600080fd5b50600436106100f55760003560e01c80639fdaea0c11610097578063cf701ff711610066578063cf701ff7146101fa578063e310327314610208578063ecb586a514610216578063ed8e84f31461022957600080fd5b80639fdaea0c146101a2578063bb7b8b80146101b4578063c6610657146101bc578063cc2b27d7146101e757600080fd5b80633883e119116100d35780633883e119146101405780633df02124146101645780634515cef3146101785780635e0d443f1461018b57600080fd5b80630b4c7e4d146100fa57806314f059791461010f5780631a4d01d21461012d575b600080fd5b61010d6101083660046109bb565b610237565b005b610117610407565b60405161012491906109e6565b60405180910390f35b61010d61013b366004610a2e565b610442565b61015661014e366004610a85565b600092915050565b604051908152602001610124565b61010d610172366004610abd565b50505050565b61010d610186366004610aff565b6105d7565b610156610199366004610b2a565b600a9392505050565b61010d6101b0366004610aff565b5050565b600054610156565b6101cf6101ca366004610b56565b610721565b6040516001600160a01b039091168152602001610124565b6101566101f5366004610b6f565b61078c565b61015661014e366004610b9b565b61010d6101b03660046109bb565b61010d610224366004610bcc565b610794565b61015661014e366004610bf0565b6000805b60028110156103815783816002811061025657610256610c1d565b60200201356001826003811061026e5761026e610c1d565b01600082825461027e9190610c49565b90915550849050816002811061029657610296610c1d565b6020020135826102a69190610c49565b9150600481600381106102bb576102bb610c1d565b01546001600160a01b03166323b872dd33308785600281106102df576102df610c1d565b6040516001600160e01b031960e087901b1681526001600160a01b03948516600482015293909216602484015260209190910201356044820152606401602060405180830381600087803b15801561033657600080fd5b505af115801561034a573d6000803e3d6000fd5b505050506040513d601f19601f8201168201806040525081019061036e9190610c61565b508061037981610c85565b91505061023b565b5060075460405163da1919b360e01b8152336004820152602481018390526001600160a01b039091169063da1919b3906044015b602060405180830381600087803b1580156103cf57600080fd5b505af11580156103e3573d6000803e3d6000fd5b505050506040513d601f19601f820116820180604052508101906101729190610c61565b61040f61098c565b6040805160608101918290529060019060039082845b815481526020019060010190808311610425575050505050905090565b80600161045184600f0b610936565b6003811061046157610461610c1d565b015410156104c85760405162461bcd60e51b815260206004820152602960248201527f496e73756666696369656e74206c697175696469747920696e206d6f636b20636044820152681d5c9d99481c1bdbdb60ba1b60648201526084015b60405180910390fd5b8060016104d784600f0b610936565b600381106104e7576104e7610c1d565b0160008282546104f79190610ca0565b92505081905550600461050c83600f0b610936565b6003811061051c5761051c610c1d565b015460405163a9059cbb60e01b8152336004820152602481018390526001600160a01b039091169063a9059cbb90604401602060405180830381600087803b15801561056757600080fd5b505af115801561057b573d6000803e3d6000fd5b505050506040513d601f19601f8201168201806040525081019061059f9190610c61565b5060075460405163079cc67960e41b8152336004820152602481018590526001600160a01b03909116906379cc6790906044016103b5565b6000805b6003811015610381578381600381106105f6576105f6610c1d565b60200201356001826003811061060e5761060e610c1d565b01600082825461061e9190610c49565b90915550849050816003811061063657610636610c1d565b6020020135826106469190610c49565b91506004816003811061065b5761065b610c1d565b01546001600160a01b03166323b872dd333087856003811061067f5761067f610c1d565b6040516001600160e01b031960e087901b1681526001600160a01b03948516600482015293909216602484015260209190910201356044820152606401602060405180830381600087803b1580156106d657600080fd5b505af11580156106ea573d6000803e3d6000fd5b505050506040513d601f19601f8201168201806040525081019061070e9190610c61565b508061071981610c85565b9150506105db565b6000600382106107685760405162461bcd60e51b8152602060048201526012602482015271092dcecc2d8d2c840c6ded2dc40d2dcc8caf60731b60448201526064016104bf565b6004826003811061077b5761077b610c1d565b01546001600160a01b031692915050565b815b92915050565b60005b60038110156108ac578181600381106107b2576107b2610c1d565b6020020135600182600381106107ca576107ca610c1d565b0160008282546107da9190610ca0565b909155506004905081600381106107f3576107f3610c1d565b01546001600160a01b031663a9059cbb3384846003811061081657610816610c1d565b6040516001600160e01b031960e086901b1681526001600160a01b03909316600484015260200201356024820152604401602060405180830381600087803b15801561086157600080fd5b505af1158015610875573d6000803e3d6000fd5b505050506040513d601f19601f820116820180604052508101906108999190610c61565b50806108a481610c85565b915050610797565b5060075460405163079cc67960e41b8152336004820152602481018490526001600160a01b03909116906379cc679090604401602060405180830381600087803b1580156108f957600080fd5b505af115801561090d573d6000803e3d6000fd5b505050506040513d601f19601f820116820180604052508101906109319190610c61565b505050565b6000808212156109885760405162461bcd60e51b815260206004820181905260248201527f53616665436173743a2076616c7565206d75737420626520706f73697469766560448201526064016104bf565b5090565b60405180606001604052806003906020820280368337509192915050565b806040810183101561078e57600080fd5b600080606083850312156109ce57600080fd5b6109d884846109aa565b946040939093013593505050565b60608101818360005b6003811015610a0e5781518352602092830192909101906001016109ef565b50505092915050565b8035600f81900b8114610a2957600080fd5b919050565b600080600060608486031215610a4357600080fd5b83359250610a5360208501610a17565b9150604084013590509250925092565b806060810183101561078e57600080fd5b8015158114610a8257600080fd5b50565b60008060808385031215610a9857600080fd5b610aa28484610a63565b91506060830135610ab281610a74565b809150509250929050565b60008060008060808587031215610ad357600080fd5b610adc85610a17565b9350610aea60208601610a17565b93969395505050506040820135916060013590565b60008060808385031215610b1257600080fd5b610b1c8484610a63565b946060939093013593505050565b600080600060608486031215610b3f57600080fd5b610b4884610a17565b9250610a5360208501610a17565b600060208284031215610b6857600080fd5b5035919050565b60008060408385031215610b8257600080fd5b82359150610b9260208401610a17565b90509250929050565b60008060a08385031215610bae57600080fd5b6080830184811115610bbf57600080fd5b83925035610ab281610a74565b60008060808385031215610bdf57600080fd5b82359150610b928460208501610a63565b60008060608385031215610c0357600080fd5b610c0d84846109aa565b91506040830135610ab281610a74565b634e487b7160e01b600052603260045260246000fd5b634e487b7160e01b600052601160045260246000fd5b60008219821115610c5c57610c5c610c33565b500190565b600060208284031215610c7357600080fd5b8151610c7e81610a74565b9392505050565b6000600019821415610c9957610c99610c33565b5060010190565b600082821015610cb257610cb2610c33565b50039056fea2646970667358221220396196f915704980fa4b55f24123f151949ea64e6f9bbf99417f21fa9910058964736f6c63430008090033",
  "linkReferences": {},
  "deployedLinkReferences": {}
}