{
  "_format": "hh-sol-artifact-1",
  "contractName": "DrawBeacon",
  "sourceName": "contracts/DrawBeacon.sol",
  "abi": [
    {
      "inputs": [
        {
          "internalType": "address",
          "name": "_owner",
          "type": "address"
        },
        {
          "internalType": "contract IDrawBuffer",
          "name": "_drawBuffer",
          "type": "address"
        },
        {
          "internalType": "contract RNGInterface",
          "name": "_rng",
          "type": "address"
        },
        {
          "internalType": "uint32",
          "name": "_nextDrawId",
          "type": "uint32"
        },
        {
          "internalType": "uint64",
          "name": "_beaconPeriodStart",
          "type": "uint64"
        },
        {
          "internalType": "uint32",
          "name": "_beaconPeriodSeconds",
          "type": "uint32"
        },
        {
          "internalType": "uint32",
          "name": "_rngTimeout",
          "type": "uint32"
        }
      ],
      "stateMutability": "nonpayable",
      "type": "constructor"
    },
    {
      "anonymous": false,
      "inputs": [
        {
          "indexed": false,
          "internalType": "uint32",
          "name": "drawPeriodSeconds",
          "type": "uint32"
        }
      ],
      "name": "BeaconPeriodSecondsUpdated",
      "type": "event"
    },
    {
      "anonymous": false,
      "inputs": [
        {
          "indexed": true,
          "internalType": "uint64",
          "name": "startedAt",
          "type": "uint64"
        }
      ],
      "name": "BeaconPeriodStarted",
      "type": "event"
    },
    {
      "anonymous": false,
      "inputs": [
        {
          "indexed": false,
          "internalType": "uint32",
          "name": "nextDrawId",
          "type": "uint32"
        },
        {
          "indexed": false,
          "internalType": "uint64",
          "name": "beaconPeriodStartedAt",
          "type": "uint64"
        }
      ],
      "name": "Deployed",
      "type": "event"
    },
    {
      "anonymous": false,
      "inputs": [
        {
          "indexed": true,
          "internalType": "contract IDrawBuffer",
          "name": "newDrawBuffer",
          "type": "address"
        }
      ],
      "name": "DrawBufferUpdated",
      "type": "event"
    },
    {
      "anonymous": false,
      "inputs": [
        {
          "indexed": true,
          "internalType": "uint32",
          "name": "rngRequestId",
          "type": "uint32"
        },
        {
          "indexed": false,
          "internalType": "uint32",
          "name": "rngLockBlock",
          "type": "uint32"
        }
      ],
      "name": "DrawCancelled",
      "type": "event"
    },
    {
      "anonymous": false,
      "inputs": [
        {
          "indexed": false,
          "internalType": "uint256",
          "name": "randomNumber",
          "type": "uint256"
        }
      ],
      "name": "DrawCompleted",
      "type": "event"
    },
    {
      "anonymous": false,
      "inputs": [
        {
          "indexed": true,
          "internalType": "uint32",
          "name": "rngRequestId",
          "type": "uint32"
        },
        {
          "indexed": false,
          "internalType": "uint32",
          "name": "rngLockBlock",
          "type": "uint32"
        }
      ],
      "name": "DrawStarted",
      "type": "event"
    },
    {
      "anonymous": false,
      "inputs": [
        {
          "indexed": true,
          "internalType": "address",
          "name": "pendingOwner",
          "type": "address"
        }
      ],
      "name": "OwnershipOffered",
      "type": "event"
    },
    {
      "anonymous": false,
      "inputs": [
        {
          "indexed": true,
          "internalType": "address",
          "name": "previousOwner",
          "type": "address"
        },
        {
          "indexed": true,
          "internalType": "address",
          "name": "newOwner",
          "type": "address"
        }
      ],
      "name": "OwnershipTransferred",
      "type": "event"
    },
    {
      "anonymous": false,
      "inputs": [
        {
          "indexed": true,
          "internalType": "contract RNGInterface",
          "name": "rngService",
          "type": "address"
        }
      ],
      "name": "RngServiceUpdated",
      "type": "event"
    },
    {
      "anonymous": false,
      "inputs": [
        {
          "indexed": false,
          "internalType": "uint32",
          "name": "rngTimeout",
          "type": "uint32"
        }
      ],
      "name": "RngTimeoutSet",
      "type": "event"
    },
    {
      "inputs": [],
      "name": "beaconPeriodEndAt",
      "outputs": [
        {
          "internalType": "uint64",
          "name": "",
          "type": "uint64"
        }
      ],
      "stateMutability": "view",
      "type": "function"
    },
    {
      "inputs": [],
      "name": "beaconPeriodRemainingSeconds",
      "outputs": [
        {
          "internalType": "uint64",
          "name": "",
          "type": "uint64"
        }
      ],
      "stateMutability": "view",
      "type": "function"
    },
    {
      "inputs": [
        {
          "internalType": "uint256",
          "name": "_time",
          "type": "uint256"
        }
      ],
      "name": "calculateNextBeaconPeriodStartTime",
      "outputs": [
        {
          "internalType": "uint64",
          "name": "",
          "type": "uint64"
        }
      ],
      "stateMutability": "view",
      "type": "function"
    },
    {
      "inputs": [],
      "name": "calculateNextBeaconPeriodStartTimeFromCurrentTime",
      "outputs": [
        {
          "internalType": "uint64",
          "name": "",
          "type": "uint64"
        }
      ],
      "stateMutability": "view",
      "type": "function"
    },
    {
      "inputs": [],
      "name": "canCompleteDraw",
      "outputs": [
        {
          "internalType": "bool",
          "name": "",
          "type": "bool"
        }
      ],
      "stateMutability": "view",
      "type": "function"
    },
    {
      "inputs": [],
      "name": "canStartDraw",
      "outputs": [
        {
          "internalType": "bool",
          "name": "",
          "type": "bool"
        }
      ],
      "stateMutability": "view",
      "type": "function"
    },
    {
      "inputs": [],
      "name": "cancelDraw",
      "outputs": [],
      "stateMutability": "nonpayable",
      "type": "function"
    },
    {
      "inputs": [],
      "name": "claimOwnership",
      "outputs": [],
      "stateMutability": "nonpayable",
      "type": "function"
    },
    {
      "inputs": [],
      "name": "completeDraw",
      "outputs": [],
      "stateMutability": "nonpayable",
      "type": "function"
    },
    {
      "inputs": [],
      "name": "getBeaconPeriodSeconds",
      "outputs": [
        {
          "internalType": "uint32",
          "name": "",
          "type": "uint32"
        }
      ],
      "stateMutability": "view",
      "type": "function"
    },
    {
      "inputs": [],
      "name": "getBeaconPeriodStartedAt",
      "outputs": [
        {
          "internalType": "uint64",
          "name": "",
          "type": "uint64"
        }
      ],
      "stateMutability": "view",
      "type": "function"
    },
    {
      "inputs": [],
      "name": "getDrawBuffer",
      "outputs": [
        {
          "internalType": "contract IDrawBuffer",
          "name": "",
          "type": "address"
        }
      ],
      "stateMutability": "view",
      "type": "function"
    },
    {
      "inputs": [],
      "name": "getLastRngLockBlock",
      "outputs": [
        {
          "internalType": "uint32",
          "name": "",
          "type": "uint32"
        }
      ],
      "stateMutability": "view",
      "type": "function"
    },
    {
      "inputs": [],
      "name": "getLastRngRequestId",
      "outputs": [
        {
          "internalType": "uint32",
          "name": "",
          "type": "uint32"
        }
      ],
      "stateMutability": "view",
      "type": "function"
    },
    {
      "inputs": [],
      "name": "getNextDrawId",
      "outputs": [
        {
          "internalType": "uint32",
          "name": "",
          "type": "uint32"
        }
      ],
      "stateMutability": "view",
      "type": "function"
    },
    {
      "inputs": [],
      "name": "getRngService",
      "outputs": [
        {
          "internalType": "contract RNGInterface",
          "name": "",
          "type": "address"
        }
      ],
      "stateMutability": "view",
      "type": "function"
    },
    {
      "inputs": [],
      "name": "getRngTimeout",
      "outputs": [
        {
          "internalType": "uint32",
          "name": "",
          "type": "uint32"
        }
      ],
      "stateMutability": "view",
      "type": "function"
    },
    {
      "inputs": [],
      "name": "isBeaconPeriodOver",
      "outputs": [
        {
          "internalType": "bool",
          "name": "",
          "type": "bool"
        }
      ],
      "stateMutability": "view",
      "type": "function"
    },
    {
      "inputs": [],
      "name": "isRngCompleted",
      "outputs": [
        {
          "internalType": "bool",
          "name": "",
          "type": "bool"
        }
      ],
      "stateMutability": "view",
      "type": "function"
    },
    {
      "inputs": [],
      "name": "isRngRequested",
      "outputs": [
        {
          "internalType": "bool",
          "name": "",
          "type": "bool"
        }
      ],
      "stateMutability": "view",
      "type": "function"
    },
    {
      "inputs": [],
      "name": "isRngTimedOut",
      "outputs": [
        {
          "internalType": "bool",
          "name": "",
          "type": "bool"
        }
      ],
      "stateMutability": "view",
      "type": "function"
    },
    {
      "inputs": [],
      "name": "owner",
      "outputs": [
        {
          "internalType": "address",
          "name": "",
          "type": "address"
        }
      ],
      "stateMutability": "view",
      "type": "function"
    },
    {
      "inputs": [],
      "name": "pendingOwner",
      "outputs": [
        {
          "internalType": "address",
          "name": "",
          "type": "address"
        }
      ],
      "stateMutability": "view",
      "type": "function"
    },
    {
      "inputs": [],
      "name": "renounceOwnership",
      "outputs": [],
      "stateMutability": "nonpayable",
      "type": "function"
    },
    {
      "inputs": [
        {
          "internalType": "uint32",
          "name": "_beaconPeriodSeconds",
          "type": "uint32"
        }
      ],
      "name": "setBeaconPeriodSeconds",
      "outputs": [],
      "stateMutability": "nonpayable",
      "type": "function"
    },
    {
      "inputs": [
        {
          "internalType": "contract IDrawBuffer",
          "name": "newDrawBuffer",
          "type": "address"
        }
      ],
      "name": "setDrawBuffer",
      "outputs": [
        {
          "internalType": "contract IDrawBuffer",
          "name": "",
          "type": "address"
        }
      ],
      "stateMutability": "nonpayable",
      "type": "function"
    },
    {
      "inputs": [
        {
          "internalType": "contract RNGInterface",
          "name": "_rngService",
          "type": "address"
        }
      ],
      "name": "setRngService",
      "outputs": [],
      "stateMutability": "nonpayable",
      "type": "function"
    },
    {
      "inputs": [
        {
          "internalType": "uint32",
          "name": "_rngTimeout",
          "type": "uint32"
        }
      ],
      "name": "setRngTimeout",
      "outputs": [],
      "stateMutability": "nonpayable",
      "type": "function"
    },
    {
      "inputs": [],
      "name": "startDraw",
      "outputs": [],
      "stateMutability": "nonpayable",
      "type": "function"
    },
    {
      "inputs": [
        {
          "internalType": "address",
          "name": "_newOwner",
          "type": "address"
        }
      ],
      "name": "transferOwnership",
      "outputs": [],
      "stateMutability": "nonpayable",
      "type": "function"
    }
  ],
  "bytecode": "0x60806040523480156200001157600080fd5b50604051620024683803806200246883398101604081905262000034916200058e565b86620000408162000238565b506000836001600160401b031611620000a25760405162461bcd60e51b815260206004820152602a6024820152600080516020620024488339815191526044820152692d7468616e2d7a65726f60b01b60648201526084015b60405180910390fd5b6001600160a01b038516620000fa5760405162461bcd60e51b815260206004820152601760248201527f44726177426561636f6e2f726e672d6e6f742d7a65726f000000000000000000604482015260640162000099565b60018463ffffffff161015620001535760405162461bcd60e51b815260206004820152601f60248201527f44726177426561636f6e2f6e6578742d647261772d69642d6774652d6f6e6500604482015260640162000099565b6005805463ffffffff861668010000000000000000026001600160601b03199091166001600160401b038616171790556200018e8262000288565b62000199866200033d565b50620001a58562000473565b620001b081620004bd565b6040805163ffffffff861681526001600160401b03851660208201527f3125f2f28108d5eabe48aa2a11adff21d6f9244f0436278992999404ba4fc5ad910160405180910390a16040516001600160401b038416907f9e5f7e6ac833c4735b5548bbeec59dac4d413789aa351fbe11a654dac0c4306c90600090a25050505050505062000652565b600080546001600160a01b038381166001600160a01b0319831681178455604051919092169283917f8be0079c531659141344cd1fd0a4f28419497f9722a3daafe3b4186f6b6457e09190a35050565b60008163ffffffff1611620002e25760405162461bcd60e51b815260206004820152602a6024820152600080516020620024488339815191526044820152692d7468616e2d7a65726f60b01b606482015260840162000099565b6004805463ffffffff60c01b1916600160c01b63ffffffff8416908102919091179091556040519081527f4727494dbd863e2084366f539d6ec569aaf7ab78582a34f006f004266777cd19906020015b60405180910390a150565b6004546000906001600160a01b03908116908316620003b05760405162461bcd60e51b815260206004820152602860248201527f44726177426561636f6e2f647261772d686973746f72792d6e6f742d7a65726f6044820152672d6164647265737360c01b606482015260840162000099565b806001600160a01b0316836001600160a01b03161415620004255760405162461bcd60e51b815260206004820152602860248201527f44726177426561636f6e2f6578697374696e672d647261772d686973746f72796044820152672d6164647265737360c01b606482015260840162000099565b600480546001600160a01b0319166001600160a01b0385169081179091556040517feb70b03fab908e126e5efc33f8dfd2731fa89c716282a86769025f8dd4a6c1e090600090a25090919050565b600280546001600160a01b0319166001600160a01b0383169081179091556040517ff935763cc7c57ee8ed6318ed71e756cca0731294c9f46ff5b386f36d6ff1417a90600090a250565b603c8163ffffffff16116200051f5760405162461bcd60e51b815260206004820152602160248201527f44726177426561636f6e2f726e672d74696d656f75742d67742d36302d7365636044820152607360f81b606482015260840162000099565b6004805463ffffffff60a01b1916600160a01b63ffffffff8416908102919091179091556040519081527f521671714dd36d366adf3fe2efec91d3f58a3131aad68e268821d8144b5d08459060200162000332565b805163ffffffff811681146200058957600080fd5b919050565b600080600080600080600060e0888a031215620005aa57600080fd5b8751620005b78162000639565b6020890151909750620005ca8162000639565b6040890151909650620005dd8162000639565b9450620005ed6060890162000574565b60808901519094506001600160401b03811681146200060b57600080fd5b92506200061b60a0890162000574565b91506200062b60c0890162000574565b905092959891949750929550565b6001600160a01b03811681146200064f57600080fd5b50565b611de680620006626000396000f3fe608060405234801561001057600080fd5b50600436106101da5760003560e01c8063738bbea811610104578063a104fd79116100a2578063e11fb2bd11610071578063e11fb2bd146103aa578063e30c3978146103bd578063e4a75bb8146103ce578063f2fde38b146103d657600080fd5b8063a104fd791461036d578063ab70d49c14610375578063c57708c214610388578063d1e77657146103a257600080fd5b80637f4296d7116100de5780637f4296d71461032e57806389c36f8e146103415780638da5cb5b14610349578063919bead01461035a57600080fd5b8063738bbea81461030d57806375e38f16146103155780637ce52b181461031d57600080fd5b80633e7a39081161017c5780634e71e0c81161014b5780634e71e0c8146102d45780635020ea56146102dc5780636bea5344146102ef578063715018a61461030557600080fd5b80633e7a39081461028a5780634019f2d61461029f578063412a616a146102c45780634aba4f6b146102cc57600080fd5b80631b5344a2116101b85780631b5344a2146102165780632a7ad6091461024d5780632ae168a61461025b57806339f92c301461026357600080fd5b80630996f6e1146101df5780630bdeecbd146101fc578063111070e414610206575b600080fd5b6101e76103e9565b60405190151581526020015b60405180910390f35b61020461040a565b005b60035463ffffffff1615156101e7565b60045474010000000000000000000000000000000000000000900463ffffffff165b60405163ffffffff90911681526020016101f3565b60035463ffffffff16610238565b6102046107b9565b60055467ffffffffffffffff165b60405167ffffffffffffffff90911681526020016101f3565b600454600160c01b900463ffffffff16610238565b6004546001600160a01b03165b6040516001600160a01b0390911681526020016101f3565b610204610aae565b6101e7610b78565b610204610c17565b6102046102ea366004611b57565b610ca5565b600354640100000000900463ffffffff16610238565b610204610d22565b6101e7610d97565b610271610e16565b6002546001600160a01b03166102ac565b61020461033c366004611ab8565b610e20565b610271610e9a565b6000546001600160a01b03166102ac565b610204610368366004611b57565b610ec7565b610271610f41565b6102ac610383366004611ab8565b610f4b565b60055468010000000000000000900463ffffffff16610238565b6101e7610fc5565b6102716103b8366004611b25565b610fcf565b6001546001600160a01b03166102ac565b6101e7610ffc565b6102046103e4366004611ab8565b61101e565b60006103f361115a565b8015610405575060035463ffffffff16155b905090565b60035463ffffffff166104645760405162461bcd60e51b815260206004820152601c60248201527f44726177426561636f6e2f726e672d6e6f742d7265717565737465640000000060448201526064015b60405180910390fd5b61046c610b78565b6104b85760405162461bcd60e51b815260206004820152601b60248201527f44726177426561636f6e2f726e672d6e6f742d636f6d706c6574650000000000604482015260640161045b565b6002546003546040517f9d2a5f9800000000000000000000000000000000000000000000000000000000815263ffffffff90911660048201526000916001600160a01b031690639d2a5f9890602401602060405180830381600087803b15801561052157600080fd5b505af1158015610535573d6000803e3d6000fd5b505050506040513d601f19601f820116820180604052508101906105599190611b3e565b60055460045491925063ffffffff68010000000000000000820481169267ffffffffffffffff90921691600160c01b90041660006105944290565b6040805160a08101825287815263ffffffff8781166020830190815260035468010000000000000000900467ffffffffffffffff90811684860190815289821660608601908152898516608087019081526004805498517f089eb925000000000000000000000000000000000000000000000000000000008152885191810191909152945186166024860152915183166044850152519091166064830152519091166084820152929350916001600160a01b039091169063089eb9259060a401602060405180830381600087803b15801561066e57600080fd5b505af1158015610682573d6000803e3d6000fd5b505050506040513d601f19601f820116820180604052508101906106a69190611b74565b5060006106b4858585611180565b6005805467ffffffffffffffff191667ffffffffffffffff831617905590506106de866001611c38565b6005805463ffffffff9290921668010000000000000000027fffffffffffffffffffffffffffffffffffffffff00000000ffffffffffffffff909216919091179055600380547fffffffffffffffffffffffffffffffff000000000000000000000000000000001690556040518781527f13f646a3648ee5b5a0e8d6bc3d2d623fddf38fa7c8c5dfdbdbe6a913112edc6c9060200160405180910390a160405167ffffffffffffffff8216907f9e5f7e6ac833c4735b5548bbeec59dac4d413789aa351fbe11a654dac0c4306c90600090a250505050505050565b6107c161115a565b6108335760405162461bcd60e51b815260206004820152602160248201527f44726177426561636f6e2f626561636f6e2d706572696f642d6e6f742d6f766560448201527f7200000000000000000000000000000000000000000000000000000000000000606482015260840161045b565b60035463ffffffff16156108895760405162461bcd60e51b815260206004820181905260248201527f44726177426561636f6e2f726e672d616c72656164792d726571756573746564604482015260640161045b565b600254604080517f0d37b537000000000000000000000000000000000000000000000000000000008152815160009384936001600160a01b0390911692630d37b5379260048083019392829003018186803b1580156108e757600080fd5b505afa1580156108fb573d6000803e3d6000fd5b505050506040513d601f19601f8201168201806040525081019061091f9190611ad5565b90925090506001600160a01b0382161580159061093c5750600081115b1561095b5760025461095b906001600160a01b038481169116836111c5565b600254604080517f8678a7b2000000000000000000000000000000000000000000000000000000008152815160009384936001600160a01b0390911692638678a7b2926004808301939282900301818787803b1580156109ba57600080fd5b505af11580156109ce573d6000803e3d6000fd5b505050506040513d601f19601f820116820180604052508101906109f29190611b91565b6003805463ffffffff8084166401000000000267ffffffffffffffff19909216908516171790559092509050610a254290565b6003805467ffffffffffffffff9290921668010000000000000000027fffffffffffffffffffffffffffffffff0000000000000000ffffffffffffffff90921691909117905560405163ffffffff82811682528316907f0de3a7af7d3c2126e4fb96a7065b39f8bb17e3b9111c092e11236942fb38ca619060200160405180910390a250505050565b610ab6610d97565b610b025760405162461bcd60e51b815260206004820152601b60248201527f44726177426561636f6e2f726e672d6e6f742d74696d65646f75740000000000604482015260640161045b565b600380547fffffffffffffffffffffffffffffffff00000000000000000000000000000000811690915560405163ffffffff640100000000830481168083529216919082907f67638a3a7093a89cc6046dca58aa93d6343e30847e8f84fc3759d9d4a3e6e38b9060200160405180910390a25050565b6002546003546040517f3a19b9bc00000000000000000000000000000000000000000000000000000000815263ffffffff90911660048201526000916001600160a01b031690633a19b9bc9060240160206040518083038186803b158015610bdf57600080fd5b505afa158015610bf3573d6000803e3d6000fd5b505050506040513d601f19601f820116820180604052508101906104059190611b03565b6001546001600160a01b03163314610c715760405162461bcd60e51b815260206004820152601f60248201527f4f776e61626c652f63616c6c65722d6e6f742d70656e64696e674f776e657200604482015260640161045b565b600154610c86906001600160a01b031661135e565b6001805473ffffffffffffffffffffffffffffffffffffffff19169055565b33610cb86000546001600160a01b031690565b6001600160a01b031614610d0e5760405162461bcd60e51b815260206004820152601860248201527f4f776e61626c652f63616c6c65722d6e6f742d6f776e65720000000000000000604482015260640161045b565b610d166113bb565b610d1f81611435565b50565b33610d356000546001600160a01b031690565b6001600160a01b031614610d8b5760405162461bcd60e51b815260206004820152601860248201527f4f776e61626c652f63616c6c65722d6e6f742d6f776e65720000000000000000604482015260640161045b565b610d95600061135e565b565b60035460009068010000000000000000900467ffffffffffffffff16610dbd5750600090565b4260035460045467ffffffffffffffff92831692610e0692680100000000000000009004169074010000000000000000000000000000000000000000900463ffffffff16611c60565b67ffffffffffffffff1610905090565b6000610405611535565b33610e336000546001600160a01b031690565b6001600160a01b031614610e895760405162461bcd60e51b815260206004820152601860248201527f4f776e61626c652f63616c6c65722d6e6f742d6f776e65720000000000000000604482015260640161045b565b610e916113bb565b610d1f81611571565b6005546004546000916104059167ffffffffffffffff90911690600160c01b900463ffffffff1642611180565b33610eda6000546001600160a01b031690565b6001600160a01b031614610f305760405162461bcd60e51b815260206004820152601860248201527f4f776e61626c652f63616c6c65722d6e6f742d6f776e65720000000000000000604482015260640161045b565b610f386113bb565b610d1f816115c8565b60006104056116b0565b600033610f606000546001600160a01b031690565b6001600160a01b031614610fb65760405162461bcd60e51b815260206004820152601860248201527f4f776e61626c652f63616c6c65722d6e6f742d6f776e65720000000000000000604482015260640161045b565b610fbf826116db565b92915050565b600061040561115a565b600554600454600091610fbf9167ffffffffffffffff90911690600160c01b900463ffffffff1684611180565b600061100f60035463ffffffff16151590565b80156104055750610405610b78565b336110316000546001600160a01b031690565b6001600160a01b0316146110875760405162461bcd60e51b815260206004820152601860248201527f4f776e61626c652f63616c6c65722d6e6f742d6f776e65720000000000000000604482015260640161045b565b6001600160a01b0381166111035760405162461bcd60e51b815260206004820152602560248201527f4f776e61626c652f70656e64696e674f776e65722d6e6f742d7a65726f2d616460448201527f6472657373000000000000000000000000000000000000000000000000000000606482015260840161045b565b6001805473ffffffffffffffffffffffffffffffffffffffff19166001600160a01b0383169081179091556040517f239a2ddded15777fa246aed5f7e1a9bc69a39d4eb4a397034d1d85766cca7d4c90600090a250565b60004267ffffffffffffffff1661116f6116b0565b67ffffffffffffffff161115905090565b60008063ffffffff84166111948685611d01565b61119e9190611c83565b90506111b063ffffffff851682611cd1565b6111ba9086611c60565b9150505b9392505050565b80158061126757506040517fdd62ed3e0000000000000000000000000000000000000000000000000000000081523060048201526001600160a01b03838116602483015284169063dd62ed3e9060440160206040518083038186803b15801561122d57600080fd5b505afa158015611241573d6000803e3d6000fd5b505050506040513d601f19601f820116820180604052508101906112659190611b3e565b155b6112d95760405162461bcd60e51b815260206004820152603660248201527f5361666545524332303a20617070726f76652066726f6d206e6f6e2d7a65726f60448201527f20746f206e6f6e2d7a65726f20616c6c6f77616e636500000000000000000000606482015260840161045b565b604080516001600160a01b038416602482015260448082018490528251808303909101815260649091019091526020810180517bffffffffffffffffffffffffffffffffffffffffffffffffffffffff167f095ea7b300000000000000000000000000000000000000000000000000000000179052611359908490611844565b505050565b600080546001600160a01b0383811673ffffffffffffffffffffffffffffffffffffffff19831681178455604051919092169283917f8be0079c531659141344cd1fd0a4f28419497f9722a3daafe3b4186f6b6457e09190a35050565b6003544390640100000000900463ffffffff1615806113e95750600354640100000000900463ffffffff1681105b610d1f5760405162461bcd60e51b815260206004820152601860248201527f44726177426561636f6e2f726e672d696e2d666c696768740000000000000000604482015260640161045b565b603c8163ffffffff16116114b15760405162461bcd60e51b815260206004820152602160248201527f44726177426561636f6e2f726e672d74696d656f75742d67742d36302d73656360448201527f7300000000000000000000000000000000000000000000000000000000000000606482015260840161045b565b600480547fffffffffffffffff00000000ffffffffffffffffffffffffffffffffffffffff167401000000000000000000000000000000000000000063ffffffff8416908102919091179091556040519081527f521671714dd36d366adf3fe2efec91d3f58a3131aad68e268821d8144b5d0845906020015b60405180910390a150565b6000806115406116b0565b90504267ffffffffffffffff808216908316116115605760009250505090565b61156a8183611d01565b9250505090565b6002805473ffffffffffffffffffffffffffffffffffffffff19166001600160a01b0383169081179091556040517ff935763cc7c57ee8ed6318ed71e756cca0731294c9f46ff5b386f36d6ff1417a90600090a250565b60008163ffffffff16116116445760405162461bcd60e51b815260206004820152602a60248201527f44726177426561636f6e2f626561636f6e2d706572696f642d6772656174657260448201527f2d7468616e2d7a65726f00000000000000000000000000000000000000000000606482015260840161045b565b600480547fffffffff00000000ffffffffffffffffffffffffffffffffffffffffffffffff16600160c01b63ffffffff8416908102919091179091556040519081527f4727494dbd863e2084366f539d6ec569aaf7ab78582a34f006f004266777cd199060200161152a565b60045460055460009161040591600160c01b90910463ffffffff169067ffffffffffffffff16611c60565b6004546000906001600160a01b039081169083166117615760405162461bcd60e51b815260206004820152602860248201527f44726177426561636f6e2f647261772d686973746f72792d6e6f742d7a65726f60448201527f2d61646472657373000000000000000000000000000000000000000000000000606482015260840161045b565b806001600160a01b0316836001600160a01b031614156117e95760405162461bcd60e51b815260206004820152602860248201527f44726177426561636f6e2f6578697374696e672d647261772d686973746f727960448201527f2d61646472657373000000000000000000000000000000000000000000000000606482015260840161045b565b6004805473ffffffffffffffffffffffffffffffffffffffff19166001600160a01b0385169081179091556040517feb70b03fab908e126e5efc33f8dfd2731fa89c716282a86769025f8dd4a6c1e090600090a25090919050565b6000611899826040518060400160405280602081526020017f5361666545524332303a206c6f772d6c6576656c2063616c6c206661696c6564815250856001600160a01b03166119299092919063ffffffff16565b80519091501561135957808060200190518101906118b79190611b03565b6113595760405162461bcd60e51b815260206004820152602a60248201527f5361666545524332303a204552433230206f7065726174696f6e20646964206e60448201527f6f74207375636365656400000000000000000000000000000000000000000000606482015260840161045b565b60606119388484600085611940565b949350505050565b6060824710156119b85760405162461bcd60e51b815260206004820152602660248201527f416464726573733a20696e73756666696369656e742062616c616e636520666f60448201527f722063616c6c0000000000000000000000000000000000000000000000000000606482015260840161045b565b843b611a065760405162461bcd60e51b815260206004820152601d60248201527f416464726573733a2063616c6c20746f206e6f6e2d636f6e7472616374000000604482015260640161045b565b600080866001600160a01b03168587604051611a229190611bcb565b60006040518083038185875af1925050503d8060008114611a5f576040519150601f19603f3d011682016040523d82523d6000602084013e611a64565b606091505b5091509150611a74828286611a7f565b979650505050505050565b60608315611a8e5750816111be565b825115611a9e5782518084602001fd5b8160405162461bcd60e51b815260040161045b9190611be7565b600060208284031215611aca57600080fd5b81356111be81611d89565b60008060408385031215611ae857600080fd5b8251611af381611d89565b6020939093015192949293505050565b600060208284031215611b1557600080fd5b815180151581146111be57600080fd5b600060208284031215611b3757600080fd5b5035919050565b600060208284031215611b5057600080fd5b5051919050565b600060208284031215611b6957600080fd5b81356111be81611d9e565b600060208284031215611b8657600080fd5b81516111be81611d9e565b60008060408385031215611ba457600080fd5b8251611baf81611d9e565b6020840151909250611bc081611d9e565b809150509250929050565b60008251611bdd818460208701611d2a565b9190910192915050565b6020815260008251806020840152611c06816040850160208701611d2a565b601f017fffffffffffffffffffffffffffffffffffffffffffffffffffffffffffffffe0169190910160400192915050565b600063ffffffff808316818516808303821115611c5757611c57611d5a565b01949350505050565b600067ffffffffffffffff808316818516808303821115611c5757611c57611d5a565b600067ffffffffffffffff80841680611cc5577f4e487b7100000000000000000000000000000000000000000000000000000000600052601260045260246000fd5b92169190910492915050565b600067ffffffffffffffff80831681851681830481118215151615611cf857611cf8611d5a565b02949350505050565b600067ffffffffffffffff83811690831681811015611d2257611d22611d5a565b039392505050565b60005b83811015611d45578181015183820152602001611d2d565b83811115611d54576000848401525b50505050565b7f4e487b7100000000000000000000000000000000000000000000000000000000600052601160045260246000fd5b6001600160a01b0381168114610d1f57600080fd5b63ffffffff81168114610d1f57600080fdfea264697066735822122014ef8c75ae5164a4fb405b2223e6091958e468dac34f5fb4e46ba40cb63cf5d264736f6c6343000806003344726177426561636f6e2f626561636f6e2d706572696f642d67726561746572",
  "linkReferences": {},
  "deployedLinkReferences": {}
}