{
  "_format": "hh-sol-artifact-1",
  "contractName": "CoreMultiSig",
  "sourceName": "contracts/CoreMultiSig.sol",
  "abi": [
    {
      "inputs": [
        {
          "internalType": "address[]",
          "name": "_owners",
          "type": "address[]"
        },
        {
          "internalType": "uint256",
          "name": "_required",
          "type": "uint256"
        }
      ],
      "stateMutability": "nonpayable",
      "type": "constructor"
    },
    {
      "anonymous": false,
      "inputs": [
        {
          "indexed": true,
          "internalType": "address",
          "name": "sender",
          "type": "address"
        },
        {
          "indexed": true,
          "internalType": "uint256",
          "name": "transactionId",
          "type": "uint256"
        }
      ],
      "name": "Confirmation",
      "type": "event"
    },
    {
      "anonymous": false,
      "inputs": [
        {
          "indexed": true,
          "internalType": "uint256",
          "name": "transactionId",
          "type": "uint256"
        }
      ],
      "name": "Execution",
      "type": "event"
    },
    {
      "anonymous": false,
      "inputs": [
        {
          "indexed": true,
          "internalType": "uint256",
          "name": "transactionId",
          "type": "uint256"
        }
      ],
      "name": "ExecutionFailure",
      "type": "event"
    },
    {
      "anonymous": false,
      "inputs": [
        {
          "indexed": true,
          "internalType": "address",
          "name": "owner",
          "type": "address"
        }
      ],
      "name": "OwnerAddition",
      "type": "event"
    },
    {
      "anonymous": false,
      "inputs": [
        {
          "indexed": true,
          "internalType": "address",
          "name": "owner",
          "type": "address"
        }
      ],
      "name": "OwnerRemoval",
      "type": "event"
    },
    {
      "anonymous": false,
      "inputs": [
        {
          "indexed": false,
          "internalType": "uint256",
          "name": "required",
          "type": "uint256"
        }
      ],
      "name": "RequirementChange",
      "type": "event"
    },
    {
      "anonymous": false,
      "inputs": [
        {
          "indexed": true,
          "internalType": "address",
          "name": "sender",
          "type": "address"
        },
        {
          "indexed": true,
          "internalType": "uint256",
          "name": "transactionId",
          "type": "uint256"
        }
      ],
      "name": "Revocation",
      "type": "event"
    },
    {
      "anonymous": false,
      "inputs": [
        {
          "indexed": true,
          "internalType": "uint256",
          "name": "transactionId",
          "type": "uint256"
        }
      ],
      "name": "Submission",
      "type": "event"
    },
    {
      "inputs": [],
      "name": "MAX_OWNER_COUNT",
      "outputs": [
        {
          "internalType": "uint256",
          "name": "",
          "type": "uint256"
        }
      ],
      "stateMutability": "view",
      "type": "function"
    },
    {
      "inputs": [
        {
          "internalType": "address",
          "name": "owner",
          "type": "address"
        }
      ],
      "name": "addOwner",
      "outputs": [],
      "stateMutability": "nonpayable",
      "type": "function"
    },
    {
      "inputs": [
        {
          "internalType": "uint256",
          "name": "_required",
          "type": "uint256"
        }
      ],
      "name": "changeRequirement",
      "outputs": [],
      "stateMutability": "nonpayable",
      "type": "function"
    },
    {
      "inputs": [
        {
          "internalType": "uint256",
          "name": "transactionId",
          "type": "uint256"
        }
      ],
      "name": "confirmTransaction",
      "outputs": [],
      "stateMutability": "nonpayable",
      "type": "function"
    },
    {
      "inputs": [
        {
          "internalType": "uint256",
          "name": "",
          "type": "uint256"
        },
        {
          "internalType": "address",
          "name": "",
          "type": "address"
        }
      ],
      "name": "confirmations",
      "outputs": [
        {
          "internalType": "bool",
          "name": "",
          "type": "bool"
        }
      ],
      "stateMutability": "view",
      "type": "function"
    },
    {
      "inputs": [
        {
          "internalType": "uint256",
          "name": "transactionId",
          "type": "uint256"
        }
      ],
      "name": "executeTransaction",
      "outputs": [],
      "stateMutability": "nonpayable",
      "type": "function"
    },
    {
      "inputs": [
        {
          "internalType": "uint256",
          "name": "transactionId",
          "type": "uint256"
        }
      ],
      "name": "getConfirmationCount",
      "outputs": [
        {
          "internalType": "uint256",
          "name": "",
          "type": "uint256"
        }
      ],
      "stateMutability": "view",
      "type": "function"
    },
    {
      "inputs": [
        {
          "internalType": "uint256",
          "name": "transactionId",
          "type": "uint256"
        }
      ],
      "name": "getConfirmations",
      "outputs": [
        {
          "internalType": "address[]",
          "name": "",
          "type": "address[]"
        }
      ],
      "stateMutability": "view",
      "type": "function"
    },
    {
      "inputs": [],
      "name": "getOwners",
      "outputs": [
        {
          "internalType": "address[]",
          "name": "",
          "type": "address[]"
        }
      ],
      "stateMutability": "view",
      "type": "function"
    },
    {
      "inputs": [
        {
          "internalType": "bool",
          "name": "pending",
          "type": "bool"
        },
        {
          "internalType": "bool",
          "name": "executed",
          "type": "bool"
        }
      ],
      "name": "getTransactionCount",
      "outputs": [
        {
          "internalType": "uint256",
          "name": "",
          "type": "uint256"
        }
      ],
      "stateMutability": "view",
      "type": "function"
    },
    {
      "inputs": [
        {
          "internalType": "uint256",
          "name": "from",
          "type": "uint256"
        },
        {
          "internalType": "uint256",
          "name": "to",
          "type": "uint256"
        },
        {
          "internalType": "bool",
          "name": "pending",
          "type": "bool"
        },
        {
          "internalType": "bool",
          "name": "executed",
          "type": "bool"
        }
      ],
      "name": "getTransactionIds",
      "outputs": [
        {
          "internalType": "uint256[]",
          "name": "",
          "type": "uint256[]"
        }
      ],
      "stateMutability": "view",
      "type": "function"
    },
    {
      "inputs": [
        {
          "internalType": "uint256",
          "name": "transactionId",
          "type": "uint256"
        }
      ],
      "name": "isConfirmed",
      "outputs": [
        {
          "internalType": "bool",
          "name": "",
          "type": "bool"
        }
      ],
      "stateMutability": "view",
      "type": "function"
    },
    {
      "inputs": [
        {
          "internalType": "address",
          "name": "",
          "type": "address"
        }
      ],
      "name": "isOwner",
      "outputs": [
        {
          "internalType": "bool",
          "name": "",
          "type": "bool"
        }
      ],
      "stateMutability": "view",
      "type": "function"
    },
    {
      "inputs": [
        {
          "internalType": "uint256",
          "name": "",
          "type": "uint256"
        }
      ],
      "name": "owners",
      "outputs": [
        {
          "internalType": "address",
          "name": "",
          "type": "address"
        }
      ],
      "stateMutability": "view",
      "type": "function"
    },
    {
      "inputs": [
        {
          "internalType": "address",
          "name": "owner",
          "type": "address"
        }
      ],
      "name": "removeOwner",
      "outputs": [],
      "stateMutability": "nonpayable",
      "type": "function"
    },
    {
      "inputs": [
        {
          "internalType": "address",
          "name": "owner",
          "type": "address"
        },
        {
          "internalType": "address",
          "name": "newOwner",
          "type": "address"
        }
      ],
      "name": "replaceOwner",
      "outputs": [],
      "stateMutability": "nonpayable",
      "type": "function"
    },
    {
      "inputs": [],
      "name": "required",
      "outputs": [
        {
          "internalType": "uint256",
          "name": "",
          "type": "uint256"
        }
      ],
      "stateMutability": "view",
      "type": "function"
    },
    {
      "inputs": [
        {
          "internalType": "uint256",
          "name": "transactionId",
          "type": "uint256"
        }
      ],
      "name": "revokeConfirmation",
      "outputs": [],
      "stateMutability": "nonpayable",
      "type": "function"
    },
    {
      "inputs": [
        {
          "internalType": "address",
          "name": "destination",
          "type": "address"
        },
        {
          "internalType": "uint256",
          "name": "value",
          "type": "uint256"
        },
        {
          "internalType": "bytes",
          "name": "data",
          "type": "bytes"
        }
      ],
      "name": "submitTransaction",
      "outputs": [
        {
          "internalType": "uint256",
          "name": "",
          "type": "uint256"
        }
      ],
      "stateMutability": "nonpayable",
      "type": "function"
    },
    {
      "inputs": [],
      "name": "transactionCount",
      "outputs": [
        {
          "internalType": "uint256",
          "name": "",
          "type": "uint256"
        }
      ],
      "stateMutability": "view",
      "type": "function"
    },
    {
      "inputs": [
        {
          "internalType": "uint256",
          "name": "",
          "type": "uint256"
        }
      ],
      "name": "transactions",
      "outputs": [
        {
          "internalType": "address",
          "name": "destination",
          "type": "address"
        },
        {
          "internalType": "uint256",
          "name": "value",
          "type": "uint256"
        },
        {
          "internalType": "bytes",
          "name": "data",
          "type": "bytes"
        },
        {
          "internalType": "bool",
          "name": "executed",
          "type": "bool"
        }
      ],
      "stateMutability": "view",
      "type": "function"
    },
    {
      "inputs": [
        {
          "internalType": "address",
          "name": "token",
          "type": "address"
        },
        {
          "internalType": "address",
          "name": "to",
          "type": "address"
        },
        {
          "internalType": "uint256",
          "name": "amount",
          "type": "uint256"
        }
      ],
      "name": "withdraw",
      "outputs": [],
      "stateMutability": "nonpayable",
      "type": "function"
    }
  ],
  "bytecode": "0x60806040523480156200001157600080fd5b50604051620020e2380380620020e283398101604081905262000034916200024b565b8181815181603282111580156200004b5750818111155b80156200005757508015155b80156200006357508115155b6200006d57600080fd5b60005b84518110156200018757600260008683815181106200009f57634e487b7160e01b600052603260045260246000fd5b6020908102919091018101516001600160a01b031682528101919091526040016000205460ff161580156200010f575060006001600160a01b0316858281518110620000fb57634e487b7160e01b600052603260045260246000fd5b60200260200101516001600160a01b031614155b6200011957600080fd5b6001600260008784815181106200014057634e487b7160e01b600052603260045260246000fd5b6020908102919091018101516001600160a01b03168252810191909152604001600020805460ff1916911515919091179055806200017e8162000327565b91505062000070565b5083516200019d906003906020870190620001ad565b5050506004555062000365915050565b82805482825590600052602060002090810192821562000205579160200282015b828111156200020557825182546001600160a01b0319166001600160a01b03909116178255602090920191600190910190620001ce565b506200021392915062000217565b5090565b5b8082111562000213576000815560010162000218565b80516001600160a01b03811681146200024657600080fd5b919050565b600080604083850312156200025e578182fd5b82516001600160401b038082111562000275578384fd5b818501915085601f83011262000289578384fd5b8151602082821115620002a057620002a06200034f565b8160051b604051601f19603f83011681018181108682111715620002c857620002c86200034f565b604052838152828101945085830182870184018b1015620002e7578889fd5b8896505b848710156200031457620002ff816200022e565b865260019690960195948301948301620002eb565b5097909101519698969750505050505050565b60006000198214156200034857634e487b7160e01b81526011600452602481fd5b5060010190565b634e487b7160e01b600052604160045260246000fd5b611d6d80620003756000396000f3fe608060405234801561001057600080fd5b50600436106101825760003560e01c8063a8abe69a116100d8578063c64274741161008c578063dc8452cd11610066578063dc8452cd14610362578063e20056e61461036b578063ee22610b1461037e57600080fd5b8063c642747414610334578063d74f8edd14610347578063d9caed121461034f57600080fd5b8063b77bf600116100bd578063b77bf60014610305578063ba51a6df1461030e578063c01a8c841461032157600080fd5b8063a8abe69a146102d2578063b5dc40c3146102f257600080fd5b8063547415251161013a5780638b51d13f116101145780638b51d13f146102875780639ace38c21461029a578063a0e67e2b146102bd57600080fd5b806354741525146102405780637065cb4814610261578063784547a71461027457600080fd5b806320ea8d861161016b57806320ea8d86146101cc5780632f54bf6e146101df5780633411c81c1461021257600080fd5b8063025e7c2714610187578063173825d9146101b7575b600080fd5b61019a610195366004611aa5565b610391565b6040516001600160a01b0390911681526020015b60405180910390f35b6101ca6101c5366004611948565b6103bb565b005b6101ca6101da366004611aa5565b6105b7565b6102026101ed366004611948565b60026020526000908152604090205460ff1681565b60405190151581526020016101ae565b610202610220366004611ad5565b600160209081526000928352604080842090915290825290205460ff1681565b61025361024e366004611a6d565b61066d565b6040519081526020016101ae565b6101ca61026f366004611948565b6106ed565b610202610282366004611aa5565b610813565b610253610295366004611aa5565b6108c0565b6102ad6102a8366004611aa5565b610957565b6040516101ae9493929190611b88565b6102c5610a15565b6040516101ae9190611bc3565b6102e56102e0366004611af7565b610a77565b6040516101ae9190611c10565b6102c5610300366004611aa5565b610c58565b61025360055481565b6101ca61031c366004611aa5565b610e96565b6101ca61032f366004611aa5565b610f13565b6102536103423660046119cf565b610fda565b610253603281565b6101ca61035d366004611994565b610ffd565b61025360045481565b6101ca610379366004611962565b6110bf565b6101ca61038c366004611aa5565b61126e565b600381815481106103a157600080fd5b6000918252602090912001546001600160a01b0316905081565b3330146103c757600080fd5b6001600160a01b038116600090815260026020526040902054819060ff166103ee57600080fd5b6001600160a01b0382166000908152600260205260408120805460ff191690555b60035461041e90600190611c73565b81101561051857826001600160a01b03166003828154811061045057634e487b7160e01b600052603260045260246000fd5b6000918252602090912001546001600160a01b03161415610506576003805461047b90600190611c73565b8154811061049957634e487b7160e01b600052603260045260246000fd5b600091825260209091200154600380546001600160a01b0390921691839081106104d357634e487b7160e01b600052603260045260246000fd5b9060005260206000200160006101000a8154816001600160a01b0302191690836001600160a01b03160217905550610518565b8061051081611cf5565b91505061040f565b50600380548061053857634e487b7160e01b600052603160045260246000fd5b6000828152602090208101600019908101805473ffffffffffffffffffffffffffffffffffffffff19169055019055600354600454111561057f5760035461057f90610e96565b6040516001600160a01b038316907f8001553a916ef2f495d26a907cc54d96ed840d7bda71e73194bf5a9df7a76b9090600090a25050565b3360008181526002602052604090205460ff166105d357600080fd5b60008281526001602090815260408083203380855292529091205483919060ff166105fd57600080fd5b600084815260208190526040902060030154849060ff161561061e57600080fd5b6000858152600160209081526040808320338085529252808320805460ff191690555187927ff6a317157440607f36269043eb55f1287a5a19ba2216afeab88cd46cbcfb88e991a35050505050565b60008060005b6005548110156106e55784801561069c575060008181526020819052604090206003015460ff16155b806106c057508380156106c0575060008181526020819052604090206003015460ff165b156106d357816106cf81611cf5565b9250505b806106dd81611cf5565b915050610673565b509392505050565b3330146106f957600080fd5b6001600160a01b038116600090815260026020526040902054819060ff161561072157600080fd5b816001600160a01b03811661073557600080fd5b600354610743906001611c5b565b600454603282111580156107575750818111155b801561076257508015155b801561076d57508115155b61077657600080fd5b6001600160a01b038516600081815260026020526040808220805460ff1916600190811790915560038054918201815583527fc2575a0e9e593c00f959f8c92f12db2869c3395a3b0502d05e2516446f71f85b01805473ffffffffffffffffffffffffffffffffffffffff191684179055517ff39e6e1eb0edcf53c221607b54b00cd28f3196fed0a24994dc308b8f611b682d9190a25050505050565b600080805b6003548110156108b6576000848152600160205260408120600380549192918490811061085557634e487b7160e01b600052603260045260246000fd5b60009182526020808320909101546001600160a01b0316835282019290925260400190205460ff1615610890578161088c81611cf5565b9250505b6004548214156108a4575060019392505050565b806108ae81611cf5565b915050610818565b5060009392505050565b60008060005b600354811015610950576000848152600160205260408120600380549192918490811061090357634e487b7160e01b600052603260045260246000fd5b60009182526020808320909101546001600160a01b0316835282019290925260400190205460ff161561093e578161093a81611cf5565b9250505b8061094881611cf5565b9150506108c6565b5092915050565b6000602081905290815260409020805460018201546002830180546001600160a01b0390931693919261098990611cba565b80601f01602080910402602001604051908101604052809291908181526020018280546109b590611cba565b8015610a025780601f106109d757610100808354040283529160200191610a02565b820191906000526020600020905b8154815290600101906020018083116109e557829003601f168201915b5050506003909301549192505060ff1684565b60606003805480602002602001604051908101604052809291908181526020018280548015610a6d57602002820191906000526020600020905b81546001600160a01b03168152600190910190602001808311610a4f575b5050505050905090565b606080600060055467ffffffffffffffff811115610aa557634e487b7160e01b600052604160045260246000fd5b604051908082528060200260200182016040528015610ace578160200160208202803683370190505b5090506000805b600554811015610b7357868015610afe575060008181526020819052604090206003015460ff16155b80610b225750858015610b22575060008181526020819052604090206003015460ff165b15610b615780838381518110610b4857634e487b7160e01b600052603260045260246000fd5b602090810291909101015281610b5d81611cf5565b9250505b80610b6b81611cf5565b915050610ad5565b610b7d8989611c73565b67ffffffffffffffff811115610ba357634e487b7160e01b600052604160045260246000fd5b604051908082528060200260200182016040528015610bcc578160200160208202803683370190505b5093508890505b87811015610c4b57828181518110610bfb57634e487b7160e01b600052603260045260246000fd5b6020026020010151848a83610c109190611c73565b81518110610c2e57634e487b7160e01b600052603260045260246000fd5b602090810291909101015280610c4381611cf5565b915050610bd3565b5091979650505050505050565b606080600060038054905067ffffffffffffffff811115610c8957634e487b7160e01b600052604160045260246000fd5b604051908082528060200260200182016040528015610cb2578160200160208202803683370190505b5090506000805b600354811015610dba5760008681526001602052604081206003805491929184908110610cf657634e487b7160e01b600052603260045260246000fd5b60009182526020808320909101546001600160a01b0316835282019290925260400190205460ff1615610da85760038181548110610d4457634e487b7160e01b600052603260045260246000fd5b9060005260206000200160009054906101000a90046001600160a01b0316838381518110610d8257634e487b7160e01b600052603260045260246000fd5b6001600160a01b039092166020928302919091019091015281610da481611cf5565b9250505b80610db281611cf5565b915050610cb9565b8167ffffffffffffffff811115610de157634e487b7160e01b600052604160045260246000fd5b604051908082528060200260200182016040528015610e0a578160200160208202803683370190505b509350600090505b81811015610e8c57828181518110610e3a57634e487b7160e01b600052603260045260246000fd5b6020026020010151848281518110610e6257634e487b7160e01b600052603260045260246000fd5b6001600160a01b039092166020928302919091019091015280610e8481611cf5565b915050610e12565b5091949350505050565b333014610ea257600080fd5b6003548160328211801590610eb75750818111155b8015610ec257508015155b8015610ecd57508115155b610ed657600080fd5b60048390556040518381527fa3f1ee9126a074d9326c682f561767f710e927faa811f7a99829d49dc421797a9060200160405180910390a1505050565b3360008181526002602052604090205460ff16610f2f57600080fd5b60008281526020819052604090205482906001600160a01b0316610f5257600080fd5b60008381526001602090815260408083203380855292529091205484919060ff1615610f7d57600080fd5b6000858152600160208181526040808420338086529252808420805460ff1916909317909255905187927f4a504a94899432a9846e1aa406dceb1bcfd538bb839071d49d1e5e23f5be30ef91a3610fd38561126e565b5050505050565b600080610fe986868686611431565b9050610ff481610f13565b95945050505050565b33301461100957600080fd5b6040517f70a0823100000000000000000000000000000000000000000000000000000000815230600482015281906001600160a01b038516906370a082319060240160206040518083038186803b15801561106357600080fd5b505afa158015611077573d6000803e3d6000fd5b505050506040513d601f19601f8201168201806040525081019061109b9190611abd565b10156110a657600080fd5b6110ba6001600160a01b038416838361156c565b505050565b3330146110cb57600080fd5b6001600160a01b038216600090815260026020526040902054829060ff166110f257600080fd5b6001600160a01b038216600090815260026020526040902054829060ff161561111a57600080fd5b60005b6003548110156111d457846001600160a01b03166003828154811061115257634e487b7160e01b600052603260045260246000fd5b6000918252602090912001546001600160a01b031614156111c257836003828154811061118f57634e487b7160e01b600052603260045260246000fd5b9060005260206000200160006101000a8154816001600160a01b0302191690836001600160a01b031602179055506111d4565b806111cc81611cf5565b91505061111d565b506001600160a01b03808516600081815260026020526040808220805460ff1990811690915593871682528082208054909416600117909355915190917f8001553a916ef2f495d26a907cc54d96ed840d7bda71e73194bf5a9df7a76b9091a26040516001600160a01b038416907ff39e6e1eb0edcf53c221607b54b00cd28f3196fed0a24994dc308b8f611b682d90600090a250505050565b3360008181526002602052604090205460ff1661128a57600080fd5b60008281526001602090815260408083203380855292529091205483919060ff166112b457600080fd5b600084815260208190526040902060030154849060ff16156112d557600080fd5b6112de85610813565b15610fd357600085815260208190526040902060038101805460ff191660019081179091558154908201546002830180546113bc936001600160a01b031692919061132890611cba565b905084600201805461133990611cba565b80601f016020809104026020016040519081016040528092919081815260200182805461136590611cba565b80156113b25780601f10611387576101008083540402835291602001916113b2565b820191906000526020600020905b81548152906001019060200180831161139557829003601f168201915b50505050506115ec565b156113f15760405186907f33e13ecb54c3076d8e8bb8c2881800a4d972b792045ffae98fdf46df365fed7590600090a2611429565b60405186907f526441bb6c1aba3c9a4a6ca1d6545da9c2333c8c48343ef398eb858d72b7923690600090a260038101805460ff191690555b505050505050565b6000846001600160a01b03811661144757600080fd5b600060055490506040518060800160405280886001600160a01b0316815260200187815260200186868080601f016020809104026020016040519081016040528093929190818152602001838380828437600092018290525093855250505060209182018190528381528082526040908190208351815473ffffffffffffffffffffffffffffffffffffffff19166001600160a01b03909116178155838301516001820155908301518051919261150692600285019290910190611893565b50606091909101516003909101805460ff19169115159190911790556005805490600061153283611cf5565b909155505060405181907fc0ba8fe4b176c1714197d43b9cc6bcf797a4a7461c5fe8d0ef6e184ae7601e5190600090a29695505050505050565b604080516001600160a01b038416602482015260448082018490528251808303909101815260649091019091526020810180517bffffffffffffffffffffffffffffffffffffffffffffffffffffffff167fa9059cbb000000000000000000000000000000000000000000000000000000001790526110ba90849061160f565b6000806040516020840160008287838a8c6187965a03f198975050505050505050565b6000611664826040518060400160405280602081526020017f5361666545524332303a206c6f772d6c6576656c2063616c6c206661696c6564815250856001600160a01b03166116f99092919063ffffffff16565b8051909150156110ba57808060200190518101906116829190611a51565b6110ba5760405162461bcd60e51b815260206004820152602a60248201527f5361666545524332303a204552433230206f7065726174696f6e20646964206e60448201527f6f7420737563636565640000000000000000000000000000000000000000000060648201526084015b60405180910390fd5b60606117088484600085611712565b90505b9392505050565b60608247101561178a5760405162461bcd60e51b815260206004820152602660248201527f416464726573733a20696e73756666696369656e742062616c616e636520666f60448201527f722063616c6c000000000000000000000000000000000000000000000000000060648201526084016116f0565b6001600160a01b0385163b6117e15760405162461bcd60e51b815260206004820152601d60248201527f416464726573733a2063616c6c20746f206e6f6e2d636f6e747261637400000060448201526064016116f0565b600080866001600160a01b031685876040516117fd9190611b6c565b60006040518083038185875af1925050503d806000811461183a576040519150601f19603f3d011682016040523d82523d6000602084013e61183f565b606091505b509150915061184f82828661185a565b979650505050505050565b6060831561186957508161170b565b8251156118795782518084602001fd5b8160405162461bcd60e51b81526004016116f09190611c48565b82805461189f90611cba565b90600052602060002090601f0160209004810192826118c15760008555611907565b82601f106118da57805160ff1916838001178555611907565b82800160010185558215611907579182015b828111156119075782518255916020019190600101906118ec565b50611913929150611917565b5090565b5b808211156119135760008155600101611918565b80356001600160a01b038116811461194357600080fd5b919050565b600060208284031215611959578081fd5b61170b8261192c565b60008060408385031215611974578081fd5b61197d8361192c565b915061198b6020840161192c565b90509250929050565b6000806000606084860312156119a8578081fd5b6119b18461192c565b92506119bf6020850161192c565b9150604084013590509250925092565b600080600080606085870312156119e4578081fd5b6119ed8561192c565b935060208501359250604085013567ffffffffffffffff80821115611a10578283fd5b818701915087601f830112611a23578283fd5b813581811115611a31578384fd5b886020828501011115611a42578384fd5b95989497505060200194505050565b600060208284031215611a62578081fd5b815161170b81611d26565b60008060408385031215611a7f578182fd5b8235611a8a81611d26565b91506020830135611a9a81611d26565b809150509250929050565b600060208284031215611ab6578081fd5b5035919050565b600060208284031215611ace578081fd5b5051919050565b60008060408385031215611ae7578182fd5b8235915061198b6020840161192c565b60008060008060808587031215611b0c578384fd5b84359350602085013592506040850135611b2581611d26565b91506060850135611b3581611d26565b939692955090935050565b60008151808452611b58816020860160208601611c8a565b601f01601f19169290920160200192915050565b60008251611b7e818460208701611c8a565b9190910192915050565b6001600160a01b0385168152836020820152608060408201526000611bb06080830185611b40565b9050821515606083015295945050505050565b6020808252825182820181905260009190848201906040850190845b81811015611c045783516001600160a01b031683529284019291840191600101611bdf565b50909695505050505050565b6020808252825182820181905260009190848201906040850190845b81811015611c0457835183529284019291840191600101611c2c565b60208152600061170b6020830184611b40565b60008219821115611c6e57611c6e611d10565b500190565b600082821015611c8557611c85611d10565b500390565b60005b83811015611ca5578181015183820152602001611c8d565b83811115611cb4576000848401525b50505050565b600181811c90821680611cce57607f821691505b60208210811415611cef57634e487b7160e01b600052602260045260246000fd5b50919050565b6000600019821415611d0957611d09611d10565b5060010190565b634e487b7160e01b600052601160045260246000fd5b8015158114611d3457600080fd5b5056fea26469706673582212209989f216629d72d6a950d2593a8cad864174704657eddfa527b10fad08dd83cc64736f6c63430008040033",
  "linkReferences": {},
  "deployedLinkReferences": {}
}