{
  "_format": "hh-sol-artifact-1",
  "contractName": "Vault",
  "sourceName": "contracts/v3/Vault.sol",
  "abi": [
    {
      "inputs": [
        {
          "internalType": "address",
          "name": "_depositToken",
          "type": "address"
        },
        {
          "internalType": "address",
          "name": "_vaultToken",
          "type": "address"
        },
        {
          "internalType": "address",
          "name": "_manager",
          "type": "address"
        }
      ],
      "stateMutability": "nonpayable",
      "type": "constructor"
    },
    {
      "anonymous": false,
      "inputs": [
        {
          "indexed": true,
          "internalType": "address",
          "name": "account",
          "type": "address"
        },
        {
          "indexed": false,
          "internalType": "uint256",
          "name": "amount",
          "type": "uint256"
        }
      ],
      "name": "Deposit",
      "type": "event"
    },
    {
      "anonymous": false,
      "inputs": [
        {
          "indexed": true,
          "internalType": "address",
          "name": "token",
          "type": "address"
        },
        {
          "indexed": false,
          "internalType": "uint256",
          "name": "amount",
          "type": "uint256"
        }
      ],
      "name": "Earn",
      "type": "event"
    },
    {
      "anonymous": false,
      "inputs": [
        {
          "indexed": true,
          "internalType": "address",
          "name": "account",
          "type": "address"
        },
        {
          "indexed": false,
          "internalType": "uint256",
          "name": "amount",
          "type": "uint256"
        }
      ],
      "name": "Withdraw",
      "type": "event"
    },
    {
      "inputs": [],
      "name": "MAX",
      "outputs": [
        {
          "internalType": "uint256",
          "name": "",
          "type": "uint256"
        }
      ],
      "stateMutability": "view",
      "type": "function"
    },
    {
      "inputs": [],
      "name": "available",
      "outputs": [
        {
          "internalType": "uint256",
          "name": "",
          "type": "uint256"
        }
      ],
      "stateMutability": "view",
      "type": "function"
    },
    {
      "inputs": [],
      "name": "balance",
      "outputs": [
        {
          "internalType": "uint256",
          "name": "_balance",
          "type": "uint256"
        }
      ],
      "stateMutability": "view",
      "type": "function"
    },
    {
      "inputs": [],
      "name": "balanceOfThis",
      "outputs": [
        {
          "internalType": "uint256",
          "name": "",
          "type": "uint256"
        }
      ],
      "stateMutability": "view",
      "type": "function"
    },
    {
      "inputs": [
        {
          "internalType": "uint256",
          "name": "_amount",
          "type": "uint256"
        }
      ],
      "name": "deposit",
      "outputs": [
        {
          "internalType": "uint256",
          "name": "_shares",
          "type": "uint256"
        }
      ],
      "stateMutability": "nonpayable",
      "type": "function"
    },
    {
      "inputs": [
        {
          "internalType": "address",
          "name": "_strategy",
          "type": "address"
        }
      ],
      "name": "earn",
      "outputs": [],
      "stateMutability": "nonpayable",
      "type": "function"
    },
    {
      "inputs": [],
      "name": "gauge",
      "outputs": [
        {
          "internalType": "address",
          "name": "",
          "type": "address"
        }
      ],
      "stateMutability": "view",
      "type": "function"
    },
    {
      "inputs": [],
      "name": "getLPToken",
      "outputs": [
        {
          "internalType": "address",
          "name": "",
          "type": "address"
        }
      ],
      "stateMutability": "view",
      "type": "function"
    },
    {
      "inputs": [],
      "name": "getPricePerFullShare",
      "outputs": [
        {
          "internalType": "uint256",
          "name": "",
          "type": "uint256"
        }
      ],
      "stateMutability": "view",
      "type": "function"
    },
    {
      "inputs": [],
      "name": "getToken",
      "outputs": [
        {
          "internalType": "address",
          "name": "",
          "type": "address"
        }
      ],
      "stateMutability": "view",
      "type": "function"
    },
    {
      "inputs": [],
      "name": "manager",
      "outputs": [
        {
          "internalType": "contract IManager",
          "name": "",
          "type": "address"
        }
      ],
      "stateMutability": "view",
      "type": "function"
    },
    {
      "inputs": [],
      "name": "min",
      "outputs": [
        {
          "internalType": "uint256",
          "name": "",
          "type": "uint256"
        }
      ],
      "stateMutability": "view",
      "type": "function"
    },
    {
      "inputs": [
        {
          "internalType": "address",
          "name": "_gauge",
          "type": "address"
        }
      ],
      "name": "setGauge",
      "outputs": [],
      "stateMutability": "nonpayable",
      "type": "function"
    },
    {
      "inputs": [
        {
          "internalType": "uint256",
          "name": "_min",
          "type": "uint256"
        }
      ],
      "name": "setMin",
      "outputs": [],
      "stateMutability": "nonpayable",
      "type": "function"
    },
    {
      "inputs": [
        {
          "internalType": "uint256",
          "name": "_totalDepositCap",
          "type": "uint256"
        }
      ],
      "name": "setTotalDepositCap",
      "outputs": [],
      "stateMutability": "nonpayable",
      "type": "function"
    },
    {
      "inputs": [],
      "name": "token",
      "outputs": [
        {
          "internalType": "contract IERC20",
          "name": "",
          "type": "address"
        }
      ],
      "stateMutability": "view",
      "type": "function"
    },
    {
      "inputs": [],
      "name": "totalDepositCap",
      "outputs": [
        {
          "internalType": "uint256",
          "name": "",
          "type": "uint256"
        }
      ],
      "stateMutability": "view",
      "type": "function"
    },
    {
      "inputs": [],
      "name": "vaultToken",
      "outputs": [
        {
          "internalType": "contract IVaultToken",
          "name": "",
          "type": "address"
        }
      ],
      "stateMutability": "view",
      "type": "function"
    },
    {
      "inputs": [
        {
          "internalType": "uint256",
          "name": "_shares",
          "type": "uint256"
        }
      ],
      "name": "withdraw",
      "outputs": [],
      "stateMutability": "nonpayable",
      "type": "function"
    },
    {
      "inputs": [],
      "name": "withdrawAll",
      "outputs": [],
      "stateMutability": "nonpayable",
      "type": "function"
    },
    {
      "inputs": [
        {
          "internalType": "uint256",
          "name": "_amount",
          "type": "uint256"
        }
      ],
      "name": "withdrawFee",
      "outputs": [
        {
          "internalType": "uint256",
          "name": "",
          "type": "uint256"
        }
      ],
      "stateMutability": "view",
      "type": "function"
    }
  ],
  "bytecode": "0x60e060405234801561001057600080fd5b506040516123b63803806123b68339818101604052606081101561003357600080fd5b50805160208201516040909201516001600160601b0319606082811b821660805283811b821660a05284901b1660c05261251c6001556a084595161401484a0000006002556001600160a01b03908116929181169116612256610160600039806102e55280610384528061083d5280610cc15280610ce85280610da0528061129352806113f75250806102bb52806104c65280610690528061071352806107d85280610a665280610e45528061111c52806111c252806111f052806116a15280611a515280611a8a5280611b295280611cbd525080610415528061056b528061086152806109215280610a345280610b0a5280610bca5280610ef7528061100e52806114a2528061150752806115c752806116c552806117855280611853528061192c52506122566000f3fe608060405234801561001057600080fd5b50600436106101375760003560e01c8063853828b6116100b8578063be3576161161007c578063be35761614610241578063d49d51811461025e578063ebbf5c1714610266578063f889794514610283578063fc0c546a1461028b578063fdb5fefc1461029357610137565b8063853828b614610204578063999eb6b11461020c578063a6f19c8414610214578063b69ef8a81461021c578063b6b55f251461022457610137565b806348a0d754116100ff57806348a0d754146101ac57806355a68ed3146101c65780635db88e85146101ec578063703bafd5146101f457806377c7b8fc146101fc57610137565b806321df0da71461013c5780632e1a7d4d146101605780633c1aa9251461017f57806345dc3dd814610187578063481c6a75146101a4575b600080fd5b6101446102b9565b604080516001600160a01b039092168252519081900360200190f35b61017d6004803603602081101561017657600080fd5b50356102de565b005b61014461083b565b61017d6004803603602081101561019d57600080fd5b503561085f565b610144610a32565b6101b4610a56565b60408051918252519081900360200190f35b61017d600480360360208110156101dc57600080fd5b50356001600160a01b0316610b08565b6101b4610cb9565b610144610cbf565b6101b4610ce3565b61017d610d9b565b6101b4610e3e565b610144610ee1565b6101b4610ef0565b6101b46004803603602081101561023a57600080fd5b503561100a565b6101b46004803603602081101561025757600080fd5b5035611494565b6101b46114ff565b61017d6004803603602081101561027c57600080fd5b5035611505565b6101b4611699565b61014461169f565b61017d600480360360208110156102a957600080fd5b50356001600160a01b03166116c3565b7f00000000000000000000000000000000000000000000000000000000000000005b90565b60006103807f00000000000000000000000000000000000000000000000000000000000000006001600160a01b03166318160ddd6040518163ffffffff1660e01b815260040160206040518083038186803b15801561033c57600080fd5b505afa158015610350573d6000803e3d6000fd5b505050506040513d602081101561036657600080fd5b505161037a84610374610ef0565b90611b7d565b90611bdd565b90507f00000000000000000000000000000000000000000000000000000000000000006001600160a01b0316639dc29fac33846040518363ffffffff1660e01b815260040180836001600160a01b0316815260200182815260200192505050600060405180830381600087803b1580156103f957600080fd5b505af115801561040d573d6000803e3d6000fd5b5050505060007f00000000000000000000000000000000000000000000000000000000000000006001600160a01b031663825139096040518163ffffffff1660e01b815260040160206040518083038186803b15801561046c57600080fd5b505afa158015610480573d6000803e3d6000fd5b505050506040513d602081101561049657600080fd5b5051905080156104c25760006104b261271061037a8585611b7d565b90506104be8382611c1f565b9250505b60007f00000000000000000000000000000000000000000000000000000000000000006001600160a01b03166370a08231306040518263ffffffff1660e01b815260040180826001600160a01b0316815260200191505060206040518083038186803b15801561053157600080fd5b505afa158015610545573d6000803e3d6000fd5b505050506040513d602081101561055b57600080fd5b50519050828110156107cb5760007f00000000000000000000000000000000000000000000000000000000000000006001600160a01b031663da8c229e306040518263ffffffff1660e01b815260040180826001600160a01b0316815260200191505060206040518083038186803b1580156105d657600080fd5b505afa1580156105ea573d6000803e3d6000fd5b505050506040513d602081101561060057600080fd5b5051905060006106108584611c1f565b90506000826001600160a01b031663d9f9027f6040518163ffffffff1660e01b815260040160206040518083038186803b15801561064d57600080fd5b505afa158015610661573d6000803e3d6000fd5b505050506040513d602081101561067757600080fd5b5051111561070f57816001600160a01b031663f3fef3a37f0000000000000000000000000000000000000000000000000000000000000000836040518363ffffffff1660e01b815260040180836001600160a01b0316815260200182815260200192505050600060405180830381600087803b1580156106f657600080fd5b505af115801561070a573d6000803e3d6000fd5b505050505b60007f00000000000000000000000000000000000000000000000000000000000000006001600160a01b03166370a08231306040518263ffffffff1660e01b815260040180826001600160a01b0316815260200191505060206040518083038186803b15801561077e57600080fd5b505afa158015610792573d6000803e3d6000fd5b505050506040513d60208110156107a857600080fd5b5051905060006107b88286611c1f565b9050828110156107c6578196505b505050505b6107ff6001600160a01b037f0000000000000000000000000000000000000000000000000000000000000000163385611c61565b60408051848152905133917f884edad9ce6fa2440d8a54cc123490eb96d2768479d49ff9c7366125a9424364919081900360200190a250505050565b7f000000000000000000000000000000000000000000000000000000000000000090565b7f00000000000000000000000000000000000000000000000000000000000000006001600160a01b031663b9b8af0b6040518163ffffffff1660e01b815260040160206040518083038186803b1580156108b857600080fd5b505afa1580156108cc573d6000803e3d6000fd5b505050506040513d60208110156108e257600080fd5b50511561091f576040805162461bcd60e51b81526020600482015260066024820152651a185b1d195960d21b604482015290519081900360640190fd5b7f00000000000000000000000000000000000000000000000000000000000000006001600160a01b0316631fe4a6866040518163ffffffff1660e01b815260040160206040518083038186803b15801561097857600080fd5b505afa15801561098c573d6000803e3d6000fd5b505050506040513d60208110156109a257600080fd5b50516001600160a01b031633146109ee576040805162461bcd60e51b815260206004820152600b60248201526a085cdd1c985d1959da5cdd60aa1b604482015290519081900360640190fd5b612710811115610a2d576040805162461bcd60e51b815260206004820152600560248201526410afb6b4b760d91b604482015290519081900360640190fd5b600155565b7f000000000000000000000000000000000000000000000000000000000000000081565b6000610b0361271061037a6001547f00000000000000000000000000000000000000000000000000000000000000006001600160a01b03166370a08231306040518263ffffffff1660e01b815260040180826001600160a01b0316815260200191505060206040518083038186803b158015610ad157600080fd5b505afa158015610ae5573d6000803e3d6000fd5b505050506040513d6020811015610afb57600080fd5b505190611b7d565b905090565b7f00000000000000000000000000000000000000000000000000000000000000006001600160a01b031663b9b8af0b6040518163ffffffff1660e01b815260040160206040518083038186803b158015610b6157600080fd5b505afa158015610b75573d6000803e3d6000fd5b505050506040513d6020811015610b8b57600080fd5b505115610bc8576040805162461bcd60e51b81526020600482015260066024820152651a185b1d195960d21b604482015290519081900360640190fd5b7f00000000000000000000000000000000000000000000000000000000000000006001600160a01b0316631fe4a6866040518163ffffffff1660e01b815260040160206040518083038186803b158015610c2157600080fd5b505afa158015610c35573d6000803e3d6000fd5b505050506040513d6020811015610c4b57600080fd5b50516001600160a01b03163314610c97576040805162461bcd60e51b815260206004820152600b60248201526a085cdd1c985d1959da5cdd60aa1b604482015290519081900360640190fd5b600080546001600160a01b0319166001600160a01b0392909216919091179055565b60025481565b7f000000000000000000000000000000000000000000000000000000000000000081565b6000807f00000000000000000000000000000000000000000000000000000000000000006001600160a01b03166318160ddd6040518163ffffffff1660e01b815260040160206040518083038186803b158015610d3f57600080fd5b505afa158015610d53573d6000803e3d6000fd5b505050506040513d6020811015610d6957600080fd5b505190508015610d9357610d8b8161037a670de0b6b3a7640000610374610ef0565b9150506102db565b610d8b610ef0565b610e3c7f00000000000000000000000000000000000000000000000000000000000000006001600160a01b03166370a08231336040518263ffffffff1660e01b815260040180826001600160a01b0316815260200191505060206040518083038186803b158015610e0b57600080fd5b505afa158015610e1f573d6000803e3d6000fd5b505050506040513d6020811015610e3557600080fd5b50516102de565b565b6000610b037f00000000000000000000000000000000000000000000000000000000000000006001600160a01b03166370a08231306040518263ffffffff1660e01b815260040180826001600160a01b0316815260200191505060206040518083038186803b158015610eb057600080fd5b505afa158015610ec4573d6000803e3d6000fd5b505050506040513d6020811015610eda57600080fd5b5051611cb8565b6000546001600160a01b031681565b6000610b037f00000000000000000000000000000000000000000000000000000000000000006001600160a01b031663da8c229e306040518263ffffffff1660e01b815260040180826001600160a01b0316815260200191505060206040518083038186803b158015610f6257600080fd5b505afa158015610f76573d6000803e3d6000fd5b505050506040513d6020811015610f8c57600080fd5b50516040805163722713f760e01b815290516001600160a01b039092169163722713f791600480820192602092909190829003018186803b158015610fd057600080fd5b505afa158015610fe4573d6000803e3d6000fd5b505050506040513d6020811015610ffa57600080fd5b5051611004610e3e565b90611d69565b60007f00000000000000000000000000000000000000000000000000000000000000006001600160a01b031663b9b8af0b6040518163ffffffff1660e01b815260040160206040518083038186803b15801561106557600080fd5b505afa158015611079573d6000803e3d6000fd5b505050506040513d602081101561108f57600080fd5b5051156110cc576040805162461bcd60e51b81526020600482015260066024820152651a185b1d195960d21b604482015290519081900360640190fd5b6000821161110c576040805162461bcd60e51b81526020600482015260086024820152670857d85b5bdd5b9d60c21b604482015290519081900360640190fd5b6000611116610ef0565b905060007f00000000000000000000000000000000000000000000000000000000000000006001600160a01b03166370a08231306040518263ffffffff1660e01b815260040180826001600160a01b0316815260200191505060206040518083038186803b15801561118757600080fd5b505afa15801561119b573d6000803e3d6000fd5b505050506040513d60208110156111b157600080fd5b505190506111ea6001600160a01b037f000000000000000000000000000000000000000000000000000000000000000016333087611dc3565b61128d817f00000000000000000000000000000000000000000000000000000000000000006001600160a01b03166370a08231306040518263ffffffff1660e01b815260040180826001600160a01b0316815260200191505060206040518083038186803b15801561125b57600080fd5b505afa15801561126f573d6000803e3d6000fd5b505050506040513d602081101561128557600080fd5b505190611c1f565b935060007f00000000000000000000000000000000000000000000000000000000000000006001600160a01b03166318160ddd6040518163ffffffff1660e01b815260040160206040518083038186803b1580156112ea57600080fd5b505afa1580156112fe573d6000803e3d6000fd5b505050506040513d602081101561131457600080fd5b5051905061132185611cb8565b9450801561133a576113378361037a8784611b7d565b94505b8493506000841161137d576040805162461bcd60e51b815260206004820152600860248201526707368617265733d360c41b604482015290519081900360640190fd5b60025461138a8286611d69565b11156113d0576040805162461bcd60e51b815260206004820152601060248201526f03e746f74616c4465706f7369744361760841b604482015290519081900360640190fd5b604080516340c10f1960e01b81523360048201526024810186905290516001600160a01b037f000000000000000000000000000000000000000000000000000000000000000016916340c10f1991604480830192600092919082900301818387803b15801561143e57600080fd5b505af1158015611452573d6000803e3d6000fd5b50506040805187815290513393507fe1fffcc4923d04b559f4d29a8bfc6cda04eb5b0d3c460751c2402c5c5cc9109c92509081900360200190a2505050919050565b60006114f961271061037a847f00000000000000000000000000000000000000000000000000000000000000006001600160a01b031663825139096040518163ffffffff1660e01b815260040160206040518083038186803b158015610ad157600080fd5b92915050565b61271081565b7f00000000000000000000000000000000000000000000000000000000000000006001600160a01b031663b9b8af0b6040518163ffffffff1660e01b815260040160206040518083038186803b15801561155e57600080fd5b505afa158015611572573d6000803e3d6000fd5b505050506040513d602081101561158857600080fd5b5051156115c5576040805162461bcd60e51b81526020600482015260066024820152651a185b1d195960d21b604482015290519081900360640190fd5b7f00000000000000000000000000000000000000000000000000000000000000006001600160a01b0316631fe4a6866040518163ffffffff1660e01b815260040160206040518083038186803b15801561161e57600080fd5b505afa158015611632573d6000803e3d6000fd5b505050506040513d602081101561164857600080fd5b50516001600160a01b03163314611694576040805162461bcd60e51b815260206004820152600b60248201526a085cdd1c985d1959da5cdd60aa1b604482015290519081900360640190fd5b600255565b60015481565b7f000000000000000000000000000000000000000000000000000000000000000081565b7f00000000000000000000000000000000000000000000000000000000000000006001600160a01b031663b9b8af0b6040518163ffffffff1660e01b815260040160206040518083038186803b15801561171c57600080fd5b505afa158015611730573d6000803e3d6000fd5b505050506040513d602081101561174657600080fd5b505115611783576040805162461bcd60e51b81526020600482015260066024820152651a185b1d195960d21b604482015290519081900360640190fd5b7f00000000000000000000000000000000000000000000000000000000000000006001600160a01b0316634bdaeac16040518163ffffffff1660e01b815260040160206040518083038186803b1580156117dc57600080fd5b505afa1580156117f0573d6000803e3d6000fd5b505050506040513d602081101561180657600080fd5b50516001600160a01b03163314611851576040805162461bcd60e51b815260206004820152600a60248201526910b430b93b32b9ba32b960b11b604482015290519081900360640190fd5b7f00000000000000000000000000000000000000000000000000000000000000006001600160a01b0316637ae6c8d4826040518263ffffffff1660e01b815260040180826001600160a01b0316815260200191505060206040518083038186803b1580156118be57600080fd5b505afa1580156118d2573d6000803e3d6000fd5b505050506040513d60208110156118e857600080fd5b5051611928576040805162461bcd60e51b815260206004820152600a602482015269215f737472617465677960b01b604482015290519081900360640190fd5b60007f00000000000000000000000000000000000000000000000000000000000000006001600160a01b031663da8c229e306040518263ffffffff1660e01b815260040180826001600160a01b0316815260200191505060206040518083038186803b15801561199757600080fd5b505afa1580156119ab573d6000803e3d6000fd5b505050506040513d60208110156119c157600080fd5b5051604080516371f4f3fb60e01b815290519192506001600160a01b038316916371f4f3fb91600480820192602092909190829003018186803b158015611a0757600080fd5b505afa158015611a1b573d6000803e3d6000fd5b505050506040513d6020811015611a3157600080fd5b505115611b79576000611a42610a56565b9050611a786001600160a01b037f0000000000000000000000000000000000000000000000000000000000000000168383611c61565b816001600160a01b03166338e88610847f0000000000000000000000000000000000000000000000000000000000000000846040518463ffffffff1660e01b815260040180846001600160a01b03168152602001836001600160a01b031681526020018281526020019350505050600060405180830381600087803b158015611b0057600080fd5b505af1158015611b14573d6000803e3d6000fd5b50506040805184815290516001600160a01b037f00000000000000000000000000000000000000000000000000000000000000001693507f9b883692663cf2cc636d9eda0392f2c7ff1a3163a5cef27fa1f8bb438ec73ab592509081900360200190a2505b5050565b600082611b8c575060006114f9565b82820282848281611b9957fe5b0414611bd65760405162461bcd60e51b81526004018080602001828103825260218152602001806121d66021913960400191505060405180910390fd5b9392505050565b6000611bd683836040518060400160405280601a81526020017f536166654d6174683a206469766973696f6e206279207a65726f000000000000815250611e23565b6000611bd683836040518060400160405280601e81526020017f536166654d6174683a207375627472616374696f6e206f766572666c6f770000815250611ec5565b604080516001600160a01b038416602482015260448082018490528251808303909101815260649091019091526020810180516001600160e01b031663a9059cbb60e01b179052611cb3908490611f1f565b505050565b6000807f00000000000000000000000000000000000000000000000000000000000000006001600160a01b031663313ce5676040518163ffffffff1660e01b815260040160206040518083038186803b158015611d1457600080fd5b505afa158015611d28573d6000803e3d6000fd5b505050506040513d6020811015611d3e57600080fd5b505160ff1690506012811015611d6257611d5f836012839003600a0a611b7d565b92505b5090919050565b600082820183811015611bd6576040805162461bcd60e51b815260206004820152601b60248201527f536166654d6174683a206164646974696f6e206f766572666c6f770000000000604482015290519081900360640190fd5b604080516001600160a01b0380861660248301528416604482015260648082018490528251808303909101815260849091019091526020810180516001600160e01b03166323b872dd60e01b179052611e1d908590611f1f565b50505050565b60008183611eaf5760405162461bcd60e51b81526004018080602001828103825283818151815260200191508051906020019080838360005b83811015611e74578181015183820152602001611e5c565b50505050905090810190601f168015611ea15780820380516001836020036101000a031916815260200191505b509250505060405180910390fd5b506000838581611ebb57fe5b0495945050505050565b60008184841115611f175760405162461bcd60e51b8152602060048201818152835160248401528351909283926044909101919085019080838360008315611e74578181015183820152602001611e5c565b505050900390565b6060611f74826040518060400160405280602081526020017f5361666545524332303a206c6f772d6c6576656c2063616c6c206661696c6564815250856001600160a01b0316611fd09092919063ffffffff16565b805190915015611cb357808060200190516020811015611f9357600080fd5b5051611cb35760405162461bcd60e51b815260040180806020018281038252602a8152602001806121f7602a913960400191505060405180910390fd5b6060611fdf8484600085611fe7565b949350505050565b6060824710156120285760405162461bcd60e51b81526004018080602001828103825260268152602001806121b06026913960400191505060405180910390fd5b61203185612143565b612082576040805162461bcd60e51b815260206004820152601d60248201527f416464726573733a2063616c6c20746f206e6f6e2d636f6e7472616374000000604482015290519081900360640190fd5b60006060866001600160a01b031685876040518082805190602001908083835b602083106120c15780518252601f1990920191602091820191016120a2565b6001836020036101000a03801982511681845116808217855250505050505090500191505060006040518083038185875af1925050503d8060008114612123576040519150601f19603f3d011682016040523d82523d6000602084013e612128565b606091505b5091509150612138828286612149565b979650505050505050565b3b151590565b60608315612158575081611bd6565b8251156121685782518084602001fd5b60405162461bcd60e51b8152602060048201818152845160248401528451859391928392604401919085019080838360008315611e74578181015183820152602001611e5c56fe416464726573733a20696e73756666696369656e742062616c616e636520666f722063616c6c536166654d6174683a206d756c7469706c69636174696f6e206f766572666c6f775361666545524332303a204552433230206f7065726174696f6e20646964206e6f742073756363656564a26469706673582212207dfaea58e5ce1b9a2194808d134f0d4b27caad70b0f62fe8928fbfe591a9caa464736f6c634300060c0033",
  "linkReferences": {},
  "deployedLinkReferences": {}
}