{
  "_format": "hh-sol-artifact-1",
  "contractName": "ChainlinkOracleProvider",
  "sourceName": "contracts/oracles/ChainlinkOracleProvider.sol",
  "abi": [
    {
      "inputs": [
        {
          "internalType": "contract IRoleManager",
          "name": "roleManager",
          "type": "address"
        },
        {
          "internalType": "address",
          "name": "ethFeed",
          "type": "address"
        }
      ],
      "stateMutability": "nonpayable",
      "type": "constructor"
    },
    {
      "anonymous": false,
      "inputs": [
        {
          "indexed": true,
          "internalType": "address",
          "name": "asset",
          "type": "address"
        },
        {
          "indexed": true,
          "internalType": "address",
          "name": "previousFeed",
          "type": "address"
        },
        {
          "indexed": true,
          "internalType": "address",
          "name": "newFeed",
          "type": "address"
        }
      ],
      "name": "FeedUpdated",
      "type": "event"
    },
    {
      "inputs": [
        {
          "internalType": "address",
          "name": "",
          "type": "address"
        }
      ],
      "name": "feeds",
      "outputs": [
        {
          "internalType": "address",
          "name": "",
          "type": "address"
        }
      ],
      "stateMutability": "view",
      "type": "function"
    },
    {
      "inputs": [
        {
          "internalType": "address",
          "name": "asset",
          "type": "address"
        }
      ],
      "name": "getPriceETH",
      "outputs": [
        {
          "internalType": "uint256",
          "name": "",
          "type": "uint256"
        }
      ],
      "stateMutability": "view",
      "type": "function"
    },
    {
      "inputs": [
        {
          "internalType": "address",
          "name": "asset",
          "type": "address"
        }
      ],
      "name": "getPriceUSD",
      "outputs": [
        {
          "internalType": "uint256",
          "name": "",
          "type": "uint256"
        }
      ],
      "stateMutability": "view",
      "type": "function"
    },
    {
      "inputs": [],
      "name": "roleManager",
      "outputs": [
        {
          "internalType": "contract IRoleManager",
          "name": "",
          "type": "address"
        }
      ],
      "stateMutability": "view",
      "type": "function"
    },
    {
      "inputs": [
        {
          "internalType": "address",
          "name": "asset",
          "type": "address"
        },
        {
          "internalType": "address",
          "name": "feed",
          "type": "address"
        }
      ],
      "name": "setFeed",
      "outputs": [],
      "stateMutability": "nonpayable",
      "type": "function"
    },
    {
      "inputs": [
        {
          "internalType": "uint256",
          "name": "stalePriceDelay_",
          "type": "uint256"
        }
      ],
      "name": "setStalePriceDelay",
      "outputs": [],
      "stateMutability": "nonpayable",
      "type": "function"
    },
    {
      "inputs": [],
      "name": "stalePriceDelay",
      "outputs": [
        {
          "internalType": "uint256",
          "name": "",
          "type": "uint256"
        }
      ],
      "stateMutability": "view",
      "type": "function"
    }
  ],
  "bytecode": "0x60a060405234801561001057600080fd5b50604051610b62380380610b6283398101604081905261002f916100a1565b6001600160a01b03918216608052600080805260016020527fa6eef7e35abe7026729641147f7915573c7e97b47efa546f5f6e3230263bcb4980546001600160a01b0319169290931691909117909155611c2090556100db565b6001600160a01b038116811461009e57600080fd5b50565b600080604083850312156100b457600080fd5b82516100bf81610089565b60208401519092506100d081610089565b809150509250929050565b608051610a5f6101036000396000818160830152818161015001526102a10152610a5f6000f3fe608060405234801561001057600080fd5b506004361061007c5760003560e01c806340b1eb101161005b57806340b1eb10146100fe5780635647a646146101115780635708447d14610128578063e5ec9db91461013b57600080fd5b8062435da5146100815780632fba4aa9146100c05780633a150b69146100e9575b600080fd5b7f00000000000000000000000000000000000000000000000000000000000000005b6040516001600160a01b0390911681526020015b60405180910390f35b6100a36100ce366004610732565b6001602052600090815260409020546001600160a01b031681565b6100fc6100f7366004610754565b61014e565b005b6100fc61010c36600461076d565b61029f565b61011a60005481565b6040519081526020016100b7565b61011a610136366004610732565b610461565b61011a610149366004610732565b610677565b7f0000000000000000000000000000000000000000000000000000000000000000604051632474521560e21b815269676f7665726e616e636560b01b60048201523360248201526001600160a01b0391909116906391d148549060440160206040518083038186803b1580156101c357600080fd5b505afa1580156101d7573d6000803e3d6000fd5b505050506040513d601f19601f820116820180604052508101906101fb91906107a0565b60405180604001604052806013815260200172756e617574686f72697a65642061636365737360681b8152509061024e5760405162461bcd60e51b815260040161024591906107c2565b60405180910390fd5b5060408051808201909152601081526f1a5b9d985b1a5908185c99dd5b595b9d60821b6020820152610e108210156102995760405162461bcd60e51b815260040161024591906107c2565b50600055565b7f0000000000000000000000000000000000000000000000000000000000000000604051632474521560e21b815269676f7665726e616e636560b01b60048201523360248201526001600160a01b0391909116906391d148549060440160206040518083038186803b15801561031457600080fd5b505afa158015610328573d6000803e3d6000fd5b505050506040513d601f19601f8201168201806040525081019061034c91906107a0565b60405180604001604052806013815260200172756e617574686f72697a65642061636365737360681b815250906103965760405162461bcd60e51b815260040161024591906107c2565b506001600160a01b03808316600090815260016020908152604091829020548251808401909352601083526f1a5b9d985b1a5908185c99dd5b595b9d60821b9183019190915282169183168214156104015760405162461bcd60e51b815260040161024591906107c2565b506001600160a01b0383811660008181526001602052604080822080546001600160a01b03191687861690811790915590519093851692917f321e37f6a0404dbaed483cc2ece840899199567b4a62f4639eff9587735b87fd91a4505050565b6001600160a01b0380821660009081526001602090815260408083205481518083019092526013825272105cdcd95d081b9bdd081cdd5c1c1bdc9d1959606a1b9282019290925291921690816104ca5760405162461bcd60e51b815260040161024591906107c2565b50600080826001600160a01b031663feaf968c6040518163ffffffff1660e01b815260040160a06040518083038186803b15801561050757600080fd5b505afa15801561051b573d6000803e3d6000fd5b505050506040513d601f19601f8201168201806040525081019061053f9190610831565b50935050925050600054816105549190610897565b4211156040518060400160405280600e81526020016d5072696365206973207374616c6560901b8152509061059c5760405162461bcd60e51b815260040161024591906107c2565b506040805180820190915260118152705072696365206973206e6567617469766560781b602082015260008312156105e75760405162461bcd60e51b815260040161024591906107c2565b5060008290506000846001600160a01b031663313ce5676040518163ffffffff1660e01b815260040160206040518083038186803b15801561062857600080fd5b505afa15801561063c573d6000803e3d6000fd5b505050506040513d601f19601f8201168201806040525081019061066091906108af565b905061066c82826106ae565b979650505050505050565b60006106836000610461565b61068c83610461565b61069e90670de0b6b3a76400006108d2565b6106a891906108f1565b92915050565b600060ff8216601214156106c35750816106a8565b601260ff831611156106f6576106da601283610913565b6106e590600a610a1a565b6106ef90846108f1565b90506106a8565b610701826012610913565b61070c90600a610a1a565b6106ef90846108d2565b80356001600160a01b038116811461072d57600080fd5b919050565b60006020828403121561074457600080fd5b61074d82610716565b9392505050565b60006020828403121561076657600080fd5b5035919050565b6000806040838503121561078057600080fd5b61078983610716565b915061079760208401610716565b90509250929050565b6000602082840312156107b257600080fd5b8151801515811461074d57600080fd5b600060208083528351808285015260005b818110156107ef578581018301518582016040015282016107d3565b81811115610801576000604083870101525b50601f01601f1916929092016040019392505050565b805169ffffffffffffffffffff8116811461072d57600080fd5b600080600080600060a0868803121561084957600080fd5b61085286610817565b945060208601519350604086015192506060860151915061087560808701610817565b90509295509295909350565b634e487b7160e01b600052601160045260246000fd5b600082198211156108aa576108aa610881565b500190565b6000602082840312156108c157600080fd5b815160ff8116811461074d57600080fd5b60008160001904831182151516156108ec576108ec610881565b500290565b60008261090e57634e487b7160e01b600052601260045260246000fd5b500490565b600060ff821660ff84168082101561092d5761092d610881565b90039392505050565b600181815b8085111561097157816000190482111561095757610957610881565b8085161561096457918102915b93841c939080029061093b565b509250929050565b600082610988575060016106a8565b81610995575060006106a8565b81600181146109ab57600281146109b5576109d1565b60019150506106a8565b60ff8411156109c6576109c6610881565b50506001821b6106a8565b5060208310610133831016604e8410600b84101617156109f4575081810a6106a8565b6109fe8383610936565b8060001904821115610a1257610a12610881565b029392505050565b600061074d60ff84168361097956fea2646970667358221220d0a69f4350b63c0bf1d4096796d653d91b37eb9287412e7d6f26890dc5f1f22164736f6c63430008090033",
  "linkReferences": {},
  "deployedLinkReferences": {}
}