{
  "_format": "hh-sol-artifact-1",
  "contractName": "StrategyMock",
  "sourceName": "contracts/util/StrategyMock.sol",
  "abi": [
    {
      "inputs": [
        {
          "internalType": "contract ERC20",
          "name": "_want",
          "type": "address"
        },
        {
          "internalType": "address",
          "name": "_sherlock",
          "type": "address"
        }
      ],
      "stateMutability": "nonpayable",
      "type": "constructor"
    },
    {
      "inputs": [],
      "name": "balanceOf",
      "outputs": [
        {
          "internalType": "uint256",
          "name": "",
          "type": "uint256"
        }
      ],
      "stateMutability": "view",
      "type": "function"
    },
    {
      "inputs": [],
      "name": "deposit",
      "outputs": [],
      "stateMutability": "nonpayable",
      "type": "function"
    },
    {
      "inputs": [],
      "name": "want",
      "outputs": [
        {
          "internalType": "contract ERC20",
          "name": "",
          "type": "address"
        }
      ],
      "stateMutability": "view",
      "type": "function"
    },
    {
      "inputs": [
        {
          "internalType": "uint256",
          "name": "_amount",
          "type": "uint256"
        }
      ],
      "name": "withdraw",
      "outputs": [],
      "stateMutability": "nonpayable",
      "type": "function"
    },
    {
      "inputs": [],
      "name": "withdrawAll",
      "outputs": [
        {
          "internalType": "uint256",
          "name": "balance",
          "type": "uint256"
        }
      ],
      "stateMutability": "nonpayable",
      "type": "function"
    }
  ],
  "bytecode": "0x608060405234801561001057600080fd5b506040516105bc3803806105bc8339818101604052604081101561003357600080fd5b508051602090910151600080546001600160a01b039384166001600160a01b031991821617909155600180549390921692169190911790556105428061007a6000396000f3fe608060405234801561001057600080fd5b50600436106100575760003560e01c80631f1fcd511461005c5780632e1a7d4d14610080578063722713f71461009f578063853828b6146100b9578063d0e30db0146100c1575b600080fd5b6100646100c9565b604080516001600160a01b039092168252519081900360200190f35b61009d6004803603602081101561009657600080fd5b50356100d8565b005b6100a76100f2565b60408051918252519081900360200190f35b6100a7610170565b61009d610194565b6000546001600160a01b031681565b6000546100ef906001600160a01b03163383610196565b50565b60008054604080516370a0823160e01b815230600482015290516001600160a01b03909216916370a0823191602480820192602092909190829003018186803b15801561013e57600080fd5b505afa158015610152573d6000803e3d6000fd5b505050506040513d602081101561016857600080fd5b505190505b90565b600061017a6100f2565b60005490915061016d906001600160a01b03163383610196565b565b604080516001600160a01b038416602482015260448082018490528251808303909101815260649091019091526020810180516001600160e01b031663a9059cbb60e01b1790526101e89084906101ed565b505050565b6000610242826040518060400160405280602081526020017f5361666545524332303a206c6f772d6c6576656c2063616c6c206661696c6564815250856001600160a01b031661029e9092919063ffffffff16565b8051909150156101e85780806020019051602081101561026157600080fd5b50516101e85760405162461bcd60e51b815260040180806020018281038252602a8152602001806104e3602a913960400191505060405180910390fd5b60606102ad84846000856102b7565b90505b9392505050565b6060824710156102f85760405162461bcd60e51b81526004018080602001828103825260268152602001806104bd6026913960400191505060405180910390fd5b61030185610412565b610352576040805162461bcd60e51b815260206004820152601d60248201527f416464726573733a2063616c6c20746f206e6f6e2d636f6e7472616374000000604482015290519081900360640190fd5b600080866001600160a01b031685876040518082805190602001908083835b602083106103905780518252601f199092019160209182019101610371565b6001836020036101000a03801982511681845116808217855250505050505090500191505060006040518083038185875af1925050503d80600081146103f2576040519150601f19603f3d011682016040523d82523d6000602084013e6103f7565b606091505b5091509150610407828286610418565b979650505050505050565b3b151590565b606083156104275750816102b0565b8251156104375782518084602001fd5b8160405162461bcd60e51b81526004018080602001828103825283818151815260200191508051906020019080838360005b83811015610481578181015183820152602001610469565b50505050905090810190601f1680156104ae5780820380516001836020036101000a031916815260200191505b509250505060405180910390fdfe416464726573733a20696e73756666696369656e742062616c616e636520666f722063616c6c5361666545524332303a204552433230206f7065726174696f6e20646964206e6f742073756363656564a264697066735822122077a475e87524e1e9e779237ef0a82213d7b20a21a015c4c52b140ef537ffc4e664736f6c63430007060033",
  "linkReferences": {},
  "deployedLinkReferences": {}
}