{
  "_format": "hh-sol-artifact-1",
  "contractName": "MockVisorService",
  "sourceName": "contracts/mock/MockVisorService.sol",
  "abi": [
    {
      "inputs": [],
      "stateMutability": "nonpayable",
      "type": "constructor"
    },
    {
      "anonymous": false,
      "inputs": [
        {
          "indexed": false,
          "internalType": "address",
          "name": "token",
          "type": "address"
        },
        {
          "indexed": false,
          "internalType": "address",
          "name": "operator",
          "type": "address"
        },
        {
          "indexed": false,
          "internalType": "address",
          "name": "from",
          "type": "address"
        },
        {
          "indexed": false,
          "internalType": "address",
          "name": "to",
          "type": "address"
        },
        {
          "indexed": false,
          "internalType": "uint256",
          "name": "amount",
          "type": "uint256"
        }
      ],
      "name": "SubscriberTokensReceived",
      "type": "event"
    },
    {
      "inputs": [
        {
          "internalType": "address",
          "name": "token",
          "type": "address"
        },
        {
          "internalType": "address",
          "name": "operator",
          "type": "address"
        },
        {
          "internalType": "address",
          "name": "from",
          "type": "address"
        },
        {
          "internalType": "address",
          "name": "to",
          "type": "address"
        },
        {
          "internalType": "uint256",
          "name": "amount",
          "type": "uint256"
        },
        {
          "internalType": "bytes",
          "name": "userData",
          "type": "bytes"
        },
        {
          "internalType": "bytes",
          "name": "operatorData",
          "type": "bytes"
        }
      ],
      "name": "subscriberTokensReceived",
      "outputs": [],
      "stateMutability": "nonpayable",
      "type": "function"
    }
  ],
  "bytecode": "0x608060405234801561001057600080fd5b506101d6806100206000396000f3fe608060405234801561001057600080fd5b506004361061002b5760003560e01c80635bd84bbb14610030575b600080fd5b61012c600480360360e081101561004657600080fd5b73ffffffffffffffffffffffffffffffffffffffff8235811692602081013582169260408201358316926060830135169160808101359181019060c0810160a082013564010000000081111561009b57600080fd5b8201836020820111156100ad57600080fd5b803590602001918460018302840111640100000000831117156100cf57600080fd5b9193909290916020810190356401000000008111156100ed57600080fd5b8201836020820111156100ff57600080fd5b8035906020019184600183028401116401000000008311171561012157600080fd5b50909250905061012e565b005b6040805173ffffffffffffffffffffffffffffffffffffffff808c168252808b166020830152808a1682840152881660608201526080810187905290517f55c003ca587fb1547387744898cb6e3c039a541339119fec3db2d27bcc5d39649181900360a00190a150505050505050505056fea2646970667358221220da3a3967b7d93ea9f2e1858c53b8ed3f5d70ca969f0ba14987ef24c5185fb87f64736f6c63430007060033",
  "linkReferences": {},
  "deployedLinkReferences": {}
}