{
  "_format": "hh-sol-artifact-1",
  "contractName": "ExtendedSafeCastLibHarness",
  "sourceName": "contracts/test/libraries/ExtendedSafeCastLibHarness.sol",
  "abi": [
    {
      "inputs": [
        {
          "internalType": "uint256",
          "name": "value",
          "type": "uint256"
        }
      ],
      "name": "toUint208",
      "outputs": [
        {
          "internalType": "uint208",
          "name": "",
          "type": "uint208"
        }
      ],
      "stateMutability": "pure",
      "type": "function"
    }
  ],
  "bytecode": "0x608060405234801561001057600080fd5b50610186806100206000396000f3fe608060405234801561001057600080fd5b506004361061002b5760003560e01c8063bb33fe0814610030575b600080fd5b61004361003e366004610137565b610072565b60405179ffffffffffffffffffffffffffffffffffffffffffffffffffff909116815260200160405180910390f35b600061007d82610083565b92915050565b600079ffffffffffffffffffffffffffffffffffffffffffffffffffff821115610133576040517f08c379a000000000000000000000000000000000000000000000000000000000815260206004820152602760248201527f53616665436173743a2076616c756520646f65736e27742066697420696e203260448201527f3038206269747300000000000000000000000000000000000000000000000000606482015260840160405180910390fd5b5090565b60006020828403121561014957600080fd5b503591905056fea26469706673582212209cc000672e85c5e91bc65e11d7b2586b077e7c2d2c19b39db4c39a4ad25e09dc64736f6c63430008060033",
  "linkReferences": {},
  "deployedLinkReferences": {}
}