{
  "_format": "hh-sol-artifact-1",
  "contractName": "SafeERC20Namer",
  "sourceName": "contracts/utils/token/SafeERC20Namer.sol",
  "abi": [
    {
      "inputs": [
        {
          "internalType": "address",
          "name": "token",
          "type": "address"
        }
      ],
      "name": "tokenName",
      "outputs": [
        {
          "internalType": "string",
          "name": "",
          "type": "string"
        }
      ],
      "stateMutability": "view",
      "type": "function"
    },
    {
      "inputs": [
        {
          "internalType": "address",
          "name": "token",
          "type": "address"
        }
      ],
      "name": "tokenSymbol",
      "outputs": [
        {
          "internalType": "string",
          "name": "",
          "type": "string"
        }
      ],
      "stateMutability": "view",
      "type": "function"
    }
  ],
  "bytecode": "0x610a3b61003a600b82828239805160001a60731461002d57634e487b7160e01b600052600060045260246000fd5b30600052607381538281f3fe73000000000000000000000000000000000000000030146080604052600436106100405760003560e01c8063033b9b4f14610045578063e54f75221461006e575b600080fd5b6100586100533660046106c0565b610081565b60405161006591906107f6565b60405180910390f35b61005861007c3660046106c0565b6100d4565b606060006100af837f95d89b4100000000000000000000000000000000000000000000000000000000610117565b90508051600014156100cc576100c483610281565b9150506100cf565b90505b919050565b60606000610102837f06fdde0300000000000000000000000000000000000000000000000000000000610117565b90508051600014156100cc576100c48361028e565b60408051600481526024810182526020810180517bffffffffffffffffffffffffffffffffffffffffffffffffffffffff167fffffffff0000000000000000000000000000000000000000000000000000000085161790529051606091600091829173ffffffffffffffffffffffffffffffffffffffff87169161019b91906107da565b600060405180830381855afa9150503d80600081146101d6576040519150601f19603f3d011682016040523d82523d6000602084013e6101db565b606091505b50915091508115806101ec57508051155b1561020a57604051806020016040528060008152509250505061027b565b80516020141561023f5760008180602001905181019061022a91906106fb565b90506102358161029b565b935050505061027b565b604081511115610266578080602001905181019061025d9190610713565b9250505061027b565b60405180602001604052806000815250925050505b92915050565b60606100cc826006610485565b60606100cc826028610485565b604080516020808252818301909252606091600091906020820181803683370190505090506000805b602081101561038e5760008582602081106102ef57634e487b7160e01b600052603260045260246000fd5b1a60f81b90507fff0000000000000000000000000000000000000000000000000000000000000081161561037b578084848151811061033e57634e487b7160e01b600052603260045260246000fd5b60200101907effffffffffffffffffffffffffffffffffffffffffffffffffffffffffffff1916908160001a9053508261037781610976565b9350505b508061038681610976565b9150506102c4565b5060008167ffffffffffffffff8111156103b857634e487b7160e01b600052604160045260246000fd5b6040519080825280601f01601f1916602001820160405280156103e2576020820181803683370190505b50905060005b8281101561047c5783818151811061041057634e487b7160e01b600052603260045260246000fd5b602001015160f81c60f81b82828151811061043b57634e487b7160e01b600052603260045260246000fd5b60200101907effffffffffffffffffffffffffffffffffffffffffffffffffffffffffffff1916908160001a9053508061047481610976565b9150506103e8565b50949350505050565b60606104926002836109af565b15801561049f5750600082115b80156104ac575060288211155b6104eb576040517f08c379a00000000000000000000000000000000000000000000000000000000081526004016104e290610847565b60405180910390fd5b60008267ffffffffffffffff81111561051457634e487b7160e01b600052604160045260246000fd5b6040519080825280601f01601f19166020018201604052801561053e576020820181803683370190505b50905073ffffffffffffffffffffffffffffffffffffffff841660005b6105666002866108bb565b81101561068857600061057a82601361090c565b6105859060086108cf565b83901c9050600f600482901c1660006105a160f0841684610923565b90506105ac82610692565b866105b88660026108cf565b815181106105d657634e487b7160e01b600052603260045260246000fd5b60200101907effffffffffffffffffffffffffffffffffffffffffffffffffffffffffffff1916908160001a90535061060e81610692565b8661061a8660026108cf565b61062590600161087e565b8151811061064357634e487b7160e01b600052603260045260246000fd5b60200101907effffffffffffffffffffffffffffffffffffffffffffffffffffffffffffff1916908160001a905350505050808061068090610976565b91505061055b565b5090949350505050565b6000600a8260ff1610156106b5576106ab826030610896565b60f81b90506100cf565b6106ab826037610896565b6000602082840312156106d1578081fd5b813573ffffffffffffffffffffffffffffffffffffffff811681146106f4578182fd5b9392505050565b60006020828403121561070c578081fd5b5051919050565b600060208284031215610724578081fd5b815167ffffffffffffffff8082111561073b578283fd5b818401915084601f83011261074e578283fd5b815181811115610760576107606109ef565b604051601f82017fffffffffffffffffffffffffffffffffffffffffffffffffffffffffffffffe0908116603f011681019083821181831017156107a6576107a66109ef565b816040528281528760208487010111156107be578586fd5b6107cf836020830160208801610946565b979650505050505050565b600082516107ec818460208701610946565b9190910192915050565b6000602082528251806020840152610815816040850160208701610946565b601f017fffffffffffffffffffffffffffffffffffffffffffffffffffffffffffffffe0169190910160400192915050565b6020808252601e908201527f41646472657373537472696e675574696c3a20494e56414c49445f4c454e0000604082015260600190565b60008219821115610891576108916109c3565b500190565b600060ff821660ff84168060ff038211156108b3576108b36109c3565b019392505050565b6000826108ca576108ca6109d9565b500490565b6000817fffffffffffffffffffffffffffffffffffffffffffffffffffffffffffffffff0483118215151615610907576109076109c3565b500290565b60008282101561091e5761091e6109c3565b500390565b600060ff821660ff84168082101561093d5761093d6109c3565b90039392505050565b60005b83811015610961578181015183820152602001610949565b83811115610970576000848401525b50505050565b60007fffffffffffffffffffffffffffffffffffffffffffffffffffffffffffffffff8214156109a8576109a86109c3565b5060010190565b6000826109be576109be6109d9565b500690565b634e487b7160e01b600052601160045260246000fd5b634e487b7160e01b600052601260045260246000fd5b634e487b7160e01b600052604160045260246000fdfea2646970667358221220f881901a2c9149fbe1f390814e4662da23de11011f8a5971779684af5038836764736f6c63430008010033",
  "linkReferences": {},
  "deployedLinkReferences": {}
}