{
  "_format": "hh-sol-artifact-1",
  "contractName": "CompoundMultiOracle",
  "sourceName": "contracts/oracles/compound/CompoundMultiOracle.sol",
  "abi": [
    {
      "anonymous": false,
      "inputs": [
        {
          "indexed": true,
          "internalType": "bytes4",
          "name": "role",
          "type": "bytes4"
        },
        {
          "indexed": true,
          "internalType": "bytes4",
          "name": "newAdminRole",
          "type": "bytes4"
        }
      ],
      "name": "RoleAdminChanged",
      "type": "event"
    },
    {
      "anonymous": false,
      "inputs": [
        {
          "indexed": true,
          "internalType": "bytes4",
          "name": "role",
          "type": "bytes4"
        },
        {
          "indexed": true,
          "internalType": "address",
          "name": "account",
          "type": "address"
        },
        {
          "indexed": true,
          "internalType": "address",
          "name": "sender",
          "type": "address"
        }
      ],
      "name": "RoleGranted",
      "type": "event"
    },
    {
      "anonymous": false,
      "inputs": [
        {
          "indexed": true,
          "internalType": "bytes4",
          "name": "role",
          "type": "bytes4"
        },
        {
          "indexed": true,
          "internalType": "address",
          "name": "account",
          "type": "address"
        },
        {
          "indexed": true,
          "internalType": "address",
          "name": "sender",
          "type": "address"
        }
      ],
      "name": "RoleRevoked",
      "type": "event"
    },
    {
      "anonymous": false,
      "inputs": [
        {
          "indexed": true,
          "internalType": "bytes6",
          "name": "baseId",
          "type": "bytes6"
        },
        {
          "indexed": true,
          "internalType": "bytes6",
          "name": "kind",
          "type": "bytes6"
        },
        {
          "indexed": true,
          "internalType": "address",
          "name": "source",
          "type": "address"
        }
      ],
      "name": "SourceSet",
      "type": "event"
    },
    {
      "inputs": [],
      "name": "LOCK",
      "outputs": [
        {
          "internalType": "bytes4",
          "name": "",
          "type": "bytes4"
        }
      ],
      "stateMutability": "view",
      "type": "function"
    },
    {
      "inputs": [],
      "name": "ROOT",
      "outputs": [
        {
          "internalType": "bytes4",
          "name": "",
          "type": "bytes4"
        }
      ],
      "stateMutability": "view",
      "type": "function"
    },
    {
      "inputs": [],
      "name": "SCALE_FACTOR",
      "outputs": [
        {
          "internalType": "uint256",
          "name": "",
          "type": "uint256"
        }
      ],
      "stateMutability": "view",
      "type": "function"
    },
    {
      "inputs": [
        {
          "internalType": "bytes32",
          "name": "base",
          "type": "bytes32"
        },
        {
          "internalType": "bytes32",
          "name": "kind",
          "type": "bytes32"
        },
        {
          "internalType": "uint256",
          "name": "amount",
          "type": "uint256"
        }
      ],
      "name": "get",
      "outputs": [
        {
          "internalType": "uint256",
          "name": "value",
          "type": "uint256"
        },
        {
          "internalType": "uint256",
          "name": "updateTime",
          "type": "uint256"
        }
      ],
      "stateMutability": "view",
      "type": "function"
    },
    {
      "inputs": [
        {
          "internalType": "bytes4",
          "name": "role",
          "type": "bytes4"
        }
      ],
      "name": "getRoleAdmin",
      "outputs": [
        {
          "internalType": "bytes4",
          "name": "",
          "type": "bytes4"
        }
      ],
      "stateMutability": "view",
      "type": "function"
    },
    {
      "inputs": [
        {
          "internalType": "bytes4",
          "name": "role",
          "type": "bytes4"
        },
        {
          "internalType": "address",
          "name": "account",
          "type": "address"
        }
      ],
      "name": "grantRole",
      "outputs": [],
      "stateMutability": "nonpayable",
      "type": "function"
    },
    {
      "inputs": [
        {
          "internalType": "bytes4[]",
          "name": "roles",
          "type": "bytes4[]"
        },
        {
          "internalType": "address",
          "name": "account",
          "type": "address"
        }
      ],
      "name": "grantRoles",
      "outputs": [],
      "stateMutability": "nonpayable",
      "type": "function"
    },
    {
      "inputs": [
        {
          "internalType": "bytes4",
          "name": "role",
          "type": "bytes4"
        },
        {
          "internalType": "address",
          "name": "account",
          "type": "address"
        }
      ],
      "name": "hasRole",
      "outputs": [
        {
          "internalType": "bool",
          "name": "",
          "type": "bool"
        }
      ],
      "stateMutability": "view",
      "type": "function"
    },
    {
      "inputs": [
        {
          "internalType": "bytes4",
          "name": "role",
          "type": "bytes4"
        }
      ],
      "name": "lockRole",
      "outputs": [],
      "stateMutability": "nonpayable",
      "type": "function"
    },
    {
      "inputs": [
        {
          "internalType": "bytes32",
          "name": "base",
          "type": "bytes32"
        },
        {
          "internalType": "bytes32",
          "name": "kind",
          "type": "bytes32"
        },
        {
          "internalType": "uint256",
          "name": "amount",
          "type": "uint256"
        }
      ],
      "name": "peek",
      "outputs": [
        {
          "internalType": "uint256",
          "name": "value",
          "type": "uint256"
        },
        {
          "internalType": "uint256",
          "name": "updateTime",
          "type": "uint256"
        }
      ],
      "stateMutability": "view",
      "type": "function"
    },
    {
      "inputs": [
        {
          "internalType": "bytes4",
          "name": "role",
          "type": "bytes4"
        },
        {
          "internalType": "address",
          "name": "account",
          "type": "address"
        }
      ],
      "name": "renounceRole",
      "outputs": [],
      "stateMutability": "nonpayable",
      "type": "function"
    },
    {
      "inputs": [
        {
          "internalType": "bytes4",
          "name": "role",
          "type": "bytes4"
        },
        {
          "internalType": "address",
          "name": "account",
          "type": "address"
        }
      ],
      "name": "revokeRole",
      "outputs": [],
      "stateMutability": "nonpayable",
      "type": "function"
    },
    {
      "inputs": [
        {
          "internalType": "bytes4[]",
          "name": "roles",
          "type": "bytes4[]"
        },
        {
          "internalType": "address",
          "name": "account",
          "type": "address"
        }
      ],
      "name": "revokeRoles",
      "outputs": [],
      "stateMutability": "nonpayable",
      "type": "function"
    },
    {
      "inputs": [
        {
          "internalType": "bytes4",
          "name": "role",
          "type": "bytes4"
        },
        {
          "internalType": "bytes4",
          "name": "adminRole",
          "type": "bytes4"
        }
      ],
      "name": "setRoleAdmin",
      "outputs": [],
      "stateMutability": "nonpayable",
      "type": "function"
    },
    {
      "inputs": [
        {
          "internalType": "bytes6",
          "name": "base",
          "type": "bytes6"
        },
        {
          "internalType": "bytes6",
          "name": "kind",
          "type": "bytes6"
        },
        {
          "internalType": "address",
          "name": "source",
          "type": "address"
        }
      ],
      "name": "setSource",
      "outputs": [],
      "stateMutability": "nonpayable",
      "type": "function"
    },
    {
      "inputs": [
        {
          "internalType": "bytes6[]",
          "name": "bases",
          "type": "bytes6[]"
        },
        {
          "internalType": "bytes6[]",
          "name": "kinds",
          "type": "bytes6[]"
        },
        {
          "internalType": "address[]",
          "name": "sources_",
          "type": "address[]"
        }
      ],
      "name": "setSources",
      "outputs": [],
      "stateMutability": "nonpayable",
      "type": "function"
    },
    {
      "inputs": [
        {
          "internalType": "bytes6",
          "name": "",
          "type": "bytes6"
        },
        {
          "internalType": "bytes6",
          "name": "",
          "type": "bytes6"
        }
      ],
      "name": "sources",
      "outputs": [
        {
          "internalType": "address",
          "name": "",
          "type": "address"
        }
      ],
      "stateMutability": "view",
      "type": "function"
    }
  ],
  "bytecode": "0x60806040523480156200001157600080fd5b506200001f60003362000039565b620000336001600160e01b031980620000ae565b62000187565b62000045828262000130565b620000aa576001600160e01b031982166000818152602081815260408083206001600160a01b0386168085529252808320805460ff1916600117905551339391927fe6231789d19137da31d0550f4ba9ee379020a8cfb64cb79bf1790c996d2e616591a45b5050565b6001600160e01b03198116620000c48362000165565b6001600160e01b03191614620000aa576001600160e01b0319828116600081815260208190526040808220600101805463ffffffff191660e087901c17905551928416927fd348e2220a50b4500ec353f6e802d2f14dd1b5d6786148fd1bbcc570bf92d4739190a35050565b6001600160e01b031982166000908152602081815260408083206001600160a01b038516845290915290205460ff1692915050565b6001600160e01b03191660009081526020819052604090206001015460e01b90565b61145380620001976000396000f3fe608060405234801561001057600080fd5b506004361061011b5760003560e01c806385f5f156116100b2578063ad82110f11610081578063ce4b5bbe11610066578063ce4b5bbe14610241578063de02cde714610256578063effae353146102695761011b565b8063ad82110f1461021b578063ae93c1b51461022e5761011b565b806385f5f156146101cd57806392b45d9c146101e05780639f1ed3c0146101f3578063a4f0d7d0146102135761011b565b80635909c12f116100ee5780635909c12f146101925780635ba5e9f0146101a757806368284fd41461015e578063687f0e4c146101ba5761011b565b806310ab94321461012057806344faded014610149578063462f9a281461015e578063559742d91461017f575b600080fd5b61013361012e366004610fe2565b61027c565b60405161014091906110e1565b60405180910390f35b61015c610157366004610fe2565b61028f565b005b61017161016c366004610f9d565b6102d6565b6040516101409291906112da565b61015c61018d366004610fc8565b610321565b61019a610378565b60405161014091906110ec565b61019a6101b5366004610fc8565b61037d565b61015c6101c8366004610fe2565b610390565b61015c6101db366004610ebb565b6103cf565b61015c6101ee366004611066565b6104eb565b61020661020136600461103d565b6105e6565b60405161014091906110c0565b61019a610619565b61015c610229366004610e12565b61063d565b61015c61023c366004611014565b6106db565b61024961070e565b60405161014091906112d1565b61015c610264366004610fe2565b610713565b61015c610277366004610e12565b610746565b600061028883836107d7565b9392505050565b816102a261029c82610831565b336107d7565b6102c75760405162461bcd60e51b81526004016102be90611150565b60405180910390fd5b6102d1838361086b565b505050565b60008060006102f56102e78761091d565b6102f08761091d565b61095f565b92509050670de0b6b3a764000061030c858361137b565b610316919061135b565b925050935093915050565b8061032e61029c82610831565b61034a5760405162461bcd60e51b81526004016102be90611150565b610374827fffffffff00000000000000000000000000000000000000000000000000000000610b85565b5050565b600081565b600061038882610831565b90505b919050565b73ffffffffffffffffffffffffffffffffffffffff811633146103c55760405162461bcd60e51b81526004016102be9061122c565b610374828261086b565b6103fd6000357fffffffff0000000000000000000000000000000000000000000000000000000016336107d7565b6104195760405162461bcd60e51b81526004016102be9061129a565b8151835114801561042b575080518251145b6104475760405162461bcd60e51b81526004016102be90611187565b60005b83518110156104e5576104d384828151811061047657634e487b7160e01b600052603260045260246000fd5b602002602001015184838151811061049e57634e487b7160e01b600052603260045260246000fd5b60200260200101518484815181106104c657634e487b7160e01b600052603260045260246000fd5b60200260200101516104eb565b806104dd816113b8565b91505061044a565b50505050565b6105196000357fffffffff0000000000000000000000000000000000000000000000000000000016336107d7565b6105355760405162461bcd60e51b81526004016102be9061129a565b7fffffffffffff000000000000000000000000000000000000000000000000000083811660008181526001602090815260408083209487168084529490915280822080547fffffffffffffffffffffffff00000000000000000000000000000000000000001673ffffffffffffffffffffffffffffffffffffffff87169081179091559051909392917f6b17b6fe258656b70fbe6082d40c42859bfac908441594fab748a898387cc03591a4505050565b600160209081526000928352604080842090915290825290205473ffffffffffffffffffffffffffffffffffffffff1681565b7fffffffff0000000000000000000000000000000000000000000000000000000081565b60005b82518110156102d15761067c61029c84838151811061066f57634e487b7160e01b600052603260045260246000fd5b6020026020010151610831565b6106985760405162461bcd60e51b81526004016102be90611150565b6106c98382815181106106bb57634e487b7160e01b600052603260045260246000fd5b60200260200101518361086b565b806106d3816113b8565b915050610640565b816106e861029c82610831565b6107045760405162461bcd60e51b81526004016102be90611150565b6102d18383610b85565b600181565b8161072061029c82610831565b61073c5760405162461bcd60e51b81526004016102be90611150565b6102d18383610c67565b60005b82518110156102d15761077861029c84838151811061066f57634e487b7160e01b600052603260045260246000fd5b6107945760405162461bcd60e51b81526004016102be90611150565b6107c58382815181106107b757634e487b7160e01b600052603260045260246000fd5b602002602001015183610c67565b806107cf816113b8565b915050610749565b7fffffffff00000000000000000000000000000000000000000000000000000000821660009081526020818152604080832073ffffffffffffffffffffffffffffffffffffffff8516845290915290205460ff1692915050565b7fffffffff000000000000000000000000000000000000000000000000000000001660009081526020819052604090206001015460e01b90565b61087582826107d7565b15610374577fffffffff00000000000000000000000000000000000000000000000000000000821660008181526020818152604080832073ffffffffffffffffffffffffffffffffffffffff8616808552925280832080547fffffffffffffffffffffffffffffffffffffffffffffffffffffffffffffff0016905551339391927f4ddc7b757e7bdd7254a9cd39452d307a52761bc824625c6a33104a075d8099e691a45050565b807fffffffffffff00000000000000000000000000000000000000000000000000008116811461038b5760405162461bcd60e51b81526004016102be90611119565b7fffffffffffff000000000000000000000000000000000000000000000000000080831660009081526001602090815260408083209385168352929052908120548190819073ffffffffffffffffffffffffffffffffffffffff16806109d75760405162461bcd60e51b81526004016102be906111f5565b7f72617465000000000000000000000000000000000000000000000000000000007fffffffffffff000000000000000000000000000000000000000000000000000086161415610aa6578073ffffffffffffffffffffffffffffffffffffffff1663aa5af0fd6040518163ffffffff1660e01b815260040160206040518083038186803b158015610a6757600080fd5b505afa158015610a7b573d6000803e3d6000fd5b505050506040513d601f19601f82011682018060405250810190610a9f91906110a8565b9150610b4e565b7f63686900000000000000000000000000000000000000000000000000000000007fffffffffffff000000000000000000000000000000000000000000000000000086161415610b36578073ffffffffffffffffffffffffffffffffffffffff1663182df0f56040518163ffffffff1660e01b815260040160206040518083038186803b158015610a6757600080fd5b60405162461bcd60e51b81526004016102be90611263565b60008211610b6e5760405162461bcd60e51b81526004016102be906111be565b610b7960018361137b565b96429650945050505050565b7fffffffff000000000000000000000000000000000000000000000000000000008116610bb183610831565b7fffffffff000000000000000000000000000000000000000000000000000000001614610374577fffffffff0000000000000000000000000000000000000000000000000000000082811660008181526020819052604080822060010180547fffffffffffffffffffffffffffffffffffffffffffffffffffffffff000000001660e087901c17905551928416927fd348e2220a50b4500ec353f6e802d2f14dd1b5d6786148fd1bbcc570bf92d4739190a35050565b610c7182826107d7565b610374577fffffffff00000000000000000000000000000000000000000000000000000000821660008181526020818152604080832073ffffffffffffffffffffffffffffffffffffffff8616808552925280832080547fffffffffffffffffffffffffffffffffffffffffffffffffffffffffffffff0016600117905551339391927fe6231789d19137da31d0550f4ba9ee379020a8cfb64cb79bf1790c996d2e616591a45050565b803573ffffffffffffffffffffffffffffffffffffffff8116811461038b57600080fd5b600082601f830112610d4f578081fd5b81356020610d64610d5f83611337565b6112e8565b8281528181019085830183850287018401881015610d80578586fd5b855b85811015610da557610d9382610de2565b84529284019290840190600101610d82565b5090979650505050505050565b80357fffffffff000000000000000000000000000000000000000000000000000000008116811461038b57600080fd5b80357fffffffffffff00000000000000000000000000000000000000000000000000008116811461038b57600080fd5b60008060408385031215610e24578182fd5b823567ffffffffffffffff811115610e3a578283fd5b8301601f81018513610e4a578283fd5b80356020610e5a610d5f83611337565b82815281810190848301838502860184018a1015610e76578788fd5b8795505b84861015610e9f57610e8b81610db2565b835260019590950194918301918301610e7a565b509550610eaf9050868201610d1b565b93505050509250929050565b600080600060608486031215610ecf578081fd5b833567ffffffffffffffff80821115610ee6578283fd5b610ef287838801610d3f565b9450602091508186013581811115610f08578384fd5b610f1488828901610d3f565b945050604086013581811115610f28578384fd5b86019050601f81018713610f3a578283fd5b8035610f48610d5f82611337565b81815283810190838501858402850186018b1015610f64578687fd5b8694505b83851015610f8d57610f7981610d1b565b835260019490940193918501918501610f68565b5080955050505050509250925092565b600080600060608486031215610fb1578283fd5b505081359360208301359350604090920135919050565b600060208284031215610fd9578081fd5b61028882610db2565b60008060408385031215610ff4578182fd5b610ffd83610db2565b915061100b60208401610d1b565b90509250929050565b60008060408385031215611026578182fd5b61102f83610db2565b915061100b60208401610db2565b6000806040838503121561104f578182fd5b61105883610de2565b915061100b60208401610de2565b60008060006060848603121561107a578283fd5b61108384610de2565b925061109160208501610de2565b915061109f60408501610d1b565b90509250925092565b6000602082840312156110b9578081fd5b5051919050565b73ffffffffffffffffffffffffffffffffffffffff91909116815260200190565b901515815260200190565b7fffffffff0000000000000000000000000000000000000000000000000000000091909116815260200190565b6020808252600d908201527f43617374206f766572666c6f7700000000000000000000000000000000000000604082015260600190565b6020808252600a908201527f4f6e6c792061646d696e00000000000000000000000000000000000000000000604082015260600190565b60208082526011908201527f4d69736d61746368656420696e70757473000000000000000000000000000000604082015260600190565b60208082526016908201527f436f6d706f756e64207072696365206973207a65726f00000000000000000000604082015260600190565b60208082526010908201527f536f75726365206e6f7420666f756e6400000000000000000000000000000000604082015260600190565b60208082526016908201527f52656e6f756e6365206f6e6c7920666f722073656c6600000000000000000000604082015260600190565b60208082526013908201527f556e6b6e6f776e206f7261636c65207479706500000000000000000000000000604082015260600190565b6020808252600d908201527f4163636573732064656e69656400000000000000000000000000000000000000604082015260600190565b90815260200190565b918252602082015260400190565b604051601f82017fffffffffffffffffffffffffffffffffffffffffffffffffffffffffffffffe016810167ffffffffffffffff8111828210171561132f5761132f611407565b604052919050565b600067ffffffffffffffff82111561135157611351611407565b5060209081020190565b60008261137657634e487b7160e01b81526012600452602481fd5b500490565b6000817fffffffffffffffffffffffffffffffffffffffffffffffffffffffffffffffff04831182151516156113b3576113b36113f1565b500290565b60007fffffffffffffffffffffffffffffffffffffffffffffffffffffffffffffffff8214156113ea576113ea6113f1565b5060010190565b634e487b7160e01b600052601160045260246000fd5b634e487b7160e01b600052604160045260246000fdfea2646970667358221220186e00f077e96d27eadd4fe7fb014b7fe19165ee8b36cf1aea7b1e41fb18406e64736f6c63430008010033",
  "linkReferences": {},
  "deployedLinkReferences": {}
}