{
  "_format": "hh-sol-artifact-1",
  "contractName": "PrizeDistributionBuffer",
  "sourceName": "@pooltogether/v4-core/contracts/PrizeDistributionBuffer.sol",
  "abi": [
    {
      "inputs": [
        {
          "internalType": "address",
          "name": "_owner",
          "type": "address"
        },
        {
          "internalType": "uint8",
          "name": "_cardinality",
          "type": "uint8"
        }
      ],
      "stateMutability": "nonpayable",
      "type": "constructor"
    },
    {
      "anonymous": false,
      "inputs": [
        {
          "indexed": false,
          "internalType": "uint8",
          "name": "cardinality",
          "type": "uint8"
        }
      ],
      "name": "Deployed",
      "type": "event"
    },
    {
      "anonymous": false,
      "inputs": [
        {
          "indexed": true,
          "internalType": "address",
          "name": "previousManager",
          "type": "address"
        },
        {
          "indexed": true,
          "internalType": "address",
          "name": "newManager",
          "type": "address"
        }
      ],
      "name": "ManagerTransferred",
      "type": "event"
    },
    {
      "anonymous": false,
      "inputs": [
        {
          "indexed": true,
          "internalType": "address",
          "name": "pendingOwner",
          "type": "address"
        }
      ],
      "name": "OwnershipOffered",
      "type": "event"
    },
    {
      "anonymous": false,
      "inputs": [
        {
          "indexed": true,
          "internalType": "address",
          "name": "previousOwner",
          "type": "address"
        },
        {
          "indexed": true,
          "internalType": "address",
          "name": "newOwner",
          "type": "address"
        }
      ],
      "name": "OwnershipTransferred",
      "type": "event"
    },
    {
      "anonymous": false,
      "inputs": [
        {
          "indexed": true,
          "internalType": "uint32",
          "name": "drawId",
          "type": "uint32"
        },
        {
          "components": [
            {
              "internalType": "uint8",
              "name": "bitRangeSize",
              "type": "uint8"
            },
            {
              "internalType": "uint8",
              "name": "matchCardinality",
              "type": "uint8"
            },
            {
              "internalType": "uint32",
              "name": "startTimestampOffset",
              "type": "uint32"
            },
            {
              "internalType": "uint32",
              "name": "endTimestampOffset",
              "type": "uint32"
            },
            {
              "internalType": "uint32",
              "name": "maxPicksPerUser",
              "type": "uint32"
            },
            {
              "internalType": "uint32",
              "name": "expiryDuration",
              "type": "uint32"
            },
            {
              "internalType": "uint104",
              "name": "numberOfPicks",
              "type": "uint104"
            },
            {
              "internalType": "uint32[16]",
              "name": "tiers",
              "type": "uint32[16]"
            },
            {
              "internalType": "uint256",
              "name": "prize",
              "type": "uint256"
            }
          ],
          "indexed": false,
          "internalType": "struct IPrizeDistributionSource.PrizeDistribution",
          "name": "prizeDistribution",
          "type": "tuple"
        }
      ],
      "name": "PrizeDistributionSet",
      "type": "event"
    },
    {
      "inputs": [],
      "name": "claimOwnership",
      "outputs": [],
      "stateMutability": "nonpayable",
      "type": "function"
    },
    {
      "inputs": [],
      "name": "getBufferCardinality",
      "outputs": [
        {
          "internalType": "uint32",
          "name": "",
          "type": "uint32"
        }
      ],
      "stateMutability": "view",
      "type": "function"
    },
    {
      "inputs": [],
      "name": "getNewestPrizeDistribution",
      "outputs": [
        {
          "components": [
            {
              "internalType": "uint8",
              "name": "bitRangeSize",
              "type": "uint8"
            },
            {
              "internalType": "uint8",
              "name": "matchCardinality",
              "type": "uint8"
            },
            {
              "internalType": "uint32",
              "name": "startTimestampOffset",
              "type": "uint32"
            },
            {
              "internalType": "uint32",
              "name": "endTimestampOffset",
              "type": "uint32"
            },
            {
              "internalType": "uint32",
              "name": "maxPicksPerUser",
              "type": "uint32"
            },
            {
              "internalType": "uint32",
              "name": "expiryDuration",
              "type": "uint32"
            },
            {
              "internalType": "uint104",
              "name": "numberOfPicks",
              "type": "uint104"
            },
            {
              "internalType": "uint32[16]",
              "name": "tiers",
              "type": "uint32[16]"
            },
            {
              "internalType": "uint256",
              "name": "prize",
              "type": "uint256"
            }
          ],
          "internalType": "struct IPrizeDistributionSource.PrizeDistribution",
          "name": "prizeDistribution",
          "type": "tuple"
        },
        {
          "internalType": "uint32",
          "name": "drawId",
          "type": "uint32"
        }
      ],
      "stateMutability": "view",
      "type": "function"
    },
    {
      "inputs": [],
      "name": "getOldestPrizeDistribution",
      "outputs": [
        {
          "components": [
            {
              "internalType": "uint8",
              "name": "bitRangeSize",
              "type": "uint8"
            },
            {
              "internalType": "uint8",
              "name": "matchCardinality",
              "type": "uint8"
            },
            {
              "internalType": "uint32",
              "name": "startTimestampOffset",
              "type": "uint32"
            },
            {
              "internalType": "uint32",
              "name": "endTimestampOffset",
              "type": "uint32"
            },
            {
              "internalType": "uint32",
              "name": "maxPicksPerUser",
              "type": "uint32"
            },
            {
              "internalType": "uint32",
              "name": "expiryDuration",
              "type": "uint32"
            },
            {
              "internalType": "uint104",
              "name": "numberOfPicks",
              "type": "uint104"
            },
            {
              "internalType": "uint32[16]",
              "name": "tiers",
              "type": "uint32[16]"
            },
            {
              "internalType": "uint256",
              "name": "prize",
              "type": "uint256"
            }
          ],
          "internalType": "struct IPrizeDistributionSource.PrizeDistribution",
          "name": "prizeDistribution",
          "type": "tuple"
        },
        {
          "internalType": "uint32",
          "name": "drawId",
          "type": "uint32"
        }
      ],
      "stateMutability": "view",
      "type": "function"
    },
    {
      "inputs": [
        {
          "internalType": "uint32",
          "name": "_drawId",
          "type": "uint32"
        }
      ],
      "name": "getPrizeDistribution",
      "outputs": [
        {
          "components": [
            {
              "internalType": "uint8",
              "name": "bitRangeSize",
              "type": "uint8"
            },
            {
              "internalType": "uint8",
              "name": "matchCardinality",
              "type": "uint8"
            },
            {
              "internalType": "uint32",
              "name": "startTimestampOffset",
              "type": "uint32"
            },
            {
              "internalType": "uint32",
              "name": "endTimestampOffset",
              "type": "uint32"
            },
            {
              "internalType": "uint32",
              "name": "maxPicksPerUser",
              "type": "uint32"
            },
            {
              "internalType": "uint32",
              "name": "expiryDuration",
              "type": "uint32"
            },
            {
              "internalType": "uint104",
              "name": "numberOfPicks",
              "type": "uint104"
            },
            {
              "internalType": "uint32[16]",
              "name": "tiers",
              "type": "uint32[16]"
            },
            {
              "internalType": "uint256",
              "name": "prize",
              "type": "uint256"
            }
          ],
          "internalType": "struct IPrizeDistributionSource.PrizeDistribution",
          "name": "",
          "type": "tuple"
        }
      ],
      "stateMutability": "view",
      "type": "function"
    },
    {
      "inputs": [],
      "name": "getPrizeDistributionCount",
      "outputs": [
        {
          "internalType": "uint32",
          "name": "",
          "type": "uint32"
        }
      ],
      "stateMutability": "view",
      "type": "function"
    },
    {
      "inputs": [
        {
          "internalType": "uint32[]",
          "name": "_drawIds",
          "type": "uint32[]"
        }
      ],
      "name": "getPrizeDistributions",
      "outputs": [
        {
          "components": [
            {
              "internalType": "uint8",
              "name": "bitRangeSize",
              "type": "uint8"
            },
            {
              "internalType": "uint8",
              "name": "matchCardinality",
              "type": "uint8"
            },
            {
              "internalType": "uint32",
              "name": "startTimestampOffset",
              "type": "uint32"
            },
            {
              "internalType": "uint32",
              "name": "endTimestampOffset",
              "type": "uint32"
            },
            {
              "internalType": "uint32",
              "name": "maxPicksPerUser",
              "type": "uint32"
            },
            {
              "internalType": "uint32",
              "name": "expiryDuration",
              "type": "uint32"
            },
            {
              "internalType": "uint104",
              "name": "numberOfPicks",
              "type": "uint104"
            },
            {
              "internalType": "uint32[16]",
              "name": "tiers",
              "type": "uint32[16]"
            },
            {
              "internalType": "uint256",
              "name": "prize",
              "type": "uint256"
            }
          ],
          "internalType": "struct IPrizeDistributionSource.PrizeDistribution[]",
          "name": "",
          "type": "tuple[]"
        }
      ],
      "stateMutability": "view",
      "type": "function"
    },
    {
      "inputs": [],
      "name": "manager",
      "outputs": [
        {
          "internalType": "address",
          "name": "",
          "type": "address"
        }
      ],
      "stateMutability": "view",
      "type": "function"
    },
    {
      "inputs": [],
      "name": "owner",
      "outputs": [
        {
          "internalType": "address",
          "name": "",
          "type": "address"
        }
      ],
      "stateMutability": "view",
      "type": "function"
    },
    {
      "inputs": [],
      "name": "pendingOwner",
      "outputs": [
        {
          "internalType": "address",
          "name": "",
          "type": "address"
        }
      ],
      "stateMutability": "view",
      "type": "function"
    },
    {
      "inputs": [
        {
          "internalType": "uint32",
          "name": "_drawId",
          "type": "uint32"
        },
        {
          "components": [
            {
              "internalType": "uint8",
              "name": "bitRangeSize",
              "type": "uint8"
            },
            {
              "internalType": "uint8",
              "name": "matchCardinality",
              "type": "uint8"
            },
            {
              "internalType": "uint32",
              "name": "startTimestampOffset",
              "type": "uint32"
            },
            {
              "internalType": "uint32",
              "name": "endTimestampOffset",
              "type": "uint32"
            },
            {
              "internalType": "uint32",
              "name": "maxPicksPerUser",
              "type": "uint32"
            },
            {
              "internalType": "uint32",
              "name": "expiryDuration",
              "type": "uint32"
            },
            {
              "internalType": "uint104",
              "name": "numberOfPicks",
              "type": "uint104"
            },
            {
              "internalType": "uint32[16]",
              "name": "tiers",
              "type": "uint32[16]"
            },
            {
              "internalType": "uint256",
              "name": "prize",
              "type": "uint256"
            }
          ],
          "internalType": "struct IPrizeDistributionSource.PrizeDistribution",
          "name": "_prizeDistribution",
          "type": "tuple"
        }
      ],
      "name": "pushPrizeDistribution",
      "outputs": [
        {
          "internalType": "bool",
          "name": "",
          "type": "bool"
        }
      ],
      "stateMutability": "nonpayable",
      "type": "function"
    },
    {
      "inputs": [],
      "name": "renounceOwnership",
      "outputs": [],
      "stateMutability": "nonpayable",
      "type": "function"
    },
    {
      "inputs": [
        {
          "internalType": "address",
          "name": "_newManager",
          "type": "address"
        }
      ],
      "name": "setManager",
      "outputs": [
        {
          "internalType": "bool",
          "name": "",
          "type": "bool"
        }
      ],
      "stateMutability": "nonpayable",
      "type": "function"
    },
    {
      "inputs": [
        {
          "internalType": "uint32",
          "name": "_drawId",
          "type": "uint32"
        },
        {
          "components": [
            {
              "internalType": "uint8",
              "name": "bitRangeSize",
              "type": "uint8"
            },
            {
              "internalType": "uint8",
              "name": "matchCardinality",
              "type": "uint8"
            },
            {
              "internalType": "uint32",
              "name": "startTimestampOffset",
              "type": "uint32"
            },
            {
              "internalType": "uint32",
              "name": "endTimestampOffset",
              "type": "uint32"
            },
            {
              "internalType": "uint32",
              "name": "maxPicksPerUser",
              "type": "uint32"
            },
            {
              "internalType": "uint32",
              "name": "expiryDuration",
              "type": "uint32"
            },
            {
              "internalType": "uint104",
              "name": "numberOfPicks",
              "type": "uint104"
            },
            {
              "internalType": "uint32[16]",
              "name": "tiers",
              "type": "uint32[16]"
            },
            {
              "internalType": "uint256",
              "name": "prize",
              "type": "uint256"
            }
          ],
          "internalType": "struct IPrizeDistributionSource.PrizeDistribution",
          "name": "_prizeDistribution",
          "type": "tuple"
        }
      ],
      "name": "setPrizeDistribution",
      "outputs": [
        {
          "internalType": "uint32",
          "name": "",
          "type": "uint32"
        }
      ],
      "stateMutability": "nonpayable",
      "type": "function"
    },
    {
      "inputs": [
        {
          "internalType": "address",
          "name": "_newOwner",
          "type": "address"
        }
      ],
      "name": "transferOwnership",
      "outputs": [],
      "stateMutability": "nonpayable",
      "type": "function"
    }
  ],
  "bytecode": "0x60806040523480156200001157600080fd5b5060405162001d6538038062001d658339810160408190526200003491620000f2565b816200004081620000a2565b50610403805463ffffffff60401b191660ff8316680100000000000000008102919091179091556040519081527f7da7688769fade6088b3de366e63c95090bc5b0db6e9b43f043dee741d7544fe9060200160405180910390a1505062000141565b600080546001600160a01b038381166001600160a01b0319831681178455604051919092169283917f8be0079c531659141344cd1fd0a4f28419497f9722a3daafe3b4186f6b6457e09190a35050565b600080604083850312156200010657600080fd5b82516001600160a01b03811681146200011e57600080fd5b602084015190925060ff811681146200013657600080fd5b809150509250929050565b611c1480620001516000396000f3fe608060405234801561001057600080fd5b50600436106100f55760003560e01c8063715018a611610097578063d0ebdbe711610066578063d0ebdbe7146101ee578063d30a5daf14610201578063e30c397814610221578063f2fde38b1461023257600080fd5b8063715018a6146101ac5780638da5cb5b146101b4578063caeef7ec146101c5578063ce336ce9146101db57600080fd5b806324c21446116100d357806324c21446146101555780633cd8e2d51461015d578063481c6a751461017d5780634e71e0c8146101a257600080fd5b80631124e1dc146100fa57806321e98ad9146101225780632439093a1461013f575b600080fd5b61010d6101083660046115a9565b610245565b60405190151581526020015b60405180910390f35b61012a6102fb565b60405163ffffffff9091168152602001610119565b61014761037c565b60405161011992919061186f565b6101476105f5565b61017061016b36600461158c565b610758565b6040516101199190611860565b6002546001600160a01b03165b6040516001600160a01b039091168152602001610119565b6101aa6107a0565b005b6101aa610821565b6000546001600160a01b031661018a565b61040354600160401b900463ffffffff1661012a565b61012a6101e93660046115a9565b610866565b61010d6101fc3660046114e7565b61095f565b61021461020f366004611517565b6109a8565b604051610119919061171c565b6001546001600160a01b031661018a565b6101aa6102403660046114e7565b610aad565b60003361025a6002546001600160a01b031690565b6001600160a01b0316148061028857503361027d6000546001600160a01b031690565b6001600160a01b0316145b6102e85760405162461bcd60e51b815260206004820152602660248201527f4d616e61676561626c652f63616c6c65722d6e6f742d6d616e616765722d6f7260448201526516b7bbb732b960d11b60648201526084015b60405180910390fd5b6102f28383610b94565b90505b92915050565b604080516060810182526104035463ffffffff808216808452600160201b830482166020850152600160401b909204169282019290925260009161034157600091505090565b6020810151600363ffffffff82166101008110610360576103606119f3565b6004020154610100900460ff16156102f5575060400151919050565b610384611454565b604080516060810182526104035463ffffffff8082168352600160201b8204811660208401819052600160401b909204169282019290925260009160039061010081106103d3576103d36119f3565b604080516101208101825260049290920292909201805460ff8082168452610100820416602084015262010000810463ffffffff90811684860152600160301b820481166060850152600160501b820481166080850152600160701b82041660a0840152600160901b90046001600160681b031660c083015282516102008101938490529192909160e08401916001840190601090826000855b82829054906101000a900463ffffffff1663ffffffff168152602001906004019060208260030104928301926001038202915080841161046d5750505092845250505060039190910154602090910152815190935063ffffffff166104d55760009150509091565b825160ff166105e35760408051610120810182526003805460ff8082168452610100820416602084015263ffffffff620100008204811684860152600160301b820481166060850152600160501b820481166080850152600160701b82041660a08401526001600160681b03600160901b9091041660c083015282516102008101938490529192909160e0840191600490601090826000855b82829054906101000a900463ffffffff1663ffffffff168152602001906004019060208260030104928301926001038202915080841161056e57505050928452505050600391909101546020918201528201518251919450906105d29060016118aa565b6105dc919061190a565b9150509091565b604081015181516105d29060016118aa565b6105fd611454565b604080516060810182526104035463ffffffff808216808452600160201b830482166020850152600160401b90920481169383019390935260009260039161064891849190610fa416565b63ffffffff16610100811061065f5761065f6119f3565b8251604080516101208101825260049390930293909301805460ff8082168552610100820416602085015262010000810463ffffffff90811685870152600160301b820481166060860152600160501b820481166080860152600160701b82041660a0850152600160901b90046001600160681b031660c084015283516102008101948590529093919291849160e08401916001840190601090826000855b82829054906101000a900463ffffffff1663ffffffff16815260200190600401906020826003010492830192600103820291508084116106fe57905050505050508152602001600382015481525050915092509250509091565b610760611454565b604080516060810182526104035463ffffffff8082168352600160201b820481166020840152600160401b90910416918101919091526102f590836110b9565b6001546001600160a01b031633146107fa5760405162461bcd60e51b815260206004820152601f60248201527f4f776e61626c652f63616c6c65722d6e6f742d70656e64696e674f776e65720060448201526064016102df565b60015461080f906001600160a01b03166111d5565b600180546001600160a01b0319169055565b336108346000546001600160a01b031690565b6001600160a01b03161461085a5760405162461bcd60e51b81526004016102df9061176b565b61086460006111d5565b565b60003361087b6000546001600160a01b031690565b6001600160a01b0316146108a15760405162461bcd60e51b81526004016102df9061176b565b604080516060810182526104035463ffffffff8082168352600160201b820481166020840152600160401b909104811692820192909252906000906108ea9083908790610fa416565b90508360038263ffffffff166101008110610907576109076119f3565b600402016109158282611a39565b9050508463ffffffff167f2d81da839b2f3db2ed762907f74df3acecdc30461dba4813694c225ba911e1f68560405161094e91906117a2565b60405180910390a250929392505050565b6000336109746000546001600160a01b031690565b6001600160a01b03161461099a5760405162461bcd60e51b81526004016102df9061176b565b6102f582611225565b919050565b60408051606081810183526104035463ffffffff8082168452600160201b820481166020850152600160401b9091041692820192909252829060008267ffffffffffffffff8111156109fc576109fc611a09565b604051908082528060200260200182016040528015610a3557816020015b610a22611454565b815260200190600190039081610a1a5790505b50905060005b83811015610aa357610a7383888884818110610a5957610a596119f3565b9050602002016020810190610a6e919061158c565b6110b9565b828281518110610a8557610a856119f3565b60200260200101819052508080610a9b90611998565b915050610a3b565b5095945050505050565b33610ac06000546001600160a01b031690565b6001600160a01b031614610ae65760405162461bcd60e51b81526004016102df9061176b565b6001600160a01b038116610b4a5760405162461bcd60e51b815260206004820152602560248201527f4f776e61626c652f70656e64696e674f776e65722d6e6f742d7a65726f2d6164604482015264647265737360d81b60648201526084016102df565b600180546001600160a01b0319166001600160a01b0383169081179091556040517f239a2ddded15777fa246aed5f7e1a9bc69a39d4eb4a397034d1d85766cca7d4c90600090a250565b6000808363ffffffff1611610be35760405162461bcd60e51b815260206004820152601560248201527404472617743616c632f647261772d69642d67742d3605c1b60448201526064016102df565b6000610bf560408401602085016115ec565b60ff1611610c455760405162461bcd60e51b815260206004820152601e60248201527f4472617743616c632f6d6174636843617264696e616c6974792d67742d30000060448201526064016102df565b610c5560408301602084016115ec565b610c649060ff166101006118d2565b61ffff16610c7560208401846115ec565b60ff161115610cc65760405162461bcd60e51b815260206004820152601f60248201527f4472617743616c632f62697452616e676553697a652d746f6f2d6c617267650060448201526064016102df565b6000610cd560208401846115ec565b60ff1611610d255760405162461bcd60e51b815260206004820152601a60248201527f4472617743616c632f62697452616e676553697a652d67742d3000000000000060448201526064016102df565b6000610d3760a084016080850161158c565b63ffffffff1611610d8a5760405162461bcd60e51b815260206004820152601d60248201527f4472617743616c632f6d61785069636b73506572557365722d67742d3000000060448201526064016102df565b6000610d9c60c0840160a0850161158c565b63ffffffff1611610def5760405162461bcd60e51b815260206004820152601c60248201527f4472617743616c632f6578706972794475726174696f6e2d67742d300000000060448201526064016102df565b60006010815b81811015610e4f5760008560e0018260108110610e1457610e146119f3565b602002016020810190610e27919061158c565b63ffffffff169050610e398185611892565b9350508080610e4790611998565b915050610df5565b50633b9aca00821115610e9d5760405162461bcd60e51b81526020600482015260166024820152754472617743616c632f74696572732d67742d3130302560501b60448201526064016102df565b604080516060810182526104035463ffffffff8082168352600160201b8204811660208401819052600160401b90920416928201929092529085906003906101008110610eec57610eec6119f3565b60040201610efa8282611a39565b50610f07905081876112ea565b80516104038054602084015160409485015163ffffffff908116600160401b026bffffffff000000000000000019928216600160201b0267ffffffffffffffff199094169582169590951792909217169290921790559051908716907f2d81da839b2f3db2ed762907f74df3acecdc30461dba4813694c225ba911e1f690610f909088906117a2565b60405180910390a250600195945050505050565b6000610faf836113ca565b8015610fcb5750826000015163ffffffff168263ffffffff1611155b6110095760405162461bcd60e51b815260206004820152600f60248201526e4452422f6675747572652d6472617760881b60448201526064016102df565b825160009061101990849061190a565b9050836040015163ffffffff168163ffffffff161061106d5760405162461bcd60e51b815260206004820152601060248201526f4452422f657870697265642d6472617760801b60448201526064016102df565b600061108d856020015163ffffffff16866040015163ffffffff166113f2565b90506110b08163ffffffff168363ffffffff16876040015163ffffffff16611420565b95945050505050565b6110c1611454565b60036110cd8484610fa4565b63ffffffff1661010081106110e4576110e46119f3565b604080516101208101825260049290920292909201805460ff8082168452610100820416602084015262010000810463ffffffff90811684860152600160301b820481166060850152600160501b820481166080850152600160701b82041660a0840152600160901b90046001600160681b031660c083015282516102008101938490529192909160e08401916001840190601090826000855b82829054906101000a900463ffffffff1663ffffffff168152602001906004019060208260030104928301926001038202915080841161117e57905050505050508152602001600382015481525050905092915050565b600080546001600160a01b038381166001600160a01b0319831681178455604051919092169283917f8be0079c531659141344cd1fd0a4f28419497f9722a3daafe3b4186f6b6457e09190a35050565b6002546000906001600160a01b039081169083168114156112945760405162461bcd60e51b815260206004820152602360248201527f4d616e61676561626c652f6578697374696e672d6d616e616765722d6164647260448201526265737360e81b60648201526084016102df565b600280546001600160a01b0319166001600160a01b0385811691821790925560405190918316907f9cb45c728de594dab506a1f1a8554e24c8eeaf983618d5ec5dd7bc6f3c49feee90600090a350600192915050565b6040805160608101825260008082526020820181905291810191909152611310836113ca565b1580611333575082516113249060016118aa565b63ffffffff168263ffffffff16145b6113745760405162461bcd60e51b81526020600482015260126024820152714452422f6d7573742d62652d636f6e74696760701b60448201526064016102df565b60405180606001604052808363ffffffff1681526020016113a9856020015163ffffffff16866040015163ffffffff16611438565b63ffffffff168152602001846040015163ffffffff16815250905092915050565b6000816020015163ffffffff1660001480156113eb5750815163ffffffff16155b1592915050565b600081611401575060006102f5565b6102f260016114108486611892565b61141a91906118f3565b83611448565b6000611430836114108487611892565b949350505050565b60006102f261141a846001611892565b60006102f282846119b3565b6040805161012081018252600080825260208201819052918101829052606081018290526080810182905260a0810182905260c081019190915260e0810161149a6114a7565b8152602001600081525090565b6040518061020001604052806010906020820280368337509192915050565b80356109a381611ba5565b80356109a381611bbd565b80356109a381611bcf565b6000602082840312156114f957600080fd5b81356001600160a01b038116811461151057600080fd5b9392505050565b6000806020838503121561152a57600080fd5b823567ffffffffffffffff8082111561154257600080fd5b818501915085601f83011261155657600080fd5b81358181111561156557600080fd5b8660208260051b850101111561157a57600080fd5b60209290920196919550909350505050565b60006020828403121561159e57600080fd5b813561151081611bbd565b6000808284036103208112156115be57600080fd5b83356115c981611bbd565b9250610300601f19820112156115de57600080fd5b506020830190509250929050565b6000602082840312156115fe57600080fd5b813561151081611bcf565b8060005b601081101561163c57813561162181611bbd565b63ffffffff168452602093840193919091019060010161160d565b50505050565b8060005b601081101561163c57815163ffffffff16845260209384019390910190600101611646565b60ff815116825260ff60208201511660208301526040810151611696604084018263ffffffff169052565b5060608101516116ae606084018263ffffffff169052565b5060808101516116c6608084018263ffffffff169052565b5060a08101516116de60a084018263ffffffff169052565b5060c08101516116f960c08401826001600160681b03169052565b5060e081015161170c60e0840182611642565b5061010001516102e09190910152565b6020808252825182820181905260009190848201906040850190845b8181101561175f5761174b83855161166b565b928401926103009290920191600101611738565b50909695505050505050565b60208082526018908201527f4f776e61626c652f63616c6c65722d6e6f742d6f776e65720000000000000000604082015260600190565b610300810182356117b281611bcf565b60ff1682526117c3602084016114dc565b60ff1660208301526117d7604084016114d1565b63ffffffff1660408301526117ee606084016114d1565b63ffffffff166060830152611805608084016114d1565b63ffffffff16608083015261181c60a084016114d1565b63ffffffff1660a083015261183360c084016114c6565b6001600160681b031660c083015261185160e0808401908501611609565b6102e092830135919092015290565b61030081016102f5828461166b565b610320810161187e828561166b565b63ffffffff83166103008301529392505050565b600082198211156118a5576118a56119c7565b500190565b600063ffffffff8083168185168083038211156118c9576118c96119c7565b01949350505050565b600061ffff808416806118e7576118e76119dd565b92169190910492915050565b600082821015611905576119056119c7565b500390565b600063ffffffff83811690831681811015611927576119276119c7565b039392505050565b81816000805b601081101561199057833561194981611bbd565b835463ffffffff600385901b81811b801990931693909116901b1617835560209390930192600490910190601c82111561198857600091506001830192505b600101611935565b505050505050565b60006000198214156119ac576119ac6119c7565b5060010190565b6000826119c2576119c26119dd565b500690565b634e487b7160e01b600052601160045260246000fd5b634e487b7160e01b600052601260045260246000fd5b634e487b7160e01b600052603260045260246000fd5b634e487b7160e01b600052604160045260246000fd5b600081356102f581611ba5565b600081356102f581611bbd565b8135611a4481611bcf565b60ff8116905081548160ff1982161783556020840135611a6381611bcf565b61ff008160081b168361ffff19841617178455505050611aa6611a8860408401611a2c565b825465ffffffff0000191660109190911b65ffffffff000016178255565b611adb611ab560608401611a2c565b825469ffffffff000000000000191660309190911b69ffffffff00000000000016178255565b611b0e611aea60808401611a2c565b82805463ffffffff60501b191660509290921b63ffffffff60501b16919091179055565b611b41611b1d60a08401611a2c565b82805463ffffffff60701b191660709290921b63ffffffff60701b16919091179055565b611b86611b5060c08401611a1f565b8280546cffffffffffffffffffffffffff60901b191660909290921b6cffffffffffffffffffffffffff60901b16919091179055565b611b9660e083016001830161192f565b6102e082013560038201555050565b6001600160681b0381168114611bba57600080fd5b50565b63ffffffff81168114611bba57600080fd5b60ff81168114611bba57600080fdfea2646970667358221220be06812a3acbf817286eee0b0c2a1b840b939195e46f15f0f1ba7808959dd4c064736f6c63430008060033",
  "linkReferences": {},
  "deployedLinkReferences": {}
}