{
  "_format": "hh-sol-artifact-1",
  "contractName": "AngbandLite",
  "sourceName": "contracts/testing/realBehodler/LimboAddTokenToBehodler.sol",
  "abi": [
    {
      "inputs": [
        {
          "internalType": "address",
          "name": "powerInvoker",
          "type": "address"
        }
      ],
      "name": "executePower",
      "outputs": [],
      "stateMutability": "nonpayable",
      "type": "function"
    }
  ],
  "bytecode": "0x608060405234801561001057600080fd5b5061016c806100206000396000f3fe608060405234801561001057600080fd5b506004361061002b5760003560e01c8063ede0b3b514610030575b600080fd5b61004a600480360381019061004591906100c4565b61004c565b005b8073ffffffffffffffffffffffffffffffffffffffff1663cab7f5216040518163ffffffff1660e01b8152600401600060405180830381600087803b15801561009457600080fd5b505af11580156100a8573d6000803e3d6000fd5b5050505050565b6000813590506100be8161011f565b92915050565b6000602082840312156100d657600080fd5b60006100e4848285016100af565b91505092915050565b60006100f8826100ff565b9050919050565b600073ffffffffffffffffffffffffffffffffffffffff82169050919050565b610128816100ed565b811461013357600080fd5b5056fea26469706673582212208b9eeaa4435fae14d5285c284ea8dbcbfd77fff4019828c33695b6bfb5e2440564736f6c63430008040033",
  "linkReferences": {},
  "deployedLinkReferences": {}
}