{
  "_format": "hh-sol-artifact-1",
  "contractName": "VaultStorageV1",
  "sourceName": "contracts/vault/VaultStorage.sol",
  "abi": [
    {
      "inputs": [],
      "name": "currentAllocated",
      "outputs": [
        {
          "internalType": "uint256",
          "name": "",
          "type": "uint256"
        }
      ],
      "stateMutability": "view",
      "type": "function"
    },
    {
      "inputs": [],
      "name": "pool",
      "outputs": [
        {
          "internalType": "address",
          "name": "",
          "type": "address"
        }
      ],
      "stateMutability": "view",
      "type": "function"
    },
    {
      "inputs": [],
      "name": "strategyActive",
      "outputs": [
        {
          "internalType": "bool",
          "name": "",
          "type": "bool"
        }
      ],
      "stateMutability": "view",
      "type": "function"
    },
    {
      "inputs": [],
      "name": "totalDebt",
      "outputs": [
        {
          "internalType": "uint256",
          "name": "",
          "type": "uint256"
        }
      ],
      "stateMutability": "view",
      "type": "function"
    },
    {
      "inputs": [],
      "name": "waitingForRemovalAllocated",
      "outputs": [
        {
          "internalType": "uint256",
          "name": "",
          "type": "uint256"
        }
      ],
      "stateMutability": "view",
      "type": "function"
    }
  ],
  "bytecode": "0x608060405234801561001057600080fd5b5060fa8061001f6000396000f3fe6080604052348015600f57600080fd5b506004361060505760003560e01c806316f0115b14605557806389efcaac146084578063bd2a8b07146099578063f95d94381460b4578063fc7b9c181460bc575b600080fd5b6002546067906001600160a01b031681565b6040516001600160a01b0390911681526020015b60405180910390f35b608c60015481565b604051908152602001607b565b60045460a59060ff1681565b6040519015158152602001607b565b608c60005481565b608c6003548156fea2646970667358221220b72636ca137df565dac298f4a04681e30869b11c61447ac8f0f78aed4bfc294f64736f6c63430008090033",
  "linkReferences": {},
  "deployedLinkReferences": {}
}