{
  "_format": "hh-sol-artifact-1",
  "contractName": "RestrictedErc20",
  "sourceName": "contracts/tests/ERC20Mintable.sol",
  "abi": [
    {
      "inputs": [
        {
          "internalType": "string",
          "name": "name_",
          "type": "string"
        },
        {
          "internalType": "string",
          "name": "symbol_",
          "type": "string"
        },
        {
          "internalType": "uint8",
          "name": "decimals_",
          "type": "uint8"
        }
      ],
      "stateMutability": "nonpayable",
      "type": "constructor"
    },
    {
      "anonymous": false,
      "inputs": [
        {
          "indexed": true,
          "internalType": "address",
          "name": "owner",
          "type": "address"
        },
        {
          "indexed": true,
          "internalType": "address",
          "name": "spender",
          "type": "address"
        },
        {
          "indexed": false,
          "internalType": "uint256",
          "name": "value",
          "type": "uint256"
        }
      ],
      "name": "Approval",
      "type": "event"
    },
    {
      "anonymous": false,
      "inputs": [
        {
          "indexed": false,
          "internalType": "address",
          "name": "account",
          "type": "address"
        }
      ],
      "name": "Paused",
      "type": "event"
    },
    {
      "anonymous": false,
      "inputs": [
        {
          "indexed": true,
          "internalType": "bytes32",
          "name": "role",
          "type": "bytes32"
        },
        {
          "indexed": true,
          "internalType": "bytes32",
          "name": "previousAdminRole",
          "type": "bytes32"
        },
        {
          "indexed": true,
          "internalType": "bytes32",
          "name": "newAdminRole",
          "type": "bytes32"
        }
      ],
      "name": "RoleAdminChanged",
      "type": "event"
    },
    {
      "anonymous": false,
      "inputs": [
        {
          "indexed": true,
          "internalType": "bytes32",
          "name": "role",
          "type": "bytes32"
        },
        {
          "indexed": true,
          "internalType": "address",
          "name": "account",
          "type": "address"
        },
        {
          "indexed": true,
          "internalType": "address",
          "name": "sender",
          "type": "address"
        }
      ],
      "name": "RoleGranted",
      "type": "event"
    },
    {
      "anonymous": false,
      "inputs": [
        {
          "indexed": true,
          "internalType": "bytes32",
          "name": "role",
          "type": "bytes32"
        },
        {
          "indexed": true,
          "internalType": "address",
          "name": "account",
          "type": "address"
        },
        {
          "indexed": true,
          "internalType": "address",
          "name": "sender",
          "type": "address"
        }
      ],
      "name": "RoleRevoked",
      "type": "event"
    },
    {
      "anonymous": false,
      "inputs": [
        {
          "indexed": true,
          "internalType": "address",
          "name": "from",
          "type": "address"
        },
        {
          "indexed": true,
          "internalType": "address",
          "name": "to",
          "type": "address"
        },
        {
          "indexed": false,
          "internalType": "uint256",
          "name": "value",
          "type": "uint256"
        }
      ],
      "name": "Transfer",
      "type": "event"
    },
    {
      "anonymous": false,
      "inputs": [
        {
          "indexed": false,
          "internalType": "address",
          "name": "account",
          "type": "address"
        }
      ],
      "name": "Unpaused",
      "type": "event"
    },
    {
      "inputs": [],
      "name": "DEFAULT_ADMIN_ROLE",
      "outputs": [
        {
          "internalType": "bytes32",
          "name": "",
          "type": "bytes32"
        }
      ],
      "stateMutability": "view",
      "type": "function"
    },
    {
      "inputs": [],
      "name": "MINTER_ROLE",
      "outputs": [
        {
          "internalType": "bytes32",
          "name": "",
          "type": "bytes32"
        }
      ],
      "stateMutability": "view",
      "type": "function"
    },
    {
      "inputs": [],
      "name": "PAUSER_ROLE",
      "outputs": [
        {
          "internalType": "bytes32",
          "name": "",
          "type": "bytes32"
        }
      ],
      "stateMutability": "view",
      "type": "function"
    },
    {
      "inputs": [],
      "name": "TRANSFER_ROLE",
      "outputs": [
        {
          "internalType": "bytes32",
          "name": "",
          "type": "bytes32"
        }
      ],
      "stateMutability": "view",
      "type": "function"
    },
    {
      "inputs": [],
      "name": "allowTransfers",
      "outputs": [],
      "stateMutability": "nonpayable",
      "type": "function"
    },
    {
      "inputs": [
        {
          "internalType": "address",
          "name": "owner",
          "type": "address"
        },
        {
          "internalType": "address",
          "name": "spender",
          "type": "address"
        }
      ],
      "name": "allowance",
      "outputs": [
        {
          "internalType": "uint256",
          "name": "",
          "type": "uint256"
        }
      ],
      "stateMutability": "view",
      "type": "function"
    },
    {
      "inputs": [
        {
          "internalType": "address",
          "name": "spender",
          "type": "address"
        },
        {
          "internalType": "uint256",
          "name": "amount",
          "type": "uint256"
        }
      ],
      "name": "approve",
      "outputs": [
        {
          "internalType": "bool",
          "name": "",
          "type": "bool"
        }
      ],
      "stateMutability": "nonpayable",
      "type": "function"
    },
    {
      "inputs": [
        {
          "internalType": "address",
          "name": "account",
          "type": "address"
        }
      ],
      "name": "balanceOf",
      "outputs": [
        {
          "internalType": "uint256",
          "name": "",
          "type": "uint256"
        }
      ],
      "stateMutability": "view",
      "type": "function"
    },
    {
      "inputs": [
        {
          "internalType": "uint256",
          "name": "amount",
          "type": "uint256"
        }
      ],
      "name": "burn",
      "outputs": [],
      "stateMutability": "nonpayable",
      "type": "function"
    },
    {
      "inputs": [
        {
          "internalType": "address",
          "name": "account",
          "type": "address"
        },
        {
          "internalType": "uint256",
          "name": "amount",
          "type": "uint256"
        }
      ],
      "name": "burnFrom",
      "outputs": [],
      "stateMutability": "nonpayable",
      "type": "function"
    },
    {
      "inputs": [],
      "name": "decimals",
      "outputs": [
        {
          "internalType": "uint8",
          "name": "",
          "type": "uint8"
        }
      ],
      "stateMutability": "view",
      "type": "function"
    },
    {
      "inputs": [
        {
          "internalType": "address",
          "name": "spender",
          "type": "address"
        },
        {
          "internalType": "uint256",
          "name": "subtractedValue",
          "type": "uint256"
        }
      ],
      "name": "decreaseAllowance",
      "outputs": [
        {
          "internalType": "bool",
          "name": "",
          "type": "bool"
        }
      ],
      "stateMutability": "nonpayable",
      "type": "function"
    },
    {
      "inputs": [
        {
          "internalType": "bytes32",
          "name": "role",
          "type": "bytes32"
        }
      ],
      "name": "getRoleAdmin",
      "outputs": [
        {
          "internalType": "bytes32",
          "name": "",
          "type": "bytes32"
        }
      ],
      "stateMutability": "view",
      "type": "function"
    },
    {
      "inputs": [
        {
          "internalType": "bytes32",
          "name": "role",
          "type": "bytes32"
        },
        {
          "internalType": "uint256",
          "name": "index",
          "type": "uint256"
        }
      ],
      "name": "getRoleMember",
      "outputs": [
        {
          "internalType": "address",
          "name": "",
          "type": "address"
        }
      ],
      "stateMutability": "view",
      "type": "function"
    },
    {
      "inputs": [
        {
          "internalType": "bytes32",
          "name": "role",
          "type": "bytes32"
        }
      ],
      "name": "getRoleMemberCount",
      "outputs": [
        {
          "internalType": "uint256",
          "name": "",
          "type": "uint256"
        }
      ],
      "stateMutability": "view",
      "type": "function"
    },
    {
      "inputs": [
        {
          "internalType": "bytes32",
          "name": "role",
          "type": "bytes32"
        },
        {
          "internalType": "address",
          "name": "account",
          "type": "address"
        }
      ],
      "name": "grantRole",
      "outputs": [],
      "stateMutability": "nonpayable",
      "type": "function"
    },
    {
      "inputs": [
        {
          "internalType": "bytes32",
          "name": "role",
          "type": "bytes32"
        },
        {
          "internalType": "address",
          "name": "account",
          "type": "address"
        }
      ],
      "name": "hasRole",
      "outputs": [
        {
          "internalType": "bool",
          "name": "",
          "type": "bool"
        }
      ],
      "stateMutability": "view",
      "type": "function"
    },
    {
      "inputs": [
        {
          "internalType": "address",
          "name": "spender",
          "type": "address"
        },
        {
          "internalType": "uint256",
          "name": "addedValue",
          "type": "uint256"
        }
      ],
      "name": "increaseAllowance",
      "outputs": [
        {
          "internalType": "bool",
          "name": "",
          "type": "bool"
        }
      ],
      "stateMutability": "nonpayable",
      "type": "function"
    },
    {
      "inputs": [
        {
          "internalType": "address",
          "name": "to",
          "type": "address"
        },
        {
          "internalType": "uint256",
          "name": "amount",
          "type": "uint256"
        }
      ],
      "name": "mint",
      "outputs": [],
      "stateMutability": "nonpayable",
      "type": "function"
    },
    {
      "inputs": [],
      "name": "name",
      "outputs": [
        {
          "internalType": "string",
          "name": "",
          "type": "string"
        }
      ],
      "stateMutability": "view",
      "type": "function"
    },
    {
      "inputs": [],
      "name": "pause",
      "outputs": [],
      "stateMutability": "nonpayable",
      "type": "function"
    },
    {
      "inputs": [],
      "name": "paused",
      "outputs": [
        {
          "internalType": "bool",
          "name": "",
          "type": "bool"
        }
      ],
      "stateMutability": "view",
      "type": "function"
    },
    {
      "inputs": [
        {
          "internalType": "bytes32",
          "name": "role",
          "type": "bytes32"
        },
        {
          "internalType": "address",
          "name": "account",
          "type": "address"
        }
      ],
      "name": "renounceRole",
      "outputs": [],
      "stateMutability": "nonpayable",
      "type": "function"
    },
    {
      "inputs": [
        {
          "internalType": "bytes32",
          "name": "role",
          "type": "bytes32"
        },
        {
          "internalType": "address",
          "name": "account",
          "type": "address"
        }
      ],
      "name": "revokeRole",
      "outputs": [],
      "stateMutability": "nonpayable",
      "type": "function"
    },
    {
      "inputs": [
        {
          "internalType": "bytes4",
          "name": "interfaceId",
          "type": "bytes4"
        }
      ],
      "name": "supportsInterface",
      "outputs": [
        {
          "internalType": "bool",
          "name": "",
          "type": "bool"
        }
      ],
      "stateMutability": "view",
      "type": "function"
    },
    {
      "inputs": [],
      "name": "symbol",
      "outputs": [
        {
          "internalType": "string",
          "name": "",
          "type": "string"
        }
      ],
      "stateMutability": "view",
      "type": "function"
    },
    {
      "inputs": [],
      "name": "totalSupply",
      "outputs": [
        {
          "internalType": "uint256",
          "name": "",
          "type": "uint256"
        }
      ],
      "stateMutability": "view",
      "type": "function"
    },
    {
      "inputs": [
        {
          "internalType": "address",
          "name": "recipient",
          "type": "address"
        },
        {
          "internalType": "uint256",
          "name": "amount",
          "type": "uint256"
        }
      ],
      "name": "transfer",
      "outputs": [
        {
          "internalType": "bool",
          "name": "",
          "type": "bool"
        }
      ],
      "stateMutability": "nonpayable",
      "type": "function"
    },
    {
      "inputs": [
        {
          "internalType": "address",
          "name": "sender",
          "type": "address"
        },
        {
          "internalType": "address",
          "name": "recipient",
          "type": "address"
        },
        {
          "internalType": "uint256",
          "name": "amount",
          "type": "uint256"
        }
      ],
      "name": "transferFrom",
      "outputs": [
        {
          "internalType": "bool",
          "name": "",
          "type": "bool"
        }
      ],
      "stateMutability": "nonpayable",
      "type": "function"
    },
    {
      "inputs": [],
      "name": "transfersAllowed",
      "outputs": [
        {
          "internalType": "bool",
          "name": "",
          "type": "bool"
        }
      ],
      "stateMutability": "view",
      "type": "function"
    },
    {
      "inputs": [],
      "name": "unpause",
      "outputs": [],
      "stateMutability": "nonpayable",
      "type": "function"
    }
  ],
  "bytecode": "0x60806040523480156200001157600080fd5b5060405162003e1a38038062003e1a83398181016040528101906200003791906200067d565b82828282828181816005908051906020019062000056929190620003f2565b5080600690805190602001906200006f929190620003f2565b5050506000600760006101000a81548160ff021916908315150217905550620000b16000801b620000a56200015c60201b60201c565b6200016460201b60201c565b620000f27f9f2df0fed2c77648de5860a4cc508cd0818c85b8b8a1ab4ceeef8d981c8956a6620000e66200015c60201b60201c565b6200016460201b60201c565b620001337f65d7a28e3265b37a6474929f336521b332c1681b933f6cb9f3376673440d862a620001276200015c60201b60201c565b6200016460201b60201c565b505080600760016101000a81548160ff021916908360ff1602179055505050505050506200077c565b600033905090565b6200017b8282620001ac60201b62000ffc1760201c565b620001a78160016000858152602001908152602001600020620001c260201b6200100a1790919060201c565b505050565b620001be8282620001fa60201b60201c565b5050565b6000620001f2836000018373ffffffffffffffffffffffffffffffffffffffff1660001b620002eb60201b60201c565b905092915050565b6200020c82826200036560201b60201c565b620002e757600160008084815260200190815260200160002060000160008373ffffffffffffffffffffffffffffffffffffffff1673ffffffffffffffffffffffffffffffffffffffff16815260200190815260200160002060006101000a81548160ff0219169083151502179055506200028c6200015c60201b60201c565b73ffffffffffffffffffffffffffffffffffffffff168173ffffffffffffffffffffffffffffffffffffffff16837f2f8788117e7eff1d82e926ec794901d17c78024a50270940304540a733656f0d60405160405180910390a45b5050565b6000620002ff8383620003cf60201b60201c565b6200035a5782600001829080600181540180825580915050600190039060005260206000200160009091909190915055826000018054905083600101600084815260200190815260200160002081905550600190506200035f565b600090505b92915050565b600080600084815260200190815260200160002060000160008373ffffffffffffffffffffffffffffffffffffffff1673ffffffffffffffffffffffffffffffffffffffff16815260200190815260200160002060009054906101000a900460ff16905092915050565b600080836001016000848152602001908152602001600020541415905092915050565b828054620004009062000746565b90600052602060002090601f01602090048101928262000424576000855562000470565b82601f106200043f57805160ff191683800117855562000470565b8280016001018555821562000470579182015b828111156200046f57825182559160200191906001019062000452565b5b5090506200047f919062000483565b5090565b5b808211156200049e57600081600090555060010162000484565b5090565b6000604051905090565b600080fd5b600080fd5b600080fd5b600080fd5b6000601f19601f8301169050919050565b7f4e487b7100000000000000000000000000000000000000000000000000000000600052604160045260246000fd5b6200050b82620004c0565b810181811067ffffffffffffffff821117156200052d576200052c620004d1565b5b80604052505050565b600062000542620004a2565b905062000550828262000500565b919050565b600067ffffffffffffffff821115620005735762000572620004d1565b5b6200057e82620004c0565b9050602081019050919050565b60005b83811015620005ab5780820151818401526020810190506200058e565b83811115620005bb576000848401525b50505050565b6000620005d8620005d28462000555565b62000536565b905082815260208101848484011115620005f757620005f6620004bb565b5b620006048482856200058b565b509392505050565b600082601f830112620006245762000623620004b6565b5b815162000636848260208601620005c1565b91505092915050565b600060ff82169050919050565b62000657816200063f565b81146200066357600080fd5b50565b60008151905062000677816200064c565b92915050565b600080600060608486031215620006995762000698620004ac565b5b600084015167ffffffffffffffff811115620006ba57620006b9620004b1565b5b620006c8868287016200060c565b935050602084015167ffffffffffffffff811115620006ec57620006eb620004b1565b5b620006fa868287016200060c565b92505060406200070d8682870162000666565b9150509250925092565b7f4e487b7100000000000000000000000000000000000000000000000000000000600052602260045260246000fd5b600060028204905060018216806200075f57607f821691505b6020821081141562000776576200077562000717565b5b50919050565b61368e806200078c6000396000f3fe608060405234801561001057600080fd5b50600436106101e55760003560e01c80635c975abb1161010f578063a457c2d7116100a2578063d539139311610071578063d539139314610594578063d547741f146105b2578063dd62ed3e146105ce578063e63ab1e9146105fe576101e5565b8063a457c2d7146104e6578063a9059cbb14610516578063b0660c3d14610546578063ca15c87314610564576101e5565b80639010d07c116100de5780639010d07c1461044a57806391d148541461047a57806395d89b41146104aa578063a217fddf146104c8576101e5565b80635c975abb146103d657806370a08231146103f457806379cc6790146104245780638456cb5914610440576101e5565b8063248a9ca311610187578063395093511161015657806339509351146103645780633f4ba83a1461039457806340c10f191461039e57806342966c68146103ba576101e5565b8063248a9ca3146102de5780632f2ff15d1461030e578063313ce5671461032a57806336568abe14610348576101e5565b806318160ddd116101c357806318160ddd14610268578063206b60f9146102865780632185810b146102a457806323b872dd146102ae576101e5565b806301ffc9a7146101ea57806306fdde031461021a578063095ea7b314610238575b600080fd5b61020460048036038101906101ff919061236c565b61061c565b60405161021191906123b4565b60405180910390f35b610222610696565b60405161022f9190612468565b60405180910390f35b610252600480360381019061024d919061251e565b610728565b60405161025f91906123b4565b60405180910390f35b610270610746565b60405161027d919061256d565b60405180910390f35b61028e610750565b60405161029b91906125a1565b60405180910390f35b6102ac610774565b005b6102c860048036038101906102c391906125bc565b6107e4565b6040516102d591906123b4565b60405180910390f35b6102f860048036038101906102f3919061263b565b6108dc565b60405161030591906125a1565b60405180910390f35b61032860048036038101906103239190612668565b6108fb565b005b61033261092f565b60405161033f91906126c4565b60405180910390f35b610362600480360381019061035d9190612668565b610946565b005b61037e6004803603810190610379919061251e565b61097a565b60405161038b91906123b4565b60405180910390f35b61039c610a26565b005b6103b860048036038101906103b3919061251e565b610aa0565b005b6103d460048036038101906103cf91906126df565b610b1e565b005b6103de610b32565b6040516103eb91906123b4565b60405180910390f35b61040e6004803603810190610409919061270c565b610b49565b60405161041b919061256d565b60405180910390f35b61043e6004803603810190610439919061251e565b610b92565b005b610448610c0d565b005b610464600480360381019061045f9190612739565b610c87565b6040516104719190612788565b60405180910390f35b610494600480360381019061048f9190612668565b610cb6565b6040516104a191906123b4565b60405180910390f35b6104b2610d20565b6040516104bf9190612468565b60405180910390f35b6104d0610db2565b6040516104dd91906125a1565b60405180910390f35b61050060048036038101906104fb919061251e565b610db9565b60405161050d91906123b4565b60405180910390f35b610530600480360381019061052b919061251e565b610ea4565b60405161053d91906123b4565b60405180910390f35b61054e610ec2565b60405161055b91906123b4565b60405180910390f35b61057e6004803603810190610579919061263b565b610ed5565b60405161058b919061256d565b60405180910390f35b61059c610ef9565b6040516105a991906125a1565b60405180910390f35b6105cc60048036038101906105c79190612668565b610f1d565b005b6105e860048036038101906105e391906127a3565b610f51565b6040516105f5919061256d565b60405180910390f35b610606610fd8565b60405161061391906125a1565b60405180910390f35b60007f5a05180f000000000000000000000000000000000000000000000000000000007bffffffffffffffffffffffffffffffffffffffffffffffffffffffff1916827bffffffffffffffffffffffffffffffffffffffffffffffffffffffff1916148061068f575061068e8261103a565b5b9050919050565b6060600580546106a590612812565b80601f01602080910402602001604051908101604052809291908181526020018280546106d190612812565b801561071e5780601f106106f35761010080835404028352916020019161071e565b820191906000526020600020905b81548152906001019060200180831161070157829003601f168201915b5050505050905090565b600061073c6107356110b4565b84846110bc565b6001905092915050565b6000600454905090565b7f8502233096d909befbda0999bb8ea2f3a6be3c138b9fbf003752a4c8bce86f6c81565b6107886000801b6107836110b4565b610cb6565b6107c7576040517f08c379a00000000000000000000000000000000000000000000000000000000081526004016107be906128b6565b60405180910390fd5b6001600760026101000a81548160ff021916908315150217905550565b60006107f1848484611287565b6000600360008673ffffffffffffffffffffffffffffffffffffffff1673ffffffffffffffffffffffffffffffffffffffff168152602001908152602001600020600061083c6110b4565b73ffffffffffffffffffffffffffffffffffffffff1673ffffffffffffffffffffffffffffffffffffffff168152602001908152602001600020549050828110156108bc576040517f08c379a00000000000000000000000000000000000000000000000000000000081526004016108b390612948565b60405180910390fd5b6108d0856108c86110b4565b8584036110bc565b60019150509392505050565b6000806000838152602001908152602001600020600101549050919050565b610905828261150b565b61092a816001600085815260200190815260200160002061100a90919063ffffffff16565b505050565b6000600760019054906101000a900460ff16905090565b6109508282611534565b61097581600160008581526020019081526020016000206115b790919063ffffffff16565b505050565b6000610a1c6109876110b4565b8484600360006109956110b4565b73ffffffffffffffffffffffffffffffffffffffff1673ffffffffffffffffffffffffffffffffffffffff16815260200190815260200160002060008873ffffffffffffffffffffffffffffffffffffffff1673ffffffffffffffffffffffffffffffffffffffff16815260200190815260200160002054610a179190612997565b6110bc565b6001905092915050565b610a577f65d7a28e3265b37a6474929f336521b332c1681b933f6cb9f3376673440d862a610a526110b4565b610cb6565b610a96576040517f08c379a0000000000000000000000000000000000000000000000000000000008152600401610a8d90612a5f565b60405180910390fd5b610a9e6115e7565b565b610ad17f9f2df0fed2c77648de5860a4cc508cd0818c85b8b8a1ab4ceeef8d981c8956a6610acc6110b4565b610cb6565b610b10576040517f08c379a0000000000000000000000000000000000000000000000000000000008152600401610b0790612af1565b60405180910390fd5b610b1a8282611689565b5050565b610b2f610b296110b4565b826117ea565b50565b6000600760009054906101000a900460ff16905090565b6000600260008373ffffffffffffffffffffffffffffffffffffffff1673ffffffffffffffffffffffffffffffffffffffff168152602001908152602001600020549050919050565b6000610ba583610ba06110b4565b610f51565b905081811015610bea576040517f08c379a0000000000000000000000000000000000000000000000000000000008152600401610be190612b83565b60405180910390fd5b610bfe83610bf66110b4565b8484036110bc565b610c0883836117ea565b505050565b610c3e7f65d7a28e3265b37a6474929f336521b332c1681b933f6cb9f3376673440d862a610c396110b4565b610cb6565b610c7d576040517f08c379a0000000000000000000000000000000000000000000000000000000008152600401610c7490612c15565b60405180910390fd5b610c856119c3565b565b6000610cae8260016000868152602001908152602001600020611a6690919063ffffffff16565b905092915050565b600080600084815260200190815260200160002060000160008373ffffffffffffffffffffffffffffffffffffffff1673ffffffffffffffffffffffffffffffffffffffff16815260200190815260200160002060009054906101000a900460ff16905092915050565b606060068054610d2f90612812565b80601f0160208091040260200160405190810160405280929190818152602001828054610d5b90612812565b8015610da85780601f10610d7d57610100808354040283529160200191610da8565b820191906000526020600020905b815481529060010190602001808311610d8b57829003601f168201915b5050505050905090565b6000801b81565b60008060036000610dc86110b4565b73ffffffffffffffffffffffffffffffffffffffff1673ffffffffffffffffffffffffffffffffffffffff16815260200190815260200160002060008573ffffffffffffffffffffffffffffffffffffffff1673ffffffffffffffffffffffffffffffffffffffff16815260200190815260200160002054905082811015610e85576040517f08c379a0000000000000000000000000000000000000000000000000000000008152600401610e7c90612ca7565b60405180910390fd5b610e99610e906110b4565b858584036110bc565b600191505092915050565b6000610eb8610eb16110b4565b8484611287565b6001905092915050565b600760029054906101000a900460ff1681565b6000610ef260016000848152602001908152602001600020611a80565b9050919050565b7f9f2df0fed2c77648de5860a4cc508cd0818c85b8b8a1ab4ceeef8d981c8956a681565b610f278282611a95565b610f4c81600160008581526020019081526020016000206115b790919063ffffffff16565b505050565b6000600360008473ffffffffffffffffffffffffffffffffffffffff1673ffffffffffffffffffffffffffffffffffffffff16815260200190815260200160002060008373ffffffffffffffffffffffffffffffffffffffff1673ffffffffffffffffffffffffffffffffffffffff16815260200190815260200160002054905092915050565b7f65d7a28e3265b37a6474929f336521b332c1681b933f6cb9f3376673440d862a81565b6110068282611abe565b5050565b6000611032836000018373ffffffffffffffffffffffffffffffffffffffff1660001b611b9e565b905092915050565b60007f7965db0b000000000000000000000000000000000000000000000000000000007bffffffffffffffffffffffffffffffffffffffffffffffffffffffff1916827bffffffffffffffffffffffffffffffffffffffffffffffffffffffff191614806110ad57506110ac82611c0e565b5b9050919050565b600033905090565b600073ffffffffffffffffffffffffffffffffffffffff168373ffffffffffffffffffffffffffffffffffffffff16141561112c576040517f08c379a000000000000000000000000000000000000000000000000000000000815260040161112390612d39565b60405180910390fd5b600073ffffffffffffffffffffffffffffffffffffffff168273ffffffffffffffffffffffffffffffffffffffff16141561119c576040517f08c379a000000000000000000000000000000000000000000000000000000000815260040161119390612dcb565b60405180910390fd5b80600360008573ffffffffffffffffffffffffffffffffffffffff1673ffffffffffffffffffffffffffffffffffffffff16815260200190815260200160002060008473ffffffffffffffffffffffffffffffffffffffff1673ffffffffffffffffffffffffffffffffffffffff168152602001908152602001600020819055508173ffffffffffffffffffffffffffffffffffffffff168373ffffffffffffffffffffffffffffffffffffffff167f8c5be1e5ebec7d5bd14f71427d1e84f3dd0314c0f7b2291e5b200ac8c7c3b9258360405161127a919061256d565b60405180910390a3505050565b600073ffffffffffffffffffffffffffffffffffffffff168373ffffffffffffffffffffffffffffffffffffffff1614156112f7576040517f08c379a00000000000000000000000000000000000000000000000000000000081526004016112ee90612e5d565b60405180910390fd5b600073ffffffffffffffffffffffffffffffffffffffff168273ffffffffffffffffffffffffffffffffffffffff161415611367576040517f08c379a000000000000000000000000000000000000000000000000000000000815260040161135e90612eef565b60405180910390fd5b611372838383611c78565b6000600260008573ffffffffffffffffffffffffffffffffffffffff1673ffffffffffffffffffffffffffffffffffffffff168152602001908152602001600020549050818110156113f9576040517f08c379a00000000000000000000000000000000000000000000000000000000081526004016113f090612f81565b60405180910390fd5b818103600260008673ffffffffffffffffffffffffffffffffffffffff1673ffffffffffffffffffffffffffffffffffffffff1681526020019081526020016000208190555081600260008573ffffffffffffffffffffffffffffffffffffffff1673ffffffffffffffffffffffffffffffffffffffff168152602001908152602001600020600082825461148e9190612997565b925050819055508273ffffffffffffffffffffffffffffffffffffffff168473ffffffffffffffffffffffffffffffffffffffff167fddf252ad1be2c89b69c2b068fc378daa952ba7f163c4a11628f55a4df523b3ef846040516114f2919061256d565b60405180910390a3611505848484611d70565b50505050565b611514826108dc565b611525816115206110b4565b611d75565b61152f8383611abe565b505050565b61153c6110b4565b73ffffffffffffffffffffffffffffffffffffffff168173ffffffffffffffffffffffffffffffffffffffff16146115a9576040517f08c379a00000000000000000000000000000000000000000000000000000000081526004016115a090613013565b60405180910390fd5b6115b38282611e12565b5050565b60006115df836000018373ffffffffffffffffffffffffffffffffffffffff1660001b611ef3565b905092915050565b6115ef610b32565b61162e576040517f08c379a00000000000000000000000000000000000000000000000000000000081526004016116259061307f565b60405180910390fd5b6000600760006101000a81548160ff0219169083151502179055507f5db9ee0a495bf2e6ff9c91a7834c1ba4fdd244a5e8aa4e537bd38aeae4b073aa6116726110b4565b60405161167f9190612788565b60405180910390a1565b600073ffffffffffffffffffffffffffffffffffffffff168273ffffffffffffffffffffffffffffffffffffffff1614156116f9576040517f08c379a00000000000000000000000000000000000000000000000000000000081526004016116f0906130eb565b60405180910390fd5b61170560008383611c78565b80600460008282546117179190612997565b9250508190555080600260008473ffffffffffffffffffffffffffffffffffffffff1673ffffffffffffffffffffffffffffffffffffffff168152602001908152602001600020600082825461176d9190612997565b925050819055508173ffffffffffffffffffffffffffffffffffffffff16600073ffffffffffffffffffffffffffffffffffffffff167fddf252ad1be2c89b69c2b068fc378daa952ba7f163c4a11628f55a4df523b3ef836040516117d2919061256d565b60405180910390a36117e660008383611d70565b5050565b600073ffffffffffffffffffffffffffffffffffffffff168273ffffffffffffffffffffffffffffffffffffffff16141561185a576040517f08c379a00000000000000000000000000000000000000000000000000000000081526004016118519061317d565b60405180910390fd5b61186682600083611c78565b6000600260008473ffffffffffffffffffffffffffffffffffffffff1673ffffffffffffffffffffffffffffffffffffffff168152602001908152602001600020549050818110156118ed576040517f08c379a00000000000000000000000000000000000000000000000000000000081526004016118e49061320f565b60405180910390fd5b818103600260008573ffffffffffffffffffffffffffffffffffffffff1673ffffffffffffffffffffffffffffffffffffffff168152602001908152602001600020819055508160046000828254611945919061322f565b92505081905550600073ffffffffffffffffffffffffffffffffffffffff168373ffffffffffffffffffffffffffffffffffffffff167fddf252ad1be2c89b69c2b068fc378daa952ba7f163c4a11628f55a4df523b3ef846040516119aa919061256d565b60405180910390a36119be83600084611d70565b505050565b6119cb610b32565b15611a0b576040517f08c379a0000000000000000000000000000000000000000000000000000000008152600401611a02906132af565b60405180910390fd5b6001600760006101000a81548160ff0219169083151502179055507f62e78cea01bee320cd4e420270b5ea74000d11b0c9f74754ebdbfc544b05a258611a4f6110b4565b604051611a5c9190612788565b60405180910390a1565b6000611a758360000183612007565b60001c905092915050565b6000611a8e82600001612032565b9050919050565b611a9e826108dc565b611aaf81611aaa6110b4565b611d75565b611ab98383611e12565b505050565b611ac88282610cb6565b611b9a57600160008084815260200190815260200160002060000160008373ffffffffffffffffffffffffffffffffffffffff1673ffffffffffffffffffffffffffffffffffffffff16815260200190815260200160002060006101000a81548160ff021916908315150217905550611b3f6110b4565b73ffffffffffffffffffffffffffffffffffffffff168173ffffffffffffffffffffffffffffffffffffffff16837f2f8788117e7eff1d82e926ec794901d17c78024a50270940304540a733656f0d60405160405180910390a45b5050565b6000611baa8383612043565b611c03578260000182908060018154018082558091505060019003906000526020600020016000909190919091505582600001805490508360010160008481526020019081526020016000208190555060019050611c08565b600090505b92915050565b60007f01ffc9a7000000000000000000000000000000000000000000000000000000007bffffffffffffffffffffffffffffffffffffffffffffffffffffffff1916827bffffffffffffffffffffffffffffffffffffffffffffffffffffffff1916149050919050565b611c83838383612066565b600760029054906101000a900460ff1680611cca5750600073ffffffffffffffffffffffffffffffffffffffff168373ffffffffffffffffffffffffffffffffffffffff16145b80611cfb5750611cfa7f8502233096d909befbda0999bb8ea2f3a6be3c138b9fbf003752a4c8bce86f6c84610cb6565b5b80611d2c5750611d2b7f8502233096d909befbda0999bb8ea2f3a6be3c138b9fbf003752a4c8bce86f6c83610cb6565b5b611d6b576040517f08c379a0000000000000000000000000000000000000000000000000000000008152600401611d629061331b565b60405180910390fd5b505050565b505050565b611d7f8282610cb6565b611e0e57611da48173ffffffffffffffffffffffffffffffffffffffff166014612076565b611db28360001c6020612076565b604051602001611dc392919061340f565b6040516020818303038152906040526040517f08c379a0000000000000000000000000000000000000000000000000000000008152600401611e059190612468565b60405180910390fd5b5050565b611e1c8282610cb6565b15611eef57600080600084815260200190815260200160002060000160008373ffffffffffffffffffffffffffffffffffffffff1673ffffffffffffffffffffffffffffffffffffffff16815260200190815260200160002060006101000a81548160ff021916908315150217905550611e946110b4565b73ffffffffffffffffffffffffffffffffffffffff168173ffffffffffffffffffffffffffffffffffffffff16837ff6391f5c32d9c69d2a47ea670b442974b53935d1edc7fd64eb21e047a839171b60405160405180910390a45b5050565b60008083600101600084815260200190815260200160002054905060008114611ffb576000600182611f25919061322f565b9050600060018660000180549050611f3d919061322f565b9050818114611fac576000866000018281548110611f5e57611f5d613449565b5b9060005260206000200154905080876000018481548110611f8257611f81613449565b5b90600052602060002001819055508387600101600083815260200190815260200160002081905550505b85600001805480611fc057611fbf613478565b5b600190038181906000526020600020016000905590558560010160008681526020019081526020016000206000905560019350505050612001565b60009150505b92915050565b600082600001828154811061201f5761201e613449565b5b9060005260206000200154905092915050565b600081600001805490509050919050565b600080836001016000848152602001908152602001600020541415905092915050565b6120718383836122b2565b505050565b60606000600283600261208991906134a7565b6120939190612997565b67ffffffffffffffff8111156120ac576120ab613501565b5b6040519080825280601f01601f1916602001820160405280156120de5781602001600182028036833780820191505090505b5090507f30000000000000000000000000000000000000000000000000000000000000008160008151811061211657612115613449565b5b60200101907effffffffffffffffffffffffffffffffffffffffffffffffffffffffffffff1916908160001a9053507f78000000000000000000000000000000000000000000000000000000000000008160018151811061217a57612179613449565b5b60200101907effffffffffffffffffffffffffffffffffffffffffffffffffffffffffffff1916908160001a905350600060018460026121ba91906134a7565b6121c49190612997565b90505b6001811115612264577f3031323334353637383961626364656600000000000000000000000000000000600f86166010811061220657612205613449565b5b1a60f81b82828151811061221d5761221c613449565b5b60200101907effffffffffffffffffffffffffffffffffffffffffffffffffffffffffffff1916908160001a905350600485901c94508061225d90613530565b90506121c7565b50600084146122a8576040517f08c379a000000000000000000000000000000000000000000000000000000000815260040161229f906135a6565b60405180910390fd5b8091505092915050565b6122bd83838361230a565b6122c5610b32565b15612305576040517f08c379a00000000000000000000000000000000000000000000000000000000081526004016122fc90613638565b60405180910390fd5b505050565b505050565b600080fd5b60007fffffffff0000000000000000000000000000000000000000000000000000000082169050919050565b61234981612314565b811461235457600080fd5b50565b60008135905061236681612340565b92915050565b6000602082840312156123825761238161230f565b5b600061239084828501612357565b91505092915050565b60008115159050919050565b6123ae81612399565b82525050565b60006020820190506123c960008301846123a5565b92915050565b600081519050919050565b600082825260208201905092915050565b60005b838110156124095780820151818401526020810190506123ee565b83811115612418576000848401525b50505050565b6000601f19601f8301169050919050565b600061243a826123cf565b61244481856123da565b93506124548185602086016123eb565b61245d8161241e565b840191505092915050565b60006020820190508181036000830152612482818461242f565b905092915050565b600073ffffffffffffffffffffffffffffffffffffffff82169050919050565b60006124b58261248a565b9050919050565b6124c5816124aa565b81146124d057600080fd5b50565b6000813590506124e2816124bc565b92915050565b6000819050919050565b6124fb816124e8565b811461250657600080fd5b50565b600081359050612518816124f2565b92915050565b600080604083850312156125355761253461230f565b5b6000612543858286016124d3565b925050602061255485828601612509565b9150509250929050565b612567816124e8565b82525050565b6000602082019050612582600083018461255e565b92915050565b6000819050919050565b61259b81612588565b82525050565b60006020820190506125b66000830184612592565b92915050565b6000806000606084860312156125d5576125d461230f565b5b60006125e3868287016124d3565b93505060206125f4868287016124d3565b925050604061260586828701612509565b9150509250925092565b61261881612588565b811461262357600080fd5b50565b6000813590506126358161260f565b92915050565b6000602082840312156126515761265061230f565b5b600061265f84828501612626565b91505092915050565b6000806040838503121561267f5761267e61230f565b5b600061268d85828601612626565b925050602061269e858286016124d3565b9150509250929050565b600060ff82169050919050565b6126be816126a8565b82525050565b60006020820190506126d960008301846126b5565b92915050565b6000602082840312156126f5576126f461230f565b5b600061270384828501612509565b91505092915050565b6000602082840312156127225761272161230f565b5b6000612730848285016124d3565b91505092915050565b600080604083850312156127505761274f61230f565b5b600061275e85828601612626565b925050602061276f85828601612509565b9150509250929050565b612782816124aa565b82525050565b600060208201905061279d6000830184612779565b92915050565b600080604083850312156127ba576127b961230f565b5b60006127c8858286016124d3565b92505060206127d9858286016124d3565b9150509250929050565b7f4e487b7100000000000000000000000000000000000000000000000000000000600052602260045260246000fd5b6000600282049050600182168061282a57607f821691505b6020821081141561283e5761283d6127e3565b5b50919050565b7f487562626c6545726332302e616c6c6f775472616e73666572732e6e6f41757460008201527f6800000000000000000000000000000000000000000000000000000000000000602082015250565b60006128a06021836123da565b91506128ab82612844565b604082019050919050565b600060208201905081810360008301526128cf81612893565b9050919050565b7f45524332303a207472616e7366657220616d6f756e742065786365656473206160008201527f6c6c6f77616e6365000000000000000000000000000000000000000000000000602082015250565b60006129326028836123da565b915061293d826128d6565b604082019050919050565b6000602082019050818103600083015261296181612925565b9050919050565b7f4e487b7100000000000000000000000000000000000000000000000000000000600052601160045260246000fd5b60006129a2826124e8565b91506129ad836124e8565b9250827fffffffffffffffffffffffffffffffffffffffffffffffffffffffffffffffff038211156129e2576129e1612968565b5b828201905092915050565b7f45524332305072657365744d696e7465725061757365723a206d75737420686160008201527f76652070617573657220726f6c6520746f20756e706175736500000000000000602082015250565b6000612a496039836123da565b9150612a54826129ed565b604082019050919050565b60006020820190508181036000830152612a7881612a3c565b9050919050565b7f45524332305072657365744d696e7465725061757365723a206d75737420686160008201527f7665206d696e74657220726f6c6520746f206d696e7400000000000000000000602082015250565b6000612adb6036836123da565b9150612ae682612a7f565b604082019050919050565b60006020820190508181036000830152612b0a81612ace565b9050919050565b7f45524332303a206275726e20616d6f756e74206578636565647320616c6c6f7760008201527f616e636500000000000000000000000000000000000000000000000000000000602082015250565b6000612b6d6024836123da565b9150612b7882612b11565b604082019050919050565b60006020820190508181036000830152612b9c81612b60565b9050919050565b7f45524332305072657365744d696e7465725061757365723a206d75737420686160008201527f76652070617573657220726f6c6520746f207061757365000000000000000000602082015250565b6000612bff6037836123da565b9150612c0a82612ba3565b604082019050919050565b60006020820190508181036000830152612c2e81612bf2565b9050919050565b7f45524332303a2064656372656173656420616c6c6f77616e63652062656c6f7760008201527f207a65726f000000000000000000000000000000000000000000000000000000602082015250565b6000612c916025836123da565b9150612c9c82612c35565b604082019050919050565b60006020820190508181036000830152612cc081612c84565b9050919050565b7f45524332303a20617070726f76652066726f6d20746865207a65726f2061646460008201527f7265737300000000000000000000000000000000000000000000000000000000602082015250565b6000612d236024836123da565b9150612d2e82612cc7565b604082019050919050565b60006020820190508181036000830152612d5281612d16565b9050919050565b7f45524332303a20617070726f766520746f20746865207a65726f20616464726560008201527f7373000000000000000000000000000000000000000000000000000000000000602082015250565b6000612db56022836123da565b9150612dc082612d59565b604082019050919050565b60006020820190508181036000830152612de481612da8565b9050919050565b7f45524332303a207472616e736665722066726f6d20746865207a65726f20616460008201527f6472657373000000000000000000000000000000000000000000000000000000602082015250565b6000612e476025836123da565b9150612e5282612deb565b604082019050919050565b60006020820190508181036000830152612e7681612e3a565b9050919050565b7f45524332303a207472616e7366657220746f20746865207a65726f206164647260008201527f6573730000000000000000000000000000000000000000000000000000000000602082015250565b6000612ed96023836123da565b9150612ee482612e7d565b604082019050919050565b60006020820190508181036000830152612f0881612ecc565b9050919050565b7f45524332303a207472616e7366657220616d6f756e742065786365656473206260008201527f616c616e63650000000000000000000000000000000000000000000000000000602082015250565b6000612f6b6026836123da565b9150612f7682612f0f565b604082019050919050565b60006020820190508181036000830152612f9a81612f5e565b9050919050565b7f416363657373436f6e74726f6c3a2063616e206f6e6c792072656e6f756e636560008201527f20726f6c657320666f722073656c660000000000000000000000000000000000602082015250565b6000612ffd602f836123da565b915061300882612fa1565b604082019050919050565b6000602082019050818103600083015261302c81612ff0565b9050919050565b7f5061757361626c653a206e6f7420706175736564000000000000000000000000600082015250565b60006130696014836123da565b915061307482613033565b602082019050919050565b600060208201905081810360008301526130988161305c565b9050919050565b7f45524332303a206d696e7420746f20746865207a65726f206164647265737300600082015250565b60006130d5601f836123da565b91506130e08261309f565b602082019050919050565b60006020820190508181036000830152613104816130c8565b9050919050565b7f45524332303a206275726e2066726f6d20746865207a65726f2061646472657360008201527f7300000000000000000000000000000000000000000000000000000000000000602082015250565b60006131676021836123da565b91506131728261310b565b604082019050919050565b600060208201905081810360008301526131968161315a565b9050919050565b7f45524332303a206275726e20616d6f756e7420657863656564732062616c616e60008201527f6365000000000000000000000000000000000000000000000000000000000000602082015250565b60006131f96022836123da565b91506132048261319d565b604082019050919050565b60006020820190508181036000830152613228816131ec565b9050919050565b600061323a826124e8565b9150613245836124e8565b92508282101561325857613257612968565b5b828203905092915050565b7f5061757361626c653a2070617573656400000000000000000000000000000000600082015250565b60006132996010836123da565b91506132a482613263565b602082019050919050565b600060208201905081810360008301526132c88161328c565b9050919050565b7f487562626c6545726332302e7472616e736665727344697361626c6564000000600082015250565b6000613305601d836123da565b9150613310826132cf565b602082019050919050565b60006020820190508181036000830152613334816132f8565b9050919050565b600081905092915050565b7f416363657373436f6e74726f6c3a206163636f756e7420000000000000000000600082015250565b600061337c60178361333b565b915061338782613346565b601782019050919050565b600061339d826123cf565b6133a7818561333b565b93506133b78185602086016123eb565b80840191505092915050565b7f206973206d697373696e6720726f6c6520000000000000000000000000000000600082015250565b60006133f960118361333b565b9150613404826133c3565b601182019050919050565b600061341a8261336f565b91506134268285613392565b9150613431826133ec565b915061343d8284613392565b91508190509392505050565b7f4e487b7100000000000000000000000000000000000000000000000000000000600052603260045260246000fd5b7f4e487b7100000000000000000000000000000000000000000000000000000000600052603160045260246000fd5b60006134b2826124e8565b91506134bd836124e8565b9250817fffffffffffffffffffffffffffffffffffffffffffffffffffffffffffffffff04831182151516156134f6576134f5612968565b5b828202905092915050565b7f4e487b7100000000000000000000000000000000000000000000000000000000600052604160045260246000fd5b600061353b826124e8565b9150600082141561354f5761354e612968565b5b600182039050919050565b7f537472696e67733a20686578206c656e67746820696e73756666696369656e74600082015250565b60006135906020836123da565b915061359b8261355a565b602082019050919050565b600060208201905081810360008301526135bf81613583565b9050919050565b7f45524332305061757361626c653a20746f6b656e207472616e7366657220776860008201527f696c652070617573656400000000000000000000000000000000000000000000602082015250565b6000613622602a836123da565b915061362d826135c6565b604082019050919050565b6000602082019050818103600083015261365181613615565b905091905056fea26469706673582212207107044910881408155bfab31817cd3ac9f63596e8621351098fe7894cfdfefa64736f6c63430008090033",
  "linkReferences": {},
  "deployedLinkReferences": {}
}