{
  "_format": "hh-sol-artifact-1",
  "contractName": "MockFeeDistributor",
  "sourceName": "contracts/mocks/balancer/MockFeeDistro.sol",
  "abi": [
    {
      "inputs": [
        {
          "internalType": "address[]",
          "name": "_tokens",
          "type": "address[]"
        },
        {
          "internalType": "uint256[]",
          "name": "_rates",
          "type": "uint256[]"
        }
      ],
      "stateMutability": "nonpayable",
      "type": "constructor"
    },
    {
      "inputs": [
        {
          "internalType": "address",
          "name": "user",
          "type": "address"
        },
        {
          "internalType": "contract IERC20",
          "name": "token",
          "type": "address"
        }
      ],
      "name": "claimToken",
      "outputs": [
        {
          "internalType": "uint256",
          "name": "",
          "type": "uint256"
        }
      ],
      "stateMutability": "nonpayable",
      "type": "function"
    },
    {
      "inputs": [
        {
          "internalType": "address",
          "name": "user",
          "type": "address"
        },
        {
          "internalType": "contract IERC20[]",
          "name": "tokens",
          "type": "address[]"
        }
      ],
      "name": "claimTokens",
      "outputs": [
        {
          "internalType": "uint256[]",
          "name": "",
          "type": "uint256[]"
        }
      ],
      "stateMutability": "nonpayable",
      "type": "function"
    },
    {
      "inputs": [
        {
          "internalType": "contract IERC20",
          "name": "token",
          "type": "address"
        }
      ],
      "name": "getTokenTimeCursor",
      "outputs": [
        {
          "internalType": "uint256",
          "name": "",
          "type": "uint256"
        }
      ],
      "stateMutability": "view",
      "type": "function"
    }
  ],
  "bytecode": "0x608060405234801561001057600080fd5b5060405161069638038061069683398101604081905261002f91610185565b60005b82518110156100a95781818151811061004d5761004d610256565b602002602001015160008085848151811061006a5761006a610256565b60200260200101516001600160a01b03166001600160a01b031681526020019081526020016000208190555080806100a19061026c565b915050610032565b505050610295565b634e487b7160e01b600052604160045260246000fd5b604051601f8201601f191681016001600160401b03811182821017156100ef576100ef6100b1565b604052919050565b60006001600160401b03821115610110576101106100b1565b5060051b60200190565b600082601f83011261012b57600080fd5b8151602061014061013b836100f7565b6100c7565b82815260059290921b8401810191818101908684111561015f57600080fd5b8286015b8481101561017a5780518352918301918301610163565b509695505050505050565b6000806040838503121561019857600080fd5b82516001600160401b03808211156101af57600080fd5b818501915085601f8301126101c357600080fd5b815160206101d361013b836100f7565b82815260059290921b840181019181810190898411156101f257600080fd5b948201945b838610156102265785516001600160a01b03811681146102175760008081fd5b825294820194908201906101f7565b9188015191965090935050508082111561023f57600080fd5b5061024c8582860161011a565b9150509250929050565b634e487b7160e01b600052603260045260246000fd5b600060001982141561028e57634e487b7160e01b600052601160045260246000fd5b5060010190565b6103f2806102a46000396000f3fe608060405234801561001057600080fd5b50600436106100415760003560e01c80638872046714610046578063acbc14281461006f578063ca31879d14610091575b600080fd5b61005961005436600461024c565b6100a4565b60405161006691906102d4565b60405180910390f35b61008361007d366004610318565b50600190565b604051908152602001610066565b61008361009f366004610335565b610160565b606060008267ffffffffffffffff8111156100c1576100c161036e565b6040519080825280602002602001820160405280156100ea578160200160208202803683370190505b50905060005b83811015610157576101288686868481811061010e5761010e610384565b90506020020160208101906101239190610318565b610173565b82828151811061013a5761013a610384565b60209081029190910101528061014f8161039a565b9150506100f0565b50949350505050565b600061016c8383610173565b9392505050565b73ffffffffffffffffffffffffffffffffffffffff8116600090815260208190526040812054801561016c5760405163a9059cbb60e01b815273ffffffffffffffffffffffffffffffffffffffff85811660048301526024820183905284169063a9059cbb906044016020604051808303816000875af11580156101fb573d6000803e3d6000fd5b505050506040513d601f19601f8201168201806040525081019061021f91906103c3565b509392505050565b73ffffffffffffffffffffffffffffffffffffffff8116811461024957600080fd5b50565b60008060006040848603121561026157600080fd5b833561026c81610227565b9250602084013567ffffffffffffffff8082111561028957600080fd5b818601915086601f83011261029d57600080fd5b8135818111156102ac57600080fd5b8760208260051b85010111156102c157600080fd5b6020830194508093505050509250925092565b6020808252825182820181905260009190848201906040850190845b8181101561030c578351835292840192918401916001016102f0565b50909695505050505050565b60006020828403121561032a57600080fd5b813561016c81610227565b6000806040838503121561034857600080fd5b823561035381610227565b9150602083013561036381610227565b809150509250929050565b634e487b7160e01b600052604160045260246000fd5b634e487b7160e01b600052603260045260246000fd5b60006000198214156103bc57634e487b7160e01b600052601160045260246000fd5b5060010190565b6000602082840312156103d557600080fd5b8151801515811461016c57600080fdfea164736f6c634300080b000a",
  "linkReferences": {},
  "deployedLinkReferences": {}
}