{
  "_format": "hh-sol-artifact-1",
  "contractName": "WrappedIbbtcEth",
  "sourceName": "contracts/WrappedIbbtcEth.sol",
  "abi": [
    {
      "anonymous": false,
      "inputs": [
        {
          "indexed": false,
          "internalType": "address",
          "name": "pendingGovernance",
          "type": "address"
        }
      ],
      "name": "AcceptPendingGovernance",
      "type": "event"
    },
    {
      "anonymous": false,
      "inputs": [
        {
          "indexed": true,
          "internalType": "address",
          "name": "owner",
          "type": "address"
        },
        {
          "indexed": true,
          "internalType": "address",
          "name": "spender",
          "type": "address"
        },
        {
          "indexed": false,
          "internalType": "uint256",
          "name": "value",
          "type": "uint256"
        }
      ],
      "name": "Approval",
      "type": "event"
    },
    {
      "anonymous": false,
      "inputs": [
        {
          "indexed": false,
          "internalType": "address",
          "name": "core",
          "type": "address"
        }
      ],
      "name": "SetCore",
      "type": "event"
    },
    {
      "anonymous": false,
      "inputs": [
        {
          "indexed": false,
          "internalType": "address",
          "name": "pendingGovernance",
          "type": "address"
        }
      ],
      "name": "SetPendingGovernance",
      "type": "event"
    },
    {
      "anonymous": false,
      "inputs": [
        {
          "indexed": false,
          "internalType": "uint256",
          "name": "pricePerShare",
          "type": "uint256"
        },
        {
          "indexed": false,
          "internalType": "uint256",
          "name": "updateTimestamp",
          "type": "uint256"
        }
      ],
      "name": "SetPricePerShare",
      "type": "event"
    },
    {
      "anonymous": false,
      "inputs": [
        {
          "indexed": true,
          "internalType": "address",
          "name": "from",
          "type": "address"
        },
        {
          "indexed": true,
          "internalType": "address",
          "name": "to",
          "type": "address"
        },
        {
          "indexed": false,
          "internalType": "uint256",
          "name": "value",
          "type": "uint256"
        }
      ],
      "name": "Transfer",
      "type": "event"
    },
    {
      "inputs": [],
      "name": "acceptPendingGovernance",
      "outputs": [],
      "stateMutability": "nonpayable",
      "type": "function"
    },
    {
      "inputs": [
        {
          "internalType": "address",
          "name": "owner",
          "type": "address"
        },
        {
          "internalType": "address",
          "name": "spender",
          "type": "address"
        }
      ],
      "name": "allowance",
      "outputs": [
        {
          "internalType": "uint256",
          "name": "",
          "type": "uint256"
        }
      ],
      "stateMutability": "view",
      "type": "function"
    },
    {
      "inputs": [
        {
          "internalType": "address",
          "name": "spender",
          "type": "address"
        },
        {
          "internalType": "uint256",
          "name": "amount",
          "type": "uint256"
        }
      ],
      "name": "approve",
      "outputs": [
        {
          "internalType": "bool",
          "name": "",
          "type": "bool"
        }
      ],
      "stateMutability": "nonpayable",
      "type": "function"
    },
    {
      "inputs": [
        {
          "internalType": "address",
          "name": "account",
          "type": "address"
        }
      ],
      "name": "balanceOf",
      "outputs": [
        {
          "internalType": "uint256",
          "name": "",
          "type": "uint256"
        }
      ],
      "stateMutability": "view",
      "type": "function"
    },
    {
      "inputs": [
        {
          "internalType": "uint256",
          "name": "balance",
          "type": "uint256"
        }
      ],
      "name": "balanceToShares",
      "outputs": [
        {
          "internalType": "uint256",
          "name": "",
          "type": "uint256"
        }
      ],
      "stateMutability": "view",
      "type": "function"
    },
    {
      "inputs": [
        {
          "internalType": "uint256",
          "name": "_shares",
          "type": "uint256"
        }
      ],
      "name": "burn",
      "outputs": [],
      "stateMutability": "nonpayable",
      "type": "function"
    },
    {
      "inputs": [],
      "name": "core",
      "outputs": [
        {
          "internalType": "contract ICore",
          "name": "",
          "type": "address"
        }
      ],
      "stateMutability": "view",
      "type": "function"
    },
    {
      "inputs": [],
      "name": "decimals",
      "outputs": [
        {
          "internalType": "uint8",
          "name": "",
          "type": "uint8"
        }
      ],
      "stateMutability": "view",
      "type": "function"
    },
    {
      "inputs": [
        {
          "internalType": "address",
          "name": "spender",
          "type": "address"
        },
        {
          "internalType": "uint256",
          "name": "subtractedValue",
          "type": "uint256"
        }
      ],
      "name": "decreaseAllowance",
      "outputs": [
        {
          "internalType": "bool",
          "name": "",
          "type": "bool"
        }
      ],
      "stateMutability": "nonpayable",
      "type": "function"
    },
    {
      "inputs": [],
      "name": "governance",
      "outputs": [
        {
          "internalType": "address",
          "name": "",
          "type": "address"
        }
      ],
      "stateMutability": "view",
      "type": "function"
    },
    {
      "inputs": [],
      "name": "ibbtc",
      "outputs": [
        {
          "internalType": "contract ERC20Upgradeable",
          "name": "",
          "type": "address"
        }
      ],
      "stateMutability": "view",
      "type": "function"
    },
    {
      "inputs": [
        {
          "internalType": "address",
          "name": "spender",
          "type": "address"
        },
        {
          "internalType": "uint256",
          "name": "addedValue",
          "type": "uint256"
        }
      ],
      "name": "increaseAllowance",
      "outputs": [
        {
          "internalType": "bool",
          "name": "",
          "type": "bool"
        }
      ],
      "stateMutability": "nonpayable",
      "type": "function"
    },
    {
      "inputs": [
        {
          "internalType": "address",
          "name": "_governance",
          "type": "address"
        },
        {
          "internalType": "address",
          "name": "_ibbtc",
          "type": "address"
        },
        {
          "internalType": "address",
          "name": "_core",
          "type": "address"
        }
      ],
      "name": "initialize",
      "outputs": [],
      "stateMutability": "nonpayable",
      "type": "function"
    },
    {
      "inputs": [],
      "name": "lastPricePerShareUpdate",
      "outputs": [
        {
          "internalType": "uint256",
          "name": "",
          "type": "uint256"
        }
      ],
      "stateMutability": "view",
      "type": "function"
    },
    {
      "inputs": [
        {
          "internalType": "uint256",
          "name": "_shares",
          "type": "uint256"
        }
      ],
      "name": "mint",
      "outputs": [],
      "stateMutability": "nonpayable",
      "type": "function"
    },
    {
      "inputs": [],
      "name": "name",
      "outputs": [
        {
          "internalType": "string",
          "name": "",
          "type": "string"
        }
      ],
      "stateMutability": "view",
      "type": "function"
    },
    {
      "inputs": [],
      "name": "pendingGovernance",
      "outputs": [
        {
          "internalType": "address",
          "name": "",
          "type": "address"
        }
      ],
      "stateMutability": "view",
      "type": "function"
    },
    {
      "inputs": [],
      "name": "pricePerShare",
      "outputs": [
        {
          "internalType": "uint256",
          "name": "",
          "type": "uint256"
        }
      ],
      "stateMutability": "view",
      "type": "function"
    },
    {
      "inputs": [
        {
          "internalType": "address",
          "name": "_core",
          "type": "address"
        }
      ],
      "name": "setCore",
      "outputs": [],
      "stateMutability": "nonpayable",
      "type": "function"
    },
    {
      "inputs": [
        {
          "internalType": "address",
          "name": "_pendingGovernance",
          "type": "address"
        }
      ],
      "name": "setPendingGovernance",
      "outputs": [],
      "stateMutability": "nonpayable",
      "type": "function"
    },
    {
      "inputs": [
        {
          "internalType": "address",
          "name": "account",
          "type": "address"
        }
      ],
      "name": "sharesOf",
      "outputs": [
        {
          "internalType": "uint256",
          "name": "",
          "type": "uint256"
        }
      ],
      "stateMutability": "view",
      "type": "function"
    },
    {
      "inputs": [
        {
          "internalType": "uint256",
          "name": "shares",
          "type": "uint256"
        }
      ],
      "name": "sharesToBalance",
      "outputs": [
        {
          "internalType": "uint256",
          "name": "",
          "type": "uint256"
        }
      ],
      "stateMutability": "view",
      "type": "function"
    },
    {
      "inputs": [],
      "name": "symbol",
      "outputs": [
        {
          "internalType": "string",
          "name": "",
          "type": "string"
        }
      ],
      "stateMutability": "view",
      "type": "function"
    },
    {
      "inputs": [],
      "name": "totalShares",
      "outputs": [
        {
          "internalType": "uint256",
          "name": "",
          "type": "uint256"
        }
      ],
      "stateMutability": "view",
      "type": "function"
    },
    {
      "inputs": [],
      "name": "totalSupply",
      "outputs": [
        {
          "internalType": "uint256",
          "name": "",
          "type": "uint256"
        }
      ],
      "stateMutability": "view",
      "type": "function"
    },
    {
      "inputs": [
        {
          "internalType": "address",
          "name": "recipient",
          "type": "address"
        },
        {
          "internalType": "uint256",
          "name": "amount",
          "type": "uint256"
        }
      ],
      "name": "transfer",
      "outputs": [
        {
          "internalType": "bool",
          "name": "",
          "type": "bool"
        }
      ],
      "stateMutability": "nonpayable",
      "type": "function"
    },
    {
      "inputs": [
        {
          "internalType": "address",
          "name": "sender",
          "type": "address"
        },
        {
          "internalType": "address",
          "name": "recipient",
          "type": "address"
        },
        {
          "internalType": "uint256",
          "name": "amount",
          "type": "uint256"
        }
      ],
      "name": "transferFrom",
      "outputs": [
        {
          "internalType": "bool",
          "name": "",
          "type": "bool"
        }
      ],
      "stateMutability": "nonpayable",
      "type": "function"
    },
    {
      "inputs": [],
      "name": "updatePricePerShare",
      "outputs": [
        {
          "internalType": "uint256",
          "name": "",
          "type": "uint256"
        }
      ],
      "stateMutability": "nonpayable",
      "type": "function"
    }
  ],
  "bytecode": "0x608060405234801561001057600080fd5b50612b3d806100206000396000f3fe608060405234801561001057600080fd5b50600436106101c45760003560e01c80638e2691dd116100f9578063c0c53b8b11610097578063dd62ed3e11610071578063dd62ed3e14610850578063f2f4eb26146108c8578063f39c38a0146108fc578063f5eb42dc14610930576101c4565b8063c0c53b8b1461076c578063cc4638c1146107f0578063d8ddf18f1461080e576101c4565b806399530b06116100d357806399530b0614610658578063a0712d6814610676578063a457c2d7146106a4578063a9059cbb14610708576101c4565b80638e2691dd1461058357806395d89b41146105b7578063966b19af1461063a576101c4565b80633a98ef39116101665780635aa6e675116101405780635aa6e675146104a957806370a08231146104dd578063723c6ebd14610535578063800096301461053f576101c4565b80633a98ef391461041b57806342966c681461043957806353735f3714610467576101c4565b806318160ddd116101a257806318160ddd146102f457806323b872dd14610312578063313ce5671461039657806339509351146103b7576101c4565b806306fdde03146101c9578063095ea7b31461024c5780630abb6035146102b0575b600080fd5b6101d1610988565b6040518080602001828103825283818151815260200191508051906020019080838360005b838110156102115780820151818401526020810190506101f6565b50505050905090810190601f16801561023e5780820380516001836020036101000a031916815260200191505b509250505060405180910390f35b6102986004803603604081101561026257600080fd5b81019080803573ffffffffffffffffffffffffffffffffffffffff16906020019092919080359060200190929190505050610a2a565b60405180821515815260200191505060405180910390f35b6102f2600480360360208110156102c657600080fd5b81019080803573ffffffffffffffffffffffffffffffffffffffff169060200190929190505050610a48565b005b6102fc610bbe565b6040518082815260200191505060405180910390f35b61037e6004803603606081101561032857600080fd5b81019080803573ffffffffffffffffffffffffffffffffffffffff169060200190929190803573ffffffffffffffffffffffffffffffffffffffff16906020019092919080359060200190929190505050610bfb565b60405180821515815260200191505060405180910390f35b61039e610ce1565b604051808260ff16815260200191505060405180910390f35b610403600480360360408110156103cd57600080fd5b81019080803573ffffffffffffffffffffffffffffffffffffffff16906020019092919080359060200190929190505050610cf8565b60405180821515815260200191505060405180910390f35b610423610dab565b6040518082815260200191505060405180910390f35b6104656004803603602081101561044f57600080fd5b8101908080359060200190929190505050610db5565b005b6104936004803603602081101561047d57600080fd5b8101908080359060200190929190505050610ea7565b6040518082815260200191505060405180910390f35b6104b1610edf565b604051808273ffffffffffffffffffffffffffffffffffffffff16815260200191505060405180910390f35b61051f600480360360208110156104f357600080fd5b81019080803573ffffffffffffffffffffffffffffffffffffffff169060200190929190505050610f05565b6040518082815260200191505060405180910390f35b61053d610f45565b005b6105816004803603602081101561055557600080fd5b81019080803573ffffffffffffffffffffffffffffffffffffffff1690602001909291905050506110dc565b005b61058b611230565b604051808273ffffffffffffffffffffffffffffffffffffffff16815260200191505060405180910390f35b6105bf611256565b6040518080602001828103825283818151815260200191508051906020019080838360005b838110156105ff5780820151818401526020810190506105e4565b50505050905090810190601f16801561062c5780820380516001836020036101000a031916815260200191505b509250505060405180910390f35b6106426112f8565b6040518082815260200191505060405180910390f35b6106606112fe565b6040518082815260200191505060405180910390f35b6106a26004803603602081101561068c57600080fd5b8101908080359060200190929190505050611304565b005b6106f0600480360360408110156106ba57600080fd5b81019080803573ffffffffffffffffffffffffffffffffffffffff16906020019092919080359060200190929190505050611414565b60405180821515815260200191505060405180910390f35b6107546004803603604081101561071e57600080fd5b81019080803573ffffffffffffffffffffffffffffffffffffffff169060200190929190803590602001909291905050506114e1565b60405180821515815260200191505060405180910390f35b6107ee6004803603606081101561078257600080fd5b81019080803573ffffffffffffffffffffffffffffffffffffffff169060200190929190803573ffffffffffffffffffffffffffffffffffffffff169060200190929190803573ffffffffffffffffffffffffffffffffffffffff16906020019092919050505061150c565b005b6107f861179a565b6040518082815260200191505060405180910390f35b61083a6004803603602081101561082457600080fd5b8101908080359060200190929190505050611892565b6040518082815260200191505060405180910390f35b6108b26004803603604081101561086657600080fd5b81019080803573ffffffffffffffffffffffffffffffffffffffff169060200190929190803573ffffffffffffffffffffffffffffffffffffffff1690602001909291905050506118ca565b6040518082815260200191505060405180910390f35b6108d0611951565b604051808273ffffffffffffffffffffffffffffffffffffffff16815260200191505060405180910390f35b610904611977565b604051808273ffffffffffffffffffffffffffffffffffffffff16815260200191505060405180910390f35b6109726004803603602081101561094657600080fd5b81019080803573ffffffffffffffffffffffffffffffffffffffff16906020019092919050505061199d565b6040518082815260200191505060405180910390f35b606060368054600181600116156101000203166002900480601f016020809104026020016040519081016040528092919081815260200182805460018160011615610100020316600290048015610a205780601f106109f557610100808354040283529160200191610a20565b820191906000526020600020905b815481529060010190602001808311610a0357829003601f168201915b5050505050905090565b6000610a3e610a376119e6565b84846119ee565b6001905092915050565b606560009054906101000a900473ffffffffffffffffffffffffffffffffffffffff1673ffffffffffffffffffffffffffffffffffffffff163373ffffffffffffffffffffffffffffffffffffffff1614610b0b576040517f08c379a000000000000000000000000000000000000000000000000000000000815260040180806020018281038252600e8152602001807f6f6e6c79476f7665726e616e636500000000000000000000000000000000000081525060200191505060405180910390fd5b80606660006101000a81548173ffffffffffffffffffffffffffffffffffffffff021916908373ffffffffffffffffffffffffffffffffffffffff1602179055507f76b3f20c6900119eb71b9afc1a8736e0828e24d6ae34bc194a70fc6a84663ea7606660009054906101000a900473ffffffffffffffffffffffffffffffffffffffff16604051808273ffffffffffffffffffffffffffffffffffffffff16815260200191505060405180910390a150565b6000610bf6670de0b6b3a7640000610be8606954610bda610dab565b611be590919063ffffffff16565b611c6b90919063ffffffff16565b905090565b600080610c0783611892565b9050610c14858583611cb5565b610cd585610c206119e6565b610cd084604051806060016040528060288152602001612a5160289139603460008c73ffffffffffffffffffffffffffffffffffffffff1673ffffffffffffffffffffffffffffffffffffffff1681526020019081526020016000206000610c866119e6565b73ffffffffffffffffffffffffffffffffffffffff1673ffffffffffffffffffffffffffffffffffffffff16815260200190815260200160002054611f7a9092919063ffffffff16565b6119ee565b60019150509392505050565b6000603860009054906101000a900460ff16905090565b6000610da1610d056119e6565b84610d9c8560346000610d166119e6565b73ffffffffffffffffffffffffffffffffffffffff1673ffffffffffffffffffffffffffffffffffffffff16815260200190815260200160002060008973ffffffffffffffffffffffffffffffffffffffff1673ffffffffffffffffffffffffffffffffffffffff1681526020019081526020016000205461203a90919063ffffffff16565b6119ee565b6001905092915050565b6000603554905090565b610dc6610dc06119e6565b826120c2565b606760009054906101000a900473ffffffffffffffffffffffffffffffffffffffff1673ffffffffffffffffffffffffffffffffffffffff1663a9059cbb610e0c6119e6565b836040518363ffffffff1660e01b8152600401808373ffffffffffffffffffffffffffffffffffffffff16815260200182815260200192505050602060405180830381600087803b158015610e6057600080fd5b505af1158015610e74573d6000803e3d6000fd5b505050506040513d6020811015610e8a57600080fd5b8101908080519060200190929190505050610ea457600080fd5b50565b6000610ed8670de0b6b3a7640000610eca60695485611be590919063ffffffff16565b611c6b90919063ffffffff16565b9050919050565b606560009054906101000a900473ffffffffffffffffffffffffffffffffffffffff1681565b6000610f3e670de0b6b3a7640000610f30606954610f228661199d565b611be590919063ffffffff16565b611c6b90919063ffffffff16565b9050919050565b606660009054906101000a900473ffffffffffffffffffffffffffffffffffffffff1673ffffffffffffffffffffffffffffffffffffffff163373ffffffffffffffffffffffffffffffffffffffff1614611008576040517f08c379a00000000000000000000000000000000000000000000000000000000081526004018080602001828103825260158152602001807f6f6e6c7950656e64696e67476f7665726e616e6365000000000000000000000081525060200191505060405180910390fd5b606660009054906101000a900473ffffffffffffffffffffffffffffffffffffffff16606560006101000a81548173ffffffffffffffffffffffffffffffffffffffff021916908373ffffffffffffffffffffffffffffffffffffffff1602179055507f4b5ba4a0bf568dec77076f05fd5e2110634bc92ec15b1fc1e3f3f1ac35044090606660009054906101000a900473ffffffffffffffffffffffffffffffffffffffff16604051808273ffffffffffffffffffffffffffffffffffffffff16815260200191505060405180910390a1565b606560009054906101000a900473ffffffffffffffffffffffffffffffffffffffff1673ffffffffffffffffffffffffffffffffffffffff163373ffffffffffffffffffffffffffffffffffffffff161461119f576040517f08c379a000000000000000000000000000000000000000000000000000000000815260040180806020018281038252600e8152602001807f6f6e6c79476f7665726e616e636500000000000000000000000000000000000081525060200191505060405180910390fd5b80606860006101000a81548173ffffffffffffffffffffffffffffffffffffffff021916908373ffffffffffffffffffffffffffffffffffffffff1602179055507fb509f1ef29149e474db3a4776b2b658ad1b70710ceb0a5635a375a4c388eed8e81604051808273ffffffffffffffffffffffffffffffffffffffff16815260200191505060405180910390a150565b606760009054906101000a900473ffffffffffffffffffffffffffffffffffffffff1681565b606060378054600181600116156101000203166002900480601f0160208091040260200160405190810160405280929190818152602001828054600181600116156101000203166002900480156112ee5780601f106112c3576101008083540402835291602001916112ee565b820191906000526020600020905b8154815290600101906020018083116112d157829003601f168201915b5050505050905090565b606a5481565b60695481565b606760009054906101000a900473ffffffffffffffffffffffffffffffffffffffff1673ffffffffffffffffffffffffffffffffffffffff166323b872dd61134a6119e6565b30846040518463ffffffff1660e01b8152600401808473ffffffffffffffffffffffffffffffffffffffff1681526020018373ffffffffffffffffffffffffffffffffffffffff1681526020018281526020019350505050602060405180830381600087803b1580156113bc57600080fd5b505af11580156113d0573d6000803e3d6000fd5b505050506040513d60208110156113e657600080fd5b810190808051906020019092919050505061140057600080fd5b61141161140b6119e6565b82612288565b50565b60006114d76114216119e6565b846114d285604051806060016040528060258152602001612ae3602591396034600061144b6119e6565b73ffffffffffffffffffffffffffffffffffffffff1673ffffffffffffffffffffffffffffffffffffffff16815260200190815260200160002060008a73ffffffffffffffffffffffffffffffffffffffff1673ffffffffffffffffffffffffffffffffffffffff16815260200190815260200160002054611f7a9092919063ffffffff16565b6119ee565b6001905092915050565b6000806114ed83611892565b90506115016114fa6119e6565b8583611cb5565b600191505092915050565b600060019054906101000a900460ff168061152b575061152a612451565b5b80611541575060008054906101000a900460ff16155b611596576040517f08c379a000000000000000000000000000000000000000000000000000000000815260040180806020018281038252602e815260200180612a02602e913960400191505060405180910390fd5b60008060019054906101000a900460ff1615905080156115e6576001600060016101000a81548160ff02191690831515021790555060016000806101000a81548160ff0219169083151502179055505b61165a6040518060400160405280602081526020017f5772617070656420496e7465726573742d42656172696e6720426974636f696e8152506040518060400160405280600681526020017f7769624254430000000000000000000000000000000000000000000000000000815250612468565b83606560006101000a81548173ffffffffffffffffffffffffffffffffffffffff021916908373ffffffffffffffffffffffffffffffffffffffff16021790555081606860006101000a81548173ffffffffffffffffffffffffffffffffffffffff021916908373ffffffffffffffffffffffffffffffffffffffff16021790555082606760006101000a81548173ffffffffffffffffffffffffffffffffffffffff021916908373ffffffffffffffffffffffffffffffffffffffff16021790555061172561179a565b507fb509f1ef29149e474db3a4776b2b658ad1b70710ceb0a5635a375a4c388eed8e82604051808273ffffffffffffffffffffffffffffffffffffffff16815260200191505060405180910390a180156117945760008060016101000a81548160ff0219169083151502179055505b50505050565b6000606860009054906101000a900473ffffffffffffffffffffffffffffffffffffffff1673ffffffffffffffffffffffffffffffffffffffff166399530b066040518163ffffffff1660e01b815260040160206040518083038186803b15801561180457600080fd5b505afa158015611818573d6000803e3d6000fd5b505050506040513d602081101561182e57600080fd5b810190808051906020019092919050505060698190555042606a819055507fc2f838fa4c11906f3f7b577c260b6ce331a5f32bb50fc0c95c87c1b1dfa74830606954606a54604051808381526020018281526020019250505060405180910390a190565b60006118c36069546118b5670de0b6b3a764000085611be590919063ffffffff16565b611c6b90919063ffffffff16565b9050919050565b6000603460008473ffffffffffffffffffffffffffffffffffffffff1673ffffffffffffffffffffffffffffffffffffffff16815260200190815260200160002060008373ffffffffffffffffffffffffffffffffffffffff1673ffffffffffffffffffffffffffffffffffffffff16815260200190815260200160002054905092915050565b606860009054906101000a900473ffffffffffffffffffffffffffffffffffffffff1681565b606660009054906101000a900473ffffffffffffffffffffffffffffffffffffffff1681565b6000603360008373ffffffffffffffffffffffffffffffffffffffff1673ffffffffffffffffffffffffffffffffffffffff168152602001908152602001600020549050919050565b600033905090565b600073ffffffffffffffffffffffffffffffffffffffff168373ffffffffffffffffffffffffffffffffffffffff161415611a74576040517f08c379a0000000000000000000000000000000000000000000000000000000008152600401808060200182810382526024815260200180612abf6024913960400191505060405180910390fd5b600073ffffffffffffffffffffffffffffffffffffffff168273ffffffffffffffffffffffffffffffffffffffff161415611afa576040517f08c379a00000000000000000000000000000000000000000000000000000000081526004018080602001828103825260228152602001806129ba6022913960400191505060405180910390fd5b80603460008573ffffffffffffffffffffffffffffffffffffffff1673ffffffffffffffffffffffffffffffffffffffff16815260200190815260200160002060008473ffffffffffffffffffffffffffffffffffffffff1673ffffffffffffffffffffffffffffffffffffffff168152602001908152602001600020819055508173ffffffffffffffffffffffffffffffffffffffff168373ffffffffffffffffffffffffffffffffffffffff167f8c5be1e5ebec7d5bd14f71427d1e84f3dd0314c0f7b2291e5b200ac8c7c3b925836040518082815260200191505060405180910390a3505050565b600080831415611bf85760009050611c65565b6000828402905082848281611c0957fe5b0414611c60576040517f08c379a0000000000000000000000000000000000000000000000000000000008152600401808060200182810382526021815260200180612a306021913960400191505060405180910390fd5b809150505b92915050565b6000611cad83836040518060400160405280601a81526020017f536166654d6174683a206469766973696f6e206279207a65726f00000000000081525061257a565b905092915050565b600073ffffffffffffffffffffffffffffffffffffffff168373ffffffffffffffffffffffffffffffffffffffff161415611d3b576040517f08c379a0000000000000000000000000000000000000000000000000000000008152600401808060200182810382526025815260200180612a9a6025913960400191505060405180910390fd5b600073ffffffffffffffffffffffffffffffffffffffff168273ffffffffffffffffffffffffffffffffffffffff161415611dc1576040517f08c379a00000000000000000000000000000000000000000000000000000000081526004018080602001828103825260238152602001806129756023913960400191505060405180910390fd5b611dcc838383612640565b611e38816040518060600160405280602681526020016129dc60269139603360008773ffffffffffffffffffffffffffffffffffffffff1673ffffffffffffffffffffffffffffffffffffffff16815260200190815260200160002054611f7a9092919063ffffffff16565b603360008573ffffffffffffffffffffffffffffffffffffffff1673ffffffffffffffffffffffffffffffffffffffff16815260200190815260200160002081905550611ecd81603360008573ffffffffffffffffffffffffffffffffffffffff1673ffffffffffffffffffffffffffffffffffffffff1681526020019081526020016000205461203a90919063ffffffff16565b603360008473ffffffffffffffffffffffffffffffffffffffff1673ffffffffffffffffffffffffffffffffffffffff168152602001908152602001600020819055508173ffffffffffffffffffffffffffffffffffffffff168373ffffffffffffffffffffffffffffffffffffffff167fddf252ad1be2c89b69c2b068fc378daa952ba7f163c4a11628f55a4df523b3ef836040518082815260200191505060405180910390a3505050565b6000838311158290612027576040517f08c379a00000000000000000000000000000000000000000000000000000000081526004018080602001828103825283818151815260200191508051906020019080838360005b83811015611fec578082015181840152602081019050611fd1565b50505050905090810190601f1680156120195780820380516001836020036101000a031916815260200191505b509250505060405180910390fd5b5060008385039050809150509392505050565b6000808284019050838110156120b8576040517f08c379a000000000000000000000000000000000000000000000000000000000815260040180806020018281038252601b8152602001807f536166654d6174683a206164646974696f6e206f766572666c6f77000000000081525060200191505060405180910390fd5b8091505092915050565b600073ffffffffffffffffffffffffffffffffffffffff168273ffffffffffffffffffffffffffffffffffffffff161415612148576040517f08c379a0000000000000000000000000000000000000000000000000000000008152600401808060200182810382526021815260200180612a796021913960400191505060405180910390fd5b61215482600083612640565b6121c08160405180606001604052806022815260200161299860229139603360008673ffffffffffffffffffffffffffffffffffffffff1673ffffffffffffffffffffffffffffffffffffffff16815260200190815260200160002054611f7a9092919063ffffffff16565b603360008473ffffffffffffffffffffffffffffffffffffffff1673ffffffffffffffffffffffffffffffffffffffff168152602001908152602001600020819055506122188160355461264590919063ffffffff16565b603581905550600073ffffffffffffffffffffffffffffffffffffffff168273ffffffffffffffffffffffffffffffffffffffff167fddf252ad1be2c89b69c2b068fc378daa952ba7f163c4a11628f55a4df523b3ef836040518082815260200191505060405180910390a35050565b600073ffffffffffffffffffffffffffffffffffffffff168273ffffffffffffffffffffffffffffffffffffffff16141561232b576040517f08c379a000000000000000000000000000000000000000000000000000000000815260040180806020018281038252601f8152602001807f45524332303a206d696e7420746f20746865207a65726f20616464726573730081525060200191505060405180910390fd5b61233760008383612640565b61234c8160355461203a90919063ffffffff16565b6035819055506123a481603360008573ffffffffffffffffffffffffffffffffffffffff1673ffffffffffffffffffffffffffffffffffffffff1681526020019081526020016000205461203a90919063ffffffff16565b603360008473ffffffffffffffffffffffffffffffffffffffff1673ffffffffffffffffffffffffffffffffffffffff168152602001908152602001600020819055508173ffffffffffffffffffffffffffffffffffffffff16600073ffffffffffffffffffffffffffffffffffffffff167fddf252ad1be2c89b69c2b068fc378daa952ba7f163c4a11628f55a4df523b3ef836040518082815260200191505060405180910390a35050565b6000803090506000813b9050600081149250505090565b600060019054906101000a900460ff16806124875750612486612451565b5b8061249d575060008054906101000a900460ff16155b6124f2576040517f08c379a000000000000000000000000000000000000000000000000000000000815260040180806020018281038252602e815260200180612a02602e913960400191505060405180910390fd5b60008060019054906101000a900460ff161590508015612542576001600060016101000a81548160ff02191690831515021790555060016000806101000a81548160ff0219169083151502179055505b61254a61268f565b612554838361278d565b80156125755760008060016101000a81548160ff0219169083151502179055505b505050565b60008083118290612626576040517f08c379a00000000000000000000000000000000000000000000000000000000081526004018080602001828103825283818151815260200191508051906020019080838360005b838110156125eb5780820151818401526020810190506125d0565b50505050905090810190601f1680156126185780820380516001836020036101000a031916815260200191505b509250505060405180910390fd5b50600083858161263257fe5b049050809150509392505050565b505050565b600061268783836040518060400160405280601e81526020017f536166654d6174683a207375627472616374696f6e206f766572666c6f770000815250611f7a565b905092915050565b600060019054906101000a900460ff16806126ae57506126ad612451565b5b806126c4575060008054906101000a900460ff16155b612719576040517f08c379a000000000000000000000000000000000000000000000000000000000815260040180806020018281038252602e815260200180612a02602e913960400191505060405180910390fd5b60008060019054906101000a900460ff161590508015612769576001600060016101000a81548160ff02191690831515021790555060016000806101000a81548160ff0219169083151502179055505b801561278a5760008060016101000a81548160ff0219169083151502179055505b50565b600060019054906101000a900460ff16806127ac57506127ab612451565b5b806127c2575060008054906101000a900460ff16155b612817576040517f08c379a000000000000000000000000000000000000000000000000000000000815260040180806020018281038252602e815260200180612a02602e913960400191505060405180910390fd5b60008060019054906101000a900460ff161590508015612867576001600060016101000a81548160ff02191690831515021790555060016000806101000a81548160ff0219169083151502179055505b826036908051906020019061287d9291906128d7565b5081603790805190602001906128949291906128d7565b506012603860006101000a81548160ff021916908360ff16021790555080156128d25760008060016101000a81548160ff0219169083151502179055505b505050565b828054600181600116156101000203166002900490600052602060002090601f016020900481019282601f1061291857805160ff1916838001178555612946565b82800160010185558215612946579182015b8281111561294557825182559160200191906001019061292a565b5b5090506129539190612957565b5090565b5b80821115612970576000816000905550600101612958565b509056fe45524332303a207472616e7366657220746f20746865207a65726f206164647265737345524332303a206275726e20616d6f756e7420657863656564732062616c616e636545524332303a20617070726f766520746f20746865207a65726f206164647265737345524332303a207472616e7366657220616d6f756e7420657863656564732062616c616e6365496e697469616c697a61626c653a20636f6e747261637420697320616c726561647920696e697469616c697a6564536166654d6174683a206d756c7469706c69636174696f6e206f766572666c6f7745524332303a207472616e7366657220616d6f756e74206578636565647320616c6c6f77616e636545524332303a206275726e2066726f6d20746865207a65726f206164647265737345524332303a207472616e736665722066726f6d20746865207a65726f206164647265737345524332303a20617070726f76652066726f6d20746865207a65726f206164647265737345524332303a2064656372656173656420616c6c6f77616e63652062656c6f77207a65726fa26469706673582212209c3abcb5d050d195e02933fa82d8bd94f008d0135b3d90b9192338d240657a7a64736f6c634300060c0033",
  "linkReferences": {},
  "deployedLinkReferences": {}
}