{
  "_format": "hh-sol-artifact-1",
  "contractName": "YieldMath",
  "sourceName": "contracts/yieldspace/YieldMath.sol",
  "abi": [
    {
      "inputs": [],
      "name": "MAX",
      "outputs": [
        {
          "internalType": "uint256",
          "name": "",
          "type": "uint256"
        }
      ],
      "stateMutability": "view",
      "type": "function"
    },
    {
      "inputs": [],
      "name": "ONE",
      "outputs": [
        {
          "internalType": "uint128",
          "name": "",
          "type": "uint128"
        }
      ],
      "stateMutability": "view",
      "type": "function"
    },
    {
      "inputs": [],
      "name": "VAR",
      "outputs": [
        {
          "internalType": "uint256",
          "name": "",
          "type": "uint256"
        }
      ],
      "stateMutability": "view",
      "type": "function"
    },
    {
      "inputs": [
        {
          "internalType": "uint128",
          "name": "baseReserves",
          "type": "uint128"
        },
        {
          "internalType": "uint128",
          "name": "fyTokenReserves",
          "type": "uint128"
        },
        {
          "internalType": "uint128",
          "name": "fyTokenAmount",
          "type": "uint128"
        },
        {
          "internalType": "uint128",
          "name": "timeTillMaturity",
          "type": "uint128"
        },
        {
          "internalType": "int128",
          "name": "k",
          "type": "int128"
        },
        {
          "internalType": "int128",
          "name": "g",
          "type": "int128"
        }
      ],
      "name": "baseInForFYTokenOut",
      "outputs": [
        {
          "internalType": "uint128",
          "name": "",
          "type": "uint128"
        }
      ],
      "stateMutability": "pure",
      "type": "function"
    },
    {
      "inputs": [
        {
          "internalType": "uint128",
          "name": "baseReserves",
          "type": "uint128"
        },
        {
          "internalType": "uint128",
          "name": "fyTokenReserves",
          "type": "uint128"
        },
        {
          "internalType": "uint128",
          "name": "fyTokenAmount",
          "type": "uint128"
        },
        {
          "internalType": "uint128",
          "name": "timeTillMaturity",
          "type": "uint128"
        },
        {
          "internalType": "int128",
          "name": "k",
          "type": "int128"
        },
        {
          "internalType": "int128",
          "name": "g",
          "type": "int128"
        }
      ],
      "name": "baseOutForFYTokenIn",
      "outputs": [
        {
          "internalType": "uint128",
          "name": "",
          "type": "uint128"
        }
      ],
      "stateMutability": "pure",
      "type": "function"
    },
    {
      "inputs": [
        {
          "internalType": "uint128",
          "name": "baseReserves",
          "type": "uint128"
        },
        {
          "internalType": "uint128",
          "name": "fyTokenReserves",
          "type": "uint128"
        },
        {
          "internalType": "uint128",
          "name": "baseAmount",
          "type": "uint128"
        },
        {
          "internalType": "uint128",
          "name": "timeTillMaturity",
          "type": "uint128"
        },
        {
          "internalType": "int128",
          "name": "k",
          "type": "int128"
        },
        {
          "internalType": "int128",
          "name": "g",
          "type": "int128"
        }
      ],
      "name": "fyTokenInForBaseOut",
      "outputs": [
        {
          "internalType": "uint128",
          "name": "",
          "type": "uint128"
        }
      ],
      "stateMutability": "pure",
      "type": "function"
    },
    {
      "inputs": [
        {
          "internalType": "uint128",
          "name": "baseReserves",
          "type": "uint128"
        },
        {
          "internalType": "uint128",
          "name": "fyTokenReserves",
          "type": "uint128"
        },
        {
          "internalType": "uint128",
          "name": "baseAmount",
          "type": "uint128"
        },
        {
          "internalType": "uint128",
          "name": "timeTillMaturity",
          "type": "uint128"
        },
        {
          "internalType": "int128",
          "name": "k",
          "type": "int128"
        },
        {
          "internalType": "int128",
          "name": "g",
          "type": "int128"
        }
      ],
      "name": "fyTokenOutForBaseIn",
      "outputs": [
        {
          "internalType": "uint128",
          "name": "",
          "type": "uint128"
        }
      ],
      "stateMutability": "pure",
      "type": "function"
    },
    {
      "inputs": [
        {
          "internalType": "uint128",
          "name": "baseReserves",
          "type": "uint128"
        },
        {
          "internalType": "uint128",
          "name": "fyTokenReserves",
          "type": "uint128"
        },
        {
          "internalType": "uint128",
          "name": "timeTillMaturity",
          "type": "uint128"
        },
        {
          "internalType": "int128",
          "name": "k",
          "type": "int128"
        },
        {
          "internalType": "int128",
          "name": "c0",
          "type": "int128"
        }
      ],
      "name": "initialReservesValue",
      "outputs": [
        {
          "internalType": "uint128",
          "name": "",
          "type": "uint128"
        }
      ],
      "stateMutability": "pure",
      "type": "function"
    }
  ],
  "bytecode": "0x61236661003a600b82828239805160001a60731461002d57634e487b7160e01b600052600060045260246000fd5b30600052607381538281f3fe73000000000000000000000000000000000000000030146080604052600436106100925760003560e01c80639a7d1570116100655780639a7d1570146100fb578063c2ee3a081461010e578063d49d518114610116578063e03824d61461011e57610092565b806340528932146100975780635fd8dc08146100c05780636a31b2d7146100d3578063763dc405146100e8575b600080fd5b6100aa6100a5366004611f50565b610131565b6040516100b79190612313565b60405180910390f35b6100aa6100ce366004611f50565b610292565b6100db610402565b6040516100b79190612327565b6100aa6100f6366004611eec565b61040b565b6100aa610109366004611f50565b61053a565b6100aa610639565b6100db610646565b6100aa61012c366004611f50565b610651565b60008061013f85858561077b565b905060006101606001600160801b038a168368010000000000000000610834565b6001600160801b039081169150600090610186908a168468010000000000000000610834565b6001600160801b0390811691508a811689821601908111156101c35760405162461bcd60e51b81526004016101ba90612122565b60405180910390fd5b60006101e26001600160801b0383168668010000000000000000610834565b6001600160801b039081169150848401829003908111156102155760405162461bcd60e51b81526004016101ba906121ed565b60006102346001600160801b0383166801000000000000000089610834565b6001600160801b039081168e82160391508111156102645760405162461bcd60e51b81526004016101ba9061208e565b64e8d4a510008111610277576000610280565b64e8d4a5100081035b9e9d5050505050505050505050505050565b6000806102a085858561077b565b905060006102c16001600160801b038a168368010000000000000000610834565b6001600160801b0390811691506000906102e7908a168468010000000000000000610834565b6001600160801b0390811691508881168a8216039081111561031b5760405162461bcd60e51b81526004016101ba90612020565b600061033a6001600160801b0383168668010000000000000000610834565b6001600160801b0390811691508484018290039081111561036d5760405162461bcd60e51b81526004016101ba90612190565b60006001600160801b03808f1690610391908416680100000000000000008a610834565b6001600160801b03160390506001600160801b0380168111156103c65760405162461bcd60e51b81526004016101ba9061208e565b6fffffffffffffffffffffff172b5aefff81106103ea576001600160801b03610280565b64e8d4a51000019d9c50505050505050505050505050565b64e8d4a5100081565b600080610425600f84900b6001600160801b03891661090e565b90506001600160801b0381111561043b57600080fd5b6000610470610460610455886001600160801b0316610989565b600f88900b906109ac565b6801000000000000000090610a04565b9050600081600f0b1361048257600080fd5b600060016104a36001600160801b038a168468010000000000000000610834565b6001600160801b03908116906104c59086168568010000000000000000610834565b6001600160801b031601901c90506001600160801b0380168111156104e957600080fd5b6000600161050a6001600160801b0384166801000000000000000086610834565b6001600160801b0316901b90506001600160801b03801681111561052d57600080fd5b9998505050505050505050565b60008061054885858561077b565b905060006105696001600160801b038a168368010000000000000000610834565b6001600160801b03908116915060009061058f908a168468010000000000000000610834565b6001600160801b0390811691508881168b821603908111156105c35760405162461bcd60e51b81526004016101ba90612057565b60006105e26001600160801b0383168668010000000000000000610834565b6001600160801b039081169150848401829003908111156106155760405162461bcd60e51b81526004016101ba90611fc3565b60006001600160801b03808e1690610391908416680100000000000000008a610834565b6801000000000000000081565b6001600160801b0381565b60008061065f85858561077b565b905060006106806001600160801b038a168368010000000000000000610834565b6001600160801b0390811691506000906106a6908a168468010000000000000000610834565b6001600160801b03908116915089811689821601908111156106da5760405162461bcd60e51b81526004016101ba906120eb565b60006106f96001600160801b0383168668010000000000000000610834565b6001600160801b0390811691508484018290039081111561072c5760405162461bcd60e51b81526004016101ba9061224a565b600061074b6001600160801b0383166801000000000000000089610834565b6001600160801b039081168f82160391508111156102645760405162461bcd60e51b81526004016101ba9061208e565b60008061079e610793866001600160801b0316610989565b600f86900b906109ac565b9050600081600f0b12156107c45760405162461bcd60e51b81526004016101ba90612159565b60006107d7610460600f86900b846109ac565b9050600081600f0b136107fc5760405162461bcd60e51b81526004016101ba906122a7565b68010000000000000000600f82900b13156108295760405162461bcd60e51b81526004016101ba906122dc565b9150505b9392505050565b60006001600160801b03821661084957600080fd5b6001600160801b038416610872576001600160801b03831661086a57600080fd5b50600061082d565b6000826001600160801b0316846001600160801b031661089187610a58565b6001600160801b03036001600160801b031602816108d8577f4e487b7100000000000000000000000000000000000000000000000000000000600052601260045260246000fd5b0490506001600160801b038111156108f457600091505061082d565b610906816001600160801b0303611536565b91505061082d565b60008161091d57506000610983565b600083600f0b121561092e57600080fd5b600f83900b6001600160801b038316810260401c90608084901c0277ffffffffffffffffffffffffffffffffffffffffffffffff81111561096e57600080fd5b60401b811981111561097f57600080fd5b0190505b92915050565b6000677fffffffffffffff8211156109a057600080fd5b50604081901b5b919050565b6000600f83810b9083900b0260401d7fffffffffffffffffffffffffffffffff8000000000000000000000000000000081128015906109fb57506f7fffffffffffffffffffffffffffffff8113155b61082d57600080fd5b6000600f82810b9084900b037fffffffffffffffffffffffffffffffff8000000000000000000000000000000081128015906109fb57506f7fffffffffffffffffffffffffffffff81131561082d57600080fd5b60006001600160801b038216610a6d57600080fd5b6001600160801b0382166ffe00000000000000000000000000000068010000000000000000821015610ac35760409190911b907fffffffffffffffffffffffffffffffff80000000000000000000000000000000015b6c01000000000000000000000000821015610b025760209190911b907fffffffffffffffffffffffffffffffffc0000000000000000000000000000000015b6e010000000000000000000000000000821015610b435760109190911b907fffffffffffffffffffffffffffffffffe0000000000000000000000000000000015b6f01000000000000000000000000000000821015610b855760089190911b907ffffffffffffffffffffffffffffffffff0000000000000000000000000000000015b6f10000000000000000000000000000000821015610bc75760049190911b907ffffffffffffffffffffffffffffffffff8000000000000000000000000000000015b6f40000000000000000000000000000000821015610c095760029190911b907ffffffffffffffffffffffffffffffffffc000000000000000000000000000000015b6f80000000000000000000000000000000821015610c4b5760019190911b907ffffffffffffffffffffffffffffffffffe000000000000000000000000000000015b908002607f1c90600160801b8210610c775760019190911c906f01000000000000000000000000000000175b908002607f1c90600160801b8210610ca25760019190911c906e800000000000000000000000000000175b908002607f1c90600160801b8210610ccd5760019190911c906e400000000000000000000000000000175b908002607f1c90600160801b8210610cf85760019190911c906e200000000000000000000000000000175b908002607f1c90600160801b8210610d235760019190911c906e100000000000000000000000000000175b908002607f1c90600160801b8210610d4e5760019190911c906e080000000000000000000000000000175b908002607f1c90600160801b8210610d795760019190911c906e040000000000000000000000000000175b908002607f1c90600160801b8210610da45760019190911c906e020000000000000000000000000000175b908002607f1c90600160801b8210610dcf5760019190911c906e010000000000000000000000000000175b908002607f1c90600160801b8210610df95760019190911c906d8000000000000000000000000000175b908002607f1c90600160801b8210610e235760019190911c906d4000000000000000000000000000175b908002607f1c90600160801b8210610e4d5760019190911c906d2000000000000000000000000000175b908002607f1c90600160801b8210610e775760019190911c906d1000000000000000000000000000175b908002607f1c90600160801b8210610ea15760019190911c906d0800000000000000000000000000175b908002607f1c90600160801b8210610ecb5760019190911c906d0400000000000000000000000000175b908002607f1c90600160801b8210610ef55760019190911c906d0200000000000000000000000000175b908002607f1c90600160801b8210610f1f5760019190911c906d0100000000000000000000000000175b908002607f1c90600160801b8210610f485760019190911c906c80000000000000000000000000175b908002607f1c90600160801b8210610f715760019190911c906c40000000000000000000000000175b908002607f1c90600160801b8210610f9a5760019190911c906c20000000000000000000000000175b908002607f1c90600160801b8210610fc35760019190911c906c10000000000000000000000000175b908002607f1c90600160801b8210610fec5760019190911c906c08000000000000000000000000175b908002607f1c90600160801b82106110155760019190911c906c04000000000000000000000000175b908002607f1c90600160801b821061103e5760019190911c906c02000000000000000000000000175b908002607f1c90600160801b82106110675760019190911c906c01000000000000000000000000175b908002607f1c90600160801b821061108f5760019190911c906b800000000000000000000000175b908002607f1c90600160801b82106110b75760019190911c906b400000000000000000000000175b908002607f1c90600160801b82106110df5760019190911c906b200000000000000000000000175b908002607f1c90600160801b82106111075760019190911c906b100000000000000000000000175b908002607f1c90600160801b821061112f5760019190911c906b080000000000000000000000175b908002607f1c90600160801b82106111575760019190911c906b040000000000000000000000175b908002607f1c90600160801b821061117f5760019190911c906b020000000000000000000000175b908002607f1c90600160801b82106111a75760019190911c906b010000000000000000000000175b908002607f1c90600160801b82106111ce5760019190911c906a8000000000000000000000175b908002607f1c90600160801b82106111f55760019190911c906a4000000000000000000000175b908002607f1c90600160801b821061121c5760019190911c906a2000000000000000000000175b908002607f1c90600160801b82106112435760019190911c906a1000000000000000000000175b908002607f1c90600160801b821061126a5760019190911c906a0800000000000000000000175b908002607f1c90600160801b82106112915760019190911c906a0400000000000000000000175b908002607f1c90600160801b82106112b85760019190911c906a0200000000000000000000175b908002607f1c90600160801b82106112df5760019190911c906a0100000000000000000000175b908002607f1c90600160801b82106113055760019190911c906980000000000000000000175b908002607f1c90600160801b821061132b5760019190911c906940000000000000000000175b908002607f1c90600160801b82106113515760019190911c906920000000000000000000175b908002607f1c90600160801b82106113775760019190911c906910000000000000000000175b908002607f1c90600160801b821061139d5760019190911c906908000000000000000000175b908002607f1c90600160801b82106113c35760019190911c906904000000000000000000175b908002607f1c90600160801b82106113e95760019190911c906902000000000000000000175b908002607f1c90600160801b821061140f5760019190911c906901000000000000000000175b908002607f1c90600160801b82106114345760019190911c9068800000000000000000175b908002607f1c90600160801b82106114595760019190911c9068400000000000000000175b908002607f1c90600160801b821061147e5760019190911c9068200000000000000000175b908002607f1c90600160801b82106114a35760019190911c9068100000000000000000175b908002607f1c90600160801b82106114c85760019190911c9068080000000000000000175b908002607f1c90600160801b82106114ed5760019190911c9068040000000000000000175b908002607f1c90600160801b82106115125760019190911c9068020000000000000000175b908002607f1c90600160801b821061082d5768010000000000000000179392505050565b60006f800000000000000000000000000000006f01000000000000000000000000000000831615611577576fb504f333f9de6484597d89b3754abe9f02607f1c5b6e8000000000000000000000000000008316156115a4576f9837f0518db8a96f46ad23182e42f6f602607f1c5b6e4000000000000000000000000000008316156115d1576f8b95c1e3ea8bd6e6fbe4628758a53c9002607f1c5b6e2000000000000000000000000000008316156115fe576f85aac367cc487b14c5c95b8c2154c1b202607f1c5b6e10000000000000000000000000000083161561162b576f82cd8698ac2ba1d73e2a475b46520bff02607f1c5b6e080000000000000000000000000000831615611658576f8164d1f3bc0307737be56527bd14def402607f1c5b6e040000000000000000000000000000831615611685576f80b1ed4fd999ab6c25335719b6e6fd2002607f1c5b6e0200000000000000000000000000008316156116b2576f8058d7d2d5e5f6b094d589f608ee4aa202607f1c5b6e0100000000000000000000000000008316156116df576f802c6436d0e04f50ff8ce94a6797b3ce02607f1c5b6d800000000000000000000000000083161561170b576f8016302f174676283690dfe44d11d00802607f1c5b6d4000000000000000000000000000831615611737576f800b179c82028fd0945e54e2ae18f2f002607f1c5b6d2000000000000000000000000000831615611763576f80058baf7fee3b5d1c718b38e549cb9302607f1c5b6d100000000000000000000000000083161561178f576f8002c5d00fdcfcb6b6566a58c048be1f02607f1c5b6d08000000000000000000000000008316156117bb576f800162e61bed4a48e84c2e1a463473d902607f1c5b6d04000000000000000000000000008316156117e7576f8000b17292f702a3aa22beacca94901302607f1c5b6d0200000000000000000000000000831615611813576f800058b92abbae02030c5fa5256f41fe02607f1c5b6d010000000000000000000000000083161561183f576f80002c5c8dade4d71776c0f4dbea67d602607f1c5b6c8000000000000000000000000083161561186a576f8000162e44eaf636526be456600bdbe402607f1c5b6c40000000000000000000000000831615611895576f80000b1721fa7c188307016c1cd4e8b602607f1c5b6c200000000000000000000000008316156118c0576f8000058b90de7e4cecfc487503488bb102607f1c5b6c100000000000000000000000008316156118eb576f800002c5c8678f36cbfce50a6de60b1402607f1c5b6c08000000000000000000000000831615611916576f80000162e431db9f80b2347b5d62e51602607f1c5b6c04000000000000000000000000831615611941576f800000b1721872d0c7b08cf1e011415202607f1c5b6c0200000000000000000000000083161561196c576f80000058b90c1aa8a5c3736cb77e8dff02607f1c5b6c01000000000000000000000000831615611997576f8000002c5c8605a4635f2efc2362d97802607f1c5b6b8000000000000000000000008316156119c1576f800000162e4300e635cf4a109e3939bd02607f1c5b6b4000000000000000000000008316156119eb576f8000000b17217ff81bef9c551590cf8302607f1c5b6b200000000000000000000000831615611a15576f800000058b90bfdd4e39cd52c0cfa27c02607f1c5b6b100000000000000000000000831615611a3f576f80000002c5c85fe6f72d669e0e76e41102607f1c5b6b080000000000000000000000831615611a69576f8000000162e42ff18f9ad35186d0df2802607f1c5b6b040000000000000000000000831615611a93576f80000000b17217f84cce71aa0dcfffe702607f1c5b6b020000000000000000000000831615611abd576f8000000058b90bfc07a77ad56ed22aaa02607f1c5b6b010000000000000000000000831615611ae7576f800000002c5c85fdfc23cdead40da8d602607f1c5b6a8000000000000000000000831615611b10576f80000000162e42fefc25eb1571853a6602607f1c5b6a4000000000000000000000831615611b39576f800000000b17217f7d97f692baacded502607f1c5b6a2000000000000000000000831615611b62576f80000000058b90bfbead3b8b5dd254d702607f1c5b6a1000000000000000000000831615611b8b576f8000000002c5c85fdf4eedd62f084e6702607f1c5b6a0800000000000000000000831615611bb4576f800000000162e42fefa58aef378bf58602607f1c5b6a0400000000000000000000831615611bdd576f8000000000b17217f7d24a78a3c7ef0202607f1c5b6a0200000000000000000000831615611c06576f800000000058b90bfbe9067c93e474a602607f1c5b6a0100000000000000000000831615611c2f576f80000000002c5c85fdf47b8e5a72599f02607f1c5b6980000000000000000000831615611c57576f8000000000162e42fefa3bdb315934a202607f1c5b6940000000000000000000831615611c7f576f80000000000b17217f7d1d7299b49c4602607f1c5b6920000000000000000000831615611ca7576f8000000000058b90bfbe8e9a8d1c4ea002607f1c5b6910000000000000000000831615611ccf576f800000000002c5c85fdf4745969ea76f02607f1c5b6908000000000000000000831615611cf7576f80000000000162e42fefa3a0df5373bf02607f1c5b6904000000000000000000831615611d1f576f800000000000b17217f7d1cff4aac1e102607f1c5b6902000000000000000000831615611d47576f80000000000058b90bfbe8e7db95a2f102607f1c5b6901000000000000000000831615611d6f576f8000000000002c5c85fdf473e61ae1f802607f1c5b68800000000000000000831615611d96576f800000000000162e42fefa39f121751c02607f1c5b68400000000000000000831615611dbd576f8000000000000b17217f7d1cf815bb9602607f1c5b68200000000000000000831615611de4576f800000000000058b90bfbe8e7bec1e0d02607f1c5b68100000000000000000831615611e0b576f80000000000002c5c85fdf473dee5f1702607f1c5b68080000000000000000831615611e32576f8000000000000162e42fefa39ef5438f02607f1c5b68040000000000000000831615611e59576f80000000000000b17217f7d1cf7a26c802607f1c5b68020000000000000000831615611e80576f8000000000000058b90bfbe8e7bcf4a402607f1c5b68010000000000000000831615611ea7576f800000000000002c5c85fdf473de72a202607f1c5b607f607984901c811690036001600160801b03161c9050919050565b8035600f81900b81146109a757600080fd5b80356001600160801b03811681146109a757600080fd5b600080600080600060a08688031215611f03578081fd5b611f0c86611ed5565b9450611f1a60208701611ed5565b9350611f2860408701611ed5565b9250611f3660608701611ec3565b9150611f4460808701611ec3565b90509295509295909350565b60008060008060008060c08789031215611f68578081fd5b611f7187611ed5565b9550611f7f60208801611ed5565b9450611f8d60408801611ed5565b9350611f9b60608801611ed5565b9250611fa960808801611ec3565b9150611fb760a08801611ec3565b90509295509295509295565b6020808252602e908201527f5969656c644d6174683a20526573756c74696e67206679546f6b656e2072657360408201527f657276657320746f6f2068696768000000000000000000000000000000000000606082015260800190565b6020808252601f908201527f5969656c644d6174683a20546f6f206d756368206679546f6b656e206f757400604082015260600190565b6020808252601c908201527f5969656c644d6174683a20546f6f206d7563682062617365206f757400000000604082015260600190565b60208082526021908201527f5969656c644d6174683a20526f756e64696e6720696e6475636564206572726f60408201527f7200000000000000000000000000000000000000000000000000000000000000606082015260800190565b6020808252601e908201527f5969656c644d6174683a20546f6f206d756368206679546f6b656e20696e0000604082015260600190565b6020808252601b908201527f5969656c644d6174683a20546f6f206d756368206261736520696e0000000000604082015260600190565b6020808252601d908201527f5969656c644d6174683a2074206d75737420626520706f736974697665000000604082015260600190565b6020808252602b908201527f5969656c644d6174683a20526573756c74696e6720626173652072657365727660408201527f657320746f6f2068696768000000000000000000000000000000000000000000606082015260800190565b60208082526028908201527f5969656c644d6174683a20496e73756666696369656e74206679546f6b656e2060408201527f7265736572766573000000000000000000000000000000000000000000000000606082015260800190565b60208082526025908201527f5969656c644d6174683a20496e73756666696369656e7420626173652072657360408201527f6572766573000000000000000000000000000000000000000000000000000000606082015260800190565b6020808252818101527f5969656c644d6174683a20546f6f206661722066726f6d206d61747572697479604082015260600190565b6020808252601d908201527f5969656c644d6174683a2067206d75737420626520706f736974697665000000604082015260600190565b6001600160801b0391909116815260200190565b9081526020019056fea26469706673582212207dddeff01d957b48c5876fb7ccb8d8d478ca66952098cdc1b872d1bf3d34f49164736f6c63430008010033",
  "linkReferences": {},
  "deployedLinkReferences": {}
}