{
  "_format": "hh-sol-artifact-1",
  "contractName": "ERC20Token",
  "sourceName": "contracts/mocks/ERC20Token.sol",
  "abi": [
    {
      "anonymous": false,
      "inputs": [
        {
          "indexed": true,
          "internalType": "address",
          "name": "owner",
          "type": "address"
        },
        {
          "indexed": true,
          "internalType": "address",
          "name": "spender",
          "type": "address"
        },
        {
          "indexed": false,
          "internalType": "uint256",
          "name": "value",
          "type": "uint256"
        }
      ],
      "name": "Approval",
      "type": "event"
    },
    {
      "anonymous": false,
      "inputs": [
        {
          "indexed": true,
          "internalType": "address",
          "name": "previousOwner",
          "type": "address"
        },
        {
          "indexed": true,
          "internalType": "address",
          "name": "newOwner",
          "type": "address"
        }
      ],
      "name": "OwnershipTransferred",
      "type": "event"
    },
    {
      "anonymous": false,
      "inputs": [
        {
          "indexed": true,
          "internalType": "address",
          "name": "from",
          "type": "address"
        },
        {
          "indexed": true,
          "internalType": "address",
          "name": "to",
          "type": "address"
        },
        {
          "indexed": false,
          "internalType": "uint256",
          "name": "value",
          "type": "uint256"
        }
      ],
      "name": "Transfer",
      "type": "event"
    },
    {
      "inputs": [
        {
          "internalType": "address",
          "name": "owner",
          "type": "address"
        },
        {
          "internalType": "address",
          "name": "spender",
          "type": "address"
        }
      ],
      "name": "allowance",
      "outputs": [
        {
          "internalType": "uint256",
          "name": "",
          "type": "uint256"
        }
      ],
      "stateMutability": "view",
      "type": "function"
    },
    {
      "inputs": [
        {
          "internalType": "address",
          "name": "spender",
          "type": "address"
        },
        {
          "internalType": "uint256",
          "name": "amount",
          "type": "uint256"
        }
      ],
      "name": "approve",
      "outputs": [
        {
          "internalType": "bool",
          "name": "",
          "type": "bool"
        }
      ],
      "stateMutability": "nonpayable",
      "type": "function"
    },
    {
      "inputs": [
        {
          "internalType": "address",
          "name": "account",
          "type": "address"
        }
      ],
      "name": "balanceOf",
      "outputs": [
        {
          "internalType": "uint256",
          "name": "",
          "type": "uint256"
        }
      ],
      "stateMutability": "view",
      "type": "function"
    },
    {
      "inputs": [
        {
          "internalType": "uint256",
          "name": "_amount",
          "type": "uint256"
        }
      ],
      "name": "burn",
      "outputs": [],
      "stateMutability": "nonpayable",
      "type": "function"
    },
    {
      "inputs": [],
      "name": "decimals",
      "outputs": [
        {
          "internalType": "uint8",
          "name": "",
          "type": "uint8"
        }
      ],
      "stateMutability": "view",
      "type": "function"
    },
    {
      "inputs": [
        {
          "internalType": "address",
          "name": "spender",
          "type": "address"
        },
        {
          "internalType": "uint256",
          "name": "subtractedValue",
          "type": "uint256"
        }
      ],
      "name": "decreaseAllowance",
      "outputs": [
        {
          "internalType": "bool",
          "name": "",
          "type": "bool"
        }
      ],
      "stateMutability": "nonpayable",
      "type": "function"
    },
    {
      "inputs": [
        {
          "internalType": "address",
          "name": "spender",
          "type": "address"
        },
        {
          "internalType": "uint256",
          "name": "addedValue",
          "type": "uint256"
        }
      ],
      "name": "increaseAllowance",
      "outputs": [
        {
          "internalType": "bool",
          "name": "",
          "type": "bool"
        }
      ],
      "stateMutability": "nonpayable",
      "type": "function"
    },
    {
      "inputs": [
        {
          "internalType": "address",
          "name": "_to",
          "type": "address"
        },
        {
          "internalType": "uint256",
          "name": "_amount",
          "type": "uint256"
        }
      ],
      "name": "mint",
      "outputs": [],
      "stateMutability": "nonpayable",
      "type": "function"
    },
    {
      "inputs": [],
      "name": "name",
      "outputs": [
        {
          "internalType": "string",
          "name": "",
          "type": "string"
        }
      ],
      "stateMutability": "view",
      "type": "function"
    },
    {
      "inputs": [],
      "name": "owner",
      "outputs": [
        {
          "internalType": "address",
          "name": "",
          "type": "address"
        }
      ],
      "stateMutability": "view",
      "type": "function"
    },
    {
      "inputs": [],
      "name": "renounceOwnership",
      "outputs": [],
      "stateMutability": "nonpayable",
      "type": "function"
    },
    {
      "inputs": [],
      "name": "symbol",
      "outputs": [
        {
          "internalType": "string",
          "name": "",
          "type": "string"
        }
      ],
      "stateMutability": "view",
      "type": "function"
    },
    {
      "inputs": [],
      "name": "totalSupply",
      "outputs": [
        {
          "internalType": "uint256",
          "name": "",
          "type": "uint256"
        }
      ],
      "stateMutability": "view",
      "type": "function"
    },
    {
      "inputs": [
        {
          "internalType": "address",
          "name": "recipient",
          "type": "address"
        },
        {
          "internalType": "uint256",
          "name": "amount",
          "type": "uint256"
        }
      ],
      "name": "transfer",
      "outputs": [
        {
          "internalType": "bool",
          "name": "",
          "type": "bool"
        }
      ],
      "stateMutability": "nonpayable",
      "type": "function"
    },
    {
      "inputs": [
        {
          "internalType": "address",
          "name": "sender",
          "type": "address"
        },
        {
          "internalType": "address",
          "name": "recipient",
          "type": "address"
        },
        {
          "internalType": "uint256",
          "name": "amount",
          "type": "uint256"
        }
      ],
      "name": "transferFrom",
      "outputs": [
        {
          "internalType": "bool",
          "name": "",
          "type": "bool"
        }
      ],
      "stateMutability": "nonpayable",
      "type": "function"
    },
    {
      "inputs": [
        {
          "internalType": "address",
          "name": "newOwner",
          "type": "address"
        }
      ],
      "name": "transferOwnership",
      "outputs": [],
      "stateMutability": "nonpayable",
      "type": "function"
    }
  ],
  "bytecode": "0x60806040523480156200001157600080fd5b506040518060400160405280600581526020017f546f6b656e0000000000000000000000000000000000000000000000000000008152506040518060400160405280600581526020017f746f6b656e000000000000000000000000000000000000000000000000000000815250816003908051906020019062000096929190620001a6565b508060049080519060200190620000af929190620001a6565b505050620000d2620000c6620000d860201b60201c565b620000e060201b60201c565b620002bb565b600033905090565b6000600560009054906101000a900473ffffffffffffffffffffffffffffffffffffffff16905081600560006101000a81548173ffffffffffffffffffffffffffffffffffffffff021916908373ffffffffffffffffffffffffffffffffffffffff1602179055508173ffffffffffffffffffffffffffffffffffffffff168173ffffffffffffffffffffffffffffffffffffffff167f8be0079c531659141344cd1fd0a4f28419497f9722a3daafe3b4186f6b6457e060405160405180910390a35050565b828054620001b49062000256565b90600052602060002090601f016020900481019282620001d8576000855562000224565b82601f10620001f357805160ff191683800117855562000224565b8280016001018555821562000224579182015b828111156200022357825182559160200191906001019062000206565b5b50905062000233919062000237565b5090565b5b808211156200025257600081600090555060010162000238565b5090565b600060028204905060018216806200026f57607f821691505b602082108114156200028657620002856200028c565b5b50919050565b7f4e487b7100000000000000000000000000000000000000000000000000000000600052602260045260246000fd5b611dd480620002cb6000396000f3fe608060405234801561001057600080fd5b50600436106101005760003560e01c806370a0823111610097578063a457c2d711610066578063a457c2d71461029d578063a9059cbb146102cd578063dd62ed3e146102fd578063f2fde38b1461032d57610100565b806370a0823114610227578063715018a6146102575780638da5cb5b1461026157806395d89b411461027f57610100565b8063313ce567116100d3578063313ce567146101a157806339509351146101bf57806340c10f19146101ef57806342966c681461020b57610100565b806306fdde0314610105578063095ea7b31461012357806318160ddd1461015357806323b872dd14610171575b600080fd5b61010d610349565b60405161011a919061165c565b60405180910390f35b61013d600480360381019061013891906113a0565b6103db565b60405161014a9190611641565b60405180910390f35b61015b6103f9565b60405161016891906117fe565b60405180910390f35b61018b6004803603810190610186919061134d565b610403565b6040516101989190611641565b60405180910390f35b6101a96104fb565b6040516101b69190611819565b60405180910390f35b6101d960048036038101906101d491906113a0565b610504565b6040516101e69190611641565b60405180910390f35b610209600480360381019061020491906113a0565b6105b0565b005b610225600480360381019061022091906113e0565b61063a565b005b610241600480360381019061023c91906112e0565b610647565b60405161024e91906117fe565b60405180910390f35b61025f61068f565b005b610269610717565b6040516102769190611626565b60405180910390f35b610287610741565b604051610294919061165c565b60405180910390f35b6102b760048036038101906102b291906113a0565b6107d3565b6040516102c49190611641565b60405180910390f35b6102e760048036038101906102e291906113a0565b6108be565b6040516102f49190611641565b60405180910390f35b6103176004803603810190610312919061130d565b6108dc565b60405161032491906117fe565b60405180910390f35b610347600480360381019061034291906112e0565b610963565b005b60606003805461035890611962565b80601f016020809104026020016040519081016040528092919081815260200182805461038490611962565b80156103d15780601f106103a6576101008083540402835291602001916103d1565b820191906000526020600020905b8154815290600101906020018083116103b457829003601f168201915b5050505050905090565b60006103ef6103e8610a5b565b8484610a63565b6001905092915050565b6000600254905090565b6000610410848484610c2e565b6000600160008673ffffffffffffffffffffffffffffffffffffffff1673ffffffffffffffffffffffffffffffffffffffff168152602001908152602001600020600061045b610a5b565b73ffffffffffffffffffffffffffffffffffffffff1673ffffffffffffffffffffffffffffffffffffffff168152602001908152602001600020549050828110156104db576040517f08c379a00000000000000000000000000000000000000000000000000000000081526004016104d29061171e565b60405180910390fd5b6104ef856104e7610a5b565b858403610a63565b60019150509392505050565b60006012905090565b60006105a6610511610a5b565b84846001600061051f610a5b565b73ffffffffffffffffffffffffffffffffffffffff1673ffffffffffffffffffffffffffffffffffffffff16815260200190815260200160002060008873ffffffffffffffffffffffffffffffffffffffff1673ffffffffffffffffffffffffffffffffffffffff168152602001908152602001600020546105a19190611850565b610a63565b6001905092915050565b6105b8610a5b565b73ffffffffffffffffffffffffffffffffffffffff166105d6610717565b73ffffffffffffffffffffffffffffffffffffffff161461062c576040517f08c379a00000000000000000000000000000000000000000000000000000000081526004016106239061173e565b60405180910390fd5b6106368282610eaf565b5050565b610644338261100f565b50565b60008060008373ffffffffffffffffffffffffffffffffffffffff1673ffffffffffffffffffffffffffffffffffffffff168152602001908152602001600020549050919050565b610697610a5b565b73ffffffffffffffffffffffffffffffffffffffff166106b5610717565b73ffffffffffffffffffffffffffffffffffffffff161461070b576040517f08c379a00000000000000000000000000000000000000000000000000000000081526004016107029061173e565b60405180910390fd5b61071560006111e6565b565b6000600560009054906101000a900473ffffffffffffffffffffffffffffffffffffffff16905090565b60606004805461075090611962565b80601f016020809104026020016040519081016040528092919081815260200182805461077c90611962565b80156107c95780601f1061079e576101008083540402835291602001916107c9565b820191906000526020600020905b8154815290600101906020018083116107ac57829003601f168201915b5050505050905090565b600080600160006107e2610a5b565b73ffffffffffffffffffffffffffffffffffffffff1673ffffffffffffffffffffffffffffffffffffffff16815260200190815260200160002060008573ffffffffffffffffffffffffffffffffffffffff1673ffffffffffffffffffffffffffffffffffffffff1681526020019081526020016000205490508281101561089f576040517f08c379a0000000000000000000000000000000000000000000000000000000008152600401610896906117be565b60405180910390fd5b6108b36108aa610a5b565b85858403610a63565b600191505092915050565b60006108d26108cb610a5b565b8484610c2e565b6001905092915050565b6000600160008473ffffffffffffffffffffffffffffffffffffffff1673ffffffffffffffffffffffffffffffffffffffff16815260200190815260200160002060008373ffffffffffffffffffffffffffffffffffffffff1673ffffffffffffffffffffffffffffffffffffffff16815260200190815260200160002054905092915050565b61096b610a5b565b73ffffffffffffffffffffffffffffffffffffffff16610989610717565b73ffffffffffffffffffffffffffffffffffffffff16146109df576040517f08c379a00000000000000000000000000000000000000000000000000000000081526004016109d69061173e565b60405180910390fd5b600073ffffffffffffffffffffffffffffffffffffffff168173ffffffffffffffffffffffffffffffffffffffff161415610a4f576040517f08c379a0000000000000000000000000000000000000000000000000000000008152600401610a46906116be565b60405180910390fd5b610a58816111e6565b50565b600033905090565b600073ffffffffffffffffffffffffffffffffffffffff168373ffffffffffffffffffffffffffffffffffffffff161415610ad3576040517f08c379a0000000000000000000000000000000000000000000000000000000008152600401610aca9061179e565b60405180910390fd5b600073ffffffffffffffffffffffffffffffffffffffff168273ffffffffffffffffffffffffffffffffffffffff161415610b43576040517f08c379a0000000000000000000000000000000000000000000000000000000008152600401610b3a906116de565b60405180910390fd5b80600160008573ffffffffffffffffffffffffffffffffffffffff1673ffffffffffffffffffffffffffffffffffffffff16815260200190815260200160002060008473ffffffffffffffffffffffffffffffffffffffff1673ffffffffffffffffffffffffffffffffffffffff168152602001908152602001600020819055508173ffffffffffffffffffffffffffffffffffffffff168373ffffffffffffffffffffffffffffffffffffffff167f8c5be1e5ebec7d5bd14f71427d1e84f3dd0314c0f7b2291e5b200ac8c7c3b92583604051610c2191906117fe565b60405180910390a3505050565b600073ffffffffffffffffffffffffffffffffffffffff168373ffffffffffffffffffffffffffffffffffffffff161415610c9e576040517f08c379a0000000000000000000000000000000000000000000000000000000008152600401610c959061177e565b60405180910390fd5b600073ffffffffffffffffffffffffffffffffffffffff168273ffffffffffffffffffffffffffffffffffffffff161415610d0e576040517f08c379a0000000000000000000000000000000000000000000000000000000008152600401610d059061167e565b60405180910390fd5b610d198383836112ac565b60008060008573ffffffffffffffffffffffffffffffffffffffff1673ffffffffffffffffffffffffffffffffffffffff16815260200190815260200160002054905081811015610d9f576040517f08c379a0000000000000000000000000000000000000000000000000000000008152600401610d96906116fe565b60405180910390fd5b8181036000808673ffffffffffffffffffffffffffffffffffffffff1673ffffffffffffffffffffffffffffffffffffffff16815260200190815260200160002081905550816000808573ffffffffffffffffffffffffffffffffffffffff1673ffffffffffffffffffffffffffffffffffffffff1681526020019081526020016000206000828254610e329190611850565b925050819055508273ffffffffffffffffffffffffffffffffffffffff168473ffffffffffffffffffffffffffffffffffffffff167fddf252ad1be2c89b69c2b068fc378daa952ba7f163c4a11628f55a4df523b3ef84604051610e9691906117fe565b60405180910390a3610ea98484846112b1565b50505050565b600073ffffffffffffffffffffffffffffffffffffffff168273ffffffffffffffffffffffffffffffffffffffff161415610f1f576040517f08c379a0000000000000000000000000000000000000000000000000000000008152600401610f16906117de565b60405180910390fd5b610f2b600083836112ac565b8060026000828254610f3d9190611850565b92505081905550806000808473ffffffffffffffffffffffffffffffffffffffff1673ffffffffffffffffffffffffffffffffffffffff1681526020019081526020016000206000828254610f929190611850565b925050819055508173ffffffffffffffffffffffffffffffffffffffff16600073ffffffffffffffffffffffffffffffffffffffff167fddf252ad1be2c89b69c2b068fc378daa952ba7f163c4a11628f55a4df523b3ef83604051610ff791906117fe565b60405180910390a361100b600083836112b1565b5050565b600073ffffffffffffffffffffffffffffffffffffffff168273ffffffffffffffffffffffffffffffffffffffff16141561107f576040517f08c379a00000000000000000000000000000000000000000000000000000000081526004016110769061175e565b60405180910390fd5b61108b826000836112ac565b60008060008473ffffffffffffffffffffffffffffffffffffffff1673ffffffffffffffffffffffffffffffffffffffff16815260200190815260200160002054905081811015611111576040517f08c379a00000000000000000000000000000000000000000000000000000000081526004016111089061169e565b60405180910390fd5b8181036000808573ffffffffffffffffffffffffffffffffffffffff1673ffffffffffffffffffffffffffffffffffffffff16815260200190815260200160002081905550816002600082825461116891906118a6565b92505081905550600073ffffffffffffffffffffffffffffffffffffffff168373ffffffffffffffffffffffffffffffffffffffff167fddf252ad1be2c89b69c2b068fc378daa952ba7f163c4a11628f55a4df523b3ef846040516111cd91906117fe565b60405180910390a36111e1836000846112b1565b505050565b6000600560009054906101000a900473ffffffffffffffffffffffffffffffffffffffff16905081600560006101000a81548173ffffffffffffffffffffffffffffffffffffffff021916908373ffffffffffffffffffffffffffffffffffffffff1602179055508173ffffffffffffffffffffffffffffffffffffffff168173ffffffffffffffffffffffffffffffffffffffff167f8be0079c531659141344cd1fd0a4f28419497f9722a3daafe3b4186f6b6457e060405160405180910390a35050565b505050565b505050565b6000813590506112c581611d70565b92915050565b6000813590506112da81611d87565b92915050565b6000602082840312156112f6576112f56119f2565b5b6000611304848285016112b6565b91505092915050565b60008060408385031215611324576113236119f2565b5b6000611332858286016112b6565b9250506020611343858286016112b6565b9150509250929050565b600080600060608486031215611366576113656119f2565b5b6000611374868287016112b6565b9350506020611385868287016112b6565b9250506040611396868287016112cb565b9150509250925092565b600080604083850312156113b7576113b66119f2565b5b60006113c5858286016112b6565b92505060206113d6858286016112cb565b9150509250929050565b6000602082840312156113f6576113f56119f2565b5b6000611404848285016112cb565b91505092915050565b611416816118da565b82525050565b611425816118ec565b82525050565b600061143682611834565b611440818561183f565b935061145081856020860161192f565b611459816119f7565b840191505092915050565b600061147160238361183f565b915061147c82611a08565b604082019050919050565b600061149460228361183f565b915061149f82611a57565b604082019050919050565b60006114b760268361183f565b91506114c282611aa6565b604082019050919050565b60006114da60228361183f565b91506114e582611af5565b604082019050919050565b60006114fd60268361183f565b915061150882611b44565b604082019050919050565b600061152060288361183f565b915061152b82611b93565b604082019050919050565b600061154360208361183f565b915061154e82611be2565b602082019050919050565b600061156660218361183f565b915061157182611c0b565b604082019050919050565b600061158960258361183f565b915061159482611c5a565b604082019050919050565b60006115ac60248361183f565b91506115b782611ca9565b604082019050919050565b60006115cf60258361183f565b91506115da82611cf8565b604082019050919050565b60006115f2601f8361183f565b91506115fd82611d47565b602082019050919050565b61161181611918565b82525050565b61162081611922565b82525050565b600060208201905061163b600083018461140d565b92915050565b6000602082019050611656600083018461141c565b92915050565b60006020820190508181036000830152611676818461142b565b905092915050565b6000602082019050818103600083015261169781611464565b9050919050565b600060208201905081810360008301526116b781611487565b9050919050565b600060208201905081810360008301526116d7816114aa565b9050919050565b600060208201905081810360008301526116f7816114cd565b9050919050565b60006020820190508181036000830152611717816114f0565b9050919050565b6000602082019050818103600083015261173781611513565b9050919050565b6000602082019050818103600083015261175781611536565b9050919050565b6000602082019050818103600083015261177781611559565b9050919050565b600060208201905081810360008301526117978161157c565b9050919050565b600060208201905081810360008301526117b78161159f565b9050919050565b600060208201905081810360008301526117d7816115c2565b9050919050565b600060208201905081810360008301526117f7816115e5565b9050919050565b60006020820190506118136000830184611608565b92915050565b600060208201905061182e6000830184611617565b92915050565b600081519050919050565b600082825260208201905092915050565b600061185b82611918565b915061186683611918565b9250827fffffffffffffffffffffffffffffffffffffffffffffffffffffffffffffffff0382111561189b5761189a611994565b5b828201905092915050565b60006118b182611918565b91506118bc83611918565b9250828210156118cf576118ce611994565b5b828203905092915050565b60006118e5826118f8565b9050919050565b60008115159050919050565b600073ffffffffffffffffffffffffffffffffffffffff82169050919050565b6000819050919050565b600060ff82169050919050565b60005b8381101561194d578082015181840152602081019050611932565b8381111561195c576000848401525b50505050565b6000600282049050600182168061197a57607f821691505b6020821081141561198e5761198d6119c3565b5b50919050565b7f4e487b7100000000000000000000000000000000000000000000000000000000600052601160045260246000fd5b7f4e487b7100000000000000000000000000000000000000000000000000000000600052602260045260246000fd5b600080fd5b6000601f19601f8301169050919050565b7f45524332303a207472616e7366657220746f20746865207a65726f206164647260008201527f6573730000000000000000000000000000000000000000000000000000000000602082015250565b7f45524332303a206275726e20616d6f756e7420657863656564732062616c616e60008201527f6365000000000000000000000000000000000000000000000000000000000000602082015250565b7f4f776e61626c653a206e6577206f776e657220697320746865207a65726f206160008201527f6464726573730000000000000000000000000000000000000000000000000000602082015250565b7f45524332303a20617070726f766520746f20746865207a65726f20616464726560008201527f7373000000000000000000000000000000000000000000000000000000000000602082015250565b7f45524332303a207472616e7366657220616d6f756e742065786365656473206260008201527f616c616e63650000000000000000000000000000000000000000000000000000602082015250565b7f45524332303a207472616e7366657220616d6f756e742065786365656473206160008201527f6c6c6f77616e6365000000000000000000000000000000000000000000000000602082015250565b7f4f776e61626c653a2063616c6c6572206973206e6f7420746865206f776e6572600082015250565b7f45524332303a206275726e2066726f6d20746865207a65726f2061646472657360008201527f7300000000000000000000000000000000000000000000000000000000000000602082015250565b7f45524332303a207472616e736665722066726f6d20746865207a65726f20616460008201527f6472657373000000000000000000000000000000000000000000000000000000602082015250565b7f45524332303a20617070726f76652066726f6d20746865207a65726f2061646460008201527f7265737300000000000000000000000000000000000000000000000000000000602082015250565b7f45524332303a2064656372656173656420616c6c6f77616e63652062656c6f7760008201527f207a65726f000000000000000000000000000000000000000000000000000000602082015250565b7f45524332303a206d696e7420746f20746865207a65726f206164647265737300600082015250565b611d79816118da565b8114611d8457600080fd5b50565b611d9081611918565b8114611d9b57600080fd5b5056fea264697066735822122094fa195a0961d62826fa43b9ff085bb6667ca73f65fd96a7b9be24849f3b166064736f6c63430008060033",
  "linkReferences": {},
  "deployedLinkReferences": {}
}