{
  "_format": "hh-sol-artifact-1",
  "contractName": "VaultAdapterMock",
  "sourceName": "contracts/v3/alchemix/mocks/VaultAdapterMock.sol",
  "abi": [
    {
      "inputs": [
        {
          "internalType": "contract IDetailedERC20",
          "name": "token_",
          "type": "address"
        }
      ],
      "stateMutability": "nonpayable",
      "type": "constructor"
    },
    {
      "inputs": [
        {
          "internalType": "uint256",
          "name": "_amount",
          "type": "uint256"
        }
      ],
      "name": "deposit",
      "outputs": [],
      "stateMutability": "nonpayable",
      "type": "function"
    },
    {
      "inputs": [],
      "name": "token",
      "outputs": [
        {
          "internalType": "contract IDetailedERC20",
          "name": "",
          "type": "address"
        }
      ],
      "stateMutability": "view",
      "type": "function"
    },
    {
      "inputs": [],
      "name": "totalValue",
      "outputs": [
        {
          "internalType": "uint256",
          "name": "",
          "type": "uint256"
        }
      ],
      "stateMutability": "view",
      "type": "function"
    },
    {
      "inputs": [
        {
          "internalType": "address",
          "name": "_recipient",
          "type": "address"
        },
        {
          "internalType": "uint256",
          "name": "_amount",
          "type": "uint256"
        }
      ],
      "name": "withdraw",
      "outputs": [],
      "stateMutability": "nonpayable",
      "type": "function"
    }
  ],
  "bytecode": "0x608060405234801561001057600080fd5b506040516105963803806105968339818101604052602081101561003357600080fd5b5051600080546001600160a01b039092166001600160a01b0319909216919091179055610531806100656000396000f3fe608060405234801561001057600080fd5b506004361061004c5760003560e01c8063b6b55f2514610051578063d4c3eea014610070578063f3fef3a31461008a578063fc0c546a146100b6575b600080fd5b61006e6004803603602081101561006757600080fd5b50356100da565b005b6100786100dd565b60408051918252519081900360200190f35b61006e600480360360408110156100a057600080fd5b506001600160a01b03813516906020013561015a565b6100be610175565b604080516001600160a01b039092168252519081900360200190f35b50565b60008054604080516370a0823160e01b815230600482015290516001600160a01b03909216916370a0823191602480820192602092909190829003018186803b15801561012957600080fd5b505afa15801561013d573d6000803e3d6000fd5b505050506040513d602081101561015357600080fd5b5051905090565b600054610171906001600160a01b03168383610184565b5050565b6000546001600160a01b031690565b604080516001600160a01b038416602482015260448082018490528251808303909101815260649091019091526020810180516001600160e01b031663a9059cbb60e01b1790526101d69084906101db565b505050565b6060610230826040518060400160405280602081526020017f5361666545524332303a206c6f772d6c6576656c2063616c6c206661696c6564815250856001600160a01b031661028c9092919063ffffffff16565b8051909150156101d65780806020019051602081101561024f57600080fd5b50516101d65760405162461bcd60e51b815260040180806020018281038252602a8152602001806104d2602a913960400191505060405180910390fd5b606061029b84846000856102a5565b90505b9392505050565b6060824710156102e65760405162461bcd60e51b81526004018080602001828103825260268152602001806104ac6026913960400191505060405180910390fd5b6102ef85610401565b610340576040805162461bcd60e51b815260206004820152601d60248201527f416464726573733a2063616c6c20746f206e6f6e2d636f6e7472616374000000604482015290519081900360640190fd5b60006060866001600160a01b031685876040518082805190602001908083835b6020831061037f5780518252601f199092019160209182019101610360565b6001836020036101000a03801982511681845116808217855250505050505090500191505060006040518083038185875af1925050503d80600081146103e1576040519150601f19603f3d011682016040523d82523d6000602084013e6103e6565b606091505b50915091506103f6828286610407565b979650505050505050565b3b151590565b6060831561041657508161029e565b8251156104265782518084602001fd5b8160405162461bcd60e51b81526004018080602001828103825283818151815260200191508051906020019080838360005b83811015610470578181015183820152602001610458565b50505050905090810190601f16801561049d5780820380516001836020036101000a031916815260200191505b509250505060405180910390fdfe416464726573733a20696e73756666696369656e742062616c616e636520666f722063616c6c5361666545524332303a204552433230206f7065726174696f6e20646964206e6f742073756363656564a2646970667358221220daf60ca46c5fd4c48b462d5eebc3de93c1fa6e074689e9bcbafc550e89b62fe064736f6c634300060c0033",
  "linkReferences": {},
  "deployedLinkReferences": {}
}