{
  "_format": "hh-sol-artifact-1",
  "contractName": "PricingDeployerV1",
  "sourceName": "contracts/deployers/PricingDeployerV1.sol",
  "abi": [
    {
      "inputs": [
        {
          "internalType": "address",
          "name": "tracer",
          "type": "address"
        },
        {
          "internalType": "address",
          "name": "insuranceContract",
          "type": "address"
        },
        {
          "internalType": "address",
          "name": "oracle",
          "type": "address"
        }
      ],
      "name": "deploy",
      "outputs": [
        {
          "internalType": "address",
          "name": "",
          "type": "address"
        }
      ],
      "stateMutability": "nonpayable",
      "type": "function"
    }
  ],
  "bytecode": "0x608060405234801561001057600080fd5b50611944806100206000396000f3fe608060405234801561001057600080fd5b506004361061002b5760003560e01c8063d9181cd314610030575b600080fd5b61004361003e3660046100d3565b610059565b6040516100509190610115565b60405180910390f35b60008084848460405161006b9061009d565b61007793929190610136565b604051809103906000f080158015610093573d6000803e3d6000fd5b5095945050505050565b6117a88061016783390190565b803573ffffffffffffffffffffffffffffffffffffffff811681146100ce57600080fd5b919050565b6000806000606084860312156100e7578283fd5b6100f0846100aa565b92506100fe602085016100aa565b915061010c604085016100aa565b90509250925092565b73ffffffffffffffffffffffffffffffffffffffff91909116815260200190565b73ffffffffffffffffffffffffffffffffffffffff9384168152918316602083015290911660408201526060019056fe60806040523480156200001157600080fd5b50604051620017a8380380620017a883398101604081905262000034916200009d565b600080546001600160a01b039485166001600160a01b031991821617909155600180549385169382169390931790925560028054919093169116179055426067819055606855620000e6565b80516001600160a01b03811681146200009857600080fd5b919050565b600080600060608486031215620000b2578283fd5b620000bd8462000080565b9250620000cd6020850162000080565b9150620000dd6040850162000080565b90509250925092565b6116b280620000f66000396000f3fe608060405234801561001057600080fd5b50600436106101365760003560e01c80637e7ff626116100b2578063cff93a2811610081578063e196581611610066578063e19658161461025c578063fb7ebcdd1461026f578063feb8b43b1461027757610136565b8063cff93a2814610232578063dc244a231461025457610136565b80637e7ff626146101e4578063802a02c21461020457806389cf3204146102175780639f52a2611461021f57610136565b806330d0738d116101095780634385dfaa116100ee5780634385dfaa146101b4578063602fa09e146101d45780637dc0d1d0146101dc57610136565b806330d0738d14610196578063377782b3146101ac57610136565b8063020e185d1461013b578063098c7ce41461015957806312d97c271461016e57806320fc473b14610181575b600080fd5b61014361028c565b6040516101509190611471565b60405180910390f35b610161610295565b6040516101509190611356565b61016161017c366004611312565b61029b565b6101896102f1565b6040516101509190611342565b61019e610300565b60405161015092919061135f565b61016161039e565b6101c76101c2366004611312565b6103a4565b6040516101509190611433565b610161610461565b610189610467565b6101f76101f2366004611312565b610476565b6040516101509190611412565b610161610212366004611312565b6104b7565b6101896104dd565b6101f761022d366004611312565b6104ec565b610245610240366004611312565b61052d565b6040516101509392919061144a565b61016161054e565b61024561026a366004611312565b6105e6565b610161610607565b61028a610285366004611312565b61060d565b005b60695460ff1681565b60665481565b60006102e9600383601881106102c157634e487b7160e01b600052603260045260246000fd5b60020201604051806040016040529081600082015481526020016001820154815250506107d5565b90505b919050565b6000546001600160a01b031681565b6040805161030081019091526000908190610361906003601884835b8282101561035857838260020201604051806040016040529081600082015481526020016001820154815250508152602001906001019061031c565b505050506107fd565b60408051610340810190915260338054610300830190815260345461032084015282526103969190601860016020840161031c565b915091509091565b60685481565b6103ac6112d7565b6040805161030081019091526102e9908390600360186000835b828210156104025783826002020160405180604001604052908160008201548152602001600182015481525050815260200190600101906103c6565b505060408051610300810190915291506033905060186000835b8282101561045857838260020201604051806040016040529081600082015481526020016001820154815250508152602001906001019061041c565b505050506108d6565b60675481565b6002546001600160a01b031681565b61047e6112f1565b50600090815260646020908152604091829020825160608101845281548152600182015492810192909252600201549181019190915290565b60006102e9603383601881106102c157634e487b7160e01b600052603260045260246000fd5b6001546001600160a01b031681565b6104f46112f1565b50600090815260636020908152604091829020825160608101845281548152600182015492810192909252600201549181019190915290565b60636020526000908152604090208054600182015460029092015490919083565b60006105e1600260009054906101000a90046001600160a01b03166001600160a01b03166350d25bcd6040518163ffffffff1660e01b815260040160206040518083038186803b1580156105a157600080fd5b505afa1580156105b5573d6000803e3d6000fd5b505050506040513d601f19601f820116820180604052508101906105d9919061132a565b606554610b42565b905090565b60646020526000908152604090208054600182015460029092015490919083565b60655481565b6000546001600160a01b031633146106405760405162461bcd60e51b81526004016106379061136d565b60405180910390fd5b600254604080517f50d25bcd00000000000000000000000000000000000000000000000000000000815290516000926001600160a01b0316916350d25bcd916004808301926020929190829003018186803b15801561069e57600080fd5b505afa1580156106b2573d6000803e3d6000fd5b505050506040513d601f19601f820116820180604052508101906106d6919061132a565b90506106e4610e104261161e565b606754116107c5576069546000906106fe9060ff1661029b565b6069546040519192507fd30ea262383676c6ffb3594e7772217082e85acdb5c2e7fe8945ec593b1614089161073a91849160ff90911690611460565b60405180910390a161074a610b69565b610757620151804261161e565b6068541161076c57610767610d81565b426068555b4260675560695460ff166017141561078d576069805460ff191690556107b3565b60695461079e9060ff1660016114d6565b6069805460ff191660ff929092169190911790555b6107bf83836001610db4565b506107d1565b6107d182826000610db4565b5050565b60008160200151600014156107ec575060006102ec565b602082015182516102e99190611529565b604080516018808252610320820190925260009182919060208201610300803683370190505090506000805b60188110156108c357600085826018811061085457634e487b7160e01b600052603260045260246000fd5b6020020151905080602001516000141561086e57506108b1565b610877816107d5565b84848151811061089757634e487b7160e01b600052603260045260246000fd5b6020908102919091010152826108ac81611635565b935050505b806108bb81611635565b915050610829565b506108ce8282611013565b949350505050565b6108de6112d7565b601884106108fe5760405162461bcd60e51b8152600401610637906113a4565b60008060008060005b6008811015610a7657600061091d82600861161e565b90506000828b1061093757610932838c61161e565b61094d565b8a61094384601861161e565b61094d91906114be565b9050600061097e8b836018811061097457634e487b7160e01b600052603260045260246000fd5b60200201516107d5565b905060006109a58b846018811061097457634e487b7160e01b600052603260045260246000fd5b90508b83601881106109c757634e487b7160e01b600052603260045260246000fd5b602002015160200151600014156109e15750505050610a64565b6109eb848a6114be565b98506109f782856115c0565b610a0190886114be565b96508a8360188110610a2357634e487b7160e01b600052603260045260246000fd5b60200201516020015160001415610a3d5750505050610a64565b610a4784896114be565b9750610a5381856115c0565b610a5d90876114be565b9550505050505b80610a6e81611635565b915050610907565b5082158015610a83575083155b15610aaa576040518060400160405280600081526020016000815250945050505050610b3b565b82610adb576040518060400160405280600081526020018584610acd9190611529565b815250945050505050610b3b565b83610b0c5760405180604001604052808483610af79190611529565b81526020016000815250945050505050610b3b565b60405180604001604052808483610b239190611529565b8152602001610b328685611529565b90529450505050505b9392505050565b6000610b6082610b518561102a565b610b5b91906115df565b611057565b90505b92915050565b600080546069546001600160a01b039091169190610b899060ff166103a4565b90506000610c1b600160009054906101000a90046001600160a01b03166001600160a01b031663ea882b256040518163ffffffff1660e01b815260040160206040518083038186803b158015610bde57600080fd5b505afa158015610bf2573d6000803e3d6000fd5b505050506040513d601f19601f82011682018060405250810190610c16919061132a565b61102a565b825160208401516065549293509091600090610c9890610c3a8561102a565b610c438561102a565b610c4d91906115df565b610c5791906115df565b610c93886001600160a01b031663b703fe196040518163ffffffff1660e01b815260040160206040518083038186803b158015610bde57600080fd5b611071565b606654600090815260636020526040812060020154919250610cba838361147f565b606654600090815260646020526040812060020154919250610cdc888361147f565b9050610ce8858461110c565b7f83b8bd3a9f97bed75f923bfd5746ac7dbb823ba73c2e68e4fa906e29e3da4ab48584604051610d1992919061135f565b60405180910390a1610d2b888261114c565b7f77e7f0b09d712b254a3ed839d4c14dce67cbaafb0dbb07c27423ea3d049663cc8882604051610d5c92919061135f565b60405180910390a1606654610d729060016114be565b60665550505050505050505050565b600080610d8c610300565b91509150610d9a828261118c565b60656000828254610dab919061147f565b90915550505050565b8015610e6e576040805180820190915283815260016020820152606954819060039060ff1660188110610df757634e487b7160e01b600052603260045260246000fd5b8251600291909102919091019081556020918201516001918201556040805180820190915285815291820152606954819060339060ff1660188110610e4c57634e487b7160e01b600052603260045260246000fd5b600202016000820151816000015560208201518160010155905050505061100e565b606954839060039060ff1660188110610e9757634e487b7160e01b600052603260045260246000fd5b6002020154610ea691906114be565b60695460039060ff1660188110610ecd57634e487b7160e01b600052603260045260246000fd5b600202015560695460039060ff1660188110610ef957634e487b7160e01b600052603260045260246000fd5b60020201600101546001610f0d91906114be565b60695460039060ff1660188110610f3457634e487b7160e01b600052603260045260246000fd5b6002020160010155606954829060339060ff1660188110610f6557634e487b7160e01b600052603260045260246000fd5b6002020154610f7491906114be565b60695460339060ff1660188110610f9b57634e487b7160e01b600052603260045260246000fd5b600202015560695460339060ff1660188110610fc757634e487b7160e01b600052603260045260246000fd5b60020201600101546001610fdb91906114be565b60695460339060ff166018811061100257634e487b7160e01b600052603260045260246000fd5b60020201600101819055505b505050565b60008161102084846111b6565b610b609190611529565b60006001600160ff1b038211156110535760405162461bcd60e51b8152600401610637906113db565b5090565b60008082136110535761106c8260001961153d565b6102e9565b6000600160ff1b831361108357600080fd5b600160ff1b821361109357600080fd5b600080600085126110a457846110a9565b846000035b9150600084126110b957836110be565b836000035b905060006110cc8383611212565b90506001600160ff1b038111156110e257600080fd5b6000198087139086138082186001146110fb5782611100565b826000035b98975050505050505050565b6040805160608101825242815260208082019485528183019384526066546000908152606390915291909120905181559151600183015551600290910155565b6040805160608101825242815260208082019485528183019384526066546000908152606490915291909120905181559151600183015551600290910155565b6000605a6111998361102a565b6111a28561102a565b6111ac91906115df565b610b6091906114fb565b600080805b8381101561120a578481815181106111e357634e487b7160e01b600052603260045260246000fd5b6020026020010151826111f691906114be565b91508061120281611635565b9150506111bb565b509392505050565b60008080600019848609848602925082811083820303915050600080670de0b6b3a76400008688099150506706f05b59d3b1ffff8111826112655780670de0b6b3a7640000850401945050505050610b63565b82670de0b6b3a76400001161127957600080fd5b6204000082850304939091119091037d40000000000000000000000000000000000000000000000000000000000002919091177faccb18165bd6fe31ae1cf318dc5b51eee0e1ba569b88cd74c1773b91fac106690201905092915050565b604051806040016040528060008152602001600081525090565b60405180606001604052806000815260200160008152602001600081525090565b600060208284031215611323578081fd5b5035919050565b60006020828403121561133b578081fd5b5051919050565b6001600160a01b0391909116815260200190565b90815260200190565b918252602082015260400190565b60208082526010908201527f5052433a204f6e6c792054726163657200000000000000000000000000000000604082015260600190565b60208082526014908201527f486f757220696e646578206e6f742076616c6964000000000000000000000000604082015260600190565b60208082526010908201527f75696e74323536206f766572666c6f7700000000000000000000000000000000604082015260600190565b81518152602080830151908201526040918201519181019190915260600190565b815181526020918201519181019190915260400190565b9283526020830191909152604082015260600190565b91825260ff16602082015260400190565b60ff91909116815260200190565b6000808212826001600160ff1b03038413811516156114a0576114a0611650565b82600160ff1b0384128116156114b8576114b8611650565b50500190565b600082198211156114d1576114d1611650565b500190565b600060ff821660ff84168060ff038211156114f3576114f3611650565b019392505050565b60008261150a5761150a611666565b600160ff1b82146000198414161561152457611524611650565b500590565b60008261153857611538611666565b500490565b60006001600160ff1b038184138284138583048511828216161561156357611563611650565b600160ff1b8487128682058812818416161561158157611581611650565b85871292508782058712848416161561159c5761159c611650565b878505871281841616156115b2576115b2611650565b505050929093029392505050565b60008160001904831182151516156115da576115da611650565b500290565b600080831283600160ff1b018312811516156115fd576115fd611650565b836001600160ff1b0301831381161561161857611618611650565b50500390565b60008282101561163057611630611650565b500390565b600060001982141561164957611649611650565b5060010190565b634e487b7160e01b600052601160045260246000fd5b634e487b7160e01b600052601260045260246000fdfea2646970667358221220760e90ff222abb12b6a4f60d3562b927172b19549e7dc6e7474d29052f0722bd64736f6c63430008000033a2646970667358221220153aa1748e2730c148ed023acc15eb949281f9153ac431985c0fa39ea0dd306a64736f6c63430008000033",
  "linkReferences": {},
  "deployedLinkReferences": {}
}