{
  "_format": "hh-sol-artifact-1",
  "contractName": "EIP712Base",
  "sourceName": "contracts/lib/EIP712Base.sol",
  "abi": [
    {
      "inputs": [],
      "name": "getChainId",
      "outputs": [
        {
          "internalType": "uint256",
          "name": "",
          "type": "uint256"
        }
      ],
      "stateMutability": "view",
      "type": "function"
    },
    {
      "inputs": [],
      "name": "getDomainSeperator",
      "outputs": [
        {
          "internalType": "bytes32",
          "name": "",
          "type": "bytes32"
        }
      ],
      "stateMutability": "view",
      "type": "function"
    }
  ],
  "bytecode": "0x6080604052348015600f57600080fd5b5060888061001e6000396000f3fe6080604052348015600f57600080fd5b506004361060325760003560e01c806320379ee51460375780633408e47014604d575b600080fd5b6001545b60405190815260200160405180910390f35b46603b56fea2646970667358221220799e576b3652710d764459da7f4b73d37f5778160bcf92235eb016055b2f8bbf64736f6c63430008040033",
  "linkReferences": {},
  "deployedLinkReferences": {}
}