{
  "_format": "hh-sol-artifact-1",
  "contractName": "CErc20Storage",
  "sourceName": "interfaces/vendor/CTokenInterfaces.sol",
  "abi": [
    {
      "inputs": [],
      "name": "underlying",
      "outputs": [
        {
          "internalType": "address",
          "name": "",
          "type": "address"
        }
      ],
      "stateMutability": "view",
      "type": "function"
    }
  ],
  "bytecode": "0x6080604052348015600f57600080fd5b5060918061001e6000396000f3fe6080604052348015600f57600080fd5b506004361060285760003560e01c80636f307dc314602d575b600080fd5b600054603f906001600160a01b031681565b6040516001600160a01b03909116815260200160405180910390f3fea2646970667358221220a29d8029d0650b318b5de43a7081be5e55e8d6fd8548be488b0a29a25f880a5f64736f6c63430008090033",
  "linkReferences": {},
  "deployedLinkReferences": {}
}