{
  "_format": "hh-sol-artifact-1",
  "contractName": "TestOracle",
  "sourceName": "contracts/tests/TestOracle.sol",
  "abi": [
    {
      "inputs": [
        {
          "internalType": "address",
          "name": "",
          "type": "address"
        }
      ],
      "name": "chainLinkAggregatorMap",
      "outputs": [
        {
          "internalType": "address",
          "name": "",
          "type": "address"
        }
      ],
      "stateMutability": "view",
      "type": "function"
    },
    {
      "inputs": [
        {
          "internalType": "address",
          "name": "underlying",
          "type": "address"
        }
      ],
      "name": "getUnderlyingPrice",
      "outputs": [
        {
          "internalType": "int256",
          "name": "answer",
          "type": "int256"
        }
      ],
      "stateMutability": "view",
      "type": "function"
    },
    {
      "inputs": [
        {
          "internalType": "address",
          "name": "underlying",
          "type": "address"
        },
        {
          "internalType": "uint256",
          "name": "",
          "type": "uint256"
        }
      ],
      "name": "getUnderlyingTwapPrice",
      "outputs": [
        {
          "internalType": "int256",
          "name": "",
          "type": "int256"
        }
      ],
      "stateMutability": "view",
      "type": "function"
    },
    {
      "inputs": [],
      "name": "governance",
      "outputs": [
        {
          "internalType": "address",
          "name": "",
          "type": "address"
        }
      ],
      "stateMutability": "view",
      "type": "function"
    },
    {
      "inputs": [
        {
          "internalType": "address",
          "name": "_governance",
          "type": "address"
        }
      ],
      "name": "initialize",
      "outputs": [],
      "stateMutability": "nonpayable",
      "type": "function"
    },
    {
      "inputs": [
        {
          "internalType": "address",
          "name": "underlying",
          "type": "address"
        },
        {
          "internalType": "address",
          "name": "aggregator",
          "type": "address"
        }
      ],
      "name": "setAggregator",
      "outputs": [],
      "stateMutability": "nonpayable",
      "type": "function"
    },
    {
      "inputs": [
        {
          "internalType": "address",
          "name": "_governance",
          "type": "address"
        }
      ],
      "name": "setGovernace",
      "outputs": [],
      "stateMutability": "nonpayable",
      "type": "function"
    },
    {
      "inputs": [
        {
          "internalType": "address",
          "name": "underlying",
          "type": "address"
        },
        {
          "internalType": "int256",
          "name": "price",
          "type": "int256"
        }
      ],
      "name": "setStablePrice",
      "outputs": [],
      "stateMutability": "nonpayable",
      "type": "function"
    },
    {
      "inputs": [
        {
          "internalType": "address",
          "name": "underlying",
          "type": "address"
        },
        {
          "internalType": "int256",
          "name": "_price",
          "type": "int256"
        }
      ],
      "name": "setUnderlyingPrice",
      "outputs": [],
      "stateMutability": "nonpayable",
      "type": "function"
    },
    {
      "inputs": [
        {
          "internalType": "address",
          "name": "underlying",
          "type": "address"
        },
        {
          "internalType": "int256",
          "name": "_price",
          "type": "int256"
        }
      ],
      "name": "setUnderlyingTwapPrice",
      "outputs": [],
      "stateMutability": "nonpayable",
      "type": "function"
    },
    {
      "inputs": [
        {
          "internalType": "address",
          "name": "",
          "type": "address"
        }
      ],
      "name": "stablePrice",
      "outputs": [
        {
          "internalType": "int256",
          "name": "",
          "type": "int256"
        }
      ],
      "stateMutability": "view",
      "type": "function"
    }
  ],
  "bytecode": "0x608060405234801561001057600080fd5b50610f04806100206000396000f3fe608060405234801561001057600080fd5b50600436106100a95760003560e01c8063b01c446711610071578063b01c446714610150578063c4d66de81461016c578063d6b28b5f14610188578063e827795b146101b8578063efe102bd146101e8578063fc57d4df14610204576100a9565b806334e5355f146100ae5780635aa6e675146100de57806362ddccb5146100fc5780637394a7f614610118578063851e3ca514610134575b600080fd5b6100c860048036038101906100c39190610a82565b610234565b6040516100d59190610abe565b60405180910390f35b6100e6610267565b6040516100f39190610abe565b60405180910390f35b61011660048036038101906101119190610b0f565b61028b565b005b610132600480360381019061012d9190610b4f565b61036a565b005b61014e60048036038101906101499190610a82565b61048c565b005b61016a60048036038101906101659190610b0f565b610526565b005b61018660048036038101906101819190610a82565b61056e565b005b6101a2600480360381019061019d9190610bc5565b610654565b6040516101af9190610c14565b60405180910390f35b6101d260048036038101906101cd9190610a82565b6107af565b6040516101df9190610c14565b60405180910390f35b61020260048036038101906101fd9190610b0f565b6107c7565b005b61021e60048036038101906102199190610a82565b61080f565b60405161022b9190610c14565b60405180910390f35b60016020528060005260406000206000915054906101000a900473ffffffffffffffffffffffffffffffffffffffff1681565b60008054906101000a900473ffffffffffffffffffffffffffffffffffffffff1681565b60008054906101000a900473ffffffffffffffffffffffffffffffffffffffff1673ffffffffffffffffffffffffffffffffffffffff163373ffffffffffffffffffffffffffffffffffffffff1614610319576040517f08c379a000000000000000000000000000000000000000000000000000000000815260040161031090610c8c565b60405180910390fd5b61032282610969565b80600260008473ffffffffffffffffffffffffffffffffffffffff1673ffffffffffffffffffffffffffffffffffffffff168152602001908152602001600020819055505050565b60008054906101000a900473ffffffffffffffffffffffffffffffffffffffff1673ffffffffffffffffffffffffffffffffffffffff163373ffffffffffffffffffffffffffffffffffffffff16146103f8576040517f08c379a00000000000000000000000000000000000000000000000000000000081526004016103ef90610c8c565b60405180910390fd5b61040182610969565b61040a81610969565b80600160008473ffffffffffffffffffffffffffffffffffffffff1673ffffffffffffffffffffffffffffffffffffffff16815260200190815260200160002060006101000a81548173ffffffffffffffffffffffffffffffffffffffff021916908373ffffffffffffffffffffffffffffffffffffffff1602179055505050565b60008054906101000a900473ffffffffffffffffffffffffffffffffffffffff1673ffffffffffffffffffffffffffffffffffffffff163373ffffffffffffffffffffffffffffffffffffffff161461051a576040517f08c379a000000000000000000000000000000000000000000000000000000000815260040161051190610c8c565b60405180910390fd5b610523816109dc565b50565b80603560008473ffffffffffffffffffffffffffffffffffffffff1673ffffffffffffffffffffffffffffffffffffffff168152602001908152602001600020819055505050565b600060159054906101000a900460ff16806105965750600060149054906101000a900460ff16155b6105d5576040517f08c379a00000000000000000000000000000000000000000000000000000000081526004016105cc90610d1e565b60405180910390fd5b60008060159054906101000a900460ff161590508015610626576001600060156101000a81548160ff0219169083151502179055506001600060146101000a81548160ff0219169083151502179055505b61062f826109dc565b80156106505760008060156101000a81548160ff0219169083151502179055505b5050565b600080600260008573ffffffffffffffffffffffffffffffffffffffff1673ffffffffffffffffffffffffffffffffffffffff16815260200190815260200160002054146106e357600260008473ffffffffffffffffffffffffffffffffffffffff1673ffffffffffffffffffffffffffffffffffffffff1681526020019081526020016000205490506107a9565b6000603660008573ffffffffffffffffffffffffffffffffffffffff1673ffffffffffffffffffffffffffffffffffffffff168152602001908152602001600020541415610766576040517f08c379a000000000000000000000000000000000000000000000000000000000815260040161075d90610db0565b60405180910390fd5b603660008473ffffffffffffffffffffffffffffffffffffffff1673ffffffffffffffffffffffffffffffffffffffff1681526020019081526020016000205490505b92915050565b60026020528060005260406000206000915090505481565b80603660008473ffffffffffffffffffffffffffffffffffffffff1673ffffffffffffffffffffffffffffffffffffffff168152602001908152602001600020819055505050565b600080600260008473ffffffffffffffffffffffffffffffffffffffff1673ffffffffffffffffffffffffffffffffffffffff168152602001908152602001600020541461089e57600260008373ffffffffffffffffffffffffffffffffffffffff1673ffffffffffffffffffffffffffffffffffffffff168152602001908152602001600020549050610964565b6000603560008473ffffffffffffffffffffffffffffffffffffffff1673ffffffffffffffffffffffffffffffffffffffff168152602001908152602001600020541415610921576040517f08c379a000000000000000000000000000000000000000000000000000000000815260040161091890610e42565b60405180910390fd5b603560008373ffffffffffffffffffffffffffffffffffffffff1673ffffffffffffffffffffffffffffffffffffffff1681526020019081526020016000205490505b919050565b600073ffffffffffffffffffffffffffffffffffffffff168173ffffffffffffffffffffffffffffffffffffffff1614156109d9576040517f08c379a00000000000000000000000000000000000000000000000000000000081526004016109d090610eae565b60405180910390fd5b50565b806000806101000a81548173ffffffffffffffffffffffffffffffffffffffff021916908373ffffffffffffffffffffffffffffffffffffffff16021790555050565b600080fd5b600073ffffffffffffffffffffffffffffffffffffffff82169050919050565b6000610a4f82610a24565b9050919050565b610a5f81610a44565b8114610a6a57600080fd5b50565b600081359050610a7c81610a56565b92915050565b600060208284031215610a9857610a97610a1f565b5b6000610aa684828501610a6d565b91505092915050565b610ab881610a44565b82525050565b6000602082019050610ad36000830184610aaf565b92915050565b6000819050919050565b610aec81610ad9565b8114610af757600080fd5b50565b600081359050610b0981610ae3565b92915050565b60008060408385031215610b2657610b25610a1f565b5b6000610b3485828601610a6d565b9250506020610b4585828601610afa565b9150509250929050565b60008060408385031215610b6657610b65610a1f565b5b6000610b7485828601610a6d565b9250506020610b8585828601610a6d565b9150509250929050565b6000819050919050565b610ba281610b8f565b8114610bad57600080fd5b50565b600081359050610bbf81610b99565b92915050565b60008060408385031215610bdc57610bdb610a1f565b5b6000610bea85828601610a6d565b9250506020610bfb85828601610bb0565b9150509250929050565b610c0e81610ad9565b82525050565b6000602082019050610c296000830184610c05565b92915050565b600082825260208201905092915050565b7f4f4e4c595f474f5645524e414e43450000000000000000000000000000000000600082015250565b6000610c76600f83610c2f565b9150610c8182610c40565b602082019050919050565b60006020820190508181036000830152610ca581610c69565b9050919050565b7f496e697469616c697a61626c653a20636f6e747261637420697320616c72656160008201527f647920696e697469616c697a6564000000000000000000000000000000000000602082015250565b6000610d08602e83610c2f565b9150610d1382610cac565b604082019050919050565b60006020820190508181036000830152610d3781610cfb565b9050919050565b7f756e6465726c79696e67207477617020707269636520686173206e6f7420626560008201527f656e207365742061732079657400000000000000000000000000000000000000602082015250565b6000610d9a602d83610c2f565b9150610da582610d3e565b604082019050919050565b60006020820190508181036000830152610dc981610d8d565b9050919050565b7f756e6465726c79696e6720707269636520686173206e6f74206265656e20736560008201527f7420617320796574000000000000000000000000000000000000000000000000602082015250565b6000610e2c602883610c2f565b9150610e3782610dd0565b604082019050919050565b60006020820190508181036000830152610e5b81610e1f565b9050919050565b7f656d707479206164647265737300000000000000000000000000000000000000600082015250565b6000610e98600d83610c2f565b9150610ea382610e62565b602082019050919050565b60006020820190508181036000830152610ec781610e8b565b905091905056fea26469706673582212209b95d2522cbc81e86b356ec3aad07f5749de00f4693ca4f076a12de796cbc65a64736f6c63430008090033",
  "linkReferences": {},
  "deployedLinkReferences": {}
}