{
  "_format": "hh-sol-artifact-1",
  "contractName": "PoolFactory",
  "sourceName": "contracts/Pool/PoolFactory.sol",
  "abi": [
    {
      "anonymous": false,
      "inputs": [
        {
          "indexed": true,
          "internalType": "address",
          "name": "borrowToken",
          "type": "address"
        },
        {
          "indexed": false,
          "internalType": "bool",
          "name": "isSupported",
          "type": "bool"
        }
      ],
      "name": "BorrowTokenUpdated",
      "type": "event"
    },
    {
      "anonymous": false,
      "inputs": [
        {
          "indexed": true,
          "internalType": "address",
          "name": "collateralToken",
          "type": "address"
        },
        {
          "indexed": false,
          "internalType": "bool",
          "name": "isSupported",
          "type": "bool"
        }
      ],
      "name": "CollateralTokenUpdated",
      "type": "event"
    },
    {
      "anonymous": false,
      "inputs": [
        {
          "indexed": false,
          "internalType": "uint256",
          "name": "updatedCollectionPeriod",
          "type": "uint256"
        }
      ],
      "name": "CollectionPeriodUpdated",
      "type": "event"
    },
    {
      "anonymous": false,
      "inputs": [
        {
          "indexed": true,
          "internalType": "address",
          "name": "updatedExtension",
          "type": "address"
        }
      ],
      "name": "ExtensionImplUpdated",
      "type": "event"
    },
    {
      "anonymous": false,
      "inputs": [
        {
          "indexed": true,
          "internalType": "string",
          "name": "limitType",
          "type": "string"
        },
        {
          "indexed": false,
          "internalType": "uint256",
          "name": "max",
          "type": "uint256"
        },
        {
          "indexed": false,
          "internalType": "uint256",
          "name": "min",
          "type": "uint256"
        }
      ],
      "name": "LimitsUpdated",
      "type": "event"
    },
    {
      "anonymous": false,
      "inputs": [
        {
          "indexed": false,
          "internalType": "uint256",
          "name": "updatedLiquidatorRewardFraction",
          "type": "uint256"
        }
      ],
      "name": "LiquidatorRewardFractionUpdated",
      "type": "event"
    },
    {
      "anonymous": false,
      "inputs": [
        {
          "indexed": false,
          "internalType": "uint256",
          "name": "updatedLoanWithdrawalDuration",
          "type": "uint256"
        }
      ],
      "name": "LoanWithdrawalDurationUpdated",
      "type": "event"
    },
    {
      "anonymous": false,
      "inputs": [
        {
          "indexed": false,
          "internalType": "uint256",
          "name": "updatedMarginCallDuration",
          "type": "uint256"
        }
      ],
      "name": "MarginCallDurationUpdated",
      "type": "event"
    },
    {
      "anonymous": false,
      "inputs": [
        {
          "indexed": false,
          "internalType": "uint256",
          "name": "updatedMinBorrowFraction",
          "type": "uint256"
        }
      ],
      "name": "MinBorrowFractionUpdated",
      "type": "event"
    },
    {
      "anonymous": false,
      "inputs": [
        {
          "indexed": false,
          "internalType": "address",
          "name": "noStrategy",
          "type": "address"
        }
      ],
      "name": "NoStrategyUpdated",
      "type": "event"
    },
    {
      "anonymous": false,
      "inputs": [
        {
          "indexed": true,
          "internalType": "address",
          "name": "previousOwner",
          "type": "address"
        },
        {
          "indexed": true,
          "internalType": "address",
          "name": "newOwner",
          "type": "address"
        }
      ],
      "name": "OwnershipTransferred",
      "type": "event"
    },
    {
      "anonymous": false,
      "inputs": [
        {
          "indexed": false,
          "internalType": "uint256",
          "name": "updatedPoolCancelPenaltyMultiple",
          "type": "uint256"
        }
      ],
      "name": "PoolCancelPenaltyMultipleUpdated",
      "type": "event"
    },
    {
      "anonymous": false,
      "inputs": [
        {
          "indexed": true,
          "internalType": "address",
          "name": "pool",
          "type": "address"
        },
        {
          "indexed": true,
          "internalType": "address",
          "name": "borrower",
          "type": "address"
        }
      ],
      "name": "PoolCreated",
      "type": "event"
    },
    {
      "anonymous": false,
      "inputs": [
        {
          "indexed": false,
          "internalType": "bytes4",
          "name": "updatedSelector",
          "type": "bytes4"
        }
      ],
      "name": "PoolInitSelectorUpdated",
      "type": "event"
    },
    {
      "anonymous": false,
      "inputs": [
        {
          "indexed": true,
          "internalType": "address",
          "name": "updatedPoolLogic",
          "type": "address"
        }
      ],
      "name": "PoolLogicUpdated",
      "type": "event"
    },
    {
      "anonymous": false,
      "inputs": [
        {
          "indexed": true,
          "internalType": "address",
          "name": "updatedPriceOracle",
          "type": "address"
        }
      ],
      "name": "PriceOracleUpdated",
      "type": "event"
    },
    {
      "anonymous": false,
      "inputs": [
        {
          "indexed": false,
          "internalType": "address",
          "name": "updatedProtocolFeeCollector",
          "type": "address"
        }
      ],
      "name": "ProtocolFeeCollectorUpdated",
      "type": "event"
    },
    {
      "anonymous": false,
      "inputs": [
        {
          "indexed": false,
          "internalType": "uint256",
          "name": "updatedProtocolFee",
          "type": "uint256"
        }
      ],
      "name": "ProtocolFeeFractionUpdated",
      "type": "event"
    },
    {
      "anonymous": false,
      "inputs": [
        {
          "indexed": true,
          "internalType": "address",
          "name": "updatedRepaymentImpl",
          "type": "address"
        }
      ],
      "name": "RepaymentImplUpdated",
      "type": "event"
    },
    {
      "anonymous": false,
      "inputs": [
        {
          "indexed": true,
          "internalType": "address",
          "name": "savingsAccount",
          "type": "address"
        }
      ],
      "name": "SavingsAccountUpdated",
      "type": "event"
    },
    {
      "anonymous": false,
      "inputs": [
        {
          "indexed": true,
          "internalType": "address",
          "name": "updatedStrategyRegistry",
          "type": "address"
        }
      ],
      "name": "StrategyRegistryUpdated",
      "type": "event"
    },
    {
      "anonymous": false,
      "inputs": [
        {
          "indexed": true,
          "internalType": "address",
          "name": "updatedBorrowerRegistry",
          "type": "address"
        }
      ],
      "name": "UserRegistryUpdated",
      "type": "event"
    },
    {
      "inputs": [],
      "name": "collectionPeriod",
      "outputs": [
        {
          "internalType": "uint256",
          "name": "",
          "type": "uint256"
        }
      ],
      "stateMutability": "view",
      "type": "function"
    },
    {
      "inputs": [
        {
          "internalType": "uint256",
          "name": "_poolSize",
          "type": "uint256"
        },
        {
          "internalType": "uint256",
          "name": "_borrowRate",
          "type": "uint256"
        },
        {
          "internalType": "address",
          "name": "_borrowToken",
          "type": "address"
        },
        {
          "internalType": "address",
          "name": "_collateralToken",
          "type": "address"
        },
        {
          "internalType": "uint256",
          "name": "_idealCollateralRatio",
          "type": "uint256"
        },
        {
          "internalType": "uint256",
          "name": "_repaymentInterval",
          "type": "uint256"
        },
        {
          "internalType": "uint256",
          "name": "_noOfRepaymentIntervals",
          "type": "uint256"
        },
        {
          "internalType": "address",
          "name": "_poolSavingsStrategy",
          "type": "address"
        },
        {
          "internalType": "uint256",
          "name": "_collateralAmount",
          "type": "uint256"
        },
        {
          "internalType": "bool",
          "name": "_transferFromSavingsAccount",
          "type": "bool"
        },
        {
          "internalType": "bytes32",
          "name": "_salt",
          "type": "bytes32"
        },
        {
          "internalType": "address",
          "name": "_verifier",
          "type": "address"
        },
        {
          "internalType": "address",
          "name": "_lenderVerifier",
          "type": "address"
        }
      ],
      "name": "createPool",
      "outputs": [],
      "stateMutability": "payable",
      "type": "function"
    },
    {
      "inputs": [],
      "name": "extension",
      "outputs": [
        {
          "internalType": "address",
          "name": "",
          "type": "address"
        }
      ],
      "stateMutability": "view",
      "type": "function"
    },
    {
      "inputs": [],
      "name": "getProtocolFeeData",
      "outputs": [
        {
          "internalType": "uint256",
          "name": "",
          "type": "uint256"
        },
        {
          "internalType": "address",
          "name": "",
          "type": "address"
        }
      ],
      "stateMutability": "view",
      "type": "function"
    },
    {
      "inputs": [
        {
          "internalType": "address",
          "name": "_admin",
          "type": "address"
        },
        {
          "internalType": "uint256",
          "name": "_collectionPeriod",
          "type": "uint256"
        },
        {
          "internalType": "uint256",
          "name": "_loanWithdrawalDuration",
          "type": "uint256"
        },
        {
          "internalType": "uint256",
          "name": "_marginCallDuration",
          "type": "uint256"
        },
        {
          "internalType": "bytes4",
          "name": "_poolInitFuncSelector",
          "type": "bytes4"
        },
        {
          "internalType": "uint256",
          "name": "_liquidatorRewardFraction",
          "type": "uint256"
        },
        {
          "internalType": "uint256",
          "name": "_poolCancelPenaltyMultiple",
          "type": "uint256"
        },
        {
          "internalType": "uint256",
          "name": "_minBorrowFraction",
          "type": "uint256"
        },
        {
          "internalType": "uint256",
          "name": "_protocolFeeFraction",
          "type": "uint256"
        },
        {
          "internalType": "address",
          "name": "_protocolFeeCollector",
          "type": "address"
        },
        {
          "internalType": "address",
          "name": "_noStrategy",
          "type": "address"
        }
      ],
      "name": "initialize",
      "outputs": [],
      "stateMutability": "nonpayable",
      "type": "function"
    },
    {
      "inputs": [],
      "name": "liquidatorRewardFraction",
      "outputs": [
        {
          "internalType": "uint256",
          "name": "",
          "type": "uint256"
        }
      ],
      "stateMutability": "view",
      "type": "function"
    },
    {
      "inputs": [],
      "name": "loanWithdrawalDuration",
      "outputs": [
        {
          "internalType": "uint256",
          "name": "",
          "type": "uint256"
        }
      ],
      "stateMutability": "view",
      "type": "function"
    },
    {
      "inputs": [],
      "name": "marginCallDuration",
      "outputs": [
        {
          "internalType": "uint256",
          "name": "",
          "type": "uint256"
        }
      ],
      "stateMutability": "view",
      "type": "function"
    },
    {
      "inputs": [],
      "name": "minBorrowFraction",
      "outputs": [
        {
          "internalType": "uint256",
          "name": "",
          "type": "uint256"
        }
      ],
      "stateMutability": "view",
      "type": "function"
    },
    {
      "inputs": [],
      "name": "noStrategyAddress",
      "outputs": [
        {
          "internalType": "address",
          "name": "",
          "type": "address"
        }
      ],
      "stateMutability": "view",
      "type": "function"
    },
    {
      "inputs": [],
      "name": "owner",
      "outputs": [
        {
          "internalType": "address",
          "name": "",
          "type": "address"
        }
      ],
      "stateMutability": "view",
      "type": "function"
    },
    {
      "inputs": [],
      "name": "poolCancelPenaltyMultiple",
      "outputs": [
        {
          "internalType": "uint256",
          "name": "",
          "type": "uint256"
        }
      ],
      "stateMutability": "view",
      "type": "function"
    },
    {
      "inputs": [],
      "name": "poolImpl",
      "outputs": [
        {
          "internalType": "address",
          "name": "",
          "type": "address"
        }
      ],
      "stateMutability": "view",
      "type": "function"
    },
    {
      "inputs": [],
      "name": "poolInitFuncSelector",
      "outputs": [
        {
          "internalType": "bytes4",
          "name": "",
          "type": "bytes4"
        }
      ],
      "stateMutability": "view",
      "type": "function"
    },
    {
      "inputs": [
        {
          "internalType": "address",
          "name": "",
          "type": "address"
        }
      ],
      "name": "poolRegistry",
      "outputs": [
        {
          "internalType": "bool",
          "name": "",
          "type": "bool"
        }
      ],
      "stateMutability": "view",
      "type": "function"
    },
    {
      "inputs": [],
      "name": "priceOracle",
      "outputs": [
        {
          "internalType": "address",
          "name": "",
          "type": "address"
        }
      ],
      "stateMutability": "view",
      "type": "function"
    },
    {
      "inputs": [],
      "name": "renounceOwnership",
      "outputs": [],
      "stateMutability": "nonpayable",
      "type": "function"
    },
    {
      "inputs": [],
      "name": "repaymentImpl",
      "outputs": [
        {
          "internalType": "address",
          "name": "",
          "type": "address"
        }
      ],
      "stateMutability": "view",
      "type": "function"
    },
    {
      "inputs": [],
      "name": "savingsAccount",
      "outputs": [
        {
          "internalType": "address",
          "name": "",
          "type": "address"
        }
      ],
      "stateMutability": "view",
      "type": "function"
    },
    {
      "inputs": [
        {
          "internalType": "address",
          "name": "_poolImpl",
          "type": "address"
        },
        {
          "internalType": "address",
          "name": "_repaymentImpl",
          "type": "address"
        },
        {
          "internalType": "address",
          "name": "_userRegistry",
          "type": "address"
        },
        {
          "internalType": "address",
          "name": "_strategyRegistry",
          "type": "address"
        },
        {
          "internalType": "address",
          "name": "_priceOracle",
          "type": "address"
        },
        {
          "internalType": "address",
          "name": "_savingsAccount",
          "type": "address"
        },
        {
          "internalType": "address",
          "name": "_extension",
          "type": "address"
        }
      ],
      "name": "setImplementations",
      "outputs": [],
      "stateMutability": "nonpayable",
      "type": "function"
    },
    {
      "inputs": [],
      "name": "strategyRegistry",
      "outputs": [
        {
          "internalType": "address",
          "name": "",
          "type": "address"
        }
      ],
      "stateMutability": "view",
      "type": "function"
    },
    {
      "inputs": [
        {
          "internalType": "address",
          "name": "newOwner",
          "type": "address"
        }
      ],
      "name": "transferOwnership",
      "outputs": [],
      "stateMutability": "nonpayable",
      "type": "function"
    },
    {
      "inputs": [
        {
          "internalType": "uint256",
          "name": "_min",
          "type": "uint256"
        },
        {
          "internalType": "uint256",
          "name": "_max",
          "type": "uint256"
        }
      ],
      "name": "updateBorrowRateLimit",
      "outputs": [],
      "stateMutability": "nonpayable",
      "type": "function"
    },
    {
      "inputs": [
        {
          "internalType": "uint256",
          "name": "_collectionPeriod",
          "type": "uint256"
        }
      ],
      "name": "updateCollectionPeriod",
      "outputs": [],
      "stateMutability": "nonpayable",
      "type": "function"
    },
    {
      "inputs": [
        {
          "internalType": "uint256",
          "name": "_liquidatorRewardFraction",
          "type": "uint256"
        }
      ],
      "name": "updateLiquidatorRewardFraction",
      "outputs": [],
      "stateMutability": "nonpayable",
      "type": "function"
    },
    {
      "inputs": [
        {
          "internalType": "uint256",
          "name": "_loanWithdrawalDuration",
          "type": "uint256"
        }
      ],
      "name": "updateLoanWithdrawalDuration",
      "outputs": [],
      "stateMutability": "nonpayable",
      "type": "function"
    },
    {
      "inputs": [
        {
          "internalType": "uint256",
          "name": "_marginCallDuration",
          "type": "uint256"
        }
      ],
      "name": "updateMarginCallDuration",
      "outputs": [],
      "stateMutability": "nonpayable",
      "type": "function"
    },
    {
      "inputs": [
        {
          "internalType": "uint256",
          "name": "_minBorrowFraction",
          "type": "uint256"
        }
      ],
      "name": "updateMinBorrowFraction",
      "outputs": [],
      "stateMutability": "nonpayable",
      "type": "function"
    },
    {
      "inputs": [
        {
          "internalType": "uint256",
          "name": "_min",
          "type": "uint256"
        },
        {
          "internalType": "uint256",
          "name": "_max",
          "type": "uint256"
        }
      ],
      "name": "updateNoOfRepaymentIntervalsLimit",
      "outputs": [],
      "stateMutability": "nonpayable",
      "type": "function"
    },
    {
      "inputs": [
        {
          "internalType": "address",
          "name": "_noStrategy",
          "type": "address"
        }
      ],
      "name": "updateNoStrategy",
      "outputs": [],
      "stateMutability": "nonpayable",
      "type": "function"
    },
    {
      "inputs": [
        {
          "internalType": "uint256",
          "name": "_poolCancelPenaltyMultiple",
          "type": "uint256"
        }
      ],
      "name": "updatePoolCancelPenaltyMultiple",
      "outputs": [],
      "stateMutability": "nonpayable",
      "type": "function"
    },
    {
      "inputs": [
        {
          "internalType": "address",
          "name": "_poolLogic",
          "type": "address"
        }
      ],
      "name": "updatePoolLogic",
      "outputs": [],
      "stateMutability": "nonpayable",
      "type": "function"
    },
    {
      "inputs": [
        {
          "internalType": "uint256",
          "name": "_min",
          "type": "uint256"
        },
        {
          "internalType": "uint256",
          "name": "_max",
          "type": "uint256"
        }
      ],
      "name": "updatePoolSizeLimit",
      "outputs": [],
      "stateMutability": "nonpayable",
      "type": "function"
    },
    {
      "inputs": [
        {
          "internalType": "address",
          "name": "_priceOracle",
          "type": "address"
        }
      ],
      "name": "updatePriceoracle",
      "outputs": [],
      "stateMutability": "nonpayable",
      "type": "function"
    },
    {
      "inputs": [
        {
          "internalType": "address",
          "name": "_protocolFeeCollector",
          "type": "address"
        }
      ],
      "name": "updateProtocolFeeCollector",
      "outputs": [],
      "stateMutability": "nonpayable",
      "type": "function"
    },
    {
      "inputs": [
        {
          "internalType": "uint256",
          "name": "_protocolFee",
          "type": "uint256"
        }
      ],
      "name": "updateProtocolFeeFraction",
      "outputs": [],
      "stateMutability": "nonpayable",
      "type": "function"
    },
    {
      "inputs": [
        {
          "internalType": "address",
          "name": "_repaymentImpl",
          "type": "address"
        }
      ],
      "name": "updateRepaymentImpl",
      "outputs": [],
      "stateMutability": "nonpayable",
      "type": "function"
    },
    {
      "inputs": [
        {
          "internalType": "uint256",
          "name": "_min",
          "type": "uint256"
        },
        {
          "internalType": "uint256",
          "name": "_max",
          "type": "uint256"
        }
      ],
      "name": "updateRepaymentIntervalLimit",
      "outputs": [],
      "stateMutability": "nonpayable",
      "type": "function"
    },
    {
      "inputs": [
        {
          "internalType": "address",
          "name": "_savingsAccount",
          "type": "address"
        }
      ],
      "name": "updateSavingsAccount",
      "outputs": [],
      "stateMutability": "nonpayable",
      "type": "function"
    },
    {
      "inputs": [
        {
          "internalType": "address",
          "name": "_strategyRegistry",
          "type": "address"
        }
      ],
      "name": "updateStrategyRegistry",
      "outputs": [],
      "stateMutability": "nonpayable",
      "type": "function"
    },
    {
      "inputs": [
        {
          "internalType": "address",
          "name": "_borrowToken",
          "type": "address"
        },
        {
          "internalType": "bool",
          "name": "_isSupported",
          "type": "bool"
        }
      ],
      "name": "updateSupportedBorrowTokens",
      "outputs": [],
      "stateMutability": "nonpayable",
      "type": "function"
    },
    {
      "inputs": [
        {
          "internalType": "address",
          "name": "_collateralToken",
          "type": "address"
        },
        {
          "internalType": "bool",
          "name": "_isSupported",
          "type": "bool"
        }
      ],
      "name": "updateSupportedCollateralTokens",
      "outputs": [],
      "stateMutability": "nonpayable",
      "type": "function"
    },
    {
      "inputs": [
        {
          "internalType": "address",
          "name": "_userRegistry",
          "type": "address"
        }
      ],
      "name": "updateUserRegistry",
      "outputs": [],
      "stateMutability": "nonpayable",
      "type": "function"
    },
    {
      "inputs": [
        {
          "internalType": "address",
          "name": "_extension",
          "type": "address"
        }
      ],
      "name": "updatedExtension",
      "outputs": [],
      "stateMutability": "nonpayable",
      "type": "function"
    },
    {
      "inputs": [
        {
          "internalType": "uint256",
          "name": "_min",
          "type": "uint256"
        },
        {
          "internalType": "uint256",
          "name": "_max",
          "type": "uint256"
        }
      ],
      "name": "updateidealCollateralRatioLimit",
      "outputs": [],
      "stateMutability": "nonpayable",
      "type": "function"
    },
    {
      "inputs": [
        {
          "internalType": "bytes4",
          "name": "_functionId",
          "type": "bytes4"
        }
      ],
      "name": "updatepoolInitFuncSelector",
      "outputs": [],
      "stateMutability": "nonpayable",
      "type": "function"
    },
    {
      "inputs": [],
      "name": "userRegistry",
      "outputs": [
        {
          "internalType": "address",
          "name": "",
          "type": "address"
        }
      ],
      "stateMutability": "view",
      "type": "function"
    }
  ],
  "bytecode": "0x608060405234801561001057600080fd5b50613ebc806100206000396000f3fe608060405260043610620002c65760003560e01c80637cf0aec8116200017b578063ce2f9f4c11620000d3578063e030a06d1162000085578063e030a06d1462000aac578063e2613ffe1462000ae0578063ecced6231462000b17578063edf7ae211462000b2f578063f2fde38b1462000b7a578063fdc19bb71462000bb157620002c6565b8063ce2f9f4c1462000911578063cea2490c146200093f578063d080bf2714620009a8578063d3f0965814620009c0578063dcc314db1462000a47578063de9de06e1462000a7e57620002c6565b8063acca944f116200012d578063acca944f1462000819578063b16c3f731462000831578063ba9a2ba0146200085f578063bf658a2e1462000893578063bf98d5b014620008cb578063c2bb7c8d14620008f957620002c6565b80637cf0aec814620007295780637d3edfee146200075d578063816a1121146200079c5780638da5cb5b14620007b45780639b9842c114620007cc578063a3170fe514620007e457620002c6565b80634c1f2dc5116200022f57806363832d5411620001e157806363832d541462000613578063651faffa146200062b5780636cf14f9d1462000662578063715018a614620006995780637bad520714620006b15780637be4a7b514620006ea57620002c6565b80634c1f2dc5146200049c578063525628de14620004d357806352cd2783146200050a578063565b54ea14620005415780635c7460d6146200057857806361ae73a9146200059057620002c6565b80632630c12f11620002895780632630c12f14620003bb57806329ae4a6f14620003d35780632d5537b014620004015780632e37d82614620004195780632ecbf843146200045057806334c0af54146200046857620002c6565b80630485481714620002cb5780630971976e14620002fb578063112dc9dc1462000325578063171e1085146200035357806317c03f071462000387575b600080fd5b348015620002d857600080fd5b50620002f960048036036020811015620002f157600080fd5b503562000bc9565b005b3480156200030857600080fd5b506200031362000c3f565b60408051918252519081900360200190f35b3480156200033257600080fd5b50620002f9600480360360208110156200034b57600080fd5b503562000c45565b3480156200036057600080fd5b506200036b62000cb8565b604080516001600160a01b039092168252519081900360200190f35b3480156200039457600080fd5b50620002f960048036036040811015620003ad57600080fd5b508035906020013562000cc7565b348015620003c857600080fd5b506200036b62000d9f565b348015620003e057600080fd5b50620002f960048036036020811015620003f957600080fd5b503562000dae565b3480156200040e57600080fd5b506200036b62000e21565b3480156200042657600080fd5b50620002f9600480360360208110156200043f57600080fd5b50356001600160a01b031662000e30565b3480156200045d57600080fd5b506200031362000ea3565b3480156200047557600080fd5b50620002f9600480360360408110156200048e57600080fd5b508035906020013562000ea9565b348015620004a957600080fd5b50620002f960048036036020811015620004c257600080fd5b50356001600160a01b031662000f7c565b348015620004e057600080fd5b50620002f960048036036020811015620004f957600080fd5b50356001600160a01b031662000fef565b3480156200051757600080fd5b50620002f9600480360360208110156200053057600080fd5b50356001600160a01b031662001062565b3480156200054e57600080fd5b50620002f9600480360360208110156200056757600080fd5b50356001600160a01b0316620010d5565b3480156200058557600080fd5b506200036b62001148565b620002f960048036036101a0811015620005a957600080fd5b508035906020810135906001600160a01b036040820135811691606081013582169160808201359160a08101359160c08201359160e08101358216916101008201359161012081013515159161014082013591610160810135821691610180909101351662001157565b3480156200062057600080fd5b506200036b620016a0565b3480156200063857600080fd5b50620002f9600480360360208110156200065157600080fd5b50356001600160a01b0316620016b7565b3480156200066f57600080fd5b50620002f9600480360360208110156200068857600080fd5b50356001600160a01b03166200172a565b348015620006a657600080fd5b50620002f96200179d565b348015620006be57600080fd5b50620006c96200184f565b604080519283526001600160a01b0390911660208301528051918290030190f35b348015620006f757600080fd5b50620002f9600480360360408110156200071057600080fd5b506001600160a01b038135169060200135151562001862565b3480156200073657600080fd5b50620002f9600480360360408110156200074f57600080fd5b5080359060200135620018da565b3480156200076a57600080fd5b50620002f9600480360360408110156200078357600080fd5b506001600160a01b0381351690602001351515620019a4565b348015620007a957600080fd5b506200031362001a18565b348015620007c157600080fd5b506200036b62001a1e565b348015620007d957600080fd5b506200031362001a2f565b348015620007f157600080fd5b50620007fc62001a35565b604080516001600160e01b03199092168252519081900360200190f35b3480156200082657600080fd5b506200031362001a3e565b3480156200083e57600080fd5b50620002f9600480360360208110156200085757600080fd5b503562001a44565b3480156200086c57600080fd5b50620002f9600480360360408110156200088557600080fd5b508035906020013562001ab7565b348015620008a057600080fd5b50620002f960048036036020811015620008b957600080fd5b50356001600160e01b03191662001b88565b348015620008d857600080fd5b50620002f960048036036020811015620008f157600080fd5b503562001bfb565b3480156200090657600080fd5b506200031362001c6e565b3480156200091e57600080fd5b50620002f9600480360360208110156200093757600080fd5b503562001c74565b3480156200094c57600080fd5b50620002f9600480360360e08110156200096557600080fd5b506001600160a01b038135811691602081013582169160408201358116916060810135821691608082013581169160a081013582169160c0909101351662001ce7565b348015620009b557600080fd5b506200036b62001da5565b348015620009cd57600080fd5b50620002f96004803603610160811015620009e757600080fd5b506001600160a01b0381358116916020810135916040820135916060810135916001600160e01b03196080830135169160a08101359160c08201359160e08101359161010082013591610120810135821691610140909101351662001db4565b34801562000a5457600080fd5b50620002f96004803603602081101562000a6d57600080fd5b50356001600160a01b031662001eec565b34801562000a8b57600080fd5b50620002f96004803603602081101562000aa457600080fd5b503562001f5f565b34801562000ab957600080fd5b50620002f96004803603604081101562000ad257600080fd5b508035906020013562001fd2565b34801562000aed57600080fd5b50620002f96004803603602081101562000b0657600080fd5b50356001600160a01b03166200209e565b34801562000b2457600080fd5b506200036b62002111565b34801562000b3c57600080fd5b5062000b666004803603602081101562000b5557600080fd5b50356001600160a01b031662002120565b604080519115158252519081900360200190f35b34801562000b8757600080fd5b50620002f96004803603602081101562000ba057600080fd5b50356001600160a01b031662002135565b34801562000bbe57600080fd5b506200036b62002240565b62000bd36200224f565b6001600160a01b031662000be662001a1e565b6001600160a01b03161462000c31576040805162461bcd60e51b8152602060048201819052602482015260008051602062003d39833981519152604482015290519081900360640190fd5b62000c3c8162002253565b50565b606c5481565b62000c4f6200224f565b6001600160a01b031662000c6262001a1e565b6001600160a01b03161462000cad576040805162461bcd60e51b8152602060048201819052602482015260008051602062003d39833981519152604482015290519081900360640190fd5b62000c3c816200228e565b6069546001600160a01b031681565b62000cd16200224f565b6001600160a01b031662000ce462001a1e565b6001600160a01b03161462000d2f576040805162461bcd60e51b8152602060048201819052602482015260008051602062003d39833981519152604482015290519081900360640190fd5b6040805180820182528381526020908101839052608084905560818390558151754e6f4f6652657061796d656e74496e74657276616c7360501b815282519081900360160181208582529181018490528251919260008051602062003d1983398151915292918290030190a25050565b606a546001600160a01b031681565b62000db86200224f565b6001600160a01b031662000dcb62001a1e565b6001600160a01b03161462000e16576040805162461bcd60e51b8152602060048201819052602482015260008051602062003d39833981519152604482015290519081900360640190fd5b62000c3c81620022c9565b6068546001600160a01b031681565b62000e3a6200224f565b6001600160a01b031662000e4d62001a1e565b6001600160a01b03161462000e98576040805162461bcd60e51b8152602060048201819052602482015260008051602062003d39833981519152604482015290519081900360640190fd5b62000c3c8162002304565b606d5481565b62000eb36200224f565b6001600160a01b031662000ec662001a1e565b6001600160a01b03161462000f11576040805162461bcd60e51b8152602060048201819052602482015260008051602062003d39833981519152604482015290519081900360640190fd5b6040805180820182528381526020908101839052607e849055607f83905581517014995c185e5b595b9d125b9d195c9d985b607a1b815282519081900360110181208582529181018490528251919260008051602062003d1983398151915292918290030190a25050565b62000f866200224f565b6001600160a01b031662000f9962001a1e565b6001600160a01b03161462000fe4576040805162461bcd60e51b8152602060048201819052602482015260008051602062003d39833981519152604482015290519081900360640190fd5b62000c3c816200234e565b62000ff96200224f565b6001600160a01b03166200100c62001a1e565b6001600160a01b03161462001057576040805162461bcd60e51b8152602060048201819052602482015260008051602062003d39833981519152604482015290519081900360640190fd5b62000c3c8162002398565b6200106c6200224f565b6001600160a01b03166200107f62001a1e565b6001600160a01b031614620010ca576040805162461bcd60e51b8152602060048201819052602482015260008051602062003d39833981519152604482015290519081900360640190fd5b62000c3c81620023ec565b620010df6200224f565b6001600160a01b0316620010f262001a1e565b6001600160a01b0316146200113d576040805162461bcd60e51b8152602060048201819052602482015260008051602062003d39833981519152604482015290519081900360640190fd5b62000c3c8162002436565b6066546001600160a01b031681565b60665460408051625a87b960e31b81523360048201526001600160a01b0380861660248301529151859392909216916302d43dc891604480820192602092909190829003018186803b158015620011ad57600080fd5b505afa158015620011c2573d6000803e3d6000fd5b505050506040513d6020811015620011d957600080fd5b5051620012185760405162461bcd60e51b815260040180806020018281038252604181526020018062003c0b6041913960600191505060405180910390fd5b6001600160a01b038b166200126757853414620012675760405162461bcd60e51b815260040180806020018281038252605281526020018062003dca6052913960600191505060405180910390fd5b8a6001600160a01b03168c6001600160a01b03161415620012ba5760405162461bcd60e51b815260040180806020018281038252604981526020018062003b266049913960600191505060405180910390fd5b6001600160a01b038c1660009081526075602052604090205460ff16620013135760405162461bcd60e51b815260040180806020018281038252603381526020018062003d976033913960400191505060405180910390fd5b6001600160a01b038b1660009081526076602052604090205460ff166200136c5760405162461bcd60e51b815260040180806020018281038252603781526020018062003e506037913960400191505060405180910390fd5b606a546040805163633defbd60e01b81526001600160a01b038e811660048301528f811660248301529151919092169163633defbd916044808301926020929190829003018186803b158015620013c257600080fd5b505afa158015620013d7573d6000803e3d6000fd5b505050506040513d6020811015620013ee57600080fd5b50516200142d5760405162461bcd60e51b815260040180806020018281038252603f81526020018062003bcc603f913960400191505060405180910390fd5b6067546040805163038defd760e01b81526001600160a01b038a811660048301529151919092169163038defd7916024808301926020929190829003018186803b1580156200147b57600080fd5b505afa15801562001490573d6000803e3d6000fd5b505050506040513d6020811015620014a757600080fd5b5051620014e65760405162461bcd60e51b815260040180806020018281038252602a81526020018062003cef602a913960400191505060405180910390fd5b620014fd8e6078600001546078600101546200248a565b6200153a5760405162461bcd60e51b815260040180806020018281038252603481526020018062003e1c6034913960400191505060405180910390fd5b607a54607b546200154d918c916200248a565b6200158a5760405162461bcd60e51b815260040180806020018281038252603c81526020018062003c4c603c913960400191505060405180910390fd5b607c54607d546200159d918f916200248a565b620015da5760405162461bcd60e51b815260040180806020018281038252603781526020018062003b956037913960400191505060405180910390fd5b608054608154620015ed918a916200248a565b6200162a5760405162461bcd60e51b815260040180806020018281038252603981526020018062003cb66039913960400191505060405180910390fd5b607e54607f546200163d918b916200248a565b6200167a5760405162461bcd60e51b815260040180806020018281038252603e81526020018062003d59603e913960400191505060405180910390fd5b620016908e8e8e8e8e8e8e8e8e8e8e8d620024e9565b5050505050505050505050505050565b60655464010000000090046001600160a01b031681565b620016c16200224f565b6001600160a01b0316620016d462001a1e565b6001600160a01b0316146200171f576040805162461bcd60e51b8152602060048201819052602482015260008051602062003d39833981519152604482015290519081900360640190fd5b62000c3c816200274d565b620017346200224f565b6001600160a01b03166200174762001a1e565b6001600160a01b03161462001792576040805162461bcd60e51b8152602060048201819052602482015260008051602062003d39833981519152604482015290519081900360640190fd5b62000c3c8162002797565b620017a76200224f565b6001600160a01b0316620017ba62001a1e565b6001600160a01b03161462001805576040805162461bcd60e51b8152602060048201819052602482015260008051602062003d39833981519152604482015290519081900360640190fd5b6033546040516000916001600160a01b0316907f8be0079c531659141344cd1fd0a4f28419497f9722a3daafe3b4186f6b6457e0908390a3603380546001600160a01b0319169055565b6073546074546001600160a01b03169091565b6200186c6200224f565b6001600160a01b03166200187f62001a1e565b6001600160a01b031614620018ca576040805162461bcd60e51b8152602060048201819052602482015260008051602062003d39833981519152604482015290519081900360640190fd5b620018d68282620027e1565b5050565b620018e46200224f565b6001600160a01b0316620018f762001a1e565b6001600160a01b03161462001942576040805162461bcd60e51b8152602060048201819052602482015260008051602062003d39833981519152604482015290519081900360640190fd5b604080518082018252838152602090810183905260788490556079839055815167506f6f6c53697a6560c01b815282519081900360080181208582529181018490528251919260008051602062003d1983398151915292918290030190a25050565b620019ae6200224f565b6001600160a01b0316620019c162001a1e565b6001600160a01b03161462001a0c576040805162461bcd60e51b8152602060048201819052602482015260008051602062003d39833981519152604482015290519081900360640190fd5b620018d6828262002841565b60715481565b600062001a2a620028a1565b905090565b606e5481565b60655460e01b81565b60705481565b62001a4e6200224f565b6001600160a01b031662001a6162001a1e565b6001600160a01b03161462001aac576040805162461bcd60e51b8152602060048201819052602482015260008051602062003d39833981519152604482015290519081900360640190fd5b62000c3c81620028b0565b62001ac16200224f565b6001600160a01b031662001ad462001a1e565b6001600160a01b03161462001b1f576040805162461bcd60e51b8152602060048201819052602482015260008051602062003d39833981519152604482015290519081900360640190fd5b6040805180820182528381526020908101839052607a849055607b83905581516e436f6c6c61746572616c526174696f60881b8152825190819003600f0181208582529181018490528251919260008051602062003d1983398151915292918290030190a25050565b62001b926200224f565b6001600160a01b031662001ba562001a1e565b6001600160a01b03161462001bf0576040805162461bcd60e51b8152602060048201819052602482015260008051602062003d39833981519152604482015290519081900360640190fd5b62000c3c81620028eb565b62001c056200224f565b6001600160a01b031662001c1862001a1e565b6001600160a01b03161462001c63576040805162461bcd60e51b8152602060048201819052602482015260008051602062003d39833981519152604482015290519081900360640190fd5b62000c3c816200293f565b606f5481565b62001c7e6200224f565b6001600160a01b031662001c9162001a1e565b6001600160a01b03161462001cdc576040805162461bcd60e51b8152602060048201819052602482015260008051602062003d39833981519152604482015290519081900360640190fd5b62000c3c816200297a565b62001cf16200224f565b6001600160a01b031662001d0462001a1e565b6001600160a01b03161462001d4f576040805162461bcd60e51b8152602060048201819052602482015260008051602062003d39833981519152604482015290519081900360640190fd5b62001d5a87620029b5565b62001d65866200274d565b62001d708262002797565b62001d7b8162002a0d565b62001d868562002304565b62001d91846200234e565b62001d9c83620023ec565b50505050505050565b6067546001600160a01b031681565b600054610100900460ff168062001dd0575062001dd062002a57565b8062001ddf575060005460ff16155b62001e1c5760405162461bcd60e51b815260040180806020018281038252602e81526020018062003c88602e913960400191505060405180910390fd5b600054610100900460ff1615801562001e48576000805460ff1961ff0019909116610100171660011790555b62001e5262002a6a565b62001e5d8c62002135565b62001e688b620022c9565b62001e738a62002253565b62001e7e896200297a565b62001e8988620028eb565b62001e94876200228e565b62001e9f866200293f565b62001eaa85620028b0565b62001eb58462002b27565b62001ec08362002436565b62001ecb8262002398565b801562001ede576000805461ff00191690555b505050505050505050505050565b62001ef66200224f565b6001600160a01b031662001f0962001a1e565b6001600160a01b03161462001f54576040805162461bcd60e51b8152602060048201819052602482015260008051602062003d39833981519152604482015290519081900360640190fd5b62000c3c81620029b5565b62001f696200224f565b6001600160a01b031662001f7c62001a1e565b6001600160a01b03161462001fc7576040805162461bcd60e51b8152602060048201819052602482015260008051602062003d39833981519152604482015290519081900360640190fd5b62000c3c8162002b27565b62001fdc6200224f565b6001600160a01b031662001fef62001a1e565b6001600160a01b0316146200203a576040805162461bcd60e51b8152602060048201819052602482015260008051602062003d39833981519152604482015290519081900360640190fd5b6040805180820182528381526020908101839052607c849055607d839055815169426f72726f775261746560b01b8152825190819003600a0181208582529181018490528251919260008051602062003d1983398151915292918290030190a25050565b620020a86200224f565b6001600160a01b0316620020bb62001a1e565b6001600160a01b03161462002106576040805162461bcd60e51b8152602060048201819052602482015260008051602062003d39833981519152604482015290519081900360640190fd5b62000c3c8162002a0d565b606b546001600160a01b031681565b60776020526000908152604090205460ff1681565b6200213f6200224f565b6001600160a01b03166200215262001a1e565b6001600160a01b0316146200219d576040805162461bcd60e51b8152602060048201819052602482015260008051602062003d39833981519152604482015290519081900360640190fd5b6001600160a01b038116620021e45760405162461bcd60e51b815260040180806020018281038252602681526020018062003b6f6026913960400191505060405180910390fd5b6033546040516001600160a01b038084169216907f8be0079c531659141344cd1fd0a4f28419497f9722a3daafe3b4186f6b6457e090600090a3603380546001600160a01b0319166001600160a01b0392909216919091179055565b6072546001600160a01b031681565b3390565b606d8190556040805182815290517fd6a9356dd756296ce3cba8ba26397e758b2901383e69042b3aa9749cb42660df9181900360200190a150565b60708190556040805182815290517ffc9f5adb3ea0a0ee669d6b5200334f3bb22968c6e7b2eedf0e5819182319c5229181900360200190a150565b606c8190556040805182815290517f51aa68fcf65b26bbc5a9db0b5933c71c642bc16e263e1d8c9b018a3b951a2cda9181900360200190a150565b606680546001600160a01b0319166001600160a01b0383169081179091556040517fed714fbe17e15258cc6c9677fcfc9b57807561d3c4ff5c776fd00508f9dc53b990600090a250565b606780546001600160a01b0319166001600160a01b0383169081179091556040517f0ae0dc70cd51233fb6650002520dcd7be97d65702ded4fbd4fc907773269358890600090a250565b607280546001600160a01b0383166001600160a01b0319909116811790915560408051918252517f5c20b3f1e74533e6e7806bcc88a942b6ed5b52427a621d9e63197f82c88e431c9181900360200190a150565b606a80546001600160a01b0319166001600160a01b0383169081179091556040517fefe8ab924ca486283a79dc604baa67add51afb82af1db8ac386ebbba643cdffd90600090a250565b607480546001600160a01b0383166001600160a01b0319909116811790915560408051918252517f33837f672315b6cffcf11894714abfdec631a913c18d7738fcaf40c444376fb69181900360200190a150565b600082158015906200249b57508115155b15620024ba57828410158015620024b25750818411155b9050620024e2565b8215620024cc575081831015620024e2565b8115620024de575080831115620024e2565b5060015b9392505050565b6000620025008d8d8d8d8d8d8d8d8d8d8c62002b62565b6040805160208082018790523360601b82840152825160348184030181526054830193849052805191012092935060009190620025409060740162002e95565b601f1982820381018352601f9091011660408181526065546001600160a01b036401000000009091041660208381018281526001938501849052606080860190815289516080870152895193958a949293919260a09091019185019080838360005b83811015620025bc578181015183820152602001620025a2565b50505050905090810190601f168015620025ea5780820380516001836020036101000a031916815260200191505b509450505050506040516020818303038152906040526040516020018083805190602001908083835b60208310620026345780518252601f19909201916020918201910162002613565b51815160209384036101000a600019018019909216911617905285519190930192850191508083835b602083106200267e5780518252601f1990920191602091820191016200265d565b6001836020036101000a0380198251168184511680821785525050505050509050019250505060405160208183030381529060405290506000806001600160a01b03168d6001600160a01b031614620026d9576000620026db565b875b90506000620026ec82858562002c23565b6001600160a01b038116600081815260776020526040808220805460ff191660011790555192935033927f4f2ce4e40f623ca765fc0167a25cb7842ceaafb8d82d3dec26ca0d0e0d2d48969190a35050505050505050505050505050505050565b606980546001600160a01b0319166001600160a01b0383169081179091556040517fc5d97bee24802645337b82f06929eb7187d3e96d3abfde102b4b5d316c1b981390600090a250565b606b80546001600160a01b0319166001600160a01b0383169081179091556040517f5e8a3d56d9512a62f643367551a65727148c2516dce6b54956df80926dd2536c90600090a250565b6001600160a01b038216600081815260756020908152604091829020805460ff1916851515908117909155825190815291517fa6c7f9eef436525b9c658fcc90c25e3f399534d7f6654a4204f89690117ec26e9281900390910190a25050565b6001600160a01b038216600081815260766020908152604091829020805460ff1916851515908117909155825190815291517fa8465fce7714e145603abc61f76c96665912ca5d2f9b7dd67f27349d83294d629281900390910190a25050565b6033546001600160a01b031690565b606f8190556040805182815290517fab19dd83cf2702c5ea79dac2821419054aadccdd02bc909d34abca761dbcf46f9181900360200190a150565b6065805463ffffffff191660e083901c179055604080516001600160e01b03198316815290517fbeee152d2a9de9377f4b5c9385c813ffac47b3bac8f9fc5057902b1f032ea413916020908290030190a150565b60718190556040805182815290517f1d0216b43ffe9f782ea6ef5f36e1ab315d377139f1ca6cce36410a731da927d39181900360200190a150565b606e8190556040805182815290517f1e85e6efe46a52b040a7311c9f1e10e4fcda6cae6b435437cb19b633e2e655449181900360200190a150565b60658054640100000000600160c01b0319166401000000006001600160a01b038416908102919091179091556040517f8ee0ac431aa1f635687a8e5d2d1c00dc66d43e9d5d9f587748a563030cbdfc0190600090a250565b606880546001600160a01b0319166001600160a01b0383169081179091556040517f48951af222000a326b404ddb507e4909d14517d79d2a5f9eb4e220c5c8f56eb790600090a250565b600062002a643062002ce4565b15905090565b600054610100900460ff168062002a86575062002a8662002a57565b8062002a95575060005460ff16155b62002ad25760405162461bcd60e51b815260040180806020018281038252602e81526020018062003c88602e913960400191505060405180910390fd5b600054610100900460ff1615801562002afe576000805460ff1961ff0019909116610100171660011790555b62002b0862002cea565b62002b1262002d92565b801562000c3c576000805461ff001916905550565b60738190556040805182815290517fcfd641dab5b2592643d4b878bf2b771142aff4595263753dc7611f947749999d9181900360200190a150565b606554606d54606c5460408051602481019f909f5260448f019d909d523360648f01526001600160a01b039b8c1660848f0152998b1660a48e015260c48d019890985260e48c01969096526101048b01949094529187166101248a015261014489015215156101648801529093166101848601526101a48501526101c480850191909152825180850390910181526101e490930190915260208201805160e09290921b6001600160e01b0319166001600160e01b0390921691909117905290565b600081516000141562002c7d576040805162461bcd60e51b815260206004820181905260248201527f437265617465323a2062797465636f6465206c656e677468206973207a65726f604482015290519081900360640190fd5b8282516020840186f590506001600160a01b038116620024e2576040805162461bcd60e51b815260206004820152601960248201527f437265617465323a204661696c6564206f6e206465706c6f7900000000000000604482015290519081900360640190fd5b3b151590565b600054610100900460ff168062002d06575062002d0662002a57565b8062002d15575060005460ff16155b62002d525760405162461bcd60e51b815260040180806020018281038252602e81526020018062003c88602e913960400191505060405180910390fd5b600054610100900460ff1615801562002b12576000805460ff1961ff001990911661010017166001179055801562000c3c576000805461ff001916905550565b600054610100900460ff168062002dae575062002dae62002a57565b8062002dbd575060005460ff16155b62002dfa5760405162461bcd60e51b815260040180806020018281038252602e81526020018062003c88602e913960400191505060405180910390fd5b600054610100900460ff1615801562002e26576000805460ff1961ff0019909116610100171660011790555b600062002e326200224f565b603380546001600160a01b0319166001600160a01b038316908117909155604051919250906000907f8be0079c531659141344cd1fd0a4f28419497f9722a3daafe3b4186f6b6457e0908290a350801562000c3c576000805461ff001916905550565b610c828062002ea48339019056fe608060405260405162000c8238038062000c82833981810160405260608110156200002957600080fd5b815160208301516040808501805191519395929483019291846401000000008211156200005557600080fd5b9083019060208201858111156200006b57600080fd5b82516401000000008111828201881017156200008657600080fd5b82525081516020918201929091019080838360005b83811015620000b55781810151838201526020016200009b565b50505050905090810190601f168015620000e35780820380516001836020036101000a031916815260200191505b5060405250849150839050828281620000fc826200013d565b8051156200011d576200011b8282620001b460201b620003841760201c565b505b50620001269050565b6200013182620001e3565b505050505050620003c4565b62000153816200020760201b620003b01760201c565b620001905760405162461bcd60e51b815260040180806020018281038252603681526020018062000c266036913960400191505060405180910390fd5b7f360894a13ba1a3210667c828492db98dca3e2076cc3735a920a3ca505d382bbc55565b6060620001dc838360405180606001604052806027815260200162000bff602791396200020d565b9392505050565b7fb53127684a568b3173ae13b9f8a6016e243e63b6e8ee1178d6a717850b5d610355565b3b151590565b60606200021a8462000207565b620002575760405162461bcd60e51b815260040180806020018281038252602681526020018062000c5c6026913960400191505060405180910390fd5b600080856001600160a01b0316856040518082805190602001908083835b60208310620002965780518252601f19909201916020918201910162000275565b6001836020036101000a038019825116818451168082178552505050505050905001915050600060405180830381855af49150503d8060008114620002f8576040519150601f19603f3d011682016040523d82523d6000602084013e620002fd565b606091505b509092509050620003108282866200031a565b9695505050505050565b606083156200032b575081620001dc565b8251156200033c5782518084602001fd5b8160405162461bcd60e51b81526004018080602001828103825283818151815260200191508051906020019080838360005b83811015620003885781810151838201526020016200036e565b50505050905090810190601f168015620003b65780820380516001836020036101000a031916815260200191505b509250505060405180910390fd5b61082b80620003d46000396000f3fe60806040526004361061004e5760003560e01c80633659cfe6146100655780634f1ef286146100985780635c60da1b146101185780638f28397014610149578063f851a4401461017c5761005d565b3661005d5761005b610191565b005b61005b610191565b34801561007157600080fd5b5061005b6004803603602081101561008857600080fd5b50356001600160a01b03166101ab565b61005b600480360360408110156100ae57600080fd5b6001600160a01b0382351691908101906040810160208201356401000000008111156100d957600080fd5b8201836020820111156100eb57600080fd5b8035906020019184600183028401116401000000008311171561010d57600080fd5b5090925090506101e5565b34801561012457600080fd5b5061012d610262565b604080516001600160a01b039092168252519081900360200190f35b34801561015557600080fd5b5061005b6004803603602081101561016c57600080fd5b50356001600160a01b031661029f565b34801561018857600080fd5b5061012d610359565b6101996103b6565b6101a96101a4610416565b61043b565b565b6101b361045f565b6001600160a01b0316336001600160a01b031614156101da576101d581610484565b6101e2565b6101e2610191565b50565b6101ed61045f565b6001600160a01b0316336001600160a01b031614156102555761020f83610484565b61024f8383838080601f01602080910402602001604051908101604052809392919081815260200183838082843760009201919091525061038492505050565b5061025d565b61025d610191565b505050565b600061026c61045f565b6001600160a01b0316336001600160a01b031614156102945761028d610416565b905061029c565b61029c610191565b90565b6102a761045f565b6001600160a01b0316336001600160a01b031614156101da576001600160a01b0381166103055760405162461bcd60e51b815260040180806020018281038252603a8152602001806106f7603a913960400191505060405180910390fd5b7f7e644d79422f17c01e4894b5f4f588d331ebfa28653d42ae832dc59e38c9798f61032e61045f565b604080516001600160a01b03928316815291841660208301528051918290030190a16101d5816104c4565b600061036361045f565b6001600160a01b0316336001600160a01b031614156102945761028d61045f565b60606103a98383604051806060016040528060278152602001610731602791396104e8565b9392505050565b3b151590565b6103be61045f565b6001600160a01b0316336001600160a01b0316141561040e5760405162461bcd60e51b81526004018080602001828103825260428152602001806107b46042913960600191505060405180910390fd5b6101a96101a9565b7f360894a13ba1a3210667c828492db98dca3e2076cc3735a920a3ca505d382bbc5490565b3660008037600080366000845af43d6000803e80801561045a573d6000f35b3d6000fd5b7fb53127684a568b3173ae13b9f8a6016e243e63b6e8ee1178d6a717850b5d61035490565b61048d816105ea565b6040516001600160a01b038216907fbc7cd75a20ee27fd9adebab32041f755214dbc6bffa90cc0225b39da2e5c2d3b90600090a250565b7fb53127684a568b3173ae13b9f8a6016e243e63b6e8ee1178d6a717850b5d610355565b60606104f3846103b0565b61052e5760405162461bcd60e51b815260040180806020018281038252602681526020018061078e6026913960400191505060405180910390fd5b600080856001600160a01b0316856040518082805190602001908083835b6020831061056b5780518252601f19909201916020918201910161054c565b6001836020036101000a038019825116818451168082178552505050505050905001915050600060405180830381855af49150503d80600081146105cb576040519150601f19603f3d011682016040523d82523d6000602084013e6105d0565b606091505b50915091506105e0828286610652565b9695505050505050565b6105f3816103b0565b61062e5760405162461bcd60e51b81526004018080602001828103825260368152602001806107586036913960400191505060405180910390fd5b7f360894a13ba1a3210667c828492db98dca3e2076cc3735a920a3ca505d382bbc55565b606083156106615750816103a9565b8251156106715782518084602001fd5b8160405162461bcd60e51b81526004018080602001828103825283818151815260200191508051906020019080838360005b838110156106bb5781810151838201526020016106a3565b50505050905090810190601f1680156106e85780820380516001836020036101000a031916815260200191505b509250505060405180910390fdfe5472616e73706172656e745570677261646561626c6550726f78793a206e65772061646d696e20697320746865207a65726f2061646472657373416464726573733a206c6f772d6c6576656c2064656c65676174652063616c6c206661696c65645570677261646561626c6550726f78793a206e657720696d706c656d656e746174696f6e206973206e6f74206120636f6e7472616374416464726573733a2064656c65676174652063616c6c20746f206e6f6e2d636f6e74726163745472616e73706172656e745570677261646561626c6550726f78793a2061646d696e2063616e6e6f742066616c6c6261636b20746f2070726f787920746172676574a2646970667358221220a2853c5938b3c30b98e0f9a2c0581db87e631829392e8db89000e630200e0e1664736f6c63430007060033416464726573733a206c6f772d6c6576656c2064656c65676174652063616c6c206661696c65645570677261646561626c6550726f78793a206e657720696d706c656d656e746174696f6e206973206e6f74206120636f6e7472616374416464726573733a2064656c65676174652063616c6c20746f206e6f6e2d636f6e7472616374506f6f6c466163746f72793a3a637265617465506f6f6c202d2063616e7420626f72726f77207468652061737365742070757420696e20617320636f6c6c61746572616c546f6b656e4f776e61626c653a206e6577206f776e657220697320746865207a65726f2061646472657373506f6f6c466163746f72793a3a637265617465506f6f6c202d20426f72726f772072617465206e6f742077697468696e206c696d697473506f6f6c466163746f72793a3a637265617465506f6f6c202d205072696365206665656420646f65736e277420737570706f727420746f6b656e2070616972506f6f6c466163746f72793a3a6f6e6c79426f72726f776572202d204f6e6c7920612076616c696420426f72726f7765722063616e2063726561746520506f6f6c506f6f6c466163746f72793a3a637265617465506f6f6c202d20436f6c6c61746572616c20526174696f206e6f742077697468696e206c696d697473496e697469616c697a61626c653a20636f6e747261637420697320616c726561647920696e697469616c697a6564506f6f6c466163746f72793a3a637265617465506f6f6c202d204c6f616e206475726174696f6e206e6f742077697468696e206c696d697473506f6f6c466163746f72793a3a637265617465506f6f6c202d20496e76616c6964207374726174656779e9da20d631ef06f93c14c03acd9bc8f22141e6fce63b1066f76c903adb73ea404f776e61626c653a2063616c6c6572206973206e6f7420746865206f776e6572506f6f6c466163746f72793a3a637265617465506f6f6c202d2052657061796d656e7420696e74657276616c206e6f742077697468696e206c696d697473506f6f6c466163746f72793a3a637265617465506f6f6c202d20496e76616c696420626f72726f7720746f6b656e2074797065506f6f6c466163746f72793a3a637265617465506f6f6c202d2045746865722073656e6420697320646966666572656e742066726f6d20636f6c6c61746572616c20616d6f756e7420737065636966696564506f6f6c466163746f72793a3a637265617465506f6f6c202d20506f6f6c53697a65206e6f742077697468696e206c696d697473506f6f6c466163746f72793a3a637265617465506f6f6c202d20496e76616c696420636f6c6c61746572616c20746f6b656e2074797065a26469706673582212207ac1f4c43d4cb7546e23c83a43b6095a0693a511c6df749b6944bef91216176464736f6c63430007060033",
  "linkReferences": {},
  "deployedLinkReferences": {}
}