{
  "_format": "hh-sol-artifact-1",
  "contractName": "ExtraRewardsDistributor",
  "sourceName": "contracts/ExtraRewardsDistributor.sol",
  "abi": [
    {
      "inputs": [
        {
          "internalType": "address",
          "name": "_auraLocker",
          "type": "address"
        }
      ],
      "stateMutability": "nonpayable",
      "type": "constructor"
    },
    {
      "anonymous": false,
      "inputs": [
        {
          "indexed": true,
          "internalType": "address",
          "name": "token",
          "type": "address"
        },
        {
          "indexed": true,
          "internalType": "uint256",
          "name": "epoch",
          "type": "uint256"
        },
        {
          "indexed": false,
          "internalType": "uint256",
          "name": "reward",
          "type": "uint256"
        }
      ],
      "name": "RewardAdded",
      "type": "event"
    },
    {
      "anonymous": false,
      "inputs": [
        {
          "indexed": true,
          "internalType": "address",
          "name": "user",
          "type": "address"
        },
        {
          "indexed": true,
          "internalType": "address",
          "name": "token",
          "type": "address"
        },
        {
          "indexed": false,
          "internalType": "uint256",
          "name": "index",
          "type": "uint256"
        }
      ],
      "name": "RewardForfeited",
      "type": "event"
    },
    {
      "anonymous": false,
      "inputs": [
        {
          "indexed": true,
          "internalType": "address",
          "name": "user",
          "type": "address"
        },
        {
          "indexed": true,
          "internalType": "address",
          "name": "token",
          "type": "address"
        },
        {
          "indexed": false,
          "internalType": "uint256",
          "name": "reward",
          "type": "uint256"
        },
        {
          "indexed": false,
          "internalType": "uint256",
          "name": "index",
          "type": "uint256"
        }
      ],
      "name": "RewardPaid",
      "type": "event"
    },
    {
      "inputs": [
        {
          "internalType": "address",
          "name": "_account",
          "type": "address"
        },
        {
          "internalType": "address",
          "name": "_token",
          "type": "address"
        },
        {
          "internalType": "uint256",
          "name": "_startIndex",
          "type": "uint256"
        }
      ],
      "name": "_getReward",
      "outputs": [],
      "stateMutability": "nonpayable",
      "type": "function"
    },
    {
      "inputs": [
        {
          "internalType": "address",
          "name": "_token",
          "type": "address"
        },
        {
          "internalType": "uint256",
          "name": "_amount",
          "type": "uint256"
        }
      ],
      "name": "addReward",
      "outputs": [],
      "stateMutability": "nonpayable",
      "type": "function"
    },
    {
      "inputs": [
        {
          "internalType": "address",
          "name": "_token",
          "type": "address"
        },
        {
          "internalType": "uint256",
          "name": "_amount",
          "type": "uint256"
        },
        {
          "internalType": "uint256",
          "name": "_epoch",
          "type": "uint256"
        }
      ],
      "name": "addRewardToEpoch",
      "outputs": [],
      "stateMutability": "nonpayable",
      "type": "function"
    },
    {
      "inputs": [],
      "name": "auraLocker",
      "outputs": [
        {
          "internalType": "contract IAuraLocker",
          "name": "",
          "type": "address"
        }
      ],
      "stateMutability": "view",
      "type": "function"
    },
    {
      "inputs": [
        {
          "internalType": "address",
          "name": "_account",
          "type": "address"
        },
        {
          "internalType": "address",
          "name": "_token",
          "type": "address"
        }
      ],
      "name": "claimableRewards",
      "outputs": [
        {
          "internalType": "uint256",
          "name": "",
          "type": "uint256"
        }
      ],
      "stateMutability": "view",
      "type": "function"
    },
    {
      "inputs": [
        {
          "internalType": "address",
          "name": "_account",
          "type": "address"
        },
        {
          "internalType": "address",
          "name": "_token",
          "type": "address"
        },
        {
          "internalType": "uint256",
          "name": "_epoch",
          "type": "uint256"
        }
      ],
      "name": "claimableRewardsAtEpoch",
      "outputs": [
        {
          "internalType": "uint256",
          "name": "",
          "type": "uint256"
        }
      ],
      "stateMutability": "view",
      "type": "function"
    },
    {
      "inputs": [
        {
          "internalType": "address",
          "name": "_token",
          "type": "address"
        },
        {
          "internalType": "uint256",
          "name": "_index",
          "type": "uint256"
        }
      ],
      "name": "forfeitRewards",
      "outputs": [],
      "stateMutability": "nonpayable",
      "type": "function"
    },
    {
      "inputs": [
        {
          "internalType": "address",
          "name": "_account",
          "type": "address"
        },
        {
          "internalType": "address",
          "name": "_token",
          "type": "address"
        },
        {
          "internalType": "uint256",
          "name": "_startIndex",
          "type": "uint256"
        }
      ],
      "name": "getReward",
      "outputs": [],
      "stateMutability": "nonpayable",
      "type": "function"
    },
    {
      "inputs": [
        {
          "internalType": "address",
          "name": "_account",
          "type": "address"
        },
        {
          "internalType": "address",
          "name": "_token",
          "type": "address"
        }
      ],
      "name": "getReward",
      "outputs": [],
      "stateMutability": "nonpayable",
      "type": "function"
    },
    {
      "inputs": [
        {
          "internalType": "address",
          "name": "",
          "type": "address"
        },
        {
          "internalType": "uint256",
          "name": "",
          "type": "uint256"
        }
      ],
      "name": "rewardData",
      "outputs": [
        {
          "internalType": "uint256",
          "name": "",
          "type": "uint256"
        }
      ],
      "stateMutability": "view",
      "type": "function"
    },
    {
      "inputs": [
        {
          "internalType": "address",
          "name": "",
          "type": "address"
        },
        {
          "internalType": "uint256",
          "name": "",
          "type": "uint256"
        }
      ],
      "name": "rewardEpochs",
      "outputs": [
        {
          "internalType": "uint256",
          "name": "",
          "type": "uint256"
        }
      ],
      "stateMutability": "view",
      "type": "function"
    },
    {
      "inputs": [
        {
          "internalType": "address",
          "name": "_token",
          "type": "address"
        }
      ],
      "name": "rewardEpochsCount",
      "outputs": [
        {
          "internalType": "uint256",
          "name": "",
          "type": "uint256"
        }
      ],
      "stateMutability": "view",
      "type": "function"
    },
    {
      "inputs": [
        {
          "internalType": "address",
          "name": "",
          "type": "address"
        },
        {
          "internalType": "address",
          "name": "",
          "type": "address"
        }
      ],
      "name": "userClaims",
      "outputs": [
        {
          "internalType": "uint256",
          "name": "",
          "type": "uint256"
        }
      ],
      "stateMutability": "view",
      "type": "function"
    }
  ],
  "bytecode": "0x60a060405234801561001057600080fd5b5060405161130d38038061130d83398101604081905261002f91610045565b60016000556001600160a01b0316608052610075565b60006020828403121561005757600080fd5b81516001600160a01b038116811461006e57600080fd5b9392505050565b60805161124c6100c160003960008181610228015281816103ce015281816104450152818161067d015281816106f4015281816108bd01528181610a9f0152610b62015261124c6000f3fe608060405234801561001057600080fd5b50600436106100df5760003560e01c806361544f601161008c5780639feb8f50116100665780639feb8f50146101d4578063b5fe175c146101e7578063d527f4b9146101fa578063d66144871461022357600080fd5b806361544f601461019b5780636b091695146101ae5780636be9dcce146101c157600080fd5b806338174862116100bd5780633817486214610132578063408ad08b1461015d5780634e06b6e81461018857600080fd5b8063221edb3b146100e457806329919002146100f95780632fae1e141461010c575b600080fd5b6100f76100f2366004610feb565b610262565b005b6100f7610107366004611015565b6103cc565b61011f61011a366004611048565b6105fb565b6040519081526020015b60405180910390f35b61011f610140366004610feb565b600160209081526000928352604080842090915290825290205481565b61011f61016b366004611084565b600360209081526000928352604080842090915290825290205481565b6100f7610196366004611048565b610612565b61011f6101a9366004610feb565b610622565b6100f76101bc366004611084565b610653565b61011f6101cf366004611084565b610663565b6100f76101e2366004610feb565b61067b565b6100f76101f5366004611048565b61078b565b61011f6102083660046110b7565b6001600160a01b031660009081526002602052604090205490565b61024a7f000000000000000000000000000000000000000000000000000000000000000081565b6040516001600160a01b039091168152602001610129565b60008111801561029557506001600160a01b038216600090815260026020526040902054610292906001906110e8565b81105b6102e65760405162461bcd60e51b815260206004820152600560248201527f217061737400000000000000000000000000000000000000000000000000000060448201526064015b60405180910390fd5b6001600160a01b03821660009081526003602090815260408083203384529091529020548110156103595760405162461bcd60e51b815260206004820152600f60248201527f616c726561647920636c61696d6564000000000000000000000000000000000060448201526064016102dd565b6103648160016110ff565b6001600160a01b03831660008181526003602090815260408083203380855292529182902093909355519091907fdeef6364f7ce8c2fc21e3df048b8f1b79714f67289c433ad888cd76cc1267f9f906103c09085815260200190565b60405180910390a35050565b7f00000000000000000000000000000000000000000000000000000000000000006001600160a01b031663c1009f4b6040518163ffffffff1660e01b8152600401600060405180830381600087803b15801561042757600080fd5b505af115801561043b573d6000803e3d6000fd5b50505050600060017f00000000000000000000000000000000000000000000000000000000000000006001600160a01b031663829965cc6040518163ffffffff1660e01b8152600401602060405180830381865afa1580156104a1573d6000803e3d6000fd5b505050506040513d601f19601f820116820180604052508101906104c59190611117565b6104cf91906110e8565b9050808211156105215760405162461bcd60e51b815260206004820152601b60248201527f43616e6e6f742061737369676e20746f2074686520667574757265000000000060448201526064016102dd565b8082141561053957610534848483610837565b6105f5565b6001600160a01b03841660009081526002602052604090205480158061059c57506001600160a01b0385166000908152600260205260409020839061057f6001846110e8565b8154811061058f5761058f611130565b9060005260206000200154105b6105e85760405162461bcd60e51b815260206004820152601d60248201527f43616e6e6f74206261636b6461746520746f20746869732065706f636800000060448201526064016102dd565b6105f3858585610837565b505b50505050565b6000610608848484610a74565b90505b9392505050565b61061d83838361078b565b505050565b6002602052816000526040600020818154811061063e57600080fd5b90600052602060002001600091509150505481565b61065f8282600061078b565b5050565b60008061067284846000610b59565b50949350505050565b7f00000000000000000000000000000000000000000000000000000000000000006001600160a01b031663c1009f4b6040518163ffffffff1660e01b8152600401600060405180830381600087803b1580156106d657600080fd5b505af11580156106ea573d6000803e3d6000fd5b50505050600060017f00000000000000000000000000000000000000000000000000000000000000006001600160a01b031663829965cc6040518163ffffffff1660e01b8152600401602060405180830381865afa158015610750573d6000803e3d6000fd5b505050506040513d601f19601f820116820180604052508101906107749190611117565b61077e91906110e8565b905061061d838383610837565b600080610799858585610b59565b909250905081156105f3576001600160a01b038085166000818152600360209081526040808320948a168352939052919091208290556107da908684610d17565b836001600160a01b0316856001600160a01b03167ff3d804b61a64faf0efebbb149ce09c7269a116f5d28dd046d4a848bcf36049c38484604051610828929190918252602082015260400190565b60405180910390a35050505050565b6002600054141561088a5760405162461bcd60e51b815260206004820152601f60248201527f5265656e7472616e637947756172643a207265656e7472616e742063616c6c0060448201526064016102dd565b60026000556108a46001600160a01b038416333085610da7565b6040516370b36d7960e01b8152600481018290526000907f00000000000000000000000000000000000000000000000000000000000000006001600160a01b0316906370b36d7990602401602060405180830381865afa15801561090c573d6000803e3d6000fd5b505050506040513d601f19601f820116820180604052508101906109309190611117565b90506000816109488568056bc75e2d63100000611146565b6109529190611165565b6001600160a01b038616600090815260016020908152604080832087845290915281208054929350839290919061098a9084906110ff565b90915550506001600160a01b0385166000908152600260205260409020548015806109f257506001600160a01b038616600090815260026020526040902084906109d56001846110e8565b815481106109e5576109e5611130565b9060005260206000200154105b15610a23576001600160a01b0386166000908152600260209081526040822080546001810182559083529120018490555b83866001600160a01b03167f6a6f77044107a33658235d41bedbbaf2fe9ccdceb313143c947a5e76e1ec847487604051610a5f91815260200190565b60405180910390a35050600160005550505050565b604051631c60739560e01b8152600481018290526001600160a01b03848116602483015260009182917f00000000000000000000000000000000000000000000000000000000000000001690631c60739590604401602060405180830381865afa158015610ae6573d6000803e3d6000fd5b505050506040513d601f19601f82011682018060405250810190610b0a9190611117565b6001600160a01b038516600090815260016020908152604080832087845290915290205490915068056bc75e2d6310000090610b469083611146565b610b509190611165565b95945050505050565b600080600060017f00000000000000000000000000000000000000000000000000000000000000006001600160a01b031663829965cc6040518163ffffffff1660e01b8152600401602060405180830381865afa158015610bbe573d6000803e3d6000fd5b505050506040513d601f19601f82011682018060405250810190610be29190611117565b610bec91906110e8565b6001600160a01b0380871660009081526002602090815260408083205460038352818420948c1684529390915290205491925090808611610c2d5780610c2f565b855b9050818110610c465750600093509150610d0f9050565b6000815b83811015610d07576001600160a01b0389166000908152600260205260409020805486919083908110610c7f57610c7f611130565b90600052602060002001541015610cf557610cdb8a8a600260008d6001600160a01b03166001600160a01b031681526020019081526020016000208481548110610ccb57610ccb611130565b9060005260206000200154610a74565b610ce590836110ff565b9150610cf28160016110ff565b92505b80610cff81611187565b915050610c4a565b509450925050505b935093915050565b6040516001600160a01b03831660248201526044810182905261061d90849063a9059cbb60e01b906064015b60408051601f198184030181529190526020810180517bffffffffffffffffffffffffffffffffffffffffffffffffffffffff167fffffffff0000000000000000000000000000000000000000000000000000000090931692909217909152610ddf565b6040516001600160a01b03808516602483015283166044820152606481018290526105f59085906323b872dd60e01b90608401610d43565b6000610e34826040518060400160405280602081526020017f5361666545524332303a206c6f772d6c6576656c2063616c6c206661696c6564815250856001600160a01b0316610ec49092919063ffffffff16565b80519091501561061d5780806020019051810190610e5291906111a2565b61061d5760405162461bcd60e51b815260206004820152602a60248201527f5361666545524332303a204552433230206f7065726174696f6e20646964206e60448201527f6f7420737563636565640000000000000000000000000000000000000000000060648201526084016102dd565b6060610608848460008585843b610f1d5760405162461bcd60e51b815260206004820152601d60248201527f416464726573733a2063616c6c20746f206e6f6e2d636f6e747261637400000060448201526064016102dd565b600080866001600160a01b03168587604051610f3991906111f0565b60006040518083038185875af1925050503d8060008114610f76576040519150601f19603f3d011682016040523d82523d6000602084013e610f7b565b606091505b5091509150610f8b828286610f96565b979650505050505050565b60608315610fa557508161060b565b825115610fb55782518084602001fd5b8160405162461bcd60e51b81526004016102dd919061120c565b80356001600160a01b0381168114610fe657600080fd5b919050565b60008060408385031215610ffe57600080fd5b61100783610fcf565b946020939093013593505050565b60008060006060848603121561102a57600080fd5b61103384610fcf565b95602085013595506040909401359392505050565b60008060006060848603121561105d57600080fd5b61106684610fcf565b925061107460208501610fcf565b9150604084013590509250925092565b6000806040838503121561109757600080fd5b6110a083610fcf565b91506110ae60208401610fcf565b90509250929050565b6000602082840312156110c957600080fd5b61060b82610fcf565b634e487b7160e01b600052601160045260246000fd5b6000828210156110fa576110fa6110d2565b500390565b60008219821115611112576111126110d2565b500190565b60006020828403121561112957600080fd5b5051919050565b634e487b7160e01b600052603260045260246000fd5b6000816000190483118215151615611160576111606110d2565b500290565b60008261118257634e487b7160e01b600052601260045260246000fd5b500490565b600060001982141561119b5761119b6110d2565b5060010190565b6000602082840312156111b457600080fd5b8151801515811461060b57600080fd5b60005b838110156111df5781810151838201526020016111c7565b838111156105f55750506000910152565b600082516112028184602087016111c4565b9190910192915050565b602081526000825180602084015261122b8160408501602087016111c4565b601f01601f1916919091016040019291505056fea164736f6c634300080b000a",
  "linkReferences": {},
  "deployedLinkReferences": {}
}