{
  "_format": "hh-sol-artifact-1",
  "contractName": "PrizeSplitHarness",
  "sourceName": "contracts/test/PrizeSplitHarness.sol",
  "abi": [
    {
      "inputs": [
        {
          "internalType": "address",
          "name": "_owner",
          "type": "address"
        }
      ],
      "stateMutability": "nonpayable",
      "type": "constructor"
    },
    {
      "anonymous": false,
      "inputs": [
        {
          "indexed": true,
          "internalType": "address",
          "name": "pendingOwner",
          "type": "address"
        }
      ],
      "name": "OwnershipOffered",
      "type": "event"
    },
    {
      "anonymous": false,
      "inputs": [
        {
          "indexed": true,
          "internalType": "address",
          "name": "previousOwner",
          "type": "address"
        },
        {
          "indexed": true,
          "internalType": "address",
          "name": "newOwner",
          "type": "address"
        }
      ],
      "name": "OwnershipTransferred",
      "type": "event"
    },
    {
      "anonymous": false,
      "inputs": [
        {
          "indexed": true,
          "internalType": "address",
          "name": "user",
          "type": "address"
        },
        {
          "indexed": false,
          "internalType": "uint256",
          "name": "prizeAwarded",
          "type": "uint256"
        },
        {
          "indexed": true,
          "internalType": "contract IControlledToken",
          "name": "token",
          "type": "address"
        }
      ],
      "name": "PrizeSplitAwarded",
      "type": "event"
    },
    {
      "anonymous": false,
      "inputs": [
        {
          "indexed": true,
          "internalType": "uint256",
          "name": "target",
          "type": "uint256"
        }
      ],
      "name": "PrizeSplitRemoved",
      "type": "event"
    },
    {
      "anonymous": false,
      "inputs": [
        {
          "indexed": true,
          "internalType": "address",
          "name": "target",
          "type": "address"
        },
        {
          "indexed": false,
          "internalType": "uint16",
          "name": "percentage",
          "type": "uint16"
        },
        {
          "indexed": false,
          "internalType": "uint256",
          "name": "index",
          "type": "uint256"
        }
      ],
      "name": "PrizeSplitSet",
      "type": "event"
    },
    {
      "inputs": [
        {
          "internalType": "address",
          "name": "target",
          "type": "address"
        },
        {
          "internalType": "uint256",
          "name": "amount",
          "type": "uint256"
        }
      ],
      "name": "awardPrizeSplitAmount",
      "outputs": [],
      "stateMutability": "nonpayable",
      "type": "function"
    },
    {
      "inputs": [],
      "name": "claimOwnership",
      "outputs": [],
      "stateMutability": "nonpayable",
      "type": "function"
    },
    {
      "inputs": [],
      "name": "getPrizePool",
      "outputs": [
        {
          "internalType": "contract IPrizePool",
          "name": "",
          "type": "address"
        }
      ],
      "stateMutability": "pure",
      "type": "function"
    },
    {
      "inputs": [
        {
          "internalType": "uint256",
          "name": "_prizeSplitIndex",
          "type": "uint256"
        }
      ],
      "name": "getPrizeSplit",
      "outputs": [
        {
          "components": [
            {
              "internalType": "address",
              "name": "target",
              "type": "address"
            },
            {
              "internalType": "uint16",
              "name": "percentage",
              "type": "uint16"
            }
          ],
          "internalType": "struct IPrizeSplit.PrizeSplitConfig",
          "name": "",
          "type": "tuple"
        }
      ],
      "stateMutability": "view",
      "type": "function"
    },
    {
      "inputs": [],
      "name": "getPrizeSplits",
      "outputs": [
        {
          "components": [
            {
              "internalType": "address",
              "name": "target",
              "type": "address"
            },
            {
              "internalType": "uint16",
              "name": "percentage",
              "type": "uint16"
            }
          ],
          "internalType": "struct IPrizeSplit.PrizeSplitConfig[]",
          "name": "",
          "type": "tuple[]"
        }
      ],
      "stateMutability": "view",
      "type": "function"
    },
    {
      "inputs": [],
      "name": "owner",
      "outputs": [
        {
          "internalType": "address",
          "name": "",
          "type": "address"
        }
      ],
      "stateMutability": "view",
      "type": "function"
    },
    {
      "inputs": [],
      "name": "pendingOwner",
      "outputs": [
        {
          "internalType": "address",
          "name": "",
          "type": "address"
        }
      ],
      "stateMutability": "view",
      "type": "function"
    },
    {
      "inputs": [],
      "name": "renounceOwnership",
      "outputs": [],
      "stateMutability": "nonpayable",
      "type": "function"
    },
    {
      "inputs": [
        {
          "components": [
            {
              "internalType": "address",
              "name": "target",
              "type": "address"
            },
            {
              "internalType": "uint16",
              "name": "percentage",
              "type": "uint16"
            }
          ],
          "internalType": "struct IPrizeSplit.PrizeSplitConfig",
          "name": "_prizeSplit",
          "type": "tuple"
        },
        {
          "internalType": "uint8",
          "name": "_prizeSplitIndex",
          "type": "uint8"
        }
      ],
      "name": "setPrizeSplit",
      "outputs": [],
      "stateMutability": "nonpayable",
      "type": "function"
    },
    {
      "inputs": [
        {
          "components": [
            {
              "internalType": "address",
              "name": "target",
              "type": "address"
            },
            {
              "internalType": "uint16",
              "name": "percentage",
              "type": "uint16"
            }
          ],
          "internalType": "struct IPrizeSplit.PrizeSplitConfig[]",
          "name": "_newPrizeSplits",
          "type": "tuple[]"
        }
      ],
      "name": "setPrizeSplits",
      "outputs": [],
      "stateMutability": "nonpayable",
      "type": "function"
    },
    {
      "inputs": [
        {
          "internalType": "address",
          "name": "_newOwner",
          "type": "address"
        }
      ],
      "name": "transferOwnership",
      "outputs": [],
      "stateMutability": "nonpayable",
      "type": "function"
    }
  ],
  "bytecode": "0x608060405234801561001057600080fd5b506040516110a83803806110a883398101604081905261002f91610090565b8061003981610040565b50506100c0565b600080546001600160a01b038381166001600160a01b0319831681178455604051919092169283917f8be0079c531659141344cd1fd0a4f28419497f9722a3daafe3b4186f6b6457e09190a35050565b6000602082840312156100a257600080fd5b81516001600160a01b03811681146100b957600080fd5b9392505050565b610fd9806100cf6000396000f3fe608060405234801561001057600080fd5b50600436106100c95760003560e01c8063884bf67c11610081578063cf713d6e1161005b578063cf713d6e1461015f578063e30c39781461019a578063f2fde38b146101ab57600080fd5b8063884bf67c146101195780638da5cb5b14610139578063cf1e3b591461014a57600080fd5b80631898f91d116100b25780631898f91d146100f65780634e71e0c814610109578063715018a61461011157600080fd5b8063056ea84f146100ce578063063a2298146100e3575b600080fd5b6100e16100dc366004610e3c565b6101be565b005b6100e16100f1366004610dab565b61046d565b6100e1610104366004610d81565b610878565b6100e1610886565b6100e1610914565b60005b6040516001600160a01b0390911681526020015b60405180910390f35b6000546001600160a01b031661011c565b610152610989565b6040516101309190610e93565b61017261016d366004610e7a565b610a00565b6040805182516001600160a01b0316815260209283015161ffff169281019290925201610130565b6001546001600160a01b031661011c565b6100e16101b9366004610d5f565b610a63565b336101d16000546001600160a01b031690565b6001600160a01b03161461022c5760405162461bcd60e51b815260206004820152601860248201527f4f776e61626c652f63616c6c65722d6e6f742d6f776e6572000000000000000060448201526064015b60405180910390fd5b60025460ff8216106102a65760405162461bcd60e51b815260206004820152602160248201527f5072697a6553706c69742f6e6f6e6578697374656e742d7072697a6573706c6960448201527f74000000000000000000000000000000000000000000000000000000000000006064820152608401610223565b81516001600160a01b03166103225760405162461bcd60e51b8152602060048201526024808201527f5072697a6553706c69742f696e76616c69642d7072697a6573706c69742d746160448201527f72676574000000000000000000000000000000000000000000000000000000006064820152608401610223565b8160028260ff168154811061033957610339610f8d565b60009182526020808320845192018054949091015161ffff16600160a01b0275ffffffffffffffffffffffffffffffffffffffffffff199094166001600160a01b039092169190911792909217909155610391610b9f565b90506103e881111561040b5760405162461bcd60e51b815260206004820152602e60248201527f5072697a6553706c69742f696e76616c69642d7072697a6573706c69742d706560448201527f7263656e746167652d746f74616c0000000000000000000000000000000000006064820152608401610223565b82600001516001600160a01b03167f0865d776fd684728838c688d6a6a82888f61c57a4032c8c320c24949317b9a3484602001518460405161046092919061ffff92909216825260ff16602082015260400190565b60405180910390a2505050565b336104806000546001600160a01b031690565b6001600160a01b0316146104d65760405162461bcd60e51b815260206004820152601860248201527f4f776e61626c652f63616c6c65722d6e6f742d6f776e657200000000000000006044820152606401610223565b8060005b8181101561075b5760008484838181106104f6576104f6610f8d565b90506040020180360381019061050c9190610e20565b80519091506001600160a01b031661058b5760405162461bcd60e51b8152602060048201526024808201527f5072697a6553706c69742f696e76616c69642d7072697a6573706c69742d746160448201527f72676574000000000000000000000000000000000000000000000000000000006064820152608401610223565b6002548210610610576002805460018101825560009190915281517f405787fa12a823e0f2b7631cc41b3ba8828b3321ca811111fa75cd3aa3bb5ace9091018054602084015161ffff16600160a01b0275ffffffffffffffffffffffffffffffffffffffffffff199091166001600160a01b03909316929092179190911790556106f6565b60006002838154811061062557610625610f8d565b6000918252602091829020604080518082019091529101546001600160a01b03808216808452600160a01b90920461ffff1693830193909352845191935091161415806106825750806020015161ffff16826020015161ffff1614155b156106ed57816002848154811061069b5761069b610f8d565b6000918252602091829020835191018054939092015161ffff16600160a01b0275ffffffffffffffffffffffffffffffffffffffffffff199093166001600160a01b03909116179190911790556106f4565b5050610749565b505b80516020808301516040805161ffff90921682529181018590526001600160a01b03909216917f0865d776fd684728838c688d6a6a82888f61c57a4032c8c320c24949317b9a34910160405180910390a2505b8061075381610f26565b9150506104da565b505b6002548110156107ee5760025460009061077990600190610f0f565b9050600280548061078c5761078c610f77565b6000828152602081208201600019908101805475ffffffffffffffffffffffffffffffffffffffffffff1916905590910190915560405182917f99fa473fdf53414bcd014cf6e7509fc58c68f7b86174767faa6ad5100cd5bae591a25061075d565b60006107f8610b9f565b90506103e88111156108725760405162461bcd60e51b815260206004820152602e60248201527f5072697a6553706c69742f696e76616c69642d7072697a6573706c69742d706560448201527f7263656e746167652d746f74616c0000000000000000000000000000000000006064820152608401610223565b50505050565b6108828282610c2b565b5050565b6001546001600160a01b031633146108e05760405162461bcd60e51b815260206004820152601f60248201527f4f776e61626c652f63616c6c65722d6e6f742d70656e64696e674f776e6572006044820152606401610223565b6001546108f5906001600160a01b0316610c70565b6001805473ffffffffffffffffffffffffffffffffffffffff19169055565b336109276000546001600160a01b031690565b6001600160a01b03161461097d5760405162461bcd60e51b815260206004820152601860248201527f4f776e61626c652f63616c6c65722d6e6f742d6f776e657200000000000000006044820152606401610223565b6109876000610c70565b565b60606002805480602002602001604051908101604052809291908181526020016000905b828210156109f757600084815260209081902060408051808201909152908401546001600160a01b0381168252600160a01b900461ffff16818301528252600190920191016109ad565b50505050905090565b604080518082019091526000808252602082015260028281548110610a2757610a27610f8d565b6000918252602091829020604080518082019091529101546001600160a01b0381168252600160a01b900461ffff169181019190915292915050565b33610a766000546001600160a01b031690565b6001600160a01b031614610acc5760405162461bcd60e51b815260206004820152601860248201527f4f776e61626c652f63616c6c65722d6e6f742d6f776e657200000000000000006044820152606401610223565b6001600160a01b038116610b485760405162461bcd60e51b815260206004820152602560248201527f4f776e61626c652f70656e64696e674f776e65722d6e6f742d7a65726f2d616460448201527f64726573730000000000000000000000000000000000000000000000000000006064820152608401610223565b6001805473ffffffffffffffffffffffffffffffffffffffff19166001600160a01b0383169081179091556040517f239a2ddded15777fa246aed5f7e1a9bc69a39d4eb4a397034d1d85766cca7d4c90600090a250565b6002546000908190815b818160ff161015610c2357600060028260ff1681548110610bcc57610bcc610f8d565b6000918252602091829020604080518082019091529101546001600160a01b0381168252600160a01b900461ffff169181018290529150610c0d9085610ef7565b9350508080610c1b90610f41565b915050610ba9565b509092915050565b6040518181526000906001600160a01b038416907f40b9722744d0ba62d8b847077d65a712335b6769aa37fff7ad7852ec299222a79060200160405180910390a35050565b600080546001600160a01b0383811673ffffffffffffffffffffffffffffffffffffffff19831681178455604051919092169283917f8be0079c531659141344cd1fd0a4f28419497f9722a3daafe3b4186f6b6457e09190a35050565b80356001600160a01b0381168114610ce457600080fd5b919050565b600060408284031215610cfb57600080fd5b6040516040810181811067ffffffffffffffff82111715610d2c57634e487b7160e01b600052604160045260246000fd5b604052905080610d3b83610ccd565b8152602083013561ffff81168114610d5257600080fd5b6020919091015292915050565b600060208284031215610d7157600080fd5b610d7a82610ccd565b9392505050565b60008060408385031215610d9457600080fd5b610d9d83610ccd565b946020939093013593505050565b60008060208385031215610dbe57600080fd5b823567ffffffffffffffff80821115610dd657600080fd5b818501915085601f830112610dea57600080fd5b813581811115610df957600080fd5b8660208260061b8501011115610e0e57600080fd5b60209290920196919550909350505050565b600060408284031215610e3257600080fd5b610d7a8383610ce9565b60008060608385031215610e4f57600080fd5b610e598484610ce9565b9150604083013560ff81168114610e6f57600080fd5b809150509250929050565b600060208284031215610e8c57600080fd5b5035919050565b602080825282518282018190526000919060409081850190868401855b82811015610eea57610eda84835180516001600160a01b0316825260209081015161ffff16910152565b9284019290850190600101610eb0565b5091979650505050505050565b60008219821115610f0a57610f0a610f61565b500190565b600082821015610f2157610f21610f61565b500390565b6000600019821415610f3a57610f3a610f61565b5060010190565b600060ff821660ff811415610f5857610f58610f61565b60010192915050565b634e487b7160e01b600052601160045260246000fd5b634e487b7160e01b600052603160045260246000fd5b634e487b7160e01b600052603260045260246000fdfea26469706673582212203caee11e5ae69f925c7b3e6103a752aee096f83dcead6c6bdc5f2c159f767b3464736f6c63430008060033",
  "linkReferences": {},
  "deployedLinkReferences": {}
}