{
  "_format": "hh-sol-artifact-1",
  "contractName": "EthVault",
  "sourceName": "contracts/vault/EthVault.sol",
  "abi": [
    {
      "inputs": [
        {
          "internalType": "contract IController",
          "name": "controller",
          "type": "address"
        }
      ],
      "stateMutability": "nonpayable",
      "type": "constructor"
    },
    {
      "anonymous": false,
      "inputs": [
        {
          "indexed": true,
          "internalType": "bytes32",
          "name": "key",
          "type": "bytes32"
        },
        {
          "indexed": false,
          "internalType": "address",
          "name": "value",
          "type": "address"
        },
        {
          "indexed": false,
          "internalType": "uint256",
          "name": "delay",
          "type": "uint256"
        }
      ],
      "name": "ConfigPreparedAddress",
      "type": "event"
    },
    {
      "anonymous": false,
      "inputs": [
        {
          "indexed": true,
          "internalType": "bytes32",
          "name": "key",
          "type": "bytes32"
        },
        {
          "indexed": false,
          "internalType": "uint256",
          "name": "value",
          "type": "uint256"
        },
        {
          "indexed": false,
          "internalType": "uint256",
          "name": "delay",
          "type": "uint256"
        }
      ],
      "name": "ConfigPreparedNumber",
      "type": "event"
    },
    {
      "anonymous": false,
      "inputs": [
        {
          "indexed": true,
          "internalType": "bytes32",
          "name": "key",
          "type": "bytes32"
        }
      ],
      "name": "ConfigReset",
      "type": "event"
    },
    {
      "anonymous": false,
      "inputs": [
        {
          "indexed": true,
          "internalType": "bytes32",
          "name": "key",
          "type": "bytes32"
        },
        {
          "indexed": false,
          "internalType": "address",
          "name": "oldValue",
          "type": "address"
        },
        {
          "indexed": false,
          "internalType": "address",
          "name": "newValue",
          "type": "address"
        }
      ],
      "name": "ConfigUpdatedAddress",
      "type": "event"
    },
    {
      "anonymous": false,
      "inputs": [
        {
          "indexed": true,
          "internalType": "bytes32",
          "name": "key",
          "type": "bytes32"
        },
        {
          "indexed": false,
          "internalType": "uint256",
          "name": "oldValue",
          "type": "uint256"
        },
        {
          "indexed": false,
          "internalType": "uint256",
          "name": "newValue",
          "type": "uint256"
        }
      ],
      "name": "ConfigUpdatedNumber",
      "type": "event"
    },
    {
      "anonymous": false,
      "inputs": [
        {
          "indexed": true,
          "internalType": "uint256",
          "name": "netProfit",
          "type": "uint256"
        },
        {
          "indexed": true,
          "internalType": "uint256",
          "name": "loss",
          "type": "uint256"
        }
      ],
      "name": "Harvest",
      "type": "event"
    },
    {
      "anonymous": false,
      "inputs": [
        {
          "indexed": true,
          "internalType": "address",
          "name": "strategy",
          "type": "address"
        }
      ],
      "name": "StrategyActivated",
      "type": "event"
    },
    {
      "anonymous": false,
      "inputs": [
        {
          "indexed": true,
          "internalType": "address",
          "name": "strategy",
          "type": "address"
        }
      ],
      "name": "StrategyDeactivated",
      "type": "event"
    },
    {
      "inputs": [],
      "name": "MAX_DEVIATION_BOUND",
      "outputs": [
        {
          "internalType": "uint256",
          "name": "",
          "type": "uint256"
        }
      ],
      "stateMutability": "view",
      "type": "function"
    },
    {
      "inputs": [],
      "name": "MAX_PERFORMANCE_FEE",
      "outputs": [
        {
          "internalType": "uint256",
          "name": "",
          "type": "uint256"
        }
      ],
      "stateMutability": "view",
      "type": "function"
    },
    {
      "inputs": [],
      "name": "STRATEGY_DELAY",
      "outputs": [
        {
          "internalType": "uint256",
          "name": "",
          "type": "uint256"
        }
      ],
      "stateMutability": "view",
      "type": "function"
    },
    {
      "inputs": [],
      "name": "activateStrategy",
      "outputs": [
        {
          "internalType": "bool",
          "name": "",
          "type": "bool"
        }
      ],
      "stateMutability": "nonpayable",
      "type": "function"
    },
    {
      "inputs": [],
      "name": "addressProvider",
      "outputs": [
        {
          "internalType": "contract IAddressProvider",
          "name": "",
          "type": "address"
        }
      ],
      "stateMutability": "view",
      "type": "function"
    },
    {
      "inputs": [],
      "name": "controller",
      "outputs": [
        {
          "internalType": "contract IController",
          "name": "",
          "type": "address"
        }
      ],
      "stateMutability": "view",
      "type": "function"
    },
    {
      "inputs": [
        {
          "internalType": "bytes32",
          "name": "",
          "type": "bytes32"
        }
      ],
      "name": "currentAddresses",
      "outputs": [
        {
          "internalType": "address",
          "name": "",
          "type": "address"
        }
      ],
      "stateMutability": "view",
      "type": "function"
    },
    {
      "inputs": [],
      "name": "currentAllocated",
      "outputs": [
        {
          "internalType": "uint256",
          "name": "",
          "type": "uint256"
        }
      ],
      "stateMutability": "view",
      "type": "function"
    },
    {
      "inputs": [
        {
          "internalType": "bytes32",
          "name": "",
          "type": "bytes32"
        }
      ],
      "name": "currentUInts256",
      "outputs": [
        {
          "internalType": "uint256",
          "name": "",
          "type": "uint256"
        }
      ],
      "stateMutability": "view",
      "type": "function"
    },
    {
      "inputs": [],
      "name": "deactivateStrategy",
      "outputs": [
        {
          "internalType": "bool",
          "name": "",
          "type": "bool"
        }
      ],
      "stateMutability": "nonpayable",
      "type": "function"
    },
    {
      "inputs": [
        {
          "internalType": "bytes32",
          "name": "",
          "type": "bytes32"
        }
      ],
      "name": "deadlines",
      "outputs": [
        {
          "internalType": "uint256",
          "name": "",
          "type": "uint256"
        }
      ],
      "stateMutability": "view",
      "type": "function"
    },
    {
      "inputs": [],
      "name": "deposit",
      "outputs": [],
      "stateMutability": "payable",
      "type": "function"
    },
    {
      "inputs": [],
      "name": "executeBound",
      "outputs": [
        {
          "internalType": "uint256",
          "name": "",
          "type": "uint256"
        }
      ],
      "stateMutability": "nonpayable",
      "type": "function"
    },
    {
      "inputs": [],
      "name": "executeDebtLimit",
      "outputs": [
        {
          "internalType": "uint256",
          "name": "",
          "type": "uint256"
        }
      ],
      "stateMutability": "nonpayable",
      "type": "function"
    },
    {
      "inputs": [],
      "name": "executeNewStrategy",
      "outputs": [
        {
          "internalType": "address",
          "name": "",
          "type": "address"
        }
      ],
      "stateMutability": "nonpayable",
      "type": "function"
    },
    {
      "inputs": [],
      "name": "executePerformanceFee",
      "outputs": [
        {
          "internalType": "uint256",
          "name": "",
          "type": "uint256"
        }
      ],
      "stateMutability": "nonpayable",
      "type": "function"
    },
    {
      "inputs": [],
      "name": "executeReserveFee",
      "outputs": [
        {
          "internalType": "uint256",
          "name": "",
          "type": "uint256"
        }
      ],
      "stateMutability": "nonpayable",
      "type": "function"
    },
    {
      "inputs": [],
      "name": "executeStrategistFee",
      "outputs": [
        {
          "internalType": "uint256",
          "name": "",
          "type": "uint256"
        }
      ],
      "stateMutability": "nonpayable",
      "type": "function"
    },
    {
      "inputs": [],
      "name": "executeTargetAllocation",
      "outputs": [
        {
          "internalType": "uint256",
          "name": "",
          "type": "uint256"
        }
      ],
      "stateMutability": "nonpayable",
      "type": "function"
    },
    {
      "inputs": [
        {
          "internalType": "address",
          "name": "strategy",
          "type": "address"
        }
      ],
      "name": "getAllocatedToStrategyWaitingForRemoval",
      "outputs": [
        {
          "internalType": "uint256",
          "name": "",
          "type": "uint256"
        }
      ],
      "stateMutability": "view",
      "type": "function"
    },
    {
      "inputs": [],
      "name": "getBound",
      "outputs": [
        {
          "internalType": "uint256",
          "name": "",
          "type": "uint256"
        }
      ],
      "stateMutability": "view",
      "type": "function"
    },
    {
      "inputs": [],
      "name": "getDebtLimit",
      "outputs": [
        {
          "internalType": "uint256",
          "name": "",
          "type": "uint256"
        }
      ],
      "stateMutability": "view",
      "type": "function"
    },
    {
      "inputs": [],
      "name": "getPerformanceFee",
      "outputs": [
        {
          "internalType": "uint256",
          "name": "",
          "type": "uint256"
        }
      ],
      "stateMutability": "view",
      "type": "function"
    },
    {
      "inputs": [],
      "name": "getReserveFee",
      "outputs": [
        {
          "internalType": "uint256",
          "name": "",
          "type": "uint256"
        }
      ],
      "stateMutability": "view",
      "type": "function"
    },
    {
      "inputs": [],
      "name": "getStrategiesWaitingForRemoval",
      "outputs": [
        {
          "internalType": "address[]",
          "name": "",
          "type": "address[]"
        }
      ],
      "stateMutability": "view",
      "type": "function"
    },
    {
      "inputs": [],
      "name": "getStrategistFee",
      "outputs": [
        {
          "internalType": "uint256",
          "name": "",
          "type": "uint256"
        }
      ],
      "stateMutability": "view",
      "type": "function"
    },
    {
      "inputs": [],
      "name": "getStrategy",
      "outputs": [
        {
          "internalType": "contract IStrategy",
          "name": "",
          "type": "address"
        }
      ],
      "stateMutability": "view",
      "type": "function"
    },
    {
      "inputs": [],
      "name": "getTargetAllocation",
      "outputs": [
        {
          "internalType": "uint256",
          "name": "",
          "type": "uint256"
        }
      ],
      "stateMutability": "view",
      "type": "function"
    },
    {
      "inputs": [],
      "name": "getTotalUnderlying",
      "outputs": [
        {
          "internalType": "uint256",
          "name": "",
          "type": "uint256"
        }
      ],
      "stateMutability": "view",
      "type": "function"
    },
    {
      "inputs": [],
      "name": "getUnderlying",
      "outputs": [
        {
          "internalType": "address",
          "name": "",
          "type": "address"
        }
      ],
      "stateMutability": "pure",
      "type": "function"
    },
    {
      "inputs": [],
      "name": "harvest",
      "outputs": [
        {
          "internalType": "bool",
          "name": "",
          "type": "bool"
        }
      ],
      "stateMutability": "nonpayable",
      "type": "function"
    },
    {
      "inputs": [
        {
          "internalType": "address",
          "name": "_pool",
          "type": "address"
        },
        {
          "internalType": "uint256",
          "name": "_debtLimit",
          "type": "uint256"
        },
        {
          "internalType": "uint256",
          "name": "_targetAllocation",
          "type": "uint256"
        },
        {
          "internalType": "uint256",
          "name": "_bound",
          "type": "uint256"
        }
      ],
      "name": "initialize",
      "outputs": [],
      "stateMutability": "nonpayable",
      "type": "function"
    },
    {
      "inputs": [
        {
          "internalType": "address",
          "name": "strategy_",
          "type": "address"
        }
      ],
      "name": "initializeStrategy",
      "outputs": [
        {
          "internalType": "bool",
          "name": "",
          "type": "bool"
        }
      ],
      "stateMutability": "nonpayable",
      "type": "function"
    },
    {
      "inputs": [
        {
          "internalType": "bytes32",
          "name": "",
          "type": "bytes32"
        }
      ],
      "name": "pendingAddresses",
      "outputs": [
        {
          "internalType": "address",
          "name": "",
          "type": "address"
        }
      ],
      "stateMutability": "view",
      "type": "function"
    },
    {
      "inputs": [
        {
          "internalType": "bytes32",
          "name": "",
          "type": "bytes32"
        }
      ],
      "name": "pendingUInts256",
      "outputs": [
        {
          "internalType": "uint256",
          "name": "",
          "type": "uint256"
        }
      ],
      "stateMutability": "view",
      "type": "function"
    },
    {
      "inputs": [],
      "name": "pool",
      "outputs": [
        {
          "internalType": "address",
          "name": "",
          "type": "address"
        }
      ],
      "stateMutability": "view",
      "type": "function"
    },
    {
      "inputs": [
        {
          "internalType": "uint256",
          "name": "newBound",
          "type": "uint256"
        }
      ],
      "name": "prepareBound",
      "outputs": [
        {
          "internalType": "bool",
          "name": "",
          "type": "bool"
        }
      ],
      "stateMutability": "nonpayable",
      "type": "function"
    },
    {
      "inputs": [
        {
          "internalType": "uint256",
          "name": "newDebtLimit",
          "type": "uint256"
        }
      ],
      "name": "prepareDebtLimit",
      "outputs": [
        {
          "internalType": "bool",
          "name": "",
          "type": "bool"
        }
      ],
      "stateMutability": "nonpayable",
      "type": "function"
    },
    {
      "inputs": [
        {
          "internalType": "address",
          "name": "newStrategy",
          "type": "address"
        }
      ],
      "name": "prepareNewStrategy",
      "outputs": [
        {
          "internalType": "bool",
          "name": "",
          "type": "bool"
        }
      ],
      "stateMutability": "nonpayable",
      "type": "function"
    },
    {
      "inputs": [
        {
          "internalType": "uint256",
          "name": "newPerformanceFee",
          "type": "uint256"
        }
      ],
      "name": "preparePerformanceFee",
      "outputs": [
        {
          "internalType": "bool",
          "name": "",
          "type": "bool"
        }
      ],
      "stateMutability": "nonpayable",
      "type": "function"
    },
    {
      "inputs": [
        {
          "internalType": "uint256",
          "name": "newReserveFee",
          "type": "uint256"
        }
      ],
      "name": "prepareReserveFee",
      "outputs": [
        {
          "internalType": "bool",
          "name": "",
          "type": "bool"
        }
      ],
      "stateMutability": "nonpayable",
      "type": "function"
    },
    {
      "inputs": [
        {
          "internalType": "uint256",
          "name": "newStrategistFee",
          "type": "uint256"
        }
      ],
      "name": "prepareStrategistFee",
      "outputs": [
        {
          "internalType": "bool",
          "name": "",
          "type": "bool"
        }
      ],
      "stateMutability": "nonpayable",
      "type": "function"
    },
    {
      "inputs": [
        {
          "internalType": "uint256",
          "name": "newTargetAllocation",
          "type": "uint256"
        }
      ],
      "name": "prepareTargetAllocation",
      "outputs": [
        {
          "internalType": "bool",
          "name": "",
          "type": "bool"
        }
      ],
      "stateMutability": "nonpayable",
      "type": "function"
    },
    {
      "inputs": [],
      "name": "reserve",
      "outputs": [
        {
          "internalType": "contract IVaultReserve",
          "name": "",
          "type": "address"
        }
      ],
      "stateMutability": "view",
      "type": "function"
    },
    {
      "inputs": [],
      "name": "resetBound",
      "outputs": [
        {
          "internalType": "bool",
          "name": "",
          "type": "bool"
        }
      ],
      "stateMutability": "nonpayable",
      "type": "function"
    },
    {
      "inputs": [],
      "name": "resetDebtLimit",
      "outputs": [
        {
          "internalType": "bool",
          "name": "",
          "type": "bool"
        }
      ],
      "stateMutability": "nonpayable",
      "type": "function"
    },
    {
      "inputs": [],
      "name": "resetNewStrategy",
      "outputs": [
        {
          "internalType": "bool",
          "name": "",
          "type": "bool"
        }
      ],
      "stateMutability": "nonpayable",
      "type": "function"
    },
    {
      "inputs": [],
      "name": "resetPerformanceFee",
      "outputs": [
        {
          "internalType": "bool",
          "name": "",
          "type": "bool"
        }
      ],
      "stateMutability": "nonpayable",
      "type": "function"
    },
    {
      "inputs": [],
      "name": "resetReserveFee",
      "outputs": [
        {
          "internalType": "bool",
          "name": "",
          "type": "bool"
        }
      ],
      "stateMutability": "nonpayable",
      "type": "function"
    },
    {
      "inputs": [],
      "name": "resetStrategistFee",
      "outputs": [
        {
          "internalType": "bool",
          "name": "",
          "type": "bool"
        }
      ],
      "stateMutability": "nonpayable",
      "type": "function"
    },
    {
      "inputs": [],
      "name": "resetTargetAllocation",
      "outputs": [
        {
          "internalType": "bool",
          "name": "",
          "type": "bool"
        }
      ],
      "stateMutability": "nonpayable",
      "type": "function"
    },
    {
      "inputs": [],
      "name": "roleManager",
      "outputs": [
        {
          "internalType": "contract IRoleManager",
          "name": "",
          "type": "address"
        }
      ],
      "stateMutability": "view",
      "type": "function"
    },
    {
      "inputs": [],
      "name": "strategyActive",
      "outputs": [
        {
          "internalType": "bool",
          "name": "",
          "type": "bool"
        }
      ],
      "stateMutability": "view",
      "type": "function"
    },
    {
      "inputs": [],
      "name": "totalDebt",
      "outputs": [
        {
          "internalType": "uint256",
          "name": "",
          "type": "uint256"
        }
      ],
      "stateMutability": "view",
      "type": "function"
    },
    {
      "inputs": [],
      "name": "waitingForRemovalAllocated",
      "outputs": [
        {
          "internalType": "uint256",
          "name": "",
          "type": "uint256"
        }
      ],
      "stateMutability": "view",
      "type": "function"
    },
    {
      "inputs": [
        {
          "internalType": "uint256",
          "name": "amount",
          "type": "uint256"
        }
      ],
      "name": "withdraw",
      "outputs": [
        {
          "internalType": "bool",
          "name": "",
          "type": "bool"
        }
      ],
      "stateMutability": "nonpayable",
      "type": "function"
    },
    {
      "inputs": [],
      "name": "withdrawAll",
      "outputs": [],
      "stateMutability": "nonpayable",
      "type": "function"
    },
    {
      "inputs": [],
      "name": "withdrawAllFromStrategy",
      "outputs": [
        {
          "internalType": "bool",
          "name": "",
          "type": "bool"
        }
      ],
      "stateMutability": "nonpayable",
      "type": "function"
    },
    {
      "inputs": [
        {
          "internalType": "uint256",
          "name": "amount",
          "type": "uint256"
        }
      ],
      "name": "withdrawFromReserve",
      "outputs": [],
      "stateMutability": "nonpayable",
      "type": "function"
    },
    {
      "inputs": [
        {
          "internalType": "uint256",
          "name": "amount",
          "type": "uint256"
        }
      ],
      "name": "withdrawFromStrategy",
      "outputs": [
        {
          "internalType": "bool",
          "name": "",
          "type": "bool"
        }
      ],
      "stateMutability": "nonpayable",
      "type": "function"
    },
    {
      "inputs": [
        {
          "internalType": "address",
          "name": "strategy",
          "type": "address"
        }
      ],
      "name": "withdrawFromStrategyWaitingForRemoval",
      "outputs": [
        {
          "internalType": "uint256",
          "name": "",
          "type": "uint256"
        }
      ],
      "stateMutability": "nonpayable",
      "type": "function"
    },
    {
      "stateMutability": "payable",
      "type": "receive"
    }
  ],
  "bytecode": "0x6101006040523480156200001257600080fd5b506040516200556a3803806200556a83398101604081905262000035916200028f565b80620000c9816001600160a01b0316632954018c6040518163ffffffff1660e01b815260040160206040518083038186803b1580156200007457600080fd5b505afa15801562000089573d6000803e3d6000fd5b505050506040513d601f19601f82011682018060405250810190620000af91906200028f565b6001600160a01b0316620001a460201b620033071760201c565b6001600160a01b03908116608052811660a081905260408051630a55006360e21b8152905160009291632954018c916004808301926020929190829003018186803b1580156200011857600080fd5b505afa1580156200012d573d6000803e3d6000fd5b505050506040513d601f19601f820116820180604052508101906200015391906200028f565b9050806001600160a01b031660c0816001600160a01b0316815250506200018e816001600160a01b03166200023760201b620033901760201c565b6001600160a01b031660e05250620002b6915050565b6040516321f8a72160e01b81526a3937b632a6b0b730b3b2b960a91b60048201526000906001600160a01b038316906321f8a721906024015b60206040518083038186803b158015620001f657600080fd5b505afa1580156200020b573d6000803e3d6000fd5b505050506040513d601f19601f820116820180604052508101906200023191906200028f565b92915050565b6040516321f8a72160e01b81526b7661756c745265736572766560a01b60048201526000906001600160a01b038316906321f8a72190602401620001dd565b6001600160a01b03811681146200028c57600080fd5b50565b600060208284031215620002a257600080fd5b8151620002af8162000276565b9392505050565b60805160a05160c05160e05161523462000336600039600081816108e201528181610cb301528181610db4015281816144de015281816145b0015281816146410152818161492201528181614ad301528181614b6b0152614c2801526000818161053601526149ad01526000610a28015260006133d001526152346000f3fe6080604052600436106103a55760003560e01c80638e6ac89b116101e7578063c4baed931161010d578063e3976edf116100a0578063f76c33991161006f578063f76c3399146109e0578063f77c479114610a16578063f95d943814610a4a578063fc7b9c1814610a6057600080fd5b8063e3976edf14610960578063f09b8fb114610996578063f1eeb9e6146109ab578063f3e7fc80146109cb57600080fd5b8063d46a8478116100dc578063d46a84781461090c578063d583e65914610921578063d698e2bb14610936578063d8ae7bf81461094b57600080fd5b8063c4baed931461089b578063c9fd9227146108bb578063cd3293de146108d0578063d0e30db01461090457600080fd5b8063a852d3e011610185578063aff1b7e411610154578063aff1b7e41461083f578063b40494e51461086c578063bd2a8b0714610881578063bdca91651461075957600080fd5b8063a852d3e0146107d5578063a966bc09146107f5578063ade109601461080a578063af2a8fff1461081f57600080fd5b80639816f473116101c15780639816f473146107755780639cf7fcc9146107895780639d711f3b146107ab578063a50ec876146107c057600080fd5b80638e6ac89b1461072f57806390f38918146107445780639407d08f1461075957600080fd5b80634278a673116102cc5780636f21cac31161026a5780637fef50da116102395780637fef50da146106da578063853828b6146106ef578063890f5f831461070457806389efcaac1461071957600080fd5b80636f21cac31461067b578063779ce5a41461069b578063798cf01d146106b05780637cd32a12146106c557600080fd5b80634ec81af1116102a65780634ec81af11461060f5780636741c1b91461062f578063678cbcb5146106445780636d785cf31461066457600080fd5b80634278a673146105ba5780634641257d146105da57806348b19335146105ef57600080fd5b806316f0115b116103445780632954018c116103135780632954018c146105245780632e1a7d4d1461055857806332a894c114610578578063346a4a511461058d57600080fd5b806316f0115b146104ba57806321401dd1146104da5780632182a5c4146104ef578063235c36031461050f57600080fd5b80630ee43c20116103805780630ee43c201461041a5780630fe6cbcf1461043f578063102a91261461045f57806315dbfe621461047f57600080fd5b8062435da5146103b157806307da0603146103e35780630a8bcdb9146103f857600080fd5b366103ac57005b600080fd5b3480156103bd57600080fd5b506103c6610a76565b6040516001600160a01b0390911681526020015b60405180910390f35b3480156103ef57600080fd5b506103c6610a85565b34801561040457600080fd5b50610418610413366004614f17565b610ac7565b005b34801561042657600080fd5b5061042f610e60565b60405190151581526020016103da565b34801561044b57600080fd5b5061042f61045a366004614f17565b610f53565b34801561046b57600080fd5b5061042f61047a366004614f17565b61105b565b34801561048b57600080fd5b506104ac61049a366004614f17565b603b6020526000908152604090205481565b6040519081526020016103da565b3480156104c657600080fd5b506002546103c6906001600160a01b031681565b3480156104e657600080fd5b5061042f61115a565b3480156104fb57600080fd5b5061042f61050a366004614f17565b611239565b34801561051b57600080fd5b506104ac611326565b34801561053057600080fd5b506103c67f000000000000000000000000000000000000000000000000000000000000000081565b34801561056457600080fd5b5061042f610573366004614f17565b611365565b34801561058457600080fd5b506104ac6116b5565b34801561059957600080fd5b506104ac6105a8366004614f17565b603e6020526000908152604090205481565b3480156105c657600080fd5b5061042f6105d5366004614f17565b6116d8565b3480156105e657600080fd5b5061042f611810565b3480156105fb57600080fd5b5061042f61060a366004614f17565b611905565b34801561061b57600080fd5b5061041861062a366004614f45565b611b2c565b34801561063b57600080fd5b5061042f611bf5565b34801561065057600080fd5b5061042f61065f366004614f80565b611cd4565b34801561067057600080fd5b506104ac6206978081565b34801561068757600080fd5b506104ac610696366004614f80565b611f8f565b3480156106a757600080fd5b506104ac611f9c565b3480156106bc57600080fd5b506104ac611fdd565b3480156106d157600080fd5b506104ac61201b565b3480156106e657600080fd5b506104ac612055565b3480156106fb57600080fd5b5061041861208b565b34801561071057600080fd5b5061042f612195565b34801561072557600080fd5b506104ac60015481565b34801561073b57600080fd5b5061042f612282565b34801561075057600080fd5b506104ac612372565b34801561076557600080fd5b506104ac6706f05b59d3b2000081565b34801561078157600080fd5b5060006103c6565b34801561079557600080fd5b5061079e6123a1565b6040516103da9190614f9d565b3480156107b757600080fd5b5061042f6123ad565b3480156107cc57600080fd5b506103c6612498565b3480156107e157600080fd5b5061042f6107f0366004614f17565b6126d9565b34801561080157600080fd5b5061042f6127cd565b34801561081657600080fd5b5061042f6128b5565b34801561082b57600080fd5b5061042f61083a366004614f80565b6129a9565b34801561084b57600080fd5b506104ac61085a366004614f17565b603d6020526000908152604090205481565b34801561087857600080fd5b506104ac612a99565b34801561088d57600080fd5b5060045461042f9060ff1681565b3480156108a757600080fd5b5061042f6108b6366004614f17565b612afe565b3480156108c757600080fd5b506104ac612c3f565b3480156108dc57600080fd5b506103c67f000000000000000000000000000000000000000000000000000000000000000081565b610418612c5e565b34801561091857600080fd5b506104ac612d50565b34801561092d57600080fd5b506104ac612d77565b34801561094257600080fd5b5061042f612dc1565b34801561095757600080fd5b5061042f612eb2565b34801561096c57600080fd5b506103c661097b366004614f17565b603a602052600090815260409020546001600160a01b031681565b3480156109a257600080fd5b506104ac612f9e565b3480156109b757600080fd5b506104ac6109c6366004614f80565b612fba565b3480156109d757600080fd5b506104ac6132cc565b3480156109ec57600080fd5b506103c66109fb366004614f17565b603c602052600090815260409020546001600160a01b031681565b348015610a2257600080fd5b506103c67f000000000000000000000000000000000000000000000000000000000000000081565b348015610a5657600080fd5b506104ac60005481565b348015610a6c57600080fd5b506104ac60035481565b6000610a806133ce565b905090565b67537472617465677960c01b600052603c6020527f15bdd40257915f753934b43755984618aeb2ae4fff096845769c2bb729e989be546001600160a01b031690565b610acf6133ce565b6001600160a01b03166391d1485469676f7665726e616e636560b01b336040518363ffffffff1660e01b8152600401610b09929190614fea565b60206040518083038186803b158015610b2157600080fd5b505afa158015610b35573d6000803e3d6000fd5b505050506040513d601f19601f82011682018060405250810190610b599190615001565b6040518060400160405280601381526020016000805160206151be83398151915281525090610ba45760405162461bcd60e51b8152600401610b9b9190615023565b60405180910390fd5b5060408051808201909152600e81526d1a5b9d985b1a5908185b5bdd5b9d60921b602082015281610be85760405162461bcd60e51b8152600401610b9b9190615023565b50600260009054906101000a90046001600160a01b03166001600160a01b031663b187bd266040518163ffffffff1660e01b815260040160206040518083038186803b158015610c3757600080fd5b505afa158015610c4b573d6000803e3d6000fd5b505050506040513d601f19601f82011682018060405250810190610c6f9190615001565b6040518060600160405280602c8152602001615192602c913990610ca65760405162461bcd60e51b8152600401610b9b9190615023565b5060006001600160a01b037f00000000000000000000000000000000000000000000000000000000000000001663d4fac45d30836040516001600160e01b031960e085901b1681526001600160a01b0392831660048201529116602482015260440160206040518083038186803b158015610d2057600080fd5b505afa158015610d34573d6000803e3d6000fd5b505050506040513d601f19601f82011682018060405250810190610d589190615078565b90508082111560405180604001604052806014815260200173696e73756666696369656e742062616c616e636560601b81525090610da95760405162461bcd60e51b8152600401610b9b9190615023565b506001600160a01b037f00000000000000000000000000000000000000000000000000000000000000001663f3fef3a360006040516001600160e01b031960e084901b1681526001600160a01b03909116600482015260248101859052604401602060405180830381600087803b158015610e2357600080fd5b505af1158015610e37573d6000803e3d6000fd5b505050506040513d601f19601f82011682018060405250810190610e5b9190615001565b505050565b6000610e6a6133ce565b6001600160a01b03166391d1485469676f7665726e616e636560b01b336040518363ffffffff1660e01b8152600401610ea4929190614fea565b60206040518083038186803b158015610ebc57600080fd5b505afa158015610ed0573d6000803e3d6000fd5b505050506040513d601f19601f82011682018060405250810190610ef49190615001565b6040518060400160405280601381526020016000805160206151be83398151915281525090610f365760405162461bcd60e51b8152600401610b9b9190615023565b50610a806f2a30b933b2ba20b63637b1b0ba34b7b760811b6133f2565b6000610f5d6133ce565b6001600160a01b03166391d1485469676f7665726e616e636560b01b336040518363ffffffff1660e01b8152600401610f97929190614fea565b60206040518083038186803b158015610faf57600080fd5b505afa158015610fc3573d6000803e3d6000fd5b505050506040513d601f19601f82011682018060405250810190610fe79190615001565b6040518060400160405280601381526020016000805160206151be833981519152815250906110295760405162461bcd60e51b8152600401610b9b9190615023565b5061103b6110356132cc565b83613499565b6110556c5374726174656769737446656560981b83613524565b92915050565b60006110656133ce565b6001600160a01b03166391d1485469676f7665726e616e636560b01b336040518363ffffffff1660e01b815260040161109f929190614fea565b60206040518083038186803b1580156110b757600080fd5b505afa1580156110cb573d6000803e3d6000fd5b505050506040513d601f19601f820116820180604052508101906110ef9190615001565b6040518060400160405280601381526020016000805160206151be833981519152815250906111315760405162461bcd60e51b8152600401610b9b9190615023565b506111438261113e611fdd565b613499565b611055695265736572766546656560b01b83613524565b60006111646133ce565b6001600160a01b03166391d1485469676f7665726e616e636560b01b336040518363ffffffff1660e01b815260040161119e929190614fea565b60206040518083038186803b1580156111b657600080fd5b505afa1580156111ca573d6000803e3d6000fd5b505050506040513d601f19601f820116820180604052508101906111ee9190615001565b6040518060400160405280601381526020016000805160206151be833981519152815250906112305760405162461bcd60e51b8152600401610b9b9190615023565b50610a8061353b565b60006112436133ce565b6001600160a01b03166391d1485469676f7665726e616e636560b01b336040518363ffffffff1660e01b815260040161127d929190614fea565b60206040518083038186803b15801561129557600080fd5b505afa1580156112a9573d6000803e3d6000fd5b505050506040513d601f19601f820116820180604052508101906112cd9190615001565b6040518060400160405280601381526020016000805160206151be8339815191528152509061130f5760405162461bcd60e51b8152600401610b9b9190615023565b50611055681119589d131a5b5a5d60ba1b83613524565b6d506572666f726d616e636546656560901b600052603d6020527fbadb955f4a57baa7811abc9bcd6809eb9d3b80456cae1a7ea27f30fddfd0c0a65490565b6002546000906001600160a01b031633148061140e57506113846133ce565b6001600160a01b03166391d1485469676f7665726e616e636560b01b336040518363ffffffff1660e01b81526004016113be929190614fea565b60206040518083038186803b1580156113d657600080fd5b505afa1580156113ea573d6000803e3d6000fd5b505050506040513d601f19601f8201168201806040525081019061140e9190615001565b6040518060400160405280601381526020016000805160206151be833981519152815250906114505760405162461bcd60e51b8152600401610b9b9190615023565b50600061145b610a85565b905047838110156115d7576001600160a01b03821661147e575060009392505050565b6000826001600160a01b031663b69ef8a86040518163ffffffff1660e01b815260040160206040518083038186803b1580156114b957600080fd5b505afa1580156114cd573d6000803e3d6000fd5b505050506040513d601f19601f820116820180604052508101906114f19190615078565b905060006114ff83876150a7565b9050818111156115155750600095945050505050565b6000611532611522611f9c565b61152c84866150a7565b9061359b565b9050600061154082856150a7565b604051632e1a7d4d60e01b8152600481018290529091506001600160a01b03871690632e1a7d4d90602401602060405180830381600087803b15801561158557600080fd5b505af1158015611599573d6000803e3d6000fd5b505050506040513d601f19601f820116820180604052508101906115bd9190615001565b506115ca600054826135ba565b6000555061169592505050565b60006001600160a01b0383161561165c57826001600160a01b031663b69ef8a86040518163ffffffff1660e01b815260040160206040518083038186803b15801561162157600080fd5b505afa158015611635573d6000803e3d6000fd5b505050506040513d601f19601f820116820180604052508101906116599190615078565b90505b60015460009061166c83856150be565b61167691906150be565b9050600061168487836150a7565b905061169081846135de565b505050505b6002546116ab906001600160a01b0316856137f5565b5060019392505050565b6000806116c964109bdd5b9960da1b61382b565b90506116d361384f565b919050565b60006116e26133ce565b6001600160a01b03166391d1485469676f7665726e616e636560b01b336040518363ffffffff1660e01b815260040161171c929190614fea565b60206040518083038186803b15801561173457600080fd5b505afa158015611748573d6000803e3d6000fd5b505050506040513d601f19601f8201168201806040525081019061176c9190615001565b6040518060400160405280601381526020016000805160206151be833981519152815250906117ae5760405162461bcd60e51b8152600401610b9b9190615023565b5060408051808201909152600e81526d1a5b9d985b1a5908185b5bdd5b9d60921b60208201526706f05b59d3b200008311156117fd5760405162461bcd60e51b8152600401610b9b9190615023565b5061105564109bdd5b9960da1b83613524565b6002546000906001600160a01b03163314806118ba575061182f6133ce565b6001600160a01b03166391d148546a6d61696e74656e616e636560a81b336040518363ffffffff1660e01b815260040161186a929190614fea565b60206040518083038186803b15801561188257600080fd5b505afa158015611896573d6000803e3d6000fd5b505050506040513d601f19601f820116820180604052508101906118ba9190615001565b6040518060400160405280601381526020016000805160206151be833981519152815250906118fc5760405162461bcd60e51b8152600401610b9b9190615023565b50610a8061390d565b600061190f6133ce565b6001600160a01b03166391d1485469676f7665726e616e636560b01b336040518363ffffffff1660e01b8152600401611949929190614fea565b60206040518083038186803b15801561196157600080fd5b505afa158015611975573d6000803e3d6000fd5b505050506040513d601f19601f820116820180604052508101906119999190615001565b6040518060400160405280601381526020016000805160206151be833981519152815250906119db5760405162461bcd60e51b8152600401610b9b9190615023565b5060006119e6610a85565b90506001600160a01b0381166119ff5750600092915050565b82816001600160a01b031663b69ef8a86040518163ffffffff1660e01b815260040160206040518083038186803b158015611a3957600080fd5b505afa158015611a4d573d6000803e3d6000fd5b505050506040513d601f19601f82011682018060405250810190611a719190615078565b1015611a805750600092915050565b600047604051632e1a7d4d60e01b8152600481018690529091506001600160a01b03831690632e1a7d4d90602401602060405180830381600087803b158015611ac857600080fd5b505af1158015611adc573d6000803e3d6000fd5b505050506040513d601f19601f82011682018060405250810190611b009190615001565b5047611b0c82826150a7565b600080828254611b1c91906150a7565b9091555060019695505050505050565b603f54610100900460ff16611b4757603f5460ff1615611b4b565b303b155b611bae5760405162461bcd60e51b815260206004820152602e60248201527f496e697469616c697a61626c653a20636f6e747261637420697320616c72656160448201526d191e481a5b9a5d1a585b1a5e995960921b6064820152608401610b9b565b603f54610100900460ff16158015611bd057603f805461ffff19166101011790555b611bdc85858585613bc4565b8015611bee57603f805461ff00191690555b5050505050565b6000611bff6133ce565b6001600160a01b03166391d1485469676f7665726e616e636560b01b336040518363ffffffff1660e01b8152600401611c39929190614fea565b60206040518083038186803b158015611c5157600080fd5b505afa158015611c65573d6000803e3d6000fd5b505050506040513d601f19601f82011682018060405250810190611c899190615001565b6040518060400160405280601381526020016000805160206151be83398151915281525090611ccb5760405162461bcd60e51b8152600401610b9b9190615023565b50610a80613d72565b6000611cde6133ce565b6001600160a01b03166391d1485469676f7665726e616e636560b01b336040518363ffffffff1660e01b8152600401611d18929190614fea565b60206040518083038186803b158015611d3057600080fd5b505afa158015611d44573d6000803e3d6000fd5b505050506040513d601f19601f82011682018060405250810190611d689190615001565b6040518060400160405280601381526020016000805160206151be83398151915281525090611daa5760405162461bcd60e51b8152600401610b9b9190615023565b5067537472617465677960c01b600052603c60209081527f15bdd40257915f753934b43755984618aeb2ae4fff096845769c2bb729e989be546040805180820190915260168152751059191c995cdcc81a5cc8185b1c9958591e481cd95d60521b928101929092526001600160a01b031615611e395760405162461bcd60e51b8152600401610b9b9190615023565b506040805180820190915260188152771e995c9bc81859191c995cdcc81b9bdd08185b1b1bddd95960421b60208201526001600160a01b038316611e905760405162461bcd60e51b8152600401610b9b9190615023565b50611ea667537472617465677960c01b83613de6565b50611eaf613d72565b5060006001600160a01b0316826001600160a01b0316631fe4a6866040518163ffffffff1660e01b815260040160206040518083038186803b158015611ef457600080fd5b505afa158015611f08573d6000803e3d6000fd5b505050506040513d601f19601f82011682018060405250810190611f2c91906150d6565b6001600160a01b03161415604051806040016040528060188152602001771e995c9bc81859191c995cdcc81b9bdd08185b1b1bddd95960421b81525090611f865760405162461bcd60e51b8152600401610b9b9190615023565b50600192915050565b6000611055600583613e72565b6f2a30b933b2ba20b63637b1b0ba34b7b760811b600052603d6020527f0a3006de449e2f6da78c92d58370b3dd2ef3b1e1963fc373ed67d46ced02eb8f5490565b6c5374726174656769737446656560981b600052603d6020527f9991a201724620367b875943d3f1e2d8a65d067f05ccd6a37af85ae33cf679e95490565b681119589d131a5b5a5d60ba1b600052603d6020527fed35bbff007ae1d09677de3676c3cb1b0411569c4ab270913b3fb2a177a703195490565b64109bdd5b9960da1b600052603d6020527fcba6df5081839cab6ded1888d57f2772386c9d156438bb2faa7b07ec10c244705490565b6002546001600160a01b031633148061213157506120a76133ce565b6001600160a01b03166391d1485469676f7665726e616e636560b01b336040518363ffffffff1660e01b81526004016120e1929190614fea565b60206040518083038186803b1580156120f957600080fd5b505afa15801561210d573d6000803e3d6000fd5b505050506040513d601f19601f820116820180604052508101906121319190615001565b6040518060400160405280601381526020016000805160206151be833981519152815250906121735760405162461bcd60e51b8152600401610b9b9190615023565b5061217c613e87565b50600254612193906001600160a01b0316476137f5565b565b600061219f6133ce565b6001600160a01b03166391d1485469676f7665726e616e636560b01b336040518363ffffffff1660e01b81526004016121d9929190614fea565b60206040518083038186803b1580156121f157600080fd5b505afa158015612205573d6000803e3d6000fd5b505050506040513d601f19601f820116820180604052508101906122299190615001565b6040518060400160405280601381526020016000805160206151be8339815191528152509061226b5760405162461bcd60e51b8152600401610b9b9190615023565b50610a80695265736572766546656560b01b6133f2565b600061228c6133ce565b6001600160a01b03166391d1485469676f7665726e616e636560b01b336040518363ffffffff1660e01b81526004016122c6929190614fea565b60206040518083038186803b1580156122de57600080fd5b505afa1580156122f2573d6000803e3d6000fd5b505050506040513d601f19601f820116820180604052508101906123169190615001565b6040518060400160405280601381526020016000805160206151be833981519152815250906123585760405162461bcd60e51b8152600401610b9b9190615023565b50610a806c5374726174656769737446656560981b6133f2565b60008061238e6c5374726174656769737446656560981b61382b565b90506116d361239b6132cc565b82613499565b6060610a806005613f5e565b60006123b76133ce565b6001600160a01b03166391d1485469676f7665726e616e636560b01b336040518363ffffffff1660e01b81526004016123f1929190614fea565b60206040518083038186803b15801561240957600080fd5b505afa15801561241d573d6000803e3d6000fd5b505050506040513d601f19601f820116820180604052508101906124419190615001565b6040518060400160405280601381526020016000805160206151be833981519152815250906124835760405162461bcd60e51b8152600401610b9b9190615023565b50610a8067537472617465677960c01b61400d565b60006124ae67537472617465677960c01b6140bf565b60006124b8610a85565b90506001600160a01b0381161561265c576124d161390d565b50806001600160a01b031663fc0e74d16040518163ffffffff1660e01b8152600401602060405180830381600087803b15801561250d57600080fd5b505af1158015612521573d6000803e3d6000fd5b505050506040513d601f19601f820116820180604052508101906125459190615001565b50806001600160a01b031663853828b66040518163ffffffff1660e01b8152600401602060405180830381600087803b15801561258157600080fd5b505af1158015612595573d6000803e3d6000fd5b505050506040513d601f19601f820116820180604052508101906125b99190615078565b506000816001600160a01b031663b69ef8a86040518163ffffffff1660e01b815260040160206040518083038186803b1580156125f557600080fd5b505afa158015612609573d6000803e3d6000fd5b505050506040513d601f19601f8201168201806040525081019061262d9190615078565b9050801561265a5761264160058383614168565b50806001600082825461265491906150be565b90915550505b505b61266461353b565b506000808055600381905567537472617465677960c01b90819052603a6020527fa4caf68bc3013a9a5274c5d8968485ae05b8c28e9f50493f41acc96b22818c23546001600160a01b0316906126ba9082613de6565b506001600160a01b03811615611055576126d2613d72565b5092915050565b60006126e36133ce565b6001600160a01b03166391d1485469676f7665726e616e636560b01b336040518363ffffffff1660e01b815260040161271d929190614fea565b60206040518083038186803b15801561273557600080fd5b505afa158015612749573d6000803e3d6000fd5b505050506040513d601f19601f8201168201806040525081019061276d9190615001565b6040518060400160405280601381526020016000805160206151be833981519152815250906127af5760405162461bcd60e51b8152600401610b9b9190615023565b506110556f2a30b933b2ba20b63637b1b0ba34b7b760811b83613524565b60006127d76133ce565b6001600160a01b03166391d1485469676f7665726e616e636560b01b336040518363ffffffff1660e01b8152600401612811929190614fea565b60206040518083038186803b15801561282957600080fd5b505afa15801561283d573d6000803e3d6000fd5b505050506040513d601f19601f820116820180604052508101906128619190615001565b6040518060400160405280601381526020016000805160206151be833981519152815250906128a35760405162461bcd60e51b8152600401610b9b9190615023565b50610a8064109bdd5b9960da1b6133f2565b6002546000906001600160a01b031633148061295e57506128d46133ce565b6001600160a01b03166391d1485469676f7665726e616e636560b01b336040518363ffffffff1660e01b815260040161290e929190614fea565b60206040518083038186803b15801561292657600080fd5b505afa15801561293a573d6000803e3d6000fd5b505050506040513d601f19601f8201168201806040525081019061295e9190615001565b6040518060400160405280601381526020016000805160206151be833981519152815250906129a05760405162461bcd60e51b8152600401610b9b9190615023565b50610a80613e87565b60006129b36133ce565b6001600160a01b03166391d1485469676f7665726e616e636560b01b336040518363ffffffff1660e01b81526004016129ed929190614fea565b60206040518083038186803b158015612a0557600080fd5b505afa158015612a19573d6000803e3d6000fd5b505050506040513d601f19601f82011682018060405250810190612a3d9190615001565b6040518060400160405280601381526020016000805160206151be83398151915281525090612a7f5760405162461bcd60e51b8152600401610b9b9190615023565b5061105567537472617465677960c01b8362069780614186565b60004781612aa5610a85565b6001600160a01b03161415612ab957919050565b600060015460005483612acc91906150be565b612ad691906150be565b90508060035411612af557600354612aee90826150a7565b9250505090565b60009250505090565b6000612b086133ce565b6001600160a01b03166391d1485469676f7665726e616e636560b01b336040518363ffffffff1660e01b8152600401612b42929190614fea565b60206040518083038186803b158015612b5a57600080fd5b505afa158015612b6e573d6000803e3d6000fd5b505050506040513d601f19601f82011682018060405250810190612b929190615001565b6040518060400160405280601381526020016000805160206151be83398151915281525090612bd45760405162461bcd60e51b8152600401610b9b9190615023565b5060408051808201909152600e81526d1a5b9d985b1a5908185b5bdd5b9d60921b60208201526706f05b59d3b20000831115612c235760405162461bcd60e51b8152600401610b9b9190615023565b506110556d506572666f726d616e636546656560901b83613524565b6000806116c96f2a30b933b2ba20b63637b1b0ba34b7b760811b61382b565b6002546001600160a01b0316331480612d055750612c7a6133ce565b6001600160a01b03166391d148546a6d61696e74656e616e636560a81b336040518363ffffffff1660e01b8152600401612cb5929190614fea565b60206040518083038186803b158015612ccd57600080fd5b505afa158015612ce1573d6000803e3d6000fd5b505050506040513d601f19601f82011682018060405250810190612d059190615001565b6040518060400160405280601381526020016000805160206151be83398151915281525090612d475760405162461bcd60e51b8152600401610b9b9190615023565b5061219361384f565b600080612d69695265736572766546656560b01b61382b565b90506116d38161113e611fdd565b600080612d8f681119589d131a5b5a5d60ba1b61382b565b90506000612da88260005461359b90919063ffffffff16565b90508060035410612dbb57612dbb614203565b50919050565b6000612dcb6133ce565b6001600160a01b03166391d1485469676f7665726e616e636560b01b336040518363ffffffff1660e01b8152600401612e05929190614fea565b60206040518083038186803b158015612e1d57600080fd5b505afa158015612e31573d6000803e3d6000fd5b505050506040513d601f19601f82011682018060405250810190612e559190615001565b6040518060400160405280601381526020016000805160206151be83398151915281525090612e975760405162461bcd60e51b8152600401610b9b9190615023565b50610a806d506572666f726d616e636546656560901b6133f2565b6000612ebc6133ce565b6001600160a01b03166391d1485469676f7665726e616e636560b01b336040518363ffffffff1660e01b8152600401612ef6929190614fea565b60206040518083038186803b158015612f0e57600080fd5b505afa158015612f22573d6000803e3d6000fd5b505050506040513d601f19601f82011682018060405250810190612f469190615001565b6040518060400160405280601381526020016000805160206151be83398151915281525090612f885760405162461bcd60e51b8152600401610b9b9190615023565b50610a80681119589d131a5b5a5d60ba1b6133f2565b6000610a806d506572666f726d616e636546656560901b61382b565b60008080612fc9600585614220565b91509150816040518060400160405280601781526020017f537472617465677920646f6573206e6f74206578697374000000000000000000815250906130225760405162461bcd60e51b8152600401610b9b9190615023565b506000849050806001600160a01b0316634641257d6040518163ffffffff1660e01b8152600401602060405180830381600087803b15801561306357600080fd5b505af1158015613077573d6000803e3d6000fd5b505050506040513d601f19601f8201168201806040525081019061309b9190615078565b506000816001600160a01b031663853828b66040518163ffffffff1660e01b8152600401602060405180830381600087803b1580156130d957600080fd5b505af11580156130ed573d6000803e3d6000fd5b505050506040513d601f19601f820116820180604052508101906131119190615078565b600154909150808210613128576000600155613136565b61313282826150a7565b6001555b8382111561322157600061314a85846150a7565b9050600061316861316361315c611326565b849061359b565b614247565b905080156131ea576131ea81866001600160a01b0316631fe4a6866040518163ffffffff1660e01b815260040160206040518083038186803b1580156131ad57600080fd5b505afa1580156131c1573d6000803e3d6000fd5b505050506040513d601f19601f820116820180604052508101906131e591906150d6565b6142a7565b60405160009650869083907f6c8433a8e155f0af04dba058d4e4695f7da554578963d876bdf4a6d8d6399d9c908390a3505061322e565b61322b82856150a7565b93505b826001600160a01b031663b69ef8a86040518163ffffffff1660e01b815260040160206040518083038186803b15801561326757600080fd5b505afa15801561327b573d6000803e3d6000fd5b505050506040513d601f19601f8201168201806040525081019061329f9190615078565b6132b4576132ae600584614341565b506132c2565b6132c060058486614168565b505b5095945050505050565b695265736572766546656560b01b600052603d6020527fa61f8e25cb35ba15fc70bbd3ba789d53bf34a4deddb38a43a213af3182d35aae5490565b6040516321f8a72160e01b81526a3937b632a6b0b730b3b2b960a91b60048201526000906001600160a01b038316906321f8a721906024015b60206040518083038186803b15801561335857600080fd5b505afa15801561336c573d6000803e3d6000fd5b505050506040513d601f19601f8201168201806040525081019061105591906150d6565b6040516321f8a72160e01b81526b7661756c745265736572766560a01b60048201526000906001600160a01b038316906321f8a72190602401613340565b7f000000000000000000000000000000000000000000000000000000000000000090565b6000818152603e6020908152604080832054815180830190925260128252710646561646c696e65206d75737420626520360741b928201929092529061344b5760405162461bcd60e51b8152600401610b9b9190615023565b506000828152603e60209081526040808320839055603b9091528082208290555183917f90fb84ad67dd037c388289337bb80b61b8605d38ba9a875dc38b5600909d172f91a2506001919050565b670de0b6b3a76400006134ac82846150be565b11156135205760405162461bcd60e51b815260206004820152603760248201527f73756d206f6620737472617465676973742066656520616e642072657365727660448201527f65206665652073686f756c642062652062656c6f7720310000000000000000006064820152608401610b9b565b5050565b600061353483836203f480614356565b9392505050565b60045460009060ff1661354e5750600090565b6004805460ff19169055613560610a85565b6001600160a01b03167f274ec28d31430170ad5dd350f8e7505ffab078c309300878c710383ae4cbed4960405160405180910390a250600190565b6000670de0b6b3a76400006135b083856150f3565b6135349190615112565b6000818311156135d5576135ce82846150a7565b9050611055565b50600092915050565b60045460009060ff166135f357506000611055565b60006135fd611f9c565b90506000613609610a85565b90506000613615612055565b90506000613623878561359b565b90506000841561363c5761363783866150be565b61363f565b60005b9050670de0b6b3a764000081116136565780613660565b670de0b6b3a76400005b9050600085841161367a5761367584876150a7565b61367d565b60005b9050613689898361359b565b88111561372f57600061369c848a6150a7565b604051632e1a7d4d60e01b8152600481018290529091506001600160a01b03871690632e1a7d4d90602401602060405180830381600087803b1580156136e157600080fd5b505af11580156136f5573d6000803e3d6000fd5b505050506040513d601f19601f820116820180604052508101906137199190615001565b50613726600054826135ba565b600055506137e6565b613739898261359b565b8810156137e657600061374c89856150a7565b905061375886826137f5565b8060008082825461376991906150be565b92505081905550856001600160a01b031663d0e30db06040518163ffffffff1660e01b8152600401602060405180830381600087803b1580156137ab57600080fd5b505af11580156137bf573d6000803e3d6000fd5b505050506040513d601f19601f820116820180604052508101906137e39190615001565b50505b50600198975050505050505050565b6040516001600160a01b0383169082156108fc029083906000818181858888f19350505050158015610e5b573d6000803e3d6000fd5b6000613836826140bf565b6000828152603b60205260409020546126d283826143ac565b60045460ff1661385b57565b6000613865610a85565b6001600160a01b031663b69ef8a86040518163ffffffff1660e01b815260040160206040518083038186803b15801561389d57600080fd5b505afa1580156138b1573d6000803e3d6000fd5b505050506040513d601f19601f820116820180604052508101906138d59190615078565b90506000600154826138e44790565b6138ee91906150be565b6138f891906150be565b905080613903575050565b610e5b81836135de565b600080613918610a85565b90506001600160a01b03811661393057600091505090565b806001600160a01b0316634641257d6040518163ffffffff1660e01b8152600401602060405180830381600087803b15801561396b57600080fd5b505af115801561397f573d6000803e3d6000fd5b505050506040513d601f19601f820116820180604052508101906139a39190615078565b50600080826001600160a01b031663b69ef8a86040518163ffffffff1660e01b815260040160206040518083038186803b1580156139e057600080fd5b505afa1580156139f4573d6000803e3d6000fd5b505050506040513d601f19601f82011682018060405250810190613a189190615078565b6000546003549192509081831115613aa9576000613a3683856150a7565b905081811115613a69578115613a5757613a5082826150a7565b9050600091505b613a608161440d565b95509050613a76565b613a7381836150a7565b91505b60405160009082907f6c8433a8e155f0af04dba058d4e4695f7da554578963d876bdf4a6d8d6399d9c908390a350613b3a565b81831015613b2e576000613abd84846150a7565b9050613ac981836150be565b91506000613ad561201b565b90506000613ae3858361359b565b905080841115613af957613af6846144d1565b93505b60405183906000907f6c8433a8e155f0af04dba058d4e4695f7da554578963d876bdf4a6d8d6399d9c908290a3505050613b3a565b60019550505050505090565b80600381905550846001600160a01b031663b69ef8a86040518163ffffffff1660e01b815260040160206040518083038186803b158015613b7a57600080fd5b505afa158015613b8e573d6000803e3d6000fd5b505050506040513d601f19601f82011682018060405250810190613bb29190615078565b6000558315613b2e57613b2e846146fc565b60408051808201909152600e81526d1a5b9d985b1a5908185b5bdd5b9d60921b6020820152670de0b6b3a7640000841115613c125760405162461bcd60e51b8152600401610b9b9190615023565b5060408051808201909152600e81526d1a5b9d985b1a5908185b5bdd5b9d60921b6020820152670de0b6b3a7640000831115613c615760405162461bcd60e51b8152600401610b9b9190615023565b5060408051808201909152600e81526d1a5b9d985b1a5908185b5bdd5b9d60921b60208201526706f05b59d3b20000821115613cb05760405162461bcd60e51b8152600401610b9b9190615023565b50600280546001600160a01b0319166001600160a01b038616179055613ce2681119589d131a5b5a5d60ba1b846143ac565b50613d006f2a30b933b2ba20b63637b1b0ba34b7b760811b836143ac565b50613d1364109bdd5b9960da1b826143ac565b50613d32695265736572766546656560b01b662386f26fc100006143ac565b50613d556c5374726174656769737446656560981b67016345785d8a00006143ac565b50611bee6d506572666f726d616e636546656560901b60006143ac565b600080613d7d610a85565b90506001600160a01b038116613d9557600091505090565b6004805460ff191660011790556040516001600160a01b038216907f652f053fc39779b70b29678135ade972fcb79966fc68fcb77c996b1aa4fd9afb90600090a2613dde61384f565b600191505090565b6000828152603c6020908152604080832080546001600160a01b03198082166001600160a01b03888116918217909455603a86528487208054909216909155603e85528386208690558351929091168083529382015285917fc4a957706c639829ad54381b04930c464db6c7ffdc09d2b4b1acc9ee34fb926191015b60405180910390a2509092915050565b6000613534836001600160a01b038416614743565b600080613e92610a85565b90506001600160a01b038116613eaa57600091505090565b613eb261390d565b506000479050816001600160a01b031663853828b66040518163ffffffff1660e01b8152600401602060405180830381600087803b158015613ef357600080fd5b505af1158015613f07573d6000803e3d6000fd5b505050506040513d601f19601f82011682018060405250810190613f2b9190615078565b50476000613f3983836150a7565b9050613f47600054826135ba565b600055613f5261353b565b50600194505050505090565b60606000613f6b836147b3565b905060008167ffffffffffffffff811115613f8857613f88615134565b604051908082528060200260200182016040528015613fb1578160200160208202803683370190505b50905060005b8281101561400557613fc985826147be565b828281518110613fdb57613fdb61514a565b6001600160a01b039092166020928302919091019091015280613ffd81615160565b915050613fb7565b509392505050565b6000818152603e6020908152604080832054815180830190925260128252710646561646c696e65206d75737420626520360741b92820192909252906140665760405162461bcd60e51b8152600401610b9b9190615023565b506000828152603e60209081526040808320839055603a90915280822080546001600160a01b03191690555183917f90fb84ad67dd037c388289337bb80b61b8605d38ba9a875dc38b5600909d172f91a2506001919050565b6000603e6000838152602001908152602001600020549050804210156040518060600160405280602181526020016151de60219139906141125760405162461bcd60e51b8152600401610b9b9190615023565b5060408051808201909152600d81526c0646561646c696e65206973203609c1b6020820152816141555760405162461bcd60e51b8152600401610b9b9190615023565b50506000908152603e6020526040812055565b600061417e846001600160a01b038516846147d4565b949350505050565b600061419284836147f1565b6000848152603a602090815260409182902080546001600160a01b0319166001600160a01b038716908117909155825190815290810184905285917fd46e58ee9dc1ae703349f8c09c19f23213a531b4d57f00cfd4a5a6cb6519668d91015b60405180910390a25060019392505050565b6003546000614211826144d1565b90508082146135205760035550565b6000808080614238866001600160a01b0387166148cb565b909450925050505b9250929050565b60008061425561315c611fdd565b9050600061426b6142646132cc565b859061359b565b905060008161427a84876150a7565b61428491906150a7565b905061428f82614905565b801561429e5761429e816149a8565b50909392505050565b6001600160a01b0381166142b9575050565b6002546040516317a790f160e11b81526001600160a01b0383811660048301526024820185905290911690632f4f21e29084906044016020604051808303818588803b15801561430857600080fd5b505af115801561431c573d6000803e3d6000fd5b50505050506040513d601f19601f82011682018060405250810190610e5b9190615078565b6000613534836001600160a01b038416614a12565b600061436284836147f1565b6000848152603b6020908152604091829020859055815185815290810184905285917f0e6790002e78fb96ff1fdfe3a3bb2a86489d3f3923372c1fe5b6b1fed071eed491016141f1565b6000828152603d60209081526040808320805490859055603b8352818420849055603e835281842084905581518181529283018590529185917fcc0bafe2accb565ea70674bf4b2555e49a47d410fb9932dfab3e5f41855d0a2f9101613e62565b600080600061441d614264611326565b9050804710156144b05761442f610a85565b6001600160a01b0316632e1a7d4d826040518263ffffffff1660e01b815260040161445c91815260200190565b602060405180830381600087803b15801561447657600080fd5b505af115801561448a573d6000803e3d6000fd5b505050506040513d601f19601f820116820180604052508101906144ae9190615001565b505b60006144bb82614247565b90506144c782866150a7565b9590945092505050565b6000806001600160a01b037f00000000000000000000000000000000000000000000000000000000000000001663d4fac45d30836040516001600160e01b031960e085901b1681526001600160a01b0392831660048201529116602482015260440160206040518083038186803b15801561454b57600080fd5b505afa15801561455f573d6000803e3d6000fd5b505050506040513d601f19601f820116820180604052508101906145839190615078565b90508083111561459b5761459681614a2f565b6146f5565b60405163019262d360e41b81523060048201527f00000000000000000000000000000000000000000000000000000000000000006001600160a01b0316906319262d309060240160206040518083038186803b1580156145fa57600080fd5b505afa15801561460e573d6000803e3d6000fd5b505050506040513d601f19601f820116820180604052508101906146329190615001565b156146f5576001600160a01b037f00000000000000000000000000000000000000000000000000000000000000001663f3fef3a360006040516001600160e01b031960e084901b1681526001600160a01b03909116600482015260248101869052604401602060405180830381600087803b1580156146b057600080fd5b505af11580156146c4573d6000803e3d6000fd5b505050506040513d601f19601f820116820180604052508101906146e89190615001565b50600092506146f561384f565b5090919050565b61474081614708610a85565b6001600160a01b0316631fe4a6866040518163ffffffff1660e01b815260040160206040518083038186803b1580156131ad57600080fd5b50565b60008181526002830160205260408120548015158061476757506147678484614cdf565b6135345760405162461bcd60e51b815260206004820152601e60248201527f456e756d657261626c654d61703a206e6f6e6578697374656e74206b657900006044820152606401610b9b565b600061105582614ceb565b6000806147cb8484614cf6565b50949350505050565b6000828152600284016020526040812082905561417e8484614d05565b603e600083815260200190815260200160002054600014604051806040016040528060128152602001710646561646c696e65206d75737420626520360741b815250906148515760405162461bcd60e51b8152600401610b9b9190615023565b5060408051808201909152601881527f64656c6179206265206174206c6561737420332064617973000000000000000060208201526203f4808210156148aa5760405162461bcd60e51b8152600401610b9b9190615023565b506148b581426150be565b6000928352603e60205260409092209190915550565b60008181526002830160205260408120548190806148fa576148ed8585614cdf565b9250600091506142409050565b600192509050614240565b6040516311f9fbc960e21b815260006004820152602481018290527f00000000000000000000000000000000000000000000000000000000000000006001600160a01b0316906347e7ef249083906044016020604051808303818588803b15801561496f57600080fd5b505af1158015614983573d6000803e3d6000fd5b50505050506040513d601f19601f820116820180604052508101906135209190615001565b6149da7f00000000000000000000000000000000000000000000000000000000000000006001600160a01b0316614d11565b6001600160a01b03166108fc829081150290604051600060405180830381858888f19350505050158015613520573d6000803e3d6000fd5b600081815260028301602052604081208190556135348383614d4b565b6000614a39610a85565b6001600160a01b031663853828b66040518163ffffffff1660e01b8152600401602060405180830381600087803b158015614a7357600080fd5b505af1158015614a87573d6000803e3d6000fd5b505050506040513d601f19601f82011682018060405250810190614aab9190615078565b90506000614abb600054836135ba565b60405163019262d360e41b81523060048201529091507f00000000000000000000000000000000000000000000000000000000000000006001600160a01b0316906319262d309060240160206040518083038186803b158015614b1d57600080fd5b505afa158015614b31573d6000803e3d6000fd5b505050506040513d601f19601f82011682018060405250810190614b559190615001565b15614cd157808310614c18576001600160a01b037f00000000000000000000000000000000000000000000000000000000000000001663f3fef3a360006040516001600160e01b031960e084901b1681526001600160a01b03909116600482015260248101849052604401602060405180830381600087803b158015614bda57600080fd5b505af1158015614bee573d6000803e3d6000fd5b505050506040513d601f19601f82011682018060405250810190614c129190615001565b50614cd1565b8215614cd1576001600160a01b037f00000000000000000000000000000000000000000000000000000000000000001663f3fef3a360006040516001600160e01b031960e084901b1681526001600160a01b03909116600482015260248101869052604401602060405180830381600087803b158015614c9757600080fd5b505af1158015614cab573d6000803e3d6000fd5b505050506040513d601f19601f82011682018060405250810190614ccf9190615001565b505b614cd961353b565b50505050565b60006135348383614d57565b600061105582614d6f565b60008080806142388686614d79565b60006135348383614da4565b6040516321f8a72160e01b815267747265617375727960c01b60048201526000906001600160a01b038316906321f8a72190602401613340565b60006135348383614df3565b60008181526001830160205260408120541515613534565b6000611055825490565b60008080614d878585614ee6565b600081815260029690960160205260409095205494959350505050565b6000818152600183016020526040812054614deb57508154600181810184556000848152602080822090930184905584548482528286019093526040902091909155611055565b506000611055565b60008181526001830160205260408120548015614edc576000614e176001836150a7565b8554909150600090614e2b906001906150a7565b9050818114614e90576000866000018281548110614e4b57614e4b61514a565b9060005260206000200154905080876000018481548110614e6e57614e6e61514a565b6000918252602080832090910192909255918252600188019052604090208390555b8554869080614ea157614ea161517b565b600190038181906000526020600020016000905590558560010160008681526020019081526020016000206000905560019350505050611055565b6000915050611055565b600061353483836000826000018281548110614f0457614f0461514a565b9060005260206000200154905092915050565b600060208284031215614f2957600080fd5b5035919050565b6001600160a01b038116811461474057600080fd5b60008060008060808587031215614f5b57600080fd5b8435614f6681614f30565b966020860135965060408601359560600135945092505050565b600060208284031215614f9257600080fd5b813561353481614f30565b6020808252825182820181905260009190848201906040850190845b81811015614fde5783516001600160a01b031683529284019291840191600101614fb9565b50909695505050505050565b9182526001600160a01b0316602082015260400190565b60006020828403121561501357600080fd5b8151801515811461353457600080fd5b600060208083528351808285015260005b8181101561505057858101830151858201604001528201615034565b81811115615062576000604083870101525b50601f01601f1916929092016040019392505050565b60006020828403121561508a57600080fd5b5051919050565b634e487b7160e01b600052601160045260246000fd5b6000828210156150b9576150b9615091565b500390565b600082198211156150d1576150d1615091565b500190565b6000602082840312156150e857600080fd5b815161353481614f30565b600081600019048311821515161561510d5761510d615091565b500290565b60008261512f57634e487b7160e01b600052601260045260246000fd5b500490565b634e487b7160e01b600052604160045260246000fd5b634e487b7160e01b600052603260045260246000fd5b600060001982141561517457615174615091565b5060010190565b634e487b7160e01b600052603160045260246000fdfe506f6f6c206d7573742062652070617573656420746f2077697468647261772066726f6d2072657365727665756e617574686f72697a65642061636365737300000000000000000000000000646561646c696e6520686173206e6f74206265656e207265616368656420796574a2646970667358221220a85753398ceff683f7a4a54f9030ac7f2293f555af3c66f8b5d4d218be873d7764736f6c63430008090033",
  "linkReferences": {},
  "deployedLinkReferences": {}
}