{
  "_format": "hh-sol-artifact-1",
  "contractName": "CoreCollection",
  "sourceName": "contracts/CoreCollection.sol",
  "abi": [
    {
      "inputs": [],
      "stateMutability": "nonpayable",
      "type": "constructor"
    },
    {
      "anonymous": false,
      "inputs": [
        {
          "indexed": true,
          "internalType": "address",
          "name": "owner",
          "type": "address"
        },
        {
          "indexed": true,
          "internalType": "address",
          "name": "approved",
          "type": "address"
        },
        {
          "indexed": true,
          "internalType": "uint256",
          "name": "tokenId",
          "type": "uint256"
        }
      ],
      "name": "Approval",
      "type": "event"
    },
    {
      "anonymous": false,
      "inputs": [
        {
          "indexed": true,
          "internalType": "address",
          "name": "owner",
          "type": "address"
        },
        {
          "indexed": true,
          "internalType": "address",
          "name": "operator",
          "type": "address"
        },
        {
          "indexed": false,
          "internalType": "bool",
          "name": "approved",
          "type": "bool"
        }
      ],
      "name": "ApprovalForAll",
      "type": "event"
    },
    {
      "anonymous": false,
      "inputs": [
        {
          "indexed": false,
          "internalType": "bytes32",
          "name": "root",
          "type": "bytes32"
        }
      ],
      "name": "ClaimInitialized",
      "type": "event"
    },
    {
      "anonymous": false,
      "inputs": [
        {
          "indexed": false,
          "internalType": "address",
          "name": "claimedBy",
          "type": "address"
        },
        {
          "indexed": false,
          "internalType": "address",
          "name": "to",
          "type": "address"
        },
        {
          "indexed": false,
          "internalType": "uint256",
          "name": "tokenId",
          "type": "uint256"
        }
      ],
      "name": "NewClaim",
      "type": "event"
    },
    {
      "anonymous": false,
      "inputs": [
        {
          "indexed": false,
          "internalType": "string",
          "name": "name",
          "type": "string"
        },
        {
          "indexed": false,
          "internalType": "string",
          "name": "symbol",
          "type": "string"
        }
      ],
      "name": "NewCollectionMeta",
      "type": "event"
    },
    {
      "anonymous": false,
      "inputs": [
        {
          "indexed": false,
          "internalType": "string",
          "name": "proof",
          "type": "string"
        }
      ],
      "name": "NewHashedProof",
      "type": "event"
    },
    {
      "anonymous": false,
      "inputs": [
        {
          "indexed": false,
          "internalType": "address",
          "name": "from",
          "type": "address"
        },
        {
          "indexed": false,
          "internalType": "address",
          "name": "to",
          "type": "address"
        },
        {
          "indexed": false,
          "internalType": "uint256",
          "name": "amount",
          "type": "uint256"
        },
        {
          "indexed": false,
          "internalType": "bool",
          "name": "royaltyVaultPayment",
          "type": "bool"
        }
      ],
      "name": "NewPayment",
      "type": "event"
    },
    {
      "anonymous": false,
      "inputs": [
        {
          "indexed": false,
          "internalType": "address",
          "name": "to",
          "type": "address"
        },
        {
          "indexed": false,
          "internalType": "uint256",
          "name": "amount",
          "type": "uint256"
        }
      ],
      "name": "NewWithdrawal",
      "type": "event"
    },
    {
      "anonymous": false,
      "inputs": [
        {
          "indexed": true,
          "internalType": "address",
          "name": "previousOwner",
          "type": "address"
        },
        {
          "indexed": true,
          "internalType": "address",
          "name": "newOwner",
          "type": "address"
        }
      ],
      "name": "OwnershipTransferred",
      "type": "event"
    },
    {
      "anonymous": false,
      "inputs": [
        {
          "indexed": false,
          "internalType": "address",
          "name": "royaltyVault",
          "type": "address"
        }
      ],
      "name": "RoyaltyVaultInitialized",
      "type": "event"
    },
    {
      "anonymous": false,
      "inputs": [
        {
          "indexed": false,
          "internalType": "uint256",
          "name": "index",
          "type": "uint256"
        }
      ],
      "name": "StartingIndexSet",
      "type": "event"
    },
    {
      "anonymous": false,
      "inputs": [
        {
          "indexed": true,
          "internalType": "address",
          "name": "from",
          "type": "address"
        },
        {
          "indexed": true,
          "internalType": "address",
          "name": "to",
          "type": "address"
        },
        {
          "indexed": true,
          "internalType": "uint256",
          "name": "tokenId",
          "type": "uint256"
        }
      ],
      "name": "Transfer",
      "type": "event"
    },
    {
      "inputs": [],
      "name": "HASHED_PROOF",
      "outputs": [
        {
          "internalType": "string",
          "name": "",
          "type": "string"
        }
      ],
      "stateMutability": "view",
      "type": "function"
    },
    {
      "inputs": [
        {
          "internalType": "address",
          "name": "to",
          "type": "address"
        },
        {
          "internalType": "uint256",
          "name": "tokenId",
          "type": "uint256"
        }
      ],
      "name": "approve",
      "outputs": [],
      "stateMutability": "nonpayable",
      "type": "function"
    },
    {
      "inputs": [
        {
          "internalType": "address",
          "name": "owner",
          "type": "address"
        }
      ],
      "name": "balanceOf",
      "outputs": [
        {
          "internalType": "uint256",
          "name": "",
          "type": "uint256"
        }
      ],
      "stateMutability": "view",
      "type": "function"
    },
    {
      "inputs": [],
      "name": "baseURI",
      "outputs": [
        {
          "internalType": "string",
          "name": "",
          "type": "string"
        }
      ],
      "stateMutability": "view",
      "type": "function"
    },
    {
      "inputs": [
        {
          "internalType": "address",
          "name": "who",
          "type": "address"
        },
        {
          "internalType": "uint256",
          "name": "claimableAmount",
          "type": "uint256"
        },
        {
          "internalType": "uint256",
          "name": "claimedAmount",
          "type": "uint256"
        },
        {
          "internalType": "bytes32[]",
          "name": "merkleProof",
          "type": "bytes32[]"
        }
      ],
      "name": "canClaim",
      "outputs": [
        {
          "internalType": "bool",
          "name": "",
          "type": "bool"
        }
      ],
      "stateMutability": "view",
      "type": "function"
    },
    {
      "inputs": [],
      "name": "claimableSet",
      "outputs": [
        {
          "internalType": "bool",
          "name": "",
          "type": "bool"
        }
      ],
      "stateMutability": "view",
      "type": "function"
    },
    {
      "inputs": [
        {
          "internalType": "uint256",
          "name": "tokenId",
          "type": "uint256"
        }
      ],
      "name": "getApproved",
      "outputs": [
        {
          "internalType": "address",
          "name": "",
          "type": "address"
        }
      ],
      "stateMutability": "view",
      "type": "function"
    },
    {
      "inputs": [],
      "name": "getMerkleRoot",
      "outputs": [
        {
          "internalType": "bytes32",
          "name": "",
          "type": "bytes32"
        }
      ],
      "stateMutability": "view",
      "type": "function"
    },
    {
      "inputs": [
        {
          "internalType": "string",
          "name": "_collectionName",
          "type": "string"
        },
        {
          "internalType": "string",
          "name": "_collectionSymbol",
          "type": "string"
        },
        {
          "internalType": "string",
          "name": "_collectionURI",
          "type": "string"
        },
        {
          "internalType": "uint256",
          "name": "_maxSupply",
          "type": "uint256"
        },
        {
          "internalType": "uint256",
          "name": "_mintFee",
          "type": "uint256"
        },
        {
          "internalType": "address",
          "name": "_payableToken",
          "type": "address"
        },
        {
          "internalType": "bool",
          "name": "_isForSale",
          "type": "bool"
        },
        {
          "internalType": "address",
          "name": "_splitFactory",
          "type": "address"
        }
      ],
      "name": "initialize",
      "outputs": [],
      "stateMutability": "nonpayable",
      "type": "function"
    },
    {
      "inputs": [
        {
          "internalType": "bytes32",
          "name": "_root",
          "type": "bytes32"
        }
      ],
      "name": "initializeClaims",
      "outputs": [],
      "stateMutability": "nonpayable",
      "type": "function"
    },
    {
      "inputs": [],
      "name": "initialized",
      "outputs": [
        {
          "internalType": "bool",
          "name": "",
          "type": "bool"
        }
      ],
      "stateMutability": "view",
      "type": "function"
    },
    {
      "inputs": [
        {
          "internalType": "address",
          "name": "owner",
          "type": "address"
        },
        {
          "internalType": "address",
          "name": "operator",
          "type": "address"
        }
      ],
      "name": "isApprovedForAll",
      "outputs": [
        {
          "internalType": "bool",
          "name": "",
          "type": "bool"
        }
      ],
      "stateMutability": "view",
      "type": "function"
    },
    {
      "inputs": [],
      "name": "isForSale",
      "outputs": [
        {
          "internalType": "bool",
          "name": "",
          "type": "bool"
        }
      ],
      "stateMutability": "view",
      "type": "function"
    },
    {
      "inputs": [],
      "name": "maxSupply",
      "outputs": [
        {
          "internalType": "uint256",
          "name": "",
          "type": "uint256"
        }
      ],
      "stateMutability": "view",
      "type": "function"
    },
    {
      "inputs": [],
      "name": "mintFee",
      "outputs": [
        {
          "internalType": "uint256",
          "name": "",
          "type": "uint256"
        }
      ],
      "stateMutability": "view",
      "type": "function"
    },
    {
      "inputs": [
        {
          "internalType": "address",
          "name": "to",
          "type": "address"
        },
        {
          "internalType": "bool",
          "name": "isClaim",
          "type": "bool"
        },
        {
          "internalType": "uint256",
          "name": "claimableAmount",
          "type": "uint256"
        },
        {
          "internalType": "uint256",
          "name": "amount",
          "type": "uint256"
        },
        {
          "internalType": "bytes32[]",
          "name": "merkleProof",
          "type": "bytes32[]"
        }
      ],
      "name": "mintToken",
      "outputs": [],
      "stateMutability": "nonpayable",
      "type": "function"
    },
    {
      "inputs": [],
      "name": "name",
      "outputs": [
        {
          "internalType": "string",
          "name": "",
          "type": "string"
        }
      ],
      "stateMutability": "view",
      "type": "function"
    },
    {
      "inputs": [],
      "name": "owner",
      "outputs": [
        {
          "internalType": "address",
          "name": "",
          "type": "address"
        }
      ],
      "stateMutability": "view",
      "type": "function"
    },
    {
      "inputs": [
        {
          "internalType": "uint256",
          "name": "tokenId",
          "type": "uint256"
        }
      ],
      "name": "ownerOf",
      "outputs": [
        {
          "internalType": "address",
          "name": "",
          "type": "address"
        }
      ],
      "stateMutability": "view",
      "type": "function"
    },
    {
      "inputs": [],
      "name": "payableToken",
      "outputs": [
        {
          "internalType": "contract IERC20",
          "name": "",
          "type": "address"
        }
      ],
      "stateMutability": "view",
      "type": "function"
    },
    {
      "inputs": [
        {
          "internalType": "bytes32[]",
          "name": "proof",
          "type": "bytes32[]"
        },
        {
          "internalType": "bytes32",
          "name": "leaf",
          "type": "bytes32"
        }
      ],
      "name": "processProof",
      "outputs": [
        {
          "internalType": "bytes32",
          "name": "",
          "type": "bytes32"
        }
      ],
      "stateMutability": "pure",
      "type": "function"
    },
    {
      "inputs": [],
      "name": "renounceOwnership",
      "outputs": [],
      "stateMutability": "nonpayable",
      "type": "function"
    },
    {
      "inputs": [],
      "name": "royaltyVault",
      "outputs": [
        {
          "internalType": "address",
          "name": "",
          "type": "address"
        }
      ],
      "stateMutability": "view",
      "type": "function"
    },
    {
      "inputs": [],
      "name": "royaltyVaultInitialized",
      "outputs": [
        {
          "internalType": "bool",
          "name": "",
          "type": "bool"
        }
      ],
      "stateMutability": "view",
      "type": "function"
    },
    {
      "inputs": [
        {
          "internalType": "address",
          "name": "from",
          "type": "address"
        },
        {
          "internalType": "address",
          "name": "to",
          "type": "address"
        },
        {
          "internalType": "uint256",
          "name": "tokenId",
          "type": "uint256"
        }
      ],
      "name": "safeTransferFrom",
      "outputs": [],
      "stateMutability": "nonpayable",
      "type": "function"
    },
    {
      "inputs": [
        {
          "internalType": "address",
          "name": "from",
          "type": "address"
        },
        {
          "internalType": "address",
          "name": "to",
          "type": "address"
        },
        {
          "internalType": "uint256",
          "name": "tokenId",
          "type": "uint256"
        },
        {
          "internalType": "bytes",
          "name": "_data",
          "type": "bytes"
        }
      ],
      "name": "safeTransferFrom",
      "outputs": [],
      "stateMutability": "nonpayable",
      "type": "function"
    },
    {
      "inputs": [
        {
          "internalType": "address",
          "name": "operator",
          "type": "address"
        },
        {
          "internalType": "bool",
          "name": "approved",
          "type": "bool"
        }
      ],
      "name": "setApprovalForAll",
      "outputs": [],
      "stateMutability": "nonpayable",
      "type": "function"
    },
    {
      "inputs": [
        {
          "internalType": "string",
          "name": "_collectionName",
          "type": "string"
        },
        {
          "internalType": "string",
          "name": "_collectionSymbol",
          "type": "string"
        }
      ],
      "name": "setCollectionMeta",
      "outputs": [],
      "stateMutability": "nonpayable",
      "type": "function"
    },
    {
      "inputs": [
        {
          "internalType": "string",
          "name": "_proof",
          "type": "string"
        }
      ],
      "name": "setHashedProof",
      "outputs": [],
      "stateMutability": "nonpayable",
      "type": "function"
    },
    {
      "inputs": [
        {
          "internalType": "address",
          "name": "_royaltyVault",
          "type": "address"
        }
      ],
      "name": "setRoyaltyVault",
      "outputs": [],
      "stateMutability": "nonpayable",
      "type": "function"
    },
    {
      "inputs": [],
      "name": "setStartingIndex",
      "outputs": [],
      "stateMutability": "nonpayable",
      "type": "function"
    },
    {
      "inputs": [],
      "name": "splitFactory",
      "outputs": [
        {
          "internalType": "address",
          "name": "",
          "type": "address"
        }
      ],
      "stateMutability": "view",
      "type": "function"
    },
    {
      "inputs": [],
      "name": "startingIndex",
      "outputs": [
        {
          "internalType": "uint256",
          "name": "",
          "type": "uint256"
        }
      ],
      "stateMutability": "view",
      "type": "function"
    },
    {
      "inputs": [],
      "name": "startingIndexBlock",
      "outputs": [
        {
          "internalType": "uint256",
          "name": "",
          "type": "uint256"
        }
      ],
      "stateMutability": "view",
      "type": "function"
    },
    {
      "inputs": [
        {
          "internalType": "bytes4",
          "name": "interfaceId",
          "type": "bytes4"
        }
      ],
      "name": "supportsInterface",
      "outputs": [
        {
          "internalType": "bool",
          "name": "",
          "type": "bool"
        }
      ],
      "stateMutability": "view",
      "type": "function"
    },
    {
      "inputs": [],
      "name": "symbol",
      "outputs": [
        {
          "internalType": "string",
          "name": "",
          "type": "string"
        }
      ],
      "stateMutability": "view",
      "type": "function"
    },
    {
      "inputs": [
        {
          "internalType": "uint256",
          "name": "index",
          "type": "uint256"
        }
      ],
      "name": "tokenByIndex",
      "outputs": [
        {
          "internalType": "uint256",
          "name": "",
          "type": "uint256"
        }
      ],
      "stateMutability": "view",
      "type": "function"
    },
    {
      "inputs": [
        {
          "internalType": "address",
          "name": "owner",
          "type": "address"
        },
        {
          "internalType": "uint256",
          "name": "index",
          "type": "uint256"
        }
      ],
      "name": "tokenOfOwnerByIndex",
      "outputs": [
        {
          "internalType": "uint256",
          "name": "",
          "type": "uint256"
        }
      ],
      "stateMutability": "view",
      "type": "function"
    },
    {
      "inputs": [
        {
          "internalType": "uint256",
          "name": "tokenId",
          "type": "uint256"
        }
      ],
      "name": "tokenURI",
      "outputs": [
        {
          "internalType": "string",
          "name": "",
          "type": "string"
        }
      ],
      "stateMutability": "view",
      "type": "function"
    },
    {
      "inputs": [],
      "name": "totalSupply",
      "outputs": [
        {
          "internalType": "uint256",
          "name": "",
          "type": "uint256"
        }
      ],
      "stateMutability": "view",
      "type": "function"
    },
    {
      "inputs": [
        {
          "internalType": "address",
          "name": "from",
          "type": "address"
        },
        {
          "internalType": "address",
          "name": "to",
          "type": "address"
        },
        {
          "internalType": "uint256",
          "name": "tokenId",
          "type": "uint256"
        }
      ],
      "name": "transferFrom",
      "outputs": [],
      "stateMutability": "nonpayable",
      "type": "function"
    },
    {
      "inputs": [
        {
          "internalType": "address",
          "name": "newOwner",
          "type": "address"
        }
      ],
      "name": "transferOwnership",
      "outputs": [],
      "stateMutability": "nonpayable",
      "type": "function"
    },
    {
      "inputs": [
        {
          "internalType": "bytes32[]",
          "name": "proof",
          "type": "bytes32[]"
        },
        {
          "internalType": "bytes32",
          "name": "root",
          "type": "bytes32"
        },
        {
          "internalType": "bytes32",
          "name": "leaf",
          "type": "bytes32"
        }
      ],
      "name": "verifyProof",
      "outputs": [
        {
          "internalType": "bool",
          "name": "",
          "type": "bool"
        }
      ],
      "stateMutability": "pure",
      "type": "function"
    },
    {
      "inputs": [],
      "name": "withdraw",
      "outputs": [],
      "stateMutability": "nonpayable",
      "type": "function"
    }
  ],
  "bytecode": "0x60a06040819052600060808190526200001b91601791620000d5565b503480156200002957600080fd5b5060408051602080820183526000808352835191820190935291825290620000513362000085565b815162000066906003906020850190620000d5565b5080516200007c906004906020840190620000d5565b505050620001b8565b600080546001600160a01b038381166001600160a01b0319831681178455604051919092169283917f8be0079c531659141344cd1fd0a4f28419497f9722a3daafe3b4186f6b6457e09190a35050565b828054620000e3906200017b565b90600052602060002090601f01602090048101928262000107576000855562000152565b82601f106200012257805160ff191683800117855562000152565b8280016001018555821562000152579182015b828111156200015257825182559160200191906001019062000135565b506200016092915062000164565b5090565b5b8082111562000160576000815560010162000165565b600181811c908216806200019057607f821691505b60208210811415620001b257634e487b7160e01b600052602260045260246000fd5b50919050565b61360880620001c86000396000f3fe608060405234801561001057600080fd5b50600436106102f45760003560e01c806370a0823111610191578063b88d4fde116100e3578063e36d649811610097578063e986655011610071578063e9866550146105ec578063f2fde38b146105f4578063f36523151461060757600080fd5b8063e36d649814610594578063e3c085f81461059d578063e985e9c5146105b057600080fd5b8063cb774d47116100c8578063cb774d471461056f578063d1b58b0814610578578063d5abeb011461058b57600080fd5b8063b88d4fde14610549578063c87b56dd1461055c57600080fd5b80639069e98e11610145578063a22cb4651161011f578063a22cb46514610510578063a34572b914610523578063b58dd1c81461053657600080fd5b80639069e98e146104e257806393225993146104f557806395d89b411461050857600080fd5b806371a5855c1161017657806371a5855c146104b6578063752972bc146104c95780638da5cb5b146104d157600080fd5b806370a082311461049b578063715018a6146104ae57600080fd5b80633ccfd60b1161024a5780635720babb116101fe5780636352211e116101d85780636352211e146104785780636c0360eb1461048b5780637060d4831461049357600080fd5b80635720babb1461043f57806359e7a4bb1461045257806362702a6b1461046557600080fd5b8063495906571161022f57806349590657146104115780634bc935d7146104195780634f6ccce71461042c57600080fd5b80633ccfd60b146103f657806342842e0e146103fe57600080fd5b8063158ef93e116102ac57806320b08dc21161028657806320b08dc2146103bc57806323b872dd146103d05780632f745c59146103e357600080fd5b8063158ef93e1461038d57806318160ddd146103a15780631b09dc9b146103a957600080fd5b8063081812fc116102dd578063081812fc14610336578063095ea7b31461036157806313966db51461037657600080fd5b806301ffc9a7146102f957806306fdde0314610321575b600080fd5b61030c610307366004613154565b61061a565b60405190151581526020015b60405180910390f35b61032961065e565b6040516103189190613402565b61034961034436600461313c565b6106f0565b6040516001600160a01b039091168152602001610318565b61037461036f366004613002565b61078a565b005b61037f600d5481565b604051908152602001610318565b60105461030c90600160a01b900460ff1681565b600b5461037f565b600e54610349906001600160a01b031681565b600e5461030c90600160a01b900460ff1681565b6103746103de366004612ea0565b6108bc565b61037f6103f1366004613002565b610943565b6103746109eb565b61037461040c366004612ea0565b610ba3565b60015461037f565b61030c6104273660046130d4565b610bc4565b61037f61043a36600461313c565b610bd9565b601054610349906001600160a01b031681565b61037461046036600461318c565b610c8b565b61037f610473366004613091565b610db1565b61034961048636600461313c565b610dc4565b610329610e4f565b610329610e5e565b61037f6104a9366004612e54565b610eec565b610374610f86565b61030c6104c436600461302b565b610fec565b61030c6110f1565b6000546001600160a01b0316610349565b6103746104f036600461313c565b611104565b600f54610349906001600160a01b031681565b610329611260565b61037461051e366004612f54565b61126f565b610374610531366004612e54565b61127e565b600f546001600160a01b0316151561030c565b610374610557366004612edb565b611406565b61032961056a36600461313c565b611494565b61037f60155481565b61037461058636600461325a565b61157c565b61037f60145481565b61037f60165481565b6103746105ab366004612f8a565b6116eb565b61030c6105be366004612e6e565b6001600160a01b03918216600090815260086020908152604080832093909416825291909152205460ff1690565b61037461196b565b610374610602366004612e54565b611a82565b6103746106153660046131f9565b611b64565b60006001600160e01b031982167f780e9d63000000000000000000000000000000000000000000000000000000001480610658575061065882611c17565b92915050565b60606011805461066d90613502565b80601f016020809104026020016040519081016040528092919081815260200182805461069990613502565b80156106e65780601f106106bb576101008083540402835291602001916106e6565b820191906000526020600020905b8154815290600101906020018083116106c957829003601f168201915b5050505050905090565b6000818152600560205260408120546001600160a01b031661076e5760405162461bcd60e51b815260206004820152602c60248201527f4552433732313a20617070726f76656420717565727920666f72206e6f6e657860448201526b34b9ba32b73a103a37b5b2b760a11b60648201526084015b60405180910390fd5b506000908152600760205260409020546001600160a01b031690565b600061079582610dc4565b9050806001600160a01b0316836001600160a01b0316141561081f5760405162461bcd60e51b815260206004820152602160248201527f4552433732313a20617070726f76616c20746f2063757272656e74206f776e6560448201527f72000000000000000000000000000000000000000000000000000000000000006064820152608401610765565b336001600160a01b038216148061083b575061083b81336105be565b6108ad5760405162461bcd60e51b815260206004820152603860248201527f4552433732313a20617070726f76652063616c6c6572206973206e6f74206f7760448201527f6e6572206e6f7220617070726f76656420666f7220616c6c00000000000000006064820152608401610765565b6108b78383611cb2565b505050565b6108c63382611d20565b6109385760405162461bcd60e51b815260206004820152603160248201527f4552433732313a207472616e736665722063616c6c6572206973206e6f74206f60448201527f776e6572206e6f7220617070726f7665640000000000000000000000000000006064820152608401610765565b6108b7838383611e13565b600061094e83610eec565b82106109c25760405162461bcd60e51b815260206004820152602b60248201527f455243373231456e756d657261626c653a206f776e657220696e646578206f7560448201527f74206f6620626f756e64730000000000000000000000000000000000000000006064820152608401610765565b506001600160a01b03919091166000908152600960209081526040808320938352929052205490565b6000546001600160a01b03163314610a455760405162461bcd60e51b815260206004820181905260248201527f4f776e61626c653a2063616c6c6572206973206e6f7420746865206f776e65726044820152606401610765565b600e546040517f70a082310000000000000000000000000000000000000000000000000000000081523060048201526000916001600160a01b0316906370a082319060240160206040518083038186803b158015610aa257600080fd5b505afa158015610ab6573d6000803e3d6000fd5b505050506040513d601f19601f82011682018060405250810190610ada9190613324565b600e546040516323b872dd60e01b8152306004820152336024820152604481018390529192506001600160a01b0316906323b872dd90606401602060405180830381600087803b158015610b2d57600080fd5b505af1158015610b41573d6000803e3d6000fd5b505050506040513d601f19601f82011682018060405250810190610b659190613120565b5060408051338152602081018390527f6e2e05fb6a732995d6952d9158ca6b75f11cc6bf5a4af943aa1eb475a249440b91015b60405180910390a150565b6108b783838360405180602001604052806000815250611406565b60015490565b6000610bd1848484611feb565b949350505050565b6000610be4600b5490565b8210610c585760405162461bcd60e51b815260206004820152602c60248201527f455243373231456e756d657261626c653a20676c6f62616c20696e646578206f60448201527f7574206f6620626f756e647300000000000000000000000000000000000000006064820152608401610765565b600b8281548110610c7957634e487b7160e01b600052603260045260246000fd5b90600052602060002001549050919050565b6000546001600160a01b03163314610ce55760405162461bcd60e51b815260206004820181905260248201527f4f776e61626c653a2063616c6c6572206973206e6f7420746865206f776e65726044820152606401610765565b60178054610cf290613502565b159050610d675760405162461bcd60e51b815260206004820152602360248201527f436f7265436f6c6c656374696f6e3a204861736865642050726f6f662069732060448201527f73657400000000000000000000000000000000000000000000000000000000006064820152608401610765565b610d7360178383612be1565b507fdaf1be011a2300361f34233949d61ccda0cd8b43d120c62258b05dd3008ff29c8282604051610da59291906133d3565b60405180910390a15050565b6000610dbd8383612001565b9392505050565b6000818152600560205260408120546001600160a01b0316806106585760405162461bcd60e51b815260206004820152602960248201527f4552433732313a206f776e657220717565727920666f72206e6f6e657869737460448201527f656e7420746f6b656e00000000000000000000000000000000000000000000006064820152608401610765565b60606013805461066d90613502565b60178054610e6b90613502565b80601f0160208091040260200160405190810160405280929190818152602001828054610e9790613502565b8015610ee45780601f10610eb957610100808354040283529160200191610ee4565b820191906000526020600020905b815481529060010190602001808311610ec757829003601f168201915b505050505081565b60006001600160a01b038216610f6a5760405162461bcd60e51b815260206004820152602a60248201527f4552433732313a2062616c616e636520717565727920666f7220746865207a6560448201527f726f2061646472657373000000000000000000000000000000000000000000006064820152608401610765565b506001600160a01b031660009081526006602052604090205490565b6000546001600160a01b03163314610fe05760405162461bcd60e51b815260206004820181905260248201527f4f776e61626c653a2063616c6c6572206973206e6f7420746865206f776e65726044820152606401610765565b610fea6000612083565b565b600061107383838080602002602001604051908101604052809392919081815260200183836020028082843760009201919091525061102e9250610bbe915050565b6040805160608b901b6bffffffffffffffffffffffff191660208083019190915260348083018c90528351808403909101815260549092019092528051910120610bc4565b6110bf5760405162461bcd60e51b815260206004820152601e60248201527f455243373231436c61696d61626c653a20496e76616c69642070726f6f6600006044820152606401610765565b6001600160a01b03861660009081526002602052604090205485906110e5908690613474565b11159695505050505050565b6000806110fd60015490565b1415905090565b6000546001600160a01b0316331461115e5760405162461bcd60e51b815260206004820181905260248201527f4f776e61626c653a2063616c6c6572206973206e6f7420746865206f776e65726044820152606401610765565b6111666110f1565b156111d95760405162461bcd60e51b815260206004820152602960248201527f455243373231436c61696d61626c653a20436c61696d61626c6520697320616c60448201527f72656164792073657400000000000000000000000000000000000000000000006064820152608401610765565b80806112275760405162461bcd60e51b815260206004820152601f60248201527f455243373231436c61696d61626c653a204e6f742076616c696420726f6f74006044820152606401610765565b61123082600155565b6040518281527f69e04f4de2488e73dd4d95361a26afd0f357aa33f2d40f3083b7b7240bf69e2290602001610da5565b60606012805461066d90613502565b61127a3383836120d3565b5050565b600f546001600160a01b0316156112fd5760405162461bcd60e51b815260206004820152603160248201527f436f7265436f6c6c656374696f6e3a20526f79616c7479205661756c7420616c60448201527f726561647920696e697469616c697a65640000000000000000000000000000006064820152608401610765565b6010546001600160a01b031633148061132057506000546001600160a01b031633145b6113b85760405162461bcd60e51b815260206004820152604160248201527f436f7265436f6c6c656374696f6e3a204f6e6c792053706c697420466163746f60448201527f7279206f72206f776e65722063616e20696e697469616c697a65207661756c7460648201527f2e00000000000000000000000000000000000000000000000000000000000000608482015260a401610765565b600f80546001600160a01b0319166001600160a01b0383169081179091556040519081527f292280c7e35304d072a608c170df2e62aaa3e8b544d366ea1e8a59933929d80890602001610b98565b6114103383611d20565b6114825760405162461bcd60e51b815260206004820152603160248201527f4552433732313a207472616e736665722063616c6c6572206973206e6f74206f60448201527f776e6572206e6f7220617070726f7665640000000000000000000000000000006064820152608401610765565b61148e848484846121a2565b50505050565b6000818152600560205260409020546060906001600160a01b03166115215760405162461bcd60e51b815260206004820152602f60248201527f4552433732314d657461646174613a2055524920717565727920666f72206e6f60448201527f6e6578697374656e7420746f6b656e00000000000000000000000000000000006064820152608401610765565b600061152b610e4f565b9050600081511161154b5760405180602001604052806000815250610dbd565b806115558461222b565b604051602001611566929190613368565b6040516020818303038152906040529392505050565b6000546001600160a01b031633146115d65760405162461bcd60e51b815260206004820181905260248201527f4f776e61626c653a2063616c6c6572206973206e6f7420746865206f776e65726044820152606401610765565b846000811161164d5760405162461bcd60e51b815260206004820152603360248201527f436f7265436f6c6c656374696f6e3a204d617820737570706c792073686f756c60448201527f642062652067726561746572207468616e2030000000000000000000000000006064820152608401610765565b88516116609060119060208c0190612c65565b5087516116749060129060208b0190612c65565b5086516116889060139060208a0190612c65565b5050601494909455600d92909255600e80546001600160a01b039283167fffffffffffffffffffffff00000000000000000000000000000000000000000091821617600160a01b9415158502179091556010805492909416911617179055505050565b601054600160a01b900460ff166117445760405162461bcd60e51b815260206004820152601f60248201527f436f7265436f6c6c656374696f6e3a204e6f7420696e697469616c697a6564006044820152606401610765565b600083116117ba5760405162461bcd60e51b815260206004820152602f60248201527f436f7265436f6c6c656374696f6e3a20416d6f756e742073686f756c6420626560448201527f2067726561746572207468616e203000000000000000000000000000000000006064820152608401610765565b601454836117c7600b5490565b6117d19190613474565b111561181f5760405162461bcd60e51b815260206004820152601f60248201527f436f7265436f6c6c656374696f6e3a204f766572204d617820537570706c79006044820152606401610765565b84156118e15761182d6110f1565b6118795760405162461bcd60e51b815260206004820152601c60248201527f436f7265436f6c6c656374696f6e3a204e6f20636c61696d61626c65000000006044820152606401610765565b6118863385858585610fec565b6118d25760405162461bcd60e51b815260206004820152601b60248201527f436f7265436f6c6c656374696f6e3a2043616e277420636c61696d00000000006044820152606401610765565b6118dc3384612379565b611958565b600e54600160a01b900460ff1661193a5760405162461bcd60e51b815260206004820152601c60248201527f436f7265436f6c6c656374696f6e3a204e6f7420666f722073616c65000000006044820152606401610765565b600d54156119585761195883600d5461195391906134a0565b6123aa565b6119638684876124cb565b505050505050565b601554156119e15760405162461bcd60e51b815260206004820152602d60248201527f436f7265436f6c6c656374696f6e3a205374617274696e6720696e646578206960448201527f7320616c726561647920736574000000000000000000000000000000000000006064820152608401610765565b6014546040517f436f7265436f6c6c656374696f6e000000000000000000000000000000000000602082015243602e820152604e016040516020818303038152906040528051906020012060001c611a399190613558565b611a44906001613474565b6015819055436016556040519081527fca6fb0afaccdd6d4e6bae677f2228557803ae36f831e27606d4f4ccffc4286599060200160405180910390a1565b6000546001600160a01b03163314611adc5760405162461bcd60e51b815260206004820181905260248201527f4f776e61626c653a2063616c6c6572206973206e6f7420746865206f776e65726044820152606401610765565b6001600160a01b038116611b585760405162461bcd60e51b815260206004820152602660248201527f4f776e61626c653a206e6577206f776e657220697320746865207a65726f206160448201527f64647265737300000000000000000000000000000000000000000000000000006064820152608401610765565b611b6181612083565b50565b6000546001600160a01b03163314611bbe5760405162461bcd60e51b815260206004820181905260248201527f4f776e61626c653a2063616c6c6572206973206e6f7420746865206f776e65726044820152606401610765565b8151611bd1906011906020850190612c65565b508051611be5906012906020840190612c65565b507f6cd0b5298f557f863c4c20951f173bf9b491840a74820d56c8bed698c14208d38282604051610da5929190613415565b60006001600160e01b031982167f80ac58cd000000000000000000000000000000000000000000000000000000001480611c7a57506001600160e01b031982167f5b5e139f00000000000000000000000000000000000000000000000000000000145b8061065857507f01ffc9a7000000000000000000000000000000000000000000000000000000006001600160e01b0319831614610658565b600081815260076020526040902080546001600160a01b0319166001600160a01b0384169081179091558190611ce782610dc4565b6001600160a01b03167f8c5be1e5ebec7d5bd14f71427d1e84f3dd0314c0f7b2291e5b200ac8c7c3b92560405160405180910390a45050565b6000818152600560205260408120546001600160a01b0316611d995760405162461bcd60e51b815260206004820152602c60248201527f4552433732313a206f70657261746f7220717565727920666f72206e6f6e657860448201526b34b9ba32b73a103a37b5b2b760a11b6064820152608401610765565b6000611da483610dc4565b9050806001600160a01b0316846001600160a01b03161480611ddf5750836001600160a01b0316611dd4846106f0565b6001600160a01b0316145b80610bd157506001600160a01b0380821660009081526008602090815260408083209388168352929052205460ff16610bd1565b826001600160a01b0316611e2682610dc4565b6001600160a01b031614611ea25760405162461bcd60e51b815260206004820152602560248201527f4552433732313a207472616e736665722066726f6d20696e636f72726563742060448201527f6f776e65720000000000000000000000000000000000000000000000000000006064820152608401610765565b6001600160a01b038216611f1d5760405162461bcd60e51b8152602060048201526024808201527f4552433732313a207472616e7366657220746f20746865207a65726f2061646460448201527f72657373000000000000000000000000000000000000000000000000000000006064820152608401610765565b611f28838383612546565b611f33600082611cb2565b6001600160a01b0383166000908152600660205260408120805460019290611f5c9084906134bf565b90915550506001600160a01b0382166000908152600660205260408120805460019290611f8a908490613474565b909155505060008181526005602052604080822080546001600160a01b0319166001600160a01b0386811691821790925591518493918716917fddf252ad1be2c89b69c2b068fc378daa952ba7f163c4a11628f55a4df523b3ef91a4505050565b600082611ff88584612001565b14949350505050565b600081815b845181101561207b57600085828151811061203157634e487b7160e01b600052603260045260246000fd5b602002602001015190508083116120575760008381526020829052604090209250612068565b600081815260208490526040902092505b50806120738161353d565b915050612006565b509392505050565b600080546001600160a01b038381166001600160a01b0319831681178455604051919092169283917f8be0079c531659141344cd1fd0a4f28419497f9722a3daafe3b4186f6b6457e09190a35050565b816001600160a01b0316836001600160a01b031614156121355760405162461bcd60e51b815260206004820152601960248201527f4552433732313a20617070726f766520746f2063616c6c6572000000000000006044820152606401610765565b6001600160a01b03838116600081815260086020908152604080832094871680845294825291829020805460ff191686151590811790915591519182527f17307eab39ab6107e8899845ad3d59bd9653f200f220920489ca2b5937696c31910160405180910390a3505050565b6121ad848484611e13565b6121b984848484612670565b61148e5760405162461bcd60e51b815260206004820152603260248201527f4552433732313a207472616e7366657220746f206e6f6e20455243373231526560448201527f63656976657220696d706c656d656e74657200000000000000000000000000006064820152608401610765565b60608161226b57505060408051808201909152600181527f3000000000000000000000000000000000000000000000000000000000000000602082015290565b8160005b8115612295578061227f8161353d565b915061228e9050600a8361348c565b915061226f565b60008167ffffffffffffffff8111156122be57634e487b7160e01b600052604160045260246000fd5b6040519080825280601f01601f1916602001820160405280156122e8576020820181803683370190505b5090505b8415610bd1576122fd6001836134bf565b915061230a600a86613558565b612315906030613474565b60f81b81838151811061233857634e487b7160e01b600052603260045260246000fd5b60200101907effffffffffffffffffffffffffffffffffffffffffffffffffffffffffffff1916908160001a905350612372600a8661348c565b94506122ec565b6001600160a01b038216600090815260026020526040812080548392906123a1908490613474565b90915550505050565b60006123c0600f546001600160a01b0316151590565b6123ca57306123d7565b600f546001600160a01b03165b600e546040516323b872dd60e01b81523360048201526001600160a01b038084166024830152604482018690529293509116906323b872dd90606401602060405180830381600087803b15801561242d57600080fd5b505af1158015612441573d6000803e3d6000fd5b505050506040513d601f19601f820116820180604052508101906124659190613120565b507f92c0859818afe77360be2f57193c5c27c665ca340dda172f1402d42cc031ba2e33828461249e600f546001600160a01b0316151590565b604080516001600160a01b0395861681529490931660208501529183015215156060820152608001610da5565b60005b8281101561148e5760006124e1856127d3565b9050821561253357604080513381526001600160a01b03871660208201529081018290527f4869c61031d189c5af20039bdb04d7d557499b1ed01b3e3656fac6d302d6b8ed9060600160405180910390a15b508061253e8161353d565b9150506124ce565b612551838383612821565b600f546001600160a01b0316158015906125fe5750600f54604080517fed12e8ef00000000000000000000000000000000000000000000000000000000815290516000926001600160a01b03169163ed12e8ef916004808301926020929190829003018186803b1580156125c457600080fd5b505afa1580156125d8573d6000803e3d6000fd5b505050506040513d601f19601f820116820180604052508101906125fc9190613324565b115b156108b757600f60009054906101000a90046001600160a01b03166001600160a01b0316639009ff8f6040518163ffffffff1660e01b8152600401600060405180830381600087803b15801561265357600080fd5b505af1158015612667573d6000803e3d6000fd5b50505050505050565b60006001600160a01b0384163b156127c857604051630a85bd0160e11b81526001600160a01b0385169063150b7a02906126b4903390899088908890600401613397565b602060405180830381600087803b1580156126ce57600080fd5b505af19250505080156126fe575060408051601f3d908101601f191682019092526126fb91810190613170565b60015b6127ae573d80801561272c576040519150601f19603f3d011682016040523d82523d6000602084013e612731565b606091505b5080516127a65760405162461bcd60e51b815260206004820152603260248201527f4552433732313a207472616e7366657220746f206e6f6e20455243373231526560448201527f63656976657220696d706c656d656e74657200000000000000000000000000006064820152608401610765565b805181602001fd5b6001600160e01b031916630a85bd0160e11b149050610bd1565b506001949350505050565b6000601554600014156127e8576127e861196b565b601454600b546015546127fb9190613474565b6128059190613558565b612810906001613474565b905061281c82826128d9565b919050565b6001600160a01b03831661287c5761287781600b80546000838152600c60205260408120829055600182018355919091527f0175b7a638427703f0dbe7bb9bbf987a2551717b34e79f33b5b1008d1fa01db90155565b61289f565b816001600160a01b0316836001600160a01b03161461289f5761289f8382612a27565b6001600160a01b0382166128b6576108b781612ac4565b826001600160a01b0316826001600160a01b0316146108b7576108b78282612b9d565b6001600160a01b03821661292f5760405162461bcd60e51b815260206004820181905260248201527f4552433732313a206d696e7420746f20746865207a65726f20616464726573736044820152606401610765565b6000818152600560205260409020546001600160a01b0316156129945760405162461bcd60e51b815260206004820152601c60248201527f4552433732313a20746f6b656e20616c7265616479206d696e746564000000006044820152606401610765565b6129a060008383612546565b6001600160a01b03821660009081526006602052604081208054600192906129c9908490613474565b909155505060008181526005602052604080822080546001600160a01b0319166001600160a01b03861690811790915590518392907fddf252ad1be2c89b69c2b068fc378daa952ba7f163c4a11628f55a4df523b3ef908290a45050565b60006001612a3484610eec565b612a3e91906134bf565b6000838152600a6020526040902054909150808214612a91576001600160a01b03841660009081526009602090815260408083208584528252808320548484528184208190558352600a90915290208190555b506000918252600a602090815260408084208490556001600160a01b039094168352600981528383209183525290812055565b600b54600090612ad6906001906134bf565b6000838152600c6020526040812054600b8054939450909284908110612b0c57634e487b7160e01b600052603260045260246000fd5b9060005260206000200154905080600b8381548110612b3b57634e487b7160e01b600052603260045260246000fd5b6000918252602080832090910192909255828152600c9091526040808220849055858252812055600b805480612b8157634e487b7160e01b600052603160045260246000fd5b6001900381819060005260206000200160009055905550505050565b6000612ba883610eec565b6001600160a01b0390931660009081526009602090815260408083208684528252808320859055938252600a9052919091209190915550565b828054612bed90613502565b90600052602060002090601f016020900481019282612c0f5760008555612c55565b82601f10612c285782800160ff19823516178555612c55565b82800160010185558215612c55579182015b82811115612c55578235825591602001919060010190612c3a565b50612c61929150612cd9565b5090565b828054612c7190613502565b90600052602060002090601f016020900481019282612c935760008555612c55565b82601f10612cac57805160ff1916838001178555612c55565b82800160010185558215612c55579182015b82811115612c55578251825591602001919060010190612cbe565b5b80821115612c615760008155600101612cda565b600067ffffffffffffffff831115612d0857612d08613598565b612d1b601f8401601f1916602001613443565b9050828152838383011115612d2f57600080fd5b828260208301376000602084830101529392505050565b80356001600160a01b038116811461281c57600080fd5b60008083601f840112612d6e578182fd5b50813567ffffffffffffffff811115612d85578182fd5b6020830191508360208260051b8501011115612da057600080fd5b9250929050565b600082601f830112612db7578081fd5b8135602067ffffffffffffffff821115612dd357612dd3613598565b8160051b612de2828201613443565b838152828101908684018388018501891015612dfc578687fd5b8693505b85841015612e1e578035835260019390930192918401918401612e00565b50979650505050505050565b803561281c816135ae565b600082601f830112612e45578081fd5b610dbd83833560208501612cee565b600060208284031215612e65578081fd5b610dbd82612d46565b60008060408385031215612e80578081fd5b612e8983612d46565b9150612e9760208401612d46565b90509250929050565b600080600060608486031215612eb4578081fd5b612ebd84612d46565b9250612ecb60208501612d46565b9150604084013590509250925092565b60008060008060808587031215612ef0578081fd5b612ef985612d46565b9350612f0760208601612d46565b925060408501359150606085013567ffffffffffffffff811115612f29578182fd5b8501601f81018713612f39578182fd5b612f4887823560208401612cee565b91505092959194509250565b60008060408385031215612f66578182fd5b612f6f83612d46565b91506020830135612f7f816135ae565b809150509250929050565b60008060008060008060a08789031215612fa2578182fd5b612fab87612d46565b95506020870135612fbb816135ae565b94506040870135935060608701359250608087013567ffffffffffffffff811115612fe4578283fd5b612ff089828a01612d5d565b979a9699509497509295939492505050565b60008060408385031215613014578182fd5b61301d83612d46565b946020939093013593505050565b600080600080600060808688031215613042578283fd5b61304b86612d46565b94506020860135935060408601359250606086013567ffffffffffffffff811115613074578182fd5b61308088828901612d5d565b969995985093965092949392505050565b600080604083850312156130a3578182fd5b823567ffffffffffffffff8111156130b9578283fd5b6130c585828601612da7565b95602094909401359450505050565b6000806000606084860312156130e8578081fd5b833567ffffffffffffffff8111156130fe578182fd5b61310a86828701612da7565b9660208601359650604090950135949350505050565b600060208284031215613131578081fd5b8151610dbd816135ae565b60006020828403121561314d578081fd5b5035919050565b600060208284031215613165578081fd5b8135610dbd816135bc565b600060208284031215613181578081fd5b8151610dbd816135bc565b6000806020838503121561319e578182fd5b823567ffffffffffffffff808211156131b5578384fd5b818501915085601f8301126131c8578384fd5b8135818111156131d6578485fd5b8660208285010111156131e7578485fd5b60209290920196919550909350505050565b6000806040838503121561320b578182fd5b823567ffffffffffffffff80821115613222578384fd5b61322e86838701612e35565b93506020850135915080821115613243578283fd5b5061325085828601612e35565b9150509250929050565b600080600080600080600080610100898b031215613276578586fd5b883567ffffffffffffffff8082111561328d578788fd5b6132998c838d01612e35565b995060208b01359150808211156132ae578788fd5b6132ba8c838d01612e35565b985060408b01359150808211156132cf578788fd5b506132dc8b828c01612e35565b96505060608901359450608089013593506132f960a08a01612d46565b925061330760c08a01612e2a565b915061331560e08a01612d46565b90509295985092959890939650565b600060208284031215613335578081fd5b5051919050565b600081518084526133548160208601602086016134d6565b601f01601f19169290920160200192915050565b6000835161337a8184602088016134d6565b83519083019061338e8183602088016134d6565b01949350505050565b60006001600160a01b038087168352808616602084015250836040830152608060608301526133c9608083018461333c565b9695505050505050565b60208152816020820152818360408301376000818301604090810191909152601f909201601f19160101919050565b602081526000610dbd602083018461333c565b604081526000613428604083018561333c565b828103602084015261343a818561333c565b95945050505050565b604051601f8201601f1916810167ffffffffffffffff8111828210171561346c5761346c613598565b604052919050565b600082198211156134875761348761356c565b500190565b60008261349b5761349b613582565b500490565b60008160001904831182151516156134ba576134ba61356c565b500290565b6000828210156134d1576134d161356c565b500390565b60005b838110156134f15781810151838201526020016134d9565b8381111561148e5750506000910152565b600181811c9082168061351657607f821691505b6020821081141561353757634e487b7160e01b600052602260045260246000fd5b50919050565b60006000198214156135515761355161356c565b5060010190565b60008261356757613567613582565b500690565b634e487b7160e01b600052601160045260246000fd5b634e487b7160e01b600052601260045260246000fd5b634e487b7160e01b600052604160045260246000fd5b8015158114611b6157600080fd5b6001600160e01b031981168114611b6157600080fdfea2646970667358221220a46d20d51141ebe8fc38e0b1b05348df0c32ab8442f6c11306ef10aea372b5d564736f6c63430008040033",
  "linkReferences": {},
  "deployedLinkReferences": {}
}