{
  "_format": "hh-sol-artifact-1",
  "contractName": "MinimalForwarder",
  "sourceName": "contracts/MinimalForwarder.sol",
  "abi": [
    {
      "inputs": [
        {
          "components": [
            {
              "internalType": "address",
              "name": "from",
              "type": "address"
            },
            {
              "internalType": "address",
              "name": "to",
              "type": "address"
            },
            {
              "internalType": "uint256",
              "name": "value",
              "type": "uint256"
            },
            {
              "internalType": "uint256",
              "name": "gas",
              "type": "uint256"
            },
            {
              "internalType": "uint256",
              "name": "nonce",
              "type": "uint256"
            },
            {
              "internalType": "bytes",
              "name": "data",
              "type": "bytes"
            }
          ],
          "internalType": "struct MinimalForwarder.ForwardRequest",
          "name": "req",
          "type": "tuple"
        },
        {
          "internalType": "bytes",
          "name": "signature",
          "type": "bytes"
        }
      ],
      "name": "execute",
      "outputs": [
        {
          "internalType": "bool",
          "name": "",
          "type": "bool"
        },
        {
          "internalType": "bytes",
          "name": "",
          "type": "bytes"
        }
      ],
      "stateMutability": "payable",
      "type": "function"
    },
    {
      "inputs": [
        {
          "components": [
            {
              "internalType": "address",
              "name": "from",
              "type": "address"
            },
            {
              "internalType": "address",
              "name": "to",
              "type": "address"
            },
            {
              "internalType": "uint256",
              "name": "value",
              "type": "uint256"
            },
            {
              "internalType": "uint256",
              "name": "gas",
              "type": "uint256"
            },
            {
              "internalType": "uint256",
              "name": "nonce",
              "type": "uint256"
            },
            {
              "internalType": "bytes",
              "name": "data",
              "type": "bytes"
            }
          ],
          "internalType": "struct MinimalForwarder.ForwardRequest",
          "name": "req",
          "type": "tuple"
        },
        {
          "internalType": "bytes",
          "name": "signature",
          "type": "bytes"
        }
      ],
      "name": "executeRequiringSuccess",
      "outputs": [],
      "stateMutability": "payable",
      "type": "function"
    },
    {
      "inputs": [
        {
          "internalType": "address",
          "name": "from",
          "type": "address"
        }
      ],
      "name": "getNonce",
      "outputs": [
        {
          "internalType": "uint256",
          "name": "",
          "type": "uint256"
        }
      ],
      "stateMutability": "view",
      "type": "function"
    },
    {
      "inputs": [
        {
          "components": [
            {
              "internalType": "address",
              "name": "from",
              "type": "address"
            },
            {
              "internalType": "address",
              "name": "to",
              "type": "address"
            },
            {
              "internalType": "uint256",
              "name": "value",
              "type": "uint256"
            },
            {
              "internalType": "uint256",
              "name": "gas",
              "type": "uint256"
            },
            {
              "internalType": "uint256",
              "name": "nonce",
              "type": "uint256"
            },
            {
              "internalType": "bytes",
              "name": "data",
              "type": "bytes"
            }
          ],
          "internalType": "struct MinimalForwarder.ForwardRequest",
          "name": "req",
          "type": "tuple"
        },
        {
          "internalType": "bytes",
          "name": "signature",
          "type": "bytes"
        }
      ],
      "name": "verify",
      "outputs": [
        {
          "internalType": "bool",
          "name": "",
          "type": "bool"
        }
      ],
      "stateMutability": "view",
      "type": "function"
    }
  ],
  "bytecode": "0x6101206040523480156200001257600080fd5b506040518060400160405280601081526020017f4d696e696d616c466f72776172646572000000000000000000000000000000008152506040518060400160405280600581526020017f302e302e3100000000000000000000000000000000000000000000000000000081525060008280519060200120905060008280519060200120905060007f8b73c3c69bb8fe3d512ecc4cf759cc79239f7b179b0ffacaa9a75d522b39400f90508260c081815250508160e081815250504660a08181525050620000e78184846200010260201b60201c565b60808181525050806101008181525050505050505062000216565b600083838346306040516020016200011f959493929190620001b9565b6040516020818303038152906040528051906020012090509392505050565b6000819050919050565b62000153816200013e565b82525050565b6000819050919050565b6200016e8162000159565b82525050565b600073ffffffffffffffffffffffffffffffffffffffff82169050919050565b6000620001a18262000174565b9050919050565b620001b38162000194565b82525050565b600060a082019050620001d0600083018862000148565b620001df602083018762000148565b620001ee604083018662000148565b620001fd606083018562000163565b6200020c6080830184620001a8565b9695505050505050565b60805160a05160c05160e0516101005161140c6200025b60003960006106560152600061069801526000610677015260006106030152600061062b015261140c6000f3fe60806040526004361061003f5760003560e01c80632d0335ab1461004457806347153f8214610081578063a31ed55b146100b2578063bf5d3bdb146100ce575b600080fd5b34801561005057600080fd5b5061006b6004803603810190610066919061096c565b61010b565b60405161007891906109b2565b60405180910390f35b61009b60048036038101906100969190610a56565b610153565b6040516100a9929190610b86565b60405180910390f35b6100cc60048036038101906100c79190610a56565b610305565b005b3480156100da57600080fd5b506100f560048036038101906100f09190610a56565b610381565b6040516101029190610bb6565b60405180910390f35b60008060008373ffffffffffffffffffffffffffffffffffffffff1673ffffffffffffffffffffffffffffffffffffffff168152602001908152602001600020549050919050565b60006060610162858585610381565b6101a1576040517f08c379a000000000000000000000000000000000000000000000000000000000815260040161019890610c54565b60405180910390fd5b600185608001356101b29190610ca3565b6000808760000160208101906101c8919061096c565b73ffffffffffffffffffffffffffffffffffffffff1673ffffffffffffffffffffffffffffffffffffffff1681526020019081526020016000208190555060008086602001602081019061021c919061096c565b73ffffffffffffffffffffffffffffffffffffffff1687606001358860400135898060a0019061024c9190610d08565b8b600001602081019061025f919061096c565b60405160200161027193929190610df2565b60405160208183030381529060405260405161028d9190610e4d565b600060405180830381858888f193505050503d80600081146102cb576040519150601f19603f3d011682016040523d82523d6000602084013e6102d0565b606091505b5091509150603f87606001356102e69190610e93565b5a116102f5576102f4610ec4565b5b8181935093505050935093915050565b600080610313858585610153565b9150915081816040516020016103299190610f4a565b60405160208183030381529060405290610379576040517f08c379a00000000000000000000000000000000000000000000000000000000081526004016103709190610fb0565b60405180910390fd5b505050505050565b60008061048a84848080601f016020809104026020016040519081016040528093929190818152602001838380828437600081840152601f19601f8201169050808301925050505050505061047c7fdd8f4b70b0f4393e889bd39128a30628a78b61816a9eb8199759e7a349657e48886000016020810190610403919061096c565b896020016020810190610416919061096c565b8a604001358b606001358c608001358d8060a001906104359190610d08565b604051610443929190610fd2565b60405180910390206040516020016104619796959493929190611013565b60405160208183030381529060405280519060200120610536565b61055090919063ffffffff16565b905084608001356000808760000160208101906104a7919061096c565b73ffffffffffffffffffffffffffffffffffffffff1673ffffffffffffffffffffffffffffffffffffffff1681526020019081526020016000205414801561052c57508460000160208101906104fd919061096c565b73ffffffffffffffffffffffffffffffffffffffff168173ffffffffffffffffffffffffffffffffffffffff16145b9150509392505050565b60006105496105436105ff565b836106c2565b9050919050565b600060418251141561058f5760008060006020850151925060408501519150606085015160001a9050610585868285856106f5565b93505050506105f9565b6040825114156105be5760008060208401519150604084015190506105b5858383610880565b925050506105f9565b6040517f08c379a00000000000000000000000000000000000000000000000000000000081526004016105f0906110ce565b60405180910390fd5b92915050565b60007f0000000000000000000000000000000000000000000000000000000000000000461415610651577f000000000000000000000000000000000000000000000000000000000000000090506106bf565b6106bc7f00000000000000000000000000000000000000000000000000000000000000007f00000000000000000000000000000000000000000000000000000000000000007f00000000000000000000000000000000000000000000000000000000000000006108ca565b90505b90565b600082826040516020016106d792919061115b565b60405160208183030381529060405280519060200120905092915050565b60007f7fffffffffffffffffffffffffffffff5d576e7357a4501ddfe92f46681b20a08260001c111561075d576040517f08c379a000000000000000000000000000000000000000000000000000000000815260040161075490611204565b60405180910390fd5b601b8460ff1614806107725750601c8460ff16145b6107b1576040517f08c379a00000000000000000000000000000000000000000000000000000000081526004016107a890611296565b60405180910390fd5b6000600186868686604051600081526020016040526040516107d694939291906112d2565b6020604051602081039080840390855afa1580156107f8573d6000803e3d6000fd5b505050602060405103519050600073ffffffffffffffffffffffffffffffffffffffff168173ffffffffffffffffffffffffffffffffffffffff161415610874576040517f08c379a000000000000000000000000000000000000000000000000000000000815260040161086b90611363565b60405180910390fd5b80915050949350505050565b60008060007f7fffffffffffffffffffffffffffffffffffffffffffffffffffffffffffffff84169150601b8460ff1c0190506108bf868287856106f5565b925050509392505050565b600083838346306040516020016108e5959493929190611383565b6040516020818303038152906040528051906020012090509392505050565b600080fd5b600080fd5b600073ffffffffffffffffffffffffffffffffffffffff82169050919050565b60006109398261090e565b9050919050565b6109498161092e565b811461095457600080fd5b50565b60008135905061096681610940565b92915050565b60006020828403121561098257610981610904565b5b600061099084828501610957565b91505092915050565b6000819050919050565b6109ac81610999565b82525050565b60006020820190506109c760008301846109a3565b92915050565b600080fd5b600060c082840312156109e8576109e76109cd565b5b81905092915050565b600080fd5b600080fd5b600080fd5b60008083601f840112610a1657610a156109f1565b5b8235905067ffffffffffffffff811115610a3357610a326109f6565b5b602083019150836001820283011115610a4f57610a4e6109fb565b5b9250929050565b600080600060408486031215610a6f57610a6e610904565b5b600084013567ffffffffffffffff811115610a8d57610a8c610909565b5b610a99868287016109d2565b935050602084013567ffffffffffffffff811115610aba57610ab9610909565b5b610ac686828701610a00565b92509250509250925092565b60008115159050919050565b610ae781610ad2565b82525050565b600081519050919050565b600082825260208201905092915050565b60005b83811015610b27578082015181840152602081019050610b0c565b83811115610b36576000848401525b50505050565b6000601f19601f8301169050919050565b6000610b5882610aed565b610b628185610af8565b9350610b72818560208601610b09565b610b7b81610b3c565b840191505092915050565b6000604082019050610b9b6000830185610ade565b8181036020830152610bad8184610b4d565b90509392505050565b6000602082019050610bcb6000830184610ade565b92915050565b600082825260208201905092915050565b7f4d696e696d616c466f727761726465723a207369676e617475726520646f657360008201527f206e6f74206d6174636820726571756573740000000000000000000000000000602082015250565b6000610c3e603283610bd1565b9150610c4982610be2565b604082019050919050565b60006020820190508181036000830152610c6d81610c31565b9050919050565b7f4e487b7100000000000000000000000000000000000000000000000000000000600052601160045260246000fd5b6000610cae82610999565b9150610cb983610999565b9250827fffffffffffffffffffffffffffffffffffffffffffffffffffffffffffffffff03821115610cee57610ced610c74565b5b828201905092915050565b600080fd5b600080fd5b600080fd5b60008083356001602003843603038112610d2557610d24610cf9565b5b80840192508235915067ffffffffffffffff821115610d4757610d46610cfe565b5b602083019250600182023603831315610d6357610d62610d03565b5b509250929050565b600081905092915050565b82818337600083830152505050565b6000610d918385610d6b565b9350610d9e838584610d76565b82840190509392505050565b60008160601b9050919050565b6000610dc282610daa565b9050919050565b6000610dd482610db7565b9050919050565b610dec610de78261092e565b610dc9565b82525050565b6000610dff828587610d85565b9150610e0b8284610ddb565b601482019150819050949350505050565b6000610e2782610aed565b610e318185610d6b565b9350610e41818560208601610b09565b80840191505092915050565b6000610e598284610e1c565b915081905092915050565b7f4e487b7100000000000000000000000000000000000000000000000000000000600052601260045260246000fd5b6000610e9e82610999565b9150610ea983610999565b925082610eb957610eb8610e64565b5b828204905092915050565b7f4e487b7100000000000000000000000000000000000000000000000000000000600052600160045260246000fd5b600081905092915050565b7f4d4554415f455845435f4641494c45443a200000000000000000000000000000600082015250565b6000610f34601283610ef3565b9150610f3f82610efe565b601282019050919050565b6000610f5582610f27565b9150610f618284610e1c565b915081905092915050565b600081519050919050565b6000610f8282610f6c565b610f8c8185610bd1565b9350610f9c818560208601610b09565b610fa581610b3c565b840191505092915050565b60006020820190508181036000830152610fca8184610f77565b905092915050565b6000610fdf828486610d85565b91508190509392505050565b6000819050919050565b610ffe81610feb565b82525050565b61100d8161092e565b82525050565b600060e082019050611028600083018a610ff5565b6110356020830189611004565b6110426040830188611004565b61104f60608301876109a3565b61105c60808301866109a3565b61106960a08301856109a3565b61107660c0830184610ff5565b98975050505050505050565b7f45434453413a20696e76616c6964207369676e6174757265206c656e67746800600082015250565b60006110b8601f83610bd1565b91506110c382611082565b602082019050919050565b600060208201905081810360008301526110e7816110ab565b9050919050565b7f1901000000000000000000000000000000000000000000000000000000000000600082015250565b6000611124600283610ef3565b915061112f826110ee565b600282019050919050565b6000819050919050565b61115561115082610feb565b61113a565b82525050565b600061116682611117565b91506111728285611144565b6020820191506111828284611144565b6020820191508190509392505050565b7f45434453413a20696e76616c6964207369676e6174757265202773272076616c60008201527f7565000000000000000000000000000000000000000000000000000000000000602082015250565b60006111ee602283610bd1565b91506111f982611192565b604082019050919050565b6000602082019050818103600083015261121d816111e1565b9050919050565b7f45434453413a20696e76616c6964207369676e6174757265202776272076616c60008201527f7565000000000000000000000000000000000000000000000000000000000000602082015250565b6000611280602283610bd1565b915061128b82611224565b604082019050919050565b600060208201905081810360008301526112af81611273565b9050919050565b600060ff82169050919050565b6112cc816112b6565b82525050565b60006080820190506112e76000830187610ff5565b6112f460208301866112c3565b6113016040830185610ff5565b61130e6060830184610ff5565b95945050505050565b7f45434453413a20696e76616c6964207369676e61747572650000000000000000600082015250565b600061134d601883610bd1565b915061135882611317565b602082019050919050565b6000602082019050818103600083015261137c81611340565b9050919050565b600060a0820190506113986000830188610ff5565b6113a56020830187610ff5565b6113b26040830186610ff5565b6113bf60608301856109a3565b6113cc6080830184611004565b969550505050505056fea2646970667358221220f13d588d563cc145d4523ac28d7e496f32f745589e52f0e8b925048ce559420864736f6c63430008090033",
  "linkReferences": {},
  "deployedLinkReferences": {}
}