{
  "_format": "hh-sol-artifact-1",
  "contractName": "TopUpActionFeeHandler",
  "sourceName": "contracts/actions/topup/TopUpActionFeeHandler.sol",
  "abi": [
    {
      "inputs": [
        {
          "internalType": "contract IController",
          "name": "_controller",
          "type": "address"
        },
        {
          "internalType": "address",
          "name": "_actionContract",
          "type": "address"
        },
        {
          "internalType": "uint256",
          "name": "keeperFee",
          "type": "uint256"
        },
        {
          "internalType": "uint256",
          "name": "treasuryFee",
          "type": "uint256"
        }
      ],
      "stateMutability": "nonpayable",
      "type": "constructor"
    },
    {
      "anonymous": false,
      "inputs": [
        {
          "indexed": true,
          "internalType": "bytes32",
          "name": "key",
          "type": "bytes32"
        },
        {
          "indexed": false,
          "internalType": "address",
          "name": "value",
          "type": "address"
        },
        {
          "indexed": false,
          "internalType": "uint256",
          "name": "delay",
          "type": "uint256"
        }
      ],
      "name": "ConfigPreparedAddress",
      "type": "event"
    },
    {
      "anonymous": false,
      "inputs": [
        {
          "indexed": true,
          "internalType": "bytes32",
          "name": "key",
          "type": "bytes32"
        },
        {
          "indexed": false,
          "internalType": "uint256",
          "name": "value",
          "type": "uint256"
        },
        {
          "indexed": false,
          "internalType": "uint256",
          "name": "delay",
          "type": "uint256"
        }
      ],
      "name": "ConfigPreparedNumber",
      "type": "event"
    },
    {
      "anonymous": false,
      "inputs": [
        {
          "indexed": true,
          "internalType": "bytes32",
          "name": "key",
          "type": "bytes32"
        }
      ],
      "name": "ConfigReset",
      "type": "event"
    },
    {
      "anonymous": false,
      "inputs": [
        {
          "indexed": true,
          "internalType": "bytes32",
          "name": "key",
          "type": "bytes32"
        },
        {
          "indexed": false,
          "internalType": "address",
          "name": "oldValue",
          "type": "address"
        },
        {
          "indexed": false,
          "internalType": "address",
          "name": "newValue",
          "type": "address"
        }
      ],
      "name": "ConfigUpdatedAddress",
      "type": "event"
    },
    {
      "anonymous": false,
      "inputs": [
        {
          "indexed": true,
          "internalType": "bytes32",
          "name": "key",
          "type": "bytes32"
        },
        {
          "indexed": false,
          "internalType": "uint256",
          "name": "oldValue",
          "type": "uint256"
        },
        {
          "indexed": false,
          "internalType": "uint256",
          "name": "newValue",
          "type": "uint256"
        }
      ],
      "name": "ConfigUpdatedNumber",
      "type": "event"
    },
    {
      "anonymous": false,
      "inputs": [
        {
          "indexed": true,
          "internalType": "address",
          "name": "payer",
          "type": "address"
        },
        {
          "indexed": true,
          "internalType": "address",
          "name": "keeper",
          "type": "address"
        },
        {
          "indexed": false,
          "internalType": "address",
          "name": "token",
          "type": "address"
        },
        {
          "indexed": false,
          "internalType": "uint256",
          "name": "amount",
          "type": "uint256"
        },
        {
          "indexed": false,
          "internalType": "uint256",
          "name": "keeperAmount",
          "type": "uint256"
        },
        {
          "indexed": false,
          "internalType": "uint256",
          "name": "lpAmount",
          "type": "uint256"
        }
      ],
      "name": "FeesPayed",
      "type": "event"
    },
    {
      "anonymous": false,
      "inputs": [
        {
          "indexed": true,
          "internalType": "address",
          "name": "keeper",
          "type": "address"
        },
        {
          "indexed": false,
          "internalType": "address",
          "name": "token",
          "type": "address"
        },
        {
          "indexed": false,
          "internalType": "uint256",
          "name": "totalClaimed",
          "type": "uint256"
        }
      ],
      "name": "KeeperFeesClaimed",
      "type": "event"
    },
    {
      "inputs": [],
      "name": "actionContract",
      "outputs": [
        {
          "internalType": "address",
          "name": "",
          "type": "address"
        }
      ],
      "stateMutability": "view",
      "type": "function"
    },
    {
      "inputs": [
        {
          "internalType": "address",
          "name": "beneficiary",
          "type": "address"
        },
        {
          "internalType": "address",
          "name": "token",
          "type": "address"
        }
      ],
      "name": "claimKeeperFeesForPool",
      "outputs": [
        {
          "internalType": "bool",
          "name": "",
          "type": "bool"
        }
      ],
      "stateMutability": "nonpayable",
      "type": "function"
    },
    {
      "inputs": [
        {
          "internalType": "address",
          "name": "token",
          "type": "address"
        }
      ],
      "name": "claimTreasuryFees",
      "outputs": [
        {
          "internalType": "bool",
          "name": "",
          "type": "bool"
        }
      ],
      "stateMutability": "nonpayable",
      "type": "function"
    },
    {
      "inputs": [],
      "name": "controller",
      "outputs": [
        {
          "internalType": "contract IController",
          "name": "",
          "type": "address"
        }
      ],
      "stateMutability": "view",
      "type": "function"
    },
    {
      "inputs": [
        {
          "internalType": "bytes32",
          "name": "",
          "type": "bytes32"
        }
      ],
      "name": "currentAddresses",
      "outputs": [
        {
          "internalType": "address",
          "name": "",
          "type": "address"
        }
      ],
      "stateMutability": "view",
      "type": "function"
    },
    {
      "inputs": [
        {
          "internalType": "bytes32",
          "name": "",
          "type": "bytes32"
        }
      ],
      "name": "currentUInts256",
      "outputs": [
        {
          "internalType": "uint256",
          "name": "",
          "type": "uint256"
        }
      ],
      "stateMutability": "view",
      "type": "function"
    },
    {
      "inputs": [
        {
          "internalType": "bytes32",
          "name": "",
          "type": "bytes32"
        }
      ],
      "name": "deadlines",
      "outputs": [
        {
          "internalType": "uint256",
          "name": "",
          "type": "uint256"
        }
      ],
      "stateMutability": "view",
      "type": "function"
    },
    {
      "inputs": [],
      "name": "executeKeeperFee",
      "outputs": [
        {
          "internalType": "uint256",
          "name": "",
          "type": "uint256"
        }
      ],
      "stateMutability": "nonpayable",
      "type": "function"
    },
    {
      "inputs": [
        {
          "internalType": "address",
          "name": "lpToken",
          "type": "address"
        }
      ],
      "name": "executeKeeperGauge",
      "outputs": [
        {
          "internalType": "address",
          "name": "",
          "type": "address"
        }
      ],
      "stateMutability": "nonpayable",
      "type": "function"
    },
    {
      "inputs": [],
      "name": "executeTreasuryFee",
      "outputs": [
        {
          "internalType": "uint256",
          "name": "",
          "type": "uint256"
        }
      ],
      "stateMutability": "nonpayable",
      "type": "function"
    },
    {
      "inputs": [],
      "name": "getKeeperFeeFraction",
      "outputs": [
        {
          "internalType": "uint256",
          "name": "",
          "type": "uint256"
        }
      ],
      "stateMutability": "view",
      "type": "function"
    },
    {
      "inputs": [
        {
          "internalType": "address",
          "name": "lpToken",
          "type": "address"
        }
      ],
      "name": "getKeeperGauge",
      "outputs": [
        {
          "internalType": "address",
          "name": "",
          "type": "address"
        }
      ],
      "stateMutability": "view",
      "type": "function"
    },
    {
      "inputs": [],
      "name": "getTreasuryFeeFraction",
      "outputs": [
        {
          "internalType": "uint256",
          "name": "",
          "type": "uint256"
        }
      ],
      "stateMutability": "view",
      "type": "function"
    },
    {
      "inputs": [
        {
          "internalType": "address",
          "name": "",
          "type": "address"
        },
        {
          "internalType": "address",
          "name": "",
          "type": "address"
        }
      ],
      "name": "keeperRecords",
      "outputs": [
        {
          "internalType": "uint256",
          "name": "",
          "type": "uint256"
        }
      ],
      "stateMutability": "view",
      "type": "function"
    },
    {
      "inputs": [
        {
          "internalType": "address",
          "name": "payer",
          "type": "address"
        },
        {
          "internalType": "address",
          "name": "beneficiary",
          "type": "address"
        },
        {
          "internalType": "uint256",
          "name": "amount",
          "type": "uint256"
        },
        {
          "internalType": "address",
          "name": "lpTokenAddress",
          "type": "address"
        }
      ],
      "name": "payFees",
      "outputs": [
        {
          "internalType": "bool",
          "name": "",
          "type": "bool"
        }
      ],
      "stateMutability": "nonpayable",
      "type": "function"
    },
    {
      "inputs": [
        {
          "internalType": "bytes32",
          "name": "",
          "type": "bytes32"
        }
      ],
      "name": "pendingAddresses",
      "outputs": [
        {
          "internalType": "address",
          "name": "",
          "type": "address"
        }
      ],
      "stateMutability": "view",
      "type": "function"
    },
    {
      "inputs": [
        {
          "internalType": "bytes32",
          "name": "",
          "type": "bytes32"
        }
      ],
      "name": "pendingUInts256",
      "outputs": [
        {
          "internalType": "uint256",
          "name": "",
          "type": "uint256"
        }
      ],
      "stateMutability": "view",
      "type": "function"
    },
    {
      "inputs": [
        {
          "internalType": "uint256",
          "name": "newKeeperFee",
          "type": "uint256"
        }
      ],
      "name": "prepareKeeperFee",
      "outputs": [
        {
          "internalType": "bool",
          "name": "",
          "type": "bool"
        }
      ],
      "stateMutability": "nonpayable",
      "type": "function"
    },
    {
      "inputs": [
        {
          "internalType": "address",
          "name": "lpToken",
          "type": "address"
        },
        {
          "internalType": "address",
          "name": "newKeeperGauge",
          "type": "address"
        }
      ],
      "name": "prepareKeeperGauge",
      "outputs": [
        {
          "internalType": "bool",
          "name": "",
          "type": "bool"
        }
      ],
      "stateMutability": "nonpayable",
      "type": "function"
    },
    {
      "inputs": [
        {
          "internalType": "uint256",
          "name": "newTreasuryFee",
          "type": "uint256"
        }
      ],
      "name": "prepareTreasuryFee",
      "outputs": [
        {
          "internalType": "bool",
          "name": "",
          "type": "bool"
        }
      ],
      "stateMutability": "nonpayable",
      "type": "function"
    },
    {
      "inputs": [],
      "name": "resetKeeperFee",
      "outputs": [
        {
          "internalType": "bool",
          "name": "",
          "type": "bool"
        }
      ],
      "stateMutability": "nonpayable",
      "type": "function"
    },
    {
      "inputs": [
        {
          "internalType": "address",
          "name": "lpToken",
          "type": "address"
        }
      ],
      "name": "resetKeeperGauge",
      "outputs": [
        {
          "internalType": "bool",
          "name": "",
          "type": "bool"
        }
      ],
      "stateMutability": "nonpayable",
      "type": "function"
    },
    {
      "inputs": [],
      "name": "resetTreasuryFee",
      "outputs": [
        {
          "internalType": "bool",
          "name": "",
          "type": "bool"
        }
      ],
      "stateMutability": "nonpayable",
      "type": "function"
    },
    {
      "inputs": [],
      "name": "roleManager",
      "outputs": [
        {
          "internalType": "contract IRoleManager",
          "name": "",
          "type": "address"
        }
      ],
      "stateMutability": "view",
      "type": "function"
    },
    {
      "inputs": [
        {
          "internalType": "address",
          "name": "lpToken",
          "type": "address"
        },
        {
          "internalType": "address",
          "name": "_keeperGauge",
          "type": "address"
        }
      ],
      "name": "setInitialKeeperGaugeForToken",
      "outputs": [
        {
          "internalType": "bool",
          "name": "",
          "type": "bool"
        }
      ],
      "stateMutability": "nonpayable",
      "type": "function"
    },
    {
      "inputs": [
        {
          "internalType": "address",
          "name": "",
          "type": "address"
        }
      ],
      "name": "treasuryAmounts",
      "outputs": [
        {
          "internalType": "uint256",
          "name": "",
          "type": "uint256"
        }
      ],
      "stateMutability": "view",
      "type": "function"
    }
  ],
  "bytecode": "0x60e06040523480156200001157600080fd5b50604051620023b2380380620023b28339810160408190526200003491620002a4565b620000c7846001600160a01b0316632954018c6040518163ffffffff1660e01b815260040160206040518083038186803b1580156200007257600080fd5b505afa15801562000087573d6000803e3d6000fd5b505050506040513d601f19601f82011682018060405250810190620000ad9190620002f1565b6001600160a01b03166200018d60201b620013f51760201c565b6001600160a01b0316608052670de0b6b3a7640000620000e8828462000318565b11156040518060400160405280600e81526020016d1a5b9d985b1a5908185b5bdd5b9d60921b815250906200013b5760405162461bcd60e51b81526004016200013291906200033f565b60405180910390fd5b506001600160a01b0380841660a052841660c05262000167684b656570657246656560b81b836200021f565b50620001826a547265617375727946656560a81b826200021f565b505050505062000397565b6040516321f8a72160e01b81526a3937b632a6b0b730b3b2b960a91b60048201526000906001600160a01b038316906321f8a7219060240160206040518083038186803b158015620001de57600080fd5b505afa158015620001f3573d6000803e3d6000fd5b505050506040513d601f19601f82011682018060405250810190620002199190620002f1565b92915050565b6000828152600360209081526040808320805490859055600183528184208490556004835281842084905581518181529283018590529185917fcc0bafe2accb565ea70674bf4b2555e49a47d410fb9932dfab3e5f41855d0a2f910160405180910390a2509092915050565b6001600160a01b0381168114620002a157600080fd5b50565b60008060008060808587031215620002bb57600080fd5b8451620002c8816200028b565b6020860151909450620002db816200028b565b6040860151606090960151949790965092505050565b6000602082840312156200030457600080fd5b815162000311816200028b565b9392505050565b600082198211156200033a57634e487b7160e01b600052601160045260246000fd5b500190565b600060208083528351808285015260005b818110156200036e5785810183015185820160400152820162000350565b8181111562000381576000604083870101525b50601f01601f1916929092016040019392505050565b60805160a05160c051611fac620004066000396000818161040601526109430152600081816102750152611071015260008181610194015281816104310152818161060c015281816107be01528181610b1e01528181610c7f01528181610d8a01526112e60152611fac6000f3fe608060405234801561001057600080fd5b506004361061018d5760003560e01c806390f6ce0c116100de578063cb44017311610097578063e73c361511610071578063e73c36151461039a578063ee036a75146103c5578063f76c3399146103d8578063f77c47911461040157600080fd5b8063cb44017314610356578063cfd93e321461035e578063e3976edf1461037157600080fd5b806390f6ce0c146102ed578063a151eab114610300578063ac3483b014610313578063aff1b7e414610326578063b94f5bdf14610346578063bbeffd851461034e57600080fd5b806339bef3661161014b57806372038b181161012557806372038b181461029f5780637265fc91146102a757806377233752146102ba5780638fe96732146102da57600080fd5b806339bef36614610268578063444116b5146102705780635fe8af5d1461029757600080fd5b8062435da5146101925780630f2703a2146101d157806312bb00ee146101f457806315dbfe62146102075780632a56555114610235578063346a4a5114610248575b600080fd5b7f00000000000000000000000000000000000000000000000000000000000000005b6040516001600160a01b0390911681526020015b60405180910390f35b6101e46101df366004611d53565b61042d565b60405190151581526020016101c8565b6101e4610202366004611d8c565b610608565b610227610215366004611d8c565b60016020526000908152604090205481565b6040519081526020016101c8565b6101b4610243366004611da5565b61076d565b610227610256366004611d8c565b60046020526000908152604090205481565b610227610780565b6101b47f000000000000000000000000000000000000000000000000000000000000000081565b6101e46107ba565b6102276108c9565b6101e46102b5366004611da5565b610905565b6102276102c8366004611da5565b60056020526000908152604090205481565b6101e46102e8366004611d53565b6109e7565b6101b46102fb366004611da5565b610aeb565b6101e461030e366004611d8c565b610b1a565b6101e4610321366004611da5565b610c7b565b610227610334366004611d8c565b60036020526000908152604090205481565b6101e4610d86565b610227610e97565b610227610f69565b6101e461036c366004611dc2565b611039565b6101b461037f366004611d8c565b6000602081905290815260409020546001600160a01b031681565b6102276103a8366004611d53565b600660209081526000928352604080842090915290825290205481565b6101e46103d3366004611d53565b6112e2565b6101b46103e6366004611d8c565b6002602052600090815260409020546001600160a01b031681565b6101b47f000000000000000000000000000000000000000000000000000000000000000081565b905090565b60007f0000000000000000000000000000000000000000000000000000000000000000604051632474521560e21b815269676f7665726e616e636560b01b60048201523360248201526001600160a01b0391909116906391d148549060440160206040518083038186803b1580156104a457600080fd5b505afa1580156104b8573d6000803e3d6000fd5b505050506040513d601f19601f820116820180604052508101906104dc9190611e15565b60405180604001604052806013815260200172756e617574686f72697a65642061636365737360681b8152509061052f5760405162461bcd60e51b81526004016105269190611e63565b60405180910390fd5b50600061053b84610aeb565b6001600160a01b031614604051806040016040528060188152602001771e995c9bc81859191c995cdcc81b9bdd08185b1b1bddd95960421b815250906105945760405162461bcd60e51b81526004016105269190611e63565b506040805180820190915260188152771e995c9bc81859191c995cdcc81b9bdd08185b1b1bddd95960421b60208201526001600160a01b0383166105eb5760405162461bcd60e51b81526004016105269190611e63565b506105fe6105f88461147e565b836114d9565b5060019392505050565b60007f0000000000000000000000000000000000000000000000000000000000000000604051632474521560e21b815269676f7665726e616e636560b01b60048201523360248201526001600160a01b0391909116906391d148549060440160206040518083038186803b15801561067f57600080fd5b505afa158015610693573d6000803e3d6000fd5b505050506040513d601f19601f820116820180604052508101906106b79190611e15565b60405180604001604052806013815260200172756e617574686f72697a65642061636365737360681b815250906107015760405162461bcd60e51b81526004016105269190611e63565b5060408051808201909152600e81526d1a5b9d985b1a5908185b5bdd5b9d60921b6020820152670de0b6b3a76400008311156107505760405162461bcd60e51b81526004016105269190611e63565b50610767684b656570657246656560b81b83611564565b92915050565b600061076761077b8361147e565b611574565b684b656570657246656560b81b60005260036020527f46fbd738fa5d44e701d49be219801064ee5964d35f7f3946d57a88ca6bd5e7905490565b60007f0000000000000000000000000000000000000000000000000000000000000000604051632474521560e21b815269676f7665726e616e636560b01b60048201523360248201526001600160a01b0391909116906391d148549060440160206040518083038186803b15801561083157600080fd5b505afa158015610845573d6000803e3d6000fd5b505050506040513d601f19601f820116820180604052508101906108699190611e15565b60405180604001604052806013815260200172756e617574686f72697a65642061636365737360681b815250906108b35760405162461bcd60e51b81526004016105269190611e63565b50610428684b656570657246656560b81b6115a8565b6a547265617375727946656560a81b60005260036020527f7a257e8f29bfe1d0de97f10ac228f173c9eb0267f3cbf293b42ec4a0e86dc96f5490565b6001600160a01b0380821660009081526005602090815260408083208054908490558151630a55006360e21b81529151939490936109de936109cd937f000000000000000000000000000000000000000000000000000000000000000090931692632954018c9260048083019392829003018186803b15801561098757600080fd5b505afa15801561099b573d6000803e3d6000fd5b505050506040513d601f19601f820116820180604052508101906109bf9190611e96565b6001600160a01b031661164f565b6001600160a01b0385169083611689565b50600192915050565b6001600160a01b0380831660009081526006602090815260408083209385168352928152828220548351808501909452601d84527f7468657265206973206e6f20636c61696d61626c652062616c616e636500000091840191909152909181610a635760405162461bcd60e51b81526004016105269190611e63565b506001600160a01b038085166000908152600660209081526040808320938716808452939091528120558390610a9a908684611689565b604080516001600160a01b038681168252602082018590528716917fa2099e15da4f15b4446a2ccd0b9767c2e897c797777c20ab5f5b899a62704e67910160405180910390a2506001949350505050565b600060026000610afa8461147e565b81526020810191909152604001600020546001600160a01b031692915050565b60007f0000000000000000000000000000000000000000000000000000000000000000604051632474521560e21b815269676f7665726e616e636560b01b60048201523360248201526001600160a01b0391909116906391d148549060440160206040518083038186803b158015610b9157600080fd5b505afa158015610ba5573d6000803e3d6000fd5b505050506040513d601f19601f82011682018060405250810190610bc99190611e15565b60405180604001604052806013815260200172756e617574686f72697a65642061636365737360681b81525090610c135760405162461bcd60e51b81526004016105269190611e63565b5060408051808201909152600e81526d1a5b9d985b1a5908185b5bdd5b9d60921b6020820152670de0b6b3a7640000831115610c625760405162461bcd60e51b81526004016105269190611e63565b506107676a547265617375727946656560a81b83611564565b60007f0000000000000000000000000000000000000000000000000000000000000000604051632474521560e21b815269676f7665726e616e636560b01b60048201523360248201526001600160a01b0391909116906391d148549060440160206040518083038186803b158015610cf257600080fd5b505afa158015610d06573d6000803e3d6000fd5b505050506040513d601f19601f82011682018060405250810190610d2a9190611e15565b60405180604001604052806013815260200172756e617574686f72697a65642061636365737360681b81525090610d745760405162461bcd60e51b81526004016105269190611e63565b50610767610d818361147e565b6116f1565b60007f0000000000000000000000000000000000000000000000000000000000000000604051632474521560e21b815269676f7665726e616e636560b01b60048201523360248201526001600160a01b0391909116906391d148549060440160206040518083038186803b158015610dfd57600080fd5b505afa158015610e11573d6000803e3d6000fd5b505050506040513d601f19601f82011682018060405250810190610e359190611e15565b60405180604001604052806013815260200172756e617574686f72697a65642061636365737360681b81525090610e7f5760405162461bcd60e51b81526004016105269190611e63565b506104286a547265617375727946656560a81b6115a8565b60016020527f60c67394e69102ffbeb9a616df8f05bd23ff11b556ace7ba8bedef12119e00a5546a547265617375727946656560a81b60009081527fe37c5cdd27e258abaa4f959c757cd2d7040a9ff7ea53e54acf000117f55809ac549091670de0b6b3a764000091610f0a9190611ec9565b11156040518060400160405280600e81526020016d1a5b9d985b1a5908185b5bdd5b9d60921b81525090610f515760405162461bcd60e51b81526004016105269190611e63565b506104286a547265617375727946656560a81b6117a2565b60016020527f60c67394e69102ffbeb9a616df8f05bd23ff11b556ace7ba8bedef12119e00a5546a547265617375727946656560a81b60009081527fe37c5cdd27e258abaa4f959c757cd2d7040a9ff7ea53e54acf000117f55809ac549091670de0b6b3a764000091610fdc9190611ec9565b11156040518060400160405280600e81526020016d1a5b9d985b1a5908185b5bdd5b9d60921b815250906110235760405162461bcd60e51b81526004016105269190611e63565b50610428684b656570657246656560b81b6117a2565b604080518082019091526013815272756e617574686f72697a65642061636365737360681b6020820152600090336001600160a01b037f000000000000000000000000000000000000000000000000000000000000000016146110af5760405162461bcd60e51b81526004016105269190611e63565b5060006110c46110bd610780565b85906117c6565b905060006110da6110d36108c9565b86906117c6565b9050836110f26001600160a01b0382163330896117e5565b60006110fd86610aeb565b90506001600160a01b0381161561119a576040516303d86c0d60e31b81526001600160a01b038981166004830152602482018690528781166044830152821690631ec3606890606401602060405180830381600087803b15801561116057600080fd5b505af1158015611174573d6000803e3d6000fd5b505050506040513d601f19601f820116820180604052508101906111989190611e15565b505b6001600160a01b038089166000908152600660209081526040808320938a16835292905290812080548692906111d1908490611ec9565b90915550506001600160a01b038616600090815260056020526040812080548592906111fe908490611ec9565b909155506000905083611211868a611ee1565b61121b9190611ee1565b604051630852cd8d60e31b8152600481018290529091506001600160a01b038416906342966c6890602401600060405180830381600087803b15801561126057600080fd5b505af1158015611274573d6000803e3d6000fd5b5050604080516001600160a01b038b81168252602082018d905291810189905260608101859052818d169350908d1691507ffa9d128d86552a91243363427b3fde4f942de701bf1f81908816fc2c056750859060800160405180910390a35060019998505050505050505050565b60007f0000000000000000000000000000000000000000000000000000000000000000604051632474521560e21b815269676f7665726e616e636560b01b60048201523360248201526001600160a01b0391909116906391d148549060440160206040518083038186803b15801561135957600080fd5b505afa15801561136d573d6000803e3d6000fd5b505050506040513d601f19601f820116820180604052508101906113919190611e15565b60405180604001604052806013815260200172756e617574686f72697a65642061636365737360681b815250906113db5760405162461bcd60e51b81526004016105269190611e63565b506113ee6113e88461147e565b83611823565b9392505050565b6040516321f8a72160e01b81526a3937b632a6b0b730b3b2b960a91b60048201526000906001600160a01b038316906321f8a721906024015b60206040518083038186803b15801561144657600080fd5b505afa15801561145a573d6000803e3d6000fd5b505050506040513d601f19601f820116820180604052508101906107679190611e96565b60006a4b6565706572476175676560a81b826040516020016114bc92919091825260601b6bffffffffffffffffffffffff1916602082015260340190565b604051602081830303815290604052805190602001209050919050565b600082815260026020908152604080832080546001600160a01b03198082166001600160a01b038881169182179094558686528487208054909216909155600485528386208690558351929091168083529382015285917fc4a957706c639829ad54381b04930c464db6c7ffdc09d2b4b1acc9ee34fb926191015b60405180910390a2509092915050565b60006113ee83836203f480611833565b600061157f82611897565b6000828152602081905260409020546001600160a01b03166115a183826114d9565b5092915050565b600081815260046020908152604080832054815180830190925260128252710646561646c696e65206d75737420626520360741b92820192909252906116015760405162461bcd60e51b81526004016105269190611e63565b50600082815260046020908152604080832083905560019091528082208290555183917f90fb84ad67dd037c388289337bb80b61b8605d38ba9a875dc38b5600909d172f91a2506001919050565b6040516321f8a72160e01b815267747265617375727960c01b60048201526000906001600160a01b038316906321f8a7219060240161142e565b6040516001600160a01b0383166024820152604481018290526116ec90849063a9059cbb60e01b906064015b60408051601f198184030181529190526020810180516001600160e01b03166001600160e01b031990931692909217909152611940565b505050565b600081815260046020908152604080832054815180830190925260128252710646561646c696e65206d75737420626520360741b928201929092529061174a5760405162461bcd60e51b81526004016105269190611e63565b5060008281526004602090815260408083208390559082905280822080546001600160a01b03191690555183917f90fb84ad67dd037c388289337bb80b61b8605d38ba9a875dc38b5600909d172f91a2506001919050565b60006117ad82611897565b6000828152600160205260409020546115a18382611a12565b6000670de0b6b3a76400006117db8385611ef8565b6113ee9190611f17565b6040516001600160a01b038085166024830152831660448201526064810182905261181d9085906323b872dd60e01b906084016116b5565b50505050565b60006113ee83836203f480611a73565b600061183f8483611ae0565b600084815260016020908152604091829020859055815185815290810184905285917f0e6790002e78fb96ff1fdfe3a3bb2a86489d3f3923372c1fe5b6b1fed071eed491015b60405180910390a25060019392505050565b60006004600083815260200190815260200160002054905080421015604051806060016040528060218152602001611f5660219139906118ea5760405162461bcd60e51b81526004016105269190611e63565b5060408051808201909152600d81526c0646561646c696e65206973203609c1b60208201528161192d5760405162461bcd60e51b81526004016105269190611e63565b5050600090815260046020526040812055565b6000611995826040518060400160405280602081526020017f5361666545524332303a206c6f772d6c6576656c2063616c6c206661696c6564815250856001600160a01b0316611bba9092919063ffffffff16565b8051909150156116ec57808060200190518101906119b39190611e15565b6116ec5760405162461bcd60e51b815260206004820152602a60248201527f5361666545524332303a204552433230206f7065726174696f6e20646964206e6044820152691bdd081cdd58d8d9595960b21b6064820152608401610526565b6000828152600360209081526040808320805490859055600183528184208490556004835281842084905581518181529283018590529185917fcc0bafe2accb565ea70674bf4b2555e49a47d410fb9932dfab3e5f41855d0a2f9101611554565b6000611a7f8483611ae0565b6000848152602081815260409182902080546001600160a01b0319166001600160a01b038716908117909155825190815290810184905285917fd46e58ee9dc1ae703349f8c09c19f23213a531b4d57f00cfd4a5a6cb6519668d9101611885565b6004600083815260200190815260200160002054600014604051806040016040528060128152602001710646561646c696e65206d75737420626520360741b81525090611b405760405162461bcd60e51b81526004016105269190611e63565b5060408051808201909152601881527f64656c6179206265206174206c6561737420332064617973000000000000000060208201526203f480821015611b995760405162461bcd60e51b81526004016105269190611e63565b50611ba48142611ec9565b6000928352600460205260409092209190915550565b6060611bc98484600085611bd1565b949350505050565b606082471015611c325760405162461bcd60e51b815260206004820152602660248201527f416464726573733a20696e73756666696369656e742062616c616e636520666f6044820152651c8818d85b1b60d21b6064820152608401610526565b6001600160a01b0385163b611c895760405162461bcd60e51b815260206004820152601d60248201527f416464726573733a2063616c6c20746f206e6f6e2d636f6e74726163740000006044820152606401610526565b600080866001600160a01b03168587604051611ca59190611f39565b60006040518083038185875af1925050503d8060008114611ce2576040519150601f19603f3d011682016040523d82523d6000602084013e611ce7565b606091505b5091509150611cf7828286611d02565b979650505050505050565b60608315611d115750816113ee565b825115611d215782518084602001fd5b8160405162461bcd60e51b81526004016105269190611e63565b6001600160a01b0381168114611d5057600080fd5b50565b60008060408385031215611d6657600080fd5b8235611d7181611d3b565b91506020830135611d8181611d3b565b809150509250929050565b600060208284031215611d9e57600080fd5b5035919050565b600060208284031215611db757600080fd5b81356113ee81611d3b565b60008060008060808587031215611dd857600080fd5b8435611de381611d3b565b93506020850135611df381611d3b565b9250604085013591506060850135611e0a81611d3b565b939692955090935050565b600060208284031215611e2757600080fd5b815180151581146113ee57600080fd5b60005b83811015611e52578181015183820152602001611e3a565b8381111561181d5750506000910152565b6020815260008251806020840152611e82816040850160208701611e37565b601f01601f19169190910160400192915050565b600060208284031215611ea857600080fd5b81516113ee81611d3b565b634e487b7160e01b600052601160045260246000fd5b60008219821115611edc57611edc611eb3565b500190565b600082821015611ef357611ef3611eb3565b500390565b6000816000190483118215151615611f1257611f12611eb3565b500290565b600082611f3457634e487b7160e01b600052601260045260246000fd5b500490565b60008251611f4b818460208701611e37565b919091019291505056fe646561646c696e6520686173206e6f74206265656e207265616368656420796574a26469706673582212206cf6a10de0df032dbf12f9c321e204b552ed58d7faf101abf7259d305239736c64736f6c63430008090033",
  "linkReferences": {},
  "deployedLinkReferences": {}
}