{
  "_format": "hh-sol-artifact-1",
  "contractName": "YearnVaultMock",
  "sourceName": "contracts/v3/alchemix/mocks/YearnVaultMock.sol",
  "abi": [
    {
      "inputs": [
        {
          "internalType": "contract IDetailedERC20",
          "name": "_token",
          "type": "address"
        },
        {
          "internalType": "contract IYearnController",
          "name": "_controller",
          "type": "address"
        }
      ],
      "stateMutability": "nonpayable",
      "type": "constructor"
    },
    {
      "anonymous": false,
      "inputs": [
        {
          "indexed": true,
          "internalType": "address",
          "name": "owner",
          "type": "address"
        },
        {
          "indexed": true,
          "internalType": "address",
          "name": "spender",
          "type": "address"
        },
        {
          "indexed": false,
          "internalType": "uint256",
          "name": "value",
          "type": "uint256"
        }
      ],
      "name": "Approval",
      "type": "event"
    },
    {
      "anonymous": false,
      "inputs": [
        {
          "indexed": true,
          "internalType": "address",
          "name": "from",
          "type": "address"
        },
        {
          "indexed": true,
          "internalType": "address",
          "name": "to",
          "type": "address"
        },
        {
          "indexed": false,
          "internalType": "uint256",
          "name": "value",
          "type": "uint256"
        }
      ],
      "name": "Transfer",
      "type": "event"
    },
    {
      "inputs": [
        {
          "internalType": "address",
          "name": "owner",
          "type": "address"
        },
        {
          "internalType": "address",
          "name": "spender",
          "type": "address"
        }
      ],
      "name": "allowance",
      "outputs": [
        {
          "internalType": "uint256",
          "name": "",
          "type": "uint256"
        }
      ],
      "stateMutability": "view",
      "type": "function"
    },
    {
      "inputs": [
        {
          "internalType": "address",
          "name": "spender",
          "type": "address"
        },
        {
          "internalType": "uint256",
          "name": "amount",
          "type": "uint256"
        }
      ],
      "name": "approve",
      "outputs": [
        {
          "internalType": "bool",
          "name": "",
          "type": "bool"
        }
      ],
      "stateMutability": "nonpayable",
      "type": "function"
    },
    {
      "inputs": [],
      "name": "available",
      "outputs": [
        {
          "internalType": "uint256",
          "name": "",
          "type": "uint256"
        }
      ],
      "stateMutability": "view",
      "type": "function"
    },
    {
      "inputs": [],
      "name": "balance",
      "outputs": [
        {
          "internalType": "uint256",
          "name": "",
          "type": "uint256"
        }
      ],
      "stateMutability": "view",
      "type": "function"
    },
    {
      "inputs": [
        {
          "internalType": "address",
          "name": "account",
          "type": "address"
        }
      ],
      "name": "balanceOf",
      "outputs": [
        {
          "internalType": "uint256",
          "name": "",
          "type": "uint256"
        }
      ],
      "stateMutability": "view",
      "type": "function"
    },
    {
      "inputs": [],
      "name": "clear",
      "outputs": [],
      "stateMutability": "nonpayable",
      "type": "function"
    },
    {
      "inputs": [],
      "name": "controller",
      "outputs": [
        {
          "internalType": "contract IYearnController",
          "name": "",
          "type": "address"
        }
      ],
      "stateMutability": "view",
      "type": "function"
    },
    {
      "inputs": [],
      "name": "decimals",
      "outputs": [
        {
          "internalType": "uint8",
          "name": "",
          "type": "uint8"
        }
      ],
      "stateMutability": "view",
      "type": "function"
    },
    {
      "inputs": [
        {
          "internalType": "address",
          "name": "spender",
          "type": "address"
        },
        {
          "internalType": "uint256",
          "name": "subtractedValue",
          "type": "uint256"
        }
      ],
      "name": "decreaseAllowance",
      "outputs": [
        {
          "internalType": "bool",
          "name": "",
          "type": "bool"
        }
      ],
      "stateMutability": "nonpayable",
      "type": "function"
    },
    {
      "inputs": [
        {
          "internalType": "uint256",
          "name": "_amount",
          "type": "uint256"
        }
      ],
      "name": "deposit",
      "outputs": [
        {
          "internalType": "uint256",
          "name": "",
          "type": "uint256"
        }
      ],
      "stateMutability": "nonpayable",
      "type": "function"
    },
    {
      "inputs": [],
      "name": "earn",
      "outputs": [],
      "stateMutability": "nonpayable",
      "type": "function"
    },
    {
      "inputs": [
        {
          "internalType": "address",
          "name": "spender",
          "type": "address"
        },
        {
          "internalType": "uint256",
          "name": "addedValue",
          "type": "uint256"
        }
      ],
      "name": "increaseAllowance",
      "outputs": [
        {
          "internalType": "bool",
          "name": "",
          "type": "bool"
        }
      ],
      "stateMutability": "nonpayable",
      "type": "function"
    },
    {
      "inputs": [],
      "name": "max",
      "outputs": [
        {
          "internalType": "uint256",
          "name": "",
          "type": "uint256"
        }
      ],
      "stateMutability": "view",
      "type": "function"
    },
    {
      "inputs": [],
      "name": "min",
      "outputs": [
        {
          "internalType": "uint256",
          "name": "",
          "type": "uint256"
        }
      ],
      "stateMutability": "view",
      "type": "function"
    },
    {
      "inputs": [],
      "name": "name",
      "outputs": [
        {
          "internalType": "string",
          "name": "",
          "type": "string"
        }
      ],
      "stateMutability": "view",
      "type": "function"
    },
    {
      "inputs": [],
      "name": "pricePerShare",
      "outputs": [
        {
          "internalType": "uint256",
          "name": "",
          "type": "uint256"
        }
      ],
      "stateMutability": "view",
      "type": "function"
    },
    {
      "inputs": [],
      "name": "symbol",
      "outputs": [
        {
          "internalType": "string",
          "name": "",
          "type": "string"
        }
      ],
      "stateMutability": "view",
      "type": "function"
    },
    {
      "inputs": [],
      "name": "token",
      "outputs": [
        {
          "internalType": "contract IDetailedERC20",
          "name": "",
          "type": "address"
        }
      ],
      "stateMutability": "view",
      "type": "function"
    },
    {
      "inputs": [],
      "name": "totalSupply",
      "outputs": [
        {
          "internalType": "uint256",
          "name": "",
          "type": "uint256"
        }
      ],
      "stateMutability": "view",
      "type": "function"
    },
    {
      "inputs": [
        {
          "internalType": "address",
          "name": "recipient",
          "type": "address"
        },
        {
          "internalType": "uint256",
          "name": "amount",
          "type": "uint256"
        }
      ],
      "name": "transfer",
      "outputs": [
        {
          "internalType": "bool",
          "name": "",
          "type": "bool"
        }
      ],
      "stateMutability": "nonpayable",
      "type": "function"
    },
    {
      "inputs": [
        {
          "internalType": "address",
          "name": "sender",
          "type": "address"
        },
        {
          "internalType": "address",
          "name": "recipient",
          "type": "address"
        },
        {
          "internalType": "uint256",
          "name": "amount",
          "type": "uint256"
        }
      ],
      "name": "transferFrom",
      "outputs": [
        {
          "internalType": "bool",
          "name": "",
          "type": "bool"
        }
      ],
      "stateMutability": "nonpayable",
      "type": "function"
    },
    {
      "inputs": [],
      "name": "vdecimals",
      "outputs": [
        {
          "internalType": "uint8",
          "name": "",
          "type": "uint8"
        }
      ],
      "stateMutability": "view",
      "type": "function"
    },
    {
      "inputs": [
        {
          "internalType": "uint256",
          "name": "_shares",
          "type": "uint256"
        },
        {
          "internalType": "address",
          "name": "_recipient",
          "type": "address"
        }
      ],
      "name": "withdraw",
      "outputs": [
        {
          "internalType": "uint256",
          "name": "",
          "type": "uint256"
        }
      ],
      "stateMutability": "nonpayable",
      "type": "function"
    }
  ],
  "bytecode": "0x608060405261251c6006553480156200001757600080fd5b5060405162001b8938038062001b898339810160408190526200003a916200017d565b604080518082018252600a815269794561726e204d6f636b60b01b602080830191825283518085019094526005845264794d4f434b60d81b9084015281519192916200008991600391620000e1565b5080516200009f906004906020840190620000e1565b50506005805460ff1916601217905550600880546001600160a01b039384166001600160a01b03199182161790915560078054929093169116179055620001d4565b828054600181600116156101000203166002900490600052602060002090601f016020900481019282601f106200012457805160ff191683800117855562000154565b8280016001018555821562000154579182015b828111156200015457825182559160200191906001019062000137565b506200016292915062000166565b5090565b5b8082111562000162576000815560010162000167565b6000806040838503121562000190578182fd5b82516200019d81620001bb565b6020840151909250620001b081620001bb565b809150509250929050565b6001600160a01b0381168114620001d157600080fd5b50565b6119a580620001e46000396000f3fe608060405234801561001057600080fd5b506004361061014c5760003560e01c806370a08231116100c3578063b6b55f251161007c578063b6b55f2514610265578063d389800f14610278578063dd62ed3e14610280578063f77c479114610293578063f8897945146102a8578063fc0c546a146102b05761014c565b806370a082311461021457806395d89b411461022757806399530b061461022f578063a457c2d714610237578063a9059cbb1461024a578063b69ef8a81461025d5761014c565b80632fea88d4116101155780632fea88d4146101ca578063313ce567146101df57806339509351146101e757806348a0d754146101fa57806352efea6e146102025780636ac5db191461020c5761014c565b8062f714ce1461015157806306fdde031461017a578063095ea7b31461018f57806318160ddd146101af57806323b872dd146101b7575b600080fd5b61016461015f3660046114ec565b6102b8565b604051610171919061187f565b60405180910390f35b6101826104b6565b6040516101719190611587565b6101a261019d366004611472565b61054c565b604051610171919061157c565b61016461056a565b6101a26101c5366004611432565b610570565b6101d26105f8565b6040516101719190611888565b6101d2610607565b6101a26101f5366004611472565b610610565b61016461065e565b61020a6106ef565b005b610164610869565b6101646102223660046113e3565b61086f565b61018261088a565b6101646108eb565b6101a2610245366004611472565b61090c565b6101a2610258366004611472565b610974565b610164610988565b6101646102733660046114bc565b610a98565b61020a610c14565b61016461028e3660046113fe565b610ca9565b61029b610cd4565b604051610171919061152b565b610164610ce3565b61029b610ce9565b6000806102de6102c661056a565b6102d8866102d2610988565b90610cf8565b90610d3b565b90506102ea3385610d7d565b6008546040516370a0823160e01b81526000916001600160a01b0316906370a082319061031b90309060040161152b565b60206040518083038186803b15801561033357600080fd5b505afa158015610347573d6000803e3d6000fd5b505050506040513d601f19601f8201168201806040525081019061036b91906114d4565b9050818110156104975760006103818383610e5f565b60075460085460405163f3fef3a360e01b81529293506001600160a01b039182169263f3fef3a3926103b99216908590600401611563565b600060405180830381600087803b1580156103d357600080fd5b505af11580156103e7573d6000803e3d6000fd5b50506008546040516370a0823160e01b8152600093506001600160a01b0390911691506370a082319061041e90309060040161152b565b60206040518083038186803b15801561043657600080fd5b505afa15801561044a573d6000803e3d6000fd5b505050506040513d601f19601f8201168201806040525081019061046e91906114d4565b9050600061047c8285610e5f565b905082811015610493576104908482610ea1565b94505b5050505b6008546104ae906001600160a01b03168584610ec6565b505092915050565b60038054604080516020601f60026000196101006001881615020190951694909404938401819004810282018101909252828152606093909290918301828280156105425780601f1061051757610100808354040283529160200191610542565b820191906000526020600020905b81548152906001019060200180831161052557829003601f168201915b5050505050905090565b6000610560610559610f21565b8484610f25565b5060015b92915050565b60025490565b600061057d848484610fd9565b6105ed84610589610f21565b6105e885604051806060016040528060288152602001611923602891396001600160a01b038a166000908152600160205260408120906105c7610f21565b6001600160a01b0316815260208101919091526040016000205491906110ee565b610f25565b5060015b9392505050565b6000610602610607565b905090565b60055460ff1690565b600061056061061d610f21565b846105e8856001600061062e610f21565b6001600160a01b03908116825260208083019390935260409182016000908120918c168152925290205490610ea1565b6006546008546040516370a0823160e01b815260009261060292612710926102d892916001600160a01b0316906370a082319061069f90309060040161152b565b60206040518083038186803b1580156106b757600080fd5b505afa1580156106cb573d6000803e3d6000fd5b505050506040513d601f19601f820116820180604052508101906102d291906114d4565b6007546008546040516370a0823160e01b815261078b926001600160a01b039081169216906370a082319061072890309060040161152b565b60206040518083038186803b15801561074057600080fd5b505afa158015610754573d6000803e3d6000fd5b505050506040513d601f19601f8201168201806040525081019061077891906114d4565b6008546001600160a01b03169190610ec6565b6007546008546040516370a0823160e01b81526001600160a01b039283169263b02bf4b992169081906370a08231906107c890309060040161152b565b60206040518083038186803b1580156107e057600080fd5b505afa1580156107f4573d6000803e3d6000fd5b505050506040513d601f19601f8201168201806040525081019061081891906114d4565b6040518363ffffffff1660e01b8152600401610835929190611563565b600060405180830381600087803b15801561084f57600080fd5b505af1158015610863573d6000803e3d6000fd5b50505050565b61271081565b6001600160a01b031660009081526020819052604090205490565b60048054604080516020601f60026000196101006001881615020190951694909404938401819004810282018101909252828152606093909290918301828280156105425780601f1061051757610100808354040283529160200191610542565b60006106026108f861056a565b6102d8670de0b6b3a76400006102d2610988565b6000610560610919610f21565b846105e88560405180606001604052806025815260200161194b6025913960016000610943610f21565b6001600160a01b03908116825260208083019390935260409182016000908120918d168152925290205491906110ee565b6000610560610981610f21565b8484610fd9565b6007546008546040516370a0823160e01b8152600092610602926001600160a01b03918216926370a08231926109c292169060040161152b565b60206040518083038186803b1580156109da57600080fd5b505afa1580156109ee573d6000803e3d6000fd5b505050506040513d601f19601f82011682018060405250810190610a1291906114d4565b6008546040516370a0823160e01b81526001600160a01b03909116906370a0823190610a4290309060040161152b565b60206040518083038186803b158015610a5a57600080fd5b505afa158015610a6e573d6000803e3d6000fd5b505050506040513d601f19601f82011682018060405250810190610a9291906114d4565b90610ea1565b600080610aa3610988565b6008546040516370a0823160e01b81529192506000916001600160a01b03909116906370a0823190610ad990309060040161152b565b60206040518083038186803b158015610af157600080fd5b505afa158015610b05573d6000803e3d6000fd5b505050506040513d601f19601f82011682018060405250810190610b2991906114d4565b600854909150610b44906001600160a01b031633308761111a565b6008546040516370a0823160e01b81526000916001600160a01b0316906370a0823190610b7590309060040161152b565b60206040518083038186803b158015610b8d57600080fd5b505afa158015610ba1573d6000803e3d6000fd5b505050506040513d601f19601f82011682018060405250810190610bc591906114d4565b9050610bd18183610e5f565b94506000610bdd61056a565b610be8575084610c01565b610bfe846102d8610bf761056a565b8990610cf8565b90505b610c0b338261113b565b50505050919050565b6000610c1e61065e565b600754600854919250610c3e916001600160a01b03908116911683610ec6565b60075460085460405163b02bf4b960e01b81526001600160a01b039283169263b02bf4b992610c74929116908590600401611563565b600060405180830381600087803b158015610c8e57600080fd5b505af1158015610ca2573d6000803e3d6000fd5b5050505050565b6001600160a01b03918216600090815260016020908152604080832093909416825291909152205490565b6007546001600160a01b031681565b60065481565b6008546001600160a01b031681565b600082610d0757506000610564565b82820282848281610d1457fe5b04146105f15760405162461bcd60e51b8152600401610d32906116bc565b60405180910390fd5b60006105f183836040518060400160405280601a81526020017f536166654d6174683a206469766973696f6e206279207a65726f0000000000008152506111ef565b6001600160a01b038216610da35760405162461bcd60e51b8152600401610d32906116fd565b610daf82600083610f1c565b610dec816040518060600160405280602281526020016118db602291396001600160a01b03851660009081526020819052604090205491906110ee565b6001600160a01b038316600090815260208190526040902055600254610e129082610e5f565b6002556040516000906001600160a01b038416907fddf252ad1be2c89b69c2b068fc378daa952ba7f163c4a11628f55a4df523b3ef90610e5390859061187f565b60405180910390a35050565b60006105f183836040518060400160405280601e81526020017f536166654d6174683a207375627472616374696f6e206f766572666c6f7700008152506110ee565b6000828201838110156105f15760405162461bcd60e51b8152600401610d329061163f565b610f1c8363a9059cbb60e01b8484604051602401610ee5929190611563565b60408051601f198184030181529190526020810180516001600160e01b03166001600160e01b031990931692909217909152611226565b505050565b3390565b6001600160a01b038316610f4b5760405162461bcd60e51b8152600401610d3290611783565b6001600160a01b038216610f715760405162461bcd60e51b8152600401610d32906115fd565b6001600160a01b0380841660008181526001602090815260408083209487168084529490915290819020849055517f8c5be1e5ebec7d5bd14f71427d1e84f3dd0314c0f7b2291e5b200ac8c7c3b92590610fcc90859061187f565b60405180910390a3505050565b6001600160a01b038316610fff5760405162461bcd60e51b8152600401610d329061173e565b6001600160a01b0382166110255760405162461bcd60e51b8152600401610d32906115ba565b611030838383610f1c565b61106d816040518060600160405280602681526020016118fd602691396001600160a01b03861660009081526020819052604090205491906110ee565b6001600160a01b03808516600090815260208190526040808220939093559084168152205461109c9082610ea1565b6001600160a01b0380841660008181526020819052604090819020939093559151908516907fddf252ad1be2c89b69c2b068fc378daa952ba7f163c4a11628f55a4df523b3ef90610fcc90859061187f565b600081848411156111125760405162461bcd60e51b8152600401610d329190611587565b505050900390565b610863846323b872dd60e01b858585604051602401610ee59392919061153f565b6001600160a01b0382166111615760405162461bcd60e51b8152600401610d3290611848565b61116d60008383610f1c565b60025461117a9082610ea1565b6002556001600160a01b0382166000908152602081905260409020546111a09082610ea1565b6001600160a01b0383166000818152602081905260408082209390935591519091907fddf252ad1be2c89b69c2b068fc378daa952ba7f163c4a11628f55a4df523b3ef90610e5390859061187f565b600081836112105760405162461bcd60e51b8152600401610d329190611587565b50600083858161121c57fe5b0495945050505050565b606061127b826040518060400160405280602081526020017f5361666545524332303a206c6f772d6c6576656c2063616c6c206661696c6564815250856001600160a01b03166112b59092919063ffffffff16565b805190915015610f1c5780806020019051810190611299919061149c565b610f1c5760405162461bcd60e51b8152600401610d32906117fe565b60606112c484846000856112cc565b949350505050565b6060824710156112ee5760405162461bcd60e51b8152600401610d3290611676565b6112f78561138d565b6113135760405162461bcd60e51b8152600401610d32906117c7565b60006060866001600160a01b03168587604051611330919061150f565b60006040518083038185875af1925050503d806000811461136d576040519150601f19603f3d011682016040523d82523d6000602084013e611372565b606091505b5091509150611382828286611393565b979650505050505050565b3b151590565b606083156113a25750816105f1565b8251156113b25782518084602001fd5b8160405162461bcd60e51b8152600401610d329190611587565b80356001600160a01b038116811461056457600080fd5b6000602082840312156113f4578081fd5b6105f183836113cc565b60008060408385031215611410578081fd5b61141a84846113cc565b915061142984602085016113cc565b90509250929050565b600080600060608486031215611446578081fd5b8335611451816118c2565b92506020840135611461816118c2565b929592945050506040919091013590565b60008060408385031215611484578182fd5b61148e84846113cc565b946020939093013593505050565b6000602082840312156114ad578081fd5b815180151581146105f1578182fd5b6000602082840312156114cd578081fd5b5035919050565b6000602082840312156114e5578081fd5b5051919050565b600080604083850312156114fe578182fd5b8235915061142984602085016113cc565b60008251611521818460208701611896565b9190910192915050565b6001600160a01b0391909116815260200190565b6001600160a01b039384168152919092166020820152604081019190915260600190565b6001600160a01b03929092168252602082015260400190565b901515815260200190565b60006020825282518060208401526115a6816040850160208701611896565b601f01601f19169190910160400192915050565b60208082526023908201527f45524332303a207472616e7366657220746f20746865207a65726f206164647260408201526265737360e81b606082015260800190565b60208082526022908201527f45524332303a20617070726f766520746f20746865207a65726f206164647265604082015261737360f01b606082015260800190565b6020808252601b908201527f536166654d6174683a206164646974696f6e206f766572666c6f770000000000604082015260600190565b60208082526026908201527f416464726573733a20696e73756666696369656e742062616c616e636520666f6040820152651c8818d85b1b60d21b606082015260800190565b60208082526021908201527f536166654d6174683a206d756c7469706c69636174696f6e206f766572666c6f6040820152607760f81b606082015260800190565b60208082526021908201527f45524332303a206275726e2066726f6d20746865207a65726f206164647265736040820152607360f81b606082015260800190565b60208082526025908201527f45524332303a207472616e736665722066726f6d20746865207a65726f206164604082015264647265737360d81b606082015260800190565b60208082526024908201527f45524332303a20617070726f76652066726f6d20746865207a65726f206164646040820152637265737360e01b606082015260800190565b6020808252601d908201527f416464726573733a2063616c6c20746f206e6f6e2d636f6e7472616374000000604082015260600190565b6020808252602a908201527f5361666545524332303a204552433230206f7065726174696f6e20646964206e6040820152691bdd081cdd58d8d9595960b21b606082015260800190565b6020808252601f908201527f45524332303a206d696e7420746f20746865207a65726f206164647265737300604082015260600190565b90815260200190565b60ff91909116815260200190565b60005b838110156118b1578181015183820152602001611899565b838111156108635750506000910152565b6001600160a01b03811681146118d757600080fd5b5056fe45524332303a206275726e20616d6f756e7420657863656564732062616c616e636545524332303a207472616e7366657220616d6f756e7420657863656564732062616c616e636545524332303a207472616e7366657220616d6f756e74206578636565647320616c6c6f77616e636545524332303a2064656372656173656420616c6c6f77616e63652062656c6f77207a65726fa26469706673582212201542ea0d86ecff9d435c27e08f1949483b9a72c18e9d505502ab5aae4a4425b664736f6c634300060c0033",
  "linkReferences": {},
  "deployedLinkReferences": {}
}