{
  "_format": "hh-sol-artifact-1",
  "contractName": "CTokenChiMock",
  "sourceName": "contracts/mocks/oracles/compound/CTokenChiMock.sol",
  "abi": [
    {
      "inputs": [],
      "name": "exchangeRateCurrent",
      "outputs": [
        {
          "internalType": "uint256",
          "name": "",
          "type": "uint256"
        }
      ],
      "stateMutability": "view",
      "type": "function"
    },
    {
      "inputs": [],
      "name": "exchangeRateStored",
      "outputs": [
        {
          "internalType": "uint256",
          "name": "",
          "type": "uint256"
        }
      ],
      "stateMutability": "view",
      "type": "function"
    },
    {
      "inputs": [
        {
          "internalType": "uint256",
          "name": "chi",
          "type": "uint256"
        }
      ],
      "name": "set",
      "outputs": [],
      "stateMutability": "nonpayable",
      "type": "function"
    }
  ],
  "bytecode": "0x608060405234801561001057600080fd5b5060d98061001f6000396000f3fe6080604052348015600f57600080fd5b5060043610603c5760003560e01c8063182df0f514604157806360fe47b114605b578063bd6d894d14606c575b600080fd5b60476072565b60405160529190609a565b60405180910390f35b606a60663660046083565b6078565b005b6047607d565b60005481565b600055565b60005490565b6000602082840312156093578081fd5b5035919050565b9081526020019056fea26469706673582212208a84aba875c4223a96cc05a544b3f8e880977da46230179c810e1c7842a10dad64736f6c63430008010033",
  "linkReferences": {},
  "deployedLinkReferences": {}
}