{
  "_format": "hh-sol-artifact-1",
  "contractName": "MockAction",
  "sourceName": "contracts/testing/MockAction.sol",
  "abi": [
    {
      "inputs": [
        {
          "internalType": "address",
          "name": "token",
          "type": "address"
        }
      ],
      "name": "addUsableToken",
      "outputs": [
        {
          "internalType": "bool",
          "name": "",
          "type": "bool"
        }
      ],
      "stateMutability": "nonpayable",
      "type": "function"
    },
    {
      "inputs": [],
      "name": "executeActionFee",
      "outputs": [
        {
          "internalType": "uint256",
          "name": "",
          "type": "uint256"
        }
      ],
      "stateMutability": "pure",
      "type": "function"
    },
    {
      "inputs": [],
      "name": "executeFeeHandler",
      "outputs": [
        {
          "internalType": "address",
          "name": "",
          "type": "address"
        }
      ],
      "stateMutability": "pure",
      "type": "function"
    },
    {
      "inputs": [],
      "name": "executeSwapperSlippage",
      "outputs": [
        {
          "internalType": "uint256",
          "name": "",
          "type": "uint256"
        }
      ],
      "stateMutability": "pure",
      "type": "function"
    },
    {
      "inputs": [],
      "name": "getActionFee",
      "outputs": [
        {
          "internalType": "uint256",
          "name": "",
          "type": "uint256"
        }
      ],
      "stateMutability": "pure",
      "type": "function"
    },
    {
      "inputs": [
        {
          "internalType": "address",
          "name": "payer",
          "type": "address"
        }
      ],
      "name": "getEthRequiredForGas",
      "outputs": [
        {
          "internalType": "uint256",
          "name": "",
          "type": "uint256"
        }
      ],
      "stateMutability": "view",
      "type": "function"
    },
    {
      "inputs": [],
      "name": "getFeeHandler",
      "outputs": [
        {
          "internalType": "address",
          "name": "",
          "type": "address"
        }
      ],
      "stateMutability": "pure",
      "type": "function"
    },
    {
      "inputs": [],
      "name": "getUsableTokens",
      "outputs": [
        {
          "internalType": "address[]",
          "name": "",
          "type": "address[]"
        }
      ],
      "stateMutability": "pure",
      "type": "function"
    },
    {
      "inputs": [
        {
          "internalType": "address",
          "name": "",
          "type": "address"
        }
      ],
      "name": "isUsable",
      "outputs": [
        {
          "internalType": "bool",
          "name": "",
          "type": "bool"
        }
      ],
      "stateMutability": "pure",
      "type": "function"
    },
    {
      "inputs": [
        {
          "internalType": "address",
          "name": "payer",
          "type": "address"
        },
        {
          "internalType": "uint256",
          "name": "amount",
          "type": "uint256"
        }
      ],
      "name": "setEthRequiredForGas",
      "outputs": [],
      "stateMutability": "nonpayable",
      "type": "function"
    },
    {
      "inputs": [
        {
          "internalType": "contract IGasBank",
          "name": "bank",
          "type": "address"
        },
        {
          "internalType": "address",
          "name": "account",
          "type": "address"
        },
        {
          "internalType": "uint256",
          "name": "amount",
          "type": "uint256"
        }
      ],
      "name": "withdrawFromGasBank",
      "outputs": [],
      "stateMutability": "nonpayable",
      "type": "function"
    },
    {
      "stateMutability": "payable",
      "type": "receive"
    }
  ],
  "bytecode": "0x608060405234801561001057600080fd5b50610401806100206000396000f3fe6080604052600436106100a05760003560e01c80638cb164f9116100645780638cb164f91461015e578063b75d609a1461018e578063ba46fba6146101af578063bba018a1146101cb578063bef47adf146101af578063ec594254146100ce57600080fd5b80630a102225146100ac5780632fe35e14146100ce5780634e78a720146100f15780636df45f55146100ce5780637dc318461461012857600080fd5b366100a757005b600080fd5b3480156100b857600080fd5b506100cc6100c73660046102f4565b6101f1565b005b3480156100da57600080fd5b5060005b6040519081526020015b60405180910390f35b3480156100fd57600080fd5b506100cc61010c366004610335565b6001600160a01b03909116600090815260208190526040902055565b34801561013457600080fd5b506100de610143366004610361565b6001600160a01b031660009081526020819052604090205490565b34801561016a57600080fd5b5061017e610179366004610361565b61025e565b60405190151581526020016100e8565b34801561019a57600080fd5b5061017e6101a9366004610361565b50600090565b3480156101bb57600080fd5b50604051600081526020016100e8565b3480156101d757600080fd5b50604080516000815260208101918290526100e89161037e565b604051634aaad4a160e11b81526001600160a01b03838116600483015230602483015260448201839052841690639555a94290606401600060405180830381600087803b15801561024157600080fd5b505af1158015610255573d6000803e3d6000fd5b50505050505050565b600061026b600183610271565b92915050565b6000610286836001600160a01b03841661028d565b9392505050565b60008181526001830160205260408120546102d45750815460018181018455600084815260208082209093018490558454848252828601909352604090209190915561026b565b50600061026b565b6001600160a01b03811681146102f157600080fd5b50565b60008060006060848603121561030957600080fd5b8335610314816102dc565b92506020840135610324816102dc565b929592945050506040919091013590565b6000806040838503121561034857600080fd5b8235610353816102dc565b946020939093013593505050565b60006020828403121561037357600080fd5b8135610286816102dc565b6020808252825182820181905260009190848201906040850190845b818110156103bf5783516001600160a01b03168352928401929184019160010161039a565b5090969550505050505056fea26469706673582212206c1e7c05c905f7551cc93f968288b934399943b6a21bcecb965228b10d9dcc2464736f6c63430008090033",
  "linkReferences": {},
  "deployedLinkReferences": {}
}