{
  "_format": "hh-sol-artifact-1",
  "contractName": "BkdLocker",
  "sourceName": "contracts/BkdLocker.sol",
  "abi": [
    {
      "inputs": [
        {
          "internalType": "address",
          "name": "_rewardToken",
          "type": "address"
        },
        {
          "internalType": "address",
          "name": "_govToken",
          "type": "address"
        },
        {
          "internalType": "contract IRoleManager",
          "name": "roleManager",
          "type": "address"
        }
      ],
      "stateMutability": "nonpayable",
      "type": "constructor"
    },
    {
      "anonymous": false,
      "inputs": [
        {
          "indexed": true,
          "internalType": "bytes32",
          "name": "key",
          "type": "bytes32"
        },
        {
          "indexed": false,
          "internalType": "address",
          "name": "value",
          "type": "address"
        },
        {
          "indexed": false,
          "internalType": "uint256",
          "name": "delay",
          "type": "uint256"
        }
      ],
      "name": "ConfigPreparedAddress",
      "type": "event"
    },
    {
      "anonymous": false,
      "inputs": [
        {
          "indexed": true,
          "internalType": "bytes32",
          "name": "key",
          "type": "bytes32"
        },
        {
          "indexed": false,
          "internalType": "uint256",
          "name": "value",
          "type": "uint256"
        },
        {
          "indexed": false,
          "internalType": "uint256",
          "name": "delay",
          "type": "uint256"
        }
      ],
      "name": "ConfigPreparedNumber",
      "type": "event"
    },
    {
      "anonymous": false,
      "inputs": [
        {
          "indexed": true,
          "internalType": "bytes32",
          "name": "key",
          "type": "bytes32"
        }
      ],
      "name": "ConfigReset",
      "type": "event"
    },
    {
      "anonymous": false,
      "inputs": [
        {
          "indexed": true,
          "internalType": "bytes32",
          "name": "key",
          "type": "bytes32"
        },
        {
          "indexed": false,
          "internalType": "address",
          "name": "oldValue",
          "type": "address"
        },
        {
          "indexed": false,
          "internalType": "address",
          "name": "newValue",
          "type": "address"
        }
      ],
      "name": "ConfigUpdatedAddress",
      "type": "event"
    },
    {
      "anonymous": false,
      "inputs": [
        {
          "indexed": true,
          "internalType": "bytes32",
          "name": "key",
          "type": "bytes32"
        },
        {
          "indexed": false,
          "internalType": "uint256",
          "name": "oldValue",
          "type": "uint256"
        },
        {
          "indexed": false,
          "internalType": "uint256",
          "name": "newValue",
          "type": "uint256"
        }
      ],
      "name": "ConfigUpdatedNumber",
      "type": "event"
    },
    {
      "anonymous": false,
      "inputs": [
        {
          "indexed": false,
          "internalType": "uint256",
          "name": "amount",
          "type": "uint256"
        }
      ],
      "name": "FeesDeposited",
      "type": "event"
    },
    {
      "anonymous": false,
      "inputs": [
        {
          "indexed": true,
          "internalType": "address",
          "name": "user",
          "type": "address"
        },
        {
          "indexed": false,
          "internalType": "uint256",
          "name": "amount",
          "type": "uint256"
        }
      ],
      "name": "Locked",
      "type": "event"
    },
    {
      "anonymous": false,
      "inputs": [
        {
          "indexed": true,
          "internalType": "address",
          "name": "user",
          "type": "address"
        },
        {
          "indexed": true,
          "internalType": "address",
          "name": "rewardToken",
          "type": "address"
        },
        {
          "indexed": false,
          "internalType": "uint256",
          "name": "amount",
          "type": "uint256"
        }
      ],
      "name": "RewardsClaimed",
      "type": "event"
    },
    {
      "anonymous": false,
      "inputs": [
        {
          "indexed": true,
          "internalType": "address",
          "name": "user",
          "type": "address"
        },
        {
          "indexed": false,
          "internalType": "uint256",
          "name": "amount",
          "type": "uint256"
        }
      ],
      "name": "WithdrawExecuted",
      "type": "event"
    },
    {
      "anonymous": false,
      "inputs": [
        {
          "indexed": true,
          "internalType": "address",
          "name": "user",
          "type": "address"
        },
        {
          "indexed": false,
          "internalType": "uint256",
          "name": "amount",
          "type": "uint256"
        }
      ],
      "name": "WithdrawPrepared",
      "type": "event"
    },
    {
      "inputs": [
        {
          "internalType": "address",
          "name": "user",
          "type": "address"
        }
      ],
      "name": "balanceOf",
      "outputs": [
        {
          "internalType": "uint256",
          "name": "",
          "type": "uint256"
        }
      ],
      "stateMutability": "view",
      "type": "function"
    },
    {
      "inputs": [
        {
          "internalType": "address",
          "name": "",
          "type": "address"
        }
      ],
      "name": "balances",
      "outputs": [
        {
          "internalType": "uint256",
          "name": "",
          "type": "uint256"
        }
      ],
      "stateMutability": "view",
      "type": "function"
    },
    {
      "inputs": [
        {
          "internalType": "address",
          "name": "",
          "type": "address"
        }
      ],
      "name": "boostFactors",
      "outputs": [
        {
          "internalType": "uint256",
          "name": "",
          "type": "uint256"
        }
      ],
      "stateMutability": "view",
      "type": "function"
    },
    {
      "inputs": [
        {
          "internalType": "address",
          "name": "user",
          "type": "address"
        }
      ],
      "name": "boostedBalance",
      "outputs": [
        {
          "internalType": "uint256",
          "name": "",
          "type": "uint256"
        }
      ],
      "stateMutability": "view",
      "type": "function"
    },
    {
      "inputs": [
        {
          "internalType": "address",
          "name": "_rewardToken",
          "type": "address"
        }
      ],
      "name": "claimFees",
      "outputs": [],
      "stateMutability": "nonpayable",
      "type": "function"
    },
    {
      "inputs": [],
      "name": "claimFees",
      "outputs": [],
      "stateMutability": "nonpayable",
      "type": "function"
    },
    {
      "inputs": [
        {
          "internalType": "address",
          "name": "user",
          "type": "address"
        }
      ],
      "name": "claimableFees",
      "outputs": [
        {
          "internalType": "uint256",
          "name": "",
          "type": "uint256"
        }
      ],
      "stateMutability": "view",
      "type": "function"
    },
    {
      "inputs": [
        {
          "internalType": "address",
          "name": "user",
          "type": "address"
        },
        {
          "internalType": "address",
          "name": "_rewardToken",
          "type": "address"
        }
      ],
      "name": "claimableFees",
      "outputs": [
        {
          "internalType": "uint256",
          "name": "",
          "type": "uint256"
        }
      ],
      "stateMutability": "view",
      "type": "function"
    },
    {
      "inputs": [
        {
          "internalType": "address",
          "name": "user",
          "type": "address"
        },
        {
          "internalType": "uint256",
          "name": "amountAdded",
          "type": "uint256"
        },
        {
          "internalType": "uint256",
          "name": "newTotal",
          "type": "uint256"
        }
      ],
      "name": "computeNewBoost",
      "outputs": [
        {
          "internalType": "uint256",
          "name": "",
          "type": "uint256"
        }
      ],
      "stateMutability": "view",
      "type": "function"
    },
    {
      "inputs": [
        {
          "internalType": "bytes32",
          "name": "",
          "type": "bytes32"
        }
      ],
      "name": "currentAddresses",
      "outputs": [
        {
          "internalType": "address",
          "name": "",
          "type": "address"
        }
      ],
      "stateMutability": "view",
      "type": "function"
    },
    {
      "inputs": [
        {
          "internalType": "bytes32",
          "name": "",
          "type": "bytes32"
        }
      ],
      "name": "currentUInts256",
      "outputs": [
        {
          "internalType": "uint256",
          "name": "",
          "type": "uint256"
        }
      ],
      "stateMutability": "view",
      "type": "function"
    },
    {
      "inputs": [
        {
          "internalType": "bytes32",
          "name": "",
          "type": "bytes32"
        }
      ],
      "name": "deadlines",
      "outputs": [
        {
          "internalType": "uint256",
          "name": "",
          "type": "uint256"
        }
      ],
      "stateMutability": "view",
      "type": "function"
    },
    {
      "inputs": [
        {
          "internalType": "uint256",
          "name": "amount",
          "type": "uint256"
        }
      ],
      "name": "depositFees",
      "outputs": [],
      "stateMutability": "nonpayable",
      "type": "function"
    },
    {
      "inputs": [],
      "name": "executeUnlocks",
      "outputs": [],
      "stateMutability": "nonpayable",
      "type": "function"
    },
    {
      "inputs": [
        {
          "internalType": "address",
          "name": "user",
          "type": "address"
        }
      ],
      "name": "getShareOfTotalBoostedBalance",
      "outputs": [
        {
          "internalType": "uint256",
          "name": "",
          "type": "uint256"
        }
      ],
      "stateMutability": "view",
      "type": "function"
    },
    {
      "inputs": [
        {
          "internalType": "address",
          "name": "user",
          "type": "address"
        }
      ],
      "name": "getStashedGovTokens",
      "outputs": [
        {
          "components": [
            {
              "internalType": "uint256",
              "name": "releaseTime",
              "type": "uint256"
            },
            {
              "internalType": "uint256",
              "name": "amount",
              "type": "uint256"
            }
          ],
          "internalType": "struct IBkdLocker.WithdrawStash[]",
          "name": "",
          "type": "tuple[]"
        }
      ],
      "stateMutability": "view",
      "type": "function"
    },
    {
      "inputs": [
        {
          "internalType": "address",
          "name": "user",
          "type": "address"
        },
        {
          "internalType": "address",
          "name": "_rewardToken",
          "type": "address"
        }
      ],
      "name": "getUserShare",
      "outputs": [
        {
          "internalType": "uint256",
          "name": "",
          "type": "uint256"
        }
      ],
      "stateMutability": "view",
      "type": "function"
    },
    {
      "inputs": [
        {
          "internalType": "address",
          "name": "user",
          "type": "address"
        }
      ],
      "name": "getUserShare",
      "outputs": [
        {
          "internalType": "uint256",
          "name": "",
          "type": "uint256"
        }
      ],
      "stateMutability": "view",
      "type": "function"
    },
    {
      "inputs": [],
      "name": "govToken",
      "outputs": [
        {
          "internalType": "contract IERC20",
          "name": "",
          "type": "address"
        }
      ],
      "stateMutability": "view",
      "type": "function"
    },
    {
      "inputs": [
        {
          "internalType": "uint256",
          "name": "startBoost",
          "type": "uint256"
        },
        {
          "internalType": "uint256",
          "name": "maxBoost",
          "type": "uint256"
        },
        {
          "internalType": "uint256",
          "name": "increasePeriod",
          "type": "uint256"
        },
        {
          "internalType": "uint256",
          "name": "withdrawDelay",
          "type": "uint256"
        }
      ],
      "name": "initialize",
      "outputs": [],
      "stateMutability": "nonpayable",
      "type": "function"
    },
    {
      "inputs": [],
      "name": "lastMigrationEvent",
      "outputs": [
        {
          "internalType": "uint256",
          "name": "",
          "type": "uint256"
        }
      ],
      "stateMutability": "view",
      "type": "function"
    },
    {
      "inputs": [
        {
          "internalType": "address",
          "name": "",
          "type": "address"
        }
      ],
      "name": "lastUpdated",
      "outputs": [
        {
          "internalType": "uint256",
          "name": "",
          "type": "uint256"
        }
      ],
      "stateMutability": "view",
      "type": "function"
    },
    {
      "inputs": [
        {
          "internalType": "uint256",
          "name": "amount",
          "type": "uint256"
        }
      ],
      "name": "lock",
      "outputs": [],
      "stateMutability": "nonpayable",
      "type": "function"
    },
    {
      "inputs": [
        {
          "internalType": "address",
          "name": "user",
          "type": "address"
        },
        {
          "internalType": "uint256",
          "name": "amount",
          "type": "uint256"
        }
      ],
      "name": "lockFor",
      "outputs": [],
      "stateMutability": "nonpayable",
      "type": "function"
    },
    {
      "inputs": [
        {
          "internalType": "address",
          "name": "newRewardToken",
          "type": "address"
        }
      ],
      "name": "migrate",
      "outputs": [],
      "stateMutability": "nonpayable",
      "type": "function"
    },
    {
      "inputs": [
        {
          "internalType": "bytes32",
          "name": "",
          "type": "bytes32"
        }
      ],
      "name": "pendingAddresses",
      "outputs": [
        {
          "internalType": "address",
          "name": "",
          "type": "address"
        }
      ],
      "stateMutability": "view",
      "type": "function"
    },
    {
      "inputs": [
        {
          "internalType": "bytes32",
          "name": "",
          "type": "bytes32"
        }
      ],
      "name": "pendingUInts256",
      "outputs": [
        {
          "internalType": "uint256",
          "name": "",
          "type": "uint256"
        }
      ],
      "stateMutability": "view",
      "type": "function"
    },
    {
      "inputs": [
        {
          "internalType": "uint256",
          "name": "amount",
          "type": "uint256"
        }
      ],
      "name": "prepareUnlock",
      "outputs": [],
      "stateMutability": "nonpayable",
      "type": "function"
    },
    {
      "inputs": [],
      "name": "rewardToken",
      "outputs": [
        {
          "internalType": "address",
          "name": "",
          "type": "address"
        }
      ],
      "stateMutability": "view",
      "type": "function"
    },
    {
      "inputs": [
        {
          "internalType": "address",
          "name": "",
          "type": "address"
        }
      ],
      "name": "rewardTokenData",
      "outputs": [
        {
          "internalType": "uint256",
          "name": "feeBalance",
          "type": "uint256"
        },
        {
          "internalType": "uint256",
          "name": "feeIntegral",
          "type": "uint256"
        }
      ],
      "stateMutability": "view",
      "type": "function"
    },
    {
      "inputs": [],
      "name": "roleManager",
      "outputs": [
        {
          "internalType": "contract IRoleManager",
          "name": "",
          "type": "address"
        }
      ],
      "stateMutability": "view",
      "type": "function"
    },
    {
      "inputs": [
        {
          "internalType": "address",
          "name": "",
          "type": "address"
        },
        {
          "internalType": "uint256",
          "name": "",
          "type": "uint256"
        }
      ],
      "name": "stashedGovTokens",
      "outputs": [
        {
          "internalType": "uint256",
          "name": "releaseTime",
          "type": "uint256"
        },
        {
          "internalType": "uint256",
          "name": "amount",
          "type": "uint256"
        }
      ],
      "stateMutability": "view",
      "type": "function"
    },
    {
      "inputs": [],
      "name": "totalLocked",
      "outputs": [
        {
          "internalType": "uint256",
          "name": "",
          "type": "uint256"
        }
      ],
      "stateMutability": "view",
      "type": "function"
    },
    {
      "inputs": [],
      "name": "totalLockedBoosted",
      "outputs": [
        {
          "internalType": "uint256",
          "name": "",
          "type": "uint256"
        }
      ],
      "stateMutability": "view",
      "type": "function"
    },
    {
      "inputs": [
        {
          "internalType": "address",
          "name": "",
          "type": "address"
        }
      ],
      "name": "totalStashed",
      "outputs": [
        {
          "internalType": "uint256",
          "name": "",
          "type": "uint256"
        }
      ],
      "stateMutability": "view",
      "type": "function"
    },
    {
      "inputs": [
        {
          "internalType": "address",
          "name": "user",
          "type": "address"
        }
      ],
      "name": "userCheckpoint",
      "outputs": [],
      "stateMutability": "nonpayable",
      "type": "function"
    }
  ],
  "bytecode": "0x60c06040523480156200001157600080fd5b50604051620020bf380380620020bf83398101604081905262000034916200007d565b6001600160a01b03908116608052601180546001600160a01b031916938216939093179092551660a052620000d1565b6001600160a01b03811681146200007a57600080fd5b50565b6000806000606084860312156200009357600080fd5b8351620000a08162000064565b6020850151909350620000b38162000064565b6040850151909250620000c68162000064565b809150509250925092565b60805160a051611fac62000113600039600081816102640152818161076e0152610ab301526000818161022201528181610cfa015261110c0152611fac6000f3fe608060405234801561001057600080fd5b506004361061021b5760003560e01c806370a0823111610125578063b602e392116100ad578063dd4670641161007c578063dd4670641461051d578063e3976edf14610530578063ebdac09014610559578063f76c33991461056c578063f7c618c11461059557600080fd5b8063b602e392146104dc578063bbbaee4c146104ef578063ce5494bb14610502578063d294f0931461051557600080fd5b8063990a15b8116100f4578063990a15b814610456578063a500fa4b14610476578063aaf0d22314610496578063aff1b7e4146104a9578063b07b709b146104c957600080fd5b806370a08231146104075780637e0b24921461041a578063888c1ec11461042d5780638ade992d1461044d57600080fd5b8063396f23bc116101a85780635ba83cac116101775780635ba83cac1461038657806360a2da441461039957806365538cd4146103ac57806366845ac1146103b55780636a85ced0146103c857600080fd5b8063396f23bc146103445780633d96e2761461035757806354a71b651461036a578063568914121461037d57600080fd5b806315a0ea6a116101ef57806315a0ea6a146102be57806315dbfe62146102d15780631bf840c1146102f157806327e235e314610304578063346a4a511461032457600080fd5b8062435da51461022057806305268cff1461025f5780630a6f93e6146102865780630a7ea309146102b4575b600080fd5b7f00000000000000000000000000000000000000000000000000000000000000005b6040516001600160a01b0390911681526020015b60405180910390f35b6102427f000000000000000000000000000000000000000000000000000000000000000081565b6102a6610294366004611ca2565b60076020526000908152604090205481565b604051908152602001610256565b6102bc6105a8565b005b6102bc6102cc366004611ca2565b6107d1565b6102a66102df366004611cbd565b60016020526000908152604090205481565b6102a66102ff366004611cd6565b6108fa565b6102a6610312366004611ca2565b60056020526000908152604090205481565b6102a6610332366004611cbd565b60046020526000908152604090205481565b6102a6610352366004611d09565b61092b565b6102bc610365366004611d3c565b610aa6565b6102bc610378366004611cbd565b610b65565b6102a6600a5481565b6102a6610394366004611ca2565b610ccb565b6102bc6103a7366004611d66565b610cf8565b6102a6600b5481565b6102a66103c3366004611ca2565b610eb7565b6103f26103d6366004611ca2565b6010602052600090815260409020600281015460039091015482565b60408051928352602083019190915201610256565b6102a6610415366004611ca2565b610ef0565b6102a6610428366004611ca2565b610f2a565b6102a661043b366004611ca2565b60096020526000908152604090205481565b6102a6600c5481565b610469610464366004611ca2565b610f44565b6040516102569190611d98565b6102a6610484366004611ca2565b60066020526000908152604090205481565b6103f26104a4366004611d3c565b610fcd565b6102a66104b7366004611cbd565b60036020526000908152604090205481565b6102bc6104d7366004611ca2565b611009565b6102a66104ea366004611cd6565b611030565b6102a66104fd366004611ca2565b6110f0565b6102bc610510366004611ca2565b61110a565b6102bc61124e565b6102bc61052b366004611cbd565b611265565b61024261053e366004611cbd565b6000602081905290815260409020546001600160a01b031681565b6102bc610567366004611cbd565b61126f565b61024261057a366004611cbd565b6002602052600090815260409020546001600160a01b031681565b601154610242906001600160a01b031681565b3360009081526008602052604081208054806105f85760405162461bcd60e51b815260206004820152600a6024820152694e6f20656e747269657360b01b60448201526064015b60405180910390fd5b805b80156106fc5761060b600182611dfd565b90504283828154811061062057610620611e14565b906000526020600020906002020160000154116106f75782818154811061064957610649611e14565b906000526020600020906002020160010154846106669190611e2a565b8354909450839061067990600190611dfd565b8154811061068957610689611e14565b90600052602060002090600202018382815481106106a9576106a9611e14565b60009182526020909120825460029092020190815560019182015491015582548390806106d8576106d8611e42565b6000828152602081206002600019909301928302018181556001015590555b6105fa565b336000908152600960205260408120805486929061071b908490611dfd565b90915550503360009081526005602052604081205461073b908690611dfd565b9050610749336000836113b8565b84600a600082825461075b9190611dfd565b9091555061079590506001600160a01b037f0000000000000000000000000000000000000000000000000000000000000000163387611658565b60405185815233907f7b2a72f0889ae9bb89e8ee7ec3e7c465552d1b76d51df9b0426d0e4e7f39528f9060200160405180910390a25050505050565b6011546001600160a01b03828116911614806107f357506107f3600d826116c0565b6040518060400160405280601081526020016f1a5b9d985b1a5908185c99dd5b595b9d60821b8152509061083a5760405162461bcd60e51b81526004016105ef9190611e84565b50336000818152600560205260408120546108569291906113b8565b6001600160a01b03811660009081526010602090815260408083203384526001810190925282208054908390556002820180549293919283929061089b908490611dfd565b909155506108b590506001600160a01b0384163383611658565b6040518181526001600160a01b0384169033907f9310ccfcb8de723f578a9e4282ea9f521f05ae40dc08f3068dfad528a65ee3c79060200160405180910390a3505050565b6001600160a01b03808216600090815260106020908152604080832093861683526001909301905220545b92915050565b6001600160a01b0383166000908152600560209081526040822054691cdd185c9d109bdbdcdd60b21b835260039091527f30b98f0434387da16754be48b16ea78ebcca4f739e2866ff6e0ed9c2b9bad3585482919081158061098b575084155b1561099857809250610a99565b7f783b1428a7389ccc14d2a220ae1eaeb424e3b2f7a96b5de59745babfb04b096c546001600160a01b0388166000908152600660205260409020549350610a386109e28383611dfd565b7f2278e31779c6a55743443d82cac847eaec9e4480386b0430374d0f7114c1bd46546001600160a01b038b16600090815260076020526040902054610a329190610a2c9042611dfd565b906116d5565b906116f4565b610a429085611e2a565b935080841115610a50578093505b828611610a635783945050505050610a9f565b610a77610a7088886116d5565b83906116f4565b610a8b610a8485896116d5565b86906116f4565b610a959190611e2a565b9350505b50909150505b9392505050565b610adb6001600160a01b037f000000000000000000000000000000000000000000000000000000000000000016333084611709565b6001600160a01b038216600090815260056020526040902054610b0c9083908390610b07908290611e2a565b6113b8565b80600a6000828254610b1e9190611e2a565b90915550506040518181526001600160a01b038316907f9f1ec8c880f76798e7b793325d625e9b60e4082a553c98f42b6cda368dd600089060200160405180910390a25050565b33600090815260056020908152604080832054600990925290912054610b8c908390611e2a565b1115610bda5760405162461bcd60e51b815260206004820152601d60248201527f416d6f756e742065786365656473206c6f636b65642062616c616e636500000060448201526064016105ef565b3360009081526009602052604081208054839290610bf9908490611e2a565b909155505033600090815260086020908152604080832081518083019092526c776974686472617744656c617960981b90935260039091527ffb52d3840536ab11baf5088d889b24dbf6f90798739e9a2531cf407d8e3e376c548190610c5f9042611e2a565b81526020908101849052825460018181018555600094855293829020835160029092020190815591015191015560405133907f144084dd8dea698b3619a59196aed82fac7b517030607f1fb2cb2387a972cf7690610cc09084815260200190565b60405180910390a250565b6001600160a01b0381166000908152600660209081526040808320546005909252822054610925916116f4565b7f0000000000000000000000000000000000000000000000000000000000000000604051632474521560e21b815269676f7665726e616e636560b01b60048201523360248201526001600160a01b0391909116906391d148549060440160206040518083038186803b158015610d6d57600080fd5b505afa158015610d81573d6000803e3d6000fd5b505050506040513d601f19601f82011682018060405250810190610da59190611eb7565b60405180604001604052806013815260200172756e617574686f72697a65642061636365737360681b81525090610def5760405162461bcd60e51b81526004016105ef9190611e84565b5060036000691cdd185c9d109bdbdcdd60b21b815260200190815260200160002054600014604051806060016040528060258152602001611f526025913990610e4b5760405162461bcd60e51b81526004016105ef9190611e84565b50610e63691cdd185c9d109bdbdcdd60b21b85611747565b50610e79671b585e109bdbdcdd60c21b84611747565b50610e956d1a5b98dc99585cd954195c9a5bd960921b83611747565b50610eb06c776974686472617744656c617960981b82611747565b5050505050565b600b546001600160a01b03821660009081526006602090815260408083205460059092528220549192610925929091610a2c91906116f4565b6001600160a01b038116600090815260066020908152604080832054600983528184205460059093529083205461092592610a3291611dfd565b6011546000906109259083906001600160a01b0316611030565b6001600160a01b0381166000908152600860209081526040808320805482518185028101850190935280835260609492939192909184015b82821015610fc257838290600052602060002090600202016040518060400160405290816000820154815260200160018201548152505081526020019060010190610f7c565b505050509050919050565b60086020528160005260406000208181548110610fe957600080fd5b600091825260209091206002909102018054600190910154909250905082565b6001600160a01b03811660009081526005602052604081205461102d9183916113b8565b50565b6001600160a01b038083166000908152600560209081526040808320549385168352601090915281209091829181156110c0576001600160a01b0386166000908152600660205260409020546110b39061108b9084906116f4565b6001600160a01b0388166000908152602084905260409020546003840154610a329190611dfd565b6110bd9084611e2a565b92505b6001600160a01b03861660009081526001820160205260409020546110e6908490611e2a565b9695505050505050565b6011546000906109259083906001600160a01b03166108fa565b7f0000000000000000000000000000000000000000000000000000000000000000604051632474521560e21b815269676f7665726e616e636560b01b60048201523360248201526001600160a01b0391909116906391d148549060440160206040518083038186803b15801561117f57600080fd5b505afa158015611193573d6000803e3d6000fd5b505050506040513d601f19601f820116820180604052508101906111b79190611eb7565b60405180604001604052806013815260200172756e617574686f72697a65642061636365737360681b815250906112015760405162461bcd60e51b81526004016105ef9190611e84565b5061120d600d826117b3565b5060115461122790600d906001600160a01b0316426117c8565b5042600c55601180546001600160a01b0319166001600160a01b0392909216919091179055565b601154611263906001600160a01b03166107d1565b565b61102d3382610aa6565b60408051808201909152600e81526d1a5b9d985b1a5908185b5bdd5b9d60921b6020820152816112b25760405162461bcd60e51b81526004016105ef9190611e84565b506000600b54116040518060400160405280601c81526020017f6e6f7420656e6f7567682066756e647320746f207769746864726177000000008152509061130d5760405162461bcd60e51b81526004016105ef9190611e84565b50601154611326906001600160a01b0316333084611709565b6011546001600160a01b03166000908152601060205260409020600b5461134e9083906116d5565b8160030160008282546113619190611e2a565b925050819055508181600201600082825461137c9190611e2a565b90915550506040518281527f02bede6503f7c3293d6eac9b0f4981900471e18774a84ccc98715aa5433017949060200160405180910390a15050565b6011546001600160a01b03908116600090815260106020908152604080832093871683526005909152902054801561146a576001600160a01b03851660009081526006602052604090205461143a906114129083906116f4565b6001600160a01b0387166000908152602085905260409020546003850154610a329190611dfd565b6001600160a01b038616600090815260018401602052604081208054909190611464908490611e2a565b90915550505b600c546001600160a01b0386166000908152600760205260409020541080156114935750600081115b156115ac5760006114a4600d6117e6565b905060005b818110156115a9576000806114bf600d846117f1565b6001600160a01b038b166000908152600760205260409020549193509150811115611594576001600160a01b038083166000908152601060209081526040808320938d16835260069091529020546115449061151c9088906116f4565b6001600160a01b038c166000908152602084905260409020546003840154610a329190611dfd565b6001600160a01b038b1660009081526001830160205260408120805490919061156e908490611e2a565b909155505060038101546001600160a01b038b1660009081526020929092526040909120555b505080806115a190611ed9565b9150506114a9565b50505b60006115b986868661092b565b6001600160a01b0387166000908152600660209081526040808320546005909252909120549192506115eb91906116f4565b6115f585836116f4565b600b546116029190611e2a565b61160c9190611dfd565b600b5560038301546001600160a01b0390961660009081526020938452604080822097909755600784528681204290556006845286812091909155600590925250929092209190915550565b6040516001600160a01b0383166024820152604481018290526116bb90849063a9059cbb60e01b906064015b60408051601f198184030181529190526020810180516001600160e01b03166001600160e01b03199093169290921790915261180d565b505050565b6000610a9f836001600160a01b0384166118df565b6000816116ea670de0b6b3a764000085611ef4565b610a9f9190611f13565b6000670de0b6b3a76400006116ea8385611ef4565b6040516001600160a01b03808516602483015283166044820152606481018290526117419085906323b872dd60e01b90608401611684565b50505050565b6000828152600360209081526040808320805490859055600183528184208490556004835281842084905581518181529283018590529185917fcc0bafe2accb565ea70674bf4b2555e49a47d410fb9932dfab3e5f41855d0a2f910160405180910390a2509092915050565b6000610a9f836001600160a01b0384166118eb565b60006117de846001600160a01b03851684611908565b949350505050565b600061092582611925565b60008080806118008686611930565b9097909650945050505050565b6000611862826040518060400160405280602081526020017f5361666545524332303a206c6f772d6c6576656c2063616c6c206661696c6564815250856001600160a01b031661195b9092919063ffffffff16565b8051909150156116bb57808060200190518101906118809190611eb7565b6116bb5760405162461bcd60e51b815260206004820152602a60248201527f5361666545524332303a204552433230206f7065726174696f6e20646964206e6044820152691bdd081cdd58d8d9595960b21b60648201526084016105ef565b6000610a9f838361196a565b60008181526002830160205260408120819055610a9f8383611982565b600082815260028401602052604081208290556117de848461198e565b60006109258261199a565b6000808061193e85856119a4565b600081815260029690960160205260409095205494959350505050565b60606117de84846000856119b0565b60008181526001830160205260408120541515610a9f565b6000610a9f8383611ae1565b6000610a9f8383611bd4565b6000610925825490565b6000610a9f8383611c23565b606082471015611a115760405162461bcd60e51b815260206004820152602660248201527f416464726573733a20696e73756666696369656e742062616c616e636520666f6044820152651c8818d85b1b60d21b60648201526084016105ef565b6001600160a01b0385163b611a685760405162461bcd60e51b815260206004820152601d60248201527f416464726573733a2063616c6c20746f206e6f6e2d636f6e747261637400000060448201526064016105ef565b600080866001600160a01b03168587604051611a849190611f35565b60006040518083038185875af1925050503d8060008114611ac1576040519150601f19603f3d011682016040523d82523d6000602084013e611ac6565b606091505b5091509150611ad6828286611c4d565b979650505050505050565b60008181526001830160205260408120548015611bca576000611b05600183611dfd565b8554909150600090611b1990600190611dfd565b9050818114611b7e576000866000018281548110611b3957611b39611e14565b9060005260206000200154905080876000018481548110611b5c57611b5c611e14565b6000918252602080832090910192909255918252600188019052604090208390555b8554869080611b8f57611b8f611e42565b600190038181906000526020600020016000905590558560010160008681526020019081526020016000206000905560019350505050610925565b6000915050610925565b6000818152600183016020526040812054611c1b57508154600181810184556000848152602080822090930184905584548482528286019093526040902091909155610925565b506000610925565b6000826000018281548110611c3a57611c3a611e14565b9060005260206000200154905092915050565b60608315611c5c575081610a9f565b825115611c6c5782518084602001fd5b8160405162461bcd60e51b81526004016105ef9190611e84565b80356001600160a01b0381168114611c9d57600080fd5b919050565b600060208284031215611cb457600080fd5b610a9f82611c86565b600060208284031215611ccf57600080fd5b5035919050565b60008060408385031215611ce957600080fd5b611cf283611c86565b9150611d0060208401611c86565b90509250929050565b600080600060608486031215611d1e57600080fd5b611d2784611c86565b95602085013595506040909401359392505050565b60008060408385031215611d4f57600080fd5b611d5883611c86565b946020939093013593505050565b60008060008060808587031215611d7c57600080fd5b5050823594602084013594506040840135936060013592509050565b602080825282518282018190526000919060409081850190868401855b82811015611dda57815180518552860151868501529284019290850190600101611db5565b5091979650505050505050565b634e487b7160e01b600052601160045260246000fd5b600082821015611e0f57611e0f611de7565b500390565b634e487b7160e01b600052603260045260246000fd5b60008219821115611e3d57611e3d611de7565b500190565b634e487b7160e01b600052603160045260246000fd5b60005b83811015611e73578181015183820152602001611e5b565b838111156117415750506000910152565b6020815260008251806020840152611ea3816040850160208701611e58565b601f01601f19169190910160400192915050565b600060208284031215611ec957600080fd5b81518015158114610a9f57600080fd5b6000600019821415611eed57611eed611de7565b5060010190565b6000816000190483118215151615611f0e57611f0e611de7565b500290565b600082611f3057634e487b7160e01b600052601260045260246000fd5b500490565b60008251611f47818460208701611e58565b919091019291505056fe636f6e74726163742063616e206f6e6c7920626520696e697469616c697a6564206f6e6365a2646970667358221220a8487ba83272792703f15bea7e27acf86a55e8e19198fbd80c556c948c56e50d64736f6c63430008090033",
  "linkReferences": {},
  "deployedLinkReferences": {}
}