{
  "_format": "hh-sol-artifact-1",
  "contractName": "MockEthStrategy",
  "sourceName": "contracts/testing/MockEthStrategy.sol",
  "abi": [
    {
      "inputs": [
        {
          "internalType": "contract IRoleManager",
          "name": "roleManager",
          "type": "address"
        }
      ],
      "stateMutability": "nonpayable",
      "type": "constructor"
    },
    {
      "inputs": [],
      "name": "balance",
      "outputs": [
        {
          "internalType": "uint256",
          "name": "",
          "type": "uint256"
        }
      ],
      "stateMutability": "view",
      "type": "function"
    },
    {
      "inputs": [
        {
          "internalType": "uint256",
          "name": "amount",
          "type": "uint256"
        }
      ],
      "name": "burnETH",
      "outputs": [],
      "stateMutability": "nonpayable",
      "type": "function"
    },
    {
      "inputs": [],
      "name": "deposit",
      "outputs": [
        {
          "internalType": "bool",
          "name": "",
          "type": "bool"
        }
      ],
      "stateMutability": "payable",
      "type": "function"
    },
    {
      "inputs": [],
      "name": "harvest",
      "outputs": [
        {
          "internalType": "uint256",
          "name": "",
          "type": "uint256"
        }
      ],
      "stateMutability": "pure",
      "type": "function"
    },
    {
      "inputs": [],
      "name": "harvestable",
      "outputs": [
        {
          "internalType": "uint256",
          "name": "",
          "type": "uint256"
        }
      ],
      "stateMutability": "pure",
      "type": "function"
    },
    {
      "inputs": [],
      "name": "hasPendingFunds",
      "outputs": [
        {
          "internalType": "bool",
          "name": "",
          "type": "bool"
        }
      ],
      "stateMutability": "pure",
      "type": "function"
    },
    {
      "inputs": [],
      "name": "name",
      "outputs": [
        {
          "internalType": "string",
          "name": "",
          "type": "string"
        }
      ],
      "stateMutability": "view",
      "type": "function"
    },
    {
      "inputs": [],
      "name": "roleManager",
      "outputs": [
        {
          "internalType": "contract IRoleManager",
          "name": "",
          "type": "address"
        }
      ],
      "stateMutability": "view",
      "type": "function"
    },
    {
      "inputs": [
        {
          "internalType": "address payable",
          "name": "newVault",
          "type": "address"
        }
      ],
      "name": "setVault",
      "outputs": [
        {
          "internalType": "bool",
          "name": "",
          "type": "bool"
        }
      ],
      "stateMutability": "nonpayable",
      "type": "function"
    },
    {
      "inputs": [],
      "name": "shutdown",
      "outputs": [
        {
          "internalType": "bool",
          "name": "",
          "type": "bool"
        }
      ],
      "stateMutability": "pure",
      "type": "function"
    },
    {
      "inputs": [
        {
          "internalType": "address",
          "name": "lpToken",
          "type": "address"
        },
        {
          "internalType": "address",
          "name": "stakerVault",
          "type": "address"
        }
      ],
      "name": "stakeInVault",
      "outputs": [],
      "stateMutability": "nonpayable",
      "type": "function"
    },
    {
      "inputs": [],
      "name": "strategist",
      "outputs": [
        {
          "internalType": "address",
          "name": "",
          "type": "address"
        }
      ],
      "stateMutability": "view",
      "type": "function"
    },
    {
      "inputs": [],
      "name": "want",
      "outputs": [
        {
          "internalType": "address",
          "name": "",
          "type": "address"
        }
      ],
      "stateMutability": "view",
      "type": "function"
    },
    {
      "inputs": [
        {
          "internalType": "uint256",
          "name": "amount",
          "type": "uint256"
        }
      ],
      "name": "withdraw",
      "outputs": [
        {
          "internalType": "bool",
          "name": "",
          "type": "bool"
        }
      ],
      "stateMutability": "nonpayable",
      "type": "function"
    },
    {
      "inputs": [],
      "name": "withdrawAll",
      "outputs": [
        {
          "internalType": "uint256",
          "name": "",
          "type": "uint256"
        }
      ],
      "stateMutability": "nonpayable",
      "type": "function"
    },
    {
      "inputs": [
        {
          "internalType": "address",
          "name": "coin",
          "type": "address"
        }
      ],
      "name": "withdrawDust",
      "outputs": [
        {
          "internalType": "bool",
          "name": "",
          "type": "bool"
        }
      ],
      "stateMutability": "nonpayable",
      "type": "function"
    },
    {
      "stateMutability": "payable",
      "type": "receive"
    }
  ],
  "bytecode": "0x60a0604052600080546001600160a01b031916905534801561002057600080fd5b50604051610ade380380610ade83398101604081905261003f91610076565b6001600160a01b0316608052600280546001600160a01b031916733d9819210a31b4961b30ef54be2aed79b9c9cd3b1790556100a6565b60006020828403121561008857600080fd5b81516001600160a01b038116811461009f57600080fd5b9392505050565b608051610a166100c860003960008181610111015261059e0152610a166000f3fe6080604052600436106100f65760003560e01c806361240eea1161008a578063b69ef8a811610059578063b69ef8a8146102c0578063d0e30db0146102d3578063dbbd47d414610239578063fc0e74d1146102db57600080fd5b806361240eea146102575780636817031b1461026b578063755a24331461028b578063853828b6146102ab57600080fd5b80631fe4a686116100c65780631fe4a686146101d757806324f63c8b146101f75780632e1a7d4d146102195780634641257d1461023957600080fd5b8062435da51461010257806301b99eba1461014e57806306fdde031461017e5780631f1fcd51146101b957600080fd5b366100fd57005b600080fd5b34801561010e57600080fd5b507f00000000000000000000000000000000000000000000000000000000000000005b6040516001600160a01b0390911681526020015b60405180910390f35b34801561015a57600080fd5b5061016e6101693660046108f3565b6102ef565b6040519015158152602001610145565b34801561018a57600080fd5b50604080518082018252600c81526b4d6f636b537472617465677960a01b602082015290516101459190610917565b3480156101c557600080fd5b506000546001600160a01b0316610131565b3480156101e357600080fd5b50600254610131906001600160a01b031681565b34801561020357600080fd5b5061021761021236600461096c565b6103e5565b005b34801561022557600080fd5b5061016e6102343660046109a5565b6104f5565b34801561024557600080fd5b5060005b604051908152602001610145565b34801561026357600080fd5b50600061016e565b34801561027757600080fd5b5061016e6102863660046108f3565b61059a565b34801561029757600080fd5b506102176102a63660046109a5565b610766565b3480156102b757600080fd5b506102496107e2565b3480156102cc57600080fd5b5047610249565b61016e61087b565b3480156102e757600080fd5b50600161016e565b600080546001600160a01b03838116911614156103535760405162461bcd60e51b815260206004820152601760248201527f556e617574686f72697a6564207769746864726177616c00000000000000000060448201526064015b60405180910390fd5b47806103a15760405162461bcd60e51b815260206004820152601a60248201527f496e76616c696420616d6f756e7420746f207769746864726177000000000000604482015260640161034a565b6001546040516001600160a01b039091169082156108fc029083906000818181858888f193505050501580156103db573d6000803e3d6000fd5b5060019392505050565b60405163095ea7b360e01b81526001600160a01b038281166004830152673782dace9d900000602483015283169063095ea7b390604401602060405180830381600087803b15801561043657600080fd5b505af115801561044a573d6000803e3d6000fd5b505050506040513d601f19601f8201168201806040525081019061046e91906109be565b5060405163534a7e1d60e11b8152673782dace9d90000060048201526001600160a01b0382169063a694fc3a90602401602060405180830381600087803b1580156104b857600080fd5b505af11580156104cc573d6000803e3d6000fd5b505050506040513d601f19601f820116820180604052508101906104f091906109be565b505050565b600154604080518082019091526013815272756e617574686f72697a65642061636365737360681b60208201526000916001600160a01b0316331461054d5760405162461bcd60e51b815260040161034a9190610917565b50478083116103a1576001546040516001600160a01b039091169084156108fc029085906000818181858888f19350505050158015610590573d6000803e3d6000fd5b5050600192915050565b60007f0000000000000000000000000000000000000000000000000000000000000000604051632474521560e21b815269676f7665726e616e636560b01b60048201523360248201526001600160a01b0391909116906391d148549060440160206040518083038186803b15801561061157600080fd5b505afa158015610625573d6000803e3d6000fd5b505050506040513d601f19601f8201168201806040525081019061064991906109be565b60405180604001604052806013815260200172756e617574686f72697a65642061636365737360681b815250906106935760405162461bcd60e51b815260040161034a9190610917565b506001546001600160a01b0316156106ed5760405162461bcd60e51b815260206004820152601a60248201527f5661756c742063616e206f6e6c7920626520736574206f6e6365000000000000604482015260640161034a565b6001600160a01b0382166107435760405162461bcd60e51b815260206004820152601c60248201527f5661756c742063616e6e6f74206265207a65726f206164647265737300000000604482015260640161034a565b50600180546001600160a01b0383166001600160a01b0319909116178155919050565b604080518082019091526014815273696e73756666696369656e742062616c616e636560601b60208201524790828210156107b45760405162461bcd60e51b815260040161034a9190610917565b5060405160009083156108fc0290849083818181858288f193505050501580156104f0573d6000803e3d6000fd5b600154604080518082019091526013815272756e617574686f72697a65642061636365737360681b60208201526000916001600160a01b0316331461083a5760405162461bcd60e51b815260040161034a9190610917565b5060015460405147916001600160a01b03169082156108fc029083906000818181858888f19350505050158015610875573d6000803e3d6000fd5b50905090565b600154604080518082019091526013815272756e617574686f72697a65642061636365737360681b60208201526000916001600160a01b031633146108d35760405162461bcd60e51b815260040161034a9190610917565b506001905090565b6001600160a01b03811681146108f057600080fd5b50565b60006020828403121561090557600080fd5b8135610910816108db565b9392505050565b600060208083528351808285015260005b8181101561094457858101830151858201604001528201610928565b81811115610956576000604083870101525b50601f01601f1916929092016040019392505050565b6000806040838503121561097f57600080fd5b823561098a816108db565b9150602083013561099a816108db565b809150509250929050565b6000602082840312156109b757600080fd5b5035919050565b6000602082840312156109d057600080fd5b8151801515811461091057600080fdfea2646970667358221220c09cf5027356db6ab3ba5a839bc93d8b99ba3f3b5cd660f5f79d158c067f473d64736f6c63430008090033",
  "linkReferences": {},
  "deployedLinkReferences": {}
}