{
  "_format": "hh-sol-artifact-1",
  "contractName": "LibPricesMock",
  "sourceName": "contracts/test/LibPricesMock.sol",
  "abi": [
    {
      "inputs": [
        {
          "components": [
            {
              "internalType": "uint256",
              "name": "cumulativePrice",
              "type": "uint256"
            },
            {
              "internalType": "uint256",
              "name": "trades",
              "type": "uint256"
            }
          ],
          "internalType": "struct Prices.PriceInstant",
          "name": "price",
          "type": "tuple"
        }
      ],
      "name": "averagePrice",
      "outputs": [
        {
          "internalType": "uint256",
          "name": "",
          "type": "uint256"
        }
      ],
      "stateMutability": "pure",
      "type": "function"
    },
    {
      "inputs": [
        {
          "components": [
            {
              "internalType": "uint256",
              "name": "cumulativePrice",
              "type": "uint256"
            },
            {
              "internalType": "uint256",
              "name": "trades",
              "type": "uint256"
            }
          ],
          "internalType": "struct Prices.PriceInstant[24]",
          "name": "prices",
          "type": "tuple[24]"
        }
      ],
      "name": "averagePriceForPeriod",
      "outputs": [
        {
          "internalType": "uint256",
          "name": "",
          "type": "uint256"
        }
      ],
      "stateMutability": "pure",
      "type": "function"
    },
    {
      "inputs": [
        {
          "internalType": "uint256",
          "name": "hour",
          "type": "uint256"
        },
        {
          "components": [
            {
              "internalType": "uint256",
              "name": "cumulativePrice",
              "type": "uint256"
            },
            {
              "internalType": "uint256",
              "name": "trades",
              "type": "uint256"
            }
          ],
          "internalType": "struct Prices.PriceInstant[24]",
          "name": "tracerPrices",
          "type": "tuple[24]"
        },
        {
          "components": [
            {
              "internalType": "uint256",
              "name": "cumulativePrice",
              "type": "uint256"
            },
            {
              "internalType": "uint256",
              "name": "trades",
              "type": "uint256"
            }
          ],
          "internalType": "struct Prices.PriceInstant[24]",
          "name": "oraclePrices",
          "type": "tuple[24]"
        }
      ],
      "name": "calculateTWAP",
      "outputs": [
        {
          "components": [
            {
              "internalType": "uint256",
              "name": "underlying",
              "type": "uint256"
            },
            {
              "internalType": "uint256",
              "name": "derivative",
              "type": "uint256"
            }
          ],
          "internalType": "struct Prices.TWAP",
          "name": "",
          "type": "tuple"
        }
      ],
      "stateMutability": "pure",
      "type": "function"
    },
    {
      "inputs": [
        {
          "internalType": "uint256",
          "name": "oraclePrice",
          "type": "uint256"
        },
        {
          "internalType": "int256",
          "name": "_timeValue",
          "type": "int256"
        }
      ],
      "name": "fairPrice",
      "outputs": [
        {
          "internalType": "uint256",
          "name": "",
          "type": "uint256"
        }
      ],
      "stateMutability": "pure",
      "type": "function"
    },
    {
      "inputs": [
        {
          "internalType": "uint256",
          "name": "_globalLeverage",
          "type": "uint256"
        },
        {
          "internalType": "uint256",
          "name": "oldLeverage",
          "type": "uint256"
        },
        {
          "internalType": "uint256",
          "name": "newLeverage",
          "type": "uint256"
        }
      ],
      "name": "globalLeverage",
      "outputs": [
        {
          "internalType": "uint256",
          "name": "",
          "type": "uint256"
        }
      ],
      "stateMutability": "pure",
      "type": "function"
    },
    {
      "inputs": [
        {
          "internalType": "uint256",
          "name": "averageTracerPrice",
          "type": "uint256"
        },
        {
          "internalType": "uint256",
          "name": "averageOraclePrice",
          "type": "uint256"
        }
      ],
      "name": "timeValue",
      "outputs": [
        {
          "internalType": "int256",
          "name": "",
          "type": "int256"
        }
      ],
      "stateMutability": "pure",
      "type": "function"
    }
  ],
  "bytecode": "0x608060405234801561001057600080fd5b50610a80806100206000396000f3fe608060405234801561001057600080fd5b50600436106100725760003560e01c8063918a1fac11610050578063918a1fac146100c6578063c39cd4dc146100d9578063eb69afd8146100ec57610072565b80630f90fa8214610077578063475f9e62146100a057806377b5705e146100b3575b600080fd5b61008a610085366004610782565b61010c565b60405161009791906107ce565b60405180910390f35b61008a6100ae366004610782565b61011f565b61008a6100c1366004610728565b61012b565b61008a6100d43660046107a3565b61013e565b61008a6100e736600461070c565b610153565b6100ff6100fa366004610743565b61015e565b6040516100979190610845565b60006101188383610171565b9392505050565b6000610118838361019b565b6000610136826101b9565b90505b919050565b600061014b8484846101e1565b949350505050565b600061013682610228565b610166610626565b61014b8484846102f9565b6000605a61017e8361056c565b6101878561056c565b6101919190610997565b61011891906108b3565b6000610118826101aa8561056c565b6101b49190610997565b610599565b60008160200151600014156101d057506000610139565b6020820151825161013691906108e1565b6000806101ed8461056c565b6101f68461056c565b6101ff8761056c565b610209919061085c565b6102139190610997565b9050600081121561014b576000915050610118565b604080516018808252610320820190925260009182919060208201610300803683370190505090506000805b60188110156102ee57600085826018811061027f57634e487b7160e01b600052603260045260246000fd5b6020020151905080602001516000141561029957506102dc565b6102a2816101b9565b8484815181106102c257634e487b7160e01b600052603260045260246000fd5b6020908102919091010152826102d7816109ed565b935050505b806102e6816109ed565b915050610254565b5061014b82826105b3565b610301610626565b6018841061032a5760405162461bcd60e51b8152600401610321906107d7565b60405180910390fd5b60008060008060005b60088110156104a25760006103498260086109d6565b90506000828b106103635761035e838c6109d6565b610379565b8a61036f8460186109d6565b610379919061089b565b905060006103aa8b83601881106103a057634e487b7160e01b600052603260045260246000fd5b60200201516101b9565b905060006103d18b84601881106103a057634e487b7160e01b600052603260045260246000fd5b90508b83601881106103f357634e487b7160e01b600052603260045260246000fd5b6020020151602001516000141561040d5750505050610490565b610417848a61089b565b98506104238285610978565b61042d908861089b565b96508a836018811061044f57634e487b7160e01b600052603260045260246000fd5b602002015160200151600014156104695750505050610490565b610473848961089b565b975061047f8185610978565b610489908761089b565b9550505050505b8061049a816109ed565b915050610333565b50821580156104af575083155b156104d6576040518060400160405280600081526020016000815250945050505050610118565b826105075760405180604001604052806000815260200185846104f991906108e1565b815250945050505050610118565b83610538576040518060400160405280848361052391906108e1565b81526020016000815250945050505050610118565b6040518060400160405280848361054f91906108e1565b815260200161055e86856108e1565b905298975050505050505050565b60006001600160ff1b038211156105955760405162461bcd60e51b81526004016103219061080e565b5090565b6000808213610595576105ae826000196108f5565b610136565b6000816105c084846105ca565b61011891906108e1565b600080805b8381101561061e578481815181106105f757634e487b7160e01b600052603260045260246000fd5b60200260200101518261060a919061089b565b915080610616816109ed565b9150506105cf565b509392505050565b604051806040016040528060008152602001600081525090565b600082601f830112610650578081fd5b60408051610300810181811067ffffffffffffffff8211171561067557610675610a34565b825280846106008101871015610689578485fd5b845b60188110156106b25761069e88836106be565b83526020909201919084019060010161068b565b50919695505050505050565b6000604082840312156106cf578081fd5b6040516040810181811067ffffffffffffffff821117156106f2576106f2610a34565b604052823581526020928301359281019290925250919050565b6000610600828403121561071e578081fd5b6101188383610640565b600060408284031215610739578081fd5b61011883836106be565b6000806000610c208486031215610758578182fd5b833592506107698560208601610640565b9150610779856106208601610640565b90509250925092565b60008060408385031215610794578182fd5b50508035926020909101359150565b6000806000606084860312156107b7578283fd5b505081359360208301359350604090920135919050565b90815260200190565b60208082526014908201527f486f757220696e646578206e6f742076616c6964000000000000000000000000604082015260600190565b60208082526010908201527f75696e74323536206f766572666c6f7700000000000000000000000000000000604082015260600190565b815181526020918201519181019190915260400190565b6000808212826001600160ff1b030384138115161561087d5761087d610a08565b82600160ff1b03841281161561089557610895610a08565b50500190565b600082198211156108ae576108ae610a08565b500190565b6000826108c2576108c2610a1e565b600160ff1b8214600019841416156108dc576108dc610a08565b500590565b6000826108f0576108f0610a1e565b500490565b60006001600160ff1b038184138284138583048511828216161561091b5761091b610a08565b600160ff1b8487128682058812818416161561093957610939610a08565b85871292508782058712848416161561095457610954610a08565b8785058712818416161561096a5761096a610a08565b505050929093029392505050565b600081600019048311821515161561099257610992610a08565b500290565b600080831283600160ff1b018312811516156109b5576109b5610a08565b836001600160ff1b030183138116156109d0576109d0610a08565b50500390565b6000828210156109e8576109e8610a08565b500390565b6000600019821415610a0157610a01610a08565b5060010190565b634e487b7160e01b600052601160045260246000fd5b634e487b7160e01b600052601260045260246000fd5b634e487b7160e01b600052604160045260246000fdfea2646970667358221220762d6653459102b1dd851f3e92781fde569cad38030449b1054dc389af30eb4164736f6c63430008000033",
  "linkReferences": {},
  "deployedLinkReferences": {}
}