{
  "_format": "hh-sol-artifact-1",
  "contractName": "DNSSECImpl",
  "sourceName": "contracts/dnssec-oracle/DNSSECImpl.sol",
  "abi": [
    {
      "inputs": [
        {
          "internalType": "bytes",
          "name": "_anchors",
          "type": "bytes"
        }
      ],
      "stateMutability": "nonpayable",
      "type": "constructor"
    },
    {
      "inputs": [
        {
          "internalType": "uint16",
          "name": "class",
          "type": "uint16"
        }
      ],
      "name": "InvalidClass",
      "type": "error"
    },
    {
      "inputs": [
        {
          "internalType": "bytes",
          "name": "name",
          "type": "bytes"
        },
        {
          "internalType": "uint256",
          "name": "labelsExpected",
          "type": "uint256"
        }
      ],
      "name": "InvalidLabelCount",
      "type": "error"
    },
    {
      "inputs": [
        {
          "internalType": "uint16",
          "name": "proofType",
          "type": "uint16"
        }
      ],
      "name": "InvalidProofType",
      "type": "error"
    },
    {
      "inputs": [],
      "name": "InvalidRRSet",
      "type": "error"
    },
    {
      "inputs": [
        {
          "internalType": "bytes",
          "name": "rrsetName",
          "type": "bytes"
        },
        {
          "internalType": "bytes",
          "name": "signerName",
          "type": "bytes"
        }
      ],
      "name": "InvalidSignerName",
      "type": "error"
    },
    {
      "inputs": [
        {
          "internalType": "bytes",
          "name": "signerName",
          "type": "bytes"
        }
      ],
      "name": "NoMatchingProof",
      "type": "error"
    },
    {
      "inputs": [
        {
          "internalType": "bytes",
          "name": "signerName",
          "type": "bytes"
        },
        {
          "internalType": "bytes",
          "name": "proofName",
          "type": "bytes"
        }
      ],
      "name": "ProofNameMismatch",
      "type": "error"
    },
    {
      "inputs": [
        {
          "internalType": "uint32",
          "name": "expiration",
          "type": "uint32"
        },
        {
          "internalType": "uint32",
          "name": "now",
          "type": "uint32"
        }
      ],
      "name": "SignatureExpired",
      "type": "error"
    },
    {
      "inputs": [
        {
          "internalType": "uint32",
          "name": "inception",
          "type": "uint32"
        },
        {
          "internalType": "uint32",
          "name": "now",
          "type": "uint32"
        }
      ],
      "name": "SignatureNotValidYet",
      "type": "error"
    },
    {
      "inputs": [
        {
          "internalType": "uint16",
          "name": "rrsetType",
          "type": "uint16"
        },
        {
          "internalType": "uint16",
          "name": "sigType",
          "type": "uint16"
        }
      ],
      "name": "SignatureTypeMismatch",
      "type": "error"
    },
    {
      "anonymous": false,
      "inputs": [
        {
          "indexed": false,
          "internalType": "uint8",
          "name": "id",
          "type": "uint8"
        },
        {
          "indexed": false,
          "internalType": "address",
          "name": "addr",
          "type": "address"
        }
      ],
      "name": "AlgorithmUpdated",
      "type": "event"
    },
    {
      "anonymous": false,
      "inputs": [
        {
          "indexed": false,
          "internalType": "uint8",
          "name": "id",
          "type": "uint8"
        },
        {
          "indexed": false,
          "internalType": "address",
          "name": "addr",
          "type": "address"
        }
      ],
      "name": "DigestUpdated",
      "type": "event"
    },
    {
      "inputs": [
        {
          "internalType": "uint8",
          "name": "",
          "type": "uint8"
        }
      ],
      "name": "algorithms",
      "outputs": [
        {
          "internalType": "contract Algorithm",
          "name": "",
          "type": "address"
        }
      ],
      "stateMutability": "view",
      "type": "function"
    },
    {
      "inputs": [],
      "name": "anchors",
      "outputs": [
        {
          "internalType": "bytes",
          "name": "",
          "type": "bytes"
        }
      ],
      "stateMutability": "view",
      "type": "function"
    },
    {
      "inputs": [
        {
          "internalType": "uint8",
          "name": "",
          "type": "uint8"
        }
      ],
      "name": "digests",
      "outputs": [
        {
          "internalType": "contract Digest",
          "name": "",
          "type": "address"
        }
      ],
      "stateMutability": "view",
      "type": "function"
    },
    {
      "inputs": [],
      "name": "owner",
      "outputs": [
        {
          "internalType": "address",
          "name": "",
          "type": "address"
        }
      ],
      "stateMutability": "view",
      "type": "function"
    },
    {
      "inputs": [
        {
          "internalType": "uint8",
          "name": "id",
          "type": "uint8"
        },
        {
          "internalType": "contract Algorithm",
          "name": "algo",
          "type": "address"
        }
      ],
      "name": "setAlgorithm",
      "outputs": [],
      "stateMutability": "nonpayable",
      "type": "function"
    },
    {
      "inputs": [
        {
          "internalType": "uint8",
          "name": "id",
          "type": "uint8"
        },
        {
          "internalType": "contract Digest",
          "name": "digest",
          "type": "address"
        }
      ],
      "name": "setDigest",
      "outputs": [],
      "stateMutability": "nonpayable",
      "type": "function"
    },
    {
      "inputs": [
        {
          "internalType": "address",
          "name": "newOwner",
          "type": "address"
        }
      ],
      "name": "setOwner",
      "outputs": [],
      "stateMutability": "nonpayable",
      "type": "function"
    },
    {
      "inputs": [
        {
          "components": [
            {
              "internalType": "bytes",
              "name": "rrset",
              "type": "bytes"
            },
            {
              "internalType": "bytes",
              "name": "sig",
              "type": "bytes"
            }
          ],
          "internalType": "struct DNSSEC.RRSetWithSignature[]",
          "name": "input",
          "type": "tuple[]"
        },
        {
          "internalType": "uint256",
          "name": "now",
          "type": "uint256"
        }
      ],
      "name": "verifyRRSet",
      "outputs": [
        {
          "internalType": "bytes",
          "name": "",
          "type": "bytes"
        }
      ],
      "stateMutability": "view",
      "type": "function"
    },
    {
      "inputs": [
        {
          "components": [
            {
              "internalType": "bytes",
              "name": "rrset",
              "type": "bytes"
            },
            {
              "internalType": "bytes",
              "name": "sig",
              "type": "bytes"
            }
          ],
          "internalType": "struct DNSSEC.RRSetWithSignature[]",
          "name": "input",
          "type": "tuple[]"
        }
      ],
      "name": "verifyRRSet",
      "outputs": [
        {
          "internalType": "bytes",
          "name": "",
          "type": "bytes"
        }
      ],
      "stateMutability": "view",
      "type": "function"
    }
  ],
  "bytecode": "0x60806040523480156200001157600080fd5b50604051620022993803806200229983398101604081905262000034916200011f565b600180546001600160a01b0319163317905580516200005b90600090602084019062000063565b505062000237565b8280546200007190620001fb565b90600052602060002090601f016020900481019282620000955760008555620000e0565b82601f10620000b057805160ff1916838001178555620000e0565b82800160010185558215620000e0579182015b82811115620000e0578251825591602001919060010190620000c3565b50620000ee929150620000f2565b5090565b5b80821115620000ee5760008155600101620000f3565b634e487b7160e01b600052604160045260246000fd5b600060208083850312156200013357600080fd5b82516001600160401b03808211156200014b57600080fd5b818501915085601f8301126200016057600080fd5b81518181111562000175576200017562000109565b604051601f8201601f19908116603f01168101908382118183101715620001a057620001a062000109565b816040528281528886848701011115620001b957600080fd5b600093505b82841015620001dd5784840186015181850187015292850192620001be565b82841115620001ef5760008684830101525b98975050505050505050565b600181811c908216806200021057607f821691505b6020821081036200023157634e487b7160e01b600052602260045260246000fd5b50919050565b61205280620002476000396000f3fe608060405234801561001057600080fd5b50600436106100a35760003560e01c806373cc48a61161007657806398d35f201161005b57806398d35f2014610187578063bdf95fef1461018f578063c327deef146101a257600080fd5b806373cc48a61461010c5780638da5cb5b1461016757600080fd5b8063020ed8d3146100a857806313af4035146100bd57806328e7677d146100d0578063440f3d42146100e3575b600080fd5b6100bb6100b636600461199c565b6101d8565b005b6100bb6100cb3660046119d3565b61028c565b6100bb6100de36600461199c565b6102f7565b6100f66100f1366004611c3d565b6103a3565b6040516101039190611ced565b60405180910390f35b61014261011a366004611d00565b60036020526000908152604090205473ffffffffffffffffffffffffffffffffffffffff1681565b60405173ffffffffffffffffffffffffffffffffffffffff9091168152602001610103565b6001546101429073ffffffffffffffffffffffffffffffffffffffff1681565b6100f661048a565b6100f661019d366004611d1b565b610518565b6101426101b0366004611d00565b60026020526000908152604090205473ffffffffffffffffffffffffffffffffffffffff1681565b60015473ffffffffffffffffffffffffffffffffffffffff1633146101fc57600080fd5b60ff821660008181526002602090815260409182902080547fffffffffffffffffffffffff00000000000000000000000000000000000000001673ffffffffffffffffffffffffffffffffffffffff86169081179091558251938452908301527ff73c3c226af96b7f1ba666a21b3ceaf2be3ee6a365e3178fd9cd1eaae0075aa891015b60405180910390a15050565b60015473ffffffffffffffffffffffffffffffffffffffff1633146102b057600080fd5b600180547fffffffffffffffffffffffff00000000000000000000000000000000000000001673ffffffffffffffffffffffffffffffffffffffff92909216919091179055565b60015473ffffffffffffffffffffffffffffffffffffffff16331461031b57600080fd5b60ff821660008181526003602090815260409182902080547fffffffffffffffffffffffff00000000000000000000000000000000000000001673ffffffffffffffffffffffffffffffffffffffff86169081179091558251938452908301527f2fcc274c3b72dd483ab201bfa87295e3817e8b9b10693219873b722ca1af00c79101610280565b606060008080546103b390611d50565b80601f01602080910402602001604051908101604052809291908181526020018280546103df90611d50565b801561042c5780601f106104015761010080835404028352916020019161042c565b820191906000526020600020905b81548152906001019060200180831161040f57829003601f168201915b5050505050905060005b845181101561048057600061046586838151811061045657610456611d9d565b60200260200101518487610524565b6101000151925081905061047881611dfb565b915050610436565b5090505b92915050565b6000805461049790611d50565b80601f01602080910402602001604051908101604052809291908181526020018280546104c390611d50565b80156105105780601f106104e557610100808354040283529160200191610510565b820191906000526020600020905b8154815290600101906020018083116104f357829003601f168201915b505050505081565b606061048482426103a3565b604080516101408101825260008082526020820181905291810182905260608082018390526080820183905260a0820183905260c082019290925260e0810182905261010081018290526101208101919091528351610582906106c4565b90506000610594828360000151610806565b604083015190915060ff166105aa826000610963565b146105f2578082604001516040517fe861b2bd0000000000000000000000000000000000000000000000000000000081526004016105e9929190611e33565b60405180910390fd5b6101208201819052608082015161060990846109c0565b6106555760808201516040517fa784f87e00000000000000000000000000000000000000000000000000000000815263ffffffff918216600482015290841660248201526044016105e9565b610663838360a001516109c0565b6106af5760a08201516040517fbd41036a00000000000000000000000000000000000000000000000000000000815263ffffffff918216600482015290841660248201526044016105e9565b6106bb818387876109d9565b505b9392505050565b604080516101408101825260008082526020820181905291810182905260608082018390526080820183905260a0820183905260c0820183905260e0820181905261010082018190526101208201529061071f908390610ae3565b61ffff168152610730826002610b0b565b60ff166020820152610743826003610b0b565b60ff166040820152610756826004610b2f565b63ffffffff9081166060830152610772908390600890610b2f16565b63ffffffff908116608083015261078e908390600c90610b2f16565b63ffffffff90811660a08301526107aa908390601090610ae316565b61ffff1660c08201526107be826012610b59565b60e08201819052516107fb906107d5906012611e58565b8260e0015151601285516107e99190611e70565b6107f39190611e70565b849190610b7c565b610100820152919050565b6060600061081384610bfe565b90505b8051516020820151101561095c57606081015161ffff166001146108725760608101516040517f98a5f31a00000000000000000000000000000000000000000000000000000000815261ffff90911660048201526024016105e9565b815160000361088b5761088481610c5c565b91506108f5565b6020810151815161089b91610c7d565b82511415806108be57508051602082015183516108bc928592600092610cd7565b155b156108f5576040517fcbceee6f00000000000000000000000000000000000000000000000000000000815260040160405180910390fd5b8261ffff16816040015161ffff161461094e5760408082015190517fa6ff8a8a00000000000000000000000000000000000000000000000000000000815261ffff918216600482015290841660248201526044016105e9565b61095781610cfa565b610816565b5092915050565b6000805b8351831061097757610977611e87565b60006109838585610b0b565b60ff169050610993816001611e58565b61099d9085611e58565b9350806000036109ad57506106bd565b6109b8600183611e58565b915050610967565b6000806109cd8385611eb6565b60030b12159392505050565b83518360e00151511180610a0f5750610a0d6000858560e00151518751610a009190611e70565b60e0870151929190610de2565b155b15610a4d5760e08301516040517feaafc59b0000000000000000000000000000000000000000000000000000000081526105e9918691600401611f1b565b6000610a598282610e17565b9050602b61ffff16816040015161ffff1603610a7f57610a7a848483610e78565b610adc565b603061ffff16816040015161ffff1603610a9e57610a7a848483610f81565b60408082015190517f61529e8700000000000000000000000000000000000000000000000000000000815261ffff90911660048201526024016105e9565b5050505050565b8151600090610af3836002611e58565b1115610afe57600080fd5b50016002015161ffff1690565b6000828281518110610b1f57610b1f611d9d565b016020015160f81c905092915050565b8151600090610b3f836004611e58565b1115610b4a57600080fd5b50016004015163ffffffff1690565b60606000610b678484610c7d565b9050610b74848483610b7c565b949350505050565b8251606090610b8b8385611e58565b1115610b9657600080fd5b60008267ffffffffffffffff811115610bb157610bb16119f0565b6040519080825280601f01601f191660200182016040528015610bdb576020820181803683370190505b50905060208082019086860101610bf382828761107b565b509095945050505050565b610c4c6040518060e001604052806060815260200160008152602001600061ffff168152602001600061ffff168152602001600063ffffffff16815260200160008152602001600081525090565b6104848261010001516000610e17565b6020810151815160609161048491610c749082610c7d565b84519190610b7c565b6000815b83518110610c9157610c91611e87565b6000610c9d8583610b0b565b60ff169050610cad816001611e58565b610cb79083611e58565b915080600003610cc75750610ccd565b50610c81565b610b748382611e70565b6000610ce48484846110ef565b610cef8787856110ef565b149695505050505050565b60c08101516020820181905281515111610d115750565b6000610d2582600001518360200151610c7d565b8260200151610d349190611e58565b8251909150610d439082610ae3565b61ffff166040830152610d57600282611e58565b8251909150610d669082610ae3565b61ffff166060830152610d7a600282611e58565b8251909150610d899082610b2f565b63ffffffff166080830152610d9f600482611e58565b8251909150600090610db19083610ae3565b61ffff169050610dc2600283611e58565b60a084018190529150610dd58183611e58565b60c0909301929092525050565b6000610dfb8383848651610df69190611e70565b6110ef565b610e0d8686878951610df69190611e70565b1495945050505050565b610e656040518060e001604052806060815260200160008152602001600061ffff168152602001600061ffff168152602001600063ffffffff16815260200160008152602001600081525090565b82815260c0810182905261048481610cfa565b6000610e8384610bfe565b90505b80515160208201511015610f4857604081015161ffff16603014610ee25760408082015190517f61529e8700000000000000000000000000000000000000000000000000000000815261ffff90911660048201526024016105e9565b6000610eed82611113565b90506000610f08600083518461112f9092919063ffffffff16565b9050610f16818388886111cd565b15610f3857610f2b8660e00151858385611302565b15610f3857505050505050565b5050610f4381610cfa565b610e86565b508260e001516040517f06cde0f30000000000000000000000000000000000000000000000000000000081526004016105e99190611ced565b80515160208201511015611043576000610f9a82610c5c565b9050610fb38460e001518261145890919063ffffffff16565b610ff1578360e00151816040517fd700ae7e0000000000000000000000000000000000000000000000000000000081526004016105e9929190611f1b565b6000610ffc83611113565b90506000611017600083518461112f9092919063ffffffff16565b9050611025818388886111cd565b1561103257505050505050565b50505061103e81610cfa565b610f81565b8260e001516040517f06cde0f30000000000000000000000000000000000000000000000000000000081526004016105e99190611ced565b602081106110b35781518352611092602084611e58565b925061109f602083611e58565b91506110ac602082611e70565b905061107b565b905182516020929092036101000a7fffffffffffffffffffffffffffffffffffffffffffffffffffffffffffffffff0180199091169116179052565b82516000906110fe8385611e58565b111561110957600080fd5b5091016020012090565b60a081015160c082015160609161048491610c74908290611e70565b6040805160808101825260008082526020820181905291810191909152606080820152611167611160600085611e58565b8590610ae3565b61ffff16815261118261117b600285611e58565b8590610b0b565b60ff16602082015261119861117b600385611e58565b60ff1660408201526111c16111ae600485611e58565b6111b9600485611e70565b869190610b7c565b60608201529392505050565b6000846020015160ff166003146111e657506000610b74565b826020015160ff16856040015160ff161461120357506000610b74565b600061120e85611476565b90508360c0015161ffff168161ffff161461122d576000915050610b74565b855161010016600003611244576000915050610b74565b60408087015160ff16600090815260026020908152908290205485519186015192517fde8f50a100000000000000000000000000000000000000000000000000000000815273ffffffffffffffffffffffffffffffffffffffff9091169263de8f50a1926112b7928a9290600401611f49565b602060405180830381865afa1580156112d4573d6000803e3d6000fd5b505050506040513d601f19601f820116820180604052508101906112f89190611f82565b9695505050505050565b60008061130e83611476565b90505b8451516020860151101561144c57600061132a86610c5c565b90506113368188611458565b6113705786816040517fd700ae7e0000000000000000000000000000000000000000000000000000000081526004016105e9929190611f1b565b60a086015160c08701516000916113959161138c908290611e70565b8951919061112f565b90508261ffff16816000015161ffff16146113b157505061143e565b856040015160ff16816020015160ff16146113cd57505061143e565b6040805180820190915260608152600060208201526113fa86518a516113f39190611e58565b82906116ba565b50611405818a61171f565b50611410818761171f565b50611428826040015182600001518460600151611746565b1561143a576001945050505050610b74565b5050505b61144785610cfa565b611311565b50600095945050505050565b6000815183511480156106bd57506106bd8360008460008751610cd7565b6000612000825111156114e5576040517f08c379a000000000000000000000000000000000000000000000000000000000815260206004820152601760248201527f4c6f6e67206b657973206e6f74207065726d697474656400000000000000000060448201526064016105e9565b60008060005b8451601f0181101561155a57600081602087010151905085518260200111156115205785518290036008026101000390811c901b5b7eff00ff00ff00ff00ff00ff00ff00ff00ff00ff00ff00ff00ff00ff00ff00ff600882901c811694909401931691909101906020016114eb565b506010827fffff0000ffff0000ffff0000ffff0000ffff0000ffff0000ffff0000ffff000016901c827dffff0000ffff0000ffff0000ffff0000ffff0000ffff0000ffff0000ffff160191506010817fffff0000ffff0000ffff0000ffff0000ffff0000ffff0000ffff0000ffff000016901c817dffff0000ffff0000ffff0000ffff0000ffff0000ffff0000ffff0000ffff1601905080600883901b0191506020827fffffffff00000000ffffffff00000000ffffffff00000000ffffffff0000000016901c827bffffffff00000000ffffffff00000000ffffffff00000000ffffffff160191506040827fffffffffffffffff0000000000000000ffffffffffffffff000000000000000016901c8277ffffffffffffffff0000000000000000ffffffffffffffff16019150608082901c826fffffffffffffffffffffffffffffffff16019150601082901c61ffff16820191508192505050919050565b6040805180820190915260608152600060208201526116da602083611fa4565b15611702576116ea602083611fa4565b6116f5906020611e70565b6116ff9083611e58565b91505b506020828101829052604080518085526000815290920101905290565b6040805180820190915260608152600060208201526106bd83846000015151848551611825565b60ff831660009081526003602052604081205473ffffffffffffffffffffffffffffffffffffffff1661177b575060006106bd565b60ff8416600090815260036020526040908190205490517ff7e83aee00000000000000000000000000000000000000000000000000000000815273ffffffffffffffffffffffffffffffffffffffff9091169063f7e83aee906117e49086908690600401611f1b565b602060405180830381865afa158015611801573d6000803e3d6000fd5b505050506040513d601f19601f82011682018060405250810190610b749190611f82565b604080518082019091526060815260006020820152825182111561184857600080fd5b60208501516118578386611e58565b111561188a5761188a8561187a876020015187866118759190611e58565b61192d565b611885906002611fdf565b611944565b6000808651805187602083010193508088870111156118a95787860182525b505050602084015b602084106118e957805182526118c8602083611e58565b91506118d5602082611e58565b90506118e2602085611e70565b93506118b1565b5181517fffffffffffffffffffffffffffffffffffffffffffffffffffffffffffffffff60208690036101000a019081169019919091161790525083949350505050565b60008183111561193e575081610484565b50919050565b815161195083836116ba565b5061195b838261171f565b50505050565b803560ff8116811461197257600080fd5b919050565b73ffffffffffffffffffffffffffffffffffffffff8116811461199957600080fd5b50565b600080604083850312156119af57600080fd5b6119b883611961565b915060208301356119c881611977565b809150509250929050565b6000602082840312156119e557600080fd5b81356106bd81611977565b7f4e487b7100000000000000000000000000000000000000000000000000000000600052604160045260246000fd5b6040805190810167ffffffffffffffff81118282101715611a4257611a426119f0565b60405290565b604051601f82017fffffffffffffffffffffffffffffffffffffffffffffffffffffffffffffffe016810167ffffffffffffffff81118282101715611a8f57611a8f6119f0565b604052919050565b600082601f830112611aa857600080fd5b813567ffffffffffffffff811115611ac257611ac26119f0565b611af360207fffffffffffffffffffffffffffffffffffffffffffffffffffffffffffffffe0601f84011601611a48565b818152846020838601011115611b0857600080fd5b816020850160208301376000918101602001919091529392505050565b600082601f830112611b3657600080fd5b8135602067ffffffffffffffff80831115611b5357611b536119f0565b8260051b611b62838201611a48565b9384528581018301938381019088861115611b7c57600080fd5b84880192505b85831015611c3157823584811115611b9a5760008081fd5b88016040818b037fffffffffffffffffffffffffffffffffffffffffffffffffffffffffffffffe001811315611bd05760008081fd5b611bd8611a1f565b8783013587811115611bea5760008081fd5b611bf88d8a83870101611a97565b825250908201359086821115611c0e5760008081fd5b611c1c8c8984860101611a97565b81890152845250509184019190840190611b82565b98975050505050505050565b60008060408385031215611c5057600080fd5b823567ffffffffffffffff811115611c6757600080fd5b611c7385828601611b25565b95602094909401359450505050565b6000815180845260005b81811015611ca857602081850181015186830182015201611c8c565b81811115611cba576000602083870101525b50601f017fffffffffffffffffffffffffffffffffffffffffffffffffffffffffffffffe0169290920160200192915050565b6020815260006106bd6020830184611c82565b600060208284031215611d1257600080fd5b6106bd82611961565b600060208284031215611d2d57600080fd5b813567ffffffffffffffff811115611d4457600080fd5b610b7484828501611b25565b600181811c90821680611d6457607f821691505b60208210810361193e577f4e487b7100000000000000000000000000000000000000000000000000000000600052602260045260246000fd5b7f4e487b7100000000000000000000000000000000000000000000000000000000600052603260045260246000fd5b7f4e487b7100000000000000000000000000000000000000000000000000000000600052601160045260246000fd5b60007fffffffffffffffffffffffffffffffffffffffffffffffffffffffffffffffff8203611e2c57611e2c611dcc565b5060010190565b604081526000611e466040830185611c82565b905060ff831660208301529392505050565b60008219821115611e6b57611e6b611dcc565b500190565b600082821015611e8257611e82611dcc565b500390565b7f4e487b7100000000000000000000000000000000000000000000000000000000600052600160045260246000fd5b60008160030b8360030b60008112817fffffffffffffffffffffffffffffffffffffffffffffffffffffffff8000000001831281151615611ef957611ef9611dcc565b81637fffffff018313811615611f1157611f11611dcc565b5090039392505050565b604081526000611f2e6040830185611c82565b8281036020840152611f408185611c82565b95945050505050565b606081526000611f5c6060830186611c82565b8281036020840152611f6e8186611c82565b905082810360408401526112f88185611c82565b600060208284031215611f9457600080fd5b815180151581146106bd57600080fd5b600082611fda577f4e487b7100000000000000000000000000000000000000000000000000000000600052601260045260246000fd5b500690565b6000817fffffffffffffffffffffffffffffffffffffffffffffffffffffffffffffffff048311821515161561201757612017611dcc565b50029056fea26469706673582212204fa3ea65b374f8792d345ac5eac54604ff3e5bb1a030f02336a31bd63bb8a07e64736f6c634300080d0033",
  "linkReferences": {},
  "deployedLinkReferences": {}
}