{
  "_format": "hh-sol-artifact-1",
  "contractName": "CompoundHandler",
  "sourceName": "contracts/actions/topup/handlers/CompoundHandler.sol",
  "abi": [
    {
      "inputs": [
        {
          "internalType": "address",
          "name": "comptrollerAddress",
          "type": "address"
        },
        {
          "internalType": "address",
          "name": "_cTokenRegistry",
          "type": "address"
        }
      ],
      "stateMutability": "nonpayable",
      "type": "constructor"
    },
    {
      "inputs": [],
      "name": "cTokenRegistry",
      "outputs": [
        {
          "internalType": "contract ICTokenRegistry",
          "name": "",
          "type": "address"
        }
      ],
      "stateMutability": "view",
      "type": "function"
    },
    {
      "inputs": [],
      "name": "comptroller",
      "outputs": [
        {
          "internalType": "contract Comptroller",
          "name": "",
          "type": "address"
        }
      ],
      "stateMutability": "view",
      "type": "function"
    },
    {
      "inputs": [
        {
          "internalType": "bytes32",
          "name": "account",
          "type": "bytes32"
        },
        {
          "internalType": "bytes",
          "name": "",
          "type": "bytes"
        }
      ],
      "name": "getUserFactor",
      "outputs": [
        {
          "internalType": "uint256",
          "name": "",
          "type": "uint256"
        }
      ],
      "stateMutability": "view",
      "type": "function"
    },
    {
      "inputs": [
        {
          "internalType": "bytes32",
          "name": "account",
          "type": "bytes32"
        },
        {
          "internalType": "address",
          "name": "underlying",
          "type": "address"
        },
        {
          "internalType": "uint256",
          "name": "amount",
          "type": "uint256"
        },
        {
          "internalType": "bytes",
          "name": "extra",
          "type": "bytes"
        }
      ],
      "name": "topUp",
      "outputs": [
        {
          "internalType": "bool",
          "name": "",
          "type": "bool"
        }
      ],
      "stateMutability": "nonpayable",
      "type": "function"
    }
  ],
  "bytecode": "0x60c060405234801561001057600080fd5b5060405161162d38038061162d83398101604081905261002f91610062565b6001600160a01b039182166080521660a052610095565b80516001600160a01b038116811461005d57600080fd5b919050565b6000806040838503121561007557600080fd5b61007e83610046565b915061008c60208401610046565b90509250929050565b60805160a0516115596100d460003960008181609a01526101810152600081816056015281816105a80152818161065c015261080301526115596000f3fe608060405234801561001057600080fd5b506004361061004c5760003560e01c80635fe3b56714610051578063c45eb70814610095578063ce7e692e146100bc578063dac6de72146100dd575b600080fd5b6100787f000000000000000000000000000000000000000000000000000000000000000081565b6040516001600160a01b0390911681526020015b60405180910390f35b6100787f000000000000000000000000000000000000000000000000000000000000000081565b6100cf6100ca3660046111a1565b610100565b60405190815260200161008c565b6100f06100eb366004611200565b610145565b604051901515815260200161008c565b60008060006101176101128660601c90565b610598565b915091508060001415610130576000199250505061013f565b61013a8282610a17565b925050505b92915050565b6000808280602001905181019061015c9190611278565b604051632e38823560e01b81526001600160a01b0387811660048301529192506000917f00000000000000000000000000000000000000000000000000000000000000001690632e38823590602401602060405180830381600087803b1580156101c557600080fd5b505af11580156101d9573d6000803e3d6000fd5b505050506040513d601f19601f820116820180604052508101906101fd9190611293565b6040516370a0823160e01b81523060048201529091506000906001600160a01b038316906370a082319060240160206040518083038186803b15801561024257600080fd5b505afa158015610256573d6000803e3d6000fd5b505050506040513d601f19601f8201168201806040525081019061027a91906112b0565b905060006102888960601c90565b905083156102ba5761029c81898986610a3d565b6102a690886112df565b9650866102ba576001945050505050610590565b60006001600160a01b03891661034d5760405163140e25ad60e31b8152600481018990526001600160a01b0385169063a0712d68908a906024016020604051808303818588803b15801561030d57600080fd5b505af1158015610321573d6000803e3d6000fd5b50505050506040513d601f19601f8201168201806040525081019061034691906112b0565b90506103de565b6103616001600160a01b038a16858a610c5f565b60405163140e25ad60e31b8152600481018990526001600160a01b0385169063a0712d6890602401602060405180830381600087803b1580156103a357600080fd5b505af11580156103b7573d6000803e3d6000fd5b505050506040513d601f19601f820116820180604052508101906103db91906112b0565b90505b60408051808201909152600b81526a1b5a5b9d0819985a5b195960aa1b602082015281156104285760405162461bcd60e51b815260040161041f9190611326565b60405180910390fd5b506040516370a0823160e01b81523060048201526000906001600160a01b038616906370a082319060240160206040518083038186803b15801561046b57600080fd5b505afa15801561047f573d6000803e3d6000fd5b505050506040513d601f19601f820116820180604052508101906104a391906112b0565b905060006104b185836112df565b60405163a9059cbb60e01b81526001600160a01b0386811660048301526024820183905291925060009188169063a9059cbb90604401602060405180830381600087803b15801561050157600080fd5b505af1158015610515573d6000803e3d6000fd5b505050506040513d601f19601f820116820180604052508101906105399190611278565b9050806040518060400160405280600f81526020016e1d1c985b9cd9995c8819985a5b1959608a1b815250906105825760405162461bcd60e51b815260040161041f9190611326565b506001985050505050505050505b949350505050565b6000806105a3611048565b6000807f00000000000000000000000000000000000000000000000000000000000000006001600160a01b0316637dc0d1d06040518163ffffffff1660e01b815260040160206040518083038186803b1580156105ff57600080fd5b505afa158015610613573d6000803e3d6000fd5b505050506040513d601f19601f820116820180604052508101906106379190611293565b604051632aff3bff60e21b81526001600160a01b0388811660048301529192506000917f0000000000000000000000000000000000000000000000000000000000000000169063abfceffc9060240160006040518083038186803b15801561069e57600080fd5b505afa1580156106b2573d6000803e3d6000fd5b505050506040513d6000823e601f3d908101601f191682016040526106da9190810190611359565b905060005b81518110156109ff5760008282815181106106fc576106fc61140b565b60209081029190910101516040516361bfb47160e11b81526001600160a01b038b811660048301529192509082169063c37f68e29060240160806040518083038186803b15801561074c57600080fd5b505afa158015610760573d6000803e3d6000fd5b505050506040513d601f19601f820116820180604052508101906107849190611421565b60808a01526060890152604080890191909152805180820190915260128152711b595d1a1bd90818d85b1b0819985a5b195960721b602082015290955085156107e05760405162461bcd60e51b815260040161041f9190611326565b50604051638e8f294b60e01b81526001600160a01b0382811660048301526000917f000000000000000000000000000000000000000000000000000000000000000090911690638e8f294b9060240160606040518083038186803b15801561084757600080fd5b505afa15801561085b573d6000803e3d6000fd5b505050506040513d601f19601f8201168201806040525081019061087f9190611457565b50604080516020808201835283825260c08c01919091528151908101825260808b0151815260e08b01525163fc57d4df60e01b81526001600160a01b038581166004830152919350908716915063fc57d4df9060240160206040518083038186803b1580156108ed57600080fd5b505afa158015610901573d6000803e3d6000fd5b505050506040513d601f19601f8201168201806040525081019061092591906112b0565b60a088018190526040805180820190915260128152711b595d1a1bd90818d85b1b0819985a5b195960721b6020820152906109735760405162461bcd60e51b815260040161041f9190611326565b50604080516020810190915260a0880151815261010088015260c087015160e08801516109ae916109a391610daa565b886101000151610daa565b6101208801819052604088015188516109c8929190610df4565b8752610100870151606088015160208901516109e5929190610df4565b6020880152508190506109f781611493565b9150506106df565b50836000015184602001519550955050505050915091565b600081610a2c670de0b6b3a7640000856114ae565b610a3691906114cd565b9392505050565b6040516305eff7ef60e21b81526001600160a01b03858116600483015260009182918416906317bfdfbc90602401602060405180830381600087803b158015610a8557600080fd5b505af1158015610a99573d6000803e3d6000fd5b505050506040513d601f19601f82011682018060405250810190610abd91906112b0565b905080610ace576000915050610590565b83811115610ad95750825b60006001600160a01b038616610b715760405163e597461960e01b81526001600160a01b03888116600483015285919082169063e59746199085906024016020604051808303818588803b158015610b3057600080fd5b505af1158015610b44573d6000803e3d6000fd5b50505050506040513d601f19601f82011682018060405250810190610b6991906112b0565b915050610c0a565b610b856001600160a01b0387168584610c5f565b6040516304c11f0360e31b81526001600160a01b03888116600483015260248201849052851690632608f81890604401602060405180830381600087803b158015610bcf57600080fd5b505af1158015610be3573d6000803e3d6000fd5b505050506040513d601f19601f82011682018060405250810190610c0791906112b0565b90505b6040805180820190915260138152721c995c185e48189bdc9c9bddc819985a5b1959606a1b60208201528115610c535760405162461bcd60e51b815260040161041f9190611326565b50909695505050505050565b801580610ce85750604051636eb1769f60e11b81523060048201526001600160a01b03838116602483015284169063dd62ed3e9060440160206040518083038186803b158015610cae57600080fd5b505afa158015610cc2573d6000803e3d6000fd5b505050506040513d601f19601f82011682018060405250810190610ce691906112b0565b155b610d535760405162461bcd60e51b815260206004820152603660248201527f5361666545524332303a20617070726f76652066726f6d206e6f6e2d7a65726f60448201527520746f206e6f6e2d7a65726f20616c6c6f77616e636560501b606482015260840161041f565b604080516001600160a01b038416602482015260448082018490528251808303909101815260649091019091526020810180516001600160e01b031663095ea7b360e01b179052610da5908490610e20565b505050565b6040805160208101909152600081526040518060200160405280670de0b6b3a764000084600001518660000151610de191906114ae565b610deb91906114cd565b90529392505050565b600080610e018585610ef2565b905082610e0d82610f1c565b610e1791906114ef565b95945050505050565b6000610e75826040518060400160405280602081526020017f5361666545524332303a206c6f772d6c6576656c2063616c6c206661696c6564815250856001600160a01b0316610f349092919063ffffffff16565b805190915015610da55780806020019051810190610e939190611278565b610da55760405162461bcd60e51b815260206004820152602a60248201527f5361666545524332303a204552433230206f7065726174696f6e20646964206e6044820152691bdd081cdd58d8d9595960b21b606482015260840161041f565b6040805160208101909152600081526040518060200160405280838560000151610deb91906114ae565b805160009061013f90670de0b6b3a7640000906114cd565b60606105908484600085856001600160a01b0385163b610f965760405162461bcd60e51b815260206004820152601d60248201527f416464726573733a2063616c6c20746f206e6f6e2d636f6e7472616374000000604482015260640161041f565b600080866001600160a01b03168587604051610fb29190611507565b60006040518083038185875af1925050503d8060008114610fef576040519150601f19603f3d011682016040523d82523d6000602084013e610ff4565b606091505b509150915061100482828661100f565b979650505050505050565b6060831561101e575081610a36565b82511561102e5782518084602001fd5b8160405162461bcd60e51b815260040161041f9190611326565b6040518061014001604052806000815260200160008152602001600081526020016000815260200160008152602001600081526020016110946040518060200160405280600081525090565b81526020016110af6040518060200160405280600081525090565b81526020016110ca6040518060200160405280600081525090565b81526020016110e56040518060200160405280600081525090565b905290565b634e487b7160e01b600052604160045260246000fd5b604051601f8201601f1916810167ffffffffffffffff81118282101715611129576111296110ea565b604052919050565b600082601f83011261114257600080fd5b813567ffffffffffffffff81111561115c5761115c6110ea565b61116f601f8201601f1916602001611100565b81815284602083860101111561118457600080fd5b816020850160208301376000918101602001919091529392505050565b600080604083850312156111b457600080fd5b82359150602083013567ffffffffffffffff8111156111d257600080fd5b6111de85828601611131565b9150509250929050565b6001600160a01b03811681146111fd57600080fd5b50565b6000806000806080858703121561121657600080fd5b843593506020850135611228816111e8565b925060408501359150606085013567ffffffffffffffff81111561124b57600080fd5b61125787828801611131565b91505092959194509250565b8051801515811461127357600080fd5b919050565b60006020828403121561128a57600080fd5b610a3682611263565b6000602082840312156112a557600080fd5b8151610a36816111e8565b6000602082840312156112c257600080fd5b5051919050565b634e487b7160e01b600052601160045260246000fd5b6000828210156112f1576112f16112c9565b500390565b60005b838110156113115781810151838201526020016112f9565b83811115611320576000848401525b50505050565b60208152600082518060208401526113458160408501602087016112f6565b601f01601f19169190910160400192915050565b6000602080838503121561136c57600080fd5b825167ffffffffffffffff8082111561138457600080fd5b818501915085601f83011261139857600080fd5b8151818111156113aa576113aa6110ea565b8060051b91506113bb848301611100565b81815291830184019184810190888411156113d557600080fd5b938501935b838510156113ff57845192506113ef836111e8565b82825293850193908501906113da565b98975050505050505050565b634e487b7160e01b600052603260045260246000fd5b6000806000806080858703121561143757600080fd5b505082516020840151604085015160609095015191969095509092509050565b60008060006060848603121561146c57600080fd5b61147584611263565b92506020840151915061148a60408501611263565b90509250925092565b60006000198214156114a7576114a76112c9565b5060010190565b60008160001904831182151516156114c8576114c86112c9565b500290565b6000826114ea57634e487b7160e01b600052601260045260246000fd5b500490565b60008219821115611502576115026112c9565b500190565b600082516115198184602087016112f6565b919091019291505056fea2646970667358221220370e4a6399ef4483bf7a19fde357b02911992610716c2ed843fdfdf9ee9eae9764736f6c63430008090033",
  "linkReferences": {},
  "deployedLinkReferences": {}
}