{
  "_format": "hh-sol-artifact-1",
  "contractName": "BkdTriHopCvx",
  "sourceName": "contracts/strategies/BkdTriHopCvx.sol",
  "abi": [
    {
      "inputs": [
        {
          "internalType": "address",
          "name": "vault_",
          "type": "address"
        },
        {
          "internalType": "address",
          "name": "strategist_",
          "type": "address"
        },
        {
          "internalType": "uint256",
          "name": "convexPid_",
          "type": "uint256"
        },
        {
          "internalType": "address",
          "name": "curvePool_",
          "type": "address"
        },
        {
          "internalType": "uint256",
          "name": "curveIndex_",
          "type": "uint256"
        },
        {
          "internalType": "address",
          "name": "curveHopPool_",
          "type": "address"
        },
        {
          "internalType": "uint256",
          "name": "curveHopIndex_",
          "type": "uint256"
        },
        {
          "internalType": "contract IAddressProvider",
          "name": "addressProvider_",
          "type": "address"
        },
        {
          "internalType": "address",
          "name": "strategySwapper_",
          "type": "address"
        }
      ],
      "stateMutability": "nonpayable",
      "type": "constructor"
    },
    {
      "anonymous": false,
      "inputs": [
        {
          "indexed": false,
          "internalType": "address",
          "name": "token",
          "type": "address"
        }
      ],
      "name": "AddRewardToken",
      "type": "event"
    },
    {
      "anonymous": false,
      "inputs": [],
      "name": "Deposit",
      "type": "event"
    },
    {
      "anonymous": false,
      "inputs": [
        {
          "indexed": false,
          "internalType": "uint256",
          "name": "amount",
          "type": "uint256"
        }
      ],
      "name": "Harvest",
      "type": "event"
    },
    {
      "anonymous": false,
      "inputs": [
        {
          "indexed": false,
          "internalType": "address",
          "name": "token",
          "type": "address"
        }
      ],
      "name": "RemoveRewardToken",
      "type": "event"
    },
    {
      "anonymous": false,
      "inputs": [
        {
          "indexed": false,
          "internalType": "address",
          "name": "reserve",
          "type": "address"
        }
      ],
      "name": "SetCommunityReserve",
      "type": "event"
    },
    {
      "anonymous": false,
      "inputs": [
        {
          "indexed": false,
          "internalType": "uint256",
          "name": "value",
          "type": "uint256"
        }
      ],
      "name": "SetCrvCommunityReserveShare",
      "type": "event"
    },
    {
      "anonymous": false,
      "inputs": [
        {
          "indexed": false,
          "internalType": "uint256",
          "name": "value",
          "type": "uint256"
        }
      ],
      "name": "SetCvxCommunityReserveShare",
      "type": "event"
    },
    {
      "anonymous": false,
      "inputs": [
        {
          "indexed": false,
          "internalType": "uint256",
          "name": "value",
          "type": "uint256"
        }
      ],
      "name": "SetHopImbalanceToleranceIn",
      "type": "event"
    },
    {
      "anonymous": false,
      "inputs": [
        {
          "indexed": false,
          "internalType": "uint256",
          "name": "value",
          "type": "uint256"
        }
      ],
      "name": "SetHopImbalanceToleranceOut",
      "type": "event"
    },
    {
      "anonymous": false,
      "inputs": [
        {
          "indexed": false,
          "internalType": "uint256",
          "name": "value",
          "type": "uint256"
        }
      ],
      "name": "SetImbalanceToleranceIn",
      "type": "event"
    },
    {
      "anonymous": false,
      "inputs": [
        {
          "indexed": false,
          "internalType": "uint256",
          "name": "value",
          "type": "uint256"
        }
      ],
      "name": "SetImbalanceToleranceOut",
      "type": "event"
    },
    {
      "anonymous": false,
      "inputs": [
        {
          "indexed": false,
          "internalType": "address",
          "name": "strategist",
          "type": "address"
        }
      ],
      "name": "SetStrategist",
      "type": "event"
    },
    {
      "anonymous": false,
      "inputs": [],
      "name": "Shutdown",
      "type": "event"
    },
    {
      "anonymous": false,
      "inputs": [
        {
          "indexed": false,
          "internalType": "uint256",
          "name": "amount",
          "type": "uint256"
        }
      ],
      "name": "Withdraw",
      "type": "event"
    },
    {
      "anonymous": false,
      "inputs": [
        {
          "indexed": false,
          "internalType": "uint256",
          "name": "amount",
          "type": "uint256"
        }
      ],
      "name": "WithdrawAll",
      "type": "event"
    },
    {
      "inputs": [
        {
          "internalType": "address",
          "name": "token_",
          "type": "address"
        }
      ],
      "name": "addRewardToken",
      "outputs": [
        {
          "internalType": "bool",
          "name": "",
          "type": "bool"
        }
      ],
      "stateMutability": "nonpayable",
      "type": "function"
    },
    {
      "inputs": [],
      "name": "balance",
      "outputs": [
        {
          "internalType": "uint256",
          "name": "",
          "type": "uint256"
        }
      ],
      "stateMutability": "view",
      "type": "function"
    },
    {
      "inputs": [
        {
          "internalType": "uint256",
          "name": "convexPid_",
          "type": "uint256"
        },
        {
          "internalType": "address",
          "name": "curvePool_",
          "type": "address"
        },
        {
          "internalType": "uint256",
          "name": "curveIndex_",
          "type": "uint256"
        }
      ],
      "name": "changeConvexPool",
      "outputs": [],
      "stateMutability": "nonpayable",
      "type": "function"
    },
    {
      "inputs": [],
      "name": "communityReserve",
      "outputs": [
        {
          "internalType": "address",
          "name": "",
          "type": "address"
        }
      ],
      "stateMutability": "view",
      "type": "function"
    },
    {
      "inputs": [],
      "name": "convexPid",
      "outputs": [
        {
          "internalType": "uint256",
          "name": "",
          "type": "uint256"
        }
      ],
      "stateMutability": "view",
      "type": "function"
    },
    {
      "inputs": [],
      "name": "crvCommunityReserveShare",
      "outputs": [
        {
          "internalType": "uint256",
          "name": "",
          "type": "uint256"
        }
      ],
      "stateMutability": "view",
      "type": "function"
    },
    {
      "inputs": [],
      "name": "curveHopIndex",
      "outputs": [
        {
          "internalType": "uint256",
          "name": "",
          "type": "uint256"
        }
      ],
      "stateMutability": "view",
      "type": "function"
    },
    {
      "inputs": [],
      "name": "curveHopPool",
      "outputs": [
        {
          "internalType": "contract ICurveSwapEth",
          "name": "",
          "type": "address"
        }
      ],
      "stateMutability": "view",
      "type": "function"
    },
    {
      "inputs": [],
      "name": "curveIndex",
      "outputs": [
        {
          "internalType": "uint256",
          "name": "",
          "type": "uint256"
        }
      ],
      "stateMutability": "view",
      "type": "function"
    },
    {
      "inputs": [],
      "name": "curvePool",
      "outputs": [
        {
          "internalType": "contract ICurveSwapEth",
          "name": "",
          "type": "address"
        }
      ],
      "stateMutability": "view",
      "type": "function"
    },
    {
      "inputs": [],
      "name": "cvxCommunityReserveShare",
      "outputs": [
        {
          "internalType": "uint256",
          "name": "",
          "type": "uint256"
        }
      ],
      "stateMutability": "view",
      "type": "function"
    },
    {
      "inputs": [],
      "name": "decimalMultiplier",
      "outputs": [
        {
          "internalType": "uint256",
          "name": "",
          "type": "uint256"
        }
      ],
      "stateMutability": "view",
      "type": "function"
    },
    {
      "inputs": [],
      "name": "deposit",
      "outputs": [
        {
          "internalType": "bool",
          "name": "",
          "type": "bool"
        }
      ],
      "stateMutability": "payable",
      "type": "function"
    },
    {
      "inputs": [
        {
          "internalType": "uint256",
          "name": "crvEarned",
          "type": "uint256"
        }
      ],
      "name": "getCvxMintAmount",
      "outputs": [
        {
          "internalType": "uint256",
          "name": "",
          "type": "uint256"
        }
      ],
      "stateMutability": "view",
      "type": "function"
    },
    {
      "inputs": [],
      "name": "harvest",
      "outputs": [
        {
          "internalType": "uint256",
          "name": "",
          "type": "uint256"
        }
      ],
      "stateMutability": "nonpayable",
      "type": "function"
    },
    {
      "inputs": [],
      "name": "harvestable",
      "outputs": [
        {
          "internalType": "uint256",
          "name": "",
          "type": "uint256"
        }
      ],
      "stateMutability": "view",
      "type": "function"
    },
    {
      "inputs": [],
      "name": "hasPendingFunds",
      "outputs": [
        {
          "internalType": "bool",
          "name": "",
          "type": "bool"
        }
      ],
      "stateMutability": "pure",
      "type": "function"
    },
    {
      "inputs": [],
      "name": "hopImbalanceToleranceIn",
      "outputs": [
        {
          "internalType": "uint256",
          "name": "",
          "type": "uint256"
        }
      ],
      "stateMutability": "view",
      "type": "function"
    },
    {
      "inputs": [],
      "name": "hopImbalanceToleranceOut",
      "outputs": [
        {
          "internalType": "uint256",
          "name": "",
          "type": "uint256"
        }
      ],
      "stateMutability": "view",
      "type": "function"
    },
    {
      "inputs": [],
      "name": "hopLp",
      "outputs": [
        {
          "internalType": "contract IERC20",
          "name": "",
          "type": "address"
        }
      ],
      "stateMutability": "view",
      "type": "function"
    },
    {
      "inputs": [],
      "name": "imbalanceToleranceIn",
      "outputs": [
        {
          "internalType": "uint256",
          "name": "",
          "type": "uint256"
        }
      ],
      "stateMutability": "view",
      "type": "function"
    },
    {
      "inputs": [],
      "name": "imbalanceToleranceOut",
      "outputs": [
        {
          "internalType": "uint256",
          "name": "",
          "type": "uint256"
        }
      ],
      "stateMutability": "view",
      "type": "function"
    },
    {
      "inputs": [],
      "name": "isShutdown",
      "outputs": [
        {
          "internalType": "bool",
          "name": "",
          "type": "bool"
        }
      ],
      "stateMutability": "view",
      "type": "function"
    },
    {
      "inputs": [],
      "name": "lp",
      "outputs": [
        {
          "internalType": "contract IERC20",
          "name": "",
          "type": "address"
        }
      ],
      "stateMutability": "view",
      "type": "function"
    },
    {
      "inputs": [],
      "name": "name",
      "outputs": [
        {
          "internalType": "string",
          "name": "",
          "type": "string"
        }
      ],
      "stateMutability": "pure",
      "type": "function"
    },
    {
      "inputs": [
        {
          "internalType": "address",
          "name": "token_",
          "type": "address"
        }
      ],
      "name": "removeRewardToken",
      "outputs": [
        {
          "internalType": "bool",
          "name": "",
          "type": "bool"
        }
      ],
      "stateMutability": "nonpayable",
      "type": "function"
    },
    {
      "inputs": [],
      "name": "rewardTokens",
      "outputs": [
        {
          "internalType": "address[]",
          "name": "",
          "type": "address[]"
        }
      ],
      "stateMutability": "view",
      "type": "function"
    },
    {
      "inputs": [],
      "name": "rewards",
      "outputs": [
        {
          "internalType": "contract IRewardStaking",
          "name": "",
          "type": "address"
        }
      ],
      "stateMutability": "view",
      "type": "function"
    },
    {
      "inputs": [],
      "name": "roleManager",
      "outputs": [
        {
          "internalType": "contract IRoleManager",
          "name": "",
          "type": "address"
        }
      ],
      "stateMutability": "view",
      "type": "function"
    },
    {
      "inputs": [
        {
          "internalType": "address",
          "name": "_communityReserve",
          "type": "address"
        }
      ],
      "name": "setCommunityReserve",
      "outputs": [
        {
          "internalType": "bool",
          "name": "",
          "type": "bool"
        }
      ],
      "stateMutability": "nonpayable",
      "type": "function"
    },
    {
      "inputs": [
        {
          "internalType": "uint256",
          "name": "crvCommunityReserveShare_",
          "type": "uint256"
        }
      ],
      "name": "setCrvCommunityReserveShare",
      "outputs": [
        {
          "internalType": "bool",
          "name": "",
          "type": "bool"
        }
      ],
      "stateMutability": "nonpayable",
      "type": "function"
    },
    {
      "inputs": [
        {
          "internalType": "uint256",
          "name": "cvxCommunityReserveShare_",
          "type": "uint256"
        }
      ],
      "name": "setCvxCommunityReserveShare",
      "outputs": [
        {
          "internalType": "bool",
          "name": "",
          "type": "bool"
        }
      ],
      "stateMutability": "nonpayable",
      "type": "function"
    },
    {
      "inputs": [
        {
          "internalType": "uint256",
          "name": "_hopImbalanceToleranceIn",
          "type": "uint256"
        }
      ],
      "name": "setHopImbalanceToleranceIn",
      "outputs": [
        {
          "internalType": "bool",
          "name": "",
          "type": "bool"
        }
      ],
      "stateMutability": "nonpayable",
      "type": "function"
    },
    {
      "inputs": [
        {
          "internalType": "uint256",
          "name": "_hopImbalanceToleranceOut",
          "type": "uint256"
        }
      ],
      "name": "setHopImbalanceToleranceOut",
      "outputs": [
        {
          "internalType": "bool",
          "name": "",
          "type": "bool"
        }
      ],
      "stateMutability": "nonpayable",
      "type": "function"
    },
    {
      "inputs": [
        {
          "internalType": "uint256",
          "name": "imbalanceToleranceIn_",
          "type": "uint256"
        }
      ],
      "name": "setImbalanceToleranceIn",
      "outputs": [
        {
          "internalType": "bool",
          "name": "",
          "type": "bool"
        }
      ],
      "stateMutability": "nonpayable",
      "type": "function"
    },
    {
      "inputs": [
        {
          "internalType": "uint256",
          "name": "imbalanceToleranceOut_",
          "type": "uint256"
        }
      ],
      "name": "setImbalanceToleranceOut",
      "outputs": [
        {
          "internalType": "bool",
          "name": "",
          "type": "bool"
        }
      ],
      "stateMutability": "nonpayable",
      "type": "function"
    },
    {
      "inputs": [
        {
          "internalType": "address",
          "name": "strategist_",
          "type": "address"
        }
      ],
      "name": "setStrategist",
      "outputs": [
        {
          "internalType": "bool",
          "name": "",
          "type": "bool"
        }
      ],
      "stateMutability": "nonpayable",
      "type": "function"
    },
    {
      "inputs": [],
      "name": "shutdown",
      "outputs": [
        {
          "internalType": "bool",
          "name": "",
          "type": "bool"
        }
      ],
      "stateMutability": "nonpayable",
      "type": "function"
    },
    {
      "inputs": [],
      "name": "strategist",
      "outputs": [
        {
          "internalType": "address",
          "name": "",
          "type": "address"
        }
      ],
      "stateMutability": "view",
      "type": "function"
    },
    {
      "inputs": [],
      "name": "underlying",
      "outputs": [
        {
          "internalType": "contract IERC20",
          "name": "",
          "type": "address"
        }
      ],
      "stateMutability": "view",
      "type": "function"
    },
    {
      "inputs": [],
      "name": "vault",
      "outputs": [
        {
          "internalType": "address",
          "name": "",
          "type": "address"
        }
      ],
      "stateMutability": "view",
      "type": "function"
    },
    {
      "inputs": [
        {
          "internalType": "uint256",
          "name": "amount_",
          "type": "uint256"
        }
      ],
      "name": "withdraw",
      "outputs": [
        {
          "internalType": "bool",
          "name": "",
          "type": "bool"
        }
      ],
      "stateMutability": "nonpayable",
      "type": "function"
    },
    {
      "inputs": [],
      "name": "withdrawAll",
      "outputs": [
        {
          "internalType": "uint256",
          "name": "",
          "type": "uint256"
        }
      ],
      "stateMutability": "nonpayable",
      "type": "function"
    }
  ],
  "bytecode": "0x6101406040523480156200001257600080fd5b5060405162004f2738038062004f27833981016040819052620000359162000b26565b888888888886866200005b826001600160a01b03166200061260201b6200216e1760201c565b6001600160a01b03166080526200007284620006a4565b604051631526fe2760e01b815260048101869052600090819073f403c135812408bfbe8713b5a23a04b3d48aae3190631526fe279060240160c06040518083038186803b158015620000c357600080fd5b505afa158015620000d8573d6000803e3d6000fd5b505050506040513d601f19601f82011682018060405250810190620000fe919062000bef565b5050600a80546001600160a01b038681166001600160a01b03199283161790925560098054848416908316179055600b8054928d16929091168217905560405163c661065760e01b8152600481018b905294965090945060009390925063c6610657915060240160206040518083038186803b1580156200017e57600080fd5b505afa15801562000193573d6000803e3d6000fd5b505050506040513d601f19601f82011682018060405250810190620001b9919062000c7e565b90506001600160a01b03811673eeeeeeeeeeeeeeeeeeeeeeeeeeeeeeeeeeeeeeee1415620001e5575060005b600380546001600160a01b03199081166001600160a01b03848116919091179092558b821660c052600080549091168b8316179055600c899055600d879055841660a08190526200025b9073d533a949740bb3306d119cc777fa900ba034cd529060001962000737602090811b620021fc17901c565b6200029860a051600019734e3fbd56cd56c3e72c1403e103b45db9da5b9d2b6001600160a01b03166200073760201b620021fc179092919060201c565b620002d560a05160001973c02aaa39b223fe8d0a0e5c4f27ead9083c756cc26001600160a01b03166200073760201b620021fc179092919060201c565b50505050505050505050620002f084620006a460201b60201c565b604051631526fe2760e01b81526004810188905260009073f403c135812408bfbe8713b5a23a04b3d48aae3190631526fe279060240160c06040518083038186803b1580156200033f57600080fd5b505afa15801562000354573d6000803e3d6000fd5b505050506040513d601f19601f820116820180604052508101906200037a919062000bef565b505050505090506000876001600160a01b031663c6610657886040518263ffffffff1660e01b8152600401620003b291815260200190565b60206040518083038186803b158015620003cb57600080fd5b505afa158015620003e0573d6000803e3d6000fd5b505050506040513d601f19601f8201168201806040525081019062000406919062000c7e565b6001600160a01b0381811661010052871660e081905260405163c661065760e01b81526004810188905291925060009163c66106579060240160206040518083038186803b1580156200045857600080fd5b505afa1580156200046d573d6000803e3d6000fd5b505050506040513d601f19601f8201168201806040525081019062000493919062000c7e565b905080600360006101000a8154816001600160a01b0302191690836001600160a01b03160217905550806001600160a01b031663313ce5676040518163ffffffff1660e01b815260040160206040518083038186803b158015620004f657600080fd5b505afa1580156200050b573d6000803e3d6000fd5b505050506040513d601f19601f8201168201806040525081019062000531919062000c9e565b6200053e90601262000cd9565b6200054b90600a62000dfc565b60105561012086905266038d7ea4c68000600781905566aa87bee5380000600855600e556605543df729c000600f556200059e6001600160a01b0382168860001962000737602090811b620021fc17901c565b620005c589600019846001600160a01b03166200073760201b620021fc179092919060201c565b6200060073f403c135812408bfbe8713b5a23a04b3d48aae31600019856001600160a01b03166200073760201b620021fc179092919060201c565b50505050505050505050505062000ecb565b6040516321f8a72160e01b81526a3937b632a6b0b730b3b2b960a91b60048201526000906001600160a01b038316906321f8a7219060240160206040518083038186803b1580156200066357600080fd5b505afa15801562000678573d6000803e3d6000fd5b505050506040513d601f19601f820116820180604052508101906200069e919062000c7e565b92915050565b6040516355b30b1960e01b81526001600160a01b03821660048201527390e00ace148ca3b23ac1bc8c240c2a7dd9c2d7f5906355b30b199060240160206040518083038186803b158015620006f857600080fd5b505afa1580156200070d573d6000803e3d6000fd5b505050506040513d601f19601f8201168201806040525081019062000733919062000e0d565b5050565b801580620007c55750604051636eb1769f60e11b81523060048201526001600160a01b03838116602483015284169063dd62ed3e9060440160206040518083038186803b1580156200078857600080fd5b505afa1580156200079d573d6000803e3d6000fd5b505050506040513d601f19601f82011682018060405250810190620007c3919062000e0d565b155b6200083d5760405162461bcd60e51b815260206004820152603660248201527f5361666545524332303a20617070726f76652066726f6d206e6f6e2d7a65726f60448201527f20746f206e6f6e2d7a65726f20616c6c6f77616e63650000000000000000000060648201526084015b60405180910390fd5b604080516001600160a01b038416602482015260448082018490528251808303909101815260649091019091526020810180516001600160e01b0390811663095ea7b360e01b17909152620008959185916200089a16565b505050565b6000620008f6826040518060400160405280602081526020017f5361666545524332303a206c6f772d6c6576656c2063616c6c206661696c6564815250856001600160a01b03166200097860201b62002358179092919060201c565b80519091501562000895578080602001905181019062000917919062000e27565b620008955760405162461bcd60e51b815260206004820152602a60248201527f5361666545524332303a204552433230206f7065726174696f6e20646964206e6044820152691bdd081cdd58d8d9595960b21b606482015260840162000834565b606062000989848460008562000993565b90505b9392505050565b606082471015620009f65760405162461bcd60e51b815260206004820152602660248201527f416464726573733a20696e73756666696369656e742062616c616e636520666f6044820152651c8818d85b1b60d21b606482015260840162000834565b6001600160a01b0385163b62000a4f5760405162461bcd60e51b815260206004820152601d60248201527f416464726573733a2063616c6c20746f206e6f6e2d636f6e7472616374000000604482015260640162000834565b600080866001600160a01b0316858760405162000a6d919062000e78565b60006040518083038185875af1925050503d806000811462000aac576040519150601f19603f3d011682016040523d82523d6000602084013e62000ab1565b606091505b50909250905062000ac482828662000acf565b979650505050505050565b6060831562000ae05750816200098c565b82511562000af15782518084602001fd5b8160405162461bcd60e51b815260040162000834919062000e96565b6001600160a01b038116811462000b2357600080fd5b50565b60008060008060008060008060006101208a8c03121562000b4657600080fd5b895162000b538162000b0d565b60208b015190995062000b668162000b0d565b60408b015160608c0151919950975062000b808162000b0d565b60808b015160a08c0151919750955062000b9a8162000b0d565b60c08b015160e08c0151919550935062000bb48162000b0d565b6101008b015190925062000bc88162000b0d565b809150509295985092959850929598565b8051801515811462000bea57600080fd5b919050565b60008060008060008060c0878903121562000c0957600080fd5b865162000c168162000b0d565b602088015190965062000c298162000b0d565b604088015190955062000c3c8162000b0d565b606088015190945062000c4f8162000b0d565b608088015190935062000c628162000b0d565b915062000c7260a0880162000bd9565b90509295509295509295565b60006020828403121562000c9157600080fd5b81516200098c8162000b0d565b60006020828403121562000cb157600080fd5b815160ff811681146200098c57600080fd5b634e487b7160e01b600052601160045260246000fd5b600060ff821660ff84168082101562000cf65762000cf662000cc3565b90039392505050565b600181815b8085111562000d4057816000190482111562000d245762000d2462000cc3565b8085161562000d3257918102915b93841c939080029062000d04565b509250929050565b60008262000d59575060016200069e565b8162000d68575060006200069e565b816001811462000d81576002811462000d8c5762000dac565b60019150506200069e565b60ff84111562000da05762000da062000cc3565b50506001821b6200069e565b5060208310610133831016604e8410600b841016171562000dd1575081810a6200069e565b62000ddd838362000cff565b806000190482111562000df45762000df462000cc3565b029392505050565b60006200098c60ff84168362000d48565b60006020828403121562000e2057600080fd5b5051919050565b60006020828403121562000e3a57600080fd5b6200098c8262000bd9565b60005b8381101562000e6257818101518382015260200162000e48565b8381111562000e72576000848401525b50505050565b6000825162000e8c81846020870162000e45565b9190910192915050565b602081526000825180602084015262000eb781604085016020870162000e45565b601f01601f19169190910160400192915050565b60805160a05160c05160e0516101005161012051613f17620010106000396000818161050801528181612589015281816129b20152612e8f01526000818161045501528181611ca601528181611cdf0152612aa501526000818161038b015281816125d40152818161298201528181612b9101528181612cb201528181612ecd015281816139500152613a7c01526000818161076001528181610a8601528181610d98015281816110e101528181611701015281816120d5015281816123ac015281816126500152612a680152600081816109b4015281816109e90152818161274001526130fb01526000818161026f015281816107cc01528181610c2a01528181610de301528181610f0a0152818161110a0152818161124d01528181611374015281816114f701528181611ac401528181611db40152611edb0152613f176000f3fe60806040526004361061025b5760003560e01c80637bdcdaff11610144578063c2bddf31116100b6578063e9eb50881161007a578063e9eb50881461070e578063ecf8db0a1461072e578063fbfa77cf1461074e578063fc0e74d114610782578063fdc0bfca14610797578063ff0af85b146107ad57600080fd5b8063c2bddf311461068f578063c7b9d530146106af578063d0e30db0146106cf578063dbbd47d4146106d7578063df22a747146106ec57600080fd5b80639ec5a894116101085780639ec5a894146105e1578063aa6a8caf14610601578063b69ef8a814610621578063b6ed67a814610636578063bf86d6901461064c578063c2b18aa01461066d57600080fd5b80637bdcdaff1461056a578063853828b61461058057806386993bef14610595578063938511a7146105ab5780639b61a924146105cb57600080fd5b80633778851e116101dd57806356be5f71116101a157806356be5f71146104ac57806361240eea146104c2578063621e8fe1146104d657806369cbb00d146104f65780636f307dc31461052a57806370aa17261461054a57600080fd5b80633778851e146104035780633d509c971461042357806344d32ee9146104435780634641257d1461047757806349cabcdf1461048c57600080fd5b8063218751b211610224578063218751b214610359578063283f3b56146103795780632e1a7d4d146103ad5780633082538f146103cd578063313c06a0146103e357600080fd5b8062435da51461026057806306fdde03146102ac5780631a55820d146102e75780631c03e6cc1461030b5780631fe4a6861461033b575b600080fd5b34801561026c57600080fd5b507f00000000000000000000000000000000000000000000000000000000000000005b6040516001600160a01b0390911681526020015b60405180910390f35b3480156102b857600080fd5b50604080518082018252600c81526b084d6c8a8e4d290dee086ecf60a31b602082015290516102a39190613b69565b3480156102f357600080fd5b506102fd60085481565b6040519081526020016102a3565b34801561031757600080fd5b5061032b610326366004613bb4565b6107c8565b60405190151581526020016102a3565b34801561034757600080fd5b506000546001600160a01b031661028f565b34801561036557600080fd5b50600b5461028f906001600160a01b031681565b34801561038557600080fd5b5061028f7f000000000000000000000000000000000000000000000000000000000000000081565b3480156103b957600080fd5b5061032b6103c8366004613bd1565b610a56565b3480156103d957600080fd5b506102fd60105481565b3480156103ef57600080fd5b50600a5461028f906001600160a01b031681565b34801561040f57600080fd5b506102fd61041e366004613bd1565b610b17565b34801561042f57600080fd5b5061032b61043e366004613bb4565b610c26565b34801561044f57600080fd5b5061028f7f000000000000000000000000000000000000000000000000000000000000000081565b34801561048357600080fd5b506102fd610d68565b34801561049857600080fd5b5061032b6104a7366004613bd1565b610ddf565b3480156104b857600080fd5b506102fd60075481565b3480156104ce57600080fd5b50600061032b565b3480156104e257600080fd5b5060045461028f906001600160a01b031681565b34801561050257600080fd5b506102fd7f000000000000000000000000000000000000000000000000000000000000000081565b34801561053657600080fd5b5060035461028f906001600160a01b031681565b34801561055657600080fd5b5061032b610565366004613bd1565b610f06565b34801561057657600080fd5b506102fd600d5481565b34801561058c57600080fd5b506102fd6110d4565b3480156105a157600080fd5b506102fd600c5481565b3480156105b757600080fd5b5061032b6105c6366004613bd1565b611249565b3480156105d757600080fd5b506102fd60065481565b3480156105ed57600080fd5b5060095461028f906001600160a01b031681565b34801561060d57600080fd5b5061032b61061c366004613bd1565b611370565b34801561062d57600080fd5b506102fd611497565b34801561064257600080fd5b506102fd600e5481565b34801561065857600080fd5b5060035461032b90600160a01b900460ff1681565b34801561067957600080fd5b506106826114e7565b6040516102a39190613bea565b34801561069b57600080fd5b5061032b6106aa366004613bb4565b6114f3565b3480156106bb57600080fd5b5061032b6106ca366004613bb4565b611633565b61032b6116d1565b3480156106e357600080fd5b506102fd6117da565b3480156106f857600080fd5b5061070c610707366004613c37565b611ac2565b005b34801561071a57600080fd5b5061032b610729366004613bd1565b611db0565b34801561073a57600080fd5b5061032b610749366004613bd1565b611ed7565b34801561075a57600080fd5b5061028f7f000000000000000000000000000000000000000000000000000000000000000081565b34801561078e57600080fd5b5061032b6120a5565b3480156107a357600080fd5b506102fd600f5481565b3480156107b957600080fd5b506102fd60055481565b905090565b60007f0000000000000000000000000000000000000000000000000000000000000000604051632474521560e21b815269676f7665726e616e636560b01b60048201523360248201526001600160a01b0391909116906391d148549060440160206040518083038186803b15801561083f57600080fd5b505afa158015610853573d6000803e3d6000fd5b505050506040513d601f19601f820116820180604052508101906108779190613c7f565b604051806040016040528060138152602001600080516020613ec2833981519152815250906108c25760405162461bcd60e51b81526004016108b99190613b69565b60405180910390fd5b506001600160a01b038216734e3fbd56cd56c3e72c1403e103b45db9da5b9d2b148015906108fe57506003546001600160a01b03838116911614155b801561092757506001600160a01b03821673d533a949740bb3306d119cc777fa900ba034cd5214155b60405180604001604052806014815260200173125b9d985b1a59081d1bdad95b881d1bc818591960621b815250906109725760405162461bcd60e51b81526004016108b99190613b69565b506001600160a01b0382166000908152600260205260409020541561099957506000919050565b6109a4600183612371565b506109da6001600160a01b0383167f000000000000000000000000000000000000000000000000000000000000000060006121fc565b610a106001600160a01b0383167f00000000000000000000000000000000000000000000000000000000000000006000196121fc565b6040516001600160a01b03831681527f851bbb4304bf0768ed98b97e429b5bd1dcc1f194b36cd1650f40293e951ae393906020015b60405180910390a15060015b919050565b6040805180820190915260138152600080516020613ec28339815191526020820152600090336001600160a01b037f00000000000000000000000000000000000000000000000000000000000000001614610ac45760405162461bcd60e51b81526004016108b99190613b69565b5081610ad257506000919050565b610adb82612386565b610ae757506000919050565b6040518281527f5b6b431d4476a211bb7d41c20d1aab9ae2321deee0d20be3d9fc9b1093fa6e3d90602001610a45565b600080734e3fbd56cd56c3e72c1403e103b45db9da5b9d2b6001600160a01b03166318160ddd6040518163ffffffff1660e01b815260040160206040518083038186803b158015610b6757600080fd5b505afa158015610b7b573d6000803e3d6000fd5b505050506040513d601f19601f82011682018060405250810190610b9f9190613c9a565b90506000610bb769152d02c7e14af680000083613cc9565b90506103e88110610bcc575060009392505050565b6000610bda826103e8613ceb565b905060006103e8610beb8388613d02565b610bf59190613cc9565b90506000610c0e856a52b7d2dcc80cd2e4000000613ceb565b905080821115610c1c578091505b5095945050505050565b60007f0000000000000000000000000000000000000000000000000000000000000000604051632474521560e21b815269676f7665726e616e636560b01b60048201523360248201526001600160a01b0391909116906391d148549060440160206040518083038186803b158015610c9d57600080fd5b505afa158015610cb1573d6000803e3d6000fd5b505050506040513d601f19601f82011682018060405250810190610cd59190613c7f565b604051806040016040528060138152602001600080516020613ec283398151915281525090610d175760405162461bcd60e51b81526004016108b99190613b69565b50610d23600183612685565b610d2f57506000919050565b6040516001600160a01b03831681527f36bd04094fa067bb9471a8fbdb0a6e8a43424a2566ad3a740c88973fa40a311890602001610a45565b6040805180820190915260138152600080516020613ec28339815191526020820152600090336001600160a01b037f00000000000000000000000000000000000000000000000000000000000000001614610dd65760405162461bcd60e51b81526004016108b99190613b69565b506107c361269a565b60007f0000000000000000000000000000000000000000000000000000000000000000604051632474521560e21b815269676f7665726e616e636560b01b60048201523360248201526001600160a01b0391909116906391d148549060440160206040518083038186803b158015610e5657600080fd5b505afa158015610e6a573d6000803e3d6000fd5b505050506040513d601f19601f82011682018060405250810190610e8e9190613c7f565b604051806040016040528060138152602001600080516020613ec283398151915281525090610ed05760405162461bcd60e51b81526004016108b99190613b69565b5060078290556040518281527f4ede3e4e9f7997fda6ff4a12d6c43d5c9e1e2055065cbc15f902f504f72dc8c090602001610a45565b60007f0000000000000000000000000000000000000000000000000000000000000000604051632474521560e21b815269676f7665726e616e636560b01b60048201523360248201526001600160a01b0391909116906391d148549060440160206040518083038186803b158015610f7d57600080fd5b505afa158015610f91573d6000803e3d6000fd5b505050506040513d601f19601f82011682018060405250810190610fb59190613c7f565b604051806040016040528060138152602001600080516020613ec283398151915281525090610ff75760405162461bcd60e51b81526004016108b99190613b69565b5060408051808201909152600e81526d1a5b9d985b1a5908185b5bdd5b9d60921b6020820152670de0b6b3a76400008311156110465760405162461bcd60e51b81526004016108b99190613b69565b506004546001600160a01b031661109f5760405162461bcd60e51b815260206004820152601d60248201527f436f6d6d756e6974792072657365727665206d7573742062652073657400000060448201526064016108b9565b60058290556040518281527f1a8542dffa4956932e66916113e6a123e123956172fbc0e2e59df92b8a87d8e690602001610a45565b6000336001600160a01b037f00000000000000000000000000000000000000000000000000000000000000001614806111b557507f0000000000000000000000000000000000000000000000000000000000000000604051632474521560e21b815269676f7665726e616e636560b01b60048201523360248201526001600160a01b0391909116906391d148549060440160206040518083038186803b15801561117d57600080fd5b505afa158015611191573d6000803e3d6000fd5b505050506040513d601f19601f820116820180604052508101906111b59190613c7f565b604051806040016040528060138152602001600080516020613ec2833981519152815250906111f75760405162461bcd60e51b81526004016108b99190613b69565b506000611202612964565b90508061121157600091505090565b6040518181527f3d5a341dc6a12221fcf31279cef3771f8fad757b2d9261f97605ccc17c2574249060200160405180910390a1919050565b60007f0000000000000000000000000000000000000000000000000000000000000000604051632474521560e21b815269676f7665726e616e636560b01b60048201523360248201526001600160a01b0391909116906391d148549060440160206040518083038186803b1580156112c057600080fd5b505afa1580156112d4573d6000803e3d6000fd5b505050506040513d601f19601f820116820180604052508101906112f89190613c7f565b604051806040016040528060138152602001600080516020613ec28339815191528152509061133a5760405162461bcd60e51b81526004016108b99190613b69565b50600e8290556040518281527fe6b4374e594cac6d717f89735f722a01c53affe6a4603ed44e09004666b7a6f390602001610a45565b60007f0000000000000000000000000000000000000000000000000000000000000000604051632474521560e21b815269676f7665726e616e636560b01b60048201523360248201526001600160a01b0391909116906391d148549060440160206040518083038186803b1580156113e757600080fd5b505afa1580156113fb573d6000803e3d6000fd5b505050506040513d601f19601f8201168201806040525081019061141f9190613c7f565b604051806040016040528060138152602001600080516020613ec2833981519152815250906114615760405162461bcd60e51b81526004016108b99190613b69565b50600f8290556040518281527f8b8ad8032596ef90599a67881aed48dba49c88dd982cd479440bfcee796dcf8b90602001610a45565b60006114d56114a4612a8d565b6114c66114af612b28565b6114b7612b59565b6114c19190613d21565b612b8a565b6114d09190613d21565b612cab565b6114dd612d4e565b6107c39190613d21565b60606107c36001612d7f565b60007f0000000000000000000000000000000000000000000000000000000000000000604051632474521560e21b815269676f7665726e616e636560b01b60048201523360248201526001600160a01b0391909116906391d148549060440160206040518083038186803b15801561156a57600080fd5b505afa15801561157e573d6000803e3d6000fd5b505050506040513d601f19601f820116820180604052508101906115a29190613c7f565b604051806040016040528060138152602001600080516020613ec2833981519152815250906115e45760405162461bcd60e51b81526004016108b99190613b69565b50600480546001600160a01b0319166001600160a01b0384169081179091556040519081527f17d7ba6682f162782054b119192f8e5b98fe7090b4bec7a55fc7075d9cd859ee90602001610a45565b600080546040805180820190915260138152600080516020613ec28339815191526020820152906001600160a01b031633146116825760405162461bcd60e51b81526004016108b99190613b69565b50600080546001600160a01b0319166001600160a01b0384169081179091556040519081527f46d58e3fa07bf19b1d27240f0e286b27e9f7c1b0d88933333fe833b60eec541290602001610a45565b6040805180820190915260138152600080516020613ec28339815191526020820152600090336001600160a01b037f0000000000000000000000000000000000000000000000000000000000000000161461173f5760405162461bcd60e51b81526004016108b99190613b69565b5060035460408051808201909152601581527429ba3930ba32b3bc9034b99039b43aba103237bbb760591b602082015290600160a01b900460ff16156117985760405162461bcd60e51b81526004016108b99190613b69565b506117a1612e26565b6117ab5750600090565b6040517fed21248cb703b524cc0029bb8669df941baca560163a3bc6ad184e7e9c26807090600090a150600190565b6009546040516246613160e11b81523060048201526000916001600160a01b03169082908290628cc2629060240160206040518083038186803b15801561182057600080fd5b505afa158015611834573d6000803e3d6000fd5b505050506040513d601f19601f820116820180604052508101906118589190613c9a565b9050806118685760009250505090565b60006118af734e3fbd56cd56c3e72c1403e103b45db9da5b9d2b6118aa600654670de0b6b3a764000061189b9190613ceb565b6118a486610b17565b906130a8565b6130c7565b6118e773d533a949740bb3306d119cc777fa900ba034cd526118aa600554670de0b6b3a76400006118e09190613ceb565b86906130a8565b6118f19190613d21565b905060005b6119006001613175565b811015611aba57604051632061aa2360e11b8152600481018290526000906001600160a01b038616906340c354469060240160206040518083038186803b15801561194a57600080fd5b505afa15801561195e573d6000803e3d6000fd5b505050506040513d601f19601f820116820180604052508101906119829190613d39565b90506000816001600160a01b031663f7c618c16040518163ffffffff1660e01b815260040160206040518083038186803b1580156119bf57600080fd5b505afa1580156119d3573d6000803e3d6000fd5b505050506040513d601f19601f820116820180604052508101906119f79190613d39565b6001600160a01b038116600090815260026020526040902054909150611a1e575050611aa8565b6040516246613160e11b8152306004820152611a999082906001600160a01b03851690628cc2629060240160206040518083038186803b158015611a6157600080fd5b505afa158015611a75573d6000803e3d6000fd5b505050506040513d601f19601f820116820180604052508101906118aa9190613c9a565b611aa39085613d21565b935050505b80611ab281613d56565b9150506118f6565b509392505050565b7f0000000000000000000000000000000000000000000000000000000000000000604051632474521560e21b815269676f7665726e616e636560b01b60048201523360248201526001600160a01b0391909116906391d148549060440160206040518083038186803b158015611b3757600080fd5b505afa158015611b4b573d6000803e3d6000fd5b505050506040513d601f19601f82011682018060405250810190611b6f9190613c7f565b604051806040016040528060138152602001600080516020613ec283398151915281525090611bb15760405162461bcd60e51b81526004016108b99190613b69565b50611bbb8261317f565b611bc361269a565b50611bcc61320e565b600c839055600d819055604051631526fe2760e01b815260048101849052600090819073f403c135812408bfbe8713b5a23a04b3d48aae3190631526fe279060240160c06040518083038186803b158015611c2657600080fd5b505afa158015611c3a573d6000803e3d6000fd5b505050506040513d601f19601f82011682018060405250810190611c5e9190613d71565b5050600a80546001600160a01b038087166001600160a01b03199283161790925560098054838516908316179055600b80548b841692169190911790559395509350611cd2927f000000000000000000000000000000000000000000000000000000000000000016915086905060006121fc565b611d086001600160a01b037f000000000000000000000000000000000000000000000000000000000000000016856000196121fc565b611d316001600160a01b03831673f403c135812408bfbe8713b5a23a04b3d48aae3160006121fc565b611d5b6001600160a01b03831673f403c135812408bfbe8713b5a23a04b3d48aae316000196121fc565b611d63612e26565b6040518060400160405280600e81526020016d19195c1bdcda5d0819985a5b195960921b81525090611da85760405162461bcd60e51b81526004016108b99190613b69565b505050505050565b60007f0000000000000000000000000000000000000000000000000000000000000000604051632474521560e21b815269676f7665726e616e636560b01b60048201523360248201526001600160a01b0391909116906391d148549060440160206040518083038186803b158015611e2757600080fd5b505afa158015611e3b573d6000803e3d6000fd5b505050506040513d601f19601f82011682018060405250810190611e5f9190613c7f565b604051806040016040528060138152602001600080516020613ec283398151915281525090611ea15760405162461bcd60e51b81526004016108b99190613b69565b5060088290556040518281527fb2861fed34a4613f8f25f46553a23408a3364ee9ddc4ef6714f0a81d856e41a790602001610a45565b60007f0000000000000000000000000000000000000000000000000000000000000000604051632474521560e21b815269676f7665726e616e636560b01b60048201523360248201526001600160a01b0391909116906391d148549060440160206040518083038186803b158015611f4e57600080fd5b505afa158015611f62573d6000803e3d6000fd5b505050506040513d601f19601f82011682018060405250810190611f869190613c7f565b604051806040016040528060138152602001600080516020613ec283398151915281525090611fc85760405162461bcd60e51b81526004016108b99190613b69565b5060408051808201909152600e81526d1a5b9d985b1a5908185b5bdd5b9d60921b6020820152670de0b6b3a76400008311156120175760405162461bcd60e51b81526004016108b99190613b69565b506004546001600160a01b03166120705760405162461bcd60e51b815260206004820152601d60248201527f436f6d6d756e6974792072657365727665206d7573742062652073657400000060448201526064016108b9565b60068290556040518281527f2c3c7d70a1dfbfaf74447753b8a73e1323aa10b32b9209742db563671e14b13c90602001610a45565b6040805180820190915260138152600080516020613ec28339815191526020820152600090336001600160a01b037f000000000000000000000000000000000000000000000000000000000000000016146121135760405162461bcd60e51b81526004016108b99190613b69565b50600354600160a01b900460ff161561212c5750600090565b6003805460ff60a01b1916600160a01b1790556040517f4426aa1fb73e391071491fcfe21a88b5c38a0a0333a1f6e77161470439704cf890600090a150600190565b6040516321f8a72160e01b81526a3937b632a6b0b730b3b2b960a91b60048201526000906001600160a01b038316906321f8a7219060240160206040518083038186803b1580156121be57600080fd5b505afa1580156121d2573d6000803e3d6000fd5b505050506040513d601f19601f820116820180604052508101906121f69190613d39565b92915050565b8015806122855750604051636eb1769f60e11b81523060048201526001600160a01b03838116602483015284169063dd62ed3e9060440160206040518083038186803b15801561224b57600080fd5b505afa15801561225f573d6000803e3d6000fd5b505050506040513d601f19601f820116820180604052508101906122839190613c9a565b155b6122f05760405162461bcd60e51b815260206004820152603660248201527f5361666545524332303a20617070726f76652066726f6d206e6f6e2d7a65726f60448201527520746f206e6f6e2d7a65726f20616c6c6f77616e636560501b60648201526084016108b9565b6040516001600160a01b03831660248201526044810182905261235390849063095ea7b360e01b906064015b60408051601f198184030181529190526020810180516001600160e01b03166001600160e01b031990931692909217909152613339565b505050565b6060612367848460008561340b565b90505b9392505050565b600061236a836001600160a01b03841661353c565b600080612391612d4e565b905082811061240d576003546123d1906001600160a01b03167f00000000000000000000000000000000000000000000000000000000000000008561358b565b6040518381527f5b6b431d4476a211bb7d41c20d1aab9ae2321deee0d20be3d9fc9b1093fa6e3d9060200160405180910390a150600192915050565b60006124198285613ceb565b90506000612426826135bb565b90506000612432612a8d565b61243c9083613ceb565b90506000612449826135df565b90506000612455612b28565b61245f9083613ceb565b600954604051636197390160e11b815260048101839052600060248201529192506001600160a01b03169063c32e720290604401602060405180830381600087803b1580156124ad57600080fd5b505af11580156124c1573d6000803e3d6000fd5b505050506040513d601f19601f820116820180604052508101906124e59190613c7f565b6124f757506000979650505050505050565b6124ff613afd565b8381600d546002811061251457612514613df3565b6020020152600b5460405163e310327360e01b81526001600160a01b039091169063e31032739061254b9084908790600401613e09565b600060405180830381600087803b15801561256557600080fd5b505af1158015612579573d6000803e3d6000fd5b50505050612585613b1b565b86817f0000000000000000000000000000000000000000000000000000000000000000600381106125b8576125b8613df3565b60200201526040516327f6ba8360e21b81526001600160a01b037f00000000000000000000000000000000000000000000000000000000000000001690639fdaea0c9061260b9084908a90600401613e41565b600060405180830381600087803b15801561262557600080fd5b505af1158015612639573d6000803e3d6000fd5b505060035461267592506001600160a01b031690507f00000000000000000000000000000000000000000000000000000000000000008c61358b565b5060019998505050505050505050565b600061236a836001600160a01b038416613603565b6000806126a5612d4e565b9050600960009054906101000a90046001600160a01b03166001600160a01b0316633d18b9126040518163ffffffff1660e01b8152600401600060405180830381600087803b1580156126f757600080fd5b505af115801561270b573d6000803e3d6000fd5b505050506127176136f6565b6040516304a453a360e31b8152734e3fbd56cd56c3e72c1403e103b45db9da5b9d2b60048201527f0000000000000000000000000000000000000000000000000000000000000000906001600160a01b038216906325229d1890602401600060405180830381600087803b15801561278e57600080fd5b505af11580156127a2573d6000803e3d6000fd5b50506040516304a453a360e31b815273d533a949740bb3306d119cc777fa900ba034cd5260048201526001600160a01b03841692506325229d189150602401600060405180830381600087803b1580156127fb57600080fd5b505af115801561280f573d6000803e3d6000fd5b5050505060005b6128206001613175565b8110156128ad576001600160a01b0382166325229d18612841600184613871565b6040516001600160e01b031960e084901b1681526001600160a01b039091166004820152602401600060405180830381600087803b15801561288257600080fd5b505af1158015612896573d6000803e3d6000fd5b5050505080806128a590613d56565b915050612816565b50600354604051635cc8767b60e11b81526001600160a01b0391821660048201529082169063b990ecf690602401600060405180830381600087803b1580156128f557600080fd5b505af1158015612909573d6000803e3d6000fd5b50505050600082612918612d4e565b6129229190613ceb565b90507f80f97f878e16410266694f134ddf012f2be424f54f8b5cafa107eccc51d00d588160405161295591815260200190565b60405180910390a19392505050565b600061296e61320e565b6000612978612a8d565b90508015612a3c577f00000000000000000000000000000000000000000000000000000000000000006001600160a01b0316631a4d01d2827f00000000000000000000000000000000000000000000000000000000000000006129da8561387d565b6040516001600160e01b031960e086901b1681526004810193909352600f9190910b60248301526044820152606401600060405180830381600087803b158015612a2357600080fd5b505af1158015612a37573d6000803e3d6000fd5b505050505b6000612a46612d4e565b905080612a565760009250505090565b6003546121f6906001600160a01b03167f00000000000000000000000000000000000000000000000000000000000000008361358b565b6040516370a0823160e01b81523060048201526000907f00000000000000000000000000000000000000000000000000000000000000006001600160a01b0316906370a08231906024015b60206040518083038186803b158015612af057600080fd5b505afa158015612b04573d6000803e3d6000fd5b505050506040513d601f19601f820116820180604052508101906107c39190613c9a565b600a546040516370a0823160e01b81523060048201526000916001600160a01b0316906370a0823190602401612ad8565b6009546040516370a0823160e01b81523060048201526000916001600160a01b0316906370a0823190602401612ad8565b60006121f67f00000000000000000000000000000000000000000000000000000000000000006001600160a01b031663bb7b8b806040518163ffffffff1660e01b815260040160206040518083038186803b158015612be857600080fd5b505afa158015612bfc573d6000803e3d6000fd5b505050506040513d601f19601f82011682018060405250810190612c209190613c9a565b600b5460408051630176f71760e71b81529051612ca5926001600160a01b03169163bb7b8b80916004808301926020929190829003018186803b158015612c6657600080fd5b505afa158015612c7a573d6000803e3d6000fd5b505050506040513d601f19601f82011682018060405250810190612c9e9190613c9a565b85906130a8565b906138a1565b60006121f67f00000000000000000000000000000000000000000000000000000000000000006001600160a01b031663bb7b8b806040518163ffffffff1660e01b815260040160206040518083038186803b158015612d0957600080fd5b505afa158015612d1d573d6000803e3d6000fd5b505050506040513d601f19601f82011682018060405250810190612d419190613c9a565b6010546118a49085613cc9565b6003546040516370a0823160e01b81523060048201526000916001600160a01b0316906370a0823190602401612ad8565b60606000612d8c83613175565b905060008167ffffffffffffffff811115612da957612da9613e79565b604051908082528060200260200182016040528015612dd2578160200160208202803683370190505b50905060005b82811015611aba57612dea8582613871565b828281518110612dfc57612dfc613df3565b6001600160a01b039092166020928302919091019091015280612e1e81613d56565b915050612dd8565b604080518082019091526011815270696e76616c6964206d73672e76616c756560781b60208201526000903415612e705760405162461bcd60e51b81526004016108b99190613b69565b506000612e7b612d4e565b90508015612f4d57612e8b613b1b565b81817f000000000000000000000000000000000000000000000000000000000000000060038110612ebe57612ebe613df3565b60200201526001600160a01b037f000000000000000000000000000000000000000000000000000000000000000016634515cef382612efc856138b6565b6040518363ffffffff1660e01b8152600401612f19929190613e41565b600060405180830381600087803b158015612f3357600080fd5b505af1158015612f47573d6000803e3d6000fd5b50505050505b6000612f57612a8d565b90508015612fed57612f67613afd565b8181600d5460028110612f7c57612f7c613df3565b6020020152600b546001600160a01b0316630b4c7e4d82612f9c856138d1565b6040518363ffffffff1660e01b8152600401612fb9929190613e09565b600060405180830381600087803b158015612fd357600080fd5b505af1158015612fe7573d6000803e3d6000fd5b50505050505b612ff5612b28565b6130025760009250505090565b600c5460405163303acfe760e11b815260048101919091526001602482015273f403c135812408bfbe8713b5a23a04b3d48aae31906360759fce90604401602060405180830381600087803b15801561305a57600080fd5b505af115801561306e573d6000803e3d6000fd5b505050506040513d601f19601f820116820180604052508101906130929190613c7f565b61309f5760009250505090565b60019250505090565b6000670de0b6b3a76400006130bd8385613d02565b61236a9190613cc9565b6003546040516321cce12f60e01b81526001600160a01b0384811660048301529182166024820152604481018390526000917f000000000000000000000000000000000000000000000000000000000000000016906321cce12f9060640160206040518083038186803b15801561313d57600080fd5b505afa158015613151573d6000803e3d6000fd5b505050506040513d601f19601f8201168201806040525081019061236a9190613c9a565b60006121f6825490565b6040516355b30b1960e01b81526001600160a01b03821660048201527390e00ace148ca3b23ac1bc8c240c2a7dd9c2d7f5906355b30b199060240160206040518083038186803b1580156131d257600080fd5b505afa1580156131e6573d6000803e3d6000fd5b505050506040513d601f19601f8201168201806040525081019061320a9190613c9a565b5050565b6000613218612b59565b905080156132a757600954604051636197390160e11b815260048101839052600060248201526001600160a01b039091169063c32e720290604401602060405180830381600087803b15801561326d57600080fd5b505af1158015613281573d6000803e3d6000fd5b505050506040513d601f19601f820116820180604052508101906132a59190613c7f565b505b60006132b1612b28565b9050801561320a57600b54600d546001600160a01b0390911690631a4d01d29083906132dc826138ec565b6040516001600160e01b031960e086901b1681526004810193909352600f9190910b60248301526044820152606401600060405180830381600087803b15801561332557600080fd5b505af1158015611da8573d6000803e3d6000fd5b600061338e826040518060400160405280602081526020017f5361666545524332303a206c6f772d6c6576656c2063616c6c206661696c6564815250856001600160a01b03166123589092919063ffffffff16565b80519091501561235357808060200190518101906133ac9190613c7f565b6123535760405162461bcd60e51b815260206004820152602a60248201527f5361666545524332303a204552433230206f7065726174696f6e20646964206e6044820152691bdd081cdd58d8d9595960b21b60648201526084016108b9565b60608247101561346c5760405162461bcd60e51b815260206004820152602660248201527f416464726573733a20696e73756666696369656e742062616c616e636520666f6044820152651c8818d85b1b60d21b60648201526084016108b9565b6001600160a01b0385163b6134c35760405162461bcd60e51b815260206004820152601d60248201527f416464726573733a2063616c6c20746f206e6f6e2d636f6e747261637400000060448201526064016108b9565b600080866001600160a01b031685876040516134df9190613e8f565b60006040518083038185875af1925050503d806000811461351c576040519150601f19603f3d011682016040523d82523d6000602084013e613521565b606091505b5091509150613531828286613910565b979650505050505050565b6000818152600183016020526040812054613583575081546001818101845560008481526020808220909301849055845484825282860190935260409020919091556121f6565b5060006121f6565b6040516001600160a01b03831660248201526044810182905261235390849063a9059cbb60e01b9060640161231c565b60006121f6600f54670de0b6b3a76400006135d69190613d21565b6118a484613949565b60006121f6600854670de0b6b3a76400006135fa9190613d21565b6118a4846139ec565b600081815260018301602052604081205480156136ec576000613627600183613ceb565b855490915060009061363b90600190613ceb565b90508181146136a057600086600001828154811061365b5761365b613df3565b906000526020600020015490508087600001848154811061367e5761367e613df3565b6000918252602080832090910192909255918252600188019052604090208390555b85548690806136b1576136b1613eab565b6001900381819060005260206000200160009055905585600101600086815260200190815260200160002060009055600193505050506121f6565b60009150506121f6565b6004546001600160a01b03168061370a5750565b60065480156137c4576040516370a0823160e01b8152306004820152734e3fbd56cd56c3e72c1403e103b45db9da5b9d2b9060009082906370a082319060240160206040518083038186803b15801561376257600080fd5b505afa158015613776573d6000803e3d6000fd5b505050506040513d601f19601f8201168201806040525081019061379a9190613c9a565b905080156137c1576137c1846137b083866130a8565b6001600160a01b038516919061358b565b50505b6005548015612353576040516370a0823160e01b815230600482015273d533a949740bb3306d119cc777fa900ba034cd529060009082906370a082319060240160206040518083038186803b15801561381c57600080fd5b505afa158015613830573d6000803e3d6000fd5b505050506040513d601f19601f820116820180604052508101906138549190613c9a565b9050801561386a5761386a856137b083866130a8565b5050505050565b600061236a8383613ad3565b60006121f6600f54670de0b6b3a76400006138989190613ceb565b6118a484612cab565b6000816130bd670de0b6b3a764000085613d02565b60006121f6600e54670de0b6b3a76400006135d69190613ceb565b60006121f6600754670de0b6b3a76400006135fa9190613ceb565b60006121f6600854670de0b6b3a76400006139079190613ceb565b6118a484612b8a565b6060831561391f57508161236a565b82511561392f5782518084602001fd5b8160405162461bcd60e51b81526004016108b99190613b69565b60006121f67f00000000000000000000000000000000000000000000000000000000000000006001600160a01b031663bb7b8b806040518163ffffffff1660e01b815260040160206040518083038186803b1580156139a757600080fd5b505afa1580156139bb573d6000803e3d6000fd5b505050506040513d601f19601f820116820180604052508101906139df9190613c9a565b601054612ca59085613d02565b60006121f6600b60009054906101000a90046001600160a01b03166001600160a01b031663bb7b8b806040518163ffffffff1660e01b815260040160206040518083038186803b158015613a3f57600080fd5b505afa158015613a53573d6000803e3d6000fd5b505050506040513d601f19601f82011682018060405250810190613a779190613c9a565b612ca57f00000000000000000000000000000000000000000000000000000000000000006001600160a01b031663bb7b8b806040518163ffffffff1660e01b815260040160206040518083038186803b158015612c6657600080fd5b6000826000018281548110613aea57613aea613df3565b9060005260206000200154905092915050565b60405180604001604052806002906020820280368337509192915050565b60405180606001604052806003906020820280368337509192915050565b60005b83811015613b54578181015183820152602001613b3c565b83811115613b63576000848401525b50505050565b6020815260008251806020840152613b88816040850160208701613b39565b601f01601f19169190910160400192915050565b6001600160a01b0381168114613bb157600080fd5b50565b600060208284031215613bc657600080fd5b813561236a81613b9c565b600060208284031215613be357600080fd5b5035919050565b6020808252825182820181905260009190848201906040850190845b81811015613c2b5783516001600160a01b031683529284019291840191600101613c06565b50909695505050505050565b600080600060608486031215613c4c57600080fd5b833592506020840135613c5e81613b9c565b929592945050506040919091013590565b80518015158114610a5157600080fd5b600060208284031215613c9157600080fd5b61236a82613c6f565b600060208284031215613cac57600080fd5b5051919050565b634e487b7160e01b600052601160045260246000fd5b600082613ce657634e487b7160e01b600052601260045260246000fd5b500490565b600082821015613cfd57613cfd613cb3565b500390565b6000816000190483118215151615613d1c57613d1c613cb3565b500290565b60008219821115613d3457613d34613cb3565b500190565b600060208284031215613d4b57600080fd5b815161236a81613b9c565b6000600019821415613d6a57613d6a613cb3565b5060010190565b60008060008060008060c08789031215613d8a57600080fd5b8651613d9581613b9c565b6020880151909650613da681613b9c565b6040880151909550613db781613b9c565b6060880151909450613dc881613b9c565b6080880151909350613dd981613b9c565b9150613de760a08801613c6f565b90509295509295509295565b634e487b7160e01b600052603260045260246000fd5b60608101818460005b6002811015613e31578151835260209283019290910190600101613e12565b5050508260408301529392505050565b60808101818460005b6003811015613e69578151835260209283019290910190600101613e4a565b5050508260608301529392505050565b634e487b7160e01b600052604160045260246000fd5b60008251613ea1818460208701613b39565b9190910192915050565b634e487b7160e01b600052603160045260246000fdfe756e617574686f72697a65642061636365737300000000000000000000000000a2646970667358221220cbfba582c5303817f2bbd20f4ebe3c0517c344fcf0c08c19eba81d59ac14944864736f6c63430008090033",
  "linkReferences": {},
  "deployedLinkReferences": {}
}