{
  "_format": "hh-sol-artifact-1",
  "contractName": "Pool",
  "sourceName": "contracts/Pool/Pool.sol",
  "abi": [
    {
      "anonymous": false,
      "inputs": [
        {
          "indexed": false,
          "internalType": "uint256",
          "name": "amount",
          "type": "uint256"
        },
        {
          "indexed": false,
          "internalType": "uint256",
          "name": "protocolFee",
          "type": "uint256"
        }
      ],
      "name": "AmountBorrowed",
      "type": "event"
    },
    {
      "anonymous": false,
      "inputs": [
        {
          "indexed": true,
          "internalType": "address",
          "name": "owner",
          "type": "address"
        },
        {
          "indexed": true,
          "internalType": "address",
          "name": "spender",
          "type": "address"
        },
        {
          "indexed": false,
          "internalType": "uint256",
          "name": "value",
          "type": "uint256"
        }
      ],
      "name": "Approval",
      "type": "event"
    },
    {
      "anonymous": false,
      "inputs": [
        {
          "indexed": true,
          "internalType": "address",
          "name": "borrower",
          "type": "address"
        },
        {
          "indexed": false,
          "internalType": "uint256",
          "name": "amount",
          "type": "uint256"
        },
        {
          "indexed": false,
          "internalType": "uint256",
          "name": "sharesReceived",
          "type": "uint256"
        }
      ],
      "name": "CollateralAdded",
      "type": "event"
    },
    {
      "anonymous": false,
      "inputs": [
        {
          "indexed": true,
          "internalType": "address",
          "name": "borrower",
          "type": "address"
        },
        {
          "indexed": false,
          "internalType": "uint256",
          "name": "amount",
          "type": "uint256"
        }
      ],
      "name": "CollateralWithdrawn",
      "type": "event"
    },
    {
      "anonymous": false,
      "inputs": [
        {
          "indexed": true,
          "internalType": "address",
          "name": "liquidator",
          "type": "address"
        },
        {
          "indexed": true,
          "internalType": "address",
          "name": "lender",
          "type": "address"
        },
        {
          "indexed": false,
          "internalType": "uint256",
          "name": "_tokenReceived",
          "type": "uint256"
        }
      ],
      "name": "LenderLiquidated",
      "type": "event"
    },
    {
      "anonymous": false,
      "inputs": [
        {
          "indexed": false,
          "internalType": "uint256",
          "name": "amountSupplied",
          "type": "uint256"
        },
        {
          "indexed": true,
          "internalType": "address",
          "name": "lenderAddress",
          "type": "address"
        }
      ],
      "name": "LiquiditySupplied",
      "type": "event"
    },
    {
      "anonymous": false,
      "inputs": [
        {
          "indexed": false,
          "internalType": "uint256",
          "name": "amount",
          "type": "uint256"
        },
        {
          "indexed": true,
          "internalType": "address",
          "name": "lenderAddress",
          "type": "address"
        }
      ],
      "name": "LiquidityWithdrawn",
      "type": "event"
    },
    {
      "anonymous": false,
      "inputs": [
        {
          "indexed": true,
          "internalType": "address",
          "name": "borrower",
          "type": "address"
        },
        {
          "indexed": true,
          "internalType": "address",
          "name": "lender",
          "type": "address"
        },
        {
          "indexed": false,
          "internalType": "uint256",
          "name": "amount",
          "type": "uint256"
        },
        {
          "indexed": false,
          "internalType": "uint256",
          "name": "sharesReceived",
          "type": "uint256"
        }
      ],
      "name": "MarginCallCollateralAdded",
      "type": "event"
    },
    {
      "anonymous": false,
      "inputs": [
        {
          "indexed": true,
          "internalType": "address",
          "name": "lenderAddress",
          "type": "address"
        }
      ],
      "name": "MarginCalled",
      "type": "event"
    },
    {
      "anonymous": false,
      "inputs": [
        {
          "indexed": false,
          "internalType": "address",
          "name": "account",
          "type": "address"
        }
      ],
      "name": "Paused",
      "type": "event"
    },
    {
      "anonymous": false,
      "inputs": [],
      "name": "PoolCancelled",
      "type": "event"
    },
    {
      "anonymous": false,
      "inputs": [],
      "name": "PoolClosed",
      "type": "event"
    },
    {
      "anonymous": false,
      "inputs": [
        {
          "indexed": true,
          "internalType": "address",
          "name": "liquidator",
          "type": "address"
        }
      ],
      "name": "PoolLiquidated",
      "type": "event"
    },
    {
      "anonymous": false,
      "inputs": [],
      "name": "PoolTerminated",
      "type": "event"
    },
    {
      "anonymous": false,
      "inputs": [
        {
          "indexed": true,
          "internalType": "address",
          "name": "from",
          "type": "address"
        },
        {
          "indexed": true,
          "internalType": "address",
          "name": "to",
          "type": "address"
        },
        {
          "indexed": false,
          "internalType": "uint256",
          "name": "value",
          "type": "uint256"
        }
      ],
      "name": "Transfer",
      "type": "event"
    },
    {
      "anonymous": false,
      "inputs": [
        {
          "indexed": false,
          "internalType": "address",
          "name": "account",
          "type": "address"
        }
      ],
      "name": "Unpaused",
      "type": "event"
    },
    {
      "inputs": [
        {
          "internalType": "address",
          "name": "_lender",
          "type": "address"
        },
        {
          "internalType": "uint256",
          "name": "_amount",
          "type": "uint256"
        },
        {
          "internalType": "bool",
          "name": "_transferFromSavingsAccount",
          "type": "bool"
        }
      ],
      "name": "addCollateralInMarginCall",
      "outputs": [],
      "stateMutability": "payable",
      "type": "function"
    },
    {
      "inputs": [
        {
          "internalType": "address",
          "name": "owner",
          "type": "address"
        },
        {
          "internalType": "address",
          "name": "spender",
          "type": "address"
        }
      ],
      "name": "allowance",
      "outputs": [
        {
          "internalType": "uint256",
          "name": "",
          "type": "uint256"
        }
      ],
      "stateMutability": "view",
      "type": "function"
    },
    {
      "inputs": [
        {
          "internalType": "address",
          "name": "spender",
          "type": "address"
        },
        {
          "internalType": "uint256",
          "name": "amount",
          "type": "uint256"
        }
      ],
      "name": "approve",
      "outputs": [
        {
          "internalType": "bool",
          "name": "",
          "type": "bool"
        }
      ],
      "stateMutability": "nonpayable",
      "type": "function"
    },
    {
      "inputs": [
        {
          "internalType": "address",
          "name": "account",
          "type": "address"
        }
      ],
      "name": "balanceOf",
      "outputs": [
        {
          "internalType": "uint256",
          "name": "",
          "type": "uint256"
        }
      ],
      "stateMutability": "view",
      "type": "function"
    },
    {
      "inputs": [],
      "name": "borrower",
      "outputs": [
        {
          "internalType": "address",
          "name": "",
          "type": "address"
        }
      ],
      "stateMutability": "view",
      "type": "function"
    },
    {
      "inputs": [
        {
          "internalType": "uint256",
          "name": "_balance",
          "type": "uint256"
        },
        {
          "internalType": "uint256",
          "name": "_liquidityShares",
          "type": "uint256"
        }
      ],
      "name": "calculateCollateralRatio",
      "outputs": [
        {
          "internalType": "uint256",
          "name": "_ratio",
          "type": "uint256"
        }
      ],
      "stateMutability": "nonpayable",
      "type": "function"
    },
    {
      "inputs": [],
      "name": "calculateCurrentPeriod",
      "outputs": [
        {
          "internalType": "uint256",
          "name": "",
          "type": "uint256"
        }
      ],
      "stateMutability": "view",
      "type": "function"
    },
    {
      "inputs": [
        {
          "internalType": "address",
          "name": "_lender",
          "type": "address"
        }
      ],
      "name": "calculateRepaymentWithdrawable",
      "outputs": [
        {
          "internalType": "uint256",
          "name": "",
          "type": "uint256"
        }
      ],
      "stateMutability": "view",
      "type": "function"
    },
    {
      "inputs": [],
      "name": "cancelPool",
      "outputs": [],
      "stateMutability": "nonpayable",
      "type": "function"
    },
    {
      "inputs": [],
      "name": "closeLoan",
      "outputs": [],
      "stateMutability": "payable",
      "type": "function"
    },
    {
      "inputs": [
        {
          "internalType": "uint256",
          "name": "_totalCollateralTokens",
          "type": "uint256"
        },
        {
          "internalType": "address",
          "name": "_priceOracle",
          "type": "address"
        },
        {
          "internalType": "uint256",
          "name": "_fraction",
          "type": "uint256"
        }
      ],
      "name": "correspondingBorrowTokens",
      "outputs": [
        {
          "internalType": "uint256",
          "name": "",
          "type": "uint256"
        }
      ],
      "stateMutability": "view",
      "type": "function"
    },
    {
      "inputs": [],
      "name": "decimals",
      "outputs": [
        {
          "internalType": "uint8",
          "name": "",
          "type": "uint8"
        }
      ],
      "stateMutability": "view",
      "type": "function"
    },
    {
      "inputs": [
        {
          "internalType": "address",
          "name": "spender",
          "type": "address"
        },
        {
          "internalType": "uint256",
          "name": "subtractedValue",
          "type": "uint256"
        }
      ],
      "name": "decreaseAllowance",
      "outputs": [
        {
          "internalType": "bool",
          "name": "",
          "type": "bool"
        }
      ],
      "stateMutability": "nonpayable",
      "type": "function"
    },
    {
      "inputs": [
        {
          "internalType": "uint256",
          "name": "_amount",
          "type": "uint256"
        },
        {
          "internalType": "bool",
          "name": "_transferFromSavingsAccount",
          "type": "bool"
        }
      ],
      "name": "depositCollateral",
      "outputs": [],
      "stateMutability": "payable",
      "type": "function"
    },
    {
      "inputs": [
        {
          "internalType": "address",
          "name": "_lender",
          "type": "address"
        }
      ],
      "name": "getBalanceDetails",
      "outputs": [
        {
          "internalType": "uint256",
          "name": "",
          "type": "uint256"
        },
        {
          "internalType": "uint256",
          "name": "",
          "type": "uint256"
        }
      ],
      "stateMutability": "view",
      "type": "function"
    },
    {
      "inputs": [
        {
          "internalType": "address",
          "name": "_lender",
          "type": "address"
        }
      ],
      "name": "getCurrentCollateralRatio",
      "outputs": [
        {
          "internalType": "uint256",
          "name": "_ratio",
          "type": "uint256"
        }
      ],
      "stateMutability": "nonpayable",
      "type": "function"
    },
    {
      "inputs": [],
      "name": "getCurrentCollateralRatio",
      "outputs": [
        {
          "internalType": "uint256",
          "name": "_ratio",
          "type": "uint256"
        }
      ],
      "stateMutability": "nonpayable",
      "type": "function"
    },
    {
      "inputs": [
        {
          "internalType": "address",
          "name": "_source",
          "type": "address"
        },
        {
          "internalType": "address",
          "name": "_target",
          "type": "address"
        },
        {
          "internalType": "uint256",
          "name": "_amount",
          "type": "uint256"
        }
      ],
      "name": "getEquivalentTokens",
      "outputs": [
        {
          "internalType": "uint256",
          "name": "",
          "type": "uint256"
        }
      ],
      "stateMutability": "view",
      "type": "function"
    },
    {
      "inputs": [],
      "name": "getLoanStatus",
      "outputs": [
        {
          "internalType": "uint256",
          "name": "",
          "type": "uint256"
        }
      ],
      "stateMutability": "view",
      "type": "function"
    },
    {
      "inputs": [
        {
          "internalType": "address",
          "name": "_lender",
          "type": "address"
        }
      ],
      "name": "getMarginCallEndTime",
      "outputs": [
        {
          "internalType": "uint256",
          "name": "",
          "type": "uint256"
        }
      ],
      "stateMutability": "view",
      "type": "function"
    },
    {
      "inputs": [
        {
          "internalType": "address",
          "name": "spender",
          "type": "address"
        },
        {
          "internalType": "uint256",
          "name": "addedValue",
          "type": "uint256"
        }
      ],
      "name": "increaseAllowance",
      "outputs": [
        {
          "internalType": "bool",
          "name": "",
          "type": "bool"
        }
      ],
      "stateMutability": "nonpayable",
      "type": "function"
    },
    {
      "inputs": [
        {
          "internalType": "uint256",
          "name": "_borrowAmountRequested",
          "type": "uint256"
        },
        {
          "internalType": "uint256",
          "name": "_borrowRate",
          "type": "uint256"
        },
        {
          "internalType": "address",
          "name": "_borrower",
          "type": "address"
        },
        {
          "internalType": "address",
          "name": "_borrowAsset",
          "type": "address"
        },
        {
          "internalType": "address",
          "name": "_collateralAsset",
          "type": "address"
        },
        {
          "internalType": "uint256",
          "name": "_idealCollateralRatio",
          "type": "uint256"
        },
        {
          "internalType": "uint256",
          "name": "_repaymentInterval",
          "type": "uint256"
        },
        {
          "internalType": "uint256",
          "name": "_noOfRepaymentIntervals",
          "type": "uint256"
        },
        {
          "internalType": "address",
          "name": "_poolSavingsStrategy",
          "type": "address"
        },
        {
          "internalType": "uint256",
          "name": "_collateralAmount",
          "type": "uint256"
        },
        {
          "internalType": "bool",
          "name": "_transferFromSavingsAccount",
          "type": "bool"
        },
        {
          "internalType": "address",
          "name": "_lenderVerifier",
          "type": "address"
        },
        {
          "internalType": "uint256",
          "name": "_loanWithdrawalDuration",
          "type": "uint256"
        },
        {
          "internalType": "uint256",
          "name": "_collectionPeriod",
          "type": "uint256"
        }
      ],
      "name": "initialize",
      "outputs": [],
      "stateMutability": "payable",
      "type": "function"
    },
    {
      "inputs": [
        {
          "internalType": "uint256",
          "name": "_balance",
          "type": "uint256"
        }
      ],
      "name": "interestPerPeriod",
      "outputs": [
        {
          "internalType": "uint256",
          "name": "",
          "type": "uint256"
        }
      ],
      "stateMutability": "view",
      "type": "function"
    },
    {
      "inputs": [
        {
          "internalType": "uint256",
          "name": "_principal",
          "type": "uint256"
        }
      ],
      "name": "interestPerSecond",
      "outputs": [
        {
          "internalType": "uint256",
          "name": "",
          "type": "uint256"
        }
      ],
      "stateMutability": "view",
      "type": "function"
    },
    {
      "inputs": [],
      "name": "interestToPay",
      "outputs": [
        {
          "internalType": "uint256",
          "name": "",
          "type": "uint256"
        }
      ],
      "stateMutability": "view",
      "type": "function"
    },
    {
      "inputs": [
        {
          "internalType": "address",
          "name": "_lender",
          "type": "address"
        },
        {
          "internalType": "uint256",
          "name": "_amount",
          "type": "uint256"
        },
        {
          "internalType": "address",
          "name": "_strategy",
          "type": "address"
        }
      ],
      "name": "lend",
      "outputs": [],
      "stateMutability": "payable",
      "type": "function"
    },
    {
      "inputs": [
        {
          "internalType": "address",
          "name": "",
          "type": "address"
        }
      ],
      "name": "lenders",
      "outputs": [
        {
          "internalType": "uint256",
          "name": "effectiveInterestWithdrawn",
          "type": "uint256"
        },
        {
          "internalType": "uint256",
          "name": "marginCallEndTime",
          "type": "uint256"
        },
        {
          "internalType": "uint256",
          "name": "extraLiquidityShares",
          "type": "uint256"
        }
      ],
      "stateMutability": "view",
      "type": "function"
    },
    {
      "inputs": [
        {
          "internalType": "bool",
          "name": "_toSavingsAccount",
          "type": "bool"
        },
        {
          "internalType": "bool",
          "name": "_receiveLiquidityShare",
          "type": "bool"
        }
      ],
      "name": "liquidateCancelPenalty",
      "outputs": [],
      "stateMutability": "nonpayable",
      "type": "function"
    },
    {
      "inputs": [
        {
          "internalType": "address",
          "name": "_lender",
          "type": "address"
        },
        {
          "internalType": "bool",
          "name": "_fromSavingsAccount",
          "type": "bool"
        },
        {
          "internalType": "bool",
          "name": "_toSavingsAccount",
          "type": "bool"
        },
        {
          "internalType": "bool",
          "name": "_recieveLiquidityShare",
          "type": "bool"
        }
      ],
      "name": "liquidateForLender",
      "outputs": [],
      "stateMutability": "payable",
      "type": "function"
    },
    {
      "inputs": [
        {
          "internalType": "bool",
          "name": "_fromSavingsAccount",
          "type": "bool"
        },
        {
          "internalType": "bool",
          "name": "_toSavingsAccount",
          "type": "bool"
        },
        {
          "internalType": "bool",
          "name": "_recieveLiquidityShare",
          "type": "bool"
        }
      ],
      "name": "liquidatePool",
      "outputs": [],
      "stateMutability": "payable",
      "type": "function"
    },
    {
      "inputs": [],
      "name": "name",
      "outputs": [
        {
          "internalType": "string",
          "name": "",
          "type": "string"
        }
      ],
      "stateMutability": "view",
      "type": "function"
    },
    {
      "inputs": [],
      "name": "paused",
      "outputs": [
        {
          "internalType": "bool",
          "name": "",
          "type": "bool"
        }
      ],
      "stateMutability": "view",
      "type": "function"
    },
    {
      "inputs": [],
      "name": "poolConstants",
      "outputs": [
        {
          "internalType": "address",
          "name": "borrower",
          "type": "address"
        },
        {
          "internalType": "uint256",
          "name": "borrowAmountRequested",
          "type": "uint256"
        },
        {
          "internalType": "uint256",
          "name": "loanStartTime",
          "type": "uint256"
        },
        {
          "internalType": "uint256",
          "name": "loanWithdrawalDeadline",
          "type": "uint256"
        },
        {
          "internalType": "address",
          "name": "borrowAsset",
          "type": "address"
        },
        {
          "internalType": "uint256",
          "name": "idealCollateralRatio",
          "type": "uint256"
        },
        {
          "internalType": "uint256",
          "name": "borrowRate",
          "type": "uint256"
        },
        {
          "internalType": "uint256",
          "name": "noOfRepaymentIntervals",
          "type": "uint256"
        },
        {
          "internalType": "uint256",
          "name": "repaymentInterval",
          "type": "uint256"
        },
        {
          "internalType": "address",
          "name": "collateralAsset",
          "type": "address"
        },
        {
          "internalType": "address",
          "name": "poolSavingsStrategy",
          "type": "address"
        },
        {
          "internalType": "address",
          "name": "lenderVerifier",
          "type": "address"
        }
      ],
      "stateMutability": "view",
      "type": "function"
    },
    {
      "inputs": [],
      "name": "poolVariables",
      "outputs": [
        {
          "internalType": "uint256",
          "name": "baseLiquidityShares",
          "type": "uint256"
        },
        {
          "internalType": "uint256",
          "name": "extraLiquidityShares",
          "type": "uint256"
        },
        {
          "internalType": "enum Pool.LoanStatus",
          "name": "loanStatus",
          "type": "uint8"
        },
        {
          "internalType": "uint256",
          "name": "penaltyLiquidityAmount",
          "type": "uint256"
        }
      ],
      "stateMutability": "view",
      "type": "function"
    },
    {
      "inputs": [],
      "name": "requestMarginCall",
      "outputs": [],
      "stateMutability": "nonpayable",
      "type": "function"
    },
    {
      "inputs": [],
      "name": "symbol",
      "outputs": [
        {
          "internalType": "string",
          "name": "",
          "type": "string"
        }
      ],
      "stateMutability": "view",
      "type": "function"
    },
    {
      "inputs": [],
      "name": "terminatePool",
      "outputs": [],
      "stateMutability": "nonpayable",
      "type": "function"
    },
    {
      "inputs": [],
      "name": "totalSupply",
      "outputs": [
        {
          "internalType": "uint256",
          "name": "",
          "type": "uint256"
        }
      ],
      "stateMutability": "view",
      "type": "function"
    },
    {
      "inputs": [
        {
          "internalType": "address",
          "name": "recipient",
          "type": "address"
        },
        {
          "internalType": "uint256",
          "name": "amount",
          "type": "uint256"
        }
      ],
      "name": "transfer",
      "outputs": [
        {
          "internalType": "bool",
          "name": "",
          "type": "bool"
        }
      ],
      "stateMutability": "nonpayable",
      "type": "function"
    },
    {
      "inputs": [
        {
          "internalType": "address",
          "name": "sender",
          "type": "address"
        },
        {
          "internalType": "address",
          "name": "recipient",
          "type": "address"
        },
        {
          "internalType": "uint256",
          "name": "amount",
          "type": "uint256"
        }
      ],
      "name": "transferFrom",
      "outputs": [
        {
          "internalType": "bool",
          "name": "",
          "type": "bool"
        }
      ],
      "stateMutability": "nonpayable",
      "type": "function"
    },
    {
      "inputs": [],
      "name": "withdrawBorrowedAmount",
      "outputs": [],
      "stateMutability": "nonpayable",
      "type": "function"
    },
    {
      "inputs": [],
      "name": "withdrawLiquidity",
      "outputs": [],
      "stateMutability": "nonpayable",
      "type": "function"
    },
    {
      "inputs": [],
      "name": "withdrawRepayment",
      "outputs": [],
      "stateMutability": "nonpayable",
      "type": "function"
    },
    {
      "stateMutability": "payable",
      "type": "receive"
    }
  ],
  "bytecode": "0x608060405234801561001057600080fd5b50600160c955615b1c80620000266000396000f3fe6080604052600436106102605760003560e01c80637489b45111610144578063b2c09233116100b6578063c94db32c1161007a578063c94db32c146109e6578063d2b93bfd14610a1a578063d820d4c914610a3f578063daf5539e14610a69578063dd62ed3e14610a9c578063e70d72d714610ad757610267565b8063b2c09233146108e0578063bda9e06b1461092c578063bde5ef3214610941578063c145fe691461097f578063c4a3702f146109b357610267565b80637ea382c1116101085780637ea382c11461081a57806395d89b411461082f57806395f3f45614610844578063a457c2d714610859578063a9059cbb14610892578063acc1ab13146108cb57610267565b80637489b451146107245780637729886f146107395780637aa9f4a7146107685780637b1c4432146107b35780637df1f1b9146107e957610267565b8063313ce567116101dd5780635afaa80f116101a15780635afaa80f146105a15780635c975abb146105e45780636886c814146105f957806370a082311461067f57806372954480146106b25780637320fc29146106f157610267565b8063313ce567146104e3578063395093511461050e578063455712761461054757806346b55fbb1461055c5780635695d52d1461058c57610267565b8063232fa73311610224578063232fa7331461039657806323932e041461039e57806323b872dd14610425578063275ac2521461046857806328fd10d71461049257610267565b806306fdde031461026c578063095ea7b3146102f65780630fc728891461034357806318160ddd1461036a5780631b55b2a81461037f57610267565b3661026757005b600080fd5b34801561027857600080fd5b50610281610aec565b6040805160208082528351818301528351919283929083019185019080838360005b838110156102bb5781810151838201526020016102a3565b50505050905090810190601f1680156102e85780820380516001836020036101000a031916815260200191505b509250505060405180910390f35b34801561030257600080fd5b5061032f6004803603604081101561031957600080fd5b506001600160a01b038135169060200135610b83565b604080519115158252519081900360200190f35b34801561034f57600080fd5b50610358610ba1565b60408051918252519081900360200190f35b34801561037657600080fd5b50610358610be0565b34801561038b57600080fd5b50610394610bef565b005b610394610e19565b61039460048036036101c08110156103b557600080fd5b508035906020810135906001600160a01b0360408201358116916060810135821691608082013581169160a08101359160c08201359160e0810135916101008201358116916101208101359161014082013515159161016081013590911690610180810135906101a0013561108b565b34801561043157600080fd5b5061032f6004803603606081101561044857600080fd5b506001600160a01b0381358116916020810135909116906040013561131c565b34801561047457600080fd5b506103586004803603602081101561048b57600080fd5b50356113a4565b34801561049e57600080fd5b506104c5600480360360208110156104b557600080fd5b50356001600160a01b03166113c7565b60408051938452602084019290925282820152519081900360600190f35b3480156104ef57600080fd5b506104f86113e8565b6040805160ff9092168252519081900360200190f35b34801561051a57600080fd5b5061032f6004803603604081101561053157600080fd5b506001600160a01b0381351690602001356113f1565b34801561055357600080fd5b5061039461143f565b34801561056857600080fd5b506103586004803603604081101561057f57600080fd5b5080359060200135611612565b34801561059857600080fd5b5061035861170b565b3480156105ad57600080fd5b50610358600480360360608110156105c457600080fd5b506001600160a01b0381358116916020810135909116906040013561189a565b3480156105f057600080fd5b5061032f6119bb565b34801561060557600080fd5b5061060e6119c4565b604080516001600160a01b039d8e168152602081019c909c528b81019a909a5260608b0198909852958a1660808a015260a089019490945260c088019290925260e0870152610100860152851661012085015284166101408401529092166101608201529051908190036101800190f35b34801561068b57600080fd5b50610358600480360360208110156106a257600080fd5b50356001600160a01b0316611a04565b3480156106be57600080fd5b50610358600480360360608110156106d557600080fd5b508035906001600160a01b036020820135169060400135611a1f565b3480156106fd57600080fd5b506103586004803603602081101561071457600080fd5b50356001600160a01b0316611ae2565b34801561073057600080fd5b50610394611ba4565b6103946004803603606081101561074f57600080fd5b5080351515906020810135151590604001351515611c41565b34801561077457600080fd5b5061077d612072565b6040518085815260200184815260200183600581111561079957fe5b815260200182815260200194505050505060405180910390f35b610394600480360360608110156107c957600080fd5b506001600160a01b03813581169160208101359160409091013516612087565b3480156107f557600080fd5b506107fe61237f565b604080516001600160a01b039092168252519081900360200190f35b34801561082657600080fd5b5061039461238e565b34801561083b57600080fd5b50610281612643565b34801561085057600080fd5b506103946126a4565b34801561086557600080fd5b5061032f6004803603604081101561087c57600080fd5b506001600160a01b038135169060200135612b7d565b34801561089e57600080fd5b5061032f600480360360408110156108b557600080fd5b506001600160a01b038135169060200135612be5565b3480156108d757600080fd5b50610358612bf9565b3480156108ec57600080fd5b506109136004803603602081101561090357600080fd5b50356001600160a01b0316612c0d565b6040805192835260208301919091528051918290030190f35b34801561093857600080fd5b50610394612c2a565b6103946004803603608081101561095757600080fd5b506001600160a01b038135169060208101351515906040810135151590606001351515612e01565b6103946004803603606081101561099557600080fd5b506001600160a01b0381351690602081013590604001351515612f9b565b3480156109bf57600080fd5b50610358600480360360208110156109d657600080fd5b50356001600160a01b03166131f3565b3480156109f257600080fd5b5061039460048036036040811015610a0957600080fd5b50803515159060200135151561332b565b61039460048036036040811015610a3057600080fd5b508035906020013515156135a0565b348015610a4b57600080fd5b5061035860048036036020811015610a6257600080fd5b5035613628565b348015610a7557600080fd5b5061035860048036036020811015610a8c57600080fd5b50356001600160a01b031661363c565b348015610aa857600080fd5b5061035860048036036040811015610abf57600080fd5b506001600160a01b0381358116916020013516613690565b348015610ae357600080fd5b506103586136bb565b60368054604080516020601f6002600019610100600188161502019095169490940493840181900481028201810190925282815260609390929091830182828015610b785780601f10610b4d57610100808354040283529160200191610b78565b820191906000526020600020905b815481529060010190602001808311610b5b57829003601f168201915b505050505090505b90565b6000610b97610b906136e2565b84846136e6565b5060015b92915050565b60d45460ce546040805180820190915260028152610ccd60f21b60208201526000928392610bda92610bd49142916137d2565b90613869565b91505090565b6000610bea6138d0565b905090565b60da5460ff166000816005811115610c0357fe5b14610c3b576040805162461bcd60e51b815260206004820152600360248201526243503160e81b604482015290519081900360640190fd5b60ce5460ca546001600160a01b03164282108015610ce25750610cd868327cb2734119d3b7a9601e1b610bd460cc60010154846001600160a01b031663c2bb7c8d6040518163ffffffff1660e01b815260040160206040518083038186803b158015610ca657600080fd5b505afa158015610cba573d6000803e3d6000fd5b505050506040513d6020811015610cd057600080fd5b5051906138d6565b610ce0610be0565b105b15610cf957610cf1600061392f565b505050610e17565b60cf5442811115610d495760cc546001600160a01b03163314610d49576040805162461bcd60e51b815260206004820152600360248201526221a81960e91b604482015290519081900360640190fd5b60d8546000610d588584613986565b90506000846001600160a01b031663816a11216040518163ffffffff1660e01b815260040160206040518083038186803b158015610d9557600080fd5b505afa158015610da9573d6000803e3d6000fd5b505050506040513d6020811015610dbf57600080fd5b505160d254909150600090610e03906301e1338090610bd4908690610dfd9068327cb2734119d3b7a9601e1b9084908b908490849084908d906138d6565b906138d6565b9050610e0e8161392f565b50505050505050505b565b600260c9541415610e5f576040805162461bcd60e51b815260206004820152601f60248201526000805160206158c9833981519152604482015290519081900360640190fd5b600260c95560ca546040805163171e108560e01b815290516001600160a01b039092169163171e108591600480820192602092909190829003018186803b158015610ea957600080fd5b505afa158015610ebd573d6000803e3d6000fd5b505050506040513d6020811015610ed357600080fd5b50516001600160a01b03163314610f17576040805162461bcd60e51b81526020600482015260036024820152624f523160e81b604482015290519081900360640190fd5b600160da5460ff166005811115610f2a57fe5b14610f62576040805162461bcd60e51b8152602060048201526003602482015262434c3160e81b604482015290519081900360640190fd5b60da805460ff1916600217905560ca54604080516302d5537b60e41b815290516001600160a01b0390921691632d5537b091600480820192602092909190829003018186803b158015610fb457600080fd5b505afa158015610fc8573d6000803e3d6000fd5b505050506040513d6020811015610fde57600080fd5b5051604080516311f2df1b60e21b815290516001600160a01b03909216916347cb7c6c9160048082019260009290919082900301818387803b15801561102357600080fd5b505af1158015611037573d6000803e3d6000fd5b505060cc5461105392506001600160a01b0316905060006139bd565b61105b613b6c565b6040517fd9fd1a29efbd67e74bbcd110e7344e0a2fbc8efd8334b946c1b805670d8d08ea90600090a1600160c955565b600054610100900460ff16806110a457506110a4613c0c565b806110b2575060005460ff16155b6110ed5760405162461bcd60e51b815260040180806020018281038252602e815260200180615981602e913960400191505060405180910390fd5b600054610100900460ff16158015611118576000805460ff1961ff0019909116610100171660011790555b60ca8054336001600160a01b03199182161790915560d0805482166001600160a01b038f81169190911790915560d18c905560d5805483168e831617905560d6805490921690891617905560cd8f90556111738d8787613c1d565b8c60cc60000160006101000a8154816001600160a01b0302191690836001600160a01b031602179055508d60cc600601819055508760cc600701819055508860cc600801819055508360cc600b0160006101000a8154816001600160a01b0302191690836001600160a01b031602179055506111f88242613cae90919063ffffffff16565b60ce5561120f836112094285613cae565b90613cae565b60cf55604080518082018252600b81526a506f6f6c20546f6b656e7360a81b60208083019190915282518084019093526002835261141560f21b9083015261125691613d08565b8b6001600160a01b031663313ce5676040518163ffffffff1660e01b815260040160206040518083038186803b15801561128f57600080fd5b505afa9250505080156112b457506040513d60208110156112af57600080fd5b505160015b6112ee573d8080156112e2576040519150601f19603f3d011682016040523d82523d6000602084013e6112e7565b606091505b50506112f9565b6112f781613dbe565b505b801561130b576000805461ff00191690555b505050505050505050505050505050565b6000611329848484613dd4565b611399846113356136e2565b611394856040518060600160405280602881526020016159d0602891396001600160a01b038a166000908152603460205260408120906113736136e2565b6001600160a01b0316815260208101919091526040016000205491906137d2565b6136e6565b5060015b9392505050565b60008061139d6301e13380610bd460cc60060154866138d690919063ffffffff16565b60cb6020526000908152604090208054600182015460029092015490919083565b60385460ff1690565b6000610b976113fe6136e2565b84611394856034600061140f6136e2565b6001600160a01b03908116825260208083019390935260409182016000908120918c168152925290205490613cae565b60ca60009054906101000a90046001600160a01b03166001600160a01b0316638da5cb5b6040518163ffffffff1660e01b815260040160206040518083038186803b15801561148d57600080fd5b505afa1580156114a1573d6000803e3d6000fd5b505050506040513d60208110156114b757600080fd5b50516001600160a01b031633146114fb576040805162461bcd60e51b81526020600482015260036024820152624f4f3160e81b604482015290519081900360640190fd5b6115063360006139bd565b61150e613b6c565b60da805460ff1916600517905560ca54604080516302d5537b60e41b815290516001600160a01b0390921691632d5537b091600480820192602092909190829003018186803b15801561156057600080fd5b505afa158015611574573d6000803e3d6000fd5b505050506040513d602081101561158a57600080fd5b5051604080516311f2df1b60e21b815290516001600160a01b03909216916347cb7c6c9160048082019260009290919082900301818387803b1580156115cf57600080fd5b505af11580156115e3573d6000803e3d6000fd5b50506040517f07d64959f11f8107f710e3e88140e45b57efb9e6653fbf73e9e546b8aa1b0b36925060009150a1565b60008061162c611620610be0565b610bd486610dfd61170b565b60d55460d654604080516359846d2960e01b8152600481018890526001600160a01b039384166024820181905291519495509093919092169160009183916359846d2991604480830192602092919082900301818787803b15801561169057600080fd5b505af11580156116a4573d6000803e3d6000fd5b505050506040513d60208110156116ba57600080fd5b505160d0549091506000906116da9085906001600160a01b03168461189a565b90506116ff6116e98987613cae565b610bd48368327cb2734119d3b7a9601e1b6138d6565b98975050505050505050565b60ca546040805163171e108560e01b815290516000926001600160a01b03169183918291849163171e108591600480820192602092909190829003018186803b15801561175757600080fd5b505afa15801561176b573d6000803e3d6000fd5b505050506040513d602081101561178157600080fd5b50516040805160016216f02b60e01b0319815230600482015281516001600160a01b039093169263ffe90fd592602480840193919291829003018186803b1580156117cb57600080fd5b505afa1580156117df573d6000803e3d6000fd5b505050506040513d60408110156117f557600080fd5b5080516020909101519092509050600061181b4268327cb2734119d3b7a9601e1b6138d6565b60ce549091506000906118459061183e9068327cb2734119d3b7a9601e1b6138d6565b8390613f31565b905083811161185c57600095505050505050610b80565b600061188f789f4f2726179a224501d762422c946590d91000000000000000610bd46118888589613f31565b87906138d6565b965050505050505090565b600080600060ca60009054906101000a90046001600160a01b03166001600160a01b0316632630c12f6040518163ffffffff1660e01b815260040160206040518083038186803b1580156118ed57600080fd5b505afa158015611901573d6000803e3d6000fd5b505050506040513d602081101561191757600080fd5b5051604080516310603c1160e01b81526001600160a01b038981166004830152888116602483015282519316926310603c1192604480840193919291829003018186803b15801561196757600080fd5b505afa15801561197b573d6000803e3d6000fd5b505050506040513d604081101561199157600080fd5b50805160209091015190925090506119b1600a82900a610bd486856138d6565b9695505050505050565b60655460ff1690565b60cc5460cd5460ce5460cf5460d05460d15460d25460d35460d45460d55460d65460d7546001600160a01b039b8c169b978816979283169291821691168c565b6001600160a01b031660009081526033602052604090205490565b60d55460d054604080516310603c1160e01b81526001600160a01b0393841660048201529183166024830152805160009384938493918816926310603c1192604480840193919291829003018186803b158015611a7b57600080fd5b505afa158015611a8f573d6000803e3d6000fd5b505050506040513d6040811015611aa557600080fd5b50805160209091015190925090506119b168327cb2734119d3b7a9601e1b610bd4611ad08288613f31565b610dfd600a86900a610bd48c896138d6565b60008060ca60009054906101000a90046001600160a01b03166001600160a01b0316639b9842c16040518163ffffffff1660e01b815260040160206040518083038186803b158015611b3357600080fd5b505afa158015611b47573d6000803e3d6000fd5b505050506040513d6020811015611b5d57600080fd5b50516001600160a01b038416600090815260cb6020526040902060010154909150611b93611b8c8360026138d6565b8290613cae565b42111561139d575060009392505050565b33611bae81611a04565b611be5576040805162461bcd60e51b8152602060048201526003602482015262494c3160e81b604482015290519081900360640190fd5b600260c9541415611c2b576040805162461bcd60e51b815260206004820152601f60248201526000805160206158c9833981519152604482015290519081900360640190fd5b600260c955611c3933613f8e565b50600160c955565b600260c9541415611c87576040805162461bcd60e51b815260206004820152601f60248201526000805160206158c9833981519152604482015290519081900360640190fd5b600260c95560da5460ca5460ff909116906001600160a01b03166001826005811115611caf57fe5b14611ce7576040805162461bcd60e51b81526020600482015260036024820152624c503160e81b604482015290519081900360640190fd5b806001600160a01b031663171e10856040518163ffffffff1660e01b815260040160206040518083038186803b158015611d2057600080fd5b505afa158015611d34573d6000803e3d6000fd5b505050506040513d6020811015611d4a57600080fd5b505160408051633bada68960e21b815230600482015290516001600160a01b039092169163eeb69a2491602480820192602092909190829003018186803b158015611d9457600080fd5b505afa158015611da8573d6000803e3d6000fd5b505050506040513d6020811015611dbe57600080fd5b5051611df7576040805162461bcd60e51b815260206004820152600360248201526226281960e91b604482015290519081900360640190fd5b60da805460ff1916600417905560d55460d05460d95460d8546001600160a01b039384169390921691600091611e2d9190613cae565b60d654604080516359846d2960e01b8152600481018490526001600160a01b0387811660248301529151939450911691839183916359846d29916044808201926020929091908290030181600087803b158015611e8957600080fd5b505af1158015611e9d573d6000803e3d6000fd5b505050506040513d6020811015611eb357600080fd5b505160408051632630c12f60e01b81529051919250600091611f9e9184916001600160a01b038b1691632630c12f916004808301926020929190829003018186803b158015611f0157600080fd5b505afa158015611f15573d6000803e3d6000fd5b505050506040513d6020811015611f2b57600080fd5b50516040805163acca944f60e01b815290516001600160a01b038c169163acca944f916004808301926020929190829003018186803b158015611f6d57600080fd5b505afa158015611f81573d6000803e3d6000fd5b505050506040513d6020811015611f9757600080fd5b5051611a1f565b905060d86001016000905560d8600001600090556120268b600087848b6001600160a01b031663fdc19bb76040518163ffffffff1660e01b815260040160206040518083038186803b158015611ff357600080fd5b505afa158015612007573d6000803e3d6000fd5b505050506040513d602081101561201d57600080fd5b50513330613ff9565b506120348a8a888686614112565b5060405133907fc54b2aa56ebf583bfce79c646ac5d4618f0e44bc6874bd07194673a5bd2626a090600090a25050600160c955505050505050505050565b60d85460d95460da5460db5460ff9091169084565b600260c95414156120cd576040805162461bcd60e51b815260206004820152601f60248201526000805160206158c9833981519152604482015290519081900360640190fd5b600260c95560d75460cc546001600160a01b0391821691908116908516811480159061210257506001600160a01b0381163314155b612138576040805162461bcd60e51b81526020600482015260026024820152614c3160f01b604482015290519081900360640190fd5b6001600160a01b038216156122745760ca60009054906101000a90046001600160a01b03166001600160a01b0316635c7460d66040518163ffffffff1660e01b815260040160206040518083038186803b15801561219557600080fd5b505afa1580156121a9573d6000803e3d6000fd5b505050506040513d60208110156121bf57600080fd5b505160408051625a87b960e31b81526001600160a01b0388811660048301528581166024830152915191909216916302d43dc8916044808301926020929190829003018186803b15801561221257600080fd5b505afa158015612226573d6000803e3d6000fd5b505050506040513d602081101561223c57600080fd5b5051612274576040805162461bcd60e51b8152602060048201526002602482015261261960f11b604482015290519081900360640190fd5b600060da5460ff16600581111561228757fe5b148015612295575060ce5442105b6122cb576040805162461bcd60e51b81526020600482015260026024820152614c3360f01b604482015290519081900360640190fd5b60cd5460006122d8610be0565b9050816122e58783613cae565b11156122f8576122f58282613f31565b95505b60d0546001600160a01b0390811690600090871615612315575060015b612325816000848b8b3330613ff9565b5061233089896141a1565b6040805189815290516001600160a01b038b16917ff09dbebdc018e2d81469b76b813a178bbc38dde6fd1056134b68f291a58802e2919081900360200190a25050600160c95550505050505050565b60cc546001600160a01b031690565b3361239881611a04565b6123cf576040805162461bcd60e51b8152602060048201526003602482015262494c3160e81b604482015290519081900360640190fd5b600260c9541415612415576040805162461bcd60e51b815260206004820152601f60248201526000805160206158c9833981519152604482015290519081900360640190fd5b600260c981905560da5460ff169081600581111561242f57fe5b14806124465750600381600581111561244457fe5b145b8061245c5750600481600581111561245a57fe5b145b806124725750600581600581111561247057fe5b145b6124a9576040805162461bcd60e51b8152602060048201526003602482015262574c3160e81b604482015290519081900360640190fd5b60006124b433611a04565b90508060048360058111156124c557fe5b14806124dc575060058360058111156124da57fe5b145b1561258f5760d0546000906001600160a01b0316156125735760d054604080516370a0823160e01b815230600482015290516001600160a01b03909216916370a0823191602480820192602092909190829003018186803b15801561254057600080fd5b505afa158015612554573d6000803e3d6000fd5b505050506040513d602081101561256a57600080fd5b50519050612576565b50475b61258b612581610be0565b610bd484846138d6565b9150505b600383600581111561259d57fe5b14156125c2576125bf611b8c6125b1610be0565b60db54610bd49085906138d6565b90505b60028360058111156125d057fe5b14156125df576125df33613f8e565b6125e93383614293565b60d054612601906001600160a01b031682303361438f565b5060408051828152905133917f971f63643b6d0341cf9c1971238adc8625537ce1c41ba0a9dfcbd784832bd5f9919081900360200190a25050600160c9555050565b60378054604080516020601f6002600019610100600188161502019095169490940493840181900481028201810190925282815260609390929091830182828015610b785780601f10610b4d57610100808354040283529160200191610b78565b60cc5433906001600160a01b031681146126eb576040805162461bcd60e51b81526020600482015260036024820152624f423160e81b604482015290519081900360640190fd5b600260c9541415612731576040805162461bcd60e51b815260206004820152601f60248201526000805160206158c9833981519152604482015290519081900360640190fd5b600260c95560da5460ff166000612746610be0565b9050600082600581111561275657fe5b148015612764575060ce5442115b8015612771575060cf5442105b6127ab576040805162461bcd60e51b815260206004808301919091526024820152635742413160e01b604482015290519081900360640190fd5b60ca5460cd546040805163c2bb7c8d60e01b815290516001600160a01b039093169261280a9268327cb2734119d3b7a9601e1b92610bd492869163c2bb7c8d916004808301926020929190829003018186803b158015610ca657600080fd5b821015612847576040805162461bcd60e51b815260206004808301919091526024820152632ba1209960e11b604482015290519081900360640190fd5b60da805460ff19166001179055600061285e6136bb565b60d1549091508110156128a1576040805162461bcd60e51b815260206004808301919091526024820152635742413360e01b604482015290519081900360640190fd5b60d35460d4546040805163171e108560e01b815290516001600160a01b0386169163171e1085916004808301926020929190829003018186803b1580156128e757600080fd5b505afa1580156128fb573d6000803e3d6000fd5b505050506040513d602081101561291157600080fd5b505160d25460ce5460d05460408051632447e4a760e11b81526004810188905260248101879052604481019490945260648401929092526001600160a01b039081166084840152905192169163488fc94e9160a48082019260009290919082900301818387803b15801561298457600080fd5b505af1158015612998573d6000803e3d6000fd5b50505050836001600160a01b0316632d5537b06040518163ffffffff1660e01b815260040160206040518083038186803b1580156129d557600080fd5b505afa1580156129e9573d6000803e3d6000fd5b505050506040513d60208110156129ff57600080fd5b505160408051635ad3867560e11b81526004810184905290516001600160a01b039092169163b5a70cea9160248082019260009290919082900301818387803b158015612a4b57600080fd5b505af1158015612a5f573d6000803e3d6000fd5b505060d05460408051637bad520760e01b815281516001600160a01b0393841695506000945084938a1692637bad52079260048181019391829003018186803b158015612aab57600080fd5b505afa158015612abf573d6000803e3d6000fd5b505050506040513d6040811015612ad557600080fd5b50805160209091015190925090506000612aff68327cb2734119d3b7a9601e1b610bd48b866138d6565b600060cf819055909150612b138a83613f31565b9050612b218583308661438f565b50612b2e8582303361438f565b50604080518281526020810184905281517f8be9d9baf42e140e96ea35d9b1ce2ba467febd2505cfe7b94332ed0732392971929181900390910190a15050600160c95550505050505050505050565b6000610b97612b8a6136e2565b8461139485604051806060016040528060258152602001615ac26025913960346000612bb46136e2565b6001600160a01b03908116825260208083019390935260409182016000908120918d168152925290205491906137d2565b6000610b97612bf26136e2565b8484613dd4565b60da5460009060ff166005811115610bea57fe5b600080612c1983611a04565b612c21610be0565b91509150915091565b33612c3481611a04565b612c6b576040805162461bcd60e51b8152602060048201526003602482015262494c3160e81b604482015290519081900360640190fd5b600160da5460ff166005811115612c7e57fe5b14612cb9576040805162461bcd60e51b81526020600480830191909152602482015263524d433160e01b604482015290519081900360640190fd5b60ca546001600160a01b0316612cce33611ae2565b15612d09576040805162461bcd60e51b815260206004808301919091526024820152632926a19960e11b604482015290519081900360640190fd5b612d123361363c565b60d15411612d50576040805162461bcd60e51b81526020600480830191909152602482015263524d433360e01b604482015290519081900360640190fd5b612dbf816001600160a01b0316639b9842c16040518163ffffffff1660e01b815260040160206040518083038186803b158015612d8c57600080fd5b505afa158015612da0573d6000803e3d6000fd5b505050506040513d6020811015612db657600080fd5b50514290613cae565b33600081815260cb602052604080822060010193909355915190917f5334a046b9fb8040bcaa4dd9a9ecbbe06e299568931f336e4aa6bbf51d511b8091a25050565b600260c9541415612e47576040805162461bcd60e51b815260206004820152601f60248201526000805160206158c9833981519152604482015290519081900360640190fd5b600260c955612e5584614580565b60d6546001600160a01b0316600080612e6d876146fc565b60d554604080516359846d2960e01b8152600481018590526001600160a01b03928316602482015290519395509193508492908616916359846d299160448083019260209291908290030181600087803b158015612eca57600080fd5b505af1158015612ede573d6000803e3d6000fd5b505050506040513d6020811015612ef457600080fd5b50519050612f03878983614776565b60d554600090612f2190889088906001600160a01b03168886614112565b9050612f2d8984614293565b6001600160a01b038916600081815260cb6020908152604080832083815560018101849055600201929092558151848152915133927f9b4fed4f3cd02b7624ed7521dce91b2f3aee138fc5c04d59f2f087e6b261a40d92908290030190a35050600160c95550505050505050565b600260c9541415612fe1576040805162461bcd60e51b815260206004820152601f60248201526000805160206158c9833981519152604482015290519081900360640190fd5b600260c955600160da5460ff166005811115612ff957fe5b14613033576040805162461bcd60e51b815260206004820152600560248201526441434d433160d81b604482015290519081900360640190fd5b61303c33611a04565b15613076576040805162461bcd60e51b815260206004820152600560248201526420a1a6a19960d91b604482015290519081900360640190fd5b4261308084611ae2565b10156130bb576040805162461bcd60e51b815260206004820152600560248201526441434d433360d81b604482015290519081900360640190fd5b816130f5576040805162461bcd60e51b81526020600482015260056024820152641050d350cd60da1b604482015290519081900360640190fd5b60d55460d65460009161311d9184916001916001600160a01b03918216918891163330613ff9565b60d95490915061312d9082613cae565b60d9556001600160a01b038416600090815260cb60205260409020600201546131569082613cae565b6001600160a01b038516600090815260cb602052604090206002015560d15461317e8561363c565b106131a0576001600160a01b038416600090815260cb60205260408120600101555b604080518481526020810183905281516001600160a01b0387169233927f7745b8ee282b3bb1a0958b211eb3a34506deb988e5488e560a63b83ce03ba9d9929081900390910190a35050600160c9555050565b60008060ca60009054906101000a90046001600160a01b03166001600160a01b031663171e10856040518163ffffffff1660e01b815260040160206040518083038186803b15801561324457600080fd5b505afa158015613258573d6000803e3d6000fd5b505050506040513d602081101561326e57600080fd5b505160408051630a3371f560e11b815230600482015290516001600160a01b0390921691631466e3ea91602480820192602092909190829003018186803b1580156132b857600080fd5b505afa1580156132cc573d6000803e3d6000fd5b505050506040513d60208110156132e257600080fd5b50516001600160a01b038416600090815260cb6020526040812054919250906133239061331d613310610be0565b610bd486610dfd8a611a04565b90613f31565b949350505050565b600260c9541415613371576040805162461bcd60e51b815260206004820152601f60248201526000805160206158c9833981519152604482015290519081900360640190fd5b600260c955600360da5460ff16600581111561338957fe5b146133c4576040805162461bcd60e51b815260206004808301919091526024820152634c43503160e01b604482015290519081900360640190fd5b60db5415613402576040805162461bcd60e51b815260206004808301919091526024820152632621a81960e11b604482015290519081900360640190fd5b60ca5460d65460d55460d854604080516359846d2960e01b8152600481018390526001600160a01b03938416602482018190529151958416959390941693909284916359846d299160448083019260209291908290030181600087803b15801561346b57600080fd5b505af115801561347f573d6000803e3d6000fd5b505050506040513d602081101561349557600080fd5b505160408051632630c12f60e01b8152905191925060009161354f9184916001600160a01b03891691632630c12f916004808301926020929190829003018186803b1580156134e357600080fd5b505afa1580156134f7573d6000803e3d6000fd5b505050506040513d602081101561350d57600080fd5b50516040805163acca944f60e01b815290516001600160a01b038a169163acca944f916004808301926020929190829003018186803b158015611f6d57600080fd5b60db81905560d05490915061356f906001600160a01b031682333061438f565b5060d55460d65461359191899189916001600160a01b03908116911686614112565b5050600160c955505050505050565b816135d8576040805162461bcd60e51b815260206004820152600360248201526244433160e81b604482015290519081900360640190fd5b6135e133611a04565b15613619576040805162461bcd60e51b815260206004820152600360248201526222219960e91b604482015290519081900360640190fd5b61362433838361486b565b5050565b6000610b9b60cc60080154610dfd846113a4565b60008061364883611a04565b6001600160a01b038416600090815260cb60205260408120600201549192509061368490611209613677610be0565b60d854610bd490876138d6565b90506133238282611612565b6001600160a01b03918216600090815260346020908152604080832093909416825291909152205490565b60d95460d85460009182916136cf91613cae565b9050610bda6136dc610be0565b82611612565b3390565b6001600160a01b03831661372b5760405162461bcd60e51b8152600401808060200182810382526024815260200180615a3e6024913960400191505060405180910390fd5b6001600160a01b0382166137705760405162461bcd60e51b815260040180806020018281038252602281526020018061590b6022913960400191505060405180910390fd5b6001600160a01b03808416600081815260346020908152604080832094871680845294825291829020859055815185815291517f8c5be1e5ebec7d5bd14f71427d1e84f3dd0314c0f7b2291e5b200ac8c7c3b9259281900390910190a3505050565b600081848411156138615760405162461bcd60e51b81526004018080602001828103825283818151815260200191508051906020019080838360005b8381101561382657818101518382015260200161380e565b50505050905090810190601f1680156138535780820380516001836020036101000a031916815260200191505b509250505060405180910390fd5b505050900390565b60008082116138bf576040805162461bcd60e51b815260206004820152601a60248201527f536166654d6174683a206469766973696f6e206279207a65726f000000000000604482015290519081900360640190fd5b8183816138c857fe5b049392505050565b60355490565b6000826138e557506000610b9b565b828202828482816138f257fe5b041461139d5760405162461bcd60e51b81526004018080602001828103825260218152602001806159af6021913960400191505060405180910390fd5b60da805460ff1916600317905560cc54613952906001600160a01b0316826139bd565b61395a613b6c565b6040517f8cbd53891ca54fbd5e0e3309a32f9a006458224831c41274a5fd8d8a0d937e7190600090a150565b60d4546000904284101561139d5742838111156139a05750825b6139b46139ad8287613f31565b8390613cae565b95945050505050565b60d65460d55460d95460d8546001600160a01b03938416939092169160009185916139e791613cae565b1115613a055760d95460d854613a0291869161331d91613cae565b90505b6000836001600160a01b03166359846d2983856040518363ffffffff1660e01b815260040180838152602001826001600160a01b0316815260200192505050602060405180830381600087803b158015613a5e57600080fd5b505af1158015613a72573d6000803e3d6000fd5b505050506040513d6020811015613a8857600080fd5b505160d8869055600060d98190559091508215613b245760ca546040805163ecced62360e01b815290516000926001600160a01b03169163ecced623916004808301926020929190829003018186803b158015613ae457600080fd5b505afa158015613af8573d6000803e3d6000fd5b505050506040513d6020811015613b0e57600080fd5b50519050613b2081308a86898b61493f565b9150505b6040805182815290516001600160a01b038916917fc30fcfbcaac9e0deffa719714eaa82396ff506a0d0d0eebe170830177288715d919081900360200190a250505050505050565b613b746119bb565b15613bb9576040805162461bcd60e51b815260206004820152601060248201526f14185d5cd8589b194e881c185d5cd95960821b604482015290519081900360640190fd5b6065805460ff191660011790557f62e78cea01bee320cd4e420270b5ea74000d11b0c9f74754ebdbfc544b05a258613bef6136e2565b604080516001600160a01b039092168252519081900360200190a1565b6000613c1730614a8a565b15905090565b60d05460d55460cd54600092613c41926001600160a01b039182169291169061189a565b60d154909150613c639068327cb2734119d3b7a9601e1b90610bd490846138d6565b831015613c9d576040805162461bcd60e51b815260206004820152600360248201526249443160e81b604482015290519081900360640190fd5b613ca884848461486b565b50505050565b60008282018381101561139d576040805162461bcd60e51b815260206004820152601b60248201527f536166654d6174683a206164646974696f6e206f766572666c6f770000000000604482015290519081900360640190fd5b600054610100900460ff1680613d215750613d21613c0c565b80613d2f575060005460ff16155b613d6a5760405162461bcd60e51b815260040180806020018281038252602e815260200180615981602e913960400191505060405180910390fd5b600054610100900460ff16158015613d95576000805460ff1961ff0019909116610100171660011790555b613d9d614a90565b613da78383614b31565b8015613db9576000805461ff00191690555b505050565b6038805460ff191660ff92909216919091179055565b6001600160a01b038316613e195760405162461bcd60e51b8152600401808060200182810382526025815260200180615a196025913960400191505060405180910390fd5b6001600160a01b038216613e5e5760405162461bcd60e51b81526004018080602001828103825260238152602001806158a66023913960400191505060405180910390fd5b613e69838383614c09565b613ea68160405180606001604052806026815260200161592d602691396001600160a01b03861660009081526033602052604090205491906137d2565b6001600160a01b038085166000908152603360205260408082209390935590841681522054613ed59082613cae565b6001600160a01b0380841660008181526033602090815260409182902094909455805185815290519193928716927fddf252ad1be2c89b69c2b068fc378daa952ba7f163c4a11628f55a4df523b3ef92918290030190a3505050565b600082821115613f88576040805162461bcd60e51b815260206004820152601e60248201527f536166654d6174683a207375627472616374696f6e206f766572666c6f770000604482015290519081900360640190fd5b50900390565b6000613f99826131f3565b905080613fa65750613ff6565b6001600160a01b038216600090815260cb6020526040902054613fc99082613cae565b6001600160a01b03808416600090815260cb602052604090209190915560d054613db9911682308561438f565b50565b600087156140875760ca546040805163ecced62360e01b81529051614080926001600160a01b03169163ecced623916004808301926020929190829003018186803b15801561404757600080fd5b505afa15801561405b573d6000803e3d6000fd5b505050506040513d602081101561407157600080fd5b50518484888a8960018e615193565b9050614107565b60ca546040805163ecced62360e01b81529051614104926001600160a01b03169163ecced623916004808301926020929190829003018186803b1580156140cd57600080fd5b505afa1580156140e1573d6000803e3d6000fd5b505050506040513d60208110156140f757600080fd5b50518484888a8c8a6151bf565b90505b979650505050505050565b60008060ca60009054906101000a90046001600160a01b03166001600160a01b031663ecced6236040518163ffffffff1660e01b815260040160206040518083038186803b15801561416357600080fd5b505afa158015614177573d6000803e3d6000fd5b505050506040513d602081101561418d57600080fd5b505190506141078130338689898c8e615193565b6001600160a01b0382166141fc576040805162461bcd60e51b815260206004820152601f60248201527f45524332303a206d696e7420746f20746865207a65726f206164647265737300604482015290519081900360640190fd5b61420860008383614c09565b6035546142159082613cae565b6035556001600160a01b03821660009081526033602052604090205461423b9082613cae565b6001600160a01b03831660008181526033602090815260408083209490945583518581529351929391927fddf252ad1be2c89b69c2b068fc378daa952ba7f163c4a11628f55a4df523b3ef9281900390910190a35050565b6001600160a01b0382166142d85760405162461bcd60e51b81526004018080602001828103825260218152602001806159f86021913960400191505060405180910390fd5b6142e482600083614c09565b614321816040518060600160405280602281526020016158e9602291396001600160a01b03851660009081526033602052604090205491906137d2565b6001600160a01b0383166000908152603360205260409020556035546143479082613f31565b6035556040805182815290516000916001600160a01b038516917fddf252ad1be2c89b69c2b068fc378daa952ba7f163c4a11628f55a4df523b3ef9181900360200190a35050565b60008361439e57506000613323565b6001600160a01b03851661453857833410156143eb5760405162461bcd60e51b815260040180806020018281038252602e815260200180615953602e913960400191505060405180910390fd5b6001600160a01b0382163014614495576040516000906001600160a01b0384169086908381818185875af1925050503d8060008114614446576040519150601f19603f3d011682016040523d82523d6000602084013e61444b565b606091505b5050905080614493576040805162461bcd60e51b815260206004820152600f60248201526e151c985b9cd9995c8819985a5b1959608a1b604482015290519081900360640190fd5b505b8334111561453157604051600090339034879003908381818185875af1925050503d80600081146144e2576040519150601f19603f3d011682016040523d82523d6000602084013e6144e7565b606091505b505090508061452f576040805162461bcd60e51b815260206004820152600f60248201526e151c985b9cd9995c8819985a5b1959608a1b604482015290519081900360640190fd5b505b5082613323565b6001600160a01b0383163014156145625761455d6001600160a01b03861683866151e1565b614577565b6145776001600160a01b038616848487615233565b50919392505050565b600160da5460ff16600581111561459357fe5b1480156145a1575060cf5442115b6145da576040805162461bcd60e51b8152602060048201526005602482015264434c424c3160d81b604482015290519081900360640190fd5b6001600160a01b038116600090815260cb60205260409020600101546145ff82611ae2565b614638576040805162461bcd60e51b815260206004820152600560248201526421a621261960d91b604482015290519081900360640190fd5b428110614674576040805162461bcd60e51b8152602060048201526005602482015264434c424c3360d81b604482015290519081900360640190fd5b61467d8261363c565b60d154116146ba576040805162461bcd60e51b815260206004820152600560248201526410d310930d60da1b604482015290519081900360640190fd5b6146c382611a04565b613624576040805162461bcd60e51b8152602060048201526005602482015264434c424c3560d81b604482015290519081900360640190fd5b60d854600090819061470d84611a04565b9150600061472661471c610be0565b610bd484866138d6565b6001600160a01b038616600090815260cb602052604090206002015490915061474f8383613f31565b60d85560d95461475f9082613f31565b60d95561476c8282613cae565b9450505050915091565b60d65460ca5460408051632630c12f60e01b815290516001600160a01b0393841693909216916000916148399186918591632630c12f91600480820192602092909190829003018186803b1580156147cd57600080fd5b505afa1580156147e1573d6000803e3d6000fd5b505050506040513d60208110156147f757600080fd5b50516040805163acca944f60e01b815290516001600160a01b0387169163acca944f916004808301926020929190829003018186803b158015611f6d57600080fd5b60d0549091506001600160a01b0316614858876000838588338c613ff9565b5061486286613f8e565b50505050505050565b600260c95414156148b1576040805162461bcd60e51b815260206004820152601f60248201526000805160206158c9833981519152604482015290519081900360640190fd5b600260c95560d55460d6546000916148de9184916001916001600160a01b03918216918891168930613ff9565b60d8549091506148ee9082613cae565b60d855604080518481526020810183905281516001600160a01b038716927f11f8990ac38271f23dea447d5728e9914fca7cea2edda43af6c43c415f8bc30b928290030190a25050600160c9555050565b60006001600160a01b0386163014156149e7576040805163448b903960e11b8152600481018690526001600160a01b038581166024830152848116604483015287811660648301529151918916916389172072916084808201926020929091908290030181600087803b1580156149b557600080fd5b505af11580156149c9573d6000803e3d6000fd5b505050506040513d60208110156149df57600080fd5b50614a7f9050565b604080516319dad0dd60e11b8152600481018690526001600160a01b0385811660248301528481166044830152888116606483015287811660848301529151918916916333b5a1ba9160a4808201926020929091908290030181600087803b158015614a5257600080fd5b505af1158015614a66573d6000803e3d6000fd5b505050506040513d6020811015614a7c57600080fd5b50505b509195945050505050565b3b151590565b600054610100900460ff1680614aa95750614aa9613c0c565b80614ab7575060005460ff16155b614af25760405162461bcd60e51b815260040180806020018281038252602e815260200180615981602e913960400191505060405180910390fd5b600054610100900460ff16158015614b1d576000805460ff1961ff0019909116610100171660011790555b8015613ff6576000805461ff001916905550565b600054610100900460ff1680614b4a5750614b4a613c0c565b80614b58575060005460ff16155b614b935760405162461bcd60e51b815260040180806020018281038252602e815260200180615981602e913960400191505060405180910390fd5b600054610100900460ff16158015614bbe576000805460ff1961ff0019909116610100171660011790555b8251614bd1906036906020860190615804565b508151614be5906037906020850190615804565b506038805460ff191660121790558015613db9576000805461ff0019169055505050565b6001600160a01b03821615614c5857614c206119bb565b15614c58576040805162461bcd60e51b815260206004820152600360248201526254543160e81b604482015290519081900360640190fd5b60cc546001600160a01b0383811691161415614ca1576040805162461bcd60e51b81526020600482015260036024820152622a2a1960e91b604482015290519081900360640190fd5b6001600160a01b0383161580614cbe57506001600160a01b038216155b15614cc857613db9565b60ca5460d7546001600160a01b0391821691168015614dfa57816001600160a01b0316635c7460d66040518163ffffffff1660e01b815260040160206040518083038186803b158015614d1a57600080fd5b505afa158015614d2e573d6000803e3d6000fd5b505050506040513d6020811015614d4457600080fd5b505160408051625a87b960e31b81526001600160a01b0387811660048301528481166024830152915191909216916302d43dc8916044808301926020929190829003018186803b158015614d9757600080fd5b505afa158015614dab573d6000803e3d6000fd5b505050506040513d6020811015614dc157600080fd5b5051614dfa576040805162461bcd60e51b815260206004820152600360248201526254543560e81b604482015290519081900360640190fd5b614e0385611ae2565b15614e3b576040805162461bcd60e51b815260206004820152600360248201526254543360e81b604482015290519081900360640190fd5b614e4484611ae2565b15614e7c576040805162461bcd60e51b815260206004820152600360248201526215150d60ea1b604482015290519081900360640190fd5b614e8585613f8e565b614e8e84613f8e565b60ca546040805163171e108560e01b815290516000926001600160a01b03169163171e1085916004808301926020929190829003018186803b158015614ed357600080fd5b505afa158015614ee7573d6000803e3d6000fd5b505050506040513d6020811015614efd57600080fd5b505160408051630a3371f560e11b815230600482015290516001600160a01b0390921691631466e3ea91602480820192602092909190829003018186803b158015614f4757600080fd5b505afa158015614f5b573d6000803e3d6000fd5b505050506040513d6020811015614f7157600080fd5b505190506000614f7f610be0565b90506000614f8c88611a04565b90506000614f9988611a04565b9050614fad83610bd486610dfd868c613f31565b6001600160a01b038a16600090815260cb6020526040902055614fd883610bd486610dfd858c613cae565b6001600160a01b03808a16600090815260cb60209081526040918290209390935580516302d5537b60e41b8152905191891692632d5537b092600480840193829003018186803b15801561502b57600080fd5b505afa15801561503f573d6000803e3d6000fd5b505050506040513d602081101561505557600080fd5b50516040805163722eb6d160e01b81526001600160a01b038c811660048301528b81166024830152604482018b90529151919092169163722eb6d191606480830192600092919082900301818387803b1580156150b157600080fd5b505af11580156150c5573d6000803e3d6000fd5b505050506001600160a01b038916600090815260cb6020526040902060020154806150f65750505050505050613db9565b8088841461510f5761510c84610bd48b856138d6565b90505b6001600160a01b038b16600090815260cb60205260409020600201546151359082613f31565b6001600160a01b03808d16600090815260cb6020526040808220600290810194909455918d16815220015461516a9082613cae565b6001600160a01b038b16600090815260cb60205260409020600201555050505050505050505050565b600081156151b0576151a989898989898961493f565b90506116ff565b6151a98989898989898961528d565b600082156151d5576140808888888888876153e9565b6140808486898961438f565b604080516001600160a01b038416602482015260448082018490528251808303909101815260649091019091526020810180516001600160e01b031663a9059cbb60e01b179052613db99084906154c5565b604080516001600160a01b0380861660248301528416604482015260648082018490528251808303909101815260849091019091526020810180516001600160e01b03166323b872dd60e01b179052613ca89085906154c5565b60006001600160a01b03871630141561533e57604080516345cd75e960e01b8152600481018790526001600160a01b0386811660248301528581166044830152888116606483015284151560848301529151918a16916345cd75e99160a4808201926020929091908290030181600087803b15801561530b57600080fd5b505af115801561531f573d6000803e3d6000fd5b505050506040513d602081101561533557600080fd5b50519050614107565b6040805163ea975cb360e01b8152600481018790526001600160a01b03868116602483015285811660448301528981166064830152888116608483015284151560a48301529151918a169163ea975cb39160c4808201926020929091908290030181600087803b1580156153b157600080fd5b505af11580156153c5573d6000803e3d6000fd5b505050506040513d60208110156153db57600080fd5b505198975050505050505050565b60006153f78385883061438f565b5060006001600160a01b03841661540f575083615437565b826001600160a01b0381166154215750875b6154356001600160a01b0386168288615576565b505b604080516330940a0f60e21b8152600481018790526001600160a01b038681166024830152858116604483015288811660648301529151918a169163c250283c918491608480830192602092919082900301818588803b15801561549a57600080fd5b505af11580156154ae573d6000803e3d6000fd5b50505050506040513d60208110156153db57600080fd5b600061551a826040518060400160405280602081526020017f5361666545524332303a206c6f772d6c6576656c2063616c6c206661696c6564815250856001600160a01b03166156899092919063ffffffff16565b805190915015613db95780806020019051602081101561553957600080fd5b5051613db95760405162461bcd60e51b815260040180806020018281038252602a815260200180615a62602a913960400191505060405180910390fd5b8015806155fc575060408051636eb1769f60e11b81523060048201526001600160a01b03848116602483015291519185169163dd62ed3e91604480820192602092909190829003018186803b1580156155ce57600080fd5b505afa1580156155e2573d6000803e3d6000fd5b505050506040513d60208110156155f857600080fd5b5051155b6156375760405162461bcd60e51b8152600401808060200182810382526036815260200180615a8c6036913960400191505060405180910390fd5b604080516001600160a01b038416602482015260448082018490528251808303909101815260649091019091526020810180516001600160e01b031663095ea7b360e01b179052613db99084906154c5565b606061332384846000858561569d85614a8a565b6156ee576040805162461bcd60e51b815260206004820152601d60248201527f416464726573733a2063616c6c20746f206e6f6e2d636f6e7472616374000000604482015290519081900360640190fd5b600080866001600160a01b031685876040518082805190602001908083835b6020831061572c5780518252601f19909201916020918201910161570d565b6001836020036101000a03801982511681845116808217855250505050505090500191505060006040518083038185875af1925050503d806000811461578e576040519150601f19603f3d011682016040523d82523d6000602084013e615793565b606091505b5091509150614107828286606083156157ad57508161139d565b8251156157bd5782518084602001fd5b60405162461bcd60e51b815260206004820181815284516024840152845185939192839260440191908501908083836000831561382657818101518382015260200161380e565b828054600181600116156101000203166002900490600052602060002090601f01602090048101928261583a5760008555615880565b82601f1061585357805160ff1916838001178555615880565b82800160010185558215615880579182015b82811115615880578251825591602001919060010190615865565b5061588c929150615890565b5090565b5b8082111561588c576000815560010161589156fe45524332303a207472616e7366657220746f20746865207a65726f20616464726573735265656e7472616e637947756172643a207265656e7472616e742063616c6c0045524332303a206275726e20616d6f756e7420657863656564732062616c616e636545524332303a20617070726f766520746f20746865207a65726f206164647265737345524332303a207472616e7366657220616d6f756e7420657863656564732062616c616e63656574686572732070726f76696465642073686f756c642062652067726561746572207468616e205f616d6f756e74496e697469616c697a61626c653a20636f6e747261637420697320616c726561647920696e697469616c697a6564536166654d6174683a206d756c7469706c69636174696f6e206f766572666c6f7745524332303a207472616e7366657220616d6f756e74206578636565647320616c6c6f77616e636545524332303a206275726e2066726f6d20746865207a65726f206164647265737345524332303a207472616e736665722066726f6d20746865207a65726f206164647265737345524332303a20617070726f76652066726f6d20746865207a65726f20616464726573735361666545524332303a204552433230206f7065726174696f6e20646964206e6f7420737563636565645361666545524332303a20617070726f76652066726f6d206e6f6e2d7a65726f20746f206e6f6e2d7a65726f20616c6c6f77616e636545524332303a2064656372656173656420616c6c6f77616e63652062656c6f77207a65726fa2646970667358221220a48599a4828db0dad008a8149fbc2a74cb7b4f7191d66b911c39499cfa2aa5bf64736f6c63430007060033",
  "linkReferences": {},
  "deployedLinkReferences": {}
}