{"contracts/AssetWrappers/WJLP.sol":{"WJLP":{"abi":[{"inputs":[{"internalType":"string","name":"ERC20_symbol","type":"string"},{"internalType":"string","name":"ERC20_name","type":"string"},{"internalType":"uint8","name":"ERC20_decimals","type":"uint8"},{"internalType":"contract IERC20","name":"_JLP","type":"address"},{"internalType":"contract IERC20","name":"_JOE","type":"address"},{"internalType":"contract IMasterChefJoeV2","name":"MasterChefJoe","type":"address"},{"internalType":"uint256","name":"poolPid","type":"uint256"}],"stateMutability":"nonpayable","type":"constructor"},{"anonymous":false,"inputs":[{"indexed":true,"internalType":"address","name":"owner","type":"address"},{"indexed":true,"internalType":"address","name":"spender","type":"address"},{"indexed":false,"internalType":"uint256","name":"value","type":"uint256"}],"name":"Approval","type":"event"},{"anonymous":false,"inputs":[{"indexed":true,"internalType":"address","name":"from","type":"address"},{"indexed":true,"internalType":"address","name":"to","type":"address"},{"indexed":false,"internalType":"uint256","name":"value","type":"uint256"}],"name":"Transfer","type":"event"},{"inputs":[],"name":"JLP","outputs":[{"internalType":"contract IERC20","name":"","type":"address"}],"stateMutability":"view","type":"function"},{"inputs":[],"name":"JOE","outputs":[{"internalType":"contract IERC20","name":"","type":"address"}],"stateMutability":"view","type":"function"},{"inputs":[],"name":"_MasterChefJoe","outputs":[{"internalType":"contract IMasterChefJoeV2","name":"","type":"address"}],"stateMutability":"view","type":"function"},{"inputs":[],"name":"_decimals","outputs":[{"internalType":"uint8","name":"","type":"uint8"}],"stateMutability":"view","type":"function"},{"inputs":[],"name":"_name","outputs":[{"internalType":"string","name":"","type":"string"}],"stateMutability":"view","type":"function"},{"inputs":[],"name":"_poolPid","outputs":[{"internalType":"uint256","name":"","type":"uint256"}],"stateMutability":"view","type":"function"},{"inputs":[],"name":"_symbol","outputs":[{"internalType":"string","name":"","type":"string"}],"stateMutability":"view","type":"function"},{"inputs":[],"name":"_totalSupply","outputs":[{"internalType":"uint256","name":"","type":"uint256"}],"stateMutability":"view","type":"function"},{"inputs":[{"internalType":"address","name":"tokenOwner","type":"address"},{"internalType":"address","name":"spender","type":"address"}],"name":"allowance","outputs":[{"internalType":"uint256","name":"remaining","type":"uint256"}],"stateMutability":"view","type":"function"},{"inputs":[{"internalType":"address","name":"spender","type":"address"},{"internalType":"uint256","name":"amount","type":"uint256"}],"name":"approve","outputs":[{"internalType":"bool","name":"","type":"bool"}],"stateMutability":"nonpayable","type":"function"},{"inputs":[{"internalType":"address","name":"_token_owner","type":"address"}],"name":"balanceOf","outputs":[{"internalType":"uint256","name":"balance","type":"uint256"}],"stateMutability":"view","type":"function"},{"inputs":[{"internalType":"address","name":"_to","type":"address"}],"name":"claimReward","outputs":[],"stateMutability":"nonpayable","type":"function"},{"inputs":[],"name":"decimals","outputs":[{"internalType":"uint8","name":"","type":"uint8"}],"stateMutability":"view","type":"function"},{"inputs":[{"internalType":"address","name":"spender","type":"address"},{"internalType":"uint256","name":"subtractedValue","type":"uint256"}],"name":"decreaseAllowance","outputs":[{"internalType":"bool","name":"","type":"bool"}],"stateMutability":"nonpayable","type":"function"},{"inputs":[{"internalType":"address","name":"_to","type":"address"},{"internalType":"uint256","name":"_amount","type":"uint256"}],"name":"endTreasuryReward","outputs":[],"stateMutability":"nonpayable","type":"function"},{"inputs":[{"internalType":"address","name":"_for","type":"address"}],"name":"getPendingRewards","outputs":[{"internalType":"address[]","name":"","type":"address[]"},{"internalType":"uint256[]","name":"","type":"uint256[]"}],"stateMutability":"view","type":"function"},{"inputs":[{"internalType":"address","name":"_user","type":"address"}],"name":"getUserInfo","outputs":[{"internalType":"uint256","name":"","type":"uint256"},{"internalType":"uint256","name":"","type":"uint256"},{"internalType":"uint256","name":"","type":"uint256"}],"stateMutability":"view","type":"function"},{"inputs":[{"internalType":"address","name":"spender","type":"address"},{"internalType":"uint256","name":"addedValue","type":"uint256"}],"name":"increaseAllowance","outputs":[{"internalType":"bool","name":"","type":"bool"}],"stateMutability":"nonpayable","type":"function"},{"inputs":[],"name":"name","outputs":[{"internalType":"string","name":"","type":"string"}],"stateMutability":"view","type":"function"},{"inputs":[{"internalType":"address","name":"_activePool","type":"address"},{"internalType":"address","name":"_TML","type":"address"},{"internalType":"address","name":"_TMR","type":"address"},{"internalType":"address","name":"_defaultPool","type":"address"},{"internalType":"address","name":"_stabilityPool","type":"address"},{"internalType":"address","name":"_YetiFinanceTreasury","type":"address"},{"internalType":"address","name":"_borrowerOperations","type":"address"},{"internalType":"address","name":"_collSurplusPool","type":"address"}],"name":"setAddresses","outputs":[],"stateMutability":"nonpayable","type":"function"},{"inputs":[],"name":"symbol","outputs":[{"internalType":"string","name":"","type":"string"}],"stateMutability":"view","type":"function"},{"inputs":[],"name":"totalSupply","outputs":[{"internalType":"uint256","name":"","type":"uint256"}],"stateMutability":"view","type":"function"},{"inputs":[{"internalType":"address","name":"_to","type":"address"},{"internalType":"uint256","name":"_amount","type":"uint256"}],"name":"transfer","outputs":[{"internalType":"bool","name":"success","type":"bool"}],"stateMutability":"nonpayable","type":"function"},{"inputs":[{"internalType":"address","name":"_from","type":"address"},{"internalType":"address","name":"_to","type":"address"},{"internalType":"uint256","name":"_amount","type":"uint256"}],"name":"transferFrom","outputs":[{"internalType":"bool","name":"success","type":"bool"}],"stateMutability":"nonpayable","type":"function"},{"inputs":[{"internalType":"uint256","name":"_amount","type":"uint256"}],"name":"unwrap","outputs":[],"stateMutability":"nonpayable","type":"function"},{"inputs":[{"internalType":"address","name":"_from","type":"address"},{"internalType":"address","name":"_to","type":"address"},{"internalType":"uint256","name":"_amount","type":"uint256"}],"name":"unwrapFor","outputs":[],"stateMutability":"nonpayable","type":"function"},{"inputs":[{"internalType":"address","name":"_from","type":"address"},{"internalType":"address","name":"_to","type":"address"},{"internalType":"uint256","name":"_amount","type":"uint256"}],"name":"updateReward","outputs":[],"stateMutability":"nonpayable","type":"function"},{"inputs":[{"internalType":"uint256","name":"_amount","type":"uint256"},{"internalType":"address","name":"_from","type":"address"},{"internalType":"address","name":"_to","type":"address"},{"internalType":"address","name":"_rewardRecipient","type":"address"}],"name":"wrap","outputs":[],"stateMutability":"nonpayable","type":"function"}],"evm":{"bytecode":{"linkReferences":{},"object":"60e06040523480156200001157600080fd5b5060405162002760380380620027608339810160408190526200003491620002e5565b6200003f84620000c5565b6200004a83620000c5565b6200005582620000c5565b86516200006a9060009060208a019062000176565b5085516200008090600190602089019062000176565b506002805460ff90961660ff19909616959095179094556001600160601b0319606093841b811660805291831b821660a05290911b1660c05260065550620004199050565b6001600160a01b038116620001215760405162461bcd60e51b815260206004820152601e60248201527f4163636f756e742063616e6e6f74206265207a65726f2061646472657373000060448201526064015b60405180910390fd5b803b80620001725760405162461bcd60e51b815260206004820181905260248201527f4163636f756e7420636f64652073697a652063616e6e6f74206265207a65726f604482015260640162000118565b5050565b8280546200018490620003ad565b90600052602060002090601f016020900481019282620001a85760008555620001f3565b82601f10620001c357805160ff1916838001178555620001f3565b82800160010185558215620001f3579182015b82811115620001f3578251825591602001919060010190620001d6565b506200020192915062000205565b5090565b5b8082111562000201576000815560010162000206565b8051620002298162000400565b919050565b600082601f8301126200024057600080fd5b81516001600160401b03808211156200025d576200025d620003ea565b604051601f8301601f19908116603f01168101908282118183101715620002885762000288620003ea565b81604052838152602092508683858801011115620002a557600080fd5b600091505b83821015620002c95785820183015181830184015290820190620002aa565b83821115620002db5760008385830101525b9695505050505050565b600080600080600080600060e0888a0312156200030157600080fd5b87516001600160401b03808211156200031957600080fd5b620003278b838c016200022e565b985060208a01519150808211156200033e57600080fd5b506200034d8a828b016200022e565b965050604088015160ff811681146200036557600080fd5b6060890151909550620003788162000400565b935062000388608089016200021c565b92506200039860a089016200021c565b915060c0880151905092959891949750929550565b600181811c90821680620003c257607f821691505b60208210811415620003e457634e487b7160e01b600052602260045260246000fd5b50919050565b634e487b7160e01b600052604160045260246000fd5b6001600160a01b03811681146200041657600080fd5b50565b60805160601c60a05160601c60c05160601c6122a5620004bb600039600081816103760152818161068a015281816108d70152818161092c0152818161097201528181610de701528181610e910152818161117a01526112320152600081816104660152611aa90152600081816101cf015281816107060152818161082b015281816108b50152818161090a01528181610e630152610fd101526122a56000f3fe608060405234801561001057600080fd5b50600436106101845760003560e01c8063932eeefe116100d9578063d279c19111610087578063d279c191146103c6578063d28d8852146103d9578063d733cfd0146103e1578063dd62ed3e146103f4578063de0e9a3e1461042d578063f6ed201714610440578063ffebad301461046157600080fd5b8063932eeefe1461034357806395d89b4114610356578063a457c2d71461035e578063a5d946de14610371578063a9059cbb14610398578063b09f1266146103ab578063ca70560a146103b357600080fd5b8063313ce56711610136578063313ce5671461025657806332424aa31461026f578063395093511461027c5780633eaaf86b1461028f5780636386c1c7146102985780636fc8a1991461031157806370a082311461031a57600080fd5b806306fdde0314610189578063095ea7b3146101a75780630dc716c8146101ca57806318160ddd1461020957806323b872dd1461021b578063261c80b61461022e5780632c8e8dfa14610243575b600080fd5b610191610488565b60405161019e91906120a7565b60405180910390f35b6101ba6101b5366004611e8e565b61051a565b604051901515815260200161019e565b6101f17f000000000000000000000000000000000000000000000000000000000000000081565b6040516001600160a01b03909116815260200161019e565b6003545b60405190815260200161019e565b6101ba610229366004611e4d565b610530565b61024161023c366004611e4d565b61061b565b005b610241610251366004611e4d565b610732565b60025460ff165b60405160ff909116815260200161019e565b60025461025d9060ff1681565b6101ba61028a366004611e8e565b610745565b61020d60035481565b6102f66102a6366004611d4e565b6001600160a01b03166000908152600f6020908152604091829020825160808101845281548082526001830154938201849052600283015494820185905260039092015460609091015292909190565b6040805193845260208401929092529082015260600161019e565b61020d60065481565b61020d610328366004611d4e565b6001600160a01b031660009081526004602052604090205490565b610241610351366004611f9b565b610781565b610191610a3a565b6101ba61036c366004611e8e565b610a49565b6101f17f000000000000000000000000000000000000000000000000000000000000000081565b6101ba6103a6366004611e8e565b610a80565b610191610b99565b6102416103c1366004611e8e565b610c27565b6102416103d4366004611d4e565b610c4a565b610191610c57565b6102416103ef366004611da4565b610c64565b61020d610402366004611d6b565b6001600160a01b03918216600090815260056020908152604080832093909416825291909152205490565b61024161043b366004611f69565b610db0565b61045361044e366004611d4e565b610e8a565b60405161019e929190612023565b6101f17f000000000000000000000000000000000000000000000000000000000000000081565b606060018054610497906121d3565b80601f01602080910402602001604051908101604052809291908181526020018280546104c3906121d3565b80156105105780601f106104e557610100808354040283529160200191610510565b820191906000526020600020905b8154815290600101906020018083116104f357829003601f168201915b5050505050905090565b6000610527338484611051565b50600192915050565b600d546000906001600160a01b031633148061055657506007546001600160a01b031633145b8061056b5750600a546001600160a01b031633145b15610606576001600160a01b0384166000908152600f602090815260409182902082516080810184528154808252600183015493820193909352600282015493810193909352600301546060830181905284916105c89190612190565b10156105ef5760405162461bcd60e51b81526004016105e6906120da565b60405180910390fd5b82816060018181516106019190612137565b905250505b6106118484846110b2565b90505b9392505050565b6106236110bf565b61062d8384611159565b61063983826000611215565b6001600160a01b0383166000908152600f602052604081206003018054839290610664908490612190565b9091555050600654604051630441a3e760e41b81526004810191909152602481018290527f00000000000000000000000000000000000000000000000000000000000000006001600160a01b03169063441a3e7090604401600060405180830381600087803b1580156106d657600080fd5b505af11580156106ea573d6000803e3d6000fd5b505050506106f83382611362565b5061072d6001600160a01b037f00000000000000000000000000000000000000000000000000000000000000001683836113e9565b505050565b61073a61143f565b61072d8383836114cc565b3360008181526005602090815260408083206001600160a01b0387168452909152812054909161052791859061077c908690612137565b611051565b600d546001600160a01b031633146107ff57336001600160a01b038416146107ff5760405162461bcd60e51b815260206004820152602b60248201527f574a4c503a206d73672e73656e64657220616e64205f66726f6d206d7573742060448201526a6265207468652073616d6560a81b60648201526084016105e6565b6040516323b872dd60e01b81526001600160a01b038481166004830152306024830152604482018690527f000000000000000000000000000000000000000000000000000000000000000016906323b872dd90606401602060405180830381600087803b15801561086f57600080fd5b505af1158015610883573d6000803e3d6000fd5b505050506040513d601f19601f820116820180604052508101906108a79190611eba565b506108fd6001600160a01b037f0000000000000000000000000000000000000000000000000000000000000000167f00000000000000000000000000000000000000000000000000000000000000006000611554565b6109516001600160a01b037f0000000000000000000000000000000000000000000000000000000000000000167f000000000000000000000000000000000000000000000000000000000000000086611667565b600654604051631c57762b60e31b81526004810191909152602481018590527f00000000000000000000000000000000000000000000000000000000000000006001600160a01b03169063e2bbb15890604401600060405180830381600087803b1580156109be57600080fd5b505af11580156109d2573d6000803e3d6000fd5b505050506109e281856001611215565b6109ec8285611716565b506007546001600160a01b0383811691161415610a34576001600160a01b0381166000908152600f602052604081206003018054869290610a2e908490612137565b90915550505b50505050565b606060008054610497906121d3565b3360008181526005602090815260408083206001600160a01b0387168452909152812054909161052791859061077c908690612190565b600d546000906001600160a01b0316331480610aa657506007546001600160a01b031633145b80610abb5750600a546001600160a01b031633145b15610b8f57600b546001600160a01b03848116911614801590610aec5750600a546001600160a01b03848116911614155b8015610b065750600e546001600160a01b03848116911614155b15610b8f57336000908152600f60209081526040918290208251608081018452815480825260018301549382019390935260028201549381019390935260030154606083018190528491610b5a9190612190565b1015610b785760405162461bcd60e51b81526004016105e6906120da565b8281606001818151610b8a9190612137565b905250505b6106148383611790565b60008054610ba6906121d3565b80601f0160208091040260200160405190810160405280929190818152602001828054610bd2906121d3565b8015610c1f5780601f10610bf457610100808354040283529160200191610c1f565b820191906000526020600020905b815481529060010190602001808311610c0257829003601f168201915b505050505081565b610c2f61187c565b600c54610c46906001600160a01b031683836114cc565b5050565b610c543382611159565b50565b60018054610ba6906121d3565b600e54600160a01b900460ff1615610cca5760405162461bcd60e51b815260206004820152602360248201527f7365744164647265737365733a2041646472657373657320616c7265616479206044820152621cd95d60ea1b60648201526084016105e6565b610cd388611900565b610cdc87611900565b610ce586611900565b610cee85611900565b610cf784611900565b610d0083611900565b610d0982611900565b610d1281611900565b600780546001600160a01b03199081166001600160a01b039a8b1617909155600880548216988a169890981790975560098054881696891696909617909555600a8054871694881694909417909355600b8054861692871692909217909155600c80548516918616919091179055600d805490931690841617909155600e8054600160a01b929093166001600160a81b031990931692909217179055565b610dba3333611159565b610dc633826000611215565b600654604051630441a3e760e41b81526004810191909152602481018290527f00000000000000000000000000000000000000000000000000000000000000006001600160a01b03169063441a3e7090604401600060405180830381600087803b158015610e3357600080fd5b505af1158015610e47573d6000803e3d6000fd5b50505050610e553382611362565b50610c546001600160a01b037f00000000000000000000000000000000000000000000000000000000000000001633836113e9565b60608060007f00000000000000000000000000000000000000000000000000000000000000006001600160a01b0316631526fe276006546040518263ffffffff1660e01b8152600401610edf91815260200190565b60a06040518083038186803b158015610ef757600080fd5b505afa158015610f0b573d6000803e3d6000fd5b505050506040513d601f19601f82011682018060405250810190610f2f9190611edc565b606001516001600160a01b0385166000908152600f6020526040812060028101546001820154825494955091939092919064e8d4a5100090610f72908790612171565b610f7c919061214f565b610f869190612190565b604080516001808252818301909252919250600091906020808301908036833750506040805160018082528183019092529293506000929150602080830190803683370190505090507f00000000000000000000000000000000000000000000000000000000000000008260008151811061100357611003612224565b6001600160a01b03909216602092830291909101909101526110258385612137565b8160008151811061103857611038612224565b6020908102919091010152909890975095505050505050565b6001600160a01b0383811660008181526005602090815260408083209487168084529482529182902085905590518481527f8c5be1e5ebec7d5bd14f71427d1e84f3dd0314c0f7b2291e5b200ac8c7c3b925910160405180910390a3505050565b60006106118484846119a5565b6007546001600160a01b03163314806110e25750600b546001600160a01b031633145b806110f75750600e546001600160a01b031633145b6111575760405162461bcd60e51b815260206004820152602b60248201527f43616c6c6572206973206e6f742061637469766520706f6f6c206f722073746160448201526a189a5b1a5d1e481c1bdbdb60aa1b60648201526084016105e6565b565b600654604051630441a3e760e41b81526004810191909152600060248201527f00000000000000000000000000000000000000000000000000000000000000006001600160a01b03169063441a3e7090604401600060405180830381600087803b1580156111c657600080fd5b505af11580156111da573d6000803e3d6000fd5b505050506111eb8260006001611215565b6001600160a01b0382166000908152600f60205260408120600201805491905561072d8282611a94565b600654604051631526fe2760e01b81526000916001600160a01b037f00000000000000000000000000000000000000000000000000000000000000001691631526fe27916112699160040190815260200190565b60a06040518083038186803b15801561128157600080fd5b505afa158015611295573d6000803e3d6000fd5b505050506040513d601f19601f820116820180604052508101906112b99190611edc565b606001516001600160a01b0385166000908152600f60205260409020805491925090801561131057600182015464e8d4a510006112f68584612171565b611300919061214f565b61130a9190612190565b60028301555b8315611327576113208582612137565b8255611334565b6113318582612190565b82555b815464e8d4a5100090611348908590612171565b611352919061214f565b8260010181905550505050505050565b6001600160a01b038216600090815260046020526040812054611386908390612190565b6001600160a01b0384166000908152600460205260409020556003546113ad908390612190565b6003556040518281526000906001600160a01b03851690600080516020612250833981519152906020015b60405180910390a350600192915050565b61072d8363a9059cbb60e01b848460405160240161140892919061200a565b60408051601f198184030181529190526020810180516001600160e01b03166001600160e01b031990931692909217909152611b67565b6008546001600160a01b031633148061146257506009546001600160a01b031633145b806114775750600a546001600160a01b031633145b8061148c5750600d546001600160a01b031633145b6111575760405162461bcd60e51b815260206004820152601160248201527010d85b1b195c881a5cc81b9bdd08131491607a1b60448201526064016105e6565b6114d68384611159565b6114e283826000611215565b6001600160a01b0383166000908152600f60205260408120600301805483929061150d908490612190565b9091555061151f905082826001611215565b6001600160a01b0382166000908152600f60205260408120600301805483929061154a908490612137565b9091555050505050565b8015806115dd5750604051636eb1769f60e11b81523060048201526001600160a01b03838116602483015284169063dd62ed3e9060440160206040518083038186803b1580156115a357600080fd5b505afa1580156115b7573d6000803e3d6000fd5b505050506040513d601f19601f820116820180604052508101906115db9190611f82565b155b6116485760405162461bcd60e51b815260206004820152603660248201527f5361666545524332303a20617070726f76652066726f6d206e6f6e2d7a65726f60448201527520746f206e6f6e2d7a65726f20616c6c6f77616e636560501b60648201526084016105e6565b61072d8363095ea7b360e01b848460405160240161140892919061200a565b604051636eb1769f60e11b81523060048201526001600160a01b038381166024830152600091839186169063dd62ed3e9060440160206040518083038186803b1580156116b357600080fd5b505afa1580156116c7573d6000803e3d6000fd5b505050506040513d601f19601f820116820180604052508101906116eb9190611f82565b6116f59190612137565b9050610a348463095ea7b360e01b858460405160240161140892919061200a565b6001600160a01b03821660009081526004602052604081205461173a908390612137565b6001600160a01b038416600090815260046020526040902055600354611761908390612137565b6003556040518281526001600160a01b03841690600090600080516020612250833981519152906020016113d8565b3360009081526004602052604081205482111561180c5760405162461bcd60e51b815260206004820152603460248201527f596f752061726520747279696e6720746f207472616e73666572206d6f726520604482015273746f6b656e73207468616e20796f75206861766560601b60648201526084016105e6565b33600090815260046020526040808220805485900390556001600160a01b038516825290205461183d908390612137565b6001600160a01b038416600081815260046020526040908190209290925590513390600080516020612250833981519152906113d89086815260200190565b600b546001600160a01b031633148061189f5750600a546001600160a01b031633145b6111575760405162461bcd60e51b815260206004820152602c60248201527f43616c6c6572206973206e6f742073746162696c69747920706f6f6c206f722060448201526b191959985d5b1d081c1bdbdb60a21b60648201526084016105e6565b6001600160a01b0381166119565760405162461bcd60e51b815260206004820152601e60248201527f4163636f756e742063616e6e6f74206265207a65726f2061646472657373000060448201526064016105e6565b803b80610c465760405162461bcd60e51b815260206004820181905260248201527f4163636f756e7420636f64652073697a652063616e6e6f74206265207a65726f60448201526064016105e6565b6001600160a01b0383166000908152600460205260408120546119c9908390612190565b6001600160a01b0385166000908152600460209081526040808320939093556005815282822033835290522054611a01908390612190565b6001600160a01b038086166000908152600560209081526040808320338452825280832094909455918616815260049091522054611a40908390612137565b6001600160a01b03808516600081815260046020526040908190209390935591519086169060008051602061225083398151915290611a829086815260200190565b60405180910390a35060019392505050565b6040516370a0823160e01b81523060048201527f0000000000000000000000000000000000000000000000000000000000000000906000906001600160a01b038316906370a082319060240160206040518083038186803b158015611af857600080fd5b505afa158015611b0c573d6000803e3d6000fd5b505050506040513d601f19601f82011682018060405250810190611b309190611f82565b905080831115611b5357611b4e6001600160a01b03831685836113e9565b610a34565b610a346001600160a01b03831685856113e9565b6000611bbc826040518060400160405280602081526020017f5361666545524332303a206c6f772d6c6576656c2063616c6c206661696c6564815250856001600160a01b0316611c3a9092919063ffffffff16565b9050805160001461072d5780806020019051810190611bdb9190611eba565b61072d5760405162461bcd60e51b815260206004820152602a60248201527f5361666545524332303a204552433230206f7065726174696f6e20646964206e6044820152691bdd081cdd58d8d9595960b21b60648201526084016105e6565b60606106118484600085856001600160a01b0385163b611c9c5760405162461bcd60e51b815260206004820152601d60248201527f416464726573733a2063616c6c20746f206e6f6e2d636f6e747261637400000060448201526064016105e6565b600080866001600160a01b03168587604051611cb89190611fee565b60006040518083038185875af1925050503d8060008114611cf5576040519150601f19603f3d011682016040523d82523d6000602084013e611cfa565b606091505b5091509150611d0a828286611d15565b979650505050505050565b60608315611d24575081610614565b825115611d345782518084602001fd5b8160405162461bcd60e51b81526004016105e691906120a7565b600060208284031215611d6057600080fd5b81356106148161223a565b60008060408385031215611d7e57600080fd5b8235611d898161223a565b91506020830135611d998161223a565b809150509250929050565b600080600080600080600080610100898b031215611dc157600080fd5b8835611dcc8161223a565b97506020890135611ddc8161223a565b96506040890135611dec8161223a565b95506060890135611dfc8161223a565b94506080890135611e0c8161223a565b935060a0890135611e1c8161223a565b925060c0890135611e2c8161223a565b915060e0890135611e3c8161223a565b809150509295985092959890939650565b600080600060608486031215611e6257600080fd5b8335611e6d8161223a565b92506020840135611e7d8161223a565b929592945050506040919091013590565b60008060408385031215611ea157600080fd5b8235611eac8161223a565b946020939093013593505050565b600060208284031215611ecc57600080fd5b8151801515811461061457600080fd5b600060a08284031215611eee57600080fd5b60405160a0810181811067ffffffffffffffff82111715611f1f57634e487b7160e01b600052604160045260246000fd5b6040528251611f2d8161223a565b808252506020830151602082015260408301516040820152606083015160608201526080830151611f5d8161223a565b60808201529392505050565b600060208284031215611f7b57600080fd5b5035919050565b600060208284031215611f9457600080fd5b5051919050565b60008060008060808587031215611fb157600080fd5b843593506020850135611fc38161223a565b92506040850135611fd38161223a565b91506060850135611fe38161223a565b939692955090935050565b600082516120008184602087016121a7565b9190910192915050565b6001600160a01b03929092168252602082015260400190565b604080825283519082018190526000906020906060840190828701845b828110156120655781516001600160a01b031684529284019290840190600101612040565b5050508381038285015284518082528583019183019060005b8181101561209a5783518352928401929184019160010161207e565b5090979650505050505050565b60208152600082518060208401526120c68160408501602087016121a7565b601f01601f19169190910160400192915050565b6020808252603b908201527f5265776172642062616c616e6365206e6f742073756666696369656e7420746f60408201527f207472616e7366657220696e746f20596574692046696e616e63650000000000606082015260800190565b6000821982111561214a5761214a61220e565b500190565b60008261216c57634e487b7160e01b600052601260045260246000fd5b500490565b600081600019048311821515161561218b5761218b61220e565b500290565b6000828210156121a2576121a261220e565b500390565b60005b838110156121c25781810151838201526020016121aa565b83811115610a345750506000910152565b600181811c908216806121e757607f821691505b6020821081141561220857634e487b7160e01b600052602260045260246000fd5b50919050565b634e487b7160e01b600052601160045260246000fd5b634e487b7160e01b600052603260045260246000fd5b6001600160a01b0381168114610c5457600080fdfeddf252ad1be2c89b69c2b068fc378daa952ba7f163c4a11628f55a4df523b3efa26469706673582212201eed2711e3752204129b5fce4f647e72409d68a36b11228f38df9374934e2e6064736f6c63430008070033","opcodes":"PUSH1 0xE0 PUSH1 0x40 MSTORE CALLVALUE DUP1 ISZERO PUSH3 0x11 JUMPI PUSH1 0x0 DUP1 REVERT JUMPDEST POP PUSH1 0x40 MLOAD PUSH3 0x2760 CODESIZE SUB DUP1 PUSH3 0x2760 DUP4 CODECOPY DUP2 ADD PUSH1 0x40 DUP2 SWAP1 MSTORE PUSH3 0x34 SWAP2 PUSH3 0x2E5 JUMP JUMPDEST PUSH3 0x3F DUP5 PUSH3 0xC5 JUMP JUMPDEST PUSH3 0x4A DUP4 PUSH3 0xC5 JUMP JUMPDEST PUSH3 0x55 DUP3 PUSH3 0xC5 JUMP JUMPDEST DUP7 MLOAD PUSH3 0x6A SWAP1 PUSH1 0x0 SWAP1 PUSH1 0x20 DUP11 ADD SWAP1 PUSH3 0x176 JUMP JUMPDEST POP DUP6 MLOAD PUSH3 0x80 SWAP1 PUSH1 0x1 SWAP1 PUSH1 0x20 DUP10 ADD SWAP1 PUSH3 0x176 JUMP JUMPDEST POP PUSH1 0x2 DUP1 SLOAD PUSH1 0xFF SWAP1 SWAP7 AND PUSH1 0xFF NOT SWAP1 SWAP7 AND SWAP6 SWAP1 SWAP6 OR SWAP1 SWAP5 SSTORE PUSH1 0x1 PUSH1 0x1 PUSH1 0x60 SHL SUB NOT PUSH1 0x60 SWAP4 DUP5 SHL DUP2 AND PUSH1 0x80 MSTORE SWAP2 DUP4 SHL DUP3 AND PUSH1 0xA0 MSTORE SWAP1 SWAP2 SHL AND PUSH1 0xC0 MSTORE PUSH1 0x6 SSTORE POP PUSH3 0x419 SWAP1 POP JUMP JUMPDEST PUSH1 0x1 PUSH1 0x1 PUSH1 0xA0 SHL SUB DUP2 AND PUSH3 0x121 JUMPI PUSH1 0x40 MLOAD PUSH3 0x461BCD PUSH1 0xE5 SHL DUP2 MSTORE PUSH1 0x20 PUSH1 0x4 DUP3 ADD MSTORE PUSH1 0x1E PUSH1 0x24 DUP3 ADD MSTORE PUSH32 0x4163636F756E742063616E6E6F74206265207A65726F20616464726573730000 PUSH1 0x44 DUP3 ADD MSTORE PUSH1 0x64 ADD JUMPDEST PUSH1 0x40 MLOAD DUP1 SWAP2 SUB SWAP1 REVERT JUMPDEST DUP1 EXTCODESIZE DUP1 PUSH3 0x172 JUMPI PUSH1 0x40 MLOAD PUSH3 0x461BCD PUSH1 0xE5 SHL DUP2 MSTORE PUSH1 0x20 PUSH1 0x4 DUP3 ADD DUP2 SWAP1 MSTORE PUSH1 0x24 DUP3 ADD MSTORE PUSH32 0x4163636F756E7420636F64652073697A652063616E6E6F74206265207A65726F PUSH1 0x44 DUP3 ADD MSTORE PUSH1 0x64 ADD PUSH3 0x118 JUMP JUMPDEST POP POP JUMP JUMPDEST DUP3 DUP1 SLOAD PUSH3 0x184 SWAP1 PUSH3 0x3AD JUMP JUMPDEST SWAP1 PUSH1 0x0 MSTORE PUSH1 0x20 PUSH1 0x0 KECCAK256 SWAP1 PUSH1 0x1F ADD PUSH1 0x20 SWAP1 DIV DUP2 ADD SWAP3 DUP3 PUSH3 0x1A8 JUMPI PUSH1 0x0 DUP6 SSTORE PUSH3 0x1F3 JUMP JUMPDEST DUP3 PUSH1 0x1F LT PUSH3 0x1C3 JUMPI DUP1 MLOAD PUSH1 0xFF NOT AND DUP4 DUP1 ADD OR DUP6 SSTORE PUSH3 0x1F3 JUMP JUMPDEST DUP3 DUP1 ADD PUSH1 0x1 ADD DUP6 SSTORE DUP3 ISZERO PUSH3 0x1F3 JUMPI SWAP2 DUP3 ADD JUMPDEST DUP3 DUP2 GT ISZERO PUSH3 0x1F3 JUMPI DUP3 MLOAD DUP3 SSTORE SWAP2 PUSH1 0x20 ADD SWAP2 SWAP1 PUSH1 0x1 ADD SWAP1 PUSH3 0x1D6 JUMP JUMPDEST POP PUSH3 0x201 SWAP3 SWAP2 POP PUSH3 0x205 JUMP JUMPDEST POP SWAP1 JUMP JUMPDEST JUMPDEST DUP1 DUP3 GT ISZERO PUSH3 0x201 JUMPI PUSH1 0x0 DUP2 SSTORE PUSH1 0x1 ADD PUSH3 0x206 JUMP JUMPDEST DUP1 MLOAD PUSH3 0x229 DUP2 PUSH3 0x400 JUMP JUMPDEST SWAP2 SWAP1 POP JUMP JUMPDEST PUSH1 0x0 DUP3 PUSH1 0x1F DUP4 ADD SLT PUSH3 0x240 JUMPI PUSH1 0x0 DUP1 REVERT JUMPDEST DUP2 MLOAD PUSH1 0x1 PUSH1 0x1 PUSH1 0x40 SHL SUB DUP1 DUP3 GT ISZERO PUSH3 0x25D JUMPI PUSH3 0x25D PUSH3 0x3EA JUMP JUMPDEST PUSH1 0x40 MLOAD PUSH1 0x1F DUP4 ADD PUSH1 0x1F NOT SWAP1 DUP2 AND PUSH1 0x3F ADD AND DUP2 ADD SWAP1 DUP3 DUP3 GT DUP2 DUP4 LT OR ISZERO PUSH3 0x288 JUMPI PUSH3 0x288 PUSH3 0x3EA JUMP JUMPDEST DUP2 PUSH1 0x40 MSTORE DUP4 DUP2 MSTORE PUSH1 0x20 SWAP3 POP DUP7 DUP4 DUP6 DUP9 ADD ADD GT ISZERO PUSH3 0x2A5 JUMPI PUSH1 0x0 DUP1 REVERT JUMPDEST PUSH1 0x0 SWAP2 POP JUMPDEST DUP4 DUP3 LT ISZERO PUSH3 0x2C9 JUMPI DUP6 DUP3 ADD DUP4 ADD MLOAD DUP2 DUP4 ADD DUP5 ADD MSTORE SWAP1 DUP3 ADD SWAP1 PUSH3 0x2AA JUMP JUMPDEST DUP4 DUP3 GT ISZERO PUSH3 0x2DB JUMPI PUSH1 0x0 DUP4 DUP6 DUP4 ADD ADD MSTORE JUMPDEST SWAP7 SWAP6 POP POP POP POP POP POP JUMP JUMPDEST PUSH1 0x0 DUP1 PUSH1 0x0 DUP1 PUSH1 0x0 DUP1 PUSH1 0x0 PUSH1 0xE0 DUP9 DUP11 SUB SLT ISZERO PUSH3 0x301 JUMPI PUSH1 0x0 DUP1 REVERT JUMPDEST DUP8 MLOAD PUSH1 0x1 PUSH1 0x1 PUSH1 0x40 SHL SUB DUP1 DUP3 GT ISZERO PUSH3 0x319 JUMPI PUSH1 0x0 DUP1 REVERT JUMPDEST PUSH3 0x327 DUP12 DUP4 DUP13 ADD PUSH3 0x22E JUMP JUMPDEST SWAP9 POP PUSH1 0x20 DUP11 ADD MLOAD SWAP2 POP DUP1 DUP3 GT ISZERO PUSH3 0x33E JUMPI PUSH1 0x0 DUP1 REVERT JUMPDEST POP PUSH3 0x34D DUP11 DUP3 DUP12 ADD PUSH3 0x22E JUMP JUMPDEST SWAP7 POP POP PUSH1 0x40 DUP9 ADD MLOAD PUSH1 0xFF DUP2 AND DUP2 EQ PUSH3 0x365 JUMPI PUSH1 0x0 DUP1 REVERT JUMPDEST PUSH1 0x60 DUP10 ADD MLOAD SWAP1 SWAP6 POP PUSH3 0x378 DUP2 PUSH3 0x400 JUMP JUMPDEST SWAP4 POP PUSH3 0x388 PUSH1 0x80 DUP10 ADD PUSH3 0x21C JUMP JUMPDEST SWAP3 POP PUSH3 0x398 PUSH1 0xA0 DUP10 ADD PUSH3 0x21C JUMP JUMPDEST SWAP2 POP PUSH1 0xC0 DUP9 ADD MLOAD SWAP1 POP SWAP3 SWAP6 SWAP9 SWAP2 SWAP5 SWAP8 POP SWAP3 SWAP6 POP JUMP JUMPDEST PUSH1 0x1 DUP2 DUP2 SHR SWAP1 DUP3 AND DUP1 PUSH3 0x3C2 JUMPI PUSH1 0x7F DUP3 AND SWAP2 POP JUMPDEST PUSH1 0x20 DUP3 LT DUP2 EQ ISZERO PUSH3 0x3E4 JUMPI PUSH4 0x4E487B71 PUSH1 0xE0 SHL PUSH1 0x0 MSTORE PUSH1 0x22 PUSH1 0x4 MSTORE PUSH1 0x24 PUSH1 0x0 REVERT JUMPDEST POP SWAP2 SWAP1 POP JUMP JUMPDEST PUSH4 0x4E487B71 PUSH1 0xE0 SHL PUSH1 0x0 MSTORE PUSH1 0x41 PUSH1 0x4 MSTORE PUSH1 0x24 PUSH1 0x0 REVERT JUMPDEST PUSH1 0x1 PUSH1 0x1 PUSH1 0xA0 SHL SUB DUP2 AND DUP2 EQ PUSH3 0x416 JUMPI PUSH1 0x0 DUP1 REVERT JUMPDEST POP JUMP JUMPDEST PUSH1 0x80 MLOAD PUSH1 0x60 SHR PUSH1 0xA0 MLOAD PUSH1 0x60 SHR PUSH1 0xC0 MLOAD PUSH1 0x60 SHR PUSH2 0x22A5 PUSH3 0x4BB PUSH1 0x0 CODECOPY PUSH1 0x0 DUP2 DUP2 PUSH2 0x376 ADD MSTORE DUP2 DUP2 PUSH2 0x68A ADD MSTORE DUP2 DUP2 PUSH2 0x8D7 ADD MSTORE DUP2 DUP2 PUSH2 0x92C ADD MSTORE DUP2 DUP2 PUSH2 0x972 ADD MSTORE DUP2 DUP2 PUSH2 0xDE7 ADD MSTORE DUP2 DUP2 PUSH2 0xE91 ADD MSTORE DUP2 DUP2 PUSH2 0x117A ADD MSTORE PUSH2 0x1232 ADD MSTORE PUSH1 0x0 DUP2 DUP2 PUSH2 0x466 ADD MSTORE PUSH2 0x1AA9 ADD MSTORE PUSH1 0x0 DUP2 DUP2 PUSH2 0x1CF ADD MSTORE DUP2 DUP2 PUSH2 0x706 ADD MSTORE DUP2 DUP2 PUSH2 0x82B ADD MSTORE DUP2 DUP2 PUSH2 0x8B5 ADD MSTORE DUP2 DUP2 PUSH2 0x90A ADD MSTORE DUP2 DUP2 PUSH2 0xE63 ADD MSTORE PUSH2 0xFD1 ADD MSTORE PUSH2 0x22A5 PUSH1 0x0 RETURN INVALID PUSH1 0x80 PUSH1 0x40 MSTORE CALLVALUE DUP1 ISZERO PUSH2 0x10 JUMPI PUSH1 0x0 DUP1 REVERT JUMPDEST POP PUSH1 0x4 CALLDATASIZE LT PUSH2 0x184 JUMPI PUSH1 0x0 CALLDATALOAD PUSH1 0xE0 SHR DUP1 PUSH4 0x932EEEFE GT PUSH2 0xD9 JUMPI DUP1 PUSH4 0xD279C191 GT PUSH2 0x87 JUMPI DUP1 PUSH4 0xD279C191 EQ PUSH2 0x3C6 JUMPI DUP1 PUSH4 0xD28D8852 EQ PUSH2 0x3D9 JUMPI DUP1 PUSH4 0xD733CFD0 EQ PUSH2 0x3E1 JUMPI DUP1 PUSH4 0xDD62ED3E EQ PUSH2 0x3F4 JUMPI DUP1 PUSH4 0xDE0E9A3E EQ PUSH2 0x42D JUMPI DUP1 PUSH4 0xF6ED2017 EQ PUSH2 0x440 JUMPI DUP1 PUSH4 0xFFEBAD30 EQ PUSH2 0x461 JUMPI PUSH1 0x0 DUP1 REVERT JUMPDEST DUP1 PUSH4 0x932EEEFE EQ PUSH2 0x343 JUMPI DUP1 PUSH4 0x95D89B41 EQ PUSH2 0x356 JUMPI DUP1 PUSH4 0xA457C2D7 EQ PUSH2 0x35E JUMPI DUP1 PUSH4 0xA5D946DE EQ PUSH2 0x371 JUMPI DUP1 PUSH4 0xA9059CBB EQ PUSH2 0x398 JUMPI DUP1 PUSH4 0xB09F1266 EQ PUSH2 0x3AB JUMPI DUP1 PUSH4 0xCA70560A EQ PUSH2 0x3B3 JUMPI PUSH1 0x0 DUP1 REVERT JUMPDEST DUP1 PUSH4 0x313CE567 GT PUSH2 0x136 JUMPI DUP1 PUSH4 0x313CE567 EQ PUSH2 0x256 JUMPI DUP1 PUSH4 0x32424AA3 EQ PUSH2 0x26F JUMPI DUP1 PUSH4 0x39509351 EQ PUSH2 0x27C JUMPI DUP1 PUSH4 0x3EAAF86B EQ PUSH2 0x28F JUMPI DUP1 PUSH4 0x6386C1C7 EQ PUSH2 0x298 JUMPI DUP1 PUSH4 0x6FC8A199 EQ PUSH2 0x311 JUMPI DUP1 PUSH4 0x70A08231 EQ PUSH2 0x31A JUMPI PUSH1 0x0 DUP1 REVERT JUMPDEST DUP1 PUSH4 0x6FDDE03 EQ PUSH2 0x189 JUMPI DUP1 PUSH4 0x95EA7B3 EQ PUSH2 0x1A7 JUMPI DUP1 PUSH4 0xDC716C8 EQ PUSH2 0x1CA JUMPI DUP1 PUSH4 0x18160DDD EQ PUSH2 0x209 JUMPI DUP1 PUSH4 0x23B872DD EQ PUSH2 0x21B JUMPI DUP1 PUSH4 0x261C80B6 EQ PUSH2 0x22E JUMPI DUP1 PUSH4 0x2C8E8DFA EQ PUSH2 0x243 JUMPI JUMPDEST PUSH1 0x0 DUP1 REVERT JUMPDEST PUSH2 0x191 PUSH2 0x488 JUMP JUMPDEST PUSH1 0x40 MLOAD PUSH2 0x19E SWAP2 SWAP1 PUSH2 0x20A7 JUMP JUMPDEST PUSH1 0x40 MLOAD DUP1 SWAP2 SUB SWAP1 RETURN JUMPDEST PUSH2 0x1BA PUSH2 0x1B5 CALLDATASIZE PUSH1 0x4 PUSH2 0x1E8E JUMP JUMPDEST PUSH2 0x51A JUMP JUMPDEST PUSH1 0x40 MLOAD SWAP1 ISZERO ISZERO DUP2 MSTORE PUSH1 0x20 ADD PUSH2 0x19E JUMP JUMPDEST PUSH2 0x1F1 PUSH32 0x0 DUP2 JUMP JUMPDEST PUSH1 0x40 MLOAD PUSH1 0x1 PUSH1 0x1 PUSH1 0xA0 SHL SUB SWAP1 SWAP2 AND DUP2 MSTORE PUSH1 0x20 ADD PUSH2 0x19E JUMP JUMPDEST PUSH1 0x3 SLOAD JUMPDEST PUSH1 0x40 MLOAD SWAP1 DUP2 MSTORE PUSH1 0x20 ADD PUSH2 0x19E JUMP JUMPDEST PUSH2 0x1BA PUSH2 0x229 CALLDATASIZE PUSH1 0x4 PUSH2 0x1E4D JUMP JUMPDEST PUSH2 0x530 JUMP JUMPDEST PUSH2 0x241 PUSH2 0x23C CALLDATASIZE PUSH1 0x4 PUSH2 0x1E4D JUMP JUMPDEST PUSH2 0x61B JUMP JUMPDEST STOP JUMPDEST PUSH2 0x241 PUSH2 0x251 CALLDATASIZE PUSH1 0x4 PUSH2 0x1E4D JUMP JUMPDEST PUSH2 0x732 JUMP JUMPDEST PUSH1 0x2 SLOAD PUSH1 0xFF AND JUMPDEST PUSH1 0x40 MLOAD PUSH1 0xFF SWAP1 SWAP2 AND DUP2 MSTORE PUSH1 0x20 ADD PUSH2 0x19E JUMP JUMPDEST PUSH1 0x2 SLOAD PUSH2 0x25D SWAP1 PUSH1 0xFF AND DUP2 JUMP JUMPDEST PUSH2 0x1BA PUSH2 0x28A CALLDATASIZE PUSH1 0x4 PUSH2 0x1E8E JUMP JUMPDEST PUSH2 0x745 JUMP JUMPDEST PUSH2 0x20D PUSH1 0x3 SLOAD DUP2 JUMP JUMPDEST PUSH2 0x2F6 PUSH2 0x2A6 CALLDATASIZE PUSH1 0x4 PUSH2 0x1D4E JUMP JUMPDEST PUSH1 0x1 PUSH1 0x1 PUSH1 0xA0 SHL SUB AND PUSH1 0x0 SWAP1 DUP2 MSTORE PUSH1 0xF PUSH1 0x20 SWAP1 DUP2 MSTORE PUSH1 0x40 SWAP2 DUP3 SWAP1 KECCAK256 DUP3 MLOAD PUSH1 0x80 DUP2 ADD DUP5 MSTORE DUP2 SLOAD DUP1 DUP3 MSTORE PUSH1 0x1 DUP4 ADD SLOAD SWAP4 DUP3 ADD DUP5 SWAP1 MSTORE PUSH1 0x2 DUP4 ADD SLOAD SWAP5 DUP3 ADD DUP6 SWAP1 MSTORE PUSH1 0x3 SWAP1 SWAP3 ADD SLOAD PUSH1 0x60 SWAP1 SWAP2 ADD MSTORE SWAP3 SWAP1 SWAP2 SWAP1 JUMP JUMPDEST PUSH1 0x40 DUP1 MLOAD SWAP4 DUP5 MSTORE PUSH1 0x20 DUP5 ADD SWAP3 SWAP1 SWAP3 MSTORE SWAP1 DUP3 ADD MSTORE PUSH1 0x60 ADD PUSH2 0x19E JUMP JUMPDEST PUSH2 0x20D PUSH1 0x6 SLOAD DUP2 JUMP JUMPDEST PUSH2 0x20D PUSH2 0x328 CALLDATASIZE PUSH1 0x4 PUSH2 0x1D4E JUMP JUMPDEST PUSH1 0x1 PUSH1 0x1 PUSH1 0xA0 SHL SUB AND PUSH1 0x0 SWAP1 DUP2 MSTORE PUSH1 0x4 PUSH1 0x20 MSTORE PUSH1 0x40 SWAP1 KECCAK256 SLOAD SWAP1 JUMP JUMPDEST PUSH2 0x241 PUSH2 0x351 CALLDATASIZE PUSH1 0x4 PUSH2 0x1F9B JUMP JUMPDEST PUSH2 0x781 JUMP JUMPDEST PUSH2 0x191 PUSH2 0xA3A JUMP JUMPDEST PUSH2 0x1BA PUSH2 0x36C CALLDATASIZE PUSH1 0x4 PUSH2 0x1E8E JUMP JUMPDEST PUSH2 0xA49 JUMP JUMPDEST PUSH2 0x1F1 PUSH32 0x0 DUP2 JUMP JUMPDEST PUSH2 0x1BA PUSH2 0x3A6 CALLDATASIZE PUSH1 0x4 PUSH2 0x1E8E JUMP JUMPDEST PUSH2 0xA80 JUMP JUMPDEST PUSH2 0x191 PUSH2 0xB99 JUMP JUMPDEST PUSH2 0x241 PUSH2 0x3C1 CALLDATASIZE PUSH1 0x4 PUSH2 0x1E8E JUMP JUMPDEST PUSH2 0xC27 JUMP JUMPDEST PUSH2 0x241 PUSH2 0x3D4 CALLDATASIZE PUSH1 0x4 PUSH2 0x1D4E JUMP JUMPDEST PUSH2 0xC4A JUMP JUMPDEST PUSH2 0x191 PUSH2 0xC57 JUMP JUMPDEST PUSH2 0x241 PUSH2 0x3EF CALLDATASIZE PUSH1 0x4 PUSH2 0x1DA4 JUMP JUMPDEST PUSH2 0xC64 JUMP JUMPDEST PUSH2 0x20D PUSH2 0x402 CALLDATASIZE PUSH1 0x4 PUSH2 0x1D6B JUMP JUMPDEST PUSH1 0x1 PUSH1 0x1 PUSH1 0xA0 SHL SUB SWAP2 DUP3 AND PUSH1 0x0 SWAP1 DUP2 MSTORE PUSH1 0x5 PUSH1 0x20 SWAP1 DUP2 MSTORE PUSH1 0x40 DUP1 DUP4 KECCAK256 SWAP4 SWAP1 SWAP5 AND DUP3 MSTORE SWAP2 SWAP1 SWAP2 MSTORE KECCAK256 SLOAD SWAP1 JUMP JUMPDEST PUSH2 0x241 PUSH2 0x43B CALLDATASIZE PUSH1 0x4 PUSH2 0x1F69 JUMP JUMPDEST PUSH2 0xDB0 JUMP JUMPDEST PUSH2 0x453 PUSH2 0x44E CALLDATASIZE PUSH1 0x4 PUSH2 0x1D4E JUMP JUMPDEST PUSH2 0xE8A JUMP JUMPDEST PUSH1 0x40 MLOAD PUSH2 0x19E SWAP3 SWAP2 SWAP1 PUSH2 0x2023 JUMP JUMPDEST PUSH2 0x1F1 PUSH32 0x0 DUP2 JUMP JUMPDEST PUSH1 0x60 PUSH1 0x1 DUP1 SLOAD PUSH2 0x497 SWAP1 PUSH2 0x21D3 JUMP JUMPDEST DUP1 PUSH1 0x1F ADD PUSH1 0x20 DUP1 SWAP2 DIV MUL PUSH1 0x20 ADD PUSH1 0x40 MLOAD SWAP1 DUP2 ADD PUSH1 0x40 MSTORE DUP1 SWAP3 SWAP2 SWAP1 DUP2 DUP2 MSTORE PUSH1 0x20 ADD DUP3 DUP1 SLOAD PUSH2 0x4C3 SWAP1 PUSH2 0x21D3 JUMP JUMPDEST DUP1 ISZERO PUSH2 0x510 JUMPI DUP1 PUSH1 0x1F LT PUSH2 0x4E5 JUMPI PUSH2 0x100 DUP1 DUP4 SLOAD DIV MUL DUP4 MSTORE SWAP2 PUSH1 0x20 ADD SWAP2 PUSH2 0x510 JUMP JUMPDEST DUP3 ADD SWAP2 SWAP1 PUSH1 0x0 MSTORE PUSH1 0x20 PUSH1 0x0 KECCAK256 SWAP1 JUMPDEST DUP2 SLOAD DUP2 MSTORE SWAP1 PUSH1 0x1 ADD SWAP1 PUSH1 0x20 ADD DUP1 DUP4 GT PUSH2 0x4F3 JUMPI DUP3 SWAP1 SUB PUSH1 0x1F AND DUP3 ADD SWAP2 JUMPDEST POP POP POP POP POP SWAP1 POP SWAP1 JUMP JUMPDEST PUSH1 0x0 PUSH2 0x527 CALLER DUP5 DUP5 PUSH2 0x1051 JUMP JUMPDEST POP PUSH1 0x1 SWAP3 SWAP2 POP POP JUMP JUMPDEST PUSH1 0xD SLOAD PUSH1 0x0 SWAP1 PUSH1 0x1 PUSH1 0x1 PUSH1 0xA0 SHL SUB AND CALLER EQ DUP1 PUSH2 0x556 JUMPI POP PUSH1 0x7 SLOAD PUSH1 0x1 PUSH1 0x1 PUSH1 0xA0 SHL SUB AND CALLER EQ JUMPDEST DUP1 PUSH2 0x56B JUMPI POP PUSH1 0xA SLOAD PUSH1 0x1 PUSH1 0x1 PUSH1 0xA0 SHL SUB AND CALLER EQ JUMPDEST ISZERO PUSH2 0x606 JUMPI PUSH1 0x1 PUSH1 0x1 PUSH1 0xA0 SHL SUB DUP5 AND PUSH1 0x0 SWAP1 DUP2 MSTORE PUSH1 0xF PUSH1 0x20 SWAP1 DUP2 MSTORE PUSH1 0x40 SWAP2 DUP3 SWAP1 KECCAK256 DUP3 MLOAD PUSH1 0x80 DUP2 ADD DUP5 MSTORE DUP2 SLOAD DUP1 DUP3 MSTORE PUSH1 0x1 DUP4 ADD SLOAD SWAP4 DUP3 ADD SWAP4 SWAP1 SWAP4 MSTORE PUSH1 0x2 DUP3 ADD SLOAD SWAP4 DUP2 ADD SWAP4 SWAP1 SWAP4 MSTORE PUSH1 0x3 ADD SLOAD PUSH1 0x60 DUP4 ADD DUP2 SWAP1 MSTORE DUP5 SWAP2 PUSH2 0x5C8 SWAP2 SWAP1 PUSH2 0x2190 JUMP JUMPDEST LT ISZERO PUSH2 0x5EF JUMPI PUSH1 0x40 MLOAD PUSH3 0x461BCD PUSH1 0xE5 SHL DUP2 MSTORE PUSH1 0x4 ADD PUSH2 0x5E6 SWAP1 PUSH2 0x20DA JUMP JUMPDEST PUSH1 0x40 MLOAD DUP1 SWAP2 SUB SWAP1 REVERT JUMPDEST DUP3 DUP2 PUSH1 0x60 ADD DUP2 DUP2 MLOAD PUSH2 0x601 SWAP2 SWAP1 PUSH2 0x2137 JUMP JUMPDEST SWAP1 MSTORE POP POP JUMPDEST PUSH2 0x611 DUP5 DUP5 DUP5 PUSH2 0x10B2 JUMP JUMPDEST SWAP1 POP JUMPDEST SWAP4 SWAP3 POP POP POP JUMP JUMPDEST PUSH2 0x623 PUSH2 0x10BF JUMP JUMPDEST PUSH2 0x62D DUP4 DUP5 PUSH2 0x1159 JUMP JUMPDEST PUSH2 0x639 DUP4 DUP3 PUSH1 0x0 PUSH2 0x1215 JUMP JUMPDEST PUSH1 0x1 PUSH1 0x1 PUSH1 0xA0 SHL SUB DUP4 AND PUSH1 0x0 SWAP1 DUP2 MSTORE PUSH1 0xF PUSH1 0x20 MSTORE PUSH1 0x40 DUP2 KECCAK256 PUSH1 0x3 ADD DUP1 SLOAD DUP4 SWAP3 SWAP1 PUSH2 0x664 SWAP1 DUP5 SWAP1 PUSH2 0x2190 JUMP JUMPDEST SWAP1 SWAP2 SSTORE POP POP PUSH1 0x6 SLOAD PUSH1 0x40 MLOAD PUSH4 0x441A3E7 PUSH1 0xE4 SHL DUP2 MSTORE PUSH1 0x4 DUP2 ADD SWAP2 SWAP1 SWAP2 MSTORE PUSH1 0x24 DUP2 ADD DUP3 SWAP1 MSTORE PUSH32 0x0 PUSH1 0x1 PUSH1 0x1 PUSH1 0xA0 SHL SUB AND SWAP1 PUSH4 0x441A3E70 SWAP1 PUSH1 0x44 ADD PUSH1 0x0 PUSH1 0x40 MLOAD DUP1 DUP4 SUB DUP2 PUSH1 0x0 DUP8 DUP1 EXTCODESIZE ISZERO DUP1 ISZERO PUSH2 0x6D6 JUMPI PUSH1 0x0 DUP1 REVERT JUMPDEST POP GAS CALL ISZERO DUP1 ISZERO PUSH2 0x6EA JUMPI RETURNDATASIZE PUSH1 0x0 DUP1 RETURNDATACOPY RETURNDATASIZE PUSH1 0x0 REVERT JUMPDEST POP POP POP POP PUSH2 0x6F8 CALLER DUP3 PUSH2 0x1362 JUMP JUMPDEST POP PUSH2 0x72D PUSH1 0x1 PUSH1 0x1 PUSH1 0xA0 SHL SUB PUSH32 0x0 AND DUP4 DUP4 PUSH2 0x13E9 JUMP JUMPDEST POP POP POP JUMP JUMPDEST PUSH2 0x73A PUSH2 0x143F JUMP JUMPDEST PUSH2 0x72D DUP4 DUP4 DUP4 PUSH2 0x14CC JUMP JUMPDEST CALLER PUSH1 0x0 DUP2 DUP2 MSTORE PUSH1 0x5 PUSH1 0x20 SWAP1 DUP2 MSTORE PUSH1 0x40 DUP1 DUP4 KECCAK256 PUSH1 0x1 PUSH1 0x1 PUSH1 0xA0 SHL SUB DUP8 AND DUP5 MSTORE SWAP1 SWAP2 MSTORE DUP2 KECCAK256 SLOAD SWAP1 SWAP2 PUSH2 0x527 SWAP2 DUP6 SWAP1 PUSH2 0x77C SWAP1 DUP7 SWAP1 PUSH2 0x2137 JUMP JUMPDEST PUSH2 0x1051 JUMP JUMPDEST PUSH1 0xD SLOAD PUSH1 0x1 PUSH1 0x1 PUSH1 0xA0 SHL SUB AND CALLER EQ PUSH2 0x7FF JUMPI CALLER PUSH1 0x1 PUSH1 0x1 PUSH1 0xA0 SHL SUB DUP5 AND EQ PUSH2 0x7FF JUMPI PUSH1 0x40 MLOAD PUSH3 0x461BCD PUSH1 0xE5 SHL DUP2 MSTORE PUSH1 0x20 PUSH1 0x4 DUP3 ADD MSTORE PUSH1 0x2B PUSH1 0x24 DUP3 ADD MSTORE PUSH32 0x574A4C503A206D73672E73656E64657220616E64205F66726F6D206D75737420 PUSH1 0x44 DUP3 ADD MSTORE PUSH11 0x6265207468652073616D65 PUSH1 0xA8 SHL PUSH1 0x64 DUP3 ADD MSTORE PUSH1 0x84 ADD PUSH2 0x5E6 JUMP JUMPDEST PUSH1 0x40 MLOAD PUSH4 0x23B872DD PUSH1 0xE0 SHL DUP2 MSTORE PUSH1 0x1 PUSH1 0x1 PUSH1 0xA0 SHL SUB DUP5 DUP2 AND PUSH1 0x4 DUP4 ADD MSTORE ADDRESS PUSH1 0x24 DUP4 ADD MSTORE PUSH1 0x44 DUP3 ADD DUP7 SWAP1 MSTORE PUSH32 0x0 AND SWAP1 PUSH4 0x23B872DD SWAP1 PUSH1 0x64 ADD PUSH1 0x20 PUSH1 0x40 MLOAD DUP1 DUP4 SUB DUP2 PUSH1 0x0 DUP8 DUP1 EXTCODESIZE ISZERO DUP1 ISZERO PUSH2 0x86F JUMPI PUSH1 0x0 DUP1 REVERT JUMPDEST POP GAS CALL ISZERO DUP1 ISZERO PUSH2 0x883 JUMPI RETURNDATASIZE PUSH1 0x0 DUP1 RETURNDATACOPY RETURNDATASIZE PUSH1 0x0 REVERT JUMPDEST POP POP POP POP PUSH1 0x40 MLOAD RETURNDATASIZE PUSH1 0x1F NOT PUSH1 0x1F DUP3 ADD AND DUP3 ADD DUP1 PUSH1 0x40 MSTORE POP DUP2 ADD SWAP1 PUSH2 0x8A7 SWAP2 SWAP1 PUSH2 0x1EBA JUMP JUMPDEST POP PUSH2 0x8FD PUSH1 0x1 PUSH1 0x1 PUSH1 0xA0 SHL SUB PUSH32 0x0 AND PUSH32 0x0 PUSH1 0x0 PUSH2 0x1554 JUMP JUMPDEST PUSH2 0x951 PUSH1 0x1 PUSH1 0x1 PUSH1 0xA0 SHL SUB PUSH32 0x0 AND PUSH32 0x0 DUP7 PUSH2 0x1667 JUMP JUMPDEST PUSH1 0x6 SLOAD PUSH1 0x40 MLOAD PUSH4 0x1C57762B PUSH1 0xE3 SHL DUP2 MSTORE PUSH1 0x4 DUP2 ADD SWAP2 SWAP1 SWAP2 MSTORE PUSH1 0x24 DUP2 ADD DUP6 SWAP1 MSTORE PUSH32 0x0 PUSH1 0x1 PUSH1 0x1 PUSH1 0xA0 SHL SUB AND SWAP1 PUSH4 0xE2BBB158 SWAP1 PUSH1 0x44 ADD PUSH1 0x0 PUSH1 0x40 MLOAD DUP1 DUP4 SUB DUP2 PUSH1 0x0 DUP8 DUP1 EXTCODESIZE ISZERO DUP1 ISZERO PUSH2 0x9BE JUMPI PUSH1 0x0 DUP1 REVERT JUMPDEST POP GAS CALL ISZERO DUP1 ISZERO PUSH2 0x9D2 JUMPI RETURNDATASIZE PUSH1 0x0 DUP1 RETURNDATACOPY RETURNDATASIZE PUSH1 0x0 REVERT JUMPDEST POP POP POP POP PUSH2 0x9E2 DUP2 DUP6 PUSH1 0x1 PUSH2 0x1215 JUMP JUMPDEST PUSH2 0x9EC DUP3 DUP6 PUSH2 0x1716 JUMP JUMPDEST POP PUSH1 0x7 SLOAD PUSH1 0x1 PUSH1 0x1 PUSH1 0xA0 SHL SUB DUP4 DUP2 AND SWAP2 AND EQ ISZERO PUSH2 0xA34 JUMPI PUSH1 0x1 PUSH1 0x1 PUSH1 0xA0 SHL SUB DUP2 AND PUSH1 0x0 SWAP1 DUP2 MSTORE PUSH1 0xF PUSH1 0x20 MSTORE PUSH1 0x40 DUP2 KECCAK256 PUSH1 0x3 ADD DUP1 SLOAD DUP7 SWAP3 SWAP1 PUSH2 0xA2E SWAP1 DUP5 SWAP1 PUSH2 0x2137 JUMP JUMPDEST SWAP1 SWAP2 SSTORE POP POP JUMPDEST POP POP POP POP JUMP JUMPDEST PUSH1 0x60 PUSH1 0x0 DUP1 SLOAD PUSH2 0x497 SWAP1 PUSH2 0x21D3 JUMP JUMPDEST CALLER PUSH1 0x0 DUP2 DUP2 MSTORE PUSH1 0x5 PUSH1 0x20 SWAP1 DUP2 MSTORE PUSH1 0x40 DUP1 DUP4 KECCAK256 PUSH1 0x1 PUSH1 0x1 PUSH1 0xA0 SHL SUB DUP8 AND DUP5 MSTORE SWAP1 SWAP2 MSTORE DUP2 KECCAK256 SLOAD SWAP1 SWAP2 PUSH2 0x527 SWAP2 DUP6 SWAP1 PUSH2 0x77C SWAP1 DUP7 SWAP1 PUSH2 0x2190 JUMP JUMPDEST PUSH1 0xD SLOAD PUSH1 0x0 SWAP1 PUSH1 0x1 PUSH1 0x1 PUSH1 0xA0 SHL SUB AND CALLER EQ DUP1 PUSH2 0xAA6 JUMPI POP PUSH1 0x7 SLOAD PUSH1 0x1 PUSH1 0x1 PUSH1 0xA0 SHL SUB AND CALLER EQ JUMPDEST DUP1 PUSH2 0xABB JUMPI POP PUSH1 0xA SLOAD PUSH1 0x1 PUSH1 0x1 PUSH1 0xA0 SHL SUB AND CALLER EQ JUMPDEST ISZERO PUSH2 0xB8F JUMPI PUSH1 0xB SLOAD PUSH1 0x1 PUSH1 0x1 PUSH1 0xA0 SHL SUB DUP5 DUP2 AND SWAP2 AND EQ DUP1 ISZERO SWAP1 PUSH2 0xAEC JUMPI POP PUSH1 0xA SLOAD PUSH1 0x1 PUSH1 0x1 PUSH1 0xA0 SHL SUB DUP5 DUP2 AND SWAP2 AND EQ ISZERO JUMPDEST DUP1 ISZERO PUSH2 0xB06 JUMPI POP PUSH1 0xE SLOAD PUSH1 0x1 PUSH1 0x1 PUSH1 0xA0 SHL SUB DUP5 DUP2 AND SWAP2 AND EQ ISZERO JUMPDEST ISZERO PUSH2 0xB8F JUMPI CALLER PUSH1 0x0 SWAP1 DUP2 MSTORE PUSH1 0xF PUSH1 0x20 SWAP1 DUP2 MSTORE PUSH1 0x40 SWAP2 DUP3 SWAP1 KECCAK256 DUP3 MLOAD PUSH1 0x80 DUP2 ADD DUP5 MSTORE DUP2 SLOAD DUP1 DUP3 MSTORE PUSH1 0x1 DUP4 ADD SLOAD SWAP4 DUP3 ADD SWAP4 SWAP1 SWAP4 MSTORE PUSH1 0x2 DUP3 ADD SLOAD SWAP4 DUP2 ADD SWAP4 SWAP1 SWAP4 MSTORE PUSH1 0x3 ADD SLOAD PUSH1 0x60 DUP4 ADD DUP2 SWAP1 MSTORE DUP5 SWAP2 PUSH2 0xB5A SWAP2 SWAP1 PUSH2 0x2190 JUMP JUMPDEST LT ISZERO PUSH2 0xB78 JUMPI PUSH1 0x40 MLOAD PUSH3 0x461BCD PUSH1 0xE5 SHL DUP2 MSTORE PUSH1 0x4 ADD PUSH2 0x5E6 SWAP1 PUSH2 0x20DA JUMP JUMPDEST DUP3 DUP2 PUSH1 0x60 ADD DUP2 DUP2 MLOAD PUSH2 0xB8A SWAP2 SWAP1 PUSH2 0x2137 JUMP JUMPDEST SWAP1 MSTORE POP POP JUMPDEST PUSH2 0x614 DUP4 DUP4 PUSH2 0x1790 JUMP JUMPDEST PUSH1 0x0 DUP1 SLOAD PUSH2 0xBA6 SWAP1 PUSH2 0x21D3 JUMP JUMPDEST DUP1 PUSH1 0x1F ADD PUSH1 0x20 DUP1 SWAP2 DIV MUL PUSH1 0x20 ADD PUSH1 0x40 MLOAD SWAP1 DUP2 ADD PUSH1 0x40 MSTORE DUP1 SWAP3 SWAP2 SWAP1 DUP2 DUP2 MSTORE PUSH1 0x20 ADD DUP3 DUP1 SLOAD PUSH2 0xBD2 SWAP1 PUSH2 0x21D3 JUMP JUMPDEST DUP1 ISZERO PUSH2 0xC1F JUMPI DUP1 PUSH1 0x1F LT PUSH2 0xBF4 JUMPI PUSH2 0x100 DUP1 DUP4 SLOAD DIV MUL DUP4 MSTORE SWAP2 PUSH1 0x20 ADD SWAP2 PUSH2 0xC1F JUMP JUMPDEST DUP3 ADD SWAP2 SWAP1 PUSH1 0x0 MSTORE PUSH1 0x20 PUSH1 0x0 KECCAK256 SWAP1 JUMPDEST DUP2 SLOAD DUP2 MSTORE SWAP1 PUSH1 0x1 ADD SWAP1 PUSH1 0x20 ADD DUP1 DUP4 GT PUSH2 0xC02 JUMPI DUP3 SWAP1 SUB PUSH1 0x1F AND DUP3 ADD SWAP2 JUMPDEST POP POP POP POP POP DUP2 JUMP JUMPDEST PUSH2 0xC2F PUSH2 0x187C JUMP JUMPDEST PUSH1 0xC SLOAD PUSH2 0xC46 SWAP1 PUSH1 0x1 PUSH1 0x1 PUSH1 0xA0 SHL SUB AND DUP4 DUP4 PUSH2 0x14CC JUMP JUMPDEST POP POP JUMP JUMPDEST PUSH2 0xC54 CALLER DUP3 PUSH2 0x1159 JUMP JUMPDEST POP JUMP JUMPDEST PUSH1 0x1 DUP1 SLOAD PUSH2 0xBA6 SWAP1 PUSH2 0x21D3 JUMP JUMPDEST PUSH1 0xE SLOAD PUSH1 0x1 PUSH1 0xA0 SHL SWAP1 DIV PUSH1 0xFF AND ISZERO PUSH2 0xCCA JUMPI PUSH1 0x40 MLOAD PUSH3 0x461BCD PUSH1 0xE5 SHL DUP2 MSTORE PUSH1 0x20 PUSH1 0x4 DUP3 ADD MSTORE PUSH1 0x23 PUSH1 0x24 DUP3 ADD MSTORE PUSH32 0x7365744164647265737365733A2041646472657373657320616C726561647920 PUSH1 0x44 DUP3 ADD MSTORE PUSH3 0x1CD95D PUSH1 0xEA SHL PUSH1 0x64 DUP3 ADD MSTORE PUSH1 0x84 ADD PUSH2 0x5E6 JUMP JUMPDEST PUSH2 0xCD3 DUP9 PUSH2 0x1900 JUMP JUMPDEST PUSH2 0xCDC DUP8 PUSH2 0x1900 JUMP JUMPDEST PUSH2 0xCE5 DUP7 PUSH2 0x1900 JUMP JUMPDEST PUSH2 0xCEE DUP6 PUSH2 0x1900 JUMP JUMPDEST PUSH2 0xCF7 DUP5 PUSH2 0x1900 JUMP JUMPDEST PUSH2 0xD00 DUP4 PUSH2 0x1900 JUMP JUMPDEST PUSH2 0xD09 DUP3 PUSH2 0x1900 JUMP JUMPDEST PUSH2 0xD12 DUP2 PUSH2 0x1900 JUMP JUMPDEST PUSH1 0x7 DUP1 SLOAD PUSH1 0x1 PUSH1 0x1 PUSH1 0xA0 SHL SUB NOT SWAP1 DUP2 AND PUSH1 0x1 PUSH1 0x1 PUSH1 0xA0 SHL SUB SWAP11 DUP12 AND OR SWAP1 SWAP2 SSTORE PUSH1 0x8 DUP1 SLOAD DUP3 AND SWAP9 DUP11 AND SWAP9 SWAP1 SWAP9 OR SWAP1 SWAP8 SSTORE PUSH1 0x9 DUP1 SLOAD DUP9 AND SWAP7 DUP10 AND SWAP7 SWAP1 SWAP7 OR SWAP1 SWAP6 SSTORE PUSH1 0xA DUP1 SLOAD DUP8 AND SWAP5 DUP9 AND SWAP5 SWAP1 SWAP5 OR SWAP1 SWAP4 SSTORE PUSH1 0xB DUP1 SLOAD DUP7 AND SWAP3 DUP8 AND SWAP3 SWAP1 SWAP3 OR SWAP1 SWAP2 SSTORE PUSH1 0xC DUP1 SLOAD DUP6 AND SWAP2 DUP7 AND SWAP2 SWAP1 SWAP2 OR SWAP1 SSTORE PUSH1 0xD DUP1 SLOAD SWAP1 SWAP4 AND SWAP1 DUP5 AND OR SWAP1 SWAP2 SSTORE PUSH1 0xE DUP1 SLOAD PUSH1 0x1 PUSH1 0xA0 SHL SWAP3 SWAP1 SWAP4 AND PUSH1 0x1 PUSH1 0x1 PUSH1 0xA8 SHL SUB NOT SWAP1 SWAP4 AND SWAP3 SWAP1 SWAP3 OR OR SWAP1 SSTORE JUMP JUMPDEST PUSH2 0xDBA CALLER CALLER PUSH2 0x1159 JUMP JUMPDEST PUSH2 0xDC6 CALLER DUP3 PUSH1 0x0 PUSH2 0x1215 JUMP JUMPDEST PUSH1 0x6 SLOAD PUSH1 0x40 MLOAD PUSH4 0x441A3E7 PUSH1 0xE4 SHL DUP2 MSTORE PUSH1 0x4 DUP2 ADD SWAP2 SWAP1 SWAP2 MSTORE PUSH1 0x24 DUP2 ADD DUP3 SWAP1 MSTORE PUSH32 0x0 PUSH1 0x1 PUSH1 0x1 PUSH1 0xA0 SHL SUB AND SWAP1 PUSH4 0x441A3E70 SWAP1 PUSH1 0x44 ADD PUSH1 0x0 PUSH1 0x40 MLOAD DUP1 DUP4 SUB DUP2 PUSH1 0x0 DUP8 DUP1 EXTCODESIZE ISZERO DUP1 ISZERO PUSH2 0xE33 JUMPI PUSH1 0x0 DUP1 REVERT JUMPDEST POP GAS CALL ISZERO DUP1 ISZERO PUSH2 0xE47 JUMPI RETURNDATASIZE PUSH1 0x0 DUP1 RETURNDATACOPY RETURNDATASIZE PUSH1 0x0 REVERT JUMPDEST POP POP POP POP PUSH2 0xE55 CALLER DUP3 PUSH2 0x1362 JUMP JUMPDEST POP PUSH2 0xC54 PUSH1 0x1 PUSH1 0x1 PUSH1 0xA0 SHL SUB PUSH32 0x0 AND CALLER DUP4 PUSH2 0x13E9 JUMP JUMPDEST PUSH1 0x60 DUP1 PUSH1 0x0 PUSH32 0x0 PUSH1 0x1 PUSH1 0x1 PUSH1 0xA0 SHL SUB AND PUSH4 0x1526FE27 PUSH1 0x6 SLOAD PUSH1 0x40 MLOAD DUP3 PUSH4 0xFFFFFFFF AND PUSH1 0xE0 SHL DUP2 MSTORE PUSH1 0x4 ADD PUSH2 0xEDF SWAP2 DUP2 MSTORE PUSH1 0x20 ADD SWAP1 JUMP JUMPDEST PUSH1 0xA0 PUSH1 0x40 MLOAD DUP1 DUP4 SUB DUP2 DUP7 DUP1 EXTCODESIZE ISZERO DUP1 ISZERO PUSH2 0xEF7 JUMPI PUSH1 0x0 DUP1 REVERT JUMPDEST POP GAS STATICCALL ISZERO DUP1 ISZERO PUSH2 0xF0B JUMPI RETURNDATASIZE PUSH1 0x0 DUP1 RETURNDATACOPY RETURNDATASIZE PUSH1 0x0 REVERT JUMPDEST POP POP POP POP PUSH1 0x40 MLOAD RETURNDATASIZE PUSH1 0x1F NOT PUSH1 0x1F DUP3 ADD AND DUP3 ADD DUP1 PUSH1 0x40 MSTORE POP DUP2 ADD SWAP1 PUSH2 0xF2F SWAP2 SWAP1 PUSH2 0x1EDC JUMP JUMPDEST PUSH1 0x60 ADD MLOAD PUSH1 0x1 PUSH1 0x1 PUSH1 0xA0 SHL SUB DUP6 AND PUSH1 0x0 SWAP1 DUP2 MSTORE PUSH1 0xF PUSH1 0x20 MSTORE PUSH1 0x40 DUP2 KECCAK256 PUSH1 0x2 DUP2 ADD SLOAD PUSH1 0x1 DUP3 ADD SLOAD DUP3 SLOAD SWAP5 SWAP6 POP SWAP2 SWAP4 SWAP1 SWAP3 SWAP2 SWAP1 PUSH5 0xE8D4A51000 SWAP1 PUSH2 0xF72 SWAP1 DUP8 SWAP1 PUSH2 0x2171 JUMP JUMPDEST PUSH2 0xF7C SWAP2 SWAP1 PUSH2 0x214F JUMP JUMPDEST PUSH2 0xF86 SWAP2 SWAP1 PUSH2 0x2190 JUMP JUMPDEST PUSH1 0x40 DUP1 MLOAD PUSH1 0x1 DUP1 DUP3 MSTORE DUP2 DUP4 ADD SWAP1 SWAP3 MSTORE SWAP2 SWAP3 POP PUSH1 0x0 SWAP2 SWAP1 PUSH1 0x20 DUP1 DUP4 ADD SWAP1 DUP1 CALLDATASIZE DUP4 CALLDATACOPY POP POP PUSH1 0x40 DUP1 MLOAD PUSH1 0x1 DUP1 DUP3 MSTORE DUP2 DUP4 ADD SWAP1 SWAP3 MSTORE SWAP3 SWAP4 POP PUSH1 0x0 SWAP3 SWAP2 POP PUSH1 0x20 DUP1 DUP4 ADD SWAP1 DUP1 CALLDATASIZE DUP4 CALLDATACOPY ADD SWAP1 POP POP SWAP1 POP PUSH32 0x0 DUP3 PUSH1 0x0 DUP2 MLOAD DUP2 LT PUSH2 0x1003 JUMPI PUSH2 0x1003 PUSH2 0x2224 JUMP JUMPDEST PUSH1 0x1 PUSH1 0x1 PUSH1 0xA0 SHL SUB SWAP1 SWAP3 AND PUSH1 0x20 SWAP3 DUP4 MUL SWAP2 SWAP1 SWAP2 ADD SWAP1 SWAP2 ADD MSTORE PUSH2 0x1025 DUP4 DUP6 PUSH2 0x2137 JUMP JUMPDEST DUP2 PUSH1 0x0 DUP2 MLOAD DUP2 LT PUSH2 0x1038 JUMPI PUSH2 0x1038 PUSH2 0x2224 JUMP JUMPDEST PUSH1 0x20 SWAP1 DUP2 MUL SWAP2 SWAP1 SWAP2 ADD ADD MSTORE SWAP1 SWAP9 SWAP1 SWAP8 POP SWAP6 POP POP POP POP POP POP JUMP JUMPDEST PUSH1 0x1 PUSH1 0x1 PUSH1 0xA0 SHL SUB DUP4 DUP2 AND PUSH1 0x0 DUP2 DUP2 MSTORE PUSH1 0x5 PUSH1 0x20 SWAP1 DUP2 MSTORE PUSH1 0x40 DUP1 DUP4 KECCAK256 SWAP5 DUP8 AND DUP1 DUP5 MSTORE SWAP5 DUP3 MSTORE SWAP2 DUP3 SWAP1 KECCAK256 DUP6 SWAP1 SSTORE SWAP1 MLOAD DUP5 DUP2 MSTORE PUSH32 0x8C5BE1E5EBEC7D5BD14F71427D1E84F3DD0314C0F7B2291E5B200AC8C7C3B925 SWAP2 ADD PUSH1 0x40 MLOAD DUP1 SWAP2 SUB SWAP1 LOG3 POP POP POP JUMP JUMPDEST PUSH1 0x0 PUSH2 0x611 DUP5 DUP5 DUP5 PUSH2 0x19A5 JUMP JUMPDEST PUSH1 0x7 SLOAD PUSH1 0x1 PUSH1 0x1 PUSH1 0xA0 SHL SUB AND CALLER EQ DUP1 PUSH2 0x10E2 JUMPI POP PUSH1 0xB SLOAD PUSH1 0x1 PUSH1 0x1 PUSH1 0xA0 SHL SUB AND CALLER EQ JUMPDEST DUP1 PUSH2 0x10F7 JUMPI POP PUSH1 0xE SLOAD PUSH1 0x1 PUSH1 0x1 PUSH1 0xA0 SHL SUB AND CALLER EQ JUMPDEST PUSH2 0x1157 JUMPI PUSH1 0x40 MLOAD PUSH3 0x461BCD PUSH1 0xE5 SHL DUP2 MSTORE PUSH1 0x20 PUSH1 0x4 DUP3 ADD MSTORE PUSH1 0x2B PUSH1 0x24 DUP3 ADD MSTORE PUSH32 0x43616C6C6572206973206E6F742061637469766520706F6F6C206F7220737461 PUSH1 0x44 DUP3 ADD MSTORE PUSH11 0x189A5B1A5D1E481C1BDBDB PUSH1 0xAA SHL PUSH1 0x64 DUP3 ADD MSTORE PUSH1 0x84 ADD PUSH2 0x5E6 JUMP JUMPDEST JUMP JUMPDEST PUSH1 0x6 SLOAD PUSH1 0x40 MLOAD PUSH4 0x441A3E7 PUSH1 0xE4 SHL DUP2 MSTORE PUSH1 0x4 DUP2 ADD SWAP2 SWAP1 SWAP2 MSTORE PUSH1 0x0 PUSH1 0x24 DUP3 ADD MSTORE PUSH32 0x0 PUSH1 0x1 PUSH1 0x1 PUSH1 0xA0 SHL SUB AND SWAP1 PUSH4 0x441A3E70 SWAP1 PUSH1 0x44 ADD PUSH1 0x0 PUSH1 0x40 MLOAD DUP1 DUP4 SUB DUP2 PUSH1 0x0 DUP8 DUP1 EXTCODESIZE ISZERO DUP1 ISZERO PUSH2 0x11C6 JUMPI PUSH1 0x0 DUP1 REVERT JUMPDEST POP GAS CALL ISZERO DUP1 ISZERO PUSH2 0x11DA JUMPI RETURNDATASIZE PUSH1 0x0 DUP1 RETURNDATACOPY RETURNDATASIZE PUSH1 0x0 REVERT JUMPDEST POP POP POP POP PUSH2 0x11EB DUP3 PUSH1 0x0 PUSH1 0x1 PUSH2 0x1215 JUMP JUMPDEST PUSH1 0x1 PUSH1 0x1 PUSH1 0xA0 SHL SUB DUP3 AND PUSH1 0x0 SWAP1 DUP2 MSTORE PUSH1 0xF PUSH1 0x20 MSTORE PUSH1 0x40 DUP2 KECCAK256 PUSH1 0x2 ADD DUP1 SLOAD SWAP2 SWAP1 SSTORE PUSH2 0x72D DUP3 DUP3 PUSH2 0x1A94 JUMP JUMPDEST PUSH1 0x6 SLOAD PUSH1 0x40 MLOAD PUSH4 0x1526FE27 PUSH1 0xE0 SHL DUP2 MSTORE PUSH1 0x0 SWAP2 PUSH1 0x1 PUSH1 0x1 PUSH1 0xA0 SHL SUB PUSH32 0x0 AND SWAP2 PUSH4 0x1526FE27 SWAP2 PUSH2 0x1269 SWAP2 PUSH1 0x4 ADD SWAP1 DUP2 MSTORE PUSH1 0x20 ADD SWAP1 JUMP JUMPDEST PUSH1 0xA0 PUSH1 0x40 MLOAD DUP1 DUP4 SUB DUP2 DUP7 DUP1 EXTCODESIZE ISZERO DUP1 ISZERO PUSH2 0x1281 JUMPI PUSH1 0x0 DUP1 REVERT JUMPDEST POP GAS STATICCALL ISZERO DUP1 ISZERO PUSH2 0x1295 JUMPI RETURNDATASIZE PUSH1 0x0 DUP1 RETURNDATACOPY RETURNDATASIZE PUSH1 0x0 REVERT JUMPDEST POP POP POP POP PUSH1 0x40 MLOAD RETURNDATASIZE PUSH1 0x1F NOT PUSH1 0x1F DUP3 ADD AND DUP3 ADD DUP1 PUSH1 0x40 MSTORE POP DUP2 ADD SWAP1 PUSH2 0x12B9 SWAP2 SWAP1 PUSH2 0x1EDC JUMP JUMPDEST PUSH1 0x60 ADD MLOAD PUSH1 0x1 PUSH1 0x1 PUSH1 0xA0 SHL SUB DUP6 AND PUSH1 0x0 SWAP1 DUP2 MSTORE PUSH1 0xF PUSH1 0x20 MSTORE PUSH1 0x40 SWAP1 KECCAK256 DUP1 SLOAD SWAP2 SWAP3 POP SWAP1 DUP1 ISZERO PUSH2 0x1310 JUMPI PUSH1 0x1 DUP3 ADD SLOAD PUSH5 0xE8D4A51000 PUSH2 0x12F6 DUP6 DUP5 PUSH2 0x2171 JUMP JUMPDEST PUSH2 0x1300 SWAP2 SWAP1 PUSH2 0x214F JUMP JUMPDEST PUSH2 0x130A SWAP2 SWAP1 PUSH2 0x2190 JUMP JUMPDEST PUSH1 0x2 DUP4 ADD SSTORE JUMPDEST DUP4 ISZERO PUSH2 0x1327 JUMPI PUSH2 0x1320 DUP6 DUP3 PUSH2 0x2137 JUMP JUMPDEST DUP3 SSTORE PUSH2 0x1334 JUMP JUMPDEST PUSH2 0x1331 DUP6 DUP3 PUSH2 0x2190 JUMP JUMPDEST DUP3 SSTORE JUMPDEST DUP2 SLOAD PUSH5 0xE8D4A51000 SWAP1 PUSH2 0x1348 SWAP1 DUP6 SWAP1 PUSH2 0x2171 JUMP JUMPDEST PUSH2 0x1352 SWAP2 SWAP1 PUSH2 0x214F JUMP JUMPDEST DUP3 PUSH1 0x1 ADD DUP2 SWAP1 SSTORE POP POP POP POP POP POP POP JUMP JUMPDEST PUSH1 0x1 PUSH1 0x1 PUSH1 0xA0 SHL SUB DUP3 AND PUSH1 0x0 SWAP1 DUP2 MSTORE PUSH1 0x4 PUSH1 0x20 MSTORE PUSH1 0x40 DUP2 KECCAK256 SLOAD PUSH2 0x1386 SWAP1 DUP4 SWAP1 PUSH2 0x2190 JUMP JUMPDEST PUSH1 0x1 PUSH1 0x1 PUSH1 0xA0 SHL SUB DUP5 AND PUSH1 0x0 SWAP1 DUP2 MSTORE PUSH1 0x4 PUSH1 0x20 MSTORE PUSH1 0x40 SWAP1 KECCAK256 SSTORE PUSH1 0x3 SLOAD PUSH2 0x13AD SWAP1 DUP4 SWAP1 PUSH2 0x2190 JUMP JUMPDEST PUSH1 0x3 SSTORE PUSH1 0x40 MLOAD DUP3 DUP2 MSTORE PUSH1 0x0 SWAP1 PUSH1 0x1 PUSH1 0x1 PUSH1 0xA0 SHL SUB DUP6 AND SWAP1 PUSH1 0x0 DUP1 MLOAD PUSH1 0x20 PUSH2 0x2250 DUP4 CODECOPY DUP2 MLOAD SWAP2 MSTORE SWAP1 PUSH1 0x20 ADD JUMPDEST PUSH1 0x40 MLOAD DUP1 SWAP2 SUB SWAP1 LOG3 POP PUSH1 0x1 SWAP3 SWAP2 POP POP JUMP JUMPDEST PUSH2 0x72D DUP4 PUSH4 0xA9059CBB PUSH1 0xE0 SHL DUP5 DUP5 PUSH1 0x40 MLOAD PUSH1 0x24 ADD PUSH2 0x1408 SWAP3 SWAP2 SWAP1 PUSH2 0x200A JUMP JUMPDEST PUSH1 0x40 DUP1 MLOAD PUSH1 0x1F NOT DUP2 DUP5 SUB ADD DUP2 MSTORE SWAP2 SWAP1 MSTORE PUSH1 0x20 DUP2 ADD DUP1 MLOAD PUSH1 0x1 PUSH1 0x1 PUSH1 0xE0 SHL SUB AND PUSH1 0x1 PUSH1 0x1 PUSH1 0xE0 SHL SUB NOT SWAP1 SWAP4 AND SWAP3 SWAP1 SWAP3 OR SWAP1 SWAP2 MSTORE PUSH2 0x1B67 JUMP JUMPDEST PUSH1 0x8 SLOAD PUSH1 0x1 PUSH1 0x1 PUSH1 0xA0 SHL SUB AND CALLER EQ DUP1 PUSH2 0x1462 JUMPI POP PUSH1 0x9 SLOAD PUSH1 0x1 PUSH1 0x1 PUSH1 0xA0 SHL SUB AND CALLER EQ JUMPDEST DUP1 PUSH2 0x1477 JUMPI POP PUSH1 0xA SLOAD PUSH1 0x1 PUSH1 0x1 PUSH1 0xA0 SHL SUB AND CALLER EQ JUMPDEST DUP1 PUSH2 0x148C JUMPI POP PUSH1 0xD SLOAD PUSH1 0x1 PUSH1 0x1 PUSH1 0xA0 SHL SUB AND CALLER EQ JUMPDEST PUSH2 0x1157 JUMPI PUSH1 0x40 MLOAD PUSH3 0x461BCD PUSH1 0xE5 SHL DUP2 MSTORE PUSH1 0x20 PUSH1 0x4 DUP3 ADD MSTORE PUSH1 0x11 PUSH1 0x24 DUP3 ADD MSTORE PUSH17 0x10D85B1B195C881A5CC81B9BDD08131491 PUSH1 0x7A SHL PUSH1 0x44 DUP3 ADD MSTORE PUSH1 0x64 ADD PUSH2 0x5E6 JUMP JUMPDEST PUSH2 0x14D6 DUP4 DUP5 PUSH2 0x1159 JUMP JUMPDEST PUSH2 0x14E2 DUP4 DUP3 PUSH1 0x0 PUSH2 0x1215 JUMP JUMPDEST PUSH1 0x1 PUSH1 0x1 PUSH1 0xA0 SHL SUB DUP4 AND PUSH1 0x0 SWAP1 DUP2 MSTORE PUSH1 0xF PUSH1 0x20 MSTORE PUSH1 0x40 DUP2 KECCAK256 PUSH1 0x3 ADD DUP1 SLOAD DUP4 SWAP3 SWAP1 PUSH2 0x150D SWAP1 DUP5 SWAP1 PUSH2 0x2190 JUMP JUMPDEST SWAP1 SWAP2 SSTORE POP PUSH2 0x151F SWAP1 POP DUP3 DUP3 PUSH1 0x1 PUSH2 0x1215 JUMP JUMPDEST PUSH1 0x1 PUSH1 0x1 PUSH1 0xA0 SHL SUB DUP3 AND PUSH1 0x0 SWAP1 DUP2 MSTORE PUSH1 0xF PUSH1 0x20 MSTORE PUSH1 0x40 DUP2 KECCAK256 PUSH1 0x3 ADD DUP1 SLOAD DUP4 SWAP3 SWAP1 PUSH2 0x154A SWAP1 DUP5 SWAP1 PUSH2 0x2137 JUMP JUMPDEST SWAP1 SWAP2 SSTORE POP POP POP POP POP JUMP JUMPDEST DUP1 ISZERO DUP1 PUSH2 0x15DD JUMPI POP PUSH1 0x40 MLOAD PUSH4 0x6EB1769F PUSH1 0xE1 SHL DUP2 MSTORE ADDRESS PUSH1 0x4 DUP3 ADD MSTORE PUSH1 0x1 PUSH1 0x1 PUSH1 0xA0 SHL SUB DUP4 DUP2 AND PUSH1 0x24 DUP4 ADD MSTORE DUP5 AND SWAP1 PUSH4 0xDD62ED3E SWAP1 PUSH1 0x44 ADD PUSH1 0x20 PUSH1 0x40 MLOAD DUP1 DUP4 SUB DUP2 DUP7 DUP1 EXTCODESIZE ISZERO DUP1 ISZERO PUSH2 0x15A3 JUMPI PUSH1 0x0 DUP1 REVERT JUMPDEST POP GAS STATICCALL ISZERO DUP1 ISZERO PUSH2 0x15B7 JUMPI RETURNDATASIZE PUSH1 0x0 DUP1 RETURNDATACOPY RETURNDATASIZE PUSH1 0x0 REVERT JUMPDEST POP POP POP POP PUSH1 0x40 MLOAD RETURNDATASIZE PUSH1 0x1F NOT PUSH1 0x1F DUP3 ADD AND DUP3 ADD DUP1 PUSH1 0x40 MSTORE POP DUP2 ADD SWAP1 PUSH2 0x15DB SWAP2 SWAP1 PUSH2 0x1F82 JUMP JUMPDEST ISZERO JUMPDEST PUSH2 0x1648 JUMPI PUSH1 0x40 MLOAD PUSH3 0x461BCD PUSH1 0xE5 SHL DUP2 MSTORE PUSH1 0x20 PUSH1 0x4 DUP3 ADD MSTORE PUSH1 0x36 PUSH1 0x24 DUP3 ADD MSTORE PUSH32 0x5361666545524332303A20617070726F76652066726F6D206E6F6E2D7A65726F PUSH1 0x44 DUP3 ADD MSTORE PUSH22 0x20746F206E6F6E2D7A65726F20616C6C6F77616E6365 PUSH1 0x50 SHL PUSH1 0x64 DUP3 ADD MSTORE PUSH1 0x84 ADD PUSH2 0x5E6 JUMP JUMPDEST PUSH2 0x72D DUP4 PUSH4 0x95EA7B3 PUSH1 0xE0 SHL DUP5 DUP5 PUSH1 0x40 MLOAD PUSH1 0x24 ADD PUSH2 0x1408 SWAP3 SWAP2 SWAP1 PUSH2 0x200A JUMP JUMPDEST PUSH1 0x40 MLOAD PUSH4 0x6EB1769F PUSH1 0xE1 SHL DUP2 MSTORE ADDRESS PUSH1 0x4 DUP3 ADD MSTORE PUSH1 0x1 PUSH1 0x1 PUSH1 0xA0 SHL SUB DUP4 DUP2 AND PUSH1 0x24 DUP4 ADD MSTORE PUSH1 0x0 SWAP2 DUP4 SWAP2 DUP7 AND SWAP1 PUSH4 0xDD62ED3E SWAP1 PUSH1 0x44 ADD PUSH1 0x20 PUSH1 0x40 MLOAD DUP1 DUP4 SUB DUP2 DUP7 DUP1 EXTCODESIZE ISZERO DUP1 ISZERO PUSH2 0x16B3 JUMPI PUSH1 0x0 DUP1 REVERT JUMPDEST POP GAS STATICCALL ISZERO DUP1 ISZERO PUSH2 0x16C7 JUMPI RETURNDATASIZE PUSH1 0x0 DUP1 RETURNDATACOPY RETURNDATASIZE PUSH1 0x0 REVERT JUMPDEST POP POP POP POP PUSH1 0x40 MLOAD RETURNDATASIZE PUSH1 0x1F NOT PUSH1 0x1F DUP3 ADD AND DUP3 ADD DUP1 PUSH1 0x40 MSTORE POP DUP2 ADD SWAP1 PUSH2 0x16EB SWAP2 SWAP1 PUSH2 0x1F82 JUMP JUMPDEST PUSH2 0x16F5 SWAP2 SWAP1 PUSH2 0x2137 JUMP JUMPDEST SWAP1 POP PUSH2 0xA34 DUP5 PUSH4 0x95EA7B3 PUSH1 0xE0 SHL DUP6 DUP5 PUSH1 0x40 MLOAD PUSH1 0x24 ADD PUSH2 0x1408 SWAP3 SWAP2 SWAP1 PUSH2 0x200A JUMP JUMPDEST PUSH1 0x1 PUSH1 0x1 PUSH1 0xA0 SHL SUB DUP3 AND PUSH1 0x0 SWAP1 DUP2 MSTORE PUSH1 0x4 PUSH1 0x20 MSTORE PUSH1 0x40 DUP2 KECCAK256 SLOAD PUSH2 0x173A SWAP1 DUP4 SWAP1 PUSH2 0x2137 JUMP JUMPDEST PUSH1 0x1 PUSH1 0x1 PUSH1 0xA0 SHL SUB DUP5 AND PUSH1 0x0 SWAP1 DUP2 MSTORE PUSH1 0x4 PUSH1 0x20 MSTORE PUSH1 0x40 SWAP1 KECCAK256 SSTORE PUSH1 0x3 SLOAD PUSH2 0x1761 SWAP1 DUP4 SWAP1 PUSH2 0x2137 JUMP JUMPDEST PUSH1 0x3 SSTORE PUSH1 0x40 MLOAD DUP3 DUP2 MSTORE PUSH1 0x1 PUSH1 0x1 PUSH1 0xA0 SHL SUB DUP5 AND SWAP1 PUSH1 0x0 SWAP1 PUSH1 0x0 DUP1 MLOAD PUSH1 0x20 PUSH2 0x2250 DUP4 CODECOPY DUP2 MLOAD SWAP2 MSTORE SWAP1 PUSH1 0x20 ADD PUSH2 0x13D8 JUMP JUMPDEST CALLER PUSH1 0x0 SWAP1 DUP2 MSTORE PUSH1 0x4 PUSH1 0x20 MSTORE PUSH1 0x40 DUP2 KECCAK256 SLOAD DUP3 GT ISZERO PUSH2 0x180C JUMPI PUSH1 0x40 MLOAD PUSH3 0x461BCD PUSH1 0xE5 SHL DUP2 MSTORE PUSH1 0x20 PUSH1 0x4 DUP3 ADD MSTORE PUSH1 0x34 PUSH1 0x24 DUP3 ADD MSTORE PUSH32 0x596F752061726520747279696E6720746F207472616E73666572206D6F726520 PUSH1 0x44 DUP3 ADD MSTORE PUSH20 0x746F6B656E73207468616E20796F752068617665 PUSH1 0x60 SHL PUSH1 0x64 DUP3 ADD MSTORE PUSH1 0x84 ADD PUSH2 0x5E6 JUMP JUMPDEST CALLER PUSH1 0x0 SWAP1 DUP2 MSTORE PUSH1 0x4 PUSH1 0x20 MSTORE PUSH1 0x40 DUP1 DUP3 KECCAK256 DUP1 SLOAD DUP6 SWAP1 SUB SWAP1 SSTORE PUSH1 0x1 PUSH1 0x1 PUSH1 0xA0 SHL SUB DUP6 AND DUP3 MSTORE SWAP1 KECCAK256 SLOAD PUSH2 0x183D SWAP1 DUP4 SWAP1 PUSH2 0x2137 JUMP JUMPDEST PUSH1 0x1 PUSH1 0x1 PUSH1 0xA0 SHL SUB DUP5 AND PUSH1 0x0 DUP2 DUP2 MSTORE PUSH1 0x4 PUSH1 0x20 MSTORE PUSH1 0x40 SWAP1 DUP2 SWAP1 KECCAK256 SWAP3 SWAP1 SWAP3 SSTORE SWAP1 MLOAD CALLER SWAP1 PUSH1 0x0 DUP1 MLOAD PUSH1 0x20 PUSH2 0x2250 DUP4 CODECOPY DUP2 MLOAD SWAP2 MSTORE SWAP1 PUSH2 0x13D8 SWAP1 DUP7 DUP2 MSTORE PUSH1 0x20 ADD SWAP1 JUMP JUMPDEST PUSH1 0xB SLOAD PUSH1 0x1 PUSH1 0x1 PUSH1 0xA0 SHL SUB AND CALLER EQ DUP1 PUSH2 0x189F JUMPI POP PUSH1 0xA SLOAD PUSH1 0x1 PUSH1 0x1 PUSH1 0xA0 SHL SUB AND CALLER EQ JUMPDEST PUSH2 0x1157 JUMPI PUSH1 0x40 MLOAD PUSH3 0x461BCD PUSH1 0xE5 SHL DUP2 MSTORE PUSH1 0x20 PUSH1 0x4 DUP3 ADD MSTORE PUSH1 0x2C PUSH1 0x24 DUP3 ADD MSTORE PUSH32 0x43616C6C6572206973206E6F742073746162696C69747920706F6F6C206F7220 PUSH1 0x44 DUP3 ADD MSTORE PUSH12 0x191959985D5B1D081C1BDBDB PUSH1 0xA2 SHL PUSH1 0x64 DUP3 ADD MSTORE PUSH1 0x84 ADD PUSH2 0x5E6 JUMP JUMPDEST PUSH1 0x1 PUSH1 0x1 PUSH1 0xA0 SHL SUB DUP2 AND PUSH2 0x1956 JUMPI PUSH1 0x40 MLOAD PUSH3 0x461BCD PUSH1 0xE5 SHL DUP2 MSTORE PUSH1 0x20 PUSH1 0x4 DUP3 ADD MSTORE PUSH1 0x1E PUSH1 0x24 DUP3 ADD MSTORE PUSH32 0x4163636F756E742063616E6E6F74206265207A65726F20616464726573730000 PUSH1 0x44 DUP3 ADD MSTORE PUSH1 0x64 ADD PUSH2 0x5E6 JUMP JUMPDEST DUP1 EXTCODESIZE DUP1 PUSH2 0xC46 JUMPI PUSH1 0x40 MLOAD PUSH3 0x461BCD PUSH1 0xE5 SHL DUP2 MSTORE PUSH1 0x20 PUSH1 0x4 DUP3 ADD DUP2 SWAP1 MSTORE PUSH1 0x24 DUP3 ADD MSTORE PUSH32 0x4163636F756E7420636F64652073697A652063616E6E6F74206265207A65726F PUSH1 0x44 DUP3 ADD MSTORE PUSH1 0x64 ADD PUSH2 0x5E6 JUMP JUMPDEST PUSH1 0x1 PUSH1 0x1 PUSH1 0xA0 SHL SUB DUP4 AND PUSH1 0x0 SWAP1 DUP2 MSTORE PUSH1 0x4 PUSH1 0x20 MSTORE PUSH1 0x40 DUP2 KECCAK256 SLOAD PUSH2 0x19C9 SWAP1 DUP4 SWAP1 PUSH2 0x2190 JUMP JUMPDEST PUSH1 0x1 PUSH1 0x1 PUSH1 0xA0 SHL SUB DUP6 AND PUSH1 0x0 SWAP1 DUP2 MSTORE PUSH1 0x4 PUSH1 0x20 SWAP1 DUP2 MSTORE PUSH1 0x40 DUP1 DUP4 KECCAK256 SWAP4 SWAP1 SWAP4 SSTORE PUSH1 0x5 DUP2 MSTORE DUP3 DUP3 KECCAK256 CALLER DUP4 MSTORE SWAP1 MSTORE KECCAK256 SLOAD PUSH2 0x1A01 SWAP1 DUP4 SWAP1 PUSH2 0x2190 JUMP JUMPDEST PUSH1 0x1 PUSH1 0x1 PUSH1 0xA0 SHL SUB DUP1 DUP7 AND PUSH1 0x0 SWAP1 DUP2 MSTORE PUSH1 0x5 PUSH1 0x20 SWAP1 DUP2 MSTORE PUSH1 0x40 DUP1 DUP4 KECCAK256 CALLER DUP5 MSTORE DUP3 MSTORE DUP1 DUP4 KECCAK256 SWAP5 SWAP1 SWAP5 SSTORE SWAP2 DUP7 AND DUP2 MSTORE PUSH1 0x4 SWAP1 SWAP2 MSTORE KECCAK256 SLOAD PUSH2 0x1A40 SWAP1 DUP4 SWAP1 PUSH2 0x2137 JUMP JUMPDEST PUSH1 0x1 PUSH1 0x1 PUSH1 0xA0 SHL SUB DUP1 DUP6 AND PUSH1 0x0 DUP2 DUP2 MSTORE PUSH1 0x4 PUSH1 0x20 MSTORE PUSH1 0x40 SWAP1 DUP2 SWAP1 KECCAK256 SWAP4 SWAP1 SWAP4 SSTORE SWAP2 MLOAD SWAP1 DUP7 AND SWAP1 PUSH1 0x0 DUP1 MLOAD PUSH1 0x20 PUSH2 0x2250 DUP4 CODECOPY DUP2 MLOAD SWAP2 MSTORE SWAP1 PUSH2 0x1A82 SWAP1 DUP7 DUP2 MSTORE PUSH1 0x20 ADD SWAP1 JUMP JUMPDEST PUSH1 0x40 MLOAD DUP1 SWAP2 SUB SWAP1 LOG3 POP PUSH1 0x1 SWAP4 SWAP3 POP POP POP JUMP JUMPDEST PUSH1 0x40 MLOAD PUSH4 0x70A08231 PUSH1 0xE0 SHL DUP2 MSTORE ADDRESS PUSH1 0x4 DUP3 ADD MSTORE PUSH32 0x0 SWAP1 PUSH1 0x0 SWAP1 PUSH1 0x1 PUSH1 0x1 PUSH1 0xA0 SHL SUB DUP4 AND SWAP1 PUSH4 0x70A08231 SWAP1 PUSH1 0x24 ADD PUSH1 0x20 PUSH1 0x40 MLOAD DUP1 DUP4 SUB DUP2 DUP7 DUP1 EXTCODESIZE ISZERO DUP1 ISZERO PUSH2 0x1AF8 JUMPI PUSH1 0x0 DUP1 REVERT JUMPDEST POP GAS STATICCALL ISZERO DUP1 ISZERO PUSH2 0x1B0C JUMPI RETURNDATASIZE PUSH1 0x0 DUP1 RETURNDATACOPY RETURNDATASIZE PUSH1 0x0 REVERT JUMPDEST POP POP POP POP PUSH1 0x40 MLOAD RETURNDATASIZE PUSH1 0x1F NOT PUSH1 0x1F DUP3 ADD AND DUP3 ADD DUP1 PUSH1 0x40 MSTORE POP DUP2 ADD SWAP1 PUSH2 0x1B30 SWAP2 SWAP1 PUSH2 0x1F82 JUMP JUMPDEST SWAP1 POP DUP1 DUP4 GT ISZERO PUSH2 0x1B53 JUMPI PUSH2 0x1B4E PUSH1 0x1 PUSH1 0x1 PUSH1 0xA0 SHL SUB DUP4 AND DUP6 DUP4 PUSH2 0x13E9 JUMP JUMPDEST PUSH2 0xA34 JUMP JUMPDEST PUSH2 0xA34 PUSH1 0x1 PUSH1 0x1 PUSH1 0xA0 SHL SUB DUP4 AND DUP6 DUP6 PUSH2 0x13E9 JUMP JUMPDEST PUSH1 0x0 PUSH2 0x1BBC DUP3 PUSH1 0x40 MLOAD DUP1 PUSH1 0x40 ADD PUSH1 0x40 MSTORE DUP1 PUSH1 0x20 DUP2 MSTORE PUSH1 0x20 ADD PUSH32 0x5361666545524332303A206C6F772D6C6576656C2063616C6C206661696C6564 DUP2 MSTORE POP DUP6 PUSH1 0x1 PUSH1 0x1 PUSH1 0xA0 SHL SUB AND PUSH2 0x1C3A SWAP1 SWAP3 SWAP2 SWAP1 PUSH4 0xFFFFFFFF AND JUMP JUMPDEST SWAP1 POP DUP1 MLOAD PUSH1 0x0 EQ PUSH2 0x72D JUMPI DUP1 DUP1 PUSH1 0x20 ADD SWAP1 MLOAD DUP2 ADD SWAP1 PUSH2 0x1BDB SWAP2 SWAP1 PUSH2 0x1EBA JUMP JUMPDEST PUSH2 0x72D JUMPI PUSH1 0x40 MLOAD PUSH3 0x461BCD PUSH1 0xE5 SHL DUP2 MSTORE PUSH1 0x20 PUSH1 0x4 DUP3 ADD MSTORE PUSH1 0x2A PUSH1 0x24 DUP3 ADD MSTORE PUSH32 0x5361666545524332303A204552433230206F7065726174696F6E20646964206E PUSH1 0x44 DUP3 ADD MSTORE PUSH10 0x1BDD081CDD58D8D95959 PUSH1 0xB2 SHL PUSH1 0x64 DUP3 ADD MSTORE PUSH1 0x84 ADD PUSH2 0x5E6 JUMP JUMPDEST PUSH1 0x60 PUSH2 0x611 DUP5 DUP5 PUSH1 0x0 DUP6 DUP6 PUSH1 0x1 PUSH1 0x1 PUSH1 0xA0 SHL SUB DUP6 AND EXTCODESIZE PUSH2 0x1C9C JUMPI PUSH1 0x40 MLOAD PUSH3 0x461BCD PUSH1 0xE5 SHL DUP2 MSTORE PUSH1 0x20 PUSH1 0x4 DUP3 ADD MSTORE PUSH1 0x1D PUSH1 0x24 DUP3 ADD MSTORE PUSH32 0x416464726573733A2063616C6C20746F206E6F6E2D636F6E7472616374000000 PUSH1 0x44 DUP3 ADD MSTORE PUSH1 0x64 ADD PUSH2 0x5E6 JUMP JUMPDEST PUSH1 0x0 DUP1 DUP7 PUSH1 0x1 PUSH1 0x1 PUSH1 0xA0 SHL SUB AND DUP6 DUP8 PUSH1 0x40 MLOAD PUSH2 0x1CB8 SWAP2 SWAP1 PUSH2 0x1FEE JUMP JUMPDEST PUSH1 0x0 PUSH1 0x40 MLOAD DUP1 DUP4 SUB DUP2 DUP6 DUP8 GAS CALL SWAP3 POP POP POP RETURNDATASIZE DUP1 PUSH1 0x0 DUP2 EQ PUSH2 0x1CF5 JUMPI PUSH1 0x40 MLOAD SWAP2 POP PUSH1 0x1F NOT PUSH1 0x3F RETURNDATASIZE ADD AND DUP3 ADD PUSH1 0x40 MSTORE RETURNDATASIZE DUP3 MSTORE RETURNDATASIZE PUSH1 0x0 PUSH1 0x20 DUP5 ADD RETURNDATACOPY PUSH2 0x1CFA JUMP JUMPDEST PUSH1 0x60 SWAP2 POP JUMPDEST POP SWAP2 POP SWAP2 POP PUSH2 0x1D0A DUP3 DUP3 DUP7 PUSH2 0x1D15 JUMP JUMPDEST SWAP8 SWAP7 POP POP POP POP POP POP POP JUMP JUMPDEST PUSH1 0x60 DUP4 ISZERO PUSH2 0x1D24 JUMPI POP DUP2 PUSH2 0x614 JUMP JUMPDEST DUP3 MLOAD ISZERO PUSH2 0x1D34 JUMPI DUP3 MLOAD DUP1 DUP5 PUSH1 0x20 ADD REVERT JUMPDEST DUP2 PUSH1 0x40 MLOAD PUSH3 0x461BCD PUSH1 0xE5 SHL DUP2 MSTORE PUSH1 0x4 ADD PUSH2 0x5E6 SWAP2 SWAP1 PUSH2 0x20A7 JUMP JUMPDEST PUSH1 0x0 PUSH1 0x20 DUP3 DUP5 SUB SLT ISZERO PUSH2 0x1D60 JUMPI PUSH1 0x0 DUP1 REVERT JUMPDEST DUP2 CALLDATALOAD PUSH2 0x614 DUP2 PUSH2 0x223A JUMP JUMPDEST PUSH1 0x0 DUP1 PUSH1 0x40 DUP4 DUP6 SUB SLT ISZERO PUSH2 0x1D7E JUMPI PUSH1 0x0 DUP1 REVERT JUMPDEST DUP3 CALLDATALOAD PUSH2 0x1D89 DUP2 PUSH2 0x223A JUMP JUMPDEST SWAP2 POP PUSH1 0x20 DUP4 ADD CALLDATALOAD PUSH2 0x1D99 DUP2 PUSH2 0x223A JUMP JUMPDEST DUP1 SWAP2 POP POP SWAP3 POP SWAP3 SWAP1 POP JUMP JUMPDEST PUSH1 0x0 DUP1 PUSH1 0x0 DUP1 PUSH1 0x0 DUP1 PUSH1 0x0 DUP1 PUSH2 0x100 DUP10 DUP12 SUB SLT ISZERO PUSH2 0x1DC1 JUMPI PUSH1 0x0 DUP1 REVERT JUMPDEST DUP9 CALLDATALOAD PUSH2 0x1DCC DUP2 PUSH2 0x223A JUMP JUMPDEST SWAP8 POP PUSH1 0x20 DUP10 ADD CALLDATALOAD PUSH2 0x1DDC DUP2 PUSH2 0x223A JUMP JUMPDEST SWAP7 POP PUSH1 0x40 DUP10 ADD CALLDATALOAD PUSH2 0x1DEC DUP2 PUSH2 0x223A JUMP JUMPDEST SWAP6 POP PUSH1 0x60 DUP10 ADD CALLDATALOAD PUSH2 0x1DFC DUP2 PUSH2 0x223A JUMP JUMPDEST SWAP5 POP PUSH1 0x80 DUP10 ADD CALLDATALOAD PUSH2 0x1E0C DUP2 PUSH2 0x223A JUMP JUMPDEST SWAP4 POP PUSH1 0xA0 DUP10 ADD CALLDATALOAD PUSH2 0x1E1C DUP2 PUSH2 0x223A JUMP JUMPDEST SWAP3 POP PUSH1 0xC0 DUP10 ADD CALLDATALOAD PUSH2 0x1E2C DUP2 PUSH2 0x223A JUMP JUMPDEST SWAP2 POP PUSH1 0xE0 DUP10 ADD CALLDATALOAD PUSH2 0x1E3C DUP2 PUSH2 0x223A JUMP JUMPDEST DUP1 SWAP2 POP POP SWAP3 SWAP6 SWAP9 POP SWAP3 SWAP6 SWAP9 SWAP1 SWAP4 SWAP7 POP JUMP JUMPDEST PUSH1 0x0 DUP1 PUSH1 0x0 PUSH1 0x60 DUP5 DUP7 SUB SLT ISZERO PUSH2 0x1E62 JUMPI PUSH1 0x0 DUP1 REVERT JUMPDEST DUP4 CALLDATALOAD PUSH2 0x1E6D DUP2 PUSH2 0x223A JUMP JUMPDEST SWAP3 POP PUSH1 0x20 DUP5 ADD CALLDATALOAD PUSH2 0x1E7D DUP2 PUSH2 0x223A JUMP JUMPDEST SWAP3 SWAP6 SWAP3 SWAP5 POP POP POP PUSH1 0x40 SWAP2 SWAP1 SWAP2 ADD CALLDATALOAD SWAP1 JUMP JUMPDEST PUSH1 0x0 DUP1 PUSH1 0x40 DUP4 DUP6 SUB SLT ISZERO PUSH2 0x1EA1 JUMPI PUSH1 0x0 DUP1 REVERT JUMPDEST DUP3 CALLDATALOAD PUSH2 0x1EAC DUP2 PUSH2 0x223A JUMP JUMPDEST SWAP5 PUSH1 0x20 SWAP4 SWAP1 SWAP4 ADD CALLDATALOAD SWAP4 POP POP POP JUMP JUMPDEST PUSH1 0x0 PUSH1 0x20 DUP3 DUP5 SUB SLT ISZERO PUSH2 0x1ECC JUMPI PUSH1 0x0 DUP1 REVERT JUMPDEST DUP2 MLOAD DUP1 ISZERO ISZERO DUP2 EQ PUSH2 0x614 JUMPI PUSH1 0x0 DUP1 REVERT JUMPDEST PUSH1 0x0 PUSH1 0xA0 DUP3 DUP5 SUB SLT ISZERO PUSH2 0x1EEE JUMPI PUSH1 0x0 DUP1 REVERT JUMPDEST PUSH1 0x40 MLOAD PUSH1 0xA0 DUP2 ADD DUP2 DUP2 LT PUSH8 0xFFFFFFFFFFFFFFFF DUP3 GT OR ISZERO PUSH2 0x1F1F JUMPI PUSH4 0x4E487B71 PUSH1 0xE0 SHL PUSH1 0x0 MSTORE PUSH1 0x41 PUSH1 0x4 MSTORE PUSH1 0x24 PUSH1 0x0 REVERT JUMPDEST PUSH1 0x40 MSTORE DUP3 MLOAD PUSH2 0x1F2D DUP2 PUSH2 0x223A JUMP JUMPDEST DUP1 DUP3 MSTORE POP PUSH1 0x20 DUP4 ADD MLOAD PUSH1 0x20 DUP3 ADD MSTORE PUSH1 0x40 DUP4 ADD MLOAD PUSH1 0x40 DUP3 ADD MSTORE PUSH1 0x60 DUP4 ADD MLOAD PUSH1 0x60 DUP3 ADD MSTORE PUSH1 0x80 DUP4 ADD MLOAD PUSH2 0x1F5D DUP2 PUSH2 0x223A JUMP JUMPDEST PUSH1 0x80 DUP3 ADD MSTORE SWAP4 SWAP3 POP POP POP JUMP JUMPDEST PUSH1 0x0 PUSH1 0x20 DUP3 DUP5 SUB SLT ISZERO PUSH2 0x1F7B JUMPI PUSH1 0x0 DUP1 REVERT JUMPDEST POP CALLDATALOAD SWAP2 SWAP1 POP JUMP JUMPDEST PUSH1 0x0 PUSH1 0x20 DUP3 DUP5 SUB SLT ISZERO PUSH2 0x1F94 JUMPI PUSH1 0x0 DUP1 REVERT JUMPDEST POP MLOAD SWAP2 SWAP1 POP JUMP JUMPDEST PUSH1 0x0 DUP1 PUSH1 0x0 DUP1 PUSH1 0x80 DUP6 DUP8 SUB SLT ISZERO PUSH2 0x1FB1 JUMPI PUSH1 0x0 DUP1 REVERT JUMPDEST DUP5 CALLDATALOAD SWAP4 POP PUSH1 0x20 DUP6 ADD CALLDATALOAD PUSH2 0x1FC3 DUP2 PUSH2 0x223A JUMP JUMPDEST SWAP3 POP PUSH1 0x40 DUP6 ADD CALLDATALOAD PUSH2 0x1FD3 DUP2 PUSH2 0x223A JUMP JUMPDEST SWAP2 POP PUSH1 0x60 DUP6 ADD CALLDATALOAD PUSH2 0x1FE3 DUP2 PUSH2 0x223A JUMP JUMPDEST SWAP4 SWAP7 SWAP3 SWAP6 POP SWAP1 SWAP4 POP POP JUMP JUMPDEST PUSH1 0x0 DUP3 MLOAD PUSH2 0x2000 DUP2 DUP5 PUSH1 0x20 DUP8 ADD PUSH2 0x21A7 JUMP JUMPDEST SWAP2 SWAP1 SWAP2 ADD SWAP3 SWAP2 POP POP JUMP JUMPDEST PUSH1 0x1 PUSH1 0x1 PUSH1 0xA0 SHL SUB SWAP3 SWAP1 SWAP3 AND DUP3 MSTORE PUSH1 0x20 DUP3 ADD MSTORE PUSH1 0x40 ADD SWAP1 JUMP JUMPDEST PUSH1 0x40 DUP1 DUP3 MSTORE DUP4 MLOAD SWAP1 DUP3 ADD DUP2 SWAP1 MSTORE PUSH1 0x0 SWAP1 PUSH1 0x20 SWAP1 PUSH1 0x60 DUP5 ADD SWAP1 DUP3 DUP8 ADD DUP5 JUMPDEST DUP3 DUP2 LT ISZERO PUSH2 0x2065 JUMPI DUP2 MLOAD PUSH1 0x1 PUSH1 0x1 PUSH1 0xA0 SHL SUB AND DUP5 MSTORE SWAP3 DUP5 ADD SWAP3 SWAP1 DUP5 ADD SWAP1 PUSH1 0x1 ADD PUSH2 0x2040 JUMP JUMPDEST POP POP POP DUP4 DUP2 SUB DUP3 DUP6 ADD MSTORE DUP5 MLOAD DUP1 DUP3 MSTORE DUP6 DUP4 ADD SWAP2 DUP4 ADD SWAP1 PUSH1 0x0 JUMPDEST DUP2 DUP2 LT ISZERO PUSH2 0x209A JUMPI DUP4 MLOAD DUP4 MSTORE SWAP3 DUP5 ADD SWAP3 SWAP2 DUP5 ADD SWAP2 PUSH1 0x1 ADD PUSH2 0x207E JUMP JUMPDEST POP SWAP1 SWAP8 SWAP7 POP POP POP POP POP POP POP JUMP JUMPDEST PUSH1 0x20 DUP2 MSTORE PUSH1 0x0 DUP3 MLOAD DUP1 PUSH1 0x20 DUP5 ADD MSTORE PUSH2 0x20C6 DUP2 PUSH1 0x40 DUP6 ADD PUSH1 0x20 DUP8 ADD PUSH2 0x21A7 JUMP JUMPDEST PUSH1 0x1F ADD PUSH1 0x1F NOT AND SWAP2 SWAP1 SWAP2 ADD PUSH1 0x40 ADD SWAP3 SWAP2 POP POP JUMP JUMPDEST PUSH1 0x20 DUP1 DUP3 MSTORE PUSH1 0x3B SWAP1 DUP3 ADD MSTORE PUSH32 0x5265776172642062616C616E6365206E6F742073756666696369656E7420746F PUSH1 0x40 DUP3 ADD MSTORE PUSH32 0x207472616E7366657220696E746F20596574692046696E616E63650000000000 PUSH1 0x60 DUP3 ADD MSTORE PUSH1 0x80 ADD SWAP1 JUMP JUMPDEST PUSH1 0x0 DUP3 NOT DUP3 GT ISZERO PUSH2 0x214A JUMPI PUSH2 0x214A PUSH2 0x220E JUMP JUMPDEST POP ADD SWAP1 JUMP JUMPDEST PUSH1 0x0 DUP3 PUSH2 0x216C JUMPI PUSH4 0x4E487B71 PUSH1 0xE0 SHL PUSH1 0x0 MSTORE PUSH1 0x12 PUSH1 0x4 MSTORE PUSH1 0x24 PUSH1 0x0 REVERT JUMPDEST POP DIV SWAP1 JUMP JUMPDEST PUSH1 0x0 DUP2 PUSH1 0x0 NOT DIV DUP4 GT DUP3 ISZERO ISZERO AND ISZERO PUSH2 0x218B JUMPI PUSH2 0x218B PUSH2 0x220E JUMP JUMPDEST POP MUL SWAP1 JUMP JUMPDEST PUSH1 0x0 DUP3 DUP3 LT ISZERO PUSH2 0x21A2 JUMPI PUSH2 0x21A2 PUSH2 0x220E JUMP JUMPDEST POP SUB SWAP1 JUMP JUMPDEST PUSH1 0x0 JUMPDEST DUP4 DUP2 LT ISZERO PUSH2 0x21C2 JUMPI DUP2 DUP2 ADD MLOAD DUP4 DUP3 ADD MSTORE PUSH1 0x20 ADD PUSH2 0x21AA JUMP JUMPDEST DUP4 DUP2 GT ISZERO PUSH2 0xA34 JUMPI POP POP PUSH1 0x0 SWAP2 ADD MSTORE JUMP JUMPDEST PUSH1 0x1 DUP2 DUP2 SHR SWAP1 DUP3 AND DUP1 PUSH2 0x21E7 JUMPI PUSH1 0x7F DUP3 AND SWAP2 POP JUMPDEST PUSH1 0x20 DUP3 LT DUP2 EQ ISZERO PUSH2 0x2208 JUMPI PUSH4 0x4E487B71 PUSH1 0xE0 SHL PUSH1 0x0 MSTORE PUSH1 0x22 PUSH1 0x4 MSTORE PUSH1 0x24 PUSH1 0x0 REVERT JUMPDEST POP SWAP2 SWAP1 POP JUMP JUMPDEST PUSH4 0x4E487B71 PUSH1 0xE0 SHL PUSH1 0x0 MSTORE PUSH1 0x11 PUSH1 0x4 MSTORE PUSH1 0x24 PUSH1 0x0 REVERT JUMPDEST PUSH4 0x4E487B71 PUSH1 0xE0 SHL PUSH1 0x0 MSTORE PUSH1 0x32 PUSH1 0x4 MSTORE PUSH1 0x24 PUSH1 0x0 REVERT JUMPDEST PUSH1 0x1 PUSH1 0x1 PUSH1 0xA0 SHL SUB DUP2 AND DUP2 EQ PUSH2 0xC54 JUMPI PUSH1 0x0 DUP1 REVERT INVALID 0xDD CALLCODE MSTORE 0xAD SHL 0xE2 0xC8 SWAP12 PUSH10 0xC2B068FC378DAA952BA7 CALL PUSH4 0xC4A11628 CREATE2 GAS 0x4D CREATE2 0x23 0xB3 0xEF LOG2 PUSH5 0x6970667358 0x22 SLT KECCAK256 0x1E 0xED 0x27 GT 0xE3 PUSH22 0x2204129B5FCE4F647E72409D68A36B11228F38DF9374 SWAP4 0x4E 0x2E PUSH1 0x64 PUSH20 0x6F6C634300080700330000000000000000000000 "},"methodIdentifiers":{"JLP()":"0dc716c8","JOE()":"ffebad30","_MasterChefJoe()":"a5d946de","_decimals()":"32424aa3","_name()":"d28d8852","_poolPid()":"6fc8a199","_symbol()":"b09f1266","_totalSupply()":"3eaaf86b","allowance(address,address)":"dd62ed3e","approve(address,uint256)":"095ea7b3","balanceOf(address)":"70a08231","claimReward(address)":"d279c191","decimals()":"313ce567","decreaseAllowance(address,uint256)":"a457c2d7","endTreasuryReward(address,uint256)":"ca70560a","getPendingRewards(address)":"f6ed2017","getUserInfo(address)":"6386c1c7","increaseAllowance(address,uint256)":"39509351","name()":"06fdde03","setAddresses(address,address,address,address,address,address,address,address)":"d733cfd0","symbol()":"95d89b41","totalSupply()":"18160ddd","transfer(address,uint256)":"a9059cbb","transferFrom(address,address,uint256)":"23b872dd","unwrap(uint256)":"de0e9a3e","unwrapFor(address,address,uint256)":"261c80b6","updateReward(address,address,uint256)":"2c8e8dfa","wrap(uint256,address,address,address)":"932eeefe"}}}}}