{"contracts/AssetWrappers/ERC20_8.sol":{"ERC20_8":{"abi":[{"anonymous":false,"inputs":[{"indexed":true,"internalType":"address","name":"owner","type":"address"},{"indexed":true,"internalType":"address","name":"spender","type":"address"},{"indexed":false,"internalType":"uint256","name":"value","type":"uint256"}],"name":"Approval","type":"event"},{"anonymous":false,"inputs":[{"indexed":true,"internalType":"address","name":"from","type":"address"},{"indexed":true,"internalType":"address","name":"to","type":"address"},{"indexed":false,"internalType":"uint256","name":"value","type":"uint256"}],"name":"Transfer","type":"event"},{"inputs":[],"name":"_decimals","outputs":[{"internalType":"uint8","name":"","type":"uint8"}],"stateMutability":"view","type":"function"},{"inputs":[],"name":"_name","outputs":[{"internalType":"string","name":"","type":"string"}],"stateMutability":"view","type":"function"},{"inputs":[],"name":"_symbol","outputs":[{"internalType":"string","name":"","type":"string"}],"stateMutability":"view","type":"function"},{"inputs":[],"name":"_totalSupply","outputs":[{"internalType":"uint256","name":"","type":"uint256"}],"stateMutability":"view","type":"function"},{"inputs":[{"internalType":"address","name":"tokenOwner","type":"address"},{"internalType":"address","name":"spender","type":"address"}],"name":"allowance","outputs":[{"internalType":"uint256","name":"remaining","type":"uint256"}],"stateMutability":"view","type":"function"},{"inputs":[{"internalType":"address","name":"spender","type":"address"},{"internalType":"uint256","name":"amount","type":"uint256"}],"name":"approve","outputs":[{"internalType":"bool","name":"","type":"bool"}],"stateMutability":"nonpayable","type":"function"},{"inputs":[{"internalType":"address","name":"_token_owner","type":"address"}],"name":"balanceOf","outputs":[{"internalType":"uint256","name":"balance","type":"uint256"}],"stateMutability":"view","type":"function"},{"inputs":[],"name":"decimals","outputs":[{"internalType":"uint8","name":"","type":"uint8"}],"stateMutability":"view","type":"function"},{"inputs":[{"internalType":"address","name":"spender","type":"address"},{"internalType":"uint256","name":"subtractedValue","type":"uint256"}],"name":"decreaseAllowance","outputs":[{"internalType":"bool","name":"","type":"bool"}],"stateMutability":"nonpayable","type":"function"},{"inputs":[{"internalType":"address","name":"spender","type":"address"},{"internalType":"uint256","name":"addedValue","type":"uint256"}],"name":"increaseAllowance","outputs":[{"internalType":"bool","name":"","type":"bool"}],"stateMutability":"nonpayable","type":"function"},{"inputs":[],"name":"name","outputs":[{"internalType":"string","name":"","type":"string"}],"stateMutability":"view","type":"function"},{"inputs":[],"name":"symbol","outputs":[{"internalType":"string","name":"","type":"string"}],"stateMutability":"view","type":"function"},{"inputs":[],"name":"totalSupply","outputs":[{"internalType":"uint256","name":"","type":"uint256"}],"stateMutability":"view","type":"function"},{"inputs":[{"internalType":"address","name":"_to","type":"address"},{"internalType":"uint256","name":"_num_tokens","type":"uint256"}],"name":"transfer","outputs":[{"internalType":"bool","name":"success","type":"bool"}],"stateMutability":"nonpayable","type":"function"},{"inputs":[{"internalType":"address","name":"_from","type":"address"},{"internalType":"address","name":"_to","type":"address"},{"internalType":"uint256","name":"_amount","type":"uint256"}],"name":"transferFrom","outputs":[{"internalType":"bool","name":"success","type":"bool"}],"stateMutability":"nonpayable","type":"function"}],"evm":{"bytecode":{"linkReferences":{},"object":"608060405234801561001057600080fd5b50610853806100206000396000f3fe608060405234801561001057600080fd5b50600436106100d55760003560e01c80633eaaf86b116100875780633eaaf86b1461017957806370a082311461018257806395d89b41146101ab578063a457c2d7146101b3578063a9059cbb146101c6578063b09f1266146101d9578063d28d8852146101e1578063dd62ed3e146101e957600080fd5b806306fdde03146100da578063095ea7b3146100f857806318160ddd1461011b57806323b872dd1461012d578063313ce5671461014057806332424aa3146101595780633950935114610166575b600080fd5b6100e2610222565b6040516100ef9190610748565b60405180910390f35b61010b61010636600461071e565b6102b4565b60405190151581526020016100ef565b6003545b6040519081526020016100ef565b61010b61013b3660046106e2565b6102ca565b60025460ff165b60405160ff90911681526020016100ef565b6002546101479060ff1681565b61010b61017436600461071e565b6102df565b61011f60035481565b61011f61019036600461068d565b6001600160a01b031660009081526004602052604090205490565b6100e261031b565b61010b6101c136600461071e565b61032a565b61010b6101d436600461071e565b610361565b6100e2610474565b6100e2610502565b61011f6101f73660046106af565b6001600160a01b03918216600090815260056020908152604080832093909416825291909152205490565b606060018054610231906107cc565b80601f016020809104026020016040519081016040528092919081815260200182805461025d906107cc565b80156102aa5780601f1061027f576101008083540402835291602001916102aa565b820191906000526020600020905b81548152906001019060200180831161028d57829003601f168201915b5050505050905090565b60006102c133848461050f565b50600192915050565b60006102d7848484610570565b949350505050565b3360008181526005602090815260408083206001600160a01b038716845290915281205490916102c191859061031690869061079d565b61050f565b606060008054610231906107cc565b3360008181526005602090815260408083206001600160a01b038716845290915281205490916102c19185906103169086906107b5565b336000908152600460205260408120548211156103e15760405162461bcd60e51b815260206004820152603460248201527f596f752061726520747279696e6720746f207472616e73666572206d6f726520604482015273746f6b656e73207468616e20796f75206861766560601b606482015260840160405180910390fd5b33600090815260046020526040808220805485900390556001600160a01b038516825290205461041290839061079d565b6001600160a01b0384166000818152600460205260409081902092909255905133907fddf252ad1be2c89b69c2b068fc378daa952ba7f163c4a11628f55a4df523b3ef906104639086815260200190565b60405180910390a350600192915050565b60008054610481906107cc565b80601f01602080910402602001604051908101604052809291908181526020018280546104ad906107cc565b80156104fa5780601f106104cf576101008083540402835291602001916104fa565b820191906000526020600020905b8154815290600101906020018083116104dd57829003601f168201915b505050505081565b60018054610481906107cc565b6001600160a01b0383811660008181526005602090815260408083209487168084529482529182902085905590518481527f8c5be1e5ebec7d5bd14f71427d1e84f3dd0314c0f7b2291e5b200ac8c7c3b925910160405180910390a3505050565b6001600160a01b0383166000908152600460205260408120546105949083906107b5565b6001600160a01b03851660009081526004602090815260408083209390935560058152828220338352905220546105cc9083906107b5565b6001600160a01b03808616600090815260056020908152604080832033845282528083209490945591861681526004909152205461060b90839061079d565b6001600160a01b0380851660008181526004602052604090819020939093559151908616907fddf252ad1be2c89b69c2b068fc378daa952ba7f163c4a11628f55a4df523b3ef9061065f9086815260200190565b60405180910390a35060019392505050565b80356001600160a01b038116811461068857600080fd5b919050565b60006020828403121561069f57600080fd5b6106a882610671565b9392505050565b600080604083850312156106c257600080fd5b6106cb83610671565b91506106d960208401610671565b90509250929050565b6000806000606084860312156106f757600080fd5b61070084610671565b925061070e60208501610671565b9150604084013590509250925092565b6000806040838503121561073157600080fd5b61073a83610671565b946020939093013593505050565b600060208083528351808285015260005b8181101561077557858101830151858201604001528201610759565b81811115610787576000604083870101525b50601f01601f1916929092016040019392505050565b600082198211156107b0576107b0610807565b500190565b6000828210156107c7576107c7610807565b500390565b600181811c908216806107e057607f821691505b6020821081141561080157634e487b7160e01b600052602260045260246000fd5b50919050565b634e487b7160e01b600052601160045260246000fdfea264697066735822122087f6f4101eb82ef852bf58a0a98658bbf91b038acf947a8f14a0a3626363856d64736f6c63430008070033","opcodes":"PUSH1 0x80 PUSH1 0x40 MSTORE CALLVALUE DUP1 ISZERO PUSH2 0x10 JUMPI PUSH1 0x0 DUP1 REVERT JUMPDEST POP PUSH2 0x853 DUP1 PUSH2 0x20 PUSH1 0x0 CODECOPY PUSH1 0x0 RETURN INVALID PUSH1 0x80 PUSH1 0x40 MSTORE CALLVALUE DUP1 ISZERO PUSH2 0x10 JUMPI PUSH1 0x0 DUP1 REVERT JUMPDEST POP PUSH1 0x4 CALLDATASIZE LT PUSH2 0xD5 JUMPI PUSH1 0x0 CALLDATALOAD PUSH1 0xE0 SHR DUP1 PUSH4 0x3EAAF86B GT PUSH2 0x87 JUMPI DUP1 PUSH4 0x3EAAF86B EQ PUSH2 0x179 JUMPI DUP1 PUSH4 0x70A08231 EQ PUSH2 0x182 JUMPI DUP1 PUSH4 0x95D89B41 EQ PUSH2 0x1AB JUMPI DUP1 PUSH4 0xA457C2D7 EQ PUSH2 0x1B3 JUMPI DUP1 PUSH4 0xA9059CBB EQ PUSH2 0x1C6 JUMPI DUP1 PUSH4 0xB09F1266 EQ PUSH2 0x1D9 JUMPI DUP1 PUSH4 0xD28D8852 EQ PUSH2 0x1E1 JUMPI DUP1 PUSH4 0xDD62ED3E EQ PUSH2 0x1E9 JUMPI PUSH1 0x0 DUP1 REVERT JUMPDEST DUP1 PUSH4 0x6FDDE03 EQ PUSH2 0xDA JUMPI DUP1 PUSH4 0x95EA7B3 EQ PUSH2 0xF8 JUMPI DUP1 PUSH4 0x18160DDD EQ PUSH2 0x11B JUMPI DUP1 PUSH4 0x23B872DD EQ PUSH2 0x12D JUMPI DUP1 PUSH4 0x313CE567 EQ PUSH2 0x140 JUMPI DUP1 PUSH4 0x32424AA3 EQ PUSH2 0x159 JUMPI DUP1 PUSH4 0x39509351 EQ PUSH2 0x166 JUMPI JUMPDEST PUSH1 0x0 DUP1 REVERT JUMPDEST PUSH2 0xE2 PUSH2 0x222 JUMP JUMPDEST PUSH1 0x40 MLOAD PUSH2 0xEF SWAP2 SWAP1 PUSH2 0x748 JUMP JUMPDEST PUSH1 0x40 MLOAD DUP1 SWAP2 SUB SWAP1 RETURN JUMPDEST PUSH2 0x10B PUSH2 0x106 CALLDATASIZE PUSH1 0x4 PUSH2 0x71E JUMP JUMPDEST PUSH2 0x2B4 JUMP JUMPDEST PUSH1 0x40 MLOAD SWAP1 ISZERO ISZERO DUP2 MSTORE PUSH1 0x20 ADD PUSH2 0xEF JUMP JUMPDEST PUSH1 0x3 SLOAD JUMPDEST PUSH1 0x40 MLOAD SWAP1 DUP2 MSTORE PUSH1 0x20 ADD PUSH2 0xEF JUMP JUMPDEST PUSH2 0x10B PUSH2 0x13B CALLDATASIZE PUSH1 0x4 PUSH2 0x6E2 JUMP JUMPDEST PUSH2 0x2CA JUMP JUMPDEST PUSH1 0x2 SLOAD PUSH1 0xFF AND JUMPDEST PUSH1 0x40 MLOAD PUSH1 0xFF SWAP1 SWAP2 AND DUP2 MSTORE PUSH1 0x20 ADD PUSH2 0xEF JUMP JUMPDEST PUSH1 0x2 SLOAD PUSH2 0x147 SWAP1 PUSH1 0xFF AND DUP2 JUMP JUMPDEST PUSH2 0x10B PUSH2 0x174 CALLDATASIZE PUSH1 0x4 PUSH2 0x71E JUMP JUMPDEST PUSH2 0x2DF JUMP JUMPDEST PUSH2 0x11F PUSH1 0x3 SLOAD DUP2 JUMP JUMPDEST PUSH2 0x11F PUSH2 0x190 CALLDATASIZE PUSH1 0x4 PUSH2 0x68D JUMP JUMPDEST PUSH1 0x1 PUSH1 0x1 PUSH1 0xA0 SHL SUB AND PUSH1 0x0 SWAP1 DUP2 MSTORE PUSH1 0x4 PUSH1 0x20 MSTORE PUSH1 0x40 SWAP1 KECCAK256 SLOAD SWAP1 JUMP JUMPDEST PUSH2 0xE2 PUSH2 0x31B JUMP JUMPDEST PUSH2 0x10B PUSH2 0x1C1 CALLDATASIZE PUSH1 0x4 PUSH2 0x71E JUMP JUMPDEST PUSH2 0x32A JUMP JUMPDEST PUSH2 0x10B PUSH2 0x1D4 CALLDATASIZE PUSH1 0x4 PUSH2 0x71E JUMP JUMPDEST PUSH2 0x361 JUMP JUMPDEST PUSH2 0xE2 PUSH2 0x474 JUMP JUMPDEST PUSH2 0xE2 PUSH2 0x502 JUMP JUMPDEST PUSH2 0x11F PUSH2 0x1F7 CALLDATASIZE PUSH1 0x4 PUSH2 0x6AF JUMP JUMPDEST PUSH1 0x1 PUSH1 0x1 PUSH1 0xA0 SHL SUB SWAP2 DUP3 AND PUSH1 0x0 SWAP1 DUP2 MSTORE PUSH1 0x5 PUSH1 0x20 SWAP1 DUP2 MSTORE PUSH1 0x40 DUP1 DUP4 KECCAK256 SWAP4 SWAP1 SWAP5 AND DUP3 MSTORE SWAP2 SWAP1 SWAP2 MSTORE KECCAK256 SLOAD SWAP1 JUMP JUMPDEST PUSH1 0x60 PUSH1 0x1 DUP1 SLOAD PUSH2 0x231 SWAP1 PUSH2 0x7CC JUMP JUMPDEST DUP1 PUSH1 0x1F ADD PUSH1 0x20 DUP1 SWAP2 DIV MUL PUSH1 0x20 ADD PUSH1 0x40 MLOAD SWAP1 DUP2 ADD PUSH1 0x40 MSTORE DUP1 SWAP3 SWAP2 SWAP1 DUP2 DUP2 MSTORE PUSH1 0x20 ADD DUP3 DUP1 SLOAD PUSH2 0x25D SWAP1 PUSH2 0x7CC JUMP JUMPDEST DUP1 ISZERO PUSH2 0x2AA JUMPI DUP1 PUSH1 0x1F LT PUSH2 0x27F JUMPI PUSH2 0x100 DUP1 DUP4 SLOAD DIV MUL DUP4 MSTORE SWAP2 PUSH1 0x20 ADD SWAP2 PUSH2 0x2AA JUMP JUMPDEST DUP3 ADD SWAP2 SWAP1 PUSH1 0x0 MSTORE PUSH1 0x20 PUSH1 0x0 KECCAK256 SWAP1 JUMPDEST DUP2 SLOAD DUP2 MSTORE SWAP1 PUSH1 0x1 ADD SWAP1 PUSH1 0x20 ADD DUP1 DUP4 GT PUSH2 0x28D JUMPI DUP3 SWAP1 SUB PUSH1 0x1F AND DUP3 ADD SWAP2 JUMPDEST POP POP POP POP POP SWAP1 POP SWAP1 JUMP JUMPDEST PUSH1 0x0 PUSH2 0x2C1 CALLER DUP5 DUP5 PUSH2 0x50F JUMP JUMPDEST POP PUSH1 0x1 SWAP3 SWAP2 POP POP JUMP JUMPDEST PUSH1 0x0 PUSH2 0x2D7 DUP5 DUP5 DUP5 PUSH2 0x570 JUMP JUMPDEST SWAP5 SWAP4 POP POP POP POP JUMP JUMPDEST CALLER PUSH1 0x0 DUP2 DUP2 MSTORE PUSH1 0x5 PUSH1 0x20 SWAP1 DUP2 MSTORE PUSH1 0x40 DUP1 DUP4 KECCAK256 PUSH1 0x1 PUSH1 0x1 PUSH1 0xA0 SHL SUB DUP8 AND DUP5 MSTORE SWAP1 SWAP2 MSTORE DUP2 KECCAK256 SLOAD SWAP1 SWAP2 PUSH2 0x2C1 SWAP2 DUP6 SWAP1 PUSH2 0x316 SWAP1 DUP7 SWAP1 PUSH2 0x79D JUMP JUMPDEST PUSH2 0x50F JUMP JUMPDEST PUSH1 0x60 PUSH1 0x0 DUP1 SLOAD PUSH2 0x231 SWAP1 PUSH2 0x7CC JUMP JUMPDEST CALLER PUSH1 0x0 DUP2 DUP2 MSTORE PUSH1 0x5 PUSH1 0x20 SWAP1 DUP2 MSTORE PUSH1 0x40 DUP1 DUP4 KECCAK256 PUSH1 0x1 PUSH1 0x1 PUSH1 0xA0 SHL SUB DUP8 AND DUP5 MSTORE SWAP1 SWAP2 MSTORE DUP2 KECCAK256 SLOAD SWAP1 SWAP2 PUSH2 0x2C1 SWAP2 DUP6 SWAP1 PUSH2 0x316 SWAP1 DUP7 SWAP1 PUSH2 0x7B5 JUMP JUMPDEST CALLER PUSH1 0x0 SWAP1 DUP2 MSTORE PUSH1 0x4 PUSH1 0x20 MSTORE PUSH1 0x40 DUP2 KECCAK256 SLOAD DUP3 GT ISZERO PUSH2 0x3E1 JUMPI PUSH1 0x40 MLOAD PUSH3 0x461BCD PUSH1 0xE5 SHL DUP2 MSTORE PUSH1 0x20 PUSH1 0x4 DUP3 ADD MSTORE PUSH1 0x34 PUSH1 0x24 DUP3 ADD MSTORE PUSH32 0x596F752061726520747279696E6720746F207472616E73666572206D6F726520 PUSH1 0x44 DUP3 ADD MSTORE PUSH20 0x746F6B656E73207468616E20796F752068617665 PUSH1 0x60 SHL PUSH1 0x64 DUP3 ADD MSTORE PUSH1 0x84 ADD PUSH1 0x40 MLOAD DUP1 SWAP2 SUB SWAP1 REVERT JUMPDEST CALLER PUSH1 0x0 SWAP1 DUP2 MSTORE PUSH1 0x4 PUSH1 0x20 MSTORE PUSH1 0x40 DUP1 DUP3 KECCAK256 DUP1 SLOAD DUP6 SWAP1 SUB SWAP1 SSTORE PUSH1 0x1 PUSH1 0x1 PUSH1 0xA0 SHL SUB DUP6 AND DUP3 MSTORE SWAP1 KECCAK256 SLOAD PUSH2 0x412 SWAP1 DUP4 SWAP1 PUSH2 0x79D JUMP JUMPDEST PUSH1 0x1 PUSH1 0x1 PUSH1 0xA0 SHL SUB DUP5 AND PUSH1 0x0 DUP2 DUP2 MSTORE PUSH1 0x4 PUSH1 0x20 MSTORE PUSH1 0x40 SWAP1 DUP2 SWAP1 KECCAK256 SWAP3 SWAP1 SWAP3 SSTORE SWAP1 MLOAD CALLER SWAP1 PUSH32 0xDDF252AD1BE2C89B69C2B068FC378DAA952BA7F163C4A11628F55A4DF523B3EF SWAP1 PUSH2 0x463 SWAP1 DUP7 DUP2 MSTORE PUSH1 0x20 ADD SWAP1 JUMP JUMPDEST PUSH1 0x40 MLOAD DUP1 SWAP2 SUB SWAP1 LOG3 POP PUSH1 0x1 SWAP3 SWAP2 POP POP JUMP JUMPDEST PUSH1 0x0 DUP1 SLOAD PUSH2 0x481 SWAP1 PUSH2 0x7CC JUMP JUMPDEST DUP1 PUSH1 0x1F ADD PUSH1 0x20 DUP1 SWAP2 DIV MUL PUSH1 0x20 ADD PUSH1 0x40 MLOAD SWAP1 DUP2 ADD PUSH1 0x40 MSTORE DUP1 SWAP3 SWAP2 SWAP1 DUP2 DUP2 MSTORE PUSH1 0x20 ADD DUP3 DUP1 SLOAD PUSH2 0x4AD SWAP1 PUSH2 0x7CC JUMP JUMPDEST DUP1 ISZERO PUSH2 0x4FA JUMPI DUP1 PUSH1 0x1F LT PUSH2 0x4CF JUMPI PUSH2 0x100 DUP1 DUP4 SLOAD DIV MUL DUP4 MSTORE SWAP2 PUSH1 0x20 ADD SWAP2 PUSH2 0x4FA JUMP JUMPDEST DUP3 ADD SWAP2 SWAP1 PUSH1 0x0 MSTORE PUSH1 0x20 PUSH1 0x0 KECCAK256 SWAP1 JUMPDEST DUP2 SLOAD DUP2 MSTORE SWAP1 PUSH1 0x1 ADD SWAP1 PUSH1 0x20 ADD DUP1 DUP4 GT PUSH2 0x4DD JUMPI DUP3 SWAP1 SUB PUSH1 0x1F AND DUP3 ADD SWAP2 JUMPDEST POP POP POP POP POP DUP2 JUMP JUMPDEST PUSH1 0x1 DUP1 SLOAD PUSH2 0x481 SWAP1 PUSH2 0x7CC JUMP JUMPDEST PUSH1 0x1 PUSH1 0x1 PUSH1 0xA0 SHL SUB DUP4 DUP2 AND PUSH1 0x0 DUP2 DUP2 MSTORE PUSH1 0x5 PUSH1 0x20 SWAP1 DUP2 MSTORE PUSH1 0x40 DUP1 DUP4 KECCAK256 SWAP5 DUP8 AND DUP1 DUP5 MSTORE SWAP5 DUP3 MSTORE SWAP2 DUP3 SWAP1 KECCAK256 DUP6 SWAP1 SSTORE SWAP1 MLOAD DUP5 DUP2 MSTORE PUSH32 0x8C5BE1E5EBEC7D5BD14F71427D1E84F3DD0314C0F7B2291E5B200AC8C7C3B925 SWAP2 ADD PUSH1 0x40 MLOAD DUP1 SWAP2 SUB SWAP1 LOG3 POP POP POP JUMP JUMPDEST PUSH1 0x1 PUSH1 0x1 PUSH1 0xA0 SHL SUB DUP4 AND PUSH1 0x0 SWAP1 DUP2 MSTORE PUSH1 0x4 PUSH1 0x20 MSTORE PUSH1 0x40 DUP2 KECCAK256 SLOAD PUSH2 0x594 SWAP1 DUP4 SWAP1 PUSH2 0x7B5 JUMP JUMPDEST PUSH1 0x1 PUSH1 0x1 PUSH1 0xA0 SHL SUB DUP6 AND PUSH1 0x0 SWAP1 DUP2 MSTORE PUSH1 0x4 PUSH1 0x20 SWAP1 DUP2 MSTORE PUSH1 0x40 DUP1 DUP4 KECCAK256 SWAP4 SWAP1 SWAP4 SSTORE PUSH1 0x5 DUP2 MSTORE DUP3 DUP3 KECCAK256 CALLER DUP4 MSTORE SWAP1 MSTORE KECCAK256 SLOAD PUSH2 0x5CC SWAP1 DUP4 SWAP1 PUSH2 0x7B5 JUMP JUMPDEST PUSH1 0x1 PUSH1 0x1 PUSH1 0xA0 SHL SUB DUP1 DUP7 AND PUSH1 0x0 SWAP1 DUP2 MSTORE PUSH1 0x5 PUSH1 0x20 SWAP1 DUP2 MSTORE PUSH1 0x40 DUP1 DUP4 KECCAK256 CALLER DUP5 MSTORE DUP3 MSTORE DUP1 DUP4 KECCAK256 SWAP5 SWAP1 SWAP5 SSTORE SWAP2 DUP7 AND DUP2 MSTORE PUSH1 0x4 SWAP1 SWAP2 MSTORE KECCAK256 SLOAD PUSH2 0x60B SWAP1 DUP4 SWAP1 PUSH2 0x79D JUMP JUMPDEST PUSH1 0x1 PUSH1 0x1 PUSH1 0xA0 SHL SUB DUP1 DUP6 AND PUSH1 0x0 DUP2 DUP2 MSTORE PUSH1 0x4 PUSH1 0x20 MSTORE PUSH1 0x40 SWAP1 DUP2 SWAP1 KECCAK256 SWAP4 SWAP1 SWAP4 SSTORE SWAP2 MLOAD SWAP1 DUP7 AND SWAP1 PUSH32 0xDDF252AD1BE2C89B69C2B068FC378DAA952BA7F163C4A11628F55A4DF523B3EF SWAP1 PUSH2 0x65F SWAP1 DUP7 DUP2 MSTORE PUSH1 0x20 ADD SWAP1 JUMP JUMPDEST PUSH1 0x40 MLOAD DUP1 SWAP2 SUB SWAP1 LOG3 POP PUSH1 0x1 SWAP4 SWAP3 POP POP POP JUMP JUMPDEST DUP1 CALLDATALOAD PUSH1 0x1 PUSH1 0x1 PUSH1 0xA0 SHL SUB DUP2 AND DUP2 EQ PUSH2 0x688 JUMPI PUSH1 0x0 DUP1 REVERT JUMPDEST SWAP2 SWAP1 POP JUMP JUMPDEST PUSH1 0x0 PUSH1 0x20 DUP3 DUP5 SUB SLT ISZERO PUSH2 0x69F JUMPI PUSH1 0x0 DUP1 REVERT JUMPDEST PUSH2 0x6A8 DUP3 PUSH2 0x671 JUMP JUMPDEST SWAP4 SWAP3 POP POP POP JUMP JUMPDEST PUSH1 0x0 DUP1 PUSH1 0x40 DUP4 DUP6 SUB SLT ISZERO PUSH2 0x6C2 JUMPI PUSH1 0x0 DUP1 REVERT JUMPDEST PUSH2 0x6CB DUP4 PUSH2 0x671 JUMP JUMPDEST SWAP2 POP PUSH2 0x6D9 PUSH1 0x20 DUP5 ADD PUSH2 0x671 JUMP JUMPDEST SWAP1 POP SWAP3 POP SWAP3 SWAP1 POP JUMP JUMPDEST PUSH1 0x0 DUP1 PUSH1 0x0 PUSH1 0x60 DUP5 DUP7 SUB SLT ISZERO PUSH2 0x6F7 JUMPI PUSH1 0x0 DUP1 REVERT JUMPDEST PUSH2 0x700 DUP5 PUSH2 0x671 JUMP JUMPDEST SWAP3 POP PUSH2 0x70E PUSH1 0x20 DUP6 ADD PUSH2 0x671 JUMP JUMPDEST SWAP2 POP PUSH1 0x40 DUP5 ADD CALLDATALOAD SWAP1 POP SWAP3 POP SWAP3 POP SWAP3 JUMP JUMPDEST PUSH1 0x0 DUP1 PUSH1 0x40 DUP4 DUP6 SUB SLT ISZERO PUSH2 0x731 JUMPI PUSH1 0x0 DUP1 REVERT JUMPDEST PUSH2 0x73A DUP4 PUSH2 0x671 JUMP JUMPDEST SWAP5 PUSH1 0x20 SWAP4 SWAP1 SWAP4 ADD CALLDATALOAD SWAP4 POP POP POP JUMP JUMPDEST PUSH1 0x0 PUSH1 0x20 DUP1 DUP4 MSTORE DUP4 MLOAD DUP1 DUP3 DUP6 ADD MSTORE PUSH1 0x0 JUMPDEST DUP2 DUP2 LT ISZERO PUSH2 0x775 JUMPI DUP6 DUP2 ADD DUP4 ADD MLOAD DUP6 DUP3 ADD PUSH1 0x40 ADD MSTORE DUP3 ADD PUSH2 0x759 JUMP JUMPDEST DUP2 DUP2 GT ISZERO PUSH2 0x787 JUMPI PUSH1 0x0 PUSH1 0x40 DUP4 DUP8 ADD ADD MSTORE JUMPDEST POP PUSH1 0x1F ADD PUSH1 0x1F NOT AND SWAP3 SWAP1 SWAP3 ADD PUSH1 0x40 ADD SWAP4 SWAP3 POP POP POP JUMP JUMPDEST PUSH1 0x0 DUP3 NOT DUP3 GT ISZERO PUSH2 0x7B0 JUMPI PUSH2 0x7B0 PUSH2 0x807 JUMP JUMPDEST POP ADD SWAP1 JUMP JUMPDEST PUSH1 0x0 DUP3 DUP3 LT ISZERO PUSH2 0x7C7 JUMPI PUSH2 0x7C7 PUSH2 0x807 JUMP JUMPDEST POP SUB SWAP1 JUMP JUMPDEST PUSH1 0x1 DUP2 DUP2 SHR SWAP1 DUP3 AND DUP1 PUSH2 0x7E0 JUMPI PUSH1 0x7F DUP3 AND SWAP2 POP JUMPDEST PUSH1 0x20 DUP3 LT DUP2 EQ ISZERO PUSH2 0x801 JUMPI PUSH4 0x4E487B71 PUSH1 0xE0 SHL PUSH1 0x0 MSTORE PUSH1 0x22 PUSH1 0x4 MSTORE PUSH1 0x24 PUSH1 0x0 REVERT JUMPDEST POP SWAP2 SWAP1 POP JUMP JUMPDEST PUSH4 0x4E487B71 PUSH1 0xE0 SHL PUSH1 0x0 MSTORE PUSH1 0x11 PUSH1 0x4 MSTORE PUSH1 0x24 PUSH1 0x0 REVERT INVALID LOG2 PUSH5 0x6970667358 0x22 SLT KECCAK256 DUP8 0xF6 DELEGATECALL LT 0x1E 0xB8 0x2E 0xF8 MSTORE 0xBF PC LOG0 0xA9 DUP7 PC 0xBB 0xF9 SHL SUB DUP11 0xCF SWAP5 PUSH27 0x8F14A0A3626363856D64736F6C6343000807003300000000000000 "},"methodIdentifiers":{"_decimals()":"32424aa3","_name()":"d28d8852","_symbol()":"b09f1266","_totalSupply()":"3eaaf86b","allowance(address,address)":"dd62ed3e","approve(address,uint256)":"095ea7b3","balanceOf(address)":"70a08231","decimals()":"313ce567","decreaseAllowance(address,uint256)":"a457c2d7","increaseAllowance(address,uint256)":"39509351","name()":"06fdde03","symbol()":"95d89b41","totalSupply()":"18160ddd","transfer(address,uint256)":"a9059cbb","transferFrom(address,address,uint256)":"23b872dd"}}}}}