{
  "_format": "hh-sol-artifact-1",
  "contractName": "SherXERC20",
  "sourceName": "contracts/facets/SherXERC20.sol",
  "abi": [
    {
      "anonymous": false,
      "inputs": [
        {
          "indexed": true,
          "internalType": "address",
          "name": "owner",
          "type": "address"
        },
        {
          "indexed": true,
          "internalType": "address",
          "name": "spender",
          "type": "address"
        },
        {
          "indexed": false,
          "internalType": "uint256",
          "name": "value",
          "type": "uint256"
        }
      ],
      "name": "Approval",
      "type": "event"
    },
    {
      "anonymous": false,
      "inputs": [
        {
          "indexed": true,
          "internalType": "address",
          "name": "from",
          "type": "address"
        },
        {
          "indexed": true,
          "internalType": "address",
          "name": "to",
          "type": "address"
        },
        {
          "indexed": false,
          "internalType": "uint256",
          "name": "value",
          "type": "uint256"
        }
      ],
      "name": "Transfer",
      "type": "event"
    },
    {
      "inputs": [
        {
          "internalType": "address",
          "name": "_owner",
          "type": "address"
        },
        {
          "internalType": "address",
          "name": "_spender",
          "type": "address"
        }
      ],
      "name": "allowance",
      "outputs": [
        {
          "internalType": "uint256",
          "name": "",
          "type": "uint256"
        }
      ],
      "stateMutability": "view",
      "type": "function"
    },
    {
      "inputs": [
        {
          "internalType": "address",
          "name": "_spender",
          "type": "address"
        },
        {
          "internalType": "uint256",
          "name": "_amount",
          "type": "uint256"
        }
      ],
      "name": "approve",
      "outputs": [
        {
          "internalType": "bool",
          "name": "",
          "type": "bool"
        }
      ],
      "stateMutability": "nonpayable",
      "type": "function"
    },
    {
      "inputs": [
        {
          "internalType": "address",
          "name": "_of",
          "type": "address"
        }
      ],
      "name": "balanceOf",
      "outputs": [
        {
          "internalType": "uint256",
          "name": "",
          "type": "uint256"
        }
      ],
      "stateMutability": "view",
      "type": "function"
    },
    {
      "inputs": [],
      "name": "decimals",
      "outputs": [
        {
          "internalType": "uint8",
          "name": "",
          "type": "uint8"
        }
      ],
      "stateMutability": "pure",
      "type": "function"
    },
    {
      "inputs": [
        {
          "internalType": "address",
          "name": "_spender",
          "type": "address"
        },
        {
          "internalType": "uint256",
          "name": "_amount",
          "type": "uint256"
        }
      ],
      "name": "decreaseApproval",
      "outputs": [
        {
          "internalType": "bool",
          "name": "",
          "type": "bool"
        }
      ],
      "stateMutability": "nonpayable",
      "type": "function"
    },
    {
      "inputs": [
        {
          "internalType": "address",
          "name": "_spender",
          "type": "address"
        },
        {
          "internalType": "uint256",
          "name": "_amount",
          "type": "uint256"
        }
      ],
      "name": "increaseApproval",
      "outputs": [
        {
          "internalType": "bool",
          "name": "",
          "type": "bool"
        }
      ],
      "stateMutability": "nonpayable",
      "type": "function"
    },
    {
      "inputs": [
        {
          "internalType": "string",
          "name": "_name",
          "type": "string"
        },
        {
          "internalType": "string",
          "name": "_symbol",
          "type": "string"
        }
      ],
      "name": "initializeSherXERC20",
      "outputs": [],
      "stateMutability": "nonpayable",
      "type": "function"
    },
    {
      "inputs": [],
      "name": "name",
      "outputs": [
        {
          "internalType": "string",
          "name": "",
          "type": "string"
        }
      ],
      "stateMutability": "view",
      "type": "function"
    },
    {
      "inputs": [],
      "name": "symbol",
      "outputs": [
        {
          "internalType": "string",
          "name": "",
          "type": "string"
        }
      ],
      "stateMutability": "view",
      "type": "function"
    },
    {
      "inputs": [],
      "name": "totalSupply",
      "outputs": [
        {
          "internalType": "uint256",
          "name": "",
          "type": "uint256"
        }
      ],
      "stateMutability": "view",
      "type": "function"
    },
    {
      "inputs": [
        {
          "internalType": "address",
          "name": "_to",
          "type": "address"
        },
        {
          "internalType": "uint256",
          "name": "_amount",
          "type": "uint256"
        }
      ],
      "name": "transfer",
      "outputs": [
        {
          "internalType": "bool",
          "name": "",
          "type": "bool"
        }
      ],
      "stateMutability": "nonpayable",
      "type": "function"
    },
    {
      "inputs": [
        {
          "internalType": "address",
          "name": "_from",
          "type": "address"
        },
        {
          "internalType": "address",
          "name": "_to",
          "type": "address"
        },
        {
          "internalType": "uint256",
          "name": "_amount",
          "type": "uint256"
        }
      ],
      "name": "transferFrom",
      "outputs": [
        {
          "internalType": "bool",
          "name": "",
          "type": "bool"
        }
      ],
      "stateMutability": "nonpayable",
      "type": "function"
    }
  ],
  "bytecode": "0x608060405234801561001057600080fd5b50610dc4806100206000396000f3fe608060405234801561001057600080fd5b50600436106100b45760003560e01c806370a082311161007157806370a082311461021057806395d89b4114610236578063a9059cbb1461023e578063b0b564e61461026a578063d73dd62314610399578063dd62ed3e146103c5576100b4565b806306fdde03146100b9578063095ea7b31461013657806318160ddd1461017657806323b872dd14610190578063313ce567146101c657806366188463146101e4575b600080fd5b6100c16103f3565b6040805160208082528351818301528351919283929083019185019080838360005b838110156100fb5781810151838201526020016100e3565b50505050905090810190601f1680156101285780820380516001836020036101000a031916815260200191505b509250505060405180910390f35b6101626004803603604081101561014c57600080fd5b506001600160a01b03813516906020013561048b565b604080519115158252519081900360200190f35b61017e610512565b60408051918252519081900360200190f35b610162600480360360608110156101a657600080fd5b506001600160a01b03813581169160208101359091169060400135610525565b6101ce61063b565b6040805160ff9092168252519081900360200190f35b610162600480360360408110156101fa57600080fd5b506001600160a01b038135169060200135610640565b61017e6004803603602081101561022657600080fd5b50356001600160a01b03166107b0565b6100c16107dc565b6101626004803603604081101561025457600080fd5b506001600160a01b038135169060200135610842565b6103976004803603604081101561028057600080fd5b81019060208101813564010000000081111561029b57600080fd5b8201836020820111156102ad57600080fd5b803590602001918460018302840111640100000000831117156102cf57600080fd5b91908080601f016020809104026020016040519081016040528093929190818152602001838380828437600092019190915250929594936020810193503591505064010000000081111561032257600080fd5b82018360208201111561033457600080fd5b8035906020019184600183028401116401000000008311171561035657600080fd5b91908080601f016020809104026020016040519081016040528093929190818152602001838380828437600092019190915250929550610858945050505050565b005b610162600480360360408110156103af57600080fd5b506001600160a01b038135169060200135610961565b61017e600480360360408110156103db57600080fd5b506001600160a01b0381358116916020013516610a76565b60606103fd610ab0565b805460408051602060026001851615610100026000190190941693909304601f810184900484028201840190925281815292918301828280156104815780601f1061045657610100808354040283529160200191610481565b820191906000526020600020905b81548152906001019060200180831161046457829003601f168201915b5050505050905090565b60006001600160a01b0383166104d2576040805162461bcd60e51b815260206004820152600760248201526629a822a72222a960c91b604482015290519081900360640190fd5b6040805183815290516001600160a01b038516913391600080516020610d6f8339815191529181900360200190a361050b338484610ad4565b9392505050565b600061051c610ab0565b60020154905090565b600080610530610ab0565b90506001600160a01b038516610576576040805162461bcd60e51b8152602060048083019190915260248201526346524f4d60e01b604482015290519081900360640190fd5b6001600160a01b0385166000908152600482016020908152604080832033845290915290205460001914610625576001600160a01b038516600090815260048201602090815260408083203384529091528120546105d49085610b14565b6001600160a01b038716600081815260048501602090815260408083203380855290835292819020859055805185815290519495509193600080516020610d6f8339815191529281900390910190a3505b610630858585610b71565b506001949350505050565b601290565b60006001600160a01b038316610687576040805162461bcd60e51b815260206004820152600760248201526629a822a72222a960c91b604482015290519081900360640190fd5b816106c2576040805162461bcd60e51b8152602060048201526006602482015265105353d5539560d21b604482015290519081900360640190fd5b60006106cc610ab0565b33600090815260048201602090815260408083206001600160a01b0389168452909152902054909150808411156107285733600090815260048301602090815260408083206001600160a01b0389168452909152812055610759565b6107328185610b14565b33600090815260048401602090815260408083206001600160a01b038a1684529091529020555b33600081815260048401602090815260408083206001600160a01b038a16808552908352928190205481519081529051929392600080516020610d6f833981519152929181900390910190a3506001949350505050565b60006107ba610ab0565b6001600160a01b03929092166000908152600390920160205250604090205490565b60606107e6610ab0565b60019081018054604080516020600295841615610100026000190190931694909404601f8101839004830285018301909152808452908301828280156104815780601f1061045657610100808354040283529160200191610481565b600061084f338484610b71565b50600192915050565b6000610862610ab0565b905061086c610c33565b6001600160a01b0316336001600160a01b0316146108bb576040805162461bcd60e51b81526020600482015260076024820152662727aa2fa222ab60c91b604482015290519081900360640190fd5b82516108f7576040805162461bcd60e51b815260206004808301919091526024820152634e414d4560e01b604482015290519081900360640190fd5b8151610933576040805162461bcd60e51b815260206004820152600660248201526514d6535093d360d21b604482015290519081900360640190fd5b82516109459082906020860190610ccd565b50815161095b9060018301906020850190610ccd565b50505050565b60006001600160a01b0383166109a8576040805162461bcd60e51b815260206004820152600760248201526629a822a72222a960c91b604482015290519081900360640190fd5b816109e3576040805162461bcd60e51b8152602060048201526006602482015265105353d5539560d21b604482015290519081900360640190fd5b60006109ed610ab0565b33600090815260048201602090815260408083206001600160a01b0389168452909152902054909150610a209084610c4f565b33600081815260048401602090815260408083206001600160a01b038a16808552908352928190208590558051948552519193600080516020610d6f833981519152929081900390910190a35060019392505050565b6000610a80610ab0565b6001600160a01b039384166000908152600491909101602090815260408083209490951682529290925250205490565b7fc0ca2b8775046ee5e33165d3145277182912c7895a3747ac51a97d562a7ce5d090565b600081610adf610ab0565b6001600160a01b0380871660009081526004929092016020908152604080842092881684529190529020555060019392505050565b600082821115610b6b576040805162461bcd60e51b815260206004820152601e60248201527f536166654d6174683a207375627472616374696f6e206f766572666c6f770000604482015290519081900360640190fd5b50900390565b6000610b7b610ab0565b6001600160a01b0385166000908152600382016020526040902054909150610ba39083610b14565b6001600160a01b0380861660009081526003840160205260408082209390935590851681522054610bd49083610c4f565b6001600160a01b03808516600081815260038501602090815260409182902094909455805186815290519193928816927fddf252ad1be2c89b69c2b068fc378daa952ba7f163c4a11628f55a4df523b3ef92918290030190a350505050565b6000610c3d610ca9565b600401546001600160a01b0316919050565b60008282018381101561050b576040805162461bcd60e51b815260206004820152601b60248201527f536166654d6174683a206164646974696f6e206f766572666c6f770000000000604482015290519081900360640190fd5b7fc8fcad8db84d3cc18b4c41d551ea0ee66dd599cde068d998e57d5e09332c131c90565b828054600181600116156101000203166002900490600052602060002090601f016020900481019282610d035760008555610d49565b82601f10610d1c57805160ff1916838001178555610d49565b82800160010185558215610d49579182015b82811115610d49578251825591602001919060010190610d2e565b50610d55929150610d59565b5090565b5b80821115610d555760008155600101610d5a56fe8c5be1e5ebec7d5bd14f71427d1e84f3dd0314c0f7b2291e5b200ac8c7c3b925a2646970667358221220becddba7a170a176d32f4ef790ce91995cbee439afb51f593e13eaa5c8e47b6264736f6c63430007060033",
  "linkReferences": {},
  "deployedLinkReferences": {}
}