{
  "_format": "hh-sol-artifact-1",
  "contractName": "TopUpActionProfiler",
  "sourceName": "contracts/testing/profiling/TopUpActionProfiler.sol",
  "abi": [
    {
      "inputs": [
        {
          "internalType": "address",
          "name": "_topUpAction",
          "type": "address"
        },
        {
          "internalType": "address",
          "name": "lpToken",
          "type": "address"
        }
      ],
      "stateMutability": "nonpayable",
      "type": "constructor"
    },
    {
      "inputs": [
        {
          "internalType": "address",
          "name": "payer",
          "type": "address"
        },
        {
          "internalType": "bytes32",
          "name": "account",
          "type": "bytes32"
        },
        {
          "internalType": "address",
          "name": "beneficiary",
          "type": "address"
        },
        {
          "internalType": "bytes32",
          "name": "protocol",
          "type": "bytes32"
        }
      ],
      "name": "profileExecute",
      "outputs": [],
      "stateMutability": "nonpayable",
      "type": "function"
    },
    {
      "inputs": [
        {
          "internalType": "bytes32",
          "name": "account",
          "type": "bytes32"
        },
        {
          "internalType": "bytes32",
          "name": "protocol",
          "type": "bytes32"
        },
        {
          "internalType": "uint64",
          "name": "threshold",
          "type": "uint64"
        },
        {
          "internalType": "address",
          "name": "depositToken",
          "type": "address"
        },
        {
          "internalType": "uint128",
          "name": "depositAmount",
          "type": "uint128"
        },
        {
          "internalType": "address",
          "name": "actionToken",
          "type": "address"
        },
        {
          "internalType": "uint128",
          "name": "singleTopUpAmount",
          "type": "uint128"
        },
        {
          "internalType": "uint128",
          "name": "totalTopUpAmount",
          "type": "uint128"
        },
        {
          "internalType": "bytes",
          "name": "extra",
          "type": "bytes"
        }
      ],
      "name": "profileRegister",
      "outputs": [],
      "stateMutability": "nonpayable",
      "type": "function"
    },
    {
      "inputs": [
        {
          "internalType": "bytes32",
          "name": "account",
          "type": "bytes32"
        },
        {
          "internalType": "bytes32",
          "name": "protocol",
          "type": "bytes32"
        },
        {
          "internalType": "uint64",
          "name": "threshold",
          "type": "uint64"
        },
        {
          "internalType": "address",
          "name": "depositToken",
          "type": "address"
        },
        {
          "internalType": "uint128",
          "name": "depositAmount",
          "type": "uint128"
        },
        {
          "internalType": "address",
          "name": "actionToken",
          "type": "address"
        },
        {
          "internalType": "uint128",
          "name": "singleTopUpAmount",
          "type": "uint128"
        },
        {
          "internalType": "uint128",
          "name": "totalTopUpAmount",
          "type": "uint128"
        },
        {
          "internalType": "bytes",
          "name": "extra",
          "type": "bytes"
        }
      ],
      "name": "simpleRegister",
      "outputs": [],
      "stateMutability": "nonpayable",
      "type": "function"
    },
    {
      "inputs": [],
      "name": "topUpAction",
      "outputs": [
        {
          "internalType": "contract TopUpAction",
          "name": "",
          "type": "address"
        }
      ],
      "stateMutability": "view",
      "type": "function"
    }
  ],
  "bytecode": "0x608060405234801561001057600080fd5b5060405161093038038061093083398101604081905261002f916100ee565b600080546001600160a01b0319166001600160a01b0384811691821790925560405163095ea7b360e01b8152600481019190915260001960248201529082169063095ea7b390604401602060405180830381600087803b15801561009257600080fd5b505af11580156100a6573d6000803e3d6000fd5b505050506040513d601f19601f820116820180604052508101906100ca9190610121565b50505061014a565b80516001600160a01b03811681146100e957600080fd5b919050565b6000806040838503121561010157600080fd5b61010a836100d2565b9150610118602084016100d2565b90509250929050565b60006020828403121561013357600080fd5b8151801515811461014357600080fd5b9392505050565b6107d7806101596000396000f3fe608060405234801561001057600080fd5b506004361061004c5760003560e01c80636c1dcd2014610051578063712e186214610080578063aa06c10c14610095578063c83795f5146100a8575b600080fd5b600054610064906001600160a01b031681565b6040516001600160a01b03909116815260200160405180910390f35b61009361008e3660046104b1565b6100bb565b005b6100936100a33660046104b1565b6101b2565b6100936100b63660046105e4565b6103c4565b60008054604080516101208101825267ffffffffffffffff8b168152633b9aca0060208201526406fc23ac00818301526001600160a01b0388811660608301528a811660808301526001600160801b0380891660a0840152871660c083015260e082019490945261010081018590529051633d1abbfd60e21b8152929091169163f46aeff491610154918d918d918b9190600401610675565b602060405180830381600087803b15801561016e57600080fd5b505af1158015610182573d6000803e3d6000fd5b505050506040513d601f19601f820116820180604052508101906101a69190610778565b50505050505050505050565b60008054604080516101208101825267ffffffffffffffff8b168152633b9aca0060208201526406fc23ac00818301526001600160a01b0388811660608301528a811660808301526001600160801b0380891660a0840152871660c083015260e082019490945261010081018590529051633d1abbfd60e21b8152929091169163f46aeff49161024b918d918d918b9190600401610675565b602060405180830381600087803b15801561026557600080fd5b505af1158015610279573d6000803e3d6000fd5b505050506040513d601f19601f8201168201806040525081019061029d9190610778565b50600054604051630b40226760e01b8152600481018b9052602481018a9052600160448201526001600160a01b0390911690630b40226790606401602060405180830381600087803b1580156102f257600080fd5b505af1158015610306573d6000803e3d6000fd5b505050506040513d601f19601f8201168201806040525081019061032a9190610778565b5060008054604080516101208101825267ffffffffffffffff8b168152633b9aca0060208201526406fc23ac00818301526001600160a01b0388811660608301528a811660808301526001600160801b0380891660a0840152871660c083015260e082019490945261010081018590529051633d1abbfd60e21b8152929091169163f46aeff491610154918d918d918b9190600401610675565b600080546040516319914e0360e11b81526001600160a01b0387811660048301526024820187905285811660448301526064820185905260848201939093529116906333229c069060a401602060405180830381600087803b15801561042957600080fd5b505af115801561043d573d6000803e3d6000fd5b505050506040513d601f19601f820116820180604052508101906104619190610778565b5050505050565b80356001600160a01b038116811461047f57600080fd5b919050565b80356001600160801b038116811461047f57600080fd5b634e487b7160e01b600052604160045260246000fd5b60008060008060008060008060006101208a8c0312156104d057600080fd5b8935985060208a0135975060408a013567ffffffffffffffff80821682146104f757600080fd5b81985061050660608d01610468565b975061051460808d01610484565b965061052260a08d01610468565b955061053060c08d01610484565b945061053e60e08d01610484565b93506101008c013591508082111561055557600080fd5b818c0191508c601f83011261056957600080fd5b81358181111561057b5761057b61049b565b604051601f8201601f19908116603f011681019083821181831017156105a3576105a361049b565b816040528281528f60208487010111156105bc57600080fd5b8260208601602083013760006020848301015280955050505050509295985092959850929598565b600080600080608085870312156105fa57600080fd5b61060385610468565b93506020850135925061061860408601610468565b9396929550929360600135925050565b6000815180845260005b8181101561064e57602081850181015186830182015201610632565b81811115610660576000602083870101525b50601f01601f19169290920160200192915050565b8481528360208201526001600160801b0383166040820152608060608201526106ab60808201835167ffffffffffffffff169052565b600060208301516106c860a084018267ffffffffffffffff169052565b50604083015167ffffffffffffffff811660c08401525060608301516001600160a01b03811660e0840152506080830151610100610710818501836001600160a01b03169052565b60a0850151915061012061072e818601846001600160801b03169052565b60c08601516001600160801b0390811661014087015260e08701511661016086015290850151610180850191909152905061076d6101a0840182610628565b979650505050505050565b60006020828403121561078a57600080fd5b8151801515811461079a57600080fd5b939250505056fea26469706673582212200718286b4ae45bfa0a98e706dfab5578a41f0f66e37815e6807c9efb227070d164736f6c63430008090033",
  "linkReferences": {},
  "deployedLinkReferences": {}
}