{
  "_format": "hh-sol-artifact-1",
  "contractName": "SandclockFactory",
  "sourceName": "contracts/SandclockFactory.sol",
  "abi": [
    {
      "inputs": [],
      "stateMutability": "nonpayable",
      "type": "constructor"
    },
    {
      "anonymous": false,
      "inputs": [
        {
          "indexed": true,
          "internalType": "address",
          "name": "dca",
          "type": "address"
        },
        {
          "indexed": false,
          "internalType": "uint256",
          "name": "salt",
          "type": "uint256"
        }
      ],
      "name": "NewDCA",
      "type": "event"
    },
    {
      "anonymous": false,
      "inputs": [
        {
          "indexed": true,
          "internalType": "address",
          "name": "vault",
          "type": "address"
        },
        {
          "indexed": false,
          "internalType": "uint256",
          "name": "salt",
          "type": "uint256"
        }
      ],
      "name": "NewVault",
      "type": "event"
    },
    {
      "anonymous": false,
      "inputs": [
        {
          "indexed": true,
          "internalType": "address",
          "name": "user",
          "type": "address"
        },
        {
          "indexed": false,
          "internalType": "bool",
          "name": "trusted",
          "type": "bool"
        }
      ],
      "name": "UserTrustUpdated",
      "type": "event"
    },
    {
      "inputs": [
        {
          "internalType": "bytes",
          "name": "code",
          "type": "bytes"
        },
        {
          "internalType": "uint256",
          "name": "salt",
          "type": "uint256"
        }
      ],
      "name": "deployDCA",
      "outputs": [],
      "stateMutability": "nonpayable",
      "type": "function"
    },
    {
      "inputs": [
        {
          "internalType": "bytes",
          "name": "code",
          "type": "bytes"
        },
        {
          "internalType": "uint256",
          "name": "salt",
          "type": "uint256"
        }
      ],
      "name": "deployVault",
      "outputs": [],
      "stateMutability": "nonpayable",
      "type": "function"
    },
    {
      "inputs": [
        {
          "internalType": "address",
          "name": "",
          "type": "address"
        }
      ],
      "name": "isTrusted",
      "outputs": [
        {
          "internalType": "bool",
          "name": "",
          "type": "bool"
        }
      ],
      "stateMutability": "view",
      "type": "function"
    },
    {
      "inputs": [
        {
          "internalType": "address",
          "name": "user",
          "type": "address"
        },
        {
          "internalType": "bool",
          "name": "trusted",
          "type": "bool"
        }
      ],
      "name": "setIsTrusted",
      "outputs": [],
      "stateMutability": "nonpayable",
      "type": "function"
    }
  ],
  "bytecode": "0x608060405234801561001057600080fd5b50336001600160a01b03811660008181526020818152604091829020805460ff1916600190811790915591519182527fe95aec380cae16330d146d5499ef7db6f3657e477104a733e771bc09e500d986910160405180910390a2506104878061007a6000396000f3fe608060405234801561001057600080fd5b506004361061004c5760003560e01c80631393916a1461005157806396d6487914610066578063d3253abd1461009d578063edb2b5b6146100b0575b600080fd5b61006461005f366004610316565b6100c3565b005b610089610074366004610352565b60006020819052908152604090205460ff1681565b604051901515815260200160405180910390f35b6100646100ab36600461039c565b61017d565b6100646100be36600461039c565b61022b565b3360009081526020819052604090205460ff166101135760405162461bcd60e51b8152602060048201526009602482015268155395149554d5115160ba1b60448201526064015b60405180910390fd5b73ffffffffffffffffffffffffffffffffffffffff821660008181526020818152604091829020805460ff191685151590811790915591519182527fe95aec380cae16330d146d5499ef7db6f3657e477104a733e771bc09e500d986910160405180910390a25050565b3360009081526020819052604090205460ff166101c85760405162461bcd60e51b8152602060048201526009602482015268155395149554d5115160ba1b604482015260640161010a565b60006101d483836102cc565b90508073ffffffffffffffffffffffffffffffffffffffff167fe06f14ad01bb6287ebed8da241251453301322b4a0cedea1b72cb9218189983a8360405161021e91815260200190565b60405180910390a2505050565b3360009081526020819052604090205460ff166102765760405162461bcd60e51b8152602060048201526009602482015268155395149554d5115160ba1b604482015260640161010a565b600061028283836102cc565b90508073ffffffffffffffffffffffffffffffffffffffff167fd121adb44c5268742cd3af919e1df1437aa697b3306c1e6e133e9c97cc65bfc88360405161021e91815260200190565b600080828451602086016000f59050803b6102e657600080fd5b9392505050565b803573ffffffffffffffffffffffffffffffffffffffff8116811461031157600080fd5b919050565b6000806040838503121561032957600080fd5b610332836102ed565b91506020830135801515811461034757600080fd5b809150509250929050565b60006020828403121561036457600080fd5b6102e6826102ed565b7f4e487b7100000000000000000000000000000000000000000000000000000000600052604160045260246000fd5b600080604083850312156103af57600080fd5b823567ffffffffffffffff808211156103c757600080fd5b818501915085601f8301126103db57600080fd5b8135818111156103ed576103ed61036d565b604051601f8201601f19908116603f011681019083821181831017156104155761041561036d565b8160405282815288602084870101111561042e57600080fd5b82602086016020830137600060209382018401529896909101359650505050505056fea264697066735822122076bfc0435c824c2609d978adfcb67c812392144aff0cd3a72309e52bea9687dd64736f6c634300080a0033",
  "linkReferences": {},
  "deployedLinkReferences": {}
}