{
  "_format": "hh-sol-artifact-1",
  "contractName": "AuraPenaltyForwarder",
  "sourceName": "contracts/AuraPenaltyForwarder.sol",
  "abi": [
    {
      "inputs": [
        {
          "internalType": "address",
          "name": "_distributor",
          "type": "address"
        },
        {
          "internalType": "address",
          "name": "_token",
          "type": "address"
        },
        {
          "internalType": "uint256",
          "name": "_delay",
          "type": "uint256"
        }
      ],
      "stateMutability": "nonpayable",
      "type": "constructor"
    },
    {
      "anonymous": false,
      "inputs": [
        {
          "indexed": false,
          "internalType": "uint256",
          "name": "amount",
          "type": "uint256"
        }
      ],
      "name": "Forwarded",
      "type": "event"
    },
    {
      "inputs": [],
      "name": "distributionDelay",
      "outputs": [
        {
          "internalType": "uint256",
          "name": "",
          "type": "uint256"
        }
      ],
      "stateMutability": "view",
      "type": "function"
    },
    {
      "inputs": [],
      "name": "distributor",
      "outputs": [
        {
          "internalType": "contract IExtraRewardsDistributor",
          "name": "",
          "type": "address"
        }
      ],
      "stateMutability": "view",
      "type": "function"
    },
    {
      "inputs": [],
      "name": "forward",
      "outputs": [],
      "stateMutability": "nonpayable",
      "type": "function"
    },
    {
      "inputs": [],
      "name": "lastDistribution",
      "outputs": [
        {
          "internalType": "uint256",
          "name": "",
          "type": "uint256"
        }
      ],
      "stateMutability": "view",
      "type": "function"
    },
    {
      "inputs": [],
      "name": "token",
      "outputs": [
        {
          "internalType": "contract IERC20",
          "name": "",
          "type": "address"
        }
      ],
      "stateMutability": "view",
      "type": "function"
    }
  ],
  "bytecode": "0x60e06040523480156200001157600080fd5b5060405162000db938038062000db9833981016040819052620000349162000452565b6001600160a01b03838116608081905290831660a081905260c0839052426000556200006f9160001962000078602090811b6200035e17901c565b50505062000557565b801580620000f65750604051636eb1769f60e11b81523060048201526001600160a01b03838116602483015284169063dd62ed3e90604401602060405180830381865afa158015620000ce573d6000803e3d6000fd5b505050506040513d601f19601f82011682018060405250810190620000f4919062000493565b155b6200016e5760405162461bcd60e51b815260206004820152603660248201527f5361666545524332303a20617070726f76652066726f6d206e6f6e2d7a65726f60448201527f20746f206e6f6e2d7a65726f20616c6c6f77616e63650000000000000000000060648201526084015b60405180910390fd5b604080516001600160a01b038416602482015260448082018490528251808303909101815260649091019091526020810180516001600160e01b0390811663095ea7b360e01b17909152620001c6918591620001cb16565b505050565b600062000227826040518060400160405280602081526020017f5361666545524332303a206c6f772d6c6576656c2063616c6c206661696c6564815250856001600160a01b0316620002a960201b620004b6179092919060201c565b805190915015620001c65780806020019051810190620002489190620004ad565b620001c65760405162461bcd60e51b815260206004820152602a60248201527f5361666545524332303a204552433230206f7065726174696f6e20646964206e6044820152691bdd081cdd58d8d9595960b21b606482015260840162000165565b6060620002ba8484600085620002c4565b90505b9392505050565b606082471015620003275760405162461bcd60e51b815260206004820152602660248201527f416464726573733a20696e73756666696369656e742062616c616e636520666f6044820152651c8818d85b1b60d21b606482015260840162000165565b843b620003775760405162461bcd60e51b815260206004820152601d60248201527f416464726573733a2063616c6c20746f206e6f6e2d636f6e7472616374000000604482015260640162000165565b600080866001600160a01b0316858760405162000395919062000504565b60006040518083038185875af1925050503d8060008114620003d4576040519150601f19603f3d011682016040523d82523d6000602084013e620003d9565b606091505b509092509050620003ec828286620003f7565b979650505050505050565b6060831562000408575081620002bd565b825115620004195782518084602001fd5b8160405162461bcd60e51b815260040162000165919062000522565b80516001600160a01b03811681146200044d57600080fd5b919050565b6000806000606084860312156200046857600080fd5b620004738462000435565b9250620004836020850162000435565b9150604084015190509250925092565b600060208284031215620004a657600080fd5b5051919050565b600060208284031215620004c057600080fd5b81518015158114620002bd57600080fd5b60005b83811015620004ee578181015183820152602001620004d4565b83811115620004fe576000848401525b50505050565b6000825162000518818460208701620004d1565b9190910192915050565b602081526000825180602084015262000543816040850160208701620004d1565b601f01601f19169190910160400192915050565b60805160a05160c051610819620005a06000396000818160d6015261012101526000818160fd015281816101bb0152610297015260008181608d01526102c601526108196000f3fe608060405234801561001057600080fd5b50600436106100675760003560e01c8063d264e05e11610050578063d264e05e146100c7578063dcc5bec9146100d1578063fc0c546a146100f857600080fd5b8063a717639c1461006c578063bfe1092814610088575b600080fd5b61007560005481565b6040519081526020015b60405180910390f35b6100af7f000000000000000000000000000000000000000000000000000000000000000081565b6040516001600160a01b03909116815260200161007f565b6100cf61011f565b005b6100757f000000000000000000000000000000000000000000000000000000000000000081565b6100af7f000000000000000000000000000000000000000000000000000000000000000081565b7f000000000000000000000000000000000000000000000000000000000000000060005461014d919061072c565b42116101a05760405162461bcd60e51b815260206004820152600860248201527f21656c617073656400000000000000000000000000000000000000000000000060448201526064015b60405180910390fd5b4260009081556040516370a0823160e01b81523060048201527f00000000000000000000000000000000000000000000000000000000000000006001600160a01b0316906370a0823190602401602060405180830381865afa15801561020a573d6000803e3d6000fd5b505050506040513d601f19601f8201168201806040525081019061022e9190610752565b9050600081116102805760405162461bcd60e51b815260206004820152600660248201527f21656d70747900000000000000000000000000000000000000000000000000006044820152606401610197565b6040516309feb8f560e41b81526001600160a01b037f000000000000000000000000000000000000000000000000000000000000000081166004830152602482018390527f00000000000000000000000000000000000000000000000000000000000000001690639feb8f5090604401600060405180830381600087803b15801561030a57600080fd5b505af115801561031e573d6000803e3d6000fd5b505050507f6d6c62c4853ee2ccc569c1d81b83de5d128716d2ebfb6f0c1dedade7323c67eb8160405161035391815260200190565b60405180910390a150565b8015806103d85750604051636eb1769f60e11b81523060048201526001600160a01b03838116602483015284169063dd62ed3e90604401602060405180830381865afa1580156103b2573d6000803e3d6000fd5b505050506040513d601f19601f820116820180604052508101906103d69190610752565b155b61044a5760405162461bcd60e51b815260206004820152603660248201527f5361666545524332303a20617070726f76652066726f6d206e6f6e2d7a65726f60448201527f20746f206e6f6e2d7a65726f20616c6c6f77616e6365000000000000000000006064820152608401610197565b604080516001600160a01b038416602482015260448082018490528251808303909101815260649091019091526020810180517bffffffffffffffffffffffffffffffffffffffffffffffffffffffff1663095ea7b360e01b1790526104b19084906104cf565b505050565b60606104c584846000856105b4565b90505b9392505050565b6000610524826040518060400160405280602081526020017f5361666545524332303a206c6f772d6c6576656c2063616c6c206661696c6564815250856001600160a01b03166104b69092919063ffffffff16565b8051909150156104b15780806020019051810190610542919061076b565b6104b15760405162461bcd60e51b815260206004820152602a60248201527f5361666545524332303a204552433230206f7065726174696f6e20646964206e60448201527f6f742073756363656564000000000000000000000000000000000000000000006064820152608401610197565b60608247101561062c5760405162461bcd60e51b815260206004820152602660248201527f416464726573733a20696e73756666696369656e742062616c616e636520666f60448201527f722063616c6c00000000000000000000000000000000000000000000000000006064820152608401610197565b843b61067a5760405162461bcd60e51b815260206004820152601d60248201527f416464726573733a2063616c6c20746f206e6f6e2d636f6e74726163740000006044820152606401610197565b600080866001600160a01b0316858760405161069691906107bd565b60006040518083038185875af1925050503d80600081146106d3576040519150601f19603f3d011682016040523d82523d6000602084013e6106d8565b606091505b50915091506106e88282866106f3565b979650505050505050565b606083156107025750816104c8565b8251156107125782518084602001fd5b8160405162461bcd60e51b815260040161019791906107d9565b6000821982111561074d57634e487b7160e01b600052601160045260246000fd5b500190565b60006020828403121561076457600080fd5b5051919050565b60006020828403121561077d57600080fd5b815180151581146104c857600080fd5b60005b838110156107a8578181015183820152602001610790565b838111156107b7576000848401525b50505050565b600082516107cf81846020870161078d565b9190910192915050565b60208152600082518060208401526107f881604085016020870161078d565b601f01601f1916919091016040019291505056fea164736f6c634300080b000a",
  "linkReferences": {},
  "deployedLinkReferences": {}
}