{
  "_format": "hh-sol-artifact-1",
  "contractName": "PriceOracle",
  "sourceName": "contracts/PriceOracle.sol",
  "abi": [
    {
      "anonymous": false,
      "inputs": [
        {
          "indexed": true,
          "internalType": "address",
          "name": "token",
          "type": "address"
        },
        {
          "indexed": true,
          "internalType": "address",
          "name": "priceOracle",
          "type": "address"
        }
      ],
      "name": "ChainlinkFeedUpdated",
      "type": "event"
    },
    {
      "anonymous": false,
      "inputs": [
        {
          "indexed": true,
          "internalType": "address",
          "name": "previousOwner",
          "type": "address"
        },
        {
          "indexed": true,
          "internalType": "address",
          "name": "newOwner",
          "type": "address"
        }
      ],
      "name": "OwnershipTransferred",
      "type": "event"
    },
    {
      "anonymous": false,
      "inputs": [
        {
          "indexed": true,
          "internalType": "address",
          "name": "token1",
          "type": "address"
        },
        {
          "indexed": true,
          "internalType": "address",
          "name": "token2",
          "type": "address"
        },
        {
          "indexed": false,
          "internalType": "bytes32",
          "name": "feedId",
          "type": "bytes32"
        },
        {
          "indexed": true,
          "internalType": "address",
          "name": "pool",
          "type": "address"
        }
      ],
      "name": "UniswapFeedUpdated",
      "type": "event"
    },
    {
      "anonymous": false,
      "inputs": [
        {
          "indexed": false,
          "internalType": "uint32",
          "name": "uniswapPriceAveragingPeriod",
          "type": "uint32"
        }
      ],
      "name": "UniswapPriceAveragingPeriodUpdated",
      "type": "event"
    },
    {
      "inputs": [
        {
          "internalType": "address",
          "name": "",
          "type": "address"
        }
      ],
      "name": "chainlinkFeedAddresses",
      "outputs": [
        {
          "internalType": "address",
          "name": "oracle",
          "type": "address"
        },
        {
          "internalType": "uint256",
          "name": "decimals",
          "type": "uint256"
        }
      ],
      "stateMutability": "view",
      "type": "function"
    },
    {
      "inputs": [
        {
          "internalType": "address",
          "name": "token1",
          "type": "address"
        },
        {
          "internalType": "address",
          "name": "token2",
          "type": "address"
        }
      ],
      "name": "doesFeedExist",
      "outputs": [
        {
          "internalType": "bool",
          "name": "",
          "type": "bool"
        }
      ],
      "stateMutability": "view",
      "type": "function"
    },
    {
      "inputs": [
        {
          "internalType": "address",
          "name": "num",
          "type": "address"
        },
        {
          "internalType": "address",
          "name": "den",
          "type": "address"
        }
      ],
      "name": "getChainlinkLatestPrice",
      "outputs": [
        {
          "internalType": "uint256",
          "name": "",
          "type": "uint256"
        },
        {
          "internalType": "uint256",
          "name": "",
          "type": "uint256"
        }
      ],
      "stateMutability": "view",
      "type": "function"
    },
    {
      "inputs": [
        {
          "internalType": "address",
          "name": "num",
          "type": "address"
        },
        {
          "internalType": "address",
          "name": "den",
          "type": "address"
        }
      ],
      "name": "getLatestPrice",
      "outputs": [
        {
          "internalType": "uint256",
          "name": "",
          "type": "uint256"
        },
        {
          "internalType": "uint256",
          "name": "",
          "type": "uint256"
        }
      ],
      "stateMutability": "view",
      "type": "function"
    },
    {
      "inputs": [
        {
          "internalType": "address",
          "name": "num",
          "type": "address"
        },
        {
          "internalType": "address",
          "name": "den",
          "type": "address"
        }
      ],
      "name": "getUniswapLatestPrice",
      "outputs": [
        {
          "internalType": "uint256",
          "name": "",
          "type": "uint256"
        },
        {
          "internalType": "uint256",
          "name": "",
          "type": "uint256"
        }
      ],
      "stateMutability": "view",
      "type": "function"
    },
    {
      "inputs": [
        {
          "internalType": "address",
          "name": "_admin",
          "type": "address"
        }
      ],
      "name": "initialize",
      "outputs": [],
      "stateMutability": "nonpayable",
      "type": "function"
    },
    {
      "inputs": [],
      "name": "owner",
      "outputs": [
        {
          "internalType": "address",
          "name": "",
          "type": "address"
        }
      ],
      "stateMutability": "view",
      "type": "function"
    },
    {
      "inputs": [],
      "name": "renounceOwnership",
      "outputs": [],
      "stateMutability": "nonpayable",
      "type": "function"
    },
    {
      "inputs": [
        {
          "internalType": "address",
          "name": "token",
          "type": "address"
        },
        {
          "internalType": "address",
          "name": "priceOracle",
          "type": "address"
        }
      ],
      "name": "setChainlinkFeedAddress",
      "outputs": [],
      "stateMutability": "nonpayable",
      "type": "function"
    },
    {
      "inputs": [
        {
          "internalType": "address",
          "name": "token1",
          "type": "address"
        },
        {
          "internalType": "address",
          "name": "token2",
          "type": "address"
        },
        {
          "internalType": "address",
          "name": "pool",
          "type": "address"
        }
      ],
      "name": "setUniswapFeedAddress",
      "outputs": [],
      "stateMutability": "nonpayable",
      "type": "function"
    },
    {
      "inputs": [
        {
          "internalType": "uint32",
          "name": "_uniswapPriceAveragingPeriod",
          "type": "uint32"
        }
      ],
      "name": "setUniswapPriceAveragingPeriod",
      "outputs": [],
      "stateMutability": "nonpayable",
      "type": "function"
    },
    {
      "inputs": [
        {
          "internalType": "address",
          "name": "newOwner",
          "type": "address"
        }
      ],
      "name": "transferOwnership",
      "outputs": [],
      "stateMutability": "nonpayable",
      "type": "function"
    },
    {
      "inputs": [
        {
          "internalType": "bytes32",
          "name": "",
          "type": "bytes32"
        }
      ],
      "name": "uniswapPools",
      "outputs": [
        {
          "internalType": "address",
          "name": "",
          "type": "address"
        }
      ],
      "stateMutability": "view",
      "type": "function"
    }
  ],
  "bytecode": "0x608060405234801561001057600080fd5b50611bfb806100206000396000f3fe608060405234801561001057600080fd5b50600436106100cf5760003560e01c806387a37f431161008c578063c4d66de811610066578063c4d66de81461027a578063f2fde38b146102a0578063f37eace8146102c6578063fa6fc430146102f4576100cf565b806387a37f43146101fb5780638da5cb5b146102445780638f8bb8221461024c576100cf565b80630393e8d5146100d45780630626a92b1461010d57806310603c1114610147578063252a62c11461018e578063633defbd146101b1578063715018a6146101f3575b600080fd5b6100f1600480360360208110156100ea57600080fd5b5035610322565b604080516001600160a01b039092168252519081900360200190f35b6101456004803603606081101561012357600080fd5b506001600160a01b03813581169160208101358216916040909101351661033d565b005b6101756004803603604081101561015d57600080fd5b506001600160a01b038135811691602001351661046c565b6040805192835260208301919091528051918290030190f35b610145600480360360208110156101a457600080fd5b503563ffffffff166104ee565b6101df600480360360408110156101c757600080fd5b506001600160a01b038135811691602001351661059e565b604080519115158252519081900360200190f35b610145610631565b6102216004803603602081101561021157600080fd5b50356001600160a01b03166106dd565b604080516001600160a01b03909316835260208301919091528051918290030190f35b6100f1610702565b6101756004803603604081101561026257600080fd5b506001600160a01b0381358116916020013516610712565b6101456004803603602081101561029057600080fd5b50356001600160a01b0316610792565b610145600480360360208110156102b657600080fd5b50356001600160a01b0316610846565b610175600480360360408110156102dc57600080fd5b506001600160a01b0381358116916020013516610949565b6101456004803603604081101561030a57600080fd5b506001600160a01b0381358116916020013516610c11565b6068602052600090815260409020546001600160a01b031681565b610345610d8a565b6001600160a01b0316610356610702565b6001600160a01b03161461039f576040805162461bcd60e51b81526020600482018190526024820152600080516020611b77833981519152604482015290519081900360640190fd5b816001600160a01b0316836001600160a01b031614156103f05760405162461bcd60e51b815260040180806020018281038252602f815260200180611b97602f913960400191505060405180910390fd5b60006103fc8484610d8e565b60008181526068602090815260409182902080546001600160a01b0319166001600160a01b03878116918217909255835185815293519495509387821693918916927f2a74ffdf59cac90e9d1f660dffbf82ada64e214ee5aaa96586d4cb00e7bcc947928290030190a450505050565b60008060008061047c8686610949565b909250905080156104915790925090506104e7565b61049b8686610712565b909250905080156104b05790925090506104e7565b60405162461bcd60e51b8152600401808060200182810382526036815260200180611af26036913960400191505060405180910390fd5b9250929050565b6104f6610d8a565b6001600160a01b0316610507610702565b6001600160a01b031614610550576040805162461bcd60e51b81526020600482018190526024820152600080516020611b77833981519152604482015290519081900360640190fd5b6065805463ffffffff831663ffffffff19909116811790915560408051918252517fce1655e980fdd46c169857872ec226a0882674591ab7a135c66e1126dc8e47d89181900360200190a150565b6001600160a01b03828116600090815260666020526040812054909116158015906105e257506001600160a01b038281166000908152606660205260409020541615155b156105ef5750600161062b565b60006105fb8484610d8e565b6000818152606860205260409020549091506001600160a01b03161561062557600191505061062b565b60009150505b92915050565b610639610d8a565b6001600160a01b031661064a610702565b6001600160a01b031614610693576040805162461bcd60e51b81526020600482018190526024820152600080516020611b77833981519152604482015290519081900360640190fd5b6033546040516000916001600160a01b0316907f8be0079c531659141344cd1fd0a4f28419497f9722a3daafe3b4186f6b6457e0908390a3603380546001600160a01b0319169055565b606660205260009081526040902080546001909101546001600160a01b039091169082565b6033546001600160a01b03165b90565b60008060006107218585610d8e565b6000818152606860205260409020549091506001600160a01b03168061074f576000809350935050506104e7565b60655460009061076690839063ffffffff16610e46565b90506000610783826c0c9f2c9cd04674edea400000008a8a611146565b98601e98509650505050505050565b600054610100900460ff16806107ab57506107ab61123d565b806107b9575060005460ff16155b6107f45760405162461bcd60e51b815260040180806020018281038252602e815260200180611b28602e913960400191505060405180910390fd5b600054610100900460ff1615801561081f576000805460ff1961ff0019909116610100171660011790555b61082761124e565b61083082610846565b8015610842576000805461ff00191690555b5050565b61084e610d8a565b6001600160a01b031661085f610702565b6001600160a01b0316146108a8576040805162461bcd60e51b81526020600482018190526024820152600080516020611b77833981519152604482015290519081900360640190fd5b6001600160a01b0381166108ed5760405162461bcd60e51b8152600401808060200182810382526026815260200180611acc6026913960400191505060405180910390fd5b6033546040516001600160a01b038084169216907f8be0079c531659141344cd1fd0a4f28419497f9722a3daafe3b4186f6b6457e090600090a3603380546001600160a01b0319166001600160a01b0392909216919091179055565b6001600160a01b0380831660009081526066602081815260408084208151808301835281548716815260019182015481850152878716865293835281852082518084019093528054871683520154918101919091528151929384931615806109b9575080516001600160a01b0316155b156109cc576000809350935050506104e7565b600080600080600086600001516001600160a01b031663feaf968c6040518163ffffffff1660e01b815260040160a06040518083038186803b158015610a1157600080fd5b505afa158015610a25573d6000803e3d6000fd5b505050506040513d60a0811015610a3b57600080fd5b508051602082015160608301516080909301519097509094509092509050811580610a7d57508269ffffffffffffffffffff168169ffffffffffffffffffff16105b15610a955760008098509850505050505050506104e7565b505050600080600085600001516001600160a01b031663feaf968c6040518163ffffffff1660e01b815260040160a06040518083038186803b158015610ada57600080fd5b505afa158015610aee573d6000803e3d6000fd5b505050506040513d60a0811015610b0457600080fd5b508051602082015160608301516080909301519096509094509092509050811580610b4657508269ffffffffffffffffffff168169ffffffffffffffffffff16105b15610b5e5760008098509850505050505050506104e7565b5050506000610c01606760008b6001600160a01b03166001600160a01b0316815260200190815260200160002054600a0a610bfb606760008c6001600160a01b03166001600160a01b0316815260200190815260200160002054600a0a610bf58960200151600a0a610bfb88610bfb6c0c9f2c9cd04674edea40000000610bf58e60200151600a0a8e61130090919063ffffffff16565b90611300565b90611360565b99601e9950975050505050505050565b610c19610d8a565b6001600160a01b0316610c2a610702565b6001600160a01b031614610c73576040805162461bcd60e51b81526020600482018190526024820152600080516020611b77833981519152604482015290519081900360640190fd5b6000816001600160a01b031663313ce5676040518163ffffffff1660e01b815260040160206040518083038186803b158015610cae57600080fd5b505afa158015610cc2573d6000803e3d6000fd5b505050506040513d6020811015610cd857600080fd5b50516040805180820182526001600160a01b03858116825260ff909316602080830182815288861660009081526066909252939020915182546001600160a01b031916941693909317815590516001909101559050610d36836113c7565b6001600160a01b0380851660008181526067602052604080822060ff9590951690945592519185169290917f3be680563c528780d5a9cd763a27b4a48ab5f9dc10e4083a2fa55b6fc5ff33e69190a3505050565b3390565b6000816001600160a01b0316836001600160a01b03161015610df857828260405160200180836001600160a01b031660601b8152601401826001600160a01b031660601b81526014019250505060405160208183030381529060405280519060200120905061062b565b818360405160200180836001600160a01b031660601b8152601401826001600160a01b031660601b81526014019250505060405160208183030381529060405280519060200120905061062b565b600063ffffffff8216610e85576040805162461bcd60e51b8152602060048201526002602482015261042560f41b604482015290519081900360640190fd5b6040805160028082526060820183526000926020830190803683370190505090508281600081518110610eb457fe5b602002602001019063ffffffff16908163ffffffff1681525050600081600181518110610edd57fe5b63ffffffff90921660209283029190910182015260405163883bdbfd60e01b8152600481018281528351602483015283516000936001600160a01b0389169363883bdbfd938793909283926044019185820191028083838b5b83811015610f4e578181015183820152602001610f36565b505050509050019250505060006040518083038186803b158015610f7157600080fd5b505afa158015610f85573d6000803e3d6000fd5b505050506040513d6000823e601f3d908101601f191682016040908152811015610fae57600080fd5b8101908080516040519392919084640100000000821115610fce57600080fd5b908301906020820185811115610fe357600080fd5b825186602082028301116401000000008211171561100057600080fd5b82525081516020918201928201910280838360005b8381101561102d578181015183820152602001611015565b505050509050016040526020018051604051939291908464010000000082111561105657600080fd5b90830190602082018581111561106b57600080fd5b825186602082028301116401000000008211171561108857600080fd5b82525081516020918201928201910280838360005b838110156110b557818101518382015260200161109d565b505050509050016040525050505090506000816000815181106110d457fe5b6020026020010151826001815181106110e957fe5b60200260200101510390508463ffffffff168160060b8161110657fe5b05935060008160060b12801561113057508463ffffffff168160060b8161112957fe5b0760060b15155b1561113d57600019909301925b50505092915050565b600080611152866114a0565b90506001600160801b036001600160a01b038216116111c1576001600160a01b03808216800290848116908616106111a15761119c600160c01b876001600160801b0316836117d2565b6111b9565b6111b981876001600160801b0316600160c01b6117d2565b925050611234565b60006111e06001600160a01b03831680680100000000000000006117d2565b9050836001600160a01b0316856001600160a01b03161061121857611213600160801b876001600160801b0316836117d2565b611230565b61123081876001600160801b0316600160801b6117d2565b9250505b50949350505050565b600061124830611881565b15905090565b600054610100900460ff1680611267575061126761123d565b80611275575060005460ff16155b6112b05760405162461bcd60e51b815260040180806020018281038252602e815260200180611b28602e913960400191505060405180910390fd5b600054610100900460ff161580156112db576000805460ff1961ff0019909116610100171660011790555b6112e3611887565b6112eb611927565b80156112fd576000805461ff00191690555b50565b60008261130f5750600061062b565b8282028284828161131c57fe5b04146113595760405162461bcd60e51b8152600401808060200182810382526021815260200180611b566021913960400191505060405180910390fd5b9392505050565b60008082116113b6576040805162461bcd60e51b815260206004820152601a60248201527f536166654d6174683a206469766973696f6e206279207a65726f000000000000604482015290519081900360640190fd5b8183816113bf57fe5b049392505050565b60006001600160a01b0382166113df5750601261149b565b816001600160a01b031663313ce5676040518163ffffffff1660e01b815260040160206040518083038186803b15801561141857600080fd5b505afa92505050801561143d57506040513d602081101561143857600080fd5b505160015b61149857611449611a26565b80611454575061145e565b600091505061149b565b3d808015611488576040519150601f19603f3d011682016040523d82523d6000602084013e61148d565b606091505b50600091505061149b565b90505b919050565b60008060008360020b126114b7578260020b6114bf565b8260020b6000035b9050620d89e88111156114fd576040805162461bcd60e51b81526020600482015260016024820152601560fa1b604482015290519081900360640190fd5b60006001821661151157600160801b611523565b6ffffcb933bd6fad37aa2d162d1a5940015b70ffffffffffffffffffffffffffffffffff1690506002821615611557576ffff97272373d413259a46990580e213a0260801c5b6004821615611576576ffff2e50f5f656932ef12357cf3c7fdcc0260801c5b6008821615611595576fffe5caca7e10e4e61c3624eaa0941cd00260801c5b60108216156115b4576fffcb9843d60f6159c9db58835c9266440260801c5b60208216156115d3576fff973b41fa98c081472e6896dfb254c00260801c5b60408216156115f2576fff2ea16466c96a3843ec78b326b528610260801c5b6080821615611611576ffe5dee046a99a2a811c461f1969c30530260801c5b610100821615611631576ffcbe86c7900a88aedcffc83b479aa3a40260801c5b610200821615611651576ff987a7253ac413176f2b074cf7815e540260801c5b610400821615611671576ff3392b0822b70005940c7a398e4b70f30260801c5b610800821615611691576fe7159475a2c29b7443b29c7fa6e889d90260801c5b6110008216156116b1576fd097f3bdfd2022b8845ad8f792aa58250260801c5b6120008216156116d1576fa9f746462d870fdf8a65dc1f90e061e50260801c5b6140008216156116f1576f70d869a156d2a1b890bb3df62baf32f70260801c5b618000821615611711576f31be135f97d08fd981231505542fcfa60260801c5b62010000821615611732576f09aa508b5b7a84e1c677de54f3e99bc90260801c5b62020000821615611752576e5d6af8dedb81196699c329225ee6040260801c5b62040000821615611771576d2216e584f5fa1ea926041bedfe980260801c5b6208000082161561178e576b048a170391f7dc42444e8fa20260801c5b60008460020b13156117a95780600019816117a557fe5b0490505b6401000000008106156117bd5760016117c0565b60005b60ff16602082901c0192505050919050565b600080806000198587098686029250828110908390030390508061180857600084116117fd57600080fd5b508290049050611359565b80841161181457600080fd5b6000848688096000868103871696879004966002600389028118808a02820302808a02820302808a02820302808a02820302808a02820302808a02909103029181900381900460010186841190950394909402919094039290920491909117919091029150509392505050565b3b151590565b600054610100900460ff16806118a057506118a061123d565b806118ae575060005460ff16155b6118e95760405162461bcd60e51b815260040180806020018281038252602e815260200180611b28602e913960400191505060405180910390fd5b600054610100900460ff161580156112eb576000805460ff1961ff00199091166101001716600117905580156112fd576000805461ff001916905550565b600054610100900460ff1680611940575061194061123d565b8061194e575060005460ff16155b6119895760405162461bcd60e51b815260040180806020018281038252602e815260200180611b28602e913960400191505060405180910390fd5b600054610100900460ff161580156119b4576000805460ff1961ff0019909116610100171660011790555b60006119be610d8a565b603380546001600160a01b0319166001600160a01b038316908117909155604051919250906000907f8be0079c531659141344cd1fd0a4f28419497f9722a3daafe3b4186f6b6457e0908290a35080156112fd576000805461ff001916905550565b60e01c90565b600060443d1015611a365761070f565b600481823e6308c379a0611a4a8251611a20565b14611a545761070f565b6040513d600319016004823e80513d67ffffffffffffffff8160248401118184111715611a84575050505061070f565b82840192508251915080821115611a9e575050505061070f565b503d83016020828401011115611ab65750505061070f565b601f01601f191681016020016040529150509056fe4f776e61626c653a206e6577206f776e657220697320746865207a65726f206164647265737350726963654f7261636c653a3a6765744c61746573745072696365202d205072696365204665656420646f65736e2774206578697374496e697469616c697a61626c653a20636f6e747261637420697320616c726561647920696e697469616c697a6564536166654d6174683a206d756c7469706c69636174696f6e206f766572666c6f774f776e61626c653a2063616c6c6572206973206e6f7420746865206f776e6572746f6b656e3120616e6420746f6b656e322073686f756c6420626520646966666572656e7420616464726573736573a2646970667358221220221aeb832c9a977693f8bc679f7ba993fc669862f51bd5f38ecc725eed53d11c64736f6c63430007060033",
  "linkReferences": {},
  "deployedLinkReferences": {}
}