{
  "_format": "hh-sol-artifact-1",
  "contractName": "RocketJoeToken",
  "sourceName": "contracts/RocketJoeToken.sol",
  "abi": [
    {
      "anonymous": false,
      "inputs": [
        {
          "indexed": true,
          "internalType": "address",
          "name": "owner",
          "type": "address"
        },
        {
          "indexed": true,
          "internalType": "address",
          "name": "spender",
          "type": "address"
        },
        {
          "indexed": false,
          "internalType": "uint256",
          "name": "value",
          "type": "uint256"
        }
      ],
      "name": "Approval",
      "type": "event"
    },
    {
      "anonymous": false,
      "inputs": [
        {
          "indexed": true,
          "internalType": "address",
          "name": "previousOwner",
          "type": "address"
        },
        {
          "indexed": true,
          "internalType": "address",
          "name": "newOwner",
          "type": "address"
        }
      ],
      "name": "OwnershipTransferred",
      "type": "event"
    },
    {
      "anonymous": false,
      "inputs": [
        {
          "indexed": true,
          "internalType": "address",
          "name": "from",
          "type": "address"
        },
        {
          "indexed": true,
          "internalType": "address",
          "name": "to",
          "type": "address"
        },
        {
          "indexed": false,
          "internalType": "uint256",
          "name": "value",
          "type": "uint256"
        }
      ],
      "name": "Transfer",
      "type": "event"
    },
    {
      "inputs": [
        {
          "internalType": "address",
          "name": "owner",
          "type": "address"
        },
        {
          "internalType": "address",
          "name": "spender",
          "type": "address"
        }
      ],
      "name": "allowance",
      "outputs": [
        {
          "internalType": "uint256",
          "name": "",
          "type": "uint256"
        }
      ],
      "stateMutability": "view",
      "type": "function"
    },
    {
      "inputs": [
        {
          "internalType": "address",
          "name": "spender",
          "type": "address"
        },
        {
          "internalType": "uint256",
          "name": "amount",
          "type": "uint256"
        }
      ],
      "name": "approve",
      "outputs": [
        {
          "internalType": "bool",
          "name": "",
          "type": "bool"
        }
      ],
      "stateMutability": "nonpayable",
      "type": "function"
    },
    {
      "inputs": [
        {
          "internalType": "address",
          "name": "account",
          "type": "address"
        }
      ],
      "name": "balanceOf",
      "outputs": [
        {
          "internalType": "uint256",
          "name": "",
          "type": "uint256"
        }
      ],
      "stateMutability": "view",
      "type": "function"
    },
    {
      "inputs": [
        {
          "internalType": "address",
          "name": "_from",
          "type": "address"
        },
        {
          "internalType": "uint256",
          "name": "_amount",
          "type": "uint256"
        }
      ],
      "name": "burnFrom",
      "outputs": [],
      "stateMutability": "nonpayable",
      "type": "function"
    },
    {
      "inputs": [],
      "name": "decimals",
      "outputs": [
        {
          "internalType": "uint8",
          "name": "",
          "type": "uint8"
        }
      ],
      "stateMutability": "view",
      "type": "function"
    },
    {
      "inputs": [
        {
          "internalType": "address",
          "name": "spender",
          "type": "address"
        },
        {
          "internalType": "uint256",
          "name": "subtractedValue",
          "type": "uint256"
        }
      ],
      "name": "decreaseAllowance",
      "outputs": [
        {
          "internalType": "bool",
          "name": "",
          "type": "bool"
        }
      ],
      "stateMutability": "nonpayable",
      "type": "function"
    },
    {
      "inputs": [
        {
          "internalType": "address",
          "name": "spender",
          "type": "address"
        },
        {
          "internalType": "uint256",
          "name": "addedValue",
          "type": "uint256"
        }
      ],
      "name": "increaseAllowance",
      "outputs": [
        {
          "internalType": "bool",
          "name": "",
          "type": "bool"
        }
      ],
      "stateMutability": "nonpayable",
      "type": "function"
    },
    {
      "inputs": [],
      "name": "initialize",
      "outputs": [],
      "stateMutability": "nonpayable",
      "type": "function"
    },
    {
      "inputs": [
        {
          "internalType": "address",
          "name": "_to",
          "type": "address"
        },
        {
          "internalType": "uint256",
          "name": "_amount",
          "type": "uint256"
        }
      ],
      "name": "mint",
      "outputs": [],
      "stateMutability": "nonpayable",
      "type": "function"
    },
    {
      "inputs": [],
      "name": "name",
      "outputs": [
        {
          "internalType": "string",
          "name": "",
          "type": "string"
        }
      ],
      "stateMutability": "view",
      "type": "function"
    },
    {
      "inputs": [],
      "name": "owner",
      "outputs": [
        {
          "internalType": "address",
          "name": "",
          "type": "address"
        }
      ],
      "stateMutability": "view",
      "type": "function"
    },
    {
      "inputs": [],
      "name": "renounceOwnership",
      "outputs": [],
      "stateMutability": "nonpayable",
      "type": "function"
    },
    {
      "inputs": [],
      "name": "rocketJoeFactory",
      "outputs": [
        {
          "internalType": "contract IRocketJoeFactory",
          "name": "",
          "type": "address"
        }
      ],
      "stateMutability": "view",
      "type": "function"
    },
    {
      "inputs": [],
      "name": "symbol",
      "outputs": [
        {
          "internalType": "string",
          "name": "",
          "type": "string"
        }
      ],
      "stateMutability": "view",
      "type": "function"
    },
    {
      "inputs": [],
      "name": "totalSupply",
      "outputs": [
        {
          "internalType": "uint256",
          "name": "",
          "type": "uint256"
        }
      ],
      "stateMutability": "view",
      "type": "function"
    },
    {
      "inputs": [
        {
          "internalType": "address",
          "name": "recipient",
          "type": "address"
        },
        {
          "internalType": "uint256",
          "name": "amount",
          "type": "uint256"
        }
      ],
      "name": "transfer",
      "outputs": [
        {
          "internalType": "bool",
          "name": "",
          "type": "bool"
        }
      ],
      "stateMutability": "nonpayable",
      "type": "function"
    },
    {
      "inputs": [
        {
          "internalType": "address",
          "name": "sender",
          "type": "address"
        },
        {
          "internalType": "address",
          "name": "recipient",
          "type": "address"
        },
        {
          "internalType": "uint256",
          "name": "amount",
          "type": "uint256"
        }
      ],
      "name": "transferFrom",
      "outputs": [
        {
          "internalType": "bool",
          "name": "",
          "type": "bool"
        }
      ],
      "stateMutability": "nonpayable",
      "type": "function"
    },
    {
      "inputs": [
        {
          "internalType": "address",
          "name": "newOwner",
          "type": "address"
        }
      ],
      "name": "transferOwnership",
      "outputs": [],
      "stateMutability": "nonpayable",
      "type": "function"
    }
  ],
  "bytecode": "0x60806040523480156200001157600080fd5b506040518060400160405280600e81526020017f526f636b65744a6f65546f6b656e0000000000000000000000000000000000008152506040518060400160405280600481526020017f724a4f4500000000000000000000000000000000000000000000000000000000815250816003908051906020019062000096929190620001a6565b508060049080519060200190620000af929190620001a6565b505050620000d2620000c6620000d860201b60201c565b620000e060201b60201c565b620002bb565b600033905090565b6000600560009054906101000a900473ffffffffffffffffffffffffffffffffffffffff16905081600560006101000a81548173ffffffffffffffffffffffffffffffffffffffff021916908373ffffffffffffffffffffffffffffffffffffffff1602179055508173ffffffffffffffffffffffffffffffffffffffff168173ffffffffffffffffffffffffffffffffffffffff167f8be0079c531659141344cd1fd0a4f28419497f9722a3daafe3b4186f6b6457e060405160405180910390a35050565b828054620001b49062000256565b90600052602060002090601f016020900481019282620001d8576000855562000224565b82601f10620001f357805160ff191683800117855562000224565b8280016001018555821562000224579182015b828111156200022357825182559160200191906001019062000206565b5b50905062000233919062000237565b5090565b5b808211156200025257600081600090555060010162000238565b5090565b600060028204905060018216806200026f57607f821691505b602082108114156200028657620002856200028c565b5b50919050565b7f4e487b7100000000000000000000000000000000000000000000000000000000600052602260045260246000fd5b6122e480620002cb6000396000f3fe608060405234801561001057600080fd5b50600436106101165760003560e01c806379cc6790116100a2578063a457c2d711610071578063a457c2d7146102bd578063a9059cbb146102ed578063dd62ed3e1461031d578063f2fde38b1461034d578063f3fbd7d61461036957610116565b806379cc67901461025b5780638129fc1c146102775780638da5cb5b1461028157806395d89b411461029f57610116565b8063313ce567116100e9578063313ce567146101b757806339509351146101d557806340c10f191461020557806370a0823114610221578063715018a61461025157610116565b806306fdde031461011b578063095ea7b31461013957806318160ddd1461016957806323b872dd14610187575b600080fd5b610123610387565b6040516101309190611a0a565b60405180910390f35b610153600480360381019061014e91906116bb565b610419565b60405161016091906119d4565b60405180910390f35b610171610437565b60405161017e9190611c0c565b60405180910390f35b6101a1600480360381019061019c9190611668565b610441565b6040516101ae91906119d4565b60405180910390f35b6101bf610539565b6040516101cc9190611c27565b60405180910390f35b6101ef60048036038101906101ea91906116bb565b610542565b6040516101fc91906119d4565b60405180910390f35b61021f600480360381019061021a91906116bb565b6105ee565b005b61023b600480360381019061023691906115fb565b610678565b6040516102489190611c0c565b60405180910390f35b6102596106c0565b005b610275600480360381019061027091906116bb565b610748565b005b61027f610840565b005b610289610914565b60405161029691906119b9565b60405180910390f35b6102a761093e565b6040516102b49190611a0a565b60405180910390f35b6102d760048036038101906102d291906116bb565b6109d0565b6040516102e491906119d4565b60405180910390f35b610307600480360381019061030291906116bb565b610abb565b60405161031491906119d4565b60405180910390f35b61033760048036038101906103329190611628565b610ad9565b6040516103449190611c0c565b60405180910390f35b610367600480360381019061036291906115fb565b610b60565b005b610371610c58565b60405161037e91906119ef565b60405180910390f35b60606003805461039690611d94565b80601f01602080910402602001604051908101604052809291908181526020018280546103c290611d94565b801561040f5780601f106103e45761010080835404028352916020019161040f565b820191906000526020600020905b8154815290600101906020018083116103f257829003601f168201915b5050505050905090565b600061042d610426610c7e565b8484610c86565b6001905092915050565b6000600254905090565b600061044e848484610e51565b6000600160008673ffffffffffffffffffffffffffffffffffffffff1673ffffffffffffffffffffffffffffffffffffffff1681526020019081526020016000206000610499610c7e565b73ffffffffffffffffffffffffffffffffffffffff1673ffffffffffffffffffffffffffffffffffffffff16815260200190815260200160002054905082811015610519576040517f08c379a000000000000000000000000000000000000000000000000000000000815260040161051090611b0c565b60405180910390fd5b61052d85610525610c7e565b858403610c86565b60019150509392505050565b60006012905090565b60006105e461054f610c7e565b84846001600061055d610c7e565b73ffffffffffffffffffffffffffffffffffffffff1673ffffffffffffffffffffffffffffffffffffffff16815260200190815260200160002060008873ffffffffffffffffffffffffffffffffffffffff1673ffffffffffffffffffffffffffffffffffffffff168152602001908152602001600020546105df9190611c5e565b610c86565b6001905092915050565b6105f6610c7e565b73ffffffffffffffffffffffffffffffffffffffff16610614610914565b73ffffffffffffffffffffffffffffffffffffffff161461066a576040517f08c379a000000000000000000000000000000000000000000000000000000000815260040161066190611b2c565b60405180910390fd5b61067482826110d2565b5050565b60008060008373ffffffffffffffffffffffffffffffffffffffff1673ffffffffffffffffffffffffffffffffffffffff168152602001908152602001600020549050919050565b6106c8610c7e565b73ffffffffffffffffffffffffffffffffffffffff166106e6610914565b73ffffffffffffffffffffffffffffffffffffffff161461073c576040517f08c379a000000000000000000000000000000000000000000000000000000000815260040161073390611b2c565b60405180910390fd5b6107466000611232565b565b600660009054906101000a900473ffffffffffffffffffffffffffffffffffffffff1673ffffffffffffffffffffffffffffffffffffffff166333b232a9336040518263ffffffff1660e01b81526004016107a391906119b9565b60206040518083038186803b1580156107bb57600080fd5b505afa1580156107cf573d6000803e3d6000fd5b505050506040513d601f19601f820116820180604052508101906107f391906116fb565b610832576040517f08c379a000000000000000000000000000000000000000000000000000000000815260040161082990611aec565b60405180910390fd5b61083c82826112f8565b5050565b600073ffffffffffffffffffffffffffffffffffffffff16600660009054906101000a900473ffffffffffffffffffffffffffffffffffffffff1673ffffffffffffffffffffffffffffffffffffffff16146108d1576040517f08c379a00000000000000000000000000000000000000000000000000000000081526004016108c890611acc565b60405180910390fd5b33600660006101000a81548173ffffffffffffffffffffffffffffffffffffffff021916908373ffffffffffffffffffffffffffffffffffffffff160217905550565b6000600560009054906101000a900473ffffffffffffffffffffffffffffffffffffffff16905090565b60606004805461094d90611d94565b80601f016020809104026020016040519081016040528092919081815260200182805461097990611d94565b80156109c65780601f1061099b576101008083540402835291602001916109c6565b820191906000526020600020905b8154815290600101906020018083116109a957829003601f168201915b5050505050905090565b600080600160006109df610c7e565b73ffffffffffffffffffffffffffffffffffffffff1673ffffffffffffffffffffffffffffffffffffffff16815260200190815260200160002060008573ffffffffffffffffffffffffffffffffffffffff1673ffffffffffffffffffffffffffffffffffffffff16815260200190815260200160002054905082811015610a9c576040517f08c379a0000000000000000000000000000000000000000000000000000000008152600401610a9390611bcc565b60405180910390fd5b610ab0610aa7610c7e565b85858403610c86565b600191505092915050565b6000610acf610ac8610c7e565b8484610e51565b6001905092915050565b6000600160008473ffffffffffffffffffffffffffffffffffffffff1673ffffffffffffffffffffffffffffffffffffffff16815260200190815260200160002060008373ffffffffffffffffffffffffffffffffffffffff1673ffffffffffffffffffffffffffffffffffffffff16815260200190815260200160002054905092915050565b610b68610c7e565b73ffffffffffffffffffffffffffffffffffffffff16610b86610914565b73ffffffffffffffffffffffffffffffffffffffff1614610bdc576040517f08c379a0000000000000000000000000000000000000000000000000000000008152600401610bd390611b2c565b60405180910390fd5b600073ffffffffffffffffffffffffffffffffffffffff168173ffffffffffffffffffffffffffffffffffffffff161415610c4c576040517f08c379a0000000000000000000000000000000000000000000000000000000008152600401610c4390611a6c565b60405180910390fd5b610c5581611232565b50565b600660009054906101000a900473ffffffffffffffffffffffffffffffffffffffff1681565b600033905090565b600073ffffffffffffffffffffffffffffffffffffffff168373ffffffffffffffffffffffffffffffffffffffff161415610cf6576040517f08c379a0000000000000000000000000000000000000000000000000000000008152600401610ced90611bac565b60405180910390fd5b600073ffffffffffffffffffffffffffffffffffffffff168273ffffffffffffffffffffffffffffffffffffffff161415610d66576040517f08c379a0000000000000000000000000000000000000000000000000000000008152600401610d5d90611a8c565b60405180910390fd5b80600160008573ffffffffffffffffffffffffffffffffffffffff1673ffffffffffffffffffffffffffffffffffffffff16815260200190815260200160002060008473ffffffffffffffffffffffffffffffffffffffff1673ffffffffffffffffffffffffffffffffffffffff168152602001908152602001600020819055508173ffffffffffffffffffffffffffffffffffffffff168373ffffffffffffffffffffffffffffffffffffffff167f8c5be1e5ebec7d5bd14f71427d1e84f3dd0314c0f7b2291e5b200ac8c7c3b92583604051610e449190611c0c565b60405180910390a3505050565b600073ffffffffffffffffffffffffffffffffffffffff168373ffffffffffffffffffffffffffffffffffffffff161415610ec1576040517f08c379a0000000000000000000000000000000000000000000000000000000008152600401610eb890611b8c565b60405180910390fd5b600073ffffffffffffffffffffffffffffffffffffffff168273ffffffffffffffffffffffffffffffffffffffff161415610f31576040517f08c379a0000000000000000000000000000000000000000000000000000000008152600401610f2890611a2c565b60405180910390fd5b610f3c8383836114cf565b60008060008573ffffffffffffffffffffffffffffffffffffffff1673ffffffffffffffffffffffffffffffffffffffff16815260200190815260200160002054905081811015610fc2576040517f08c379a0000000000000000000000000000000000000000000000000000000008152600401610fb990611aac565b60405180910390fd5b8181036000808673ffffffffffffffffffffffffffffffffffffffff1673ffffffffffffffffffffffffffffffffffffffff16815260200190815260200160002081905550816000808573ffffffffffffffffffffffffffffffffffffffff1673ffffffffffffffffffffffffffffffffffffffff16815260200190815260200160002060008282546110559190611c5e565b925050819055508273ffffffffffffffffffffffffffffffffffffffff168473ffffffffffffffffffffffffffffffffffffffff167fddf252ad1be2c89b69c2b068fc378daa952ba7f163c4a11628f55a4df523b3ef846040516110b99190611c0c565b60405180910390a36110cc8484846115b7565b50505050565b600073ffffffffffffffffffffffffffffffffffffffff168273ffffffffffffffffffffffffffffffffffffffff161415611142576040517f08c379a000000000000000000000000000000000000000000000000000000000815260040161113990611bec565b60405180910390fd5b61114e600083836114cf565b80600260008282546111609190611c5e565b92505081905550806000808473ffffffffffffffffffffffffffffffffffffffff1673ffffffffffffffffffffffffffffffffffffffff16815260200190815260200160002060008282546111b59190611c5e565b925050819055508173ffffffffffffffffffffffffffffffffffffffff16600073ffffffffffffffffffffffffffffffffffffffff167fddf252ad1be2c89b69c2b068fc378daa952ba7f163c4a11628f55a4df523b3ef8360405161121a9190611c0c565b60405180910390a361122e600083836115b7565b5050565b6000600560009054906101000a900473ffffffffffffffffffffffffffffffffffffffff16905081600560006101000a81548173ffffffffffffffffffffffffffffffffffffffff021916908373ffffffffffffffffffffffffffffffffffffffff1602179055508173ffffffffffffffffffffffffffffffffffffffff168173ffffffffffffffffffffffffffffffffffffffff167f8be0079c531659141344cd1fd0a4f28419497f9722a3daafe3b4186f6b6457e060405160405180910390a35050565b600073ffffffffffffffffffffffffffffffffffffffff168273ffffffffffffffffffffffffffffffffffffffff161415611368576040517f08c379a000000000000000000000000000000000000000000000000000000000815260040161135f90611b4c565b60405180910390fd5b611374826000836114cf565b60008060008473ffffffffffffffffffffffffffffffffffffffff1673ffffffffffffffffffffffffffffffffffffffff168152602001908152602001600020549050818110156113fa576040517f08c379a00000000000000000000000000000000000000000000000000000000081526004016113f190611a4c565b60405180910390fd5b8181036000808573ffffffffffffffffffffffffffffffffffffffff1673ffffffffffffffffffffffffffffffffffffffff1681526020019081526020016000208190555081600260008282546114519190611cb4565b92505081905550600073ffffffffffffffffffffffffffffffffffffffff168373ffffffffffffffffffffffffffffffffffffffff167fddf252ad1be2c89b69c2b068fc378daa952ba7f163c4a11628f55a4df523b3ef846040516114b69190611c0c565b60405180910390a36114ca836000846115b7565b505050565b600073ffffffffffffffffffffffffffffffffffffffff168373ffffffffffffffffffffffffffffffffffffffff1614806115365750600073ffffffffffffffffffffffffffffffffffffffff168273ffffffffffffffffffffffffffffffffffffffff16145b806115735750611544610914565b73ffffffffffffffffffffffffffffffffffffffff168373ffffffffffffffffffffffffffffffffffffffff16145b6115b2576040517f08c379a00000000000000000000000000000000000000000000000000000000081526004016115a990611b6c565b60405180910390fd5b505050565b505050565b6000813590506115cb81612269565b92915050565b6000815190506115e081612280565b92915050565b6000813590506115f581612297565b92915050565b60006020828403121561161157611610611e24565b5b600061161f848285016115bc565b91505092915050565b6000806040838503121561163f5761163e611e24565b5b600061164d858286016115bc565b925050602061165e858286016115bc565b9150509250929050565b60008060006060848603121561168157611680611e24565b5b600061168f868287016115bc565b93505060206116a0868287016115bc565b92505060406116b1868287016115e6565b9150509250925092565b600080604083850312156116d2576116d1611e24565b5b60006116e0858286016115bc565b92505060206116f1858286016115e6565b9150509250929050565b60006020828403121561171157611710611e24565b5b600061171f848285016115d1565b91505092915050565b61173181611ce8565b82525050565b61174081611cfa565b82525050565b61174f81611d3d565b82525050565b600061176082611c42565b61176a8185611c4d565b935061177a818560208601611d61565b61178381611e29565b840191505092915050565b600061179b602383611c4d565b91506117a682611e3a565b604082019050919050565b60006117be602283611c4d565b91506117c982611e89565b604082019050919050565b60006117e1602683611c4d565b91506117ec82611ed8565b604082019050919050565b6000611804602283611c4d565b915061180f82611f27565b604082019050919050565b6000611827602683611c4d565b915061183282611f76565b604082019050919050565b600061184a602383611c4d565b915061185582611fc5565b604082019050919050565b600061186d602d83611c4d565b915061187882612014565b604082019050919050565b6000611890602883611c4d565b915061189b82612063565b604082019050919050565b60006118b3602083611c4d565b91506118be826120b2565b602082019050919050565b60006118d6602183611c4d565b91506118e1826120db565b604082019050919050565b60006118f9602083611c4d565b91506119048261212a565b602082019050919050565b600061191c602583611c4d565b915061192782612153565b604082019050919050565b600061193f602483611c4d565b915061194a826121a2565b604082019050919050565b6000611962602583611c4d565b915061196d826121f1565b604082019050919050565b6000611985601f83611c4d565b915061199082612240565b602082019050919050565b6119a481611d26565b82525050565b6119b381611d30565b82525050565b60006020820190506119ce6000830184611728565b92915050565b60006020820190506119e96000830184611737565b92915050565b6000602082019050611a046000830184611746565b92915050565b60006020820190508181036000830152611a248184611755565b905092915050565b60006020820190508181036000830152611a458161178e565b9050919050565b60006020820190508181036000830152611a65816117b1565b9050919050565b60006020820190508181036000830152611a85816117d4565b9050919050565b60006020820190508181036000830152611aa5816117f7565b9050919050565b60006020820190508181036000830152611ac58161181a565b9050919050565b60006020820190508181036000830152611ae58161183d565b9050919050565b60006020820190508181036000830152611b0581611860565b9050919050565b60006020820190508181036000830152611b2581611883565b9050919050565b60006020820190508181036000830152611b45816118a6565b9050919050565b60006020820190508181036000830152611b65816118c9565b9050919050565b60006020820190508181036000830152611b85816118ec565b9050919050565b60006020820190508181036000830152611ba58161190f565b9050919050565b60006020820190508181036000830152611bc581611932565b9050919050565b60006020820190508181036000830152611be581611955565b9050919050565b60006020820190508181036000830152611c0581611978565b9050919050565b6000602082019050611c21600083018461199b565b92915050565b6000602082019050611c3c60008301846119aa565b92915050565b600081519050919050565b600082825260208201905092915050565b6000611c6982611d26565b9150611c7483611d26565b9250827fffffffffffffffffffffffffffffffffffffffffffffffffffffffffffffffff03821115611ca957611ca8611dc6565b5b828201905092915050565b6000611cbf82611d26565b9150611cca83611d26565b925082821015611cdd57611cdc611dc6565b5b828203905092915050565b6000611cf382611d06565b9050919050565b60008115159050919050565b600073ffffffffffffffffffffffffffffffffffffffff82169050919050565b6000819050919050565b600060ff82169050919050565b6000611d4882611d4f565b9050919050565b6000611d5a82611d06565b9050919050565b60005b83811015611d7f578082015181840152602081019050611d64565b83811115611d8e576000848401525b50505050565b60006002820490506001821680611dac57607f821691505b60208210811415611dc057611dbf611df5565b5b50919050565b7f4e487b7100000000000000000000000000000000000000000000000000000000600052601160045260246000fd5b7f4e487b7100000000000000000000000000000000000000000000000000000000600052602260045260246000fd5b600080fd5b6000601f19601f8301169050919050565b7f45524332303a207472616e7366657220746f20746865207a65726f206164647260008201527f6573730000000000000000000000000000000000000000000000000000000000602082015250565b7f45524332303a206275726e20616d6f756e7420657863656564732062616c616e60008201527f6365000000000000000000000000000000000000000000000000000000000000602082015250565b7f4f776e61626c653a206e6577206f776e657220697320746865207a65726f206160008201527f6464726573730000000000000000000000000000000000000000000000000000602082015250565b7f45524332303a20617070726f766520746f20746865207a65726f20616464726560008201527f7373000000000000000000000000000000000000000000000000000000000000602082015250565b7f45524332303a207472616e7366657220616d6f756e742065786365656473206260008201527f616c616e63650000000000000000000000000000000000000000000000000000602082015250565b7f526f636b65744a6f65546f6b656e3a20616c726561647920696e697469616c6960008201527f7a65640000000000000000000000000000000000000000000000000000000000602082015250565b7f526f636b65744a6f65546f6b656e3a2063616c6c6572206973206e6f7420612060008201527f524a4c61756e63684576656e7400000000000000000000000000000000000000602082015250565b7f45524332303a207472616e7366657220616d6f756e742065786365656473206160008201527f6c6c6f77616e6365000000000000000000000000000000000000000000000000602082015250565b7f4f776e61626c653a2063616c6c6572206973206e6f7420746865206f776e6572600082015250565b7f45524332303a206275726e2066726f6d20746865207a65726f2061646472657360008201527f7300000000000000000000000000000000000000000000000000000000000000602082015250565b7f526f636b65744a6f65546f6b656e3a2063616e27742073656e6420746f6b656e600082015250565b7f45524332303a207472616e736665722066726f6d20746865207a65726f20616460008201527f6472657373000000000000000000000000000000000000000000000000000000602082015250565b7f45524332303a20617070726f76652066726f6d20746865207a65726f2061646460008201527f7265737300000000000000000000000000000000000000000000000000000000602082015250565b7f45524332303a2064656372656173656420616c6c6f77616e63652062656c6f7760008201527f207a65726f000000000000000000000000000000000000000000000000000000602082015250565b7f45524332303a206d696e7420746f20746865207a65726f206164647265737300600082015250565b61227281611ce8565b811461227d57600080fd5b50565b61228981611cfa565b811461229457600080fd5b50565b6122a081611d26565b81146122ab57600080fd5b5056fea26469706673582212203bf788bf922ce528f901b65b2e98f858ec5ea550263012969c6923cb67b3d2a964736f6c63430008060033",
  "linkReferences": {},
  "deployedLinkReferences": {}
}