{
  "_format": "hh-sol-artifact-1",
  "contractName": "RCTreasury",
  "sourceName": "contracts/RCTreasury.sol",
  "abi": [
    {
      "inputs": [
        {
          "internalType": "address",
          "name": "_tokenAddress",
          "type": "address"
        }
      ],
      "stateMutability": "nonpayable",
      "type": "constructor"
    },
    {
      "anonymous": false,
      "inputs": [
        {
          "indexed": true,
          "internalType": "address",
          "name": "user",
          "type": "address"
        },
        {
          "indexed": true,
          "internalType": "uint256",
          "name": "amount",
          "type": "uint256"
        },
        {
          "indexed": false,
          "internalType": "bool",
          "name": "increase",
          "type": "bool"
        }
      ],
      "name": "LogAdjustDeposit",
      "type": "event"
    },
    {
      "anonymous": false,
      "inputs": [
        {
          "indexed": false,
          "internalType": "bool",
          "name": "paused",
          "type": "bool"
        }
      ],
      "name": "LogGlobalPause",
      "type": "event"
    },
    {
      "anonymous": false,
      "inputs": [
        {
          "indexed": false,
          "internalType": "address",
          "name": "market",
          "type": "address"
        },
        {
          "indexed": false,
          "internalType": "bool",
          "name": "paused",
          "type": "bool"
        }
      ],
      "name": "LogMarketPaused",
      "type": "event"
    },
    {
      "anonymous": false,
      "inputs": [
        {
          "indexed": true,
          "internalType": "address",
          "name": "user",
          "type": "address"
        },
        {
          "indexed": true,
          "internalType": "bool",
          "name": "foreclosed",
          "type": "bool"
        }
      ],
      "name": "LogUserForeclosed",
      "type": "event"
    },
    {
      "anonymous": false,
      "inputs": [
        {
          "indexed": false,
          "internalType": "address",
          "name": "userAddress",
          "type": "address"
        },
        {
          "indexed": false,
          "internalType": "address",
          "name": "relayerAddress",
          "type": "address"
        },
        {
          "indexed": false,
          "internalType": "bytes",
          "name": "functionSignature",
          "type": "bytes"
        }
      ],
      "name": "MetaTransactionExecuted",
      "type": "event"
    },
    {
      "anonymous": false,
      "inputs": [
        {
          "indexed": true,
          "internalType": "address",
          "name": "previousOwner",
          "type": "address"
        },
        {
          "indexed": true,
          "internalType": "address",
          "name": "newOwner",
          "type": "address"
        }
      ],
      "name": "OwnershipTransferred",
      "type": "event"
    },
    {
      "inputs": [
        {
          "internalType": "address",
          "name": "_newMarket",
          "type": "address"
        }
      ],
      "name": "addMarket",
      "outputs": [],
      "stateMutability": "nonpayable",
      "type": "function"
    },
    {
      "inputs": [
        {
          "internalType": "address",
          "name": "_user",
          "type": "address"
        }
      ],
      "name": "addToWhitelist",
      "outputs": [],
      "stateMutability": "nonpayable",
      "type": "function"
    },
    {
      "inputs": [
        {
          "internalType": "address[]",
          "name": "_users",
          "type": "address[]"
        }
      ],
      "name": "batchAddToWhitelist",
      "outputs": [],
      "stateMutability": "nonpayable",
      "type": "function"
    },
    {
      "inputs": [],
      "name": "bridgeAddress",
      "outputs": [
        {
          "internalType": "address",
          "name": "",
          "type": "address"
        }
      ],
      "stateMutability": "view",
      "type": "function"
    },
    {
      "inputs": [],
      "name": "changeGlobalPause",
      "outputs": [],
      "stateMutability": "nonpayable",
      "type": "function"
    },
    {
      "inputs": [
        {
          "internalType": "address",
          "name": "_market",
          "type": "address"
        }
      ],
      "name": "changePauseMarket",
      "outputs": [],
      "stateMutability": "nonpayable",
      "type": "function"
    },
    {
      "inputs": [
        {
          "internalType": "address",
          "name": "_newUberOwner",
          "type": "address"
        }
      ],
      "name": "changeUberOwner",
      "outputs": [],
      "stateMutability": "nonpayable",
      "type": "function"
    },
    {
      "inputs": [
        {
          "internalType": "address",
          "name": "sender",
          "type": "address"
        },
        {
          "internalType": "uint256",
          "name": "_amount",
          "type": "uint256"
        }
      ],
      "name": "checkSponsorship",
      "outputs": [],
      "stateMutability": "view",
      "type": "function"
    },
    {
      "inputs": [
        {
          "internalType": "address",
          "name": "_user",
          "type": "address"
        },
        {
          "internalType": "uint256",
          "name": "_timeToCollectTo",
          "type": "uint256"
        }
      ],
      "name": "collectRentUser",
      "outputs": [
        {
          "internalType": "uint256",
          "name": "newTimeLastCollectedOnForeclosure",
          "type": "uint256"
        }
      ],
      "stateMutability": "nonpayable",
      "type": "function"
    },
    {
      "inputs": [
        {
          "internalType": "address",
          "name": "_user",
          "type": "address"
        },
        {
          "internalType": "uint256",
          "name": "_price",
          "type": "uint256"
        }
      ],
      "name": "decreaseBidRate",
      "outputs": [],
      "stateMutability": "nonpayable",
      "type": "function"
    },
    {
      "inputs": [
        {
          "internalType": "uint256",
          "name": "_amount",
          "type": "uint256"
        },
        {
          "internalType": "address",
          "name": "_user",
          "type": "address"
        }
      ],
      "name": "deposit",
      "outputs": [
        {
          "internalType": "bool",
          "name": "",
          "type": "bool"
        }
      ],
      "stateMutability": "nonpayable",
      "type": "function"
    },
    {
      "inputs": [],
      "name": "erc20",
      "outputs": [
        {
          "internalType": "contract IERC20",
          "name": "",
          "type": "address"
        }
      ],
      "stateMutability": "view",
      "type": "function"
    },
    {
      "inputs": [
        {
          "internalType": "address",
          "name": "userAddress",
          "type": "address"
        },
        {
          "internalType": "bytes",
          "name": "functionSignature",
          "type": "bytes"
        },
        {
          "internalType": "bytes32",
          "name": "sigR",
          "type": "bytes32"
        },
        {
          "internalType": "bytes32",
          "name": "sigS",
          "type": "bytes32"
        },
        {
          "internalType": "uint8",
          "name": "sigV",
          "type": "uint8"
        }
      ],
      "name": "executeMetaTransaction",
      "outputs": [
        {
          "internalType": "bytes",
          "name": "",
          "type": "bytes"
        }
      ],
      "stateMutability": "payable",
      "type": "function"
    },
    {
      "inputs": [],
      "name": "factoryAddress",
      "outputs": [
        {
          "internalType": "address",
          "name": "",
          "type": "address"
        }
      ],
      "stateMutability": "view",
      "type": "function"
    },
    {
      "inputs": [
        {
          "internalType": "address",
          "name": "_user",
          "type": "address"
        },
        {
          "internalType": "uint256",
          "name": "_newBid",
          "type": "uint256"
        },
        {
          "internalType": "uint256",
          "name": "_timeOfNewBid",
          "type": "uint256"
        }
      ],
      "name": "foreclosureTimeUser",
      "outputs": [
        {
          "internalType": "uint256",
          "name": "",
          "type": "uint256"
        }
      ],
      "stateMutability": "view",
      "type": "function"
    },
    {
      "inputs": [],
      "name": "getChainId",
      "outputs": [
        {
          "internalType": "uint256",
          "name": "",
          "type": "uint256"
        }
      ],
      "stateMutability": "view",
      "type": "function"
    },
    {
      "inputs": [],
      "name": "getDomainSeperator",
      "outputs": [
        {
          "internalType": "bytes32",
          "name": "",
          "type": "bytes32"
        }
      ],
      "stateMutability": "view",
      "type": "function"
    },
    {
      "inputs": [
        {
          "internalType": "address",
          "name": "user",
          "type": "address"
        }
      ],
      "name": "getNonce",
      "outputs": [
        {
          "internalType": "uint256",
          "name": "nonce",
          "type": "uint256"
        }
      ],
      "stateMutability": "view",
      "type": "function"
    },
    {
      "inputs": [],
      "name": "globalPause",
      "outputs": [
        {
          "internalType": "bool",
          "name": "",
          "type": "bool"
        }
      ],
      "stateMutability": "view",
      "type": "function"
    },
    {
      "inputs": [
        {
          "internalType": "address",
          "name": "_user",
          "type": "address"
        },
        {
          "internalType": "uint256",
          "name": "_price",
          "type": "uint256"
        }
      ],
      "name": "increaseBidRate",
      "outputs": [],
      "stateMutability": "nonpayable",
      "type": "function"
    },
    {
      "inputs": [
        {
          "internalType": "address",
          "name": "",
          "type": "address"
        }
      ],
      "name": "isAllowed",
      "outputs": [
        {
          "internalType": "bool",
          "name": "",
          "type": "bool"
        }
      ],
      "stateMutability": "view",
      "type": "function"
    },
    {
      "inputs": [
        {
          "internalType": "address",
          "name": "",
          "type": "address"
        }
      ],
      "name": "isForeclosed",
      "outputs": [
        {
          "internalType": "bool",
          "name": "",
          "type": "bool"
        }
      ],
      "stateMutability": "view",
      "type": "function"
    },
    {
      "inputs": [
        {
          "internalType": "address",
          "name": "",
          "type": "address"
        }
      ],
      "name": "isMarket",
      "outputs": [
        {
          "internalType": "bool",
          "name": "",
          "type": "bool"
        }
      ],
      "stateMutability": "view",
      "type": "function"
    },
    {
      "inputs": [],
      "name": "marketBalance",
      "outputs": [
        {
          "internalType": "uint256",
          "name": "",
          "type": "uint256"
        }
      ],
      "stateMutability": "view",
      "type": "function"
    },
    {
      "inputs": [
        {
          "internalType": "address",
          "name": "",
          "type": "address"
        }
      ],
      "name": "marketPaused",
      "outputs": [
        {
          "internalType": "bool",
          "name": "",
          "type": "bool"
        }
      ],
      "stateMutability": "view",
      "type": "function"
    },
    {
      "inputs": [
        {
          "internalType": "address",
          "name": "",
          "type": "address"
        }
      ],
      "name": "marketPot",
      "outputs": [
        {
          "internalType": "uint256",
          "name": "",
          "type": "uint256"
        }
      ],
      "stateMutability": "view",
      "type": "function"
    },
    {
      "inputs": [],
      "name": "maxContractBalance",
      "outputs": [
        {
          "internalType": "uint256",
          "name": "",
          "type": "uint256"
        }
      ],
      "stateMutability": "view",
      "type": "function"
    },
    {
      "inputs": [],
      "name": "minRentalDayDivisor",
      "outputs": [
        {
          "internalType": "uint256",
          "name": "",
          "type": "uint256"
        }
      ],
      "stateMutability": "view",
      "type": "function"
    },
    {
      "inputs": [],
      "name": "nfthub",
      "outputs": [
        {
          "internalType": "contract IRCNftHubL2",
          "name": "",
          "type": "address"
        }
      ],
      "stateMutability": "view",
      "type": "function"
    },
    {
      "inputs": [],
      "name": "orderbook",
      "outputs": [
        {
          "internalType": "contract IRCOrderbook",
          "name": "",
          "type": "address"
        }
      ],
      "stateMutability": "view",
      "type": "function"
    },
    {
      "inputs": [],
      "name": "owner",
      "outputs": [
        {
          "internalType": "address",
          "name": "",
          "type": "address"
        }
      ],
      "stateMutability": "view",
      "type": "function"
    },
    {
      "inputs": [
        {
          "internalType": "uint256",
          "name": "_amount",
          "type": "uint256"
        }
      ],
      "name": "payRent",
      "outputs": [
        {
          "internalType": "bool",
          "name": "",
          "type": "bool"
        }
      ],
      "stateMutability": "nonpayable",
      "type": "function"
    },
    {
      "inputs": [
        {
          "internalType": "address",
          "name": "_user",
          "type": "address"
        },
        {
          "internalType": "uint256",
          "name": "_amount",
          "type": "uint256"
        }
      ],
      "name": "payout",
      "outputs": [
        {
          "internalType": "bool",
          "name": "",
          "type": "bool"
        }
      ],
      "stateMutability": "nonpayable",
      "type": "function"
    },
    {
      "inputs": [
        {
          "internalType": "address",
          "name": "_user",
          "type": "address"
        },
        {
          "internalType": "uint256",
          "name": "_refund",
          "type": "uint256"
        }
      ],
      "name": "refundUser",
      "outputs": [],
      "stateMutability": "nonpayable",
      "type": "function"
    },
    {
      "inputs": [],
      "name": "renounceOwnership",
      "outputs": [],
      "stateMutability": "nonpayable",
      "type": "function"
    },
    {
      "inputs": [
        {
          "internalType": "address",
          "name": "_user",
          "type": "address"
        }
      ],
      "name": "resetUser",
      "outputs": [],
      "stateMutability": "nonpayable",
      "type": "function"
    },
    {
      "inputs": [
        {
          "internalType": "address",
          "name": "_newBridge",
          "type": "address"
        }
      ],
      "name": "setBridgeAddress",
      "outputs": [],
      "stateMutability": "nonpayable",
      "type": "function"
    },
    {
      "inputs": [
        {
          "internalType": "address",
          "name": "_newFactory",
          "type": "address"
        }
      ],
      "name": "setFactoryAddress",
      "outputs": [],
      "stateMutability": "nonpayable",
      "type": "function"
    },
    {
      "inputs": [
        {
          "internalType": "uint256",
          "name": "_newBalanceLimit",
          "type": "uint256"
        }
      ],
      "name": "setMaxContractBalance",
      "outputs": [],
      "stateMutability": "nonpayable",
      "type": "function"
    },
    {
      "inputs": [
        {
          "internalType": "uint256",
          "name": "_newDivisor",
          "type": "uint256"
        }
      ],
      "name": "setMinRental",
      "outputs": [],
      "stateMutability": "nonpayable",
      "type": "function"
    },
    {
      "inputs": [
        {
          "internalType": "address",
          "name": "_NFTHubAddress",
          "type": "address"
        }
      ],
      "name": "setNftHubAddress",
      "outputs": [],
      "stateMutability": "nonpayable",
      "type": "function"
    },
    {
      "inputs": [
        {
          "internalType": "address",
          "name": "_newOrderbook",
          "type": "address"
        }
      ],
      "name": "setOrderbookAddress",
      "outputs": [],
      "stateMutability": "nonpayable",
      "type": "function"
    },
    {
      "inputs": [
        {
          "internalType": "address",
          "name": "_newToken",
          "type": "address"
        }
      ],
      "name": "setTokenAddress",
      "outputs": [],
      "stateMutability": "nonpayable",
      "type": "function"
    },
    {
      "inputs": [
        {
          "internalType": "address",
          "name": "_sponsor",
          "type": "address"
        },
        {
          "internalType": "uint256",
          "name": "_amount",
          "type": "uint256"
        }
      ],
      "name": "sponsor",
      "outputs": [
        {
          "internalType": "bool",
          "name": "",
          "type": "bool"
        }
      ],
      "stateMutability": "nonpayable",
      "type": "function"
    },
    {
      "inputs": [],
      "name": "toggleWhitelist",
      "outputs": [],
      "stateMutability": "nonpayable",
      "type": "function"
    },
    {
      "inputs": [
        {
          "internalType": "uint256",
          "name": "_amount",
          "type": "uint256"
        }
      ],
      "name": "topupMarketBalance",
      "outputs": [],
      "stateMutability": "nonpayable",
      "type": "function"
    },
    {
      "inputs": [],
      "name": "totalDeposits",
      "outputs": [
        {
          "internalType": "uint256",
          "name": "",
          "type": "uint256"
        }
      ],
      "stateMutability": "view",
      "type": "function"
    },
    {
      "inputs": [],
      "name": "totalMarketPots",
      "outputs": [
        {
          "internalType": "uint256",
          "name": "",
          "type": "uint256"
        }
      ],
      "stateMutability": "view",
      "type": "function"
    },
    {
      "inputs": [
        {
          "internalType": "address",
          "name": "newOwner",
          "type": "address"
        }
      ],
      "name": "transferOwnership",
      "outputs": [],
      "stateMutability": "nonpayable",
      "type": "function"
    },
    {
      "inputs": [],
      "name": "uberOwner",
      "outputs": [
        {
          "internalType": "address",
          "name": "",
          "type": "address"
        }
      ],
      "stateMutability": "view",
      "type": "function"
    },
    {
      "inputs": [
        {
          "internalType": "address",
          "name": "_user",
          "type": "address"
        }
      ],
      "name": "updateLastRentalTime",
      "outputs": [
        {
          "internalType": "bool",
          "name": "",
          "type": "bool"
        }
      ],
      "stateMutability": "nonpayable",
      "type": "function"
    },
    {
      "inputs": [
        {
          "internalType": "address",
          "name": "_oldOwner",
          "type": "address"
        },
        {
          "internalType": "address",
          "name": "_newOwner",
          "type": "address"
        },
        {
          "internalType": "uint256",
          "name": "_oldPrice",
          "type": "uint256"
        },
        {
          "internalType": "uint256",
          "name": "_newPrice",
          "type": "uint256"
        },
        {
          "internalType": "uint256",
          "name": "_timeOwnershipChanged",
          "type": "uint256"
        }
      ],
      "name": "updateRentalRate",
      "outputs": [],
      "stateMutability": "nonpayable",
      "type": "function"
    },
    {
      "inputs": [
        {
          "internalType": "address",
          "name": "",
          "type": "address"
        }
      ],
      "name": "user",
      "outputs": [
        {
          "internalType": "uint128",
          "name": "deposit",
          "type": "uint128"
        },
        {
          "internalType": "uint128",
          "name": "rentalRate",
          "type": "uint128"
        },
        {
          "internalType": "uint128",
          "name": "bidRate",
          "type": "uint128"
        },
        {
          "internalType": "uint64",
          "name": "lastRentCalc",
          "type": "uint64"
        },
        {
          "internalType": "uint64",
          "name": "lastRentalTime",
          "type": "uint64"
        }
      ],
      "stateMutability": "view",
      "type": "function"
    },
    {
      "inputs": [
        {
          "internalType": "address",
          "name": "_user",
          "type": "address"
        }
      ],
      "name": "userDeposit",
      "outputs": [
        {
          "internalType": "uint256",
          "name": "",
          "type": "uint256"
        }
      ],
      "stateMutability": "view",
      "type": "function"
    },
    {
      "inputs": [
        {
          "internalType": "address",
          "name": "_user",
          "type": "address"
        }
      ],
      "name": "userTotalBids",
      "outputs": [
        {
          "internalType": "uint256",
          "name": "",
          "type": "uint256"
        }
      ],
      "stateMutability": "view",
      "type": "function"
    },
    {
      "inputs": [],
      "name": "whitelistEnabled",
      "outputs": [
        {
          "internalType": "bool",
          "name": "",
          "type": "bool"
        }
      ],
      "stateMutability": "view",
      "type": "function"
    },
    {
      "inputs": [
        {
          "internalType": "uint256",
          "name": "_amount",
          "type": "uint256"
        },
        {
          "internalType": "bool",
          "name": "_localWithdrawal",
          "type": "bool"
        }
      ],
      "name": "withdrawDeposit",
      "outputs": [],
      "stateMutability": "nonpayable",
      "type": "function"
    }
  ],
  "bytecode": "0x60806040523480156200001157600080fd5b506040516200453d3803806200453d83398101604081905262000034916200048d565b600080546001600160a01b031916339081178255604051909182917f8be0079c531659141344cd1fd0a4f28419497f9722a3daafe3b4186f6b6457e0908290a350620000d56040518060400160405280601481526020017f5265616c69747943617264735472656173757279000000000000000000000000815250604051806040016040528060018152602001603160f81b8152506200013f60201b60201c565b620000df6200021c565b601580546001600160a01b0319166001600160a01b03929092169190911790556200010b60906200027b565b6200012069d3c21bcecceda1000000620002cb565b6200012b816200031b565b506013805460ff19166001179055620004bd565b600054600160a81b900460ff1680620001625750600054600160a01b900460ff16155b620001cb5760405162461bcd60e51b815260206004820152602e60248201527f496e697469616c697a61626c653a20636f6e747261637420697320616c72656160448201526d191e481a5b9a5d1a585b1a5e995960921b60648201526084015b60405180910390fd5b600054600160a81b900460ff16158015620001f6576000805461ffff60a01b191661010160a01b1790555b620002028383620003f8565b801562000217576000805460ff60a81b191690555b505050565b6000333014156200027557600080368080601f0160208091040260200160405190810160405280939291908181526020018383808284376000920191909152505050503601516001600160a01b03169150620002789050565b50335b90565b6000546001600160a01b03163314620002c65760405162461bcd60e51b815260206004820181905260248201526000805160206200451d8339815191526044820152606401620001c2565b601055565b6000546001600160a01b03163314620003165760405162461bcd60e51b815260206004820181905260248201526000805160206200451d8339815191526044820152606401620001c2565b601155565b6015546001600160a01b0316620003316200021c565b6001600160a01b0316146200037e5760405162461bcd60e51b815260206004820152601260248201527122bc3a3932b6b2b63c902b32b93137ba32b760711b6044820152606401620001c2565b6001600160a01b038116620003d65760405162461bcd60e51b815260206004820152601360248201527f4d7573742073657420616e2061646472657373000000000000000000000000006044820152606401620001c2565b600580546001600160a01b0319166001600160a01b0392909216919091179055565b6040518060800160405280604f8152602001620044ce604f91398051906020012082805190602001208280519060200120306200043a6200048960201b60201c565b60408051602081019690965285019390935260608401919091526001600160a01b0316608083015260a082015260c00160408051601f1981840301815291905280516020909101206001555050565b4690565b6000602082840312156200049f578081fd5b81516001600160a01b0381168114620004b6578182fd5b9392505050565b61400180620004cd6000396000f3fe6080604052600436106103765760003560e01c806381e7e20e116101d1578063b165d0f211610102578063e7d8e97f116100a0578063f2fde38b1161006f578063f2fde38b14610b19578063fca02c2114610b39578063fd2a97fd14610b4f578063fe8f9dc214610b6f57600080fd5b8063e7d8e97f14610a9a578063eb358a2014610aba578063eea758f114610ada578063f12d54d814610afa57600080fd5b8063d1260edd116100dc578063d1260edd146109ee578063d742d39a14610a2d578063d9e8843f14610a5a578063e43252d714610a7a57600080fd5b8063b165d0f21461095c578063babcc5391461099e578063c18b1d5e146109ce57600080fd5b806393e306331161016f57806399bfbf1d1161014957806399bfbf1d146108dc5780639c402b23146108fc578063a3c573eb1461091c578063a4a5734f1461093c57600080fd5b806393e306331461087c57806394937a481461089c578063966dae0e146108bc57600080fd5b80638c995e44116101ab5780638c995e44146108085780638da5cb5b146108285780638fdf560d146108465780639223d2df1461086657600080fd5b806381e7e20e1461071d57806383c17c55146107c8578063843a19ac146107e857600080fd5b80633c73e359116102ab5780636ec934da11610249578063785e9e8611610223578063785e9e86146106b25780637d882097146106d25780637e15144b146106e85780637f5a22f9146106fd57600080fd5b80636ec934da1461064d578063715018a61461067d578063744ab9251461069257600080fd5b806351fb012d1161028557806351fb012d146105dd578063606845a8146105f757806365fcb49e146106175780636e553f651461062d57600080fd5b80633c73e359146105655780633f4bf03c1461059d5780634a807724146105bd57600080fd5b806326a4e8d2116103185780633408e470116102f25780633408e470146104fc578063343959b41461050f578063368deb7e1461052f5780633ba3bd251461054557600080fd5b806326a4e8d2146104865780632d0335ab146104a65780632db6fa36146104dc57600080fd5b80631aa14e7e116103545780631aa14e7e146104005780631f8864e61461043057806320379ee51461044757806320cba0851461046657600080fd5b80630149d3141461037b5780630c53c51c146103c0578063117de2fd146103e0575b600080fd5b34801561038757600080fd5b506103ab61039636600461399f565b600d6020526000908152604090205460ff1681565b60405190151581526020015b60405180910390f35b6103d36103ce366004613a05565b610b8f565b6040516103b79190613d07565b3480156103ec57600080fd5b506103ab6103fb366004613ae3565b610d7e565b34801561040c57600080fd5b506103ab61041b36600461399f565b60146020526000908152604090205460ff1681565b34801561043c57600080fd5b5061044561101d565b005b34801561045357600080fd5b506001545b6040519081526020016103b7565b34801561047257600080fd5b50610445610481366004613bc9565b6110a9565b34801561049257600080fd5b506104456104a136600461399f565b61118f565b3480156104b257600080fd5b506104586104c136600461399f565b6001600160a01b031660009081526002602052604090205490565b3480156104e857600080fd5b506104456104f7366004613b3e565b611211565b34801561050857600080fd5b5046610458565b34801561051b57600080fd5b5061044561052a36600461399f565b61126b565b34801561053b57600080fd5b50610458600b5481565b34801561055157600080fd5b5061044561056036600461399f565b6112c6565b34801561057157600080fd5b50600454610585906001600160a01b031681565b6040516001600160a01b0390911681526020016103b7565b3480156105a957600080fd5b506104456105b8366004613bc9565b611348565b3480156105c957600080fd5b506104586105d8366004613b0c565b611377565b3480156105e957600080fd5b506013546103ab9060ff1681565b34801561060357600080fd5b5061044561061236600461399f565b611503565b34801561062357600080fd5b5061045860115481565b34801561063957600080fd5b506103ab610648366004613bf9565b611585565b34801561065957600080fd5b506103ab61066836600461399f565b60086020526000908152604090205460ff1681565b34801561068957600080fd5b50610445611aa1565b34801561069e57600080fd5b50601554610585906001600160a01b031681565b3480156106be57600080fd5b50600554610585906001600160a01b031681565b3480156106de57600080fd5b5061045860095481565b3480156106f457600080fd5b50610445611b15565b34801561070957600080fd5b5061044561071836600461399f565b611b53565b34801561072957600080fd5b5061078461073836600461399f565b600f60205260009081526040902080546001909101546001600160801b0380831692600160801b90819004821692918216916001600160401b03918104821691600160c01b9091041685565b604080516001600160801b039687168152948616602086015292909416918301919091526001600160401b039081166060830152909116608082015260a0016103b7565b3480156107d457600080fd5b506104456107e336600461399f565b611c55565b3480156107f457600080fd5b5061044561080336600461399f565b611cd7565b34801561081457600080fd5b506103ab610823366004613ae3565b611dc8565b34801561083457600080fd5b506000546001600160a01b0316610585565b34801561085257600080fd5b50610445610861366004613bc9565b612036565b34801561087257600080fd5b5061045860105481565b34801561088857600080fd5b5061044561089736600461399f565b612065565b3480156108a857600080fd5b506104456108b736600461399f565b6120e1565b3480156108c857600080fd5b50600754610585906001600160a01b031681565b3480156108e857600080fd5b506104456108f7366004613ae3565b612163565b34801561090857600080fd5b50610445610917366004613ae3565b612202565b34801561092857600080fd5b50600654610585906001600160a01b031681565b34801561094857600080fd5b50610458610957366004613ae3565b61238e565b34801561096857600080fd5b5061045861097736600461399f565b6001600160a01b03166000908152600f60205260409020600101546001600160801b031690565b3480156109aa57600080fd5b506103ab6109b936600461399f565b60126020526000908152604090205460ff1681565b3480156109da57600080fd5b50600354610585906001600160a01b031681565b3480156109fa57600080fd5b50610458610a0936600461399f565b6001600160a01b03166000908152600f60205260409020546001600160801b031690565b348015610a3957600080fd5b50610458610a4836600461399f565b600a6020526000908152604090205481565b348015610a6657600080fd5b506103ab610a75366004613bc9565b612659565b348015610a8657600080fd5b50610445610a9536600461399f565b61285f565b348015610aa657600080fd5b50610445610ab5366004613c24565b612936565b348015610ac657600080fd5b506103ab610ad536600461399f565b612ea9565b348015610ae657600080fd5b50610445610af5366004613ae3565b612f98565b348015610b0657600080fd5b506013546103ab90610100900460ff1681565b348015610b2557600080fd5b50610445610b3436600461399f565b613153565b348015610b4557600080fd5b50610458600c5481565b348015610b5b57600080fd5b50610445610b6a366004613ae3565b61323d565b348015610b7b57600080fd5b50610445610b8a3660046139b9565b6132b4565b60408051606081810183526001600160a01b03881660008181526002602090815290859020548452830152918101869052610bcd87828787876134fc565b610c285760405162461bcd60e51b815260206004820152602160248201527f5369676e657220616e64207369676e617475726520646f206e6f74206d6174636044820152600d60fb1b60648201526084015b60405180910390fd5b6001600160a01b038716600090815260026020526040902054610c4c906001613e2a565b6001600160a01b0388166000908152600260205260409081902091909155517f5845892132946850460bff5a0083f71031bc5bf9aadcd40f1de79423eac9b10b90610c9c90899033908a90613cd2565b60405180910390a1600080306001600160a01b0316888a604051602001610cc4929190613c9b565b60408051601f1981840301815290829052610cde91613c7f565b6000604051808303816000865af19150503d8060008114610d1b576040519150601f19603f3d011682016040523d82523d6000602084013e610d20565b606091505b509150915081610d725760405162461bcd60e51b815260206004820152601c60248201527f46756e6374696f6e2063616c6c206e6f74207375636365737366756c000000006044820152606401610c1f565b98975050505050505050565b600060086000610d8c6135ec565b6001600160a01b0316815260208101919091526040016000205460ff16610dc55760405162461bcd60e51b8152600401610c1f90613d76565b601354610100900460ff1615610e145760405162461bcd60e51b815260206004820152601460248201527314185e5bdd5d1cc8185c9948191a5cd8589b195960621b6044820152606401610c1f565b81600a6000610e216135ec565b6001600160a01b03166001600160a01b03168152602001908152602001600020541015610e5e57634e487b7160e01b600052600160045260246000fd5b610e6782613649565b6001600160a01b0384166000908152600f602052604081208054909190610e989084906001600160801b0316613dff565b92506101000a8154816001600160801b0302191690836001600160801b0316021790555081600a6000610ec96135ec565b6001600160a01b03166001600160a01b031681526020019081526020016000206000828254610ef89190613ea9565b9250508190555081600b6000828254610f119190613ea9565b925050819055508160096000828254610f2a9190613e2a565b90915550506040516001815282906001600160a01b03851690600080516020613fac8339815191529060200160405180910390a3506001600b54600c54600954610f749190613e2a565b610f7e9190613e2a565b6005546040516370a0823160e01b81523060048201526001600160a01b03909116906370a082319060240160206040518083038186803b158015610fc157600080fd5b505afa158015610fd5573d6000803e3d6000fd5b505050506040513d601f19601f82011682018060405250810190610ff99190613be1565b10156110175760405162461bcd60e51b8152600401610c1f90613d47565b92915050565b6000546001600160a01b031633146110475760405162461bcd60e51b8152600401610c1f90613d9e565b6013805460ff610100808304821615810261ff001990931692909217928390556040517f75da7ed2bd786eeb9acb916c57ea4388550d4514b18294a69e9acb99a58445939361109f9390049091161515815260200190565b60405180910390a1565b6005546001600160a01b03166323b872dd6110c26135ec565b6040516001600160e01b031960e084901b1681526001600160a01b03909116600482015230602482015260448101849052606401602060405180830381600087803b15801561111057600080fd5b505af1158015611124573d6000803e3d6000fd5b505050506040513d601f19601f820116820180604052508101906111489190613bad565b50600e5481111561115d576000600e55611175565b80600e600082825461116f9190613ea9565b90915550505b80600c60008282546111879190613e2a565b909155505050565b6015546001600160a01b03166111a36135ec565b6001600160a01b0316146111c95760405162461bcd60e51b8152600401610c1f90613dd3565b6001600160a01b0381166111ef5760405162461bcd60e51b8152600401610c1f90613d1a565b600580546001600160a01b0319166001600160a01b0392909216919091179055565b60005b818110156112665761125483838381811061123f57634e487b7160e01b600052603260045260246000fd5b9050602002016020810190610a95919061399f565b8061125e81613ef0565b915050611214565b505050565b6003546001600160a01b031661127f6135ec565b6001600160a01b0316146112a55760405162461bcd60e51b8152600401610c1f90613d76565b6001600160a01b03166000908152600d60205260409020805460ff19169055565b6015546001600160a01b03166112da6135ec565b6001600160a01b0316146113005760405162461bcd60e51b8152600401610c1f90613dd3565b6001600160a01b0381166113265760405162461bcd60e51b8152600401610c1f90613d1a565b600480546001600160a01b0319166001600160a01b0392909216919091179055565b6000546001600160a01b031633146113725760405162461bcd60e51b8152600401610c1f90613d9e565b601155565b6001600160a01b0383166000908152600f6020526040812054600160801b90046001600160801b031680156114f5576000816113b2876136b2565b6113bf9062015180613e62565b6113c99190613e42565b6001600160a01b0387166000908152600f602052604081206001015491925090611404908390600160801b90046001600160401b0316613e2a565b9050848111156114b4576001600160a01b0387166000908152600f602052604081206001015461144590600160801b90046001600160401b03168786613720565b6001600160a01b0389166000908152600f6020526040812054919250906114769083906001600160801b0316613ea9565b905060006114848987613e2a565b6114918362015180613e62565b61149b9190613e42565b90506114a78189613e2a565b96505050505050506114fc565b6001600160a01b0387166000908152600f60205260409020600101546114eb908390600160801b90046001600160401b0316613e2a565b93505050506114fc565b6000199150505b9392505050565b6015546001600160a01b03166115176135ec565b6001600160a01b03161461153d5760405162461bcd60e51b8152600401610c1f90613dd3565b6001600160a01b0381166115635760405162461bcd60e51b8152600401610c1f90613d1a565b601580546001600160a01b0319166001600160a01b0392909216919091179055565b601354600090610100900460ff16156115d85760405162461bcd60e51b815260206004820152601560248201527411195c1bdcda5d1cc8185c9948191a5cd8589b1959605a1b6044820152606401610c1f565b60055483906001600160a01b031663dd62ed3e6115f36135ec565b6040516001600160e01b031960e084901b1681526001600160a01b03909116600482015230602482015260440160206040518083038186803b15801561163857600080fd5b505afa15801561164c573d6000803e3d6000fd5b505050506040513d601f19601f820116820180604052508101906116709190613be1565b10156116cc5760405162461bcd60e51b815260206004820152602560248201527f55736572206e6f7420617070726f76656420746f2073656e64207468697320616044820152641b5bdd5b9d60da1b6064820152608401610c1f565b6011546005546040516370a0823160e01b815230600482015285916001600160a01b0316906370a082319060240160206040518083038186803b15801561171257600080fd5b505afa158015611726573d6000803e3d6000fd5b505050506040513d601f19601f8201168201806040525081019061174a9190613be1565b6117549190613e2a565b111561178e5760405162461bcd60e51b8152602060048201526009602482015268131a5b5a5d081a1a5d60ba1b6044820152606401610c1f565b600083116117d75760405162461bcd60e51b81526020600482015260166024820152754d757374206465706f73697420736f6d657468696e6760501b6044820152606401610c1f565b60135460ff161561184a57601260006117ee6135ec565b6001600160a01b0316815260208101919091526040016000205460ff1661184a5760405162461bcd60e51b815260206004820152601060248201526f139bdd081a5b881dda1a5d195b1a5cdd60821b6044820152606401610c1f565b6005546001600160a01b03166323b872dd6118636135ec565b6040516001600160e01b031960e084901b1681526001600160a01b03909116600482015230602482015260448101869052606401602060405180830381600087803b1580156118b157600080fd5b505af11580156118c5573d6000803e3d6000fd5b505050506040513d601f19601f820116820180604052508101906118e99190613bad565b5060035460405163beb724c960e01b81526001600160a01b0384811660048301529091169063beb724c990602401600060405180830381600087803b15801561193157600080fd5b505af1158015611945573d6000803e3d6000fd5b5050505061195283613649565b6001600160a01b0383166000908152600f6020526040812080549091906119839084906001600160801b0316613dff565b92506101000a8154816001600160801b0302191690836001600160801b0316021790555082600960008282546119b99190613e2a565b90915550506040516001815283906001600160a01b03841690600080516020613fac8339815191529060200160405180910390a36010546001600160a01b0383166000908152600f6020526040902060010154611a1f91906001600160801b0316613e42565b6001600160a01b0383166000908152600f6020526040902054611a4c9085906001600160801b0316613e2a565b1115611a8b576001600160a01b0382166000818152600d6020526040808220805460ff1916905551909190600080516020613f8c833981519152908390a35b506001600b54600c54600954610f749190613e2a565b6000546001600160a01b03163314611acb5760405162461bcd60e51b8152600401610c1f90613d9e565b600080546040516001600160a01b03909116907f8be0079c531659141344cd1fd0a4f28419497f9722a3daafe3b4186f6b6457e0908390a3600080546001600160a01b0319169055565b6000546001600160a01b03163314611b3f5760405162461bcd60e51b8152600401610c1f90613d9e565b6013805460ff19811660ff90911615179055565b6015546001600160a01b0316611b676135ec565b6001600160a01b031614611b8d5760405162461bcd60e51b8152600401610c1f90613dd3565b6001600160a01b038116611bb35760405162461bcd60e51b8152600401610c1f90613d1a565b600680546001600160a01b0319166001600160a01b0383811691821790925560055460405163095ea7b360e01b8152600481019290925260001960248301529091169063095ea7b390604401602060405180830381600087803b158015611c1957600080fd5b505af1158015611c2d573d6000803e3d6000fd5b505050506040513d601f19601f82011682018060405250810190611c519190613bad565b5050565b6015546001600160a01b0316611c696135ec565b6001600160a01b031614611c8f5760405162461bcd60e51b8152600401610c1f90613dd3565b6001600160a01b038116611cb55760405162461bcd60e51b8152600401610c1f90613d1a565b600780546001600160a01b0319166001600160a01b0392909216919091179055565b6000546001600160a01b03163314611d015760405162461bcd60e51b8152600401610c1f90613d9e565b6001600160a01b03811660009081526008602052604090205460ff16611d5f5760405162461bcd60e51b8152602060048201526013602482015272151a1a5cc81a5cdb89dd0818481b585c9ad95d606a1b6044820152606401610c1f565b6001600160a01b038116600081815260146020908152604091829020805460ff8082161560ff1990921682179092558351948552161515908301527ffcddbbd515b142e6be190d2fe4eb84efa355f935b1365d70be1bc6cc0d42b84e910160405180910390a150565b600060086000611dd66135ec565b6001600160a01b0316815260208101919091526040016000205460ff16611e0f5760405162461bcd60e51b8152600401610c1f90613d76565b601354610100900460ff1615611e675760405162461bcd60e51b815260206004820152601760248201527f476c6f62616c20506175736520697320456e61626c65640000000000000000006044820152606401610c1f565b600554604051636eb1769f60e11b81526001600160a01b0385811660048301523060248301528492169063dd62ed3e9060440160206040518083038186803b158015611eb257600080fd5b505afa158015611ec6573d6000803e3d6000fd5b505050506040513d601f19601f82011682018060405250810190611eea9190613be1565b1015611f385760405162461bcd60e51b815260206004820181905260248201527f4e6f7420617070726f76656420746f2073656e64207468697320616d6f756e746044820152606401610c1f565b6005546040516323b872dd60e01b81526001600160a01b03858116600483015230602483015260448201859052909116906323b872dd90606401602060405180830381600087803b158015611f8c57600080fd5b505af1158015611fa0573d6000803e3d6000fd5b505050506040513d601f19601f82011682018060405250810190611fc49190613bad565b5081600a6000611fd26135ec565b6001600160a01b03166001600160a01b0316815260200190815260200160002060008282546120019190613e2a565b9250508190555081600b600082825461201a9190613e2a565b909155506001915050600b54600c54600954610f749190613e2a565b6000546001600160a01b031633146120605760405162461bcd60e51b8152600401610c1f90613d9e565b601055565b6007546001600160a01b03166120796135ec565b6001600160a01b0316146120bd5760405162461bcd60e51b815260206004820152600b60248201526a4e6f7420666163746f727960a81b6044820152606401610c1f565b6001600160a01b03166000908152600860205260409020805460ff19166001179055565b6015546001600160a01b03166120f56135ec565b6001600160a01b03161461211b5760405162461bcd60e51b8152600401610c1f90613dd3565b6001600160a01b0381166121415760405162461bcd60e51b8152600401610c1f90613d1a565b600380546001600160a01b0319166001600160a01b0392909216919091179055565b6003546001600160a01b03166121776135ec565b6001600160a01b03161461219d5760405162461bcd60e51b8152600401610c1f90613d76565b6121a681613649565b6001600160a01b0383166000908152600f6020526040812060010180549091906121da9084906001600160801b0316613dff565b92506101000a8154816001600160801b0302191690836001600160801b031602179055505050565b600554604051636eb1769f60e11b81526001600160a01b0384811660048301523060248301528392169063dd62ed3e9060440160206040518083038186803b15801561224d57600080fd5b505afa158015612261573d6000803e3d6000fd5b505050506040513d601f19601f820116820180604052508101906122859190613be1565b10156122cc5760405162461bcd60e51b8152602060048201526016602482015275496e73756666696369656e7420416c6c6f77616e636560501b6044820152606401610c1f565b6005546040516370a0823160e01b81526001600160a01b038481166004830152839216906370a082319060240160206040518083038186803b15801561231157600080fd5b505afa158015612325573d6000803e3d6000fd5b505050506040513d601f19601f820116820180604052508101906123499190613be1565b1015611c515760405162461bcd60e51b8152602060048201526014602482015273496e73756666696369656e742042616c616e636560601b6044820152606401610c1f565b601354600090610100900460ff16156123e95760405162461bcd60e51b815260206004820152601760248201527f476c6f62616c20706175736520697320656e61626c65640000000000000000006044820152606401610c1f565b8161240457634e487b7160e01b600052600160045260246000fd5b6001600160a01b0383166000908152600f6020526040902060010154600160801b90046001600160401b03168211156110175760006124438484613758565b905060008111801561247557506001600160a01b0384166000908152600f60205260409020546001600160801b031681115b156125ca576001600160a01b0384166000908152600f6020526040812060018101549054600160801b9091046001600160401b0316919083906001600160801b03166124c18488613ea9565b6124cb9190613e62565b6124d59190613e42565b6001600160a01b0387166000908152600f60205260409020546001600160801b0316935090506125058183613e2a565b935061251183876137d0565b61251a84613861565b6001600160a01b0387166000908152600f602052604090206001810180546001600160401b0393909316600160801b0267ffffffffffffffff60801b1990931692909217909155546001600160801b03161561258657634e487b7160e01b600052600160045260246000fd5b6001600160a01b0386166000818152600d6020526040808220805460ff191660019081179091559051909291600080516020613f8c83398151915291a35050612623565b6125d481856137d0565b6125dd83613861565b6001600160a01b0385166000908152600f6020526040902060010180546001600160401b0392909216600160801b0267ffffffffffffffff60801b199092169190911790555b6040516000815281906001600160a01b03861690600080516020613fac8339815191529060200160405180910390a35092915050565b6000600860006126676135ec565b6001600160a01b0316815260208101919091526040016000205460ff166126a05760405162461bcd60e51b8152600401610c1f90613d76565b601354610100900460ff16156126ef5760405162461bcd60e51b815260206004820152601460248201527314995b9d185b1cc8185c9948191a5cd8589b195960621b6044820152606401610c1f565b81600c54101561273657600c546127069083613ea9565b600e60008282546127179190613e2a565b9091555050600c546127299083613ea9565b6127339083613ea9565b91505b60006127406135ec565b905082600c60008282546127549190613ea9565b90915550506001600160a01b0381166000908152600a602052604081208054859290612781908490613e2a565b9250508190555082600b600082825461279a9190613e2a565b90915550600192505050600b54600c546009546127b79190613e2a565b6127c19190613e2a565b6005546040516370a0823160e01b81523060048201526001600160a01b03909116906370a082319060240160206040518083038186803b15801561280457600080fd5b505afa158015612818573d6000803e3d6000fd5b505050506040513d601f19601f8201168201806040525081019061283c9190613be1565b101561285a5760405162461bcd60e51b8152600401610c1f90613d47565b919050565b6007546001600160a01b03168063e43581b86128796135ec565b6040516001600160e01b031960e084901b1681526001600160a01b03909116600482015260240160206040518083038186803b1580156128b857600080fd5b505afa1580156128cc573d6000803e3d6000fd5b505050506040513d601f19601f820116820180604052508101906128f09190613bad565b61290c5760405162461bcd60e51b8152600401610c1f90613d76565b506001600160a01b03166000908152601260205260409020805460ff19811660ff90911615179055565b601354610100900460ff161561298e5760405162461bcd60e51b815260206004820152601860248201527f5769746864726177616c73206172652064697361626c656400000000000000006044820152606401610c1f565b60006129986135ec565b6001600160a01b0381166000908152600f60205260409020549091506001600160801b03166129ff5760405162461bcd60e51b81526020600482015260136024820152724e6f7468696e6720746f20776974686472617760681b6044820152606401610c1f565b6001600160a01b0381166000908152600f60205260409020600101546001600160801b03161580612a735750601054612a3b9062015180613e42565b6001600160a01b0382166000908152600f6020526040902060010154612a7190600160c01b90046001600160401b031642613ea9565b115b612aaa5760405162461bcd60e51b81526020600482015260086024820152672a37b79039b7b7b760c11b6044820152606401610c1f565b612ab4814261238e565b506001600160a01b0381166000908152600f60205260409020546001600160801b0316831115612b03576001600160a01b0381166000908152600f60205260409020546001600160801b031692505b6040516000815283906001600160a01b03831690600080516020613fac8339815191529060200160405180910390a3612b3b83613649565b6001600160a01b0382166000908152600f602052604081208054909190612b6c9084906001600160801b0316613e81565b92506101000a8154816001600160801b0302191690836001600160801b031602179055508260096000828254612ba29190613ea9565b90915550508115612c395760055460405163a9059cbb60e01b81526001600160a01b038381166004830152602482018690529091169063a9059cbb90604401602060405180830381600087803b158015612bfb57600080fd5b505af1158015612c0f573d6000803e3d6000fd5b505050506040513d601f19601f82011682018060405250810190612c339190613bad565b50612ca3565b60065460405163d32073cd60e01b81526001600160a01b0383811660048301526024820186905290911690819063d32073cd90604401600060405180830381600087803b158015612c8957600080fd5b505af1158015612c9d573d6000803e3d6000fd5b50505050505b6001600160a01b0381166000908152600f60205260409020600101546001600160801b031615801590612d0e57506001600160a01b0381166000908152600f6020526040902080546010546001909201546001600160801b0391821692612d0c92909116613e42565b115b15612df2576001600160a01b038181166000818152600d602052604090819020805460ff191660011790556003549051637d7cdc4360e11b815260048101929092529091169063faf9b88690602401602060405180830381600087803b158015612d7757600080fd5b505af1158015612d8b573d6000803e3d6000fd5b505050506040513d601f19601f82011682018060405250810190612daf9190613bad565b6001600160a01b0382166000818152600d6020526040808220805460ff191694151594851790555160ff909316151592600080516020613f8c8339815191529190a35b50600b54600c54600954612e069190613e2a565b612e109190613e2a565b6005546040516370a0823160e01b81523060048201526001600160a01b03909116906370a082319060240160206040518083038186803b158015612e5357600080fd5b505afa158015612e67573d6000803e3d6000fd5b505050506040513d601f19601f82011682018060405250810190612e8b9190613be1565b1015611c515760405162461bcd60e51b8152600401610c1f90613d47565b600060086000612eb76135ec565b6001600160a01b0316815260208101919091526040016000205460ff16612ef05760405162461bcd60e51b8152600401610c1f90613d76565b612ef942613861565b6001600160a01b0383166000908152600f6020526040902060010180546001600160c01b0316600160c01b6001600160401b03938416021790819055600160801b900416612f9057612f4a42613861565b6001600160a01b0383166000908152600f6020526040902060010180546001600160401b0392909216600160801b0267ffffffffffffffff60801b199092169190911790555b506001919050565b60086000612fa46135ec565b6001600160a01b0316815260208101919091526040016000205460ff16612fdd5760405162461bcd60e51b8152600401610c1f90613d76565b80600c6000828254612fef9190613ea9565b90915550612ffe905081613649565b6001600160a01b0383166000908152600f60205260408120805490919061302f9084906001600160801b0316613dff565b92506101000a8154816001600160801b0302191690836001600160801b0316021790555080600960008282546130659190613e2a565b90915550506040516001815281906001600160a01b03841690600080516020613fac8339815191529060200160405180910390a36001600160a01b0382166000908152600d602052604090205460ff16801561311257506010546001600160a01b0383166000908152600f60205260409020600101546130ee91906001600160801b0316613e42565b6001600160a01b0383166000908152600f60205260409020546001600160801b0316115b15611c51576001600160a01b0382166000818152600d6020526040808220805460ff1916905551909190600080516020613f8c833981519152908390a35050565b6000546001600160a01b0316331461317d5760405162461bcd60e51b8152600401610c1f90613d9e565b6001600160a01b0381166131e25760405162461bcd60e51b815260206004820152602660248201527f4f776e61626c653a206e6577206f776e657220697320746865207a65726f206160448201526564647265737360d01b6064820152608401610c1f565b600080546040516001600160a01b03808516939216917f8be0079c531659141344cd1fd0a4f28419497f9722a3daafe3b4186f6b6457e091a3600080546001600160a01b0319166001600160a01b0392909216919091179055565b6003546001600160a01b03166132516135ec565b6001600160a01b0316146132775760405162461bcd60e51b8152600401610c1f90613d76565b61328081613649565b6001600160a01b0383166000908152600f6020526040812060010180549091906121da9084906001600160801b0316613e81565b6003546001600160a01b03166132c86135ec565b6001600160a01b0316146132ee5760405162461bcd60e51b8152600401610c1f90613d76565b6001600160a01b0384166000908152600f6020526040902060010154600160801b90046001600160401b0316811480159061334257506001600160a01b03841660009081526008602052604090205460ff16155b1561342b576001600160a01b0384166000908152600f6020526040902060010154600160801b90046001600160401b03168110156133a4576000613387428385613720565b9050613393854261238e565b5061339e81866137d0565b5061342b565b6001600160a01b0384166000908152600f6020526040902054600160801b90046001600160801b0316156133dc5761339e848261238e565b6133e581613861565b6001600160a01b0385166000908152600f6020526040902060010180546001600160401b0392909216600160801b0267ffffffffffffffff60801b199092169190911790555b61343482613649565b6001600160a01b0385166000908152600f60205260409020805460109061346c908490600160801b90046001600160801b0316613dff565b92506101000a8154816001600160801b0302191690836001600160801b0316021790555061349983613649565b6001600160a01b0386166000908152600f6020526040902080546010906134d1908490600160801b90046001600160801b0316613e81565b92506101000a8154816001600160801b0302191690836001600160801b031602179055505050505050565b60006001600160a01b0386166135625760405162461bcd60e51b815260206004820152602560248201527f4e61746976654d6574615472616e73616374696f6e3a20494e56414c49445f5360448201526424a3a722a960d91b6064820152608401610c1f565b6001613575613570876138ca565b613947565b6040805160008152602081018083529290925260ff851690820152606081018690526080810185905260a0016020604051602081039080840390855afa1580156135c3573d6000803e3d6000fd5b505050602060405103516001600160a01b0316866001600160a01b031614905095945050505050565b60003330141561364357600080368080601f0160208091040260200160405190810160405280939291908181526020018383808284376000920191909152505050503601516001600160a01b031691506136469050565b50335b90565b6000600160801b82106136ae5760405162461bcd60e51b815260206004820152602760248201527f53616665436173743a2076616c756520646f65736e27742066697420696e20316044820152663238206269747360c81b6064820152608401610c1f565b5090565b6000806136bf8342613758565b6001600160a01b0384166000908152600f60205260409020549091506001600160801b031681106136f35750600092915050565b6001600160a01b0383166000908152600f60205260409020546114fc9082906001600160801b0316613ea9565b60008284101561372e579192915b6201518061373c8486613ea9565b6137469084613e62565b6137509190613e42565b949350505050565b6001600160a01b0382166000908152600f6020526040812060010154620151809061379390600160801b90046001600160401b031684613ea9565b6001600160a01b0385166000908152600f60205260409020546137c69190600160801b90046001600160801b0316613e62565b6114fc9190613e42565b81600c60008282546137e29190613e2a565b909155506137f1905082613649565b6001600160a01b0382166000908152600f6020526040812080549091906138229084906001600160801b0316613e81565b92506101000a8154816001600160801b0302191690836001600160801b0316021790555081600960008282546138589190613ea9565b90915550505050565b60006801000000000000000082106136ae5760405162461bcd60e51b815260206004820152602660248201527f53616665436173743a2076616c756520646f65736e27742066697420696e203660448201526534206269747360d01b6064820152608401610c1f565b6000604051806080016040528060438152602001613f49604391398051602091820120835184830151604080870151805190860120905161392a950193845260208401929092526001600160a01b03166040830152606082015260800190565b604051602081830303815290604052805190602001209050919050565b600061395260015490565b60405161190160f01b602082015260228101919091526042810183905260620161392a565b80356001600160a01b038116811461285a57600080fd5b803560ff8116811461285a57600080fd5b6000602082840312156139b0578081fd5b6114fc82613977565b600080600080600060a086880312156139d0578081fd5b6139d986613977565b94506139e760208701613977565b94979496505050506040830135926060810135926080909101359150565b600080600080600060a08688031215613a1c578081fd5b613a2586613977565b945060208601356001600160401b0380821115613a40578283fd5b818801915088601f830112613a53578283fd5b813581811115613a6557613a65613f21565b604051601f8201601f19908116603f01168101908382118183101715613a8d57613a8d613f21565b816040528281528b6020848701011115613aa5578586fd5b8260208601602083013791820160200185905250955050506040860135925060608601359150613ad76080870161398e565b90509295509295909350565b60008060408385031215613af5578182fd5b613afe83613977565b946020939093013593505050565b600080600060608486031215613b20578283fd5b613b2984613977565b95602085013595506040909401359392505050565b60008060208385031215613b50578182fd5b82356001600160401b0380821115613b66578384fd5b818501915085601f830112613b79578384fd5b813581811115613b87578485fd5b8660208260051b8501011115613b9b578485fd5b60209290920196919550909350505050565b600060208284031215613bbe578081fd5b81516114fc81613f37565b600060208284031215613bda578081fd5b5035919050565b600060208284031215613bf2578081fd5b5051919050565b60008060408385031215613c0b578182fd5b82359150613c1b60208401613977565b90509250929050565b60008060408385031215613c36578182fd5b823591506020830135613c4881613f37565b809150509250929050565b60008151808452613c6b816020860160208601613ec0565b601f01601f19169290920160200192915050565b60008251613c91818460208701613ec0565b9190910192915050565b60008351613cad818460208801613ec0565b60609390931b6bffffffffffffffffffffffff19169190920190815260140192915050565b6001600160a01b03848116825283166020820152606060408201819052600090613cfe90830184613c53565b95945050505050565b6020815260006114fc6020830184613c53565b6020808252601390820152724d7573742073657420616e206164647265737360681b604082015260600190565b602080825260159082015274426f6f6b732061726520756e62616c616e6365642160581b604082015260600190565b6020808252600e908201526d139bdd08185d5d1a1bdc9a5cd95960921b604082015260600190565b6020808252818101527f4f776e61626c653a2063616c6c6572206973206e6f7420746865206f776e6572604082015260600190565b60208082526012908201527122bc3a3932b6b2b63c902b32b93137ba32b760711b604082015260600190565b60006001600160801b03808316818516808303821115613e2157613e21613f0b565b01949350505050565b60008219821115613e3d57613e3d613f0b565b500190565b600082613e5d57634e487b7160e01b81526012600452602481fd5b500490565b6000816000190483118215151615613e7c57613e7c613f0b565b500290565b60006001600160801b0383811690831681811015613ea157613ea1613f0b565b039392505050565b600082821015613ebb57613ebb613f0b565b500390565b60005b83811015613edb578181015183820152602001613ec3565b83811115613eea576000848401525b50505050565b6000600019821415613f0457613f04613f0b565b5060010190565b634e487b7160e01b600052601160045260246000fd5b634e487b7160e01b600052604160045260246000fd5b8015158114613f4557600080fd5b5056fe4d6574615472616e73616374696f6e2875696e74323536206e6f6e63652c616464726573732066726f6d2c62797465732066756e6374696f6e5369676e6174757265295ad1503f288ebdbcbd9d9236e4660edde8dd4fe9dd79ec1965d81ac8f5414d55f48a72b323eb1510632acb8bf7237bad3cad43aa8ed56ac9b1fcd934697aa630a26469706673582212202b1d58303033c2b5f743ea7f888abf16d7001f7d9b16eab43f9ed8167f44adbb64736f6c63430008040033454950373132446f6d61696e28737472696e67206e616d652c737472696e672076657273696f6e2c6164647265737320766572696679696e67436f6e74726163742c627974657333322073616c74294f776e61626c653a2063616c6c6572206973206e6f7420746865206f776e6572",
  "linkReferences": {},
  "deployedLinkReferences": {}
}