{
  "_format": "hh-sol-artifact-1",
  "contractName": "PoolStrategy",
  "sourceName": "contracts/facets/PoolStrategy.sol",
  "abi": [
    {
      "inputs": [
        {
          "internalType": "contract IERC20",
          "name": "_token",
          "type": "address"
        }
      ],
      "name": "getStrategy",
      "outputs": [
        {
          "internalType": "contract IStrategy",
          "name": "",
          "type": "address"
        }
      ],
      "stateMutability": "view",
      "type": "function"
    },
    {
      "inputs": [
        {
          "internalType": "uint256",
          "name": "_amount",
          "type": "uint256"
        },
        {
          "internalType": "contract IERC20",
          "name": "_token",
          "type": "address"
        }
      ],
      "name": "strategyDeposit",
      "outputs": [],
      "stateMutability": "nonpayable",
      "type": "function"
    },
    {
      "inputs": [
        {
          "internalType": "contract IERC20",
          "name": "_token",
          "type": "address"
        }
      ],
      "name": "strategyRemove",
      "outputs": [],
      "stateMutability": "nonpayable",
      "type": "function"
    },
    {
      "inputs": [
        {
          "internalType": "contract IStrategy",
          "name": "_strategy",
          "type": "address"
        },
        {
          "internalType": "contract IERC20",
          "name": "_token",
          "type": "address"
        }
      ],
      "name": "strategyUpdate",
      "outputs": [],
      "stateMutability": "nonpayable",
      "type": "function"
    },
    {
      "inputs": [
        {
          "internalType": "uint256",
          "name": "_amount",
          "type": "uint256"
        },
        {
          "internalType": "contract IERC20",
          "name": "_token",
          "type": "address"
        }
      ],
      "name": "strategyWithdraw",
      "outputs": [],
      "stateMutability": "nonpayable",
      "type": "function"
    },
    {
      "inputs": [
        {
          "internalType": "contract IERC20",
          "name": "_token",
          "type": "address"
        }
      ],
      "name": "strategyWithdrawAll",
      "outputs": [],
      "stateMutability": "nonpayable",
      "type": "function"
    }
  ],
  "bytecode": "0x608060405234801561001057600080fd5b50610d31806100206000396000f3fe608060405234801561001057600080fd5b50600436106100625760003560e01c806321f75619146100675780632e3835041461007c5780637fe681611461008f5780638534d1f1146100a25780639e4e2a8d146100b5578063f8806a13146100c8575b600080fd5b61007a610075366004610b70565b6100f1565b005b61007a61008a366004610b04565b6101b5565b61007a61009d366004610b20565b610208565b61007a6100b0366004610b04565b61039b565b61007a6100c3366004610b70565b610458565b6100db6100d6366004610b04565b610535565b6040516100e89190610b94565b60405180910390f35b6000821161011a5760405162461bcd60e51b815260040161011190610ba8565b60405180910390fd5b6000610124610552565b905061012f81610591565b610138816105bd565b6011810154604051632e1a7d4d60e01b81526001600160a01b0390911690632e1a7d4d9061016a908690600401610c8d565b600060405180830381600087803b15801561018457600080fd5b505af1158015610198573d6000803e3d6000fd5b50505060028201546101ab9150846105e7565b6002909101555050565b60006101bf610552565b90506101ca81610591565b60118101546001600160a01b03166101f45760405162461bcd60e51b815260040161011190610bc8565b60110180546001600160a01b031916905550565b6000610212610552565b9050816001600160a01b0316836001600160a01b0316631f1fcd516040518163ffffffff1660e01b815260040160206040518083038186803b15801561025757600080fd5b505afa15801561026b573d6000803e3d6000fd5b505050506040513d601f19601f8201168201806040525081019061028f9190610ae8565b6001600160a01b0316146102b55760405162461bcd60e51b815260040161011190610c2f565b6102be81610591565b60118101546001600160a01b031615610376578060110160009054906101000a90046001600160a01b03166001600160a01b031663722713f76040518163ffffffff1660e01b815260040160206040518083038186803b15801561032157600080fd5b505afa158015610335573d6000803e3d6000fd5b505050506040513d601f19601f820116820180604052508101906103599190610b58565b156103765760405162461bcd60e51b815260040161011190610c6a565b60110180546001600160a01b0319166001600160a01b03939093169290921790915550565b60006103a5610552565b90506103b081610591565b6103b9816105bd565b60118101546040805163429c145b60e11b815290516000926001600160a01b03169163853828b691600480830192602092919082900301818787803b15801561040157600080fd5b505af1158015610415573d6000803e3d6000fd5b505050506040513d601f19601f820116820180604052508101906104399190610b58565b600283015490915061044b90826105e7565b8260020181905550505050565b600082116104785760405162461bcd60e51b815260040161011190610ba8565b6000610482610552565b905061048d81610591565b610496816105bd565b60028101546104a59084610648565b600282015560118101546104c6906001600160a01b038481169116856106a5565b8060110160009054906101000a90046001600160a01b03166001600160a01b031663d0e30db06040518163ffffffff1660e01b8152600401600060405180830381600087803b15801561051857600080fd5b505af115801561052c573d6000803e3d6000fd5b50505050505050565b600061053f610552565b601101546001600160a01b031692915050565b600061056461055f6106fc565b610748565b80549091506001600160a01b031661058e5760405162461bcd60e51b815260040161011190610be6565b90565b80546001600160a01b031633146105ba5760405162461bcd60e51b815260040161011190610c4d565b50565b60118101546001600160a01b03166105ba5760405162461bcd60e51b815260040161011190610c0d565b600082820183811015610641576040805162461bcd60e51b815260206004820152601b60248201527f536166654d6174683a206164646974696f6e206f766572666c6f770000000000604482015290519081900360640190fd5b9392505050565b60008282111561069f576040805162461bcd60e51b815260206004820152601e60248201527f536166654d6174683a207375627472616374696f6e206f766572666c6f770000604482015290519081900360640190fd5b50900390565b604080516001600160a01b038416602482015260448082018490528251808303909101815260649091019091526020810180516001600160e01b031663a9059cbb60e01b1790526106f790849061081b565b505050565b6000806000368080601f0160208091040260200160405190810160405280939291908181526020018383808284376000920191909152505050503601516001600160a01b031692915050565b600080604051806040016040528060168152602001753234b0b6b7b7321739b432b93637b1b5973837b7b61760511b815250836040516020018080602001836001600160a01b03168152602001828103825284818151815260200191508051906020019080838360005b838110156107ca5781810151838201526020016107b2565b50505050905090810190601f1680156107f75780820380516001836020036101000a031916815260200191505b5060408051601f198184030181529190528051602090910120979650505050505050565b6000610870826040518060400160405280602081526020017f5361666545524332303a206c6f772d6c6576656c2063616c6c206661696c6564815250856001600160a01b03166108cc9092919063ffffffff16565b8051909150156106f75780806020019051602081101561088f57600080fd5b50516106f75760405162461bcd60e51b815260040180806020018281038252602a815260200180610cd2602a913960400191505060405180910390fd5b60606108db84846000856108e3565b949350505050565b6060824710156109245760405162461bcd60e51b8152600401808060200182810382526026815260200180610cac6026913960400191505060405180910390fd5b61092d85610a3e565b61097e576040805162461bcd60e51b815260206004820152601d60248201527f416464726573733a2063616c6c20746f206e6f6e2d636f6e7472616374000000604482015290519081900360640190fd5b600080866001600160a01b031685876040518082805190602001908083835b602083106109bc5780518252601f19909201916020918201910161099d565b6001836020036101000a03801982511681845116808217855250505050505090500191505060006040518083038185875af1925050503d8060008114610a1e576040519150601f19603f3d011682016040523d82523d6000602084013e610a23565b606091505b5091509150610a33828286610a44565b979650505050505050565b3b151590565b60608315610a53575081610641565b825115610a635782518084602001fd5b8160405162461bcd60e51b81526004018080602001828103825283818151815260200191508051906020019080838360005b83811015610aad578181015183820152602001610a95565b50505050905090810190601f168015610ada5780820380516001836020036101000a031916815260200191505b509250505060405180910390fd5b600060208284031215610af9578081fd5b815161064181610c96565b600060208284031215610b15578081fd5b813561064181610c96565b60008060408385031215610b32578081fd5b8235610b3d81610c96565b91506020830135610b4d81610c96565b809150509250929050565b600060208284031215610b69578081fd5b5051919050565b60008060408385031215610b82578182fd5b823591506020830135610b4d81610c96565b6001600160a01b0391909116815260200190565b602080825260069082015265105353d5539560d21b604082015260600190565b6020808252600490820152635a45524f60e01b604082015260600190565b6020808252600d908201526c24a72b20a624a22faa27a5a2a760991b604082015260600190565b602080825260089082015267535452415445475960c01b604082015260600190565b60208082526004908201526315d0539560e21b604082015260600190565b60208082526003908201526223a7ab60e91b604082015260600190565b6020808252600990820152684e4f545f454d50545960b81b604082015260600190565b90815260200190565b6001600160a01b03811681146105ba57600080fdfe416464726573733a20696e73756666696369656e742062616c616e636520666f722063616c6c5361666545524332303a204552433230206f7065726174696f6e20646964206e6f742073756363656564a26469706673582212206badc9da9269f5f951563650977cba4bd89c05b29ead8242be91430a51b4fb4964736f6c63430007060033",
  "linkReferences": {},
  "deployedLinkReferences": {}
}