{
  "_format": "hh-sol-artifact-1",
  "contractName": "GasBank",
  "sourceName": "contracts/GasBank.sol",
  "abi": [
    {
      "inputs": [
        {
          "internalType": "contract IController",
          "name": "_controller",
          "type": "address"
        }
      ],
      "stateMutability": "nonpayable",
      "type": "constructor"
    },
    {
      "anonymous": false,
      "inputs": [
        {
          "indexed": true,
          "internalType": "address",
          "name": "account",
          "type": "address"
        },
        {
          "indexed": false,
          "internalType": "uint256",
          "name": "value",
          "type": "uint256"
        }
      ],
      "name": "Deposit",
      "type": "event"
    },
    {
      "anonymous": false,
      "inputs": [
        {
          "indexed": true,
          "internalType": "address",
          "name": "account",
          "type": "address"
        },
        {
          "indexed": true,
          "internalType": "address",
          "name": "receiver",
          "type": "address"
        },
        {
          "indexed": false,
          "internalType": "uint256",
          "name": "value",
          "type": "uint256"
        }
      ],
      "name": "Withdraw",
      "type": "event"
    },
    {
      "inputs": [],
      "name": "addressProvider",
      "outputs": [
        {
          "internalType": "contract IAddressProvider",
          "name": "",
          "type": "address"
        }
      ],
      "stateMutability": "view",
      "type": "function"
    },
    {
      "inputs": [
        {
          "internalType": "address",
          "name": "account",
          "type": "address"
        }
      ],
      "name": "balanceOf",
      "outputs": [
        {
          "internalType": "uint256",
          "name": "",
          "type": "uint256"
        }
      ],
      "stateMutability": "view",
      "type": "function"
    },
    {
      "inputs": [],
      "name": "controller",
      "outputs": [
        {
          "internalType": "contract IController",
          "name": "",
          "type": "address"
        }
      ],
      "stateMutability": "view",
      "type": "function"
    },
    {
      "inputs": [
        {
          "internalType": "address",
          "name": "account",
          "type": "address"
        }
      ],
      "name": "depositFor",
      "outputs": [],
      "stateMutability": "payable",
      "type": "function"
    },
    {
      "inputs": [
        {
          "internalType": "address",
          "name": "account",
          "type": "address"
        },
        {
          "internalType": "uint256",
          "name": "amount",
          "type": "uint256"
        }
      ],
      "name": "withdrawFrom",
      "outputs": [],
      "stateMutability": "nonpayable",
      "type": "function"
    },
    {
      "inputs": [
        {
          "internalType": "address",
          "name": "account",
          "type": "address"
        },
        {
          "internalType": "address payable",
          "name": "to",
          "type": "address"
        },
        {
          "internalType": "uint256",
          "name": "amount",
          "type": "uint256"
        }
      ],
      "name": "withdrawFrom",
      "outputs": [],
      "stateMutability": "nonpayable",
      "type": "function"
    },
    {
      "inputs": [
        {
          "internalType": "address",
          "name": "account",
          "type": "address"
        }
      ],
      "name": "withdrawUnused",
      "outputs": [],
      "stateMutability": "nonpayable",
      "type": "function"
    }
  ],
  "bytecode": "0x60c060405234801561001057600080fd5b50604051610a80380380610a8083398101604081905261002f916100cf565b806001600160a01b0316632954018c6040518163ffffffff1660e01b815260040160206040518083038186803b15801561006857600080fd5b505afa15801561007c573d6000803e3d6000fd5b505050506040513d601f19601f820116820180604052508101906100a091906100cf565b6001600160a01b0390811660a052166080526100f3565b6001600160a01b03811681146100cc57600080fd5b50565b6000602082840312156100e157600080fd5b81516100ec816100b7565b9392505050565b60805160a05161094d6101336000396000818160870152818161026401526104fd0152600081816101910152818161036401526105ec015261094d6000f3fe6080604052600436106100705760003560e01c80639555a9421161004e5780639555a9421461012c578063aa67c9191461014c578063d49cb0941461015f578063f77c47911461017f57600080fd5b80632954018c1461007557806370a08231146100c65780639470b0bd1461010a575b600080fd5b34801561008157600080fd5b506100a97f000000000000000000000000000000000000000000000000000000000000000081565b6040516001600160a01b0390911681526020015b60405180910390f35b3480156100d257600080fd5b506100fc6100e13660046107b1565b6001600160a01b031660009081526020819052604090205490565b6040519081526020016100bd565b34801561011657600080fd5b5061012a6101253660046107d5565b6101b3565b005b34801561013857600080fd5b5061012a610147366004610801565b6101c2565b61012a61015a3660046107b1565b610458565b34801561016b57600080fd5b5061012a61017a3660046107b1565b6104c6565b34801561018b57600080fd5b506100a97f000000000000000000000000000000000000000000000000000000000000000081565b6101be8283836101c2565b5050565b6001600160a01b03831660009081526020818152604091829020548251808401909352601c83527f6e6f7420656e6f7567682066756e647320746f2077697468647261770000000091830191909152908282101561023c5760405162461bcd60e51b81526004016102339190610842565b60405180910390fd5b50336001600160a01b03851614806102e6575060405163622e68cb60e01b81523360048201527f00000000000000000000000000000000000000000000000000000000000000006001600160a01b03169063622e68cb9060240160206040518083038186803b1580156102ae57600080fd5b505afa1580156102c2573d6000803e3d6000fd5b505050506040513d601f19601f820116820180604052508101906102e69190610897565b60405180604001604052806013815260200172756e617574686f72697a65642061636365737360681b815250906103305760405162461bcd60e51b81526004016102339190610842565b50336001600160a01b0385161415610446576040516394421e8960e01b81526001600160a01b0385811660048301526000917f0000000000000000000000000000000000000000000000000000000000000000909116906394421e899060240160206040518083038186803b1580156103a857600080fd5b505afa1580156103bc573d6000803e3d6000fd5b505050506040513d601f19601f820116820180604052508101906103e091906108b9565b9050806103ed84846108e8565b10156040518060400160405280601c81526020017f6e6f7420656e6f7567682066756e647320746f20776974686472617700000000815250906104435760405162461bcd60e51b81526004016102339190610842565b50505b6104528484848461068c565b50505050565b6001600160a01b038116600090815260208190526040812080543492906104809084906108ff565b90915550506040513481526001600160a01b038216907fe1fffcc4923d04b559f4d29a8bfc6cda04eb5b0d3c460751c2402c5c5cc9109c9060200160405180910390a250565b6001600160a01b0381166000818152602081905260409020549033148061057f575060405163622e68cb60e01b81523360048201527f00000000000000000000000000000000000000000000000000000000000000006001600160a01b03169063622e68cb9060240160206040518083038186803b15801561054757600080fd5b505afa15801561055b573d6000803e3d6000fd5b505050506040513d601f19601f8201168201806040525081019061057f9190610897565b60405180604001604052806013815260200172756e617574686f72697a65642061636365737360681b815250906105c95760405162461bcd60e51b81526004016102339190610842565b506040516394421e8960e01b81526001600160a01b0383811660048301526000917f0000000000000000000000000000000000000000000000000000000000000000909116906394421e899060240160206040518083038186803b15801561063057600080fd5b505afa158015610644573d6000803e3d6000fd5b505050506040513d601f19601f8201168201806040525081019061066891906108b9565b90508082111561068757610687838061068184866108e8565b8561068c565b505050565b61069682826108e8565b6001600160a01b038581166000908152602081905260408082209390935591519085169084908381818185875af1925050503d80600081146106f4576040519150601f19603f3d011682016040523d82523d6000602084013e6106f9565b606091505b50509050806040518060400160405280600f81526020016e1d1c985b9cd9995c8819985a5b1959608a1b815250906107445760405162461bcd60e51b81526004016102339190610842565b50836001600160a01b0316856001600160a01b03167f9b1bfa7fa9ee420a16e124f794c35ac9f90472acc99140eb2f6447c714cad8eb8560405161078a91815260200190565b60405180910390a35050505050565b6001600160a01b03811681146107ae57600080fd5b50565b6000602082840312156107c357600080fd5b81356107ce81610799565b9392505050565b600080604083850312156107e857600080fd5b82356107f381610799565b946020939093013593505050565b60008060006060848603121561081657600080fd5b833561082181610799565b9250602084013561083181610799565b929592945050506040919091013590565b600060208083528351808285015260005b8181101561086f57858101830151858201604001528201610853565b81811115610881576000604083870101525b50601f01601f1916929092016040019392505050565b6000602082840312156108a957600080fd5b815180151581146107ce57600080fd5b6000602082840312156108cb57600080fd5b5051919050565b634e487b7160e01b600052601160045260246000fd5b6000828210156108fa576108fa6108d2565b500390565b60008219821115610912576109126108d2565b50019056fea264697066735822122091a3f197ee3057582489c2a5af1f11f309e9c63484e222910307dfbcd6caeb3b64736f6c63430008090033",
  "linkReferences": {},
  "deployedLinkReferences": {}
}