{
  "_format": "hh-sol-artifact-1",
  "contractName": "Executor",
  "sourceName": "contracts/tests/Executor.sol",
  "abi": [
    {
      "inputs": [],
      "stateMutability": "nonpayable",
      "type": "constructor"
    },
    {
      "anonymous": false,
      "inputs": [
        {
          "indexed": true,
          "internalType": "bytes32",
          "name": "role",
          "type": "bytes32"
        },
        {
          "indexed": true,
          "internalType": "bytes32",
          "name": "previousAdminRole",
          "type": "bytes32"
        },
        {
          "indexed": true,
          "internalType": "bytes32",
          "name": "newAdminRole",
          "type": "bytes32"
        }
      ],
      "name": "RoleAdminChanged",
      "type": "event"
    },
    {
      "anonymous": false,
      "inputs": [
        {
          "indexed": true,
          "internalType": "bytes32",
          "name": "role",
          "type": "bytes32"
        },
        {
          "indexed": true,
          "internalType": "address",
          "name": "account",
          "type": "address"
        },
        {
          "indexed": true,
          "internalType": "address",
          "name": "sender",
          "type": "address"
        }
      ],
      "name": "RoleGranted",
      "type": "event"
    },
    {
      "anonymous": false,
      "inputs": [
        {
          "indexed": true,
          "internalType": "bytes32",
          "name": "role",
          "type": "bytes32"
        },
        {
          "indexed": true,
          "internalType": "address",
          "name": "account",
          "type": "address"
        },
        {
          "indexed": true,
          "internalType": "address",
          "name": "sender",
          "type": "address"
        }
      ],
      "name": "RoleRevoked",
      "type": "event"
    },
    {
      "inputs": [],
      "name": "DEFAULT_ADMIN_ROLE",
      "outputs": [
        {
          "internalType": "bytes32",
          "name": "",
          "type": "bytes32"
        }
      ],
      "stateMutability": "view",
      "type": "function"
    },
    {
      "inputs": [
        {
          "internalType": "address[]",
          "name": "targets",
          "type": "address[]"
        },
        {
          "internalType": "bytes[]",
          "name": "data",
          "type": "bytes[]"
        }
      ],
      "name": "execute",
      "outputs": [],
      "stateMutability": "nonpayable",
      "type": "function"
    },
    {
      "inputs": [
        {
          "internalType": "bytes32",
          "name": "role",
          "type": "bytes32"
        }
      ],
      "name": "getRoleAdmin",
      "outputs": [
        {
          "internalType": "bytes32",
          "name": "",
          "type": "bytes32"
        }
      ],
      "stateMutability": "view",
      "type": "function"
    },
    {
      "inputs": [
        {
          "internalType": "bytes32",
          "name": "role",
          "type": "bytes32"
        },
        {
          "internalType": "address",
          "name": "account",
          "type": "address"
        }
      ],
      "name": "grantRole",
      "outputs": [],
      "stateMutability": "nonpayable",
      "type": "function"
    },
    {
      "inputs": [
        {
          "internalType": "bytes32",
          "name": "role",
          "type": "bytes32"
        },
        {
          "internalType": "address",
          "name": "account",
          "type": "address"
        }
      ],
      "name": "hasRole",
      "outputs": [
        {
          "internalType": "bool",
          "name": "",
          "type": "bool"
        }
      ],
      "stateMutability": "view",
      "type": "function"
    },
    {
      "inputs": [
        {
          "internalType": "bytes32",
          "name": "role",
          "type": "bytes32"
        },
        {
          "internalType": "address",
          "name": "account",
          "type": "address"
        }
      ],
      "name": "renounceRole",
      "outputs": [],
      "stateMutability": "nonpayable",
      "type": "function"
    },
    {
      "inputs": [
        {
          "internalType": "bytes32",
          "name": "role",
          "type": "bytes32"
        },
        {
          "internalType": "address",
          "name": "account",
          "type": "address"
        }
      ],
      "name": "revokeRole",
      "outputs": [],
      "stateMutability": "nonpayable",
      "type": "function"
    },
    {
      "inputs": [
        {
          "internalType": "bytes4",
          "name": "interfaceId",
          "type": "bytes4"
        }
      ],
      "name": "supportsInterface",
      "outputs": [
        {
          "internalType": "bool",
          "name": "",
          "type": "bool"
        }
      ],
      "stateMutability": "view",
      "type": "function"
    }
  ],
  "bytecode": "0x608060405234801561001057600080fd5b506100246000801b3361002960201b60201c565b61019b565b610039828261003d60201b60201c565b5050565b61004d828261012960201b60201c565b61012557600160008084815260200190815260200160002060000160008373ffffffffffffffffffffffffffffffffffffffff1673ffffffffffffffffffffffffffffffffffffffff16815260200190815260200160002060006101000a81548160ff0219169083151502179055506100ca61019360201b60201c565b73ffffffffffffffffffffffffffffffffffffffff168173ffffffffffffffffffffffffffffffffffffffff16837f2f8788117e7eff1d82e926ec794901d17c78024a50270940304540a733656f0d60405160405180910390a45b5050565b600080600084815260200190815260200160002060000160008373ffffffffffffffffffffffffffffffffffffffff1673ffffffffffffffffffffffffffffffffffffffff16815260200190815260200160002060009054906101000a900460ff16905092915050565b600033905090565b61147f80620001ab6000396000f3fe608060405234801561001057600080fd5b50600436106100885760003560e01c806391d148541161005b57806391d1485414610125578063a217fddf14610155578063c8d18a4514610173578063d547741f1461018f57610088565b806301ffc9a71461008d578063248a9ca3146100bd5780632f2ff15d146100ed57806336568abe14610109575b600080fd5b6100a760048036038101906100a29190610a80565b6101ab565b6040516100b49190610ac8565b60405180910390f35b6100d760048036038101906100d29190610b19565b610225565b6040516100e49190610b55565b60405180910390f35b61010760048036038101906101029190610bce565b610244565b005b610123600480360381019061011e9190610bce565b61026d565b005b61013f600480360381019061013a9190610bce565b6102f0565b60405161014c9190610ac8565b60405180910390f35b61015d61035a565b60405161016a9190610b55565b60405180910390f35b61018d60048036038101906101889190610e95565b610361565b005b6101a960048036038101906101a49190610bce565b6104df565b005b60007f7965db0b000000000000000000000000000000000000000000000000000000007bffffffffffffffffffffffffffffffffffffffffffffffffffffffff1916827bffffffffffffffffffffffffffffffffffffffffffffffffffffffff1916148061021e575061021d82610508565b5b9050919050565b6000806000838152602001908152602001600020600101549050919050565b61024d82610225565b61025e81610259610572565b61057a565b6102688383610617565b505050565b610275610572565b73ffffffffffffffffffffffffffffffffffffffff168173ffffffffffffffffffffffffffffffffffffffff16146102e2576040517f08c379a00000000000000000000000000000000000000000000000000000000081526004016102d990610f94565b60405180910390fd5b6102ec82826106f7565b5050565b600080600084815260200190815260200160002060000160008373ffffffffffffffffffffffffffffffffffffffff1673ffffffffffffffffffffffffffffffffffffffff16815260200190815260200160002060009054906101000a900460ff16905092915050565b6000801b81565b6000801b61037681610371610572565b61057a565b60006060835186869050146103c0576040517f08c379a00000000000000000000000000000000000000000000000000000000081526004016103b790611000565b60405180910390fd5b60005b868690508110156104d6578686828181106103e1576103e0611020565b5b90506020020160208101906103f6919061104f565b73ffffffffffffffffffffffffffffffffffffffff1685828151811061041f5761041e611020565b5b602002602001015160405161043491906110f6565b6000604051808303816000865af19150503d8060008114610471576040519150601f19603f3d011682016040523d82523d6000602084013e610476565b606091505b5080935081945050508282906104c2576040517f08c379a00000000000000000000000000000000000000000000000000000000081526004016104b99190611151565b60405180910390fd5b5080806104ce906111ac565b9150506103c3565b50505050505050565b6104e882610225565b6104f9816104f4610572565b61057a565b61050383836106f7565b505050565b60007f01ffc9a7000000000000000000000000000000000000000000000000000000007bffffffffffffffffffffffffffffffffffffffffffffffffffffffff1916827bffffffffffffffffffffffffffffffffffffffffffffffffffffffff1916149050919050565b600033905090565b61058482826102f0565b610613576105a98173ffffffffffffffffffffffffffffffffffffffff1660146107d8565b6105b78360001c60206107d8565b6040516020016105c89291906112c9565b6040516020818303038152906040526040517f08c379a000000000000000000000000000000000000000000000000000000000815260040161060a9190611151565b60405180910390fd5b5050565b61062182826102f0565b6106f357600160008084815260200190815260200160002060000160008373ffffffffffffffffffffffffffffffffffffffff1673ffffffffffffffffffffffffffffffffffffffff16815260200190815260200160002060006101000a81548160ff021916908315150217905550610698610572565b73ffffffffffffffffffffffffffffffffffffffff168173ffffffffffffffffffffffffffffffffffffffff16837f2f8788117e7eff1d82e926ec794901d17c78024a50270940304540a733656f0d60405160405180910390a45b5050565b61070182826102f0565b156107d457600080600084815260200190815260200160002060000160008373ffffffffffffffffffffffffffffffffffffffff1673ffffffffffffffffffffffffffffffffffffffff16815260200190815260200160002060006101000a81548160ff021916908315150217905550610779610572565b73ffffffffffffffffffffffffffffffffffffffff168173ffffffffffffffffffffffffffffffffffffffff16837ff6391f5c32d9c69d2a47ea670b442974b53935d1edc7fd64eb21e047a839171b60405160405180910390a45b5050565b6060600060028360026107eb9190611303565b6107f5919061135d565b67ffffffffffffffff81111561080e5761080d610c84565b5b6040519080825280601f01601f1916602001820160405280156108405781602001600182028036833780820191505090505b5090507f30000000000000000000000000000000000000000000000000000000000000008160008151811061087857610877611020565b5b60200101907effffffffffffffffffffffffffffffffffffffffffffffffffffffffffffff1916908160001a9053507f7800000000000000000000000000000000000000000000000000000000000000816001815181106108dc576108db611020565b5b60200101907effffffffffffffffffffffffffffffffffffffffffffffffffffffffffffff1916908160001a9053506000600184600261091c9190611303565b610926919061135d565b90505b60018111156109c6577f3031323334353637383961626364656600000000000000000000000000000000600f86166010811061096857610967611020565b5b1a60f81b82828151811061097f5761097e611020565b5b60200101907effffffffffffffffffffffffffffffffffffffffffffffffffffffffffffff1916908160001a905350600485901c9450806109bf906113b3565b9050610929565b5060008414610a0a576040517f08c379a0000000000000000000000000000000000000000000000000000000008152600401610a0190611429565b60405180910390fd5b8091505092915050565b6000604051905090565b600080fd5b600080fd5b60007fffffffff0000000000000000000000000000000000000000000000000000000082169050919050565b610a5d81610a28565b8114610a6857600080fd5b50565b600081359050610a7a81610a54565b92915050565b600060208284031215610a9657610a95610a1e565b5b6000610aa484828501610a6b565b91505092915050565b60008115159050919050565b610ac281610aad565b82525050565b6000602082019050610add6000830184610ab9565b92915050565b6000819050919050565b610af681610ae3565b8114610b0157600080fd5b50565b600081359050610b1381610aed565b92915050565b600060208284031215610b2f57610b2e610a1e565b5b6000610b3d84828501610b04565b91505092915050565b610b4f81610ae3565b82525050565b6000602082019050610b6a6000830184610b46565b92915050565b600073ffffffffffffffffffffffffffffffffffffffff82169050919050565b6000610b9b82610b70565b9050919050565b610bab81610b90565b8114610bb657600080fd5b50565b600081359050610bc881610ba2565b92915050565b60008060408385031215610be557610be4610a1e565b5b6000610bf385828601610b04565b9250506020610c0485828601610bb9565b9150509250929050565b600080fd5b600080fd5b600080fd5b60008083601f840112610c3357610c32610c0e565b5b8235905067ffffffffffffffff811115610c5057610c4f610c13565b5b602083019150836020820283011115610c6c57610c6b610c18565b5b9250929050565b6000601f19601f8301169050919050565b7f4e487b7100000000000000000000000000000000000000000000000000000000600052604160045260246000fd5b610cbc82610c73565b810181811067ffffffffffffffff82111715610cdb57610cda610c84565b5b80604052505050565b6000610cee610a14565b9050610cfa8282610cb3565b919050565b600067ffffffffffffffff821115610d1a57610d19610c84565b5b602082029050602081019050919050565b600080fd5b600067ffffffffffffffff821115610d4b57610d4a610c84565b5b610d5482610c73565b9050602081019050919050565b82818337600083830152505050565b6000610d83610d7e84610d30565b610ce4565b905082815260208101848484011115610d9f57610d9e610d2b565b5b610daa848285610d61565b509392505050565b600082601f830112610dc757610dc6610c0e565b5b8135610dd7848260208601610d70565b91505092915050565b6000610df3610dee84610cff565b610ce4565b90508083825260208201905060208402830185811115610e1657610e15610c18565b5b835b81811015610e5d57803567ffffffffffffffff811115610e3b57610e3a610c0e565b5b808601610e488982610db2565b85526020850194505050602081019050610e18565b5050509392505050565b600082601f830112610e7c57610e7b610c0e565b5b8135610e8c848260208601610de0565b91505092915050565b600080600060408486031215610eae57610ead610a1e565b5b600084013567ffffffffffffffff811115610ecc57610ecb610a23565b5b610ed886828701610c1d565b9350935050602084013567ffffffffffffffff811115610efb57610efa610a23565b5b610f0786828701610e67565b9150509250925092565b600082825260208201905092915050565b7f416363657373436f6e74726f6c3a2063616e206f6e6c792072656e6f756e636560008201527f20726f6c657320666f722073656c660000000000000000000000000000000000602082015250565b6000610f7e602f83610f11565b9150610f8982610f22565b604082019050919050565b60006020820190508181036000830152610fad81610f71565b9050919050565b7f494e56414c49445f494e50555400000000000000000000000000000000000000600082015250565b6000610fea600d83610f11565b9150610ff582610fb4565b602082019050919050565b6000602082019050818103600083015261101981610fdd565b9050919050565b7f4e487b7100000000000000000000000000000000000000000000000000000000600052603260045260246000fd5b60006020828403121561106557611064610a1e565b5b600061107384828501610bb9565b91505092915050565b600081519050919050565b600081905092915050565b60005b838110156110b0578082015181840152602081019050611095565b838111156110bf576000848401525b50505050565b60006110d08261107c565b6110da8185611087565b93506110ea818560208601611092565b80840191505092915050565b600061110282846110c5565b915081905092915050565b600081519050919050565b60006111238261110d565b61112d8185610f11565b935061113d818560208601611092565b61114681610c73565b840191505092915050565b6000602082019050818103600083015261116b8184611118565b905092915050565b7f4e487b7100000000000000000000000000000000000000000000000000000000600052601160045260246000fd5b6000819050919050565b60006111b7826111a2565b91507fffffffffffffffffffffffffffffffffffffffffffffffffffffffffffffffff8214156111ea576111e9611173565b5b600182019050919050565b600081905092915050565b7f416363657373436f6e74726f6c3a206163636f756e7420000000000000000000600082015250565b60006112366017836111f5565b915061124182611200565b601782019050919050565b60006112578261110d565b61126181856111f5565b9350611271818560208601611092565b80840191505092915050565b7f206973206d697373696e6720726f6c6520000000000000000000000000000000600082015250565b60006112b36011836111f5565b91506112be8261127d565b601182019050919050565b60006112d482611229565b91506112e0828561124c565b91506112eb826112a6565b91506112f7828461124c565b91508190509392505050565b600061130e826111a2565b9150611319836111a2565b9250817fffffffffffffffffffffffffffffffffffffffffffffffffffffffffffffffff048311821515161561135257611351611173565b5b828202905092915050565b6000611368826111a2565b9150611373836111a2565b9250827fffffffffffffffffffffffffffffffffffffffffffffffffffffffffffffffff038211156113a8576113a7611173565b5b828201905092915050565b60006113be826111a2565b915060008214156113d2576113d1611173565b5b600182039050919050565b7f537472696e67733a20686578206c656e67746820696e73756666696369656e74600082015250565b6000611413602083610f11565b915061141e826113dd565b602082019050919050565b6000602082019050818103600083015261144281611406565b905091905056fea2646970667358221220772c2dfd0f6b53437b85250c12e937b8e4352796a3956b6b453ea4fb170f046d64736f6c63430008090033",
  "linkReferences": {},
  "deployedLinkReferences": {}
}