{
  "_format": "hh-sol-artifact-1",
  "contractName": "MockBalInvestor",
  "sourceName": "contracts/mocks/MockBalInvestor.sol",
  "abi": [
    {
      "inputs": [
        {
          "internalType": "contract IVault",
          "name": "_balancerVault",
          "type": "address"
        },
        {
          "internalType": "address",
          "name": "_bal",
          "type": "address"
        },
        {
          "internalType": "address",
          "name": "_weth",
          "type": "address"
        },
        {
          "internalType": "bytes32",
          "name": "_balETHPoolId",
          "type": "bytes32"
        }
      ],
      "stateMutability": "nonpayable",
      "type": "constructor"
    },
    {
      "inputs": [],
      "name": "BAL",
      "outputs": [
        {
          "internalType": "address",
          "name": "",
          "type": "address"
        }
      ],
      "stateMutability": "view",
      "type": "function"
    },
    {
      "inputs": [],
      "name": "BALANCER_POOL_TOKEN",
      "outputs": [
        {
          "internalType": "address",
          "name": "",
          "type": "address"
        }
      ],
      "stateMutability": "view",
      "type": "function"
    },
    {
      "inputs": [],
      "name": "BALANCER_VAULT",
      "outputs": [
        {
          "internalType": "contract IVault",
          "name": "",
          "type": "address"
        }
      ],
      "stateMutability": "view",
      "type": "function"
    },
    {
      "inputs": [],
      "name": "BAL_ETH_POOL_ID",
      "outputs": [
        {
          "internalType": "bytes32",
          "name": "",
          "type": "bytes32"
        }
      ],
      "stateMutability": "view",
      "type": "function"
    },
    {
      "inputs": [],
      "name": "WETH",
      "outputs": [
        {
          "internalType": "address",
          "name": "",
          "type": "address"
        }
      ],
      "stateMutability": "view",
      "type": "function"
    },
    {
      "inputs": [
        {
          "internalType": "uint256",
          "name": "amount",
          "type": "uint256"
        },
        {
          "internalType": "uint256",
          "name": "_minOut",
          "type": "uint256"
        }
      ],
      "name": "addBalToPool",
      "outputs": [],
      "stateMutability": "nonpayable",
      "type": "function"
    },
    {
      "inputs": [],
      "name": "approveToken",
      "outputs": [],
      "stateMutability": "nonpayable",
      "type": "function"
    },
    {
      "inputs": [],
      "name": "getBptPrice",
      "outputs": [
        {
          "internalType": "uint256",
          "name": "",
          "type": "uint256"
        }
      ],
      "stateMutability": "view",
      "type": "function"
    },
    {
      "inputs": [
        {
          "internalType": "uint256",
          "name": "_amount",
          "type": "uint256"
        },
        {
          "internalType": "uint256",
          "name": "_outputBps",
          "type": "uint256"
        }
      ],
      "name": "getMinOut",
      "outputs": [
        {
          "internalType": "uint256",
          "name": "",
          "type": "uint256"
        }
      ],
      "stateMutability": "view",
      "type": "function"
    }
  ],
  "bytecode": "0x6101206040523480156200001257600080fd5b506040516200119a3803806200119a833981016040819052620000359162000141565b838383836000846001600160a01b031663f6c00927836040518263ffffffff1660e01b81526004016200006a91815260200190565b6040805180830381865afa15801562000087573d6000803e3d6000fd5b505050506040513d601f19601f82011682018060405250810190620000ad91906200019b565b5090506001600160a01b038116620000fa5760405162461bcd60e51b815260206004820152600c60248201526b21706f6f6c4164647265737360a01b604482015260640160405180910390fd5b6001600160a01b0394851660805292841660a05290831660c052911660e0526101005250620001dd92505050565b6001600160a01b03811681146200013e57600080fd5b50565b600080600080608085870312156200015857600080fd5b8451620001658162000128565b6020860151909450620001788162000128565b60408601519093506200018b8162000128565b6060959095015193969295505050565b60008060408385031215620001af57600080fd5b8251620001bc8162000128565b602084015190925060038110620001d257600080fd5b809150509250929050565b60805160a05160c05160e05161010051610f336200026760003960008181610127015261039301526000818160e8015261063601526000818161015e015281816102b401526104ad0152600081816101ac0152818161021501528181610260015261050301526000818161018501528181610364015281816104cf01526105250152610f336000f3fe608060405234801561001057600080fd5b50600436106100a35760003560e01c806399b71d5c11610076578063ad5c46481161005b578063ad5c464814610159578063bc16384614610180578063beeadf16146101a757600080fd5b806399b71d5c146101495780639b0915a01461015157600080fd5b80631ea53816146100a857806323f15c17146100bd578063804cca0a146100e35780638f1483f314610122575b600080fd5b6100bb6100b6366004610b1d565b6101ce565b005b6100d06100cb366004610b1d565b6101dc565b6040519081526020015b60405180910390f35b61010a7f000000000000000000000000000000000000000000000000000000000000000081565b6040516001600160a01b0390911681526020016100da565b6100d07f000000000000000000000000000000000000000000000000000000000000000081565b6100bb6101ef565b6100d06101f9565b61010a7f000000000000000000000000000000000000000000000000000000000000000081565b61010a7f000000000000000000000000000000000000000000000000000000000000000081565b61010a7f000000000000000000000000000000000000000000000000000000000000000081565b6101d88282610208565b5050565b60006101e88383610453565b9392505050565b6101f76104a0565b565b600061020361054c565b905090565b61023d6001600160a01b037f0000000000000000000000000000000000000000000000000000000000000000163330856106e5565b6040805160028082526060820183526000926020830190803683370190505090507f00000000000000000000000000000000000000000000000000000000000000008160008151811061029257610292610b55565b60200260200101906001600160a01b031690816001600160a01b0316815250507f0000000000000000000000000000000000000000000000000000000000000000816001815181106102e6576102e6610b55565b6001600160a01b03929092166020928302919091018201526040805160028082526060820183526000939192909183019080368337019050509050838160008151811061033557610335610b55565b60200260200101818152505060008160018151811061035657610356610b55565b6020026020010181815250507f00000000000000000000000000000000000000000000000000000000000000006001600160a01b031663b95cac287f0000000000000000000000000000000000000000000000000000000000000000303060405180608001604052808881526020018781526020016001888b6040516020016103e193929190610b81565b6040516020818303038152906040528152602001600015158152506040518563ffffffff1660e01b815260040161041b9493929190610c7b565b600060405180830381600087803b15801561043557600080fd5b505af1158015610449573d6000803e3d6000fd5b5050505050505050565b60008061045e61054c565b90506000612710848361047988670de0b6b3a7640000610d46565b6104839190610d73565b61048d9190610d46565b6104979190610d73565b95945050505050565b6104f66001600160a01b037f0000000000000000000000000000000000000000000000000000000000000000167f0000000000000000000000000000000000000000000000000000000000000000600019610783565b6101f76001600160a01b037f0000000000000000000000000000000000000000000000000000000000000000167f0000000000000000000000000000000000000000000000000000000000000000600019610783565b604080516001808252818301909252600091829190816020015b61058b6040805160608101909152806000815260200160008152602001600081525090565b8152602001906001900390816105665790505090506001816000815181106105b5576105b5610b55565b60200260200101516000019060028111156105d2576105d2610b6b565b908160028111156105e5576105e5610b6b565b81525050610e10816000815181106105ff576105ff610b55565b6020026020010151602001818152505060008160008151811061062457610624610b55565b602002602001015160400181815250507f00000000000000000000000000000000000000000000000000000000000000006001600160a01b0316631dccd830826040518263ffffffff1660e01b81526004016106809190610d95565b600060405180830381865afa15801561069d573d6000803e3d6000fd5b505050506040513d6000823e601f3d908101601f191682016040526106c59190810190610dfe565b6000815181106106d7576106d7610b55565b602002602001015191505090565b6040516001600160a01b038085166024830152831660448201526064810182905261077d9085906323b872dd60e01b906084015b60408051601f198184030181529190526020810180517bffffffffffffffffffffffffffffffffffffffffffffffffffffffff167fffffffff00000000000000000000000000000000000000000000000000000000909316929092179091526108a9565b50505050565b8015806107fd5750604051636eb1769f60e11b81523060048201526001600160a01b03838116602483015284169063dd62ed3e90604401602060405180830381865afa1580156107d7573d6000803e3d6000fd5b505050506040513d601f19601f820116820180604052508101906107fb9190610ebc565b155b6108745760405162461bcd60e51b815260206004820152603660248201527f5361666545524332303a20617070726f76652066726f6d206e6f6e2d7a65726f60448201527f20746f206e6f6e2d7a65726f20616c6c6f77616e63650000000000000000000060648201526084015b60405180910390fd5b6040516001600160a01b0383166024820152604481018290526108a490849063095ea7b360e01b90606401610719565b505050565b60006108fe826040518060400160405280602081526020017f5361666545524332303a206c6f772d6c6576656c2063616c6c206661696c6564815250856001600160a01b031661098e9092919063ffffffff16565b8051909150156108a4578080602001905181019061091c9190610ed5565b6108a45760405162461bcd60e51b815260206004820152602a60248201527f5361666545524332303a204552433230206f7065726174696f6e20646964206e60448201527f6f74207375636365656400000000000000000000000000000000000000000000606482015260840161086b565b606061099d84846000856109a5565b949350505050565b606082471015610a1d5760405162461bcd60e51b815260206004820152602660248201527f416464726573733a20696e73756666696369656e742062616c616e636520666f60448201527f722063616c6c0000000000000000000000000000000000000000000000000000606482015260840161086b565b843b610a6b5760405162461bcd60e51b815260206004820152601d60248201527f416464726573733a2063616c6c20746f206e6f6e2d636f6e7472616374000000604482015260640161086b565b600080866001600160a01b03168587604051610a879190610ef7565b60006040518083038185875af1925050503d8060008114610ac4576040519150601f19603f3d011682016040523d82523d6000602084013e610ac9565b606091505b5091509150610ad9828286610ae4565b979650505050505050565b60608315610af35750816101e8565b825115610b035782518084602001fd5b8160405162461bcd60e51b815260040161086b9190610f13565b60008060408385031215610b3057600080fd5b50508035926020909101359150565b634e487b7160e01b600052604160045260246000fd5b634e487b7160e01b600052603260045260246000fd5b634e487b7160e01b600052602160045260246000fd5b60006060820160048610610b9757610b97610b6b565b8583526020606081850152818651808452608086019150828801935060005b81811015610bd257845183529383019391830191600101610bb6565b5050809350505050826040830152949350505050565b600081518084526020808501945080840160005b83811015610c1857815187529582019590820190600101610bfc565b509495945050505050565b60005b83811015610c3e578181015183820152602001610c26565b8381111561077d5750506000910152565b60008151808452610c67816020860160208601610c23565b601f01601f19169290920160200192915050565b848152600060206001600160a01b038087168285015280861660408501526080606085015261010084018551608080870152818151808452610120880191508583019350600092505b80831015610ce657835185168252928501926001929092019190850190610cc4565b50848801519450607f199350838782030160a0880152610d068186610be8565b94505050506040850151818584030160c0860152610d248382610c4f565b925050506060840151610d3b60e085018215159052565b509695505050505050565b6000816000190483118215151615610d6e57634e487b7160e01b600052601160045260246000fd5b500290565b600082610d9057634e487b7160e01b600052601260045260246000fd5b500490565b602080825282518282018190526000919060409081850190868401855b82811015610df1578151805160038110610dce57610dce610b6b565b855280870151878601528501518585015260609093019290850190600101610db2565b5091979650505050505050565b60006020808385031215610e1157600080fd5b825167ffffffffffffffff80821115610e2957600080fd5b818501915085601f830112610e3d57600080fd5b815181811115610e4f57610e4f610b3f565b8060051b604051601f19603f83011681018181108582111715610e7457610e74610b3f565b604052918252848201925083810185019188831115610e9257600080fd5b938501935b82851015610eb057845184529385019392850192610e97565b98975050505050505050565b600060208284031215610ece57600080fd5b5051919050565b600060208284031215610ee757600080fd5b815180151581146101e857600080fd5b60008251610f09818460208701610c23565b9190910192915050565b6020815260006101e86020830184610c4f56fea164736f6c634300080b000a",
  "linkReferences": {},
  "deployedLinkReferences": {}
}