{
  "_format": "hh-sol-artifact-1",
  "contractName": "TracerPerpetualsFactory",
  "sourceName": "contracts/TracerPerpetualsFactory.sol",
  "abi": [
    {
      "inputs": [
        {
          "internalType": "address",
          "name": "_perpsDeployer",
          "type": "address"
        },
        {
          "internalType": "address",
          "name": "_liquidationDeployer",
          "type": "address"
        },
        {
          "internalType": "address",
          "name": "_insuranceDeployer",
          "type": "address"
        },
        {
          "internalType": "address",
          "name": "_pricingDeployer",
          "type": "address"
        },
        {
          "internalType": "address",
          "name": "_governance",
          "type": "address"
        }
      ],
      "stateMutability": "nonpayable",
      "type": "constructor"
    },
    {
      "anonymous": false,
      "inputs": [
        {
          "indexed": true,
          "internalType": "address",
          "name": "previousOwner",
          "type": "address"
        },
        {
          "indexed": true,
          "internalType": "address",
          "name": "newOwner",
          "type": "address"
        }
      ],
      "name": "OwnershipTransferred",
      "type": "event"
    },
    {
      "anonymous": false,
      "inputs": [
        {
          "indexed": true,
          "internalType": "bytes32",
          "name": "marketId",
          "type": "bytes32"
        },
        {
          "indexed": true,
          "internalType": "address",
          "name": "market",
          "type": "address"
        }
      ],
      "name": "TracerDeployed",
      "type": "event"
    },
    {
      "inputs": [
        {
          "internalType": "address",
          "name": "",
          "type": "address"
        }
      ],
      "name": "daoApproved",
      "outputs": [
        {
          "internalType": "bool",
          "name": "",
          "type": "bool"
        }
      ],
      "stateMutability": "view",
      "type": "function"
    },
    {
      "inputs": [
        {
          "internalType": "bytes",
          "name": "_data",
          "type": "bytes"
        },
        {
          "internalType": "address",
          "name": "oracle",
          "type": "address"
        },
        {
          "internalType": "address",
          "name": "fastGasOracle",
          "type": "address"
        },
        {
          "internalType": "uint256",
          "name": "maxLiquidationSlippage",
          "type": "uint256"
        }
      ],
      "name": "deployTracer",
      "outputs": [],
      "stateMutability": "nonpayable",
      "type": "function"
    },
    {
      "inputs": [
        {
          "internalType": "bytes",
          "name": "_data",
          "type": "bytes"
        },
        {
          "internalType": "address",
          "name": "oracle",
          "type": "address"
        },
        {
          "internalType": "address",
          "name": "fastGasOracle",
          "type": "address"
        },
        {
          "internalType": "uint256",
          "name": "maxLiquidationSlippage",
          "type": "uint256"
        }
      ],
      "name": "deployTracerAndApprove",
      "outputs": [],
      "stateMutability": "nonpayable",
      "type": "function"
    },
    {
      "inputs": [],
      "name": "insuranceDeployer",
      "outputs": [
        {
          "internalType": "address",
          "name": "",
          "type": "address"
        }
      ],
      "stateMutability": "view",
      "type": "function"
    },
    {
      "inputs": [],
      "name": "liquidationDeployer",
      "outputs": [
        {
          "internalType": "address",
          "name": "",
          "type": "address"
        }
      ],
      "stateMutability": "view",
      "type": "function"
    },
    {
      "inputs": [],
      "name": "owner",
      "outputs": [
        {
          "internalType": "address",
          "name": "",
          "type": "address"
        }
      ],
      "stateMutability": "view",
      "type": "function"
    },
    {
      "inputs": [],
      "name": "perpsDeployer",
      "outputs": [
        {
          "internalType": "address",
          "name": "",
          "type": "address"
        }
      ],
      "stateMutability": "view",
      "type": "function"
    },
    {
      "inputs": [],
      "name": "pricingDeployer",
      "outputs": [
        {
          "internalType": "address",
          "name": "",
          "type": "address"
        }
      ],
      "stateMutability": "view",
      "type": "function"
    },
    {
      "inputs": [],
      "name": "renounceOwnership",
      "outputs": [],
      "stateMutability": "nonpayable",
      "type": "function"
    },
    {
      "inputs": [
        {
          "internalType": "address",
          "name": "market",
          "type": "address"
        },
        {
          "internalType": "bool",
          "name": "value",
          "type": "bool"
        }
      ],
      "name": "setApproved",
      "outputs": [],
      "stateMutability": "nonpayable",
      "type": "function"
    },
    {
      "inputs": [
        {
          "internalType": "address",
          "name": "newInsuranceDeployer",
          "type": "address"
        }
      ],
      "name": "setInsuranceDeployerContract",
      "outputs": [],
      "stateMutability": "nonpayable",
      "type": "function"
    },
    {
      "inputs": [
        {
          "internalType": "address",
          "name": "newLiquidationDeployer",
          "type": "address"
        }
      ],
      "name": "setLiquidationDeployerContract",
      "outputs": [],
      "stateMutability": "nonpayable",
      "type": "function"
    },
    {
      "inputs": [
        {
          "internalType": "address",
          "name": "newDeployer",
          "type": "address"
        }
      ],
      "name": "setPerpsDeployerContract",
      "outputs": [],
      "stateMutability": "nonpayable",
      "type": "function"
    },
    {
      "inputs": [
        {
          "internalType": "address",
          "name": "newPricingDeployer",
          "type": "address"
        }
      ],
      "name": "setPricingDeployerContract",
      "outputs": [],
      "stateMutability": "nonpayable",
      "type": "function"
    },
    {
      "inputs": [],
      "name": "tracerCounter",
      "outputs": [
        {
          "internalType": "uint256",
          "name": "",
          "type": "uint256"
        }
      ],
      "stateMutability": "view",
      "type": "function"
    },
    {
      "inputs": [
        {
          "internalType": "uint256",
          "name": "",
          "type": "uint256"
        }
      ],
      "name": "tracersByIndex",
      "outputs": [
        {
          "internalType": "address",
          "name": "",
          "type": "address"
        }
      ],
      "stateMutability": "view",
      "type": "function"
    },
    {
      "inputs": [
        {
          "internalType": "address",
          "name": "newOwner",
          "type": "address"
        }
      ],
      "name": "transferOwnership",
      "outputs": [],
      "stateMutability": "nonpayable",
      "type": "function"
    },
    {
      "inputs": [
        {
          "internalType": "address",
          "name": "",
          "type": "address"
        }
      ],
      "name": "validTracers",
      "outputs": [
        {
          "internalType": "bool",
          "name": "",
          "type": "bool"
        }
      ],
      "stateMutability": "view",
      "type": "function"
    }
  ],
  "bytecode": "0x60806040523480156200001157600080fd5b50604051620013a3380380620013a38339810160408190526200003491620002f0565b62000048620000426200008a565b6200008e565b6200005385620000de565b6200005e846200013c565b620000698362000191565b6200007482620001e6565b6200007f816200023b565b505050505062000404565b3390565b600080546001600160a01b038381166001600160a01b0319831681178455604051919092169283917f8be0079c531659141344cd1fd0a4f28419497f9722a3daafe3b4186f6b6457e09190a35050565b620000e86200027c565b6001600160a01b0381166200011a5760405162461bcd60e51b81526004016200011190620003da565b60405180910390fd5b600280546001600160a01b0319166001600160a01b0392909216919091179055565b620001466200027c565b6001600160a01b0381166200016f5760405162461bcd60e51b81526004016200011190620003da565b600380546001600160a01b0319166001600160a01b0392909216919091179055565b6200019b6200027c565b6001600160a01b038116620001c45760405162461bcd60e51b81526004016200011190620003da565b600480546001600160a01b0319166001600160a01b0392909216919091179055565b620001f06200027c565b6001600160a01b038116620002195760405162461bcd60e51b81526004016200011190620003da565b600580546001600160a01b0319166001600160a01b0392909216919091179055565b620002456200027c565b6001600160a01b0381166200026e5760405162461bcd60e51b815260040162000111906200035f565b62000279816200008e565b50565b620002866200008a565b6001600160a01b031662000299620002c4565b6001600160a01b031614620002c25760405162461bcd60e51b81526004016200011190620003a5565b565b6000546001600160a01b031690565b80516001600160a01b0381168114620002eb57600080fd5b919050565b600080600080600060a0868803121562000308578081fd5b6200031386620002d3565b94506200032360208701620002d3565b93506200033360408701620002d3565b92506200034360608701620002d3565b91506200035360808701620002d3565b90509295509295909350565b60208082526026908201527f4f776e61626c653a206e6577206f776e657220697320746865207a65726f206160408201526564647265737360d01b606082015260800190565b6020808252818101527f4f776e61626c653a2063616c6c6572206973206e6f7420746865206f776e6572604082015260600190565b60208082526010908201526f30b2323932b9b99418149033b4bb32b760811b604082015260600190565b610f8f80620004146000396000f3fe608060405234801561001057600080fd5b50600436106101365760003560e01c806385af1634116100b2578063affb870411610081578063c92384fe11610066578063c92384fe14610248578063c9875bc71461025b578063f2fde38b1461026357610136565b8063affb87041461022d578063b3ccb8b01461024057610136565b806385af1634146101ea5780638da5cb5b146101fd57806393886e9e14610205578063a4ced4241461022557610136565b80635d726992116101095780637160b87c116100ee5780637160b87c146101af5780637397ca84146101c457806384cfb680146101d757610136565b80635d72699214610194578063715018a6146101a757610136565b80630fd8f1cd1461013b57806316543d641461015057806323a6b2b114610163578063456eb01914610176575b600080fd5b61014e610149366004610c15565b610276565b005b61014e61015e366004610ca8565b6102cf565b61014e610171366004610c15565b6102e5565b61017e610335565b60405161018b9190610efb565b60405180910390f35b61014e6101a2366004610c15565b61033b565b61014e61038b565b6101b761039f565b60405161018b9190610d57565b61014e6101d2366004610ca8565b6103ae565b61014e6101e5366004610c54565b6103d6565b6101b76101f8366004610d3f565b6104b7565b6101b76104d2565b610218610213366004610c15565b6104e1565b60405161018b9190610dc1565b6101b76104f6565b61014e61023b366004610c15565b610505565b6101b7610555565b610218610256366004610c15565b610564565b6101b7610579565b61014e610271366004610c15565b610588565b61027e6105c2565b6001600160a01b0381166102ad5760405162461bcd60e51b81526004016102a490610e8d565b60405180910390fd5b600580546001600160a01b0319166001600160a01b0392909216919091179055565b6102dd858533868686610601565b505050505050565b6102ed6105c2565b6001600160a01b0381166103135760405162461bcd60e51b81526004016102a490610e8d565b600280546001600160a01b0319166001600160a01b0392909216919091179055565b60015481565b6103436105c2565b6001600160a01b0381166103695760405162461bcd60e51b81526004016102a490610e8d565b600480546001600160a01b0319166001600160a01b0392909216919091179055565b6103936105c2565b61039d6000610bc1565b565b6002546001600160a01b031681565b6103b66105c2565b60006103cd86866103c56104d2565b878787610601565b90506102dd8160015b6103de6105c2565b801561048c576103ec6104d2565b6001600160a01b0316826001600160a01b0316638da5cb5b6040518163ffffffff1660e01b815260040160206040518083038186803b15801561042e57600080fd5b505afa158015610442573d6000803e3d6000fd5b505050506040513d601f19601f820116820180604052508101906104669190610c38565b6001600160a01b03161461048c5760405162461bcd60e51b81526004016102a490610ec4565b6001600160a01b03919091166000908152600860205260409020805460ff1916911515919091179055565b6006602052600090815260409020546001600160a01b031681565b6000546001600160a01b031690565b60086020526000908152604090205460ff1681565b6003546001600160a01b031681565b61050d6105c2565b6001600160a01b0381166105335760405162461bcd60e51b81526004016102a490610e8d565b600380546001600160a01b0319166001600160a01b0392909216919091179055565b6004546001600160a01b031681565b60076020526000908152604090205460ff1681565b6005546001600160a01b031681565b6105906105c2565b6001600160a01b0381166105b65760405162461bcd60e51b81526004016102a490610dfb565b6105bf81610bc1565b50565b6105ca610c11565b6001600160a01b03166105db6104d2565b6001600160a01b03161461039d5760405162461bcd60e51b81526004016102a490610e58565b6002546040517e77436000000000000000000000000000000000000000000000000000000000815260009182916001600160a01b0390911690627743609061064f908b908b90600401610dcc565b602060405180830381600087803b15801561066957600080fd5b505af115801561067d573d6000803e3d6000fd5b505050506040513d601f19601f820116820180604052508101906106a19190610c38565b6001600160a01b0381166000818152600760209081526040808320805460ff19166001908117909155805484526006909252822080546001600160a01b0319169093179092558154929350839291906106f983610f04565b9091555050600480546040517f4c96a3890000000000000000000000000000000000000000000000000000000081526000926001600160a01b0390921691634c96a3899161074991879101610d57565b602060405180830381600087803b15801561076357600080fd5b505af1158015610777573d6000803e3d6000fd5b505050506040513d601f19601f8201168201806040525081019061079b9190610c38565b6005546040517fd9181cd30000000000000000000000000000000000000000000000000000000081529192506000916001600160a01b039091169063d9181cd3906107ee90879086908d90600401610d6b565b602060405180830381600087803b15801561080857600080fd5b505af115801561081c573d6000803e3d6000fd5b505050506040513d601f19601f820116820180604052508101906108409190610c38565b6003546040517ff68ff6ed0000000000000000000000000000000000000000000000000000000081529192506000916001600160a01b039091169063f68ff6ed90610897908590899088908e908e90600401610d8e565b602060405180830381600087803b1580156108b157600080fd5b505af11580156108c5573d6000803e3d6000fd5b505050506040513d601f19601f820116820180604052508101906108e99190610c38565b6040517fdf3146010000000000000000000000000000000000000000000000000000000081529091506001600160a01b0385169063df31460190610931908690600401610d57565b600060405180830381600087803b15801561094b57600080fd5b505af115801561095f573d6000803e3d6000fd5b50506040517fc08afe2a0000000000000000000000000000000000000000000000000000000081526001600160a01b038716925063c08afe2a91506109a8908590600401610d57565b600060405180830381600087803b1580156109c257600080fd5b505af11580156109d6573d6000803e3d6000fd5b50506040517f3b323e600000000000000000000000000000000000000000000000000000000081526001600160a01b0387169250633b323e609150610a1f908490600401610d57565b600060405180830381600087803b158015610a3957600080fd5b505af1158015610a4d573d6000803e3d6000fd5b505060405163f2fde38b60e01b81526001600160a01b038716925063f2fde38b9150610a7d908d90600401610d57565b600060405180830381600087803b158015610a9757600080fd5b505af1158015610aab573d6000803e3d6000fd5b505060405163f2fde38b60e01b81526001600160a01b038416925063f2fde38b9150610adb908d90600401610d57565b600060405180830381600087803b158015610af557600080fd5b505af1158015610b09573d6000803e3d6000fd5b50505050836001600160a01b0316846001600160a01b0316636ed71ede6040518163ffffffff1660e01b815260040160206040518083038186803b158015610b5057600080fd5b505afa158015610b64573d6000803e3d6000fd5b505050506040513d601f19601f82011682018060405250810190610b889190610c90565b6040517fe5f811083af54e303f01462a5924909465bef955a06892952695b6a26ee0e37c90600090a350929a9950505050505050505050565b600080546001600160a01b038381166001600160a01b0319831681178455604051919092169283917f8be0079c531659141344cd1fd0a4f28419497f9722a3daafe3b4186f6b6457e09190a35050565b3390565b600060208284031215610c26578081fd5b8135610c3181610f44565b9392505050565b600060208284031215610c49578081fd5b8151610c3181610f44565b60008060408385031215610c66578081fd5b8235610c7181610f44565b915060208301358015158114610c85578182fd5b809150509250929050565b600060208284031215610ca1578081fd5b5051919050565b600080600080600060808688031215610cbf578081fd5b853567ffffffffffffffff80821115610cd6578283fd5b818801915088601f830112610ce9578283fd5b813581811115610cf7578384fd5b896020828501011115610d08578384fd5b60209283019750955050860135610d1e81610f44565b92506040860135610d2e81610f44565b949793965091946060013592915050565b600060208284031215610d50578081fd5b5035919050565b6001600160a01b0391909116815260200190565b6001600160a01b0393841681529183166020830152909116604082015260600190565b6001600160a01b039586168152938516602085015291841660408401529092166060820152608081019190915260a00190565b901515815260200190565b60006020825282602083015282846040840137818301604090810191909152601f909201601f19160101919050565b60208082526026908201527f4f776e61626c653a206e6577206f776e657220697320746865207a65726f206160408201527f6464726573730000000000000000000000000000000000000000000000000000606082015260800190565b6020808252818101527f4f776e61626c653a2063616c6c6572206973206e6f7420746865206f776e6572604082015260600190565b60208082526010908201527f6164647265737328302920676976656e00000000000000000000000000000000604082015260600190565b60208082526012908201527f5446433a204f776e6572206e6f742044414f0000000000000000000000000000604082015260600190565b90815260200190565b6000600019821415610f3d577f4e487b710000000000000000000000000000000000000000000000000000000081526011600452602481fd5b5060010190565b6001600160a01b03811681146105bf57600080fdfea2646970667358221220005e49dc1fddb2f5682fd2fc1011ccf7fdad12416130c318cf028ed4fe33f2c164736f6c63430008000033",
  "linkReferences": {},
  "deployedLinkReferences": {}
}