{
  "_format": "hh-sol-artifact-1",
  "contractName": "Balances",
  "sourceName": "contracts/lib/LibBalances.sol",
  "abi": [
    {
      "inputs": [],
      "name": "MAX_DECIMALS",
      "outputs": [
        {
          "internalType": "uint256",
          "name": "",
          "type": "uint256"
        }
      ],
      "stateMutability": "view",
      "type": "function"
    }
  ],
  "bytecode": "0x6096610038600b82828239805160001a607314602b57634e487b7160e01b600052600060045260246000fd5b30600052607381538281f3fe730000000000000000000000000000000000000000301460806040526004361060335760003560e01c80630417cf8e146038575b600080fd5b603e6052565b604051604991906057565b60405180910390f35b601281565b9081526020019056fea2646970667358221220e2feae85e23d78ec9be454447af83180eebef4b27361b71f270ac9435de7259c64736f6c63430008000033",
  "linkReferences": {},
  "deployedLinkReferences": {}
}