{
  "_format": "hh-sol-artifact-1",
  "contractName": "MockMinter",
  "sourceName": "contracts/testing/Curve/MockMinter.sol",
  "abi": [
    {
      "inputs": [
        {
          "internalType": "address",
          "name": "_token",
          "type": "address"
        }
      ],
      "stateMutability": "nonpayable",
      "type": "constructor"
    },
    {
      "inputs": [
        {
          "internalType": "address",
          "name": "",
          "type": "address"
        }
      ],
      "name": "mint",
      "outputs": [],
      "stateMutability": "nonpayable",
      "type": "function"
    },
    {
      "inputs": [
        {
          "internalType": "uint256",
          "name": "mintAmount_",
          "type": "uint256"
        }
      ],
      "name": "setMintAmount",
      "outputs": [],
      "stateMutability": "nonpayable",
      "type": "function"
    },
    {
      "inputs": [],
      "name": "token",
      "outputs": [
        {
          "internalType": "address",
          "name": "",
          "type": "address"
        }
      ],
      "stateMutability": "view",
      "type": "function"
    }
  ],
  "bytecode": "0x608060405234801561001057600080fd5b5060405161025d38038061025d83398101604081905261002f91610054565b600080546001600160a01b0319166001600160a01b0392909216919091179055610084565b60006020828403121561006657600080fd5b81516001600160a01b038116811461007d57600080fd5b9392505050565b6101ca806100936000396000f3fe608060405234801561001057600080fd5b50600436106100415760003560e01c80636a62784214610046578063c7cd997f1461005b578063fc0c546a1461006e575b600080fd5b610059610054366004610129565b61009d565b005b610059610069366004610159565b600155565b600054610081906001600160a01b031681565b6040516001600160a01b03909116815260200160405180910390f35b60005460015460405163da1919b360e01b815233600482015260248101919091526001600160a01b039091169063da1919b390604401602060405180830381600087803b1580156100ed57600080fd5b505af1158015610101573d6000803e3d6000fd5b505050506040513d601f19601f820116820180604052508101906101259190610172565b5050565b60006020828403121561013b57600080fd5b81356001600160a01b038116811461015257600080fd5b9392505050565b60006020828403121561016b57600080fd5b5035919050565b60006020828403121561018457600080fd5b8151801515811461015257600080fdfea26469706673582212202a3fa2d1d8d5e537ac060b5bd66ce1a28ae16c7b0b5a84644d96e1c86e84308a64736f6c63430008090033",
  "linkReferences": {},
  "deployedLinkReferences": {}
}