{
  "_format": "hh-sol-artifact-1",
  "contractName": "MockEthPool",
  "sourceName": "contracts/testing/MockEthPool.sol",
  "abi": [
    {
      "inputs": [
        {
          "internalType": "contract IController",
          "name": "_controller",
          "type": "address"
        }
      ],
      "stateMutability": "nonpayable",
      "type": "constructor"
    },
    {
      "anonymous": false,
      "inputs": [
        {
          "indexed": true,
          "internalType": "bytes32",
          "name": "key",
          "type": "bytes32"
        },
        {
          "indexed": false,
          "internalType": "address",
          "name": "value",
          "type": "address"
        },
        {
          "indexed": false,
          "internalType": "uint256",
          "name": "delay",
          "type": "uint256"
        }
      ],
      "name": "ConfigPreparedAddress",
      "type": "event"
    },
    {
      "anonymous": false,
      "inputs": [
        {
          "indexed": true,
          "internalType": "bytes32",
          "name": "key",
          "type": "bytes32"
        },
        {
          "indexed": false,
          "internalType": "uint256",
          "name": "value",
          "type": "uint256"
        },
        {
          "indexed": false,
          "internalType": "uint256",
          "name": "delay",
          "type": "uint256"
        }
      ],
      "name": "ConfigPreparedNumber",
      "type": "event"
    },
    {
      "anonymous": false,
      "inputs": [
        {
          "indexed": true,
          "internalType": "bytes32",
          "name": "key",
          "type": "bytes32"
        }
      ],
      "name": "ConfigReset",
      "type": "event"
    },
    {
      "anonymous": false,
      "inputs": [
        {
          "indexed": true,
          "internalType": "bytes32",
          "name": "key",
          "type": "bytes32"
        },
        {
          "indexed": false,
          "internalType": "address",
          "name": "oldValue",
          "type": "address"
        },
        {
          "indexed": false,
          "internalType": "address",
          "name": "newValue",
          "type": "address"
        }
      ],
      "name": "ConfigUpdatedAddress",
      "type": "event"
    },
    {
      "anonymous": false,
      "inputs": [
        {
          "indexed": true,
          "internalType": "bytes32",
          "name": "key",
          "type": "bytes32"
        },
        {
          "indexed": false,
          "internalType": "uint256",
          "name": "oldValue",
          "type": "uint256"
        },
        {
          "indexed": false,
          "internalType": "uint256",
          "name": "newValue",
          "type": "uint256"
        }
      ],
      "name": "ConfigUpdatedNumber",
      "type": "event"
    },
    {
      "anonymous": false,
      "inputs": [
        {
          "indexed": true,
          "internalType": "address",
          "name": "minter",
          "type": "address"
        },
        {
          "indexed": false,
          "internalType": "uint256",
          "name": "depositAmount",
          "type": "uint256"
        },
        {
          "indexed": false,
          "internalType": "uint256",
          "name": "mintedLpTokens",
          "type": "uint256"
        }
      ],
      "name": "Deposit",
      "type": "event"
    },
    {
      "anonymous": false,
      "inputs": [
        {
          "indexed": true,
          "internalType": "address",
          "name": "minter",
          "type": "address"
        },
        {
          "indexed": true,
          "internalType": "address",
          "name": "mintee",
          "type": "address"
        },
        {
          "indexed": false,
          "internalType": "uint256",
          "name": "depositAmount",
          "type": "uint256"
        },
        {
          "indexed": false,
          "internalType": "uint256",
          "name": "mintedLpTokens",
          "type": "uint256"
        }
      ],
      "name": "DepositFor",
      "type": "event"
    },
    {
      "anonymous": false,
      "inputs": [
        {
          "indexed": true,
          "internalType": "address",
          "name": "lpToken",
          "type": "address"
        }
      ],
      "name": "LpTokenSet",
      "type": "event"
    },
    {
      "anonymous": false,
      "inputs": [
        {
          "indexed": true,
          "internalType": "address",
          "name": "redeemer",
          "type": "address"
        },
        {
          "indexed": false,
          "internalType": "uint256",
          "name": "redeemAmount",
          "type": "uint256"
        },
        {
          "indexed": false,
          "internalType": "uint256",
          "name": "redeemTokens",
          "type": "uint256"
        }
      ],
      "name": "Redeem",
      "type": "event"
    },
    {
      "anonymous": false,
      "inputs": [
        {
          "indexed": true,
          "internalType": "address",
          "name": "stakerVault",
          "type": "address"
        }
      ],
      "name": "StakerVaultSet",
      "type": "event"
    },
    {
      "inputs": [],
      "name": "addressProvider",
      "outputs": [
        {
          "internalType": "contract IAddressProvider",
          "name": "",
          "type": "address"
        }
      ],
      "stateMutability": "view",
      "type": "function"
    },
    {
      "inputs": [
        {
          "internalType": "address",
          "name": "account",
          "type": "address"
        },
        {
          "internalType": "uint256",
          "name": "underlyingAmount",
          "type": "uint256"
        }
      ],
      "name": "calcRedeem",
      "outputs": [
        {
          "internalType": "uint256",
          "name": "",
          "type": "uint256"
        }
      ],
      "stateMutability": "view",
      "type": "function"
    },
    {
      "inputs": [],
      "name": "controller",
      "outputs": [
        {
          "internalType": "contract IController",
          "name": "",
          "type": "address"
        }
      ],
      "stateMutability": "view",
      "type": "function"
    },
    {
      "inputs": [
        {
          "internalType": "bytes32",
          "name": "",
          "type": "bytes32"
        }
      ],
      "name": "currentAddresses",
      "outputs": [
        {
          "internalType": "address",
          "name": "",
          "type": "address"
        }
      ],
      "stateMutability": "view",
      "type": "function"
    },
    {
      "inputs": [],
      "name": "currentTime",
      "outputs": [
        {
          "internalType": "uint256",
          "name": "",
          "type": "uint256"
        }
      ],
      "stateMutability": "view",
      "type": "function"
    },
    {
      "inputs": [
        {
          "internalType": "bytes32",
          "name": "",
          "type": "bytes32"
        }
      ],
      "name": "currentUInts256",
      "outputs": [
        {
          "internalType": "uint256",
          "name": "",
          "type": "uint256"
        }
      ],
      "stateMutability": "view",
      "type": "function"
    },
    {
      "inputs": [
        {
          "internalType": "bytes32",
          "name": "",
          "type": "bytes32"
        }
      ],
      "name": "deadlines",
      "outputs": [
        {
          "internalType": "uint256",
          "name": "",
          "type": "uint256"
        }
      ],
      "stateMutability": "view",
      "type": "function"
    },
    {
      "inputs": [
        {
          "internalType": "uint256",
          "name": "depositAmount",
          "type": "uint256"
        }
      ],
      "name": "deposit",
      "outputs": [
        {
          "internalType": "uint256",
          "name": "",
          "type": "uint256"
        }
      ],
      "stateMutability": "payable",
      "type": "function"
    },
    {
      "inputs": [
        {
          "internalType": "uint256",
          "name": "depositAmount",
          "type": "uint256"
        },
        {
          "internalType": "uint256",
          "name": "minTokenAmount",
          "type": "uint256"
        }
      ],
      "name": "deposit",
      "outputs": [
        {
          "internalType": "uint256",
          "name": "",
          "type": "uint256"
        }
      ],
      "stateMutability": "payable",
      "type": "function"
    },
    {
      "inputs": [
        {
          "internalType": "uint256",
          "name": "depositAmount",
          "type": "uint256"
        },
        {
          "internalType": "uint256",
          "name": "minTokenAmount",
          "type": "uint256"
        }
      ],
      "name": "depositAndStake",
      "outputs": [
        {
          "internalType": "uint256",
          "name": "",
          "type": "uint256"
        }
      ],
      "stateMutability": "payable",
      "type": "function"
    },
    {
      "inputs": [],
      "name": "depositCap",
      "outputs": [
        {
          "internalType": "uint256",
          "name": "",
          "type": "uint256"
        }
      ],
      "stateMutability": "view",
      "type": "function"
    },
    {
      "inputs": [
        {
          "internalType": "address",
          "name": "account",
          "type": "address"
        },
        {
          "internalType": "uint256",
          "name": "depositAmount",
          "type": "uint256"
        }
      ],
      "name": "depositFor",
      "outputs": [
        {
          "internalType": "uint256",
          "name": "",
          "type": "uint256"
        }
      ],
      "stateMutability": "payable",
      "type": "function"
    },
    {
      "inputs": [
        {
          "internalType": "address",
          "name": "account",
          "type": "address"
        },
        {
          "internalType": "uint256",
          "name": "depositAmount",
          "type": "uint256"
        },
        {
          "internalType": "uint256",
          "name": "minTokenAmount",
          "type": "uint256"
        }
      ],
      "name": "depositFor",
      "outputs": [
        {
          "internalType": "uint256",
          "name": "",
          "type": "uint256"
        }
      ],
      "stateMutability": "payable",
      "type": "function"
    },
    {
      "inputs": [],
      "name": "exchangeRate",
      "outputs": [
        {
          "internalType": "uint256",
          "name": "",
          "type": "uint256"
        }
      ],
      "stateMutability": "view",
      "type": "function"
    },
    {
      "inputs": [],
      "name": "executeNewMaxWithdrawalFee",
      "outputs": [
        {
          "internalType": "uint256",
          "name": "",
          "type": "uint256"
        }
      ],
      "stateMutability": "nonpayable",
      "type": "function"
    },
    {
      "inputs": [],
      "name": "executeNewMinWithdrawalFee",
      "outputs": [
        {
          "internalType": "uint256",
          "name": "",
          "type": "uint256"
        }
      ],
      "stateMutability": "nonpayable",
      "type": "function"
    },
    {
      "inputs": [],
      "name": "executeNewRequiredReserves",
      "outputs": [
        {
          "internalType": "uint256",
          "name": "",
          "type": "uint256"
        }
      ],
      "stateMutability": "nonpayable",
      "type": "function"
    },
    {
      "inputs": [],
      "name": "executeNewReserveDeviation",
      "outputs": [
        {
          "internalType": "uint256",
          "name": "",
          "type": "uint256"
        }
      ],
      "stateMutability": "nonpayable",
      "type": "function"
    },
    {
      "inputs": [],
      "name": "executeNewVault",
      "outputs": [
        {
          "internalType": "address",
          "name": "",
          "type": "address"
        }
      ],
      "stateMutability": "nonpayable",
      "type": "function"
    },
    {
      "inputs": [],
      "name": "executeNewWithdrawalFeeDecreasePeriod",
      "outputs": [
        {
          "internalType": "uint256",
          "name": "",
          "type": "uint256"
        }
      ],
      "stateMutability": "nonpayable",
      "type": "function"
    },
    {
      "inputs": [],
      "name": "getLpToken",
      "outputs": [
        {
          "internalType": "address",
          "name": "",
          "type": "address"
        }
      ],
      "stateMutability": "view",
      "type": "function"
    },
    {
      "inputs": [],
      "name": "getMaxReserveDeviationRatio",
      "outputs": [
        {
          "internalType": "uint256",
          "name": "",
          "type": "uint256"
        }
      ],
      "stateMutability": "view",
      "type": "function"
    },
    {
      "inputs": [],
      "name": "getMaxWithdrawalFee",
      "outputs": [
        {
          "internalType": "uint256",
          "name": "",
          "type": "uint256"
        }
      ],
      "stateMutability": "view",
      "type": "function"
    },
    {
      "inputs": [],
      "name": "getMinWithdrawalFee",
      "outputs": [
        {
          "internalType": "uint256",
          "name": "",
          "type": "uint256"
        }
      ],
      "stateMutability": "view",
      "type": "function"
    },
    {
      "inputs": [
        {
          "internalType": "uint256",
          "name": "timeToWait",
          "type": "uint256"
        },
        {
          "internalType": "uint256",
          "name": "lastActionTimestamp",
          "type": "uint256"
        },
        {
          "internalType": "uint256",
          "name": "feeRatio",
          "type": "uint256"
        }
      ],
      "name": "getNewCurrentFees",
      "outputs": [
        {
          "internalType": "uint256",
          "name": "",
          "type": "uint256"
        }
      ],
      "stateMutability": "view",
      "type": "function"
    },
    {
      "inputs": [],
      "name": "getRequiredReserveRatio",
      "outputs": [
        {
          "internalType": "uint256",
          "name": "",
          "type": "uint256"
        }
      ],
      "stateMutability": "view",
      "type": "function"
    },
    {
      "inputs": [],
      "name": "getUnderlying",
      "outputs": [
        {
          "internalType": "address",
          "name": "",
          "type": "address"
        }
      ],
      "stateMutability": "pure",
      "type": "function"
    },
    {
      "inputs": [],
      "name": "getVault",
      "outputs": [
        {
          "internalType": "contract IVault",
          "name": "",
          "type": "address"
        }
      ],
      "stateMutability": "view",
      "type": "function"
    },
    {
      "inputs": [
        {
          "internalType": "address",
          "name": "account",
          "type": "address"
        },
        {
          "internalType": "uint256",
          "name": "amount",
          "type": "uint256"
        }
      ],
      "name": "getWithdrawalFee",
      "outputs": [
        {
          "internalType": "uint256",
          "name": "",
          "type": "uint256"
        }
      ],
      "stateMutability": "view",
      "type": "function"
    },
    {
      "inputs": [],
      "name": "getWithdrawalFeeDecreasePeriod",
      "outputs": [
        {
          "internalType": "uint256",
          "name": "",
          "type": "uint256"
        }
      ],
      "stateMutability": "view",
      "type": "function"
    },
    {
      "inputs": [
        {
          "internalType": "address",
          "name": "from",
          "type": "address"
        },
        {
          "internalType": "address",
          "name": "to",
          "type": "address"
        },
        {
          "internalType": "uint256",
          "name": "amount",
          "type": "uint256"
        }
      ],
      "name": "handleLpTokenTransfer",
      "outputs": [],
      "stateMutability": "nonpayable",
      "type": "function"
    },
    {
      "inputs": [
        {
          "internalType": "string",
          "name": "name_",
          "type": "string"
        },
        {
          "internalType": "uint256",
          "name": "depositCap_",
          "type": "uint256"
        },
        {
          "internalType": "address",
          "name": "vault_",
          "type": "address"
        }
      ],
      "name": "initialize",
      "outputs": [
        {
          "internalType": "bool",
          "name": "",
          "type": "bool"
        }
      ],
      "stateMutability": "nonpayable",
      "type": "function"
    },
    {
      "inputs": [],
      "name": "isCapped",
      "outputs": [
        {
          "internalType": "bool",
          "name": "",
          "type": "bool"
        }
      ],
      "stateMutability": "view",
      "type": "function"
    },
    {
      "inputs": [],
      "name": "isPaused",
      "outputs": [
        {
          "internalType": "bool",
          "name": "",
          "type": "bool"
        }
      ],
      "stateMutability": "view",
      "type": "function"
    },
    {
      "inputs": [],
      "name": "lpToken",
      "outputs": [
        {
          "internalType": "contract ILpToken",
          "name": "",
          "type": "address"
        }
      ],
      "stateMutability": "view",
      "type": "function"
    },
    {
      "inputs": [],
      "name": "name",
      "outputs": [
        {
          "internalType": "string",
          "name": "",
          "type": "string"
        }
      ],
      "stateMutability": "view",
      "type": "function"
    },
    {
      "inputs": [],
      "name": "pause",
      "outputs": [
        {
          "internalType": "bool",
          "name": "",
          "type": "bool"
        }
      ],
      "stateMutability": "nonpayable",
      "type": "function"
    },
    {
      "inputs": [
        {
          "internalType": "bytes32",
          "name": "",
          "type": "bytes32"
        }
      ],
      "name": "pendingAddresses",
      "outputs": [
        {
          "internalType": "address",
          "name": "",
          "type": "address"
        }
      ],
      "stateMutability": "view",
      "type": "function"
    },
    {
      "inputs": [
        {
          "internalType": "bytes32",
          "name": "",
          "type": "bytes32"
        }
      ],
      "name": "pendingUInts256",
      "outputs": [
        {
          "internalType": "uint256",
          "name": "",
          "type": "uint256"
        }
      ],
      "stateMutability": "view",
      "type": "function"
    },
    {
      "inputs": [
        {
          "internalType": "uint256",
          "name": "newFee",
          "type": "uint256"
        }
      ],
      "name": "prepareNewMaxWithdrawalFee",
      "outputs": [
        {
          "internalType": "bool",
          "name": "",
          "type": "bool"
        }
      ],
      "stateMutability": "nonpayable",
      "type": "function"
    },
    {
      "inputs": [
        {
          "internalType": "uint256",
          "name": "newFee",
          "type": "uint256"
        }
      ],
      "name": "prepareNewMinWithdrawalFee",
      "outputs": [
        {
          "internalType": "bool",
          "name": "",
          "type": "bool"
        }
      ],
      "stateMutability": "nonpayable",
      "type": "function"
    },
    {
      "inputs": [
        {
          "internalType": "uint256",
          "name": "_newRatio",
          "type": "uint256"
        }
      ],
      "name": "prepareNewRequiredReserves",
      "outputs": [
        {
          "internalType": "bool",
          "name": "",
          "type": "bool"
        }
      ],
      "stateMutability": "nonpayable",
      "type": "function"
    },
    {
      "inputs": [
        {
          "internalType": "uint256",
          "name": "newRatio",
          "type": "uint256"
        }
      ],
      "name": "prepareNewReserveDeviation",
      "outputs": [
        {
          "internalType": "bool",
          "name": "",
          "type": "bool"
        }
      ],
      "stateMutability": "nonpayable",
      "type": "function"
    },
    {
      "inputs": [
        {
          "internalType": "address",
          "name": "_vault",
          "type": "address"
        }
      ],
      "name": "prepareNewVault",
      "outputs": [
        {
          "internalType": "bool",
          "name": "",
          "type": "bool"
        }
      ],
      "stateMutability": "nonpayable",
      "type": "function"
    },
    {
      "inputs": [
        {
          "internalType": "uint256",
          "name": "newPeriod",
          "type": "uint256"
        }
      ],
      "name": "prepareNewWithdrawalFeeDecreasePeriod",
      "outputs": [
        {
          "internalType": "bool",
          "name": "",
          "type": "bool"
        }
      ],
      "stateMutability": "nonpayable",
      "type": "function"
    },
    {
      "inputs": [],
      "name": "rebalanceVault",
      "outputs": [],
      "stateMutability": "nonpayable",
      "type": "function"
    },
    {
      "inputs": [
        {
          "internalType": "uint256",
          "name": "redeemLpTokens",
          "type": "uint256"
        },
        {
          "internalType": "uint256",
          "name": "minRedeemAmount",
          "type": "uint256"
        }
      ],
      "name": "redeem",
      "outputs": [
        {
          "internalType": "uint256",
          "name": "",
          "type": "uint256"
        }
      ],
      "stateMutability": "nonpayable",
      "type": "function"
    },
    {
      "inputs": [
        {
          "internalType": "uint256",
          "name": "redeemLpTokens",
          "type": "uint256"
        }
      ],
      "name": "redeem",
      "outputs": [
        {
          "internalType": "uint256",
          "name": "",
          "type": "uint256"
        }
      ],
      "stateMutability": "nonpayable",
      "type": "function"
    },
    {
      "inputs": [],
      "name": "resetNewMaxWithdrawalFee",
      "outputs": [
        {
          "internalType": "bool",
          "name": "",
          "type": "bool"
        }
      ],
      "stateMutability": "nonpayable",
      "type": "function"
    },
    {
      "inputs": [],
      "name": "resetNewMinWithdrawalFee",
      "outputs": [
        {
          "internalType": "bool",
          "name": "",
          "type": "bool"
        }
      ],
      "stateMutability": "nonpayable",
      "type": "function"
    },
    {
      "inputs": [],
      "name": "resetNewReserveDeviation",
      "outputs": [
        {
          "internalType": "bool",
          "name": "",
          "type": "bool"
        }
      ],
      "stateMutability": "nonpayable",
      "type": "function"
    },
    {
      "inputs": [],
      "name": "resetNewVault",
      "outputs": [
        {
          "internalType": "bool",
          "name": "",
          "type": "bool"
        }
      ],
      "stateMutability": "nonpayable",
      "type": "function"
    },
    {
      "inputs": [],
      "name": "resetNewWithdrawalFeeDecreasePeriod",
      "outputs": [
        {
          "internalType": "bool",
          "name": "",
          "type": "bool"
        }
      ],
      "stateMutability": "nonpayable",
      "type": "function"
    },
    {
      "inputs": [],
      "name": "resetRequiredReserves",
      "outputs": [
        {
          "internalType": "bool",
          "name": "",
          "type": "bool"
        }
      ],
      "stateMutability": "nonpayable",
      "type": "function"
    },
    {
      "inputs": [],
      "name": "roleManager",
      "outputs": [
        {
          "internalType": "contract IRoleManager",
          "name": "",
          "type": "address"
        }
      ],
      "stateMutability": "view",
      "type": "function"
    },
    {
      "inputs": [
        {
          "internalType": "address",
          "name": "_lpToken",
          "type": "address"
        }
      ],
      "name": "setLpToken",
      "outputs": [
        {
          "internalType": "bool",
          "name": "",
          "type": "bool"
        }
      ],
      "stateMutability": "nonpayable",
      "type": "function"
    },
    {
      "inputs": [
        {
          "internalType": "uint256",
          "name": "newRatio",
          "type": "uint256"
        }
      ],
      "name": "setMaxBackingReserveDeviationRatio",
      "outputs": [],
      "stateMutability": "nonpayable",
      "type": "function"
    },
    {
      "inputs": [
        {
          "internalType": "uint256",
          "name": "newFee",
          "type": "uint256"
        }
      ],
      "name": "setMaxWithdrawalFee",
      "outputs": [
        {
          "internalType": "bool",
          "name": "",
          "type": "bool"
        }
      ],
      "stateMutability": "nonpayable",
      "type": "function"
    },
    {
      "inputs": [
        {
          "internalType": "uint256",
          "name": "newFee",
          "type": "uint256"
        }
      ],
      "name": "setMinWithdrawalFee",
      "outputs": [
        {
          "internalType": "bool",
          "name": "",
          "type": "bool"
        }
      ],
      "stateMutability": "nonpayable",
      "type": "function"
    },
    {
      "inputs": [
        {
          "internalType": "uint256",
          "name": "newRatio",
          "type": "uint256"
        }
      ],
      "name": "setRequiredBackingReserveRatio",
      "outputs": [],
      "stateMutability": "nonpayable",
      "type": "function"
    },
    {
      "inputs": [],
      "name": "setStaker",
      "outputs": [
        {
          "internalType": "bool",
          "name": "",
          "type": "bool"
        }
      ],
      "stateMutability": "nonpayable",
      "type": "function"
    },
    {
      "inputs": [
        {
          "internalType": "uint256",
          "name": "_currentTime",
          "type": "uint256"
        }
      ],
      "name": "setTime",
      "outputs": [],
      "stateMutability": "nonpayable",
      "type": "function"
    },
    {
      "inputs": [
        {
          "internalType": "address payable",
          "name": "_vault",
          "type": "address"
        },
        {
          "internalType": "bool",
          "name": "updateAddressProvider",
          "type": "bool"
        }
      ],
      "name": "setVault",
      "outputs": [],
      "stateMutability": "nonpayable",
      "type": "function"
    },
    {
      "inputs": [
        {
          "internalType": "address payable",
          "name": "_vault",
          "type": "address"
        }
      ],
      "name": "setVault",
      "outputs": [],
      "stateMutability": "nonpayable",
      "type": "function"
    },
    {
      "inputs": [
        {
          "internalType": "uint256",
          "name": "period",
          "type": "uint256"
        }
      ],
      "name": "setWithdrawalFeeDecreasePeriod",
      "outputs": [
        {
          "internalType": "bool",
          "name": "",
          "type": "bool"
        }
      ],
      "stateMutability": "nonpayable",
      "type": "function"
    },
    {
      "inputs": [],
      "name": "staker",
      "outputs": [
        {
          "internalType": "contract IStakerVault",
          "name": "",
          "type": "address"
        }
      ],
      "stateMutability": "view",
      "type": "function"
    },
    {
      "inputs": [],
      "name": "totalUnderlying",
      "outputs": [
        {
          "internalType": "uint256",
          "name": "",
          "type": "uint256"
        }
      ],
      "stateMutability": "view",
      "type": "function"
    },
    {
      "inputs": [],
      "name": "uncap",
      "outputs": [
        {
          "internalType": "bool",
          "name": "",
          "type": "bool"
        }
      ],
      "stateMutability": "nonpayable",
      "type": "function"
    },
    {
      "inputs": [],
      "name": "unpause",
      "outputs": [
        {
          "internalType": "bool",
          "name": "",
          "type": "bool"
        }
      ],
      "stateMutability": "nonpayable",
      "type": "function"
    },
    {
      "inputs": [
        {
          "internalType": "uint256",
          "name": "redeemLpTokens",
          "type": "uint256"
        },
        {
          "internalType": "uint256",
          "name": "minRedeemAmount",
          "type": "uint256"
        }
      ],
      "name": "unstakeAndRedeem",
      "outputs": [
        {
          "internalType": "uint256",
          "name": "",
          "type": "uint256"
        }
      ],
      "stateMutability": "nonpayable",
      "type": "function"
    },
    {
      "inputs": [
        {
          "internalType": "uint256",
          "name": "_depositCap",
          "type": "uint256"
        }
      ],
      "name": "updateDepositCap",
      "outputs": [
        {
          "internalType": "bool",
          "name": "",
          "type": "bool"
        }
      ],
      "stateMutability": "nonpayable",
      "type": "function"
    },
    {
      "inputs": [],
      "name": "withdrawAll",
      "outputs": [],
      "stateMutability": "nonpayable",
      "type": "function"
    },
    {
      "inputs": [
        {
          "internalType": "address",
          "name": "",
          "type": "address"
        }
      ],
      "name": "withdrawalFeeMetas",
      "outputs": [
        {
          "internalType": "uint64",
          "name": "timeToWait",
          "type": "uint64"
        },
        {
          "internalType": "uint64",
          "name": "feeRatio",
          "type": "uint64"
        },
        {
          "internalType": "uint64",
          "name": "lastActionTimestamp",
          "type": "uint64"
        }
      ],
      "stateMutability": "view",
      "type": "function"
    },
    {
      "stateMutability": "payable",
      "type": "receive"
    }
  ],
  "bytecode": "0x60e06040523480156200001157600080fd5b5060405162005ce138038062005ce183398101604081905262000034916200027a565b8080620000c9816001600160a01b0316632954018c6040518163ffffffff1660e01b815260040160206040518083038186803b1580156200007457600080fd5b505afa15801562000089573d6000803e3d6000fd5b505050506040513d601f19601f82011682018060405250810190620000af91906200027a565b6001600160a01b0316620001cf60201b6200419b1760201c565b6001600160a01b0390811660805260408051808201909152601881527f7a65726f2061646472657373206e6f7420616c6c6f77656400000000000000006020820152908216620001375760405162461bcd60e51b81526004016200012e9190620002a1565b60405180910390fd5b506001600160a01b03811660a081905260408051630a55006360e21b81529051632954018c91600480820192602092909190829003018186803b1580156200017e57600080fd5b505afa15801562000193573d6000803e3d6000fd5b505050506040513d601f19601f82011682018060405250810190620001b991906200027a565b6001600160a01b031660c05250620002f9915050565b6040516321f8a72160e01b81526a3937b632a6b0b730b3b2b960a91b60048201526000906001600160a01b038316906321f8a7219060240160206040518083038186803b1580156200022057600080fd5b505afa15801562000235573d6000803e3d6000fd5b505050506040513d601f19601f820116820180604052508101906200025b91906200027a565b92915050565b6001600160a01b03811681146200027757600080fd5b50565b6000602082840312156200028d57600080fd5b81516200029a8162000261565b9392505050565b600060208083528351808285015260005b81811015620002d057858101830151858201604001528201620002b2565b81811115620002e3576000604083870101525b50601f01601f1916929092016040019392505050565b60805160a05160c05161597962000368600039600081816105a40152818161100301528181611e750152818161205b015281816126c1015281816134fe01528181613f1101528181613fbd0152818161405e01526140fd01526000610ca80152600061422501526159796000f3fe6080604052600436106104295760003560e01c80637b95b53711610229578063b89112671161012e578063dbd5edc7116100b6578063efe9ee6b1161007a578063efe9ee6b14610c0b578063f070790314610c20578063f1b60c9814610c40578063f76c339914610c60578063f77c479114610c9657600080fd5b8063dbd5edc714610b6c578063de55b5d914610b82578063e2bbb15814610ba2578063e3976edf14610bb5578063ee78877714610beb57600080fd5b8063ca917a9f116100fd578063ca917a9f14610ae1578063d14397d714610af6578063d18e81b314610b16578063d8178a0e14610b2c578063db006a7514610b4c57600080fd5b8063b891126714610a6c578063b9e0687314610a8c578063bf57daba14610aac578063c70920bc14610acc57600080fd5b80639ba1c156116101b1578063ac34993011610180578063ac349930146109dd578063aff1b7e4146109f2578063b187bd2614610a1f578063b3af739414610a39578063b6b55f2514610a5957600080fd5b80639ba1c1561461097e5780639ee933b514610993578063a08bd3ec146109b3578063ac23e496146109c857600080fd5b8063853828b6116101f8578063853828b61461090b578063855d7ecf146109205780638d928af8146109405780638f7265b0146109555780639816f4731461096a57600080fd5b80637b95b537146108985780637cbc2373146108b85780638214f5a4146108d85780638456cb59146108f657600080fd5b80633ba0b9a91161032f5780635f7ad054116102b7578063671528d411610286578063671528d4146108195780636738ccc8146108305780636817031b14610850578063697b9aab146108705780637969ee281461088557600080fd5b80635f7ad054146107af5780635fcbd285146107c4578063627f66c6146107e457806366f07dd21461080457600080fd5b80633ff5244a116102fe5780633ff5244a146107275780634cf5fbf5146107475780634f3bddeb1461075a578063580c71021461077a5780635ebaf1db1461078f57600080fd5b80633ba0b9a9146106bb5780633beb26c4146106d05780633d59f0c3146106f25780633f4ba83a1461071257600080fd5b806327a5e850116103b25780632f4f21e2116103815780632f4f21e2146105db57806333aed889146105ee578063346a4a511461060357806337829f49146106305780633ad193be146106a657600080fd5b806327a5e8501461056857806328f6e2e31461057d5780632954018c146105925780632d229bf2146105c657600080fd5b8063096ddcba116103f9578063096ddcba146104c357806315dbfe62146104d8578063171e5e88146105135780631992a088146105335780631f6663ab1461055357600080fd5b8062435da51461043557806306fdde0314610467578063089cf3c21461048957806308e9940a146104ae57600080fd5b3661043057005b600080fd5b34801561044157600080fd5b5061044a610cca565b6040516001600160a01b0390911681526020015b60405180910390f35b34801561047357600080fd5b5061047c610cd9565b60405161045e9190615461565b34801561049557600080fd5b5061049e610d67565b604051901515815260200161045e565b3480156104ba57600080fd5b5061049e610e63565b3480156104cf57600080fd5b5061044a610f56565b3480156104e457600080fd5b506105056104f3366004615494565b60016020526000908152604090205481565b60405190815260200161045e565b34801561051f57600080fd5b5061049e61052e366004615494565b611068565b34801561053f57600080fd5b5061049e61054e366004615494565b611229565b34801561055f57600080fd5b5061049e611337565b34801561057457600080fd5b50610505611473565b34801561058957600080fd5b506105056114b4565b34801561059e57600080fd5b5061044a7f000000000000000000000000000000000000000000000000000000000000000081565b3480156105d257600080fd5b506105056114f5565b6105056105e93660046154cd565b611531565b3480156105fa57600080fd5b5061049e611548565b34801561060f57600080fd5b5061050561061e366004615494565b60046020526000908152604090205481565b34801561063c57600080fd5b5061067c61064b3660046154f9565b6006602052600090815260409020546001600160401b0380821691600160401b8104821691600160801b9091041683565b604080516001600160401b039485168152928416602084015292169181019190915260600161045e565b3480156106b257600080fd5b50610505611630565b3480156106c757600080fd5b50610505611659565b3480156106dc57600080fd5b506106f06106eb366004615494565b600b55565b005b3480156106fe57600080fd5b5061049e61070d3660046154f9565b611721565b34801561071e57600080fd5b5061049e611813565b34801561073357600080fd5b5061049e610742366004615494565b61187d565b610505610755366004615516565b61197c565b34801561076657600080fd5b5061049e610775366004615561565b611cf3565b34801561078657600080fd5b50610505611d08565b34801561079b57600080fd5b5060085461044a906001600160a01b031681565b3480156107bb57600080fd5b50610505611d27565b3480156107d057600080fd5b5060095461044a906001600160a01b031681565b3480156107f057600080fd5b506106f06107ff366004615639565b611d40565b34801561081057600080fd5b5061049e611eeb565b34801561082557600080fd5b50600754151561049e565b34801561083c57600080fd5b5061049e61084b366004615494565b612195565b34801561085c57600080fd5b506106f061086b3660046154f9565b61229b565b34801561087c57600080fd5b506105056122a9565b610505610893366004615672565b6122ea565b3480156108a457600080fd5b506105056108b3366004615672565b612385565b3480156108c457600080fd5b506105056108d3366004615672565b612591565b3480156108e457600080fd5b506009546001600160a01b031661044a565b34801561090257600080fd5b5061049e61290f565b34801561091757600080fd5b506106f061297d565b34801561092c57600080fd5b5061049e61093b366004615494565b612aae565b34801561094c57600080fd5b5061044a612bae565b34801561096157600080fd5b506106f0612bed565b34801561097657600080fd5b50600061044a565b34801561098a57600080fd5b50610505612ccc565b34801561099f57600080fd5b5061049e6109ae3660046154f9565b612cfe565b3480156109bf57600080fd5b5061049e612f67565b3480156109d457600080fd5b5061050561305a565b3480156109e957600080fd5b5061049e613087565b3480156109fe57600080fd5b50610505610a0d366004615494565b60036020526000908152604090205481565b348015610a2b57600080fd5b5060055461049e9060ff1681565b348015610a4557600080fd5b5061049e610a54366004615494565b613175565b610505610a67366004615494565b6132d1565b348015610a7857600080fd5b50610505610a873660046154cd565b6132df565b348015610a9857600080fd5b506106f0610aa7366004615494565b6135ed565b348015610ab857600080fd5b5061049e610ac7366004615494565b6136e8565b348015610ad857600080fd5b506105056137d7565b348015610aed57600080fd5b5061050561388b565b348015610b0257600080fd5b50610505610b11366004615694565b6138cc565b348015610b2257600080fd5b50610505600b5481565b348015610b3857600080fd5b50610505610b473660046154cd565b613931565b348015610b5857600080fd5b50610505610b67366004615494565b613a50565b348015610b7857600080fd5b5061050560075481565b348015610b8e57600080fd5b506106f0610b9d366004615494565b613a5d565b610505610bb0366004615672565b613b4f565b348015610bc157600080fd5b5061044a610bd0366004615494565b6000602081905290815260409020546001600160a01b031681565b348015610bf757600080fd5b5061049e610c06366004615494565b613b5c565b348015610c1757600080fd5b5061049e613c4b565b348015610c2c57600080fd5b5061049e610c3b366004615494565b613d3e565b348015610c4c57600080fd5b506106f0610c5b3660046156c0565b613e81565b348015610c6c57600080fd5b5061044a610c7b366004615494565b6002602052600090815260409020546001600160a01b031681565b348015610ca257600080fd5b5061044a7f000000000000000000000000000000000000000000000000000000000000000081565b6000610cd4614223565b905090565b600a8054610ce690615701565b80601f0160208091040260200160405190810160405280929190818152602001828054610d1290615701565b8015610d5f5780601f10610d3457610100808354040283529160200191610d5f565b820191906000526020600020905b815481529060010190602001808311610d4257829003601f168201915b505050505081565b6000610d71614223565b6001600160a01b03166391d1485469676f7665726e616e636560b01b336040518363ffffffff1660e01b8152600401610dab92919061573c565b60206040518083038186803b158015610dc357600080fd5b505afa158015610dd7573d6000803e3d6000fd5b505050506040513d601f19601f82011682018060405250810190610dfb9190615753565b60405180604001604052806013815260200160008051602061589683398151915281525090610e465760405162461bcd60e51b8152600401610e3d9190615461565b60405180910390fd5b50610cd46f2932b9b2b93b32a232bb34b0ba34b7b760811b614247565b6000610e6d614223565b6001600160a01b03166391d1485469676f7665726e616e636560b01b336040518363ffffffff1660e01b8152600401610ea792919061573c565b60206040518083038186803b158015610ebf57600080fd5b505afa158015610ed3573d6000803e3d6000fd5b505050506040513d601f19601f82011682018060405250810190610ef79190615753565b60405180604001604052806013815260200160008051602061589683398151915281525090610f395760405162461bcd60e51b8152600401610e3d9190615461565b50610cd46f4d61785769746864726177616c46656560801b614247565b600080610f61612bae565b90506001600160a01b03811615610fc657806001600160a01b031663853828b66040518163ffffffff1660e01b8152600401600060405180830381600087803b158015610fad57600080fd5b505af1158015610fc1573d6000803e3d6000fd5b505050505b6000610fd96415985d5b1d60da1b6142ee565b604051630368a3a560e31b81526001600160a01b03848116600483015280831660248301529192507f000000000000000000000000000000000000000000000000000000000000000090911690631b451d2890604401600060405180830381600087803b15801561104957600080fd5b505af115801561105d573d6000803e3d6000fd5b509295945050505050565b6000611072614223565b6001600160a01b03166391d1485469676f7665726e616e636560b01b336040518363ffffffff1660e01b81526004016110ac92919061573c565b60206040518083038186803b1580156110c457600080fd5b505afa1580156110d8573d6000803e3d6000fd5b505050506040513d601f19601f820116820180604052508101906110fc9190615753565b6040518060400160405280601381526020016000805160206158968339815191528152509061113e5760405162461bcd60e51b8152600401610e3d9190615461565b5060075415156040518060400160405280602081526020017f74686520706f6f6c206973206e6f742063757272656e746c7920636170706564815250906111985760405162461bcd60e51b8152600401610e3d9190615461565b5081600754141560405180606001604052806029815260200161591b60299139906111d65760405162461bcd60e51b8152600401610e3d9190615461565b5060408051808201909152600e81526d1a5b9d985b1a5908185b5bdd5b9d60921b60208201528261121a5760405162461bcd60e51b8152600401610e3d9190615461565b5050600781905560015b919050565b6000611233614223565b6001600160a01b03166391d1485469676f7665726e616e636560b01b336040518363ffffffff1660e01b815260040161126d92919061573c565b60206040518083038186803b15801561128557600080fd5b505afa158015611299573d6000803e3d6000fd5b505050506040513d601f19601f820116820180604052508101906112bd9190615753565b604051806040016040528060138152602001600080516020615896833981519152815250906112ff5760405162461bcd60e51b8152600401610e3d9190615461565b5061131d6f4d61785769746864726177616c46656560801b83614322565b5061132f611329611473565b8361438f565b506001919050565b6000611341614223565b6001600160a01b03166391d1485469676f7665726e616e636560b01b336040518363ffffffff1660e01b815260040161137b92919061573c565b60206040518083038186803b15801561139357600080fd5b505afa1580156113a7573d6000803e3d6000fd5b505050506040513d601f19601f820116820180604052508101906113cb9190615753565b6040518060400160405280601381526020016000805160206158968339815191528152509061140d5760405162461bcd60e51b8152600401610e3d9190615461565b5060075415156040518060400160405280602081526020017f74686520706f6f6c206973206e6f742063757272656e746c7920636170706564815250906114675760405162461bcd60e51b8152600401610e3d9190615461565b50506000600755600190565b6f4d696e5769746864726177616c46656560801b60005260036020527fc0f899a0b165dc0c43f66d0d223e281b3f278eca17e510016df881545bb9d8625490565b6f5265717569726564526573657276657360801b60005260036020527fba135a2864686570c0839a01a6e2733db5bf6cecadc565d84319df13ef016a155490565b60008051602061587683398151915260005260036020527f604a2499576f2f340436d07e04cc082bc0d8e83977929464e7f0af31c1c137ff5490565b600061153f8383600061197c565b90505b92915050565b6000611552614223565b6001600160a01b03166391d1485469676f7665726e616e636560b01b336040518363ffffffff1660e01b815260040161158c92919061573c565b60206040518083038186803b1580156115a457600080fd5b505afa1580156115b8573d6000803e3d6000fd5b505050506040513d601f19601f820116820180604052508101906115dc9190615753565b6040518060400160405280601381526020016000805160206158968339815191528152509061161e5760405162461bcd60e51b8152600401610e3d9190615461565b50610cd46415985d5b1d60da1b614423565b60008061164f6f5265717569726564526573657276657360801b6144d4565b90506112246144f8565b6000806116646137d7565b90506000600960009054906101000a90046001600160a01b03166001600160a01b03166318160ddd6040518163ffffffff1660e01b815260040160206040518083038186803b1580156116b657600080fd5b505afa1580156116ca573d6000803e3d6000fd5b505050506040513d601f19601f820116820180604052508101906116ee9190615770565b90508015806116fb575081155b1561171057670de0b6b3a76400009250505090565b61171a8282614502565b9250505090565b600061172b614223565b6001600160a01b03166391d1485469676f7665726e616e636560b01b336040518363ffffffff1660e01b815260040161176592919061573c565b60206040518083038186803b15801561177d57600080fd5b505afa158015611791573d6000803e3d6000fd5b505050506040513d601f19601f820116820180604052508101906117b59190615753565b604051806040016040528060138152602001600080516020615896833981519152815250906117f75760405162461bcd60e51b8152600401610e3d9190615461565b5061180a6415985d5b1d60da1b83614521565b50600192915050565b600061181e33614531565b604051806040016040528060178152602001766e6f7420617574686f72697a656420746f20706175736560481b8152509061186c5760405162461bcd60e51b8152600401610e3d9190615461565b50506005805460ff19169055600190565b6000611887614223565b6001600160a01b03166391d1485469676f7665726e616e636560b01b336040518363ffffffff1660e01b81526004016118c192919061573c565b60206040518083038186803b1580156118d957600080fd5b505afa1580156118ed573d6000803e3d6000fd5b505050506040513d601f19601f820116820180604052508101906119119190615753565b604051806040016040528060138152602001600080516020615896833981519152815250906119535760405162461bcd60e51b8152600401610e3d9190615461565b5061195f611329611473565b6115426f4d61785769746864726177616c46656560801b836145c5565b60055460408051808201909152601281527118dbdb9d1c9858dd081a5cc81c185d5cd95960721b602082015260009160ff16156119cc5760405162461bcd60e51b8152600401610e3d9190615461565b5060006119d7611659565b90506119e4600754151590565b15611b6d576009546040516370a0823160e01b81526001600160a01b03878116600483015260009216906370a082319060240160206040518083038186803b158015611a2f57600080fd5b505afa158015611a43573d6000803e3d6000fd5b505050506040513d601f19601f82011682018060405250810190611a679190615770565b60085460405163a853ba2f60e01b81526001600160a01b0389811660048301529293506000929091169063a853ba2f9060240160206040518083038186803b158015611ab257600080fd5b505afa158015611ac6573d6000803e3d6000fd5b505050506040513d601f19601f82011682018060405250810190611aea9190615770565b90506000611b0284611afc848661579f565b906145d5565b600754909150611b12888361579f565b11156040518060400160405280601b81526020017f6465706f7369742065786365656473206465706f73697420636170000000000081525090611b685760405162461bcd60e51b8152600401610e3d9190615461565b505050505b611b7733856145ea565b6000611b838583614502565b9050838110156040518060400160405280600e81526020016d1a5b9d985b1a5908185b5bdd5b9d60921b81525090611bce5760405162461bcd60e51b8152600401610e3d9190615461565b506009546040516340c10f1960e01b81526001600160a01b03888116600483015260248201849052909116906340c10f1990604401600060405180830381600087803b158015611c1d57600080fd5b505af1158015611c31573d6000803e3d6000fd5b50505050611c3d6144f8565b336001600160a01b0387161480611c5c5750306001600160a01b038716145b15611ca157604080518681526020810183905233917f90890809c654f11d6e72a28fa60149770a0d11ec6c92319d6ceb2bb0a4ea1a15910160405180910390a2611ce8565b60408051868152602081018390526001600160a01b0388169133917f512d56e1f791d3bc07b8085104584ec42faefbefed34bbc0b881d8da16a8ebe1910160405180910390a35b9150505b9392505050565b6000611d00848484614682565b949350505050565b60008061164f6f2932b9b2b93b32a232bb34b0ba34b7b760811b6144d4565b6000610cd46000805160206158768339815191526144d4565b611d48614223565b6001600160a01b03166391d1485469676f7665726e616e636560b01b336040518363ffffffff1660e01b8152600401611d8292919061573c565b60206040518083038186803b158015611d9a57600080fd5b505afa158015611dae573d6000803e3d6000fd5b505050506040513d601f19601f82011682018060405250810190611dd29190615753565b60405180604001604052806013815260200160008051602061589683398151915281525090611e145760405162461bcd60e51b8152600401610e3d9190615461565b508015611ed4576415985d5b1d60da1b60005260026020527fc867d482ba9cd7435d7b7450243553d6e2a33c30f68e5a536cba3964e00c8aad54604051630368a3a560e31b81526001600160a01b03918216600482015283821660248201527f000000000000000000000000000000000000000000000000000000000000000090911690631b451d2890604401600060405180830381600087803b158015611ebb57600080fd5b505af1158015611ecf573d6000803e3d6000fd5b505050505b611ee66415985d5b1d60da1b83614808565b505050565b600069676f7665726e616e636560b01b6b706f6f6c5f666163746f727960a01b611f13614223565b604051636bab521160e11b815260048101849052602481018390523360448201526001600160a01b03919091169063d756a4229060640160206040518083038186803b158015611f6257600080fd5b505afa158015611f76573d6000803e3d6000fd5b505050506040513d601f19601f82011682018060405250810190611f9a9190615753565b60405180604001604052806013815260200160008051602061589683398151915281525090611fdc5760405162461bcd60e51b8152600401610e3d9190615461565b506008546040805180820190915260168152751059191c995cdcc81a5cc8185b1c9958591e481cd95d60521b6020820152906001600160a01b0316156120355760405162461bcd60e51b8152600401610e3d9190615461565b5060095460405163059eadeb60e41b81526001600160a01b0391821660048201526000917f000000000000000000000000000000000000000000000000000000000000000016906359eadeb09060240160206040518083038186803b15801561209d57600080fd5b505afa1580156120b1573d6000803e3d6000fd5b505050506040513d601f19601f820116820180604052508101906120d591906157b7565b60408051808201909152601881527f7a65726f2061646472657373206e6f7420616c6c6f776564000000000000000060208201529091506001600160a01b0382166121335760405162461bcd60e51b8152600401610e3d9190615461565b50600880546001600160a01b0319166001600160a01b038316179055612157614887565b6040516001600160a01b038216907f11a945e6ecbc8413276d84b4f853634a407ccf5a1a60b1fa649aea71ea386ff290600090a26001935050505090565b600061219f614223565b6001600160a01b03166391d1485469676f7665726e616e636560b01b336040518363ffffffff1660e01b81526004016121d992919061573c565b60206040518083038186803b1580156121f157600080fd5b505afa158015612205573d6000803e3d6000fd5b505050506040513d601f19601f820116820180604052508101906122299190615753565b6040518060400160405280601381526020016000805160206158968339815191528152509061226b5760405162461bcd60e51b8152600401610e3d9190615461565b506122896f4d696e5769746864726177616c46656560801b83614322565b5061132f826122966122a9565b61438f565b6122a6816001611d40565b50565b6f4d61785769746864726177616c46656560801b60005260036020527fa17a95707d09266a39dd08e8e69410950f03cfcf325d18179561eb773bcea2095490565b6000806122f830858561197c565b6008546040516305dc812160e31b8152336004820152602481018390529192506001600160a01b031690632ee4090890604401602060405180830381600087803b15801561234557600080fd5b505af1158015612359573d6000803e3d6000fd5b505050506040513d601f19601f8201168201806040525081019061237d9190615753565b509392505050565b6009546040516370a0823160e01b815233600482015260009182916001600160a01b03909116906370a082319060240160206040518083038186803b1580156123cd57600080fd5b505afa1580156123e1573d6000803e3d6000fd5b505050506040513d601f19601f820116820180604052508101906124059190615770565b6008546040516370a0823160e01b815233600482015291925085916001600160a01b03909116906370a082319060240160206040518083038186803b15801561244d57600080fd5b505afa158015612461573d6000803e3d6000fd5b505050506040513d601f19601f820116820180604052508101906124859190615770565b61248f908361579f565b101560405180604001604052806014815260200173696e73756666696369656e742062616c616e636560601b815250906124dc5760405162461bcd60e51b8152600401610e3d9190615461565b508381101561258b576008546001600160a01b0316634974c679338061250285896157d4565b6040516001600160e01b031960e086901b1681526001600160a01b0393841660048201529290911660248301526044820152606401602060405180830381600087803b15801561255157600080fd5b505af1158015612565573d6000803e3d6000fd5b505050506040513d601f19601f820116820180604052508101906125899190615753565b505b611d0084845b60008083116040518060400160405280600e81526020016d1a5b9d985b1a5908185b5bdd5b9d60921b815250906125db5760405162461bcd60e51b8152600401610e3d9190615461565b506009546040516370a0823160e01b81523360048201526001600160a01b0390911690849082906370a082319060240160206040518083038186803b15801561262357600080fd5b505afa158015612637573d6000803e3d6000fd5b505050506040513d601f19601f8201168201806040525081019061265b9190615770565b101560405180604001604052806014815260200173696e73756666696369656e742062616c616e636560601b815250906126a85760405162461bcd60e51b8152600401610e3d9190615461565b5060405163622e68cb60e01b81523360048201526000907f00000000000000000000000000000000000000000000000000000000000000006001600160a01b03169063622e68cb9060240160206040518083038186803b15801561270b57600080fd5b505afa15801561271f573d6000803e3d6000fd5b505050506040513d601f19601f820116820180604052508101906127439190615753565b612756576127513386613931565b612759565b60005b9050600061276782876157d4565b9050826001600160a01b03166318160ddd6040518163ffffffff1660e01b815260040160206040518083038186803b1580156127a257600080fd5b505afa1580156127b6573d6000803e3d6000fd5b505050506040513d601f19601f820116820180604052508101906127da9190615770565b8614156127e45750845b60006127f86127f1611659565b83906145d5565b9050858110156040518060600160405280602d8152602001615849602d9139906128355760405162461bcd60e51b8152600401610e3d9190615461565b5061283f816148d1565b604051632770a7eb60e21b8152336004820152602481018890526001600160a01b03851690639dc29fac90604401602060405180830381600087803b15801561288757600080fd5b505af115801561289b573d6000803e3d6000fd5b505050506040513d601f19601f820116820180604052508101906128bf9190615770565b506128ca3382614b0f565b604080518281526020810189905233917fe5b754fb1abb7f01b499791d0b820ae3b6af3424ac1c59768edb53f4ec31a929910160405180910390a29695505050505050565b600061291a33614531565b604051806040016040528060178152602001766e6f7420617574686f72697a656420746f20706175736560481b815250906129685760405162461bcd60e51b8152600401610e3d9190615461565b50506005805460ff1916600190811790915590565b612985614223565b6001600160a01b03166391d1485469676f7665726e616e636560b01b336040518363ffffffff1660e01b81526004016129bf92919061573c565b60206040518083038186803b1580156129d757600080fd5b505afa1580156129eb573d6000803e3d6000fd5b505050506040513d601f19601f82011682018060405250810190612a0f9190615753565b60405180604001604052806013815260200160008051602061589683398151915281525090612a515760405162461bcd60e51b8152600401610e3d9190615461565b50612a5a612bae565b6001600160a01b031663853828b66040518163ffffffff1660e01b8152600401600060405180830381600087803b158015612a9457600080fd5b505af1158015612aa8573d6000803e3d6000fd5b50505050565b6000612ab8614223565b6001600160a01b03166391d1485469676f7665726e616e636560b01b336040518363ffffffff1660e01b8152600401612af292919061573c565b60206040518083038186803b158015612b0a57600080fd5b505afa158015612b1e573d6000803e3d6000fd5b505050506040513d601f19601f82011682018060405250810190612b429190615753565b60405180604001604052806013815260200160008051602061589683398151915281525090612b845760405162461bcd60e51b8152600401610e3d9190615461565b50612b91826122966122a9565b6115426f4d696e5769746864726177616c46656560801b836145c5565b6415985d5b1d60da1b60005260026020527fc867d482ba9cd7435d7b7450243553d6e2a33c30f68e5a536cba3964e00c8aad546001600160a01b031690565b612bf5614223565b6001600160a01b03166391d1485469676f7665726e616e636560b01b336040518363ffffffff1660e01b8152600401612c2f92919061573c565b60206040518083038186803b158015612c4757600080fd5b505afa158015612c5b573d6000803e3d6000fd5b505050506040513d601f19601f82011682018060405250810190612c7f9190615753565b60405180604001604052806013815260200160008051602061589683398151915281525090612cc15760405162461bcd60e51b8152600401610e3d9190615461565b50612cca6144f8565b565b600080612ceb6f4d61785769746864726177616c46656560801b6144d4565b9050611224612cf8611473565b8261438f565b600069676f7665726e616e636560b01b6b706f6f6c5f666163746f727960a01b612d26614223565b604051636bab521160e11b815260048101849052602481018390523360448201526001600160a01b03919091169063d756a4229060640160206040518083038186803b158015612d7557600080fd5b505afa158015612d89573d6000803e3d6000fd5b505050506040513d601f19601f82011682018060405250810190612dad9190615753565b60405180604001604052806013815260200160008051602061589683398151915281525090612def5760405162461bcd60e51b8152600401610e3d9190615461565b506009546040805180820190915260168152751059191c995cdcc81a5cc8185b1c9958591e481cd95d60521b6020820152906001600160a01b031615612e485760405162461bcd60e51b8152600401610e3d9190615461565b50306001600160a01b0316846001600160a01b031663075461726040518163ffffffff1660e01b815260040160206040518083038186803b158015612e8c57600080fd5b505afa158015612ea0573d6000803e3d6000fd5b505050506040513d601f19601f82011682018060405250810190612ec491906157b7565b6001600160a01b0316146040518060800160405280604481526020016158d76044913990612f055760405162461bcd60e51b8152600401610e3d9190615461565b50600980546001600160a01b0319166001600160a01b038616179055612f29614887565b6040516001600160a01b038516907f1c1820b4910e7e24202fa882184fde52e795a3113b621ded50b099b270159acc90600090a25060019392505050565b6000612f71614223565b6001600160a01b03166391d1485469676f7665726e616e636560b01b336040518363ffffffff1660e01b8152600401612fab92919061573c565b60206040518083038186803b158015612fc357600080fd5b505afa158015612fd7573d6000803e3d6000fd5b505050506040513d601f19601f82011682018060405250810190612ffb9190615753565b6040518060400160405280601381526020016000805160206158968339815191528152509061303d5760405162461bcd60e51b8152600401610e3d9190615461565b50610cd46f5265717569726564526573657276657360801b614247565b6000806130796f4d696e5769746864726177616c46656560801b6144d4565b9050611224816122966122a9565b6000613091614223565b6001600160a01b03166391d1485469676f7665726e616e636560b01b336040518363ffffffff1660e01b81526004016130cb92919061573c565b60206040518083038186803b1580156130e357600080fd5b505afa1580156130f7573d6000803e3d6000fd5b505050506040513d601f19601f8201168201806040525081019061311b9190615753565b6040518060400160405280601381526020016000805160206158968339815191528152509061315d5760405162461bcd60e51b8152600401610e3d9190615461565b50610cd4600080516020615876833981519152614247565b600061317f614223565b6001600160a01b03166391d1485469676f7665726e616e636560b01b336040518363ffffffff1660e01b81526004016131b992919061573c565b60206040518083038186803b1580156131d157600080fd5b505afa1580156131e5573d6000803e3d6000fd5b505050506040513d601f19601f820116820180604052508101906132099190615753565b6040518060400160405280601381526020016000805160206158968339815191528152509061324b5760405162461bcd60e51b8152600401610e3d9190615461565b506064613261670de0b6b3a764000060326157eb565b61326b919061580a565b8211156040518060400160405280600e81526020016d1a5b9d985b1a5908185b5bdd5b9d60921b815250906132b35760405162461bcd60e51b8152600401610e3d9190615461565b506115426f2932b9b2b93b32a232bb34b0ba34b7b760811b836145c5565b60006115423383600061197c565b60008082116040518060400160405280600e81526020016d1a5b9d985b1a5908185b5bdd5b9d60921b815250906133295760405162461bcd60e51b8152600401610e3d9190615461565b506009546040516370a0823160e01b81526001600160a01b0385811660048301529091169060009082906370a082319060240160206040518083038186803b15801561337457600080fd5b505afa158015613388573d6000803e3d6000fd5b505050506040513d601f19601f820116820180604052508101906133ac9190615770565b1160405180604001604052806014815260200173696e73756666696369656e742062616c616e636560601b815250906133f85760405162461bcd60e51b8152600401610e3d9190615461565b506000613403611659565b905060006134118583614502565b9050826001600160a01b03166318160ddd6040518163ffffffff1660e01b815260040160206040518083038186803b15801561344c57600080fd5b505afa158015613460573d6000803e3d6000fd5b505050506040513d601f19601f820116820180604052508101906134849190615770565b811415613495579250611542915050565b6001600160a01b038681166000818152600660209081526040808320815160608101835290546001600160401b038082168352600160401b8204811694830194909452600160801b9004909216828201525163622e68cb60e01b815260048101939093529290917f00000000000000000000000000000000000000000000000000000000000000009091169063622e68cb9060240160206040518083038186803b15801561354257600080fd5b505afa158015613556573d6000803e3d6000fd5b505050506040513d601f19601f8201168201806040525081019061357a9190615753565b6135b3576135b082600001516001600160401b031683604001516001600160401b031684602001516001600160401b03166138cc565b90505b60006135d16135ca83670de0b6b3a76400006157d4565b86906145d5565b905060006135df8983614b45565b9a9950505050505050505050565b6135f5614223565b6001600160a01b03166391d1485469676f7665726e616e636560b01b336040518363ffffffff1660e01b815260040161362f92919061573c565b60206040518083038186803b15801561364757600080fd5b505afa15801561365b573d6000803e3d6000fd5b505050506040513d601f19601f8201168201806040525081019061367f9190615753565b604051806040016040528060138152602001600080516020615896833981519152815250906136c15760405162461bcd60e51b8152600401610e3d9190615461565b506136df6f2932b9b2b93b32a232bb34b0ba34b7b760811b82614322565b506122a66144f8565b60006136f2614223565b6001600160a01b03166391d1485469676f7665726e616e636560b01b336040518363ffffffff1660e01b815260040161372c92919061573c565b60206040518083038186803b15801561374457600080fd5b505afa158015613758573d6000803e3d6000fd5b505050506040513d601f19601f8201168201806040525081019061377c9190615753565b604051806040016040528060138152602001600080516020615896833981519152815250906137be5760405162461bcd60e51b8152600401610e3d9190615461565b5061180a60008051602061587683398151915283614322565b6000806137e2612bae565b905060006137ee614b71565b90506001600160a01b0382166138045792915050565b6000826001600160a01b031663b40494e56040518163ffffffff1660e01b815260040160206040518083038186803b15801561383f57600080fd5b505afa158015613853573d6000803e3d6000fd5b505050506040513d601f19601f820116820180604052508101906138779190615770565b9050613883828261579f565b935050505090565b6f2932b9b2b93b32a232bb34b0ba34b7b760811b60005260036020527ff61ad85d902c01a6c2756008dbc41a8113da437e01ee2bc9df8881fed1c48c2e5490565b600080836138d8614b7d565b6138e291906157d4565b905060006138ee611473565b9050858210613900579150611cec9050565b600061390c8388614502565b905061391c81611afc84886157d4565b61392690866157d4565b979650505050505050565b6001600160a01b038281166000818152600660209081526040808320815160608101835290546001600160401b038082168352600160401b8204811694830194909452600160801b90049092168282015260095490516370a0823160e01b81526004810194909452919390929116906370a082319060240160206040518083038186803b1580156139c157600080fd5b505afa1580156139d5573d6000803e3d6000fd5b505050506040513d601f19601f820116820180604052508101906139f99190615770565b613a07576000915050611542565b6000613a3b82600001516001600160401b031683604001516001600160401b031684602001516001600160401b03166138cc565b9050613a4784826145d5565b95945050505050565b6000611542826000612591565b613a65614223565b6001600160a01b03166391d1485469676f7665726e616e636560b01b336040518363ffffffff1660e01b8152600401613a9f92919061573c565b60206040518083038186803b158015613ab757600080fd5b505afa158015613acb573d6000803e3d6000fd5b505050506040513d601f19601f82011682018060405250810190613aef9190615753565b60405180604001604052806013815260200160008051602061589683398151915281525090613b315760405162461bcd60e51b8152600401610e3d9190615461565b506136df6f5265717569726564526573657276657360801b82614322565b600061153f33848461197c565b6000613b66614223565b6001600160a01b03166391d1485469676f7665726e616e636560b01b336040518363ffffffff1660e01b8152600401613ba092919061573c565b60206040518083038186803b158015613bb857600080fd5b505afa158015613bcc573d6000803e3d6000fd5b505050506040513d601f19601f82011682018060405250810190613bf09190615753565b60405180604001604052806013815260200160008051602061589683398151915281525090613c325760405162461bcd60e51b8152600401610e3d9190615461565b50611542600080516020615876833981519152836145c5565b6000613c55614223565b6001600160a01b03166391d1485469676f7665726e616e636560b01b336040518363ffffffff1660e01b8152600401613c8f92919061573c565b60206040518083038186803b158015613ca757600080fd5b505afa158015613cbb573d6000803e3d6000fd5b505050506040513d601f19601f82011682018060405250810190613cdf9190615753565b60405180604001604052806013815260200160008051602061589683398151915281525090613d215760405162461bcd60e51b8152600401610e3d9190615461565b50610cd46f4d696e5769746864726177616c46656560801b614247565b6000613d48614223565b6001600160a01b03166391d1485469676f7665726e616e636560b01b336040518363ffffffff1660e01b8152600401613d8292919061573c565b60206040518083038186803b158015613d9a57600080fd5b505afa158015613dae573d6000803e3d6000fd5b505050506040513d601f19601f82011682018060405250810190613dd29190615753565b60405180604001604052806013815260200160008051602061589683398151915281525090613e145760405162461bcd60e51b8152600401610e3d9190615461565b5060408051808201909152600e81526d1a5b9d985b1a5908185b5bdd5b9d60921b6020820152670de0b6b3a7640000831115613e635760405162461bcd60e51b8152600401610e3d9190615461565b506115426f5265717569726564526573657276657360801b836145c5565b6009546001600160a01b0316331480613ea457506008546001600160a01b031633145b60405180604001604052806013815260200160008051602061589683398151915281525090613ee65760405162461bcd60e51b8152600401610e3d9190615461565b50600954604051635b80b5fb60e11b81526001600160a01b03848116600483015291821660248201527f00000000000000000000000000000000000000000000000000000000000000009091169063b7016bf69060440160206040518083038186803b158015613f5557600080fd5b505afa158015613f69573d6000803e3d6000fd5b505050506040513d601f19601f82011682018060405250810190613f8d9190615753565b806140395750600954604051635b80b5fb60e11b81526001600160a01b03858116600483015291821660248201527f00000000000000000000000000000000000000000000000000000000000000009091169063b7016bf69060440160206040518083038186803b15801561400157600080fd5b505afa158015614015573d6000803e3d6000fd5b505050506040513d601f19601f820116820180604052508101906140399190615753565b806140d8575060405163622e68cb60e01b81526001600160a01b0383811660048301527f0000000000000000000000000000000000000000000000000000000000000000169063622e68cb9060240160206040518083038186803b1580156140a057600080fd5b505afa1580156140b4573d6000803e3d6000fd5b505050506040513d601f19601f820116820180604052508101906140d89190615753565b80614177575060405163622e68cb60e01b81526001600160a01b0384811660048301527f0000000000000000000000000000000000000000000000000000000000000000169063622e68cb9060240160206040518083038186803b15801561413f57600080fd5b505afa158015614153573d6000803e3d6000fd5b505050506040513d601f19601f820116820180604052508101906141779190615753565b1561418157505050565b6001600160a01b03821615611ee657611ee6828483614b95565b6040516321f8a72160e01b81526a3937b632a6b0b730b3b2b960a91b60048201526000906001600160a01b038316906321f8a7219060240160206040518083038186803b1580156141eb57600080fd5b505afa1580156141ff573d6000803e3d6000fd5b505050506040513d601f19601f8201168201806040525081019061154291906157b7565b7f000000000000000000000000000000000000000000000000000000000000000090565b600081815260046020908152604080832054815180830190925260128252710646561646c696e65206d75737420626520360741b92820192909252906142a05760405162461bcd60e51b8152600401610e3d9190615461565b50600082815260046020908152604080832083905560019091528082208290555183917f90fb84ad67dd037c388289337bb80b61b8605d38ba9a875dc38b5600909d172f91a2506001919050565b60006142f982614e1a565b6000828152602081905260409020546001600160a01b031661431b8382614808565b5092915050565b6000828152600360209081526040808320805490859055600183528184208490556004835281842084905581518181529283018590529185917fcc0bafe2accb565ea70674bf4b2555e49a47d410fb9932dfab3e5f41855d0a2f91015b60405180910390a2509092915050565b60408051808201909152600e81526d1a5b9d985b1a5908185b5bdd5b9d60921b6020820152828210156143d55760405162461bcd60e51b8152600401610e3d9190615461565b5060408051808201909152600e81526d1a5b9d985b1a5908185b5bdd5b9d60921b602082015266b1a2bc2ec50000821115611ee65760405162461bcd60e51b8152600401610e3d9190615461565b600081815260046020908152604080832054815180830190925260128252710646561646c696e65206d75737420626520360741b928201929092529061447c5760405162461bcd60e51b8152600401610e3d9190615461565b5060008281526004602090815260408083208390559082905280822080546001600160a01b03191690555183917f90fb84ad67dd037c388289337bb80b61b8605d38ba9a875dc38b5600909d172f91a2506001919050565b60006144df82614e1a565b60008281526001602052604090205461431b8382614322565b612cca60006148d1565b600081614517670de0b6b3a7640000856157eb565b61153f919061580a565b600061153f83836203f480614ec3565b600061453b614223565b6001600160a01b03166391d1485469676f7665726e616e636560b01b846040518363ffffffff1660e01b815260040161457592919061573c565b60206040518083038186803b15801561458d57600080fd5b505afa1580156145a1573d6000803e3d6000fd5b505050506040513d601f19601f820116820180604052508101906115429190615753565b600061153f83836203f480614f3e565b6000670de0b6b3a764000061451783856157eb565b60408051808201909152601281527134b73b30b634b21036b9b39739b2b73232b960711b6020820152336001600160a01b0384161461463c5760405162461bcd60e51b8152600401610e3d9190615461565b5060408051808201909152600e81526d1a5b9d985b1a5908185b5bdd5b9d60921b6020820152348214611ee65760405162461bcd60e51b8152600401610e3d9190615461565b60055460009062010000900460ff166146a657600554610100900460ff16156146aa565b303b155b61470d5760405162461bcd60e51b815260206004820152602e60248201527f496e697469616c697a61626c653a20636f6e747261637420697320616c72656160448201526d191e481a5b9a5d1a585b1a5e995960921b6064820152608401610e3d565b60055462010000900460ff16158015614732576005805462ffff001916620101001790555b845161474590600a90602088019061539c565b50600784905561476660008051602061587683398151915262093a80614322565b5061478b6f4d61785769746864726177616c46656560801b666a94d74f430000614322565b506147b16f5265717569726564526573657276657360801b670de0b6b3a7640000614322565b506147d66f2932b9b2b93b32a232bb34b0ba34b7b760811b6611c37937e08000614322565b506147e96415985d5b1d60da1b84614808565b5060019150801561237d576005805462ff000019169055509392505050565b600082815260026020908152604080832080546001600160a01b03198082166001600160a01b038881169182179094558686528487208054909216909155600485528386208690558351929091168083529382015285917fc4a957706c639829ad54381b04930c464db6c7ffdc09d2b4b1acc9ee34fb9261910161437f565b6008546009546001600160a01b0391821691168115806148ae57506001600160a01b038116155b156148b7575050565b6148cd6001600160a01b03821683600019614f94565b5050565b60006148db612bae565b90506001600160a01b0381166148ef575050565b6008546040805163ba4ac71160e01b815290516000926001600160a01b03169163ba4ac711916004808301926020929190829003018186803b15801561493457600080fd5b505afa158015614948573d6000803e3d6000fd5b505050506040513d601f19601f8201168201806040525081019061496c9190615770565b9050600061497b6127f1611659565b9050600061498960016150da565b9050600061499f61499861388b565b84906145d5565b905060006149b56149ae6114b4565b85906145d5565b9050828711806149d8575080826149cc89866157d4565b6149d6919061579f565b105b15614a78576000836149ea898461579f565b6149f491906157d4565b604051632e1a7d4d60e01b8152600481018290529091506001600160a01b03881690632e1a7d4d90602401602060405180830381600087803b158015614a3957600080fd5b505af1158015614a4d573d6000803e3d6000fd5b505050506040513d601f19601f82011682018060405250810190614a719190615753565b5050614b06565b6000614a8488856157d4565b9050614a90838361579f565b811115614b04576000614aa383836157d4565b9050614aaf8882614b0f565b876001600160a01b031663d0e30db06040518163ffffffff1660e01b8152600401600060405180830381600087803b158015614aea57600080fd5b505af1158015614afe573d6000803e3d6000fd5b50505050505b505b50505050505050565b6040516001600160a01b0383169082156108fc029083906000818181858888f19350505050158015611ee6573d6000803e3d6000fd5b600081600181614b5d670de0b6b3a7640000876157eb565b614b67919061579f565b61451791906157d4565b6000610cd460006150da565b6000600b54600014614b905750600b5490565b504290565b6001600160a01b03838116600081815260066020526040808220600854915163a853ba2f60e01b8152600481019490945293919291169063a853ba2f9060240160206040518083038186803b158015614bed57600080fd5b505afa158015614c01573d6000803e3d6000fd5b505050506040513d601f19601f82011682018060405250810190614c259190615770565b6009546040516370a0823160e01b81526001600160a01b038881166004830152909116906370a082319060240160206040518083038186803b158015614c6a57600080fd5b505afa158015614c7e573d6000803e3d6000fd5b505050506040513d601f19601f82011682018060405250810190614ca29190615770565b614cac919061579f565b8254909150600090614cdc906001600160401b0380821691600160801b8104821691600160401b909104166138cc565b90506000614cf4614ced848761579f565b8690614502565b90506000614d0a82670de0b6b3a76400006157d4565b905060006001600160a01b038816614d2b57614d246122a9565b9050614d71565b6001600160a01b03881660009081526006602052604090208054614d6d906001600160401b0380821691600160801b8104821691600160401b909104166138cc565b9150505b6000614d7d84836145d5565b614d8784876145d5565b614d91919061579f565b87546fffffffffffffffff00000000000000001916600160401b6001600160401b038316021788559050614dc36114f5565b875467ffffffffffffffff19166001600160401b0391909116178755614de7614b7d565b87546001600160401b0391909116600160801b0267ffffffffffffffff60801b1990911617909655505050505050505050565b600060046000838152602001908152602001600020549050804210156040518060600160405280602181526020016158b66021913990614e6d5760405162461bcd60e51b8152600401610e3d9190615461565b5060408051808201909152600d81526c0646561646c696e65206973203609c1b602082015281614eb05760405162461bcd60e51b8152600401610e3d9190615461565b5050600090815260046020526040812055565b6000614ecf84836150ec565b6000848152602081815260409182902080546001600160a01b0319166001600160a01b038716908117909155825190815290810184905285917fd46e58ee9dc1ae703349f8c09c19f23213a531b4d57f00cfd4a5a6cb6519668d91015b60405180910390a25060019392505050565b6000614f4a84836150ec565b600084815260016020908152604091829020859055815185815290810184905285917f0e6790002e78fb96ff1fdfe3a3bb2a86489d3f3923372c1fe5b6b1fed071eed49101614f2c565b80158061501d5750604051636eb1769f60e11b81523060048201526001600160a01b03838116602483015284169063dd62ed3e9060440160206040518083038186803b158015614fe357600080fd5b505afa158015614ff7573d6000803e3d6000fd5b505050506040513d601f19601f8201168201806040525081019061501b9190615770565b155b6150885760405162461bcd60e51b815260206004820152603660248201527f5361666545524332303a20617070726f76652066726f6d206e6f6e2d7a65726f60448201527520746f206e6f6e2d7a65726f20616c6c6f77616e636560501b6064820152608401610e3d565b604080516001600160a01b038416602482015260448082018490528251808303909101815260649091019091526020810180516001600160e01b031663095ea7b360e01b179052611ee69084906151c6565b600047826115425761153f34826157d4565b6004600083815260200190815260200160002054600014604051806040016040528060128152602001710646561646c696e65206d75737420626520360741b8152509061514c5760405162461bcd60e51b8152600401610e3d9190615461565b5060408051808201909152601881527f64656c6179206265206174206c6561737420332064617973000000000000000060208201526203f4808210156151a55760405162461bcd60e51b8152600401610e3d9190615461565b506151b0814261579f565b6000928352600460205260409092209190915550565b600061521b826040518060400160405280602081526020017f5361666545524332303a206c6f772d6c6576656c2063616c6c206661696c6564815250856001600160a01b03166152989092919063ffffffff16565b805190915015611ee657808060200190518101906152399190615753565b611ee65760405162461bcd60e51b815260206004820152602a60248201527f5361666545524332303a204552433230206f7065726174696f6e20646964206e6044820152691bdd081cdd58d8d9595960b21b6064820152608401610e3d565b6060611d008484600085856001600160a01b0385163b6152fa5760405162461bcd60e51b815260206004820152601d60248201527f416464726573733a2063616c6c20746f206e6f6e2d636f6e74726163740000006044820152606401610e3d565b600080866001600160a01b03168587604051615316919061582c565b60006040518083038185875af1925050503d8060008114615353576040519150601f19603f3d011682016040523d82523d6000602084013e615358565b606091505b509150915061392682828660608315615372575081611cec565b8251156153825782518084602001fd5b8160405162461bcd60e51b8152600401610e3d9190615461565b8280546153a890615701565b90600052602060002090601f0160209004810192826153ca5760008555615410565b82601f106153e357805160ff1916838001178555615410565b82800160010185558215615410579182015b828111156154105782518255916020019190600101906153f5565b5061541c929150615420565b5090565b5b8082111561541c5760008155600101615421565b60005b83811015615450578181015183820152602001615438565b83811115612aa85750506000910152565b6020815260008251806020840152615480816040850160208701615435565b601f01601f19169190910160400192915050565b6000602082840312156154a657600080fd5b5035919050565b6001600160a01b03811681146122a657600080fd5b8035611224816154ad565b600080604083850312156154e057600080fd5b82356154eb816154ad565b946020939093013593505050565b60006020828403121561550b57600080fd5b8135611cec816154ad565b60008060006060848603121561552b57600080fd5b8335615536816154ad565b95602085013595506040909401359392505050565b634e487b7160e01b600052604160045260246000fd5b60008060006060848603121561557657600080fd5b83356001600160401b038082111561558d57600080fd5b818601915086601f8301126155a157600080fd5b8135818111156155b3576155b361554b565b604051601f8201601f19908116603f011681019083821181831017156155db576155db61554b565b816040528281528960208487010111156155f457600080fd5b82602086016020830137600060208483010152809750505050505060208401359150615622604085016154c2565b90509250925092565b80151581146122a657600080fd5b6000806040838503121561564c57600080fd5b8235615657816154ad565b915060208301356156678161562b565b809150509250929050565b6000806040838503121561568557600080fd5b50508035926020909101359150565b6000806000606084860312156156a957600080fd5b505081359360208301359350604090920135919050565b6000806000606084860312156156d557600080fd5b83356156e0816154ad565b925060208401356156f0816154ad565b929592945050506040919091013590565b600181811c9082168061571557607f821691505b6020821081141561573657634e487b7160e01b600052602260045260246000fd5b50919050565b9182526001600160a01b0316602082015260400190565b60006020828403121561576557600080fd5b8151611cec8161562b565b60006020828403121561578257600080fd5b5051919050565b634e487b7160e01b600052601160045260246000fd5b600082198211156157b2576157b2615789565b500190565b6000602082840312156157c957600080fd5b8151611cec816154ad565b6000828210156157e6576157e6615789565b500390565b600081600019048311821515161561580557615805615789565b500290565b60008261582757634e487b7160e01b600052601260045260246000fd5b500490565b6000825161583e818460208701615435565b919091019291505056fe6e6f7420656e6f7567682066756e647320776572652077697468647261776e2066726f6d2074686520706f6f6c5769746864726177616c4665654465637265617365506572696f640000000000756e617574686f72697a65642061636365737300000000000000000000000000646561646c696e6520686173206e6f74206265656e207265616368656420796574746865206d696e7465722061646472657373206f6620746865204c5020746f6b656e20616e642074686520706f6f6c206164647265737320646f206e6f74206d6174636876616c7565206d75737420626520646966666572656e7420746f206578697374696e672076616c7565a264697066735822122039bea1badc6e58ed3160dd418a2ef53a973fa5278c56252afd987839b9bd313564736f6c63430008090033",
  "linkReferences": {},
  "deployedLinkReferences": {}
}