{
  "_format": "hh-sol-artifact-1",
  "contractName": "PoolBase",
  "sourceName": "contracts/facets/PoolBase.sol",
  "abi": [
    {
      "inputs": [
        {
          "internalType": "uint256",
          "name": "_amount",
          "type": "uint256"
        },
        {
          "internalType": "contract IERC20",
          "name": "_token",
          "type": "address"
        }
      ],
      "name": "LockToToken",
      "outputs": [
        {
          "internalType": "uint256",
          "name": "",
          "type": "uint256"
        }
      ],
      "stateMutability": "view",
      "type": "function"
    },
    {
      "inputs": [
        {
          "internalType": "contract IERC20",
          "name": "_token",
          "type": "address"
        }
      ],
      "name": "LockToTokenXRate",
      "outputs": [
        {
          "internalType": "uint256",
          "name": "",
          "type": "uint256"
        }
      ],
      "stateMutability": "view",
      "type": "function"
    },
    {
      "inputs": [
        {
          "internalType": "uint256",
          "name": "_amount",
          "type": "uint256"
        },
        {
          "internalType": "contract IERC20",
          "name": "_token",
          "type": "address"
        }
      ],
      "name": "TokenToLock",
      "outputs": [
        {
          "internalType": "uint256",
          "name": "",
          "type": "uint256"
        }
      ],
      "stateMutability": "view",
      "type": "function"
    },
    {
      "inputs": [
        {
          "internalType": "contract IERC20",
          "name": "_token",
          "type": "address"
        }
      ],
      "name": "TokenToLockXRate",
      "outputs": [
        {
          "internalType": "uint256",
          "name": "",
          "type": "uint256"
        }
      ],
      "stateMutability": "view",
      "type": "function"
    },
    {
      "inputs": [
        {
          "internalType": "uint256",
          "name": "_amount",
          "type": "uint256"
        },
        {
          "internalType": "contract IERC20",
          "name": "_token",
          "type": "address"
        }
      ],
      "name": "activateCooldown",
      "outputs": [
        {
          "internalType": "uint256",
          "name": "",
          "type": "uint256"
        }
      ],
      "stateMutability": "nonpayable",
      "type": "function"
    },
    {
      "inputs": [
        {
          "internalType": "uint256",
          "name": "_id",
          "type": "uint256"
        },
        {
          "internalType": "contract IERC20",
          "name": "_token",
          "type": "address"
        }
      ],
      "name": "cancelCooldown",
      "outputs": [],
      "stateMutability": "nonpayable",
      "type": "function"
    },
    {
      "inputs": [
        {
          "internalType": "bytes32",
          "name": "_protocol",
          "type": "bytes32"
        },
        {
          "internalType": "uint256",
          "name": "_index",
          "type": "uint256"
        },
        {
          "internalType": "bool",
          "name": "_forceDebt",
          "type": "bool"
        },
        {
          "internalType": "address",
          "name": "_receiver",
          "type": "address"
        },
        {
          "internalType": "contract IERC20",
          "name": "_token",
          "type": "address"
        }
      ],
      "name": "cleanProtocol",
      "outputs": [],
      "stateMutability": "nonpayable",
      "type": "function"
    },
    {
      "inputs": [
        {
          "internalType": "bytes32",
          "name": "_protocol",
          "type": "bytes32"
        },
        {
          "internalType": "uint256",
          "name": "_amount",
          "type": "uint256"
        },
        {
          "internalType": "contract IERC20",
          "name": "_token",
          "type": "address"
        }
      ],
      "name": "depositProtocolBalance",
      "outputs": [],
      "stateMutability": "nonpayable",
      "type": "function"
    },
    {
      "inputs": [
        {
          "internalType": "bytes32",
          "name": "_protocol",
          "type": "bytes32"
        },
        {
          "internalType": "contract IERC20",
          "name": "_token",
          "type": "address"
        }
      ],
      "name": "getAccruedDebt",
      "outputs": [
        {
          "internalType": "uint256",
          "name": "",
          "type": "uint256"
        }
      ],
      "stateMutability": "view",
      "type": "function"
    },
    {
      "inputs": [
        {
          "internalType": "contract IERC20",
          "name": "_token",
          "type": "address"
        }
      ],
      "name": "getCooldownFee",
      "outputs": [
        {
          "internalType": "uint32",
          "name": "",
          "type": "uint32"
        }
      ],
      "stateMutability": "view",
      "type": "function"
    },
    {
      "inputs": [
        {
          "internalType": "contract IERC20",
          "name": "_token",
          "type": "address"
        }
      ],
      "name": "getFirstMoneyOut",
      "outputs": [
        {
          "internalType": "uint256",
          "name": "",
          "type": "uint256"
        }
      ],
      "stateMutability": "view",
      "type": "function"
    },
    {
      "inputs": [
        {
          "internalType": "contract IERC20",
          "name": "_token",
          "type": "address"
        }
      ],
      "name": "getGovPool",
      "outputs": [
        {
          "internalType": "address",
          "name": "",
          "type": "address"
        }
      ],
      "stateMutability": "view",
      "type": "function"
    },
    {
      "inputs": [
        {
          "internalType": "address",
          "name": "_staker",
          "type": "address"
        },
        {
          "internalType": "contract IERC20",
          "name": "_token",
          "type": "address"
        }
      ],
      "name": "getInitialUnstakeEntry",
      "outputs": [
        {
          "internalType": "uint256",
          "name": "",
          "type": "uint256"
        }
      ],
      "stateMutability": "view",
      "type": "function"
    },
    {
      "inputs": [
        {
          "internalType": "contract IERC20",
          "name": "_token",
          "type": "address"
        }
      ],
      "name": "getLockToken",
      "outputs": [
        {
          "internalType": "contract ILock",
          "name": "",
          "type": "address"
        }
      ],
      "stateMutability": "view",
      "type": "function"
    },
    {
      "inputs": [
        {
          "internalType": "contract IERC20",
          "name": "_token",
          "type": "address"
        }
      ],
      "name": "getPremiumLastPaid",
      "outputs": [
        {
          "internalType": "uint40",
          "name": "",
          "type": "uint40"
        }
      ],
      "stateMutability": "view",
      "type": "function"
    },
    {
      "inputs": [
        {
          "internalType": "bytes32",
          "name": "_protocol",
          "type": "bytes32"
        },
        {
          "internalType": "contract IERC20",
          "name": "_token",
          "type": "address"
        }
      ],
      "name": "getProtocolBalance",
      "outputs": [
        {
          "internalType": "uint256",
          "name": "",
          "type": "uint256"
        }
      ],
      "stateMutability": "view",
      "type": "function"
    },
    {
      "inputs": [
        {
          "internalType": "bytes32",
          "name": "_protocol",
          "type": "bytes32"
        },
        {
          "internalType": "contract IERC20",
          "name": "_token",
          "type": "address"
        }
      ],
      "name": "getProtocolPremium",
      "outputs": [
        {
          "internalType": "uint256",
          "name": "",
          "type": "uint256"
        }
      ],
      "stateMutability": "view",
      "type": "function"
    },
    {
      "inputs": [
        {
          "internalType": "contract IERC20",
          "name": "_token",
          "type": "address"
        }
      ],
      "name": "getProtocols",
      "outputs": [
        {
          "internalType": "bytes32[]",
          "name": "",
          "type": "bytes32[]"
        }
      ],
      "stateMutability": "view",
      "type": "function"
    },
    {
      "inputs": [
        {
          "internalType": "contract IERC20",
          "name": "_token",
          "type": "address"
        }
      ],
      "name": "getSherXLastAccrued",
      "outputs": [
        {
          "internalType": "uint40",
          "name": "",
          "type": "uint40"
        }
      ],
      "stateMutability": "view",
      "type": "function"
    },
    {
      "inputs": [
        {
          "internalType": "address",
          "name": "_user",
          "type": "address"
        },
        {
          "internalType": "contract IERC20",
          "name": "_token",
          "type": "address"
        }
      ],
      "name": "getSherXPerBlock",
      "outputs": [
        {
          "internalType": "uint256",
          "name": "",
          "type": "uint256"
        }
      ],
      "stateMutability": "view",
      "type": "function"
    },
    {
      "inputs": [
        {
          "internalType": "uint256",
          "name": "_lock",
          "type": "uint256"
        },
        {
          "internalType": "contract IERC20",
          "name": "_token",
          "type": "address"
        }
      ],
      "name": "getSherXPerBlock",
      "outputs": [
        {
          "internalType": "uint256",
          "name": "",
          "type": "uint256"
        }
      ],
      "stateMutability": "view",
      "type": "function"
    },
    {
      "inputs": [
        {
          "internalType": "contract IERC20",
          "name": "_token",
          "type": "address"
        }
      ],
      "name": "getSherXPerBlock",
      "outputs": [
        {
          "internalType": "uint256",
          "name": "",
          "type": "uint256"
        }
      ],
      "stateMutability": "view",
      "type": "function"
    },
    {
      "inputs": [
        {
          "internalType": "contract IERC20",
          "name": "_token",
          "type": "address"
        }
      ],
      "name": "getSherXUnderlying",
      "outputs": [
        {
          "internalType": "uint256",
          "name": "",
          "type": "uint256"
        }
      ],
      "stateMutability": "view",
      "type": "function"
    },
    {
      "inputs": [
        {
          "internalType": "contract IERC20",
          "name": "_token",
          "type": "address"
        }
      ],
      "name": "getSherXWeight",
      "outputs": [
        {
          "internalType": "uint16",
          "name": "",
          "type": "uint16"
        }
      ],
      "stateMutability": "view",
      "type": "function"
    },
    {
      "inputs": [
        {
          "internalType": "address",
          "name": "_staker",
          "type": "address"
        },
        {
          "internalType": "contract IERC20",
          "name": "_token",
          "type": "address"
        }
      ],
      "name": "getStakerPoolBalance",
      "outputs": [
        {
          "internalType": "uint256",
          "name": "",
          "type": "uint256"
        }
      ],
      "stateMutability": "view",
      "type": "function"
    },
    {
      "inputs": [
        {
          "internalType": "contract IERC20",
          "name": "_token",
          "type": "address"
        }
      ],
      "name": "getStakersPoolBalance",
      "outputs": [
        {
          "internalType": "uint256",
          "name": "",
          "type": "uint256"
        }
      ],
      "stateMutability": "view",
      "type": "function"
    },
    {
      "inputs": [
        {
          "internalType": "contract IERC20",
          "name": "_token",
          "type": "address"
        }
      ],
      "name": "getTotalAccruedDebt",
      "outputs": [
        {
          "internalType": "uint256",
          "name": "",
          "type": "uint256"
        }
      ],
      "stateMutability": "view",
      "type": "function"
    },
    {
      "inputs": [
        {
          "internalType": "contract IERC20",
          "name": "_token",
          "type": "address"
        }
      ],
      "name": "getTotalPremiumPerBlock",
      "outputs": [
        {
          "internalType": "uint256",
          "name": "",
          "type": "uint256"
        }
      ],
      "stateMutability": "view",
      "type": "function"
    },
    {
      "inputs": [
        {
          "internalType": "contract IERC20",
          "name": "_token",
          "type": "address"
        }
      ],
      "name": "getTotalSherXPerBlock",
      "outputs": [
        {
          "internalType": "uint256",
          "name": "",
          "type": "uint256"
        }
      ],
      "stateMutability": "view",
      "type": "function"
    },
    {
      "inputs": [
        {
          "internalType": "contract IERC20",
          "name": "_token",
          "type": "address"
        }
      ],
      "name": "getTotalUnmintedSherX",
      "outputs": [
        {
          "internalType": "uint256",
          "name": "",
          "type": "uint256"
        }
      ],
      "stateMutability": "view",
      "type": "function"
    },
    {
      "inputs": [
        {
          "internalType": "contract IERC20",
          "name": "_token",
          "type": "address"
        }
      ],
      "name": "getUnactivatedStakersPoolBalance",
      "outputs": [
        {
          "internalType": "uint256",
          "name": "",
          "type": "uint256"
        }
      ],
      "stateMutability": "view",
      "type": "function"
    },
    {
      "inputs": [
        {
          "internalType": "address",
          "name": "_user",
          "type": "address"
        },
        {
          "internalType": "contract IERC20",
          "name": "_token",
          "type": "address"
        }
      ],
      "name": "getUnallocatedSherXFor",
      "outputs": [
        {
          "internalType": "uint256",
          "name": "",
          "type": "uint256"
        }
      ],
      "stateMutability": "view",
      "type": "function"
    },
    {
      "inputs": [
        {
          "internalType": "contract IERC20",
          "name": "_token",
          "type": "address"
        }
      ],
      "name": "getUnallocatedSherXStored",
      "outputs": [
        {
          "internalType": "uint256",
          "name": "",
          "type": "uint256"
        }
      ],
      "stateMutability": "view",
      "type": "function"
    },
    {
      "inputs": [
        {
          "internalType": "contract IERC20",
          "name": "_token",
          "type": "address"
        }
      ],
      "name": "getUnallocatedSherXTotal",
      "outputs": [
        {
          "internalType": "uint256",
          "name": "",
          "type": "uint256"
        }
      ],
      "stateMutability": "view",
      "type": "function"
    },
    {
      "inputs": [
        {
          "internalType": "address",
          "name": "_staker",
          "type": "address"
        },
        {
          "internalType": "uint256",
          "name": "_id",
          "type": "uint256"
        },
        {
          "internalType": "contract IERC20",
          "name": "_token",
          "type": "address"
        }
      ],
      "name": "getUnstakeEntry",
      "outputs": [
        {
          "components": [
            {
              "internalType": "uint40",
              "name": "blockInitiated",
              "type": "uint40"
            },
            {
              "internalType": "uint256",
              "name": "lock",
              "type": "uint256"
            }
          ],
          "internalType": "struct PoolStorage.UnstakeEntry",
          "name": "",
          "type": "tuple"
        }
      ],
      "stateMutability": "view",
      "type": "function"
    },
    {
      "inputs": [
        {
          "internalType": "address",
          "name": "_staker",
          "type": "address"
        },
        {
          "internalType": "contract IERC20",
          "name": "_token",
          "type": "address"
        }
      ],
      "name": "getUnstakeEntrySize",
      "outputs": [
        {
          "internalType": "uint256",
          "name": "",
          "type": "uint256"
        }
      ],
      "stateMutability": "view",
      "type": "function"
    },
    {
      "inputs": [
        {
          "internalType": "contract IERC20",
          "name": "_token",
          "type": "address"
        }
      ],
      "name": "isPremium",
      "outputs": [
        {
          "internalType": "bool",
          "name": "",
          "type": "bool"
        }
      ],
      "stateMutability": "view",
      "type": "function"
    },
    {
      "inputs": [
        {
          "internalType": "bytes32",
          "name": "_protocol",
          "type": "bytes32"
        },
        {
          "internalType": "contract IERC20",
          "name": "_token",
          "type": "address"
        }
      ],
      "name": "isProtocol",
      "outputs": [
        {
          "internalType": "bool",
          "name": "",
          "type": "bool"
        }
      ],
      "stateMutability": "view",
      "type": "function"
    },
    {
      "inputs": [
        {
          "internalType": "contract IERC20",
          "name": "_token",
          "type": "address"
        }
      ],
      "name": "isStake",
      "outputs": [
        {
          "internalType": "bool",
          "name": "",
          "type": "bool"
        }
      ],
      "stateMutability": "view",
      "type": "function"
    },
    {
      "inputs": [
        {
          "internalType": "contract IERC20",
          "name": "_token",
          "type": "address"
        }
      ],
      "name": "payOffDebtAll",
      "outputs": [],
      "stateMutability": "nonpayable",
      "type": "function"
    },
    {
      "inputs": [
        {
          "internalType": "uint32",
          "name": "_fee",
          "type": "uint32"
        },
        {
          "internalType": "contract IERC20",
          "name": "_token",
          "type": "address"
        }
      ],
      "name": "setCooldownFee",
      "outputs": [],
      "stateMutability": "nonpayable",
      "type": "function"
    },
    {
      "inputs": [
        {
          "internalType": "uint256",
          "name": "_id",
          "type": "uint256"
        },
        {
          "internalType": "address",
          "name": "_receiver",
          "type": "address"
        },
        {
          "internalType": "contract IERC20",
          "name": "_token",
          "type": "address"
        }
      ],
      "name": "unstake",
      "outputs": [
        {
          "internalType": "uint256",
          "name": "amount",
          "type": "uint256"
        }
      ],
      "stateMutability": "nonpayable",
      "type": "function"
    },
    {
      "inputs": [
        {
          "internalType": "address",
          "name": "_account",
          "type": "address"
        },
        {
          "internalType": "uint256",
          "name": "_id",
          "type": "uint256"
        },
        {
          "internalType": "contract IERC20",
          "name": "_token",
          "type": "address"
        }
      ],
      "name": "unstakeWindowExpiry",
      "outputs": [],
      "stateMutability": "nonpayable",
      "type": "function"
    },
    {
      "inputs": [
        {
          "internalType": "bytes32",
          "name": "_protocol",
          "type": "bytes32"
        },
        {
          "internalType": "uint256",
          "name": "_amount",
          "type": "uint256"
        },
        {
          "internalType": "address",
          "name": "_receiver",
          "type": "address"
        },
        {
          "internalType": "contract IERC20",
          "name": "_token",
          "type": "address"
        }
      ],
      "name": "withdrawProtocolBalance",
      "outputs": [],
      "stateMutability": "nonpayable",
      "type": "function"
    }
  ],
  "bytecode": "0x608060405234801561001057600080fd5b50612f03806100206000396000f3fe608060405234801561001057600080fd5b50600436106102745760003560e01c8063742fe0d411610151578063b49d3eae116100c3578063db98f97111610087578063db98f971146105b1578063ddbe680a146105c4578063e0bd8e18146105d7578063e7b4af56146105f7578063eb544ab81461060a578063f235a9911461061d57610274565b8063b49d3eae14610552578063c3d78ce514610565578063c5aa984414610578578063c5ab97ca1461058b578063d494c5ea1461059e57610274565b80638d78ac94116101155780638d78ac94146104d3578063903d3055146104e657806391895a661461050657806399cff9c714610519578063a9ecc0dc1461052c578063b3ffdb691461053f57610274565b8063742fe0d41461046757806376fdf3eb146104875780637d6b42e11461049a578063805d2251146104ad5780638ab744fd146104c057610274565b8063323f4cb4116101ea5780634f5aa4c2116101ae5780634f5aa4c2146103f55780635b20b7b1146104085780636575b9671461041b5780636bba4b751461042e5780636e0ac47d14610441578063709c7d6f1461045457610274565b8063323f4cb414610389578063398ad7e11461039c57806342f8e1e8146103af57806343cee0a4146103cf5780634554a684146103e257610274565b80631f4717b51161023c5780631f4717b51461030857806321bcfbf41461031d5780632483c3f4146103305780632747a7ce146103435780632a13350214610356578063318800181461037657610274565b806301302fd4146102795780630b9174ee146102a25780630f62a595146102b55780631295a14f146102d55780631ac63d5b146102e8575b600080fd5b61028c6102873660046128cd565b610630565b6040516102999190612deb565b60405180910390f35b61028c6102b03660046128cd565b6107f7565b6102c86102c3366004612a42565b61092f565b6040516102999190612ad1565b61028c6102e3366004612946565b61094c565b6102fb6102f6366004612a42565b610aab565b6040516102999190612e32565b61031b610316366004612aac565b610acc565b005b61028c61032b3660046128cd565b610b33565b61028c61033e366004612946565b610ce3565b6102fb610351366004612a42565b610d02565b610369610364366004612a42565b610d1d565b6040516102999190612b18565b6102c8610384366004612a42565b610d80565b61028c610397366004612a42565b610d9a565b61028c6103aa366004612a42565b610dae565b6103c26103bd366004612a42565b610dc2565b6040516102999190612e21565b61031b6103dd366004612905565b610de3565b61028c6103f0366004612946565b610f2f565b61028c610403366004612a76565b611089565b61028c610416366004612a42565b6113ae565b61028c610429366004612a42565b611440565b61028c61043c366004612a42565b611454565b61028c61044f366004612946565b611494565b61028c610462366004612a42565b61173b565b61047a610475366004612a42565b61177d565b6040516102999190612b5c565b61028c6104953660046128cd565b611794565b61028c6104a8366004612946565b61182f565b61028c6104bb366004612a42565b6118da565b61028c6104ce366004612946565b6118ee565b61028c6104e1366004612946565b61190d565b6104f96104f4366004612905565b611951565b6040516102999190612df4565b61028c610514366004612a42565b6119c3565b61031b61052736600461296a565b6119f0565b61031b61053a366004612a42565b611b54565b61031b61054d3660046129b3565b611bc7565b61028c610560366004612a42565b611eb3565b61028c6105733660046128cd565b611ec7565b61047a610586366004612a42565b611ef4565b61028c610599366004612a42565b611f0f565b61031b6105ac366004612946565b611fa4565b61028c6105bf366004612a42565b6120c6565b61031b6105d2366004612a15565b6120da565b6105ea6105e5366004612a42565b6121bb565b6040516102999190612e12565b61028c610605366004612a42565b6121d3565b61047a610618366004612946565b6121e7565b61028c61062b366004612a42565b612209565b60008061063b612215565b90508060010160009054906101000a90046001600160a01b03166001600160a01b03166318160ddd6040518163ffffffff1660e01b815260040160206040518083038186803b15801561068d57600080fd5b505afa1580156106a1573d6000803e3d6000fd5b505050506040513d601f19601f820116820180604052508101906106c59190612a5e565b6106d35760009150506107f1565b6001810154604080516318160ddd60e01b815290516107ed926001600160a01b0316916318160ddd916004808301926020929190829003018186803b15801561071b57600080fd5b505afa15801561072f573d6000803e3d6000fd5b505050506040513d601f19601f820116820180604052508101906107539190612a5e565b6107e761075f86611454565b60018501546040516370a0823160e01b81526001600160a01b03909116906370a0823190610791908b90600401612ad1565b60206040518083038186803b1580156107a957600080fd5b505afa1580156107bd573d6000803e3d6000fd5b505050506040513d601f19601f820116820180604052508101906107e19190612a5e565b90612254565b906122ad565b9150505b92915050565b600080610802612215565b9050600061080e612314565b905060005b6001600160a01b0386166000908152600384016020526040902054811015610909576001600160a01b0386166000908152600384016020526040902080548290811061085b57fe5b600091825260209091206002909102015464ffffffffff1661087c57610901565b6003808301546001600160a01b03881660009081529185016020526040909120805464ffffffffff43811693650100000000008104821693911691859081106108c157fe5b906000526020600020906002020160000160009054906101000a900464ffffffffff16010164ffffffffff16116108f757610901565b92506107f1915050565b600101610813565b50506001600160a01b038416600090815260039091016020526040902054905092915050565b6000610939612215565b600101546001600160a01b031692915050565b600080610957612215565b9050600073__$f06c55dfbaf779ce4e61bb81add28e8f1b$__6399cdee63836040518263ffffffff1660e01b81526004016109929190612deb565b60206040518083038186803b1580156109aa57600080fd5b505af41580156109be573d6000803e3d6000fd5b505050506040513d601f19601f820116820180604052508101906109e29190612a5e565b905060008260010160009054906101000a90046001600160a01b03166001600160a01b03166318160ddd6040518163ffffffff1660e01b815260040160206040518083038186803b158015610a3657600080fd5b505afa158015610a4a573d6000803e3d6000fd5b505050506040513d601f19601f82011682018060405250810190610a6e9190612a5e565b9050801580610a7b575081155b15610a9357670de0b6b3a764000093505050506107f1565b610aa1826107e78389612254565b9695505050505050565b6000610ab5612215565b6006015462010000900464ffffffffff1692915050565b610ad4612314565b546001600160a01b03163314610b055760405162461bcd60e51b8152600401610afc90612c12565b60405180910390fd5b81610b0e612215565b60010160146101000a81548163ffffffff021916908363ffffffff1602179055505050565b600080610b3e612215565b90508060010160009054906101000a90046001600160a01b03166001600160a01b03166318160ddd6040518163ffffffff1660e01b815260040160206040518083038186803b158015610b9057600080fd5b505afa158015610ba4573d6000803e3d6000fd5b505050506040513d601f19601f82011682018060405250810190610bc89190612a5e565b610bd65760009150506107f1565b6001810154604080516318160ddd60e01b815290516107ed926001600160a01b0316916318160ddd916004808301926020929190829003018186803b158015610c1e57600080fd5b505afa158015610c32573d6000803e3d6000fd5b505050506040513d601f19601f82011682018060405250810190610c569190612a5e565b60018301546040516370a0823160e01b81526107e7916001600160a01b0316906370a0823190610c8a908a90600401612ad1565b60206040518083038186803b158015610ca257600080fd5b505afa158015610cb6573d6000803e3d6000fd5b505050506040513d601f19601f82011682018060405250810190610cda9190612a5e565b6107e1876119c3565b6000610ced612215565b6000938452600b016020525050604090205490565b6000610d0c612215565b600d015464ffffffffff1692915050565b6060610d27612215565b601001805480602002602001604051908101604052809291908181526020018280548015610d7457602002820191906000526020600020905b815481526020019060010190808311610d60575b50505050509050919050565b6000610d8a612215565b546001600160a01b031692915050565b6000610da4612215565b600c015492915050565b6000610db8612215565b6002015492915050565b6000610dcc612215565b60010154600160a01b900463ffffffff1692915050565b6000610ded612215565b90506000610df9612314565b6001600160a01b038616600090815260038401602052604081208054929350909186908110610e2457fe5b600091825260209182902060408051808201909152600290920201805464ffffffffff16808352600190910154928201929092529150610e765760405162461bcd60e51b8152600401610afc90612d45565b600382015481514364ffffffffff90811665010000000000840482169382169092019290920190911610610ebc5760405162461bcd60e51b8152600401610afc90612d72565b6001600160a01b03861660009081526003840160205260409020805486908110610ee257fe5b600091825260208083206002909202909101805464ffffffffff1916815560019081019290925582015190840154610f27916001600160a01b03909116908890612338565b505050505050565b600080610f3a612215565b9050600073__$f06c55dfbaf779ce4e61bb81add28e8f1b$__6399cdee63836040518263ffffffff1660e01b8152600401610f759190612deb565b60206040518083038186803b158015610f8d57600080fd5b505af4158015610fa1573d6000803e3d6000fd5b505050506040513d601f19601f82011682018060405250810190610fc59190612a5e565b905060008260010160009054906101000a90046001600160a01b03166001600160a01b03166318160ddd6040518163ffffffff1660e01b815260040160206040518083038186803b15801561101957600080fd5b505afa15801561102d573d6000803e3d6000fd5b505050506040513d601f19601f820116820180604052508101906110519190612a5e565b905080158061105e575081155b1561107b5760405162461bcd60e51b8152600401610afc90612c38565b610aa1816107e78489612254565b600080611094612215565b90506001600160a01b0384166110bc5760405162461bcd60e51b8152600401610afc90612ca8565b60006110c6612314565b336000908152600384016020526040812080549293509091889081106110e857fe5b600091825260209182902060408051808201909152600290920201805464ffffffffff1680835260019091015492820192909252915061113a5760405162461bcd60e51b8152600401610afc90612d45565b6003820154815164ffffffffff43811692811691909101161061116f5760405162461bcd60e51b8152600401610afc90612b7e565b600382015481514364ffffffffff90811665010000000000840482169382169092019290920190911610156111b65760405162461bcd60e51b8152600401610afc90612c59565b6001830154604080516318160ddd60e01b815290516112cc926001600160a01b0316916318160ddd916004808301926020929190829003018186803b1580156111fe57600080fd5b505afa158015611212573d6000803e3d6000fd5b505050506040513d601f19601f820116820180604052508101906112369190612a5e565b6040516399cdee6360e01b81526107e79073__$f06c55dfbaf779ce4e61bb81add28e8f1b$__906399cdee6390611271908990600401612deb565b60206040518083038186803b15801561128957600080fd5b505af415801561129d573d6000803e3d6000fd5b505050506040513d601f19601f820116820180604052508101906112c19190612a5e565b602085015190612254565b60028401549094506112de908561238f565b6002840155336000908152600384016020526040902080548890811061130057fe5b600091825260208083206002909202909101805464ffffffffff191681556001908101929092559084015490820151604051632770a7eb60e21b81526001600160a01b0390921691639dc29fac9161135d91309190600401612aff565b600060405180830381600087803b15801561137757600080fd5b505af115801561138b573d6000803e3d6000fd5b506113a4925050506001600160a01b0386168786612338565b5050509392505050565b60006113b8612215565b506040516308e3dd9560e41b815273__$f06c55dfbaf779ce4e61bb81add28e8f1b$__90638e3dd950906113f0908590600401612ad1565b60206040518083038186803b15801561140857600080fd5b505af415801561141c573d6000803e3d6000fd5b505050506040513d601f19601f820116820180604052508101906107f19190612a5e565b60006107f1670de0b6b3a76400008361094c565b600073__$f06c55dfbaf779ce4e61bb81add28e8f1b$__6399cdee63611478612215565b6040518263ffffffff1660e01b81526004016113f09190612deb565b60008083116114b55760405162461bcd60e51b8152600401610afc90612ba7565b60006114bf612215565b60018101549091506114dc906001600160a01b03163330876123ec565b60018101546000906115049063ffffffff906107e7908890600160a01b900483166122548416565b905080156116ac57600061162b8360010160009054906101000a90046001600160a01b03166001600160a01b03166318160ddd6040518163ffffffff1660e01b815260040160206040518083038186803b15801561156157600080fd5b505afa158015611575573d6000803e3d6000fd5b505050506040513d601f19601f820116820180604052508101906115999190612a5e565b6040516399cdee6360e01b81526107e79073__$f06c55dfbaf779ce4e61bb81add28e8f1b$__906399cdee63906115d4908990600401612deb565b60206040518083038186803b1580156115ec57600080fd5b505af4158015611600573d6000803e3d6000fd5b505050506040513d601f19601f820116820180604052508101906116249190612a5e565b8590612254565b600484015490915061163d908261244c565b6004808501919091556001840154604051632770a7eb60e21b81526001600160a01b0390911691639dc29fac91611678913091879101612aff565b600060405180830381600087803b15801561169257600080fd5b505af11580156116a6573d6000803e3d6000fd5b50505050505b336000908152600383016020908152604091829020825180840190935264ffffffffff43168352919081016116e1888561238f565b9052815460018082018455600093845260208085208451600290940201805464ffffffffff191664ffffffffff90941693909317835592830151910155338252600393909301909252506040902054600019019392505050565b6000611745612215565b50604051630edacfd560e01b815273__$f06c55dfbaf779ce4e61bb81add28e8f1b$__90630edacfd5906113f0908590600401612ad1565b6000611787612215565b6009015460ff1692915050565b600061179e612215565b5060405163263f358f60e11b815273__$f06c55dfbaf779ce4e61bb81add28e8f1b$__90634c7e6b1e906117d89086908690600401612ae5565b60206040518083038186803b1580156117f057600080fd5b505af4158015611804573d6000803e3d6000fd5b505050506040513d601f19601f820116820180604052508101906118289190612a5e565b9392505050565b60006118286118cd84611840612215565b60010160009054906101000a90046001600160a01b03166001600160a01b03166318160ddd6040518163ffffffff1660e01b815260040160206040518083038186803b15801561188f57600080fd5b505afa1580156118a3573d6000803e3d6000fd5b505050506040513d601f19601f820116820180604052508101906118c79190612a5e565b9061244c565b6107e7856107e1866119c3565b60006118e4612215565b6005015492915050565b60006118f8612215565b6000938452600a016020525050604090205490565b6000611917612215565b5060405163056f4b1360e01b815273__$f06c55dfbaf779ce4e61bb81add28e8f1b$__9063056f4b13906117d89086908690600401612b67565b6119596128b6565b611961612215565b6001600160a01b03851660009081526003919091016020526040902080548490811061198957fe5b600091825260209182902060408051808201909152600290920201805464ffffffffff168252600101549181019190915290509392505050565b60006107f161ffff6107e76119d6612215565b6006015461ffff166119e66124a6565b6004015490612254565b6119f8612314565b600085815260029190910160205260409020546001600160a01b03163314611a325760405162461bcd60e51b8152600401610afc90612da9565b60008311611a525760405162461bcd60e51b8152600401610afc90612ba7565b6001600160a01b038216611a785760405162461bcd60e51b8152600401610afc90612ca8565b6000611a82612215565b6040516302d2675160e11b815290915073__$f06c55dfbaf779ce4e61bb81add28e8f1b$__906305a4cea290611abc908590600401612ad1565b60006040518083038186803b158015611ad457600080fd5b505af4158015611ae8573d6000803e3d6000fd5b50505050600019841415611b0a576000858152600a8201602052604090205493505b611b1e6001600160a01b0383168486612338565b6000858152600a82016020526040902054611b39908561238f565b6000958652600a909101602052604090942093909355505050565b611b5c612215565b506040516302d2675160e11b815273__$f06c55dfbaf779ce4e61bb81add28e8f1b$__906305a4cea290611b94908490600401612ad1565b60006040518083038186803b158015611bac57600080fd5b505af4158015611bc0573d6000803e3d6000fd5b5050505050565b611bcf612314565b546001600160a01b03163314611bf75760405162461bcd60e51b8152600401610afc90612c12565b6001600160a01b038216611c1d5760405162461bcd60e51b8152600401610afc90612ca8565b6000611c27612215565b905085816010018681548110611c3957fe5b906000526020600020015414611c615760405162461bcd60e51b8152600401610afc90612c89565b60405163056f4b1360e01b815260009073__$f06c55dfbaf779ce4e61bb81add28e8f1b$__9063056f4b1390611c9d908a908790600401612b67565b60206040518083038186803b158015611cb557600080fd5b505af4158015611cc9573d6000803e3d6000fd5b505050506040513d601f19601f82011682018060405250810190611ced9190612a5e565b905080611d27576000878152600b8301602052604090205415611d225760405162461bcd60e51b8152600401610afc90612d1d565b611d56565b6000878152600a830160205260409020548111611d565760405162461bcd60e51b8152600401610afc90612cca565b848015611d635750600081115b15611d9e576000878152600a83016020526040902054600e830154611d879161244c565b600e8301556000878152600a830160205260408120555b6000878152600a8301602052604090205415611ded576000878152600a83016020526040902054611ddb906001600160a01b038516908690612338565b6000878152600a830160205260408120555b6010820180546000198101908110611e0157fe5b9060005260206000200154826010018781548110611e1b57fe5b60009182526020909120015560108201805480611e3457fe5b600082815260208082208301600019908101839055909201909255888252600f840181526040808320805460ff19169055600b850190915290205415611eaa576000878152600b83016020526040902054600c830154611e939161238f565b600c8301556000878152600b830160205260408120555b50505050505050565b60006107f1670de0b6b3a764000083610f2f565b6000611ed1612215565b6001600160a01b0393909316600090815260039093016020525050604090205490565b6000611efe612215565b54600160a01b900460ff1692915050565b60006107f173__$f06c55dfbaf779ce4e61bb81add28e8f1b$__630edacfd5846040518263ffffffff1660e01b8152600401611f4b9190612ad1565b60206040518083038186803b158015611f6357600080fd5b505af4158015611f77573d6000803e3d6000fd5b505050506040513d601f19601f82011682018060405250810190611f9b9190612a5e565b6118c7846118da565b6000611fae612215565b90506000611fba612314565b33600090815260038401602052604081208054929350909186908110611fdc57fe5b600091825260209182902060408051808201909152600290920201805464ffffffffff1680835260019091015492820192909252915061202e5760405162461bcd60e51b8152600401610afc90612d45565b6003820154815164ffffffffff438116928116919091011610156120645760405162461bcd60e51b8152600401610afc90612cf3565b336000908152600384016020526040902080548690811061208157fe5b600091825260208083206002909202909101805464ffffffffff1916815560019081019290925582015190840154611bc0916001600160a01b03909116903390612338565b60006120d0612215565b6004015492915050565b600082116120fa5760405162461bcd60e51b8152600401610afc90612ba7565b612102612314565b6000848152600491909101602052604090205460ff166121345760405162461bcd60e51b8152600401610afc90612dc9565b600061213e612215565b6000858152600f8201602052604090205490915060ff166121715760405162461bcd60e51b8152600401610afc90612bee565b6121866001600160a01b0383163330866123ec565b6000848152600a820160205260409020546121a1908461244c565b6000948552600a9091016020526040909320929092555050565b60006121c5612215565b6006015461ffff1692915050565b60006121dd612215565b600e015492915050565b60006121f1612215565b6000938452600f016020525050604090205460ff1690565b60006107f13383610b33565b60006122276122226124ca565b612516565b80549091506001600160a01b03166122515760405162461bcd60e51b8152600401610afc90612bc7565b90565b600082612263575060006107f1565b8282028284828161227057fe5b04146118285760405162461bcd60e51b8152600401808060200182810382526021815260200180612e836021913960400191505060405180910390fd5b6000808211612303576040805162461bcd60e51b815260206004820152601a60248201527f536166654d6174683a206469766973696f6e206279207a65726f000000000000604482015290519081900360640190fd5b81838161230c57fe5b049392505050565b7f190488561d88e36f1e28cbe7392dc28aedf700281c58bde4049b57fb87e2944c90565b604080516001600160a01b038416602482015260448082018490528251808303909101815260649091019091526020810180516001600160e01b031663a9059cbb60e01b17905261238a9084906125e9565b505050565b6000828211156123e6576040805162461bcd60e51b815260206004820152601e60248201527f536166654d6174683a207375627472616374696f6e206f766572666c6f770000604482015290519081900360640190fd5b50900390565b604080516001600160a01b0380861660248301528416604482015260648082018490528251808303909101815260849091019091526020810180516001600160e01b03166323b872dd60e01b1790526124469085906125e9565b50505050565b600082820183811015611828576040805162461bcd60e51b815260206004820152601b60248201527f536166654d6174683a206164646974696f6e206f766572666c6f770000000000604482015290519081900360640190fd5b7fcdaab98845a65ea47b0852a56cf7039170a5285c240d3bfde826581682c8fcd590565b6000806000368080601f0160208091040260200160405190810160405280939291908181526020018383808284376000920191909152505050503601516001600160a01b031692915050565b600080604051806040016040528060168152602001753234b0b6b7b7321739b432b93637b1b5973837b7b61760511b815250836040516020018080602001836001600160a01b03168152602001828103825284818151815260200191508051906020019080838360005b83811015612598578181015183820152602001612580565b50505050905090810190601f1680156125c55780820380516001836020036101000a031916815260200191505b5060408051601f198184030181529190528051602090910120979650505050505050565b600061263e826040518060400160405280602081526020017f5361666545524332303a206c6f772d6c6576656c2063616c6c206661696c6564815250856001600160a01b031661269a9092919063ffffffff16565b80519091501561238a5780806020019051602081101561265d57600080fd5b505161238a5760405162461bcd60e51b815260040180806020018281038252602a815260200180612ea4602a913960400191505060405180910390fd5b60606126a984846000856126b1565b949350505050565b6060824710156126f25760405162461bcd60e51b8152600401808060200182810382526026815260200180612e5d6026913960400191505060405180910390fd5b6126fb8561280c565b61274c576040805162461bcd60e51b815260206004820152601d60248201527f416464726573733a2063616c6c20746f206e6f6e2d636f6e7472616374000000604482015290519081900360640190fd5b600080866001600160a01b031685876040518082805190602001908083835b6020831061278a5780518252601f19909201916020918201910161276b565b6001836020036101000a03801982511681845116808217855250505050505090500191505060006040518083038185875af1925050503d80600081146127ec576040519150601f19603f3d011682016040523d82523d6000602084013e6127f1565b606091505b5091509150612801828286612812565b979650505050505050565b3b151590565b60608315612821575081611828565b8251156128315782518084602001fd5b8160405162461bcd60e51b81526004018080602001828103825283818151815260200191508051906020019080838360005b8381101561287b578181015183820152602001612863565b50505050905090810190601f1680156128a85780820380516001836020036101000a031916815260200191505b509250505060405180910390fd5b604080518082019091526000808252602082015290565b600080604083850312156128df578182fd5b82356128ea81612e44565b915060208301356128fa81612e44565b809150509250929050565b600080600060608486031215612919578081fd5b833561292481612e44565b925060208401359150604084013561293b81612e44565b809150509250925092565b60008060408385031215612958578182fd5b8235915060208301356128fa81612e44565b6000806000806080858703121561297f578081fd5b8435935060208501359250604085013561299881612e44565b915060608501356129a881612e44565b939692955090935050565b600080600080600060a086880312156129ca578081fd5b8535945060208601359350604086013580151581146129e7578182fd5b925060608601356129f781612e44565b91506080860135612a0781612e44565b809150509295509295909350565b600080600060608486031215612a29578283fd5b8335925060208401359150604084013561293b81612e44565b600060208284031215612a53578081fd5b813561182881612e44565b600060208284031215612a6f578081fd5b5051919050565b600080600060608486031215612a8a578283fd5b833592506020840135612a9c81612e44565b9150604084013561293b81612e44565b60008060408385031215612abe578182fd5b823563ffffffff811681146128ea578283fd5b6001600160a01b0391909116815260200190565b6001600160a01b0392831681529116602082015260400190565b6001600160a01b03929092168252602082015260400190565b6020808252825182820181905260009190848201906040850190845b81811015612b5057835183529284019291840191600101612b34565b50909695505050505050565b901515815260200190565b9182526001600160a01b0316602082015260400190565b6020808252600f908201526e434f4f4c444f574e5f41435449564560881b604082015260600190565b602080825260069082015265105353d5539560d21b604082015260600190565b6020808252600d908201526c24a72b20a624a22faa27a5a2a760991b604082015260600190565b6020808252600a90820152691393d7d1115413d4d25560b21b604082015260600190565b6020808252600c908201526b2727aa2fa3a7ab2fa6a0a4a760a11b604082015260600190565b6020808252600790820152664e4f5f4441544160c81b604082015260600190565b602080825260169082015275155394d51052d157d5d2539113d5d7d156141254915160521b604082015260600190565b6020808252600590820152640929c888ab60db1b604082015260600190565b6020808252600890820152672922a1a2a4ab22a960c11b604082015260600190565b6020808252600f908201526e21a0a72fa727aa2fa222a622aa229960891b604082015260600190565b60208082526010908201526f10d3d3d31113d5d397d156141254915160821b604082015260600190565b6020808252600e908201526d43414e5f4e4f545f44454c45544560901b604082015260600190565b60208082526013908201527257495448445241575f4e4f545f41435449564560681b604082015260600190565b6020808252601a908201527f554e5354414b455f57494e444f575f4e4f545f45585049524544000000000000604082015260600190565b60208082526006908201526529a2a72222a960d11b604082015260600190565b602080825260089082015267141493d513d0d3d360c21b604082015260600190565b90815260200190565b815164ffffffffff1681526020918201519181019190915260400190565b61ffff91909116815260200190565b63ffffffff91909116815260200190565b64ffffffffff91909116815260200190565b6001600160a01b0381168114612e5957600080fd5b5056fe416464726573733a20696e73756666696369656e742062616c616e636520666f722063616c6c536166654d6174683a206d756c7469706c69636174696f6e206f766572666c6f775361666545524332303a204552433230206f7065726174696f6e20646964206e6f742073756363656564a264697066735822122006433ae59b6a6eb43d1e050131f3108736be2d126a47057736ccd0e667ea223564736f6c63430007060033",
  "linkReferences": {
    "contracts/libraries/LibPool.sol": {
      "LibPool": [
        {
          "length": 20,
          "start": 2429
        },
        {
          "length": 20,
          "start": 3936
        },
        {
          "length": 20,
          "start": 4713
        },
        {
          "length": 20,
          "start": 5096
        },
        {
          "length": 20,
          "start": 5240
        },
        {
          "length": 20,
          "start": 5580
        },
        {
          "length": 20,
          "start": 6005
        },
        {
          "length": 20,
          "start": 6094
        },
        {
          "length": 20,
          "start": 6471
        },
        {
          "length": 20,
          "start": 6836
        },
        {
          "length": 20,
          "start": 7052
        },
        {
          "length": 20,
          "start": 7315
        },
        {
          "length": 20,
          "start": 7990
        }
      ]
    }
  },
  "deployedLinkReferences": {
    "contracts/libraries/LibPool.sol": {
      "LibPool": [
        {
          "length": 20,
          "start": 2397
        },
        {
          "length": 20,
          "start": 3904
        },
        {
          "length": 20,
          "start": 4681
        },
        {
          "length": 20,
          "start": 5064
        },
        {
          "length": 20,
          "start": 5208
        },
        {
          "length": 20,
          "start": 5548
        },
        {
          "length": 20,
          "start": 5973
        },
        {
          "length": 20,
          "start": 6062
        },
        {
          "length": 20,
          "start": 6439
        },
        {
          "length": 20,
          "start": 6804
        },
        {
          "length": 20,
          "start": 7020
        },
        {
          "length": 20,
          "start": 7283
        },
        {
          "length": 20,
          "start": 7958
        }
      ]
    }
  }
}