{
  "_format": "hh-sol-artifact-1",
  "contractName": "StakePrizePool",
  "sourceName": "contracts/prize-pool/StakePrizePool.sol",
  "abi": [
    {
      "inputs": [
        {
          "internalType": "address",
          "name": "_owner",
          "type": "address"
        },
        {
          "internalType": "contract IERC20",
          "name": "_stakeToken",
          "type": "address"
        }
      ],
      "stateMutability": "nonpayable",
      "type": "constructor"
    },
    {
      "anonymous": false,
      "inputs": [
        {
          "indexed": false,
          "internalType": "uint256",
          "name": "amount",
          "type": "uint256"
        }
      ],
      "name": "AwardCaptured",
      "type": "event"
    },
    {
      "anonymous": false,
      "inputs": [
        {
          "indexed": true,
          "internalType": "address",
          "name": "winner",
          "type": "address"
        },
        {
          "indexed": true,
          "internalType": "contract ITicket",
          "name": "token",
          "type": "address"
        },
        {
          "indexed": false,
          "internalType": "uint256",
          "name": "amount",
          "type": "uint256"
        }
      ],
      "name": "Awarded",
      "type": "event"
    },
    {
      "anonymous": false,
      "inputs": [
        {
          "indexed": true,
          "internalType": "address",
          "name": "winner",
          "type": "address"
        },
        {
          "indexed": true,
          "internalType": "address",
          "name": "token",
          "type": "address"
        },
        {
          "indexed": false,
          "internalType": "uint256",
          "name": "amount",
          "type": "uint256"
        }
      ],
      "name": "AwardedExternalERC20",
      "type": "event"
    },
    {
      "anonymous": false,
      "inputs": [
        {
          "indexed": true,
          "internalType": "address",
          "name": "winner",
          "type": "address"
        },
        {
          "indexed": true,
          "internalType": "address",
          "name": "token",
          "type": "address"
        },
        {
          "indexed": false,
          "internalType": "uint256[]",
          "name": "tokenIds",
          "type": "uint256[]"
        }
      ],
      "name": "AwardedExternalERC721",
      "type": "event"
    },
    {
      "anonymous": false,
      "inputs": [
        {
          "indexed": false,
          "internalType": "uint256",
          "name": "balanceCap",
          "type": "uint256"
        }
      ],
      "name": "BalanceCapSet",
      "type": "event"
    },
    {
      "anonymous": false,
      "inputs": [
        {
          "indexed": true,
          "internalType": "contract ITicket",
          "name": "token",
          "type": "address"
        }
      ],
      "name": "ControlledTokenAdded",
      "type": "event"
    },
    {
      "anonymous": false,
      "inputs": [
        {
          "indexed": true,
          "internalType": "contract IERC20",
          "name": "stakeToken",
          "type": "address"
        }
      ],
      "name": "Deployed",
      "type": "event"
    },
    {
      "anonymous": false,
      "inputs": [
        {
          "indexed": true,
          "internalType": "address",
          "name": "operator",
          "type": "address"
        },
        {
          "indexed": true,
          "internalType": "address",
          "name": "to",
          "type": "address"
        },
        {
          "indexed": true,
          "internalType": "contract ITicket",
          "name": "token",
          "type": "address"
        },
        {
          "indexed": false,
          "internalType": "uint256",
          "name": "amount",
          "type": "uint256"
        }
      ],
      "name": "Deposited",
      "type": "event"
    },
    {
      "anonymous": false,
      "inputs": [
        {
          "indexed": false,
          "internalType": "bytes",
          "name": "error",
          "type": "bytes"
        }
      ],
      "name": "ErrorAwardingExternalERC721",
      "type": "event"
    },
    {
      "anonymous": false,
      "inputs": [
        {
          "indexed": false,
          "internalType": "uint256",
          "name": "liquidityCap",
          "type": "uint256"
        }
      ],
      "name": "LiquidityCapSet",
      "type": "event"
    },
    {
      "anonymous": false,
      "inputs": [
        {
          "indexed": true,
          "internalType": "address",
          "name": "pendingOwner",
          "type": "address"
        }
      ],
      "name": "OwnershipOffered",
      "type": "event"
    },
    {
      "anonymous": false,
      "inputs": [
        {
          "indexed": true,
          "internalType": "address",
          "name": "previousOwner",
          "type": "address"
        },
        {
          "indexed": true,
          "internalType": "address",
          "name": "newOwner",
          "type": "address"
        }
      ],
      "name": "OwnershipTransferred",
      "type": "event"
    },
    {
      "anonymous": false,
      "inputs": [
        {
          "indexed": true,
          "internalType": "address",
          "name": "prizeStrategy",
          "type": "address"
        }
      ],
      "name": "PrizeStrategySet",
      "type": "event"
    },
    {
      "anonymous": false,
      "inputs": [
        {
          "indexed": true,
          "internalType": "contract ITicket",
          "name": "ticket",
          "type": "address"
        }
      ],
      "name": "TicketSet",
      "type": "event"
    },
    {
      "anonymous": false,
      "inputs": [
        {
          "indexed": true,
          "internalType": "address",
          "name": "to",
          "type": "address"
        },
        {
          "indexed": true,
          "internalType": "address",
          "name": "token",
          "type": "address"
        },
        {
          "indexed": false,
          "internalType": "uint256",
          "name": "amount",
          "type": "uint256"
        }
      ],
      "name": "TransferredExternalERC20",
      "type": "event"
    },
    {
      "anonymous": false,
      "inputs": [
        {
          "indexed": true,
          "internalType": "address",
          "name": "operator",
          "type": "address"
        },
        {
          "indexed": true,
          "internalType": "address",
          "name": "from",
          "type": "address"
        },
        {
          "indexed": true,
          "internalType": "contract ITicket",
          "name": "token",
          "type": "address"
        },
        {
          "indexed": false,
          "internalType": "uint256",
          "name": "amount",
          "type": "uint256"
        },
        {
          "indexed": false,
          "internalType": "uint256",
          "name": "redeemed",
          "type": "uint256"
        }
      ],
      "name": "Withdrawal",
      "type": "event"
    },
    {
      "inputs": [],
      "name": "VERSION",
      "outputs": [
        {
          "internalType": "string",
          "name": "",
          "type": "string"
        }
      ],
      "stateMutability": "view",
      "type": "function"
    },
    {
      "inputs": [
        {
          "internalType": "address",
          "name": "_to",
          "type": "address"
        },
        {
          "internalType": "uint256",
          "name": "_amount",
          "type": "uint256"
        }
      ],
      "name": "award",
      "outputs": [],
      "stateMutability": "nonpayable",
      "type": "function"
    },
    {
      "inputs": [],
      "name": "awardBalance",
      "outputs": [
        {
          "internalType": "uint256",
          "name": "",
          "type": "uint256"
        }
      ],
      "stateMutability": "view",
      "type": "function"
    },
    {
      "inputs": [
        {
          "internalType": "address",
          "name": "_to",
          "type": "address"
        },
        {
          "internalType": "address",
          "name": "_externalToken",
          "type": "address"
        },
        {
          "internalType": "uint256",
          "name": "_amount",
          "type": "uint256"
        }
      ],
      "name": "awardExternalERC20",
      "outputs": [],
      "stateMutability": "nonpayable",
      "type": "function"
    },
    {
      "inputs": [
        {
          "internalType": "address",
          "name": "_to",
          "type": "address"
        },
        {
          "internalType": "address",
          "name": "_externalToken",
          "type": "address"
        },
        {
          "internalType": "uint256[]",
          "name": "_tokenIds",
          "type": "uint256[]"
        }
      ],
      "name": "awardExternalERC721",
      "outputs": [],
      "stateMutability": "nonpayable",
      "type": "function"
    },
    {
      "inputs": [],
      "name": "balance",
      "outputs": [
        {
          "internalType": "uint256",
          "name": "",
          "type": "uint256"
        }
      ],
      "stateMutability": "nonpayable",
      "type": "function"
    },
    {
      "inputs": [
        {
          "internalType": "address",
          "name": "_externalToken",
          "type": "address"
        }
      ],
      "name": "canAwardExternal",
      "outputs": [
        {
          "internalType": "bool",
          "name": "",
          "type": "bool"
        }
      ],
      "stateMutability": "view",
      "type": "function"
    },
    {
      "inputs": [],
      "name": "captureAwardBalance",
      "outputs": [
        {
          "internalType": "uint256",
          "name": "",
          "type": "uint256"
        }
      ],
      "stateMutability": "nonpayable",
      "type": "function"
    },
    {
      "inputs": [],
      "name": "claimOwnership",
      "outputs": [],
      "stateMutability": "nonpayable",
      "type": "function"
    },
    {
      "inputs": [
        {
          "internalType": "contract ICompLike",
          "name": "_compLike",
          "type": "address"
        },
        {
          "internalType": "address",
          "name": "_to",
          "type": "address"
        }
      ],
      "name": "compLikeDelegate",
      "outputs": [],
      "stateMutability": "nonpayable",
      "type": "function"
    },
    {
      "inputs": [
        {
          "internalType": "address",
          "name": "_to",
          "type": "address"
        },
        {
          "internalType": "uint256",
          "name": "_amount",
          "type": "uint256"
        }
      ],
      "name": "depositTo",
      "outputs": [],
      "stateMutability": "nonpayable",
      "type": "function"
    },
    {
      "inputs": [
        {
          "internalType": "address",
          "name": "_to",
          "type": "address"
        },
        {
          "internalType": "uint256",
          "name": "_amount",
          "type": "uint256"
        },
        {
          "internalType": "address",
          "name": "_delegate",
          "type": "address"
        }
      ],
      "name": "depositToAndDelegate",
      "outputs": [],
      "stateMutability": "nonpayable",
      "type": "function"
    },
    {
      "inputs": [],
      "name": "getAccountedBalance",
      "outputs": [
        {
          "internalType": "uint256",
          "name": "",
          "type": "uint256"
        }
      ],
      "stateMutability": "view",
      "type": "function"
    },
    {
      "inputs": [],
      "name": "getBalanceCap",
      "outputs": [
        {
          "internalType": "uint256",
          "name": "",
          "type": "uint256"
        }
      ],
      "stateMutability": "view",
      "type": "function"
    },
    {
      "inputs": [],
      "name": "getLiquidityCap",
      "outputs": [
        {
          "internalType": "uint256",
          "name": "",
          "type": "uint256"
        }
      ],
      "stateMutability": "view",
      "type": "function"
    },
    {
      "inputs": [],
      "name": "getPrizeStrategy",
      "outputs": [
        {
          "internalType": "address",
          "name": "",
          "type": "address"
        }
      ],
      "stateMutability": "view",
      "type": "function"
    },
    {
      "inputs": [],
      "name": "getTicket",
      "outputs": [
        {
          "internalType": "contract ITicket",
          "name": "",
          "type": "address"
        }
      ],
      "stateMutability": "view",
      "type": "function"
    },
    {
      "inputs": [],
      "name": "getToken",
      "outputs": [
        {
          "internalType": "address",
          "name": "",
          "type": "address"
        }
      ],
      "stateMutability": "view",
      "type": "function"
    },
    {
      "inputs": [
        {
          "internalType": "contract ITicket",
          "name": "_controlledToken",
          "type": "address"
        }
      ],
      "name": "isControlled",
      "outputs": [
        {
          "internalType": "bool",
          "name": "",
          "type": "bool"
        }
      ],
      "stateMutability": "view",
      "type": "function"
    },
    {
      "inputs": [
        {
          "internalType": "address",
          "name": "",
          "type": "address"
        },
        {
          "internalType": "address",
          "name": "",
          "type": "address"
        },
        {
          "internalType": "uint256",
          "name": "",
          "type": "uint256"
        },
        {
          "internalType": "bytes",
          "name": "",
          "type": "bytes"
        }
      ],
      "name": "onERC721Received",
      "outputs": [
        {
          "internalType": "bytes4",
          "name": "",
          "type": "bytes4"
        }
      ],
      "stateMutability": "pure",
      "type": "function"
    },
    {
      "inputs": [],
      "name": "owner",
      "outputs": [
        {
          "internalType": "address",
          "name": "",
          "type": "address"
        }
      ],
      "stateMutability": "view",
      "type": "function"
    },
    {
      "inputs": [],
      "name": "pendingOwner",
      "outputs": [
        {
          "internalType": "address",
          "name": "",
          "type": "address"
        }
      ],
      "stateMutability": "view",
      "type": "function"
    },
    {
      "inputs": [],
      "name": "renounceOwnership",
      "outputs": [],
      "stateMutability": "nonpayable",
      "type": "function"
    },
    {
      "inputs": [
        {
          "internalType": "uint256",
          "name": "_balanceCap",
          "type": "uint256"
        }
      ],
      "name": "setBalanceCap",
      "outputs": [
        {
          "internalType": "bool",
          "name": "",
          "type": "bool"
        }
      ],
      "stateMutability": "nonpayable",
      "type": "function"
    },
    {
      "inputs": [
        {
          "internalType": "uint256",
          "name": "_liquidityCap",
          "type": "uint256"
        }
      ],
      "name": "setLiquidityCap",
      "outputs": [],
      "stateMutability": "nonpayable",
      "type": "function"
    },
    {
      "inputs": [
        {
          "internalType": "address",
          "name": "_prizeStrategy",
          "type": "address"
        }
      ],
      "name": "setPrizeStrategy",
      "outputs": [],
      "stateMutability": "nonpayable",
      "type": "function"
    },
    {
      "inputs": [
        {
          "internalType": "contract ITicket",
          "name": "_ticket",
          "type": "address"
        }
      ],
      "name": "setTicket",
      "outputs": [
        {
          "internalType": "bool",
          "name": "",
          "type": "bool"
        }
      ],
      "stateMutability": "nonpayable",
      "type": "function"
    },
    {
      "inputs": [
        {
          "internalType": "address",
          "name": "_to",
          "type": "address"
        },
        {
          "internalType": "address",
          "name": "_externalToken",
          "type": "address"
        },
        {
          "internalType": "uint256",
          "name": "_amount",
          "type": "uint256"
        }
      ],
      "name": "transferExternalERC20",
      "outputs": [],
      "stateMutability": "nonpayable",
      "type": "function"
    },
    {
      "inputs": [
        {
          "internalType": "address",
          "name": "_newOwner",
          "type": "address"
        }
      ],
      "name": "transferOwnership",
      "outputs": [],
      "stateMutability": "nonpayable",
      "type": "function"
    },
    {
      "inputs": [
        {
          "internalType": "address",
          "name": "_from",
          "type": "address"
        },
        {
          "internalType": "uint256",
          "name": "_amount",
          "type": "uint256"
        }
      ],
      "name": "withdrawFrom",
      "outputs": [
        {
          "internalType": "uint256",
          "name": "",
          "type": "uint256"
        }
      ],
      "stateMutability": "nonpayable",
      "type": "function"
    }
  ],
  "bytecode": "0x60806040523480156200001157600080fd5b50604051620024213803806200242183398101604081905262000034916200019e565b8180620000418162000113565b5060016002556200005460001962000163565b506001600160a01b038116620000c45760405162461bcd60e51b815260206004820152602b60248201527f5374616b655072697a65506f6f6c2f7374616b652d746f6b656e2d6e6f742d7a60448201526a65726f2d6164647265737360a81b606482015260840160405180910390fd5b600880546001600160a01b0319166001600160a01b0383169081179091556040517ff40fcec21964ffb566044d083b4073f29f7f7929110ea19e1b3ebe375d89055e90600090a25050620001f6565b600080546001600160a01b038381166001600160a01b0319831681178455604051919092169283917f8be0079c531659141344cd1fd0a4f28419497f9722a3daafe3b4186f6b6457e09190a35050565b60068190556040518181527f3ff20538222f568f27ff436c0c49dfd3e48d5b8f86533a3f759dc1c7089775ab9060200160405180910390a150565b60008060408385031215620001b257600080fd5b8251620001bf81620001dd565b6020840151909250620001d281620001dd565b809150509250929050565b6001600160a01b0381168114620001f357600080fd5b50565b61221b80620002066000396000f3fe608060405234801561001057600080fd5b50600436106101da5760003560e01c80637b99adb111610104578063c002c4d6116100a2578063e6d8a94b11610071578063e6d8a94b146103fc578063f2fde38b14610404578063ffa1ad7414610417578063ffaad6a51461046057600080fd5b8063c002c4d6146103b6578063d7a169eb146103c7578063d804abaf146103da578063e30c3978146103eb57600080fd5b80639470b0bd116100de5780639470b0bd14610380578063aec9c30714610393578063b15a49c1146103a6578063b69ef8a8146103ae57600080fd5b80637b99adb1146103495780638da5cb5b1461035c57806391ca480e1461036d57600080fd5b80632f7627e31161017c578063630665b41161014b578063630665b4146103135780636a3fd4f91461031b578063715018a61461032e57806378b3d3271461033657600080fd5b80632f7627e3146102dd57806333e5761f146102f05780634e71e0c8146102f85780635d8a776e1461030057600080fd5b806316960d55116101b857806316960d55146102745780631c65c78b1461028757806321df0da7146102aa5780632b0ab144146102ca57600080fd5b806308234319146101df57806313f55e39146101f6578063150b7a021461020b575b600080fd5b6005545b6040519081526020015b60405180910390f35b610209610204366004611e9e565b610473565b005b610243610219366004611edf565b7f150b7a020000000000000000000000000000000000000000000000000000000095945050505050565b6040517fffffffff0000000000000000000000000000000000000000000000000000000090911681526020016101ed565b610209610282366004611e09565b610535565b61029a610295366004611dec565b610808565b60405190151581526020016101ed565b6102b26109af565b6040516001600160a01b0390911681526020016101ed565b6102096102d8366004611e9e565b6109c8565b6102096102eb36600461200e565b610a77565b6101e3610bd4565b610209610bde565b61020961030e366004611f7e565b610c6c565b6007546101e3565b61029a610329366004611dec565b610d92565b610209610dae565b61029a610344366004611dec565b610e23565b610209610357366004612047565b610e3c565b6000546001600160a01b03166102b2565b61020961037b366004611dec565b610eb1565b6101e361038e366004611f7e565b610f23565b61029a6103a1366004612047565b61108c565b6006546101e3565b6101e3611100565b6003546001600160a01b03166102b2565b6102096103d5366004611faa565b61110a565b6004546001600160a01b03166102b2565b6001546001600160a01b03166102b2565b6101e361124a565b610209610412366004611dec565b611348565b6104536040518060400160405280600581526020017f342e302e3000000000000000000000000000000000000000000000000000000081525081565b6040516101ed9190612105565b61020961046e366004611f7e565b611484565b6004546001600160a01b031633146104d25760405162461bcd60e51b815260206004820152601c60248201527f5072697a65506f6f6c2f6f6e6c792d7072697a6553747261746567790000000060448201526064015b60405180910390fd5b6104dd838383611545565b1561053057816001600160a01b0316836001600160a01b03167fb0bac59718cd343c80a813518afcf36846cfcfe6d56e2b3cab9bd49f5f9b251c8360405161052791815260200190565b60405180910390a35b505050565b6004546001600160a01b0316331461058f5760405162461bcd60e51b815260206004820152601c60248201527f5072697a65506f6f6c2f6f6e6c792d7072697a6553747261746567790000000060448201526064016104c9565b6008546001600160a01b03808516911614156105ed5760405162461bcd60e51b815260206004820181905260248201527f5072697a65506f6f6c2f696e76616c69642d65787465726e616c2d746f6b656e60448201526064016104c9565b806105f757610802565b60008167ffffffffffffffff811115610612576106126121ba565b60405190808252806020026020018201604052801561063b578160200160208202803683370190505b5090506000805b838110156107ac57856001600160a01b03166342842e0e308988888681811061066d5761066d6121a4565b6040517fffffffff0000000000000000000000000000000000000000000000000000000060e088901b1681526001600160a01b03958616600482015294909316602485015250602090910201356044820152606401600060405180830381600087803b1580156106dc57600080fd5b505af19250505080156106ed575060015b61075e573d80801561071b576040519150601f19603f3d011682016040523d82523d6000602084013e610720565b606091505b507f17e975018310f88872b58d4d8263adca83cf5c1893496ea2a86923dab15276ad816040516107509190612105565b60405180910390a15061079a565b60019150848482818110610774576107746121a4565b9050602002013583828151811061078d5761078d6121a4565b6020026020010181815250505b806107a481612173565b915050610642565b5080156107ff57846001600160a01b0316866001600160a01b03167f69c2de32bc4d47f488e72626a6cfdee85089342e52675e7de79c4b417623960c846040516107f691906120c1565b60405180910390a35b50505b50505050565b60003361081d6000546001600160a01b031690565b6001600160a01b0316146108735760405162461bcd60e51b815260206004820152601860248201527f4f776e61626c652f63616c6c65722d6e6f742d6f776e6572000000000000000060448201526064016104c9565b6001600160a01b0382166108ef5760405162461bcd60e51b815260206004820152602160248201527f5072697a65506f6f6c2f7469636b65742d6e6f742d7a65726f2d61646472657360448201527f730000000000000000000000000000000000000000000000000000000000000060648201526084016104c9565b6003546001600160a01b0316156109485760405162461bcd60e51b815260206004820152601c60248201527f5072697a65506f6f6c2f7469636b65742d616c72656164792d7365740000000060448201526064016104c9565b6003805473ffffffffffffffffffffffffffffffffffffffff19166001600160a01b0384169081179091556040517f9f9d59c87dbdc6ca82d9e5924782004b9aebc366c505c0ccab12f61e2a9f332190600090a26109a76000196115d2565b506001919050565b60006109c36008546001600160a01b031690565b905090565b6004546001600160a01b03163314610a225760405162461bcd60e51b815260206004820152601c60248201527f5072697a65506f6f6c2f6f6e6c792d7072697a6553747261746567790000000060448201526064016104c9565b610a2d838383611545565b1561053057816001600160a01b0316836001600160a01b03167fc65f48aca3b7a99b7443d04b8ffbb073156179bc628dc3f7def50477489734698360405161052791815260200190565b33610a8a6000546001600160a01b031690565b6001600160a01b031614610ae05760405162461bcd60e51b815260206004820152601860248201527f4f776e61626c652f63616c6c65722d6e6f742d6f776e6572000000000000000060448201526064016104c9565b6040516370a0823160e01b81523060048201526000906001600160a01b038416906370a082319060240160206040518083038186803b158015610b2257600080fd5b505afa158015610b36573d6000803e3d6000fd5b505050506040513d601f19601f82011682018060405250810190610b5a9190612060565b1115610bd0576040517f5c19a95c0000000000000000000000000000000000000000000000000000000081526001600160a01b038281166004830152831690635c19a95c90602401600060405180830381600087803b158015610bbc57600080fd5b505af11580156107ff573d6000803e3d6000fd5b5050565b60006109c361160e565b6001546001600160a01b03163314610c385760405162461bcd60e51b815260206004820152601f60248201527f4f776e61626c652f63616c6c65722d6e6f742d70656e64696e674f776e65720060448201526064016104c9565b600154610c4d906001600160a01b03166116a4565b6001805473ffffffffffffffffffffffffffffffffffffffff19169055565b6004546001600160a01b03163314610cc65760405162461bcd60e51b815260206004820152601c60248201527f5072697a65506f6f6c2f6f6e6c792d7072697a6553747261746567790000000060448201526064016104c9565b80610ccf575050565b60075480821115610d225760405162461bcd60e51b815260206004820152601d60248201527f5072697a65506f6f6c2f61776172642d657863656564732d617661696c00000060448201526064016104c9565b8181036007556003546001600160a01b0316610d3f848483611701565b806001600160a01b0316846001600160a01b03167fe2554529d99ab7a67db6b4cea2b32c7d55ae325f958861e05f304fdded867e3185604051610d8491815260200190565b60405180910390a350505050565b6008546000906001600160a01b03808416911614155b92915050565b33610dc16000546001600160a01b031690565b6001600160a01b031614610e175760405162461bcd60e51b815260206004820152601860248201527f4f776e61626c652f63616c6c65722d6e6f742d6f776e6572000000000000000060448201526064016104c9565b610e2160006116a4565b565b6003546000906001600160a01b03808416911614610da8565b33610e4f6000546001600160a01b031690565b6001600160a01b031614610ea55760405162461bcd60e51b815260206004820152601860248201527f4f776e61626c652f63616c6c65722d6e6f742d6f776e6572000000000000000060448201526064016104c9565b610eae81611781565b50565b33610ec46000546001600160a01b031690565b6001600160a01b031614610f1a5760405162461bcd60e51b815260206004820152601860248201527f4f776e61626c652f63616c6c65722d6e6f742d6f776e6572000000000000000060448201526064016104c9565b610eae816117b6565b6000600280541415610f775760405162461bcd60e51b815260206004820152601f60248201527f5265656e7472616e637947756172643a207265656e7472616e742063616c6c0060448201526064016104c9565b600280556003546040517f631b5dfb0000000000000000000000000000000000000000000000000000000081523360048201526001600160a01b0385811660248301526044820185905290911690819063631b5dfb90606401600060405180830381600087803b158015610fea57600080fd5b505af1158015610ffe573d6000803e3d6000fd5b50505050600061100b8490565b905061103485826110246008546001600160a01b031690565b6001600160a01b03169190611863565b60408051858152602081018390526001600160a01b03808516929088169133917fe56473357106d0cdea364a045d5ab7abb44b6bd1c0f092ba3734983a43459f8f910160405180910390a46001600255949350505050565b6000336110a16000546001600160a01b031690565b6001600160a01b0316146110f75760405162461bcd60e51b815260206004820152601860248201527f4f776e61626c652f63616c6c65722d6e6f742d6f776e6572000000000000000060448201526064016104c9565b6109a7826115d2565b60006109c361190c565b60028054141561115c5760405162461bcd60e51b815260206004820152601f60248201527f5265656e7472616e637947756172643a207265656e7472616e742063616c6c0060448201526064016104c9565b600280558161116a81611950565b6111b65760405162461bcd60e51b815260206004820152601f60248201527f5072697a65506f6f6c2f657863656564732d6c69717569646974792d6361700060448201526064016104c9565b6111c1338585611986565b6003546040517f33e39b610000000000000000000000000000000000000000000000000000000081523360048201526001600160a01b038481166024830152909116906333e39b6190604401600060405180830381600087803b15801561122757600080fd5b505af115801561123b573d6000803e3d6000fd5b50506001600255505050505050565b600060028054141561129e5760405162461bcd60e51b815260206004820152601f60248201527f5265656e7472616e637947756172643a207265656e7472616e742063616c6c0060448201526064016104c9565b6002805560006112ac61160e565b60075490915060006112bc61190c565b905060008382116112ce5760006112d8565b6112d88483612130565b905060008382116112ea5760006112f4565b6112f48483612130565b9050801561133a57600782905560405181815291935083917fce2b6e507c7ca1a20ce136810f524eefc19ba4c7e4866eb6cc0cba76e778d4be9060200160405180910390a15b505060016002555092915050565b3361135b6000546001600160a01b031690565b6001600160a01b0316146113b15760405162461bcd60e51b815260206004820152601860248201527f4f776e61626c652f63616c6c65722d6e6f742d6f776e6572000000000000000060448201526064016104c9565b6001600160a01b03811661142d5760405162461bcd60e51b815260206004820152602560248201527f4f776e61626c652f70656e64696e674f776e65722d6e6f742d7a65726f2d616460448201527f647265737300000000000000000000000000000000000000000000000000000060648201526084016104c9565b6001805473ffffffffffffffffffffffffffffffffffffffff19166001600160a01b0383169081179091556040517f239a2ddded15777fa246aed5f7e1a9bc69a39d4eb4a397034d1d85766cca7d4c90600090a250565b6002805414156114d65760405162461bcd60e51b815260206004820152601f60248201527f5265656e7472616e637947756172643a207265656e7472616e742063616c6c0060448201526064016104c9565b60028055806114e481611950565b6115305760405162461bcd60e51b815260206004820152601f60248201527f5072697a65506f6f6c2f657863656564732d6c69717569646974792d6361700060448201526064016104c9565b61153b338484611986565b5050600160025550565b6008546000906001600160a01b03808516911614156115a65760405162461bcd60e51b815260206004820181905260248201527f5072697a65506f6f6c2f696e76616c69642d65787465726e616c2d746f6b656e60448201526064016104c9565b816115b3575060006115cb565b6115c76001600160a01b0384168584611863565b5060015b9392505050565b60058190556040518181527f439b9ac8f2088164a8d80921758209db1623cf1a37a48913679ef3a43d7a5cf7906020015b60405180910390a150565b600354604080517f18160ddd00000000000000000000000000000000000000000000000000000000815290516000926001600160a01b0316916318160ddd916004808301926020929190829003018186803b15801561166c57600080fd5b505afa158015611680573d6000803e3d6000fd5b505050506040513d601f19601f820116820180604052508101906109c39190612060565b600080546001600160a01b0383811673ffffffffffffffffffffffffffffffffffffffff19831681178455604051919092169283917f8be0079c531659141344cd1fd0a4f28419497f9722a3daafe3b4186f6b6457e09190a35050565b6040517f5d7b07580000000000000000000000000000000000000000000000000000000081526001600160a01b03848116600483015260248201849052821690635d7b075890604401600060405180830381600087803b15801561176457600080fd5b505af1158015611778573d6000803e3d6000fd5b50505050505050565b60068190556040518181527f3ff20538222f568f27ff436c0c49dfd3e48d5b8f86533a3f759dc1c7089775ab90602001611603565b6001600160a01b03811661180c5760405162461bcd60e51b815260206004820181905260248201527f5072697a65506f6f6c2f7072697a6553747261746567792d6e6f742d7a65726f60448201526064016104c9565b6004805473ffffffffffffffffffffffffffffffffffffffff19166001600160a01b0383169081179091556040517f7f58dc86bc2e435cb77ca0edb1df55e25f90caf2d6bd866971715437d456a21290600090a250565b6040516001600160a01b0383166024820152604481018290526105309084907fa9059cbb00000000000000000000000000000000000000000000000000000000906064015b60408051601f198184030181529190526020810180517bffffffffffffffffffffffffffffffffffffffffffffffffffffffff167fffffffff0000000000000000000000000000000000000000000000000000000090931692909217909152611a79565b6008546040516370a0823160e01b81523060048201526000916001600160a01b0316906370a082319060240160206040518083038186803b15801561166c57600080fd5b6006546000906000198114156119695750600192915050565b808361197361160e565b61197d9190612118565b11159392505050565b6119908282611b5e565b6119dc5760405162461bcd60e51b815260206004820152601d60248201527f5072697a65506f6f6c2f657863656564732d62616c616e63652d63617000000060448201526064016104c9565b6003546001600160a01b0316611a11843084611a006008546001600160a01b031690565b6001600160a01b0316929190611c0c565b611a1c838383611701565b806001600160a01b0316836001600160a01b0316856001600160a01b03167f4174a9435a04d04d274c76779cad136a41fde6937c56241c09ab9d3c7064a1a985604051611a6b91815260200190565b60405180910390a450505050565b6000611ace826040518060400160405280602081526020017f5361666545524332303a206c6f772d6c6576656c2063616c6c206661696c6564815250856001600160a01b0316611c5d9092919063ffffffff16565b8051909150156105305780806020019051810190611aec9190611fec565b6105305760405162461bcd60e51b815260206004820152602a60248201527f5361666545524332303a204552433230206f7065726174696f6e20646964206e60448201527f6f7420737563636565640000000000000000000000000000000000000000000060648201526084016104c9565b600554600090600019811415611b78576001915050610da8565b6003546040516370a0823160e01b81526001600160a01b038681166004830152839286929116906370a082319060240160206040518083038186803b158015611bc057600080fd5b505afa158015611bd4573d6000803e3d6000fd5b505050506040513d601f19601f82011682018060405250810190611bf89190612060565b611c029190612118565b1115949350505050565b6040516001600160a01b03808516602483015283166044820152606481018290526108029085907f23b872dd00000000000000000000000000000000000000000000000000000000906084016118a8565b6060611c6c8484600085611c74565b949350505050565b606082471015611cec5760405162461bcd60e51b815260206004820152602660248201527f416464726573733a20696e73756666696369656e742062616c616e636520666f60448201527f722063616c6c000000000000000000000000000000000000000000000000000060648201526084016104c9565b843b611d3a5760405162461bcd60e51b815260206004820152601d60248201527f416464726573733a2063616c6c20746f206e6f6e2d636f6e747261637400000060448201526064016104c9565b600080866001600160a01b03168587604051611d5691906120a5565b60006040518083038185875af1925050503d8060008114611d93576040519150601f19603f3d011682016040523d82523d6000602084013e611d98565b606091505b5091509150611da8828286611db3565b979650505050505050565b60608315611dc25750816115cb565b825115611dd25782518084602001fd5b8160405162461bcd60e51b81526004016104c99190612105565b600060208284031215611dfe57600080fd5b81356115cb816121d0565b60008060008060608587031215611e1f57600080fd5b8435611e2a816121d0565b93506020850135611e3a816121d0565b9250604085013567ffffffffffffffff80821115611e5757600080fd5b818701915087601f830112611e6b57600080fd5b813581811115611e7a57600080fd5b8860208260051b8501011115611e8f57600080fd5b95989497505060200194505050565b600080600060608486031215611eb357600080fd5b8335611ebe816121d0565b92506020840135611ece816121d0565b929592945050506040919091013590565b600080600080600060808688031215611ef757600080fd5b8535611f02816121d0565b94506020860135611f12816121d0565b935060408601359250606086013567ffffffffffffffff80821115611f3657600080fd5b818801915088601f830112611f4a57600080fd5b813581811115611f5957600080fd5b896020828501011115611f6b57600080fd5b9699959850939650602001949392505050565b60008060408385031215611f9157600080fd5b8235611f9c816121d0565b946020939093013593505050565b600080600060608486031215611fbf57600080fd5b8335611fca816121d0565b9250602084013591506040840135611fe1816121d0565b809150509250925092565b600060208284031215611ffe57600080fd5b815180151581146115cb57600080fd5b6000806040838503121561202157600080fd5b823561202c816121d0565b9150602083013561203c816121d0565b809150509250929050565b60006020828403121561205957600080fd5b5035919050565b60006020828403121561207257600080fd5b5051919050565b60008151808452612091816020860160208601612147565b601f01601f19169290920160200192915050565b600082516120b7818460208701612147565b9190910192915050565b6020808252825182820181905260009190848201906040850190845b818110156120f9578351835292840192918401916001016120dd565b50909695505050505050565b6020815260006115cb6020830184612079565b6000821982111561212b5761212b61218e565b500190565b6000828210156121425761214261218e565b500390565b60005b8381101561216257818101518382015260200161214a565b838111156108025750506000910152565b60006000198214156121875761218761218e565b5060010190565b634e487b7160e01b600052601160045260246000fd5b634e487b7160e01b600052603260045260246000fd5b634e487b7160e01b600052604160045260246000fd5b6001600160a01b0381168114610eae57600080fdfea264697066735822122059e2183aa078c323e400258327e4108a8665b4ca29659ab550f2bce3d0bd6e1664736f6c63430008060033",
  "linkReferences": {},
  "deployedLinkReferences": {}
}