{
  "_format": "hh-sol-artifact-1",
  "contractName": "PoolDevOnly",
  "sourceName": "contracts/facets/PoolDevOnly.sol",
  "abi": [
    {
      "inputs": [
        {
          "internalType": "uint256",
          "name": "_amount",
          "type": "uint256"
        },
        {
          "internalType": "address",
          "name": "_receiver",
          "type": "address"
        },
        {
          "internalType": "contract IERC20",
          "name": "_token",
          "type": "address"
        }
      ],
      "name": "stake",
      "outputs": [
        {
          "internalType": "uint256",
          "name": "",
          "type": "uint256"
        }
      ],
      "stateMutability": "nonpayable",
      "type": "function"
    }
  ],
  "bytecode": "0x608060405234801561001057600080fd5b50610800806100206000396000f3fe608060405234801561001057600080fd5b506004361061002b5760003560e01c8063a7d545db14610030575b600080fd5b61004361003e366004610671565b610059565b604051610050919061077f565b60405180910390f35b60006100636100b1565b6001600160a01b0316336001600160a01b03161461009c5760405162461bcd60e51b8152600401610093906106d2565b60405180910390fd5b6100a78484846100cd565b90505b9392505050565b60006100bb6101f2565b600401546001600160a01b0316919050565b60008084116100ee5760405162461bcd60e51b8152600401610093906106b2565b6001600160a01b0383166101145760405162461bcd60e51b81526004016100939061073e565b600061011e610216565b8054909150600160a01b900460ff166101495760405162461bcd60e51b8152600401610093906106f4565b61015e6001600160a01b038416333088610255565b604051631e4aa95160e11b815273__$f06c55dfbaf779ce4e61bb81add28e8f1b$__90633c9552a29061019990849089908990600401610760565b60206040518083038186803b1580156101b157600080fd5b505af41580156101c5573d6000803e3d6000fd5b505050506040513d601f19601f820116820180604052508101906101e99190610659565b95945050505050565b7fc8fcad8db84d3cc18b4c41d551ea0ee66dd599cde068d998e57d5e09332c131c90565b60006102286102236102b5565b610301565b80549091506001600160a01b03166102525760405162461bcd60e51b815260040161009390610717565b90565b604080516001600160a01b0380861660248301528416604482015260648082018490528251808303909101815260849091019091526020810180516001600160e01b03166323b872dd60e01b1790526102af9085906103d4565b50505050565b6000806000368080601f0160208091040260200160405190810160405280939291908181526020018383808284376000920191909152505050503601516001600160a01b031692915050565b600080604051806040016040528060168152602001753234b0b6b7b7321739b432b93637b1b5973837b7b61760511b815250836040516020018080602001836001600160a01b03168152602001828103825284818151815260200191508051906020019080838360005b8381101561038357818101518382015260200161036b565b50505050905090810190601f1680156103b05780820380516001836020036101000a031916815260200191505b5060408051601f198184030181529190528051602090910120979650505050505050565b6000610429826040518060400160405280602081526020017f5361666545524332303a206c6f772d6c6576656c2063616c6c206661696c6564815250856001600160a01b031661048a9092919063ffffffff16565b8051909150156104855780806020019051602081101561044857600080fd5b50516104855760405162461bcd60e51b815260040180806020018281038252602a8152602001806107a1602a913960400191505060405180910390fd5b505050565b60606100a784846000858561049e856105af565b6104ef576040805162461bcd60e51b815260206004820152601d60248201527f416464726573733a2063616c6c20746f206e6f6e2d636f6e7472616374000000604482015290519081900360640190fd5b600080866001600160a01b031685876040518082805190602001908083835b6020831061052d5780518252601f19909201916020918201910161050e565b6001836020036101000a03801982511681845116808217855250505050505090500191505060006040518083038185875af1925050503d806000811461058f576040519150601f19603f3d011682016040523d82523d6000602084013e610594565b606091505b50915091506105a48282866105b5565b979650505050505050565b3b151590565b606083156105c45750816100aa565b8251156105d45782518084602001fd5b8160405162461bcd60e51b81526004018080602001828103825283818151815260200191508051906020019080838360005b8381101561061e578181015183820152602001610606565b50505050905090810190601f16801561064b5780820380516001836020036101000a031916815260200191505b509250505060405180910390fd5b60006020828403121561066a578081fd5b5051919050565b600080600060608486031215610685578182fd5b83359250602084013561069781610788565b915060408401356106a781610788565b809150509250925092565b602080825260069082015265105353d5539560d21b604082015260600190565b60208082526008908201526727a7262cafa222ab60c11b604082015260600190565b6020808252600990820152684e4f5f5354414b455360b81b604082015260600190565b6020808252600d908201526c24a72b20a624a22faa27a5a2a760991b604082015260600190565b6020808252600890820152672922a1a2a4ab22a960c11b604082015260600190565b92835260208301919091526001600160a01b0316604082015260600190565b90815260200190565b6001600160a01b038116811461079d57600080fd5b5056fe5361666545524332303a204552433230206f7065726174696f6e20646964206e6f742073756363656564a264697066735822122015e5fca750215d9322cd9a7b37758cb0696eb44dee2a31d617f9e3ce6350ade664736f6c63430007060033",
  "linkReferences": {
    "contracts/libraries/LibPool.sol": {
      "LibPool": [
        {
          "length": 20,
          "start": 397
        }
      ]
    }
  },
  "deployedLinkReferences": {
    "contracts/libraries/LibPool.sol": {
      "LibPool": [
        {
          "length": 20,
          "start": 365
        }
      ]
    }
  }
}