{
  "_format": "hh-sol-artifact-1",
  "contractName": "Auction",
  "sourceName": "contracts/Auction.sol",
  "abi": [
    {
      "anonymous": false,
      "inputs": [
        {
          "indexed": false,
          "internalType": "address",
          "name": "_settler",
          "type": "address"
        }
      ],
      "name": "AuctionSettled",
      "type": "event"
    },
    {
      "anonymous": false,
      "inputs": [],
      "name": "AuctionStarted",
      "type": "event"
    },
    {
      "anonymous": false,
      "inputs": [
        {
          "indexed": false,
          "internalType": "address",
          "name": "_burned",
          "type": "address"
        },
        {
          "indexed": false,
          "internalType": "address",
          "name": "_burnee",
          "type": "address"
        },
        {
          "indexed": false,
          "internalType": "uint256",
          "name": "_amount",
          "type": "uint256"
        }
      ],
      "name": "BondBurned",
      "type": "event"
    },
    {
      "anonymous": false,
      "inputs": [
        {
          "indexed": false,
          "internalType": "address",
          "name": "_bonder",
          "type": "address"
        },
        {
          "indexed": false,
          "internalType": "uint256",
          "name": "_amount",
          "type": "uint256"
        }
      ],
      "name": "Bonded",
      "type": "event"
    },
    {
      "anonymous": false,
      "inputs": [
        {
          "indexed": false,
          "internalType": "contract IERC20",
          "name": "_token",
          "type": "address"
        },
        {
          "indexed": false,
          "internalType": "uint256",
          "name": "_amount",
          "type": "uint256"
        },
        {
          "indexed": false,
          "internalType": "uint256",
          "name": "_id",
          "type": "uint256"
        }
      ],
      "name": "BountyAdded",
      "type": "event"
    },
    {
      "anonymous": false,
      "inputs": [
        {
          "indexed": false,
          "internalType": "address",
          "name": "_claimer",
          "type": "address"
        },
        {
          "indexed": false,
          "internalType": "address",
          "name": "_token",
          "type": "address"
        },
        {
          "indexed": false,
          "internalType": "uint256",
          "name": "_amount",
          "type": "uint256"
        },
        {
          "indexed": false,
          "internalType": "uint256",
          "name": "_id",
          "type": "uint256"
        }
      ],
      "name": "BountyClaimed",
      "type": "event"
    },
    {
      "inputs": [
        {
          "internalType": "contract IERC20",
          "name": "token",
          "type": "address"
        },
        {
          "internalType": "uint256",
          "name": "amount",
          "type": "uint256"
        }
      ],
      "name": "addBounty",
      "outputs": [
        {
          "internalType": "uint256",
          "name": "",
          "type": "uint256"
        }
      ],
      "stateMutability": "nonpayable",
      "type": "function"
    },
    {
      "inputs": [],
      "name": "auctionBonder",
      "outputs": [
        {
          "internalType": "address",
          "name": "",
          "type": "address"
        }
      ],
      "stateMutability": "view",
      "type": "function"
    },
    {
      "inputs": [],
      "name": "auctionOngoing",
      "outputs": [
        {
          "internalType": "bool",
          "name": "",
          "type": "bool"
        }
      ],
      "stateMutability": "view",
      "type": "function"
    },
    {
      "inputs": [],
      "name": "auctionStart",
      "outputs": [
        {
          "internalType": "uint256",
          "name": "",
          "type": "uint256"
        }
      ],
      "stateMutability": "view",
      "type": "function"
    },
    {
      "inputs": [],
      "name": "basket",
      "outputs": [
        {
          "internalType": "contract IBasket",
          "name": "",
          "type": "address"
        }
      ],
      "stateMutability": "view",
      "type": "function"
    },
    {
      "inputs": [],
      "name": "bondAmount",
      "outputs": [
        {
          "internalType": "uint256",
          "name": "",
          "type": "uint256"
        }
      ],
      "stateMutability": "view",
      "type": "function"
    },
    {
      "inputs": [],
      "name": "bondBurn",
      "outputs": [],
      "stateMutability": "nonpayable",
      "type": "function"
    },
    {
      "inputs": [],
      "name": "bondForRebalance",
      "outputs": [],
      "stateMutability": "nonpayable",
      "type": "function"
    },
    {
      "inputs": [],
      "name": "bondTimestamp",
      "outputs": [
        {
          "internalType": "uint256",
          "name": "",
          "type": "uint256"
        }
      ],
      "stateMutability": "view",
      "type": "function"
    },
    {
      "inputs": [],
      "name": "factory",
      "outputs": [
        {
          "internalType": "contract IFactory",
          "name": "",
          "type": "address"
        }
      ],
      "stateMutability": "view",
      "type": "function"
    },
    {
      "inputs": [],
      "name": "hasBonded",
      "outputs": [
        {
          "internalType": "bool",
          "name": "",
          "type": "bool"
        }
      ],
      "stateMutability": "view",
      "type": "function"
    },
    {
      "inputs": [
        {
          "internalType": "address",
          "name": "basket_",
          "type": "address"
        },
        {
          "internalType": "address",
          "name": "factory_",
          "type": "address"
        }
      ],
      "name": "initialize",
      "outputs": [],
      "stateMutability": "nonpayable",
      "type": "function"
    },
    {
      "inputs": [],
      "name": "initialized",
      "outputs": [
        {
          "internalType": "bool",
          "name": "",
          "type": "bool"
        }
      ],
      "stateMutability": "view",
      "type": "function"
    },
    {
      "inputs": [],
      "name": "killAuction",
      "outputs": [],
      "stateMutability": "nonpayable",
      "type": "function"
    },
    {
      "inputs": [
        {
          "internalType": "uint256[]",
          "name": "bountyIDs",
          "type": "uint256[]"
        },
        {
          "internalType": "address[]",
          "name": "inputTokens",
          "type": "address[]"
        },
        {
          "internalType": "uint256[]",
          "name": "inputWeights",
          "type": "uint256[]"
        },
        {
          "internalType": "address[]",
          "name": "outputTokens",
          "type": "address[]"
        },
        {
          "internalType": "uint256[]",
          "name": "outputWeights",
          "type": "uint256[]"
        }
      ],
      "name": "settleAuction",
      "outputs": [],
      "stateMutability": "nonpayable",
      "type": "function"
    },
    {
      "inputs": [],
      "name": "startAuction",
      "outputs": [],
      "stateMutability": "nonpayable",
      "type": "function"
    }
  ],
  "bytecode": "0x608060405234801561001057600080fd5b506118dc806100206000396000f3fe608060405234801561001057600080fd5b50600436106100d05760003560e01c8063089e136e146100d5578063158ef93e146100f75780631d5876a614610104578063478c681e1461011b578063485cc955146101255780634f245ef71461013857806367c3b483146101415780636b64c7691461014e57806380f323a714610156578063899a1e361461015f57806399a9210e14610172578063ad71f67e1461017a578063ae1d82f01461018d578063c45a015514610195578063d940d811146101b5578063edc832b3146101c8575b600080fd5b6002546100e29060ff1681565b60405190151581526020015b60405180910390f35b6005546100e29060ff1681565b61010d60045481565b6040519081526020016100ee565b6101236101e0565b005b610123610133366004611442565b610383565b61010d60015481565b6000546100e29060ff1681565b6101236103d4565b61010d60035481565b61010d61016d366004611639565b61048c565b6101236105d1565b610123610188366004611546565b610740565b610123610e66565b6006546101a8906001600160a01b031681565b6040516100ee919061169a565b6007546101a8906001600160a01b031681565b6005546101a89061010090046001600160a01b031681565b60005460ff166101ef57600080fd5b60025460ff16156101ff57600080fd5b436004908155600554600654604080516319d0138360e01b815290516101009093046001600160a01b03908116949216926319d0138392828101926020929190829003018186803b15801561025357600080fd5b505afa158015610267573d6000803e3d6000fd5b505050506040513d601f19601f8201168201806040525081019061028b9190611665565b816001600160a01b03166318160ddd6040518163ffffffff1660e01b815260040160206040518083038186803b1580156102c457600080fd5b505afa1580156102d8573d6000803e3d6000fd5b505050506040513d601f19601f820116820180604052508101906102fc9190611665565b61030691906117ad565b6003819055610323906001600160a01b0383169033903090610ea1565b6002805460ff19166001179055600780546001600160a01b031916339081179091556003546040517fd0a009034e24a39106653c4903cf28b1947b8a9964d03206648e0f0a5de74a46926103789290916116d2565b60405180910390a150565b60055460ff161561039357600080fd5b60058054600680546001600160a01b0319166001600160a01b039485161790556001600160a81b031916610100939092169290920260ff1916176001179055565b60055461010090046001600160a01b0316331461040c5760405162461bcd60e51b81526004016104039061171e565b60405180910390fd5b60005460ff16156104515760405162461bcd60e51b815260206004820152600f60248201526e37b733b7b4b7339030bab1ba34b7b760891b6044820152606401610403565b6000805460ff1916600190811782554390556040517fc8f99b9ac2a284b93c3652b9f064a6706724088cdafa9e0a8437c026191b2f039190a1565b60006104a36001600160a01b038416333085610ea1565b604080516060810182526001600160a01b038581168252602082018581526001938301848152600880548087018255600082815295517ff3f7a9fe364faab93b216da50a3214154f22a0a2b415b23a84c8169e8b636ee3600390920291820180546001600160a01b031916919096161790945591517ff3f7a9fe364faab93b216da50a3214154f22a0a2b415b23a84c8169e8b636ee4840155517ff3f7a9fe364faab93b216da50a3214154f22a0a2b415b23a84c8169e8b636ee5909201805460ff19169215159290921790915554909161057d916117ee565b604080516001600160a01b0387168152602081018690529081018290529091507f8995102fba1c09c335213e7f0fb14bb67ced754740fe5dff224c43d5ec287f089060600160405180910390a19392505050565b60005460ff166105e057600080fd5b60025460ff166105ef57600080fd5b436116806004546106009190611795565b111561060b57600080fd5b600554600354604051630fdeac3760e21b815260048101919091526101009091046001600160a01b031690633f7ab0dc90602401600060405180830381600087803b15801561065957600080fd5b505af115801561066d573d6000803e3d6000fd5b50506002805460ff1990811690915560008054909116815560055460408051631535eca960e01b815290516101009092046001600160a01b03169450631535eca99350600480820193929182900301818387803b1580156106cd57600080fd5b505af11580156106e1573d6000803e3d6000fd5b50506007546003546040517fffe69c3e368ffaa4465b110170f194d40193561c8ca8defeab5d7bfccac173d39450610726935033926001600160a01b031691906116ae565b60405180910390a1600780546001600160a01b0319169055565b60005460ff1661074f57600080fd5b60025460ff1661075e57600080fd5b4361168060045461076f9190611795565b1161077957600080fd5b6007546001600160a01b0316331461079057600080fd5b60005b84518110156108155761080333600560019054906101000a90046001600160a01b03168684815181106107c8576107c8611862565b60200260200101518885815181106107e2576107e2611862565b60200260200101516001600160a01b0316610ea1909392919063ffffffff16565b8061080d81611831565b915050610793565b5060005b825181101561087a57610868600560019054906101000a90046001600160a01b03163384848151811061084e5761084e611862565b60200260200101518685815181106107e2576107e2611862565b8061087281611831565b915050610819565b506000600560019054906101000a90046001600160a01b03166001600160a01b03166327fc7c9c6040518163ffffffff1660e01b815260040160206040518083038186803b1580156108cb57600080fd5b505afa1580156108df573d6000803e3d6000fd5b505050506040513d601f19601f820116820180604052508101906109039190611665565b600660009054906101000a90046001600160a01b03166001600160a01b031663063dff7f6040518163ffffffff1660e01b815260040160206040518083038186803b15801561095157600080fd5b505afa158015610965573d6000803e3d6000fd5b505050506040513d601f19601f820116820180604052508101906109899190611665565b61099391906117cf565b90506000600660009054906101000a90046001600160a01b03166001600160a01b031663db92164d6040518163ffffffff1660e01b815260040160206040518083038186803b1580156109e557600080fd5b505afa1580156109f9573d6000803e3d6000fd5b505050506040513d601f19601f82011682018060405250810190610a1d9190611665565b670de0b6b3a7640000600154600454610a3691906117ee565b610a4091906117cf565b610a4a91906117ad565b90506000610a5882846117ee565b9050600080600560019054906101000a90046001600160a01b03166001600160a01b031663764720076040518163ffffffff1660e01b815260040160006040518083038186803b158015610aab57600080fd5b505afa158015610abf573d6000803e3d6000fd5b505050506040513d6000823e601f3d908101601f19168201604052610ae7919081019061147b565b600554919350915061010090046001600160a01b031660005b8251811015610c94576000670de0b6b3a76400008087868581518110610b2857610b28611862565b6020026020010151866001600160a01b03166318160ddd6040518163ffffffff1660e01b815260040160206040518083038186803b158015610b6957600080fd5b505afa158015610b7d573d6000803e3d6000fd5b505050506040513d601f19601f82011682018060405250810190610ba19190611665565b610bab91906117cf565b610bb591906117cf565b610bbf91906117ad565b610bc991906117ad565b905080858381518110610bde57610bde611862565b60200260200101516001600160a01b03166370a08231600560019054906101000a90046001600160a01b03166040518263ffffffff1660e01b8152600401610c26919061169a565b60206040518083038186803b158015610c3e57600080fd5b505afa158015610c52573d6000803e3d6000fd5b505050506040513d601f19601f82011682018060405250810190610c769190611665565b1015610c8157600080fd5b5080610c8c81611831565b915050610b00565b5060035460405163a9059cbb60e01b81526001600160a01b0383169163a9059cbb91610cc49133916004016116d2565b602060405180830381600087803b158015610cde57600080fd5b505af1158015610cf2573d6000803e3d6000fd5b505050506040513d601f19601f82011682018060405250810190610d169190611617565b50610d208b610eff565b600560019054906101000a90046001600160a01b03166001600160a01b031663121689236040518163ffffffff1660e01b8152600401600060405180830381600087803b158015610d7057600080fd5b505af1158015610d84573d6000803e3d6000fd5b5050600554604051633df0067f60e21b8152600481018890526101009091046001600160a01b0316925063f7c019fc9150602401602060405180830381600087803b158015610dd257600080fd5b505af1158015610de6573d6000803e3d6000fd5b505050506040513d601f19601f82011682018060405250810190610e0a9190611665565b506000805460ff199081169091556002805490911690556040517f3539af76bcb13fa381f2ec32e6d90b9c5e95055778ebdca0e7a192ba0775588190610e5190339061169a565b60405180910390a15050505050505050505050565b60055461010090046001600160a01b03163314610e955760405162461bcd60e51b81526004016104039061171e565b6000805460ff19169055565b610ef9846323b872dd60e01b858585604051602401610ec2939291906116ae565b60408051601f198184030181529190526020810180516001600160e01b03166001600160e01b0319909316929092179091526110b6565b50505050565b60005b81518110156110b25760006008838381518110610f2157610f21611862565b602002602001015181548110610f3957610f39611862565b600091825260209182902060408051606081018252600390930290910180546001600160a01b0316835260018101549383019390935260029092015460ff1615159181018290529150610f8b57600080fd5b8051602082015160405163a9059cbb60e01b81526001600160a01b039092169163a9059cbb91610fc0913391906004016116d2565b602060405180830381600087803b158015610fda57600080fd5b505af1158015610fee573d6000803e3d6000fd5b505050506040513d601f19601f820116820180604052508101906110129190611617565b50600060408201528051602082015184517f21c7da6732f0fae7bee8f0cb7c37fbd83a44e850e28deaf637caefe6ae528de4923392909187908790811061105b5761105b611862565b602002602001015160405161109794939291906001600160a01b0394851681529290931660208301526040820152606081019190915260800190565b60405180910390a150806110aa81611831565b915050610f02565b5050565b600061110b826040518060400160405280602081526020017f5361666545524332303a206c6f772d6c6576656c2063616c6c206661696c6564815250856001600160a01b031661118d9092919063ffffffff16565b80519091501561118857808060200190518101906111299190611617565b6111885760405162461bcd60e51b815260206004820152602a60248201527f5361666545524332303a204552433230206f7065726174696f6e20646964206e6044820152691bdd081cdd58d8d9595960b21b6064820152608401610403565b505050565b606061119c84846000856111a6565b90505b9392505050565b6060824710156112075760405162461bcd60e51b815260206004820152602660248201527f416464726573733a20696e73756666696369656e742062616c616e636520666f6044820152651c8818d85b1b60d21b6064820152608401610403565b843b6112555760405162461bcd60e51b815260206004820152601d60248201527f416464726573733a2063616c6c20746f206e6f6e2d636f6e74726163740000006044820152606401610403565b600080866001600160a01b03168587604051611271919061167e565b60006040518083038185875af1925050503d80600081146112ae576040519150601f19603f3d011682016040523d82523d6000602084013e6112b3565b606091505b50915091506112c38282866112ce565b979650505050505050565b606083156112dd57508161119f565b8251156112ed5782518084602001fd5b8160405162461bcd60e51b815260040161040391906116eb565b600082601f83011261131857600080fd5b8135602061132d61132883611772565b611742565b80838252828201915082860187848660051b890101111561134d57600080fd5b60005b858110156113755781356113638161188e565b84529284019290840190600101611350565b5090979650505050505050565b600082601f83011261139357600080fd5b813560206113a361132883611772565b80838252828201915082860187848660051b89010111156113c357600080fd5b60005b85811015611375578135845292840192908401906001016113c6565b600082601f8301126113f357600080fd5b8151602061140361132883611772565b80838252828201915082860187848660051b890101111561142357600080fd5b60005b8581101561137557815184529284019290840190600101611426565b6000806040838503121561145557600080fd5b82356114608161188e565b915060208301356114708161188e565b809150509250929050565b6000806040838503121561148e57600080fd5b82516001600160401b03808211156114a557600080fd5b818501915085601f8301126114b957600080fd5b815160206114c961132883611772565b8083825282820191508286018a848660051b89010111156114e957600080fd5b600096505b848710156115155780516115018161188e565b8352600196909601959183019183016114ee565b509188015191965090935050508082111561152f57600080fd5b5061153c858286016113e2565b9150509250929050565b600080600080600060a0868803121561155e57600080fd5b85356001600160401b038082111561157557600080fd5b61158189838a01611382565b9650602088013591508082111561159757600080fd5b6115a389838a01611307565b955060408801359150808211156115b957600080fd5b6115c589838a01611382565b945060608801359150808211156115db57600080fd5b6115e789838a01611307565b935060808801359150808211156115fd57600080fd5b5061160a88828901611382565b9150509295509295909350565b60006020828403121561162957600080fd5b8151801515811461119f57600080fd5b6000806040838503121561164c57600080fd5b82356116578161188e565b946020939093013593505050565b60006020828403121561167757600080fd5b5051919050565b60008251611690818460208701611805565b9190910192915050565b6001600160a01b0391909116815260200190565b6001600160a01b039384168152919092166020820152604081019190915260600190565b6001600160a01b03929092168252602082015260400190565b602081526000825180602084015261170a816040850160208701611805565b601f01601f19169190910160400192915050565b6020808252600a90820152691b9bdd0818985cdad95d60b21b604082015260600190565b604051601f8201601f191681016001600160401b038111828210171561176a5761176a611878565b604052919050565b60006001600160401b0382111561178b5761178b611878565b5060051b60200190565b600082198211156117a8576117a861184c565b500190565b6000826117ca57634e487b7160e01b600052601260045260246000fd5b500490565b60008160001904831182151516156117e9576117e961184c565b500290565b6000828210156118005761180061184c565b500390565b60005b83811015611820578181015183820152602001611808565b83811115610ef95750506000910152565b60006000198214156118455761184561184c565b5060010190565b634e487b7160e01b600052601160045260246000fd5b634e487b7160e01b600052603260045260246000fd5b634e487b7160e01b600052604160045260246000fd5b6001600160a01b03811681146118a357600080fd5b5056fea2646970667358221220a467695015988e841068b9933ea184f14bded74ac73c966e297d7fb0bde1f9d964736f6c63430008070033",
  "linkReferences": {},
  "deployedLinkReferences": {}
}