{
  "_format": "hh-sol-artifact-1",
  "contractName": "AaveV2",
  "sourceName": "contracts/strategies/AaveV2.sol",
  "abi": [
    {
      "inputs": [
        {
          "internalType": "contract IAToken",
          "name": "_aWant",
          "type": "address"
        },
        {
          "internalType": "address",
          "name": "_sherlock",
          "type": "address"
        },
        {
          "internalType": "address",
          "name": "_aaveLmReceiver",
          "type": "address"
        }
      ],
      "stateMutability": "nonpayable",
      "type": "constructor"
    },
    {
      "anonymous": false,
      "inputs": [
        {
          "indexed": true,
          "internalType": "address",
          "name": "previousOwner",
          "type": "address"
        },
        {
          "indexed": true,
          "internalType": "address",
          "name": "newOwner",
          "type": "address"
        }
      ],
      "name": "OwnershipTransferred",
      "type": "event"
    },
    {
      "inputs": [],
      "name": "aWant",
      "outputs": [
        {
          "internalType": "contract IAToken",
          "name": "",
          "type": "address"
        }
      ],
      "stateMutability": "view",
      "type": "function"
    },
    {
      "inputs": [],
      "name": "aaveIncentivesController",
      "outputs": [
        {
          "internalType": "contract IAaveIncentivesController",
          "name": "",
          "type": "address"
        }
      ],
      "stateMutability": "view",
      "type": "function"
    },
    {
      "inputs": [],
      "name": "aaveLmReceiver",
      "outputs": [
        {
          "internalType": "address",
          "name": "",
          "type": "address"
        }
      ],
      "stateMutability": "view",
      "type": "function"
    },
    {
      "inputs": [],
      "name": "balanceOf",
      "outputs": [
        {
          "internalType": "uint256",
          "name": "",
          "type": "uint256"
        }
      ],
      "stateMutability": "view",
      "type": "function"
    },
    {
      "inputs": [],
      "name": "claimRewards",
      "outputs": [],
      "stateMutability": "nonpayable",
      "type": "function"
    },
    {
      "inputs": [],
      "name": "deposit",
      "outputs": [],
      "stateMutability": "nonpayable",
      "type": "function"
    },
    {
      "inputs": [],
      "name": "lpAddressProvider",
      "outputs": [
        {
          "internalType": "contract ILendingPoolAddressesProvider",
          "name": "",
          "type": "address"
        }
      ],
      "stateMutability": "view",
      "type": "function"
    },
    {
      "inputs": [],
      "name": "owner",
      "outputs": [
        {
          "internalType": "address",
          "name": "",
          "type": "address"
        }
      ],
      "stateMutability": "view",
      "type": "function"
    },
    {
      "inputs": [],
      "name": "renounceOwnership",
      "outputs": [],
      "stateMutability": "nonpayable",
      "type": "function"
    },
    {
      "inputs": [],
      "name": "sherlock",
      "outputs": [
        {
          "internalType": "address",
          "name": "",
          "type": "address"
        }
      ],
      "stateMutability": "view",
      "type": "function"
    },
    {
      "inputs": [
        {
          "internalType": "address",
          "name": "newOwner",
          "type": "address"
        }
      ],
      "name": "transferOwnership",
      "outputs": [],
      "stateMutability": "nonpayable",
      "type": "function"
    },
    {
      "inputs": [],
      "name": "want",
      "outputs": [
        {
          "internalType": "contract ERC20",
          "name": "",
          "type": "address"
        }
      ],
      "stateMutability": "view",
      "type": "function"
    },
    {
      "inputs": [
        {
          "internalType": "uint256",
          "name": "_amount",
          "type": "uint256"
        }
      ],
      "name": "withdraw",
      "outputs": [],
      "stateMutability": "nonpayable",
      "type": "function"
    },
    {
      "inputs": [],
      "name": "withdrawAll",
      "outputs": [
        {
          "internalType": "uint256",
          "name": "",
          "type": "uint256"
        }
      ],
      "stateMutability": "nonpayable",
      "type": "function"
    }
  ],
  "bytecode": "0x6080604052600180546001600160a01b03191673b53c1a33016b2dc2ff3653530bff1848a515c8c517905534801561003657600080fd5b50604051610ccf380380610ccf8339818101604052606081101561005957600080fd5b50805160208201516040909201519091906000610074610291565b600080546001600160a01b0319166001600160a01b0383169081178255604051929350917f8be0079c531659141344cd1fd0a4f28419497f9722a3daafe3b4186f6b6457e0908290a350600480546001600160a01b0319166001600160a01b0385169081178255604080516358b50cef60e11b81529051919263b16a19de928282019260209290829003018186803b15801561010f57600080fd5b505afa158015610123573d6000803e3d6000fd5b505050506040513d602081101561013957600080fd5b5051600380546001600160a01b0319166001600160a01b03928316179055604080516375d2641360e01b81529051918516916375d2641391600480820192602092909190829003018186803b15801561019157600080fd5b505afa1580156101a5573d6000803e3d6000fd5b505050506040513d60208110156101bb57600080fd5b5051600280546001600160a01b03199081166001600160a01b0393841617909155600580548216858416179055600680549091169183169190911790556000610202610295565b6003546040805163095ea7b360e01b81526001600160a01b0380851660048301526000196024830152915193945091169163095ea7b3916044808201926020929091908290030181600087803b15801561025b57600080fd5b505af115801561026f573d6000803e3d6000fd5b505050506040513d602081101561028557600080fd5b5061030b945050505050565b3390565b60015460408051630261bf8b60e01b815290516000926001600160a01b031691630261bf8b916004808301926020929190829003018186803b1580156102da57600080fd5b505afa1580156102ee573d6000803e3d6000fd5b505050506040513d602081101561030457600080fd5b5051905090565b6109b58061031a6000396000f3fe608060405234801561001057600080fd5b50600436106100ea5760003560e01c8063715018a61161008c5780638da5cb5b116100665780638da5cb5b14610184578063c71611601461018c578063d0e30db014610194578063f2fde38b1461019c576100ea565b8063715018a61461015a578063722713f714610162578063853828b61461017c576100ea565b80632e1a7d4d116100c85780632e1a7d4d14610123578063372500ab1461014257806351c499ae1461014a5780635f2475ca14610152576100ea565b80630bd8216c146100ef5780631f1fcd51146101135780632ac081151461011b575b600080fd5b6100f76101c2565b604080516001600160a01b039092168252519081900360200190f35b6100f76101d1565b6100f76101e0565b6101406004803603602081101561013957600080fd5b50356101ef565b005b61014061030f565b6100f761042e565b6100f761043d565b61014061044c565b61016a61050a565b60408051918252519081900360200190f35b61016a61051a565b6100f7610618565b6100f7610627565b610140610636565b610140600480360360208110156101b257600080fd5b50356001600160a01b031661077c565b6001546001600160a01b031681565b6003546001600160a01b031681565b6004546001600160a01b031681565b6005546001600160a01b03163314610239576040805162461bcd60e51b8152602060048201526008602482015267736865726c6f636b60c01b604482015290519081900360640190fd5b600019811415610276576040805162461bcd60e51b815260206004820152600360248201526209a82b60eb1b604482015290519081900360640190fd5b6000610280610890565b60035460408051631a4ca37b60e21b81526001600160a01b039283166004820152602481018690523360448201529051929350908316916369328dec916064808201926020929091908290030181600087803b1580156102df57600080fd5b505af11580156102f3573d6000803e3d6000fd5b505050506040513d602081101561030957600080fd5b50505050565b60408051600180825281830190925260009160208083019080368337505060045482519293506001600160a01b03169183915060009061034b57fe5b6001600160a01b03928316602091820292909201810191909152600254600654604051633111e7b360e01b815260001960248201819052918516604482018190526060600483019081528751606484015287519490961695633111e7b395889592939192839260840191878101910280838360005b838110156103d85781810151838201526020016103c0565b50505050905001945050505050602060405180830381600087803b1580156103ff57600080fd5b505af1158015610413573d6000803e3d6000fd5b505050506040513d602081101561042957600080fd5b505050565b6006546001600160a01b031681565b6002546001600160a01b031681565b610454610906565b6001600160a01b0316610465610618565b6001600160a01b0316146104c0576040805162461bcd60e51b815260206004820181905260248201527f4f776e61626c653a2063616c6c6572206973206e6f7420746865206f776e6572604482015290519081900360640190fd5b600080546040516001600160a01b03909116907f8be0079c531659141344cd1fd0a4f28419497f9722a3daafe3b4186f6b6457e0908390a3600080546001600160a01b0319169055565b600061051461090a565b90505b90565b6005546000906001600160a01b03163314610567576040805162461bcd60e51b8152602060048201526008602482015267736865726c6f636b60c01b604482015290519081900360640190fd5b6000610571610890565b905061057b61090a565b610589576000915050610517565b60035460408051631a4ca37b60e21b81526001600160a01b03928316600482015260001960248201523360448201529051918316916369328dec916064808201926020929091908290030181600087803b1580156105e657600080fd5b505af11580156105fa573d6000803e3d6000fd5b505050506040513d602081101561061057600080fd5b505191505090565b6000546001600160a01b031690565b6005546001600160a01b031681565b6000610640610890565b600354604080516370a0823160e01b815230600482015290519293506000926001600160a01b03909216916370a0823191602480820192602092909190829003018186803b15801561069157600080fd5b505afa1580156106a5573d6000803e3d6000fd5b505050506040513d60208110156106bb57600080fd5b50519050806106ff576040805162461bcd60e51b815260206004820152600b60248201526a16915493d7d05353d5539560aa1b604482015290519081900360640190fd5b6003546040805163e8eda9df60e01b81526001600160a01b0392831660048201526024810184905230604482015260006064820181905291519285169263e8eda9df9260848084019391929182900301818387803b15801561076057600080fd5b505af1158015610774573d6000803e3d6000fd5b505050505050565b610784610906565b6001600160a01b0316610795610618565b6001600160a01b0316146107f0576040805162461bcd60e51b815260206004820181905260248201527f4f776e61626c653a2063616c6c6572206973206e6f7420746865206f776e6572604482015290519081900360640190fd5b6001600160a01b0381166108355760405162461bcd60e51b815260040180806020018281038252602681526020018061095a6026913960400191505060405180910390fd5b600080546040516001600160a01b03808516939216917f8be0079c531659141344cd1fd0a4f28419497f9722a3daafe3b4186f6b6457e091a3600080546001600160a01b0319166001600160a01b0392909216919091179055565b60015460408051630261bf8b60e01b815290516000926001600160a01b031691630261bf8b916004808301926020929190829003018186803b1580156108d557600080fd5b505afa1580156108e9573d6000803e3d6000fd5b505050506040513d60208110156108ff57600080fd5b5051905090565b3390565b60048054604080516370a0823160e01b81523093810193909352516000926001600160a01b03909216916370a08231916024808301926020929190829003018186803b1580156108d557600080fdfe4f776e61626c653a206e6577206f776e657220697320746865207a65726f2061646472657373a264697066735822122012084e880f2dd3da389c81ed392b00a3a52bbd7c560b8a87022ec81635db780164736f6c63430007060033",
  "linkReferences": {},
  "deployedLinkReferences": {}
}