{
  "_format": "hh-sol-artifact-1",
  "contractName": "YieldMath",
  "sourceName": "contracts/yieldspace/YieldMath.sol",
  "abi": [
    {
      "inputs": [],
      "name": "MAX",
      "outputs": [
        {
          "internalType": "uint256",
          "name": "",
          "type": "uint256"
        }
      ],
      "stateMutability": "view",
      "type": "function"
    },
    {
      "inputs": [],
      "name": "ONE",
      "outputs": [
        {
          "internalType": "uint128",
          "name": "",
          "type": "uint128"
        }
      ],
      "stateMutability": "view",
      "type": "function"
    },
    {
      "inputs": [
        {
          "internalType": "uint128",
          "name": "baseReserves",
          "type": "uint128"
        },
        {
          "internalType": "uint128",
          "name": "fyTokenReserves",
          "type": "uint128"
        },
        {
          "internalType": "uint128",
          "name": "fyTokenAmount",
          "type": "uint128"
        },
        {
          "internalType": "uint128",
          "name": "timeTillMaturity",
          "type": "uint128"
        },
        {
          "internalType": "int128",
          "name": "k",
          "type": "int128"
        },
        {
          "internalType": "int128",
          "name": "g",
          "type": "int128"
        }
      ],
      "name": "baseInForFYTokenOut",
      "outputs": [
        {
          "internalType": "uint128",
          "name": "",
          "type": "uint128"
        }
      ],
      "stateMutability": "pure",
      "type": "function"
    },
    {
      "inputs": [
        {
          "internalType": "uint128",
          "name": "baseReserves",
          "type": "uint128"
        },
        {
          "internalType": "uint128",
          "name": "fyTokenReserves",
          "type": "uint128"
        },
        {
          "internalType": "uint128",
          "name": "fyTokenAmount",
          "type": "uint128"
        },
        {
          "internalType": "uint128",
          "name": "timeTillMaturity",
          "type": "uint128"
        },
        {
          "internalType": "int128",
          "name": "k",
          "type": "int128"
        },
        {
          "internalType": "int128",
          "name": "g",
          "type": "int128"
        }
      ],
      "name": "baseOutForFYTokenIn",
      "outputs": [
        {
          "internalType": "uint128",
          "name": "",
          "type": "uint128"
        }
      ],
      "stateMutability": "pure",
      "type": "function"
    },
    {
      "inputs": [
        {
          "internalType": "uint128",
          "name": "baseReserves",
          "type": "uint128"
        },
        {
          "internalType": "uint128",
          "name": "fyTokenReserves",
          "type": "uint128"
        },
        {
          "internalType": "uint128",
          "name": "baseAmount",
          "type": "uint128"
        },
        {
          "internalType": "uint128",
          "name": "timeTillMaturity",
          "type": "uint128"
        },
        {
          "internalType": "int128",
          "name": "k",
          "type": "int128"
        },
        {
          "internalType": "int128",
          "name": "g",
          "type": "int128"
        }
      ],
      "name": "fyTokenInForBaseOut",
      "outputs": [
        {
          "internalType": "uint128",
          "name": "",
          "type": "uint128"
        }
      ],
      "stateMutability": "pure",
      "type": "function"
    },
    {
      "inputs": [
        {
          "internalType": "uint128",
          "name": "baseReserves",
          "type": "uint128"
        },
        {
          "internalType": "uint128",
          "name": "fyTokenReserves",
          "type": "uint128"
        },
        {
          "internalType": "uint128",
          "name": "baseAmount",
          "type": "uint128"
        },
        {
          "internalType": "uint128",
          "name": "timeTillMaturity",
          "type": "uint128"
        },
        {
          "internalType": "int128",
          "name": "k",
          "type": "int128"
        },
        {
          "internalType": "int128",
          "name": "g",
          "type": "int128"
        }
      ],
      "name": "fyTokenOutForBaseIn",
      "outputs": [
        {
          "internalType": "uint128",
          "name": "",
          "type": "uint128"
        }
      ],
      "stateMutability": "pure",
      "type": "function"
    },
    {
      "inputs": [
        {
          "internalType": "uint128",
          "name": "baseReserves",
          "type": "uint128"
        },
        {
          "internalType": "uint128",
          "name": "fyTokenReserves",
          "type": "uint128"
        },
        {
          "internalType": "uint128",
          "name": "timeTillMaturity",
          "type": "uint128"
        },
        {
          "internalType": "int128",
          "name": "k",
          "type": "int128"
        },
        {
          "internalType": "int128",
          "name": "c0",
          "type": "int128"
        }
      ],
      "name": "initialReservesValue",
      "outputs": [
        {
          "internalType": "uint128",
          "name": "",
          "type": "uint128"
        }
      ],
      "stateMutability": "pure",
      "type": "function"
    }
  ],
  "bytecode": "0x61238261003a600b82828239805160001a60731461002d57634e487b7160e01b600052600060045260246000fd5b30600052607381538281f3fe73000000000000000000000000000000000000000030146080604052600436106100875760003560e01c80639a7d1570116100655780639a7d1570146100db578063c2ee3a08146100ee578063d49d5181146100f6578063e03824d61461010b57610087565b8063405289321461008c5780635fd8dc08146100b5578063763dc405146100c8575b600080fd5b61009f61009a366004611f6c565b61011e565b6040516100ac919061232f565b60405180910390f35b61009f6100c3366004611f6c565b61027f565b61009f6100d6366004611f08565b6103ef565b61009f6100e9366004611f6c565b61051e565b61009f61061d565b6100fe61062a565b6040516100ac9190612343565b61009f610119366004611f6c565b610635565b60008061012c85858561075f565b9050600061014d6001600160801b038a168368010000000000000000610818565b6001600160801b039081169150600090610173908a168468010000000000000000610818565b6001600160801b0390811691508a811689821601908111156101b05760405162461bcd60e51b81526004016101a79061213e565b60405180910390fd5b60006101cf6001600160801b0383168668010000000000000000610818565b6001600160801b039081169150848401829003908111156102025760405162461bcd60e51b81526004016101a790612209565b60006102216001600160801b0383166801000000000000000089610818565b6001600160801b039081168e82160391508111156102515760405162461bcd60e51b81526004016101a7906120aa565b64e8d4a51000811161026457600061026d565b64e8d4a5100081035b9e9d5050505050505050505050505050565b60008061028d85858561075f565b905060006102ae6001600160801b038a168368010000000000000000610818565b6001600160801b0390811691506000906102d4908a168468010000000000000000610818565b6001600160801b0390811691508881168a821603908111156103085760405162461bcd60e51b81526004016101a79061203c565b60006103276001600160801b0383168668010000000000000000610818565b6001600160801b0390811691508484018290039081111561035a5760405162461bcd60e51b81526004016101a7906121ac565b60006001600160801b03808f169061037e908416680100000000000000008a610818565b6001600160801b03160390506001600160801b0380168111156103b35760405162461bcd60e51b81526004016101a7906120aa565b6fffffffffffffffffffffff172b5aefff81106103d7576001600160801b0361026d565b64e8d4a51000019d9c50505050505050505050505050565b600080610409600f84900b6001600160801b0389166108f2565b90506001600160801b0381111561041f57600080fd5b6000610454610444610439886001600160801b031661096c565b600f88900b9061098f565b68010000000000000000906109e7565b9050600081600f0b1361046657600080fd5b600060016104876001600160801b038a168468010000000000000000610818565b6001600160801b03908116906104a99086168568010000000000000000610818565b6001600160801b031601901c90506001600160801b0380168111156104cd57600080fd5b600060016104ee6001600160801b0384166801000000000000000086610818565b6001600160801b0316901b90506001600160801b03801681111561051157600080fd5b9998505050505050505050565b60008061052c85858561075f565b9050600061054d6001600160801b038a168368010000000000000000610818565b6001600160801b039081169150600090610573908a168468010000000000000000610818565b6001600160801b0390811691508881168b821603908111156105a75760405162461bcd60e51b81526004016101a790612073565b60006105c66001600160801b0383168668010000000000000000610818565b6001600160801b039081169150848401829003908111156105f95760405162461bcd60e51b81526004016101a790611fdf565b60006001600160801b03808e169061037e908416680100000000000000008a610818565b6801000000000000000081565b6001600160801b0381565b60008061064385858561075f565b905060006106646001600160801b038a168368010000000000000000610818565b6001600160801b03908116915060009061068a908a168468010000000000000000610818565b6001600160801b03908116915089811689821601908111156106be5760405162461bcd60e51b81526004016101a790612107565b60006106dd6001600160801b0383168668010000000000000000610818565b6001600160801b039081169150848401829003908111156107105760405162461bcd60e51b81526004016101a790612266565b600061072f6001600160801b0383166801000000000000000089610818565b6001600160801b039081168f82160391508111156102515760405162461bcd60e51b81526004016101a7906120aa565b600080610782610777866001600160801b031661096c565b600f86900b9061098f565b9050600081600f0b12156107a85760405162461bcd60e51b81526004016101a790612175565b60006107bb610444600f86900b8461098f565b9050600081600f0b136107e05760405162461bcd60e51b81526004016101a7906122c3565b68010000000000000000600f82900b131561080d5760405162461bcd60e51b81526004016101a7906122f8565b9150505b9392505050565b60006001600160801b03821661082d57600080fd5b6001600160801b038416610856576001600160801b03831661084e57600080fd5b506000610811565b6000826001600160801b0316846001600160801b031661087587610a3b565b6001600160801b03036001600160801b031602816108bc577f4e487b7100000000000000000000000000000000000000000000000000000000600052601260045260246000fd5b0490506001600160801b038111156108d8576000915050610811565b6108ea816001600160801b0303611552565b915050610811565b60008161090157506000610966565b600083600f0b121561091257600080fd5b6001600160801b03838116908316810260401c90608084901c0277ffffffffffffffffffffffffffffffffffffffffffffffff81111561095157600080fd5b60401b811981111561096257600080fd5b0190505b92915050565b6000677fffffffffffffff82111561098357600080fd5b50604081901b5b919050565b6000600f83810b9083900b0260401d7fffffffffffffffffffffffffffffffff8000000000000000000000000000000081128015906109de57506f7fffffffffffffffffffffffffffffff8113155b61081157600080fd5b6000600f82810b9084900b037fffffffffffffffffffffffffffffffff8000000000000000000000000000000081128015906109de57506f7fffffffffffffffffffffffffffffff81131561081157600080fd5b60006001600160801b038216610a5057600080fd5b6001600160801b0382166ffe00000000000000000000000000000068010000000000000000821015610aa65760409190911b907fffffffffffffffffffffffffffffffff80000000000000000000000000000000015b6c01000000000000000000000000821015610ae55760209190911b907fffffffffffffffffffffffffffffffffc0000000000000000000000000000000015b6e010000000000000000000000000000821015610b265760109190911b907fffffffffffffffffffffffffffffffffe0000000000000000000000000000000015b6f01000000000000000000000000000000821015610b685760089190911b907ffffffffffffffffffffffffffffffffff0000000000000000000000000000000015b6f10000000000000000000000000000000821015610baa5760049190911b907ffffffffffffffffffffffffffffffffff8000000000000000000000000000000015b6f40000000000000000000000000000000821015610bec5760029190911b907ffffffffffffffffffffffffffffffffffc000000000000000000000000000000015b6f80000000000000000000000000000000821015610c2e5760019190911b907ffffffffffffffffffffffffffffffffffe000000000000000000000000000000015b908002607f1c90600160801b821115610c5b5760019190911c906f01000000000000000000000000000000175b908002607f1c90600160801b821115610c875760019190911c906e800000000000000000000000000000175b908002607f1c90600160801b821115610cb35760019190911c906e400000000000000000000000000000175b908002607f1c90600160801b821115610cdf5760019190911c906e200000000000000000000000000000175b908002607f1c90600160801b821115610d0b5760019190911c906e100000000000000000000000000000175b908002607f1c90600160801b821115610d375760019190911c906e080000000000000000000000000000175b908002607f1c90600160801b821115610d635760019190911c906e040000000000000000000000000000175b908002607f1c90600160801b821115610d8f5760019190911c906e020000000000000000000000000000175b908002607f1c90600160801b821115610dbb5760019190911c906e010000000000000000000000000000175b908002607f1c90600160801b821115610de65760019190911c906d8000000000000000000000000000175b908002607f1c90600160801b821115610e115760019190911c906d4000000000000000000000000000175b908002607f1c90600160801b821115610e3c5760019190911c906d2000000000000000000000000000175b908002607f1c90600160801b821115610e675760019190911c906d1000000000000000000000000000175b908002607f1c90600160801b821115610e925760019190911c906d0800000000000000000000000000175b908002607f1c90600160801b821115610ebd5760019190911c906d0400000000000000000000000000175b908002607f1c90600160801b821115610ee85760019190911c906d0200000000000000000000000000175b908002607f1c90600160801b821115610f135760019190911c906d0100000000000000000000000000175b908002607f1c90600160801b821115610f3d5760019190911c906c80000000000000000000000000175b908002607f1c90600160801b821115610f675760019190911c906c40000000000000000000000000175b908002607f1c90600160801b821115610f915760019190911c906c20000000000000000000000000175b908002607f1c90600160801b821115610fbb5760019190911c906c10000000000000000000000000175b908002607f1c90600160801b821115610fe55760019190911c906c08000000000000000000000000175b908002607f1c90600160801b82111561100f5760019190911c906c04000000000000000000000000175b908002607f1c90600160801b8211156110395760019190911c906c02000000000000000000000000175b908002607f1c90600160801b8211156110635760019190911c906c01000000000000000000000000175b908002607f1c90600160801b82111561108c5760019190911c906b800000000000000000000000175b908002607f1c90600160801b8211156110b55760019190911c906b400000000000000000000000175b908002607f1c90600160801b8211156110de5760019190911c906b200000000000000000000000175b908002607f1c90600160801b8211156111075760019190911c906b100000000000000000000000175b908002607f1c90600160801b8211156111305760019190911c906b080000000000000000000000175b908002607f1c90600160801b8211156111595760019190911c906b040000000000000000000000175b908002607f1c90600160801b8211156111825760019190911c906b020000000000000000000000175b908002607f1c90600160801b8211156111ab5760019190911c906b010000000000000000000000175b908002607f1c90600160801b8211156111d35760019190911c906a8000000000000000000000175b908002607f1c90600160801b8211156111fb5760019190911c906a4000000000000000000000175b908002607f1c90600160801b8211156112235760019190911c906a2000000000000000000000175b908002607f1c90600160801b82111561124b5760019190911c906a1000000000000000000000175b908002607f1c90600160801b8211156112735760019190911c906a0800000000000000000000175b908002607f1c90600160801b82111561129b5760019190911c906a0400000000000000000000175b908002607f1c90600160801b8211156112c35760019190911c906a0200000000000000000000175b908002607f1c90600160801b8211156112eb5760019190911c906a0100000000000000000000175b908002607f1c90600160801b8211156113125760019190911c906980000000000000000000175b908002607f1c90600160801b8211156113395760019190911c906940000000000000000000175b908002607f1c90600160801b8211156113605760019190911c906920000000000000000000175b908002607f1c90600160801b8211156113875760019190911c906910000000000000000000175b908002607f1c90600160801b8211156113ae5760019190911c906908000000000000000000175b908002607f1c90600160801b8211156113d55760019190911c906904000000000000000000175b908002607f1c90600160801b8211156113fc5760019190911c906902000000000000000000175b908002607f1c90600160801b8211156114235760019190911c906901000000000000000000175b908002607f1c90600160801b8211156114495760019190911c9068800000000000000000175b908002607f1c90600160801b82111561146f5760019190911c9068400000000000000000175b908002607f1c90600160801b8211156114955760019190911c9068200000000000000000175b908002607f1c90600160801b8211156114bb5760019190911c9068100000000000000000175b908002607f1c90600160801b8211156114e15760019190911c9068080000000000000000175b908002607f1c90600160801b8211156115075760019190911c9068040000000000000000175b908002607f1c90600160801b82111561152d5760019190911c9068020000000000000000175b908002607f1c90600160801b8211156108115768010000000000000000179392505050565b60006f800000000000000000000000000000006f01000000000000000000000000000000831615611593576fb504f333f9de6484597d89b3754abe9f02607f1c5b6e8000000000000000000000000000008316156115c0576f9837f0518db8a96f46ad23182e42f6f602607f1c5b6e4000000000000000000000000000008316156115ed576f8b95c1e3ea8bd6e6fbe4628758a53c9002607f1c5b6e20000000000000000000000000000083161561161a576f85aac367cc487b14c5c95b8c2154c1b202607f1c5b6e100000000000000000000000000000831615611647576f82cd8698ac2ba1d73e2a475b46520bff02607f1c5b6e080000000000000000000000000000831615611674576f8164d1f3bc0307737be56527bd14def402607f1c5b6e0400000000000000000000000000008316156116a1576f80b1ed4fd999ab6c25335719b6e6fd2002607f1c5b6e0200000000000000000000000000008316156116ce576f8058d7d2d5e5f6b094d589f608ee4aa202607f1c5b6e0100000000000000000000000000008316156116fb576f802c6436d0e04f50ff8ce94a6797b3ce02607f1c5b6d8000000000000000000000000000831615611727576f8016302f174676283690dfe44d11d00802607f1c5b6d4000000000000000000000000000831615611753576f800b179c82028fd0945e54e2ae18f2f002607f1c5b6d200000000000000000000000000083161561177f576f80058baf7fee3b5d1c718b38e549cb9302607f1c5b6d10000000000000000000000000008316156117ab576f8002c5d00fdcfcb6b6566a58c048be1f02607f1c5b6d08000000000000000000000000008316156117d7576f800162e61bed4a48e84c2e1a463473d902607f1c5b6d0400000000000000000000000000831615611803576f8000b17292f702a3aa22beacca94901302607f1c5b6d020000000000000000000000000083161561182f576f800058b92abbae02030c5fa5256f41fe02607f1c5b6d010000000000000000000000000083161561185b576f80002c5c8dade4d71776c0f4dbea67d602607f1c5b6c80000000000000000000000000831615611886576f8000162e44eaf636526be456600bdbe402607f1c5b6c400000000000000000000000008316156118b1576f80000b1721fa7c188307016c1cd4e8b602607f1c5b6c200000000000000000000000008316156118dc576f8000058b90de7e4cecfc487503488bb102607f1c5b6c10000000000000000000000000831615611907576f800002c5c8678f36cbfce50a6de60b1402607f1c5b6c08000000000000000000000000831615611932576f80000162e431db9f80b2347b5d62e51602607f1c5b6c0400000000000000000000000083161561195d576f800000b1721872d0c7b08cf1e011415202607f1c5b6c02000000000000000000000000831615611988576f80000058b90c1aa8a5c3736cb77e8dff02607f1c5b6c010000000000000000000000008316156119b3576f8000002c5c8605a4635f2efc2362d97802607f1c5b6b8000000000000000000000008316156119dd576f800000162e4300e635cf4a109e3939bd02607f1c5b6b400000000000000000000000831615611a07576f8000000b17217ff81bef9c551590cf8302607f1c5b6b200000000000000000000000831615611a31576f800000058b90bfdd4e39cd52c0cfa27c02607f1c5b6b100000000000000000000000831615611a5b576f80000002c5c85fe6f72d669e0e76e41102607f1c5b6b080000000000000000000000831615611a85576f8000000162e42ff18f9ad35186d0df2802607f1c5b6b040000000000000000000000831615611aaf576f80000000b17217f84cce71aa0dcfffe702607f1c5b6b020000000000000000000000831615611ad9576f8000000058b90bfc07a77ad56ed22aaa02607f1c5b6b010000000000000000000000831615611b03576f800000002c5c85fdfc23cdead40da8d602607f1c5b6a8000000000000000000000831615611b2c576f80000000162e42fefc25eb1571853a6602607f1c5b6a4000000000000000000000831615611b55576f800000000b17217f7d97f692baacded502607f1c5b6a2000000000000000000000831615611b7e576f80000000058b90bfbead3b8b5dd254d702607f1c5b6a1000000000000000000000831615611ba7576f8000000002c5c85fdf4eedd62f084e6702607f1c5b6a0800000000000000000000831615611bd0576f800000000162e42fefa58aef378bf58602607f1c5b6a0400000000000000000000831615611bf9576f8000000000b17217f7d24a78a3c7ef0202607f1c5b6a0200000000000000000000831615611c22576f800000000058b90bfbe9067c93e474a602607f1c5b6a0100000000000000000000831615611c4b576f80000000002c5c85fdf47b8e5a72599f02607f1c5b6980000000000000000000831615611c73576f8000000000162e42fefa3bdb315934a202607f1c5b6940000000000000000000831615611c9b576f80000000000b17217f7d1d7299b49c4602607f1c5b6920000000000000000000831615611cc3576f8000000000058b90bfbe8e9a8d1c4ea002607f1c5b6910000000000000000000831615611ceb576f800000000002c5c85fdf4745969ea76f02607f1c5b6908000000000000000000831615611d13576f80000000000162e42fefa3a0df5373bf02607f1c5b6904000000000000000000831615611d3b576f800000000000b17217f7d1cff4aac1e102607f1c5b6902000000000000000000831615611d63576f80000000000058b90bfbe8e7db95a2f102607f1c5b6901000000000000000000831615611d8b576f8000000000002c5c85fdf473e61ae1f802607f1c5b68800000000000000000831615611db2576f800000000000162e42fefa39f121751c02607f1c5b68400000000000000000831615611dd9576f8000000000000b17217f7d1cf815bb9602607f1c5b68200000000000000000831615611e00576f800000000000058b90bfbe8e7bec1e0d02607f1c5b68100000000000000000831615611e27576f80000000000002c5c85fdf473dee5f1702607f1c5b68080000000000000000831615611e4e576f8000000000000162e42fefa39ef5438f02607f1c5b68040000000000000000831615611e75576f80000000000000b17217f7d1cf7a26c802607f1c5b68020000000000000000831615611e9c576f8000000000000058b90bfbe8e7bcf4a402607f1c5b68010000000000000000831615611ec3576f800000000000002c5c85fdf473de72a202607f1c5b607f607984901c811690036001600160801b03161c9050919050565b8035600f81900b811461098a57600080fd5b80356001600160801b038116811461098a57600080fd5b600080600080600060a08688031215611f1f578081fd5b611f2886611ef1565b9450611f3660208701611ef1565b9350611f4460408701611ef1565b9250611f5260608701611edf565b9150611f6060808701611edf565b90509295509295909350565b60008060008060008060c08789031215611f84578081fd5b611f8d87611ef1565b9550611f9b60208801611ef1565b9450611fa960408801611ef1565b9350611fb760608801611ef1565b9250611fc560808801611edf565b9150611fd360a08801611edf565b90509295509295509295565b6020808252602e908201527f5969656c644d6174683a20526573756c74696e67206679546f6b656e2072657360408201527f657276657320746f6f2068696768000000000000000000000000000000000000606082015260800190565b6020808252601f908201527f5969656c644d6174683a20546f6f206d756368206679546f6b656e206f757400604082015260600190565b6020808252601c908201527f5969656c644d6174683a20546f6f206d7563682062617365206f757400000000604082015260600190565b60208082526021908201527f5969656c644d6174683a20526f756e64696e6720696e6475636564206572726f60408201527f7200000000000000000000000000000000000000000000000000000000000000606082015260800190565b6020808252601e908201527f5969656c644d6174683a20546f6f206d756368206679546f6b656e20696e0000604082015260600190565b6020808252601b908201527f5969656c644d6174683a20546f6f206d756368206261736520696e0000000000604082015260600190565b6020808252601d908201527f5969656c644d6174683a2074206d75737420626520706f736974697665000000604082015260600190565b6020808252602b908201527f5969656c644d6174683a20526573756c74696e6720626173652072657365727660408201527f657320746f6f2068696768000000000000000000000000000000000000000000606082015260800190565b60208082526028908201527f5969656c644d6174683a20496e73756666696369656e74206679546f6b656e2060408201527f7265736572766573000000000000000000000000000000000000000000000000606082015260800190565b60208082526025908201527f5969656c644d6174683a20496e73756666696369656e7420626173652072657360408201527f6572766573000000000000000000000000000000000000000000000000000000606082015260800190565b6020808252818101527f5969656c644d6174683a20546f6f206661722066726f6d206d61747572697479604082015260600190565b6020808252601d908201527f5969656c644d6174683a2067206d75737420626520706f736974697665000000604082015260600190565b6001600160801b0391909116815260200190565b9081526020019056fea26469706673582212200319da30913f5b99151de31ddf5d37f64c55e04fbaacbc58a75ca43ae6a7b05264736f6c63430008010033",
  "linkReferences": {},
  "deployedLinkReferences": {}
}