{
  "_format": "hh-sol-artifact-1",
  "contractName": "EthPool",
  "sourceName": "contracts/pool/EthPool.sol",
  "abi": [
    {
      "inputs": [
        {
          "internalType": "contract IController",
          "name": "_controller",
          "type": "address"
        }
      ],
      "stateMutability": "nonpayable",
      "type": "constructor"
    },
    {
      "anonymous": false,
      "inputs": [
        {
          "indexed": true,
          "internalType": "bytes32",
          "name": "key",
          "type": "bytes32"
        },
        {
          "indexed": false,
          "internalType": "address",
          "name": "value",
          "type": "address"
        },
        {
          "indexed": false,
          "internalType": "uint256",
          "name": "delay",
          "type": "uint256"
        }
      ],
      "name": "ConfigPreparedAddress",
      "type": "event"
    },
    {
      "anonymous": false,
      "inputs": [
        {
          "indexed": true,
          "internalType": "bytes32",
          "name": "key",
          "type": "bytes32"
        },
        {
          "indexed": false,
          "internalType": "uint256",
          "name": "value",
          "type": "uint256"
        },
        {
          "indexed": false,
          "internalType": "uint256",
          "name": "delay",
          "type": "uint256"
        }
      ],
      "name": "ConfigPreparedNumber",
      "type": "event"
    },
    {
      "anonymous": false,
      "inputs": [
        {
          "indexed": true,
          "internalType": "bytes32",
          "name": "key",
          "type": "bytes32"
        }
      ],
      "name": "ConfigReset",
      "type": "event"
    },
    {
      "anonymous": false,
      "inputs": [
        {
          "indexed": true,
          "internalType": "bytes32",
          "name": "key",
          "type": "bytes32"
        },
        {
          "indexed": false,
          "internalType": "address",
          "name": "oldValue",
          "type": "address"
        },
        {
          "indexed": false,
          "internalType": "address",
          "name": "newValue",
          "type": "address"
        }
      ],
      "name": "ConfigUpdatedAddress",
      "type": "event"
    },
    {
      "anonymous": false,
      "inputs": [
        {
          "indexed": true,
          "internalType": "bytes32",
          "name": "key",
          "type": "bytes32"
        },
        {
          "indexed": false,
          "internalType": "uint256",
          "name": "oldValue",
          "type": "uint256"
        },
        {
          "indexed": false,
          "internalType": "uint256",
          "name": "newValue",
          "type": "uint256"
        }
      ],
      "name": "ConfigUpdatedNumber",
      "type": "event"
    },
    {
      "anonymous": false,
      "inputs": [
        {
          "indexed": true,
          "internalType": "address",
          "name": "minter",
          "type": "address"
        },
        {
          "indexed": false,
          "internalType": "uint256",
          "name": "depositAmount",
          "type": "uint256"
        },
        {
          "indexed": false,
          "internalType": "uint256",
          "name": "mintedLpTokens",
          "type": "uint256"
        }
      ],
      "name": "Deposit",
      "type": "event"
    },
    {
      "anonymous": false,
      "inputs": [
        {
          "indexed": true,
          "internalType": "address",
          "name": "minter",
          "type": "address"
        },
        {
          "indexed": true,
          "internalType": "address",
          "name": "mintee",
          "type": "address"
        },
        {
          "indexed": false,
          "internalType": "uint256",
          "name": "depositAmount",
          "type": "uint256"
        },
        {
          "indexed": false,
          "internalType": "uint256",
          "name": "mintedLpTokens",
          "type": "uint256"
        }
      ],
      "name": "DepositFor",
      "type": "event"
    },
    {
      "anonymous": false,
      "inputs": [
        {
          "indexed": true,
          "internalType": "address",
          "name": "lpToken",
          "type": "address"
        }
      ],
      "name": "LpTokenSet",
      "type": "event"
    },
    {
      "anonymous": false,
      "inputs": [
        {
          "indexed": true,
          "internalType": "address",
          "name": "redeemer",
          "type": "address"
        },
        {
          "indexed": false,
          "internalType": "uint256",
          "name": "redeemAmount",
          "type": "uint256"
        },
        {
          "indexed": false,
          "internalType": "uint256",
          "name": "redeemTokens",
          "type": "uint256"
        }
      ],
      "name": "Redeem",
      "type": "event"
    },
    {
      "anonymous": false,
      "inputs": [
        {
          "indexed": true,
          "internalType": "address",
          "name": "stakerVault",
          "type": "address"
        }
      ],
      "name": "StakerVaultSet",
      "type": "event"
    },
    {
      "inputs": [],
      "name": "addressProvider",
      "outputs": [
        {
          "internalType": "contract IAddressProvider",
          "name": "",
          "type": "address"
        }
      ],
      "stateMutability": "view",
      "type": "function"
    },
    {
      "inputs": [
        {
          "internalType": "address",
          "name": "account",
          "type": "address"
        },
        {
          "internalType": "uint256",
          "name": "underlyingAmount",
          "type": "uint256"
        }
      ],
      "name": "calcRedeem",
      "outputs": [
        {
          "internalType": "uint256",
          "name": "",
          "type": "uint256"
        }
      ],
      "stateMutability": "view",
      "type": "function"
    },
    {
      "inputs": [],
      "name": "controller",
      "outputs": [
        {
          "internalType": "contract IController",
          "name": "",
          "type": "address"
        }
      ],
      "stateMutability": "view",
      "type": "function"
    },
    {
      "inputs": [
        {
          "internalType": "bytes32",
          "name": "",
          "type": "bytes32"
        }
      ],
      "name": "currentAddresses",
      "outputs": [
        {
          "internalType": "address",
          "name": "",
          "type": "address"
        }
      ],
      "stateMutability": "view",
      "type": "function"
    },
    {
      "inputs": [
        {
          "internalType": "bytes32",
          "name": "",
          "type": "bytes32"
        }
      ],
      "name": "currentUInts256",
      "outputs": [
        {
          "internalType": "uint256",
          "name": "",
          "type": "uint256"
        }
      ],
      "stateMutability": "view",
      "type": "function"
    },
    {
      "inputs": [
        {
          "internalType": "bytes32",
          "name": "",
          "type": "bytes32"
        }
      ],
      "name": "deadlines",
      "outputs": [
        {
          "internalType": "uint256",
          "name": "",
          "type": "uint256"
        }
      ],
      "stateMutability": "view",
      "type": "function"
    },
    {
      "inputs": [
        {
          "internalType": "uint256",
          "name": "depositAmount",
          "type": "uint256"
        }
      ],
      "name": "deposit",
      "outputs": [
        {
          "internalType": "uint256",
          "name": "",
          "type": "uint256"
        }
      ],
      "stateMutability": "payable",
      "type": "function"
    },
    {
      "inputs": [
        {
          "internalType": "uint256",
          "name": "depositAmount",
          "type": "uint256"
        },
        {
          "internalType": "uint256",
          "name": "minTokenAmount",
          "type": "uint256"
        }
      ],
      "name": "deposit",
      "outputs": [
        {
          "internalType": "uint256",
          "name": "",
          "type": "uint256"
        }
      ],
      "stateMutability": "payable",
      "type": "function"
    },
    {
      "inputs": [
        {
          "internalType": "uint256",
          "name": "depositAmount",
          "type": "uint256"
        },
        {
          "internalType": "uint256",
          "name": "minTokenAmount",
          "type": "uint256"
        }
      ],
      "name": "depositAndStake",
      "outputs": [
        {
          "internalType": "uint256",
          "name": "",
          "type": "uint256"
        }
      ],
      "stateMutability": "payable",
      "type": "function"
    },
    {
      "inputs": [],
      "name": "depositCap",
      "outputs": [
        {
          "internalType": "uint256",
          "name": "",
          "type": "uint256"
        }
      ],
      "stateMutability": "view",
      "type": "function"
    },
    {
      "inputs": [
        {
          "internalType": "address",
          "name": "account",
          "type": "address"
        },
        {
          "internalType": "uint256",
          "name": "depositAmount",
          "type": "uint256"
        }
      ],
      "name": "depositFor",
      "outputs": [
        {
          "internalType": "uint256",
          "name": "",
          "type": "uint256"
        }
      ],
      "stateMutability": "payable",
      "type": "function"
    },
    {
      "inputs": [
        {
          "internalType": "address",
          "name": "account",
          "type": "address"
        },
        {
          "internalType": "uint256",
          "name": "depositAmount",
          "type": "uint256"
        },
        {
          "internalType": "uint256",
          "name": "minTokenAmount",
          "type": "uint256"
        }
      ],
      "name": "depositFor",
      "outputs": [
        {
          "internalType": "uint256",
          "name": "",
          "type": "uint256"
        }
      ],
      "stateMutability": "payable",
      "type": "function"
    },
    {
      "inputs": [],
      "name": "exchangeRate",
      "outputs": [
        {
          "internalType": "uint256",
          "name": "",
          "type": "uint256"
        }
      ],
      "stateMutability": "view",
      "type": "function"
    },
    {
      "inputs": [],
      "name": "executeNewMaxWithdrawalFee",
      "outputs": [
        {
          "internalType": "uint256",
          "name": "",
          "type": "uint256"
        }
      ],
      "stateMutability": "nonpayable",
      "type": "function"
    },
    {
      "inputs": [],
      "name": "executeNewMinWithdrawalFee",
      "outputs": [
        {
          "internalType": "uint256",
          "name": "",
          "type": "uint256"
        }
      ],
      "stateMutability": "nonpayable",
      "type": "function"
    },
    {
      "inputs": [],
      "name": "executeNewRequiredReserves",
      "outputs": [
        {
          "internalType": "uint256",
          "name": "",
          "type": "uint256"
        }
      ],
      "stateMutability": "nonpayable",
      "type": "function"
    },
    {
      "inputs": [],
      "name": "executeNewReserveDeviation",
      "outputs": [
        {
          "internalType": "uint256",
          "name": "",
          "type": "uint256"
        }
      ],
      "stateMutability": "nonpayable",
      "type": "function"
    },
    {
      "inputs": [],
      "name": "executeNewVault",
      "outputs": [
        {
          "internalType": "address",
          "name": "",
          "type": "address"
        }
      ],
      "stateMutability": "nonpayable",
      "type": "function"
    },
    {
      "inputs": [],
      "name": "executeNewWithdrawalFeeDecreasePeriod",
      "outputs": [
        {
          "internalType": "uint256",
          "name": "",
          "type": "uint256"
        }
      ],
      "stateMutability": "nonpayable",
      "type": "function"
    },
    {
      "inputs": [],
      "name": "getLpToken",
      "outputs": [
        {
          "internalType": "address",
          "name": "",
          "type": "address"
        }
      ],
      "stateMutability": "view",
      "type": "function"
    },
    {
      "inputs": [],
      "name": "getMaxReserveDeviationRatio",
      "outputs": [
        {
          "internalType": "uint256",
          "name": "",
          "type": "uint256"
        }
      ],
      "stateMutability": "view",
      "type": "function"
    },
    {
      "inputs": [],
      "name": "getMaxWithdrawalFee",
      "outputs": [
        {
          "internalType": "uint256",
          "name": "",
          "type": "uint256"
        }
      ],
      "stateMutability": "view",
      "type": "function"
    },
    {
      "inputs": [],
      "name": "getMinWithdrawalFee",
      "outputs": [
        {
          "internalType": "uint256",
          "name": "",
          "type": "uint256"
        }
      ],
      "stateMutability": "view",
      "type": "function"
    },
    {
      "inputs": [
        {
          "internalType": "uint256",
          "name": "timeToWait",
          "type": "uint256"
        },
        {
          "internalType": "uint256",
          "name": "lastActionTimestamp",
          "type": "uint256"
        },
        {
          "internalType": "uint256",
          "name": "feeRatio",
          "type": "uint256"
        }
      ],
      "name": "getNewCurrentFees",
      "outputs": [
        {
          "internalType": "uint256",
          "name": "",
          "type": "uint256"
        }
      ],
      "stateMutability": "view",
      "type": "function"
    },
    {
      "inputs": [],
      "name": "getRequiredReserveRatio",
      "outputs": [
        {
          "internalType": "uint256",
          "name": "",
          "type": "uint256"
        }
      ],
      "stateMutability": "view",
      "type": "function"
    },
    {
      "inputs": [],
      "name": "getUnderlying",
      "outputs": [
        {
          "internalType": "address",
          "name": "",
          "type": "address"
        }
      ],
      "stateMutability": "pure",
      "type": "function"
    },
    {
      "inputs": [],
      "name": "getVault",
      "outputs": [
        {
          "internalType": "contract IVault",
          "name": "",
          "type": "address"
        }
      ],
      "stateMutability": "view",
      "type": "function"
    },
    {
      "inputs": [
        {
          "internalType": "address",
          "name": "account",
          "type": "address"
        },
        {
          "internalType": "uint256",
          "name": "amount",
          "type": "uint256"
        }
      ],
      "name": "getWithdrawalFee",
      "outputs": [
        {
          "internalType": "uint256",
          "name": "",
          "type": "uint256"
        }
      ],
      "stateMutability": "view",
      "type": "function"
    },
    {
      "inputs": [],
      "name": "getWithdrawalFeeDecreasePeriod",
      "outputs": [
        {
          "internalType": "uint256",
          "name": "",
          "type": "uint256"
        }
      ],
      "stateMutability": "view",
      "type": "function"
    },
    {
      "inputs": [
        {
          "internalType": "address",
          "name": "from",
          "type": "address"
        },
        {
          "internalType": "address",
          "name": "to",
          "type": "address"
        },
        {
          "internalType": "uint256",
          "name": "amount",
          "type": "uint256"
        }
      ],
      "name": "handleLpTokenTransfer",
      "outputs": [],
      "stateMutability": "nonpayable",
      "type": "function"
    },
    {
      "inputs": [
        {
          "internalType": "string",
          "name": "name_",
          "type": "string"
        },
        {
          "internalType": "uint256",
          "name": "depositCap_",
          "type": "uint256"
        },
        {
          "internalType": "address",
          "name": "vault_",
          "type": "address"
        }
      ],
      "name": "initialize",
      "outputs": [
        {
          "internalType": "bool",
          "name": "",
          "type": "bool"
        }
      ],
      "stateMutability": "nonpayable",
      "type": "function"
    },
    {
      "inputs": [],
      "name": "isCapped",
      "outputs": [
        {
          "internalType": "bool",
          "name": "",
          "type": "bool"
        }
      ],
      "stateMutability": "view",
      "type": "function"
    },
    {
      "inputs": [],
      "name": "isPaused",
      "outputs": [
        {
          "internalType": "bool",
          "name": "",
          "type": "bool"
        }
      ],
      "stateMutability": "view",
      "type": "function"
    },
    {
      "inputs": [],
      "name": "lpToken",
      "outputs": [
        {
          "internalType": "contract ILpToken",
          "name": "",
          "type": "address"
        }
      ],
      "stateMutability": "view",
      "type": "function"
    },
    {
      "inputs": [],
      "name": "name",
      "outputs": [
        {
          "internalType": "string",
          "name": "",
          "type": "string"
        }
      ],
      "stateMutability": "view",
      "type": "function"
    },
    {
      "inputs": [],
      "name": "pause",
      "outputs": [
        {
          "internalType": "bool",
          "name": "",
          "type": "bool"
        }
      ],
      "stateMutability": "nonpayable",
      "type": "function"
    },
    {
      "inputs": [
        {
          "internalType": "bytes32",
          "name": "",
          "type": "bytes32"
        }
      ],
      "name": "pendingAddresses",
      "outputs": [
        {
          "internalType": "address",
          "name": "",
          "type": "address"
        }
      ],
      "stateMutability": "view",
      "type": "function"
    },
    {
      "inputs": [
        {
          "internalType": "bytes32",
          "name": "",
          "type": "bytes32"
        }
      ],
      "name": "pendingUInts256",
      "outputs": [
        {
          "internalType": "uint256",
          "name": "",
          "type": "uint256"
        }
      ],
      "stateMutability": "view",
      "type": "function"
    },
    {
      "inputs": [
        {
          "internalType": "uint256",
          "name": "newFee",
          "type": "uint256"
        }
      ],
      "name": "prepareNewMaxWithdrawalFee",
      "outputs": [
        {
          "internalType": "bool",
          "name": "",
          "type": "bool"
        }
      ],
      "stateMutability": "nonpayable",
      "type": "function"
    },
    {
      "inputs": [
        {
          "internalType": "uint256",
          "name": "newFee",
          "type": "uint256"
        }
      ],
      "name": "prepareNewMinWithdrawalFee",
      "outputs": [
        {
          "internalType": "bool",
          "name": "",
          "type": "bool"
        }
      ],
      "stateMutability": "nonpayable",
      "type": "function"
    },
    {
      "inputs": [
        {
          "internalType": "uint256",
          "name": "_newRatio",
          "type": "uint256"
        }
      ],
      "name": "prepareNewRequiredReserves",
      "outputs": [
        {
          "internalType": "bool",
          "name": "",
          "type": "bool"
        }
      ],
      "stateMutability": "nonpayable",
      "type": "function"
    },
    {
      "inputs": [
        {
          "internalType": "uint256",
          "name": "newRatio",
          "type": "uint256"
        }
      ],
      "name": "prepareNewReserveDeviation",
      "outputs": [
        {
          "internalType": "bool",
          "name": "",
          "type": "bool"
        }
      ],
      "stateMutability": "nonpayable",
      "type": "function"
    },
    {
      "inputs": [
        {
          "internalType": "address",
          "name": "_vault",
          "type": "address"
        }
      ],
      "name": "prepareNewVault",
      "outputs": [
        {
          "internalType": "bool",
          "name": "",
          "type": "bool"
        }
      ],
      "stateMutability": "nonpayable",
      "type": "function"
    },
    {
      "inputs": [
        {
          "internalType": "uint256",
          "name": "newPeriod",
          "type": "uint256"
        }
      ],
      "name": "prepareNewWithdrawalFeeDecreasePeriod",
      "outputs": [
        {
          "internalType": "bool",
          "name": "",
          "type": "bool"
        }
      ],
      "stateMutability": "nonpayable",
      "type": "function"
    },
    {
      "inputs": [],
      "name": "rebalanceVault",
      "outputs": [],
      "stateMutability": "nonpayable",
      "type": "function"
    },
    {
      "inputs": [
        {
          "internalType": "uint256",
          "name": "redeemLpTokens",
          "type": "uint256"
        },
        {
          "internalType": "uint256",
          "name": "minRedeemAmount",
          "type": "uint256"
        }
      ],
      "name": "redeem",
      "outputs": [
        {
          "internalType": "uint256",
          "name": "",
          "type": "uint256"
        }
      ],
      "stateMutability": "nonpayable",
      "type": "function"
    },
    {
      "inputs": [
        {
          "internalType": "uint256",
          "name": "redeemLpTokens",
          "type": "uint256"
        }
      ],
      "name": "redeem",
      "outputs": [
        {
          "internalType": "uint256",
          "name": "",
          "type": "uint256"
        }
      ],
      "stateMutability": "nonpayable",
      "type": "function"
    },
    {
      "inputs": [],
      "name": "resetNewMaxWithdrawalFee",
      "outputs": [
        {
          "internalType": "bool",
          "name": "",
          "type": "bool"
        }
      ],
      "stateMutability": "nonpayable",
      "type": "function"
    },
    {
      "inputs": [],
      "name": "resetNewMinWithdrawalFee",
      "outputs": [
        {
          "internalType": "bool",
          "name": "",
          "type": "bool"
        }
      ],
      "stateMutability": "nonpayable",
      "type": "function"
    },
    {
      "inputs": [],
      "name": "resetNewReserveDeviation",
      "outputs": [
        {
          "internalType": "bool",
          "name": "",
          "type": "bool"
        }
      ],
      "stateMutability": "nonpayable",
      "type": "function"
    },
    {
      "inputs": [],
      "name": "resetNewVault",
      "outputs": [
        {
          "internalType": "bool",
          "name": "",
          "type": "bool"
        }
      ],
      "stateMutability": "nonpayable",
      "type": "function"
    },
    {
      "inputs": [],
      "name": "resetNewWithdrawalFeeDecreasePeriod",
      "outputs": [
        {
          "internalType": "bool",
          "name": "",
          "type": "bool"
        }
      ],
      "stateMutability": "nonpayable",
      "type": "function"
    },
    {
      "inputs": [],
      "name": "resetRequiredReserves",
      "outputs": [
        {
          "internalType": "bool",
          "name": "",
          "type": "bool"
        }
      ],
      "stateMutability": "nonpayable",
      "type": "function"
    },
    {
      "inputs": [],
      "name": "roleManager",
      "outputs": [
        {
          "internalType": "contract IRoleManager",
          "name": "",
          "type": "address"
        }
      ],
      "stateMutability": "view",
      "type": "function"
    },
    {
      "inputs": [
        {
          "internalType": "address",
          "name": "_lpToken",
          "type": "address"
        }
      ],
      "name": "setLpToken",
      "outputs": [
        {
          "internalType": "bool",
          "name": "",
          "type": "bool"
        }
      ],
      "stateMutability": "nonpayable",
      "type": "function"
    },
    {
      "inputs": [],
      "name": "setStaker",
      "outputs": [
        {
          "internalType": "bool",
          "name": "",
          "type": "bool"
        }
      ],
      "stateMutability": "nonpayable",
      "type": "function"
    },
    {
      "inputs": [],
      "name": "staker",
      "outputs": [
        {
          "internalType": "contract IStakerVault",
          "name": "",
          "type": "address"
        }
      ],
      "stateMutability": "view",
      "type": "function"
    },
    {
      "inputs": [],
      "name": "totalUnderlying",
      "outputs": [
        {
          "internalType": "uint256",
          "name": "",
          "type": "uint256"
        }
      ],
      "stateMutability": "view",
      "type": "function"
    },
    {
      "inputs": [],
      "name": "uncap",
      "outputs": [
        {
          "internalType": "bool",
          "name": "",
          "type": "bool"
        }
      ],
      "stateMutability": "nonpayable",
      "type": "function"
    },
    {
      "inputs": [],
      "name": "unpause",
      "outputs": [
        {
          "internalType": "bool",
          "name": "",
          "type": "bool"
        }
      ],
      "stateMutability": "nonpayable",
      "type": "function"
    },
    {
      "inputs": [
        {
          "internalType": "uint256",
          "name": "redeemLpTokens",
          "type": "uint256"
        },
        {
          "internalType": "uint256",
          "name": "minRedeemAmount",
          "type": "uint256"
        }
      ],
      "name": "unstakeAndRedeem",
      "outputs": [
        {
          "internalType": "uint256",
          "name": "",
          "type": "uint256"
        }
      ],
      "stateMutability": "nonpayable",
      "type": "function"
    },
    {
      "inputs": [
        {
          "internalType": "uint256",
          "name": "_depositCap",
          "type": "uint256"
        }
      ],
      "name": "updateDepositCap",
      "outputs": [
        {
          "internalType": "bool",
          "name": "",
          "type": "bool"
        }
      ],
      "stateMutability": "nonpayable",
      "type": "function"
    },
    {
      "inputs": [],
      "name": "withdrawAll",
      "outputs": [],
      "stateMutability": "nonpayable",
      "type": "function"
    },
    {
      "inputs": [
        {
          "internalType": "address",
          "name": "",
          "type": "address"
        }
      ],
      "name": "withdrawalFeeMetas",
      "outputs": [
        {
          "internalType": "uint64",
          "name": "timeToWait",
          "type": "uint64"
        },
        {
          "internalType": "uint64",
          "name": "feeRatio",
          "type": "uint64"
        },
        {
          "internalType": "uint64",
          "name": "lastActionTimestamp",
          "type": "uint64"
        }
      ],
      "stateMutability": "view",
      "type": "function"
    },
    {
      "stateMutability": "payable",
      "type": "receive"
    }
  ],
  "bytecode": "0x60e06040523480156200001157600080fd5b506040516200545f3803806200545f833981016040819052620000349162000278565b80620000c8816001600160a01b0316632954018c6040518163ffffffff1660e01b815260040160206040518083038186803b1580156200007357600080fd5b505afa15801562000088573d6000803e3d6000fd5b505050506040513d601f19601f82011682018060405250810190620000ae919062000278565b6001600160a01b0316620001cd60201b620039a01760201c565b6001600160a01b0390811660805260408051808201909152601881527f7a65726f2061646472657373206e6f7420616c6c6f77656400000000000000006020820152908216620001365760405162461bcd60e51b81526004016200012d91906200029f565b60405180910390fd5b506001600160a01b03811660a081905260408051630a55006360e21b81529051632954018c91600480820192602092909190829003018186803b1580156200017d57600080fd5b505afa15801562000192573d6000803e3d6000fd5b505050506040513d601f19601f82011682018060405250810190620001b8919062000278565b6001600160a01b031660c05250620002f79050565b6040516321f8a72160e01b81526a3937b632a6b0b730b3b2b960a91b60048201526000906001600160a01b038316906321f8a7219060240160206040518083038186803b1580156200021e57600080fd5b505afa15801562000233573d6000803e3d6000fd5b505050506040513d601f19601f8201168201806040525081019062000259919062000278565b92915050565b6001600160a01b03811681146200027557600080fd5b50565b6000602082840312156200028b57600080fd5b815162000298816200025f565b9392505050565b600060208083528351808285015260005b81811015620002ce57858101830151858201604001528201620002b0565b81811115620002e1576000604083870101525b50601f01601f1916929092016040019392505050565b60805160a05160c0516151006200035f6000396000818161052101528181610e8e01528181611c3d0152818161218f01528181612fdd01528181613711015281816137bd0152818161385e01526138fd01526000610b2f01526000613a2a01526151006000f3fe6080604052600436106103c65760003560e01c80637cbc2373116101f2578063b6b55f251161010d578063e2bbb158116100a0578063f07079031161006f578063f070790314610aa7578063f1b60c9814610ac7578063f76c339914610ae7578063f77c479114610b1d57600080fd5b8063e2bbb15814610a29578063e3976edf14610a3c578063ee78877714610a72578063efe9ee6b14610a9257600080fd5b8063d14397d7116100dc578063d14397d7146109b3578063d8178a0e146109d3578063db006a75146109f3578063dbd5edc714610a1357600080fd5b8063b6b55f2514610956578063b891126714610969578063c70920bc14610989578063ca917a9f1461099e57600080fd5b80639ba1c15611610185578063ac34993011610154578063ac349930146108da578063aff1b7e4146108ef578063b187bd261461091c578063b3af73941461093657600080fd5b80639ba1c1561461087b5780639ee933b514610890578063a08bd3ec146108b0578063ac23e496146108c557600080fd5b8063855d7ecf116101c1578063855d7ecf1461081d5780638d928af81461083d5780638f7265b0146108525780639816f4731461086757600080fd5b80637cbc2373146107b35780638214f5a4146107d35780638456cb59146107f1578063853828b61461080657600080fd5b80633ad193be116102e25780635ebaf1db11610275578063671528d411610244578063671528d414610754578063697b9aab1461076b5780637969ee28146107805780637b95b5371461079357600080fd5b80635ebaf1db146106ea5780635f7ad0541461070a5780635fcbd2851461071f57806366f07dd21461073f57600080fd5b80633ff5244a116102b15780633ff5244a146106825780634cf5fbf5146106a25780634f3bddeb146106b5578063580c7102146106d557600080fd5b80633ad193be146106235780633ba0b9a9146106385780633d59f0c31461064d5780633f4ba83a1461066d57600080fd5b806327a5e8501161035a5780632f4f21e2116103295780632f4f21e21461055857806333aed8891461056b578063346a4a511461058057806337829f49146105ad57600080fd5b806327a5e850146104e557806328f6e2e3146104fa5780632954018c1461050f5780632d229bf21461054357600080fd5b8063096ddcba11610396578063096ddcba1461046057806315dbfe6214610475578063171e5e88146104b05780631f6663ab146104d057600080fd5b8062435da5146103d257806306fdde0314610404578063089cf3c21461042657806308e9940a1461044b57600080fd5b366103cd57005b600080fd5b3480156103de57600080fd5b506103e7610b51565b6040516001600160a01b0390911681526020015b60405180910390f35b34801561041057600080fd5b50610419610b60565b6040516103fb9190614c3e565b34801561043257600080fd5b5061043b610bee565b60405190151581526020016103fb565b34801561045757600080fd5b5061043b610cec565b34801561046c57600080fd5b506103e7610de1565b34801561048157600080fd5b506104a2610490366004614c71565b60016020526000908152604090205481565b6040519081526020016103fb565b3480156104bc57600080fd5b5061043b6104cb366004614c71565b610ef3565b3480156104dc57600080fd5b5061043b6110b6565b3480156104f157600080fd5b506104a26111f4565b34801561050657600080fd5b506104a2611235565b34801561051b57600080fd5b506103e77f000000000000000000000000000000000000000000000000000000000000000081565b34801561054f57600080fd5b506104a2611276565b6104a2610566366004614cad565b6112b2565b34801561057757600080fd5b5061043b6112c9565b34801561058c57600080fd5b506104a261059b366004614c71565b60046020526000908152604090205481565b3480156105b957600080fd5b506105f96105c8366004614cd9565b6006602052600090815260409020546001600160401b0380821691600160401b8104821691600160801b9091041683565b604080516001600160401b03948516815292841660208401529216918101919091526060016103fb565b34801561062f57600080fd5b506104a26113b3565b34801561064457600080fd5b506104a26113dc565b34801561065957600080fd5b5061043b610668366004614cd9565b6114a4565b34801561067957600080fd5b5061043b611598565b34801561068e57600080fd5b5061043b61069d366004614c71565b611602565b6104a26106b0366004614cf6565b611709565b3480156106c157600080fd5b5061043b6106d0366004614d41565b611a80565b3480156106e157600080fd5b506104a2611a95565b3480156106f657600080fd5b506008546103e7906001600160a01b031681565b34801561071657600080fd5b506104a2611ab4565b34801561072b57600080fd5b506009546103e7906001600160a01b031681565b34801561074b57600080fd5b5061043b611acd565b34801561076057600080fd5b50600754151561043b565b34801561077757600080fd5b506104a2611d77565b6104a261078e366004614e0b565b611db8565b34801561079f57600080fd5b506104a26107ae366004614e0b565b611e53565b3480156107bf57600080fd5b506104a26107ce366004614e0b565b61205f565b3480156107df57600080fd5b506009546001600160a01b03166103e7565b3480156107fd57600080fd5b5061043b6123dd565b34801561081257600080fd5b5061081b61244b565b005b34801561082957600080fd5b5061043b610838366004614c71565b61257e565b34801561084957600080fd5b506103e7612685565b34801561085e57600080fd5b5061081b6126c4565b34801561087357600080fd5b5060006103e7565b34801561088757600080fd5b506104a26127a5565b34801561089c57600080fd5b5061043b6108ab366004614cd9565b6127d7565b3480156108bc57600080fd5b5061043b612a40565b3480156108d157600080fd5b506104a2612b35565b3480156108e657600080fd5b5061043b612b62565b3480156108fb57600080fd5b506104a261090a366004614c71565b60036020526000908152604090205481565b34801561092857600080fd5b5060055461043b9060ff1681565b34801561094257600080fd5b5061043b610951366004614c71565b612c52565b6104a2610964366004614c71565b612db0565b34801561097557600080fd5b506104a2610984366004614cad565b612dbe565b34801561099557600080fd5b506104a26130cc565b3480156109aa57600080fd5b506104a2613180565b3480156109bf57600080fd5b506104a26109ce366004614e2d565b6131c1565b3480156109df57600080fd5b506104a26109ee366004614cad565b61321d565b3480156109ff57600080fd5b506104a2610a0e366004614c71565b61333c565b348015610a1f57600080fd5b506104a260075481565b6104a2610a37366004614e0b565b613349565b348015610a4857600080fd5b506103e7610a57366004614c71565b6000602081905290815260409020546001600160a01b031681565b348015610a7e57600080fd5b5061043b610a8d366004614c71565b613356565b348015610a9e57600080fd5b5061043b613447565b348015610ab357600080fd5b5061043b610ac2366004614c71565b61353c565b348015610ad357600080fd5b5061081b610ae2366004614e59565b613681565b348015610af357600080fd5b506103e7610b02366004614c71565b6002602052600090815260409020546001600160a01b031681565b348015610b2957600080fd5b506103e77f000000000000000000000000000000000000000000000000000000000000000081565b6000610b5b613a28565b905090565b600a8054610b6d90614e9a565b80601f0160208091040260200160405190810160405280929190818152602001828054610b9990614e9a565b8015610be65780601f10610bbb57610100808354040283529160200191610be6565b820191906000526020600020905b815481529060010190602001808311610bc957829003601f168201915b505050505081565b6000610bf8613a28565b604051632474521560e21b815269676f7665726e616e636560b01b60048201523360248201526001600160a01b0391909116906391d148549060440160206040518083038186803b158015610c4c57600080fd5b505afa158015610c60573d6000803e3d6000fd5b505050506040513d601f19601f82011682018060405250810190610c849190614ed5565b60405180604001604052806013815260200160008051602061501d83398151915281525090610ccf5760405162461bcd60e51b8152600401610cc69190614c3e565b60405180910390fd5b50610b5b6f2932b9b2b93b32a232bb34b0ba34b7b760811b613a4c565b6000610cf6613a28565b604051632474521560e21b815269676f7665726e616e636560b01b60048201523360248201526001600160a01b0391909116906391d148549060440160206040518083038186803b158015610d4a57600080fd5b505afa158015610d5e573d6000803e3d6000fd5b505050506040513d601f19601f82011682018060405250810190610d829190614ed5565b60405180604001604052806013815260200160008051602061501d83398151915281525090610dc45760405162461bcd60e51b8152600401610cc69190614c3e565b50610b5b6f4d61785769746864726177616c46656560801b613a4c565b600080610dec612685565b90506001600160a01b03811615610e5157806001600160a01b031663853828b66040518163ffffffff1660e01b8152600401600060405180830381600087803b158015610e3857600080fd5b505af1158015610e4c573d6000803e3d6000fd5b505050505b6000610e646415985d5b1d60da1b613af3565b604051630368a3a560e31b81526001600160a01b03848116600483015280831660248301529192507f000000000000000000000000000000000000000000000000000000000000000090911690631b451d2890604401600060405180830381600087803b158015610ed457600080fd5b505af1158015610ee8573d6000803e3d6000fd5b509295945050505050565b6000610efd613a28565b604051632474521560e21b815269676f7665726e616e636560b01b60048201523360248201526001600160a01b0391909116906391d148549060440160206040518083038186803b158015610f5157600080fd5b505afa158015610f65573d6000803e3d6000fd5b505050506040513d601f19601f82011682018060405250810190610f899190614ed5565b60405180604001604052806013815260200160008051602061501d83398151915281525090610fcb5760405162461bcd60e51b8152600401610cc69190614c3e565b5060075415156040518060400160405280602081526020017f74686520706f6f6c206973206e6f742063757272656e746c7920636170706564815250906110255760405162461bcd60e51b8152600401610cc69190614c3e565b508160075414156040518060600160405280602981526020016150a260299139906110635760405162461bcd60e51b8152600401610cc69190614c3e565b5060408051808201909152600e81526d1a5b9d985b1a5908185b5bdd5b9d60921b6020820152826110a75760405162461bcd60e51b8152600401610cc69190614c3e565b5050600781905560015b919050565b60006110c0613a28565b604051632474521560e21b815269676f7665726e616e636560b01b60048201523360248201526001600160a01b0391909116906391d148549060440160206040518083038186803b15801561111457600080fd5b505afa158015611128573d6000803e3d6000fd5b505050506040513d601f19601f8201168201806040525081019061114c9190614ed5565b60405180604001604052806013815260200160008051602061501d8339815191528152509061118e5760405162461bcd60e51b8152600401610cc69190614c3e565b5060075415156040518060400160405280602081526020017f74686520706f6f6c206973206e6f742063757272656e746c7920636170706564815250906111e85760405162461bcd60e51b8152600401610cc69190614c3e565b50506000600755600190565b6f4d696e5769746864726177616c46656560801b60005260036020527fc0f899a0b165dc0c43f66d0d223e281b3f278eca17e510016df881545bb9d8625490565b6f5265717569726564526573657276657360801b60005260036020527fba135a2864686570c0839a01a6e2733db5bf6cecadc565d84319df13ef016a155490565b600080516020614ffd83398151915260005260036020527f604a2499576f2f340436d07e04cc082bc0d8e83977929464e7f0af31c1c137ff5490565b60006112c083836000611709565b90505b92915050565b60006112d3613a28565b604051632474521560e21b815269676f7665726e616e636560b01b60048201523360248201526001600160a01b0391909116906391d148549060440160206040518083038186803b15801561132757600080fd5b505afa15801561133b573d6000803e3d6000fd5b505050506040513d601f19601f8201168201806040525081019061135f9190614ed5565b60405180604001604052806013815260200160008051602061501d833981519152815250906113a15760405162461bcd60e51b8152600401610cc69190614c3e565b50610b5b6415985d5b1d60da1b613b27565b6000806113d26f5265717569726564526573657276657360801b613bd8565b90506110b1613bfc565b6000806113e76130cc565b90506000600960009054906101000a90046001600160a01b03166001600160a01b03166318160ddd6040518163ffffffff1660e01b815260040160206040518083038186803b15801561143957600080fd5b505afa15801561144d573d6000803e3d6000fd5b505050506040513d601f19601f820116820180604052508101906114719190614ef7565b905080158061147e575081155b1561149357670de0b6b3a76400009250505090565b61149d8282613c06565b9250505090565b60006114ae613a28565b604051632474521560e21b815269676f7665726e616e636560b01b60048201523360248201526001600160a01b0391909116906391d148549060440160206040518083038186803b15801561150257600080fd5b505afa158015611516573d6000803e3d6000fd5b505050506040513d601f19601f8201168201806040525081019061153a9190614ed5565b60405180604001604052806013815260200160008051602061501d8339815191528152509061157c5760405162461bcd60e51b8152600401610cc69190614c3e565b5061158f6415985d5b1d60da1b83613c25565b50600192915050565b60006115a333613c35565b604051806040016040528060178152602001766e6f7420617574686f72697a656420746f20706175736560481b815250906115f15760405162461bcd60e51b8152600401610cc69190614c3e565b50506005805460ff19169055600190565b600061160c613a28565b604051632474521560e21b815269676f7665726e616e636560b01b60048201523360248201526001600160a01b0391909116906391d148549060440160206040518083038186803b15801561166057600080fd5b505afa158015611674573d6000803e3d6000fd5b505050506040513d601f19601f820116820180604052508101906116989190614ed5565b60405180604001604052806013815260200160008051602061501d833981519152815250906116da5760405162461bcd60e51b8152600401610cc69190614c3e565b506116ec6116e66111f4565b83613ccd565b6112c36f4d61785769746864726177616c46656560801b83613d61565b60055460408051808201909152601281527118dbdb9d1c9858dd081a5cc81c185d5cd95960721b602082015260009160ff16156117595760405162461bcd60e51b8152600401610cc69190614c3e565b5060006117646113dc565b9050611771600754151590565b156118fa576009546040516370a0823160e01b81526001600160a01b03878116600483015260009216906370a082319060240160206040518083038186803b1580156117bc57600080fd5b505afa1580156117d0573d6000803e3d6000fd5b505050506040513d601f19601f820116820180604052508101906117f49190614ef7565b60085460405163a853ba2f60e01b81526001600160a01b0389811660048301529293506000929091169063a853ba2f9060240160206040518083038186803b15801561183f57600080fd5b505afa158015611853573d6000803e3d6000fd5b505050506040513d601f19601f820116820180604052508101906118779190614ef7565b9050600061188f846118898486614f26565b90613d71565b60075490915061189f8883614f26565b11156040518060400160405280601b81526020017f6465706f7369742065786365656473206465706f736974206361700000000000815250906118f55760405162461bcd60e51b8152600401610cc69190614c3e565b505050505b6119043385613d86565b60006119108583613c06565b9050838110156040518060400160405280600e81526020016d1a5b9d985b1a5908185b5bdd5b9d60921b8152509061195b5760405162461bcd60e51b8152600401610cc69190614c3e565b506009546040516340c10f1960e01b81526001600160a01b03888116600483015260248201849052909116906340c10f1990604401600060405180830381600087803b1580156119aa57600080fd5b505af11580156119be573d6000803e3d6000fd5b505050506119ca613bfc565b336001600160a01b03871614806119e95750306001600160a01b038716145b15611a2e57604080518681526020810183905233917f90890809c654f11d6e72a28fa60149770a0d11ec6c92319d6ceb2bb0a4ea1a15910160405180910390a2611a75565b60408051868152602081018390526001600160a01b0388169133917f512d56e1f791d3bc07b8085104584ec42faefbefed34bbc0b881d8da16a8ebe1910160405180910390a35b9150505b9392505050565b6000611a8d848484613e1e565b949350505050565b6000806113d26f2932b9b2b93b32a232bb34b0ba34b7b760811b613bd8565b6000610b5b600080516020614ffd833981519152613bd8565b600069676f7665726e616e636560b01b6b706f6f6c5f666163746f727960a01b611af5613a28565b604051636bab521160e11b815260048101849052602481018390523360448201526001600160a01b03919091169063d756a4229060640160206040518083038186803b158015611b4457600080fd5b505afa158015611b58573d6000803e3d6000fd5b505050506040513d601f19601f82011682018060405250810190611b7c9190614ed5565b60405180604001604052806013815260200160008051602061501d83398151915281525090611bbe5760405162461bcd60e51b8152600401610cc69190614c3e565b506008546040805180820190915260168152751059191c995cdcc81a5cc8185b1c9958591e481cd95d60521b6020820152906001600160a01b031615611c175760405162461bcd60e51b8152600401610cc69190614c3e565b5060095460405163059eadeb60e41b81526001600160a01b0391821660048201526000917f000000000000000000000000000000000000000000000000000000000000000016906359eadeb09060240160206040518083038186803b158015611c7f57600080fd5b505afa158015611c93573d6000803e3d6000fd5b505050506040513d601f19601f82011682018060405250810190611cb79190614f3e565b60408051808201909152601881527f7a65726f2061646472657373206e6f7420616c6c6f776564000000000000000060208201529091506001600160a01b038216611d155760405162461bcd60e51b8152600401610cc69190614c3e565b50600880546001600160a01b0319166001600160a01b038316179055611d39613fa4565b6040516001600160a01b038216907f11a945e6ecbc8413276d84b4f853634a407ccf5a1a60b1fa649aea71ea386ff290600090a26001935050505090565b6f4d61785769746864726177616c46656560801b60005260036020527fa17a95707d09266a39dd08e8e69410950f03cfcf325d18179561eb773bcea2095490565b600080611dc6308585611709565b6008546040516305dc812160e31b8152336004820152602481018390529192506001600160a01b031690632ee4090890604401602060405180830381600087803b158015611e1357600080fd5b505af1158015611e27573d6000803e3d6000fd5b505050506040513d601f19601f82011682018060405250810190611e4b9190614ed5565b509392505050565b6009546040516370a0823160e01b815233600482015260009182916001600160a01b03909116906370a082319060240160206040518083038186803b158015611e9b57600080fd5b505afa158015611eaf573d6000803e3d6000fd5b505050506040513d601f19601f82011682018060405250810190611ed39190614ef7565b6008546040516370a0823160e01b815233600482015291925085916001600160a01b03909116906370a082319060240160206040518083038186803b158015611f1b57600080fd5b505afa158015611f2f573d6000803e3d6000fd5b505050506040513d601f19601f82011682018060405250810190611f539190614ef7565b611f5d9083614f26565b101560405180604001604052806014815260200173696e73756666696369656e742062616c616e636560601b81525090611faa5760405162461bcd60e51b8152600401610cc69190614c3e565b5083811015612059576008546001600160a01b0316634974c6793380611fd08589614f5b565b6040516001600160e01b031960e086901b1681526001600160a01b0393841660048201529290911660248301526044820152606401602060405180830381600087803b15801561201f57600080fd5b505af1158015612033573d6000803e3d6000fd5b505050506040513d601f19601f820116820180604052508101906120579190614ed5565b505b611a8d84845b60008083116040518060400160405280600e81526020016d1a5b9d985b1a5908185b5bdd5b9d60921b815250906120a95760405162461bcd60e51b8152600401610cc69190614c3e565b506009546040516370a0823160e01b81523360048201526001600160a01b0390911690849082906370a082319060240160206040518083038186803b1580156120f157600080fd5b505afa158015612105573d6000803e3d6000fd5b505050506040513d601f19601f820116820180604052508101906121299190614ef7565b101560405180604001604052806014815260200173696e73756666696369656e742062616c616e636560601b815250906121765760405162461bcd60e51b8152600401610cc69190614c3e565b5060405163622e68cb60e01b81523360048201526000907f00000000000000000000000000000000000000000000000000000000000000006001600160a01b03169063622e68cb9060240160206040518083038186803b1580156121d957600080fd5b505afa1580156121ed573d6000803e3d6000fd5b505050506040513d601f19601f820116820180604052508101906122119190614ed5565b6122245761221f338661321d565b612227565b60005b905060006122358287614f5b565b9050826001600160a01b03166318160ddd6040518163ffffffff1660e01b815260040160206040518083038186803b15801561227057600080fd5b505afa158015612284573d6000803e3d6000fd5b505050506040513d601f19601f820116820180604052508101906122a89190614ef7565b8614156122b25750845b60006122c66122bf6113dc565b8390613d71565b9050858110156040518060600160405280602d8152602001614fd0602d9139906123035760405162461bcd60e51b8152600401610cc69190614c3e565b5061230d81613fee565b604051632770a7eb60e21b8152336004820152602481018890526001600160a01b03851690639dc29fac90604401602060405180830381600087803b15801561235557600080fd5b505af1158015612369573d6000803e3d6000fd5b505050506040513d601f19601f8201168201806040525081019061238d9190614ef7565b50612398338261422c565b604080518281526020810189905233917fe5b754fb1abb7f01b499791d0b820ae3b6af3424ac1c59768edb53f4ec31a929910160405180910390a29695505050505050565b60006123e833613c35565b604051806040016040528060178152602001766e6f7420617574686f72697a656420746f20706175736560481b815250906124365760405162461bcd60e51b8152600401610cc69190614c3e565b50506005805460ff1916600190811790915590565b612453613a28565b604051632474521560e21b815269676f7665726e616e636560b01b60048201523360248201526001600160a01b0391909116906391d148549060440160206040518083038186803b1580156124a757600080fd5b505afa1580156124bb573d6000803e3d6000fd5b505050506040513d601f19601f820116820180604052508101906124df9190614ed5565b60405180604001604052806013815260200160008051602061501d833981519152815250906125215760405162461bcd60e51b8152600401610cc69190614c3e565b5061252a612685565b6001600160a01b031663853828b66040518163ffffffff1660e01b8152600401600060405180830381600087803b15801561256457600080fd5b505af1158015612578573d6000803e3d6000fd5b50505050565b6000612588613a28565b604051632474521560e21b815269676f7665726e616e636560b01b60048201523360248201526001600160a01b0391909116906391d148549060440160206040518083038186803b1580156125dc57600080fd5b505afa1580156125f0573d6000803e3d6000fd5b505050506040513d601f19601f820116820180604052508101906126149190614ed5565b60405180604001604052806013815260200160008051602061501d833981519152815250906126565760405162461bcd60e51b8152600401610cc69190614c3e565b5061266882612663611d77565b613ccd565b6112c36f4d696e5769746864726177616c46656560801b83613d61565b6415985d5b1d60da1b60005260026020527fc867d482ba9cd7435d7b7450243553d6e2a33c30f68e5a536cba3964e00c8aad546001600160a01b031690565b6126cc613a28565b604051632474521560e21b815269676f7665726e616e636560b01b60048201523360248201526001600160a01b0391909116906391d148549060440160206040518083038186803b15801561272057600080fd5b505afa158015612734573d6000803e3d6000fd5b505050506040513d601f19601f820116820180604052508101906127589190614ed5565b60405180604001604052806013815260200160008051602061501d8339815191528152509061279a5760405162461bcd60e51b8152600401610cc69190614c3e565b506127a3613bfc565b565b6000806127c46f4d61785769746864726177616c46656560801b613bd8565b90506110b16127d16111f4565b82613ccd565b600069676f7665726e616e636560b01b6b706f6f6c5f666163746f727960a01b6127ff613a28565b604051636bab521160e11b815260048101849052602481018390523360448201526001600160a01b03919091169063d756a4229060640160206040518083038186803b15801561284e57600080fd5b505afa158015612862573d6000803e3d6000fd5b505050506040513d601f19601f820116820180604052508101906128869190614ed5565b60405180604001604052806013815260200160008051602061501d833981519152815250906128c85760405162461bcd60e51b8152600401610cc69190614c3e565b506009546040805180820190915260168152751059191c995cdcc81a5cc8185b1c9958591e481cd95d60521b6020820152906001600160a01b0316156129215760405162461bcd60e51b8152600401610cc69190614c3e565b50306001600160a01b0316846001600160a01b031663075461726040518163ffffffff1660e01b815260040160206040518083038186803b15801561296557600080fd5b505afa158015612979573d6000803e3d6000fd5b505050506040513d601f19601f8201168201806040525081019061299d9190614f3e565b6001600160a01b03161460405180608001604052806044815260200161505e60449139906129de5760405162461bcd60e51b8152600401610cc69190614c3e565b50600980546001600160a01b0319166001600160a01b038616179055612a02613fa4565b6040516001600160a01b038516907f1c1820b4910e7e24202fa882184fde52e795a3113b621ded50b099b270159acc90600090a25060019392505050565b6000612a4a613a28565b604051632474521560e21b815269676f7665726e616e636560b01b60048201523360248201526001600160a01b0391909116906391d148549060440160206040518083038186803b158015612a9e57600080fd5b505afa158015612ab2573d6000803e3d6000fd5b505050506040513d601f19601f82011682018060405250810190612ad69190614ed5565b60405180604001604052806013815260200160008051602061501d83398151915281525090612b185760405162461bcd60e51b8152600401610cc69190614c3e565b50610b5b6f5265717569726564526573657276657360801b613a4c565b600080612b546f4d696e5769746864726177616c46656560801b613bd8565b90506110b181612663611d77565b6000612b6c613a28565b604051632474521560e21b815269676f7665726e616e636560b01b60048201523360248201526001600160a01b0391909116906391d148549060440160206040518083038186803b158015612bc057600080fd5b505afa158015612bd4573d6000803e3d6000fd5b505050506040513d601f19601f82011682018060405250810190612bf89190614ed5565b60405180604001604052806013815260200160008051602061501d83398151915281525090612c3a5760405162461bcd60e51b8152600401610cc69190614c3e565b50610b5b600080516020614ffd833981519152613a4c565b6000612c5c613a28565b604051632474521560e21b815269676f7665726e616e636560b01b60048201523360248201526001600160a01b0391909116906391d148549060440160206040518083038186803b158015612cb057600080fd5b505afa158015612cc4573d6000803e3d6000fd5b505050506040513d601f19601f82011682018060405250810190612ce89190614ed5565b60405180604001604052806013815260200160008051602061501d83398151915281525090612d2a5760405162461bcd60e51b8152600401610cc69190614c3e565b506064612d40670de0b6b3a76400006032614f72565b612d4a9190614f91565b8211156040518060400160405280600e81526020016d1a5b9d985b1a5908185b5bdd5b9d60921b81525090612d925760405162461bcd60e51b8152600401610cc69190614c3e565b506112c36f2932b9b2b93b32a232bb34b0ba34b7b760811b83613d61565b60006112c333836000611709565b60008082116040518060400160405280600e81526020016d1a5b9d985b1a5908185b5bdd5b9d60921b81525090612e085760405162461bcd60e51b8152600401610cc69190614c3e565b506009546040516370a0823160e01b81526001600160a01b0385811660048301529091169060009082906370a082319060240160206040518083038186803b158015612e5357600080fd5b505afa158015612e67573d6000803e3d6000fd5b505050506040513d601f19601f82011682018060405250810190612e8b9190614ef7565b1160405180604001604052806014815260200173696e73756666696369656e742062616c616e636560601b81525090612ed75760405162461bcd60e51b8152600401610cc69190614c3e565b506000612ee26113dc565b90506000612ef08583613c06565b9050826001600160a01b03166318160ddd6040518163ffffffff1660e01b815260040160206040518083038186803b158015612f2b57600080fd5b505afa158015612f3f573d6000803e3d6000fd5b505050506040513d601f19601f82011682018060405250810190612f639190614ef7565b811415612f745792506112c3915050565b6001600160a01b038681166000818152600660209081526040808320815160608101835290546001600160401b038082168352600160401b8204811694830194909452600160801b9004909216828201525163622e68cb60e01b815260048101939093529290917f00000000000000000000000000000000000000000000000000000000000000009091169063622e68cb9060240160206040518083038186803b15801561302157600080fd5b505afa158015613035573d6000803e3d6000fd5b505050506040513d601f19601f820116820180604052508101906130599190614ed5565b6130925761308f82600001516001600160401b031683604001516001600160401b031684602001516001600160401b03166131c1565b90505b60006130b06130a983670de0b6b3a7640000614f5b565b8690613d71565b905060006130be8983614262565b9a9950505050505050505050565b6000806130d7612685565b905060006130e361428e565b90506001600160a01b0382166130f95792915050565b6000826001600160a01b031663b40494e56040518163ffffffff1660e01b815260040160206040518083038186803b15801561313457600080fd5b505afa158015613148573d6000803e3d6000fd5b505050506040513d601f19601f8201168201806040525081019061316c9190614ef7565b90506131788282614f26565b935050505090565b6f2932b9b2b93b32a232bb34b0ba34b7b760811b60005260036020527ff61ad85d902c01a6c2756008dbc41a8113da437e01ee2bc9df8881fed1c48c2e5490565b6000806131ce8442614f5b565b905060006131da6111f4565b90508582106131ec579150611a799050565b60006131f88388613c06565b9050613208816118898488614f5b565b6132129086614f5b565b979650505050505050565b6001600160a01b038281166000818152600660209081526040808320815160608101835290546001600160401b038082168352600160401b8204811694830194909452600160801b90049092168282015260095490516370a0823160e01b81526004810194909452919390929116906370a082319060240160206040518083038186803b1580156132ad57600080fd5b505afa1580156132c1573d6000803e3d6000fd5b505050506040513d601f19601f820116820180604052508101906132e59190614ef7565b6132f35760009150506112c3565b600061332782600001516001600160401b031683604001516001600160401b031684602001516001600160401b03166131c1565b90506133338482613d71565b95945050505050565b60006112c382600061205f565b60006112c0338484611709565b6000613360613a28565b604051632474521560e21b815269676f7665726e616e636560b01b60048201523360248201526001600160a01b0391909116906391d148549060440160206040518083038186803b1580156133b457600080fd5b505afa1580156133c8573d6000803e3d6000fd5b505050506040513d601f19601f820116820180604052508101906133ec9190614ed5565b60405180604001604052806013815260200160008051602061501d8339815191528152509061342e5760405162461bcd60e51b8152600401610cc69190614c3e565b506112c3600080516020614ffd83398151915283613d61565b6000613451613a28565b604051632474521560e21b815269676f7665726e616e636560b01b60048201523360248201526001600160a01b0391909116906391d148549060440160206040518083038186803b1580156134a557600080fd5b505afa1580156134b9573d6000803e3d6000fd5b505050506040513d601f19601f820116820180604052508101906134dd9190614ed5565b60405180604001604052806013815260200160008051602061501d8339815191528152509061351f5760405162461bcd60e51b8152600401610cc69190614c3e565b50610b5b6f4d696e5769746864726177616c46656560801b613a4c565b6000613546613a28565b604051632474521560e21b815269676f7665726e616e636560b01b60048201523360248201526001600160a01b0391909116906391d148549060440160206040518083038186803b15801561359a57600080fd5b505afa1580156135ae573d6000803e3d6000fd5b505050506040513d601f19601f820116820180604052508101906135d29190614ed5565b60405180604001604052806013815260200160008051602061501d833981519152815250906136145760405162461bcd60e51b8152600401610cc69190614c3e565b5060408051808201909152600e81526d1a5b9d985b1a5908185b5bdd5b9d60921b6020820152670de0b6b3a76400008311156136635760405162461bcd60e51b8152600401610cc69190614c3e565b506112c36f5265717569726564526573657276657360801b83613d61565b6009546001600160a01b03163314806136a457506008546001600160a01b031633145b60405180604001604052806013815260200160008051602061501d833981519152815250906136e65760405162461bcd60e51b8152600401610cc69190614c3e565b50600954604051635b80b5fb60e11b81526001600160a01b03848116600483015291821660248201527f00000000000000000000000000000000000000000000000000000000000000009091169063b7016bf69060440160206040518083038186803b15801561375557600080fd5b505afa158015613769573d6000803e3d6000fd5b505050506040513d601f19601f8201168201806040525081019061378d9190614ed5565b806138395750600954604051635b80b5fb60e11b81526001600160a01b03858116600483015291821660248201527f00000000000000000000000000000000000000000000000000000000000000009091169063b7016bf69060440160206040518083038186803b15801561380157600080fd5b505afa158015613815573d6000803e3d6000fd5b505050506040513d601f19601f820116820180604052508101906138399190614ed5565b806138d8575060405163622e68cb60e01b81526001600160a01b0383811660048301527f0000000000000000000000000000000000000000000000000000000000000000169063622e68cb9060240160206040518083038186803b1580156138a057600080fd5b505afa1580156138b4573d6000803e3d6000fd5b505050506040513d601f19601f820116820180604052508101906138d89190614ed5565b80613977575060405163622e68cb60e01b81526001600160a01b0384811660048301527f0000000000000000000000000000000000000000000000000000000000000000169063622e68cb9060240160206040518083038186803b15801561393f57600080fd5b505afa158015613953573d6000803e3d6000fd5b505050506040513d601f19601f820116820180604052508101906139779190614ed5565b1561398157505050565b6001600160a01b0382161561399b5761399b82848361429a565b505050565b6040516321f8a72160e01b81526a3937b632a6b0b730b3b2b960a91b60048201526000906001600160a01b038316906321f8a7219060240160206040518083038186803b1580156139f057600080fd5b505afa158015613a04573d6000803e3d6000fd5b505050506040513d601f19601f820116820180604052508101906112c39190614f3e565b7f000000000000000000000000000000000000000000000000000000000000000090565b600081815260046020908152604080832054815180830190925260128252710646561646c696e65206d75737420626520360741b9282019290925290613aa55760405162461bcd60e51b8152600401610cc69190614c3e565b50600082815260046020908152604080832083905560019091528082208290555183917f90fb84ad67dd037c388289337bb80b61b8605d38ba9a875dc38b5600909d172f91a2506001919050565b6000613afe8261450b565b6000828152602081905260409020546001600160a01b0316613b2083826145b4565b5092915050565b600081815260046020908152604080832054815180830190925260128252710646561646c696e65206d75737420626520360741b9282019290925290613b805760405162461bcd60e51b8152600401610cc69190614c3e565b5060008281526004602090815260408083208390559082905280822080546001600160a01b03191690555183917f90fb84ad67dd037c388289337bb80b61b8605d38ba9a875dc38b5600909d172f91a2506001919050565b6000613be38261450b565b600082815260016020526040902054613b20838261463f565b6127a36000613fee565b600081613c1b670de0b6b3a764000085614f72565b6112c09190614f91565b60006112c083836203f4806146a0565b6000613c3f613a28565b604051632474521560e21b815269676f7665726e616e636560b01b60048201526001600160a01b03848116602483015291909116906391d148549060440160206040518083038186803b158015613c9557600080fd5b505afa158015613ca9573d6000803e3d6000fd5b505050506040513d601f19601f820116820180604052508101906112c39190614ed5565b60408051808201909152600e81526d1a5b9d985b1a5908185b5bdd5b9d60921b602082015282821015613d135760405162461bcd60e51b8152600401610cc69190614c3e565b5060408051808201909152600e81526d1a5b9d985b1a5908185b5bdd5b9d60921b602082015266b1a2bc2ec5000082111561399b5760405162461bcd60e51b8152600401610cc69190614c3e565b60006112c083836203f48061471b565b6000670de0b6b3a7640000613c1b8385614f72565b60408051808201909152601281527134b73b30b634b21036b9b39739b2b73232b960711b6020820152336001600160a01b03841614613dd85760405162461bcd60e51b8152600401610cc69190614c3e565b5060408051808201909152600e81526d1a5b9d985b1a5908185b5bdd5b9d60921b602082015234821461399b5760405162461bcd60e51b8152600401610cc69190614c3e565b60055460009062010000900460ff16613e4257600554610100900460ff1615613e46565b303b155b613ea95760405162461bcd60e51b815260206004820152602e60248201527f496e697469616c697a61626c653a20636f6e747261637420697320616c72656160448201526d191e481a5b9a5d1a585b1a5e995960921b6064820152608401610cc6565b60055462010000900460ff16158015613ece576005805462ffff001916620101001790555b8451613ee190600a906020880190614b79565b506007849055613f02600080516020614ffd83398151915262093a8061463f565b50613f276f4d61785769746864726177616c46656560801b666a94d74f43000061463f565b50613f4d6f5265717569726564526573657276657360801b670de0b6b3a764000061463f565b50613f726f2932b9b2b93b32a232bb34b0ba34b7b760811b6611c37937e0800061463f565b50613f856415985d5b1d60da1b846145b4565b50600191508015611e4b576005805462ff000019169055509392505050565b6008546009546001600160a01b039182169116811580613fcb57506001600160a01b038116155b15613fd4575050565b613fea6001600160a01b03821683600019614771565b5050565b6000613ff8612685565b90506001600160a01b03811661400c575050565b6008546040805163ba4ac71160e01b815290516000926001600160a01b03169163ba4ac711916004808301926020929190829003018186803b15801561405157600080fd5b505afa158015614065573d6000803e3d6000fd5b505050506040513d601f19601f820116820180604052508101906140899190614ef7565b905060006140986122bf6113dc565b905060006140a660016148b7565b905060006140bc6140b5613180565b8490613d71565b905060006140d26140cb611235565b8590613d71565b9050828711806140f5575080826140e98986614f5b565b6140f39190614f26565b105b15614195576000836141078984614f26565b6141119190614f5b565b604051632e1a7d4d60e01b8152600481018290529091506001600160a01b03881690632e1a7d4d90602401602060405180830381600087803b15801561415657600080fd5b505af115801561416a573d6000803e3d6000fd5b505050506040513d601f19601f8201168201806040525081019061418e9190614ed5565b5050614223565b60006141a18885614f5b565b90506141ad8383614f26565b8111156142215760006141c08383614f5b565b90506141cc888261422c565b876001600160a01b031663d0e30db06040518163ffffffff1660e01b8152600401600060405180830381600087803b15801561420757600080fd5b505af115801561421b573d6000803e3d6000fd5b50505050505b505b50505050505050565b6040516001600160a01b0383169082156108fc029083906000818181858888f1935050505015801561399b573d6000803e3d6000fd5b60008160018161427a670de0b6b3a764000087614f72565b6142849190614f26565b613c1b9190614f5b565b6000610b5b60006148b7565b6001600160a01b03838116600081815260066020526040808220600854915163a853ba2f60e01b8152600481019490945293919291169063a853ba2f9060240160206040518083038186803b1580156142f257600080fd5b505afa158015614306573d6000803e3d6000fd5b505050506040513d601f19601f8201168201806040525081019061432a9190614ef7565b6009546040516370a0823160e01b81526001600160a01b038881166004830152909116906370a082319060240160206040518083038186803b15801561436f57600080fd5b505afa158015614383573d6000803e3d6000fd5b505050506040513d601f19601f820116820180604052508101906143a79190614ef7565b6143b19190614f26565b82549091506000906143e1906001600160401b0380821691600160801b8104821691600160401b909104166131c1565b905060006143f96143f28487614f26565b8690613c06565b9050600061440f82670de0b6b3a7640000614f5b565b905060006001600160a01b03881661443057614429611d77565b9050614476565b6001600160a01b03881660009081526006602052604090208054614472906001600160401b0380821691600160801b8104821691600160401b909104166131c1565b9150505b60006144828483613d71565b61448c8487613d71565b6144969190614f26565b87546fffffffffffffffff00000000000000001916600160401b6001600160401b0383160217885590506144c8611276565b8754426001600160401b03908116600160801b02921677ffffffffffffffff0000000000000000ffffffffffffffff199091161717909655505050505050505050565b6000600460008381526020019081526020016000205490508042101560405180606001604052806021815260200161503d602191399061455e5760405162461bcd60e51b8152600401610cc69190614c3e565b5060408051808201909152600d81526c0646561646c696e65206973203609c1b6020820152816145a15760405162461bcd60e51b8152600401610cc69190614c3e565b5050600090815260046020526040812055565b600082815260026020908152604080832080546001600160a01b03198082166001600160a01b038881169182179094558686528487208054909216909155600485528386208690558351929091168083529382015285917fc4a957706c639829ad54381b04930c464db6c7ffdc09d2b4b1acc9ee34fb926191015b60405180910390a2509092915050565b6000828152600360209081526040808320805490859055600183528184208490556004835281842084905581518181529283018590529185917fcc0bafe2accb565ea70674bf4b2555e49a47d410fb9932dfab3e5f41855d0a2f910161462f565b60006146ac84836148c9565b6000848152602081815260409182902080546001600160a01b0319166001600160a01b038716908117909155825190815290810184905285917fd46e58ee9dc1ae703349f8c09c19f23213a531b4d57f00cfd4a5a6cb6519668d91015b60405180910390a25060019392505050565b600061472784836148c9565b600084815260016020908152604091829020859055815185815290810184905285917f0e6790002e78fb96ff1fdfe3a3bb2a86489d3f3923372c1fe5b6b1fed071eed49101614709565b8015806147fa5750604051636eb1769f60e11b81523060048201526001600160a01b03838116602483015284169063dd62ed3e9060440160206040518083038186803b1580156147c057600080fd5b505afa1580156147d4573d6000803e3d6000fd5b505050506040513d601f19601f820116820180604052508101906147f89190614ef7565b155b6148655760405162461bcd60e51b815260206004820152603660248201527f5361666545524332303a20617070726f76652066726f6d206e6f6e2d7a65726f60448201527520746f206e6f6e2d7a65726f20616c6c6f77616e636560501b6064820152608401610cc6565b604080516001600160a01b038416602482015260448082018490528251808303909101815260649091019091526020810180516001600160e01b031663095ea7b360e01b17905261399b9084906149a3565b600047826112c3576112c03482614f5b565b6004600083815260200190815260200160002054600014604051806040016040528060128152602001710646561646c696e65206d75737420626520360741b815250906149295760405162461bcd60e51b8152600401610cc69190614c3e565b5060408051808201909152601881527f64656c6179206265206174206c6561737420332064617973000000000000000060208201526203f4808210156149825760405162461bcd60e51b8152600401610cc69190614c3e565b5061498d8142614f26565b6000928352600460205260409092209190915550565b60006149f8826040518060400160405280602081526020017f5361666545524332303a206c6f772d6c6576656c2063616c6c206661696c6564815250856001600160a01b0316614a759092919063ffffffff16565b80519091501561399b5780806020019051810190614a169190614ed5565b61399b5760405162461bcd60e51b815260206004820152602a60248201527f5361666545524332303a204552433230206f7065726174696f6e20646964206e6044820152691bdd081cdd58d8d9595960b21b6064820152608401610cc6565b6060611a8d8484600085856001600160a01b0385163b614ad75760405162461bcd60e51b815260206004820152601d60248201527f416464726573733a2063616c6c20746f206e6f6e2d636f6e74726163740000006044820152606401610cc6565b600080866001600160a01b03168587604051614af39190614fb3565b60006040518083038185875af1925050503d8060008114614b30576040519150601f19603f3d011682016040523d82523d6000602084013e614b35565b606091505b509150915061321282828660608315614b4f575081611a79565b825115614b5f5782518084602001fd5b8160405162461bcd60e51b8152600401610cc69190614c3e565b828054614b8590614e9a565b90600052602060002090601f016020900481019282614ba75760008555614bed565b82601f10614bc057805160ff1916838001178555614bed565b82800160010185558215614bed579182015b82811115614bed578251825591602001919060010190614bd2565b50614bf9929150614bfd565b5090565b5b80821115614bf95760008155600101614bfe565b60005b83811015614c2d578181015183820152602001614c15565b838111156125785750506000910152565b6020815260008251806020840152614c5d816040850160208701614c12565b601f01601f19169190910160400192915050565b600060208284031215614c8357600080fd5b5035919050565b6001600160a01b0381168114614c9f57600080fd5b50565b80356110b181614c8a565b60008060408385031215614cc057600080fd5b8235614ccb81614c8a565b946020939093013593505050565b600060208284031215614ceb57600080fd5b8135611a7981614c8a565b600080600060608486031215614d0b57600080fd5b8335614d1681614c8a565b95602085013595506040909401359392505050565b634e487b7160e01b600052604160045260246000fd5b600080600060608486031215614d5657600080fd5b83356001600160401b0380821115614d6d57600080fd5b818601915086601f830112614d8157600080fd5b813581811115614d9357614d93614d2b565b604051601f8201601f19908116603f01168101908382118183101715614dbb57614dbb614d2b565b81604052828152896020848701011115614dd457600080fd5b82602086016020830137600060208483010152809750505050505060208401359150614e0260408501614ca2565b90509250925092565b60008060408385031215614e1e57600080fd5b50508035926020909101359150565b600080600060608486031215614e4257600080fd5b505081359360208301359350604090920135919050565b600080600060608486031215614e6e57600080fd5b8335614e7981614c8a565b92506020840135614e8981614c8a565b929592945050506040919091013590565b600181811c90821680614eae57607f821691505b60208210811415614ecf57634e487b7160e01b600052602260045260246000fd5b50919050565b600060208284031215614ee757600080fd5b81518015158114611a7957600080fd5b600060208284031215614f0957600080fd5b5051919050565b634e487b7160e01b600052601160045260246000fd5b60008219821115614f3957614f39614f10565b500190565b600060208284031215614f5057600080fd5b8151611a7981614c8a565b600082821015614f6d57614f6d614f10565b500390565b6000816000190483118215151615614f8c57614f8c614f10565b500290565b600082614fae57634e487b7160e01b600052601260045260246000fd5b500490565b60008251614fc5818460208701614c12565b919091019291505056fe6e6f7420656e6f7567682066756e647320776572652077697468647261776e2066726f6d2074686520706f6f6c5769746864726177616c4665654465637265617365506572696f640000000000756e617574686f72697a65642061636365737300000000000000000000000000646561646c696e6520686173206e6f74206265656e207265616368656420796574746865206d696e7465722061646472657373206f6620746865204c5020746f6b656e20616e642074686520706f6f6c206164647265737320646f206e6f74206d6174636876616c7565206d75737420626520646966666572656e7420746f206578697374696e672076616c7565a264697066735822122098feb1cdfbf72f79445b69c25e427ece63119891c3e8ff3af8f66edfafcae25e64736f6c63430008090033",
  "linkReferences": {},
  "deployedLinkReferences": {}
}