{
  "_format": "hh-sol-artifact-1",
  "contractName": "CoreFactory",
  "sourceName": "contracts/CoreFactory.sol",
  "abi": [
    {
      "inputs": [
        {
          "internalType": "address",
          "name": "_collection",
          "type": "address"
        },
        {
          "internalType": "address",
          "name": "_splitFactory",
          "type": "address"
        }
      ],
      "stateMutability": "nonpayable",
      "type": "constructor"
    },
    {
      "anonymous": false,
      "inputs": [
        {
          "indexed": false,
          "internalType": "string",
          "name": "collectionId",
          "type": "string"
        },
        {
          "indexed": false,
          "internalType": "address",
          "name": "collection",
          "type": "address"
        },
        {
          "indexed": false,
          "internalType": "string",
          "name": "projectId",
          "type": "string"
        }
      ],
      "name": "NewCollection",
      "type": "event"
    },
    {
      "anonymous": false,
      "inputs": [
        {
          "indexed": false,
          "internalType": "string",
          "name": "id",
          "type": "string"
        },
        {
          "indexed": false,
          "internalType": "address",
          "name": "creator",
          "type": "address"
        }
      ],
      "name": "NewProject",
      "type": "event"
    },
    {
      "inputs": [
        {
          "internalType": "string",
          "name": "_projectId",
          "type": "string"
        },
        {
          "components": [
            {
              "internalType": "bool",
              "name": "isForSale",
              "type": "bool"
            },
            {
              "internalType": "uint256",
              "name": "maxSupply",
              "type": "uint256"
            },
            {
              "internalType": "uint256",
              "name": "mintFee",
              "type": "uint256"
            },
            {
              "internalType": "string",
              "name": "baseURI",
              "type": "string"
            },
            {
              "internalType": "string",
              "name": "name",
              "type": "string"
            },
            {
              "internalType": "string",
              "name": "symbol",
              "type": "string"
            },
            {
              "internalType": "string",
              "name": "id",
              "type": "string"
            },
            {
              "internalType": "bytes32",
              "name": "claimsMerkleRoot",
              "type": "bytes32"
            },
            {
              "internalType": "address",
              "name": "payableToken",
              "type": "address"
            }
          ],
          "internalType": "struct Collection",
          "name": "_collection",
          "type": "tuple"
        }
      ],
      "name": "addCollection",
      "outputs": [
        {
          "internalType": "address",
          "name": "",
          "type": "address"
        }
      ],
      "stateMutability": "nonpayable",
      "type": "function"
    },
    {
      "inputs": [],
      "name": "collection",
      "outputs": [
        {
          "internalType": "address",
          "name": "",
          "type": "address"
        }
      ],
      "stateMutability": "view",
      "type": "function"
    },
    {
      "inputs": [
        {
          "internalType": "string",
          "name": "",
          "type": "string"
        }
      ],
      "name": "collections",
      "outputs": [
        {
          "internalType": "address",
          "name": "",
          "type": "address"
        }
      ],
      "stateMutability": "view",
      "type": "function"
    },
    {
      "inputs": [
        {
          "internalType": "string",
          "name": "_projectId",
          "type": "string"
        },
        {
          "components": [
            {
              "internalType": "bool",
              "name": "isForSale",
              "type": "bool"
            },
            {
              "internalType": "uint256",
              "name": "maxSupply",
              "type": "uint256"
            },
            {
              "internalType": "uint256",
              "name": "mintFee",
              "type": "uint256"
            },
            {
              "internalType": "string",
              "name": "baseURI",
              "type": "string"
            },
            {
              "internalType": "string",
              "name": "name",
              "type": "string"
            },
            {
              "internalType": "string",
              "name": "symbol",
              "type": "string"
            },
            {
              "internalType": "string",
              "name": "id",
              "type": "string"
            },
            {
              "internalType": "bytes32",
              "name": "claimsMerkleRoot",
              "type": "bytes32"
            },
            {
              "internalType": "address",
              "name": "payableToken",
              "type": "address"
            }
          ],
          "internalType": "struct Collection[]",
          "name": "_collections",
          "type": "tuple[]"
        }
      ],
      "name": "createProject",
      "outputs": [],
      "stateMutability": "nonpayable",
      "type": "function"
    },
    {
      "inputs": [
        {
          "internalType": "string",
          "name": "_projectId",
          "type": "string"
        }
      ],
      "name": "getProject",
      "outputs": [
        {
          "components": [
            {
              "internalType": "string",
              "name": "id",
              "type": "string"
            },
            {
              "internalType": "address",
              "name": "creator",
              "type": "address"
            }
          ],
          "internalType": "struct CoreFactory.Project",
          "name": "",
          "type": "tuple"
        }
      ],
      "stateMutability": "view",
      "type": "function"
    },
    {
      "inputs": [
        {
          "internalType": "string",
          "name": "",
          "type": "string"
        }
      ],
      "name": "projects",
      "outputs": [
        {
          "internalType": "string",
          "name": "id",
          "type": "string"
        },
        {
          "internalType": "address",
          "name": "creator",
          "type": "address"
        }
      ],
      "stateMutability": "view",
      "type": "function"
    },
    {
      "inputs": [],
      "name": "splitFactory",
      "outputs": [
        {
          "internalType": "address",
          "name": "",
          "type": "address"
        }
      ],
      "stateMutability": "view",
      "type": "function"
    }
  ],
  "bytecode": "0x60c060405234801561001057600080fd5b506040516115a03803806115a083398101604081905261002f91610069565b6001600160601b0319606092831b8116608052911b1660a05261009b565b80516001600160a01b038116811461006457600080fd5b919050565b6000806040838503121561007b578182fd5b6100848361004d565b91506100926020840161004d565b90509250929050565b60805160601c60a05160601c6114cd6100d36000396000818160d701526109ae015260008181610132015261091b01526114cd6000f3fe608060405234801561001057600080fd5b506004361061007d5760003560e01c806366e54d7b1161005b57806366e54d7b146100f95780637de1e5361461012d57806391c9b26814610154578063d67b82101461017557600080fd5b80634d08e51a146100825780634fa691e2146100b25780635720babb146100d2575b600080fd5b610095610090366004610dd3565b61018a565b6040516001600160a01b0390911681526020015b60405180910390f35b6100c56100c0366004610cb3565b610355565b6040516100a99190610f59565b6100957f000000000000000000000000000000000000000000000000000000000000000081565b610095610107366004610cb3565b80516020818301810180516001825292820191909301209152546001600160a01b031681565b6100957f000000000000000000000000000000000000000000000000000000000000000081565b610167610162366004610cb3565b610440565b6040516100a9929190610e7c565b610188610183366004610cee565b6104f8565b005b600082336001600160a01b03166000826040516101a79190610e60565b908152604051908190036020019020600101546001600160a01b03161461023b5760405162461bcd60e51b815260206004820152602860248201527f436f7265466163746f72793a204e6f7420616e206f776e6572206f662074686560448201527f2070726f6a65637400000000000000000000000000000000000000000000000060648201526084015b60405180910390fd5b60006102468461083e565b60e0850151909150156102b45760e0840151604051634834f4c760e11b815260048101919091526001600160a01b03821690639069e98e90602401600060405180830381600087803b15801561029b57600080fd5b505af11580156102af573d6000803e3d6000fd5b505050505b7f751e6e759eb9f7e17c129069fa70811d407e09edb10e602f20c5566bffcea3e68460c0015182876040516102eb93929190610ea7565b60405180910390a160405163f2fde38b60e01b81523360048201526001600160a01b0382169063f2fde38b90602401600060405180830381600087803b15801561033457600080fd5b505af1158015610348573d6000803e3d6000fd5b5092979650505050505050565b60408051808201909152606081526000602082015260008260405161037a9190610e60565b90815260200160405180910390206040518060400160405290816000820180546103a39061101f565b80601f01602080910402602001604051908101604052809291908181526020018280546103cf9061101f565b801561041c5780601f106103f15761010080835404028352916020019161041c565b820191906000526020600020905b8154815290600101906020018083116103ff57829003601f168201915b5050509183525050600191909101546001600160a01b031660209091015292915050565b80516020818301810180516000825292820191909301209152805481906104669061101f565b80601f01602080910402602001604051908101604052809291908181526020018280546104929061101f565b80156104df5780601f106104b4576101008083540402835291602001916104df565b820191906000526020600020905b8154815290600101906020018083116104c257829003601f168201915b505050600190930154919250506001600160a01b031682565b8160006001600160a01b03166000826040516105149190610e60565b908152604051908190036020019020600101546001600160a01b0316146105a35760405162461bcd60e51b815260206004820152602360248201527f436f7265466163746f72793a20556e617661696c61626c652070726f6a65637460448201527f20696400000000000000000000000000000000000000000000000000000000006064820152608401610232565b600082511161061a5760405162461bcd60e51b815260206004820152603560248201527f436f7265466163746f72793a2073686f756c642068617665206d6f726520617460448201527f206c65617374206f6e6520636f6c6c656374696f6e00000000000000000000006064820152608401610232565b60005b825181101561077857600083828151811061064857634e487b7160e01b600052603260045260246000fd5b60200260200101519050600061065d8261083e565b60e0830151909150156106cb5760e0820151604051634834f4c760e11b815260048101919091526001600160a01b03821690639069e98e90602401600060405180830381600087803b1580156106b257600080fd5b505af11580156106c6573d6000803e3d6000fd5b505050505b7f751e6e759eb9f7e17c129069fa70811d407e09edb10e602f20c5566bffcea3e68260c00151828860405161070293929190610ea7565b60405180910390a160405163f2fde38b60e01b81523360048201526001600160a01b0382169063f2fde38b90602401600060405180830381600087803b15801561074b57600080fd5b505af115801561075f573d6000803e3d6000fd5b505050505050808061077090611054565b91505061061d565b506040805180820182528481523360208201529051819060009061079d908790610e60565b908152602001604051809103902060008201518160000190805190602001906107c7929190610a7c565b50602091909101516001909101805473ffffffffffffffffffffffffffffffffffffffff19166001600160a01b039092169190911790556040517f6350646d22f751d3c98d5104d8a0a80e6803a17975e7925b4ece9e807b0d117b906108309086903390610e7c565b60405180910390a150505050565b60008160c0015160006001600160a01b03166001826040516108609190610e60565b908152604051908190036020019020546001600160a01b0316146108ec5760405162461bcd60e51b815260206004820152602660248201527f436f7265466163746f72793a20556e617661696c61626c6520636f6c6c65637460448201527f696f6e20696400000000000000000000000000000000000000000000000000006064820152608401610232565b60008360c001516040516020016109039190610e60565b604051602081830303815290604052805190602001207f000000000000000000000000000000000000000000000000000000000000000060405161094690610b00565b6001600160a01b0390911681526020018190604051809103906000f5905080158015610976573d6000803e3d6000fd5b509050806001600160a01b031663d1b58b0885608001518660a001518760600151886020015189604001518a61010001518b600001517f00000000000000000000000000000000000000000000000000000000000000006040518963ffffffff1660e01b81526004016109f0989796959493929190610ee5565b600060405180830381600087803b158015610a0a57600080fd5b505af1158015610a1e573d6000803e3d6000fd5b505050508060018560c00151604051610a379190610e60565b90815260405190819003602001902080546001600160a01b039290921673ffffffffffffffffffffffffffffffffffffffff1990921691909117905591505b50919050565b828054610a889061101f565b90600052602060002090601f016020900481019282610aaa5760008555610af0565b82601f10610ac357805160ff1916838001178555610af0565b82800160010185558215610af0579182015b82811115610af0578251825591602001919060010190610ad5565b50610afc929150610b0d565b5090565b6104068061109283390190565b5b80821115610afc5760008155600101610b0e565b80356001600160a01b0381168114610b3957600080fd5b919050565b80358015158114610b3957600080fd5b600082601f830112610b5e578081fd5b813567ffffffffffffffff811115610b7857610b7861107b565b610b8b601f8201601f1916602001610fbe565b818152846020838601011115610b9f578283fd5b816020850160208301379081016020019190915292915050565b60006101208284031215610bcb578081fd5b610bd3610f94565b9050610bde82610b3e565b81526020820135602082015260408201356040820152606082013567ffffffffffffffff80821115610c0f57600080fd5b610c1b85838601610b4e565b60608401526080840135915080821115610c3457600080fd5b610c4085838601610b4e565b608084015260a0840135915080821115610c5957600080fd5b610c6585838601610b4e565b60a084015260c0840135915080821115610c7e57600080fd5b50610c8b84828501610b4e565b60c08301525060e082013560e0820152610100610ca9818401610b22565b9082015292915050565b600060208284031215610cc4578081fd5b813567ffffffffffffffff811115610cda578182fd5b610ce684828501610b4e565b949350505050565b60008060408385031215610d00578081fd5b823567ffffffffffffffff80821115610d17578283fd5b610d2386838701610b4e565b9350602091508185013581811115610d39578384fd5b8501601f81018713610d49578384fd5b803582811115610d5b57610d5b61107b565b8060051b610d6a858201610fbe565b8281528581019084870183860188018c1015610d84578889fd5b8893505b84841015610dc157803587811115610d9e57898afd5b610dac8d8a838a0101610bb9565b84525060019390930192918701918701610d88565b50809750505050505050509250929050565b60008060408385031215610de5578182fd5b823567ffffffffffffffff80821115610dfc578384fd5b610e0886838701610b4e565b93506020850135915080821115610e1d578283fd5b50610e2a85828601610bb9565b9150509250929050565b60008151808452610e4c816020860160208601610fef565b601f01601f19169290920160200192915050565b60008251610e72818460208701610fef565b9190910192915050565b604081526000610e8f6040830185610e34565b90506001600160a01b03831660208301529392505050565b606081526000610eba6060830186610e34565b6001600160a01b03851660208401528281036040840152610edb8185610e34565b9695505050505050565b6000610100808352610ef98184018c610e34565b90508281036020840152610f0d818b610e34565b90508281036040840152610f21818a610e34565b6060840198909852505060808101949094526001600160a01b0392831660a085015290151560c08401521660e0909101529392505050565b602081526000825160406020840152610f756060840182610e34565b90506001600160a01b0360208501511660408401528091505092915050565b604051610120810167ffffffffffffffff81118282101715610fb857610fb861107b565b60405290565b604051601f8201601f1916810167ffffffffffffffff81118282101715610fe757610fe761107b565b604052919050565b60005b8381101561100a578181015183820152602001610ff2565b83811115611019576000848401525b50505050565b600181811c9082168061103357607f821691505b60208210811415610a7657634e487b7160e01b600052602260045260246000fd5b600060001982141561107457634e487b7160e01b81526011600452602481fd5b5060010190565b634e487b7160e01b600052604160045260246000fdfe60a060405234801561001057600080fd5b5060405161040638038061040683398101604081905261002f9161009d565b6100383361004d565b60601b6001600160601b0319166080526100cb565b600080546001600160a01b038381166001600160a01b0319831681178455604051919092169283917f8be0079c531659141344cd1fd0a4f28419497f9722a3daafe3b4186f6b6457e09190a35050565b6000602082840312156100ae578081fd5b81516001600160a01b03811681146100c4578182fd5b9392505050565b60805160601c6103186100ee600039600081816051015260c801526103186000f3fe608060405234801561001057600080fd5b506004361061004c5760003560e01c8063715018a6146100935780638da5cb5b1461009d578063aa254851146100c6578063f2fde38b146100ec575b6040517f00000000000000000000000000000000000000000000000000000000000000009036600082376000803683855af43d806000843e81801561008f578184f35b8184fd5b61009b6100ff565b005b6000546001600160a01b03165b6040516001600160a01b03909116815260200160405180910390f35b7f00000000000000000000000000000000000000000000000000000000000000006100aa565b61009b6100fa3660046102b4565b61016a565b6000546001600160a01b0316331461015e5760405162461bcd60e51b815260206004820181905260248201527f4f776e61626c653a2063616c6c6572206973206e6f7420746865206f776e657260448201526064015b60405180910390fd5b610168600061024c565b565b6000546001600160a01b031633146101c45760405162461bcd60e51b815260206004820181905260248201527f4f776e61626c653a2063616c6c6572206973206e6f7420746865206f776e65726044820152606401610155565b6001600160a01b0381166102405760405162461bcd60e51b815260206004820152602660248201527f4f776e61626c653a206e6577206f776e657220697320746865207a65726f206160448201527f64647265737300000000000000000000000000000000000000000000000000006064820152608401610155565b6102498161024c565b50565b600080546001600160a01b038381167fffffffffffffffffffffffff0000000000000000000000000000000000000000831681178455604051919092169283917f8be0079c531659141344cd1fd0a4f28419497f9722a3daafe3b4186f6b6457e09190a35050565b6000602082840312156102c5578081fd5b81356001600160a01b03811681146102db578182fd5b939250505056fea2646970667358221220e123e308f709f273d6d2c0e3583c4d19d55e09d7c1cd273be06fb86e9c3dfc4164736f6c63430008040033a2646970667358221220298c6378d75bd9c53d7ff49095b61d7474027cd391f9a9d396569a6ea4f9f82364736f6c63430008040033",
  "linkReferences": {},
  "deployedLinkReferences": {}
}