{
  "_format": "hh-sol-artifact-1",
  "contractName": "BkdToken",
  "sourceName": "contracts/tokenomics/BkdToken.sol",
  "abi": [
    {
      "inputs": [
        {
          "internalType": "string",
          "name": "name_",
          "type": "string"
        },
        {
          "internalType": "string",
          "name": "symbol_",
          "type": "string"
        },
        {
          "internalType": "address",
          "name": "_minter",
          "type": "address"
        }
      ],
      "stateMutability": "nonpayable",
      "type": "constructor"
    },
    {
      "anonymous": false,
      "inputs": [
        {
          "indexed": true,
          "internalType": "address",
          "name": "owner",
          "type": "address"
        },
        {
          "indexed": true,
          "internalType": "address",
          "name": "spender",
          "type": "address"
        },
        {
          "indexed": false,
          "internalType": "uint256",
          "name": "value",
          "type": "uint256"
        }
      ],
      "name": "Approval",
      "type": "event"
    },
    {
      "anonymous": false,
      "inputs": [
        {
          "indexed": true,
          "internalType": "address",
          "name": "from",
          "type": "address"
        },
        {
          "indexed": true,
          "internalType": "address",
          "name": "to",
          "type": "address"
        },
        {
          "indexed": false,
          "internalType": "uint256",
          "name": "value",
          "type": "uint256"
        }
      ],
      "name": "Transfer",
      "type": "event"
    },
    {
      "inputs": [
        {
          "internalType": "address",
          "name": "owner",
          "type": "address"
        },
        {
          "internalType": "address",
          "name": "spender",
          "type": "address"
        }
      ],
      "name": "allowance",
      "outputs": [
        {
          "internalType": "uint256",
          "name": "",
          "type": "uint256"
        }
      ],
      "stateMutability": "view",
      "type": "function"
    },
    {
      "inputs": [
        {
          "internalType": "address",
          "name": "spender",
          "type": "address"
        },
        {
          "internalType": "uint256",
          "name": "amount",
          "type": "uint256"
        }
      ],
      "name": "approve",
      "outputs": [
        {
          "internalType": "bool",
          "name": "",
          "type": "bool"
        }
      ],
      "stateMutability": "nonpayable",
      "type": "function"
    },
    {
      "inputs": [
        {
          "internalType": "address",
          "name": "account",
          "type": "address"
        }
      ],
      "name": "balanceOf",
      "outputs": [
        {
          "internalType": "uint256",
          "name": "",
          "type": "uint256"
        }
      ],
      "stateMutability": "view",
      "type": "function"
    },
    {
      "inputs": [],
      "name": "decimals",
      "outputs": [
        {
          "internalType": "uint8",
          "name": "",
          "type": "uint8"
        }
      ],
      "stateMutability": "view",
      "type": "function"
    },
    {
      "inputs": [
        {
          "internalType": "address",
          "name": "spender",
          "type": "address"
        },
        {
          "internalType": "uint256",
          "name": "subtractedValue",
          "type": "uint256"
        }
      ],
      "name": "decreaseAllowance",
      "outputs": [
        {
          "internalType": "bool",
          "name": "",
          "type": "bool"
        }
      ],
      "stateMutability": "nonpayable",
      "type": "function"
    },
    {
      "inputs": [
        {
          "internalType": "address",
          "name": "spender",
          "type": "address"
        },
        {
          "internalType": "uint256",
          "name": "addedValue",
          "type": "uint256"
        }
      ],
      "name": "increaseAllowance",
      "outputs": [
        {
          "internalType": "bool",
          "name": "",
          "type": "bool"
        }
      ],
      "stateMutability": "nonpayable",
      "type": "function"
    },
    {
      "inputs": [
        {
          "internalType": "address",
          "name": "account",
          "type": "address"
        },
        {
          "internalType": "uint256",
          "name": "amount",
          "type": "uint256"
        }
      ],
      "name": "mint",
      "outputs": [],
      "stateMutability": "nonpayable",
      "type": "function"
    },
    {
      "inputs": [],
      "name": "minter",
      "outputs": [
        {
          "internalType": "address",
          "name": "",
          "type": "address"
        }
      ],
      "stateMutability": "view",
      "type": "function"
    },
    {
      "inputs": [],
      "name": "name",
      "outputs": [
        {
          "internalType": "string",
          "name": "",
          "type": "string"
        }
      ],
      "stateMutability": "view",
      "type": "function"
    },
    {
      "inputs": [],
      "name": "symbol",
      "outputs": [
        {
          "internalType": "string",
          "name": "",
          "type": "string"
        }
      ],
      "stateMutability": "view",
      "type": "function"
    },
    {
      "inputs": [],
      "name": "totalSupply",
      "outputs": [
        {
          "internalType": "uint256",
          "name": "",
          "type": "uint256"
        }
      ],
      "stateMutability": "view",
      "type": "function"
    },
    {
      "inputs": [
        {
          "internalType": "address",
          "name": "to",
          "type": "address"
        },
        {
          "internalType": "uint256",
          "name": "amount",
          "type": "uint256"
        }
      ],
      "name": "transfer",
      "outputs": [
        {
          "internalType": "bool",
          "name": "",
          "type": "bool"
        }
      ],
      "stateMutability": "nonpayable",
      "type": "function"
    },
    {
      "inputs": [
        {
          "internalType": "address",
          "name": "from",
          "type": "address"
        },
        {
          "internalType": "address",
          "name": "to",
          "type": "address"
        },
        {
          "internalType": "uint256",
          "name": "amount",
          "type": "uint256"
        }
      ],
      "name": "transferFrom",
      "outputs": [
        {
          "internalType": "bool",
          "name": "",
          "type": "bool"
        }
      ],
      "stateMutability": "nonpayable",
      "type": "function"
    }
  ],
  "bytecode": "0x60a06040523480156200001157600080fd5b5060405162000d8738038062000d878339810160408190526200003491620001ee565b8251839083906200004d9060039060208501906200007b565b508051620000639060049060208401906200007b565b5050506001600160a01b031660805250620002b89050565b82805462000089906200027b565b90600052602060002090601f016020900481019282620000ad5760008555620000f8565b82601f10620000c857805160ff1916838001178555620000f8565b82800160010185558215620000f8579182015b82811115620000f8578251825591602001919060010190620000db565b50620001069291506200010a565b5090565b5b808211156200010657600081556001016200010b565b634e487b7160e01b600052604160045260246000fd5b600082601f8301126200014957600080fd5b81516001600160401b038082111562000166576200016662000121565b604051601f8301601f19908116603f0116810190828211818310171562000191576200019162000121565b81604052838152602092508683858801011115620001ae57600080fd5b600091505b83821015620001d25785820183015181830184015290820190620001b3565b83821115620001e45760008385830101525b9695505050505050565b6000806000606084860312156200020457600080fd5b83516001600160401b03808211156200021c57600080fd5b6200022a8783880162000137565b945060208601519150808211156200024157600080fd5b50620002508682870162000137565b604086015190935090506001600160a01b03811681146200027057600080fd5b809150509250925092565b600181811c908216806200029057607f821691505b60208210811415620002b257634e487b7160e01b600052602260045260246000fd5b50919050565b608051610aad620002da6000396000818160f701526103820152610aad6000f3fe608060405234801561001057600080fd5b50600436106100cf5760003560e01c8063395093511161008c57806395d89b411161006657806395d89b41146101d9578063a457c2d7146101e1578063a9059cbb146101f4578063dd62ed3e1461020757600080fd5b8063395093511461018857806340c10f191461019b57806370a08231146101b057600080fd5b806306fdde03146100d457806307546172146100f2578063095ea7b31461013157806318160ddd1461015457806323b872dd14610166578063313ce56714610179575b600080fd5b6100dc610240565b6040516100e991906108ea565b60405180910390f35b6101197f000000000000000000000000000000000000000000000000000000000000000081565b6040516001600160a01b0390911681526020016100e9565b61014461013f36600461095b565b6102d2565b60405190151581526020016100e9565b6002545b6040519081526020016100e9565b610144610174366004610985565b6102ea565b604051601281526020016100e9565b61014461019636600461095b565b61030e565b6101ae6101a936600461095b565b61034d565b005b6101586101be3660046109c1565b6001600160a01b031660009081526020819052604090205490565b6100dc6103d8565b6101446101ef36600461095b565b6103e7565b61014461020236600461095b565b610479565b6101586102153660046109e3565b6001600160a01b03918216600090815260016020908152604080832093909416825291909152205490565b60606003805461024f90610a16565b80601f016020809104026020016040519081016040528092919081815260200182805461027b90610a16565b80156102c85780601f1061029d576101008083540402835291602001916102c8565b820191906000526020600020905b8154815290600101906020018083116102ab57829003601f168201915b5050505050905090565b6000336102e0818585610487565b5060019392505050565b6000336102f88582856105ab565b61030385858561063d565b506001949350505050565b3360008181526001602090815260408083206001600160a01b03871684529091528120549091906102e09082908690610348908790610a51565b610487565b604080518082019091526013815272756e617574686f72697a65642061636365737360681b6020820152336001600160a01b037f000000000000000000000000000000000000000000000000000000000000000016146103c95760405162461bcd60e51b81526004016103c091906108ea565b60405180910390fd5b506103d4828261080b565b5050565b60606004805461024f90610a16565b3360008181526001602090815260408083206001600160a01b03871684529091528120549091908381101561046c5760405162461bcd60e51b815260206004820152602560248201527f45524332303a2064656372656173656420616c6c6f77616e63652062656c6f77604482015264207a65726f60d81b60648201526084016103c0565b6103038286868403610487565b6000336102e081858561063d565b6001600160a01b0383166104e95760405162461bcd60e51b8152602060048201526024808201527f45524332303a20617070726f76652066726f6d20746865207a65726f206164646044820152637265737360e01b60648201526084016103c0565b6001600160a01b03821661054a5760405162461bcd60e51b815260206004820152602260248201527f45524332303a20617070726f766520746f20746865207a65726f206164647265604482015261737360f01b60648201526084016103c0565b6001600160a01b0383811660008181526001602090815260408083209487168084529482529182902085905590518481527f8c5be1e5ebec7d5bd14f71427d1e84f3dd0314c0f7b2291e5b200ac8c7c3b925910160405180910390a3505050565b6001600160a01b038381166000908152600160209081526040808320938616835292905220546000198114610637578181101561062a5760405162461bcd60e51b815260206004820152601d60248201527f45524332303a20696e73756666696369656e7420616c6c6f77616e636500000060448201526064016103c0565b6106378484848403610487565b50505050565b6001600160a01b0383166106a15760405162461bcd60e51b815260206004820152602560248201527f45524332303a207472616e736665722066726f6d20746865207a65726f206164604482015264647265737360d81b60648201526084016103c0565b6001600160a01b0382166107035760405162461bcd60e51b815260206004820152602360248201527f45524332303a207472616e7366657220746f20746865207a65726f206164647260448201526265737360e81b60648201526084016103c0565b6001600160a01b0383166000908152602081905260409020548181101561077b5760405162461bcd60e51b815260206004820152602660248201527f45524332303a207472616e7366657220616d6f756e7420657863656564732062604482015265616c616e636560d01b60648201526084016103c0565b6001600160a01b038085166000908152602081905260408082208585039055918516815290812080548492906107b2908490610a51565b92505081905550826001600160a01b0316846001600160a01b03167fddf252ad1be2c89b69c2b068fc378daa952ba7f163c4a11628f55a4df523b3ef846040516107fe91815260200190565b60405180910390a3610637565b6001600160a01b0382166108615760405162461bcd60e51b815260206004820152601f60248201527f45524332303a206d696e7420746f20746865207a65726f20616464726573730060448201526064016103c0565b80600260008282546108739190610a51565b90915550506001600160a01b038216600090815260208190526040812080548392906108a0908490610a51565b90915550506040518181526001600160a01b038316906000907fddf252ad1be2c89b69c2b068fc378daa952ba7f163c4a11628f55a4df523b3ef9060200160405180910390a35050565b600060208083528351808285015260005b81811015610917578581018301518582016040015282016108fb565b81811115610929576000604083870101525b50601f01601f1916929092016040019392505050565b80356001600160a01b038116811461095657600080fd5b919050565b6000806040838503121561096e57600080fd5b6109778361093f565b946020939093013593505050565b60008060006060848603121561099a57600080fd5b6109a38461093f565b92506109b16020850161093f565b9150604084013590509250925092565b6000602082840312156109d357600080fd5b6109dc8261093f565b9392505050565b600080604083850312156109f657600080fd5b6109ff8361093f565b9150610a0d6020840161093f565b90509250929050565b600181811c90821680610a2a57607f821691505b60208210811415610a4b57634e487b7160e01b600052602260045260246000fd5b50919050565b60008219821115610a7257634e487b7160e01b600052601160045260246000fd5b50019056fea264697066735822122059d65c6a6c85ebffaa21d23230520a7736eb562f4207f0af40c896b711f18d6d64736f6c63430008090033",
  "linkReferences": {},
  "deployedLinkReferences": {}
}