{
  "_format": "hh-sol-artifact-1",
  "contractName": "LibLiquidation",
  "sourceName": "contracts/lib/LibLiquidation.sol",
  "abi": [
    {
      "inputs": [
        {
          "internalType": "int256",
          "name": "liquidatedBase",
          "type": "int256"
        },
        {
          "internalType": "int256",
          "name": "liquidatedQuote",
          "type": "int256"
        },
        {
          "internalType": "int256",
          "name": "amount",
          "type": "int256"
        }
      ],
      "name": "liquidationBalanceChanges",
      "outputs": [
        {
          "internalType": "int256",
          "name": "_liquidatorQuoteChange",
          "type": "int256"
        },
        {
          "internalType": "int256",
          "name": "_liquidatorBaseChange",
          "type": "int256"
        },
        {
          "internalType": "int256",
          "name": "_liquidateeQuoteChange",
          "type": "int256"
        },
        {
          "internalType": "int256",
          "name": "_liquidateeBaseChange",
          "type": "int256"
        }
      ],
      "stateMutability": "pure",
      "type": "function"
    }
  ],
  "bytecode": "0x61051661003a600b82828239805160001a60731461002d57634e487b7160e01b600052600060045260246000fd5b30600052607381538281f3fe73000000000000000000000000000000000000000030146080604052600436106100355760003560e01c806306f615ce1461003a575b600080fd5b61004d6100483660046103ce565b610066565b60405161005d94939291906103f9565b60405180910390f35b600080808086610081575060009250829150819050806100e4565b600061009e87610099886100948c6100ed565b610118565b6101c0565b905060008812156100bf576100b586600019610414565b93508591506100d1565b8593506100ce84600019610414565b91505b9350836100e081600019610414565b9250505b93509350935093565b6000600160ff1b82136100ff57600080fd5b6000821261010d5781610112565b816000035b92915050565b6000600160ff1b831361012a57600080fd5b600160ff1b821361013a57600080fd5b6000806000851261014b5784610150565b846000035b9150600084126101605783610165565b836000035b9050600061017c83670de0b6b3a764000084610258565b90506001600160ff1b0381111561019257600080fd5b6000198087139086138082186001146101ab57826101b4565b6101b483610497565b98975050505050505050565b6000600160ff1b83136101d257600080fd5b600160ff1b82136101e257600080fd5b600080600085126101f357846101f8565b846000035b915060008412610208578361020d565b836000035b9050600061021b8383610309565b90506001600160ff1b0381111561023157600080fd5b60001980871390861380821860011461024a57826101b4565b505060000395945050505050565b600080806000198587098686029250828110908390030390508061028e576000841161028357600080fd5b508290049050610302565b80841161029a57600080fd5b600084868809851960019081018716968790049682860381900495909211909303600082900391909104909201919091029190911760038402600290811880860282030280860282030280860282030280860282030280860282030280860290910302029150505b9392505050565b60008080600019848609848602925082811083820303915050600080670de0b6b3a76400008688099150506706f05b59d3b1ffff81118261035c5780670de0b6b3a7640000850401945050505050610112565b82670de0b6b3a76400001161037057600080fd5b6204000082850304939091119091037d40000000000000000000000000000000000000000000000000000000000002919091177faccb18165bd6fe31ae1cf318dc5b51eee0e1ba569b88cd74c1773b91fac106690201905092915050565b6000806000606084860312156103e2578283fd5b505081359360208301359350604090920135919050565b93845260208401929092526040830152606082015260800190565b60006001600160ff1b038184138284138583048511828216161561043a5761043a6104b1565b600160ff1b84871286820588128184161615610458576104586104b1565b858712925087820587128484161615610473576104736104b1565b87850587128184161615610489576104896104b1565b505050929093029392505050565b6000600160ff1b8214156104ad576104ad6104b1565b0390565b7f4e487b7100000000000000000000000000000000000000000000000000000000600052601160045260246000fdfea264697066735822122026fa5e27a419341a542c9e0644052d61eb1a4fd024b676f5cc1eebfc90d95f8664736f6c63430008000033",
  "linkReferences": {},
  "deployedLinkReferences": {}
}