{
  "_format": "hh-sol-artifact-1",
  "contractName": "MStableYieldSource",
  "sourceName": "contracts/yield-source/MStableYieldSource.sol",
  "abi": [
    {
      "inputs": [
        {
          "internalType": "contract ISavingsContractV2",
          "name": "_savings",
          "type": "address"
        }
      ],
      "stateMutability": "nonpayable",
      "type": "constructor"
    },
    {
      "anonymous": false,
      "inputs": [
        {
          "indexed": true,
          "internalType": "address",
          "name": "from",
          "type": "address"
        }
      ],
      "name": "ApprovedMax",
      "type": "event"
    },
    {
      "anonymous": false,
      "inputs": [
        {
          "indexed": true,
          "internalType": "contract ISavingsContractV2",
          "name": "savings",
          "type": "address"
        }
      ],
      "name": "Initialized",
      "type": "event"
    },
    {
      "anonymous": false,
      "inputs": [
        {
          "indexed": true,
          "internalType": "address",
          "name": "from",
          "type": "address"
        },
        {
          "indexed": false,
          "internalType": "uint256",
          "name": "requestedAmount",
          "type": "uint256"
        },
        {
          "indexed": false,
          "internalType": "uint256",
          "name": "actualAmount",
          "type": "uint256"
        }
      ],
      "name": "Redeemed",
      "type": "event"
    },
    {
      "anonymous": false,
      "inputs": [
        {
          "indexed": true,
          "internalType": "address",
          "name": "sponsor",
          "type": "address"
        },
        {
          "indexed": false,
          "internalType": "uint256",
          "name": "mAssetAmount",
          "type": "uint256"
        }
      ],
      "name": "Sponsored",
      "type": "event"
    },
    {
      "anonymous": false,
      "inputs": [
        {
          "indexed": true,
          "internalType": "address",
          "name": "from",
          "type": "address"
        },
        {
          "indexed": true,
          "internalType": "address",
          "name": "to",
          "type": "address"
        },
        {
          "indexed": false,
          "internalType": "uint256",
          "name": "amount",
          "type": "uint256"
        }
      ],
      "name": "Supplied",
      "type": "event"
    },
    {
      "inputs": [],
      "name": "approveMax",
      "outputs": [],
      "stateMutability": "nonpayable",
      "type": "function"
    },
    {
      "inputs": [
        {
          "internalType": "address",
          "name": "addr",
          "type": "address"
        }
      ],
      "name": "balanceOfToken",
      "outputs": [
        {
          "internalType": "uint256",
          "name": "mAssets",
          "type": "uint256"
        }
      ],
      "stateMutability": "view",
      "type": "function"
    },
    {
      "inputs": [],
      "name": "depositToken",
      "outputs": [
        {
          "internalType": "address",
          "name": "underlyingMasset",
          "type": "address"
        }
      ],
      "stateMutability": "view",
      "type": "function"
    },
    {
      "inputs": [
        {
          "internalType": "address",
          "name": "",
          "type": "address"
        }
      ],
      "name": "imBalances",
      "outputs": [
        {
          "internalType": "uint256",
          "name": "",
          "type": "uint256"
        }
      ],
      "stateMutability": "view",
      "type": "function"
    },
    {
      "inputs": [],
      "name": "mAsset",
      "outputs": [
        {
          "internalType": "contract IERC20",
          "name": "",
          "type": "address"
        }
      ],
      "stateMutability": "view",
      "type": "function"
    },
    {
      "inputs": [
        {
          "internalType": "uint256",
          "name": "mAssetAmount",
          "type": "uint256"
        }
      ],
      "name": "redeemToken",
      "outputs": [
        {
          "internalType": "uint256",
          "name": "mAssetsActual",
          "type": "uint256"
        }
      ],
      "stateMutability": "nonpayable",
      "type": "function"
    },
    {
      "inputs": [],
      "name": "savings",
      "outputs": [
        {
          "internalType": "contract ISavingsContractV2",
          "name": "",
          "type": "address"
        }
      ],
      "stateMutability": "view",
      "type": "function"
    },
    {
      "inputs": [
        {
          "internalType": "uint256",
          "name": "mAssetAmount",
          "type": "uint256"
        },
        {
          "internalType": "address",
          "name": "to",
          "type": "address"
        }
      ],
      "name": "supplyTokenTo",
      "outputs": [],
      "stateMutability": "nonpayable",
      "type": "function"
    }
  ],
  "bytecode": "0x60c06040523480156200001157600080fd5b506040516200146638038062001466833981016040819052620000349162000521565b60016000819055506000816001600160a01b0316636f307dc36040518163ffffffff1660e01b815260040160206040518083038186803b1580156200007857600080fd5b505afa1580156200008d573d6000803e3d6000fd5b505050506040513d601f19601f82011682018060405250810190620000b3919062000521565b9050620000dc82600019836001600160a01b03166200013260201b620007e5179092919060201c565b6001600160601b0319606083811b821660805282901b1660a0526040516001600160a01b038316907f908408e307fc569b417f6cbec5d5a06f44a0a505ac0479b47d421a4b2fd6a1e690600090a25050620005f8565b801580620001c05750604051636eb1769f60e11b81523060048201526001600160a01b03838116602483015284169063dd62ed3e9060440160206040518083038186803b1580156200018357600080fd5b505afa15801562000198573d6000803e3d6000fd5b505050506040513d601f19601f82011682018060405250810190620001be919062000540565b155b620002385760405162461bcd60e51b815260206004820152603660248201527f5361666545524332303a20617070726f76652066726f6d206e6f6e2d7a65726f60448201527f20746f206e6f6e2d7a65726f20616c6c6f77616e63650000000000000000000060648201526084015b60405180910390fd5b604080516001600160a01b038416602482015260448082018490528251808303909101815260649091019091526020810180516001600160e01b0390811663095ea7b360e01b17909152620002909185916200029516565b505050565b6000620002f1826040518060400160405280602081526020017f5361666545524332303a206c6f772d6c6576656c2063616c6c206661696c6564815250856001600160a01b03166200037360201b62000941179092919060201c565b805190915015620002905780806020019051810190620003129190620004ff565b620002905760405162461bcd60e51b815260206004820152602a60248201527f5361666545524332303a204552433230206f7065726174696f6e20646964206e6044820152691bdd081cdd58d8d9595960b21b60648201526084016200022f565b60606200038484846000856200038e565b90505b9392505050565b606082471015620003f15760405162461bcd60e51b815260206004820152602660248201527f416464726573733a20696e73756666696369656e742062616c616e636520666f6044820152651c8818d85b1b60d21b60648201526084016200022f565b843b620004415760405162461bcd60e51b815260206004820152601d60248201527f416464726573733a2063616c6c20746f206e6f6e2d636f6e747261637400000060448201526064016200022f565b600080866001600160a01b031685876040516200045f919062000559565b60006040518083038185875af1925050503d80600081146200049e576040519150601f19603f3d011682016040523d82523d6000602084013e620004a3565b606091505b509092509050620004b6828286620004c1565b979650505050505050565b60608315620004d257508162000387565b825115620004e35782518084602001fd5b8160405162461bcd60e51b81526004016200022f919062000577565b60006020828403121562000511578081fd5b8151801515811462000387578182fd5b60006020828403121562000533578081fd5b81516200038781620005df565b60006020828403121562000552578081fd5b5051919050565b600082516200056d818460208701620005ac565b9190910192915050565b600060208252825180602084015262000598816040850160208701620005ac565b601f01601f19169190910160400192915050565b60005b83811015620005c9578181015183820152602001620005af565b83811115620005d9576000848401525b50505050565b6001600160a01b0381168114620005f557600080fd5b50565b60805160601c60a05160601c610dfd620006696000396000818160d80152818161016b01528181610205015281816103680152818161040501526104d9015260008181610147015281816102ab0152818161051a0152818161061f015281816106f501526107190152610dfd6000f3fe608060405234801561001057600080fd5b50600436106100885760003560e01c8063b99152d01161005b578063b99152d014610127578063c2ac71261461013a578063c86d6ae414610142578063c89039c51461016957610088565b8063013054c21461008d5780630ac1c424146100b3578063178d341f146100d357806387a6eeef14610112575b600080fd5b6100a061009b366004610c51565b61018f565b6040519081526020015b60405180910390f35b6100a06100c1366004610bf9565b60016020526000908152604090205481565b6100fa7f000000000000000000000000000000000000000000000000000000000000000081565b6040516001600160a01b0390911681526020016100aa565b610125610120366004610c81565b610474565b005b6100a0610135366004610bf9565b61061a565b6101256106f0565b6100fa7f000000000000000000000000000000000000000000000000000000000000000081565b7f00000000000000000000000000000000000000000000000000000000000000006100fa565b6000600260005414156101e95760405162461bcd60e51b815260206004820152601f60248201527f5265656e7472616e637947756172643a207265656e7472616e742063616c6c0060448201526064015b60405180910390fd5b600260009081556040516370a0823160e01b81523060048201527f00000000000000000000000000000000000000000000000000000000000000006001600160a01b0316906370a082319060240160206040518083038186803b15801561024f57600080fd5b505afa158015610263573d6000803e3d6000fd5b505050506040513d601f19601f820116820180604052508101906102879190610c69565b60405163852a12e360e01b8152600481018590529091506000906001600160a01b037f0000000000000000000000000000000000000000000000000000000000000000169063852a12e390602401602060405180830381600087803b1580156102ef57600080fd5b505af1158015610303573d6000803e3d6000fd5b505050506040513d601f19601f820116820180604052508101906103279190610c69565b3360009081526001602052604081208054929350839290919061034b908490610d56565b90915550506040516370a0823160e01b81523060048201526000907f00000000000000000000000000000000000000000000000000000000000000006001600160a01b0316906370a082319060240160206040518083038186803b1580156103b257600080fd5b505afa1580156103c6573d6000803e3d6000fd5b505050506040513d601f19601f820116820180604052508101906103ea9190610c69565b90506103f68382610d56565b935061042c6001600160a01b037f0000000000000000000000000000000000000000000000000000000000000000163386610958565b604080518681526020810186905233917ff3a670cd3af7d64b488926880889d08a8585a138ff455227af6737339a1ec262910160405180910390a25050600160005550919050565b600260005414156104c75760405162461bcd60e51b815260206004820152601f60248201527f5265656e7472616e637947756172643a207265656e7472616e742063616c6c0060448201526064016101e0565b60026000556105016001600160a01b037f000000000000000000000000000000000000000000000000000000000000000016333085610988565b60405163a453b6cf60e01b8152600481018390526000907f00000000000000000000000000000000000000000000000000000000000000006001600160a01b03169063a453b6cf90602401602060405180830381600087803b15801561056657600080fd5b505af115801561057a573d6000803e3d6000fd5b505050506040513d601f19601f8201168201806040525081019061059e9190610c69565b6001600160a01b0383166000908152600160205260408120805492935083929091906105cb908490610cff565b90915550506040518381526001600160a01b0383169033907f523322d7afb07cee28d04498651096af062004e1f14315eff2e4a60290dfadda9060200160405180910390a35050600160005550565b6000807f00000000000000000000000000000000000000000000000000000000000000006001600160a01b0316633ba0b9a96040518163ffffffff1660e01b815260040160206040518083038186803b15801561067657600080fd5b505afa15801561068a573d6000803e3d6000fd5b505050506040513d601f19601f820116820180604052508101906106ae9190610c69565b6001600160a01b038416600090815260016020526040902054909150670de0b6b3a7640000906106df908390610d37565b6106e99190610d17565b9392505050565b6107b87f00000000000000000000000000000000000000000000000000000000000000006000197f00000000000000000000000000000000000000000000000000000000000000006001600160a01b0316636f307dc36040518163ffffffff1660e01b815260040160206040518083038186803b15801561077057600080fd5b505afa158015610784573d6000803e3d6000fd5b505050506040513d601f19601f820116820180604052508101906107a89190610c35565b6001600160a01b031691906107e5565b60405133907f232d00d34950c0e9bf25265e320fa8df930466f5c73a41fe665247fecda2197e90600090a2565b80158061086e5750604051636eb1769f60e11b81523060048201526001600160a01b03838116602483015284169063dd62ed3e9060440160206040518083038186803b15801561083457600080fd5b505afa158015610848573d6000803e3d6000fd5b505050506040513d601f19601f8201168201806040525081019061086c9190610c69565b155b6108d95760405162461bcd60e51b815260206004820152603660248201527f5361666545524332303a20617070726f76652066726f6d206e6f6e2d7a65726f60448201527520746f206e6f6e2d7a65726f20616c6c6f77616e636560501b60648201526084016101e0565b6040516001600160a01b03831660248201526044810182905261093c90849063095ea7b360e01b906064015b60408051601f198184030181529190526020810180516001600160e01b03166001600160e01b0319909316929092179091526109c6565b505050565b60606109508484600085610a98565b949350505050565b6040516001600160a01b03831660248201526044810182905261093c90849063a9059cbb60e01b90606401610905565b6040516001600160a01b03808516602483015283166044820152606481018290526109c09085906323b872dd60e01b90608401610905565b50505050565b6000610a1b826040518060400160405280602081526020017f5361666545524332303a206c6f772d6c6576656c2063616c6c206661696c6564815250856001600160a01b03166109419092919063ffffffff16565b80519091501561093c5780806020019051810190610a399190610c15565b61093c5760405162461bcd60e51b815260206004820152602a60248201527f5361666545524332303a204552433230206f7065726174696f6e20646964206e6044820152691bdd081cdd58d8d9595960b21b60648201526084016101e0565b606082471015610af95760405162461bcd60e51b815260206004820152602660248201527f416464726573733a20696e73756666696369656e742062616c616e636520666f6044820152651c8818d85b1b60d21b60648201526084016101e0565b843b610b475760405162461bcd60e51b815260206004820152601d60248201527f416464726573733a2063616c6c20746f206e6f6e2d636f6e747261637400000060448201526064016101e0565b600080866001600160a01b03168587604051610b639190610cb0565b60006040518083038185875af1925050503d8060008114610ba0576040519150601f19603f3d011682016040523d82523d6000602084013e610ba5565b606091505b5091509150610bb5828286610bc0565b979650505050505050565b60608315610bcf5750816106e9565b825115610bdf5782518084602001fd5b8160405162461bcd60e51b81526004016101e09190610ccc565b600060208284031215610c0a578081fd5b81356106e981610daf565b600060208284031215610c26578081fd5b815180151581146106e9578182fd5b600060208284031215610c46578081fd5b81516106e981610daf565b600060208284031215610c62578081fd5b5035919050565b600060208284031215610c7a578081fd5b5051919050565b60008060408385031215610c93578081fd5b823591506020830135610ca581610daf565b809150509250929050565b60008251610cc2818460208701610d6d565b9190910192915050565b6000602082528251806020840152610ceb816040850160208701610d6d565b601f01601f19169190910160400192915050565b60008219821115610d1257610d12610d99565b500190565b600082610d3257634e487b7160e01b81526012600452602481fd5b500490565b6000816000190483118215151615610d5157610d51610d99565b500290565b600082821015610d6857610d68610d99565b500390565b60005b83811015610d88578181015183820152602001610d70565b838111156109c05750506000910152565b634e487b7160e01b600052601160045260246000fd5b6001600160a01b0381168114610dc457600080fd5b5056fea2646970667358221220a3c5c14041a9cf68bd5d6748a3cd028f941be25787eaa64df53db79b96427ec864736f6c63430008020033",
  "linkReferences": {},
  "deployedLinkReferences": {}
}