{
  "_format": "hh-sol-artifact-1",
  "contractName": "Ladle",
  "sourceName": "contracts/Ladle.sol",
  "abi": [
    {
      "inputs": [
        {
          "internalType": "contract ICauldron",
          "name": "cauldron",
          "type": "address"
        },
        {
          "internalType": "contract IWETH9",
          "name": "weth_",
          "type": "address"
        }
      ],
      "stateMutability": "nonpayable",
      "type": "constructor"
    },
    {
      "anonymous": false,
      "inputs": [
        {
          "indexed": false,
          "internalType": "uint256",
          "name": "fee",
          "type": "uint256"
        }
      ],
      "name": "FeeSet",
      "type": "event"
    },
    {
      "anonymous": false,
      "inputs": [
        {
          "indexed": true,
          "internalType": "bytes6",
          "name": "assetId",
          "type": "bytes6"
        },
        {
          "indexed": true,
          "internalType": "address",
          "name": "join",
          "type": "address"
        }
      ],
      "name": "JoinAdded",
      "type": "event"
    },
    {
      "anonymous": false,
      "inputs": [
        {
          "indexed": true,
          "internalType": "address",
          "name": "module",
          "type": "address"
        },
        {
          "indexed": true,
          "internalType": "bool",
          "name": "set",
          "type": "bool"
        }
      ],
      "name": "ModuleSet",
      "type": "event"
    },
    {
      "anonymous": false,
      "inputs": [
        {
          "indexed": true,
          "internalType": "bytes6",
          "name": "seriesId",
          "type": "bytes6"
        },
        {
          "indexed": true,
          "internalType": "address",
          "name": "pool",
          "type": "address"
        }
      ],
      "name": "PoolAdded",
      "type": "event"
    },
    {
      "anonymous": false,
      "inputs": [
        {
          "indexed": true,
          "internalType": "bytes4",
          "name": "role",
          "type": "bytes4"
        },
        {
          "indexed": true,
          "internalType": "bytes4",
          "name": "newAdminRole",
          "type": "bytes4"
        }
      ],
      "name": "RoleAdminChanged",
      "type": "event"
    },
    {
      "anonymous": false,
      "inputs": [
        {
          "indexed": true,
          "internalType": "bytes4",
          "name": "role",
          "type": "bytes4"
        },
        {
          "indexed": true,
          "internalType": "address",
          "name": "account",
          "type": "address"
        },
        {
          "indexed": true,
          "internalType": "address",
          "name": "sender",
          "type": "address"
        }
      ],
      "name": "RoleGranted",
      "type": "event"
    },
    {
      "anonymous": false,
      "inputs": [
        {
          "indexed": true,
          "internalType": "bytes4",
          "name": "role",
          "type": "bytes4"
        },
        {
          "indexed": true,
          "internalType": "address",
          "name": "account",
          "type": "address"
        },
        {
          "indexed": true,
          "internalType": "address",
          "name": "sender",
          "type": "address"
        }
      ],
      "name": "RoleRevoked",
      "type": "event"
    },
    {
      "inputs": [],
      "name": "LOCK",
      "outputs": [
        {
          "internalType": "bytes4",
          "name": "",
          "type": "bytes4"
        }
      ],
      "stateMutability": "view",
      "type": "function"
    },
    {
      "inputs": [],
      "name": "ROOT",
      "outputs": [
        {
          "internalType": "bytes4",
          "name": "",
          "type": "bytes4"
        }
      ],
      "stateMutability": "view",
      "type": "function"
    },
    {
      "inputs": [
        {
          "internalType": "bytes6",
          "name": "assetId",
          "type": "bytes6"
        },
        {
          "internalType": "contract IJoin",
          "name": "join",
          "type": "address"
        }
      ],
      "name": "addJoin",
      "outputs": [],
      "stateMutability": "nonpayable",
      "type": "function"
    },
    {
      "inputs": [
        {
          "internalType": "bytes6",
          "name": "seriesId",
          "type": "bytes6"
        },
        {
          "internalType": "contract IPool",
          "name": "pool",
          "type": "address"
        }
      ],
      "name": "addPool",
      "outputs": [],
      "stateMutability": "nonpayable",
      "type": "function"
    },
    {
      "inputs": [
        {
          "internalType": "enum LadleStorage.Operation[]",
          "name": "operations",
          "type": "uint8[]"
        },
        {
          "internalType": "bytes[]",
          "name": "data",
          "type": "bytes[]"
        }
      ],
      "name": "batch",
      "outputs": [],
      "stateMutability": "payable",
      "type": "function"
    },
    {
      "inputs": [],
      "name": "borrowingFee",
      "outputs": [
        {
          "internalType": "uint256",
          "name": "",
          "type": "uint256"
        }
      ],
      "stateMutability": "view",
      "type": "function"
    },
    {
      "inputs": [],
      "name": "cauldron",
      "outputs": [
        {
          "internalType": "contract ICauldron",
          "name": "",
          "type": "address"
        }
      ],
      "stateMutability": "view",
      "type": "function"
    },
    {
      "inputs": [
        {
          "internalType": "bytes4",
          "name": "role",
          "type": "bytes4"
        }
      ],
      "name": "getRoleAdmin",
      "outputs": [
        {
          "internalType": "bytes4",
          "name": "",
          "type": "bytes4"
        }
      ],
      "stateMutability": "view",
      "type": "function"
    },
    {
      "inputs": [
        {
          "internalType": "bytes4",
          "name": "role",
          "type": "bytes4"
        },
        {
          "internalType": "address",
          "name": "account",
          "type": "address"
        }
      ],
      "name": "grantRole",
      "outputs": [],
      "stateMutability": "nonpayable",
      "type": "function"
    },
    {
      "inputs": [
        {
          "internalType": "bytes4[]",
          "name": "roles",
          "type": "bytes4[]"
        },
        {
          "internalType": "address",
          "name": "account",
          "type": "address"
        }
      ],
      "name": "grantRoles",
      "outputs": [],
      "stateMutability": "nonpayable",
      "type": "function"
    },
    {
      "inputs": [
        {
          "internalType": "bytes4",
          "name": "role",
          "type": "bytes4"
        },
        {
          "internalType": "address",
          "name": "account",
          "type": "address"
        }
      ],
      "name": "hasRole",
      "outputs": [
        {
          "internalType": "bool",
          "name": "",
          "type": "bool"
        }
      ],
      "stateMutability": "view",
      "type": "function"
    },
    {
      "inputs": [
        {
          "internalType": "bytes6",
          "name": "",
          "type": "bytes6"
        }
      ],
      "name": "joins",
      "outputs": [
        {
          "internalType": "contract IJoin",
          "name": "",
          "type": "address"
        }
      ],
      "stateMutability": "view",
      "type": "function"
    },
    {
      "inputs": [
        {
          "internalType": "bytes4",
          "name": "role",
          "type": "bytes4"
        }
      ],
      "name": "lockRole",
      "outputs": [],
      "stateMutability": "nonpayable",
      "type": "function"
    },
    {
      "inputs": [
        {
          "internalType": "address",
          "name": "",
          "type": "address"
        }
      ],
      "name": "modules",
      "outputs": [
        {
          "internalType": "bool",
          "name": "",
          "type": "bool"
        }
      ],
      "stateMutability": "view",
      "type": "function"
    },
    {
      "inputs": [
        {
          "internalType": "bytes6",
          "name": "",
          "type": "bytes6"
        }
      ],
      "name": "pools",
      "outputs": [
        {
          "internalType": "contract IPool",
          "name": "",
          "type": "address"
        }
      ],
      "stateMutability": "view",
      "type": "function"
    },
    {
      "inputs": [
        {
          "internalType": "bytes4",
          "name": "role",
          "type": "bytes4"
        },
        {
          "internalType": "address",
          "name": "account",
          "type": "address"
        }
      ],
      "name": "renounceRole",
      "outputs": [],
      "stateMutability": "nonpayable",
      "type": "function"
    },
    {
      "inputs": [
        {
          "internalType": "bytes4",
          "name": "role",
          "type": "bytes4"
        },
        {
          "internalType": "address",
          "name": "account",
          "type": "address"
        }
      ],
      "name": "revokeRole",
      "outputs": [],
      "stateMutability": "nonpayable",
      "type": "function"
    },
    {
      "inputs": [
        {
          "internalType": "bytes4[]",
          "name": "roles",
          "type": "bytes4[]"
        },
        {
          "internalType": "address",
          "name": "account",
          "type": "address"
        }
      ],
      "name": "revokeRoles",
      "outputs": [],
      "stateMutability": "nonpayable",
      "type": "function"
    },
    {
      "inputs": [
        {
          "internalType": "uint256",
          "name": "fee",
          "type": "uint256"
        }
      ],
      "name": "setFee",
      "outputs": [],
      "stateMutability": "nonpayable",
      "type": "function"
    },
    {
      "inputs": [
        {
          "internalType": "address",
          "name": "module",
          "type": "address"
        },
        {
          "internalType": "bool",
          "name": "set",
          "type": "bool"
        }
      ],
      "name": "setModule",
      "outputs": [],
      "stateMutability": "nonpayable",
      "type": "function"
    },
    {
      "inputs": [
        {
          "internalType": "bytes4",
          "name": "role",
          "type": "bytes4"
        },
        {
          "internalType": "bytes4",
          "name": "adminRole",
          "type": "bytes4"
        }
      ],
      "name": "setRoleAdmin",
      "outputs": [],
      "stateMutability": "nonpayable",
      "type": "function"
    },
    {
      "inputs": [
        {
          "internalType": "bytes12",
          "name": "vaultId",
          "type": "bytes12"
        },
        {
          "internalType": "address",
          "name": "user",
          "type": "address"
        },
        {
          "internalType": "uint128",
          "name": "ink",
          "type": "uint128"
        },
        {
          "internalType": "uint128",
          "name": "art",
          "type": "uint128"
        }
      ],
      "name": "settle",
      "outputs": [],
      "stateMutability": "nonpayable",
      "type": "function"
    },
    {
      "inputs": [],
      "name": "weth",
      "outputs": [
        {
          "internalType": "contract IWETH9",
          "name": "",
          "type": "address"
        }
      ],
      "stateMutability": "view",
      "type": "function"
    },
    {
      "stateMutability": "payable",
      "type": "receive"
    }
  ],
  "bytecode": "0x60c06040523480156200001157600080fd5b506040516200618d3803806200618d8339810160408190526200003491620001d0565b6001600160601b0319606083901b16608052620000536000336200007e565b620000676001600160e01b031980620000f5565b60601b6001600160601b03191660a0525062000227565b6200008a828262000177565b620000f1576001600160e01b0319821660008181526004602090815260408083206001600160a01b0386168085529252808320805460ff1916600117905551339391927fe6231789d19137da31d0550f4ba9ee379020a8cfb64cb79bf1790c996d2e616591a45b5050565b6001600160e01b031981166200010b83620001ae565b6001600160e01b03191614620000f1576001600160e01b0319828116600081815260046020526040808220600101805463ffffffff191660e087901c17905551928416927fd348e2220a50b4500ec353f6e802d2f14dd1b5d6786148fd1bbcc570bf92d4739190a35050565b6001600160e01b0319821660009081526004602090815260408083206001600160a01b038516845290915290205460ff1692915050565b6001600160e01b03191660009081526004602052604090206001015460e01b90565b60008060408385031215620001e3578182fd5b8251620001f0816200020e565b602084015190925062000203816200020e565b809150509250929050565b6001600160a01b03811681146200022457600080fd5b50565b60805160601c60a05160601c615e92620002fb60003960008181610708015281816122e6015281816123640152818161308f01526131470152600081816107cd01528181610ac101528181610cdc01528181611e4d01528181612061015281816121a2015281816124340152818161290f01528181612cc00152818161324b0152818161364701528181613884015281816139c901528181613d4e01528181613e4401528181613f2801528181613ffa0152818161406b01528181614124015281816142d5015261452f0152615e926000f3fe6080604052600436106101845760003560e01c80638377be50116100d6578063b1662d581161007f578063dd54e9f111610059578063dd54e9f114610418578063de02cde71461042b578063effae3531461044b5761018b565b8063b1662d58146103b8578063b1d1fedd146103d8578063bf1025f3146103f85761018b565b8063a8ee49fe116100b0578063a8ee49fe14610358578063ad82110f14610378578063ae93c1b5146103985761018b565b80638377be501461030c57806397ff6a041461032e578063a4f0d7d0146103435761018b565b8063559742d91161013857806360e0b6361161011257806360e0b636146102ac578063687f0e4c146102cc57806369fe0e2d146102ec5761018b565b8063559742d91461024a5780635909c12f1461026a5780635ba5e9f01461028c5761018b565b80633fc8cef3116101695780633fc8cef3146101e857806344faded01461020a57806349c29d2b1461022a5761018b565b806310ab94321461019057806333e6035a146101c65761018b565b3661018b57005b600080fd5b34801561019c57600080fd5b506101b06101ab366004614dfb565b61046b565b6040516101bd9190615418565b60405180910390f35b3480156101d257600080fd5b506101e66101e1366004615052565b610480565b005b3480156101f457600080fd5b506101fd610706565b6040516101bd919061527d565b34801561021657600080fd5b506101e6610225366004614dfb565b61072a565b34801561023657600080fd5b506101e6610245366004615052565b610768565b34801561025657600080fd5b506101e6610265366004614de1565b6109a3565b34801561027657600080fd5b5061027f6109e2565b6040516101bd91906155d9565b34801561029857600080fd5b5061027f6102a7366004614de1565b6109e7565b3480156102b857600080fd5b506101fd6102c7366004614e48565b6109fa565b3480156102d857600080fd5b506101e66102e7366004614dfb565b610a15565b3480156102f857600080fd5b506101e6610307366004615231565b610a47565b34801561031857600080fd5b50610321610ab9565b6040516101bd9190615a6f565b34801561033a57600080fd5b506101fd610abf565b34801561034f57600080fd5b5061027f610ae3565b34801561036457600080fd5b506101b0610373366004614991565b610aef565b34801561038457600080fd5b506101e6610393366004614a4f565b610b04565b3480156103a457600080fd5b506101e66103b3366004614e16565b610ba2565b3480156103c457600080fd5b506101e66103d3366004614a17565b610bd5565b3480156103e457600080fd5b506101e66103f3366004614cf3565b610c5b565b34801561040457600080fd5b506101fd610413366004614e48565b610efb565b6101e6610426366004614b0f565b610f16565b34801561043757600080fd5b506101e6610446366004614dfb565b611d1a565b34801561045757600080fd5b506101e6610466366004614a4f565b611d4d565b60006104778383611dde565b90505b92915050565b6104966000356001600160e01b03191633611dde565b6104bb5760405162461bcd60e51b81526004016104b2906159ad565b60405180910390fd5b60006104c683611e15565b600001519050816001600160a01b031663dc3bfba96040518163ffffffff1660e01b815260040160206040518083038186803b15801561050557600080fd5b505afa158015610519573d6000803e3d6000fd5b505050506040513d601f19601f8201168201806040525081019061053d91906149ad565b6001600160a01b0316816001600160a01b03161461056d5760405162461bcd60e51b81526004016104b29061564e565b816001600160a01b0316635001f3b56040518163ffffffff1660e01b815260040160206040518083038186803b1580156105a657600080fd5b505afa1580156105ba573d6000803e3d6000fd5b505050506040513d601f19601f820116820180604052508101906105de91906149ad565b6001600160a01b0316816001600160a01b0316636f307dc36040518163ffffffff1660e01b815260040160206040518083038186803b15801561062057600080fd5b505afa158015610634573d6000803e3d6000fd5b505050506040513d601f19601f8201168201806040525081019061065891906149ad565b6001600160a01b03161461067e5760405162461bcd60e51b81526004016104b290615976565b7fffffffffffff00000000000000000000000000000000000000000000000000008316600081815260026020526040808220805473ffffffffffffffffffffffffffffffffffffffff19166001600160a01b03871690811790915590519092917f9b2f85ba13740543525ad2d1fc97e976093cce223fd72bdd789866b884470b3891a3505050565b7f000000000000000000000000000000000000000000000000000000000000000081565b8161073d61073782611efc565b33611dde565b6107595760405162461bcd60e51b81526004016104b2906157be565b6107638383611f1e565b505050565b61077e6000356001600160e01b03191633611dde565b61079a5760405162461bcd60e51b81526004016104b2906159ad565b6040517f19be8d120000000000000000000000000000000000000000000000000000000081526000906001600160a01b037f000000000000000000000000000000000000000000000000000000000000000016906319be8d12906108029086906004016155ee565b60206040518083038186803b15801561081a57600080fd5b505afa15801561082e573d6000803e3d6000fd5b505050506040513d601f19601f8201168201806040525081019061085291906149ad565b90506001600160a01b03811661087a5760405162461bcd60e51b81526004016104b29061589a565b806001600160a01b0316826001600160a01b03166338d52e0f6040518163ffffffff1660e01b815260040160206040518083038186803b1580156108bd57600080fd5b505afa1580156108d1573d6000803e3d6000fd5b505050506040513d601f19601f820116820180604052508101906108f591906149ad565b6001600160a01b03161461091b5760405162461bcd60e51b81526004016104b2906158d1565b7fffffffffffff00000000000000000000000000000000000000000000000000008316600081815260016020526040808220805473ffffffffffffffffffffffffffffffffffffffff19166001600160a01b03871690811790915590519092917fa165be0a6237b515a1722eaa2ac0d02a97a7a04e0b31261556003a46c08cbf9f91a3505050565b806109b061073782611efc565b6109cc5760405162461bcd60e51b81526004016104b2906157be565b6109de826001600160e01b0319611f8f565b5050565b600081565b60006109f282611efc565b90505b919050565b6001602052600090815260409020546001600160a01b031681565b6001600160a01b0381163314610a3d5760405162461bcd60e51b81526004016104b29061593f565b6109de8282611f1e565b610a5d6000356001600160e01b03191633611dde565b610a795760405162461bcd60e51b81526004016104b2906159ad565b60008190556040517f20461e09b8e557b77e107939f9ce6544698123aad0fc964ac5cc59b7df2e608f90610aae908390615a6f565b60405180910390a150565b60005481565b7f000000000000000000000000000000000000000000000000000000000000000081565b6001600160e01b031981565b60036020526000908152604090205460ff1681565b60005b825181101561076357610b43610737848381518110610b3657634e487b7160e01b600052603260045260246000fd5b6020026020010151611efc565b610b5f5760405162461bcd60e51b81526004016104b2906157be565b610b90838281518110610b8257634e487b7160e01b600052603260045260246000fd5b602002602001015183611f1e565b80610b9a81615d48565b915050610b07565b81610baf61073782611efc565b610bcb5760405162461bcd60e51b81526004016104b2906157be565b6107638383611f8f565b610beb6000356001600160e01b03191633611dde565b610c075760405162461bcd60e51b81526004016104b2906159ad565b6001600160a01b038216600081815260036020526040808220805460ff191685151590811790915590519092917f96bf850214e832f3d463d74cdf933b2aa73175e078496bd11f5e8afaeb2bbb9c91a35050565b610c716000356001600160e01b03191633611dde565b610c8d5760405162461bcd60e51b81526004016104b2906159ad565b6000610c9885612029565b90506000610ca98260200151611e15565b6040517f2b7b312f0000000000000000000000000000000000000000000000000000000081529091506001600160a01b037f00000000000000000000000000000000000000000000000000000000000000001690632b7b312f90610d1590899088908890600401615598565b6040805180830381600087803b158015610d2e57600080fd5b505af1158015610d42573d6000803e3d6000fd5b505050506040513d601f19601f82011682018060405250810190610d66919061512c565b506fffffffffffffffffffffffffffffffff841615610e2d576000610d8e8360400151612112565b6040517f12e5ff770000000000000000000000000000000000000000000000000000000081529091506001600160a01b038216906312e5ff7790610dd890899089906004016153a1565b602060405180830381600087803b158015610df257600080fd5b505af1158015610e06573d6000803e3d6000fd5b505050506040513d601f19601f82011682018060405250810190610e2a9190615215565b50505b6fffffffffffffffffffffffffffffffff831615610ef3576000610e548260200151612112565b6040517fceae3abd0000000000000000000000000000000000000000000000000000000081529091506001600160a01b0382169063ceae3abd90610e9e90899088906004016153a1565b602060405180830381600087803b158015610eb857600080fd5b505af1158015610ecc573d6000803e3d6000fd5b505050506040513d601f19601f82011682018060405250810190610ef09190615215565b50505b505050505050565b6002602052600090815260409020546001600160a01b031681565b828114610f355760405162461bcd60e51b81526004016104b290615719565b6000610f3f6147c3565b60005b85811015611d11576000878783818110610f6c57634e487b7160e01b600052603260045260246000fd5b9050602002016020810190610f81919061509a565b90506000816015811115610fa557634e487b7160e01b600052602160045260246000fd5b141561100f576000806000888886818110610fd057634e487b7160e01b600052603260045260246000fd5b9050602002810190610fe29190615a78565b810190610fef9190614d5d565b9250925092508261100184848461216a565b9097509550611cfe92505050565b600d81601581111561103157634e487b7160e01b600052602160045260246000fd5b14156110af576000806000806000806000808d8d8b81811061106357634e487b7160e01b600052603260045260246000fd5b90506020028101906110759190615a78565b8101906110829190614f76565b975097509750975097509750975097506110a28888888888888888612239565b5050505050505050611cfe565b600f8160158111156110d157634e487b7160e01b600052602160045260246000fd5b141561112a5760008686848181106110f957634e487b7160e01b600052603260045260246000fd5b905060200281019061110b9190615a78565b8101906111189190614e48565b9050611123816122d6565b5050611cfe565b600581601581111561114c57634e487b7160e01b600052602160045260246000fd5b14156111e15760008060008089898781811061117857634e487b7160e01b600052603260045260246000fd5b905060200281019061118a9190615a78565b8101906111979190614bd9565b9350935093509350836001600160a01b031916886001600160a01b031916146111ca57836111c485612029565b90985096505b6111d78488858585612395565b5050505050611cfe565b600681601581111561120357634e487b7160e01b600052602160045260246000fd5b141561129f5760008060008060008a8a8881811061123157634e487b7160e01b600052603260045260246000fd5b90506020028101906112439190615a78565b8101906112509190614c85565b94509450945094509450846001600160a01b031916896001600160a01b03191614611285578461127f86612029565b90995097505b61129385898686868661273f565b50505050505050611cfe565b60078160158111156112c157634e487b7160e01b600052602160045260246000fd5b1415611359576000806000808989878181106112ed57634e487b7160e01b600052603260045260246000fd5b90506020028101906112ff9190615a78565b81019061130c9190614da5565b9350935093509350836001600160a01b031916886001600160a01b0319161461133f578361133985612029565b90985096505b61134c84888585856128dd565b509650611cfe9350505050565b600e81601581111561137b57634e487b7160e01b600052602160045260246000fd5b14156113ff5760008060008060008060008060008e8e8c8181106113af57634e487b7160e01b600052603260045260246000fd5b90506020028101906113c19190615a78565b8101906113ce9190614ee3565b9850985098509850985098509850985098506113f1898989898989898989612db5565b505050505050505050611cfe565b601181601581111561142157634e487b7160e01b600052602160045260246000fd5b141561149257600080600088888681811061144c57634e487b7160e01b600052603260045260246000fd5b905060200281019061145e9190615a78565b81019061146b9190614ff6565b925092509250600061147c84612e55565b9050611489818484612ead565b50505050611cfe565b60128160158111156114b457634e487b7160e01b600052602160045260246000fd5b1415611517576000808787858181106114dd57634e487b7160e01b600052603260045260246000fd5b90506020028101906114ef9190615a78565b8101906114fc9190615035565b91509150600061150b83612e55565b90506111d78183612fca565b601081601581111561153957634e487b7160e01b600052602160045260246000fd5b141561158b57600086868481811061156157634e487b7160e01b600052603260045260246000fd5b90506020028101906115739190615a78565b8101906115809190614991565b90506111238161305c565b60088160158111156115ad57634e487b7160e01b600052602160045260246000fd5b1415611638576000806000808989878181106115d957634e487b7160e01b600052603260045260246000fd5b90506020028101906115eb9190615a78565b8101906115f89190614bd9565b9350935093509350836001600160a01b031916886001600160a01b0319161461162b578361162585612029565b90985096505b6111d784888585856131c2565b600981601581111561165a57634e487b7160e01b600052602160045260246000fd5b14156116f05760008060008089898781811061168657634e487b7160e01b600052603260045260246000fd5b90506020028101906116989190615a78565b8101906116a59190614c2e565b9350935093509350836001600160a01b031916886001600160a01b031916146116d857836116d285612029565b90985096505b6116e584888585856134eb565b505050505050611cfe565b600a81601581111561171257634e487b7160e01b600052602160045260246000fd5b141561179d5760008060008089898781811061173e57634e487b7160e01b600052603260045260246000fd5b90506020028101906117509190615a78565b81019061175d9190614c2e565b9350935093509350836001600160a01b031916886001600160a01b03191614611790578361178a85612029565b90985096505b6116e584888585856135eb565b600b8160158111156117bf57634e487b7160e01b600052602160045260246000fd5b14156118435760008686848181106117e757634e487b7160e01b600052603260045260246000fd5b90506020028101906117f99190615a78565b8101906118069190614b94565b905073ffffffffffffffffffffffffffffffffffffffff1985811690821614611839578061183382612029565b90955093505b611123818561383a565b600c81601581111561186557634e487b7160e01b600052602160045260246000fd5b14156118c057600080600088888681811061189057634e487b7160e01b600052603260045260246000fd5b90506020028101906118a29190615a78565b8101906118af9190614ea4565b925092509250611489838383613b02565b60138160158111156118e257634e487b7160e01b600052602160045260246000fd5b141561194e5760008087878581811061190b57634e487b7160e01b600052603260045260246000fd5b905060200281019061191d9190615a78565b81019061192a919061506f565b91509150600061193983611e15565b5190506119468183613bc5565b505050611cfe565b601481601581111561197057634e487b7160e01b600052602160045260246000fd5b14156119d957600080600088888681811061199b57634e487b7160e01b600052603260045260246000fd5b90506020028101906119ad9190615a78565b8101906119ba9190614e64565b92509250925060006119cb84611e15565b5190506111d7818484613bda565b60048160158111156119fb57634e487b7160e01b600052602160045260246000fd5b1415611a5a57600080600080898987818110611a2757634e487b7160e01b600052603260045260246000fd5b9050602002810190611a399190615a78565b810190611a469190614d31565b93509350935093506116e584848484613cfc565b6001816015811115611a7c57634e487b7160e01b600052602160045260246000fd5b1415611b0c576000806000888886818110611aa757634e487b7160e01b600052603260045260246000fd5b9050602002810190611ab99190615a78565b810190611ac69190614d5d565b925092509250826001600160a01b031916876001600160a01b03191614611af75782611af184612029565b90975095505b611b02838383613fc2565b9550505050611cfe565b6002816015811115611b2e57634e487b7160e01b600052602160045260246000fd5b1415611bc757600080878785818110611b5757634e487b7160e01b600052603260045260246000fd5b9050602002810190611b699190615a78565b810190611b769190614bae565b91509150816001600160a01b031916866001600160a01b03191614611ba55781611b9f83612029565b90965094505b611baf8282614033565b9450611bb96147c3565b600096509450611cfe915050565b6003816015811115611be957634e487b7160e01b600052602160045260246000fd5b1415611c81576000868684818110611c1157634e487b7160e01b600052603260045260246000fd5b9050602002810190611c239190615a78565b810190611c309190614b94565b905073ffffffffffffffffffffffffffffffffffffffff1985811690821614611c635780611c5d82612029565b90955093505b611c6c816140f4565b611c746147c3565b600095509350611cfe9050565b6015816015811115611ca357634e487b7160e01b600052602160045260246000fd5b1415611cfe57600080878785818110611ccc57634e487b7160e01b600052603260045260246000fd5b9050602002810190611cde9190615a78565b810190611ceb91906149c9565b91509150611cf9828261418e565b505050505b50611d0a600182615bd7565b9050610f42565b50505050505050565b81611d2761073782611efc565b611d435760405162461bcd60e51b81526004016104b2906157be565b610763838361421c565b60005b825181101561076357611d7f610737848381518110610b3657634e487b7160e01b600052603260045260246000fd5b611d9b5760405162461bcd60e51b81526004016104b2906157be565b611dcc838281518110611dbe57634e487b7160e01b600052603260045260246000fd5b60200260200101518361421c565b80611dd681615d48565b915050611d50565b6001600160e01b0319821660009081526004602090815260408083206001600160a01b038516845290915290205460ff1692915050565b611e1d6147c3565b6040517f55d03e340000000000000000000000000000000000000000000000000000000081526001600160a01b037f000000000000000000000000000000000000000000000000000000000000000016906355d03e3490611e829085906004016155ee565b60606040518083038186803b158015611e9a57600080fd5b505afa158015611eae573d6000803e3d6000fd5b505050506040513d601f19601f82011682018060405250810190611ed29190615172565b80519091506001600160a01b03166109f55760405162461bcd60e51b81526004016104b29061582c565b6001600160e01b03191660009081526004602052604090206001015460e01b90565b611f288282611dde565b156109de576001600160e01b0319821660008181526004602090815260408083206001600160a01b0386168085529252808320805460ff1916905551339391927f4ddc7b757e7bdd7254a9cd39452d307a52761bc824625c6a33104a075d8099e691a45050565b6001600160e01b03198116611fa383611efc565b6001600160e01b031916146109de576001600160e01b031982811660008181526004602052604080822060010180547fffffffffffffffffffffffffffffffffffffffffffffffffffffffff000000001660e087901c17905551928416927fd348e2220a50b4500ec353f6e802d2f14dd1b5d6786148fd1bbcc570bf92d4739190a35050565b6120316147c3565b6040517f1e81f8290000000000000000000000000000000000000000000000000000000081526001600160a01b037f00000000000000000000000000000000000000000000000000000000000000001690631e81f82990612096908590600401615423565b60606040518083038186803b1580156120ae57600080fd5b505afa1580156120c2573d6000803e3d6000fd5b505050506040513d601f19601f820116820180604052508101906120e691906151cf565b80519091506001600160a01b031633146109f55760405162461bcd60e51b81526004016104b290615863565b7fffffffffffff000000000000000000000000000000000000000000000000000081166000908152600160205260409020546001600160a01b0316806109f55760405162461bcd60e51b81526004016104b290615750565b6121726147c3565b6040517f272c0a6e0000000000000000000000000000000000000000000000000000000081526001600160a01b037f0000000000000000000000000000000000000000000000000000000000000000169063272c0a6e906121dd90339088908890889060040161533f565b606060405180830381600087803b1580156121f757600080fd5b505af115801561220b573d6000803e3d6000fd5b505050506040513d601f19601f8201168201806040525081019061222f91906151cf565b90505b9392505050565b6000612245898961428f565b6040517fd505accf0000000000000000000000000000000000000000000000000000000081529091506001600160a01b0382169063d505accf906122999033908b908b908b908b908b908b906004016152fe565b600060405180830381600087803b1580156122b357600080fd5b505af11580156122c7573d6000803e3d6000fd5b50505050505050505050505050565b4760006122e283612112565b90507f00000000000000000000000000000000000000000000000000000000000000006001600160a01b031663d0e30db0836040518263ffffffff1660e01b81526004016000604051808303818588803b15801561233f57600080fd5b505af1158015612353573d6000803e3d6000fd5b5061238f9350506001600160a01b037f000000000000000000000000000000000000000000000000000000000000000016915083905084614382565b50919050565b61239d6147e3565b6123a56147c3565b82600f0b6000146123c0576123bd8660200151611e15565b90505b60008084600f0b131561242a576124276124106123eb60005487600f0b61447690919063ffffffff16565b42856040015163ffffffff166124019190615d05565b61240b9190615c27565b614494565b6fffffffffffffffffffffffffffffffff166144ca565b90505b6001600160a01b037f00000000000000000000000000000000000000000000000000000000000000001663ae8ad49289876124658589615b34565b6040518463ffffffff1660e01b815260040161248393929190615565565b6040805180830381600087803b15801561249c57600080fd5b505af11580156124b0573d6000803e3d6000fd5b505050506040513d601f19601f820116820180604052508101906124d4919061512c565b925084600f0b6000146126325760006124f08860400151612112565b9050600086600f0b131561259a5787516040517fceae3abd0000000000000000000000000000000000000000000000000000000081526001600160a01b0383169163ceae3abd9161254691908a906004016153a1565b602060405180830381600087803b15801561256057600080fd5b505af1158015612574573d6000803e3d6000fd5b505050506040513d601f19601f820116820180604052508101906125989190615215565b505b600086600f0b1215612630576001600160a01b0381166312e5ff77886125bf89615d81565b6040518363ffffffff1660e01b81526004016125dc9291906153a1565b602060405180830381600087803b1580156125f657600080fd5b505af115801561260a573d6000803e3d6000fd5b505050506040513d601f19601f8201168201806040525081019061262e9190615215565b505b505b83600f0b60001461273457600084600f0b13156126ca5781516040517f40c10f190000000000000000000000000000000000000000000000000000000081526001600160a01b03909116906340c10f199061269390899088906004016153a1565b600060405180830381600087803b1580156126ad57600080fd5b505af11580156126c1573d6000803e3d6000fd5b50505050612734565b81516001600160a01b0316639dc29fac336126e487615d81565b6040518363ffffffff1660e01b81526004016127019291906153a1565b600060405180830381600087803b15801561271b57600080fd5b505af115801561272f573d6000803e3d6000fd5b505050505b505095945050505050565b6127476147e3565b6000806127578860200151612e55565b6040517fb0f289210000000000000000000000000000000000000000000000000000000081529091506001600160a01b0382169063b0f289219061279f908890600401615a52565b60206040518083038186803b1580156127b757600080fd5b505afa1580156127cb573d6000803e3d6000fd5b505050506040513d601f19601f820116820180604052508101906127ef9190615215565b91506128328989836128128a6fffffffffffffffffffffffffffffffff166144ca565b61282d876fffffffffffffffffffffffffffffffff166144ca565b612395565b6040517f9ebdc9b40000000000000000000000000000000000000000000000000000000081529093506001600160a01b03821690639ebdc9b49061287e908a90899089906004016153cc565b602060405180830381600087803b15801561289857600080fd5b505af11580156128ac573d6000803e3d6000fd5b505050506040513d601f19601f820116820180604052508101906128d09190615215565b5050965096945050505050565b6128e56147c3565b6128ed6147e3565b60006128fc8760200151611e15565b9050600061290987611e15565b905060007f00000000000000000000000000000000000000000000000000000000000000006001600160a01b0316637229280c8b6040518263ffffffff1660e01b81526004016129599190615423565b604080518083038186803b15801561297057600080fd5b505afa158015612984573d6000803e3d6000fd5b505050506040513d601f19601f820116820180604052508101906129a8919061512c565b90506000806129b68a612e55565b84516020870151919250906000906129cd90612112565b905060006129e48e6020015189886000015161450e565b9050826001600160a01b03166340c10f19858e60ff1684612a059190615bef565b6040518363ffffffff1660e01b8152600401612a229291906153a1565b600060405180830381600087803b158015612a3c57600080fd5b505af1158015612a50573d6000803e3d6000fd5b50505050836001600160a01b0316639ebdc9b483838e6040518463ffffffff1660e01b8152600401612a84939291906153cc565b602060405180830381600087803b158015612a9e57600080fd5b505af1158015612ab2573d6000803e3d6000fd5b505050506040513d601f19601f82011682018060405250810190612ad69190615215565b6040517fceae3abd0000000000000000000000000000000000000000000000000000000081529095506001600160a01b0383169063ceae3abd90612b2090859085906004016153a1565b602060405180830381600087803b158015612b3a57600080fd5b505af1158015612b4e573d6000803e3d6000fd5b505050506040513d601f19601f82011682018060405250810190612b729190615215565b506040517fd3d00f240000000000000000000000000000000000000000000000000000000081526001600160a01b0385169063d3d00f2490612bb890869060040161527d565b602060405180830381600087803b158015612bd257600080fd5b505af1158015612be6573d6000803e3d6000fd5b505050506040513d601f19601f82011682018060405250810190612c0a9190615215565b50826001600160a01b0316639dc29fac84878f60ff1685612c2b9190615bef565b612c359190615cd4565b6040518363ffffffff1660e01b8152600401612c529291906153a1565b600060405180830381600087803b158015612c6c57600080fd5b505af1158015612c80573d6000803e3d6000fd5b5050505050505050612cb26123eb600054836fffffffffffffffffffffffffffffffff1661447690919063ffffffff16565b612cbc9082615ba3565b90507f00000000000000000000000000000000000000000000000000000000000000006001600160a01b0316636295afac8c8b612d0e86600001516fffffffffffffffffffffffffffffffff166144ca565b612d29866fffffffffffffffffffffffffffffffff166144ca565b612d339190615c64565b6040518463ffffffff1660e01b8152600401612d5193929190615511565b60a060405180830381600087803b158015612d6b57600080fd5b505af1158015612d7f573d6000803e3d6000fd5b505050506040513d601f19601f82011682018060405250810190612da391906151ea565b95509550505050509550959350505050565b6000612dc18a8a61428f565b6040517f8fcbaf0c0000000000000000000000000000000000000000000000000000000081529091506001600160a01b03821690638fcbaf0c90612e179033908c908c908c908c908c908c908c906004016152b5565b600060405180830381600087803b158015612e3157600080fd5b505af1158015612e45573d6000803e3d6000fd5b5050505050505050505050505050565b7fffffffffffff000000000000000000000000000000000000000000000000000081166000908152600260205260409020546001600160a01b0316806109f55760405162461bcd60e51b81526004016104b290615a1b565b600082612f2a57836001600160a01b031663dc3bfba96040518163ffffffff1660e01b815260040160206040518083038186803b158015612eed57600080fd5b505afa158015612f01573d6000803e3d6000fd5b505050506040513d601f19601f82011682018060405250810190612f2591906149ad565b612f9b565b836001600160a01b0316635001f3b56040518163ffffffff1660e01b815260040160206040518083038186803b158015612f6357600080fd5b505afa158015612f77573d6000803e3d6000fd5b505050506040513d601f19601f82011682018060405250810190612f9b91906149ad565b9050612fc46001600160a01b03821633866fffffffffffffffffffffffffffffffff86166145f2565b50505050565b60006060836001600160a01b031683604051612fe69190615261565b6000604051808303816000865af19150503d8060008114613023576040519150601f19603f3d011682016040523d82523d6000602084013e613028565b606091505b509092509050816130555761303c816146e4565b60405162461bcd60e51b81526004016104b2919061561b565b9250929050565b6040517f70a082310000000000000000000000000000000000000000000000000000000081526000906001600160a01b037f000000000000000000000000000000000000000000000000000000000000000016906370a08231906130c490309060040161527d565b60206040518083038186803b1580156130dc57600080fd5b505afa1580156130f0573d6000803e3d6000fd5b505050506040513d601f19601f820116820180604052508101906131149190615249565b6040517f2e1a7d4d0000000000000000000000000000000000000000000000000000000081529091506001600160a01b037f00000000000000000000000000000000000000000000000000000000000000001690632e1a7d4d9061317c908490600401615a6f565b600060405180830381600087803b15801561319657600080fd5b505af11580156131aa573d6000803e3d6000fd5b506109f5925050506001600160a01b03831682614744565b6131ca6147e3565b600082600f0b126131ed5760405162461bcd60e51b81526004016104b2906157f5565b60006131fc8660200151611e15565b905060006132188760200151838661321390615d81565b61450e565b6040517fae8ad4920000000000000000000000000000000000000000000000000000000081529091506001600160a01b037f0000000000000000000000000000000000000000000000000000000000000000169063ae8ad49290613284908b9089908990600401615565565b6040805180830381600087803b15801561329d57600080fd5b505af11580156132b1573d6000803e3d6000fd5b505050506040513d601f19601f820116820180604052508101906132d5919061512c565b925084600f0b6000146134335760006132f18860400151612112565b9050600086600f0b131561339b5787516040517fceae3abd0000000000000000000000000000000000000000000000000000000081526001600160a01b0383169163ceae3abd9161334791908a906004016153a1565b602060405180830381600087803b15801561336157600080fd5b505af1158015613375573d6000803e3d6000fd5b505050506040513d601f19601f820116820180604052508101906133999190615215565b505b600086600f0b1215613431576001600160a01b0381166312e5ff77886133c089615d81565b6040518363ffffffff1660e01b81526004016133dd9291906153a1565b602060405180830381600087803b1580156133f757600080fd5b505af115801561340b573d6000803e3d6000fd5b505050506040513d601f19601f8201168201806040525081019061342f9190615215565b505b505b60006134428360200151612112565b6040517fceae3abd0000000000000000000000000000000000000000000000000000000081529091506001600160a01b0382169063ceae3abd9061348c90339086906004016153a1565b602060405180830381600087803b1580156134a657600080fd5b505af11580156134ba573d6000803e3d6000fd5b505050506040513d601f19601f820116820180604052508101906134de9190615215565b5050505095945050505050565b6134f36147e3565b6000806135038760200151611e15565b905060006135148860200151612e55565b82516040517fbcc1694f0000000000000000000000000000000000000000000000000000000081529192506001600160a01b0383169163bcc1694f9161355e9189906004016153a1565b602060405180830381600087803b15801561357857600080fd5b505af115801561358c573d6000803e3d6000fd5b505050506040513d601f19601f820116820180604052508101906135b09190615215565b92506135dd898989896135d4886fffffffffffffffffffffffffffffffff166144ca565b61282d90615d81565b935050509550959350505050565b6135f36147e3565b6000806136038760200151611e15565b905060006136148860200151612e55565b6040517f7229280c0000000000000000000000000000000000000000000000000000000081529091506001600160a01b037f00000000000000000000000000000000000000000000000000000000000000001690637229280c9061367c908c90600401615423565b604080518083038186803b15801561369357600080fd5b505afa1580156136a7573d6000803e3d6000fd5b505050506040513d601f19601f820116820180604052508101906136cb919061512c565b825181516040517ffe2846b10000000000000000000000000000000000000000000000000000000081529296506001600160a01b0384169263fe2846b1926137199290918a906004016153cc565b602060405180830381600087803b15801561373357600080fd5b505af1158015613747573d6000803e3d6000fd5b505050506040513d601f19601f8201168201806040525081019061376b9190615215565b9250613793898989896135d489600001516fffffffffffffffffffffffffffffffff166144ca565b6040517ffa2968790000000000000000000000000000000000000000000000000000000081529094506001600160a01b0382169063fa296879906137db90339060040161527d565b602060405180830381600087803b1580156137f557600080fd5b505af1158015613809573d6000803e3d6000fd5b505050506040513d601f19601f8201168201806040525081019061382d9190615215565b5050509550959350505050565b6138426147e3565b60006138518360200151611e15565b6040517f7229280c0000000000000000000000000000000000000000000000000000000081529091506001600160a01b037f00000000000000000000000000000000000000000000000000000000000000001690637229280c906138b9908790600401615423565b604080518083038186803b1580156138d057600080fd5b505afa1580156138e4573d6000803e3d6000fd5b505050506040513d601f19601f82011682018060405250810190613908919061512c565b9150600081600001516001600160a01b03166370a08231306040518263ffffffff1660e01b815260040161393c919061527d565b60206040518083038186803b15801561395457600080fd5b505afa158015613968573d6000803e3d6000fd5b505050506040513d601f19601f8201168201806040525081019061398c9190615249565b83519091506fffffffffffffffffffffffffffffffff168111156139c35782516fffffffffffffffffffffffffffffffff166139c5565b805b90507f00000000000000000000000000000000000000000000000000000000000000006001600160a01b031663ae8ad492866000613a0561241086614494565b613a0e90615d81565b6040518463ffffffff1660e01b8152600401613a2c93929190615565565b6040805180830381600087803b158015613a4557600080fd5b505af1158015613a59573d6000803e3d6000fd5b505050506040513d601f19601f82011682018060405250810190613a7d919061512c565b82516040517f9dc29fac0000000000000000000000000000000000000000000000000000000081529194506001600160a01b031690639dc29fac90613ac890309085906004016153ff565b600060405180830381600087803b158015613ae257600080fd5b505af1158015613af6573d6000803e3d6000fd5b50505050505092915050565b600080613b0f858561428f565b6040517f70a082310000000000000000000000000000000000000000000000000000000081529091506001600160a01b038216906370a0823190613b5790309060040161527d565b60206040518083038186803b158015613b6f57600080fd5b505afa158015613b83573d6000803e3d6000fd5b505050506040513d601f19601f82011682018060405250810190613ba79190615249565b9150613bbd6001600160a01b0382168484614382565b509392505050565b6109de6001600160a01b0383163384846145f2565b60006001600160a01b038416631e9a69508484613c8b576040517f70a082310000000000000000000000000000000000000000000000000000000081526001600160a01b038816906370a0823190613c3690309060040161527d565b60206040518083038186803b158015613c4e57600080fd5b505afa158015613c62573d6000803e3d6000fd5b505050506040513d601f19601f82011682018060405250810190613c869190615249565b613c8d565b845b6040518363ffffffff1660e01b8152600401613caa9291906153ff565b602060405180830381600087803b158015613cc457600080fd5b505af1158015613cd8573d6000803e3d6000fd5b505050506040513d601f19601f8201168201806040525081019061222f9190615249565b613d046147e3565b613d0c6147e3565b6fffffffffffffffffffffffffffffffff841615613e02576040517f1e81f82900000000000000000000000000000000000000000000000000000000815233907f00000000000000000000000000000000000000000000000000000000000000006001600160a01b031690631e81f82990613d8b908a90600401615423565b60606040518083038186803b158015613da357600080fd5b505afa158015613db7573d6000803e3d6000fd5b505050506040513d601f19601f82011682018060405250810190613ddb91906151cf565b516001600160a01b031614613e025760405162461bcd60e51b81526004016104b2906156e2565b6fffffffffffffffffffffffffffffffff831615613ef8576040517f1e81f82900000000000000000000000000000000000000000000000000000000815233907f00000000000000000000000000000000000000000000000000000000000000006001600160a01b031690631e81f82990613e81908990600401615423565b60606040518083038186803b158015613e9957600080fd5b505afa158015613ead573d6000803e3d6000fd5b505050506040513d601f19601f82011682018060405250810190613ed191906151cf565b516001600160a01b031614613ef85760405162461bcd60e51b81526004016104b290615908565b6040517f2458028a0000000000000000000000000000000000000000000000000000000081526001600160a01b037f00000000000000000000000000000000000000000000000000000000000000001690632458028a90613f63908990899089908990600401615475565b608060405180830381600087803b158015613f7d57600080fd5b505af1158015613f91573d6000803e3d6000fd5b505050506040513d601f19601f82011682018060405250810190613fb59190615147565b9150915094509492505050565b613fca6147c3565b6040517fb9af39200000000000000000000000000000000000000000000000000000000081526001600160a01b037f0000000000000000000000000000000000000000000000000000000000000000169063b9af3920906121dd908790879087906004016154c0565b61403b6147c3565b6040517f798a828b0000000000000000000000000000000000000000000000000000000081526001600160a01b037f0000000000000000000000000000000000000000000000000000000000000000169063798a828b906140a29086908690600401615445565b606060405180830381600087803b1580156140bc57600080fd5b505af11580156140d0573d6000803e3d6000fd5b505050506040513d601f19601f8201168201806040525081019061047791906151cf565b6040517f782006b60000000000000000000000000000000000000000000000000000000081526001600160a01b037f0000000000000000000000000000000000000000000000000000000000000000169063782006b690614159908490600401615423565b600060405180830381600087803b15801561417357600080fd5b505af1158015614187573d6000803e3d6000fd5b5050505050565b6001600160a01b03821660009081526003602052604081205460609060ff166141c95760405162461bcd60e51b81526004016104b2906159e4565b836001600160a01b0316836040516141e19190615261565b600060405180830381855af49150503d8060008114613023576040519150601f19603f3d011682016040523d82523d6000602084013e613028565b6142268282611dde565b6109de576001600160e01b0319821660008181526004602090815260408083206001600160a01b0386168085529252808320805460ff1916600117905551339391927fe6231789d19137da31d0550f4ba9ee379020a8cfb64cb79bf1790c996d2e616591a45050565b6000816142a55761429f83611e15565b5161435a565b6040517f19be8d120000000000000000000000000000000000000000000000000000000081526001600160a01b037f000000000000000000000000000000000000000000000000000000000000000016906319be8d129061430a9086906004016155ee565b60206040518083038186803b15801561432257600080fd5b505afa158015614336573d6000803e3d6000fd5b505050506040513d601f19601f8201168201806040525081019061435a91906149ad565b90506001600160a01b03811661047a5760405162461bcd60e51b81526004016104b290615787565b600080846001600160a01b031663a9059cbb60e01b85856040516024016143aa9291906153ff565b60408051601f198184030181529181526020820180517bffffffffffffffffffffffffffffffffffffffffffffffffffffffff166001600160e01b03199094169390931790925290516143fd9190615261565b6000604051808303816000865af19150503d806000811461443a576040519150601f19603f3d011682016040523d82523d6000602084013e61443f565b606091505b50915091508180156144695750805115806144695750808060200190518101906144699190614b78565b6141875761303c816146e4565b60006144828284615c27565b670de0b6b3a764000090049392505050565b60006fffffffffffffffffffffffffffffffff8211156144c65760405162461bcd60e51b81526004016104b2906156ab565b5090565b60006f7fffffffffffffffffffffffffffffff6fffffffffffffffffffffffffffffffff831611156144c65760405162461bcd60e51b81526004016104b2906156ab565b6000826040015163ffffffff164263ffffffff16106145eb576145e461240b7f00000000000000000000000000000000000000000000000000000000000000006001600160a01b03166397389c3a876040518263ffffffff1660e01b815260040161457991906155ee565b602060405180830381600087803b15801561459357600080fd5b505af11580156145a7573d6000803e3d6000fd5b505050506040513d601f19601f820116820180604052508101906145cb9190615249565b6fffffffffffffffffffffffffffffffff851690614476565b9050612232565b5092915050565b600080856001600160a01b03166323b872dd60e01b86868660405160240161461c93929190615291565b60408051601f198184030181529181526020820180517bffffffffffffffffffffffffffffffffffffffffffffffffffffffff166001600160e01b031990941693909317909252905161466f9190615261565b6000604051808303816000865af19150503d80600081146146ac576040519150601f19603f3d011682016040523d82523d6000602084013e6146b1565b606091505b50915091508180156146db5750805115806146db5750808060200190518101906146db9190614b78565b610ef35761303c815b606060448251101561472a575060408051808201909152601d81527f5472616e73616374696f6e2072657665727465642073696c656e746c7900000060208201526109f5565b600482019150818060200190518101906109f291906150b9565b60408051600080825260208201928390529182916001600160a01b03861691859161476e91615261565b60006040518083038185875af1925050503d80600081146147ab576040519150601f19603f3d011682016040523d82523d6000602084013e6147b0565b606091505b509150915081612fc45761303c816146e4565b604080516060810182526000808252602082018190529181019190915290565b604080518082019091526000808252602082015290565b80356109f581615dea565b60008083601f840112614816578182fd5b50813567ffffffffffffffff81111561482d578182fd5b602083019150836020808302850101111561305557600080fd5b803573ffffffffffffffffffffffffffffffffffffffff19811681146109f557600080fd5b80356001600160e01b0319811681146109f557600080fd5b600082601f830112614894578081fd5b81356148a76148a282615b0c565b615adb565b8181528460208386010111156148bb578283fd5b816020850160208301379081016020019190915292915050565b8035600f81900b81146109f557600080fd5b6000604082840312156148f8578081fd5b6149026040615adb565b9050815161490f81615e3e565b8152602082015161491f81615e3e565b602082015292915050565b60006060828403121561493b578081fd5b6149456060615adb565b9050815161495281615dea565b8152602082015161496281615e10565b6020820152604082015161497581615e10565b604082015292915050565b803560ff811681146109f557600080fd5b6000602082840312156149a2578081fd5b813561223281615dea565b6000602082840312156149be578081fd5b815161223281615dea565b600080604083850312156149db578081fd5b82356149e681615dea565b9150602083013567ffffffffffffffff811115614a01578182fd5b614a0d85828601614884565b9150509250929050565b60008060408385031215614a29578182fd5b8235614a3481615dea565b91506020830135614a4481615e02565b809150509250929050565b60008060408385031215614a61578182fd5b823567ffffffffffffffff80821115614a78578384fd5b818501915085601f830112614a8b578384fd5b8135602082821115614a9f57614a9f615dd4565b8082029250614aaf818401615adb565b8281528181019085830185870184018b1015614ac9578889fd5b8896505b84871015614af257614ade8161486c565b835260019690960195918301918301614acd565b509650614b0290508782016147fa565b9450505050509250929050565b60008060008060408587031215614b24578182fd5b843567ffffffffffffffff80821115614b3b578384fd5b614b4788838901614805565b90965094506020870135915080821115614b5f578384fd5b50614b6c87828801614805565b95989497509550505050565b600060208284031215614b89578081fd5b815161223281615e02565b600060208284031215614ba5578081fd5b61047782614847565b60008060408385031215614bc0578182fd5b614bc983614847565b91506020830135614a4481615dea565b60008060008060808587031215614bee578182fd5b614bf785614847565b93506020850135614c0781615dea565b9250614c15604086016148d5565b9150614c23606086016148d5565b905092959194509250565b60008060008060808587031215614c43578182fd5b614c4c85614847565b93506020850135614c5c81615dea565b9250614c6a604086016148d5565b91506060850135614c7a81615e3e565b939692955090935050565b600080600080600060a08688031215614c9c578283fd5b614ca586614847565b94506020860135614cb581615dea565b93506040860135614cc581615e3e565b92506060860135614cd581615e3e565b91506080860135614ce581615e3e565b809150509295509295909350565b60008060008060808587031215614d08578182fd5b614d1185614847565b93506020850135614d2181615dea565b92506040850135614c6a81615e3e565b60008060008060808587031215614d46578182fd5b614d4f85614847565b9350614d2160208601614847565b600080600060608486031215614d71578081fd5b614d7a84614847565b92506020840135614d8a81615e10565b91506040840135614d9a81615e10565b809150509250925092565b60008060008060808587031215614dba578182fd5b614dc385614847565b93506020850135614dd381615e10565b9250614c6a60408601614980565b600060208284031215614df2578081fd5b6104778261486c565b60008060408385031215614e0d578182fd5b614bc98361486c565b60008060408385031215614e28578182fd5b614e318361486c565b9150614e3f6020840161486c565b90509250929050565b600060208284031215614e59578081fd5b813561223281615e10565b600080600060608486031215614e78578081fd5b8335614e8381615e10565b92506020840135614e9381615dea565b929592945050506040919091013590565b600080600060608486031215614eb8578081fd5b8335614ec381615e10565b92506020840135614ed381615e02565b91506040840135614d9a81615dea565b60008060008060008060008060006101208a8c031215614f01578687fd5b8935614f0c81615e10565b985060208a0135614f1c81615e02565b975060408a0135614f2c81615dea565b965060608a0135955060808a0135945060a08a0135614f4a81615e02565b9350614f5860c08b01614980565b925060e08a013591506101008a013590509295985092959850929598565b600080600080600080600080610100898b031215614f92578182fd5b8835614f9d81615e10565b97506020890135614fad81615e02565b96506040890135614fbd81615dea565b95506060890135945060808901359350614fd960a08a01614980565b925060c0890135915060e089013590509295985092959890939650565b60008060006060848603121561500a578081fd5b833561501581615e10565b9250602084013561502581615e02565b91506040840135614d9a81615e3e565b60008060408385031215615047578182fd5b82356149e681615e10565b60008060408385031215615064578182fd5b8235614bc981615e10565b60008060408385031215615081578182fd5b823561508c81615e10565b946020939093013593505050565b6000602082840312156150ab578081fd5b813560168110612232578182fd5b6000602082840312156150ca578081fd5b815167ffffffffffffffff8111156150e0578182fd5b8201601f810184136150f0578182fd5b80516150fe6148a282615b0c565b818152856020838501011115615112578384fd5b615123826020830160208601615d1c565b95945050505050565b60006040828403121561513d578081fd5b61047783836148e7565b60008060808385031215615159578182fd5b61516384846148e7565b9150614e3f84604085016148e7565b600060608284031215615183578081fd5b61518d6060615adb565b825161519881615dea565b815260208301516151a881615e10565b6020820152604083015163ffffffff811681146151c3578283fd5b60408201529392505050565b6000606082840312156151e0578081fd5b610477838361492a565b60008060a083850312156151fc578182fd5b615206848461492a565b9150614e3f84606085016148e7565b600060208284031215615226578081fd5b815161223281615e3e565b600060208284031215615242578081fd5b5035919050565b60006020828403121561525a578081fd5b5051919050565b60008251615273818460208701615d1c565b9190910192915050565b6001600160a01b0391909116815260200190565b6001600160a01b039384168152919092166020820152604081019190915260600190565b6001600160a01b039889168152969097166020870152604086019490945260608501929092521515608084015260ff1660a083015260c082015260e08101919091526101000190565b6001600160a01b0397881681529590961660208601526040850193909352606084019190915260ff16608083015260a082015260c081019190915260e00190565b6001600160a01b0394909416845273ffffffffffffffffffffffffffffffffffffffff199290921660208401527fffffffffffff0000000000000000000000000000000000000000000000000000908116604084015216606082015260800190565b6001600160a01b039290921682526fffffffffffffffffffffffffffffffff16602082015260400190565b6001600160a01b039390931683526fffffffffffffffffffffffffffffffff918216602084015216604082015260600190565b6001600160a01b03929092168252602082015260400190565b901515815260200190565b73ffffffffffffffffffffffffffffffffffffffff1991909116815260200190565b73ffffffffffffffffffffffffffffffffffffffff199290921682526001600160a01b0316602082015260400190565b73ffffffffffffffffffffffffffffffffffffffff1994851681529290931660208301526fffffffffffffffffffffffffffffffff9081166040830152909116606082015260800190565b73ffffffffffffffffffffffffffffffffffffffff199390931683527fffffffffffff0000000000000000000000000000000000000000000000000000918216602084015216604082015260600190565b73ffffffffffffffffffffffffffffffffffffffff199390931683527fffffffffffff0000000000000000000000000000000000000000000000000000919091166020830152600f0b604082015260600190565b73ffffffffffffffffffffffffffffffffffffffff19939093168352600f91820b6020840152900b604082015260600190565b73ffffffffffffffffffffffffffffffffffffffff199390931683526fffffffffffffffffffffffffffffffff918216602084015216604082015260600190565b6001600160e01b031991909116815260200190565b7fffffffffffff000000000000000000000000000000000000000000000000000091909116815260200190565b600060208252825180602084015261563a816040850160208701615d1c565b601f01601f19169190910160400192915050565b60208082526022908201527f4d69736d61746368656420706f6f6c206679546f6b656e20616e64207365726960408201527f6573000000000000000000000000000000000000000000000000000000000000606082015260800190565b6020808252600d908201527f43617374206f766572666c6f7700000000000000000000000000000000000000604082015260600190565b60208082526017908201527f4f6e6c79206f726967696e207661756c74206f776e6572000000000000000000604082015260600190565b60208082526019908201527f4d69736d617463686564206f7065726174696f6e206461746100000000000000604082015260600190565b6020808252600e908201527f4a6f696e206e6f7420666f756e64000000000000000000000000000000000000604082015260600190565b6020808252600f908201527f546f6b656e206e6f7420666f756e640000000000000000000000000000000000604082015260600190565b6020808252600a908201527f4f6e6c792061646d696e00000000000000000000000000000000000000000000604082015260600190565b6020808252600f908201527f4f6e6c7920726570617920646562740000000000000000000000000000000000604082015260600190565b60208082526010908201527f536572696573206e6f7420666f756e6400000000000000000000000000000000604082015260600190565b60208082526010908201527f4f6e6c79207661756c74206f776e657200000000000000000000000000000000604082015260600190565b6020808252600f908201527f4173736574206e6f7420666f756e640000000000000000000000000000000000604082015260600190565b60208082526019908201527f4d69736d61746368656420617373657420616e64206a6f696e00000000000000604082015260600190565b6020808252601c908201527f4f6e6c792064657374696e6174696f6e207661756c74206f776e657200000000604082015260600190565b60208082526016908201527f52656e6f756e6365206f6e6c7920666f722073656c6600000000000000000000604082015260600190565b6020808252601f908201527f4d69736d61746368656420706f6f6c206261736520616e642073657269657300604082015260600190565b6020808252600d908201527f4163636573732064656e69656400000000000000000000000000000000000000604082015260600190565b60208082526013908201527f556e72656769737465726564206d6f64756c6500000000000000000000000000604082015260600190565b6020808252600e908201527f506f6f6c206e6f7420666f756e64000000000000000000000000000000000000604082015260600190565b6fffffffffffffffffffffffffffffffff91909116815260200190565b90815260200190565b60008083357fffffffffffffffffffffffffffffffffffffffffffffffffffffffffffffffe1843603018112615aac578283fd5b83018035915067ffffffffffffffff821115615ac6578283fd5b60200191503681900382131561305557600080fd5b604051601f8201601f1916810167ffffffffffffffff81118282101715615b0457615b04615dd4565b604052919050565b600067ffffffffffffffff821115615b2657615b26615dd4565b50601f01601f191660200190565b600081600f0b83600f0b828212826f7fffffffffffffffffffffffffffffff03821381151615615b6657615b66615dbe565b827fffffffffffffffffffffffffffffffff80000000000000000000000000000000038212811615615b9a57615b9a615dbe565b50019392505050565b60006fffffffffffffffffffffffffffffffff808316818516808303821115615bce57615bce615dbe565b01949350505050565b60008219821115615bea57615bea615dbe565b500190565b60006fffffffffffffffffffffffffffffffff80831681851681830481118215151615615c1e57615c1e615dbe565b02949350505050565b6000817fffffffffffffffffffffffffffffffffffffffffffffffffffffffffffffffff0483118215151615615c5f57615c5f615dbe565b500290565b600081600f0b83600f0b828112817fffffffffffffffffffffffffffffffff8000000000000000000000000000000001831281151615615ca657615ca6615dbe565b816f7fffffffffffffffffffffffffffffff018313811615615cca57615cca615dbe565b5090039392505050565b60006fffffffffffffffffffffffffffffffff83811690831681811015615cfd57615cfd615dbe565b039392505050565b600082821015615d1757615d17615dbe565b500390565b60005b83811015615d37578181015183820152602001615d1f565b83811115612fc45750506000910152565b60007fffffffffffffffffffffffffffffffffffffffffffffffffffffffffffffffff821415615d7a57615d7a615dbe565b5060010190565b600081600f0b7fffffffffffffffffffffffffffffffff80000000000000000000000000000000811415615db757615db7615dbe565b9003919050565b634e487b7160e01b600052601160045260246000fd5b634e487b7160e01b600052604160045260246000fd5b6001600160a01b0381168114615dff57600080fd5b50565b8015158114615dff57600080fd5b7fffffffffffff000000000000000000000000000000000000000000000000000081168114615dff57600080fd5b6fffffffffffffffffffffffffffffffff81168114615dff57600080fdfea26469706673582212205e676b12aea6a84153bd7e4e4c98e05d6b751b4612412d2f9ecc3ffae4f9811964736f6c63430008010033",
  "linkReferences": {},
  "deployedLinkReferences": {}
}