{
  "_format": "hh-sol-artifact-1",
  "contractName": "LpToken",
  "sourceName": "contracts/LpToken.sol",
  "abi": [
    {
      "inputs": [],
      "stateMutability": "nonpayable",
      "type": "constructor"
    },
    {
      "anonymous": false,
      "inputs": [
        {
          "indexed": true,
          "internalType": "address",
          "name": "owner",
          "type": "address"
        },
        {
          "indexed": true,
          "internalType": "address",
          "name": "spender",
          "type": "address"
        },
        {
          "indexed": false,
          "internalType": "uint256",
          "name": "value",
          "type": "uint256"
        }
      ],
      "name": "Approval",
      "type": "event"
    },
    {
      "anonymous": false,
      "inputs": [
        {
          "indexed": true,
          "internalType": "address",
          "name": "from",
          "type": "address"
        },
        {
          "indexed": true,
          "internalType": "address",
          "name": "to",
          "type": "address"
        },
        {
          "indexed": false,
          "internalType": "uint256",
          "name": "value",
          "type": "uint256"
        }
      ],
      "name": "Transfer",
      "type": "event"
    },
    {
      "inputs": [
        {
          "internalType": "address",
          "name": "owner",
          "type": "address"
        },
        {
          "internalType": "address",
          "name": "spender",
          "type": "address"
        }
      ],
      "name": "allowance",
      "outputs": [
        {
          "internalType": "uint256",
          "name": "",
          "type": "uint256"
        }
      ],
      "stateMutability": "view",
      "type": "function"
    },
    {
      "inputs": [
        {
          "internalType": "address",
          "name": "spender",
          "type": "address"
        },
        {
          "internalType": "uint256",
          "name": "amount",
          "type": "uint256"
        }
      ],
      "name": "approve",
      "outputs": [
        {
          "internalType": "bool",
          "name": "",
          "type": "bool"
        }
      ],
      "stateMutability": "nonpayable",
      "type": "function"
    },
    {
      "inputs": [
        {
          "internalType": "address",
          "name": "account",
          "type": "address"
        }
      ],
      "name": "balanceOf",
      "outputs": [
        {
          "internalType": "uint256",
          "name": "",
          "type": "uint256"
        }
      ],
      "stateMutability": "view",
      "type": "function"
    },
    {
      "inputs": [
        {
          "internalType": "uint256",
          "name": "amount",
          "type": "uint256"
        }
      ],
      "name": "burn",
      "outputs": [],
      "stateMutability": "nonpayable",
      "type": "function"
    },
    {
      "inputs": [
        {
          "internalType": "address",
          "name": "owner",
          "type": "address"
        },
        {
          "internalType": "uint256",
          "name": "burnAmount",
          "type": "uint256"
        }
      ],
      "name": "burn",
      "outputs": [
        {
          "internalType": "uint256",
          "name": "",
          "type": "uint256"
        }
      ],
      "stateMutability": "nonpayable",
      "type": "function"
    },
    {
      "inputs": [],
      "name": "decimals",
      "outputs": [
        {
          "internalType": "uint8",
          "name": "",
          "type": "uint8"
        }
      ],
      "stateMutability": "view",
      "type": "function"
    },
    {
      "inputs": [
        {
          "internalType": "address",
          "name": "spender",
          "type": "address"
        },
        {
          "internalType": "uint256",
          "name": "subtractedValue",
          "type": "uint256"
        }
      ],
      "name": "decreaseAllowance",
      "outputs": [
        {
          "internalType": "bool",
          "name": "",
          "type": "bool"
        }
      ],
      "stateMutability": "nonpayable",
      "type": "function"
    },
    {
      "inputs": [
        {
          "internalType": "address",
          "name": "spender",
          "type": "address"
        },
        {
          "internalType": "uint256",
          "name": "addedValue",
          "type": "uint256"
        }
      ],
      "name": "increaseAllowance",
      "outputs": [
        {
          "internalType": "bool",
          "name": "",
          "type": "bool"
        }
      ],
      "stateMutability": "nonpayable",
      "type": "function"
    },
    {
      "inputs": [
        {
          "internalType": "string",
          "name": "name_",
          "type": "string"
        },
        {
          "internalType": "string",
          "name": "symbol_",
          "type": "string"
        },
        {
          "internalType": "uint8",
          "name": "decimals_",
          "type": "uint8"
        },
        {
          "internalType": "address",
          "name": "_minter",
          "type": "address"
        }
      ],
      "name": "initialize",
      "outputs": [
        {
          "internalType": "bool",
          "name": "",
          "type": "bool"
        }
      ],
      "stateMutability": "nonpayable",
      "type": "function"
    },
    {
      "inputs": [
        {
          "internalType": "address",
          "name": "account",
          "type": "address"
        },
        {
          "internalType": "uint256",
          "name": "amount",
          "type": "uint256"
        }
      ],
      "name": "mint",
      "outputs": [],
      "stateMutability": "nonpayable",
      "type": "function"
    },
    {
      "inputs": [],
      "name": "minter",
      "outputs": [
        {
          "internalType": "address",
          "name": "",
          "type": "address"
        }
      ],
      "stateMutability": "view",
      "type": "function"
    },
    {
      "inputs": [],
      "name": "name",
      "outputs": [
        {
          "internalType": "string",
          "name": "",
          "type": "string"
        }
      ],
      "stateMutability": "view",
      "type": "function"
    },
    {
      "inputs": [],
      "name": "symbol",
      "outputs": [
        {
          "internalType": "string",
          "name": "",
          "type": "string"
        }
      ],
      "stateMutability": "view",
      "type": "function"
    },
    {
      "inputs": [],
      "name": "totalSupply",
      "outputs": [
        {
          "internalType": "uint256",
          "name": "",
          "type": "uint256"
        }
      ],
      "stateMutability": "view",
      "type": "function"
    },
    {
      "inputs": [
        {
          "internalType": "address",
          "name": "to",
          "type": "address"
        },
        {
          "internalType": "uint256",
          "name": "amount",
          "type": "uint256"
        }
      ],
      "name": "transfer",
      "outputs": [
        {
          "internalType": "bool",
          "name": "",
          "type": "bool"
        }
      ],
      "stateMutability": "nonpayable",
      "type": "function"
    },
    {
      "inputs": [
        {
          "internalType": "address",
          "name": "from",
          "type": "address"
        },
        {
          "internalType": "address",
          "name": "to",
          "type": "address"
        },
        {
          "internalType": "uint256",
          "name": "amount",
          "type": "uint256"
        }
      ],
      "name": "transferFrom",
      "outputs": [
        {
          "internalType": "bool",
          "name": "",
          "type": "bool"
        }
      ],
      "stateMutability": "nonpayable",
      "type": "function"
    }
  ],
  "bytecode": "0x608060405234801561001057600080fd5b50611170806100206000396000f3fe608060405234801561001057600080fd5b50600436106101005760003560e01c806342966c6811610097578063a457c2d711610066578063a457c2d71461022f578063a9059cbb14610242578063dd62ed3e14610255578063de7ea79d1461028e57600080fd5b806342966c68146101d857806370a08231146101eb57806395d89b41146102145780639dc29fac1461021c57600080fd5b806323b872dd116100d357806323b872dd14610188578063313ce5671461019b57806339509351146101b057806340c10f19146101c357600080fd5b806306fdde03146101055780630754617214610123578063095ea7b31461015357806318160ddd14610176575b600080fd5b61010d6102a1565b60405161011a9190610e00565b60405180910390f35b60655461013b9061010090046001600160a01b031681565b6040516001600160a01b03909116815260200161011a565b610166610161366004610e71565b610333565b604051901515815260200161011a565b6035545b60405190815260200161011a565b610166610196366004610e9b565b61034b565b60655460405160ff909116815260200161011a565b6101666101be366004610e71565b61036f565b6101d66101d1366004610e71565b6103ae565b005b6101d66101e6366004610ed7565b610421565b61017a6101f9366004610ef0565b6001600160a01b031660009081526033602052604090205490565b61010d61042e565b61017a61022a366004610e71565b61043d565b61016661023d366004610e71565b6104ab565b610166610250366004610e71565b61053d565b61017a610263366004610f12565b6001600160a01b03918216600090815260346020908152604080832093909416825291909152205490565b61016661029c366004610fe8565b61054b565b6060603680546102b090611075565b80601f01602080910402602001604051908101604052809291908181526020018280546102dc90611075565b80156103295780601f106102fe57610100808354040283529160200191610329565b820191906000526020600020905b81548152906001019060200180831161030c57829003601f168201915b5050505050905090565b60003361034181858561069b565b5060019392505050565b6000336103598582856107c0565b610364858585610852565b506001949350505050565b3360008181526034602090815260408083206001600160a01b038716845290915281205490919061034190829086906103a99087906110c0565b61069b565b606554604080518082019091526013815272756e617574686f72697a65642061636365737360681b60208201529061010090046001600160a01b031633146104125760405162461bcd60e51b81526004016104099190610e00565b60405180910390fd5b5061041d8282610a2b565b5050565b61042b3382610b16565b50565b6060603780546102b090611075565b606554604080518082019091526013815272756e617574686f72697a65642061636365737360681b602082015260009161010090046001600160a01b0316331461049a5760405162461bcd60e51b81526004016104099190610e00565b506104a58383610b16565b50919050565b3360008181526034602090815260408083206001600160a01b0387168452909152812054909190838110156105305760405162461bcd60e51b815260206004820152602560248201527f45524332303a2064656372656173656420616c6c6f77616e63652062656c6f77604482015264207a65726f60d81b6064820152608401610409565b610364828686840361069b565b600033610341818585610852565b60008054610100900460ff166105675760005460ff161561056b565b303b155b6105ce5760405162461bcd60e51b815260206004820152602e60248201527f496e697469616c697a61626c653a20636f6e747261637420697320616c72656160448201526d191e481a5b9a5d1a585b1a5e995960921b6064820152608401610409565b600054610100900460ff161580156105f0576000805461ffff19166101011790555b60408051808201909152601881527f7a65726f2061646472657373206e6f7420616c6c6f776564000000000000000060208201526001600160a01b03841661064b5760405162461bcd60e51b81526004016104099190610e00565b506106568686610c6d565b606580546001600160a01b038516610100026001600160a81b031990911660ff871617179055600191508015610692576000805461ff00191690555b50949350505050565b6001600160a01b0383166106fd5760405162461bcd60e51b8152602060048201526024808201527f45524332303a20617070726f76652066726f6d20746865207a65726f206164646044820152637265737360e01b6064820152608401610409565b6001600160a01b03821661075e5760405162461bcd60e51b815260206004820152602260248201527f45524332303a20617070726f766520746f20746865207a65726f206164647265604482015261737360f01b6064820152608401610409565b6001600160a01b0383811660008181526034602090815260408083209487168084529482529182902085905590518481527f8c5be1e5ebec7d5bd14f71427d1e84f3dd0314c0f7b2291e5b200ac8c7c3b92591015b60405180910390a3505050565b6001600160a01b03838116600090815260346020908152604080832093861683529290522054600019811461084c578181101561083f5760405162461bcd60e51b815260206004820152601d60248201527f45524332303a20696e73756666696369656e7420616c6c6f77616e63650000006044820152606401610409565b61084c848484840361069b565b50505050565b6001600160a01b0383166108b65760405162461bcd60e51b815260206004820152602560248201527f45524332303a207472616e736665722066726f6d20746865207a65726f206164604482015264647265737360d81b6064820152608401610409565b6001600160a01b0382166109185760405162461bcd60e51b815260206004820152602360248201527f45524332303a207472616e7366657220746f20746865207a65726f206164647260448201526265737360e81b6064820152608401610409565b610923838383610c9e565b6001600160a01b0383166000908152603360205260409020548181101561099b5760405162461bcd60e51b815260206004820152602660248201527f45524332303a207472616e7366657220616d6f756e7420657863656564732062604482015265616c616e636560d01b6064820152608401610409565b6001600160a01b038085166000908152603360205260408082208585039055918516815290812080548492906109d29084906110c0565b92505081905550826001600160a01b0316846001600160a01b03167fddf252ad1be2c89b69c2b068fc378daa952ba7f163c4a11628f55a4df523b3ef84604051610a1e91815260200190565b60405180910390a361084c565b6001600160a01b038216610a815760405162461bcd60e51b815260206004820152601f60248201527f45524332303a206d696e7420746f20746865207a65726f2061646472657373006044820152606401610409565b610a8d60008383610c9e565b8060356000828254610a9f91906110c0565b90915550506001600160a01b03821660009081526033602052604081208054839290610acc9084906110c0565b90915550506040518181526001600160a01b038316906000907fddf252ad1be2c89b69c2b068fc378daa952ba7f163c4a11628f55a4df523b3ef9060200160405180910390a35050565b6001600160a01b038216610b765760405162461bcd60e51b815260206004820152602160248201527f45524332303a206275726e2066726f6d20746865207a65726f206164647265736044820152607360f81b6064820152608401610409565b610b8282600083610c9e565b6001600160a01b03821660009081526033602052604090205481811015610bf65760405162461bcd60e51b815260206004820152602260248201527f45524332303a206275726e20616d6f756e7420657863656564732062616c616e604482015261636560f01b6064820152608401610409565b6001600160a01b0383166000908152603360205260408120838303905560358054849290610c259084906110d8565b90915550506040518281526000906001600160a01b038516907fddf252ad1be2c89b69c2b068fc378daa952ba7f163c4a11628f55a4df523b3ef906020016107b3565b505050565b600054610100900460ff16610c945760405162461bcd60e51b8152600401610409906110ef565b61041d8282610d1d565b8015610c6857606554604051631e36c19360e31b81526001600160a01b0385811660048301528481166024830152604482018490526101009092049091169063f1b60c9890606401600060405180830381600087803b158015610d0057600080fd5b505af1158015610d14573d6000803e3d6000fd5b50505050505050565b600054610100900460ff16610d445760405162461bcd60e51b8152600401610409906110ef565b8151610d57906036906020850190610d67565b508051610c689060379060208401905b828054610d7390611075565b90600052602060002090601f016020900481019282610d955760008555610ddb565b82601f10610dae57805160ff1916838001178555610ddb565b82800160010185558215610ddb579182015b82811115610ddb578251825591602001919060010190610dc0565b50610de7929150610deb565b5090565b5b80821115610de75760008155600101610dec565b600060208083528351808285015260005b81811015610e2d57858101830151858201604001528201610e11565b81811115610e3f576000604083870101525b50601f01601f1916929092016040019392505050565b80356001600160a01b0381168114610e6c57600080fd5b919050565b60008060408385031215610e8457600080fd5b610e8d83610e55565b946020939093013593505050565b600080600060608486031215610eb057600080fd5b610eb984610e55565b9250610ec760208501610e55565b9150604084013590509250925092565b600060208284031215610ee957600080fd5b5035919050565b600060208284031215610f0257600080fd5b610f0b82610e55565b9392505050565b60008060408385031215610f2557600080fd5b610f2e83610e55565b9150610f3c60208401610e55565b90509250929050565b634e487b7160e01b600052604160045260246000fd5b600082601f830112610f6c57600080fd5b813567ffffffffffffffff80821115610f8757610f87610f45565b604051601f8301601f19908116603f01168101908282118183101715610faf57610faf610f45565b81604052838152866020858801011115610fc857600080fd5b836020870160208301376000602085830101528094505050505092915050565b60008060008060808587031215610ffe57600080fd5b843567ffffffffffffffff8082111561101657600080fd5b61102288838901610f5b565b9550602087013591508082111561103857600080fd5b5061104587828801610f5b565b935050604085013560ff8116811461105c57600080fd5b915061106a60608601610e55565b905092959194509250565b600181811c9082168061108957607f821691505b602082108114156104a557634e487b7160e01b600052602260045260246000fd5b634e487b7160e01b600052601160045260246000fd5b600082198211156110d3576110d36110aa565b500190565b6000828210156110ea576110ea6110aa565b500390565b6020808252602b908201527f496e697469616c697a61626c653a20636f6e7472616374206973206e6f74206960408201526a6e697469616c697a696e6760a81b60608201526080019056fea2646970667358221220b30f656e86fc502e576af33a587957d4b8316d9f9d6451ed270da0f2135de2dc64736f6c63430008090033",
  "linkReferences": {},
  "deployedLinkReferences": {}
}