{
  "_format": "hh-sol-artifact-1",
  "contractName": "Swapper3Crv",
  "sourceName": "contracts/swappers/Swapper3Crv.sol",
  "abi": [
    {
      "inputs": [],
      "stateMutability": "nonpayable",
      "type": "constructor"
    },
    {
      "inputs": [],
      "name": "CURVE_POOL",
      "outputs": [
        {
          "internalType": "address",
          "name": "",
          "type": "address"
        }
      ],
      "stateMutability": "view",
      "type": "function"
    },
    {
      "inputs": [],
      "name": "DAI",
      "outputs": [
        {
          "internalType": "address",
          "name": "",
          "type": "address"
        }
      ],
      "stateMutability": "view",
      "type": "function"
    },
    {
      "inputs": [],
      "name": "SUSHISWAP",
      "outputs": [
        {
          "internalType": "address",
          "name": "",
          "type": "address"
        }
      ],
      "stateMutability": "view",
      "type": "function"
    },
    {
      "inputs": [],
      "name": "SUSHISWAP_FACTORY",
      "outputs": [
        {
          "internalType": "address",
          "name": "",
          "type": "address"
        }
      ],
      "stateMutability": "view",
      "type": "function"
    },
    {
      "inputs": [],
      "name": "TRI_CRV",
      "outputs": [
        {
          "internalType": "address",
          "name": "",
          "type": "address"
        }
      ],
      "stateMutability": "view",
      "type": "function"
    },
    {
      "inputs": [],
      "name": "UNISWAP",
      "outputs": [
        {
          "internalType": "address",
          "name": "",
          "type": "address"
        }
      ],
      "stateMutability": "view",
      "type": "function"
    },
    {
      "inputs": [],
      "name": "UNISWAP_FACTORY",
      "outputs": [
        {
          "internalType": "address",
          "name": "",
          "type": "address"
        }
      ],
      "stateMutability": "view",
      "type": "function"
    },
    {
      "inputs": [],
      "name": "USDC",
      "outputs": [
        {
          "internalType": "address",
          "name": "",
          "type": "address"
        }
      ],
      "stateMutability": "view",
      "type": "function"
    },
    {
      "inputs": [],
      "name": "USDT",
      "outputs": [
        {
          "internalType": "address",
          "name": "",
          "type": "address"
        }
      ],
      "stateMutability": "view",
      "type": "function"
    },
    {
      "inputs": [],
      "name": "WETH",
      "outputs": [
        {
          "internalType": "address",
          "name": "",
          "type": "address"
        }
      ],
      "stateMutability": "view",
      "type": "function"
    },
    {
      "inputs": [
        {
          "internalType": "address",
          "name": "fromToken",
          "type": "address"
        },
        {
          "internalType": "address",
          "name": "toToken",
          "type": "address"
        }
      ],
      "name": "getRate",
      "outputs": [
        {
          "internalType": "uint256",
          "name": "",
          "type": "uint256"
        }
      ],
      "stateMutability": "view",
      "type": "function"
    },
    {
      "inputs": [
        {
          "internalType": "address",
          "name": "",
          "type": "address"
        },
        {
          "internalType": "address",
          "name": "",
          "type": "address"
        }
      ],
      "name": "lpTokens",
      "outputs": [
        {
          "internalType": "address",
          "name": "",
          "type": "address"
        }
      ],
      "stateMutability": "view",
      "type": "function"
    },
    {
      "inputs": [
        {
          "internalType": "address",
          "name": "fromToken",
          "type": "address"
        },
        {
          "internalType": "address",
          "name": "toToken",
          "type": "address"
        },
        {
          "internalType": "uint256",
          "name": "swapAmount",
          "type": "uint256"
        },
        {
          "internalType": "uint256",
          "name": "minAmount",
          "type": "uint256"
        }
      ],
      "name": "swap",
      "outputs": [
        {
          "internalType": "uint256",
          "name": "",
          "type": "uint256"
        }
      ],
      "stateMutability": "nonpayable",
      "type": "function"
    },
    {
      "inputs": [
        {
          "internalType": "address",
          "name": "",
          "type": "address"
        }
      ],
      "name": "triPoolIndex",
      "outputs": [
        {
          "internalType": "int128",
          "name": "",
          "type": "int128"
        }
      ],
      "stateMutability": "view",
      "type": "function"
    }
  ],
  "bytecode": "0x60806040523480156200001157600080fd5b50600060208181527f5306b8fbe80b30a74098357ee8e26fad8dc069da9011cca5f0870a0a5982e54180546001600160801b03199081169091557fc6521c8ea4247e8beb499344e591b9401fb2807ff9997dd598fd9e56c73a264d80548216600117905573dac17f958d2ee523a2206206994597c13d831ec79092527fa934b07068f5d95a11413ed6d08a4a1122dc4b8c14a6ab2d94f8b279dac630428054909216600217909155620000fd90736b175474e89094c44da98b954eedeac495271d0f9073d9e1ce17f2641f24ae83637ab66a2cca9c378b9f90600019906200076562000252821b17901c565b6200014073a0b86991c6218b36c1d19d4a2e9eb0ce3606eb4873d9e1ce17f2641f24ae83637ab66a2cca9c378b9f60001962000252602090811b6200076517901c565b6200018373dac17f958d2ee523a2206206994597c13d831ec773d9e1ce17f2641f24ae83637ab66a2cca9c378b9f60001962000252602090811b6200076517901c565b620001c6736b175474e89094c44da98b954eedeac495271d0f737a250d5630b4cf539739df2c5dacb4c659f2488d60001962000252602090811b6200076517901c565b6200020973a0b86991c6218b36c1d19d4a2e9eb0ce3606eb48737a250d5630b4cf539739df2c5dacb4c659f2488d60001962000252602090811b6200076517901c565b6200024c73dac17f958d2ee523a2206206994597c13d831ec7737a250d5630b4cf539739df2c5dacb4c659f2488d60001962000252602090811b6200076517901c565b620006ec565b801580620002e05750604051636eb1769f60e11b81523060048201526001600160a01b03838116602483015284169063dd62ed3e9060440160206040518083038186803b158015620002a357600080fd5b505afa158015620002b8573d6000803e3d6000fd5b505050506040513d601f19601f82011682018060405250810190620002de919062000628565b155b620003585760405162461bcd60e51b815260206004820152603660248201527f5361666545524332303a20617070726f76652066726f6d206e6f6e2d7a65726f60448201527f20746f206e6f6e2d7a65726f20616c6c6f77616e63650000000000000000000060648201526084015b60405180910390fd5b604080516001600160a01b038416602482015260448082018490528251808303909101815260649091019091526020810180516001600160e01b0390811663095ea7b360e01b17909152620003b0918591620003b516565b505050565b600062000411826040518060400160405280602081526020017f5361666545524332303a206c6f772d6c6576656c2063616c6c206661696c6564815250856001600160a01b03166200049360201b620008c1179092919060201c565b805190915015620003b0578080602001905181019062000432919062000642565b620003b05760405162461bcd60e51b815260206004820152602a60248201527f5361666545524332303a204552433230206f7065726174696f6e20646964206e6044820152691bdd081cdd58d8d9595960b21b60648201526084016200034f565b6060620004a48484600085620004ae565b90505b9392505050565b606082471015620005115760405162461bcd60e51b815260206004820152602660248201527f416464726573733a20696e73756666696369656e742062616c616e636520666f6044820152651c8818d85b1b60d21b60648201526084016200034f565b6001600160a01b0385163b6200056a5760405162461bcd60e51b815260206004820152601d60248201527f416464726573733a2063616c6c20746f206e6f6e2d636f6e747261637400000060448201526064016200034f565b600080866001600160a01b0316858760405162000588919062000699565b60006040518083038185875af1925050503d8060008114620005c7576040519150601f19603f3d011682016040523d82523d6000602084013e620005cc565b606091505b509092509050620005df828286620005ea565b979650505050505050565b60608315620005fb575081620004a7565b8251156200060c5782518084602001fd5b8160405162461bcd60e51b81526004016200034f9190620006b7565b6000602082840312156200063b57600080fd5b5051919050565b6000602082840312156200065557600080fd5b81518015158114620004a757600080fd5b60005b838110156200068357818101518382015260200162000669565b8381111562000693576000848401525b50505050565b60008251620006ad81846020870162000666565b9190910192915050565b6020815260008251806020840152620006d881604085016020870162000666565b601f01601f19169190910160400192915050565b61147780620006fc6000396000f3fe608060405234801561001057600080fd5b50600436106100ea5760003560e01c8063b522558b1161008c578063c74c0fac11610066578063c74c0fac14610239578063cf8c559714610254578063e0bab4c41461028a578063fe029156146102a557600080fd5b8063b522558b146101cf578063c54e44eb14610203578063c745d9e71461021e57600080fd5b806386a8b4b5116100c857806386a8b4b51461016357806389a302711461017e5780639c708aab14610199578063ad5c4648146101b457600080fd5b8063379b87ea146100ef578063495c0f9b1461011557806351f7a54314610148575b600080fd5b6101026100fd366004611152565b6102b8565b6040519081526020015b60405180910390f35b61013073c0aee478e3658e2610c5f7a4a2e1777ce9e4f2ac81565b6040516001600160a01b03909116815260200161010c565b610130736c3f90f043a72fa612cbac8115ee7e52bde6e49081565b61013073bebc44782c7db0a1a60cb6fe97d0b483032ff1c781565b61013073a0b86991c6218b36c1d19d4a2e9eb0ce3606eb4881565b61013073d9e1ce17f2641f24ae83637ab66a2cca9c378b9f81565b61013073c02aaa39b223fe8d0a0e5c4f27ead9083c756cc281565b6101306101dd366004611152565b60016020908152600092835260408084209091529082529020546001600160a01b031681565b61013073dac17f958d2ee523a2206206994597c13d831ec781565b610130737a250d5630b4cf539739df2c5dacb4c659f2488d81565b610130735c69bee701ef814a2b6a3edd4b1652cb9cc5aa6f81565b610277610262366004611185565b600060208190529081526040902054600f0b81565b604051600f9190910b815260200161010c565b610130736b175474e89094c44da98b954eedeac495271d0f81565b6101026102b33660046111a0565b6104ea565b60006001600160a01b038316736c3f90f043a72fa612cbac8115ee7e52bde6e49014801561034f57506001600160a01b038216736b175474e89094c44da98b954eedeac495271d0f148061032857506001600160a01b03821673a0b86991c6218b36c1d19d4a2e9eb0ce3606eb48145b8061034f57506001600160a01b03821673dac17f958d2ee523a2206206994597c13d831ec7145b61039b5760405162461bcd60e51b8152602060048201526018602482015277546f6b656e2070616972206e6f7420737761707061626c6560401b60448201526064015b60405180910390fd5b6001600160a01b038216736b175474e89094c44da98b954eedeac495271d0f141561044c5773bebc44782c7db0a1a60cb6fe97d0b483032ff1c76001600160a01b031663bb7b8b806040518163ffffffff1660e01b815260040160206040518083038186803b15801561040d57600080fd5b505afa158015610421573d6000803e3d6000fd5b505050506040513d601f19601f8201168201806040525081019061044591906111e2565b90506104e4565b64e8d4a5100073bebc44782c7db0a1a60cb6fe97d0b483032ff1c76001600160a01b031663bb7b8b806040518163ffffffff1660e01b815260040160206040518083038186803b15801561049f57600080fd5b505afa1580156104b3573d6000803e3d6000fd5b505050506040513d601f19601f820116820180604052508101906104d791906111e2565b6104e191906111fb565b90505b92915050565b60006001600160a01b038516736c3f90f043a72fa612cbac8115ee7e52bde6e49014801561058157506001600160a01b038416736b175474e89094c44da98b954eedeac495271d0f148061055a57506001600160a01b03841673a0b86991c6218b36c1d19d4a2e9eb0ce3606eb48145b8061058157506001600160a01b03841673dac17f958d2ee523a2206206994597c13d831ec7145b6105c85760405162461bcd60e51b8152602060048201526018602482015277546f6b656e2070616972206e6f7420737761707061626c6560401b6044820152606401610392565b6040516323b872dd60e01b8152336004820152306024820152604481018490526001600160a01b038616906323b872dd90606401602060405180830381600087803b15801561061657600080fd5b505af115801561062a573d6000803e3d6000fd5b505050506040513d601f19601f8201168201806040525081019061064e919061121d565b5060008061065c85876108da565b6001600160a01b038116600090815260208190526040808220549051630d2680e960e11b8152600481018a9052600f9190910b60248201526044810191909152919350915073bebc44782c7db0a1a60cb6fe97d0b483032ff1c790631a4d01d290606401600060405180830381600087803b1580156106da57600080fd5b505af11580156106ee573d6000803e3d6000fd5b5050505060006106ff8288856109df565b9050848110156040518060400160405280601b81526020017f696e73756666696369656e742066756e64732072656365697665640000000000815250906107595760405162461bcd60e51b8152600401610392919061126f565b50979650505050505050565b8015806107ee5750604051636eb1769f60e11b81523060048201526001600160a01b03838116602483015284169063dd62ed3e9060440160206040518083038186803b1580156107b457600080fd5b505afa1580156107c8573d6000803e3d6000fd5b505050506040513d601f19601f820116820180604052508101906107ec91906111e2565b155b6108595760405162461bcd60e51b815260206004820152603660248201527f5361666545524332303a20617070726f76652066726f6d206e6f6e2d7a65726f60448201527520746f206e6f6e2d7a65726f20616c6c6f77616e636560501b6064820152608401610392565b6040516001600160a01b0383166024820152604481018290526108bc90849063095ea7b360e01b906064015b60408051601f198184030181529190526020810180516001600160e01b03166001600160e01b031990931692909217909152610c13565b505050565b60606108d08484600085610ce5565b90505b9392505050565b6000806000806108ff86736b175474e89094c44da98b954eedeac495271d0f87610e16565b915091506000806109258873a0b86991c6218b36c1d19d4a2e9eb0ce3606eb4889610e16565b9150915060008061094b8a73dac17f958d2ee523a2206206994597c13d831ec78b610e16565b91509150828511801561095d57508085115b156109875785736b175474e89094c44da98b954eedeac495271d0f975097505050505050506109d8565b808311156109b4578373a0b86991c6218b36c1d19d4a2e9eb0ce3606eb48975097505050505050506109d8565b50955073dac17f958d2ee523a2206206994597c13d831ec794506109d89350505050565b9250929050565b6040516370a0823160e01b815230600482015260009081906001600160a01b038616906370a082319060240160206040518083038186803b158015610a2357600080fd5b505afa158015610a37573d6000803e3d6000fd5b505050506040513d601f19601f82011682018060405250810190610a5b91906111e2565b9050836001600160a01b0316856001600160a01b03161415610a9257610a8b6001600160a01b0385163383610f07565b90506108d3565b80610aa15760009150506108d3565b60408051600380825260808201909252600091602082016060803683370190505090508581600081518110610ad857610ad86112b8565b60200260200101906001600160a01b031690816001600160a01b03168152505073c02aaa39b223fe8d0a0e5c4f27ead9083c756cc281600181518110610b2057610b206112b8565b60200260200101906001600160a01b031690816001600160a01b0316815250508481600281518110610b5457610b546112b8565b6001600160a01b0392831660209182029290920101526040516338ed173960e01b8152908516906338ed173990610b98908590600090869033904290600401611312565b600060405180830381600087803b158015610bb257600080fd5b505af1158015610bc6573d6000803e3d6000fd5b505050506040513d6000823e601f3d908101601f19168201604052610bee919081019061134e565b600281518110610c0057610c006112b8565b6020026020010151925050509392505050565b6000610c68826040518060400160405280602081526020017f5361666545524332303a206c6f772d6c6576656c2063616c6c206661696c6564815250856001600160a01b03166108c19092919063ffffffff16565b8051909150156108bc5780806020019051810190610c86919061121d565b6108bc5760405162461bcd60e51b815260206004820152602a60248201527f5361666545524332303a204552433230206f7065726174696f6e20646964206e6044820152691bdd081cdd58d8d9595960b21b6064820152608401610392565b606082471015610d465760405162461bcd60e51b815260206004820152602660248201527f416464726573733a20696e73756666696369656e742062616c616e636520666f6044820152651c8818d85b1b60d21b6064820152608401610392565b6001600160a01b0385163b610d9d5760405162461bcd60e51b815260206004820152601d60248201527f416464726573733a2063616c6c20746f206e6f6e2d636f6e74726163740000006044820152606401610392565b600080866001600160a01b03168587604051610db9919061140c565b60006040518083038185875af1925050503d8060008114610df6576040519150601f19603f3d011682016040523d82523d6000602084013e610dfb565b606091505b5091509150610e0b828286610f37565b979650505050505050565b6001600160a01b03821660009081526020819052604080822054905163cc2b27d760e01b815260048101869052600f9190910b60248201528190819073bebc44782c7db0a1a60cb6fe97d0b483032ff1c79063cc2b27d79060440160206040518083038186803b158015610e8957600080fd5b505afa158015610e9d573d6000803e3d6000fd5b505050506040513d601f19601f82011682018060405250810190610ec191906111e2565b9050836001600160a01b0316856001600160a01b03161415610ee857600092509050610eff565b600080610ef6878785610f70565b90955093505050505b935093915050565b6040516001600160a01b0383166024820152604481018290526108bc90849063a9059cbb60e01b90606401610885565b60608315610f465750816108d3565b825115610f565782518084602001fd5b8160405162461bcd60e51b8152600401610392919061126f565b600080737a250d5630b4cf539739df2c5dacb4c659f2488d8082610f9688888885610fca565b90506000610fa689898986610fca565b905080821015610fb7578281610fba565b83825b9550955050505050935093915050565b60408051600380825260808201909252600091829190602082016060803683370190505090508581600081518110611004576110046112b8565b60200260200101906001600160a01b031690816001600160a01b03168152505073c02aaa39b223fe8d0a0e5c4f27ead9083c756cc28160018151811061104c5761104c6112b8565b60200260200101906001600160a01b031690816001600160a01b0316815250508481600281518110611080576110806112b8565b6001600160a01b03928316602091820292909201015260405163d06ca61f60e01b81529084169063d06ca61f906110bd9087908590600401611428565b60006040518083038186803b1580156110d557600080fd5b505afa1580156110e9573d6000803e3d6000fd5b505050506040513d6000823e601f3d908101601f19168201604052611111919081019061134e565b600281518110611123576111236112b8565b6020026020010151915050949350505050565b80356001600160a01b038116811461114d57600080fd5b919050565b6000806040838503121561116557600080fd5b61116e83611136565b915061117c60208401611136565b90509250929050565b60006020828403121561119757600080fd5b6104e182611136565b600080600080608085870312156111b657600080fd5b6111bf85611136565b93506111cd60208601611136565b93969395505050506040820135916060013590565b6000602082840312156111f457600080fd5b5051919050565b60008261121857634e487b7160e01b600052601260045260246000fd5b500490565b60006020828403121561122f57600080fd5b815180151581146108d357600080fd5b60005b8381101561125a578181015183820152602001611242565b83811115611269576000848401525b50505050565b602081526000825180602084015261128e81604085016020870161123f565b601f01601f19169190910160400192915050565b634e487b7160e01b600052604160045260246000fd5b634e487b7160e01b600052603260045260246000fd5b600081518084526020808501945080840160005b838110156113075781516001600160a01b0316875295820195908201906001016112e2565b509495945050505050565b85815284602082015260a06040820152600061133160a08301866112ce565b6001600160a01b0394909416606083015250608001529392505050565b6000602080838503121561136157600080fd5b825167ffffffffffffffff8082111561137957600080fd5b818501915085601f83011261138d57600080fd5b81518181111561139f5761139f6112a2565b8060051b604051601f19603f830116810181811085821117156113c4576113c46112a2565b6040529182528482019250838101850191888311156113e257600080fd5b938501935b82851015611400578451845293850193928501926113e7565b98975050505050505050565b6000825161141e81846020870161123f565b9190910192915050565b8281526040602082015260006108d060408301846112ce56fea26469706673582212202aced906a9c7f1f370ac3ea4e55b82c945b2adf2f83762b8f3ccd8787b58409f64736f6c63430008090033",
  "linkReferences": {},
  "deployedLinkReferences": {}
}