{
  "_format": "hh-sol-artifact-1",
  "contractName": "SplitStorage",
  "sourceName": "@chestrnft/splits/contracts/SplitStorage.sol",
  "abi": [
    {
      "inputs": [
        {
          "internalType": "uint256",
          "name": "",
          "type": "uint256"
        }
      ],
      "name": "balanceForWindow",
      "outputs": [
        {
          "internalType": "uint256",
          "name": "",
          "type": "uint256"
        }
      ],
      "stateMutability": "view",
      "type": "function"
    },
    {
      "inputs": [],
      "name": "currentWindow",
      "outputs": [
        {
          "internalType": "uint256",
          "name": "",
          "type": "uint256"
        }
      ],
      "stateMutability": "view",
      "type": "function"
    },
    {
      "inputs": [],
      "name": "merkleRoot",
      "outputs": [
        {
          "internalType": "bytes32",
          "name": "",
          "type": "bytes32"
        }
      ],
      "stateMutability": "view",
      "type": "function"
    }
  ],
  "bytecode": "0x608060405234801561001057600080fd5b5060df8061001f6000396000f3fe6080604052348015600f57600080fd5b5060043610603c5760003560e01c80632eb4a7ab14604157806381e580d314605b578063ba0bafb414606a575b600080fd5b604960005481565b60405190815260200160405180910390f35b604960663660046092565b6072565b604960015481565b60048181548110608157600080fd5b600091825260209091200154905081565b60006020828403121560a2578081fd5b503591905056fea2646970667358221220d1f2d7323e925babbe61c9ead4d411a5d8b238702b341adc8f804c5132d06ff464736f6c63430008040033",
  "linkReferences": {},
  "deployedLinkReferences": {}
}