{
  "_format": "hh-sol-artifact-1",
  "contractName": "SafetyWithdraw",
  "sourceName": "contracts/lib/SafetyWithdraw.sol",
  "abi": [
    {
      "anonymous": false,
      "inputs": [
        {
          "indexed": true,
          "internalType": "address",
          "name": "previousOwner",
          "type": "address"
        },
        {
          "indexed": true,
          "internalType": "address",
          "name": "newOwner",
          "type": "address"
        }
      ],
      "name": "OwnershipTransferred",
      "type": "event"
    },
    {
      "inputs": [],
      "name": "owner",
      "outputs": [
        {
          "internalType": "address",
          "name": "",
          "type": "address"
        }
      ],
      "stateMutability": "view",
      "type": "function"
    },
    {
      "inputs": [],
      "name": "renounceOwnership",
      "outputs": [],
      "stateMutability": "nonpayable",
      "type": "function"
    },
    {
      "inputs": [
        {
          "internalType": "address",
          "name": "newOwner",
          "type": "address"
        }
      ],
      "name": "transferOwnership",
      "outputs": [],
      "stateMutability": "nonpayable",
      "type": "function"
    },
    {
      "inputs": [
        {
          "internalType": "address",
          "name": "tokenAddress",
          "type": "address"
        },
        {
          "internalType": "address",
          "name": "to",
          "type": "address"
        },
        {
          "internalType": "uint256",
          "name": "amount",
          "type": "uint256"
        }
      ],
      "name": "withdrawERC20Token",
      "outputs": [],
      "stateMutability": "nonpayable",
      "type": "function"
    }
  ],
  "bytecode": "0x608060405234801561001057600080fd5b5061002161001c610026565b61002a565b61007a565b3390565b600080546001600160a01b038381166001600160a01b0319831681178455604051919092169283917f8be0079c531659141344cd1fd0a4f28419497f9722a3daafe3b4186f6b6457e09190a35050565b6103e4806100896000396000f3fe608060405234801561001057600080fd5b506004361061004c5760003560e01c806357d1b31b14610051578063715018a6146100665780638da5cb5b1461006e578063f2fde38b1461008c575b600080fd5b61006461005f366004610294565b61009f565b005b610064610146565b61007661015a565b60405161008391906102ef565b60405180910390f35b61006461009a366004610273565b610169565b6100a76101ac565b6040517fa9059cbb0000000000000000000000000000000000000000000000000000000081526001600160a01b0384169063a9059cbb906100ee9085908590600401610303565b602060405180830381600087803b15801561010857600080fd5b505af115801561011c573d6000803e3d6000fd5b505050506040513d601f19601f8201168201806040525081019061014091906102cf565b50505050565b61014e6101ac565b61015860006101eb565b565b6000546001600160a01b031690565b6101716101ac565b6001600160a01b0381166101a05760405162461bcd60e51b81526004016101979061031c565b60405180910390fd5b6101a9816101eb565b50565b6101b4610253565b6001600160a01b03166101c561015a565b6001600160a01b0316146101585760405162461bcd60e51b815260040161019790610379565b600080546001600160a01b038381167fffffffffffffffffffffffff0000000000000000000000000000000000000000831681178455604051919092169283917f8be0079c531659141344cd1fd0a4f28419497f9722a3daafe3b4186f6b6457e09190a35050565b3390565b80356001600160a01b038116811461026e57600080fd5b919050565b600060208284031215610284578081fd5b61028d82610257565b9392505050565b6000806000606084860312156102a8578182fd5b6102b184610257565b92506102bf60208501610257565b9150604084013590509250925092565b6000602082840312156102e0578081fd5b8151801515811461028d578182fd5b6001600160a01b0391909116815260200190565b6001600160a01b03929092168252602082015260400190565b60208082526026908201527f4f776e61626c653a206e6577206f776e657220697320746865207a65726f206160408201527f6464726573730000000000000000000000000000000000000000000000000000606082015260800190565b6020808252818101527f4f776e61626c653a2063616c6c6572206973206e6f7420746865206f776e657260408201526060019056fea2646970667358221220d17a551747da06f5b2d2f8ebe20a38f7e26116b02901848440d6ed0bb2708fd864736f6c63430008000033",
  "linkReferences": {},
  "deployedLinkReferences": {}
}