{
  "_format": "hh-sol-artifact-1",
  "contractName": "MockChainlinkFeed",
  "sourceName": "contracts/testing/MockChainlinkFeed.sol",
  "abi": [
    {
      "inputs": [
        {
          "internalType": "uint8",
          "name": "_decimals",
          "type": "uint8"
        },
        {
          "internalType": "int256",
          "name": "_price",
          "type": "int256"
        },
        {
          "internalType": "uint256",
          "name": "_lastUpdate",
          "type": "uint256"
        }
      ],
      "stateMutability": "nonpayable",
      "type": "constructor"
    },
    {
      "inputs": [],
      "name": "decimals",
      "outputs": [
        {
          "internalType": "uint8",
          "name": "",
          "type": "uint8"
        }
      ],
      "stateMutability": "view",
      "type": "function"
    },
    {
      "inputs": [],
      "name": "lastUpdate",
      "outputs": [
        {
          "internalType": "uint256",
          "name": "",
          "type": "uint256"
        }
      ],
      "stateMutability": "view",
      "type": "function"
    },
    {
      "inputs": [],
      "name": "latestRoundData",
      "outputs": [
        {
          "internalType": "uint80",
          "name": "roundId",
          "type": "uint80"
        },
        {
          "internalType": "int256",
          "name": "answer",
          "type": "int256"
        },
        {
          "internalType": "uint256",
          "name": "startedAt",
          "type": "uint256"
        },
        {
          "internalType": "uint256",
          "name": "updatedAt",
          "type": "uint256"
        },
        {
          "internalType": "uint80",
          "name": "answeredInRound",
          "type": "uint80"
        }
      ],
      "stateMutability": "view",
      "type": "function"
    },
    {
      "inputs": [],
      "name": "price",
      "outputs": [
        {
          "internalType": "int256",
          "name": "",
          "type": "int256"
        }
      ],
      "stateMutability": "view",
      "type": "function"
    }
  ],
  "bytecode": "0x60e060405234801561001057600080fd5b5060405161024738038061024783398101604081905261002f91610042565b60ff90921660805260a05260c05261007f565b60008060006060848603121561005757600080fd5b835160ff8116811461006857600080fd5b602085015160409095015190969495509392505050565b60805160a05160c05161018f6100b86000396000818160c9015261011c0152600081816094015260f6015260006056015261018f6000f3fe608060405234801561001057600080fd5b506004361061004c5760003560e01c8063313ce56714610051578063a035b1fe1461008f578063c0463711146100c4578063feaf968c146100eb575b600080fd5b6100787f000000000000000000000000000000000000000000000000000000000000000081565b60405160ff90911681526020015b60405180910390f35b6100b67f000000000000000000000000000000000000000000000000000000000000000081565b604051908152602001610086565b6100b67f000000000000000000000000000000000000000000000000000000000000000081565b6040805160008082527f000000000000000000000000000000000000000000000000000000000000000060208301527f00000000000000000000000000000000000000000000000000000000000000009282018390526060820192909252608081019190915260a00161008656fea2646970667358221220683c5ec5ebd2e87ec7c5a676afa384b8225799cc227bc5ca8e86ffd9b656f30e64736f6c63430008090033",
  "linkReferences": {},
  "deployedLinkReferences": {}
}