{
  "_format": "hh-sol-artifact-1",
  "contractName": "GasOracle",
  "sourceName": "contracts/oracle/GasOracle.sol",
  "abi": [
    {
      "inputs": [
        {
          "internalType": "address",
          "name": "_priceOracle",
          "type": "address"
        },
        {
          "internalType": "address",
          "name": "_gasOracle",
          "type": "address"
        }
      ],
      "stateMutability": "nonpayable",
      "type": "constructor"
    },
    {
      "anonymous": false,
      "inputs": [
        {
          "indexed": true,
          "internalType": "address",
          "name": "previousOwner",
          "type": "address"
        },
        {
          "indexed": true,
          "internalType": "address",
          "name": "newOwner",
          "type": "address"
        }
      ],
      "name": "OwnershipTransferred",
      "type": "event"
    },
    {
      "inputs": [],
      "name": "decimals",
      "outputs": [
        {
          "internalType": "uint8",
          "name": "",
          "type": "uint8"
        }
      ],
      "stateMutability": "view",
      "type": "function"
    },
    {
      "inputs": [],
      "name": "gasOracle",
      "outputs": [
        {
          "internalType": "contract IChainlinkOracle",
          "name": "",
          "type": "address"
        }
      ],
      "stateMutability": "view",
      "type": "function"
    },
    {
      "inputs": [],
      "name": "latestAnswer",
      "outputs": [
        {
          "internalType": "uint256",
          "name": "",
          "type": "uint256"
        }
      ],
      "stateMutability": "view",
      "type": "function"
    },
    {
      "inputs": [],
      "name": "owner",
      "outputs": [
        {
          "internalType": "address",
          "name": "",
          "type": "address"
        }
      ],
      "stateMutability": "view",
      "type": "function"
    },
    {
      "inputs": [],
      "name": "priceOracle",
      "outputs": [
        {
          "internalType": "contract IChainlinkOracle",
          "name": "",
          "type": "address"
        }
      ],
      "stateMutability": "view",
      "type": "function"
    },
    {
      "inputs": [],
      "name": "renounceOwnership",
      "outputs": [],
      "stateMutability": "nonpayable",
      "type": "function"
    },
    {
      "inputs": [
        {
          "internalType": "uint8",
          "name": "_decimals",
          "type": "uint8"
        }
      ],
      "name": "setDecimals",
      "outputs": [],
      "stateMutability": "nonpayable",
      "type": "function"
    },
    {
      "inputs": [
        {
          "internalType": "address",
          "name": "_gasOracle",
          "type": "address"
        }
      ],
      "name": "setGasOracle",
      "outputs": [],
      "stateMutability": "nonpayable",
      "type": "function"
    },
    {
      "inputs": [
        {
          "internalType": "address",
          "name": "_priceOracle",
          "type": "address"
        }
      ],
      "name": "setPriceOracle",
      "outputs": [],
      "stateMutability": "nonpayable",
      "type": "function"
    },
    {
      "inputs": [
        {
          "internalType": "address",
          "name": "newOwner",
          "type": "address"
        }
      ],
      "name": "transferOwnership",
      "outputs": [],
      "stateMutability": "nonpayable",
      "type": "function"
    }
  ],
  "bytecode": "0x60806040526002805460ff60a01b1916600960a11b17905534801561002357600080fd5b5060405161085d38038061085d833981016040819052610042916100f6565b61005261004d610086565b61008a565b600180546001600160a01b039283166001600160a01b03199182161790915560028054939092169216919091179055610128565b3390565b600080546001600160a01b038381166001600160a01b0319831681178455604051919092169283917f8be0079c531659141344cd1fd0a4f28419497f9722a3daafe3b4186f6b6457e09190a35050565b80516001600160a01b03811681146100f157600080fd5b919050565b60008060408385031215610108578182fd5b610111836100da565b915061011f602084016100da565b90509250929050565b610726806101376000396000f3fe608060405234801561001057600080fd5b50600436106100be5760003560e01c8063715018a6116100765780638da5cb5b1161005b5780638da5cb5b14610143578063a87b81521461014b578063f2fde38b1461015e576100be565b8063715018a6146101285780637a1395aa14610130576100be565b806350d25bcd116100a757806350d25bcd146100f6578063530e784f1461010b5780635d62a8dd14610120576100be565b80632630c12f146100c3578063313ce567146100e1575b600080fd5b6100cb610171565b6040516100d891906105fc565b60405180910390f35b6100e9610180565b6040516100d891906106e2565b6100fe610190565b6040516100d891906106d9565b61011e61011936600461059c565b6102b9565b005b6100cb61031f565b61011e61032e565b61011e61013e3660046105db565b610342565b6100cb61037d565b61011e61015936600461059c565b61038c565b61011e61016c36600461059c565b6103e9565b6002546001600160a01b031681565b600254600160a01b900460ff1681565b600080600160009054906101000a90046001600160a01b03166001600160a01b03166350d25bcd6040518163ffffffff1660e01b815260040160206040518083038186803b1580156101e157600080fd5b505afa1580156101f5573d6000803e3d6000fd5b505050506040513d601f19601f8201168201806040525081019061021991906105c3565b90506000600260009054906101000a90046001600160a01b03166001600160a01b03166350d25bcd6040518163ffffffff1660e01b815260040160206040518083038186803b15801561026b57600080fd5b505afa15801561027f573d6000803e3d6000fd5b505050506040513d601f19601f820116820180604052508101906102a391906105c3565b905060006102b18383610423565b935050505090565b6102c1610436565b6001600160a01b0381166102f05760405162461bcd60e51b81526004016102e7906106a2565b60405180910390fd5b6002805473ffffffffffffffffffffffffffffffffffffffff19166001600160a01b0392909216919091179055565b6001546001600160a01b031681565b610336610436565b6103406000610475565b565b6002805460ff909216600160a01b027fffffffffffffffffffffff00ffffffffffffffffffffffffffffffffffffffff909216919091179055565b6000546001600160a01b031690565b610394610436565b6001600160a01b0381166103ba5760405162461bcd60e51b81526004016102e7906106a2565b6001805473ffffffffffffffffffffffffffffffffffffffff19166001600160a01b0392909216919091179055565b6103f1610436565b6001600160a01b0381166104175760405162461bcd60e51b81526004016102e790610610565b61042081610475565b50565b600061042f83836104d2565b9392505050565b61043e610598565b6001600160a01b031661044f61037d565b6001600160a01b0316146103405760405162461bcd60e51b81526004016102e79061066d565b600080546001600160a01b0383811673ffffffffffffffffffffffffffffffffffffffff19831681178455604051919092169283917f8be0079c531659141344cd1fd0a4f28419497f9722a3daafe3b4186f6b6457e09190a35050565b60008080600019848609848602925082811083820303915050600080670de0b6b3a76400008688099150506706f05b59d3b1ffff8111826105255780670de0b6b3a7640000850401945050505050610592565b82670de0b6b3a76400001161053957600080fd5b6204000082850304939091119091037d40000000000000000000000000000000000000000000000000000000000002919091177faccb18165bd6fe31ae1cf318dc5b51eee0e1ba569b88cd74c1773b91fac10669020190505b92915050565b3390565b6000602082840312156105ad578081fd5b81356001600160a01b038116811461042f578182fd5b6000602082840312156105d4578081fd5b5051919050565b6000602082840312156105ec578081fd5b813560ff8116811461042f578182fd5b6001600160a01b0391909116815260200190565b60208082526026908201527f4f776e61626c653a206e6577206f776e657220697320746865207a65726f206160408201527f6464726573730000000000000000000000000000000000000000000000000000606082015260800190565b6020808252818101527f4f776e61626c653a2063616c6c6572206973206e6f7420746865206f776e6572604082015260600190565b60208082526010908201527f6164647265737328302920676976656e00000000000000000000000000000000604082015260600190565b90815260200190565b60ff9190911681526020019056fea2646970667358221220eb73f8c1a5d79ec019c3c3d8f8a33d56e55c7cc3fedc34af470ccf739f64ea3b64736f6c63430008000033",
  "linkReferences": {},
  "deployedLinkReferences": {}
}