{
  "contracts/mocks/oracles/uniswap/UniswapV2PairMock.sol": {
    "UniswapV2PairMock": {
      "abi": [
        {
          "inputs": [],
          "name": "blockTimestamp",
          "outputs": [
            {
              "internalType": "uint32",
              "name": "",
              "type": "uint32"
            }
          ],
          "stateMutability": "view",
          "type": "function"
        },
        {
          "inputs": [],
          "name": "getReserves",
          "outputs": [
            {
              "internalType": "uint112",
              "name": "",
              "type": "uint112"
            },
            {
              "internalType": "uint112",
              "name": "",
              "type": "uint112"
            },
            {
              "internalType": "uint32",
              "name": "",
              "type": "uint32"
            }
          ],
          "stateMutability": "view",
          "type": "function"
        },
        {
          "inputs": [],
          "name": "price0CumulativeLast",
          "outputs": [
            {
              "internalType": "uint256",
              "name": "",
              "type": "uint256"
            }
          ],
          "stateMutability": "view",
          "type": "function"
        },
        {
          "inputs": [],
          "name": "price1CumulativeLast",
          "outputs": [
            {
              "internalType": "uint256",
              "name": "",
              "type": "uint256"
            }
          ],
          "stateMutability": "view",
          "type": "function"
        },
        {
          "inputs": [],
          "name": "reserves0",
          "outputs": [
            {
              "internalType": "uint112",
              "name": "",
              "type": "uint112"
            }
          ],
          "stateMutability": "view",
          "type": "function"
        },
        {
          "inputs": [],
          "name": "reserves1",
          "outputs": [
            {
              "internalType": "uint112",
              "name": "",
              "type": "uint112"
            }
          ],
          "stateMutability": "view",
          "type": "function"
        },
        {
          "inputs": [
            {
              "internalType": "uint256",
              "name": "cumPrice0",
              "type": "uint256"
            },
            {
              "internalType": "uint256",
              "name": "cumPrice1",
              "type": "uint256"
            }
          ],
          "name": "setCumulativePrices",
          "outputs": [],
          "stateMutability": "nonpayable",
          "type": "function"
        },
        {
          "inputs": [
            {
              "internalType": "uint112",
              "name": "reserves0_",
              "type": "uint112"
            },
            {
              "internalType": "uint112",
              "name": "reserves1_",
              "type": "uint112"
            },
            {
              "internalType": "uint32",
              "name": "blockTimestamp_",
              "type": "uint32"
            }
          ],
          "name": "setReserves",
          "outputs": [],
          "stateMutability": "nonpayable",
          "type": "function"
        }
      ],
      "devdoc": {
        "kind": "dev",
        "methods": {},
        "version": 1
      },
      "evm": {
        "bytecode": {
          "linkReferences": {},
          "object": "608060405234801561001057600080fd5b506103ed806100206000396000f3fe608060405234801561001057600080fd5b50600436106100885760003560e01c80635a3d54931161005b5780635a3d5493146100ec578063adb61832146100f4578063b9b4c46314610109578063c67a02f31461011157610088565b80630902f1ac1461008d57806318243296146100ad5780632c6a592f146100c25780635909c0d5146100d7575b600080fd5b610095610124565b6040516100a49392919061036d565b60405180910390f35b6100c06100bb3660046102e3565b610179565b005b6100ca61023f565b6040516100a49190610352565b6100df610255565b6040516100a4919061039d565b6100df61025b565b6100fc610261565b6040516100a491906103a6565b6100ca61028d565b6100c061011f366004610331565b6102b5565b6000546dffffffffffffffffffffffffffff808216926e0100000000000000000000000000008304909116917c0100000000000000000000000000000000000000000000000000000000900463ffffffff1690565b6000805463ffffffff9092167c0100000000000000000000000000000000000000000000000000000000027bffffffffffffffffffffffffffffffffffffffffffffffffffffffff6dffffffffffffffffffffffffffff9485166e010000000000000000000000000000027fffffffff0000000000000000000000000000ffffffffffffffffffffffffffff959096167fffffffffffffffffffffffffffffffffffff000000000000000000000000000090941693909317939093169390931716179055565b6000546dffffffffffffffffffffffffffff1681565b60015481565b60025481565b6000547c0100000000000000000000000000000000000000000000000000000000900463ffffffff1681565b6000546e01000000000000000000000000000090046dffffffffffffffffffffffffffff1681565b600191909155600255565b80356dffffffffffffffffffffffffffff811681146102de57600080fd5b919050565b6000806000606084860312156102f7578283fd5b610300846102c0565b925061030e602085016102c0565b9150604084013563ffffffff81168114610326578182fd5b809150509250925092565b60008060408385031215610343578182fd5b50508035926020909101359150565b6dffffffffffffffffffffffffffff91909116815260200190565b6dffffffffffffffffffffffffffff938416815291909216602082015263ffffffff909116604082015260600190565b90815260200190565b63ffffffff9190911681526020019056fea2646970667358221220b25e81cbfd632d9f419a97dd60f37cdd0777f3a611dd6af70cd73f8abc41744864736f6c63430008010033",
          "opcodes": "PUSH1 0x80 PUSH1 0x40 MSTORE CALLVALUE DUP1 ISZERO PUSH2 0x10 JUMPI PUSH1 0x0 DUP1 REVERT JUMPDEST POP PUSH2 0x3ED DUP1 PUSH2 0x20 PUSH1 0x0 CODECOPY PUSH1 0x0 RETURN INVALID PUSH1 0x80 PUSH1 0x40 MSTORE CALLVALUE DUP1 ISZERO PUSH2 0x10 JUMPI PUSH1 0x0 DUP1 REVERT JUMPDEST POP PUSH1 0x4 CALLDATASIZE LT PUSH2 0x88 JUMPI PUSH1 0x0 CALLDATALOAD PUSH1 0xE0 SHR DUP1 PUSH4 0x5A3D5493 GT PUSH2 0x5B JUMPI DUP1 PUSH4 0x5A3D5493 EQ PUSH2 0xEC JUMPI DUP1 PUSH4 0xADB61832 EQ PUSH2 0xF4 JUMPI DUP1 PUSH4 0xB9B4C463 EQ PUSH2 0x109 JUMPI DUP1 PUSH4 0xC67A02F3 EQ PUSH2 0x111 JUMPI PUSH2 0x88 JUMP JUMPDEST DUP1 PUSH4 0x902F1AC EQ PUSH2 0x8D JUMPI DUP1 PUSH4 0x18243296 EQ PUSH2 0xAD JUMPI DUP1 PUSH4 0x2C6A592F EQ PUSH2 0xC2 JUMPI DUP1 PUSH4 0x5909C0D5 EQ PUSH2 0xD7 JUMPI JUMPDEST PUSH1 0x0 DUP1 REVERT JUMPDEST PUSH2 0x95 PUSH2 0x124 JUMP JUMPDEST PUSH1 0x40 MLOAD PUSH2 0xA4 SWAP4 SWAP3 SWAP2 SWAP1 PUSH2 0x36D JUMP JUMPDEST PUSH1 0x40 MLOAD DUP1 SWAP2 SUB SWAP1 RETURN JUMPDEST PUSH2 0xC0 PUSH2 0xBB CALLDATASIZE PUSH1 0x4 PUSH2 0x2E3 JUMP JUMPDEST PUSH2 0x179 JUMP JUMPDEST STOP JUMPDEST PUSH2 0xCA PUSH2 0x23F JUMP JUMPDEST PUSH1 0x40 MLOAD PUSH2 0xA4 SWAP2 SWAP1 PUSH2 0x352 JUMP JUMPDEST PUSH2 0xDF PUSH2 0x255 JUMP JUMPDEST PUSH1 0x40 MLOAD PUSH2 0xA4 SWAP2 SWAP1 PUSH2 0x39D JUMP JUMPDEST PUSH2 0xDF PUSH2 0x25B JUMP JUMPDEST PUSH2 0xFC PUSH2 0x261 JUMP JUMPDEST PUSH1 0x40 MLOAD PUSH2 0xA4 SWAP2 SWAP1 PUSH2 0x3A6 JUMP JUMPDEST PUSH2 0xCA PUSH2 0x28D JUMP JUMPDEST PUSH2 0xC0 PUSH2 0x11F CALLDATASIZE PUSH1 0x4 PUSH2 0x331 JUMP JUMPDEST PUSH2 0x2B5 JUMP JUMPDEST PUSH1 0x0 SLOAD PUSH14 0xFFFFFFFFFFFFFFFFFFFFFFFFFFFF DUP1 DUP3 AND SWAP3 PUSH15 0x10000000000000000000000000000 DUP4 DIV SWAP1 SWAP2 AND SWAP2 PUSH29 0x100000000000000000000000000000000000000000000000000000000 SWAP1 DIV PUSH4 0xFFFFFFFF AND SWAP1 JUMP JUMPDEST PUSH1 0x0 DUP1 SLOAD PUSH4 0xFFFFFFFF SWAP1 SWAP3 AND PUSH29 0x100000000000000000000000000000000000000000000000000000000 MUL PUSH28 0xFFFFFFFFFFFFFFFFFFFFFFFFFFFFFFFFFFFFFFFFFFFFFFFFFFFFFFFF PUSH14 0xFFFFFFFFFFFFFFFFFFFFFFFFFFFF SWAP5 DUP6 AND PUSH15 0x10000000000000000000000000000 MUL PUSH32 0xFFFFFFFF0000000000000000000000000000FFFFFFFFFFFFFFFFFFFFFFFFFFFF SWAP6 SWAP1 SWAP7 AND PUSH32 0xFFFFFFFFFFFFFFFFFFFFFFFFFFFFFFFFFFFF0000000000000000000000000000 SWAP1 SWAP5 AND SWAP4 SWAP1 SWAP4 OR SWAP4 SWAP1 SWAP4 AND SWAP4 SWAP1 SWAP4 OR AND OR SWAP1 SSTORE JUMP JUMPDEST PUSH1 0x0 SLOAD PUSH14 0xFFFFFFFFFFFFFFFFFFFFFFFFFFFF AND DUP2 JUMP JUMPDEST PUSH1 0x1 SLOAD DUP2 JUMP JUMPDEST PUSH1 0x2 SLOAD DUP2 JUMP JUMPDEST PUSH1 0x0 SLOAD PUSH29 0x100000000000000000000000000000000000000000000000000000000 SWAP1 DIV PUSH4 0xFFFFFFFF AND DUP2 JUMP JUMPDEST PUSH1 0x0 SLOAD PUSH15 0x10000000000000000000000000000 SWAP1 DIV PUSH14 0xFFFFFFFFFFFFFFFFFFFFFFFFFFFF AND DUP2 JUMP JUMPDEST PUSH1 0x1 SWAP2 SWAP1 SWAP2 SSTORE PUSH1 0x2 SSTORE JUMP JUMPDEST DUP1 CALLDATALOAD PUSH14 0xFFFFFFFFFFFFFFFFFFFFFFFFFFFF DUP2 AND DUP2 EQ PUSH2 0x2DE JUMPI PUSH1 0x0 DUP1 REVERT JUMPDEST SWAP2 SWAP1 POP JUMP JUMPDEST PUSH1 0x0 DUP1 PUSH1 0x0 PUSH1 0x60 DUP5 DUP7 SUB SLT ISZERO PUSH2 0x2F7 JUMPI DUP3 DUP4 REVERT JUMPDEST PUSH2 0x300 DUP5 PUSH2 0x2C0 JUMP JUMPDEST SWAP3 POP PUSH2 0x30E PUSH1 0x20 DUP6 ADD PUSH2 0x2C0 JUMP JUMPDEST SWAP2 POP PUSH1 0x40 DUP5 ADD CALLDATALOAD PUSH4 0xFFFFFFFF DUP2 AND DUP2 EQ PUSH2 0x326 JUMPI DUP2 DUP3 REVERT JUMPDEST DUP1 SWAP2 POP POP SWAP3 POP SWAP3 POP SWAP3 JUMP JUMPDEST PUSH1 0x0 DUP1 PUSH1 0x40 DUP4 DUP6 SUB SLT ISZERO PUSH2 0x343 JUMPI DUP2 DUP3 REVERT JUMPDEST POP POP DUP1 CALLDATALOAD SWAP3 PUSH1 0x20 SWAP1 SWAP2 ADD CALLDATALOAD SWAP2 POP JUMP JUMPDEST PUSH14 0xFFFFFFFFFFFFFFFFFFFFFFFFFFFF SWAP2 SWAP1 SWAP2 AND DUP2 MSTORE PUSH1 0x20 ADD SWAP1 JUMP JUMPDEST PUSH14 0xFFFFFFFFFFFFFFFFFFFFFFFFFFFF SWAP4 DUP5 AND DUP2 MSTORE SWAP2 SWAP1 SWAP3 AND PUSH1 0x20 DUP3 ADD MSTORE PUSH4 0xFFFFFFFF SWAP1 SWAP2 AND PUSH1 0x40 DUP3 ADD MSTORE PUSH1 0x60 ADD SWAP1 JUMP JUMPDEST SWAP1 DUP2 MSTORE PUSH1 0x20 ADD SWAP1 JUMP JUMPDEST PUSH4 0xFFFFFFFF SWAP2 SWAP1 SWAP2 AND DUP2 MSTORE PUSH1 0x20 ADD SWAP1 JUMP INVALID LOG2 PUSH5 0x6970667358 0x22 SLT KECCAK256 0xB2 0x5E DUP2 0xCB REVERT PUSH4 0x2D9F419A SWAP8 0xDD PUSH1 0xF3 PUSH29 0xDD0777F3A611DD6AF70CD73F8ABC41744864736F6C6343000801003300 "
        },
        "gasEstimates": {
          "creation": {
            "codeDepositCost": "201000",
            "executionCost": "245",
            "totalCost": "201245"
          },
          "external": {
            "blockTimestamp()": "1079",
            "getReserves()": "1153",
            "price0CumulativeLast()": "1095",
            "price1CumulativeLast()": "1028",
            "reserves0()": "1091",
            "reserves1()": "1101",
            "setCumulativePrices(uint256,uint256)": "40325",
            "setReserves(uint112,uint112,uint32)": "infinite"
          }
        },
        "methodIdentifiers": {
          "blockTimestamp()": "adb61832",
          "getReserves()": "0902f1ac",
          "price0CumulativeLast()": "5909c0d5",
          "price1CumulativeLast()": "5a3d5493",
          "reserves0()": "2c6a592f",
          "reserves1()": "b9b4c463",
          "setCumulativePrices(uint256,uint256)": "c67a02f3",
          "setReserves(uint112,uint112,uint32)": "18243296"
        }
      },
      "storageLayout": {
        "storage": [
          {
            "astId": 3,
            "contract": "contracts/mocks/oracles/uniswap/UniswapV2PairMock.sol:UniswapV2PairMock",
            "label": "reserves0",
            "offset": 0,
            "slot": "0",
            "type": "t_uint112"
          },
          {
            "astId": 5,
            "contract": "contracts/mocks/oracles/uniswap/UniswapV2PairMock.sol:UniswapV2PairMock",
            "label": "reserves1",
            "offset": 14,
            "slot": "0",
            "type": "t_uint112"
          },
          {
            "astId": 7,
            "contract": "contracts/mocks/oracles/uniswap/UniswapV2PairMock.sol:UniswapV2PairMock",
            "label": "blockTimestamp",
            "offset": 28,
            "slot": "0",
            "type": "t_uint32"
          },
          {
            "astId": 9,
            "contract": "contracts/mocks/oracles/uniswap/UniswapV2PairMock.sol:UniswapV2PairMock",
            "label": "price0CumulativeLast",
            "offset": 0,
            "slot": "1",
            "type": "t_uint256"
          },
          {
            "astId": 11,
            "contract": "contracts/mocks/oracles/uniswap/UniswapV2PairMock.sol:UniswapV2PairMock",
            "label": "price1CumulativeLast",
            "offset": 0,
            "slot": "2",
            "type": "t_uint256"
          }
        ],
        "types": {
          "t_uint112": {
            "encoding": "inplace",
            "label": "uint112",
            "numberOfBytes": "14"
          },
          "t_uint256": {
            "encoding": "inplace",
            "label": "uint256",
            "numberOfBytes": "32"
          },
          "t_uint32": {
            "encoding": "inplace",
            "label": "uint32",
            "numberOfBytes": "4"
          }
        }
      },
      "userdoc": {
        "kind": "user",
        "methods": {},
        "version": 1
      }
    }
  }
}