{
  "contracts/flat/BentoBoxV1Flat.sol": {
    "BoringFactory": {
      "abi": [
        {
          "anonymous": false,
          "inputs": [
            {
              "indexed": true,
              "internalType": "address",
              "name": "masterContract",
              "type": "address"
            },
            {
              "indexed": false,
              "internalType": "bytes",
              "name": "data",
              "type": "bytes"
            },
            {
              "indexed": true,
              "internalType": "address",
              "name": "cloneAddress",
              "type": "address"
            }
          ],
          "name": "LogDeploy",
          "type": "event"
        },
        {
          "inputs": [
            {
              "internalType": "address",
              "name": "masterContract",
              "type": "address"
            },
            {
              "internalType": "bytes",
              "name": "data",
              "type": "bytes"
            },
            {
              "internalType": "bool",
              "name": "useCreate2",
              "type": "bool"
            }
          ],
          "name": "deploy",
          "outputs": [
            {
              "internalType": "address",
              "name": "cloneAddress",
              "type": "address"
            }
          ],
          "stateMutability": "payable",
          "type": "function"
        },
        {
          "inputs": [
            {
              "internalType": "address",
              "name": "",
              "type": "address"
            }
          ],
          "name": "masterContractOf",
          "outputs": [
            {
              "internalType": "address",
              "name": "",
              "type": "address"
            }
          ],
          "stateMutability": "view",
          "type": "function"
        }
      ],
      "devdoc": {
        "kind": "dev",
        "methods": {
          "deploy(address,bytes,bool)": {
            "params": {
              "data": "Additional abi encoded calldata that is passed to the new clone via `IMasterContract.init`.",
              "masterContract": "The address of the contract to clone.",
              "useCreate2": "Creates the clone by using the CREATE2 opcode, in this case `data` will be used as salt."
            },
            "returns": {
              "cloneAddress": "Address of the created clone contract."
            }
          }
        },
        "version": 1
      },
      "evm": {
        "bytecode": {
          "linkReferences": {},
          "object": "608060405234801561001057600080fd5b506104dc806100206000396000f3fe6080604052600436106100295760003560e01c80631f54245b1461002e578063bafe4f1414610057575b600080fd5b61004161003c36600461035d565b610077565b60405161004e9190610403565b60405180910390f35b34801561006357600080fd5b5061004161007236600461033b565b6102e9565b600073ffffffffffffffffffffffffffffffffffffffff85166100cf576040517f08c379a00000000000000000000000000000000000000000000000000000000081526004016100c690610471565b60405180910390fd5b606085901b821561015857600085856040516100ec9291906103f3565b604051809103902090506040517f3d602d80600a3d3981f3363d3d373d3d3d363d7300000000000000000000000081528260148201527f5af43d82803e903d91602b57fd5bf300000000000000000000000000000000006028820152816037826000f5935050506101b4565b6040517f3d602d80600a3d3981f3363d3d373d3d3d363d7300000000000000000000000081528160148201527f5af43d82803e903d91602b57fd5bf3000000000000000000000000000000000060288201526037816000f09250505b73ffffffffffffffffffffffffffffffffffffffff8281166000818152602081905260409081902080547fffffffffffffffffffffffff000000000000000000000000000000000000000016938a169390931790925590517f4ddf47d4000000000000000000000000000000000000000000000000000000008152634ddf47d49034906102479089908990600401610424565b6000604051808303818588803b15801561026057600080fd5b505af1158015610274573d6000803e3d6000fd5b50505050508173ffffffffffffffffffffffffffffffffffffffff168673ffffffffffffffffffffffffffffffffffffffff167fd62166f3c2149208e51788b1401cc356bf5da1fc6c7886a32e18570f57d88b3b87876040516102d8929190610424565b60405180910390a350949350505050565b60006020819052908152604090205473ffffffffffffffffffffffffffffffffffffffff1681565b803573ffffffffffffffffffffffffffffffffffffffff8116811461033557600080fd5b92915050565b60006020828403121561034c578081fd5b6103568383610311565b9392505050565b60008060008060608587031215610372578283fd5b61037c8686610311565b9350602085013567ffffffffffffffff80821115610398578485fd5b818701915087601f8301126103ab578485fd5b8135818111156103b9578586fd5b8860208285010111156103ca578586fd5b602083019550809450505050604085013580151581146103e8578182fd5b939692955090935050565b6000828483379101908152919050565b73ffffffffffffffffffffffffffffffffffffffff91909116815260200190565b60006020825282602083015282846040840137818301604090810191909152601f9092017fffffffffffffffffffffffffffffffffffffffffffffffffffffffffffffffe0160101919050565b6020808252818101527f426f72696e67466163746f72793a204e6f206d6173746572436f6e747261637460408201526060019056fea2646970667358221220fc358d1879021741c03c5603cb2bd4d5af3003a01c61d93bc2d1f53aaa8c1da464736f6c634300060c0033",
          "opcodes": "PUSH1 0x80 PUSH1 0x40 MSTORE CALLVALUE DUP1 ISZERO PUSH2 0x10 JUMPI PUSH1 0x0 DUP1 REVERT JUMPDEST POP PUSH2 0x4DC DUP1 PUSH2 0x20 PUSH1 0x0 CODECOPY PUSH1 0x0 RETURN INVALID PUSH1 0x80 PUSH1 0x40 MSTORE PUSH1 0x4 CALLDATASIZE LT PUSH2 0x29 JUMPI PUSH1 0x0 CALLDATALOAD PUSH1 0xE0 SHR DUP1 PUSH4 0x1F54245B EQ PUSH2 0x2E JUMPI DUP1 PUSH4 0xBAFE4F14 EQ PUSH2 0x57 JUMPI JUMPDEST PUSH1 0x0 DUP1 REVERT JUMPDEST PUSH2 0x41 PUSH2 0x3C CALLDATASIZE PUSH1 0x4 PUSH2 0x35D JUMP JUMPDEST PUSH2 0x77 JUMP JUMPDEST PUSH1 0x40 MLOAD PUSH2 0x4E SWAP2 SWAP1 PUSH2 0x403 JUMP JUMPDEST PUSH1 0x40 MLOAD DUP1 SWAP2 SUB SWAP1 RETURN JUMPDEST CALLVALUE DUP1 ISZERO PUSH2 0x63 JUMPI PUSH1 0x0 DUP1 REVERT JUMPDEST POP PUSH2 0x41 PUSH2 0x72 CALLDATASIZE PUSH1 0x4 PUSH2 0x33B JUMP JUMPDEST PUSH2 0x2E9 JUMP JUMPDEST PUSH1 0x0 PUSH20 0xFFFFFFFFFFFFFFFFFFFFFFFFFFFFFFFFFFFFFFFF DUP6 AND PUSH2 0xCF JUMPI PUSH1 0x40 MLOAD PUSH32 0x8C379A000000000000000000000000000000000000000000000000000000000 DUP2 MSTORE PUSH1 0x4 ADD PUSH2 0xC6 SWAP1 PUSH2 0x471 JUMP JUMPDEST PUSH1 0x40 MLOAD DUP1 SWAP2 SUB SWAP1 REVERT JUMPDEST PUSH1 0x60 DUP6 SWAP1 SHL DUP3 ISZERO PUSH2 0x158 JUMPI PUSH1 0x0 DUP6 DUP6 PUSH1 0x40 MLOAD PUSH2 0xEC SWAP3 SWAP2 SWAP1 PUSH2 0x3F3 JUMP JUMPDEST PUSH1 0x40 MLOAD DUP1 SWAP2 SUB SWAP1 KECCAK256 SWAP1 POP PUSH1 0x40 MLOAD PUSH32 0x3D602D80600A3D3981F3363D3D373D3D3D363D73000000000000000000000000 DUP2 MSTORE DUP3 PUSH1 0x14 DUP3 ADD MSTORE PUSH32 0x5AF43D82803E903D91602B57FD5BF30000000000000000000000000000000000 PUSH1 0x28 DUP3 ADD MSTORE DUP2 PUSH1 0x37 DUP3 PUSH1 0x0 CREATE2 SWAP4 POP POP POP PUSH2 0x1B4 JUMP JUMPDEST PUSH1 0x40 MLOAD PUSH32 0x3D602D80600A3D3981F3363D3D373D3D3D363D73000000000000000000000000 DUP2 MSTORE DUP2 PUSH1 0x14 DUP3 ADD MSTORE PUSH32 0x5AF43D82803E903D91602B57FD5BF30000000000000000000000000000000000 PUSH1 0x28 DUP3 ADD MSTORE PUSH1 0x37 DUP2 PUSH1 0x0 CREATE SWAP3 POP POP JUMPDEST PUSH20 0xFFFFFFFFFFFFFFFFFFFFFFFFFFFFFFFFFFFFFFFF DUP3 DUP2 AND PUSH1 0x0 DUP2 DUP2 MSTORE PUSH1 0x20 DUP2 SWAP1 MSTORE PUSH1 0x40 SWAP1 DUP2 SWAP1 KECCAK256 DUP1 SLOAD PUSH32 0xFFFFFFFFFFFFFFFFFFFFFFFF0000000000000000000000000000000000000000 AND SWAP4 DUP11 AND SWAP4 SWAP1 SWAP4 OR SWAP1 SWAP3 SSTORE SWAP1 MLOAD PUSH32 0x4DDF47D400000000000000000000000000000000000000000000000000000000 DUP2 MSTORE PUSH4 0x4DDF47D4 SWAP1 CALLVALUE SWAP1 PUSH2 0x247 SWAP1 DUP10 SWAP1 DUP10 SWAP1 PUSH1 0x4 ADD PUSH2 0x424 JUMP JUMPDEST PUSH1 0x0 PUSH1 0x40 MLOAD DUP1 DUP4 SUB DUP2 DUP6 DUP9 DUP1 EXTCODESIZE ISZERO DUP1 ISZERO PUSH2 0x260 JUMPI PUSH1 0x0 DUP1 REVERT JUMPDEST POP GAS CALL ISZERO DUP1 ISZERO PUSH2 0x274 JUMPI RETURNDATASIZE PUSH1 0x0 DUP1 RETURNDATACOPY RETURNDATASIZE PUSH1 0x0 REVERT JUMPDEST POP POP POP POP POP DUP2 PUSH20 0xFFFFFFFFFFFFFFFFFFFFFFFFFFFFFFFFFFFFFFFF AND DUP7 PUSH20 0xFFFFFFFFFFFFFFFFFFFFFFFFFFFFFFFFFFFFFFFF AND PUSH32 0xD62166F3C2149208E51788B1401CC356BF5DA1FC6C7886A32E18570F57D88B3B DUP8 DUP8 PUSH1 0x40 MLOAD PUSH2 0x2D8 SWAP3 SWAP2 SWAP1 PUSH2 0x424 JUMP JUMPDEST PUSH1 0x40 MLOAD DUP1 SWAP2 SUB SWAP1 LOG3 POP SWAP5 SWAP4 POP POP POP POP JUMP JUMPDEST PUSH1 0x0 PUSH1 0x20 DUP2 SWAP1 MSTORE SWAP1 DUP2 MSTORE PUSH1 0x40 SWAP1 KECCAK256 SLOAD PUSH20 0xFFFFFFFFFFFFFFFFFFFFFFFFFFFFFFFFFFFFFFFF AND DUP2 JUMP JUMPDEST DUP1 CALLDATALOAD PUSH20 0xFFFFFFFFFFFFFFFFFFFFFFFFFFFFFFFFFFFFFFFF DUP2 AND DUP2 EQ PUSH2 0x335 JUMPI PUSH1 0x0 DUP1 REVERT JUMPDEST SWAP3 SWAP2 POP POP JUMP JUMPDEST PUSH1 0x0 PUSH1 0x20 DUP3 DUP5 SUB SLT ISZERO PUSH2 0x34C JUMPI DUP1 DUP2 REVERT JUMPDEST PUSH2 0x356 DUP4 DUP4 PUSH2 0x311 JUMP JUMPDEST SWAP4 SWAP3 POP POP POP JUMP JUMPDEST PUSH1 0x0 DUP1 PUSH1 0x0 DUP1 PUSH1 0x60 DUP6 DUP8 SUB SLT ISZERO PUSH2 0x372 JUMPI DUP3 DUP4 REVERT JUMPDEST PUSH2 0x37C DUP7 DUP7 PUSH2 0x311 JUMP JUMPDEST SWAP4 POP PUSH1 0x20 DUP6 ADD CALLDATALOAD PUSH8 0xFFFFFFFFFFFFFFFF DUP1 DUP3 GT ISZERO PUSH2 0x398 JUMPI DUP5 DUP6 REVERT JUMPDEST DUP2 DUP8 ADD SWAP2 POP DUP8 PUSH1 0x1F DUP4 ADD SLT PUSH2 0x3AB JUMPI DUP5 DUP6 REVERT JUMPDEST DUP2 CALLDATALOAD DUP2 DUP2 GT ISZERO PUSH2 0x3B9 JUMPI DUP6 DUP7 REVERT JUMPDEST DUP9 PUSH1 0x20 DUP3 DUP6 ADD ADD GT ISZERO PUSH2 0x3CA JUMPI DUP6 DUP7 REVERT JUMPDEST PUSH1 0x20 DUP4 ADD SWAP6 POP DUP1 SWAP5 POP POP POP POP PUSH1 0x40 DUP6 ADD CALLDATALOAD DUP1 ISZERO ISZERO DUP2 EQ PUSH2 0x3E8 JUMPI DUP2 DUP3 REVERT JUMPDEST SWAP4 SWAP7 SWAP3 SWAP6 POP SWAP1 SWAP4 POP POP JUMP JUMPDEST PUSH1 0x0 DUP3 DUP5 DUP4 CALLDATACOPY SWAP2 ADD SWAP1 DUP2 MSTORE SWAP2 SWAP1 POP JUMP JUMPDEST PUSH20 0xFFFFFFFFFFFFFFFFFFFFFFFFFFFFFFFFFFFFFFFF SWAP2 SWAP1 SWAP2 AND DUP2 MSTORE PUSH1 0x20 ADD SWAP1 JUMP JUMPDEST PUSH1 0x0 PUSH1 0x20 DUP3 MSTORE DUP3 PUSH1 0x20 DUP4 ADD MSTORE DUP3 DUP5 PUSH1 0x40 DUP5 ADD CALLDATACOPY DUP2 DUP4 ADD PUSH1 0x40 SWAP1 DUP2 ADD SWAP2 SWAP1 SWAP2 MSTORE PUSH1 0x1F SWAP1 SWAP3 ADD PUSH32 0xFFFFFFFFFFFFFFFFFFFFFFFFFFFFFFFFFFFFFFFFFFFFFFFFFFFFFFFFFFFFFFE0 AND ADD ADD SWAP2 SWAP1 POP JUMP JUMPDEST PUSH1 0x20 DUP1 DUP3 MSTORE DUP2 DUP2 ADD MSTORE PUSH32 0x426F72696E67466163746F72793A204E6F206D6173746572436F6E7472616374 PUSH1 0x40 DUP3 ADD MSTORE PUSH1 0x60 ADD SWAP1 JUMP INVALID LOG2 PUSH5 0x6970667358 0x22 SLT KECCAK256 0xFC CALLDATALOAD DUP14 XOR PUSH26 0x21741C03C5603CB2BD4D5AF3003A01C61D93BC2D1F53AAA8C1D LOG4 PUSH5 0x736F6C6343 STOP MOD 0xC STOP CALLER "
        },
        "gasEstimates": {
          "creation": {
            "codeDepositCost": "248800",
            "executionCost": "287",
            "totalCost": "249087"
          },
          "external": {
            "deploy(address,bytes,bool)": "infinite",
            "masterContractOf(address)": "1266"
          }
        },
        "methodIdentifiers": {
          "deploy(address,bytes,bool)": "1f54245b",
          "masterContractOf(address)": "bafe4f14"
        }
      },
      "storageLayout": {
        "storage": [
          {
            "astId": 1051,
            "contract": "contracts/flat/BentoBoxV1Flat.sol:BoringFactory",
            "label": "masterContractOf",
            "offset": 0,
            "slot": "0",
            "type": "t_mapping(t_address,t_address)"
          }
        ],
        "types": {
          "t_address": {
            "encoding": "inplace",
            "label": "address",
            "numberOfBytes": "20"
          },
          "t_mapping(t_address,t_address)": {
            "encoding": "mapping",
            "key": "t_address",
            "label": "mapping(address => address)",
            "numberOfBytes": "32",
            "value": "t_address"
          }
        }
      },
      "userdoc": {
        "kind": "user",
        "methods": {
          "deploy(address,bytes,bool)": {
            "notice": "Deploys a given master Contract as a clone. Any ETH transferred with this call is forwarded to the new clone. Emits `LogDeploy`."
          },
          "masterContractOf(address)": {
            "notice": "Mapping from clone contracts to their masterContract."
          }
        },
        "version": 1
      }
    }
  }
}