{
  "_format": "hh-sol-artifact-1",
  "contractName": "ERC20Rewards",
  "sourceName": "contracts/utils/token/ERC20Rewards.sol",
  "abi": [
    {
      "inputs": [
        {
          "internalType": "string",
          "name": "name",
          "type": "string"
        },
        {
          "internalType": "string",
          "name": "symbol",
          "type": "string"
        },
        {
          "internalType": "uint8",
          "name": "decimals",
          "type": "uint8"
        }
      ],
      "stateMutability": "nonpayable",
      "type": "constructor"
    },
    {
      "anonymous": false,
      "inputs": [
        {
          "indexed": true,
          "internalType": "address",
          "name": "owner",
          "type": "address"
        },
        {
          "indexed": true,
          "internalType": "address",
          "name": "spender",
          "type": "address"
        },
        {
          "indexed": false,
          "internalType": "uint256",
          "name": "value",
          "type": "uint256"
        }
      ],
      "name": "Approval",
      "type": "event"
    },
    {
      "anonymous": false,
      "inputs": [
        {
          "indexed": false,
          "internalType": "address",
          "name": "receiver",
          "type": "address"
        },
        {
          "indexed": false,
          "internalType": "uint256",
          "name": "claimed",
          "type": "uint256"
        }
      ],
      "name": "Claimed",
      "type": "event"
    },
    {
      "anonymous": false,
      "inputs": [
        {
          "indexed": false,
          "internalType": "uint256",
          "name": "accumulated",
          "type": "uint256"
        }
      ],
      "name": "RewardsPerTokenUpdated",
      "type": "event"
    },
    {
      "anonymous": false,
      "inputs": [
        {
          "indexed": false,
          "internalType": "contract IERC20",
          "name": "rewardsToken",
          "type": "address"
        },
        {
          "indexed": false,
          "internalType": "uint32",
          "name": "start",
          "type": "uint32"
        },
        {
          "indexed": false,
          "internalType": "uint32",
          "name": "end",
          "type": "uint32"
        },
        {
          "indexed": false,
          "internalType": "uint256",
          "name": "rate",
          "type": "uint256"
        }
      ],
      "name": "RewardsSet",
      "type": "event"
    },
    {
      "anonymous": false,
      "inputs": [
        {
          "indexed": true,
          "internalType": "bytes4",
          "name": "role",
          "type": "bytes4"
        },
        {
          "indexed": true,
          "internalType": "bytes4",
          "name": "newAdminRole",
          "type": "bytes4"
        }
      ],
      "name": "RoleAdminChanged",
      "type": "event"
    },
    {
      "anonymous": false,
      "inputs": [
        {
          "indexed": true,
          "internalType": "bytes4",
          "name": "role",
          "type": "bytes4"
        },
        {
          "indexed": true,
          "internalType": "address",
          "name": "account",
          "type": "address"
        },
        {
          "indexed": true,
          "internalType": "address",
          "name": "sender",
          "type": "address"
        }
      ],
      "name": "RoleGranted",
      "type": "event"
    },
    {
      "anonymous": false,
      "inputs": [
        {
          "indexed": true,
          "internalType": "bytes4",
          "name": "role",
          "type": "bytes4"
        },
        {
          "indexed": true,
          "internalType": "address",
          "name": "account",
          "type": "address"
        },
        {
          "indexed": true,
          "internalType": "address",
          "name": "sender",
          "type": "address"
        }
      ],
      "name": "RoleRevoked",
      "type": "event"
    },
    {
      "anonymous": false,
      "inputs": [
        {
          "indexed": true,
          "internalType": "address",
          "name": "from",
          "type": "address"
        },
        {
          "indexed": true,
          "internalType": "address",
          "name": "to",
          "type": "address"
        },
        {
          "indexed": false,
          "internalType": "uint256",
          "name": "value",
          "type": "uint256"
        }
      ],
      "name": "Transfer",
      "type": "event"
    },
    {
      "anonymous": false,
      "inputs": [
        {
          "indexed": false,
          "internalType": "address",
          "name": "user",
          "type": "address"
        },
        {
          "indexed": false,
          "internalType": "uint256",
          "name": "userRewards",
          "type": "uint256"
        },
        {
          "indexed": false,
          "internalType": "uint256",
          "name": "paidRewardPerToken",
          "type": "uint256"
        }
      ],
      "name": "UserRewardsUpdated",
      "type": "event"
    },
    {
      "inputs": [],
      "name": "DOMAIN_SEPARATOR",
      "outputs": [
        {
          "internalType": "bytes32",
          "name": "",
          "type": "bytes32"
        }
      ],
      "stateMutability": "view",
      "type": "function"
    },
    {
      "inputs": [],
      "name": "LOCK",
      "outputs": [
        {
          "internalType": "bytes4",
          "name": "",
          "type": "bytes4"
        }
      ],
      "stateMutability": "view",
      "type": "function"
    },
    {
      "inputs": [],
      "name": "PERMIT_TYPEHASH",
      "outputs": [
        {
          "internalType": "bytes32",
          "name": "",
          "type": "bytes32"
        }
      ],
      "stateMutability": "view",
      "type": "function"
    },
    {
      "inputs": [],
      "name": "ROOT",
      "outputs": [
        {
          "internalType": "bytes4",
          "name": "",
          "type": "bytes4"
        }
      ],
      "stateMutability": "view",
      "type": "function"
    },
    {
      "inputs": [
        {
          "internalType": "address",
          "name": "owner",
          "type": "address"
        },
        {
          "internalType": "address",
          "name": "spender",
          "type": "address"
        }
      ],
      "name": "allowance",
      "outputs": [
        {
          "internalType": "uint256",
          "name": "",
          "type": "uint256"
        }
      ],
      "stateMutability": "view",
      "type": "function"
    },
    {
      "inputs": [
        {
          "internalType": "address",
          "name": "spender",
          "type": "address"
        },
        {
          "internalType": "uint256",
          "name": "wad",
          "type": "uint256"
        }
      ],
      "name": "approve",
      "outputs": [
        {
          "internalType": "bool",
          "name": "",
          "type": "bool"
        }
      ],
      "stateMutability": "nonpayable",
      "type": "function"
    },
    {
      "inputs": [
        {
          "internalType": "address",
          "name": "guy",
          "type": "address"
        }
      ],
      "name": "balanceOf",
      "outputs": [
        {
          "internalType": "uint256",
          "name": "",
          "type": "uint256"
        }
      ],
      "stateMutability": "view",
      "type": "function"
    },
    {
      "inputs": [
        {
          "internalType": "address",
          "name": "to",
          "type": "address"
        }
      ],
      "name": "claim",
      "outputs": [
        {
          "internalType": "uint256",
          "name": "claiming",
          "type": "uint256"
        }
      ],
      "stateMutability": "nonpayable",
      "type": "function"
    },
    {
      "inputs": [],
      "name": "decimals",
      "outputs": [
        {
          "internalType": "uint8",
          "name": "",
          "type": "uint8"
        }
      ],
      "stateMutability": "view",
      "type": "function"
    },
    {
      "inputs": [],
      "name": "deploymentChainId",
      "outputs": [
        {
          "internalType": "uint256",
          "name": "",
          "type": "uint256"
        }
      ],
      "stateMutability": "view",
      "type": "function"
    },
    {
      "inputs": [
        {
          "internalType": "bytes4",
          "name": "role",
          "type": "bytes4"
        }
      ],
      "name": "getRoleAdmin",
      "outputs": [
        {
          "internalType": "bytes4",
          "name": "",
          "type": "bytes4"
        }
      ],
      "stateMutability": "view",
      "type": "function"
    },
    {
      "inputs": [
        {
          "internalType": "bytes4",
          "name": "role",
          "type": "bytes4"
        },
        {
          "internalType": "address",
          "name": "account",
          "type": "address"
        }
      ],
      "name": "grantRole",
      "outputs": [],
      "stateMutability": "nonpayable",
      "type": "function"
    },
    {
      "inputs": [
        {
          "internalType": "bytes4[]",
          "name": "roles",
          "type": "bytes4[]"
        },
        {
          "internalType": "address",
          "name": "account",
          "type": "address"
        }
      ],
      "name": "grantRoles",
      "outputs": [],
      "stateMutability": "nonpayable",
      "type": "function"
    },
    {
      "inputs": [
        {
          "internalType": "bytes4",
          "name": "role",
          "type": "bytes4"
        },
        {
          "internalType": "address",
          "name": "account",
          "type": "address"
        }
      ],
      "name": "hasRole",
      "outputs": [
        {
          "internalType": "bool",
          "name": "",
          "type": "bool"
        }
      ],
      "stateMutability": "view",
      "type": "function"
    },
    {
      "inputs": [
        {
          "internalType": "bytes4",
          "name": "role",
          "type": "bytes4"
        }
      ],
      "name": "lockRole",
      "outputs": [],
      "stateMutability": "nonpayable",
      "type": "function"
    },
    {
      "inputs": [],
      "name": "name",
      "outputs": [
        {
          "internalType": "string",
          "name": "",
          "type": "string"
        }
      ],
      "stateMutability": "view",
      "type": "function"
    },
    {
      "inputs": [
        {
          "internalType": "address",
          "name": "",
          "type": "address"
        }
      ],
      "name": "nonces",
      "outputs": [
        {
          "internalType": "uint256",
          "name": "",
          "type": "uint256"
        }
      ],
      "stateMutability": "view",
      "type": "function"
    },
    {
      "inputs": [
        {
          "internalType": "address",
          "name": "owner",
          "type": "address"
        },
        {
          "internalType": "address",
          "name": "spender",
          "type": "address"
        },
        {
          "internalType": "uint256",
          "name": "amount",
          "type": "uint256"
        },
        {
          "internalType": "uint256",
          "name": "deadline",
          "type": "uint256"
        },
        {
          "internalType": "uint8",
          "name": "v",
          "type": "uint8"
        },
        {
          "internalType": "bytes32",
          "name": "r",
          "type": "bytes32"
        },
        {
          "internalType": "bytes32",
          "name": "s",
          "type": "bytes32"
        }
      ],
      "name": "permit",
      "outputs": [],
      "stateMutability": "nonpayable",
      "type": "function"
    },
    {
      "inputs": [
        {
          "internalType": "bytes4",
          "name": "role",
          "type": "bytes4"
        },
        {
          "internalType": "address",
          "name": "account",
          "type": "address"
        }
      ],
      "name": "renounceRole",
      "outputs": [],
      "stateMutability": "nonpayable",
      "type": "function"
    },
    {
      "inputs": [
        {
          "internalType": "bytes4",
          "name": "role",
          "type": "bytes4"
        },
        {
          "internalType": "address",
          "name": "account",
          "type": "address"
        }
      ],
      "name": "revokeRole",
      "outputs": [],
      "stateMutability": "nonpayable",
      "type": "function"
    },
    {
      "inputs": [
        {
          "internalType": "bytes4[]",
          "name": "roles",
          "type": "bytes4[]"
        },
        {
          "internalType": "address",
          "name": "account",
          "type": "address"
        }
      ],
      "name": "revokeRoles",
      "outputs": [],
      "stateMutability": "nonpayable",
      "type": "function"
    },
    {
      "inputs": [
        {
          "internalType": "address",
          "name": "",
          "type": "address"
        }
      ],
      "name": "rewards",
      "outputs": [
        {
          "internalType": "uint128",
          "name": "accumulated",
          "type": "uint128"
        },
        {
          "internalType": "uint128",
          "name": "checkpoint",
          "type": "uint128"
        }
      ],
      "stateMutability": "view",
      "type": "function"
    },
    {
      "inputs": [],
      "name": "rewardsPerToken",
      "outputs": [
        {
          "internalType": "uint128",
          "name": "accumulated",
          "type": "uint128"
        },
        {
          "internalType": "uint32",
          "name": "lastUpdated",
          "type": "uint32"
        },
        {
          "internalType": "uint96",
          "name": "rate",
          "type": "uint96"
        }
      ],
      "stateMutability": "view",
      "type": "function"
    },
    {
      "inputs": [],
      "name": "rewardsPeriod",
      "outputs": [
        {
          "internalType": "uint32",
          "name": "start",
          "type": "uint32"
        },
        {
          "internalType": "uint32",
          "name": "end",
          "type": "uint32"
        }
      ],
      "stateMutability": "view",
      "type": "function"
    },
    {
      "inputs": [],
      "name": "rewardsToken",
      "outputs": [
        {
          "internalType": "contract IERC20",
          "name": "",
          "type": "address"
        }
      ],
      "stateMutability": "view",
      "type": "function"
    },
    {
      "inputs": [
        {
          "internalType": "contract IERC20",
          "name": "rewardsToken_",
          "type": "address"
        },
        {
          "internalType": "uint32",
          "name": "start",
          "type": "uint32"
        },
        {
          "internalType": "uint32",
          "name": "end",
          "type": "uint32"
        },
        {
          "internalType": "uint96",
          "name": "rate",
          "type": "uint96"
        }
      ],
      "name": "setRewards",
      "outputs": [],
      "stateMutability": "nonpayable",
      "type": "function"
    },
    {
      "inputs": [
        {
          "internalType": "bytes4",
          "name": "role",
          "type": "bytes4"
        },
        {
          "internalType": "bytes4",
          "name": "adminRole",
          "type": "bytes4"
        }
      ],
      "name": "setRoleAdmin",
      "outputs": [],
      "stateMutability": "nonpayable",
      "type": "function"
    },
    {
      "inputs": [],
      "name": "symbol",
      "outputs": [
        {
          "internalType": "string",
          "name": "",
          "type": "string"
        }
      ],
      "stateMutability": "view",
      "type": "function"
    },
    {
      "inputs": [],
      "name": "totalSupply",
      "outputs": [
        {
          "internalType": "uint256",
          "name": "",
          "type": "uint256"
        }
      ],
      "stateMutability": "view",
      "type": "function"
    },
    {
      "inputs": [
        {
          "internalType": "address",
          "name": "dst",
          "type": "address"
        },
        {
          "internalType": "uint256",
          "name": "wad",
          "type": "uint256"
        }
      ],
      "name": "transfer",
      "outputs": [
        {
          "internalType": "bool",
          "name": "",
          "type": "bool"
        }
      ],
      "stateMutability": "nonpayable",
      "type": "function"
    },
    {
      "inputs": [
        {
          "internalType": "address",
          "name": "src",
          "type": "address"
        },
        {
          "internalType": "address",
          "name": "dst",
          "type": "address"
        },
        {
          "internalType": "uint256",
          "name": "wad",
          "type": "uint256"
        }
      ],
      "name": "transferFrom",
      "outputs": [
        {
          "internalType": "bool",
          "name": "",
          "type": "bool"
        }
      ],
      "stateMutability": "nonpayable",
      "type": "function"
    },
    {
      "inputs": [],
      "name": "version",
      "outputs": [
        {
          "internalType": "string",
          "name": "",
          "type": "string"
        }
      ],
      "stateMutability": "pure",
      "type": "function"
    }
  ],
  "bytecode": "0x610120604052600360e0819052623f3f3f60e81b6101009081526200002891600491906200032c565b50604080518082019091526003808252623f3f3f60e81b602090920191825262000055916005916200032c565b506006805460ff191660121790557f6e71edae12b1b97f4d1f60370fef10105fa2faae0126114a169c64845d6126c96080523480156200009457600080fd5b50604051620028e6380380620028e6833981016040819052620000b79162000485565b828282828282620000ca60003362000142565b620000de6001600160e01b031980620001b7565b8251620000f39060049060208601906200032c565b508151620001099060059060208501906200032c565b506006805460ff191660ff9290921691909117905550504660c0819052620001318162000239565b60a052506200063695505050505050565b6200014e8282620002ba565b620001b3576001600160e01b031982166000818152602081815260408083206001600160a01b0386168085529252808320805460ff1916600117905551339391927fe6231789d19137da31d0550f4ba9ee379020a8cfb64cb79bf1790c996d2e616591a45b5050565b6001600160e01b03198116620001cd83620002ef565b6001600160e01b03191614620001b3576001600160e01b0319828116600081815260208190526040808220600101805463ffffffff191660e087901c17905551928416927fd348e2220a50b4500ec353f6e802d2f14dd1b5d6786148fd1bbcc570bf92d4739190a35050565b60007f8b73c3c69bb8fe3d512ecc4cf759cc79239f7b179b0ffacaa9a75d522b39400f60046040516200026d919062000506565b6040519081900390206200028062000311565b80516020918201206040516200029d9493928791309101620005ab565b604051602081830303815290604052805190602001209050919050565b6001600160e01b031982166000908152602081815260408083206001600160a01b038516845290915290205460ff1692915050565b6001600160e01b03191660009081526020819052604090206001015460e01b90565b6040805180820190915260018152603160f81b602082015290565b8280546200033a90620005e3565b90600052602060002090601f0160209004810192826200035e5760008555620003a9565b82601f106200037957805160ff1916838001178555620003a9565b82800160010185558215620003a9579182015b82811115620003a95782518255916020019190600101906200038c565b50620003b7929150620003bb565b5090565b5b80821115620003b75760008155600101620003bc565b600082601f830112620003e3578081fd5b81516001600160401b038082111562000400576200040062000620565b604051601f8301601f19908116603f011681019082821181831017156200042b576200042b62000620565b8160405283815260209250868385880101111562000447578485fd5b8491505b838210156200046a57858201830151818301840152908201906200044b565b838211156200047b57848385830101525b9695505050505050565b6000806000606084860312156200049a578283fd5b83516001600160401b0380821115620004b1578485fd5b620004bf87838801620003d2565b94506020860151915080821115620004d5578384fd5b50620004e486828701620003d2565b925050604084015160ff81168114620004fb578182fd5b809150509250925092565b81546000908190600281046001808316806200052357607f831692505b60208084108214156200054457634e487b7160e01b87526022600452602487fd5b8180156200055b57600181146200056d576200059d565b60ff198616895284890196506200059d565b620005788a620005d7565b885b86811015620005955781548b8201529085019083016200057a565b505084890196505b509498975050505050505050565b9485526020850193909352604084019190915260608301526001600160a01b0316608082015260a00190565b60009081526020902090565b600281046001821680620005f857607f821691505b602082108114156200061a57634e487b7160e01b600052602260045260246000fd5b50919050565b634e487b7160e01b600052604160045260246000fd5b60805160a05160c05161226462000682600039600081816108db01528181610be50152610cbb0152600081816109100152610cf00152600081816106b00152610c5501526122646000f3fe608060405234801561001057600080fd5b50600436106101f05760003560e01c80635ba5e9f01161010f578063ad82110f116100a2578063d505accf11610071578063d505accf146103fe578063dd62ed3e14610411578063de02cde714610424578063effae35314610437576101f0565b8063ad82110f146103bb578063ae93c1b5146103ce578063cd0d0096146103e1578063d1af0c7d146103e9576101f0565b80637ecebe00116100de5780637ecebe001461038557806395d89b4114610398578063a4f0d7d0146103a0578063a9059cbb146103a8576101f0565b80635ba5e9f014610335578063687f0e4c1461034857806370641a361461035b57806370a0823114610372576101f0565b806330adf81f1161018757806344faded01161015657806344faded0146102f257806354fd4d5014610305578063559742d91461030d5780635909c12f14610320576101f0565b806330adf81f146102b8578063313ce567146102c05780633440f228146102d55780633644e515146102ea576101f0565b806318160ddd116101c357806318160ddd146102675780631e83409a1461027c57806323b872dd1461028f57806326ae2b78146102a2576101f0565b806306fdde03146101f55780630700037d14610213578063095ea7b31461023457806310ab943214610254575b600080fd5b6101fd61044a565b60405161020a9190611dfe565b60405180910390f35b6102266102213660046118d9565b6104d8565b60405161020a92919061205d565b6102476102423660046119e2565b610514565b60405161020a9190611cf0565b610247610262366004611b1f565b610528565b61026f610534565b60405161020a9190611cfb565b61026f61028a3660046118d9565b61053b565b61024761029d36600461192d565b610676565b6102aa610696565b60405161020a9291906120be565b61026f6106ae565b6102c86106d2565b60405161020a91906120d5565b6102e86102e3366004611b6c565b6106db565b005b61026f6108d6565b6102e8610300366004611b1f565b610936565b6101fd610974565b6102e861031b366004611b05565b6109ab565b610328610a02565b60405161020a9190611d82565b610328610343366004611b05565b610a07565b6102e8610356366004611b1f565b610a1a565b610363610a4c565b60405161020a93929190612080565b61026f6103803660046118d9565b610aa7565b61026f6103933660046118d9565b610ac2565b6101fd610ad4565b610328610ae1565b6102476103b63660046119e2565b610b05565b6102e86103c9366004611a0d565b610b12565b6102e86103dc366004611b3a565b610bb0565b61026f610be3565b6103f1610c07565b60405161020a9190611daf565b6102e861040c36600461196d565b610c16565b61026f61041f3660046118f5565b610dec565b6102e8610432366004611b1f565b610e17565b6102e8610445366004611a0d565b610e4a565b6004805461045790612194565b80601f016020809104026020016040519081016040528092919081815260200182805461048390612194565b80156104d05780601f106104a5576101008083540402835291602001916104d0565b820191906000526020600020905b8154815290600101906020018083116104b357829003601f168201915b505050505081565b600b602052600090815260409020546fffffffffffffffffffffffffffffffff8082169170010000000000000000000000000000000090041682565b6000610521338484610edb565b9392505050565b60006105218383610f4b565b6001545b90565b6000610545610f98565b5061054f3361121c565b336000908152600b60205260409081902080547fffffffffffffffffffffffffffffffff0000000000000000000000000000000016905560085490517fa9059cbb0000000000000000000000000000000000000000000000000000000081526fffffffffffffffffffffffffffffffff9290921692506001600160a01b03169063a9059cbb906105e59085908590600401611cd7565b602060405180830381600087803b1580156105ff57600080fd5b505af1158015610613573d6000803e3d6000fd5b505050506040513d601f19601f820116820180604052508101906106379190611ae5565b507fd8138f8a3f377c5259ca548e70e4c2de94f129f5a11036a15b69513cba2b426a8282604051610669929190611cd7565b60405180910390a1919050565b60006106828483611406565b5061068e84848461147f565b949350505050565b60095463ffffffff8082169164010000000090041682565b7f000000000000000000000000000000000000000000000000000000000000000081565b60065460ff1681565b6107096000357fffffffff000000000000000000000000000000000000000000000000000000001633610f4b565b61072e5760405162461bcd60e51b815260040161072590611fd2565b60405180910390fd5b60095463ffffffff16610740426114a9565b63ffffffff16108061076f5750600954640100000000900463ffffffff16610767426114a9565b63ffffffff16115b61078b5760405162461bcd60e51b815260040161072590612009565b600880547fffffffffffffffffffffffff0000000000000000000000000000000000000000166001600160a01b038681169190911791829055600980547fffffffffffffffffffffffffffffffffffffffffffffffffffffffff000000001663ffffffff8781169182177fffffffffffffffffffffffffffffffffffffffffffffffff00000000ffffffff166401000000009188169190910217909155600a80547fffffffffffffffffffffffff00000000ffffffffffffffffffffffffffffffff16700100000000000000000000000000000000909202919091178216740100000000000000000000000000000000000000006bffffffffffffffffffffffff8616021790556040517f9c87adc6291cc27b2c0f08bdadf0f0567ba92cc2eeab400f8749e58b4937fcc5926108c8921690869086908690611dc3565b60405180910390a150505050565b6000467f0000000000000000000000000000000000000000000000000000000000000000811461090e57610909816114d3565b610930565b7f00000000000000000000000000000000000000000000000000000000000000005b91505090565b816109496109438261154d565b33610f4b565b6109655760405162461bcd60e51b815260040161072590611ef6565b61096f8383611587565b505050565b60408051808201909152600181527f3100000000000000000000000000000000000000000000000000000000000000602082015290565b806109b86109438261154d565b6109d45760405162461bcd60e51b815260040161072590611ef6565b6109fe827fffffffff0000000000000000000000000000000000000000000000000000000061160e565b5050565b600081565b6000610a128261154d565b90505b919050565b6001600160a01b0381163314610a425760405162461bcd60e51b815260040161072590611f9b565b6109fe8282611587565b600a546fffffffffffffffffffffffffffffffff811690700100000000000000000000000000000000810463ffffffff16907401000000000000000000000000000000000000000090046bffffffffffffffffffffffff1683565b6001600160a01b031660009081526002602052604090205490565b60076020526000908152604090205481565b6005805461045790612194565b7fffffffff0000000000000000000000000000000000000000000000000000000081565b600061052133848461147f565b60005b825181101561096f57610b51610943848381518110610b4457634e487b7160e01b600052603260045260246000fd5b602002602001015161154d565b610b6d5760405162461bcd60e51b815260040161072590611ef6565b610b9e838281518110610b9057634e487b7160e01b600052603260045260246000fd5b602002602001015183611587565b80610ba8816121cf565b915050610b15565b81610bbd6109438261154d565b610bd95760405162461bcd60e51b815260040161072590611ef6565b61096f838361160e565b7f000000000000000000000000000000000000000000000000000000000000000081565b6008546001600160a01b031681565b42841015610c365760405162461bcd60e51b815260040161072590611e88565b6001600160a01b038716600090815260076020526040812080544692917f0000000000000000000000000000000000000000000000000000000000000000918b918b918b9186610c85836121cf565b919050558a604051602001610c9f96959493929190611d04565b60405160208183030381529060405280519060200120905060007f00000000000000000000000000000000000000000000000000000000000000008314610cee57610ce9836114d3565b610d10565b7f00000000000000000000000000000000000000000000000000000000000000005b82604051602001610d22929190611c6e565b604051602081830303815290604052805190602001209050600060018288888860405160008152602001604052604051610d5f9493929190611d64565b6020604051602081039080840390855afa158015610d81573d6000803e3d6000fd5b5050604051601f1901519150506001600160a01b03811615801590610db757508a6001600160a01b0316816001600160a01b0316145b610dd35760405162461bcd60e51b815260040161072590611f64565b610dde8b8b8b610edb565b505050505050505050505050565b6001600160a01b03918216600090815260036020908152604080832093909416825291909152205490565b81610e246109438261154d565b610e405760405162461bcd60e51b815260040161072590611ef6565b61096f83836116f0565b60005b825181101561096f57610e7c610943848381518110610b4457634e487b7160e01b600052603260045260246000fd5b610e985760405162461bcd60e51b815260040161072590611ef6565b610ec9838281518110610ebb57634e487b7160e01b600052603260045260246000fd5b6020026020010151836116f0565b80610ed3816121cf565b915050610e4d565b6001600160a01b0380841660008181526003602090815260408083209487168084529490915280822085905551909291907f8c5be1e5ebec7d5bd14f71427d1e84f3dd0314c0f7b2291e5b200ac8c7c3b92590610f39908690611cfb565b60405180910390a35060019392505050565b7fffffffff0000000000000000000000000000000000000000000000000000000082166000908152602081815260408083206001600160a01b038516845290915290205460ff1692915050565b60408051606081018252600a546fffffffffffffffffffffffffffffffff81168252700100000000000000000000000000000000810463ffffffff908116602080850191909152740100000000000000000000000000000000000000009092046bffffffffffffffffffffffff1683850152835180850190945260095480821685526401000000009004169083015260015460009290158061104e5750805163ffffffff16611046426114a9565b63ffffffff16105b1561105e57600092505050610538565b806020015163ffffffff16826020015163ffffffff16106110825750519050610538565b600061109a611090426114a9565b8360200151611779565b905060008360200151826110ae9190612177565b63ffffffff16905061111a60015485604001516bffffffffffffffffffffffff1683670de0b6b3a76400006110e39190612127565b6110ed9190612127565b6110f79190612107565b855161111591906fffffffffffffffffffffffffffffffff166120ef565b61179b565b6fffffffffffffffffffffffffffffffff1680855263ffffffff831660208601819052600a80546040808901517fffffffffffffffffffffffffffffffff0000000000000000000000000000000090921685177fffffffffffffffffffffffff00000000ffffffffffffffffffffffffffffffff16700100000000000000000000000000000000909402939093176001600160a01b0316740100000000000000000000000000000000000000006bffffffffffffffffffffffff90921691909102179055517fe972555b20cae8150e291bb40efce3ef4e3ed6b6b2c39c029346600e95469d489161120a91612040565b60405180910390a15050905191505090565b6001600160a01b0381166000908152600b602090815260408083208151808301835290546fffffffffffffffffffffffffffffffff80821683527001000000000000000000000000000000009182900481168386019081528451606081018652600a5492831680825293830463ffffffff1696810196909652740100000000000000000000000000000000000000009091046bffffffffffffffffffffffff1693850193909352915190929161133d91670de0b6b3a7640000916112e09190612146565b6001600160a01b038716600090815260026020526040902054611315916fffffffffffffffffffffffffffffffff1690612127565b61131f9190612107565b835161111591906fffffffffffffffffffffffffffffffff166120ef565b6fffffffffffffffffffffffffffffffff90811683528151811660208085019182526001600160a01b0387166000908152600b9091526040908190208551815493517fffffffffffffffffffffffffffffffff0000000000000000000000000000000090941681861617851670010000000000000000000000000000000095851695909502949094179055517f5b9aaf4cc5141c090a75f8b8a627863eba92df81f0c83c096350da9b79aedd04926113f6928892611ca4565b60405180910390a1505192915050565b60006001600160a01b0383163314611476576001600160a01b0383166000908152600360209081526040808320338452909152902054600019811461147457828110156114655760405162461bcd60e51b815260040161072590611ebf565b6114728433858403610edb565b505b505b50600192915050565b6000611489610f98565b506114938461121c565b5061149d8361121c565b5061068e8484846117cd565b600063ffffffff8211156114cf5760405162461bcd60e51b815260040161072590611e51565b5090565b60007f8b73c3c69bb8fe3d512ecc4cf759cc79239f7b179b0ffacaa9a75d522b39400f60046040516115059190611bd3565b6040518091039020611515610974565b80516020918201206040516115309493928791309101611d38565b604051602081830303815290604052805190602001209050919050565b7fffffffff000000000000000000000000000000000000000000000000000000001660009081526020819052604090206001015460e01b90565b6115918282610f4b565b156109fe577fffffffff0000000000000000000000000000000000000000000000000000000082166000818152602081815260408083206001600160a01b0386168085529252808320805460ff1916905551339391927f4ddc7b757e7bdd7254a9cd39452d307a52761bc824625c6a33104a075d8099e691a45050565b7fffffffff00000000000000000000000000000000000000000000000000000000811661163a8361154d565b7fffffffff0000000000000000000000000000000000000000000000000000000016146109fe577fffffffff0000000000000000000000000000000000000000000000000000000082811660008181526020819052604080822060010180547fffffffffffffffffffffffffffffffffffffffffffffffffffffffff000000001660e087901c17905551928416927fd348e2220a50b4500ec353f6e802d2f14dd1b5d6786148fd1bbcc570bf92d4739190a35050565b6116fa8282610f4b565b6109fe577fffffffff0000000000000000000000000000000000000000000000000000000082166000818152602081815260408083206001600160a01b0386168085529252808320805460ff1916600117905551339391927fe6231789d19137da31d0550f4ba9ee379020a8cfb64cb79bf1790c996d2e616591a45050565b60008163ffffffff168363ffffffff16106117945781610521565b5090919050565b60006fffffffffffffffffffffffffffffffff8211156114cf5760405162461bcd60e51b815260040161072590611e51565b6001600160a01b0383166000908152600260205260408120548211156118055760405162461bcd60e51b815260040161072590611f2d565b6001600160a01b0380851660009081526002602052604080822080548690039055918516815220546118389083906120ef565b6001600160a01b0380851660008181526002602052604090819020939093559151908616907fddf252ad1be2c89b69c2b068fc378daa952ba7f163c4a11628f55a4df523b3ef90610f39908690611cfb565b8035610a1581612216565b80357fffffffff0000000000000000000000000000000000000000000000000000000081168114610a1557600080fd5b803563ffffffff81168114610a1557600080fd5b6000602082840312156118ea578081fd5b813561052181612216565b60008060408385031215611907578081fd5b823561191281612216565b9150602083013561192281612216565b809150509250929050565b600080600060608486031215611941578081fd5b833561194c81612216565b9250602084013561195c81612216565b929592945050506040919091013590565b600080600080600080600060e0888a031215611987578283fd5b873561199281612216565b965060208801356119a281612216565b95506040880135945060608801359350608088013560ff811681146119c5578384fd5b9699959850939692959460a0840135945060c09093013592915050565b600080604083850312156119f4578182fd5b82356119ff81612216565b946020939093013593505050565b60008060408385031215611a1f578182fd5b823567ffffffffffffffff80821115611a36578384fd5b818501915085601f830112611a49578384fd5b8135602082821115611a5d57611a5d612200565b808202604051601f19603f83011681018181108682111715611a8157611a81612200565b604052838152828101945085830182870184018b1015611a9f578889fd5b8896505b84871015611ac857611ab481611895565b865260019690960195948301948301611aa3565b509650611ad8905087820161188a565b9450505050509250929050565b600060208284031215611af6578081fd5b81518015158114610521578182fd5b600060208284031215611b16578081fd5b61052182611895565b60008060408385031215611b31578182fd5b61191283611895565b60008060408385031215611b4c578182fd5b611b5583611895565b9150611b6360208401611895565b90509250929050565b60008060008060808587031215611b81578384fd5b8435611b8c81612216565b9350611b9a602086016118c5565b9250611ba8604086016118c5565b915060608501356bffffffffffffffffffffffff81168114611bc8578182fd5b939692955090935050565b8154600090819060028104600180831680611bef57607f831692505b6020808410821415611c0f57634e487b7160e01b87526022600452602487fd5b818015611c235760018114611c3457611c60565b60ff19861689528489019650611c60565b611c3d8a6120e3565b885b86811015611c585781548b820152908501908301611c3f565b505084890196505b509498975050505050505050565b7f190100000000000000000000000000000000000000000000000000000000000081526002810192909252602282015260420190565b6001600160a01b039390931683526fffffffffffffffffffffffffffffffff918216602084015216604082015260600190565b6001600160a01b03929092168252602082015260400190565b901515815260200190565b90815260200190565b9586526001600160a01b0394851660208701529290931660408501526060840152608083019190915260a082015260c00190565b9485526020850193909352604084019190915260608301526001600160a01b0316608082015260a00190565b93845260ff9290921660208401526040830152606082015260800190565b7fffffffff0000000000000000000000000000000000000000000000000000000091909116815260200190565b6001600160a01b0391909116815260200190565b6001600160a01b0394909416845263ffffffff9283166020850152911660408301526bffffffffffffffffffffffff16606082015260800190565b6000602080835283518082850152825b81811015611e2a57858101830151858201604001528201611e0e565b81811115611e3b5783604083870101525b50601f01601f1916929092016040019392505050565b6020808252600d908201527f43617374206f766572666c6f7700000000000000000000000000000000000000604082015260600190565b6020808252601d908201527f45524332305065726d69743a206578706972656420646561646c696e65000000604082015260600190565b6020808252601c908201527f45524332303a20496e73756666696369656e7420617070726f76616c00000000604082015260600190565b6020808252600a908201527f4f6e6c792061646d696e00000000000000000000000000000000000000000000604082015260600190565b6020808252601b908201527f45524332303a20496e73756666696369656e742062616c616e63650000000000604082015260600190565b6020808252601e908201527f45524332305065726d69743a20696e76616c6964207369676e61747572650000604082015260600190565b60208082526016908201527f52656e6f756e6365206f6e6c7920666f722073656c6600000000000000000000604082015260600190565b6020808252600d908201527f4163636573732064656e69656400000000000000000000000000000000000000604082015260600190565b6020808252600f908201527f4f6e676f696e6720726577617264730000000000000000000000000000000000604082015260600190565b6fffffffffffffffffffffffffffffffff91909116815260200190565b6fffffffffffffffffffffffffffffffff92831681529116602082015260400190565b6fffffffffffffffffffffffffffffffff93909316835263ffffffff9190911660208301526bffffffffffffffffffffffff16604082015260600190565b63ffffffff92831681529116602082015260400190565b60ff91909116815260200190565b60009081526020902090565b60008219821115612102576121026121ea565b500190565b60008261212257634e487b7160e01b81526012600452602481fd5b500490565b6000816000190483118215151615612141576121416121ea565b500290565b60006fffffffffffffffffffffffffffffffff8381169083168181101561216f5761216f6121ea565b039392505050565b600063ffffffff8381169083168181101561216f5761216f6121ea565b6002810460018216806121a857607f821691505b602082108114156121c957634e487b7160e01b600052602260045260246000fd5b50919050565b60006000198214156121e3576121e36121ea565b5060010190565b634e487b7160e01b600052601160045260246000fd5b634e487b7160e01b600052604160045260246000fd5b6001600160a01b038116811461222b57600080fd5b5056fea26469706673582212200cc9bf3aa712684e9ae6d348d25ee18242445d4e95abca4b59ac8a691dfdb1e864736f6c63430008010033",
  "linkReferences": {},
  "deployedLinkReferences": {}
}