{
  "_format": "hh-sol-artifact-1",
  "contractName": "ChainlinkAggregatorV3Mock",
  "sourceName": "contracts/mocks/oracles/chainlink/ChainlinkAggregatorV3Mock.sol",
  "abi": [
    {
      "inputs": [
        {
          "internalType": "uint8",
          "name": "decimals_",
          "type": "uint8"
        }
      ],
      "stateMutability": "nonpayable",
      "type": "constructor"
    },
    {
      "inputs": [],
      "name": "decimals",
      "outputs": [
        {
          "internalType": "uint8",
          "name": "",
          "type": "uint8"
        }
      ],
      "stateMutability": "view",
      "type": "function"
    },
    {
      "inputs": [],
      "name": "latestRoundData",
      "outputs": [
        {
          "internalType": "uint80",
          "name": "",
          "type": "uint80"
        },
        {
          "internalType": "int256",
          "name": "",
          "type": "int256"
        },
        {
          "internalType": "uint256",
          "name": "",
          "type": "uint256"
        },
        {
          "internalType": "uint256",
          "name": "",
          "type": "uint256"
        },
        {
          "internalType": "uint80",
          "name": "",
          "type": "uint80"
        }
      ],
      "stateMutability": "view",
      "type": "function"
    },
    {
      "inputs": [],
      "name": "price",
      "outputs": [
        {
          "internalType": "int256",
          "name": "",
          "type": "int256"
        }
      ],
      "stateMutability": "view",
      "type": "function"
    },
    {
      "inputs": [
        {
          "internalType": "uint256",
          "name": "price_",
          "type": "uint256"
        }
      ],
      "name": "set",
      "outputs": [],
      "stateMutability": "nonpayable",
      "type": "function"
    },
    {
      "inputs": [],
      "name": "timestamp",
      "outputs": [
        {
          "internalType": "uint256",
          "name": "",
          "type": "uint256"
        }
      ],
      "stateMutability": "view",
      "type": "function"
    }
  ],
  "bytecode": "0x608060405234801561001057600080fd5b5060405161048a38038061048a83398101604081905261002f91610048565b6002805460ff191660ff92909216919091179055610070565b600060208284031215610059578081fd5b815160ff81168114610069578182fd5b9392505050565b61040b8061007f6000396000f3fe608060405234801561001057600080fd5b50600436106100675760003560e01c8063a035b1fe11610050578063a035b1fe1461009f578063b80777ea146100b4578063feaf968c146100bc57610067565b8063313ce5671461006c57806360fe47b11461008a575b600080fd5b6100746100d5565b60405161008191906101be565b60405180910390f35b61009d61009836600461016a565b6100de565b005b6100a761014d565b6040516100819190610182565b6100a7610153565b6100c4610159565b60405161008195949392919061018b565b60025460ff1681565b600254601260ff9091161161011b576002546100fe9060ff166012610383565b61010990600a61024b565b61011390826101cc565b600055610146565b60025461012d9060129060ff16610383565b61013890600a61024b565b6101429082610346565b6000555b5042600155565b60005481565b60015481565b600080546001548290819091929394565b60006020828403121561017b578081fd5b5035919050565b90815260200190565b69ffffffffffffffffffff9586168152602081019490945260408401929092526060830152909116608082015260a00190565b60ff91909116815260200190565b600082610200577f4e487b710000000000000000000000000000000000000000000000000000000081526012600452602481fd5b500490565b80825b60018086116102175750610242565b818704821115610229576102296103a6565b8086161561023657918102915b9490941c938002610208565b94509492505050565b600061027b7fffffffffffffffffffffffffffffffffffffffffffffffffffffffffffffffff60ff851684610282565b9392505050565b6000826102915750600161027b565b8161029e5750600061027b565b81600181146102b457600281146102be576102eb565b600191505061027b565b60ff8411156102cf576102cf6103a6565b6001841b9150848211156102e5576102e56103a6565b5061027b565b5060208310610133831016604e8410600b841016171561031e575081810a83811115610319576103196103a6565b61027b565b61032b8484846001610205565b80860482111561033d5761033d6103a6565b02949350505050565b6000817fffffffffffffffffffffffffffffffffffffffffffffffffffffffffffffffff048311821515161561037e5761037e6103a6565b500290565b600060ff821660ff84168082101561039d5761039d6103a6565b90039392505050565b7f4e487b7100000000000000000000000000000000000000000000000000000000600052601160045260246000fdfea264697066735822122046f38d13b459cf4b633df63882b719068a6d09288f5b310ad43842fc0c9f657e64736f6c63430008010033",
  "linkReferences": {},
  "deployedLinkReferences": {}
}