{
  "_format": "hh-sol-artifact-1",
  "contractName": "MockTopUpAction",
  "sourceName": "contracts/testing/MockTopUpAction.sol",
  "abi": [
    {
      "inputs": [
        {
          "internalType": "contract IController",
          "name": "_controller",
          "type": "address"
        }
      ],
      "stateMutability": "nonpayable",
      "type": "constructor"
    },
    {
      "anonymous": false,
      "inputs": [
        {
          "indexed": true,
          "internalType": "bytes32",
          "name": "key",
          "type": "bytes32"
        },
        {
          "indexed": false,
          "internalType": "address",
          "name": "value",
          "type": "address"
        },
        {
          "indexed": false,
          "internalType": "uint256",
          "name": "delay",
          "type": "uint256"
        }
      ],
      "name": "ConfigPreparedAddress",
      "type": "event"
    },
    {
      "anonymous": false,
      "inputs": [
        {
          "indexed": true,
          "internalType": "bytes32",
          "name": "key",
          "type": "bytes32"
        },
        {
          "indexed": false,
          "internalType": "uint256",
          "name": "value",
          "type": "uint256"
        },
        {
          "indexed": false,
          "internalType": "uint256",
          "name": "delay",
          "type": "uint256"
        }
      ],
      "name": "ConfigPreparedNumber",
      "type": "event"
    },
    {
      "anonymous": false,
      "inputs": [
        {
          "indexed": true,
          "internalType": "bytes32",
          "name": "key",
          "type": "bytes32"
        }
      ],
      "name": "ConfigReset",
      "type": "event"
    },
    {
      "anonymous": false,
      "inputs": [
        {
          "indexed": true,
          "internalType": "bytes32",
          "name": "key",
          "type": "bytes32"
        },
        {
          "indexed": false,
          "internalType": "address",
          "name": "oldValue",
          "type": "address"
        },
        {
          "indexed": false,
          "internalType": "address",
          "name": "newValue",
          "type": "address"
        }
      ],
      "name": "ConfigUpdatedAddress",
      "type": "event"
    },
    {
      "anonymous": false,
      "inputs": [
        {
          "indexed": true,
          "internalType": "bytes32",
          "name": "key",
          "type": "bytes32"
        },
        {
          "indexed": false,
          "internalType": "uint256",
          "name": "oldValue",
          "type": "uint256"
        },
        {
          "indexed": false,
          "internalType": "uint256",
          "name": "newValue",
          "type": "uint256"
        }
      ],
      "name": "ConfigUpdatedNumber",
      "type": "event"
    },
    {
      "anonymous": false,
      "inputs": [
        {
          "indexed": true,
          "internalType": "address",
          "name": "payer",
          "type": "address"
        },
        {
          "indexed": true,
          "internalType": "bytes32",
          "name": "account",
          "type": "bytes32"
        },
        {
          "indexed": true,
          "internalType": "bytes32",
          "name": "protocol",
          "type": "bytes32"
        }
      ],
      "name": "Deregister",
      "type": "event"
    },
    {
      "anonymous": false,
      "inputs": [
        {
          "indexed": true,
          "internalType": "bytes32",
          "name": "account",
          "type": "bytes32"
        },
        {
          "indexed": true,
          "internalType": "bytes32",
          "name": "protocol",
          "type": "bytes32"
        },
        {
          "indexed": true,
          "internalType": "uint256",
          "name": "threshold",
          "type": "uint256"
        },
        {
          "indexed": false,
          "internalType": "address",
          "name": "payer",
          "type": "address"
        },
        {
          "indexed": false,
          "internalType": "address",
          "name": "depositToken",
          "type": "address"
        },
        {
          "indexed": false,
          "internalType": "uint256",
          "name": "depositAmount",
          "type": "uint256"
        },
        {
          "indexed": false,
          "internalType": "address",
          "name": "actionToken",
          "type": "address"
        },
        {
          "indexed": false,
          "internalType": "uint256",
          "name": "singleTopUpAmount",
          "type": "uint256"
        },
        {
          "indexed": false,
          "internalType": "uint256",
          "name": "totalTopUpAmount",
          "type": "uint256"
        },
        {
          "indexed": false,
          "internalType": "uint256",
          "name": "maxGasPrice",
          "type": "uint256"
        },
        {
          "indexed": false,
          "internalType": "bytes",
          "name": "extra",
          "type": "bytes"
        }
      ],
      "name": "Register",
      "type": "event"
    },
    {
      "anonymous": false,
      "inputs": [
        {
          "indexed": true,
          "internalType": "bytes32",
          "name": "account",
          "type": "bytes32"
        },
        {
          "indexed": true,
          "internalType": "bytes32",
          "name": "protocol",
          "type": "bytes32"
        },
        {
          "indexed": true,
          "internalType": "address",
          "name": "payer",
          "type": "address"
        },
        {
          "indexed": false,
          "internalType": "address",
          "name": "depositToken",
          "type": "address"
        },
        {
          "indexed": false,
          "internalType": "uint256",
          "name": "consumedDepositAmount",
          "type": "uint256"
        },
        {
          "indexed": false,
          "internalType": "address",
          "name": "actionToken",
          "type": "address"
        },
        {
          "indexed": false,
          "internalType": "uint256",
          "name": "topupAmount",
          "type": "uint256"
        }
      ],
      "name": "TopUp",
      "type": "event"
    },
    {
      "inputs": [
        {
          "internalType": "address",
          "name": "token",
          "type": "address"
        }
      ],
      "name": "addUsableToken",
      "outputs": [
        {
          "internalType": "bool",
          "name": "",
          "type": "bool"
        }
      ],
      "stateMutability": "nonpayable",
      "type": "function"
    },
    {
      "inputs": [],
      "name": "addressProvider",
      "outputs": [
        {
          "internalType": "contract IAddressProvider",
          "name": "",
          "type": "address"
        }
      ],
      "stateMutability": "view",
      "type": "function"
    },
    {
      "inputs": [],
      "name": "controller",
      "outputs": [
        {
          "internalType": "contract IController",
          "name": "",
          "type": "address"
        }
      ],
      "stateMutability": "view",
      "type": "function"
    },
    {
      "inputs": [
        {
          "internalType": "bytes32",
          "name": "",
          "type": "bytes32"
        }
      ],
      "name": "currentAddresses",
      "outputs": [
        {
          "internalType": "address",
          "name": "",
          "type": "address"
        }
      ],
      "stateMutability": "view",
      "type": "function"
    },
    {
      "inputs": [
        {
          "internalType": "bytes32",
          "name": "",
          "type": "bytes32"
        }
      ],
      "name": "currentUInts256",
      "outputs": [
        {
          "internalType": "uint256",
          "name": "",
          "type": "uint256"
        }
      ],
      "stateMutability": "view",
      "type": "function"
    },
    {
      "inputs": [
        {
          "internalType": "bytes32",
          "name": "",
          "type": "bytes32"
        }
      ],
      "name": "deadlines",
      "outputs": [
        {
          "internalType": "uint256",
          "name": "",
          "type": "uint256"
        }
      ],
      "stateMutability": "view",
      "type": "function"
    },
    {
      "inputs": [
        {
          "internalType": "address",
          "name": "payer",
          "type": "address"
        },
        {
          "internalType": "bytes32",
          "name": "account",
          "type": "bytes32"
        },
        {
          "internalType": "address",
          "name": "beneficiary",
          "type": "address"
        },
        {
          "internalType": "bytes32",
          "name": "protocol",
          "type": "bytes32"
        },
        {
          "internalType": "uint256",
          "name": "maxWeiForGas",
          "type": "uint256"
        }
      ],
      "name": "execute",
      "outputs": [
        {
          "internalType": "bool",
          "name": "",
          "type": "bool"
        }
      ],
      "stateMutability": "nonpayable",
      "type": "function"
    },
    {
      "inputs": [
        {
          "internalType": "address",
          "name": "payer",
          "type": "address"
        },
        {
          "internalType": "bytes32",
          "name": "account",
          "type": "bytes32"
        },
        {
          "internalType": "address",
          "name": "beneficiary",
          "type": "address"
        },
        {
          "internalType": "bytes32",
          "name": "protocol",
          "type": "bytes32"
        }
      ],
      "name": "execute",
      "outputs": [
        {
          "internalType": "bool",
          "name": "",
          "type": "bool"
        }
      ],
      "stateMutability": "nonpayable",
      "type": "function"
    },
    {
      "inputs": [],
      "name": "executeActionFee",
      "outputs": [
        {
          "internalType": "uint256",
          "name": "",
          "type": "uint256"
        }
      ],
      "stateMutability": "nonpayable",
      "type": "function"
    },
    {
      "inputs": [],
      "name": "executeEstimatedGasUsage",
      "outputs": [
        {
          "internalType": "uint256",
          "name": "",
          "type": "uint256"
        }
      ],
      "stateMutability": "nonpayable",
      "type": "function"
    },
    {
      "inputs": [],
      "name": "executeFeeHandler",
      "outputs": [
        {
          "internalType": "address",
          "name": "",
          "type": "address"
        }
      ],
      "stateMutability": "nonpayable",
      "type": "function"
    },
    {
      "inputs": [],
      "name": "executeSwapperSlippage",
      "outputs": [
        {
          "internalType": "uint256",
          "name": "",
          "type": "uint256"
        }
      ],
      "stateMutability": "nonpayable",
      "type": "function"
    },
    {
      "inputs": [
        {
          "internalType": "bytes32",
          "name": "protocol",
          "type": "bytes32"
        }
      ],
      "name": "executeTopUpHandler",
      "outputs": [
        {
          "internalType": "address",
          "name": "",
          "type": "address"
        }
      ],
      "stateMutability": "nonpayable",
      "type": "function"
    },
    {
      "inputs": [],
      "name": "getActionFee",
      "outputs": [
        {
          "internalType": "uint256",
          "name": "",
          "type": "uint256"
        }
      ],
      "stateMutability": "view",
      "type": "function"
    },
    {
      "inputs": [],
      "name": "getEstimatedGasUsage",
      "outputs": [
        {
          "internalType": "uint256",
          "name": "",
          "type": "uint256"
        }
      ],
      "stateMutability": "view",
      "type": "function"
    },
    {
      "inputs": [
        {
          "internalType": "address",
          "name": "payer",
          "type": "address"
        }
      ],
      "name": "getEthRequiredForGas",
      "outputs": [
        {
          "internalType": "uint256",
          "name": "",
          "type": "uint256"
        }
      ],
      "stateMutability": "view",
      "type": "function"
    },
    {
      "inputs": [],
      "name": "getFeeHandler",
      "outputs": [
        {
          "internalType": "address",
          "name": "",
          "type": "address"
        }
      ],
      "stateMutability": "view",
      "type": "function"
    },
    {
      "inputs": [
        {
          "internalType": "bytes32",
          "name": "protocol",
          "type": "bytes32"
        }
      ],
      "name": "getHandler",
      "outputs": [
        {
          "internalType": "address",
          "name": "",
          "type": "address"
        }
      ],
      "stateMutability": "view",
      "type": "function"
    },
    {
      "inputs": [
        {
          "internalType": "bytes32",
          "name": "protocol",
          "type": "bytes32"
        },
        {
          "internalType": "bytes32",
          "name": "account",
          "type": "bytes32"
        },
        {
          "internalType": "bytes",
          "name": "extra",
          "type": "bytes"
        }
      ],
      "name": "getHealthFactor",
      "outputs": [
        {
          "internalType": "uint256",
          "name": "healthFactor",
          "type": "uint256"
        }
      ],
      "stateMutability": "view",
      "type": "function"
    },
    {
      "inputs": [
        {
          "internalType": "address",
          "name": "payer",
          "type": "address"
        },
        {
          "internalType": "bytes32",
          "name": "account",
          "type": "bytes32"
        },
        {
          "internalType": "bytes32",
          "name": "protocol",
          "type": "bytes32"
        }
      ],
      "name": "getPosition",
      "outputs": [
        {
          "components": [
            {
              "internalType": "uint64",
              "name": "threshold",
              "type": "uint64"
            },
            {
              "internalType": "uint64",
              "name": "priorityFee",
              "type": "uint64"
            },
            {
              "internalType": "uint64",
              "name": "maxFee",
              "type": "uint64"
            },
            {
              "internalType": "address",
              "name": "actionToken",
              "type": "address"
            },
            {
              "internalType": "address",
              "name": "depositToken",
              "type": "address"
            },
            {
              "internalType": "uint128",
              "name": "singleTopUpAmount",
              "type": "uint128"
            },
            {
              "internalType": "uint128",
              "name": "totalTopUpAmount",
              "type": "uint128"
            },
            {
              "internalType": "uint128",
              "name": "depositTokenBalance",
              "type": "uint128"
            },
            {
              "internalType": "bytes",
              "name": "extra",
              "type": "bytes"
            }
          ],
          "internalType": "struct ITopUpAction.Record",
          "name": "",
          "type": "tuple"
        }
      ],
      "stateMutability": "view",
      "type": "function"
    },
    {
      "inputs": [],
      "name": "getSupportedProtocols",
      "outputs": [
        {
          "internalType": "bytes32[]",
          "name": "",
          "type": "bytes32[]"
        }
      ],
      "stateMutability": "view",
      "type": "function"
    },
    {
      "inputs": [],
      "name": "getSwapperSlippage",
      "outputs": [
        {
          "internalType": "uint256",
          "name": "",
          "type": "uint256"
        }
      ],
      "stateMutability": "view",
      "type": "function"
    },
    {
      "inputs": [
        {
          "internalType": "bytes32",
          "name": "protocol",
          "type": "bytes32"
        }
      ],
      "name": "getTopUpHandler",
      "outputs": [
        {
          "internalType": "address",
          "name": "",
          "type": "address"
        }
      ],
      "stateMutability": "view",
      "type": "function"
    },
    {
      "inputs": [],
      "name": "getUsableTokens",
      "outputs": [
        {
          "internalType": "address[]",
          "name": "",
          "type": "address[]"
        }
      ],
      "stateMutability": "view",
      "type": "function"
    },
    {
      "inputs": [
        {
          "internalType": "address",
          "name": "payer",
          "type": "address"
        }
      ],
      "name": "getUserPositions",
      "outputs": [
        {
          "components": [
            {
              "internalType": "bytes32",
              "name": "account",
              "type": "bytes32"
            },
            {
              "internalType": "bytes32",
              "name": "protocol",
              "type": "bytes32"
            }
          ],
          "internalType": "struct ITopUpAction.RecordMeta[]",
          "name": "",
          "type": "tuple[]"
        }
      ],
      "stateMutability": "view",
      "type": "function"
    },
    {
      "inputs": [
        {
          "internalType": "address",
          "name": "feeHandler",
          "type": "address"
        },
        {
          "internalType": "bytes32[]",
          "name": "protocols",
          "type": "bytes32[]"
        },
        {
          "internalType": "address[]",
          "name": "handlers",
          "type": "address[]"
        }
      ],
      "name": "initialize",
      "outputs": [],
      "stateMutability": "nonpayable",
      "type": "function"
    },
    {
      "inputs": [
        {
          "internalType": "address",
          "name": "token",
          "type": "address"
        }
      ],
      "name": "isUsable",
      "outputs": [
        {
          "internalType": "bool",
          "name": "",
          "type": "bool"
        }
      ],
      "stateMutability": "view",
      "type": "function"
    },
    {
      "inputs": [
        {
          "internalType": "bytes32",
          "name": "",
          "type": "bytes32"
        }
      ],
      "name": "pendingAddresses",
      "outputs": [
        {
          "internalType": "address",
          "name": "",
          "type": "address"
        }
      ],
      "stateMutability": "view",
      "type": "function"
    },
    {
      "inputs": [
        {
          "internalType": "bytes32",
          "name": "",
          "type": "bytes32"
        }
      ],
      "name": "pendingUInts256",
      "outputs": [
        {
          "internalType": "uint256",
          "name": "",
          "type": "uint256"
        }
      ],
      "stateMutability": "view",
      "type": "function"
    },
    {
      "inputs": [
        {
          "internalType": "uint256",
          "name": "newActionFee",
          "type": "uint256"
        }
      ],
      "name": "prepareActionFee",
      "outputs": [
        {
          "internalType": "bool",
          "name": "",
          "type": "bool"
        }
      ],
      "stateMutability": "nonpayable",
      "type": "function"
    },
    {
      "inputs": [
        {
          "internalType": "uint256",
          "name": "gasUsage",
          "type": "uint256"
        }
      ],
      "name": "prepareEstimatedGasUsage",
      "outputs": [
        {
          "internalType": "bool",
          "name": "",
          "type": "bool"
        }
      ],
      "stateMutability": "nonpayable",
      "type": "function"
    },
    {
      "inputs": [
        {
          "internalType": "address",
          "name": "handler",
          "type": "address"
        }
      ],
      "name": "prepareFeeHandler",
      "outputs": [
        {
          "internalType": "bool",
          "name": "",
          "type": "bool"
        }
      ],
      "stateMutability": "nonpayable",
      "type": "function"
    },
    {
      "inputs": [
        {
          "internalType": "uint256",
          "name": "newSwapperSlippage",
          "type": "uint256"
        }
      ],
      "name": "prepareSwapperSlippage",
      "outputs": [
        {
          "internalType": "bool",
          "name": "",
          "type": "bool"
        }
      ],
      "stateMutability": "nonpayable",
      "type": "function"
    },
    {
      "inputs": [
        {
          "internalType": "bytes32",
          "name": "protocol",
          "type": "bytes32"
        },
        {
          "internalType": "address",
          "name": "newHandler",
          "type": "address"
        }
      ],
      "name": "prepareTopUpHandler",
      "outputs": [
        {
          "internalType": "bool",
          "name": "",
          "type": "bool"
        }
      ],
      "stateMutability": "nonpayable",
      "type": "function"
    },
    {
      "inputs": [
        {
          "internalType": "bytes32",
          "name": "account",
          "type": "bytes32"
        },
        {
          "internalType": "bytes32",
          "name": "protocol",
          "type": "bytes32"
        },
        {
          "internalType": "uint128",
          "name": "depositAmount",
          "type": "uint128"
        },
        {
          "components": [
            {
              "internalType": "uint64",
              "name": "threshold",
              "type": "uint64"
            },
            {
              "internalType": "uint64",
              "name": "priorityFee",
              "type": "uint64"
            },
            {
              "internalType": "uint64",
              "name": "maxFee",
              "type": "uint64"
            },
            {
              "internalType": "address",
              "name": "actionToken",
              "type": "address"
            },
            {
              "internalType": "address",
              "name": "depositToken",
              "type": "address"
            },
            {
              "internalType": "uint128",
              "name": "singleTopUpAmount",
              "type": "uint128"
            },
            {
              "internalType": "uint128",
              "name": "totalTopUpAmount",
              "type": "uint128"
            },
            {
              "internalType": "uint128",
              "name": "depositTokenBalance",
              "type": "uint128"
            },
            {
              "internalType": "bytes",
              "name": "extra",
              "type": "bytes"
            }
          ],
          "internalType": "struct ITopUpAction.Record",
          "name": "record",
          "type": "tuple"
        }
      ],
      "name": "register",
      "outputs": [
        {
          "internalType": "bool",
          "name": "",
          "type": "bool"
        }
      ],
      "stateMutability": "payable",
      "type": "function"
    },
    {
      "inputs": [],
      "name": "resetActionFee",
      "outputs": [
        {
          "internalType": "bool",
          "name": "",
          "type": "bool"
        }
      ],
      "stateMutability": "nonpayable",
      "type": "function"
    },
    {
      "inputs": [],
      "name": "resetFeeHandler",
      "outputs": [
        {
          "internalType": "bool",
          "name": "",
          "type": "bool"
        }
      ],
      "stateMutability": "nonpayable",
      "type": "function"
    },
    {
      "inputs": [],
      "name": "resetGasUsage",
      "outputs": [
        {
          "internalType": "bool",
          "name": "",
          "type": "bool"
        }
      ],
      "stateMutability": "nonpayable",
      "type": "function"
    },
    {
      "inputs": [
        {
          "internalType": "bytes32",
          "name": "account",
          "type": "bytes32"
        },
        {
          "internalType": "bytes32",
          "name": "protocol",
          "type": "bytes32"
        },
        {
          "internalType": "bool",
          "name": "unstake",
          "type": "bool"
        }
      ],
      "name": "resetPosition",
      "outputs": [
        {
          "internalType": "bool",
          "name": "",
          "type": "bool"
        }
      ],
      "stateMutability": "nonpayable",
      "type": "function"
    },
    {
      "inputs": [],
      "name": "resetSwapperSlippage",
      "outputs": [
        {
          "internalType": "bool",
          "name": "",
          "type": "bool"
        }
      ],
      "stateMutability": "nonpayable",
      "type": "function"
    },
    {
      "inputs": [
        {
          "internalType": "bytes32",
          "name": "protocol",
          "type": "bytes32"
        }
      ],
      "name": "resetTopUpHandler",
      "outputs": [
        {
          "internalType": "bool",
          "name": "",
          "type": "bool"
        }
      ],
      "stateMutability": "nonpayable",
      "type": "function"
    },
    {
      "inputs": [],
      "name": "roleManager",
      "outputs": [
        {
          "internalType": "contract IRoleManager",
          "name": "",
          "type": "address"
        }
      ],
      "stateMutability": "view",
      "type": "function"
    },
    {
      "inputs": [
        {
          "internalType": "uint256",
          "name": "fee",
          "type": "uint256"
        }
      ],
      "name": "setActionFee",
      "outputs": [],
      "stateMutability": "nonpayable",
      "type": "function"
    },
    {
      "inputs": [
        {
          "internalType": "address",
          "name": "payer",
          "type": "address"
        },
        {
          "internalType": "address",
          "name": "keeper",
          "type": "address"
        },
        {
          "internalType": "uint256",
          "name": "amount",
          "type": "uint256"
        },
        {
          "internalType": "address",
          "name": "lpToken",
          "type": "address"
        }
      ],
      "name": "testingPayFees",
      "outputs": [],
      "stateMutability": "nonpayable",
      "type": "function"
    },
    {
      "inputs": [
        {
          "internalType": "address",
          "name": "feeHandlerAddress",
          "type": "address"
        }
      ],
      "name": "updateFeeHandler",
      "outputs": [],
      "stateMutability": "nonpayable",
      "type": "function"
    },
    {
      "inputs": [
        {
          "internalType": "uint256",
          "name": "cursor",
          "type": "uint256"
        },
        {
          "internalType": "uint256",
          "name": "howMany",
          "type": "uint256"
        }
      ],
      "name": "usersWithPositions",
      "outputs": [
        {
          "internalType": "address[]",
          "name": "users",
          "type": "address[]"
        },
        {
          "internalType": "uint256",
          "name": "nextCursor",
          "type": "uint256"
        }
      ],
      "stateMutability": "view",
      "type": "function"
    },
    {
      "stateMutability": "payable",
      "type": "receive"
    }
  ],
  "bytecode": "0x60e06040523480156200001157600080fd5b50604051620065ee380380620065ee83398101604081905262000034916200029e565b80620000c8816001600160a01b0316632954018c6040518163ffffffff1660e01b815260040160206040518083038186803b1580156200007357600080fd5b505afa15801562000088573d6000803e3d6000fd5b505050506040513d601f19601f82011682018060405250810190620000ae91906200029e565b6001600160a01b03166200018760201b62003fc51760201c565b6001600160a01b03908116608052811660a081905260408051630a55006360e21b81529051632954018c91600480820192602092909190829003018186803b1580156200011457600080fd5b505afa15801562000129573d6000803e3d6000fd5b505050506040513d601f19601f820116820180604052508101906200014f91906200029e565b6001600160a01b031660c0526200017e70457374696d61746564476173557361676560781b6207a12062000219565b505050620002c5565b6040516321f8a72160e01b81526a3937b632a6b0b730b3b2b960a91b60048201526000906001600160a01b038316906321f8a7219060240160206040518083038186803b158015620001d857600080fd5b505afa158015620001ed573d6000803e3d6000fd5b505050506040513d601f19601f820116820180604052508101906200021391906200029e565b92915050565b6000828152600360209081526040808320805490859055600183528184208490556004835281842084905581518181529283018590529185917fcc0bafe2accb565ea70674bf4b2555e49a47d410fb9932dfab3e5f41855d0a2f910160405180910390a2509092915050565b6001600160a01b03811681146200029b57600080fd5b50565b600060208284031215620002b157600080fd5b8151620002be8162000285565b9392505050565b60805160a05160c051616243620003ab600039600081816103b401528181610a6201528181610cbd0152818161145f0152818161172201528181611a5501528181613d5d015281816144200152818161494f01528181614a6c01528181614b3f0152614c1701526000818161086c01526110e201526000818161029b01528181610e1001528181610fc6015281816123760152818161273701528181612b5f01528181612c5c01528181612d6501528181612e6801528181612f85015281816130b90152818161337e0152818161352701528181613778015261389001526162436000f3fe6080604052600436106102805760003560e01c806380fdfe2c1161014f578063bef47adf116100c1578063e3976edf1161007a578063e3976edf146107b1578063e4716967146107e7578063ec594254146107fc578063f46aeff414610811578063f76c339914610824578063f77c47911461085a57600080fd5b8063bef47adf146106f9578063c84ce0d01461070e578063d1f6ced11461073c578063d41b4e7214610751578063d87abeca14610771578063db375dad1461079157600080fd5b8063aff1b7e411610113578063aff1b7e414610640578063b75d609a1461066d578063b7837b2e1461068d578063ba46fba6146106a2578063bba018a1146106b7578063bc92464a146106d957600080fd5b806380fdfe2c146103825780638cb164f9146105c057806391d08007146105e05780639e1876e514610600578063a90875ab1461062057600080fd5b806330078606116101f357806359c442c7116101ac57806359c442c7146104fe5780636a6602b21461052b5780636df45f551461054b57806375614e3f14610560578063779b6620146105805780637dc31846146105a057600080fd5b8063300786061461043a57806333229c061461044f578063340ed9fd1461046f578063346a4a511461048f5780634505e56c146104bc578063532913a5146104dc57600080fd5b80631bb480e5116102455780631bb480e51461036d5780631ecb8ac6146103825780632954018c146103a257806329988b04146103d65780632a6bc2dd146103f85780632fe35e141461042557600080fd5b8062435da51461028c5780630b402267146102d8578063100b5f2e1461030857806313c5daf61461032b57806315dbfe621461034057600080fd5b3661028757005b600080fd5b34801561029857600080fd5b507f00000000000000000000000000000000000000000000000000000000000000005b6040516001600160a01b0390911681526020015b60405180910390f35b3480156102e457600080fd5b506102f86102f33660046156b0565b610893565b60405190151581526020016102cf565b34801561031457600080fd5b5061031d610d57565b6040519081526020016102cf565b34801561033757600080fd5b5061031d610d9a565b34801561034c57600080fd5b5061031d61035b3660046156e9565b60016020526000908152604090205481565b34801561037957600080fd5b5061031d610ddc565b34801561038e57600080fd5b506102bb61039d3660046156e9565b610dfb565b3480156103ae57600080fd5b506102bb7f000000000000000000000000000000000000000000000000000000000000000081565b3480156103e257600080fd5b506103f66103f1366004615722565b610e0e565b005b34801561040457600080fd5b50610418610413366004615722565b610f19565b6040516102cf919061573f565b34801561043157600080fd5b5061031d610fa2565b34801561044657600080fd5b506102f8610fc2565b34801561045b57600080fd5b506102f861046a36600461578e565b6110ca565b34801561047b57600080fd5b506102bb61048a3660046156e9565b612342565b34801561049b57600080fd5b5061031d6104aa3660046156e9565b60046020526000908152604090205481565b3480156104c857600080fd5b506102f86104d73660046156e9565b612372565b3480156104e857600080fd5b506104f16124ce565b6040516102cf91906157e0565b34801561050a57600080fd5b5061051e610519366004615824565b612570565b6040516102cf91906158b1565b34801561053757600080fd5b506103f6610546366004615987565b61270a565b34801561055757600080fd5b5061031d61271c565b34801561056c57600080fd5b506102f861057b3660046159da565b612733565b34801561058c57600080fd5b5061031d61059b366004615ad5565b612837565b3480156105ac57600080fd5b5061031d6105bb366004615722565b6128cf565b3480156105cc57600080fd5b506102f86105db366004615722565b612b5b565b3480156105ec57600080fd5b506102f86105fb366004615722565b612c58565b34801561060c57600080fd5b506102f861061b3660046156e9565b612d61565b34801561062c57600080fd5b506102f861063b3660046156e9565b612e64565b34801561064c57600080fd5b5061031d61065b3660046156e9565b60036020526000908152604090205481565b34801561067957600080fd5b506102f8610688366004615722565b612f74565b34801561069957600080fd5b506102f8612f81565b3480156106ae57600080fd5b506102bb613091565b3480156106c357600080fd5b506106cc6130a9565b6040516102cf9190615b68565b3480156106e557600080fd5b506102f86106f43660046156e9565b6130b5565b34801561070557600080fd5b506102bb61322c565b34801561071a57600080fd5b5061072e610729366004615b7b565b613270565b6040516102cf929190615b9d565b34801561074857600080fd5b506102f861337a565b34801561075d57600080fd5b506103f661076c366004615c03565b613481565b34801561077d57600080fd5b506103f661078c3660046156e9565b613776565b34801561079d57600080fd5b506102f86107ac366004615c85565b61387c565b3480156107bd57600080fd5b506102bb6107cc3660046156e9565b6000602081905290815260409020546001600160a01b031681565b3480156107f357600080fd5b506102f861388c565b34801561080857600080fd5b5061031d61399b565b6102f861081f366004615cfb565b6139d5565b34801561083057600080fd5b506102bb61083f3660046156e9565b6002602052600090815260409020546001600160a01b031681565b34801561086657600080fd5b506102bb7f000000000000000000000000000000000000000000000000000000000000000081565b905090565b336000818152600a602090815260408083208784528252808320868452825280832081516101208101835281546001600160401b038082168352600160401b8204811695830195909552600160801b908190049094169281019290925260018101546001600160a01b039081166060840152600282015416608083015260038101546001600160801b0380821660a0850152939004831660c0830152600481015490921660e082015260058201805493949385939161010084019161095790615e18565b80601f016020809104026020016040519081016040528092919081815260200182805461098390615e18565b80156109d05780601f106109a5576101008083540402835291602001916109d0565b820191906000526020600020905b8154815290600101906020018083116109b357829003601f168201915b50505091909252505081516040805180820190915260128152716e6f20706f736974696f6e2065786973747360701b60208201529293506001600160401b031615159050610a3a5760405162461bcd60e51b8152600401610a319190615e53565b60405180910390fd5b50608081015160405163059eadeb60e41b81526001600160a01b0391821660048201526000917f000000000000000000000000000000000000000000000000000000000000000016906359eadeb09060240160206040518083038186803b158015610aa457600080fd5b505afa158015610ab8573d6000803e3d6000fd5b505050506040513d601f19601f82011682018060405250810190610adc9190615e66565b60e0830151604051636a278cd960e01b815291925082916001600160a01b03831691636a278cd991610b12918891600401615e83565b602060405180830381600087803b158015610b2c57600080fd5b505af1158015610b40573d6000803e3d6000fd5b505050506040513d601f19601f82011682018060405250810190610b649190615ea5565b508515610c285760e08301516040516305c2fbcf60e31b81526001600160801b0390911660048201526001600160a01b03821690632e17de7890602401602060405180830381600087803b158015610bbb57600080fd5b505af1158015610bcf573d6000803e3d6000fd5b505050506040513d601f19601f82011682018060405250810190610bf39190615ea5565b50610c23848460e001516001600160801b031685608001516001600160a01b031661404e9092919063ffffffff16565b610cad565b60e083015160405163a9059cbb60e01b81526001600160a01b0383169163a9059cbb91610c59918891600401615e83565b602060405180830381600087803b158015610c7357600080fd5b505af1158015610c87573d6000803e3d6000fd5b505050506040513d601f19601f82011682018060405250810190610cab9190615ea5565b505b610cb88489896140b6565b610cea7f00000000000000000000000000000000000000000000000000000000000000006001600160a01b03166141aa565b6040516335272c2560e21b81526001600160a01b038681166004830152919091169063d49cb09490602401600060405180830381600087803b158015610d2f57600080fd5b505af1158015610d43573d6000803e3d6000fd5b5050505060019450505050505b9392505050565b714d617853776170706572536c69707061676560701b60005260036020527f0a7ab04b93b5e6e7a6233e3dba8c0355d868f3f251b1df44eccff4c6067798195490565b70457374696d61746564476173557361676560781b60005260036020527fd92ae9a825c06e5a7102e086cc9fd80c4ef8adf441004161c8b93e0e5b4492a25490565b600061088e70457374696d61746564476173557361676560781b6141e3565b6000610e08826000614207565b92915050565b7f0000000000000000000000000000000000000000000000000000000000000000604051632474521560e21b815269676f7665726e616e636560b01b60048201523360248201526001600160a01b0391909116906391d148549060440160206040518083038186803b158015610e8357600080fd5b505afa158015610e97573d6000803e3d6000fd5b505050506040513d601f19601f82011682018060405250810190610ebb9190615ea5565b6040518060400160405280601381526020016000805160206161cd83398151915281525090610efd5760405162461bcd60e51b8152600401610a319190615e53565b50610f15692332b2a430b7323632b960b11b82614299565b5050565b6001600160a01b0381166000908152600b60209081526040808320805482518185028101850190935280835260609492939192909184015b82821015610f9757838290600052602060002090600202016040518060400160405290816000820154815260200160018201548152505081526020019060010190610f51565b505050509050919050565b600061088e714d617853776170706572536c69707061676560701b6141e3565b60007f0000000000000000000000000000000000000000000000000000000000000000604051632474521560e21b815269676f7665726e616e636560b01b60048201523360248201526001600160a01b0391909116906391d148549060440160206040518083038186803b15801561103957600080fd5b505afa15801561104d573d6000803e3d6000fd5b505050506040513d601f19601f820116820180604052508101906110719190615ea5565b6040518060400160405280601381526020016000805160206161cd833981519152815250906110b35760405162461bcd60e51b8152600401610a319190615e53565b5061088e692332b2a430b7323632b960b11b614324565b6040516306547d4b60e21b81523360048201526000907f00000000000000000000000000000000000000000000000000000000000000006001600160a01b031690631951f52c9060240160206040518083038186803b15801561112c57600080fd5b505afa158015611140573d6000803e3d6000fd5b505050506040513d601f19601f820116820180604052508101906111649190615ea5565b6040518060400160405280601c81526020017f4e6f7420656e6f75676820424b4420746f6b656e73207374616b656400000000815250906111b85760405162461bcd60e51b8152600401610a319190615e53565b50611280604051806102e001604052806000815260200160008152602001600081526020016000815260200160008152602001600081526020016000815260200160008152602001600081526020016000815260200160006001600160801b0316815260200160001515815260200160608152602001600081526020016000815260200160008152602001600081526020016000815260200160008152602001600081526020016000815260200160006001600160a01b031681526020016000151581525090565b5a6101c08201526001600160a01b0387166000908152600a6020908152604080832089845282528083208784528252918290208054835180850190945260128452716e6f20706f736974696f6e2065786973747360701b9284019290925291906001600160401b03166113065760405162461bcd60e51b8152600401610a319190615e53565b506003810154604080518082019091526014815273696e73756666696369656e742062616c616e636560601b602082015290600160801b90046001600160801b03166113655760405162461bcd60e51b8152600401610a319190615e53565b506000611373866001614207565b60405163673f349760e11b81529091506001600160a01b0382169063ce7e692e906113a7908b906005870190600401615f62565b60206040518083038186803b1580156113bf57600080fd5b505afa1580156113d3573d6000803e3d6000fd5b505050506040513d601f19601f820116820180604052508101906113f79190615f7b565b6080840181905282546040805180820190915260168152751a5b9cdd59999a58da595b9d081d1a1c995cda1bdb1960521b6020820152916001600160401b03909116116114575760405162461bcd60e51b8152600401610a319190615e53565b50600061148c7f00000000000000000000000000000000000000000000000000000000000000006001600160a01b03166141aa565b9050611496610d9a565b61022085018190526114a9903a90615faa565b61024085015282546114cb90600160401b90046001600160401b031648615fc9565b61020085018190523a10156114e2573a6102008501525b8254610200850151600160801b9091046001600160401b0316101561151a578254600160801b90046001600160401b03166102008501525b858461020001518561022001516115319190615faa565b61153b9190615fc9565b8461024001511115604051806060016040528060218152602001616185602191399061157a5760405162461bcd60e51b8152600401610a319190615e53565b506040516370a0823160e01b81526001600160a01b038b811660048301528216906370a082319060240160206040518083038186803b1580156115bc57600080fd5b505afa1580156115d0573d6000803e3d6000fd5b505050506040513d601f19601f820116820180604052508101906115f49190615f7b565b6101a085018190526102408501519061160e908890615fc9565b10156040518060600160405280602781526020016161a660279139906116475760405162461bcd60e51b8152600401610a319190615e53565b506003830154600160801b90046001600160801b031661014085015261166b61399b565b610100850181905260038401546001600160801b031685526116a19061169990670de0b6b3a7640000615fc9565b8551906143d5565b606085018190526101408501516001600160801b031610156116fb576101408401516001600160801b031660608501526101008401516116f8906116ed90670de0b6b3a7640000615fc9565b6060860151906143f4565b84525b6002830154604051630956fef360e21b81526001600160a01b0391821660048201526000917f0000000000000000000000000000000000000000000000000000000000000000169063255bfbcc9060240160206040518083038186803b15801561176457600080fd5b505afa158015611778573d6000803e3d6000fd5b505050506040513d601f19601f8201168201806040525081019061179c9190615e66565b9050806001600160a01b0316639816f4736040518163ffffffff1660e01b815260040160206040518083038186803b1580156117d757600080fd5b505afa1580156117eb573d6000803e3d6000fd5b505050506040513d601f19601f8201168201806040525081019061180f9190615e66565b856102a001906001600160a01b031690816001600160a01b031681525050806001600160a01b0316633ba0b9a96040518163ffffffff1660e01b815260040160206040518083038186803b15801561186657600080fd5b505afa15801561187a573d6000803e3d6000fd5b505050506040513d601f19601f8201168201806040525081019061189e9190615f7b565b60a086015260018401546102a08601516000916001600160a01b03918216911614611986576102a086015160018601546118e191906001600160a01b0316614409565b6102a08701516001870154604051631bcdc3f560e11b81526001600160a01b0392831660048201529082166024820152919250611980919083169063379b87ea9060440160206040518083038186803b15801561193d57600080fd5b505afa158015611951573d6000803e3d6000fd5b505050506040513d601f19601f820116820180604052508101906119759190615f7b565b60a0880151906143d5565b60a08701525b60a08601516060870151611999916144c7565b60c0870181905260048601546001600160801b03161015611a005760048501546001600160801b031660c08701526101008601516119df90670de0b6b3a7640000615fc9565b8660a001518760c001516119f39190615faa565b6119fd9190615fe1565b86525b60a08601518651611a10916144c7565b60e0870181905260c0870151611a269190616003565b6040878101919091526002860154905163059eadeb60e41b81526001600160a01b0391821660048201526000917f000000000000000000000000000000000000000000000000000000000000000016906359eadeb09060240160206040518083038186803b158015611a9757600080fd5b505afa158015611aab573d6000803e3d6000fd5b505050506040513d601f19601f82011682018060405250810190611acf9190615e66565b60c08801516040516305c2fbcf60e31b81529192506001600160a01b03831691632e17de7891611b059160040190815260200190565b602060405180830381600087803b158015611b1f57600080fd5b505af1158015611b33573d6000803e3d6000fd5b505050506040513d601f19601f82011682018060405250810190611b579190615ea5565b5060c0870151604051636a278cd960e01b81526001600160a01b038f81166004830152602482019290925290821690636a278cd990604401602060405180830381600087803b158015611ba957600080fd5b505af1158015611bbd573d6000803e3d6000fd5b505050506040513d601f19601f82011682018060405250810190611be19190615ea5565b5060e087015160405163db006a7560e01b815260048101919091526001600160a01b0384169063db006a7590602401602060405180830381600087803b158015611c2a57600080fd5b505af1158015611c3e573d6000803e3d6000fd5b505050506040513d601f19601f82011682018060405250810190611c629190615f7b565b60208801526001600160a01b03821615611d4457611c89611c81610d57565b8851906143d5565b87526102a0870151611c9b90836144f3565b6102a0870151600187015460208901518951604051637f0148ab60e11b81526001600160a01b0394851660048201529284166024840152604483019190915260648201529083169063fe02915690608401602060405180830381600087803b158015611d0657600080fd5b505af1158015611d1a573d6000803e3d6000fd5b505050506040513d601f19601f82011682018060405250810190611d3e9190615f7b565b60208801525b60a08701516040880151611d57916143d5565b8760200151611d669190615fc9565b87610120018181525050846001600160a01b03168c8760010160009054906101000a90046001600160a01b0316896020015189600501604051602401611daf949392919061601a565b60408051601f198184030181529181526020820180516001600160e01b0316636d636f3960e11b17905251611de49190616047565b600060405180830381855af49150503d8060008114611e1f576040519150601f19603f3d011682016040523d82523d6000602084013e611e24565b606091505b50610180890152158015610160890181905290611e555750866101800151806020019051810190611e559190615ea5565b6040518060400160405280600d81526020016c1d1bdc081d5c0819985a5b1959609a1b81525090611e995760405162461bcd60e51b8152600401610a319190615e53565b508661012001518761014001516001600160801b03161115611f0857610120870151600387018054601090611edf908490600160801b90046001600160801b0316616063565b92506101000a8154816001600160801b0302191690836001600160801b03160217905550611f1a565b6003860180546001600160801b031690555b60c0870151600487018054600090611f3c9084906001600160801b0316616063565b92506101000a8154816001600160801b0302191690836001600160801b031602179055508560030160109054906101000a90046001600160801b03166001600160801b031660001480611f9a575060048601546001600160801b0316155b15156102c088015260408701516002870154611fc3918f918e91906001600160a01b0316614596565b866102c001511561211d5760048601546001600160801b03161561211257806001600160a01b031663a9059cbb8e8860040160009054906101000a90046001600160801b03166040518363ffffffff1660e01b8152600401612026929190615e83565b602060405180830381600087803b15801561204057600080fd5b505af1158015612054573d6000803e3d6000fd5b505050506040513d601f19601f820116820180604052508101906120789190615ea5565b50806001600160a01b0316636a278cd98e8860040160009054906101000a90046001600160801b03166040518363ffffffff1660e01b81526004016120be929190615e83565b602060405180830381600087803b1580156120d857600080fd5b505af11580156120ec573d6000803e3d6000fd5b505050506040513d601f19601f820116820180604052508101906121109190615ea5565b505b61211d8d8d8c6140b6565b600286015460c088015160018801546020808b0151604080516001600160a01b03968716815292830194909452918416928101929092526060820152908e16908b908e907fa25497780b9913305877fbabb319e19163fec169ddf54e7f2ebb2903b598d32e9060800160405180910390a45a876101c0015161219f9190616003565b6101e088018190526102008801516121b79190615faa565b61028088018190526101a088015110156121d8576101a08701516102808801525b6101e08701516121e8903a615faa565b6102608801819052610280880151612201908b90615fc9565b10156040518060400160405280601981526020017f746f6f206d75636820455448207573656420666f722067617300000000000000815250906122575760405162461bcd60e51b8152600401610a319190615e53565b50610280870151604051634aaad4a160e11b81526001600160a01b038f81166004830152336024830152604482019290925290851690639555a94290606401600060405180830381600087803b1580156122b057600080fd5b505af11580156122c4573d6000803e3d6000fd5b50505050866102c001511561232f576040516335272c2560e21b81526001600160a01b038e8116600483015285169063d49cb09490602401600060405180830381600087803b15801561231657600080fd5b505af115801561232a573d6000803e3d6000fd5b505050505b5060019c9b505050505050505050505050565b600080612350836000614207565b9050600061236561236085614648565b61468a565b9050610d508483836146b7565b60007f0000000000000000000000000000000000000000000000000000000000000000604051632474521560e21b815269676f7665726e616e636560b01b60048201523360248201526001600160a01b0391909116906391d148549060440160206040518083038186803b1580156123e957600080fd5b505afa1580156123fd573d6000803e3d6000fd5b505050506040513d601f19601f820116820180604052508101906124219190615ea5565b6040518060400160405280601381526020016000805160206161cd833981519152815250906124635760405162461bcd60e51b8152600401610a319190615e53565b5060408051808201909152600e81526d1a5b9d985b1a5908185b5bdd5b9d60921b60208201526706f05b59d3b200008311156124b25760405162461bcd60e51b8152600401610a319190615e53565b50610e0868416374696f6e46656560b81b836146e9565b919050565b606060006124dc60086146f9565b90506000816001600160401b038111156124f8576124f8615a0a565b604051908082528060200260200182016040528015612521578160200160208202803683370190505b50905060005b828110156125695761253a600882614703565b82828151811061254c5761254c61608b565b602090810291909101015280612561816160a1565b915050612527565b5092915050565b604080516101208101825260008082526020820181905291810182905260608082018390526080820183905260a0820183905260c0820183905260e08201929092526101008101919091526001600160a01b038085166000908152600a60209081526040808320878452825280832086845282529182902082516101208101845281546001600160401b038082168352600160401b8204811694830194909452600160801b90819004909316938101939093526001810154841660608401526002810154909316608083015260038301546001600160801b0380821660a0850152919004811660c083015260048301541660e08201526005820180549192916101008401919061267f90615e18565b80601f01602080910402602001604051908101604052809291908181526020018280546126ab90615e18565b80156126f85780601f106126cd576101008083540402835291602001916126f8565b820191906000526020600020905b8154815290600101906020018083116126db57829003601f168201915b50505050508152505090509392505050565b61271684848484614596565b50505050565b600061088e68416374696f6e46656560b81b6141e3565b60007f0000000000000000000000000000000000000000000000000000000000000000604051632474521560e21b815269676f7665726e616e636560b01b60048201523360248201526001600160a01b0391909116906391d148549060440160206040518083038186803b1580156127aa57600080fd5b505afa1580156127be573d6000803e3d6000fd5b505050506040513d601f19601f820116820180604052508101906127e29190615ea5565b6040518060400160405280601381526020016000805160206161cd833981519152815250906128245760405162461bcd60e51b8152600401610a319190615e53565b50610d5061283184614648565b8361470f565b600080612845856001614207565b60405163673f349760e11b81529091506001600160a01b0382169063ce7e692e9061287690879087906004016160bc565b60206040518083038186803b15801561288e57600080fd5b505afa1580156128a2573d6000803e3d6000fd5b505050506040513d601f19601f820116820180604052508101906128c69190615f7b565b95945050505050565b6001600160a01b0381166000908152600b60209081526040808320805482518185028101850190935280835284938493929190849084015b8282101561294d57838290600052602060002090600202016040518060400160405290816000820154815260200160018201548152505081526020019060010190612907565b505050509050600061295d610d9a565b825190915060005b81811015612b505760008482815181106129815761298161608b565b6020908102919091018101516001600160a01b03808b166000908152600a84526040808220845183528552808220848601518352855280822081516101208101835281546001600160401b038082168352600160401b8204811698830198909852600160801b90819004909716928101929092526001810154841660608301526002810154909316608082015260038301546001600160801b0380821660a0840152959004851660c0820152600483015490941660e085015260058201805493955090939261010084019190612a5690615e18565b80601f0160208091040260200160405190810160405280929190818152602001828054612a8290615e18565b8015612acf5780601f10612aa457610100808354040283529160200191612acf565b820191906000526020600020905b815481529060010190602001808311612ab257829003601f168201915b50505050508152505090506000612b098260a001516001600160801b03168360c001516001600160801b031661471f90919063ffffffff16565b60408301519091506001600160401b0316612b248783615faa565b612b2e9190615faa565b612b389089615fc9565b97505050508080612b48906160a1565b915050612965565b509295945050505050565b60007f0000000000000000000000000000000000000000000000000000000000000000604051632474521560e21b815269676f7665726e616e636560b01b60048201523360248201526001600160a01b0391909116906391d148549060440160206040518083038186803b158015612bd257600080fd5b505afa158015612be6573d6000803e3d6000fd5b505050506040513d601f19601f82011682018060405250810190612c0a9190615ea5565b6040518060400160405280601381526020016000805160206161cd83398151915281525090612c4c5760405162461bcd60e51b8152600401610a319190615e53565b50610e0860068361472e565b60007f0000000000000000000000000000000000000000000000000000000000000000604051632474521560e21b815269676f7665726e616e636560b01b60048201523360248201526001600160a01b0391909116906391d148549060440160206040518083038186803b158015612ccf57600080fd5b505afa158015612ce3573d6000803e3d6000fd5b505050506040513d601f19601f82011682018060405250810190612d079190615ea5565b6040518060400160405280601381526020016000805160206161cd83398151915281525090612d495760405162461bcd60e51b8152600401610a319190615e53565b50610e08692332b2a430b7323632b960b11b8361470f565b60007f0000000000000000000000000000000000000000000000000000000000000000604051632474521560e21b815269676f7665726e616e636560b01b60048201523360248201526001600160a01b0391909116906391d148549060440160206040518083038186803b158015612dd857600080fd5b505afa158015612dec573d6000803e3d6000fd5b505050506040513d601f19601f82011682018060405250810190612e109190615ea5565b6040518060400160405280601381526020016000805160206161cd83398151915281525090612e525760405162461bcd60e51b8152600401610a319190615e53565b50610e08612e5f83614648565b614324565b60007f0000000000000000000000000000000000000000000000000000000000000000604051632474521560e21b815269676f7665726e616e636560b01b60048201523360248201526001600160a01b0391909116906391d148549060440160206040518083038186803b158015612edb57600080fd5b505afa158015612eef573d6000803e3d6000fd5b505050506040513d601f19601f82011682018060405250810190612f139190615ea5565b6040518060400160405280601381526020016000805160206161cd83398151915281525090612f555760405162461bcd60e51b8152600401610a319190615e53565b50610e0870457374696d61746564476173557361676560781b836146e9565b6000610e08600683614743565b60007f0000000000000000000000000000000000000000000000000000000000000000604051632474521560e21b815269676f7665726e616e636560b01b60048201523360248201526001600160a01b0391909116906391d148549060440160206040518083038186803b158015612ff857600080fd5b505afa15801561300c573d6000803e3d6000fd5b505050506040513d601f19601f820116820180604052508101906130309190615ea5565b6040518060400160405280601381526020016000805160206161cd833981519152815250906130725760405162461bcd60e51b8152600401610a319190615e53565b5061088e714d617853776170706572536c69707061676560701b614765565b600061088e692332b2a430b7323632b960b11b61468a565b606061088e600661480c565b60007f0000000000000000000000000000000000000000000000000000000000000000604051632474521560e21b815269676f7665726e616e636560b01b60048201523360248201526001600160a01b0391909116906391d148549060440160206040518083038186803b15801561312c57600080fd5b505afa158015613140573d6000803e3d6000fd5b505050506040513d601f19601f820116820180604052508101906131649190615ea5565b6040518060400160405280601381526020016000805160206161cd833981519152815250906131a65760405162461bcd60e51b8152600401610a319190615e53565b50670853a0d2313c000082101580156131c75750670d2f13f7789f00008211155b6040518060400160405280600e81526020016d1a5b9d985b1a5908185b5bdd5b9d60921b8152509061320c5760405162461bcd60e51b8152600401610a319190615e53565b50610e08714d617853776170706572536c69707061676560701b836146e9565b692332b2a430b7323632b960b11b60005260026020527f6ca0624ed247bf0fea5288fbb74a4bd8fc7f94847d3670d0c0d9ba9a2af3242c546001600160a01b031690565b606060008061327f600c6146f9565b90508085106132a1575050604080516000808252602082019092529150613373565b6132ab8582616003565b84106132be576132bb8582616003565b93505b6000846001600160401b038111156132d8576132d8615a0a565b604051908082528060200260200182016040528015613301578160200160208202803683370190505b50905060005b858110156133605761332461331c8883615fc9565b600c90614703565b8282815181106133365761333661608b565b6001600160a01b039092166020928302919091019091015280613358816160a1565b915050613307565b508061336c8688615fc9565b9350935050505b9250929050565b60007f0000000000000000000000000000000000000000000000000000000000000000604051632474521560e21b815269676f7665726e616e636560b01b60048201523360248201526001600160a01b0391909116906391d148549060440160206040518083038186803b1580156133f157600080fd5b505afa158015613405573d6000803e3d6000fd5b505050506040513d601f19601f820116820180604052508101906134299190615ea5565b6040518060400160405280601381526020016000805160206161cd8339815191528152509061346b5760405162461bcd60e51b8152600401610a319190615e53565b5061088e68416374696f6e46656560b81b614765565b600554610100900460ff1661349c5760055460ff16156134a0565b303b155b6135035760405162461bcd60e51b815260206004820152602e60248201527f496e697469616c697a61626c653a20636f6e747261637420697320616c72656160448201526d191e481a5b9a5d1a585b1a5e995960921b6064820152608401610a31565b600554610100900460ff16158015613525576005805461ffff19166101011790555b7f0000000000000000000000000000000000000000000000000000000000000000604051632474521560e21b815269676f7665726e616e636560b01b60048201523360248201526001600160a01b0391909116906391d148549060440160206040518083038186803b15801561359a57600080fd5b505afa1580156135ae573d6000803e3d6000fd5b505050506040513d601f19601f820116820180604052508101906135d29190615ea5565b6040518060400160405280601381526020016000805160206161cd833981519152815250906136145760405162461bcd60e51b8152600401610a319190615e53565b5060408051808201909152601081526f1a5b9d985b1a5908185c99dd5b595b9d60821b602082015284831461365c5760405162461bcd60e51b8152600401610a319190615e53565b50613674692332b2a430b7323632b960b11b87614299565b5061369c714d617853776170706572536c69707061676560701b670d2f13f7789f00006148b2565b5060005b8481101561375b5760006136cb8787848181106136bf576136bf61608b565b90506020020135614648565b90506136fd818686858181106136e3576136e361608b565b90506020020160208101906136f89190615722565b614299565b506137488787848181106137135761371361608b565b90506020020135600087878681811061372e5761372e61608b565b90506020020160208101906137439190615722565b6146b7565b5080613753816160a1565b9150506136a0565b50801561376e576005805461ff00191690555b505050505050565b7f0000000000000000000000000000000000000000000000000000000000000000604051632474521560e21b815269676f7665726e616e636560b01b60048201523360248201526001600160a01b0391909116906391d148549060440160206040518083038186803b1580156137eb57600080fd5b505afa1580156137ff573d6000803e3d6000fd5b505050506040513d601f19601f820116820180604052508101906138239190615ea5565b6040518060400160405280601381526020016000805160206161cd833981519152815250906138655760405162461bcd60e51b8152600401610a319190615e53565b50610f1568416374696f6e46656560b81b826148b2565b60006128c68585858560006110ca565b60007f0000000000000000000000000000000000000000000000000000000000000000604051632474521560e21b815269676f7665726e616e636560b01b60048201523360248201526001600160a01b0391909116906391d148549060440160206040518083038186803b15801561390357600080fd5b505afa158015613917573d6000803e3d6000fd5b505050506040513d601f19601f8201168201806040525081019061393b9190615ea5565b6040518060400160405280601381526020016000805160206161cd8339815191528152509061397d5760405162461bcd60e51b8152600401610a319190615e53565b5061088e70457374696d61746564476173557361676560781b614765565b68416374696f6e46656560b81b60005260036020527fa54dccff97a6072259c3aa6b782765087d250e0214d8d05826d45d992ff11fac5490565b60006139e2600885614913565b604051806040016040528060128152602001711c1c9bdd1bd8dbdb081b9bdd08199bdd5b9960721b81525090613a2b5760405162461bcd60e51b8152600401610a319190615e53565b5060008260a001516001600160801b0316116040518060400160405280600e81526020016d1a5b9d985b1a5908185b5bdd5b9d60921b81525090613a825760405162461bcd60e51b8152600401610a319190615e53565b50670de0b6b3a764000082600001516001600160401b0316116040518060400160405280600e81526020016d1a5b9d985b1a5908185b5bdd5b9d60921b81525090613ae05760405162461bcd60e51b8152600401610a319190615e53565b508160c001516001600160801b03168260a001516001600160801b031611156040518060400160405280600e81526020016d1a5b9d985b1a5908185b5bdd5b9d60921b81525090613b445760405162461bcd60e51b8152600401610a319190615e53565b50336000908152600a602090815260408083208884528252808320878452825291829020548251808401909352601783527f706f736974696f6e20616c726561647920657869737473000000000000000000918301919091526001600160401b031615613bc45760405162461bcd60e51b8152600401610a319190615e53565b50613bd78260800151836060015161492b565b604051806040016040528060138152602001721cddd85c081c185d1a081b9bdd08199bdd5b99606a1b81525090613c215760405162461bcd60e51b8152600401610a319190615e53565b50613c2f8260800151612f74565b60405180606001604052806028815260200161615d6028913990613c665760405162461bcd60e51b8152600401610a319190615e53565b506000613c71610d9a565b83604001516001600160401b0316613cac8560a001516001600160801b03168660c001516001600160801b031661471f90919063ffffffff16565b613cb69190615faa565b613cc09190615faa565b9050803410156040518060400160405280601a81526020017f76616c756520746f6f206c6f7720746f20636f7665722067617300000000000081525090613d1a5760405162461bcd60e51b8152600401610a319190615e53565b506000613d3d846080015185606001518660c001516001600160801b0316614b28565b9050613d5833856080015183886001600160801b0316614bf5565b613d8a7f00000000000000000000000000000000000000000000000000000000000000006001600160a01b03166141aa565b60405163aa67c91960e01b81523360048201526001600160a01b03919091169063aa67c9199034906024016000604051808303818588803b158015613dce57600080fd5b505af1158015613de2573d6000803e3d6000fd5b505050506001600160801b0382811660e08701908152336000908152600a602090815260408083208d845282528083208c845282529182902089518154838c0151948c01516001600160401b039283166001600160801b031992831617600160401b968416969096029590951767ffffffffffffffff60801b1916600160801b92909516820294909417825560608b01516001830180546001600160a01b03199081166001600160a01b039384161790915560808d0151600285018054909216921691909117905560a08b015160c08c01519087169087169091021760038201559251600484018054909316941693909317905561010087015180518894509192613ef5926005850192909101906155cc565b5050336000818152600b6020908152604080832081518083019092528c82528183018c815281546001818101845592865293909420915160029093029091019182559151910155613f499150600c9061472e565b5083600001516001600160401b031686887ff8c4338a655ae888222012879ef5bdbc46ca5bde6b154b5565048cfccbc00781338860800151868a606001518b60a001518c60c001518d604001518e6101000151604051613fb09897969594939291906160d5565b60405180910390a45060019695505050505050565b6040516321f8a72160e01b81526a3937b632a6b0b730b3b2b960a91b60048201526000906001600160a01b038316906321f8a721906024015b60206040518083038186803b15801561401657600080fd5b505afa15801561402a573d6000803e3d6000fd5b505050506040513d601f19601f82011682018060405250810190610e089190615e66565b6040516001600160a01b0383166024820152604481018290526140b190849063a9059cbb60e01b906064015b60408051601f198184030181529190526020810180516001600160e01b03166001600160e01b031990931692909217909152614d26565b505050565b6001600160a01b0383166000908152600a602090815260408083208584528252808320848452909152812080546001600160c01b03191681556001810180546001600160a01b03199081169091556002820180549091169055600381018290556004810180546001600160801b0319169055906141366005830182615650565b5050614143838383614df8565b6001600160a01b0383166000908152600b602052604090205461416d5761416b600c84614f01565b505b8082846001600160a01b03167f72b5cbd3723f2cc2fa8b384de87a995691d051135c5e19322a55d6e835e3deaa60405160405180910390a4505050565b6040516321f8a72160e01b81526667617342616e6b60c81b60048201526000906001600160a01b038316906321f8a72190602401613ffe565b60006141ee82614f16565b60008281526001602052604090205461256983826148b2565b6000806002600061421786614648565b81526020810191909152604001600020546001600160a01b0316905082158061424857506001600160a01b03811615155b604051806040016040528060128152602001711c1c9bdd1bd8dbdb081b9bdd08199bdd5b9960721b815250906142915760405162461bcd60e51b8152600401610a319190615e53565b509392505050565b600082815260026020908152604080832080546001600160a01b03198082166001600160a01b038881169182179094558686528487208054909216909155600485528386208690558351929091168083529382015285917fc4a957706c639829ad54381b04930c464db6c7ffdc09d2b4b1acc9ee34fb926191015b60405180910390a2509092915050565b600081815260046020908152604080832054815180830190925260128252710646561646c696e65206d75737420626520360741b928201929092529061437d5760405162461bcd60e51b8152600401610a319190615e53565b5060008281526004602090815260408083208390559082905280822080546001600160a01b03191690555183917f90fb84ad67dd037c388289337bb80b61b8605d38ba9a875dc38b5600909d172f91a2506001919050565b6000670de0b6b3a76400006143ea8385615faa565b610d509190615fe1565b6000816143ea670de0b6b3a764000085615faa565b6040516376b4805160e01b81526001600160a01b037f00000000000000000000000000000000000000000000000000000000000000008116600483015280841660248301528216604482015260009073__$69d5f919a2332fd1585cf8aec6346e89b0$__906376b480519060640160206040518083038186803b15801561448f57600080fd5b505af41580156144a3573d6000803e3d6000fd5b505050506040513d601f19601f82011682018060405250810190610d509190615e66565b6000816001816144df670de0b6b3a764000087615faa565b6144e99190615fc9565b6143ea9190616003565b604051636eb1769f60e11b81523060048201526001600160a01b0382811660248301526000919084169063dd62ed3e9060440160206040518083038186803b15801561453e57600080fd5b505afa158015614552573d6000803e3d6000fd5b505050506040513d601f19601f820116820180604052508101906145769190615f7b565b1115614580575050565b610f156001600160a01b03831682600019614fbf565b60006145a061322c565b90506145b66001600160a01b0383168285614fbf565b6040516367ec9f1960e11b81526001600160a01b038681166004830152858116602483015260448201859052838116606483015282169063cfd93e3290608401602060405180830381600087803b15801561461057600080fd5b505af1158015614624573d6000803e3d6000fd5b505050506040513d601f19601f8201168201806040525081019061376e9190615ea5565b604080516b2a37b82ab82430b7323632b960a11b6020820152908101829052600090606001604051602081830303815290604052805190602001209050919050565b600061469582614f16565b6000828152602081905260409020546001600160a01b03166125698382614299565b6001600160a01b0381166146d0576127166008846150e3565b6001600160a01b0382166140b1576127166008846150ef565b6000610d5083836203f4806150fb565b6000610e08825490565b6000610d50838361515f565b6000610d5083836203f480615189565b60008160016144e98286615fc9565b6000610d50836001600160a01b0384166151f6565b6001600160a01b03811660009081526001830160205260408120541515610d50565b600081815260046020908152604080832054815180830190925260128252710646561646c696e65206d75737420626520360741b92820192909252906147be5760405162461bcd60e51b8152600401610a319190615e53565b50600082815260046020908152604080832083905560019091528082208290555183917f90fb84ad67dd037c388289337bb80b61b8605d38ba9a875dc38b5600909d172f91a2506001919050565b60606000614819836146f9565b90506000816001600160401b0381111561483557614835615a0a565b60405190808252806020026020018201604052801561485e578160200160208202803683370190505b50905060005b82811015614291576148768582614703565b8282815181106148885761488861608b565b6001600160a01b0390921660209283029190910190910152806148aa816160a1565b915050614864565b6000828152600360209081526040808320805490859055600183528184208490556004835281842084905581518181529283018590529185917fcc0bafe2accb565ea70674bf4b2555e49a47d410fb9932dfab3e5f41855d0a2f9101614314565b60008181526001830160205260408120541515610d50565b604051630956fef360e21b81526001600160a01b03838116600483015260009182917f0000000000000000000000000000000000000000000000000000000000000000169063255bfbcc9060240160206040518083038186803b15801561499157600080fd5b505afa1580156149a5573d6000803e3d6000fd5b505050506040513d601f19601f820116820180604052508101906149c99190615e66565b90506000816001600160a01b0316639816f4736040518163ffffffff1660e01b815260040160206040518083038186803b158015614a0657600080fd5b505afa158015614a1a573d6000803e3d6000fd5b505050506040513d601f19601f82011682018060405250810190614a3e9190615e66565b9050836001600160a01b0316816001600160a01b03161415614a6557600192505050610e08565b6000614a997f00000000000000000000000000000000000000000000000000000000000000006001600160a01b0316615245565b6040516301f354d560e21b81526001600160a01b0384811660048301528781166024830152919250908216906307cd53549060440160206040518083038186803b158015614ae657600080fd5b505afa158015614afa573d6000803e3d6000fd5b505050506040513d601f19601f82011682018060405250810190614b1e9190615ea5565b9695505050505050565b6040516369c2390b60e11b81526001600160a01b037f0000000000000000000000000000000000000000000000000000000000000000811660048301528085166024830152831660448201526064810182905260009073__$69d5f919a2332fd1585cf8aec6346e89b0$__9063d38472169060840160206040518083038186803b158015614bb557600080fd5b505af4158015614bc9573d6000803e3d6000fd5b505050506040513d601f19601f82011682018060405250810190614bed9190615f7b565b949350505050565b60405163059eadeb60e41b81526001600160a01b0384811660048301526000917f0000000000000000000000000000000000000000000000000000000000000000909116906359eadeb09060240160206040518083038186803b158015614c5b57600080fd5b505afa158015614c6f573d6000803e3d6000fd5b505050506040513d601f19601f82011682018060405250810190614c939190615e66565b604051631b89105360e31b81526001600160a01b038083166004830152808816602483015286166044820152606481018590526084810184905290915073__$69d5f919a2332fd1585cf8aec6346e89b0$__9063dc4882989060a40160006040518083038186803b158015614d0757600080fd5b505af4158015614d1b573d6000803e3d6000fd5b505050505050505050565b6000614d7b826040518060400160405280602081526020017f5361666545524332303a206c6f772d6c6576656c2063616c6c206661696c6564815250856001600160a01b03166152869092919063ffffffff16565b8051909150156140b15780806020019051810190614d999190615ea5565b6140b15760405162461bcd60e51b815260206004820152602a60248201527f5361666545524332303a204552433230206f7065726174696f6e20646964206e6044820152691bdd081cdd58d8d9595960b21b6064820152608401610a31565b6001600160a01b0383166000908152600b60205260408120805490915b8181101561376e576000838281548110614e3157614e3161608b565b90600052602060002090600202019050858160000154148015614e575750848160010154145b15614eee5783614e68600185616003565b81548110614e7857614e7861608b565b9060005260206000209060020201848381548110614e9857614e9861608b565b6000918252602090912082546002909202019081556001918201549101558354849080614ec757614ec7616146565b60008281526020812060026000199093019283020181815560010155905550505050505050565b5080614ef9816160a1565b915050614e15565b6000610d50836001600160a01b038416615295565b600060046000838152602001908152602001600020549050804210156040518060600160405280602181526020016161ed6021913990614f695760405162461bcd60e51b8152600401610a319190615e53565b5060408051808201909152600d81526c0646561646c696e65206973203609c1b602082015281614fac5760405162461bcd60e51b8152600401610a319190615e53565b5050600090815260046020526040812055565b8015806150485750604051636eb1769f60e11b81523060048201526001600160a01b03838116602483015284169063dd62ed3e9060440160206040518083038186803b15801561500e57600080fd5b505afa158015615022573d6000803e3d6000fd5b505050506040513d601f19601f820116820180604052508101906150469190615f7b565b155b6150b35760405162461bcd60e51b815260206004820152603660248201527f5361666545524332303a20617070726f76652066726f6d206e6f6e2d7a65726f60448201527520746f206e6f6e2d7a65726f20616c6c6f77616e636560501b6064820152608401610a31565b6040516001600160a01b0383166024820152604481018290526140b190849063095ea7b360e01b9060640161407a565b6000610d508383615295565b6000610d5083836151f6565b60006151078483615388565b600084815260016020908152604091829020859055815185815290810184905285917f0e6790002e78fb96ff1fdfe3a3bb2a86489d3f3923372c1fe5b6b1fed071eed491015b60405180910390a25060019392505050565b60008260000182815481106151765761517661608b565b9060005260206000200154905092915050565b60006151958483615388565b6000848152602081815260409182902080546001600160a01b0319166001600160a01b038716908117909155825190815290810184905285917fd46e58ee9dc1ae703349f8c09c19f23213a531b4d57f00cfd4a5a6cb6519668d910161514d565b600081815260018301602052604081205461523d57508154600181810184556000848152602080822090930184905584548482528286019093526040902091909155610e08565b506000610e08565b6040516321f8a72160e01b81526e73776170706572526567697374727960881b60048201526000906001600160a01b038316906321f8a72190602401613ffe565b6060614bed8484600085615462565b6000818152600183016020526040812054801561537e5760006152b9600183616003565b85549091506000906152cd90600190616003565b90508181146153325760008660000182815481106152ed576152ed61608b565b90600052602060002001549050808760000184815481106153105761531061608b565b6000918252602080832090910192909255918252600188019052604090208390555b855486908061534357615343616146565b600190038181906000526020600020016000905590558560010160008681526020019081526020016000206000905560019350505050610e08565b6000915050610e08565b6004600083815260200190815260200160002054600014604051806040016040528060128152602001710646561646c696e65206d75737420626520360741b815250906153e85760405162461bcd60e51b8152600401610a319190615e53565b5060408051808201909152601881527f64656c6179206265206174206c6561737420332064617973000000000000000060208201526203f4808210156154415760405162461bcd60e51b8152600401610a319190615e53565b5061544c8142615fc9565b6000928352600460205260409092209190915550565b6060824710156154c35760405162461bcd60e51b815260206004820152602660248201527f416464726573733a20696e73756666696369656e742062616c616e636520666f6044820152651c8818d85b1b60d21b6064820152608401610a31565b6001600160a01b0385163b61551a5760405162461bcd60e51b815260206004820152601d60248201527f416464726573733a2063616c6c20746f206e6f6e2d636f6e74726163740000006044820152606401610a31565b600080866001600160a01b031685876040516155369190616047565b60006040518083038185875af1925050503d8060008114615573576040519150601f19603f3d011682016040523d82523d6000602084013e615578565b606091505b5091509150615588828286615593565b979650505050505050565b606083156155a2575081610d50565b8251156155b25782518084602001fd5b8160405162461bcd60e51b8152600401610a319190615e53565b8280546155d890615e18565b90600052602060002090601f0160209004810192826155fa5760008555615640565b82601f1061561357805160ff1916838001178555615640565b82800160010185558215615640579182015b82811115615640578251825591602001919060010190615625565b5061564c92915061568d565b5090565b50805461565c90615e18565b6000825580601f1061566c575050565b601f01602090049060005260206000209081019061568a919061568d565b50565b5b8082111561564c576000815560010161568e565b801515811461568a57600080fd5b6000806000606084860312156156c557600080fd5b833592506020840135915060408401356156de816156a2565b809150509250925092565b6000602082840312156156fb57600080fd5b5035919050565b6001600160a01b038116811461568a57600080fd5b80356124c981615702565b60006020828403121561573457600080fd5b8135610d5081615702565b602080825282518282018190526000919060409081850190868401855b828110156157815781518051855286015186850152928401929085019060010161575c565b5091979650505050505050565b600080600080600060a086880312156157a657600080fd5b85356157b181615702565b94506020860135935060408601356157c881615702565b94979396509394606081013594506080013592915050565b6020808252825182820181905260009190848201906040850190845b81811015615818578351835292840192918401916001016157fc565b50909695505050505050565b60008060006060848603121561583957600080fd5b833561584481615702565b95602085013595506040909401359392505050565b60005b8381101561587457818101518382015260200161585c565b838111156127165750506000910152565b6000815180845261589d816020860160208601615859565b601f01601f19169290920160200192915050565b602081526158cb6020820183516001600160401b03169052565b600060208301516158e760408401826001600160401b03169052565b5060408301516001600160401b03811660608401525060608301516001600160a01b03811660808401525060808301516001600160a01b03811660a08401525060a08301516001600160801b03811660c08401525060c08301516001600160801b03811660e08401525060e083015161010061596d818501836001600160801b03169052565b840151610120848101529050614bed610140840182615885565b6000806000806080858703121561599d57600080fd5b84356159a881615702565b935060208501356159b881615702565b92506040850135915060608501356159cf81615702565b939692955090935050565b600080604083850312156159ed57600080fd5b8235915060208301356159ff81615702565b809150509250929050565b634e487b7160e01b600052604160045260246000fd5b60405161012081016001600160401b0381118282101715615a4357615a43615a0a565b60405290565b600082601f830112615a5a57600080fd5b81356001600160401b0380821115615a7457615a74615a0a565b604051601f8301601f19908116603f01168101908282118183101715615a9c57615a9c615a0a565b81604052838152866020858801011115615ab557600080fd5b836020870160208301376000602085830101528094505050505092915050565b600080600060608486031215615aea57600080fd5b833592506020840135915060408401356001600160401b03811115615b0e57600080fd5b615b1a86828701615a49565b9150509250925092565b600081518084526020808501945080840160005b83811015615b5d5781516001600160a01b031687529582019590820190600101615b38565b509495945050505050565b602081526000610d506020830184615b24565b60008060408385031215615b8e57600080fd5b50508035926020909101359150565b604081526000615bb06040830185615b24565b90508260208301529392505050565b60008083601f840112615bd157600080fd5b5081356001600160401b03811115615be857600080fd5b6020830191508360208260051b850101111561337357600080fd5b600080600080600060608688031215615c1b57600080fd5b8535615c2681615702565b945060208601356001600160401b0380821115615c4257600080fd5b615c4e89838a01615bbf565b90965094506040880135915080821115615c6757600080fd5b50615c7488828901615bbf565b969995985093965092949392505050565b60008060008060808587031215615c9b57600080fd5b8435615ca681615702565b9350602085013592506040850135615cbd81615702565b9396929550929360600135925050565b80356001600160801b03811681146124c957600080fd5b80356001600160401b03811681146124c957600080fd5b60008060008060808587031215615d1157600080fd5b8435935060208501359250615d2860408601615ccd565b915060608501356001600160401b0380821115615d4457600080fd5b908601906101208289031215615d5957600080fd5b615d61615a20565b615d6a83615ce4565b8152615d7860208401615ce4565b6020820152615d8960408401615ce4565b6040820152615d9a60608401615717565b6060820152615dab60808401615717565b6080820152615dbc60a08401615ccd565b60a0820152615dcd60c08401615ccd565b60c0820152615dde60e08401615ccd565b60e08201526101008084013583811115615df757600080fd5b615e038b828701615a49565b82840152505080935050505092959194509250565b600181811c90821680615e2c57607f821691505b60208210811415615e4d57634e487b7160e01b600052602260045260246000fd5b50919050565b602081526000610d506020830184615885565b600060208284031215615e7857600080fd5b8151610d5081615702565b6001600160a01b039290921682526001600160801b0316602082015260400190565b600060208284031215615eb757600080fd5b8151610d50816156a2565b8054600090600181811c9080831680615edc57607f831692505b6020808410821415615efe57634e487b7160e01b600052602260045260246000fd5b83885260208801828015615f195760018114615f2a57615f55565b60ff19871682528282019750615f55565b60008981526020902060005b87811015615f4f57815484820152908601908401615f36565b83019850505b5050505050505092915050565b828152604060208201526000614bed6040830184615ec2565b600060208284031215615f8d57600080fd5b5051919050565b634e487b7160e01b600052601160045260246000fd5b6000816000190483118215151615615fc457615fc4615f94565b500290565b60008219821115615fdc57615fdc615f94565b500190565b600082615ffe57634e487b7160e01b600052601260045260246000fd5b500490565b60008282101561601557616015615f94565b500390565b84815260018060a01b0384166020820152826040820152608060608201526000614b1e6080830184615ec2565b60008251616059818460208701615859565b9190910192915050565b60006001600160801b038381169083168181101561608357616083615f94565b039392505050565b634e487b7160e01b600052603260045260246000fd5b60006000198214156160b5576160b5615f94565b5060010190565b828152604060208201526000614bed6040830184615885565b6001600160a01b038981168252888116602083015260408201889052861660608201526001600160801b038581166080830152841660a08201526001600160401b03831660c082015261010060e0820181905260009061613783820185615885565b9b9a5050505050505050505050565b634e487b7160e01b600052603160045260246000fdfe746f6b656e206e6f7420757361626c6520666f722074686520737065636966696320616374696f6e746f6f206d756368204554482077696c6c206265207573656420666f72206761736e6f7420656e6f7567682045544820696e206761732062616e6b20746f20636f76657220676173756e617574686f72697a65642061636365737300000000000000000000000000646561646c696e6520686173206e6f74206265656e207265616368656420796574a264697066735822122073e19a2ee4c8056ab44b651d323087c032511dd4ae4da4de5dfd03d32d2c7a7664736f6c63430008090033",
  "linkReferences": {
    "contracts/actions/topup/TopUpAction.sol": {
      "TopUpActionLibrary": [
        {
          "length": 20,
          "start": 18437
        },
        {
          "length": 20,
          "start": 20267
        },
        {
          "length": 20,
          "start": 20605
        }
      ]
    }
  },
  "deployedLinkReferences": {
    "contracts/actions/topup/TopUpAction.sol": {
      "TopUpActionLibrary": [
        {
          "length": 20,
          "start": 17498
        },
        {
          "length": 20,
          "start": 19328
        },
        {
          "length": 20,
          "start": 19666
        }
      ]
    }
  }
}