{
  "_format": "hh-sol-artifact-1",
  "contractName": "Harvester",
  "sourceName": "contracts/v3/Harvester.sol",
  "abi": [
    {
      "inputs": [
        {
          "internalType": "address",
          "name": "_manager",
          "type": "address"
        },
        {
          "internalType": "address",
          "name": "_controller",
          "type": "address"
        },
        {
          "internalType": "address",
          "name": "_legacyController",
          "type": "address"
        }
      ],
      "stateMutability": "nonpayable",
      "type": "constructor"
    },
    {
      "anonymous": false,
      "inputs": [
        {
          "indexed": true,
          "internalType": "address",
          "name": "controller",
          "type": "address"
        },
        {
          "indexed": true,
          "internalType": "address",
          "name": "strategy",
          "type": "address"
        }
      ],
      "name": "Harvest",
      "type": "event"
    },
    {
      "anonymous": false,
      "inputs": [
        {
          "indexed": true,
          "internalType": "address",
          "name": "harvester",
          "type": "address"
        },
        {
          "indexed": false,
          "internalType": "bool",
          "name": "status",
          "type": "bool"
        }
      ],
      "name": "HarvesterSet",
      "type": "event"
    },
    {
      "anonymous": false,
      "inputs": [
        {
          "indexed": true,
          "internalType": "address",
          "name": "vault",
          "type": "address"
        },
        {
          "indexed": true,
          "internalType": "address",
          "name": "strategy",
          "type": "address"
        },
        {
          "indexed": false,
          "internalType": "uint256",
          "name": "timeout",
          "type": "uint256"
        }
      ],
      "name": "StrategyAdded",
      "type": "event"
    },
    {
      "anonymous": false,
      "inputs": [
        {
          "indexed": true,
          "internalType": "address",
          "name": "vault",
          "type": "address"
        },
        {
          "indexed": true,
          "internalType": "address",
          "name": "strategy",
          "type": "address"
        },
        {
          "indexed": false,
          "internalType": "uint256",
          "name": "timeout",
          "type": "uint256"
        }
      ],
      "name": "StrategyRemoved",
      "type": "event"
    },
    {
      "inputs": [],
      "name": "ONE_HUNDRED_PERCENT",
      "outputs": [
        {
          "internalType": "uint256",
          "name": "",
          "type": "uint256"
        }
      ],
      "stateMutability": "view",
      "type": "function"
    },
    {
      "inputs": [
        {
          "internalType": "address",
          "name": "_vault",
          "type": "address"
        },
        {
          "internalType": "address",
          "name": "_strategy",
          "type": "address"
        },
        {
          "internalType": "uint256",
          "name": "_timeout",
          "type": "uint256"
        }
      ],
      "name": "addStrategy",
      "outputs": [],
      "stateMutability": "nonpayable",
      "type": "function"
    },
    {
      "inputs": [
        {
          "internalType": "address",
          "name": "_vault",
          "type": "address"
        }
      ],
      "name": "canHarvest",
      "outputs": [
        {
          "internalType": "bool",
          "name": "",
          "type": "bool"
        }
      ],
      "stateMutability": "view",
      "type": "function"
    },
    {
      "inputs": [],
      "name": "controller",
      "outputs": [
        {
          "internalType": "contract IController",
          "name": "",
          "type": "address"
        }
      ],
      "stateMutability": "view",
      "type": "function"
    },
    {
      "inputs": [
        {
          "internalType": "address",
          "name": "_strategy",
          "type": "address"
        },
        {
          "internalType": "address",
          "name": "_vault",
          "type": "address"
        }
      ],
      "name": "earn",
      "outputs": [],
      "stateMutability": "nonpayable",
      "type": "function"
    },
    {
      "inputs": [
        {
          "internalType": "address",
          "name": "_strategy",
          "type": "address"
        }
      ],
      "name": "getEstimates",
      "outputs": [
        {
          "internalType": "uint256",
          "name": "_estimatedWETH",
          "type": "uint256"
        },
        {
          "internalType": "uint256",
          "name": "_estimatedYAXIS",
          "type": "uint256"
        }
      ],
      "stateMutability": "view",
      "type": "function"
    },
    {
      "inputs": [
        {
          "internalType": "contract IController",
          "name": "_controller",
          "type": "address"
        },
        {
          "internalType": "address",
          "name": "_strategy",
          "type": "address"
        },
        {
          "internalType": "uint256",
          "name": "_estimatedWETH",
          "type": "uint256"
        },
        {
          "internalType": "uint256",
          "name": "_estimatedYAXIS",
          "type": "uint256"
        }
      ],
      "name": "harvest",
      "outputs": [],
      "stateMutability": "nonpayable",
      "type": "function"
    },
    {
      "inputs": [
        {
          "internalType": "address",
          "name": "_vault",
          "type": "address"
        },
        {
          "internalType": "uint256",
          "name": "_estimatedWETH",
          "type": "uint256"
        },
        {
          "internalType": "uint256",
          "name": "_estimatedYAXIS",
          "type": "uint256"
        }
      ],
      "name": "harvestNextStrategy",
      "outputs": [],
      "stateMutability": "nonpayable",
      "type": "function"
    },
    {
      "inputs": [
        {
          "internalType": "address",
          "name": "",
          "type": "address"
        }
      ],
      "name": "isHarvester",
      "outputs": [
        {
          "internalType": "bool",
          "name": "",
          "type": "bool"
        }
      ],
      "stateMutability": "view",
      "type": "function"
    },
    {
      "inputs": [],
      "name": "legacyController",
      "outputs": [
        {
          "internalType": "contract ILegacyController",
          "name": "",
          "type": "address"
        }
      ],
      "stateMutability": "view",
      "type": "function"
    },
    {
      "inputs": [
        {
          "internalType": "uint256",
          "name": "_expected",
          "type": "uint256"
        }
      ],
      "name": "legacyEarn",
      "outputs": [],
      "stateMutability": "nonpayable",
      "type": "function"
    },
    {
      "inputs": [],
      "name": "manager",
      "outputs": [
        {
          "internalType": "contract IManager",
          "name": "",
          "type": "address"
        }
      ],
      "stateMutability": "view",
      "type": "function"
    },
    {
      "inputs": [
        {
          "internalType": "address",
          "name": "_vault",
          "type": "address"
        },
        {
          "internalType": "address",
          "name": "_strategy",
          "type": "address"
        },
        {
          "internalType": "uint256",
          "name": "_timeout",
          "type": "uint256"
        }
      ],
      "name": "removeStrategy",
      "outputs": [],
      "stateMutability": "nonpayable",
      "type": "function"
    },
    {
      "inputs": [
        {
          "internalType": "address",
          "name": "_harvester",
          "type": "address"
        },
        {
          "internalType": "bool",
          "name": "_status",
          "type": "bool"
        }
      ],
      "name": "setHarvester",
      "outputs": [],
      "stateMutability": "nonpayable",
      "type": "function"
    },
    {
      "inputs": [
        {
          "internalType": "uint256",
          "name": "_slippage",
          "type": "uint256"
        }
      ],
      "name": "setSlippage",
      "outputs": [],
      "stateMutability": "nonpayable",
      "type": "function"
    },
    {
      "inputs": [],
      "name": "slippage",
      "outputs": [
        {
          "internalType": "uint256",
          "name": "",
          "type": "uint256"
        }
      ],
      "stateMutability": "view",
      "type": "function"
    },
    {
      "inputs": [
        {
          "internalType": "address",
          "name": "",
          "type": "address"
        }
      ],
      "name": "strategies",
      "outputs": [
        {
          "internalType": "uint256",
          "name": "timeout",
          "type": "uint256"
        },
        {
          "internalType": "uint256",
          "name": "lastCalled",
          "type": "uint256"
        }
      ],
      "stateMutability": "view",
      "type": "function"
    },
    {
      "inputs": [
        {
          "internalType": "address",
          "name": "_vault",
          "type": "address"
        }
      ],
      "name": "strategyAddresses",
      "outputs": [
        {
          "internalType": "address[]",
          "name": "",
          "type": "address[]"
        }
      ],
      "stateMutability": "view",
      "type": "function"
    }
  ],
  "bytecode": "0x60e060405234801561001057600080fd5b50604051611a42380380611a428339818101604052606081101561003357600080fd5b50805160208201516040909201516001600160601b0319606092831b811660805292821b831660a052901b1660c05260805160601c60a05160601c60c05160601c6119836100bf6000398061042052806114ca525080610bd4528061166252508061054a528061069852806106da528061082c52806111965280611253528061154b52506119836000f3fe608060405234801561001057600080fd5b50600436106101165760003560e01c8063700ce658116100a2578063dd0081c711610071578063dd0081c7146103ae578063ef73bb57146103b6578063f0fa55a9146103d3578063f77c4791146103f0578063fb70261a146103f857610116565b8063700ce658146102a65780639af409dd146102d8578063a71bbfd51461034e578063b6dcbde71461038857610116565b80633e032a3b116100e95780633e032a3b146101ea578063481c6a75146102045780634b704acd1461020c5780636bb3722e146102425780636bc9a5a91461027857610116565b8063039f28c21461011b578063260feb361461013f57806331b710571461017d57806339ebf823146101ab575b600080fd5b61012361041e565b604080516001600160a01b039092168252519081900360200190f35b61017b6004803603608081101561015557600080fd5b506001600160a01b03813581169160208101359091169060408101359060600135610442565b005b61017b6004803603604081101561019357600080fd5b506001600160a01b0381351690602001351515610548565b6101d1600480360360208110156101c157600080fd5b50356001600160a01b0316610677565b6040805192835260208301919091528051918290030190f35b6101f2610690565b60408051918252519081900360200190f35b610123610696565b61017b6004803603606081101561022257600080fd5b506001600160a01b038135811691602081013590911690604001356106ba565b61017b6004803603606081101561025857600080fd5b506001600160a01b0381358116916020810135909116906040013561080c565b61017b6004803603604081101561028e57600080fd5b506001600160a01b0381358116916020013516610a97565b61017b600480360360608110156102bc57600080fd5b506001600160a01b038135169060208101359060400135610b4b565b6102fe600480360360208110156102ee57600080fd5b50356001600160a01b0316610d6c565b60408051602080825283518183015283519192839290830191858101910280838360005b8381101561033a578181015183820152602001610322565b505050509050019250505060405180910390f35b6103746004803603602081101561036457600080fd5b50356001600160a01b0316610de5565b604080519115158252519081900360200190f35b6101d16004803603602081101561039e57600080fd5b50356001600160a01b0316610dfa565b6101f2611471565b61017b600480360360208110156103cc57600080fd5b5035611477565b61017b600480360360208110156103e957600080fd5b5035611549565b610123611660565b6103746004803603602081101561040e57600080fd5b50356001600160a01b0316611684565b7f000000000000000000000000000000000000000000000000000000000000000081565b3360009081526002602052604090205460ff16610493576040805162461bcd60e51b815260206004820152600a60248201526910b430b93b32b9ba32b960b11b604482015290519081900360640190fd5b836001600160a01b031663a8671c318484846040518463ffffffff1660e01b815260040180846001600160a01b031681526020018381526020018281526020019350505050600060405180830381600087803b1580156104f257600080fd5b505af1158015610506573d6000803e3d6000fd5b50506040516001600160a01b038087169350871691507ffdfdf879d9abdea70f1d228c39cf14f5e7179a54f36b378f29bccfe7648f333e90600090a350505050565b7f00000000000000000000000000000000000000000000000000000000000000006001600160a01b0316631fe4a6866040518163ffffffff1660e01b815260040160206040518083038186803b1580156105a157600080fd5b505afa1580156105b5573d6000803e3d6000fd5b505050506040513d60208110156105cb57600080fd5b50516001600160a01b03163314610617576040805162461bcd60e51b815260206004820152600b60248201526a085cdd1c985d1959da5cdd60aa1b604482015290519081900360640190fd5b6001600160a01b038216600081815260026020908152604091829020805460ff1916851515908117909155825190815291517f0dd4aeebdb71d8f88640d3361815b0e64e31aaf0ee73ad7f5a421115fac879ae9281900390910190a25050565b6001602081905260009182526040909120805491015482565b60005481565b7f000000000000000000000000000000000000000000000000000000000000000081565b60408051633577910560e11b815233600482015290516001600160a01b037f00000000000000000000000000000000000000000000000000000000000000001691636aef220a916024808301926020929190829003018186803b15801561072057600080fd5b505afa158015610734573d6000803e3d6000fd5b505050506040513d602081101561074a57600080fd5b505161078b576040805162461bcd60e51b815260206004820152600b60248201526a10b1b7b73a3937b63632b960a91b604482015290519081900360640190fd5b6001600160a01b0383811660008181526001602081815260408084206002810180549485018155855282852090930180546001600160a01b03191696891696871790559284905290859055815185815291517fc2008aa15e9b0989ec7ae02bc3d8054428c527c989269ffb2a5bff829028a0129281900390910190a3505050565b60408051633577910560e11b815233600482015290516001600160a01b037f00000000000000000000000000000000000000000000000000000000000000001691636aef220a916024808301926020929190829003018186803b15801561087257600080fd5b505afa158015610886573d6000803e3d6000fd5b505050506040513d602081101561089c57600080fd5b50516108dd576040805162461bcd60e51b815260206004820152600b60248201526a10b1b7b73a3937b63632b960a91b604482015290519081900360640190fd5b6001600160a01b0383166000908152600160205260408120600201549080805b83811015610960576001600160a01b0387811660009081526001602052604090206002018054918816918390811061093157fe5b6000918252602090912001546001600160a01b031614156109585780925060019150610960565b6001016108fd565b508015610a8f576001600160a01b0386166000908152600160208190526040909120600201906109919085906116c6565b8154811061099b57fe5b60009182526020808320909101546001600160a01b038981168452600190925260409092206002018054919092169190849081106109d557fe5b600091825260208083209190910180546001600160a01b0319166001600160a01b039485161790559188168152600190915260409020600201805480610a1757fe5b60008281526020808220830160001990810180546001600160a01b03191690559092019092556001600160a01b0388811680845260018352604093849020889055835188815293519189169390927fdd3e131c7baafda30070fc3f53c5153570a3e6552809d20e2b682dd30fa7cc6e92918290030190a35b505050505050565b3360009081526002602052604090205460ff16610ae8576040805162461bcd60e51b815260206004820152600a60248201526910b430b93b32b9ba32b960b11b604482015290519081900360640190fd5b806001600160a01b031663fdb5fefc836040518263ffffffff1660e01b815260040180826001600160a01b03168152602001915050600060405180830381600087803b158015610b3757600080fd5b505af1158015610a8f573d6000803e3d6000fd5b610b5483611684565b610b93576040805162461bcd60e51b815260206004820152600b60248201526a0858d85b92185c9d995cdd60aa1b604482015290519081900360640190fd5b6001600160a01b038316600090815260016020526040812060020180548290610bb857fe5b6000918252602090912001546001600160a01b03169050610bfb7f0000000000000000000000000000000000000000000000000000000000000000828585610442565b6001600160a01b03841660009081526001602081905260409091206002015490811115610d485760608167ffffffffffffffff81118015610c3b57600080fd5b50604051908082528060200260200182016040528015610c65578160200160208202803683370190505b50905060005b60018303811015610cf65760016000886001600160a01b03166001600160a01b031681526020019081526020016000206002018160010181548110610cac57fe5b9060005260206000200160009054906101000a90046001600160a01b0316828281518110610cd657fe5b6001600160a01b0390921660209283029190910190910152600101610c6b565b5082816001840381518110610d0757fe5b6001600160a01b03928316602091820292909201810191909152908716600090815260018252604090208251610d45926002909201918401906118a8565b50505b505050506001600160a01b0316600090815260016020819052604090912042910155565b6001600160a01b038116600090815260016020908152604091829020600201805483518184028101840190945280845260609392830182828015610dd957602002820191906000526020600020905b81546001600160a01b03168152600190910190602001808311610dbb575b50505050509050919050565b60026020526000908152604090205460ff1681565b6000806000836001600160a01b031663f887ea406040518163ffffffff1660e01b815260040160206040518083038186803b158015610e3857600080fd5b505afa158015610e4c573d6000803e3d6000fd5b505050506040513d6020811015610e6257600080fd5b505160408051631f1fcd5160e01b815290519192506060916001600160a01b03871691631f1fcd51916004808301926020929190829003018186803b158015610eaa57600080fd5b505afa158015610ebe573d6000803e3d6000fd5b505050506040513d6020811015610ed457600080fd5b505181518290600090610ee357fe5b60200260200101906001600160a01b031690816001600160a01b031681525050846001600160a01b0316633fc8cef36040518163ffffffff1660e01b815260040160206040518083038186803b158015610f3c57600080fd5b505afa158015610f50573d6000803e3d6000fd5b505050506040513d6020811015610f6657600080fd5b5051815182906001908110610f7757fe5b60200260200101906001600160a01b031690816001600160a01b0316815250506060826001600160a01b031663d06ca61f876001600160a01b031663115880866040518163ffffffff1660e01b815260040160206040518083038186803b158015610fe157600080fd5b505afa158015610ff5573d6000803e3d6000fd5b505050506040513d602081101561100b57600080fd5b5051604080516001600160e01b031960e085901b168152600481018381526024820192835287516044830152875188939192606401906020858101910280838360005b8381101561106657818101518382015260200161104e565b50505050905001935050505060006040518083038186803b15801561108a57600080fd5b505afa15801561109e573d6000803e3d6000fd5b505050506040513d6000823e601f3d908101601f1916820160405260208110156110c757600080fd5b81019080805160405193929190846401000000008211156110e757600080fd5b9083019060208201858111156110fc57600080fd5b825186602082028301116401000000008211171561111957600080fd5b82525081516020918201928201910280838360005b8381101561114657818101518382015260200161112e565b5050505090500160405250505090508060018151811061116257fe5b6020026020010151945060008054905060008111156111945761119161271061118b8884611711565b9061176a565b95505b7f00000000000000000000000000000000000000000000000000000000000000006001600160a01b0316633f021b0e6040518163ffffffff1660e01b815260040160206040518083038186803b1580156111ed57600080fd5b505afa158015611201573d6000803e3d6000fd5b505050506040513d602081101561121757600080fd5b50518351849060009061122657fe5b60200260200101906001600160a01b031690816001600160a01b03168152505060006112dd61271061118b7f00000000000000000000000000000000000000000000000000000000000000006001600160a01b031663cc32d1766040518163ffffffff1660e01b815260040160206040518083038186803b1580156112aa57600080fd5b505afa1580156112be573d6000803e3d6000fd5b505050506040513d60208110156112d457600080fd5b50518a90611711565b9050846001600160a01b031663d06ca61f82866040518363ffffffff1660e01b81526004018083815260200180602001828103825283818151815260200191508051906020019060200280838360005b8381101561134557818101518382015260200161132d565b50505050905001935050505060006040518083038186803b15801561136957600080fd5b505afa15801561137d573d6000803e3d6000fd5b505050506040513d6000823e601f3d908101601f1916820160405260208110156113a657600080fd5b81019080805160405193929190846401000000008211156113c657600080fd5b9083019060208201858111156113db57600080fd5b82518660208202830111640100000000821117156113f857600080fd5b82525081516020918201928201910280838360005b8381101561142557818101518382015260200161140d565b5050505090500160405250505092508260018151811061144157fe5b6020026020010151955060008211156114675761146461271061118b8885611711565b95505b5050505050915091565b61271081565b3360009081526002602052604090205460ff166114c8576040805162461bcd60e51b815260206004820152600a60248201526910b430b93b32b9ba32b960b11b604482015290519081900360640190fd5b7f00000000000000000000000000000000000000000000000000000000000000006001600160a01b0316632c4c95a1826040518263ffffffff1660e01b815260040180828152602001915050600060405180830381600087803b15801561152e57600080fd5b505af1158015611542573d6000803e3d6000fd5b5050505050565b7f00000000000000000000000000000000000000000000000000000000000000006001600160a01b0316631fe4a6866040518163ffffffff1660e01b815260040160206040518083038186803b1580156115a257600080fd5b505afa1580156115b6573d6000803e3d6000fd5b505050506040513d60208110156115cc57600080fd5b50516001600160a01b03163314611618576040805162461bcd60e51b815260206004820152600b60248201526a085cdd1c985d1959da5cdd60aa1b604482015290519081900360640190fd5b612710811061165b576040805162461bcd60e51b815260206004820152600a602482015269215f736c69707061676560b01b604482015290519081900360640190fd5b600055565b7f000000000000000000000000000000000000000000000000000000000000000081565b6001600160a01b03811660009081526001602052604081206002810154158015906116bf575080546116b79042906116c6565b816001015411155b9392505050565b600061170883836040518060400160405280601e81526020017f536166654d6174683a207375627472616374696f6e206f766572666c6f7700008152506117ac565b90505b92915050565b6000826117205750600061170b565b8282028284828161172d57fe5b04146117085760405162461bcd60e51b815260040180806020018281038252602181526020018061192d6021913960400191505060405180910390fd5b600061170883836040518060400160405280601a81526020017f536166654d6174683a206469766973696f6e206279207a65726f000000000000815250611843565b6000818484111561183b5760405162461bcd60e51b81526004018080602001828103825283818151815260200191508051906020019080838360005b838110156118005781810151838201526020016117e8565b50505050905090810190601f16801561182d5780820380516001836020036101000a031916815260200191505b509250505060405180910390fd5b505050900390565b600081836118925760405162461bcd60e51b81526020600482018181528351602484015283519092839260449091019190850190808383600083156118005781810151838201526020016117e8565b50600083858161189e57fe5b0495945050505050565b8280548282559060005260206000209081019282156118fd579160200282015b828111156118fd57825182546001600160a01b0319166001600160a01b039091161782556020909201916001909101906118c8565b5061190992915061190d565b5090565b5b808211156119095780546001600160a01b031916815560010161190e56fe536166654d6174683a206d756c7469706c69636174696f6e206f766572666c6f77a2646970667358221220ee5347ccc076ae9e2e55e79213bf8aa3082757f453bd0322e7ae51a93c98415064736f6c634300060c0033",
  "linkReferences": {},
  "deployedLinkReferences": {}
}