{
  "_format": "hh-sol-artifact-1",
  "contractName": "FlanBackstop",
  "sourceName": "contracts/FlanBackstop.sol",
  "abi": [
    {
      "inputs": [
        {
          "internalType": "address",
          "name": "dao",
          "type": "address"
        },
        {
          "internalType": "address",
          "name": "flan",
          "type": "address"
        },
        {
          "internalType": "address",
          "name": "pyroFlan",
          "type": "address"
        }
      ],
      "stateMutability": "nonpayable",
      "type": "constructor"
    },
    {
      "inputs": [],
      "name": "DAO",
      "outputs": [
        {
          "internalType": "address",
          "name": "",
          "type": "address"
        }
      ],
      "stateMutability": "view",
      "type": "function"
    },
    {
      "inputs": [],
      "name": "config",
      "outputs": [
        {
          "internalType": "address",
          "name": "flan",
          "type": "address"
        },
        {
          "internalType": "address",
          "name": "pyroFlan",
          "type": "address"
        }
      ],
      "stateMutability": "view",
      "type": "function"
    },
    {
      "inputs": [],
      "name": "configured",
      "outputs": [
        {
          "internalType": "bool",
          "name": "",
          "type": "bool"
        }
      ],
      "stateMutability": "view",
      "type": "function"
    },
    {
      "inputs": [],
      "name": "endConfiguration",
      "outputs": [],
      "stateMutability": "nonpayable",
      "type": "function"
    },
    {
      "inputs": [
        {
          "internalType": "address",
          "name": "stablecoin",
          "type": "address"
        },
        {
          "internalType": "uint256",
          "name": "amount",
          "type": "uint256"
        }
      ],
      "name": "purchasePyroFlan",
      "outputs": [],
      "stateMutability": "nonpayable",
      "type": "function"
    },
    {
      "inputs": [
        {
          "internalType": "address",
          "name": "stablecoin",
          "type": "address"
        },
        {
          "internalType": "address",
          "name": "flanLP",
          "type": "address"
        },
        {
          "internalType": "address",
          "name": "pyroFlanLP",
          "type": "address"
        },
        {
          "internalType": "uint256",
          "name": "acceptableHighestPrice",
          "type": "uint256"
        },
        {
          "internalType": "uint8",
          "name": "decimalPlaces",
          "type": "uint8"
        }
      ],
      "name": "setBacker",
      "outputs": [],
      "stateMutability": "nonpayable",
      "type": "function"
    },
    {
      "inputs": [
        {
          "internalType": "address",
          "name": "dao",
          "type": "address"
        }
      ],
      "name": "setDAO",
      "outputs": [],
      "stateMutability": "nonpayable",
      "type": "function"
    }
  ],
  "bytecode": "0x60806040523480156200001157600080fd5b5060405162002492380380620024928339818101604052810190620000379190620003f4565b8262000049816200018f60201b60201c565b5080600260010160006101000a81548173ffffffffffffffffffffffffffffffffffffffff021916908373ffffffffffffffffffffffffffffffffffffffff16021790555081600260000160006101000a81548173ffffffffffffffffffffffffffffffffffffffff021916908373ffffffffffffffffffffffffffffffffffffffff1602179055508173ffffffffffffffffffffffffffffffffffffffff1663095ea7b3827fffffffffffffffffffffffffffffffffffffffffffffffffffffffffffffffff6040518363ffffffff1660e01b81526004016200012f929190620004bf565b602060405180830381600087803b1580156200014a57600080fd5b505af11580156200015f573d6000803e3d6000fd5b505050506040513d601f19601f820116820180604052508101906200018591906200044a565b50505050620005da565b600073ffffffffffffffffffffffffffffffffffffffff16600160009054906101000a900473ffffffffffffffffffffffffffffffffffffffff1673ffffffffffffffffffffffffffffffffffffffff1614806200023a5750600160009054906101000a900473ffffffffffffffffffffffffffffffffffffffff1673ffffffffffffffffffffffffffffffffffffffff163373ffffffffffffffffffffffffffffffffffffffff16145b80620002535750600060149054906101000a900460ff16155b62000295576040517f08c379a00000000000000000000000000000000000000000000000000000000081526004016200028c90620004ec565b60405180910390fd5b80600160006101000a81548173ffffffffffffffffffffffffffffffffffffffff021916908373ffffffffffffffffffffffffffffffffffffffff1602179055508073ffffffffffffffffffffffffffffffffffffffff16632317beae6040518163ffffffff1660e01b815260040160206040518083038186803b1580156200031d57600080fd5b505afa15801562000332573d6000803e3d6000fd5b505050506040513d601f19601f82011682018060405250810190620003589190620003c8565b6000806101000a81548173ffffffffffffffffffffffffffffffffffffffff021916908373ffffffffffffffffffffffffffffffffffffffff16021790555050565b600081519050620003ab81620005a6565b92915050565b600081519050620003c281620005c0565b92915050565b600060208284031215620003db57600080fd5b6000620003eb848285016200039a565b91505092915050565b6000806000606084860312156200040a57600080fd5b60006200041a868287016200039a565b93505060206200042d868287016200039a565b925050604062000440868287016200039a565b9150509250925092565b6000602082840312156200045d57600080fd5b60006200046d84828501620003b1565b91505092915050565b62000481816200051f565b82525050565b620004928162000569565b82525050565b6000620004a76002836200050e565b9150620004b4826200057d565b602082019050919050565b6000604082019050620004d6600083018562000476565b620004e5602083018462000487565b9392505050565b60006020820190508181036000830152620005078162000498565b9050919050565b600082825260208201905092915050565b60006200052c826200053f565b9050919050565b60008115159050919050565b600073ffffffffffffffffffffffffffffffffffffffff82169050919050565b6000819050919050565b600062000576826200055f565b9050919050565b7f454b000000000000000000000000000000000000000000000000000000000000600082015250565b620005b1816200051f565b8114620005bd57600080fd5b50565b620005cb8162000533565b8114620005d757600080fd5b50565b611ea880620005ea6000396000f3fe608060405234801561001057600080fd5b506004361061007d5760003560e01c806379502c551161005b57806379502c55146100c45780638772a23a146100e357806398fabd3a14610101578063e73a914c1461011f5761007d565b80630122d9671461008257806341e69b491461009e578063478fa629146100ba575b600080fd5b61009c600480360381019061009791906116f8565b61013b565b005b6100b860048036038101906100b3919061176f565b6102ee565b005b6100c2611181565b005b6100cc61119e565b6040516100da9291906118d1565b60405180910390f35b6100eb6111f0565b6040516100f8919061195a565b60405180910390f35b610109611203565b60405161011691906118b6565b60405180910390f35b610139600480360381019061013491906116a6565b611229565b005b6101443361142b565b836002800160008773ffffffffffffffffffffffffffffffffffffffff1673ffffffffffffffffffffffffffffffffffffffff16815260200190815260200160002060006101000a81548173ffffffffffffffffffffffffffffffffffffffff021916908373ffffffffffffffffffffffffffffffffffffffff16021790555082600260030160008773ffffffffffffffffffffffffffffffffffffffff1673ffffffffffffffffffffffffffffffffffffffff16815260200190815260200160002060006101000a81548173ffffffffffffffffffffffffffffffffffffffff021916908373ffffffffffffffffffffffffffffffffffffffff16021790555081600260040160008773ffffffffffffffffffffffffffffffffffffffff1673ffffffffffffffffffffffffffffffffffffffff1681526020019081526020016000208190555080600260050160008773ffffffffffffffffffffffffffffffffffffffff1673ffffffffffffffffffffffffffffffffffffffff16815260200190815260200160002060006101000a81548160ff021916908360ff1602179055505050505050565b60006102fa8383611530565b905060006002800160008573ffffffffffffffffffffffffffffffffffffffff1673ffffffffffffffffffffffffffffffffffffffff16815260200190815260200160002060009054906101000a900473ffffffffffffffffffffffffffffffffffffffff1690506000600260030160008673ffffffffffffffffffffffffffffffffffffffff1673ffffffffffffffffffffffffffffffffffffffff16815260200190815260200160002060009054906101000a900473ffffffffffffffffffffffffffffffffffffffff169050600073ffffffffffffffffffffffffffffffffffffffff168273ffffffffffffffffffffffffffffffffffffffff16141580156104335750600073ffffffffffffffffffffffffffffffffffffffff168173ffffffffffffffffffffffffffffffffffffffff1614155b610472576040517f08c379a000000000000000000000000000000000000000000000000000000000815260040161046990611995565b60405180910390fd5b6000600260000160009054906101000a900473ffffffffffffffffffffffffffffffffffffffff1673ffffffffffffffffffffffffffffffffffffffff166370a08231846040518263ffffffff1660e01b81526004016104d291906118b6565b60206040518083038186803b1580156104ea57600080fd5b505afa1580156104fe573d6000803e3d6000fd5b505050506040513d601f19601f8201168201806040525081019061052291906117d4565b905060008673ffffffffffffffffffffffffffffffffffffffff166370a08231856040518263ffffffff1660e01b815260040161055f91906118b6565b60206040518083038186803b15801561057757600080fd5b505afa15801561058b573d6000803e3d6000fd5b505050506040513d601f19601f820116820180604052508101906105af91906117d4565b90506000816105bd896115bb565b846105c89190611bfe565b6105d29190611a5c565b9050600260000160009054906101000a900473ffffffffffffffffffffffffffffffffffffffff1673ffffffffffffffffffffffffffffffffffffffff166340c10f19306002896106239190611a5c565b6040518363ffffffff1660e01b8152600401610640929190611931565b602060405180830381600087803b15801561065a57600080fd5b505af115801561066e573d6000803e3d6000fd5b505050506040513d601f19601f8201168201806040525081019061069291906117ab565b50600260000160009054906101000a900473ffffffffffffffffffffffffffffffffffffffff1673ffffffffffffffffffffffffffffffffffffffff1663a9059cbb866004896106e29190611a5c565b6040518363ffffffff1660e01b81526004016106ff929190611931565b602060405180830381600087803b15801561071957600080fd5b505af115801561072d573d6000803e3d6000fd5b505050506040513d601f19601f8201168201806040525081019061075191906117ab565b508773ffffffffffffffffffffffffffffffffffffffff166323b872dd338760028b61077d9190611a5c565b6040518463ffffffff1660e01b815260040161079b939291906118fa565b602060405180830381600087803b1580156107b557600080fd5b505af11580156107c9573d6000803e3d6000fd5b505050506040513d601f19601f820116820180604052508101906107ed91906117ab565b508473ffffffffffffffffffffffffffffffffffffffff16636a627842306040518263ffffffff1660e01b815260040161082791906118b6565b602060405180830381600087803b15801561084157600080fd5b505af1158015610855573d6000803e3d6000fd5b505050506040513d601f19601f8201168201806040525081019061087991906117d4565b506000600260010160009054906101000a900473ffffffffffffffffffffffffffffffffffffffff1673ffffffffffffffffffffffffffffffffffffffff16630adcdbaa6040518163ffffffff1660e01b815260040160206040518083038186803b1580156108e757600080fd5b505afa1580156108fb573d6000803e3d6000fd5b505050506040513d601f19601f8201168201806040525081019061091f91906117d4565b9050600260010160009054906101000a900473ffffffffffffffffffffffffffffffffffffffff1673ffffffffffffffffffffffffffffffffffffffff166340c10f198660048a6109709190611a5c565b6040518363ffffffff1660e01b815260040161098d929190611931565b602060405180830381600087803b1580156109a757600080fd5b505af11580156109bb573d6000803e3d6000fd5b505050506040513d601f19601f820116820180604052508101906109df91906117d4565b50600260010160009054906101000a900473ffffffffffffffffffffffffffffffffffffffff1673ffffffffffffffffffffffffffffffffffffffff16630adcdbaa6040518163ffffffff1660e01b815260040160206040518083038186803b158015610a4b57600080fd5b505afa158015610a5f573d6000803e3d6000fd5b505050506040513d601f19601f82011682018060405250810190610a8391906117d4565b9050600260010160009054906101000a900473ffffffffffffffffffffffffffffffffffffffff1673ffffffffffffffffffffffffffffffffffffffff16630adcdbaa6040518163ffffffff1660e01b815260040160206040518083038186803b158015610af057600080fd5b505afa158015610b04573d6000803e3d6000fd5b505050506040513d601f19601f82011682018060405250810190610b2891906117d4565b90508873ffffffffffffffffffffffffffffffffffffffff166323b872dd338760028c610b559190611a5c565b6040518463ffffffff1660e01b8152600401610b73939291906118fa565b602060405180830381600087803b158015610b8d57600080fd5b505af1158015610ba1573d6000803e3d6000fd5b505050506040513d601f19601f82011682018060405250810190610bc591906117ab565b508473ffffffffffffffffffffffffffffffffffffffff16636a627842306040518263ffffffff1660e01b8152600401610bff91906118b6565b602060405180830381600087803b158015610c1957600080fd5b505af1158015610c2d573d6000803e3d6000fd5b505050506040513d601f19601f82011682018060405250810190610c5191906117d4565b506000600260000160009054906101000a900473ffffffffffffffffffffffffffffffffffffffff1673ffffffffffffffffffffffffffffffffffffffff166370a08231886040518263ffffffff1660e01b8152600401610cb291906118b6565b60206040518083038186803b158015610cca57600080fd5b505afa158015610cde573d6000803e3d6000fd5b505050506040513d601f19601f82011682018060405250810190610d0291906117d4565b905060008a73ffffffffffffffffffffffffffffffffffffffff166370a08231896040518263ffffffff1660e01b8152600401610d3f91906118b6565b60206040518083038186803b158015610d5757600080fd5b505afa158015610d6b573d6000803e3d6000fd5b505050506040513d601f19601f82011682018060405250810190610d8f91906117d4565b9050600081610d9d8d6115bb565b84610da89190611bfe565b610db29190611a5c565b9050600260040160008d73ffffffffffffffffffffffffffffffffffffffff1673ffffffffffffffffffffffffffffffffffffffff168152602001908152602001600020548110610e38576040517f08c379a0000000000000000000000000000000000000000000000000000000008152600401610e2f906119d5565b60405180910390fd5b60008560648388610e499190611c58565b610e539190611bfe565b610e5d9190611a5c565b90506000670de0b6b3a76400008c84610e769190611bfe565b610e809190611a5c565b905060006064600284610e939190611a5c565b83610e9e9190611bfe565b610ea89190611a5c565b9050600260000160009054906101000a900473ffffffffffffffffffffffffffffffffffffffff1673ffffffffffffffffffffffffffffffffffffffff166340c10f19308385610ef89190611a06565b6040518363ffffffff1660e01b8152600401610f15929190611931565b602060405180830381600087803b158015610f2f57600080fd5b505af1158015610f43573d6000803e3d6000fd5b505050506040513d601f19601f82011682018060405250810190610f6791906117ab565b50600260010160009054906101000a900473ffffffffffffffffffffffffffffffffffffffff1673ffffffffffffffffffffffffffffffffffffffff16630adcdbaa6040518163ffffffff1660e01b815260040160206040518083038186803b158015610fd357600080fd5b505afa158015610fe7573d6000803e3d6000fd5b505050506040513d601f19601f8201168201806040525081019061100b91906117d4565b9650600260010160009054906101000a900473ffffffffffffffffffffffffffffffffffffffff1673ffffffffffffffffffffffffffffffffffffffff166340c10f1933838561105b9190611a06565b6040518363ffffffff1660e01b8152600401611078929190611931565b602060405180830381600087803b15801561109257600080fd5b505af11580156110a6573d6000803e3d6000fd5b505050506040513d601f19601f820116820180604052508101906110ca91906117d4565b50600260010160009054906101000a900473ffffffffffffffffffffffffffffffffffffffff1673ffffffffffffffffffffffffffffffffffffffff16630adcdbaa6040518163ffffffff1660e01b815260040160206040518083038186803b15801561113657600080fd5b505afa15801561114a573d6000803e3d6000fd5b505050506040513d601f19601f8201168201806040525081019061116e91906117d4565b9650505050505050505050505050505050565b6001600060146101000a81548160ff021916908315150217905550565b60028060000160009054906101000a900473ffffffffffffffffffffffffffffffffffffffff16908060010160009054906101000a900473ffffffffffffffffffffffffffffffffffffffff16905082565b600060149054906101000a900460ff1681565b600160009054906101000a900473ffffffffffffffffffffffffffffffffffffffff1681565b600073ffffffffffffffffffffffffffffffffffffffff16600160009054906101000a900473ffffffffffffffffffffffffffffffffffffffff1673ffffffffffffffffffffffffffffffffffffffff1614806112d35750600160009054906101000a900473ffffffffffffffffffffffffffffffffffffffff1673ffffffffffffffffffffffffffffffffffffffff163373ffffffffffffffffffffffffffffffffffffffff16145b806112eb5750600060149054906101000a900460ff16155b61132a576040517f08c379a000000000000000000000000000000000000000000000000000000000815260040161132190611975565b60405180910390fd5b80600160006101000a81548173ffffffffffffffffffffffffffffffffffffffff021916908373ffffffffffffffffffffffffffffffffffffffff1602179055508073ffffffffffffffffffffffffffffffffffffffff16632317beae6040518163ffffffff1660e01b815260040160206040518083038186803b1580156113b157600080fd5b505afa1580156113c5573d6000803e3d6000fd5b505050506040513d601f19601f820116820180604052508101906113e991906116cf565b6000806101000a81548173ffffffffffffffffffffffffffffffffffffffff021916908373ffffffffffffffffffffffffffffffffffffffff16021790555050565b600060149054906101000a900460ff1615806114ee5750600160009054906101000a900473ffffffffffffffffffffffffffffffffffffffff1673ffffffffffffffffffffffffffffffffffffffff1663b7ebc23b826040518263ffffffff1660e01b815260040161149d91906118b6565b60206040518083038186803b1580156114b557600080fd5b505afa1580156114c9573d6000803e3d6000fd5b505050506040513d601f19601f820116820180604052508101906114ed91906117ab565b5b61152d576040517f08c379a0000000000000000000000000000000000000000000000000000000008152600401611524906119b5565b60405180910390fd5b50565b600080600260050160008573ffffffffffffffffffffffffffffffffffffffff1673ffffffffffffffffffffffffffffffffffffffff16815260200190815260200160002060009054906101000a900460ff1660ff16905060008160126115979190611c58565b600a6115a39190611ae0565b905080846115b19190611bfe565b9250505092915050565b600080600260050160008473ffffffffffffffffffffffffffffffffffffffff1673ffffffffffffffffffffffffffffffffffffffff16815260200190815260200160002060009054906101000a900460ff1660ff16905080600a6116209190611ae0565b915050919050565b60008135905061163781611e16565b92915050565b60008151905061164c81611e16565b92915050565b60008151905061166181611e2d565b92915050565b60008135905061167681611e44565b92915050565b60008151905061168b81611e44565b92915050565b6000813590506116a081611e5b565b92915050565b6000602082840312156116b857600080fd5b60006116c684828501611628565b91505092915050565b6000602082840312156116e157600080fd5b60006116ef8482850161163d565b91505092915050565b600080600080600060a0868803121561171057600080fd5b600061171e88828901611628565b955050602061172f88828901611628565b945050604061174088828901611628565b935050606061175188828901611667565b925050608061176288828901611691565b9150509295509295909350565b6000806040838503121561178257600080fd5b600061179085828601611628565b92505060206117a185828601611667565b9150509250929050565b6000602082840312156117bd57600080fd5b60006117cb84828501611652565b91505092915050565b6000602082840312156117e657600080fd5b60006117f48482850161167c565b91505092915050565b61180681611c8c565b82525050565b61181581611c9e565b82525050565b60006118286002836119f5565b915061183382611d4c565b602082019050919050565b600061184b601e836119f5565b915061185682611d75565b602082019050919050565b600061186e6002836119f5565b915061187982611d9e565b602082019050919050565b60006118916026836119f5565b915061189c82611dc7565b604082019050919050565b6118b081611cca565b82525050565b60006020820190506118cb60008301846117fd565b92915050565b60006040820190506118e660008301856117fd565b6118f360208301846117fd565b9392505050565b600060608201905061190f60008301866117fd565b61191c60208301856117fd565b61192960408301846118a7565b949350505050565b600060408201905061194660008301856117fd565b61195360208301846118a7565b9392505050565b600060208201905061196f600083018461180c565b92915050565b6000602082019050818103600083015261198e8161181b565b9050919050565b600060208201905081810360008301526119ae8161183e565b9050919050565b600060208201905081810360008301526119ce81611861565b9050919050565b600060208201905081810360008301526119ee81611884565b9050919050565b600082825260208201905092915050565b6000611a1182611cca565b9150611a1c83611cca565b9250827fffffffffffffffffffffffffffffffffffffffffffffffffffffffffffffffff03821115611a5157611a50611ce1565b5b828201905092915050565b6000611a6782611cca565b9150611a7283611cca565b925082611a8257611a81611d10565b5b828204905092915050565b6000808291508390505b6001851115611ad757808604811115611ab357611ab2611ce1565b5b6001851615611ac25780820291505b8081029050611ad085611d3f565b9450611a97565b94509492505050565b6000611aeb82611cca565b9150611af683611cca565b9250611b237fffffffffffffffffffffffffffffffffffffffffffffffffffffffffffffffff8484611b2b565b905092915050565b600082611b3b5760019050611bf7565b81611b495760009050611bf7565b8160018114611b5f5760028114611b6957611b98565b6001915050611bf7565b60ff841115611b7b57611b7a611ce1565b5b8360020a915084821115611b9257611b91611ce1565b5b50611bf7565b5060208310610133831016604e8410600b8410161715611bcd5782820a905083811115611bc857611bc7611ce1565b5b611bf7565b611bda8484846001611a8d565b92509050818404811115611bf157611bf0611ce1565b5b81810290505b9392505050565b6000611c0982611cca565b9150611c1483611cca565b9250817fffffffffffffffffffffffffffffffffffffffffffffffffffffffffffffffff0483118215151615611c4d57611c4c611ce1565b5b828202905092915050565b6000611c6382611cca565b9150611c6e83611cca565b925082821015611c8157611c80611ce1565b5b828203905092915050565b6000611c9782611caa565b9050919050565b60008115159050919050565b600073ffffffffffffffffffffffffffffffffffffffff82169050919050565b6000819050919050565b600060ff82169050919050565b7f4e487b7100000000000000000000000000000000000000000000000000000000600052601160045260246000fd5b7f4e487b7100000000000000000000000000000000000000000000000000000000600052601260045260246000fd5b60008160011c9050919050565b7f454b000000000000000000000000000000000000000000000000000000000000600082015250565b7f4241434b53544f503a20636f6e66696775726520737461626c65636f696e0000600082015250565b7f454a000000000000000000000000000000000000000000000000000000000000600082015250565b7f4241434b53544f503a20706f74656e7469616c207072696365206d616e69707560008201527f6c6174696f6e0000000000000000000000000000000000000000000000000000602082015250565b611e1f81611c8c565b8114611e2a57600080fd5b50565b611e3681611c9e565b8114611e4157600080fd5b50565b611e4d81611cca565b8114611e5857600080fd5b50565b611e6481611cd4565b8114611e6f57600080fd5b5056fea264697066735822122098a8915897b258bd34c7081c870987a8bda3a32ef416a3a345c322af96847b6d64736f6c63430008040033",
  "linkReferences": {},
  "deployedLinkReferences": {}
}