{
  "_format": "hh-sol-artifact-1",
  "contractName": "Minter",
  "sourceName": "contracts/tokenomics/Minter.sol",
  "abi": [
    {
      "inputs": [
        {
          "internalType": "uint256",
          "name": "_annualInflationRateLp",
          "type": "uint256"
        },
        {
          "internalType": "uint256",
          "name": "_annualInflationRateKeeper",
          "type": "uint256"
        },
        {
          "internalType": "uint256",
          "name": "_annualInflationRateAmm",
          "type": "uint256"
        },
        {
          "internalType": "uint256",
          "name": "_annualInflationDecayLp",
          "type": "uint256"
        },
        {
          "internalType": "uint256",
          "name": "_annualInflationDecayKeeper",
          "type": "uint256"
        },
        {
          "internalType": "uint256",
          "name": "_annualInflationDecayAmm",
          "type": "uint256"
        },
        {
          "internalType": "uint256",
          "name": "_initialPeriodKeeperInflation",
          "type": "uint256"
        },
        {
          "internalType": "uint256",
          "name": "_initialPeriodAmmInflation",
          "type": "uint256"
        },
        {
          "internalType": "uint256",
          "name": "_nonInflationDistribution",
          "type": "uint256"
        },
        {
          "internalType": "contract IController",
          "name": "_controller",
          "type": "address"
        }
      ],
      "stateMutability": "nonpayable",
      "type": "constructor"
    },
    {
      "anonymous": false,
      "inputs": [
        {
          "indexed": false,
          "internalType": "address",
          "name": "beneficiary",
          "type": "address"
        },
        {
          "indexed": false,
          "internalType": "uint256",
          "name": "amount",
          "type": "uint256"
        }
      ],
      "name": "TokensMinted",
      "type": "event"
    },
    {
      "inputs": [],
      "name": "annualInflationDecayAmm",
      "outputs": [
        {
          "internalType": "uint256",
          "name": "",
          "type": "uint256"
        }
      ],
      "stateMutability": "view",
      "type": "function"
    },
    {
      "inputs": [],
      "name": "annualInflationDecayKeeper",
      "outputs": [
        {
          "internalType": "uint256",
          "name": "",
          "type": "uint256"
        }
      ],
      "stateMutability": "view",
      "type": "function"
    },
    {
      "inputs": [],
      "name": "annualInflationDecayLp",
      "outputs": [
        {
          "internalType": "uint256",
          "name": "",
          "type": "uint256"
        }
      ],
      "stateMutability": "view",
      "type": "function"
    },
    {
      "inputs": [],
      "name": "controller",
      "outputs": [
        {
          "internalType": "contract IController",
          "name": "",
          "type": "address"
        }
      ],
      "stateMutability": "view",
      "type": "function"
    },
    {
      "inputs": [],
      "name": "currentInflationAmountAmm",
      "outputs": [
        {
          "internalType": "uint256",
          "name": "",
          "type": "uint256"
        }
      ],
      "stateMutability": "view",
      "type": "function"
    },
    {
      "inputs": [],
      "name": "currentInflationAmountKeeper",
      "outputs": [
        {
          "internalType": "uint256",
          "name": "",
          "type": "uint256"
        }
      ],
      "stateMutability": "view",
      "type": "function"
    },
    {
      "inputs": [],
      "name": "currentInflationAmountLp",
      "outputs": [
        {
          "internalType": "uint256",
          "name": "",
          "type": "uint256"
        }
      ],
      "stateMutability": "view",
      "type": "function"
    },
    {
      "inputs": [],
      "name": "currentTotalInflation",
      "outputs": [
        {
          "internalType": "uint256",
          "name": "",
          "type": "uint256"
        }
      ],
      "stateMutability": "view",
      "type": "function"
    },
    {
      "inputs": [],
      "name": "executeInflationRateUpdate",
      "outputs": [
        {
          "internalType": "bool",
          "name": "",
          "type": "bool"
        }
      ],
      "stateMutability": "nonpayable",
      "type": "function"
    },
    {
      "inputs": [],
      "name": "getAmmInflationRate",
      "outputs": [
        {
          "internalType": "uint256",
          "name": "",
          "type": "uint256"
        }
      ],
      "stateMutability": "view",
      "type": "function"
    },
    {
      "inputs": [],
      "name": "getKeeperInflationRate",
      "outputs": [
        {
          "internalType": "uint256",
          "name": "",
          "type": "uint256"
        }
      ],
      "stateMutability": "view",
      "type": "function"
    },
    {
      "inputs": [],
      "name": "getLpInflationRate",
      "outputs": [
        {
          "internalType": "uint256",
          "name": "",
          "type": "uint256"
        }
      ],
      "stateMutability": "view",
      "type": "function"
    },
    {
      "inputs": [],
      "name": "initialAnnualInflationRateAmm",
      "outputs": [
        {
          "internalType": "uint256",
          "name": "",
          "type": "uint256"
        }
      ],
      "stateMutability": "view",
      "type": "function"
    },
    {
      "inputs": [],
      "name": "initialAnnualInflationRateKeeper",
      "outputs": [
        {
          "internalType": "uint256",
          "name": "",
          "type": "uint256"
        }
      ],
      "stateMutability": "view",
      "type": "function"
    },
    {
      "inputs": [],
      "name": "initialAnnualInflationRateLp",
      "outputs": [
        {
          "internalType": "uint256",
          "name": "",
          "type": "uint256"
        }
      ],
      "stateMutability": "view",
      "type": "function"
    },
    {
      "inputs": [],
      "name": "initialPeriodAmmInflation",
      "outputs": [
        {
          "internalType": "uint256",
          "name": "",
          "type": "uint256"
        }
      ],
      "stateMutability": "view",
      "type": "function"
    },
    {
      "inputs": [],
      "name": "initialPeriodEnded",
      "outputs": [
        {
          "internalType": "bool",
          "name": "",
          "type": "bool"
        }
      ],
      "stateMutability": "view",
      "type": "function"
    },
    {
      "inputs": [],
      "name": "initialPeriodKeeperInflation",
      "outputs": [
        {
          "internalType": "uint256",
          "name": "",
          "type": "uint256"
        }
      ],
      "stateMutability": "view",
      "type": "function"
    },
    {
      "inputs": [],
      "name": "issuedNonInflationSupply",
      "outputs": [
        {
          "internalType": "uint256",
          "name": "",
          "type": "uint256"
        }
      ],
      "stateMutability": "view",
      "type": "function"
    },
    {
      "inputs": [],
      "name": "lastEvent",
      "outputs": [
        {
          "internalType": "uint256",
          "name": "",
          "type": "uint256"
        }
      ],
      "stateMutability": "view",
      "type": "function"
    },
    {
      "inputs": [],
      "name": "lastInflationDecay",
      "outputs": [
        {
          "internalType": "uint256",
          "name": "",
          "type": "uint256"
        }
      ],
      "stateMutability": "view",
      "type": "function"
    },
    {
      "inputs": [
        {
          "internalType": "address",
          "name": "beneficiary",
          "type": "address"
        },
        {
          "internalType": "uint256",
          "name": "amount",
          "type": "uint256"
        }
      ],
      "name": "mint",
      "outputs": [
        {
          "internalType": "bool",
          "name": "",
          "type": "bool"
        }
      ],
      "stateMutability": "nonpayable",
      "type": "function"
    },
    {
      "inputs": [
        {
          "internalType": "address",
          "name": "beneficiary",
          "type": "address"
        },
        {
          "internalType": "uint256",
          "name": "amount",
          "type": "uint256"
        }
      ],
      "name": "mintNonInflationTokens",
      "outputs": [
        {
          "internalType": "bool",
          "name": "",
          "type": "bool"
        }
      ],
      "stateMutability": "nonpayable",
      "type": "function"
    },
    {
      "inputs": [],
      "name": "nonInflationDistribution",
      "outputs": [
        {
          "internalType": "uint256",
          "name": "",
          "type": "uint256"
        }
      ],
      "stateMutability": "view",
      "type": "function"
    },
    {
      "inputs": [],
      "name": "roleManager",
      "outputs": [
        {
          "internalType": "contract IRoleManager",
          "name": "",
          "type": "address"
        }
      ],
      "stateMutability": "view",
      "type": "function"
    },
    {
      "inputs": [
        {
          "internalType": "address",
          "name": "_token",
          "type": "address"
        }
      ],
      "name": "setToken",
      "outputs": [],
      "stateMutability": "nonpayable",
      "type": "function"
    },
    {
      "inputs": [],
      "name": "startInflation",
      "outputs": [],
      "stateMutability": "nonpayable",
      "type": "function"
    },
    {
      "inputs": [],
      "name": "token",
      "outputs": [
        {
          "internalType": "contract BkdToken",
          "name": "",
          "type": "address"
        }
      ],
      "stateMutability": "view",
      "type": "function"
    },
    {
      "inputs": [],
      "name": "totalAvailableToNow",
      "outputs": [
        {
          "internalType": "uint256",
          "name": "",
          "type": "uint256"
        }
      ],
      "stateMutability": "view",
      "type": "function"
    },
    {
      "inputs": [],
      "name": "totalMintedToNow",
      "outputs": [
        {
          "internalType": "uint256",
          "name": "",
          "type": "uint256"
        }
      ],
      "stateMutability": "view",
      "type": "function"
    }
  ],
  "bytecode": "0x6101e06040523480156200001257600080fd5b506040516200171a3803806200171a83398101604081905262000035916200030f565b620000c8816001600160a01b0316632954018c6040518163ffffffff1660e01b815260040160206040518083038186803b1580156200007357600080fd5b505afa15801562000088573d6000803e3d6000fd5b505050506040513d601f19601f82011682018060405250810190620000ae919062000391565b6001600160a01b03166200026460201b62000b791760201c565b6001600160a01b0316608052600160005560408051606081019091526021808252670de0b6b3a764000089109190620016f9602083013990620001295760405162461bcd60e51b8152600401620001209190620003b8565b60405180910390fd5b50670de0b6b3a76400008610604051806060016040528060218152602001620016f96021913990620001705760405162461bcd60e51b8152600401620001209190620003b8565b50670de0b6b3a76400008510604051806060016040528060218152602001620016f96021913990620001b75760405162461bcd60e51b8152600401620001209190620003b8565b5060a08a905261010089905261016088905260c087905261012086905261018085905260e0849052610140839052620001f56301e133808b62000410565b600155620002086301e133808562000410565b6002556200021b6301e133808462000410565b600381905560025460015462000232919062000433565b6200023e919062000433565b6007556101a0919091526001600160a01b03166101c052506200045a9650505050505050565b6040516321f8a72160e01b81526a3937b632a6b0b730b3b2b960a91b60048201526000906001600160a01b038316906321f8a7219060240160206040518083038186803b158015620002b557600080fd5b505afa158015620002ca573d6000803e3d6000fd5b505050506040513d601f19601f82011682018060405250810190620002f0919062000391565b92915050565b6001600160a01b03811681146200030c57600080fd5b50565b6000806000806000806000806000806101408b8d0312156200033057600080fd5b8a51995060208b0151985060408b0151975060608b0151965060808b0151955060a08b0151945060c08b0151935060e08b015192506101008b015191506101208b01516200037e81620002f6565b809150509295989b9194979a5092959850565b600060208284031215620003a457600080fd5b8151620003b181620002f6565b9392505050565b600060208083528351808285015260005b81811015620003e757858101830151858201604001528201620003c9565b81811115620003fa576000604083870101525b50601f01601f1916929092016040019392505050565b6000826200042e57634e487b7160e01b600052601260045260246000fd5b500490565b600082198211156200045557634e487b7160e01b600052601160045260246000fd5b500190565b60805160a05160c05160e05161010051610120516101405161016051610180516101a0516101c0516111cb6200052e600039600081816104580152818161066a0152610ee701526000818161032601526108d30152600081816102e60152610e260152600081816102a90152610e8d0152600061023701526000818161034d0152610df60152600081816103850152610e5c015260006104310152600081816103da0152610dbb0152600061040a0152600081816101e00152818161049c015281816107db0152610a2801526111cb6000f3fe608060405234801561001057600080fd5b50600436106101d95760003560e01c8063b169106411610104578063d8ba1175116100a2578063f4fe6b0011610071578063f4fe6b001461042c578063f77c479114610453578063f9b7ce021461047a578063fc0c546a1461048257600080fd5b8063d8ba1175146103cc578063dbb9c246146103d5578063e7c5009c146103fc578063f3a5fa4a1461040557600080fd5b8063c2af2cf8116100de578063c2af2cf814610380578063c522a6e4146103a7578063cc1962aa146103ba578063d1f6593a146103c357600080fd5b8063b169106414610348578063b5a703901461036f578063bf3f55801461037857600080fd5b8063555c627a1161017c578063877f16921161014b578063877f16921461030857806388258d3114610310578063a0604e5514610318578063aee5b63c1461032157600080fd5b8063555c627a146102a45780635853f6c6146102cb5780635ab675a4146102d857806371f19a9f146102e157600080fd5b80631ca992e4116101b85780631ca992e4146102675780632d3d88511461027057806340c10f19146102795780634a17ed591461029c57600080fd5b8062435da5146101de578063144fa6d71461021d57806316ba199914610232575b600080fd5b7f00000000000000000000000000000000000000000000000000000000000000005b6040516001600160a01b0390911681526020015b60405180910390f35b61023061022b366004611032565b61049a565b005b6102597f000000000000000000000000000000000000000000000000000000000000000081565b604051908152602001610214565b61025960085481565b61025960065481565b61028c61028736600461104f565b61060b565b6040519015158152602001610214565b61028c61077f565b6102597f000000000000000000000000000000000000000000000000000000000000000081565b60045461028c9060ff1681565b610259600a5481565b6102597f000000000000000000000000000000000000000000000000000000000000000081565b610259610789565b6102596107a3565b61025960015481565b6102597f000000000000000000000000000000000000000000000000000000000000000081565b6102597f000000000000000000000000000000000000000000000000000000000000000081565b61025960095481565b6102596107bd565b6102597f000000000000000000000000000000000000000000000000000000000000000081565b61028c6103b536600461104f565b6107d7565b61025960035481565b61025960025481565b61025960075481565b6102597f000000000000000000000000000000000000000000000000000000000000000081565b61025960055481565b6102597f000000000000000000000000000000000000000000000000000000000000000081565b6102597f000000000000000000000000000000000000000000000000000000000000000081565b6102007f000000000000000000000000000000000000000000000000000000000000000081565b610230610a26565b600b54610200906001600160a01b031681565b905090565b7f0000000000000000000000000000000000000000000000000000000000000000604051632474521560e21b815269676f7665726e616e636560b01b60048201523360248201526001600160a01b0391909116906391d148549060440160206040518083038186803b15801561050f57600080fd5b505afa158015610523573d6000803e3d6000fd5b505050506040513d601f19601f82011682018060405250810190610547919061107b565b60405180604001604052806013815260200172756e617574686f72697a65642061636365737360681b8152509061059a5760405162461bcd60e51b8152600401610591919061109d565b60405180910390fd5b50600b546001600160a01b0316156105e95760405162461bcd60e51b8152602060048201526012602482015271546f6b656e20616c7265616479207365742160701b6044820152606401610591565b600b80546001600160a01b0319166001600160a01b0392909216919091179055565b6000600260005414156106605760405162461bcd60e51b815260206004820152601f60248201527f5265656e7472616e637947756172643a207265656e7472616e742063616c6c006044820152606401610591565b60026000819055507f00000000000000000000000000000000000000000000000000000000000000006001600160a01b031663dbcd89fa6040518163ffffffff1660e01b815260040160206040518083038186803b1580156106c157600080fd5b505afa1580156106d5573d6000803e3d6000fd5b505050506040513d601f19601f820116820180604052508101906106f991906110f2565b6001600160a01b0316336001600160a01b03161460405180604001604052806013815260200172756e617574686f72697a65642061636365737360681b815250906107575760405162461bcd60e51b8152600401610591919061109d565b50600a5461076757506000610774565b6107718383610c07565b90505b600160005592915050565b6000610495610d63565b6000600a546000141561079c5750600090565b5060035490565b6000600a54600014156107b65750600090565b5060015490565b6000600a54600014156107d05750600090565b5060025490565b60007f0000000000000000000000000000000000000000000000000000000000000000604051632474521560e21b815269676f7665726e616e636560b01b60048201523360248201526001600160a01b0391909116906391d148549060440160206040518083038186803b15801561084e57600080fd5b505afa158015610862573d6000803e3d6000fd5b505050506040513d601f19601f82011682018060405250810190610886919061107b565b60405180604001604052806013815260200172756e617574686f72697a65642061636365737360681b815250906108d05760405162461bcd60e51b8152600401610591919061109d565b507f0000000000000000000000000000000000000000000000000000000000000000826005546109009190611125565b111561095d5760405162461bcd60e51b815260206004820152602660248201527f4d6178696d756d206e6f6e2d696e666c6174696f6e20616d6f756e742065786360448201526532b2b232b21760d11b6064820152608401610591565b816005600082825461096f9190611125565b9091555050600b546040516340c10f1960e01b81526001600160a01b03858116600483015260248201859052909116906340c10f1990604401600060405180830381600087803b1580156109c257600080fd5b505af11580156109d6573d6000803e3d6000fd5b5050604080516001600160a01b0387168152602081018690527f3f2c9d57c068687834f0de942a9babb9e5acab57d516d3480a3c16ee165a4273935001905060405180910390a150600192915050565b7f0000000000000000000000000000000000000000000000000000000000000000604051632474521560e21b815269676f7665726e616e636560b01b60048201523360248201526001600160a01b0391909116906391d148549060440160206040518083038186803b158015610a9b57600080fd5b505afa158015610aaf573d6000803e3d6000fd5b505050506040513d601f19601f82011682018060405250810190610ad3919061107b565b60405180604001604052806013815260200172756e617574686f72697a65642061636365737360681b81525090610b1d5760405162461bcd60e51b8152600401610591919061109d565b50600a5415610b6e5760405162461bcd60e51b815260206004820152601e60248201527f496e666c6174696f6e2068617320616c726561647920737461727465642e00006044820152606401610591565b42600a819055600655565b6040516321f8a72160e01b81526a3937b632a6b0b730b3b2b960a91b60048201526000906001600160a01b038316906321f8a7219060240160206040518083038186803b158015610bc957600080fd5b505afa158015610bdd573d6000803e3d6000fd5b505050506040513d601f19601f82011682018060405250810190610c0191906110f2565b92915050565b6000600754600a5442610c1a919061113d565b610c249190611154565b60086000828254610c359190611125565b9091555050600954600090610c4b908490611125565b9050600854811115610c9f5760405162461bcd60e51b815260206004820152601860248201527f4d696e7461626c6520616d6f756e7420657863656564656400000000000000006044820152606401610591565b600981905542600a55600b546040516340c10f1960e01b81526001600160a01b03868116600483015260248201869052909116906340c10f1990604401600060405180830381600087803b158015610cf657600080fd5b505af1158015610d0a573d6000803e3d6000fd5b50505050610d16610d63565b50604080516001600160a01b0386168152602081018590527f3f2c9d57c068687834f0de942a9babb9e5acab57d516d3480a3c16ee165a4273910160405180910390a15060019392505050565b6000600a5442610d73919061113d565b600754610d809190611154565b60086000828254610d919190611125565b909155505042600a55600654610dac906301e1338090611125565b4210610fee57600154610ddf907f0000000000000000000000000000000000000000000000000000000000000000610ff4565b60015560045460ff1615610e5257600254610e1a907f0000000000000000000000000000000000000000000000000000000000000000610ff4565b600255600354610e4a907f0000000000000000000000000000000000000000000000000000000000000000610ff4565b600355610ec2565b610e806301e133807f0000000000000000000000000000000000000000000000000000000000000000611173565b600255610eb16301e133807f0000000000000000000000000000000000000000000000000000000000000000611173565b6003556004805460ff191660011790555b600354600254600154610ed59190611125565b610edf9190611125565b6007819055507f00000000000000000000000000000000000000000000000000000000000000006001600160a01b031663dbcd89fa6040518163ffffffff1660e01b815260040160206040518083038186803b158015610f3e57600080fd5b505afa158015610f52573d6000803e3d6000fd5b505050506040513d601f19601f82011682018060405250810190610f7691906110f2565b6001600160a01b031663b662fc556040518163ffffffff1660e01b8152600401602060405180830381600087803b158015610fb057600080fd5b505af1158015610fc4573d6000803e3d6000fd5b505050506040513d601f19601f82011682018060405250810190610fe8919061107b565b50426006555b50600190565b6000670de0b6b3a76400006110098385611154565b6110139190611173565b9392505050565b6001600160a01b038116811461102f57600080fd5b50565b60006020828403121561104457600080fd5b81356110138161101a565b6000806040838503121561106257600080fd5b823561106d8161101a565b946020939093013593505050565b60006020828403121561108d57600080fd5b8151801515811461101357600080fd5b600060208083528351808285015260005b818110156110ca578581018301518582016040015282016110ae565b818111156110dc576000604083870101525b50601f01601f1916929092016040019392505050565b60006020828403121561110457600080fd5b81516110138161101a565b634e487b7160e01b600052601160045260246000fd5b600082198211156111385761113861110f565b500190565b60008282101561114f5761114f61110f565b500390565b600081600019048311821515161561116e5761116e61110f565b500290565b60008261119057634e487b7160e01b600052601260045260246000fd5b50049056fea264697066735822122099930d27226cdf115490747dc3826a6faebb3af4afa18e92847f368d4b4f9f8b64736f6c63430008090033696e76616c696420706172616d657465722076616c756520617474656d70746564",
  "linkReferences": {},
  "deployedLinkReferences": {}
}