{
  "_format": "hh-sol-artifact-1",
  "contractName": "YaxisVaultAdapter",
  "sourceName": "contracts/v3/alchemix/adapters/YaxisVaultAdapter.sol",
  "abi": [
    {
      "inputs": [
        {
          "internalType": "contract IVault",
          "name": "_vault",
          "type": "address"
        },
        {
          "internalType": "address",
          "name": "_admin",
          "type": "address"
        }
      ],
      "stateMutability": "nonpayable",
      "type": "constructor"
    },
    {
      "inputs": [],
      "name": "admin",
      "outputs": [
        {
          "internalType": "address",
          "name": "",
          "type": "address"
        }
      ],
      "stateMutability": "view",
      "type": "function"
    },
    {
      "inputs": [
        {
          "internalType": "uint256",
          "name": "_amount",
          "type": "uint256"
        }
      ],
      "name": "deposit",
      "outputs": [],
      "stateMutability": "nonpayable",
      "type": "function"
    },
    {
      "inputs": [],
      "name": "token",
      "outputs": [
        {
          "internalType": "contract IDetailedERC20",
          "name": "",
          "type": "address"
        }
      ],
      "stateMutability": "view",
      "type": "function"
    },
    {
      "inputs": [],
      "name": "totalValue",
      "outputs": [
        {
          "internalType": "uint256",
          "name": "",
          "type": "uint256"
        }
      ],
      "stateMutability": "view",
      "type": "function"
    },
    {
      "inputs": [],
      "name": "updateApproval",
      "outputs": [],
      "stateMutability": "nonpayable",
      "type": "function"
    },
    {
      "inputs": [],
      "name": "vault",
      "outputs": [
        {
          "internalType": "contract IVault",
          "name": "",
          "type": "address"
        }
      ],
      "stateMutability": "view",
      "type": "function"
    },
    {
      "inputs": [
        {
          "internalType": "address",
          "name": "_recipient",
          "type": "address"
        },
        {
          "internalType": "uint256",
          "name": "_amount",
          "type": "uint256"
        }
      ],
      "name": "withdraw",
      "outputs": [],
      "stateMutability": "nonpayable",
      "type": "function"
    }
  ],
  "bytecode": "0x60806040523480156200001157600080fd5b50604051620013ab380380620013ab833981016040819052620000349162000454565b600080546001600160a01b038085166001600160a01b03199283161790925560018054928416929091169190911790556200006e62000076565b50506200069e565b60008060009054906101000a90046001600160a01b03166001600160a01b03166321df0da76040518163ffffffff1660e01b815260040160206040518083038186803b158015620000c657600080fd5b505afa158015620000db573d6000803e3d6000fd5b505050506040513d601f19601f8201168201806040525081019062000101919062000413565b6000549091506200012e906001600160a01b03808416911660001962000131602090811b6200050a17901c565b50565b801580620001c05750604051636eb1769f60e11b81526001600160a01b0384169063dd62ed3e906200016a9030908690600401620004c9565b60206040518083038186803b1580156200018357600080fd5b505afa15801562000198573d6000803e3d6000fd5b505050506040513d601f19601f82011682018060405250810190620001be919062000492565b155b620001e85760405162461bcd60e51b8152600401620001df90620005f8565b60405180910390fd5b620002438363095ea7b360e01b84846040516024016200020a929190620004e3565b60408051808303601f190181529190526020810180516001600160e01b0319939093166001600160e01b03938416179052906200024816565b505050565b6060620002a4826040518060400160405280602081526020017f5361666545524332303a206c6f772d6c6576656c2063616c6c206661696c6564815250856001600160a01b0316620002e460201b62000604179092919060201c565b805190915015620002435780806020019051810190620002c5919062000432565b620002435760405162461bcd60e51b8152600401620001df90620005ae565b6060620002f58484600085620002ff565b90505b9392505050565b606082471015620003245760405162461bcd60e51b8152600401620001df9062000531565b6200032f85620003cf565b6200034e5760405162461bcd60e51b8152600401620001df9062000577565b60006060866001600160a01b031685876040516200036d9190620004ab565b60006040518083038185875af1925050503d8060008114620003ac576040519150601f19603f3d011682016040523d82523d6000602084013e620003b1565b606091505b509092509050620003c4828286620003d5565b979650505050505050565b3b151590565b60608315620003e6575081620002f8565b825115620003f75782518084602001fd5b8160405162461bcd60e51b8152600401620001df9190620004fc565b60006020828403121562000425578081fd5b8151620002f88162000688565b60006020828403121562000444578081fd5b81518015158114620002f8578182fd5b6000806040838503121562000467578081fd5b8251620004748162000688565b6020840151909250620004878162000688565b809150509250929050565b600060208284031215620004a4578081fd5b5051919050565b60008251620004bf81846020870162000655565b9190910192915050565b6001600160a01b0392831681529116602082015260400190565b6001600160a01b03929092168252602082015260400190565b60006020825282518060208401526200051d81604085016020870162000655565b601f01601f19169190910160400192915050565b60208082526026908201527f416464726573733a20696e73756666696369656e742062616c616e636520666f6040820152651c8818d85b1b60d21b606082015260800190565b6020808252601d908201527f416464726573733a2063616c6c20746f206e6f6e2d636f6e7472616374000000604082015260600190565b6020808252602a908201527f5361666545524332303a204552433230206f7065726174696f6e20646964206e6040820152691bdd081cdd58d8d9595960b21b606082015260800190565b60208082526036908201527f5361666545524332303a20617070726f76652066726f6d206e6f6e2d7a65726f60408201527f20746f206e6f6e2d7a65726f20616c6c6f77616e636500000000000000000000606082015260800190565b60005b838110156200067257818101518382015260200162000658565b8381111562000682576000848401525b50505050565b6001600160a01b03811681146200012e57600080fd5b610cfd80620006ae6000396000f3fe608060405234801561001057600080fd5b506004361061007d5760003560e01c8063f851a4401161005b578063f851a440146100c8578063f926197e146100dd578063fbfa77cf146100e5578063fc0c546a146100ed5761007d565b8063b6b55f2514610082578063d4c3eea014610097578063f3fef3a3146100b5575b600080fd5b610095610090366004610a1e565b6100f5565b005b61009f61017b565b6040516100ac9190610c79565b60405180910390f35b6100956100c33660046109d3565b61027f565b6100d06103bc565b6040516100ac9190610a6a565b6100956103cb565b6100d0610474565b6100d0610483565b60005460405163b6b55f2560e01b81526001600160a01b039091169063b6b55f2590610125908490600401610c79565b602060405180830381600087803b15801561013f57600080fd5b505af1158015610153573d6000803e3d6000fd5b505050506040513d601f19601f820116820180604052508101906101779190610a36565b5050565b6000805460408051633c1aa92560e01b8152905161027a926001600160a01b031691633c1aa925916004808301926020929190829003018186803b1580156101c257600080fd5b505afa1580156101d6573d6000803e3d6000fd5b505050506040513d601f19601f820116820180604052508101906101fa91906109b7565b6001600160a01b03166370a08231306040518263ffffffff1660e01b81526004016102259190610a6a565b60206040518083038186803b15801561023d57600080fd5b505afa158015610251573d6000803e3d6000fd5b505050506040513d601f19601f820116820180604052508101906102759190610a36565b61061d565b905090565b6001546001600160a01b031633146102b25760405162461bcd60e51b81526004016102a990610ae4565b60405180910390fd5b6000546001600160a01b0316632e1a7d4d6102cc836106c5565b6040518263ffffffff1660e01b81526004016102e89190610c79565b600060405180830381600087803b15801561030257600080fd5b505af1158015610316573d6000803e3d6000fd5b5050505060008060009054906101000a90046001600160a01b03166001600160a01b03166321df0da76040518163ffffffff1660e01b815260040160206040518083038186803b15801561036957600080fd5b505afa15801561037d573d6000803e3d6000fd5b505050506040513d601f19601f820116820180604052508101906103a191906109b7565b90506103b76001600160a01b0382168484610756565b505050565b6001546001600160a01b031681565b60008060009054906101000a90046001600160a01b03166001600160a01b03166321df0da76040518163ffffffff1660e01b815260040160206040518083038186803b15801561041a57600080fd5b505afa15801561042e573d6000803e3d6000fd5b505050506040513d601f19601f8201168201806040525081019061045291906109b7565b600054909150610471906001600160a01b03808416911660001961050a565b50565b6000546001600160a01b031681565b60008060009054906101000a90046001600160a01b03166001600160a01b03166321df0da76040518163ffffffff1660e01b815260040160206040518083038186803b1580156104d257600080fd5b505afa1580156104e6573d6000803e3d6000fd5b505050506040513d601f19601f8201168201806040525081019061027a91906109b7565b8015806105925750604051636eb1769f60e11b81526001600160a01b0384169063dd62ed3e906105409030908690600401610a7e565b60206040518083038186803b15801561055857600080fd5b505afa15801561056c573d6000803e3d6000fd5b505050506040513d601f19601f820116820180604052508101906105909190610a36565b155b6105ae5760405162461bcd60e51b81526004016102a990610c23565b6103b78363095ea7b360e01b84846040516024016105cd929190610a98565b60408051601f198184030181529190526020810180516001600160e01b03166001600160e01b031990931692909217909152610775565b60606106138484600085610804565b90505b9392505050565b60006106bf670de0b6b3a76400006106b960008054906101000a90046001600160a01b03166001600160a01b03166377c7b8fc6040518163ffffffff1660e01b815260040160206040518083038186803b15801561067a57600080fd5b505afa15801561068e573d6000803e3d6000fd5b505050506040513d601f19601f820116820180604052508101906106b29190610a36565b85906108c5565b906108ff565b92915050565b6000805460408051631df1ee3f60e21b815290516106bf926001600160a01b0316916377c7b8fc916004808301926020929190829003018186803b15801561070c57600080fd5b505afa158015610720573d6000803e3d6000fd5b505050506040513d601f19601f820116820180604052508101906107449190610a36565b6106b984670de0b6b3a76400006108c5565b6103b78363a9059cbb60e01b84846040516024016105cd929190610a98565b60606107ca826040518060400160405280602081526020017f5361666545524332303a206c6f772d6c6576656c2063616c6c206661696c6564815250856001600160a01b03166106049092919063ffffffff16565b8051909150156103b757808060200190518101906107e891906109fe565b6103b75760405162461bcd60e51b81526004016102a990610bd9565b6060824710156108265760405162461bcd60e51b81526004016102a990610b1b565b61082f85610941565b61084b5760405162461bcd60e51b81526004016102a990610ba2565b60006060866001600160a01b031685876040516108689190610a4e565b60006040518083038185875af1925050503d80600081146108a5576040519150601f19603f3d011682016040523d82523d6000602084013e6108aa565b606091505b50915091506108ba828286610947565b979650505050505050565b6000826108d4575060006106bf565b828202828482816108e157fe5b04146106165760405162461bcd60e51b81526004016102a990610b61565b600061061683836040518060400160405280601a81526020017f536166654d6174683a206469766973696f6e206279207a65726f000000000000815250610980565b3b151590565b60608315610956575081610616565b8251156109665782518084602001fd5b8160405162461bcd60e51b81526004016102a99190610ab1565b600081836109a15760405162461bcd60e51b81526004016102a99190610ab1565b5060008385816109ad57fe5b0495945050505050565b6000602082840312156109c8578081fd5b815161061681610cb2565b600080604083850312156109e5578081fd5b82356109f081610cb2565b946020939093013593505050565b600060208284031215610a0f578081fd5b81518015158114610616578182fd5b600060208284031215610a2f578081fd5b5035919050565b600060208284031215610a47578081fd5b5051919050565b60008251610a60818460208701610c82565b9190910192915050565b6001600160a01b0391909116815260200190565b6001600160a01b0392831681529116602082015260400190565b6001600160a01b03929092168252602082015260400190565b6000602082528251806020840152610ad0816040850160208701610c82565b601f01601f19169190910160400192915050565b6020808252601d908201527f59617869735661756c74416461707465723a206f6e6c792061646d696e000000604082015260600190565b60208082526026908201527f416464726573733a20696e73756666696369656e742062616c616e636520666f6040820152651c8818d85b1b60d21b606082015260800190565b60208082526021908201527f536166654d6174683a206d756c7469706c69636174696f6e206f766572666c6f6040820152607760f81b606082015260800190565b6020808252601d908201527f416464726573733a2063616c6c20746f206e6f6e2d636f6e7472616374000000604082015260600190565b6020808252602a908201527f5361666545524332303a204552433230206f7065726174696f6e20646964206e6040820152691bdd081cdd58d8d9595960b21b606082015260800190565b60208082526036908201527f5361666545524332303a20617070726f76652066726f6d206e6f6e2d7a65726f60408201527520746f206e6f6e2d7a65726f20616c6c6f77616e636560501b606082015260800190565b90815260200190565b60005b83811015610c9d578181015183820152602001610c85565b83811115610cac576000848401525b50505050565b6001600160a01b038116811461047157600080fdfea264697066735822122049dd722418a0ffd50edec163c489204b2d067bf585743a9836dd5dc5548ff2d164736f6c634300060c0033",
  "linkReferences": {},
  "deployedLinkReferences": {}
}