{
  "_format": "hh-sol-artifact-1",
  "contractName": "PrizePoolHarness",
  "sourceName": "contracts/test/PrizePoolHarness.sol",
  "abi": [
    {
      "inputs": [
        {
          "internalType": "address",
          "name": "_owner",
          "type": "address"
        },
        {
          "internalType": "contract YieldSourceStub",
          "name": "_stubYieldSource",
          "type": "address"
        }
      ],
      "stateMutability": "nonpayable",
      "type": "constructor"
    },
    {
      "anonymous": false,
      "inputs": [
        {
          "indexed": false,
          "internalType": "uint256",
          "name": "amount",
          "type": "uint256"
        }
      ],
      "name": "AwardCaptured",
      "type": "event"
    },
    {
      "anonymous": false,
      "inputs": [
        {
          "indexed": true,
          "internalType": "address",
          "name": "winner",
          "type": "address"
        },
        {
          "indexed": true,
          "internalType": "contract ITicket",
          "name": "token",
          "type": "address"
        },
        {
          "indexed": false,
          "internalType": "uint256",
          "name": "amount",
          "type": "uint256"
        }
      ],
      "name": "Awarded",
      "type": "event"
    },
    {
      "anonymous": false,
      "inputs": [
        {
          "indexed": true,
          "internalType": "address",
          "name": "winner",
          "type": "address"
        },
        {
          "indexed": true,
          "internalType": "address",
          "name": "token",
          "type": "address"
        },
        {
          "indexed": false,
          "internalType": "uint256",
          "name": "amount",
          "type": "uint256"
        }
      ],
      "name": "AwardedExternalERC20",
      "type": "event"
    },
    {
      "anonymous": false,
      "inputs": [
        {
          "indexed": true,
          "internalType": "address",
          "name": "winner",
          "type": "address"
        },
        {
          "indexed": true,
          "internalType": "address",
          "name": "token",
          "type": "address"
        },
        {
          "indexed": false,
          "internalType": "uint256[]",
          "name": "tokenIds",
          "type": "uint256[]"
        }
      ],
      "name": "AwardedExternalERC721",
      "type": "event"
    },
    {
      "anonymous": false,
      "inputs": [
        {
          "indexed": false,
          "internalType": "uint256",
          "name": "balanceCap",
          "type": "uint256"
        }
      ],
      "name": "BalanceCapSet",
      "type": "event"
    },
    {
      "anonymous": false,
      "inputs": [
        {
          "indexed": true,
          "internalType": "contract ITicket",
          "name": "token",
          "type": "address"
        }
      ],
      "name": "ControlledTokenAdded",
      "type": "event"
    },
    {
      "anonymous": false,
      "inputs": [
        {
          "indexed": true,
          "internalType": "address",
          "name": "operator",
          "type": "address"
        },
        {
          "indexed": true,
          "internalType": "address",
          "name": "to",
          "type": "address"
        },
        {
          "indexed": true,
          "internalType": "contract ITicket",
          "name": "token",
          "type": "address"
        },
        {
          "indexed": false,
          "internalType": "uint256",
          "name": "amount",
          "type": "uint256"
        }
      ],
      "name": "Deposited",
      "type": "event"
    },
    {
      "anonymous": false,
      "inputs": [
        {
          "indexed": false,
          "internalType": "bytes",
          "name": "error",
          "type": "bytes"
        }
      ],
      "name": "ErrorAwardingExternalERC721",
      "type": "event"
    },
    {
      "anonymous": false,
      "inputs": [
        {
          "indexed": false,
          "internalType": "uint256",
          "name": "liquidityCap",
          "type": "uint256"
        }
      ],
      "name": "LiquidityCapSet",
      "type": "event"
    },
    {
      "anonymous": false,
      "inputs": [
        {
          "indexed": true,
          "internalType": "address",
          "name": "pendingOwner",
          "type": "address"
        }
      ],
      "name": "OwnershipOffered",
      "type": "event"
    },
    {
      "anonymous": false,
      "inputs": [
        {
          "indexed": true,
          "internalType": "address",
          "name": "previousOwner",
          "type": "address"
        },
        {
          "indexed": true,
          "internalType": "address",
          "name": "newOwner",
          "type": "address"
        }
      ],
      "name": "OwnershipTransferred",
      "type": "event"
    },
    {
      "anonymous": false,
      "inputs": [
        {
          "indexed": true,
          "internalType": "address",
          "name": "prizeStrategy",
          "type": "address"
        }
      ],
      "name": "PrizeStrategySet",
      "type": "event"
    },
    {
      "anonymous": false,
      "inputs": [
        {
          "indexed": true,
          "internalType": "contract ITicket",
          "name": "ticket",
          "type": "address"
        }
      ],
      "name": "TicketSet",
      "type": "event"
    },
    {
      "anonymous": false,
      "inputs": [
        {
          "indexed": true,
          "internalType": "address",
          "name": "to",
          "type": "address"
        },
        {
          "indexed": true,
          "internalType": "address",
          "name": "token",
          "type": "address"
        },
        {
          "indexed": false,
          "internalType": "uint256",
          "name": "amount",
          "type": "uint256"
        }
      ],
      "name": "TransferredExternalERC20",
      "type": "event"
    },
    {
      "anonymous": false,
      "inputs": [
        {
          "indexed": true,
          "internalType": "address",
          "name": "operator",
          "type": "address"
        },
        {
          "indexed": true,
          "internalType": "address",
          "name": "from",
          "type": "address"
        },
        {
          "indexed": true,
          "internalType": "contract ITicket",
          "name": "token",
          "type": "address"
        },
        {
          "indexed": false,
          "internalType": "uint256",
          "name": "amount",
          "type": "uint256"
        },
        {
          "indexed": false,
          "internalType": "uint256",
          "name": "redeemed",
          "type": "uint256"
        }
      ],
      "name": "Withdrawal",
      "type": "event"
    },
    {
      "inputs": [],
      "name": "VERSION",
      "outputs": [
        {
          "internalType": "string",
          "name": "",
          "type": "string"
        }
      ],
      "stateMutability": "view",
      "type": "function"
    },
    {
      "inputs": [
        {
          "internalType": "address",
          "name": "_to",
          "type": "address"
        },
        {
          "internalType": "uint256",
          "name": "_amount",
          "type": "uint256"
        }
      ],
      "name": "award",
      "outputs": [],
      "stateMutability": "nonpayable",
      "type": "function"
    },
    {
      "inputs": [],
      "name": "awardBalance",
      "outputs": [
        {
          "internalType": "uint256",
          "name": "",
          "type": "uint256"
        }
      ],
      "stateMutability": "view",
      "type": "function"
    },
    {
      "inputs": [
        {
          "internalType": "address",
          "name": "_to",
          "type": "address"
        },
        {
          "internalType": "address",
          "name": "_externalToken",
          "type": "address"
        },
        {
          "internalType": "uint256",
          "name": "_amount",
          "type": "uint256"
        }
      ],
      "name": "awardExternalERC20",
      "outputs": [],
      "stateMutability": "nonpayable",
      "type": "function"
    },
    {
      "inputs": [
        {
          "internalType": "address",
          "name": "_to",
          "type": "address"
        },
        {
          "internalType": "address",
          "name": "_externalToken",
          "type": "address"
        },
        {
          "internalType": "uint256[]",
          "name": "_tokenIds",
          "type": "uint256[]"
        }
      ],
      "name": "awardExternalERC721",
      "outputs": [],
      "stateMutability": "nonpayable",
      "type": "function"
    },
    {
      "inputs": [],
      "name": "balance",
      "outputs": [
        {
          "internalType": "uint256",
          "name": "",
          "type": "uint256"
        }
      ],
      "stateMutability": "nonpayable",
      "type": "function"
    },
    {
      "inputs": [
        {
          "internalType": "address",
          "name": "_externalToken",
          "type": "address"
        }
      ],
      "name": "canAwardExternal",
      "outputs": [
        {
          "internalType": "bool",
          "name": "",
          "type": "bool"
        }
      ],
      "stateMutability": "view",
      "type": "function"
    },
    {
      "inputs": [],
      "name": "captureAwardBalance",
      "outputs": [
        {
          "internalType": "uint256",
          "name": "",
          "type": "uint256"
        }
      ],
      "stateMutability": "nonpayable",
      "type": "function"
    },
    {
      "inputs": [],
      "name": "claimOwnership",
      "outputs": [],
      "stateMutability": "nonpayable",
      "type": "function"
    },
    {
      "inputs": [
        {
          "internalType": "contract ICompLike",
          "name": "_compLike",
          "type": "address"
        },
        {
          "internalType": "address",
          "name": "_to",
          "type": "address"
        }
      ],
      "name": "compLikeDelegate",
      "outputs": [],
      "stateMutability": "nonpayable",
      "type": "function"
    },
    {
      "inputs": [],
      "name": "currentTime",
      "outputs": [
        {
          "internalType": "uint256",
          "name": "",
          "type": "uint256"
        }
      ],
      "stateMutability": "view",
      "type": "function"
    },
    {
      "inputs": [
        {
          "internalType": "address",
          "name": "_to",
          "type": "address"
        },
        {
          "internalType": "uint256",
          "name": "_amount",
          "type": "uint256"
        }
      ],
      "name": "depositTo",
      "outputs": [],
      "stateMutability": "nonpayable",
      "type": "function"
    },
    {
      "inputs": [
        {
          "internalType": "address",
          "name": "_to",
          "type": "address"
        },
        {
          "internalType": "uint256",
          "name": "_amount",
          "type": "uint256"
        },
        {
          "internalType": "address",
          "name": "_delegate",
          "type": "address"
        }
      ],
      "name": "depositToAndDelegate",
      "outputs": [],
      "stateMutability": "nonpayable",
      "type": "function"
    },
    {
      "inputs": [],
      "name": "getAccountedBalance",
      "outputs": [
        {
          "internalType": "uint256",
          "name": "",
          "type": "uint256"
        }
      ],
      "stateMutability": "view",
      "type": "function"
    },
    {
      "inputs": [],
      "name": "getBalanceCap",
      "outputs": [
        {
          "internalType": "uint256",
          "name": "",
          "type": "uint256"
        }
      ],
      "stateMutability": "view",
      "type": "function"
    },
    {
      "inputs": [],
      "name": "getLiquidityCap",
      "outputs": [
        {
          "internalType": "uint256",
          "name": "",
          "type": "uint256"
        }
      ],
      "stateMutability": "view",
      "type": "function"
    },
    {
      "inputs": [],
      "name": "getPrizeStrategy",
      "outputs": [
        {
          "internalType": "address",
          "name": "",
          "type": "address"
        }
      ],
      "stateMutability": "view",
      "type": "function"
    },
    {
      "inputs": [],
      "name": "getTicket",
      "outputs": [
        {
          "internalType": "contract ITicket",
          "name": "",
          "type": "address"
        }
      ],
      "stateMutability": "view",
      "type": "function"
    },
    {
      "inputs": [],
      "name": "getToken",
      "outputs": [
        {
          "internalType": "address",
          "name": "",
          "type": "address"
        }
      ],
      "stateMutability": "view",
      "type": "function"
    },
    {
      "inputs": [],
      "name": "internalCurrentTime",
      "outputs": [
        {
          "internalType": "uint256",
          "name": "",
          "type": "uint256"
        }
      ],
      "stateMutability": "view",
      "type": "function"
    },
    {
      "inputs": [
        {
          "internalType": "contract ITicket",
          "name": "_controlledToken",
          "type": "address"
        }
      ],
      "name": "isControlled",
      "outputs": [
        {
          "internalType": "bool",
          "name": "",
          "type": "bool"
        }
      ],
      "stateMutability": "view",
      "type": "function"
    },
    {
      "inputs": [
        {
          "internalType": "address",
          "name": "_to",
          "type": "address"
        },
        {
          "internalType": "uint256",
          "name": "_amount",
          "type": "uint256"
        },
        {
          "internalType": "contract ITicket",
          "name": "_controlledToken",
          "type": "address"
        }
      ],
      "name": "mint",
      "outputs": [],
      "stateMutability": "nonpayable",
      "type": "function"
    },
    {
      "inputs": [
        {
          "internalType": "address",
          "name": "",
          "type": "address"
        },
        {
          "internalType": "address",
          "name": "",
          "type": "address"
        },
        {
          "internalType": "uint256",
          "name": "",
          "type": "uint256"
        },
        {
          "internalType": "bytes",
          "name": "",
          "type": "bytes"
        }
      ],
      "name": "onERC721Received",
      "outputs": [
        {
          "internalType": "bytes4",
          "name": "",
          "type": "bytes4"
        }
      ],
      "stateMutability": "pure",
      "type": "function"
    },
    {
      "inputs": [],
      "name": "owner",
      "outputs": [
        {
          "internalType": "address",
          "name": "",
          "type": "address"
        }
      ],
      "stateMutability": "view",
      "type": "function"
    },
    {
      "inputs": [],
      "name": "pendingOwner",
      "outputs": [
        {
          "internalType": "address",
          "name": "",
          "type": "address"
        }
      ],
      "stateMutability": "view",
      "type": "function"
    },
    {
      "inputs": [
        {
          "internalType": "uint256",
          "name": "redeemAmount",
          "type": "uint256"
        }
      ],
      "name": "redeem",
      "outputs": [],
      "stateMutability": "nonpayable",
      "type": "function"
    },
    {
      "inputs": [],
      "name": "renounceOwnership",
      "outputs": [],
      "stateMutability": "nonpayable",
      "type": "function"
    },
    {
      "inputs": [
        {
          "internalType": "uint256",
          "name": "_balanceCap",
          "type": "uint256"
        }
      ],
      "name": "setBalanceCap",
      "outputs": [
        {
          "internalType": "bool",
          "name": "",
          "type": "bool"
        }
      ],
      "stateMutability": "nonpayable",
      "type": "function"
    },
    {
      "inputs": [
        {
          "internalType": "uint256",
          "name": "amount",
          "type": "uint256"
        }
      ],
      "name": "setCurrentAwardBalance",
      "outputs": [],
      "stateMutability": "nonpayable",
      "type": "function"
    },
    {
      "inputs": [
        {
          "internalType": "uint256",
          "name": "_nowTime",
          "type": "uint256"
        }
      ],
      "name": "setCurrentTime",
      "outputs": [],
      "stateMutability": "nonpayable",
      "type": "function"
    },
    {
      "inputs": [
        {
          "internalType": "uint256",
          "name": "_liquidityCap",
          "type": "uint256"
        }
      ],
      "name": "setLiquidityCap",
      "outputs": [],
      "stateMutability": "nonpayable",
      "type": "function"
    },
    {
      "inputs": [
        {
          "internalType": "address",
          "name": "_prizeStrategy",
          "type": "address"
        }
      ],
      "name": "setPrizeStrategy",
      "outputs": [],
      "stateMutability": "nonpayable",
      "type": "function"
    },
    {
      "inputs": [
        {
          "internalType": "contract ITicket",
          "name": "_ticket",
          "type": "address"
        }
      ],
      "name": "setTicket",
      "outputs": [
        {
          "internalType": "bool",
          "name": "",
          "type": "bool"
        }
      ],
      "stateMutability": "nonpayable",
      "type": "function"
    },
    {
      "inputs": [],
      "name": "stubYieldSource",
      "outputs": [
        {
          "internalType": "contract YieldSourceStub",
          "name": "",
          "type": "address"
        }
      ],
      "stateMutability": "view",
      "type": "function"
    },
    {
      "inputs": [
        {
          "internalType": "uint256",
          "name": "mintAmount",
          "type": "uint256"
        }
      ],
      "name": "supply",
      "outputs": [],
      "stateMutability": "nonpayable",
      "type": "function"
    },
    {
      "inputs": [
        {
          "internalType": "address",
          "name": "_to",
          "type": "address"
        },
        {
          "internalType": "address",
          "name": "_externalToken",
          "type": "address"
        },
        {
          "internalType": "uint256",
          "name": "_amount",
          "type": "uint256"
        }
      ],
      "name": "transferExternalERC20",
      "outputs": [],
      "stateMutability": "nonpayable",
      "type": "function"
    },
    {
      "inputs": [
        {
          "internalType": "address",
          "name": "_newOwner",
          "type": "address"
        }
      ],
      "name": "transferOwnership",
      "outputs": [],
      "stateMutability": "nonpayable",
      "type": "function"
    },
    {
      "inputs": [
        {
          "internalType": "address",
          "name": "_from",
          "type": "address"
        },
        {
          "internalType": "uint256",
          "name": "_amount",
          "type": "uint256"
        }
      ],
      "name": "withdrawFrom",
      "outputs": [
        {
          "internalType": "uint256",
          "name": "",
          "type": "uint256"
        }
      ],
      "stateMutability": "nonpayable",
      "type": "function"
    }
  ],
  "bytecode": "0x60806040523480156200001157600080fd5b506040516200274b3803806200274b833981016040819052620000349162000107565b818062000041816200007c565b50600160025562000054600019620000cc565b50600980546001600160a01b0319166001600160a01b0392909216919091179055506200015f565b600080546001600160a01b038381166001600160a01b0319831681178455604051919092169283917f8be0079c531659141344cd1fd0a4f28419497f9722a3daafe3b4186f6b6457e09190a35050565b60068190556040518181527f3ff20538222f568f27ff436c0c49dfd3e48d5b8f86533a3f759dc1c7089775ab9060200160405180910390a150565b600080604083850312156200011b57600080fd5b8251620001288162000146565b60208401519092506200013b8162000146565b809150509250929050565b6001600160a01b03811681146200015c57600080fd5b50565b6125dc806200016f6000396000f3fe608060405234801561001057600080fd5b50600436106102925760003560e01c80637b99adb111610160578063c002c4d6116100d8578063e30c39781161008c578063f2fde38b11610071578063f2fde38b1461053d578063ffa1ad7414610550578063ffaad6a51461059957600080fd5b8063e30c397814610524578063e6d8a94b1461053557600080fd5b8063d7a169eb116100bd578063d7a169eb146104ed578063d804abaf14610500578063db006a751461051157600080fd5b8063c002c4d6146104d3578063d18e81b3146104e457600080fd5b80639470b0bd1161012f578063b15a49c111610114578063b15a49c1146104bd578063b38f5b6d146104c5578063b69ef8a8146104cb57600080fd5b80639470b0bd14610497578063aec9c307146104aa57600080fd5b80637b99adb11461044d57806384449464146104605780638da5cb5b1461047357806391ca480e1461048457600080fd5b80632f7627e31161020e5780635d8a776e116101c25780636a3fd4f9116101a75780636a3fd4f91461041f578063715018a61461043257806378b3d3271461043a57600080fd5b80635d8a776e14610404578063630665b41461041757600080fd5b806335403023116101f357806335403023146103d65780634e71e0c8146103e95780635a3f111c146103f157600080fd5b80632f7627e3146103bb57806333e5761f146103ce57600080fd5b806316960d551161026557806321df0da71161024a57806321df0da71461037557806322f8e566146103955780632b0ab144146103a857600080fd5b806316960d551461033f5780631c65c78b1461035257600080fd5b806308234319146102975780630d4d1513146102ae57806313f55e39146102c3578063150b7a02146102d6575b600080fd5b6005545b6040519081526020015b60405180910390f35b6102c16102bc36600461233e565b6105ac565b005b6102c16102d1366004612232565b6105bc565b61030e6102e4366004612273565b7f150b7a020000000000000000000000000000000000000000000000000000000095945050505050565b6040517fffffffff0000000000000000000000000000000000000000000000000000000090911681526020016102a5565b6102c161034d36600461219d565b61067d565b610365610360366004612163565b6108b8565b60405190151581526020016102a5565b61037d610a61565b6040516001600160a01b0390911681526020016102a5565b6102c16103a33660046123db565b600855565b6102c16103b6366004612232565b610a70565b6102c16103c93660046123a2565b610b1f565b61029b610c9a565b6102c16103e43660046123db565b610ca4565b6102c1610cb0565b60095461037d906001600160a01b031681565b6102c1610412366004612312565b610d3e565b60075461029b565b61036561042d366004612163565b610e5d565b6102c1610e6e565b610365610448366004612163565b610ee3565b6102c161045b3660046123db565b610eee565b6102c161046e3660046123db565b600755565b6000546001600160a01b031661037d565b6102c1610492366004612163565b610f60565b61029b6104a5366004612312565b610fd2565b6103656104b83660046123db565b611133565b60065461029b565b4261029b565b61029b6111af565b6003546001600160a01b031661037d565b61029b60085481565b6102c16104fb36600461233e565b6111b9565b6004546001600160a01b031661037d565b6102c161051f3660046123db565b6112f9565b6001546001600160a01b031661037d565b61029b611302565b6102c161054b366004612163565b611408565b61058c6040518060400160405280600581526020017f342e302e3000000000000000000000000000000000000000000000000000000081525081565b6040516102a591906124aa565b6102c16105a7366004612312565b611544565b6105b7838383611605565b505050565b6004546001600160a01b0316331461061b5760405162461bcd60e51b815260206004820152601c60248201527f5072697a65506f6f6c2f6f6e6c792d7072697a6553747261746567790000000060448201526064015b60405180910390fd5b610626838383611685565b156105b757816001600160a01b0316836001600160a01b03167fb0bac59718cd343c80a813518afcf36846cfcfe6d56e2b3cab9bd49f5f9b251c8360405161067091815260200190565b60405180910390a3505050565b6004546001600160a01b031633146106d75760405162461bcd60e51b815260206004820152601c60248201527f5072697a65506f6f6c2f6f6e6c792d7072697a655374726174656779000000006044820152606401610612565b6106e083611708565b61072c5760405162461bcd60e51b815260206004820181905260248201527f5072697a65506f6f6c2f696e76616c69642d65787465726e616c2d746f6b656e6044820152606401610612565b80610736576108b2565b60005b8181101561086357836001600160a01b03166342842e0e308786868681811061076457610764612562565b6040517fffffffff0000000000000000000000000000000000000000000000000000000060e088901b1681526001600160a01b03958616600482015294909316602485015250602090910201356044820152606401600060405180830381600087803b1580156107d357600080fd5b505af19250505080156107e4575060015b610851573d808015610812576040519150601f19603f3d011682016040523d82523d6000602084013e610817565b606091505b507f17e975018310f88872b58d4d8263adca83cf5c1893496ea2a86923dab15276ad8160405161084791906124aa565b60405180910390a1505b8061085b81612518565b915050610739565b50826001600160a01b0316846001600160a01b03167f69c2de32bc4d47f488e72626a6cfdee85089342e52675e7de79c4b417623960c84846040516108a9929190612455565b60405180910390a35b50505050565b6000336108cd6000546001600160a01b031690565b6001600160a01b0316146109235760405162461bcd60e51b815260206004820152601860248201527f4f776e61626c652f63616c6c65722d6e6f742d6f776e657200000000000000006044820152606401610612565b816001600160a01b0381166109a05760405162461bcd60e51b815260206004820152602160248201527f5072697a65506f6f6c2f7469636b65742d6e6f742d7a65726f2d61646472657360448201527f73000000000000000000000000000000000000000000000000000000000000006064820152608401610612565b6003546001600160a01b0316156109f95760405162461bcd60e51b815260206004820152601c60248201527f5072697a65506f6f6c2f7469636b65742d616c72656164792d736574000000006044820152606401610612565b6003805473ffffffffffffffffffffffffffffffffffffffff19166001600160a01b0385169081179091556040517f9f9d59c87dbdc6ca82d9e5924782004b9aebc366c505c0ccab12f61e2a9f332190600090a2610a5860001961179f565b50600192915050565b6000610a6b6117db565b905090565b6004546001600160a01b03163314610aca5760405162461bcd60e51b815260206004820152601c60248201527f5072697a65506f6f6c2f6f6e6c792d7072697a655374726174656779000000006044820152606401610612565b610ad5838383611685565b156105b757816001600160a01b0316836001600160a01b03167fc65f48aca3b7a99b7443d04b8ffbb073156179bc628dc3f7def50477489734698360405161067091815260200190565b33610b326000546001600160a01b031690565b6001600160a01b031614610b885760405162461bcd60e51b815260206004820152601860248201527f4f776e61626c652f63616c6c65722d6e6f742d6f776e657200000000000000006044820152606401610612565b6040517f70a082310000000000000000000000000000000000000000000000000000000081523060048201526000906001600160a01b038416906370a082319060240160206040518083038186803b158015610be357600080fd5b505afa158015610bf7573d6000803e3d6000fd5b505050506040513d601f19601f82011682018060405250810190610c1b91906123f4565b1115610c96576040517f5c19a95c0000000000000000000000000000000000000000000000000000000081526001600160a01b038281166004830152831690635c19a95c90602401600060405180830381600087803b158015610c7d57600080fd5b505af1158015610c91573d6000803e3d6000fd5b505050505b5050565b6000610a6b611871565b610cad81611907565b50565b6001546001600160a01b03163314610d0a5760405162461bcd60e51b815260206004820152601f60248201527f4f776e61626c652f63616c6c65722d6e6f742d70656e64696e674f776e6572006044820152606401610612565b600154610d1f906001600160a01b0316611987565b6001805473ffffffffffffffffffffffffffffffffffffffff19169055565b6004546001600160a01b03163314610d985760405162461bcd60e51b815260206004820152601c60248201527f5072697a65506f6f6c2f6f6e6c792d7072697a655374726174656779000000006044820152606401610612565b80610da1575050565b60075480821115610df45760405162461bcd60e51b815260206004820152601d60248201527f5072697a65506f6f6c2f61776172642d657863656564732d617661696c0000006044820152606401610612565b610dfe82826124d5565b6007556003546001600160a01b0316610e18848483611605565b806001600160a01b0316846001600160a01b03167fe2554529d99ab7a67db6b4cea2b32c7d55ae325f958861e05f304fdded867e31856040516108a991815260200190565b6000610e6882611708565b92915050565b33610e816000546001600160a01b031690565b6001600160a01b031614610ed75760405162461bcd60e51b815260206004820152601860248201527f4f776e61626c652f63616c6c65722d6e6f742d6f776e657200000000000000006044820152606401610612565b610ee16000611987565b565b6000610e68826119e4565b33610f016000546001600160a01b031690565b6001600160a01b031614610f575760405162461bcd60e51b815260206004820152601860248201527f4f776e61626c652f63616c6c65722d6e6f742d6f776e657200000000000000006044820152606401610612565b610cad81611a0d565b33610f736000546001600160a01b031690565b6001600160a01b031614610fc95760405162461bcd60e51b815260206004820152601860248201527f4f776e61626c652f63616c6c65722d6e6f742d6f776e657200000000000000006044820152606401610612565b610cad81611a42565b60006002805414156110265760405162461bcd60e51b815260206004820152601f60248201527f5265656e7472616e637947756172643a207265656e7472616e742063616c6c006044820152606401610612565b600280556003546040517f631b5dfb0000000000000000000000000000000000000000000000000000000081523360048201526001600160a01b0385811660248301526044820185905290911690819063631b5dfb90606401600060405180830381600087803b15801561109957600080fd5b505af11580156110ad573d6000803e3d6000fd5b5050505060006110bc84611aef565b90506110db85826110cb6117db565b6001600160a01b03169190611b87565b60408051858152602081018390526001600160a01b03808516929088169133917fe56473357106d0cdea364a045d5ab7abb44b6bd1c0f092ba3734983a43459f8f910160405180910390a46001600255949350505050565b6000336111486000546001600160a01b031690565b6001600160a01b03161461119e5760405162461bcd60e51b815260206004820152601860248201527f4f776e61626c652f63616c6c65722d6e6f742d6f776e657200000000000000006044820152606401610612565b6111a78261179f565b506001919050565b6000610a6b611c30565b60028054141561120b5760405162461bcd60e51b815260206004820152601f60248201527f5265656e7472616e637947756172643a207265656e7472616e742063616c6c006044820152606401610612565b600280558161121981611ca3565b6112655760405162461bcd60e51b815260206004820152601f60248201527f5072697a65506f6f6c2f657863656564732d6c69717569646974792d636170006044820152606401610612565b611270338585611cd9565b6003546040517f33e39b610000000000000000000000000000000000000000000000000000000081523360048201526001600160a01b038481166024830152909116906333e39b6190604401600060405180830381600087803b1580156112d657600080fd5b505af11580156112ea573d6000803e3d6000fd5b50506001600255505050505050565b610c9681611aef565b60006002805414156113565760405162461bcd60e51b815260206004820152601f60248201527f5265656e7472616e637947756172643a207265656e7472616e742063616c6c006044820152606401610612565b600280556000611364611871565b6007549091506000611374611c30565b90506000838211611386576000611390565b61139084836124d5565b905060008382116113a25760006113ac565b6113ac84836124d5565b905080156113fa576113be81856124bd565b60078190556040518281529094507fce2b6e507c7ca1a20ce136810f524eefc19ba4c7e4866eb6cc0cba76e778d4be9060200160405180910390a15b505060016002555092915050565b3361141b6000546001600160a01b031690565b6001600160a01b0316146114715760405162461bcd60e51b815260206004820152601860248201527f4f776e61626c652f63616c6c65722d6e6f742d6f776e657200000000000000006044820152606401610612565b6001600160a01b0381166114ed5760405162461bcd60e51b815260206004820152602560248201527f4f776e61626c652f70656e64696e674f776e65722d6e6f742d7a65726f2d616460448201527f64726573730000000000000000000000000000000000000000000000000000006064820152608401610612565b6001805473ffffffffffffffffffffffffffffffffffffffff19166001600160a01b0383169081179091556040517f239a2ddded15777fa246aed5f7e1a9bc69a39d4eb4a397034d1d85766cca7d4c90600090a250565b6002805414156115965760405162461bcd60e51b815260206004820152601f60248201527f5265656e7472616e637947756172643a207265656e7472616e742063616c6c006044820152606401610612565b60028055806115a481611ca3565b6115f05760405162461bcd60e51b815260206004820152601f60248201527f5072697a65506f6f6c2f657863656564732d6c69717569646974792d636170006044820152606401610612565b6115fb338484611cd9565b5050600160025550565b6040517f5d7b07580000000000000000000000000000000000000000000000000000000081526001600160a01b03848116600483015260248201849052821690635d7b075890604401600060405180830381600087803b15801561166857600080fd5b505af115801561167c573d6000803e3d6000fd5b50505050505050565b600061169083611708565b6116dc5760405162461bcd60e51b815260206004820181905260248201527f5072697a65506f6f6c2f696e76616c69642d65787465726e616c2d746f6b656e6044820152606401610612565b816116e957506000611701565b6116fd6001600160a01b0384168584611b87565b5060015b9392505050565b6009546040517f6a3fd4f90000000000000000000000000000000000000000000000000000000081526001600160a01b0383811660048301526000921690636a3fd4f99060240160206040518083038186803b15801561176757600080fd5b505afa15801561177b573d6000803e3d6000fd5b505050506040513d601f19601f82011682018060405250810190610e689190612380565b60058190556040518181527f439b9ac8f2088164a8d80921758209db1623cf1a37a48913679ef3a43d7a5cf7906020015b60405180910390a150565b600954604080517fc89039c500000000000000000000000000000000000000000000000000000000815290516000926001600160a01b03169163c89039c5916004808301926020929190829003018186803b15801561183957600080fd5b505afa15801561184d573d6000803e3d6000fd5b505050506040513d601f19601f82011682018060405250810190610a6b9190612180565b600354604080517f18160ddd00000000000000000000000000000000000000000000000000000000815290516000926001600160a01b0316916318160ddd916004808301926020929190829003018186803b1580156118cf57600080fd5b505afa1580156118e3573d6000803e3d6000fd5b505050506040513d601f19601f82011682018060405250810190610a6b91906123f4565b6009546040517f87a6eeef000000000000000000000000000000000000000000000000000000008152600481018390523060248201526001600160a01b03909116906387a6eeef90604401600060405180830381600087803b15801561196c57600080fd5b505af1158015611980573d6000803e3d6000fd5b5050505050565b600080546001600160a01b0383811673ffffffffffffffffffffffffffffffffffffffff19831681178455604051919092169283917f8be0079c531659141344cd1fd0a4f28419497f9722a3daafe3b4186f6b6457e09190a35050565b6003546000906001600160a01b0383811691161415611a0557506001919050565b506000919050565b60068190556040518181527f3ff20538222f568f27ff436c0c49dfd3e48d5b8f86533a3f759dc1c7089775ab906020016117d0565b6001600160a01b038116611a985760405162461bcd60e51b815260206004820181905260248201527f5072697a65506f6f6c2f7072697a6553747261746567792d6e6f742d7a65726f6044820152606401610612565b6004805473ffffffffffffffffffffffffffffffffffffffff19166001600160a01b0383169081179091556040517f7f58dc86bc2e435cb77ca0edb1df55e25f90caf2d6bd866971715437d456a21290600090a250565b6009546040517f013054c2000000000000000000000000000000000000000000000000000000008152600481018390526000916001600160a01b03169063013054c290602401602060405180830381600087803b158015611b4f57600080fd5b505af1158015611b63573d6000803e3d6000fd5b505050506040513d601f19601f82011682018060405250810190610e6891906123f4565b6040516001600160a01b0383166024820152604481018290526105b79084907fa9059cbb00000000000000000000000000000000000000000000000000000000906064015b60408051601f198184030181529190526020810180517bffffffffffffffffffffffffffffffffffffffffffffffffffffffff167fffffffff0000000000000000000000000000000000000000000000000000000090931692909217909152611dcb565b6009546040517fb99152d00000000000000000000000000000000000000000000000000000000081523060048201526000916001600160a01b03169063b99152d090602401602060405180830381600087803b158015611c8f57600080fd5b505af11580156118e3573d6000803e3d6000fd5b600654600090600019811415611cbc5750600192915050565b8083611cc6611871565b611cd091906124bd565b11159392505050565b611ce38282611eb0565b611d2f5760405162461bcd60e51b815260206004820152601d60248201527f5072697a65506f6f6c2f657863656564732d62616c616e63652d6361700000006044820152606401610612565b6003546001600160a01b0316611d46838383611605565b611d65843084611d546117db565b6001600160a01b0316929190611f83565b611d6e82611907565b806001600160a01b0316836001600160a01b0316856001600160a01b03167f4174a9435a04d04d274c76779cad136a41fde6937c56241c09ab9d3c7064a1a985604051611dbd91815260200190565b60405180910390a450505050565b6000611e20826040518060400160405280602081526020017f5361666545524332303a206c6f772d6c6576656c2063616c6c206661696c6564815250856001600160a01b0316611fd49092919063ffffffff16565b8051909150156105b75780806020019051810190611e3e9190612380565b6105b75760405162461bcd60e51b815260206004820152602a60248201527f5361666545524332303a204552433230206f7065726174696f6e20646964206e60448201527f6f742073756363656564000000000000000000000000000000000000000000006064820152608401610612565b6003546005546000916001600160a01b031690600019811415611ed857600192505050610e68565b6040517f70a082310000000000000000000000000000000000000000000000000000000081526001600160a01b038681166004830152829186918516906370a082319060240160206040518083038186803b158015611f3657600080fd5b505afa158015611f4a573d6000803e3d6000fd5b505050506040513d601f19601f82011682018060405250810190611f6e91906123f4565b611f7891906124bd565b111595945050505050565b6040516001600160a01b03808516602483015283166044820152606481018290526108b29085907f23b872dd0000000000000000000000000000000000000000000000000000000090608401611bcc565b6060611fe38484600085611feb565b949350505050565b6060824710156120635760405162461bcd60e51b815260206004820152602660248201527f416464726573733a20696e73756666696369656e742062616c616e636520666f60448201527f722063616c6c00000000000000000000000000000000000000000000000000006064820152608401610612565b843b6120b15760405162461bcd60e51b815260206004820152601d60248201527f416464726573733a2063616c6c20746f206e6f6e2d636f6e74726163740000006044820152606401610612565b600080866001600160a01b031685876040516120cd9190612439565b60006040518083038185875af1925050503d806000811461210a576040519150601f19603f3d011682016040523d82523d6000602084013e61210f565b606091505b509150915061211f82828661212a565b979650505050505050565b60608315612139575081611701565b8251156121495782518084602001fd5b8160405162461bcd60e51b815260040161061291906124aa565b60006020828403121561217557600080fd5b813561170181612591565b60006020828403121561219257600080fd5b815161170181612591565b600080600080606085870312156121b357600080fd5b84356121be81612591565b935060208501356121ce81612591565b9250604085013567ffffffffffffffff808211156121eb57600080fd5b818701915087601f8301126121ff57600080fd5b81358181111561220e57600080fd5b8860208260051b850101111561222357600080fd5b95989497505060200194505050565b60008060006060848603121561224757600080fd5b833561225281612591565b9250602084013561226281612591565b929592945050506040919091013590565b60008060008060006080868803121561228b57600080fd5b853561229681612591565b945060208601356122a681612591565b935060408601359250606086013567ffffffffffffffff808211156122ca57600080fd5b818801915088601f8301126122de57600080fd5b8135818111156122ed57600080fd5b8960208285010111156122ff57600080fd5b9699959850939650602001949392505050565b6000806040838503121561232557600080fd5b823561233081612591565b946020939093013593505050565b60008060006060848603121561235357600080fd5b833561235e81612591565b925060208401359150604084013561237581612591565b809150509250925092565b60006020828403121561239257600080fd5b8151801515811461170157600080fd5b600080604083850312156123b557600080fd5b82356123c081612591565b915060208301356123d081612591565b809150509250929050565b6000602082840312156123ed57600080fd5b5035919050565b60006020828403121561240657600080fd5b5051919050565b600081518084526124258160208601602086016124ec565b601f01601f19169290920160200192915050565b6000825161244b8184602087016124ec565b9190910192915050565b6020815281602082015260007f07ffffffffffffffffffffffffffffffffffffffffffffffffffffffffffffff83111561248e57600080fd5b8260051b80856040850137600092016040019182525092915050565b602081526000611701602083018461240d565b600082198211156124d0576124d0612533565b500190565b6000828210156124e7576124e7612533565b500390565b60005b838110156125075781810151838201526020016124ef565b838111156108b25750506000910152565b600060001982141561252c5761252c612533565b5060010190565b7f4e487b7100000000000000000000000000000000000000000000000000000000600052601160045260246000fd5b7f4e487b7100000000000000000000000000000000000000000000000000000000600052603260045260246000fd5b6001600160a01b0381168114610cad57600080fdfea2646970667358221220d48834fa0e0f097d782494a875961122dab652862b987bd455e48848e275816b64736f6c63430008060033",
  "linkReferences": {},
  "deployedLinkReferences": {}
}