{
  "_format": "hh-sol-artifact-1",
  "contractName": "StakerVaultProfiler",
  "sourceName": "contracts/testing/profiling/StakerVaultProfiler.sol",
  "abi": [
    {
      "inputs": [
        {
          "internalType": "address",
          "name": "_stakerVault",
          "type": "address"
        }
      ],
      "stateMutability": "nonpayable",
      "type": "constructor"
    },
    {
      "inputs": [
        {
          "internalType": "uint256",
          "name": "amount",
          "type": "uint256"
        }
      ],
      "name": "profileStake",
      "outputs": [],
      "stateMutability": "nonpayable",
      "type": "function"
    },
    {
      "inputs": [],
      "name": "stakerVault",
      "outputs": [
        {
          "internalType": "contract StakerVault",
          "name": "",
          "type": "address"
        }
      ],
      "stateMutability": "view",
      "type": "function"
    }
  ],
  "bytecode": "0x608060405234801561001057600080fd5b5060405161061c38038061061c83398101604081905261002f91610148565b600080546001600160a01b0319166001600160a01b03831690811790915560408051637e062a3560e11b8152905163fc0c546a91600480820192602092909190829003018186803b15801561008357600080fd5b505afa158015610097573d6000803e3d6000fd5b505050506040513d601f19601f820116820180604052508101906100bb9190610148565b60005460405163095ea7b360e01b81526001600160a01b039182166004820152600019602482015291169063095ea7b390604401602060405180830381600087803b15801561010957600080fd5b505af115801561011d573d6000803e3d6000fd5b505050506040513d601f19601f820116820180604052508101906101419190610178565b505061019a565b60006020828403121561015a57600080fd5b81516001600160a01b038116811461017157600080fd5b9392505050565b60006020828403121561018a57600080fd5b8151801515811461017157600080fd5b610473806101a96000396000f3fe608060405234801561001057600080fd5b50600436106100365760003560e01c806373aaa0251461003b578063c4f5531a14610050575b600080fd5b61004e6100493660046103fb565b61007f565b005b600054610063906001600160a01b031681565b6040516001600160a01b03909116815260200160405180910390f35b60005460405163534a7e1d60e11b8152600481018390526001600160a01b039091169063a694fc3a90602401602060405180830381600087803b1580156100c557600080fd5b505af11580156100d9573d6000803e3d6000fd5b505050506040513d601f19601f820116820180604052508101906100fd9190610414565b5060005460405163534a7e1d60e11b8152600481018390526001600160a01b039091169063a694fc3a90602401602060405180830381600087803b15801561014457600080fd5b505af1158015610158573d6000803e3d6000fd5b505050506040513d601f19601f8201168201806040525081019061017c9190610414565b5060005460405163534a7e1d60e11b8152600481018390526001600160a01b039091169063a694fc3a90602401602060405180830381600087803b1580156101c357600080fd5b505af11580156101d7573d6000803e3d6000fd5b505050506040513d601f19601f820116820180604052508101906101fb9190610414565b5060005460405163534a7e1d60e11b8152600481018390526001600160a01b039091169063a694fc3a90602401602060405180830381600087803b15801561024257600080fd5b505af1158015610256573d6000803e3d6000fd5b505050506040513d601f19601f8201168201806040525081019061027a9190610414565b506000546040516305c2fbcf60e31b8152600481018390526001600160a01b0390911690632e17de7890602401602060405180830381600087803b1580156102c157600080fd5b505af11580156102d5573d6000803e3d6000fd5b505050506040513d601f19601f820116820180604052508101906102f99190610414565b506000546040516305c2fbcf60e31b8152600481018390526001600160a01b0390911690632e17de7890602401602060405180830381600087803b15801561034057600080fd5b505af1158015610354573d6000803e3d6000fd5b505050506040513d601f19601f820116820180604052508101906103789190610414565b506000546040516305c2fbcf60e31b8152600481018390526001600160a01b0390911690632e17de7890602401602060405180830381600087803b1580156103bf57600080fd5b505af11580156103d3573d6000803e3d6000fd5b505050506040513d601f19601f820116820180604052508101906103f79190610414565b5050565b60006020828403121561040d57600080fd5b5035919050565b60006020828403121561042657600080fd5b8151801515811461043657600080fd5b939250505056fea264697066735822122070a0b2caef9af3489154bbe21028db244b5b09f91becb5037786c06ffefbdc5164736f6c63430008090033",
  "linkReferences": {},
  "deployedLinkReferences": {}
}