{
  "_format": "hh-sol-artifact-1",
  "contractName": "ControllerProfiler",
  "sourceName": "contracts/testing/profiling/ControllerProfiler.sol",
  "abi": [
    {
      "inputs": [
        {
          "internalType": "address",
          "name": "_controller",
          "type": "address"
        }
      ],
      "stateMutability": "nonpayable",
      "type": "constructor"
    },
    {
      "inputs": [],
      "name": "controller",
      "outputs": [
        {
          "internalType": "contract Controller",
          "name": "",
          "type": "address"
        }
      ],
      "stateMutability": "view",
      "type": "function"
    },
    {
      "inputs": [],
      "name": "profileIsAction",
      "outputs": [],
      "stateMutability": "nonpayable",
      "type": "function"
    },
    {
      "inputs": [
        {
          "internalType": "address",
          "name": "pool",
          "type": "address"
        },
        {
          "internalType": "address",
          "name": "token",
          "type": "address"
        }
      ],
      "name": "profilePoolAddingAndLpTokenGet",
      "outputs": [],
      "stateMutability": "nonpayable",
      "type": "function"
    }
  ],
  "bytecode": "0x60a060405234801561001057600080fd5b5060405161085538038061085583398101604081905261002f91610040565b6001600160a01b0316608052610070565b60006020828403121561005257600080fd5b81516001600160a01b038116811461006957600080fd5b9392505050565b6080516107a96100ac6000396000818160680152818160aa015281816102bd01528181610449015281816104d3015261065a01526107a96000f3fe608060405234801561001057600080fd5b50600436106100415760003560e01c80637ed3d0c914610046578063bd41b3b614610050578063f77c479114610063575b600080fd5b61004e6100a6565b005b61004e61005e3660046106f4565b6104cf565b61008a7f000000000000000000000000000000000000000000000000000000000000000081565b6040516001600160a01b03909116815260200160405180910390f35b60007f00000000000000000000000000000000000000000000000000000000000000006001600160a01b0316632954018c6040518163ffffffff1660e01b815260040160206040518083038186803b15801561010157600080fd5b505afa158015610115573d6000803e3d6000fd5b505050506040513d601f19601f82011682018060405250810190610139919061072d565b60405163622e68cb60e01b81523060048201529091506001600160a01b0382169063622e68cb9060240160206040518083038186803b15801561017b57600080fd5b505afa15801561018f573d6000803e3d6000fd5b505050506040513d601f19601f820116820180604052508101906101b39190610751565b506040516311dced4160e11b81523060048201526001600160a01b038216906323b9da8290602401602060405180830381600087803b1580156101f557600080fd5b505af1158015610209573d6000803e3d6000fd5b505050506040513d601f19601f8201168201806040525081019061022d9190610751565b5060405163622e68cb60e01b81523060048201526001600160a01b0382169063622e68cb9060240160206040518083038186803b15801561026d57600080fd5b505afa158015610281573d6000803e3d6000fd5b505050506040513d601f19601f820116820180604052508101906102a59190610751565b5060405163622e68cb60e01b81526001600160a01b037f00000000000000000000000000000000000000000000000000000000000000008116600483015282169063622e68cb9060240160206040518083038186803b15801561030757600080fd5b505afa15801561031b573d6000803e3d6000fd5b505050506040513d601f19601f8201168201806040525081019061033f9190610751565b506040516311dced4160e11b81523060048201526001600160a01b038216906323b9da8290602401602060405180830381600087803b15801561038157600080fd5b505af1158015610395573d6000803e3d6000fd5b505050506040513d601f19601f820116820180604052508101906103b99190610751565b5060405163622e68cb60e01b81523060048201526001600160a01b0382169063622e68cb9060240160206040518083038186803b1580156103f957600080fd5b505afa15801561040d573d6000803e3d6000fd5b505050506040513d601f19601f820116820180604052508101906104319190610751565b5060405163622e68cb60e01b81526001600160a01b037f00000000000000000000000000000000000000000000000000000000000000008116600483015282169063622e68cb9060240160206040518083038186803b15801561049357600080fd5b505afa1580156104a7573d6000803e3d6000fd5b505050506040513d601f19601f820116820180604052508101906104cb9190610751565b5050565b60007f00000000000000000000000000000000000000000000000000000000000000006001600160a01b0316632954018c6040518163ffffffff1660e01b815260040160206040518083038186803b15801561052a57600080fd5b505afa15801561053e573d6000803e3d6000fd5b505050506040513d601f19601f82011682018060405250810190610562919061072d565b60405163d914cd4b60e01b81526001600160a01b0385811660048301529192509082169063d914cd4b90602401600060405180830381600087803b1580156105a957600080fd5b505af11580156105bd573d6000803e3d6000fd5b5050604051630956fef360e21b81526001600160a01b0385811660048301528416925063255bfbcc915060240160206040518083038186803b15801561060257600080fd5b505afa158015610616573d6000803e3d6000fd5b505050506040513d601f19601f8201168201806040525081019061063a919061072d565b50604051631dbe84a360e11b81526001600160a01b0384811660048301527f00000000000000000000000000000000000000000000000000000000000000001690633b7d094690602401602060405180830381600087803b15801561069e57600080fd5b505af11580156106b2573d6000803e3d6000fd5b505050506040513d601f19601f820116820180604052508101906106d69190610751565b50505050565b6001600160a01b03811681146106f157600080fd5b50565b6000806040838503121561070757600080fd5b8235610712816106dc565b91506020830135610722816106dc565b809150509250929050565b60006020828403121561073f57600080fd5b815161074a816106dc565b9392505050565b60006020828403121561076357600080fd5b8151801515811461074a57600080fdfea2646970667358221220a1321cedb408661995f11d8f2d8c384d4d35ba95ac9771944d1b9a95df9f4df564736f6c63430008090033",
  "linkReferences": {},
  "deployedLinkReferences": {}
}