{
  "_format": "hh-sol-artifact-1",
  "contractName": "RestrictedERC20Mock",
  "sourceName": "contracts/mocks/RestrictedERC20Mock.sol",
  "abi": [
    {
      "inputs": [
        {
          "internalType": "string",
          "name": "name",
          "type": "string"
        },
        {
          "internalType": "string",
          "name": "symbol",
          "type": "string"
        }
      ],
      "stateMutability": "nonpayable",
      "type": "constructor"
    },
    {
      "anonymous": false,
      "inputs": [
        {
          "indexed": true,
          "internalType": "address",
          "name": "owner",
          "type": "address"
        },
        {
          "indexed": true,
          "internalType": "address",
          "name": "spender",
          "type": "address"
        },
        {
          "indexed": false,
          "internalType": "uint256",
          "name": "value",
          "type": "uint256"
        }
      ],
      "name": "Approval",
      "type": "event"
    },
    {
      "anonymous": false,
      "inputs": [
        {
          "indexed": true,
          "internalType": "bytes4",
          "name": "role",
          "type": "bytes4"
        },
        {
          "indexed": true,
          "internalType": "bytes4",
          "name": "newAdminRole",
          "type": "bytes4"
        }
      ],
      "name": "RoleAdminChanged",
      "type": "event"
    },
    {
      "anonymous": false,
      "inputs": [
        {
          "indexed": true,
          "internalType": "bytes4",
          "name": "role",
          "type": "bytes4"
        },
        {
          "indexed": true,
          "internalType": "address",
          "name": "account",
          "type": "address"
        },
        {
          "indexed": true,
          "internalType": "address",
          "name": "sender",
          "type": "address"
        }
      ],
      "name": "RoleGranted",
      "type": "event"
    },
    {
      "anonymous": false,
      "inputs": [
        {
          "indexed": true,
          "internalType": "bytes4",
          "name": "role",
          "type": "bytes4"
        },
        {
          "indexed": true,
          "internalType": "address",
          "name": "account",
          "type": "address"
        },
        {
          "indexed": true,
          "internalType": "address",
          "name": "sender",
          "type": "address"
        }
      ],
      "name": "RoleRevoked",
      "type": "event"
    },
    {
      "anonymous": false,
      "inputs": [
        {
          "indexed": true,
          "internalType": "address",
          "name": "from",
          "type": "address"
        },
        {
          "indexed": true,
          "internalType": "address",
          "name": "to",
          "type": "address"
        },
        {
          "indexed": false,
          "internalType": "uint256",
          "name": "value",
          "type": "uint256"
        }
      ],
      "name": "Transfer",
      "type": "event"
    },
    {
      "inputs": [],
      "name": "DOMAIN_SEPARATOR",
      "outputs": [
        {
          "internalType": "bytes32",
          "name": "",
          "type": "bytes32"
        }
      ],
      "stateMutability": "view",
      "type": "function"
    },
    {
      "inputs": [],
      "name": "LOCK",
      "outputs": [
        {
          "internalType": "bytes4",
          "name": "",
          "type": "bytes4"
        }
      ],
      "stateMutability": "view",
      "type": "function"
    },
    {
      "inputs": [],
      "name": "PERMIT_TYPEHASH",
      "outputs": [
        {
          "internalType": "bytes32",
          "name": "",
          "type": "bytes32"
        }
      ],
      "stateMutability": "view",
      "type": "function"
    },
    {
      "inputs": [],
      "name": "ROOT",
      "outputs": [
        {
          "internalType": "bytes4",
          "name": "",
          "type": "bytes4"
        }
      ],
      "stateMutability": "view",
      "type": "function"
    },
    {
      "inputs": [
        {
          "internalType": "address",
          "name": "owner",
          "type": "address"
        },
        {
          "internalType": "address",
          "name": "spender",
          "type": "address"
        }
      ],
      "name": "allowance",
      "outputs": [
        {
          "internalType": "uint256",
          "name": "",
          "type": "uint256"
        }
      ],
      "stateMutability": "view",
      "type": "function"
    },
    {
      "inputs": [
        {
          "internalType": "address",
          "name": "spender",
          "type": "address"
        },
        {
          "internalType": "uint256",
          "name": "wad",
          "type": "uint256"
        }
      ],
      "name": "approve",
      "outputs": [
        {
          "internalType": "bool",
          "name": "",
          "type": "bool"
        }
      ],
      "stateMutability": "nonpayable",
      "type": "function"
    },
    {
      "inputs": [
        {
          "internalType": "address",
          "name": "guy",
          "type": "address"
        }
      ],
      "name": "balanceOf",
      "outputs": [
        {
          "internalType": "uint256",
          "name": "",
          "type": "uint256"
        }
      ],
      "stateMutability": "view",
      "type": "function"
    },
    {
      "inputs": [
        {
          "internalType": "address",
          "name": "from",
          "type": "address"
        },
        {
          "internalType": "uint256",
          "name": "amount",
          "type": "uint256"
        }
      ],
      "name": "burn",
      "outputs": [],
      "stateMutability": "nonpayable",
      "type": "function"
    },
    {
      "inputs": [],
      "name": "decimals",
      "outputs": [
        {
          "internalType": "uint8",
          "name": "",
          "type": "uint8"
        }
      ],
      "stateMutability": "view",
      "type": "function"
    },
    {
      "inputs": [],
      "name": "deploymentChainId",
      "outputs": [
        {
          "internalType": "uint256",
          "name": "",
          "type": "uint256"
        }
      ],
      "stateMutability": "view",
      "type": "function"
    },
    {
      "inputs": [
        {
          "internalType": "bytes4",
          "name": "role",
          "type": "bytes4"
        }
      ],
      "name": "getRoleAdmin",
      "outputs": [
        {
          "internalType": "bytes4",
          "name": "",
          "type": "bytes4"
        }
      ],
      "stateMutability": "view",
      "type": "function"
    },
    {
      "inputs": [
        {
          "internalType": "bytes4",
          "name": "role",
          "type": "bytes4"
        },
        {
          "internalType": "address",
          "name": "account",
          "type": "address"
        }
      ],
      "name": "grantRole",
      "outputs": [],
      "stateMutability": "nonpayable",
      "type": "function"
    },
    {
      "inputs": [
        {
          "internalType": "bytes4[]",
          "name": "roles",
          "type": "bytes4[]"
        },
        {
          "internalType": "address",
          "name": "account",
          "type": "address"
        }
      ],
      "name": "grantRoles",
      "outputs": [],
      "stateMutability": "nonpayable",
      "type": "function"
    },
    {
      "inputs": [
        {
          "internalType": "bytes4",
          "name": "role",
          "type": "bytes4"
        },
        {
          "internalType": "address",
          "name": "account",
          "type": "address"
        }
      ],
      "name": "hasRole",
      "outputs": [
        {
          "internalType": "bool",
          "name": "",
          "type": "bool"
        }
      ],
      "stateMutability": "view",
      "type": "function"
    },
    {
      "inputs": [
        {
          "internalType": "bytes4",
          "name": "role",
          "type": "bytes4"
        }
      ],
      "name": "lockRole",
      "outputs": [],
      "stateMutability": "nonpayable",
      "type": "function"
    },
    {
      "inputs": [
        {
          "internalType": "address",
          "name": "to",
          "type": "address"
        },
        {
          "internalType": "uint256",
          "name": "amount",
          "type": "uint256"
        }
      ],
      "name": "mint",
      "outputs": [],
      "stateMutability": "nonpayable",
      "type": "function"
    },
    {
      "inputs": [],
      "name": "name",
      "outputs": [
        {
          "internalType": "string",
          "name": "",
          "type": "string"
        }
      ],
      "stateMutability": "view",
      "type": "function"
    },
    {
      "inputs": [
        {
          "internalType": "address",
          "name": "",
          "type": "address"
        }
      ],
      "name": "nonces",
      "outputs": [
        {
          "internalType": "uint256",
          "name": "",
          "type": "uint256"
        }
      ],
      "stateMutability": "view",
      "type": "function"
    },
    {
      "inputs": [
        {
          "internalType": "address",
          "name": "owner",
          "type": "address"
        },
        {
          "internalType": "address",
          "name": "spender",
          "type": "address"
        },
        {
          "internalType": "uint256",
          "name": "amount",
          "type": "uint256"
        },
        {
          "internalType": "uint256",
          "name": "deadline",
          "type": "uint256"
        },
        {
          "internalType": "uint8",
          "name": "v",
          "type": "uint8"
        },
        {
          "internalType": "bytes32",
          "name": "r",
          "type": "bytes32"
        },
        {
          "internalType": "bytes32",
          "name": "s",
          "type": "bytes32"
        }
      ],
      "name": "permit",
      "outputs": [],
      "stateMutability": "nonpayable",
      "type": "function"
    },
    {
      "inputs": [
        {
          "internalType": "bytes4",
          "name": "role",
          "type": "bytes4"
        },
        {
          "internalType": "address",
          "name": "account",
          "type": "address"
        }
      ],
      "name": "renounceRole",
      "outputs": [],
      "stateMutability": "nonpayable",
      "type": "function"
    },
    {
      "inputs": [
        {
          "internalType": "bytes4",
          "name": "role",
          "type": "bytes4"
        },
        {
          "internalType": "address",
          "name": "account",
          "type": "address"
        }
      ],
      "name": "revokeRole",
      "outputs": [],
      "stateMutability": "nonpayable",
      "type": "function"
    },
    {
      "inputs": [
        {
          "internalType": "bytes4[]",
          "name": "roles",
          "type": "bytes4[]"
        },
        {
          "internalType": "address",
          "name": "account",
          "type": "address"
        }
      ],
      "name": "revokeRoles",
      "outputs": [],
      "stateMutability": "nonpayable",
      "type": "function"
    },
    {
      "inputs": [
        {
          "internalType": "bytes4",
          "name": "role",
          "type": "bytes4"
        },
        {
          "internalType": "bytes4",
          "name": "adminRole",
          "type": "bytes4"
        }
      ],
      "name": "setRoleAdmin",
      "outputs": [],
      "stateMutability": "nonpayable",
      "type": "function"
    },
    {
      "inputs": [],
      "name": "symbol",
      "outputs": [
        {
          "internalType": "string",
          "name": "",
          "type": "string"
        }
      ],
      "stateMutability": "view",
      "type": "function"
    },
    {
      "inputs": [],
      "name": "totalSupply",
      "outputs": [
        {
          "internalType": "uint256",
          "name": "",
          "type": "uint256"
        }
      ],
      "stateMutability": "view",
      "type": "function"
    },
    {
      "inputs": [
        {
          "internalType": "address",
          "name": "dst",
          "type": "address"
        },
        {
          "internalType": "uint256",
          "name": "wad",
          "type": "uint256"
        }
      ],
      "name": "transfer",
      "outputs": [
        {
          "internalType": "bool",
          "name": "",
          "type": "bool"
        }
      ],
      "stateMutability": "nonpayable",
      "type": "function"
    },
    {
      "inputs": [
        {
          "internalType": "address",
          "name": "src",
          "type": "address"
        },
        {
          "internalType": "address",
          "name": "dst",
          "type": "address"
        },
        {
          "internalType": "uint256",
          "name": "wad",
          "type": "uint256"
        }
      ],
      "name": "transferFrom",
      "outputs": [
        {
          "internalType": "bool",
          "name": "",
          "type": "bool"
        }
      ],
      "stateMutability": "nonpayable",
      "type": "function"
    },
    {
      "inputs": [],
      "name": "version",
      "outputs": [
        {
          "internalType": "string",
          "name": "",
          "type": "string"
        }
      ],
      "stateMutability": "pure",
      "type": "function"
    }
  ],
  "bytecode": "0x610120604052600360e0819052623f3f3f60e81b6101009081526200002891600491906200032c565b50604080518082019091526003808252623f3f3f60e81b602090920191825262000055916005916200032c565b506006805460ff191660121790557f6e71edae12b1b97f4d1f60370fef10105fa2faae0126114a169c64845d6126c96080523480156200009457600080fd5b5060405162001e6038038062001e60833981016040819052620000b79162000485565b81816012828282620000cb60003362000142565b620000df6001600160e01b031980620001b7565b8251620000f49060049060208601906200032c565b5081516200010a9060059060208501906200032c565b506006805460ff191660ff9290921691909117905550504660c0819052620001328162000239565b60a052506200061c945050505050565b6200014e8282620002ba565b620001b3576001600160e01b031982166000818152602081815260408083206001600160a01b0386168085529252808320805460ff1916600117905551339391927fe6231789d19137da31d0550f4ba9ee379020a8cfb64cb79bf1790c996d2e616591a45b5050565b6001600160e01b03198116620001cd83620002ef565b6001600160e01b03191614620001b3576001600160e01b0319828116600081815260208190526040808220600101805463ffffffff191660e087901c17905551928416927fd348e2220a50b4500ec353f6e802d2f14dd1b5d6786148fd1bbcc570bf92d4739190a35050565b60007f8b73c3c69bb8fe3d512ecc4cf759cc79239f7b179b0ffacaa9a75d522b39400f60046040516200026d9190620004ec565b6040519081900390206200028062000311565b80516020918201206040516200029d949392879130910162000591565b604051602081830303815290604052805190602001209050919050565b6001600160e01b031982166000908152602081815260408083206001600160a01b038516845290915290205460ff1692915050565b6001600160e01b03191660009081526020819052604090206001015460e01b90565b6040805180820190915260018152603160f81b602082015290565b8280546200033a90620005c9565b90600052602060002090601f0160209004810192826200035e5760008555620003a9565b82601f106200037957805160ff1916838001178555620003a9565b82800160010185558215620003a9579182015b82811115620003a95782518255916020019190600101906200038c565b50620003b7929150620003bb565b5090565b5b80821115620003b75760008155600101620003bc565b600082601f830112620003e3578081fd5b81516001600160401b038082111562000400576200040062000606565b604051601f8301601f19908116603f011681019082821181831017156200042b576200042b62000606565b8160405283815260209250868385880101111562000447578485fd5b8491505b838210156200046a57858201830151818301840152908201906200044b565b838211156200047b57848385830101525b9695505050505050565b6000806040838503121562000498578182fd5b82516001600160401b0380821115620004af578384fd5b620004bd86838701620003d2565b93506020850151915080821115620004d3578283fd5b50620004e285828601620003d2565b9150509250929050565b81546000908190600281046001808316806200050957607f831692505b60208084108214156200052a57634e487b7160e01b87526022600452602487fd5b818015620005415760018114620005535762000583565b60ff1986168952848901965062000583565b6200055e8a620005bd565b885b868110156200057b5781548b82015290850190830162000560565b505084890196505b509498975050505050505050565b9485526020850193909352604084019190915260608301526001600160a01b0316608082015260a00190565b60009081526020902090565b600281046001821680620005de57607f821691505b602082108114156200060057634e487b7160e01b600052602260045260246000fd5b50919050565b634e487b7160e01b600052604160045260246000fd5b60805160a05160c0516117f862000668600039600081816104c10152818161082101526108e80152600081816104f6015261091d015260008181610491015261088201526117f86000f3fe608060405234801561001057600080fd5b50600436106101c45760003560e01c8063687f0e4c116100f9578063ad82110f11610097578063d505accf11610071578063d505accf1461036f578063dd62ed3e14610382578063de02cde714610395578063effae353146103a8576101c4565b8063ad82110f14610341578063ae93c1b514610354578063cd0d009614610367576101c4565b806395d89b41116100d357806395d89b411461030b5780639dc29fac14610313578063a4f0d7d014610326578063a9059cbb1461032e576101c4565b8063687f0e4c146102d257806370a08231146102e55780637ecebe00146102f8576101c4565b80633644e5151161016657806354fd4d501161014057806354fd4d501461028f578063559742d9146102975780635909c12f146102aa5780635ba5e9f0146102bf576101c4565b80633644e5151461025f57806340c10f191461026757806344faded01461027c576101c4565b806318160ddd116101a257806318160ddd1461021a57806323b872dd1461022f57806330adf81f14610242578063313ce5671461024a576101c4565b806306fdde03146101c9578063095ea7b3146101e757806310ab943214610207575b600080fd5b6101d16103bb565b6040516101de919061151c565b60405180910390f35b6101fa6101f536600461122d565b610449565b6040516101de919061145d565b6101fa610215366004611348565b61045d565b610222610469565b6040516101de9190611468565b6101fa61023d366004611181565b61046f565b61022261048f565b6102526104b3565b6040516101de91906116f0565b6102226104bc565b61027a61027536600461122d565b61051c565b005b61027a61028a366004611348565b61057e565b6101d16105b7565b61027a6102a536600461132e565b6105ee565b6102b2610645565b6040516101de91906114ef565b6102b26102cd36600461132e565b61064a565b61027a6102e0366004611348565b61065d565b6102226102f3366004611135565b61068f565b610222610306366004611135565b6106aa565b6101d16106bc565b61027a61032136600461122d565b6106c9565b6102b261071d565b6101fa61033c36600461122d565b610741565b61027a61034f366004611256565b61074e565b61027a610362366004611363565b6107ec565b61022261081f565b61027a61037d3660046111bc565b610843565b61022261039036600461114f565b610a19565b61027a6103a3366004611348565b610a44565b61027a6103b6366004611256565b610a77565b600480546103c890611722565b80601f01602080910402602001604051908101604052809291908181526020018280546103f490611722565b80156104415780601f1061041657610100808354040283529160200191610441565b820191906000526020600020905b81548152906001019060200180831161042457829003601f168201915b505050505081565b6000610456338484610b08565b9392505050565b60006104568383610b78565b60015490565b600061047b8483610bc5565b50610487848484610c5c565b949350505050565b7f000000000000000000000000000000000000000000000000000000000000000081565b60065460ff1681565b6000467f000000000000000000000000000000000000000000000000000000000000000081146104f4576104ef81610d19565b610516565b7f00000000000000000000000000000000000000000000000000000000000000005b91505090565b61054a6000357fffffffff000000000000000000000000000000000000000000000000000000001633610b78565b61056f5760405162461bcd60e51b8152600401610566906116b9565b60405180910390fd5b6105798282610d93565b505050565b8161059161058b82610e30565b33610b78565b6105ad5760405162461bcd60e51b8152600401610566906115dd565b6105798383610e6a565b60408051808201909152600181527f3100000000000000000000000000000000000000000000000000000000000000602082015290565b806105fb61058b82610e30565b6106175760405162461bcd60e51b8152600401610566906115dd565b610641827fffffffff00000000000000000000000000000000000000000000000000000000610ef1565b5050565b600081565b600061065582610e30565b90505b919050565b6001600160a01b03811633146106855760405162461bcd60e51b815260040161056690611682565b6106418282610e6a565b6001600160a01b031660009081526002602052604090205490565b60076020526000908152604090205481565b600580546103c890611722565b6106f76000357fffffffff000000000000000000000000000000000000000000000000000000001633610b78565b6107135760405162461bcd60e51b8152600401610566906116b9565b6105798282610fd3565b7fffffffff0000000000000000000000000000000000000000000000000000000081565b6000610456338484610c5c565b60005b82518110156105795761078d61058b84838151811061078057634e487b7160e01b600052603260045260246000fd5b6020026020010151610e30565b6107a95760405162461bcd60e51b8152600401610566906115dd565b6107da8382815181106107cc57634e487b7160e01b600052603260045260246000fd5b602002602001015183610e6a565b806107e48161175d565b915050610751565b816107f961058b82610e30565b6108155760405162461bcd60e51b8152600401610566906115dd565b6105798383610ef1565b7f000000000000000000000000000000000000000000000000000000000000000081565b428410156108635760405162461bcd60e51b81526004016105669061156f565b6001600160a01b038716600090815260076020526040812080544692917f0000000000000000000000000000000000000000000000000000000000000000918b918b918b91866108b28361175d565b919050558a6040516020016108cc96959493929190611471565b60405160208183030381529060405280519060200120905060007f0000000000000000000000000000000000000000000000000000000000000000831461091b5761091683610d19565b61093d565b7f00000000000000000000000000000000000000000000000000000000000000005b8260405160200161094f929190611427565b60405160208183030381529060405280519060200120905060006001828888886040516000815260200160405260405161098c94939291906114d1565b6020604051602081039080840390855afa1580156109ae573d6000803e3d6000fd5b5050604051601f1901519150506001600160a01b038116158015906109e457508a6001600160a01b0316816001600160a01b0316145b610a005760405162461bcd60e51b81526004016105669061164b565b610a0b8b8b8b610b08565b505050505050505050505050565b6001600160a01b03918216600090815260036020908152604080832093909416825291909152205490565b81610a5161058b82610e30565b610a6d5760405162461bcd60e51b8152600401610566906115dd565b6105798383611065565b60005b825181101561057957610aa961058b84838151811061078057634e487b7160e01b600052603260045260246000fd5b610ac55760405162461bcd60e51b8152600401610566906115dd565b610af6838281518110610ae857634e487b7160e01b600052603260045260246000fd5b602002602001015183611065565b80610b008161175d565b915050610a7a565b6001600160a01b0380841660008181526003602090815260408083209487168084529490915280822085905551909291907f8c5be1e5ebec7d5bd14f71427d1e84f3dd0314c0f7b2291e5b200ac8c7c3b92590610b66908690611468565b60405180910390a35060019392505050565b7fffffffff0000000000000000000000000000000000000000000000000000000082166000908152602081815260408083206001600160a01b038516845290915290205460ff1692915050565b60006001600160a01b0383163314610c53576001600160a01b03831660009081526003602090815260408083203384529091529020547fffffffffffffffffffffffffffffffffffffffffffffffffffffffffffffffff8114610c515782811015610c425760405162461bcd60e51b8152600401610566906115a6565b610c4f8433858403610b08565b505b505b50600192915050565b6001600160a01b038316600090815260026020526040812054821115610c945760405162461bcd60e51b815260040161056690611614565b6001600160a01b038085166000908152600260205260408082208054869003905591851681522054610cc790839061170a565b6001600160a01b0380851660008181526002602052604090819020939093559151908616907fddf252ad1be2c89b69c2b068fc378daa952ba7f163c4a11628f55a4df523b3ef90610b66908690611468565b60007f8b73c3c69bb8fe3d512ecc4cf759cc79239f7b179b0ffacaa9a75d522b39400f6004604051610d4b919061138c565b6040518091039020610d5b6105b7565b8051602091820120604051610d7694939287913091016114a5565b604051602081830303815290604052805190602001209050919050565b6001600160a01b038216600090815260026020526040812054610db790839061170a565b6001600160a01b038416600090815260026020526040902055600154610dde90839061170a565b6001556040516001600160a01b038416906000907fddf252ad1be2c89b69c2b068fc378daa952ba7f163c4a11628f55a4df523b3ef90610e1f908690611468565b60405180910390a350600192915050565b7fffffffff000000000000000000000000000000000000000000000000000000001660009081526020819052604090206001015460e01b90565b610e748282610b78565b15610641577fffffffff0000000000000000000000000000000000000000000000000000000082166000818152602081815260408083206001600160a01b0386168085529252808320805460ff1916905551339391927f4ddc7b757e7bdd7254a9cd39452d307a52761bc824625c6a33104a075d8099e691a45050565b7fffffffff000000000000000000000000000000000000000000000000000000008116610f1d83610e30565b7fffffffff000000000000000000000000000000000000000000000000000000001614610641577fffffffff0000000000000000000000000000000000000000000000000000000082811660008181526020819052604080822060010180547fffffffffffffffffffffffffffffffffffffffffffffffffffffffff000000001660e087901c17905551928416927fd348e2220a50b4500ec353f6e802d2f14dd1b5d6786148fd1bbcc570bf92d4739190a35050565b6001600160a01b03821660009081526002602052604081205482111561100b5760405162461bcd60e51b815260040161056690611614565b6001600160a01b03831660008181526002602052604080822080548690039055600180548690039055519091907fddf252ad1be2c89b69c2b068fc378daa952ba7f163c4a11628f55a4df523b3ef90610e1f908690611468565b61106f8282610b78565b610641577fffffffff0000000000000000000000000000000000000000000000000000000082166000818152602081815260408083206001600160a01b0386168085529252808320805460ff1916600117905551339391927fe6231789d19137da31d0550f4ba9ee379020a8cfb64cb79bf1790c996d2e616591a45050565b80356001600160a01b038116811461065857600080fd5b80357fffffffff000000000000000000000000000000000000000000000000000000008116811461065857600080fd5b600060208284031215611146578081fd5b610456826110ee565b60008060408385031215611161578081fd5b61116a836110ee565b9150611178602084016110ee565b90509250929050565b600080600060608486031215611195578081fd5b61119e846110ee565b92506111ac602085016110ee565b9150604084013590509250925092565b600080600080600080600060e0888a0312156111d6578283fd5b6111df886110ee565b96506111ed602089016110ee565b95506040880135945060608801359350608088013560ff81168114611210578384fd5b9699959850939692959460a0840135945060c09093013592915050565b6000806040838503121561123f578182fd5b611248836110ee565b946020939093013593505050565b60008060408385031215611268578182fd5b823567ffffffffffffffff8082111561127f578384fd5b818501915085601f830112611292578384fd5b81356020828211156112a6576112a66117ac565b808202604051601f19603f830116810181811086821117156112ca576112ca6117ac565b604052838152828101945085830182870184018b10156112e8578889fd5b8896505b84871015611311576112fd81611105565b8652600196909601959483019483016112ec565b50965061132190508782016110ee565b9450505050509250929050565b60006020828403121561133f578081fd5b61045682611105565b6000806040838503121561135a578182fd5b61116a83611105565b60008060408385031215611375578182fd5b61137e83611105565b915061117860208401611105565b81546000908190600281046001808316806113a857607f831692505b60208084108214156113c857634e487b7160e01b87526022600452602487fd5b8180156113dc57600181146113ed57611419565b60ff19861689528489019650611419565b6113f68a6116fe565b885b868110156114115781548b8201529085019083016113f8565b505084890196505b509498975050505050505050565b7f190100000000000000000000000000000000000000000000000000000000000081526002810192909252602282015260420190565b901515815260200190565b90815260200190565b9586526001600160a01b0394851660208701529290931660408501526060840152608083019190915260a082015260c00190565b9485526020850193909352604084019190915260608301526001600160a01b0316608082015260a00190565b93845260ff9290921660208401526040830152606082015260800190565b7fffffffff0000000000000000000000000000000000000000000000000000000091909116815260200190565b6000602080835283518082850152825b818110156115485785810183015185820160400152820161152c565b818111156115595783604083870101525b50601f01601f1916929092016040019392505050565b6020808252601d908201527f45524332305065726d69743a206578706972656420646561646c696e65000000604082015260600190565b6020808252601c908201527f45524332303a20496e73756666696369656e7420617070726f76616c00000000604082015260600190565b6020808252600a908201527f4f6e6c792061646d696e00000000000000000000000000000000000000000000604082015260600190565b6020808252601b908201527f45524332303a20496e73756666696369656e742062616c616e63650000000000604082015260600190565b6020808252601e908201527f45524332305065726d69743a20696e76616c6964207369676e61747572650000604082015260600190565b60208082526016908201527f52656e6f756e6365206f6e6c7920666f722073656c6600000000000000000000604082015260600190565b6020808252600d908201527f4163636573732064656e69656400000000000000000000000000000000000000604082015260600190565b60ff91909116815260200190565b60009081526020902090565b6000821982111561171d5761171d611796565b500190565b60028104600182168061173657607f821691505b6020821081141561175757634e487b7160e01b600052602260045260246000fd5b50919050565b60007fffffffffffffffffffffffffffffffffffffffffffffffffffffffffffffffff82141561178f5761178f611796565b5060010190565b634e487b7160e01b600052601160045260246000fd5b634e487b7160e01b600052604160045260246000fdfea264697066735822122041388b1faf219081cbc3aebc846959a41faa75e91c750e9822777f650fec9e8864736f6c63430008010033",
  "linkReferences": {},
  "deployedLinkReferences": {}
}