{
  "_format": "hh-sol-artifact-1",
  "contractName": "MockYieldSource",
  "sourceName": "contracts/test/MockYieldSource.sol",
  "abi": [
    {
      "inputs": [
        {
          "internalType": "string",
          "name": "_name",
          "type": "string"
        },
        {
          "internalType": "string",
          "name": "_symbol",
          "type": "string"
        }
      ],
      "stateMutability": "nonpayable",
      "type": "constructor"
    },
    {
      "anonymous": false,
      "inputs": [
        {
          "indexed": true,
          "internalType": "address",
          "name": "owner",
          "type": "address"
        },
        {
          "indexed": true,
          "internalType": "address",
          "name": "spender",
          "type": "address"
        },
        {
          "indexed": false,
          "internalType": "uint256",
          "name": "value",
          "type": "uint256"
        }
      ],
      "name": "Approval",
      "type": "event"
    },
    {
      "anonymous": false,
      "inputs": [
        {
          "indexed": true,
          "internalType": "address",
          "name": "from",
          "type": "address"
        },
        {
          "indexed": true,
          "internalType": "address",
          "name": "to",
          "type": "address"
        },
        {
          "indexed": false,
          "internalType": "uint256",
          "name": "value",
          "type": "uint256"
        }
      ],
      "name": "Transfer",
      "type": "event"
    },
    {
      "inputs": [
        {
          "internalType": "address",
          "name": "owner",
          "type": "address"
        },
        {
          "internalType": "address",
          "name": "spender",
          "type": "address"
        }
      ],
      "name": "allowance",
      "outputs": [
        {
          "internalType": "uint256",
          "name": "",
          "type": "uint256"
        }
      ],
      "stateMutability": "view",
      "type": "function"
    },
    {
      "inputs": [
        {
          "internalType": "address",
          "name": "spender",
          "type": "address"
        },
        {
          "internalType": "uint256",
          "name": "amount",
          "type": "uint256"
        }
      ],
      "name": "approve",
      "outputs": [
        {
          "internalType": "bool",
          "name": "",
          "type": "bool"
        }
      ],
      "stateMutability": "nonpayable",
      "type": "function"
    },
    {
      "inputs": [
        {
          "internalType": "address",
          "name": "account",
          "type": "address"
        }
      ],
      "name": "balanceOf",
      "outputs": [
        {
          "internalType": "uint256",
          "name": "",
          "type": "uint256"
        }
      ],
      "stateMutability": "view",
      "type": "function"
    },
    {
      "inputs": [
        {
          "internalType": "address",
          "name": "addr",
          "type": "address"
        }
      ],
      "name": "balanceOfToken",
      "outputs": [
        {
          "internalType": "uint256",
          "name": "",
          "type": "uint256"
        }
      ],
      "stateMutability": "view",
      "type": "function"
    },
    {
      "inputs": [],
      "name": "decimals",
      "outputs": [
        {
          "internalType": "uint8",
          "name": "",
          "type": "uint8"
        }
      ],
      "stateMutability": "view",
      "type": "function"
    },
    {
      "inputs": [
        {
          "internalType": "address",
          "name": "spender",
          "type": "address"
        },
        {
          "internalType": "uint256",
          "name": "subtractedValue",
          "type": "uint256"
        }
      ],
      "name": "decreaseAllowance",
      "outputs": [
        {
          "internalType": "bool",
          "name": "",
          "type": "bool"
        }
      ],
      "stateMutability": "nonpayable",
      "type": "function"
    },
    {
      "inputs": [],
      "name": "depositToken",
      "outputs": [
        {
          "internalType": "address",
          "name": "",
          "type": "address"
        }
      ],
      "stateMutability": "view",
      "type": "function"
    },
    {
      "inputs": [
        {
          "internalType": "address",
          "name": "spender",
          "type": "address"
        },
        {
          "internalType": "uint256",
          "name": "addedValue",
          "type": "uint256"
        }
      ],
      "name": "increaseAllowance",
      "outputs": [
        {
          "internalType": "bool",
          "name": "",
          "type": "bool"
        }
      ],
      "stateMutability": "nonpayable",
      "type": "function"
    },
    {
      "inputs": [],
      "name": "name",
      "outputs": [
        {
          "internalType": "string",
          "name": "",
          "type": "string"
        }
      ],
      "stateMutability": "view",
      "type": "function"
    },
    {
      "inputs": [
        {
          "internalType": "uint256",
          "name": "amount",
          "type": "uint256"
        }
      ],
      "name": "redeemToken",
      "outputs": [
        {
          "internalType": "uint256",
          "name": "",
          "type": "uint256"
        }
      ],
      "stateMutability": "nonpayable",
      "type": "function"
    },
    {
      "inputs": [
        {
          "internalType": "uint256",
          "name": "shares",
          "type": "uint256"
        }
      ],
      "name": "sharesToTokens",
      "outputs": [
        {
          "internalType": "uint256",
          "name": "",
          "type": "uint256"
        }
      ],
      "stateMutability": "view",
      "type": "function"
    },
    {
      "inputs": [
        {
          "internalType": "uint256",
          "name": "amount",
          "type": "uint256"
        },
        {
          "internalType": "address",
          "name": "to",
          "type": "address"
        }
      ],
      "name": "supplyTokenTo",
      "outputs": [],
      "stateMutability": "nonpayable",
      "type": "function"
    },
    {
      "inputs": [],
      "name": "symbol",
      "outputs": [
        {
          "internalType": "string",
          "name": "",
          "type": "string"
        }
      ],
      "stateMutability": "view",
      "type": "function"
    },
    {
      "inputs": [
        {
          "internalType": "uint256",
          "name": "tokens",
          "type": "uint256"
        }
      ],
      "name": "tokensToShares",
      "outputs": [
        {
          "internalType": "uint256",
          "name": "",
          "type": "uint256"
        }
      ],
      "stateMutability": "view",
      "type": "function"
    },
    {
      "inputs": [],
      "name": "totalSupply",
      "outputs": [
        {
          "internalType": "uint256",
          "name": "",
          "type": "uint256"
        }
      ],
      "stateMutability": "view",
      "type": "function"
    },
    {
      "inputs": [
        {
          "internalType": "address",
          "name": "recipient",
          "type": "address"
        },
        {
          "internalType": "uint256",
          "name": "amount",
          "type": "uint256"
        }
      ],
      "name": "transfer",
      "outputs": [
        {
          "internalType": "bool",
          "name": "",
          "type": "bool"
        }
      ],
      "stateMutability": "nonpayable",
      "type": "function"
    },
    {
      "inputs": [
        {
          "internalType": "address",
          "name": "sender",
          "type": "address"
        },
        {
          "internalType": "address",
          "name": "recipient",
          "type": "address"
        },
        {
          "internalType": "uint256",
          "name": "amount",
          "type": "uint256"
        }
      ],
      "name": "transferFrom",
      "outputs": [
        {
          "internalType": "bool",
          "name": "",
          "type": "bool"
        }
      ],
      "stateMutability": "nonpayable",
      "type": "function"
    },
    {
      "inputs": [
        {
          "internalType": "uint256",
          "name": "amount",
          "type": "uint256"
        }
      ],
      "name": "yield",
      "outputs": [],
      "stateMutability": "nonpayable",
      "type": "function"
    }
  ],
  "bytecode": "0x60806040523480156200001157600080fd5b50604051620024de380380620024de833981016040819052620000349162000248565b60405180604001604052806005815260200164165251531160da1b8152506040518060400160405280600381526020016216531160ea1b81525081600390805190602001906200008692919062000103565b5080516200009c90600490602084019062000103565b5050508181604051620000af9062000192565b620000bc929190620002e0565b604051809103906000f080158015620000d9573d6000803e3d6000fd5b50600580546001600160a01b0319166001600160a01b039290921691909117905550620003989050565b828054620001119062000345565b90600052602060002090601f01602090048101928262000135576000855562000180565b82601f106200015057805160ff191683800117855562000180565b8280016001018555821562000180579182015b828111156200018057825182559160200191906001019062000163565b506200018e929150620001a0565b5090565b610f7d806200156183390190565b5b808211156200018e5760008155600101620001a1565b600082601f830112620001c957600080fd5b81516001600160401b0380821115620001e657620001e662000382565b604051601f8301601f19908116603f0116810190828211818310171562000211576200021162000382565b816040528381528660208588010111156200022b57600080fd5b6200023e84602083016020890162000312565b9695505050505050565b600080604083850312156200025c57600080fd5b82516001600160401b03808211156200027457600080fd5b6200028286838701620001b7565b935060208501519150808211156200029957600080fd5b50620002a885828601620001b7565b9150509250929050565b60008151808452620002cc81602086016020860162000312565b601f01601f19169290920160200192915050565b604081526000620002f56040830185620002b2565b8281036020840152620003098185620002b2565b95945050505050565b60005b838110156200032f57818101518382015260200162000315565b838111156200033f576000848401525b50505050565b600181811c908216806200035a57607f821691505b602082108114156200037c57634e487b7160e01b600052602260045260246000fd5b50919050565b634e487b7160e01b600052604160045260246000fd5b6111b980620003a86000396000f3fe608060405234801561001057600080fd5b50600436106101365760003560e01c8063765287ef116100b2578063a9059cbb11610081578063c89039c511610066578063c89039c51461027b578063dd62ed3e14610296578063f3044ac7146102cf57600080fd5b8063a9059cbb14610255578063b99152d01461026857600080fd5b8063765287ef1461021257806387a6eeef1461022757806395d89b411461023a578063a457c2d71461024257600080fd5b806323b872dd11610109578063313ce567116100ee578063313ce567146101c757806339509351146101d657806370a08231146101e957600080fd5b806323b872dd146101a157806327def4fd146101b457600080fd5b8063013054c21461013b57806306fdde0314610161578063095ea7b31461017657806318160ddd14610199575b600080fd5b61014e610149366004610fe2565b6102e2565b6040519081526020015b60405180910390f35b61016961039f565b6040516101589190611037565b610189610184366004610f96565b610431565b6040519015158152602001610158565b60025461014e565b6101896101af366004610f5a565b610447565b61014e6101c2366004610fe2565b61050b565b60405160128152602001610158565b6101896101e4366004610f96565b6105da565b61014e6101f7366004610f0c565b6001600160a01b031660009081526020819052604090205490565b610225610220366004610fe2565b610616565b005b610225610235366004611014565b6106b7565b610169610776565b610189610250366004610f96565b610785565b610189610263366004610f96565b610836565b61014e610276366004610f0c565b610843565b6005546040516001600160a01b039091168152602001610158565b61014e6102a4366004610f27565b6001600160a01b03918216600090815260016020908152604080832093909416825291909152205490565b61014e6102dd366004610fe2565b61086b565b6000806102ee8361086b565b90506102fa338261091c565b6005546040517fa9059cbb000000000000000000000000000000000000000000000000000000008152336004820152602481018590526001600160a01b039091169063a9059cbb90604401602060405180830381600087803b15801561035f57600080fd5b505af1158015610373573d6000803e3d6000fd5b505050506040513d601f19601f820116820180604052508101906103979190610fc0565b509192915050565b6060600380546103ae90611138565b80601f01602080910402602001604051908101604052809291908181526020018280546103da90611138565b80156104275780601f106103fc57610100808354040283529160200191610427565b820191906000526020600020905b81548152906001019060200180831161040a57829003601f168201915b5050505050905090565b600061043e338484610aa1565b50600192915050565b6000610454848484610bf9565b6001600160a01b0384166000908152600160209081526040808320338452909152902054828110156104f35760405162461bcd60e51b815260206004820152602860248201527f45524332303a207472616e7366657220616d6f756e742065786365656473206160448201527f6c6c6f77616e636500000000000000000000000000000000000000000000000060648201526084015b60405180910390fd5b6105008533858403610aa1565b506001949350505050565b60008061051760025490565b905080610525575090919050565b6005546040517f70a0823100000000000000000000000000000000000000000000000000000000815230600482015282916001600160a01b0316906370a082319060240160206040518083038186803b15801561058157600080fd5b505afa158015610595573d6000803e3d6000fd5b505050506040513d601f19601f820116820180604052508101906105b99190610ffb565b6105c390856110e4565b6105cd91906110c2565b9392505050565b50919050565b3360008181526001602090815260408083206001600160a01b0387168452909152812054909161043e9185906106119086906110aa565b610aa1565b6005546040517f40c10f19000000000000000000000000000000000000000000000000000000008152306004820152602481018390526001600160a01b03909116906340c10f1990604401602060405180830381600087803b15801561067b57600080fd5b505af115801561068f573d6000803e3d6000fd5b505050506040513d601f19601f820116820180604052508101906106b39190610fc0565b5050565b60006106c28361086b565b6005546040517f23b872dd000000000000000000000000000000000000000000000000000000008152336004820152306024820152604481018690529192506001600160a01b0316906323b872dd90606401602060405180830381600087803b15801561072e57600080fd5b505af1158015610742573d6000803e3d6000fd5b505050506040513d601f19601f820116820180604052508101906107669190610fc0565b506107718282610e11565b505050565b6060600480546103ae90611138565b3360009081526001602090815260408083206001600160a01b03861684529091528120548281101561081f5760405162461bcd60e51b815260206004820152602560248201527f45524332303a2064656372656173656420616c6c6f77616e63652062656c6f7760448201527f207a65726f00000000000000000000000000000000000000000000000000000060648201526084016104ea565b61082c3385858403610aa1565b5060019392505050565b600061043e338484610bf9565b6001600160a01b0381166000908152602081905260408120546108659061050b565b92915050565b6005546040517f70a0823100000000000000000000000000000000000000000000000000000000815230600482015260009182916001600160a01b03909116906370a082319060240160206040518083038186803b1580156108cc57600080fd5b505afa1580156108e0573d6000803e3d6000fd5b505050506040513d601f19601f820116820180604052508101906109049190610ffb565b905080610912575090919050565b806105b960025490565b6001600160a01b0382166109985760405162461bcd60e51b815260206004820152602160248201527f45524332303a206275726e2066726f6d20746865207a65726f2061646472657360448201527f730000000000000000000000000000000000000000000000000000000000000060648201526084016104ea565b6001600160a01b03821660009081526020819052604090205481811015610a275760405162461bcd60e51b815260206004820152602260248201527f45524332303a206275726e20616d6f756e7420657863656564732062616c616e60448201527f636500000000000000000000000000000000000000000000000000000000000060648201526084016104ea565b6001600160a01b0383166000908152602081905260408120838303905560028054849290610a56908490611121565b90915550506040518281526000906001600160a01b038516907fddf252ad1be2c89b69c2b068fc378daa952ba7f163c4a11628f55a4df523b3ef9060200160405180910390a3505050565b6001600160a01b038316610b1c5760405162461bcd60e51b8152602060048201526024808201527f45524332303a20617070726f76652066726f6d20746865207a65726f2061646460448201527f726573730000000000000000000000000000000000000000000000000000000060648201526084016104ea565b6001600160a01b038216610b985760405162461bcd60e51b815260206004820152602260248201527f45524332303a20617070726f766520746f20746865207a65726f20616464726560448201527f737300000000000000000000000000000000000000000000000000000000000060648201526084016104ea565b6001600160a01b0383811660008181526001602090815260408083209487168084529482529182902085905590518481527f8c5be1e5ebec7d5bd14f71427d1e84f3dd0314c0f7b2291e5b200ac8c7c3b925910160405180910390a3505050565b6001600160a01b038316610c755760405162461bcd60e51b815260206004820152602560248201527f45524332303a207472616e736665722066726f6d20746865207a65726f20616460448201527f647265737300000000000000000000000000000000000000000000000000000060648201526084016104ea565b6001600160a01b038216610cf15760405162461bcd60e51b815260206004820152602360248201527f45524332303a207472616e7366657220746f20746865207a65726f206164647260448201527f657373000000000000000000000000000000000000000000000000000000000060648201526084016104ea565b6001600160a01b03831660009081526020819052604090205481811015610d805760405162461bcd60e51b815260206004820152602660248201527f45524332303a207472616e7366657220616d6f756e742065786365656473206260448201527f616c616e6365000000000000000000000000000000000000000000000000000060648201526084016104ea565b6001600160a01b03808516600090815260208190526040808220858503905591851681529081208054849290610db79084906110aa565b92505081905550826001600160a01b0316846001600160a01b03167fddf252ad1be2c89b69c2b068fc378daa952ba7f163c4a11628f55a4df523b3ef84604051610e0391815260200190565b60405180910390a350505050565b6001600160a01b038216610e675760405162461bcd60e51b815260206004820152601f60248201527f45524332303a206d696e7420746f20746865207a65726f20616464726573730060448201526064016104ea565b8060026000828254610e7991906110aa565b90915550506001600160a01b03821660009081526020819052604081208054839290610ea69084906110aa565b90915550506040518181526001600160a01b038316906000907fddf252ad1be2c89b69c2b068fc378daa952ba7f163c4a11628f55a4df523b3ef9060200160405180910390a35050565b80356001600160a01b0381168114610f0757600080fd5b919050565b600060208284031215610f1e57600080fd5b6105cd82610ef0565b60008060408385031215610f3a57600080fd5b610f4383610ef0565b9150610f5160208401610ef0565b90509250929050565b600080600060608486031215610f6f57600080fd5b610f7884610ef0565b9250610f8660208501610ef0565b9150604084013590509250925092565b60008060408385031215610fa957600080fd5b610fb283610ef0565b946020939093013593505050565b600060208284031215610fd257600080fd5b815180151581146105cd57600080fd5b600060208284031215610ff457600080fd5b5035919050565b60006020828403121561100d57600080fd5b5051919050565b6000806040838503121561102757600080fd5b82359150610f5160208401610ef0565b600060208083528351808285015260005b8181101561106457858101830151858201604001528201611048565b81811115611076576000604083870101525b50601f017fffffffffffffffffffffffffffffffffffffffffffffffffffffffffffffffe016929092016040019392505050565b600082198211156110bd576110bd61116d565b500190565b6000826110df57634e487b7160e01b600052601260045260246000fd5b500490565b6000817fffffffffffffffffffffffffffffffffffffffffffffffffffffffffffffffff048311821515161561111c5761111c61116d565b500290565b6000828210156111335761113361116d565b500390565b600181811c9082168061114c57607f821691505b602082108114156105d457634e487b7160e01b600052602260045260246000fd5b634e487b7160e01b600052601160045260246000fdfea26469706673582212202b024cec8e5d4578516f8acc334062127eba981d2f9d6f3995186391599a7e5664736f6c6343000806003360806040523480156200001157600080fd5b5060405162000f7d38038062000f7d8339810160408190526200003491620001cb565b8151829082906200004d9060039060208501906200006e565b508051620000639060049060208401906200006e565b505050505062000288565b8280546200007c9062000235565b90600052602060002090601f016020900481019282620000a05760008555620000eb565b82601f10620000bb57805160ff1916838001178555620000eb565b82800160010185558215620000eb579182015b82811115620000eb578251825591602001919060010190620000ce565b50620000f9929150620000fd565b5090565b5b80821115620000f95760008155600101620000fe565b600082601f8301126200012657600080fd5b81516001600160401b038082111562000143576200014362000272565b604051601f8301601f19908116603f011681019082821181831017156200016e576200016e62000272565b816040528381526020925086838588010111156200018b57600080fd5b600091505b83821015620001af578582018301518183018401529082019062000190565b83821115620001c15760008385830101525b9695505050505050565b60008060408385031215620001df57600080fd5b82516001600160401b0380821115620001f757600080fd5b620002058683870162000114565b935060208501519150808211156200021c57600080fd5b506200022b8582860162000114565b9150509250929050565b600181811c908216806200024a57607f821691505b602082108114156200026c57634e487b7160e01b600052602260045260246000fd5b50919050565b634e487b7160e01b600052604160045260246000fd5b610ce580620002986000396000f3fe608060405234801561001057600080fd5b50600436106100ea5760003560e01c806340c10f191161008c5780639dc29fac116100665780639dc29fac146101d0578063a457c2d7146101e3578063a9059cbb146101f6578063dd62ed3e1461020957600080fd5b806340c10f191461018c57806370a082311461019f57806395d89b41146101c857600080fd5b80631c9c7903116100c85780631c9c79031461014257806323b872dd14610157578063313ce5671461016a578063395093511461017957600080fd5b806306fdde03146100ef578063095ea7b31461010d57806318160ddd14610130575b600080fd5b6100f7610242565b6040516101049190610b8a565b60405180910390f35b61012061011b366004610b60565b6102d4565b6040519015158152602001610104565b6002545b604051908152602001610104565b610155610150366004610b24565b6102ea565b005b610120610165366004610b24565b6102fa565b60405160128152602001610104565b610120610187366004610b60565b6103be565b61012061019a366004610b60565b6103fa565b6101346101ad366004610acf565b6001600160a01b031660009081526020819052604090205490565b6100f7610406565b6101206101de366004610b60565b610415565b6101206101f1366004610b60565b610421565b610120610204366004610b60565b6104d2565b610134610217366004610af1565b6001600160a01b03918216600090815260016020908152604080832093909416825291909152205490565b60606003805461025190610c2c565b80601f016020809104026020016040519081016040528092919081815260200182805461027d90610c2c565b80156102ca5780601f1061029f576101008083540402835291602001916102ca565b820191906000526020600020905b8154815290600101906020018083116102ad57829003601f168201915b5050505050905090565b60006102e13384846104df565b50600192915050565b6102f5838383610637565b505050565b6000610307848484610637565b6001600160a01b0384166000908152600160209081526040808320338452909152902054828110156103a65760405162461bcd60e51b815260206004820152602860248201527f45524332303a207472616e7366657220616d6f756e742065786365656473206160448201527f6c6c6f77616e636500000000000000000000000000000000000000000000000060648201526084015b60405180910390fd5b6103b385338584036104df565b506001949350505050565b3360008181526001602090815260408083206001600160a01b038716845290915281205490916102e19185906103f5908690610bfd565b6104df565b60006102e1838361084f565b60606004805461025190610c2c565b60006102e1838361092e565b3360009081526001602090815260408083206001600160a01b0386168452909152812054828110156104bb5760405162461bcd60e51b815260206004820152602560248201527f45524332303a2064656372656173656420616c6c6f77616e63652062656c6f7760448201527f207a65726f000000000000000000000000000000000000000000000000000000606482015260840161039d565b6104c833858584036104df565b5060019392505050565b60006102e1338484610637565b6001600160a01b03831661055a5760405162461bcd60e51b8152602060048201526024808201527f45524332303a20617070726f76652066726f6d20746865207a65726f2061646460448201527f7265737300000000000000000000000000000000000000000000000000000000606482015260840161039d565b6001600160a01b0382166105d65760405162461bcd60e51b815260206004820152602260248201527f45524332303a20617070726f766520746f20746865207a65726f20616464726560448201527f7373000000000000000000000000000000000000000000000000000000000000606482015260840161039d565b6001600160a01b0383811660008181526001602090815260408083209487168084529482529182902085905590518481527f8c5be1e5ebec7d5bd14f71427d1e84f3dd0314c0f7b2291e5b200ac8c7c3b925910160405180910390a3505050565b6001600160a01b0383166106b35760405162461bcd60e51b815260206004820152602560248201527f45524332303a207472616e736665722066726f6d20746865207a65726f20616460448201527f6472657373000000000000000000000000000000000000000000000000000000606482015260840161039d565b6001600160a01b03821661072f5760405162461bcd60e51b815260206004820152602360248201527f45524332303a207472616e7366657220746f20746865207a65726f206164647260448201527f6573730000000000000000000000000000000000000000000000000000000000606482015260840161039d565b6001600160a01b038316600090815260208190526040902054818110156107be5760405162461bcd60e51b815260206004820152602660248201527f45524332303a207472616e7366657220616d6f756e742065786365656473206260448201527f616c616e63650000000000000000000000000000000000000000000000000000606482015260840161039d565b6001600160a01b038085166000908152602081905260408082208585039055918516815290812080548492906107f5908490610bfd565b92505081905550826001600160a01b0316846001600160a01b03167fddf252ad1be2c89b69c2b068fc378daa952ba7f163c4a11628f55a4df523b3ef8460405161084191815260200190565b60405180910390a350505050565b6001600160a01b0382166108a55760405162461bcd60e51b815260206004820152601f60248201527f45524332303a206d696e7420746f20746865207a65726f206164647265737300604482015260640161039d565b80600260008282546108b79190610bfd565b90915550506001600160a01b038216600090815260208190526040812080548392906108e4908490610bfd565b90915550506040518181526001600160a01b038316906000907fddf252ad1be2c89b69c2b068fc378daa952ba7f163c4a11628f55a4df523b3ef9060200160405180910390a35050565b6001600160a01b0382166109aa5760405162461bcd60e51b815260206004820152602160248201527f45524332303a206275726e2066726f6d20746865207a65726f2061646472657360448201527f7300000000000000000000000000000000000000000000000000000000000000606482015260840161039d565b6001600160a01b03821660009081526020819052604090205481811015610a395760405162461bcd60e51b815260206004820152602260248201527f45524332303a206275726e20616d6f756e7420657863656564732062616c616e60448201527f6365000000000000000000000000000000000000000000000000000000000000606482015260840161039d565b6001600160a01b0383166000908152602081905260408120838303905560028054849290610a68908490610c15565b90915550506040518281526000906001600160a01b038516907fddf252ad1be2c89b69c2b068fc378daa952ba7f163c4a11628f55a4df523b3ef9060200160405180910390a3505050565b80356001600160a01b0381168114610aca57600080fd5b919050565b600060208284031215610ae157600080fd5b610aea82610ab3565b9392505050565b60008060408385031215610b0457600080fd5b610b0d83610ab3565b9150610b1b60208401610ab3565b90509250929050565b600080600060608486031215610b3957600080fd5b610b4284610ab3565b9250610b5060208501610ab3565b9150604084013590509250925092565b60008060408385031215610b7357600080fd5b610b7c83610ab3565b946020939093013593505050565b600060208083528351808285015260005b81811015610bb757858101830151858201604001528201610b9b565b81811115610bc9576000604083870101525b50601f017fffffffffffffffffffffffffffffffffffffffffffffffffffffffffffffffe016929092016040019392505050565b60008219821115610c1057610c10610c80565b500190565b600082821015610c2757610c27610c80565b500390565b600181811c90821680610c4057607f821691505b60208210811415610c7a577f4e487b7100000000000000000000000000000000000000000000000000000000600052602260045260246000fd5b50919050565b7f4e487b7100000000000000000000000000000000000000000000000000000000600052601160045260246000fdfea264697066735822122055ce5ae97178155d52310cfb771f38e9d5d128aee48301a069b0ac7723c1849d64736f6c63430008060033",
  "linkReferences": {},
  "deployedLinkReferences": {}
}