{
  "_format": "hh-sol-artifact-1",
  "contractName": "MockFeeDistributor",
  "sourceName": "contracts/testing/MockFeeDistributor.sol",
  "abi": [
    {
      "inputs": [
        {
          "internalType": "address",
          "name": "",
          "type": "address"
        }
      ],
      "name": "claim",
      "outputs": [
        {
          "internalType": "uint256",
          "name": "",
          "type": "uint256"
        }
      ],
      "stateMutability": "view",
      "type": "function"
    },
    {
      "inputs": [
        {
          "internalType": "uint256",
          "name": "_fee",
          "type": "uint256"
        }
      ],
      "name": "setFeeToClaim",
      "outputs": [],
      "stateMutability": "nonpayable",
      "type": "function"
    }
  ],
  "bytecode": "0x6080604052606460005534801561001557600080fd5b5060e9806100246000396000f3fe6080604052348015600f57600080fd5b506004361060325760003560e01c80631cdd178a1460375780631e83409a146049575b600080fd5b60476042366004606d565b600055565b005b605b60543660046085565b5060005490565b60405190815260200160405180910390f35b600060208284031215607e57600080fd5b5035919050565b600060208284031215609657600080fd5b81356001600160a01b038116811460ac57600080fd5b939250505056fea26469706673582212203ff47b1ae0c8545f7506ece80fcd0e1f70a1222c83b0b8d9ea3f8e49b53f521764736f6c63430008090033",
  "linkReferences": {},
  "deployedLinkReferences": {}
}