{
  "_format": "hh-sol-artifact-1",
  "contractName": "MockLpToken",
  "sourceName": "contracts/testing/MockLpToken.sol",
  "abi": [
    {
      "anonymous": false,
      "inputs": [
        {
          "indexed": true,
          "internalType": "address",
          "name": "owner",
          "type": "address"
        },
        {
          "indexed": true,
          "internalType": "address",
          "name": "spender",
          "type": "address"
        },
        {
          "indexed": false,
          "internalType": "uint256",
          "name": "value",
          "type": "uint256"
        }
      ],
      "name": "Approval",
      "type": "event"
    },
    {
      "anonymous": false,
      "inputs": [
        {
          "indexed": true,
          "internalType": "address",
          "name": "from",
          "type": "address"
        },
        {
          "indexed": true,
          "internalType": "address",
          "name": "to",
          "type": "address"
        },
        {
          "indexed": false,
          "internalType": "uint256",
          "name": "value",
          "type": "uint256"
        }
      ],
      "name": "Transfer",
      "type": "event"
    },
    {
      "inputs": [
        {
          "internalType": "address",
          "name": "owner",
          "type": "address"
        },
        {
          "internalType": "address",
          "name": "spender",
          "type": "address"
        }
      ],
      "name": "allowance",
      "outputs": [
        {
          "internalType": "uint256",
          "name": "",
          "type": "uint256"
        }
      ],
      "stateMutability": "view",
      "type": "function"
    },
    {
      "inputs": [
        {
          "internalType": "address",
          "name": "spender",
          "type": "address"
        },
        {
          "internalType": "uint256",
          "name": "amount",
          "type": "uint256"
        }
      ],
      "name": "approve",
      "outputs": [
        {
          "internalType": "bool",
          "name": "",
          "type": "bool"
        }
      ],
      "stateMutability": "nonpayable",
      "type": "function"
    },
    {
      "inputs": [
        {
          "internalType": "address",
          "name": "account",
          "type": "address"
        }
      ],
      "name": "balanceOf",
      "outputs": [
        {
          "internalType": "uint256",
          "name": "",
          "type": "uint256"
        }
      ],
      "stateMutability": "view",
      "type": "function"
    },
    {
      "inputs": [
        {
          "internalType": "uint256",
          "name": "amount",
          "type": "uint256"
        }
      ],
      "name": "burn",
      "outputs": [],
      "stateMutability": "nonpayable",
      "type": "function"
    },
    {
      "inputs": [
        {
          "internalType": "address",
          "name": "owner",
          "type": "address"
        },
        {
          "internalType": "uint256",
          "name": "burnAmount",
          "type": "uint256"
        }
      ],
      "name": "burn",
      "outputs": [
        {
          "internalType": "uint256",
          "name": "",
          "type": "uint256"
        }
      ],
      "stateMutability": "nonpayable",
      "type": "function"
    },
    {
      "inputs": [],
      "name": "decimals",
      "outputs": [
        {
          "internalType": "uint8",
          "name": "",
          "type": "uint8"
        }
      ],
      "stateMutability": "view",
      "type": "function"
    },
    {
      "inputs": [
        {
          "internalType": "address",
          "name": "spender",
          "type": "address"
        },
        {
          "internalType": "uint256",
          "name": "subtractedValue",
          "type": "uint256"
        }
      ],
      "name": "decreaseAllowance",
      "outputs": [
        {
          "internalType": "bool",
          "name": "",
          "type": "bool"
        }
      ],
      "stateMutability": "nonpayable",
      "type": "function"
    },
    {
      "inputs": [
        {
          "internalType": "address",
          "name": "spender",
          "type": "address"
        },
        {
          "internalType": "uint256",
          "name": "addedValue",
          "type": "uint256"
        }
      ],
      "name": "increaseAllowance",
      "outputs": [
        {
          "internalType": "bool",
          "name": "",
          "type": "bool"
        }
      ],
      "stateMutability": "nonpayable",
      "type": "function"
    },
    {
      "inputs": [
        {
          "internalType": "string",
          "name": "name_",
          "type": "string"
        },
        {
          "internalType": "string",
          "name": "symbol_",
          "type": "string"
        },
        {
          "internalType": "uint8",
          "name": "decimals_",
          "type": "uint8"
        },
        {
          "internalType": "address",
          "name": "_minter",
          "type": "address"
        }
      ],
      "name": "initialize",
      "outputs": [
        {
          "internalType": "bool",
          "name": "",
          "type": "bool"
        }
      ],
      "stateMutability": "nonpayable",
      "type": "function"
    },
    {
      "inputs": [
        {
          "internalType": "address",
          "name": "account",
          "type": "address"
        },
        {
          "internalType": "uint256",
          "name": "amount",
          "type": "uint256"
        }
      ],
      "name": "mint",
      "outputs": [],
      "stateMutability": "nonpayable",
      "type": "function"
    },
    {
      "inputs": [
        {
          "internalType": "address",
          "name": "account",
          "type": "address"
        },
        {
          "internalType": "uint256",
          "name": "mintAmount",
          "type": "uint256"
        }
      ],
      "name": "mint_for_testing",
      "outputs": [],
      "stateMutability": "nonpayable",
      "type": "function"
    },
    {
      "inputs": [],
      "name": "minter",
      "outputs": [
        {
          "internalType": "address",
          "name": "",
          "type": "address"
        }
      ],
      "stateMutability": "view",
      "type": "function"
    },
    {
      "inputs": [],
      "name": "name",
      "outputs": [
        {
          "internalType": "string",
          "name": "",
          "type": "string"
        }
      ],
      "stateMutability": "view",
      "type": "function"
    },
    {
      "inputs": [],
      "name": "symbol",
      "outputs": [
        {
          "internalType": "string",
          "name": "",
          "type": "string"
        }
      ],
      "stateMutability": "view",
      "type": "function"
    },
    {
      "inputs": [],
      "name": "totalSupply",
      "outputs": [
        {
          "internalType": "uint256",
          "name": "",
          "type": "uint256"
        }
      ],
      "stateMutability": "view",
      "type": "function"
    },
    {
      "inputs": [
        {
          "internalType": "address",
          "name": "to",
          "type": "address"
        },
        {
          "internalType": "uint256",
          "name": "amount",
          "type": "uint256"
        }
      ],
      "name": "transfer",
      "outputs": [
        {
          "internalType": "bool",
          "name": "",
          "type": "bool"
        }
      ],
      "stateMutability": "nonpayable",
      "type": "function"
    },
    {
      "inputs": [
        {
          "internalType": "address",
          "name": "from",
          "type": "address"
        },
        {
          "internalType": "address",
          "name": "to",
          "type": "address"
        },
        {
          "internalType": "uint256",
          "name": "amount",
          "type": "uint256"
        }
      ],
      "name": "transferFrom",
      "outputs": [
        {
          "internalType": "bool",
          "name": "",
          "type": "bool"
        }
      ],
      "stateMutability": "nonpayable",
      "type": "function"
    }
  ],
  "bytecode": "0x608060405234801561001057600080fd5b50611198806100206000396000f3fe608060405234801561001057600080fd5b506004361061010b5760003560e01c806342966c68116100a25780639dc29fac116100715780639dc29fac1461023a578063a457c2d71461024d578063a9059cbb14610260578063dd62ed3e14610273578063de7ea79d146102ac57600080fd5b806342966c68146101e35780636dafc3ab146101f657806370a082311461020957806395d89b411461023257600080fd5b806323b872dd116100de57806323b872dd14610193578063313ce567146101a657806339509351146101bb57806340c10f19146101ce57600080fd5b806306fdde0314610110578063075461721461012e578063095ea7b31461015e57806318160ddd14610181575b600080fd5b6101186102bf565b6040516101259190610e28565b60405180910390f35b6065546101469061010090046001600160a01b031681565b6040516001600160a01b039091168152602001610125565b61017161016c366004610e99565b610351565b6040519015158152602001610125565b6035545b604051908152602001610125565b6101716101a1366004610ec3565b610369565b60655460405160ff9091168152602001610125565b6101716101c9366004610e99565b61038d565b6101e16101dc366004610e99565b6103cc565b005b6101e16101f1366004610eff565b61043f565b6101e1610204366004610e99565b61044c565b610185610217366004610f18565b6001600160a01b031660009081526033602052604090205490565b610118610456565b610185610248366004610e99565b610465565b61017161025b366004610e99565b6104d3565b61017161026e366004610e99565b610565565b610185610281366004610f3a565b6001600160a01b03918216600090815260346020908152604080832093909416825291909152205490565b6101716102ba366004611010565b610573565b6060603680546102ce9061109d565b80601f01602080910402602001604051908101604052809291908181526020018280546102fa9061109d565b80156103475780601f1061031c57610100808354040283529160200191610347565b820191906000526020600020905b81548152906001019060200180831161032a57829003601f168201915b5050505050905090565b60003361035f8185856106c3565b5060019392505050565b6000336103778582856107e8565b61038285858561087a565b506001949350505050565b3360008181526034602090815260408083206001600160a01b038716845290915281205490919061035f90829086906103c79087906110e8565b6106c3565b606554604080518082019091526013815272756e617574686f72697a65642061636365737360681b60208201529061010090046001600160a01b031633146104305760405162461bcd60e51b81526004016104279190610e28565b60405180910390fd5b5061043b8282610a53565b5050565b6104493382610b3e565b50565b61043b8282610a53565b6060603780546102ce9061109d565b606554604080518082019091526013815272756e617574686f72697a65642061636365737360681b602082015260009161010090046001600160a01b031633146104c25760405162461bcd60e51b81526004016104279190610e28565b506104cd8383610b3e565b50919050565b3360008181526034602090815260408083206001600160a01b0387168452909152812054909190838110156105585760405162461bcd60e51b815260206004820152602560248201527f45524332303a2064656372656173656420616c6c6f77616e63652062656c6f77604482015264207a65726f60d81b6064820152608401610427565b61038282868684036106c3565b60003361035f81858561087a565b60008054610100900460ff1661058f5760005460ff1615610593565b303b155b6105f65760405162461bcd60e51b815260206004820152602e60248201527f496e697469616c697a61626c653a20636f6e747261637420697320616c72656160448201526d191e481a5b9a5d1a585b1a5e995960921b6064820152608401610427565b600054610100900460ff16158015610618576000805461ffff19166101011790555b60408051808201909152601881527f7a65726f2061646472657373206e6f7420616c6c6f776564000000000000000060208201526001600160a01b0384166106735760405162461bcd60e51b81526004016104279190610e28565b5061067e8686610c95565b606580546001600160a01b038516610100026001600160a81b031990911660ff8716171790556001915080156106ba576000805461ff00191690555b50949350505050565b6001600160a01b0383166107255760405162461bcd60e51b8152602060048201526024808201527f45524332303a20617070726f76652066726f6d20746865207a65726f206164646044820152637265737360e01b6064820152608401610427565b6001600160a01b0382166107865760405162461bcd60e51b815260206004820152602260248201527f45524332303a20617070726f766520746f20746865207a65726f206164647265604482015261737360f01b6064820152608401610427565b6001600160a01b0383811660008181526034602090815260408083209487168084529482529182902085905590518481527f8c5be1e5ebec7d5bd14f71427d1e84f3dd0314c0f7b2291e5b200ac8c7c3b92591015b60405180910390a3505050565b6001600160a01b03838116600090815260346020908152604080832093861683529290522054600019811461087457818110156108675760405162461bcd60e51b815260206004820152601d60248201527f45524332303a20696e73756666696369656e7420616c6c6f77616e63650000006044820152606401610427565b61087484848484036106c3565b50505050565b6001600160a01b0383166108de5760405162461bcd60e51b815260206004820152602560248201527f45524332303a207472616e736665722066726f6d20746865207a65726f206164604482015264647265737360d81b6064820152608401610427565b6001600160a01b0382166109405760405162461bcd60e51b815260206004820152602360248201527f45524332303a207472616e7366657220746f20746865207a65726f206164647260448201526265737360e81b6064820152608401610427565b61094b838383610cc6565b6001600160a01b038316600090815260336020526040902054818110156109c35760405162461bcd60e51b815260206004820152602660248201527f45524332303a207472616e7366657220616d6f756e7420657863656564732062604482015265616c616e636560d01b6064820152608401610427565b6001600160a01b038085166000908152603360205260408082208585039055918516815290812080548492906109fa9084906110e8565b92505081905550826001600160a01b0316846001600160a01b03167fddf252ad1be2c89b69c2b068fc378daa952ba7f163c4a11628f55a4df523b3ef84604051610a4691815260200190565b60405180910390a3610874565b6001600160a01b038216610aa95760405162461bcd60e51b815260206004820152601f60248201527f45524332303a206d696e7420746f20746865207a65726f2061646472657373006044820152606401610427565b610ab560008383610cc6565b8060356000828254610ac791906110e8565b90915550506001600160a01b03821660009081526033602052604081208054839290610af49084906110e8565b90915550506040518181526001600160a01b038316906000907fddf252ad1be2c89b69c2b068fc378daa952ba7f163c4a11628f55a4df523b3ef9060200160405180910390a35050565b6001600160a01b038216610b9e5760405162461bcd60e51b815260206004820152602160248201527f45524332303a206275726e2066726f6d20746865207a65726f206164647265736044820152607360f81b6064820152608401610427565b610baa82600083610cc6565b6001600160a01b03821660009081526033602052604090205481811015610c1e5760405162461bcd60e51b815260206004820152602260248201527f45524332303a206275726e20616d6f756e7420657863656564732062616c616e604482015261636560f01b6064820152608401610427565b6001600160a01b0383166000908152603360205260408120838303905560358054849290610c4d908490611100565b90915550506040518281526000906001600160a01b038516907fddf252ad1be2c89b69c2b068fc378daa952ba7f163c4a11628f55a4df523b3ef906020016107db565b505050565b600054610100900460ff16610cbc5760405162461bcd60e51b815260040161042790611117565b61043b8282610d45565b8015610c9057606554604051631e36c19360e31b81526001600160a01b0385811660048301528481166024830152604482018490526101009092049091169063f1b60c9890606401600060405180830381600087803b158015610d2857600080fd5b505af1158015610d3c573d6000803e3d6000fd5b50505050505050565b600054610100900460ff16610d6c5760405162461bcd60e51b815260040161042790611117565b8151610d7f906036906020850190610d8f565b508051610c909060379060208401905b828054610d9b9061109d565b90600052602060002090601f016020900481019282610dbd5760008555610e03565b82601f10610dd657805160ff1916838001178555610e03565b82800160010185558215610e03579182015b82811115610e03578251825591602001919060010190610de8565b50610e0f929150610e13565b5090565b5b80821115610e0f5760008155600101610e14565b600060208083528351808285015260005b81811015610e5557858101830151858201604001528201610e39565b81811115610e67576000604083870101525b50601f01601f1916929092016040019392505050565b80356001600160a01b0381168114610e9457600080fd5b919050565b60008060408385031215610eac57600080fd5b610eb583610e7d565b946020939093013593505050565b600080600060608486031215610ed857600080fd5b610ee184610e7d565b9250610eef60208501610e7d565b9150604084013590509250925092565b600060208284031215610f1157600080fd5b5035919050565b600060208284031215610f2a57600080fd5b610f3382610e7d565b9392505050565b60008060408385031215610f4d57600080fd5b610f5683610e7d565b9150610f6460208401610e7d565b90509250929050565b634e487b7160e01b600052604160045260246000fd5b600082601f830112610f9457600080fd5b813567ffffffffffffffff80821115610faf57610faf610f6d565b604051601f8301601f19908116603f01168101908282118183101715610fd757610fd7610f6d565b81604052838152866020858801011115610ff057600080fd5b836020870160208301376000602085830101528094505050505092915050565b6000806000806080858703121561102657600080fd5b843567ffffffffffffffff8082111561103e57600080fd5b61104a88838901610f83565b9550602087013591508082111561106057600080fd5b5061106d87828801610f83565b935050604085013560ff8116811461108457600080fd5b915061109260608601610e7d565b905092959194509250565b600181811c908216806110b157607f821691505b602082108114156104cd57634e487b7160e01b600052602260045260246000fd5b634e487b7160e01b600052601160045260246000fd5b600082198211156110fb576110fb6110d2565b500190565b600082821015611112576111126110d2565b500390565b6020808252602b908201527f496e697469616c697a61626c653a20636f6e7472616374206973206e6f74206960408201526a6e697469616c697a696e6760a81b60608201526080019056fea26469706673582212207b4b18a8c57d712931ad06fe337e3d9d01f32086cc0361d89940e0eeab317ee664736f6c63430008090033",
  "linkReferences": {},
  "deployedLinkReferences": {}
}