{
  "_format": "hh-sol-artifact-1",
  "contractName": "MockGauge",
  "sourceName": "contracts/testing/MockGauge.sol",
  "abi": [
    {
      "inputs": [
        {
          "internalType": "address",
          "name": "lpToken_",
          "type": "address"
        }
      ],
      "stateMutability": "nonpayable",
      "type": "constructor"
    },
    {
      "inputs": [
        {
          "internalType": "address",
          "name": "account",
          "type": "address"
        }
      ],
      "name": "balanceOf",
      "outputs": [
        {
          "internalType": "uint256",
          "name": "",
          "type": "uint256"
        }
      ],
      "stateMutability": "view",
      "type": "function"
    },
    {
      "inputs": [
        {
          "internalType": "address",
          "name": "",
          "type": "address"
        }
      ],
      "name": "claimable_tokens",
      "outputs": [
        {
          "internalType": "uint256",
          "name": "",
          "type": "uint256"
        }
      ],
      "stateMutability": "view",
      "type": "function"
    },
    {
      "inputs": [
        {
          "internalType": "uint256",
          "name": "amount",
          "type": "uint256"
        }
      ],
      "name": "deposit",
      "outputs": [],
      "stateMutability": "nonpayable",
      "type": "function"
    },
    {
      "inputs": [
        {
          "internalType": "uint256",
          "name": "amount",
          "type": "uint256"
        }
      ],
      "name": "setClaimableTokens",
      "outputs": [],
      "stateMutability": "nonpayable",
      "type": "function"
    },
    {
      "inputs": [
        {
          "internalType": "address",
          "name": "account",
          "type": "address"
        }
      ],
      "name": "user_checkpoint",
      "outputs": [],
      "stateMutability": "nonpayable",
      "type": "function"
    },
    {
      "inputs": [
        {
          "internalType": "uint256",
          "name": "amount",
          "type": "uint256"
        }
      ],
      "name": "withdraw",
      "outputs": [],
      "stateMutability": "nonpayable",
      "type": "function"
    }
  ],
  "bytecode": "0x6080604052600060025534801561001557600080fd5b5060405161052538038061052583398101604081905261003491610059565b600080546001600160a01b0319166001600160a01b0392909216919091179055610089565b60006020828403121561006b57600080fd5b81516001600160a01b038116811461008257600080fd5b9392505050565b61048d806100986000396000f3fe608060405234801561001057600080fd5b50600436106100625760003560e01c80632e1a7d4d14610067578063331345831461007c5780634b820093146100a357806370a08231146100b4578063a3cbac7e146100dd578063b6b55f25146100f0575b600080fd5b61007a61007536600461038e565b610103565b005b61009161008a3660046103a7565b5060025490565b60405190815260200160405180910390f35b61007a6100b13660046103a7565b50565b6100916100c23660046103a7565b6001600160a01b031660009081526001602052604090205490565b61007a6100eb36600461038e565b600255565b61007a6100fe36600461038e565b610213565b336000908152600160205260409020548111156101675760405162461bcd60e51b815260206004820152601f60248201527f696e73756666696369656e7420757365722067617567652062616c616e63650060448201526064015b60405180910390fd5b33600090815260016020526040812080548392906101869084906103ed565b909155505060005460405163a9059cbb60e01b8152336004820152602481018390526001600160a01b039091169063a9059cbb90604401602060405180830381600087803b1580156101d757600080fd5b505af11580156101eb573d6000803e3d6000fd5b505050506040513d601f19601f8201168201806040525081019061020f9190610404565b5050565b6000546040516370a0823160e01b815233600482015282916001600160a01b0316906370a082319060240160206040518083038186803b15801561025657600080fd5b505afa15801561026a573d6000803e3d6000fd5b505050506040513d601f19601f8201168201806040525081019061028e9190610426565b10156102dc5760405162461bcd60e51b815260206004820152601f60248201527f696e73756666696369656e7420757365722067617567652062616c616e636500604482015260640161015e565b6000546040516323b872dd60e01b8152336004820152306024820152604481018390526001600160a01b03909116906323b872dd90606401602060405180830381600087803b15801561032e57600080fd5b505af1158015610342573d6000803e3d6000fd5b505050506040513d601f19601f820116820180604052508101906103669190610404565b50336000908152600160205260408120805483929061038690849061043f565b909155505050565b6000602082840312156103a057600080fd5b5035919050565b6000602082840312156103b957600080fd5b81356001600160a01b03811681146103d057600080fd5b9392505050565b634e487b7160e01b600052601160045260246000fd5b6000828210156103ff576103ff6103d7565b500390565b60006020828403121561041657600080fd5b815180151581146103d057600080fd5b60006020828403121561043857600080fd5b5051919050565b60008219821115610452576104526103d7565b50019056fea26469706673582212200212af94e0796673e2fcd592d43884e6aa289451c42a44e388fcbd4629136e0364736f6c63430008090033",
  "linkReferences": {},
  "deployedLinkReferences": {}
}