{
  "_format": "hh-sol-artifact-1",
  "contractName": "MockBKDMinter",
  "sourceName": "contracts/testing/MockBKDMinter.sol",
  "abi": [
    {
      "inputs": [
        {
          "internalType": "uint256",
          "name": "_annualInflationRateLp",
          "type": "uint256"
        },
        {
          "internalType": "uint256",
          "name": "_annualInflationRateKeeper",
          "type": "uint256"
        },
        {
          "internalType": "uint256",
          "name": "_annualInflationRateAmm",
          "type": "uint256"
        },
        {
          "internalType": "uint256",
          "name": "_annualInflationDecayLp",
          "type": "uint256"
        },
        {
          "internalType": "uint256",
          "name": "_annualInflationDecayKeeper",
          "type": "uint256"
        },
        {
          "internalType": "uint256",
          "name": "_annualInflationDecayAmm",
          "type": "uint256"
        },
        {
          "internalType": "uint256",
          "name": "_initialPeriodKeeperInflation",
          "type": "uint256"
        },
        {
          "internalType": "uint256",
          "name": "_initialPeriodAmmInflation",
          "type": "uint256"
        },
        {
          "internalType": "uint256",
          "name": "_nonInflationDistribution",
          "type": "uint256"
        },
        {
          "internalType": "contract IController",
          "name": "_controller",
          "type": "address"
        }
      ],
      "stateMutability": "nonpayable",
      "type": "constructor"
    },
    {
      "anonymous": false,
      "inputs": [
        {
          "indexed": false,
          "internalType": "address",
          "name": "beneficiary",
          "type": "address"
        },
        {
          "indexed": false,
          "internalType": "uint256",
          "name": "amount",
          "type": "uint256"
        }
      ],
      "name": "TokensMinted",
      "type": "event"
    },
    {
      "inputs": [],
      "name": "annualInflationDecayAmm",
      "outputs": [
        {
          "internalType": "uint256",
          "name": "",
          "type": "uint256"
        }
      ],
      "stateMutability": "view",
      "type": "function"
    },
    {
      "inputs": [],
      "name": "annualInflationDecayKeeper",
      "outputs": [
        {
          "internalType": "uint256",
          "name": "",
          "type": "uint256"
        }
      ],
      "stateMutability": "view",
      "type": "function"
    },
    {
      "inputs": [],
      "name": "annualInflationDecayLp",
      "outputs": [
        {
          "internalType": "uint256",
          "name": "",
          "type": "uint256"
        }
      ],
      "stateMutability": "view",
      "type": "function"
    },
    {
      "inputs": [],
      "name": "controller",
      "outputs": [
        {
          "internalType": "contract IController",
          "name": "",
          "type": "address"
        }
      ],
      "stateMutability": "view",
      "type": "function"
    },
    {
      "inputs": [],
      "name": "currentInflationAmountAmm",
      "outputs": [
        {
          "internalType": "uint256",
          "name": "",
          "type": "uint256"
        }
      ],
      "stateMutability": "view",
      "type": "function"
    },
    {
      "inputs": [],
      "name": "currentInflationAmountKeeper",
      "outputs": [
        {
          "internalType": "uint256",
          "name": "",
          "type": "uint256"
        }
      ],
      "stateMutability": "view",
      "type": "function"
    },
    {
      "inputs": [],
      "name": "currentInflationAmountLp",
      "outputs": [
        {
          "internalType": "uint256",
          "name": "",
          "type": "uint256"
        }
      ],
      "stateMutability": "view",
      "type": "function"
    },
    {
      "inputs": [],
      "name": "currentTotalInflation",
      "outputs": [
        {
          "internalType": "uint256",
          "name": "",
          "type": "uint256"
        }
      ],
      "stateMutability": "view",
      "type": "function"
    },
    {
      "inputs": [],
      "name": "executeInflationRateUpdate",
      "outputs": [
        {
          "internalType": "bool",
          "name": "",
          "type": "bool"
        }
      ],
      "stateMutability": "nonpayable",
      "type": "function"
    },
    {
      "inputs": [],
      "name": "getAmmInflationRate",
      "outputs": [
        {
          "internalType": "uint256",
          "name": "",
          "type": "uint256"
        }
      ],
      "stateMutability": "view",
      "type": "function"
    },
    {
      "inputs": [],
      "name": "getKeeperInflationRate",
      "outputs": [
        {
          "internalType": "uint256",
          "name": "",
          "type": "uint256"
        }
      ],
      "stateMutability": "view",
      "type": "function"
    },
    {
      "inputs": [],
      "name": "getLpInflationRate",
      "outputs": [
        {
          "internalType": "uint256",
          "name": "",
          "type": "uint256"
        }
      ],
      "stateMutability": "view",
      "type": "function"
    },
    {
      "inputs": [],
      "name": "initialAnnualInflationRateAmm",
      "outputs": [
        {
          "internalType": "uint256",
          "name": "",
          "type": "uint256"
        }
      ],
      "stateMutability": "view",
      "type": "function"
    },
    {
      "inputs": [],
      "name": "initialAnnualInflationRateKeeper",
      "outputs": [
        {
          "internalType": "uint256",
          "name": "",
          "type": "uint256"
        }
      ],
      "stateMutability": "view",
      "type": "function"
    },
    {
      "inputs": [],
      "name": "initialAnnualInflationRateLp",
      "outputs": [
        {
          "internalType": "uint256",
          "name": "",
          "type": "uint256"
        }
      ],
      "stateMutability": "view",
      "type": "function"
    },
    {
      "inputs": [],
      "name": "initialPeriodAmmInflation",
      "outputs": [
        {
          "internalType": "uint256",
          "name": "",
          "type": "uint256"
        }
      ],
      "stateMutability": "view",
      "type": "function"
    },
    {
      "inputs": [],
      "name": "initialPeriodEnded",
      "outputs": [
        {
          "internalType": "bool",
          "name": "",
          "type": "bool"
        }
      ],
      "stateMutability": "view",
      "type": "function"
    },
    {
      "inputs": [],
      "name": "initialPeriodKeeperInflation",
      "outputs": [
        {
          "internalType": "uint256",
          "name": "",
          "type": "uint256"
        }
      ],
      "stateMutability": "view",
      "type": "function"
    },
    {
      "inputs": [],
      "name": "issuedNonInflationSupply",
      "outputs": [
        {
          "internalType": "uint256",
          "name": "",
          "type": "uint256"
        }
      ],
      "stateMutability": "view",
      "type": "function"
    },
    {
      "inputs": [],
      "name": "lastEvent",
      "outputs": [
        {
          "internalType": "uint256",
          "name": "",
          "type": "uint256"
        }
      ],
      "stateMutability": "view",
      "type": "function"
    },
    {
      "inputs": [],
      "name": "lastInflationDecay",
      "outputs": [
        {
          "internalType": "uint256",
          "name": "",
          "type": "uint256"
        }
      ],
      "stateMutability": "view",
      "type": "function"
    },
    {
      "inputs": [
        {
          "internalType": "address",
          "name": "beneficiary",
          "type": "address"
        },
        {
          "internalType": "uint256",
          "name": "amount",
          "type": "uint256"
        }
      ],
      "name": "mint",
      "outputs": [
        {
          "internalType": "bool",
          "name": "",
          "type": "bool"
        }
      ],
      "stateMutability": "nonpayable",
      "type": "function"
    },
    {
      "inputs": [
        {
          "internalType": "address",
          "name": "beneficiary",
          "type": "address"
        },
        {
          "internalType": "uint256",
          "name": "amount",
          "type": "uint256"
        }
      ],
      "name": "mintNonInflationTokens",
      "outputs": [
        {
          "internalType": "bool",
          "name": "",
          "type": "bool"
        }
      ],
      "stateMutability": "nonpayable",
      "type": "function"
    },
    {
      "inputs": [
        {
          "internalType": "address",
          "name": "beneficiary",
          "type": "address"
        },
        {
          "internalType": "uint256",
          "name": "amount",
          "type": "uint256"
        }
      ],
      "name": "mint_for_testing",
      "outputs": [
        {
          "internalType": "bool",
          "name": "",
          "type": "bool"
        }
      ],
      "stateMutability": "nonpayable",
      "type": "function"
    },
    {
      "inputs": [
        {
          "internalType": "address",
          "name": "beneficiary",
          "type": "address"
        },
        {
          "internalType": "uint256",
          "name": "amount",
          "type": "uint256"
        }
      ],
      "name": "mint_for_testing_with_checks",
      "outputs": [
        {
          "internalType": "bool",
          "name": "",
          "type": "bool"
        }
      ],
      "stateMutability": "nonpayable",
      "type": "function"
    },
    {
      "inputs": [],
      "name": "nonInflationDistribution",
      "outputs": [
        {
          "internalType": "uint256",
          "name": "",
          "type": "uint256"
        }
      ],
      "stateMutability": "view",
      "type": "function"
    },
    {
      "inputs": [],
      "name": "roleManager",
      "outputs": [
        {
          "internalType": "contract IRoleManager",
          "name": "",
          "type": "address"
        }
      ],
      "stateMutability": "view",
      "type": "function"
    },
    {
      "inputs": [
        {
          "internalType": "address",
          "name": "_token",
          "type": "address"
        }
      ],
      "name": "setToken",
      "outputs": [],
      "stateMutability": "nonpayable",
      "type": "function"
    },
    {
      "inputs": [],
      "name": "startInflation",
      "outputs": [],
      "stateMutability": "nonpayable",
      "type": "function"
    },
    {
      "inputs": [],
      "name": "token",
      "outputs": [
        {
          "internalType": "contract BkdToken",
          "name": "",
          "type": "address"
        }
      ],
      "stateMutability": "view",
      "type": "function"
    },
    {
      "inputs": [],
      "name": "totalAvailableToNow",
      "outputs": [
        {
          "internalType": "uint256",
          "name": "",
          "type": "uint256"
        }
      ],
      "stateMutability": "view",
      "type": "function"
    },
    {
      "inputs": [],
      "name": "totalMintedToNow",
      "outputs": [
        {
          "internalType": "uint256",
          "name": "",
          "type": "uint256"
        }
      ],
      "stateMutability": "view",
      "type": "function"
    }
  ],
  "bytecode": "0x6101e06040523480156200001257600080fd5b50604051620017fa380380620017fa833981016040819052620000359162000337565b89898989898989898989620000d2816001600160a01b0316632954018c6040518163ffffffff1660e01b815260040160206040518083038186803b1580156200007d57600080fd5b505afa15801562000092573d6000803e3d6000fd5b505050506040513d601f19601f82011682018060405250810190620000b89190620003b9565b6001600160a01b03166200028c60201b62000c381760201c565b6001600160a01b0316608052600160005560408051606081019091526021808252670de0b6b3a764000089109190620017d9602083013990620001335760405162461bcd60e51b81526004016200012a9190620003e0565b60405180910390fd5b50670de0b6b3a76400008610604051806060016040528060218152602001620017d960219139906200017a5760405162461bcd60e51b81526004016200012a9190620003e0565b50670de0b6b3a76400008510604051806060016040528060218152602001620017d96021913990620001c15760405162461bcd60e51b81526004016200012a9190620003e0565b5060a08a905261010089905261016088905260c087905261012086905261018085905260e0849052610140839052620001ff6301e133808b62000438565b600155620002126301e133808562000438565b600255620002256301e133808462000438565b60038190556002546001546200023c91906200045b565b6200024891906200045b565b600781905550816101a08181525050806001600160a01b03166101c0816001600160a01b031681525050505050505050505050505050505050505050505062000482565b6040516321f8a72160e01b81526a3937b632a6b0b730b3b2b960a91b60048201526000906001600160a01b038316906321f8a7219060240160206040518083038186803b158015620002dd57600080fd5b505afa158015620002f2573d6000803e3d6000fd5b505050506040513d601f19601f82011682018060405250810190620003189190620003b9565b92915050565b6001600160a01b03811681146200033457600080fd5b50565b6000806000806000806000806000806101408b8d0312156200035857600080fd5b8a51995060208b0151985060408b0151975060608b0151965060808b0151955060a08b0151945060c08b0151935060e08b015192506101008b015191506101208b0151620003a6816200031e565b809150509295989b9194979a5092959850565b600060208284031215620003cc57600080fd5b8151620003d9816200031e565b9392505050565b600060208083528351808285015260005b818110156200040f57858101830151858201604001528201620003f1565b8181111562000422576000604083870101525b50601f01601f1916929092016040019392505050565b6000826200045657634e487b7160e01b600052601260045260246000fd5b500490565b600082198211156200047d57634e487b7160e01b600052601160045260246000fd5b500190565b60805160a05160c05160e05161010051610120516101405161016051610180516101a0516101c0516112836200055660003960008181610494015281816106a60152610fa601526000818161036201526109920152600081816103220152610ee50152600081816102d20152610f4c0152600061024d0152600081816103890152610eb50152600081816103c10152610f1b0152600061046d0152600081816104160152610e7a015260006104460152600081816101f6015281816104d80152818161089a0152610ae701526112836000f3fe608060405234801561001057600080fd5b50600436106101ef5760003560e01c8063aee5b63c1161010f578063d8ba1175116100a2578063f4fe6b0011610071578063f4fe6b0014610468578063f77c47911461048f578063f9b7ce02146104b6578063fc0c546a146104be57600080fd5b8063d8ba117514610408578063dbb9c24614610411578063e7c5009c14610438578063f3a5fa4a1461044157600080fd5b8063c2af2cf8116100de578063c2af2cf8146103bc578063c522a6e4146103e3578063cc1962aa146103f6578063d1f6593a146103ff57600080fd5b8063aee5b63c1461035d578063b169106414610384578063b5a70390146103ab578063bf3f5580146103b457600080fd5b8063555c627a1161018757806371f19a9f1161015657806371f19a9f1461031d578063877f16921461034457806388258d311461034c578063a0604e551461035457600080fd5b8063555c627a146102cd5780635853f6c6146102f45780635ab675a4146103015780636dafc3ab1461030a57600080fd5b80632d3d8851116101c35780632d3d88511461028657806340c10f191461028f5780634a17ed59146102b25780634aad316e146102ba57600080fd5b8062435da5146101f4578063144fa6d71461023357806316ba1999146102485780631ca992e41461027d575b600080fd5b7f00000000000000000000000000000000000000000000000000000000000000005b6040516001600160a01b0390911681526020015b60405180910390f35b6102466102413660046110ea565b6104d6565b005b61026f7f000000000000000000000000000000000000000000000000000000000000000081565b60405190815260200161022a565b61026f60085481565b61026f60065481565b6102a261029d366004611107565b610647565b604051901515815260200161022a565b6102a26107bb565b6102a26102c8366004611107565b6107c5565b61026f7f000000000000000000000000000000000000000000000000000000000000000081565b6004546102a29060ff1681565b61026f600a5481565b6102a2610318366004611107565b6107d8565b61026f7f000000000000000000000000000000000000000000000000000000000000000081565b61026f610848565b61026f610862565b61026f60015481565b61026f7f000000000000000000000000000000000000000000000000000000000000000081565b61026f7f000000000000000000000000000000000000000000000000000000000000000081565b61026f60095481565b61026f61087c565b61026f7f000000000000000000000000000000000000000000000000000000000000000081565b6102a26103f1366004611107565b610896565b61026f60035481565b61026f60025481565b61026f60075481565b61026f7f000000000000000000000000000000000000000000000000000000000000000081565b61026f60055481565b61026f7f000000000000000000000000000000000000000000000000000000000000000081565b61026f7f000000000000000000000000000000000000000000000000000000000000000081565b6102167f000000000000000000000000000000000000000000000000000000000000000081565b610246610ae5565b600b54610216906001600160a01b031681565b905090565b7f0000000000000000000000000000000000000000000000000000000000000000604051632474521560e21b815269676f7665726e616e636560b01b60048201523360248201526001600160a01b0391909116906391d148549060440160206040518083038186803b15801561054b57600080fd5b505afa15801561055f573d6000803e3d6000fd5b505050506040513d601f19601f820116820180604052508101906105839190611133565b60405180604001604052806013815260200172756e617574686f72697a65642061636365737360681b815250906105d65760405162461bcd60e51b81526004016105cd9190611155565b60405180910390fd5b50600b546001600160a01b0316156106255760405162461bcd60e51b8152602060048201526012602482015271546f6b656e20616c7265616479207365742160701b60448201526064016105cd565b600b80546001600160a01b0319166001600160a01b0392909216919091179055565b60006002600054141561069c5760405162461bcd60e51b815260206004820152601f60248201527f5265656e7472616e637947756172643a207265656e7472616e742063616c6c0060448201526064016105cd565b60026000819055507f00000000000000000000000000000000000000000000000000000000000000006001600160a01b031663dbcd89fa6040518163ffffffff1660e01b815260040160206040518083038186803b1580156106fd57600080fd5b505afa158015610711573d6000803e3d6000fd5b505050506040513d601f19601f8201168201806040525081019061073591906111aa565b6001600160a01b0316336001600160a01b03161460405180604001604052806013815260200172756e617574686f72697a65642061636365737360681b815250906107935760405162461bcd60e51b81526004016105cd9190611155565b50600a546107a3575060006107b0565b6107ad8383610cc6565b90505b600160005592915050565b60006104d1610e22565b60006107d18383610cc6565b9392505050565b600b546040516340c10f1960e01b81526001600160a01b0384811660048301526024820184905260009216906340c10f1990604401600060405180830381600087803b15801561082757600080fd5b505af115801561083b573d6000803e3d6000fd5b5060019695505050505050565b6000600a546000141561085b5750600090565b5060035490565b6000600a54600014156108755750600090565b5060015490565b6000600a546000141561088f5750600090565b5060025490565b60007f0000000000000000000000000000000000000000000000000000000000000000604051632474521560e21b815269676f7665726e616e636560b01b60048201523360248201526001600160a01b0391909116906391d148549060440160206040518083038186803b15801561090d57600080fd5b505afa158015610921573d6000803e3d6000fd5b505050506040513d601f19601f820116820180604052508101906109459190611133565b60405180604001604052806013815260200172756e617574686f72697a65642061636365737360681b8152509061098f5760405162461bcd60e51b81526004016105cd9190611155565b507f0000000000000000000000000000000000000000000000000000000000000000826005546109bf91906111dd565b1115610a1c5760405162461bcd60e51b815260206004820152602660248201527f4d6178696d756d206e6f6e2d696e666c6174696f6e20616d6f756e742065786360448201526532b2b232b21760d11b60648201526084016105cd565b8160056000828254610a2e91906111dd565b9091555050600b546040516340c10f1960e01b81526001600160a01b03858116600483015260248201859052909116906340c10f1990604401600060405180830381600087803b158015610a8157600080fd5b505af1158015610a95573d6000803e3d6000fd5b5050604080516001600160a01b0387168152602081018690527f3f2c9d57c068687834f0de942a9babb9e5acab57d516d3480a3c16ee165a4273935001905060405180910390a150600192915050565b7f0000000000000000000000000000000000000000000000000000000000000000604051632474521560e21b815269676f7665726e616e636560b01b60048201523360248201526001600160a01b0391909116906391d148549060440160206040518083038186803b158015610b5a57600080fd5b505afa158015610b6e573d6000803e3d6000fd5b505050506040513d601f19601f82011682018060405250810190610b929190611133565b60405180604001604052806013815260200172756e617574686f72697a65642061636365737360681b81525090610bdc5760405162461bcd60e51b81526004016105cd9190611155565b50600a5415610c2d5760405162461bcd60e51b815260206004820152601e60248201527f496e666c6174696f6e2068617320616c726561647920737461727465642e000060448201526064016105cd565b42600a819055600655565b6040516321f8a72160e01b81526a3937b632a6b0b730b3b2b960a91b60048201526000906001600160a01b038316906321f8a7219060240160206040518083038186803b158015610c8857600080fd5b505afa158015610c9c573d6000803e3d6000fd5b505050506040513d601f19601f82011682018060405250810190610cc091906111aa565b92915050565b6000600754600a5442610cd991906111f5565b610ce3919061120c565b60086000828254610cf491906111dd565b9091555050600954600090610d0a9084906111dd565b9050600854811115610d5e5760405162461bcd60e51b815260206004820152601860248201527f4d696e7461626c6520616d6f756e74206578636565646564000000000000000060448201526064016105cd565b600981905542600a55600b546040516340c10f1960e01b81526001600160a01b03868116600483015260248201869052909116906340c10f1990604401600060405180830381600087803b158015610db557600080fd5b505af1158015610dc9573d6000803e3d6000fd5b50505050610dd5610e22565b50604080516001600160a01b0386168152602081018590527f3f2c9d57c068687834f0de942a9babb9e5acab57d516d3480a3c16ee165a4273910160405180910390a15060019392505050565b6000600a5442610e3291906111f5565b600754610e3f919061120c565b60086000828254610e5091906111dd565b909155505042600a55600654610e6b906301e13380906111dd565b42106110ad57600154610e9e907f00000000000000000000000000000000000000000000000000000000000000006110b3565b60015560045460ff1615610f1157600254610ed9907f00000000000000000000000000000000000000000000000000000000000000006110b3565b600255600354610f09907f00000000000000000000000000000000000000000000000000000000000000006110b3565b600355610f81565b610f3f6301e133807f000000000000000000000000000000000000000000000000000000000000000061122b565b600255610f706301e133807f000000000000000000000000000000000000000000000000000000000000000061122b565b6003556004805460ff191660011790555b600354600254600154610f9491906111dd565b610f9e91906111dd565b6007819055507f00000000000000000000000000000000000000000000000000000000000000006001600160a01b031663dbcd89fa6040518163ffffffff1660e01b815260040160206040518083038186803b158015610ffd57600080fd5b505afa158015611011573d6000803e3d6000fd5b505050506040513d601f19601f8201168201806040525081019061103591906111aa565b6001600160a01b031663b662fc556040518163ffffffff1660e01b8152600401602060405180830381600087803b15801561106f57600080fd5b505af1158015611083573d6000803e3d6000fd5b505050506040513d601f19601f820116820180604052508101906110a79190611133565b50426006555b50600190565b6000670de0b6b3a76400006110c8838561120c565b6107d1919061122b565b6001600160a01b03811681146110e757600080fd5b50565b6000602082840312156110fc57600080fd5b81356107d1816110d2565b6000806040838503121561111a57600080fd5b8235611125816110d2565b946020939093013593505050565b60006020828403121561114557600080fd5b815180151581146107d157600080fd5b600060208083528351808285015260005b8181101561118257858101830151858201604001528201611166565b81811115611194576000604083870101525b50601f01601f1916929092016040019392505050565b6000602082840312156111bc57600080fd5b81516107d1816110d2565b634e487b7160e01b600052601160045260246000fd5b600082198211156111f0576111f06111c7565b500190565b600082821015611207576112076111c7565b500390565b6000816000190483118215151615611226576112266111c7565b500290565b60008261124857634e487b7160e01b600052601260045260246000fd5b50049056fea264697066735822122040c7d0fbe4e46d519df127bac89614b6f129fd771d8cf95cf1ad8278f84480a264736f6c63430008090033696e76616c696420706172616d657465722076616c756520617474656d70746564",
  "linkReferences": {},
  "deployedLinkReferences": {}
}