{
  "_format": "hh-sol-artifact-1",
  "contractName": "Basket",
  "sourceName": "contracts/Basket.sol",
  "abi": [
    {
      "anonymous": false,
      "inputs": [
        {
          "indexed": true,
          "internalType": "address",
          "name": "owner",
          "type": "address"
        },
        {
          "indexed": true,
          "internalType": "address",
          "name": "spender",
          "type": "address"
        },
        {
          "indexed": false,
          "internalType": "uint256",
          "name": "value",
          "type": "uint256"
        }
      ],
      "name": "Approval",
      "type": "event"
    },
    {
      "anonymous": false,
      "inputs": [
        {
          "indexed": true,
          "internalType": "address",
          "name": "_from",
          "type": "address"
        },
        {
          "indexed": false,
          "internalType": "uint256",
          "name": "_amount",
          "type": "uint256"
        }
      ],
      "name": "Burned",
      "type": "event"
    },
    {
      "anonymous": false,
      "inputs": [
        {
          "indexed": false,
          "internalType": "uint256",
          "name": "_newLicenseFee",
          "type": "uint256"
        }
      ],
      "name": "ChangedLicenseFee",
      "type": "event"
    },
    {
      "anonymous": false,
      "inputs": [
        {
          "indexed": true,
          "internalType": "address",
          "name": "_newPublisher",
          "type": "address"
        }
      ],
      "name": "ChangedPublisher",
      "type": "event"
    },
    {
      "anonymous": false,
      "inputs": [
        {
          "indexed": false,
          "internalType": "address",
          "name": "_publisher",
          "type": "address"
        }
      ],
      "name": "DeletedNewIndex",
      "type": "event"
    },
    {
      "anonymous": false,
      "inputs": [
        {
          "indexed": false,
          "internalType": "uint8",
          "name": "version",
          "type": "uint8"
        }
      ],
      "name": "Initialized",
      "type": "event"
    },
    {
      "anonymous": false,
      "inputs": [
        {
          "indexed": true,
          "internalType": "address",
          "name": "_to",
          "type": "address"
        },
        {
          "indexed": false,
          "internalType": "uint256",
          "name": "_amount",
          "type": "uint256"
        }
      ],
      "name": "Minted",
      "type": "event"
    },
    {
      "anonymous": false,
      "inputs": [
        {
          "indexed": false,
          "internalType": "uint256",
          "name": "",
          "type": "uint256"
        }
      ],
      "name": "NewIBRatio",
      "type": "event"
    },
    {
      "anonymous": false,
      "inputs": [
        {
          "indexed": false,
          "internalType": "address",
          "name": "_publisher",
          "type": "address"
        }
      ],
      "name": "PublishedNewIndex",
      "type": "event"
    },
    {
      "anonymous": false,
      "inputs": [
        {
          "indexed": true,
          "internalType": "address",
          "name": "from",
          "type": "address"
        },
        {
          "indexed": true,
          "internalType": "address",
          "name": "to",
          "type": "address"
        },
        {
          "indexed": false,
          "internalType": "uint256",
          "name": "value",
          "type": "uint256"
        }
      ],
      "name": "Transfer",
      "type": "event"
    },
    {
      "anonymous": false,
      "inputs": [],
      "name": "WeightsSet",
      "type": "event"
    },
    {
      "inputs": [],
      "name": "ONE_YEAR",
      "outputs": [
        {
          "internalType": "uint256",
          "name": "",
          "type": "uint256"
        }
      ],
      "stateMutability": "view",
      "type": "function"
    },
    {
      "inputs": [],
      "name": "TIMELOCK_DURATION",
      "outputs": [
        {
          "internalType": "uint256",
          "name": "",
          "type": "uint256"
        }
      ],
      "stateMutability": "view",
      "type": "function"
    },
    {
      "inputs": [
        {
          "internalType": "address",
          "name": "owner",
          "type": "address"
        },
        {
          "internalType": "address",
          "name": "spender",
          "type": "address"
        }
      ],
      "name": "allowance",
      "outputs": [
        {
          "internalType": "uint256",
          "name": "",
          "type": "uint256"
        }
      ],
      "stateMutability": "view",
      "type": "function"
    },
    {
      "inputs": [
        {
          "internalType": "address",
          "name": "spender",
          "type": "address"
        },
        {
          "internalType": "uint256",
          "name": "amount",
          "type": "uint256"
        }
      ],
      "name": "approve",
      "outputs": [
        {
          "internalType": "bool",
          "name": "",
          "type": "bool"
        }
      ],
      "stateMutability": "nonpayable",
      "type": "function"
    },
    {
      "inputs": [],
      "name": "auction",
      "outputs": [
        {
          "internalType": "contract IAuction",
          "name": "",
          "type": "address"
        }
      ],
      "stateMutability": "view",
      "type": "function"
    },
    {
      "inputs": [
        {
          "internalType": "uint256",
          "name": "amount",
          "type": "uint256"
        }
      ],
      "name": "auctionBurn",
      "outputs": [],
      "stateMutability": "nonpayable",
      "type": "function"
    },
    {
      "inputs": [
        {
          "internalType": "address",
          "name": "account",
          "type": "address"
        }
      ],
      "name": "balanceOf",
      "outputs": [
        {
          "internalType": "uint256",
          "name": "",
          "type": "uint256"
        }
      ],
      "stateMutability": "view",
      "type": "function"
    },
    {
      "inputs": [
        {
          "internalType": "uint256",
          "name": "amount",
          "type": "uint256"
        }
      ],
      "name": "burn",
      "outputs": [],
      "stateMutability": "nonpayable",
      "type": "function"
    },
    {
      "inputs": [
        {
          "internalType": "uint256",
          "name": "newLicenseFee",
          "type": "uint256"
        }
      ],
      "name": "changeLicenseFee",
      "outputs": [],
      "stateMutability": "nonpayable",
      "type": "function"
    },
    {
      "inputs": [
        {
          "internalType": "address",
          "name": "newPublisher",
          "type": "address"
        }
      ],
      "name": "changePublisher",
      "outputs": [],
      "stateMutability": "nonpayable",
      "type": "function"
    },
    {
      "inputs": [],
      "name": "decimals",
      "outputs": [
        {
          "internalType": "uint8",
          "name": "",
          "type": "uint8"
        }
      ],
      "stateMutability": "view",
      "type": "function"
    },
    {
      "inputs": [
        {
          "internalType": "address",
          "name": "spender",
          "type": "address"
        },
        {
          "internalType": "uint256",
          "name": "subtractedValue",
          "type": "uint256"
        }
      ],
      "name": "decreaseAllowance",
      "outputs": [
        {
          "internalType": "bool",
          "name": "",
          "type": "bool"
        }
      ],
      "stateMutability": "nonpayable",
      "type": "function"
    },
    {
      "inputs": [],
      "name": "deleteNewIndex",
      "outputs": [],
      "stateMutability": "nonpayable",
      "type": "function"
    },
    {
      "inputs": [],
      "name": "factory",
      "outputs": [
        {
          "internalType": "contract IFactory",
          "name": "",
          "type": "address"
        }
      ],
      "stateMutability": "view",
      "type": "function"
    },
    {
      "inputs": [],
      "name": "getPendingWeights",
      "outputs": [
        {
          "internalType": "address[]",
          "name": "",
          "type": "address[]"
        },
        {
          "internalType": "uint256[]",
          "name": "",
          "type": "uint256[]"
        }
      ],
      "stateMutability": "view",
      "type": "function"
    },
    {
      "inputs": [],
      "name": "ibRatio",
      "outputs": [
        {
          "internalType": "uint256",
          "name": "",
          "type": "uint256"
        }
      ],
      "stateMutability": "view",
      "type": "function"
    },
    {
      "inputs": [
        {
          "internalType": "address",
          "name": "spender",
          "type": "address"
        },
        {
          "internalType": "uint256",
          "name": "addedValue",
          "type": "uint256"
        }
      ],
      "name": "increaseAllowance",
      "outputs": [
        {
          "internalType": "bool",
          "name": "",
          "type": "bool"
        }
      ],
      "stateMutability": "nonpayable",
      "type": "function"
    },
    {
      "inputs": [
        {
          "components": [
            {
              "internalType": "uint256",
              "name": "licenseFee",
              "type": "uint256"
            },
            {
              "internalType": "string",
              "name": "tokenName",
              "type": "string"
            },
            {
              "internalType": "string",
              "name": "tokenSymbol",
              "type": "string"
            },
            {
              "internalType": "address",
              "name": "proposer",
              "type": "address"
            },
            {
              "internalType": "address[]",
              "name": "tokens",
              "type": "address[]"
            },
            {
              "internalType": "uint256[]",
              "name": "weights",
              "type": "uint256[]"
            },
            {
              "internalType": "address",
              "name": "basket",
              "type": "address"
            }
          ],
          "internalType": "struct IFactory.Proposal",
          "name": "proposal",
          "type": "tuple"
        },
        {
          "internalType": "contract IAuction",
          "name": "auction_",
          "type": "address"
        }
      ],
      "name": "initialize",
      "outputs": [],
      "stateMutability": "nonpayable",
      "type": "function"
    },
    {
      "inputs": [],
      "name": "lastFee",
      "outputs": [
        {
          "internalType": "uint256",
          "name": "",
          "type": "uint256"
        }
      ],
      "stateMutability": "view",
      "type": "function"
    },
    {
      "inputs": [],
      "name": "licenseFee",
      "outputs": [
        {
          "internalType": "uint256",
          "name": "",
          "type": "uint256"
        }
      ],
      "stateMutability": "view",
      "type": "function"
    },
    {
      "inputs": [
        {
          "internalType": "uint256",
          "name": "amount",
          "type": "uint256"
        }
      ],
      "name": "mint",
      "outputs": [],
      "stateMutability": "nonpayable",
      "type": "function"
    },
    {
      "inputs": [
        {
          "internalType": "uint256",
          "name": "amount",
          "type": "uint256"
        },
        {
          "internalType": "address",
          "name": "to",
          "type": "address"
        }
      ],
      "name": "mintTo",
      "outputs": [],
      "stateMutability": "nonpayable",
      "type": "function"
    },
    {
      "inputs": [],
      "name": "name",
      "outputs": [
        {
          "internalType": "string",
          "name": "",
          "type": "string"
        }
      ],
      "stateMutability": "view",
      "type": "function"
    },
    {
      "inputs": [],
      "name": "pendingLicenseFee",
      "outputs": [
        {
          "internalType": "uint256",
          "name": "licenseFee",
          "type": "uint256"
        },
        {
          "internalType": "uint256",
          "name": "block",
          "type": "uint256"
        }
      ],
      "stateMutability": "view",
      "type": "function"
    },
    {
      "inputs": [],
      "name": "pendingPublisher",
      "outputs": [
        {
          "internalType": "address",
          "name": "publisher",
          "type": "address"
        },
        {
          "internalType": "uint256",
          "name": "block",
          "type": "uint256"
        }
      ],
      "stateMutability": "view",
      "type": "function"
    },
    {
      "inputs": [],
      "name": "pendingWeights",
      "outputs": [
        {
          "internalType": "uint256",
          "name": "block",
          "type": "uint256"
        },
        {
          "internalType": "bool",
          "name": "pending",
          "type": "bool"
        }
      ],
      "stateMutability": "view",
      "type": "function"
    },
    {
      "inputs": [
        {
          "internalType": "address[]",
          "name": "_tokens",
          "type": "address[]"
        },
        {
          "internalType": "uint256[]",
          "name": "_weights",
          "type": "uint256[]"
        }
      ],
      "name": "publishNewIndex",
      "outputs": [],
      "stateMutability": "nonpayable",
      "type": "function"
    },
    {
      "inputs": [],
      "name": "publisher",
      "outputs": [
        {
          "internalType": "address",
          "name": "",
          "type": "address"
        }
      ],
      "stateMutability": "view",
      "type": "function"
    },
    {
      "inputs": [],
      "name": "setNewWeights",
      "outputs": [],
      "stateMutability": "nonpayable",
      "type": "function"
    },
    {
      "inputs": [],
      "name": "symbol",
      "outputs": [
        {
          "internalType": "string",
          "name": "",
          "type": "string"
        }
      ],
      "stateMutability": "view",
      "type": "function"
    },
    {
      "inputs": [
        {
          "internalType": "uint256",
          "name": "",
          "type": "uint256"
        }
      ],
      "name": "tokens",
      "outputs": [
        {
          "internalType": "address",
          "name": "",
          "type": "address"
        }
      ],
      "stateMutability": "view",
      "type": "function"
    },
    {
      "inputs": [],
      "name": "totalSupply",
      "outputs": [
        {
          "internalType": "uint256",
          "name": "",
          "type": "uint256"
        }
      ],
      "stateMutability": "view",
      "type": "function"
    },
    {
      "inputs": [
        {
          "internalType": "address",
          "name": "to",
          "type": "address"
        },
        {
          "internalType": "uint256",
          "name": "amount",
          "type": "uint256"
        }
      ],
      "name": "transfer",
      "outputs": [
        {
          "internalType": "bool",
          "name": "",
          "type": "bool"
        }
      ],
      "stateMutability": "nonpayable",
      "type": "function"
    },
    {
      "inputs": [
        {
          "internalType": "address",
          "name": "from",
          "type": "address"
        },
        {
          "internalType": "address",
          "name": "to",
          "type": "address"
        },
        {
          "internalType": "uint256",
          "name": "amount",
          "type": "uint256"
        }
      ],
      "name": "transferFrom",
      "outputs": [
        {
          "internalType": "bool",
          "name": "",
          "type": "bool"
        }
      ],
      "stateMutability": "nonpayable",
      "type": "function"
    },
    {
      "inputs": [
        {
          "internalType": "uint256",
          "name": "newRatio",
          "type": "uint256"
        }
      ],
      "name": "updateIBRatio",
      "outputs": [
        {
          "internalType": "uint256",
          "name": "",
          "type": "uint256"
        }
      ],
      "stateMutability": "nonpayable",
      "type": "function"
    },
    {
      "inputs": [
        {
          "internalType": "address[]",
          "name": "_tokens",
          "type": "address[]"
        },
        {
          "internalType": "uint256[]",
          "name": "_weights",
          "type": "uint256[]"
        }
      ],
      "name": "validateWeights",
      "outputs": [],
      "stateMutability": "pure",
      "type": "function"
    },
    {
      "inputs": [
        {
          "internalType": "uint256",
          "name": "",
          "type": "uint256"
        }
      ],
      "name": "weights",
      "outputs": [
        {
          "internalType": "uint256",
          "name": "",
          "type": "uint256"
        }
      ],
      "stateMutability": "view",
      "type": "function"
    }
  ],
  "bytecode": "0x608060405234801561001057600080fd5b506128b6806100206000396000f3fe608060405234801561001057600080fd5b50600436106101b75760003560e01c806306fdde03146101bc578063095ea7b3146101da5780630b0a3499146101fd57806312168923146102125780631535eca91461021a57806316d3bfbb1461022257806318160ddd1461023b57806323b872dd1461024357806327fc7c9c146102565780632f7badaf1461025f578063313ce5671461027257806339509351146102815780633f7ab0dc1461029457806342966c68146102a75780634306ccd3146102ba5780634623c81e146102e05780634f64b2be146102e957806370a0823114610309578063764720071461031c5780637d9f6db514610332578063891a5658146103455780638c72c54e1461036a57806395d89b411461037d5780639801134e1461038557806399a24a011461038e578063a0712d68146103a1578063a457c2d7146103b4578063a9059cbb146103c7578063a9d9d0c7146103da578063b5f163ff146103e3578063b723b34e146103f6578063ba57b40c14610409578063bc13d8b81461042c578063c45a01551461043f578063da632fea14610452578063dd62ed3e14610465578063f7c019fc14610478575b600080fd5b6101c461048b565b6040516101d191906125fe565b60405180910390f35b6101ed6101e8366004612320565b61051d565b60405190151581526020016101d1565b61021061020b36600461234c565b610535565b005b6102106106c2565b610210610745565b61022d6301e187e081565b6040519081526020016101d1565b60355461022d565b6101ed6102513660046122df565b610852565b61022d60695481565b61021061026d3660046123d1565b610878565b604051601281526020016101d1565b6101ed61028f366004612320565b610927565b6102106102a23660046124e7565b610949565b6102106102b53660046124e7565b6109aa565b6070546071546102cb919060ff1682565b604080519283529015156020830152016101d1565b61022d61168081565b6102fc6102f73660046124e7565b610a6e565b6040516101d1919061255a565b61022d61031736600461226c565b610a98565b610324610ab3565b6040516101d1929190612587565b6068546102fc906001600160a01b031681565b606a54606b5461035c916001600160a01b03169082565b6040516101d192919061256e565b6065546102fc906001600160a01b031681565b6101c4610b76565b61022d60745481565b61021061039c36600461234c565b610b85565b6102106103af3660046124e7565b610e4f565b6101ed6103c2366004612320565b610e5c565b6101ed6103d5366004612320565b610ee7565b61022d60665481565b61022d6103f13660046124e7565b610ef5565b610210610404366004612519565b610f16565b606c54606d54610417919082565b604080519283526020830191909152016101d1565b61021061043a3660046124e7565b611016565b6067546102fc906001600160a01b031681565b61021061046036600461226c565b61114c565b61022d6104733660046122a6565b611236565b61022d6104863660046124e7565b611261565b60606036805461049a90612793565b80601f01602080910402602001604051908101604052809291908181526020018280546104c690612793565b80156105135780601f106104e857610100808354040283529160200191610513565b820191906000526020600020905b8154815290600101906020018083116104f657829003601f168201915b5050505050905090565b60003361052b8185856112ab565b5060019392505050565b805182511461054357600080fd5b81516000816001600160401b0381111561055f5761055f612815565b604051908082528060200260200182016040528015610588578160200160208202803683370190505b50905060005b828110156106bb5760006001600160a01b03168582815181106105b3576105b36127ff565b60200260200101516001600160a01b031614156105cf57600080fd5b60008482815181106105e3576105e36127ff565b6020026020010151116105f557600080fd5b60005b825181101561066457828181518110610613576106136127ff565b60200260200101516001600160a01b0316868381518110610636576106366127ff565b60200260200101516001600160a01b0316141561065257600080fd5b8061065c816127ce565b9150506105f8565b50848181518110610677576106776127ff565b6020026020010151828281518110610691576106916127ff565b6001600160a01b0390921660209283029190910190910152806106b3816127ce565b91505061058e565b5050505050565b6068546001600160a01b031633146106d957600080fd5b606e80546106e991607291611faf565b50606f80546106fa91607391611faf565b506071805460ff1916905560685461071a906001600160a01b03166113d0565b6040517ff36b123659e7f76fa32a2aa2e12774361455e152120e66b04d179d9140a4237090600090a1565b6065546001600160a01b031633148061076857506068546001600160a01b031633145b61077157600080fd5b606860009054906101000a90046001600160a01b03166001600160a01b03166367c3b4836040518163ffffffff1660e01b815260040160206040518083038186803b1580156107bf57600080fd5b505afa1580156107d3573d6000803e3d6000fd5b505050506040513d601f19601f820116820180604052508101906107f791906123af565b1561080157600080fd5b6071805460ff191690556065546040517f7f753fc23b8d98e1d3f23e00c3e6337cb1c750bfcd79a5eb38198fdb2dd50e2491610848916001600160a01b039091169061255a565b60405180910390a1565b600033610860858285611492565b61086b85858561150c565b60019150505b9392505050565b6060820151606580546001600160a01b039283166001600160a01b0319918216179091558351606655606780548216331790556068805492841692909116919091179055670de0b6b3a7640000606955608082015180516108e191607291602090910190611fff565b5060a082015180516108fb91607391602090910190612054565b50606854610911906001600160a01b03166113d0565b610923826020015183604001516116a5565b5050565b60003361052b81858561093a8383611236565b61094491906126f7565b6112ab565b6068546001600160a01b0316331461096057600080fd5b6109686116d6565b6109723382611961565b60405181815233907f696de425f79f4a40bc6d2122ca50507f0efbeabbff86a84871b7196ab8ea8df79060200160405180910390a250565b606860009054906101000a90046001600160a01b03166001600160a01b03166367c3b4836040518163ffffffff1660e01b815260040160206040518083038186803b1580156109f857600080fd5b505afa158015610a0c573d6000803e3d6000fd5b505050506040513d601f19601f82011682018060405250810190610a3091906123af565b15610a3a57600080fd5b60008111610a4757600080fd5b80610a5133610a98565b1015610a5c57600080fd5b610a646116d6565b6109688133611a80565b60728181548110610a7e57600080fd5b6000918252602090912001546001600160a01b0316905081565b6001600160a01b031660009081526033602052604090205490565b606080606e600001606e60010181805480602002602001604051908101604052809291908181526020018280548015610b1557602002820191906000526020600020905b81546001600160a01b03168152600190910190602001808311610af7575b5050505050915080805480602002602001604051908101604052809291908181526020018280548015610b6757602002820191906000526020600020905b815481526020019060010190808311610b53575b50505050509050915091509091565b60606037805461049a90612793565b6065546001600160a01b03163314610b9c57600080fd5b610ba68282610535565b60715460ff1615610e2f57607054610bc190611680906126f7565b431015610bcd57600080fd5b606860009054906101000a90046001600160a01b03166001600160a01b03166367c3b4836040518163ffffffff1660e01b815260040160206040518083038186803b158015610c1b57600080fd5b505afa158015610c2f573d6000803e3d6000fd5b505050506040513d601f19601f82011682018060405250810190610c5391906123af565b610d0857606860009054906101000a90046001600160a01b03166001600160a01b0316636b64c7696040518163ffffffff1660e01b8152600401600060405180830381600087803b158015610ca757600080fd5b505af1158015610cbb573d6000803e3d6000fd5b50506065546040517f75f6678af486575bd3d5529cbbef61337718845507c76fa7c370715a7f6c4bd29350610cfc92506001600160a01b039091169061255a565b60405180910390a15050565b606860009054906101000a90046001600160a01b03166001600160a01b031663089e136e6040518163ffffffff1660e01b815260040160206040518083038186803b158015610d5657600080fd5b505afa158015610d6a573d6000803e3d6000fd5b505050506040513d601f19601f82011682018060405250810190610d8e91906123af565b15610d97575050565b606860009054906101000a90046001600160a01b03166001600160a01b031663ae1d82f06040518163ffffffff1660e01b8152600401600060405180830381600087803b158015610de757600080fd5b505af1158015610dfb573d6000803e3d6000fd5b50508351610e129250606e91506020850190611fff565b508051610e2690606f906020840190612054565b50436070555050565b6071805460ff191660011790558151610e1290606e906020850190611fff565b610e598133610f16565b50565b60003381610e6a8286611236565b905083811015610ecf5760405162461bcd60e51b815260206004820152602560248201527f45524332303a2064656372656173656420616c6c6f77616e63652062656c6f77604482015264207a65726f60d81b60648201526084015b60405180910390fd5b610edc82868684036112ab565b506001949350505050565b60003361052b81858561150c565b60738181548110610f0557600080fd5b600091825260209091200154905081565b606860009054906101000a90046001600160a01b03166001600160a01b03166367c3b4836040518163ffffffff1660e01b815260040160206040518083038186803b158015610f6457600080fd5b505afa158015610f78573d6000803e3d6000fd5b505050506040513d601f19601f82011682018060405250810190610f9c91906123af565b15610fa657600080fd5b60008211610fb357600080fd5b610fbb6116d6565b610fc58233611b2c565b610fcf8183611bda565b806001600160a01b03167f30385c845b448a36257a6a1716e6ad2e1bc2cbe333cde1e69fe849ad6511adfe8360405161100a91815260200190565b60405180910390a25050565b6065546001600160a01b0316331461102d57600080fd5b606760009054906101000a90046001600160a01b03166001600160a01b031663d5172c726040518163ffffffff1660e01b815260040160206040518083038186803b15801561107b57600080fd5b505afa15801561108f573d6000803e3d6000fd5b505050506040513d601f19601f820116820180604052508101906110b39190612500565b81101580156110c457506066548114155b6110cd57600080fd5b606c541561114357606c5481146110e357600080fd5b606d546110f390611680906126f7565b4310156110ff57600080fd5b606c8054606681905560009091556040519081527f74eb18939a29d79421724f7a16ca267d96c1c381ae51e02011a0daec3932c68f9060200160405180910390a150565b606c5543606d55565b6065546001600160a01b0316331461116357600080fd5b6001600160a01b03811661117657600080fd5b606a546001600160a01b03161561121257606a546001600160a01b038281169116146111a157600080fd5b606b546111b190611680906126f7565b4310156111bd57600080fd5b606a8054606580546001600160a01b0383166001600160a01b031991821681179092559091169091556040517fc03338f668383af1c20205e21efe0b67ba7bfda360184f445aad4e7b0e9de92390600090a250565b606a80546001600160a01b0383166001600160a01b031990911617905543606b5550565b6001600160a01b03918216600090815260346020908152604080832093909416825291909152205490565b6068546000906001600160a01b0316331461127b57600080fd5b60698290556040518281526000805160206128618339815191529060200160405180910390a1506069545b919050565b6001600160a01b03831661130d5760405162461bcd60e51b8152602060048201526024808201527f45524332303a20617070726f76652066726f6d20746865207a65726f206164646044820152637265737360e01b6064820152608401610ec6565b6001600160a01b03821661136e5760405162461bcd60e51b815260206004820152602260248201527f45524332303a20617070726f766520746f20746865207a65726f206164647265604482015261737360f01b6064820152608401610ec6565b6001600160a01b0383811660008181526034602090815260408083209487168084529482529182902085905590518481527f8c5be1e5ebec7d5bd14f71427d1e84f3dd0314c0f7b2291e5b200ac8c7c3b92591015b60405180910390a3505050565b60005b60735481101561092357607281815481106113f0576113f06127ff565b60009182526020909120015460405163095ea7b360e01b81526001600160a01b039091169063095ea7b39061142d9085906000199060040161256e565b602060405180830381600087803b15801561144757600080fd5b505af115801561145b573d6000803e3d6000fd5b505050506040513d601f19601f8201168201806040525081019061147f91906123af565b508061148a816127ce565b9150506113d3565b600061149e8484611236565b9050600019811461150657818110156114f95760405162461bcd60e51b815260206004820152601d60248201527f45524332303a20696e73756666696369656e7420616c6c6f77616e63650000006044820152606401610ec6565b61150684848484036112ab565b50505050565b6001600160a01b0383166115705760405162461bcd60e51b815260206004820152602560248201527f45524332303a207472616e736665722066726f6d20746865207a65726f206164604482015264647265737360d81b6064820152608401610ec6565b6001600160a01b0382166115d25760405162461bcd60e51b815260206004820152602360248201527f45524332303a207472616e7366657220746f20746865207a65726f206164647260448201526265737360e81b6064820152608401610ec6565b6001600160a01b0383166000908152603360205260409020548181101561164a5760405162461bcd60e51b815260206004820152602660248201527f45524332303a207472616e7366657220616d6f756e7420657863656564732062604482015265616c616e636560d01b6064820152608401610ec6565b6001600160a01b038085166000818152603360205260408082208686039055928616808252908390208054860190559151600080516020612841833981519152906116989086815260200190565b60405180910390a3611506565b600054610100900460ff166116cc5760405162461bcd60e51b8152600401610ec690612631565b6109238282611c89565b6074546116e35742607455565b60006116ee60355490565b90506000607454426117009190612750565b905060006301e187e0606654836117179190612731565b611721919061270f565b9050600061173782670de0b6b3a7640000612750565b6117418386612731565b61174b919061270f565b60655460675460408051631e6d5a4b60e01b81529051939450611808936001600160a01b0393841693670de0b6b3a7640000931691631e6d5a4b916004808301926020929190829003018186803b1580156117a557600080fd5b505afa1580156117b9573d6000803e3d6000fd5b505050506040513d601f19601f820116820180604052508101906117dd9190612500565b6117ef90670de0b6b3a7640000612750565b6117f99085612731565b611803919061270f565b611bda565b60675460408051638da5cb5b60e01b8152905161190a926001600160a01b031691638da5cb5b916004808301926020929190829003018186803b15801561184e57600080fd5b505afa158015611862573d6000803e3d6000fd5b505050506040513d601f19601f820116820180604052508101906118869190612289565b60675460408051631e6d5a4b60e01b81529051670de0b6b3a7640000926001600160a01b031691631e6d5a4b916004808301926020929190829003018186803b1580156118d257600080fd5b505afa1580156118e6573d6000803e3d6000fd5b505050506040513d601f19601f820116820180604052508101906117ef9190612500565b42607455600061191960355490565b856069546119279190612731565b611931919061270f565b60698190556040518181529091506000805160206128618339815191529060200160405180910390a15050505050565b6001600160a01b0382166119c15760405162461bcd60e51b815260206004820152602160248201527f45524332303a206275726e2066726f6d20746865207a65726f206164647265736044820152607360f81b6064820152608401610ec6565b6001600160a01b03821660009081526033602052604090205481811015611a355760405162461bcd60e51b815260206004820152602260248201527f45524332303a206275726e20616d6f756e7420657863656564732062616c616e604482015261636560f01b6064820152608401610ec6565b6001600160a01b038316600081815260336020908152604080832086860390556035805487900390555185815291929160008051602061284183398151915291016113c3565b505050565b60005b607354811015611a7b576000670de0b6b3a76400008060695460738581548110611aaf57611aaf6127ff565b906000526020600020015487611ac59190612731565b611acf9190612731565b611ad9919061270f565b611ae3919061270f565b9050611b19838260728581548110611afd57611afd6127ff565b6000918252602090912001546001600160a01b03169190611cd7565b5080611b24816127ce565b915050611a83565b60005b607354811015611a7b576000670de0b6b3a76400008060695460738581548110611b5b57611b5b6127ff565b906000526020600020015487611b719190612731565b611b7b9190612731565b611b85919061270f565b611b8f919061270f565b9050611bc783308360728681548110611baa57611baa6127ff565b6000918252602090912001546001600160a01b0316929190611d2d565b5080611bd2816127ce565b915050611b2f565b6001600160a01b038216611c305760405162461bcd60e51b815260206004820152601f60248201527f45524332303a206d696e7420746f20746865207a65726f2061646472657373006044820152606401610ec6565b8060356000828254611c4291906126f7565b90915550506001600160a01b038216600081815260336020908152604080832080548601905551848152600080516020612841833981519152910160405180910390a35050565b600054610100900460ff16611cb05760405162461bcd60e51b8152600401610ec690612631565b8151611cc390603690602085019061208f565b508051611a7b90603790602084019061208f565b611a7b8363a9059cbb60e01b8484604051602401611cf692919061256e565b60408051601f198184030181529190526020810180516001600160e01b03166001600160e01b031990931692909217909152611d65565b6040516001600160a01b03808516602483015283166044820152606481018290526115069085906323b872dd60e01b90608401611cf6565b6000611dba826040518060400160405280602081526020017f5361666545524332303a206c6f772d6c6576656c2063616c6c206661696c6564815250856001600160a01b0316611e379092919063ffffffff16565b805190915015611a7b5780806020019051810190611dd891906123af565b611a7b5760405162461bcd60e51b815260206004820152602a60248201527f5361666545524332303a204552433230206f7065726174696f6e20646964206e6044820152691bdd081cdd58d8d9595960b21b6064820152608401610ec6565b6060611e468484600085611e4e565b949350505050565b606082471015611eaf5760405162461bcd60e51b815260206004820152602660248201527f416464726573733a20696e73756666696369656e742062616c616e636520666f6044820152651c8818d85b1b60d21b6064820152608401610ec6565b843b611efd5760405162461bcd60e51b815260206004820152601d60248201527f416464726573733a2063616c6c20746f206e6f6e2d636f6e74726163740000006044820152606401610ec6565b600080866001600160a01b03168587604051611f19919061253e565b60006040518083038185875af1925050503d8060008114611f56576040519150601f19603f3d011682016040523d82523d6000602084013e611f5b565b606091505b5091509150611f6b828286611f76565b979650505050505050565b60608315611f85575081610871565b825115611f955782518084602001fd5b8160405162461bcd60e51b8152600401610ec691906125fe565b828054828255906000526020600020908101928215611fef5760005260206000209182015b82811115611fef578254825591600101919060010190611fd4565b50611ffb929150612102565b5090565b828054828255906000526020600020908101928215611fef579160200282015b82811115611fef57825182546001600160a01b0319166001600160a01b0390911617825560209092019160019091019061201f565b828054828255906000526020600020908101928215611fef579160200282015b82811115611fef578251825591602001919060010190612074565b82805461209b90612793565b90600052602060002090601f0160209004810192826120bd5760008555611fef565b82601f106120d657805160ff1916838001178555611fef565b82800160010185558215611fef5791820182811115611fef578251825591602001919060010190612074565b5b80821115611ffb5760008155600101612103565b80356112a68161282b565b600082601f83011261213357600080fd5b81356020612148612143836126d4565b6126a4565b80838252828201915082860187848660051b890101111561216857600080fd5b60005b8581101561219057813561217e8161282b565b8452928401929084019060010161216b565b5090979650505050505050565b600082601f8301126121ae57600080fd5b813560206121be612143836126d4565b80838252828201915082860187848660051b89010111156121de57600080fd5b60005b85811015612190578135845292840192908401906001016121e1565b600082601f83011261220e57600080fd5b81356001600160401b0381111561222757612227612815565b61223a601f8201601f19166020016126a4565b81815284602083860101111561224f57600080fd5b816020850160208301376000918101602001919091529392505050565b60006020828403121561227e57600080fd5b81356108718161282b565b60006020828403121561229b57600080fd5b81516108718161282b565b600080604083850312156122b957600080fd5b82356122c48161282b565b915060208301356122d48161282b565b809150509250929050565b6000806000606084860312156122f457600080fd5b83356122ff8161282b565b9250602084013561230f8161282b565b929592945050506040919091013590565b6000806040838503121561233357600080fd5b823561233e8161282b565b946020939093013593505050565b6000806040838503121561235f57600080fd5b82356001600160401b038082111561237657600080fd5b61238286838701612122565b9350602085013591508082111561239857600080fd5b506123a58582860161219d565b9150509250929050565b6000602082840312156123c157600080fd5b8151801515811461087157600080fd5b600080604083850312156123e457600080fd5b82356001600160401b03808211156123fb57600080fd5b9084019060e0828703121561240f57600080fd5b61241761267c565b8235815260208301358281111561242d57600080fd5b612439888286016121fd565b60208301525060408301358281111561245157600080fd5b61245d888286016121fd565b60408301525061246f60608401612117565b606082015260808301358281111561248657600080fd5b61249288828601612122565b60808301525060a0830135828111156124aa57600080fd5b6124b68882860161219d565b60a0830152506124c860c08401612117565b60c082015293506124de91505060208401612117565b90509250929050565b6000602082840312156124f957600080fd5b5035919050565b60006020828403121561251257600080fd5b5051919050565b6000806040838503121561252c57600080fd5b8235915060208301356122d48161282b565b60008251612550818460208701612767565b9190910192915050565b6001600160a01b0391909116815260200190565b6001600160a01b03929092168252602082015260400190565b604080825283519082018190526000906020906060840190828701845b828110156125c95781516001600160a01b0316845292840192908401906001016125a4565b5050508381038285015284518082528583019183019060005b81811015612190578351835292840192918401916001016125e2565b602081526000825180602084015261261d816040850160208701612767565b601f01601f19169190910160400192915050565b6020808252602b908201527f496e697469616c697a61626c653a20636f6e7472616374206973206e6f74206960408201526a6e697469616c697a696e6760a81b606082015260800190565b60405160e081016001600160401b038111828210171561269e5761269e612815565b60405290565b604051601f8201601f191681016001600160401b03811182821017156126cc576126cc612815565b604052919050565b60006001600160401b038211156126ed576126ed612815565b5060051b60200190565b6000821982111561270a5761270a6127e9565b500190565b60008261272c57634e487b7160e01b600052601260045260246000fd5b500490565b600081600019048311821515161561274b5761274b6127e9565b500290565b600082821015612762576127626127e9565b500390565b60005b8381101561278257818101518382015260200161276a565b838111156115065750506000910152565b600181811c908216806127a757607f821691505b602082108114156127c857634e487b7160e01b600052602260045260246000fd5b50919050565b60006000198214156127e2576127e26127e9565b5060010190565b634e487b7160e01b600052601160045260246000fd5b634e487b7160e01b600052603260045260246000fd5b634e487b7160e01b600052604160045260246000fd5b6001600160a01b0381168114610e5957600080fdfeddf252ad1be2c89b69c2b068fc378daa952ba7f163c4a11628f55a4df523b3efa1a1b7ab78876f7189087445ea5c3b24e2c620e85ca418855a3341eee17716e5a26469706673582212203eb04578ea0bc5645f3cfc2b19f9b4642de5d6e62b6bc1292ed46074f812ed5a64736f6c63430008070033",
  "linkReferences": {},
  "deployedLinkReferences": {}
}