{
  "_format": "hh-sol-artifact-1",
  "contractName": "TraderMock",
  "sourceName": "contracts/test/TraderMock.sol",
  "abi": [
    {
      "inputs": [],
      "stateMutability": "nonpayable",
      "type": "constructor"
    },
    {
      "inputs": [],
      "name": "EIP712_DOMAIN",
      "outputs": [
        {
          "internalType": "bytes32",
          "name": "",
          "type": "bytes32"
        }
      ],
      "stateMutability": "view",
      "type": "function"
    },
    {
      "inputs": [
        {
          "internalType": "bytes32",
          "name": "",
          "type": "bytes32"
        }
      ],
      "name": "averageExecutionPrice",
      "outputs": [
        {
          "internalType": "uint256",
          "name": "",
          "type": "uint256"
        }
      ],
      "stateMutability": "view",
      "type": "function"
    },
    {
      "inputs": [],
      "name": "chainId",
      "outputs": [
        {
          "internalType": "uint256",
          "name": "",
          "type": "uint256"
        }
      ],
      "stateMutability": "view",
      "type": "function"
    },
    {
      "inputs": [
        {
          "components": [
            {
              "components": [
                {
                  "internalType": "address",
                  "name": "maker",
                  "type": "address"
                },
                {
                  "internalType": "address",
                  "name": "market",
                  "type": "address"
                },
                {
                  "internalType": "uint256",
                  "name": "price",
                  "type": "uint256"
                },
                {
                  "internalType": "uint256",
                  "name": "amount",
                  "type": "uint256"
                },
                {
                  "internalType": "enum Perpetuals.Side",
                  "name": "side",
                  "type": "uint8"
                },
                {
                  "internalType": "uint256",
                  "name": "expires",
                  "type": "uint256"
                },
                {
                  "internalType": "uint256",
                  "name": "created",
                  "type": "uint256"
                }
              ],
              "internalType": "struct Perpetuals.Order",
              "name": "order",
              "type": "tuple"
            },
            {
              "internalType": "bytes32",
              "name": "sigR",
              "type": "bytes32"
            },
            {
              "internalType": "bytes32",
              "name": "sigS",
              "type": "bytes32"
            },
            {
              "internalType": "uint8",
              "name": "sigV",
              "type": "uint8"
            }
          ],
          "internalType": "struct Types.SignedLimitOrder",
          "name": "order",
          "type": "tuple"
        }
      ],
      "name": "clearFilled",
      "outputs": [],
      "stateMutability": "nonpayable",
      "type": "function"
    },
    {
      "inputs": [
        {
          "components": [
            {
              "components": [
                {
                  "internalType": "address",
                  "name": "maker",
                  "type": "address"
                },
                {
                  "internalType": "address",
                  "name": "market",
                  "type": "address"
                },
                {
                  "internalType": "uint256",
                  "name": "price",
                  "type": "uint256"
                },
                {
                  "internalType": "uint256",
                  "name": "amount",
                  "type": "uint256"
                },
                {
                  "internalType": "enum Perpetuals.Side",
                  "name": "side",
                  "type": "uint8"
                },
                {
                  "internalType": "uint256",
                  "name": "expires",
                  "type": "uint256"
                },
                {
                  "internalType": "uint256",
                  "name": "created",
                  "type": "uint256"
                }
              ],
              "internalType": "struct Perpetuals.Order",
              "name": "order",
              "type": "tuple"
            },
            {
              "internalType": "bytes32",
              "name": "sigR",
              "type": "bytes32"
            },
            {
              "internalType": "bytes32",
              "name": "sigS",
              "type": "bytes32"
            },
            {
              "internalType": "uint8",
              "name": "sigV",
              "type": "uint8"
            }
          ],
          "internalType": "struct Types.SignedLimitOrder[]",
          "name": "makers",
          "type": "tuple[]"
        },
        {
          "components": [
            {
              "components": [
                {
                  "internalType": "address",
                  "name": "maker",
                  "type": "address"
                },
                {
                  "internalType": "address",
                  "name": "market",
                  "type": "address"
                },
                {
                  "internalType": "uint256",
                  "name": "price",
                  "type": "uint256"
                },
                {
                  "internalType": "uint256",
                  "name": "amount",
                  "type": "uint256"
                },
                {
                  "internalType": "enum Perpetuals.Side",
                  "name": "side",
                  "type": "uint8"
                },
                {
                  "internalType": "uint256",
                  "name": "expires",
                  "type": "uint256"
                },
                {
                  "internalType": "uint256",
                  "name": "created",
                  "type": "uint256"
                }
              ],
              "internalType": "struct Perpetuals.Order",
              "name": "order",
              "type": "tuple"
            },
            {
              "internalType": "bytes32",
              "name": "sigR",
              "type": "bytes32"
            },
            {
              "internalType": "bytes32",
              "name": "sigS",
              "type": "bytes32"
            },
            {
              "internalType": "uint8",
              "name": "sigV",
              "type": "uint8"
            }
          ],
          "internalType": "struct Types.SignedLimitOrder[]",
          "name": "takers",
          "type": "tuple[]"
        }
      ],
      "name": "executeTrade",
      "outputs": [],
      "stateMutability": "nonpayable",
      "type": "function"
    },
    {
      "inputs": [
        {
          "internalType": "bytes32",
          "name": "",
          "type": "bytes32"
        }
      ],
      "name": "filled",
      "outputs": [
        {
          "internalType": "uint256",
          "name": "",
          "type": "uint256"
        }
      ],
      "stateMutability": "view",
      "type": "function"
    },
    {
      "inputs": [
        {
          "components": [
            {
              "internalType": "address",
              "name": "maker",
              "type": "address"
            },
            {
              "internalType": "address",
              "name": "market",
              "type": "address"
            },
            {
              "internalType": "uint256",
              "name": "price",
              "type": "uint256"
            },
            {
              "internalType": "uint256",
              "name": "amount",
              "type": "uint256"
            },
            {
              "internalType": "enum Perpetuals.Side",
              "name": "side",
              "type": "uint8"
            },
            {
              "internalType": "uint256",
              "name": "expires",
              "type": "uint256"
            },
            {
              "internalType": "uint256",
              "name": "created",
              "type": "uint256"
            }
          ],
          "internalType": "struct Perpetuals.Order",
          "name": "order",
          "type": "tuple"
        }
      ],
      "name": "filledAmount",
      "outputs": [
        {
          "internalType": "uint256",
          "name": "",
          "type": "uint256"
        }
      ],
      "stateMutability": "view",
      "type": "function"
    },
    {
      "inputs": [
        {
          "components": [
            {
              "internalType": "address",
              "name": "maker",
              "type": "address"
            },
            {
              "internalType": "address",
              "name": "market",
              "type": "address"
            },
            {
              "internalType": "uint256",
              "name": "price",
              "type": "uint256"
            },
            {
              "internalType": "uint256",
              "name": "amount",
              "type": "uint256"
            },
            {
              "internalType": "enum Perpetuals.Side",
              "name": "side",
              "type": "uint8"
            },
            {
              "internalType": "uint256",
              "name": "expires",
              "type": "uint256"
            },
            {
              "internalType": "uint256",
              "name": "created",
              "type": "uint256"
            }
          ],
          "internalType": "struct Perpetuals.Order",
          "name": "order",
          "type": "tuple"
        }
      ],
      "name": "getAverageExecutionPrice",
      "outputs": [
        {
          "internalType": "uint256",
          "name": "",
          "type": "uint256"
        }
      ],
      "stateMutability": "view",
      "type": "function"
    },
    {
      "inputs": [],
      "name": "getDomain",
      "outputs": [
        {
          "internalType": "bytes32",
          "name": "",
          "type": "bytes32"
        }
      ],
      "stateMutability": "view",
      "type": "function"
    },
    {
      "inputs": [
        {
          "components": [
            {
              "internalType": "address",
              "name": "maker",
              "type": "address"
            },
            {
              "internalType": "address",
              "name": "market",
              "type": "address"
            },
            {
              "internalType": "uint256",
              "name": "price",
              "type": "uint256"
            },
            {
              "internalType": "uint256",
              "name": "amount",
              "type": "uint256"
            },
            {
              "internalType": "enum Perpetuals.Side",
              "name": "side",
              "type": "uint8"
            },
            {
              "internalType": "uint256",
              "name": "expires",
              "type": "uint256"
            },
            {
              "internalType": "uint256",
              "name": "created",
              "type": "uint256"
            }
          ],
          "internalType": "struct Perpetuals.Order",
          "name": "order",
          "type": "tuple"
        }
      ],
      "name": "getOrder",
      "outputs": [
        {
          "components": [
            {
              "internalType": "address",
              "name": "maker",
              "type": "address"
            },
            {
              "internalType": "address",
              "name": "market",
              "type": "address"
            },
            {
              "internalType": "uint256",
              "name": "price",
              "type": "uint256"
            },
            {
              "internalType": "uint256",
              "name": "amount",
              "type": "uint256"
            },
            {
              "internalType": "enum Perpetuals.Side",
              "name": "side",
              "type": "uint8"
            },
            {
              "internalType": "uint256",
              "name": "expires",
              "type": "uint256"
            },
            {
              "internalType": "uint256",
              "name": "created",
              "type": "uint256"
            }
          ],
          "internalType": "struct Perpetuals.Order",
          "name": "",
          "type": "tuple"
        }
      ],
      "stateMutability": "view",
      "type": "function"
    },
    {
      "inputs": [
        {
          "components": [
            {
              "internalType": "address",
              "name": "maker",
              "type": "address"
            },
            {
              "internalType": "address",
              "name": "market",
              "type": "address"
            },
            {
              "internalType": "uint256",
              "name": "price",
              "type": "uint256"
            },
            {
              "internalType": "uint256",
              "name": "amount",
              "type": "uint256"
            },
            {
              "internalType": "enum Perpetuals.Side",
              "name": "side",
              "type": "uint8"
            },
            {
              "internalType": "uint256",
              "name": "expires",
              "type": "uint256"
            },
            {
              "internalType": "uint256",
              "name": "created",
              "type": "uint256"
            }
          ],
          "internalType": "struct Perpetuals.Order",
          "name": "order",
          "type": "tuple"
        }
      ],
      "name": "hashOrder",
      "outputs": [
        {
          "internalType": "bytes32",
          "name": "",
          "type": "bytes32"
        }
      ],
      "stateMutability": "view",
      "type": "function"
    },
    {
      "inputs": [
        {
          "internalType": "bytes32",
          "name": "",
          "type": "bytes32"
        }
      ],
      "name": "orderToSig",
      "outputs": [
        {
          "components": [
            {
              "internalType": "address",
              "name": "maker",
              "type": "address"
            },
            {
              "internalType": "address",
              "name": "market",
              "type": "address"
            },
            {
              "internalType": "uint256",
              "name": "price",
              "type": "uint256"
            },
            {
              "internalType": "uint256",
              "name": "amount",
              "type": "uint256"
            },
            {
              "internalType": "enum Perpetuals.Side",
              "name": "side",
              "type": "uint8"
            },
            {
              "internalType": "uint256",
              "name": "expires",
              "type": "uint256"
            },
            {
              "internalType": "uint256",
              "name": "created",
              "type": "uint256"
            }
          ],
          "internalType": "struct Perpetuals.Order",
          "name": "order",
          "type": "tuple"
        },
        {
          "internalType": "bytes32",
          "name": "sigR",
          "type": "bytes32"
        },
        {
          "internalType": "bytes32",
          "name": "sigS",
          "type": "bytes32"
        },
        {
          "internalType": "uint8",
          "name": "sigV",
          "type": "uint8"
        }
      ],
      "stateMutability": "view",
      "type": "function"
    },
    {
      "inputs": [
        {
          "internalType": "bytes32",
          "name": "",
          "type": "bytes32"
        }
      ],
      "name": "orders",
      "outputs": [
        {
          "internalType": "address",
          "name": "maker",
          "type": "address"
        },
        {
          "internalType": "address",
          "name": "market",
          "type": "address"
        },
        {
          "internalType": "uint256",
          "name": "price",
          "type": "uint256"
        },
        {
          "internalType": "uint256",
          "name": "amount",
          "type": "uint256"
        },
        {
          "internalType": "enum Perpetuals.Side",
          "name": "side",
          "type": "uint8"
        },
        {
          "internalType": "uint256",
          "name": "expires",
          "type": "uint256"
        },
        {
          "internalType": "uint256",
          "name": "created",
          "type": "uint256"
        }
      ],
      "stateMutability": "view",
      "type": "function"
    },
    {
      "inputs": [
        {
          "internalType": "address",
          "name": "signer",
          "type": "address"
        },
        {
          "components": [
            {
              "components": [
                {
                  "internalType": "address",
                  "name": "maker",
                  "type": "address"
                },
                {
                  "internalType": "address",
                  "name": "market",
                  "type": "address"
                },
                {
                  "internalType": "uint256",
                  "name": "price",
                  "type": "uint256"
                },
                {
                  "internalType": "uint256",
                  "name": "amount",
                  "type": "uint256"
                },
                {
                  "internalType": "enum Perpetuals.Side",
                  "name": "side",
                  "type": "uint8"
                },
                {
                  "internalType": "uint256",
                  "name": "expires",
                  "type": "uint256"
                },
                {
                  "internalType": "uint256",
                  "name": "created",
                  "type": "uint256"
                }
              ],
              "internalType": "struct Perpetuals.Order",
              "name": "order",
              "type": "tuple"
            },
            {
              "internalType": "bytes32",
              "name": "sigR",
              "type": "bytes32"
            },
            {
              "internalType": "bytes32",
              "name": "sigS",
              "type": "bytes32"
            },
            {
              "internalType": "uint8",
              "name": "sigV",
              "type": "uint8"
            }
          ],
          "internalType": "struct Types.SignedLimitOrder",
          "name": "signedOrder",
          "type": "tuple"
        }
      ],
      "name": "verifySignature",
      "outputs": [
        {
          "internalType": "bool",
          "name": "",
          "type": "bool"
        }
      ],
      "stateMutability": "view",
      "type": "function"
    }
  ],
  "bytecode": "0x60a060405234801561001057600080fd5b50604080518082018252600f81526e151c9858d95c88141c9bdd1bd8dbdb608a1b6020918201528151808301835260038152620312e360ec1b9082015290516100c5917f8b73c3c69bb8fe3d512ecc4cf759cc79239f7b179b0ffacaa9a75d522b39400f917f2bb4b70b333d2a03489748181018093d28b04a50542e25db9ba4b53566d4253a917fe6bbd6277e1bf288eed5e8d1780f9a50b239e86b153736bceebccf4ea79d90b391610539913091016100e5565b60408051601f198184030181529190528051602090910120608052610111565b9485526020850193909352604084019190915260608301526001600160a01b0316608082015260a00190565b60805161106661012c600039600061078f01526110666000f3fe608060405234801561001057600080fd5b50600436106100ea5760003560e01c80639c3f1e901161008c578063d2f71b2f11610066578063d2f71b2f146101ec578063d5cc6189146101ff578063e1b11da414610212578063f504fd3d1461021a576100ea565b80639c3f1e901461019b578063b68d1809146101c1578063cff95efe146101c9576100ea565b80633c97d621116100c85780633c97d6211461014d5780638038b4781461016057806382b3e3e9146101735780639a8a059214610193576100ea565b80631d660a8d146100ef578063288cdc9114610104578063370b70cf1461012d575b600080fd5b6101026100fd366004610ccf565b61022d565b005b610117610112366004610d30565b61050b565b6040516101249190610edb565b60405180910390f35b61014061013b366004610c9b565b61051d565b6040516101249190610ed0565b61011761015b366004610d5f565b610525565b61011761016e366004610d30565b61054b565b610186610181366004610d48565b61055d565b6040516101249190610f52565b61011761063b565b6101ae6101a9366004610d30565b610641565b6040516101249796959493929190610e88565b61011761068e565b6101dc6101d7366004610d30565b610693565b6040516101249493929190610f60565b6101176101fa366004610d5f565b610760565b61010261020d366004610d7a565b610766565b61011761078d565b610117610228366004610d5f565b6107b1565b80518251146102575760405162461bcd60e51b815260040161024e90610f1b565b60405180910390fd5b8151806102765760405162461bcd60e51b815260040161024e90610ee4565b60005b81811015610505576102e18382815181106102a457634e487b7160e01b600052603260045260246000fd5b6020026020010151600001518583815181106102d057634e487b7160e01b600052603260045260246000fd5b6020026020010151600001516107c0565b6102ea576104f3565b600084828151811061030c57634e487b7160e01b600052603260045260246000fd5b6020026020010151600001519050600084838151811061033c57634e487b7160e01b600052603260045260246000fd5b60200260200101516000015190506000610355836107e8565b90506000610362836107e8565b6000838152600260205260408082205483835290822054929350919061038a87848885610818565b90506000610398888861084d565b600087815260036020526040812054919250906103b8908690858561087c565b600087815260036020526040812054919250906103d8908690868661087c565b905060008a602001516001600160a01b0316635a90f5da60e01b8c8c8860405160200161040793929190610f8f565b60408051601f19818403018152908290526104259291602001610e48565b60408051601f198184030181529082905261043f91610e7c565b6000604051808303816000865af19150503d806000811461047c576040519150601f19603f3d011682016040523d82523d6000602084013e610481565b606091505b505090508061049a5750505050505050505050506104f3565b6104a48588610fba565b60008a8152600260205260409020556104bd8587610fba565b6000898152600260209081526040808320939093559a81526003909a52808a209390935550958752909520939093555050505050505b806104fd81610fe9565b915050610279565b50505050565b60026020526000908152604090205481565b600092915050565b600060026000610534846107e8565b81526020019081526020016000205490505b919050565b60036020526000908152604090205481565b610565610a82565b600061057e61057936859003850185610d5f565b6107e8565b60008181526020818152604091829020825160e08101845281546001600160a01b039081168252600180840154909116938201939093526002820154938101939093526003810154606084015260048101549394509192608084019160ff909116908111156105fd57634e487b7160e01b600052602160045260246000fd5b600181111561061c57634e487b7160e01b600052602160045260246000fd5b8152600582015460208201526006909101546040909101529392505050565b61053981565b60006020819052908152604090208054600182015460028301546003840154600485015460058601546006909601546001600160a01b039586169695909416949293919260ff9091169187565b600090565b600160208181526000928352604092839020835160e08101855281546001600160a01b03908116825282850154169281019290925260028101549382019390935260038301546060820152600483015490918391608084019160ff9091169081111561070f57634e487b7160e01b600052602160045260246000fd5b600181111561072e57634e487b7160e01b600052602160045260246000fd5b815260058201546020820152600690910154604090910152600782015460088301546009909301549192909160ff1684565b50600090565b60006002600061077984600001516107e8565b815260208101919091526040016000205550565b7f000000000000000000000000000000000000000000000000000000000000000081565b600060036000610534846107e8565b600081602001516001600160a01b031683602001516001600160a01b03161490505b92915050565b6000816040516020016107fb9190610f52565b604051602081830303815290604052805190602001209050919050565b600061084284866060015161082d9190610fd2565b83856060015161083d9190610fd2565b6108da565b90505b949350505050565b6000808260c001518460c0015111159050801561087057505060408201516107e2565b505060408101516107e2565b60008061088986866108f2565b9050600061089785856108f2565b905060006108a58689610fba565b9050806108b85760009350505050610845565b60006108cd6108c78486610fba565b836108fe565b9998505050505050505050565b60008183106108e957816108eb565b825b9392505050565b60006108eb8383610913565b60006108eb83670de0b6b3a7640000846109d8565b60008080600019848609848602925082811083820303915050600080670de0b6b3a76400008688099150506706f05b59d3b1ffff8111826109665780670de0b6b3a76400008504019450505050506107e2565b82670de0b6b3a76400001161097a57600080fd5b6204000082850304939091119091037d40000000000000000000000000000000000000000000000000000000000002919091177faccb18165bd6fe31ae1cf318dc5b51eee0e1ba569b88cd74c1773b91fac106690201905092915050565b6000808060001985870986860292508281109083900303905080610a0e5760008411610a0357600080fd5b5082900490506108eb565b808411610a1a57600080fd5b600084868809600260036001881981018916988990049182028318808302840302808302840302808302840302808302840302808302840302918202909203026000889003889004909101858311909403939093029303949094049190911702949350505050565b6040805160e08101825260008082526020820181905291810182905260608101829052906080820190815260200160008152602001600081525090565b80356001600160a01b038116811461054657600080fd5b600082601f830112610ae6578081fd5b8135602067ffffffffffffffff80831115610b0357610b0361101a565b604051828385028201018181108382111715610b2157610b2161101a565b604052838152828101915085830161014080860288018501891015610b44578687fd5b865b86811015610b6a57610b588a84610c1d565b85529385019391810191600101610b46565b509198975050505050505050565b80356002811061054657600080fd5b600060e08284031215610b98578081fd5b60405160e0810181811067ffffffffffffffff82111715610bbb57610bbb61101a565b604052905080610bca83610abf565b8152610bd860208401610abf565b60208201526040830135604082015260608301356060820152610bfd60808401610b78565b608082015260a083013560a082015260c083013560c08201525092915050565b60006101408284031215610c2f578081fd5b6040516080810181811067ffffffffffffffff82111715610c5257610c5261101a565b604052905080610c628484610b87565b815260e08301356020820152610100830135604082015261012083013560ff81168114610c8e57600080fd5b6060919091015292915050565b6000806101608385031215610cae578182fd5b610cb783610abf565b9150610cc68460208501610c1d565b90509250929050565b60008060408385031215610ce1578182fd5b823567ffffffffffffffff80821115610cf8578384fd5b610d0486838701610ad6565b93506020850135915080821115610d19578283fd5b50610d2685828601610ad6565b9150509250929050565b600060208284031215610d41578081fd5b5035919050565b600060e08284031215610d59578081fd5b50919050565b600060e08284031215610d70578081fd5b6108eb8383610b87565b60006101408284031215610d8c578081fd5b6108eb8383610c1d565b60008151815b81811015610db65760208185018101518683015201610d9c565b81811115610dc45782828601525b509290920192915050565b60028110610ded57634e487b7160e01b600052602160045260246000fd5b9052565b6001600160a01b038082511683528060208301511660208401525060408101516040830152606081015160608301526080810151610e326080840182610dcf565b5060a0818101519083015260c090810151910152565b60007fffffffff00000000000000000000000000000000000000000000000000000000841682526108456004830184610d96565b60006108eb8284610d96565b6001600160a01b03888116825287166020820152604081018690526060810185905260e08101610ebb6080830186610dcf565b60a082019390935260c0015295945050505050565b901515815260200190565b90815260200190565b6020808252601a908201527f5444523a20526563656976656420656d70747920617272617973000000000000604082015260600190565b60208082526013908201527f5444523a204c656e677468732064696666657200000000000000000000000000604082015260600190565b60e081016107e28284610df1565b6101408101610f6f8287610df1565b8460e08301528361010083015260ff831661012083015295945050505050565b6101e08101610f9e8286610df1565b610fab60e0830185610df1565b826101c0830152949350505050565b60008219821115610fcd57610fcd611004565b500190565b600082821015610fe457610fe4611004565b500390565b6000600019821415610ffd57610ffd611004565b5060010190565b634e487b7160e01b600052601160045260246000fd5b634e487b7160e01b600052604160045260246000fdfea2646970667358221220f31e84f4a48ad2a18ede7a62069c547ec19c0a3600482463dfe27ea608e23caa64736f6c63430008000033",
  "linkReferences": {},
  "deployedLinkReferences": {}
}