{
  "_format": "hh-sol-artifact-1",
  "contractName": "MockERC20Swapper",
  "sourceName": "contracts/testing/MockERC20Swapper.sol",
  "abi": [
    {
      "inputs": [],
      "name": "RATE",
      "outputs": [
        {
          "internalType": "uint256",
          "name": "",
          "type": "uint256"
        }
      ],
      "stateMutability": "view",
      "type": "function"
    },
    {
      "inputs": [
        {
          "internalType": "address",
          "name": "",
          "type": "address"
        },
        {
          "internalType": "address",
          "name": "",
          "type": "address"
        }
      ],
      "name": "getRate",
      "outputs": [
        {
          "internalType": "uint256",
          "name": "",
          "type": "uint256"
        }
      ],
      "stateMutability": "pure",
      "type": "function"
    },
    {
      "inputs": [
        {
          "internalType": "address",
          "name": "",
          "type": "address"
        },
        {
          "internalType": "address",
          "name": "toToken",
          "type": "address"
        },
        {
          "internalType": "uint256",
          "name": "swapAmount",
          "type": "uint256"
        },
        {
          "internalType": "uint256",
          "name": "",
          "type": "uint256"
        }
      ],
      "name": "swap",
      "outputs": [
        {
          "internalType": "uint256",
          "name": "",
          "type": "uint256"
        }
      ],
      "stateMutability": "nonpayable",
      "type": "function"
    }
  ],
  "bytecode": "0x608060405234801561001057600080fd5b50610292806100206000396000f3fe608060405234801561001057600080fd5b50600436106100415760003560e01c8063379b87ea14610046578063664e970414610075578063fe02915614610084575b600080fd5b610063610054366004610176565b670f43fc2c04ee000092915050565b60405190815260200160405180910390f35b610063670f43fc2c04ee000081565b6100636100923660046101a9565b6000806100a784670f43fc2c04ee0000610134565b60405163a9059cbb60e01b8152336004820152602481018290529091506001600160a01b0386169063a9059cbb90604401602060405180830381600087803b1580156100f257600080fd5b505af1158015610106573d6000803e3d6000fd5b505050506040513d601f19601f8201168201806040525081019061012a91906101eb565b5095945050505050565b6000670de0b6b3a7640000610149838561020d565b610153919061023a565b9392505050565b80356001600160a01b038116811461017157600080fd5b919050565b6000806040838503121561018957600080fd5b6101928361015a565b91506101a06020840161015a565b90509250929050565b600080600080608085870312156101bf57600080fd5b6101c88561015a565b93506101d66020860161015a565b93969395505050506040820135916060013590565b6000602082840312156101fd57600080fd5b8151801515811461015357600080fd5b600081600019048311821515161561023557634e487b7160e01b600052601160045260246000fd5b500290565b60008261025757634e487b7160e01b600052601260045260246000fd5b50049056fea2646970667358221220522e8c9ab7372171f678ede0d1588e8da1d9e697c911571d64283f89068e0bdb64736f6c63430008090033",
  "linkReferences": {},
  "deployedLinkReferences": {}
}