{
  "_format": "hh-sol-artifact-1",
  "contractName": "RoyaltyVault",
  "sourceName": "@chestrnft/royalty-vault/contracts/RoyaltyVault.sol",
  "abi": [
    {
      "anonymous": false,
      "inputs": [
        {
          "indexed": true,
          "internalType": "address",
          "name": "platformFeeRecipient",
          "type": "address"
        },
        {
          "indexed": false,
          "internalType": "uint256",
          "name": "amount",
          "type": "uint256"
        }
      ],
      "name": "FeeSentToPlatform",
      "type": "event"
    },
    {
      "anonymous": false,
      "inputs": [
        {
          "indexed": false,
          "internalType": "uint256",
          "name": "platformFee",
          "type": "uint256"
        }
      ],
      "name": "NewRoyaltyVaultPlatformFee",
      "type": "event"
    },
    {
      "anonymous": false,
      "inputs": [
        {
          "indexed": false,
          "internalType": "address",
          "name": "recipient",
          "type": "address"
        }
      ],
      "name": "NewRoyaltyVaultPlatformFeeRecipient",
      "type": "event"
    },
    {
      "anonymous": false,
      "inputs": [
        {
          "indexed": true,
          "internalType": "address",
          "name": "previousOwner",
          "type": "address"
        },
        {
          "indexed": true,
          "internalType": "address",
          "name": "newOwner",
          "type": "address"
        }
      ],
      "name": "OwnershipTransferred",
      "type": "event"
    },
    {
      "anonymous": false,
      "inputs": [
        {
          "indexed": true,
          "internalType": "address",
          "name": "splitter",
          "type": "address"
        },
        {
          "indexed": false,
          "internalType": "uint256",
          "name": "amount",
          "type": "uint256"
        }
      ],
      "name": "RoyaltySentToSplitter",
      "type": "event"
    },
    {
      "inputs": [],
      "name": "getSplitter",
      "outputs": [
        {
          "internalType": "address",
          "name": "",
          "type": "address"
        }
      ],
      "stateMutability": "view",
      "type": "function"
    },
    {
      "inputs": [],
      "name": "getVaultBalance",
      "outputs": [
        {
          "internalType": "uint256",
          "name": "",
          "type": "uint256"
        }
      ],
      "stateMutability": "view",
      "type": "function"
    },
    {
      "inputs": [],
      "name": "owner",
      "outputs": [
        {
          "internalType": "address",
          "name": "",
          "type": "address"
        }
      ],
      "stateMutability": "view",
      "type": "function"
    },
    {
      "inputs": [],
      "name": "platformFee",
      "outputs": [
        {
          "internalType": "uint256",
          "name": "",
          "type": "uint256"
        }
      ],
      "stateMutability": "view",
      "type": "function"
    },
    {
      "inputs": [],
      "name": "platformFeeRecipient",
      "outputs": [
        {
          "internalType": "address",
          "name": "",
          "type": "address"
        }
      ],
      "stateMutability": "view",
      "type": "function"
    },
    {
      "inputs": [],
      "name": "renounceOwnership",
      "outputs": [],
      "stateMutability": "nonpayable",
      "type": "function"
    },
    {
      "inputs": [],
      "name": "royaltyAsset",
      "outputs": [
        {
          "internalType": "address",
          "name": "",
          "type": "address"
        }
      ],
      "stateMutability": "view",
      "type": "function"
    },
    {
      "inputs": [],
      "name": "sendToSplitter",
      "outputs": [],
      "stateMutability": "nonpayable",
      "type": "function"
    },
    {
      "inputs": [
        {
          "internalType": "uint256",
          "name": "_platformFee",
          "type": "uint256"
        }
      ],
      "name": "setPlatformFee",
      "outputs": [],
      "stateMutability": "nonpayable",
      "type": "function"
    },
    {
      "inputs": [
        {
          "internalType": "address",
          "name": "_platformFeeRecipient",
          "type": "address"
        }
      ],
      "name": "setPlatformFeeRecipient",
      "outputs": [],
      "stateMutability": "nonpayable",
      "type": "function"
    },
    {
      "inputs": [],
      "name": "splitterProxy",
      "outputs": [
        {
          "internalType": "address",
          "name": "",
          "type": "address"
        }
      ],
      "stateMutability": "view",
      "type": "function"
    },
    {
      "inputs": [
        {
          "internalType": "bytes4",
          "name": "interfaceId",
          "type": "bytes4"
        }
      ],
      "name": "supportsInterface",
      "outputs": [
        {
          "internalType": "bool",
          "name": "",
          "type": "bool"
        }
      ],
      "stateMutability": "view",
      "type": "function"
    },
    {
      "inputs": [
        {
          "internalType": "address",
          "name": "newOwner",
          "type": "address"
        }
      ],
      "name": "transferOwnership",
      "outputs": [],
      "stateMutability": "nonpayable",
      "type": "function"
    }
  ],
  "bytecode": "0x608060405234801561001057600080fd5b5061001a3361001f565b610071565b600480546001600160a01b038381166001600160a01b0319831681179093556040519116919082907f8be0079c531659141344cd1fd0a4f28419497f9722a3daafe3b4186f6b6457e090600090a35050565b610bb4806100806000396000f3fe608060405234801561001057600080fd5b50600436106100df5760003560e01c80638da5cb5b1161008c578063c894ad4911610066578063c894ad49146101e6578063eb13554f146101f9578063ed12e8ef1461020c578063f2fde38b1461021457600080fd5b80638da5cb5b146101ba5780639009ff8f146101cb578063a3b577ab146101d357600080fd5b806326232a2e116100bd57806326232a2e146101765780636ef9554e1461018d578063715018a6146101b257600080fd5b806301ffc9a7146100e457806312e8e2c31461014e5780631871e24314610163575b600080fd5b6101396100f2366004610aa2565b7fffffffff00000000000000000000000000000000000000000000000000000000167f18848b09000000000000000000000000000000000000000000000000000000001490565b60405190151581526020015b60405180910390f35b61016161015c366004610ae2565b610227565b005b610161610171366004610a54565b6102c2565b61017f60025481565b604051908152602001610145565b6000546001600160a01b03165b6040516001600160a01b039091168152602001610145565b610161610377565b6004546001600160a01b031661019a565b6101616103dd565b60015461019a906001600160a01b031681565b60005461019a906001600160a01b031681565b60035461019a906001600160a01b031681565b61017f610879565b610161610222366004610a54565b610913565b6004546001600160a01b031633146102865760405162461bcd60e51b815260206004820181905260248201527f4f776e61626c653a2063616c6c6572206973206e6f7420746865206f776e657260448201526064015b60405180910390fd5b60028190556040518181527f87e517f4cef147591e58b6be0079fe4de0c1058160a74a4d5fb06ba120aee9fe906020015b60405180910390a150565b6004546001600160a01b0316331461031c5760405162461bcd60e51b815260206004820181905260248201527f4f776e61626c653a2063616c6c6572206973206e6f7420746865206f776e6572604482015260640161027d565b6003805473ffffffffffffffffffffffffffffffffffffffff19166001600160a01b0383169081179091556040519081527f59c32cd7ebc3d990b291510460d135634914d189c0afda7e77c9bae2b9f34e4a906020016102b7565b6004546001600160a01b031633146103d15760405162461bcd60e51b815260206004820181905260248201527f4f776e61626c653a2063616c6c6572206973206e6f7420746865206f776e6572604482015260640161027d565b6103db60006109f5565b565b60006103e7610879565b90506000811161045f5760405162461bcd60e51b815260206004820152603060248201527f5661756c7420646f6573206e6f74206861766520656e6f75676820726f79616c60448201527f747920417373657420746f2073656e6400000000000000000000000000000000606482015260840161027d565b6000546001600160a01b03166104b75760405162461bcd60e51b815260206004820152601360248201527f53706c6974746572206973206e6f742073657400000000000000000000000000604482015260640161027d565b6000612710600254836104ca9190610b32565b6104d49190610b12565b905060006104e28284610b51565b60015460005460405163a9059cbb60e01b81526001600160a01b03918216600482015260248101849052929350169063a9059cbb90604401602060405180830381600087803b15801561053457600080fd5b505af1158015610548573d6000803e3d6000fd5b505050506040513d601f19601f8201168201806040525081019061056c9190610a82565b15156001146105e35760405162461bcd60e51b815260206004820152602c60248201527f4661696c656420746f207472616e7366657220726f79616c747920417373657460448201527f20746f2073706c69747465720000000000000000000000000000000000000000606482015260840161027d565b6000546040517f0ec3767f000000000000000000000000000000000000000000000000000000008152600481018390526001600160a01b0390911690630ec3767f90602401602060405180830381600087803b15801561064257600080fd5b505af1158015610656573d6000803e3d6000fd5b505050506040513d601f19601f8201168201806040525081019061067a9190610a82565b15156001146106f15760405162461bcd60e51b815260206004820152602360248201527f4661696c656420746f20696e6372656d656e742073706c69747465722077696e60448201527f646f770000000000000000000000000000000000000000000000000000000000606482015260840161027d565b60015460035460405163a9059cbb60e01b81526001600160a01b0391821660048201526024810185905291169063a9059cbb90604401602060405180830381600087803b15801561074157600080fd5b505af1158015610755573d6000803e3d6000fd5b505050506040513d601f19601f820116820180604052508101906107799190610a82565b15156001146107f05760405162461bcd60e51b815260206004820152603a60248201527f4661696c656420746f207472616e7366657220726f79616c747920417373657460448201527f20746f20706c6174666f726d2066656520726563697069656e74000000000000606482015260840161027d565b6000546040518281526001600160a01b03909116907f732c0c0fffca0f7cf90a93c5e6de6ea40876d783773018a73279b82a57f82a529060200160405180910390a26003546040518381526001600160a01b03909116907fcddb278655a3ea6c9ca0d772ace59b7cfa3d2182492d006d41f8e8ef6c74d6859060200160405180910390a2505050565b6001546040517f70a082310000000000000000000000000000000000000000000000000000000081523060048201526000916001600160a01b0316906370a082319060240160206040518083038186803b1580156108d657600080fd5b505afa1580156108ea573d6000803e3d6000fd5b505050506040513d601f19601f8201168201806040525081019061090e9190610afa565b905090565b6004546001600160a01b0316331461096d5760405162461bcd60e51b815260206004820181905260248201527f4f776e61626c653a2063616c6c6572206973206e6f7420746865206f776e6572604482015260640161027d565b6001600160a01b0381166109e95760405162461bcd60e51b815260206004820152602660248201527f4f776e61626c653a206e6577206f776e657220697320746865207a65726f206160448201527f6464726573730000000000000000000000000000000000000000000000000000606482015260840161027d565b6109f2816109f5565b50565b600480546001600160a01b0383811673ffffffffffffffffffffffffffffffffffffffff19831681179093556040519116919082907f8be0079c531659141344cd1fd0a4f28419497f9722a3daafe3b4186f6b6457e090600090a35050565b600060208284031215610a65578081fd5b81356001600160a01b0381168114610a7b578182fd5b9392505050565b600060208284031215610a93578081fd5b81518015158114610a7b578182fd5b600060208284031215610ab3578081fd5b81357fffffffff0000000000000000000000000000000000000000000000000000000081168114610a7b578182fd5b600060208284031215610af3578081fd5b5035919050565b600060208284031215610b0b578081fd5b5051919050565b600082610b2d57634e487b7160e01b81526012600452602481fd5b500490565b6000816000190483118215151615610b4c57610b4c610b68565b500290565b600082821015610b6357610b63610b68565b500390565b634e487b7160e01b600052601160045260246000fdfea2646970667358221220821017883c1d9c3dd76faa3fdac6c57c2e590ecb3796ceffe407758715f0632e64736f6c63430008040033",
  "linkReferences": {},
  "deployedLinkReferences": {}
}