{
  "_format": "hh-sol-artifact-1",
  "contractName": "BadgerSettPeak",
  "sourceName": "contracts/peaks/BadgerSettPeak.sol",
  "abi": [
    {
      "inputs": [
        {
          "internalType": "address",
          "name": "_core",
          "type": "address"
        }
      ],
      "stateMutability": "nonpayable",
      "type": "constructor"
    },
    {
      "anonymous": false,
      "inputs": [
        {
          "indexed": false,
          "internalType": "address",
          "name": "account",
          "type": "address"
        },
        {
          "indexed": false,
          "internalType": "uint256",
          "name": "ibBTC",
          "type": "uint256"
        },
        {
          "indexed": false,
          "internalType": "uint256",
          "name": "sett",
          "type": "uint256"
        }
      ],
      "name": "Mint",
      "type": "event"
    },
    {
      "anonymous": false,
      "inputs": [
        {
          "indexed": true,
          "internalType": "address",
          "name": "previousOwner",
          "type": "address"
        },
        {
          "indexed": true,
          "internalType": "address",
          "name": "newOwner",
          "type": "address"
        }
      ],
      "name": "OwnershipTransferred",
      "type": "event"
    },
    {
      "anonymous": false,
      "inputs": [
        {
          "indexed": false,
          "internalType": "address",
          "name": "account",
          "type": "address"
        },
        {
          "indexed": false,
          "internalType": "uint256",
          "name": "ibBTC",
          "type": "uint256"
        },
        {
          "indexed": false,
          "internalType": "uint256",
          "name": "sett",
          "type": "uint256"
        }
      ],
      "name": "Redeem",
      "type": "event"
    },
    {
      "inputs": [
        {
          "internalType": "address",
          "name": "account",
          "type": "address"
        }
      ],
      "name": "approveContractAccess",
      "outputs": [],
      "stateMutability": "nonpayable",
      "type": "function"
    },
    {
      "inputs": [
        {
          "internalType": "address",
          "name": "",
          "type": "address"
        }
      ],
      "name": "approved",
      "outputs": [
        {
          "internalType": "bool",
          "name": "",
          "type": "bool"
        }
      ],
      "stateMutability": "view",
      "type": "function"
    },
    {
      "inputs": [
        {
          "internalType": "address",
          "name": "",
          "type": "address"
        }
      ],
      "name": "blockLock",
      "outputs": [
        {
          "internalType": "uint256",
          "name": "",
          "type": "uint256"
        }
      ],
      "stateMutability": "view",
      "type": "function"
    },
    {
      "inputs": [
        {
          "internalType": "uint256",
          "name": "poolId",
          "type": "uint256"
        },
        {
          "internalType": "uint256",
          "name": "inAmount",
          "type": "uint256"
        }
      ],
      "name": "calcMint",
      "outputs": [
        {
          "internalType": "uint256",
          "name": "bBTC",
          "type": "uint256"
        },
        {
          "internalType": "uint256",
          "name": "fee",
          "type": "uint256"
        }
      ],
      "stateMutability": "view",
      "type": "function"
    },
    {
      "inputs": [
        {
          "internalType": "uint256",
          "name": "poolId",
          "type": "uint256"
        },
        {
          "internalType": "uint256",
          "name": "bBtc",
          "type": "uint256"
        }
      ],
      "name": "calcRedeem",
      "outputs": [
        {
          "internalType": "uint256",
          "name": "sett",
          "type": "uint256"
        },
        {
          "internalType": "uint256",
          "name": "fee",
          "type": "uint256"
        },
        {
          "internalType": "uint256",
          "name": "max",
          "type": "uint256"
        }
      ],
      "stateMutability": "view",
      "type": "function"
    },
    {
      "inputs": [],
      "name": "core",
      "outputs": [
        {
          "internalType": "contract ICore",
          "name": "",
          "type": "address"
        }
      ],
      "stateMutability": "view",
      "type": "function"
    },
    {
      "inputs": [
        {
          "internalType": "uint256",
          "name": "poolId",
          "type": "uint256"
        },
        {
          "internalType": "uint256",
          "name": "inAmount",
          "type": "uint256"
        },
        {
          "internalType": "bytes32[]",
          "name": "merkleProof",
          "type": "bytes32[]"
        }
      ],
      "name": "mint",
      "outputs": [
        {
          "internalType": "uint256",
          "name": "outAmount",
          "type": "uint256"
        }
      ],
      "stateMutability": "nonpayable",
      "type": "function"
    },
    {
      "inputs": [
        {
          "components": [
            {
              "internalType": "contract ISwap",
              "name": "swap",
              "type": "address"
            },
            {
              "internalType": "contract ISett",
              "name": "sett",
              "type": "address"
            }
          ],
          "internalType": "struct BadgerSettPeak.CurvePool[]",
          "name": "_pools",
          "type": "tuple[]"
        }
      ],
      "name": "modifyWhitelistedCurvePools",
      "outputs": [],
      "stateMutability": "nonpayable",
      "type": "function"
    },
    {
      "inputs": [],
      "name": "numPools",
      "outputs": [
        {
          "internalType": "uint256",
          "name": "",
          "type": "uint256"
        }
      ],
      "stateMutability": "view",
      "type": "function"
    },
    {
      "inputs": [],
      "name": "owner",
      "outputs": [
        {
          "internalType": "address",
          "name": "_owner",
          "type": "address"
        }
      ],
      "stateMutability": "view",
      "type": "function"
    },
    {
      "inputs": [
        {
          "internalType": "uint256",
          "name": "",
          "type": "uint256"
        }
      ],
      "name": "pools",
      "outputs": [
        {
          "internalType": "contract ISwap",
          "name": "swap",
          "type": "address"
        },
        {
          "internalType": "contract ISett",
          "name": "sett",
          "type": "address"
        }
      ],
      "stateMutability": "view",
      "type": "function"
    },
    {
      "inputs": [],
      "name": "portfolioValue",
      "outputs": [
        {
          "internalType": "uint256",
          "name": "assets",
          "type": "uint256"
        }
      ],
      "stateMutability": "view",
      "type": "function"
    },
    {
      "inputs": [
        {
          "internalType": "uint256",
          "name": "poolId",
          "type": "uint256"
        },
        {
          "internalType": "uint256",
          "name": "inAmount",
          "type": "uint256"
        }
      ],
      "name": "redeem",
      "outputs": [
        {
          "internalType": "uint256",
          "name": "outAmount",
          "type": "uint256"
        }
      ],
      "stateMutability": "nonpayable",
      "type": "function"
    },
    {
      "inputs": [
        {
          "internalType": "address",
          "name": "account",
          "type": "address"
        }
      ],
      "name": "revokeContractAccess",
      "outputs": [],
      "stateMutability": "nonpayable",
      "type": "function"
    },
    {
      "inputs": [
        {
          "internalType": "address",
          "name": "newOwner",
          "type": "address"
        }
      ],
      "name": "transferOwnership",
      "outputs": [],
      "stateMutability": "nonpayable",
      "type": "function"
    }
  ],
  "bytecode": "0x60a06040523480156200001157600080fd5b50604051620031f3380380620031f38339818101604052810190620000379190620001bd565b62000048336200008660201b60201c565b8073ffffffffffffffffffffffffffffffffffffffff1660808173ffffffffffffffffffffffffffffffffffffffff1660601b815250505062000336565b600073ffffffffffffffffffffffffffffffffffffffff168173ffffffffffffffffffffffffffffffffffffffff161415620000f9576040517f08c379a0000000000000000000000000000000000000000000000000000000008152600401620000f090620002aa565b60405180910390fd5b8073ffffffffffffffffffffffffffffffffffffffff16620001206200018360201b60201c565b73ffffffffffffffffffffffffffffffffffffffff167f8be0079c531659141344cd1fd0a4f28419497f9722a3daafe3b4186f6b6457e060405160405180910390a36000604051620001729062000293565b604051809103902090508181555050565b600080604051620001949062000293565b60405180910390209050805491505090565b600081519050620001b7816200031c565b92915050565b600060208284031215620001d057600080fd5b6000620001e084828501620001a6565b91505092915050565b6000620001f8600b83620002dd565b91507f70726f78792e6f776e65720000000000000000000000000000000000000000006000830152600b82019050919050565b60006200023a602b83620002cc565b91507f4f776e61626c6550726f78793a206e6577206f776e657220697320746865207a60008301527f65726f20616464726573730000000000000000000000000000000000000000006020830152604082019050919050565b6000620002a082620001e9565b9150819050919050565b60006020820190508181036000830152620002c5816200022b565b9050919050565b600082825260208201905092915050565b600081905092915050565b6000620002f582620002fc565b9050919050565b600073ffffffffffffffffffffffffffffffffffffffff82169050919050565b6200032781620002e8565b81146200033357600080fd5b50565b60805160601c612e866200036d6000398061042b52806104f65280610f4e52806110fb528061151852806116495250612e866000f3fe608060405234801561001057600080fd5b50600436106100f55760003560e01c80637cbc237311610097578063d8b964e611610066578063d8b964e61461029c578063e6d37b88146102cc578063f2f4eb26146102fc578063f2fde38b1461031a576100f5565b80637cbc2373146101ec5780638da5cb5b1461021c578063ac4afa381461023a578063adcc2c741461026b576100f5565b80634bcd2c8d116100d35780634bcd2c8d1461017a5780636c3618651461019657806373acb590146101b25780637c61e865146101d0576100f5565b8063269ac051146100fa5780632cc110341461012a57806335c62bc21461015c575b600080fd5b610114600480360381019061010f9190612205565b610336565b6040516101219190612b1d565b60405180910390f35b610144600480360381019061013f9190612317565b61034e565b60405161015393929190612bca565b60405180910390f35b61016461076c565b6040516101719190612b1d565b60405180910390f35b610194600480360381019061018f919061222e565b610772565b005b6101b060048036038101906101ab9190612205565b610a2a565b005b6101ba610aab565b6040516101c79190612b1d565b60405180910390f35b6101ea60048036038101906101e59190612205565b610c53565b005b61020660048036038101906102019190612317565b610cd4565b6040516102139190612b1d565b60405180910390f35b610224611071565b60405161023191906128aa565b60405180910390f35b610254600480360381019061024f91906122c5565b611092565b604051610262929190612992565b60405180910390f35b61028560048036038101906102809190612317565b6110f6565b604051610293929190612ba1565b60405180910390f35b6102b660048036038101906102b19190612205565b611282565b6040516102c3919061295c565b60405180910390f35b6102e660048036038101906102e1919061238f565b6112a2565b6040516102f39190612b1d565b60405180910390f35b610304611647565b6040516103119190612977565b60405180910390f35b610334600480360381019061032f9190612205565b61166b565b005b60016020528060005260406000206000915090505481565b600080600061035b612061565b603460008781526020019081526020016000206040518060400160405290816000820160009054906101000a900473ffffffffffffffffffffffffffffffffffffffff1673ffffffffffffffffffffffffffffffffffffffff1673ffffffffffffffffffffffffffffffffffffffff1681526020016001820160009054906101000a900473ffffffffffffffffffffffffffffffffffffffff1673ffffffffffffffffffffffffffffffffffffffff1673ffffffffffffffffffffffffffffffffffffffff1681525050905060007f000000000000000000000000000000000000000000000000000000000000000073ffffffffffffffffffffffffffffffffffffffff1663f0db6adf876040518263ffffffff1660e01b81526004016104829190612b1d565b604080518083038186803b15801561049957600080fd5b505afa1580156104ad573d6000803e3d6000fd5b505050506040513d601f19601f820116820180604052508101906104d19190612353565b80955081925050506104e382826116ec565b9450610761670de0b6b3a76400006107537f000000000000000000000000000000000000000000000000000000000000000073ffffffffffffffffffffffffffffffffffffffff166399530b066040518163ffffffff1660e01b815260040160206040518083038186803b15801561055a57600080fd5b505afa15801561056e573d6000803e3d6000fd5b505050506040513d601f19601f8201168201806040525081019061059291906122ee565b610745866000015173ffffffffffffffffffffffffffffffffffffffff1663bb7b8b806040518163ffffffff1660e01b815260040160206040518083038186803b1580156105df57600080fd5b505afa1580156105f3573d6000803e3d6000fd5b505050506040513d601f19601f8201168201806040525081019061061791906122ee565b610737886020015173ffffffffffffffffffffffffffffffffffffffff166377c7b8fc6040518163ffffffff1660e01b815260040160206040518083038186803b15801561066457600080fd5b505afa158015610678573d6000803e3d6000fd5b505050506040513d601f19601f8201168201806040525081019061069c91906122ee565b896020015173ffffffffffffffffffffffffffffffffffffffff166370a08231306040518263ffffffff1660e01b81526004016106d991906128aa565b60206040518083038186803b1580156106f157600080fd5b505afa158015610705573d6000803e3d6000fd5b505050506040513d601f19601f8201168201806040525081019061072991906122ee565b61183790919063ffffffff16565b61183790919063ffffffff16565b6118a790919063ffffffff16565b6118a790919063ffffffff16565b925050509250925092565b60355481565b3373ffffffffffffffffffffffffffffffffffffffff16610791611071565b73ffffffffffffffffffffffffffffffffffffffff16146107e7576040517f08c379a00000000000000000000000000000000000000000000000000000000081526004016107de90612add565b60405180910390fd5b6107ef612061565b60008090505b838390508110156109875783838281811061080c57fe5b905060400201803603810190610822919061229c565b9150600073ffffffffffffffffffffffffffffffffffffffff16826000015173ffffffffffffffffffffffffffffffffffffffff16141580156108965750600073ffffffffffffffffffffffffffffffffffffffff16826020015173ffffffffffffffffffffffffffffffffffffffff1614155b6108d5576040517f08c379a00000000000000000000000000000000000000000000000000000000081526004016108cc906129dd565b60405180910390fd5b816034600083815260200190815260200160002060008201518160000160006101000a81548173ffffffffffffffffffffffffffffffffffffffff021916908373ffffffffffffffffffffffffffffffffffffffff16021790555060208201518160010160006101000a81548173ffffffffffffffffffffffffffffffffffffffff021916908373ffffffffffffffffffffffffffffffffffffffff16021790555090505080806001019150506107f5565b50828290506035541115610a1b5760008383905090505b603554811015610a195760346000828152602001908152602001600020600080820160006101000a81549073ffffffffffffffffffffffffffffffffffffffff02191690556001820160006101000a81549073ffffffffffffffffffffffffffffffffffffffff02191690555050808060010191505061099e565b505b82829050603581905550505050565b3373ffffffffffffffffffffffffffffffffffffffff16610a49611071565b73ffffffffffffffffffffffffffffffffffffffff1614610a9f576040517f08c379a0000000000000000000000000000000000000000000000000000000008152600401610a9690612add565b60405180910390fd5b610aa8816118f1565b50565b6000610ab5612061565b6000603554905060008090505b81811015610c4d57603460008281526020019081526020016000206040518060400160405290816000820160009054906101000a900473ffffffffffffffffffffffffffffffffffffffff1673ffffffffffffffffffffffffffffffffffffffff1673ffffffffffffffffffffffffffffffffffffffff1681526020016001820160009054906101000a900473ffffffffffffffffffffffffffffffffffffffff1673ffffffffffffffffffffffffffffffffffffffff1673ffffffffffffffffffffffffffffffffffffffff16815250509250610c3e610c2f84856020015173ffffffffffffffffffffffffffffffffffffffff166370a08231306040518263ffffffff1660e01b8152600401610bda91906128aa565b60206040518083038186803b158015610bf257600080fd5b505afa158015610c06573d6000803e3d6000fd5b505050506040513d601f19601f82011682018060405250810190610c2a91906122ee565b61194b565b85611a9d90919063ffffffff16565b93508080600101915050610ac2565b50505090565b3373ffffffffffffffffffffffffffffffffffffffff16610c72611071565b73ffffffffffffffffffffffffffffffffffffffff1614610cc8576040517f08c379a0000000000000000000000000000000000000000000000000000000008152600401610cbf90612add565b60405180910390fd5b610cd181611af2565b50565b60003273ffffffffffffffffffffffffffffffffffffffff163373ffffffffffffffffffffffffffffffffffffffff161480610d5857506000803373ffffffffffffffffffffffffffffffffffffffff1673ffffffffffffffffffffffffffffffffffffffff16815260200190815260200160002060009054906101000a900460ff165b610d97576040517f08c379a0000000000000000000000000000000000000000000000000000000008152600401610d8e90612a9d565b60405180910390fd5b6000803373ffffffffffffffffffffffffffffffffffffffff1673ffffffffffffffffffffffffffffffffffffffff16815260200190815260200160002060009054906101000a900460ff1680610e2c575043600160003373ffffffffffffffffffffffffffffffffffffffff1673ffffffffffffffffffffffffffffffffffffffff16815260200190815260200160002054105b610e6b576040517f08c379a0000000000000000000000000000000000000000000000000000000008152600401610e62906129fd565b60405180910390fd5b610e7433611b4c565b610e7c612061565b603460008581526020019081526020016000206040518060400160405290816000820160009054906101000a900473ffffffffffffffffffffffffffffffffffffffff1673ffffffffffffffffffffffffffffffffffffffff1673ffffffffffffffffffffffffffffffffffffffff1681526020016001820160009054906101000a900473ffffffffffffffffffffffffffffffffffffffff1673ffffffffffffffffffffffffffffffffffffffff1673ffffffffffffffffffffffffffffffffffffffff16815250509050610ffe817f000000000000000000000000000000000000000000000000000000000000000073ffffffffffffffffffffffffffffffffffffffff16637bde82f286336040518363ffffffff1660e01b8152600401610fa7929190612b38565b602060405180830381600087803b158015610fc157600080fd5b505af1158015610fd5573d6000803e3d6000fd5b505050506040513d601f19601f82011682018060405250810190610ff991906122ee565b6116ec565b915061102f3383836020015173ffffffffffffffffffffffffffffffffffffffff16611b939092919063ffffffff16565b7fe5b754fb1abb7f01b499791d0b820ae3b6af3424ac1c59768edb53f4ec31a929338484604051611062939291906128c5565b60405180910390a15092915050565b60008060405161108090612895565b60405180910390209050805491505090565b60346020528060005260406000206000915090508060000160009054906101000a900473ffffffffffffffffffffffffffffffffffffffff16908060010160009054906101000a900473ffffffffffffffffffffffffffffffffffffffff16905082565b6000807f000000000000000000000000000000000000000000000000000000000000000073ffffffffffffffffffffffffffffffffffffffff16634c31990a611208603460008881526020019081526020016000206040518060400160405290816000820160009054906101000a900473ffffffffffffffffffffffffffffffffffffffff1673ffffffffffffffffffffffffffffffffffffffff1673ffffffffffffffffffffffffffffffffffffffff1681526020016001820160009054906101000a900473ffffffffffffffffffffffffffffffffffffffff1673ffffffffffffffffffffffffffffffffffffffff1673ffffffffffffffffffffffffffffffffffffffff16815250508661194b565b6040518263ffffffff1660e01b81526004016112249190612b1d565b604080518083038186803b15801561123b57600080fd5b505afa15801561124f573d6000803e3d6000fd5b505050506040513d601f19601f820116820180604052508101906112739190612353565b80925081935050509250929050565b60006020528060005260406000206000915054906101000a900460ff1681565b60003273ffffffffffffffffffffffffffffffffffffffff163373ffffffffffffffffffffffffffffffffffffffff16148061132657506000803373ffffffffffffffffffffffffffffffffffffffff1673ffffffffffffffffffffffffffffffffffffffff16815260200190815260200160002060009054906101000a900460ff165b611365576040517f08c379a000000000000000000000000000000000000000000000000000000000815260040161135c90612a9d565b60405180910390fd5b6000803373ffffffffffffffffffffffffffffffffffffffff1673ffffffffffffffffffffffffffffffffffffffff16815260200190815260200160002060009054906101000a900460ff16806113fa575043600160003373ffffffffffffffffffffffffffffffffffffffff1673ffffffffffffffffffffffffffffffffffffffff16815260200190815260200160002054105b611439576040517f08c379a0000000000000000000000000000000000000000000000000000000008152600401611430906129fd565b60405180910390fd5b61144233611b4c565b61144a612061565b603460008781526020019081526020016000206040518060400160405290816000820160009054906101000a900473ffffffffffffffffffffffffffffffffffffffff1673ffffffffffffffffffffffffffffffffffffffff1673ffffffffffffffffffffffffffffffffffffffff1681526020016001820160009054906101000a900473ffffffffffffffffffffffffffffffffffffffff1673ffffffffffffffffffffffffffffffffffffffff1673ffffffffffffffffffffffffffffffffffffffff168152505090507f000000000000000000000000000000000000000000000000000000000000000073ffffffffffffffffffffffffffffffffffffffff166347c699d161155c838861194b565b3387876040518563ffffffff1660e01b815260040161157e9493929190612b61565b602060405180830381600087803b15801561159857600080fd5b505af11580156115ac573d6000803e3d6000fd5b505050506040513d601f19601f820116820180604052508101906115d091906122ee565b9150611603333087846020015173ffffffffffffffffffffffffffffffffffffffff16611c19909392919063ffffffff16565b7f4c209b5fc8ad50758f13e2e1088ba56a560dff690a1c6fef26394f4c03821c4f338387604051611636939291906128c5565b60405180910390a150949350505050565b7f000000000000000000000000000000000000000000000000000000000000000081565b3373ffffffffffffffffffffffffffffffffffffffff1661168a611071565b73ffffffffffffffffffffffffffffffffffffffff16146116e0576040517f08c379a00000000000000000000000000000000000000000000000000000000081526004016116d790612add565b60405180910390fd5b6116e981611ca2565b50565b600061182f836020015173ffffffffffffffffffffffffffffffffffffffff166377c7b8fc6040518163ffffffff1660e01b815260040160206040518083038186803b15801561173b57600080fd5b505afa15801561174f573d6000803e3d6000fd5b505050506040513d601f19601f8201168201806040525081019061177391906122ee565b611821856000015173ffffffffffffffffffffffffffffffffffffffff1663bb7b8b806040518163ffffffff1660e01b815260040160206040518083038186803b1580156117c057600080fd5b505afa1580156117d4573d6000803e3d6000fd5b505050506040513d601f19601f820116820180604052508101906117f891906122ee565b611813670de0b6b3a76400008761183790919063ffffffff16565b6118a790919063ffffffff16565b6118a790919063ffffffff16565b905092915050565b60008083141561184a57600090506118a1565b600082840290508284828161185b57fe5b041461189c576040517f08c379a000000000000000000000000000000000000000000000000000000000815260040161189390612a7d565b60405180910390fd5b809150505b92915050565b60006118e983836040518060400160405280601a81526020017f536166654d6174683a206469766973696f6e206279207a65726f000000000000815250611d92565b905092915050565b60016000808373ffffffffffffffffffffffffffffffffffffffff1673ffffffffffffffffffffffffffffffffffffffff16815260200190815260200160002060006101000a81548160ff02191690831515021790555050565b6000611a956ec097ce7bc90715b34b9f1000000000611a87856000015173ffffffffffffffffffffffffffffffffffffffff1663bb7b8b806040518163ffffffff1660e01b815260040160206040518083038186803b1580156119ad57600080fd5b505afa1580156119c1573d6000803e3d6000fd5b505050506040513d601f19601f820116820180604052508101906119e591906122ee565b611a79876020015173ffffffffffffffffffffffffffffffffffffffff166377c7b8fc6040518163ffffffff1660e01b815260040160206040518083038186803b158015611a3257600080fd5b505afa158015611a46573d6000803e3d6000fd5b505050506040513d601f19601f82011682018060405250810190611a6a91906122ee565b8761183790919063ffffffff16565b61183790919063ffffffff16565b6118a790919063ffffffff16565b905092915050565b600080828401905083811015611ae8576040517f08c379a0000000000000000000000000000000000000000000000000000000008152600401611adf90612a1d565b60405180910390fd5b8091505092915050565b60008060008373ffffffffffffffffffffffffffffffffffffffff1673ffffffffffffffffffffffffffffffffffffffff16815260200190815260200160002060006101000a81548160ff02191690831515021790555050565b43600160008373ffffffffffffffffffffffffffffffffffffffff1673ffffffffffffffffffffffffffffffffffffffff1681526020019081526020016000208190555050565b611c148363a9059cbb60e01b8484604051602401611bb2929190612933565b604051602081830303815290604052907bffffffffffffffffffffffffffffffffffffffffffffffffffffffff19166020820180517bffffffffffffffffffffffffffffffffffffffffffffffffffffffff8381831617835250505050611df3565b505050565b611c9c846323b872dd60e01b858585604051602401611c3a939291906128fc565b604051602081830303815290604052907bffffffffffffffffffffffffffffffffffffffffffffffffffffffff19166020820180517bffffffffffffffffffffffffffffffffffffffffffffffffffffffff8381831617835250505050611df3565b50505050565b600073ffffffffffffffffffffffffffffffffffffffff168173ffffffffffffffffffffffffffffffffffffffff161415611d12576040517f08c379a0000000000000000000000000000000000000000000000000000000008152600401611d0990612a5d565b60405180910390fd5b8073ffffffffffffffffffffffffffffffffffffffff16611d31611071565b73ffffffffffffffffffffffffffffffffffffffff167f8be0079c531659141344cd1fd0a4f28419497f9722a3daafe3b4186f6b6457e060405160405180910390a36000604051611d8190612895565b604051809103902090508181555050565b60008083118290611dd9576040517f08c379a0000000000000000000000000000000000000000000000000000000008152600401611dd091906129bb565b60405180910390fd5b506000838581611de557fe5b049050809150509392505050565b6060611e55826040518060400160405280602081526020017f5361666545524332303a206c6f772d6c6576656c2063616c6c206661696c65648152508573ffffffffffffffffffffffffffffffffffffffff16611eba9092919063ffffffff16565b9050600081511115611eb55780806020019051810190611e759190612273565b611eb4576040517f08c379a0000000000000000000000000000000000000000000000000000000008152600401611eab90612afd565b60405180910390fd5b5b505050565b6060611ec98484600085611ed2565b90509392505050565b606082471015611f17576040517f08c379a0000000000000000000000000000000000000000000000000000000008152600401611f0e90612a3d565b60405180910390fd5b611f2085611fe7565b611f5f576040517f08c379a0000000000000000000000000000000000000000000000000000000008152600401611f5690612abd565b60405180910390fd5b600060608673ffffffffffffffffffffffffffffffffffffffff168587604051611f89919061287e565b60006040518083038185875af1925050503d8060008114611fc6576040519150601f19603f3d011682016040523d82523d6000602084013e611fcb565b606091505b5091509150611fdb828286611ffa565b92505050949350505050565b600080823b905060008111915050919050565b6060831561200a5782905061205a565b60008351111561201d5782518084602001fd5b816040517f08c379a000000000000000000000000000000000000000000000000000000000815260040161205191906129bb565b60405180910390fd5b9392505050565b6040518060400160405280600073ffffffffffffffffffffffffffffffffffffffff168152602001600073ffffffffffffffffffffffffffffffffffffffff1681525090565b6000813590506120b681612ddd565b92915050565b60008083601f8401126120ce57600080fd5b8235905067ffffffffffffffff8111156120e757600080fd5b6020830191508360208202830111156120ff57600080fd5b9250929050565b60008083601f84011261211857600080fd5b8235905067ffffffffffffffff81111561213157600080fd5b60208301915083604082028301111561214957600080fd5b9250929050565b60008151905061215f81612df4565b92915050565b60008135905061217481612e0b565b92915050565b60008135905061218981612e22565b92915050565b6000604082840312156121a157600080fd5b6121ab6040612c01565b905060006121bb8482850161217a565b60008301525060206121cf84828501612165565b60208301525092915050565b6000813590506121ea81612e39565b92915050565b6000815190506121ff81612e39565b92915050565b60006020828403121561221757600080fd5b6000612225848285016120a7565b91505092915050565b6000806020838503121561224157600080fd5b600083013567ffffffffffffffff81111561225b57600080fd5b61226785828601612106565b92509250509250929050565b60006020828403121561228557600080fd5b600061229384828501612150565b91505092915050565b6000604082840312156122ae57600080fd5b60006122bc8482850161218f565b91505092915050565b6000602082840312156122d757600080fd5b60006122e5848285016121db565b91505092915050565b60006020828403121561230057600080fd5b600061230e848285016121f0565b91505092915050565b6000806040838503121561232a57600080fd5b6000612338858286016121db565b9250506020612349858286016121db565b9150509250929050565b6000806040838503121561236657600080fd5b6000612374858286016121f0565b9250506020612385858286016121f0565b9150509250929050565b600080600080606085870312156123a557600080fd5b60006123b3878288016121db565b94505060206123c4878288016121db565b935050604085013567ffffffffffffffff8111156123e157600080fd5b6123ed878288016120bc565b925092505092959194509250565b61240481612ce8565b82525050565b61241381612c7c565b82525050565b60006124258385612c44565b93507f07ffffffffffffffffffffffffffffffffffffffffffffffffffffffffffffff83111561245457600080fd5b602083029250612465838584612d8a565b82840190509392505050565b61247a81612c8e565b82525050565b600061248b82612c2e565b6124958185612c55565b93506124a5818560208601612d99565b80840191505092915050565b6124ba81612cfa565b82525050565b6124c981612d1e565b82525050565b6124d881612d42565b82525050565b60006124e982612c39565b6124f38185612c60565b9350612503818560208601612d99565b61250c81612dcc565b840191505092915050565b6000612524600c83612c60565b91507f4e554c4c5f4144445245535300000000000000000000000000000000000000006000830152602082019050919050565b6000612564600c83612c60565b91507f424c4f434b5f4c4f434b454400000000000000000000000000000000000000006000830152602082019050919050565b60006125a4601b83612c60565b91507f536166654d6174683a206164646974696f6e206f766572666c6f7700000000006000830152602082019050919050565b60006125e4602683612c60565b91507f416464726573733a20696e73756666696369656e742062616c616e636520666f60008301527f722063616c6c00000000000000000000000000000000000000000000000000006020830152604082019050919050565b600061264a600b83612c71565b91507f70726f78792e6f776e65720000000000000000000000000000000000000000006000830152600b82019050919050565b600061268a602b83612c60565b91507f4f776e61626c6550726f78793a206e6577206f776e657220697320746865207a60008301527f65726f20616464726573730000000000000000000000000000000000000000006020830152604082019050919050565b60006126f0602183612c60565b91507f536166654d6174683a206d756c7469706c69636174696f6e206f766572666c6f60008301527f77000000000000000000000000000000000000000000000000000000000000006020830152604082019050919050565b6000612756600d83612c60565b91507f4143434553535f44454e494544000000000000000000000000000000000000006000830152602082019050919050565b6000612796601d83612c60565b91507f416464726573733a2063616c6c20746f206e6f6e2d636f6e74726163740000006000830152602082019050919050565b60006127d6600983612c60565b91507f4e4f545f4f574e455200000000000000000000000000000000000000000000006000830152602082019050919050565b6000612816602a83612c60565b91507f5361666545524332303a204552433230206f7065726174696f6e20646964206e60008301527f6f742073756363656564000000000000000000000000000000000000000000006020830152604082019050919050565b61287881612cde565b82525050565b600061288a8284612480565b915081905092915050565b60006128a08261263d565b9150819050919050565b60006020820190506128bf600083018461240a565b92915050565b60006060820190506128da60008301866123fb565b6128e7602083018561286f565b6128f4604083018461286f565b949350505050565b6000606082019050612911600083018661240a565b61291e602083018561240a565b61292b604083018461286f565b949350505050565b6000604082019050612948600083018561240a565b612955602083018461286f565b9392505050565b60006020820190506129716000830184612471565b92915050565b600060208201905061298c60008301846124b1565b92915050565b60006040820190506129a760008301856124cf565b6129b460208301846124c0565b9392505050565b600060208201905081810360008301526129d581846124de565b905092915050565b600060208201905081810360008301526129f681612517565b9050919050565b60006020820190508181036000830152612a1681612557565b9050919050565b60006020820190508181036000830152612a3681612597565b9050919050565b60006020820190508181036000830152612a56816125d7565b9050919050565b60006020820190508181036000830152612a768161267d565b9050919050565b60006020820190508181036000830152612a96816126e3565b9050919050565b60006020820190508181036000830152612ab681612749565b9050919050565b60006020820190508181036000830152612ad681612789565b9050919050565b60006020820190508181036000830152612af6816127c9565b9050919050565b60006020820190508181036000830152612b1681612809565b9050919050565b6000602082019050612b32600083018461286f565b92915050565b6000604082019050612b4d600083018561286f565b612b5a60208301846123fb565b9392505050565b6000606082019050612b76600083018761286f565b612b8360208301866123fb565b8181036040830152612b96818486612419565b905095945050505050565b6000604082019050612bb6600083018561286f565b612bc3602083018461286f565b9392505050565b6000606082019050612bdf600083018661286f565b612bec602083018561286f565b612bf9604083018461286f565b949350505050565b6000604051905081810181811067ffffffffffffffff82111715612c2457600080fd5b8060405250919050565b600081519050919050565b600081519050919050565b600082825260208201905092915050565b600081905092915050565b600082825260208201905092915050565b600081905092915050565b6000612c8782612cbe565b9050919050565b60008115159050919050565b6000612ca582612c7c565b9050919050565b6000612cb782612c7c565b9050919050565b600073ffffffffffffffffffffffffffffffffffffffff82169050919050565b6000819050919050565b6000612cf382612d66565b9050919050565b6000612d0582612d0c565b9050919050565b6000612d1782612cbe565b9050919050565b6000612d2982612d30565b9050919050565b6000612d3b82612cbe565b9050919050565b6000612d4d82612d54565b9050919050565b6000612d5f82612cbe565b9050919050565b6000612d7182612d78565b9050919050565b6000612d8382612cbe565b9050919050565b82818337600083830152505050565b60005b83811015612db7578082015181840152602081019050612d9c565b83811115612dc6576000848401525b50505050565b6000601f19601f8301169050919050565b612de681612c7c565b8114612df157600080fd5b50565b612dfd81612c8e565b8114612e0857600080fd5b50565b612e1481612c9a565b8114612e1f57600080fd5b50565b612e2b81612cac565b8114612e3657600080fd5b50565b612e4281612cde565b8114612e4d57600080fd5b5056fea2646970667358221220f457ef6fd79bbc30f62c783c9afe82c5372518bd98d5d285c556771abe0dd4b264736f6c634300060b0033",
  "linkReferences": {},
  "deployedLinkReferences": {}
}