{
  "_format": "hh-sol-artifact-1",
  "contractName": "FYToken",
  "sourceName": "contracts/FYToken.sol",
  "abi": [
    {
      "inputs": [
        {
          "internalType": "bytes6",
          "name": "underlyingId_",
          "type": "bytes6"
        },
        {
          "internalType": "contract IOracle",
          "name": "oracle_",
          "type": "address"
        },
        {
          "internalType": "contract IJoin",
          "name": "join_",
          "type": "address"
        },
        {
          "internalType": "uint256",
          "name": "maturity_",
          "type": "uint256"
        },
        {
          "internalType": "string",
          "name": "name",
          "type": "string"
        },
        {
          "internalType": "string",
          "name": "symbol",
          "type": "string"
        }
      ],
      "stateMutability": "nonpayable",
      "type": "constructor"
    },
    {
      "anonymous": false,
      "inputs": [
        {
          "indexed": true,
          "internalType": "address",
          "name": "owner",
          "type": "address"
        },
        {
          "indexed": true,
          "internalType": "address",
          "name": "spender",
          "type": "address"
        },
        {
          "indexed": false,
          "internalType": "uint256",
          "name": "value",
          "type": "uint256"
        }
      ],
      "name": "Approval",
      "type": "event"
    },
    {
      "anonymous": false,
      "inputs": [
        {
          "indexed": true,
          "internalType": "address",
          "name": "oracle",
          "type": "address"
        }
      ],
      "name": "OracleSet",
      "type": "event"
    },
    {
      "anonymous": false,
      "inputs": [
        {
          "indexed": true,
          "internalType": "address",
          "name": "from",
          "type": "address"
        },
        {
          "indexed": true,
          "internalType": "address",
          "name": "to",
          "type": "address"
        },
        {
          "indexed": false,
          "internalType": "uint256",
          "name": "amount",
          "type": "uint256"
        },
        {
          "indexed": false,
          "internalType": "uint256",
          "name": "redeemed",
          "type": "uint256"
        }
      ],
      "name": "Redeemed",
      "type": "event"
    },
    {
      "anonymous": false,
      "inputs": [
        {
          "indexed": true,
          "internalType": "bytes4",
          "name": "role",
          "type": "bytes4"
        },
        {
          "indexed": true,
          "internalType": "bytes4",
          "name": "newAdminRole",
          "type": "bytes4"
        }
      ],
      "name": "RoleAdminChanged",
      "type": "event"
    },
    {
      "anonymous": false,
      "inputs": [
        {
          "indexed": true,
          "internalType": "bytes4",
          "name": "role",
          "type": "bytes4"
        },
        {
          "indexed": true,
          "internalType": "address",
          "name": "account",
          "type": "address"
        },
        {
          "indexed": true,
          "internalType": "address",
          "name": "sender",
          "type": "address"
        }
      ],
      "name": "RoleGranted",
      "type": "event"
    },
    {
      "anonymous": false,
      "inputs": [
        {
          "indexed": true,
          "internalType": "bytes4",
          "name": "role",
          "type": "bytes4"
        },
        {
          "indexed": true,
          "internalType": "address",
          "name": "account",
          "type": "address"
        },
        {
          "indexed": true,
          "internalType": "address",
          "name": "sender",
          "type": "address"
        }
      ],
      "name": "RoleRevoked",
      "type": "event"
    },
    {
      "anonymous": false,
      "inputs": [
        {
          "indexed": false,
          "internalType": "uint256",
          "name": "chiAtMaturity",
          "type": "uint256"
        }
      ],
      "name": "SeriesMatured",
      "type": "event"
    },
    {
      "anonymous": false,
      "inputs": [
        {
          "indexed": true,
          "internalType": "address",
          "name": "from",
          "type": "address"
        },
        {
          "indexed": true,
          "internalType": "address",
          "name": "to",
          "type": "address"
        },
        {
          "indexed": false,
          "internalType": "uint256",
          "name": "value",
          "type": "uint256"
        }
      ],
      "name": "Transfer",
      "type": "event"
    },
    {
      "inputs": [],
      "name": "DOMAIN_SEPARATOR",
      "outputs": [
        {
          "internalType": "bytes32",
          "name": "",
          "type": "bytes32"
        }
      ],
      "stateMutability": "view",
      "type": "function"
    },
    {
      "inputs": [],
      "name": "LOCK",
      "outputs": [
        {
          "internalType": "bytes4",
          "name": "",
          "type": "bytes4"
        }
      ],
      "stateMutability": "view",
      "type": "function"
    },
    {
      "inputs": [],
      "name": "PERMIT_TYPEHASH",
      "outputs": [
        {
          "internalType": "bytes32",
          "name": "",
          "type": "bytes32"
        }
      ],
      "stateMutability": "view",
      "type": "function"
    },
    {
      "inputs": [],
      "name": "ROOT",
      "outputs": [
        {
          "internalType": "bytes4",
          "name": "",
          "type": "bytes4"
        }
      ],
      "stateMutability": "view",
      "type": "function"
    },
    {
      "inputs": [],
      "name": "accrual",
      "outputs": [
        {
          "internalType": "uint256",
          "name": "",
          "type": "uint256"
        }
      ],
      "stateMutability": "nonpayable",
      "type": "function"
    },
    {
      "inputs": [
        {
          "internalType": "address",
          "name": "owner",
          "type": "address"
        },
        {
          "internalType": "address",
          "name": "spender",
          "type": "address"
        }
      ],
      "name": "allowance",
      "outputs": [
        {
          "internalType": "uint256",
          "name": "",
          "type": "uint256"
        }
      ],
      "stateMutability": "view",
      "type": "function"
    },
    {
      "inputs": [
        {
          "internalType": "address",
          "name": "spender",
          "type": "address"
        },
        {
          "internalType": "uint256",
          "name": "wad",
          "type": "uint256"
        }
      ],
      "name": "approve",
      "outputs": [
        {
          "internalType": "bool",
          "name": "",
          "type": "bool"
        }
      ],
      "stateMutability": "nonpayable",
      "type": "function"
    },
    {
      "inputs": [
        {
          "internalType": "address",
          "name": "guy",
          "type": "address"
        }
      ],
      "name": "balanceOf",
      "outputs": [
        {
          "internalType": "uint256",
          "name": "",
          "type": "uint256"
        }
      ],
      "stateMutability": "view",
      "type": "function"
    },
    {
      "inputs": [
        {
          "internalType": "address",
          "name": "from",
          "type": "address"
        },
        {
          "internalType": "uint256",
          "name": "amount",
          "type": "uint256"
        }
      ],
      "name": "burn",
      "outputs": [],
      "stateMutability": "nonpayable",
      "type": "function"
    },
    {
      "inputs": [],
      "name": "chiAtMaturity",
      "outputs": [
        {
          "internalType": "uint256",
          "name": "",
          "type": "uint256"
        }
      ],
      "stateMutability": "view",
      "type": "function"
    },
    {
      "inputs": [],
      "name": "decimals",
      "outputs": [
        {
          "internalType": "uint8",
          "name": "",
          "type": "uint8"
        }
      ],
      "stateMutability": "view",
      "type": "function"
    },
    {
      "inputs": [],
      "name": "deploymentChainId",
      "outputs": [
        {
          "internalType": "uint256",
          "name": "",
          "type": "uint256"
        }
      ],
      "stateMutability": "view",
      "type": "function"
    },
    {
      "inputs": [
        {
          "internalType": "address",
          "name": "token",
          "type": "address"
        },
        {
          "internalType": "uint256",
          "name": "",
          "type": "uint256"
        }
      ],
      "name": "flashFee",
      "outputs": [
        {
          "internalType": "uint256",
          "name": "",
          "type": "uint256"
        }
      ],
      "stateMutability": "view",
      "type": "function"
    },
    {
      "inputs": [
        {
          "internalType": "contract IERC3156FlashBorrower",
          "name": "receiver",
          "type": "address"
        },
        {
          "internalType": "address",
          "name": "token",
          "type": "address"
        },
        {
          "internalType": "uint256",
          "name": "amount",
          "type": "uint256"
        },
        {
          "internalType": "bytes",
          "name": "data",
          "type": "bytes"
        }
      ],
      "name": "flashLoan",
      "outputs": [
        {
          "internalType": "bool",
          "name": "",
          "type": "bool"
        }
      ],
      "stateMutability": "nonpayable",
      "type": "function"
    },
    {
      "inputs": [
        {
          "internalType": "bytes4",
          "name": "role",
          "type": "bytes4"
        }
      ],
      "name": "getRoleAdmin",
      "outputs": [
        {
          "internalType": "bytes4",
          "name": "",
          "type": "bytes4"
        }
      ],
      "stateMutability": "view",
      "type": "function"
    },
    {
      "inputs": [
        {
          "internalType": "bytes4",
          "name": "role",
          "type": "bytes4"
        },
        {
          "internalType": "address",
          "name": "account",
          "type": "address"
        }
      ],
      "name": "grantRole",
      "outputs": [],
      "stateMutability": "nonpayable",
      "type": "function"
    },
    {
      "inputs": [
        {
          "internalType": "bytes4[]",
          "name": "roles",
          "type": "bytes4[]"
        },
        {
          "internalType": "address",
          "name": "account",
          "type": "address"
        }
      ],
      "name": "grantRoles",
      "outputs": [],
      "stateMutability": "nonpayable",
      "type": "function"
    },
    {
      "inputs": [
        {
          "internalType": "bytes4",
          "name": "role",
          "type": "bytes4"
        },
        {
          "internalType": "address",
          "name": "account",
          "type": "address"
        }
      ],
      "name": "hasRole",
      "outputs": [
        {
          "internalType": "bool",
          "name": "",
          "type": "bool"
        }
      ],
      "stateMutability": "view",
      "type": "function"
    },
    {
      "inputs": [],
      "name": "join",
      "outputs": [
        {
          "internalType": "contract IJoin",
          "name": "",
          "type": "address"
        }
      ],
      "stateMutability": "view",
      "type": "function"
    },
    {
      "inputs": [
        {
          "internalType": "bytes4",
          "name": "role",
          "type": "bytes4"
        }
      ],
      "name": "lockRole",
      "outputs": [],
      "stateMutability": "nonpayable",
      "type": "function"
    },
    {
      "inputs": [],
      "name": "mature",
      "outputs": [],
      "stateMutability": "nonpayable",
      "type": "function"
    },
    {
      "inputs": [],
      "name": "maturity",
      "outputs": [
        {
          "internalType": "uint256",
          "name": "",
          "type": "uint256"
        }
      ],
      "stateMutability": "view",
      "type": "function"
    },
    {
      "inputs": [
        {
          "internalType": "address",
          "name": "token",
          "type": "address"
        }
      ],
      "name": "maxFlashLoan",
      "outputs": [
        {
          "internalType": "uint256",
          "name": "",
          "type": "uint256"
        }
      ],
      "stateMutability": "view",
      "type": "function"
    },
    {
      "inputs": [
        {
          "internalType": "address",
          "name": "to",
          "type": "address"
        },
        {
          "internalType": "uint256",
          "name": "amount",
          "type": "uint256"
        }
      ],
      "name": "mint",
      "outputs": [],
      "stateMutability": "nonpayable",
      "type": "function"
    },
    {
      "inputs": [],
      "name": "name",
      "outputs": [
        {
          "internalType": "string",
          "name": "",
          "type": "string"
        }
      ],
      "stateMutability": "view",
      "type": "function"
    },
    {
      "inputs": [
        {
          "internalType": "address",
          "name": "",
          "type": "address"
        }
      ],
      "name": "nonces",
      "outputs": [
        {
          "internalType": "uint256",
          "name": "",
          "type": "uint256"
        }
      ],
      "stateMutability": "view",
      "type": "function"
    },
    {
      "inputs": [],
      "name": "oracle",
      "outputs": [
        {
          "internalType": "contract IOracle",
          "name": "",
          "type": "address"
        }
      ],
      "stateMutability": "view",
      "type": "function"
    },
    {
      "inputs": [
        {
          "internalType": "address",
          "name": "owner",
          "type": "address"
        },
        {
          "internalType": "address",
          "name": "spender",
          "type": "address"
        },
        {
          "internalType": "uint256",
          "name": "amount",
          "type": "uint256"
        },
        {
          "internalType": "uint256",
          "name": "deadline",
          "type": "uint256"
        },
        {
          "internalType": "uint8",
          "name": "v",
          "type": "uint8"
        },
        {
          "internalType": "bytes32",
          "name": "r",
          "type": "bytes32"
        },
        {
          "internalType": "bytes32",
          "name": "s",
          "type": "bytes32"
        }
      ],
      "name": "permit",
      "outputs": [],
      "stateMutability": "nonpayable",
      "type": "function"
    },
    {
      "inputs": [
        {
          "internalType": "address",
          "name": "to",
          "type": "address"
        },
        {
          "internalType": "uint256",
          "name": "amount",
          "type": "uint256"
        }
      ],
      "name": "redeem",
      "outputs": [
        {
          "internalType": "uint256",
          "name": "redeemed",
          "type": "uint256"
        }
      ],
      "stateMutability": "nonpayable",
      "type": "function"
    },
    {
      "inputs": [
        {
          "internalType": "bytes4",
          "name": "role",
          "type": "bytes4"
        },
        {
          "internalType": "address",
          "name": "account",
          "type": "address"
        }
      ],
      "name": "renounceRole",
      "outputs": [],
      "stateMutability": "nonpayable",
      "type": "function"
    },
    {
      "inputs": [
        {
          "internalType": "bytes4",
          "name": "role",
          "type": "bytes4"
        },
        {
          "internalType": "address",
          "name": "account",
          "type": "address"
        }
      ],
      "name": "revokeRole",
      "outputs": [],
      "stateMutability": "nonpayable",
      "type": "function"
    },
    {
      "inputs": [
        {
          "internalType": "bytes4[]",
          "name": "roles",
          "type": "bytes4[]"
        },
        {
          "internalType": "address",
          "name": "account",
          "type": "address"
        }
      ],
      "name": "revokeRoles",
      "outputs": [],
      "stateMutability": "nonpayable",
      "type": "function"
    },
    {
      "inputs": [
        {
          "internalType": "contract IOracle",
          "name": "oracle_",
          "type": "address"
        }
      ],
      "name": "setOracle",
      "outputs": [],
      "stateMutability": "nonpayable",
      "type": "function"
    },
    {
      "inputs": [
        {
          "internalType": "bytes4",
          "name": "role",
          "type": "bytes4"
        },
        {
          "internalType": "bytes4",
          "name": "adminRole",
          "type": "bytes4"
        }
      ],
      "name": "setRoleAdmin",
      "outputs": [],
      "stateMutability": "nonpayable",
      "type": "function"
    },
    {
      "inputs": [],
      "name": "symbol",
      "outputs": [
        {
          "internalType": "string",
          "name": "",
          "type": "string"
        }
      ],
      "stateMutability": "view",
      "type": "function"
    },
    {
      "inputs": [],
      "name": "totalSupply",
      "outputs": [
        {
          "internalType": "uint256",
          "name": "",
          "type": "uint256"
        }
      ],
      "stateMutability": "view",
      "type": "function"
    },
    {
      "inputs": [
        {
          "internalType": "address",
          "name": "dst",
          "type": "address"
        },
        {
          "internalType": "uint256",
          "name": "wad",
          "type": "uint256"
        }
      ],
      "name": "transfer",
      "outputs": [
        {
          "internalType": "bool",
          "name": "",
          "type": "bool"
        }
      ],
      "stateMutability": "nonpayable",
      "type": "function"
    },
    {
      "inputs": [
        {
          "internalType": "address",
          "name": "src",
          "type": "address"
        },
        {
          "internalType": "address",
          "name": "dst",
          "type": "address"
        },
        {
          "internalType": "uint256",
          "name": "wad",
          "type": "uint256"
        }
      ],
      "name": "transferFrom",
      "outputs": [
        {
          "internalType": "bool",
          "name": "",
          "type": "bool"
        }
      ],
      "stateMutability": "nonpayable",
      "type": "function"
    },
    {
      "inputs": [],
      "name": "underlying",
      "outputs": [
        {
          "internalType": "address",
          "name": "",
          "type": "address"
        }
      ],
      "stateMutability": "view",
      "type": "function"
    },
    {
      "inputs": [],
      "name": "underlyingId",
      "outputs": [
        {
          "internalType": "bytes6",
          "name": "",
          "type": "bytes6"
        }
      ],
      "stateMutability": "view",
      "type": "function"
    },
    {
      "inputs": [],
      "name": "version",
      "outputs": [
        {
          "internalType": "string",
          "name": "",
          "type": "string"
        }
      ],
      "stateMutability": "pure",
      "type": "function"
    }
  ],
  "bytecode": "0x6101a06040526003610160819052623f3f3f60e81b610180908152620000299160049190620005b6565b50604080518082019091526003808252623f3f3f60e81b60209092019182526200005691600591620005b6565b506006805460ff191660121790557f6e71edae12b1b97f4d1f60370fef10105fa2faae0126114a169c64845d6126c96080526000196009553480156200009b57600080fd5b506040516200317738038062003177833981016040819052620000be9162000735565b8181856001600160a01b03166338d52e0f6040518163ffffffff1660e01b815260040160206040518083038186803b158015620000fa57600080fd5b505afa1580156200010f573d6000803e3d6000fd5b505050506040513d601f19601f820116820180604052508101906200013591906200070f565b6001600160a01b031663313ce5676040518163ffffffff1660e01b815260040160206040518083038186803b1580156200016e57600080fd5b505afa15801562000183573d6000803e3d6000fd5b505050506040513d601f19601f82011682018060405250810190620001a99190620007f0565b828282620001b96000336200034b565b620001cd6001600160e01b031980620003c0565b8251620001e2906004906020860190620005b6565b508151620001f8906005906020850190620005b6565b506006805460ff191660ff9290921691909117905550504660c0819052620002208162000442565b60a052504292505050808411801562000247575062000244630784ce008262000941565b84105b801562000257575063ffffffff84105b6200027f5760405162461bcd60e51b81526004016200027690620008e4565b60405180910390fd5b6001600160d01b03198716610120526001600160601b0319606086901b1660e052610140849052604080516338d52e0f60e01b815290516001600160a01b038716916338d52e0f916004808301926020929190829003018186803b158015620002e757600080fd5b505afa158015620002fc573d6000803e3d6000fd5b505050506040513d601f19601f820116820180604052508101906200032291906200070f565b60601b6001600160601b031916610100526200033e86620004c3565b50505050505050620009d2565b62000357828262000544565b620003bc576001600160e01b031982166000818152602081815260408083206001600160a01b0386168085529252808320805460ff1916600117905551339391927fe6231789d19137da31d0550f4ba9ee379020a8cfb64cb79bf1790c996d2e616591a45b5050565b6001600160e01b03198116620003d68362000579565b6001600160e01b03191614620003bc576001600160e01b0319828116600081815260208190526040808220600101805463ffffffff191660e087901c17905551928416927fd348e2220a50b4500ec353f6e802d2f14dd1b5d6786148fd1bbcc570bf92d4739190a35050565b60007f8b73c3c69bb8fe3d512ecc4cf759cc79239f7b179b0ffacaa9a75d522b39400f600460405162000476919062000813565b604051908190039020620004896200059b565b8051602091820120604051620004a69493928791309101620008b8565b604051602081830303815290604052805190602001209050919050565b620004db6001600160e01b0319600035163362000544565b620004fa5760405162461bcd60e51b815260040162000276906200090e565b600880546001600160a01b0319166001600160a01b0383169081179091556040517f3f32684a32a11dabdbb8c0177de80aa3ae36a004d75210335b49e544e48cd0aa90600090a250565b6001600160e01b031982166000908152602081815260408083206001600160a01b038516845290915290205460ff1692915050565b6001600160e01b03191660009081526020819052604090206001015460e01b90565b6040805180820190915260018152603160f81b602082015290565b828054620005c49062000966565b90600052602060002090601f016020900481019282620005e8576000855562000633565b82601f106200060357805160ff191683800117855562000633565b8280016001018555821562000633579182015b828111156200063357825182559160200191906001019062000616565b506200064192915062000645565b5090565b5b8082111562000641576000815560010162000646565b600082601f8301126200066d578081fd5b81516001600160401b03808211156200068a576200068a620009a3565b604051601f8301601f19908116603f01168101908282118183101715620006b557620006b5620009a3565b81604052838152602092508683858801011115620006d1578485fd5b8491505b83821015620006f45785820183015181830184015290820190620006d5565b838211156200070557848385830101525b9695505050505050565b60006020828403121562000721578081fd5b81516200072e81620009b9565b9392505050565b60008060008060008060c087890312156200074e578182fd5b86516001600160d01b03198116811462000766578283fd5b60208801519096506200077981620009b9565b60408801519095506200078c81620009b9565b6060880151608089015191955093506001600160401b0380821115620007b0578384fd5b620007be8a838b016200065c565b935060a0890151915080821115620007d4578283fd5b50620007e389828a016200065c565b9150509295509295509295565b60006020828403121562000802578081fd5b815160ff811681146200072e578182fd5b81546000908190600281046001808316806200083057607f831692505b60208084108214156200085157634e487b7160e01b87526022600452602487fd5b8180156200086857600181146200087a57620008aa565b60ff19861689528489019650620008aa565b620008858a62000935565b885b86811015620008a25781548b82015290850190830162000887565b505084890196505b509498975050505050505050565b9485526020850193909352604084019190915260608301526001600160a01b0316608082015260a00190565b60208082526010908201526f496e76616c6964206d6174757269747960801b604082015260600190565b6020808252600d908201526c1058d8d95cdcc819195b9a5959609a1b604082015260600190565b60009081526020902090565b600082198211156200096157634e487b7160e01b81526011600452602481fd5b500190565b6002810460018216806200097b57607f821691505b602082108114156200099d57634e487b7160e01b600052602260045260246000fd5b50919050565b634e487b7160e01b600052604160045260246000fd5b6001600160a01b0381168114620009cf57600080fd5b50565b60805160a05160c05160e05160601c6101005160601c6101205160d01c60d01b610140516126dc62000a9b6000396000818161063d015281816107a70152818161081a015281816108cd01528181610a4c01528181610bbb01528181610d640152611185015260008181610dd80152818161145701526119bf01526000610c580152600081816106ab0152610f5f01526000818161087001528181610f8901526110500152600081816108a501526110850152600081816107eb0152610fea01526126dc6000f3fe608060405234801561001057600080fd5b50600436106102d35760003560e01c80636f307dc311610186578063a9059cbb116100e3578063cd0d009611610097578063dd62ed3e11610071578063dd62ed3e1461054a578063de02cde71461055d578063effae35314610570576102d3565b8063cd0d00961461051c578063d505accf14610524578063d9d98ce414610537576102d3565b8063ae93c1b5116100c8578063ae93c1b5146104f9578063b688a3631461050c578063c077b49214610514576102d3565b8063a9059cbb146104d3578063ad82110f146104e6576102d3565b806387b652071161013a57806395d89b411161011f57806395d89b41146104b05780639dc29fac146104b8578063a4f0d7d0146104cb576102d3565b806387b652071461049357806391ff394c1461049b576102d3565b80637adbf9731161016b5780637adbf973146104655780637dc0d1d0146104785780637ecebe0014610480576102d3565b80636f307dc31461043d57806370a0823114610452576102d3565b80633644e515116102345780635909c12f116101e85780635cffe9de116101cd5780635cffe9de14610404578063613255ab14610417578063687f0e4c1461042a576102d3565b80635909c12f146103dc5780635ba5e9f0146103f1576102d3565b806344faded01161021957806344faded0146103ae57806354fd4d50146103c1578063559742d9146103c9576102d3565b80633644e5151461039157806340c10f1914610399576102d3565b8063204f83f91161028b57806330adf81f1161027057806330adf81f1461036c578063313ce56714610374578063341f141d14610389576102d3565b8063204f83f91461035157806323b872dd14610359576102d3565b806310ab9432116102bc57806310ab94321461031657806318160ddd146103295780631e9a69501461033e576102d3565b806306fdde03146102d8578063095ea7b3146102f6575b600080fd5b6102e0610583565b6040516102ed919061226a565b60405180910390f35b610309610304366004611d2d565b610611565b6040516102ed9190612144565b610309610324366004611e4a565b610627565b610331610633565b6040516102ed919061214f565b61033161034c366004611d2d565b610639565b6103316107a5565b610309610367366004611c78565b6107c9565b6103316107e9565b61037c61080d565b6040516102ed9190612556565b610331610816565b61033161086b565b6103ac6103a7366004611d2d565b6108cb565b005b6103ac6103bc366004611e4a565b610969565b6102e06109a2565b6103ac6103d7366004611e30565b6109d9565b6103e4610a30565b6040516102ed91906121d6565b6103e46103ff366004611e30565b610a35565b610309610412366004611e97565b610a48565b610331610425366004611c1d565b610bb7565b6103ac610438366004611e4a565b610c24565b610445610c56565b6040516102ed91906120c2565b610331610460366004611c1d565b610c7a565b6103ac610473366004611c1d565b610c95565b610445610d41565b61033161048e366004611c1d565b610d50565b6103ac610d62565b6104a3610dd6565b6040516102ed9190612203565b6102e0610dfa565b6103ac6104c6366004611d2d565b610e07565b6103e4610e5b565b6103096104e1366004611d2d565b610e7f565b6103ac6104f4366004611d58565b610e8c565b6103ac610507366004611e65565b610f2a565b610445610f5d565b610331610f81565b610331610f87565b6103ac610532366004611cb8565b610fab565b610331610545366004611d2d565b611181565b610331610558366004611c40565b6111f9565b6103ac61056b366004611e4a565b611224565b6103ac61057e366004611d58565b611257565b600480546105909061260f565b80601f01602080910402602001604051908101604052809291908181526020018280546105bc9061260f565b80156106095780601f106105de57610100808354040283529160200191610609565b820191906000526020600020905b8154815290600101906020018083116105ec57829003601f168201915b505050505081565b600061061e3384846112e8565b90505b92915050565b600061061e8383611358565b60015490565b60007f00000000000000000000000000000000000000000000000000000000000000004263ffffffff16101561068a5760405162461bcd60e51b8152600401610681906123fe565b60405180910390fd5b61069433836113a5565b506106a76106a06113f9565b8390611539565b90507f00000000000000000000000000000000000000000000000000000000000000006001600160a01b03166312e5ff77846106e284611557565b6040518363ffffffff1660e01b81526004016106ff929190612119565b602060405180830381600087803b15801561071957600080fd5b505af115801561072d573d6000803e3d6000fd5b505050506040513d601f19601f820116820180604052508101906107519190611f53565b50826001600160a01b0316336001600160a01b03167f5cdf07ad0fc222442720b108e3ed4c4640f0fadc2ab2253e66f259a0fea834808484604051610797929190612548565b60405180910390a350919050565b7f000000000000000000000000000000000000000000000000000000000000000081565b60006107d5848361158d565b506107e1848484611606565b949350505050565b7f000000000000000000000000000000000000000000000000000000000000000081565b60065460ff1681565b60007f00000000000000000000000000000000000000000000000000000000000000004263ffffffff16101561085e5760405162461bcd60e51b8152600401610681906123fe565b6108666113f9565b905090565b6000467f000000000000000000000000000000000000000000000000000000000000000081146108a35761089e816116c3565b6108c5565b7f00000000000000000000000000000000000000000000000000000000000000005b91505090565b7f00000000000000000000000000000000000000000000000000000000000000004263ffffffff16106109105760405162461bcd60e51b815260040161068190612390565b61093e6000357fffffffff000000000000000000000000000000000000000000000000000000001633611358565b61095a5760405162461bcd60e51b815260040161068190612511565b610964828261173d565b505050565b8161097c610976826117da565b33611358565b6109985760405162461bcd60e51b815260040161068190612359565b6109648383611814565b60408051808201909152600181527f3100000000000000000000000000000000000000000000000000000000000000602082015290565b806109e6610976826117da565b610a025760405162461bcd60e51b815260040161068190612359565b610a2c827fffffffff0000000000000000000000000000000000000000000000000000000061189b565b5050565b600081565b6000610a40826117da565b90505b919050565b60007f00000000000000000000000000000000000000000000000000000000000000004263ffffffff1610610a8f5760405162461bcd60e51b815260040161068190612390565b6001600160a01b0384163014610ab75760405162461bcd60e51b815260040161068190612435565b610ac1858461173d565b506040517f23e30c8b0000000000000000000000000000000000000000000000000000000081527f439148f0bbc682ca079e46d6e2c2f0c1e3b820f1a291b069d8882abf8cf18dd9906001600160a01b038716906323e30c8b90610b32903390899089906000908a906004016120d6565b602060405180830381600087803b158015610b4c57600080fd5b505af1158015610b60573d6000803e3d6000fd5b505050506040513d601f19601f82011682018060405250810190610b849190611e18565b14610ba15760405162461bcd60e51b8152600401610681906124a3565b610bab85846113a5565b50600195945050505050565b60007f00000000000000000000000000000000000000000000000000000000000000004263ffffffff1610610bfe5760405162461bcd60e51b815260040161068190612390565b6001600160a01b0382163014610c15576000610a40565b600154610a40906000196125f8565b6001600160a01b0381163314610c4c5760405162461bcd60e51b8152600401610681906124da565b610a2c8282611814565b7f000000000000000000000000000000000000000000000000000000000000000081565b6001600160a01b031660009081526002602052604090205490565b610cc36000357fffffffff000000000000000000000000000000000000000000000000000000001633611358565b610cdf5760405162461bcd60e51b815260040161068190612511565b600880547fffffffffffffffffffffffff0000000000000000000000000000000000000000166001600160a01b0383169081179091556040517f3f32684a32a11dabdbb8c0177de80aa3ae36a004d75210335b49e544e48cd0aa90600090a250565b6008546001600160a01b031681565b60076020526000908152604090205481565b7f00000000000000000000000000000000000000000000000000000000000000004263ffffffff161015610da85760405162461bcd60e51b8152600401610681906123fe565b60001960095414610dcb5760405162461bcd60e51b815260040161068190612322565b610dd361197d565b50565b7f000000000000000000000000000000000000000000000000000000000000000081565b600580546105909061260f565b610e356000357fffffffff000000000000000000000000000000000000000000000000000000001633611358565b610e515760405162461bcd60e51b815260040161068190612511565b61096482826113a5565b7fffffffff0000000000000000000000000000000000000000000000000000000081565b600061061e338484611606565b60005b825181101561096457610ecb610976848381518110610ebe57634e487b7160e01b600052603260045260246000fd5b60200260200101516117da565b610ee75760405162461bcd60e51b815260040161068190612359565b610f18838281518110610f0a57634e487b7160e01b600052603260045260246000fd5b602002602001015183611814565b80610f228161264a565b915050610e8f565b81610f37610976826117da565b610f535760405162461bcd60e51b815260040161068190612359565b610964838361189b565b7f000000000000000000000000000000000000000000000000000000000000000081565b60095481565b7f000000000000000000000000000000000000000000000000000000000000000081565b42841015610fcb5760405162461bcd60e51b8152600401610681906122b4565b6001600160a01b038716600090815260076020526040812080544692917f0000000000000000000000000000000000000000000000000000000000000000918b918b918b918661101a8361264a565b919050558a60405160200161103496959493929190612158565b60405160208183030381529060405280519060200120905060007f000000000000000000000000000000000000000000000000000000000000000083146110835761107e836116c3565b6110a5565b7f00000000000000000000000000000000000000000000000000000000000000005b826040516020016110b792919061208c565b6040516020818303038152906040528051906020012090506000600182888888604051600081526020016040526040516110f494939291906121b8565b6020604051602081039080840390855afa158015611116573d6000803e3d6000fd5b5050604051601f1901519150506001600160a01b0381161580159061114c57508a6001600160a01b0316816001600160a01b0316145b6111685760405162461bcd60e51b81526004016106819061246c565b6111738b8b8b6112e8565b505050505050505050505050565b60007f00000000000000000000000000000000000000000000000000000000000000004263ffffffff16106111c85760405162461bcd60e51b815260040161068190612390565b6001600160a01b03831630146111f05760405162461bcd60e51b815260040161068190612435565b50600092915050565b6001600160a01b03918216600090815260036020908152604080832093909416825291909152205490565b81611231610976826117da565b61124d5760405162461bcd60e51b815260040161068190612359565b6109648383611aa8565b60005b825181101561096457611289610976848381518110610ebe57634e487b7160e01b600052603260045260246000fd5b6112a55760405162461bcd60e51b815260040161068190612359565b6112d68382815181106112c857634e487b7160e01b600052603260045260246000fd5b602002602001015183611aa8565b806112e08161264a565b91505061125a565b6001600160a01b0380841660008181526003602090815260408083209487168084529490915280822085905551909291907f8c5be1e5ebec7d5bd14f71427d1e84f3dd0314c0f7b2291e5b200ac8c7c3b9259061134690869061214f565b60405180910390a35060019392505050565b7fffffffff0000000000000000000000000000000000000000000000000000000082166000908152602081815260408083206001600160a01b038516845290915290205460ff1692915050565b306000908152600260205260408120548281106113ce576113c63084611b31565b915050610621565b80156113e0576113de3082611b31565b505b6113ec8482850361158d565b506113c684828503611b31565b600060001960095414156114155761140f61197d565b50611518565b6008546040517f462f9a280000000000000000000000000000000000000000000000000000000081526000916001600160a01b03169063462f9a28906114ab907f0000000000000000000000000000000000000000000000000000000000000000907f636869000000000000000000000000000000000000000000000000000000000090670de0b6b3a764000090600401612230565b6040805180830381600087803b1580156114c457600080fd5b505af11580156114d8573d6000803e3d6000fd5b505050506040513d601f19601f820116820180604052508101906114fc9190611f83565b50905061151460095482611bc390919063ffffffff16565b9150505b670de0b6b3a764000081101561153657670de0b6b3a7640000610866565b90565b600061154582846125d9565b670de0b6b3a764000090049392505050565b60006fffffffffffffffffffffffffffffffff8211156115895760405162461bcd60e51b81526004016106819061227d565b5090565b60006001600160a01b03831633146115fd576001600160a01b038316600090815260036020908152604080832033845290915290205460001981146115fb57828110156115ec5760405162461bcd60e51b8152600401610681906122eb565b6115f984338584036112e8565b505b505b50600192915050565b6001600160a01b03831660009081526002602052604081205482111561163e5760405162461bcd60e51b8152600401610681906123c7565b6001600160a01b0380851660009081526002602052604080822080548690039055918516815220546116719083906125a1565b6001600160a01b0380851660008181526002602052604090819020939093559151908616907fddf252ad1be2c89b69c2b068fc378daa952ba7f163c4a11628f55a4df523b3ef9061134690869061214f565b60007f8b73c3c69bb8fe3d512ecc4cf759cc79239f7b179b0ffacaa9a75d522b39400f60046040516116f59190611ff1565b60405180910390206117056109a2565b8051602091820120604051611720949392879130910161218c565b604051602081830303815290604052805190602001209050919050565b6001600160a01b0382166000908152600260205260408120546117619083906125a1565b6001600160a01b0384166000908152600260205260409020556001546117889083906125a1565b6001556040516001600160a01b038416906000907fddf252ad1be2c89b69c2b068fc378daa952ba7f163c4a11628f55a4df523b3ef906117c990869061214f565b60405180910390a350600192915050565b7fffffffff000000000000000000000000000000000000000000000000000000001660009081526020819052604090206001015460e01b90565b61181e8282611358565b15610a2c577fffffffff0000000000000000000000000000000000000000000000000000000082166000818152602081815260408083206001600160a01b0386168085529252808320805460ff1916905551339391927f4ddc7b757e7bdd7254a9cd39452d307a52761bc824625c6a33104a075d8099e691a45050565b7fffffffff0000000000000000000000000000000000000000000000000000000081166118c7836117da565b7fffffffff000000000000000000000000000000000000000000000000000000001614610a2c577fffffffff0000000000000000000000000000000000000000000000000000000082811660008181526020819052604080822060010180547fffffffffffffffffffffffffffffffffffffffffffffffffffffffff000000001660e087901c17905551928416927fd348e2220a50b4500ec353f6e802d2f14dd1b5d6786148fd1bbcc570bf92d4739190a35050565b6008546040517f462f9a280000000000000000000000000000000000000000000000000000000081526000916001600160a01b03169063462f9a2890611a13907f0000000000000000000000000000000000000000000000000000000000000000907f636869000000000000000000000000000000000000000000000000000000000090670de0b6b3a764000090600401612230565b6040805180830381600087803b158015611a2c57600080fd5b505af1158015611a40573d6000803e3d6000fd5b505050506040513d601f19601f82011682018060405250810190611a649190611f83565b5060098190556040519091507f8be75db1b82d3c69cbae9639f0c64031bc1ec21b06cf1fd56c9b24034497f9ff90611a9d90839061214f565b60405180910390a190565b611ab28282611358565b610a2c577fffffffff0000000000000000000000000000000000000000000000000000000082166000818152602081815260408083206001600160a01b0386168085529252808320805460ff1916600117905551339391927fe6231789d19137da31d0550f4ba9ee379020a8cfb64cb79bf1790c996d2e616591a45050565b6001600160a01b038216600090815260026020526040812054821115611b695760405162461bcd60e51b8152600401610681906123c7565b6001600160a01b03831660008181526002602052604080822080548690039055600180548690039055519091907fddf252ad1be2c89b69c2b068fc378daa952ba7f163c4a11628f55a4df523b3ef906117c990869061214f565b600081611bd884670de0b6b3a76400006125d9565b61061e91906125b9565b8035610a4381612691565b80357fffffffff0000000000000000000000000000000000000000000000000000000081168114610a4357600080fd5b600060208284031215611c2e578081fd5b8135611c3981612691565b9392505050565b60008060408385031215611c52578081fd5b8235611c5d81612691565b91506020830135611c6d81612691565b809150509250929050565b600080600060608486031215611c8c578081fd5b8335611c9781612691565b92506020840135611ca781612691565b929592945050506040919091013590565b600080600080600080600060e0888a031215611cd2578283fd5b8735611cdd81612691565b96506020880135611ced81612691565b95506040880135945060608801359350608088013560ff81168114611d10578384fd5b9699959850939692959460a0840135945060c09093013592915050565b60008060408385031215611d3f578182fd5b8235611d4a81612691565b946020939093013593505050565b60008060408385031215611d6a578182fd5b823567ffffffffffffffff80821115611d81578384fd5b818501915085601f830112611d94578384fd5b8135602082821115611da857611da861267b565b8082029250611db8818401612564565b8281528181019085830185870184018b1015611dd2578889fd5b8896505b84871015611dfb57611de781611bed565b835260019690960195918301918301611dd6565b509650611e0b9050878201611be2565b9450505050509250929050565b600060208284031215611e29578081fd5b5051919050565b600060208284031215611e41578081fd5b61061e82611bed565b60008060408385031215611e5c578182fd5b611c5d83611bed565b60008060408385031215611e77578182fd5b611e8083611bed565b9150611e8e60208401611bed565b90509250929050565b60008060008060808587031215611eac578182fd5b8435611eb781612691565b9350602085810135611ec881612691565b935060408601359250606086013567ffffffffffffffff80821115611eeb578384fd5b818801915088601f830112611efe578384fd5b813581811115611f1057611f1061267b565b611f2284601f19601f84011601612564565b91508082528984828501011115611f37578485fd5b8084840185840137810190920192909252939692955090935050565b600060208284031215611f64578081fd5b81516fffffffffffffffffffffffffffffffff81168114611c39578182fd5b60008060408385031215611f95578182fd5b505080516020909101519092909150565b60008151808452815b81811015611fcb57602081850181015186830182015201611faf565b81811115611fdc5782602083870101525b50601f01601f19169290920160200192915050565b815460009081906002810460018083168061200d57607f831692505b602080841082141561202d57634e487b7160e01b87526022600452602487fd5b81801561204157600181146120525761207e565b60ff1986168952848901965061207e565b61205b8a612595565b885b868110156120765781548b82015290850190830161205d565b505084890196505b509498975050505050505050565b7f190100000000000000000000000000000000000000000000000000000000000081526002810192909252602282015260420190565b6001600160a01b0391909116815260200190565b60006001600160a01b03808816835280871660208401525084604083015283606083015260a0608083015261210e60a0830184611fa6565b979650505050505050565b6001600160a01b039290921682526fffffffffffffffffffffffffffffffff16602082015260400190565b901515815260200190565b90815260200190565b9586526001600160a01b0394851660208701529290931660408501526060840152608083019190915260a082015260c00190565b9485526020850193909352604084019190915260608301526001600160a01b0316608082015260a00190565b93845260ff9290921660208401526040830152606082015260800190565b7fffffffff0000000000000000000000000000000000000000000000000000000091909116815260200190565b7fffffffffffff000000000000000000000000000000000000000000000000000091909116815260200190565b7fffffffffffff00000000000000000000000000000000000000000000000000009390931683526020830191909152604082015260600190565b60006020825261061e6020830184611fa6565b6020808252600d908201527f43617374206f766572666c6f7700000000000000000000000000000000000000604082015260600190565b6020808252601d908201527f45524332305065726d69743a206578706972656420646561646c696e65000000604082015260600190565b6020808252601c908201527f45524332303a20496e73756666696369656e7420617070726f76616c00000000604082015260600190565b6020808252600f908201527f416c7265616479206d6174757265640000000000000000000000000000000000604082015260600190565b6020808252600a908201527f4f6e6c792061646d696e00000000000000000000000000000000000000000000604082015260600190565b60208082526014908201527f4f6e6c79206265666f7265206d61747572697479000000000000000000000000604082015260600190565b6020808252601b908201527f45524332303a20496e73756666696369656e742062616c616e63650000000000604082015260600190565b60208082526013908201527f4f6e6c79206166746572206d6174757269747900000000000000000000000000604082015260600190565b60208082526014908201527f556e737570706f727465642063757272656e6379000000000000000000000000604082015260600190565b6020808252601e908201527f45524332305065726d69743a20696e76616c6964207369676e61747572650000604082015260600190565b60208082526016908201527f4e6f6e2d636f6d706c69616e7420626f72726f77657200000000000000000000604082015260600190565b60208082526016908201527f52656e6f756e6365206f6e6c7920666f722073656c6600000000000000000000604082015260600190565b6020808252600d908201527f4163636573732064656e69656400000000000000000000000000000000000000604082015260600190565b918252602082015260400190565b60ff91909116815260200190565b604051601f8201601f1916810167ffffffffffffffff8111828210171561258d5761258d61267b565b604052919050565b60009081526020902090565b600082198211156125b4576125b4612665565b500190565b6000826125d457634e487b7160e01b81526012600452602481fd5b500490565b60008160001904831182151516156125f3576125f3612665565b500290565b60008282101561260a5761260a612665565b500390565b60028104600182168061262357607f821691505b6020821081141561264457634e487b7160e01b600052602260045260246000fd5b50919050565b600060001982141561265e5761265e612665565b5060010190565b634e487b7160e01b600052601160045260246000fd5b634e487b7160e01b600052604160045260246000fd5b6001600160a01b0381168114610dd357600080fdfea26469706673582212208dc2759e8cdd28c5ca4fbf30b65bb19fa985996d8b7d9e5526e704f84325bc2264736f6c63430008010033",
  "linkReferences": {},
  "deployedLinkReferences": {}
}