{
  "_format": "hh-sol-artifact-1",
  "contractName": "TwabLibExposed",
  "sourceName": "contracts/test/TwabLibraryExposed.sol",
  "abi": [
    {
      "anonymous": false,
      "inputs": [
        {
          "components": [
            {
              "internalType": "uint208",
              "name": "balance",
              "type": "uint208"
            },
            {
              "internalType": "uint24",
              "name": "nextTwabIndex",
              "type": "uint24"
            },
            {
              "internalType": "uint24",
              "name": "cardinality",
              "type": "uint24"
            }
          ],
          "indexed": false,
          "internalType": "struct TwabLib.AccountDetails",
          "name": "accountDetails",
          "type": "tuple"
        },
        {
          "components": [
            {
              "internalType": "uint224",
              "name": "amount",
              "type": "uint224"
            },
            {
              "internalType": "uint32",
              "name": "timestamp",
              "type": "uint32"
            }
          ],
          "indexed": false,
          "internalType": "struct ObservationLib.Observation",
          "name": "twab",
          "type": "tuple"
        },
        {
          "indexed": false,
          "internalType": "bool",
          "name": "isNew",
          "type": "bool"
        }
      ],
      "name": "Updated",
      "type": "event"
    },
    {
      "inputs": [],
      "name": "MAX_CARDINALITY",
      "outputs": [
        {
          "internalType": "uint24",
          "name": "",
          "type": "uint24"
        }
      ],
      "stateMutability": "view",
      "type": "function"
    },
    {
      "inputs": [
        {
          "internalType": "uint256",
          "name": "_amount",
          "type": "uint256"
        },
        {
          "internalType": "string",
          "name": "_revertMessage",
          "type": "string"
        },
        {
          "internalType": "uint32",
          "name": "_currentTime",
          "type": "uint32"
        }
      ],
      "name": "decreaseBalance",
      "outputs": [
        {
          "components": [
            {
              "internalType": "uint208",
              "name": "balance",
              "type": "uint208"
            },
            {
              "internalType": "uint24",
              "name": "nextTwabIndex",
              "type": "uint24"
            },
            {
              "internalType": "uint24",
              "name": "cardinality",
              "type": "uint24"
            }
          ],
          "internalType": "struct TwabLib.AccountDetails",
          "name": "accountDetails",
          "type": "tuple"
        },
        {
          "components": [
            {
              "internalType": "uint224",
              "name": "amount",
              "type": "uint224"
            },
            {
              "internalType": "uint32",
              "name": "timestamp",
              "type": "uint32"
            }
          ],
          "internalType": "struct ObservationLib.Observation",
          "name": "twab",
          "type": "tuple"
        },
        {
          "internalType": "bool",
          "name": "isNew",
          "type": "bool"
        }
      ],
      "stateMutability": "nonpayable",
      "type": "function"
    },
    {
      "inputs": [],
      "name": "details",
      "outputs": [
        {
          "components": [
            {
              "internalType": "uint208",
              "name": "balance",
              "type": "uint208"
            },
            {
              "internalType": "uint24",
              "name": "nextTwabIndex",
              "type": "uint24"
            },
            {
              "internalType": "uint24",
              "name": "cardinality",
              "type": "uint24"
            }
          ],
          "internalType": "struct TwabLib.AccountDetails",
          "name": "",
          "type": "tuple"
        }
      ],
      "stateMutability": "view",
      "type": "function"
    },
    {
      "inputs": [
        {
          "internalType": "uint32",
          "name": "_startTime",
          "type": "uint32"
        },
        {
          "internalType": "uint32",
          "name": "_endTime",
          "type": "uint32"
        },
        {
          "internalType": "uint32",
          "name": "_currentTime",
          "type": "uint32"
        }
      ],
      "name": "getAverageBalanceBetween",
      "outputs": [
        {
          "internalType": "uint256",
          "name": "",
          "type": "uint256"
        }
      ],
      "stateMutability": "view",
      "type": "function"
    },
    {
      "inputs": [
        {
          "internalType": "uint32",
          "name": "_target",
          "type": "uint32"
        },
        {
          "internalType": "uint32",
          "name": "_currentTime",
          "type": "uint32"
        }
      ],
      "name": "getBalanceAt",
      "outputs": [
        {
          "internalType": "uint256",
          "name": "",
          "type": "uint256"
        }
      ],
      "stateMutability": "view",
      "type": "function"
    },
    {
      "inputs": [
        {
          "internalType": "uint256",
          "name": "_amount",
          "type": "uint256"
        },
        {
          "internalType": "uint32",
          "name": "_currentTime",
          "type": "uint32"
        }
      ],
      "name": "increaseBalance",
      "outputs": [
        {
          "components": [
            {
              "internalType": "uint208",
              "name": "balance",
              "type": "uint208"
            },
            {
              "internalType": "uint24",
              "name": "nextTwabIndex",
              "type": "uint24"
            },
            {
              "internalType": "uint24",
              "name": "cardinality",
              "type": "uint24"
            }
          ],
          "internalType": "struct TwabLib.AccountDetails",
          "name": "accountDetails",
          "type": "tuple"
        },
        {
          "components": [
            {
              "internalType": "uint224",
              "name": "amount",
              "type": "uint224"
            },
            {
              "internalType": "uint32",
              "name": "timestamp",
              "type": "uint32"
            }
          ],
          "internalType": "struct ObservationLib.Observation",
          "name": "twab",
          "type": "tuple"
        },
        {
          "internalType": "bool",
          "name": "isNew",
          "type": "bool"
        }
      ],
      "stateMutability": "nonpayable",
      "type": "function"
    },
    {
      "inputs": [],
      "name": "newestTwab",
      "outputs": [
        {
          "internalType": "uint24",
          "name": "index",
          "type": "uint24"
        },
        {
          "components": [
            {
              "internalType": "uint224",
              "name": "amount",
              "type": "uint224"
            },
            {
              "internalType": "uint32",
              "name": "timestamp",
              "type": "uint32"
            }
          ],
          "internalType": "struct ObservationLib.Observation",
          "name": "twab",
          "type": "tuple"
        }
      ],
      "stateMutability": "view",
      "type": "function"
    },
    {
      "inputs": [],
      "name": "oldestTwab",
      "outputs": [
        {
          "internalType": "uint24",
          "name": "index",
          "type": "uint24"
        },
        {
          "components": [
            {
              "internalType": "uint224",
              "name": "amount",
              "type": "uint224"
            },
            {
              "internalType": "uint32",
              "name": "timestamp",
              "type": "uint32"
            }
          ],
          "internalType": "struct ObservationLib.Observation",
          "name": "twab",
          "type": "tuple"
        }
      ],
      "stateMutability": "view",
      "type": "function"
    },
    {
      "inputs": [
        {
          "components": [
            {
              "internalType": "uint208",
              "name": "balance",
              "type": "uint208"
            },
            {
              "internalType": "uint24",
              "name": "nextTwabIndex",
              "type": "uint24"
            },
            {
              "internalType": "uint24",
              "name": "cardinality",
              "type": "uint24"
            }
          ],
          "internalType": "struct TwabLib.AccountDetails",
          "name": "_accountDetails",
          "type": "tuple"
        }
      ],
      "name": "push",
      "outputs": [
        {
          "components": [
            {
              "internalType": "uint208",
              "name": "balance",
              "type": "uint208"
            },
            {
              "internalType": "uint24",
              "name": "nextTwabIndex",
              "type": "uint24"
            },
            {
              "internalType": "uint24",
              "name": "cardinality",
              "type": "uint24"
            }
          ],
          "internalType": "struct TwabLib.AccountDetails",
          "name": "",
          "type": "tuple"
        }
      ],
      "stateMutability": "pure",
      "type": "function"
    },
    {
      "inputs": [],
      "name": "twabs",
      "outputs": [
        {
          "components": [
            {
              "internalType": "uint224",
              "name": "amount",
              "type": "uint224"
            },
            {
              "internalType": "uint32",
              "name": "timestamp",
              "type": "uint32"
            }
          ],
          "internalType": "struct ObservationLib.Observation[]",
          "name": "",
          "type": "tuple[]"
        }
      ],
      "stateMutability": "view",
      "type": "function"
    }
  ],
  "bytecode": "0x608060405234801561001057600080fd5b50611903806100206000396000f3fe608060405234801561001057600080fd5b50600436106100be5760003560e01c80637c2014c6116100765780638ca0b7711161005b5780638ca0b771146101ca578063c3c191fd146101df578063ff429279146101f257600080fd5b80637c2014c61461018a5780638200d873146101ac57600080fd5b8063565974d3116100a7578063565974d3146101025780636126af6e1461016157806363ee94761461018257600080fd5b806339095bcb146100c35780633c4e9c1e146100ec575b600080fd5b6100d66100d136600461132e565b610205565b6040516100e391906115a2565b60405180910390f35b6100f4610231565b6040516100e392919061163d565b6100d6604080516060810182526000808252602082018190529181019190915250604080516060810182526000546001600160d01b038116825262ffffff600160d01b820481166020840152600160e81b909104169181019190915290565b61017461016f3660046114ad565b610297565b6040519081526020016100e3565b6100f46102ec565b61019d6101983660046113a8565b61034a565b6040516100e3939291906115d8565b6101b662ffffff81565b60405162ffffff90911681526020016100e3565b6101d2610456565b6040516100e391906114e7565b6101746101ed366004611483565b61054e565b61019d610200366004611457565b610598565b604080516060810182526000808252602082018190529181019190915261022b826106a1565b92915050565b6040805180820190915260008082526020820181905290604080516060810182526000546001600160d01b038116825262ffffff600160d01b820481166020840152600160e81b909104169181019190915261028f9060019061070a565b915091509091565b60408051606081018252600080546001600160d01b038116835262ffffff600160d01b820481166020850152600160e81b90910416928201929092526102e29060019086868661078a565b90505b9392505050565b6040805180820190915260008082526020820181905290604080516060810182526000546001600160d01b038116825262ffffff600160d01b820481166020840152600160e81b909104169181019190915261028f906001906107c2565b60408051606081018252600080825260208201819052918101919091526040805180820190915260008082526020820152600061038a600087878761083f565b82516000805460208601516040808801516001600160d01b039095167fffffff000000000000000000000000000000000000000000000000000000000090931692909217600160d01b62ffffff92831602177cffffffffffffffffffffffffffffffffffffffffffffffffffffffffff16600160e81b91909416029290921790555192955090935091507f883fc20cc248074e2c1dd4a19bf6d2004d023d0be047378761fd6925810f381a90610445908590859085906115d8565b60405180910390a193509350939050565b6000805460609190600160e81b900462ffffff1667ffffffffffffffff811115610482576104826118b7565b6040519080825280602002602001820160405280156104c757816020015b60408051808201909152600080825260208201528152602001906001900390816104a05790505b50905060005b81518110156105485760018162ffffff81106104eb576104eb6118a1565b604080518082019091529101546001600160e01b0381168252600160e01b900463ffffffff166020820152825183908390811061052a5761052a6118a1565b6020026020010181905250808061054090611828565b9150506104cd565b50919050565b60408051606081018252600080546001600160d01b038116835262ffffff600160d01b820481166020850152600160e81b90910416928201929092526102e5906001908585610935565b6040805160608101825260008082526020820181905291810191909152604080518082019091526000808252602082015260006105d76000868661096d565b82516000805460208601516040808801516001600160d01b039095167fffffff000000000000000000000000000000000000000000000000000000000090931692909217600160d01b62ffffff92831602177cffffffffffffffffffffffffffffffffffffffffffffffffffffffffff16600160e81b91909416029290921790555192955090935091507f883fc20cc248074e2c1dd4a19bf6d2004d023d0be047378761fd6925810f381a90610692908590859085906115d8565b60405180910390a19250925092565b604080516060810182526000808252602080830182905292820152908201516106d19062ffffff90811690610a16565b62ffffff9081166020840152604083015181161015610706576001826040018181516106fd91906116ed565b62ffffff169052505b5090565b6040805180820190915260008082526020820181905290610739836020015162ffffff1662ffffff8016610a2c565b9150838262ffffff1662ffffff8110610754576107546118a1565b604080518082019091529101546001600160e01b0381168252600160e01b900463ffffffff166020820152919491935090915050565b6000808263ffffffff168463ffffffff16116107a657836107a8565b825b90506107b78787878487610a54565b979650505050505050565b604080518082019091526000808252602082018190529082602001519150838262ffffff1662ffffff81106107f9576107f96118a1565b604080518082019091529101546001600160e01b0381168252600160e01b900463ffffffff166020820181905290915061083857600091508382610754565b9250929050565b604080516060810182526000808252602082018190529181019190915260408051808201909152600080825260208201526040805160608101825287546001600160d01b0380821680845262ffffff600160d01b840481166020860152600160e81b90930490921693830193909352600092879190891611156108f8576040517f08c379a00000000000000000000000000000000000000000000000000000000081526004016108ef919061154d565b60405180910390fd5b50610907886001018287610af0565b8351929650909450925061091c9088906117ac565b6001600160d01b03168452509196909550909350915050565b6000808263ffffffff168463ffffffff16116109515783610953565b825b905061096186868386610bd7565b9150505b949350505050565b604080516060810182526000808252602082018190529181019190915260408051808201909152600080825260208201526040805160608101825286546001600160d01b038116825262ffffff600160d01b820481166020840152600160e81b90910416918101919091526000906109e9600188018287610af0565b835192965090945092506109fe9087906116a0565b6001600160d01b031684525091959094509092509050565b60006102e5610a2684600161170b565b83610cf0565b600081610a3b5750600061022b565b6102e56001610a4a848661170b565b610a2691906117f4565b6000806000610a6388886107c2565b91509150600080610a748a8a61070a565b915091506000610a8a8b8b8487878a8f8e610cfc565b90506000610a9e8c8c8588888b8f8f610cfc565b9050610ab3816020015183602001518a610e46565b63ffffffff1682600001518260000151610acd91906117d4565b610ad79190611743565b6001600160e01b03169c9b505050505050505050505050565b60408051606081018252600080825260208201819052918101919091526040805180820190915260008082526020820152600080610b2e878761070a565b9150508463ffffffff16816020015163ffffffff161415610b5757859350915060009050610bce565b6000610b718288600001516001600160d01b031688610f1a565b90508088886020015162ffffff1662ffffff8110610b9157610b916118a1565b825160209093015163ffffffff16600160e01b026001600160e01b03909316929092179101556000610bc2886106a1565b95509093506001925050505b93509350939050565b604080518082019091526000808252602082018190529081906040805180820190915260008082526020820152610c0e888861070a565b60208101519194509150610c2f9063ffffffff9081169088908890610f9516565b15610c4a57505084516001600160d01b031691506109659050565b6000610c5689896107c2565b6020810151909350909150610c779063ffffffff808a169190899061106616565b15610c89576000945050505050610965565b610c9b8985838a8c604001518b611135565b8094508193505050610cb68360200151836020015188610e46565b63ffffffff1682600001518460000151610cd091906117d4565b610cda9190611743565b6001600160e01b03169998505050505050505050565b60006102e58284611861565b6040805180820190915260008082526020820152610d2f8383896020015163ffffffff166110669092919063ffffffff16565b15610d5357610d4c8789600001516001600160d01b031685610f1a565b9050610e3a565b8263ffffffff16876020015163ffffffff161415610d72575085610e3a565b8263ffffffff16866020015163ffffffff161415610d91575084610e3a565b610db08660200151838563ffffffff166110669092919063ffffffff16565b15610dd55750604080518082019091526000815263ffffffff83166020820152610e3a565b600080610dea8b8888888e6040015189611135565b915091506000610e038260200151846020015187610e46565b63ffffffff1683600001518360000151610e1d91906117d4565b610e279190611743565b9050610e34838288610f1a565b93505050505b98975050505050505050565b60008163ffffffff168463ffffffff1611158015610e7057508163ffffffff168363ffffffff1611155b15610e8657610e7f838561180b565b90506102e5565b60008263ffffffff168563ffffffff1611610eb557610eb063ffffffff8616640100000000611723565b610ebd565b8463ffffffff165b64ffffffffff16905060008363ffffffff168563ffffffff1611610ef557610ef063ffffffff8616640100000000611723565b610efd565b8463ffffffff165b64ffffffffff169050610f1081836117f4565b9695505050505050565b60408051808201909152600080825260208201526040518060400160405280610f588660200151858663ffffffff16610e469092919063ffffffff16565b610f689063ffffffff168661177d565b8651610f7491906116cb565b6001600160e01b031681526020018363ffffffff1681525090509392505050565b60008163ffffffff168463ffffffff1611158015610fbf57508163ffffffff168363ffffffff1611155b15610fdb578263ffffffff168463ffffffff16111590506102e5565b60008263ffffffff168563ffffffff161161100a5761100563ffffffff8616640100000000611723565b611012565b8463ffffffff165b64ffffffffff16905060008363ffffffff168563ffffffff161161104a5761104563ffffffff8616640100000000611723565b611052565b8463ffffffff165b64ffffffffff169091111595945050505050565b60008163ffffffff168463ffffffff161115801561109057508163ffffffff168363ffffffff1611155b156110ab578263ffffffff168463ffffffff161090506102e5565b60008263ffffffff168563ffffffff16116110da576110d563ffffffff8616640100000000611723565b6110e2565b8463ffffffff165b64ffffffffff16905060008363ffffffff168563ffffffff161161111a5761111563ffffffff8616640100000000611723565b611122565b8463ffffffff165b64ffffffffff1690911095945050505050565b6040805180820190915260008082526020820152604080518082019091526000808252602082015260008662ffffff1690506000818962ffffff1610611180578862ffffff1661119b565b600161119162ffffff88168461170b565b61119b91906117f4565b905060005b60026111ac838561170b565b6111b69190611769565b90508a6111c8828962ffffff16610cf0565b62ffffff1662ffffff81106111df576111df6118a1565b604080518082019091529101546001600160e01b0381168252600160e01b900463ffffffff1660208201819052909550806112275761121f82600161170b565b9350506111a0565b8b611237838a62ffffff16610a16565b62ffffff1662ffffff811061124e5761124e6118a1565b604080518082019091529101546001600160e01b038116825263ffffffff600160e01b9091048116602083015290955060009061129390838116908c908b90610f9516565b90508080156112bc57506112bc8660200151898c63ffffffff16610f959092919063ffffffff16565b156112c85750506112f4565b806112df576112d86001846117f4565b93506112ed565b6112ea83600161170b565b94505b50506111a0565b505050965096945050505050565b803562ffffff8116811461131557600080fd5b919050565b803563ffffffff8116811461131557600080fd5b60006060828403121561134057600080fd5b6040516060810181811067ffffffffffffffff82111715611363576113636118b7565b60405282356001600160d01b038116811461137d57600080fd5b815261138b60208401611302565b602082015261139c60408401611302565b60408201529392505050565b6000806000606084860312156113bd57600080fd5b8335925060208085013567ffffffffffffffff808211156113dd57600080fd5b818701915087601f8301126113f157600080fd5b813581811115611403576114036118b7565b61141584601f19601f8401160161166f565b9150808252888482850101111561142b57600080fd5b808484018584013760008482840101525080945050505061144e6040850161131a565b90509250925092565b6000806040838503121561146a57600080fd5b8235915061147a6020840161131a565b90509250929050565b6000806040838503121561149657600080fd5b61149f8361131a565b915061147a6020840161131a565b6000806000606084860312156114c257600080fd5b6114cb8461131a565b92506114d96020850161131a565b915061144e6040850161131a565b602080825282518282018190526000919060409081850190868401855b828110156115405761153084835180516001600160e01b0316825260209081015163ffffffff16910152565b9284019290850190600101611504565b5091979650505050505050565b600060208083528351808285015260005b8181101561157a5785810183015185820160400152820161155e565b8181111561158c576000604083870101525b50601f01601f1916929092016040019392505050565b6060810161022b828480516001600160d01b0316825260208082015162ffffff9081169184019190915260409182015116910152565b60c0810161160e828680516001600160d01b0316825260208082015162ffffff9081169184019190915260409182015116910152565b83516001600160e01b0316606083015260209093015163ffffffff16608082015290151560a090910152919050565b62ffffff83168152606081016102e5602083018480516001600160e01b0316825260209081015163ffffffff16910152565b604051601f8201601f1916810167ffffffffffffffff81118282101715611698576116986118b7565b604052919050565b60006001600160d01b038083168185168083038211156116c2576116c2611875565b01949350505050565b60006001600160e01b038083168185168083038211156116c2576116c2611875565b600062ffffff8083168185168083038211156116c2576116c2611875565b6000821982111561171e5761171e611875565b500190565b600064ffffffffff8083168185168083038211156116c2576116c2611875565b60006001600160e01b038084168061175d5761175d61188b565b92169190910492915050565b6000826117785761177861188b565b500490565b60006001600160e01b03808316818516818304811182151516156117a3576117a3611875565b02949350505050565b60006001600160d01b03838116908316818110156117cc576117cc611875565b039392505050565b60006001600160e01b03838116908316818110156117cc576117cc611875565b60008282101561180657611806611875565b500390565b600063ffffffff838116908316818110156117cc576117cc611875565b60007fffffffffffffffffffffffffffffffffffffffffffffffffffffffffffffffff82141561185a5761185a611875565b5060010190565b6000826118705761187061188b565b500690565b634e487b7160e01b600052601160045260246000fd5b634e487b7160e01b600052601260045260246000fd5b634e487b7160e01b600052603260045260246000fd5b634e487b7160e01b600052604160045260246000fdfea26469706673582212208ead4509d3eefabb6668e6e46d14b6b54ab38c329f57bb290e0dbd86cd6981c864736f6c63430008060033",
  "linkReferences": {},
  "deployedLinkReferences": {}
}