{
  "_format": "hh-sol-artifact-1",
  "contractName": "Payout",
  "sourceName": "contracts/facets/Payout.sol",
  "abi": [
    {
      "inputs": [],
      "name": "getGovPayout",
      "outputs": [
        {
          "internalType": "address",
          "name": "",
          "type": "address"
        }
      ],
      "stateMutability": "view",
      "type": "function"
    },
    {
      "inputs": [
        {
          "internalType": "address",
          "name": "_payout",
          "type": "address"
        },
        {
          "internalType": "contract IERC20[]",
          "name": "_tokens",
          "type": "address[]"
        },
        {
          "internalType": "uint256[]",
          "name": "_firstMoneyOut",
          "type": "uint256[]"
        },
        {
          "internalType": "uint256[]",
          "name": "_amounts",
          "type": "uint256[]"
        },
        {
          "internalType": "uint256[]",
          "name": "_unallocatedSherX",
          "type": "uint256[]"
        },
        {
          "internalType": "address",
          "name": "_exclude",
          "type": "address"
        }
      ],
      "name": "payout",
      "outputs": [],
      "stateMutability": "nonpayable",
      "type": "function"
    },
    {
      "inputs": [
        {
          "internalType": "address",
          "name": "_govPayout",
          "type": "address"
        }
      ],
      "name": "setInitialGovPayout",
      "outputs": [],
      "stateMutability": "nonpayable",
      "type": "function"
    },
    {
      "inputs": [
        {
          "internalType": "address",
          "name": "_govPayout",
          "type": "address"
        }
      ],
      "name": "transferGovPayout",
      "outputs": [],
      "stateMutability": "nonpayable",
      "type": "function"
    }
  ],
  "bytecode": "0x608060405234801561001057600080fd5b50611615806100206000396000f3fe608060405234801561001057600080fd5b506004361061004c5760003560e01c80630c1bf8ee146100515780631fa60ffe146100755780636b9dd12b1461009d57806397b7f793146100c3575b600080fd5b610059610305565b604080516001600160a01b039092168252519081900360200190f35b61009b6004803603602081101561008b57600080fd5b50356001600160a01b031661031e565b005b61009b600480360360208110156100b357600080fd5b50356001600160a01b0316610431565b61009b600480360360c08110156100d957600080fd5b6001600160a01b038235169190810190604081016020820135600160201b81111561010357600080fd5b82018360208201111561011557600080fd5b803590602001918460208302840111600160201b8311171561013657600080fd5b9190808060200260200160405190810160405280939291908181526020018383602002808284376000920191909152509295949360208101935035915050600160201b81111561018557600080fd5b82018360208201111561019757600080fd5b803590602001918460208302840111600160201b831117156101b857600080fd5b9190808060200260200160405190810160405280939291908181526020018383602002808284376000920191909152509295949360208101935035915050600160201b81111561020757600080fd5b82018360208201111561021957600080fd5b803590602001918460208302840111600160201b8311171561023a57600080fd5b9190808060200260200160405190810160405280939291908181526020018383602002808284376000920191909152509295949360208101935035915050600160201b81111561028957600080fd5b82018360208201111561029b57600080fd5b803590602001918460208302840111600160201b831117156102bc57600080fd5b919080806020026020016040519081016040528093929190818152602001838360200280828437600092019190915250929550505090356001600160a01b031691506105259050565b600061030f610a69565b546001600160a01b0316905090565b610326610a8d565b546001600160a01b03163314610372576040805162461bcd60e51b815260206004820152600c60248201526b2727aa2fa3a7ab2fa6a0a4a760a11b604482015290519081900360640190fd5b600061037c610a69565b90506001600160a01b0382166103c4576040805162461bcd60e51b81526020600482015260086024820152672d22a927afa3a7ab60c11b604482015290519081900360640190fd5b80546001600160a01b0383811691161415610411576040805162461bcd60e51b815260206004820152600860248201526729a0a6a2afa3a7ab60c11b604482015290519081900360640190fd5b80546001600160a01b0319166001600160a01b0392909216919091179055565b600061043b610a69565b9050610445610ab1565b6001600160a01b0316336001600160a01b031614610494576040805162461bcd60e51b81526020600482015260076024820152662727aa2fa222ab60c91b604482015290519081900360640190fd5b6001600160a01b0382166104da576040805162461bcd60e51b81526020600482015260086024820152672d22a927afa3a7ab60c11b604482015290519081900360640190fd5b80546001600160a01b031615610411576040805162461bcd60e51b815260206004820152600b60248201526a1053149150511657d4d15560aa1b604482015290519081900360640190fd5b61052d610a69565b546001600160a01b03163314610578576040805162461bcd60e51b815260206004820152600b60248201526a4e4f545f474f565f50415960a81b604482015290519081900360640190fd5b6001600160a01b0386166105be576040805162461bcd60e51b81526020600482015260086024820152675a45524f5f50415960c01b604482015290519081900360640190fd5b6001600160a01b038616301415610607576040805162461bcd60e51b8152602060048201526008602482015267544849535f50415960c01b604482015290519081900360640190fd5b8351855114610648576040805162461bcd60e51b81526020600482015260086024820152674c454e4754485f3160c01b604482015290519081900360640190fd5b8251855114610689576040805162461bcd60e51b81526020600482015260086024820152672622a723aa242f9960c11b604482015290519081900360640190fd5b81518551146106ca576040805162461bcd60e51b81526020600482015260086024820152674c454e4754485f3360c01b604482015290519081900360640190fd5b73__$c67bac06d8ae77ccee809d21b761428721$__631229187d6040518163ffffffff1660e01b815260040160006040518083038186803b15801561070e57600080fd5b505af4158015610722573d6000803e3d6000fd5b5050505060008060005b875181101561090157600088828151811061074357fe5b60200260200101519050600088838151811061075b57fe5b60200260200101519050600088848151811061077357fe5b60200260200101519050600088858151811061078b57fe5b6020026020010151905060006107a085610acd565b80549091506001600160a01b03166107e8576040805162461bcd60e51b815260206004808301919091526024820152631253925560e21b604482015290519081900360640190fd5b8181600501541015610833576040805162461bcd60e51b815260206004820152600f60248201526e4552525f554e414c4c4f435f46454560881b604482015290519081900360640190fd5b811561086e5760088101546108489083610ba0565b6008820155600581015461085c9083610ba0565b600582015561086b8883610c02565b97505b600061087a8585610c02565b90508061088c575050505050506108f9565b84156108a75760048201546108a19086610ba0565b60048301555b60028201546108b69082610ba0565b60028301556001600160a01b0386163014156108d4578097506108f2565b6108f28f82886001600160a01b0316610c639092919063ffffffff16565b5050505050505b60010161072c565b508115610915576109128183610c02565b90505b80610921575050610a61565b600073__$c67bac06d8ae77ccee809d21b761428721$__633a31a7406040518163ffffffff1660e01b815260040160206040518083038186803b15801561096757600080fd5b505af415801561097b573d6000803e3d6000fd5b505050506040513d602081101561099157600080fd5b5051905060006109a38a868486610cba565b905060006109d9670de0b6b3a76400006109d36109cc6109c16110ce565b6002015487906110f2565b85906110f2565b906110f2565b905060006109e78583610ba0565b90506109f33082611159565b73__$c67bac06d8ae77ccee809d21b761428721$__63f42c743d826040518263ffffffff1660e01b81526004018082815260200191505060006040518083038186803b158015610a4257600080fd5b505af4158015610a56573d6000803e3d6000fd5b505050505050505050505b505050505050565b7ffd8096303ecca88e32d2b9f88ef2e87f7a406cb481d498f3b1aa757c293b119190565b7f190488561d88e36f1e28cbe7392dc28aedf700281c58bde4049b57fb87e2944c90565b6000610abb611200565b600401546001600160a01b0316919050565b600080604051806040016040528060168152602001753234b0b6b7b7321739b432b93637b1b5973837b7b61760511b815250836040516020018080602001836001600160a01b03168152602001828103825284818151815260200191508051906020019080838360005b83811015610b4f578181015183820152602001610b37565b50505050905090810190601f168015610b7c5780820380516001836020036101000a031916815260200191505b5060408051601f198184030181529190528051602090910120979650505050505050565b600082821115610bf7576040805162461bcd60e51b815260206004820152601e60248201527f536166654d6174683a207375627472616374696f6e206f766572666c6f770000604482015290519081900360640190fd5b508082035b92915050565b600082820183811015610c5c576040805162461bcd60e51b815260206004820152601b60248201527f536166654d6174683a206164646974696f6e206f766572666c6f770000000000604482015290519081900360640190fd5b9392505050565b604080516001600160a01b038416602482015260448082018490528251808303909101815260649091019091526020810180516001600160e01b031663a9059cbb60e01b179052610cb5908490611224565b505050565b600080610cc56112d5565b905060008073__$c67bac06d8ae77ccee809d21b761428721$__63738bebc6866040518263ffffffff1660e01b81526004018082815260200191505060006040518083038186803b158015610d1957600080fd5b505af4158015610d2d573d6000803e3d6000fd5b505050506040513d6000823e601f3d908101601f191682016040908152811015610d5657600080fd5b8101908080516040519392919084600160201b821115610d7557600080fd5b908301906020820185811115610d8a57600080fd5b82518660208202830111600160201b82111715610da657600080fd5b82525081516020918201928201910280838360005b83811015610dd3578181015183820152602001610dbb565b5050505090500160405260200180516040519392919084600160201b821115610dfb57600080fd5b908301906020820185811115610e1057600080fd5b82518660208202830111600160201b82111715610e2c57600080fd5b82525081516020918201928201910280838360005b83811015610e59578181015183820152602001610e41565b50505050905001604052505050915091506000805b83518110156110af576000610e95858381518110610e8857fe5b6020026020010151610acd565b905080600e0154848381518110610ea857fe5b60200260200101511115610f3a5773__$f06c55dfbaf779ce4e61bb81add28e8f1b$__6305a4cea2868481518110610edc57fe5b60200260200101516040518263ffffffff1660e01b815260040180826001600160a01b0316815260200191505060006040518083038186803b158015610f2157600080fd5b505af4158015610f35573d6000803e3d6000fd5b505050505b896001600160a01b0316858381518110610f5057fe5b60200260200101516001600160a01b03161415610fce57610fc7866000016000878581518110610f7c57fe5b60200260200101516001600160a01b03166001600160a01b0316815260200190815260200160002054858481518110610fb157fe5b60200260200101516112f990919063ffffffff16565b96506110a6565b610ff8848381518110610fdd57fe5b602002602001015182600e0154610ba090919063ffffffff16565b81600e0181905550611060611059670de0b6b3a76400006109d38960000160008a888151811061102457fe5b60200260200101516001600160a01b03166001600160a01b0316815260200190815260200160002054888781518110610fb157fe5b8490610c02565b92506110a68b85848151811061107257fe5b602002602001015187858151811061108657fe5b60200260200101516001600160a01b0316610c639092919063ffffffff16565b50600101610e6e565b506110ba8782610ba0565b846002018190555050505050949350505050565b7fc0ca2b8775046ee5e33165d3145277182912c7895a3747ac51a97d562a7ce5d090565b6000808211611148576040805162461bcd60e51b815260206004820152601a60248201527f536166654d6174683a206469766973696f6e206279207a65726f000000000000604482015290519081900360640190fd5b81838161115157fe5b049392505050565b60006111636110ce565b6001600160a01b038416600090815260038201602052604090205490915061118b9083610ba0565b6001600160a01b038416600090815260038301602052604090205560028101546111b59083610ba0565b60028201556040805183815290516000916001600160a01b038616917fddf252ad1be2c89b69c2b068fc378daa952ba7f163c4a11628f55a4df523b3ef9181900360200190a3505050565b7fc8fcad8db84d3cc18b4c41d551ea0ee66dd599cde068d998e57d5e09332c131c90565b6000611279826040518060400160405280602081526020017f5361666545524332303a206c6f772d6c6576656c2063616c6c206661696c6564815250856001600160a01b03166113529092919063ffffffff16565b805190915015610cb55780806020019051602081101561129857600080fd5b5051610cb55760405162461bcd60e51b815260040180806020018281038252602a8152602001806115b6602a913960400191505060405180910390fd5b7fcdaab98845a65ea47b0852a56cf7039170a5285c240d3bfde826581682c8fcd590565b60008261130857506000610bfc565b8282028284828161131557fe5b0414610c5c5760405162461bcd60e51b81526004018080602001828103825260218152602001806115956021913960400191505060405180910390fd5b60606113618484600085611369565b949350505050565b6060824710156113aa5760405162461bcd60e51b815260040180806020018281038252602681526020018061156f6026913960400191505060405180910390fd5b6113b3856114c4565b611404576040805162461bcd60e51b815260206004820152601d60248201527f416464726573733a2063616c6c20746f206e6f6e2d636f6e7472616374000000604482015290519081900360640190fd5b600080866001600160a01b031685876040518082805190602001908083835b602083106114425780518252601f199092019160209182019101611423565b6001836020036101000a03801982511681845116808217855250505050505090500191505060006040518083038185875af1925050503d80600081146114a4576040519150601f19603f3d011682016040523d82523d6000602084013e6114a9565b606091505b50915091506114b98282866114ca565b979650505050505050565b3b151590565b606083156114d9575081610c5c565b8251156114e95782518084602001fd5b8160405162461bcd60e51b81526004018080602001828103825283818151815260200191508051906020019080838360005b8381101561153357818101518382015260200161151b565b50505050905090810190601f1680156115605780820380516001836020036101000a031916815260200191505b509250505060405180910390fdfe416464726573733a20696e73756666696369656e742062616c616e636520666f722063616c6c536166654d6174683a206d756c7469706c69636174696f6e206f766572666c6f775361666545524332303a204552433230206f7065726174696f6e20646964206e6f742073756363656564a2646970667358221220e7db99f79d9c7c5d49dff16a0af8b47643072dc1915737ef127cfa09b7f566fb64736f6c63430007060033",
  "linkReferences": {
    "contracts/libraries/LibPool.sol": {
      "LibPool": [
        {
          "length": 20,
          "start": 3800
        }
      ]
    },
    "contracts/libraries/LibSherX.sol": {
      "LibSherX": [
        {
          "length": 20,
          "start": 1772
        },
        {
          "length": 20,
          "start": 2373
        },
        {
          "length": 20,
          "start": 2581
        },
        {
          "length": 20,
          "start": 3308
        }
      ]
    }
  },
  "deployedLinkReferences": {
    "contracts/libraries/LibPool.sol": {
      "LibPool": [
        {
          "length": 20,
          "start": 3768
        }
      ]
    },
    "contracts/libraries/LibSherX.sol": {
      "LibSherX": [
        {
          "length": 20,
          "start": 1740
        },
        {
          "length": 20,
          "start": 2341
        },
        {
          "length": 20,
          "start": 2549
        },
        {
          "length": 20,
          "start": 3276
        }
      ]
    }
  }
}