{
  "_format": "hh-sol-artifact-1",
  "contractName": "VestedEscrow",
  "sourceName": "contracts/tokenomics/VestedEscrow.sol",
  "abi": [
    {
      "inputs": [
        {
          "internalType": "address",
          "name": "rewardToken_",
          "type": "address"
        },
        {
          "internalType": "uint256",
          "name": "starttime_",
          "type": "uint256"
        },
        {
          "internalType": "uint256",
          "name": "endtime_",
          "type": "uint256"
        },
        {
          "internalType": "address",
          "name": "fundAdmin_",
          "type": "address"
        }
      ],
      "stateMutability": "nonpayable",
      "type": "constructor"
    },
    {
      "anonymous": false,
      "inputs": [
        {
          "indexed": true,
          "internalType": "address",
          "name": "user",
          "type": "address"
        },
        {
          "indexed": false,
          "internalType": "uint256",
          "name": "amount",
          "type": "uint256"
        }
      ],
      "name": "Claim",
      "type": "event"
    },
    {
      "anonymous": false,
      "inputs": [
        {
          "indexed": true,
          "internalType": "address",
          "name": "recipient",
          "type": "address"
        },
        {
          "indexed": false,
          "internalType": "uint256",
          "name": "reward",
          "type": "uint256"
        }
      ],
      "name": "Fund",
      "type": "event"
    },
    {
      "inputs": [],
      "name": "admin",
      "outputs": [
        {
          "internalType": "address",
          "name": "",
          "type": "address"
        }
      ],
      "stateMutability": "view",
      "type": "function"
    },
    {
      "inputs": [
        {
          "internalType": "address",
          "name": "_recipient",
          "type": "address"
        }
      ],
      "name": "balanceOf",
      "outputs": [
        {
          "internalType": "uint256",
          "name": "",
          "type": "uint256"
        }
      ],
      "stateMutability": "view",
      "type": "function"
    },
    {
      "inputs": [
        {
          "internalType": "address",
          "name": "_recipient",
          "type": "address"
        }
      ],
      "name": "claim",
      "outputs": [],
      "stateMutability": "nonpayable",
      "type": "function"
    },
    {
      "inputs": [],
      "name": "claim",
      "outputs": [],
      "stateMutability": "nonpayable",
      "type": "function"
    },
    {
      "inputs": [],
      "name": "endTime",
      "outputs": [
        {
          "internalType": "uint256",
          "name": "",
          "type": "uint256"
        }
      ],
      "stateMutability": "view",
      "type": "function"
    },
    {
      "inputs": [
        {
          "components": [
            {
              "internalType": "address",
              "name": "recipient",
              "type": "address"
            },
            {
              "internalType": "uint256",
              "name": "amount",
              "type": "uint256"
            }
          ],
          "internalType": "struct VestedEscrow.FundingAmount[]",
          "name": "amounts",
          "type": "tuple[]"
        }
      ],
      "name": "fund",
      "outputs": [
        {
          "internalType": "bool",
          "name": "",
          "type": "bool"
        }
      ],
      "stateMutability": "nonpayable",
      "type": "function"
    },
    {
      "inputs": [],
      "name": "fundAdmin",
      "outputs": [
        {
          "internalType": "address",
          "name": "",
          "type": "address"
        }
      ],
      "stateMutability": "view",
      "type": "function"
    },
    {
      "inputs": [
        {
          "internalType": "address",
          "name": "",
          "type": "address"
        }
      ],
      "name": "holdingContract",
      "outputs": [
        {
          "internalType": "address",
          "name": "",
          "type": "address"
        }
      ],
      "stateMutability": "view",
      "type": "function"
    },
    {
      "inputs": [
        {
          "internalType": "address",
          "name": "",
          "type": "address"
        }
      ],
      "name": "initialLocked",
      "outputs": [
        {
          "internalType": "uint256",
          "name": "",
          "type": "uint256"
        }
      ],
      "stateMutability": "view",
      "type": "function"
    },
    {
      "inputs": [],
      "name": "initialLockedSupply",
      "outputs": [
        {
          "internalType": "uint256",
          "name": "",
          "type": "uint256"
        }
      ],
      "stateMutability": "view",
      "type": "function"
    },
    {
      "inputs": [],
      "name": "initializeUnallocatedSupply",
      "outputs": [
        {
          "internalType": "bool",
          "name": "",
          "type": "bool"
        }
      ],
      "stateMutability": "nonpayable",
      "type": "function"
    },
    {
      "inputs": [],
      "name": "initializedSupply",
      "outputs": [
        {
          "internalType": "bool",
          "name": "",
          "type": "bool"
        }
      ],
      "stateMutability": "view",
      "type": "function"
    },
    {
      "inputs": [
        {
          "internalType": "address",
          "name": "_recipient",
          "type": "address"
        }
      ],
      "name": "lockedOf",
      "outputs": [
        {
          "internalType": "uint256",
          "name": "",
          "type": "uint256"
        }
      ],
      "stateMutability": "view",
      "type": "function"
    },
    {
      "inputs": [],
      "name": "lockedSupply",
      "outputs": [
        {
          "internalType": "uint256",
          "name": "",
          "type": "uint256"
        }
      ],
      "stateMutability": "view",
      "type": "function"
    },
    {
      "inputs": [],
      "name": "rewardToken",
      "outputs": [
        {
          "internalType": "contract IERC20",
          "name": "",
          "type": "address"
        }
      ],
      "stateMutability": "view",
      "type": "function"
    },
    {
      "inputs": [
        {
          "internalType": "address",
          "name": "_admin",
          "type": "address"
        }
      ],
      "name": "setAdmin",
      "outputs": [],
      "stateMutability": "nonpayable",
      "type": "function"
    },
    {
      "inputs": [
        {
          "internalType": "address",
          "name": "_fundadmin",
          "type": "address"
        }
      ],
      "name": "setFundAdmin",
      "outputs": [],
      "stateMutability": "nonpayable",
      "type": "function"
    },
    {
      "inputs": [],
      "name": "startTime",
      "outputs": [
        {
          "internalType": "uint256",
          "name": "",
          "type": "uint256"
        }
      ],
      "stateMutability": "view",
      "type": "function"
    },
    {
      "inputs": [
        {
          "internalType": "address",
          "name": "",
          "type": "address"
        }
      ],
      "name": "totalClaimed",
      "outputs": [
        {
          "internalType": "uint256",
          "name": "",
          "type": "uint256"
        }
      ],
      "stateMutability": "view",
      "type": "function"
    },
    {
      "inputs": [],
      "name": "totalTime",
      "outputs": [
        {
          "internalType": "uint256",
          "name": "",
          "type": "uint256"
        }
      ],
      "stateMutability": "view",
      "type": "function"
    },
    {
      "inputs": [],
      "name": "unallocatedSupply",
      "outputs": [
        {
          "internalType": "uint256",
          "name": "",
          "type": "uint256"
        }
      ],
      "stateMutability": "view",
      "type": "function"
    },
    {
      "inputs": [
        {
          "internalType": "address",
          "name": "_recipient",
          "type": "address"
        }
      ],
      "name": "vestedOf",
      "outputs": [
        {
          "internalType": "uint256",
          "name": "",
          "type": "uint256"
        }
      ],
      "stateMutability": "view",
      "type": "function"
    },
    {
      "inputs": [],
      "name": "vestedSupply",
      "outputs": [
        {
          "internalType": "uint256",
          "name": "",
          "type": "uint256"
        }
      ],
      "stateMutability": "view",
      "type": "function"
    }
  ],
  "bytecode": "0x60e06040523480156200001157600080fd5b50604051620015f4380380620015f483398101604081905262000034916200015b565b6001600055428310156200008f5760405162461bcd60e51b815260206004820152601460248201527f7374617274206d7573742062652066757475726500000000000000000000000060448201526064015b60405180910390fd5b828211620000e05760405162461bcd60e51b815260206004820152601360248201527f656e64206d757374206265206772656174657200000000000000000000000000604482015260640162000086565b6001600160a01b03841660805260a083905260c0829052620001038383620001a6565b60035560018054336001600160a01b031991821617909155600280549091166001600160a01b039290921691909117905550620001cc915050565b80516001600160a01b03811681146200015657600080fd5b919050565b600080600080608085870312156200017257600080fd5b6200017d856200013e565b935060208501519250604085015191506200019b606086016200013e565b905092959194509250565b600082821015620001c757634e487b7160e01b600052601160045260246000fd5b500390565b60805160a05160c0516113ce6200022660003960006101c301526000818161022d01528181610d700152610da801526000818161037e0152818161067e0152818161074d01528181610a8d0152610be901526113ce6000f3fe60806040523480156200001157600080fd5b5060043610620001695760003560e01c80639447710411620000d3578063ca5c7b911162000086578063ca5c7b911462000337578063d8df70df1462000341578063d9844dc0146200034b578063ef5d9ae81462000355578063f7c618c11462000378578063f851a44014620003a057600080fd5b80639447710414620002bd578063955fbc6014620002d45780639c45658314620002eb578063a5f1e28214620002ff578063a96d1edc1462000316578063aa04ae78146200032d57600080fd5b8063704b6c02116200012c578063704b6c0214620001f957806370a08231146200021057806378e9792514620002275780637d086b29146200024f57806392590cdf14620002595780639266f8df146200027857600080fd5b8063099d695f146200016e5780631e83409a14620001a45780633197cbb614620001bd5780634e71d92d14620001e557806358533e0a14620001ef575b600080fd5b620001916200017f36600462001019565b60076020526000908152604090205481565b6040519081526020015b60405180910390f35b620001bb620001b536600462001019565b620003b4565b005b620001917f000000000000000000000000000000000000000000000000000000000000000081565b620001bb62000426565b6200019160035481565b620001bb6200020a36600462001019565b62000434565b620001916200022136600462001019565b620004b0565b620001917f000000000000000000000000000000000000000000000000000000000000000081565b6200019160045481565b600654620002679060ff1681565b60405190151581526020016200019b565b620002a46200028936600462001019565b6009602052600090815260409020546001600160a01b031681565b6040516001600160a01b0390911681526020016200019b565b62000191620002ce36600462001019565b620004c4565b62000267620002e536600462001044565b620004d2565b600254620002a4906001600160a01b031681565b620001916200031036600462001019565b620008ec565b620001bb6200032736600462001019565b6200092b565b6200019160055481565b62000191620009a7565b62000267620009c7565b6200019162000b7a565b620001916200036636600462001019565b60086020526000908152604090205481565b620002a47f000000000000000000000000000000000000000000000000000000000000000081565b600154620002a4906001600160a01b031681565b600260005414156200040d5760405162461bcd60e51b815260206004820152601f60248201527f5265656e7472616e637947756172643a207265656e7472616e742063616c6c0060448201526064015b60405180910390fd5b60026000556200041e814262000b86565b506001600055565b62000432334262000b86565b565b600154604080518082019091526013815272756e617574686f72697a65642061636365737360681b6020820152906001600160a01b031633146200048d5760405162461bcd60e51b8152600401620004049190620010ed565b50600180546001600160a01b0319166001600160a01b0392909216919091179055565b6000620004be824262000c4e565b92915050565b6000620004be824262000c8d565b600060026000541415620005295760405162461bcd60e51b815260206004820152601f60248201527f5265656e7472616e637947756172643a207265656e7472616e742063616c6c00604482015260640162000404565b60026000819055546001600160a01b03163314806200055257506001546001600160a01b031633145b60405180604001604052806013815260200172756e617574686f72697a65642061636365737360681b815250906200059f5760405162461bcd60e51b8152600401620004049190620010ed565b5060065460ff16620005f45760405162461bcd60e51b815260206004820152601a60248201527f537570706c79206d75737420626520696e697469616c697a6564000000000000604482015260640162000404565b6000805b83811015620008b557600085858381811062000618576200061862001122565b9050604002016020013590506000600960008888868181106200063f576200063f62001122565b62000657926020604090920201908101915062001019565b6001600160a01b039081168252602082019290925260400160002054169050806200073f577f0000000000000000000000000000000000000000000000000000000000000000604051620006ab906200100b565b6001600160a01b039091168152602001604051809103906000f080158015620006d8573d6000803e3d6000fd5b5090508060096000898987818110620006f557620006f562001122565b6200070d926020604090920201908101915062001019565b6001600160a01b039081168252602082019290925260400160002080546001600160a01b031916929091169190911790555b620007756001600160a01b037f000000000000000000000000000000000000000000000000000000000000000016828462000cb2565b81600760008989878181106200078f576200078f62001122565b620007a7926020604090920201908101915062001019565b6001600160a01b03166001600160a01b0316815260200190815260200160002054620007d491906200114e565b60076000898987818110620007ed57620007ed62001122565b62000805926020604090920201908101915062001019565b6001600160a01b031681526020810191909152604001600020556200082b82856200114e565b935086868481811062000842576200084262001122565b6200085a926020604090920201908101915062001019565b6001600160a01b03167fda8220a878ff7a89474ccffdaa31ea1ed1ffbb0207d5051afccc4fbaf81f9bcd836040516200089591815260200190565b60405180910390a250508080620008ac9062001169565b915050620005f8565b5080600454620008c691906200114e565b600455600554620008d990829062001187565b6005555060019050600160005592915050565b600080620008fb834262000c8d565b6001600160a01b0384166000908152600760205260409020549091506200092490829062001187565b9392505050565b600154604080518082019091526013815272756e617574686f72697a65642061636365737360681b6020820152906001600160a01b03163314620009845760405162461bcd60e51b8152600401620004049190620010ed565b50600280546001600160a01b0319166001600160a01b0392909216919091179055565b6000620009b362000d1c565b600454620009c2919062001187565b905090565b600154604080518082019091526013815272756e617574686f72697a65642061636365737360681b60208201526000916001600160a01b0316331462000a225760405162461bcd60e51b8152600401620004049190620010ed565b5060065460ff161562000a785760405162461bcd60e51b815260206004820152601f60248201527f537570706c7920616c726561647920696e697469616c697a6564206f6e636500604482015260640162000404565b6040516370a0823160e01b81523060048201527f00000000000000000000000000000000000000000000000000000000000000006001600160a01b0316906370a082319060240160206040518083038186803b15801562000ad857600080fd5b505afa15801562000aed573d6000803e3d6000fd5b505050506040513d601f19601f8201168201806040525081019062000b139190620011a1565b600581905562000b665760405162461bcd60e51b815260206004820152601c60248201527f4e6f2072657761726420746f6b656e7320696e20636f6e747261637400000000604482015260640162000404565b506006805460ff1916600190811790915590565b6000620009c262000d1c565b600062000b94338362000c4e565b90508062000ba157505050565b3360009081526008602052604090205462000bbe9082906200114e565b3360009081526008602090815260408083209390935560099052205462000c14906001600160a01b037f000000000000000000000000000000000000000000000000000000000000000081169116858462000d2c565b60405181815233907f47cee97cb7acd717b3c0aa1435d004cd5b3c8c57d70dbceb4e4458bbd60e39d49060200160405180910390a2505050565b60008062000c5d848462000c8d565b6001600160a01b03851660009081526008602052604090205490915062000c85908262001187565b949350505050565b6001600160a01b03821660009081526007602052604081205462000924908362000d6c565b6040516001600160a01b03831660248201526044810182905262000d1790849063a9059cbb60e01b906064015b60408051601f198184030181529190526020810180516001600160e01b03166001600160e01b03199093169290921790915262000df8565b505050565b6000620009c26004544262000d6c565b6040516001600160a01b038085166024830152831660448201526064810182905262000d669085906323b872dd60e01b9060840162000cdf565b50505050565b60007f000000000000000000000000000000000000000000000000000000000000000082101562000da057506000620004be565b600062000dce7f00000000000000000000000000000000000000000000000000000000000000008462001187565b905062000c85600354828662000de59190620011bb565b62000df19190620011dd565b8562000ed1565b600062000e4f826040518060400160405280602081526020017f5361666545524332303a206c6f772d6c6576656c2063616c6c206661696c6564815250856001600160a01b031662000ee99092919063ffffffff16565b80519091501562000d17578080602001905181019062000e70919062001200565b62000d175760405162461bcd60e51b815260206004820152602a60248201527f5361666545524332303a204552433230206f7065726174696f6e20646964206e6044820152691bdd081cdd58d8d9595960b21b606482015260840162000404565b600081831062000ee2578162000924565b5090919050565b606062000c858484600085856001600160a01b0385163b62000f4e5760405162461bcd60e51b815260206004820152601d60248201527f416464726573733a2063616c6c20746f206e6f6e2d636f6e7472616374000000604482015260640162000404565b600080866001600160a01b0316858760405162000f6c919062001224565b60006040518083038185875af1925050503d806000811462000fab576040519150601f19603f3d011682016040523d82523d6000602084013e62000fb0565b606091505b509150915062000fc282828662000fcd565b979650505050505050565b6060831562000fde57508162000924565b82511562000fef5782518084602001fd5b8160405162461bcd60e51b8152600401620004049190620010ed565b610156806200124383390190565b6000602082840312156200102c57600080fd5b81356001600160a01b03811681146200092457600080fd5b600080602083850312156200105857600080fd5b823567ffffffffffffffff808211156200107157600080fd5b818501915085601f8301126200108657600080fd5b8135818111156200109657600080fd5b8660208260061b8501011115620010ac57600080fd5b60209290920196919550909350505050565b60005b83811015620010db578181015183820152602001620010c1565b8381111562000d665750506000910152565b60208152600082518060208401526200110e816040850160208701620010be565b601f01601f19169190910160400192915050565b634e487b7160e01b600052603260045260246000fd5b634e487b7160e01b600052601160045260246000fd5b6000821982111562001164576200116462001138565b500190565b600060001982141562001180576200118062001138565b5060010190565b6000828210156200119c576200119c62001138565b500390565b600060208284031215620011b457600080fd5b5051919050565b6000816000190483118215151615620011d857620011d862001138565b500290565b600082620011fb57634e487b7160e01b600052601260045260246000fd5b500490565b6000602082840312156200121357600080fd5b815180151581146200092457600080fd5b6000825162001238818460208701620010be565b919091019291505056fe608060405234801561001057600080fd5b5060405161015638038061015683398101604081905261002f916100b7565b60405163095ea7b360e01b815233600482015260001960248201526001600160a01b0382169063095ea7b390604401602060405180830381600087803b15801561007857600080fd5b505af115801561008c573d6000803e3d6000fd5b505050506040513d601f19601f820116820180604052508101906100b091906100e7565b5050610109565b6000602082840312156100c957600080fd5b81516001600160a01b03811681146100e057600080fd5b9392505050565b6000602082840312156100f957600080fd5b815180151581146100e057600080fd5b603f806101176000396000f3fe6080604052600080fdfea26469706673582212206fb0273403a1ccbf2d5cf5478d7921e1d3204fd705b9be3d62fe0cf149a2961164736f6c63430008090033a2646970667358221220f75011143d2bc30e32edffd8041f0fcc301623fb98e490bef7d73397306bc1d964736f6c63430008090033",
  "linkReferences": {},
  "deployedLinkReferences": {}
}