{
  "_format": "hh-sol-artifact-1",
  "contractName": "AaveV3YieldSource",
  "sourceName": "contracts/AaveV3YieldSource.sol",
  "abi": [
    {
      "inputs": [
        {
          "internalType": "contract IAToken",
          "name": "_aToken",
          "type": "address"
        },
        {
          "internalType": "contract IRewardsController",
          "name": "_rewardsController",
          "type": "address"
        },
        {
          "internalType": "contract IPoolAddressesProviderRegistry",
          "name": "_poolAddressesProviderRegistry",
          "type": "address"
        },
        {
          "internalType": "string",
          "name": "_name",
          "type": "string"
        },
        {
          "internalType": "string",
          "name": "_symbol",
          "type": "string"
        },
        {
          "internalType": "uint8",
          "name": "decimals_",
          "type": "uint8"
        },
        {
          "internalType": "address",
          "name": "_owner",
          "type": "address"
        }
      ],
      "stateMutability": "nonpayable",
      "type": "constructor"
    },
    {
      "anonymous": false,
      "inputs": [
        {
          "indexed": true,
          "internalType": "contract IAToken",
          "name": "aToken",
          "type": "address"
        },
        {
          "indexed": false,
          "internalType": "contract IRewardsController",
          "name": "rewardsController",
          "type": "address"
        },
        {
          "indexed": false,
          "internalType": "contract IPoolAddressesProviderRegistry",
          "name": "poolAddressesProviderRegistry",
          "type": "address"
        },
        {
          "indexed": false,
          "internalType": "string",
          "name": "name",
          "type": "string"
        },
        {
          "indexed": false,
          "internalType": "string",
          "name": "symbol",
          "type": "string"
        },
        {
          "indexed": false,
          "internalType": "uint8",
          "name": "decimals",
          "type": "uint8"
        },
        {
          "indexed": false,
          "internalType": "address",
          "name": "owner",
          "type": "address"
        }
      ],
      "name": "AaveV3YieldSourceInitialized",
      "type": "event"
    },
    {
      "anonymous": false,
      "inputs": [
        {
          "indexed": true,
          "internalType": "address",
          "name": "owner",
          "type": "address"
        },
        {
          "indexed": true,
          "internalType": "address",
          "name": "spender",
          "type": "address"
        },
        {
          "indexed": false,
          "internalType": "uint256",
          "name": "value",
          "type": "uint256"
        }
      ],
      "name": "Approval",
      "type": "event"
    },
    {
      "anonymous": false,
      "inputs": [
        {
          "indexed": true,
          "internalType": "address",
          "name": "from",
          "type": "address"
        },
        {
          "indexed": true,
          "internalType": "address",
          "name": "to",
          "type": "address"
        },
        {
          "indexed": false,
          "internalType": "address[]",
          "name": "rewardsList",
          "type": "address[]"
        },
        {
          "indexed": false,
          "internalType": "uint256[]",
          "name": "claimedAmounts",
          "type": "uint256[]"
        }
      ],
      "name": "Claimed",
      "type": "event"
    },
    {
      "anonymous": false,
      "inputs": [
        {
          "indexed": true,
          "internalType": "address",
          "name": "from",
          "type": "address"
        },
        {
          "indexed": true,
          "internalType": "address",
          "name": "spender",
          "type": "address"
        },
        {
          "indexed": false,
          "internalType": "uint256",
          "name": "amount",
          "type": "uint256"
        },
        {
          "indexed": true,
          "internalType": "contract IERC20",
          "name": "token",
          "type": "address"
        }
      ],
      "name": "DecreasedERC20Allowance",
      "type": "event"
    },
    {
      "anonymous": false,
      "inputs": [
        {
          "indexed": true,
          "internalType": "address",
          "name": "from",
          "type": "address"
        },
        {
          "indexed": true,
          "internalType": "address",
          "name": "spender",
          "type": "address"
        },
        {
          "indexed": false,
          "internalType": "uint256",
          "name": "amount",
          "type": "uint256"
        },
        {
          "indexed": true,
          "internalType": "contract IERC20",
          "name": "token",
          "type": "address"
        }
      ],
      "name": "IncreasedERC20Allowance",
      "type": "event"
    },
    {
      "anonymous": false,
      "inputs": [
        {
          "indexed": true,
          "internalType": "address",
          "name": "previousManager",
          "type": "address"
        },
        {
          "indexed": true,
          "internalType": "address",
          "name": "newManager",
          "type": "address"
        }
      ],
      "name": "ManagerTransferred",
      "type": "event"
    },
    {
      "anonymous": false,
      "inputs": [
        {
          "indexed": true,
          "internalType": "address",
          "name": "pendingOwner",
          "type": "address"
        }
      ],
      "name": "OwnershipOffered",
      "type": "event"
    },
    {
      "anonymous": false,
      "inputs": [
        {
          "indexed": true,
          "internalType": "address",
          "name": "previousOwner",
          "type": "address"
        },
        {
          "indexed": true,
          "internalType": "address",
          "name": "newOwner",
          "type": "address"
        }
      ],
      "name": "OwnershipTransferred",
      "type": "event"
    },
    {
      "anonymous": false,
      "inputs": [
        {
          "indexed": true,
          "internalType": "address",
          "name": "from",
          "type": "address"
        },
        {
          "indexed": false,
          "internalType": "uint256",
          "name": "shares",
          "type": "uint256"
        },
        {
          "indexed": false,
          "internalType": "uint256",
          "name": "amount",
          "type": "uint256"
        }
      ],
      "name": "RedeemedToken",
      "type": "event"
    },
    {
      "anonymous": false,
      "inputs": [
        {
          "indexed": true,
          "internalType": "address",
          "name": "from",
          "type": "address"
        },
        {
          "indexed": false,
          "internalType": "uint256",
          "name": "shares",
          "type": "uint256"
        },
        {
          "indexed": false,
          "internalType": "uint256",
          "name": "amount",
          "type": "uint256"
        },
        {
          "indexed": true,
          "internalType": "address",
          "name": "to",
          "type": "address"
        }
      ],
      "name": "SuppliedTokenTo",
      "type": "event"
    },
    {
      "anonymous": false,
      "inputs": [
        {
          "indexed": true,
          "internalType": "address",
          "name": "from",
          "type": "address"
        },
        {
          "indexed": true,
          "internalType": "address",
          "name": "to",
          "type": "address"
        },
        {
          "indexed": false,
          "internalType": "uint256",
          "name": "value",
          "type": "uint256"
        }
      ],
      "name": "Transfer",
      "type": "event"
    },
    {
      "anonymous": false,
      "inputs": [
        {
          "indexed": true,
          "internalType": "address",
          "name": "from",
          "type": "address"
        },
        {
          "indexed": true,
          "internalType": "address",
          "name": "to",
          "type": "address"
        },
        {
          "indexed": false,
          "internalType": "uint256",
          "name": "amount",
          "type": "uint256"
        },
        {
          "indexed": true,
          "internalType": "contract IERC20",
          "name": "token",
          "type": "address"
        }
      ],
      "name": "TransferredERC20",
      "type": "event"
    },
    {
      "inputs": [],
      "name": "aToken",
      "outputs": [
        {
          "internalType": "contract IAToken",
          "name": "",
          "type": "address"
        }
      ],
      "stateMutability": "view",
      "type": "function"
    },
    {
      "inputs": [
        {
          "internalType": "address",
          "name": "owner",
          "type": "address"
        },
        {
          "internalType": "address",
          "name": "spender",
          "type": "address"
        }
      ],
      "name": "allowance",
      "outputs": [
        {
          "internalType": "uint256",
          "name": "",
          "type": "uint256"
        }
      ],
      "stateMutability": "view",
      "type": "function"
    },
    {
      "inputs": [
        {
          "internalType": "address",
          "name": "spender",
          "type": "address"
        },
        {
          "internalType": "uint256",
          "name": "amount",
          "type": "uint256"
        }
      ],
      "name": "approve",
      "outputs": [
        {
          "internalType": "bool",
          "name": "",
          "type": "bool"
        }
      ],
      "stateMutability": "nonpayable",
      "type": "function"
    },
    {
      "inputs": [
        {
          "internalType": "address",
          "name": "account",
          "type": "address"
        }
      ],
      "name": "balanceOf",
      "outputs": [
        {
          "internalType": "uint256",
          "name": "",
          "type": "uint256"
        }
      ],
      "stateMutability": "view",
      "type": "function"
    },
    {
      "inputs": [
        {
          "internalType": "address",
          "name": "_user",
          "type": "address"
        }
      ],
      "name": "balanceOfToken",
      "outputs": [
        {
          "internalType": "uint256",
          "name": "",
          "type": "uint256"
        }
      ],
      "stateMutability": "nonpayable",
      "type": "function"
    },
    {
      "inputs": [],
      "name": "claimOwnership",
      "outputs": [],
      "stateMutability": "nonpayable",
      "type": "function"
    },
    {
      "inputs": [
        {
          "internalType": "address",
          "name": "_to",
          "type": "address"
        }
      ],
      "name": "claimRewards",
      "outputs": [
        {
          "internalType": "bool",
          "name": "",
          "type": "bool"
        }
      ],
      "stateMutability": "nonpayable",
      "type": "function"
    },
    {
      "inputs": [],
      "name": "decimals",
      "outputs": [
        {
          "internalType": "uint8",
          "name": "",
          "type": "uint8"
        }
      ],
      "stateMutability": "view",
      "type": "function"
    },
    {
      "inputs": [
        {
          "internalType": "address",
          "name": "spender",
          "type": "address"
        },
        {
          "internalType": "uint256",
          "name": "subtractedValue",
          "type": "uint256"
        }
      ],
      "name": "decreaseAllowance",
      "outputs": [
        {
          "internalType": "bool",
          "name": "",
          "type": "bool"
        }
      ],
      "stateMutability": "nonpayable",
      "type": "function"
    },
    {
      "inputs": [
        {
          "internalType": "contract IERC20",
          "name": "_token",
          "type": "address"
        },
        {
          "internalType": "address",
          "name": "_spender",
          "type": "address"
        },
        {
          "internalType": "uint256",
          "name": "_amount",
          "type": "uint256"
        }
      ],
      "name": "decreaseERC20Allowance",
      "outputs": [],
      "stateMutability": "nonpayable",
      "type": "function"
    },
    {
      "inputs": [],
      "name": "depositToken",
      "outputs": [
        {
          "internalType": "address",
          "name": "",
          "type": "address"
        }
      ],
      "stateMutability": "view",
      "type": "function"
    },
    {
      "inputs": [
        {
          "internalType": "address",
          "name": "spender",
          "type": "address"
        },
        {
          "internalType": "uint256",
          "name": "addedValue",
          "type": "uint256"
        }
      ],
      "name": "increaseAllowance",
      "outputs": [
        {
          "internalType": "bool",
          "name": "",
          "type": "bool"
        }
      ],
      "stateMutability": "nonpayable",
      "type": "function"
    },
    {
      "inputs": [
        {
          "internalType": "contract IERC20",
          "name": "_token",
          "type": "address"
        },
        {
          "internalType": "address",
          "name": "_spender",
          "type": "address"
        },
        {
          "internalType": "uint256",
          "name": "_amount",
          "type": "uint256"
        }
      ],
      "name": "increaseERC20Allowance",
      "outputs": [],
      "stateMutability": "nonpayable",
      "type": "function"
    },
    {
      "inputs": [],
      "name": "manager",
      "outputs": [
        {
          "internalType": "address",
          "name": "",
          "type": "address"
        }
      ],
      "stateMutability": "view",
      "type": "function"
    },
    {
      "inputs": [],
      "name": "name",
      "outputs": [
        {
          "internalType": "string",
          "name": "",
          "type": "string"
        }
      ],
      "stateMutability": "view",
      "type": "function"
    },
    {
      "inputs": [],
      "name": "owner",
      "outputs": [
        {
          "internalType": "address",
          "name": "",
          "type": "address"
        }
      ],
      "stateMutability": "view",
      "type": "function"
    },
    {
      "inputs": [],
      "name": "pendingOwner",
      "outputs": [
        {
          "internalType": "address",
          "name": "",
          "type": "address"
        }
      ],
      "stateMutability": "view",
      "type": "function"
    },
    {
      "inputs": [],
      "name": "poolAddressesProviderRegistry",
      "outputs": [
        {
          "internalType": "contract IPoolAddressesProviderRegistry",
          "name": "",
          "type": "address"
        }
      ],
      "stateMutability": "view",
      "type": "function"
    },
    {
      "inputs": [
        {
          "internalType": "uint256",
          "name": "_redeemAmount",
          "type": "uint256"
        }
      ],
      "name": "redeemToken",
      "outputs": [
        {
          "internalType": "uint256",
          "name": "",
          "type": "uint256"
        }
      ],
      "stateMutability": "nonpayable",
      "type": "function"
    },
    {
      "inputs": [],
      "name": "renounceOwnership",
      "outputs": [],
      "stateMutability": "nonpayable",
      "type": "function"
    },
    {
      "inputs": [],
      "name": "rewardsController",
      "outputs": [
        {
          "internalType": "contract IRewardsController",
          "name": "",
          "type": "address"
        }
      ],
      "stateMutability": "view",
      "type": "function"
    },
    {
      "inputs": [
        {
          "internalType": "address",
          "name": "_newManager",
          "type": "address"
        }
      ],
      "name": "setManager",
      "outputs": [
        {
          "internalType": "bool",
          "name": "",
          "type": "bool"
        }
      ],
      "stateMutability": "nonpayable",
      "type": "function"
    },
    {
      "inputs": [
        {
          "internalType": "uint256",
          "name": "_depositAmount",
          "type": "uint256"
        },
        {
          "internalType": "address",
          "name": "_to",
          "type": "address"
        }
      ],
      "name": "supplyTokenTo",
      "outputs": [],
      "stateMutability": "nonpayable",
      "type": "function"
    },
    {
      "inputs": [],
      "name": "symbol",
      "outputs": [
        {
          "internalType": "string",
          "name": "",
          "type": "string"
        }
      ],
      "stateMutability": "view",
      "type": "function"
    },
    {
      "inputs": [],
      "name": "totalSupply",
      "outputs": [
        {
          "internalType": "uint256",
          "name": "",
          "type": "uint256"
        }
      ],
      "stateMutability": "view",
      "type": "function"
    },
    {
      "inputs": [
        {
          "internalType": "address",
          "name": "to",
          "type": "address"
        },
        {
          "internalType": "uint256",
          "name": "amount",
          "type": "uint256"
        }
      ],
      "name": "transfer",
      "outputs": [
        {
          "internalType": "bool",
          "name": "",
          "type": "bool"
        }
      ],
      "stateMutability": "nonpayable",
      "type": "function"
    },
    {
      "inputs": [
        {
          "internalType": "contract IERC20",
          "name": "_token",
          "type": "address"
        },
        {
          "internalType": "address",
          "name": "_to",
          "type": "address"
        },
        {
          "internalType": "uint256",
          "name": "_amount",
          "type": "uint256"
        }
      ],
      "name": "transferERC20",
      "outputs": [],
      "stateMutability": "nonpayable",
      "type": "function"
    },
    {
      "inputs": [
        {
          "internalType": "address",
          "name": "from",
          "type": "address"
        },
        {
          "internalType": "address",
          "name": "to",
          "type": "address"
        },
        {
          "internalType": "uint256",
          "name": "amount",
          "type": "uint256"
        }
      ],
      "name": "transferFrom",
      "outputs": [
        {
          "internalType": "bool",
          "name": "",
          "type": "bool"
        }
      ],
      "stateMutability": "nonpayable",
      "type": "function"
    },
    {
      "inputs": [
        {
          "internalType": "address",
          "name": "_newOwner",
          "type": "address"
        }
      ],
      "name": "transferOwnership",
      "outputs": [],
      "stateMutability": "nonpayable",
      "type": "function"
    }
  ],
  "bytecode": "0x60a06040523480156200001157600080fd5b50604051620033d0380380620033d0833981016040819052620000349162000a45565b80848481600390805190602001906200004f92919062000884565b5080516200006590600490602084019062000884565b50505062000079816200031a60201b60201c565b5060016008556001600160a01b038716620000db5760405162461bcd60e51b815260206004820181905260248201527f41617665563359532f61546f6b656e2d6e6f742d7a65726f2d6164647265737360448201526064015b60405180910390fd5b600980546001600160a01b0319166001600160a01b038981169190911790915586166200014b5760405162461bcd60e51b815260206004820152601c60248201527f41617665563359532f52432d6e6f742d7a65726f2d61646472657373000000006044820152606401620000d2565b600a80546001600160a01b0319166001600160a01b03888116919091179091558516620001bb5760405162461bcd60e51b815260206004820152601c60248201527f41617665563359532f50522d6e6f742d7a65726f2d61646472657373000000006044820152606401620000d2565b600b80546001600160a01b0319166001600160a01b038781169190911790915581166200022b5760405162461bcd60e51b815260206004820152601f60248201527f41617665563359532f6f776e65722d6e6f742d7a65726f2d61646472657373006044820152606401620000d2565b60008260ff1611620002805760405162461bcd60e51b815260206004820152601960248201527f41617665563359532f646563696d616c732d67742d7a65726f000000000000006044820152606401620000d2565b60ff8216608052620002c0620002956200036c565b600019620002a2620003e1565b6001600160a01b03166200042c60201b620010d6179092919060201c565b866001600160a01b03167fb4c0233428c55a68617f46f436f714ada4aebd76cf3d8844a1d76846ed646a86878787878787604051620003059695949392919062000b4a565b60405180910390a25050505050505062000d4b565b600580546001600160a01b038381166001600160a01b0319831681179093556040519116919082907f8be0079c531659141344cd1fd0a4f28419497f9722a3daafe3b4186f6b6457e090600090a35050565b6000620003786200057b565b6001600160a01b031663026b1d5f6040518163ffffffff1660e01b8152600401602060405180830381865afa158015620003b6573d6000803e3d6000fd5b505050506040513d601f19601f82011682018060405250810190620003dc919062000ba9565b905090565b600954604080516358b50cef60e11b815290516000926001600160a01b03169163b16a19de9160048083019260209291908290030181865afa158015620003b6573d6000803e3d6000fd5b801580620004aa5750604051636eb1769f60e11b81523060048201526001600160a01b03838116602483015284169063dd62ed3e90604401602060405180830381865afa15801562000482573d6000803e3d6000fd5b505050506040513d601f19601f82011682018060405250810190620004a8919062000bc9565b155b6200051e5760405162461bcd60e51b815260206004820152603660248201527f5361666545524332303a20617070726f76652066726f6d206e6f6e2d7a65726f60448201527f20746f206e6f6e2d7a65726f20616c6c6f77616e6365000000000000000000006064820152608401620000d2565b604080516001600160a01b038416602482015260448082018490528251808303909101815260649091019091526020810180516001600160e01b0390811663095ea7b360e01b17909152620005769185916200061116565b505050565b600b546040805163365ccbbf60e01b815290516000926001600160a01b03169163365ccbbf91600480830192869291908290030181865afa158015620005c5573d6000803e3d6000fd5b505050506040513d6000823e601f3d908101601f19168201604052620005ef919081019062000be3565b60008151811062000604576200060462000ca1565b6020026020010151905090565b60006200066d826040518060400160405280602081526020017f5361666545524332303a206c6f772d6c6576656c2063616c6c206661696c6564815250856001600160a01b0316620006ef60201b62001223179092919060201c565b8051909150156200057657808060200190518101906200068e919062000cb7565b620005765760405162461bcd60e51b815260206004820152602a60248201527f5361666545524332303a204552433230206f7065726174696f6e20646964206e6044820152691bdd081cdd58d8d9595960b21b6064820152608401620000d2565b60606200070084846000856200070a565b90505b9392505050565b6060824710156200076d5760405162461bcd60e51b815260206004820152602660248201527f416464726573733a20696e73756666696369656e742062616c616e636520666f6044820152651c8818d85b1b60d21b6064820152608401620000d2565b6001600160a01b0385163b620007c65760405162461bcd60e51b815260206004820152601d60248201527f416464726573733a2063616c6c20746f206e6f6e2d636f6e74726163740000006044820152606401620000d2565b600080866001600160a01b03168587604051620007e4919062000cdb565b60006040518083038185875af1925050503d806000811462000823576040519150601f19603f3d011682016040523d82523d6000602084013e62000828565b606091505b5090925090506200083b82828662000846565b979650505050505050565b606083156200085757508162000703565b825115620008685782518084602001fd5b8160405162461bcd60e51b8152600401620000d2919062000cf9565b828054620008929062000d0e565b90600052602060002090601f016020900481019282620008b6576000855562000901565b82601f10620008d157805160ff191683800117855562000901565b8280016001018555821562000901579182015b8281111562000901578251825591602001919060010190620008e4565b506200090f92915062000913565b5090565b5b808211156200090f576000815560010162000914565b6001600160a01b03811681146200094057600080fd5b50565b634e487b7160e01b600052604160045260246000fd5b604051601f8201601f191681016001600160401b038111828210171562000984576200098462000943565b604052919050565b60005b83811015620009a95781810151838201526020016200098f565b83811115620009b9576000848401525b50505050565b600082601f830112620009d157600080fd5b81516001600160401b03811115620009ed57620009ed62000943565b62000a02601f8201601f191660200162000959565b81815284602083860101111562000a1857600080fd5b62000a2b8260208301602087016200098c565b949350505050565b805162000a40816200092a565b919050565b600080600080600080600060e0888a03121562000a6157600080fd5b875162000a6e816200092a565b602089015190975062000a81816200092a565b604089015190965062000a94816200092a565b60608901519095506001600160401b038082111562000ab257600080fd5b62000ac08b838c01620009bf565b955060808a015191508082111562000ad757600080fd5b5062000ae68a828b01620009bf565b93505060a088015160ff8116811462000afe57600080fd5b915062000b0e60c0890162000a33565b905092959891949750929550565b6000815180845262000b368160208601602086016200098c565b601f01601f19169290920160200192915050565b600060018060a01b038089168352808816602084015260c0604084015262000b7660c084018862000b1c565b838103606085015262000b8a818862000b1c565b60ff969096166080850152509290921660a09091015250949350505050565b60006020828403121562000bbc57600080fd5b815162000703816200092a565b60006020828403121562000bdc57600080fd5b5051919050565b6000602080838503121562000bf757600080fd5b82516001600160401b038082111562000c0f57600080fd5b818501915085601f83011262000c2457600080fd5b81518181111562000c395762000c3962000943565b8060051b915062000c4c84830162000959565b818152918301840191848101908884111562000c6757600080fd5b938501935b8385101562000c95578451925062000c84836200092a565b828252938501939085019062000c6c565b98975050505050505050565b634e487b7160e01b600052603260045260246000fd5b60006020828403121562000cca57600080fd5b815180151581146200070357600080fd5b6000825162000cef8184602087016200098c565b9190910192915050565b60208152600062000703602083018462000b1c565b600181811c9082168062000d2357607f821691505b6020821081141562000d4557634e487b7160e01b600052602260045260246000fd5b50919050565b60805161266962000d67600039600061025401526126696000f3fe608060405234801561001057600080fd5b50600436106101cf5760003560e01c806395d89b4111610104578063c89039c5116100a2578063e30c397811610071578063e30c397814610409578063ef5cfb8c1461041a578063f2ca6b911461042d578063f2fde38b1461044057600080fd5b8063c89039c5146103a2578063cad1b113146103aa578063d0ebdbe7146103bd578063dd62ed3e146103d057600080fd5b8063a457c2d7116100de578063a457c2d714610356578063a9059cbb14610369578063b29fd8591461037c578063b99152d01461038f57600080fd5b806395d89b41146103285780639db5dbe414610330578063a0c1f15e1461034357600080fd5b8063481c6a751161017157806370a082311161014b57806370a08231146102d3578063715018a6146102fc57806387a6eeef146103045780638da5cb5b1461031757600080fd5b8063481c6a75146102915780634e71e0c8146102b65780636bb65f53146102c057600080fd5b806318160ddd116101ad57806318160ddd1461023257806323b872dd1461023a578063313ce5671461024d578063395093511461027e57600080fd5b8063013054c2146101d457806306fdde03146101fa578063095ea7b31461020f575b600080fd5b6101e76101e2366004612062565b610453565b6040519081526020015b60405180910390f35b6102026106a1565b6040516101f191906120a7565b61022261021d3660046120ef565b610733565b60405190151581526020016101f1565b6002546101e7565b61022261024836600461211b565b61074b565b60405160ff7f00000000000000000000000000000000000000000000000000000000000000001681526020016101f1565b61022261028c3660046120ef565b610771565b6007546001600160a01b03165b6040516001600160a01b0390911681526020016101f1565b6102be6107b0565b005b600a5461029e906001600160a01b031681565b6101e76102e136600461215c565b6001600160a01b031660009081526020819052604090205490565b6102be610831565b6102be610312366004612179565b610876565b6005546001600160a01b031661029e565b610202610a20565b6102be61033e36600461211b565b610a2f565b60095461029e906001600160a01b031681565b6102226103643660046120ef565b610b5a565b6102226103773660046120ef565b610bf7565b6102be61038a36600461211b565b610c05565b6101e761039d36600461215c565b610cce565b61029e610cf6565b6102be6103b836600461211b565b610d05565b6102226103cb36600461215c565b610dce565b6101e76103de3660046121a9565b6001600160a01b03918216600090815260016020908152604080832093909416825291909152205490565b6006546001600160a01b031661029e565b61022261042836600461215c565b610e12565b600b5461029e906001600160a01b031681565b6102be61044e36600461215c565b610fef565b6000600260085414156104ad5760405162461bcd60e51b815260206004820152601f60248201527f5265656e7472616e637947756172643a207265656e7472616e742063616c6c0060448201526064015b60405180910390fd5b600260085560006104bc61123a565b90508060006104ca856112a8565b90506104d63382611346565b6040516370a0823160e01b81523060048201526000906001600160a01b038416906370a0823190602401602060405180830381865afa15801561051d573d6000803e3d6000fd5b505050506040513d601f19601f8201168201806040525081019061054191906121d7565b905061054b611494565b604051631a4ca37b60e21b81526001600160a01b0386811660048301526024820189905230604483015291909116906369328dec906064016020604051808303816000875af11580156105a2573d6000803e3d6000fd5b505050506040513d601f19601f820116820180604052508101906105c691906121d7565b506040516370a0823160e01b81523060048201526000906001600160a01b038516906370a0823190602401602060405180830381865afa15801561060e573d6000803e3d6000fd5b505050506040513d601f19601f8201168201806040525081019061063291906121d7565b9050600061064082846114db565b90506106566001600160a01b03861633836114e7565b60408051858152602081018a905233917f5c9b0a8fe13a826ca676f5ad4f98c747b5086beb79ab58589b8211b62fa32fb9910160405180910390a26001600855979650505050505050565b6060600380546106b0906121f0565b80601f01602080910402602001604051908101604052809291908181526020018280546106dc906121f0565b80156107295780601f106106fe57610100808354040283529160200191610729565b820191906000526020600020905b81548152906001019060200180831161070c57829003601f168201915b5050505050905090565b600033610741818585611517565b5060019392505050565b60003361075985828561163b565b6107648585856116cd565b60019150505b9392505050565b3360008181526001602090815260408083206001600160a01b038716845290915281205490919061074190829086906107ab908790612241565b611517565b6006546001600160a01b0316331461080a5760405162461bcd60e51b815260206004820152601f60248201527f4f776e61626c652f63616c6c65722d6e6f742d70656e64696e674f776e65720060448201526064016104a4565b60065461081f906001600160a01b031661189b565b600680546001600160a01b0319169055565b336108446005546001600160a01b031690565b6001600160a01b03161461086a5760405162461bcd60e51b81526004016104a490612259565b610874600061189b565b565b600260085414156108c95760405162461bcd60e51b815260206004820152601f60248201527f5265656e7472616e637947756172643a207265656e7472616e742063616c6c0060448201526064016104a4565b600260085560006108d9836112a8565b90506000811161092b5760405162461bcd60e51b815260206004820152601760248201527f41617665563359532f7368617265732d67742d7a65726f00000000000000000060448201526064016104a4565b600061093561123a565b905061094c6001600160a01b0382163330876118ed565b610954611494565b60405163617ba03760e01b81526001600160a01b0383811660048301526024820187905230604483015260bc6064830152919091169063617ba03790608401600060405180830381600087803b1580156109ad57600080fd5b505af11580156109c1573d6000803e3d6000fd5b505050506109cf8383611925565b60408051838152602081018690526001600160a01b0385169133917fdef5cc95ad9b1c65c586d0fce815ec764b575719636edf58ff2553ae6f110452910160405180910390a3505060016008555050565b6060600480546106b0906121f0565b33610a426007546001600160a01b031690565b6001600160a01b03161480610a70575033610a656005546001600160a01b031690565b6001600160a01b0316145b610a8c5760405162461bcd60e51b81526004016104a490612290565b6009546001600160a01b0384811691161415610aea5760405162461bcd60e51b815260206004820152601f60248201527f41617665563359532f666f726269642d61546f6b656e2d7472616e736665720060448201526064016104a4565b610afe6001600160a01b03841683836114e7565b826001600160a01b0316826001600160a01b0316336001600160a01b03167f29fcb7bb954d37295343e742bab21760748bdba4e026e4469a8100183996913884604051610b4d91815260200190565b60405180910390a4505050565b3360008181526001602090815260408083206001600160a01b038716845290915281205490919083811015610bdf5760405162461bcd60e51b815260206004820152602560248201527f45524332303a2064656372656173656420616c6c6f77616e63652062656c6f77604482015264207a65726f60d81b60648201526084016104a4565b610bec8286868403611517565b506001949350505050565b6000336107418185856116cd565b33610c186007546001600160a01b031690565b6001600160a01b03161480610c46575033610c3b6005546001600160a01b031690565b6001600160a01b0316145b610c625760405162461bcd60e51b81526004016104a490612290565b610c6b83611a04565b610c7f6001600160a01b0384168383611a65565b826001600160a01b0316826001600160a01b0316336001600160a01b03167fb950f35bebfc57c18eb18b27fa6295af1f3f33aaf918012ecb50ab2238ef4dae84604051610b4d91815260200190565b6001600160a01b038116600090815260208190526040812054610cf090611b17565b92915050565b6000610d0061123a565b905090565b33610d186007546001600160a01b031690565b6001600160a01b03161480610d46575033610d3b6005546001600160a01b031690565b6001600160a01b0316145b610d625760405162461bcd60e51b81526004016104a490612290565b610d6b83611a04565b610d7f6001600160a01b0384168383611ba6565b826001600160a01b0316826001600160a01b0316336001600160a01b03167fbde560dd72188a103801403edfa1655a8453dc173e65955668846925d687afe784604051610b4d91815260200190565b600033610de36005546001600160a01b031690565b6001600160a01b031614610e095760405162461bcd60e51b81526004016104a490612259565b610cf082611cb9565b600033610e276007546001600160a01b031690565b6001600160a01b03161480610e55575033610e4a6005546001600160a01b031690565b6001600160a01b0316145b610e715760405162461bcd60e51b81526004016104a490612290565b6001600160a01b038216610ec75760405162461bcd60e51b815260206004820152601f60248201527f41617665563359532f70617965652d6e6f742d7a65726f2d616464726573730060448201526064016104a4565b60408051600180825281830190925260009160208083019080368337505060095482519293506001600160a01b031691839150600090610f0957610f096122ec565b6001600160a01b039283166020918202929092010152600a5460405163bb492bf560e01b81526000928392169063bb492bf590610f4c9086908990600401612346565b6000604051808303816000875af1158015610f6b573d6000803e3d6000fd5b505050506040513d6000823e601f3d908101601f19168201604052610f939190810190612439565b91509150846001600160a01b0316336001600160a01b03167f16b67bee17bd6fd679caacc21ffa680d8cf251cbf879eb3b6ef84716100c15ff8484604051610fdc9291906124f4565b60405180910390a3506001949350505050565b336110026005546001600160a01b031690565b6001600160a01b0316146110285760405162461bcd60e51b81526004016104a490612259565b6001600160a01b03811661108c5760405162461bcd60e51b815260206004820152602560248201527f4f776e61626c652f70656e64696e674f776e65722d6e6f742d7a65726f2d6164604482015264647265737360d81b60648201526084016104a4565b600680546001600160a01b0319166001600160a01b0383169081179091556040517f239a2ddded15777fa246aed5f7e1a9bc69a39d4eb4a397034d1d85766cca7d4c90600090a250565b8015806111505750604051636eb1769f60e11b81523060048201526001600160a01b03838116602483015284169063dd62ed3e90604401602060405180830381865afa15801561112a573d6000803e3d6000fd5b505050506040513d601f19601f8201168201806040525081019061114e91906121d7565b155b6111bb5760405162461bcd60e51b815260206004820152603660248201527f5361666545524332303a20617070726f76652066726f6d206e6f6e2d7a65726f60448201527520746f206e6f6e2d7a65726f20616c6c6f77616e636560501b60648201526084016104a4565b6040516001600160a01b03831660248201526044810182905261121e90849063095ea7b360e01b906064015b60408051601f198184030181529190526020810180516001600160e01b03166001600160e01b031990931692909217909152611d7e565b505050565b60606112328484600085611e50565b949350505050565b600954604080516358b50cef60e11b815290516000926001600160a01b03169163b16a19de9160048083019260209291908290030181865afa158015611284573d6000803e3d6000fd5b505050506040513d601f19601f82011682018060405250810190610d00919061254b565b6000806112b460025490565b9050801561133f576009546040516370a0823160e01b815230600482015261133a916001600160a01b0316906370a0823190602401602060405180830381865afa158015611306573d6000803e3d6000fd5b505050506040513d601f19601f8201168201806040525081019061132a91906121d7565b6113348584611f81565b90611f8d565b61076a565b5090919050565b6001600160a01b0382166113a65760405162461bcd60e51b815260206004820152602160248201527f45524332303a206275726e2066726f6d20746865207a65726f206164647265736044820152607360f81b60648201526084016104a4565b6001600160a01b0382166000908152602081905260409020548181101561141a5760405162461bcd60e51b815260206004820152602260248201527f45524332303a206275726e20616d6f756e7420657863656564732062616c616e604482015261636560f01b60648201526084016104a4565b6001600160a01b0383166000908152602081905260408120838303905560028054849290611449908490612568565b90915550506040518281526000906001600160a01b038516907fddf252ad1be2c89b69c2b068fc378daa952ba7f163c4a11628f55a4df523b3ef9060200160405180910390a3505050565b600061149e611f99565b6001600160a01b031663026b1d5f6040518163ffffffff1660e01b8152600401602060405180830381865afa158015611284573d6000803e3d6000fd5b600061076a8284612568565b6040516001600160a01b03831660248201526044810182905261121e90849063a9059cbb60e01b906064016111e7565b6001600160a01b0383166115795760405162461bcd60e51b8152602060048201526024808201527f45524332303a20617070726f76652066726f6d20746865207a65726f206164646044820152637265737360e01b60648201526084016104a4565b6001600160a01b0382166115da5760405162461bcd60e51b815260206004820152602260248201527f45524332303a20617070726f766520746f20746865207a65726f206164647265604482015261737360f01b60648201526084016104a4565b6001600160a01b0383811660008181526001602090815260408083209487168084529482529182902085905590518481527f8c5be1e5ebec7d5bd14f71427d1e84f3dd0314c0f7b2291e5b200ac8c7c3b925910160405180910390a3505050565b6001600160a01b0383811660009081526001602090815260408083209386168352929052205460001981146116c757818110156116ba5760405162461bcd60e51b815260206004820152601d60248201527f45524332303a20696e73756666696369656e7420616c6c6f77616e636500000060448201526064016104a4565b6116c78484848403611517565b50505050565b6001600160a01b0383166117315760405162461bcd60e51b815260206004820152602560248201527f45524332303a207472616e736665722066726f6d20746865207a65726f206164604482015264647265737360d81b60648201526084016104a4565b6001600160a01b0382166117935760405162461bcd60e51b815260206004820152602360248201527f45524332303a207472616e7366657220746f20746865207a65726f206164647260448201526265737360e81b60648201526084016104a4565b6001600160a01b0383166000908152602081905260409020548181101561180b5760405162461bcd60e51b815260206004820152602660248201527f45524332303a207472616e7366657220616d6f756e7420657863656564732062604482015265616c616e636560d01b60648201526084016104a4565b6001600160a01b03808516600090815260208190526040808220858503905591851681529081208054849290611842908490612241565b92505081905550826001600160a01b0316846001600160a01b03167fddf252ad1be2c89b69c2b068fc378daa952ba7f163c4a11628f55a4df523b3ef8460405161188e91815260200190565b60405180910390a36116c7565b600580546001600160a01b038381166001600160a01b0319831681179093556040519116919082907f8be0079c531659141344cd1fd0a4f28419497f9722a3daafe3b4186f6b6457e090600090a35050565b6040516001600160a01b03808516602483015283166044820152606481018290526116c79085906323b872dd60e01b906084016111e7565b6001600160a01b03821661197b5760405162461bcd60e51b815260206004820152601f60248201527f45524332303a206d696e7420746f20746865207a65726f20616464726573730060448201526064016104a4565b806002600082825461198d9190612241565b90915550506001600160a01b038216600090815260208190526040812080548392906119ba908490612241565b90915550506040518181526001600160a01b038316906000907fddf252ad1be2c89b69c2b068fc378daa952ba7f163c4a11628f55a4df523b3ef9060200160405180910390a35050565b6009546001600160a01b0382811691161415611a625760405162461bcd60e51b815260206004820181905260248201527f41617665563359532f666f726269642d61546f6b656e2d616c6c6f77616e636560448201526064016104a4565b50565b604051636eb1769f60e11b81523060048201526001600160a01b038381166024830152600091839186169063dd62ed3e90604401602060405180830381865afa158015611ab6573d6000803e3d6000fd5b505050506040513d601f19601f82011682018060405250810190611ada91906121d7565b611ae49190612241565b6040516001600160a01b0385166024820152604481018290529091506116c790859063095ea7b360e01b906064016111e7565b600080611b2360025490565b9050801561133f576009546040516370a0823160e01b815230600482015261133a918391611334916001600160a01b0316906370a0823190602401602060405180830381865afa158015611b7b573d6000803e3d6000fd5b505050506040513d601f19601f82011682018060405250810190611b9f91906121d7565b8690611f81565b604051636eb1769f60e11b81523060048201526001600160a01b0383811660248301526000919085169063dd62ed3e90604401602060405180830381865afa158015611bf6573d6000803e3d6000fd5b505050506040513d601f19601f82011682018060405250810190611c1a91906121d7565b905081811015611c7e5760405162461bcd60e51b815260206004820152602960248201527f5361666545524332303a2064656372656173656420616c6c6f77616e63652062604482015268656c6f77207a65726f60b81b60648201526084016104a4565b6040516001600160a01b03841660248201528282036044820181905290611cb290869063095ea7b360e01b906064016111e7565b5050505050565b6007546000906001600160a01b03908116908316811415611d285760405162461bcd60e51b815260206004820152602360248201527f4d616e61676561626c652f6578697374696e672d6d616e616765722d6164647260448201526265737360e81b60648201526084016104a4565b600780546001600160a01b0319166001600160a01b0385811691821790925560405190918316907f9cb45c728de594dab506a1f1a8554e24c8eeaf983618d5ec5dd7bc6f3c49feee90600090a350600192915050565b6000611dd3826040518060400160405280602081526020017f5361666545524332303a206c6f772d6c6576656c2063616c6c206661696c6564815250856001600160a01b03166112239092919063ffffffff16565b80519091501561121e5780806020019051810190611df1919061257f565b61121e5760405162461bcd60e51b815260206004820152602a60248201527f5361666545524332303a204552433230206f7065726174696f6e20646964206e6044820152691bdd081cdd58d8d9595960b21b60648201526084016104a4565b606082471015611eb15760405162461bcd60e51b815260206004820152602660248201527f416464726573733a20696e73756666696369656e742062616c616e636520666f6044820152651c8818d85b1b60d21b60648201526084016104a4565b6001600160a01b0385163b611f085760405162461bcd60e51b815260206004820152601d60248201527f416464726573733a2063616c6c20746f206e6f6e2d636f6e747261637400000060448201526064016104a4565b600080866001600160a01b03168587604051611f2491906125a1565b60006040518083038185875af1925050503d8060008114611f61576040519150601f19603f3d011682016040523d82523d6000602084013e611f66565b606091505b5091509150611f76828286612029565b979650505050505050565b600061076a82846125bd565b600061076a82846125dc565b600b546040805163365ccbbf60e01b815290516000926001600160a01b03169163365ccbbf91600480830192869291908290030181865afa158015611fe2573d6000803e3d6000fd5b505050506040513d6000823e601f3d908101601f1916820160405261200a91908101906125fe565b60008151811061201c5761201c6122ec565b6020026020010151905090565b6060831561203857508161076a565b8251156120485782518084602001fd5b8160405162461bcd60e51b81526004016104a491906120a7565b60006020828403121561207457600080fd5b5035919050565b60005b8381101561209657818101518382015260200161207e565b838111156116c75750506000910152565b60208152600082518060208401526120c681604085016020870161207b565b601f01601f19169190910160400192915050565b6001600160a01b0381168114611a6257600080fd5b6000806040838503121561210257600080fd5b823561210d816120da565b946020939093013593505050565b60008060006060848603121561213057600080fd5b833561213b816120da565b9250602084013561214b816120da565b929592945050506040919091013590565b60006020828403121561216e57600080fd5b813561076a816120da565b6000806040838503121561218c57600080fd5b82359150602083013561219e816120da565b809150509250929050565b600080604083850312156121bc57600080fd5b82356121c7816120da565b9150602083013561219e816120da565b6000602082840312156121e957600080fd5b5051919050565b600181811c9082168061220457607f821691505b6020821081141561222557634e487b7160e01b600052602260045260246000fd5b50919050565b634e487b7160e01b600052601160045260246000fd5b600082198211156122545761225461222b565b500190565b60208082526018908201527f4f776e61626c652f63616c6c65722d6e6f742d6f776e65720000000000000000604082015260600190565b60208082526026908201527f4d616e61676561626c652f63616c6c65722d6e6f742d6d616e616765722d6f7260408201526516b7bbb732b960d11b606082015260800190565b634e487b7160e01b600052604160045260246000fd5b634e487b7160e01b600052603260045260246000fd5b600081518084526020808501945080840160005b8381101561233b5781516001600160a01b031687529582019590820190600101612316565b509495945050505050565b6040815260006123596040830185612302565b905060018060a01b03831660208301529392505050565b604051601f8201601f1916810167ffffffffffffffff81118282101715612399576123996122d6565b604052919050565b600067ffffffffffffffff8211156123bb576123bb6122d6565b5060051b60200190565b600082601f8301126123d657600080fd5b815160206123eb6123e6836123a1565b612370565b82815260059290921b8401810191818101908684111561240a57600080fd5b8286015b8481101561242e578051612421816120da565b835291830191830161240e565b509695505050505050565b6000806040838503121561244c57600080fd5b825167ffffffffffffffff8082111561246457600080fd5b612470868387016123c5565b935060209150818501518181111561248757600080fd5b85019050601f8101861361249a57600080fd5b80516124a86123e6826123a1565b81815260059190911b820183019083810190888311156124c757600080fd5b928401925b828410156124e5578351825292840192908401906124cc565b80955050505050509250929050565b6040815260006125076040830185612302565b82810360208481019190915284518083528582019282019060005b8181101561253e57845183529383019391830191600101612522565b5090979650505050505050565b60006020828403121561255d57600080fd5b815161076a816120da565b60008282101561257a5761257a61222b565b500390565b60006020828403121561259157600080fd5b8151801515811461076a57600080fd5b600082516125b381846020870161207b565b9190910192915050565b60008160001904831182151516156125d7576125d761222b565b500290565b6000826125f957634e487b7160e01b600052601260045260246000fd5b500490565b60006020828403121561261057600080fd5b815167ffffffffffffffff81111561262757600080fd5b611232848285016123c556fea2646970667358221220e41de61a93a3c0849d8a370bb160615abd18d17928f3755313d86f1623823eed64736f6c634300080a0033",
  "linkReferences": {},
  "deployedLinkReferences": {}
}