{
  "_format": "hh-sol-artifact-1",
  "contractName": "Join",
  "sourceName": "contracts/Join.sol",
  "abi": [
    {
      "inputs": [
        {
          "internalType": "address",
          "name": "asset_",
          "type": "address"
        }
      ],
      "stateMutability": "nonpayable",
      "type": "constructor"
    },
    {
      "anonymous": false,
      "inputs": [
        {
          "indexed": true,
          "internalType": "uint256",
          "name": "fee",
          "type": "uint256"
        }
      ],
      "name": "FlashFeeFactorSet",
      "type": "event"
    },
    {
      "anonymous": false,
      "inputs": [
        {
          "indexed": true,
          "internalType": "bytes4",
          "name": "role",
          "type": "bytes4"
        },
        {
          "indexed": true,
          "internalType": "bytes4",
          "name": "newAdminRole",
          "type": "bytes4"
        }
      ],
      "name": "RoleAdminChanged",
      "type": "event"
    },
    {
      "anonymous": false,
      "inputs": [
        {
          "indexed": true,
          "internalType": "bytes4",
          "name": "role",
          "type": "bytes4"
        },
        {
          "indexed": true,
          "internalType": "address",
          "name": "account",
          "type": "address"
        },
        {
          "indexed": true,
          "internalType": "address",
          "name": "sender",
          "type": "address"
        }
      ],
      "name": "RoleGranted",
      "type": "event"
    },
    {
      "anonymous": false,
      "inputs": [
        {
          "indexed": true,
          "internalType": "bytes4",
          "name": "role",
          "type": "bytes4"
        },
        {
          "indexed": true,
          "internalType": "address",
          "name": "account",
          "type": "address"
        },
        {
          "indexed": true,
          "internalType": "address",
          "name": "sender",
          "type": "address"
        }
      ],
      "name": "RoleRevoked",
      "type": "event"
    },
    {
      "inputs": [],
      "name": "LOCK",
      "outputs": [
        {
          "internalType": "bytes4",
          "name": "",
          "type": "bytes4"
        }
      ],
      "stateMutability": "view",
      "type": "function"
    },
    {
      "inputs": [],
      "name": "ROOT",
      "outputs": [
        {
          "internalType": "bytes4",
          "name": "",
          "type": "bytes4"
        }
      ],
      "stateMutability": "view",
      "type": "function"
    },
    {
      "inputs": [],
      "name": "asset",
      "outputs": [
        {
          "internalType": "address",
          "name": "",
          "type": "address"
        }
      ],
      "stateMutability": "view",
      "type": "function"
    },
    {
      "inputs": [
        {
          "internalType": "address",
          "name": "user",
          "type": "address"
        },
        {
          "internalType": "uint128",
          "name": "amount",
          "type": "uint128"
        }
      ],
      "name": "exit",
      "outputs": [
        {
          "internalType": "uint128",
          "name": "",
          "type": "uint128"
        }
      ],
      "stateMutability": "nonpayable",
      "type": "function"
    },
    {
      "inputs": [
        {
          "internalType": "address",
          "name": "token",
          "type": "address"
        },
        {
          "internalType": "uint256",
          "name": "amount",
          "type": "uint256"
        }
      ],
      "name": "flashFee",
      "outputs": [
        {
          "internalType": "uint256",
          "name": "",
          "type": "uint256"
        }
      ],
      "stateMutability": "view",
      "type": "function"
    },
    {
      "inputs": [],
      "name": "flashFeeFactor",
      "outputs": [
        {
          "internalType": "uint256",
          "name": "",
          "type": "uint256"
        }
      ],
      "stateMutability": "view",
      "type": "function"
    },
    {
      "inputs": [
        {
          "internalType": "contract IERC3156FlashBorrower",
          "name": "receiver",
          "type": "address"
        },
        {
          "internalType": "address",
          "name": "token",
          "type": "address"
        },
        {
          "internalType": "uint256",
          "name": "amount",
          "type": "uint256"
        },
        {
          "internalType": "bytes",
          "name": "data",
          "type": "bytes"
        }
      ],
      "name": "flashLoan",
      "outputs": [
        {
          "internalType": "bool",
          "name": "",
          "type": "bool"
        }
      ],
      "stateMutability": "nonpayable",
      "type": "function"
    },
    {
      "inputs": [
        {
          "internalType": "bytes4",
          "name": "role",
          "type": "bytes4"
        }
      ],
      "name": "getRoleAdmin",
      "outputs": [
        {
          "internalType": "bytes4",
          "name": "",
          "type": "bytes4"
        }
      ],
      "stateMutability": "view",
      "type": "function"
    },
    {
      "inputs": [
        {
          "internalType": "bytes4",
          "name": "role",
          "type": "bytes4"
        },
        {
          "internalType": "address",
          "name": "account",
          "type": "address"
        }
      ],
      "name": "grantRole",
      "outputs": [],
      "stateMutability": "nonpayable",
      "type": "function"
    },
    {
      "inputs": [
        {
          "internalType": "bytes4[]",
          "name": "roles",
          "type": "bytes4[]"
        },
        {
          "internalType": "address",
          "name": "account",
          "type": "address"
        }
      ],
      "name": "grantRoles",
      "outputs": [],
      "stateMutability": "nonpayable",
      "type": "function"
    },
    {
      "inputs": [
        {
          "internalType": "bytes4",
          "name": "role",
          "type": "bytes4"
        },
        {
          "internalType": "address",
          "name": "account",
          "type": "address"
        }
      ],
      "name": "hasRole",
      "outputs": [
        {
          "internalType": "bool",
          "name": "",
          "type": "bool"
        }
      ],
      "stateMutability": "view",
      "type": "function"
    },
    {
      "inputs": [
        {
          "internalType": "address",
          "name": "user",
          "type": "address"
        },
        {
          "internalType": "uint128",
          "name": "amount",
          "type": "uint128"
        }
      ],
      "name": "join",
      "outputs": [
        {
          "internalType": "uint128",
          "name": "",
          "type": "uint128"
        }
      ],
      "stateMutability": "nonpayable",
      "type": "function"
    },
    {
      "inputs": [
        {
          "internalType": "bytes4",
          "name": "role",
          "type": "bytes4"
        }
      ],
      "name": "lockRole",
      "outputs": [],
      "stateMutability": "nonpayable",
      "type": "function"
    },
    {
      "inputs": [
        {
          "internalType": "address",
          "name": "token",
          "type": "address"
        }
      ],
      "name": "maxFlashLoan",
      "outputs": [
        {
          "internalType": "uint256",
          "name": "",
          "type": "uint256"
        }
      ],
      "stateMutability": "view",
      "type": "function"
    },
    {
      "inputs": [
        {
          "internalType": "bytes4",
          "name": "role",
          "type": "bytes4"
        },
        {
          "internalType": "address",
          "name": "account",
          "type": "address"
        }
      ],
      "name": "renounceRole",
      "outputs": [],
      "stateMutability": "nonpayable",
      "type": "function"
    },
    {
      "inputs": [
        {
          "internalType": "contract IERC20",
          "name": "token",
          "type": "address"
        },
        {
          "internalType": "address",
          "name": "to",
          "type": "address"
        }
      ],
      "name": "retrieve",
      "outputs": [],
      "stateMutability": "nonpayable",
      "type": "function"
    },
    {
      "inputs": [
        {
          "internalType": "bytes4",
          "name": "role",
          "type": "bytes4"
        },
        {
          "internalType": "address",
          "name": "account",
          "type": "address"
        }
      ],
      "name": "revokeRole",
      "outputs": [],
      "stateMutability": "nonpayable",
      "type": "function"
    },
    {
      "inputs": [
        {
          "internalType": "bytes4[]",
          "name": "roles",
          "type": "bytes4[]"
        },
        {
          "internalType": "address",
          "name": "account",
          "type": "address"
        }
      ],
      "name": "revokeRoles",
      "outputs": [],
      "stateMutability": "nonpayable",
      "type": "function"
    },
    {
      "inputs": [
        {
          "internalType": "uint256",
          "name": "flashFeeFactor_",
          "type": "uint256"
        }
      ],
      "name": "setFlashFeeFactor",
      "outputs": [],
      "stateMutability": "nonpayable",
      "type": "function"
    },
    {
      "inputs": [
        {
          "internalType": "bytes4",
          "name": "role",
          "type": "bytes4"
        },
        {
          "internalType": "bytes4",
          "name": "adminRole",
          "type": "bytes4"
        }
      ],
      "name": "setRoleAdmin",
      "outputs": [],
      "stateMutability": "nonpayable",
      "type": "function"
    },
    {
      "inputs": [],
      "name": "storedBalance",
      "outputs": [
        {
          "internalType": "uint256",
          "name": "",
          "type": "uint256"
        }
      ],
      "stateMutability": "view",
      "type": "function"
    }
  ],
  "bytecode": "0x60a06040526000196002553480156200001757600080fd5b5060405162001b7938038062001b798339810160408190526200003a91620001bf565b6200004760003362000071565b6200005b6001600160e01b031980620000e6565b60601b6001600160601b031916608052620001ef565b6200007d828262000168565b620000e2576001600160e01b031982166000818152602081815260408083206001600160a01b0386168085529252808320805460ff1916600117905551339391927fe6231789d19137da31d0550f4ba9ee379020a8cfb64cb79bf1790c996d2e616591a45b5050565b6001600160e01b03198116620000fc836200019d565b6001600160e01b03191614620000e2576001600160e01b0319828116600081815260208190526040808220600101805463ffffffff191660e087901c17905551928416927fd348e2220a50b4500ec353f6e802d2f14dd1b5d6786148fd1bbcc570bf92d4739190a35050565b6001600160e01b031982166000908152602081815260408083206001600160a01b038516845290915290205460ff1692915050565b6001600160e01b03191660009081526020819052604090206001015460e01b90565b600060208284031215620001d1578081fd5b81516001600160a01b0381168114620001e8578182fd5b9392505050565b60805160601c61194162000238600039600081816103e10152818161049c0152818161061b015281816107ea0152818161097201528181610a8d0152610cca01526119416000f3fe608060405234801561001057600080fd5b50600436106101775760003560e01c8063687f0e4c116100d8578063ceae3abd1161008c578063e9eca99411610066578063e9eca994146102f2578063effae353146102fa578063f06c2dfc1461030d57610177565b8063ceae3abd146102b9578063d9d98ce4146102cc578063de02cde7146102df57610177565b8063ad82110f116100bd578063ad82110f1461028b578063ae93c1b51461029e578063bac7340c146102b157610177565b8063687f0e4c14610270578063a4f0d7d01461028357610177565b8063559742d91161012f5780635ba5e9f0116101145780635ba5e9f01461022a5780635cffe9de1461023d578063613255ab1461025057610177565b8063559742d9146102025780635909c12f1461021557610177565b8063159c03dd11610160578063159c03dd146101c557806338d52e0f146101da57806344faded0146101ef57610177565b806310ab94321461017c57806312e5ff77146101a5575b600080fd5b61018f61018a3660046112bd565b610320565b60405161019c9190611559565b60405180910390f35b6101b86101b3366004611134565b610333565b60405161019c919061170d565b6101d86101d3366004611451565b61037a565b005b6101e26103df565b60405161019c91906114b1565b6101d86101fd3660046112bd565b610403565b6101d86102103660046112a3565b610441565b61021d610480565b60405161019c9190611564565b61021d6102383660046112a3565b610485565b61018f61024b366004611337565b610498565b61026361025e366004611118565b610617565b60405161019c919061172a565b6101d861027e3660046112bd565b610661565b61021d610693565b6101d86102993660046111ab565b61069f565b6101d86102ac3660046112e8565b61076f565b6102636107a2565b6101b86102c7366004611134565b6107a8565b6102636102da366004611180565b6107e6565b6101d86102ed3660046112bd565b610842565b610263610875565b6101d86103083660046111ab565b61087b565b6101d861031b36600461131a565b61093e565b600061032c8383610a53565b9392505050565b600061034b6000356001600160e01b03191633610a53565b6103705760405162461bcd60e51b81526004016103679061169f565b60405180910390fd5b61032c8383610a88565b6103906000356001600160e01b03191633610a53565b6103ac5760405162461bcd60e51b81526004016103679061169f565b600281905560405181907ff68737d5e8496ca5e19cbdd129d7c94946f794b55f680f7df5a9893eb689044990600090a250565b7f000000000000000000000000000000000000000000000000000000000000000081565b8161041661041082610b06565b33610a53565b6104325760405162461bcd60e51b8152600401610367906115c3565b61043c8383610b28565b505050565b8061044e61041082610b06565b61046a5760405162461bcd60e51b8152600401610367906115c3565b61047c826001600160e01b0319610bb5565b5050565b600081565b600061049082610b06565b90505b919050565b60007f00000000000000000000000000000000000000000000000000000000000000006001600160a01b0316846001600160a01b0316146104eb5760405162461bcd60e51b8152600401610367906115fa565b60006104f684610c4f565b9050600061050b61050686610c85565b610c4f565b90506105178783610a88565b506040517f23e30c8b0000000000000000000000000000000000000000000000000000000081527f439148f0bbc682ca079e46d6e2c2f0c1e3b820f1a291b069d8882abf8cf18dd9906001600160a01b038916906323e30c8b906105879033908b90889088908c906004016114c5565b602060405180830381600087803b1580156105a157600080fd5b505af11580156105b5573d6000803e3d6000fd5b505050506040513d601f19601f820116820180604052508101906105d9919061128b565b146105f65760405162461bcd60e51b815260040161036790611631565b61060987610604838561178c565b610c9c565b506001979650505050505050565b60007f00000000000000000000000000000000000000000000000000000000000000006001600160a01b0316826001600160a01b031614610659576000610490565b505060015490565b6001600160a01b03811633146106895760405162461bcd60e51b815260040161036790611668565b61047c8282610b28565b6001600160e01b031981565b60005b825181101561043c576106f76104108483815181106106ea577f4e487b7100000000000000000000000000000000000000000000000000000000600052603260045260246000fd5b6020026020010151610b06565b6107135760405162461bcd60e51b8152600401610367906115c3565b61075d83828151811061074f577f4e487b7100000000000000000000000000000000000000000000000000000000600052603260045260246000fd5b602002602001015183610b28565b806107678161185c565b9150506106a2565b8161077c61041082610b06565b6107985760405162461bcd60e51b8152600401610367906115c3565b61043c8383610bb5565b60025481565b60006107c06000356001600160e01b03191633610a53565b6107dc5760405162461bcd60e51b81526004016103679061169f565b61032c8383610c9c565b60007f00000000000000000000000000000000000000000000000000000000000000006001600160a01b0316836001600160a01b0316146108395760405162461bcd60e51b8152600401610367906115fa565b61032c82610c85565b8161084f61041082610b06565b61086b5760405162461bcd60e51b8152600401610367906115c3565b61043c8383610dd6565b60015481565b60005b825181101561043c576108c66104108483815181106106ea577f4e487b7100000000000000000000000000000000000000000000000000000000600052603260045260246000fd5b6108e25760405162461bcd60e51b8152600401610367906115c3565b61092c83828151811061091e577f4e487b7100000000000000000000000000000000000000000000000000000000600052603260045260246000fd5b602002602001015183610dd6565b806109368161185c565b91505061087e565b6109546000356001600160e01b03191633610a53565b6109705760405162461bcd60e51b81526004016103679061169f565b7f00000000000000000000000000000000000000000000000000000000000000006001600160a01b0316826001600160a01b031614156109c25760405162461bcd60e51b8152600401610367906116d6565b61047c81836001600160a01b03166370a08231306040518263ffffffff1660e01b81526004016109f291906114b1565b60206040518083038186803b158015610a0a57600080fd5b505afa158015610a1e573d6000803e3d6000fd5b505050506040513d601f19601f82011682018060405250810190610a42919061128b565b6001600160a01b0385169190610e65565b6001600160e01b031982166000908152602081815260408083206001600160a01b038516845290915290205460ff1692915050565b6000807f00000000000000000000000000000000000000000000000000000000000000009050826fffffffffffffffffffffffffffffffff1660016000828254610ad29190611815565b90915550610afe90506001600160a01b038216856fffffffffffffffffffffffffffffffff8616610e65565b509092915050565b6001600160e01b03191660009081526020819052604090206001015460e01b90565b610b328282610a53565b1561047c576001600160e01b031982166000818152602081815260408083206001600160a01b038616808552925280832080547fffffffffffffffffffffffffffffffffffffffffffffffffffffffffffffff0016905551339391927f4ddc7b757e7bdd7254a9cd39452d307a52761bc824625c6a33104a075d8099e691a45050565b6001600160e01b03198116610bc983610b06565b6001600160e01b0319161461047c576001600160e01b031982811660008181526020819052604080822060010180547fffffffffffffffffffffffffffffffffffffffffffffffffffffffff000000001660e087901c17905551928416927fd348e2220a50b4500ec353f6e802d2f14dd1b5d6786148fd1bbcc570bf92d4739190a35050565b60006fffffffffffffffffffffffffffffffff821115610c815760405162461bcd60e51b81526004016103679061158c565b5090565b600061049060025483610f7990919063ffffffff16565b6001546040517f70a082310000000000000000000000000000000000000000000000000000000081526000917f000000000000000000000000000000000000000000000000000000000000000091839082906001600160a01b038516906370a0823190610d0d9030906004016114b1565b60206040518083038186803b158015610d2557600080fd5b505afa158015610d39573d6000803e3d6000fd5b505050506040513d601f19601f82011682018060405250810190610d5d919061128b565b610d679190611815565b9050610d856fffffffffffffffffffffffffffffffff8616836117c0565b6001556fffffffffffffffffffffffffffffffff8516811015610dcc57610dcc6001600160a01b03841687306fffffffffffffffffffffffffffffffff8916859003610f97565b5092949350505050565b610de08282610a53565b61047c576001600160e01b031982166000818152602081815260408083206001600160a01b038616808552925280832080547fffffffffffffffffffffffffffffffffffffffffffffffffffffffffffffff0016600117905551339391927fe6231789d19137da31d0550f4ba9ee379020a8cfb64cb79bf1790c996d2e616591a45050565b600080846001600160a01b031663a9059cbb60e01b8585604051602401610e8d929190611540565b60408051601f198184030181529181526020820180517bffffffffffffffffffffffffffffffffffffffffffffffffffffffff166001600160e01b0319909416939093179092529051610ee09190611495565b6000604051808303816000865af19150503d8060008114610f1d576040519150601f19603f3d011682016040523d82523d6000602084013e610f22565b606091505b5091509150818015610f4c575080511580610f4c575080806020019051810190610f4c919061126b565b610f7257610f5981611095565b60405162461bcd60e51b81526004016103679190611579565b5050505050565b6000610f8582846117d8565b670de0b6b3a764000090049392505050565b600080856001600160a01b03166323b872dd60e01b868686604051602401610fc19392919061151c565b60408051601f198184030181529181526020820180517bffffffffffffffffffffffffffffffffffffffffffffffffffffffff166001600160e01b03199094169390931790925290516110149190611495565b6000604051808303816000865af19150503d8060008114611051576040519150601f19603f3d011682016040523d82523d6000602084013e611056565b606091505b5091509150818015611080575080511580611080575080806020019051810190611080919061126b565b61108d57610f5981611095565b505050505050565b60606044825110156110db575060408051808201909152601d81527f5472616e73616374696f6e2072657665727465642073696c656e746c790000006020820152610493565b6004820191508180602001905181019061049091906113de565b8035610493816118f3565b80356001600160e01b03198116811461049357600080fd5b600060208284031215611129578081fd5b813561032c816118f3565b60008060408385031215611146578081fd5b8235611151816118f3565b915060208301356fffffffffffffffffffffffffffffffff81168114611175578182fd5b809150509250929050565b60008060408385031215611192578182fd5b823561119d816118f3565b946020939093013593505050565b600080604083850312156111bd578182fd5b823567ffffffffffffffff808211156111d4578384fd5b818501915085601f8301126111e7578384fd5b81356020828211156111fb576111fb6118c4565b808202925061120b818401611733565b8281528181019085830185870184018b1015611225578889fd5b8896505b8487101561124e5761123a81611100565b835260019690960195918301918301611229565b50965061125e90508782016110f5565b9450505050509250929050565b60006020828403121561127c578081fd5b8151801515811461032c578182fd5b60006020828403121561129c578081fd5b5051919050565b6000602082840312156112b4578081fd5b61032c82611100565b600080604083850312156112cf578182fd5b6112d883611100565b91506020830135611175816118f3565b600080604083850312156112fa578182fd5b61130383611100565b915061131160208401611100565b90509250929050565b6000806040838503121561132c578182fd5b82356112d8816118f3565b6000806000806080858703121561134c578182fd5b8435611357816118f3565b93506020850135611367816118f3565b925060408501359150606085013567ffffffffffffffff811115611389578182fd5b8501601f81018713611399578182fd5b80356113ac6113a782611764565b611733565b8181528860208385010111156113c0578384fd5b81602084016020830137908101602001929092525092959194509250565b6000602082840312156113ef578081fd5b815167ffffffffffffffff811115611405578182fd5b8201601f81018413611415578182fd5b80516114236113a782611764565b818152856020838501011115611437578384fd5b61144882602083016020860161182c565b95945050505050565b600060208284031215611462578081fd5b5035919050565b6000815180845261148181602086016020860161182c565b601f01601f19169290920160200192915050565b600082516114a781846020870161182c565b9190910192915050565b6001600160a01b0391909116815260200190565b6001600160a01b038681168252851660208201526fffffffffffffffffffffffffffffffff84811660408301528316606082015260a06080820181905260009061151190830184611469565b979650505050505050565b6001600160a01b039384168152919092166020820152604081019190915260600190565b6001600160a01b03929092168252602082015260400190565b901515815260200190565b6001600160e01b031991909116815260200190565b60006020825261032c6020830184611469565b6020808252600d908201527f43617374206f766572666c6f7700000000000000000000000000000000000000604082015260600190565b6020808252600a908201527f4f6e6c792061646d696e00000000000000000000000000000000000000000000604082015260600190565b60208082526014908201527f556e737570706f727465642063757272656e6379000000000000000000000000604082015260600190565b60208082526016908201527f4e6f6e2d636f6d706c69616e7420626f72726f77657200000000000000000000604082015260600190565b60208082526016908201527f52656e6f756e6365206f6e6c7920666f722073656c6600000000000000000000604082015260600190565b6020808252600d908201527f4163636573732064656e69656400000000000000000000000000000000000000604082015260600190565b60208082526012908201527f557365206578697420666f722061737365740000000000000000000000000000604082015260600190565b6fffffffffffffffffffffffffffffffff91909116815260200190565b90815260200190565b604051601f8201601f1916810167ffffffffffffffff8111828210171561175c5761175c6118c4565b604052919050565b600067ffffffffffffffff82111561177e5761177e6118c4565b50601f01601f191660200190565b60006fffffffffffffffffffffffffffffffff8083168185168083038211156117b7576117b7611895565b01949350505050565b600082198211156117d3576117d3611895565b500190565b6000817fffffffffffffffffffffffffffffffffffffffffffffffffffffffffffffffff048311821515161561181057611810611895565b500290565b60008282101561182757611827611895565b500390565b60005b8381101561184757818101518382015260200161182f565b83811115611856576000848401525b50505050565b60007fffffffffffffffffffffffffffffffffffffffffffffffffffffffffffffffff82141561188e5761188e611895565b5060010190565b7f4e487b7100000000000000000000000000000000000000000000000000000000600052601160045260246000fd5b7f4e487b7100000000000000000000000000000000000000000000000000000000600052604160045260246000fd5b6001600160a01b038116811461190857600080fd5b5056fea2646970667358221220f703b7f84fab87b49463aab4fb7bb79d05e9be85671c56dd37c074402e2c562064736f6c63430008010033",
  "linkReferences": {},
  "deployedLinkReferences": {}
}