{
  "_format": "hh-sol-artifact-1",
  "contractName": "AaveYield",
  "sourceName": "contracts/yield/AaveYield.sol",
  "abi": [
    {
      "anonymous": false,
      "inputs": [
        {
          "indexed": true,
          "internalType": "address",
          "name": "wethGateway",
          "type": "address"
        },
        {
          "indexed": true,
          "internalType": "address",
          "name": "protocolDataProvider",
          "type": "address"
        },
        {
          "indexed": true,
          "internalType": "address",
          "name": "lendingPoolAddressesProvider",
          "type": "address"
        }
      ],
      "name": "AaveAddressesUpdated",
      "type": "event"
    },
    {
      "anonymous": false,
      "inputs": [
        {
          "indexed": true,
          "internalType": "address",
          "name": "user",
          "type": "address"
        },
        {
          "indexed": true,
          "internalType": "address",
          "name": "investedTo",
          "type": "address"
        },
        {
          "indexed": false,
          "internalType": "uint256",
          "name": "lpTokensReceived",
          "type": "uint256"
        }
      ],
      "name": "LockedTokens",
      "type": "event"
    },
    {
      "anonymous": false,
      "inputs": [
        {
          "indexed": true,
          "internalType": "address",
          "name": "previousOwner",
          "type": "address"
        },
        {
          "indexed": true,
          "internalType": "address",
          "name": "newOwner",
          "type": "address"
        }
      ],
      "name": "OwnershipTransferred",
      "type": "event"
    },
    {
      "anonymous": false,
      "inputs": [
        {
          "indexed": false,
          "internalType": "uint16",
          "name": "referralCode",
          "type": "uint16"
        }
      ],
      "name": "ReferralCodeUpdated",
      "type": "event"
    },
    {
      "anonymous": false,
      "inputs": [
        {
          "indexed": true,
          "internalType": "address",
          "name": "savingsAccount",
          "type": "address"
        }
      ],
      "name": "SavingsAccountUpdated",
      "type": "event"
    },
    {
      "anonymous": false,
      "inputs": [
        {
          "indexed": true,
          "internalType": "address",
          "name": "asset",
          "type": "address"
        },
        {
          "indexed": false,
          "internalType": "uint256",
          "name": "sharesReleased",
          "type": "uint256"
        }
      ],
      "name": "UnlockedShares",
      "type": "event"
    },
    {
      "anonymous": false,
      "inputs": [
        {
          "indexed": true,
          "internalType": "address",
          "name": "investedTo",
          "type": "address"
        },
        {
          "indexed": false,
          "internalType": "uint256",
          "name": "collateralReceived",
          "type": "uint256"
        }
      ],
      "name": "UnlockedTokens",
      "type": "event"
    },
    {
      "inputs": [
        {
          "internalType": "address",
          "name": "_asset",
          "type": "address"
        },
        {
          "internalType": "address payable",
          "name": "_wallet",
          "type": "address"
        }
      ],
      "name": "emergencyWithdraw",
      "outputs": [
        {
          "internalType": "uint256",
          "name": "received",
          "type": "uint256"
        }
      ],
      "stateMutability": "nonpayable",
      "type": "function"
    },
    {
      "inputs": [
        {
          "internalType": "uint256",
          "name": "amount",
          "type": "uint256"
        },
        {
          "internalType": "address",
          "name": "asset",
          "type": "address"
        }
      ],
      "name": "getSharesForTokens",
      "outputs": [
        {
          "internalType": "uint256",
          "name": "shares",
          "type": "uint256"
        }
      ],
      "stateMutability": "view",
      "type": "function"
    },
    {
      "inputs": [
        {
          "internalType": "uint256",
          "name": "shares",
          "type": "uint256"
        },
        {
          "internalType": "address",
          "name": "asset",
          "type": "address"
        }
      ],
      "name": "getTokensForShares",
      "outputs": [
        {
          "internalType": "uint256",
          "name": "amount",
          "type": "uint256"
        }
      ],
      "stateMutability": "view",
      "type": "function"
    },
    {
      "inputs": [
        {
          "internalType": "address",
          "name": "_owner",
          "type": "address"
        },
        {
          "internalType": "address payable",
          "name": "_savingsAccount",
          "type": "address"
        },
        {
          "internalType": "address",
          "name": "_wethGateway",
          "type": "address"
        },
        {
          "internalType": "address",
          "name": "_protocolDataProvider",
          "type": "address"
        },
        {
          "internalType": "address",
          "name": "_lendingPoolAddressesProvider",
          "type": "address"
        }
      ],
      "name": "initialize",
      "outputs": [],
      "stateMutability": "nonpayable",
      "type": "function"
    },
    {
      "inputs": [],
      "name": "lendingPoolAddressesProvider",
      "outputs": [
        {
          "internalType": "address",
          "name": "",
          "type": "address"
        }
      ],
      "stateMutability": "view",
      "type": "function"
    },
    {
      "inputs": [
        {
          "internalType": "address",
          "name": "asset",
          "type": "address"
        }
      ],
      "name": "liquidityToken",
      "outputs": [
        {
          "internalType": "address",
          "name": "aToken",
          "type": "address"
        }
      ],
      "stateMutability": "view",
      "type": "function"
    },
    {
      "inputs": [
        {
          "internalType": "address",
          "name": "user",
          "type": "address"
        },
        {
          "internalType": "address",
          "name": "asset",
          "type": "address"
        },
        {
          "internalType": "uint256",
          "name": "amount",
          "type": "uint256"
        }
      ],
      "name": "lockTokens",
      "outputs": [
        {
          "internalType": "uint256",
          "name": "sharesReceived",
          "type": "uint256"
        }
      ],
      "stateMutability": "payable",
      "type": "function"
    },
    {
      "inputs": [],
      "name": "owner",
      "outputs": [
        {
          "internalType": "address",
          "name": "",
          "type": "address"
        }
      ],
      "stateMutability": "view",
      "type": "function"
    },
    {
      "inputs": [],
      "name": "protocolDataProvider",
      "outputs": [
        {
          "internalType": "address",
          "name": "",
          "type": "address"
        }
      ],
      "stateMutability": "view",
      "type": "function"
    },
    {
      "inputs": [],
      "name": "referralCode",
      "outputs": [
        {
          "internalType": "uint16",
          "name": "",
          "type": "uint16"
        }
      ],
      "stateMutability": "view",
      "type": "function"
    },
    {
      "inputs": [],
      "name": "renounceOwnership",
      "outputs": [],
      "stateMutability": "nonpayable",
      "type": "function"
    },
    {
      "inputs": [],
      "name": "savingsAccount",
      "outputs": [
        {
          "internalType": "address payable",
          "name": "",
          "type": "address"
        }
      ],
      "stateMutability": "view",
      "type": "function"
    },
    {
      "inputs": [
        {
          "internalType": "address",
          "name": "newOwner",
          "type": "address"
        }
      ],
      "name": "transferOwnership",
      "outputs": [],
      "stateMutability": "nonpayable",
      "type": "function"
    },
    {
      "inputs": [
        {
          "internalType": "address",
          "name": "asset",
          "type": "address"
        },
        {
          "internalType": "uint256",
          "name": "amount",
          "type": "uint256"
        }
      ],
      "name": "unlockShares",
      "outputs": [
        {
          "internalType": "uint256",
          "name": "",
          "type": "uint256"
        }
      ],
      "stateMutability": "nonpayable",
      "type": "function"
    },
    {
      "inputs": [
        {
          "internalType": "address",
          "name": "asset",
          "type": "address"
        },
        {
          "internalType": "uint256",
          "name": "amount",
          "type": "uint256"
        }
      ],
      "name": "unlockTokens",
      "outputs": [
        {
          "internalType": "uint256",
          "name": "received",
          "type": "uint256"
        }
      ],
      "stateMutability": "nonpayable",
      "type": "function"
    },
    {
      "inputs": [
        {
          "internalType": "address",
          "name": "_wethGateway",
          "type": "address"
        },
        {
          "internalType": "address",
          "name": "_protocolDataProvider",
          "type": "address"
        },
        {
          "internalType": "address",
          "name": "_lendingPoolAddressesProvider",
          "type": "address"
        }
      ],
      "name": "updateAaveAddresses",
      "outputs": [],
      "stateMutability": "nonpayable",
      "type": "function"
    },
    {
      "inputs": [
        {
          "internalType": "uint16",
          "name": "_referralCode",
          "type": "uint16"
        }
      ],
      "name": "updateReferralCode",
      "outputs": [],
      "stateMutability": "nonpayable",
      "type": "function"
    },
    {
      "inputs": [
        {
          "internalType": "address payable",
          "name": "_savingsAccount",
          "type": "address"
        }
      ],
      "name": "updateSavingsAccount",
      "outputs": [],
      "stateMutability": "nonpayable",
      "type": "function"
    },
    {
      "inputs": [],
      "name": "wethGateway",
      "outputs": [
        {
          "internalType": "address",
          "name": "",
          "type": "address"
        }
      ],
      "stateMutability": "view",
      "type": "function"
    },
    {
      "stateMutability": "payable",
      "type": "receive"
    }
  ],
  "bytecode": "0x608060405234801561001057600080fd5b50600160655561278a806100256000396000f3fe6080604052600436106101185760003560e01c806376467da0116100a0578063c5e10eef11610064578063c5e10eef146103e6578063d8b6d252146103fb578063ecced62314610427578063f2fde38b1461043c578063fdca23c11461046f5761011f565b806376467da0146103115780638da5cb5b1461034a578063934a52521461035f5780639d564d9a14610398578063bba00ba5146103d15761011f565b80634767ceee116100e75780634767ceee1461020d57806359846d29146102555780636382d9ad1461028e5780636cf14f9d146102c9578063715018a6146102fc5761011f565b8063059bd0e7146101245780631391abc7146101545780631459457a146101a35780633f843bce146101f85761011f565b3661011f57005b600080fd5b34801561013057600080fd5b506101526004803603602081101561014757600080fd5b503561ffff166104b4565b005b34801561016057600080fd5b506101876004803603602081101561017757600080fd5b50356001600160a01b031661056c565b604080516001600160a01b039092168252519081900360200190f35b3480156101af57600080fd5b50610152600480360360a08110156101c657600080fd5b506001600160a01b0381358116916020810135821691604082013581169160608101358216916080909101351661067e565b34801561020457600080fd5b5061018761074a565b6102436004803603606081101561022357600080fd5b506001600160a01b03813581169160208101359091169060400135610759565b60408051918252519081900360200190f35b34801561026157600080fd5b506102436004803603604081101561027857600080fd5b50803590602001356001600160a01b031661093c565b34801561029a57600080fd5b50610243600480360360408110156102b157600080fd5b506001600160a01b0381358116916020013516610aee565b3480156102d557600080fd5b50610152600480360360208110156102ec57600080fd5b50356001600160a01b0316610cfd565b34801561030857600080fd5b50610152610d6b565b34801561031d57600080fd5b506102436004803603604081101561033457600080fd5b506001600160a01b038135169060200135610e17565b34801561035657600080fd5b50610187610f89565b34801561036b57600080fd5b506102436004803603604081101561038257600080fd5b50803590602001356001600160a01b0316610f98565b3480156103a457600080fd5b50610243600480360360408110156103bb57600080fd5b506001600160a01b038135169060200135610fc8565b3480156103dd57600080fd5b506101876111f1565b3480156103f257600080fd5b50610187611200565b34801561040757600080fd5b5061041061120f565b6040805161ffff9092168252519081900360200190f35b34801561043357600080fd5b50610187611220565b34801561044857600080fd5b506101526004803603602081101561045f57600080fd5b50356001600160a01b031661122f565b34801561047b57600080fd5b506101526004803603606081101561049257600080fd5b506001600160a01b038135811691602081013582169160409091013516611332565b6104bc6113a4565b6001600160a01b03166104cd610f89565b6001600160a01b031614610516576040805162461bcd60e51b815260206004820181905260248201526000805160206126d8833981519152604482015290519081900360640190fd5b6069805461ffff8316600160a01b810261ffff60a01b199092169190911790915560408051918252517f77a153268fbc4c134d6d1f2831e1a064dc48940bed508d85003e91807dd1a71b9181900360200190a150565b60006001600160a01b0382166105fd57606660009054906101000a90046001600160a01b03166001600160a01b0316633a21afac6040518163ffffffff1660e01b815260040160206040518083038186803b1580156105ca57600080fd5b505afa1580156105de573d6000803e3d6000fd5b505050506040513d60208110156105f457600080fd5b50519050610679565b606754604080516334924edb60e21b81526001600160a01b0385811660048301529151919092169163d2493b6c916024808301926060929190829003018186803b15801561064a57600080fd5b505afa15801561065e573d6000803e3d6000fd5b505050506040513d606081101561067457600080fd5b505190505b919050565b600054610100900460ff168061069757506106976113a8565b806106a5575060005460ff16155b6106e05760405162461bcd60e51b815260040180806020018281038252602e815260200180612689602e913960400191505060405180910390fd5b600054610100900460ff1615801561070b576000805460ff1961ff0019909116610100171660011790555b6107136113b9565b61071c8661122f565b6107258561146a565b610730848484611506565b8015610742576000805461ff00191690555b505050505050565b6067546001600160a01b031681565b6069546000906001600160a01b03166107706113a4565b6001600160a01b0316146107b55760405162461bcd60e51b815260040180806020018281038252602781526020018061263c6027913960400191505060405180910390fd5b6002606554141561080d576040805162461bcd60e51b815260206004820152601f60248201527f5265656e7472616e637947756172643a207265656e7472616e742063616c6c00604482015290519081900360640190fd5b600260655581610855576040805162461bcd60e51b815260206004820152600e60248201526d125b9d995cdd0e88185b5bdd5b9d60921b604482015290519081900360640190fd5b60006001600160a01b0384166108c0578234146108ae576040805162461bcd60e51b8152602060048201526012602482015271125b9d995cdd0e8811551208185b5bdd5b9d60721b604482015290519081900360640190fd5b6108b783611643565b925090506108e4565b6108d56001600160a01b0385168630866118bf565b6108df848461191f565b925090505b806001600160a01b0316856001600160a01b03167f71538b5e30c18b86003771476b5887a8f118d796b2a4a2a5960e0ac1b10962d3846040518082815260200191505060405180910390a35060016065559392505050565b60008261094b57506000610ae8565b60006109568361056c565b606754604080516335ea6a7560e01b81526001600160a01b038781166004830152915193945060009391909216916335ea6a7591602480830192610140929190829003018186803b1580156109aa57600080fd5b505afa1580156109be573d6000803e3d6000fd5b505050506040513d6101408110156109d557600080fd5b5060e00151604080516370a0823160e01b81523060048201529051919250610ae3916001600160a01b038516916370a08231916024808301926020929190829003018186803b158015610a2757600080fd5b505afa158015610a3b573d6000803e3d6000fd5b505050506040513d6020811015610a5157600080fd5b505160408051630ed1279f60e11b81523060048201529051610add918991610ad79187916001600160a01b038a1691631da24f3e916024808301926020929190829003018186803b158015610aa557600080fd5b505afa158015610ab9573d6000803e3d6000fd5b505050506040513d6020811015610acf57600080fd5b505190611c02565b90611c02565b90611c5b565b925050505b92915050565b6000610af86113a4565b6001600160a01b0316610b09610f89565b6001600160a01b031614610b52576040805162461bcd60e51b815260206004820181905260248201526000805160206126d8833981519152604482015290519081900360640190fd5b6001600160a01b038216610b99576040805162461bcd60e51b815260206004820152600960248201526831b0b73a10313ab93760b91b604482015290519081900360640190fd5b6000610ba48461056c565b6001600160a01b03166370a08231306040518263ffffffff1660e01b815260040180826001600160a01b0316815260200191505060206040518083038186803b158015610bf057600080fd5b505afa158015610c04573d6000803e3d6000fd5b505050506040513d6020811015610c1a57600080fd5b505190506001600160a01b038416610cd657610c3581611cc2565b6040519092506000906001600160a01b0385169084908381818185875af1925050503d8060008114610c83576040519150601f19603f3d011682016040523d82523d6000602084013e610c88565b606091505b5050905080610cd0576040805162461bcd60e51b815260206004820152600f60248201526e151c985b9cd9995c8819985a5b1959608a1b604482015290519081900360640190fd5b50610cf6565b610ce08482611e32565b9150610cf66001600160a01b0385168484612091565b5092915050565b610d056113a4565b6001600160a01b0316610d16610f89565b6001600160a01b031614610d5f576040805162461bcd60e51b815260206004820181905260248201526000805160206126d8833981519152604482015290519081900360640190fd5b610d688161146a565b50565b610d736113a4565b6001600160a01b0316610d84610f89565b6001600160a01b031614610dcd576040805162461bcd60e51b815260206004820181905260248201526000805160206126d8833981519152604482015290519081900360640190fd5b6033546040516000916001600160a01b0316907f8be0079c531659141344cd1fd0a4f28419497f9722a3daafe3b4186f6b6457e0908390a3603380546001600160a01b0319169055565b6069546000906001600160a01b0316610e2e6113a4565b6001600160a01b031614610e735760405162461bcd60e51b815260040180806020018281038252602781526020018061263c6027913960400191505060405180910390fd5b60026065541415610ecb576040805162461bcd60e51b815260206004820152601f60248201527f5265656e7472616e637947756172643a207265656e7472616e742063616c6c00604482015290519081900360640190fd5b600260655581610edd57506000610f7e565b6001600160a01b038316610f225760405162461bcd60e51b81526004018080602001828103825260228152602001806125cd6022913960400191505060405180910390fd5b606954610f3c906001600160a01b03858116911684612091565b6040805183815290516001600160a01b038516917f176b3c3d1f486b4519305078c763e6ca126c940ea1a8a024bdb0316c08ad6ede919081900360200190a250805b600160655592915050565b6033546001600160a01b031690565b6000610fc1610faf670de0b6b3a76400008461093c565b610add85670de0b6b3a7640000611c02565b9392505050565b6069546000906001600160a01b0316610fdf6113a4565b6001600160a01b0316146110245760405162461bcd60e51b815260040180806020018281038252602781526020018061263c6027913960400191505060405180910390fd5b6002606554141561107c576040805162461bcd60e51b815260206004820152601f60248201527f5265656e7472616e637947756172643a207265656e7472616e742063616c6c00604482015290519081900360640190fd5b6002606555816110c4576040805162461bcd60e51b815260206004820152600e60248201526d125b9d995cdd0e88185b5bdd5b9d60921b604482015290519081900360640190fd5b6001600160a01b038316611180576110db82611cc2565b6069546040519192506000916001600160a01b039091169083908381818185875af1925050503d806000811461112d576040519150601f19603f3d011682016040523d82523d6000602084013e611132565b606091505b505090508061117a576040805162461bcd60e51b815260206004820152600f60248201526e151c985b9cd9995c8819985a5b1959608a1b604482015290519081900360640190fd5b506111a7565b61118a8383611e32565b6069549091506111a7906001600160a01b03858116911683612091565b6040805182815290516001600160a01b038516917faf08a4db36432bb5cbbfdfcf5af1040246483dc0dae8a9616cc79816c432fee9919081900360200190a2600160655592915050565b6068546001600160a01b031681565b6066546001600160a01b031681565b606954600160a01b900461ffff1681565b6069546001600160a01b031681565b6112376113a4565b6001600160a01b0316611248610f89565b6001600160a01b031614611291576040805162461bcd60e51b815260206004820181905260248201526000805160206126d8833981519152604482015290519081900360640190fd5b6001600160a01b0381166112d65760405162461bcd60e51b81526004018080602001828103825260268152602001806125a76026913960400191505060405180910390fd5b6033546040516001600160a01b038084169216907f8be0079c531659141344cd1fd0a4f28419497f9722a3daafe3b4186f6b6457e090600090a3603380546001600160a01b0319166001600160a01b0392909216919091179055565b61133a6113a4565b6001600160a01b031661134b610f89565b6001600160a01b031614611394576040805162461bcd60e51b815260206004820181905260248201526000805160206126d8833981519152604482015290519081900360640190fd5b61139f838383611506565b505050565b3390565b60006113b3306120e3565b15905090565b600054610100900460ff16806113d257506113d26113a8565b806113e0575060005460ff16155b61141b5760405162461bcd60e51b815260040180806020018281038252602e815260200180612689602e913960400191505060405180910390fd5b600054610100900460ff16158015611446576000805460ff1961ff0019909116610100171660011790555b61144e6120e9565b611456612189565b8015610d68576000805461ff001916905550565b6001600160a01b0381166114bc576040805162461bcd60e51b8152602060048201526014602482015273496e766573743a207a65726f206164647265737360601b604482015290519081900360640190fd5b606980546001600160a01b0319166001600160a01b0383169081179091556040517f5e8a3d56d9512a62f643367551a65727148c2516dce6b54956df80926dd2536c90600090a250565b6001600160a01b03831661154b5760405162461bcd60e51b81526004018080602001828103825260228152602001806125ef6022913960400191505060405180910390fd5b6001600160a01b0382166115905760405162461bcd60e51b815260040180806020018281038252602b815260200180612611602b913960400191505060405180910390fd5b6001600160a01b0381166115d55760405162461bcd60e51b81526004018080602001828103825260338152602001806126f86033913960400191505060405180910390fd5b606680546001600160a01b03199081166001600160a01b03868116918217909355606780548316868516908117909155606880549093169385169384179092556040517f631caf2ea9ca49340df006534030eafad41e0617f47a9f433bff0c6d53bddb3a90600090a4505050565b600080606660009054906101000a90046001600160a01b03166001600160a01b0316633a21afac6040518163ffffffff1660e01b815260040160206040518083038186803b15801561169457600080fd5b505afa1580156116a8573d6000803e3d6000fd5b505050506040513d60208110156116be57600080fd5b5051604080516370a0823160e01b815230600482015290519193506000916001600160a01b038516916370a08231916024808301926020929190829003018186803b15801561170c57600080fd5b505afa158015611720573d6000803e3d6000fd5b505050506040513d602081101561173657600080fd5b505160685460408051630261bf8b60e01b815290519293506000926001600160a01b0390921691630261bf8b91600480820192602092909190829003018186803b15801561178357600080fd5b505afa158015611797573d6000803e3d6000fd5b505050506040513d60208110156117ad57600080fd5b50516066546069546040805163474cf53d60e01b81526001600160a01b038086166004830152306024830152600160a01b90930461ffff166044820152905193945091169163474cf53d918891606480830192600092919082900301818588803b15801561181a57600080fd5b505af115801561182e573d6000803e3d6000fd5b50505050506118b682856001600160a01b03166370a08231306040518263ffffffff1660e01b815260040180826001600160a01b0316815260200191505060206040518083038186803b15801561188457600080fd5b505afa158015611898573d6000803e3d6000fd5b505050506040513d60208110156118ae57600080fd5b505190612282565b92505050915091565b604080516001600160a01b0380861660248301528416604482015260648082018490528251808303909101815260849091019091526020810180516001600160e01b03166323b872dd60e01b1790526119199085906122df565b50505050565b60008061192b8461056c565b91506000826001600160a01b03166370a08231306040518263ffffffff1660e01b815260040180826001600160a01b0316815260200191505060206040518083038186803b15801561197c57600080fd5b505afa158015611990573d6000803e3d6000fd5b505050506040513d60208110156119a657600080fd5b505160685460408051630261bf8b60e01b815290519293506000926001600160a01b0390921691630261bf8b91600480820192602092909190829003018186803b1580156119f357600080fd5b505afa158015611a07573d6000803e3d6000fd5b505050506040513d6020811015611a1d57600080fd5b50516040805163095ea7b360e01b81526001600160a01b038084166004830152600060248301819052925193945089169263095ea7b392604480840193602093929083900390910190829087803b158015611a7757600080fd5b505af1158015611a8b573d6000803e3d6000fd5b505050506040513d6020811015611aa157600080fd5b50506040805163095ea7b360e01b81526001600160a01b0383811660048301526024820188905291519188169163095ea7b3916044808201926020929091908290030181600087803b158015611af657600080fd5b505af1158015611b0a573d6000803e3d6000fd5b505050506040513d6020811015611b2057600080fd5b50506069546040805163e8eda9df60e01b81526001600160a01b03898116600483015260248201899052306044830152600160a01b90930461ffff16606482015290519183169163e8eda9df9160848082019260009290919082900301818387803b158015611b8e57600080fd5b505af1158015611ba2573d6000803e3d6000fd5b50505050611bf782856001600160a01b03166370a08231306040518263ffffffff1660e01b815260040180826001600160a01b0316815260200191505060206040518083038186803b15801561188457600080fd5b925050509250929050565b600082611c1157506000610ae8565b82820282848281611c1e57fe5b0414610fc15760405162461bcd60e51b81526004018080602001828103825260218152602001806126b76021913960400191505060405180910390fd5b6000808211611cb1576040805162461bcd60e51b815260206004820152601a60248201527f536166654d6174683a206469766973696f6e206279207a65726f000000000000604482015290519081900360640190fd5b818381611cba57fe5b049392505050565b60665460408051630e886beb60e21b815290516000926001600160a01b031691633a21afac916004808301926020929190829003018186803b158015611d0757600080fd5b505afa158015611d1b573d6000803e3d6000fd5b505050506040513d6020811015611d3157600080fd5b50516066546040805163095ea7b360e01b81526001600160a01b039283166004820152602481018690529051919092169163095ea7b39160448083019260209291908290030181600087803b158015611d8957600080fd5b505af1158015611d9d573d6000803e3d6000fd5b505050506040513d6020811015611db357600080fd5b505060665460408051631b08c5a960e11b815260048101859052306024820152905147926001600160a01b0316916336118b5291604480830192600092919082900301818387803b158015611e0757600080fd5b505af1158015611e1b573d6000803e3d6000fd5b50505050610fc1814761228290919063ffffffff16565b600080611e3e8461056c565b90506000606860009054906101000a90046001600160a01b03166001600160a01b0316630261bf8b6040518163ffffffff1660e01b815260040160206040518083038186803b158015611e9057600080fd5b505afa158015611ea4573d6000803e3d6000fd5b505050506040513d6020811015611eba57600080fd5b5051604080516370a0823160e01b815230600482015290519192506000916001600160a01b038816916370a08231916024808301926020929190829003018186803b158015611f0857600080fd5b505afa158015611f1c573d6000803e3d6000fd5b505050506040513d6020811015611f3257600080fd5b50516040805163095ea7b360e01b81526001600160a01b0385811660048301526024820189905291519293509085169163095ea7b3916044808201926020929091908290030181600087803b158015611f8a57600080fd5b505af1158015611f9e573d6000803e3d6000fd5b505050506040513d6020811015611fb457600080fd5b505060408051631a4ca37b60e21b81526001600160a01b038881166004830152602482018890523060448301529151918416916369328dec916064808201926020929091908290030181600087803b15801561200f57600080fd5b505af1158015612023573d6000803e3d6000fd5b505050506040513d602081101561203957600080fd5b5050604080516370a0823160e01b815230600482015290516120879183916001600160a01b038a16916370a08231916024808301926020929190829003018186803b15801561188457600080fd5b9695505050505050565b604080516001600160a01b038416602482015260448082018490528251808303909101815260649091019091526020810180516001600160e01b031663a9059cbb60e01b17905261139f9084906122df565b3b151590565b600054610100900460ff168061210257506121026113a8565b80612110575060005460ff16155b61214b5760405162461bcd60e51b815260040180806020018281038252602e815260200180612689602e913960400191505060405180910390fd5b600054610100900460ff16158015611456576000805460ff1961ff0019909116610100171660011790558015610d68576000805461ff001916905550565b600054610100900460ff16806121a257506121a26113a8565b806121b0575060005460ff16155b6121eb5760405162461bcd60e51b815260040180806020018281038252602e815260200180612689602e913960400191505060405180910390fd5b600054610100900460ff16158015612216576000805460ff1961ff0019909116610100171660011790555b60006122206113a4565b603380546001600160a01b0319166001600160a01b038316908117909155604051919250906000907f8be0079c531659141344cd1fd0a4f28419497f9722a3daafe3b4186f6b6457e0908290a3508015610d68576000805461ff001916905550565b6000828211156122d9576040805162461bcd60e51b815260206004820152601e60248201527f536166654d6174683a207375627472616374696f6e206f766572666c6f770000604482015290519081900360640190fd5b50900390565b6000612334826040518060400160405280602081526020017f5361666545524332303a206c6f772d6c6576656c2063616c6c206661696c6564815250856001600160a01b03166123909092919063ffffffff16565b80519091501561139f5780806020019051602081101561235357600080fd5b505161139f5760405162461bcd60e51b815260040180806020018281038252602a81526020018061272b602a913960400191505060405180910390fd5b606061239f84846000856123a7565b949350505050565b6060824710156123e85760405162461bcd60e51b81526004018080602001828103825260268152602001806126636026913960400191505060405180910390fd5b6123f1856120e3565b612442576040805162461bcd60e51b815260206004820152601d60248201527f416464726573733a2063616c6c20746f206e6f6e2d636f6e7472616374000000604482015290519081900360640190fd5b600080866001600160a01b031685876040518082805190602001908083835b602083106124805780518252601f199092019160209182019101612461565b6001836020036101000a03801982511681845116808217855250505050505090500191505060006040518083038185875af1925050503d80600081146124e2576040519150601f19603f3d011682016040523d82523d6000602084013e6124e7565b606091505b50915091506124f7828286612502565b979650505050505050565b60608315612511575081610fc1565b8251156125215782518084602001fd5b8160405162461bcd60e51b81526004018080602001828103825283818151815260200191508051906020019080838360005b8381101561256b578181015183820152602001612553565b50505050905090810190601f1680156125985780820380516001836020036101000a031916815260200191505b509250505060405180910390fdfe4f776e61626c653a206e6577206f776e657220697320746865207a65726f2061646472657373417373657420616464726573732063616e6e6f742062652061646472657373283029496e766573743a2057455448476174657761793a3a207a65726f2061646472657373496e766573743a2070726f746f636f6c4461746150726f76696465723a3a207a65726f2061646472657373496e766573743a204f6e6c7920736176696e6773206163636f756e742063616e20696e766f6b65416464726573733a20696e73756666696369656e742062616c616e636520666f722063616c6c496e697469616c697a61626c653a20636f6e747261637420697320616c726561647920696e697469616c697a6564536166654d6174683a206d756c7469706c69636174696f6e206f766572666c6f774f776e61626c653a2063616c6c6572206973206e6f7420746865206f776e6572496e766573743a206c656e64696e67506f6f6c41646472657373657350726f76696465723a3a207a65726f20616464726573735361666545524332303a204552433230206f7065726174696f6e20646964206e6f742073756363656564a2646970667358221220b0b78152e7e6d571f9e680d80571237ef19c0e48c197f82b4897a9ca99788baf64736f6c63430007060033",
  "linkReferences": {},
  "deployedLinkReferences": {}
}