{
  "_format": "hh-sol-artifact-1",
  "contractName": "Transmuter",
  "sourceName": "contracts/v3/alchemix/Transmuter.sol",
  "abi": [
    {
      "inputs": [
        {
          "internalType": "address",
          "name": "_AlToken",
          "type": "address"
        },
        {
          "internalType": "address",
          "name": "_Token",
          "type": "address"
        },
        {
          "internalType": "address",
          "name": "_governance",
          "type": "address"
        }
      ],
      "stateMutability": "nonpayable",
      "type": "constructor"
    },
    {
      "anonymous": false,
      "inputs": [
        {
          "indexed": false,
          "internalType": "address",
          "name": "governance",
          "type": "address"
        }
      ],
      "name": "GovernanceUpdated",
      "type": "event"
    },
    {
      "anonymous": false,
      "inputs": [
        {
          "indexed": false,
          "internalType": "address",
          "name": "pendingGovernance",
          "type": "address"
        }
      ],
      "name": "PendingGovernanceUpdated",
      "type": "event"
    },
    {
      "anonymous": false,
      "inputs": [
        {
          "indexed": false,
          "internalType": "uint256",
          "name": "newTransmutationPeriod",
          "type": "uint256"
        }
      ],
      "name": "TransmuterPeriodUpdated",
      "type": "event"
    },
    {
      "inputs": [],
      "name": "AlToken",
      "outputs": [
        {
          "internalType": "address",
          "name": "",
          "type": "address"
        }
      ],
      "stateMutability": "view",
      "type": "function"
    },
    {
      "inputs": [],
      "name": "TRANSMUTATION_PERIOD",
      "outputs": [
        {
          "internalType": "uint256",
          "name": "",
          "type": "uint256"
        }
      ],
      "stateMutability": "view",
      "type": "function"
    },
    {
      "inputs": [],
      "name": "Token",
      "outputs": [
        {
          "internalType": "address",
          "name": "",
          "type": "address"
        }
      ],
      "stateMutability": "view",
      "type": "function"
    },
    {
      "inputs": [],
      "name": "ZERO_ADDRESS",
      "outputs": [
        {
          "internalType": "address",
          "name": "",
          "type": "address"
        }
      ],
      "stateMutability": "view",
      "type": "function"
    },
    {
      "inputs": [],
      "name": "acceptGovernance",
      "outputs": [],
      "stateMutability": "nonpayable",
      "type": "function"
    },
    {
      "inputs": [],
      "name": "buffer",
      "outputs": [
        {
          "internalType": "uint256",
          "name": "",
          "type": "uint256"
        }
      ],
      "stateMutability": "view",
      "type": "function"
    },
    {
      "inputs": [],
      "name": "bufferInfo",
      "outputs": [
        {
          "internalType": "uint256",
          "name": "_toDistribute",
          "type": "uint256"
        },
        {
          "internalType": "uint256",
          "name": "_deltaBlocks",
          "type": "uint256"
        },
        {
          "internalType": "uint256",
          "name": "_buffer",
          "type": "uint256"
        }
      ],
      "stateMutability": "view",
      "type": "function"
    },
    {
      "inputs": [],
      "name": "claim",
      "outputs": [],
      "stateMutability": "nonpayable",
      "type": "function"
    },
    {
      "inputs": [
        {
          "internalType": "address",
          "name": "",
          "type": "address"
        }
      ],
      "name": "depositedAlTokens",
      "outputs": [
        {
          "internalType": "uint256",
          "name": "",
          "type": "uint256"
        }
      ],
      "stateMutability": "view",
      "type": "function"
    },
    {
      "inputs": [
        {
          "internalType": "address",
          "name": "origin",
          "type": "address"
        },
        {
          "internalType": "uint256",
          "name": "amount",
          "type": "uint256"
        }
      ],
      "name": "distribute",
      "outputs": [],
      "stateMutability": "nonpayable",
      "type": "function"
    },
    {
      "inputs": [
        {
          "internalType": "address",
          "name": "account",
          "type": "address"
        }
      ],
      "name": "dividendsOwing",
      "outputs": [
        {
          "internalType": "uint256",
          "name": "",
          "type": "uint256"
        }
      ],
      "stateMutability": "view",
      "type": "function"
    },
    {
      "inputs": [],
      "name": "exit",
      "outputs": [],
      "stateMutability": "nonpayable",
      "type": "function"
    },
    {
      "inputs": [
        {
          "internalType": "address",
          "name": "toTransmute",
          "type": "address"
        }
      ],
      "name": "forceTransmute",
      "outputs": [],
      "stateMutability": "nonpayable",
      "type": "function"
    },
    {
      "inputs": [
        {
          "internalType": "uint256",
          "name": "from",
          "type": "uint256"
        },
        {
          "internalType": "uint256",
          "name": "to",
          "type": "uint256"
        }
      ],
      "name": "getMultipleUserInfo",
      "outputs": [
        {
          "internalType": "address[]",
          "name": "theUserList",
          "type": "address[]"
        },
        {
          "internalType": "uint256[]",
          "name": "theUserData",
          "type": "uint256[]"
        }
      ],
      "stateMutability": "view",
      "type": "function"
    },
    {
      "inputs": [],
      "name": "governance",
      "outputs": [
        {
          "internalType": "address",
          "name": "",
          "type": "address"
        }
      ],
      "stateMutability": "view",
      "type": "function"
    },
    {
      "inputs": [],
      "name": "lastDepositBlock",
      "outputs": [
        {
          "internalType": "uint256",
          "name": "",
          "type": "uint256"
        }
      ],
      "stateMutability": "view",
      "type": "function"
    },
    {
      "inputs": [
        {
          "internalType": "address",
          "name": "",
          "type": "address"
        }
      ],
      "name": "lastDividendPoints",
      "outputs": [
        {
          "internalType": "uint256",
          "name": "",
          "type": "uint256"
        }
      ],
      "stateMutability": "view",
      "type": "function"
    },
    {
      "inputs": [],
      "name": "nextUser",
      "outputs": [
        {
          "internalType": "uint256",
          "name": "",
          "type": "uint256"
        }
      ],
      "stateMutability": "view",
      "type": "function"
    },
    {
      "inputs": [],
      "name": "pendingGovernance",
      "outputs": [
        {
          "internalType": "address",
          "name": "",
          "type": "address"
        }
      ],
      "stateMutability": "view",
      "type": "function"
    },
    {
      "inputs": [],
      "name": "pointMultiplier",
      "outputs": [
        {
          "internalType": "uint256",
          "name": "",
          "type": "uint256"
        }
      ],
      "stateMutability": "view",
      "type": "function"
    },
    {
      "inputs": [
        {
          "internalType": "address",
          "name": "",
          "type": "address"
        }
      ],
      "name": "realisedTokens",
      "outputs": [
        {
          "internalType": "uint256",
          "name": "",
          "type": "uint256"
        }
      ],
      "stateMutability": "view",
      "type": "function"
    },
    {
      "inputs": [
        {
          "internalType": "address",
          "name": "_pendingGovernance",
          "type": "address"
        }
      ],
      "name": "setPendingGovernance",
      "outputs": [],
      "stateMutability": "nonpayable",
      "type": "function"
    },
    {
      "inputs": [
        {
          "internalType": "uint256",
          "name": "newTransmutationPeriod",
          "type": "uint256"
        }
      ],
      "name": "setTransmutationPeriod",
      "outputs": [],
      "stateMutability": "nonpayable",
      "type": "function"
    },
    {
      "inputs": [
        {
          "internalType": "address",
          "name": "_toWhitelist",
          "type": "address"
        },
        {
          "internalType": "bool",
          "name": "_state",
          "type": "bool"
        }
      ],
      "name": "setWhitelist",
      "outputs": [],
      "stateMutability": "nonpayable",
      "type": "function"
    },
    {
      "inputs": [
        {
          "internalType": "uint256",
          "name": "amount",
          "type": "uint256"
        }
      ],
      "name": "stake",
      "outputs": [],
      "stateMutability": "nonpayable",
      "type": "function"
    },
    {
      "inputs": [
        {
          "internalType": "address",
          "name": "",
          "type": "address"
        }
      ],
      "name": "tokensInBucket",
      "outputs": [
        {
          "internalType": "uint256",
          "name": "",
          "type": "uint256"
        }
      ],
      "stateMutability": "view",
      "type": "function"
    },
    {
      "inputs": [],
      "name": "totalDividendPoints",
      "outputs": [
        {
          "internalType": "uint256",
          "name": "",
          "type": "uint256"
        }
      ],
      "stateMutability": "view",
      "type": "function"
    },
    {
      "inputs": [],
      "name": "totalSupplyAltokens",
      "outputs": [
        {
          "internalType": "uint256",
          "name": "",
          "type": "uint256"
        }
      ],
      "stateMutability": "view",
      "type": "function"
    },
    {
      "inputs": [],
      "name": "transmute",
      "outputs": [],
      "stateMutability": "nonpayable",
      "type": "function"
    },
    {
      "inputs": [],
      "name": "transmuteAndClaim",
      "outputs": [],
      "stateMutability": "nonpayable",
      "type": "function"
    },
    {
      "inputs": [],
      "name": "transmuteClaimAndWithdraw",
      "outputs": [],
      "stateMutability": "nonpayable",
      "type": "function"
    },
    {
      "inputs": [],
      "name": "unclaimedDividends",
      "outputs": [
        {
          "internalType": "uint256",
          "name": "",
          "type": "uint256"
        }
      ],
      "stateMutability": "view",
      "type": "function"
    },
    {
      "inputs": [
        {
          "internalType": "uint256",
          "name": "amount",
          "type": "uint256"
        }
      ],
      "name": "unstake",
      "outputs": [],
      "stateMutability": "nonpayable",
      "type": "function"
    },
    {
      "inputs": [
        {
          "internalType": "address",
          "name": "user",
          "type": "address"
        }
      ],
      "name": "userInfo",
      "outputs": [
        {
          "internalType": "uint256",
          "name": "depositedAl",
          "type": "uint256"
        },
        {
          "internalType": "uint256",
          "name": "pendingdivs",
          "type": "uint256"
        },
        {
          "internalType": "uint256",
          "name": "inbucket",
          "type": "uint256"
        },
        {
          "internalType": "uint256",
          "name": "realised",
          "type": "uint256"
        }
      ],
      "stateMutability": "view",
      "type": "function"
    },
    {
      "inputs": [
        {
          "internalType": "address",
          "name": "",
          "type": "address"
        }
      ],
      "name": "userIsKnown",
      "outputs": [
        {
          "internalType": "bool",
          "name": "",
          "type": "bool"
        }
      ],
      "stateMutability": "view",
      "type": "function"
    },
    {
      "inputs": [
        {
          "internalType": "uint256",
          "name": "",
          "type": "uint256"
        }
      ],
      "name": "userList",
      "outputs": [
        {
          "internalType": "address",
          "name": "",
          "type": "address"
        }
      ],
      "stateMutability": "view",
      "type": "function"
    },
    {
      "inputs": [
        {
          "internalType": "address",
          "name": "",
          "type": "address"
        }
      ],
      "name": "whiteList",
      "outputs": [
        {
          "internalType": "bool",
          "name": "",
          "type": "bool"
        }
      ],
      "stateMutability": "view",
      "type": "function"
    }
  ],
  "bytecode": "0x6080604052678ac7230489e80000600d553480156200001d57600080fd5b5060405162001fc838038062001fc88339810160408190526200004091620000b8565b6001600160a01b038116620000725760405162461bcd60e51b815260040162000069906200010b565b60405180910390fd5b601180546001600160a01b03199081166001600160a01b03938416179091556001805482169483169490941790935560028054909316911617905560326000556200014f565b600080600060608486031215620000cd578283fd5b8351620000da8162000136565b6020850151909350620000ed8162000136565b6040850151909250620001008162000136565b809150509250925092565b6020808252601190820152702a3930b739b6baba32b91d10181033b7bb60791b604082015260600190565b6001600160a01b03811681146200014c57600080fd5b50565b611e69806200015f6000396000f3fe608060405234801561001057600080fd5b50600436106102275760003560e01c8063658b98a911610130578063bc0bc215116100b8578063edaafe201161007c578063edaafe2014610430578063f1f7920014610438578063f39c38a014610440578063f93f394c14610448578063fb9321081461045b57610227565b8063bc0bc215146103fd578063bff170b914610405578063c241267614610418578063e044205e14610420578063e9fad8ee1461042857610227565b80639f4216e8116100ff5780639f4216e8146103a9578063a02fbe2d146103bc578063a196cf2e146103cf578063a694fc3a146103d7578063b870d598146103ea57610227565b8063658b98a91461036857806379070a1214610370578063806985f7146103835780638391e45c1461039657610227565b80632e17de78116101b35780634e71d92d116101825780634e71d92d1461031d5780635271000714610325578063538ba4f91461033857806353d6fd591461034d5780635aa6e6751461036057610227565b80632e17de78146102da578063372c12b1146102ed5780633cb802b91461030d5780634bf04bd11461031557610227565b80631959a002116101fa5780631959a002146102975780632113342d146102ba578063238efcbc146102c25780632a03cf68146102ca5780632a3d7c81146102d257610227565b806301f50c861461022c578063030362901461024a57806305d2301d1461026b5780630abb603514610282575b600080fd5b61023461046e565b6040516102419190611dbf565b60405180910390f35b61025d610258366004611993565b610474565b604051610241929190611a36565b61027361069b565b60405161024193929190611dc8565b6102956102903660046118e3565b6106d5565b005b6102aa6102a53660046118e3565b610784565b6040516102419493929190611dde565b610234610869565b61029561086f565b6102956108ea565b6102346108fc565b6102956102e836600461197b565b610902565b6103006102fb3660046118e3565b610a1a565b6040516102419190611ac4565b610234610a2f565b610234610a35565b610295610a3b565b6102346103333660046118e3565b610a87565b610340610a99565b60405161024191906119e5565b61029561035b3660046118fe565b610a9e565b610340610af3565b610234610b02565b61030061037e3660046118e3565b610b08565b6102346103913660046118e3565b610b1d565b6102346103a43660046118e3565b610b2f565b6103406103b736600461197b565b610b8b565b6102956103ca36600461197b565b610ba6565b610234610c05565b6102956103e536600461197b565b610c0b565b6102346103f83660046118e3565b610dcd565b610340610ddf565b6102956104133660046118e3565b610dee565b61034061111a565b610295611129565b610295611155565b61023461115d565b610295611163565b6103406113f8565b6102346104563660046118e3565b611407565b610295610469366004611935565b611419565b60005481565b60608083808403828167ffffffffffffffff8111801561049357600080fd5b506040519080825280602002602001820160405280156104bd578160200160208202803683370190505b50905060608260020267ffffffffffffffff811180156104dc57600080fd5b50604051908082528060200260200182016040528015610506578160200160208202803683370190505b50905060008061053960005461053361052a600c54436114f290919063ffffffff16565b600b549061153d565b90611577565b9050600054610553600c54436114f290919063ffffffff16565b111561055e5750600b545b60005b8581101561068a5760008781526008602052604090205485516001600160a01b039091169086908390811061059257fe5b6001600160a01b0392831660209182029290920181019190915260008981526008825260408082205490931681526003909152205484518590859081106105d557fe5b602090810291909101810191909152600a546000898152600883526040808220546001600160a01b031682526003909352919091205461065d9161061e9161053390869061153d565b6000898152600860208181526040808420546001600160a01b03168085526004835290842054938d905291905261065791908290610b2f565b906115b9565b84846001018151811061066c57fe5b60209081029190910101526001968701966002939093019201610561565b509299919850909650505050505050565b60008060006106b5600c54436114f290919063ffffffff16565b600b5460005491935091506106ce90610533838561153d565b9250909192565b6011546001600160a01b031633146107085760405162461bcd60e51b81526004016106ff90611b02565b60405180910390fd5b6001600160a01b03811661072e5760405162461bcd60e51b81526004016106ff90611c48565b601280546001600160a01b0319166001600160a01b0383161790556040517fc9e2377236eab4280090ce8f2317332649736d92f00dcf20a8dd6684ec5e7839906107799083906119e5565b60405180910390a150565b6001600160a01b0381166000908152600360205260408120548154600c5483928392839283916107bd916105339061052a9043906114f2565b90506000546107d7600c54436114f290919063ffffffff16565b11156107e25750600b545b600a546001600160a01b038816600090815260036020526040812054909161080f9161053390859061153d565b9050600061083e61081f8a610b2f565b6001600160a01b038b16600090815260046020526040902054906115b9565b6001600160a01b03999099166000908152600560205260409020549399919897509295509350505050565b600e5481565b6012546001600160a01b031633146108995760405162461bcd60e51b81526004016106ff90611c1c565b601254601180546001600160a01b0319166001600160a01b0390921691821790556040517f9d3e522e1e47a2f6009739342b9cc7b252a1888154e843ab55ee1c81745795ab906107799083906119e5565b6108f2611163565b6108fa610a3b565b565b600c5481565b33600061090e82610b2f565b9050801561096357600f5461092390826114f2565b600f556001600160a01b03821660009081526004602052604090205461094990826115b9565b6001600160a01b0383166000908152600460205260409020555b600e546001600160a01b038316600090815260066020908152604080832093909355338083526003909152919020548411156109b15760405162461bcd60e51b81526004016106ff90611cb4565b6001600160a01b0381166000908152600360205260409020546109d490856114f2565b6001600160a01b038216600090815260036020526040902055600a546109fa90856114f2565b600a55600154610a14906001600160a01b031682866115de565b50505050565b60106020526000908152604090205460ff1681565b600f5481565b600a5481565b33600081815260056020526040902054610a5457600080fd5b6001600160a01b03808216600090815260056020526040812080549190556002549091610a83911683836115de565b5050565b60056020526000908152604090205481565b600081565b6011546001600160a01b03163314610ac85760405162461bcd60e51b81526004016106ff90611b02565b6001600160a01b03919091166000908152601060205260409020805460ff1916911515919091179055565b6011546001600160a01b031681565b600d5481565b60076020526000908152604090205460ff1681565b60066020526000908152604090205481565b6001600160a01b038116600090815260066020526040812054600e548291610b5791906114f2565b600d546001600160a01b038516600090815260036020526040902054919250610b8491610533908461153d565b9392505050565b6008602052600090815260409020546001600160a01b031681565b6011546001600160a01b03163314610bd05760405162461bcd60e51b81526004016106ff90611b02565b60008190556040517fc2965d898897107f6f1d0e43c043ca07b7a51d487acfac1decec2ec84053644090610779908390611dbf565b60095481565b600c54600b5443906000908015610c80576000610c2884866114f2565b90506000548110610c3b57819250610c62565b600054610c48838361153d565b1115610c6257600054610c5f90610533848461153d565b92505b8215610c7e57610c7282846114f2565b600b55610c7e83611639565b505b600c839055336000610c9182610b2f565b90508015610ce657600f54610ca690826114f2565b600f556001600160a01b038216600090815260046020526040902054610ccc90826115b9565b6001600160a01b0383166000908152600460205260409020555b600e546001600160a01b03831660009081526006602090815260408083209390935533825260079052205460ff16610d5d5760098054600090815260086020908152604080832080546001600160a01b03191633908117909155835260079091529020805460ff1916600190811790915581540190555b6001543390610d77906001600160a01b031682308b6116a2565b600a54610d8490896115b9565b600a556001600160a01b038116600090815260036020526040902054610daa90896115b9565b6001600160a01b0390911660009081526003602052604090205550505050505050565b60046020526000908152604090205481565b6001546001600160a01b031681565b600c54600b5443906000908015610e63576000610e0b84866114f2565b90506000548110610e1e57819250610e45565b600054610e2b838361153d565b1115610e4557600054610e4290610533848461153d565b92505b8215610e6157610e5582846114f2565b600b55610e6183611639565b505b600c839055336000610e7482610b2f565b90508015610ec957600f54610e8990826114f2565b600f556001600160a01b038216600090815260046020526040902054610eaf90826115b9565b6001600160a01b0383166000908152600460205260409020555b600e546001600160a01b0383166000908152600660205260408120919091558790610ef382610b2f565b90508015610f4857600f54610f0890826114f2565b600f556001600160a01b038216600090815260046020526040902054610f2e90826115b9565b6001600160a01b0383166000908152600460205260409020555b600e546001600160a01b03808416600090815260066020908152604080832094909455918c1681526004825282812054600390925291909120543391908111610fa35760405162461bcd60e51b81526004016106ff90611bed565b6001600160a01b038b1660009081526004602090815260408083208390556003909152812054610fd49083906114f2565b6001600160a01b03808e1660009081526003602052604080822080549290556001549051630852cd8d60e31b81529195509293509116906342966c689061101f908590600401611dbf565b600060405180830381600087803b15801561103957600080fd5b505af115801561104d573d6000803e3d6000fd5b5050600a5461105f92509050836114f2565b600a556001600160a01b03831660009081526004602052604090205461108590826115b9565b6001600160a01b03808516600090815260046020908152604080832094909455918f168152600590915220546110bb90836115b9565b6001600160a01b038d1660009081526005602052604090208190551561110c576001600160a01b03808d1660009081526005602052604081208054919055600254909161110a91168e836115de565b505b505050505050505050505050565b6002546001600160a01b031681565b611131611163565b611139610a3b565b3360009081526003602052604090205461115281610902565b50565b611139611163565b600b5481565b600c54600b54439060009080156111d857600061118084866114f2565b90506000548110611193578192506111ba565b6000546111a0838361153d565b11156111ba576000546111b790610533848461153d565b92505b82156111d6576111ca82846114f2565b600b556111d683611639565b505b600c8390553360006111e982610b2f565b9050801561123e57600f546111fe90826114f2565b600f556001600160a01b03821660009081526004602052604090205461122490826115b9565b6001600160a01b0383166000908152600460205260409020555b600e546001600160a01b03831660009081526006602090815260408083209390935533808352600490915291812054908161128b5760405162461bcd60e51b81526004016106ff90611b70565b6001600160a01b038316600090815260046020908152604080832083905560039091529020548211156112fa576001600160a01b0383166000908152600360205260409020546112dc9083906114f2565b6001600160a01b038416600090815260036020526040902054925090505b6001600160a01b03831660009081526003602052604090205461131d90836114f2565b6001600160a01b0380851660009081526003602052604090819020929092556001549151630852cd8d60e31b81529116906342966c6890611362908590600401611dbf565b600060405180830381600087803b15801561137c57600080fd5b505af1158015611390573d6000803e3d6000fd5b5050600a546113a292509050836114f2565b600a556113ae81611639565b6001600160a01b0383166000908152600560205260409020546113d190836115b9565b6001600160a01b039093166000908152600560205260409020929092555050505050505050565b6012546001600160a01b031681565b60036020526000908152604090205481565b3360009081526010602052604090205460ff166114485760405162461bcd60e51b81526004016106ff90611d07565b600c54600b54439060009080156114bd57600061146584866114f2565b905060005481106114785781925061149f565b600054611485838361153d565b111561149f5760005461149c90610533848461153d565b92505b82156114bb576114af82846114f2565b600b556114bb83611639565b505b600c8390556002546114da906001600160a01b03168730886116a2565b600b546114e790866115b9565b600b55505050505050565b600061153483836040518060400160405280601e81526020017f536166654d6174683a207375627472616374696f6e206f766572666c6f7700008152506116c3565b90505b92915050565b60008261154c57506000611537565b8282028284828161155957fe5b04146115345760405162461bcd60e51b81526004016106ff90611c73565b600061153483836040518060400160405280601a81526020017f536166654d6174683a206469766973696f6e206279207a65726f0000000000008152506116ef565b6000828201838110156115345760405162461bcd60e51b81526004016106ff90611b39565b6116348363a9059cbb60e01b84846040516024016115fd929190611a1d565b60408051601f198184030181529190526020810180516001600160e01b03166001600160e01b031990931692909217909152611726565b505050565b6000600a5411801561164b5750600081115b1561168f5761167761166e600a54610533600d548561153d90919063ffffffff16565b600e54906115b9565b600e55600f5461168790826115b9565b600f55611152565b600b5461169c90826115b9565b600b5550565b610a14846323b872dd60e01b8585856040516024016115fd939291906119f9565b600081848411156116e75760405162461bcd60e51b81526004016106ff9190611acf565b505050900390565b600081836117105760405162461bcd60e51b81526004016106ff9190611acf565b50600083858161171c57fe5b0495945050505050565b606061177b826040518060400160405280602081526020017f5361666545524332303a206c6f772d6c6576656c2063616c6c206661696c6564815250856001600160a01b03166117b59092919063ffffffff16565b8051909150156116345780806020019051810190611799919061195f565b6116345760405162461bcd60e51b81526004016106ff90611d75565b60606117c484846000856117cc565b949350505050565b6060824710156117ee5760405162461bcd60e51b81526004016106ff90611ba7565b6117f78561188d565b6118135760405162461bcd60e51b81526004016106ff90611d3e565b60006060866001600160a01b0316858760405161183091906119c9565b60006040518083038185875af1925050503d806000811461186d576040519150601f19603f3d011682016040523d82523d6000602084013e611872565b606091505b5091509150611882828286611893565b979650505050505050565b3b151590565b606083156118a2575081610b84565b8251156118b25782518084602001fd5b8160405162461bcd60e51b81526004016106ff9190611acf565b80356001600160a01b038116811461153757600080fd5b6000602082840312156118f4578081fd5b61153483836118cc565b60008060408385031215611910578081fd5b61191a84846118cc565b9150602083013561192a81611e25565b809150509250929050565b60008060408385031215611947578182fd5b61195184846118cc565b946020939093013593505050565b600060208284031215611970578081fd5b815161153481611e25565b60006020828403121561198c578081fd5b5035919050565b600080604083850312156119a5578182fd5b50508035926020909101359150565b815260200190565b6001600160a01b03169052565b600082516119db818460208701611df9565b9190910192915050565b6001600160a01b0391909116815260200190565b6001600160a01b039384168152919092166020820152604081019190915260600190565b6001600160a01b03929092168252602082015260400190565b604080825283519082018190526000906020906060840190828701845b82811015611a7657611a668483516119bc565b9284019290840190600101611a53565b50505083810382850152808551611a8d8184611dbf565b91508387019250845b81811015611ab757611aa98385516119b4565b938501939250600101611a96565b5090979650505050505050565b901515815260200190565b6000602082528251806020840152611aee816040850160208701611df9565b601f01601f19169190910160400192915050565b60208082526017908201527f5472616e736d757465723a2021676f7665726e616e6365000000000000000000604082015260600190565b6020808252601b908201527f536166654d6174683a206164646974696f6e206f766572666c6f770000000000604082015260600190565b6020808252601e908201527f6e65656420746f20686176652070656e64696e6720696e206275636b65740000604082015260600190565b60208082526026908201527f416464726573733a20696e73756666696369656e742062616c616e636520666f6040820152651c8818d85b1b60d21b606082015260800190565b6020808252601590820152745472616e736d757465723a20216f766572666c6f7760581b604082015260600190565b6020808252601290820152712170656e64696e67476f7665726e616e636560701b604082015260600190565b6020808252601190820152702a3930b739b6baba32b91d10181033b7bb60791b604082015260600190565b60208082526021908201527f536166654d6174683a206d756c7469706c69636174696f6e206f766572666c6f6040820152607760f81b606082015260800190565b60208082526033908201527f5472616e736d757465723a20756e7374616b6520616d6f756e74206578636565604082015272191cc819195c1bdcda5d195908185b5bdd5b9d606a1b606082015260800190565b60208082526018908201527f5472616e736d757465723a202177686974656c69737465640000000000000000604082015260600190565b6020808252601d908201527f416464726573733a2063616c6c20746f206e6f6e2d636f6e7472616374000000604082015260600190565b6020808252602a908201527f5361666545524332303a204552433230206f7065726174696f6e20646964206e6040820152691bdd081cdd58d8d9595960b21b606082015260800190565b90815260200190565b9283526020830191909152604082015260600190565b93845260208401929092526040830152606082015260800190565b60005b83811015611e14578181015183820152602001611dfc565b83811115610a145750506000910152565b801515811461115257600080fdfea2646970667358221220ca7c9a35cce3ec1d2c976bedab68a6e8e560739850cc74775f7a1a850ac9440864736f6c634300060c0033",
  "linkReferences": {},
  "deployedLinkReferences": {}
}