{
  "_format": "hh-sol-artifact-1",
  "contractName": "UniswapV3FactoryMock",
  "sourceName": "contracts/mocks/oracles/uniswap/UniswapV3FactoryMock.sol",
  "abi": [
    {
      "inputs": [
        {
          "internalType": "address",
          "name": "tokenA",
          "type": "address"
        },
        {
          "internalType": "address",
          "name": "tokenB",
          "type": "address"
        },
        {
          "internalType": "uint24",
          "name": "fee",
          "type": "uint24"
        }
      ],
      "name": "createPool",
      "outputs": [
        {
          "internalType": "address",
          "name": "pool",
          "type": "address"
        }
      ],
      "stateMutability": "nonpayable",
      "type": "function"
    },
    {
      "inputs": [
        {
          "internalType": "address",
          "name": "",
          "type": "address"
        },
        {
          "internalType": "address",
          "name": "",
          "type": "address"
        },
        {
          "internalType": "uint24",
          "name": "",
          "type": "uint24"
        }
      ],
      "name": "getPool",
      "outputs": [
        {
          "internalType": "address",
          "name": "",
          "type": "address"
        }
      ],
      "stateMutability": "view",
      "type": "function"
    }
  ],
  "bytecode": "0x608060405234801561001057600080fd5b5061087c806100206000396000f3fe608060405234801561001057600080fd5b50600436106100365760003560e01c80631698ee821461003b578063a167129514610064575b600080fd5b61004e610049366004610335565b610077565b60405161005b9190610382565b60405180910390f35b61004e610072366004610335565b6100af565b6000602081815293815260408082208552928152828120909352825290205473ffffffffffffffffffffffffffffffffffffffff1681565b60008273ffffffffffffffffffffffffffffffffffffffff168473ffffffffffffffffffffffffffffffffffffffff161415610120576040517f08c379a00000000000000000000000000000000000000000000000000000000081526004016101179061044c565b60405180910390fd5b6000808473ffffffffffffffffffffffffffffffffffffffff168673ffffffffffffffffffffffffffffffffffffffff161061015d578486610160565b85855b909250905073ffffffffffffffffffffffffffffffffffffffff82166101b2576040517f08c379a000000000000000000000000000000000000000000000000000000000815260040161011790610415565b73ffffffffffffffffffffffffffffffffffffffff8281166000908152602081815260408083208585168452825280832062ffffff891684529091529020541615610229576040517f08c379a0000000000000000000000000000000000000000000000000000000008152600401610117906103de565b30828286604051610239906102ff565b61024694939291906103a3565b604051809103906000f080158015610262573d6000803e3d6000fd5b5073ffffffffffffffffffffffffffffffffffffffff92831660008181526020818152604080832095871680845295825280832062ffffff90991680845298825280832080549786167fffffffffffffffffffffffff000000000000000000000000000000000000000098891681179091559583528282528083209383529281528282209782529690965290942080549092161790555092915050565b61039d806104aa83390190565b803573ffffffffffffffffffffffffffffffffffffffff8116811461033057600080fd5b919050565b600080600060608486031215610349578283fd5b6103528461030c565b92506103606020850161030c565b9150604084013562ffffff81168114610377578182fd5b809150509250925092565b73ffffffffffffffffffffffffffffffffffffffff91909116815260200190565b73ffffffffffffffffffffffffffffffffffffffff948516815292841660208401529216604082015262ffffff909116606082015260800190565b60208082526013908201527f506f6f6c20616c72656164792065786973747300000000000000000000000000604082015260600190565b60208082526014908201527f4e6f206e696c20746f6b656e2061646472657373000000000000000000000000604082015260600190565b60208082526021908201527f43616e6e6f742063726561746520706f6f6c206f662073616d6520746f6b656e60408201527f730000000000000000000000000000000000000000000000000000000000000060608201526080019056fe61010060405234801561001157600080fd5b5060405161039d38038061039d83398101604081905261003091610085565b60e81b6001600160e81b03191660e052606090811b6001600160601b031990811660c05291811b821660a0529190911b166080526100e1565b80516001600160a01b038116811461008057600080fd5b919050565b6000806000806080858703121561009a578384fd5b6100a385610069565b93506100b160208601610069565b92506100bf60408601610069565b9150606085015162ffffff811681146100d6578182fd5b939692955090935050565b60805160601c60a05160601c60c05160601c60e05160e81c61027761012660003960006101a20152600061017e015260006101260152600061015a01526102776000f3fe608060405234801561001057600080fd5b50600436106100885760003560e01c8063c45a01551161005b578063c45a0155146100ea578063d0c93a7c146100f2578063d21220a714610107578063ddca3f431461010f57610088565b80630dfe16811461008d57806360fe47b1146100ab57806370cf754a146100c0578063a035b1fe146100d5575b600080fd5b610095610124565b6040516100a291906101dc565b60405180910390f35b6100be6100b93660046101c4565b610148565b005b6100c861014d565b6040516100a2919061020b565b6100dd610152565b6040516100a29190610238565b610095610158565b6100fa61014d565b6040516100a291906101fd565b61009561017c565b6101176101a0565b6040516100a29190610228565b7f000000000000000000000000000000000000000000000000000000000000000081565b600055565b600090565b60005481565b7f000000000000000000000000000000000000000000000000000000000000000081565b7f000000000000000000000000000000000000000000000000000000000000000081565b7f000000000000000000000000000000000000000000000000000000000000000081565b6000602082840312156101d5578081fd5b5035919050565b73ffffffffffffffffffffffffffffffffffffffff91909116815260200190565b60029190910b815260200190565b6fffffffffffffffffffffffffffffffff91909116815260200190565b62ffffff91909116815260200190565b9081526020019056fea2646970667358221220d0318d83a4e7cbb3aaee05cf8035dc321593ff6b2a51a27f05104b53fd8ce34564736f6c63430008010033a26469706673582212201d9488f9b8a59af619ceb3d455051f37bf44c336696f626ed2597c9f7f2e979764736f6c63430008010033",
  "linkReferences": {},
  "deployedLinkReferences": {}
}