{
  "_format": "hh-sol-artifact-1",
  "contractName": "Authorization",
  "sourceName": "contracts/access/Authorization.sol",
  "abi": [
    {
      "inputs": [
        {
          "internalType": "contract IRoleManager",
          "name": "roleManager",
          "type": "address"
        }
      ],
      "stateMutability": "nonpayable",
      "type": "constructor"
    },
    {
      "inputs": [],
      "name": "roleManager",
      "outputs": [
        {
          "internalType": "contract IRoleManager",
          "name": "",
          "type": "address"
        }
      ],
      "stateMutability": "view",
      "type": "function"
    }
  ],
  "bytecode": "0x60a060405234801561001057600080fd5b5060405161012738038061012783398101604081905261002f91610040565b6001600160a01b0316608052610070565b60006020828403121561005257600080fd5b81516001600160a01b038116811461006957600080fd5b9392505050565b608051609f6100886000396000602e0152609f6000f3fe6080604052348015600f57600080fd5b506004361060275760003560e01c8062435da514602c575b600080fd5b7f00000000000000000000000000000000000000000000000000000000000000006040516001600160a01b03909116815260200160405180910390f3fea2646970667358221220af8d433663133de5b0e4be6b784b03ecfb1229737064295696e8f25c08ff4e3e64736f6c63430008090033",
  "linkReferences": {},
  "deployedLinkReferences": {}
}