{
  "_format": "hh-sol-artifact-1",
  "contractName": "TicketHarness",
  "sourceName": "contracts/test/TicketHarness.sol",
  "abi": [
    {
      "inputs": [
        {
          "internalType": "string",
          "name": "_name",
          "type": "string"
        },
        {
          "internalType": "string",
          "name": "_symbol",
          "type": "string"
        },
        {
          "internalType": "uint8",
          "name": "decimals_",
          "type": "uint8"
        },
        {
          "internalType": "address",
          "name": "_controller",
          "type": "address"
        }
      ],
      "stateMutability": "nonpayable",
      "type": "constructor"
    },
    {
      "anonymous": false,
      "inputs": [
        {
          "indexed": true,
          "internalType": "address",
          "name": "owner",
          "type": "address"
        },
        {
          "indexed": true,
          "internalType": "address",
          "name": "spender",
          "type": "address"
        },
        {
          "indexed": false,
          "internalType": "uint256",
          "name": "value",
          "type": "uint256"
        }
      ],
      "name": "Approval",
      "type": "event"
    },
    {
      "anonymous": false,
      "inputs": [
        {
          "indexed": true,
          "internalType": "address",
          "name": "delegator",
          "type": "address"
        },
        {
          "indexed": true,
          "internalType": "address",
          "name": "delegate",
          "type": "address"
        }
      ],
      "name": "Delegated",
      "type": "event"
    },
    {
      "anonymous": false,
      "inputs": [
        {
          "indexed": false,
          "internalType": "string",
          "name": "name",
          "type": "string"
        },
        {
          "indexed": false,
          "internalType": "string",
          "name": "symbol",
          "type": "string"
        },
        {
          "indexed": false,
          "internalType": "uint8",
          "name": "decimals",
          "type": "uint8"
        },
        {
          "indexed": true,
          "internalType": "address",
          "name": "controller",
          "type": "address"
        }
      ],
      "name": "Deployed",
      "type": "event"
    },
    {
      "anonymous": false,
      "inputs": [
        {
          "components": [
            {
              "internalType": "uint224",
              "name": "amount",
              "type": "uint224"
            },
            {
              "internalType": "uint32",
              "name": "timestamp",
              "type": "uint32"
            }
          ],
          "indexed": false,
          "internalType": "struct ObservationLib.Observation",
          "name": "newTotalSupplyTwab",
          "type": "tuple"
        }
      ],
      "name": "NewTotalSupplyTwab",
      "type": "event"
    },
    {
      "anonymous": false,
      "inputs": [
        {
          "indexed": true,
          "internalType": "address",
          "name": "delegate",
          "type": "address"
        },
        {
          "components": [
            {
              "internalType": "uint224",
              "name": "amount",
              "type": "uint224"
            },
            {
              "internalType": "uint32",
              "name": "timestamp",
              "type": "uint32"
            }
          ],
          "indexed": false,
          "internalType": "struct ObservationLib.Observation",
          "name": "newTwab",
          "type": "tuple"
        }
      ],
      "name": "NewUserTwab",
      "type": "event"
    },
    {
      "anonymous": false,
      "inputs": [
        {
          "indexed": false,
          "internalType": "string",
          "name": "name",
          "type": "string"
        },
        {
          "indexed": false,
          "internalType": "string",
          "name": "symbol",
          "type": "string"
        },
        {
          "indexed": false,
          "internalType": "uint8",
          "name": "decimals",
          "type": "uint8"
        },
        {
          "indexed": true,
          "internalType": "address",
          "name": "controller",
          "type": "address"
        }
      ],
      "name": "TicketInitialized",
      "type": "event"
    },
    {
      "anonymous": false,
      "inputs": [
        {
          "indexed": true,
          "internalType": "address",
          "name": "from",
          "type": "address"
        },
        {
          "indexed": true,
          "internalType": "address",
          "name": "to",
          "type": "address"
        },
        {
          "indexed": false,
          "internalType": "uint256",
          "name": "value",
          "type": "uint256"
        }
      ],
      "name": "Transfer",
      "type": "event"
    },
    {
      "inputs": [],
      "name": "DOMAIN_SEPARATOR",
      "outputs": [
        {
          "internalType": "bytes32",
          "name": "",
          "type": "bytes32"
        }
      ],
      "stateMutability": "view",
      "type": "function"
    },
    {
      "inputs": [
        {
          "internalType": "address",
          "name": "owner",
          "type": "address"
        },
        {
          "internalType": "address",
          "name": "spender",
          "type": "address"
        }
      ],
      "name": "allowance",
      "outputs": [
        {
          "internalType": "uint256",
          "name": "",
          "type": "uint256"
        }
      ],
      "stateMutability": "view",
      "type": "function"
    },
    {
      "inputs": [
        {
          "internalType": "address",
          "name": "spender",
          "type": "address"
        },
        {
          "internalType": "uint256",
          "name": "amount",
          "type": "uint256"
        }
      ],
      "name": "approve",
      "outputs": [
        {
          "internalType": "bool",
          "name": "",
          "type": "bool"
        }
      ],
      "stateMutability": "nonpayable",
      "type": "function"
    },
    {
      "inputs": [
        {
          "internalType": "address",
          "name": "account",
          "type": "address"
        }
      ],
      "name": "balanceOf",
      "outputs": [
        {
          "internalType": "uint256",
          "name": "",
          "type": "uint256"
        }
      ],
      "stateMutability": "view",
      "type": "function"
    },
    {
      "inputs": [
        {
          "internalType": "address",
          "name": "_from",
          "type": "address"
        },
        {
          "internalType": "uint256",
          "name": "_amount",
          "type": "uint256"
        }
      ],
      "name": "burn",
      "outputs": [],
      "stateMutability": "nonpayable",
      "type": "function"
    },
    {
      "inputs": [],
      "name": "controller",
      "outputs": [
        {
          "internalType": "address",
          "name": "",
          "type": "address"
        }
      ],
      "stateMutability": "view",
      "type": "function"
    },
    {
      "inputs": [
        {
          "internalType": "address",
          "name": "_user",
          "type": "address"
        },
        {
          "internalType": "uint256",
          "name": "_amount",
          "type": "uint256"
        }
      ],
      "name": "controllerBurn",
      "outputs": [],
      "stateMutability": "nonpayable",
      "type": "function"
    },
    {
      "inputs": [
        {
          "internalType": "address",
          "name": "_operator",
          "type": "address"
        },
        {
          "internalType": "address",
          "name": "_user",
          "type": "address"
        },
        {
          "internalType": "uint256",
          "name": "_amount",
          "type": "uint256"
        }
      ],
      "name": "controllerBurnFrom",
      "outputs": [],
      "stateMutability": "nonpayable",
      "type": "function"
    },
    {
      "inputs": [
        {
          "internalType": "address",
          "name": "_user",
          "type": "address"
        },
        {
          "internalType": "address",
          "name": "_to",
          "type": "address"
        }
      ],
      "name": "controllerDelegateFor",
      "outputs": [],
      "stateMutability": "nonpayable",
      "type": "function"
    },
    {
      "inputs": [
        {
          "internalType": "address",
          "name": "_user",
          "type": "address"
        },
        {
          "internalType": "uint256",
          "name": "_amount",
          "type": "uint256"
        }
      ],
      "name": "controllerMint",
      "outputs": [],
      "stateMutability": "nonpayable",
      "type": "function"
    },
    {
      "inputs": [],
      "name": "decimals",
      "outputs": [
        {
          "internalType": "uint8",
          "name": "",
          "type": "uint8"
        }
      ],
      "stateMutability": "view",
      "type": "function"
    },
    {
      "inputs": [
        {
          "internalType": "address",
          "name": "spender",
          "type": "address"
        },
        {
          "internalType": "uint256",
          "name": "subtractedValue",
          "type": "uint256"
        }
      ],
      "name": "decreaseAllowance",
      "outputs": [
        {
          "internalType": "bool",
          "name": "",
          "type": "bool"
        }
      ],
      "stateMutability": "nonpayable",
      "type": "function"
    },
    {
      "inputs": [
        {
          "internalType": "address",
          "name": "_to",
          "type": "address"
        }
      ],
      "name": "delegate",
      "outputs": [],
      "stateMutability": "nonpayable",
      "type": "function"
    },
    {
      "inputs": [
        {
          "internalType": "address",
          "name": "_user",
          "type": "address"
        }
      ],
      "name": "delegateOf",
      "outputs": [
        {
          "internalType": "address",
          "name": "",
          "type": "address"
        }
      ],
      "stateMutability": "view",
      "type": "function"
    },
    {
      "inputs": [
        {
          "internalType": "address",
          "name": "_user",
          "type": "address"
        },
        {
          "internalType": "address",
          "name": "_newDelegate",
          "type": "address"
        },
        {
          "internalType": "uint256",
          "name": "_deadline",
          "type": "uint256"
        },
        {
          "internalType": "uint8",
          "name": "_v",
          "type": "uint8"
        },
        {
          "internalType": "bytes32",
          "name": "_r",
          "type": "bytes32"
        },
        {
          "internalType": "bytes32",
          "name": "_s",
          "type": "bytes32"
        }
      ],
      "name": "delegateWithSignature",
      "outputs": [],
      "stateMutability": "nonpayable",
      "type": "function"
    },
    {
      "inputs": [
        {
          "internalType": "address",
          "name": "_to",
          "type": "address"
        },
        {
          "internalType": "uint256",
          "name": "_amount",
          "type": "uint256"
        }
      ],
      "name": "flashLoan",
      "outputs": [],
      "stateMutability": "nonpayable",
      "type": "function"
    },
    {
      "inputs": [
        {
          "internalType": "address",
          "name": "_user",
          "type": "address"
        }
      ],
      "name": "getAccountDetails",
      "outputs": [
        {
          "components": [
            {
              "internalType": "uint208",
              "name": "balance",
              "type": "uint208"
            },
            {
              "internalType": "uint24",
              "name": "nextTwabIndex",
              "type": "uint24"
            },
            {
              "internalType": "uint24",
              "name": "cardinality",
              "type": "uint24"
            }
          ],
          "internalType": "struct TwabLib.AccountDetails",
          "name": "",
          "type": "tuple"
        }
      ],
      "stateMutability": "view",
      "type": "function"
    },
    {
      "inputs": [
        {
          "internalType": "address",
          "name": "_user",
          "type": "address"
        },
        {
          "internalType": "uint64",
          "name": "_startTime",
          "type": "uint64"
        },
        {
          "internalType": "uint64",
          "name": "_endTime",
          "type": "uint64"
        }
      ],
      "name": "getAverageBalanceBetween",
      "outputs": [
        {
          "internalType": "uint256",
          "name": "",
          "type": "uint256"
        }
      ],
      "stateMutability": "view",
      "type": "function"
    },
    {
      "inputs": [
        {
          "internalType": "address",
          "name": "_user",
          "type": "address"
        },
        {
          "internalType": "uint32",
          "name": "_startTime",
          "type": "uint32"
        },
        {
          "internalType": "uint32",
          "name": "_endTime",
          "type": "uint32"
        }
      ],
      "name": "getAverageBalanceTx",
      "outputs": [
        {
          "internalType": "uint256",
          "name": "",
          "type": "uint256"
        }
      ],
      "stateMutability": "view",
      "type": "function"
    },
    {
      "inputs": [
        {
          "internalType": "address",
          "name": "_user",
          "type": "address"
        },
        {
          "internalType": "uint64[]",
          "name": "_startTimes",
          "type": "uint64[]"
        },
        {
          "internalType": "uint64[]",
          "name": "_endTimes",
          "type": "uint64[]"
        }
      ],
      "name": "getAverageBalancesBetween",
      "outputs": [
        {
          "internalType": "uint256[]",
          "name": "",
          "type": "uint256[]"
        }
      ],
      "stateMutability": "view",
      "type": "function"
    },
    {
      "inputs": [
        {
          "internalType": "uint64[]",
          "name": "_startTimes",
          "type": "uint64[]"
        },
        {
          "internalType": "uint64[]",
          "name": "_endTimes",
          "type": "uint64[]"
        }
      ],
      "name": "getAverageTotalSuppliesBetween",
      "outputs": [
        {
          "internalType": "uint256[]",
          "name": "",
          "type": "uint256[]"
        }
      ],
      "stateMutability": "view",
      "type": "function"
    },
    {
      "inputs": [
        {
          "internalType": "address",
          "name": "_user",
          "type": "address"
        },
        {
          "internalType": "uint64",
          "name": "_target",
          "type": "uint64"
        }
      ],
      "name": "getBalanceAt",
      "outputs": [
        {
          "internalType": "uint256",
          "name": "",
          "type": "uint256"
        }
      ],
      "stateMutability": "view",
      "type": "function"
    },
    {
      "inputs": [
        {
          "internalType": "address",
          "name": "_user",
          "type": "address"
        },
        {
          "internalType": "uint32",
          "name": "_target",
          "type": "uint32"
        }
      ],
      "name": "getBalanceTx",
      "outputs": [
        {
          "internalType": "uint256",
          "name": "",
          "type": "uint256"
        }
      ],
      "stateMutability": "view",
      "type": "function"
    },
    {
      "inputs": [
        {
          "internalType": "address",
          "name": "_user",
          "type": "address"
        },
        {
          "internalType": "uint64[]",
          "name": "_targets",
          "type": "uint64[]"
        }
      ],
      "name": "getBalancesAt",
      "outputs": [
        {
          "internalType": "uint256[]",
          "name": "",
          "type": "uint256[]"
        }
      ],
      "stateMutability": "view",
      "type": "function"
    },
    {
      "inputs": [
        {
          "internalType": "uint64[]",
          "name": "_targets",
          "type": "uint64[]"
        }
      ],
      "name": "getTotalSuppliesAt",
      "outputs": [
        {
          "internalType": "uint256[]",
          "name": "",
          "type": "uint256[]"
        }
      ],
      "stateMutability": "view",
      "type": "function"
    },
    {
      "inputs": [
        {
          "internalType": "uint64",
          "name": "_target",
          "type": "uint64"
        }
      ],
      "name": "getTotalSupplyAt",
      "outputs": [
        {
          "internalType": "uint256",
          "name": "",
          "type": "uint256"
        }
      ],
      "stateMutability": "view",
      "type": "function"
    },
    {
      "inputs": [
        {
          "internalType": "address",
          "name": "_user",
          "type": "address"
        },
        {
          "internalType": "uint16",
          "name": "_index",
          "type": "uint16"
        }
      ],
      "name": "getTwab",
      "outputs": [
        {
          "components": [
            {
              "internalType": "uint224",
              "name": "amount",
              "type": "uint224"
            },
            {
              "internalType": "uint32",
              "name": "timestamp",
              "type": "uint32"
            }
          ],
          "internalType": "struct ObservationLib.Observation",
          "name": "",
          "type": "tuple"
        }
      ],
      "stateMutability": "view",
      "type": "function"
    },
    {
      "inputs": [
        {
          "internalType": "address",
          "name": "spender",
          "type": "address"
        },
        {
          "internalType": "uint256",
          "name": "addedValue",
          "type": "uint256"
        }
      ],
      "name": "increaseAllowance",
      "outputs": [
        {
          "internalType": "bool",
          "name": "",
          "type": "bool"
        }
      ],
      "stateMutability": "nonpayable",
      "type": "function"
    },
    {
      "inputs": [
        {
          "internalType": "address",
          "name": "_to",
          "type": "address"
        },
        {
          "internalType": "uint256",
          "name": "_amount",
          "type": "uint256"
        }
      ],
      "name": "mint",
      "outputs": [],
      "stateMutability": "nonpayable",
      "type": "function"
    },
    {
      "inputs": [
        {
          "internalType": "address",
          "name": "_to",
          "type": "address"
        },
        {
          "internalType": "uint256",
          "name": "_amount",
          "type": "uint256"
        }
      ],
      "name": "mintTwice",
      "outputs": [],
      "stateMutability": "nonpayable",
      "type": "function"
    },
    {
      "inputs": [],
      "name": "name",
      "outputs": [
        {
          "internalType": "string",
          "name": "",
          "type": "string"
        }
      ],
      "stateMutability": "view",
      "type": "function"
    },
    {
      "inputs": [
        {
          "internalType": "address",
          "name": "owner",
          "type": "address"
        }
      ],
      "name": "nonces",
      "outputs": [
        {
          "internalType": "uint256",
          "name": "",
          "type": "uint256"
        }
      ],
      "stateMutability": "view",
      "type": "function"
    },
    {
      "inputs": [
        {
          "internalType": "address",
          "name": "owner",
          "type": "address"
        },
        {
          "internalType": "address",
          "name": "spender",
          "type": "address"
        },
        {
          "internalType": "uint256",
          "name": "value",
          "type": "uint256"
        },
        {
          "internalType": "uint256",
          "name": "deadline",
          "type": "uint256"
        },
        {
          "internalType": "uint8",
          "name": "v",
          "type": "uint8"
        },
        {
          "internalType": "bytes32",
          "name": "r",
          "type": "bytes32"
        },
        {
          "internalType": "bytes32",
          "name": "s",
          "type": "bytes32"
        }
      ],
      "name": "permit",
      "outputs": [],
      "stateMutability": "nonpayable",
      "type": "function"
    },
    {
      "inputs": [],
      "name": "symbol",
      "outputs": [
        {
          "internalType": "string",
          "name": "",
          "type": "string"
        }
      ],
      "stateMutability": "view",
      "type": "function"
    },
    {
      "inputs": [],
      "name": "totalSupply",
      "outputs": [
        {
          "internalType": "uint256",
          "name": "",
          "type": "uint256"
        }
      ],
      "stateMutability": "view",
      "type": "function"
    },
    {
      "inputs": [
        {
          "internalType": "address",
          "name": "recipient",
          "type": "address"
        },
        {
          "internalType": "uint256",
          "name": "amount",
          "type": "uint256"
        }
      ],
      "name": "transfer",
      "outputs": [
        {
          "internalType": "bool",
          "name": "",
          "type": "bool"
        }
      ],
      "stateMutability": "nonpayable",
      "type": "function"
    },
    {
      "inputs": [
        {
          "internalType": "address",
          "name": "sender",
          "type": "address"
        },
        {
          "internalType": "address",
          "name": "recipient",
          "type": "address"
        },
        {
          "internalType": "uint256",
          "name": "amount",
          "type": "uint256"
        }
      ],
      "name": "transferFrom",
      "outputs": [
        {
          "internalType": "bool",
          "name": "",
          "type": "bool"
        }
      ],
      "stateMutability": "nonpayable",
      "type": "function"
    },
    {
      "inputs": [
        {
          "internalType": "address",
          "name": "_sender",
          "type": "address"
        },
        {
          "internalType": "address",
          "name": "_recipient",
          "type": "address"
        },
        {
          "internalType": "uint256",
          "name": "_amount",
          "type": "uint256"
        }
      ],
      "name": "transferTo",
      "outputs": [],
      "stateMutability": "nonpayable",
      "type": "function"
    }
  ],
  "bytecode": "0x6101806040527f6e71edae12b1b97f4d1f60370fef10105fa2faae0126114a169c64845d6126c9610120527f94019368dc6b2ee4ac32010c9d0081ec29874325b541829d001d22c296b5246c610160523480156200005c57600080fd5b5060405162003e3c38038062003e3c8339810160408190526200007f916200042f565b83838383838383836040518060400160405280601c81526020017f506f6f6c546f67657468657220436f6e74726f6c6c6564546f6b656e0000000081525080604051806040016040528060018152602001603160f81b81525086868160039080519060200190620000f2929190620002f8565b50805162000108906004906020840190620002f8565b5050825160209384012082519284019290922060c083815260e08290524660a0818152604080517f8b73c3c69bb8fe3d512ecc4cf759cc79239f7b179b0ffacaa9a75d522b39400f818a018190528183019890985260608101959095526080808601939093523085830152805180860390920182529390920190925280519401939093209092526101005250506001600160a01b038116620002055760405162461bcd60e51b815260206004820152602b60248201527f436f6e74726f6c6c6564546f6b656e2f636f6e74726f6c6c65722d6e6f742d7a60448201526a65726f2d6164647265737360a81b60648201526084015b60405180910390fd5b600680546001600160a01b0319166001600160a01b03831617905560ff8216620002725760405162461bcd60e51b815260206004820181905260248201527f436f6e74726f6c6c6564546f6b656e2f646563696d616c732d67742d7a65726f6044820152606401620001fc565b7fff0000000000000000000000000000000000000000000000000000000000000060f883901b16610140526040516001600160a01b038216907fde72fc29218361f33503847e6f32be813f9ec92fc7c772bb59e46675c890fd0e90620002de9087908790879062000501565b60405180910390a2505050505050505050505050620005c4565b828054620003069062000571565b90600052602060002090601f0160209004810192826200032a576000855562000375565b82601f106200034557805160ff191683800117855562000375565b8280016001018555821562000375579182015b828111156200037557825182559160200191906001019062000358565b506200038392915062000387565b5090565b5b8082111562000383576000815560010162000388565b600082601f830112620003b057600080fd5b81516001600160401b0380821115620003cd57620003cd620005ae565b604051601f8301601f19908116603f01168101908282118183101715620003f857620003f8620005ae565b816040528381528660208588010111156200041257600080fd5b620004258460208301602089016200053e565b9695505050505050565b600080600080608085870312156200044657600080fd5b84516001600160401b03808211156200045e57600080fd5b6200046c888389016200039e565b955060208701519150808211156200048357600080fd5b5062000492878288016200039e565b935050604085015160ff81168114620004aa57600080fd5b60608601519092506001600160a01b0381168114620004c857600080fd5b939692955090935050565b60008151808452620004ed8160208601602086016200053e565b601f01601f19169290920160200192915050565b606081526000620005166060830186620004d3565b82810360208401526200052a8186620004d3565b91505060ff83166040830152949350505050565b60005b838110156200055b57818101518382015260200162000541565b838111156200056b576000848401525b50505050565b600181811c908216806200058657607f821691505b60208210811415620005a857634e487b7160e01b600052602260045260246000fd5b50919050565b634e487b7160e01b600052604160045260246000fd5b60805160a05160c05160e05161010051610120516101405160f81c6101605161380f6200062d6000396000610edf015260006103df015260006111410152600061175d015260006117ac015260006117870152600061170b01526000611734015261380f6000f3fe608060405234801561001057600080fd5b50600436106102925760003560e01c806368c7fd571161016057806398b16f36116100d8578063a5f2a1521161008c578063d505accf11610071578063d505accf1461066d578063dd62ed3e14610680578063f77c4791146106b957600080fd5b8063a5f2a15214610647578063a9059cbb1461065a57600080fd5b80639dc29fac116100bd5780639dc29fac146106135780639ecb037014610626578063a457c2d71461063457600080fd5b806398b16f36146105f25780639d9e465c1461060057600080fd5b80638d22ea2a1161012f57806390596dd11161011457806390596dd1146105c4578063919974dc146105d757806395d89b41146105ea57600080fd5b80638d22ea2a1461056a5780638e6d536a146105b157600080fd5b806368c7fd571461050857806370a082311461051b5780637ecebe001461054457806385beb5f11461055757600080fd5b806333e39b611161020e578063456f95e6116101c25780635d7b0758116101a75780635d7b0758146104c2578063613ed6bd146104d5578063631b5dfb146104f557600080fd5b8063456f95e61461049c5780635c19a95c146104af57600080fd5b806336bb2a38116101f357806336bb2a3814610439578063395093511461047657806340c10f191461048957600080fd5b806333e39b611461041c5780633644e5151461043157600080fd5b806323b872dd116102655780632d0dd6861161024a5780632d0dd686146103c5578063313ce567146103d857806331c4293d1461040957600080fd5b806323b872dd146103015780632aceb5341461031457600080fd5b806306fdde0314610297578063095ea7b3146102b557806309daa017146102d857806318160ddd146102f9575b600080fd5b61029f6106cc565b6040516102ac91906134be565b60405180910390f35b6102c86102c33660046132b6565b61075e565b60405190151581526020016102ac565b6102eb6102e63660046132e0565b610775565b6040519081526020016102ac565b6002546102eb565b6102c861030f36600461309f565b6107e4565b61038d610322366004613051565b6040805160608082018352600080835260208084018290529284018190526001600160a01b03949094168452600782529282902082519384018352546001600160d01b038116845262ffffff600160d01b8204811692850192909252600160e81b9004169082015290565b6040805182516001600160d01b0316815260208084015162ffffff9081169183019190915292820151909216908201526060016102ac565b6102eb6103d336600461345f565b6108aa565b60405160ff7f00000000000000000000000000000000000000000000000000000000000000001681526020016102ac565b6102eb61041736600461330a565b6108f6565b61042f61042a36600461306c565b610967565b005b6102eb6109cf565b61044c610447366004613278565b6109de565b6040805182516001600160e01b0316815260209283015163ffffffff1692810192909252016102ac565b6102c86104843660046132b6565b610a56565b61042f6104973660046132b6565b610a92565b61042f6104aa3660046132b6565b610a9c565b61042f6104bd366004613051565b610aa6565b61042f6104d03660046132b6565b610ab3565b6104e86104e33660046131a4565b610b0d565b6040516102ac919061347a565b61042f61050336600461309f565b610c29565b6104e86105163660046131f7565b610ce4565b6102eb610529366004613051565b6001600160a01b031660009081526020819052604090205490565b6102eb610552366004613051565b610d16565b6104e86105653660046133b1565b610d34565b610599610578366004613051565b6001600160a01b039081166000908152630100000860205260409020541690565b6040516001600160a01b0390911681526020016102ac565b6104e86105bf3660046133f3565b610e17565b61042f6105d23660046132b6565b610e27565b61042f6105e5366004613145565b610e8b565b61029f61100b565b6102eb610417366004613377565b61042f61060e3660046132b6565b61101a565b61042f6106213660046132b6565b610e81565b6102eb6102e636600461334d565b6102c86106423660046132b6565b611024565b61042f61065536600461309f565b6110d5565b6102c86106683660046132b6565b6110e0565b61042f61067b3660046130db565b6110ed565b6102eb61068e36600461306c565b6001600160a01b03918216600090815260016020908152604080832093909416825291909152205490565b600654610599906001600160a01b031681565b6060600380546106db9061369b565b80601f01602080910402602001604051908101604052809291908181526020018280546107079061369b565b80156107545780601f1061072957610100808354040283529160200191610754565b820191906000526020600020905b81548152906001019060200180831161073757829003601f168201915b5050505050905090565b600061076b338484611251565b5060015b92915050565b6001600160a01b0382166000908152600760209081526040808320815160608101835281546001600160d01b038116825262ffffff600160d01b8204811695830195909552600160e81b900490931691830191909152906107dc90600183019085426113a9565b949350505050565b60006107f18484846113d5565b6001600160a01b0384166000908152600160209081526040808320338452909152902054828110156108905760405162461bcd60e51b815260206004820152602860248201527f45524332303a207472616e7366657220616d6f756e742065786365656473206160448201527f6c6c6f77616e636500000000000000000000000000000000000000000000000060648201526084015b60405180910390fd5b61089d8533858403611251565b60019150505b9392505050565b604080516060810182526008546001600160d01b038116825262ffffff600160d01b820481166020840152600160e81b909104169181019190915260009061076f9060099084426113a9565b6001600160a01b0383166000908152600760209081526040808320815160608101835281546001600160d01b038116825262ffffff600160d01b8204811695830195909552600160e81b9004909316918301919091529061095e9060018301908686426115f9565b95945050505050565b6006546001600160a01b031633146109c15760405162461bcd60e51b815260206004820152601f60248201527f436f6e74726f6c6c6564546f6b656e2f6f6e6c792d636f6e74726f6c6c6572006044820152606401610887565b6109cb8282611631565b5050565b60006109d9611707565b905090565b60408051808201909152600080825260208201526001600160a01b038316600090815260076020526040902060010161ffff831662ffffff8110610a2457610a2461375f565b604080518082019091529101546001600160e01b0381168252600160e01b900463ffffffff1660208201529392505050565b3360008181526001602090815260408083206001600160a01b0387168452909152812054909161076b918590610a8d90869061357e565b611251565b6109cb82826117fa565b610a9282826117fa565b610ab03382611631565b50565b6006546001600160a01b03163314610a925760405162461bcd60e51b815260206004820152601f60248201527f436f6e74726f6c6c6564546f6b656e2f6f6e6c792d636f6e74726f6c6c6572006044820152606401610887565b60608160008167ffffffffffffffff811115610b2b57610b2b613775565b604051908082528060200260200182016040528015610b54578160200160208202803683370190505b506001600160a01b0387166000908152600760209081526040808320815160608101835281546001600160d01b038116825262ffffff600160d01b8204811695830195909552600160e81b900490931691830191909152929350905b84811015610c1c57610bed83600101838a8a85818110610bd257610bd261375f565b9050602002016020810190610be7919061345f565b426113a9565b848281518110610bff57610bff61375f565b602090810291909101015280610c14816136d0565b915050610bb0565b5091979650505050505050565b6006546001600160a01b03163314610c835760405162461bcd60e51b815260206004820152601f60248201527f436f6e74726f6c6c6564546f6b656e2f6f6e6c792d636f6e74726f6c6c6572006044820152606401610887565b816001600160a01b0316836001600160a01b031614610cd5576001600160a01b03828116600090815260016020908152604080832093871683529290522054610cd59083908590610a8d908590613667565b610cdf82826118e5565b505050565b6001600160a01b0385166000908152600760205260409020606090610d0c9086868686611a76565b9695505050505050565b6001600160a01b03811660009081526005602052604081205461076f565b60608160008167ffffffffffffffff811115610d5257610d52613775565b604051908082528060200260200182016040528015610d7b578160200160208202803683370190505b50604080516060810182526008546001600160d01b038116825262ffffff600160d01b820481166020840152600160e81b909104169181019190915290915060005b83811015610e0c57610ddd600983898985818110610bd257610bd261375f565b838281518110610def57610def61375f565b602090810291909101015280610e04816136d0565b915050610dbd565b509095945050505050565b606061095e600886868686611a76565b6006546001600160a01b03163314610e815760405162461bcd60e51b815260206004820152601f60248201527f436f6e74726f6c6c6564546f6b656e2f6f6e6c792d636f6e74726f6c6c6572006044820152606401610887565b6109cb82826118e5565b83421115610edb5760405162461bcd60e51b815260206004820181905260248201527f5469636b65742f64656c65676174652d657870697265642d646561646c696e656044820152606401610887565b60007f00000000000000000000000000000000000000000000000000000000000000008787610f098a611c13565b6040805160208101959095526001600160a01b039384169085015291166060830152608082015260a0810186905260c0016040516020818303038152906040528051906020012090506000610f5d82611c3b565b90506000610f6d82878787611ca4565b9050886001600160a01b0316816001600160a01b031614610ff65760405162461bcd60e51b815260206004820152602160248201527f5469636b65742f64656c65676174652d696e76616c69642d7369676e6174757260448201527f65000000000000000000000000000000000000000000000000000000000000006064820152608401610887565b6110008989611631565b505050505050505050565b6060600480546106db9061369b565b610e8182826117fa565b3360009081526001602090815260408083206001600160a01b0386168452909152812054828110156110be5760405162461bcd60e51b815260206004820152602560248201527f45524332303a2064656372656173656420616c6c6f77616e63652062656c6f7760448201527f207a65726f0000000000000000000000000000000000000000000000000000006064820152608401610887565b6110cb3385858403611251565b5060019392505050565b610cdf8383836113d5565b600061076b3384846113d5565b8342111561113d5760405162461bcd60e51b815260206004820152601d60248201527f45524332305065726d69743a206578706972656420646561646c696e650000006044820152606401610887565b60007f000000000000000000000000000000000000000000000000000000000000000088888861116c8c611c13565b6040805160208101969096526001600160a01b0394851690860152929091166060840152608083015260a082015260c0810186905260e00160405160208183030381529060405280519060200120905060006111c782611c3b565b905060006111d782878787611ca4565b9050896001600160a01b0316816001600160a01b03161461123a5760405162461bcd60e51b815260206004820152601e60248201527f45524332305065726d69743a20696e76616c6964207369676e617475726500006044820152606401610887565b6112458a8a8a611251565b50505050505050505050565b6001600160a01b0383166112cc5760405162461bcd60e51b8152602060048201526024808201527f45524332303a20617070726f76652066726f6d20746865207a65726f2061646460448201527f72657373000000000000000000000000000000000000000000000000000000006064820152608401610887565b6001600160a01b0382166113485760405162461bcd60e51b815260206004820152602260248201527f45524332303a20617070726f766520746f20746865207a65726f20616464726560448201527f73730000000000000000000000000000000000000000000000000000000000006064820152608401610887565b6001600160a01b0383811660008181526001602090815260408083209487168084529482529182902085905590518481527f8c5be1e5ebec7d5bd14f71427d1e84f3dd0314c0f7b2291e5b200ac8c7c3b925910160405180910390a3505050565b6000808263ffffffff168463ffffffff16116113c557836113c7565b825b9050610d0c86868386611ccc565b6001600160a01b0383166114515760405162461bcd60e51b815260206004820152602560248201527f45524332303a207472616e736665722066726f6d20746865207a65726f20616460448201527f64726573730000000000000000000000000000000000000000000000000000006064820152608401610887565b6001600160a01b0382166114cd5760405162461bcd60e51b815260206004820152602360248201527f45524332303a207472616e7366657220746f20746865207a65726f206164647260448201527f65737300000000000000000000000000000000000000000000000000000000006064820152608401610887565b6114d8838383611de5565b6001600160a01b038316600090815260208190526040902054818110156115675760405162461bcd60e51b815260206004820152602660248201527f45524332303a207472616e7366657220616d6f756e742065786365656473206260448201527f616c616e636500000000000000000000000000000000000000000000000000006064820152608401610887565b6001600160a01b0380851660009081526020819052604080822085850390559185168152908120805484929061159e90849061357e565b92505081905550826001600160a01b0316846001600160a01b03167fddf252ad1be2c89b69c2b068fc378daa952ba7f163c4a11628f55a4df523b3ef846040516115ea91815260200190565b60405180910390a35b50505050565b6000808263ffffffff168463ffffffff16116116155783611617565b825b90506116268787878487611e78565b979650505050505050565b6001600160a01b0382811660009081526020818152604080832054630100000890925290912054909190811690831681141561166d5750505050565b6001600160a01b03848116600090815263010000086020526040902080547fffffffffffffffffffffffff0000000000000000000000000000000000000000169185169190911790556116c1818484611f14565b826001600160a01b0316846001600160a01b03167f4bc154dd35d6a5cb9206482ecb473cdbf2473006d6bce728b9cc0741bcc59ea260405160405180910390a350505050565b60007f000000000000000000000000000000000000000000000000000000000000000046141561175657507f000000000000000000000000000000000000000000000000000000000000000090565b50604080517f00000000000000000000000000000000000000000000000000000000000000006020808301919091527f0000000000000000000000000000000000000000000000000000000000000000828401527f000000000000000000000000000000000000000000000000000000000000000060608301524660808301523060a0808401919091528351808403909101815260c0909201909252805191012090565b6001600160a01b0382166118505760405162461bcd60e51b815260206004820152601f60248201527f45524332303a206d696e7420746f20746865207a65726f2061646472657373006044820152606401610887565b61185c60008383611de5565b806002600082825461186e919061357e565b90915550506001600160a01b0382166000908152602081905260408120805483929061189b90849061357e565b90915550506040518181526001600160a01b038316906000907fddf252ad1be2c89b69c2b068fc378daa952ba7f163c4a11628f55a4df523b3ef9060200160405180910390a35050565b6001600160a01b0382166119615760405162461bcd60e51b815260206004820152602160248201527f45524332303a206275726e2066726f6d20746865207a65726f2061646472657360448201527f73000000000000000000000000000000000000000000000000000000000000006064820152608401610887565b61196d82600083611de5565b6001600160a01b038216600090815260208190526040902054818110156119fc5760405162461bcd60e51b815260206004820152602260248201527f45524332303a206275726e20616d6f756e7420657863656564732062616c616e60448201527f63650000000000000000000000000000000000000000000000000000000000006064820152608401610887565b6001600160a01b0383166000908152602081905260408120838303905560028054849290611a2b908490613667565b90915550506040518281526000906001600160a01b038516907fddf252ad1be2c89b69c2b068fc378daa952ba7f163c4a11628f55a4df523b3ef9060200160405180910390a3505050565b6060838214611aed5760405162461bcd60e51b815260206004820152602360248201527f5469636b65742f73746172742d656e642d74696d65732d6c656e6774682d6d6160448201527f74636800000000000000000000000000000000000000000000000000000000006064820152608401610887565b6040805160608101825287546001600160d01b038116825262ffffff600160d01b820481166020840152600160e81b909104169181019190915260008567ffffffffffffffff811115611b4257611b42613775565b604051908082528060200260200182016040528015611b6b578160200160208202803683370190505b5090504260005b87811015611c0557611bd68a600101858b8b85818110611b9457611b9461375f565b9050602002016020810190611ba9919061345f565b8a8a86818110611bbb57611bbb61375f565b9050602002016020810190611bd0919061345f565b866115f9565b838281518110611be857611be861375f565b602090810291909101015280611bfd816136d0565b915050611b72565b509098975050505050505050565b6001600160a01b03811660009081526005602052604090208054600181018255905b50919050565b600061076f611c48611707565b836040517f19010000000000000000000000000000000000000000000000000000000000006020820152602281018390526042810182905260009060620160405160208183030381529060405280519060200120905092915050565b6000806000611cb587878787611fa5565b91509150611cc281612092565b5095945050505050565b604080518082019091526000808252602082018190529081906040805180820190915260008082526020820152611d038888612283565b60208101519194509150611d249063ffffffff908116908890889061230316565b15611d3f57505084516001600160d01b031691506107dc9050565b6000611d4b89896123d4565b6020810151909350909150611d6c9063ffffffff808a169190899061245116565b15611d7e5760009450505050506107dc565b611d908985838a8c604001518b612520565b8094508193505050611dab83602001518360200151886126ed565b63ffffffff1682600001518460000151611dc59190613647565b611dcf91906135b6565b6001600160e01b03169998505050505050505050565b816001600160a01b0316836001600160a01b03161415611e0457505050565b60006001600160a01b03841615611e3557506001600160a01b03808416600090815263010000086020526040902054165b60006001600160a01b03841615611e6657506001600160a01b03808416600090815263010000086020526040902054165b611e71828285611f14565b5050505050565b6000806000611e8788886123d4565b91509150600080611e988a8a612283565b915091506000611eae8b8b8487878a8f8e6127b7565b90506000611ec28c8c8588888b8f8f6127b7565b9050611ed7816020015183602001518a6126ed565b63ffffffff1682600001518260000151611ef19190613647565b611efb91906135b6565b6001600160e01b03169c9b505050505050505050505050565b6001600160a01b038316158015611f3357506001600160a01b03821615155b15611f4657611f4181612901565b611f73565b6001600160a01b03831615801590611f6557506001600160a01b038216155b15611f7357611f7381612a01565b6001600160a01b03831615611f8c57611f8c8382612a3b565b6001600160a01b03821615610cdf57610cdf8282612b73565b6000807f7fffffffffffffffffffffffffffffff5d576e7357a4501ddfe92f46681b20a0831115611fdc5750600090506003612089565b8460ff16601b14158015611ff457508460ff16601c14155b156120055750600090506004612089565b6040805160008082526020820180845289905260ff881692820192909252606081018690526080810185905260019060a0016020604051602081039080840390855afa158015612059573d6000803e3d6000fd5b5050604051601f1901519150506001600160a01b03811661208257600060019250925050612089565b9150600090505b94509492505050565b60008160048111156120a6576120a6613749565b14156120af5750565b60018160048111156120c3576120c3613749565b14156121115760405162461bcd60e51b815260206004820152601860248201527f45434453413a20696e76616c6964207369676e617475726500000000000000006044820152606401610887565b600281600481111561212557612125613749565b14156121735760405162461bcd60e51b815260206004820152601f60248201527f45434453413a20696e76616c6964207369676e6174757265206c656e677468006044820152606401610887565b600381600481111561218757612187613749565b14156121fb5760405162461bcd60e51b815260206004820152602260248201527f45434453413a20696e76616c6964207369676e6174757265202773272076616c60448201527f75650000000000000000000000000000000000000000000000000000000000006064820152608401610887565b600481600481111561220f5761220f613749565b1415610ab05760405162461bcd60e51b815260206004820152602260248201527f45434453413a20696e76616c6964207369676e6174757265202776272076616c60448201527f75650000000000000000000000000000000000000000000000000000000000006064820152608401610887565b60408051808201909152600080825260208201819052906122b2836020015162ffffff1662ffffff8016612ba4565b9150838262ffffff1662ffffff81106122cd576122cd61375f565b604080518082019091529101546001600160e01b0381168252600160e01b900463ffffffff166020820152919491935090915050565b60008163ffffffff168463ffffffff161115801561232d57508163ffffffff168363ffffffff1611155b15612349578263ffffffff168463ffffffff16111590506108a3565b60008263ffffffff168563ffffffff16116123785761237363ffffffff8616640100000000613596565b612380565b8463ffffffff165b64ffffffffff16905060008363ffffffff168563ffffffff16116123b8576123b363ffffffff8616640100000000613596565b6123c0565b8463ffffffff165b64ffffffffff169091111595945050505050565b604080518082019091526000808252602082018190529082602001519150838262ffffff1662ffffff811061240b5761240b61375f565b604080518082019091529101546001600160e01b0381168252600160e01b900463ffffffff166020820181905290915061244a576000915083826122cd565b9250929050565b60008163ffffffff168463ffffffff161115801561247b57508163ffffffff168363ffffffff1611155b15612496578263ffffffff168463ffffffff161090506108a3565b60008263ffffffff168563ffffffff16116124c5576124c063ffffffff8616640100000000613596565b6124cd565b8463ffffffff165b64ffffffffff16905060008363ffffffff168563ffffffff16116125055761250063ffffffff8616640100000000613596565b61250d565b8463ffffffff165b64ffffffffff1690911095945050505050565b6040805180820190915260008082526020820152604080518082019091526000808252602082015260008662ffffff1690506000818962ffffff161061256b578862ffffff16612586565b600161257c62ffffff88168461357e565b6125869190613667565b905060005b6002612597838561357e565b6125a191906135dc565b90508a6125b3828962ffffff16612bce565b62ffffff1662ffffff81106125ca576125ca61375f565b604080518082019091529101546001600160e01b0381168252600160e01b900463ffffffff1660208201819052909550806126125761260a82600161357e565b93505061258b565b8b612622838a62ffffff16612bda565b62ffffff1662ffffff81106126395761263961375f565b604080518082019091529101546001600160e01b038116825263ffffffff600160e01b9091048116602083015290955060009061267e90838116908c908b9061230316565b90508080156126a757506126a78660200151898c63ffffffff166123039092919063ffffffff16565b156126b35750506126df565b806126ca576126c3600184613667565b93506126d8565b6126d583600161357e565b94505b505061258b565b505050965096945050505050565b60008163ffffffff168463ffffffff161115801561271757508163ffffffff168363ffffffff1611155b1561272d57612726838561367e565b90506108a3565b60008263ffffffff168563ffffffff161161275c5761275763ffffffff8616640100000000613596565b612764565b8463ffffffff165b64ffffffffff16905060008363ffffffff168563ffffffff161161279c5761279763ffffffff8616640100000000613596565b6127a4565b8463ffffffff165b64ffffffffff169050610d0c8183613667565b60408051808201909152600080825260208201526127ea8383896020015163ffffffff166124519092919063ffffffff16565b1561280e576128078789600001516001600160d01b031685612bea565b90506128f5565b8263ffffffff16876020015163ffffffff16141561282d5750856128f5565b8263ffffffff16866020015163ffffffff16141561284c5750846128f5565b61286b8660200151838563ffffffff166124519092919063ffffffff16565b156128905750604080518082019091526000815263ffffffff831660208201526128f5565b6000806128a58b8888888e6040015189612520565b9150915060006128be82602001518460200151876126ed565b63ffffffff16836000015183600001516128d89190613647565b6128e291906135b6565b90506128ef838288612bea565b93505050505b98975050505050505050565b806129095750565b6000806000612922600861291c86612c65565b42612ce8565b825160088054602086015160408701516001600160d01b039094167fffffff000000000000000000000000000000000000000000000000000000000090921691909117600160d01b62ffffff92831602177cffffffffffffffffffffffffffffffffffffffffffffffffffffffffff16600160e81b91909316029190911790559194509250905080156115f3576040805183516001600160e01b0316815260208085015163ffffffff16908201527f3375b905d617084fa6b7531688cc8046feb1f1a0b8ba2273de03c59d8d84416c910160405180910390a150505050565b80612a095750565b60008060006129226008612a1c86612c65565b6040518060600160405280602c81526020016137ae602c913942612d91565b80612a44575050565b6001600160a01b0382166000908152600760205260408120908080612a8b84612a6c87612c65565b60405180606001604052806022815260200161378c6022913942612d91565b82518754602085015160408601516001600160d01b039093167fffffff000000000000000000000000000000000000000000000000000000000090921691909117600160d01b62ffffff92831602177cffffffffffffffffffffffffffffffffffffffffffffffffffffffffff16600160e81b9190921602178755919450925090508015612b6b576040805183516001600160e01b0316815260208085015163ffffffff16908201526001600160a01b038816917fdd3e7cd3a260a292b0b3306b2ca62f30a7349619a9d09c58109318774c6b627d910160405180910390a25b505050505050565b80612b7c575050565b6001600160a01b0382166000908152600760205260408120908080612a8b8461291c87612c65565b600081612bb35750600061076f565b6108a36001612bc2848661357e565b612bcc9190613667565b835b60006108a38284613709565b60006108a3612bcc84600161357e565b60408051808201909152600080825260208201526040518060400160405280612c288660200151858663ffffffff166126ed9092919063ffffffff16565b612c389063ffffffff16866135f0565b8651612c44919061353e565b6001600160e01b031681526020018363ffffffff1681525090509392505050565b60006001600160d01b03821115612ce45760405162461bcd60e51b815260206004820152602760248201527f53616665436173743a2076616c756520646f65736e27742066697420696e203260448201527f30382062697473000000000000000000000000000000000000000000000000006064820152608401610887565b5090565b604080516060810182526000808252602082018190529181019190915260408051808201909152600080825260208201526040805160608101825286546001600160d01b038116825262ffffff600160d01b820481166020840152600160e81b9091041691810191909152600090612d64600188018287612e64565b83519296509094509250612d79908790613513565b6001600160d01b031684525091959094509092509050565b604080516060810182526000808252602082018190529181019190915260408051808201909152600080825260208201526040805160608101825287546001600160d01b0380821680845262ffffff600160d01b840481166020860152600160e81b9093049092169383019390935260009287919089161115612e275760405162461bcd60e51b815260040161088791906134be565b50612e36886001018287612e64565b83519296509094509250612e4b90889061361f565b6001600160d01b03168452509196909550909350915050565b60408051606081018252600080825260208201819052918101919091526040805180820190915260008082526020820152600080612ea28787612283565b9150508463ffffffff16816020015163ffffffff161415612ecb57859350915060009050612f42565b6000612ee58288600001516001600160d01b031688612bea565b90508088886020015162ffffff1662ffffff8110612f0557612f0561375f565b825160209093015163ffffffff16600160e01b026001600160e01b03909316929092179101556000612f3688612f4b565b95509093506001925050505b93509350939050565b60408051606081018252600080825260208083018290529282015290820151612f7b9062ffffff90811690612bda565b62ffffff9081166020840152604083015181161015612ce457600182604001818151612fa79190613560565b62ffffff169052505090565b80356001600160a01b0381168114612fca57600080fd5b919050565b60008083601f840112612fe157600080fd5b50813567ffffffffffffffff811115612ff957600080fd5b6020830191508360208260051b850101111561244a57600080fd5b803563ffffffff81168114612fca57600080fd5b803567ffffffffffffffff81168114612fca57600080fd5b803560ff81168114612fca57600080fd5b60006020828403121561306357600080fd5b6108a382612fb3565b6000806040838503121561307f57600080fd5b61308883612fb3565b915061309660208401612fb3565b90509250929050565b6000806000606084860312156130b457600080fd5b6130bd84612fb3565b92506130cb60208501612fb3565b9150604084013590509250925092565b600080600080600080600060e0888a0312156130f657600080fd5b6130ff88612fb3565b965061310d60208901612fb3565b9550604088013594506060880135935061312960808901613040565b925060a0880135915060c0880135905092959891949750929550565b60008060008060008060c0878903121561315e57600080fd5b61316787612fb3565b955061317560208801612fb3565b94506040870135935061318a60608801613040565b92506080870135915060a087013590509295509295509295565b6000806000604084860312156131b957600080fd5b6131c284612fb3565b9250602084013567ffffffffffffffff8111156131de57600080fd5b6131ea86828701612fcf565b9497909650939450505050565b60008060008060006060868803121561320f57600080fd5b61321886612fb3565b9450602086013567ffffffffffffffff8082111561323557600080fd5b61324189838a01612fcf565b9096509450604088013591508082111561325a57600080fd5b5061326788828901612fcf565b969995985093965092949392505050565b6000806040838503121561328b57600080fd5b61329483612fb3565b9150602083013561ffff811681146132ab57600080fd5b809150509250929050565b600080604083850312156132c957600080fd5b6132d283612fb3565b946020939093013593505050565b600080604083850312156132f357600080fd5b6132fc83612fb3565b915061309660208401613014565b60008060006060848603121561331f57600080fd5b61332884612fb3565b925061333660208501613014565b915061334460408501613014565b90509250925092565b6000806040838503121561336057600080fd5b61336983612fb3565b915061309660208401613028565b60008060006060848603121561338c57600080fd5b61339584612fb3565b92506133a360208501613028565b915061334460408501613028565b600080602083850312156133c457600080fd5b823567ffffffffffffffff8111156133db57600080fd5b6133e785828601612fcf565b90969095509350505050565b6000806000806040858703121561340957600080fd5b843567ffffffffffffffff8082111561342157600080fd5b61342d88838901612fcf565b9096509450602087013591508082111561344657600080fd5b5061345387828801612fcf565b95989497509550505050565b60006020828403121561347157600080fd5b6108a382613028565b6020808252825182820181905260009190848201906040850190845b818110156134b257835183529284019291840191600101613496565b50909695505050505050565b600060208083528351808285015260005b818110156134eb578581018301518582016040015282016134cf565b818111156134fd576000604083870101525b50601f01601f1916929092016040019392505050565b60006001600160d01b038083168185168083038211156135355761353561371d565b01949350505050565b60006001600160e01b038083168185168083038211156135355761353561371d565b600062ffffff8083168185168083038211156135355761353561371d565b600082198211156135915761359161371d565b500190565b600064ffffffffff8083168185168083038211156135355761353561371d565b60006001600160e01b03808416806135d0576135d0613733565b92169190910492915050565b6000826135eb576135eb613733565b500490565b60006001600160e01b03808316818516818304811182151516156136165761361661371d565b02949350505050565b60006001600160d01b038381169083168181101561363f5761363f61371d565b039392505050565b60006001600160e01b038381169083168181101561363f5761363f61371d565b6000828210156136795761367961371d565b500390565b600063ffffffff8381169083168181101561363f5761363f61371d565b600181811c908216806136af57607f821691505b60208210811415611c3557634e487b7160e01b600052602260045260246000fd5b60007fffffffffffffffffffffffffffffffffffffffffffffffffffffffffffffffff8214156137025761370261371d565b5060010190565b60008261371857613718613733565b500690565b634e487b7160e01b600052601160045260246000fd5b634e487b7160e01b600052601260045260246000fd5b634e487b7160e01b600052602160045260246000fd5b634e487b7160e01b600052603260045260246000fd5b634e487b7160e01b600052604160045260246000fdfe45524332303a206275726e20616d6f756e7420657863656564732062616c616e63655469636b65742f6275726e2d616d6f756e742d657863656564732d746f74616c2d737570706c792d74776162a26469706673582212208275f72c403f6fc90e78bdd02dca6e693e96efc7bbafb251154534fd02288ea064736f6c63430008060033",
  "linkReferences": {},
  "deployedLinkReferences": {}
}