{
  "_format": "hh-sol-artifact-1",
  "contractName": "IndexPoolFactory",
  "sourceName": "contracts/pool/IndexPoolFactory.sol",
  "abi": [
    {
      "inputs": [
        {
          "internalType": "address",
          "name": "_masterDeployer",
          "type": "address"
        }
      ],
      "stateMutability": "nonpayable",
      "type": "constructor"
    },
    {
      "inputs": [
        {
          "internalType": "bytes32",
          "name": "",
          "type": "bytes32"
        }
      ],
      "name": "configAddress",
      "outputs": [
        {
          "internalType": "address",
          "name": "",
          "type": "address"
        }
      ],
      "stateMutability": "view",
      "type": "function"
    },
    {
      "inputs": [
        {
          "internalType": "bytes",
          "name": "_deployData",
          "type": "bytes"
        }
      ],
      "name": "deployPool",
      "outputs": [
        {
          "internalType": "address",
          "name": "pool",
          "type": "address"
        }
      ],
      "stateMutability": "nonpayable",
      "type": "function"
    },
    {
      "inputs": [
        {
          "internalType": "address",
          "name": "token0",
          "type": "address"
        },
        {
          "internalType": "address",
          "name": "token1",
          "type": "address"
        },
        {
          "internalType": "uint256",
          "name": "startIndex",
          "type": "uint256"
        },
        {
          "internalType": "uint256",
          "name": "endIndex",
          "type": "uint256"
        }
      ],
      "name": "getPools",
      "outputs": [
        {
          "internalType": "address[]",
          "name": "pairPools",
          "type": "address[]"
        }
      ],
      "stateMutability": "view",
      "type": "function"
    },
    {
      "inputs": [],
      "name": "masterDeployer",
      "outputs": [
        {
          "internalType": "address",
          "name": "",
          "type": "address"
        }
      ],
      "stateMutability": "view",
      "type": "function"
    },
    {
      "inputs": [
        {
          "internalType": "address",
          "name": "",
          "type": "address"
        },
        {
          "internalType": "address",
          "name": "",
          "type": "address"
        },
        {
          "internalType": "uint256",
          "name": "",
          "type": "uint256"
        }
      ],
      "name": "pools",
      "outputs": [
        {
          "internalType": "address",
          "name": "",
          "type": "address"
        }
      ],
      "stateMutability": "view",
      "type": "function"
    },
    {
      "inputs": [
        {
          "internalType": "address",
          "name": "token0",
          "type": "address"
        },
        {
          "internalType": "address",
          "name": "token1",
          "type": "address"
        }
      ],
      "name": "poolsCount",
      "outputs": [
        {
          "internalType": "uint256",
          "name": "count",
          "type": "uint256"
        }
      ],
      "stateMutability": "view",
      "type": "function"
    }
  ],
  "bytecode": "0x60a060405234801561001057600080fd5b50604051614c01380380614c0183398101604081905261002f9161008f565b806001600160a01b0381166100795760405162461bcd60e51b815260206004820152600c60248201526b5a45524f5f4144445245535360a01b604482015260640160405180910390fd5b60601b6001600160601b031916608052506100bf565b6000602082840312156100a157600080fd5b81516001600160a01b03811681146100b857600080fd5b9392505050565b60805160601c614b166100eb6000396000818161015a0152818161023501526103f90152614b166000f3fe60806040523480156200001157600080fd5b50600436106200007b5760003560e01c806371a25812116200005657806371a25812146200012e578063cf58879a1462000154578063f6ab6d99146200017c57600080fd5b8063169c4cef146200008057806327c3cae114620000c15780635bc93d6c14620000d8575b600080fd5b6200009762000091366004620008fd565b620001b5565b60405173ffffffffffffffffffffffffffffffffffffffff90911681526020015b60405180910390f35b62000097620000d236600462000a8b565b62000208565b6200011f620000e9366004620008bf565b73ffffffffffffffffffffffffffffffffffffffff91821660009081526020818152604080832093909416825291909152205490565b604051908152602001620000b8565b620001456200013f36600462000943565b620002a7565b604051620000b8919062000b47565b620000977f000000000000000000000000000000000000000000000000000000000000000081565b620000976200018d36600462000a71565b60016020526000908152604090205473ffffffffffffffffffffffffffffffffffffffff1681565b60006020528260005260406000206020528160005260406000208181548110620001de57600080fd5b60009182526020909120015473ffffffffffffffffffffffffffffffffffffffff16925083915050565b600080828060200190518101906200022191906200098e565b5050905060008380519060200120905080847f0000000000000000000000000000000000000000000000000000000000000000604051620002629062000837565b6200026f92919062000ba3565b8190604051809103906000f590508015801562000290573d6000803e3d6000fd5b509250620002a0838383620003e1565b5050919050565b6060620002b5838362000cb0565b67ffffffffffffffff811115620002d057620002d062000d64565b604051908082528060200260200182016040528015620002fa578160200160208202803683370190505b50905060005b82841015620003d85773ffffffffffffffffffffffffffffffffffffffff8087166000908152602081815260408083209389168352929052208054859081106200034e576200034e62000d35565b9060005260206000200160009054906101000a900473ffffffffffffffffffffffffffffffffffffffff168282815181106200038e576200038e62000d35565b73ffffffffffffffffffffffffffffffffffffffff9092166020928302919091019091015283620003bf8162000cca565b9450508080620003cf9062000cca565b91505062000300565b50949350505050565b3373ffffffffffffffffffffffffffffffffffffffff7f0000000000000000000000000000000000000000000000000000000000000000161462000486576040517f08c379a000000000000000000000000000000000000000000000000000000000815260206004820152601560248201527f554e415554484f52495a45445f4445504c4f594552000000000000000000000060448201526064015b60405180910390fd5b60008181526001602052604090205473ffffffffffffffffffffffffffffffffffffffff161562000514576040517f08c379a000000000000000000000000000000000000000000000000000000000815260206004820152601560248201527f504f4f4c5f414c52454144595f4445504c4f594544000000000000000000000060448201526064016200047d565b600081815260016020526040812080547fffffffffffffffffffffffff00000000000000000000000000000000000000001673ffffffffffffffffffffffffffffffffffffffff86161790555b6001835103811015620008315782816001018151811062000586576200058662000d35565b602002602001015173ffffffffffffffffffffffffffffffffffffffff16838281518110620005b957620005b962000d35565b602002602001015173ffffffffffffffffffffffffffffffffffffffff161062000640576040517f08c379a000000000000000000000000000000000000000000000000000000000815260206004820152601360248201527f494e56414c49445f544f4b454e5f4f524445520000000000000000000000000060448201526064016200047d565b600181015b8351811015620008275760008085848151811062000667576200066762000d35565b602002602001015173ffffffffffffffffffffffffffffffffffffffff1673ffffffffffffffffffffffffffffffffffffffff1681526020019081526020016000206000858381518110620006c057620006c062000d35565b60209081029190910181015173ffffffffffffffffffffffffffffffffffffffff90811683528282019390935260409091016000908120805460018101825590825291812090910180547fffffffffffffffffffffffff00000000000000000000000000000000000000001692881692909217909155845181908690849081106200074f576200074f62000d35565b602002602001015173ffffffffffffffffffffffffffffffffffffffff1673ffffffffffffffffffffffffffffffffffffffff1681526020019081526020016000206000858481518110620007a857620007a862000d35565b60209081029190910181015173ffffffffffffffffffffffffffffffffffffffff908116835282820193909352604090910160009081208054600180820183559183529290912090910180547fffffffffffffffffffffffff000000000000000000000000000000000000000016928816929092179091550162000645565b5060010162000561565b50505050565b613d278062000dba83390190565b600082601f8301126200085757600080fd5b81516020620008706200086a8362000c89565b62000c37565b80838252828201915082860187848660051b89010111156200089157600080fd5b60005b85811015620008b25781518452928401929084019060010162000894565b5090979650505050505050565b60008060408385031215620008d357600080fd5b8235620008e08162000d93565b91506020830135620008f28162000d93565b809150509250929050565b6000806000606084860312156200091357600080fd5b8335620009208162000d93565b92506020840135620009328162000d93565b929592945050506040919091013590565b600080600080608085870312156200095a57600080fd5b8435620009678162000d93565b93506020850135620009798162000d93565b93969395505050506040820135916060013590565b600080600060608486031215620009a457600080fd5b835167ffffffffffffffff80821115620009bd57600080fd5b818601915086601f830112620009d257600080fd5b81516020620009e56200086a8362000c89565b8083825282820191508286018b848660051b890101111562000a0657600080fd5b600096505b8487101562000a3657805162000a218162000d93565b83526001969096019591830191830162000a0b565b509189015191975090935050508082111562000a5157600080fd5b5062000a608682870162000845565b925050604084015190509250925092565b60006020828403121562000a8457600080fd5b5035919050565b6000602080838503121562000a9f57600080fd5b823567ffffffffffffffff8082111562000ab857600080fd5b818501915085601f83011262000acd57600080fd5b81358181111562000ae25762000ae262000d64565b62000b14847fffffffffffffffffffffffffffffffffffffffffffffffffffffffffffffffe0601f8401160162000c37565b9150808252868482850101111562000b2b57600080fd5b8084840185840137600090820190930192909252509392505050565b6020808252825182820181905260009190848201906040850190845b8181101562000b9757835173ffffffffffffffffffffffffffffffffffffffff168352928401929184019160010162000b63565b50909695505050505050565b604081526000835180604084015260005b8181101562000bd3576020818701810151606086840101520162000bb4565b8181111562000be6576000606083860101525b5073ffffffffffffffffffffffffffffffffffffffff93909316602083015250601f919091017fffffffffffffffffffffffffffffffffffffffffffffffffffffffffffffffe01601606001919050565b604051601f82017fffffffffffffffffffffffffffffffffffffffffffffffffffffffffffffffe016810167ffffffffffffffff8111828210171562000c815762000c8162000d64565b604052919050565b600067ffffffffffffffff82111562000ca65762000ca662000d64565b5060051b60200190565b60008282101562000cc55762000cc562000d06565b500390565b60007fffffffffffffffffffffffffffffffffffffffffffffffffffffffffffffffff82141562000cff5762000cff62000d06565b5060010190565b7f4e487b7100000000000000000000000000000000000000000000000000000000600052601160045260246000fd5b7f4e487b7100000000000000000000000000000000000000000000000000000000600052603260045260246000fd5b7f4e487b7100000000000000000000000000000000000000000000000000000000600052604160045260246000fd5b73ffffffffffffffffffffffffffffffffffffffff8116811462000db657600080fd5b5056fe6101206040523480156200001257600080fd5b5060405162003d2738038062003d278339810160408190526200003591620009bd565b604080518082018252600e81526d29bab9b434902628102a37b5b2b760911b6020918201528151808301835260018152603160f81b9082015281517f8b73c3c69bb8fe3d512ecc4cf759cc79239f7b179b0ffacaa9a75d522b39400f918101919091527fc2bf45081e840722410522aa366600d7fe4da5bfb5a5b417f4d5125b4ed180a4918101919091527fc89efdaa54c0f20c7adf612882df0950f5a951637e0307cdcb4c672f298b8bc660608201524660808201523060a082015260c00160405160208183030381529060405280519060200120608081815250506000806000848060200190518101906200012d9190620008db565b92509250925081518351146200017b5760405162461bcd60e51b815260206004820152600e60248201526d494e56414c49445f41525241595360901b60448201526064015b60405180910390fd5b8062000193620f4240670de0b6b3a764000062000b4e565b11158015620001b65750620001b2600a670de0b6b3a764000062000b4e565b8111155b620001f75760405162461bcd60e51b815260206004820152601060248201526f494e56414c49445f535741505f46454560801b604482015260640162000172565b82516002111580156200020c57506008835111155b6200025a5760405162461bcd60e51b815260206004820152601560248201527f494e56414c49445f544f4b454e535f4c454e4754480000000000000000000000604482015260640162000172565b60005b8351811015620005035760006001600160a01b031684828151811062000287576200028762000bfa565b60200260200101516001600160a01b03161415620002d75760405162461bcd60e51b815260206004820152600c60248201526b5a45524f5f4144445245535360a01b604482015260640162000172565b828181518110620002ec57620002ec62000bfa565b60200260200101516001600160881b0316670de0b6b3a7640000111580156200034e575062000325670de0b6b3a7640000603262000b71565b8382815181106200033a576200033a62000bfa565b60200260200101516001600160881b031611155b6200038d5760405162461bcd60e51b815260206004820152600e60248201526d1253959053125117d5d15251d21560921b604482015260640162000172565b604051806040016040528060006001600160781b03168152602001848381518110620003bd57620003bd62000bfa565b60200260200101516001600160881b031681525060086000868481518110620003ea57620003ea62000bfa565b6020908102919091018101516001600160a01b0316825281810192909252604001600020825192909101516001600160881b0316600160781b026001600160781b0390921691909117905583516005908590839081106200044f576200044f62000bfa565b60209081029190910181015182546001810184556000938452919092200180546001600160a01b0319166001600160a01b039092169190911790558251839082908110620004a157620004a162000bfa565b602090810291909101015160048054600090620004c99084906001600160881b031662000b05565b92506101000a8154816001600160881b0302191690836001600160881b031602179055508080620004fa9062000bc6565b9150506200025d565b5062000519670de0b6b3a7640000603262000b71565b6004546001600160881b03161115620005685760405162461bcd60e51b815260206004820152601060248201526f13505617d513d5105317d5d15251d21560821b604482015260640162000172565b62000589600062000583670de0b6b3a7640000606462000b71565b620007b7565b60408051600481526024810182526020810180516001600160e01b03166360a56c0160e11b17905290516000916001600160a01b03871691620005cd919062000a8e565b600060405180830381855afa9150503d80600081146200060a576040519150601f19603f3d011682016040523d82523d6000602084013e6200060f565b606091505b5060408051600481526024810182526020810180516001600160e01b0316630605066960e11b1790529051919350600092506001600160a01b0388169162000658919062000a8e565b600060405180830381855afa9150503d806000811462000695576040519150601f19603f3d011682016040523d82523d6000602084013e6200069a565b606091505b5060408051600481526024810182526020810180516001600160e01b0316634da3182760e01b1790529051919350600092506001600160a01b03891691620006e3919062000a8e565b600060405180830381855afa9150503d806000811462000720576040519150601f19603f3d011682016040523d82523d6000602084013e62000725565b606091505b5060a086905284519092506200074691508401602090810190850162000a74565b6006558151620007609083016020908101908401620008b4565b60601b6001600160601b03191660c0528051620007879060209083018101908301620008b4565b6001600160601b0319606091821b811660e05297901b90961661010052505060016007555062000c3f9350505050565b80600080828254620007ca919062000b33565b90915550506001600160a01b0382166000818152600160209081526040808320805486019055518481527fddf252ad1be2c89b69c2b068fc378daa952ba7f163c4a11628f55a4df523b3ef910160405180910390a35050565b600082601f8301126200083557600080fd5b815160206200084e620008488362000adf565b62000aac565b80838252828201915082860187848660051b89010111156200086f57600080fd5b6000805b86811015620008a65782516001600160881b038116811462000893578283fd5b8552938501939185019160010162000873565b509198975050505050505050565b600060208284031215620008c757600080fd5b8151620008d48162000c26565b9392505050565b600080600060608486031215620008f157600080fd5b83516001600160401b03808211156200090957600080fd5b818601915086601f8301126200091e57600080fd5b8151602062000931620008488362000adf565b8083825282820191508286018b848660051b89010111156200095257600080fd5b600096505b84871015620009825780516200096d8162000c26565b83526001969096019591830191830162000957565b50918901519197509093505050808211156200099d57600080fd5b50620009ac8682870162000823565b925050604084015190509250925092565b60008060408385031215620009d157600080fd5b82516001600160401b0380821115620009e957600080fd5b818501915085601f830112620009fe57600080fd5b81518181111562000a135762000a1362000c10565b62000a28601f8201601f191660200162000aac565b915080825286602082850101111562000a4057600080fd5b62000a5381602084016020860162000b93565b508093505050602083015162000a698162000c26565b809150509250929050565b60006020828403121562000a8757600080fd5b5051919050565b6000825162000aa281846020870162000b93565b9190910192915050565b604051601f8201601f191681016001600160401b038111828210171562000ad75762000ad762000c10565b604052919050565b60006001600160401b0382111562000afb5762000afb62000c10565b5060051b60200190565b60006001600160881b0382811684821680830382111562000b2a5762000b2a62000be4565b01949350505050565b6000821982111562000b495762000b4962000be4565b500190565b60008262000b6c57634e487b7160e01b600052601260045260246000fd5b500490565b600081600019048311821515161562000b8e5762000b8e62000be4565b500290565b60005b8381101562000bb057818101518382015260200162000b96565b8381111562000bc0576000848401525b50505050565b600060001982141562000bdd5762000bdd62000be4565b5060010190565b634e487b7160e01b600052601160045260246000fd5b634e487b7160e01b600052603260045260246000fd5b634e487b7160e01b600052604160045260246000fd5b6001600160a01b038116811462000c3c57600080fd5b50565b60805160a05160c05160601c60e05160601c6101005160601c61306962000cbe6000396000818161057b01526117c70152600081816103ed015281816120580152818161218701526122fd0152600061026b01526000818161041401528181611a0d0152611f580152600081816103340152611c2101526130696000f3fe608060405234801561001057600080fd5b50600436106101cf5760003560e01c806367e4ac2c11610104578063a69840a8116100a2578063c14ad80211610071578063c14ad8021461056d578063cf58879a14610576578063d505accf1461059d578063dd62ed3e146105b057600080fd5b8063a69840a81461050d578063a8f1f52e14610534578063a9059cbb14610547578063af8c09bf1461055a57600080fd5b80637ecebe00116100de5780637ecebe00146104915780638ae45441146104b157806392bc3219146104c757806395d89b41146104d157600080fd5b806367e4ac2c1461044957806370a082311461045e5780637ba0e2e71461047e57600080fd5b806330adf81f11610171578063469e90671161014b578063469e9067146103565780634da31827146103e857806354cf2aeb1461040f578063627dd56a1461043657600080fd5b806330adf81f146102ee578063313ce567146103155780633644e5151461032f57600080fd5b80630c0a0cd2116101ad5780630c0a0cd21461026657806318160ddd146102b257806323b872dd146102bb5780632a07b6c7146102ce57600080fd5b8063053da1c8146101d457806306fdde03146101fa578063095ea7b314610243575b600080fd5b6101e76101e2366004612bcd565b6105db565b6040519081526020015b60405180910390f35b6102366040518060400160405280600e81526020017f5375736869204c5020546f6b656e00000000000000000000000000000000000081525081565b6040516101f19190612e46565b610256610251366004612ab0565b610983565b60405190151581526020016101f1565b61028d7f000000000000000000000000000000000000000000000000000000000000000081565b60405173ffffffffffffffffffffffffffffffffffffffff90911681526020016101f1565b6101e760005481565b6102566102c9366004612b15565b6109fd565b6102e16102dc366004612bcd565b610b49565b6040516101f19190612d53565b6101e77f6e71edae12b1b97f4d1f60370fef10105fa2faae0126114a169c64845d6126c981565b61031d601281565b60405160ff90911681526020016101f1565b6101e77f000000000000000000000000000000000000000000000000000000000000000081565b6103af610364366004612884565b6008602052600090815260409020546effffffffffffffffffffffffffffff8116906f01000000000000000000000000000000900470ffffffffffffffffffffffffffffffffff1682565b604080516effffffffffffffffffffffffffffff909316835270ffffffffffffffffffffffffffffffffff9091166020830152016101f1565b61028d7f000000000000000000000000000000000000000000000000000000000000000081565b6101e77f000000000000000000000000000000000000000000000000000000000000000081565b6101e7610444366004612bcd565b610eca565b6104516111f4565b6040516101f19190612cf9565b6101e761046c366004612884565b60016020526000908152604090205481565b6101e761048c366004612bcd565b611263565b6101e761049f366004612884565b60036020526000908152604090205481565b6104b9611585565b6040516101f1929190612db8565b6104cf611755565b005b6102366040518060400160405280600381526020017f534c50000000000000000000000000000000000000000000000000000000000081525081565b6101e77f54726964656e743a496e6465780000000000000000000000000000000000000081565b6101e7610542366004612bcd565b611850565b610256610555366004612ab0565b611886565b6101e7610568366004612bcd565b61190b565b6101e760065481565b61028d7f000000000000000000000000000000000000000000000000000000000000000081565b6104cf6105ab366004612b56565b611b8e565b6101e76105be366004612adc565b600260209081526000928352604080842090915290825290205481565b600060075460011461064e576040517f08c379a000000000000000000000000000000000000000000000000000000000815260206004820152600660248201527f4c4f434b4544000000000000000000000000000000000000000000000000000060448201526064015b60405180910390fd5b600260075560008080808080610666888a018a612903565b73ffffffffffffffffffffffffffffffffffffffff808716600090815260086020526040808220928816825290208154979d50959b5093995091975095509350916106d4906effffffffffffffffffffffffffffff166106cf6002670de0b6b3a7640000612e71565b611ef6565b84111561073d576040517f08c379a000000000000000000000000000000000000000000000000000000000815260206004820152600c60248201527f4d41585f494e5f524154494f00000000000000000000000000000000000000006044820152606401610645565b815481546107939186916effffffffffffffffffffffffffffff8083169270ffffffffffffffffffffffffffffffffff6f0100000000000000000000000000000091829004811693928316929190910416611f41565b6040517fbd50c7b1000000000000000000000000000000000000000000000000000000008152909950339063bd50c7b1906107d2908690600401612e46565b600060405180830381600087803b1580156107ec57600080fd5b505af1158015610800573d6000803e3d6000fd5b505083546effffffffffffffffffffffffffffff1686019150610824905089611fcb565b101561088c576040517f08c379a000000000000000000000000000000000000000000000000000000000815260206004820152600c60248201527f4e4f545f524543454956454400000000000000000000000000000000000000006044820152606401610645565b81546effffffffffffffffffffffffffffff808216860181167fffffffffffffffffffffffffffffffffff00000000000000000000000000000092831617845582548082168c900390911691161781556108e8878a88886120e4565b8673ffffffffffffffffffffffffffffffffffffffff168873ffffffffffffffffffffffffffffffffffffffff168773ffffffffffffffffffffffffffffffffffffffff167fcd3829a3813dc3cdd188fd3d01dcf3268c16be2fdd2dd21d0665418816e46062878d604051610967929190918252602082015260400190565b60405180910390a4505060016007555094979650505050505050565b33600081815260026020908152604080832073ffffffffffffffffffffffffffffffffffffffff8716808552925280832085905551919290917f8c5be1e5ebec7d5bd14f71427d1e84f3dd0314c0f7b2291e5b200ac8c7c3b925906109eb9086815260200190565b60405180910390a35060015b92915050565b73ffffffffffffffffffffffffffffffffffffffff831660009081526002602090815260408083203384529091528120547fffffffffffffffffffffffffffffffffffffffffffffffffffffffffffffffff14610a9a5773ffffffffffffffffffffffffffffffffffffffff8416600090815260026020908152604080832033845290915281208054849290610a94908490612ec2565b90915550505b73ffffffffffffffffffffffffffffffffffffffff841660009081526001602052604081208054849290610acf908490612ec2565b909155505073ffffffffffffffffffffffffffffffffffffffff808416600081815260016020526040908190208054860190555190918616907fddf252ad1be2c89b69c2b068fc378daa952ba7f163c4a11628f55a4df523b3ef90610b379086815260200190565b60405180910390a35060019392505050565b6060600754600114610bb7576040517f08c379a000000000000000000000000000000000000000000000000000000000815260206004820152600660248201527f4c4f434b454400000000000000000000000000000000000000000000000000006044820152606401610645565b600260075560008080610bcc85870187612a72565b9250925092506000610be0826000546123dc565b60055490915067ffffffffffffffff811115610bfe57610bfe612fdf565b604051908082528060200260200182016040528015610c4357816020015b6040805180820190915260008082526020820152815260200190600190039081610c1c5790505b509450610c503083612416565b60005b600554811015610eb957600060058281548110610c7257610c72612fb0565b600091825260208083209091015473ffffffffffffffffffffffffffffffffffffffff16808352600890915260408220549092506effffffffffffffffffffffffffffff1690610cc28583611ef6565b90506effffffffffffffffffffffffffffff8116610d3c576040517f08c379a000000000000000000000000000000000000000000000000000000000815260206004820152600860248201527f5a45524f5f4f55540000000000000000000000000000000000000000000000006044820152606401610645565b73ffffffffffffffffffffffffffffffffffffffff8316600090815260086020526040902080547fffffffffffffffffffffffffffffffffff00000000000000000000000000000081166effffffffffffffffffffffffffffff918216849003821617909155610db190849083168a8a6120e4565b60405180604001604052808473ffffffffffffffffffffffffffffffffffffffff168152602001826effffffffffffffffffffffffffffff16815250898581518110610dff57610dff612fb0565b60200260200101819052508773ffffffffffffffffffffffffffffffffffffffff163373ffffffffffffffffffffffffffffffffffffffff167f3dd1df88dc92e2788892542d81f999d720a44b4c127065d45c128f4f59fdc3738584604051610e9b92919073ffffffffffffffffffffffffffffffffffffffff9290921682526effffffffffffffffffffffffffffff16602082015260400190565b60405180910390a35050508080610eb190612f05565b915050610c53565b505060016007555091949350505050565b6000600754600114610f38576040517f08c379a000000000000000000000000000000000000000000000000000000000815260206004820152600660248201527f4c4f434b454400000000000000000000000000000000000000000000000000006044820152606401610645565b6002600755600080808080610f4f878901896128a1565b73ffffffffffffffffffffffffffffffffffffffff808616600090815260086020526040808220928716825290208154969b50949950929750909550935091610fb6906effffffffffffffffffffffffffffff166106cf6002670de0b6b3a7640000612e71565b83111561101f576040517f08c379a000000000000000000000000000000000000000000000000000000000815260206004820152600c60248201527f4d41585f494e5f524154494f00000000000000000000000000000000000000006044820152606401610645565b815481546110759185916effffffffffffffffffffffffffffff8083169270ffffffffffffffffffffffffffffffffff6f0100000000000000000000000000000091829004811693928316929190910416611f41565b82549098506effffffffffffffffffffffffffffff16830161109688611fcb565b10156110fe576040517f08c379a000000000000000000000000000000000000000000000000000000000815260206004820152600c60248201527f4e4f545f524543454956454400000000000000000000000000000000000000006044820152606401610645565b81546effffffffffffffffffffffffffffff808216850181167fffffffffffffffffffffffffffffffffff00000000000000000000000000000092831617845582548082168b9003909116911617815561115a868987876120e4565b8573ffffffffffffffffffffffffffffffffffffffff168773ffffffffffffffffffffffffffffffffffffffff168673ffffffffffffffffffffffffffffffffffffffff167fcd3829a3813dc3cdd188fd3d01dcf3268c16be2fdd2dd21d0665418816e46062868c6040516111d9929190918252602082015260400190565b60405180910390a45050600160075550939695505050505050565b6060600580548060200260200160405190810160405280929190818152602001828054801561125957602002820191906000526020600020905b815473ffffffffffffffffffffffffffffffffffffffff16815260019091019060200180831161122e575b5050505050905090565b60006007546001146112d1576040517f08c379a000000000000000000000000000000000000000000000000000000000815260206004820152600660248201527f4c4f434b454400000000000000000000000000000000000000000000000000006044820152606401610645565b60026007556000806112e584860186612ab0565b9150915060006112f7826000546123dc565b905060005b60055481101561156c5760006005828154811061131b5761131b612fb0565b600091825260208083209091015473ffffffffffffffffffffffffffffffffffffffff16808352600890915260408220549092506effffffffffffffffffffffffffffff16908161136c5784611398565b611398856effffffffffffffffffffffffffffff16836effffffffffffffffffffffffffffff16611ef6565b90506113b164e8d4a51000670de0b6b3a7640000612e71565b816effffffffffffffffffffffffffffff16101561142b576040517f08c379a000000000000000000000000000000000000000000000000000000000815260206004820152600b60248201527f4d494e5f42414c414e43450000000000000000000000000000000000000000006044820152606401610645565b8181016effffffffffffffffffffffffffffff1661144884611fcb565b10156114b0576040517f08c379a000000000000000000000000000000000000000000000000000000000815260206004820152600c60248201527f4e4f545f524543454956454400000000000000000000000000000000000000006044820152606401610645565b73ffffffffffffffffffffffffffffffffffffffff83811660008181526008602090815260409182902080547fffffffffffffffffffffffffffffffffff00000000000000000000000000000081166effffffffffffffffffffffffffffff918216880182161790915582519384528516908301529189169133917ff9403b28cc8805935e0ce6943ed646d5fde3d1e14f6b398e85bfa2851d1b85f7910160405180910390a3505050808061156490612f05565b9150506112fc565b5061157783836124a9565b506001600755949350505050565b60055460609081908067ffffffffffffffff8111156115a6576115a6612fdf565b6040519080825280602002602001820160405280156115cf578160200160208202803683370190505b5092508067ffffffffffffffff8111156115eb576115eb612fdf565b604051908082528060200260200182016040528015611614578160200160208202803683370190505b50915060005b8181101561174f57600860006005838154811061163957611639612fb0565b600091825260208083209091015473ffffffffffffffffffffffffffffffffffffffff16835282019290925260400190205484516effffffffffffffffffffffffffffff9091169085908390811061169357611693612fb0565b60200260200101818152505060086000600583815481106116b6576116b6612fb0565b60009182526020808320919091015473ffffffffffffffffffffffffffffffffffffffff16835282019290925260400190205483516f0100000000000000000000000000000090910470ffffffffffffffffffffffffffffffffff169084908390811061172557611725612fb0565b70ffffffffffffffffffffffffffffffffff9092166020928302919091019091015260010161161a565b50509091565b60408051600481526024810182526020810180517bffffffffffffffffffffffffffffffffffffffffffffffffffffffff167fc14ad80200000000000000000000000000000000000000000000000000000000179052905160009173ffffffffffffffffffffffffffffffffffffffff7f000000000000000000000000000000000000000000000000000000000000000016916117f29190612cdd565b600060405180830381855afa9150503d806000811461182d576040519150601f19603f3d011682016040523d82523d6000602084013e611832565b606091505b509150508080602001905181019061184a9190612c3f565b60065550565b6000808080808061186387890189612c58565b9450945094509450945061187a8585858585611f41565b98975050505050505050565b336000908152600160205260408120805483919083906118a7908490612ec2565b909155505073ffffffffffffffffffffffffffffffffffffffff8316600081815260016020526040908190208054850190555133907fddf252ad1be2c89b69c2b068fc378daa952ba7f163c4a11628f55a4df523b3ef906109eb9086815260200190565b6000600754600114611979576040517f08c379a000000000000000000000000000000000000000000000000000000000815260206004820152600660248201527f4c4f434b454400000000000000000000000000000000000000000000000000006044820152606401610645565b6002600755600080808061198f86880188612a23565b73ffffffffffffffffffffffffffffffffffffffff8416600090815260086020526040812080549154600454969a509498509296509094509092611a31926effffffffffffffffffffffffffffff83169270ffffffffffffffffffffffffffffffffff6f0100000000000000000000000000000090910481169216867f0000000000000000000000000000000000000000000000000000000000000000612519565b8154909650611a69906effffffffffffffffffffffffffffff16611a5e6003670de0b6b3a7640000612e71565b6106cf906001612e59565b861115611ad2576040517f08c379a000000000000000000000000000000000000000000000000000000000815260206004820152600d60248201527f4d41585f4f55545f524154494f000000000000000000000000000000000000006044820152606401610645565b80546effffffffffffffffffffffffffffff808216889003167fffffffffffffffffffffffffffffffffff000000000000000000000000000000909116178155611b1c3083612416565b611b28858786866120e4565b6040805173ffffffffffffffffffffffffffffffffffffffff87811682526020820189905286169133917f3dd1df88dc92e2788892542d81f999d720a44b4c127065d45c128f4f59fdc373910160405180910390a3505060016007555091949350505050565b42841015611bf8576040517f08c379a000000000000000000000000000000000000000000000000000000000815260206004820152601760248201527f5045524d49545f444541444c494e455f455850495245440000000000000000006044820152606401610645565b73ffffffffffffffffffffffffffffffffffffffff8716600090815260036020526040812080547f0000000000000000000000000000000000000000000000000000000000000000917f6e71edae12b1b97f4d1f60370fef10105fa2faae0126114a169c64845d6126c9918b918b918b9187611c7383612f05565b9091555060408051602081019690965273ffffffffffffffffffffffffffffffffffffffff94851690860152929091166060840152608083015260a082015260c0810187905260e00160405160208183030381529060405280519060200120604051602001611d149291907f190100000000000000000000000000000000000000000000000000000000000081526002810192909252602282015260420190565b604080517fffffffffffffffffffffffffffffffffffffffffffffffffffffffffffffffe08184030181528282528051602091820120600080855291840180845281905260ff88169284019290925260608301869052608083018590529092509060019060a0016020604051602081039080840390855afa158015611d9d573d6000803e3d6000fd5b50506040517fffffffffffffffffffffffffffffffffffffffffffffffffffffffffffffffe0015191505073ffffffffffffffffffffffffffffffffffffffff811615801590611e1857508873ffffffffffffffffffffffffffffffffffffffff168173ffffffffffffffffffffffffffffffffffffffff16145b611e7e576040517f08c379a000000000000000000000000000000000000000000000000000000000815260206004820152601860248201527f494e56414c49445f5045524d49545f5349474e415455524500000000000000006044820152606401610645565b73ffffffffffffffffffffffffffffffffffffffff81811660009081526002602090815260408083208c8516808552908352928190208b9055518a815291928c16917f8c5be1e5ebec7d5bd14f71427d1e84f3dd0314c0f7b2291e5b200ac8c7c3b925910160405180910390a3505050505050505050565b600080611f038385612e85565b90506000611f1a6002670de0b6b3a7640000612e71565b611f249083612e59565b9050611f38670de0b6b3a764000082612e71565b95945050505050565b600080611f4e85846123dc565b90506000611f86887f0000000000000000000000000000000000000000000000000000000000000000670de0b6b3a764000003611ef6565b90506000611f9688838a016123dc565b90506000611fa482856125c8565b9050670de0b6b3a7640000819003611fbc8882611ef6565b9b9a5050505050505050505050565b6040805173ffffffffffffffffffffffffffffffffffffffff83811660248301523060448084019190915283518084039091018152606490920183526020820180517bffffffffffffffffffffffffffffffffffffffffffffffffffffffff167ff7888aec00000000000000000000000000000000000000000000000000000000179052915160009283927f0000000000000000000000000000000000000000000000000000000000000000909116916120859190612cdd565b600060405180830381855afa9150503d80600081146120c0576040519150601f19603f3d011682016040523d82523d6000602084013e6120c5565b606091505b50915050808060200190518101906120dd9190612c3f565b9392505050565b8015612266576040805173ffffffffffffffffffffffffffffffffffffffff8681166024830152306044830152848116606483015260006084830181905260a48084018890528451808503909101815260c490930184526020830180517bffffffffffffffffffffffffffffffffffffffffffffffffffffffff167f97da6d300000000000000000000000000000000000000000000000000000000017905292517f0000000000000000000000000000000000000000000000000000000000000000909116916121b391612cdd565b6000604051808303816000865af19150503d80600081146121f0576040519150601f19603f3d011682016040523d82523d6000602084013e6121f5565b606091505b5050905080612260576040517f08c379a000000000000000000000000000000000000000000000000000000000815260206004820152600f60248201527f57495448445241575f4641494c454400000000000000000000000000000000006044820152606401610645565b506123d6565b6040805173ffffffffffffffffffffffffffffffffffffffff8681166024830152306044830152848116606483015260848083018790528351808403909101815260a490920183526020820180517bffffffffffffffffffffffffffffffffffffffffffffffffffffffff167ff18d03cc0000000000000000000000000000000000000000000000000000000017905291516000927f0000000000000000000000000000000000000000000000000000000000000000169161232791612cdd565b6000604051808303816000865af19150503d8060008114612364576040519150601f19603f3d011682016040523d82523d6000602084013e612369565b606091505b50509050806123d4576040517f08c379a000000000000000000000000000000000000000000000000000000000815260206004820152600f60248201527f5452414e534645525f4641494c454400000000000000000000000000000000006044820152606401610645565b505b50505050565b6000806123f1670de0b6b3a764000085612e85565b90506000612400600285612e71565b61240a9083612e59565b9050611f388482612e71565b73ffffffffffffffffffffffffffffffffffffffff82166000908152600160205260408120805483929061244b908490612ec2565b909155505060008054829003815560405182815273ffffffffffffffffffffffffffffffffffffffff8416907fddf252ad1be2c89b69c2b068fc378daa952ba7f163c4a11628f55a4df523b3ef906020015b60405180910390a35050565b806000808282546124ba9190612e59565b909155505073ffffffffffffffffffffffffffffffffffffffff82166000818152600160209081526040808320805486019055518481527fddf252ad1be2c89b69c2b068fc378daa952ba7f163c4a11628f55a4df523b3ef910161249d565b60008061252687866123dc565b905060006125348588612ec2565b9050600061254282896123dc565b905060006125618261255c670de0b6b3a7640000876123dc565b6126eb565b9050600061256f828d611ef6565b9050600061257d828e612ec2565b905060008861259488670de0b6b3a7640000612ec2565b61259e9190612e85565b90506125b6826106cf83670de0b6b3a7640000612ec2565b9e9d5050505050505050505050505050565b6000826001111580156125f9575060016125eb670de0b6b3a76400006002612e85565b6125f59190612ec2565b8311155b61265f576040517f08c379a000000000000000000000000000000000000000000000000000000000815260206004820152600c60248201527f494e56414c49445f4241534500000000000000000000000000000000000000006044820152606401610645565b6000670de0b6b3a76400006126748185612e71565b61267e9190612e85565b9050600061268c8285612ec2565b905060006126a68661255c670de0b6b3a764000086612e71565b9050816126b1578093505b60006126d487846126cf6402540be400670de0b6b3a7640000612e71565b61275a565b90506126e08282611ef6565b979650505050505050565b60006126f8600283612f3e565b61270a57670de0b6b3a764000061270c565b825b9050612719600283612e71565b91505b81156127405761272c8380612e85565b9250612739600283612e71565b915061271c565b61274b600283612f3e565b156109f7576120dd8382612e85565b600082818061277187670de0b6b3a764000061284a565b670de0b6b3a76400009550909250905083600060015b87831061283d5760006127a2670de0b6b3a764000083612e85565b90506000806127c2896127bd670de0b6b3a764000086612ec2565b61284a565b915091506127d4866106cf848b611ef6565b95506127e086846123dc565b9550856127ef5750505061283d565b86156127f9579315935b8015612803579315935b841561281a57612813868b612ec2565b9950612827565b612824868b612e59565b99505b505050808061283590612f05565b915050612787565b5050505050509392505050565b6000808284106128605750508082036000612868565b505081810360015b9250929050565b8035801515811461287f57600080fd5b919050565b60006020828403121561289657600080fd5b81356120dd8161300e565b600080600080600060a086880312156128b957600080fd5b85356128c48161300e565b945060208601356128d48161300e565b935060408601356128e48161300e565b92506128f26060870161286f565b949793965091946080013592915050565b60008060008060008060c0878903121561291c57600080fd5b86356129278161300e565b955060208701356129378161300e565b945060408701356129478161300e565b93506129556060880161286f565b92506080870135915060a087013567ffffffffffffffff8082111561297957600080fd5b818901915089601f83011261298d57600080fd5b81358181111561299f5761299f612fdf565b604051601f82017fffffffffffffffffffffffffffffffffffffffffffffffffffffffffffffffe0908116603f011681019083821181831017156129e5576129e5612fdf565b816040528281528c60208487010111156129fe57600080fd5b8260208601602083013760006020848301015280955050505050509295509295509295565b60008060008060808587031215612a3957600080fd5b8435612a448161300e565b93506020850135612a548161300e565b9250612a626040860161286f565b9396929550929360600135925050565b600080600060608486031215612a8757600080fd5b8335612a928161300e565b9250612aa06020850161286f565b9150604084013590509250925092565b60008060408385031215612ac357600080fd5b8235612ace8161300e565b946020939093013593505050565b60008060408385031215612aef57600080fd5b8235612afa8161300e565b91506020830135612b0a8161300e565b809150509250929050565b600080600060608486031215612b2a57600080fd5b8335612b358161300e565b92506020840135612b458161300e565b929592945050506040919091013590565b600080600080600080600060e0888a031215612b7157600080fd5b8735612b7c8161300e565b96506020880135612b8c8161300e565b95506040880135945060608801359350608088013560ff81168114612bb057600080fd5b9699959850939692959460a0840135945060c09093013592915050565b60008060208385031215612be057600080fd5b823567ffffffffffffffff80821115612bf857600080fd5b818501915085601f830112612c0c57600080fd5b813581811115612c1b57600080fd5b866020828501011115612c2d57600080fd5b60209290920196919550909350505050565b600060208284031215612c5157600080fd5b5051919050565b600080600080600060a08688031215612c7057600080fd5b505083359560208501359550604085013594606081013594506080013592509050565b60008151808452612cab816020860160208601612ed9565b601f017fffffffffffffffffffffffffffffffffffffffffffffffffffffffffffffffe0169290920160200192915050565b60008251612cef818460208701612ed9565b9190910192915050565b6020808252825182820181905260009190848201906040850190845b81811015612d4757835173ffffffffffffffffffffffffffffffffffffffff1683529284019291840191600101612d15565b50909695505050505050565b602080825282518282018190526000919060409081850190868401855b82811015612dab578151805173ffffffffffffffffffffffffffffffffffffffff168552860151868501529284019290850190600101612d70565b5091979650505050505050565b604080825283519082018190526000906020906060840190828701845b82811015612df157815184529284019290840190600101612dd5565b5050508381038285015284518082528583019183019060005b81811015612e3957835170ffffffffffffffffffffffffffffffffff1683529284019291840191600101612e0a565b5090979650505050505050565b6020815260006120dd6020830184612c93565b60008219821115612e6c57612e6c612f52565b500190565b600082612e8057612e80612f81565b500490565b6000817fffffffffffffffffffffffffffffffffffffffffffffffffffffffffffffffff0483118215151615612ebd57612ebd612f52565b500290565b600082821015612ed457612ed4612f52565b500390565b60005b83811015612ef4578181015183820152602001612edc565b838111156123d65750506000910152565b60007fffffffffffffffffffffffffffffffffffffffffffffffffffffffffffffffff821415612f3757612f37612f52565b5060010190565b600082612f4d57612f4d612f81565b500690565b7f4e487b7100000000000000000000000000000000000000000000000000000000600052601160045260246000fd5b7f4e487b7100000000000000000000000000000000000000000000000000000000600052601260045260246000fd5b7f4e487b7100000000000000000000000000000000000000000000000000000000600052603260045260246000fd5b7f4e487b7100000000000000000000000000000000000000000000000000000000600052604160045260246000fd5b73ffffffffffffffffffffffffffffffffffffffff8116811461303057600080fd5b5056fea26469706673582212203961056588ec96b8673f1a57deca72ae29639fb5291ca2cdb3e75abe83fae35664736f6c63430008070033a264697066735822122083494d44e84ff427e74952e82b110a2dfdfc35a05009ba318852717e93fc00e364736f6c63430008070033",
  "linkReferences": {},
  "deployedLinkReferences": {}
}