{
  "_format": "hh-sol-artifact-1",
  "contractName": "SaddlePeak",
  "sourceName": "contracts/test/SaddlePeak.sol",
  "abi": [
    {
      "inputs": [
        {
          "internalType": "address",
          "name": "_core",
          "type": "address"
        }
      ],
      "stateMutability": "nonpayable",
      "type": "constructor"
    },
    {
      "anonymous": false,
      "inputs": [
        {
          "indexed": false,
          "internalType": "address",
          "name": "account",
          "type": "address"
        },
        {
          "indexed": false,
          "internalType": "uint256",
          "name": "amount",
          "type": "uint256"
        }
      ],
      "name": "Mint",
      "type": "event"
    },
    {
      "anonymous": false,
      "inputs": [
        {
          "indexed": true,
          "internalType": "address",
          "name": "previousOwner",
          "type": "address"
        },
        {
          "indexed": true,
          "internalType": "address",
          "name": "newOwner",
          "type": "address"
        }
      ],
      "name": "OwnershipTransferred",
      "type": "event"
    },
    {
      "anonymous": false,
      "inputs": [
        {
          "indexed": false,
          "internalType": "address",
          "name": "account",
          "type": "address"
        },
        {
          "indexed": false,
          "internalType": "uint256",
          "name": "amount",
          "type": "uint256"
        }
      ],
      "name": "Redeem",
      "type": "event"
    },
    {
      "inputs": [
        {
          "internalType": "address",
          "name": "account",
          "type": "address"
        }
      ],
      "name": "approveContractAccess",
      "outputs": [],
      "stateMutability": "nonpayable",
      "type": "function"
    },
    {
      "inputs": [
        {
          "internalType": "address",
          "name": "",
          "type": "address"
        }
      ],
      "name": "approved",
      "outputs": [
        {
          "internalType": "bool",
          "name": "",
          "type": "bool"
        }
      ],
      "stateMutability": "view",
      "type": "function"
    },
    {
      "inputs": [
        {
          "internalType": "address",
          "name": "",
          "type": "address"
        }
      ],
      "name": "blockLock",
      "outputs": [
        {
          "internalType": "uint256",
          "name": "",
          "type": "uint256"
        }
      ],
      "stateMutability": "view",
      "type": "function"
    },
    {
      "inputs": [
        {
          "internalType": "uint256",
          "name": "poolId",
          "type": "uint256"
        },
        {
          "internalType": "uint256",
          "name": "inAmount",
          "type": "uint256"
        }
      ],
      "name": "calcMint",
      "outputs": [
        {
          "internalType": "uint256",
          "name": "",
          "type": "uint256"
        },
        {
          "internalType": "uint256",
          "name": "",
          "type": "uint256"
        }
      ],
      "stateMutability": "view",
      "type": "function"
    },
    {
      "inputs": [
        {
          "internalType": "uint256",
          "name": "poolId",
          "type": "uint256"
        },
        {
          "internalType": "uint256",
          "name": "bBtc",
          "type": "uint256"
        }
      ],
      "name": "calcRedeem",
      "outputs": [
        {
          "internalType": "uint256",
          "name": "",
          "type": "uint256"
        },
        {
          "internalType": "uint256",
          "name": "",
          "type": "uint256"
        },
        {
          "internalType": "uint256",
          "name": "",
          "type": "uint256"
        }
      ],
      "stateMutability": "view",
      "type": "function"
    },
    {
      "inputs": [],
      "name": "core",
      "outputs": [
        {
          "internalType": "contract ICore",
          "name": "",
          "type": "address"
        }
      ],
      "stateMutability": "view",
      "type": "function"
    },
    {
      "inputs": [
        {
          "internalType": "uint256",
          "name": "poolId",
          "type": "uint256"
        },
        {
          "internalType": "uint256",
          "name": "inAmount",
          "type": "uint256"
        },
        {
          "internalType": "bytes32[]",
          "name": "merkleProof",
          "type": "bytes32[]"
        }
      ],
      "name": "mint",
      "outputs": [
        {
          "internalType": "uint256",
          "name": "outAmount",
          "type": "uint256"
        }
      ],
      "stateMutability": "nonpayable",
      "type": "function"
    },
    {
      "inputs": [
        {
          "components": [
            {
              "internalType": "contract IERC20",
              "name": "lpToken",
              "type": "address"
            },
            {
              "internalType": "contract ISaddleSwap",
              "name": "swap",
              "type": "address"
            }
          ],
          "internalType": "struct SaddlePeak.CurvePool[]",
          "name": "_pools",
          "type": "tuple[]"
        }
      ],
      "name": "modifyWhitelistedCurvePools",
      "outputs": [],
      "stateMutability": "nonpayable",
      "type": "function"
    },
    {
      "inputs": [],
      "name": "numPools",
      "outputs": [
        {
          "internalType": "uint256",
          "name": "",
          "type": "uint256"
        }
      ],
      "stateMutability": "view",
      "type": "function"
    },
    {
      "inputs": [],
      "name": "owner",
      "outputs": [
        {
          "internalType": "address",
          "name": "_owner",
          "type": "address"
        }
      ],
      "stateMutability": "view",
      "type": "function"
    },
    {
      "inputs": [
        {
          "internalType": "uint256",
          "name": "",
          "type": "uint256"
        }
      ],
      "name": "pools",
      "outputs": [
        {
          "internalType": "contract IERC20",
          "name": "lpToken",
          "type": "address"
        },
        {
          "internalType": "contract ISaddleSwap",
          "name": "swap",
          "type": "address"
        }
      ],
      "stateMutability": "view",
      "type": "function"
    },
    {
      "inputs": [],
      "name": "portfolioValue",
      "outputs": [
        {
          "internalType": "uint256",
          "name": "assets",
          "type": "uint256"
        }
      ],
      "stateMutability": "view",
      "type": "function"
    },
    {
      "inputs": [
        {
          "internalType": "uint256",
          "name": "poolId",
          "type": "uint256"
        },
        {
          "internalType": "uint256",
          "name": "inAmount",
          "type": "uint256"
        }
      ],
      "name": "redeem",
      "outputs": [
        {
          "internalType": "uint256",
          "name": "outAmount",
          "type": "uint256"
        }
      ],
      "stateMutability": "nonpayable",
      "type": "function"
    },
    {
      "inputs": [
        {
          "internalType": "address",
          "name": "account",
          "type": "address"
        }
      ],
      "name": "revokeContractAccess",
      "outputs": [],
      "stateMutability": "nonpayable",
      "type": "function"
    },
    {
      "inputs": [
        {
          "internalType": "address",
          "name": "newOwner",
          "type": "address"
        }
      ],
      "name": "transferOwnership",
      "outputs": [],
      "stateMutability": "nonpayable",
      "type": "function"
    }
  ],
  "bytecode": "0x60a06040523480156200001157600080fd5b5060405162002a6938038062002a698339818101604052810190620000379190620001bd565b62000048336200008660201b60201c565b8073ffffffffffffffffffffffffffffffffffffffff1660808173ffffffffffffffffffffffffffffffffffffffff1660601b815250505062000336565b600073ffffffffffffffffffffffffffffffffffffffff168173ffffffffffffffffffffffffffffffffffffffff161415620000f9576040517f08c379a0000000000000000000000000000000000000000000000000000000008152600401620000f090620002aa565b60405180910390fd5b8073ffffffffffffffffffffffffffffffffffffffff16620001206200018360201b60201c565b73ffffffffffffffffffffffffffffffffffffffff167f8be0079c531659141344cd1fd0a4f28419497f9722a3daafe3b4186f6b6457e060405160405180910390a36000604051620001729062000293565b604051809103902090508181555050565b600080604051620001949062000293565b60405180910390209050805491505090565b600081519050620001b7816200031c565b92915050565b600060208284031215620001d057600080fd5b6000620001e084828501620001a6565b91505092915050565b6000620001f8600b83620002dd565b91507f70726f78792e6f776e65720000000000000000000000000000000000000000006000830152600b82019050919050565b60006200023a602b83620002cc565b91507f4f776e61626c6550726f78793a206e6577206f776e657220697320746865207a60008301527f65726f20616464726573730000000000000000000000000000000000000000006020830152604082019050919050565b6000620002a082620001e9565b9150819050919050565b60006020820190508181036000830152620002c5816200022b565b9050919050565b600082825260208201905092915050565b600081905092915050565b6000620002f582620002fc565b9050919050565b600073ffffffffffffffffffffffffffffffffffffffff82169050919050565b6200032781620002e8565b81146200033357600080fd5b50565b60805160601c61270b6200035e60003980610aea5280610f30528061105f525061270b6000f3fe608060405234801561001057600080fd5b50600436106100f55760003560e01c80637cbc237311610097578063d8b964e611610066578063d8b964e61461029c578063e6d37b88146102cc578063f2f4eb26146102fc578063f2fde38b1461031a576100f5565b80637cbc2373146101ec5780638da5cb5b1461021c578063ac4afa381461023a578063adcc2c741461026b576100f5565b80634bcd2c8d116100d35780634bcd2c8d1461017a5780636c3618651461019657806373acb590146101b25780637c61e865146101d0576100f5565b8063269ac051146100fa5780632cc110341461012a57806335c62bc21461015c575b600080fd5b610114600480360381019061010f9190611ad4565b610336565b60405161012191906123a2565b60405180910390f35b610144600480360381019061013f9190611be6565b61034e565b6040516101539392919061244f565b60405180910390f35b61016461035a565b60405161017191906123a2565b60405180910390f35b610194600480360381019061018f9190611afd565b610360565b005b6101b060048036038101906101ab9190611ad4565b6105cc565b005b6101ba61064d565b6040516101c791906123a2565b60405180910390f35b6101ea60048036038101906101e59190611ad4565b6107ef565b005b61020660048036038101906102019190611be6565b610870565b60405161021391906123a2565b60405180910390f35b610224610c0b565b604051610231919061213d565b60405180910390f35b610254600480360381019061024f9190611b94565b610c2c565b604051610262929190612217565b60405180910390f35b61028560048036038101906102809190611be6565b610c90565b604051610293929190612426565b60405180910390f35b6102b660048036038101906102b19190611ad4565b610c9a565b6040516102c391906121e1565b60405180910390f35b6102e660048036038101906102e19190611c22565b610cba565b6040516102f391906123a2565b60405180910390f35b61030461105d565b60405161031191906121fc565b60405180910390f35b610334600480360381019061032f9190611ad4565b611081565b005b60016020528060005260406000206000915090505481565b60008060009250925092565b60355481565b3373ffffffffffffffffffffffffffffffffffffffff1661037f610c0b565b73ffffffffffffffffffffffffffffffffffffffff16146103d5576040517f08c379a00000000000000000000000000000000000000000000000000000000081526004016103cc90612362565b60405180910390fd5b818190506035819055506103e7611930565b60008090505b6035548110156105c65783838281811061040357fe5b9050604002018036038101906104199190611b6b565b9150600073ffffffffffffffffffffffffffffffffffffffff16826000015173ffffffffffffffffffffffffffffffffffffffff161415801561048d5750600073ffffffffffffffffffffffffffffffffffffffff16826020015173ffffffffffffffffffffffffffffffffffffffff1614155b6104cc576040517f08c379a00000000000000000000000000000000000000000000000000000000081526004016104c390612262565b60405180910390fd5b6040518060400160405280836000015173ffffffffffffffffffffffffffffffffffffffff168152602001836020015173ffffffffffffffffffffffffffffffffffffffff168152506034600083815260200190815260200160002060008201518160000160006101000a81548173ffffffffffffffffffffffffffffffffffffffff021916908373ffffffffffffffffffffffffffffffffffffffff16021790555060208201518160010160006101000a81548173ffffffffffffffffffffffffffffffffffffffff021916908373ffffffffffffffffffffffffffffffffffffffff16021790555090505080806001019150506103ed565b50505050565b3373ffffffffffffffffffffffffffffffffffffffff166105eb610c0b565b73ffffffffffffffffffffffffffffffffffffffff1614610641576040517f08c379a000000000000000000000000000000000000000000000000000000000815260040161063890612362565b60405180910390fd5b61064a81611102565b50565b6000610657611930565b60008090505b6035548110156107ea57603460008281526020019081526020016000206040518060400160405290816000820160009054906101000a900473ffffffffffffffffffffffffffffffffffffffff1673ffffffffffffffffffffffffffffffffffffffff1673ffffffffffffffffffffffffffffffffffffffff1681526020016001820160009054906101000a900473ffffffffffffffffffffffffffffffffffffffff1673ffffffffffffffffffffffffffffffffffffffff1673ffffffffffffffffffffffffffffffffffffffff168152505091506107db6107cc83846000015173ffffffffffffffffffffffffffffffffffffffff166370a08231306040518263ffffffff1660e01b8152600401610777919061213d565b60206040518083038186803b15801561078f57600080fd5b505afa1580156107a3573d6000803e3d6000fd5b505050506040513d601f19601f820116820180604052508101906107c79190611bbd565b61115c565b8461121490919063ffffffff16565b9250808060010191505061065d565b505090565b3373ffffffffffffffffffffffffffffffffffffffff1661080e610c0b565b73ffffffffffffffffffffffffffffffffffffffff1614610864576040517f08c379a000000000000000000000000000000000000000000000000000000000815260040161085b90612362565b60405180910390fd5b61086d81611269565b50565b60003273ffffffffffffffffffffffffffffffffffffffff163373ffffffffffffffffffffffffffffffffffffffff1614806108f457506000803373ffffffffffffffffffffffffffffffffffffffff1673ffffffffffffffffffffffffffffffffffffffff16815260200190815260200160002060009054906101000a900460ff165b610933576040517f08c379a000000000000000000000000000000000000000000000000000000000815260040161092a90612322565b60405180910390fd5b6000803373ffffffffffffffffffffffffffffffffffffffff1673ffffffffffffffffffffffffffffffffffffffff16815260200190815260200160002060009054906101000a900460ff16806109c8575043600160003373ffffffffffffffffffffffffffffffffffffffff1673ffffffffffffffffffffffffffffffffffffffff16815260200190815260200160002054105b610a07576040517f08c379a00000000000000000000000000000000000000000000000000000000081526004016109fe90612282565b60405180910390fd5b610a10336112c3565b610a18611930565b603460008581526020019081526020016000206040518060400160405290816000820160009054906101000a900473ffffffffffffffffffffffffffffffffffffffff1673ffffffffffffffffffffffffffffffffffffffff1673ffffffffffffffffffffffffffffffffffffffff1681526020016001820160009054906101000a900473ffffffffffffffffffffffffffffffffffffffff1673ffffffffffffffffffffffffffffffffffffffff1673ffffffffffffffffffffffffffffffffffffffff16815250509050610b9a817f000000000000000000000000000000000000000000000000000000000000000073ffffffffffffffffffffffffffffffffffffffff16637bde82f286336040518363ffffffff1660e01b8152600401610b439291906123bd565b602060405180830381600087803b158015610b5d57600080fd5b505af1158015610b71573d6000803e3d6000fd5b505050506040513d601f19601f82011682018060405250810190610b959190611bbd565b61130a565b9150610bcb3383836000015173ffffffffffffffffffffffffffffffffffffffff166113a89092919063ffffffff16565b7f222838db2794d11532d940e8dec38ae307ed0b63cd97c233322e221f998767a63384604051610bfc929190612158565b60405180910390a15092915050565b600080604051610c1a90612128565b60405180910390209050805491505090565b60346020528060005260406000206000915090508060000160009054906101000a900473ffffffffffffffffffffffffffffffffffffffff16908060010160009054906101000a900473ffffffffffffffffffffffffffffffffffffffff16905082565b6000809250929050565b60006020528060005260406000206000915054906101000a900460ff1681565b60003273ffffffffffffffffffffffffffffffffffffffff163373ffffffffffffffffffffffffffffffffffffffff161480610d3e57506000803373ffffffffffffffffffffffffffffffffffffffff1673ffffffffffffffffffffffffffffffffffffffff16815260200190815260200160002060009054906101000a900460ff165b610d7d576040517f08c379a0000000000000000000000000000000000000000000000000000000008152600401610d7490612322565b60405180910390fd5b6000803373ffffffffffffffffffffffffffffffffffffffff1673ffffffffffffffffffffffffffffffffffffffff16815260200190815260200160002060009054906101000a900460ff1680610e12575043600160003373ffffffffffffffffffffffffffffffffffffffff1673ffffffffffffffffffffffffffffffffffffffff16815260200190815260200160002054105b610e51576040517f08c379a0000000000000000000000000000000000000000000000000000000008152600401610e4890612282565b60405180910390fd5b610e5a336112c3565b610e62611930565b603460008781526020019081526020016000206040518060400160405290816000820160009054906101000a900473ffffffffffffffffffffffffffffffffffffffff1673ffffffffffffffffffffffffffffffffffffffff1673ffffffffffffffffffffffffffffffffffffffff1681526020016001820160009054906101000a900473ffffffffffffffffffffffffffffffffffffffff1673ffffffffffffffffffffffffffffffffffffffff1673ffffffffffffffffffffffffffffffffffffffff168152505090507f000000000000000000000000000000000000000000000000000000000000000073ffffffffffffffffffffffffffffffffffffffff166347c699d1610f74838861115c565b3387876040518563ffffffff1660e01b8152600401610f9694939291906123e6565b602060405180830381600087803b158015610fb057600080fd5b505af1158015610fc4573d6000803e3d6000fd5b505050506040513d601f19601f82011682018060405250810190610fe89190611bbd565b915061101b333087846000015173ffffffffffffffffffffffffffffffffffffffff1661142e909392919063ffffffff16565b7f0f6798a560793a54c3bcfe86a93cde1e73087d944c0ea20544137d4121396885338360405161104c929190612158565b60405180910390a150949350505050565b7f000000000000000000000000000000000000000000000000000000000000000081565b3373ffffffffffffffffffffffffffffffffffffffff166110a0610c0b565b73ffffffffffffffffffffffffffffffffffffffff16146110f6576040517f08c379a00000000000000000000000000000000000000000000000000000000081526004016110ed90612362565b60405180910390fd5b6110ff816114b7565b50565b60016000808373ffffffffffffffffffffffffffffffffffffffff1673ffffffffffffffffffffffffffffffffffffffff16815260200190815260200160002060006101000a81548160ff02191690831515021790555050565b600061120c670de0b6b3a76400006111fe856020015173ffffffffffffffffffffffffffffffffffffffff1663e25aa5fa6040518163ffffffff1660e01b815260040160206040518083038186803b1580156111b757600080fd5b505afa1580156111cb573d6000803e3d6000fd5b505050506040513d601f19601f820116820180604052508101906111ef9190611bbd565b856115a790919063ffffffff16565b61161790919063ffffffff16565b905092915050565b60008082840190508381101561125f576040517f08c379a0000000000000000000000000000000000000000000000000000000008152600401611256906122a2565b60405180910390fd5b8091505092915050565b60008060008373ffffffffffffffffffffffffffffffffffffffff1673ffffffffffffffffffffffffffffffffffffffff16815260200190815260200160002060006101000a81548160ff02191690831515021790555050565b43600160008373ffffffffffffffffffffffffffffffffffffffff1673ffffffffffffffffffffffffffffffffffffffff1681526020019081526020016000208190555050565b60006113a0836020015173ffffffffffffffffffffffffffffffffffffffff1663e25aa5fa6040518163ffffffff1660e01b815260040160206040518083038186803b15801561135957600080fd5b505afa15801561136d573d6000803e3d6000fd5b505050506040513d601f19601f820116820180604052508101906113919190611bbd565b8361161790919063ffffffff16565b905092915050565b6114298363a9059cbb60e01b84846040516024016113c79291906121b8565b604051602081830303815290604052907bffffffffffffffffffffffffffffffffffffffffffffffffffffffff19166020820180517bffffffffffffffffffffffffffffffffffffffffffffffffffffffff8381831617835250505050611661565b505050565b6114b1846323b872dd60e01b85858560405160240161144f93929190612181565b604051602081830303815290604052907bffffffffffffffffffffffffffffffffffffffffffffffffffffffff19166020820180517bffffffffffffffffffffffffffffffffffffffffffffffffffffffff8381831617835250505050611661565b50505050565b600073ffffffffffffffffffffffffffffffffffffffff168173ffffffffffffffffffffffffffffffffffffffff161415611527576040517f08c379a000000000000000000000000000000000000000000000000000000000815260040161151e906122e2565b60405180910390fd5b8073ffffffffffffffffffffffffffffffffffffffff16611546610c0b565b73ffffffffffffffffffffffffffffffffffffffff167f8be0079c531659141344cd1fd0a4f28419497f9722a3daafe3b4186f6b6457e060405160405180910390a3600060405161159690612128565b604051809103902090508181555050565b6000808314156115ba5760009050611611565b60008284029050828482816115cb57fe5b041461160c576040517f08c379a000000000000000000000000000000000000000000000000000000000815260040161160390612302565b60405180910390fd5b809150505b92915050565b600061165983836040518060400160405280601a81526020017f536166654d6174683a206469766973696f6e206279207a65726f000000000000815250611728565b905092915050565b60606116c3826040518060400160405280602081526020017f5361666545524332303a206c6f772d6c6576656c2063616c6c206661696c65648152508573ffffffffffffffffffffffffffffffffffffffff166117899092919063ffffffff16565b905060008151111561172357808060200190518101906116e39190611b42565b611722576040517f08c379a000000000000000000000000000000000000000000000000000000000815260040161171990612382565b60405180910390fd5b5b505050565b6000808311829061176f576040517f08c379a00000000000000000000000000000000000000000000000000000000081526004016117669190612240565b60405180910390fd5b50600083858161177b57fe5b049050809150509392505050565b606061179884846000856117a1565b90509392505050565b6060824710156117e6576040517f08c379a00000000000000000000000000000000000000000000000000000000081526004016117dd906122c2565b60405180910390fd5b6117ef856118b6565b61182e576040517f08c379a000000000000000000000000000000000000000000000000000000000815260040161182590612342565b60405180910390fd5b600060608673ffffffffffffffffffffffffffffffffffffffff1685876040516118589190612111565b60006040518083038185875af1925050503d8060008114611895576040519150601f19603f3d011682016040523d82523d6000602084013e61189a565b606091505b50915091506118aa8282866118c9565b92505050949350505050565b600080823b905060008111915050919050565b606083156118d957829050611929565b6000835111156118ec5782518084602001fd5b816040517f08c379a00000000000000000000000000000000000000000000000000000000081526004016119209190612240565b60405180910390fd5b9392505050565b6040518060400160405280600073ffffffffffffffffffffffffffffffffffffffff168152602001600073ffffffffffffffffffffffffffffffffffffffff1681525090565b60008135905061198581612662565b92915050565b60008083601f84011261199d57600080fd5b8235905067ffffffffffffffff8111156119b657600080fd5b6020830191508360208202830111156119ce57600080fd5b9250929050565b60008083601f8401126119e757600080fd5b8235905067ffffffffffffffff811115611a0057600080fd5b602083019150836040820283011115611a1857600080fd5b9250929050565b600081519050611a2e81612679565b92915050565b600081359050611a4381612690565b92915050565b600081359050611a58816126a7565b92915050565b600060408284031215611a7057600080fd5b611a7a6040612486565b90506000611a8a84828501611a34565b6000830152506020611a9e84828501611a49565b60208301525092915050565b600081359050611ab9816126be565b92915050565b600081519050611ace816126be565b92915050565b600060208284031215611ae657600080fd5b6000611af484828501611976565b91505092915050565b60008060208385031215611b1057600080fd5b600083013567ffffffffffffffff811115611b2a57600080fd5b611b36858286016119d5565b92509250509250929050565b600060208284031215611b5457600080fd5b6000611b6284828501611a1f565b91505092915050565b600060408284031215611b7d57600080fd5b6000611b8b84828501611a5e565b91505092915050565b600060208284031215611ba657600080fd5b6000611bb484828501611aaa565b91505092915050565b600060208284031215611bcf57600080fd5b6000611bdd84828501611abf565b91505092915050565b60008060408385031215611bf957600080fd5b6000611c0785828601611aaa565b9250506020611c1885828601611aaa565b9150509250929050565b60008060008060608587031215611c3857600080fd5b6000611c4687828801611aaa565b9450506020611c5787828801611aaa565b935050604085013567ffffffffffffffff811115611c7457600080fd5b611c808782880161198b565b925092505092959194509250565b611c978161256d565b82525050565b611ca681612501565b82525050565b6000611cb883856124c9565b93507f07ffffffffffffffffffffffffffffffffffffffffffffffffffffffffffffff831115611ce757600080fd5b602083029250611cf883858461260f565b82840190509392505050565b611d0d81612513565b82525050565b6000611d1e826124b3565b611d2881856124da565b9350611d3881856020860161261e565b80840191505092915050565b611d4d8161257f565b82525050565b611d5c816125a3565b82525050565b611d6b816125c7565b82525050565b6000611d7c826124be565b611d8681856124e5565b9350611d9681856020860161261e565b611d9f81612651565b840191505092915050565b6000611db7600c836124e5565b91507f4e554c4c5f4144445245535300000000000000000000000000000000000000006000830152602082019050919050565b6000611df7600c836124e5565b91507f424c4f434b5f4c4f434b454400000000000000000000000000000000000000006000830152602082019050919050565b6000611e37601b836124e5565b91507f536166654d6174683a206164646974696f6e206f766572666c6f7700000000006000830152602082019050919050565b6000611e776026836124e5565b91507f416464726573733a20696e73756666696369656e742062616c616e636520666f60008301527f722063616c6c00000000000000000000000000000000000000000000000000006020830152604082019050919050565b6000611edd600b836124f6565b91507f70726f78792e6f776e65720000000000000000000000000000000000000000006000830152600b82019050919050565b6000611f1d602b836124e5565b91507f4f776e61626c6550726f78793a206e6577206f776e657220697320746865207a60008301527f65726f20616464726573730000000000000000000000000000000000000000006020830152604082019050919050565b6000611f836021836124e5565b91507f536166654d6174683a206d756c7469706c69636174696f6e206f766572666c6f60008301527f77000000000000000000000000000000000000000000000000000000000000006020830152604082019050919050565b6000611fe9600d836124e5565b91507f4143434553535f44454e494544000000000000000000000000000000000000006000830152602082019050919050565b6000612029601d836124e5565b91507f416464726573733a2063616c6c20746f206e6f6e2d636f6e74726163740000006000830152602082019050919050565b60006120696009836124e5565b91507f4e4f545f4f574e455200000000000000000000000000000000000000000000006000830152602082019050919050565b60006120a9602a836124e5565b91507f5361666545524332303a204552433230206f7065726174696f6e20646964206e60008301527f6f742073756363656564000000000000000000000000000000000000000000006020830152604082019050919050565b61210b81612563565b82525050565b600061211d8284611d13565b915081905092915050565b600061213382611ed0565b9150819050919050565b60006020820190506121526000830184611c9d565b92915050565b600060408201905061216d6000830185611c8e565b61217a6020830184612102565b9392505050565b60006060820190506121966000830186611c9d565b6121a36020830185611c9d565b6121b06040830184612102565b949350505050565b60006040820190506121cd6000830185611c9d565b6121da6020830184612102565b9392505050565b60006020820190506121f66000830184611d04565b92915050565b60006020820190506122116000830184611d44565b92915050565b600060408201905061222c6000830185611d53565b6122396020830184611d62565b9392505050565b6000602082019050818103600083015261225a8184611d71565b905092915050565b6000602082019050818103600083015261227b81611daa565b9050919050565b6000602082019050818103600083015261229b81611dea565b9050919050565b600060208201905081810360008301526122bb81611e2a565b9050919050565b600060208201905081810360008301526122db81611e6a565b9050919050565b600060208201905081810360008301526122fb81611f10565b9050919050565b6000602082019050818103600083015261231b81611f76565b9050919050565b6000602082019050818103600083015261233b81611fdc565b9050919050565b6000602082019050818103600083015261235b8161201c565b9050919050565b6000602082019050818103600083015261237b8161205c565b9050919050565b6000602082019050818103600083015261239b8161209c565b9050919050565b60006020820190506123b76000830184612102565b92915050565b60006040820190506123d26000830185612102565b6123df6020830184611c8e565b9392505050565b60006060820190506123fb6000830187612102565b6124086020830186611c8e565b818103604083015261241b818486611cac565b905095945050505050565b600060408201905061243b6000830185612102565b6124486020830184612102565b9392505050565b60006060820190506124646000830186612102565b6124716020830185612102565b61247e6040830184612102565b949350505050565b6000604051905081810181811067ffffffffffffffff821117156124a957600080fd5b8060405250919050565b600081519050919050565b600081519050919050565b600082825260208201905092915050565b600081905092915050565b600082825260208201905092915050565b600081905092915050565b600061250c82612543565b9050919050565b60008115159050919050565b600061252a82612501565b9050919050565b600061253c82612501565b9050919050565b600073ffffffffffffffffffffffffffffffffffffffff82169050919050565b6000819050919050565b6000612578826125eb565b9050919050565b600061258a82612591565b9050919050565b600061259c82612543565b9050919050565b60006125ae826125b5565b9050919050565b60006125c082612543565b9050919050565b60006125d2826125d9565b9050919050565b60006125e482612543565b9050919050565b60006125f6826125fd565b9050919050565b600061260882612543565b9050919050565b82818337600083830152505050565b60005b8381101561263c578082015181840152602081019050612621565b8381111561264b576000848401525b50505050565b6000601f19601f8301169050919050565b61266b81612501565b811461267657600080fd5b50565b61268281612513565b811461268d57600080fd5b50565b6126998161251f565b81146126a457600080fd5b50565b6126b081612531565b81146126bb57600080fd5b50565b6126c781612563565b81146126d257600080fd5b5056fea264697066735822122006df52823b811a7678ff1d5b926efb29b43e0882f9f9f5ec0f9af591b66e03dc64736f6c634300060b0033",
  "linkReferences": {},
  "deployedLinkReferences": {}
}