{
  "_format": "hh-sol-artifact-1",
  "contractName": "MockWalletChecker",
  "sourceName": "contracts/mocks/curve/MockWalletChecker.sol",
  "abi": [
    {
      "inputs": [
        {
          "internalType": "address",
          "name": "wallet",
          "type": "address"
        }
      ],
      "name": "approveWallet",
      "outputs": [],
      "stateMutability": "nonpayable",
      "type": "function"
    },
    {
      "inputs": [
        {
          "internalType": "address",
          "name": "wallet",
          "type": "address"
        }
      ],
      "name": "check",
      "outputs": [
        {
          "internalType": "bool",
          "name": "",
          "type": "bool"
        }
      ],
      "stateMutability": "view",
      "type": "function"
    },
    {
      "inputs": [
        {
          "internalType": "address",
          "name": "",
          "type": "address"
        }
      ],
      "name": "wallets",
      "outputs": [
        {
          "internalType": "bool",
          "name": "",
          "type": "bool"
        }
      ],
      "stateMutability": "view",
      "type": "function"
    }
  ],
  "bytecode": "0x608060405234801561001057600080fd5b50610141806100206000396000f3fe608060405234801561001057600080fd5b50600436106100415760003560e01c80630fcb0ae51461004657806389b08f1114610087578063c23697a8146100be575b600080fd5b6100856100543660046100f7565b73ffffffffffffffffffffffffffffffffffffffff166000908152602081905260409020805460ff19166001179055565b005b6100aa6100953660046100f7565b60006020819052908152604090205460ff1681565b604051901515815260200160405180910390f35b6100aa6100cc3660046100f7565b73ffffffffffffffffffffffffffffffffffffffff1660009081526020819052604090205460ff1690565b60006020828403121561010957600080fd5b813573ffffffffffffffffffffffffffffffffffffffff8116811461012d57600080fd5b939250505056fea164736f6c634300080b000a",
  "linkReferences": {},
  "deployedLinkReferences": {}
}