{
  "_format": "hh-sol-artifact-1",
  "contractName": "StakerVault",
  "sourceName": "contracts/StakerVault.sol",
  "abi": [
    {
      "inputs": [
        {
          "internalType": "contract IController",
          "name": "_controller",
          "type": "address"
        }
      ],
      "stateMutability": "nonpayable",
      "type": "constructor"
    },
    {
      "anonymous": false,
      "inputs": [
        {
          "indexed": true,
          "internalType": "address",
          "name": "owner",
          "type": "address"
        },
        {
          "indexed": true,
          "internalType": "address",
          "name": "spender",
          "type": "address"
        },
        {
          "indexed": false,
          "internalType": "uint256",
          "name": "value",
          "type": "uint256"
        }
      ],
      "name": "Approval",
      "type": "event"
    },
    {
      "anonymous": false,
      "inputs": [
        {
          "indexed": true,
          "internalType": "bytes32",
          "name": "key",
          "type": "bytes32"
        },
        {
          "indexed": false,
          "internalType": "address",
          "name": "value",
          "type": "address"
        },
        {
          "indexed": false,
          "internalType": "uint256",
          "name": "delay",
          "type": "uint256"
        }
      ],
      "name": "ConfigPreparedAddress",
      "type": "event"
    },
    {
      "anonymous": false,
      "inputs": [
        {
          "indexed": true,
          "internalType": "bytes32",
          "name": "key",
          "type": "bytes32"
        },
        {
          "indexed": false,
          "internalType": "uint256",
          "name": "value",
          "type": "uint256"
        },
        {
          "indexed": false,
          "internalType": "uint256",
          "name": "delay",
          "type": "uint256"
        }
      ],
      "name": "ConfigPreparedNumber",
      "type": "event"
    },
    {
      "anonymous": false,
      "inputs": [
        {
          "indexed": true,
          "internalType": "bytes32",
          "name": "key",
          "type": "bytes32"
        }
      ],
      "name": "ConfigReset",
      "type": "event"
    },
    {
      "anonymous": false,
      "inputs": [
        {
          "indexed": true,
          "internalType": "bytes32",
          "name": "key",
          "type": "bytes32"
        },
        {
          "indexed": false,
          "internalType": "address",
          "name": "oldValue",
          "type": "address"
        },
        {
          "indexed": false,
          "internalType": "address",
          "name": "newValue",
          "type": "address"
        }
      ],
      "name": "ConfigUpdatedAddress",
      "type": "event"
    },
    {
      "anonymous": false,
      "inputs": [
        {
          "indexed": true,
          "internalType": "bytes32",
          "name": "key",
          "type": "bytes32"
        },
        {
          "indexed": false,
          "internalType": "uint256",
          "name": "oldValue",
          "type": "uint256"
        },
        {
          "indexed": false,
          "internalType": "uint256",
          "name": "newValue",
          "type": "uint256"
        }
      ],
      "name": "ConfigUpdatedNumber",
      "type": "event"
    },
    {
      "anonymous": false,
      "inputs": [
        {
          "indexed": true,
          "internalType": "address",
          "name": "account",
          "type": "address"
        },
        {
          "indexed": false,
          "internalType": "uint256",
          "name": "amount",
          "type": "uint256"
        }
      ],
      "name": "Staked",
      "type": "event"
    },
    {
      "anonymous": false,
      "inputs": [
        {
          "indexed": true,
          "internalType": "address",
          "name": "from",
          "type": "address"
        },
        {
          "indexed": true,
          "internalType": "address",
          "name": "to",
          "type": "address"
        },
        {
          "indexed": false,
          "internalType": "uint256",
          "name": "value",
          "type": "uint256"
        }
      ],
      "name": "Transfer",
      "type": "event"
    },
    {
      "anonymous": false,
      "inputs": [
        {
          "indexed": true,
          "internalType": "address",
          "name": "account",
          "type": "address"
        },
        {
          "indexed": false,
          "internalType": "uint256",
          "name": "amount",
          "type": "uint256"
        }
      ],
      "name": "Unstaked",
      "type": "event"
    },
    {
      "inputs": [
        {
          "internalType": "address",
          "name": "account",
          "type": "address"
        }
      ],
      "name": "actionLockedBalanceOf",
      "outputs": [
        {
          "internalType": "uint256",
          "name": "",
          "type": "uint256"
        }
      ],
      "stateMutability": "view",
      "type": "function"
    },
    {
      "inputs": [
        {
          "internalType": "address",
          "name": "",
          "type": "address"
        }
      ],
      "name": "actionLockedBalances",
      "outputs": [
        {
          "internalType": "uint256",
          "name": "",
          "type": "uint256"
        }
      ],
      "stateMutability": "view",
      "type": "function"
    },
    {
      "inputs": [
        {
          "internalType": "address",
          "name": "strategy",
          "type": "address"
        }
      ],
      "name": "addStrategy",
      "outputs": [
        {
          "internalType": "bool",
          "name": "",
          "type": "bool"
        }
      ],
      "stateMutability": "nonpayable",
      "type": "function"
    },
    {
      "inputs": [
        {
          "internalType": "address",
          "name": "owner",
          "type": "address"
        },
        {
          "internalType": "address",
          "name": "spender",
          "type": "address"
        }
      ],
      "name": "allowance",
      "outputs": [
        {
          "internalType": "uint256",
          "name": "",
          "type": "uint256"
        }
      ],
      "stateMutability": "view",
      "type": "function"
    },
    {
      "inputs": [
        {
          "internalType": "address",
          "name": "spender",
          "type": "address"
        },
        {
          "internalType": "uint256",
          "name": "amount",
          "type": "uint256"
        }
      ],
      "name": "approve",
      "outputs": [
        {
          "internalType": "bool",
          "name": "",
          "type": "bool"
        }
      ],
      "stateMutability": "nonpayable",
      "type": "function"
    },
    {
      "inputs": [
        {
          "internalType": "address",
          "name": "account",
          "type": "address"
        }
      ],
      "name": "balanceOf",
      "outputs": [
        {
          "internalType": "uint256",
          "name": "",
          "type": "uint256"
        }
      ],
      "stateMutability": "view",
      "type": "function"
    },
    {
      "inputs": [
        {
          "internalType": "address",
          "name": "",
          "type": "address"
        }
      ],
      "name": "balances",
      "outputs": [
        {
          "internalType": "uint256",
          "name": "",
          "type": "uint256"
        }
      ],
      "stateMutability": "view",
      "type": "function"
    },
    {
      "inputs": [],
      "name": "controller",
      "outputs": [
        {
          "internalType": "contract IController",
          "name": "",
          "type": "address"
        }
      ],
      "stateMutability": "view",
      "type": "function"
    },
    {
      "inputs": [
        {
          "internalType": "bytes32",
          "name": "",
          "type": "bytes32"
        }
      ],
      "name": "currentAddresses",
      "outputs": [
        {
          "internalType": "address",
          "name": "",
          "type": "address"
        }
      ],
      "stateMutability": "view",
      "type": "function"
    },
    {
      "inputs": [
        {
          "internalType": "bytes32",
          "name": "",
          "type": "bytes32"
        }
      ],
      "name": "currentUInts256",
      "outputs": [
        {
          "internalType": "uint256",
          "name": "",
          "type": "uint256"
        }
      ],
      "stateMutability": "view",
      "type": "function"
    },
    {
      "inputs": [
        {
          "internalType": "bytes32",
          "name": "",
          "type": "bytes32"
        }
      ],
      "name": "deadlines",
      "outputs": [
        {
          "internalType": "uint256",
          "name": "",
          "type": "uint256"
        }
      ],
      "stateMutability": "view",
      "type": "function"
    },
    {
      "inputs": [],
      "name": "decimals",
      "outputs": [
        {
          "internalType": "uint8",
          "name": "",
          "type": "uint8"
        }
      ],
      "stateMutability": "view",
      "type": "function"
    },
    {
      "inputs": [
        {
          "internalType": "address",
          "name": "account",
          "type": "address"
        },
        {
          "internalType": "uint256",
          "name": "amount",
          "type": "uint256"
        }
      ],
      "name": "decreaseActionLockedBalance",
      "outputs": [
        {
          "internalType": "bool",
          "name": "",
          "type": "bool"
        }
      ],
      "stateMutability": "nonpayable",
      "type": "function"
    },
    {
      "inputs": [],
      "name": "executeLpGauge",
      "outputs": [
        {
          "internalType": "bool",
          "name": "",
          "type": "bool"
        }
      ],
      "stateMutability": "nonpayable",
      "type": "function"
    },
    {
      "inputs": [],
      "name": "getLpGauge",
      "outputs": [
        {
          "internalType": "address",
          "name": "",
          "type": "address"
        }
      ],
      "stateMutability": "view",
      "type": "function"
    },
    {
      "inputs": [],
      "name": "getPoolTotalStaked",
      "outputs": [
        {
          "internalType": "uint256",
          "name": "",
          "type": "uint256"
        }
      ],
      "stateMutability": "view",
      "type": "function"
    },
    {
      "inputs": [],
      "name": "getStakedByActions",
      "outputs": [
        {
          "internalType": "uint256",
          "name": "",
          "type": "uint256"
        }
      ],
      "stateMutability": "view",
      "type": "function"
    },
    {
      "inputs": [],
      "name": "getToken",
      "outputs": [
        {
          "internalType": "address",
          "name": "",
          "type": "address"
        }
      ],
      "stateMutability": "view",
      "type": "function"
    },
    {
      "inputs": [
        {
          "internalType": "address",
          "name": "account",
          "type": "address"
        },
        {
          "internalType": "uint256",
          "name": "amount",
          "type": "uint256"
        }
      ],
      "name": "increaseActionLockedBalance",
      "outputs": [
        {
          "internalType": "bool",
          "name": "",
          "type": "bool"
        }
      ],
      "stateMutability": "nonpayable",
      "type": "function"
    },
    {
      "inputs": [
        {
          "internalType": "address",
          "name": "_token",
          "type": "address"
        }
      ],
      "name": "initialize",
      "outputs": [],
      "stateMutability": "nonpayable",
      "type": "function"
    },
    {
      "inputs": [
        {
          "internalType": "address",
          "name": "_lpGauge",
          "type": "address"
        }
      ],
      "name": "initializeLpGauge",
      "outputs": [
        {
          "internalType": "bool",
          "name": "",
          "type": "bool"
        }
      ],
      "stateMutability": "nonpayable",
      "type": "function"
    },
    {
      "inputs": [],
      "name": "isPaused",
      "outputs": [
        {
          "internalType": "bool",
          "name": "",
          "type": "bool"
        }
      ],
      "stateMutability": "view",
      "type": "function"
    },
    {
      "inputs": [
        {
          "internalType": "address",
          "name": "user",
          "type": "address"
        }
      ],
      "name": "isStrategy",
      "outputs": [
        {
          "internalType": "bool",
          "name": "",
          "type": "bool"
        }
      ],
      "stateMutability": "view",
      "type": "function"
    },
    {
      "inputs": [],
      "name": "pause",
      "outputs": [
        {
          "internalType": "bool",
          "name": "",
          "type": "bool"
        }
      ],
      "stateMutability": "nonpayable",
      "type": "function"
    },
    {
      "inputs": [
        {
          "internalType": "bytes32",
          "name": "",
          "type": "bytes32"
        }
      ],
      "name": "pendingAddresses",
      "outputs": [
        {
          "internalType": "address",
          "name": "",
          "type": "address"
        }
      ],
      "stateMutability": "view",
      "type": "function"
    },
    {
      "inputs": [
        {
          "internalType": "bytes32",
          "name": "",
          "type": "bytes32"
        }
      ],
      "name": "pendingUInts256",
      "outputs": [
        {
          "internalType": "uint256",
          "name": "",
          "type": "uint256"
        }
      ],
      "stateMutability": "view",
      "type": "function"
    },
    {
      "inputs": [],
      "name": "poolCheckpoint",
      "outputs": [
        {
          "internalType": "bool",
          "name": "",
          "type": "bool"
        }
      ],
      "stateMutability": "nonpayable",
      "type": "function"
    },
    {
      "inputs": [
        {
          "internalType": "address",
          "name": "_lpGauge",
          "type": "address"
        }
      ],
      "name": "prepareLpGauge",
      "outputs": [
        {
          "internalType": "bool",
          "name": "",
          "type": "bool"
        }
      ],
      "stateMutability": "nonpayable",
      "type": "function"
    },
    {
      "inputs": [],
      "name": "roleManager",
      "outputs": [
        {
          "internalType": "contract IRoleManager",
          "name": "",
          "type": "address"
        }
      ],
      "stateMutability": "view",
      "type": "function"
    },
    {
      "inputs": [
        {
          "internalType": "uint256",
          "name": "amount",
          "type": "uint256"
        }
      ],
      "name": "stake",
      "outputs": [
        {
          "internalType": "bool",
          "name": "",
          "type": "bool"
        }
      ],
      "stateMutability": "nonpayable",
      "type": "function"
    },
    {
      "inputs": [
        {
          "internalType": "address",
          "name": "account",
          "type": "address"
        },
        {
          "internalType": "uint256",
          "name": "amount",
          "type": "uint256"
        }
      ],
      "name": "stakeFor",
      "outputs": [
        {
          "internalType": "bool",
          "name": "",
          "type": "bool"
        }
      ],
      "stateMutability": "nonpayable",
      "type": "function"
    },
    {
      "inputs": [
        {
          "internalType": "address",
          "name": "account",
          "type": "address"
        }
      ],
      "name": "stakedAndActionLockedBalanceOf",
      "outputs": [
        {
          "internalType": "uint256",
          "name": "",
          "type": "uint256"
        }
      ],
      "stateMutability": "view",
      "type": "function"
    },
    {
      "inputs": [
        {
          "internalType": "address",
          "name": "",
          "type": "address"
        }
      ],
      "name": "strategies",
      "outputs": [
        {
          "internalType": "bool",
          "name": "",
          "type": "bool"
        }
      ],
      "stateMutability": "view",
      "type": "function"
    },
    {
      "inputs": [],
      "name": "strategiesTotalStaked",
      "outputs": [
        {
          "internalType": "uint256",
          "name": "",
          "type": "uint256"
        }
      ],
      "stateMutability": "view",
      "type": "function"
    },
    {
      "inputs": [],
      "name": "token",
      "outputs": [
        {
          "internalType": "address",
          "name": "",
          "type": "address"
        }
      ],
      "stateMutability": "view",
      "type": "function"
    },
    {
      "inputs": [
        {
          "internalType": "address",
          "name": "account",
          "type": "address"
        },
        {
          "internalType": "uint256",
          "name": "amount",
          "type": "uint256"
        }
      ],
      "name": "transfer",
      "outputs": [
        {
          "internalType": "bool",
          "name": "",
          "type": "bool"
        }
      ],
      "stateMutability": "nonpayable",
      "type": "function"
    },
    {
      "inputs": [
        {
          "internalType": "address",
          "name": "src",
          "type": "address"
        },
        {
          "internalType": "address",
          "name": "dst",
          "type": "address"
        },
        {
          "internalType": "uint256",
          "name": "amount",
          "type": "uint256"
        }
      ],
      "name": "transferFrom",
      "outputs": [
        {
          "internalType": "bool",
          "name": "",
          "type": "bool"
        }
      ],
      "stateMutability": "nonpayable",
      "type": "function"
    },
    {
      "inputs": [],
      "name": "unpause",
      "outputs": [
        {
          "internalType": "bool",
          "name": "",
          "type": "bool"
        }
      ],
      "stateMutability": "nonpayable",
      "type": "function"
    },
    {
      "inputs": [
        {
          "internalType": "uint256",
          "name": "amount",
          "type": "uint256"
        }
      ],
      "name": "unstake",
      "outputs": [
        {
          "internalType": "bool",
          "name": "",
          "type": "bool"
        }
      ],
      "stateMutability": "nonpayable",
      "type": "function"
    },
    {
      "inputs": [
        {
          "internalType": "address",
          "name": "src",
          "type": "address"
        },
        {
          "internalType": "address",
          "name": "dst",
          "type": "address"
        },
        {
          "internalType": "uint256",
          "name": "amount",
          "type": "uint256"
        }
      ],
      "name": "unstakeFor",
      "outputs": [
        {
          "internalType": "bool",
          "name": "",
          "type": "bool"
        }
      ],
      "stateMutability": "nonpayable",
      "type": "function"
    }
  ],
  "bytecode": "0x60c06040523480156200001157600080fd5b5060405162003a2e38038062003a2e8339810160408190526200003491620001f3565b620000c7816001600160a01b0316632954018c6040518163ffffffff1660e01b815260040160206040518083038186803b1580156200007257600080fd5b505afa15801562000087573d6000803e3d6000fd5b505050506040513d601f19601f82011682018060405250810190620000ad9190620001f3565b6001600160a01b03166200014860201b62002c6d1760201c565b6001600160a01b0390811660805260408051808201909152601881527f7a65726f2061646472657373206e6f7420616c6c6f77656400000000000000006020820152908216620001355760405162461bcd60e51b81526004016200012c91906200021a565b60405180910390fd5b506001600160a01b031660a05262000272565b6040516321f8a72160e01b81526a3937b632a6b0b730b3b2b960a91b60048201526000906001600160a01b038316906321f8a7219060240160206040518083038186803b1580156200019957600080fd5b505afa158015620001ae573d6000803e3d6000fd5b505050506040513d601f19601f82011682018060405250810190620001d49190620001f3565b92915050565b6001600160a01b0381168114620001f057600080fd5b50565b6000602082840312156200020657600080fd5b81516200021381620001da565b9392505050565b600060208083528351808285015260005b8181101562000249578581018301518582016040015282016200022b565b818111156200025c576000604083870101525b50601f01601f1916929092016040019392505050565b60805160a051613734620002fa600039600081816106150152818161082f0152818161094801528181610d46015281816112220152818161163f01528181611dd4015281816121d70152818161249f015281816127da0152612a3401526000818161024e0152818161072301528181611cbb015281816120510152612d8401526137346000f3fe608060405234801561001057600080fd5b50600436106102475760003560e01c806367f729e21161013b578063b187bd26116100b8578063e3976edf1161007c578063e3976edf146105be578063f76c3399146105e7578063f77c479114610610578063fc0c546a14610637578063fcb700101461064a57600080fd5b8063b187bd2614610532578063ba4ac7111461053f578063c4d66de814610547578063d828c9861461055c578063dd62ed3e1461058557600080fd5b80638aa01ea9116100ff5780638aa01ea9146104d1578063a694fc3a146104d9578063a853ba2f146104ec578063a9059cbb146104ff578063aff1b7e41461051257600080fd5b806367f729e2146104675780636a278cd91461047a57806370a082311461048d5780637aa49725146104b65780638456cb59146104c957600080fd5b80632e8ebaae116101c95780633f4ba83a1161018d5780633f4ba83a1461041b5780634974c679146104235780635790a0c814610436578063656744a91461043e578063665a33da1461044757600080fd5b80632e8ebaae1461037f5780632ee40908146103ab578063313ce567146103be578063346a4a51146103d857806339ebf823146103f857600080fd5b8063223e547911610210578063223e5479146102f557806323b872dd1461030857806327e235e31461031b5780632c8161241461033b5780632e17de781461036c57600080fd5b8062435da51461024c578063095ea7b31461028b57806315dbfe62146102ae5780631b99c565146102dc57806321df0da7146102e4575b600080fd5b7f00000000000000000000000000000000000000000000000000000000000000005b6040516001600160a01b0390911681526020015b60405180910390f35b61029e61029936600461336b565b610662565b6040519015158152602001610282565b6102ce6102bc366004613397565b60026020526000908152604090205481565b604051908152602001610282565b61029e61071f565b6006546001600160a01b031661026e565b61029e6103033660046133b0565b610944565b61029e6103163660046133cd565b610a5f565b6102ce6103293660046133b0565b60076020526000908152604090205481565b666c70476175676560c81b60005260036020526000805160206136be833981519152546001600160a01b031661026e565b61029e61037a366004613397565b610fb5565b61029e61038d3660046133b0565b6001600160a01b03166000908152600b602052604090205460ff1690565b61029e6103b936600461336b565b610fc8565b6103c6611553565b60405160ff9091168152602001610282565b6102ce6103e6366004613397565b60056020526000908152604090205481565b61029e6104063660046133b0565b600b6020526000908152604090205460ff1681565b61029e6115d0565b61029e6104313660046133cd565b61163a565b61029e611bdc565b6102ce600c5481565b6102ce6104553660046133b0565b60086020526000908152604090205481565b61029e6104753660046133b0565b611cb7565b61029e61048836600461336b565b611dd0565b6102ce61049b3660046133b0565b6001600160a01b031660009081526007602052604090205490565b61029e6104c43660046133b0565b61204d565b61029e6122e4565b600a546102ce565b61029e6104e7366004613397565b612352565b6102ce6104fa3660046133b0565b61235e565b61029e61050d36600461336b565b61238c565b6102ce610520366004613397565b60046020526000908152604090205481565b60005461029e9060ff1681565b6102ce6127d5565b61055a6105553660046133b0565b612951565b005b6102ce61056a3660046133b0565b6001600160a01b031660009081526008602052604090205490565b6102ce61059336600461340e565b6001600160a01b03918216600090815260096020908152604080832093909416825291909152205490565b61026e6105cc366004613397565b6001602052600090815260409020546001600160a01b031681565b61026e6105f5366004613397565b6003602052600090815260409020546001600160a01b031681565b61026e7f000000000000000000000000000000000000000000000000000000000000000081565b60065461026e906001600160a01b031681565b61029e61065836600461336b565b612a30565b905090565b6000805460408051808201909152601281527118dbdb9d1c9858dd081a5cc81c185d5cd95960721b60208201529060ff16156106ba5760405162461bcd60e51b81526004016106b19190613473565b60405180910390fd5b503360008181526009602090815260408083206001600160a01b038816808552908352928190208690555185815283917f8c5be1e5ebec7d5bd14f71427d1e84f3dd0314c0f7b2291e5b200ac8c7c3b925910160405180910390a35060019392505050565b60007f0000000000000000000000000000000000000000000000000000000000000000604051632474521560e21b815269676f7665726e616e636560b01b60048201523360248201526001600160a01b0391909116906391d148549060440160206040518083038186803b15801561079657600080fd5b505afa1580156107aa573d6000803e3d6000fd5b505050506040513d601f19601f820116820180604052508101906107ce91906134a6565b60405180604001604052806013815260200172756e617574686f72697a65642061636365737360681b815250906108185760405162461bcd60e51b81526004016106b19190613473565b5061082c666c70476175676560c81b612cf5565b507f00000000000000000000000000000000000000000000000000000000000000006001600160a01b031663dbcd89fa6040518163ffffffff1660e01b815260040160206040518083038186803b15801561088657600080fd5b505afa15801561089a573d6000803e3d6000fd5b505050506040513d601f19601f820116820180604052508101906108be91906134c8565b60065460405163430e2e5760e01b81526001600160a01b03918216600482015291169063430e2e5790602401602060405180830381600087803b15801561090457600080fd5b505af1158015610918573d6000803e3d6000fd5b505050506040513d601f19601f8201168201806040525081019061093c91906134a6565b506001905090565b60007f00000000000000000000000000000000000000000000000000000000000000006001600160a01b031663dbcd89fa6040518163ffffffff1660e01b815260040160206040518083038186803b15801561099f57600080fd5b505afa1580156109b3573d6000803e3d6000fd5b505050506040513d601f19601f820116820180604052508101906109d791906134c8565b6001600160a01b0316336001600160a01b03161460405180604001604052806013815260200172756e617574686f72697a65642061636365737360681b81525090610a355760405162461bcd60e51b81526004016106b19190613473565b50506001600160a01b03166000908152600b60205260409020805460ff1916600190811790915590565b6000805460408051808201909152601281527118dbdb9d1c9858dd081a5cc81c185d5cd95960721b60208201529060ff1615610aae5760405162461bcd60e51b81526004016106b19190613473565b50826001600160a01b0316846001600160a01b031614156040518060400160405280601881526020017f73616d652061646472657373206e6f7420616c6c6f776564000000000000000081525090610b195760405162461bcd60e51b81526004016106b19190613473565b503360006001600160a01b038616821415610b375750600019610b5f565b506001600160a01b038086166000908152600960209081526040808320938516835292905220545b604080518082019091526014815273696e73756666696369656e742062616c616e636560601b602082015284821015610bab5760405162461bcd60e51b81526004016106b19190613473565b506001600160a01b0386166000908152600760209081526040918290205482518084019093526014835273696e73756666696369656e742062616c616e636560601b918301919091529085821015610c165760405162461bcd60e51b81526004016106b19190613473565b50666c70476175676560c81b60005260036020526000805160206136be833981519152546001600160a01b03168015610d425760405163b07b709b60e01b81526001600160a01b03898116600483015282169063b07b709b90602401602060405180830381600087803b158015610c8c57600080fd5b505af1158015610ca0573d6000803e3d6000fd5b505050506040513d601f19601f82011682018060405250810190610cc491906134a6565b5060405163b07b709b60e01b81526001600160a01b03888116600483015282169063b07b709b90602401602060405180830381600087803b158015610d0857600080fd5b505af1158015610d1c573d6000803e3d6000fd5b505050506040513d601f19601f82011682018060405250810190610d4091906134a6565b505b60007f00000000000000000000000000000000000000000000000000000000000000006001600160a01b0316632954018c6040518163ffffffff1660e01b815260040160206040518083038186803b158015610d9d57600080fd5b505afa158015610db1573d6000803e3d6000fd5b505050506040513d601f19601f82011682018060405250810190610dd591906134c8565b600654604051630956fef360e21b81526001600160a01b03918216600482015291169063255bfbcc9060240160206040518083038186803b158015610e1957600080fd5b505afa158015610e2d573d6000803e3d6000fd5b505050506040513d601f19601f82011682018060405250810190610e5191906134c8565b604051631e36c19360e31b81529091506001600160a01b0382169063f1b60c9890610e84908c908c908c906004016134e5565b600060405180830381600087803b158015610e9e57600080fd5b505af1158015610eb2573d6000803e3d6000fd5b5050505060008785610ec4919061351f565b90506000610ed2898661351f565b6001600160a01b038b1660009081526007602052604081205491925090610efa908b90613536565b6001600160a01b03808e16600090815260076020526040808220869055918e1681522081905590506000198714610f54576001600160a01b03808d166000908152600960209081526040808320938c168352929052208390555b8a6001600160a01b03168c6001600160a01b03167fddf252ad1be2c89b69c2b068fc378daa952ba7f163c4a11628f55a4df523b3ef8c604051610f9991815260200190565b60405180910390a36001985050505050505050505b9392505050565b6000610fc233338461163a565b92915050565b6000805460408051808201909152601281527118dbdb9d1c9858dd081a5cc81c185d5cd95960721b60208201529060ff16156110175760405162461bcd60e51b81526004016106b19190613473565b506006546040516370a0823160e01b815233600482015283916001600160a01b0316906370a082319060240160206040518083038186803b15801561105b57600080fd5b505afa15801561106f573d6000803e3d6000fd5b505050506040513d601f19601f82011682018060405250810190611093919061354e565b101560405180604001604052806014815260200173696e73756666696369656e742062616c616e636560601b815250906110e05760405162461bcd60e51b81526004016106b19190613473565b50666c70476175676560c81b60005260036020526000805160206136be833981519152546001600160a01b031680156111905760405163b07b709b60e01b81526001600160a01b03858116600483015282169063b07b709b90602401602060405180830381600087803b15801561115657600080fd5b505af115801561116a573d6000803e3d6000fd5b505050506040513d601f19601f8201168201806040525081019061118e91906134a6565b505b6006546040516370a0823160e01b81523060048201526000916001600160a01b0316906370a082319060240160206040518083038186803b1580156111d457600080fd5b505afa1580156111e8573d6000803e3d6000fd5b505050506040513d601f19601f8201168201806040525081019061120c919061354e565b9050336001600160a01b038616146113945760007f00000000000000000000000000000000000000000000000000000000000000006001600160a01b0316632954018c6040518163ffffffff1660e01b815260040160206040518083038186803b15801561127957600080fd5b505afa15801561128d573d6000803e3d6000fd5b505050506040513d601f19601f820116820180604052508101906112b191906134c8565b600654604051630956fef360e21b81526001600160a01b03918216600482015291169063255bfbcc9060240160206040518083038186803b1580156112f557600080fd5b505afa158015611309573d6000803e3d6000fd5b505050506040513d601f19601f8201168201806040525081019061132d91906134c8565b604051631e36c19360e31b81529091506001600160a01b0382169063f1b60c98906113609033908a908a906004016134e5565b600060405180830381600087803b15801561137a57600080fd5b505af115801561138e573d6000803e3d6000fd5b50505050505b6006546113ac906001600160a01b0316333087612d22565b6006546040516370a0823160e01b815230600482015260009183916001600160a01b03909116906370a082319060240160206040518083038186803b1580156113f457600080fd5b505afa158015611408573d6000803e3d6000fd5b505050506040513d601f19601f8201168201806040525081019061142c919061354e565b611436919061351f565b90508481146040518060400160405280600e81526020016d1a5b9d985b1a5908185b5bdd5b9d60921b815250906114805760405162461bcd60e51b81526004016106b19190613473565b506001600160a01b038616600090815260076020526040812080548392906114a9908490613536565b90915550506001600160a01b0386166000908152600b602052604090205460ff16156114ec5780600c60008282546114e19190613536565b909155506115049050565b80600a60008282546114fe9190613536565b90915550505b856001600160a01b03167f9e71bc8eea02a63969f509818f2dafb9254532904319f9dbda79b67bd34a5f3d8660405161153f91815260200190565b60405180910390a250600195945050505050565b6006546040805163313ce56760e01b815290516000926001600160a01b03169163313ce567916004808301926020929190829003018186803b15801561159857600080fd5b505afa1580156115ac573d6000803e3d6000fd5b505050506040513d601f19601f8201168201806040525081019061065d9190613567565b60006115db33612d80565b604051806040016040528060178152602001766e6f7420617574686f72697a656420746f20706175736560481b815250906116295760405162461bcd60e51b81526004016106b19190613473565b50506000805460ff19169055600190565b6000807f00000000000000000000000000000000000000000000000000000000000000006001600160a01b0316632954018c6040518163ffffffff1660e01b815260040160206040518083038186803b15801561169657600080fd5b505afa1580156116aa573d6000803e3d6000fd5b505050506040513d601f19601f820116820180604052508101906116ce91906134c8565b600654604051630956fef360e21b81526001600160a01b03918216600482015291169063255bfbcc9060240160206040518083038186803b15801561171257600080fd5b505afa158015611726573d6000803e3d6000fd5b505050506040513d601f19601f8201168201806040525081019061174a91906134c8565b6001600160a01b038616600081815260096020908152604080832033808552925290912054929350148061177e5750838110155b8061179157506001600160a01b03821633145b60405180604001604052806013815260200172756e617574686f72697a65642061636365737360681b815250906117db5760405162461bcd60e51b81526004016106b19190613473565b508360076000886001600160a01b03166001600160a01b0316815260200190815260200160002054101560405180604001604052806014815260200173696e73756666696369656e742062616c616e636560601b815250906118505760405162461bcd60e51b81526004016106b19190613473565b50666c70476175676560c81b60005260036020526000805160206136be833981519152546001600160a01b031680156119005760405163b07b709b60e01b81526001600160a01b03888116600483015282169063b07b709b90602401602060405180830381600087803b1580156118c657600080fd5b505af11580156118da573d6000803e3d6000fd5b505050506040513d601f19601f820116820180604052508101906118fe91906134a6565b505b6006546040516370a0823160e01b81523060048201526000916001600160a01b0316906370a082319060240160206040518083038186803b15801561194457600080fd5b505afa158015611958573d6000803e3d6000fd5b505050506040513d601f19601f8201168201806040525081019061197c919061354e565b9050866001600160a01b0316886001600160a01b0316146119fa57604051631e36c19360e31b81526001600160a01b0385169063f1b60c98906119c7908b908b908b906004016134e5565b600060405180830381600087803b1580156119e157600080fd5b505af11580156119f5573d6000803e3d6000fd5b505050505b600654611a11906001600160a01b03168888612e31565b6006546040516370a0823160e01b81523060048201526000916001600160a01b0316906370a082319060240160206040518083038186803b158015611a5557600080fd5b505afa158015611a69573d6000803e3d6000fd5b505050506040513d601f19601f82011682018060405250810190611a8d919061354e565b611a97908361351f565b90506001600160a01b0389163314801590611ab457506000198414155b8015611ac957506001600160a01b0385163314155b15611b07576001600160a01b038916600090815260096020908152604080832033845290915281208054839290611b0190849061351f565b90915550505b6001600160a01b03891660009081526007602052604081208054839290611b2f90849061351f565b90915550506001600160a01b0389166000908152600b602052604090205460ff1615611b725780600c6000828254611b67919061351f565b90915550611b8a9050565b80600a6000828254611b84919061351f565b90915550505b886001600160a01b03167f0f5bb82176feb1b5e747e28471aa92156a04d9f3ab9f45f28e2d704232b93f7588604051611bc591815260200190565b60405180910390a250600198975050505050505050565b666c70476175676560c81b600090815260036020526000805160206136be833981519152546001600160a01b031615611cb157666c70476175676560c81b6000908152600360209081526000805160206136be8339815191525460408051630af2141960e31b815290516001600160a01b0390921693635790a0c89360048084019491939192918390030190829087803b158015611c7957600080fd5b505af1158015611c8d573d6000803e3d6000fd5b505050506040513d601f19601f8201168201806040525081019061065d91906134a6565b50600090565b60007f0000000000000000000000000000000000000000000000000000000000000000604051632474521560e21b815269676f7665726e616e636560b01b60048201523360248201526001600160a01b0391909116906391d148549060440160206040518083038186803b158015611d2e57600080fd5b505afa158015611d42573d6000803e3d6000fd5b505050506040513d601f19601f82011682018060405250810190611d6691906134a6565b60405180604001604052806013815260200172756e617574686f72697a65642061636365737360681b81525090611db05760405162461bcd60e51b81526004016106b19190613473565b50611dc5666c70476175676560c81b83612e66565b50600190505b919050565b60007f00000000000000000000000000000000000000000000000000000000000000006001600160a01b0316632954018c6040518163ffffffff1660e01b815260040160206040518083038186803b158015611e2b57600080fd5b505afa158015611e3f573d6000803e3d6000fd5b505050506040513d601f19601f82011682018060405250810190611e6391906134c8565b60405163622e68cb60e01b81523360048201526001600160a01b03919091169063622e68cb9060240160206040518083038186803b158015611ea457600080fd5b505afa158015611eb8573d6000803e3d6000fd5b505050506040513d601f19601f82011682018060405250810190611edc91906134a6565b60405180604001604052806013815260200172756e617574686f72697a65642061636365737360681b81525090611f265760405162461bcd60e51b81526004016106b19190613473565b50666c70476175676560c81b60005260036020526000805160206136be833981519152546001600160a01b03168015611fd65760405163b07b709b60e01b81526001600160a01b03858116600483015282169063b07b709b90602401602060405180830381600087803b158015611f9c57600080fd5b505af1158015611fb0573d6000803e3d6000fd5b505050506040513d601f19601f82011682018060405250810190611fd491906134a6565b505b6001600160a01b038416600090815260086020526040902054831015612029576001600160a01b0384166000908152600860205260408120805485929061201e90849061351f565b909155506120439050565b6001600160a01b0384166000908152600860205260408120555b5060019392505050565b60007f0000000000000000000000000000000000000000000000000000000000000000604051632474521560e21b815269676f7665726e616e636560b01b60048201523360248201526001600160a01b0391909116906391d148549060440160206040518083038186803b1580156120c457600080fd5b505afa1580156120d8573d6000803e3d6000fd5b505050506040513d601f19601f820116820180604052508101906120fc91906134a6565b60405180604001604052806013815260200172756e617574686f72697a65642061636365737360681b815250906121465760405162461bcd60e51b81526004016106b19190613473565b50666c70476175676560c81b600052600360209081526000805160206136be83398151915254604080518082019091526013815272726f6c6520616c72656164792065786973747360681b928101929092526001600160a01b0316156121bf5760405162461bcd60e51b81526004016106b19190613473565b506121d4666c70476175676560c81b83612e76565b507f00000000000000000000000000000000000000000000000000000000000000006001600160a01b031663dbcd89fa6040518163ffffffff1660e01b815260040160206040518083038186803b15801561222e57600080fd5b505afa158015612242573d6000803e3d6000fd5b505050506040513d601f19601f8201168201806040525081019061226691906134c8565b60065460405163430e2e5760e01b81526001600160a01b03918216600482015291169063430e2e5790602401602060405180830381600087803b1580156122ac57600080fd5b505af11580156122c0573d6000803e3d6000fd5b505050506040513d601f19601f82011682018060405250810190611dc591906134a6565b60006122ef33612d80565b604051806040016040528060178152602001766e6f7420617574686f72697a656420746f20706175736560481b8152509061233d5760405162461bcd60e51b81526004016106b19190613473565b50506000805460ff1916600190811790915590565b6000610fc23383610fc8565b6001600160a01b0381166000908152600860209081526040808320546007909252822054610fc29190613536565b6000805460408051808201909152601281527118dbdb9d1c9858dd081a5cc81c185d5cd95960721b60208201529060ff16156123db5760405162461bcd60e51b81526004016106b19190613473565b5060408051808201909152601981527f73656c662d7472616e73666572206e6f7420616c6c6f776564000000000000006020820152336001600160a01b038516141561243a5760405162461bcd60e51b81526004016106b19190613473565b50336000908152600760209081526040918290205482518084019093526014835273696e73756666696369656e742062616c616e636560601b9183019190915283111561249a5760405162461bcd60e51b81526004016106b19190613473565b5060007f00000000000000000000000000000000000000000000000000000000000000006001600160a01b0316632954018c6040518163ffffffff1660e01b815260040160206040518083038186803b1580156124f657600080fd5b505afa15801561250a573d6000803e3d6000fd5b505050506040513d601f19601f8201168201806040525081019061252e91906134c8565b600654604051630956fef360e21b81526001600160a01b03918216600482015291169063255bfbcc9060240160206040518083038186803b15801561257257600080fd5b505afa158015612586573d6000803e3d6000fd5b505050506040513d601f19601f820116820180604052508101906125aa91906134c8565b604051631e36c19360e31b81529091506001600160a01b0382169063f1b60c98906125dd903390889088906004016134e5565b600060405180830381600087803b1580156125f757600080fd5b505af115801561260b573d6000803e3d6000fd5b5050336000908152600760205260408120805487945090925061262f90849061351f565b90915550506001600160a01b0384166000908152600760205260408120805485929061265c908490613536565b9091555050666c70476175676560c81b60005260036020526000805160206136be833981519152546001600160a01b0316801561278a5760405163b07b709b60e01b81523360048201526001600160a01b0382169063b07b709b90602401602060405180830381600087803b1580156126d457600080fd5b505af11580156126e8573d6000803e3d6000fd5b505050506040513d601f19601f8201168201806040525081019061270c91906134a6565b5060405163b07b709b60e01b81526001600160a01b03868116600483015282169063b07b709b90602401602060405180830381600087803b15801561275057600080fd5b505af1158015612764573d6000803e3d6000fd5b505050506040513d601f19601f8201168201806040525081019061278891906134a6565b505b6040518481526001600160a01b0386169033907fddf252ad1be2c89b69c2b068fc378daa952ba7f163c4a11628f55a4df523b3ef9060200160405180910390a3506001949350505050565b6000807f00000000000000000000000000000000000000000000000000000000000000006001600160a01b0316632954018c6040518163ffffffff1660e01b815260040160206040518083038186803b15801561283157600080fd5b505afa158015612845573d6000803e3d6000fd5b505050506040513d601f19601f8201168201806040525081019061286991906134c8565b6001600160a01b0316635d138a346040518163ffffffff1660e01b815260040160006040518083038186803b1580156128a157600080fd5b505afa1580156128b5573d6000803e3d6000fd5b505050506040513d6000823e601f3d908101601f191682016040526128dd91908101906135ab565b90506000805b825181101561294a576007600084838151811061290257612902613670565b60200260200101516001600160a01b03166001600160a01b0316815260200190815260200160002054826129369190613536565b91508061294281613686565b9150506128e3565b5092915050565b60005462010000900460ff1661297257600054610100900460ff1615612976565b303b155b6129d95760405162461bcd60e51b815260206004820152602e60248201527f496e697469616c697a61626c653a20636f6e747261637420697320616c72656160448201526d191e481a5b9a5d1a585b1a5e995960921b60648201526084016106b1565b60005462010000900460ff161580156129fe576000805462ffff001916620101001790555b600680546001600160a01b0319166001600160a01b0384161790558015612a2c576000805462ff0000191690555b5050565b60007f00000000000000000000000000000000000000000000000000000000000000006001600160a01b0316632954018c6040518163ffffffff1660e01b815260040160206040518083038186803b158015612a8b57600080fd5b505afa158015612a9f573d6000803e3d6000fd5b505050506040513d601f19601f82011682018060405250810190612ac391906134c8565b60405163622e68cb60e01b81523360048201526001600160a01b03919091169063622e68cb9060240160206040518083038186803b158015612b0457600080fd5b505afa158015612b18573d6000803e3d6000fd5b505050506040513d601f19601f82011682018060405250810190612b3c91906134a6565b60405180604001604052806013815260200172756e617574686f72697a65642061636365737360681b81525090612b865760405162461bcd60e51b81526004016106b19190613473565b50666c70476175676560c81b60005260036020526000805160206136be833981519152546001600160a01b03168015612c365760405163b07b709b60e01b81526001600160a01b03858116600483015282169063b07b709b90602401602060405180830381600087803b158015612bfc57600080fd5b505af1158015612c10573d6000803e3d6000fd5b505050506040513d601f19601f82011682018060405250810190612c3491906134a6565b505b6001600160a01b03841660009081526008602052604081208054859290612c5e908490613536565b90915550600195945050505050565b6040516321f8a72160e01b81526a3937b632a6b0b730b3b2b960a91b60048201526000906001600160a01b038316906321f8a7219060240160206040518083038186803b158015612cbd57600080fd5b505afa158015612cd1573d6000803e3d6000fd5b505050506040513d601f19601f82011682018060405250810190610fc291906134c8565b6000612d0082612f01565b6000828152600160205260409020546001600160a01b031661294a8382612e76565b612d7a846323b872dd60e01b858585604051602401612d43939291906134e5565b60408051601f198184030181529190526020810180516001600160e01b03166001600160e01b031990931692909217909152612faa565b50505050565b60007f0000000000000000000000000000000000000000000000000000000000000000604051632474521560e21b815269676f7665726e616e636560b01b60048201526001600160a01b03848116602483015291909116906391d148549060440160206040518083038186803b158015612df957600080fd5b505afa158015612e0d573d6000803e3d6000fd5b505050506040513d601f19601f82011682018060405250810190610fc291906134a6565b6040516001600160a01b038316602482015260448101829052612e6190849063a9059cbb60e01b90606401612d43565b505050565b6000610fae83836203f48061307c565b600082815260036020908152604080832080546001600160a01b03198082166001600160a01b03888116918217909455600186528487208054909216909155600585528386208690558351929091168083529382015285917fc4a957706c639829ad54381b04930c464db6c7ffdc09d2b4b1acc9ee34fb9261910160405180910390a2509092915050565b600060056000838152602001908152602001600020549050804210156040518060600160405280602181526020016136de6021913990612f545760405162461bcd60e51b81526004016106b19190613473565b5060408051808201909152600d81526c0646561646c696e65206973203609c1b602082015281612f975760405162461bcd60e51b81526004016106b19190613473565b5050600090815260056020526040812055565b6000612fff826040518060400160405280602081526020017f5361666545524332303a206c6f772d6c6576656c2063616c6c206661696c6564815250856001600160a01b03166130f89092919063ffffffff16565b805190915015612e61578080602001905181019061301d91906134a6565b612e615760405162461bcd60e51b815260206004820152602a60248201527f5361666545524332303a204552433230206f7065726174696f6e20646964206e6044820152691bdd081cdd58d8d9595960b21b60648201526084016106b1565b6000613088848361310f565b60008481526001602090815260409182902080546001600160a01b0319166001600160a01b038716908117909155825190815290810184905285917fd46e58ee9dc1ae703349f8c09c19f23213a531b4d57f00cfd4a5a6cb6519668d910160405180910390a25060019392505050565b606061310784846000856131e9565b949350505050565b6005600083815260200190815260200160002054600014604051806040016040528060128152602001710646561646c696e65206d75737420626520360741b8152509061316f5760405162461bcd60e51b81526004016106b19190613473565b5060408051808201909152601881527f64656c6179206265206174206c6561737420332064617973000000000000000060208201526203f4808210156131c85760405162461bcd60e51b81526004016106b19190613473565b506131d38142613536565b6000928352600560205260409092209190915550565b60608247101561324a5760405162461bcd60e51b815260206004820152602660248201527f416464726573733a20696e73756666696369656e742062616c616e636520666f6044820152651c8818d85b1b60d21b60648201526084016106b1565b6001600160a01b0385163b6132a15760405162461bcd60e51b815260206004820152601d60248201527f416464726573733a2063616c6c20746f206e6f6e2d636f6e747261637400000060448201526064016106b1565b600080866001600160a01b031685876040516132bd91906136a1565b60006040518083038185875af1925050503d80600081146132fa576040519150601f19603f3d011682016040523d82523d6000602084013e6132ff565b606091505b509150915061330f82828661331a565b979650505050505050565b60608315613329575081610fae565b8251156133395782518084602001fd5b8160405162461bcd60e51b81526004016106b19190613473565b6001600160a01b038116811461336857600080fd5b50565b6000806040838503121561337e57600080fd5b823561338981613353565b946020939093013593505050565b6000602082840312156133a957600080fd5b5035919050565b6000602082840312156133c257600080fd5b8135610fae81613353565b6000806000606084860312156133e257600080fd5b83356133ed81613353565b925060208401356133fd81613353565b929592945050506040919091013590565b6000806040838503121561342157600080fd5b823561342c81613353565b9150602083013561343c81613353565b809150509250929050565b60005b8381101561346257818101518382015260200161344a565b83811115612d7a5750506000910152565b6020815260008251806020840152613492816040850160208701613447565b601f01601f19169190910160400192915050565b6000602082840312156134b857600080fd5b81518015158114610fae57600080fd5b6000602082840312156134da57600080fd5b8151610fae81613353565b6001600160a01b039384168152919092166020820152604081019190915260600190565b634e487b7160e01b600052601160045260246000fd5b60008282101561353157613531613509565b500390565b6000821982111561354957613549613509565b500190565b60006020828403121561356057600080fd5b5051919050565b60006020828403121561357957600080fd5b815160ff81168114610fae57600080fd5b634e487b7160e01b600052604160045260246000fd5b8051611dcb81613353565b600060208083850312156135be57600080fd5b825167ffffffffffffffff808211156135d657600080fd5b818501915085601f8301126135ea57600080fd5b8151818111156135fc576135fc61358a565b8060051b604051601f19603f830116810181811085821117156136215761362161358a565b60405291825284820192508381018501918883111561363f57600080fd5b938501935b8285101561366457613655856135a0565b84529385019392850192613644565b98975050505050505050565b634e487b7160e01b600052603260045260246000fd5b600060001982141561369a5761369a613509565b5060010190565b600082516136b3818460208701613447565b919091019291505056fe86466fc61611a66af4ee4917ba62b47a0daa6e252ca07edd84752da51f71063c646561646c696e6520686173206e6f74206265656e207265616368656420796574a264697066735822122038c646bf0af1f265ca7623911de41535b482e08c977f132a034782b6fa57fe5964736f6c63430008090033",
  "linkReferences": {},
  "deployedLinkReferences": {}
}