{
  "_format": "hh-sol-artifact-1",
  "contractName": "LibSherX",
  "sourceName": "contracts/libraries/LibSherX.sol",
  "abi": [
    {
      "inputs": [
        {
          "internalType": "uint256",
          "name": "_amount",
          "type": "uint256"
        }
      ],
      "name": "calcUnderlying",
      "outputs": [
        {
          "internalType": "contract IERC20[]",
          "name": "tokens",
          "type": "IERC20[]"
        },
        {
          "internalType": "uint256[]",
          "name": "amounts",
          "type": "uint256[]"
        }
      ],
      "stateMutability": "view",
      "type": "function"
    },
    {
      "inputs": [],
      "name": "getTotalSherX",
      "outputs": [
        {
          "internalType": "uint256",
          "name": "",
          "type": "uint256"
        }
      ],
      "stateMutability": "view",
      "type": "function"
    },
    {
      "inputs": [],
      "name": "viewAccrueUSDPool",
      "outputs": [
        {
          "internalType": "uint256",
          "name": "totalUsdPool",
          "type": "uint256"
        }
      ],
      "stateMutability": "view",
      "type": "function"
    }
  ],
  "bytecode": "0x610ae9610026600b82828239805160001a60731461001957fe5b30600052607381538281f3fe73000000000000000000000000000000000000000030146080604052600436106100925760003560e01c80634ea37fb1116100655780634ea37fb114610110578063738bebc6146101255780637954dc4f146101db578063f42c743d146101e357610092565b8063076e04bf146100975780630c9bd076146100cc5780631229187d146100e15780633a31a740146100f6575b600080fd5b8180156100a357600080fd5b506100ca600480360360208110156100ba57600080fd5b50356001600160a01b031661020d565b005b8180156100d857600080fd5b506100ca610240565b8180156100ed57600080fd5b506100ca61025c565b6100fe6102eb565b60408051918252519081900360200190f35b81801561011c57600080fd5b506100fe610331565b6101426004803603602081101561013b57600080fd5b503561035c565b604051808060200180602001838103835285818151815260200191508051906020019060200280838360005b8381101561018657818101518382015260200161016e565b50505050905001838103825284818151815260200191508051906020019060200280838360005b838110156101c55781810151838201526020016101ad565b5050505090500194505050505060405180910390f35b6100fe61056b565b8180156101ef57600080fd5b506100ca6004803603602081101561020657600080fd5b50356105a5565b60006102176105d2565b905060006102298383600401546105f6565b9050801561023b5761023b30826106c2565b505050565b600061024a6105d2565b90506102598160040154610769565b50565b60006102666105d2565b905060006102726107f9565b60048301549091506000805b60058401548110156102cb576102c16102ba85600501838154811061029f57fe5b6000918252602090912001546001600160a01b0316856105f6565b839061081d565b915060010161027e565b5080156102dc576102dc30826106c2565b6102e582610769565b50505050565b6000806102f66105d2565b905061032b610320826001015461031a84600301544361087e90919063ffffffff16565b906108db565b60028301549061081d565b91505090565b60008061033c6105d2565b90506103466102eb565b6002820181905543600390920191909155919050565b60608060006103696107f9565b600681015490915067ffffffffffffffff8111801561038757600080fd5b506040519080825280602002602001820160405280156103b1578160200160208202803683370190505b50600682015490935067ffffffffffffffff811180156103d057600080fd5b506040519080825280602002602001820160405280156103fa578160200160208202803683370190505b509150600061040761056b565b905060005b600683015481101561056357600083600601828154811061042957fe5b9060005260206000200160009054906101000a90046001600160a01b031690508086838151811061045657fe5b6001600160a01b0390921660209283029190910190910152821561053f57600061047f82610934565b90506105218461051b8a61031a73__$f06c55dfbaf779ce4e61bb81add28e8f1b$__638e3dd950886040518263ffffffff1660e01b815260040180826001600160a01b0316815260200191505060206040518083038186803b1580156104e457600080fd5b505af41580156104f8573d6000803e3d6000fd5b505050506040513d602081101561050e57600080fd5b5051600e8701549061081d565b90610a07565b86848151811061052d57fe5b6020026020010181815250505061055a565b600085838151811061054d57fe5b6020026020010181815250505b5060010161040c565b505050915091565b6000806105766105d2565b905061032b61059a826004015461031a84600601544361087e90919063ffffffff16565b60058301549061081d565b60006105af6105d2565b90506105c3826105bd61056b565b9061087e565b60058201554360069091015550565b7fcdaab98845a65ea47b0852a56cf7039170a5285c240d3bfde826581682c8fcd590565b60008061060284610934565b60068101549091506106369061ffff9061051b908281169061031a9088908290439062010000900464ffffffffff1661087e565b60068201805466ffffffffff00001916620100004364ffffffffff16021790559150816106675760009150506106bc565b6001600160a01b038416301415610691576002810154610687908361081d565b60028201556106ba565b60058101546106a0908361081d565b600582015560088101546106b4908361081d565b60088201555b505b92915050565b60006106cc610a6e565b6001600160a01b03841660009081526003820160205260409020549091506106f4908361081d565b6001600160a01b0384166000908152600383016020526040902055600281015461071e908361081d565b60028201556040805183815290516001600160a01b038516916000917fddf252ad1be2c89b69c2b068fc378daa952ba7f163c4a11628f55a4df523b3ef9181900360200190a3505050565b60006107736107f9565b60078101549091506000906107b19061ffff9061051b90600160a01b810483169061031a90889082904390600160b01b900464ffffffffff1661087e565b60078301805464ffffffffff60b01b1916600160b01b4364ffffffffff16021790559050806107e1575050610259565b600782015461023b906001600160a01b0316826106c2565b7f190488561d88e36f1e28cbe7392dc28aedf700281c58bde4049b57fb87e2944c90565b600082820183811015610877576040805162461bcd60e51b815260206004820152601b60248201527f536166654d6174683a206164646974696f6e206f766572666c6f770000000000604482015290519081900360640190fd5b9392505050565b6000828211156108d5576040805162461bcd60e51b815260206004820152601e60248201527f536166654d6174683a207375627472616374696f6e206f766572666c6f770000604482015290519081900360640190fd5b50900390565b6000826108ea575060006106bc565b828202828482816108f757fe5b04146108775760405162461bcd60e51b8152600401808060200182810382526021815260200180610a936021913960400191505060405180910390fd5b600080604051806040016040528060168152602001753234b0b6b7b7321739b432b93637b1b5973837b7b61760511b815250836040516020018080602001836001600160a01b03168152602001828103825284818151815260200191508051906020019080838360005b838110156109b657818101518382015260200161099e565b50505050905090810190601f1680156109e35780820380516001836020036101000a031916815260200191505b5060408051601f198184030181529190528051602090910120979650505050505050565b6000808211610a5d576040805162461bcd60e51b815260206004820152601a60248201527f536166654d6174683a206469766973696f6e206279207a65726f000000000000604482015290519081900360640190fd5b818381610a6657fe5b049392505050565b7fc0ca2b8775046ee5e33165d3145277182912c7895a3747ac51a97d562a7ce5d09056fe536166654d6174683a206d756c7469706c69636174696f6e206f766572666c6f77a26469706673582212204c8abbfb5edb3e7e28649c329264cff16d06cf2904dcce8185c11d3496a1318664736f6c63430007060033",
  "linkReferences": {
    "contracts/libraries/LibPool.sol": {
      "LibPool": [
        {
          "length": 20,
          "start": 1204
        }
      ]
    }
  },
  "deployedLinkReferences": {
    "contracts/libraries/LibPool.sol": {
      "LibPool": [
        {
          "length": 20,
          "start": 1166
        }
      ]
    }
  }
}