{
  "_format": "hh-sol-artifact-1",
  "contractName": "SherX",
  "sourceName": "contracts/facets/SherX.sol",
  "abi": [
    {
      "anonymous": false,
      "inputs": [
        {
          "indexed": true,
          "internalType": "address",
          "name": "user",
          "type": "address"
        },
        {
          "indexed": true,
          "internalType": "contract IERC20",
          "name": "token",
          "type": "address"
        }
      ],
      "name": "Harvest",
      "type": "event"
    },
    {
      "inputs": [
        {
          "internalType": "address",
          "name": "from",
          "type": "address"
        },
        {
          "internalType": "address",
          "name": "to",
          "type": "address"
        },
        {
          "internalType": "uint256",
          "name": "amount",
          "type": "uint256"
        }
      ],
      "name": "_beforeTokenTransfer",
      "outputs": [],
      "stateMutability": "nonpayable",
      "type": "function"
    },
    {
      "inputs": [
        {
          "internalType": "contract IERC20",
          "name": "_token",
          "type": "address"
        }
      ],
      "name": "accrueSherX",
      "outputs": [],
      "stateMutability": "nonpayable",
      "type": "function"
    },
    {
      "inputs": [],
      "name": "accrueSherX",
      "outputs": [],
      "stateMutability": "nonpayable",
      "type": "function"
    },
    {
      "inputs": [],
      "name": "accrueSherXWatsons",
      "outputs": [],
      "stateMutability": "nonpayable",
      "type": "function"
    },
    {
      "inputs": [
        {
          "internalType": "address",
          "name": "_user",
          "type": "address"
        }
      ],
      "name": "calcUnderlying",
      "outputs": [
        {
          "internalType": "contract IERC20[]",
          "name": "tokens",
          "type": "address[]"
        },
        {
          "internalType": "uint256[]",
          "name": "amounts",
          "type": "uint256[]"
        }
      ],
      "stateMutability": "view",
      "type": "function"
    },
    {
      "inputs": [
        {
          "internalType": "uint256",
          "name": "_amount",
          "type": "uint256"
        }
      ],
      "name": "calcUnderlying",
      "outputs": [
        {
          "internalType": "contract IERC20[]",
          "name": "tokens",
          "type": "address[]"
        },
        {
          "internalType": "uint256[]",
          "name": "amounts",
          "type": "uint256[]"
        }
      ],
      "stateMutability": "view",
      "type": "function"
    },
    {
      "inputs": [],
      "name": "calcUnderlying",
      "outputs": [
        {
          "internalType": "contract IERC20[]",
          "name": "tokens",
          "type": "address[]"
        },
        {
          "internalType": "uint256[]",
          "name": "amounts",
          "type": "uint256[]"
        }
      ],
      "stateMutability": "view",
      "type": "function"
    },
    {
      "inputs": [
        {
          "internalType": "uint256",
          "name": "_amount",
          "type": "uint256"
        }
      ],
      "name": "calcUnderlyingInStoredUSD",
      "outputs": [
        {
          "internalType": "uint256",
          "name": "usd",
          "type": "uint256"
        }
      ],
      "stateMutability": "view",
      "type": "function"
    },
    {
      "inputs": [],
      "name": "calcUnderlyingInStoredUSD",
      "outputs": [
        {
          "internalType": "uint256",
          "name": "",
          "type": "uint256"
        }
      ],
      "stateMutability": "view",
      "type": "function"
    },
    {
      "inputs": [],
      "name": "getInternalTotalSupply",
      "outputs": [
        {
          "internalType": "uint256",
          "name": "",
          "type": "uint256"
        }
      ],
      "stateMutability": "view",
      "type": "function"
    },
    {
      "inputs": [],
      "name": "getInternalTotalSupplySettled",
      "outputs": [
        {
          "internalType": "uint256",
          "name": "",
          "type": "uint256"
        }
      ],
      "stateMutability": "view",
      "type": "function"
    },
    {
      "inputs": [
        {
          "internalType": "address",
          "name": "_user",
          "type": "address"
        }
      ],
      "name": "getSherXBalance",
      "outputs": [
        {
          "internalType": "uint256",
          "name": "",
          "type": "uint256"
        }
      ],
      "stateMutability": "view",
      "type": "function"
    },
    {
      "inputs": [],
      "name": "getSherXBalance",
      "outputs": [
        {
          "internalType": "uint256",
          "name": "",
          "type": "uint256"
        }
      ],
      "stateMutability": "view",
      "type": "function"
    },
    {
      "inputs": [],
      "name": "getSherXPerBlock",
      "outputs": [
        {
          "internalType": "uint256",
          "name": "",
          "type": "uint256"
        }
      ],
      "stateMutability": "view",
      "type": "function"
    },
    {
      "inputs": [
        {
          "internalType": "contract IERC20",
          "name": "_token",
          "type": "address"
        }
      ],
      "name": "getStoredUsd",
      "outputs": [
        {
          "internalType": "uint256",
          "name": "",
          "type": "uint256"
        }
      ],
      "stateMutability": "view",
      "type": "function"
    },
    {
      "inputs": [],
      "name": "getTotalSherX",
      "outputs": [
        {
          "internalType": "uint256",
          "name": "",
          "type": "uint256"
        }
      ],
      "stateMutability": "view",
      "type": "function"
    },
    {
      "inputs": [],
      "name": "getTotalSherXUnminted",
      "outputs": [
        {
          "internalType": "uint256",
          "name": "",
          "type": "uint256"
        }
      ],
      "stateMutability": "view",
      "type": "function"
    },
    {
      "inputs": [],
      "name": "getTotalUsdLastSettled",
      "outputs": [
        {
          "internalType": "uint256",
          "name": "",
          "type": "uint256"
        }
      ],
      "stateMutability": "view",
      "type": "function"
    },
    {
      "inputs": [],
      "name": "getTotalUsdPerBlock",
      "outputs": [
        {
          "internalType": "uint256",
          "name": "",
          "type": "uint256"
        }
      ],
      "stateMutability": "view",
      "type": "function"
    },
    {
      "inputs": [],
      "name": "getTotalUsdPool",
      "outputs": [
        {
          "internalType": "uint256",
          "name": "",
          "type": "uint256"
        }
      ],
      "stateMutability": "view",
      "type": "function"
    },
    {
      "inputs": [],
      "name": "getTotalUsdPoolStored",
      "outputs": [
        {
          "internalType": "uint256",
          "name": "",
          "type": "uint256"
        }
      ],
      "stateMutability": "view",
      "type": "function"
    },
    {
      "inputs": [
        {
          "internalType": "contract ILock",
          "name": "_token",
          "type": "address"
        }
      ],
      "name": "harvest",
      "outputs": [],
      "stateMutability": "nonpayable",
      "type": "function"
    },
    {
      "inputs": [],
      "name": "harvest",
      "outputs": [],
      "stateMutability": "nonpayable",
      "type": "function"
    },
    {
      "inputs": [
        {
          "internalType": "contract ILock[]",
          "name": "_tokens",
          "type": "address[]"
        }
      ],
      "name": "harvest",
      "outputs": [],
      "stateMutability": "nonpayable",
      "type": "function"
    },
    {
      "inputs": [
        {
          "internalType": "address",
          "name": "_user",
          "type": "address"
        },
        {
          "internalType": "contract ILock[]",
          "name": "_tokens",
          "type": "address[]"
        }
      ],
      "name": "harvestFor",
      "outputs": [],
      "stateMutability": "nonpayable",
      "type": "function"
    },
    {
      "inputs": [
        {
          "internalType": "address",
          "name": "_user",
          "type": "address"
        },
        {
          "internalType": "contract ILock",
          "name": "_token",
          "type": "address"
        }
      ],
      "name": "harvestFor",
      "outputs": [],
      "stateMutability": "nonpayable",
      "type": "function"
    },
    {
      "inputs": [
        {
          "internalType": "address",
          "name": "_user",
          "type": "address"
        }
      ],
      "name": "harvestFor",
      "outputs": [],
      "stateMutability": "nonpayable",
      "type": "function"
    },
    {
      "inputs": [
        {
          "internalType": "uint256",
          "name": "_amount",
          "type": "uint256"
        },
        {
          "internalType": "address",
          "name": "_receiver",
          "type": "address"
        }
      ],
      "name": "redeem",
      "outputs": [],
      "stateMutability": "nonpayable",
      "type": "function"
    },
    {
      "inputs": [],
      "name": "setInitialWeight",
      "outputs": [],
      "stateMutability": "nonpayable",
      "type": "function"
    },
    {
      "inputs": [
        {
          "internalType": "contract IERC20[]",
          "name": "_tokens",
          "type": "address[]"
        },
        {
          "internalType": "uint256[]",
          "name": "_weights",
          "type": "uint256[]"
        },
        {
          "internalType": "uint256",
          "name": "_watsons",
          "type": "uint256"
        }
      ],
      "name": "setWeights",
      "outputs": [],
      "stateMutability": "nonpayable",
      "type": "function"
    }
  ],
  "bytecode": "0x608060405234801561001057600080fd5b50612616806100206000396000f3fe608060405234801561001057600080fd5b50600436106101d95760003560e01c80637c4163ab11610104578063cb813b0a116100a2578063e6d736fc11610071578063e6d736fc1461068c578063f1bbd0da14610694578063fbe1ebec1461069c578063fd3e7072146106c2576101d9565b8063cb813b0a14610646578063d2c2b0f614610674578063e39bcae91461067c578063e570580214610684576101d9565b8063b5429392116100de578063b542939214610592578063c5cd39671461059a578063c89d3460146105a2578063cad3be8314610610576101d9565b80637c4163ab1461055c5780638180f62e14610564578063a3155cad1461058a576101d9565b806337a3bbaf1161017c57806373ca070b1161014b57806373ca070b146104fa5780637787c3af146105025780637954dc4f146105285780637bde82f214610530576101d9565b806337a3bbaf1461043a5780634641257d14610457578063524fd9db1461045f578063738bebc6146104dd576101d9565b806310c1f5fc116101b857806310c1f5fc146102345780631229187d1461024e57806313f854101461025657806317a982de1461037b576101d9565b8062b744cd146101de5780630c9bd076146102065780630e5c011e1461020e575b600080fd5b610204600480360360208110156101f457600080fd5b50356001600160a01b03166106ca565b005b61020461073d565b6102046004803603602081101561022457600080fd5b50356001600160a01b031661079b565b61023c6107a8565b60408051918252519081900360200190f35b6102046107bb565b6102046004803603606081101561026c57600080fd5b810190602081018135600160201b81111561028657600080fd5b82018360208201111561029857600080fd5b803590602001918460208302840111600160201b831117156102b957600080fd5b9190808060200260200160405190810160405280939291908181526020018383602002808284376000920191909152509295949360208101935035915050600160201b81111561030857600080fd5b82018360208201111561031a57600080fd5b803590602001918460208302840111600160201b8311171561033b57600080fd5b91908080602002602001604051908101604052809392919081815260200183836020028082843760009201919091525092955050913592506107ff915050565b6103a16004803603602081101561039157600080fd5b50356001600160a01b0316610a7c565b604051808060200180602001838103835285818151815260200191508051906020019060200280838360005b838110156103e55781810151838201526020016103cd565b50505050905001838103825284818151815260200191508051906020019060200280838360005b8381101561042457818101518382015260200161040c565b5050505090500194505050505060405180910390f35b61023c6004803603602081101561045057600080fd5b5035610c2c565b610204610e0e565b6102046004803603604081101561047557600080fd5b6001600160a01b038235169190810190604081016020820135600160201b81111561049f57600080fd5b8201836020820111156104b157600080fd5b803590602001918460208302840111600160201b831117156104d257600080fd5b509092509050610e19565b6103a1600480360360208110156104f357600080fd5b5035610e51565b61023c610ea3565b61023c6004803603602081101561051857600080fd5b50356001600160a01b0316610eb6565b61023c610fc2565b6102046004803603604081101561054657600080fd5b50803590602001356001600160a01b0316611039565b61023c61152b565b61023c6004803603602081101561057a57600080fd5b50356001600160a01b031661156b565b61023c611595565b6102046115a8565b61023c611754565b610204600480360360208110156105b857600080fd5b810190602081018135600160201b8111156105d257600080fd5b8201836020820111156105e457600080fd5b803590602001918460208302840111600160201b8311171561060557600080fd5b509092509050611805565b6102046004803603606081101561062657600080fd5b506001600160a01b0381358116916020810135909116906040013561182d565b6102046004803603604081101561065c57600080fd5b506001600160a01b0381358116916020013516611839565b61023c61190e565b61023c61191e565b61023c611931565b6103a161195a565b61023c61196e565b610204600480360360208110156106b257600080fd5b50356001600160a01b0316611981565b61023c6119d5565b73__$c67bac06d8ae77ccee809d21b761428721$__63076e04bf826040518263ffffffff1660e01b815260040180826001600160a01b0316815260200191505060006040518083038186803b15801561072257600080fd5b505af4158015610736573d6000803e3d6000fd5b5050505050565b73__$c67bac06d8ae77ccee809d21b761428721$__630c9bd0766040518163ffffffff1660e01b815260040160006040518083038186803b15801561078157600080fd5b505af4158015610795573d6000803e3d6000fd5b50505050565b6107a53382611839565b50565b60006107b26119e8565b60040154905090565b73__$c67bac06d8ae77ccee809d21b761428721$__631229187d6040518163ffffffff1660e01b815260040160006040518083038186803b15801561078157600080fd5b610807611a0c565b546001600160a01b03163314610853576040805162461bcd60e51b815260206004820152600c60248201526b2727aa2fa3a7ab2fa6a0a4a760a11b604482015290519081900360640190fd5b8151835114610892576040805162461bcd60e51b81526020600482015260066024820152650988a9c8ea8960d31b604482015290519081900360640190fd5b73__$c67bac06d8ae77ccee809d21b761428721$__631229187d6040518163ffffffff1660e01b815260040160006040518083038186803b1580156108d657600080fd5b505af41580156108ea573d6000803e3d6000fd5b5050505060006108f8611a0c565b905060008060005b86518110156109e957600061092788838151811061091a57fe5b6020026020010151611a30565b8054909150600160a01b900460ff16610972576040805162461bcd60e51b8152602060048201526008602482015267111254d05093115160c21b604482015290519081900360640190fd5b61099887838151811061098157fe5b602002602001015185611b0390919063ffffffff16565b60068201549094506109af90849061ffff16611b03565b92508682815181106109bd57fe5b6020908102919091010151600691909101805461ffff191661ffff909216919091179055600101610900565b506000198414610a3a576109fd8285611b03565b6007840154909250610a1b908290600160a01b900461ffff16611b03565b60078401805461ffff60a01b1916600160a01b61ffff88160217905590505b808214610a74576040805162461bcd60e51b815260206004820152600360248201526253554d60e81b604482015290519081900360640190fd5b505050505050565b60608073__$c67bac06d8ae77ccee809d21b761428721$__63738bebc6610aa285610eb6565b6040518263ffffffff1660e01b81526004018082815260200191505060006040518083038186803b158015610ad657600080fd5b505af4158015610aea573d6000803e3d6000fd5b505050506040513d6000823e601f3d908101601f191682016040908152811015610b1357600080fd5b8101908080516040519392919084600160201b821115610b3257600080fd5b908301906020820185811115610b4757600080fd5b82518660208202830111600160201b82111715610b6357600080fd5b82525081516020918201928201910280838360005b83811015610b90578181015183820152602001610b78565b5050505090500160405260200180516040519392919084600160201b821115610bb857600080fd5b908301906020820185811115610bcd57600080fd5b82518660208202830111600160201b82111715610be957600080fd5b82525081516020918201928201910280838360005b83811015610c16578181015183820152602001610bfe565b5050505090500160405250505091509150915091565b600080610c376119e8565b90506000610c43611a0c565b9050600073__$c67bac06d8ae77ccee809d21b761428721$__637954dc4f6040518163ffffffff1660e01b815260040160206040518083038186803b158015610c8b57600080fd5b505af4158015610c9f573d6000803e3d6000fd5b505050506040513d6020811015610cb557600080fd5b5051905080610cca5760009350505050610e09565b60005b6006830154811015610e04576000836006018281548110610cea57fe5b9060005260206000200160009054906101000a90046001600160a01b03169050610df9610df284610dec670de0b6b3a7640000610dec8a6000016000886001600160a01b03166001600160a01b0316815260200190815260200160002054610de68e610de673__$f06c55dfbaf779ce4e61bb81add28e8f1b$__638e3dd9508c6040518263ffffffff1660e01b815260040180826001600160a01b0316815260200191505060206040518083038186803b158015610da757600080fd5b505af4158015610dbb573d6000803e3d6000fd5b505050506040513d6020811015610dd157600080fd5b5051610ddc8c611a30565b600e015490611b03565b90611b66565b90611bbf565b8790611b03565b955050600101610ccd565b505050505b919050565b610e1733611981565b565b60005b8181101561079557610e4984848484818110610e3457fe5b905060200201356001600160a01b0316611839565b600101610e1c565b60608073__$c67bac06d8ae77ccee809d21b761428721$__63738bebc6846040518263ffffffff1660e01b81526004018082815260200191505060006040518083038186803b158015610ad657600080fd5b6000610ead6119e8565b60010154905090565b600080610ec1611c26565b6001600160a01b0384166000908152600382016020526040812054919250610ee7611a0c565b905060005b6005820154811015610fb857610fae73__$f06c55dfbaf779ce4e61bb81add28e8f1b$__634c7e6b1e88856005018581548110610f2557fe5b60009182526020918290200154604080516001600160e01b031960e087901b1681526001600160a01b03948516600482015293909116602484015251604480840193829003018186803b158015610f7b57600080fd5b505af4158015610f8f573d6000803e3d6000fd5b505050506040513d6020811015610fa557600080fd5b50518490611b03565b9250600101610eec565b5090949350505050565b600073__$c67bac06d8ae77ccee809d21b761428721$__637954dc4f6040518163ffffffff1660e01b815260040160206040518083038186803b15801561100857600080fd5b505af415801561101c573d6000803e3d6000fd5b505050506040513d602081101561103257600080fd5b5051905090565b60008211611077576040805162461bcd60e51b8152602060048201526006602482015265105353d5539560d21b604482015290519081900360640190fd5b6001600160a01b0381166110bd576040805162461bcd60e51b81526020600482015260086024820152672922a1a2a4ab22a960c11b604482015290519081900360640190fd5b60006110c76119e8565b905073__$c67bac06d8ae77ccee809d21b761428721$__634ea37fb16040518163ffffffff1660e01b815260040160206040518083038186803b15801561110d57600080fd5b505af4158015611121573d6000803e3d6000fd5b505050506040513d602081101561113757600080fd5b5050604080516339c5f5e360e11b8152600481018590529051600091829173__$c67bac06d8ae77ccee809d21b761428721$__9163738bebc69160248083019286929190829003018186803b15801561118f57600080fd5b505af41580156111a3573d6000803e3d6000fd5b505050506040513d6000823e601f3d908101601f1916820160409081528110156111cc57600080fd5b8101908080516040519392919084600160201b8211156111eb57600080fd5b90830190602082018581111561120057600080fd5b82518660208202830111600160201b8211171561121c57600080fd5b82525081516020918201928201910280838360005b83811015611249578181015183820152602001611231565b5050505090500160405260200180516040519392919084600160201b82111561127157600080fd5b90830190602082018581111561128657600080fd5b82518660208202830111600160201b821117156112a257600080fd5b82525081516020918201928201910280838360005b838110156112cf5781810151838201526020016112b7565b50505050905001604052505050915091506112ea3386611c4a565b6000805b83518110156114a457600061130885838151811061091a57fe5b905080600e015484838151811061131b57fe5b602002602001015111156113ad5773__$f06c55dfbaf779ce4e61bb81add28e8f1b$__6305a4cea286848151811061134f57fe5b60200260200101516040518263ffffffff1660e01b815260040180826001600160a01b0316815260200191505060006040518083038186803b15801561139457600080fd5b505af41580156113a8573d6000803e3d6000fd5b505050505b6113d78483815181106113bc57fe5b602002602001015182600e0154611cf190919063ffffffff16565b81600e018190555061145561144e670de0b6b3a7640000610dec8960000160008a888151811061140357fe5b60200260200101516001600160a01b03166001600160a01b031681526020019081526020016000205488878151811061143857fe5b6020026020010151611b6690919063ffffffff16565b8490611b03565b925061149b8785848151811061146757fe5b602002602001015187858151811061147b57fe5b60200260200101516001600160a01b0316611d4e9092919063ffffffff16565b506001016112ee565b5060028401546114b49082611cf1565b60028501556040805163f42c743d60e01b815260048101889052905173__$c67bac06d8ae77ccee809d21b761428721$__9163f42c743d916024808301926000929190829003018186803b15801561150b57600080fd5b505af415801561151f573d6000803e3d6000fd5b50505050505050505050565b6000806115366119e8565b905061156561155a8260010154610de6846003015443611cf190919063ffffffff16565b600283015490611b03565b91505090565b60006115756119e8565b6001600160a01b0392909216600090815260209290925250604090205490565b600061159f6119e8565b60020154905090565b6115b0611a0c565b546001600160a01b031633146115fc576040805162461bcd60e51b815260206004820152600c60248201526b2727aa2fa3a7ab2fa6a0a4a760a11b604482015290519081900360640190fd5b6000611606611a0c565b60078101549091506001600160a01b0316611655576040805162461bcd60e51b815260206004820152600a60248201526915d05514d7d55394d15560b21b604482015290519081900360640190fd5b6007810154600160a01b900461ffff16156116a6576040805162461bcd60e51b815260206004820152600c60248201526b1053149150511657d253925560a21b604482015290519081900360640190fd5b60005b600582015481101561173b5760006116e38360050183815481106116c957fe5b6000918252602090912001546001600160a01b0316611a30565b600681015490915061ffff1615611732576040805162461bcd60e51b815260206004820152600e60248201526d20a62922a0a22cafa4a724aa2f9960911b604482015290519081900360640190fd5b506001016116a9565b50600701805461ffff60a01b191661ffff60a01b179055565b60008061175f6119e8565b9050600061176b611a0c565b600781015460048401549192506000916117ac9161ffff91610dec91600160a01b8104841691610de69182904390600160b01b900464ffffffffff16611cf1565b905060005b60058301548110156117fd576117f36117ec8460050183815481106117d257fe5b6000918252602090912001546001600160a01b0316611da0565b8390611b03565b91506001016117b1565b509250505090565b60005b818110156118285761182033848484818110610e3457fe5b600101611808565b505050565b61182833848484611df8565b6000816001600160a01b03166370a08231846040518263ffffffff1660e01b815260040180826001600160a01b0316815260200191505060206040518083038186803b15801561188857600080fd5b505afa15801561189c573d6000803e3d6000fd5b505050506040513d60208110156118b257600080fd5b5051905080156118c9576118c98284856000611df8565b816001600160a01b0316836001600160a01b03167ffdfdf879d9abdea70f1d228c39cf14f5e7179a54f36b378f29bccfe7648f333e60405160405180910390a3505050565b600061191933610eb6565b905090565b60006119286119e8565b60060154905090565b60008061193c611c26565b33600090815260038201602052604090205490915061156590610c2c565b60608061196633610a7c565b915091509091565b60006119786119e8565b60030154905090565b600061198b611a0c565b905060005b60058201548110156118285760006119b08360050183815481106116c957fe5b60018101549091506119cc9085906001600160a01b0316611839565b50600101611990565b60006119df6119e8565b60050154905090565b7fcdaab98845a65ea47b0852a56cf7039170a5285c240d3bfde826581682c8fcd590565b7f190488561d88e36f1e28cbe7392dc28aedf700281c58bde4049b57fb87e2944c90565b600080604051806040016040528060168152602001753234b0b6b7b7321739b432b93637b1b5973837b7b61760511b815250836040516020018080602001836001600160a01b03168152602001828103825284818151815260200191508051906020019080838360005b83811015611ab2578181015183820152602001611a9a565b50505050905090810190601f168015611adf5780820380516001836020036101000a031916815260200191505b5060408051601f198184030181529190528051602090910120979650505050505050565b600082820183811015611b5d576040805162461bcd60e51b815260206004820152601b60248201527f536166654d6174683a206164646974696f6e206f766572666c6f770000000000604482015290519081900360640190fd5b90505b92915050565b600082611b7557506000611b60565b82820282848281611b8257fe5b0414611b5d5760405162461bcd60e51b81526004018080602001828103825260218152602001806125966021913960400191505060405180910390fd5b6000808211611c15576040805162461bcd60e51b815260206004820152601a60248201527f536166654d6174683a206469766973696f6e206279207a65726f000000000000604482015290519081900360640190fd5b818381611c1e57fe5b049392505050565b7fc0ca2b8775046ee5e33165d3145277182912c7895a3747ac51a97d562a7ce5d090565b6000611c54611c26565b6001600160a01b0384166000908152600382016020526040902054909150611c7c9083611cf1565b6001600160a01b03841660009081526003830160205260409020556002810154611ca69083611cf1565b60028201556040805183815290516000916001600160a01b038616917fddf252ad1be2c89b69c2b068fc378daa952ba7f163c4a11628f55a4df523b3ef9181900360200190a3505050565b600082821115611d48576040805162461bcd60e51b815260206004820152601e60248201527f536166654d6174683a207375627472616374696f6e206f766572666c6f770000604482015290519081900360640190fd5b50900390565b604080516001600160a01b038416602482015260448082018490528251808303909101815260649091019091526020810180516001600160e01b031663a9059cbb60e01b1790526118289084906122a0565b600080611dac83611a30565b90506000611db86119e8565b60068301546004820154919250611df09161ffff91610dec9183821691610de691908290439062010000900464ffffffffff16611cf1565b949350505050565b6000846001600160a01b0316636f307dc36040518163ffffffff1660e01b815260040160206040518083038186803b158015611e3357600080fd5b505afa158015611e47573d6000803e3d6000fd5b505050506040513d6020811015611e5d57600080fd5b505190506000611e6c82611a30565b60018101549091506001600160a01b03878116911614611ebc576040805162461bcd60e51b815260206004820152600660248201526529a2a72222a960d11b604482015290519081900360640190fd5b73__$c67bac06d8ae77ccee809d21b761428721$__63076e04bf836040518263ffffffff1660e01b815260040180826001600160a01b0316815260200191505060006040518083038186803b158015611f1457600080fd5b505af4158015611f28573d6000803e3d6000fd5b5050506001820154604080516370a0823160e01b81526001600160a01b03898116600483015291516000945091909216916370a08231916024808301926020929190829003018186803b158015611f7e57600080fd5b505afa158015611f92573d6000803e3d6000fd5b505050506040513d6020811015611fa857600080fd5b50516001830154604080516318160ddd60e01b815290519293506000926001600160a01b03909216916318160ddd91600480820192602092909190829003018186803b158015611ff757600080fd5b505afa15801561200b573d6000803e3d6000fd5b505050506040513d602081101561202157600080fd5b505190506000811561204f5761204882610dec888760080154611b6690919063ffffffff16565b9050612052565b50845b6001600160a01b0388161561221757600061207e83610dec868860080154611b6690919063ffffffff16565b6001600160a01b038a166000908152600787016020526040812054919250906120a8908390611cf1565b905080156121cf576120ba8284611cf1565b6001600160a01b038b16600090815260078801602052604090205560058601546120e49082611cf1565b600587015560006120f430611a30565b90506001600160a01b038b163014156121345760028101546121169083611b03565b6002820155600481015461212a9083611b03565b60048201556121c9565b60408051631e4aa95160e11b815260048101839052602481018490526001600160a01b038d166044820152905173__$f06c55dfbaf779ce4e61bb81add28e8f1b$__91633c9552a2916064808301926020929190829003018186803b15801561219c57600080fd5b505af41580156121b0573d6000803e3d6000fd5b505050506040513d60208110156121c657600080fd5b50505b50612210565b6001600160a01b038a1660009081526007870160205260409020546121f49084611cf1565b6001600160a01b038b1660009081526007880160205260409020555b505061222c565b60088401546122269082611b03565b60088501555b6001600160a01b03871615612280576001600160a01b03871660009081526007850160205260409020546122609082611b03565b6001600160a01b0388166000908152600786016020526040902055612295565b600884015461228f9082611cf1565b60088501555b505050505050505050565b60006122f5826040518060400160405280602081526020017f5361666545524332303a206c6f772d6c6576656c2063616c6c206661696c6564815250856001600160a01b03166123519092919063ffffffff16565b8051909150156118285780806020019051602081101561231457600080fd5b50516118285760405162461bcd60e51b815260040180806020018281038252602a8152602001806125b7602a913960400191505060405180910390fd5b6060612360848460008561236a565b90505b9392505050565b6060824710156123ab5760405162461bcd60e51b81526004018080602001828103825260268152602001806125706026913960400191505060405180910390fd5b6123b4856124c5565b612405576040805162461bcd60e51b815260206004820152601d60248201527f416464726573733a2063616c6c20746f206e6f6e2d636f6e7472616374000000604482015290519081900360640190fd5b600080866001600160a01b031685876040518082805190602001908083835b602083106124435780518252601f199092019160209182019101612424565b6001836020036101000a03801982511681845116808217855250505050505090500191505060006040518083038185875af1925050503d80600081146124a5576040519150601f19603f3d011682016040523d82523d6000602084013e6124aa565b606091505b50915091506124ba8282866124cb565b979650505050505050565b3b151590565b606083156124da575081612363565b8251156124ea5782518084602001fd5b8160405162461bcd60e51b81526004018080602001828103825283818151815260200191508051906020019080838360005b8381101561253457818101518382015260200161251c565b50505050905090810190601f1680156125615780820380516001836020036101000a031916815260200191505b509250505060405180910390fdfe416464726573733a20696e73756666696369656e742062616c616e636520666f722063616c6c536166654d6174683a206d756c7469706c69636174696f6e206f766572666c6f775361666545524332303a204552433230206f7065726174696f6e20646964206e6f742073756363656564a264697066735822122076300f8363cf9dea82aa79793fddf98630af14490ec72dfbc8b7d62ebe53bd9d64736f6c63430007060033",
  "linkReferences": {
    "contracts/libraries/LibPool.sol": {
      "LibPool": [
        {
          "length": 20,
          "start": 3441
        },
        {
          "length": 20,
          "start": 3869
        },
        {
          "length": 20,
          "start": 4939
        },
        {
          "length": 20,
          "start": 8579
        }
      ]
    },
    "contracts/libraries/LibSherX.sol": {
      "LibSherX": [
        {
          "length": 20,
          "start": 1772
        },
        {
          "length": 20,
          "start": 1887
        },
        {
          "length": 20,
          "start": 2013
        },
        {
          "length": 20,
          "start": 2228
        },
        {
          "length": 20,
          "start": 2721
        },
        {
          "length": 20,
          "start": 3177
        },
        {
          "length": 20,
          "start": 3702
        },
        {
          "length": 20,
          "start": 4070
        },
        {
          "length": 20,
          "start": 4331
        },
        {
          "length": 20,
          "start": 4471
        },
        {
          "length": 20,
          "start": 5362
        },
        {
          "length": 20,
          "start": 7902
        }
      ]
    }
  },
  "deployedLinkReferences": {
    "contracts/libraries/LibPool.sol": {
      "LibPool": [
        {
          "length": 20,
          "start": 3409
        },
        {
          "length": 20,
          "start": 3837
        },
        {
          "length": 20,
          "start": 4907
        },
        {
          "length": 20,
          "start": 8547
        }
      ]
    },
    "contracts/libraries/LibSherX.sol": {
      "LibSherX": [
        {
          "length": 20,
          "start": 1740
        },
        {
          "length": 20,
          "start": 1855
        },
        {
          "length": 20,
          "start": 1981
        },
        {
          "length": 20,
          "start": 2196
        },
        {
          "length": 20,
          "start": 2689
        },
        {
          "length": 20,
          "start": 3145
        },
        {
          "length": 20,
          "start": 3670
        },
        {
          "length": 20,
          "start": 4038
        },
        {
          "length": 20,
          "start": 4299
        },
        {
          "length": 20,
          "start": 4439
        },
        {
          "length": 20,
          "start": 5330
        },
        {
          "length": 20,
          "start": 7870
        }
      ]
    }
  }
}