{
  "_format": "hh-sol-artifact-1",
  "contractName": "SwapperRegistry",
  "sourceName": "contracts/SwapperRegistry.sol",
  "abi": [
    {
      "inputs": [
        {
          "internalType": "contract IRoleManager",
          "name": "roleManager",
          "type": "address"
        }
      ],
      "stateMutability": "nonpayable",
      "type": "constructor"
    },
    {
      "anonymous": false,
      "inputs": [
        {
          "indexed": false,
          "internalType": "address",
          "name": "fromToken",
          "type": "address"
        },
        {
          "indexed": false,
          "internalType": "address",
          "name": "toToken",
          "type": "address"
        }
      ],
      "name": "NewSwappablePair",
      "type": "event"
    },
    {
      "anonymous": false,
      "inputs": [
        {
          "indexed": false,
          "internalType": "address",
          "name": "fromToken",
          "type": "address"
        },
        {
          "indexed": false,
          "internalType": "address",
          "name": "toToken",
          "type": "address"
        },
        {
          "indexed": false,
          "internalType": "address",
          "name": "newSwapper",
          "type": "address"
        }
      ],
      "name": "NewSwapper",
      "type": "event"
    },
    {
      "anonymous": false,
      "inputs": [
        {
          "indexed": false,
          "internalType": "address",
          "name": "fromToken",
          "type": "address"
        },
        {
          "indexed": false,
          "internalType": "address",
          "name": "toToken",
          "type": "address"
        },
        {
          "indexed": false,
          "internalType": "address",
          "name": "oldSwapper",
          "type": "address"
        }
      ],
      "name": "SwapperRemoved",
      "type": "event"
    },
    {
      "inputs": [
        {
          "internalType": "address",
          "name": "token",
          "type": "address"
        }
      ],
      "name": "getAllSwappableTokens",
      "outputs": [
        {
          "internalType": "address[]",
          "name": "",
          "type": "address[]"
        }
      ],
      "stateMutability": "view",
      "type": "function"
    },
    {
      "inputs": [
        {
          "internalType": "address",
          "name": "fromToken",
          "type": "address"
        },
        {
          "internalType": "address",
          "name": "toToken",
          "type": "address"
        }
      ],
      "name": "getSwapper",
      "outputs": [
        {
          "internalType": "address",
          "name": "",
          "type": "address"
        }
      ],
      "stateMutability": "view",
      "type": "function"
    },
    {
      "inputs": [
        {
          "internalType": "address",
          "name": "fromToken",
          "type": "address"
        },
        {
          "internalType": "address",
          "name": "toToken",
          "type": "address"
        },
        {
          "internalType": "address",
          "name": "newSwapper",
          "type": "address"
        }
      ],
      "name": "registerSwapper",
      "outputs": [
        {
          "internalType": "bool",
          "name": "",
          "type": "bool"
        }
      ],
      "stateMutability": "nonpayable",
      "type": "function"
    },
    {
      "inputs": [],
      "name": "roleManager",
      "outputs": [
        {
          "internalType": "contract IRoleManager",
          "name": "",
          "type": "address"
        }
      ],
      "stateMutability": "view",
      "type": "function"
    },
    {
      "inputs": [
        {
          "internalType": "address",
          "name": "fromToken",
          "type": "address"
        },
        {
          "internalType": "address",
          "name": "toToken",
          "type": "address"
        }
      ],
      "name": "swapperExists",
      "outputs": [
        {
          "internalType": "bool",
          "name": "",
          "type": "bool"
        }
      ],
      "stateMutability": "view",
      "type": "function"
    }
  ],
  "bytecode": "0x60a060405234801561001057600080fd5b5060405161075238038061075283398101604081905261002f91610040565b6001600160a01b0316608052610070565b60006020828403121561005257600080fd5b81516001600160a01b038116811461006957600080fd5b9392505050565b6080516106c161009160003960008181605d015261016b01526106c16000f3fe608060405234801561001057600080fd5b50600436106100565760003560e01c8062435da51461005b57806307cd53541461009a5780632b778107146100bd57806336e6ef11146100d057806390fbef7e14610108575b600080fd5b7f00000000000000000000000000000000000000000000000000000000000000005b6040516001600160a01b0390911681526020015b60405180910390f35b6100ad6100a8366004610536565b610128565b6040519015158152602001610091565b6100ad6100cb366004610569565b610167565b61007d6100de366004610536565b6001600160a01b039182166000908152600160209081526040808320938516835292905220541690565b61011b6101163660046105ac565b6104a6565b60405161009191906105c7565b6001600160a01b038281166000908152600160209081526040808320858516845290915281205490911661015d576000610160565b60015b9392505050565b60007f0000000000000000000000000000000000000000000000000000000000000000604051632474521560e21b815269676f7665726e616e636560b01b60048201523360248201526001600160a01b0391909116906391d148549060440160206040518083038186803b1580156101de57600080fd5b505afa1580156101f2573d6000803e3d6000fd5b505050506040513d601f19601f820116820180604052508101906102169190610614565b60405180604001604052806013815260200172756e617574686f72697a65642061636365737360681b815250906102695760405162461bcd60e51b81526004016102609190610636565b60405180910390fd5b50826001600160a01b0316846001600160a01b03161415801561029457506001600160a01b03841615155b80156102a857506001600160a01b03831615155b80156102bc57506001600160a01b03821615155b6040518060400160405280601281526020017134b73b30b634b2103a37b5b2b7103830b4b960711b815250906103055760405162461bcd60e51b81526004016102609190610636565b506001600160a01b03808516600090815260016020908152604080832087851684529091529020541680156103a857826001600160a01b0316816001600160a01b03161415610358576000915050610160565b604080516001600160a01b038781168252868116602083015283168183015290517f51e045801e510fed7e8874acd444b6621949f607f2638b002d53ead73c3c0b319181900360600190a161041f565b6001600160a01b0385811660008181526020818152604080832080546001810182559084529282902090920180546001600160a01b031916948916948517905581519283528201929092527f3af2bd37a0c004916b7991bfe11ba4756cad07caaccc245cc1958b61230bfeee910160405180910390a15b6001600160a01b0385811660008181526001602090815260408083208986168085529083529281902080546001600160a01b03191695891695861790558051938452908301919091528101919091527f1271f97cc7dc6f0a0ade4e59a2b77d710448886d76e333429b151f1e5e4889c29060600160405180910390a1506001949350505050565b6001600160a01b0381166000908152602081815260409182902080548351818402810184019094528084526060939283018282801561050e57602002820191906000526020600020905b81546001600160a01b031681526001909101906020018083116104f0575b50505050509050919050565b80356001600160a01b038116811461053157600080fd5b919050565b6000806040838503121561054957600080fd5b6105528361051a565b91506105606020840161051a565b90509250929050565b60008060006060848603121561057e57600080fd5b6105878461051a565b92506105956020850161051a565b91506105a36040850161051a565b90509250925092565b6000602082840312156105be57600080fd5b6101608261051a565b6020808252825182820181905260009190848201906040850190845b818110156106085783516001600160a01b0316835292840192918401916001016105e3565b50909695505050505050565b60006020828403121561062657600080fd5b8151801515811461016057600080fd5b600060208083528351808285015260005b8181101561066357858101830151858201604001528201610647565b81811115610675576000604083870101525b50601f01601f191692909201604001939250505056fea26469706673582212207b8f6f209139ccbeefde83ac03a3315ea0451c3798080ab41a329a83b916f10864736f6c63430008090033",
  "linkReferences": {},
  "deployedLinkReferences": {}
}