{
  "_format": "hh-sol-artifact-1",
  "contractName": "MIMConvexStrategy",
  "sourceName": "contracts/v3/strategies/MIMConvexStrategy.sol",
  "abi": [
    {
      "inputs": [
        {
          "internalType": "string",
          "name": "_name",
          "type": "string"
        },
        {
          "internalType": "address",
          "name": "_want",
          "type": "address"
        },
        {
          "internalType": "address",
          "name": "_crv",
          "type": "address"
        },
        {
          "internalType": "address",
          "name": "_cvx",
          "type": "address"
        },
        {
          "internalType": "address",
          "name": "_weth",
          "type": "address"
        },
        {
          "internalType": "address",
          "name": "_mim",
          "type": "address"
        },
        {
          "internalType": "address",
          "name": "_crv3",
          "type": "address"
        },
        {
          "internalType": "uint256",
          "name": "_pid",
          "type": "uint256"
        },
        {
          "internalType": "contract IConvexVault",
          "name": "_convexVault",
          "type": "address"
        },
        {
          "internalType": "contract IStableSwap2Pool",
          "name": "_stableSwap2Pool",
          "type": "address"
        },
        {
          "internalType": "address",
          "name": "_controller",
          "type": "address"
        },
        {
          "internalType": "address",
          "name": "_manager",
          "type": "address"
        },
        {
          "internalType": "address",
          "name": "_router",
          "type": "address"
        }
      ],
      "stateMutability": "nonpayable",
      "type": "constructor"
    },
    {
      "inputs": [],
      "name": "ONE_HUNDRED_PERCENT",
      "outputs": [
        {
          "internalType": "uint256",
          "name": "",
          "type": "uint256"
        }
      ],
      "stateMutability": "view",
      "type": "function"
    },
    {
      "inputs": [
        {
          "internalType": "contract IERC20",
          "name": "_token",
          "type": "address"
        },
        {
          "internalType": "address",
          "name": "_spender",
          "type": "address"
        },
        {
          "internalType": "uint256",
          "name": "_amount",
          "type": "uint256"
        }
      ],
      "name": "approveForSpender",
      "outputs": [],
      "stateMutability": "nonpayable",
      "type": "function"
    },
    {
      "inputs": [],
      "name": "balanceOf",
      "outputs": [
        {
          "internalType": "uint256",
          "name": "",
          "type": "uint256"
        }
      ],
      "stateMutability": "view",
      "type": "function"
    },
    {
      "inputs": [],
      "name": "balanceOfPool",
      "outputs": [
        {
          "internalType": "uint256",
          "name": "",
          "type": "uint256"
        }
      ],
      "stateMutability": "view",
      "type": "function"
    },
    {
      "inputs": [],
      "name": "balanceOfWant",
      "outputs": [
        {
          "internalType": "uint256",
          "name": "",
          "type": "uint256"
        }
      ],
      "stateMutability": "view",
      "type": "function"
    },
    {
      "inputs": [],
      "name": "controller",
      "outputs": [
        {
          "internalType": "address",
          "name": "",
          "type": "address"
        }
      ],
      "stateMutability": "view",
      "type": "function"
    },
    {
      "inputs": [],
      "name": "convexVault",
      "outputs": [
        {
          "internalType": "contract IConvexVault",
          "name": "",
          "type": "address"
        }
      ],
      "stateMutability": "view",
      "type": "function"
    },
    {
      "inputs": [],
      "name": "crv",
      "outputs": [
        {
          "internalType": "address",
          "name": "",
          "type": "address"
        }
      ],
      "stateMutability": "view",
      "type": "function"
    },
    {
      "inputs": [],
      "name": "crv3",
      "outputs": [
        {
          "internalType": "address",
          "name": "",
          "type": "address"
        }
      ],
      "stateMutability": "view",
      "type": "function"
    },
    {
      "inputs": [],
      "name": "crvRewards",
      "outputs": [
        {
          "internalType": "contract IConvexRewards",
          "name": "",
          "type": "address"
        }
      ],
      "stateMutability": "view",
      "type": "function"
    },
    {
      "inputs": [],
      "name": "cvx",
      "outputs": [
        {
          "internalType": "address",
          "name": "",
          "type": "address"
        }
      ],
      "stateMutability": "view",
      "type": "function"
    },
    {
      "inputs": [],
      "name": "deposit",
      "outputs": [],
      "stateMutability": "nonpayable",
      "type": "function"
    },
    {
      "inputs": [],
      "name": "getMostPremium",
      "outputs": [
        {
          "internalType": "address",
          "name": "",
          "type": "address"
        },
        {
          "internalType": "uint256",
          "name": "",
          "type": "uint256"
        }
      ],
      "stateMutability": "view",
      "type": "function"
    },
    {
      "inputs": [
        {
          "internalType": "uint256",
          "name": "_estimatedWETH",
          "type": "uint256"
        },
        {
          "internalType": "uint256",
          "name": "_estimatedYAXIS",
          "type": "uint256"
        }
      ],
      "name": "harvest",
      "outputs": [],
      "stateMutability": "nonpayable",
      "type": "function"
    },
    {
      "inputs": [],
      "name": "manager",
      "outputs": [
        {
          "internalType": "contract IManager",
          "name": "",
          "type": "address"
        }
      ],
      "stateMutability": "view",
      "type": "function"
    },
    {
      "inputs": [],
      "name": "mim",
      "outputs": [
        {
          "internalType": "address",
          "name": "",
          "type": "address"
        }
      ],
      "stateMutability": "view",
      "type": "function"
    },
    {
      "inputs": [],
      "name": "mimCvxDepositLP",
      "outputs": [
        {
          "internalType": "address",
          "name": "",
          "type": "address"
        }
      ],
      "stateMutability": "view",
      "type": "function"
    },
    {
      "inputs": [],
      "name": "name",
      "outputs": [
        {
          "internalType": "string",
          "name": "",
          "type": "string"
        }
      ],
      "stateMutability": "view",
      "type": "function"
    },
    {
      "inputs": [],
      "name": "pid",
      "outputs": [
        {
          "internalType": "uint256",
          "name": "",
          "type": "uint256"
        }
      ],
      "stateMutability": "view",
      "type": "function"
    },
    {
      "inputs": [],
      "name": "router",
      "outputs": [
        {
          "internalType": "contract ISwap",
          "name": "",
          "type": "address"
        }
      ],
      "stateMutability": "view",
      "type": "function"
    },
    {
      "inputs": [
        {
          "internalType": "address",
          "name": "_router",
          "type": "address"
        }
      ],
      "name": "setRouter",
      "outputs": [],
      "stateMutability": "nonpayable",
      "type": "function"
    },
    {
      "inputs": [],
      "name": "skim",
      "outputs": [],
      "stateMutability": "nonpayable",
      "type": "function"
    },
    {
      "inputs": [],
      "name": "stableSwap2Pool",
      "outputs": [
        {
          "internalType": "contract IStableSwap2Pool",
          "name": "",
          "type": "address"
        }
      ],
      "stateMutability": "view",
      "type": "function"
    },
    {
      "inputs": [],
      "name": "want",
      "outputs": [
        {
          "internalType": "address",
          "name": "",
          "type": "address"
        }
      ],
      "stateMutability": "view",
      "type": "function"
    },
    {
      "inputs": [],
      "name": "weth",
      "outputs": [
        {
          "internalType": "address",
          "name": "",
          "type": "address"
        }
      ],
      "stateMutability": "view",
      "type": "function"
    },
    {
      "inputs": [
        {
          "internalType": "uint256",
          "name": "_amount",
          "type": "uint256"
        }
      ],
      "name": "withdraw",
      "outputs": [],
      "stateMutability": "nonpayable",
      "type": "function"
    },
    {
      "inputs": [
        {
          "internalType": "address",
          "name": "_asset",
          "type": "address"
        }
      ],
      "name": "withdraw",
      "outputs": [],
      "stateMutability": "nonpayable",
      "type": "function"
    },
    {
      "inputs": [],
      "name": "withdrawAll",
      "outputs": [],
      "stateMutability": "nonpayable",
      "type": "function"
    }
  ],
  "bytecode": "0x6102206040523480156200001257600080fd5b50604051620033d4380380620033d483398181016040526101a08110156200003957600080fd5b81019080805160405193929190846401000000008211156200005a57600080fd5b9083019060208201858111156200007057600080fd5b82516401000000008111828201881017156200008b57600080fd5b82525081516020918201929091019080838360005b83811015620000ba578181015183820152602001620000a0565b50505050905090810190601f168015620000e85780820380516001836020036101000a031916815260200191505b506040526020018051906020019092919080519060200190929190805190602001909291908051906020019092919080519060200190929190805190602001909291908051906020019092919080519060200190929190805190602001909291908051906020019092919080519060200190929190805190602001909291905050508c83838e8c8585600090805190602001906200018892919062000a98565b50606083811b6001600160601b031990811660805286821b811660c05285821b811660e0529083901b1660a052600180546001600160a01b0319166001600160a01b0383811691909117909155620001f2908316826000196200058c602090811b6200111d17901c565b50505050506001600160a01b038c16151590506200023f576040805162461bcd60e51b815260206004820152600560248201526410afb1b93b60d91b604482015290519081900360640190fd5b6001600160a01b038a1662000283576040805162461bcd60e51b8152602060048201526005602482015264042bec6ecf60db1b604482015290519081900360640190fd5b6001600160a01b038816620002c7576040805162461bcd60e51b8152602060048201526005602482015264215f6d696d60d81b604482015290519081900360640190fd5b6001600160a01b0387166200030c576040805162461bcd60e51b8152602060048201526006602482015265215f6372763360d01b604482015290519081900360640190fd5b6001600160a01b03851662000358576040805162461bcd60e51b815260206004820152600d60248201526c0857d8dbdb9d995e15985d5b1d609a1b604482015290519081900360640190fd5b6001600160a01b038416620003a8576040805162461bcd60e51b81526020600482015260116024820152700857dcdd18589b1954ddd85c0c941bdbdb607a1b604482015290519081900360640190fd5b600080866001600160a01b0316631526fe27896040518263ffffffff1660e01b81526004018082815260200191505060c06040518083038186803b158015620003f057600080fd5b505afa15801562000405573d6000803e3d6000fd5b505050506040513d60c08110156200041c57600080fd5b8101908080519060200190929190805190602001909291908051906020019092919080519060200190929190805190602001909291908051906020019092919050505050509350509250508c6001600160a01b0316610100816001600160a01b031660601b815250508b6001600160a01b0316610120816001600160a01b031660601b81525050896001600160a01b0316610140816001600160a01b031660601b81525050886001600160a01b0316610160816001600160a01b031660601b81525050876101808181525050866001600160a01b03166101a0816001600160a01b031660601b81525050816001600160a01b03166101c0816001600160a01b031660601b81525050806001600160a01b03166101e0816001600160a01b031660601b81525050856001600160a01b0316610200816001600160a01b031660601b81525050620005778e8e8e8d8d8c8c620006b060201b60201c565b50505050505050505050505050505062000b34565b80158062000616575060408051636eb1769f60e11b81523060048201526001600160a01b03848116602483015291519185169163dd62ed3e91604480820192602092909190829003018186803b158015620005e657600080fd5b505afa158015620005fb573d6000803e3d6000fd5b505050506040513d60208110156200061257600080fd5b5051155b620006535760405162461bcd60e51b81526004018080602001828103825260368152602001806200339e6036913960400191505060405180910390fd5b604080516001600160a01b038416602482015260448082018490528251808303909101815260649091019091526020810180516001600160e01b0390811663095ea7b360e01b17909152620006ab918591620007a916565b505050565b620006d782600019896001600160a01b03166200058c60201b6200111d179092919060201c565b60015462000701906001600160a01b0388811691166000196200058c602090811b6200111d17901c565b6001546200072b906001600160a01b0387811691166000196200058c602090811b6200111d17901c565b6200075281600019866001600160a01b03166200058c60201b6200111d179092919060201c565b6200077981600019856001600160a01b03166200058c60201b6200111d179092919060201c565b620007a081600019896001600160a01b03166200058c60201b6200111d179092919060201c565b50505050505050565b606062000805826040518060400160405280602081526020017f5361666545524332303a206c6f772d6c6576656c2063616c6c206661696c6564815250856001600160a01b03166200086560201b62001230179092919060201c565b805190915015620006ab578080602001905160208110156200082657600080fd5b5051620006ab5760405162461bcd60e51b815260040180806020018281038252602a81526020018062003374602a913960400191505060405180910390fd5b606062000876848460008562000880565b90505b9392505050565b606082471015620008c35760405162461bcd60e51b81526004018080602001828103825260268152602001806200334e6026913960400191505060405180910390fd5b620008ce85620009e8565b62000920576040805162461bcd60e51b815260206004820152601d60248201527f416464726573733a2063616c6c20746f206e6f6e2d636f6e7472616374000000604482015290519081900360640190fd5b60006060866001600160a01b031685876040518082805190602001908083835b60208310620009615780518252601f19909201916020918201910162000940565b6001836020036101000a03801982511681845116808217855250505050505090500191505060006040518083038185875af1925050503d8060008114620009c5576040519150601f19603f3d011682016040523d82523d6000602084013e620009ca565b606091505b509092509050620009dd828286620009ee565b979650505050505050565b3b151590565b60608315620009ff57508162000879565b82511562000a105782518084602001fd5b8160405162461bcd60e51b81526004018080602001828103825283818151815260200191508051906020019080838360005b8381101562000a5c57818101518382015260200162000a42565b50505050905090810190601f16801562000a8a5780820380516001836020036101000a031916815260200191505b509250505060405180910390fd5b828054600181600116156101000203166002900490600052602060002090601f016020900481019282601f1062000adb57805160ff191683800117855562000b0b565b8280016001018555821562000b0b579182015b8281111562000b0b57825182559160200191906001019062000aee565b5062000b1992915062000b1d565b5090565b5b8082111562000b19576000815560010162000b1e565b60805160601c60a05160601c60c05160601c60e05160601c6101005160601c6101205160601c6101405160601c6101605160601c610180516101a05160601c6101c05160601c6101e05160601c6102005160601c61266c62000ce260003980610790528061084052806110fb5280612371525080610cd852806116e152806117755280611d3452508061049d5280610629525080610a9d5280611498528061159d5280611c575250806110a452806114c752806115665280611c865250806108bb5280610ae552806122ea5250806108e65280610cb45280612256525080610c9052806115f15280611695525080610ac152806116b652806119305250806107695280610cfc5280610fac528061200652508061054452806105a95280610656528061071a52806109195280610a715280610b325280610c665280610ec75280610f4052806110c85250806107455280610def5280610e2452806118f752806119705280611f3f5280611f8552806120d852806121ad5250806105da528061060552806106f852806109855280610b9e5280610c445280610e5152806112eb5280611391525061266c6000f3fe608060405234801561001057600080fd5b50600436106101c45760003560e01c8063853828b6116100f9578063dd0081c711610097578063f106845411610071578063f1068454146103eb578063f77c4791146103f3578063f887ea40146103fb578063f975bcce14610403576101c4565b8063dd0081c71461038a578063e4a4b7b114610392578063ef9e2379146103b5576101c4565b8063b6bff295116100d3578063b6bff2951461034c578063c0d7865514610354578063c1a3d44c1461037a578063d0e30db014610382576101c4565b8063853828b614610334578063923c1d611461033c5780639f67679e14610344576101c4565b8063481c6a7511610166578063689538e711610140578063689538e7146103145780636a4874a11461031c5780636dca5abe14610324578063722713f71461032c576101c4565b8063481c6a75146102bb57806348677dbe146102c357806351cff8d9146102ee576101c4565b80631f1fcd51116101a25780631f1fcd511461026a5780632c5d68d91461028e5780632e1a7d4d146102965780633fc8cef3146102b3576101c4565b806306fdde03146101c957806311588086146102465780631dd19cb414610260575b600080fd5b6101d161040b565b6040805160208082528351818301528351919283929083019185019080838360005b8381101561020b5781810151838201526020016101f3565b50505050905090810190601f1680156102385780820380516001836020036101000a031916815260200191505b509250505060405180910390f35b61024e610499565b60408051918252519081900360200190f35b610268610539565b005b610272610603565b604080516001600160a01b039092168252519081900360200190f35b610272610627565b610268600480360360208110156102ac57600080fd5b503561064b565b610272610743565b610272610767565b6102cb61078b565b604080516001600160a01b03909316835260208301919091528051918290030190f35b6102686004803603602081101561030457600080fd5b50356001600160a01b031661090e565b610272610a9b565b610272610abf565b610272610ae3565b61024e610b07565b610268610b27565b610272610c8e565b610272610cb2565b610272610cd6565b6102686004803603602081101561036a57600080fd5b50356001600160a01b0316610cfa565b61024e610e4d565b610268610ebc565b61024e610f2f565b610268600480360360408110156103a857600080fd5b5080359060200135610f35565b610268600480360360608110156103cb57600080fd5b506001600160a01b03813581169160208101359091169060400135610faa565b61024e6110a2565b6102726110c6565b6102726110ea565b6102726110f9565b6000805460408051602060026001851615610100026000190190941693909304601f810184900484028201840190925281815292918301828280156104915780601f1061046657610100808354040283529160200191610491565b820191906000526020600020905b81548152906001019060200180831161047457829003601f168201915b505050505081565b60007f00000000000000000000000000000000000000000000000000000000000000006001600160a01b03166370a08231306040518263ffffffff1660e01b815260040180826001600160a01b0316815260200191505060206040518083038186803b15801561050857600080fd5b505afa15801561051c573d6000803e3d6000fd5b505050506040513d602081101561053257600080fd5b5051905090565b336001600160a01b037f000000000000000000000000000000000000000000000000000000000000000016146105a4576040805162461bcd60e51b815260206004820152600b60248201526a10b1b7b73a3937b63632b960a91b604482015290519081900360640190fd5b6106017f00000000000000000000000000000000000000000000000000000000000000006105d0610e4d565b6001600160a01b037f0000000000000000000000000000000000000000000000000000000000000000169190611249565b565b7f000000000000000000000000000000000000000000000000000000000000000081565b7f000000000000000000000000000000000000000000000000000000000000000081565b336001600160a01b037f000000000000000000000000000000000000000000000000000000000000000016146106b6576040805162461bcd60e51b815260206004820152600b60248201526a10b1b7b73a3937b63632b960a91b604482015290519081900360640190fd5b60006106c0610e4d565b9050818110156106eb576106dc6106d7838361129b565b6112e6565b91506106e8828261143c565b91505b61073f6001600160a01b037f0000000000000000000000000000000000000000000000000000000000000000167f000000000000000000000000000000000000000000000000000000000000000084611249565b5050565b7f000000000000000000000000000000000000000000000000000000000000000081565b7f000000000000000000000000000000000000000000000000000000000000000081565b6000807f00000000000000000000000000000000000000000000000000000000000000006001600160a01b0316634903b0d160016040518263ffffffff1660e01b81526004018082815260200191505060206040518083038186803b1580156107f357600080fd5b505afa158015610807573d6000803e3d6000fd5b505050506040513d602081101561081d57600080fd5b505160408051634903b0d160e01b81526000600482015290516001600160a01b037f00000000000000000000000000000000000000000000000000000000000000001691634903b0d1916024808301926020929190829003018186803b15801561088657600080fd5b505afa15801561089a573d6000803e3d6000fd5b505050506040513d60208110156108b057600080fd5b505111156108e357507f00000000000000000000000000000000000000000000000000000000000000009050600161090a565b507f0000000000000000000000000000000000000000000000000000000000000000905060005b9091565b336001600160a01b037f00000000000000000000000000000000000000000000000000000000000000001614610979576040805162461bcd60e51b815260206004820152600b60248201526a10b1b7b73a3937b63632b960a91b604482015290519081900360640190fd5b806001600160a01b03167f00000000000000000000000000000000000000000000000000000000000000006001600160a01b031614156109e9576040805162461bcd60e51b815260206004808301919091526024820152631dd85b9d60e21b604482015290519081900360640190fd5b604080516370a0823160e01b8152306004820152905182916000916001600160a01b038416916370a08231916024808301926020929190829003018186803b158015610a3457600080fd5b505afa158015610a48573d6000803e3d6000fd5b505050506040513d6020811015610a5e57600080fd5b50519050610a966001600160a01b0383167f000000000000000000000000000000000000000000000000000000000000000083611249565b505050565b7f000000000000000000000000000000000000000000000000000000000000000081565b7f000000000000000000000000000000000000000000000000000000000000000081565b7f000000000000000000000000000000000000000000000000000000000000000081565b6000610b22610b14610499565b610b1c610e4d565b9061143c565b905090565b336001600160a01b037f00000000000000000000000000000000000000000000000000000000000000001614610b92576040805162461bcd60e51b815260206004820152600b60248201526a10b1b7b73a3937b63632b960a91b604482015290519081900360640190fd5b610b9a611496565b60007f00000000000000000000000000000000000000000000000000000000000000006001600160a01b03166370a08231306040518263ffffffff1660e01b815260040180826001600160a01b0316815260200191505060206040518083038186803b158015610c0957600080fd5b505afa158015610c1d573d6000803e3d6000fd5b505050506040513d6020811015610c3357600080fd5b50519050610c8b6001600160a01b037f0000000000000000000000000000000000000000000000000000000000000000167f000000000000000000000000000000000000000000000000000000000000000083611249565b50565b7f000000000000000000000000000000000000000000000000000000000000000081565b7f000000000000000000000000000000000000000000000000000000000000000081565b7f000000000000000000000000000000000000000000000000000000000000000081565b7f00000000000000000000000000000000000000000000000000000000000000006001600160a01b0316635aa6e6756040518163ffffffff1660e01b815260040160206040518083038186803b158015610d5357600080fd5b505afa158015610d67573d6000803e3d6000fd5b505050506040513d6020811015610d7d57600080fd5b50516001600160a01b03163314610dc9576040805162461bcd60e51b815260206004820152600b60248201526a21676f7665726e616e636560a81b604482015290519081900360640190fd5b600180546001600160a01b0319166001600160a01b0383811691909117909155610e17907f00000000000000000000000000000000000000000000000000000000000000001682600061111d565b610c8b6001600160a01b037f0000000000000000000000000000000000000000000000000000000000000000168260001961111d565b60007f00000000000000000000000000000000000000000000000000000000000000006001600160a01b03166370a08231306040518263ffffffff1660e01b815260040180826001600160a01b0316815260200191505060206040518083038186803b15801561050857600080fd5b336001600160a01b037f00000000000000000000000000000000000000000000000000000000000000001614610f27576040805162461bcd60e51b815260206004820152600b60248201526a10b1b7b73a3937b63632b960a91b604482015290519081900360640190fd5b610601611546565b61271081565b336001600160a01b037f00000000000000000000000000000000000000000000000000000000000000001614610fa0576040805162461bcd60e51b815260206004820152600b60248201526a10b1b7b73a3937b63632b960a91b604482015290519081900360640190fd5b61073f82826115e5565b7f00000000000000000000000000000000000000000000000000000000000000006001600160a01b0316635aa6e6756040518163ffffffff1660e01b815260040160206040518083038186803b15801561100357600080fd5b505afa158015611017573d6000803e3d6000fd5b505050506040513d602081101561102d57600080fd5b50516001600160a01b03163314611079576040805162461bcd60e51b815260206004820152600b60248201526a21676f7665726e616e636560a81b604482015290519081900360640190fd5b61108e6001600160a01b03841683600061111d565b610a966001600160a01b038416838361111d565b7f000000000000000000000000000000000000000000000000000000000000000081565b7f000000000000000000000000000000000000000000000000000000000000000081565b6001546001600160a01b031681565b7f000000000000000000000000000000000000000000000000000000000000000081565b8015806111a3575060408051636eb1769f60e11b81523060048201526001600160a01b03848116602483015291519185169163dd62ed3e91604480820192602092909190829003018186803b15801561117557600080fd5b505afa158015611189573d6000803e3d6000fd5b505050506040513d602081101561119f57600080fd5b5051155b6111de5760405162461bcd60e51b81526004018080602001828103825260368152602001806126016036913960400191505060405180910390fd5b604080516001600160a01b038416602482015260448082018490528251808303909101815260649091019091526020810180516001600160e01b031663095ea7b360e01b179052610a969084906119b1565b606061123f8484600085611a62565b90505b9392505050565b604080516001600160a01b038416602482015260448082018490528251808303909101815260649091019091526020810180516001600160e01b031663a9059cbb60e01b179052610a969084906119b1565b60006112dd83836040518060400160405280601e81526020017f536166654d6174683a207375627472616374696f6e206f766572666c6f770000815250611bbe565b90505b92915050565b6000807f00000000000000000000000000000000000000000000000000000000000000006001600160a01b03166370a08231306040518263ffffffff1660e01b815260040180826001600160a01b0316815260200191505060206040518083038186803b15801561135657600080fd5b505afa15801561136a573d6000803e3d6000fd5b505050506040513d602081101561138057600080fd5b5051905061138d83611c55565b60007f00000000000000000000000000000000000000000000000000000000000000006001600160a01b03166370a08231306040518263ffffffff1660e01b815260040180826001600160a01b0316815260200191505060206040518083038186803b1580156113fc57600080fd5b505afa158015611410573d6000803e3d6000fd5b505050506040513d602081101561142657600080fd5b50519050611434818361129b565b949350505050565b6000828201838110156112dd576040805162461bcd60e51b815260206004820152601b60248201527f536166654d6174683a206164646974696f6e206f766572666c6f770000000000604482015290519081900360640190fd5b7f00000000000000000000000000000000000000000000000000000000000000006001600160a01b031663958e2d317f00000000000000000000000000000000000000000000000000000000000000006040518263ffffffff1660e01b815260040180828152602001915050602060405180830381600087803b15801561151c57600080fd5b505af1158015611530573d6000803e3d6000fd5b505050506040513d602081101561073f57600080fd5b6000611550610e4d565b1115610601576040805163303acfe760e11b81527f000000000000000000000000000000000000000000000000000000000000000060048201526001602482015290516001600160a01b037f000000000000000000000000000000000000000000000000000000000000000016916360759fce9160448083019260209291908290030181600087803b15801561151c57600080fd5b6115ed611d0d565b60007f00000000000000000000000000000000000000000000000000000000000000006001600160a01b03166370a08231306040518263ffffffff1660e01b815260040180826001600160a01b0316815260200191505060206040518083038186803b15801561165c57600080fd5b505afa158015611670573d6000803e3d6000fd5b505050506040513d602081101561168657600080fd5b5051905080156116dd576116dd7f00000000000000000000000000000000000000000000000000000000000000007f0000000000000000000000000000000000000000000000000000000000000000836001611d7c565b60007f00000000000000000000000000000000000000000000000000000000000000006001600160a01b031663d55a23f46040518163ffffffff1660e01b815260040160206040518083038186803b15801561173857600080fd5b505afa15801561174c573d6000803e3d6000fd5b505050506040513d602081101561176257600080fd5b5051905060005b818110156119285760007f00000000000000000000000000000000000000000000000000000000000000006001600160a01b03166340c35446836040518263ffffffff1660e01b81526004018082815260200191505060206040518083038186803b1580156117d757600080fd5b505afa1580156117eb573d6000803e3d6000fd5b505050506040513d602081101561180157600080fd5b50516040805163f7c618c160e01b815290516001600160a01b039092169163f7c618c191600480820192602092909190829003018186803b15801561184557600080fd5b505afa158015611859573d6000803e3d6000fd5b505050506040513d602081101561186f57600080fd5b5051604080516370a0823160e01b815230600482015290519192506000916001600160a01b038416916370a08231916024808301926020929190829003018186803b1580156118bd57600080fd5b505afa1580156118d1573d6000803e3d6000fd5b505050506040513d60208110156118e757600080fd5b50519050801561191e5761191e827f0000000000000000000000000000000000000000000000000000000000000000836001611d7c565b5050600101611769565b5060006119567f00000000000000000000000000000000000000000000000000000000000000008686611ebb565b905080156119aa57600061196861078b565b5090506119987f000000000000000000000000000000000000000000000000000000000000000082846001611d7c565b6119a061222e565b6119a8611546565b505b5050505050565b6060611a06826040518060400160405280602081526020017f5361666545524332303a206c6f772d6c6576656c2063616c6c206661696c6564815250856001600160a01b03166112309092919063ffffffff16565b805190915015610a9657808060200190516020811015611a2557600080fd5b5051610a965760405162461bcd60e51b815260040180806020018281038252602a8152602001806125d7602a913960400191505060405180910390fd5b606082471015611aa35760405162461bcd60e51b81526004018080602001828103825260268152602001806125906026913960400191505060405180910390fd5b611aac8561240a565b611afd576040805162461bcd60e51b815260206004820152601d60248201527f416464726573733a2063616c6c20746f206e6f6e2d636f6e7472616374000000604482015290519081900360640190fd5b60006060866001600160a01b031685876040518082805190602001908083835b60208310611b3c5780518252601f199092019160209182019101611b1d565b6001836020036101000a03801982511681845116808217855250505050505090500191505060006040518083038185875af1925050503d8060008114611b9e576040519150601f19603f3d011682016040523d82523d6000602084013e611ba3565b606091505b5091509150611bb3828286612410565b979650505050505050565b60008184841115611c4d5760405162461bcd60e51b81526004018080602001828103825283818151815260200191508051906020019080838360005b83811015611c12578181015183820152602001611bfa565b50505050905090810190601f168015611c3f5780820380516001836020036101000a031916815260200191505b509250505060405180910390fd5b505050900390565b7f00000000000000000000000000000000000000000000000000000000000000006001600160a01b031663441a3e707f0000000000000000000000000000000000000000000000000000000000000000836040518363ffffffff1660e01b81526004018083815260200182815260200192505050602060405180830381600087803b158015611ce357600080fd5b505af1158015611cf7573d6000803e3d6000fd5b505050506040513d6020811015610a9657600080fd5b60408051637050ccd960e01b81523060048201526001602482015290516001600160a01b037f00000000000000000000000000000000000000000000000000000000000000001691637050ccd99160448083019260209291908290030181600087803b15801561151c57600080fd5b60408051600280825260608083018452926020830190803683370190505090508481600081518110611daa57fe5b60200260200101906001600160a01b031690816001600160a01b0316815250508381600181518110611dd857fe5b6001600160a01b039283166020918202929092018101919091526001546040516338ed173960e01b8152600481018781526024820187905230606483018190526402540be4006084840181905260a060448501908152885160a4860152885195909716966338ed1739968b968b968b96939260c490910191878201910280838360005b83811015611e73578181015183820152602001611e5b565b505050509050019650505050505050600060405180830381600087803b158015611e9c57600080fd5b505af1158015611eb0573d6000803e3d6000fd5b505050505050505050565b600080846001600160a01b03166370a08231306040518263ffffffff1660e01b815260040180826001600160a01b0316815260200191505060206040518083038186803b158015611f0b57600080fd5b505afa158015611f1f573d6000803e3d6000fd5b505050506040513d6020811015611f3557600080fd5b50519050611f65857f00000000000000000000000000000000000000000000000000000000000000008387611d7c565b604080516370a0823160e01b815230600482015290516001600160a01b037f000000000000000000000000000000000000000000000000000000000000000016916370a08231916024808301926020929190829003018186803b158015611fcb57600080fd5b505afa158015611fdf573d6000803e3d6000fd5b505050506040513d6020811015611ff557600080fd5b5051915081156122265760008060007f00000000000000000000000000000000000000000000000000000000000000006001600160a01b031663da633d316040518163ffffffff1660e01b815260040160606040518083038186803b15801561205d57600080fd5b505afa158015612071573d6000803e3d6000fd5b505050506040513d606081101561208757600080fd5b50805160208201516040909201519094509092509050600081158015906120b657506001600160a01b03831615155b1561218d576120d16127106120cb8885612476565b906124cf565b90506120ff7f000000000000000000000000000000000000000000000000000000000000000085838a611d7c565b61218d83856001600160a01b03166370a08231306040518263ffffffff1660e01b815260040180826001600160a01b0316815260200191505060206040518083038186803b15801561215057600080fd5b505afa158015612164573d6000803e3d6000fd5b505050506040513d602081101561217a57600080fd5b50516001600160a01b0387169190611249565b604080516370a0823160e01b815230600482015290516001600160a01b037f000000000000000000000000000000000000000000000000000000000000000016916370a08231916024808301926020929190829003018186803b1580156121f357600080fd5b505afa158015612207573d6000803e3d6000fd5b505050506040513d602081101561221d57600080fd5b50519550505050505b509392505050565b612236612571565b604080516370a0823160e01b815230600482015290516001600160a01b037f000000000000000000000000000000000000000000000000000000000000000016916370a08231916024808301926020929190829003018186803b15801561229c57600080fd5b505afa1580156122b0573d6000803e3d6000fd5b505050506040513d60208110156122c657600080fd5b50518152604080516370a0823160e01b815230600482015290516001600160a01b037f000000000000000000000000000000000000000000000000000000000000000016916370a08231916024808301926020929190829003018186803b15801561233057600080fd5b505afa158015612344573d6000803e3d6000fd5b505050506040513d602081101561235a57600080fd5b5051602082015260408051630b4c7e4d60e01b81527f00000000000000000000000000000000000000000000000000000000000000006001600160a01b031691630b4c7e4d918491600191600401908190849080838360005b838110156123cb5781810151838201526020016123b3565b5050505090500182815260200192505050600060405180830381600087803b1580156123f657600080fd5b505af11580156119aa573d6000803e3d6000fd5b3b151590565b6060831561241f575081611242565b82511561242f5782518084602001fd5b60405162461bcd60e51b8152602060048201818152845160248401528451859391928392604401919085019080838360008315611c12578181015183820152602001611bfa565b600082612485575060006112e0565b8282028284828161249257fe5b04146112dd5760405162461bcd60e51b81526004018080602001828103825260218152602001806125b66021913960400191505060405180910390fd5b60006112dd83836040518060400160405280601a81526020017f536166654d6174683a206469766973696f6e206279207a65726f0000000000008152506000818361255b5760405162461bcd60e51b8152602060048201818152835160248401528351909283926044909101919085019080838360008315611c12578181015183820152602001611bfa565b50600083858161256757fe5b0495945050505050565b6040518060400160405280600290602082028036833750919291505056fe416464726573733a20696e73756666696369656e742062616c616e636520666f722063616c6c536166654d6174683a206d756c7469706c69636174696f6e206f766572666c6f775361666545524332303a204552433230206f7065726174696f6e20646964206e6f7420737563636565645361666545524332303a20617070726f76652066726f6d206e6f6e2d7a65726f20746f206e6f6e2d7a65726f20616c6c6f77616e6365a264697066735822122011e26b7187dfca9deae34fef9e2039644b9b04f404e460b96bc2e1ebcb2d6ef864736f6c634300060c0033416464726573733a20696e73756666696369656e742062616c616e636520666f722063616c6c5361666545524332303a204552433230206f7065726174696f6e20646964206e6f7420737563636565645361666545524332303a20617070726f76652066726f6d206e6f6e2d7a65726f20746f206e6f6e2d7a65726f20616c6c6f77616e6365",
  "linkReferences": {},
  "deployedLinkReferences": {}
}