{
  "_format": "hh-sol-artifact-1",
  "contractName": "Gov",
  "sourceName": "contracts/facets/Gov.sol",
  "abi": [
    {
      "inputs": [],
      "name": "getCooldown",
      "outputs": [
        {
          "internalType": "uint40",
          "name": "",
          "type": "uint40"
        }
      ],
      "stateMutability": "view",
      "type": "function"
    },
    {
      "inputs": [],
      "name": "getGovMain",
      "outputs": [
        {
          "internalType": "address",
          "name": "",
          "type": "address"
        }
      ],
      "stateMutability": "view",
      "type": "function"
    },
    {
      "inputs": [
        {
          "internalType": "bytes32",
          "name": "_protocol",
          "type": "bytes32"
        }
      ],
      "name": "getProtocolAgent",
      "outputs": [
        {
          "internalType": "address",
          "name": "",
          "type": "address"
        }
      ],
      "stateMutability": "view",
      "type": "function"
    },
    {
      "inputs": [
        {
          "internalType": "bytes32",
          "name": "_protocol",
          "type": "bytes32"
        }
      ],
      "name": "getProtocolIsCovered",
      "outputs": [
        {
          "internalType": "bool",
          "name": "",
          "type": "bool"
        }
      ],
      "stateMutability": "view",
      "type": "function"
    },
    {
      "inputs": [
        {
          "internalType": "bytes32",
          "name": "_protocol",
          "type": "bytes32"
        }
      ],
      "name": "getProtocolManager",
      "outputs": [
        {
          "internalType": "address",
          "name": "",
          "type": "address"
        }
      ],
      "stateMutability": "view",
      "type": "function"
    },
    {
      "inputs": [],
      "name": "getTokensSherX",
      "outputs": [
        {
          "internalType": "contract IERC20[]",
          "name": "",
          "type": "address[]"
        }
      ],
      "stateMutability": "view",
      "type": "function"
    },
    {
      "inputs": [],
      "name": "getTokensStaker",
      "outputs": [
        {
          "internalType": "contract IERC20[]",
          "name": "",
          "type": "address[]"
        }
      ],
      "stateMutability": "view",
      "type": "function"
    },
    {
      "inputs": [],
      "name": "getUnstakeWindow",
      "outputs": [
        {
          "internalType": "uint40",
          "name": "",
          "type": "uint40"
        }
      ],
      "stateMutability": "view",
      "type": "function"
    },
    {
      "inputs": [],
      "name": "getWatsons",
      "outputs": [
        {
          "internalType": "address",
          "name": "",
          "type": "address"
        }
      ],
      "stateMutability": "view",
      "type": "function"
    },
    {
      "inputs": [],
      "name": "getWatsonsSherXPerBlock",
      "outputs": [
        {
          "internalType": "uint256",
          "name": "",
          "type": "uint256"
        }
      ],
      "stateMutability": "view",
      "type": "function"
    },
    {
      "inputs": [],
      "name": "getWatsonsSherXWeight",
      "outputs": [
        {
          "internalType": "uint16",
          "name": "",
          "type": "uint16"
        }
      ],
      "stateMutability": "view",
      "type": "function"
    },
    {
      "inputs": [],
      "name": "getWatsonsSherxLastAccrued",
      "outputs": [
        {
          "internalType": "uint40",
          "name": "",
          "type": "uint40"
        }
      ],
      "stateMutability": "view",
      "type": "function"
    },
    {
      "inputs": [],
      "name": "getWatsonsUnmintedSherX",
      "outputs": [
        {
          "internalType": "uint256",
          "name": "",
          "type": "uint256"
        }
      ],
      "stateMutability": "view",
      "type": "function"
    },
    {
      "inputs": [
        {
          "internalType": "bytes32",
          "name": "_protocol",
          "type": "bytes32"
        },
        {
          "internalType": "address",
          "name": "_eoaProtocolAgent",
          "type": "address"
        },
        {
          "internalType": "address",
          "name": "_eoaManager",
          "type": "address"
        },
        {
          "internalType": "contract IERC20[]",
          "name": "_tokens",
          "type": "address[]"
        }
      ],
      "name": "protocolAdd",
      "outputs": [],
      "stateMutability": "nonpayable",
      "type": "function"
    },
    {
      "inputs": [
        {
          "internalType": "bytes32",
          "name": "_protocol",
          "type": "bytes32"
        },
        {
          "internalType": "contract IERC20[]",
          "name": "_tokens",
          "type": "address[]"
        }
      ],
      "name": "protocolDepositAdd",
      "outputs": [],
      "stateMutability": "nonpayable",
      "type": "function"
    },
    {
      "inputs": [
        {
          "internalType": "bytes32",
          "name": "_protocol",
          "type": "bytes32"
        }
      ],
      "name": "protocolRemove",
      "outputs": [],
      "stateMutability": "nonpayable",
      "type": "function"
    },
    {
      "inputs": [
        {
          "internalType": "bytes32",
          "name": "_protocol",
          "type": "bytes32"
        },
        {
          "internalType": "address",
          "name": "_eoaProtocolAgent",
          "type": "address"
        },
        {
          "internalType": "address",
          "name": "_eoaManager",
          "type": "address"
        }
      ],
      "name": "protocolUpdate",
      "outputs": [],
      "stateMutability": "nonpayable",
      "type": "function"
    },
    {
      "inputs": [
        {
          "internalType": "uint40",
          "name": "_period",
          "type": "uint40"
        }
      ],
      "name": "setCooldown",
      "outputs": [],
      "stateMutability": "nonpayable",
      "type": "function"
    },
    {
      "inputs": [
        {
          "internalType": "address",
          "name": "_govMain",
          "type": "address"
        }
      ],
      "name": "setInitialGovMain",
      "outputs": [],
      "stateMutability": "nonpayable",
      "type": "function"
    },
    {
      "inputs": [
        {
          "internalType": "uint40",
          "name": "_unstakeWindow",
          "type": "uint40"
        }
      ],
      "name": "setUnstakeWindow",
      "outputs": [],
      "stateMutability": "nonpayable",
      "type": "function"
    },
    {
      "inputs": [
        {
          "internalType": "address",
          "name": "_watsons",
          "type": "address"
        }
      ],
      "name": "setWatsonsAddress",
      "outputs": [],
      "stateMutability": "nonpayable",
      "type": "function"
    },
    {
      "inputs": [
        {
          "internalType": "contract IERC20",
          "name": "_token",
          "type": "address"
        },
        {
          "internalType": "uint256",
          "name": "_index",
          "type": "uint256"
        }
      ],
      "name": "tokenDisableProtocol",
      "outputs": [],
      "stateMutability": "nonpayable",
      "type": "function"
    },
    {
      "inputs": [
        {
          "internalType": "contract IERC20",
          "name": "_token",
          "type": "address"
        },
        {
          "internalType": "uint256",
          "name": "_index",
          "type": "uint256"
        }
      ],
      "name": "tokenDisableStakers",
      "outputs": [],
      "stateMutability": "nonpayable",
      "type": "function"
    },
    {
      "inputs": [
        {
          "internalType": "contract IERC20",
          "name": "_token",
          "type": "address"
        },
        {
          "internalType": "address",
          "name": "_govPool",
          "type": "address"
        },
        {
          "internalType": "contract ILock",
          "name": "_lock",
          "type": "address"
        },
        {
          "internalType": "bool",
          "name": "_protocolPremium",
          "type": "bool"
        }
      ],
      "name": "tokenInit",
      "outputs": [],
      "stateMutability": "nonpayable",
      "type": "function"
    },
    {
      "inputs": [
        {
          "internalType": "contract IERC20",
          "name": "_token",
          "type": "address"
        }
      ],
      "name": "tokenRemove",
      "outputs": [],
      "stateMutability": "nonpayable",
      "type": "function"
    },
    {
      "inputs": [
        {
          "internalType": "contract IERC20",
          "name": "_token",
          "type": "address"
        },
        {
          "internalType": "contract IRemove",
          "name": "_native",
          "type": "address"
        },
        {
          "internalType": "address",
          "name": "_remaining",
          "type": "address"
        }
      ],
      "name": "tokenUnload",
      "outputs": [],
      "stateMutability": "nonpayable",
      "type": "function"
    },
    {
      "inputs": [
        {
          "internalType": "address",
          "name": "_govMain",
          "type": "address"
        }
      ],
      "name": "transferGovMain",
      "outputs": [],
      "stateMutability": "nonpayable",
      "type": "function"
    }
  ],
  "bytecode": "0x608060405234801561001057600080fd5b50612ae2806100206000396000f3fe608060405234801561001057600080fd5b50600436106101a85760003560e01c80638f2a4014116100f9578063c54dc7b911610097578063e72d6f3c11610071578063e72d6f3c1461060b578063f5faf0ce14610625578063f8b0244114610649578063fba070b314610651576101a8565b8063c54dc7b9146104f6578063ca1a5ad414610522578063d6ff36c5146105e5576101a8565b8063afd435c2116100d3578063afd435c214610441578063ba558ff814610479578063be32bc041461049f578063c4d809fc146104c5576101a8565b80638f2a4014146103fd57806390b9f9e41461041c578063a2e432a214610424576101a8565b80633314da2d1161016657806354ad24ca1161014057806354ad24ca146103925780637802eb321461039a5780637a779414146103a257806385a20402146103bf576101a8565b80633314da2d146102bc5780633b6a11ea146102c45780634900ea101461036e576101a8565b806220d495146101ad57806306ff6e2b146101d1578063088dbba6146101f95780631dfe70061461021657806320f3360014610242578063218e4a151461029a575b600080fd5b6101b5610685565b604080516001600160a01b039092168252519081900360200190f35b6101f7600480360360208110156101e757600080fd5b50356001600160a01b03166106a1565b005b6101f76004803603602081101561020f57600080fd5b50356107bc565b6101f76004803603604081101561022c57600080fd5b506001600160a01b0381351690602001356109a8565b61024a610b72565b60408051602080825283518183015283519192839290830191858101910280838360005b8381101561028657818101518382015260200161026e565b505050509050019250505060405180910390f35b6102a2610bdd565b6040805164ffffffffff9092168252519081900360200190f35b6102a2610bf7565b6101f7600480360360408110156102da57600080fd5b813591908101906040810160208201356401000000008111156102fc57600080fd5b82018360208201111561030e57600080fd5b8035906020019184602083028401116401000000008311171561033057600080fd5b919080806020026020016040519081016040528093929190818152602001838360200280828437600092019190915250929550610c18945050505050565b6101f76004803603602081101561038457600080fd5b503564ffffffffff16610e53565b6101b5610f15565b61024a610f2e565b6101b5600480360360208110156103b857600080fd5b5035610f97565b6101f7600480360360808110156103d557600080fd5b506001600160a01b038135811691602081013582169160408201351690606001351515610fbe565b6104056114b9565b6040805161ffff9092168252519081900360200190f35b6102a26114d7565b6101b56004803603602081101561043a57600080fd5b50356114fa565b6101f76004803603606081101561045757600080fd5b506001600160a01b038135811691602081013582169160409091013516611521565b6101f76004803603602081101561048f57600080fd5b50356001600160a01b03166119a4565b6101f7600480360360208110156104b557600080fd5b50356001600160a01b0316611ac2565b6104e2600480360360208110156104db57600080fd5b5035611d12565b604080519115158252519081900360200190f35b6101f76004803603604081101561050c57600080fd5b506001600160a01b038135169060200135611d33565b6101f76004803603608081101561053857600080fd5b8135916001600160a01b0360208201358116926040830135909116919081019060808101606082013564010000000081111561057357600080fd5b82018360208201111561058557600080fd5b803590602001918460208302840111640100000000831117156105a757600080fd5b919080806020026020016040519081016040528093929190818152602001838360200280828437600092019190915250929550611f19945050505050565b6101f7600480360360208110156105fb57600080fd5b50356001600160a01b0316612001565b610613612115565b60408051918252519081900360200190f35b6101f76004803603602081101561063b57600080fd5b503564ffffffffff16612161565b610613612229565b6101f76004803603606081101561066757600080fd5b508035906001600160a01b036020820135811691604001351661226b565b600061068f61243a565b600701546001600160a01b0316905090565b6106a961243a565b546001600160a01b031633146106f5576040805162461bcd60e51b815260206004820152600c60248201526b2727aa2fa3a7ab2fa6a0a4a760a11b604482015290519081900360640190fd5b60006106ff61243a565b90506001600160a01b038216610748576040805162461bcd60e51b81526020600482015260096024820152685a45524f5f5741545360b81b604482015290519081900360640190fd5b60078101546001600160a01b0383811691161415610799576040805162461bcd60e51b815260206004820152600960248201526853414d455f5741545360b81b604482015290519081900360640190fd5b60070180546001600160a01b0319166001600160a01b0392909216919091179055565b6107c461243a565b546001600160a01b03163314610810576040805162461bcd60e51b815260206004820152600c60248201526b2727aa2fa3a7ab2fa6a0a4a760a11b604482015290519081900360640190fd5b600061081a61243a565b600083815260048201602052604090205490915060ff16610870576040805162461bcd60e51b815260206004820152600b60248201526a1393d517d0d3d59154915160aa1b604482015290519081900360640190fd5b60005b600682015481101561095e57600082600601828154811061089057fe5b60009182526020822001546001600160a01b031691506108af8261245e565b6000868152600b82016020526040902054909150156108fe576040805162461bcd60e51b815260206004808301919091526024820152631111509560e21b604482015290519081900360640190fd5b6000858152600f8201602052604090205460ff1615610954576040805162461bcd60e51b815260206004820152600d60248201526c1413d3d317d41493d513d0d3d3609a1b604482015290519081900360640190fd5b5050600101610873565b5060009182526004810160209081526040808420805460ff1916905560018301825280842080546001600160a01b0319908116909155600290930190915290912080549091169055565b6109b061243a565b546001600160a01b031633146109fc576040805162461bcd60e51b815260206004820152600c60248201526b2727aa2fa3a7ab2fa6a0a4a760a11b604482015290519081900360640190fd5b6000610a0661243a565b90506000610a138461245e565b9050836001600160a01b0316826005018481548110610a2e57fe5b6000918252602090912001546001600160a01b031614610a7d576040805162461bcd60e51b81526020600482015260056024820152640929c888ab60db1b604482015290519081900360640190fd5b600681015461ffff1615610ac8576040805162461bcd60e51b815260206004820152600d60248201526c1050d512559157d5d15251d215609a1b604482015290519081900360640190fd5b805460ff60a01b191681556005820180546000198101908110610ae757fe5b6000918252602090912001546005830180546001600160a01b039092169185908110610b0f57fe5b9060005260206000200160006101000a8154816001600160a01b0302191690836001600160a01b0316021790555081600501805480610b4a57fe5b600082815260209020810160001990810180546001600160a01b031916905501905550505050565b6060610b7c61243a565b600501805480602002602001604051908101604052809291908181526020018280548015610bd357602002820191906000526020600020905b81546001600160a01b03168152600190910190602001808311610bb5575b5050505050905090565b6000610be761243a565b6003015464ffffffffff16905090565b6000610c0161243a565b60070154600160b01b900464ffffffffff16919050565b610c2061243a565b546001600160a01b03163314610c6c576040805162461bcd60e51b815260206004820152600c60248201526b2727aa2fa3a7ab2fa6a0a4a760a11b604482015290519081900360640190fd5b81610cae576040805162461bcd60e51b815260206004820152600d60248201526c16915493d7d41493d513d0d3d3609a1b604482015290519081900360640190fd5b6000815111610ced576040805162461bcd60e51b815260206004808301919091526024820152635a45524f60e01b604482015290519081900360640190fd5b6000610cf761243a565b600084815260048201602052604090205490915060ff16610d4d576040805162461bcd60e51b815260206004820152600b60248201526a1393d517d0d3d59154915160aa1b604482015290519081900360640190fd5b60005b8251811015610e4d576000610d77848381518110610d6a57fe5b602002602001015161245e565b600981015490915060ff16610dbc576040805162461bcd60e51b815260206004808301919091526024820152631253925560e21b604482015290519081900360640190fd5b6000858152600f8201602052604090205460ff1615610e12576040805162461bcd60e51b815260206004820152600d60248201526c1053149150511657d051111151609a1b604482015290519081900360640190fd5b6000858152600f8201602090815260408220805460ff1916600190811790915560109093018054808501825590835291200185905501610d50565b50505050565b610e5b61243a565b546001600160a01b03163314610ea7576040805162461bcd60e51b815260206004820152600c60248201526b2727aa2fa3a7ab2fa6a0a4a760a11b604482015290519081900360640190fd5b63017d78408164ffffffffff1610610eec576040805162461bcd60e51b815260206004820152600360248201526209a82b60eb1b604482015290519081900360640190fd5b80610ef561243a565b600301805464ffffffffff191664ffffffffff9290921691909117905550565b6000610f1f61243a565b546001600160a01b0316905090565b6060610f3861243a565b600601805480602002602001604051908101604052809291908181526020018280548015610bd3576020028201919060005260206000209081546001600160a01b03168152600190910190602001808311610bb5575050505050905090565b6000610fa161243a565b60009283526002016020525060409020546001600160a01b031690565b610fc661243a565b546001600160a01b03163314611012576040805162461bcd60e51b815260206004820152600c60248201526b2727aa2fa3a7ab2fa6a0a4a760a11b604482015290519081900360640190fd5b600061101c61243a565b905060006110298661245e565b90506001600160a01b038616611073576040805162461bcd60e51b815260206004820152600a6024820152692d22a927afaa27a5a2a760b11b604482015290519081900360640190fd5b6001600160a01b0385161561109c5780546001600160a01b0319166001600160a01b0386161781555b80546001600160a01b03166110e3576040805162461bcd60e51b81526020600482015260086024820152672d22a927afa3a7ab60c11b604482015290519081900360640190fd5b6001600160a01b038416156114205760018101546001600160a01b031661133b57306001600160a01b0316846001600160a01b031663893d20e86040518163ffffffff1660e01b815260040160206040518083038186803b15801561114757600080fd5b505afa15801561115b573d6000803e3d6000fd5b505050506040513d602081101561117157600080fd5b50516001600160a01b0316146111b6576040805162461bcd60e51b815260206004820152600560248201526427aba722a960d91b604482015290519081900360640190fd5b836001600160a01b03166318160ddd6040518163ffffffff1660e01b815260040160206040518083038186803b1580156111ef57600080fd5b505afa158015611203573d6000803e3d6000fd5b505050506040513d602081101561121957600080fd5b505115611256576040805162461bcd60e51b8152602060048201526006602482015265535550504c5960d01b604482015290519081900360640190fd5b6001600160a01b038616301461131d57856001600160a01b0316846001600160a01b0316636f307dc36040518163ffffffff1660e01b815260040160206040518083038186803b1580156112a957600080fd5b505afa1580156112bd573d6000803e3d6000fd5b505050506040513d60208110156112d357600080fd5b50516001600160a01b03161461131d576040805162461bcd60e51b815260206004820152600a602482015269554e4445524c59494e4760b01b604482015290519081900360640190fd5b6001810180546001600160a01b0319166001600160a01b0386161790555b60018101546001600160a01b03858116911614156113e6578054600160a01b900460ff161561139e576040805162461bcd60e51b815260206004820152600a60248201526914d51052d154d7d4d15560b21b604482015290519081900360640190fd5b805460ff60a01b1916600160a01b178155600582018054600181018255600091825260209091200180546001600160a01b0388166001600160a01b0319909116179055611420565b6040805162461bcd60e51b815260206004820152600a60248201526957524f4e475f4c4f434b60b01b604482015290519081900360640190fd5b82156114b157600981015460ff161561146f576040805162461bcd60e51b815260206004820152600c60248201526b1414915352555354d7d4d15560a21b604482015290519081900360640190fd5b600981018054600160ff19909116811790915560068301805491820181556000908152602090200180546001600160a01b0319166001600160a01b0388161790555b505050505050565b60006114c361243a565b60070154600160a01b900461ffff16919050565b60006114e161243a565b6003015465010000000000900464ffffffffff16919050565b600061150461243a565b60009283526001016020525060409020546001600160a01b031690565b61152961243a565b546001600160a01b03163314611575576040805162461bcd60e51b815260206004820152600c60248201526b2727aa2fa3a7ab2fa6a0a4a760a11b604482015290519081900360640190fd5b6001600160a01b0382166115be576040805162461bcd60e51b815260206004820152600b60248201526a5a45524f5f4e415449564560a81b604482015290519081900360640190fd5b6001600160a01b038116611607576040805162461bcd60e51b815260206004820152600b60248201526a2d22a927afa922a6a0a4a760a91b604482015290519081900360640190fd5b60006116128461245e565b80549091506001600160a01b0316611659576040805162461bcd60e51b8152602060048201526005602482015264454d50545960d81b604482015290519081900360640190fd5b8054600160a01b900460ff16156116a4576040805162461bcd60e51b815260206004820152600a60248201526914d51052d154d7d4d15560b21b604482015290519081900360640190fd5b600c810154156116ec576040805162461bcd60e51b815260206004820152600e60248201526d4143544956455f5052454d49554d60901b604482015290519081900360640190fd5b60118101546001600160a01b03161561173e576040805162461bcd60e51b815260206004820152600f60248201526e4143544956455f535452415445475960881b604482015290519081900360640190fd5b600061175b82600e0154836004015461253190919063ffffffff16565b9050801561192c57846001600160a01b031663095ea7b385836040518363ffffffff1660e01b815260040180836001600160a01b0316815260200182815260200192505050602060405180830381600087803b1580156117ba57600080fd5b505af11580156117ce573d6000803e3d6000fd5b505050506040513d60208110156117e457600080fd5b5050600480830154600e84015460408051639f1d0f5960e01b81526001600160a01b038a81169582019590955260248101939093526044830191909152516000928392839291891691639f1d0f599160648082019260609290919082900301818787803b15801561185457600080fd5b505af1158015611868573d6000803e3d6000fd5b505050506040513d606081101561187e57600080fd5b50805160208201516040909201519094509092509050600061189f8461245e565b80549091506001600160a01b03166118eb576040805162461bcd60e51b815260206004820152600a6024820152690454d5054595f535741560b41b604482015290519081900360640190fd5b60028101546118fa9084612531565b6002820155600481015461190e9084612531565b6004820155600e8101546119229083612531565b600e909101555050505b6005820154801561194a57611942308583612594565b600060058401555b6000611967846004015485600201546125eb90919063ffffffff16565b9050801561198b576119836001600160a01b0388168683612594565b600060028501555b83600e0160009055836004016000905550505050505050565b6119ac61243a565b546001600160a01b031633146119f8576040805162461bcd60e51b815260206004820152600c60248201526b2727aa2fa3a7ab2fa6a0a4a760a11b604482015290519081900360640190fd5b6001600160a01b038116611a3e576040805162461bcd60e51b81526020600482015260086024820152672d22a927afa3a7ab60c11b604482015290519081900360640190fd5b806001600160a01b0316611a5061243a565b546001600160a01b03161415611a98576040805162461bcd60e51b815260206004820152600860248201526729a0a6a2afa3a7ab60c11b604482015290519081900360640190fd5b80611aa161243a565b80546001600160a01b0319166001600160a01b039290921691909117905550565b611aca61243a565b546001600160a01b03163314611b16576040805162461bcd60e51b815260206004820152600c60248201526b2727aa2fa3a7ab2fa6a0a4a760a11b604482015290519081900360640190fd5b6000611b218261245e565b80549091506001600160a01b0316611b68576040805162461bcd60e51b8152602060048201526005602482015264454d50545960d81b604482015290519081900360640190fd5b8054600160a01b900460ff1615611bb3576040805162461bcd60e51b815260206004820152600a60248201526914d51052d154d7d4d15560b21b604482015290519081900360640190fd5b600981015460ff1615611bfc576040805162461bcd60e51b815260206004820152600c60248201526b1414915352555354d7d4d15560a21b604482015290519081900360640190fd5b601081015415611c46576040805162461bcd60e51b815260206004820152601060248201526f4143544956455f50524f544f434f4c5360801b604482015290519081900360640190fd5b600281015415611c8b576040805162461bcd60e51b815260206004820152600b60248201526a109053105390d157d4d15560aa1b604482015290519081900360640190fd5b600581015415611cce576040805162461bcd60e51b815260206004820152600960248201526814d211549617d4d15560ba1b604482015290519081900360640190fd5b80546001600160a01b03191681556001810180546001600160c01b031916905560068101805466ffffffffffffff19169055600d01805464ffffffffff1916905550565b6000611d1c61243a565b600092835260040160205250604090205460ff1690565b611d3b61243a565b546001600160a01b03163314611d87576040805162461bcd60e51b815260206004820152600c60248201526b2727aa2fa3a7ab2fa6a0a4a760a11b604482015290519081900360640190fd5b6000611d9161243a565b90506000611d9e8461245e565b9050836001600160a01b0316826006018481548110611db957fe5b6000918252602090912001546001600160a01b031614611e08576040805162461bcd60e51b81526020600482015260056024820152640929c888ab60db1b604482015290519081900360640190fd5b600c81015415611e50576040805162461bcd60e51b815260206004820152600e60248201526d4143544956455f5052454d49554d60901b604482015290519081900360640190fd5b600e81015415611e96576040805162461bcd60e51b815260206004820152600c60248201526b08286a892ac8abea6908aa4b60a31b604482015290519081900360640190fd5b60098101805460ff191690556006820180546000198101908110611eb657fe5b6000918252602090912001546006830180546001600160a01b039092169185908110611ede57fe5b9060005260206000200160006101000a8154816001600160a01b0302191690836001600160a01b0316021790555081600601805480610b4a57fe5b611f2161243a565b546001600160a01b03163314611f6d576040805162461bcd60e51b815260206004820152600c60248201526b2727aa2fa3a7ab2fa6a0a4a760a11b604482015290519081900360640190fd5b6000611f7761243a565b600086815260048201602052604090205490915060ff1615611fca576040805162461bcd60e51b815260206004820152600760248201526610d3d59154915160ca1b604482015290519081900360640190fd5b60008581526004820160205260409020805460ff19166001179055611ff085858561226b565b611ffa8583610c18565b5050505050565b600061200b61243a565b90506001600160a01b038216612053576040805162461bcd60e51b81526020600482015260086024820152672d22a927afa3a7ab60c11b604482015290519081900360640190fd5b61205b612648565b6001600160a01b0316336001600160a01b0316146120aa576040805162461bcd60e51b81526020600482015260076024820152662727aa2fa222ab60c91b604482015290519081900360640190fd5b80546001600160a01b0316156120f5576040805162461bcd60e51b815260206004820152600b60248201526a1053149150511657d4d15560aa1b604482015290519081900360640190fd5b80546001600160a01b0319166001600160a01b0392909216919091179055565b60008061212061243a565b9050600061212c612664565b6007830154600482015491925061215a9161ffff916121549190600160a01b90048316612688565b906126e1565b9250505090565b61216961243a565b546001600160a01b031633146121b5576040805162461bcd60e51b815260206004820152600c60248201526b2727aa2fa3a7ab2fa6a0a4a760a11b604482015290519081900360640190fd5b63017d78408164ffffffffff16106121fa576040805162461bcd60e51b815260206004820152600360248201526209a82b60eb1b604482015290519081900360640190fd5b8061220361243a565b60030160056101000a81548164ffffffffff021916908364ffffffffff16021790555050565b60008061223461243a565b9050612265612241612115565b600783015461225f904390600160b01b900464ffffffffff166125eb565b90612688565b91505090565b61227361243a565b546001600160a01b031633146122bf576040805162461bcd60e51b815260206004820152600c60248201526b2727aa2fa3a7ab2fa6a0a4a760a11b604482015290519081900360640190fd5b82612301576040805162461bcd60e51b815260206004820152600d60248201526c16915493d7d41493d513d0d3d3609a1b604482015290519081900360640190fd5b6001600160a01b038216612349576040805162461bcd60e51b815260206004820152600a60248201526916915493d7d051d1539560b21b604482015290519081900360640190fd5b6001600160a01b038116612393576040805162461bcd60e51b815260206004820152600c60248201526b2d22a927afa6a0a720a3a2a960a11b604482015290519081900360640190fd5b600061239d61243a565b600085815260048201602052604090205490915060ff166123f3576040805162461bcd60e51b815260206004820152600b60248201526a1393d517d0d3d59154915160aa1b604482015290519081900360640190fd5b6000938452600181016020908152604080862080546001600160a01b03199081166001600160a01b0396871617909155600290930190915290932080549093169116179055565b7f190488561d88e36f1e28cbe7392dc28aedf700281c58bde4049b57fb87e2944c90565b600080604051806040016040528060168152602001753234b0b6b7b7321739b432b93637b1b5973837b7b61760511b815250836040516020018080602001836001600160a01b03168152602001828103825284818151815260200191508051906020019080838360005b838110156124e05781810151838201526020016124c8565b50505050905090810190601f16801561250d5780820380516001836020036101000a031916815260200191505b5060408051601f198184030181529190528051602090910120979650505050505050565b60008282018381101561258b576040805162461bcd60e51b815260206004820152601b60248201527f536166654d6174683a206164646974696f6e206f766572666c6f770000000000604482015290519081900360640190fd5b90505b92915050565b604080516001600160a01b038416602482015260448082018490528251808303909101815260649091019091526020810180516001600160e01b031663a9059cbb60e01b1790526125e6908490612748565b505050565b600082821115612642576040805162461bcd60e51b815260206004820152601e60248201527f536166654d6174683a207375627472616374696f6e206f766572666c6f770000604482015290519081900360640190fd5b50900390565b60006126526127f9565b600401546001600160a01b0316919050565b7fcdaab98845a65ea47b0852a56cf7039170a5285c240d3bfde826581682c8fcd590565b6000826126975750600061258e565b828202828482816126a457fe5b041461258b5760405162461bcd60e51b8152600401808060200182810382526021815260200180612a626021913960400191505060405180910390fd5b6000808211612737576040805162461bcd60e51b815260206004820152601a60248201527f536166654d6174683a206469766973696f6e206279207a65726f000000000000604482015290519081900360640190fd5b81838161274057fe5b049392505050565b600061279d826040518060400160405280602081526020017f5361666545524332303a206c6f772d6c6576656c2063616c6c206661696c6564815250856001600160a01b031661281d9092919063ffffffff16565b8051909150156125e6578080602001905160208110156127bc57600080fd5b50516125e65760405162461bcd60e51b815260040180806020018281038252602a815260200180612a83602a913960400191505060405180910390fd5b7fc8fcad8db84d3cc18b4c41d551ea0ee66dd599cde068d998e57d5e09332c131c90565b606061282c8484600085612836565b90505b9392505050565b6060824710156128775760405162461bcd60e51b8152600401808060200182810382526026815260200180612a3c6026913960400191505060405180910390fd5b61288085612991565b6128d1576040805162461bcd60e51b815260206004820152601d60248201527f416464726573733a2063616c6c20746f206e6f6e2d636f6e7472616374000000604482015290519081900360640190fd5b600080866001600160a01b031685876040518082805190602001908083835b6020831061290f5780518252601f1990920191602091820191016128f0565b6001836020036101000a03801982511681845116808217855250505050505090500191505060006040518083038185875af1925050503d8060008114612971576040519150601f19603f3d011682016040523d82523d6000602084013e612976565b606091505b5091509150612986828286612997565b979650505050505050565b3b151590565b606083156129a657508161282f565b8251156129b65782518084602001fd5b8160405162461bcd60e51b81526004018080602001828103825283818151815260200191508051906020019080838360005b83811015612a005781810151838201526020016129e8565b50505050905090810190601f168015612a2d5780820380516001836020036101000a031916815260200191505b509250505060405180910390fdfe416464726573733a20696e73756666696369656e742062616c616e636520666f722063616c6c536166654d6174683a206d756c7469706c69636174696f6e206f766572666c6f775361666545524332303a204552433230206f7065726174696f6e20646964206e6f742073756363656564a2646970667358221220fdb0b767f1f11c01e0c6252c3e058ccf3e9076be47f23811a113b2cda616007064736f6c63430007060033",
  "linkReferences": {},
  "deployedLinkReferences": {}
}