{
  "_format": "hh-sol-artifact-1",
  "contractName": "LibLiquidationMock",
  "sourceName": "contracts/test/LibLiquidationMock.sol",
  "abi": [
    {
      "inputs": [
        {
          "internalType": "uint256",
          "name": "minMargin",
          "type": "uint256"
        },
        {
          "internalType": "int256",
          "name": "currentMargin",
          "type": "int256"
        },
        {
          "internalType": "int256",
          "name": "amount",
          "type": "int256"
        },
        {
          "internalType": "int256",
          "name": "totalBase",
          "type": "int256"
        }
      ],
      "name": "calcEscrowLiquidationAmount",
      "outputs": [
        {
          "internalType": "uint256",
          "name": "result",
          "type": "uint256"
        }
      ],
      "stateMutability": "pure",
      "type": "function"
    },
    {
      "inputs": [
        {
          "internalType": "uint256",
          "name": "unitsSold",
          "type": "uint256"
        },
        {
          "internalType": "uint256",
          "name": "maxSlippage",
          "type": "uint256"
        },
        {
          "internalType": "uint256",
          "name": "avgPrice",
          "type": "uint256"
        },
        {
          "internalType": "uint256",
          "name": "receiptPrice",
          "type": "uint256"
        },
        {
          "internalType": "uint256",
          "name": "receiptSide",
          "type": "uint256"
        }
      ],
      "name": "calculateSlippage",
      "outputs": [
        {
          "internalType": "uint256",
          "name": "result",
          "type": "uint256"
        }
      ],
      "stateMutability": "pure",
      "type": "function"
    },
    {
      "inputs": [
        {
          "internalType": "int256",
          "name": "liquidatedBase",
          "type": "int256"
        },
        {
          "internalType": "int256",
          "name": "liquidatedQuote",
          "type": "int256"
        },
        {
          "internalType": "int256",
          "name": "amount",
          "type": "int256"
        }
      ],
      "name": "liquidationBalanceChanges",
      "outputs": [
        {
          "internalType": "int256",
          "name": "_liquidatorQuoteChange",
          "type": "int256"
        },
        {
          "internalType": "int256",
          "name": "_liquidatorBaseChange",
          "type": "int256"
        },
        {
          "internalType": "int256",
          "name": "_liquidateeQuoteChange",
          "type": "int256"
        },
        {
          "internalType": "int256",
          "name": "_liquidateeBaseChange",
          "type": "int256"
        }
      ],
      "stateMutability": "pure",
      "type": "function"
    },
    {
      "inputs": [
        {
          "internalType": "int256",
          "name": "leftoverBase",
          "type": "int256"
        },
        {
          "internalType": "int256",
          "name": "leftoverQuote",
          "type": "int256"
        },
        {
          "internalType": "uint256",
          "name": "lastUpdatedGasPrice",
          "type": "uint256"
        },
        {
          "internalType": "uint256",
          "name": "liquidationGasCost",
          "type": "uint256"
        },
        {
          "internalType": "uint256",
          "name": "price",
          "type": "uint256"
        },
        {
          "internalType": "uint256",
          "name": "minimumLeftoverGasCostMultiplier",
          "type": "uint256"
        }
      ],
      "name": "partialLiquidationIsValid",
      "outputs": [
        {
          "internalType": "bool",
          "name": "",
          "type": "bool"
        }
      ],
      "stateMutability": "pure",
      "type": "function"
    }
  ],
  "bytecode": "0x610adf61003a600b82828239805160001a60731461002d57634e487b7160e01b600052600060045260246000fd5b30600052607381538281f3fe73000000000000000000000000000000000000000030146080604052600436106100565760003560e01c806305ecf9511461005b57806306f615ce14610084578063105e2f30146100a75780638d477cb5146100c7575b600080fd5b61006e61006936600461089c565b6100da565b60405161007b9190610949565b60405180910390f35b61009761009236600461083c565b61010a565b60405161007b949392919061096a565b6100ba6100b53660046108de565b6101ac565b60405161007b91906109bc565b6100ba6100d536600461090f565b6101c3565b60408051808201909152858152602081018790526000906100fe81878787876102b6565b98975050505050505050565b60008060008073__$6dc5155fd85af890e0329f4228e22ab414$__6306f615ce8888886040518463ffffffff1660e01b815260040161014b93929190610954565b60806040518083038186803b15801561016357600080fd5b505af4158015610177573d6000803e3d6000fd5b505050506040513d601f19601f8201168201806040525081019061019b9190610867565b929a91995097509095509350505050565b60006101ba8585858561030b565b95945050505050565b600080604051806101600160405280600073ffffffffffffffffffffffffffffffffffffffff168152602001600073ffffffffffffffffffffffffffffffffffffffff168152602001600073ffffffffffffffffffffffffffffffffffffffff1681526020018581526020016000815260200160008152602001600081526020016000815260200160001515815260200184600181111561027457634e487b7160e01b600052602160045260246000fd5b600181111561029357634e487b7160e01b600052602160045260246000fd5b8152600060209091015290506102ab87878784610365565b979650505050505050565b600080826102c487876104ef565b6102ce9190610a04565b905060006102dc8886610502565b90506102e782610534565b811215806100fe575060208801511580156100fe5750509551159695505050505050565b6000808461031887610534565b6103229190610a23565b61032c9086610a23565b905060006103438261033e8787610584565b610620565b905060008112156103595760009250505061035d565b9150505b949350505050565b600081606001518314806103ab57508160600151831080156103ab5750600182610120015160018111156103a957634e487b7160e01b600052602160045260246000fd5b145b806103e857508160600151831180156103e85750600082610120015160018111156103e657634e487b7160e01b600052602160045260246000fd5b145b156103f55750600061035d565b600061040184876104ef565b905060006104138460600151886104ef565b905060008085606001518710801561044f57506000866101200151600181111561044d57634e487b7160e01b600052602160045260246000fd5b145b156104655761045e8484610a62565b91506104ae565b85606001518711801561049c57506001866101200151600181111561049a57634e487b7160e01b600052602160045260246000fd5b145b156104ae576104ab8385610a62565b91505b600082116104c357600094505050505061035d565b6104cd82846106b8565b9050878111156104e4576104e188846104ef565b91505b50925061035d915050565b60006104fb83836106cd565b9392505050565b60008061050e83610534565b905061051e846020015182610620565b845161052a91906109c5565b9150505b92915050565b60006001600160ff1b03821115610580576040517f08c379a000000000000000000000000000000000000000000000000000000000815260040161057790610985565b60405180910390fd5b5090565b6000600160ff1b831361059657600080fd5b600160ff1b82136105a657600080fd5b600080600085126105b757846105bc565b846000035b9150600084126105cc57836105d1565b836000035b905060006105e883670de0b6b3a764000084610792565b90506001600160ff1b038111156105fe57600080fd5b60001980871390861380821860011461061757826100fe565b6100fe83610a79565b6000600160ff1b831361063257600080fd5b600160ff1b821361064257600080fd5b600080600085126106535784610658565b846000035b915060008412610668578361066d565b836000035b9050600061067b83836106cd565b90506001600160ff1b0381111561069157600080fd5b6000198087139086138082186001146106aa57826100fe565b505060000395945050505050565b60006104fb83670de0b6b3a764000084610792565b60008080600019848609848602925082811083820303915050600080670de0b6b3a76400008688099150506706f05b59d3b1ffff8111826107205780670de0b6b3a764000085040194505050505061052e565b82670de0b6b3a76400001161073457600080fd5b6204000082850304939091119091037d40000000000000000000000000000000000000000000000000000000000002919091177faccb18165bd6fe31ae1cf318dc5b51eee0e1ba569b88cd74c1773b91fac106690201905092915050565b60008080600019858709868602925082811090839003039050806107c857600084116107bd57600080fd5b5082900490506104fb565b8084116107d457600080fd5b600084868809600260036001881981018916988990049182028318808302840302808302840302808302840302808302840302808302840302918202909203026000889003889004909101858311909403939093029303949094049190911702949350505050565b600080600060608486031215610850578283fd5b505081359360208301359350604090920135919050565b6000806000806080858703121561087c578081fd5b505082516020840151604085015160609095015191969095509092509050565b60008060008060008060c087890312156108b4578182fd5b505084359660208601359650604086013595606081013595506080810135945060a0013592509050565b600080600080608085870312156108f3578384fd5b5050823594602084013594506040840135936060013592509050565b600080600080600060a08688031215610926578081fd5b505083359560208501359550604085013594606081013594506080013592509050565b901515815260200190565b9283526020830191909152604082015260600190565b93845260208401929092526040830152606082015260800190565b60208082526010908201527f75696e74323536206f766572666c6f7700000000000000000000000000000000604082015260600190565b90815260200190565b6000808212826001600160ff1b03038413811516156109e6576109e6610a93565b82600160ff1b0384128116156109fe576109fe610a93565b50500190565b6000816000190483118215151615610a1e57610a1e610a93565b500290565b600080831283600160ff1b01831281151615610a4157610a41610a93565b836001600160ff1b03018313811615610a5c57610a5c610a93565b50500390565b600082821015610a7457610a74610a93565b500390565b6000600160ff1b821415610a8f57610a8f610a93565b0390565b634e487b7160e01b600052601160045260246000fdfea26469706673582212200b3be8907afe574481096034721e3aa371a269b12c79a867c008d24a1c75395564736f6c63430008000033",
  "linkReferences": {
    "contracts/lib/LibLiquidation.sol": {
      "LibLiquidation": [
        {
          "length": 20,
          "start": 332
        }
      ]
    }
  },
  "deployedLinkReferences": {
    "contracts/lib/LibLiquidation.sol": {
      "LibLiquidation": [
        {
          "length": 20,
          "start": 274
        }
      ]
    }
  }
}