{
  "_format": "hh-sol-artifact-1",
  "contractName": "GovDev",
  "sourceName": "contracts/facets/GovDev.sol",
  "abi": [
    {
      "inputs": [],
      "name": "getGovDev",
      "outputs": [
        {
          "internalType": "address",
          "name": "",
          "type": "address"
        }
      ],
      "stateMutability": "view",
      "type": "function"
    },
    {
      "inputs": [
        {
          "internalType": "address",
          "name": "_govDev",
          "type": "address"
        }
      ],
      "name": "transferGovDev",
      "outputs": [],
      "stateMutability": "nonpayable",
      "type": "function"
    },
    {
      "inputs": [
        {
          "components": [
            {
              "internalType": "address",
              "name": "facetAddress",
              "type": "address"
            },
            {
              "internalType": "enum IDiamondCut.FacetCutAction",
              "name": "action",
              "type": "uint8"
            },
            {
              "internalType": "bytes4[]",
              "name": "functionSelectors",
              "type": "bytes4[]"
            }
          ],
          "internalType": "struct IDiamondCut.FacetCut[]",
          "name": "_diamondCut",
          "type": "tuple[]"
        },
        {
          "internalType": "address",
          "name": "_init",
          "type": "address"
        },
        {
          "internalType": "bytes",
          "name": "_calldata",
          "type": "bytes"
        }
      ],
      "name": "updateSolution",
      "outputs": [],
      "stateMutability": "nonpayable",
      "type": "function"
    }
  ],
  "bytecode": "0x608060405234801561001057600080fd5b5061123f806100206000396000f3fe608060405234801561001057600080fd5b50600436106100415760003560e01c80637a1452031461004657806386d559a11461005b578063a96c09dc1461006e575b600080fd5b610059610054366004610a41565b61008c565b005b610059610069366004610a62565b610112565b61007661015a565b6040516100839190610be5565b60405180910390f35b610094610169565b6001600160a01b0316336001600160a01b0316146100cd5760405162461bcd60e51b81526004016100c490610e60565b60405180910390fd5b6100d5610169565b6001600160a01b0316816001600160a01b031614156101065760405162461bcd60e51b81526004016100c490610e3e565b61010f81610185565b50565b61011a610169565b6001600160a01b0316336001600160a01b03161461014a5760405162461bcd60e51b81526004016100c490610e60565b6101558383836101e5565b505050565b6000610164610169565b905090565b6000610173610319565b600401546001600160a01b0316919050565b600061018f610319565b6004810180546001600160a01b038581166001600160a01b031983168117909355604051939450169182907f8be0079c531659141344cd1fd0a4f28419497f9722a3daafe3b4186f6b6457e090600090a3505050565b60006101ef610319565b600281015490915061ffff8116908190600090600716156102225750600381901c60009081526001840160205260409020545b60005b875181101561028d5761028083838a848151811061023f57fe5b6020026020010151600001518b858151811061025757fe5b6020026020010151602001518c868151811061026f57fe5b60200260200101516040015161033d565b9093509150600101610225565b508282146102a95760028401805461ffff191661ffff84161790555b60078216156102cb57600382901c600090815260018501602052604090208190555b7f8faa70878671ccd212d20771b795c50af8fd3ff6cf27f4bde57e5d4de0aeb6738787876040516102fe93929190610bf9565b60405180910390a161031086866107f4565b50505050505050565b7fc8fcad8db84d3cc18b4c41d551ea0ee66dd599cde068d998e57d5e09332c131c90565b600080600061034a610319565b9050600084511161036d5760405162461bcd60e51b81526004016100c490610d96565b600085600281111561037b57fe5b1415610481576103a3866040518060600160405280602481526020016111966024913961091e565b60005b845181101561047b5760008582815181106103bd57fe5b6020908102919091018101516001600160e01b03198116600090815291859052604090912054909150606081901c156104085760405162461bcd60e51b81526004016100c490610f73565b6001600160e01b031980831660008181526020879052604090206001600160601b031960608d901b168e17905560e060058e901b811692831c199c909c1690821c179a81141561046c5760038c901c600090815260018601602052604081209b909b555b505050600198890198016103a6565b506107e8565b600185600281111561048f57fe5b14156105bd576104b7866040518060600160405280602881526020016111e26028913961091e565b60005b845181101561047b5760008582815181106104d157fe5b6020908102919091018101516001600160e01b03198116600090815291859052604090912054909150606081901c3081141561051f5760405162461bcd60e51b81526004016100c49061107b565b896001600160a01b0316816001600160a01b031614156105515760405162461bcd60e51b81526004016100c490610fc8565b6001600160a01b0381166105775760405162461bcd60e51b81526004016100c4906110ca565b506001600160e01b031990911660009081526020849052604090206bffffffffffffffffffffffff919091166001600160601b031960608a901b161790556001016104ba565b60028560028111156105cb57fe5b14156107d0576001600160a01b038616156105f85760405162461bcd60e51b81526004016100c490611025565b600388901c6007891660005b86518110156107c257816106355760001990920160008181526001850160205260409020549950916007915061063d565b600019909101905b6000806000808a858151811061064f57fe5b6020908102919091018101516001600160e01b031981166000908152918a9052604090912054909150606081901c6106995760405162461bcd60e51b81526004016100c490610de1565b606081901c3014156106bd5760405162461bcd60e51b81526004016100c490610f25565b600587901b8f901b94506001600160e01b031980861690831614610713576001600160e01b03198516600090815260208a90526040902080546001600160601b0319166bffffffffffffffffffffffff83161790555b6001600160e01b031991909116600090815260208990526040812055600381901c611fff16925060051b60e0169050858214610778576000828152600188016020526040902080546001600160e01b031980841c19909116908516831c17905561079c565b80836001600160e01b031916901c816001600160e01b031960001b901c198e16179c505b846107b757600086815260018801602052604081208190559c505b505050600101610604565b5060089091020197506107e8565b60405162461bcd60e51b81526004016100c490610e81565b50959694955050505050565b6001600160a01b038216610826578051156108215760405162461bcd60e51b81526004016100c490610cf3565b61091a565b60008151116108475760405162461bcd60e51b81526004016100c490610ec8565b6001600160a01b038216301461087957610879826040518060600160405280602881526020016111ba6028913961091e565b600080836001600160a01b0316836040516108949190610bc9565b600060405180830381855af49150503d80600081146108cf576040519150601f19603f3d011682016040523d82523d6000602084013e6108d4565b606091505b509150915081610917578051156108ff578060405162461bcd60e51b81526004016100c49190610ce0565b60405162461bcd60e51b81526004016100c490610d50565b50505b5050565b813b81816109175760405162461bcd60e51b81526004016100c49190610ce0565b80356001600160a01b038116811461095657600080fd5b919050565b600082601f83011261096b578081fd5b8135602061098061097b8361114b565b611127565b828152818101908583018385028701840188101561099c578586fd5b855b858110156109cf5781356001600160e01b0319811681146109bd578788fd5b8452928401929084019060010161099e565b5090979650505050505050565b600082601f8301126109ec578081fd5b813567ffffffffffffffff811115610a0057fe5b610a13601f8201601f1916602001611127565b818152846020838601011115610a27578283fd5b816020850160208301379081016020019190915292915050565b600060208284031215610a52578081fd5b610a5b8261093f565b9392505050565b600080600060608486031215610a76578182fd5b67ffffffffffffffff8085351115610a8c578283fd5b8435850186601f820112610a9e578384fd5b8035610aac61097b8261114b565b818152602080820191908401875b84811015610b5157813586016060818e03601f19011215610ad957898afd5b604051606081018181108a82111715610aee57fe5b604052610afd6020830161093f565b8152604082013560038110610b10578b8cfd5b6020820152606082013589811115610b26578b8cfd5b610b358f60208386010161095b565b6040830152508552506020938401939190910190600101610aba565b505080975050505050610b666020860161093f565b9250604085013581811115610b79578283fd5b610b85878288016109dc565b925050509250925092565b6001600160a01b03169052565b60008151808452610bb5816020860160208601611169565b601f01601f19169290920160200192915050565b60008251610bdb818460208701611169565b9190910192915050565b6001600160a01b0391909116815260200190565b606080825284518282018190526000919060809081850190602080820287018401818b01875b84811015610cb157898303607f19018652815180516001600160a01b03168452848101518985019060038110610c5157fe5b858701526040918201519185018a9052815190819052908501908a90898601905b80831015610c9c5783516001600160e01b0319168252928701926001929092019190870190610c72565b50978601979450505090830190600101610c1f565b5050610cbf8289018b610b90565b8781036040890152610cd1818a610b9d565b9b9a5050505050505050505050565b600060208252610a5b6020830184610b9d565b6020808252603c908201527f4c69624469616d6f6e644375743a205f696e697420697320616464726573732860408201527f3029206275745f63616c6c64617461206973206e6f7420656d70747900000000606082015260800190565b60208082526026908201527f4c69624469616d6f6e644375743a205f696e69742066756e6374696f6e2072656040820152651d995c9d195960d21b606082015260800190565b6020808252602b908201527f4c69624469616d6f6e644375743a204e6f2073656c6563746f727320696e206660408201526a1858d95d081d1bc818dd5d60aa1b606082015260800190565b60208082526037908201527f4c69624469616d6f6e644375743a2043616e27742072656d6f76652066756e6360408201527f74696f6e207468617420646f65736e2774206578697374000000000000000000606082015260800190565b60208082526008908201526729a0a6a2afa222ab60c11b604082015260600190565b6020808252600790820152662727aa2fa222ab60c91b604082015260600190565b60208082526027908201527f4c69624469616d6f6e644375743a20496e636f727265637420466163657443756040820152663a20b1ba34b7b760c91b606082015260800190565b6020808252603d908201527f4c69624469616d6f6e644375743a205f63616c6c6461746120697320656d707460408201527f7920627574205f696e6974206973206e6f742061646472657373283029000000606082015260800190565b6020808252602e908201527f4c69624469616d6f6e644375743a2043616e27742072656d6f766520696d6d7560408201526d3a30b1363290333ab731ba34b7b760911b606082015260800190565b60208082526035908201527f4c69624469616d6f6e644375743a2043616e2774206164642066756e6374696f6040820152746e207468617420616c72656164792065786973747360581b606082015260800190565b60208082526038908201527f4c69624469616d6f6e644375743a2043616e2774207265706c6163652066756e60408201527f6374696f6e20776974682073616d652066756e6374696f6e0000000000000000606082015260800190565b60208082526036908201527f4c69624469616d6f6e644375743a2052656d6f76652066616365742061646472604082015275657373206d757374206265206164647265737328302960501b606082015260800190565b6020808252602f908201527f4c69624469616d6f6e644375743a2043616e2774207265706c61636520696d6d60408201526e3aba30b1363290333ab731ba34b7b760891b606082015260800190565b60208082526038908201527f4c69624469616d6f6e644375743a2043616e2774207265706c6163652066756e60408201527f6374696f6e207468617420646f65736e27742065786973740000000000000000606082015260800190565b60405181810167ffffffffffffffff8111828210171561114357fe5b604052919050565b600067ffffffffffffffff82111561115f57fe5b5060209081020190565b60005b8381101561118457818101518382015260200161116c565b83811115610917575050600091015256fe4c69624469616d6f6e644375743a2041646420666163657420686173206e6f20636f64654c69624469616d6f6e644375743a205f696e6974206164647265737320686173206e6f20636f64654c69624469616d6f6e644375743a205265706c61636520666163657420686173206e6f20636f6465a264697066735822122055af11e19a0b180d79d569e736cd0a1db90f23a0fb57a65a936ed9886599729064736f6c63430007060033",
  "linkReferences": {},
  "deployedLinkReferences": {}
}