{
  "_format": "hh-sol-artifact-1",
  "contractName": "DrawDispatcher",
  "sourceName": "contracts/DrawDispatcher.sol",
  "abi": [
    {
      "inputs": [
        {
          "internalType": "contract IDrawBuffer",
          "name": "_drawBuffer",
          "type": "address"
        }
      ],
      "stateMutability": "nonpayable",
      "type": "constructor"
    },
    {
      "anonymous": false,
      "inputs": [
        {
          "indexed": true,
          "internalType": "contract ISingleMessageDispatcher",
          "name": "dispatcher",
          "type": "address"
        },
        {
          "indexed": true,
          "internalType": "uint256",
          "name": "toChainId",
          "type": "uint256"
        },
        {
          "indexed": true,
          "internalType": "address",
          "name": "drawExecutor",
          "type": "address"
        },
        {
          "components": [
            {
              "internalType": "uint256",
              "name": "winningRandomNumber",
              "type": "uint256"
            },
            {
              "internalType": "uint32",
              "name": "drawId",
              "type": "uint32"
            },
            {
              "internalType": "uint64",
              "name": "timestamp",
              "type": "uint64"
            },
            {
              "internalType": "uint64",
              "name": "beaconPeriodStartedAt",
              "type": "uint64"
            },
            {
              "internalType": "uint32",
              "name": "beaconPeriodSeconds",
              "type": "uint32"
            }
          ],
          "indexed": false,
          "internalType": "struct IDrawBeacon.Draw",
          "name": "draw",
          "type": "tuple"
        }
      ],
      "name": "DrawDispatched",
      "type": "event"
    },
    {
      "anonymous": false,
      "inputs": [
        {
          "indexed": true,
          "internalType": "contract ISingleMessageDispatcher",
          "name": "dispatcher",
          "type": "address"
        },
        {
          "indexed": true,
          "internalType": "uint256",
          "name": "toChainId",
          "type": "uint256"
        },
        {
          "indexed": true,
          "internalType": "address",
          "name": "drawExecutor",
          "type": "address"
        },
        {
          "components": [
            {
              "internalType": "uint256",
              "name": "winningRandomNumber",
              "type": "uint256"
            },
            {
              "internalType": "uint32",
              "name": "drawId",
              "type": "uint32"
            },
            {
              "internalType": "uint64",
              "name": "timestamp",
              "type": "uint64"
            },
            {
              "internalType": "uint64",
              "name": "beaconPeriodStartedAt",
              "type": "uint64"
            },
            {
              "internalType": "uint32",
              "name": "beaconPeriodSeconds",
              "type": "uint32"
            }
          ],
          "indexed": false,
          "internalType": "struct IDrawBeacon.Draw[]",
          "name": "draws",
          "type": "tuple[]"
        }
      ],
      "name": "DrawsDispatched",
      "type": "event"
    },
    {
      "inputs": [
        {
          "internalType": "contract ISingleMessageDispatcher",
          "name": "_dispatcher",
          "type": "address"
        },
        {
          "internalType": "uint256",
          "name": "_toChainId",
          "type": "uint256"
        },
        {
          "internalType": "address",
          "name": "_drawExecutor",
          "type": "address"
        },
        {
          "internalType": "uint32",
          "name": "_drawId",
          "type": "uint32"
        }
      ],
      "name": "dispatchDraw",
      "outputs": [],
      "stateMutability": "nonpayable",
      "type": "function"
    },
    {
      "inputs": [
        {
          "internalType": "contract ISingleMessageDispatcher",
          "name": "_dispatcher",
          "type": "address"
        },
        {
          "internalType": "uint256",
          "name": "_toChainId",
          "type": "uint256"
        },
        {
          "internalType": "address",
          "name": "_drawExecutor",
          "type": "address"
        },
        {
          "internalType": "uint32[]",
          "name": "_drawIds",
          "type": "uint32[]"
        }
      ],
      "name": "dispatchDraws",
      "outputs": [],
      "stateMutability": "nonpayable",
      "type": "function"
    },
    {
      "inputs": [
        {
          "internalType": "contract ISingleMessageDispatcher",
          "name": "_dispatcher",
          "type": "address"
        },
        {
          "internalType": "uint256",
          "name": "_toChainId",
          "type": "uint256"
        },
        {
          "internalType": "address",
          "name": "_drawExecutor",
          "type": "address"
        }
      ],
      "name": "dispatchNewestDraw",
      "outputs": [],
      "stateMutability": "nonpayable",
      "type": "function"
    },
    {
      "inputs": [],
      "name": "drawBuffer",
      "outputs": [
        {
          "internalType": "contract IDrawBuffer",
          "name": "",
          "type": "address"
        }
      ],
      "stateMutability": "view",
      "type": "function"
    }
  ],
  "bytecode": "0x60a060405234801561001057600080fd5b50604051610c78380380610c7883398101604081905261002f9161009e565b6001600160a01b0381166100895760405162461bcd60e51b815260206004820152601e60248201527f44442f647261774275666665722d6e6f742d7a65726f2d616464726573730000604482015260640160405180910390fd5b60601b6001600160601b0319166080526100ce565b6000602082840312156100b057600080fd5b81516001600160a01b03811681146100c757600080fd5b9392505050565b60805160601c610b796100ff6000396000818160910152818160d30152818161020801526102d20152610b796000f3fe608060405234801561001057600080fd5b506004361061004c5760003560e01c806336ffe7a2146100515780634abbf2281461006657806386f1464714610079578063ce343bb61461008c575b600080fd5b61006461005f3660046107b5565b6100cf565b005b610064610074366004610899565b610176565b6100646100873660046107f7565b61029f565b6100b37f000000000000000000000000000000000000000000000000000000000000000081565b6040516001600160a01b03909116815260200160405180910390f35b60007f00000000000000000000000000000000000000000000000000000000000000006001600160a01b0316630edb1d2e6040518163ffffffff1660e01b815260040160a06040518083038186803b15801561012a57600080fd5b505afa15801561013e573d6000803e3d6000fd5b505050506040513d601f19601f8201168201806040525081019061016291906108ec565b905061017084848484610427565b50505050565b60008163ffffffff16116101d15760405162461bcd60e51b815260206004820152601160248201527f44442f6472617749642d67742d7a65726f00000000000000000000000000000060448201526064015b60405180910390fd5b6040517f83c34aaf00000000000000000000000000000000000000000000000000000000815263ffffffff821660048201526000907f00000000000000000000000000000000000000000000000000000000000000006001600160a01b0316906383c34aaf9060240160a06040518083038186803b15801561025257600080fd5b505afa158015610266573d6000803e3d6000fd5b505050506040513d601f19601f8201168201806040525081019061028a91906108ec565b905061029885858584610427565b5050505050565b6040517fd0bb78f30000000000000000000000000000000000000000000000000000000081526000906001600160a01b037f0000000000000000000000000000000000000000000000000000000000000000169063d0bb78f39061030990869086906004016109a5565b60006040518083038186803b15801561032157600080fd5b505afa158015610335573d6000803e3d6000fd5b505050506040513d6000823e601f3d908101601f1916820160405261035d91908101906106e2565b90506103d386868684604051602401610376919061090f565b60408051601f198184030181529190526020810180517bffffffffffffffffffffffffffffffffffffffffffffffffffffffff167f555dd560000000000000000000000000000000000000000000000000000000001790526104ed565b836001600160a01b031685876001600160a01b03167feca46acce8a2e776243c8866a9ccbe11b6dc03ad1cf1f802f36714d3260124e284604051610417919061090f565b60405180910390a4505050505050565b61049b8484848460405160240161043e91906109f0565b60408051601f198184030181529190526020810180517bffffffffffffffffffffffffffffffffffffffffffffffffffffffff167f089eb925000000000000000000000000000000000000000000000000000000001790526104ed565b816001600160a01b031683856001600160a01b03167f22e618b95c54407a3ebf356907db11abbdd414b92f49f8da996020d19c2f0010846040516104df91906109f0565b60405180910390a450505050565b6001600160a01b0384166105435760405162461bcd60e51b815260206004820152601e60248201527f44442f646973706174636865722d6e6f742d7a65726f2d61646472657373000060448201526064016101c8565b6001600160a01b0382166105995760405162461bcd60e51b815260206004820181905260248201527f44442f647261774578656375746f722d6e6f742d7a65726f2d6164647265737360448201526064016101c8565b6040517ffe39827b0000000000000000000000000000000000000000000000000000000081526001600160a01b0385169063fe39827b906105e290869086908690600401610a4c565b602060405180830381600087803b1580156105fc57600080fd5b505af1158015610610573d6000803e3d6000fd5b505050506040513d601f19601f82011682018060405250810190610298919061079c565b600060a0828403121561064657600080fd5b60405160a0810181811067ffffffffffffffff8211171561066957610669610aea565b806040525080915082518152602083015161068381610b31565b6020820152610694604084016106c5565b60408201526106a5606084016106c5565b606082015260808301516106b881610b31565b6080919091015292915050565b805167ffffffffffffffff811681146106dd57600080fd5b919050565b600060208083850312156106f557600080fd5b825167ffffffffffffffff8082111561070d57600080fd5b818501915085601f83011261072157600080fd5b81518181111561073357610733610aea565b610741848260051b01610ab9565b818152848101925083850160a0808402860187018a101561076157600080fd5b600095505b8386101561078e576107788a83610634565b8552600195909501949386019390810190610766565b509098975050505050505050565b6000602082840312156107ae57600080fd5b5051919050565b6000806000606084860312156107ca57600080fd5b83356107d581610b19565b92506020840135915060408401356107ec81610b19565b809150509250925092565b60008060008060006080868803121561080f57600080fd5b853561081a81610b19565b945060208601359350604086013561083181610b19565b9250606086013567ffffffffffffffff8082111561084e57600080fd5b818801915088601f83011261086257600080fd5b81358181111561087157600080fd5b8960208260051b850101111561088657600080fd5b9699959850939650602001949392505050565b600080600080608085870312156108af57600080fd5b84356108ba81610b19565b93506020850135925060408501356108d181610b19565b915060608501356108e181610b31565b939692955090935050565b600060a082840312156108fe57600080fd5b6109088383610634565b9392505050565b6020808252825182820181905260009190848201906040850190845b818110156109995761098683855180518252602081015163ffffffff80821660208501526040830151915067ffffffffffffffff80831660408601528060608501511660608601525080608084015116608085015250505050565b9284019260a0929092019160010161092b565b50909695505050505050565b60208082528181018390526000908460408401835b868110156109e55782356109cd81610b31565b63ffffffff16825291830191908301906001016109ba565b509695505050505050565b60a08101610a46828480518252602081015163ffffffff80821660208501526040830151915067ffffffffffffffff80831660408601528060608501511660608601525080608084015116608085015250505050565b92915050565b838152600060206001600160a01b0385168184015260606040840152835180606085015260005b81811015610a8f57858101830151858201608001528201610a73565b81811115610aa1576000608083870101525b50601f01601f19169290920160800195945050505050565b604051601f8201601f1916810167ffffffffffffffff81118282101715610ae257610ae2610aea565b604052919050565b7f4e487b7100000000000000000000000000000000000000000000000000000000600052604160045260246000fd5b6001600160a01b0381168114610b2e57600080fd5b50565b63ffffffff81168114610b2e57600080fdfea26469706673582212202dd802b5777961f6329bf5e6467410460ab5d77209fe687ef62698dd184933f064736f6c63430008060033",
  "linkReferences": {},
  "deployedLinkReferences": {}
}