{
  "_format": "hh-sol-artifact-1",
  "contractName": "TopUpKeeperHelper",
  "sourceName": "contracts/actions/topup/TopUpKeeperHelper.sol",
  "abi": [
    {
      "inputs": [
        {
          "internalType": "address",
          "name": "topupAction_",
          "type": "address"
        }
      ],
      "stateMutability": "nonpayable",
      "type": "constructor"
    },
    {
      "inputs": [
        {
          "components": [
            {
              "internalType": "address",
              "name": "payer",
              "type": "address"
            },
            {
              "internalType": "bytes32",
              "name": "account",
              "type": "bytes32"
            },
            {
              "internalType": "bytes32",
              "name": "protocol",
              "type": "bytes32"
            }
          ],
          "internalType": "struct ITopUpAction.RecordKey[]",
          "name": "keys",
          "type": "tuple[]"
        }
      ],
      "name": "batchCanExecute",
      "outputs": [
        {
          "internalType": "bool[]",
          "name": "",
          "type": "bool[]"
        }
      ],
      "stateMutability": "view",
      "type": "function"
    },
    {
      "inputs": [
        {
          "components": [
            {
              "internalType": "address",
              "name": "payer",
              "type": "address"
            },
            {
              "internalType": "bytes32",
              "name": "account",
              "type": "bytes32"
            },
            {
              "internalType": "bytes32",
              "name": "protocol",
              "type": "bytes32"
            }
          ],
          "internalType": "struct ITopUpAction.RecordKey",
          "name": "key",
          "type": "tuple"
        }
      ],
      "name": "canExecute",
      "outputs": [
        {
          "internalType": "bool",
          "name": "",
          "type": "bool"
        }
      ],
      "stateMutability": "view",
      "type": "function"
    },
    {
      "inputs": [
        {
          "internalType": "uint256",
          "name": "cursor",
          "type": "uint256"
        },
        {
          "internalType": "uint256",
          "name": "howMany",
          "type": "uint256"
        }
      ],
      "name": "getExecutableTopups",
      "outputs": [
        {
          "components": [
            {
              "internalType": "address",
              "name": "payer",
              "type": "address"
            },
            {
              "internalType": "bytes32",
              "name": "account",
              "type": "bytes32"
            },
            {
              "internalType": "bytes32",
              "name": "protocol",
              "type": "bytes32"
            },
            {
              "components": [
                {
                  "internalType": "uint64",
                  "name": "threshold",
                  "type": "uint64"
                },
                {
                  "internalType": "uint64",
                  "name": "priorityFee",
                  "type": "uint64"
                },
                {
                  "internalType": "uint64",
                  "name": "maxFee",
                  "type": "uint64"
                },
                {
                  "internalType": "address",
                  "name": "actionToken",
                  "type": "address"
                },
                {
                  "internalType": "address",
                  "name": "depositToken",
                  "type": "address"
                },
                {
                  "internalType": "uint128",
                  "name": "singleTopUpAmount",
                  "type": "uint128"
                },
                {
                  "internalType": "uint128",
                  "name": "totalTopUpAmount",
                  "type": "uint128"
                },
                {
                  "internalType": "uint128",
                  "name": "depositTokenBalance",
                  "type": "uint128"
                },
                {
                  "internalType": "bytes",
                  "name": "extra",
                  "type": "bytes"
                }
              ],
              "internalType": "struct ITopUpAction.Record",
              "name": "record",
              "type": "tuple"
            }
          ],
          "internalType": "struct ITopUpKeeperHelper.TopupData[]",
          "name": "topups",
          "type": "tuple[]"
        },
        {
          "internalType": "uint256",
          "name": "nextCursor",
          "type": "uint256"
        }
      ],
      "stateMutability": "view",
      "type": "function"
    },
    {
      "inputs": [
        {
          "internalType": "address",
          "name": "payer",
          "type": "address"
        }
      ],
      "name": "listPositions",
      "outputs": [
        {
          "components": [
            {
              "internalType": "bytes32",
              "name": "account",
              "type": "bytes32"
            },
            {
              "internalType": "bytes32",
              "name": "protocol",
              "type": "bytes32"
            },
            {
              "components": [
                {
                  "internalType": "uint64",
                  "name": "threshold",
                  "type": "uint64"
                },
                {
                  "internalType": "uint64",
                  "name": "priorityFee",
                  "type": "uint64"
                },
                {
                  "internalType": "uint64",
                  "name": "maxFee",
                  "type": "uint64"
                },
                {
                  "internalType": "address",
                  "name": "actionToken",
                  "type": "address"
                },
                {
                  "internalType": "address",
                  "name": "depositToken",
                  "type": "address"
                },
                {
                  "internalType": "uint128",
                  "name": "singleTopUpAmount",
                  "type": "uint128"
                },
                {
                  "internalType": "uint128",
                  "name": "totalTopUpAmount",
                  "type": "uint128"
                },
                {
                  "internalType": "uint128",
                  "name": "depositTokenBalance",
                  "type": "uint128"
                },
                {
                  "internalType": "bytes",
                  "name": "extra",
                  "type": "bytes"
                }
              ],
              "internalType": "struct ITopUpAction.Record",
              "name": "record",
              "type": "tuple"
            }
          ],
          "internalType": "struct ITopUpAction.RecordWithMeta[]",
          "name": "",
          "type": "tuple[]"
        }
      ],
      "stateMutability": "view",
      "type": "function"
    }
  ],
  "bytecode": "0x60a060405234801561001057600080fd5b5060405161132f38038061132f83398101604081905261002f91610040565b6001600160a01b0316608052610070565b60006020828403121561005257600080fd5b81516001600160a01b038116811461006957600080fd5b9392505050565b6080516112886100a7600039600081816101030152818161025e015281816103b10152818161069e015261075501526112886000f3fe608060405234801561001057600080fd5b506004361061004c5760003560e01c806312a07db014610051578063b1ac7d391461007a578063b6494fda1461009b578063c8b2ca6b146100bb575b600080fd5b61006461005f366004610a2b565b6100de565b6040516100719190610b95565b60405180910390f35b61008d610088366004610c14565b610335565b604051610071929190610c36565b6100ae6100a9366004610ccf565b6105a2565b6040516100719190610d43565b6100ce6100c9366004610e1a565b610661565b6040519015158152602001610071565b604051632a6bc2dd60e01b81526001600160a01b0382811660048301526060916000917f00000000000000000000000000000000000000000000000000000000000000001690632a6bc2dd9060240160006040518083038186803b15801561014557600080fd5b505afa158015610159573d6000803e3d6000fd5b505050506040513d6000823e601f3d908101601f191682016040526101819190810190610e9e565b80519091506000816001600160401b038111156101a0576101a0610d89565b6040519080825280602002602001820160405280156101d957816020015b6101c661093c565b8152602001906001900390816101be5790505b50905060005b8281101561032c5760008482815181106101fb576101fb610f58565b6020026020010151600001519050600085838151811061021d5761021d610f58565b60209081029190910181015101516040516359c442c760e01b81526001600160a01b038a8116600483015260248201859052604482018390529192506000917f000000000000000000000000000000000000000000000000000000000000000016906359c442c79060640160006040518083038186803b1580156102a057600080fd5b505afa1580156102b4573d6000803e3d6000fd5b505050506040513d6000823e601f3d908101601f191682016040526102dc9190810190611017565b905060405180606001604052808481526020018381526020018281525085858151811061030b5761030b610f58565b6020026020010181905250505050808061032490611126565b9150506101df565b50949350505050565b6060600080836001600160401b0381111561035257610352610d89565b60405190808252806020026020018201604052801561038b57816020015b6103786109a9565b8152602001906001900390816103705790505b50905060005b604051630c84ce0d60e41b815260048101879052602481018690526000907f00000000000000000000000000000000000000000000000000000000000000006001600160a01b03169063c84ce0d09060440160006040518083038186803b1580156103fb57600080fd5b505afa15801561040f573d6000803e3d6000fd5b505050506040513d6000823e601f3d908101601f191682016040526104379190810190611141565b50905080516000141561045c5761044e8383610815565b60009450945050505061059b565b60005b815181101561058857600082828151811061047c5761047c610f58565b602002602001015190506000610491826100de565b905060005b81518110156105725760008282815181106104b3576104b3610f58565b602002602001015190506104c784826108c2565b6104d15750610560565b6104db84826108ff565b8888815181106104ed576104ed610f58565b6020026020010181905250868061050390611126565b97505060006001845161051691906111e2565b8314610523576000610526565b60015b60ff1690508b88141561055d578881878f61054191906111f9565b61054b91906111f9565b9a509a5050505050505050505061059b565b50505b8061056a81611126565b915050610496565b505050808061058090611126565b91505061045f565b5061059386886111f9565b965050610391565b9250929050565b60606000826001600160401b038111156105be576105be610d89565b6040519080825280602002602001820160405280156105e7578160200160208202803683370190505b50905060005b83811015610659573685858381811061060857610608610f58565b9050606002019050610624818036038101906100c99190610e1a565b83838151811061063657610636610f58565b91151560209283029190910190910152508061065181611126565b9150506105ed565b509392505050565b8051602082015160408084015190516359c442c760e01b81526001600160a01b0393841660048201526024810192909252604482015260009182917f0000000000000000000000000000000000000000000000000000000000000000909116906359c442c79060640160006040518083038186803b1580156106e257600080fd5b505afa1580156106f6573d6000803e3d6000fd5b505050506040513d6000823e601f3d908101601f1916820160405261071e9190810190611017565b80519091506001600160401b03161580610743575060c08101516001600160801b0316155b156107515750600092915050565b60007f00000000000000000000000000000000000000000000000000000000000000006001600160a01b031663779b6620856040015186602001518561010001516040518463ffffffff1660e01b81526004016107b093929190611211565b60206040518083038186803b1580156107c857600080fd5b505afa1580156107dc573d6000803e3d6000fd5b505050506040513d601f19601f820116820180604052508101906108009190611239565b91516001600160401b03169091109392505050565b60606000826001600160401b0381111561083157610831610d89565b60405190808252806020026020018201604052801561086a57816020015b6108576109a9565b81526020019060019003908161084f5790505b50905060005b838110156106595784818151811061088a5761088a610f58565b60200260200101518282815181106108a4576108a4610f58565b602002602001018190525080806108ba90611126565b915050610870565b60006108f86040518060600160405280856001600160a01b03168152602001846000015181526020018460200151815250610661565b9392505050565b6109076109a9565b50604080516080810182526001600160a01b039390931683528151602080850191909152820151838201520151606082015290565b60408051606081018252600080825260208201529081016109a4604080516101208101825260008082526020820181905291810182905260608082018390526080820183905260a0820183905260c0820183905260e082019290925261010081019190915290565b905290565b604080516080808201835260008083526020808401829052838501829052845161012081018652828152908101829052938401819052606084810182905291840181905260a0840181905260c0840181905260e084015261010083018190529091908201906109a4565b6001600160a01b0381168114610a2857600080fd5b50565b600060208284031215610a3d57600080fd5b81356108f881610a13565b60005b83811015610a63578181015183820152602001610a4b565b83811115610a72576000848401525b50505050565b60008151808452610a90816020860160208601610a48565b601f01601f19169290920160200192915050565b60006101206001600160401b0383511684526020830151610ad060208601826001600160401b03169052565b506040830151610aeb60408601826001600160401b03169052565b506060830151610b0660608601826001600160a01b03169052565b506080830151610b2160808601826001600160a01b03169052565b5060a0830151610b3c60a08601826001600160801b03169052565b5060c0830151610b5760c08601826001600160801b03169052565b5060e0830151610b7260e08601826001600160801b03169052565b50610100808401518282870152610b8b83870182610a78565b9695505050505050565b60006020808301818452808551808352604092508286019150828160051b87010184880160005b83811015610c0657888303603f1901855281518051845287810151888501528601516060878501819052610bf281860183610aa4565b968901969450505090860190600101610bbc565b509098975050505050505050565b60008060408385031215610c2757600080fd5b50508035926020909101359150565b60006040808301818452808651808352606092508286019150828160051b8701016020808a0160005b84811015610cba57898403605f19018652815180516001600160a01b03168552838101518486015288810151898601528701516080888601819052610ca681870183610aa4565b978501979550505090820190600101610c5f565b50509690960196909652509295945050505050565b60008060208385031215610ce257600080fd5b82356001600160401b0380821115610cf957600080fd5b818501915085601f830112610d0d57600080fd5b813581811115610d1c57600080fd5b866020606083028501011115610d3157600080fd5b60209290920196919550909350505050565b6020808252825182820181905260009190848201906040850190845b81811015610d7d578351151583529284019291840191600101610d5f565b50909695505050505050565b634e487b7160e01b600052604160045260246000fd5b604080519081016001600160401b0381118282101715610dc157610dc1610d89565b60405290565b60405161012081016001600160401b0381118282101715610dc157610dc1610d89565b604051601f8201601f191681016001600160401b0381118282101715610e1257610e12610d89565b604052919050565b600060608284031215610e2c57600080fd5b604051606081018181106001600160401b0382111715610e4e57610e4e610d89565b6040528235610e5c81610a13565b8152602083810135908201526040928301359281019290925250919050565b60006001600160401b03821115610e9457610e94610d89565b5060051b60200190565b60006020808385031215610eb157600080fd5b82516001600160401b03811115610ec757600080fd5b8301601f81018513610ed857600080fd5b8051610eeb610ee682610e7b565b610dea565b81815260069190911b82018301908381019087831115610f0a57600080fd5b928401925b82841015610f4d5760408489031215610f285760008081fd5b610f30610d9f565b845181528585015186820152825260409093019290840190610f0f565b979650505050505050565b634e487b7160e01b600052603260045260246000fd5b80516001600160401b0381168114610f8557600080fd5b919050565b8051610f8581610a13565b80516001600160801b0381168114610f8557600080fd5b600082601f830112610fbd57600080fd5b81516001600160401b03811115610fd657610fd6610d89565b610fe9601f8201601f1916602001610dea565b818152846020838601011115610ffe57600080fd5b61100f826020830160208701610a48565b949350505050565b60006020828403121561102957600080fd5b81516001600160401b038082111561104057600080fd5b90830190610120828603121561105557600080fd5b61105d610dc7565b61106683610f6e565b815261107460208401610f6e565b602082015261108560408401610f6e565b604082015261109660608401610f8a565b60608201526110a760808401610f8a565b60808201526110b860a08401610f95565b60a08201526110c960c08401610f95565b60c08201526110da60e08401610f95565b60e082015261010080840151838111156110f357600080fd5b6110ff88828701610fac565b918301919091525095945050505050565b634e487b7160e01b600052601160045260246000fd5b600060001982141561113a5761113a611110565b5060010190565b6000806040838503121561115457600080fd5b82516001600160401b0381111561116a57600080fd5b8301601f8101851361117b57600080fd5b8051602061118b610ee683610e7b565b82815260059290921b830181019181810190888411156111aa57600080fd5b938201935b838510156111d15784516111c281610a13565b825293820193908201906111af565b969091015195979596505050505050565b6000828210156111f4576111f4611110565b500390565b6000821982111561120c5761120c611110565b500190565b8381528260208201526060604082015260006112306060830184610a78565b95945050505050565b60006020828403121561124b57600080fd5b505191905056fea2646970667358221220404cdade0355ad0a9cf63fbec8b16c21e34851b5c824dc2ae66b3d9b7797f15064736f6c63430008090033",
  "linkReferences": {},
  "deployedLinkReferences": {}
}