{
  "_format": "hh-sol-artifact-1",
  "contractName": "YVaultLPFarming",
  "sourceName": "contracts/farming/yVaultLPFarming.sol",
  "abi": [
    {
      "inputs": [
        {
          "internalType": "address",
          "name": "_vault",
          "type": "address"
        },
        {
          "internalType": "address",
          "name": "_jpeg",
          "type": "address"
        }
      ],
      "stateMutability": "nonpayable",
      "type": "constructor"
    },
    {
      "anonymous": false,
      "inputs": [
        {
          "indexed": true,
          "internalType": "address",
          "name": "user",
          "type": "address"
        },
        {
          "indexed": false,
          "internalType": "uint256",
          "name": "rewards",
          "type": "uint256"
        }
      ],
      "name": "Claim",
      "type": "event"
    },
    {
      "anonymous": false,
      "inputs": [
        {
          "indexed": true,
          "internalType": "address",
          "name": "user",
          "type": "address"
        },
        {
          "indexed": false,
          "internalType": "uint256",
          "name": "amount",
          "type": "uint256"
        }
      ],
      "name": "Deposit",
      "type": "event"
    },
    {
      "anonymous": false,
      "inputs": [
        {
          "indexed": true,
          "internalType": "address",
          "name": "previousOwner",
          "type": "address"
        },
        {
          "indexed": true,
          "internalType": "address",
          "name": "newOwner",
          "type": "address"
        }
      ],
      "name": "OwnershipTransferred",
      "type": "event"
    },
    {
      "anonymous": false,
      "inputs": [
        {
          "indexed": true,
          "internalType": "address",
          "name": "user",
          "type": "address"
        },
        {
          "indexed": false,
          "internalType": "uint256",
          "name": "amount",
          "type": "uint256"
        }
      ],
      "name": "Withdraw",
      "type": "event"
    },
    {
      "inputs": [
        {
          "internalType": "address",
          "name": "",
          "type": "address"
        }
      ],
      "name": "balanceOf",
      "outputs": [
        {
          "internalType": "uint256",
          "name": "",
          "type": "uint256"
        }
      ],
      "stateMutability": "view",
      "type": "function"
    },
    {
      "inputs": [],
      "name": "claim",
      "outputs": [],
      "stateMutability": "nonpayable",
      "type": "function"
    },
    {
      "inputs": [
        {
          "internalType": "uint256",
          "name": "_amount",
          "type": "uint256"
        }
      ],
      "name": "deposit",
      "outputs": [],
      "stateMutability": "nonpayable",
      "type": "function"
    },
    {
      "inputs": [],
      "name": "jpeg",
      "outputs": [
        {
          "internalType": "contract IERC20",
          "name": "",
          "type": "address"
        }
      ],
      "stateMutability": "view",
      "type": "function"
    },
    {
      "inputs": [],
      "name": "owner",
      "outputs": [
        {
          "internalType": "address",
          "name": "",
          "type": "address"
        }
      ],
      "stateMutability": "view",
      "type": "function"
    },
    {
      "inputs": [
        {
          "internalType": "address",
          "name": "_user",
          "type": "address"
        }
      ],
      "name": "pendingReward",
      "outputs": [
        {
          "internalType": "uint256",
          "name": "",
          "type": "uint256"
        }
      ],
      "stateMutability": "view",
      "type": "function"
    },
    {
      "inputs": [],
      "name": "renounceOwnership",
      "outputs": [],
      "stateMutability": "view",
      "type": "function"
    },
    {
      "inputs": [
        {
          "internalType": "address",
          "name": "_contract",
          "type": "address"
        },
        {
          "internalType": "bool",
          "name": "_isWhitelisted",
          "type": "bool"
        }
      ],
      "name": "setContractWhitelisted",
      "outputs": [],
      "stateMutability": "nonpayable",
      "type": "function"
    },
    {
      "inputs": [],
      "name": "totalStaked",
      "outputs": [
        {
          "internalType": "uint256",
          "name": "",
          "type": "uint256"
        }
      ],
      "stateMutability": "view",
      "type": "function"
    },
    {
      "inputs": [
        {
          "internalType": "address",
          "name": "newOwner",
          "type": "address"
        }
      ],
      "name": "transferOwnership",
      "outputs": [],
      "stateMutability": "nonpayable",
      "type": "function"
    },
    {
      "inputs": [],
      "name": "vault",
      "outputs": [
        {
          "internalType": "contract IYVault",
          "name": "",
          "type": "address"
        }
      ],
      "stateMutability": "view",
      "type": "function"
    },
    {
      "inputs": [
        {
          "internalType": "address",
          "name": "",
          "type": "address"
        }
      ],
      "name": "whitelistedContracts",
      "outputs": [
        {
          "internalType": "bool",
          "name": "",
          "type": "bool"
        }
      ],
      "stateMutability": "view",
      "type": "function"
    },
    {
      "inputs": [
        {
          "internalType": "uint256",
          "name": "_amount",
          "type": "uint256"
        }
      ],
      "name": "withdraw",
      "outputs": [],
      "stateMutability": "nonpayable",
      "type": "function"
    }
  ],
  "bytecode": "0x60c06040523480156200001157600080fd5b50604051620017e6380380620017e6833981016040819052620000349162000129565b6200004862000042620000c2565b620000c6565b6001600160a01b0382166200007a5760405162461bcd60e51b81526004016200007190620001bd565b60405180910390fd5b6001600160a01b038116620000a35760405162461bcd60e51b81526004016200007190620001cf565b6001600160601b0319606092831b8116608052911b1660a05262000216565b3390565b600080546001600160a01b038381166001600160a01b0319831681178455604051919092169283917f8be0079c531659141344cd1fd0a4f28419497f9722a3daafe3b4186f6b6457e09190a35050565b80516200012381620001fc565b92915050565b600080604083850312156200013d57600080fd5b60006200014b858562000116565b92505060206200015e8582860162000116565b9150509250929050565b600062000177600d83620001e1565b6c1253959053125117d590555315609a1b815260200192915050565b6000620001a2600c83620001e1565b6b494e56414c49445f4a50454760a01b815260200192915050565b60208082528101620001238162000168565b60208082528101620001238162000193565b90815260200190565b60006001600160a01b03821662000123565b6200020781620001ea565b81146200021357600080fd5b50565b60805160601c60a05160601c61157362000273600039600081816104a6015281816105b2015281816107b20152610b360152600081816103410152818161053301528181610719015281816109000152610bd201526115736000f3fe608060405234801561001057600080fd5b50600436106100df5760003560e01c8063817b1cd21161008c578063eb88d91a11610066578063eb88d91a14610195578063f2fde38b146101aa578063f40f0f52146101bd578063fbfa77cf146101d0576100df565b8063817b1cd2146101655780638da5cb5b1461016d578063b6b55f2514610182576100df565b80634e71d92d116100bd5780634e71d92d1461013557806370a082311461013d578063715018a61461015d576100df565b8063118f8169146100e45780632e1a7d4d146100f9578063391feebb1461010c575b600080fd5b6100f76100f2366004610eb6565b6101d8565b005b6100f7610107366004610f0e565b61024b565b61011f61011a366004610e98565b6103ad565b60405161012c91906112e4565b60405180910390f35b6100f76103c2565b61015061014b366004610e98565b610612565b60405161012c91906113b1565b6100f7610624565b61015061067b565b610175610681565b60405161012c9190611293565b6100f7610190366004610f0e565b610690565b61019d6107b0565b60405161012c91906112f2565b6100f76101b8366004610e98565b6107d4565b6101506101cb366004610e98565b610845565b61019d6108fe565b6101e0610922565b6001600160a01b03166101f1610681565b6001600160a01b0316146102205760405162461bcd60e51b815260040161021790611341565b60405180910390fd5b6001600160a01b03919091166000908152600860205260409020805460ff1916911515919091179055565b3361025581610926565b158061027957506001600160a01b03811660009081526008602052604090205460ff165b6102955760405162461bcd60e51b815260040161021790611371565b600082116102b55760405162461bcd60e51b815260040161021790611311565b336000908152600560205260409020548211156102e45760405162461bcd60e51b815260040161021790611351565b6102ec61092c565b6102f53361095b565b50336000908152600560205260408120805484929061031590849061145e565b92505081905550816001600082825461032e919061145e565b9091555061036890506001600160a01b037f0000000000000000000000000000000000000000000000000000000000000000163384610a1a565b336001600160a01b03167f884edad9ce6fa2440d8a54cc123490eb96d2768479d49ff9c7366125a9424364836040516103a191906113b1565b60405180910390a25050565b60086020526000908152604090205460ff1681565b336103cc81610926565b15806103f057506001600160a01b03811660009081526008602052604090205460ff165b61040c5760405162461bcd60e51b815260040161021790611371565b61041461092c565b61041d3361095b565b50336000908152600760205260409020548061044b5760405162461bcd60e51b8152600401610217906113a1565b3360009081526007602052604081208190556003805483929061046f90849061145e565b90915550506040517f70a0823100000000000000000000000000000000000000000000000000000000815281906001600160a01b037f000000000000000000000000000000000000000000000000000000000000000016906370a08231906104db903090600401611293565b60206040518083038186803b1580156104f357600080fd5b505afa158015610507573d6000803e3d6000fd5b505050506040513d601f19601f8201168201806040525081019061052b9190610f2c565b10156105a5577f00000000000000000000000000000000000000000000000000000000000000006001600160a01b0316639711c7156040518163ffffffff1660e01b8152600401600060405180830381600087803b15801561058c57600080fd5b505af11580156105a0573d6000803e3d6000fd5b505050505b6105d96001600160a01b037f0000000000000000000000000000000000000000000000000000000000000000163383610a1a565b336001600160a01b03167f47cee97cb7acd717b3c0aa1435d004cd5b3c8c57d70dbceb4e4458bbd60e39d4826040516103a191906113b1565b60056020526000908152604090205481565b61062c610922565b6001600160a01b031661063d610681565b6001600160a01b0316146106635760405162461bcd60e51b815260040161021790611341565b60405162461bcd60e51b815260040161021790611391565b60015481565b6000546001600160a01b031690565b3361069a81610926565b15806106be57506001600160a01b03811660009081526008602052604090205460ff165b6106da5760405162461bcd60e51b815260040161021790611371565b600082116106fa5760405162461bcd60e51b815260040161021790611311565b61070261092c565b61070b3361095b565b506107416001600160a01b037f000000000000000000000000000000000000000000000000000000000000000016333085610aa2565b33600090815260056020526040812080548492906107609084906113d1565b92505081905550816001600082825461077991906113d1565b909155505060405133907fe1fffcc4923d04b559f4d29a8bfc6cda04eb5b0d3c460751c2402c5c5cc9109c906103a19085906113b1565b7f000000000000000000000000000000000000000000000000000000000000000081565b6107dc610922565b6001600160a01b03166107ed610681565b6001600160a01b0316146108135760405162461bcd60e51b815260040161021790611341565b6001600160a01b0381166108395760405162461bcd60e51b815260040161021790611321565b61084281610ac9565b50565b6004546001546002546000929190431180156108615750600081115b156108725761086e610b31565b5091505b6001600160a01b0384166000908152600660205260409020546ec097ce7bc90715b34b9f1000000000906108a6908461145e565b6001600160a01b0386166000908152600560205260409020546108c99190611429565b6108d391906113ff565b6001600160a01b0385166000908152600760205260409020546108f691906113d1565b949350505050565b7f000000000000000000000000000000000000000000000000000000000000000081565b3390565b3b151590565b600254431161093a57610959565b4360025560015461094a57610959565b610952610b31565b6003556004555b565b6001600160a01b03811660009081526006602052604081205460045482916ec097ce7bc90715b34b9f100000000091610994919061145e565b6001600160a01b0385166000908152600560205260409020546109b79190611429565b6109c191906113ff565b905080156109f7576001600160a01b038316600090815260076020526040812080548392906109f19084906113d1565b90915550505b6004546001600160a01b0384166000908152600660205260409020559050919050565b610a9d8363a9059cbb60e01b8484604051602401610a399291906112c9565b60408051601f198184030181529190526020810180517bffffffffffffffffffffffffffffffffffffffffffffffffffffffff167fffffffff0000000000000000000000000000000000000000000000000000000090931692909217909152610cba565b505050565b610ac3846323b872dd60e01b858585604051602401610a39939291906112a1565b50505050565b600080546001600160a01b038381167fffffffffffffffffffffffff0000000000000000000000000000000000000000831681178455604051919092169283917f8be0079c531659141344cd1fd0a4f28419497f9722a3daafe3b4186f6b6457e09190a35050565b6000807f00000000000000000000000000000000000000000000000000000000000000006001600160a01b03166370a08231306040518263ffffffff1660e01b8152600401610b809190611293565b60206040518083038186803b158015610b9857600080fd5b505afa158015610bac573d6000803e3d6000fd5b505050506040513d601f19601f82011682018060405250810190610bd09190610f2c565b7f00000000000000000000000000000000000000000000000000000000000000006001600160a01b03166390406ef86040518163ffffffff1660e01b815260040160206040518083038186803b158015610c2957600080fd5b505afa158015610c3d573d6000803e3d6000fd5b505050506040513d601f19601f82011682018060405250810190610c619190610f2c565b610c6b91906113d1565b9050600060035482610c7d919061145e565b600154909150610c9c826ec097ce7bc90715b34b9f1000000000611429565b610ca691906113ff565b600454610cb391906113d1565b9250509091565b6000610d0f826040518060400160405280602081526020017f5361666545524332303a206c6f772d6c6576656c2063616c6c206661696c6564815250856001600160a01b0316610d499092919063ffffffff16565b805190915015610a9d5780806020019051810190610d2d9190610ef0565b610a9d5760405162461bcd60e51b815260040161021790611381565b6060610d588484600085610d62565b90505b9392505050565b606082471015610d845760405162461bcd60e51b815260040161021790611331565b610d8d85610926565b610da95760405162461bcd60e51b815260040161021790611361565b600080866001600160a01b03168587604051610dc59190611287565b60006040518083038185875af1925050503d8060008114610e02576040519150601f19603f3d011682016040523d82523d6000602084013e610e07565b606091505b5091509150610e17828286610e22565b979650505050505050565b60608315610e31575081610d5b565b825115610e415782518084602001fd5b8160405162461bcd60e51b81526004016102179190611300565b8035610e6681611517565b92915050565b8035610e668161152b565b8051610e668161152b565b8035610e6681611534565b8051610e6681611534565b600060208284031215610eaa57600080fd5b60006108f68484610e5b565b60008060408385031215610ec957600080fd5b6000610ed58585610e5b565b9250506020610ee685828601610e6c565b9150509250929050565b600060208284031215610f0257600080fd5b60006108f68484610e77565b600060208284031215610f2057600080fd5b60006108f68484610e82565b600060208284031215610f3e57600080fd5b60006108f68484610e8d565b610f538161148b565b82525050565b610f5381611496565b6000610f6d826113bf565b610f7781856113c3565b9350610f878185602086016114b5565b9290920192915050565b610f53816114aa565b6000610fa5826113bf565b610faf81856113c8565b9350610fbf8185602086016114b5565b610fc88161150d565b9093019392505050565b6000610fdf600e836113c8565b7f696e76616c69645f616d6f756e74000000000000000000000000000000000000815260200192915050565b60006110186026836113c8565b7f4f776e61626c653a206e6577206f776e657220697320746865207a65726f206181527f6464726573730000000000000000000000000000000000000000000000000000602082015260400192915050565b60006110776026836113c8565b7f416464726573733a20696e73756666696369656e742062616c616e636520666f81527f722063616c6c0000000000000000000000000000000000000000000000000000602082015260400192915050565b60006110d66020836113c8565b7f4f776e61626c653a2063616c6c6572206973206e6f7420746865206f776e6572815260200192915050565b600061110f6013836113c8565b7f696e73756666696369656e745f616d6f756e7400000000000000000000000000815260200192915050565b6000611148601d836113c8565b7f416464726573733a2063616c6c20746f206e6f6e2d636f6e7472616374000000815260200192915050565b60006111816020836113c8565b7f436f6e747261637473206172656e277420616c6c6f77656420746f206661726d815260200192915050565b60006111ba602a836113c8565b7f5361666545524332303a204552433230206f7065726174696f6e20646964206e81527f6f74207375636365656400000000000000000000000000000000000000000000602082015260400192915050565b60006112196019836113c8565b7f43616e6e6f742072656e6f756e6365206f776e65727368697000000000000000815260200192915050565b60006112526009836113c8565b7f6e6f5f7265776172640000000000000000000000000000000000000000000000815260200192915050565b610f53816114a7565b6000610d5b8284610f62565b60208101610e668284610f4a565b606081016112af8286610f4a565b6112bc6020830185610f4a565b6108f6604083018461127e565b604081016112d78285610f4a565b610d5b602083018461127e565b60208101610e668284610f59565b60208101610e668284610f91565b60208082528101610d5b8184610f9a565b60208082528101610e6681610fd2565b60208082528101610e668161100b565b60208082528101610e668161106a565b60208082528101610e66816110c9565b60208082528101610e6681611102565b60208082528101610e668161113b565b60208082528101610e6681611174565b60208082528101610e66816111ad565b60208082528101610e668161120c565b60208082528101610e6681611245565b60208101610e66828461127e565b5190565b919050565b90815260200190565b60006113dc826114a7565b91506113e7836114a7565b925082198211156113fa576113fa6114e1565b500190565b600061140a826114a7565b9150611415836114a7565b925082611424576114246114f7565b500490565b6000611434826114a7565b915061143f836114a7565b9250816000190483118215151615611459576114596114e1565b500290565b6000611469826114a7565b9150611474836114a7565b925082821015611486576114866114e1565b500390565b6000610e668261149b565b151590565b6001600160a01b031690565b90565b6000610e668261148b565b60005b838110156114d05781810151838201526020016114b8565b83811115610ac35750506000910152565b634e487b7160e01b600052601160045260246000fd5b634e487b7160e01b600052601260045260246000fd5b601f01601f191690565b6115208161148b565b811461084257600080fd5b61152081611496565b611520816114a756fea264697066735822122027795e30c21ac9af085d47061ee85e0a1e873ffc3f716cc10553d7a630446f8964736f6c63430008000033",
  "linkReferences": {},
  "deployedLinkReferences": {}
}