{
  "_format": "hh-sol-artifact-1",
  "contractName": "HubbleViewer",
  "sourceName": "contracts/HubbleViewer.sol",
  "abi": [
    {
      "inputs": [
        {
          "internalType": "contract IClearingHouse",
          "name": "_clearingHouse",
          "type": "address"
        },
        {
          "internalType": "contract IMarginAccount",
          "name": "_marginAccount",
          "type": "address"
        },
        {
          "internalType": "address",
          "name": "_registry",
          "type": "address"
        }
      ],
      "stateMutability": "nonpayable",
      "type": "constructor"
    },
    {
      "inputs": [
        {
          "internalType": "uint256",
          "name": "dToken",
          "type": "uint256"
        },
        {
          "internalType": "uint256",
          "name": "idx",
          "type": "uint256"
        }
      ],
      "name": "calcWithdrawAmounts",
      "outputs": [
        {
          "internalType": "uint256",
          "name": "quoteAsset",
          "type": "uint256"
        },
        {
          "internalType": "uint256",
          "name": "baseAsset",
          "type": "uint256"
        }
      ],
      "stateMutability": "view",
      "type": "function"
    },
    {
      "inputs": [],
      "name": "clearingHouse",
      "outputs": [
        {
          "internalType": "contract IClearingHouse",
          "name": "",
          "type": "address"
        }
      ],
      "stateMutability": "view",
      "type": "function"
    },
    {
      "inputs": [
        {
          "internalType": "address",
          "name": "trader",
          "type": "address"
        }
      ],
      "name": "getAccountInfo",
      "outputs": [
        {
          "internalType": "int256",
          "name": "totalCollateral",
          "type": "int256"
        },
        {
          "internalType": "int256",
          "name": "freeMargin",
          "type": "int256"
        },
        {
          "internalType": "int256",
          "name": "marginFraction",
          "type": "int256"
        },
        {
          "internalType": "uint256",
          "name": "notionalPosition",
          "type": "uint256"
        },
        {
          "internalType": "int256",
          "name": "unrealizedPnl",
          "type": "int256"
        }
      ],
      "stateMutability": "view",
      "type": "function"
    },
    {
      "inputs": [
        {
          "internalType": "uint256",
          "name": "quoteAssetQuantity",
          "type": "uint256"
        },
        {
          "internalType": "uint256",
          "name": "idx",
          "type": "uint256"
        },
        {
          "internalType": "bool",
          "name": "isLong",
          "type": "bool"
        }
      ],
      "name": "getBase",
      "outputs": [
        {
          "internalType": "int256",
          "name": "",
          "type": "int256"
        }
      ],
      "stateMutability": "view",
      "type": "function"
    },
    {
      "inputs": [
        {
          "internalType": "address",
          "name": "trader",
          "type": "address"
        },
        {
          "internalType": "uint256",
          "name": "idx",
          "type": "uint256"
        }
      ],
      "name": "getLiquidationPrice",
      "outputs": [
        {
          "internalType": "uint256",
          "name": "liquidationPrice",
          "type": "uint256"
        }
      ],
      "stateMutability": "view",
      "type": "function"
    },
    {
      "inputs": [
        {
          "internalType": "address",
          "name": "trader",
          "type": "address"
        },
        {
          "internalType": "uint256",
          "name": "idx",
          "type": "uint256"
        },
        {
          "internalType": "uint256",
          "name": "vUSD",
          "type": "uint256"
        },
        {
          "internalType": "bool",
          "name": "isRemove",
          "type": "bool"
        }
      ],
      "name": "getMakerExpectedMFAndLiquidationPrice",
      "outputs": [
        {
          "internalType": "int256",
          "name": "expectedMarginFraction",
          "type": "int256"
        },
        {
          "internalType": "uint256",
          "name": "liquidationPrice",
          "type": "uint256"
        }
      ],
      "stateMutability": "view",
      "type": "function"
    },
    {
      "inputs": [
        {
          "internalType": "address",
          "name": "_maker",
          "type": "address"
        },
        {
          "internalType": "uint256",
          "name": "idx",
          "type": "uint256"
        }
      ],
      "name": "getMakerLiquidity",
      "outputs": [
        {
          "internalType": "uint256",
          "name": "vAsset",
          "type": "uint256"
        },
        {
          "internalType": "uint256",
          "name": "vUSD",
          "type": "uint256"
        },
        {
          "internalType": "uint256",
          "name": "totalDeposited",
          "type": "uint256"
        },
        {
          "internalType": "uint256",
          "name": "dToken",
          "type": "uint256"
        },
        {
          "internalType": "uint256",
          "name": "vAssetBalance",
          "type": "uint256"
        },
        {
          "internalType": "uint256",
          "name": "vUSDBalance",
          "type": "uint256"
        }
      ],
      "stateMutability": "view",
      "type": "function"
    },
    {
      "inputs": [
        {
          "internalType": "address",
          "name": "_maker",
          "type": "address"
        },
        {
          "internalType": "uint256",
          "name": "idx",
          "type": "uint256"
        }
      ],
      "name": "getMakerPositionAndUnrealizedPnl",
      "outputs": [
        {
          "internalType": "int256",
          "name": "position",
          "type": "int256"
        },
        {
          "internalType": "uint256",
          "name": "openNotional",
          "type": "uint256"
        },
        {
          "internalType": "int256",
          "name": "unrealizedPnl",
          "type": "int256"
        }
      ],
      "stateMutability": "view",
      "type": "function"
    },
    {
      "inputs": [
        {
          "internalType": "uint256",
          "name": "idx",
          "type": "uint256"
        },
        {
          "internalType": "uint256",
          "name": "inputAmount",
          "type": "uint256"
        },
        {
          "internalType": "bool",
          "name": "isBase",
          "type": "bool"
        },
        {
          "internalType": "bool",
          "name": "deposit",
          "type": "bool"
        }
      ],
      "name": "getMakerQuote",
      "outputs": [
        {
          "internalType": "uint256",
          "name": "fillAmount",
          "type": "uint256"
        },
        {
          "internalType": "uint256",
          "name": "dToken",
          "type": "uint256"
        }
      ],
      "stateMutability": "view",
      "type": "function"
    },
    {
      "inputs": [
        {
          "internalType": "address[]",
          "name": "traders",
          "type": "address[]"
        }
      ],
      "name": "getMarginFractionAndMakerStatus",
      "outputs": [
        {
          "internalType": "int256[]",
          "name": "fractions",
          "type": "int256[]"
        },
        {
          "internalType": "bool[]",
          "name": "isMaker",
          "type": "bool[]"
        }
      ],
      "stateMutability": "view",
      "type": "function"
    },
    {
      "inputs": [
        {
          "internalType": "address[]",
          "name": "traders",
          "type": "address[]"
        }
      ],
      "name": "getNotionalPositionAndMargin",
      "outputs": [
        {
          "internalType": "uint256[]",
          "name": "notionalPositions",
          "type": "uint256[]"
        },
        {
          "internalType": "int256[]",
          "name": "margins",
          "type": "int256[]"
        }
      ],
      "stateMutability": "view",
      "type": "function"
    },
    {
      "inputs": [
        {
          "internalType": "int256",
          "name": "baseAssetQuantity",
          "type": "int256"
        },
        {
          "internalType": "uint256",
          "name": "idx",
          "type": "uint256"
        }
      ],
      "name": "getQuote",
      "outputs": [
        {
          "internalType": "uint256",
          "name": "quoteAssetQuantity",
          "type": "uint256"
        }
      ],
      "stateMutability": "view",
      "type": "function"
    },
    {
      "inputs": [
        {
          "internalType": "address",
          "name": "trader",
          "type": "address"
        },
        {
          "internalType": "uint256",
          "name": "idx",
          "type": "uint256"
        },
        {
          "internalType": "int256",
          "name": "baseAssetQuantity",
          "type": "int256"
        }
      ],
      "name": "getTakerExpectedMFAndLiquidationPrice",
      "outputs": [
        {
          "internalType": "int256",
          "name": "expectedMarginFraction",
          "type": "int256"
        },
        {
          "internalType": "uint256",
          "name": "quoteAssetQuantity",
          "type": "uint256"
        },
        {
          "internalType": "uint256",
          "name": "liquidationPrice",
          "type": "uint256"
        }
      ],
      "stateMutability": "view",
      "type": "function"
    },
    {
      "inputs": [
        {
          "internalType": "address",
          "name": "maker",
          "type": "address"
        }
      ],
      "name": "makerPositions",
      "outputs": [
        {
          "components": [
            {
              "internalType": "int256",
              "name": "size",
              "type": "int256"
            },
            {
              "internalType": "uint256",
              "name": "openNotional",
              "type": "uint256"
            },
            {
              "internalType": "int256",
              "name": "unrealizedPnl",
              "type": "int256"
            },
            {
              "internalType": "uint256",
              "name": "avgOpen",
              "type": "uint256"
            }
          ],
          "internalType": "struct HubbleViewer.Position[]",
          "name": "positions",
          "type": "tuple[]"
        }
      ],
      "stateMutability": "view",
      "type": "function"
    },
    {
      "inputs": [],
      "name": "marginAccount",
      "outputs": [
        {
          "internalType": "contract IMarginAccount",
          "name": "",
          "type": "address"
        }
      ],
      "stateMutability": "view",
      "type": "function"
    },
    {
      "inputs": [
        {
          "internalType": "address[]",
          "name": "traders",
          "type": "address[]"
        }
      ],
      "name": "marginAccountLiquidatationStatus",
      "outputs": [
        {
          "internalType": "enum IMarginAccount.LiquidationStatus[]",
          "name": "isLiquidatable",
          "type": "uint8[]"
        },
        {
          "internalType": "uint256[]",
          "name": "repayAmount",
          "type": "uint256[]"
        },
        {
          "internalType": "uint256[]",
          "name": "incentivePerDollar",
          "type": "uint256[]"
        }
      ],
      "stateMutability": "view",
      "type": "function"
    },
    {
      "inputs": [],
      "name": "markets",
      "outputs": [
        {
          "components": [
            {
              "internalType": "address",
              "name": "amm",
              "type": "address"
            },
            {
              "internalType": "address",
              "name": "underlying",
              "type": "address"
            }
          ],
          "internalType": "struct HubbleViewer.MarketInfo[]",
          "name": "_markets",
          "type": "tuple[]"
        }
      ],
      "stateMutability": "view",
      "type": "function"
    },
    {
      "inputs": [],
      "name": "registry",
      "outputs": [
        {
          "internalType": "address",
          "name": "",
          "type": "address"
        }
      ],
      "stateMutability": "view",
      "type": "function"
    },
    {
      "inputs": [
        {
          "internalType": "address",
          "name": "trader",
          "type": "address"
        }
      ],
      "name": "userInfo",
      "outputs": [
        {
          "internalType": "int256[]",
          "name": "",
          "type": "int256[]"
        }
      ],
      "stateMutability": "view",
      "type": "function"
    },
    {
      "inputs": [
        {
          "internalType": "address",
          "name": "trader",
          "type": "address"
        }
      ],
      "name": "userPositions",
      "outputs": [
        {
          "components": [
            {
              "internalType": "int256",
              "name": "size",
              "type": "int256"
            },
            {
              "internalType": "uint256",
              "name": "openNotional",
              "type": "uint256"
            },
            {
              "internalType": "int256",
              "name": "unrealizedPnl",
              "type": "int256"
            },
            {
              "internalType": "uint256",
              "name": "avgOpen",
              "type": "uint256"
            }
          ],
          "internalType": "struct HubbleViewer.Position[]",
          "name": "positions",
          "type": "tuple[]"
        }
      ],
      "stateMutability": "view",
      "type": "function"
    }
  ],
  "bytecode": "0x60e06040523480156200001157600080fd5b5060405162005f1138038062005f118339818101604052810190620000379190620001d0565b8273ffffffffffffffffffffffffffffffffffffffff1660808173ffffffffffffffffffffffffffffffffffffffff16815250508173ffffffffffffffffffffffffffffffffffffffff1660a08173ffffffffffffffffffffffffffffffffffffffff16815250508073ffffffffffffffffffffffffffffffffffffffff1660c08173ffffffffffffffffffffffffffffffffffffffff16815250505050506200022c565b600080fd5b600073ffffffffffffffffffffffffffffffffffffffff82169050919050565b60006200010e82620000e1565b9050919050565b6000620001228262000101565b9050919050565b620001348162000115565b81146200014057600080fd5b50565b600081519050620001548162000129565b92915050565b6000620001678262000101565b9050919050565b62000179816200015a565b81146200018557600080fd5b50565b60008151905062000199816200016e565b92915050565b620001aa8162000101565b8114620001b657600080fd5b50565b600081519050620001ca816200019f565b92915050565b600080600060608486031215620001ec57620001eb620000dc565b5b6000620001fc8682870162000143565b93505060206200020f8682870162000188565b92505060406200022286828701620001b9565b9150509250925092565b60805160a05160c051615bd56200033c6000396000611fd6015260008181610d1001528181610ea601528181610f8b01528181612003015281816127b101526138650152600081816104bf015281816104e801528181610be101528181610dfd015281816110770152818161117a0152818161131e015281816114210152818161176f0152818161182901528181611af401528181611ba5015281816120b30152818161215e01528181612210015281816122d2015281816123ad0152818161292301528181612bb701528181612f7d015281816131ec0152818161347d0152818161352e015281816135f70152818161393501528181613a2401528181613baa0152613f700152615bd56000f3fe608060405234801561001057600080fd5b506004361061012c5760003560e01c80637d7426c6116100ad578063c724ce1811610071578063c724ce18146103de578063d030bb251461040e578063de4826bf1461043e578063f742269d1461046e578063fd507dfb1461048c5761012c565b80637d7426c6146102e4578063929e0c7314610315578063a1da781814610347578063bc87db0114610377578063c2699388146103ac5761012c565b8063613cf420116100f4578063613cf420146101ff578063623622ca1461022f578063710f3695146102615780637b103999146102925780637b510fe8146102b05761012c565b80630af96800146101315780630f1f102a1461014f57806317b3b7d0146101805780631959a002146101b15780633ac2a032146101e1575b600080fd5b6101396104bd565b60405161014691906141e7565b60405180910390f35b6101696004803603810190610164919061427a565b6104e1565b6040516101779291906142f0565b60405180910390f35b61019a6004803603810190610195919061437e565b610b32565b6040516101a8929190614551565b60405180910390f35b6101cb60048036038101906101c691906145c6565b610d0a565b6040516101d891906145f3565b60405180910390f35b6101e9611071565b6040516101f69190614702565b60405180910390f35b610219600480360381019061021491906145c6565b611318565b6040516102269190614828565b60405180910390f35b61024960048036038101906102449190614876565b611767565b604051610258939291906148d8565b60405180910390f35b61027b6004803603810190610276919061490f565b611aec565b604051610289929190614976565b60405180910390f35b61029a611fd4565b6040516102a791906149ae565b60405180910390f35b6102ca60048036038101906102c591906145c6565b611ff8565b6040516102db9594939291906149c9565b60405180910390f35b6102fe60048036038101906102f99190614a1c565b6123a6565b60405161030c9291906142f0565b60405180910390f35b61032f600480360381019061032a919061437e565b6126b2565b60405161033e93929190614b82565b60405180910390f35b610361600480360381019061035c9190614bce565b61291e565b60405161036e9190614c21565b60405180910390f35b610391600480360381019061038c9190614c3c565b612baa565b6040516103a396959493929190614c7c565b60405180910390f35b6103c660048036038101906103c19190614c3c565b612f75565b6040516103d593929190614cdd565b60405180910390f35b6103f860048036038101906103f39190614d14565b6131e7565b6040516104059190614d54565b60405180910390f35b61042860048036038101906104239190614c3c565b613476565b6040516104359190614d54565b60405180910390f35b610458600480360381019061045391906145c6565b6135f1565b6040516104659190614828565b60405180910390f35b610476613863565b6040516104839190614d90565b60405180910390f35b6104a660048036038101906104a1919061437e565b613887565b6040516104b4929190614e69565b60405180910390f35b7f000000000000000000000000000000000000000000000000000000000000000081565b60008060007f000000000000000000000000000000000000000000000000000000000000000073ffffffffffffffffffffffffffffffffffffffff166386a8cdbc886040518263ffffffff1660e01b815260040161053f9190614d54565b60206040518083038186803b15801561055757600080fd5b505afa15801561056b573d6000803e3d6000fd5b505050506040513d601f19601f8201168201806040525081019061058f9190614ede565b905060008173ffffffffffffffffffffffffffffffffffffffff1663e098372c6040518163ffffffff1660e01b815260040160206040518083038186803b1580156105d957600080fd5b505afa1580156105ed573d6000803e3d6000fd5b505050506040513d601f19601f820116820180604052508101906106119190614f49565b905085156108a25760008173ffffffffffffffffffffffffffffffffffffffff16634903b0d160016040518263ffffffff1660e01b81526004016106559190614fb1565b60206040518083038186803b15801561066d57600080fd5b505afa158015610681573d6000803e3d6000fd5b505050506040513d601f19601f820116820180604052508101906106a59190614fe1565b90506000811415610758576c0c9f2c9cd04674edea400000008273ffffffffffffffffffffffffffffffffffffffff1663b9e8c9fd6040518163ffffffff1660e01b815260040160206040518083038186803b15801561070457600080fd5b505afa158015610718573d6000803e3d6000fd5b505050506040513d601f19601f8201168201806040525081019061073c9190614fe1565b89610747919061503d565b61075191906150c6565b94506107fb565b808273ffffffffffffffffffffffffffffffffffffffff16634903b0d160006040518263ffffffff1660e01b81526004016107939190615132565b60206040518083038186803b1580156107ab57600080fd5b505afa1580156107bf573d6000803e3d6000fd5b505050506040513d601f19601f820116820180604052508101906107e39190614fe1565b896107ee919061503d565b6107f891906150c6565b94505b8173ffffffffffffffffffffffffffffffffffffffff1663ed8e84f360405180604001604052808881526020018b815250886040518363ffffffff1660e01b815260040161084a9291906151e0565b60206040518083038186803b15801561086257600080fd5b505afa158015610876573d6000803e3d6000fd5b505050506040513d601f19601f8201168201806040525081019061089a9190614fe1565b935050610b27565b60008173ffffffffffffffffffffffffffffffffffffffff16634903b0d160006040518263ffffffff1660e01b81526004016108de9190615132565b60206040518083038186803b1580156108f657600080fd5b505afa15801561090a573d6000803e3d6000fd5b505050506040513d601f19601f8201168201806040525081019061092e9190614fe1565b905060008114156109e1578173ffffffffffffffffffffffffffffffffffffffff1663b9e8c9fd6040518163ffffffff1660e01b815260040160206040518083038186803b15801561097f57600080fd5b505afa158015610993573d6000803e3d6000fd5b505050506040513d601f19601f820116820180604052508101906109b79190614fe1565b6c0c9f2c9cd04674edea40000000896109d0919061503d565b6109da91906150c6565b9450610a84565b808273ffffffffffffffffffffffffffffffffffffffff16634903b0d160016040518263ffffffff1660e01b8152600401610a1c9190614fb1565b60206040518083038186803b158015610a3457600080fd5b505afa158015610a48573d6000803e3d6000fd5b505050506040513d601f19601f82011682018060405250810190610a6c9190614fe1565b89610a77919061503d565b610a8191906150c6565b94505b8173ffffffffffffffffffffffffffffffffffffffff1663ed8e84f360405180604001604052808b815260200188815250886040518363ffffffff1660e01b8152600401610ad39291906151e0565b60206040518083038186803b158015610aeb57600080fd5b505afa158015610aff573d6000803e3d6000fd5b505050506040513d601f19601f82011682018060405250810190610b239190614fe1565b9350505b505094509492505050565b6060808383905067ffffffffffffffff811115610b5257610b51615209565b5b604051908082528060200260200182016040528015610b805781602001602082028036833780820191505090505b5091508383905067ffffffffffffffff811115610ba057610b9f615209565b5b604051908082528060200260200182016040528015610bce5781602001602082028036833780820191505090505b50905060005b84849050811015610d02577f000000000000000000000000000000000000000000000000000000000000000073ffffffffffffffffffffffffffffffffffffffff1663665ce654868684818110610c2e57610c2d615238565b5b9050602002016020810190610c4391906145c6565b60016040518363ffffffff1660e01b8152600401610c62929190615267565b604080518083038186803b158015610c7957600080fd5b505afa158015610c8d573d6000803e3d6000fd5b505050506040513d601f19601f82011682018060405250810190610cb191906152a5565b848381518110610cc457610cc3615238565b5b60200260200101848481518110610cde57610cdd615238565b5b60200260200101828152508281525050508080610cfa906152e5565b915050610bd4565b509250929050565b606060007f000000000000000000000000000000000000000000000000000000000000000073ffffffffffffffffffffffffffffffffffffffff166381d6dd8b6040518163ffffffff1660e01b815260040160206040518083038186803b158015610d7457600080fd5b505afa158015610d88573d6000803e3d6000fd5b505050506040513d601f19601f82011682018060405250810190610dac9190614fe1565b905060008167ffffffffffffffff811115610dca57610dc9615209565b5b604051908082528060200260200182016040528015610df85781602001602082028036833780820191505090505b5090507f000000000000000000000000000000000000000000000000000000000000000073ffffffffffffffffffffffffffffffffffffffff1663e239e840856040518263ffffffff1660e01b8152600401610e5491906149ae565b60206040518083038186803b158015610e6c57600080fd5b505afa158015610e80573d6000803e3d6000fd5b505050506040513d601f19601f82011682018060405250810190610ea4919061532e565b7f000000000000000000000000000000000000000000000000000000000000000073ffffffffffffffffffffffffffffffffffffffff1663873490ea6000876040518363ffffffff1660e01b8152600401610f0092919061535b565b60206040518083038186803b158015610f1857600080fd5b505afa158015610f2c573d6000803e3d6000fd5b505050506040513d601f19601f82011682018060405250810190610f50919061532e565b610f5a9190615384565b81600081518110610f6e57610f6d615238565b5b6020026020010181815250506000600190505b82811015611066577f000000000000000000000000000000000000000000000000000000000000000073ffffffffffffffffffffffffffffffffffffffff1663873490ea82876040518363ffffffff1660e01b8152600401610fe492919061535b565b60206040518083038186803b158015610ffc57600080fd5b505afa158015611010573d6000803e3d6000fd5b505050506040513d601f19601f82011682018060405250810190611034919061532e565b82828151811061104757611046615238565b5b602002602001018181525050808061105e906152e5565b915050610f81565b508092505050919050565b606060007f000000000000000000000000000000000000000000000000000000000000000073ffffffffffffffffffffffffffffffffffffffff166321db76ff6040518163ffffffff1660e01b815260040160206040518083038186803b1580156110db57600080fd5b505afa1580156110ef573d6000803e3d6000fd5b505050506040513d601f19601f820116820180604052508101906111139190614fe1565b90508067ffffffffffffffff81111561112f5761112e615209565b5b60405190808252806020026020018201604052801561116857816020015b6111556140fa565b81526020019060019003908161114d5790505b50915060005b818110156113135760007f000000000000000000000000000000000000000000000000000000000000000073ffffffffffffffffffffffffffffffffffffffff166386a8cdbc836040518263ffffffff1660e01b81526004016111d19190614d54565b60206040518083038186803b1580156111e957600080fd5b505afa1580156111fd573d6000803e3d6000fd5b505050506040513d601f19601f820116820180604052508101906112219190614ede565b905060405180604001604052808273ffffffffffffffffffffffffffffffffffffffff1681526020018273ffffffffffffffffffffffffffffffffffffffff16637158da7c6040518163ffffffff1660e01b815260040160206040518083038186803b15801561129057600080fd5b505afa1580156112a4573d6000803e3d6000fd5b505050506040513d601f19601f820116820180604052508101906112c8919061542d565b73ffffffffffffffffffffffffffffffffffffffff168152508483815181106112f4576112f3615238565b5b602002602001018190525050808061130b906152e5565b91505061116e565b505090565b606060007f000000000000000000000000000000000000000000000000000000000000000073ffffffffffffffffffffffffffffffffffffffff166321db76ff6040518163ffffffff1660e01b815260040160206040518083038186803b15801561138257600080fd5b505afa158015611396573d6000803e3d6000fd5b505050506040513d601f19601f820116820180604052508101906113ba9190614fe1565b90508067ffffffffffffffff8111156113d6576113d5615209565b5b60405190808252806020026020018201604052801561140f57816020015b6113fc614140565b8152602001906001900390816113f45790505b50915060005b818110156117605760007f000000000000000000000000000000000000000000000000000000000000000073ffffffffffffffffffffffffffffffffffffffff166386a8cdbc836040518263ffffffff1660e01b81526004016114789190614d54565b60206040518083038186803b15801561149057600080fd5b505afa1580156114a4573d6000803e3d6000fd5b505050506040513d601f19601f820116820180604052508101906114c89190614ede565b90508073ffffffffffffffffffffffffffffffffffffffff166355f57510866040518263ffffffff1660e01b815260040161150391906149ae565b60606040518083038186803b15801561151b57600080fd5b505afa15801561152f573d6000803e3d6000fd5b505050506040513d601f19601f82011682018060405250810190611553919061545a565b5085848151811061156757611566615238565b5b602002602001015160000186858151811061158557611584615238565b5b60200260200101516020018281525082815250505060008483815181106115af576115ae615238565b5b60200260200101516000015114156116105760008483815181106115d6576115d5615238565b5b6020026020010151604001818152505060008483815181106115fb576115fa615238565b5b6020026020010151606001818152505061174c565b8073ffffffffffffffffffffffffffffffffffffffff1663975a6c61866040518263ffffffff1660e01b815260040161164991906149ae565b604080518083038186803b15801561166057600080fd5b505afa158015611674573d6000803e3d6000fd5b505050506040513d601f19601f8201168201806040525081019061169891906152a5565b90508483815181106116ad576116ac615238565b5b602002602001015160400181815250506116ec6116e78584815181106116d6576116d5615238565b5b602002602001015160000151613b33565b613b55565b670de0b6b3a764000085848151811061170857611707615238565b5b60200260200101516020015161171e919061503d565b61172891906150c6565b84838151811061173b5761173a615238565b5b602002602001015160600181815250505b508080611758906152e5565b915050611415565b5050919050565b6000806000807f000000000000000000000000000000000000000000000000000000000000000073ffffffffffffffffffffffffffffffffffffffff166386a8cdbc876040518263ffffffff1660e01b81526004016117c69190614d54565b60206040518083038186803b1580156117de57600080fd5b505afa1580156117f2573d6000803e3d6000fd5b505050506040513d601f19601f820116820180604052508101906118169190614ede565b905061182285876131e7565b92506000807f000000000000000000000000000000000000000000000000000000000000000073ffffffffffffffffffffffffffffffffffffffff1663665ce6548a60016040518363ffffffff1660e01b8152600401611883929190615267565b604080518083038186803b15801561189a57600080fd5b505afa1580156118ae573d6000803e3d6000fd5b505050506040513d601f19601f820116820180604052508101906118d291906152a5565b9150915060008373ffffffffffffffffffffffffffffffffffffffff166355f575108b6040518263ffffffff1660e01b815260040161191191906149ae565b60606040518083038186803b15801561192957600080fd5b505afa15801561193d573d6000803e3d6000fd5b505050506040513d601f19601f82011682018060405250810190611961919061545a565b5050905060008473ffffffffffffffffffffffffffffffffffffffff1663f5a1854a836040518263ffffffff1660e01b81526004016119a09190614c21565b60206040518083038186803b1580156119b857600080fd5b505afa1580156119cc573d6000803e3d6000fd5b505050506040513d601f19601f820116820180604052508101906119f09190614fe1565b905060008573ffffffffffffffffffffffffffffffffffffffff1663f5a1854a8b85611a1c91906154ad565b6040518263ffffffff1660e01b8152600401611a389190614c21565b60206040518083038186803b158015611a5057600080fd5b505afa158015611a64573d6000803e3d6000fd5b505050506040513d601f19601f82011682018060405250810190611a889190614fe1565b9050818186611a979190615541565b611aa19190615597565b9450611ab4611aaf89613ba2565b613c62565b84611abf9190615384565b9350611acb8486613ccf565b9850611adb8c8787878e8d613d2c565b965050505050505093509350939050565b6000806000807f000000000000000000000000000000000000000000000000000000000000000073ffffffffffffffffffffffffffffffffffffffff1663665ce6548960016040518363ffffffff1660e01b8152600401611b4e929190615267565b604080518083038186803b158015611b6557600080fd5b505afa158015611b79573d6000803e3d6000fd5b505050506040513d601f19601f82011682018060405250810190611b9d91906152a5565b9150915060007f000000000000000000000000000000000000000000000000000000000000000073ffffffffffffffffffffffffffffffffffffffff166386a8cdbc896040518263ffffffff1660e01b8152600401611bfc9190614d54565b60206040518083038186803b158015611c1457600080fd5b505afa158015611c28573d6000803e3d6000fd5b505050506040513d601f19601f82011682018060405250810190611c4c9190614ede565b905060008173ffffffffffffffffffffffffffffffffffffffff166355f575108b6040518263ffffffff1660e01b8152600401611c8991906149ae565b60606040518083038186803b158015611ca157600080fd5b505afa158015611cb5573d6000803e3d6000fd5b505050506040513d601f19601f82011682018060405250810190611cd9919061545a565b5050905060008273ffffffffffffffffffffffffffffffffffffffff1663f5a1854a836040518263ffffffff1660e01b8152600401611d189190614c21565b60206040518083038186803b158015611d3057600080fd5b505afa158015611d44573d6000803e3d6000fd5b505050506040513d601f19601f82011682018060405250810190611d689190614fe1565b905060008373ffffffffffffffffffffffffffffffffffffffff1663362aecb18d6040518263ffffffff1660e01b8152600401611da591906149ae565b60e06040518083038186803b158015611dbd57600080fd5b505afa158015611dd1573d6000803e3d6000fd5b505050506040513d601f19601f82011682018060405250810190611df591906155cb565b50505050505090508815611e22578981611e0f9190615597565b6002611e1b919061503d565b9050611e3d565b8981611e2e9190615541565b6002611e3a919061503d565b90505b6000611e498d8d612f75565b5050905060008573ffffffffffffffffffffffffffffffffffffffff1663f5a1854a8684611e7791906154ad565b6040518263ffffffff1660e01b8152600401611e939190614c21565b60206040518083038186803b158015611eab57600080fd5b505afa158015611ebf573d6000803e3d6000fd5b505050506040513d601f19601f82011682018060405250810190611ee39190614fe1565b9050611efa8484611ef49190615541565b826140e0565b88611f059190615541565b9750505060008473ffffffffffffffffffffffffffffffffffffffff166316f086b78e6040518263ffffffff1660e01b8152600401611f4491906149ae565b60806040518083038186803b158015611f5c57600080fd5b505afa158015611f70573d6000803e3d6000fd5b505050506040513d601f19601f82011682018060405250810190611f94919061566d565b50505090508087611fa59190615597565b965050611fb28587613ccf565b9750611fc38c858888600080613d2c565b965050505050505094509492505050565b7f000000000000000000000000000000000000000000000000000000000000000081565b6000806000806000807f000000000000000000000000000000000000000000000000000000000000000073ffffffffffffffffffffffffffffffffffffffff1663e2c9713b886040518263ffffffff1660e01b815260040161205a91906149ae565b604080518083038186803b15801561207157600080fd5b505afa158015612085573d6000803e3d6000fd5b505050506040513d601f19601f820116820180604052508101906120a991906156d4565b80975081925050507f000000000000000000000000000000000000000000000000000000000000000073ffffffffffffffffffffffffffffffffffffffff16632bccc65b886040518263ffffffff1660e01b815260040161210a91906149ae565b60206040518083038186803b15801561212257600080fd5b505afa158015612136573d6000803e3d6000fd5b505050506040513d601f19601f8201168201806040525081019061215a919061532e565b93507f000000000000000000000000000000000000000000000000000000000000000073ffffffffffffffffffffffffffffffffffffffff1663260124af886040518263ffffffff1660e01b81526004016121b591906149ae565b604080518083038186803b1580156121cc57600080fd5b505afa1580156121e0573d6000803e3d6000fd5b505050506040513d601f19601f8201168201806040525081019061220491906152a5565b809350819450505060007f000000000000000000000000000000000000000000000000000000000000000073ffffffffffffffffffffffffffffffffffffffff166391735a396040518163ffffffff1660e01b815260040160206040518083038186803b15801561227457600080fd5b505afa158015612288573d6000803e3d6000fd5b505050506040513d601f19601f820116820180604052508101906122ac919061532e565b9050620f4240816122bc86613c62565b6122c69190615714565b6122d0919061582b565b7f000000000000000000000000000000000000000000000000000000000000000073ffffffffffffffffffffffffffffffffffffffff1663e239e8408a6040518263ffffffff1660e01b815260040161232991906149ae565b60206040518083038186803b15801561234157600080fd5b505afa158015612355573d6000803e3d6000fd5b505050506040513d601f19601f82011682018060405250810190612379919061532e565b848461238591906154ad565b61238f9190615384565b6123999190615384565b9550505091939590929450565b60008060007f000000000000000000000000000000000000000000000000000000000000000073ffffffffffffffffffffffffffffffffffffffff166386a8cdbc856040518263ffffffff1660e01b81526004016124049190614d54565b60206040518083038186803b15801561241c57600080fd5b505afa158015612430573d6000803e3d6000fd5b505050506040513d601f19601f820116820180604052508101906124549190614ede565b905060008173ffffffffffffffffffffffffffffffffffffffff1663e098372c6040518163ffffffff1660e01b815260040160206040518083038186803b15801561249e57600080fd5b505afa1580156124b2573d6000803e3d6000fd5b505050506040513d601f19601f820116820180604052508101906124d69190614f49565b905060008173ffffffffffffffffffffffffffffffffffffffff166318160ddd6040518163ffffffff1660e01b815260040160206040518083038186803b15801561252057600080fd5b505afa158015612534573d6000803e3d6000fd5b505050506040513d601f19601f820116820180604052508101906125589190614fe1565b905060008111156126a85780878373ffffffffffffffffffffffffffffffffffffffff16634903b0d160006040518263ffffffff1660e01b815260040161259f9190615132565b60206040518083038186803b1580156125b757600080fd5b505afa1580156125cb573d6000803e3d6000fd5b505050506040513d601f19601f820116820180604052508101906125ef9190614fe1565b6125f9919061503d565b61260391906150c6565b945080878373ffffffffffffffffffffffffffffffffffffffff16634903b0d160016040518263ffffffff1660e01b81526004016126419190614fb1565b60206040518083038186803b15801561265957600080fd5b505afa15801561266d573d6000803e3d6000fd5b505050506040513d601f19601f820116820180604052508101906126919190614fe1565b61269b919061503d565b6126a591906150c6565b93505b5050509250929050565b60608060608484905067ffffffffffffffff8111156126d4576126d3615209565b5b6040519080825280602002602001820160405280156127025781602001602082028036833780820191505090505b5092508484905067ffffffffffffffff81111561272257612721615209565b5b6040519080825280602002602001820160405280156127505781602001602082028036833780820191505090505b5091508484905067ffffffffffffffff8111156127705761276f615209565b5b60405190808252806020026020018201604052801561279e5781602001602082028036833780820191505090505b50905060005b85859050811015612916577f000000000000000000000000000000000000000000000000000000000000000073ffffffffffffffffffffffffffffffffffffffff1663500b22658787848181106127fe576127fd615238565b5b905060200201602081019061281391906145c6565b60016040518363ffffffff1660e01b8152600401612832929190615267565b60606040518083038186803b15801561284a57600080fd5b505afa15801561285e573d6000803e3d6000fd5b505050506040513d601f19601f8201168201806040525081019061288291906158ba565b86848151811061289557612894615238565b5b602002602001018685815181106128af576128ae615238565b5b602002602001018686815181106128c9576128c8615238565b5b6020026020010183815250838152508360038111156128eb576128ea614a88565b5b60038111156128fd576128fc614a88565b5b815250505050808061290e906152e5565b9150506127a4565b509250925092565b6000807f000000000000000000000000000000000000000000000000000000000000000073ffffffffffffffffffffffffffffffffffffffff166386a8cdbc856040518263ffffffff1660e01b815260040161297a9190614d54565b60206040518083038186803b15801561299257600080fd5b505afa1580156129a6573d6000803e3d6000fd5b505050506040513d601f19601f820116820180604052508101906129ca9190614ede565b905060008173ffffffffffffffffffffffffffffffffffffffff1663e098372c6040518163ffffffff1660e01b815260040160206040518083038186803b158015612a1457600080fd5b505afa158015612a28573d6000803e3d6000fd5b505050506040513d601f19601f82011682018060405250810190612a4c9190614f49565b905060008415612afa578173ffffffffffffffffffffffffffffffffffffffff1663556d6e9f600060018a6040518463ffffffff1660e01b8152600401612a959392919061590d565b60206040518083038186803b158015612aad57600080fd5b505afa158015612ac1573d6000803e3d6000fd5b505050506040513d601f19601f82011682018060405250810190612ae59190614fe1565b9050612af081613c62565b9350505050612ba3565b8173ffffffffffffffffffffffffffffffffffffffff166337ed3a7a600160008a6040518463ffffffff1660e01b8152600401612b3993929190615944565b60206040518083038186803b158015612b5157600080fd5b505afa158015612b65573d6000803e3d6000fd5b505050506040513d601f19601f82011682018060405250810190612b899190614fe1565b9050612b9481613c62565b612b9d9061597b565b93505050505b9392505050565b60008060008060008060007f000000000000000000000000000000000000000000000000000000000000000073ffffffffffffffffffffffffffffffffffffffff166386a8cdbc896040518263ffffffff1660e01b8152600401612c0e9190614d54565b60206040518083038186803b158015612c2657600080fd5b505afa158015612c3a573d6000803e3d6000fd5b505050506040513d601f19601f82011682018060405250810190612c5e9190614ede565b905060008173ffffffffffffffffffffffffffffffffffffffff1663e098372c6040518163ffffffff1660e01b815260040160206040518083038186803b158015612ca857600080fd5b505afa158015612cbc573d6000803e3d6000fd5b505050506040513d601f19601f82011682018060405250810190612ce09190614f49565b90508173ffffffffffffffffffffffffffffffffffffffff1663362aecb18b6040518263ffffffff1660e01b8152600401612d1b91906149ae565b60e06040518083038186803b158015612d3357600080fd5b505afa158015612d47573d6000803e3d6000fd5b505050506040513d601f19601f82011682018060405250810190612d6b91906155cb565b909192939450909192509091509050508096508198505050866002612d90919061503d565b955060008173ffffffffffffffffffffffffffffffffffffffff166318160ddd6040518163ffffffff1660e01b815260040160206040518083038186803b158015612dda57600080fd5b505afa158015612dee573d6000803e3d6000fd5b505050506040513d601f19601f82011682018060405250810190612e129190614fe1565b90508173ffffffffffffffffffffffffffffffffffffffff16634903b0d160006040518263ffffffff1660e01b8152600401612e4e9190615132565b60206040518083038186803b158015612e6657600080fd5b505afa158015612e7a573d6000803e3d6000fd5b505050506040513d601f19601f82011682018060405250810190612e9e9190614fe1565b93508173ffffffffffffffffffffffffffffffffffffffff16634903b0d160016040518263ffffffff1660e01b8152600401612eda9190614fb1565b60206040518083038186803b158015612ef257600080fd5b505afa158015612f06573d6000803e3d6000fd5b505050506040513d601f19601f82011682018060405250810190612f2a9190614fe1565b94506000811115612f6857808685612f42919061503d565b612f4c91906150c6565b9750808686612f5b919061503d565b612f6591906150c6565b98505b5050509295509295509295565b6000806000807f000000000000000000000000000000000000000000000000000000000000000073ffffffffffffffffffffffffffffffffffffffff166386a8cdbc866040518263ffffffff1660e01b8152600401612fd49190614d54565b60206040518083038186803b158015612fec57600080fd5b505afa158015613000573d6000803e3d6000fd5b505050506040513d601f19601f820116820180604052508101906130249190614ede565b905060008173ffffffffffffffffffffffffffffffffffffffff1663e098372c6040518163ffffffff1660e01b815260040160206040518083038186803b15801561306e57600080fd5b505afa158015613082573d6000803e3d6000fd5b505050506040513d601f19601f820116820180604052508101906130a69190614f49565b905060008060008473ffffffffffffffffffffffffffffffffffffffff1663362aecb18b6040518263ffffffff1660e01b81526004016130e691906149ae565b60e06040518083038186803b1580156130fe57600080fd5b505afa158015613112573d6000803e3d6000fd5b505050506040513d601f19601f8201168201806040525081019061313691906155cb565b505050509250925092508373ffffffffffffffffffffffffffffffffffffffff166359149459828585856040518563ffffffff1660e01b815260040161317f94939291906159c4565b60606040518083038186803b15801561319757600080fd5b505afa1580156131ab573d6000803e3d6000fd5b505050506040513d601f19601f820116820180604052508101906131cf919061545a565b809850819950829a5050505050505050509250925092565b6000807f000000000000000000000000000000000000000000000000000000000000000073ffffffffffffffffffffffffffffffffffffffff166386a8cdbc846040518263ffffffff1660e01b81526004016132439190614d54565b60206040518083038186803b15801561325b57600080fd5b505afa15801561326f573d6000803e3d6000fd5b505050506040513d601f19601f820116820180604052508101906132939190614ede565b905060008173ffffffffffffffffffffffffffffffffffffffff1663e098372c6040518163ffffffff1660e01b815260040160206040518083038186803b1580156132dd57600080fd5b505afa1580156132f1573d6000803e3d6000fd5b505050506040513d601f19601f820116820180604052508101906133159190614f49565b9050600085126133cb5760018173ffffffffffffffffffffffffffffffffffffffff166337ed3a7a6000600161334a8a613b55565b6040518463ffffffff1660e01b81526004016133689392919061590d565b60206040518083038186803b15801561338057600080fd5b505afa158015613394573d6000803e3d6000fd5b505050506040513d601f19601f820116820180604052508101906133b89190614fe1565b6133c29190615541565b92505050613470565b8073ffffffffffffffffffffffffffffffffffffffff1663556d6e9f600160006133fd896133f89061597b565b613b55565b6040518463ffffffff1660e01b815260040161341b93929190615944565b60206040518083038186803b15801561343357600080fd5b505afa158015613447573d6000803e3d6000fd5b505050506040513d601f19601f8201168201806040525081019061346b9190614fe1565b925050505b92915050565b60008060007f000000000000000000000000000000000000000000000000000000000000000073ffffffffffffffffffffffffffffffffffffffff1663665ce6548660016040518363ffffffff1660e01b81526004016134d7929190615267565b604080518083038186803b1580156134ee57600080fd5b505afa158015613502573d6000803e3d6000fd5b505050506040513d601f19601f8201168201806040525081019061352691906152a5565b9150915060007f000000000000000000000000000000000000000000000000000000000000000073ffffffffffffffffffffffffffffffffffffffff166386a8cdbc866040518263ffffffff1660e01b81526004016135859190614d54565b60206040518083038186803b15801561359d57600080fd5b505afa1580156135b1573d6000803e3d6000fd5b505050506040513d601f19601f820116820180604052508101906135d59190614ede565b90506135e686828585600080613d2c565b935050505092915050565b606060007f000000000000000000000000000000000000000000000000000000000000000073ffffffffffffffffffffffffffffffffffffffff166321db76ff6040518163ffffffff1660e01b815260040160206040518083038186803b15801561365b57600080fd5b505afa15801561366f573d6000803e3d6000fd5b505050506040513d601f19601f820116820180604052508101906136939190614fe1565b90508067ffffffffffffffff8111156136af576136ae615209565b5b6040519080825280602002602001820160405280156136e857816020015b6136d5614140565b8152602001906001900390816136cd5790505b50915060005b8181101561385c576137008482612f75565b85848151811061371357613712615238565b5b602002602001015160000186858151811061373157613730615238565b5b602002602001015160200187868151811061374f5761374e615238565b5b6020026020010151604001838152508381525083815250505050600083828151811061377e5761377d615238565b5b60200260200101516000015114156137ba5760008382815181106137a5576137a4615238565b5b60200260200101516060018181525050613849565b6137e96137e48483815181106137d3576137d2615238565b5b602002602001015160000151613b33565b613b55565b670de0b6b3a764000084838151811061380557613804615238565b5b60200260200101516020015161381b919061503d565b61382591906150c6565b83828151811061383857613837615238565b5b602002602001015160600181815250505b8080613854906152e5565b9150506136ee565b5050919050565b7f000000000000000000000000000000000000000000000000000000000000000081565b60608060008484905090508067ffffffffffffffff8111156138ac576138ab615209565b5b6040519080825280602002602001820160405280156138da5781602001602082028036833780820191505090505b5092508067ffffffffffffffff8111156138f7576138f6615209565b5b6040519080825280602002602001820160405280156139255781602001602082028036833780820191505090505b50915060005b81811015613b2a577f000000000000000000000000000000000000000000000000000000000000000073ffffffffffffffffffffffffffffffffffffffff16632bccc65b87878481811061398257613981615238565b5b905060200201602081019061399791906145c6565b6040518263ffffffff1660e01b81526004016139b391906149ae565b60206040518083038186803b1580156139cb57600080fd5b505afa1580156139df573d6000803e3d6000fd5b505050506040513d601f19601f82011682018060405250810190613a03919061532e565b848281518110613a1657613a15615238565b5b6020026020010181815250507f000000000000000000000000000000000000000000000000000000000000000073ffffffffffffffffffffffffffffffffffffffff1663e75600c3878784818110613a7157613a70615238565b5b9050602002016020810190613a8691906145c6565b6040518263ffffffff1660e01b8152600401613aa291906149ae565b60206040518083038186803b158015613aba57600080fd5b505afa158015613ace573d6000803e3d6000fd5b505050506040513d601f19601f82011682018060405250810190613af29190615a1e565b838281518110613b0557613b04615238565b5b6020026020010190151590811515815250508080613b22906152e5565b91505061392b565b50509250929050565b600080821215613b4c5781613b479061597b565b613b4e565b815b9050919050565b600080821215613b9a576040517f08c379a0000000000000000000000000000000000000000000000000000000008152600401613b9190615aa8565b60405180910390fd5b819050919050565b6000620f42407f000000000000000000000000000000000000000000000000000000000000000073ffffffffffffffffffffffffffffffffffffffff166324bcdfbd6040518163ffffffff1660e01b815260040160206040518083038186803b158015613c0e57600080fd5b505afa158015613c22573d6000803e3d6000fd5b505050506040513d601f19601f82011682018060405250810190613c469190614fe1565b83613c51919061503d565b613c5b91906150c6565b9050919050565b60007f7fffffffffffffffffffffffffffffffffffffffffffffffffffffffffffffff821115613cc7576040517f08c379a0000000000000000000000000000000000000000000000000000000008152600401613cbe90615b3a565b60405180910390fd5b819050919050565b600080821415613d01577f7fffffffffffffffffffffffffffffffffffffffffffffffffffffffffffffff9050613d26565b613d0a82613c62565b620f424084613d199190615714565b613d23919061582b565b90505b92915050565b600080851415613d3f57600090506140d6565b60008060008873ffffffffffffffffffffffffffffffffffffffff166316f086b78b6040518263ffffffff1660e01b8152600401613d7d91906149ae565b60806040518083038186803b158015613d9557600080fd5b505afa158015613da9573d6000803e3d6000fd5b505050506040513d601f19601f82011682018060405250810190613dcd919061566d565b9350935093505060008614613f5e5760008287613dea9190615714565b12613e02578481613dfb9190615541565b9050613f4f565b60008973ffffffffffffffffffffffffffffffffffffffff1663f5a1854a8885613e2c91906154ad565b6040518263ffffffff1660e01b8152600401613e489190614c21565b60206040518083038186803b158015613e6057600080fd5b505afa158015613e74573d6000803e3d6000fd5b505050506040513d601f19601f82011682018060405250810190613e989190614fe1565b9050613ea387613b33565b613eac84613b33565b12613f49578973ffffffffffffffffffffffffffffffffffffffff16639af16a958483878b6040518563ffffffff1660e01b8152600401613ef09493929190615b5a565b604080518083038186803b158015613f0757600080fd5b505afa158015613f1b573d6000803e3d6000fd5b505050506040513d601f19601f82011682018060405250810190613f3f91906152a5565b5080925050613f4d565b8091505b505b8582613f5b91906154ad565b91505b600087620f4240613f6e8b613c62565b7f000000000000000000000000000000000000000000000000000000000000000073ffffffffffffffffffffffffffffffffffffffff1663d5eb05816040518163ffffffff1660e01b815260040160206040518083038186803b158015613fd457600080fd5b505afa158015613fe8573d6000803e3d6000fd5b505050506040513d601f19601f8201168201806040525081019061400c919061532e565b6140169190615714565b614020919061582b565b61402a9190615384565b905060008084131561406f5783670de0b6b3a76400008361404a86613c62565b61405491906154ad565b61405e9190615714565b614068919061582b565b90506140b7565b60008412156140b657836140829061597b565b670de0b6b3a76400008361409586613c62565b61409f9190615384565b6140a99190615714565b6140b3919061582b565b90505b5b60008112156140c557600090505b6140ce81613b55565b955050505050505b9695505050505050565b6000818310156140f057816140f2565b825b905092915050565b6040518060400160405280600073ffffffffffffffffffffffffffffffffffffffff168152602001600073ffffffffffffffffffffffffffffffffffffffff1681525090565b6040518060800160405280600081526020016000815260200160008152602001600081525090565b600073ffffffffffffffffffffffffffffffffffffffff82169050919050565b6000819050919050565b60006141ad6141a86141a384614168565b614188565b614168565b9050919050565b60006141bf82614192565b9050919050565b60006141d1826141b4565b9050919050565b6141e1816141c6565b82525050565b60006020820190506141fc60008301846141d8565b92915050565b600080fd5b600080fd5b6000819050919050565b61421f8161420c565b811461422a57600080fd5b50565b60008135905061423c81614216565b92915050565b60008115159050919050565b61425781614242565b811461426257600080fd5b50565b6000813590506142748161424e565b92915050565b6000806000806080858703121561429457614293614202565b5b60006142a28782880161422d565b94505060206142b38782880161422d565b93505060406142c487828801614265565b92505060606142d587828801614265565b91505092959194509250565b6142ea8161420c565b82525050565b600060408201905061430560008301856142e1565b61431260208301846142e1565b9392505050565b600080fd5b600080fd5b600080fd5b60008083601f84011261433e5761433d614319565b5b8235905067ffffffffffffffff81111561435b5761435a61431e565b5b60208301915083602082028301111561437757614376614323565b5b9250929050565b6000806020838503121561439557614394614202565b5b600083013567ffffffffffffffff8111156143b3576143b2614207565b5b6143bf85828601614328565b92509250509250929050565b600081519050919050565b600082825260208201905092915050565b6000819050602082019050919050565b6144008161420c565b82525050565b600061441283836143f7565b60208301905092915050565b6000602082019050919050565b6000614436826143cb565b61444081856143d6565b935061444b836143e7565b8060005b8381101561447c5781516144638882614406565b975061446e8361441e565b92505060018101905061444f565b5085935050505092915050565b600081519050919050565b600082825260208201905092915050565b6000819050602082019050919050565b6000819050919050565b6144c8816144b5565b82525050565b60006144da83836144bf565b60208301905092915050565b6000602082019050919050565b60006144fe82614489565b6145088185614494565b9350614513836144a5565b8060005b8381101561454457815161452b88826144ce565b9750614536836144e6565b925050600181019050614517565b5085935050505092915050565b6000604082019050818103600083015261456b818561442b565b9050818103602083015261457f81846144f3565b90509392505050565b600061459382614168565b9050919050565b6145a381614588565b81146145ae57600080fd5b50565b6000813590506145c08161459a565b92915050565b6000602082840312156145dc576145db614202565b5b60006145ea848285016145b1565b91505092915050565b6000602082019050818103600083015261460d81846144f3565b905092915050565b600081519050919050565b600082825260208201905092915050565b6000819050602082019050919050565b61464a81614588565b82525050565b6040820160008201516146666000850182614641565b5060208201516146796020850182614641565b50505050565b600061468b8383614650565b60408301905092915050565b6000602082019050919050565b60006146af82614615565b6146b98185614620565b93506146c483614631565b8060005b838110156146f55781516146dc888261467f565b97506146e783614697565b9250506001810190506146c8565b5085935050505092915050565b6000602082019050818103600083015261471c81846146a4565b905092915050565b600081519050919050565b600082825260208201905092915050565b6000819050602082019050919050565b60808201600082015161476660008501826144bf565b50602082015161477960208501826143f7565b50604082015161478c60408501826144bf565b50606082015161479f60608501826143f7565b50505050565b60006147b18383614750565b60808301905092915050565b6000602082019050919050565b60006147d582614724565b6147df818561472f565b93506147ea83614740565b8060005b8381101561481b57815161480288826147a5565b975061480d836147bd565b9250506001810190506147ee565b5085935050505092915050565b6000602082019050818103600083015261484281846147ca565b905092915050565b614853816144b5565b811461485e57600080fd5b50565b6000813590506148708161484a565b92915050565b60008060006060848603121561488f5761488e614202565b5b600061489d868287016145b1565b93505060206148ae8682870161422d565b92505060406148bf86828701614861565b9150509250925092565b6148d2816144b5565b82525050565b60006060820190506148ed60008301866148c9565b6148fa60208301856142e1565b61490760408301846142e1565b949350505050565b6000806000806080858703121561492957614928614202565b5b6000614937878288016145b1565b94505060206149488782880161422d565b93505060406149598782880161422d565b925050606061496a87828801614265565b91505092959194509250565b600060408201905061498b60008301856148c9565b61499860208301846142e1565b9392505050565b6149a881614588565b82525050565b60006020820190506149c3600083018461499f565b92915050565b600060a0820190506149de60008301886148c9565b6149eb60208301876148c9565b6149f860408301866148c9565b614a0560608301856142e1565b614a1260808301846148c9565b9695505050505050565b60008060408385031215614a3357614a32614202565b5b6000614a418582860161422d565b9250506020614a528582860161422d565b9150509250929050565b600081519050919050565b600082825260208201905092915050565b6000819050602082019050919050565b7f4e487b7100000000000000000000000000000000000000000000000000000000600052602160045260246000fd5b60048110614ac857614ac7614a88565b5b50565b6000819050614ad982614ab7565b919050565b6000614ae982614acb565b9050919050565b614af981614ade565b82525050565b6000614b0b8383614af0565b60208301905092915050565b6000602082019050919050565b6000614b2f82614a5c565b614b398185614a67565b9350614b4483614a78565b8060005b83811015614b75578151614b5c8882614aff565b9750614b6783614b17565b925050600181019050614b48565b5085935050505092915050565b60006060820190508181036000830152614b9c8186614b24565b90508181036020830152614bb0818561442b565b90508181036040830152614bc4818461442b565b9050949350505050565b600080600060608486031215614be757614be6614202565b5b6000614bf58682870161422d565b9350506020614c068682870161422d565b9250506040614c1786828701614265565b9150509250925092565b6000602082019050614c3660008301846148c9565b92915050565b60008060408385031215614c5357614c52614202565b5b6000614c61858286016145b1565b9250506020614c728582860161422d565b9150509250929050565b600060c082019050614c9160008301896142e1565b614c9e60208301886142e1565b614cab60408301876142e1565b614cb860608301866142e1565b614cc560808301856142e1565b614cd260a08301846142e1565b979650505050505050565b6000606082019050614cf260008301866148c9565b614cff60208301856142e1565b614d0c60408301846148c9565b949350505050565b60008060408385031215614d2b57614d2a614202565b5b6000614d3985828601614861565b9250506020614d4a8582860161422d565b9150509250929050565b6000602082019050614d6960008301846142e1565b92915050565b6000614d7a826141b4565b9050919050565b614d8a81614d6f565b82525050565b6000602082019050614da56000830184614d81565b92915050565b600081519050919050565b600082825260208201905092915050565b6000819050602082019050919050565b614de081614242565b82525050565b6000614df28383614dd7565b60208301905092915050565b6000602082019050919050565b6000614e1682614dab565b614e208185614db6565b9350614e2b83614dc7565b8060005b83811015614e5c578151614e438882614de6565b9750614e4e83614dfe565b925050600181019050614e2f565b5085935050505092915050565b60006040820190508181036000830152614e8381856144f3565b90508181036020830152614e978184614e0b565b90509392505050565b6000614eab82614588565b9050919050565b614ebb81614ea0565b8114614ec657600080fd5b50565b600081519050614ed881614eb2565b92915050565b600060208284031215614ef457614ef3614202565b5b6000614f0284828501614ec9565b91505092915050565b6000614f1682614588565b9050919050565b614f2681614f0b565b8114614f3157600080fd5b50565b600081519050614f4381614f1d565b92915050565b600060208284031215614f5f57614f5e614202565b5b6000614f6d84828501614f34565b91505092915050565b6000819050919050565b6000614f9b614f96614f9184614f76565b614188565b61420c565b9050919050565b614fab81614f80565b82525050565b6000602082019050614fc66000830184614fa2565b92915050565b600081519050614fdb81614216565b92915050565b600060208284031215614ff757614ff6614202565b5b600061500584828501614fcc565b91505092915050565b7f4e487b7100000000000000000000000000000000000000000000000000000000600052601160045260246000fd5b60006150488261420c565b91506150538361420c565b9250817fffffffffffffffffffffffffffffffffffffffffffffffffffffffffffffffff048311821515161561508c5761508b61500e565b5b828202905092915050565b7f4e487b7100000000000000000000000000000000000000000000000000000000600052601260045260246000fd5b60006150d18261420c565b91506150dc8361420c565b9250826150ec576150eb615097565b5b828204905092915050565b6000819050919050565b600061511c615117615112846150f7565b614188565b61420c565b9050919050565b61512c81615101565b82525050565b60006020820190506151476000830184615123565b92915050565b600060029050919050565b600081905092915050565b6000819050919050565b6000602082019050919050565b6151838161514d565b61518d8184615158565b925061519882615163565b8060005b838110156151c95781516151b08782614406565b96506151bb8361516d565b92505060018101905061519c565b505050505050565b6151da81614242565b82525050565b60006060820190506151f5600083018561517a565b61520260408301846151d1565b9392505050565b7f4e487b7100000000000000000000000000000000000000000000000000000000600052604160045260246000fd5b7f4e487b7100000000000000000000000000000000000000000000000000000000600052603260045260246000fd5b600060408201905061527c600083018561499f565b61528960208301846151d1565b9392505050565b60008151905061529f8161484a565b92915050565b600080604083850312156152bc576152bb614202565b5b60006152ca85828601614fcc565b92505060206152db85828601615290565b9150509250929050565b60006152f08261420c565b91507fffffffffffffffffffffffffffffffffffffffffffffffffffffffffffffffff8214156153235761532261500e565b5b600182019050919050565b60006020828403121561534457615343614202565b5b600061535284828501615290565b91505092915050565b600060408201905061537060008301856142e1565b61537d602083018461499f565b9392505050565b600061538f826144b5565b915061539a836144b5565b9250827f8000000000000000000000000000000000000000000000000000000000000000018212600084121516156153d5576153d461500e565b5b827f7fffffffffffffffffffffffffffffffffffffffffffffffffffffffffffffff01821360008412161561540d5761540c61500e565b5b828203905092915050565b6000815190506154278161459a565b92915050565b60006020828403121561544357615442614202565b5b600061545184828501615418565b91505092915050565b60008060006060848603121561547357615472614202565b5b600061548186828701615290565b935050602061549286828701614fcc565b92505060406154a386828701615290565b9150509250925092565b60006154b8826144b5565b91506154c3836144b5565b9250817f7fffffffffffffffffffffffffffffffffffffffffffffffffffffffffffffff038313600083121516156154fe576154fd61500e565b5b817f80000000000000000000000000000000000000000000000000000000000000000383126000831216156155365761553561500e565b5b828201905092915050565b600061554c8261420c565b91506155578361420c565b9250827fffffffffffffffffffffffffffffffffffffffffffffffffffffffffffffffff0382111561558c5761558b61500e565b5b828201905092915050565b60006155a28261420c565b91506155ad8361420c565b9250828210156155c0576155bf61500e565b5b828203905092915050565b600080600080600080600060e0888a0312156155ea576155e9614202565b5b60006155f88a828b01614fcc565b97505060206156098a828b01614fcc565b965050604061561a8a828b01614fcc565b955050606061562b8a828b01615290565b945050608061563c8a828b01615290565b93505060a061564d8a828b01615290565b92505060c061565e8a828b01615290565b91505092959891949750929550565b6000806000806080858703121561568757615686614202565b5b600061569587828801614fcc565b94505060206156a687828801615290565b93505060406156b787828801615290565b92505060606156c887828801614fcc565b91505092959194509250565b600080604083850312156156eb576156ea614202565b5b60006156f985828601615290565b925050602061570a85828601615290565b9150509250929050565b600061571f826144b5565b915061572a836144b5565b9250827f7fffffffffffffffffffffffffffffffffffffffffffffffffffffffffffffff04821160008413600084131616156157695761576861500e565b5b817f800000000000000000000000000000000000000000000000000000000000000005831260008412600084131616156157a6576157a561500e565b5b827f800000000000000000000000000000000000000000000000000000000000000005821260008413600084121616156157e3576157e261500e565b5b827f7fffffffffffffffffffffffffffffffffffffffffffffffffffffffffffffff05821260008412600084121616156158205761581f61500e565b5b828202905092915050565b6000615836826144b5565b9150615841836144b5565b92508261585157615850615097565b5b600160000383147f80000000000000000000000000000000000000000000000000000000000000008314161561588a5761588961500e565b5b828205905092915050565b600481106158a257600080fd5b50565b6000815190506158b481615895565b92915050565b6000806000606084860312156158d3576158d2614202565b5b60006158e1868287016158a5565b93505060206158f286828701614fcc565b925050604061590386828701614fcc565b9150509250925092565b60006060820190506159226000830186615123565b61592f6020830185614fa2565b61593c60408301846142e1565b949350505050565b60006060820190506159596000830186614fa2565b6159666020830185615123565b61597360408301846142e1565b949350505050565b6000615986826144b5565b91507f80000000000000000000000000000000000000000000000000000000000000008214156159b9576159b861500e565b5b816000039050919050565b60006080820190506159d960008301876142e1565b6159e660208301866142e1565b6159f360408301856142e1565b615a0060608301846142e1565b95945050505050565b600081519050615a188161424e565b92915050565b600060208284031215615a3457615a33614202565b5b6000615a4284828501615a09565b91505092915050565b600082825260208201905092915050565b7f53616665436173743a2076616c7565206d75737420626520706f736974697665600082015250565b6000615a92602083615a4b565b9150615a9d82615a5c565b602082019050919050565b60006020820190508181036000830152615ac181615a85565b9050919050565b7f53616665436173743a2076616c756520646f65736e27742066697420696e206160008201527f6e20696e74323536000000000000000000000000000000000000000000000000602082015250565b6000615b24602883615a4b565b9150615b2f82615ac8565b604082019050919050565b60006020820190508181036000830152615b5381615b17565b9050919050565b6000608082019050615b6f60008301876148c9565b615b7c60208301866142e1565b615b8960408301856148c9565b615b9660608301846148c9565b9594505050505056fea2646970667358221220efa2d931a960bfcd1df5b1a586e195ea4e07025d0a550b61b22d476cd5da1d5d64736f6c63430008090033",
  "linkReferences": {},
  "deployedLinkReferences": {}
}