{
  "_format": "hh-sol-artifact-1",
  "contractName": "MockdYdXSoloMargin",
  "sourceName": "contracts/mock/MockdYdXSoloMargin.sol",
  "abi": [
    {
      "inputs": [
        {
          "internalType": "uint256[]",
          "name": "_marketIds",
          "type": "uint256[]"
        },
        {
          "internalType": "address[]",
          "name": "_addresses",
          "type": "address[]"
        }
      ],
      "stateMutability": "nonpayable",
      "type": "constructor"
    },
    {
      "inputs": [
        {
          "components": [
            {
              "internalType": "address",
              "name": "owner",
              "type": "address"
            },
            {
              "internalType": "uint256",
              "name": "number",
              "type": "uint256"
            }
          ],
          "internalType": "struct Account.Info",
          "name": "account",
          "type": "tuple"
        },
        {
          "internalType": "uint256",
          "name": "marketId",
          "type": "uint256"
        }
      ],
      "name": "getAccountWei",
      "outputs": [
        {
          "components": [
            {
              "internalType": "bool",
              "name": "sign",
              "type": "bool"
            },
            {
              "internalType": "uint256",
              "name": "value",
              "type": "uint256"
            }
          ],
          "internalType": "struct Types.Wei",
          "name": "",
          "type": "tuple"
        }
      ],
      "stateMutability": "view",
      "type": "function"
    },
    {
      "inputs": [
        {
          "internalType": "uint256",
          "name": "marketId",
          "type": "uint256"
        }
      ],
      "name": "getMarketTokenAddress",
      "outputs": [
        {
          "internalType": "address",
          "name": "",
          "type": "address"
        }
      ],
      "stateMutability": "view",
      "type": "function"
    },
    {
      "inputs": [
        {
          "components": [
            {
              "internalType": "address",
              "name": "owner",
              "type": "address"
            },
            {
              "internalType": "uint256",
              "name": "number",
              "type": "uint256"
            }
          ],
          "internalType": "struct Account.Info[]",
          "name": "accounts",
          "type": "tuple[]"
        },
        {
          "components": [
            {
              "internalType": "enum Actions.ActionType",
              "name": "actionType",
              "type": "uint8"
            },
            {
              "internalType": "uint256",
              "name": "accountId",
              "type": "uint256"
            },
            {
              "components": [
                {
                  "internalType": "bool",
                  "name": "sign",
                  "type": "bool"
                },
                {
                  "internalType": "enum Types.AssetDenomination",
                  "name": "denomination",
                  "type": "uint8"
                },
                {
                  "internalType": "enum Types.AssetReference",
                  "name": "ref",
                  "type": "uint8"
                },
                {
                  "internalType": "uint256",
                  "name": "value",
                  "type": "uint256"
                }
              ],
              "internalType": "struct Types.AssetAmount",
              "name": "amount",
              "type": "tuple"
            },
            {
              "internalType": "uint256",
              "name": "primaryMarketId",
              "type": "uint256"
            },
            {
              "internalType": "uint256",
              "name": "secondaryMarketId",
              "type": "uint256"
            },
            {
              "internalType": "address",
              "name": "otherAddress",
              "type": "address"
            },
            {
              "internalType": "uint256",
              "name": "otherAccountId",
              "type": "uint256"
            },
            {
              "internalType": "bytes",
              "name": "data",
              "type": "bytes"
            }
          ],
          "internalType": "struct Actions.ActionArgs[]",
          "name": "actions",
          "type": "tuple[]"
        }
      ],
      "name": "operate",
      "outputs": [],
      "stateMutability": "nonpayable",
      "type": "function"
    }
  ],
  "bytecode": "0x60806040523480156200001157600080fd5b50604051620013be380380620013be83398101604081905262000034916200016b565b8051825114620000615760405162461bcd60e51b8152600401620000589062000230565b60405180910390fd5b60005b8251811015620000d5578181815181106200007b57fe5b6020026020010151600160008584815181106200009457fe5b602090810291909101810151825281019190915260400160002080546001600160a01b0319166001600160a01b039290921691909117905560010162000064565b505050620002bb565b600082601f830112620000ef578081fd5b81516200010662000100826200029b565b62000274565b8181529150602080830190848101818402860182018710156200012857600080fd5b6000805b858110156200015f5782516001600160a01b03811681146200014c578283fd5b855293830193918301916001016200012c565b50505050505092915050565b600080604083850312156200017e578182fd5b82516001600160401b038082111562000195578384fd5b818501915085601f830112620001a9578384fd5b8151620001ba62000100826200029b565b80828252602080830192508086018a828387028901011115620001db578889fd5b8896505b84871015620001ff578051845260019690960195928101928101620001df565b50880151909650935050508082111562000217578283fd5b506200022685828601620000de565b9150509250929050565b60208082526024908201527f6d61726b65744964732e6c656e67746820213d206164647265737365732e6c656040820152630dccee8d60e31b606082015260800190565b6040518181016001600160401b03811182821017156200029357600080fd5b604052919050565b60006001600160401b03821115620002b1578081fd5b5060209081020190565b6110f380620002cb6000396000f3fe608060405234801561001057600080fd5b50600436106100415760003560e01c8063062bd3e914610046578063a67a6a451461006f578063c190c2ec14610084575b600080fd5b610059610054366004610c9c565b6100a4565b6040516100669190610cd0565b60405180910390f35b61008261007d366004610b92565b6100bf565b005b610097610092366004610c72565b6100d7565b6040516100669190611013565b6000908152600160205260409020546001600160a01b031690565b6100c9828261012e565b6100d382826101f0565b5050565b6100df610887565b6100e7610887565b50506040805180820182526001815283516001600160a01b0316600090815260208181528382208583528152929020546001600160801b0316918101919091525b92915050565b80516101555760405162461bcd60e51b815260040161014c90610d54565b60405180910390fd5b81516101735760405162461bcd60e51b815260040161014c90610f2b565b60005b82518110156101eb57600181015b83518110156101e2576101bd84838151811061019c57fe5b60200260200101518583815181106101b057fe5b602002602001015161027b565b156101da5760405162461bcd60e51b815260040161014c90610e52565b600101610184565b50600101610176565b505050565b60005b81518110156101eb5761020461089e565b82828151811061021057fe5b60209081029190910101518051909150600081600181111561022e57fe5b141561024b5761024661024186846102aa565b61031e565b610271565b600181600181111561025957fe5b14156102715761027161026c8684610477565b610486565b50506001016101f3565b805182516000916001600160a01b0391821691161480156102a3575081602001518360200151145b9392505050565b6102b26108f0565b60005b825160018111156102c257fe5b146102c957fe5b604051806080016040528083604001518152602001848460200151815181106102ee57fe5b60200260200101518152602001836060015181526020018360a001516001600160a01b0316815250905092915050565b60608101516001600160a01b031633148061035657508060200151600001516001600160a01b031681606001516001600160a01b0316145b6103725760405162461bcd60e51b815260040161014c90610e89565b6000815160200151801561038257fe5b1461039f5760405162461bcd60e51b815260040161014c90610dc2565b6060808201518251909101516040808401516000908152600160205220546103d4926001600160a01b039091169130906105a6565b602080820151516001600160a01b031660009081528082526040808220818501518352909252908120548251606001516104229161041d916001600160801b0390911690610604565b610629565b602083810151516001600160a01b031660009081528082526040808220958101518252949091529290922080546fffffffffffffffffffffffffffffffff19166001600160801b039093169290921790915550565b61047f6108f0565b60016102b5565b6020810151516001600160a01b031633146104b35760405162461bcd60e51b815260040161014c90610eb9565b602080820151516001600160a01b03166000908152808252604080822081850151835290925220548151606001516001600160801b03909116101561050a5760405162461bcd60e51b815260040161014c90610df9565b8051511561052a5760405162461bcd60e51b815260040161014c90610d8b565b60608082015182519091015160408084015160009081526001602052205461055d926001600160a01b0390911691610654565b602080820151516001600160a01b031660009081528082526040808220818501518352909252908120548251606001516104229161041d916001600160801b0390911690610673565b6105fe846323b872dd60e01b8585856040516024016105c793929190610ce4565b60408051601f198184030181529190526020810180516001600160e01b03166001600160e01b0319909316929092179091526106b5565b50505050565b6000828201838110156102a35760405162461bcd60e51b815260040161014c90610e1b565b6000816001600160801b03811681146101285760405162461bcd60e51b815260040161014c90610f62565b6101eb8363a9059cbb60e01b84846040516024016105c7929190610d08565b60006102a383836040518060400160405280601e81526020017f536166654d6174683a207375627472616374696f6e206f766572666c6f770000815250610744565b606061070a826040518060400160405280602081526020017f5361666545524332303a206c6f772d6c6576656c2063616c6c206661696c6564815250856001600160a01b03166107709092919063ffffffff16565b8051909150156101eb57808060200190518101906107289190610c56565b6101eb5760405162461bcd60e51b815260040161014c90610fc9565b600081848411156107685760405162461bcd60e51b815260040161014c9190610d21565b505050900390565b606061077f8484600085610787565b949350505050565b6060824710156107a95760405162461bcd60e51b815260040161014c90610ee5565b6107b285610848565b6107ce5760405162461bcd60e51b815260040161014c90610f92565b60006060866001600160a01b031685876040516107eb9190610cb4565b60006040518083038185875af1925050503d8060008114610828576040519150601f19603f3d011682016040523d82523d6000602084013e61082d565b606091505b509150915061083d82828661084e565b979650505050505050565b3b151590565b6060831561085d5750816102a3565b82511561086d5782518084602001fd5b8160405162461bcd60e51b815260040161014c9190610d21565b604080518082019091526000808252602082015290565b6040805161010081018252600080825260208201529081016108be610924565b8152602001600081526020016000815260200160006001600160a01b0316815260200160008152602001606081525090565b6040518060800160405280610903610924565b8152602001610910610887565b815260006020820181905260409091015290565b604080516080810190915260008082526020820190815260200160008152602001600081525090565b80356001600160a01b038116811461012857600080fd5b600082601f830112610974578081fd5b813561098761098282611053565b61102c565b818152915060208083019084810160005b84811015610a65578135870161016080601f19838c030112156109ba57600080fd5b6101006109c68161102c565b6109d28c888601610ad9565b81526040808501358883015260606109ec8e828801610ae8565b8284015260e09150818601358184015250828501356080830152610a148d610120870161094d565b60a083015261014085013560c0830152928401359267ffffffffffffffff841115610a3e57600080fd5b610a4c8d8986880101610a70565b9082015287525050509282019290820190600101610998565b505050505092915050565b600082601f830112610a80578081fd5b813567ffffffffffffffff811115610a96578182fd5b610aa9601f8201601f191660200161102c565b9150808252836020828501011115610ac057600080fd5b8060208401602084013760009082016020015292915050565b80356002811061012857600080fd5b600060808284031215610af9578081fd5b610b03608061102c565b90508135610b108161109f565b81526020820135610b20816110b0565b60208201526040820135610b33816110b0565b806040830152506060820135606082015292915050565b600060408284031215610b5b578081fd5b610b65604061102c565b905081356001600160a01b0381168114610b7e57600080fd5b808252506020820135602082015292915050565b6000806040808486031215610ba5578283fd5b833567ffffffffffffffff80821115610bbc578485fd5b818601915086601f830112610bcf578485fd5b8135610bdd61098282611053565b80828252602080830192508086018b828987028901011115610bfd57898afd5b8996505b84871015610c2757610c138c82610b4a565b845260019690960195928101928701610c01565b509097508801359450505080831115610c3e578384fd5b5050610c4c85828601610964565b9150509250929050565b600060208284031215610c67578081fd5b81516102a38161109f565b60008060608385031215610c84578182fd5b610c8e8484610b4a565b946040939093013593505050565b600060208284031215610cad578081fd5b5035919050565b60008251610cc6818460208701611073565b9190910192915050565b6001600160a01b0391909116815260200190565b6001600160a01b039384168152919092166020820152604081019190915260600190565b6001600160a01b03929092168252602082015260400190565b6000602082528251806020840152610d40816040850160208701611073565b601f01601f19169190910160400192915050565b60208082526018908201527f43616e6e6f742068617665207a65726f20616374696f6e730000000000000000604082015260600190565b6020808252601e908201527f73686f756c642072656365697665206e6567617469766520616d6f756e740000604082015260600190565b6020808252601c908201527f2154797065732e417373657444656e6f6d696e6174696f6e2e57656900000000604082015260600190565b6020808252600890820152672162616c616e636560c01b604082015260600190565b6020808252601b908201527f536166654d6174683a206164646974696f6e206f766572666c6f770000000000604082015260600190565b60208082526019908201527f43616e6e6f74206475706c6963617465206163636f756e747300000000000000604082015260600190565b602080825260169082015275496e76616c6964206465706f73697420736f7572636560501b604082015260600190565b6020808252601290820152712737ba103b30b634b21037b832b930ba37b960711b604082015260600190565b60208082526026908201527f416464726573733a20696e73756666696369656e742062616c616e636520666f6040820152651c8818d85b1b60d21b606082015260800190565b60208082526019908201527f43616e6e6f742068617665207a65726f206163636f756e747300000000000000604082015260600190565b6020808252601690820152750aadce6c2ccca40c6c2e6e840e8de40ead2dce86264760531b604082015260600190565b6020808252601d908201527f416464726573733a2063616c6c20746f206e6f6e2d636f6e7472616374000000604082015260600190565b6020808252602a908201527f5361666545524332303a204552433230206f7065726174696f6e20646964206e6040820152691bdd081cdd58d8d9595960b21b606082015260800190565b8151151581526020918201519181019190915260400190565b60405181810167ffffffffffffffff8111828210171561104b57600080fd5b604052919050565b600067ffffffffffffffff821115611069578081fd5b5060209081020190565b60005b8381101561108e578181015183820152602001611076565b838111156105fe5750506000910152565b80151581146110ad57600080fd5b50565b600181106110ad57600080fdfea2646970667358221220c42094cf5f2f861abdd4cda94a623f0af6e040d05270559d8be185439dd902bd64736f6c634300060c0033",
  "linkReferences": {},
  "deployedLinkReferences": {}
}