{
  "_format": "hh-sol-artifact-1",
  "contractName": "RoleManager",
  "sourceName": "contracts/access/RoleManager.sol",
  "abi": [
    {
      "inputs": [
        {
          "internalType": "contract IAddressProvider",
          "name": "_addressProvider",
          "type": "address"
        }
      ],
      "stateMutability": "nonpayable",
      "type": "constructor"
    },
    {
      "anonymous": false,
      "inputs": [
        {
          "indexed": true,
          "internalType": "bytes32",
          "name": "role",
          "type": "bytes32"
        },
        {
          "indexed": true,
          "internalType": "address",
          "name": "account",
          "type": "address"
        },
        {
          "indexed": true,
          "internalType": "address",
          "name": "sender",
          "type": "address"
        }
      ],
      "name": "RoleGranted",
      "type": "event"
    },
    {
      "anonymous": false,
      "inputs": [
        {
          "indexed": true,
          "internalType": "bytes32",
          "name": "role",
          "type": "bytes32"
        },
        {
          "indexed": true,
          "internalType": "address",
          "name": "account",
          "type": "address"
        },
        {
          "indexed": true,
          "internalType": "address",
          "name": "sender",
          "type": "address"
        }
      ],
      "name": "RoleRevoked",
      "type": "event"
    },
    {
      "inputs": [
        {
          "internalType": "address",
          "name": "zap",
          "type": "address"
        }
      ],
      "name": "addGaugeZap",
      "outputs": [],
      "stateMutability": "nonpayable",
      "type": "function"
    },
    {
      "inputs": [
        {
          "internalType": "address",
          "name": "newGovernor",
          "type": "address"
        }
      ],
      "name": "addGovernor",
      "outputs": [],
      "stateMutability": "nonpayable",
      "type": "function"
    },
    {
      "inputs": [],
      "name": "addressProvider",
      "outputs": [
        {
          "internalType": "contract IAddressProvider",
          "name": "",
          "type": "address"
        }
      ],
      "stateMutability": "view",
      "type": "function"
    },
    {
      "inputs": [
        {
          "internalType": "bytes32",
          "name": "role",
          "type": "bytes32"
        },
        {
          "internalType": "uint256",
          "name": "index",
          "type": "uint256"
        }
      ],
      "name": "getRoleMember",
      "outputs": [
        {
          "internalType": "address",
          "name": "",
          "type": "address"
        }
      ],
      "stateMutability": "view",
      "type": "function"
    },
    {
      "inputs": [
        {
          "internalType": "bytes32",
          "name": "role",
          "type": "bytes32"
        }
      ],
      "name": "getRoleMemberCount",
      "outputs": [
        {
          "internalType": "uint256",
          "name": "",
          "type": "uint256"
        }
      ],
      "stateMutability": "view",
      "type": "function"
    },
    {
      "inputs": [
        {
          "internalType": "bytes32",
          "name": "role",
          "type": "bytes32"
        },
        {
          "internalType": "address",
          "name": "account",
          "type": "address"
        }
      ],
      "name": "grantRole",
      "outputs": [],
      "stateMutability": "nonpayable",
      "type": "function"
    },
    {
      "inputs": [
        {
          "internalType": "bytes32",
          "name": "role1",
          "type": "bytes32"
        },
        {
          "internalType": "bytes32",
          "name": "role2",
          "type": "bytes32"
        },
        {
          "internalType": "bytes32",
          "name": "role3",
          "type": "bytes32"
        },
        {
          "internalType": "address",
          "name": "account",
          "type": "address"
        }
      ],
      "name": "hasAnyRole",
      "outputs": [
        {
          "internalType": "bool",
          "name": "",
          "type": "bool"
        }
      ],
      "stateMutability": "view",
      "type": "function"
    },
    {
      "inputs": [
        {
          "internalType": "bytes32[]",
          "name": "roles",
          "type": "bytes32[]"
        },
        {
          "internalType": "address",
          "name": "account",
          "type": "address"
        }
      ],
      "name": "hasAnyRole",
      "outputs": [
        {
          "internalType": "bool",
          "name": "",
          "type": "bool"
        }
      ],
      "stateMutability": "view",
      "type": "function"
    },
    {
      "inputs": [
        {
          "internalType": "bytes32",
          "name": "role1",
          "type": "bytes32"
        },
        {
          "internalType": "bytes32",
          "name": "role2",
          "type": "bytes32"
        },
        {
          "internalType": "address",
          "name": "account",
          "type": "address"
        }
      ],
      "name": "hasAnyRole",
      "outputs": [
        {
          "internalType": "bool",
          "name": "",
          "type": "bool"
        }
      ],
      "stateMutability": "view",
      "type": "function"
    },
    {
      "inputs": [
        {
          "internalType": "bytes32",
          "name": "role",
          "type": "bytes32"
        },
        {
          "internalType": "address",
          "name": "account",
          "type": "address"
        }
      ],
      "name": "hasRole",
      "outputs": [
        {
          "internalType": "bool",
          "name": "",
          "type": "bool"
        }
      ],
      "stateMutability": "view",
      "type": "function"
    },
    {
      "inputs": [
        {
          "internalType": "address",
          "name": "zap",
          "type": "address"
        }
      ],
      "name": "removeGaugeZap",
      "outputs": [],
      "stateMutability": "nonpayable",
      "type": "function"
    },
    {
      "inputs": [],
      "name": "renounceGovernance",
      "outputs": [],
      "stateMutability": "nonpayable",
      "type": "function"
    },
    {
      "inputs": [
        {
          "internalType": "bytes32",
          "name": "role",
          "type": "bytes32"
        },
        {
          "internalType": "address",
          "name": "account",
          "type": "address"
        }
      ],
      "name": "revokeRole",
      "outputs": [],
      "stateMutability": "nonpayable",
      "type": "function"
    }
  ],
  "bytecode": "0x60a06040523480156200001157600080fd5b50604051620014283803806200142883398101604081905262000034916200015c565b6001600160a01b0381166080526200005a69676f7665726e616e636560b01b3362000061565b506200018e565b6000828152602081815260408083206001600160a01b03851684528252808320805460ff191660019081179091558584528252909120620000ad91839062000d7e620000ea821b17901c565b5060405133906001600160a01b0383169084907f2f8788117e7eff1d82e926ec794901d17c78024a50270940304540a733656f0d90600090a45050565b600062000101836001600160a01b0384166200010a565b90505b92915050565b6000818152600183016020526040812054620001535750815460018181018455600084815260208082209093018490558454848252828601909352604090209190915562000104565b50600062000104565b6000602082840312156200016f57600080fd5b81516001600160a01b03811681146200018757600080fd5b9392505050565b60805161122b620001fd6000396000818160d9015281816104240152818161048c01528181610557015281816105b3015281816106100152818161068701528181610702015281816107de015281816108c40152818161096e01528181610b350152610bd6015261122b6000f3fe608060405234801561001057600080fd5b50600436106100cf5760003560e01c806391d148541161008c578063b1c11a6d11610066578063b1c11a6d146101b7578063ca15c873146101ca578063d547741f146101eb578063d756a422146101fe57600080fd5b806391d148541461016e578063955c4c9914610191578063a613cc3d146101a457600080fd5b80632954018c146100d45780632f2ff15d146101185780633c4a25d01461012d578063616bf2d114610140578063758904b8146101535780639010d07c1461015b575b600080fd5b6100fb7f000000000000000000000000000000000000000000000000000000000000000081565b6040516001600160a01b0390911681526020015b60405180910390f35b61012b610126366004610f1a565b610211565b005b61012b61013b366004610f4a565b61028a565b61012b61014e366004610f4a565b610306565b61012b61031c565b6100fb610169366004610f6e565b6103fa565b61018161017c366004610f1a565b610668565b604051901515815260200161010f565b61018161019f366004610f90565b6109c7565b6101816101b2366004610fe7565b6109fc565b61012b6101c5366004610f4a565b610a57565b6101dd6101d83660046110b7565b610acf565b60405190815260200161010f565b61012b6101f9366004610f1a565b610c44565b61018161020c3660046110d0565b610d5a565b61022869676f7665726e616e636560b01b33610668565b60405180604001604052806013815260200172756e617574686f72697a65642061636365737360681b8152509061027b5760405162461bcd60e51b81526004016102729190611109565b60405180910390fd5b506102868282610d93565b5050565b6102a169676f7665726e616e636560b01b33610668565b60405180604001604052806013815260200172756e617574686f72697a65642061636365737360681b815250906102eb5760405162461bcd60e51b81526004016102729190611109565b5061030369676f7665726e616e636560b01b82610d93565b50565b61030368067617567655f7a61760bc1b82610c44565b61033369676f7665726e616e636560b01b33610668565b60405180604001604052806013815260200172756e617574686f72697a65642061636365737360681b8152509061037d5760405162461bcd60e51b81526004016102729190611109565b50600161039669676f7665726e616e636560b01b610acf565b116040518060400160405280601281526020017163616e6e6f74207265766f6b6520726f6c6560701b815250906103e05760405162461bcd60e51b81526004016102729190611109565b506103f869676f7665726e616e636560b01b33610e10565b565b60006f30b2323932b9b9afb83937bb34b232b960811b8314801561041c575081155b1561044857507f0000000000000000000000000000000000000000000000000000000000000000610662565b6b706f6f6c5f666163746f727960a01b83148015610464575081155b15610516576040516321f8a72160e01b81526a706f6f6c466163746f727960a81b60048201527f00000000000000000000000000000000000000000000000000000000000000006001600160a01b0316906321f8a721906024015b60206040518083038186803b1580156104d757600080fd5b505afa1580156104eb573d6000803e3d6000fd5b505050506040513d601f19601f8201168201806040525081019061050f919061115e565b9050610662565b6931b7b73a3937b63632b960b11b83148015610530575081155b1561058e576040516321f8a72160e01b81526931b7b73a3937b63632b960b11b60048201527f00000000000000000000000000000000000000000000000000000000000000006001600160a01b0316906321f8a721906024016104bf565b631c1bdbdb60e21b8314156105ea576040516304042d6360e21b8152600481018390527f00000000000000000000000000000000000000000000000000000000000000006001600160a01b031690631010b58c906024016104bf565b641d985d5b1d60da1b83141561064757604051630672271d60e11b8152600481018390527f00000000000000000000000000000000000000000000000000000000000000006001600160a01b031690630ce44e3a906024016104bf565b600083815260016020526040902061065f9083610e66565b90505b92915050565b60006f30b2323932b9b9afb83937bb34b232b960811b8314156106c1577f00000000000000000000000000000000000000000000000000000000000000006001600160a01b0316826001600160a01b0316149050610662565b6b706f6f6c5f666163746f727960a01b8314156107a05760405163e6dc9e2b60e01b81526a706f6f6c466163746f727960a81b6004820152600060248201527f00000000000000000000000000000000000000000000000000000000000000006001600160a01b03169063e6dc9e2b906044015b60206040518083038186803b15801561074d57600080fd5b505afa158015610761573d6000803e3d6000fd5b505050506040513d601f19601f82011682018060405250810190610785919061115e565b6001600160a01b0316826001600160a01b0316149050610662565b6931b7b73a3937b63632b960b11b8314156108155760405163e6dc9e2b60e01b81526931b7b73a3937b63632b960b11b6004820152600060248201527f00000000000000000000000000000000000000000000000000000000000000006001600160a01b03169063e6dc9e2b90604401610735565b6a6d61696e74656e616e636560a81b831415610896576000838152602081815260408083206001600160a01b038616845290915290205460ff168061050f5750506001600160a01b03811660009081527fc3cf2dc2d928647ef9c1d0954e35884e3e3511cef6652c491e0546f1f9307153602052604090205460ff16610662565b631c1bdbdb60e21b83141561093f57604051635b16ebb760e01b81526001600160a01b0383811660048301527f00000000000000000000000000000000000000000000000000000000000000001690635b16ebb7906024015b60206040518083038186803b15801561090757600080fd5b505afa15801561091b573d6000803e3d6000fd5b505050506040513d601f19601f8201168201806040525081019061050f919061117b565b641d985d5b1d60da1b83141561099d5760405163652b9b4160e01b81526001600160a01b0383811660048301527f0000000000000000000000000000000000000000000000000000000000000000169063652b9b41906024016108ef565b506000918252602082815260408084206001600160a01b0393909316845291905290205460ff1690565b60006109d38583610668565b806109e357506109e38483610668565b806109f357506109f38383610668565b95945050505050565b6000805b8351811015610a4d57610a2c848281518110610a1e57610a1e61119d565b602002602001015184610668565b15610a3b576001915050610662565b80610a45816111b3565b915050610a00565b5060009392505050565b610a6e69676f7665726e616e636560b01b33610668565b60405180604001604052806013815260200172756e617574686f72697a65642061636365737360681b81525090610ab85760405162461bcd60e51b81526004016102729190611109565b5061030368067617567655f7a61760bc1b82610d93565b60006f30b2323932b9b9afb83937bb34b232b960811b821480610b0057506b706f6f6c5f666163746f727960a01b82145b80610b1757506931b7b73a3937b63632b960b11b82145b15610b2457506001919050565b631c1bdbdb60e21b821415610bc4577f00000000000000000000000000000000000000000000000000000000000000006001600160a01b0316638c788de06040518163ffffffff1660e01b815260040160206040518083038186803b158015610b8c57600080fd5b505afa158015610ba0573d6000803e3d6000fd5b505050506040513d601f19601f8201168201806040525081019061066291906111dc565b641d985d5b1d60da1b821415610c2d577f00000000000000000000000000000000000000000000000000000000000000006001600160a01b031663889777386040518163ffffffff1660e01b815260040160206040518083038186803b158015610b8c57600080fd5b600082815260016020526040902061066290610e72565b610c5b69676f7665726e616e636560b01b33610668565b60405180604001604052806013815260200172756e617574686f72697a65642061636365737360681b81525090610ca55760405162461bcd60e51b81526004016102729190611109565b5060408051808201909152601281527163616e6e6f74207265766f6b6520726f6c6560701b602082015269676f7665726e616e636560b01b831415610cfd5760405162461bcd60e51b81526004016102729190611109565b50610d088282610668565b6040518060400160405280601081526020016f1a5b9d985b1a5908185c99dd5b595b9d60821b81525090610d4f5760405162461bcd60e51b81526004016102729190611109565b506102868282610e10565b6000610d668483610668565b80610d765750610d768383610668565b949350505050565b600061065f836001600160a01b038416610e7c565b6000828152602081815260408083206001600160a01b03851684528252808320805460ff191660019081179091558584529091529020610dd39082610d7e565b5060405133906001600160a01b0383169084907f2f8788117e7eff1d82e926ec794901d17c78024a50270940304540a733656f0d90600090a45050565b6000828152602081815260408083206001600160a01b0385168085529252808320805460ff1916905551339285917ff6391f5c32d9c69d2a47ea670b442974b53935d1edc7fd64eb21e047a839171b9190a45050565b600061065f8383610ecb565b6000610662825490565b6000818152600183016020526040812054610ec357508154600181810184556000848152602080822090930184905584548482528286019093526040902091909155610662565b506000610662565b6000826000018281548110610ee257610ee261119d565b9060005260206000200154905092915050565b6001600160a01b038116811461030357600080fd5b8035610f1581610ef5565b919050565b60008060408385031215610f2d57600080fd5b823591506020830135610f3f81610ef5565b809150509250929050565b600060208284031215610f5c57600080fd5b8135610f6781610ef5565b9392505050565b60008060408385031215610f8157600080fd5b50508035926020909101359150565b60008060008060808587031215610fa657600080fd5b8435935060208501359250604085013591506060850135610fc681610ef5565b939692955090935050565b634e487b7160e01b600052604160045260246000fd5b60008060408385031215610ffa57600080fd5b823567ffffffffffffffff8082111561101257600080fd5b818501915085601f83011261102657600080fd5b813560208282111561103a5761103a610fd1565b8160051b604051601f19603f8301168101818110868211171561105f5761105f610fd1565b60405292835281830193508481018201928984111561107d57600080fd5b948201945b8386101561109b57853585529482019493820193611082565b96506110aa9050878201610f0a565b9450505050509250929050565b6000602082840312156110c957600080fd5b5035919050565b6000806000606084860312156110e557600080fd5b833592506020840135915060408401356110fe81610ef5565b809150509250925092565b600060208083528351808285015260005b818110156111365785810183015185820160400152820161111a565b81811115611148576000604083870101525b50601f01601f1916929092016040019392505050565b60006020828403121561117057600080fd5b8151610f6781610ef5565b60006020828403121561118d57600080fd5b81518015158114610f6757600080fd5b634e487b7160e01b600052603260045260246000fd5b60006000198214156111d557634e487b7160e01b600052601160045260246000fd5b5060010190565b6000602082840312156111ee57600080fd5b505191905056fea2646970667358221220f0c52cd78c27c25912d956528075d43ef70e381203050c565c1a6fb5dff42de664736f6c63430008090033",
  "linkReferences": {},
  "deployedLinkReferences": {}
}