{
  "_format": "hh-sol-artifact-1",
  "contractName": "AmmConvexGauge",
  "sourceName": "contracts/tokenomics/AmmConvexGauge.sol",
  "abi": [
    {
      "inputs": [
        {
          "internalType": "contract IController",
          "name": "_controller",
          "type": "address"
        },
        {
          "internalType": "address",
          "name": "_ammToken",
          "type": "address"
        },
        {
          "internalType": "uint256",
          "name": "_bkdPoolPID",
          "type": "uint256"
        },
        {
          "internalType": "address",
          "name": "_crv",
          "type": "address"
        },
        {
          "internalType": "address",
          "name": "_cvx",
          "type": "address"
        },
        {
          "internalType": "address",
          "name": "_booster",
          "type": "address"
        }
      ],
      "stateMutability": "nonpayable",
      "type": "constructor"
    },
    {
      "anonymous": false,
      "inputs": [
        {
          "indexed": true,
          "internalType": "address",
          "name": "account",
          "type": "address"
        },
        {
          "indexed": true,
          "internalType": "address",
          "name": "token",
          "type": "address"
        },
        {
          "indexed": false,
          "internalType": "uint256",
          "name": "amount",
          "type": "uint256"
        }
      ],
      "name": "AmmStaked",
      "type": "event"
    },
    {
      "anonymous": false,
      "inputs": [
        {
          "indexed": true,
          "internalType": "address",
          "name": "account",
          "type": "address"
        },
        {
          "indexed": true,
          "internalType": "address",
          "name": "token",
          "type": "address"
        },
        {
          "indexed": false,
          "internalType": "uint256",
          "name": "amount",
          "type": "uint256"
        }
      ],
      "name": "AmmUnstaked",
      "type": "event"
    },
    {
      "anonymous": false,
      "inputs": [
        {
          "indexed": true,
          "internalType": "address",
          "name": "beneficiary",
          "type": "address"
        },
        {
          "indexed": false,
          "internalType": "uint256",
          "name": "bkdAmount",
          "type": "uint256"
        },
        {
          "indexed": false,
          "internalType": "uint256",
          "name": "crvAmount",
          "type": "uint256"
        },
        {
          "indexed": false,
          "internalType": "uint256",
          "name": "cvxAmount",
          "type": "uint256"
        }
      ],
      "name": "RewardClaimed",
      "type": "event"
    },
    {
      "anonymous": false,
      "inputs": [
        {
          "indexed": true,
          "internalType": "address",
          "name": "account",
          "type": "address"
        },
        {
          "indexed": false,
          "internalType": "uint256",
          "name": "amount",
          "type": "uint256"
        }
      ],
      "name": "RewardClaimed",
      "type": "event"
    },
    {
      "inputs": [
        {
          "internalType": "address",
          "name": "user",
          "type": "address"
        }
      ],
      "name": "allClaimableRewards",
      "outputs": [
        {
          "internalType": "uint256[3]",
          "name": "",
          "type": "uint256[3]"
        }
      ],
      "stateMutability": "view",
      "type": "function"
    },
    {
      "inputs": [],
      "name": "ammLastUpdated",
      "outputs": [
        {
          "internalType": "uint48",
          "name": "",
          "type": "uint48"
        }
      ],
      "stateMutability": "view",
      "type": "function"
    },
    {
      "inputs": [],
      "name": "ammStakedIntegral",
      "outputs": [
        {
          "internalType": "uint256",
          "name": "",
          "type": "uint256"
        }
      ],
      "stateMutability": "view",
      "type": "function"
    },
    {
      "inputs": [],
      "name": "ammToken",
      "outputs": [
        {
          "internalType": "address",
          "name": "",
          "type": "address"
        }
      ],
      "stateMutability": "view",
      "type": "function"
    },
    {
      "inputs": [
        {
          "internalType": "address",
          "name": "",
          "type": "address"
        }
      ],
      "name": "balances",
      "outputs": [
        {
          "internalType": "uint256",
          "name": "",
          "type": "uint256"
        }
      ],
      "stateMutability": "view",
      "type": "function"
    },
    {
      "inputs": [],
      "name": "bkdPoolPID",
      "outputs": [
        {
          "internalType": "uint256",
          "name": "",
          "type": "uint256"
        }
      ],
      "stateMutability": "view",
      "type": "function"
    },
    {
      "inputs": [],
      "name": "booster",
      "outputs": [
        {
          "internalType": "address",
          "name": "",
          "type": "address"
        }
      ],
      "stateMutability": "view",
      "type": "function"
    },
    {
      "inputs": [
        {
          "internalType": "address",
          "name": "beneficiary",
          "type": "address"
        }
      ],
      "name": "claimRewards",
      "outputs": [
        {
          "internalType": "uint256",
          "name": "",
          "type": "uint256"
        }
      ],
      "stateMutability": "nonpayable",
      "type": "function"
    },
    {
      "inputs": [
        {
          "internalType": "address",
          "name": "user",
          "type": "address"
        }
      ],
      "name": "claimableRewards",
      "outputs": [
        {
          "internalType": "uint256",
          "name": "",
          "type": "uint256"
        }
      ],
      "stateMutability": "view",
      "type": "function"
    },
    {
      "inputs": [],
      "name": "controller",
      "outputs": [
        {
          "internalType": "contract IController",
          "name": "",
          "type": "address"
        }
      ],
      "stateMutability": "view",
      "type": "function"
    },
    {
      "inputs": [],
      "name": "crv",
      "outputs": [
        {
          "internalType": "address",
          "name": "",
          "type": "address"
        }
      ],
      "stateMutability": "view",
      "type": "function"
    },
    {
      "inputs": [],
      "name": "crvRewardsContract",
      "outputs": [
        {
          "internalType": "contract IRewardStaking",
          "name": "",
          "type": "address"
        }
      ],
      "stateMutability": "view",
      "type": "function"
    },
    {
      "inputs": [],
      "name": "crvStakedIntegral",
      "outputs": [
        {
          "internalType": "uint256",
          "name": "",
          "type": "uint256"
        }
      ],
      "stateMutability": "view",
      "type": "function"
    },
    {
      "inputs": [],
      "name": "cvx",
      "outputs": [
        {
          "internalType": "address",
          "name": "",
          "type": "address"
        }
      ],
      "stateMutability": "view",
      "type": "function"
    },
    {
      "inputs": [],
      "name": "cvxStakedIntegral",
      "outputs": [
        {
          "internalType": "uint256",
          "name": "",
          "type": "uint256"
        }
      ],
      "stateMutability": "view",
      "type": "function"
    },
    {
      "inputs": [],
      "name": "deactivateInflationRecipient",
      "outputs": [],
      "stateMutability": "nonpayable",
      "type": "function"
    },
    {
      "inputs": [],
      "name": "getAmmToken",
      "outputs": [
        {
          "internalType": "address",
          "name": "",
          "type": "address"
        }
      ],
      "stateMutability": "view",
      "type": "function"
    },
    {
      "inputs": [
        {
          "internalType": "uint256",
          "name": "crvEarned",
          "type": "uint256"
        }
      ],
      "name": "getCvxMintAmount",
      "outputs": [
        {
          "internalType": "uint256",
          "name": "",
          "type": "uint256"
        }
      ],
      "stateMutability": "view",
      "type": "function"
    },
    {
      "inputs": [],
      "name": "inflationRecipient",
      "outputs": [
        {
          "internalType": "address",
          "name": "",
          "type": "address"
        }
      ],
      "stateMutability": "view",
      "type": "function"
    },
    {
      "inputs": [
        {
          "internalType": "address",
          "name": "token",
          "type": "address"
        }
      ],
      "name": "isAmmToken",
      "outputs": [
        {
          "internalType": "bool",
          "name": "",
          "type": "bool"
        }
      ],
      "stateMutability": "view",
      "type": "function"
    },
    {
      "inputs": [],
      "name": "kill",
      "outputs": [
        {
          "internalType": "bool",
          "name": "",
          "type": "bool"
        }
      ],
      "stateMutability": "nonpayable",
      "type": "function"
    },
    {
      "inputs": [],
      "name": "killed",
      "outputs": [
        {
          "internalType": "bool",
          "name": "",
          "type": "bool"
        }
      ],
      "stateMutability": "view",
      "type": "function"
    },
    {
      "inputs": [
        {
          "internalType": "address",
          "name": "",
          "type": "address"
        }
      ],
      "name": "perUserCrvStakedIntegral",
      "outputs": [
        {
          "internalType": "uint256",
          "name": "",
          "type": "uint256"
        }
      ],
      "stateMutability": "view",
      "type": "function"
    },
    {
      "inputs": [
        {
          "internalType": "address",
          "name": "",
          "type": "address"
        }
      ],
      "name": "perUserCvxStakedIntegral",
      "outputs": [
        {
          "internalType": "uint256",
          "name": "",
          "type": "uint256"
        }
      ],
      "stateMutability": "view",
      "type": "function"
    },
    {
      "inputs": [
        {
          "internalType": "address",
          "name": "",
          "type": "address"
        }
      ],
      "name": "perUserShare",
      "outputs": [
        {
          "internalType": "uint256",
          "name": "",
          "type": "uint256"
        }
      ],
      "stateMutability": "view",
      "type": "function"
    },
    {
      "inputs": [
        {
          "internalType": "address",
          "name": "",
          "type": "address"
        }
      ],
      "name": "perUserShareCrv",
      "outputs": [
        {
          "internalType": "uint256",
          "name": "",
          "type": "uint256"
        }
      ],
      "stateMutability": "view",
      "type": "function"
    },
    {
      "inputs": [
        {
          "internalType": "address",
          "name": "",
          "type": "address"
        }
      ],
      "name": "perUserShareCvx",
      "outputs": [
        {
          "internalType": "uint256",
          "name": "",
          "type": "uint256"
        }
      ],
      "stateMutability": "view",
      "type": "function"
    },
    {
      "inputs": [
        {
          "internalType": "address",
          "name": "",
          "type": "address"
        }
      ],
      "name": "perUserStakedIntegral",
      "outputs": [
        {
          "internalType": "uint256",
          "name": "",
          "type": "uint256"
        }
      ],
      "stateMutability": "view",
      "type": "function"
    },
    {
      "inputs": [],
      "name": "poolCheckpoint",
      "outputs": [
        {
          "internalType": "bool",
          "name": "",
          "type": "bool"
        }
      ],
      "stateMutability": "nonpayable",
      "type": "function"
    },
    {
      "inputs": [],
      "name": "roleManager",
      "outputs": [
        {
          "internalType": "contract IRoleManager",
          "name": "",
          "type": "address"
        }
      ],
      "stateMutability": "view",
      "type": "function"
    },
    {
      "inputs": [
        {
          "internalType": "address",
          "name": "recipient",
          "type": "address"
        }
      ],
      "name": "setInflationRecipient",
      "outputs": [],
      "stateMutability": "nonpayable",
      "type": "function"
    },
    {
      "inputs": [
        {
          "internalType": "uint256",
          "name": "amount",
          "type": "uint256"
        }
      ],
      "name": "stake",
      "outputs": [
        {
          "internalType": "bool",
          "name": "",
          "type": "bool"
        }
      ],
      "stateMutability": "nonpayable",
      "type": "function"
    },
    {
      "inputs": [
        {
          "internalType": "address",
          "name": "account",
          "type": "address"
        },
        {
          "internalType": "uint256",
          "name": "amount",
          "type": "uint256"
        }
      ],
      "name": "stakeFor",
      "outputs": [
        {
          "internalType": "bool",
          "name": "",
          "type": "bool"
        }
      ],
      "stateMutability": "nonpayable",
      "type": "function"
    },
    {
      "inputs": [],
      "name": "totalStaked",
      "outputs": [
        {
          "internalType": "uint256",
          "name": "",
          "type": "uint256"
        }
      ],
      "stateMutability": "view",
      "type": "function"
    },
    {
      "inputs": [
        {
          "internalType": "uint256",
          "name": "amount",
          "type": "uint256"
        }
      ],
      "name": "unstake",
      "outputs": [
        {
          "internalType": "bool",
          "name": "",
          "type": "bool"
        }
      ],
      "stateMutability": "nonpayable",
      "type": "function"
    },
    {
      "inputs": [
        {
          "internalType": "address",
          "name": "dst",
          "type": "address"
        },
        {
          "internalType": "uint256",
          "name": "amount",
          "type": "uint256"
        }
      ],
      "name": "unstakeFor",
      "outputs": [
        {
          "internalType": "bool",
          "name": "",
          "type": "bool"
        }
      ],
      "stateMutability": "nonpayable",
      "type": "function"
    }
  ],
  "bytecode": "0x6101806040523480156200001257600080fd5b50604051620033e2380380620033e2833981016040819052620000359162000671565b8585620000ca826001600160a01b0316632954018c6040518163ffffffff1660e01b815260040160206040518083038186803b1580156200007557600080fd5b505afa1580156200008a573d6000803e3d6000fd5b505050506040513d601f19601f82011682018060405250810190620000b09190620006f9565b6001600160a01b0316620001f060201b6200217f1760201c565b6001600160a01b0390811660805290811660c05290811660a0526005805466ffffffffffff0019166101004265ffffffffffff1681029190911790915583821660e05284821690528116610120819052610140859052604051631526fe2760e01b81526004810186905260009190631526fe279060240160c06040518083038186803b1580156200015a57600080fd5b505afa1580156200016f573d6000803e3d6000fd5b505050506040513d601f19601f820116820180604052508101906200019591906200072f565b50509350505050806001600160a01b0316610160816001600160a01b031681525050620001e36101205160001960c0516001600160a01b03166200028260201b62002207179092919060201c565b505050505050506200087c565b6040516321f8a72160e01b81526a3937b632a6b0b730b3b2b960a91b60048201526000906001600160a01b038316906321f8a7219060240160206040518083038186803b1580156200024157600080fd5b505afa15801562000256573d6000803e3d6000fd5b505050506040513d601f19601f820116820180604052508101906200027c9190620006f9565b92915050565b801580620003105750604051636eb1769f60e11b81523060048201526001600160a01b03838116602483015284169063dd62ed3e9060440160206040518083038186803b158015620002d357600080fd5b505afa158015620002e8573d6000803e3d6000fd5b505050506040513d601f19601f820116820180604052508101906200030e9190620007be565b155b620003885760405162461bcd60e51b815260206004820152603660248201527f5361666545524332303a20617070726f76652066726f6d206e6f6e2d7a65726f60448201527f20746f206e6f6e2d7a65726f20616c6c6f77616e63650000000000000000000060648201526084015b60405180910390fd5b604080516001600160a01b038416602482015260448082018490528251808303909101815260649091019091526020810180516001600160e01b0390811663095ea7b360e01b17909152620003e0918591620003e516565b505050565b600062000441826040518060400160405280602081526020017f5361666545524332303a206c6f772d6c6576656c2063616c6c206661696c6564815250856001600160a01b0316620004c360201b62002363179092919060201c565b805190915015620003e05780806020019051810190620004629190620007d8565b620003e05760405162461bcd60e51b815260206004820152602a60248201527f5361666545524332303a204552433230206f7065726174696f6e20646964206e6044820152691bdd081cdd58d8d9595960b21b60648201526084016200037f565b6060620004d48484600085620004de565b90505b9392505050565b606082471015620005415760405162461bcd60e51b815260206004820152602660248201527f416464726573733a20696e73756666696369656e742062616c616e636520666f6044820152651c8818d85b1b60d21b60648201526084016200037f565b6001600160a01b0385163b6200059a5760405162461bcd60e51b815260206004820152601d60248201527f416464726573733a2063616c6c20746f206e6f6e2d636f6e747261637400000060448201526064016200037f565b600080866001600160a01b03168587604051620005b8919062000829565b60006040518083038185875af1925050503d8060008114620005f7576040519150601f19603f3d011682016040523d82523d6000602084013e620005fc565b606091505b5090925090506200060f8282866200061a565b979650505050505050565b606083156200062b575081620004d7565b8251156200063c5782518084602001fd5b8160405162461bcd60e51b81526004016200037f919062000847565b6001600160a01b03811681146200066e57600080fd5b50565b60008060008060008060c087890312156200068b57600080fd5b8651620006988162000658565b6020880151909650620006ab8162000658565b604088015160608901519196509450620006c58162000658565b6080880151909350620006d88162000658565b60a0880151909250620006eb8162000658565b809150509295509295509295565b6000602082840312156200070c57600080fd5b8151620004d78162000658565b805180151581146200072a57600080fd5b919050565b60008060008060008060c087890312156200074957600080fd5b8651620007568162000658565b6020880151909650620007698162000658565b60408801519095506200077c8162000658565b60608801519094506200078f8162000658565b6080880151909350620007a28162000658565b9150620007b260a0880162000719565b90509295509295509295565b600060208284031215620007d157600080fd5b5051919050565b600060208284031215620007eb57600080fd5b620004d78262000719565b60005b8381101562000813578181015183820152602001620007f9565b8381111562000823576000848401525b50505050565b600082516200083d818460208701620007f6565b9190910192915050565b602081526000825180602084015262000868816040850160208701620007f6565b601f01601f19169190910160400192915050565b60805160a05160c05160e05161010051610120516101405161016051612a20620009c2600039600081816104c80152818161066f01528181610f560152818161144a0152611e870152600081816105500152610d0f01526000818161050f0152610d430152600081816103f101528181610700015281816114db0152818161203301526120a50152600081816104560152612069015260008181610361015281816104a1015281816105ef0152818161088d01528181610a3801528181610cd801528181610e1201528181610fe801528181611054015281816113a401528181611a880152611c1a0152600081816105bd015281816107e701528181610992015281816111bc015281816112fe015281816119e201528181611b740152611f4301526000818161022201528181611695015281816118220152611d340152612a206000f3fe608060405234801561001057600080fd5b506004361061021b5760003560e01c80637704007f11610125578063c42edf46116100ad578063dc01f60d1161007c578063dc01f60d14610572578063ef5cfb8c14610585578063f4dffc2e14610598578063f77c4791146105b8578063fa3f8f1b146105df57600080fd5b8063c42edf46146104ea578063c6def0761461050a578063d6c4a81914610531578063da9b5c591461054b57600080fd5b806398af470e116100f457806398af470e14610478578063a3db1abb14610480578063a694fc3a14610489578063ac7931391461049c578063be741ada146104c357600080fd5b80637704007f14610413578063817b1cd214610428578063870cf99f14610431578063923c1d611461045157600080fd5b806336ef088c116101a85780635790a0c8116101775780635790a0c81461038d578063648fe86614610395578063654b911b1461039e57806367673084146103cc5780636a4874a1146103ec57600080fd5b806336ef088c146103395780633778851e1461034c5780633b2caf551461035f57806341c0e1b51461038557600080fd5b806327e235e3116101ef57806327e235e3146102b357806329812972146102d35780632e17de78146102f35780632ee4090814610306578063308ad3701461031957600080fd5b8062435da514610220578063022cfc251461025f5780631ed4ff8d146102765780631f3a0e4114610296575b600080fd5b7f00000000000000000000000000000000000000000000000000000000000000005b6040516001600160a01b0390911681526020015b60405180910390f35b61026860075481565b604051908152602001610256565b6102686102843660046127fe565b600a6020526000908152604090205481565b6005546102a39060ff1681565b6040519015158152602001610256565b6102686102c13660046127fe565b60006020819052908152604090205481565b6102e66102e13660046127fe565b61061f565b604051610256919061281b565b6102a361030136600461284c565b610c5b565b6102a3610314366004612865565b610c6d565b6102686103273660046127fe565b600b6020526000908152604090205481565b6102a3610347366004612865565b610e86565b61026861035a36600461284c565b6110a9565b7f0000000000000000000000000000000000000000000000000000000000000000610242565b6102a36111b8565b6102a36112c7565b61026860065481565b6005546103b590610100900465ffffffffffff1681565b60405165ffffffffffff9091168152602001610256565b6102686103da3660046127fe565b60036020526000908152604090205481565b6102427f000000000000000000000000000000000000000000000000000000000000000081565b6104266104213660046127fe565b611693565b005b61026860025481565b61026861043f3660046127fe565b60046020526000908152604090205481565b6102427f000000000000000000000000000000000000000000000000000000000000000081565b610426611820565b61026860015481565b6102a361049736600461284c565b611990565b6102427f000000000000000000000000000000000000000000000000000000000000000081565b6102427f000000000000000000000000000000000000000000000000000000000000000081565b6102686104f83660046127fe565b60096020526000908152604090205481565b6102427f000000000000000000000000000000000000000000000000000000000000000081565b60055461024290600160381b90046001600160a01b031681565b6102687f000000000000000000000000000000000000000000000000000000000000000081565b6102686105803660046127fe565b61199c565b6102686105933660046127fe565b611d1e565b6102686105a63660046127fe565b60086020526000908152604090205481565b6102427f000000000000000000000000000000000000000000000000000000000000000081565b6102a36105ed3660046127fe565b7f00000000000000000000000000000000000000000000000000000000000000006001600160a01b0390811691161490565b6106276127c8565b60015460065460075460055460009061064d90610100900465ffffffffffff16426128a7565b6040516246613160e11b81523060048201529091506000906001600160a01b037f00000000000000000000000000000000000000000000000000000000000000001690628cc2629060240160206040518083038186803b1580156106b057600080fd5b505afa1580156106c4573d6000803e3d6000fd5b505050506040513d601f19601f820116820180604052508101906106e891906128be565b600e546040516370a0823160e01b81523060048201527f00000000000000000000000000000000000000000000000000000000000000006001600160a01b0316906370a082319060240160206040518083038186803b15801561074a57600080fd5b505afa15801561075e573d6000803e3d6000fd5b505050506040513d601f19601f8201168201806040525081019061078291906128be565b61078c91906128a7565b61079691906128d7565b905060006107a3826110a9565b60055490915060ff161580156107bb57506000600254115b1561096f57600554600160381b90046001600160a01b0316610928576002546107e590849061237c565b7f00000000000000000000000000000000000000000000000000000000000000006001600160a01b031663dbcd89fa6040518163ffffffff1660e01b815260040160206040518083038186803b15801561083e57600080fd5b505afa158015610852573d6000803e3d6000fd5b505050506040513d601f19601f8201168201806040525081019061087691906128ef565b604051633da3c28f60e01b81526001600160a01b037f0000000000000000000000000000000000000000000000000000000000000000811660048301529190911690633da3c28f9060240160206040518083038186803b1580156108d957600080fd5b505afa1580156108ed573d6000803e3d6000fd5b505050506040513d601f19601f8201168201806040525081019061091191906128be565b61091b919061290c565b61092590876128d7565b95505b610942600254600c548461093c91906128a7565b9061237c565b61094c90866128d7565b9450610962600254600d548361093c91906128a7565b61096c90856128d7565b93505b6005546000906001600160a01b038a8116600160381b909204161415610af057837f00000000000000000000000000000000000000000000000000000000000000006001600160a01b031663dbcd89fa6040518163ffffffff1660e01b815260040160206040518083038186803b1580156109e957600080fd5b505afa1580156109fd573d6000803e3d6000fd5b505050506040513d601f19601f82011682018060405250810190610a2191906128ef565b604051633da3c28f60e01b81526001600160a01b037f0000000000000000000000000000000000000000000000000000000000000000811660048301529190911690633da3c28f9060240160206040518083038186803b158015610a8457600080fd5b505afa158015610a98573d6000803e3d6000fd5b505050506040513d601f19601f82011682018060405250810190610abc91906128be565b610ac6919061290c565b6001600160a01b038a16600090815260046020526040902054610ae991906128d7565b9050610b5c565b6001600160a01b038916600090815260036020526040902054610b3690610b1790896128a7565b6001600160a01b038b166000908152602081905260409020549061239b565b6001600160a01b038a16600090815260046020526040902054610b5991906128d7565b90505b6001600160a01b038916600090815260086020526040812054610ba290610b8390896128a7565b6001600160a01b038c166000908152602081905260409020549061239b565b6001600160a01b038b166000908152600a6020526040902054610bc591906128d7565b6001600160a01b038b1660009081526009602052604081205491925090610c0f90610bf090896128a7565b6001600160a01b038d166000908152602081905260409020549061239b565b6001600160a01b038c166000908152600b6020526040902054610c3291906128d7565b604080516060810182529485526020850193909352918301919091525098975050505050505050565b6000610c673383610e86565b92915050565b60008082116040518060400160405280600e81526020016d1a5b9d985b1a5908185b5bdd5b9d60921b81525090610cc05760405162461bcd60e51b8152600401610cb79190612957565b60405180910390fd5b50610cca836123b0565b50610d006001600160a01b037f00000000000000000000000000000000000000000000000000000000000000001633308561251e565b6040516321d0683360e11b81527f0000000000000000000000000000000000000000000000000000000000000000600482015260248101839052600160448201527f00000000000000000000000000000000000000000000000000000000000000006001600160a01b0316906343a0d06690606401602060405180830381600087803b158015610d8f57600080fd5b505af1158015610da3573d6000803e3d6000fd5b505050506040513d601f19601f82011682018060405250810190610dc7919061298a565b506001600160a01b03831660009081526020819052604081208054849290610df09084906128d7565b925050819055508160026000828254610e0991906128d7565b925050819055507f00000000000000000000000000000000000000000000000000000000000000006001600160a01b0316836001600160a01b03167fe50e01a006e0e13d78357108d064628dc8a6abf6ac87e5272b2f720bd83c910284604051610e7591815260200190565b60405180910390a350600192915050565b60008082116040518060400160405280600e81526020016d1a5b9d985b1a5908185b5bdd5b9d60921b81525090610ed05760405162461bcd60e51b8152600401610cb79190612957565b5033600090815260208181526040918290205482518084019093526014835273696e73756666696369656e742062616c616e636560601b91830191909152831115610f2e5760405162461bcd60e51b8152600401610cb79190612957565b50610f38336123b0565b50604051636197390160e11b815260048101839052600060248201527f00000000000000000000000000000000000000000000000000000000000000006001600160a01b03169063c32e720290604401602060405180830381600087803b158015610fa257600080fd5b505af1158015610fb6573d6000803e3d6000fd5b505050506040513d601f19601f82011682018060405250810190610fda919061298a565b5061100f6001600160a01b037f000000000000000000000000000000000000000000000000000000000000000016848461255c565b336000908152602081905260408120805484929061102e9084906128a7565b92505081905550816002600082825461104791906128a7565b90915550506040518281527f00000000000000000000000000000000000000000000000000000000000000006001600160a01b03169033907f6a3d96108f8ba7846f5d2c24c6409830e6e16d8ab9c1e4f17059cb74ee9092f790602001610e75565b600080734e3fbd56cd56c3e72c1403e103b45db9da5b9d2b6001600160a01b03166318160ddd6040518163ffffffff1660e01b815260040160206040518083038186803b1580156110f957600080fd5b505afa15801561110d573d6000803e3d6000fd5b505050506040513d601f19601f8201168201806040525081019061113191906128be565b9050600061114969152d02c7e14af6800000836129ac565b90506103e8811061115e575060009392505050565b600061116c826103e86128a7565b905060006103e861117d838861290c565b61118791906129ac565b905060006111a0856a52b7d2dcc80cd2e40000006128a7565b9050808211156111ae578091505b5095945050505050565b60007f00000000000000000000000000000000000000000000000000000000000000006001600160a01b031663dbcd89fa6040518163ffffffff1660e01b815260040160206040518083038186803b15801561121357600080fd5b505afa158015611227573d6000803e3d6000fd5b505050506040513d601f19601f8201168201806040525081019061124b91906128ef565b6001600160a01b0316336001600160a01b03161460405180604001604052806013815260200172756e617574686f72697a65642061636365737360681b815250906112a95760405162461bcd60e51b8152600401610cb79190612957565b506112b26112c7565b50506005805460ff1916600190811790915590565b60055460009060ff16156112db5750600090565b6005546000906112f890610100900465ffffffffffff16426128a7565b905060007f00000000000000000000000000000000000000000000000000000000000000006001600160a01b031663dbcd89fa6040518163ffffffff1660e01b815260040160206040518083038186803b15801561135557600080fd5b505afa158015611369573d6000803e3d6000fd5b505050506040513d601f19601f8201168201806040525081019061138d91906128ef565b604051633da3c28f60e01b81526001600160a01b037f0000000000000000000000000000000000000000000000000000000000000000811660048301529190911690633da3c28f9060240160206040518083038186803b1580156113f057600080fd5b505afa158015611404573d6000803e3d6000fd5b505050506040513d601f19601f8201168201806040525081019061142891906128be565b6040516246613160e11b81523060048201529091506000906001600160a01b037f00000000000000000000000000000000000000000000000000000000000000001690628cc2629060240160206040518083038186803b15801561148b57600080fd5b505afa15801561149f573d6000803e3d6000fd5b505050506040513d601f19601f820116820180604052508101906114c391906128be565b600e546040516370a0823160e01b81523060048201527f00000000000000000000000000000000000000000000000000000000000000006001600160a01b0316906370a082319060240160206040518083038186803b15801561152557600080fd5b505afa158015611539573d6000803e3d6000fd5b505050506040513d601f19601f8201168201806040525081019061155d91906128be565b61156791906128a7565b61157191906128d7565b9050600061157e826110a9565b6002549091501561166457600554600160381b90046001600160a01b03166115cd576002546115b19061093c868661290c565b600160008282546115c291906128d7565b9091555061160e9050565b6115d7848461290c565b600554600160381b90046001600160a01b0316600090815260046020526040812080549091906116089084906128d7565b90915550505b611622600254600c548461093c91906128a7565b6006600082825461163391906128d7565b9091555050600254600d5461164d919061093c90846128a7565b6007600082825461165e91906128d7565b90915550505b600c91909155600d5550506005805466ffffffffffff0019166101004265ffffffffffff160217905550600190565b7f0000000000000000000000000000000000000000000000000000000000000000604051632474521560e21b815269676f7665726e616e636560b01b60048201523360248201526001600160a01b0391909116906391d148549060440160206040518083038186803b15801561170857600080fd5b505afa15801561171c573d6000803e3d6000fd5b505050506040513d601f19601f82011682018060405250810190611740919061298a565b60405180604001604052806013815260200172756e617574686f72697a65642061636365737360681b8152509061178a5760405162461bcd60e51b8152600401610cb79190612957565b506005546040805180820190915260168152751059191c995cdcc81a5cc8185b1c9958591e481cd95d60521b602082015290600160381b90046001600160a01b0316156117ea5760405162461bcd60e51b8152600401610cb79190612957565b506117f36112c7565b50600580546001600160a01b03909216600160381b02600160381b600160d81b0319909216919091179055565b7f0000000000000000000000000000000000000000000000000000000000000000604051632474521560e21b815269676f7665726e616e636560b01b60048201523360248201526001600160a01b0391909116906391d148549060440160206040518083038186803b15801561189557600080fd5b505afa1580156118a9573d6000803e3d6000fd5b505050506040513d601f19601f820116820180604052508101906118cd919061298a565b60405180604001604052806013815260200172756e617574686f72697a65642061636365737360681b815250906119175760405162461bcd60e51b8152600401610cb79190612957565b506005546040805180820190915260118152701859191c995cdcc81b9bdd08199bdd5b99607a1b602082015290600160381b90046001600160a01b03166119715760405162461bcd60e51b8152600401610cb79190612957565b5061197a6112c7565b5060058054600160381b600160d81b0319169055565b6000610c673383610c6d565b6001546005546000919082906119bf90610100900465ffffffffffff16426128a7565b6005549091506001600160a01b03858116600160381b909204161415611b4a57807f00000000000000000000000000000000000000000000000000000000000000006001600160a01b031663dbcd89fa6040518163ffffffff1660e01b815260040160206040518083038186803b158015611a3957600080fd5b505afa158015611a4d573d6000803e3d6000fd5b505050506040513d601f19601f82011682018060405250810190611a7191906128ef565b604051633da3c28f60e01b81526001600160a01b037f0000000000000000000000000000000000000000000000000000000000000000811660048301529190911690633da3c28f9060240160206040518083038186803b158015611ad457600080fd5b505afa158015611ae8573d6000803e3d6000fd5b505050506040513d601f19601f82011682018060405250810190611b0c91906128be565b611b16919061290c565b600554600160381b90046001600160a01b0316600090815260046020526040902054611b4291906128d7565b949350505050565b60055460ff16158015611b5f57506000600254115b15611cb557600254611b7290829061237c565b7f00000000000000000000000000000000000000000000000000000000000000006001600160a01b031663dbcd89fa6040518163ffffffff1660e01b815260040160206040518083038186803b158015611bcb57600080fd5b505afa158015611bdf573d6000803e3d6000fd5b505050506040513d601f19601f82011682018060405250810190611c0391906128ef565b604051633da3c28f60e01b81526001600160a01b037f0000000000000000000000000000000000000000000000000000000000000000811660048301529190911690633da3c28f9060240160206040518083038186803b158015611c6657600080fd5b505afa158015611c7a573d6000803e3d6000fd5b505050506040513d601f19601f82011682018060405250810190611c9e91906128be565b611ca8919061290c565b611cb290836128d7565b91505b6001600160a01b038416600090815260036020526040902054611cfb90611cdc90846128a7565b6001600160a01b0386166000908152602081905260409020549061239b565b6001600160a01b038516600090815260046020526040902054611b4291906128d7565b6000336001600160a01b0383161480611dde57507f0000000000000000000000000000000000000000000000000000000000000000604051632474521560e21b815268067617567655f7a61760bc1b60048201523360248201526001600160a01b0391909116906391d148549060440160206040518083038186803b158015611da657600080fd5b505afa158015611dba573d6000803e3d6000fd5b505050506040513d601f19601f82011682018060405250810190611dde919061298a565b60405180604001604052806013815260200172756e617574686f72697a65642061636365737360681b81525090611e285760405162461bcd60e51b8152600401610cb79190612957565b50611e32826123b0565b506001600160a01b038216600090815260046020908152604080832054600a835281842054600b90935292205482158015611e6b575081155b8015611e75575080155b15611e8557506000949350505050565b7f00000000000000000000000000000000000000000000000000000000000000006001600160a01b0316633d18b9126040518163ffffffff1660e01b8152600401600060405180830381600087803b158015611ee057600080fd5b505af1158015611ef4573d6000803e3d6000fd5b50506000600c819055600d8190556001600160a01b038089168252600460208181526040808520859055600a8252808520859055600b8252808520949094558351636de6c4fd60e11b815293517f0000000000000000000000000000000000000000000000000000000000000000909316955063dbcd89fa94508382019390929190829003018186803b158015611f8a57600080fd5b505afa158015611f9e573d6000803e3d6000fd5b505050506040513d601f19601f82011682018060405250810190611fc291906128ef565b6040516335106f4960e11b81526001600160a01b038781166004830152602482018690529190911690636a20de9290604401600060405180830381600087803b15801561200e57600080fd5b505af1158015612022573d6000803e3d6000fd5b5061205c9250506001600160a01b037f0000000000000000000000000000000000000000000000000000000000000000169050868461255c565b6120906001600160a01b037f000000000000000000000000000000000000000000000000000000000000000016868361255c565b6040516370a0823160e01b81523060048201527f00000000000000000000000000000000000000000000000000000000000000006001600160a01b0316906370a082319060240160206040518083038186803b1580156120ef57600080fd5b505afa158015612103573d6000803e3d6000fd5b505050506040513d601f19601f8201168201806040525081019061212791906128be565b600e5560408051848152602081018490529081018290526001600160a01b038616907f812be816db82c66cd18ca8457005cd84689642d8ac4d38599cc6af444a2dc72a9060600160405180910390a250909392505050565b6040516321f8a72160e01b81526a3937b632a6b0b730b3b2b960a91b60048201526000906001600160a01b038316906321f8a7219060240160206040518083038186803b1580156121cf57600080fd5b505afa1580156121e3573d6000803e3d6000fd5b505050506040513d601f19601f82011682018060405250810190610c6791906128ef565b8015806122905750604051636eb1769f60e11b81523060048201526001600160a01b03838116602483015284169063dd62ed3e9060440160206040518083038186803b15801561225657600080fd5b505afa15801561226a573d6000803e3d6000fd5b505050506040513d601f19601f8201168201806040525081019061228e91906128be565b155b6122fb5760405162461bcd60e51b815260206004820152603660248201527f5361666545524332303a20617070726f76652066726f6d206e6f6e2d7a65726f60448201527520746f206e6f6e2d7a65726f20616c6c6f77616e636560501b6064820152608401610cb7565b6040516001600160a01b03831660248201526044810182905261235e90849063095ea7b360e01b906064015b60408051601f198184030181529190526020810180516001600160e01b03166001600160e01b03199093169290921790915261258c565b505050565b6060612372848460008561265e565b90505b9392505050565b600081612391670de0b6b3a76400008561290c565b61237591906129ac565b6000670de0b6b3a7640000612391838561290c565b60006123ba6112c7565b506001600160a01b038216600090815260036020526040902054600154612403916123e4916128a7565b6001600160a01b0384166000908152602081905260409020549061239b565b6001600160a01b0383166000908152600460205260408120805490919061242b9084906128d7565b90915550506001600160a01b038216600090815260086020526040902054600654612459916123e4916128a7565b6001600160a01b0383166000908152600a6020526040812080549091906124819084906128d7565b90915550506001600160a01b0382166000908152600960205260409020546007546124af916123e4916128a7565b6001600160a01b0383166000908152600b6020526040812080549091906124d79084906128d7565b9091555050600180546001600160a01b0390931660009081526003602090815260408083209590955560065460088252858320556007546009909152939020929092555090565b6040516001600160a01b03808516602483015283166044820152606481018290526125569085906323b872dd60e01b90608401612327565b50505050565b6040516001600160a01b03831660248201526044810182905261235e90849063a9059cbb60e01b90606401612327565b60006125e1826040518060400160405280602081526020017f5361666545524332303a206c6f772d6c6576656c2063616c6c206661696c6564815250856001600160a01b03166123639092919063ffffffff16565b80519091501561235e57808060200190518101906125ff919061298a565b61235e5760405162461bcd60e51b815260206004820152602a60248201527f5361666545524332303a204552433230206f7065726174696f6e20646964206e6044820152691bdd081cdd58d8d9595960b21b6064820152608401610cb7565b6060824710156126bf5760405162461bcd60e51b815260206004820152602660248201527f416464726573733a20696e73756666696369656e742062616c616e636520666f6044820152651c8818d85b1b60d21b6064820152608401610cb7565b6001600160a01b0385163b6127165760405162461bcd60e51b815260206004820152601d60248201527f416464726573733a2063616c6c20746f206e6f6e2d636f6e74726163740000006044820152606401610cb7565b600080866001600160a01b0316858760405161273291906129ce565b60006040518083038185875af1925050503d806000811461276f576040519150601f19603f3d011682016040523d82523d6000602084013e612774565b606091505b509150915061278482828661278f565b979650505050505050565b6060831561279e575081612375565b8251156127ae5782518084602001fd5b8160405162461bcd60e51b8152600401610cb79190612957565b60405180606001604052806003906020820280368337509192915050565b6001600160a01b03811681146127fb57600080fd5b50565b60006020828403121561281057600080fd5b8135612375816127e6565b60608101818360005b6003811015612843578151835260209283019290910190600101612824565b50505092915050565b60006020828403121561285e57600080fd5b5035919050565b6000806040838503121561287857600080fd5b8235612883816127e6565b946020939093013593505050565b634e487b7160e01b600052601160045260246000fd5b6000828210156128b9576128b9612891565b500390565b6000602082840312156128d057600080fd5b5051919050565b600082198211156128ea576128ea612891565b500190565b60006020828403121561290157600080fd5b8151612375816127e6565b600081600019048311821515161561292657612926612891565b500290565b60005b8381101561294657818101518382015260200161292e565b838111156125565750506000910152565b602081526000825180602084015261297681604085016020870161292b565b601f01601f19169190910160400192915050565b60006020828403121561299c57600080fd5b8151801515811461237557600080fd5b6000826129c957634e487b7160e01b600052601260045260246000fd5b500490565b600082516129e081846020870161292b565b919091019291505056fea26469706673582212200e309f67ea61554070c3980cd6fe31621090d6ca0ce9e09bf9bc9a1d24a7bd2b64736f6c63430008090033",
  "linkReferences": {},
  "deployedLinkReferences": {}
}