{
  "_format": "hh-sol-artifact-1",
  "contractName": "TopUpAction",
  "sourceName": "contracts/actions/topup/TopUpAction.sol",
  "abi": [
    {
      "inputs": [
        {
          "internalType": "contract IController",
          "name": "_controller",
          "type": "address"
        }
      ],
      "stateMutability": "nonpayable",
      "type": "constructor"
    },
    {
      "anonymous": false,
      "inputs": [
        {
          "indexed": true,
          "internalType": "bytes32",
          "name": "key",
          "type": "bytes32"
        },
        {
          "indexed": false,
          "internalType": "address",
          "name": "value",
          "type": "address"
        },
        {
          "indexed": false,
          "internalType": "uint256",
          "name": "delay",
          "type": "uint256"
        }
      ],
      "name": "ConfigPreparedAddress",
      "type": "event"
    },
    {
      "anonymous": false,
      "inputs": [
        {
          "indexed": true,
          "internalType": "bytes32",
          "name": "key",
          "type": "bytes32"
        },
        {
          "indexed": false,
          "internalType": "uint256",
          "name": "value",
          "type": "uint256"
        },
        {
          "indexed": false,
          "internalType": "uint256",
          "name": "delay",
          "type": "uint256"
        }
      ],
      "name": "ConfigPreparedNumber",
      "type": "event"
    },
    {
      "anonymous": false,
      "inputs": [
        {
          "indexed": true,
          "internalType": "bytes32",
          "name": "key",
          "type": "bytes32"
        }
      ],
      "name": "ConfigReset",
      "type": "event"
    },
    {
      "anonymous": false,
      "inputs": [
        {
          "indexed": true,
          "internalType": "bytes32",
          "name": "key",
          "type": "bytes32"
        },
        {
          "indexed": false,
          "internalType": "address",
          "name": "oldValue",
          "type": "address"
        },
        {
          "indexed": false,
          "internalType": "address",
          "name": "newValue",
          "type": "address"
        }
      ],
      "name": "ConfigUpdatedAddress",
      "type": "event"
    },
    {
      "anonymous": false,
      "inputs": [
        {
          "indexed": true,
          "internalType": "bytes32",
          "name": "key",
          "type": "bytes32"
        },
        {
          "indexed": false,
          "internalType": "uint256",
          "name": "oldValue",
          "type": "uint256"
        },
        {
          "indexed": false,
          "internalType": "uint256",
          "name": "newValue",
          "type": "uint256"
        }
      ],
      "name": "ConfigUpdatedNumber",
      "type": "event"
    },
    {
      "anonymous": false,
      "inputs": [
        {
          "indexed": true,
          "internalType": "address",
          "name": "payer",
          "type": "address"
        },
        {
          "indexed": true,
          "internalType": "bytes32",
          "name": "account",
          "type": "bytes32"
        },
        {
          "indexed": true,
          "internalType": "bytes32",
          "name": "protocol",
          "type": "bytes32"
        }
      ],
      "name": "Deregister",
      "type": "event"
    },
    {
      "anonymous": false,
      "inputs": [
        {
          "indexed": true,
          "internalType": "bytes32",
          "name": "account",
          "type": "bytes32"
        },
        {
          "indexed": true,
          "internalType": "bytes32",
          "name": "protocol",
          "type": "bytes32"
        },
        {
          "indexed": true,
          "internalType": "uint256",
          "name": "threshold",
          "type": "uint256"
        },
        {
          "indexed": false,
          "internalType": "address",
          "name": "payer",
          "type": "address"
        },
        {
          "indexed": false,
          "internalType": "address",
          "name": "depositToken",
          "type": "address"
        },
        {
          "indexed": false,
          "internalType": "uint256",
          "name": "depositAmount",
          "type": "uint256"
        },
        {
          "indexed": false,
          "internalType": "address",
          "name": "actionToken",
          "type": "address"
        },
        {
          "indexed": false,
          "internalType": "uint256",
          "name": "singleTopUpAmount",
          "type": "uint256"
        },
        {
          "indexed": false,
          "internalType": "uint256",
          "name": "totalTopUpAmount",
          "type": "uint256"
        },
        {
          "indexed": false,
          "internalType": "uint256",
          "name": "maxGasPrice",
          "type": "uint256"
        },
        {
          "indexed": false,
          "internalType": "bytes",
          "name": "extra",
          "type": "bytes"
        }
      ],
      "name": "Register",
      "type": "event"
    },
    {
      "anonymous": false,
      "inputs": [
        {
          "indexed": true,
          "internalType": "bytes32",
          "name": "account",
          "type": "bytes32"
        },
        {
          "indexed": true,
          "internalType": "bytes32",
          "name": "protocol",
          "type": "bytes32"
        },
        {
          "indexed": true,
          "internalType": "address",
          "name": "payer",
          "type": "address"
        },
        {
          "indexed": false,
          "internalType": "address",
          "name": "depositToken",
          "type": "address"
        },
        {
          "indexed": false,
          "internalType": "uint256",
          "name": "consumedDepositAmount",
          "type": "uint256"
        },
        {
          "indexed": false,
          "internalType": "address",
          "name": "actionToken",
          "type": "address"
        },
        {
          "indexed": false,
          "internalType": "uint256",
          "name": "topupAmount",
          "type": "uint256"
        }
      ],
      "name": "TopUp",
      "type": "event"
    },
    {
      "inputs": [
        {
          "internalType": "address",
          "name": "token",
          "type": "address"
        }
      ],
      "name": "addUsableToken",
      "outputs": [
        {
          "internalType": "bool",
          "name": "",
          "type": "bool"
        }
      ],
      "stateMutability": "nonpayable",
      "type": "function"
    },
    {
      "inputs": [],
      "name": "addressProvider",
      "outputs": [
        {
          "internalType": "contract IAddressProvider",
          "name": "",
          "type": "address"
        }
      ],
      "stateMutability": "view",
      "type": "function"
    },
    {
      "inputs": [],
      "name": "controller",
      "outputs": [
        {
          "internalType": "contract IController",
          "name": "",
          "type": "address"
        }
      ],
      "stateMutability": "view",
      "type": "function"
    },
    {
      "inputs": [
        {
          "internalType": "bytes32",
          "name": "",
          "type": "bytes32"
        }
      ],
      "name": "currentAddresses",
      "outputs": [
        {
          "internalType": "address",
          "name": "",
          "type": "address"
        }
      ],
      "stateMutability": "view",
      "type": "function"
    },
    {
      "inputs": [
        {
          "internalType": "bytes32",
          "name": "",
          "type": "bytes32"
        }
      ],
      "name": "currentUInts256",
      "outputs": [
        {
          "internalType": "uint256",
          "name": "",
          "type": "uint256"
        }
      ],
      "stateMutability": "view",
      "type": "function"
    },
    {
      "inputs": [
        {
          "internalType": "bytes32",
          "name": "",
          "type": "bytes32"
        }
      ],
      "name": "deadlines",
      "outputs": [
        {
          "internalType": "uint256",
          "name": "",
          "type": "uint256"
        }
      ],
      "stateMutability": "view",
      "type": "function"
    },
    {
      "inputs": [
        {
          "internalType": "address",
          "name": "payer",
          "type": "address"
        },
        {
          "internalType": "bytes32",
          "name": "account",
          "type": "bytes32"
        },
        {
          "internalType": "address",
          "name": "beneficiary",
          "type": "address"
        },
        {
          "internalType": "bytes32",
          "name": "protocol",
          "type": "bytes32"
        },
        {
          "internalType": "uint256",
          "name": "maxWeiForGas",
          "type": "uint256"
        }
      ],
      "name": "execute",
      "outputs": [
        {
          "internalType": "bool",
          "name": "",
          "type": "bool"
        }
      ],
      "stateMutability": "nonpayable",
      "type": "function"
    },
    {
      "inputs": [
        {
          "internalType": "address",
          "name": "payer",
          "type": "address"
        },
        {
          "internalType": "bytes32",
          "name": "account",
          "type": "bytes32"
        },
        {
          "internalType": "address",
          "name": "beneficiary",
          "type": "address"
        },
        {
          "internalType": "bytes32",
          "name": "protocol",
          "type": "bytes32"
        }
      ],
      "name": "execute",
      "outputs": [
        {
          "internalType": "bool",
          "name": "",
          "type": "bool"
        }
      ],
      "stateMutability": "nonpayable",
      "type": "function"
    },
    {
      "inputs": [],
      "name": "executeActionFee",
      "outputs": [
        {
          "internalType": "uint256",
          "name": "",
          "type": "uint256"
        }
      ],
      "stateMutability": "nonpayable",
      "type": "function"
    },
    {
      "inputs": [],
      "name": "executeEstimatedGasUsage",
      "outputs": [
        {
          "internalType": "uint256",
          "name": "",
          "type": "uint256"
        }
      ],
      "stateMutability": "nonpayable",
      "type": "function"
    },
    {
      "inputs": [],
      "name": "executeFeeHandler",
      "outputs": [
        {
          "internalType": "address",
          "name": "",
          "type": "address"
        }
      ],
      "stateMutability": "nonpayable",
      "type": "function"
    },
    {
      "inputs": [],
      "name": "executeSwapperSlippage",
      "outputs": [
        {
          "internalType": "uint256",
          "name": "",
          "type": "uint256"
        }
      ],
      "stateMutability": "nonpayable",
      "type": "function"
    },
    {
      "inputs": [
        {
          "internalType": "bytes32",
          "name": "protocol",
          "type": "bytes32"
        }
      ],
      "name": "executeTopUpHandler",
      "outputs": [
        {
          "internalType": "address",
          "name": "",
          "type": "address"
        }
      ],
      "stateMutability": "nonpayable",
      "type": "function"
    },
    {
      "inputs": [],
      "name": "getActionFee",
      "outputs": [
        {
          "internalType": "uint256",
          "name": "",
          "type": "uint256"
        }
      ],
      "stateMutability": "view",
      "type": "function"
    },
    {
      "inputs": [],
      "name": "getEstimatedGasUsage",
      "outputs": [
        {
          "internalType": "uint256",
          "name": "",
          "type": "uint256"
        }
      ],
      "stateMutability": "view",
      "type": "function"
    },
    {
      "inputs": [
        {
          "internalType": "address",
          "name": "payer",
          "type": "address"
        }
      ],
      "name": "getEthRequiredForGas",
      "outputs": [
        {
          "internalType": "uint256",
          "name": "",
          "type": "uint256"
        }
      ],
      "stateMutability": "view",
      "type": "function"
    },
    {
      "inputs": [],
      "name": "getFeeHandler",
      "outputs": [
        {
          "internalType": "address",
          "name": "",
          "type": "address"
        }
      ],
      "stateMutability": "view",
      "type": "function"
    },
    {
      "inputs": [
        {
          "internalType": "bytes32",
          "name": "protocol",
          "type": "bytes32"
        }
      ],
      "name": "getHandler",
      "outputs": [
        {
          "internalType": "address",
          "name": "",
          "type": "address"
        }
      ],
      "stateMutability": "view",
      "type": "function"
    },
    {
      "inputs": [
        {
          "internalType": "bytes32",
          "name": "protocol",
          "type": "bytes32"
        },
        {
          "internalType": "bytes32",
          "name": "account",
          "type": "bytes32"
        },
        {
          "internalType": "bytes",
          "name": "extra",
          "type": "bytes"
        }
      ],
      "name": "getHealthFactor",
      "outputs": [
        {
          "internalType": "uint256",
          "name": "healthFactor",
          "type": "uint256"
        }
      ],
      "stateMutability": "view",
      "type": "function"
    },
    {
      "inputs": [
        {
          "internalType": "address",
          "name": "payer",
          "type": "address"
        },
        {
          "internalType": "bytes32",
          "name": "account",
          "type": "bytes32"
        },
        {
          "internalType": "bytes32",
          "name": "protocol",
          "type": "bytes32"
        }
      ],
      "name": "getPosition",
      "outputs": [
        {
          "components": [
            {
              "internalType": "uint64",
              "name": "threshold",
              "type": "uint64"
            },
            {
              "internalType": "uint64",
              "name": "priorityFee",
              "type": "uint64"
            },
            {
              "internalType": "uint64",
              "name": "maxFee",
              "type": "uint64"
            },
            {
              "internalType": "address",
              "name": "actionToken",
              "type": "address"
            },
            {
              "internalType": "address",
              "name": "depositToken",
              "type": "address"
            },
            {
              "internalType": "uint128",
              "name": "singleTopUpAmount",
              "type": "uint128"
            },
            {
              "internalType": "uint128",
              "name": "totalTopUpAmount",
              "type": "uint128"
            },
            {
              "internalType": "uint128",
              "name": "depositTokenBalance",
              "type": "uint128"
            },
            {
              "internalType": "bytes",
              "name": "extra",
              "type": "bytes"
            }
          ],
          "internalType": "struct ITopUpAction.Record",
          "name": "",
          "type": "tuple"
        }
      ],
      "stateMutability": "view",
      "type": "function"
    },
    {
      "inputs": [],
      "name": "getSupportedProtocols",
      "outputs": [
        {
          "internalType": "bytes32[]",
          "name": "",
          "type": "bytes32[]"
        }
      ],
      "stateMutability": "view",
      "type": "function"
    },
    {
      "inputs": [],
      "name": "getSwapperSlippage",
      "outputs": [
        {
          "internalType": "uint256",
          "name": "",
          "type": "uint256"
        }
      ],
      "stateMutability": "view",
      "type": "function"
    },
    {
      "inputs": [
        {
          "internalType": "bytes32",
          "name": "protocol",
          "type": "bytes32"
        }
      ],
      "name": "getTopUpHandler",
      "outputs": [
        {
          "internalType": "address",
          "name": "",
          "type": "address"
        }
      ],
      "stateMutability": "view",
      "type": "function"
    },
    {
      "inputs": [],
      "name": "getUsableTokens",
      "outputs": [
        {
          "internalType": "address[]",
          "name": "",
          "type": "address[]"
        }
      ],
      "stateMutability": "view",
      "type": "function"
    },
    {
      "inputs": [
        {
          "internalType": "address",
          "name": "payer",
          "type": "address"
        }
      ],
      "name": "getUserPositions",
      "outputs": [
        {
          "components": [
            {
              "internalType": "bytes32",
              "name": "account",
              "type": "bytes32"
            },
            {
              "internalType": "bytes32",
              "name": "protocol",
              "type": "bytes32"
            }
          ],
          "internalType": "struct ITopUpAction.RecordMeta[]",
          "name": "",
          "type": "tuple[]"
        }
      ],
      "stateMutability": "view",
      "type": "function"
    },
    {
      "inputs": [
        {
          "internalType": "address",
          "name": "feeHandler",
          "type": "address"
        },
        {
          "internalType": "bytes32[]",
          "name": "protocols",
          "type": "bytes32[]"
        },
        {
          "internalType": "address[]",
          "name": "handlers",
          "type": "address[]"
        }
      ],
      "name": "initialize",
      "outputs": [],
      "stateMutability": "nonpayable",
      "type": "function"
    },
    {
      "inputs": [
        {
          "internalType": "address",
          "name": "token",
          "type": "address"
        }
      ],
      "name": "isUsable",
      "outputs": [
        {
          "internalType": "bool",
          "name": "",
          "type": "bool"
        }
      ],
      "stateMutability": "view",
      "type": "function"
    },
    {
      "inputs": [
        {
          "internalType": "bytes32",
          "name": "",
          "type": "bytes32"
        }
      ],
      "name": "pendingAddresses",
      "outputs": [
        {
          "internalType": "address",
          "name": "",
          "type": "address"
        }
      ],
      "stateMutability": "view",
      "type": "function"
    },
    {
      "inputs": [
        {
          "internalType": "bytes32",
          "name": "",
          "type": "bytes32"
        }
      ],
      "name": "pendingUInts256",
      "outputs": [
        {
          "internalType": "uint256",
          "name": "",
          "type": "uint256"
        }
      ],
      "stateMutability": "view",
      "type": "function"
    },
    {
      "inputs": [
        {
          "internalType": "uint256",
          "name": "newActionFee",
          "type": "uint256"
        }
      ],
      "name": "prepareActionFee",
      "outputs": [
        {
          "internalType": "bool",
          "name": "",
          "type": "bool"
        }
      ],
      "stateMutability": "nonpayable",
      "type": "function"
    },
    {
      "inputs": [
        {
          "internalType": "uint256",
          "name": "gasUsage",
          "type": "uint256"
        }
      ],
      "name": "prepareEstimatedGasUsage",
      "outputs": [
        {
          "internalType": "bool",
          "name": "",
          "type": "bool"
        }
      ],
      "stateMutability": "nonpayable",
      "type": "function"
    },
    {
      "inputs": [
        {
          "internalType": "address",
          "name": "handler",
          "type": "address"
        }
      ],
      "name": "prepareFeeHandler",
      "outputs": [
        {
          "internalType": "bool",
          "name": "",
          "type": "bool"
        }
      ],
      "stateMutability": "nonpayable",
      "type": "function"
    },
    {
      "inputs": [
        {
          "internalType": "uint256",
          "name": "newSwapperSlippage",
          "type": "uint256"
        }
      ],
      "name": "prepareSwapperSlippage",
      "outputs": [
        {
          "internalType": "bool",
          "name": "",
          "type": "bool"
        }
      ],
      "stateMutability": "nonpayable",
      "type": "function"
    },
    {
      "inputs": [
        {
          "internalType": "bytes32",
          "name": "protocol",
          "type": "bytes32"
        },
        {
          "internalType": "address",
          "name": "newHandler",
          "type": "address"
        }
      ],
      "name": "prepareTopUpHandler",
      "outputs": [
        {
          "internalType": "bool",
          "name": "",
          "type": "bool"
        }
      ],
      "stateMutability": "nonpayable",
      "type": "function"
    },
    {
      "inputs": [
        {
          "internalType": "bytes32",
          "name": "account",
          "type": "bytes32"
        },
        {
          "internalType": "bytes32",
          "name": "protocol",
          "type": "bytes32"
        },
        {
          "internalType": "uint128",
          "name": "depositAmount",
          "type": "uint128"
        },
        {
          "components": [
            {
              "internalType": "uint64",
              "name": "threshold",
              "type": "uint64"
            },
            {
              "internalType": "uint64",
              "name": "priorityFee",
              "type": "uint64"
            },
            {
              "internalType": "uint64",
              "name": "maxFee",
              "type": "uint64"
            },
            {
              "internalType": "address",
              "name": "actionToken",
              "type": "address"
            },
            {
              "internalType": "address",
              "name": "depositToken",
              "type": "address"
            },
            {
              "internalType": "uint128",
              "name": "singleTopUpAmount",
              "type": "uint128"
            },
            {
              "internalType": "uint128",
              "name": "totalTopUpAmount",
              "type": "uint128"
            },
            {
              "internalType": "uint128",
              "name": "depositTokenBalance",
              "type": "uint128"
            },
            {
              "internalType": "bytes",
              "name": "extra",
              "type": "bytes"
            }
          ],
          "internalType": "struct ITopUpAction.Record",
          "name": "record",
          "type": "tuple"
        }
      ],
      "name": "register",
      "outputs": [
        {
          "internalType": "bool",
          "name": "",
          "type": "bool"
        }
      ],
      "stateMutability": "payable",
      "type": "function"
    },
    {
      "inputs": [],
      "name": "resetActionFee",
      "outputs": [
        {
          "internalType": "bool",
          "name": "",
          "type": "bool"
        }
      ],
      "stateMutability": "nonpayable",
      "type": "function"
    },
    {
      "inputs": [],
      "name": "resetFeeHandler",
      "outputs": [
        {
          "internalType": "bool",
          "name": "",
          "type": "bool"
        }
      ],
      "stateMutability": "nonpayable",
      "type": "function"
    },
    {
      "inputs": [],
      "name": "resetGasUsage",
      "outputs": [
        {
          "internalType": "bool",
          "name": "",
          "type": "bool"
        }
      ],
      "stateMutability": "nonpayable",
      "type": "function"
    },
    {
      "inputs": [
        {
          "internalType": "bytes32",
          "name": "account",
          "type": "bytes32"
        },
        {
          "internalType": "bytes32",
          "name": "protocol",
          "type": "bytes32"
        },
        {
          "internalType": "bool",
          "name": "unstake",
          "type": "bool"
        }
      ],
      "name": "resetPosition",
      "outputs": [
        {
          "internalType": "bool",
          "name": "",
          "type": "bool"
        }
      ],
      "stateMutability": "nonpayable",
      "type": "function"
    },
    {
      "inputs": [],
      "name": "resetSwapperSlippage",
      "outputs": [
        {
          "internalType": "bool",
          "name": "",
          "type": "bool"
        }
      ],
      "stateMutability": "nonpayable",
      "type": "function"
    },
    {
      "inputs": [
        {
          "internalType": "bytes32",
          "name": "protocol",
          "type": "bytes32"
        }
      ],
      "name": "resetTopUpHandler",
      "outputs": [
        {
          "internalType": "bool",
          "name": "",
          "type": "bool"
        }
      ],
      "stateMutability": "nonpayable",
      "type": "function"
    },
    {
      "inputs": [],
      "name": "roleManager",
      "outputs": [
        {
          "internalType": "contract IRoleManager",
          "name": "",
          "type": "address"
        }
      ],
      "stateMutability": "view",
      "type": "function"
    },
    {
      "inputs": [
        {
          "internalType": "uint256",
          "name": "cursor",
          "type": "uint256"
        },
        {
          "internalType": "uint256",
          "name": "howMany",
          "type": "uint256"
        }
      ],
      "name": "usersWithPositions",
      "outputs": [
        {
          "internalType": "address[]",
          "name": "users",
          "type": "address[]"
        },
        {
          "internalType": "uint256",
          "name": "nextCursor",
          "type": "uint256"
        }
      ],
      "stateMutability": "view",
      "type": "function"
    },
    {
      "stateMutability": "payable",
      "type": "receive"
    }
  ],
  "bytecode": "0x60e06040523480156200001157600080fd5b50604051620062f1380380620062f183398101604081905262000034916200029c565b620000c7816001600160a01b0316632954018c6040518163ffffffff1660e01b815260040160206040518083038186803b1580156200007257600080fd5b505afa15801562000087573d6000803e3d6000fd5b505050506040513d601f19601f82011682018060405250810190620000ad91906200029c565b6001600160a01b03166200018560201b62003d211760201c565b6001600160a01b03908116608052811660a081905260408051630a55006360e21b81529051632954018c91600480820192602092909190829003018186803b1580156200011357600080fd5b505afa15801562000128573d6000803e3d6000fd5b505050506040513d601f19601f820116820180604052508101906200014e91906200029c565b6001600160a01b031660c0526200017d70457374696d61746564476173557361676560781b6207a12062000217565b5050620002c3565b6040516321f8a72160e01b81526a3937b632a6b0b730b3b2b960a91b60048201526000906001600160a01b038316906321f8a7219060240160206040518083038186803b158015620001d657600080fd5b505afa158015620001eb573d6000803e3d6000fd5b505050506040513d601f19601f820116820180604052508101906200021191906200029c565b92915050565b6000828152600360209081526040808320805490859055600183528184208490556004835281842084905581518181529283018590529185917fcc0bafe2accb565ea70674bf4b2555e49a47d410fb9932dfab3e5f41855d0a2f910160405180910390a2509092915050565b6001600160a01b03811681146200029957600080fd5b50565b600060208284031215620002af57600080fd5b8151620002bc8162000283565b9392505050565b60805160a05160c051615f566200039b60003960008181610393015281816109e101528181610c3c015281816112d301528181611596015281816118c901528181613ab9015281816140f1015281816146b5015281816147d2015281816148a5015261497d0152600081816107eb0152610f5601526000818161027a01528181610e3a015281816121ea01528181612599015281816129c101528181612abe01528181612bc701528181612cca01528181612de701528181612f1b015281816131e00152818161338901526135ec0152615f566000f3fe60806040526004361061025f5760003560e01c806380fdfe2c11610144578063bef47adf116100b6578063e3976edf1161007a578063e3976edf14610730578063e471696714610766578063ec5942541461077b578063f46aeff414610790578063f76c3399146107a3578063f77c4791146107d957600080fd5b8063bef47adf14610696578063c84ce0d0146106ab578063d1f6ced1146106d9578063d41b4e72146106ee578063db375dad1461071057600080fd5b8063aff1b7e411610108578063aff1b7e4146105dd578063b75d609a1461060a578063b7837b2e1461062a578063ba46fba61461063f578063bba018a114610654578063bc92464a1461067657600080fd5b806380fdfe2c146103615780638cb164f91461055d57806391d080071461057d5780639e1876e51461059d578063a90875ab146105bd57600080fd5b806330078606116101dd578063532913a5116101a1578063532913a51461049957806359c442c7146104bb5780636df45f55146104e857806375614e3f146104fd578063779b66201461051d5780637dc318461461053d57600080fd5b806330078606146103f757806333229c061461040c578063340ed9fd1461042c578063346a4a511461044c5780634505e56c1461047957600080fd5b80631bb480e5116102245780631bb480e51461034c5780631ecb8ac6146103615780632954018c146103815780632a6bc2dd146103b55780632fe35e14146103e257600080fd5b8062435da51461026b5780630b402267146102b7578063100b5f2e146102e757806313c5daf61461030a57806315dbfe621461031f57600080fd5b3661026657005b600080fd5b34801561027757600080fd5b507f00000000000000000000000000000000000000000000000000000000000000005b6040516001600160a01b0390911681526020015b60405180910390f35b3480156102c357600080fd5b506102d76102d2366004615416565b610812565b60405190151581526020016102ae565b3480156102f357600080fd5b506102fc610cd6565b6040519081526020016102ae565b34801561031657600080fd5b506102fc610d19565b34801561032b57600080fd5b506102fc61033a36600461544f565b60016020526000908152604090205481565b34801561035857600080fd5b506102fc610d5b565b34801561036d57600080fd5b5061029a61037c36600461544f565b610d7a565b34801561038d57600080fd5b5061029a7f000000000000000000000000000000000000000000000000000000000000000081565b3480156103c157600080fd5b506103d56103d0366004615488565b610d8d565b6040516102ae91906154a5565b3480156103ee57600080fd5b506102fc610e16565b34801561040357600080fd5b506102d7610e36565b34801561041857600080fd5b506102d76104273660046154f4565b610f3e565b34801561043857600080fd5b5061029a61044736600461544f565b6121b6565b34801561045857600080fd5b506102fc61046736600461544f565b60046020526000908152604090205481565b34801561048557600080fd5b506102d761049436600461544f565b6121e6565b3480156104a557600080fd5b506104ae612342565b6040516102ae9190615546565b3480156104c757600080fd5b506104db6104d636600461558a565b6123e4565b6040516102ae9190615617565b3480156104f457600080fd5b506102fc61257e565b34801561050957600080fd5b506102d76105183660046156ed565b612595565b34801561052957600080fd5b506102fc6105383660046157e8565b612699565b34801561054957600080fd5b506102fc610558366004615488565b612731565b34801561056957600080fd5b506102d7610578366004615488565b6129bd565b34801561058957600080fd5b506102d7610598366004615488565b612aba565b3480156105a957600080fd5b506102d76105b836600461544f565b612bc3565b3480156105c957600080fd5b506102d76105d836600461544f565b612cc6565b3480156105e957600080fd5b506102fc6105f836600461544f565b60036020526000908152604090205481565b34801561061657600080fd5b506102d7610625366004615488565b612dd6565b34801561063657600080fd5b506102d7612de3565b34801561064b57600080fd5b5061029a612ef3565b34801561066057600080fd5b50610669612f0b565b6040516102ae919061587b565b34801561068257600080fd5b506102d761069136600461544f565b612f17565b3480156106a257600080fd5b5061029a61308e565b3480156106b757600080fd5b506106cb6106c636600461588e565b6130d2565b6040516102ae9291906158b0565b3480156106e557600080fd5b506102d76131dc565b3480156106fa57600080fd5b5061070e610709366004615916565b6132e3565b005b34801561071c57600080fd5b506102d761072b366004615998565b6135d8565b34801561073c57600080fd5b5061029a61074b36600461544f565b6000602081905290815260409020546001600160a01b031681565b34801561077257600080fd5b506102d76135e8565b34801561078757600080fd5b506102fc6136f7565b6102d761079e366004615a0e565b613731565b3480156107af57600080fd5b5061029a6107be36600461544f565b6002602052600090815260409020546001600160a01b031681565b3480156107e557600080fd5b5061029a7f000000000000000000000000000000000000000000000000000000000000000081565b905090565b336000818152600a602090815260408083208784528252808320868452825280832081516101208101835281546001600160401b038082168352600160401b8204811695830195909552600160801b908190049094169281019290925260018101546001600160a01b039081166060840152600282015416608083015260038101546001600160801b0380821660a0850152939004831660c0830152600481015490921660e08201526005820180549394938593916101008401916108d690615b2b565b80601f016020809104026020016040519081016040528092919081815260200182805461090290615b2b565b801561094f5780601f106109245761010080835404028352916020019161094f565b820191906000526020600020905b81548152906001019060200180831161093257829003601f168201915b50505091909252505081516040805180820190915260128152716e6f20706f736974696f6e2065786973747360701b60208201529293506001600160401b0316151590506109b95760405162461bcd60e51b81526004016109b09190615b66565b60405180910390fd5b50608081015160405163059eadeb60e41b81526001600160a01b0391821660048201526000917f000000000000000000000000000000000000000000000000000000000000000016906359eadeb09060240160206040518083038186803b158015610a2357600080fd5b505afa158015610a37573d6000803e3d6000fd5b505050506040513d601f19601f82011682018060405250810190610a5b9190615b79565b60e0830151604051636a278cd960e01b815291925082916001600160a01b03831691636a278cd991610a91918891600401615b96565b602060405180830381600087803b158015610aab57600080fd5b505af1158015610abf573d6000803e3d6000fd5b505050506040513d601f19601f82011682018060405250810190610ae39190615bb8565b508515610ba75760e08301516040516305c2fbcf60e31b81526001600160801b0390911660048201526001600160a01b03821690632e17de7890602401602060405180830381600087803b158015610b3a57600080fd5b505af1158015610b4e573d6000803e3d6000fd5b505050506040513d601f19601f82011682018060405250810190610b729190615bb8565b50610ba2848460e001516001600160801b031685608001516001600160a01b0316613daa9092919063ffffffff16565b610c2c565b60e083015160405163a9059cbb60e01b81526001600160a01b0383169163a9059cbb91610bd8918891600401615b96565b602060405180830381600087803b158015610bf257600080fd5b505af1158015610c06573d6000803e3d6000fd5b505050506040513d601f19601f82011682018060405250810190610c2a9190615bb8565b505b610c37848989613e12565b610c697f00000000000000000000000000000000000000000000000000000000000000006001600160a01b0316613f06565b6040516335272c2560e21b81526001600160a01b038681166004830152919091169063d49cb09490602401600060405180830381600087803b158015610cae57600080fd5b505af1158015610cc2573d6000803e3d6000fd5b5050505060019450505050505b9392505050565b714d617853776170706572536c69707061676560701b60005260036020527f0a7ab04b93b5e6e7a6233e3dba8c0355d868f3f251b1df44eccff4c6067798195490565b70457374696d61746564476173557361676560781b60005260036020527fd92ae9a825c06e5a7102e086cc9fd80c4ef8adf441004161c8b93e0e5b4492a25490565b600061080d70457374696d61746564476173557361676560781b613f3f565b6000610d87826000613f63565b92915050565b6001600160a01b0381166000908152600b60209081526040808320805482518185028101850190935280835260609492939192909184015b82821015610e0b57838290600052602060002090600202016040518060400160405290816000820154815260200160018201548152505081526020019060010190610dc5565b505050509050919050565b600061080d714d617853776170706572536c69707061676560701b613f3f565b60007f0000000000000000000000000000000000000000000000000000000000000000604051632474521560e21b815269676f7665726e616e636560b01b60048201523360248201526001600160a01b0391909116906391d148549060440160206040518083038186803b158015610ead57600080fd5b505afa158015610ec1573d6000803e3d6000fd5b505050506040513d601f19601f82011682018060405250810190610ee59190615bb8565b604051806040016040528060138152602001600080516020615ee083398151915281525090610f275760405162461bcd60e51b81526004016109b09190615b66565b5061080d692332b2a430b7323632b960b11b613ff5565b6040516306547d4b60e21b81523360048201526000907f00000000000000000000000000000000000000000000000000000000000000006001600160a01b031690631951f52c9060240160206040518083038186803b158015610fa057600080fd5b505afa158015610fb4573d6000803e3d6000fd5b505050506040513d601f19601f82011682018060405250810190610fd89190615bb8565b6040518060400160405280601c81526020017f4e6f7420656e6f75676820424b4420746f6b656e73207374616b6564000000008152509061102c5760405162461bcd60e51b81526004016109b09190615b66565b506110f4604051806102e001604052806000815260200160008152602001600081526020016000815260200160008152602001600081526020016000815260200160008152602001600081526020016000815260200160006001600160801b0316815260200160001515815260200160608152602001600081526020016000815260200160008152602001600081526020016000815260200160008152602001600081526020016000815260200160006001600160a01b031681526020016000151581525090565b5a6101c08201526001600160a01b0387166000908152600a6020908152604080832089845282528083208784528252918290208054835180850190945260128452716e6f20706f736974696f6e2065786973747360701b9284019290925291906001600160401b031661117a5760405162461bcd60e51b81526004016109b09190615b66565b506003810154604080518082019091526014815273696e73756666696369656e742062616c616e636560601b602082015290600160801b90046001600160801b03166111d95760405162461bcd60e51b81526004016109b09190615b66565b5060006111e7866001613f63565b60405163673f349760e11b81529091506001600160a01b0382169063ce7e692e9061121b908b906005870190600401615c75565b60206040518083038186803b15801561123357600080fd5b505afa158015611247573d6000803e3d6000fd5b505050506040513d601f19601f8201168201806040525081019061126b9190615c8e565b6080840181905282546040805180820190915260168152751a5b9cdd59999a58da595b9d081d1a1c995cda1bdb1960521b6020820152916001600160401b03909116116112cb5760405162461bcd60e51b81526004016109b09190615b66565b5060006113007f00000000000000000000000000000000000000000000000000000000000000006001600160a01b0316613f06565b905061130a610d19565b610220850181905261131d903a90615cbd565b610240850152825461133f90600160401b90046001600160401b031648615cdc565b61020085018190523a1015611356573a6102008501525b8254610200850151600160801b9091046001600160401b0316101561138e578254600160801b90046001600160401b03166102008501525b858461020001518561022001516113a59190615cbd565b6113af9190615cdc565b8461024001511115604051806060016040528060218152602001615e9860219139906113ee5760405162461bcd60e51b81526004016109b09190615b66565b506040516370a0823160e01b81526001600160a01b038b811660048301528216906370a082319060240160206040518083038186803b15801561143057600080fd5b505afa158015611444573d6000803e3d6000fd5b505050506040513d601f19601f820116820180604052508101906114689190615c8e565b6101a0850181905261024085015190611482908890615cdc565b1015604051806060016040528060278152602001615eb960279139906114bb5760405162461bcd60e51b81526004016109b09190615b66565b506003830154600160801b90046001600160801b03166101408501526114df6136f7565b610100850181905260038401546001600160801b031685526115159061150d90670de0b6b3a7640000615cdc565b8551906140a6565b606085018190526101408501516001600160801b0316101561156f576101408401516001600160801b0316606085015261010084015161156c9061156190670de0b6b3a7640000615cdc565b6060860151906140c5565b84525b6002830154604051630956fef360e21b81526001600160a01b0391821660048201526000917f0000000000000000000000000000000000000000000000000000000000000000169063255bfbcc9060240160206040518083038186803b1580156115d857600080fd5b505afa1580156115ec573d6000803e3d6000fd5b505050506040513d601f19601f820116820180604052508101906116109190615b79565b9050806001600160a01b0316639816f4736040518163ffffffff1660e01b815260040160206040518083038186803b15801561164b57600080fd5b505afa15801561165f573d6000803e3d6000fd5b505050506040513d601f19601f820116820180604052508101906116839190615b79565b856102a001906001600160a01b031690816001600160a01b031681525050806001600160a01b0316633ba0b9a96040518163ffffffff1660e01b815260040160206040518083038186803b1580156116da57600080fd5b505afa1580156116ee573d6000803e3d6000fd5b505050506040513d601f19601f820116820180604052508101906117129190615c8e565b60a086015260018401546102a08601516000916001600160a01b039182169116146117fa576102a0860151600186015461175591906001600160a01b03166140da565b6102a08701516001870154604051631bcdc3f560e11b81526001600160a01b03928316600482015290821660248201529192506117f4919083169063379b87ea9060440160206040518083038186803b1580156117b157600080fd5b505afa1580156117c5573d6000803e3d6000fd5b505050506040513d601f19601f820116820180604052508101906117e99190615c8e565b60a0880151906140a6565b60a08701525b60a0860151606087015161180d91614198565b60c0870181905260048601546001600160801b031610156118745760048501546001600160801b031660c087015261010086015161185390670de0b6b3a7640000615cdc565b8660a001518760c001516118679190615cbd565b6118719190615cf4565b86525b60a0860151865161188491614198565b60e0870181905260c087015161189a9190615d16565b6040878101919091526002860154905163059eadeb60e41b81526001600160a01b0391821660048201526000917f000000000000000000000000000000000000000000000000000000000000000016906359eadeb09060240160206040518083038186803b15801561190b57600080fd5b505afa15801561191f573d6000803e3d6000fd5b505050506040513d601f19601f820116820180604052508101906119439190615b79565b60c08801516040516305c2fbcf60e31b81529192506001600160a01b03831691632e17de78916119799160040190815260200190565b602060405180830381600087803b15801561199357600080fd5b505af11580156119a7573d6000803e3d6000fd5b505050506040513d601f19601f820116820180604052508101906119cb9190615bb8565b5060c0870151604051636a278cd960e01b81526001600160a01b038f81166004830152602482019290925290821690636a278cd990604401602060405180830381600087803b158015611a1d57600080fd5b505af1158015611a31573d6000803e3d6000fd5b505050506040513d601f19601f82011682018060405250810190611a559190615bb8565b5060e087015160405163db006a7560e01b815260048101919091526001600160a01b0384169063db006a7590602401602060405180830381600087803b158015611a9e57600080fd5b505af1158015611ab2573d6000803e3d6000fd5b505050506040513d601f19601f82011682018060405250810190611ad69190615c8e565b60208801526001600160a01b03821615611bb857611afd611af5610cd6565b8851906140a6565b87526102a0870151611b0f90836141c4565b6102a0870151600187015460208901518951604051637f0148ab60e11b81526001600160a01b0394851660048201529284166024840152604483019190915260648201529083169063fe02915690608401602060405180830381600087803b158015611b7a57600080fd5b505af1158015611b8e573d6000803e3d6000fd5b505050506040513d601f19601f82011682018060405250810190611bb29190615c8e565b60208801525b60a08701516040880151611bcb916140a6565b8760200151611bda9190615cdc565b87610120018181525050846001600160a01b03168c8760010160009054906101000a90046001600160a01b0316896020015189600501604051602401611c239493929190615d2d565b60408051601f198184030181529181526020820180516001600160e01b0316636d636f3960e11b17905251611c589190615d5a565b600060405180830381855af49150503d8060008114611c93576040519150601f19603f3d011682016040523d82523d6000602084013e611c98565b606091505b50610180890152158015610160890181905290611cc95750866101800151806020019051810190611cc99190615bb8565b6040518060400160405280600d81526020016c1d1bdc081d5c0819985a5b1959609a1b81525090611d0d5760405162461bcd60e51b81526004016109b09190615b66565b508661012001518761014001516001600160801b03161115611d7c57610120870151600387018054601090611d53908490600160801b90046001600160801b0316615d76565b92506101000a8154816001600160801b0302191690836001600160801b03160217905550611d8e565b6003860180546001600160801b031690555b60c0870151600487018054600090611db09084906001600160801b0316615d76565b92506101000a8154816001600160801b0302191690836001600160801b031602179055508560030160109054906101000a90046001600160801b03166001600160801b031660001480611e0e575060048601546001600160801b0316155b15156102c088015260408701516002870154611e37918f918e91906001600160a01b031661426b565b866102c0015115611f915760048601546001600160801b031615611f8657806001600160a01b031663a9059cbb8e8860040160009054906101000a90046001600160801b03166040518363ffffffff1660e01b8152600401611e9a929190615b96565b602060405180830381600087803b158015611eb457600080fd5b505af1158015611ec8573d6000803e3d6000fd5b505050506040513d601f19601f82011682018060405250810190611eec9190615bb8565b50806001600160a01b0316636a278cd98e8860040160009054906101000a90046001600160801b03166040518363ffffffff1660e01b8152600401611f32929190615b96565b602060405180830381600087803b158015611f4c57600080fd5b505af1158015611f60573d6000803e3d6000fd5b505050506040513d601f19601f82011682018060405250810190611f849190615bb8565b505b611f918d8d8c613e12565b600286015460c088015160018801546020808b0151604080516001600160a01b03968716815292830194909452918416928101929092526060820152908e16908b908e907fa25497780b9913305877fbabb319e19163fec169ddf54e7f2ebb2903b598d32e9060800160405180910390a45a876101c001516120139190615d16565b6101e0880181905261020088015161202b9190615cbd565b61028088018190526101a0880151101561204c576101a08701516102808801525b6101e087015161205c903a615cbd565b6102608801819052610280880151612075908b90615cdc565b10156040518060400160405280601981526020017f746f6f206d75636820455448207573656420666f722067617300000000000000815250906120cb5760405162461bcd60e51b81526004016109b09190615b66565b50610280870151604051634aaad4a160e11b81526001600160a01b038f81166004830152336024830152604482019290925290851690639555a94290606401600060405180830381600087803b15801561212457600080fd5b505af1158015612138573d6000803e3d6000fd5b50505050866102c00151156121a3576040516335272c2560e21b81526001600160a01b038e8116600483015285169063d49cb09490602401600060405180830381600087803b15801561218a57600080fd5b505af115801561219e573d6000803e3d6000fd5b505050505b5060019c9b505050505050505050505050565b6000806121c4836000613f63565b905060006121d96121d48561431d565b61435f565b9050610ccf84838361438c565b60007f0000000000000000000000000000000000000000000000000000000000000000604051632474521560e21b815269676f7665726e616e636560b01b60048201523360248201526001600160a01b0391909116906391d148549060440160206040518083038186803b15801561225d57600080fd5b505afa158015612271573d6000803e3d6000fd5b505050506040513d601f19601f820116820180604052508101906122959190615bb8565b604051806040016040528060138152602001600080516020615ee0833981519152815250906122d75760405162461bcd60e51b81526004016109b09190615b66565b5060408051808201909152600e81526d1a5b9d985b1a5908185b5bdd5b9d60921b60208201526706f05b59d3b200008311156123265760405162461bcd60e51b81526004016109b09190615b66565b50610d8768416374696f6e46656560b81b836143c4565b919050565b6060600061235060086143d4565b90506000816001600160401b0381111561236c5761236c61571d565b604051908082528060200260200182016040528015612395578160200160208202803683370190505b50905060005b828110156123dd576123ae6008826143de565b8282815181106123c0576123c0615d9e565b6020908102919091010152806123d581615db4565b91505061239b565b5092915050565b604080516101208101825260008082526020820181905291810182905260608082018390526080820183905260a0820183905260c0820183905260e08201929092526101008101919091526001600160a01b038085166000908152600a60209081526040808320878452825280832086845282529182902082516101208101845281546001600160401b038082168352600160401b8204811694830194909452600160801b90819004909316938101939093526001810154841660608401526002810154909316608083015260038301546001600160801b0380821660a0850152919004811660c083015260048301541660e0820152600582018054919291610100840191906124f390615b2b565b80601f016020809104026020016040519081016040528092919081815260200182805461251f90615b2b565b801561256c5780601f106125415761010080835404028352916020019161256c565b820191906000526020600020905b81548152906001019060200180831161254f57829003601f168201915b50505050508152505090509392505050565b600061080d68416374696f6e46656560b81b613f3f565b60007f0000000000000000000000000000000000000000000000000000000000000000604051632474521560e21b815269676f7665726e616e636560b01b60048201523360248201526001600160a01b0391909116906391d148549060440160206040518083038186803b15801561260c57600080fd5b505afa158015612620573d6000803e3d6000fd5b505050506040513d601f19601f820116820180604052508101906126449190615bb8565b604051806040016040528060138152602001600080516020615ee0833981519152815250906126865760405162461bcd60e51b81526004016109b09190615b66565b50610ccf6126938461431d565b836143ea565b6000806126a7856001613f63565b60405163673f349760e11b81529091506001600160a01b0382169063ce7e692e906126d89087908790600401615dcf565b60206040518083038186803b1580156126f057600080fd5b505afa158015612704573d6000803e3d6000fd5b505050506040513d601f19601f820116820180604052508101906127289190615c8e565b95945050505050565b6001600160a01b0381166000908152600b60209081526040808320805482518185028101850190935280835284938493929190849084015b828210156127af57838290600052602060002090600202016040518060400160405290816000820154815260200160018201548152505081526020019060010190612769565b50505050905060006127bf610d19565b825190915060005b818110156129b25760008482815181106127e3576127e3615d9e565b6020908102919091018101516001600160a01b03808b166000908152600a84526040808220845183528552808220848601518352855280822081516101208101835281546001600160401b038082168352600160401b8204811698830198909852600160801b90819004909716928101929092526001810154841660608301526002810154909316608082015260038301546001600160801b0380821660a0840152959004851660c0820152600483015490941660e0850152600582018054939550909392610100840191906128b890615b2b565b80601f01602080910402602001604051908101604052809291908181526020018280546128e490615b2b565b80156129315780601f1061290657610100808354040283529160200191612931565b820191906000526020600020905b81548152906001019060200180831161291457829003601f168201915b5050505050815250509050600061296b8260a001516001600160801b03168360c001516001600160801b03166143fa90919063ffffffff16565b60408301519091506001600160401b03166129868783615cbd565b6129909190615cbd565b61299a9089615cdc565b975050505080806129aa90615db4565b9150506127c7565b509295945050505050565b60007f0000000000000000000000000000000000000000000000000000000000000000604051632474521560e21b815269676f7665726e616e636560b01b60048201523360248201526001600160a01b0391909116906391d148549060440160206040518083038186803b158015612a3457600080fd5b505afa158015612a48573d6000803e3d6000fd5b505050506040513d601f19601f82011682018060405250810190612a6c9190615bb8565b604051806040016040528060138152602001600080516020615ee083398151915281525090612aae5760405162461bcd60e51b81526004016109b09190615b66565b50610d87600683614409565b60007f0000000000000000000000000000000000000000000000000000000000000000604051632474521560e21b815269676f7665726e616e636560b01b60048201523360248201526001600160a01b0391909116906391d148549060440160206040518083038186803b158015612b3157600080fd5b505afa158015612b45573d6000803e3d6000fd5b505050506040513d601f19601f82011682018060405250810190612b699190615bb8565b604051806040016040528060138152602001600080516020615ee083398151915281525090612bab5760405162461bcd60e51b81526004016109b09190615b66565b50610d87692332b2a430b7323632b960b11b836143ea565b60007f0000000000000000000000000000000000000000000000000000000000000000604051632474521560e21b815269676f7665726e616e636560b01b60048201523360248201526001600160a01b0391909116906391d148549060440160206040518083038186803b158015612c3a57600080fd5b505afa158015612c4e573d6000803e3d6000fd5b505050506040513d601f19601f82011682018060405250810190612c729190615bb8565b604051806040016040528060138152602001600080516020615ee083398151915281525090612cb45760405162461bcd60e51b81526004016109b09190615b66565b50610d87612cc18361431d565b613ff5565b60007f0000000000000000000000000000000000000000000000000000000000000000604051632474521560e21b815269676f7665726e616e636560b01b60048201523360248201526001600160a01b0391909116906391d148549060440160206040518083038186803b158015612d3d57600080fd5b505afa158015612d51573d6000803e3d6000fd5b505050506040513d601f19601f82011682018060405250810190612d759190615bb8565b604051806040016040528060138152602001600080516020615ee083398151915281525090612db75760405162461bcd60e51b81526004016109b09190615b66565b50610d8770457374696d61746564476173557361676560781b836143c4565b6000610d8760068361441e565b60007f0000000000000000000000000000000000000000000000000000000000000000604051632474521560e21b815269676f7665726e616e636560b01b60048201523360248201526001600160a01b0391909116906391d148549060440160206040518083038186803b158015612e5a57600080fd5b505afa158015612e6e573d6000803e3d6000fd5b505050506040513d601f19601f82011682018060405250810190612e929190615bb8565b604051806040016040528060138152602001600080516020615ee083398151915281525090612ed45760405162461bcd60e51b81526004016109b09190615b66565b5061080d714d617853776170706572536c69707061676560701b614440565b600061080d692332b2a430b7323632b960b11b61435f565b606061080d60066144e7565b60007f0000000000000000000000000000000000000000000000000000000000000000604051632474521560e21b815269676f7665726e616e636560b01b60048201523360248201526001600160a01b0391909116906391d148549060440160206040518083038186803b158015612f8e57600080fd5b505afa158015612fa2573d6000803e3d6000fd5b505050506040513d601f19601f82011682018060405250810190612fc69190615bb8565b604051806040016040528060138152602001600080516020615ee0833981519152815250906130085760405162461bcd60e51b81526004016109b09190615b66565b50670853a0d2313c000082101580156130295750670d2f13f7789f00008211155b6040518060400160405280600e81526020016d1a5b9d985b1a5908185b5bdd5b9d60921b8152509061306e5760405162461bcd60e51b81526004016109b09190615b66565b50610d87714d617853776170706572536c69707061676560701b836143c4565b692332b2a430b7323632b960b11b60005260026020527f6ca0624ed247bf0fea5288fbb74a4bd8fc7f94847d3670d0c0d9ba9a2af3242c546001600160a01b031690565b60606000806130e1600c6143d4565b90508085106131035750506040805160008082526020820190925291506131d5565b61310d8582615d16565b84106131205761311d8582615d16565b93505b6000846001600160401b0381111561313a5761313a61571d565b604051908082528060200260200182016040528015613163578160200160208202803683370190505b50905060005b858110156131c25761318661317e8883615cdc565b600c906143de565b82828151811061319857613198615d9e565b6001600160a01b0390921660209283029190910190910152806131ba81615db4565b915050613169565b50806131ce8688615cdc565b9350935050505b9250929050565b60007f0000000000000000000000000000000000000000000000000000000000000000604051632474521560e21b815269676f7665726e616e636560b01b60048201523360248201526001600160a01b0391909116906391d148549060440160206040518083038186803b15801561325357600080fd5b505afa158015613267573d6000803e3d6000fd5b505050506040513d601f19601f8201168201806040525081019061328b9190615bb8565b604051806040016040528060138152602001600080516020615ee0833981519152815250906132cd5760405162461bcd60e51b81526004016109b09190615b66565b5061080d68416374696f6e46656560b81b614440565b600554610100900460ff166132fe5760055460ff1615613302565b303b155b6133655760405162461bcd60e51b815260206004820152602e60248201527f496e697469616c697a61626c653a20636f6e747261637420697320616c72656160448201526d191e481a5b9a5d1a585b1a5e995960921b60648201526084016109b0565b600554610100900460ff16158015613387576005805461ffff19166101011790555b7f0000000000000000000000000000000000000000000000000000000000000000604051632474521560e21b815269676f7665726e616e636560b01b60048201523360248201526001600160a01b0391909116906391d148549060440160206040518083038186803b1580156133fc57600080fd5b505afa158015613410573d6000803e3d6000fd5b505050506040513d601f19601f820116820180604052508101906134349190615bb8565b604051806040016040528060138152602001600080516020615ee0833981519152815250906134765760405162461bcd60e51b81526004016109b09190615b66565b5060408051808201909152601081526f1a5b9d985b1a5908185c99dd5b595b9d60821b60208201528483146134be5760405162461bcd60e51b81526004016109b09190615b66565b506134d6692332b2a430b7323632b960b11b8761458d565b506134fe714d617853776170706572536c69707061676560701b670d2f13f7789f0000614618565b5060005b848110156135bd57600061352d87878481811061352157613521615d9e565b9050602002013561431d565b905061355f8186868581811061354557613545615d9e565b905060200201602081019061355a9190615488565b61458d565b506135aa87878481811061357557613575615d9e565b90506020020135600087878681811061359057613590615d9e565b90506020020160208101906135a59190615488565b61438c565b50806135b581615db4565b915050613502565b5080156135d0576005805461ff00191690555b505050505050565b6000612728858585856000610f3e565b60007f0000000000000000000000000000000000000000000000000000000000000000604051632474521560e21b815269676f7665726e616e636560b01b60048201523360248201526001600160a01b0391909116906391d148549060440160206040518083038186803b15801561365f57600080fd5b505afa158015613673573d6000803e3d6000fd5b505050506040513d601f19601f820116820180604052508101906136979190615bb8565b604051806040016040528060138152602001600080516020615ee0833981519152815250906136d95760405162461bcd60e51b81526004016109b09190615b66565b5061080d70457374696d61746564476173557361676560781b614440565b68416374696f6e46656560b81b60005260036020527fa54dccff97a6072259c3aa6b782765087d250e0214d8d05826d45d992ff11fac5490565b600061373e600885614679565b604051806040016040528060128152602001711c1c9bdd1bd8dbdb081b9bdd08199bdd5b9960721b815250906137875760405162461bcd60e51b81526004016109b09190615b66565b5060008260a001516001600160801b0316116040518060400160405280600e81526020016d1a5b9d985b1a5908185b5bdd5b9d60921b815250906137de5760405162461bcd60e51b81526004016109b09190615b66565b50670de0b6b3a764000082600001516001600160401b0316116040518060400160405280600e81526020016d1a5b9d985b1a5908185b5bdd5b9d60921b8152509061383c5760405162461bcd60e51b81526004016109b09190615b66565b508160c001516001600160801b03168260a001516001600160801b031611156040518060400160405280600e81526020016d1a5b9d985b1a5908185b5bdd5b9d60921b815250906138a05760405162461bcd60e51b81526004016109b09190615b66565b50336000908152600a602090815260408083208884528252808320878452825291829020548251808401909352601783527f706f736974696f6e20616c726561647920657869737473000000000000000000918301919091526001600160401b0316156139205760405162461bcd60e51b81526004016109b09190615b66565b5061393382608001518360600151614691565b604051806040016040528060138152602001721cddd85c081c185d1a081b9bdd08199bdd5b99606a1b8152509061397d5760405162461bcd60e51b81526004016109b09190615b66565b5061398b8260800151612dd6565b604051806060016040528060288152602001615e7060289139906139c25760405162461bcd60e51b81526004016109b09190615b66565b5060006139cd610d19565b83604001516001600160401b0316613a088560a001516001600160801b03168660c001516001600160801b03166143fa90919063ffffffff16565b613a129190615cbd565b613a1c9190615cbd565b9050803410156040518060400160405280601a81526020017f76616c756520746f6f206c6f7720746f20636f7665722067617300000000000081525090613a765760405162461bcd60e51b81526004016109b09190615b66565b506000613a99846080015185606001518660c001516001600160801b031661488e565b9050613ab433856080015183886001600160801b031661495b565b613ae67f00000000000000000000000000000000000000000000000000000000000000006001600160a01b0316613f06565b60405163aa67c91960e01b81523360048201526001600160a01b03919091169063aa67c9199034906024016000604051808303818588803b158015613b2a57600080fd5b505af1158015613b3e573d6000803e3d6000fd5b505050506001600160801b0382811660e08701908152336000908152600a602090815260408083208d845282528083208c845282529182902089518154838c0151948c01516001600160401b039283166001600160801b031992831617600160401b968416969096029590951767ffffffffffffffff60801b1916600160801b92909516820294909417825560608b01516001830180546001600160a01b03199081166001600160a01b039384161790915560808d0151600285018054909216921691909117905560a08b015160c08c01519087169087169091021760038201559251600484018054909316941693909317905561010087015180518894509192613c5192600585019290910190615332565b5050336000818152600b6020908152604080832081518083019092528c82528183018c815281546001818101845592865293909420915160029093029091019182559151910155613ca59150600c90614409565b5083600001516001600160401b031686887ff8c4338a655ae888222012879ef5bdbc46ca5bde6b154b5565048cfccbc00781338860800151868a606001518b60a001518c60c001518d604001518e6101000151604051613d0c989796959493929190615de8565b60405180910390a45060019695505050505050565b6040516321f8a72160e01b81526a3937b632a6b0b730b3b2b960a91b60048201526000906001600160a01b038316906321f8a721906024015b60206040518083038186803b158015613d7257600080fd5b505afa158015613d86573d6000803e3d6000fd5b505050506040513d601f19601f82011682018060405250810190610d879190615b79565b6040516001600160a01b038316602482015260448101829052613e0d90849063a9059cbb60e01b906064015b60408051601f198184030181529190526020810180516001600160e01b03166001600160e01b031990931692909217909152614a8c565b505050565b6001600160a01b0383166000908152600a602090815260408083208584528252808320848452909152812080546001600160c01b03191681556001810180546001600160a01b03199081169091556002820180549091169055600381018290556004810180546001600160801b031916905590613e9260058301826153b6565b5050613e9f838383614b5e565b6001600160a01b0383166000908152600b6020526040902054613ec957613ec7600c84614c67565b505b8082846001600160a01b03167f72b5cbd3723f2cc2fa8b384de87a995691d051135c5e19322a55d6e835e3deaa60405160405180910390a4505050565b6040516321f8a72160e01b81526667617342616e6b60c81b60048201526000906001600160a01b038316906321f8a72190602401613d5a565b6000613f4a82614c7c565b6000828152600160205260409020546123dd8382614618565b60008060026000613f738661431d565b81526020810191909152604001600020546001600160a01b03169050821580613fa457506001600160a01b03811615155b604051806040016040528060128152602001711c1c9bdd1bd8dbdb081b9bdd08199bdd5b9960721b81525090613fed5760405162461bcd60e51b81526004016109b09190615b66565b509392505050565b600081815260046020908152604080832054815180830190925260128252710646561646c696e65206d75737420626520360741b928201929092529061404e5760405162461bcd60e51b81526004016109b09190615b66565b5060008281526004602090815260408083208390559082905280822080546001600160a01b03191690555183917f90fb84ad67dd037c388289337bb80b61b8605d38ba9a875dc38b5600909d172f91a2506001919050565b6000670de0b6b3a76400006140bb8385615cbd565b610ccf9190615cf4565b6000816140bb670de0b6b3a764000085615cbd565b6040516376b4805160e01b81526001600160a01b037f00000000000000000000000000000000000000000000000000000000000000008116600483015280841660248301528216604482015260009073__$69d5f919a2332fd1585cf8aec6346e89b0$__906376b480519060640160206040518083038186803b15801561416057600080fd5b505af4158015614174573d6000803e3d6000fd5b505050506040513d601f19601f82011682018060405250810190610ccf9190615b79565b6000816001816141b0670de0b6b3a764000087615cbd565b6141ba9190615cdc565b6140bb9190615d16565b604051636eb1769f60e11b81523060048201526001600160a01b0382811660248301526000919084169063dd62ed3e9060440160206040518083038186803b15801561420f57600080fd5b505afa158015614223573d6000803e3d6000fd5b505050506040513d601f19601f820116820180604052508101906142479190615c8e565b1115614251575050565b6142676001600160a01b03831682600019614d25565b5050565b600061427561308e565b905061428b6001600160a01b0383168285614d25565b6040516367ec9f1960e11b81526001600160a01b038681166004830152858116602483015260448201859052838116606483015282169063cfd93e3290608401602060405180830381600087803b1580156142e557600080fd5b505af11580156142f9573d6000803e3d6000fd5b505050506040513d601f19601f820116820180604052508101906135d09190615bb8565b604080516b2a37b82ab82430b7323632b960a11b6020820152908101829052600090606001604051602081830303815290604052805190602001209050919050565b600061436a82614c7c565b6000828152602081905260409020546001600160a01b03166123dd838261458d565b6001600160a01b0381166143ab576143a5600884614e49565b50505050565b6001600160a01b038216613e0d576143a5600884614e55565b6000610ccf83836203f480614e61565b6000610d87825490565b6000610ccf8383614ec5565b6000610ccf83836203f480614eef565b60008160016141ba8286615cdc565b6000610ccf836001600160a01b038416614f5c565b6001600160a01b03811660009081526001830160205260408120541515610ccf565b600081815260046020908152604080832054815180830190925260128252710646561646c696e65206d75737420626520360741b92820192909252906144995760405162461bcd60e51b81526004016109b09190615b66565b50600082815260046020908152604080832083905560019091528082208290555183917f90fb84ad67dd037c388289337bb80b61b8605d38ba9a875dc38b5600909d172f91a2506001919050565b606060006144f4836143d4565b90506000816001600160401b038111156145105761451061571d565b604051908082528060200260200182016040528015614539578160200160208202803683370190505b50905060005b82811015613fed5761455185826143de565b82828151811061456357614563615d9e565b6001600160a01b03909216602092830291909101909101528061458581615db4565b91505061453f565b600082815260026020908152604080832080546001600160a01b03198082166001600160a01b038881169182179094558686528487208054909216909155600485528386208690558351929091168083529382015285917fc4a957706c639829ad54381b04930c464db6c7ffdc09d2b4b1acc9ee34fb926191015b60405180910390a2509092915050565b6000828152600360209081526040808320805490859055600183528184208490556004835281842084905581518181529283018590529185917fcc0bafe2accb565ea70674bf4b2555e49a47d410fb9932dfab3e5f41855d0a2f9101614608565b60008181526001830160205260408120541515610ccf565b604051630956fef360e21b81526001600160a01b03838116600483015260009182917f0000000000000000000000000000000000000000000000000000000000000000169063255bfbcc9060240160206040518083038186803b1580156146f757600080fd5b505afa15801561470b573d6000803e3d6000fd5b505050506040513d601f19601f8201168201806040525081019061472f9190615b79565b90506000816001600160a01b0316639816f4736040518163ffffffff1660e01b815260040160206040518083038186803b15801561476c57600080fd5b505afa158015614780573d6000803e3d6000fd5b505050506040513d601f19601f820116820180604052508101906147a49190615b79565b9050836001600160a01b0316816001600160a01b031614156147cb57600192505050610d87565b60006147ff7f00000000000000000000000000000000000000000000000000000000000000006001600160a01b0316614fab565b6040516301f354d560e21b81526001600160a01b0384811660048301528781166024830152919250908216906307cd53549060440160206040518083038186803b15801561484c57600080fd5b505afa158015614860573d6000803e3d6000fd5b505050506040513d601f19601f820116820180604052508101906148849190615bb8565b9695505050505050565b6040516369c2390b60e11b81526001600160a01b037f0000000000000000000000000000000000000000000000000000000000000000811660048301528085166024830152831660448201526064810182905260009073__$69d5f919a2332fd1585cf8aec6346e89b0$__9063d38472169060840160206040518083038186803b15801561491b57600080fd5b505af415801561492f573d6000803e3d6000fd5b505050506040513d601f19601f820116820180604052508101906149539190615c8e565b949350505050565b60405163059eadeb60e41b81526001600160a01b0384811660048301526000917f0000000000000000000000000000000000000000000000000000000000000000909116906359eadeb09060240160206040518083038186803b1580156149c157600080fd5b505afa1580156149d5573d6000803e3d6000fd5b505050506040513d601f19601f820116820180604052508101906149f99190615b79565b604051631b89105360e31b81526001600160a01b038083166004830152808816602483015286166044820152606481018590526084810184905290915073__$69d5f919a2332fd1585cf8aec6346e89b0$__9063dc4882989060a40160006040518083038186803b158015614a6d57600080fd5b505af4158015614a81573d6000803e3d6000fd5b505050505050505050565b6000614ae1826040518060400160405280602081526020017f5361666545524332303a206c6f772d6c6576656c2063616c6c206661696c6564815250856001600160a01b0316614fec9092919063ffffffff16565b805190915015613e0d5780806020019051810190614aff9190615bb8565b613e0d5760405162461bcd60e51b815260206004820152602a60248201527f5361666545524332303a204552433230206f7065726174696f6e20646964206e6044820152691bdd081cdd58d8d9595960b21b60648201526084016109b0565b6001600160a01b0383166000908152600b60205260408120805490915b818110156135d0576000838281548110614b9757614b97615d9e565b90600052602060002090600202019050858160000154148015614bbd5750848160010154145b15614c545783614bce600185615d16565b81548110614bde57614bde615d9e565b9060005260206000209060020201848381548110614bfe57614bfe615d9e565b6000918252602090912082546002909202019081556001918201549101558354849080614c2d57614c2d615e59565b60008281526020812060026000199093019283020181815560010155905550505050505050565b5080614c5f81615db4565b915050614b7b565b6000610ccf836001600160a01b038416614ffb565b60006004600083815260200190815260200160002054905080421015604051806060016040528060218152602001615f006021913990614ccf5760405162461bcd60e51b81526004016109b09190615b66565b5060408051808201909152600d81526c0646561646c696e65206973203609c1b602082015281614d125760405162461bcd60e51b81526004016109b09190615b66565b5050600090815260046020526040812055565b801580614dae5750604051636eb1769f60e11b81523060048201526001600160a01b03838116602483015284169063dd62ed3e9060440160206040518083038186803b158015614d7457600080fd5b505afa158015614d88573d6000803e3d6000fd5b505050506040513d601f19601f82011682018060405250810190614dac9190615c8e565b155b614e195760405162461bcd60e51b815260206004820152603660248201527f5361666545524332303a20617070726f76652066726f6d206e6f6e2d7a65726f60448201527520746f206e6f6e2d7a65726f20616c6c6f77616e636560501b60648201526084016109b0565b6040516001600160a01b038316602482015260448101829052613e0d90849063095ea7b360e01b90606401613dd6565b6000610ccf8383614ffb565b6000610ccf8383614f5c565b6000614e6d84836150ee565b600084815260016020908152604091829020859055815185815290810184905285917f0e6790002e78fb96ff1fdfe3a3bb2a86489d3f3923372c1fe5b6b1fed071eed491015b60405180910390a25060019392505050565b6000826000018281548110614edc57614edc615d9e565b9060005260206000200154905092915050565b6000614efb84836150ee565b6000848152602081815260409182902080546001600160a01b0319166001600160a01b038716908117909155825190815290810184905285917fd46e58ee9dc1ae703349f8c09c19f23213a531b4d57f00cfd4a5a6cb6519668d9101614eb3565b6000818152600183016020526040812054614fa357508154600181810184556000848152602080822090930184905584548482528286019093526040902091909155610d87565b506000610d87565b6040516321f8a72160e01b81526e73776170706572526567697374727960881b60048201526000906001600160a01b038316906321f8a72190602401613d5a565b606061495384846000856151c8565b600081815260018301602052604081205480156150e457600061501f600183615d16565b855490915060009061503390600190615d16565b905081811461509857600086600001828154811061505357615053615d9e565b906000526020600020015490508087600001848154811061507657615076615d9e565b6000918252602080832090910192909255918252600188019052604090208390555b85548690806150a9576150a9615e59565b600190038181906000526020600020016000905590558560010160008681526020019081526020016000206000905560019350505050610d87565b6000915050610d87565b6004600083815260200190815260200160002054600014604051806040016040528060128152602001710646561646c696e65206d75737420626520360741b8152509061514e5760405162461bcd60e51b81526004016109b09190615b66565b5060408051808201909152601881527f64656c6179206265206174206c6561737420332064617973000000000000000060208201526203f4808210156151a75760405162461bcd60e51b81526004016109b09190615b66565b506151b28142615cdc565b6000928352600460205260409092209190915550565b6060824710156152295760405162461bcd60e51b815260206004820152602660248201527f416464726573733a20696e73756666696369656e742062616c616e636520666f6044820152651c8818d85b1b60d21b60648201526084016109b0565b6001600160a01b0385163b6152805760405162461bcd60e51b815260206004820152601d60248201527f416464726573733a2063616c6c20746f206e6f6e2d636f6e747261637400000060448201526064016109b0565b600080866001600160a01b0316858760405161529c9190615d5a565b60006040518083038185875af1925050503d80600081146152d9576040519150601f19603f3d011682016040523d82523d6000602084013e6152de565b606091505b50915091506152ee8282866152f9565b979650505050505050565b60608315615308575081610ccf565b8251156153185782518084602001fd5b8160405162461bcd60e51b81526004016109b09190615b66565b82805461533e90615b2b565b90600052602060002090601f01602090048101928261536057600085556153a6565b82601f1061537957805160ff19168380011785556153a6565b828001600101855582156153a6579182015b828111156153a657825182559160200191906001019061538b565b506153b29291506153f3565b5090565b5080546153c290615b2b565b6000825580601f106153d2575050565b601f0160209004906000526020600020908101906153f091906153f3565b50565b5b808211156153b257600081556001016153f4565b80151581146153f057600080fd5b60008060006060848603121561542b57600080fd5b8335925060208401359150604084013561544481615408565b809150509250925092565b60006020828403121561546157600080fd5b5035919050565b6001600160a01b03811681146153f057600080fd5b803561233d81615468565b60006020828403121561549a57600080fd5b8135610ccf81615468565b602080825282518282018190526000919060409081850190868401855b828110156154e7578151805185528601518685015292840192908501906001016154c2565b5091979650505050505050565b600080600080600060a0868803121561550c57600080fd5b853561551781615468565b945060208601359350604086013561552e81615468565b94979396509394606081013594506080013592915050565b6020808252825182820181905260009190848201906040850190845b8181101561557e57835183529284019291840191600101615562565b50909695505050505050565b60008060006060848603121561559f57600080fd5b83356155aa81615468565b95602085013595506040909401359392505050565b60005b838110156155da5781810151838201526020016155c2565b838111156143a55750506000910152565b600081518084526156038160208601602086016155bf565b601f01601f19169290920160200192915050565b602081526156316020820183516001600160401b03169052565b6000602083015161564d60408401826001600160401b03169052565b5060408301516001600160401b03811660608401525060608301516001600160a01b03811660808401525060808301516001600160a01b03811660a08401525060a08301516001600160801b03811660c08401525060c08301516001600160801b03811660e08401525060e08301516101006156d3818501836001600160801b03169052565b8401516101208481015290506149536101408401826155eb565b6000806040838503121561570057600080fd5b82359150602083013561571281615468565b809150509250929050565b634e487b7160e01b600052604160045260246000fd5b60405161012081016001600160401b03811182821017156157565761575661571d565b60405290565b600082601f83011261576d57600080fd5b81356001600160401b03808211156157875761578761571d565b604051601f8301601f19908116603f011681019082821181831017156157af576157af61571d565b816040528381528660208588010111156157c857600080fd5b836020870160208301376000602085830101528094505050505092915050565b6000806000606084860312156157fd57600080fd5b833592506020840135915060408401356001600160401b0381111561582157600080fd5b61582d8682870161575c565b9150509250925092565b600081518084526020808501945080840160005b838110156158705781516001600160a01b03168752958201959082019060010161584b565b509495945050505050565b602081526000610ccf6020830184615837565b600080604083850312156158a157600080fd5b50508035926020909101359150565b6040815260006158c36040830185615837565b90508260208301529392505050565b60008083601f8401126158e457600080fd5b5081356001600160401b038111156158fb57600080fd5b6020830191508360208260051b85010111156131d557600080fd5b60008060008060006060868803121561592e57600080fd5b853561593981615468565b945060208601356001600160401b038082111561595557600080fd5b61596189838a016158d2565b9096509450604088013591508082111561597a57600080fd5b50615987888289016158d2565b969995985093965092949392505050565b600080600080608085870312156159ae57600080fd5b84356159b981615468565b93506020850135925060408501356159d081615468565b9396929550929360600135925050565b80356001600160801b038116811461233d57600080fd5b80356001600160401b038116811461233d57600080fd5b60008060008060808587031215615a2457600080fd5b8435935060208501359250615a3b604086016159e0565b915060608501356001600160401b0380821115615a5757600080fd5b908601906101208289031215615a6c57600080fd5b615a74615733565b615a7d836159f7565b8152615a8b602084016159f7565b6020820152615a9c604084016159f7565b6040820152615aad6060840161547d565b6060820152615abe6080840161547d565b6080820152615acf60a084016159e0565b60a0820152615ae060c084016159e0565b60c0820152615af160e084016159e0565b60e08201526101008084013583811115615b0a57600080fd5b615b168b82870161575c565b82840152505080935050505092959194509250565b600181811c90821680615b3f57607f821691505b60208210811415615b6057634e487b7160e01b600052602260045260246000fd5b50919050565b602081526000610ccf60208301846155eb565b600060208284031215615b8b57600080fd5b8151610ccf81615468565b6001600160a01b039290921682526001600160801b0316602082015260400190565b600060208284031215615bca57600080fd5b8151610ccf81615408565b8054600090600181811c9080831680615bef57607f831692505b6020808410821415615c1157634e487b7160e01b600052602260045260246000fd5b83885260208801828015615c2c5760018114615c3d57615c68565b60ff19871682528282019750615c68565b60008981526020902060005b87811015615c6257815484820152908601908401615c49565b83019850505b5050505050505092915050565b8281526040602082015260006149536040830184615bd5565b600060208284031215615ca057600080fd5b5051919050565b634e487b7160e01b600052601160045260246000fd5b6000816000190483118215151615615cd757615cd7615ca7565b500290565b60008219821115615cef57615cef615ca7565b500190565b600082615d1157634e487b7160e01b600052601260045260246000fd5b500490565b600082821015615d2857615d28615ca7565b500390565b84815260018060a01b03841660208201528260408201526080606082015260006148846080830184615bd5565b60008251615d6c8184602087016155bf565b9190910192915050565b60006001600160801b0383811690831681811015615d9657615d96615ca7565b039392505050565b634e487b7160e01b600052603260045260246000fd5b6000600019821415615dc857615dc8615ca7565b5060010190565b82815260406020820152600061495360408301846155eb565b6001600160a01b038981168252888116602083015260408201889052861660608201526001600160801b038581166080830152841660a08201526001600160401b03831660c082015261010060e08201819052600090615e4a838201856155eb565b9b9a5050505050505050505050565b634e487b7160e01b600052603160045260246000fdfe746f6b656e206e6f7420757361626c6520666f722074686520737065636966696320616374696f6e746f6f206d756368204554482077696c6c206265207573656420666f72206761736e6f7420656e6f7567682045544820696e206761732062616e6b20746f20636f76657220676173756e617574686f72697a65642061636365737300000000000000000000000000646561646c696e6520686173206e6f74206265656e207265616368656420796574a2646970667358221220c4747f86f51ace0d4ec0688a53f925c747e59f3639288160da941ba9f860a8f864736f6c63430008090033",
  "linkReferences": {
    "contracts/actions/topup/TopUpAction.sol": {
      "TopUpActionLibrary": [
        {
          "length": 20,
          "start": 17606
        },
        {
          "length": 20,
          "start": 19585
        },
        {
          "length": 20,
          "start": 19923
        }
      ]
    }
  },
  "deployedLinkReferences": {
    "contracts/actions/topup/TopUpAction.sol": {
      "TopUpActionLibrary": [
        {
          "length": 20,
          "start": 16683
        },
        {
          "length": 20,
          "start": 18662
        },
        {
          "length": 20,
          "start": 19000
        }
      ]
    }
  }
}