{
  "_format": "hh-sol-artifact-1",
  "contractName": "TopUpActionLibrary",
  "sourceName": "contracts/actions/topup/TopUpAction.sol",
  "abi": [
    {
      "inputs": [
        {
          "internalType": "contract IAddressProvider",
          "name": "addressProvider",
          "type": "IAddressProvider"
        },
        {
          "internalType": "address",
          "name": "token",
          "type": "address"
        },
        {
          "internalType": "address",
          "name": "actionToken",
          "type": "address"
        },
        {
          "internalType": "uint256",
          "name": "amount",
          "type": "uint256"
        }
      ],
      "name": "calcExchangeAmount",
      "outputs": [
        {
          "internalType": "uint256",
          "name": "",
          "type": "uint256"
        }
      ],
      "stateMutability": "view",
      "type": "function"
    },
    {
      "inputs": [
        {
          "internalType": "contract IAddressProvider",
          "name": "addressProvider",
          "type": "IAddressProvider"
        },
        {
          "internalType": "address",
          "name": "underlying",
          "type": "address"
        },
        {
          "internalType": "address",
          "name": "actionToken",
          "type": "address"
        }
      ],
      "name": "getSwapper",
      "outputs": [
        {
          "internalType": "contract ISwapper",
          "name": "",
          "type": "ISwapper"
        }
      ],
      "stateMutability": "view",
      "type": "function"
    }
  ],
  "bytecode": "0x610e8961003a600b82828239805160001a60731461002d57634e487b7160e01b600052600060045260246000fd5b30600052607381538281f3fe730000000000000000000000000000000000000000301460806040526004361061004b5760003560e01c806376b4805114610050578063d384721614610080578063dc488298146100a1575b600080fd5b61006361005e366004610bd7565b6100c3565b6040516001600160a01b0390911681526020015b60405180910390f35b61009361008e366004610c22565b6101c8565b604051908152602001610077565b8180156100ad57600080fd5b506100c16100bc366004610c73565b61041a565b005b6000806100d8856001600160a01b0316610762565b6040516336e6ef1160e01b81526001600160a01b03868116600483015285811660248301529192506000918316906336e6ef119060440160206040518083038186803b15801561012757600080fd5b505afa15801561013b573d6000803e3d6000fd5b505050506040513d601f19601f8201168201806040525081019061015f9190610cce565b6040805180820190915260138152721cddd85c081c185d1a081b9bdd08199bdd5b99606a1b60208201529091506001600160a01b0382166101bc5760405162461bcd60e51b81526004016101b39190610d17565b60405180910390fd5b509150505b9392505050565b604051630956fef360e21b81526001600160a01b038481166004830152600091829187169063255bfbcc9060240160206040518083038186803b15801561020e57600080fd5b505afa158015610222573d6000803e3d6000fd5b505050506040513d601f19601f820116820180604052508101906102469190610cce565b90506000816001600160a01b0316633ba0b9a96040518163ffffffff1660e01b815260040160206040518083038186803b15801561028357600080fd5b505afa158015610297573d6000803e3d6000fd5b505050506040513d601f19601f820116820180604052508101906102bb9190610d4a565b90506000826001600160a01b0316639816f4736040518163ffffffff1660e01b815260040160206040518083038186803b1580156102f857600080fd5b505afa15801561030c573d6000803e3d6000fd5b505050506040513d601f19601f820116820180604052508101906103309190610cce565b9050856001600160a01b0316816001600160a01b031614156103605761035685836107f4565b9350505050610412565b600061036d8983896100c3565b604051631bcdc3f560e11b81526001600160a01b038481166004830152898116602483015291925060009183169063379b87ea9060440160206040518083038186803b1580156103bc57600080fd5b505afa1580156103d0573d6000803e3d6000fd5b505050506040513d601f19601f820116820180604052508101906103f49190610d4a565b905061040a610403858361082a565b88906107f4565b955050505050505b949350505050565b818582156105675781831161042f5782610431565b815b92506104486001600160a01b03861687308661083f565b61045c6001600160a01b03861688856108b0565b60405163534a7e1d60e11b8152600481018490526001600160a01b0382169063a694fc3a90602401602060405180830381600087803b15801561049e57600080fd5b505af11580156104b2573d6000803e3d6000fd5b505050506040513d601f19601f820116820180604052508101906104d69190610d63565b50604051630fcb700160e41b81526001600160a01b0387811660048301526024820185905282169063fcb7001090604401602060405180830381600087803b15801561052157600080fd5b505af1158015610535573d6000803e3d6000fd5b505050506040513d601f19601f820116820180604052508101906105599190610d63565b506105648383610d9b565b91505b811561071d576040516370a0823160e01b81526001600160a01b038781166004830152600091908316906370a082319060240160206040518083038186803b1580156105b257600080fd5b505afa1580156105c6573d6000803e3d6000fd5b505050506040513d601f19601f820116820180604052508101906105ea9190610d4a565b604051636eb1769f60e11b81526001600160a01b03898116600483015230602483015291925060009184169063dd62ed3e9060440160206040518083038186803b15801561063757600080fd5b505afa15801561064b573d6000803e3d6000fd5b505050506040513d601f19601f8201168201806040525081019061066f9190610d4a565b905060008183106106805781610682565b825b9050848110610719576040516323b872dd60e01b81526001600160a01b038a81166004830152306024830152604482018790528516906323b872dd90606401602060405180830381600087803b1580156106db57600080fd5b505af11580156106ef573d6000803e3d6000fd5b505050506040513d601f19601f820116820180604052508101906107139190610d63565b50600094505b5050505b816000146040518060600160405280602c8152602001610e28602c9139906107585760405162461bcd60e51b81526004016101b39190610d17565b5050505050505050565b6040516321f8a72160e01b81526e73776170706572526567697374727960881b60048201526000906001600160a01b038316906321f8a7219060240160206040518083038186803b1580156107b657600080fd5b505afa1580156107ca573d6000803e3d6000fd5b505050506040513d601f19601f820116820180604052508101906107ee9190610cce565b92915050565b60008160018161080c670de0b6b3a764000087610db2565b6108169190610dd1565b6108209190610d9b565b6101c19190610de9565b6000670de0b6b3a76400006108208385610db2565b6040516001600160a01b03808516602483015283166044820152606481018290526108aa9085906323b872dd60e01b906084015b60408051601f198184030181529190526020810180516001600160e01b03166001600160e01b0319909316929092179091526109d9565b50505050565b8015806109395750604051636eb1769f60e11b81523060048201526001600160a01b03838116602483015284169063dd62ed3e9060440160206040518083038186803b1580156108ff57600080fd5b505afa158015610913573d6000803e3d6000fd5b505050506040513d601f19601f820116820180604052508101906109379190610d4a565b155b6109a45760405162461bcd60e51b815260206004820152603660248201527f5361666545524332303a20617070726f76652066726f6d206e6f6e2d7a65726f60448201527520746f206e6f6e2d7a65726f20616c6c6f77616e636560501b60648201526084016101b3565b6040516001600160a01b0383166024820152604481018290526109d490849063095ea7b360e01b90606401610873565b505050565b6000610a2e826040518060400160405280602081526020017f5361666545524332303a206c6f772d6c6576656c2063616c6c206661696c6564815250856001600160a01b0316610aab9092919063ffffffff16565b8051909150156109d45780806020019051810190610a4c9190610d63565b6109d45760405162461bcd60e51b815260206004820152602a60248201527f5361666545524332303a204552433230206f7065726174696f6e20646964206e6044820152691bdd081cdd58d8d9595960b21b60648201526084016101b3565b60606104128484600085856001600160a01b0385163b610b0d5760405162461bcd60e51b815260206004820152601d60248201527f416464726573733a2063616c6c20746f206e6f6e2d636f6e747261637400000060448201526064016101b3565b600080866001600160a01b03168587604051610b299190610e0b565b60006040518083038185875af1925050503d8060008114610b66576040519150601f19603f3d011682016040523d82523d6000602084013e610b6b565b606091505b5091509150610b7b828286610b86565b979650505050505050565b60608315610b955750816101c1565b825115610ba55782518084602001fd5b8160405162461bcd60e51b81526004016101b39190610d17565b6001600160a01b0381168114610bd457600080fd5b50565b600080600060608486031215610bec57600080fd5b8335610bf781610bbf565b92506020840135610c0781610bbf565b91506040840135610c1781610bbf565b809150509250925092565b60008060008060808587031215610c3857600080fd5b8435610c4381610bbf565b93506020850135610c5381610bbf565b92506040850135610c6381610bbf565b9396929550929360600135925050565b600080600080600060a08688031215610c8b57600080fd5b8535610c9681610bbf565b94506020860135610ca681610bbf565b93506040860135610cb681610bbf565b94979396509394606081013594506080013592915050565b600060208284031215610ce057600080fd5b81516101c181610bbf565b60005b83811015610d06578181015183820152602001610cee565b838111156108aa5750506000910152565b6020815260008251806020840152610d36816040850160208701610ceb565b601f01601f19169190910160400192915050565b600060208284031215610d5c57600080fd5b5051919050565b600060208284031215610d7557600080fd5b815180151581146101c157600080fd5b634e487b7160e01b600052601160045260246000fd5b600082821015610dad57610dad610d85565b500390565b6000816000190483118215151615610dcc57610dcc610d85565b500290565b60008219821115610de457610de4610d85565b500190565b600082610e0657634e487b7160e01b600052601260045260246000fd5b500490565b60008251610e1d818460208701610ceb565b919091019291505056fe696e73756666696369656e742066756e647320666f72207570646174696e672074686520706f736974696f6ea2646970667358221220567f07f4eca4d17bd26d77f235681789c00e4417f3f8fb466ea6f2e22d9747b164736f6c63430008090033",
  "linkReferences": {},
  "deployedLinkReferences": {}
}