{
  "_format": "hh-sol-artifact-1",
  "contractName": "AccessControlDefended",
  "sourceName": "contracts/common/AccessControlDefended.sol",
  "abi": [
    {
      "anonymous": false,
      "inputs": [
        {
          "indexed": true,
          "internalType": "address",
          "name": "previousOwner",
          "type": "address"
        },
        {
          "indexed": true,
          "internalType": "address",
          "name": "newOwner",
          "type": "address"
        }
      ],
      "name": "OwnershipTransferred",
      "type": "event"
    },
    {
      "inputs": [
        {
          "internalType": "address",
          "name": "account",
          "type": "address"
        }
      ],
      "name": "approveContractAccess",
      "outputs": [],
      "stateMutability": "nonpayable",
      "type": "function"
    },
    {
      "inputs": [
        {
          "internalType": "address",
          "name": "",
          "type": "address"
        }
      ],
      "name": "approved",
      "outputs": [
        {
          "internalType": "bool",
          "name": "",
          "type": "bool"
        }
      ],
      "stateMutability": "view",
      "type": "function"
    },
    {
      "inputs": [
        {
          "internalType": "address",
          "name": "",
          "type": "address"
        }
      ],
      "name": "blockLock",
      "outputs": [
        {
          "internalType": "uint256",
          "name": "",
          "type": "uint256"
        }
      ],
      "stateMutability": "view",
      "type": "function"
    },
    {
      "inputs": [],
      "name": "owner",
      "outputs": [
        {
          "internalType": "address",
          "name": "_owner",
          "type": "address"
        }
      ],
      "stateMutability": "view",
      "type": "function"
    },
    {
      "inputs": [
        {
          "internalType": "address",
          "name": "account",
          "type": "address"
        }
      ],
      "name": "revokeContractAccess",
      "outputs": [],
      "stateMutability": "nonpayable",
      "type": "function"
    },
    {
      "inputs": [
        {
          "internalType": "address",
          "name": "newOwner",
          "type": "address"
        }
      ],
      "name": "transferOwnership",
      "outputs": [],
      "stateMutability": "nonpayable",
      "type": "function"
    }
  ],
  "bytecode": "0x608060405234801561001057600080fd5b506100203361002560201b60201c565b610196565b600073ffffffffffffffffffffffffffffffffffffffff168173ffffffffffffffffffffffffffffffffffffffff1614156100ab576040517f08c379a000000000000000000000000000000000000000000000000000000000815260040180806020018281038252602b8152602001806108aa602b913960400191505060405180910390fd5b8073ffffffffffffffffffffffffffffffffffffffff166100d061015360201b60201c565b73ffffffffffffffffffffffffffffffffffffffff167f8be0079c531659141344cd1fd0a4f28419497f9722a3daafe3b4186f6b6457e060405160405180910390a3600060405180807f70726f78792e6f776e6572000000000000000000000000000000000000000000815250600b019050604051809103902090508181555050565b60008060405180807f70726f78792e6f776e6572000000000000000000000000000000000000000000815250600b01905060405180910390209050805491505090565b610705806101a56000396000f3fe608060405234801561001057600080fd5b50600436106100625760003560e01c8063269ac051146100675780636c361865146100bf5780637c61e865146101035780638da5cb5b14610147578063d8b964e614610191578063f2fde38b146101ed575b600080fd5b6100a96004803603602081101561007d57600080fd5b81019080803573ffffffffffffffffffffffffffffffffffffffff169060200190929190505050610231565b6040518082815260200191505060405180910390f35b610101600480360360208110156100d557600080fd5b81019080803573ffffffffffffffffffffffffffffffffffffffff169060200190929190505050610249565b005b6101456004803603602081101561011957600080fd5b81019080803573ffffffffffffffffffffffffffffffffffffffff1690602001909291905050506102fd565b005b61014f6103b1565b604051808273ffffffffffffffffffffffffffffffffffffffff1673ffffffffffffffffffffffffffffffffffffffff16815260200191505060405180910390f35b6101d3600480360360208110156101a757600080fd5b81019080803573ffffffffffffffffffffffffffffffffffffffff1690602001909291905050506103f4565b604051808215151515815260200191505060405180910390f35b61022f6004803603602081101561020357600080fd5b81019080803573ffffffffffffffffffffffffffffffffffffffff169060200190929190505050610414565b005b60016020528060005260406000206000915090505481565b3373ffffffffffffffffffffffffffffffffffffffff166102686103b1565b73ffffffffffffffffffffffffffffffffffffffff16146102f1576040517f08c379a00000000000000000000000000000000000000000000000000000000081526004018080602001828103825260098152602001807f4e4f545f4f574e4552000000000000000000000000000000000000000000000081525060200191505060405180910390fd5b6102fa816104c8565b50565b3373ffffffffffffffffffffffffffffffffffffffff1661031c6103b1565b73ffffffffffffffffffffffffffffffffffffffff16146103a5576040517f08c379a00000000000000000000000000000000000000000000000000000000081526004018080602001828103825260098152602001807f4e4f545f4f574e4552000000000000000000000000000000000000000000000081525060200191505060405180910390fd5b6103ae81610522565b50565b60008060405180807f70726f78792e6f776e6572000000000000000000000000000000000000000000815250600b01905060405180910390209050805491505090565b60006020528060005260406000206000915054906101000a900460ff1681565b3373ffffffffffffffffffffffffffffffffffffffff166104336103b1565b73ffffffffffffffffffffffffffffffffffffffff16146104bc576040517f08c379a00000000000000000000000000000000000000000000000000000000081526004018080602001828103825260098152602001807f4e4f545f4f574e4552000000000000000000000000000000000000000000000081525060200191505060405180910390fd5b6104c58161057c565b50565b60016000808373ffffffffffffffffffffffffffffffffffffffff1673ffffffffffffffffffffffffffffffffffffffff16815260200190815260200160002060006101000a81548160ff02191690831515021790555050565b60008060008373ffffffffffffffffffffffffffffffffffffffff1673ffffffffffffffffffffffffffffffffffffffff16815260200190815260200160002060006101000a81548160ff02191690831515021790555050565b600073ffffffffffffffffffffffffffffffffffffffff168173ffffffffffffffffffffffffffffffffffffffff161415610602576040517f08c379a000000000000000000000000000000000000000000000000000000000815260040180806020018281038252602b8152602001806106a5602b913960400191505060405180910390fd5b8073ffffffffffffffffffffffffffffffffffffffff166106216103b1565b73ffffffffffffffffffffffffffffffffffffffff167f8be0079c531659141344cd1fd0a4f28419497f9722a3daafe3b4186f6b6457e060405160405180910390a3600060405180807f70726f78792e6f776e6572000000000000000000000000000000000000000000815250600b01905060405180910390209050818155505056fe4f776e61626c6550726f78793a206e6577206f776e657220697320746865207a65726f2061646472657373a26469706673582212205c58243477330191e72bfb12e2905b7c00d71a1a4a436b8f090546273f89c43164736f6c634300060b00334f776e61626c6550726f78793a206e6577206f776e657220697320746865207a65726f2061646472657373",
  "linkReferences": {},
  "deployedLinkReferences": {}
}