{
  "_format": "hh-sol-artifact-1",
  "contractName": "FYTokenFactory",
  "sourceName": "contracts/FYTokenFactory.sol",
  "abi": [
    {
      "anonymous": false,
      "inputs": [
        {
          "indexed": true,
          "internalType": "address",
          "name": "fyToken",
          "type": "address"
        },
        {
          "indexed": true,
          "internalType": "address",
          "name": "asset",
          "type": "address"
        },
        {
          "indexed": true,
          "internalType": "uint32",
          "name": "maturity",
          "type": "uint32"
        }
      ],
      "name": "FYTokenCreated",
      "type": "event"
    },
    {
      "anonymous": false,
      "inputs": [
        {
          "indexed": true,
          "internalType": "bytes4",
          "name": "role",
          "type": "bytes4"
        },
        {
          "indexed": true,
          "internalType": "bytes4",
          "name": "newAdminRole",
          "type": "bytes4"
        }
      ],
      "name": "RoleAdminChanged",
      "type": "event"
    },
    {
      "anonymous": false,
      "inputs": [
        {
          "indexed": true,
          "internalType": "bytes4",
          "name": "role",
          "type": "bytes4"
        },
        {
          "indexed": true,
          "internalType": "address",
          "name": "account",
          "type": "address"
        },
        {
          "indexed": true,
          "internalType": "address",
          "name": "sender",
          "type": "address"
        }
      ],
      "name": "RoleGranted",
      "type": "event"
    },
    {
      "anonymous": false,
      "inputs": [
        {
          "indexed": true,
          "internalType": "bytes4",
          "name": "role",
          "type": "bytes4"
        },
        {
          "indexed": true,
          "internalType": "address",
          "name": "account",
          "type": "address"
        },
        {
          "indexed": true,
          "internalType": "address",
          "name": "sender",
          "type": "address"
        }
      ],
      "name": "RoleRevoked",
      "type": "event"
    },
    {
      "inputs": [],
      "name": "LOCK",
      "outputs": [
        {
          "internalType": "bytes4",
          "name": "",
          "type": "bytes4"
        }
      ],
      "stateMutability": "view",
      "type": "function"
    },
    {
      "inputs": [],
      "name": "ROOT",
      "outputs": [
        {
          "internalType": "bytes4",
          "name": "",
          "type": "bytes4"
        }
      ],
      "stateMutability": "view",
      "type": "function"
    },
    {
      "inputs": [
        {
          "internalType": "bytes6",
          "name": "baseId",
          "type": "bytes6"
        },
        {
          "internalType": "contract IOracle",
          "name": "oracle",
          "type": "address"
        },
        {
          "internalType": "contract IJoin",
          "name": "baseJoin",
          "type": "address"
        },
        {
          "internalType": "uint32",
          "name": "maturity",
          "type": "uint32"
        },
        {
          "internalType": "string",
          "name": "name",
          "type": "string"
        },
        {
          "internalType": "string",
          "name": "symbol",
          "type": "string"
        }
      ],
      "name": "createFYToken",
      "outputs": [
        {
          "internalType": "address",
          "name": "",
          "type": "address"
        }
      ],
      "stateMutability": "nonpayable",
      "type": "function"
    },
    {
      "inputs": [
        {
          "internalType": "bytes4",
          "name": "role",
          "type": "bytes4"
        }
      ],
      "name": "getRoleAdmin",
      "outputs": [
        {
          "internalType": "bytes4",
          "name": "",
          "type": "bytes4"
        }
      ],
      "stateMutability": "view",
      "type": "function"
    },
    {
      "inputs": [
        {
          "internalType": "bytes4",
          "name": "role",
          "type": "bytes4"
        },
        {
          "internalType": "address",
          "name": "account",
          "type": "address"
        }
      ],
      "name": "grantRole",
      "outputs": [],
      "stateMutability": "nonpayable",
      "type": "function"
    },
    {
      "inputs": [
        {
          "internalType": "bytes4[]",
          "name": "roles",
          "type": "bytes4[]"
        },
        {
          "internalType": "address",
          "name": "account",
          "type": "address"
        }
      ],
      "name": "grantRoles",
      "outputs": [],
      "stateMutability": "nonpayable",
      "type": "function"
    },
    {
      "inputs": [
        {
          "internalType": "bytes4",
          "name": "role",
          "type": "bytes4"
        },
        {
          "internalType": "address",
          "name": "account",
          "type": "address"
        }
      ],
      "name": "hasRole",
      "outputs": [
        {
          "internalType": "bool",
          "name": "",
          "type": "bool"
        }
      ],
      "stateMutability": "view",
      "type": "function"
    },
    {
      "inputs": [
        {
          "internalType": "bytes4",
          "name": "role",
          "type": "bytes4"
        }
      ],
      "name": "lockRole",
      "outputs": [],
      "stateMutability": "nonpayable",
      "type": "function"
    },
    {
      "inputs": [
        {
          "internalType": "bytes4",
          "name": "role",
          "type": "bytes4"
        },
        {
          "internalType": "address",
          "name": "account",
          "type": "address"
        }
      ],
      "name": "renounceRole",
      "outputs": [],
      "stateMutability": "nonpayable",
      "type": "function"
    },
    {
      "inputs": [
        {
          "internalType": "bytes4",
          "name": "role",
          "type": "bytes4"
        },
        {
          "internalType": "address",
          "name": "account",
          "type": "address"
        }
      ],
      "name": "revokeRole",
      "outputs": [],
      "stateMutability": "nonpayable",
      "type": "function"
    },
    {
      "inputs": [
        {
          "internalType": "bytes4[]",
          "name": "roles",
          "type": "bytes4[]"
        },
        {
          "internalType": "address",
          "name": "account",
          "type": "address"
        }
      ],
      "name": "revokeRoles",
      "outputs": [],
      "stateMutability": "nonpayable",
      "type": "function"
    },
    {
      "inputs": [
        {
          "internalType": "bytes4",
          "name": "role",
          "type": "bytes4"
        },
        {
          "internalType": "bytes4",
          "name": "adminRole",
          "type": "bytes4"
        }
      ],
      "name": "setRoleAdmin",
      "outputs": [],
      "stateMutability": "nonpayable",
      "type": "function"
    }
  ],
  "bytecode": "0x608060405234801561001057600080fd5b5061001c600033610033565b61002e6001600160e01b0319806100a5565b61017b565b61003d8282610124565b6100a1576001600160e01b031982166000818152602081815260408083206001600160a01b0386168085529252808320805460ff1916600117905551339391927fe6231789d19137da31d0550f4ba9ee379020a8cfb64cb79bf1790c996d2e616591a45b5050565b6001600160e01b031981166100b983610159565b6001600160e01b031916146100a1576001600160e01b0319828116600081815260208190526040808220600101805463ffffffff191660e087901c17905551928416927fd348e2220a50b4500ec353f6e802d2f14dd1b5d6786148fd1bbcc570bf92d4739190a35050565b6001600160e01b031982166000908152602081815260408083206001600160a01b038516845290915290205460ff1692915050565b6001600160e01b03191660009081526020819052604090206001015460e01b90565b614366806200018b6000396000f3fe60806040523480156200001157600080fd5b5060043610620000e85760003560e01c8063839b132d116200008d578063ae93c1b51162000063578063ae93c1b514620001da578063de02cde714620001f1578063effae353146200020857620000e8565b8063839b132d1462000193578063a4f0d7d014620001b9578063ad82110f14620001c357620000e8565b80635909c12f11620000c35780635909c12f146200014c5780635ba5e9f01462000165578063687f0e4c146200017c57620000e8565b806310ab943214620000ed57806344faded0146200011c578063559742d91462000135575b600080fd5b62000104620000fe36600462000d95565b6200021f565b60405162000113919062000f56565b60405180910390f35b620001336200012d36600462000d95565b62000234565b005b620001336200014636600462000d57565b62000284565b62000156620002e3565b60405162000113919062000f61565b620001566200017636600462000d57565b620002e8565b620001336200018d36600462000d95565b620002fd565b620001aa620001a436600462000e04565b62000341565b60405162000113919062000f35565b62000156620006aa565b62000133620001d436600462000c83565b620006ce565b62000133620001eb36600462000dd2565b620007ac565b620001336200020236600462000d95565b620007e7565b620001336200021936600462000c83565b62000822565b60006200022d8383620008f2565b9392505050565b816200024b62000244826200094c565b33620008f2565b620002735760405162461bcd60e51b81526004016200026a9062001066565b60405180910390fd5b6200027f838362000986565b505050565b806200029462000244826200094c565b620002b35760405162461bcd60e51b81526004016200026a9062001066565b620002df827fffffffff0000000000000000000000000000000000000000000000000000000062000a3b565b5050565b600081565b6000620002f5826200094c565b90505b919050565b73ffffffffffffffffffffffffffffffffffffffff81163314620003355760405162461bcd60e51b81526004016200026a906200109d565b620002df828262000986565b6000620003736000357fffffffff000000000000000000000000000000000000000000000000000000001633620008f2565b620003925760405162461bcd60e51b81526004016200026a90620010d4565b6000878787878787604051620003a89062000bd7565b620003b99695949392919062000fd6565b604051809103906000f080158015620003d6573d6000803e3d6000fd5b5090508073ffffffffffffffffffffffffffffffffffffffff1663de02cde78273ffffffffffffffffffffffffffffffffffffffff16635909c12f6040518163ffffffff1660e01b815260040160206040518083038186803b1580156200043c57600080fd5b505afa15801562000451573d6000803e3d6000fd5b505050506040513d601f19601f8201168201806040525081019062000477919062000d76565b336040518363ffffffff1660e01b81526004016200049792919062000f8e565b600060405180830381600087803b158015620004b257600080fd5b505af1158015620004c7573d6000803e3d6000fd5b505050508073ffffffffffffffffffffffffffffffffffffffff1663687f0e4c8273ffffffffffffffffffffffffffffffffffffffff16635909c12f6040518163ffffffff1660e01b815260040160206040518083038186803b1580156200052e57600080fd5b505afa15801562000543573d6000803e3d6000fd5b505050506040513d601f19601f8201168201806040525081019062000569919062000d76565b306040518363ffffffff1660e01b81526004016200058992919062000f8e565b600060405180830381600087803b158015620005a457600080fd5b505af1158015620005b9573d6000803e3d6000fd5b505050508463ffffffff168673ffffffffffffffffffffffffffffffffffffffff166338d52e0f6040518163ffffffff1660e01b815260040160206040518083038186803b1580156200060b57600080fd5b505afa15801562000620573d6000803e3d6000fd5b505050506040513d601f19601f8201168201806040525081019062000646919062000c64565b73ffffffffffffffffffffffffffffffffffffffff168273ffffffffffffffffffffffffffffffffffffffff167f85e234b3f0665fe250a0e323838371f80e08c0d53c03fd87b6924a1c1ed22c6960405160405180910390a4979650505050505050565b7fffffffff0000000000000000000000000000000000000000000000000000000081565b60005b82518110156200027f576200072b620002448483815181106200071d577f4e487b7100000000000000000000000000000000000000000000000000000000600052603260045260246000fd5b60200260200101516200094c565b6200074a5760405162461bcd60e51b81526004016200026a9062001066565b6200079783828151811062000788577f4e487b7100000000000000000000000000000000000000000000000000000000600052603260045260246000fd5b60200260200101518362000986565b80620007a3816200113f565b915050620006d1565b81620007bc62000244826200094c565b620007db5760405162461bcd60e51b81526004016200026a9062001066565b6200027f838362000a3b565b81620007f762000244826200094c565b620008165760405162461bcd60e51b81526004016200026a9062001066565b6200027f838362000b20565b60005b82518110156200027f5762000871620002448483815181106200071d577f4e487b7100000000000000000000000000000000000000000000000000000000600052603260045260246000fd5b620008905760405162461bcd60e51b81526004016200026a9062001066565b620008dd838281518110620008ce577f4e487b7100000000000000000000000000000000000000000000000000000000600052603260045260246000fd5b60200260200101518362000b20565b80620008e9816200113f565b91505062000825565b7fffffffff00000000000000000000000000000000000000000000000000000000821660009081526020818152604080832073ffffffffffffffffffffffffffffffffffffffff8516845290915290205460ff1692915050565b7fffffffff000000000000000000000000000000000000000000000000000000001660009081526020819052604090206001015460e01b90565b620009928282620008f2565b15620002df577fffffffff00000000000000000000000000000000000000000000000000000000821660008181526020818152604080832073ffffffffffffffffffffffffffffffffffffffff8616808552925280832080547fffffffffffffffffffffffffffffffffffffffffffffffffffffffffffffff0016905551339391927f4ddc7b757e7bdd7254a9cd39452d307a52761bc824625c6a33104a075d8099e691a45050565b7fffffffff00000000000000000000000000000000000000000000000000000000811662000a69836200094c565b7fffffffff000000000000000000000000000000000000000000000000000000001614620002df577fffffffff0000000000000000000000000000000000000000000000000000000082811660008181526020819052604080822060010180547fffffffffffffffffffffffffffffffffffffffffffffffffffffffff000000001660e087901c17905551928416927fd348e2220a50b4500ec353f6e802d2f14dd1b5d6786148fd1bbcc570bf92d4739190a35050565b62000b2c8282620008f2565b620002df577fffffffff00000000000000000000000000000000000000000000000000000000821660008181526020818152604080832073ffffffffffffffffffffffffffffffffffffffff8616808552925280832080547fffffffffffffffffffffffffffffffffffffffffffffffffffffffffffffff0016600117905551339391927fe6231789d19137da31d0550f4ba9ee379020a8cfb64cb79bf1790c996d2e616591a45050565b61310e806200122383390190565b8035620002f881620011cd565b600082601f83011262000c03578081fd5b813567ffffffffffffffff81111562000c205762000c206200119e565b62000c356020601f19601f840116016200110b565b81815284602083860101111562000c4a578283fd5b816020850160208301379081016020019190915292915050565b60006020828403121562000c76578081fd5b81516200022d81620011cd565b6000806040838503121562000c96578081fd5b823567ffffffffffffffff8082111562000cae578283fd5b818501915085601f83011262000cc2578283fd5b813560208282111562000cd95762000cd96200119e565b808202925062000ceb8184016200110b565b8281528181019085830185870184018b101562000d06578788fd5b8796505b8487101562000d38578035955062000d2286620011f3565b8583526001969096019591830191830162000d0a565b50965062000d4a905087820162000be5565b9450505050509250929050565b60006020828403121562000d69578081fd5b81356200022d81620011f3565b60006020828403121562000d88578081fd5b81516200022d81620011f3565b6000806040838503121562000da8578182fd5b823562000db581620011f3565b9150602083013562000dc781620011cd565b809150509250929050565b6000806040838503121562000de5578182fd5b823562000df281620011f3565b9150602083013562000dc781620011f3565b60008060008060008060c0878903121562000e1d578182fd5b86357fffffffffffff00000000000000000000000000000000000000000000000000008116811462000e4d578283fd5b9550602087013562000e5f81620011cd565b9450604087013562000e7181620011cd565b9350606087013563ffffffff8116811462000e8a578283fd5b9250608087013567ffffffffffffffff8082111562000ea7578384fd5b62000eb58a838b0162000bf2565b935060a089013591508082111562000ecb578283fd5b5062000eda89828a0162000bf2565b9150509295509295509295565b60008151808452815b8181101562000f0e5760208185018101518683018201520162000ef0565b8181111562000f205782602083870101525b50601f01601f19169290920160200192915050565b73ffffffffffffffffffffffffffffffffffffffff91909116815260200190565b901515815260200190565b7fffffffff0000000000000000000000000000000000000000000000000000000091909116815260200190565b7fffffffff0000000000000000000000000000000000000000000000000000000092909216825273ffffffffffffffffffffffffffffffffffffffff16602082015260400190565b60007fffffffffffff00000000000000000000000000000000000000000000000000008816825273ffffffffffffffffffffffffffffffffffffffff808816602084015280871660408401525063ffffffff8516606083015260c060808301526200104560c083018562000ee7565b82810360a084015262001059818562000ee7565b9998505050505050505050565b6020808252600a908201527f4f6e6c792061646d696e00000000000000000000000000000000000000000000604082015260600190565b60208082526016908201527f52656e6f756e6365206f6e6c7920666f722073656c6600000000000000000000604082015260600190565b6020808252600d908201527f4163636573732064656e69656400000000000000000000000000000000000000604082015260600190565b604051601f8201601f1916810167ffffffffffffffff811182821017156200113757620011376200119e565b604052919050565b60007fffffffffffffffffffffffffffffffffffffffffffffffffffffffffffffffff82141562001197577f4e487b710000000000000000000000000000000000000000000000000000000081526011600452602481fd5b5060010190565b7f4e487b7100000000000000000000000000000000000000000000000000000000600052604160045260246000fd5b73ffffffffffffffffffffffffffffffffffffffff81168114620011f057600080fd5b50565b7fffffffff0000000000000000000000000000000000000000000000000000000081168114620011f057600080fdfe6101a06040526003610160819052623f3f3f60e81b6101809081526200002991600491906200059e565b50604080518082019091526003808252623f3f3f60e81b602090920191825262000056916005916200059e565b506006805460ff191660121790557f6e71edae12b1b97f4d1f60370fef10105fa2faae0126114a169c64845d6126c96080526263686960e81b600855637261746560e01b600955600019600b55348015620000b057600080fd5b506040516200310e3803806200310e833981016040819052620000d3916200071d565b818173__$ea7c6153c71f64cb06479ef78296a69e4f$__638ee573ac876001600160a01b03166338d52e0f6040518163ffffffff1660e01b815260040160206040518083038186803b1580156200012957600080fd5b505afa1580156200013e573d6000803e3d6000fd5b505050506040513d601f19601f82011682018060405250810190620001649190620006f7565b6040518263ffffffff1660e01b8152600401620001829190620008a0565b60206040518083038186803b1580156200019b57600080fd5b505af4158015620001b0573d6000803e3d6000fd5b505050506040513d601f19601f82011682018060405250810190620001d69190620007d8565b828282620001e6600033620003b4565b620001fa6001600160e01b03198062000429565b82516200020f9060049060208601906200059e565b508151620002259060059060208501906200059e565b506006805460ff191660ff9290921691909117905550504660c08190526200024d81620004ab565b60a052504292505050808411801562000274575062000271630784ce008262000916565b84105b801562000284575063ffffffff84105b620002ac5760405162461bcd60e51b8152600401620002a390620008e0565b60405180910390fd5b6001600160d01b03198716610120526001600160601b0319606086901b1660e052610140849052604080516338d52e0f60e01b815290516001600160a01b038716916338d52e0f916004808301926020929190829003018186803b1580156200031457600080fd5b505afa15801562000329573d6000803e3d6000fd5b505050506040513d601f19601f820116820180604052508101906200034f9190620006f7565b60601b6001600160601b03191661010052600a80546001600160a01b0319166001600160a01b0388169081179091556040517f3f32684a32a11dabdbb8c0177de80aa3ae36a004d75210335b49e544e48cd0aa90600090a250505050505050620009a7565b620003c082826200052c565b62000425576001600160e01b031982166000818152602081815260408083206001600160a01b0386168085529252808320805460ff1916600117905551339391927fe6231789d19137da31d0550f4ba9ee379020a8cfb64cb79bf1790c996d2e616591a45b5050565b6001600160e01b031981166200043f8362000561565b6001600160e01b0319161462000425576001600160e01b0319828116600081815260208190526040808220600101805463ffffffff191660e087901c17905551928416927fd348e2220a50b4500ec353f6e802d2f14dd1b5d6786148fd1bbcc570bf92d4739190a35050565b60007f8b73c3c69bb8fe3d512ecc4cf759cc79239f7b179b0ffacaa9a75d522b39400f6004604051620004df9190620007fb565b604051908190039020620004f262000583565b80516020918201206040516200050f9493928791309101620008b4565b604051602081830303815290604052805190602001209050919050565b6001600160e01b031982166000908152602081815260408083206001600160a01b038516845290915290205460ff1692915050565b6001600160e01b03191660009081526020819052604090206001015460e01b90565b6040805180820190915260018152603160f81b602082015290565b828054620005ac906200093b565b90600052602060002090601f016020900481019282620005d057600085556200061b565b82601f10620005eb57805160ff19168380011785556200061b565b828001600101855582156200061b579182015b828111156200061b578251825591602001919060010190620005fe565b50620006299291506200062d565b5090565b5b808211156200062957600081556001016200062e565b600082601f83011262000655578081fd5b81516001600160401b038082111562000672576200067262000978565b604051601f8301601f19908116603f011681019082821181831017156200069d576200069d62000978565b81604052838152602092508683858801011115620006b9578485fd5b8491505b83821015620006dc5785820183015181830184015290820190620006bd565b83821115620006ed57848385830101525b9695505050505050565b60006020828403121562000709578081fd5b815162000716816200098e565b9392505050565b60008060008060008060c0878903121562000736578182fd5b86516001600160d01b0319811681146200074e578283fd5b602088015190965062000761816200098e565b604088015190955062000774816200098e565b6060880151608089015191955093506001600160401b038082111562000798578384fd5b620007a68a838b0162000644565b935060a0890151915080821115620007bc578283fd5b50620007cb89828a0162000644565b9150509295509295509295565b600060208284031215620007ea578081fd5b815160ff8116811462000716578182fd5b81546000908190600281046001808316806200081857607f831692505b60208084108214156200083957634e487b7160e01b87526022600452602487fd5b818015620008505760018114620008625762000892565b60ff1986168952848901965062000892565b6200086d8a6200090a565b885b868110156200088a5781548b8201529085019083016200086f565b505084890196505b509498975050505050505050565b6001600160a01b0391909116815260200190565b9485526020850193909352604084019190915260608301526001600160a01b0316608082015260a00190565b60208082526010908201526f496e76616c6964206d6174757269747960801b604082015260600190565b60009081526020902090565b600082198211156200093657634e487b7160e01b81526011600452602481fd5b500190565b6002810460018216806200095057607f821691505b602082108114156200097257634e487b7160e01b600052602260045260246000fd5b50919050565b634e487b7160e01b600052604160045260246000fd5b6001600160a01b0381168114620009a457600080fd5b50565b60805160a05160c05160e05160601c6101005160601c6101205160d01c60d01b6101405161269e62000a706000396000818161063d015281816107a70152818161081a015281816108cd01528181610a4c01528181610bbb01528181610d640152611185015260008181610dd80152818161145a01526119a301526000610c580152600081816106ab0152610f5f01526000818161087001528181610f8901526110500152600081816108a501526110850152600081816107eb0152610fea015261269e6000f3fe608060405234801561001057600080fd5b50600436106102d35760003560e01c80636f307dc311610186578063a9059cbb116100e3578063cd0d009611610097578063dd62ed3e11610071578063dd62ed3e1461054a578063de02cde71461055d578063effae35314610570576102d3565b8063cd0d00961461051c578063d505accf14610524578063d9d98ce414610537576102d3565b8063ae93c1b5116100c8578063ae93c1b5146104f9578063b688a3631461050c578063c077b49214610514576102d3565b8063a9059cbb146104d3578063ad82110f146104e6576102d3565b806387b652071161013a57806395d89b411161011f57806395d89b41146104b05780639dc29fac146104b8578063a4f0d7d0146104cb576102d3565b806387b652071461049357806391ff394c1461049b576102d3565b80637adbf9731161016b5780637adbf973146104655780637dc0d1d0146104785780637ecebe0014610480576102d3565b80636f307dc31461043d57806370a0823114610452576102d3565b80633644e515116102345780635909c12f116101e85780635cffe9de116101cd5780635cffe9de14610404578063613255ab14610417578063687f0e4c1461042a576102d3565b80635909c12f146103dc5780635ba5e9f0146103f1576102d3565b806344faded01161021957806344faded0146103ae57806354fd4d50146103c1578063559742d9146103c9576102d3565b80633644e5151461039157806340c10f1914610399576102d3565b8063204f83f91161028b57806330adf81f1161027057806330adf81f1461036c578063313ce56714610374578063341f141d14610389576102d3565b8063204f83f91461035157806323b872dd14610359576102d3565b806310ab9432116102bc57806310ab94321461031657806318160ddd146103295780631e9a69501461033e576102d3565b806306fdde03146102d8578063095ea7b3146102f6575b600080fd5b6102e0610583565b6040516102ed919061222c565b60405180910390f35b610309610304366004611cef565b610611565b6040516102ed9190612106565b610309610324366004611e0c565b610627565b610331610633565b6040516102ed9190612111565b61033161034c366004611cef565b610639565b6103316107a5565b610309610367366004611c3a565b6107c9565b6103316107e9565b61037c61080d565b6040516102ed9190612518565b610331610816565b61033161086b565b6103ac6103a7366004611cef565b6108cb565b005b6103ac6103bc366004611e0c565b610969565b6102e06109a2565b6103ac6103d7366004611df2565b6109d9565b6103e4610a30565b6040516102ed9190612198565b6103e46103ff366004611df2565b610a35565b610309610412366004611e59565b610a48565b610331610425366004611bdf565b610bb7565b6103ac610438366004611e0c565b610c24565b610445610c56565b6040516102ed9190612084565b610331610460366004611bdf565b610c7a565b6103ac610473366004611bdf565b610c95565b610445610d41565b61033161048e366004611bdf565b610d50565b6103ac610d62565b6104a3610dd6565b6040516102ed91906121c5565b6102e0610dfa565b6103ac6104c6366004611cef565b610e07565b6103e4610e5b565b6103096104e1366004611cef565b610e7f565b6103ac6104f4366004611d1a565b610e8c565b6103ac610507366004611e27565b610f2a565b610445610f5d565b610331610f81565b610331610f87565b6103ac610532366004611c7a565b610fab565b610331610545366004611cef565b611181565b610331610558366004611c02565b6111f9565b6103ac61056b366004611e0c565b611224565b6103ac61057e366004611d1a565b611257565b60048054610590906125d1565b80601f01602080910402602001604051908101604052809291908181526020018280546105bc906125d1565b80156106095780601f106105de57610100808354040283529160200191610609565b820191906000526020600020905b8154815290600101906020018083116105ec57829003601f168201915b505050505081565b600061061e3384846112e8565b90505b92915050565b600061061e8383611358565b60015490565b60007f00000000000000000000000000000000000000000000000000000000000000004263ffffffff16101561068a5760405162461bcd60e51b8152600401610681906123c0565b60405180910390fd5b61069433836113a5565b506106a76106a06113f9565b839061151a565b90507f00000000000000000000000000000000000000000000000000000000000000006001600160a01b03166312e5ff77846106e284611538565b6040518363ffffffff1660e01b81526004016106ff9291906120db565b602060405180830381600087803b15801561071957600080fd5b505af115801561072d573d6000803e3d6000fd5b505050506040513d601f19601f820116820180604052508101906107519190611f15565b50826001600160a01b0316336001600160a01b03167f5cdf07ad0fc222442720b108e3ed4c4640f0fadc2ab2253e66f259a0fea83480848460405161079792919061250a565b60405180910390a392915050565b7f000000000000000000000000000000000000000000000000000000000000000081565b60006107d5848361156e565b506107e18484846115e7565b949350505050565b7f000000000000000000000000000000000000000000000000000000000000000081565b60065460ff1681565b60007f00000000000000000000000000000000000000000000000000000000000000004263ffffffff16101561085e5760405162461bcd60e51b8152600401610681906123c0565b6108666113f9565b905090565b6000467f000000000000000000000000000000000000000000000000000000000000000081146108a35761089e816116a4565b6108c5565b7f00000000000000000000000000000000000000000000000000000000000000005b91505090565b7f00000000000000000000000000000000000000000000000000000000000000004263ffffffff16106109105760405162461bcd60e51b815260040161068190612352565b61093e6000357fffffffff000000000000000000000000000000000000000000000000000000001633611358565b61095a5760405162461bcd60e51b8152600401610681906124d3565b610964828261171e565b505050565b8161097c610976826117bb565b33611358565b6109985760405162461bcd60e51b81526004016106819061231b565b61096483836117f5565b60408051808201909152600181527f3100000000000000000000000000000000000000000000000000000000000000602082015290565b806109e6610976826117bb565b610a025760405162461bcd60e51b81526004016106819061231b565b610a2c827fffffffff0000000000000000000000000000000000000000000000000000000061187c565b5050565b600081565b6000610a40826117bb565b90505b919050565b60007f00000000000000000000000000000000000000000000000000000000000000004263ffffffff1610610a8f5760405162461bcd60e51b815260040161068190612352565b6001600160a01b0384163014610ab75760405162461bcd60e51b8152600401610681906123f7565b610ac1858461171e565b506040517f23e30c8b0000000000000000000000000000000000000000000000000000000081527f439148f0bbc682ca079e46d6e2c2f0c1e3b820f1a291b069d8882abf8cf18dd9906001600160a01b038716906323e30c8b90610b32903390899089906000908a90600401612098565b602060405180830381600087803b158015610b4c57600080fd5b505af1158015610b60573d6000803e3d6000fd5b505050506040513d601f19601f82011682018060405250810190610b849190611dda565b14610ba15760405162461bcd60e51b815260040161068190612465565b610bab85846113a5565b50600195945050505050565b60007f00000000000000000000000000000000000000000000000000000000000000004263ffffffff1610610bfe5760405162461bcd60e51b815260040161068190612352565b6001600160a01b0382163014610c15576000610a40565b600154610a40906000196125ba565b6001600160a01b0381163314610c4c5760405162461bcd60e51b81526004016106819061249c565b610a2c82826117f5565b7f000000000000000000000000000000000000000000000000000000000000000081565b6001600160a01b031660009081526002602052604090205490565b610cc36000357fffffffff000000000000000000000000000000000000000000000000000000001633611358565b610cdf5760405162461bcd60e51b8152600401610681906124d3565b600a80547fffffffffffffffffffffffff0000000000000000000000000000000000000000166001600160a01b0383169081179091556040517f3f32684a32a11dabdbb8c0177de80aa3ae36a004d75210335b49e544e48cd0aa90600090a250565b600a546001600160a01b031681565b60076020526000908152604090205481565b7f00000000000000000000000000000000000000000000000000000000000000004263ffffffff161015610da85760405162461bcd60e51b8152600401610681906123c0565b600019600b5414610dcb5760405162461bcd60e51b8152600401610681906122e4565b610dd361195e565b50565b7f000000000000000000000000000000000000000000000000000000000000000081565b60058054610590906125d1565b610e356000357fffffffff000000000000000000000000000000000000000000000000000000001633611358565b610e515760405162461bcd60e51b8152600401610681906124d3565b61096482826113a5565b7fffffffff0000000000000000000000000000000000000000000000000000000081565b600061061e3384846115e7565b60005b825181101561096457610ecb610976848381518110610ebe57634e487b7160e01b600052603260045260246000fd5b60200260200101516117bb565b610ee75760405162461bcd60e51b81526004016106819061231b565b610f18838281518110610f0a57634e487b7160e01b600052603260045260246000fd5b6020026020010151836117f5565b80610f228161260c565b915050610e8f565b81610f37610976826117bb565b610f535760405162461bcd60e51b81526004016106819061231b565b610964838361187c565b7f000000000000000000000000000000000000000000000000000000000000000081565b600b5481565b7f000000000000000000000000000000000000000000000000000000000000000081565b42841015610fcb5760405162461bcd60e51b815260040161068190612276565b6001600160a01b038716600090815260076020526040812080544692917f0000000000000000000000000000000000000000000000000000000000000000918b918b918b918661101a8361260c565b919050558a6040516020016110349695949392919061211a565b60405160208183030381529060405280519060200120905060007f000000000000000000000000000000000000000000000000000000000000000083146110835761107e836116a4565b6110a5565b7f00000000000000000000000000000000000000000000000000000000000000005b826040516020016110b792919061204e565b6040516020818303038152906040528051906020012090506000600182888888604051600081526020016040526040516110f4949392919061217a565b6020604051602081039080840390855afa158015611116573d6000803e3d6000fd5b5050604051601f1901519150506001600160a01b0381161580159061114c57508a6001600160a01b0316816001600160a01b0316145b6111685760405162461bcd60e51b81526004016106819061242e565b6111738b8b8b6112e8565b505050505050505050505050565b60007f00000000000000000000000000000000000000000000000000000000000000004263ffffffff16106111c85760405162461bcd60e51b815260040161068190612352565b6001600160a01b03831630146111f05760405162461bcd60e51b8152600401610681906123f7565b50600092915050565b6001600160a01b03918216600090815260036020908152604080832093909416825291909152205490565b81611231610976826117bb565b61124d5760405162461bcd60e51b81526004016106819061231b565b6109648383611a6a565b60005b825181101561096457611289610976848381518110610ebe57634e487b7160e01b600052603260045260246000fd5b6112a55760405162461bcd60e51b81526004016106819061231b565b6112d68382815181106112c857634e487b7160e01b600052603260045260246000fd5b602002602001015183611a6a565b806112e08161260c565b91505061125a565b6001600160a01b0380841660008181526003602090815260408083209487168084529490915280822085905551909291907f8c5be1e5ebec7d5bd14f71427d1e84f3dd0314c0f7b2291e5b200ac8c7c3b92590611346908690612111565b60405180910390a35060019392505050565b7fffffffff0000000000000000000000000000000000000000000000000000000082166000908152602081815260408083206001600160a01b038516845290915290205460ff1692915050565b306000908152600260205260408120548281106113ce576113c63084611af3565b915050610621565b80156113e0576113de3082611af3565b505b6113ec8482850361156e565b506113c684828503611af3565b6000600019600b5414156114155761140f61195e565b506114f9565b600a546008546040517f462f9a280000000000000000000000000000000000000000000000000000000081526000926001600160a01b03169163462f9a289161148c917f000000000000000000000000000000000000000000000000000000000000000091670de0b6b3a7640000906004016121f2565b6040805180830381600087803b1580156114a557600080fd5b505af11580156114b9573d6000803e3d6000fd5b505050506040513d601f19601f820116820180604052508101906114dd9190611f45565b5090506114f5600b5482611b8590919063ffffffff16565b9150505b670de0b6b3a764000081101561151757670de0b6b3a7640000610866565b90565b6000611526828461259b565b670de0b6b3a764000090049392505050565b60006fffffffffffffffffffffffffffffffff82111561156a5760405162461bcd60e51b81526004016106819061223f565b5090565b60006001600160a01b03831633146115de576001600160a01b038316600090815260036020908152604080832033845290915290205460001981146115dc57828110156115cd5760405162461bcd60e51b8152600401610681906122ad565b6115da84338584036112e8565b505b505b50600192915050565b6001600160a01b03831660009081526002602052604081205482111561161f5760405162461bcd60e51b815260040161068190612389565b6001600160a01b038085166000908152600260205260408082208054869003905591851681522054611652908390612563565b6001600160a01b0380851660008181526002602052604090819020939093559151908616907fddf252ad1be2c89b69c2b068fc378daa952ba7f163c4a11628f55a4df523b3ef90611346908690612111565b60007f8b73c3c69bb8fe3d512ecc4cf759cc79239f7b179b0ffacaa9a75d522b39400f60046040516116d69190611fb3565b60405180910390206116e66109a2565b8051602091820120604051611701949392879130910161214e565b604051602081830303815290604052805190602001209050919050565b6001600160a01b038216600090815260026020526040812054611742908390612563565b6001600160a01b038416600090815260026020526040902055600154611769908390612563565b6001556040516001600160a01b038416906000907fddf252ad1be2c89b69c2b068fc378daa952ba7f163c4a11628f55a4df523b3ef906117aa908690612111565b60405180910390a350600192915050565b7fffffffff000000000000000000000000000000000000000000000000000000001660009081526020819052604090206001015460e01b90565b6117ff8282611358565b15610a2c577fffffffff0000000000000000000000000000000000000000000000000000000082166000818152602081815260408083206001600160a01b0386168085529252808320805460ff1916905551339391927f4ddc7b757e7bdd7254a9cd39452d307a52761bc824625c6a33104a075d8099e691a45050565b7fffffffff0000000000000000000000000000000000000000000000000000000081166118a8836117bb565b7fffffffff000000000000000000000000000000000000000000000000000000001614610a2c577fffffffff0000000000000000000000000000000000000000000000000000000082811660008181526020819052604080822060010180547fffffffffffffffffffffffffffffffffffffffffffffffffffffffff000000001660e087901c17905551928416927fd348e2220a50b4500ec353f6e802d2f14dd1b5d6786148fd1bbcc570bf92d4739190a35050565b600a546008546040517f462f9a280000000000000000000000000000000000000000000000000000000081526000926001600160a01b03169163462f9a28916119d5917f000000000000000000000000000000000000000000000000000000000000000091670de0b6b3a7640000906004016121f2565b6040805180830381600087803b1580156119ee57600080fd5b505af1158015611a02573d6000803e3d6000fd5b505050506040513d601f19601f82011682018060405250810190611a269190611f45565b50600b8190556040519091507f8be75db1b82d3c69cbae9639f0c64031bc1ec21b06cf1fd56c9b24034497f9ff90611a5f908390612111565b60405180910390a190565b611a748282611358565b610a2c577fffffffff0000000000000000000000000000000000000000000000000000000082166000818152602081815260408083206001600160a01b0386168085529252808320805460ff1916600117905551339391927fe6231789d19137da31d0550f4ba9ee379020a8cfb64cb79bf1790c996d2e616591a45050565b6001600160a01b038216600090815260026020526040812054821115611b2b5760405162461bcd60e51b815260040161068190612389565b6001600160a01b03831660008181526002602052604080822080548690039055600180548690039055519091907fddf252ad1be2c89b69c2b068fc378daa952ba7f163c4a11628f55a4df523b3ef906117aa908690612111565b600081611b9a84670de0b6b3a764000061259b565b61061e919061257b565b8035610a4381612653565b80357fffffffff0000000000000000000000000000000000000000000000000000000081168114610a4357600080fd5b600060208284031215611bf0578081fd5b8135611bfb81612653565b9392505050565b60008060408385031215611c14578081fd5b8235611c1f81612653565b91506020830135611c2f81612653565b809150509250929050565b600080600060608486031215611c4e578081fd5b8335611c5981612653565b92506020840135611c6981612653565b929592945050506040919091013590565b600080600080600080600060e0888a031215611c94578283fd5b8735611c9f81612653565b96506020880135611caf81612653565b95506040880135945060608801359350608088013560ff81168114611cd2578384fd5b9699959850939692959460a0840135945060c09093013592915050565b60008060408385031215611d01578182fd5b8235611d0c81612653565b946020939093013593505050565b60008060408385031215611d2c578182fd5b823567ffffffffffffffff80821115611d43578384fd5b818501915085601f830112611d56578384fd5b8135602082821115611d6a57611d6a61263d565b8082029250611d7a818401612526565b8281528181019085830185870184018b1015611d94578889fd5b8896505b84871015611dbd57611da981611baf565b835260019690960195918301918301611d98565b509650611dcd9050878201611ba4565b9450505050509250929050565b600060208284031215611deb578081fd5b5051919050565b600060208284031215611e03578081fd5b61061e82611baf565b60008060408385031215611e1e578182fd5b611c1f83611baf565b60008060408385031215611e39578182fd5b611e4283611baf565b9150611e5060208401611baf565b90509250929050565b60008060008060808587031215611e6e578182fd5b8435611e7981612653565b9350602085810135611e8a81612653565b935060408601359250606086013567ffffffffffffffff80821115611ead578384fd5b818801915088601f830112611ec0578384fd5b813581811115611ed257611ed261263d565b611ee484601f19601f84011601612526565b91508082528984828501011115611ef9578485fd5b8084840185840137810190920192909252939692955090935050565b600060208284031215611f26578081fd5b81516fffffffffffffffffffffffffffffffff81168114611bfb578182fd5b60008060408385031215611f57578182fd5b505080516020909101519092909150565b60008151808452815b81811015611f8d57602081850181015186830182015201611f71565b81811115611f9e5782602083870101525b50601f01601f19169290920160200192915050565b8154600090819060028104600180831680611fcf57607f831692505b6020808410821415611fef57634e487b7160e01b87526022600452602487fd5b818015612003576001811461201457612040565b60ff19861689528489019650612040565b61201d8a612557565b885b868110156120385781548b82015290850190830161201f565b505084890196505b509498975050505050505050565b7f190100000000000000000000000000000000000000000000000000000000000081526002810192909252602282015260420190565b6001600160a01b0391909116815260200190565b60006001600160a01b03808816835280871660208401525084604083015283606083015260a060808301526120d060a0830184611f68565b979650505050505050565b6001600160a01b039290921682526fffffffffffffffffffffffffffffffff16602082015260400190565b901515815260200190565b90815260200190565b9586526001600160a01b0394851660208701529290931660408501526060840152608083019190915260a082015260c00190565b9485526020850193909352604084019190915260608301526001600160a01b0316608082015260a00190565b93845260ff9290921660208401526040830152606082015260800190565b7fffffffff0000000000000000000000000000000000000000000000000000000091909116815260200190565b7fffffffffffff000000000000000000000000000000000000000000000000000091909116815260200190565b7fffffffffffff00000000000000000000000000000000000000000000000000009390931683526020830191909152604082015260600190565b60006020825261061e6020830184611f68565b6020808252600d908201527f43617374206f766572666c6f7700000000000000000000000000000000000000604082015260600190565b6020808252601d908201527f45524332305065726d69743a206578706972656420646561646c696e65000000604082015260600190565b6020808252601c908201527f45524332303a20496e73756666696369656e7420617070726f76616c00000000604082015260600190565b6020808252600f908201527f416c7265616479206d6174757265640000000000000000000000000000000000604082015260600190565b6020808252600a908201527f4f6e6c792061646d696e00000000000000000000000000000000000000000000604082015260600190565b60208082526014908201527f4f6e6c79206265666f7265206d61747572697479000000000000000000000000604082015260600190565b6020808252601b908201527f45524332303a20496e73756666696369656e742062616c616e63650000000000604082015260600190565b60208082526013908201527f4f6e6c79206166746572206d6174757269747900000000000000000000000000604082015260600190565b60208082526014908201527f556e737570706f727465642063757272656e6379000000000000000000000000604082015260600190565b6020808252601e908201527f45524332305065726d69743a20696e76616c6964207369676e61747572650000604082015260600190565b60208082526016908201527f4e6f6e2d636f6d706c69616e7420626f72726f77657200000000000000000000604082015260600190565b60208082526016908201527f52656e6f756e6365206f6e6c7920666f722073656c6600000000000000000000604082015260600190565b6020808252600d908201527f4163636573732064656e69656400000000000000000000000000000000000000604082015260600190565b918252602082015260400190565b60ff91909116815260200190565b604051601f8201601f1916810167ffffffffffffffff8111828210171561254f5761254f61263d565b604052919050565b60009081526020902090565b6000821982111561257657612576612627565b500190565b60008261259657634e487b7160e01b81526012600452602481fd5b500490565b60008160001904831182151516156125b5576125b5612627565b500290565b6000828210156125cc576125cc612627565b500390565b6002810460018216806125e557607f821691505b6020821081141561260657634e487b7160e01b600052602260045260246000fd5b50919050565b600060001982141561262057612620612627565b5060010190565b634e487b7160e01b600052601160045260246000fd5b634e487b7160e01b600052604160045260246000fd5b6001600160a01b0381168114610dd357600080fdfea264697066735822122012fe4b780a59c025a81acf9e43fcb41815426441185e5d9de4a9ec32003a074d64736f6c63430008010033a2646970667358221220b6c92f0c55fcaf1a9c2bbb33dcb3ae975a9865421a147c12b4f49ce66bd1fd3064736f6c63430008010033",
  "linkReferences": {
    "contracts/utils/token/SafeERC20Namer.sol": {
      "SafeERC20Namer": [
        {
          "length": 20,
          "start": 5253
        }
      ]
    }
  },
  "deployedLinkReferences": {
    "contracts/utils/token/SafeERC20Namer.sol": {
      "SafeERC20Namer": [
        {
          "length": 20,
          "start": 4858
        }
      ]
    }
  }
}