{
  "_format": "hh-sol-artifact-1",
  "contractName": "Factory",
  "sourceName": "contracts/Factory.sol",
  "abi": [
    {
      "inputs": [
        {
          "internalType": "contract IAuction",
          "name": "_auctionImpl",
          "type": "address"
        },
        {
          "internalType": "contract IBasket",
          "name": "_basketImpl",
          "type": "address"
        }
      ],
      "stateMutability": "nonpayable",
      "type": "constructor"
    },
    {
      "anonymous": false,
      "inputs": [
        {
          "indexed": true,
          "internalType": "address",
          "name": "basket",
          "type": "address"
        }
      ],
      "name": "BasketCreated",
      "type": "event"
    },
    {
      "anonymous": false,
      "inputs": [
        {
          "indexed": true,
          "internalType": "address",
          "name": "proposer",
          "type": "address"
        },
        {
          "indexed": true,
          "internalType": "string",
          "name": "tokenName",
          "type": "string"
        }
      ],
      "name": "BasketLicenseProposed",
      "type": "event"
    },
    {
      "anonymous": false,
      "inputs": [
        {
          "indexed": true,
          "internalType": "address",
          "name": "previousOwner",
          "type": "address"
        },
        {
          "indexed": true,
          "internalType": "address",
          "name": "newOwner",
          "type": "address"
        }
      ],
      "name": "OwnershipTransferred",
      "type": "event"
    },
    {
      "inputs": [],
      "name": "auctionDecrement",
      "outputs": [
        {
          "internalType": "uint256",
          "name": "",
          "type": "uint256"
        }
      ],
      "stateMutability": "view",
      "type": "function"
    },
    {
      "inputs": [],
      "name": "auctionImpl",
      "outputs": [
        {
          "internalType": "contract IAuction",
          "name": "",
          "type": "address"
        }
      ],
      "stateMutability": "view",
      "type": "function"
    },
    {
      "inputs": [],
      "name": "auctionMultiplier",
      "outputs": [
        {
          "internalType": "uint256",
          "name": "",
          "type": "uint256"
        }
      ],
      "stateMutability": "view",
      "type": "function"
    },
    {
      "inputs": [],
      "name": "basketImpl",
      "outputs": [
        {
          "internalType": "contract IBasket",
          "name": "",
          "type": "address"
        }
      ],
      "stateMutability": "view",
      "type": "function"
    },
    {
      "inputs": [],
      "name": "bondPercentDiv",
      "outputs": [
        {
          "internalType": "uint256",
          "name": "",
          "type": "uint256"
        }
      ],
      "stateMutability": "view",
      "type": "function"
    },
    {
      "inputs": [
        {
          "internalType": "uint256",
          "name": "idNumber",
          "type": "uint256"
        }
      ],
      "name": "createBasket",
      "outputs": [
        {
          "internalType": "contract IBasket",
          "name": "",
          "type": "address"
        }
      ],
      "stateMutability": "nonpayable",
      "type": "function"
    },
    {
      "inputs": [
        {
          "internalType": "uint256",
          "name": "id",
          "type": "uint256"
        }
      ],
      "name": "getProposalWeights",
      "outputs": [
        {
          "internalType": "address[]",
          "name": "",
          "type": "address[]"
        },
        {
          "internalType": "uint256[]",
          "name": "",
          "type": "uint256[]"
        }
      ],
      "stateMutability": "view",
      "type": "function"
    },
    {
      "inputs": [],
      "name": "minLicenseFee",
      "outputs": [
        {
          "internalType": "uint256",
          "name": "",
          "type": "uint256"
        }
      ],
      "stateMutability": "view",
      "type": "function"
    },
    {
      "inputs": [],
      "name": "owner",
      "outputs": [
        {
          "internalType": "address",
          "name": "",
          "type": "address"
        }
      ],
      "stateMutability": "view",
      "type": "function"
    },
    {
      "inputs": [],
      "name": "ownerSplit",
      "outputs": [
        {
          "internalType": "uint256",
          "name": "",
          "type": "uint256"
        }
      ],
      "stateMutability": "view",
      "type": "function"
    },
    {
      "inputs": [
        {
          "internalType": "uint256",
          "name": "proposalId",
          "type": "uint256"
        }
      ],
      "name": "proposal",
      "outputs": [
        {
          "components": [
            {
              "internalType": "uint256",
              "name": "licenseFee",
              "type": "uint256"
            },
            {
              "internalType": "string",
              "name": "tokenName",
              "type": "string"
            },
            {
              "internalType": "string",
              "name": "tokenSymbol",
              "type": "string"
            },
            {
              "internalType": "address",
              "name": "proposer",
              "type": "address"
            },
            {
              "internalType": "address[]",
              "name": "tokens",
              "type": "address[]"
            },
            {
              "internalType": "uint256[]",
              "name": "weights",
              "type": "uint256[]"
            },
            {
              "internalType": "address",
              "name": "basket",
              "type": "address"
            }
          ],
          "internalType": "struct IFactory.Proposal",
          "name": "",
          "type": "tuple"
        }
      ],
      "stateMutability": "view",
      "type": "function"
    },
    {
      "inputs": [
        {
          "internalType": "uint256",
          "name": "licenseFee",
          "type": "uint256"
        },
        {
          "internalType": "string",
          "name": "tokenName",
          "type": "string"
        },
        {
          "internalType": "string",
          "name": "tokenSymbol",
          "type": "string"
        },
        {
          "internalType": "address[]",
          "name": "tokens",
          "type": "address[]"
        },
        {
          "internalType": "uint256[]",
          "name": "weights",
          "type": "uint256[]"
        }
      ],
      "name": "proposeBasketLicense",
      "outputs": [
        {
          "internalType": "uint256",
          "name": "id",
          "type": "uint256"
        }
      ],
      "stateMutability": "nonpayable",
      "type": "function"
    },
    {
      "inputs": [],
      "name": "renounceOwnership",
      "outputs": [],
      "stateMutability": "nonpayable",
      "type": "function"
    },
    {
      "inputs": [
        {
          "internalType": "uint256",
          "name": "newAuctionDecrement",
          "type": "uint256"
        }
      ],
      "name": "setAuctionDecrement",
      "outputs": [],
      "stateMutability": "nonpayable",
      "type": "function"
    },
    {
      "inputs": [
        {
          "internalType": "uint256",
          "name": "newAuctionMultiplier",
          "type": "uint256"
        }
      ],
      "name": "setAuctionMultiplier",
      "outputs": [],
      "stateMutability": "nonpayable",
      "type": "function"
    },
    {
      "inputs": [
        {
          "internalType": "uint256",
          "name": "newBondPercentDiv",
          "type": "uint256"
        }
      ],
      "name": "setBondPercentDiv",
      "outputs": [],
      "stateMutability": "nonpayable",
      "type": "function"
    },
    {
      "inputs": [
        {
          "internalType": "uint256",
          "name": "newMinLicenseFee",
          "type": "uint256"
        }
      ],
      "name": "setMinLicenseFee",
      "outputs": [],
      "stateMutability": "nonpayable",
      "type": "function"
    },
    {
      "inputs": [
        {
          "internalType": "uint256",
          "name": "newOwnerSplit",
          "type": "uint256"
        }
      ],
      "name": "setOwnerSplit",
      "outputs": [],
      "stateMutability": "nonpayable",
      "type": "function"
    },
    {
      "inputs": [
        {
          "internalType": "address",
          "name": "newOwner",
          "type": "address"
        }
      ],
      "name": "transferOwnership",
      "outputs": [],
      "stateMutability": "nonpayable",
      "type": "function"
    }
  ],
  "bytecode": "0x608060405266038d7ea4c6800060045561271060055560026006556101906007553480156200002d57600080fd5b5060405162001c3b38038062001c3b8339810160408190526200005091620000e2565b6200005b3362000092565b600280546001600160a01b039384166001600160a01b0319918216179091556003805492909316911617905560006008556200013a565b600080546001600160a01b038381166001600160a01b0319831681178455604051919092169283917f8be0079c531659141344cd1fd0a4f28419497f9722a3daafe3b4186f6b6457e09190a35050565b60008060408385031215620000f657600080fd5b8251620001038162000121565b6020840151909250620001168162000121565b809150509250929050565b6001600160a01b03811681146200013757600080fd5b50565b611af1806200014a6000396000f3fe608060405234801561001057600080fd5b50600436106100f15760003560e01c8063063dff7f146100f65780630ef3828d1461011257806317e463d71461012757806319d013831461013a5780631e6d5a4b1461014357806330326c171461014c578063334c1fea1461016c578063428eb53814610197578063715018a6146101aa5780638d4e9424146101b25780638da5cb5b146101c55780639866c561146101cd578063ac6aca32146101e0578063b35b7fdd14610201578063c03ed7a214610214578063d5172c7214610227578063db92164d14610230578063f2fde38b14610239578063f43921551461024c575b600080fd5b6100ff60065481565b6040519081526020015b60405180910390f35b61012561012036600461161a565b61025f565b005b61012561013536600461161a565b61029c565b6100ff60075481565b6100ff60085481565b61015f61015a36600461161a565b6102d0565b6040516101099190611950565b61017f61017a36600461161a565b610561565b6040516001600160a01b039091168152602001610109565b60025461017f906001600160a01b031681565b610125610a44565b6101256101c036600461161a565b610a7f565b61017f610ab3565b60035461017f906001600160a01b031681565b6101f36101ee36600461161a565b610ac2565b6040516101099291906118da565b61012561020f36600461161a565b610bc4565b6100ff61022236600461164c565b610bf8565b6100ff60045481565b6100ff60055481565b6101256102473660046115dd565b610e12565b61012561025a36600461161a565b610eb2565b33610268610ab3565b6001600160a01b0316146102975760405162461bcd60e51b815260040161028e9061191b565b60405180910390fd5b600755565b336102a5610ab3565b6001600160a01b0316146102cb5760405162461bcd60e51b815260040161028e9061191b565b600455565b6103226040518060e0016040528060008152602001606081526020016060815260200160006001600160a01b03168152602001606081526020016060815260200160006001600160a01b031681525090565b6001828154811061033557610335611a8f565b90600052602060002090600702016040518060e00160405290816000820154815260200160018201805461036890611a23565b80601f016020809104026020016040519081016040528092919081815260200182805461039490611a23565b80156103e15780601f106103b6576101008083540402835291602001916103e1565b820191906000526020600020905b8154815290600101906020018083116103c457829003601f168201915b505050505081526020016002820180546103fa90611a23565b80601f016020809104026020016040519081016040528092919081815260200182805461042690611a23565b80156104735780601f1061044857610100808354040283529160200191610473565b820191906000526020600020905b81548152906001019060200180831161045657829003601f168201915b505050918352505060038201546001600160a01b031660208083019190915260048301805460408051828502810185018252828152940193928301828280156104e557602002820191906000526020600020905b81546001600160a01b031681526001909101906020018083116104c7575b505050505081526020016005820180548060200260200160405190810160405280929190818152602001828054801561053d57602002820191906000526020600020905b815481526020019060010190808311610529575b5050509183525050600691909101546001600160a01b031660209091015292915050565b6000806001838154811061057757610577611a8f565b90600052602060002090600702016040518060e0016040529081600082015481526020016001820180546105aa90611a23565b80601f01602080910402602001604051908101604052809291908181526020018280546105d690611a23565b80156106235780601f106105f857610100808354040283529160200191610623565b820191906000526020600020905b81548152906001019060200180831161060657829003601f168201915b5050505050815260200160028201805461063c90611a23565b80601f016020809104026020016040519081016040528092919081815260200182805461066890611a23565b80156106b55780601f1061068a576101008083540402835291602001916106b5565b820191906000526020600020905b81548152906001019060200180831161069857829003601f168201915b505050918352505060038201546001600160a01b0316602080830191909152600483018054604080518285028101850182528281529401939283018282801561072757602002820191906000526020600020905b81546001600160a01b03168152600190910190602001808311610709575b505050505081526020016005820180548060200260200160405190810160405280929190818152602001828054801561077f57602002820191906000526020600020905b81548152602001906001019080831161076b575b5050509183525050600691909101546001600160a01b0390811660209092019190915260c082015191925016156107b557600080fd5b6002546000906107cd906001600160a01b0316610efb565b6003549091506000906107e8906001600160a01b0316610efb565b60405163485cc95560e01b81529091506001600160a01b0383169063485cc9559061081990849030906004016118c0565b600060405180830381600087803b15801561083357600080fd5b505af1158015610847573d6000803e3d6000fd5b5050604051632f7badaf60e01b81526001600160a01b0384169250632f7badaf91506108799086908690600401611963565b600060405180830381600087803b15801561089357600080fd5b505af11580156108a7573d6000803e3d6000fd5b5050505060005b8360a0015151811015610968576000846080015182815181106108d3576108d3611a8f565b6020026020010151905061091a33308760a0015185815181106108f8576108f8611a8f565b6020026020010151846001600160a01b0316610f98909392919063ffffffff16565b610955838660a00151848151811061093457610934611a8f565b6020026020010151836001600160a01b03166110099092919063ffffffff16565b508061096081611a5e565b9150506108ae565b50604051635b91d9a760e11b8152670de0b6b3a764000060048201523360248201526001600160a01b0382169063b723b34e90604401600060405180830381600087803b1580156109b857600080fd5b505af11580156109cc573d6000803e3d6000fd5b5050505080600186815481106109e4576109e4611a8f565b6000918252602082206007919091020160060180546001600160a01b0319166001600160a01b03938416179055604051918316917f35c5c22c08f2a0e5ba5a2cd0007290136691adc640b48487c933e0383ed4d1f89190a2949350505050565b33610a4d610ab3565b6001600160a01b031614610a735760405162461bcd60e51b815260040161028e9061191b565b610a7d6000611131565b565b33610a88610ab3565b6001600160a01b031614610aae5760405162461bcd60e51b815260040161028e9061191b565b600655565b6000546001600160a01b031690565b60608060018381548110610ad857610ad8611a8f565b906000526020600020906007020160040160018481548110610afc57610afc611a8f565b906000526020600020906007020160050181805480602002602001604051908101604052809291908181526020018280548015610b6257602002820191906000526020600020905b81546001600160a01b03168152600190910190602001808311610b44575b5050505050915080805480602002602001604051908101604052809291908181526020018280548015610bb457602002820191906000526020600020905b815481526020019060010190808311610ba0575b5050505050905091509150915091565b33610bcd610ab3565b6001600160a01b031614610bf35760405162461bcd60e51b815260040161028e9061191b565b600555565b600354604051630b0a349960e01b81526000916001600160a01b031690630b0a349990610c2b90869086906004016118da565b60006040518083038186803b158015610c4357600080fd5b505afa158015610c57573d6000803e3d6000fd5b50505050600454861015610c6a57600080fd5b6040805160e081018252878152602081018790528082018690523360608201526080810185905260a08101849052600060c08201529051610cac9087906118a4565b6040519081900381209033907f31cdfc5cda630be3a9fe1f605afe6d3e4565bf1f28a1e2ef67ae21564d5f0de890600090a3600180548082018255600091909152815160079091027fb10e2d527612073b26eecdfd717e6a320cf44b4afac2b0732d9fcbe2b7fa0cf681019182556020808401518051859493610d55937fb10e2d527612073b26eecdfd717e6a320cf44b4afac2b0732d9fcbe2b7fa0cf79091019201906113bd565b5060408201518051610d719160028401916020909101906113bd565b5060608201516003820180546001600160a01b0319166001600160a01b0390921691909117905560808201518051610db3916004840191602090910190611441565b5060a08201518051610dcf916005840191602090910190611496565b5060c09190910151600690910180546001600160a01b0319166001600160a01b0390921691909117905560018054610e0791906119e0565b979650505050505050565b33610e1b610ab3565b6001600160a01b031614610e415760405162461bcd60e51b815260040161028e9061191b565b6001600160a01b038116610ea65760405162461bcd60e51b815260206004820152602660248201527f4f776e61626c653a206e6577206f776e657220697320746865207a65726f206160448201526564647265737360d01b606482015260840161028e565b610eaf81611131565b50565b33610ebb610ab3565b6001600160a01b031614610ee15760405162461bcd60e51b815260040161028e9061191b565b6702c68af0bb140000811115610ef657600080fd5b600855565b6000604051733d602d80600a3d3981f3363d3d373d3d3d363d7360601b81528260601b60148201526e5af43d82803e903d91602b57fd5bf360881b60288201526037816000f09150506001600160a01b038116610f935760405162461bcd60e51b8152602060048201526016602482015275115490cc4c4d8dce8818dc99585d194819985a5b195960521b604482015260640161028e565b919050565b6040516001600160a01b03808516602483015283166044820152606481018290526110039085906323b872dd60e01b906084015b60408051601f198184030181529190526020810180516001600160e01b03166001600160e01b031990931692909217909152611181565b50505050565b8015806110915750604051636eb1769f60e11b81526001600160a01b0384169063dd62ed3e9061103f90309086906004016118c0565b60206040518083038186803b15801561105757600080fd5b505afa15801561106b573d6000803e3d6000fd5b505050506040513d601f19601f8201168201806040525081019061108f9190611633565b155b6110fc5760405162461bcd60e51b815260206004820152603660248201527f5361666545524332303a20617070726f76652066726f6d206e6f6e2d7a65726f60448201527520746f206e6f6e2d7a65726f20616c6c6f77616e636560501b606482015260840161028e565b6040516001600160a01b03831660248201526044810182905261112c90849063095ea7b360e01b90606401610fcc565b505050565b600080546001600160a01b038381166001600160a01b0319831681178455604051919092169283917f8be0079c531659141344cd1fd0a4f28419497f9722a3daafe3b4186f6b6457e09190a35050565b60006111d6826040518060400160405280602081526020017f5361666545524332303a206c6f772d6c6576656c2063616c6c206661696c6564815250856001600160a01b03166112539092919063ffffffff16565b80519091501561112c57808060200190518101906111f491906115f8565b61112c5760405162461bcd60e51b815260206004820152602a60248201527f5361666545524332303a204552433230206f7065726174696f6e20646964206e6044820152691bdd081cdd58d8d9595960b21b606482015260840161028e565b6060611262848460008561126c565b90505b9392505050565b6060824710156112cd5760405162461bcd60e51b815260206004820152602660248201527f416464726573733a20696e73756666696369656e742062616c616e636520666f6044820152651c8818d85b1b60d21b606482015260840161028e565b843b61131b5760405162461bcd60e51b815260206004820152601d60248201527f416464726573733a2063616c6c20746f206e6f6e2d636f6e7472616374000000604482015260640161028e565b600080866001600160a01b0316858760405161133791906118a4565b60006040518083038185875af1925050503d8060008114611374576040519150601f19603f3d011682016040523d82523d6000602084013e611379565b606091505b5091509150610e0782828660608315611393575081611265565b8251156113a35782518084602001fd5b8160405162461bcd60e51b815260040161028e9190611908565b8280546113c990611a23565b90600052602060002090601f0160209004810192826113eb5760008555611431565b82601f1061140457805160ff1916838001178555611431565b82800160010185558215611431579182015b82811115611431578251825591602001919060010190611416565b5061143d9291506114d0565b5090565b828054828255906000526020600020908101928215611431579160200282015b8281111561143157825182546001600160a01b0319166001600160a01b03909116178255602090920191600190910190611461565b8280548282559060005260206000209081019282156114315791602002820182811115611431578251825591602001919060010190611416565b5b8082111561143d57600081556001016114d1565b80356001600160a01b0381168114610f9357600080fd5b600082601f83011261150d57600080fd5b8135602061152261151d836119bd565b61198d565b80838252828201915082860187848660051b890101111561154257600080fd5b60005b8581101561156157813584529284019290840190600101611545565b5090979650505050505050565b600082601f83011261157f57600080fd5b81356001600160401b0381111561159857611598611aa5565b6115ab601f8201601f191660200161198d565b8181528460208386010111156115c057600080fd5b816020850160208301376000918101602001919091529392505050565b6000602082840312156115ef57600080fd5b611265826114e5565b60006020828403121561160a57600080fd5b8151801515811461126557600080fd5b60006020828403121561162c57600080fd5b5035919050565b60006020828403121561164557600080fd5b5051919050565b600080600080600060a0868803121561166457600080fd5b853594506020808701356001600160401b038082111561168357600080fd5b61168f8a838b0161156e565b965060408901359150808211156116a557600080fd5b6116b18a838b0161156e565b955060608901359150808211156116c757600080fd5b818901915089601f8301126116db57600080fd5b81356116e961151d826119bd565b8082825285820191508585018d878560051b880101111561170957600080fd5b600095505b838610156117335761171f816114e5565b83526001959095019491860191860161170e565b5096505050608089013592508083111561174c57600080fd5b505061175a888289016114fc565b9150509295509295909350565b600081518084526020808501945080840160005b838110156117a05781516001600160a01b03168752958201959082019060010161177b565b509495945050505050565b600081518084526020808501945080840160005b838110156117a0578151875295820195908201906001016117bf565b600081518084526117f38160208601602086016119f7565b601f01601f19169290920160200192915050565b805182526000602082015160e0602085015261182660e08501826117db565b90506040830151848203604086015261183f82826117db565b915050606083015160018060a01b03808216606087015260808501519150858303608087015261186f8383611767565b925060a0850151915085830360a087015261188a83836117ab565b92508060c08601511660c087015250508091505092915050565b600082516118b68184602087016119f7565b9190910192915050565b6001600160a01b0392831681529116602082015260400190565b6040815260006118ed6040830185611767565b82810360208401526118ff81856117ab565b95945050505050565b60208152600061126560208301846117db565b6020808252818101527f4f776e61626c653a2063616c6c6572206973206e6f7420746865206f776e6572604082015260600190565b6020815260006112656020830184611807565b6040815260006119766040830185611807565b905060018060a01b03831660208301529392505050565b604051601f8201601f191681016001600160401b03811182821017156119b5576119b5611aa5565b604052919050565b60006001600160401b038211156119d6576119d6611aa5565b5060051b60200190565b6000828210156119f2576119f2611a79565b500390565b60005b83811015611a125781810151838201526020016119fa565b838111156110035750506000910152565b600181811c90821680611a3757607f821691505b60208210811415611a5857634e487b7160e01b600052602260045260246000fd5b50919050565b6000600019821415611a7257611a72611a79565b5060010190565b634e487b7160e01b600052601160045260246000fd5b634e487b7160e01b600052603260045260246000fd5b634e487b7160e01b600052604160045260246000fdfea264697066735822122088bbd5190209c68b6dfe55e6f5a083f644179ed8cec33177861c821d2dfadc0064736f6c63430008070033",
  "linkReferences": {},
  "deployedLinkReferences": {}
}