{
  "contractName": "AddressProviderV1",
  "abi": [
    {
      "inputs": [
        {
          "internalType": "contract IAccessController",
          "name": "_controller",
          "type": "address"
        }
      ],
      "stateMutability": "nonpayable",
      "type": "constructor"
    },
    {
      "inputs": [],
      "name": "config",
      "outputs": [
        {
          "internalType": "contract IConfigProvider",
          "name": "",
          "type": "address"
        }
      ],
      "stateMutability": "view",
      "type": "function"
    },
    {
      "inputs": [],
      "name": "controller",
      "outputs": [
        {
          "internalType": "contract IAccessController",
          "name": "",
          "type": "address"
        }
      ],
      "stateMutability": "view",
      "type": "function"
    },
    {
      "inputs": [],
      "name": "core",
      "outputs": [
        {
          "internalType": "contract IVaultsCore",
          "name": "",
          "type": "address"
        }
      ],
      "stateMutability": "view",
      "type": "function"
    },
    {
      "inputs": [],
      "name": "feeDistributor",
      "outputs": [
        {
          "internalType": "contract IFeeDistributor",
          "name": "",
          "type": "address"
        }
      ],
      "stateMutability": "view",
      "type": "function"
    },
    {
      "inputs": [],
      "name": "liquidationManager",
      "outputs": [
        {
          "internalType": "contract ILiquidationManager",
          "name": "",
          "type": "address"
        }
      ],
      "stateMutability": "view",
      "type": "function"
    },
    {
      "inputs": [],
      "name": "priceFeed",
      "outputs": [
        {
          "internalType": "contract IPriceFeed",
          "name": "",
          "type": "address"
        }
      ],
      "stateMutability": "view",
      "type": "function"
    },
    {
      "inputs": [],
      "name": "ratesManager",
      "outputs": [
        {
          "internalType": "contract IRatesManager",
          "name": "",
          "type": "address"
        }
      ],
      "stateMutability": "view",
      "type": "function"
    },
    {
      "inputs": [],
      "name": "stablex",
      "outputs": [
        {
          "internalType": "contract ISTABLEX",
          "name": "",
          "type": "address"
        }
      ],
      "stateMutability": "view",
      "type": "function"
    },
    {
      "inputs": [],
      "name": "vaultsData",
      "outputs": [
        {
          "internalType": "contract IVaultsDataProvider",
          "name": "",
          "type": "address"
        }
      ],
      "stateMutability": "view",
      "type": "function"
    },
    {
      "inputs": [
        {
          "internalType": "contract IAccessController",
          "name": "_controller",
          "type": "address"
        }
      ],
      "name": "setAccessController",
      "outputs": [],
      "stateMutability": "nonpayable",
      "type": "function"
    },
    {
      "inputs": [
        {
          "internalType": "contract IConfigProvider",
          "name": "_config",
          "type": "address"
        }
      ],
      "name": "setConfigProvider",
      "outputs": [],
      "stateMutability": "nonpayable",
      "type": "function"
    },
    {
      "inputs": [
        {
          "internalType": "contract IVaultsCore",
          "name": "_core",
          "type": "address"
        }
      ],
      "name": "setVaultsCore",
      "outputs": [],
      "stateMutability": "nonpayable",
      "type": "function"
    },
    {
      "inputs": [
        {
          "internalType": "contract ISTABLEX",
          "name": "_stablex",
          "type": "address"
        }
      ],
      "name": "setStableX",
      "outputs": [],
      "stateMutability": "nonpayable",
      "type": "function"
    },
    {
      "inputs": [
        {
          "internalType": "contract IRatesManager",
          "name": "_ratesManager",
          "type": "address"
        }
      ],
      "name": "setRatesManager",
      "outputs": [],
      "stateMutability": "nonpayable",
      "type": "function"
    },
    {
      "inputs": [
        {
          "internalType": "contract ILiquidationManager",
          "name": "_liquidationManager",
          "type": "address"
        }
      ],
      "name": "setLiquidationManager",
      "outputs": [],
      "stateMutability": "nonpayable",
      "type": "function"
    },
    {
      "inputs": [
        {
          "internalType": "contract IPriceFeed",
          "name": "_priceFeed",
          "type": "address"
        }
      ],
      "name": "setPriceFeed",
      "outputs": [],
      "stateMutability": "nonpayable",
      "type": "function"
    },
    {
      "inputs": [
        {
          "internalType": "contract IVaultsDataProvider",
          "name": "_vaultsData",
          "type": "address"
        }
      ],
      "name": "setVaultsDataProvider",
      "outputs": [],
      "stateMutability": "nonpayable",
      "type": "function"
    },
    {
      "inputs": [
        {
          "internalType": "contract IFeeDistributor",
          "name": "_feeDistributor",
          "type": "address"
        }
      ],
      "name": "setFeeDistributor",
      "outputs": [],
      "stateMutability": "nonpayable",
      "type": "function"
    }
  ],
  "bytecode": "0x608060405234801561001057600080fd5b50604051610fb6380380610fb683398101604081905261002f91610054565b600080546001600160a01b0319166001600160a01b0392909216919091179055610082565b600060208284031215610065578081fd5b81516001600160a01b038116811461007b578182fd5b9392505050565b610f25806100916000396000f3fe608060405234801561001057600080fd5b50600436106101165760003560e01c806379502c55116100a2578063ccfc2e8d11610071578063ccfc2e8d146101dd578063f08391d8146101f0578063f2f4eb2614610203578063f77c47911461020b578063fc2c779a1461021357610116565b806379502c55146101a757806398d4ff76146101af5780639aada945146101c2578063b8091c5b146101d557610116565b806339a8f0ff116100e957806339a8f0ff1461015e5780636123ef3f1461017157806365d5528714610184578063724e78da1461018c578063741bef1a1461019f57610116565b80630d43e8ad1461011b57806316d8a5a9146101395780631ef3a04c1461014157806338f92fc714610149575b600080fd5b610123610226565b6040516101309190610e8c565b60405180910390f35b610123610235565b610123610244565b61015c610157366004610e59565b610253565b005b61015c61016c366004610e59565b6103a0565b61015c61017f366004610e59565b6104e4565b610123610628565b61015c61019a366004610e59565b610637565b61012361077b565b61012361078a565b61015c6101bd366004610e59565b610799565b61015c6101d0366004610e59565b6108dd565b610123610a21565b61015c6101eb366004610e59565b610a30565b61015c6101fe366004610e59565b610b74565b610123610cb8565b610123610cc7565b61015c610221366004610e59565b610cd6565b6008546001600160a01b031681565b6003546001600160a01b031681565b6006546001600160a01b031681565b60005460408051633b21d88760e21b815290516001600160a01b03909216916391d1485491839163ec87621c91600480820192602092909190829003018186803b1580156102a057600080fd5b505afa1580156102b4573d6000803e3d6000fd5b505050506040513d601f19601f820116820180604052508101906102d89190610e41565b336040518363ffffffff1660e01b81526004016102f6929190610e75565b60206040518083038186803b15801561030e57600080fd5b505afa158015610322573d6000803e3d6000fd5b505050506040513d601f19601f820116820180604052508101906103469190610e1a565b61036b5760405162461bcd60e51b815260040161036290610ea0565b60405180910390fd5b6001600160a01b03811661037e57600080fd5b600680546001600160a01b0319166001600160a01b0392909216919091179055565b60005460408051633b21d88760e21b815290516001600160a01b03909216916391d1485491839163ec87621c91600480820192602092909190829003018186803b1580156103ed57600080fd5b505afa158015610401573d6000803e3d6000fd5b505050506040513d601f19601f820116820180604052508101906104259190610e41565b336040518363ffffffff1660e01b8152600401610443929190610e75565b60206040518083038186803b15801561045b57600080fd5b505afa15801561046f573d6000803e3d6000fd5b505050506040513d601f19601f820116820180604052508101906104939190610e1a565b6104af5760405162461bcd60e51b815260040161036290610ea0565b6001600160a01b0381166104c257600080fd5b600180546001600160a01b0319166001600160a01b0392909216919091179055565b60005460408051633b21d88760e21b815290516001600160a01b03909216916391d1485491839163ec87621c91600480820192602092909190829003018186803b15801561053157600080fd5b505afa158015610545573d6000803e3d6000fd5b505050506040513d601f19601f820116820180604052508101906105699190610e41565b336040518363ffffffff1660e01b8152600401610587929190610e75565b60206040518083038186803b15801561059f57600080fd5b505afa1580156105b3573d6000803e3d6000fd5b505050506040513d601f19601f820116820180604052508101906105d79190610e1a565b6105f35760405162461bcd60e51b815260040161036290610ea0565b6001600160a01b03811661060657600080fd5b600280546001600160a01b0319166001600160a01b0392909216919091179055565b6007546001600160a01b031681565b60005460408051633b21d88760e21b815290516001600160a01b03909216916391d1485491839163ec87621c91600480820192602092909190829003018186803b15801561068457600080fd5b505afa158015610698573d6000803e3d6000fd5b505050506040513d601f19601f820116820180604052508101906106bc9190610e41565b336040518363ffffffff1660e01b81526004016106da929190610e75565b60206040518083038186803b1580156106f257600080fd5b505afa158015610706573d6000803e3d6000fd5b505050506040513d601f19601f8201168201806040525081019061072a9190610e1a565b6107465760405162461bcd60e51b815260040161036290610ea0565b6001600160a01b03811661075957600080fd5b600580546001600160a01b0319166001600160a01b0392909216919091179055565b6005546001600160a01b031681565b6001546001600160a01b031681565b60005460408051633b21d88760e21b815290516001600160a01b03909216916391d1485491839163ec87621c91600480820192602092909190829003018186803b1580156107e657600080fd5b505afa1580156107fa573d6000803e3d6000fd5b505050506040513d601f19601f8201168201806040525081019061081e9190610e41565b336040518363ffffffff1660e01b815260040161083c929190610e75565b60206040518083038186803b15801561085457600080fd5b505afa158015610868573d6000803e3d6000fd5b505050506040513d601f19601f8201168201806040525081019061088c9190610e1a565b6108a85760405162461bcd60e51b815260040161036290610ea0565b6001600160a01b0381166108bb57600080fd5b600780546001600160a01b0319166001600160a01b0392909216919091179055565b60005460408051633b21d88760e21b815290516001600160a01b03909216916391d1485491839163ec87621c91600480820192602092909190829003018186803b15801561092a57600080fd5b505afa15801561093e573d6000803e3d6000fd5b505050506040513d601f19601f820116820180604052508101906109629190610e41565b336040518363ffffffff1660e01b8152600401610980929190610e75565b60206040518083038186803b15801561099857600080fd5b505afa1580156109ac573d6000803e3d6000fd5b505050506040513d601f19601f820116820180604052508101906109d09190610e1a565b6109ec5760405162461bcd60e51b815260040161036290610ea0565b6001600160a01b0381166109ff57600080fd5b600380546001600160a01b0319166001600160a01b0392909216919091179055565b6004546001600160a01b031681565b60005460408051633b21d88760e21b815290516001600160a01b03909216916391d1485491839163ec87621c91600480820192602092909190829003018186803b158015610a7d57600080fd5b505afa158015610a91573d6000803e3d6000fd5b505050506040513d601f19601f82011682018060405250810190610ab59190610e41565b336040518363ffffffff1660e01b8152600401610ad3929190610e75565b60206040518083038186803b158015610aeb57600080fd5b505afa158015610aff573d6000803e3d6000fd5b505050506040513d601f19601f82011682018060405250810190610b239190610e1a565b610b3f5760405162461bcd60e51b815260040161036290610ea0565b6001600160a01b038116610b5257600080fd5b600880546001600160a01b0319166001600160a01b0392909216919091179055565b60005460408051633b21d88760e21b815290516001600160a01b03909216916391d1485491839163ec87621c91600480820192602092909190829003018186803b158015610bc157600080fd5b505afa158015610bd5573d6000803e3d6000fd5b505050506040513d601f19601f82011682018060405250810190610bf99190610e41565b336040518363ffffffff1660e01b8152600401610c17929190610e75565b60206040518083038186803b158015610c2f57600080fd5b505afa158015610c43573d6000803e3d6000fd5b505050506040513d601f19601f82011682018060405250810190610c679190610e1a565b610c835760405162461bcd60e51b815260040161036290610ea0565b6001600160a01b038116610c9657600080fd5b600080546001600160a01b0319166001600160a01b0392909216919091179055565b6002546001600160a01b031681565b6000546001600160a01b031681565b60005460408051633b21d88760e21b815290516001600160a01b03909216916391d1485491839163ec87621c91600480820192602092909190829003018186803b158015610d2357600080fd5b505afa158015610d37573d6000803e3d6000fd5b505050506040513d601f19601f82011682018060405250810190610d5b9190610e41565b336040518363ffffffff1660e01b8152600401610d79929190610e75565b60206040518083038186803b158015610d9157600080fd5b505afa158015610da5573d6000803e3d6000fd5b505050506040513d601f19601f82011682018060405250810190610dc99190610e1a565b610de55760405162461bcd60e51b815260040161036290610ea0565b6001600160a01b038116610df857600080fd5b600480546001600160a01b0319166001600160a01b0392909216919091179055565b600060208284031215610e2b578081fd5b81518015158114610e3a578182fd5b9392505050565b600060208284031215610e52578081fd5b5051919050565b600060208284031215610e6a578081fd5b8135610e3a81610ed7565b9182526001600160a01b0316602082015260400190565b6001600160a01b0391909116815260200190565b60208082526017908201527f43616c6c6572206973206e6f742061204d616e61676572000000000000000000604082015260600190565b6001600160a01b0381168114610eec57600080fd5b5056fea26469706673582212202d7b315a9e874777ae344f09b7229a2de4fe0c92a06c3be87d255f8bbb2df60b64736f6c634300060c0033",
  "immutableReferences": {},
  "source": "// SPDX-License-Identifier: MIT\n\npragma experimental ABIEncoderV2;\npragma solidity 0.6.12;\n\nimport \"../interfaces/IAddressProvider.sol\";\nimport \"../interfaces/IVaultsCore.sol\";\nimport \"../interfaces/IAccessController.sol\";\nimport \"../interfaces/IConfigProvider.sol\";\nimport \"../interfaces/ISTABLEX.sol\";\nimport \"../interfaces/IPriceFeed.sol\";\nimport \"../interfaces/IRatesManager.sol\";\nimport \"../interfaces/IVaultsDataProvider.sol\";\nimport \"./interfaces/IConfigProviderV1.sol\";\nimport \"./interfaces/ILiquidationManagerV1.sol\";\nimport \"./interfaces/IVaultsCoreV1.sol\";\n\ncontract AddressProviderV1 is IAddressProvider {\n  IAccessController public override controller;\n  IConfigProvider public override config;\n  IVaultsCore public override core;\n\n  ISTABLEX public override stablex;\n  IRatesManager public override ratesManager;\n  IPriceFeed public override priceFeed;\n  ILiquidationManager public override liquidationManager;\n  IVaultsDataProvider public override vaultsData;\n  IFeeDistributor public override feeDistributor;\n\n  constructor(IAccessController _controller) public {\n    controller = _controller;\n  }\n\n  modifier onlyManager() {\n    require(controller.hasRole(controller.MANAGER_ROLE(), msg.sender), \"Caller is not a Manager\");\n    _;\n  }\n\n  function setAccessController(IAccessController _controller) public override onlyManager {\n    require(address(_controller) != address(0));\n    controller = _controller;\n  }\n\n  function setConfigProvider(IConfigProvider _config) public override onlyManager {\n    require(address(_config) != address(0));\n    config = _config;\n  }\n\n  function setVaultsCore(IVaultsCore _core) public override onlyManager {\n    require(address(_core) != address(0));\n    core = _core;\n  }\n\n  function setStableX(ISTABLEX _stablex) public override onlyManager {\n    require(address(_stablex) != address(0));\n    stablex = _stablex;\n  }\n\n  function setRatesManager(IRatesManager _ratesManager) public override onlyManager {\n    require(address(_ratesManager) != address(0));\n    ratesManager = _ratesManager;\n  }\n\n  function setLiquidationManager(ILiquidationManager _liquidationManager) public override onlyManager {\n    require(address(_liquidationManager) != address(0));\n    liquidationManager = _liquidationManager;\n  }\n\n  function setPriceFeed(IPriceFeed _priceFeed) public override onlyManager {\n    require(address(_priceFeed) != address(0));\n    priceFeed = _priceFeed;\n  }\n\n  function setVaultsDataProvider(IVaultsDataProvider _vaultsData) public override onlyManager {\n    require(address(_vaultsData) != address(0));\n    vaultsData = _vaultsData;\n  }\n\n  function setFeeDistributor(IFeeDistributor _feeDistributor) public override onlyManager {\n    require(address(_feeDistributor) != address(0));\n    feeDistributor = _feeDistributor;\n  }\n}\n",
  "sourcePath": "/home/mingyue/sub_contract_content/Web3Bugs/contracts/115/core/contracts/v1/AddressProviderV1.sol",
  "compiler": {
    "name": "solc",
    "version": "0.6.12+commit.27d51765.Emscripten.clang"
  },
  "schemaVersion": "3.4.7",
  "updatedAt": "2025-02-28T14:09:34.675Z",
  "devdoc": {
    "kind": "dev",
    "methods": {},
    "version": 1
  },
  "userdoc": {
    "kind": "user",
    "methods": {},
    "version": 1
  }
}