{
  "contractName": "AdminInceptionVault",
  "abi": [
    {
      "anonymous": false,
      "inputs": [
        {
          "indexed": true,
          "internalType": "address",
          "name": "previousOwner",
          "type": "address"
        },
        {
          "indexed": true,
          "internalType": "address",
          "name": "newOwner",
          "type": "address"
        }
      ],
      "name": "OwnershipTransferred",
      "type": "event"
    },
    {
      "inputs": [],
      "name": "claimOwnership",
      "outputs": [],
      "stateMutability": "nonpayable",
      "type": "function"
    },
    {
      "inputs": [],
      "name": "owner",
      "outputs": [
        {
          "internalType": "address",
          "name": "",
          "type": "address"
        }
      ],
      "stateMutability": "view",
      "type": "function"
    },
    {
      "inputs": [],
      "name": "pendingOwner",
      "outputs": [
        {
          "internalType": "address",
          "name": "",
          "type": "address"
        }
      ],
      "stateMutability": "view",
      "type": "function"
    },
    {
      "inputs": [
        {
          "internalType": "address",
          "name": "newOwner",
          "type": "address"
        },
        {
          "internalType": "bool",
          "name": "direct",
          "type": "bool"
        },
        {
          "internalType": "bool",
          "name": "renounce",
          "type": "bool"
        }
      ],
      "name": "transferOwnership",
      "outputs": [],
      "stateMutability": "nonpayable",
      "type": "function"
    },
    {
      "inputs": [
        {
          "internalType": "address",
          "name": "_owner",
          "type": "address"
        },
        {
          "internalType": "contract IAddressProvider",
          "name": "addressProvider",
          "type": "address"
        },
        {
          "internalType": "contract IDebtNotifier",
          "name": "debtNotifier",
          "type": "address"
        },
        {
          "internalType": "contract IWETH",
          "name": "weth",
          "type": "address"
        },
        {
          "internalType": "contract IERC20",
          "name": "mimo",
          "type": "address"
        },
        {
          "internalType": "contract IInceptionVaultsCore",
          "name": "inceptionVaultsCore",
          "type": "address"
        }
      ],
      "name": "initialize",
      "outputs": [],
      "stateMutability": "nonpayable",
      "type": "function"
    },
    {
      "inputs": [],
      "name": "depositETH",
      "outputs": [],
      "stateMutability": "payable",
      "type": "function"
    },
    {
      "inputs": [
        {
          "internalType": "uint256",
          "name": "_borrowAmount",
          "type": "uint256"
        }
      ],
      "name": "depositETHAndBorrow",
      "outputs": [],
      "stateMutability": "payable",
      "type": "function"
    },
    {
      "inputs": [
        {
          "internalType": "address",
          "name": "_collateralType",
          "type": "address"
        },
        {
          "internalType": "uint256",
          "name": "_depositAmount",
          "type": "uint256"
        },
        {
          "internalType": "uint256",
          "name": "_borrowAmount",
          "type": "uint256"
        }
      ],
      "name": "depositAndBorrow",
      "outputs": [],
      "stateMutability": "nonpayable",
      "type": "function"
    },
    {
      "inputs": [
        {
          "internalType": "uint256",
          "name": "_vaultId",
          "type": "uint256"
        },
        {
          "internalType": "uint256",
          "name": "_amount",
          "type": "uint256"
        }
      ],
      "name": "withdraw",
      "outputs": [],
      "stateMutability": "nonpayable",
      "type": "function"
    },
    {
      "inputs": [],
      "name": "claimMimo",
      "outputs": [],
      "stateMutability": "nonpayable",
      "type": "function"
    },
    {
      "inputs": [
        {
          "internalType": "uint256",
          "name": "_amount",
          "type": "uint256"
        },
        {
          "internalType": "address",
          "name": "_to",
          "type": "address"
        }
      ],
      "name": "lendPAR",
      "outputs": [],
      "stateMutability": "nonpayable",
      "type": "function"
    },
    {
      "inputs": [
        {
          "internalType": "uint256",
          "name": "_amount",
          "type": "uint256"
        },
        {
          "internalType": "address",
          "name": "_to",
          "type": "address"
        }
      ],
      "name": "transferMimo",
      "outputs": [],
      "stateMutability": "nonpayable",
      "type": "function"
    },
    {
      "inputs": [
        {
          "internalType": "uint256",
          "name": "_amount",
          "type": "uint256"
        },
        {
          "internalType": "address",
          "name": "_to",
          "type": "address"
        }
      ],
      "name": "transferPar",
      "outputs": [],
      "stateMutability": "nonpayable",
      "type": "function"
    },
    {
      "inputs": [
        {
          "internalType": "address",
          "name": "_collateralType",
          "type": "address"
        },
        {
          "internalType": "uint256",
          "name": "_amount",
          "type": "uint256"
        }
      ],
      "name": "deposit",
      "outputs": [],
      "stateMutability": "nonpayable",
      "type": "function"
    },
    {
      "inputs": [
        {
          "internalType": "uint256",
          "name": "_vaultId",
          "type": "uint256"
        },
        {
          "internalType": "uint256",
          "name": "_amount",
          "type": "uint256"
        }
      ],
      "name": "borrow",
      "outputs": [],
      "stateMutability": "nonpayable",
      "type": "function"
    },
    {
      "inputs": [],
      "name": "a",
      "outputs": [
        {
          "internalType": "contract IAddressProvider",
          "name": "",
          "type": "address"
        }
      ],
      "stateMutability": "view",
      "type": "function"
    },
    {
      "inputs": [],
      "name": "debtNotifier",
      "outputs": [
        {
          "internalType": "contract IDebtNotifier",
          "name": "",
          "type": "address"
        }
      ],
      "stateMutability": "view",
      "type": "function"
    },
    {
      "inputs": [],
      "name": "weth",
      "outputs": [
        {
          "internalType": "contract IWETH",
          "name": "",
          "type": "address"
        }
      ],
      "stateMutability": "view",
      "type": "function"
    },
    {
      "inputs": [],
      "name": "mimo",
      "outputs": [
        {
          "internalType": "contract IERC20",
          "name": "",
          "type": "address"
        }
      ],
      "stateMutability": "view",
      "type": "function"
    },
    {
      "inputs": [],
      "name": "inceptionCore",
      "outputs": [
        {
          "internalType": "contract IInceptionVaultsCore",
          "name": "",
          "type": "address"
        }
      ],
      "stateMutability": "view",
      "type": "function"
    },
    {
      "inputs": [],
      "name": "collateralCount",
      "outputs": [
        {
          "internalType": "uint8",
          "name": "",
          "type": "uint8"
        }
      ],
      "stateMutability": "view",
      "type": "function"
    },
    {
      "inputs": [
        {
          "internalType": "uint8",
          "name": "_id",
          "type": "uint8"
        }
      ],
      "name": "collaterals",
      "outputs": [
        {
          "internalType": "address",
          "name": "",
          "type": "address"
        }
      ],
      "stateMutability": "view",
      "type": "function"
    },
    {
      "inputs": [
        {
          "internalType": "address",
          "name": "_collateral",
          "type": "address"
        }
      ],
      "name": "collateralId",
      "outputs": [
        {
          "internalType": "uint8",
          "name": "",
          "type": "uint8"
        }
      ],
      "stateMutability": "view",
      "type": "function"
    }
  ],
  "bytecode": "0x608060405234801561001057600080fd5b50600080546001600160a01b0319163390811782556040519091907f8be0079c531659141344cd1fd0a4f28419497f9722a3daafe3b4186f6b6457e0908290a3611ceb8061005f6000396000f3fe6080604052600436106101405760003560e01c80636d9b1823116100b6578063b6faaf8a1161006f578063b6faaf8a14610416578063bd1b71461461042b578063cc2a9a5b14610440578063da3de2091461049b578063e30c3978146104d4578063f6326fb3146104e957610140565b80636d9b18231461033257806372e95ddf146103475780637dcb7480146103805780637e9e4d0e146103955780638da5cb5b146103c2578063a1789085146103d757610140565b80633fc8cef3116101085780633fc8cef314610239578063441a3e701461024e57806347e7ef241461027e5780634e71e0c8146102b75780634f730455146102cc57806357f256e31461031557610140565b8063078dfbe7146101455780630dbe671f1461018a5780630ecbcdab146101bb5780630ef85863146101eb578063386434ce14610200575b600080fd5b34801561015157600080fd5b506101886004803603606081101561016857600080fd5b506001600160a01b038135169060208101351515906040013515156104f1565b005b34801561019657600080fd5b5061019f610627565b604080516001600160a01b039092168252519081900360200190f35b3480156101c757600080fd5b50610188600480360360408110156101de57600080fd5b5080359060200135610636565b3480156101f757600080fd5b5061019f6108eb565b34801561020c57600080fd5b506101886004803603604081101561022357600080fd5b50803590602001356001600160a01b03166108fa565b34801561024557600080fd5b5061019f6109ce565b34801561025a57600080fd5b506101886004803603604081101561027157600080fd5b50803590602001356109dd565b34801561028a57600080fd5b50610188600480360360408110156102a157600080fd5b506001600160a01b038135169060200135610c14565b3480156102c357600080fd5b50610188610de3565b3480156102d857600080fd5b506102ff600480360360208110156102ef57600080fd5b50356001600160a01b0316610ea5565b6040805160ff9092168252519081900360200190f35b6101886004803603602081101561032b57600080fd5b5035610ec3565b34801561033e57600080fd5b5061019f610ff1565b34801561035357600080fd5b506101886004803603604081101561036a57600080fd5b50803590602001356001600160a01b0316611000565b34801561038c57600080fd5b50610188611047565b3480156103a157600080fd5b5061019f600480360360208110156103b857600080fd5b503560ff166111d8565b3480156103ce57600080fd5b5061019f6111f6565b3480156103e357600080fd5b50610188600480360360608110156103fa57600080fd5b506001600160a01b038135169060208101359060400135611205565b34801561042257600080fd5b506102ff611464565b34801561043757600080fd5b5061019f611474565b34801561044c57600080fd5b50610188600480360360c081101561046357600080fd5b506001600160a01b038135811691602081013582169160408201358116916060810135821691608082013581169160a0013516611483565b3480156104a757600080fd5b50610188600480360360408110156104be57600080fd5b50803590602001356001600160a01b03166115a3565b3480156104e057600080fd5b5061019f61160b565b61018861161a565b6000546001600160a01b0316331461053e576040805162461bcd60e51b81526020600482018190526024820152600080516020611c6c833981519152604482015290519081900360640190fd5b8115610606576001600160a01b0383161515806105585750805b6105a1576040805162461bcd60e51b81526020600482015260156024820152744f776e61626c653a207a65726f206164647265737360581b604482015290519081900360640190fd5b600080546040516001600160a01b03808716939216917f8be0079c531659141344cd1fd0a4f28419497f9722a3daafe3b4186f6b6457e091a3600080546001600160a01b0385166001600160a01b031991821617909155600180549091169055610622565b600180546001600160a01b0319166001600160a01b0385161790555b505050565b6002546001600160a01b031690565b6000546001600160a01b03163314610683576040805162461bcd60e51b81526020600482018190526024820152600080516020611c6c833981519152604482015290519081900360640190fd5b600260009054906101000a90046001600160a01b03166001600160a01b031663f2f4eb266040518163ffffffff1660e01b815260040160206040518083038186803b1580156106d157600080fd5b505afa1580156106e5573d6000803e3d6000fd5b505050506040513d60208110156106fb57600080fd5b505160408051630ecbcdab60e01b8152600481018590526024810184905290516001600160a01b0390921691630ecbcdab9160448082019260009290919082900301818387803b15801561074e57600080fd5b505af1158015610762573d6000803e3d6000fd5b505050506000600260009054906101000a90046001600160a01b03166001600160a01b03166365d552876040518163ffffffff1660e01b815260040160206040518083038186803b1580156107b657600080fd5b505afa1580156107ca573d6000803e3d6000fd5b505050506040513d60208110156107e057600080fd5b50516040805163b508bc5960e01b81526004810186905290519192506000916001600160a01b0384169163b508bc59916024808301926020929190829003018186803b15801561082f57600080fd5b505afa158015610843573d6000803e3d6000fd5b505050506040513d602081101561085957600080fd5b50516001600160a01b03811660009081526008602052604090205490915060ff166108e5576006805460ff60a01b198116600160a01b9182900460ff90811660010116918202179091556001600160a01b0382166000818152600860209081526040808320805460ff191686179055938252600790529190912080546001600160a01b03191690911790555b50505050565b6006546001600160a01b031690565b6000546001600160a01b03163314610947576040805162461bcd60e51b81526020600482018190526024820152600080516020611c6c833981519152604482015290519081900360640190fd5b600254604080516316d8a5a960e01b815290516000926001600160a01b0316916316d8a5a9916004808301926020929190829003018186803b15801561098c57600080fd5b505afa1580156109a0573d6000803e3d6000fd5b505050506040513d60208110156109b657600080fd5b505190506106226001600160a01b0382168385611740565b6004546001600160a01b031690565b6000546001600160a01b03163314610a2a576040805162461bcd60e51b81526020600482018190526024820152600080516020611c6c833981519152604482015290519081900360640190fd5b600260009054906101000a90046001600160a01b03166001600160a01b031663f2f4eb266040518163ffffffff1660e01b815260040160206040518083038186803b158015610a7857600080fd5b505afa158015610a8c573d6000803e3d6000fd5b505050506040513d6020811015610aa257600080fd5b505160408051630441a3e760e41b8152600481018590526024810184905290516001600160a01b039092169163441a3e709160448082019260009290919082900301818387803b158015610af557600080fd5b505af1158015610b09573d6000803e3d6000fd5b505050506000600260009054906101000a90046001600160a01b03166001600160a01b03166365d552876040518163ffffffff1660e01b815260040160206040518083038186803b158015610b5d57600080fd5b505afa158015610b71573d6000803e3d6000fd5b505050506040513d6020811015610b8757600080fd5b50516040805163b508bc5960e01b81526004810186905290516001600160a01b039092169163b508bc5991602480820192602092909190829003018186803b158015610bd257600080fd5b505afa158015610be6573d6000803e3d6000fd5b505050506040513d6020811015610bfc57600080fd5b505190506106226001600160a01b0382163384611740565b6000546001600160a01b03163314610c61576040805162461bcd60e51b81526020600482018190526024820152600080516020611c6c833981519152604482015290519081900360640190fd5b81610c776001600160a01b038216333085611792565b6002546040805163797a759360e11b81529051610cfa926001600160a01b03169163f2f4eb26916004808301926020929190829003018186803b158015610cbd57600080fd5b505afa158015610cd1573d6000803e3d6000fd5b505050506040513d6020811015610ce757600080fd5b50516001600160a01b03831690846117ec565b600260009054906101000a90046001600160a01b03166001600160a01b031663f2f4eb266040518163ffffffff1660e01b815260040160206040518083038186803b158015610d4857600080fd5b505afa158015610d5c573d6000803e3d6000fd5b505050506040513d6020811015610d7257600080fd5b5051604080516311f9fbc960e21b81526001600160a01b03868116600483015260248201869052915191909216916347e7ef2491604480830192600092919082900301818387803b158015610dc657600080fd5b505af1158015610dda573d6000803e3d6000fd5b50505050505050565b6001546001600160a01b0316338114610e43576040805162461bcd60e51b815260206004820181905260248201527f4f776e61626c653a2063616c6c657220213d2070656e64696e67206f776e6572604482015290519081900360640190fd5b600080546040516001600160a01b03808516939216917f8be0079c531659141344cd1fd0a4f28419497f9722a3daafe3b4186f6b6457e091a3600080546001600160a01b039092166001600160a01b0319928316179055600180549091169055565b6001600160a01b031660009081526008602052604090205460ff1690565b6000546001600160a01b03163314610f10576040805162461bcd60e51b81526020600482018190526024820152600080516020611c6c833981519152604482015290519081900360640190fd5b600260009054906101000a90046001600160a01b03166001600160a01b031663f2f4eb266040518163ffffffff1660e01b815260040160206040518083038186803b158015610f5e57600080fd5b505afa158015610f72573d6000803e3d6000fd5b505050506040513d6020811015610f8857600080fd5b5051604080516357f256e360e01b81526004810184905290516001600160a01b03909216916357f256e3913491602480830192600092919082900301818588803b158015610fd557600080fd5b505af1158015610fe9573d6000803e3d6000fd5b505050505050565b6005546001600160a01b031690565b6006546001600160a01b03163314610947576040805162461bcd60e51b8152602060048201526005602482015264495630313160d81b604482015290519081900360640190fd5b60015b600654600160ff600160a01b909204821601811690821610156111d55760035460ff821660009081526007602090815260408083205481516329e0327b60e21b81526001600160a01b03918216600482015291519394169263a780c9ec92602480840193919291829003018186803b1580156110c557600080fd5b505afa1580156110d9573d6000803e3d6000fd5b505050506040513d60208110156110ef57600080fd5b505160408051633e14260560e11b815230600482015290519192506001600160a01b03831691637c284c0a91602480820192602092909190829003018186803b15801561113b57600080fd5b505afa15801561114f573d6000803e3d6000fd5b505050506040513d602081101561116557600080fd5b5051156111cc57604080516330769c8560e11b815230600482015290516001600160a01b038316916360ed390a91602480830192600092919082900301818387803b1580156111b357600080fd5b505af11580156111c7573d6000803e3d6000fd5b505050505b5060010161104a565b50565b60ff166000908152600760205260409020546001600160a01b031690565b6000546001600160a01b031681565b6000546001600160a01b03163314611252576040805162461bcd60e51b81526020600482018190526024820152600080516020611c6c833981519152604482015290519081900360640190fd5b826112686001600160a01b038216333086611792565b6002546040805163797a759360e11b815290516112eb926001600160a01b03169163f2f4eb26916004808301926020929190829003018186803b1580156112ae57600080fd5b505afa1580156112c2573d6000803e3d6000fd5b505050506040513d60208110156112d857600080fd5b50516001600160a01b03831690856117ec565b600260009054906101000a90046001600160a01b03166001600160a01b031663f2f4eb266040518163ffffffff1660e01b815260040160206040518083038186803b15801561133957600080fd5b505afa15801561134d573d6000803e3d6000fd5b505050506040513d602081101561136357600080fd5b50516040805163a178908560e01b81526001600160a01b03878116600483015260248201879052604482018690529151919092169163a178908591606480830192600092919082900301818387803b1580156113be57600080fd5b505af11580156113d2573d6000803e3d6000fd5b505050506001600160a01b03841660009081526008602052604090205460ff166108e55750506006805460ff60a01b198116600160a01b9182900460ff90811660010116918202179091556001600160a01b03929092166000818152600860209081526040808320805460ff191687179055948252600790529290922080546001600160a01b03191690921790915550565b600654600160a01b900460ff1690565b6003546001600160a01b031690565b600154600160a81b900460ff168061149e575061149e6118d7565b806114b35750600154600160a01b900460ff16155b6114ee5760405162461bcd60e51b815260040180806020018281038252602e815260200180611c3e602e913960400191505060405180910390fd5b600154600160a81b900460ff16158015611525576001805460ff60a01b1960ff60a81b19909116600160a81b1716600160a01b1790555b600280546001600160a01b03199081166001600160a01b0389811691909117909255600380548216888416179055600480548216878416179055600580548216868416179055600680548216858416179055600080549091169189169190911790558015610dda576001805460ff60a81b1916905550505050505050565b6000546001600160a01b031633146115f0576040805162461bcd60e51b81526020600482018190526024820152600080516020611c6c833981519152604482015290519081900360640190fd5b600554611607906001600160a01b03168284611740565b5050565b6001546001600160a01b031681565b6000546001600160a01b03163314611667576040805162461bcd60e51b81526020600482018190526024820152600080516020611c6c833981519152604482015290519081900360640190fd5b600260009054906101000a90046001600160a01b03166001600160a01b031663f2f4eb266040518163ffffffff1660e01b815260040160206040518083038186803b1580156116b557600080fd5b505afa1580156116c9573d6000803e3d6000fd5b505050506040513d60208110156116df57600080fd5b50516040805163f6326fb360e01b815290516001600160a01b039092169163f6326fb3913491600480830192600092919082900301818588803b15801561172557600080fd5b505af1158015611739573d6000803e3d6000fd5b5050505050565b604080516001600160a01b038416602482015260448082018490528251808303909101815260649091019091526020810180516001600160e01b031663a9059cbb60e01b1790526106229084906118e8565b604080516001600160a01b0380861660248301528416604482015260648082018490528251808303909101815260849091019091526020810180516001600160e01b03166323b872dd60e01b1790526108e59085906118e8565b600061188282856001600160a01b031663dd62ed3e30876040518363ffffffff1660e01b815260040180836001600160a01b03168152602001826001600160a01b031681526020019250505060206040518083038186803b15801561185057600080fd5b505afa158015611864573d6000803e3d6000fd5b505050506040513d602081101561187a57600080fd5b505190611999565b604080516001600160a01b038616602482015260448082018490528251808303909101815260649091019091526020810180516001600160e01b031663095ea7b360e01b1790529091506108e59085906118e8565b60006118e2306119fa565b15905090565b606061193d826040518060400160405280602081526020017f5361666545524332303a206c6f772d6c6576656c2063616c6c206661696c6564815250856001600160a01b0316611a009092919063ffffffff16565b8051909150156106225780806020019051602081101561195c57600080fd5b50516106225760405162461bcd60e51b815260040180806020018281038252602a815260200180611c8c602a913960400191505060405180910390fd5b6000828201838110156119f3576040805162461bcd60e51b815260206004820152601b60248201527f536166654d6174683a206164646974696f6e206f766572666c6f770000000000604482015290519081900360640190fd5b9392505050565b3b151590565b6060611a0f8484600085611a17565b949350505050565b606082471015611a585760405162461bcd60e51b8152600401808060200182810382526026815260200180611c186026913960400191505060405180910390fd5b611a61856119fa565b611ab2576040805162461bcd60e51b815260206004820152601d60248201527f416464726573733a2063616c6c20746f206e6f6e2d636f6e7472616374000000604482015290519081900360640190fd5b60006060866001600160a01b031685876040518082805190602001908083835b60208310611af15780518252601f199092019160209182019101611ad2565b6001836020036101000a03801982511681845116808217855250505050505090500191505060006040518083038185875af1925050503d8060008114611b53576040519150601f19603f3d011682016040523d82523d6000602084013e611b58565b606091505b5091509150611b68828286611b73565b979650505050505050565b60608315611b825750816119f3565b825115611b925782518084602001fd5b8160405162461bcd60e51b81526004018080602001828103825283818151815260200191508051906020019080838360005b83811015611bdc578181015183820152602001611bc4565b50505050905090810190601f168015611c095780820380516001836020036101000a031916815260200191505b509250505060405180910390fdfe416464726573733a20696e73756666696369656e742062616c616e636520666f722063616c6c496e697469616c697a61626c653a20636f6e747261637420697320616c726561647920696e697469616c697a65644f776e61626c653a2063616c6c6572206973206e6f7420746865206f776e65725361666545524332303a204552433230206f7065726174696f6e20646964206e6f742073756363656564a26469706673582212204691e72a8c6151a1e6bcfd86c8fda8ab07413bd482415797ea7d4323db51ec1064736f6c634300060c0033",
  "immutableReferences": {},
  "source": "//SPDX-License-Identifier: MIT\npragma solidity 0.6.12;\n\nimport \"@openzeppelin/contracts/token/ERC20/IERC20.sol\";\nimport \"@openzeppelin/contracts/token/ERC20/SafeERC20.sol\";\nimport \"@openzeppelin/contracts/proxy/Initializable.sol\";\n\nimport \"./BoringOwnable.sol\";\nimport \"./interfaces/IAdminInceptionVault.sol\";\nimport \"./interfaces/IInceptionVaultsCore.sol\";\nimport \"../interfaces/IAddressProvider.sol\";\nimport \"../interfaces/IVaultsDataProvider.sol\";\nimport \"../interfaces/IWETH.sol\";\nimport \"../liquidityMining/interfaces/IDebtNotifier.sol\";\nimport \"../liquidityMining/interfaces/IGenericMiner.sol\";\n\ncontract AdminInceptionVault is IAdminInceptionVault, BoringOwnable, Initializable {\n  using SafeERC20 for IERC20;\n\n  IAddressProvider private _a;\n  IDebtNotifier private _debtNotifier;\n  IWETH private _weth;\n  IERC20 private _mimo;\n  IInceptionVaultsCore private _inceptionCore;\n\n  uint8 private _collateralCount;\n  mapping(uint8 => address) private _collaterals;\n  mapping(address => uint8) private _collateralId;\n\n  modifier onlyInceptionVaultsCore() {\n    require(address(_inceptionCore) == msg.sender, \"IV011\");\n    _;\n  }\n\n  function initialize(\n    address _owner,\n    IAddressProvider addressProvider,\n    IDebtNotifier debtNotifier,\n    IWETH weth,\n    IERC20 mimo,\n    IInceptionVaultsCore inceptionVaultsCore\n  ) external override initializer {\n    _a = addressProvider;\n    _debtNotifier = debtNotifier;\n    _weth = weth;\n    _mimo = mimo;\n    _inceptionCore = inceptionVaultsCore;\n    owner = _owner;\n  }\n\n  /**\n    Wraps ETH and deposits WETH into the vault of the msg.sender as collateral\n    @dev A new vault is created if no WETH vault exists\n  **/\n  function depositETH() external payable override onlyOwner {\n    _a.core().depositETH{ value: msg.value }();\n  }\n\n  /**\n    Wraps ETH and deposits WETH into the vault of the msg.sender as collateral and borrows the specified amount of tokens in WEI\n    @dev see depositETH() and borrow()\n    @param _borrowAmount the amount of borrowed StableX tokens in WEI.\n  **/\n  function depositETHAndBorrow(uint256 _borrowAmount) external payable override onlyOwner {\n    _a.core().depositETHAndBorrow{ value: msg.value }(_borrowAmount);\n  }\n\n  /**\n    Deposit an ERC20 token into the vault of the msg.sender as collateral and borrows the specified amount of tokens in WEI\n    @dev see deposit() and borrow()\n    @param _collateralType the address of the collateral type to be deposited\n    @param _depositAmount the amount of tokens to be deposited in WEI.\n    @param _borrowAmount the amount of borrowed StableX tokens in WEI.\n  **/\n  function depositAndBorrow(\n    address _collateralType,\n    uint256 _depositAmount,\n    uint256 _borrowAmount\n  ) external override onlyOwner {\n    IERC20 asset = IERC20(_collateralType);\n    asset.safeTransferFrom(msg.sender, address(this), _depositAmount);\n    asset.safeIncreaseAllowance(address(_a.core()), _depositAmount);\n    _a.core().depositAndBorrow(_collateralType, _depositAmount, _borrowAmount);\n    if (_collateralId[_collateralType] == 0) {\n      uint8 newId = ++_collateralCount;\n      _collateralId[_collateralType] = newId;\n      _collaterals[newId] = _collateralType;\n    }\n  }\n\n  /**\n    Withdraws ERC20 tokens from a vault.\n    @dev Only the owner of a vault can withdraw collateral from it.\n    `withdraw()` will fail if it would bring the vault below the minimum collateralization treshold.\n    @param _vaultId the ID of the vault from which to withdraw the collateral.\n    @param _amount the amount of ERC20 tokens to be withdrawn in WEI.\n  **/\n  function withdraw(uint256 _vaultId, uint256 _amount) external override onlyOwner {\n    _a.core().withdraw(_vaultId, _amount);\n    IERC20 asset = IERC20(_a.vaultsData().vaultCollateralType(_vaultId));\n    asset.safeTransfer(msg.sender, _amount);\n  }\n\n  /**\n    Releases the outstanding MIMO balance.\n  */\n  function claimMimo() external override {\n    for (uint8 i = 1; i < _collateralCount + 1; i++) {\n      IGenericMiner supplyMiner = IGenericMiner(address(_debtNotifier.collateralSupplyMinerMapping(_collaterals[i])));\n      if (supplyMiner.pendingMIMO(address(this)) != 0) {\n        supplyMiner.releaseMIMO(address(this));\n      }\n    }\n  }\n\n  /**\n    Lends PAR to inceptionVault user. \n    @dev This function cn only be called by the InceptionVaultsCore.\n    @param _amount the amount of PAR to be lended.\n    @param _to the address of the inceptionVault user.\n  */\n  function lendPAR(uint256 _amount, address _to) external override onlyInceptionVaultsCore() {\n    IERC20 stablex = IERC20(_a.stablex());\n    stablex.safeTransfer(_to, _amount);\n  }\n\n  /**\n    @dev See {IERC20-transfer}.\n  */\n  function transferMimo(uint256 _amount, address _to) external override onlyOwner {\n    _mimo.safeTransfer(_to, _amount);\n  }\n\n  /**\n    @dev See {IERC20-transfer}.\n  */\n  function transferPar(uint256 _amount, address _to) external override onlyOwner {\n    IERC20 par = IERC20(address(_a.stablex()));\n    par.safeTransfer(_to, _amount);\n  }\n\n  /**\n    Deposit an ERC20 token into the vault of the msg.sender as collateral\n    @dev A new vault is created if no vault exists for the `msg.sender` with the specified collateral type.\n    this function uses `transferFrom()` and requires pre-approval via `approve()` on the ERC20.\n    @param _collateralType the address of the collateral type to be deposited\n    @param _amount the amount of tokens to be deposited in WEI.\n  **/\n  function deposit(address _collateralType, uint256 _amount) public override onlyOwner {\n    IERC20 asset = IERC20(_collateralType);\n    asset.safeTransferFrom(msg.sender, address(this), _amount);\n    asset.safeIncreaseAllowance(address(_a.core()), _amount);\n    _a.core().deposit(_collateralType, _amount);\n  }\n\n  /**\n    Borrow new PAR tokens from a vault.\n    @dev Only the owner of a vault can borrow from it.\n    `borrow()` will update the outstanding vault debt to the current time before attempting the withdrawal.\n     `borrow()` will fail if it would bring the vault below the minimum collateralization treshold.\n    @param _vaultId the ID of the vault from which to borrow.\n    @param _amount the amount of borrowed PAR tokens in WEI.\n  **/\n  function borrow(uint256 _vaultId, uint256 _amount) public override onlyOwner {\n    _a.core().borrow(_vaultId, _amount);\n    IVaultsDataProvider vaultsData = IVaultsDataProvider(_a.vaultsData());\n    address vaultCollateral = vaultsData.vaultCollateralType(_vaultId);\n    if (_collateralId[vaultCollateral] == 0) {\n      uint8 newId = ++_collateralCount;\n      _collateralId[vaultCollateral] = newId;\n      _collaterals[newId] = vaultCollateral;\n    }\n  }\n\n  function a() public view override returns (IAddressProvider) {\n    return _a;\n  }\n\n  function debtNotifier() public view override returns (IDebtNotifier) {\n    return _debtNotifier;\n  }\n\n  function weth() public view override returns (IWETH) {\n    return _weth;\n  }\n\n  function mimo() public view override returns (IERC20) {\n    return _mimo;\n  }\n\n  function inceptionCore() public view override returns (IInceptionVaultsCore) {\n    return _inceptionCore;\n  }\n\n  function collateralCount() public view override returns (uint8) {\n    return _collateralCount;\n  }\n\n  function collaterals(uint8 _id) public view override returns (address) {\n    return _collaterals[_id];\n  }\n\n  function collateralId(address _collateral) public view override returns (uint8) {\n    return _collateralId[_collateral];\n  }\n}\n",
  "sourcePath": "/home/mingyue/sub_contract_content/Web3Bugs/contracts/115/core/contracts/inception/AdminInceptionVault.sol",
  "compiler": {
    "name": "solc",
    "version": "0.6.12+commit.27d51765.Emscripten.clang"
  },
  "schemaVersion": "3.4.7",
  "updatedAt": "2025-02-28T14:09:34.617Z",
  "devdoc": {
    "kind": "dev",
    "methods": {
      "borrow(uint256,uint256)": {
        "details": "Only the owner of a vault can borrow from it. `borrow()` will update the outstanding vault debt to the current time before attempting the withdrawal. `borrow()` will fail if it would bring the vault below the minimum collateralization treshold.",
        "params": {
          "_amount": "the amount of borrowed PAR tokens in WEI.*",
          "_vaultId": "the ID of the vault from which to borrow."
        }
      },
      "deposit(address,uint256)": {
        "details": "A new vault is created if no vault exists for the `msg.sender` with the specified collateral type. this function uses `transferFrom()` and requires pre-approval via `approve()` on the ERC20.",
        "params": {
          "_amount": "the amount of tokens to be deposited in WEI.*",
          "_collateralType": "the address of the collateral type to be deposited"
        }
      },
      "depositAndBorrow(address,uint256,uint256)": {
        "details": "see deposit() and borrow()",
        "params": {
          "_borrowAmount": "the amount of borrowed StableX tokens in WEI.*",
          "_collateralType": "the address of the collateral type to be deposited",
          "_depositAmount": "the amount of tokens to be deposited in WEI."
        }
      },
      "depositETH()": {
        "details": "A new vault is created if no WETH vault exists*"
      },
      "depositETHAndBorrow(uint256)": {
        "details": "see depositETH() and borrow()",
        "params": {
          "_borrowAmount": "the amount of borrowed StableX tokens in WEI.*"
        }
      },
      "lendPAR(uint256,address)": {
        "details": "This function cn only be called by the InceptionVaultsCore.",
        "params": {
          "_amount": "the amount of PAR to be lended.",
          "_to": "the address of the inceptionVault user."
        }
      },
      "transferMimo(uint256,address)": {
        "details": "See {IERC20-transfer}."
      },
      "transferOwnership(address,bool,bool)": {
        "params": {
          "direct": "True if `newOwner` should be set immediately. False if `newOwner` needs to use `claimOwnership`.",
          "newOwner": "Address of the new owner.",
          "renounce": "Allows the `newOwner` to be `address(0)` if `direct` and `renounce` is True. Has no effect otherwise."
        }
      },
      "transferPar(uint256,address)": {
        "details": "See {IERC20-transfer}."
      },
      "withdraw(uint256,uint256)": {
        "details": "Only the owner of a vault can withdraw collateral from it. `withdraw()` will fail if it would bring the vault below the minimum collateralization treshold.",
        "params": {
          "_amount": "the amount of ERC20 tokens to be withdrawn in WEI.*",
          "_vaultId": "the ID of the vault from which to withdraw the collateral."
        }
      }
    },
    "version": 1
  },
  "userdoc": {
    "kind": "user",
    "methods": {
      "borrow(uint256,uint256)": {
        "notice": "Borrow new PAR tokens from a vault."
      },
      "claimMimo()": {
        "notice": "Releases the outstanding MIMO balance."
      },
      "claimOwnership()": {
        "notice": "Needs to be called by `pendingOwner` to claim ownership."
      },
      "deposit(address,uint256)": {
        "notice": "Deposit an ERC20 token into the vault of the msg.sender as collateral"
      },
      "depositAndBorrow(address,uint256,uint256)": {
        "notice": "Deposit an ERC20 token into the vault of the msg.sender as collateral and borrows the specified amount of tokens in WEI"
      },
      "depositETH()": {
        "notice": "Wraps ETH and deposits WETH into the vault of the msg.sender as collateral"
      },
      "depositETHAndBorrow(uint256)": {
        "notice": "Wraps ETH and deposits WETH into the vault of the msg.sender as collateral and borrows the specified amount of tokens in WEI"
      },
      "lendPAR(uint256,address)": {
        "notice": "Lends PAR to inceptionVault user. "
      },
      "transferOwnership(address,bool,bool)": {
        "notice": "Transfers ownership to `newOwner`. Either directly or claimable by the new pending owner. Can only be invoked by the current `owner`."
      },
      "withdraw(uint256,uint256)": {
        "notice": "Withdraws ERC20 tokens from a vault."
      }
    },
    "version": 1
  }
}