{
  "contractName": "BalancerV2LPOracle",
  "abi": [
    {
      "inputs": [
        {
          "internalType": "uint8",
          "name": "_decimals",
          "type": "uint8"
        },
        {
          "internalType": "string",
          "name": "_description",
          "type": "string"
        },
        {
          "internalType": "contract IBalancerVault",
          "name": "_vault",
          "type": "address"
        },
        {
          "internalType": "bytes32",
          "name": "_poolId",
          "type": "bytes32"
        },
        {
          "internalType": "contract AggregatorV3Interface",
          "name": "_oracleA",
          "type": "address"
        },
        {
          "internalType": "contract AggregatorV3Interface",
          "name": "_oracleB",
          "type": "address"
        }
      ],
      "stateMutability": "nonpayable",
      "type": "constructor"
    },
    {
      "inputs": [],
      "name": "BONE",
      "outputs": [
        {
          "internalType": "uint256",
          "name": "",
          "type": "uint256"
        }
      ],
      "stateMutability": "view",
      "type": "function"
    },
    {
      "inputs": [],
      "name": "BPOW_PRECISION",
      "outputs": [
        {
          "internalType": "uint256",
          "name": "",
          "type": "uint256"
        }
      ],
      "stateMutability": "view",
      "type": "function"
    },
    {
      "inputs": [],
      "name": "EXIT_FEE",
      "outputs": [
        {
          "internalType": "uint256",
          "name": "",
          "type": "uint256"
        }
      ],
      "stateMutability": "view",
      "type": "function"
    },
    {
      "inputs": [],
      "name": "INIT_POOL_SUPPLY",
      "outputs": [
        {
          "internalType": "uint256",
          "name": "",
          "type": "uint256"
        }
      ],
      "stateMutability": "view",
      "type": "function"
    },
    {
      "inputs": [],
      "name": "MAX_BOUND_TOKENS",
      "outputs": [
        {
          "internalType": "uint256",
          "name": "",
          "type": "uint256"
        }
      ],
      "stateMutability": "view",
      "type": "function"
    },
    {
      "inputs": [],
      "name": "MAX_BPOW_BASE",
      "outputs": [
        {
          "internalType": "uint256",
          "name": "",
          "type": "uint256"
        }
      ],
      "stateMutability": "view",
      "type": "function"
    },
    {
      "inputs": [],
      "name": "MAX_FEE",
      "outputs": [
        {
          "internalType": "uint256",
          "name": "",
          "type": "uint256"
        }
      ],
      "stateMutability": "view",
      "type": "function"
    },
    {
      "inputs": [],
      "name": "MAX_IN_RATIO",
      "outputs": [
        {
          "internalType": "uint256",
          "name": "",
          "type": "uint256"
        }
      ],
      "stateMutability": "view",
      "type": "function"
    },
    {
      "inputs": [],
      "name": "MAX_OUT_RATIO",
      "outputs": [
        {
          "internalType": "uint256",
          "name": "",
          "type": "uint256"
        }
      ],
      "stateMutability": "view",
      "type": "function"
    },
    {
      "inputs": [],
      "name": "MAX_TOTAL_WEIGHT",
      "outputs": [
        {
          "internalType": "uint256",
          "name": "",
          "type": "uint256"
        }
      ],
      "stateMutability": "view",
      "type": "function"
    },
    {
      "inputs": [],
      "name": "MAX_WEIGHT",
      "outputs": [
        {
          "internalType": "uint256",
          "name": "",
          "type": "uint256"
        }
      ],
      "stateMutability": "view",
      "type": "function"
    },
    {
      "inputs": [],
      "name": "MIN_BALANCE",
      "outputs": [
        {
          "internalType": "uint256",
          "name": "",
          "type": "uint256"
        }
      ],
      "stateMutability": "view",
      "type": "function"
    },
    {
      "inputs": [],
      "name": "MIN_BOUND_TOKENS",
      "outputs": [
        {
          "internalType": "uint256",
          "name": "",
          "type": "uint256"
        }
      ],
      "stateMutability": "view",
      "type": "function"
    },
    {
      "inputs": [],
      "name": "MIN_BPOW_BASE",
      "outputs": [
        {
          "internalType": "uint256",
          "name": "",
          "type": "uint256"
        }
      ],
      "stateMutability": "view",
      "type": "function"
    },
    {
      "inputs": [],
      "name": "MIN_FEE",
      "outputs": [
        {
          "internalType": "uint256",
          "name": "",
          "type": "uint256"
        }
      ],
      "stateMutability": "view",
      "type": "function"
    },
    {
      "inputs": [],
      "name": "MIN_WEIGHT",
      "outputs": [
        {
          "internalType": "uint256",
          "name": "",
          "type": "uint256"
        }
      ],
      "stateMutability": "view",
      "type": "function"
    },
    {
      "inputs": [],
      "name": "decimals",
      "outputs": [
        {
          "internalType": "uint8",
          "name": "",
          "type": "uint8"
        }
      ],
      "stateMutability": "view",
      "type": "function"
    },
    {
      "inputs": [],
      "name": "description",
      "outputs": [
        {
          "internalType": "string",
          "name": "",
          "type": "string"
        }
      ],
      "stateMutability": "view",
      "type": "function"
    },
    {
      "inputs": [],
      "name": "oracleA",
      "outputs": [
        {
          "internalType": "contract AggregatorV3Interface",
          "name": "",
          "type": "address"
        }
      ],
      "stateMutability": "view",
      "type": "function"
    },
    {
      "inputs": [],
      "name": "oracleB",
      "outputs": [
        {
          "internalType": "contract AggregatorV3Interface",
          "name": "",
          "type": "address"
        }
      ],
      "stateMutability": "view",
      "type": "function"
    },
    {
      "inputs": [],
      "name": "pool",
      "outputs": [
        {
          "internalType": "contract IBalancerPool",
          "name": "",
          "type": "address"
        }
      ],
      "stateMutability": "view",
      "type": "function"
    },
    {
      "inputs": [],
      "name": "poolId",
      "outputs": [
        {
          "internalType": "bytes32",
          "name": "",
          "type": "bytes32"
        }
      ],
      "stateMutability": "view",
      "type": "function"
    },
    {
      "inputs": [],
      "name": "vault",
      "outputs": [
        {
          "internalType": "contract IBalancerVault",
          "name": "",
          "type": "address"
        }
      ],
      "stateMutability": "view",
      "type": "function"
    },
    {
      "inputs": [],
      "name": "version",
      "outputs": [
        {
          "internalType": "uint256",
          "name": "",
          "type": "uint256"
        }
      ],
      "stateMutability": "view",
      "type": "function"
    },
    {
      "inputs": [
        {
          "internalType": "uint80",
          "name": "_roundId",
          "type": "uint80"
        }
      ],
      "name": "getRoundData",
      "outputs": [
        {
          "internalType": "uint80",
          "name": "roundId",
          "type": "uint80"
        },
        {
          "internalType": "int256",
          "name": "answer",
          "type": "int256"
        },
        {
          "internalType": "uint256",
          "name": "startedAt",
          "type": "uint256"
        },
        {
          "internalType": "uint256",
          "name": "updatedAt",
          "type": "uint256"
        },
        {
          "internalType": "uint80",
          "name": "answeredInRound",
          "type": "uint80"
        }
      ],
      "stateMutability": "view",
      "type": "function"
    },
    {
      "inputs": [],
      "name": "latestRoundData",
      "outputs": [
        {
          "internalType": "uint80",
          "name": "roundId",
          "type": "uint80"
        },
        {
          "internalType": "int256",
          "name": "answer",
          "type": "int256"
        },
        {
          "internalType": "uint256",
          "name": "startedAt",
          "type": "uint256"
        },
        {
          "internalType": "uint256",
          "name": "updatedAt",
          "type": "uint256"
        },
        {
          "internalType": "uint80",
          "name": "answeredInRound",
          "type": "uint80"
        }
      ],
      "stateMutability": "view",
      "type": "function"
    }
  ],
  "bytecode": "0x608060405260036001553480156200001657600080fd5b506040516200164238038062001642833981810160405260c08110156200003c57600080fd5b8151602083018051604051929492938301929190846401000000008211156200006457600080fd5b9083019060208201858111156200007a57600080fd5b82516401000000008111828201881017156200009557600080fd5b82525081516020918201929091019080838360005b83811015620000c4578181015183820152602001620000aa565b50505050905090810190601f168015620000f25780820380516001836020036101000a031916815260200191505b506040908152602082015190820151606083015160809093015191945092506001600160a01b03841662000156576040805162461bcd60e51b815260206004808301919091526024820152630433030360e41b604482015290519081900360640190fd5b6001600160a01b0382166200019b576040805162461bcd60e51b815260206004808301919091526024820152630433030360e41b604482015290519081900360640190fd5b6001600160a01b038116620001e0576040805162461bcd60e51b815260206004808301919091526024820152630433030360e41b604482015290519081900360640190fd5b600480546001600160a01b0319166001600160a01b038681169190911780835560038690556040805163f6c0092760e01b815293840187905280516000948594939093169263f6c00927926024808301939192829003018186803b1580156200024857600080fd5b505afa1580156200025d573d6000803e3d6000fd5b505050506040513d60408110156200027457600080fd5b508051602090910151909250905060028160028111156200029157fe5b14620002cd576040805162461bcd60e51b815260206004808301919091526024820152634330303160e01b604482015290519081900360640190fd5b6002805460ff191660ff8a161790558651620002f19060009060208a019062000339565b5050600580546001600160a01b03199081166001600160a01b03938416179091556006805482169483169490941790935560078054909316911617905550620003d592505050565b828054600181600116156101000203166002900490600052602060002090601f016020900481019282601f106200037c57805160ff1916838001178555620003ac565b82800160010185558215620003ac579182015b82811115620003ac5782518255916020019190600101906200038f565b50620003ba929150620003be565b5090565b5b80821115620003ba5760008155600101620003bf565b61125d80620003e56000396000f3fe608060405234801561001057600080fd5b506004361061018e5760003560e01c80639a6fc8f5116100de578063bc694ea211610097578063e4a28a5211610071578063e4a28a5214610193578063ec0930211461035f578063fbfa77cf14610367578063feaf968c1461036f5761018e565b8063bc694ea21461034f578063c36596a6146101e1578063c6580d12146103575761018e565b80639a6fc8f5146102b45780639bdff8eb14610327578063b0e0d1361461032f578063b7b800a414610337578063ba019dab1461033f578063bc063e1a146103475761018e565b80633e0dc34e1161014b57806376c7a3c71161012557806376c7a3c714610294578063867378c51461029c5780639381cd2b146102a4578063992e2a92146102ac5761018e565b80633e0dc34e1461020757806354fd4d501461020f5780637284e416146102175761018e565b806309a3bbe4146101935780631670cb6f146101ad57806316f0115b146101d1578063189d00ca146101d9578063218b5382146101e1578063313ce567146101e9575b600080fd5b61019b610377565b60408051918252519081900360200190f35b6101b5610384565b604080516001600160a01b039092168252519081900360200190f35b6101b5610393565b61019b6103a2565b61019b6103b6565b6101f16103c2565b6040805160ff9092168252519081900360200190f35b61019b6103cb565b61019b6103d1565b61021f6103d7565b6040805160208082528351818301528351919283929083019185019080838360005b83811015610259578181015183820152602001610241565b50505050905090810190601f1680156102865780820380516001836020036101000a031916815260200191505b509250505060405180910390f35b61019b610465565b61019b610477565b61019b61048b565b61019b610498565b6102dd600480360360208110156102ca57600080fd5b503569ffffffffffffffffffff166104a4565b604051808669ffffffffffffffffffff1681526020018581526020018481526020018381526020018269ffffffffffffffffffff1681526020019550505050505060405180910390f35b6101b56104b2565b61019b6104c1565b61019b6104c6565b61019b6104cb565b61019b6104d0565b61019b6104e0565b61019b6104ec565b61019b6104f1565b6101b5610501565b6102dd610510565b6802b5e3af16b188000081565b6006546001600160a01b031681565b6005546001600160a01b031681565b6402540be400670de0b6b3a76400005b0481565b670de0b6b3a764000081565b60025460ff1681565b60035481565b60015481565b6000805460408051602060026001851615610100026000190190941693909304601f8101849004840282018401909252818152929183018282801561045d5780601f106104325761010080835404028352916020019161045d565b820191906000526020600020905b81548152906001019060200180831161044057829003601f168201915b505050505081565b620f4240670de0b6b3a76400006103b2565b64e8d4a51000670de0b6b3a76400006103b2565b68056bc75e2d6310000081565b6704a03ce68d21555681565b506000908190819081908190565b6007546001600160a01b031681565b600881565b600281565b600181565b600a670de0b6b3a76400006103b2565b671bc16d674ec7ffff81565b600081565b6002670de0b6b3a76400006103b2565b6004546001600160a01b031681565b6000806000806000606080600460009054906101000a90046001600160a01b03166001600160a01b031663f94d46686003546040518263ffffffff1660e01b81526004018082815260200191505060006040518083038186803b15801561057657600080fd5b505afa15801561058a573d6000803e3d6000fd5b505050506040513d6000823e601f3d908101601f1916820160405260608110156105b357600080fd5b81019080805160405193929190846401000000008211156105d357600080fd5b9083019060208201858111156105e857600080fd5b825186602082028301116401000000008211171561060557600080fd5b82525081516020918201928201910280838360005b8381101561063257818101518382015260200161061a565b505050509050016040526020018051604051939291908464010000000082111561065b57600080fd5b90830190602082018581111561067057600080fd5b825186602082028301116401000000008211171561068d57600080fd5b82525081516020918201928201910280838360005b838110156106ba5781810151838201526020016106a2565b50505050919091016040818152600654633fabe5a360e21b8352905197995095975060009687966001600160a01b0316955063feaf968c94506004808301945060a093509091829003018186803b15801561071457600080fd5b505afa158015610728573d6000803e3d6000fd5b505050506040513d60a081101561073e57600080fd5b50602081015160609091015160075460408051633fabe5a360e21b8152905193955091935060009283926001600160a01b039092169163feaf968c9160048083019260a0929190829003018186803b15801561079957600080fd5b505afa1580156107ad573d6000803e3d6000fd5b505050506040513d60a08110156107c357600080fd5b5060208101516060918201516005546040805163f89f27ed60e01b815290519396509194506001600160a01b03169163f89f27ed91600480820192600092909190829003018186803b15801561081857600080fd5b505afa15801561082c573d6000803e3d6000fd5b505050506040513d6000823e601f3d908101601f19168201604052602081101561085557600080fd5b810190808051604051939291908464010000000082111561087557600080fd5b90830190602082018581111561088a57600080fd5b82518660208202830111640100000000821117156108a757600080fd5b82525081516020918201928201910280838360005b838110156108d45781810151838201526020016108bc565b5050505090500160405250505090506000859050600084905060008061097b6109258c60008151811061090357fe5b60200260200101518c60008151811061091857fe5b6020026020010151610a42565b61094a8d60018151811061093557fe5b60200260200101518d60018151811061091857fe5b8760008151811061095757fe5b60200260200101518860018151811061096c57fe5b60200260200101518888610ad2565b91509150610a1f600560009054906101000a90046001600160a01b03166001600160a01b03166318160ddd6040518163ffffffff1660e01b815260040160206040518083038186803b1580156109d057600080fd5b505afa1580156109e4573d6000803e3d6000fd5b505050506040513d60208110156109fa57600080fd5b5051610a19610a098487610b81565b610a138689610b81565b90610be1565b90610c3b565b9e50879c5085881115610a3057859c505b50505050505050505050509091929394565b600080836001600160a01b031663313ce5676040518163ffffffff1660e01b815260040160206040518083038186803b158015610a7e57600080fd5b505afa158015610a92573d6000803e3d6000fd5b505050506040513d6020811015610aa857600080fd5b50519050610ac8610ac1600a60ff601285900316610ca2565b8490610b81565b9150505b92915050565b6000806000610ae18989610cf1565b90506000610b01610af28987610e04565b610afc8989610e04565b610cf1565b905080821115610b44576000610b178284610cf1565b9050610b2c8b610b27838b610ec6565b610e04565b9450610b3c8a610afc838c610ec6565b935050610b74565b6000610b508383610cf1565b9050610b608b610afc838b610ec6565b9450610b708a610b27838c610ec6565b9350505b5050965096945050505050565b600082610b9057506000610acc565b82820282848281610b9d57fe5b0414610bda5760405162461bcd60e51b81526004018080602001828103825260218152602001806112076021913960400191505060405180910390fd5b9392505050565b600082820183811015610bda576040805162461bcd60e51b815260206004820152601b60248201527f536166654d6174683a206164646974696f6e206f766572666c6f770000000000604482015290519081900360640190fd5b6000808211610c91576040805162461bcd60e51b815260206004820152601a60248201527f536166654d6174683a206469766973696f6e206279207a65726f000000000000604482015290519081900360640190fd5b818381610c9a57fe5b049392505050565b600060028206610cb3576001610cb5565b825b90506002820491505b8115610acc57610cce8384610b81565b92506002820615610ce657610ce38184610b81565b90505b600282049150610cbe565b600081610d34576040805162461bcd60e51b815260206004820152600c60248201526b4552525f4449565f5a45524f60a01b604482015290519081900360640190fd5b670de0b6b3a76400008302831580610d5c5750670de0b6b3a7640000848281610d5957fe5b04145b610da0576040805162461bcd60e51b815260206004820152601060248201526f11549497d1125597d25395115493905360821b604482015290519081900360640190fd5b60028304810181811015610dee576040805162461bcd60e51b815260206004820152601060248201526f11549497d1125597d25395115493905360821b604482015290519081900360640190fd5b6000848281610df957fe5b049695505050505050565b6000828202831580610e1e575082848281610e1b57fe5b04145b610e62576040805162461bcd60e51b815260206004820152601060248201526f4552525f4d554c5f4f564552464c4f5760801b604482015290519081900360640190fd5b6706f05b59d3b20000810181811015610eb5576040805162461bcd60e51b815260206004820152601060248201526f4552525f4d554c5f4f564552464c4f5760801b604482015290519081900360640190fd5b6000670de0b6b3a764000082610df9565b60006001831015610f16576040805162461bcd60e51b81526020600482015260156024820152744552525f42504f575f424153455f544f4f5f4c4f5760581b604482015290519081900360640190fd5b671bc16d674ec7ffff831115610f6c576040805162461bcd60e51b815260206004820152601660248201527508aa4a4be84a09eaebe8482a68abea89e9ebe90928e960531b604482015290519081900360640190fd5b6000610f7783610fd4565b90506000610f858483610fef565b90506000610f9b86610f9685611051565b61105f565b905081610fac579250610acc915050565b6000610fbd87846305f5e1006110b6565b9050610fc98282610e04565b979650505050505050565b6000670de0b6b3a7640000610fe883611051565b0292915050565b6000806000610ffe8585611194565b915091508015611049576040805162461bcd60e51b81526020600482015260116024820152704552525f5355425f554e444552464c4f5760781b604482015290519081900360640190fd5b509392505050565b670de0b6b3a7640000900490565b6000806002830661107857670de0b6b3a764000061107a565b835b90506002830492505b8215610bda576110938485610e04565b935060028306156110ab576110a88185610e04565b90505b600283049250611083565b60008281806110cd87670de0b6b3a7640000611194565b9092509050670de0b6b3a764000080600060015b888410611185576000670de0b6b3a7640000820290506000806111158a61111085670de0b6b3a7640000610fef565b611194565b9150915061112787610b27848c610e04565b96506111338784610cf1565b96508661114257505050611185565b871561114c579315935b8015611156579315935b841561116d576111668688610fef565b955061117a565b61117786886111b9565b95505b5050506001016110e1565b50909998505050505050505050565b6000808284106111aa57505080820360006111b2565b505081810360015b9250929050565b600082820183811015610bda576040805162461bcd60e51b815260206004820152601060248201526f4552525f4144445f4f564552464c4f5760801b604482015290519081900360640190fdfe536166654d6174683a206d756c7469706c69636174696f6e206f766572666c6f77a264697066735822122039f96655b2fb6d86f2acc49193b87b58b9ca46a1e0ebefe69374e4b3e9547d5264736f6c634300060c0033",
  "immutableReferences": {},
  "source": "// SPDX-License-Identifier: MIT\n\npragma solidity 0.6.12;\n\nimport \"@openzeppelin/contracts/math/SafeMath.sol\";\nimport \"@openzeppelin/contracts/token/ERC20/ERC20.sol\";\n\nimport \"../chainlink/AggregatorV3Interface.sol\";\nimport \"../interfaces/IBalancerVault.sol\";\nimport \"../interfaces/IBalancerPool.sol\";\nimport \"../libraries/BNum.sol\";\nimport \"../libraries/MathPow.sol\";\n\ncontract BalancerV2LPOracle is AggregatorV3Interface, BNum {\n  using SafeMath for uint256;\n\n  string public override description;\n  uint256 public override version = 3;\n  uint8 public override decimals;\n\n  bytes32 public poolId;\n  IBalancerVault public vault;\n  IBalancerPool public pool;\n  AggregatorV3Interface public oracleA;\n  AggregatorV3Interface public oracleB;\n\n  constructor(\n    uint8 _decimals,\n    string memory _description,\n    IBalancerVault _vault,\n    bytes32 _poolId,\n    AggregatorV3Interface _oracleA,\n    AggregatorV3Interface _oracleB\n  ) public {\n    require(address(_vault) != address(0), \"C000\");\n    require(address(_oracleA) != address(0), \"C000\");\n    require(address(_oracleB) != address(0), \"C000\");\n\n    vault = _vault;\n    poolId = _poolId;\n    (address _pool, IBalancerVault.PoolSpecialization tokensNum) = vault.getPool(poolId);\n    require(tokensNum == IBalancerVault.PoolSpecialization.TWO_TOKEN, \"C001\");\n\n    decimals = _decimals;\n    description = _description;\n    pool = IBalancerPool(_pool);\n    oracleA = _oracleA;\n    oracleB = _oracleB;\n  }\n\n  function getRoundData(uint80 _roundId)\n    public\n    view\n    override\n    returns (\n      uint80 roundId,\n      int256 answer,\n      uint256 startedAt,\n      uint256 updatedAt,\n      uint80 answeredInRound\n    )\n  {\n    // Skip the implementation since it is not used by price feed\n  }\n\n  /**\n   * @notice get data about the latest round. Consumers are encouraged to check\n   * that they're receiving fresh data by inspecting the updatedAt and\n   * answeredInRound return values.\n   * Note that different underlying implementations of AggregatorV3Interface\n   * have slightly different semantics for some of the return values. Consumers\n   * should determine what implementations they expect to receive\n   * data from and validate that they can properly handle return data from all\n   * of them.\n   * @return roundId is the round ID from the aggregator for which the data was\n   * retrieved combined with an phase to ensure that round IDs get larger as\n   * time moves forward.\n   * @return answer is the answer for the given round\n   * @return startedAt is the timestamp when the round was started.\n   * (Only some AggregatorV3Interface implementations return meaningful values)\n   * @return updatedAt is the timestamp when the round last was updated (i.e.\n   * answer was last computed)\n   * @return answeredInRound is the round ID of the round in which the answer\n   * was computed.\n   * (Only some AggregatorV3Interface implementations return meaningful values)\n   * @dev Note that answer and updatedAt may change between queries.\n   */\n  function latestRoundData()\n    public\n    view\n    override\n    returns (\n      uint80 roundId,\n      int256 answer,\n      uint256 startedAt,\n      uint256 updatedAt,\n      uint80 answeredInRound\n    )\n  {\n    (address[] memory tokens, uint256[] memory balances, ) = vault.getPoolTokens(poolId);\n    (, int256 answerA, , uint256 assetUpdatedAtA, ) = oracleA.latestRoundData();\n    (, int256 answerB, , uint256 assetUpdatedAtB, ) = oracleB.latestRoundData();\n\n    uint256[] memory normalizedWeights = pool.getNormalizedWeights();\n\n    uint256 pxA = uint256(answerA);\n    uint256 pxB = uint256(answerB);\n    (uint256 fairResA, uint256 fairResB) = _computeFairReserves(\n      _getNormalizedBalance(tokens[0], balances[0]),\n      _getNormalizedBalance(tokens[1], balances[1]),\n      normalizedWeights[0],\n      normalizedWeights[1],\n      pxA,\n      pxB\n    );\n\n    answer = int256(fairResA.mul(pxA).add(fairResB.mul(pxB)).div(pool.totalSupply()));\n    updatedAt = assetUpdatedAtA;\n\n    // use oldest timestamp for updatedAt\n    if (assetUpdatedAtA > assetUpdatedAtB) {\n      updatedAt = assetUpdatedAtB;\n    }\n  }\n\n  function _getNormalizedBalance(address token, uint256 balance) internal view returns (uint256) {\n    uint8 decimals = ERC20(token).decimals();\n    return balance.mul(MathPow.pow(10, 18 - decimals));\n  }\n\n  /// @dev Return fair reserve amounts given spot reserves, weights, and fair prices.\n  /// @param resA Reserve of the first asset\n  /// @param resB Reserve of the second asset\n  /// @param wA Weight of the first asset\n  /// @param wB Weight of the second asset\n  /// @param pxA Fair price of the first asset\n  /// @param pxB Fair price of the second asset\n  function _computeFairReserves(\n    uint256 resA,\n    uint256 resB,\n    uint256 wA,\n    uint256 wB,\n    uint256 pxA,\n    uint256 pxB\n  ) internal pure returns (uint256 fairResA, uint256 fairResB) {\n    // NOTE: wA + wB = 1 (normalize weights)\n    // constant product = resA^wA * resB^wB\n    // constraints:\n    // - fairResA^wA * fairResB^wB = constant product\n    // - fairResA * pxA / wA = fairResB * pxB / wB\n    // Solving equations:\n    // --> fairResA^wA * (fairResA * (pxA * wB) / (wA * pxB))^wB = constant product\n    // --> fairResA / r1^wB = constant product\n    // --> fairResA = resA^wA * resB^wB * r1^wB\n    // --> fairResA = resA * (resB/resA)^wB * r1^wB = resA * (r1/r0)^wB\n    uint256 r0 = bdiv(resA, resB);\n    uint256 r1 = bdiv(bmul(wA, pxB), bmul(wB, pxA));\n    // fairResA = resA * (r1 / r0) ^ wB\n    // fairResB = resB * (r0 / r1) ^ wA\n    if (r0 > r1) {\n      uint256 ratio = bdiv(r1, r0);\n      fairResA = bmul(resA, bpow(ratio, wB));\n      fairResB = bdiv(resB, bpow(ratio, wA));\n    } else {\n      uint256 ratio = bdiv(r0, r1);\n      fairResA = bdiv(resA, bpow(ratio, wB));\n      fairResB = bmul(resB, bpow(ratio, wA));\n    }\n  }\n}\n",
  "sourcePath": "/home/mingyue/sub_contract_content/Web3Bugs/contracts/115/core/contracts/oracles/BalancerV2LPOracle.sol",
  "compiler": {
    "name": "solc",
    "version": "0.6.12+commit.27d51765.Emscripten.clang"
  },
  "schemaVersion": "3.4.7",
  "updatedAt": "2025-02-28T14:09:34.668Z",
  "devdoc": {
    "kind": "dev",
    "methods": {
      "latestRoundData()": {
        "details": "Note that answer and updatedAt may change between queries.",
        "returns": {
          "answer": "is the answer for the given round",
          "answeredInRound": "is the round ID of the round in which the answer was computed. (Only some AggregatorV3Interface implementations return meaningful values)",
          "roundId": "is the round ID from the aggregator for which the data was retrieved combined with an phase to ensure that round IDs get larger as time moves forward.",
          "startedAt": "is the timestamp when the round was started. (Only some AggregatorV3Interface implementations return meaningful values)",
          "updatedAt": "is the timestamp when the round last was updated (i.e. answer was last computed)"
        }
      }
    },
    "version": 1
  },
  "userdoc": {
    "kind": "user",
    "methods": {
      "latestRoundData()": {
        "notice": "get data about the latest round. Consumers are encouraged to check that they're receiving fresh data by inspecting the updatedAt and answeredInRound return values. Note that different underlying implementations of AggregatorV3Interface have slightly different semantics for some of the return values. Consumers should determine what implementations they expect to receive data from and validate that they can properly handle return data from all of them."
      }
    },
    "version": 1
  }
}