{
  "contractName": "BNum",
  "abi": [
    {
      "inputs": [],
      "name": "BONE",
      "outputs": [
        {
          "internalType": "uint256",
          "name": "",
          "type": "uint256"
        }
      ],
      "stateMutability": "view",
      "type": "function"
    },
    {
      "inputs": [],
      "name": "BPOW_PRECISION",
      "outputs": [
        {
          "internalType": "uint256",
          "name": "",
          "type": "uint256"
        }
      ],
      "stateMutability": "view",
      "type": "function"
    },
    {
      "inputs": [],
      "name": "EXIT_FEE",
      "outputs": [
        {
          "internalType": "uint256",
          "name": "",
          "type": "uint256"
        }
      ],
      "stateMutability": "view",
      "type": "function"
    },
    {
      "inputs": [],
      "name": "INIT_POOL_SUPPLY",
      "outputs": [
        {
          "internalType": "uint256",
          "name": "",
          "type": "uint256"
        }
      ],
      "stateMutability": "view",
      "type": "function"
    },
    {
      "inputs": [],
      "name": "MAX_BOUND_TOKENS",
      "outputs": [
        {
          "internalType": "uint256",
          "name": "",
          "type": "uint256"
        }
      ],
      "stateMutability": "view",
      "type": "function"
    },
    {
      "inputs": [],
      "name": "MAX_BPOW_BASE",
      "outputs": [
        {
          "internalType": "uint256",
          "name": "",
          "type": "uint256"
        }
      ],
      "stateMutability": "view",
      "type": "function"
    },
    {
      "inputs": [],
      "name": "MAX_FEE",
      "outputs": [
        {
          "internalType": "uint256",
          "name": "",
          "type": "uint256"
        }
      ],
      "stateMutability": "view",
      "type": "function"
    },
    {
      "inputs": [],
      "name": "MAX_IN_RATIO",
      "outputs": [
        {
          "internalType": "uint256",
          "name": "",
          "type": "uint256"
        }
      ],
      "stateMutability": "view",
      "type": "function"
    },
    {
      "inputs": [],
      "name": "MAX_OUT_RATIO",
      "outputs": [
        {
          "internalType": "uint256",
          "name": "",
          "type": "uint256"
        }
      ],
      "stateMutability": "view",
      "type": "function"
    },
    {
      "inputs": [],
      "name": "MAX_TOTAL_WEIGHT",
      "outputs": [
        {
          "internalType": "uint256",
          "name": "",
          "type": "uint256"
        }
      ],
      "stateMutability": "view",
      "type": "function"
    },
    {
      "inputs": [],
      "name": "MAX_WEIGHT",
      "outputs": [
        {
          "internalType": "uint256",
          "name": "",
          "type": "uint256"
        }
      ],
      "stateMutability": "view",
      "type": "function"
    },
    {
      "inputs": [],
      "name": "MIN_BALANCE",
      "outputs": [
        {
          "internalType": "uint256",
          "name": "",
          "type": "uint256"
        }
      ],
      "stateMutability": "view",
      "type": "function"
    },
    {
      "inputs": [],
      "name": "MIN_BOUND_TOKENS",
      "outputs": [
        {
          "internalType": "uint256",
          "name": "",
          "type": "uint256"
        }
      ],
      "stateMutability": "view",
      "type": "function"
    },
    {
      "inputs": [],
      "name": "MIN_BPOW_BASE",
      "outputs": [
        {
          "internalType": "uint256",
          "name": "",
          "type": "uint256"
        }
      ],
      "stateMutability": "view",
      "type": "function"
    },
    {
      "inputs": [],
      "name": "MIN_FEE",
      "outputs": [
        {
          "internalType": "uint256",
          "name": "",
          "type": "uint256"
        }
      ],
      "stateMutability": "view",
      "type": "function"
    },
    {
      "inputs": [],
      "name": "MIN_WEIGHT",
      "outputs": [
        {
          "internalType": "uint256",
          "name": "",
          "type": "uint256"
        }
      ],
      "stateMutability": "view",
      "type": "function"
    }
  ],
  "bytecode": "0x608060405234801561001057600080fd5b50610269806100206000396000f3fe608060405234801561001057600080fd5b50600436106101005760003560e01c8063b7b800a411610097578063c36596a611610066578063c36596a614610127578063c6580d1214610177578063e4a28a5214610105578063ec0930211461017f57610100565b8063b7b800a414610157578063ba019dab1461015f578063bc063e1a14610167578063bc694ea21461016f57610100565b8063867378c5116100d3578063867378c5146101375780639381cd2b1461013f578063992e2a9214610147578063b0e0d1361461014f57610100565b806309a3bbe414610105578063189d00ca1461011f578063218b53821461012757806376c7a3c71461012f575b600080fd5b61010d610187565b60408051918252519081900360200190f35b61010d610194565b61010d6101a8565b61010d6101b4565b61010d6101c6565b61010d6101da565b61010d6101e7565b61010d6101f3565b61010d6101f8565b61010d6101fd565b61010d610202565b61010d610212565b61010d61021e565b61010d610223565b6802b5e3af16b188000081565b6402540be400670de0b6b3a76400005b0481565b670de0b6b3a764000081565b620f4240670de0b6b3a76400006101a4565b64e8d4a51000670de0b6b3a76400006101a4565b68056bc75e2d6310000081565b6704a03ce68d21555681565b600881565b600281565b600181565b600a670de0b6b3a76400006101a4565b671bc16d674ec7ffff81565b600081565b6002670de0b6b3a76400006101a456fea2646970667358221220a7035d8a808030c2b551e23336afbb92f6f84086e15b7ec18a84499bf2fdf57164736f6c634300060c0033",
  "immutableReferences": {},
  "source": "// https://github.com/balancer-labs/balancer-core/blob/master/contracts/BNum.sol\n\n// This program is free software: you can redistribute it and/or modify\n// it under the terms of the GNU General Public License as published by\n// the Free Software Foundation, either version 3 of the License, or\n// (at your option) any later version.\n\n// This program is distributed in the hope that it will be useful,\n// but WITHOUT ANY WARRANTY; without even the implied warranty of\n// MERCHANTABILITY or FITNESS FOR A PARTICULAR PURPOSE.  See the\n// GNU General Public License for more details.\n\n// You should have received a copy of the GNU General Public License\n// along with this program.  If not, see <http://www.gnu.org/licenses/>.\n\n/* solhint-disable private-vars-leading-underscore */\n\npragma solidity 0.6.12;\n\nimport \"./BConst.sol\";\n\ncontract BNum is BConst {\n  function btoi(uint256 a) internal pure returns (uint256) {\n    return a / BONE;\n  }\n\n  function bfloor(uint256 a) internal pure returns (uint256) {\n    return btoi(a) * BONE;\n  }\n\n  function badd(uint256 a, uint256 b) internal pure returns (uint256) {\n    uint256 c = a + b;\n    require(c >= a, \"ERR_ADD_OVERFLOW\");\n    return c;\n  }\n\n  function bsub(uint256 a, uint256 b) internal pure returns (uint256) {\n    (uint256 c, bool flag) = bsubSign(a, b);\n    require(!flag, \"ERR_SUB_UNDERFLOW\");\n    return c;\n  }\n\n  function bsubSign(uint256 a, uint256 b) internal pure returns (uint256, bool) {\n    if (a >= b) {\n      return (a - b, false);\n    } else {\n      return (b - a, true);\n    }\n  }\n\n  function bmul(uint256 a, uint256 b) internal pure returns (uint256) {\n    uint256 c0 = a * b;\n    require(a == 0 || c0 / a == b, \"ERR_MUL_OVERFLOW\");\n    uint256 c1 = c0 + (BONE / 2);\n    require(c1 >= c0, \"ERR_MUL_OVERFLOW\");\n    uint256 c2 = c1 / BONE;\n    return c2;\n  }\n\n  function bdiv(uint256 a, uint256 b) internal pure returns (uint256) {\n    require(b != 0, \"ERR_DIV_ZERO\");\n    uint256 c0 = a * BONE;\n    require(a == 0 || c0 / a == BONE, \"ERR_DIV_INTERNAL\"); // bmul overflow\n    uint256 c1 = c0 + (b / 2);\n    require(c1 >= c0, \"ERR_DIV_INTERNAL\"); //  badd require\n    uint256 c2 = c1 / b;\n    return c2;\n  }\n\n  // DSMath.wpow\n  function bpowi(uint256 a, uint256 n) internal pure returns (uint256) {\n    uint256 z = n % 2 != 0 ? a : BONE;\n\n    for (n /= 2; n != 0; n /= 2) {\n      a = bmul(a, a);\n\n      if (n % 2 != 0) {\n        z = bmul(z, a);\n      }\n    }\n    return z;\n  }\n\n  // Compute b^(e.w) by splitting it into (b^e)*(b^0.w).\n  // Use `bpowi` for `b^e` and `bpowK` for k iterations\n  // of approximation of b^0.w\n  function bpow(uint256 base, uint256 exp) internal pure returns (uint256) {\n    require(base >= MIN_BPOW_BASE, \"ERR_BPOW_BASE_TOO_LOW\");\n    require(base <= MAX_BPOW_BASE, \"ERR_BPOW_BASE_TOO_HIGH\");\n\n    uint256 whole = bfloor(exp);\n    uint256 remain = bsub(exp, whole);\n\n    uint256 wholePow = bpowi(base, btoi(whole));\n\n    if (remain == 0) {\n      return wholePow;\n    }\n\n    uint256 partialResult = bpowApprox(base, remain, BPOW_PRECISION);\n    return bmul(wholePow, partialResult);\n  }\n\n  function bpowApprox(\n    uint256 base,\n    uint256 exp,\n    uint256 precision\n  ) internal pure returns (uint256) {\n    // term 0:\n    uint256 a = exp;\n    (uint256 x, bool xneg) = bsubSign(base, BONE);\n    uint256 term = BONE;\n    uint256 sum = term;\n    bool negative = false;\n\n    // term(k) = numer / denom\n    //         = (product(a - i - 1, i=1-->k) * x^k) / (k!)\n    // each iteration, multiply previous term by (a-(k-1)) * x / k\n    // continue until term is less than precision\n    for (uint256 i = 1; term >= precision; i++) {\n      uint256 bigK = i * BONE;\n      (uint256 c, bool cneg) = bsubSign(a, bsub(bigK, BONE));\n      term = bmul(term, bmul(c, x));\n      term = bdiv(term, bigK);\n      if (term == 0) break;\n\n      if (xneg) negative = !negative;\n      if (cneg) negative = !negative;\n      if (negative) {\n        sum = bsub(sum, term);\n      } else {\n        sum = badd(sum, term);\n      }\n    }\n\n    return sum;\n  }\n}\n",
  "sourcePath": "/home/mingyue/sub_contract_content/Web3Bugs/contracts/115/core/contracts/libraries/BNum.sol",
  "compiler": {
    "name": "solc",
    "version": "0.6.12+commit.27d51765.Emscripten.clang"
  },
  "schemaVersion": "3.4.7",
  "updatedAt": "2025-02-28T14:09:34.639Z",
  "devdoc": {
    "kind": "dev",
    "methods": {},
    "version": 1
  },
  "userdoc": {
    "kind": "user",
    "methods": {},
    "version": 1
  }
}