{
  "contractName": "ConfigProvider",
  "abi": [
    {
      "inputs": [
        {
          "internalType": "contract IAddressProvider",
          "name": "_addresses",
          "type": "address"
        }
      ],
      "stateMutability": "nonpayable",
      "type": "constructor"
    },
    {
      "anonymous": false,
      "inputs": [
        {
          "indexed": true,
          "internalType": "address",
          "name": "collateralType",
          "type": "address"
        }
      ],
      "name": "CollateralRemoved",
      "type": "event"
    },
    {
      "anonymous": false,
      "inputs": [
        {
          "indexed": true,
          "internalType": "address",
          "name": "collateralType",
          "type": "address"
        },
        {
          "indexed": false,
          "internalType": "uint256",
          "name": "debtLimit",
          "type": "uint256"
        },
        {
          "indexed": false,
          "internalType": "uint256",
          "name": "liquidationRatio",
          "type": "uint256"
        },
        {
          "indexed": false,
          "internalType": "uint256",
          "name": "minCollateralRatio",
          "type": "uint256"
        },
        {
          "indexed": false,
          "internalType": "uint256",
          "name": "borrowRate",
          "type": "uint256"
        },
        {
          "indexed": false,
          "internalType": "uint256",
          "name": "originationFee",
          "type": "uint256"
        },
        {
          "indexed": false,
          "internalType": "uint256",
          "name": "liquidationBonus",
          "type": "uint256"
        },
        {
          "indexed": false,
          "internalType": "uint256",
          "name": "liquidationFee",
          "type": "uint256"
        }
      ],
      "name": "CollateralUpdated",
      "type": "event"
    },
    {
      "inputs": [],
      "name": "a",
      "outputs": [
        {
          "internalType": "contract IAddressProvider",
          "name": "",
          "type": "address"
        }
      ],
      "stateMutability": "view",
      "type": "function"
    },
    {
      "inputs": [
        {
          "internalType": "address",
          "name": "",
          "type": "address"
        }
      ],
      "name": "collateralIds",
      "outputs": [
        {
          "internalType": "uint256",
          "name": "",
          "type": "uint256"
        }
      ],
      "stateMutability": "view",
      "type": "function"
    },
    {
      "inputs": [],
      "name": "maxVotingPeriod",
      "outputs": [
        {
          "internalType": "uint256",
          "name": "",
          "type": "uint256"
        }
      ],
      "stateMutability": "view",
      "type": "function"
    },
    {
      "inputs": [],
      "name": "minVotingPeriod",
      "outputs": [
        {
          "internalType": "uint256",
          "name": "",
          "type": "uint256"
        }
      ],
      "stateMutability": "view",
      "type": "function"
    },
    {
      "inputs": [],
      "name": "numCollateralConfigs",
      "outputs": [
        {
          "internalType": "uint256",
          "name": "",
          "type": "uint256"
        }
      ],
      "stateMutability": "view",
      "type": "function"
    },
    {
      "inputs": [],
      "name": "proposalThreshold",
      "outputs": [
        {
          "internalType": "uint256",
          "name": "",
          "type": "uint256"
        }
      ],
      "stateMutability": "view",
      "type": "function"
    },
    {
      "inputs": [],
      "name": "votingQuorum",
      "outputs": [
        {
          "internalType": "uint256",
          "name": "",
          "type": "uint256"
        }
      ],
      "stateMutability": "view",
      "type": "function"
    },
    {
      "inputs": [
        {
          "internalType": "address",
          "name": "_collateralType",
          "type": "address"
        },
        {
          "internalType": "uint256",
          "name": "_debtLimit",
          "type": "uint256"
        },
        {
          "internalType": "uint256",
          "name": "_liquidationRatio",
          "type": "uint256"
        },
        {
          "internalType": "uint256",
          "name": "_minCollateralRatio",
          "type": "uint256"
        },
        {
          "internalType": "uint256",
          "name": "_borrowRate",
          "type": "uint256"
        },
        {
          "internalType": "uint256",
          "name": "_originationFee",
          "type": "uint256"
        },
        {
          "internalType": "uint256",
          "name": "_liquidationBonus",
          "type": "uint256"
        },
        {
          "internalType": "uint256",
          "name": "_liquidationFee",
          "type": "uint256"
        }
      ],
      "name": "setCollateralConfig",
      "outputs": [],
      "stateMutability": "nonpayable",
      "type": "function"
    },
    {
      "inputs": [
        {
          "internalType": "address",
          "name": "_collateralType",
          "type": "address"
        }
      ],
      "name": "removeCollateral",
      "outputs": [],
      "stateMutability": "nonpayable",
      "type": "function"
    },
    {
      "inputs": [
        {
          "internalType": "address",
          "name": "_collateralType",
          "type": "address"
        },
        {
          "internalType": "uint256",
          "name": "_debtLimit",
          "type": "uint256"
        }
      ],
      "name": "setCollateralDebtLimit",
      "outputs": [],
      "stateMutability": "nonpayable",
      "type": "function"
    },
    {
      "inputs": [
        {
          "internalType": "address",
          "name": "_collateralType",
          "type": "address"
        },
        {
          "internalType": "uint256",
          "name": "_liquidationRatio",
          "type": "uint256"
        }
      ],
      "name": "setCollateralLiquidationRatio",
      "outputs": [],
      "stateMutability": "nonpayable",
      "type": "function"
    },
    {
      "inputs": [
        {
          "internalType": "address",
          "name": "_collateralType",
          "type": "address"
        },
        {
          "internalType": "uint256",
          "name": "_minCollateralRatio",
          "type": "uint256"
        }
      ],
      "name": "setCollateralMinCollateralRatio",
      "outputs": [],
      "stateMutability": "nonpayable",
      "type": "function"
    },
    {
      "inputs": [
        {
          "internalType": "address",
          "name": "_collateralType",
          "type": "address"
        },
        {
          "internalType": "uint256",
          "name": "_borrowRate",
          "type": "uint256"
        }
      ],
      "name": "setCollateralBorrowRate",
      "outputs": [],
      "stateMutability": "nonpayable",
      "type": "function"
    },
    {
      "inputs": [
        {
          "internalType": "address",
          "name": "_collateralType",
          "type": "address"
        },
        {
          "internalType": "uint256",
          "name": "_originationFee",
          "type": "uint256"
        }
      ],
      "name": "setCollateralOriginationFee",
      "outputs": [],
      "stateMutability": "nonpayable",
      "type": "function"
    },
    {
      "inputs": [
        {
          "internalType": "address",
          "name": "_collateralType",
          "type": "address"
        },
        {
          "internalType": "uint256",
          "name": "_liquidationBonus",
          "type": "uint256"
        }
      ],
      "name": "setCollateralLiquidationBonus",
      "outputs": [],
      "stateMutability": "nonpayable",
      "type": "function"
    },
    {
      "inputs": [
        {
          "internalType": "address",
          "name": "_collateralType",
          "type": "address"
        },
        {
          "internalType": "uint256",
          "name": "_liquidationFee",
          "type": "uint256"
        }
      ],
      "name": "setCollateralLiquidationFee",
      "outputs": [],
      "stateMutability": "nonpayable",
      "type": "function"
    },
    {
      "inputs": [
        {
          "internalType": "uint256",
          "name": "_minVotingPeriod",
          "type": "uint256"
        }
      ],
      "name": "setMinVotingPeriod",
      "outputs": [],
      "stateMutability": "nonpayable",
      "type": "function"
    },
    {
      "inputs": [
        {
          "internalType": "uint256",
          "name": "_maxVotingPeriod",
          "type": "uint256"
        }
      ],
      "name": "setMaxVotingPeriod",
      "outputs": [],
      "stateMutability": "nonpayable",
      "type": "function"
    },
    {
      "inputs": [
        {
          "internalType": "uint256",
          "name": "_votingQuorum",
          "type": "uint256"
        }
      ],
      "name": "setVotingQuorum",
      "outputs": [],
      "stateMutability": "nonpayable",
      "type": "function"
    },
    {
      "inputs": [
        {
          "internalType": "uint256",
          "name": "_proposalThreshold",
          "type": "uint256"
        }
      ],
      "name": "setProposalThreshold",
      "outputs": [],
      "stateMutability": "nonpayable",
      "type": "function"
    },
    {
      "inputs": [
        {
          "internalType": "address",
          "name": "_collateralType",
          "type": "address"
        }
      ],
      "name": "collateralDebtLimit",
      "outputs": [
        {
          "internalType": "uint256",
          "name": "",
          "type": "uint256"
        }
      ],
      "stateMutability": "view",
      "type": "function"
    },
    {
      "inputs": [
        {
          "internalType": "address",
          "name": "_collateralType",
          "type": "address"
        }
      ],
      "name": "collateralLiquidationRatio",
      "outputs": [
        {
          "internalType": "uint256",
          "name": "",
          "type": "uint256"
        }
      ],
      "stateMutability": "view",
      "type": "function"
    },
    {
      "inputs": [
        {
          "internalType": "address",
          "name": "_collateralType",
          "type": "address"
        }
      ],
      "name": "collateralMinCollateralRatio",
      "outputs": [
        {
          "internalType": "uint256",
          "name": "",
          "type": "uint256"
        }
      ],
      "stateMutability": "view",
      "type": "function"
    },
    {
      "inputs": [
        {
          "internalType": "address",
          "name": "_collateralType",
          "type": "address"
        }
      ],
      "name": "collateralBorrowRate",
      "outputs": [
        {
          "internalType": "uint256",
          "name": "",
          "type": "uint256"
        }
      ],
      "stateMutability": "view",
      "type": "function"
    },
    {
      "inputs": [
        {
          "internalType": "address",
          "name": "_collateralType",
          "type": "address"
        }
      ],
      "name": "collateralOriginationFee",
      "outputs": [
        {
          "internalType": "uint256",
          "name": "",
          "type": "uint256"
        }
      ],
      "stateMutability": "view",
      "type": "function"
    },
    {
      "inputs": [
        {
          "internalType": "address",
          "name": "_collateralType",
          "type": "address"
        }
      ],
      "name": "collateralLiquidationBonus",
      "outputs": [
        {
          "internalType": "uint256",
          "name": "",
          "type": "uint256"
        }
      ],
      "stateMutability": "view",
      "type": "function"
    },
    {
      "inputs": [
        {
          "internalType": "address",
          "name": "_collateralType",
          "type": "address"
        }
      ],
      "name": "collateralLiquidationFee",
      "outputs": [
        {
          "internalType": "uint256",
          "name": "",
          "type": "uint256"
        }
      ],
      "stateMutability": "view",
      "type": "function"
    },
    {
      "inputs": [
        {
          "internalType": "uint256",
          "name": "_id",
          "type": "uint256"
        }
      ],
      "name": "collateralConfigs",
      "outputs": [
        {
          "components": [
            {
              "internalType": "address",
              "name": "collateralType",
              "type": "address"
            },
            {
              "internalType": "uint256",
              "name": "debtLimit",
              "type": "uint256"
            },
            {
              "internalType": "uint256",
              "name": "liquidationRatio",
              "type": "uint256"
            },
            {
              "internalType": "uint256",
              "name": "minCollateralRatio",
              "type": "uint256"
            },
            {
              "internalType": "uint256",
              "name": "borrowRate",
              "type": "uint256"
            },
            {
              "internalType": "uint256",
              "name": "originationFee",
              "type": "uint256"
            },
            {
              "internalType": "uint256",
              "name": "liquidationBonus",
              "type": "uint256"
            },
            {
              "internalType": "uint256",
              "name": "liquidationFee",
              "type": "uint256"
            }
          ],
          "internalType": "struct IConfigProvider.CollateralConfig",
          "name": "",
          "type": "tuple"
        }
      ],
      "stateMutability": "view",
      "type": "function"
    }
  ],
  "bytecode": "0x60806040526203f48060045562127500600555662386f26fc1000060065565b5e620f480006007553480156200003457600080fd5b5060405162002e3038038062002e30833981016040819052620000579162000091565b6001600160a01b0381166200006b57600080fd5b600080546001600160a01b0319166001600160a01b0392909216919091179055620000c1565b600060208284031215620000a3578081fd5b81516001600160a01b0381168114620000ba578182fd5b9392505050565b612d5f80620000d16000396000f3fe608060405234801561001057600080fd5b50600436106101c45760003560e01c80638a98b12d116100f9578063c7acd53111610097578063d9a8faf811610071578063d9a8faf814610381578063db67c4d514610394578063e4ea33ef146103a7578063ece40cc1146103ba576101c4565b8063c7acd53114610353578063c99d3a0614610366578063d47e470d14610379576101c4565b8063b58131b0116100d3578063b58131b014610312578063b6784e3c1461031a578063b7b9a9d81461032d578063c12d47fc14610340576101c4565b80638a98b12d146102d957806397e30553146102ec57806399969dd1146102ff576101c4565b80635a35f8341161016657806374636d161161014057806374636d16146102985780637df10f23146102ab5780638635447a146102be5780638a70473b146102c6576101c4565b80635a35f8341461026a5780635ab691ab146102725780635dd697dc14610285576101c4565b80631ac5596b116101a25780631ac5596b146102115780631accc06a146102245780633805b020146102375780634a6e0dd01461024a576101c4565b80630dbe671f146101c95780630e31f6c2146101e757806312b5ea3a146101fc575b600080fd5b6101d16103cd565b6040516101de9190612bb7565b60405180910390f35b6101ef6103dc565b6040516101de9190612cd8565b61020f61020a366004612b9f565b6103e2565b005b61020f61021f366004612ac3565b610600565b61020f610232366004612ac3565b61085c565b61020f610245366004612ac3565b610aa0565b61025d610258366004612b9f565b610ce4565b6040516101de9190612c7b565b6101ef610d84565b61020f610280366004612b9f565b610d8a565b6101ef610293366004612aa0565b610fb3565b61020f6102a6366004612ac3565b610fde565b6101ef6102b9366004612aa0565b611256565b6101ef611281565b6101ef6102d4366004612aa0565b611287565b6101ef6102e7366004612aa0565b6112b2565b6101ef6102fa366004612aa0565b6112dd565b61020f61030d366004612ac3565b611308565b6101ef61169d565b61020f610328366004612ac3565b6116a3565b61020f61033b366004612b9f565b6118e7565b61020f61034e366004612ac3565b611afc565b61020f610361366004612aee565b611d74565b61020f610374366004612aa0565b6123ea565b6101ef612738565b6101ef61038f366004612aa0565b61273e565b6101ef6103a2366004612aa0565b612768565b6101ef6103b5366004612aa0565b61277a565b61020f6103c8366004612b9f565b6127a5565b6000546001600160a01b031681565b60055481565b60008054906101000a90046001600160a01b03166001600160a01b031663f77c47916040518163ffffffff1660e01b815260040160206040518083038186803b15801561042e57600080fd5b505afa158015610442573d6000803e3d6000fd5b505050506040513d601f19601f820116820180604052508101906104669190612b83565b6001600160a01b03166391d1485460008054906101000a90046001600160a01b03166001600160a01b031663f77c47916040518163ffffffff1660e01b815260040160206040518083038186803b1580156104c057600080fd5b505afa1580156104d4573d6000803e3d6000fd5b505050506040513d601f19601f820116820180604052508101906104f89190612b83565b6001600160a01b031663ec87621c6040518163ffffffff1660e01b815260040160206040518083038186803b15801561053057600080fd5b505afa158015610544573d6000803e3d6000fd5b505050506040513d601f19601f820116820180604052508101906105689190612b6b565b336040518363ffffffff1660e01b8152600401610586929190612bcb565b60206040518083038186803b15801561059e57600080fd5b505afa1580156105b2573d6000803e3d6000fd5b505050506040513d601f19601f820116820180604052508101906105d69190612b4b565b6105fb5760405162461bcd60e51b81526004016105f290612c44565b60405180910390fd5b600555565b60008054906101000a90046001600160a01b03166001600160a01b031663f77c47916040518163ffffffff1660e01b815260040160206040518083038186803b15801561064c57600080fd5b505afa158015610660573d6000803e3d6000fd5b505050506040513d601f19601f820116820180604052508101906106849190612b83565b6001600160a01b03166391d1485460008054906101000a90046001600160a01b03166001600160a01b031663f77c47916040518163ffffffff1660e01b815260040160206040518083038186803b1580156106de57600080fd5b505afa1580156106f2573d6000803e3d6000fd5b505050506040513d601f19601f820116820180604052508101906107169190612b83565b6001600160a01b031663ec87621c6040518163ffffffff1660e01b815260040160206040518083038186803b15801561074e57600080fd5b505afa158015610762573d6000803e3d6000fd5b505050506040513d601f19601f820116820180604052508101906107869190612b6b565b336040518363ffffffff1660e01b81526004016107a4929190612bcb565b60206040518083038186803b1580156107bc57600080fd5b505afa1580156107d0573d6000803e3d6000fd5b505050506040513d601f19601f820116820180604052508101906107f49190612b4b565b6108105760405162461bcd60e51b81526004016105f290612c44565b670de0b6b3a7640000811061082457600080fd5b6001600160a01b038216600090815260026020908152604080832054835260019091529020600701819055610858826129ce565b5050565b60008054906101000a90046001600160a01b03166001600160a01b031663f77c47916040518163ffffffff1660e01b815260040160206040518083038186803b1580156108a857600080fd5b505afa1580156108bc573d6000803e3d6000fd5b505050506040513d601f19601f820116820180604052508101906108e09190612b83565b6001600160a01b03166391d1485460008054906101000a90046001600160a01b03166001600160a01b031663f77c47916040518163ffffffff1660e01b815260040160206040518083038186803b15801561093a57600080fd5b505afa15801561094e573d6000803e3d6000fd5b505050506040513d601f19601f820116820180604052508101906109729190612b83565b6001600160a01b031663ec87621c6040518163ffffffff1660e01b815260040160206040518083038186803b1580156109aa57600080fd5b505afa1580156109be573d6000803e3d6000fd5b505050506040513d601f19601f820116820180604052508101906109e29190612b6b565b336040518363ffffffff1660e01b8152600401610a00929190612bcb565b60206040518083038186803b158015610a1857600080fd5b505afa158015610a2c573d6000803e3d6000fd5b505050506040513d601f19601f82011682018060405250810190610a509190612b4b565b610a6c5760405162461bcd60e51b81526004016105f290612c44565b6001600160a01b038216600090815260026020908152604080832054835260019182905290912001819055610858826129ce565b60008054906101000a90046001600160a01b03166001600160a01b031663f77c47916040518163ffffffff1660e01b815260040160206040518083038186803b158015610aec57600080fd5b505afa158015610b00573d6000803e3d6000fd5b505050506040513d601f19601f82011682018060405250810190610b249190612b83565b6001600160a01b03166391d1485460008054906101000a90046001600160a01b03166001600160a01b031663f77c47916040518163ffffffff1660e01b815260040160206040518083038186803b158015610b7e57600080fd5b505afa158015610b92573d6000803e3d6000fd5b505050506040513d601f19601f82011682018060405250810190610bb69190612b83565b6001600160a01b031663ec87621c6040518163ffffffff1660e01b815260040160206040518083038186803b158015610bee57600080fd5b505afa158015610c02573d6000803e3d6000fd5b505050506040513d601f19601f82011682018060405250810190610c269190612b6b565b336040518363ffffffff1660e01b8152600401610c44929190612bcb565b60206040518083038186803b158015610c5c57600080fd5b505afa158015610c70573d6000803e3d6000fd5b505050506040513d601f19601f82011682018060405250810190610c949190612b4b565b610cb05760405162461bcd60e51b81526004016105f290612c44565b6001600160a01b038216600090815260026020908152604080832054835260019091529020600601819055610858826129ce565b610cec612a52565b600354821115610d0e5760405162461bcd60e51b81526004016105f290612c19565b5060009081526001602081815260409283902083516101008101855281546001600160a01b0316815292810154918301919091526002810154928201929092526003820154606082015260048201546080820152600582015460a0820152600682015460c082015260079091015460e082015290565b60065481565b60008054906101000a90046001600160a01b03166001600160a01b031663f77c47916040518163ffffffff1660e01b815260040160206040518083038186803b158015610dd657600080fd5b505afa158015610dea573d6000803e3d6000fd5b505050506040513d601f19601f82011682018060405250810190610e0e9190612b83565b6001600160a01b03166391d1485460008054906101000a90046001600160a01b03166001600160a01b031663f77c47916040518163ffffffff1660e01b815260040160206040518083038186803b158015610e6857600080fd5b505afa158015610e7c573d6000803e3d6000fd5b505050506040513d601f19601f82011682018060405250810190610ea09190612b83565b6001600160a01b031663ec87621c6040518163ffffffff1660e01b815260040160206040518083038186803b158015610ed857600080fd5b505afa158015610eec573d6000803e3d6000fd5b505050506040513d601f19601f82011682018060405250810190610f109190612b6b565b336040518363ffffffff1660e01b8152600401610f2e929190612bcb565b60206040518083038186803b158015610f4657600080fd5b505afa158015610f5a573d6000803e3d6000fd5b505050506040513d601f19601f82011682018060405250810190610f7e9190612b4b565b610f9a5760405162461bcd60e51b81526004016105f290612c44565b670de0b6b3a76400008110610fae57600080fd5b600655565b6001600160a01b03166000908152600260209081526040808320548352600190915290206005015490565b60008054906101000a90046001600160a01b03166001600160a01b031663f77c47916040518163ffffffff1660e01b815260040160206040518083038186803b15801561102a57600080fd5b505afa15801561103e573d6000803e3d6000fd5b505050506040513d601f19601f820116820180604052508101906110629190612b83565b6001600160a01b03166391d1485460008054906101000a90046001600160a01b03166001600160a01b031663f77c47916040518163ffffffff1660e01b815260040160206040518083038186803b1580156110bc57600080fd5b505afa1580156110d0573d6000803e3d6000fd5b505050506040513d601f19601f820116820180604052508101906110f49190612b83565b6001600160a01b031663ec87621c6040518163ffffffff1660e01b815260040160206040518083038186803b15801561112c57600080fd5b505afa158015611140573d6000803e3d6000fd5b505050506040513d601f19601f820116820180604052508101906111649190612b6b565b336040518363ffffffff1660e01b8152600401611182929190612bcb565b60206040518083038186803b15801561119a57600080fd5b505afa1580156111ae573d6000803e3d6000fd5b505050506040513d601f19601f820116820180604052508101906111d29190612b4b565b6111ee5760405162461bcd60e51b81526004016105f290612c44565b6001600160a01b0382166000908152600260209081526040808320548352600190915290206003015481111561122357600080fd5b6001600160a01b0382166000908152600260208181526040808420548452600190915290912001819055610858826129ce565b6001600160a01b03166000908152600260209081526040808320548352600190915290206007015490565b60045481565b6001600160a01b03166000908152600260209081526040808320548352600190915290206003015490565b6001600160a01b03166000908152600260209081526040808320548352600191829052909120015490565b6001600160a01b03166000908152600260209081526040808320548352600190915290206006015490565b60008054906101000a90046001600160a01b03166001600160a01b031663f77c47916040518163ffffffff1660e01b815260040160206040518083038186803b15801561135457600080fd5b505afa158015611368573d6000803e3d6000fd5b505050506040513d601f19601f8201168201806040525081019061138c9190612b83565b6001600160a01b03166391d1485460008054906101000a90046001600160a01b03166001600160a01b031663f77c47916040518163ffffffff1660e01b815260040160206040518083038186803b1580156113e657600080fd5b505afa1580156113fa573d6000803e3d6000fd5b505050506040513d601f19601f8201168201806040525081019061141e9190612b83565b6001600160a01b031663ec87621c6040518163ffffffff1660e01b815260040160206040518083038186803b15801561145657600080fd5b505afa15801561146a573d6000803e3d6000fd5b505050506040513d601f19601f8201168201806040525081019061148e9190612b6b565b336040518363ffffffff1660e01b81526004016114ac929190612bcb565b60206040518083038186803b1580156114c457600080fd5b505afa1580156114d8573d6000803e3d6000fd5b505050506040513d601f19601f820116820180604052508101906114fc9190612b4b565b6115185760405162461bcd60e51b81526004016105f290612c44565b60008054906101000a90046001600160a01b03166001600160a01b031663f2f4eb266040518163ffffffff1660e01b815260040160206040518083038186803b15801561156457600080fd5b505afa158015611578573d6000803e3d6000fd5b505050506040513d601f19601f8201168201806040525081019061159c9190612b83565b6001600160a01b031663c19d93fb6040518163ffffffff1660e01b815260040160206040518083038186803b1580156115d457600080fd5b505afa1580156115e8573d6000803e3d6000fd5b505050506040513d601f19601f8201168201806040525081019061160c9190612b83565b6001600160a01b031663fe042ceb836040518263ffffffff1660e01b81526004016116379190612bb7565b600060405180830381600087803b15801561165157600080fd5b505af1158015611665573d6000803e3d6000fd5b5050506001600160a01b03831660009081526002602090815260408083205483526001909152902060040182905550610858826129ce565b60075481565b60008054906101000a90046001600160a01b03166001600160a01b031663f77c47916040518163ffffffff1660e01b815260040160206040518083038186803b1580156116ef57600080fd5b505afa158015611703573d6000803e3d6000fd5b505050506040513d601f19601f820116820180604052508101906117279190612b83565b6001600160a01b03166391d1485460008054906101000a90046001600160a01b03166001600160a01b031663f77c47916040518163ffffffff1660e01b815260040160206040518083038186803b15801561178157600080fd5b505afa158015611795573d6000803e3d6000fd5b505050506040513d601f19601f820116820180604052508101906117b99190612b83565b6001600160a01b031663ec87621c6040518163ffffffff1660e01b815260040160206040518083038186803b1580156117f157600080fd5b505afa158015611805573d6000803e3d6000fd5b505050506040513d601f19601f820116820180604052508101906118299190612b6b565b336040518363ffffffff1660e01b8152600401611847929190612bcb565b60206040518083038186803b15801561185f57600080fd5b505afa158015611873573d6000803e3d6000fd5b505050506040513d601f19601f820116820180604052508101906118979190612b4b565b6118b35760405162461bcd60e51b81526004016105f290612c44565b6001600160a01b038216600090815260026020908152604080832054835260019091529020600501819055610858826129ce565b60008054906101000a90046001600160a01b03166001600160a01b031663f77c47916040518163ffffffff1660e01b815260040160206040518083038186803b15801561193357600080fd5b505afa158015611947573d6000803e3d6000fd5b505050506040513d601f19601f8201168201806040525081019061196b9190612b83565b6001600160a01b03166391d1485460008054906101000a90046001600160a01b03166001600160a01b031663f77c47916040518163ffffffff1660e01b815260040160206040518083038186803b1580156119c557600080fd5b505afa1580156119d9573d6000803e3d6000fd5b505050506040513d601f19601f820116820180604052508101906119fd9190612b83565b6001600160a01b031663ec87621c6040518163ffffffff1660e01b815260040160206040518083038186803b158015611a3557600080fd5b505afa158015611a49573d6000803e3d6000fd5b505050506040513d601f19601f82011682018060405250810190611a6d9190612b6b565b336040518363ffffffff1660e01b8152600401611a8b929190612bcb565b60206040518083038186803b158015611aa357600080fd5b505afa158015611ab7573d6000803e3d6000fd5b505050506040513d601f19601f82011682018060405250810190611adb9190612b4b565b611af75760405162461bcd60e51b81526004016105f290612c44565b600455565b60008054906101000a90046001600160a01b03166001600160a01b031663f77c47916040518163ffffffff1660e01b815260040160206040518083038186803b158015611b4857600080fd5b505afa158015611b5c573d6000803e3d6000fd5b505050506040513d601f19601f82011682018060405250810190611b809190612b83565b6001600160a01b03166391d1485460008054906101000a90046001600160a01b03166001600160a01b031663f77c47916040518163ffffffff1660e01b815260040160206040518083038186803b158015611bda57600080fd5b505afa158015611bee573d6000803e3d6000fd5b505050506040513d601f19601f82011682018060405250810190611c129190612b83565b6001600160a01b031663ec87621c6040518163ffffffff1660e01b815260040160206040518083038186803b158015611c4a57600080fd5b505afa158015611c5e573d6000803e3d6000fd5b505050506040513d601f19601f82011682018060405250810190611c829190612b6b565b336040518363ffffffff1660e01b8152600401611ca0929190612bcb565b60206040518083038186803b158015611cb857600080fd5b505afa158015611ccc573d6000803e3d6000fd5b505050506040513d601f19601f82011682018060405250810190611cf09190612b4b565b611d0c5760405162461bcd60e51b81526004016105f290612c44565b6001600160a01b038216600090815260026020818152604080842054845260019091529091200154811015611d4057600080fd5b6001600160a01b038216600090815260026020908152604080832054835260019091529020600301819055610858826129ce565b60008054906101000a90046001600160a01b03166001600160a01b031663f77c47916040518163ffffffff1660e01b815260040160206040518083038186803b158015611dc057600080fd5b505afa158015611dd4573d6000803e3d6000fd5b505050506040513d601f19601f82011682018060405250810190611df89190612b83565b6001600160a01b03166391d1485460008054906101000a90046001600160a01b03166001600160a01b031663f77c47916040518163ffffffff1660e01b815260040160206040518083038186803b158015611e5257600080fd5b505afa158015611e66573d6000803e3d6000fd5b505050506040513d601f19601f82011682018060405250810190611e8a9190612b83565b6001600160a01b031663ec87621c6040518163ffffffff1660e01b815260040160206040518083038186803b158015611ec257600080fd5b505afa158015611ed6573d6000803e3d6000fd5b505050506040513d601f19601f82011682018060405250810190611efa9190612b6b565b336040518363ffffffff1660e01b8152600401611f18929190612bcb565b60206040518083038186803b158015611f3057600080fd5b505afa158015611f44573d6000803e3d6000fd5b505050506040513d601f19601f82011682018060405250810190611f689190612b4b565b611f845760405162461bcd60e51b81526004016105f290612c44565b6001600160a01b038816611f9757600080fd5b85851015611fa457600080fd5b6001600160a01b0388166000908152600260205260409020546121dc5760008054906101000a90046001600160a01b03166001600160a01b031663f2f4eb266040518163ffffffff1660e01b815260040160206040518083038186803b15801561200d57600080fd5b505afa158015612021573d6000803e3d6000fd5b505050506040513d601f19601f820116820180604052508101906120459190612b83565b6001600160a01b031663c19d93fb6040518163ffffffff1660e01b815260040160206040518083038186803b15801561207d57600080fd5b505afa158015612091573d6000803e3d6000fd5b505050506040513d601f19601f820116820180604052508101906120b59190612b83565b6001600160a01b03166376b8de6a896040518263ffffffff1660e01b81526004016120e09190612bb7565b600060405180830381600087803b1580156120fa57600080fd5b505af115801561210e573d6000803e3d6000fd5b5050505061211a612a52565b5060408051610100810182526001600160a01b038a811680835260208084018c81528486018c8152606086018c8152608087018c815260a088018c815260c089018c815260e08a018c81526003805460019081018083556000908152818b528e81209d518e546001600160a01b0319169d169c909c178d559751978c019790975594516002808c019190915593518a870155915160048a0155516005890155516006880155905160079096019590955554918352929092529190912055612393565b60008054906101000a90046001600160a01b03166001600160a01b031663f2f4eb266040518163ffffffff1660e01b815260040160206040518083038186803b15801561222857600080fd5b505afa15801561223c573d6000803e3d6000fd5b505050506040513d601f19601f820116820180604052508101906122609190612b83565b6001600160a01b031663c19d93fb6040518163ffffffff1660e01b815260040160206040518083038186803b15801561229857600080fd5b505afa1580156122ac573d6000803e3d6000fd5b505050506040513d601f19601f820116820180604052508101906122d09190612b83565b6001600160a01b031663fe042ceb896040518263ffffffff1660e01b81526004016122fb9190612bb7565b600060405180830381600087803b15801561231557600080fd5b505af1158015612329573d6000803e3d6000fd5b5050506001600160a01b038916600081815260026020818152604080842054845260019182905290922080546001600160a01b03191690931783559082018a9055810188905560038101879055600481018690556005810185905560068101849055600701829055505b876001600160a01b03167f33c1196e1ba4d051d9795508a8e5dede080b427bf688c0c6c04ae562b6852eb3888888888888886040516123d89796959493929190612ce1565b60405180910390a25050505050505050565b60008054906101000a90046001600160a01b03166001600160a01b031663f77c47916040518163ffffffff1660e01b815260040160206040518083038186803b15801561243657600080fd5b505afa15801561244a573d6000803e3d6000fd5b505050506040513d601f19601f8201168201806040525081019061246e9190612b83565b6001600160a01b03166391d1485460008054906101000a90046001600160a01b03166001600160a01b031663f77c47916040518163ffffffff1660e01b815260040160206040518083038186803b1580156124c857600080fd5b505afa1580156124dc573d6000803e3d6000fd5b505050506040513d601f19601f820116820180604052508101906125009190612b83565b6001600160a01b031663ec87621c6040518163ffffffff1660e01b815260040160206040518083038186803b15801561253857600080fd5b505afa15801561254c573d6000803e3d6000fd5b505050506040513d601f19601f820116820180604052508101906125709190612b6b565b336040518363ffffffff1660e01b815260040161258e929190612bcb565b60206040518083038186803b1580156125a657600080fd5b505afa1580156125ba573d6000803e3d6000fd5b505050506040513d601f19601f820116820180604052508101906125de9190612b4b565b6125fa5760405162461bcd60e51b81526004016105f290612c44565b6001600160a01b038116600090815260026020526040902054806126305760405162461bcd60e51b81526004016105f290612be2565b600380546000908152600160208181526040808420868552818520815481546001600160a01b03199081166001600160a01b0392831617808455848801548489015560028086015481860155858b0154858c0155600480870154818701556005808801548188015560068089015481890155600798890154978901979097559285168b52818952878b208d90558b548b52898952878b20805490941684559883018a90558281018a9055828b018a90559782018990558101889055918201879055910185905587168085529290915280832083905583546000190190935591517fd89d2ee68ab04dca0193f48a4aff55e20fa5ec0429a8a8c1c51b8dad6178a5939190a25050565b60035481565b6001600160a01b031660009081526002602081815260408084205484526001909152909120015490565b60026020526000908152604090205481565b6001600160a01b03166000908152600260209081526040808320548352600190915290206004015490565b60008054906101000a90046001600160a01b03166001600160a01b031663f77c47916040518163ffffffff1660e01b815260040160206040518083038186803b1580156127f157600080fd5b505afa158015612805573d6000803e3d6000fd5b505050506040513d601f19601f820116820180604052508101906128299190612b83565b6001600160a01b03166391d1485460008054906101000a90046001600160a01b03166001600160a01b031663f77c47916040518163ffffffff1660e01b815260040160206040518083038186803b15801561288357600080fd5b505afa158015612897573d6000803e3d6000fd5b505050506040513d601f19601f820116820180604052508101906128bb9190612b83565b6001600160a01b031663ec87621c6040518163ffffffff1660e01b815260040160206040518083038186803b1580156128f357600080fd5b505afa158015612907573d6000803e3d6000fd5b505050506040513d601f19601f8201168201806040525081019061292b9190612b6b565b336040518363ffffffff1660e01b8152600401612949929190612bcb565b60206040518083038186803b15801561296157600080fd5b505afa158015612975573d6000803e3d6000fd5b505050506040513d601f19601f820116820180604052508101906129999190612b4b565b6129b55760405162461bcd60e51b81526004016105f290612c44565b670de0b6b3a764000081106129c957600080fd5b600755565b6001600160a01b0381166000818152600260208181526040808420548452600191829052928390209081015491810154600382015460048301546005840154600685015460079095015496517f33c1196e1ba4d051d9795508a8e5dede080b427bf688c0c6c04ae562b6852eb397612a47979691612ce1565b60405180910390a250565b60405180610100016040528060006001600160a01b03168152602001600081526020016000815260200160008152602001600081526020016000815260200160008152602001600081525090565b600060208284031215612ab1578081fd5b8135612abc81612d11565b9392505050565b60008060408385031215612ad5578081fd5b8235612ae081612d11565b946020939093013593505050565b600080600080600080600080610100898b031215612b0a578384fd5b8835612b1581612d11565b9a60208a01359a5060408a013599606081013599506080810135985060a0810135975060c0810135965060e00135945092505050565b600060208284031215612b5c578081fd5b81518015158114612abc578182fd5b600060208284031215612b7c578081fd5b5051919050565b600060208284031215612b94578081fd5b8151612abc81612d11565b600060208284031215612bb0578081fd5b5035919050565b6001600160a01b0391909116815260200190565b9182526001600160a01b0316602082015260400190565b60208082526019908201527f636f6c6c61746572616c20646f6573206e6f7420657869737400000000000000604082015260600190565b602080825260119082015270125b9d985b1a590818dbdb999a59c81a59607a1b604082015260600190565b60208082526017908201527f43616c6c6572206973206e6f742061204d616e61676572000000000000000000604082015260600190565b81516001600160a01b031681526020808301519082015260408083015190820152606080830151908201526080808301519082015260a0828101519082015260c0808301519082015260e091820151918101919091526101000190565b90815260200190565b968752602087019590955260408601939093526060850191909152608084015260a083015260c082015260e00190565b6001600160a01b0381168114612d2657600080fd5b5056fea26469706673582212201c4cacf33180df5e80555c34eb071aa842f6d445f473dde541c5777ac496885964736f6c634300060c0033",
  "immutableReferences": {},
  "source": "// SPDX-License-Identifier: MIT\n\npragma experimental ABIEncoderV2;\npragma solidity 0.6.12;\n\nimport \"../libraries/WadRayMath.sol\";\nimport \"../interfaces/IConfigProvider.sol\";\nimport \"../interfaces/IAddressProvider.sol\";\n\ncontract ConfigProvider is IConfigProvider {\n  IAddressProvider public override a;\n\n  mapping(uint256 => CollateralConfig) private _collateralConfigs; //indexing starts at 1\n  mapping(address => uint256) public override collateralIds;\n\n  uint256 public override numCollateralConfigs;\n  /// @notice The minimum duration of voting on a proposal, in seconds\n  uint256 public override minVotingPeriod = 3 days;\n  /// @notice The max duration of voting on a proposal, in seconds\n  uint256 public override maxVotingPeriod = 2 weeks;\n  /// @notice The percentage of votes in support of a proposal required in order for a quorum to be reached and for a proposal to succeed\n  uint256 public override votingQuorum = 1e16; // 1%\n  /// @notice The percentage of votes required in order for a voter to become a proposer\n  uint256 public override proposalThreshold = 2e14; // 0.02%\n\n  constructor(IAddressProvider _addresses) public {\n    require(address(_addresses) != address(0));\n\n    a = _addresses;\n  }\n\n  modifier onlyManager() {\n    require(a.controller().hasRole(a.controller().MANAGER_ROLE(), msg.sender), \"Caller is not a Manager\");\n    _;\n  }\n\n  /**\n    Creates or overwrites an existing config for a collateral type\n    @param _collateralType address of the collateral type\n    @param _debtLimit the debt ceiling for the collateral type\n    @param _liquidationRatio the minimum ratio to maintain to avoid liquidation\n    @param _minCollateralRatio the minimum ratio to maintain to borrow new money or withdraw collateral\n    @param _borrowRate the borrowing rate specified in 1 second interval in RAY accuracy.\n    @param _originationFee an optional origination fee for newly created debt. Can be 0.\n    @param _liquidationBonus the liquidation bonus to be paid to liquidators.\n    @param _liquidationFee an optional fee for liquidation debt. Can be 0.\n  */\n  function setCollateralConfig(\n    address _collateralType,\n    uint256 _debtLimit,\n    uint256 _liquidationRatio,\n    uint256 _minCollateralRatio,\n    uint256 _borrowRate,\n    uint256 _originationFee,\n    uint256 _liquidationBonus,\n    uint256 _liquidationFee\n  ) public override onlyManager {\n    require(address(_collateralType) != address(0));\n    require(_minCollateralRatio >= _liquidationRatio);\n    if (collateralIds[_collateralType] == 0) {\n      // Initialize new collateral\n      a.core().state().initializeRates(_collateralType);\n      CollateralConfig memory config = CollateralConfig({\n        collateralType: _collateralType,\n        debtLimit: _debtLimit,\n        liquidationRatio: _liquidationRatio,\n        minCollateralRatio: _minCollateralRatio,\n        borrowRate: _borrowRate,\n        originationFee: _originationFee,\n        liquidationBonus: _liquidationBonus,\n        liquidationFee: _liquidationFee\n      });\n\n      numCollateralConfigs++;\n      _collateralConfigs[numCollateralConfigs] = config;\n      collateralIds[_collateralType] = numCollateralConfigs;\n    } else {\n      // Update collateral config\n      a.core().state().refreshCollateral(_collateralType);\n      uint256 id = collateralIds[_collateralType];\n\n      _collateralConfigs[id].collateralType = _collateralType;\n      _collateralConfigs[id].debtLimit = _debtLimit;\n      _collateralConfigs[id].liquidationRatio = _liquidationRatio;\n      _collateralConfigs[id].minCollateralRatio = _minCollateralRatio;\n      _collateralConfigs[id].borrowRate = _borrowRate;\n      _collateralConfigs[id].originationFee = _originationFee;\n      _collateralConfigs[id].liquidationBonus = _liquidationBonus;\n      _collateralConfigs[id].liquidationFee = _liquidationFee;\n    }\n    emit CollateralUpdated(\n      _collateralType,\n      _debtLimit,\n      _liquidationRatio,\n      _minCollateralRatio,\n      _borrowRate,\n      _originationFee,\n      _liquidationBonus,\n      _liquidationFee\n    );\n  }\n\n  function _emitUpdateEvent(address _collateralType) internal {\n    emit CollateralUpdated(\n      _collateralType,\n      _collateralConfigs[collateralIds[_collateralType]].debtLimit,\n      _collateralConfigs[collateralIds[_collateralType]].liquidationRatio,\n      _collateralConfigs[collateralIds[_collateralType]].minCollateralRatio,\n      _collateralConfigs[collateralIds[_collateralType]].borrowRate,\n      _collateralConfigs[collateralIds[_collateralType]].originationFee,\n      _collateralConfigs[collateralIds[_collateralType]].liquidationBonus,\n      _collateralConfigs[collateralIds[_collateralType]].liquidationFee\n    );\n  }\n\n  /**\n    Remove the config for a collateral type\n    @param _collateralType address of the collateral type\n  */\n  function removeCollateral(address _collateralType) public override onlyManager {\n    uint256 id = collateralIds[_collateralType];\n    require(id != 0, \"collateral does not exist\");\n\n    _collateralConfigs[id] = _collateralConfigs[numCollateralConfigs]; //move last entry forward\n    collateralIds[_collateralConfigs[id].collateralType] = id; //update id for last entry\n    delete _collateralConfigs[numCollateralConfigs]; // delete last entry\n    delete collateralIds[_collateralType];\n\n    numCollateralConfigs--;\n\n    emit CollateralRemoved(_collateralType);\n  }\n\n  /**\n    Sets the debt limit for a collateral type\n    @param _collateralType address of the collateral type\n    @param _debtLimit the new debt limit\n  */\n  function setCollateralDebtLimit(address _collateralType, uint256 _debtLimit) public override onlyManager {\n    _collateralConfigs[collateralIds[_collateralType]].debtLimit = _debtLimit;\n    _emitUpdateEvent(_collateralType);\n  }\n\n  /**\n    Sets the minimum liquidation ratio for a collateral type\n    @dev this is the liquidation treshold under which a vault is considered open for liquidation.\n    @param _collateralType address of the collateral type\n    @param _liquidationRatio the new minimum collateralization ratio\n  */\n  function setCollateralLiquidationRatio(address _collateralType, uint256 _liquidationRatio)\n    public\n    override\n    onlyManager\n  {\n    require(_liquidationRatio <= _collateralConfigs[collateralIds[_collateralType]].minCollateralRatio);\n    _collateralConfigs[collateralIds[_collateralType]].liquidationRatio = _liquidationRatio;\n    _emitUpdateEvent(_collateralType);\n  }\n\n  /**\n    Sets the minimum ratio for a collateral type for new borrowing or collateral withdrawal\n    @param _collateralType address of the collateral type\n    @param _minCollateralRatio the new minimum open ratio\n  */\n  function setCollateralMinCollateralRatio(address _collateralType, uint256 _minCollateralRatio)\n    public\n    override\n    onlyManager\n  {\n    require(_minCollateralRatio >= _collateralConfigs[collateralIds[_collateralType]].liquidationRatio);\n    _collateralConfigs[collateralIds[_collateralType]].minCollateralRatio = _minCollateralRatio;\n    _emitUpdateEvent(_collateralType);\n  }\n\n  /**\n    Sets the borrowing rate for a collateral type\n    @dev borrowing rate is specified for a 1 sec interval and accurancy is in RAY.\n    @param _collateralType address of the collateral type\n    @param _borrowRate the new borrowing rate for a 1 sec interval\n  */\n  function setCollateralBorrowRate(address _collateralType, uint256 _borrowRate) public override onlyManager {\n    a.core().state().refreshCollateral(_collateralType);\n    _collateralConfigs[collateralIds[_collateralType]].borrowRate = _borrowRate;\n    _emitUpdateEvent(_collateralType);\n  }\n\n  /**\n    Sets the origiation fee for a collateral type\n    @dev this rate is applied as a one time fee for new borrowing and is specified in WAD\n    @param _collateralType address of the collateral type\n    @param _originationFee new origination fee in WAD\n  */\n  function setCollateralOriginationFee(address _collateralType, uint256 _originationFee) public override onlyManager {\n    _collateralConfigs[collateralIds[_collateralType]].originationFee = _originationFee;\n    _emitUpdateEvent(_collateralType);\n  }\n\n  /**\n    Sets the liquidation bonus for a collateral type\n    @dev the liquidation bonus is specified in WAD\n    @param _collateralType address of the collateral type\n    @param _liquidationBonus the liquidation bonus to be paid to liquidators.\n  */\n  function setCollateralLiquidationBonus(address _collateralType, uint256 _liquidationBonus)\n    public\n    override\n    onlyManager\n  {\n    _collateralConfigs[collateralIds[_collateralType]].liquidationBonus = _liquidationBonus;\n    _emitUpdateEvent(_collateralType);\n  }\n\n  /**\n    Sets the liquidation fee for a collateral type\n    @dev this rate is applied as a fee for liquidation and is specified in WAD\n    @param _collateralType address of the collateral type\n    @param _liquidationFee new liquidation fee in WAD\n  */\n  function setCollateralLiquidationFee(address _collateralType, uint256 _liquidationFee) public override onlyManager {\n    require(_liquidationFee < 1e18); // fee < 100%\n    _collateralConfigs[collateralIds[_collateralType]].liquidationFee = _liquidationFee;\n    _emitUpdateEvent(_collateralType);\n  }\n\n  /**\n    Set the min voting period for a gov proposal.\n    @param _minVotingPeriod the min voting period for a gov proposal\n  */\n  function setMinVotingPeriod(uint256 _minVotingPeriod) public override onlyManager {\n    minVotingPeriod = _minVotingPeriod;\n  }\n\n  /**\n    Set the max voting period for a gov proposal.\n    @param _maxVotingPeriod the max voting period for a gov proposal\n  */\n  function setMaxVotingPeriod(uint256 _maxVotingPeriod) public override onlyManager {\n    maxVotingPeriod = _maxVotingPeriod;\n  }\n\n  /**\n    Set the voting quora for a gov proposal.\n    @param _votingQuorum the voting quora for a gov proposal\n  */\n  function setVotingQuorum(uint256 _votingQuorum) public override onlyManager {\n    require(_votingQuorum < 1e18);\n    votingQuorum = _votingQuorum;\n  }\n\n  /**\n    Set the proposal threshold for a gov proposal.\n    @param _proposalThreshold the proposal threshold for a gov proposal\n  */\n  function setProposalThreshold(uint256 _proposalThreshold) public override onlyManager {\n    require(_proposalThreshold < 1e18);\n    proposalThreshold = _proposalThreshold;\n  }\n\n  /**\n    Get the debt limit for a collateral type\n    @dev this is a platform wide limit for new debt issuance against a specific collateral type\n    @param _collateralType address of the collateral type\n  */\n  function collateralDebtLimit(address _collateralType) public view override returns (uint256) {\n    return _collateralConfigs[collateralIds[_collateralType]].debtLimit;\n  }\n\n  /**\n    Get the liquidation ratio that needs to be maintained for a collateral type to avoid liquidation.\n    @param _collateralType address of the collateral type\n  */\n  function collateralLiquidationRatio(address _collateralType) public view override returns (uint256) {\n    return _collateralConfigs[collateralIds[_collateralType]].liquidationRatio;\n  }\n\n  /**\n    Get the minimum collateralization ratio for a collateral type for new borrowing or collateral withdrawal.\n    @param _collateralType address of the collateral type\n  */\n  function collateralMinCollateralRatio(address _collateralType) public view override returns (uint256) {\n    return _collateralConfigs[collateralIds[_collateralType]].minCollateralRatio;\n  }\n\n  /**\n    Get the borrowing rate for a collateral type\n    @dev borrowing rate is specified for a 1 sec interval and accurancy is in RAY.\n    @param _collateralType address of the collateral type\n  */\n  function collateralBorrowRate(address _collateralType) public view override returns (uint256) {\n    return _collateralConfigs[collateralIds[_collateralType]].borrowRate;\n  }\n\n  /**\n    Get the origiation fee for a collateral type\n    @dev this rate is applied as a one time fee for new borrowing and is specified in WAD\n    @param _collateralType address of the collateral type\n  */\n  function collateralOriginationFee(address _collateralType) public view override returns (uint256) {\n    return _collateralConfigs[collateralIds[_collateralType]].originationFee;\n  }\n\n  /**\n    Get the liquidation bonus for a collateral type\n    @dev this rate is applied as a one time fee for new borrowing and is specified in WAD\n    @param _collateralType address of the collateral type\n  */\n  function collateralLiquidationBonus(address _collateralType) public view override returns (uint256) {\n    return _collateralConfigs[collateralIds[_collateralType]].liquidationBonus;\n  }\n\n  /**\n    Get the liquidation fee for a collateral type\n    @dev this rate is applied as a one time fee for new borrowing and is specified in WAD\n    @param _collateralType address of the collateral type\n  */\n  function collateralLiquidationFee(address _collateralType) public view override returns (uint256) {\n    return _collateralConfigs[collateralIds[_collateralType]].liquidationFee;\n  }\n\n  /**\n    Retreives the entire config for a specific config id.\n    @param _id the ID of the conifg to be returned\n  */\n  function collateralConfigs(uint256 _id) public view override returns (CollateralConfig memory) {\n    require(_id <= numCollateralConfigs, \"Invalid config id\");\n    return _collateralConfigs[_id];\n  }\n}\n",
  "sourcePath": "/home/mingyue/sub_contract_content/Web3Bugs/contracts/115/core/contracts/core/ConfigProvider.sol",
  "compiler": {
    "name": "solc",
    "version": "0.6.12+commit.27d51765.Emscripten.clang"
  },
  "schemaVersion": "3.4.7",
  "updatedAt": "2025-02-28T14:09:34.599Z",
  "devdoc": {
    "kind": "dev",
    "methods": {
      "collateralBorrowRate(address)": {
        "details": "borrowing rate is specified for a 1 sec interval and accurancy is in RAY.",
        "params": {
          "_collateralType": "address of the collateral type"
        }
      },
      "collateralConfigs(uint256)": {
        "params": {
          "_id": "the ID of the conifg to be returned"
        }
      },
      "collateralDebtLimit(address)": {
        "details": "this is a platform wide limit for new debt issuance against a specific collateral type",
        "params": {
          "_collateralType": "address of the collateral type"
        }
      },
      "collateralLiquidationBonus(address)": {
        "details": "this rate is applied as a one time fee for new borrowing and is specified in WAD",
        "params": {
          "_collateralType": "address of the collateral type"
        }
      },
      "collateralLiquidationFee(address)": {
        "details": "this rate is applied as a one time fee for new borrowing and is specified in WAD",
        "params": {
          "_collateralType": "address of the collateral type"
        }
      },
      "collateralLiquidationRatio(address)": {
        "params": {
          "_collateralType": "address of the collateral type"
        }
      },
      "collateralMinCollateralRatio(address)": {
        "params": {
          "_collateralType": "address of the collateral type"
        }
      },
      "collateralOriginationFee(address)": {
        "details": "this rate is applied as a one time fee for new borrowing and is specified in WAD",
        "params": {
          "_collateralType": "address of the collateral type"
        }
      },
      "removeCollateral(address)": {
        "params": {
          "_collateralType": "address of the collateral type"
        }
      },
      "setCollateralBorrowRate(address,uint256)": {
        "details": "borrowing rate is specified for a 1 sec interval and accurancy is in RAY.",
        "params": {
          "_borrowRate": "the new borrowing rate for a 1 sec interval",
          "_collateralType": "address of the collateral type"
        }
      },
      "setCollateralConfig(address,uint256,uint256,uint256,uint256,uint256,uint256,uint256)": {
        "params": {
          "_borrowRate": "the borrowing rate specified in 1 second interval in RAY accuracy.",
          "_collateralType": "address of the collateral type",
          "_debtLimit": "the debt ceiling for the collateral type",
          "_liquidationBonus": "the liquidation bonus to be paid to liquidators.",
          "_liquidationFee": "an optional fee for liquidation debt. Can be 0.",
          "_liquidationRatio": "the minimum ratio to maintain to avoid liquidation",
          "_minCollateralRatio": "the minimum ratio to maintain to borrow new money or withdraw collateral",
          "_originationFee": "an optional origination fee for newly created debt. Can be 0."
        }
      },
      "setCollateralDebtLimit(address,uint256)": {
        "params": {
          "_collateralType": "address of the collateral type",
          "_debtLimit": "the new debt limit"
        }
      },
      "setCollateralLiquidationBonus(address,uint256)": {
        "details": "the liquidation bonus is specified in WAD",
        "params": {
          "_collateralType": "address of the collateral type",
          "_liquidationBonus": "the liquidation bonus to be paid to liquidators."
        }
      },
      "setCollateralLiquidationFee(address,uint256)": {
        "details": "this rate is applied as a fee for liquidation and is specified in WAD",
        "params": {
          "_collateralType": "address of the collateral type",
          "_liquidationFee": "new liquidation fee in WAD"
        }
      },
      "setCollateralLiquidationRatio(address,uint256)": {
        "details": "this is the liquidation treshold under which a vault is considered open for liquidation.",
        "params": {
          "_collateralType": "address of the collateral type",
          "_liquidationRatio": "the new minimum collateralization ratio"
        }
      },
      "setCollateralMinCollateralRatio(address,uint256)": {
        "params": {
          "_collateralType": "address of the collateral type",
          "_minCollateralRatio": "the new minimum open ratio"
        }
      },
      "setCollateralOriginationFee(address,uint256)": {
        "details": "this rate is applied as a one time fee for new borrowing and is specified in WAD",
        "params": {
          "_collateralType": "address of the collateral type",
          "_originationFee": "new origination fee in WAD"
        }
      },
      "setMaxVotingPeriod(uint256)": {
        "params": {
          "_maxVotingPeriod": "the max voting period for a gov proposal"
        }
      },
      "setMinVotingPeriod(uint256)": {
        "params": {
          "_minVotingPeriod": "the min voting period for a gov proposal"
        }
      },
      "setProposalThreshold(uint256)": {
        "params": {
          "_proposalThreshold": "the proposal threshold for a gov proposal"
        }
      },
      "setVotingQuorum(uint256)": {
        "params": {
          "_votingQuorum": "the voting quora for a gov proposal"
        }
      }
    },
    "version": 1
  },
  "userdoc": {
    "kind": "user",
    "methods": {
      "collateralBorrowRate(address)": {
        "notice": "Get the borrowing rate for a collateral type"
      },
      "collateralConfigs(uint256)": {
        "notice": "Retreives the entire config for a specific config id."
      },
      "collateralDebtLimit(address)": {
        "notice": "Get the debt limit for a collateral type"
      },
      "collateralLiquidationBonus(address)": {
        "notice": "Get the liquidation bonus for a collateral type"
      },
      "collateralLiquidationFee(address)": {
        "notice": "Get the liquidation fee for a collateral type"
      },
      "collateralLiquidationRatio(address)": {
        "notice": "Get the liquidation ratio that needs to be maintained for a collateral type to avoid liquidation."
      },
      "collateralMinCollateralRatio(address)": {
        "notice": "Get the minimum collateralization ratio for a collateral type for new borrowing or collateral withdrawal."
      },
      "collateralOriginationFee(address)": {
        "notice": "Get the origiation fee for a collateral type"
      },
      "maxVotingPeriod()": {
        "notice": "The max duration of voting on a proposal, in seconds"
      },
      "minVotingPeriod()": {
        "notice": "The minimum duration of voting on a proposal, in seconds"
      },
      "proposalThreshold()": {
        "notice": "The percentage of votes required in order for a voter to become a proposer"
      },
      "removeCollateral(address)": {
        "notice": "Remove the config for a collateral type"
      },
      "setCollateralBorrowRate(address,uint256)": {
        "notice": "Sets the borrowing rate for a collateral type"
      },
      "setCollateralConfig(address,uint256,uint256,uint256,uint256,uint256,uint256,uint256)": {
        "notice": "Creates or overwrites an existing config for a collateral type"
      },
      "setCollateralDebtLimit(address,uint256)": {
        "notice": "Sets the debt limit for a collateral type"
      },
      "setCollateralLiquidationBonus(address,uint256)": {
        "notice": "Sets the liquidation bonus for a collateral type"
      },
      "setCollateralLiquidationFee(address,uint256)": {
        "notice": "Sets the liquidation fee for a collateral type"
      },
      "setCollateralLiquidationRatio(address,uint256)": {
        "notice": "Sets the minimum liquidation ratio for a collateral type"
      },
      "setCollateralMinCollateralRatio(address,uint256)": {
        "notice": "Sets the minimum ratio for a collateral type for new borrowing or collateral withdrawal"
      },
      "setCollateralOriginationFee(address,uint256)": {
        "notice": "Sets the origiation fee for a collateral type"
      },
      "setMaxVotingPeriod(uint256)": {
        "notice": "Set the max voting period for a gov proposal."
      },
      "setMinVotingPeriod(uint256)": {
        "notice": "Set the min voting period for a gov proposal."
      },
      "setProposalThreshold(uint256)": {
        "notice": "Set the proposal threshold for a gov proposal."
      },
      "setVotingQuorum(uint256)": {
        "notice": "Set the voting quora for a gov proposal."
      },
      "votingQuorum()": {
        "notice": "The percentage of votes in support of a proposal required in order for a quorum to be reached and for a proposal to succeed"
      }
    },
    "version": 1
  }
}