{
  "contractName": "ConfigProviderV1",
  "abi": [
    {
      "inputs": [
        {
          "internalType": "contract IAddressProviderV1",
          "name": "_addresses",
          "type": "address"
        }
      ],
      "stateMutability": "nonpayable",
      "type": "constructor"
    },
    {
      "anonymous": false,
      "inputs": [
        {
          "indexed": true,
          "internalType": "address",
          "name": "collateralType",
          "type": "address"
        }
      ],
      "name": "CollateralRemoved",
      "type": "event"
    },
    {
      "anonymous": false,
      "inputs": [
        {
          "indexed": true,
          "internalType": "address",
          "name": "collateralType",
          "type": "address"
        },
        {
          "indexed": false,
          "internalType": "uint256",
          "name": "debtLimit",
          "type": "uint256"
        },
        {
          "indexed": false,
          "internalType": "uint256",
          "name": "minCollateralRatio",
          "type": "uint256"
        },
        {
          "indexed": false,
          "internalType": "uint256",
          "name": "borrowRate",
          "type": "uint256"
        },
        {
          "indexed": false,
          "internalType": "uint256",
          "name": "originationFee",
          "type": "uint256"
        }
      ],
      "name": "CollateralUpdated",
      "type": "event"
    },
    {
      "inputs": [],
      "name": "a",
      "outputs": [
        {
          "internalType": "contract IAddressProviderV1",
          "name": "",
          "type": "address"
        }
      ],
      "stateMutability": "view",
      "type": "function"
    },
    {
      "inputs": [
        {
          "internalType": "address",
          "name": "",
          "type": "address"
        }
      ],
      "name": "collateralIds",
      "outputs": [
        {
          "internalType": "uint256",
          "name": "",
          "type": "uint256"
        }
      ],
      "stateMutability": "view",
      "type": "function"
    },
    {
      "inputs": [],
      "name": "liquidationBonus",
      "outputs": [
        {
          "internalType": "uint256",
          "name": "",
          "type": "uint256"
        }
      ],
      "stateMutability": "view",
      "type": "function"
    },
    {
      "inputs": [],
      "name": "numCollateralConfigs",
      "outputs": [
        {
          "internalType": "uint256",
          "name": "",
          "type": "uint256"
        }
      ],
      "stateMutability": "view",
      "type": "function"
    },
    {
      "inputs": [
        {
          "internalType": "address",
          "name": "_collateralType",
          "type": "address"
        },
        {
          "internalType": "uint256",
          "name": "_debtLimit",
          "type": "uint256"
        },
        {
          "internalType": "uint256",
          "name": "_minCollateralRatio",
          "type": "uint256"
        },
        {
          "internalType": "uint256",
          "name": "_borrowRate",
          "type": "uint256"
        },
        {
          "internalType": "uint256",
          "name": "_originationFee",
          "type": "uint256"
        }
      ],
      "name": "setCollateralConfig",
      "outputs": [],
      "stateMutability": "nonpayable",
      "type": "function"
    },
    {
      "inputs": [
        {
          "internalType": "address",
          "name": "_collateralType",
          "type": "address"
        }
      ],
      "name": "removeCollateral",
      "outputs": [],
      "stateMutability": "nonpayable",
      "type": "function"
    },
    {
      "inputs": [
        {
          "internalType": "address",
          "name": "_collateralType",
          "type": "address"
        },
        {
          "internalType": "uint256",
          "name": "_debtLimit",
          "type": "uint256"
        }
      ],
      "name": "setCollateralDebtLimit",
      "outputs": [],
      "stateMutability": "nonpayable",
      "type": "function"
    },
    {
      "inputs": [
        {
          "internalType": "address",
          "name": "_collateralType",
          "type": "address"
        },
        {
          "internalType": "uint256",
          "name": "_minCollateralRatio",
          "type": "uint256"
        }
      ],
      "name": "setCollateralMinCollateralRatio",
      "outputs": [],
      "stateMutability": "nonpayable",
      "type": "function"
    },
    {
      "inputs": [
        {
          "internalType": "address",
          "name": "_collateralType",
          "type": "address"
        },
        {
          "internalType": "uint256",
          "name": "_borrowRate",
          "type": "uint256"
        }
      ],
      "name": "setCollateralBorrowRate",
      "outputs": [],
      "stateMutability": "nonpayable",
      "type": "function"
    },
    {
      "inputs": [
        {
          "internalType": "address",
          "name": "_collateralType",
          "type": "address"
        },
        {
          "internalType": "uint256",
          "name": "_originationFee",
          "type": "uint256"
        }
      ],
      "name": "setCollateralOriginationFee",
      "outputs": [],
      "stateMutability": "nonpayable",
      "type": "function"
    },
    {
      "inputs": [
        {
          "internalType": "address",
          "name": "_collateralType",
          "type": "address"
        }
      ],
      "name": "collateralDebtLimit",
      "outputs": [
        {
          "internalType": "uint256",
          "name": "",
          "type": "uint256"
        }
      ],
      "stateMutability": "view",
      "type": "function"
    },
    {
      "inputs": [
        {
          "internalType": "address",
          "name": "_collateralType",
          "type": "address"
        }
      ],
      "name": "collateralMinCollateralRatio",
      "outputs": [
        {
          "internalType": "uint256",
          "name": "",
          "type": "uint256"
        }
      ],
      "stateMutability": "view",
      "type": "function"
    },
    {
      "inputs": [
        {
          "internalType": "address",
          "name": "_collateralType",
          "type": "address"
        }
      ],
      "name": "collateralBorrowRate",
      "outputs": [
        {
          "internalType": "uint256",
          "name": "",
          "type": "uint256"
        }
      ],
      "stateMutability": "view",
      "type": "function"
    },
    {
      "inputs": [
        {
          "internalType": "address",
          "name": "_collateralType",
          "type": "address"
        }
      ],
      "name": "collateralOriginationFee",
      "outputs": [
        {
          "internalType": "uint256",
          "name": "",
          "type": "uint256"
        }
      ],
      "stateMutability": "view",
      "type": "function"
    },
    {
      "inputs": [
        {
          "internalType": "uint256",
          "name": "_bonus",
          "type": "uint256"
        }
      ],
      "name": "setLiquidationBonus",
      "outputs": [],
      "stateMutability": "nonpayable",
      "type": "function"
    },
    {
      "inputs": [
        {
          "internalType": "uint256",
          "name": "_id",
          "type": "uint256"
        }
      ],
      "name": "collateralConfigs",
      "outputs": [
        {
          "components": [
            {
              "internalType": "address",
              "name": "collateralType",
              "type": "address"
            },
            {
              "internalType": "uint256",
              "name": "debtLimit",
              "type": "uint256"
            },
            {
              "internalType": "uint256",
              "name": "minCollateralRatio",
              "type": "uint256"
            },
            {
              "internalType": "uint256",
              "name": "borrowRate",
              "type": "uint256"
            },
            {
              "internalType": "uint256",
              "name": "originationFee",
              "type": "uint256"
            }
          ],
          "internalType": "struct IConfigProviderV1.CollateralConfig",
          "name": "",
          "type": "tuple"
        }
      ],
      "stateMutability": "view",
      "type": "function"
    }
  ],
  "bytecode": "0x608060405266b1a2bc2ec5000060045534801561001b57600080fd5b50604051611bca380380611bca83398101604081905261003a9161005f565b600080546001600160a01b0319166001600160a01b039290921691909117905561008d565b600060208284031215610070578081fd5b81516001600160a01b0381168114610086578182fd5b9392505050565b611b2e8061009c6000396000f3fe608060405234801561001057600080fd5b50600436106101005760003560e01c806399969dd111610097578063c99d3a0611610066578063c99d3a0614610205578063d47e470d14610218578063db67c4d514610220578063e4ea33ef1461023357610100565b806399969dd1146101b9578063b6784e3c146101cc578063c043322e146101df578063c12d47fc146101f257610100565b80635dd697dc116100d35780635dd697dc1461016b5780637b7c1f4c1461018b5780638a70473b146101935780638a98b12d146101a657610100565b80630dbe671f146101055780631accc06a1461012357806328842d4f146101385780634a6e0dd01461014b575b600080fd5b61010d610246565b60405161011a91906119ba565b60405180910390f35b6101366101313660046118e0565b610255565b005b6101366101463660046119a2565b6104a6565b61015e6101593660046119a2565b6106bb565b60405161011a9190611a7e565b61017e6101793660046118bd565b61073c565b60405161011a9190611abc565b61017e610767565b61017e6101a13660046118bd565b61076d565b61017e6101b43660046118bd565b610797565b6101366101c73660046118e0565b6107c2565b6101366101da3660046118e0565b610ae7565b6101366101ed36600461190b565b610d2b565b6101366102003660046118e0565b61126d565b6101366102133660046118bd565b6114b0565b61017e6117cd565b61017e61022e3660046118bd565b6117d3565b61017e6102413660046118bd565b6117e5565b6000546001600160a01b031681565b60008054906101000a90046001600160a01b03166001600160a01b031663f77c47916040518163ffffffff1660e01b815260040160206040518083038186803b1580156102a157600080fd5b505afa1580156102b5573d6000803e3d6000fd5b505050506040513d601f19601f820116820180604052508101906102d99190611986565b6001600160a01b03166391d1485460008054906101000a90046001600160a01b03166001600160a01b031663f77c47916040518163ffffffff1660e01b815260040160206040518083038186803b15801561033357600080fd5b505afa158015610347573d6000803e3d6000fd5b505050506040513d601f19601f8201168201806040525081019061036b9190611986565b6001600160a01b031663ec87621c6040518163ffffffff1660e01b815260040160206040518083038186803b1580156103a357600080fd5b505afa1580156103b7573d6000803e3d6000fd5b505050506040513d601f19601f820116820180604052508101906103db919061196e565b336040518363ffffffff1660e01b81526004016103f99291906119ce565b60206040518083038186803b15801561041157600080fd5b505afa158015610425573d6000803e3d6000fd5b505050506040513d601f19601f82011682018060405250810190610449919061194e565b61046e5760405162461bcd60e51b815260040161046590611a47565b60405180910390fd5b6001600160a01b0382166000908152600260209081526040808320548352600191829052909120018190556104a282611810565b5050565b60008054906101000a90046001600160a01b03166001600160a01b031663f77c47916040518163ffffffff1660e01b815260040160206040518083038186803b1580156104f257600080fd5b505afa158015610506573d6000803e3d6000fd5b505050506040513d601f19601f8201168201806040525081019061052a9190611986565b6001600160a01b03166391d1485460008054906101000a90046001600160a01b03166001600160a01b031663f77c47916040518163ffffffff1660e01b815260040160206040518083038186803b15801561058457600080fd5b505afa158015610598573d6000803e3d6000fd5b505050506040513d601f19601f820116820180604052508101906105bc9190611986565b6001600160a01b031663ec87621c6040518163ffffffff1660e01b815260040160206040518083038186803b1580156105f457600080fd5b505afa158015610608573d6000803e3d6000fd5b505050506040513d601f19601f8201168201806040525081019061062c919061196e565b336040518363ffffffff1660e01b815260040161064a9291906119ce565b60206040518083038186803b15801561066257600080fd5b505afa158015610676573d6000803e3d6000fd5b505050506040513d601f19601f8201168201806040525081019061069a919061194e565b6106b65760405162461bcd60e51b815260040161046590611a47565b600455565b6106c3611885565b6003548211156106e55760405162461bcd60e51b815260040161046590611a1c565b50600090815260016020818152604092839020835160a08101855281546001600160a01b03168152928101549183019190915260028101549282019290925260038201546060820152600490910154608082015290565b6001600160a01b03166000908152600260209081526040808320548352600190915290206004015490565b60045481565b6001600160a01b031660009081526002602081815260408084205484526001909152909120015490565b6001600160a01b03166000908152600260209081526040808320548352600191829052909120015490565b60008054906101000a90046001600160a01b03166001600160a01b031663f77c47916040518163ffffffff1660e01b815260040160206040518083038186803b15801561080e57600080fd5b505afa158015610822573d6000803e3d6000fd5b505050506040513d601f19601f820116820180604052508101906108469190611986565b6001600160a01b03166391d1485460008054906101000a90046001600160a01b03166001600160a01b031663f77c47916040518163ffffffff1660e01b815260040160206040518083038186803b1580156108a057600080fd5b505afa1580156108b4573d6000803e3d6000fd5b505050506040513d601f19601f820116820180604052508101906108d89190611986565b6001600160a01b031663ec87621c6040518163ffffffff1660e01b815260040160206040518083038186803b15801561091057600080fd5b505afa158015610924573d6000803e3d6000fd5b505050506040513d601f19601f82011682018060405250810190610948919061196e565b336040518363ffffffff1660e01b81526004016109669291906119ce565b60206040518083038186803b15801561097e57600080fd5b505afa158015610992573d6000803e3d6000fd5b505050506040513d601f19601f820116820180604052508101906109b6919061194e565b6109d25760405162461bcd60e51b815260040161046590611a47565b60008054906101000a90046001600160a01b03166001600160a01b031663f2f4eb266040518163ffffffff1660e01b815260040160206040518083038186803b158015610a1e57600080fd5b505afa158015610a32573d6000803e3d6000fd5b505050506040513d601f19601f82011682018060405250810190610a569190611986565b6001600160a01b031663fe042ceb836040518263ffffffff1660e01b8152600401610a8191906119ba565b600060405180830381600087803b158015610a9b57600080fd5b505af1158015610aaf573d6000803e3d6000fd5b5050506001600160a01b038316600090815260026020908152604080832054835260019091529020600301829055506104a282611810565b60008054906101000a90046001600160a01b03166001600160a01b031663f77c47916040518163ffffffff1660e01b815260040160206040518083038186803b158015610b3357600080fd5b505afa158015610b47573d6000803e3d6000fd5b505050506040513d601f19601f82011682018060405250810190610b6b9190611986565b6001600160a01b03166391d1485460008054906101000a90046001600160a01b03166001600160a01b031663f77c47916040518163ffffffff1660e01b815260040160206040518083038186803b158015610bc557600080fd5b505afa158015610bd9573d6000803e3d6000fd5b505050506040513d601f19601f82011682018060405250810190610bfd9190611986565b6001600160a01b031663ec87621c6040518163ffffffff1660e01b815260040160206040518083038186803b158015610c3557600080fd5b505afa158015610c49573d6000803e3d6000fd5b505050506040513d601f19601f82011682018060405250810190610c6d919061196e565b336040518363ffffffff1660e01b8152600401610c8b9291906119ce565b60206040518083038186803b158015610ca357600080fd5b505afa158015610cb7573d6000803e3d6000fd5b505050506040513d601f19601f82011682018060405250810190610cdb919061194e565b610cf75760405162461bcd60e51b815260040161046590611a47565b6001600160a01b0382166000908152600260209081526040808320548352600190915290206004018190556104a282611810565b60008054906101000a90046001600160a01b03166001600160a01b031663f77c47916040518163ffffffff1660e01b815260040160206040518083038186803b158015610d7757600080fd5b505afa158015610d8b573d6000803e3d6000fd5b505050506040513d601f19601f82011682018060405250810190610daf9190611986565b6001600160a01b03166391d1485460008054906101000a90046001600160a01b03166001600160a01b031663f77c47916040518163ffffffff1660e01b815260040160206040518083038186803b158015610e0957600080fd5b505afa158015610e1d573d6000803e3d6000fd5b505050506040513d601f19601f82011682018060405250810190610e419190611986565b6001600160a01b031663ec87621c6040518163ffffffff1660e01b815260040160206040518083038186803b158015610e7957600080fd5b505afa158015610e8d573d6000803e3d6000fd5b505050506040513d601f19601f82011682018060405250810190610eb1919061196e565b336040518363ffffffff1660e01b8152600401610ecf9291906119ce565b60206040518083038186803b158015610ee757600080fd5b505afa158015610efb573d6000803e3d6000fd5b505050506040513d601f19601f82011682018060405250810190610f1f919061194e565b610f3b5760405162461bcd60e51b815260040161046590611a47565b6001600160a01b038516610f4e57600080fd5b6001600160a01b0385166000908152600260205260409020546110ed5760008054906101000a90046001600160a01b03166001600160a01b031663f2f4eb266040518163ffffffff1660e01b815260040160206040518083038186803b158015610fb757600080fd5b505afa158015610fcb573d6000803e3d6000fd5b505050506040513d601f19601f82011682018060405250810190610fef9190611986565b6001600160a01b03166376b8de6a866040518263ffffffff1660e01b815260040161101a91906119ba565b600060405180830381600087803b15801561103457600080fd5b505af1158015611048573d6000803e3d6000fd5b50505050611054611885565b506040805160a0810182526001600160a01b038781168083526020808401898152848601898152606086018981526080870189815260038054600190810180835560009081528188528b81209a518b546001600160a01b0319169a16999099178a55945194890194909455915160028089019190915590518784015590516004909601959095555491835292909252919091205561121f565b60008054906101000a90046001600160a01b03166001600160a01b031663f2f4eb266040518163ffffffff1660e01b815260040160206040518083038186803b15801561113957600080fd5b505afa15801561114d573d6000803e3d6000fd5b505050506040513d601f19601f820116820180604052508101906111719190611986565b6001600160a01b031663fe042ceb866040518263ffffffff1660e01b815260040161119c91906119ba565b600060405180830381600087803b1580156111b657600080fd5b505af11580156111ca573d6000803e3d6000fd5b5050506001600160a01b038616600081815260026020818152604080842054845260019182905290922080546001600160a01b0319169093178355908201879055810185905560038101849055600401829055505b846001600160a01b03167fba550c2ba773e0c78ca3a803d336f09fdfb9298fcfe9023ae7d78ee392263dd48585858560405161125e9493929190611ac5565b60405180910390a25050505050565b60008054906101000a90046001600160a01b03166001600160a01b031663f77c47916040518163ffffffff1660e01b815260040160206040518083038186803b1580156112b957600080fd5b505afa1580156112cd573d6000803e3d6000fd5b505050506040513d601f19601f820116820180604052508101906112f19190611986565b6001600160a01b03166391d1485460008054906101000a90046001600160a01b03166001600160a01b031663f77c47916040518163ffffffff1660e01b815260040160206040518083038186803b15801561134b57600080fd5b505afa15801561135f573d6000803e3d6000fd5b505050506040513d601f19601f820116820180604052508101906113839190611986565b6001600160a01b031663ec87621c6040518163ffffffff1660e01b815260040160206040518083038186803b1580156113bb57600080fd5b505afa1580156113cf573d6000803e3d6000fd5b505050506040513d601f19601f820116820180604052508101906113f3919061196e565b336040518363ffffffff1660e01b81526004016114119291906119ce565b60206040518083038186803b15801561142957600080fd5b505afa15801561143d573d6000803e3d6000fd5b505050506040513d601f19601f82011682018060405250810190611461919061194e565b61147d5760405162461bcd60e51b815260040161046590611a47565b6001600160a01b03821660009081526002602081815260408084205484526001909152909120018190556104a282611810565b60008054906101000a90046001600160a01b03166001600160a01b031663f77c47916040518163ffffffff1660e01b815260040160206040518083038186803b1580156114fc57600080fd5b505afa158015611510573d6000803e3d6000fd5b505050506040513d601f19601f820116820180604052508101906115349190611986565b6001600160a01b03166391d1485460008054906101000a90046001600160a01b03166001600160a01b031663f77c47916040518163ffffffff1660e01b815260040160206040518083038186803b15801561158e57600080fd5b505afa1580156115a2573d6000803e3d6000fd5b505050506040513d601f19601f820116820180604052508101906115c69190611986565b6001600160a01b031663ec87621c6040518163ffffffff1660e01b815260040160206040518083038186803b1580156115fe57600080fd5b505afa158015611612573d6000803e3d6000fd5b505050506040513d601f19601f82011682018060405250810190611636919061196e565b336040518363ffffffff1660e01b81526004016116549291906119ce565b60206040518083038186803b15801561166c57600080fd5b505afa158015611680573d6000803e3d6000fd5b505050506040513d601f19601f820116820180604052508101906116a4919061194e565b6116c05760405162461bcd60e51b815260040161046590611a47565b6001600160a01b038116600090815260026020526040902054806116f65760405162461bcd60e51b8152600401610465906119e5565b6001600160a01b038281166000818152600260208181526040808420849055600380548552600180845282862089875283872081548154908b166001600160a01b031991821617808355838501548386015583890154838a0155838601548387015560049384015492840192909255991687528585528387208a9055825487529381905282862080549098168855870185905592860184905585830184905594018290558054600019019055915190917fd89d2ee68ab04dca0193f48a4aff55e20fa5ec0429a8a8c1c51b8dad6178a59391a25050565b60035481565b60026020526000908152604090205481565b6001600160a01b03166000908152600260209081526040808320548352600190915290206003015490565b6001600160a01b0381166000818152600260208181526040808420548452600191829052928390209081015491810154600382015460049092015493517fba550c2ba773e0c78ca3a803d336f09fdfb9298fcfe9023ae7d78ee392263dd49461187a949391611ac5565b60405180910390a250565b6040518060a0016040528060006001600160a01b03168152602001600081526020016000815260200160008152602001600081525090565b6000602082840312156118ce578081fd5b81356118d981611ae0565b9392505050565b600080604083850312156118f2578081fd5b82356118fd81611ae0565b946020939093013593505050565b600080600080600060a08688031215611922578081fd5b853561192d81611ae0565b97602087013597506040870135966060810135965060800135945092505050565b60006020828403121561195f578081fd5b815180151581146118d9578182fd5b60006020828403121561197f578081fd5b5051919050565b600060208284031215611997578081fd5b81516118d981611ae0565b6000602082840312156119b3578081fd5b5035919050565b6001600160a01b0391909116815260200190565b9182526001600160a01b0316602082015260400190565b60208082526019908201527f636f6c6c61746572616c20646f6573206e6f7420657869737400000000000000604082015260600190565b602080825260119082015270125b9d985b1a590818dbdb999a59c81a59607a1b604082015260600190565b60208082526017908201527f43616c6c6572206973206e6f742061204d616e61676572000000000000000000604082015260600190565b81516001600160a01b031681526020808301519082015260408083015190820152606080830151908201526080918201519181019190915260a00190565b90815260200190565b93845260208401929092526040830152606082015260800190565b6001600160a01b0381168114611af557600080fd5b5056fea26469706673582212205561440908711580d6e7f956c3acd825784d1c8f1fe9e17507cbe9f8a47c687864736f6c634300060c0033",
  "immutableReferences": {},
  "source": "// SPDX-License-Identifier: MIT\n\npragma experimental ABIEncoderV2;\npragma solidity 0.6.12;\n\nimport \"../libraries/WadRayMath.sol\";\nimport \"./interfaces/IConfigProviderV1.sol\";\nimport \"./interfaces/IAddressProviderV1.sol\";\nimport \"./interfaces/IVaultsCoreV1.sol\";\n\ncontract ConfigProviderV1 is IConfigProviderV1 {\n  IAddressProviderV1 public override a;\n\n  mapping(uint256 => CollateralConfig) private _collateralConfigs; //indexing starts at 1\n  mapping(address => uint256) public override collateralIds;\n\n  uint256 public override numCollateralConfigs;\n  uint256 public override liquidationBonus = 5e16; // 5%\n\n  constructor(IAddressProviderV1 _addresses) public {\n    a = _addresses;\n  }\n\n  modifier onlyManager() {\n    require(a.controller().hasRole(a.controller().MANAGER_ROLE(), msg.sender), \"Caller is not a Manager\");\n    _;\n  }\n\n  /**\n    Creates or overwrites an existing config for a collateral type\n    @param _collateralType address of the collateral type\n    @param _debtLimit the debt ceiling for the collateral type\n    @param _minCollateralRatio the minimum ratio to maintain to avoid liquidation\n    @param _borrowRate the borrowing rate specified in 1 second interval in RAY accuracy.\n    @param _originationFee an optional origination fee for newly created debt. Can be 0.\n  */\n  function setCollateralConfig(\n    address _collateralType,\n    uint256 _debtLimit,\n    uint256 _minCollateralRatio,\n    uint256 _borrowRate,\n    uint256 _originationFee\n  ) public override onlyManager {\n    require(address(_collateralType) != address(0));\n    if (collateralIds[_collateralType] == 0) {\n      //new collateral\n      IVaultsCoreV1(address(a.core())).initializeRates(_collateralType);\n      CollateralConfig memory config = CollateralConfig({\n        collateralType: _collateralType,\n        debtLimit: _debtLimit,\n        minCollateralRatio: _minCollateralRatio,\n        borrowRate: _borrowRate,\n        originationFee: _originationFee\n      });\n\n      numCollateralConfigs++;\n      _collateralConfigs[numCollateralConfigs] = config;\n      collateralIds[_collateralType] = numCollateralConfigs;\n    } else {\n      // Update collateral config\n      IVaultsCoreV1(address(a.core())).refreshCollateral(_collateralType);\n      uint256 id = collateralIds[_collateralType];\n\n      _collateralConfigs[id].collateralType = _collateralType;\n      _collateralConfigs[id].debtLimit = _debtLimit;\n      _collateralConfigs[id].minCollateralRatio = _minCollateralRatio;\n      _collateralConfigs[id].borrowRate = _borrowRate;\n      _collateralConfigs[id].originationFee = _originationFee;\n    }\n    emit CollateralUpdated(_collateralType, _debtLimit, _minCollateralRatio, _borrowRate, _originationFee);\n  }\n\n  function _emitUpdateEvent(address _collateralType) internal {\n    emit CollateralUpdated(\n      _collateralType,\n      _collateralConfigs[collateralIds[_collateralType]].debtLimit,\n      _collateralConfigs[collateralIds[_collateralType]].minCollateralRatio,\n      _collateralConfigs[collateralIds[_collateralType]].borrowRate,\n      _collateralConfigs[collateralIds[_collateralType]].originationFee\n    );\n  }\n\n  /**\n    Remove the config for a collateral type\n    @param _collateralType address of the collateral type\n  */\n  function removeCollateral(address _collateralType) public override onlyManager {\n    uint256 id = collateralIds[_collateralType];\n    require(id != 0, \"collateral does not exist\");\n\n    collateralIds[_collateralType] = 0;\n\n    _collateralConfigs[id] = _collateralConfigs[numCollateralConfigs]; //move last entry forward\n    collateralIds[_collateralConfigs[id].collateralType] = id; //update id for last entry\n    delete _collateralConfigs[numCollateralConfigs];\n    numCollateralConfigs--;\n\n    emit CollateralRemoved(_collateralType);\n  }\n\n  /**\n    Sets the debt limit for a collateral type\n    @param _collateralType address of the collateral type\n    @param _debtLimit the new debt limit\n  */\n  function setCollateralDebtLimit(address _collateralType, uint256 _debtLimit) public override onlyManager {\n    _collateralConfigs[collateralIds[_collateralType]].debtLimit = _debtLimit;\n    _emitUpdateEvent(_collateralType);\n  }\n\n  /**\n    Sets the minimum collateralization ratio for a collateral type\n    @dev this is the liquidation treshold under which a vault is considered open for liquidation.\n    @param _collateralType address of the collateral type\n    @param _minCollateralRatio the new minimum collateralization ratio\n  */\n  function setCollateralMinCollateralRatio(address _collateralType, uint256 _minCollateralRatio)\n    public\n    override\n    onlyManager\n  {\n    _collateralConfigs[collateralIds[_collateralType]].minCollateralRatio = _minCollateralRatio;\n    _emitUpdateEvent(_collateralType);\n  }\n\n  /**\n    Sets the borrowing rate for a collateral type\n    @dev borrowing rate is specified for a 1 sec interval and accurancy is in RAY.\n    @param _collateralType address of the collateral type\n    @param _borrowRate the new borrowing rate for a 1 sec interval\n  */\n  function setCollateralBorrowRate(address _collateralType, uint256 _borrowRate) public override onlyManager {\n    IVaultsCoreV1(address(a.core())).refreshCollateral(_collateralType);\n    _collateralConfigs[collateralIds[_collateralType]].borrowRate = _borrowRate;\n    _emitUpdateEvent(_collateralType);\n  }\n\n  /**\n    Sets the origiation fee for a collateral type\n    @dev this rate is applied as a one time fee for new borrowing and is specified in WAD\n    @param _collateralType address of the collateral type\n    @param _originationFee new origination fee in WAD\n  */\n  function setCollateralOriginationFee(address _collateralType, uint256 _originationFee) public override onlyManager {\n    _collateralConfigs[collateralIds[_collateralType]].originationFee = _originationFee;\n    _emitUpdateEvent(_collateralType);\n  }\n\n  /**\n    Get the debt limit for a collateral type\n    @dev this is a platform wide limit for new debt issuance against a specific collateral type\n    @param _collateralType address of the collateral type\n  */\n  function collateralDebtLimit(address _collateralType) public view override returns (uint256) {\n    return _collateralConfigs[collateralIds[_collateralType]].debtLimit;\n  }\n\n  /**\n    Get the minimum collateralization ratio for a collateral type\n    @dev this is the liquidation treshold under which a vault is considered open for liquidation.\n    @param _collateralType address of the collateral type\n  */\n  function collateralMinCollateralRatio(address _collateralType) public view override returns (uint256) {\n    return _collateralConfigs[collateralIds[_collateralType]].minCollateralRatio;\n  }\n\n  /**\n    Get the borrowing rate for a collateral type\n    @dev borrowing rate is specified for a 1 sec interval and accurancy is in RAY.\n    @param _collateralType address of the collateral type\n  */\n  function collateralBorrowRate(address _collateralType) public view override returns (uint256) {\n    return _collateralConfigs[collateralIds[_collateralType]].borrowRate;\n  }\n\n  /**\n    Get the origiation fee for a collateral type\n    @dev this rate is applied as a one time fee for new borrowing and is specified in WAD\n    @param _collateralType address of the collateral type\n  */\n  function collateralOriginationFee(address _collateralType) public view override returns (uint256) {\n    return _collateralConfigs[collateralIds[_collateralType]].originationFee;\n  }\n\n  /**\n    Set the platform wide incentive for liquidations.\n    @dev the liquidation bonus is specified in WAD\n    @param _bonus the liquidation bonus to be paid to liquidators\n  */\n  function setLiquidationBonus(uint256 _bonus) public override onlyManager {\n    liquidationBonus = _bonus;\n  }\n\n  /**\n    Retreives the entire config for a specific config id.\n    @param _id the ID of the conifg to be returned\n  */\n  function collateralConfigs(uint256 _id) public view override returns (CollateralConfig memory) {\n    require(_id <= numCollateralConfigs, \"Invalid config id\");\n    return _collateralConfigs[_id];\n  }\n}\n",
  "sourcePath": "/home/mingyue/sub_contract_content/Web3Bugs/contracts/115/core/contracts/v1/ConfigProviderV1.sol",
  "compiler": {
    "name": "solc",
    "version": "0.6.12+commit.27d51765.Emscripten.clang"
  },
  "schemaVersion": "3.4.7",
  "updatedAt": "2025-02-28T14:09:34.676Z",
  "devdoc": {
    "kind": "dev",
    "methods": {
      "collateralBorrowRate(address)": {
        "details": "borrowing rate is specified for a 1 sec interval and accurancy is in RAY.",
        "params": {
          "_collateralType": "address of the collateral type"
        }
      },
      "collateralConfigs(uint256)": {
        "params": {
          "_id": "the ID of the conifg to be returned"
        }
      },
      "collateralDebtLimit(address)": {
        "details": "this is a platform wide limit for new debt issuance against a specific collateral type",
        "params": {
          "_collateralType": "address of the collateral type"
        }
      },
      "collateralMinCollateralRatio(address)": {
        "details": "this is the liquidation treshold under which a vault is considered open for liquidation.",
        "params": {
          "_collateralType": "address of the collateral type"
        }
      },
      "collateralOriginationFee(address)": {
        "details": "this rate is applied as a one time fee for new borrowing and is specified in WAD",
        "params": {
          "_collateralType": "address of the collateral type"
        }
      },
      "removeCollateral(address)": {
        "params": {
          "_collateralType": "address of the collateral type"
        }
      },
      "setCollateralBorrowRate(address,uint256)": {
        "details": "borrowing rate is specified for a 1 sec interval and accurancy is in RAY.",
        "params": {
          "_borrowRate": "the new borrowing rate for a 1 sec interval",
          "_collateralType": "address of the collateral type"
        }
      },
      "setCollateralConfig(address,uint256,uint256,uint256,uint256)": {
        "params": {
          "_borrowRate": "the borrowing rate specified in 1 second interval in RAY accuracy.",
          "_collateralType": "address of the collateral type",
          "_debtLimit": "the debt ceiling for the collateral type",
          "_minCollateralRatio": "the minimum ratio to maintain to avoid liquidation",
          "_originationFee": "an optional origination fee for newly created debt. Can be 0."
        }
      },
      "setCollateralDebtLimit(address,uint256)": {
        "params": {
          "_collateralType": "address of the collateral type",
          "_debtLimit": "the new debt limit"
        }
      },
      "setCollateralMinCollateralRatio(address,uint256)": {
        "details": "this is the liquidation treshold under which a vault is considered open for liquidation.",
        "params": {
          "_collateralType": "address of the collateral type",
          "_minCollateralRatio": "the new minimum collateralization ratio"
        }
      },
      "setCollateralOriginationFee(address,uint256)": {
        "details": "this rate is applied as a one time fee for new borrowing and is specified in WAD",
        "params": {
          "_collateralType": "address of the collateral type",
          "_originationFee": "new origination fee in WAD"
        }
      },
      "setLiquidationBonus(uint256)": {
        "details": "the liquidation bonus is specified in WAD",
        "params": {
          "_bonus": "the liquidation bonus to be paid to liquidators"
        }
      }
    },
    "version": 1
  },
  "userdoc": {
    "kind": "user",
    "methods": {
      "collateralBorrowRate(address)": {
        "notice": "Get the borrowing rate for a collateral type"
      },
      "collateralConfigs(uint256)": {
        "notice": "Retreives the entire config for a specific config id."
      },
      "collateralDebtLimit(address)": {
        "notice": "Get the debt limit for a collateral type"
      },
      "collateralMinCollateralRatio(address)": {
        "notice": "Get the minimum collateralization ratio for a collateral type"
      },
      "collateralOriginationFee(address)": {
        "notice": "Get the origiation fee for a collateral type"
      },
      "removeCollateral(address)": {
        "notice": "Remove the config for a collateral type"
      },
      "setCollateralBorrowRate(address,uint256)": {
        "notice": "Sets the borrowing rate for a collateral type"
      },
      "setCollateralConfig(address,uint256,uint256,uint256,uint256)": {
        "notice": "Creates or overwrites an existing config for a collateral type"
      },
      "setCollateralDebtLimit(address,uint256)": {
        "notice": "Sets the debt limit for a collateral type"
      },
      "setCollateralMinCollateralRatio(address,uint256)": {
        "notice": "Sets the minimum collateralization ratio for a collateral type"
      },
      "setCollateralOriginationFee(address,uint256)": {
        "notice": "Sets the origiation fee for a collateral type"
      },
      "setLiquidationBonus(uint256)": {
        "notice": "Set the platform wide incentive for liquidations."
      }
    },
    "version": 1
  }
}