{
  "contractName": "DebtNotifier",
  "abi": [
    {
      "inputs": [
        {
          "internalType": "contract IGovernanceAddressProvider",
          "name": "_addresses",
          "type": "address"
        }
      ],
      "stateMutability": "nonpayable",
      "type": "constructor"
    },
    {
      "inputs": [],
      "name": "a",
      "outputs": [
        {
          "internalType": "contract IGovernanceAddressProvider",
          "name": "",
          "type": "address"
        }
      ],
      "stateMutability": "view",
      "type": "function"
    },
    {
      "inputs": [
        {
          "internalType": "address",
          "name": "",
          "type": "address"
        }
      ],
      "name": "collateralSupplyMinerMapping",
      "outputs": [
        {
          "internalType": "contract ISupplyMiner",
          "name": "",
          "type": "address"
        }
      ],
      "stateMutability": "view",
      "type": "function"
    },
    {
      "inputs": [
        {
          "internalType": "uint256",
          "name": "_vaultId",
          "type": "uint256"
        }
      ],
      "name": "debtChanged",
      "outputs": [],
      "stateMutability": "nonpayable",
      "type": "function"
    },
    {
      "inputs": [
        {
          "internalType": "address",
          "name": "collateral",
          "type": "address"
        },
        {
          "internalType": "contract ISupplyMiner",
          "name": "supplyMiner",
          "type": "address"
        }
      ],
      "name": "setCollateralSupplyMiner",
      "outputs": [],
      "stateMutability": "nonpayable",
      "type": "function"
    }
  ],
  "bytecode": "0x608060405234801561001057600080fd5b5060405161093338038061093383398101604081905261002f91610067565b6001600160a01b03811661004257600080fd5b600080546001600160a01b0319166001600160a01b0392909216919091179055610095565b600060208284031215610078578081fd5b81516001600160a01b038116811461008e578182fd5b9392505050565b61088f806100a46000396000f3fe608060405234801561001057600080fd5b506004361061004c5760003560e01c80630dbe671f14610051578063a780c9ec1461006f578063d66e6a7814610082578063e9fd0e3814610097575b600080fd5b6100596100aa565b60405161006691906107f0565b60405180910390f35b61005961007d36600461067c565b6100b9565b61009561009036600461069f565b6100d4565b005b6100956100a53660046107a8565b6102ff565b6000546001600160a01b031681565b6001602052600090815260409020546001600160a01b031681565b60008054906101000a90046001600160a01b03166001600160a01b031663f77c47916040518163ffffffff1660e01b815260040160206040518083038186803b15801561012057600080fd5b505afa158015610134573d6000803e3d6000fd5b505050506040513d601f19601f82011682018060405250810190610158919061070f565b6001600160a01b03166391d1485460008054906101000a90046001600160a01b03166001600160a01b031663f77c47916040518163ffffffff1660e01b815260040160206040518083038186803b1580156101b257600080fd5b505afa1580156101c6573d6000803e3d6000fd5b505050506040513d601f19601f820116820180604052508101906101ea919061070f565b6001600160a01b031663ec87621c6040518163ffffffff1660e01b815260040160206040518083038186803b15801561022257600080fd5b505afa158015610236573d6000803e3d6000fd5b505050506040513d601f19601f8201168201806040525081019061025a91906106f7565b336040518363ffffffff1660e01b81526004016102789291906107d9565b60206040518083038186803b15801561029057600080fd5b505afa1580156102a4573d6000803e3d6000fd5b505050506040513d601f19601f820116820180604052508101906102c891906106d7565b6102d157600080fd5b6001600160a01b03918216600090815260016020526040902080546001600160a01b03191691909216179055565b60008054906101000a90046001600160a01b03166001600160a01b0316633df06b596040518163ffffffff1660e01b815260040160206040518083038186803b15801561034b57600080fd5b505afa15801561035f573d6000803e3d6000fd5b505050506040513d601f19601f82011682018060405250810190610383919061070f565b6001600160a01b031663f2f4eb266040518163ffffffff1660e01b815260040160206040518083038186803b1580156103bb57600080fd5b505afa1580156103cf573d6000803e3d6000fd5b505050506040513d601f19601f820116820180604052508101906103f3919061070f565b6001600160a01b0316336001600160a01b03161461042c5760405162461bcd60e51b815260040161042390610804565b60405180910390fd5b61043461063b565b60008054906101000a90046001600160a01b03166001600160a01b0316633df06b596040518163ffffffff1660e01b815260040160206040518083038186803b15801561048057600080fd5b505afa158015610494573d6000803e3d6000fd5b505050506040513d601f19601f820116820180604052508101906104b8919061070f565b6001600160a01b03166365d552876040518163ffffffff1660e01b815260040160206040518083038186803b1580156104f057600080fd5b505afa158015610504573d6000803e3d6000fd5b505050506040513d601f19601f82011682018060405250810190610528919061070f565b6001600160a01b0316638c64ea4a836040518263ffffffff1660e01b8152600401610553919061083b565b60a06040518083038186803b15801561056b57600080fd5b505afa15801561057f573d6000803e3d6000fd5b505050506040513d601f19601f820116820180604052508101906105a3919061072b565b80516001600160a01b0390811660009081526001602052604090205491925016806105cf575050610638565b6020820151606083015160405163068a089d60e01b81526001600160a01b0384169263068a089d92610603926004016107c0565b600060405180830381600087803b15801561061d57600080fd5b505af1158015610631573d6000803e3d6000fd5b5050505050505b50565b6040518060a0016040528060006001600160a01b0316815260200160006001600160a01b031681526020016000815260200160008152602001600081525090565b60006020828403121561068d578081fd5b813561069881610844565b9392505050565b600080604083850312156106b1578081fd5b82356106bc81610844565b915060208301356106cc81610844565b809150509250929050565b6000602082840312156106e8578081fd5b81518015158114610698578182fd5b600060208284031215610708578081fd5b5051919050565b600060208284031215610720578081fd5b815161069881610844565b600060a0828403121561073c578081fd5b60405160a0810181811067ffffffffffffffff8211171561075b578283fd5b604052825161076981610844565b8152602083015161077981610844565b806020830152506040830151604082015260608301516060820152608083015160808201528091505092915050565b6000602082840312156107b9578081fd5b5035919050565b6001600160a01b03929092168252602082015260400190565b9182526001600160a01b0316602082015260400190565b6001600160a01b0391909116815260200190565b60208082526018908201527f43616c6c6572206973206e6f74205661756c7473436f72650000000000000000604082015260600190565b90815260200190565b6001600160a01b038116811461063857600080fdfea264697066735822122098e67382f5da9a5bd3fb6b5713f11377755d33e17868d596f5a31ceba92ad20c64736f6c634300060c0033",
  "immutableReferences": {},
  "source": "// SPDX-License-Identifier: MIT\n\npragma experimental ABIEncoderV2;\npragma solidity 0.6.12;\n\nimport \"../governance/interfaces/IGovernanceAddressProvider.sol\";\nimport \"./interfaces/ISupplyMiner.sol\";\nimport \"../interfaces/IVaultsDataProvider.sol\";\n\ncontract DebtNotifier is IDebtNotifier {\n  IGovernanceAddressProvider public override a;\n  mapping(address => ISupplyMiner) public override collateralSupplyMinerMapping;\n\n  constructor(IGovernanceAddressProvider _addresses) public {\n    require(address(_addresses) != address(0));\n    a = _addresses;\n  }\n\n  modifier onlyVaultsCore() {\n    require(msg.sender == address(a.parallel().core()), \"Caller is not VaultsCore\");\n    _;\n  }\n\n  modifier onlyManager() {\n    require(a.controller().hasRole(a.controller().MANAGER_ROLE(), msg.sender));\n    _;\n  }\n\n  /**\n    Notifies the correct supplyMiner of a change in debt.\n    @dev Only the vaultsCore can call this.\n    `debtChanged` will silently return if collateralType is not known to prevent any problems in vaultscore.\n    @param _vaultId the ID of the vault of which the debt has changed.\n  **/\n  function debtChanged(uint256 _vaultId) public override onlyVaultsCore {\n    IVaultsDataProvider.Vault memory v = a.parallel().vaultsData().vaults(_vaultId);\n\n    ISupplyMiner supplyMiner = collateralSupplyMinerMapping[v.collateralType];\n    if (address(supplyMiner) == address(0)) {\n      // not throwing error so VaultsCore keeps working\n      return;\n    }\n    supplyMiner.baseDebtChanged(v.owner, v.baseDebt);\n  }\n\n  /**\n    Updates the collateral to supplyMiner mapping.\n    @dev Manager role in the AccessController is required to call this.\n    @param collateral the address of the collateralType.\n    @param supplyMiner the address of the supplyMiner which will be notified on debt changes for this collateralType.\n  **/\n  function setCollateralSupplyMiner(address collateral, ISupplyMiner supplyMiner) public override onlyManager {\n    collateralSupplyMinerMapping[collateral] = supplyMiner;\n  }\n}\n",
  "sourcePath": "/home/mingyue/sub_contract_content/Web3Bugs/contracts/115/core/contracts/liquidityMining/DebtNotifier.sol",
  "compiler": {
    "name": "solc",
    "version": "0.6.12+commit.27d51765.Emscripten.clang"
  },
  "schemaVersion": "3.4.7",
  "updatedAt": "2025-02-28T14:09:34.643Z",
  "devdoc": {
    "kind": "dev",
    "methods": {
      "debtChanged(uint256)": {
        "details": "Only the vaultsCore can call this. `debtChanged` will silently return if collateralType is not known to prevent any problems in vaultscore.",
        "params": {
          "_vaultId": "the ID of the vault of which the debt has changed.*"
        }
      },
      "setCollateralSupplyMiner(address,address)": {
        "details": "Manager role in the AccessController is required to call this.",
        "params": {
          "collateral": "the address of the collateralType.",
          "supplyMiner": "the address of the supplyMiner which will be notified on debt changes for this collateralType.*"
        }
      }
    },
    "version": 1
  },
  "userdoc": {
    "kind": "user",
    "methods": {
      "debtChanged(uint256)": {
        "notice": "Notifies the correct supplyMiner of a change in debt."
      },
      "setCollateralSupplyMiner(address,address)": {
        "notice": "Updates the collateral to supplyMiner mapping."
      }
    },
    "version": 1
  }
}