{
  "contractName": "DistributorManager",
  "abi": [
    {
      "inputs": [
        {
          "internalType": "contract IGovernanceAddressProvider",
          "name": "_a",
          "type": "address"
        },
        {
          "internalType": "contract IBaseDistributor",
          "name": "_mimmoDistributor",
          "type": "address"
        }
      ],
      "stateMutability": "nonpayable",
      "type": "constructor"
    },
    {
      "inputs": [],
      "name": "a",
      "outputs": [
        {
          "internalType": "contract IGovernanceAddressProvider",
          "name": "",
          "type": "address"
        }
      ],
      "stateMutability": "view",
      "type": "function"
    },
    {
      "inputs": [],
      "name": "mimmoDistributor",
      "outputs": [
        {
          "internalType": "contract IBaseDistributor",
          "name": "",
          "type": "address"
        }
      ],
      "stateMutability": "view",
      "type": "function"
    },
    {
      "inputs": [],
      "name": "releaseAll",
      "outputs": [],
      "stateMutability": "nonpayable",
      "type": "function"
    }
  ],
  "bytecode": "0x608060405234801561001057600080fd5b5060405161042b38038061042b83398101604081905261002f91610086565b6001600160a01b03821661004257600080fd5b6001600160a01b03811661005557600080fd5b600080546001600160a01b039384166001600160a01b031991821617909155600180549290931691161790556100d7565b60008060408385031215610098578182fd5b82516100a3816100bf565b60208401519092506100b4816100bf565b809150509250929050565b6001600160a01b03811681146100d457600080fd5b50565b610345806100e66000396000f3fe608060405234801561001057600080fd5b50600436106100415760003560e01c80630dbe671f146100465780632f17281b146100645780635be7fde81461006c575b600080fd5b61004e610076565b60405161005b91906102d4565b60405180910390f35b61004e610085565b610074610094565b005b6000546001600160a01b031681565b6001546001600160a01b031681565b600160009054906101000a90046001600160a01b03166001600160a01b03166386d1a69f6040518163ffffffff1660e01b8152600401600060405180830381600087803b1580156100e457600080fd5b505af11580156100f8573d6000803e3d6000fd5b505050506060600160009054906101000a90046001600160a01b03166001600160a01b03166327f381136040518163ffffffff1660e01b815260040160006040518083038186803b15801561014c57600080fd5b505afa158015610160573d6000803e3d6000fd5b505050506040513d6000823e601f3d908101601f191682016040526101889190810190610229565b905060005b8151811015610208578181815181106101a257fe5b60200260200101516001600160a01b03166386d1a69f6040518163ffffffff1660e01b8152600401600060405180830381600087803b1580156101e457600080fd5b505af11580156101f8573d6000803e3d6000fd5b50506001909201915061018d9050565b5050565b80516001600160a01b038116811461022357600080fd5b92915050565b6000602080838503121561023b578182fd5b825167ffffffffffffffff80821115610252578384fd5b818501915085601f830112610265578384fd5b815181811115610273578485fd5b83810291506102838483016102e8565b8181528481019084860184860187018a101561029d578788fd5b8795505b838610156102c7576102b38a8261020c565b8352600195909501949186019186016102a1565b5098975050505050505050565b6001600160a01b0391909116815260200190565b60405181810167ffffffffffffffff8111828210171561030757600080fd5b60405291905056fea2646970667358221220fab77146c7fa7ce2d26c34e33e4ca9ee3bdfa55ad3519775ef4d8e5ff5ad23d564736f6c634300060c0033",
  "immutableReferences": {},
  "source": "// SPDX-License-Identifier: MIT\n\npragma experimental ABIEncoderV2;\npragma solidity 0.6.12;\n\nimport \"@openzeppelin/contracts/math/SafeMath.sol\";\nimport \"../governance/interfaces/IGovernanceAddressProvider.sol\";\nimport \"./interfaces/IBaseDistributor.sol\";\n\ncontract DistributorManager {\n  using SafeMath for uint256;\n\n  IGovernanceAddressProvider public a;\n  IBaseDistributor public mimmoDistributor;\n\n  modifier onlyManager() {\n    require(a.controller().hasRole(a.controller().MANAGER_ROLE(), msg.sender), \"Caller is not Manager\");\n    _;\n  }\n\n  constructor(IGovernanceAddressProvider _a, IBaseDistributor _mimmoDistributor) public {\n    require(address(_a) != address(0));\n    require(address(_mimmoDistributor) != address(0));\n\n    a = _a;\n    mimmoDistributor = _mimmoDistributor;\n  }\n\n  /**\n    Public function to release the accumulated new MIMO tokens to the payees.\n    @dev anyone can call this.\n  */\n  function releaseAll() public {\n    mimmoDistributor.release();\n    address[] memory distributors = mimmoDistributor.getPayees();\n    for (uint256 i = 0; i < distributors.length; i++) {\n      IBaseDistributor(distributors[i]).release();\n    }\n  }\n}\n",
  "sourcePath": "/home/mingyue/sub_contract_content/Web3Bugs/contracts/115/core/contracts/liquidityMining/DistributorManager.sol",
  "compiler": {
    "name": "solc",
    "version": "0.6.12+commit.27d51765.Emscripten.clang"
  },
  "schemaVersion": "3.4.7",
  "updatedAt": "2025-02-28T14:09:34.644Z",
  "devdoc": {
    "kind": "dev",
    "methods": {
      "releaseAll()": {
        "details": "anyone can call this."
      }
    },
    "version": 1
  },
  "userdoc": {
    "kind": "user",
    "methods": {
      "releaseAll()": {
        "notice": "Public function to release the accumulated new MIMO tokens to the payees."
      }
    },
    "version": 1
  }
}