{
  "contractName": "EthereumDistributor",
  "abi": [
    {
      "inputs": [
        {
          "internalType": "contract IGovernanceAddressProvider",
          "name": "_a",
          "type": "address"
        }
      ],
      "stateMutability": "nonpayable",
      "type": "constructor"
    },
    {
      "anonymous": false,
      "inputs": [
        {
          "indexed": false,
          "internalType": "address",
          "name": "account",
          "type": "address"
        },
        {
          "indexed": false,
          "internalType": "uint256",
          "name": "shares",
          "type": "uint256"
        }
      ],
      "name": "PayeeAdded",
      "type": "event"
    },
    {
      "anonymous": false,
      "inputs": [
        {
          "indexed": false,
          "internalType": "uint256",
          "name": "newTokens",
          "type": "uint256"
        },
        {
          "indexed": false,
          "internalType": "uint256",
          "name": "releasedAt",
          "type": "uint256"
        }
      ],
      "name": "TokensReleased",
      "type": "event"
    },
    {
      "inputs": [],
      "name": "a",
      "outputs": [
        {
          "internalType": "contract IGovernanceAddressProvider",
          "name": "",
          "type": "address"
        }
      ],
      "stateMutability": "view",
      "type": "function"
    },
    {
      "inputs": [
        {
          "internalType": "address[]",
          "name": "_payees",
          "type": "address[]"
        },
        {
          "internalType": "uint256[]",
          "name": "_shares",
          "type": "uint256[]"
        }
      ],
      "name": "changePayees",
      "outputs": [],
      "stateMutability": "nonpayable",
      "type": "function"
    },
    {
      "inputs": [],
      "name": "getPayees",
      "outputs": [
        {
          "internalType": "address[]",
          "name": "",
          "type": "address[]"
        }
      ],
      "stateMutability": "view",
      "type": "function"
    },
    {
      "inputs": [
        {
          "internalType": "uint256",
          "name": "",
          "type": "uint256"
        }
      ],
      "name": "payees",
      "outputs": [
        {
          "internalType": "address",
          "name": "",
          "type": "address"
        }
      ],
      "stateMutability": "view",
      "type": "function"
    },
    {
      "inputs": [],
      "name": "release",
      "outputs": [],
      "stateMutability": "nonpayable",
      "type": "function"
    },
    {
      "inputs": [
        {
          "internalType": "address",
          "name": "",
          "type": "address"
        }
      ],
      "name": "shares",
      "outputs": [
        {
          "internalType": "uint256",
          "name": "",
          "type": "uint256"
        }
      ],
      "stateMutability": "view",
      "type": "function"
    },
    {
      "inputs": [],
      "name": "totalShares",
      "outputs": [
        {
          "internalType": "uint256",
          "name": "",
          "type": "uint256"
        }
      ],
      "stateMutability": "view",
      "type": "function"
    },
    {
      "inputs": [],
      "name": "mintableTokens",
      "outputs": [
        {
          "internalType": "uint256",
          "name": "",
          "type": "uint256"
        }
      ],
      "stateMutability": "view",
      "type": "function"
    }
  ],
  "bytecode": "0x608060405234801561001057600080fd5b5060405161128e38038061128e83398101604081905261002f91610067565b6001600160a01b03811661004257600080fd5b600380546001600160a01b0319166001600160a01b0392909216919091179055610095565b600060208284031215610078578081fd5b81516001600160a01b038116811461008e578182fd5b9392505050565b6111ea806100a46000396000f3fe608060405234801561001057600080fd5b50600436106100885760003560e01c806386d1a69f1161005b57806386d1a69f146100e8578063acd7af01146100f2578063ce7c2ac214610105578063cf3dfae71461011857610088565b80630dbe671f1461008d57806327f38113146100ab5780633a98ef39146100c057806363037b0c146100d5575b600080fd5b610095610120565b6040516100a29190610d5b565b60405180910390f35b6100b361012f565b6040516100a29190610d88565b6100c8610191565b6040516100a29190611111565b6100956100e3366004610d27565b610197565b6100f06101be565b005b6100f0610100366004610c10565b610295565b6100c8610113366004610bf4565b6105b4565b6100c86105c6565b6003546001600160a01b031681565b6060600280548060200260200160405190810160405280929190818152602001828054801561018757602002820191906000526020600020905b81546001600160a01b03168152600190910190602001808311610169575b5050505050905090565b60005481565b600281815481106101a457fe5b6000918252602090912001546001600160a01b0316905081565b60006101c86105c6565b9050600081116101f35760405162461bcd60e51b81526004016101ea90610f2d565b60405180910390fd5b6002546102125760405162461bcd60e51b81526004016101ea90610ffc565b60005b6002548110156102585760006002828154811061022e57fe5b6000918252602090912001546001600160a01b0316905061024f83826106c3565b50600101610215565b507f06bfc9e66ca14afa6b27c5211d92e2453d2007b51cd69146f7d2b2b5654cf2b9814260405161028a92919061111a565b60405180910390a150565b600360009054906101000a90046001600160a01b03166001600160a01b031663f77c47916040518163ffffffff1660e01b815260040160206040518083038186803b1580156102e357600080fd5b505afa1580156102f7573d6000803e3d6000fd5b505050506040513d601f19601f8201168201806040525081019061031b9190610d0b565b6001600160a01b03166391d14854600360009054906101000a90046001600160a01b03166001600160a01b031663f77c47916040518163ffffffff1660e01b815260040160206040518083038186803b15801561037757600080fd5b505afa15801561038b573d6000803e3d6000fd5b505050506040513d601f19601f820116820180604052508101906103af9190610d0b565b6001600160a01b031663ec87621c6040518163ffffffff1660e01b815260040160206040518083038186803b1580156103e757600080fd5b505afa1580156103fb573d6000803e3d6000fd5b505050506040513d601f19601f8201168201806040525081019061041f9190610cf3565b336040518363ffffffff1660e01b815260040161043d929190610dd5565b60206040518083038186803b15801561045557600080fd5b505afa158015610469573d6000803e3d6000fd5b505050506040513d601f19601f8201168201806040525081019061048d9190610cd3565b6104a95760405162461bcd60e51b81526004016101ea90610f96565b80518251146104ca5760405162461bcd60e51b81526004016101ea90611033565b60008251116104eb5760405162461bcd60e51b81526004016101ea90610e56565b60025415801590610503575060006105016105c6565b115b15610510576105106101be565b60005b60025481101561055b57600160006002838154811061052e57fe5b60009182526020808320909101546001600160a01b03168352820192909252604001812055600101610513565b5061056860026000610b4c565b60008080555b82518110156105af576105a783828151811061058657fe5b602002602001015183838151811061059a57fe5b6020026020010151610790565b60010161056e565b505050565b60016020526000908152604090205481565b60035460408051636d9b182360e01b815290516000926001600160a01b031691636d9b1823916004808301926020929190829003018186803b15801561060b57600080fd5b505afa15801561061f573d6000803e3d6000fd5b505050506040513d601f19601f820116820180604052508101906106439190610d0b565b6001600160a01b03166370a08231306040518263ffffffff1660e01b815260040161066e9190610d5b565b60206040518083038186803b15801561068657600080fd5b505afa15801561069a573d6000803e3d6000fd5b505050506040513d601f19601f820116820180604052508101906106be9190610cf3565b905090565b600080546001600160a01b0383168252600160205260408220546106f391906106ed9086906108b4565b906108f7565b90506105af8282600360009054906101000a90046001600160a01b03166001600160a01b0316636d9b18236040518163ffffffff1660e01b815260040160206040518083038186803b15801561074857600080fd5b505afa15801561075c573d6000803e3d6000fd5b505050506040513d601f19601f820116820180604052508101906107809190610d0b565b6001600160a01b03169190610929565b6001600160a01b0382166107b65760405162461bcd60e51b81526004016101ea90610fc5565b600081116107d65760405162461bcd60e51b81526004016101ea906110a1565b6001600160a01b0382166000908152600160205260409020541561080c5760405162461bcd60e51b81526004016101ea90610e79565b6002805460018082019092557f405787fa12a823e0f2b7631cc41b3ba8828b3321ca811111fa75cd3aa3bb5ace0180546001600160a01b0319166001600160a01b03851690811790915560009081526020919091526040812082905554610873908261097f565b6000556040517f40c340f65e17194d14ddddb073d3c9f888e3cb52b5aae0c6c7706b4fbc905fac906108a89084908490610d6f565b60405180910390a15050565b6000826108c3575060006108f1565b828202828482816108d057fe5b04146108ee5760405162461bcd60e51b81526004016101ea90610f55565b90505b92915050565b60008082116109185760405162461bcd60e51b81526004016101ea90610ef6565b81838161092157fe5b049392505050565b6105af8363a9059cbb60e01b8484604051602401610948929190610d6f565b60408051601f198184030181529190526020810180516001600160e01b03166001600160e01b0319909316929092179091526109a4565b6000828201838110156108ee5760405162461bcd60e51b81526004016101ea90610e1f565b60606109f9826040518060400160405280602081526020017f5361666545524332303a206c6f772d6c6576656c2063616c6c206661696c6564815250856001600160a01b0316610a339092919063ffffffff16565b8051909150156105af5780806020019051810190610a179190610cd3565b6105af5760405162461bcd60e51b81526004016101ea906110c7565b6060610a428484600085610a4c565b90505b9392505050565b606082471015610a6e5760405162461bcd60e51b81526004016101ea90610eb0565b610a7785610b0d565b610a935760405162461bcd60e51b81526004016101ea9061106a565b60006060866001600160a01b03168587604051610ab09190610d3f565b60006040518083038185875af1925050503d8060008114610aed576040519150601f19603f3d011682016040523d82523d6000602084013e610af2565b606091505b5091509150610b02828286610b13565b979650505050505050565b3b151590565b60608315610b22575081610a45565b825115610b325782518084602001fd5b8160405162461bcd60e51b81526004016101ea9190610dec565b5080546000825590600052602060002090810190610b6a9190610b6d565b50565b5b80821115610b825760008155600101610b6e565b5090565b600082601f830112610b96578081fd5b8135610ba9610ba48261114f565b611128565b818152915060208083019084810181840286018201871015610bca57600080fd5b60005b84811015610be957813584529282019290820190600101610bcd565b505050505092915050565b600060208284031215610c05578081fd5b81356108ee8161119f565b60008060408385031215610c22578081fd5b823567ffffffffffffffff80821115610c39578283fd5b818501915085601f830112610c4c578283fd5b8135610c5a610ba48261114f565b80828252602080830192508086018a828387028901011115610c7a578788fd5b8796505b84871015610ca5578035610c918161119f565b845260019690960195928101928101610c7e565b509096508701359350505080821115610cbc578283fd5b50610cc985828601610b86565b9150509250929050565b600060208284031215610ce4578081fd5b815180151581146108ee578182fd5b600060208284031215610d04578081fd5b5051919050565b600060208284031215610d1c578081fd5b81516108ee8161119f565b600060208284031215610d38578081fd5b5035919050565b60008251610d5181846020870161116f565b9190910192915050565b6001600160a01b0391909116815260200190565b6001600160a01b03929092168252602082015260400190565b6020808252825182820181905260009190848201906040850190845b81811015610dc95783516001600160a01b031683529284019291840191600101610da4565b50909695505050505050565b9182526001600160a01b0316602082015260400190565b6000602082528251806020840152610e0b81604085016020870161116f565b601f01601f19169190910160400192915050565b6020808252601b908201527f536166654d6174683a206164646974696f6e206f766572666c6f770000000000604082015260600190565b6020808252600990820152684e6f2070617965657360b81b604082015260600190565b60208082526018908201527f706179656520616c726561647920686173207368617265730000000000000000604082015260600190565b60208082526026908201527f416464726573733a20696e73756666696369656e742062616c616e636520666f6040820152651c8818d85b1b60d21b606082015260800190565b6020808252601a908201527f536166654d6174683a206469766973696f6e206279207a65726f000000000000604082015260600190565b6020808252600e908201526d06e6577546f6b656e7320697320360941b604082015260600190565b60208082526021908201527f536166654d6174683a206d756c7469706c69636174696f6e206f766572666c6f6040820152607760f81b606082015260800190565b60208082526015908201527421b0b63632b91034b9903737ba1026b0b730b3b2b960591b604082015260600190565b60208082526019908201527f706179656520697320746865207a65726f206164647265737300000000000000604082015260600190565b60208082526019908201527f506179656573206e6f7420636f6e666967757265642079657400000000000000604082015260600190565b6020808252601c908201527f50617965657320616e6420736861726573206d69736d61746368656400000000604082015260600190565b6020808252601d908201527f416464726573733a2063616c6c20746f206e6f6e2d636f6e7472616374000000604082015260600190565b6020808252600c908201526b07368617265732061726520360a41b604082015260600190565b6020808252602a908201527f5361666545524332303a204552433230206f7065726174696f6e20646964206e6040820152691bdd081cdd58d8d9595960b21b606082015260800190565b90815260200190565b918252602082015260400190565b60405181810167ffffffffffffffff8111828210171561114757600080fd5b604052919050565b600067ffffffffffffffff821115611165578081fd5b5060209081020190565b60005b8381101561118a578181015183820152602001611172565b83811115611199576000848401525b50505050565b6001600160a01b0381168114610b6a57600080fdfea26469706673582212209d971bcc659754a5bd8fedaeef6eda9ede0741261b248202acd9d26611bcaa5764736f6c634300060c0033",
  "immutableReferences": {},
  "source": "// SPDX-License-Identifier: MIT\n\npragma experimental ABIEncoderV2;\npragma solidity 0.6.12;\n\nimport \"@openzeppelin/contracts/math/SafeMath.sol\";\nimport { SafeERC20, IERC20 } from \"@openzeppelin/contracts/token/ERC20/SafeERC20.sol\";\nimport \"../governance/interfaces/IGovernanceAddressProvider.sol\";\nimport \"./BaseDistributor.sol\";\n\ncontract EthereumDistributor is BaseDistributor {\n  using SafeMath for uint256;\n  using SafeERC20 for IERC20;\n\n  constructor(IGovernanceAddressProvider _a) public {\n    require(address(_a) != address(0));\n\n    a = _a;\n  }\n\n  /**\n    Calculates how many MIMO tokens can be minted since the last time tokens were minted\n    @return number of mintable tokens available right now.\n  */\n  function mintableTokens() public view override returns (uint256) {\n    return a.mimo().balanceOf(address(this));\n  }\n\n  /**\n    Internal function to release a percentage of newTokens to a specific payee\n    @dev uses totalShares to calculate correct share\n    @param _totalnewTokensReceived Total newTokens for all payees, will be split according to shares\n    @param _payee The address of the payee to whom to distribute the fees.\n  */\n  function _release(uint256 _totalnewTokensReceived, address _payee) internal override {\n    uint256 payment = _totalnewTokensReceived.mul(shares[_payee]).div(totalShares);\n    IERC20(a.mimo()).safeTransfer(_payee, payment);\n  }\n}\n",
  "sourcePath": "/home/mingyue/sub_contract_content/Web3Bugs/contracts/115/core/contracts/liquidityMining/EthereumDistributor.sol",
  "compiler": {
    "name": "solc",
    "version": "0.6.12+commit.27d51765.Emscripten.clang"
  },
  "schemaVersion": "3.4.7",
  "updatedAt": "2025-02-28T14:09:34.644Z",
  "devdoc": {
    "kind": "dev",
    "methods": {
      "changePayees(address[],uint256[])": {
        "details": "will release existing fees before the update.",
        "params": {
          "_payees": "Array of payees",
          "_shares": "Array of shares for each payee"
        }
      },
      "getPayees()": {
        "returns": {
          "_0": "array of current payees."
        }
      },
      "mintableTokens()": {
        "returns": {
          "_0": "number of mintable tokens available right now."
        }
      },
      "release()": {
        "details": "anyone can call this."
      }
    },
    "version": 1
  },
  "userdoc": {
    "kind": "user",
    "methods": {
      "changePayees(address[],uint256[])": {
        "notice": "Updates the payee configuration to a new one."
      },
      "getPayees()": {
        "notice": "Get current configured payees."
      },
      "mintableTokens()": {
        "notice": "Calculates how many MIMO tokens can be minted since the last time tokens were minted"
      },
      "release()": {
        "notice": "Public function to release the accumulated new MIMO tokens to the payees."
      }
    },
    "version": 1
  }
}