{
  "contractName": "FeeDistributorV1",
  "abi": [
    {
      "inputs": [
        {
          "internalType": "contract IAddressProviderV1",
          "name": "_addresses",
          "type": "address"
        }
      ],
      "stateMutability": "nonpayable",
      "type": "constructor"
    },
    {
      "anonymous": false,
      "inputs": [
        {
          "indexed": false,
          "internalType": "uint256",
          "name": "income",
          "type": "uint256"
        },
        {
          "indexed": false,
          "internalType": "uint256",
          "name": "releasedAt",
          "type": "uint256"
        }
      ],
      "name": "FeeReleased",
      "type": "event"
    },
    {
      "anonymous": false,
      "inputs": [
        {
          "indexed": false,
          "internalType": "address",
          "name": "account",
          "type": "address"
        },
        {
          "indexed": false,
          "internalType": "uint256",
          "name": "shares",
          "type": "uint256"
        }
      ],
      "name": "PayeeAdded",
      "type": "event"
    },
    {
      "inputs": [],
      "name": "a",
      "outputs": [
        {
          "internalType": "contract IAddressProviderV1",
          "name": "",
          "type": "address"
        }
      ],
      "stateMutability": "view",
      "type": "function"
    },
    {
      "inputs": [],
      "name": "lastReleasedAt",
      "outputs": [
        {
          "internalType": "uint256",
          "name": "",
          "type": "uint256"
        }
      ],
      "stateMutability": "view",
      "type": "function"
    },
    {
      "inputs": [
        {
          "internalType": "uint256",
          "name": "",
          "type": "uint256"
        }
      ],
      "name": "payees",
      "outputs": [
        {
          "internalType": "address",
          "name": "",
          "type": "address"
        }
      ],
      "stateMutability": "view",
      "type": "function"
    },
    {
      "inputs": [
        {
          "internalType": "address",
          "name": "",
          "type": "address"
        }
      ],
      "name": "shares",
      "outputs": [
        {
          "internalType": "uint256",
          "name": "",
          "type": "uint256"
        }
      ],
      "stateMutability": "view",
      "type": "function"
    },
    {
      "inputs": [],
      "name": "totalShares",
      "outputs": [
        {
          "internalType": "uint256",
          "name": "",
          "type": "uint256"
        }
      ],
      "stateMutability": "view",
      "type": "function"
    },
    {
      "inputs": [],
      "name": "release",
      "outputs": [],
      "stateMutability": "nonpayable",
      "type": "function"
    },
    {
      "inputs": [],
      "name": "getPayees",
      "outputs": [
        {
          "internalType": "address[]",
          "name": "",
          "type": "address[]"
        }
      ],
      "stateMutability": "view",
      "type": "function"
    },
    {
      "inputs": [
        {
          "internalType": "address[]",
          "name": "_payees",
          "type": "address[]"
        },
        {
          "internalType": "uint256[]",
          "name": "_shares",
          "type": "uint256[]"
        }
      ],
      "name": "changePayees",
      "outputs": [],
      "stateMutability": "nonpayable",
      "type": "function"
    }
  ],
  "bytecode": "0x608060405234801561001057600080fd5b506040516110e03803806110e083398101604081905261002f9161006c565b60016000556001600160a01b03811661004757600080fd5b600280546001600160a01b0319166001600160a01b039290921691909117905561009a565b60006020828403121561007d578081fd5b81516001600160a01b0381168114610093578182fd5b9392505050565b611037806100a96000396000f3fe608060405234801561001057600080fd5b50600436106100885760003560e01c806363037b0c1161005b57806363037b0c146100dd57806386d1a69f146100f0578063acd7af01146100fa578063ce7c2ac21461010d57610088565b80630dbe671f1461008d57806327f38113146100ab5780633a98ef39146100c05780635ac0d9c0146100d5575b600080fd5b610095610120565b6040516100a29190610c9e565b60405180910390f35b6100b361012f565b6040516100a29190610ccb565b6100c8610191565b6040516100a29190610f8e565b6100c8610197565b6100956100eb366004610c86565b61019d565b6100f86101c4565b005b6100f8610108366004610b6f565b6103b2565b6100c861011b366004610b53565b6107bc565b6002546001600160a01b031681565b6060600580548060200260200160405190810160405280929190818152602001828054801561018757602002820191906000526020600020905b81546001600160a01b03168152600190910190602001808311610169575b5050505050905090565b60035481565b60015481565b600581815481106101aa57fe5b6000918252602090912001546001600160a01b0316905081565b600260005414156101f05760405162461bcd60e51b81526004016101e790610f57565b60405180910390fd5b6002600081815590546040805163797a759360e11b815290516001600160a01b039092169163f2f4eb2691600480820192602092909190829003018186803b15801561023b57600080fd5b505afa15801561024f573d6000803e3d6000fd5b505050506040513d601f19601f820116820180604052508101906102739190610c6a565b6001600160a01b031663b718ee946040518163ffffffff1660e01b815260040160206040518083038186803b1580156102ab57600080fd5b505afa1580156102bf573d6000803e3d6000fd5b505050506040513d601f19601f820116820180604052508101906102e39190610c52565b9050600081116103055760405162461bcd60e51b81526004016101e790610d66565b6005546103245760405162461bcd60e51b81526004016101e790610ec3565b4260015560005b60055481101561036e5760006005828154811061034457fe5b6000918252602090912001546001600160a01b0316905061036583826107ce565b5060010161032b565b507f7dc312aceee91c2783f79aeeb79290143bd651572571c998630aeedc85afabb3816001546040516103a2929190610f97565b60405180910390a1506001600055565b600260009054906101000a90046001600160a01b03166001600160a01b031663f77c47916040518163ffffffff1660e01b815260040160206040518083038186803b15801561040057600080fd5b505afa158015610414573d6000803e3d6000fd5b505050506040513d601f19601f820116820180604052508101906104389190610c6a565b6001600160a01b03166391d14854600260009054906101000a90046001600160a01b03166001600160a01b031663f77c47916040518163ffffffff1660e01b815260040160206040518083038186803b15801561049457600080fd5b505afa1580156104a8573d6000803e3d6000fd5b505050506040513d601f19601f820116820180604052508101906104cc9190610c6a565b6001600160a01b031663ec87621c6040518163ffffffff1660e01b815260040160206040518083038186803b15801561050457600080fd5b505afa158015610518573d6000803e3d6000fd5b505050506040513d601f19601f8201168201806040525081019061053c9190610c52565b336040518363ffffffff1660e01b815260040161055a929190610d18565b60206040518083038186803b15801561057257600080fd5b505afa158015610586573d6000803e3d6000fd5b505050506040513d601f19601f820116820180604052508101906105aa9190610c32565b6105c65760405162461bcd60e51b81526004016101e790610e5d565b80518251146105e75760405162461bcd60e51b81526004016101e790610efa565b60008251116106085760405162461bcd60e51b81526004016101e790610d8b565b6002546040805163797a759360e11b815290516000926001600160a01b03169163f2f4eb26916004808301926020929190829003018186803b15801561064d57600080fd5b505afa158015610661573d6000803e3d6000fd5b505050506040513d601f19601f820116820180604052508101906106859190610c6a565b6001600160a01b031663b718ee946040518163ffffffff1660e01b815260040160206040518083038186803b1580156106bd57600080fd5b505afa1580156106d1573d6000803e3d6000fd5b505050506040513d601f19601f820116820180604052508101906106f59190610c52565b9050600081118015610708575060055415155b15610715576107156101c4565b60005b60055481101561076057600460006005838154811061073357fe5b60009182526020808320909101546001600160a01b03168352820192909252604001812055600101610718565b5061076d60056000610aab565b600060038190555b83518110156107b6576107ae84828151811061078d57fe5b60200260200101518483815181106107a157fe5b60200260200101516108ed565b600101610775565b50505050565b60046020526000908152604090205481565b6003546001600160a01b0382166000908152600460205260408120549091610801916107fb908690610a11565b90610a54565b9050600260009054906101000a90046001600160a01b03166001600160a01b03166316d8a5a96040518163ffffffff1660e01b815260040160206040518083038186803b15801561085157600080fd5b505afa158015610865573d6000803e3d6000fd5b505050506040513d601f19601f820116820180604052508101906108899190610c6a565b6001600160a01b03166340c10f1983836040518363ffffffff1660e01b81526004016108b6929190610cb2565b600060405180830381600087803b1580156108d057600080fd5b505af11580156108e4573d6000803e3d6000fd5b50505050505050565b6001600160a01b0382166109135760405162461bcd60e51b81526004016101e790610e8c565b600081116109335760405162461bcd60e51b81526004016101e790610f31565b6001600160a01b038216600090815260046020526040902054156109695760405162461bcd60e51b81526004016101e790610dae565b60058054600181019091557f036b6384b5eca791c62761152d0c79bb0604c104a5fb6f4eb0703f3154bb3db00180546001600160a01b0319166001600160a01b03841690811790915560009081526004602052604090208190556003546109d09082610a86565b6003556040517f40c340f65e17194d14ddddb073d3c9f888e3cb52b5aae0c6c7706b4fbc905fac90610a059084908490610cb2565b60405180910390a15050565b600082610a2057506000610a4e565b82820282848281610a2d57fe5b0414610a4b5760405162461bcd60e51b81526004016101e790610e1c565b90505b92915050565b6000808211610a755760405162461bcd60e51b81526004016101e790610de5565b818381610a7e57fe5b049392505050565b600082820183811015610a4b5760405162461bcd60e51b81526004016101e790610d2f565b5080546000825590600052602060002090810190610ac99190610acc565b50565b5b80821115610ae15760008155600101610acd565b5090565b600082601f830112610af5578081fd5b8135610b08610b0382610fcc565b610fa5565b818152915060208083019084810181840286018201871015610b2957600080fd5b60005b84811015610b4857813584529282019290820190600101610b2c565b505050505092915050565b600060208284031215610b64578081fd5b8135610a4b81610fec565b60008060408385031215610b81578081fd5b823567ffffffffffffffff80821115610b98578283fd5b818501915085601f830112610bab578283fd5b8135610bb9610b0382610fcc565b80828252602080830192508086018a828387028901011115610bd9578788fd5b8796505b84871015610c04578035610bf081610fec565b845260019690960195928101928101610bdd565b509096508701359350505080821115610c1b578283fd5b50610c2885828601610ae5565b9150509250929050565b600060208284031215610c43578081fd5b81518015158114610a4b578182fd5b600060208284031215610c63578081fd5b5051919050565b600060208284031215610c7b578081fd5b8151610a4b81610fec565b600060208284031215610c97578081fd5b5035919050565b6001600160a01b0391909116815260200190565b6001600160a01b03929092168252602082015260400190565b6020808252825182820181905260009190848201906040850190845b81811015610d0c5783516001600160a01b031683529284019291840191600101610ce7565b50909695505050505050565b9182526001600160a01b0316602082015260400190565b6020808252601b908201527f536166654d6174683a206164646974696f6e206f766572666c6f770000000000604082015260600190565b6020808252600b908201526a0696e636f6d6520697320360ac1b604082015260600190565b6020808252600990820152684e6f2070617965657360b81b604082015260600190565b60208082526018908201527f706179656520616c726561647920686173207368617265730000000000000000604082015260600190565b6020808252601a908201527f536166654d6174683a206469766973696f6e206279207a65726f000000000000604082015260600190565b60208082526021908201527f536166654d6174683a206d756c7469706c69636174696f6e206f766572666c6f6040820152607760f81b606082015260800190565b60208082526015908201527421b0b63632b91034b9903737ba1026b0b730b3b2b960591b604082015260600190565b60208082526019908201527f706179656520697320746865207a65726f206164647265737300000000000000604082015260600190565b60208082526019908201527f506179656573206e6f7420636f6e666967757265642079657400000000000000604082015260600190565b6020808252601c908201527f50617965657320616e6420736861726573206d69736d61746368656400000000604082015260600190565b6020808252600c908201526b07368617265732061726520360a41b604082015260600190565b6020808252601f908201527f5265656e7472616e637947756172643a207265656e7472616e742063616c6c00604082015260600190565b90815260200190565b918252602082015260400190565b60405181810167ffffffffffffffff81118282101715610fc457600080fd5b604052919050565b600067ffffffffffffffff821115610fe2578081fd5b5060209081020190565b6001600160a01b0381168114610ac957600080fdfea2646970667358221220e80ab90844b1c40e69cd90880795076e8775c26f49f20ab0a6ff36edd31d554a64736f6c634300060c0033",
  "immutableReferences": {},
  "source": "// SPDX-License-Identifier: MIT\n\npragma experimental ABIEncoderV2;\npragma solidity 0.6.12;\n\nimport \"@openzeppelin/contracts/math/SafeMath.sol\";\nimport \"@openzeppelin/contracts/utils/ReentrancyGuard.sol\";\nimport \"../libraries/WadRayMath.sol\";\nimport \"../interfaces/ISTABLEX.sol\";\nimport \"./interfaces/IFeeDistributorV1.sol\";\nimport \"./interfaces/IAddressProviderV1.sol\";\n\ncontract FeeDistributorV1 is IFeeDistributorV1, ReentrancyGuard {\n  using SafeMath for uint256;\n\n  event PayeeAdded(address account, uint256 shares);\n  event FeeReleased(uint256 income, uint256 releasedAt);\n\n  uint256 public override lastReleasedAt;\n  IAddressProviderV1 public override a;\n\n  uint256 public override totalShares;\n  mapping(address => uint256) public override shares;\n  address[] public payees;\n\n  modifier onlyManager() {\n    require(a.controller().hasRole(a.controller().MANAGER_ROLE(), msg.sender), \"Caller is not Manager\");\n    _;\n  }\n\n  constructor(IAddressProviderV1 _addresses) public {\n    require(address(_addresses) != address(0));\n    a = _addresses;\n  }\n\n  /**\n    Public function to release the accumulated fee income to the payees.\n    @dev anyone can call this.\n  */\n  function release() public override nonReentrant {\n    uint256 income = a.core().availableIncome();\n    require(income > 0, \"income is 0\");\n    require(payees.length > 0, \"Payees not configured yet\");\n    lastReleasedAt = now;\n\n    // Mint USDX to all receivers\n    for (uint256 i = 0; i < payees.length; i++) {\n      address payee = payees[i];\n      _release(income, payee);\n    }\n    emit FeeReleased(income, lastReleasedAt);\n  }\n\n  /**\n    Get current configured payees.\n    @return array of current payees.\n  */\n  function getPayees() public view override returns (address[] memory) {\n    return payees;\n  }\n\n  /**\n    Internal function to release a percentage of income to a specific payee\n    @dev uses totalShares to calculate correct share\n    @param _totalIncomeReceived Total income for all payees, will be split according to shares\n    @param _payee The address of the payee to whom to distribute the fees.\n  */\n  function _release(uint256 _totalIncomeReceived, address _payee) internal {\n    uint256 payment = _totalIncomeReceived.mul(shares[_payee]).div(totalShares);\n    a.stablex().mint(_payee, payment);\n  }\n\n  /**\n    Internal function to add a new payee.\n    @dev will update totalShares and therefore reduce the relative share of all other payees.\n    @param _payee The address of the payee to add.\n    @param _shares The number of shares owned by the payee.\n  */\n  function _addPayee(address _payee, uint256 _shares) internal {\n    require(_payee != address(0), \"payee is the zero address\");\n    require(_shares > 0, \"shares are 0\");\n    require(shares[_payee] == 0, \"payee already has shares\");\n\n    payees.push(_payee);\n    shares[_payee] = _shares;\n    totalShares = totalShares.add(_shares);\n    emit PayeeAdded(_payee, _shares);\n  }\n\n  /**\n    Updates the payee configuration to a new one.\n    @dev will release existing fees before the update.\n    @param _payees Array of payees\n    @param _shares Array of shares for each payee\n  */\n  function changePayees(address[] memory _payees, uint256[] memory _shares) public override onlyManager {\n    require(_payees.length == _shares.length, \"Payees and shares mismatched\");\n    require(_payees.length > 0, \"No payees\");\n\n    uint256 income = a.core().availableIncome();\n    if (income > 0 && payees.length > 0) {\n      release();\n    }\n\n    for (uint256 i = 0; i < payees.length; i++) {\n      delete shares[payees[i]];\n    }\n    delete payees;\n    totalShares = 0;\n\n    for (uint256 i = 0; i < _payees.length; i++) {\n      _addPayee(_payees[i], _shares[i]);\n    }\n  }\n}\n",
  "sourcePath": "/home/mingyue/sub_contract_content/Web3Bugs/contracts/115/core/contracts/v1/FeeDistributorV1.sol",
  "compiler": {
    "name": "solc",
    "version": "0.6.12+commit.27d51765.Emscripten.clang"
  },
  "schemaVersion": "3.4.7",
  "updatedAt": "2025-02-28T14:09:34.677Z",
  "devdoc": {
    "kind": "dev",
    "methods": {
      "changePayees(address[],uint256[])": {
        "details": "will release existing fees before the update.",
        "params": {
          "_payees": "Array of payees",
          "_shares": "Array of shares for each payee"
        }
      },
      "getPayees()": {
        "returns": {
          "_0": "array of current payees."
        }
      },
      "release()": {
        "details": "anyone can call this."
      }
    },
    "version": 1
  },
  "userdoc": {
    "kind": "user",
    "methods": {
      "changePayees(address[],uint256[])": {
        "notice": "Updates the payee configuration to a new one."
      },
      "getPayees()": {
        "notice": "Get current configured payees."
      },
      "release()": {
        "notice": "Public function to release the accumulated fee income to the payees."
      }
    },
    "version": 1
  }
}