{
  "contractName": "FeeDistributor",
  "abi": [
    {
      "inputs": [
        {
          "internalType": "contract IAddressProvider",
          "name": "_addresses",
          "type": "address"
        }
      ],
      "stateMutability": "nonpayable",
      "type": "constructor"
    },
    {
      "anonymous": false,
      "inputs": [
        {
          "indexed": false,
          "internalType": "uint256",
          "name": "income",
          "type": "uint256"
        },
        {
          "indexed": false,
          "internalType": "uint256",
          "name": "releasedAt",
          "type": "uint256"
        }
      ],
      "name": "FeeReleased",
      "type": "event"
    },
    {
      "anonymous": false,
      "inputs": [
        {
          "indexed": false,
          "internalType": "address",
          "name": "account",
          "type": "address"
        },
        {
          "indexed": false,
          "internalType": "uint256",
          "name": "shares",
          "type": "uint256"
        }
      ],
      "name": "PayeeAdded",
      "type": "event"
    },
    {
      "inputs": [],
      "name": "a",
      "outputs": [
        {
          "internalType": "contract IAddressProvider",
          "name": "",
          "type": "address"
        }
      ],
      "stateMutability": "view",
      "type": "function"
    },
    {
      "inputs": [],
      "name": "lastReleasedAt",
      "outputs": [
        {
          "internalType": "uint256",
          "name": "",
          "type": "uint256"
        }
      ],
      "stateMutability": "view",
      "type": "function"
    },
    {
      "inputs": [
        {
          "internalType": "uint256",
          "name": "",
          "type": "uint256"
        }
      ],
      "name": "payees",
      "outputs": [
        {
          "internalType": "address",
          "name": "",
          "type": "address"
        }
      ],
      "stateMutability": "view",
      "type": "function"
    },
    {
      "inputs": [
        {
          "internalType": "address",
          "name": "",
          "type": "address"
        }
      ],
      "name": "shares",
      "outputs": [
        {
          "internalType": "uint256",
          "name": "",
          "type": "uint256"
        }
      ],
      "stateMutability": "view",
      "type": "function"
    },
    {
      "inputs": [],
      "name": "totalShares",
      "outputs": [
        {
          "internalType": "uint256",
          "name": "",
          "type": "uint256"
        }
      ],
      "stateMutability": "view",
      "type": "function"
    },
    {
      "inputs": [],
      "name": "release",
      "outputs": [],
      "stateMutability": "nonpayable",
      "type": "function"
    },
    {
      "inputs": [
        {
          "internalType": "address[]",
          "name": "_payees",
          "type": "address[]"
        },
        {
          "internalType": "uint256[]",
          "name": "_shares",
          "type": "uint256[]"
        }
      ],
      "name": "changePayees",
      "outputs": [],
      "stateMutability": "nonpayable",
      "type": "function"
    },
    {
      "inputs": [],
      "name": "getPayees",
      "outputs": [
        {
          "internalType": "address[]",
          "name": "",
          "type": "address[]"
        }
      ],
      "stateMutability": "view",
      "type": "function"
    }
  ],
  "bytecode": "0x608060405234801561001057600080fd5b506040516111c03803806111c083398101604081905261002f9161006c565b60016000556001600160a01b03811661004757600080fd5b600280546001600160a01b0319166001600160a01b039290921691909117905561009a565b60006020828403121561007d578081fd5b81516001600160a01b0381168114610093578182fd5b9392505050565b611117806100a96000396000f3fe608060405234801561001057600080fd5b50600436106100885760003560e01c806363037b0c1161005b57806363037b0c146100dd57806386d1a69f146100f0578063acd7af01146100fa578063ce7c2ac21461010d57610088565b80630dbe671f1461008d57806327f38113146100ab5780633a98ef39146100c05780635ac0d9c0146100d5575b600080fd5b610095610120565b6040516100a29190610d7e565b60405180910390f35b6100b361012f565b6040516100a29190610dab565b6100c8610191565b6040516100a2919061106e565b6100c8610197565b6100956100eb366004610d66565b61019d565b6100f86101c4565b005b6100f8610108366004610c4f565b610422565b6100c861011b366004610c33565b61089c565b6002546001600160a01b031681565b6060600580548060200260200160405190810160405280929190818152602001828054801561018757602002820191906000526020600020905b81546001600160a01b03168152600190910190602001808311610169575b5050505050905090565b60035481565b60015481565b600581815481106101aa57fe5b6000918252602090912001546001600160a01b0316905081565b600260005414156101f05760405162461bcd60e51b81526004016101e790611037565b60405180910390fd5b6002600081815590546040805163797a759360e11b815290516001600160a01b039092169163f2f4eb2691600480820192602092909190829003018186803b15801561023b57600080fd5b505afa15801561024f573d6000803e3d6000fd5b505050506040513d601f19601f820116820180604052508101906102739190610d4a565b6001600160a01b031663c19d93fb6040518163ffffffff1660e01b815260040160206040518083038186803b1580156102ab57600080fd5b505afa1580156102bf573d6000803e3d6000fd5b505050506040513d601f19601f820116820180604052508101906102e39190610d4a565b6001600160a01b031663b718ee946040518163ffffffff1660e01b815260040160206040518083038186803b15801561031b57600080fd5b505afa15801561032f573d6000803e3d6000fd5b505050506040513d601f19601f820116820180604052508101906103539190610d32565b9050600081116103755760405162461bcd60e51b81526004016101e790610e46565b6005546103945760405162461bcd60e51b81526004016101e790610fa3565b4260015560005b6005548110156103de576000600582815481106103b457fe5b6000918252602090912001546001600160a01b031690506103d583826108ae565b5060010161039b565b507f7dc312aceee91c2783f79aeeb79290143bd651572571c998630aeedc85afabb381600154604051610412929190611077565b60405180910390a1506001600055565b600260009054906101000a90046001600160a01b03166001600160a01b031663f77c47916040518163ffffffff1660e01b815260040160206040518083038186803b15801561047057600080fd5b505afa158015610484573d6000803e3d6000fd5b505050506040513d601f19601f820116820180604052508101906104a89190610d4a565b6001600160a01b03166391d14854600260009054906101000a90046001600160a01b03166001600160a01b031663f77c47916040518163ffffffff1660e01b815260040160206040518083038186803b15801561050457600080fd5b505afa158015610518573d6000803e3d6000fd5b505050506040513d601f19601f8201168201806040525081019061053c9190610d4a565b6001600160a01b031663ec87621c6040518163ffffffff1660e01b815260040160206040518083038186803b15801561057457600080fd5b505afa158015610588573d6000803e3d6000fd5b505050506040513d601f19601f820116820180604052508101906105ac9190610d32565b336040518363ffffffff1660e01b81526004016105ca929190610df8565b60206040518083038186803b1580156105e257600080fd5b505afa1580156105f6573d6000803e3d6000fd5b505050506040513d601f19601f8201168201806040525081019061061a9190610d12565b6106365760405162461bcd60e51b81526004016101e790610f3d565b80518251146106575760405162461bcd60e51b81526004016101e790610fda565b60008251116106785760405162461bcd60e51b81526004016101e790610e6b565b6002546040805163797a759360e11b815290516000926001600160a01b03169163f2f4eb26916004808301926020929190829003018186803b1580156106bd57600080fd5b505afa1580156106d1573d6000803e3d6000fd5b505050506040513d601f19601f820116820180604052508101906106f59190610d4a565b6001600160a01b031663c19d93fb6040518163ffffffff1660e01b815260040160206040518083038186803b15801561072d57600080fd5b505afa158015610741573d6000803e3d6000fd5b505050506040513d601f19601f820116820180604052508101906107659190610d4a565b6001600160a01b031663b718ee946040518163ffffffff1660e01b815260040160206040518083038186803b15801561079d57600080fd5b505afa1580156107b1573d6000803e3d6000fd5b505050506040513d601f19601f820116820180604052508101906107d59190610d32565b90506000811180156107e8575060055415155b156107f5576107f56101c4565b60005b60055481101561084057600460006005838154811061081357fe5b60009182526020808320909101546001600160a01b031683528201929092526040018120556001016107f8565b5061084d60056000610b8b565b600060038190555b83518110156108965761088e84828151811061086d57fe5b602002602001015184838151811061088157fe5b60200260200101516109cd565b600101610855565b50505050565b60046020526000908152604090205481565b6003546001600160a01b03821660009081526004602052604081205490916108e1916108db908690610af1565b90610b34565b9050600260009054906101000a90046001600160a01b03166001600160a01b03166316d8a5a96040518163ffffffff1660e01b815260040160206040518083038186803b15801561093157600080fd5b505afa158015610945573d6000803e3d6000fd5b505050506040513d601f19601f820116820180604052508101906109699190610d4a565b6001600160a01b03166340c10f1983836040518363ffffffff1660e01b8152600401610996929190610d92565b600060405180830381600087803b1580156109b057600080fd5b505af11580156109c4573d6000803e3d6000fd5b50505050505050565b6001600160a01b0382166109f35760405162461bcd60e51b81526004016101e790610f6c565b60008111610a135760405162461bcd60e51b81526004016101e790611011565b6001600160a01b03821660009081526004602052604090205415610a495760405162461bcd60e51b81526004016101e790610e8e565b60058054600181019091557f036b6384b5eca791c62761152d0c79bb0604c104a5fb6f4eb0703f3154bb3db00180546001600160a01b0319166001600160a01b0384169081179091556000908152600460205260409020819055600354610ab09082610b66565b6003556040517f40c340f65e17194d14ddddb073d3c9f888e3cb52b5aae0c6c7706b4fbc905fac90610ae59084908490610d92565b60405180910390a15050565b600082610b0057506000610b2e565b82820282848281610b0d57fe5b0414610b2b5760405162461bcd60e51b81526004016101e790610efc565b90505b92915050565b6000808211610b555760405162461bcd60e51b81526004016101e790610ec5565b818381610b5e57fe5b049392505050565b600082820183811015610b2b5760405162461bcd60e51b81526004016101e790610e0f565b5080546000825590600052602060002090810190610ba99190610bac565b50565b5b80821115610bc15760008155600101610bad565b5090565b600082601f830112610bd5578081fd5b8135610be8610be3826110ac565b611085565b818152915060208083019084810181840286018201871015610c0957600080fd5b60005b84811015610c2857813584529282019290820190600101610c0c565b505050505092915050565b600060208284031215610c44578081fd5b8135610b2b816110cc565b60008060408385031215610c61578081fd5b823567ffffffffffffffff80821115610c78578283fd5b818501915085601f830112610c8b578283fd5b8135610c99610be3826110ac565b80828252602080830192508086018a828387028901011115610cb9578788fd5b8796505b84871015610ce4578035610cd0816110cc565b845260019690960195928101928101610cbd565b509096508701359350505080821115610cfb578283fd5b50610d0885828601610bc5565b9150509250929050565b600060208284031215610d23578081fd5b81518015158114610b2b578182fd5b600060208284031215610d43578081fd5b5051919050565b600060208284031215610d5b578081fd5b8151610b2b816110cc565b600060208284031215610d77578081fd5b5035919050565b6001600160a01b0391909116815260200190565b6001600160a01b03929092168252602082015260400190565b6020808252825182820181905260009190848201906040850190845b81811015610dec5783516001600160a01b031683529284019291840191600101610dc7565b50909695505050505050565b9182526001600160a01b0316602082015260400190565b6020808252601b908201527f536166654d6174683a206164646974696f6e206f766572666c6f770000000000604082015260600190565b6020808252600b908201526a0696e636f6d6520697320360ac1b604082015260600190565b6020808252600990820152684e6f2070617965657360b81b604082015260600190565b60208082526018908201527f706179656520616c726561647920686173207368617265730000000000000000604082015260600190565b6020808252601a908201527f536166654d6174683a206469766973696f6e206279207a65726f000000000000604082015260600190565b60208082526021908201527f536166654d6174683a206d756c7469706c69636174696f6e206f766572666c6f6040820152607760f81b606082015260800190565b60208082526015908201527421b0b63632b91034b9903737ba1026b0b730b3b2b960591b604082015260600190565b60208082526019908201527f706179656520697320746865207a65726f206164647265737300000000000000604082015260600190565b60208082526019908201527f506179656573206e6f7420636f6e666967757265642079657400000000000000604082015260600190565b6020808252601c908201527f50617965657320616e6420736861726573206d69736d61746368656400000000604082015260600190565b6020808252600c908201526b07368617265732061726520360a41b604082015260600190565b6020808252601f908201527f5265656e7472616e637947756172643a207265656e7472616e742063616c6c00604082015260600190565b90815260200190565b918252602082015260400190565b60405181810167ffffffffffffffff811182821017156110a457600080fd5b604052919050565b600067ffffffffffffffff8211156110c2578081fd5b5060209081020190565b6001600160a01b0381168114610ba957600080fdfea2646970667358221220d90bd0402652c1d6224238bd643bdd36d7dec7daa3ce3235057b3e87b6f0717064736f6c634300060c0033",
  "immutableReferences": {},
  "source": "// SPDX-License-Identifier: MIT\n\npragma experimental ABIEncoderV2;\npragma solidity 0.6.12;\n\nimport \"@openzeppelin/contracts/math/SafeMath.sol\";\nimport \"@openzeppelin/contracts/utils/ReentrancyGuard.sol\";\nimport \"../libraries/WadRayMath.sol\";\nimport \"../interfaces/ISTABLEX.sol\";\nimport \"../interfaces/IFeeDistributor.sol\";\nimport \"../interfaces/IAddressProvider.sol\";\n\ncontract FeeDistributor is IFeeDistributor, ReentrancyGuard {\n  using SafeMath for uint256;\n\n  event PayeeAdded(address account, uint256 shares);\n  event FeeReleased(uint256 income, uint256 releasedAt);\n\n  uint256 public override lastReleasedAt;\n  IAddressProvider public override a;\n\n  uint256 public override totalShares;\n  mapping(address => uint256) public override shares;\n  address[] public payees;\n\n  modifier onlyManager() {\n    require(a.controller().hasRole(a.controller().MANAGER_ROLE(), msg.sender), \"Caller is not Manager\");\n    _;\n  }\n\n  constructor(IAddressProvider _addresses) public {\n    require(address(_addresses) != address(0));\n    a = _addresses;\n  }\n\n  /**\n    Public function to release the accumulated fee income to the payees.\n    @dev anyone can call this.\n  */\n  function release() public override nonReentrant {\n    uint256 income = a.core().state().availableIncome();\n    require(income > 0, \"income is 0\");\n    require(payees.length > 0, \"Payees not configured yet\");\n    lastReleasedAt = now;\n\n    // Mint USDX to all receivers\n    for (uint256 i = 0; i < payees.length; i++) {\n      address payee = payees[i];\n      _release(income, payee);\n    }\n    emit FeeReleased(income, lastReleasedAt);\n  }\n\n  /**\n    Updates the payee configuration to a new one.\n    @dev will release existing fees before the update.\n    @param _payees Array of payees\n    @param _shares Array of shares for each payee\n  */\n  function changePayees(address[] memory _payees, uint256[] memory _shares) public override onlyManager {\n    require(_payees.length == _shares.length, \"Payees and shares mismatched\");\n    require(_payees.length > 0, \"No payees\");\n\n    uint256 income = a.core().state().availableIncome();\n    if (income > 0 && payees.length > 0) {\n      release();\n    }\n\n    for (uint256 i = 0; i < payees.length; i++) {\n      delete shares[payees[i]];\n    }\n    delete payees;\n    totalShares = 0;\n\n    for (uint256 i = 0; i < _payees.length; i++) {\n      _addPayee(_payees[i], _shares[i]);\n    }\n  }\n\n  /**\n    Get current configured payees.\n    @return array of current payees.\n  */\n  function getPayees() public view override returns (address[] memory) {\n    return payees;\n  }\n\n  /**\n    Internal function to release a percentage of income to a specific payee\n    @dev uses totalShares to calculate correct share\n    @param _totalIncomeReceived Total income for all payees, will be split according to shares\n    @param _payee The address of the payee to whom to distribute the fees.\n  */\n  function _release(uint256 _totalIncomeReceived, address _payee) internal {\n    uint256 payment = _totalIncomeReceived.mul(shares[_payee]).div(totalShares);\n    a.stablex().mint(_payee, payment);\n  }\n\n  /**\n    Internal function to add a new payee.\n    @dev will update totalShares and therefore reduce the relative share of all other payees.\n    @param _payee The address of the payee to add.\n    @param _shares The number of shares owned by the payee.\n  */\n  function _addPayee(address _payee, uint256 _shares) internal {\n    require(_payee != address(0), \"payee is the zero address\");\n    require(_shares > 0, \"shares are 0\");\n    require(shares[_payee] == 0, \"payee already has shares\");\n\n    payees.push(_payee);\n    shares[_payee] = _shares;\n    totalShares = totalShares.add(_shares);\n    emit PayeeAdded(_payee, _shares);\n  }\n}\n",
  "sourcePath": "/home/mingyue/sub_contract_content/Web3Bugs/contracts/115/core/contracts/fees/FeeDistributor.sol",
  "compiler": {
    "name": "solc",
    "version": "0.6.12+commit.27d51765.Emscripten.clang"
  },
  "schemaVersion": "3.4.7",
  "updatedAt": "2025-02-28T14:09:34.609Z",
  "devdoc": {
    "kind": "dev",
    "methods": {
      "changePayees(address[],uint256[])": {
        "details": "will release existing fees before the update.",
        "params": {
          "_payees": "Array of payees",
          "_shares": "Array of shares for each payee"
        }
      },
      "getPayees()": {
        "returns": {
          "_0": "array of current payees."
        }
      },
      "release()": {
        "details": "anyone can call this."
      }
    },
    "version": 1
  },
  "userdoc": {
    "kind": "user",
    "methods": {
      "changePayees(address[],uint256[])": {
        "notice": "Updates the payee configuration to a new one."
      },
      "getPayees()": {
        "notice": "Get current configured payees."
      },
      "release()": {
        "notice": "Public function to release the accumulated fee income to the payees."
      }
    },
    "version": 1
  }
}