{
  "contractName": "GenericMiner",
  "abi": [
    {
      "inputs": [
        {
          "internalType": "contract IGovernanceAddressProvider",
          "name": "_addresses",
          "type": "address"
        }
      ],
      "stateMutability": "nonpayable",
      "type": "constructor"
    },
    {
      "anonymous": false,
      "inputs": [
        {
          "indexed": true,
          "internalType": "address",
          "name": "user",
          "type": "address"
        },
        {
          "indexed": false,
          "internalType": "uint256",
          "name": "stake",
          "type": "uint256"
        }
      ],
      "name": "StakeDecreased",
      "type": "event"
    },
    {
      "anonymous": false,
      "inputs": [
        {
          "indexed": true,
          "internalType": "address",
          "name": "user",
          "type": "address"
        },
        {
          "indexed": false,
          "internalType": "uint256",
          "name": "stake",
          "type": "uint256"
        }
      ],
      "name": "StakeIncreased",
      "type": "event"
    },
    {
      "inputs": [],
      "name": "a",
      "outputs": [
        {
          "internalType": "contract IGovernanceAddressProvider",
          "name": "",
          "type": "address"
        }
      ],
      "stateMutability": "view",
      "type": "function"
    },
    {
      "inputs": [],
      "name": "totalStake",
      "outputs": [
        {
          "internalType": "uint256",
          "name": "",
          "type": "uint256"
        }
      ],
      "stateMutability": "view",
      "type": "function"
    },
    {
      "inputs": [
        {
          "internalType": "address",
          "name": "_user",
          "type": "address"
        }
      ],
      "name": "releaseMIMO",
      "outputs": [],
      "stateMutability": "nonpayable",
      "type": "function"
    },
    {
      "inputs": [
        {
          "internalType": "address",
          "name": "_user",
          "type": "address"
        }
      ],
      "name": "stake",
      "outputs": [
        {
          "internalType": "uint256",
          "name": "",
          "type": "uint256"
        }
      ],
      "stateMutability": "view",
      "type": "function"
    },
    {
      "inputs": [
        {
          "internalType": "address",
          "name": "_user",
          "type": "address"
        }
      ],
      "name": "pendingMIMO",
      "outputs": [
        {
          "internalType": "uint256",
          "name": "",
          "type": "uint256"
        }
      ],
      "stateMutability": "view",
      "type": "function"
    },
    {
      "inputs": [
        {
          "internalType": "address",
          "name": "_user",
          "type": "address"
        }
      ],
      "name": "userInfo",
      "outputs": [
        {
          "components": [
            {
              "internalType": "uint256",
              "name": "stake",
              "type": "uint256"
            },
            {
              "internalType": "uint256",
              "name": "accAmountPerShare",
              "type": "uint256"
            }
          ],
          "internalType": "struct IGenericMiner.UserInfo",
          "name": "",
          "type": "tuple"
        }
      ],
      "stateMutability": "view",
      "type": "function"
    }
  ],
  "bytecode": "0x608060405234801561001057600080fd5b5060405161098438038061098483398101604081905261002f91610067565b6001600160a01b03811661004257600080fd5b600280546001600160a01b0319166001600160a01b0392909216919091179055610095565b600060208284031215610078578081fd5b81516001600160a01b038116811461008e578182fd5b9392505050565b6108e0806100a46000396000f3fe608060405234801561001057600080fd5b50600436106100625760003560e01c80630dbe671f146100675780631959a0021461008557806326476204146100a557806360ed390a146100c55780637c284c0a146100da5780638b0e9f3f146100ed575b600080fd5b61006f6100f5565b60405161007c919061075f565b60405180910390f35b6100986100933660046106ef565b610104565b60405161007c9190610872565b6100b86100b33660046106ef565b61013d565b60405161007c9190610889565b6100d86100d33660046106ef565b610158565b005b6100b86100e83660046106ef565b6102c0565b6100b8610458565b6002546001600160a01b031681565b61010c6106d5565b506001600160a01b031660009081526020818152604091829020825180840190935280548352600101549082015290565b6001600160a01b031660009081526020819052604090205490565b6001600160a01b038116600090815260208190526040902061017861045e565b600061019e610196836001015460045461059d90919063ffffffff16565b8354906105d3565b6003549091506101ae908261059d565b60035560048054600184015560025460408051636d9b182360e01b815290516001600160a01b0390921692636d9b1823928282019260209290829003018186803b1580156101fb57600080fd5b505afa15801561020f573d6000803e3d6000fd5b505050506040513d601f19601f82011682018060405250810190610233919061072b565b6001600160a01b031663a9059cbb84836040518363ffffffff1660e01b8152600401610260929190610773565b602060405180830381600087803b15801561027a57600080fd5b505af115801561028e573d6000803e3d6000fd5b505050506040513d601f19601f820116820180604052508101906102b2919061070b565b6102bb57600080fd5b505050565b600080600260009054906101000a90046001600160a01b03166001600160a01b0316636d9b18236040518163ffffffff1660e01b815260040160206040518083038186803b15801561031157600080fd5b505afa158015610325573d6000803e3d6000fd5b505050506040513d601f19601f82011682018060405250810190610349919061072b565b6001600160a01b03166370a08231306040518263ffffffff1660e01b8152600401610374919061075f565b60206040518083038186803b15801561038c57600080fd5b505afa1580156103a0573d6000803e3d6000fd5b505050506040513d601f19601f820116820180604052508101906103c49190610747565b905060006103dd6003548361059d90919063ffffffff16565b905060006104026103f96001548461061290919063ffffffff16565b60045490610644565b6001600160a01b03861660009081526020819052604090206001015490915061044f9061043090839061059d565b6001600160a01b038716600090815260208190526040902054906105d3565b95945050505050565b60015481565b60015461046a5761059b565b60025460408051636d9b182360e01b815290516000926001600160a01b031691636d9b1823916004808301926020929190829003018186803b1580156104af57600080fd5b505afa1580156104c3573d6000803e3d6000fd5b505050506040513d601f19601f820116820180604052508101906104e7919061072b565b6001600160a01b03166370a08231306040518263ffffffff1660e01b8152600401610512919061075f565b60206040518083038186803b15801561052a57600080fd5b505afa15801561053e573d6000803e3d6000fd5b505050506040513d601f19601f820116820180604052508101906105629190610747565b9050600061057b6003548361059d90919063ffffffff16565b6003839055600154909150610595906103f9908390610612565b60045550505b565b6000828211156105c85760405162461bcd60e51b81526004016105bf906107c3565b60405180910390fd5b508082035b92915050565b600061060b6b033b2e3c9fd0803ce80000006106056105f28686610669565b6b019d971e4fe8401e7400000090610644565b906106a3565b9392505050565b60006002820461063c83610605610635876b033b2e3c9fd0803ce8000000610669565b8490610644565b949350505050565b60008282018381101561060b5760405162461bcd60e51b81526004016105bf9061078c565b600082610678575060006105cd565b8282028284828161068557fe5b041461060b5760405162461bcd60e51b81526004016105bf90610831565b60008082116106c45760405162461bcd60e51b81526004016105bf906107fa565b8183816106cd57fe5b049392505050565b604051806040016040528060008152602001600081525090565b600060208284031215610700578081fd5b813561060b81610892565b60006020828403121561071c578081fd5b8151801515811461060b578182fd5b60006020828403121561073c578081fd5b815161060b81610892565b600060208284031215610758578081fd5b5051919050565b6001600160a01b0391909116815260200190565b6001600160a01b03929092168252602082015260400190565b6020808252601b908201527f536166654d6174683a206164646974696f6e206f766572666c6f770000000000604082015260600190565b6020808252601e908201527f536166654d6174683a207375627472616374696f6e206f766572666c6f770000604082015260600190565b6020808252601a908201527f536166654d6174683a206469766973696f6e206279207a65726f000000000000604082015260600190565b60208082526021908201527f536166654d6174683a206d756c7469706c69636174696f6e206f766572666c6f6040820152607760f81b606082015260800190565b815181526020918201519181019190915260400190565b90815260200190565b6001600160a01b03811681146108a757600080fd5b5056fea2646970667358221220161e2679ce1ddacf9c88c94bc5422552f0ff7cfb749ade84ee70ea6556a169af64736f6c634300060c0033",
  "immutableReferences": {},
  "source": "//SPDX-License-Identifier: MIT\npragma experimental ABIEncoderV2;\npragma solidity 0.6.12;\n\nimport \"@openzeppelin/contracts/math/SafeMath.sol\";\nimport \"../libraries/WadRayMath.sol\";\nimport \"./interfaces/IGenericMiner.sol\";\n\n/*\n    GenericMiner is based on ERC2917. https://github.com/gnufoo/ERC2917-Proposal\n\n    The Objective of GenericMiner is to implement a decentralized staking mechanism, which calculates _users' share\n    by accumulating stake * time. And calculates _users revenue from anytime t0 to t1 by the formula below:\n\n        user_accumulated_stake(time1) - user_accumulated_stake(time0)\n       _____________________________________________________________________________  * (gross_stake(t1) - gross_stake(t0))\n       total_accumulated_stake(time1) - total_accumulated_stake(time0)\n\n*/\ncontract GenericMiner is IGenericMiner {\n  using SafeMath for uint256;\n  using WadRayMath for uint256;\n\n  mapping(address => UserInfo) internal _users;\n\n  uint256 public override totalStake;\n  IGovernanceAddressProvider public override a;\n\n  uint256 internal _balanceTracker;\n  uint256 internal _accAmountPerShare;\n\n  constructor(IGovernanceAddressProvider _addresses) public {\n    require(address(_addresses) != address(0));\n    a = _addresses;\n  }\n\n  /**\n    Releases the outstanding MIMO balance to the user.\n    @param _user the address of the user for which the MIMO tokens will be released.\n  */\n  function releaseMIMO(address _user) public virtual override {\n    UserInfo storage userInfo = _users[_user];\n    _refresh();\n    uint256 pending = userInfo.stake.rayMul(_accAmountPerShare.sub(userInfo.accAmountPerShare));\n    _balanceTracker = _balanceTracker.sub(pending);\n    userInfo.accAmountPerShare = _accAmountPerShare;\n    require(a.mimo().transfer(_user, pending));\n  }\n\n  /**\n    Returns the number of tokens a user has staked.\n    @param _user the address of the user.\n    @return number of staked tokens\n  */\n  function stake(address _user) public view override returns (uint256) {\n    return _users[_user].stake;\n  }\n\n  /**\n    Returns the number of tokens a user can claim via `releaseMIMO`.\n    @param _user the address of the user.\n    @return number of MIMO tokens that the user can claim\n  */\n  function pendingMIMO(address _user) public view override returns (uint256) {\n    uint256 currentBalance = a.mimo().balanceOf(address(this));\n    uint256 reward = currentBalance.sub(_balanceTracker);\n    uint256 accAmountPerShare = _accAmountPerShare.add(reward.rayDiv(totalStake));\n\n    return _users[_user].stake.rayMul(accAmountPerShare.sub(_users[_user].accAmountPerShare));\n  }\n\n  /**\n    Returns the userInfo stored of a user.\n    @param _user the address of the user.\n    @return `struct UserInfo {\n      uint256 stake;\n      uint256 rewardDebt;\n    }`\n  **/\n  function userInfo(address _user) public view override returns (UserInfo memory) {\n    return _users[_user];\n  }\n\n  /**\n    Refreshes the global state and subsequently decreases the stake a user has.\n    This is an internal call and meant to be called within derivative contracts.\n    @param user the address of the user\n    @param value the amount by which the stake will be reduced\n  */\n  function _decreaseStake(address user, uint256 value) internal {\n    require(value > 0, \"STAKE_MUST_BE_GREATER_THAN_ZERO\"); //TODO cleanup error message\n\n    UserInfo storage userInfo = _users[user];\n    require(userInfo.stake >= value, \"INSUFFICIENT_STAKE_FOR_USER\"); //TODO cleanup error message\n    _refresh();\n    uint256 pending = userInfo.stake.rayMul(_accAmountPerShare.sub(userInfo.accAmountPerShare));\n    _balanceTracker = _balanceTracker.sub(pending);\n    userInfo.stake = userInfo.stake.sub(value);\n    userInfo.accAmountPerShare = _accAmountPerShare;\n    totalStake = totalStake.sub(value);\n\n    require(a.mimo().transfer(user, pending));\n    emit StakeDecreased(user, value);\n  }\n\n  /**\n    Refreshes the global state and subsequently increases a user's stake.\n    This is an internal call and meant to be called within derivative contracts.\n    @param user the address of the user\n    @param value the amount by which the stake will be increased\n  */\n  function _increaseStake(address user, uint256 value) internal {\n    require(value > 0, \"STAKE_MUST_BE_GREATER_THAN_ZERO\"); //TODO cleanup error message\n\n    UserInfo storage userInfo = _users[user];\n    _refresh();\n\n    uint256 pending;\n    if (userInfo.stake > 0) {\n      pending = userInfo.stake.rayMul(_accAmountPerShare.sub(userInfo.accAmountPerShare));\n      _balanceTracker = _balanceTracker.sub(pending);\n    }\n\n    totalStake = totalStake.add(value);\n    userInfo.stake = userInfo.stake.add(value);\n    userInfo.accAmountPerShare = _accAmountPerShare;\n\n    if (pending > 0) {\n      require(a.mimo().transfer(user, pending));\n    }\n\n    emit StakeIncreased(user, value);\n  }\n\n  /**\n    Refreshes the global state and subsequently updates a user's stake.\n    This is an internal call and meant to be called within derivative contracts.\n    @param user the address of the user\n    @param stake the new amount of stake for the user\n  */\n  function _updateStake(address user, uint256 stake) internal returns (bool) {\n    uint256 oldStake = _users[user].stake;\n    if (stake > oldStake) {\n      _increaseStake(user, stake.sub(oldStake));\n    }\n    if (stake < oldStake) {\n      _decreaseStake(user, oldStake.sub(stake));\n    }\n  }\n\n  /**\n    Internal read function to calculate the number of MIMO tokens that\n    have accumulated since the last token release.\n    @dev This is an internal call and meant to be called within derivative contracts.\n    @return newly accumulated token balance\n  */\n  function _newTokensReceived() internal view returns (uint256) {\n    return a.mimo().balanceOf(address(this)).sub(_balanceTracker);\n  }\n\n  /**\n    Updates the internal state variables after accounting for newly received MIMO tokens.\n  */\n  function _refresh() internal {\n    if (totalStake == 0) {\n      return;\n    }\n    uint256 currentBalance = a.mimo().balanceOf(address(this));\n    uint256 reward = currentBalance.sub(_balanceTracker);\n    _balanceTracker = currentBalance;\n\n    _accAmountPerShare = _accAmountPerShare.add(reward.rayDiv(totalStake));\n  }\n}\n",
  "sourcePath": "/home/mingyue/sub_contract_content/Web3Bugs/contracts/115/core/contracts/liquidityMining/GenericMiner.sol",
  "compiler": {
    "name": "solc",
    "version": "0.6.12+commit.27d51765.Emscripten.clang"
  },
  "schemaVersion": "3.4.7",
  "updatedAt": "2025-02-28T14:09:34.645Z",
  "devdoc": {
    "kind": "dev",
    "methods": {
      "pendingMIMO(address)": {
        "params": {
          "_user": "the address of the user."
        },
        "returns": {
          "_0": "number of MIMO tokens that the user can claim"
        }
      },
      "releaseMIMO(address)": {
        "params": {
          "_user": "the address of the user for which the MIMO tokens will be released."
        }
      },
      "stake(address)": {
        "params": {
          "_user": "the address of the user."
        },
        "returns": {
          "_0": "number of staked tokens"
        }
      },
      "userInfo(address)": {
        "params": {
          "_user": "the address of the user."
        },
        "returns": {
          "_0": "`struct UserInfo { uint256 stake; uint256 rewardDebt; }`*"
        }
      }
    },
    "version": 1
  },
  "userdoc": {
    "kind": "user",
    "methods": {
      "pendingMIMO(address)": {
        "notice": "Returns the number of tokens a user can claim via `releaseMIMO`."
      },
      "releaseMIMO(address)": {
        "notice": "Releases the outstanding MIMO balance to the user."
      },
      "stake(address)": {
        "notice": "Returns the number of tokens a user has staked."
      },
      "userInfo(address)": {
        "notice": "Returns the userInfo stored of a user."
      }
    },
    "version": 1
  }
}