{
  "contractName": "GenericMinerV2",
  "abi": [
    {
      "inputs": [
        {
          "internalType": "contract IGovernanceAddressProvider",
          "name": "_addresses",
          "type": "address"
        },
        {
          "components": [
            {
              "internalType": "uint256",
              "name": "a",
              "type": "uint256"
            },
            {
              "internalType": "uint256",
              "name": "b",
              "type": "uint256"
            },
            {
              "internalType": "uint256",
              "name": "c",
              "type": "uint256"
            },
            {
              "internalType": "uint256",
              "name": "d",
              "type": "uint256"
            },
            {
              "internalType": "uint256",
              "name": "e",
              "type": "uint256"
            },
            {
              "internalType": "uint256",
              "name": "maxBoost",
              "type": "uint256"
            }
          ],
          "internalType": "struct IGenericMinerV2.BoostConfig",
          "name": "boostConfig",
          "type": "tuple"
        }
      ],
      "stateMutability": "nonpayable",
      "type": "constructor"
    },
    {
      "anonymous": false,
      "inputs": [
        {
          "components": [
            {
              "internalType": "uint256",
              "name": "a",
              "type": "uint256"
            },
            {
              "internalType": "uint256",
              "name": "b",
              "type": "uint256"
            },
            {
              "internalType": "uint256",
              "name": "c",
              "type": "uint256"
            },
            {
              "internalType": "uint256",
              "name": "d",
              "type": "uint256"
            },
            {
              "internalType": "uint256",
              "name": "e",
              "type": "uint256"
            },
            {
              "internalType": "uint256",
              "name": "maxBoost",
              "type": "uint256"
            }
          ],
          "indexed": false,
          "internalType": "struct IGenericMinerV2.BoostConfig",
          "name": "",
          "type": "tuple"
        }
      ],
      "name": "BoostConfigSet",
      "type": "event"
    },
    {
      "anonymous": false,
      "inputs": [
        {
          "indexed": true,
          "internalType": "address",
          "name": "user",
          "type": "address"
        },
        {
          "indexed": false,
          "internalType": "uint256",
          "name": "stake",
          "type": "uint256"
        }
      ],
      "name": "StakeDecreased",
      "type": "event"
    },
    {
      "anonymous": false,
      "inputs": [
        {
          "indexed": true,
          "internalType": "address",
          "name": "user",
          "type": "address"
        },
        {
          "indexed": false,
          "internalType": "uint256",
          "name": "stake",
          "type": "uint256"
        }
      ],
      "name": "StakeIncreased",
      "type": "event"
    },
    {
      "inputs": [
        {
          "components": [
            {
              "internalType": "uint256",
              "name": "a",
              "type": "uint256"
            },
            {
              "internalType": "uint256",
              "name": "b",
              "type": "uint256"
            },
            {
              "internalType": "uint256",
              "name": "c",
              "type": "uint256"
            },
            {
              "internalType": "uint256",
              "name": "d",
              "type": "uint256"
            },
            {
              "internalType": "uint256",
              "name": "e",
              "type": "uint256"
            },
            {
              "internalType": "uint256",
              "name": "maxBoost",
              "type": "uint256"
            }
          ],
          "internalType": "struct IGenericMinerV2.BoostConfig",
          "name": "newBoostConfig",
          "type": "tuple"
        }
      ],
      "name": "setBoostConfig",
      "outputs": [],
      "stateMutability": "nonpayable",
      "type": "function"
    },
    {
      "inputs": [
        {
          "internalType": "address",
          "name": "_user",
          "type": "address"
        }
      ],
      "name": "releaseRewards",
      "outputs": [],
      "stateMutability": "nonpayable",
      "type": "function"
    },
    {
      "inputs": [
        {
          "internalType": "address",
          "name": "_user",
          "type": "address"
        }
      ],
      "name": "updateBoost",
      "outputs": [],
      "stateMutability": "nonpayable",
      "type": "function"
    },
    {
      "inputs": [
        {
          "internalType": "address",
          "name": "_user",
          "type": "address"
        }
      ],
      "name": "stake",
      "outputs": [
        {
          "internalType": "uint256",
          "name": "",
          "type": "uint256"
        }
      ],
      "stateMutability": "view",
      "type": "function"
    },
    {
      "inputs": [
        {
          "internalType": "address",
          "name": "_user",
          "type": "address"
        }
      ],
      "name": "stakeWithBoost",
      "outputs": [
        {
          "internalType": "uint256",
          "name": "",
          "type": "uint256"
        }
      ],
      "stateMutability": "view",
      "type": "function"
    },
    {
      "inputs": [
        {
          "internalType": "address",
          "name": "_user",
          "type": "address"
        }
      ],
      "name": "pendingMIMO",
      "outputs": [
        {
          "internalType": "uint256",
          "name": "",
          "type": "uint256"
        }
      ],
      "stateMutability": "view",
      "type": "function"
    },
    {
      "inputs": [
        {
          "internalType": "address",
          "name": "_user",
          "type": "address"
        }
      ],
      "name": "pendingPAR",
      "outputs": [
        {
          "internalType": "uint256",
          "name": "",
          "type": "uint256"
        }
      ],
      "stateMutability": "view",
      "type": "function"
    },
    {
      "inputs": [],
      "name": "par",
      "outputs": [
        {
          "internalType": "contract IERC20",
          "name": "",
          "type": "address"
        }
      ],
      "stateMutability": "view",
      "type": "function"
    },
    {
      "inputs": [],
      "name": "a",
      "outputs": [
        {
          "internalType": "contract IGovernanceAddressProvider",
          "name": "",
          "type": "address"
        }
      ],
      "stateMutability": "view",
      "type": "function"
    },
    {
      "inputs": [],
      "name": "boostConfig",
      "outputs": [
        {
          "components": [
            {
              "internalType": "uint256",
              "name": "a",
              "type": "uint256"
            },
            {
              "internalType": "uint256",
              "name": "b",
              "type": "uint256"
            },
            {
              "internalType": "uint256",
              "name": "c",
              "type": "uint256"
            },
            {
              "internalType": "uint256",
              "name": "d",
              "type": "uint256"
            },
            {
              "internalType": "uint256",
              "name": "e",
              "type": "uint256"
            },
            {
              "internalType": "uint256",
              "name": "maxBoost",
              "type": "uint256"
            }
          ],
          "internalType": "struct IGenericMinerV2.BoostConfig",
          "name": "",
          "type": "tuple"
        }
      ],
      "stateMutability": "view",
      "type": "function"
    },
    {
      "inputs": [],
      "name": "totalStake",
      "outputs": [
        {
          "internalType": "uint256",
          "name": "",
          "type": "uint256"
        }
      ],
      "stateMutability": "view",
      "type": "function"
    },
    {
      "inputs": [],
      "name": "totalStakeWithBoost",
      "outputs": [
        {
          "internalType": "uint256",
          "name": "",
          "type": "uint256"
        }
      ],
      "stateMutability": "view",
      "type": "function"
    },
    {
      "inputs": [
        {
          "internalType": "address",
          "name": "_user",
          "type": "address"
        }
      ],
      "name": "userInfo",
      "outputs": [
        {
          "components": [
            {
              "internalType": "uint256",
              "name": "stake",
              "type": "uint256"
            },
            {
              "internalType": "uint256",
              "name": "stakeWithBoost",
              "type": "uint256"
            },
            {
              "internalType": "uint256",
              "name": "accAmountPerShare",
              "type": "uint256"
            },
            {
              "internalType": "uint256",
              "name": "accParAmountPerShare",
              "type": "uint256"
            }
          ],
          "internalType": "struct IGenericMinerV2.UserInfo",
          "name": "",
          "type": "tuple"
        }
      ],
      "stateMutability": "view",
      "type": "function"
    }
  ],
  "bytecode": "0x60c06040523480156200001157600080fd5b506040516200294638038062002946833981016040819052620000349162000258565b6001600160a01b038216620000665760405162461bcd60e51b81526004016200005d90620002f6565b60405180910390fd5b816001600160a01b031660a0816001600160a01b031660601b81525050816001600160a01b0316633df06b596040518163ffffffff1660e01b815260040160206040518083038186803b158015620000bd57600080fd5b505afa158015620000d2573d6000803e3d6000fd5b505050506040513d601f19601f82011682018060405250810190620000f8919062000232565b6001600160a01b03166316d8a5a96040518163ffffffff1660e01b815260040160206040518083038186803b1580156200013157600080fd5b505afa15801562000146573d6000803e3d6000fd5b505050506040513d601f19601f820116820180604052508101906200016c919062000232565b60601b6001600160601b031916608052805160011180159062000193575060008160600151115b8015620001a5575060018160a0015110155b620001c45760405162461bcd60e51b81526004016200005d9062000315565b8051600090815560208201516001556040808301516002556060830151600355608083015160045560a0830151600555517fdea57d5dd436931497612044567596798f2599acfc00861392dd6c8466c8e6f191620002229162000334565b60405180910390a150506200038a565b60006020828403121562000244578081fd5b8151620002518162000371565b9392505050565b60008082840360e08112156200026c578182fd5b8351620002798162000371565b925060c0601f19820112156200028d578182fd5b5060405160c081016001600160401b0381118282101715620002ad578283fd5b80604052506020840151815260408401516020820152606084015160408201526080840151606082015260a0840151608082015260c084015160a0820152809150509250929050565b60208082526005908201526404c4d3030360dc1b604082015260600190565b60208082526005908201526413134c0c0d60da1b604082015260600190565b815481526001820154602082015260028201546040820152600382015460608201526004820154608082015260059091015460a082015260c00190565b6001600160a01b03811681146200038757600080fd5b50565b60805160601c60a05160601c612565620003e1600039806101d552806104a052806105af52806108c25280610b5e5280610dca528061101152508061026e5280610a095280610cf75280610eda52506125656000f3fe608060405234801561001057600080fd5b50600436106100cf5760003560e01c80638b0e9f3f1161008c578063be34735511610066578063be34735514610190578063cf275967146101a3578063d76da20c146101b8578063f5989e77146101c0576100cf565b80638b0e9f3f14610162578063a3898c071461016a578063a91ea1ba1461017d576100cf565b80630dbe671f146100d45780631959a002146100f25780632647620414610112578063495d32cb14610132578063610edec21461013a5780637c284c0a1461014f575b600080fd5b6100dc6101d3565b6040516100e991906122bc565b60405180910390f35b6101056101003660046121d7565b6101f7565b6040516100e991906124e3565b6101256101203660046121d7565b610251565b6040516100e9919061250e565b6100dc61026c565b61014d6101483660046121d7565b610290565b005b61012561015d3660046121d7565b61030c565b610125610372565b6101256101783660046121d7565b610378565b61014d61018b3660046121d7565b6103d7565b61012561019e3660046121d7565b610435565b6101ab610453565b6040516100e99190612462565b610125610498565b61014d6101ce366004612247565b61049e565b7f000000000000000000000000000000000000000000000000000000000000000090565b6101ff612179565b506001600160a01b03811660009081526006602090815260409182902082516080810184528154815260018201549281019290925260028101549282019290925260039091015460608201525b919050565b6001600160a01b031660009081526006602052604090205490565b7f000000000000000000000000000000000000000000000000000000000000000090565b610298612179565b506001600160a01b03811660009081526006602090815260409182902082516080810184528154815260018201549281019290925260028101549282019290925260039091015460608201526102ee828261085b565b600a546040820152600c5460608201526103088282610ab4565b5050565b6000610316612179565b506001600160a01b0382166000908152600660209081526040918290208251608081018452815481526001820154928101839052600282015493810184905260039091015460608201529161036b9190610b45565b9392505050565b60075490565b6000610382612179565b506001600160a01b0382166000908152600660209081526040918290208251608081018452815481526001820154928101839052600282015493810193909352600301546060830181905261036b9190610cc8565b6103df612179565b506001600160a01b03811660009081526006602090815260409182902082516080810184528154815260018201549281019290925260028101549282019290925260039091015460608201526103088282610ab4565b6001600160a01b031660009081526006602052604090206001015490565b61045b6121a1565b506040805160c08101825260005481526001546020820152600254918101919091526003546060820152600454608082015260055460a082015290565b60085490565b7f00000000000000000000000000000000000000000000000000000000000000006001600160a01b0316633df06b596040518163ffffffff1660e01b815260040160206040518083038186803b1580156104f757600080fd5b505afa15801561050b573d6000803e3d6000fd5b505050506040513d601f19601f8201168201806040525081019061052f919061222b565b6001600160a01b031663f77c47916040518163ffffffff1660e01b815260040160206040518083038186803b15801561056757600080fd5b505afa15801561057b573d6000803e3d6000fd5b505050506040513d601f19601f8201168201806040525081019061059f919061222b565b6001600160a01b03166391d148547f00000000000000000000000000000000000000000000000000000000000000006001600160a01b0316633df06b596040518163ffffffff1660e01b815260040160206040518083038186803b15801561060657600080fd5b505afa15801561061a573d6000803e3d6000fd5b505050506040513d601f19601f8201168201806040525081019061063e919061222b565b6001600160a01b031663f77c47916040518163ffffffff1660e01b815260040160206040518083038186803b15801561067657600080fd5b505afa15801561068a573d6000803e3d6000fd5b505050506040513d601f19601f820116820180604052508101906106ae919061222b565b6001600160a01b031663ec87621c6040518163ffffffff1660e01b815260040160206040518083038186803b1580156106e657600080fd5b505afa1580156106fa573d6000803e3d6000fd5b505050506040513d601f19601f8201168201806040525081019061071e9190612213565b336040518363ffffffff1660e01b815260040161073c9291906122e9565b60206040518083038186803b15801561075457600080fd5b505afa158015610768573d6000803e3d6000fd5b505050506040513d601f19601f8201168201806040525081019061078c91906121f3565b6107b15760405162461bcd60e51b81526004016107a890612424565b60405180910390fd5b80516001118015906107c7575060008160600151115b80156107d8575060018160a0015110155b6107f45760405162461bcd60e51b81526004016107a8906123a5565b8051600090815560208201516001556040808301516002556060830151600355608083015160045560a0830151600555517fdea57d5dd436931497612044567596798f2599acfc00861392dd6c8466c8e6f191610850916124a6565b60405180910390a150565b600061086f82602001518360400151610b45565b9050600061088583602001518460600151610cc8565b905061088f610dba565b6020830151156108ba576009546108a69083610fe4565b600955600b546108b69082610fe4565b600b555b81156109ec577f00000000000000000000000000000000000000000000000000000000000000006001600160a01b0316636d9b18236040518163ffffffff1660e01b815260040160206040518083038186803b15801561091957600080fd5b505afa15801561092d573d6000803e3d6000fd5b505050506040513d601f19601f82011682018060405250810190610951919061222b565b6001600160a01b031663a9059cbb85846040518363ffffffff1660e01b815260040161097e9291906122d0565b602060405180830381600087803b15801561099857600080fd5b505af11580156109ac573d6000803e3d6000fd5b505050506040513d601f19601f820116820180604052508101906109d091906121f3565b6109ec5760405162461bcd60e51b81526004016107a890612405565b8015610aae5760405163a9059cbb60e01b81526001600160a01b037f0000000000000000000000000000000000000000000000000000000000000000169063a9059cbb90610a4090879085906004016122d0565b602060405180830381600087803b158015610a5a57600080fd5b505af1158015610a6e573d6000803e3d6000fd5b505050506040513d601f19601f82011682018060405250810190610a9291906121f3565b610aae5760405162461bcd60e51b81526004016107a890612405565b50505050565b602081015115610ad3576020810151600854610acf91610fe4565b6008555b6000610ade8361100c565b8251909150610aed9082611275565b60208301819052600854610b00916112a9565b600855506001600160a01b0390911660009081526006602090815260409182902083518155908301516001820155908201516002820155606090910151600390910155565b600060085460001415610b5a57506000610cc2565b60007f00000000000000000000000000000000000000000000000000000000000000006001600160a01b0316636d9b18236040518163ffffffff1660e01b815260040160206040518083038186803b158015610bb557600080fd5b505afa158015610bc9573d6000803e3d6000fd5b505050506040513d601f19601f82011682018060405250810190610bed919061222b565b6001600160a01b03166370a08231306040518263ffffffff1660e01b8152600401610c1891906122bc565b60206040518083038186803b158015610c3057600080fd5b505afa158015610c44573d6000803e3d6000fd5b505050506040513d601f19601f82011682018060405250810190610c689190612213565b90506000610c8160095483610fe490919063ffffffff16565b90506000610ca6610c9d600854846112ce90919063ffffffff16565b600a54906112a9565b9050610cbc610cb58287610fe4565b8790611300565b93505050505b92915050565b600060085460001415610cdd57506000610cc2565b6040516370a0823160e01b81526000906001600160a01b037f000000000000000000000000000000000000000000000000000000000000000016906370a0823190610d2c9030906004016122bc565b60206040518083038186803b158015610d4457600080fd5b505afa158015610d58573d6000803e3d6000fd5b505050506040513d601f19601f82011682018060405250810190610d7c9190612213565b90506000610d95600b5483610fe490919063ffffffff16565b90506000610ca6610db1600854846112ce90919063ffffffff16565b600c54906112a9565b600754610dc657610fe2565b60007f00000000000000000000000000000000000000000000000000000000000000006001600160a01b0316636d9b18236040518163ffffffff1660e01b815260040160206040518083038186803b158015610e2157600080fd5b505afa158015610e35573d6000803e3d6000fd5b505050506040513d601f19601f82011682018060405250810190610e59919061222b565b6001600160a01b03166370a08231306040518263ffffffff1660e01b8152600401610e8491906122bc565b60206040518083038186803b158015610e9c57600080fd5b505afa158015610eb0573d6000803e3d6000fd5b505050506040513d601f19601f82011682018060405250810190610ed49190612213565b905060007f00000000000000000000000000000000000000000000000000000000000000006001600160a01b03166370a08231306040518263ffffffff1660e01b8152600401610f2491906122bc565b60206040518083038186803b158015610f3c57600080fd5b505afa158015610f50573d6000803e3d6000fd5b505050506040513d601f19601f82011682018060405250810190610f749190612213565b90506000610f8d60095484610fe490919063ffffffff16565b90506000610fa6600b5484610fe490919063ffffffff16565b6009859055600854909150610fc090610c9d9084906112ce565b600a55600b839055600854610fda90610db19083906112ce565b600c55505050505b565b6000828211156110065760405162461bcd60e51b81526004016107a890612337565b50900390565b6000807f00000000000000000000000000000000000000000000000000000000000000006001600160a01b0316634f2bfe5b6040518163ffffffff1660e01b815260040160206040518083038186803b15801561106857600080fd5b505afa15801561107c573d6000803e3d6000fd5b505050506040513d601f19601f820116820180604052508101906110a0919061222b565b6001600160a01b03166370a08231846040518263ffffffff1660e01b81526004016110cb91906122bc565b60206040518083038186803b1580156110e357600080fd5b505afa1580156110f7573d6000803e3d6000fd5b505050506040513d601f19601f8201168201806040525081019061111b9190612213565b90508061113357670de0b6b3a764000091505061024c565b6000805461114090611333565b90506000611152600060010154611333565b90506000611164600060020154611333565b90506000611176600060040154611333565b9050600061118b670de0b6b3a7640000611333565b60035490915060009061119f908890611351565b905060006111b1600f83900b85611388565b905060006111c182600f0b6113bc565b905060006111d182600f0b6113de565b905060006111e3600f83900b89611433565b905060006112028b6111f9600f8d900b85611466565b600f0b90611433565b9050600061121f611217600f84900b8a6114b8565b600f0b6114ee565b905067ffffffffffffffff8116670de0b6b3a7640000811080159061124657506005548111155b6112625760405162461bcd60e51b81526004016107a890612443565b9f9e505050505050505050505050505050565b600061036b670de0b6b3a76400006112a3611290868661150a565b6002670de0b6b3a76400005b04906112a9565b90611544565b60008282018381101561036b5760405162461bcd60e51b81526004016107a890612300565b6000600282046112f8836112a36112f1876b033b2e3c9fd0803ce800000061150a565b84906112a9565b949350505050565b600061036b6b033b2e3c9fd0803ce80000006112a361131f868661150a565b60026b033b2e3c9fd0803ce800000061129c565b6000677fffffffffffffff82111561134a57600080fd5b5060401b90565b60008161135d57600080fd5b60006113698484611576565b905060016001607f1b036001600160801b038216111561036b57600080fd5b6000600f82810b9084900b0360016001607f1b031981128015906113b3575060016001607f1b038113155b61036b57600080fd5b6000600f82900b60016001607f1b031914156113d757600080fd5b5060000390565b6000600160461b82600f0b126113f357600080fd5b683fffffffffffffffff1982600f0b12156114105750600061024c565b610cc2608083600f0b700171547652b82fe1777d0ffda0d23a7d1202901d6116c0565b6000600f83810b9083900b0160016001607f1b031981128015906113b3575060016001607f1b0381131561036b57600080fd5b600081600f0b6000141561147957600080fd5b600082600f0b604085600f0b901b8161148e57fe5b05905060016001607f1b031981128015906113b3575060016001607f1b0381131561036b57600080fd5b6000600f83810b9083900b0260401d60016001607f1b031981128015906113b3575060016001607f1b0381131561036b57600080fd5b60008082600f0b121561150057600080fd5b50600f0b60401d90565b60008261151957506000610cc2565b8282028284828161152657fe5b041461036b5760405162461bcd60e51b81526004016107a8906123c4565b60008082116115655760405162461bcd60e51b81526004016107a89061236e565b81838161156e57fe5b049392505050565b60008161158257600080fd5b60006001600160c01b0384116115a75782604085901b8161159f57fe5b0490506116ac565b60c084811c64010000000081106115c0576020918201911c5b6201000081106115d2576010918201911c5b61010081106115e3576008918201911c5b601081106115f3576004918201911c5b60048110611603576002918201911c5b60028110611612576001820191505b60bf820360018603901c6001018260ff0387901b8161162d57fe5b0492506001600160801b0383111561164457600080fd5b608085901c83026001600160801b038616840260c088901c604089901b82811015611670576001820391505b608084901b92900382811015611687576001820391505b829003608084901c821461169757fe5b8881816116a057fe5b04870196505050505050505b6001600160801b0381111561036b57600080fd5b6000600160461b82600f0b126116d557600080fd5b683fffffffffffffffff1982600f0b12156116f25750600061024c565b6001607f1b60006780000000000000008416600f0b13156117245770016a09e667f3bcc908b2fb1366ea957d3e0260801c5b60008367400000000000000016600f0b1315611751577001306fe0a31b7152de8d5a46305c85edec0260801c5b60008367200000000000000016600f0b131561177e577001172b83c7d517adcdf7c8c50eb14a791f0260801c5b60008367100000000000000016600f0b13156117ab5770010b5586cf9890f6298b92b71842a983630260801c5b60008367080000000000000016600f0b13156117d8577001059b0d31585743ae7c548eb68ca417fd0260801c5b60008367040000000000000016600f0b131561180557700102c9a3e778060ee6f7caca4f7a29bde80260801c5b60008367020000000000000016600f0b13156118325770010163da9fb33356d84a66ae336dcdfa3f0260801c5b60008367010000000000000016600f0b131561185f57700100b1afa5abcbed6129ab13ec11dc95430260801c5b600083668000000000000016600f0b131561188b5770010058c86da1c09ea1ff19d294cf2f679b0260801c5b600083664000000000000016600f0b13156118b7577001002c605e2e8cec506d21bfc89a23a00f0260801c5b600083662000000000000016600f0b13156118e357700100162f3904051fa128bca9c55c31e5df0260801c5b600083661000000000000016600f0b131561190f577001000b175effdc76ba38e31671ca9397250260801c5b600083660800000000000016600f0b131561193b57700100058ba01fb9f96d6cacd4b180917c3d0260801c5b600083660400000000000016600f0b13156119675770010002c5cc37da9491d0985c348c68e7b30260801c5b600083660200000000000016600f0b1315611993577001000162e525ee054754457d59952920260260801c5b600083660100000000000016600f0b13156119bf5770010000b17255775c040618bf4a4ade83fc0260801c5b6000836580000000000016600f0b13156119ea577001000058b91b5bc9ae2eed81e9b7d4cfab0260801c5b6000836540000000000016600f0b1315611a1557700100002c5c89d5ec6ca4d7c8acc017b7c90260801c5b6000836520000000000016600f0b1315611a405770010000162e43f4f831060e02d839a9d16d0260801c5b6000836510000000000016600f0b1315611a6b57700100000b1721bcfc99d9f890ea069117630260801c5b6000836508000000000016600f0b1315611a965770010000058b90cf1e6d97f9ca14dbcc16280260801c5b6000836504000000000016600f0b1315611ac1577001000002c5c863b73f016468f6bac5ca2b0260801c5b6000836502000000000016600f0b1315611aec57700100000162e430e5a18f6119e3c02282a50260801c5b6000836501000000000016600f0b1315611b17577001000000b1721835514b86e6d96efd1bfe0260801c5b60008364800000000016600f0b1315611b4157700100000058b90c0b48c6be5df846c5b2ef0260801c5b60008364400000000016600f0b1315611b6b5770010000002c5c8601cc6b9e94213c72737a0260801c5b60008364200000000016600f0b1315611b95577001000000162e42fff037df38aa2b219f060260801c5b60008364100000000016600f0b1315611bbf5770010000000b17217fba9c739aa5819f44f90260801c5b60008364080000000016600f0b1315611be9577001000000058b90bfcdee5acd3c1cedc8230260801c5b60008364040000000016600f0b1315611c1357700100000002c5c85fe31f35a6a30da1be500260801c5b60008364020000000016600f0b1315611c3d5770010000000162e42ff0999ce3541b9fffcf0260801c5b60008364010000000016600f0b1315611c6757700100000000b17217f80f4ef5aadda455540260801c5b600083638000000016600f0b1315611c905770010000000058b90bfbf8479bd5a81b51ad0260801c5b600083634000000016600f0b1315611cb9577001000000002c5c85fdf84bd62ae30a74cc0260801c5b600083632000000016600f0b1315611ce257700100000000162e42fefb2fed257559bdaa0260801c5b600083631000000016600f0b1315611d0b577001000000000b17217f7d5a7716bba4a9ae0260801c5b600083630800000016600f0b1315611d3457700100000000058b90bfbe9ddbac5e109cce0260801c5b600083630400000016600f0b1315611d5d5770010000000002c5c85fdf4b15de6f17eb0d0260801c5b600083630200000016600f0b1315611d86577001000000000162e42fefa494f1478fde050260801c5b600083630100000016600f0b1315611daf5770010000000000b17217f7d20cf927c8e94c0260801c5b6000836280000016600f0b1315611dd7577001000000000058b90bfbe8f71cb4e4b33d0260801c5b6000836240000016600f0b1315611dff57700100000000002c5c85fdf477b662b269450260801c5b6000836220000016600f0b1315611e275770010000000000162e42fefa3ae53369388c0260801c5b6000836210000016600f0b1315611e4f57700100000000000b17217f7d1d351a389d400260801c5b6000836208000016600f0b1315611e775770010000000000058b90bfbe8e8b2d3d4ede0260801c5b6000836204000016600f0b1315611e9f577001000000000002c5c85fdf4741bea6e77e0260801c5b6000836202000016600f0b1315611ec757700100000000000162e42fefa39fe95583c20260801c5b6000836201000016600f0b1315611eef577001000000000000b17217f7d1cfb72b45e10260801c5b60008361800016600f0b1315611f1657700100000000000058b90bfbe8e7cc35c3f00260801c5b60008361400016600f0b1315611f3d5770010000000000002c5c85fdf473e242ea380260801c5b60008361200016600f0b1315611f64577001000000000000162e42fefa39f02b772c0260801c5b60008361100016600f0b1315611f8b5770010000000000000b17217f7d1cf7d83c1a0260801c5b60008361080016600f0b1315611fb2577001000000000000058b90bfbe8e7bdcbe2e0260801c5b60008361040016600f0b1315611fd957700100000000000002c5c85fdf473dea871f0260801c5b60008361020016600f0b13156120005770010000000000000162e42fefa39ef44d910260801c5b60008361010016600f0b131561202757700100000000000000b17217f7d1cf79e9490260801c5b600083608016600f0b131561204d5770010000000000000058b90bfbe8e7bce5440260801c5b600083604016600f0b1315612073577001000000000000002c5c85fdf473de6eca0260801c5b600083602016600f0b131561209957700100000000000000162e42fefa39ef366f0260801c5b600083601016600f0b13156120bf577001000000000000000b17217f7d1cf79afa0260801c5b600083600816600f0b13156120e557700100000000000000058b90bfbe8e7bcd6d0260801c5b600083600416600f0b131561210b5770010000000000000002c5c85fdf473de6b20260801c5b600083600216600f0b1315612131577001000000000000000162e42fefa39ef3580260801c5b600083600116600f0b13156121575770010000000000000000b17217f7d1cf79ab0260801c5b600f83810b60401d603f03900b1c60016001607f1b03811115610cc257600080fd5b6040518060800160405280600081526020016000815260200160008152602001600081525090565b6040518060c001604052806000815260200160008152602001600081526020016000815260200160008152602001600081525090565b6000602082840312156121e8578081fd5b813561036b81612517565b600060208284031215612204578081fd5b8151801515811461036b578182fd5b600060208284031215612224578081fd5b5051919050565b60006020828403121561223c578081fd5b815161036b81612517565b600060c08284031215612258578081fd5b60405160c0810181811067ffffffffffffffff82111715612277578283fd5b8060405250823581526020830135602082015260408301356040820152606083013560608201526080830135608082015260a083013560a08201528091505092915050565b6001600160a01b0391909116815260200190565b6001600160a01b03929092168252602082015260400190565b9182526001600160a01b0316602082015260400190565b6020808252601b908201527f536166654d6174683a206164646974696f6e206f766572666c6f770000000000604082015260600190565b6020808252601e908201527f536166654d6174683a207375627472616374696f6e206f766572666c6f770000604082015260600190565b6020808252601a908201527f536166654d6174683a206469766973696f6e206279207a65726f000000000000604082015260600190565b60208082526005908201526413134c0c0d60da1b604082015260600190565b60208082526021908201527f536166654d6174683a206d756c7469706c69636174696f6e206f766572666c6f6040820152607760f81b606082015260800190565b60208082526005908201526404c4d3130360dc1b604082015260600190565b60208082526005908201526404c4d3031360dc1b604082015260600190565b6020808252600590820152644c4d31303360d81b604082015260600190565b600060c082019050825182526020830151602083015260408301516040830152606083015160608301526080830151608083015260a083015160a083015292915050565b815481526001820154602082015260028201546040820152600382015460608201526004820154608082015260059091015460a082015260c00190565b8151815260208083015190820152604080830151908201526060918201519181019190915260800190565b90815260200190565b6001600160a01b038116811461252c57600080fd5b5056fea264697066735822122086d8063e73ea7e1dc26c03d08cf22114343aec698f82227637c8bd767a07a59e64736f6c634300060c0033",
  "immutableReferences": {
    "23813": [
      {
        "length": 32,
        "start": 622
      },
      {
        "length": 32,
        "start": 2569
      },
      {
        "length": 32,
        "start": 3319
      },
      {
        "length": 32,
        "start": 3802
      }
    ],
    "23815": [
      {
        "length": 32,
        "start": 469
      },
      {
        "length": 32,
        "start": 1184
      },
      {
        "length": 32,
        "start": 1455
      },
      {
        "length": 32,
        "start": 2242
      },
      {
        "length": 32,
        "start": 2910
      },
      {
        "length": 32,
        "start": 3530
      },
      {
        "length": 32,
        "start": 4113
      }
    ]
  },
  "source": "// SPDX-License-Identifier: MIT\n\npragma experimental ABIEncoderV2;\npragma solidity 0.6.12;\n\nimport \"@openzeppelin/contracts/token/ERC20/IERC20.sol\";\nimport \"@openzeppelin/contracts/math/SafeMath.sol\";\nimport \"./interfaces/IGenericMinerV2.sol\";\nimport \"../../libraries/WadRayMath.sol\";\nimport \"../../libraries/ABDKMath64x64.sol\";\n\n/*\n    GenericMiner is based on ERC2917. https://github.com/gnufoo/ERC2917-Proposal\n\n    The Objective of GenericMiner is to implement a decentralized staking mechanism, which calculates _users' share\n    by accumulating stake * time. And calculates _users revenue from anytime t0 to t1 by the formula below:\n\n        user_accumulated_stake(time1) - user_accumulated_stake(time0)\n       _____________________________________________________________________________  * (gross_stake(t1) - gross_stake(t0))\n       total_accumulated_stake(time1) - total_accumulated_stake(time0)\n\n    The boost feature reuses the same principle and applies a multiplier to the stake.\n\n    The boost multiplier formula is the following : a + b / (c + e^-((veMIMO / d) - e))\n*/\n\ncontract GenericMinerV2 is IGenericMinerV2 {\n  using ABDKMath64x64 for int128;\n  using ABDKMath64x64 for uint256;\n  using SafeMath for uint256;\n  using WadRayMath for uint256;\n\n  IERC20 internal immutable _par;\n  IGovernanceAddressProvider internal immutable _a;\n\n  BoostConfig internal _boostConfig;\n\n  mapping(address => UserInfo) internal _users;\n\n  uint256 internal _totalStake;\n  uint256 internal _totalStakeWithBoost;\n\n  uint256 internal _mimoBalanceTracker;\n  uint256 internal _accMimoAmountPerShare;\n\n  uint256 internal _parBalanceTracker;\n  uint256 internal _accParAmountPerShare;\n\n  modifier onlyManager {\n    require(_a.parallel().controller().hasRole(_a.parallel().controller().MANAGER_ROLE(), msg.sender), \"LM010\");\n    _;\n  }\n\n  constructor(IGovernanceAddressProvider _addresses, BoostConfig memory boostConfig) public {\n    require(address(_addresses) != address(0), \"LM000\");\n    _a = _addresses;\n    _par = IERC20(_addresses.parallel().stablex());\n    require(boostConfig.a >= 1 && boostConfig.d > 0 && boostConfig.maxBoost >= 1, \"LM004\");\n    _boostConfig = boostConfig;\n\n    emit BoostConfigSet(_boostConfig);\n  }\n\n  /**\n    Sets new boost config\n    @dev can only be called by protocol manager\n    @param newBoostConfig contains all boost multiplier parameters, see {IGenericMinerV2 - BoostConfig}\n   */\n  function setBoostConfig(BoostConfig memory newBoostConfig) external onlyManager {\n    require(newBoostConfig.a >= 1 && newBoostConfig.d > 0 && newBoostConfig.maxBoost >= 1, \"LM004\");\n    _boostConfig = newBoostConfig;\n\n    emit BoostConfigSet(_boostConfig);\n  }\n\n  /**\n    Releases outstanding rewards balances to the user\n    @param _user the address of the user for which the reward tokens will be released\n  */\n  function releaseRewards(address _user) public virtual override {\n    UserInfo memory _userInfo = _users[_user];\n    _releaseRewards(_user, _userInfo);\n    _userInfo.accAmountPerShare = _accMimoAmountPerShare;\n    _userInfo.accParAmountPerShare = _accParAmountPerShare;\n    _updateBoost(_user, _userInfo);\n  }\n\n  /**\n    Reapplies the boost of the user, useful if a whale's vMIMO has decreased but their boost is still the original value\n  */\n  function updateBoost(address _user) public {\n    UserInfo memory userInfo = _users[_user];\n    _updateBoost(_user, userInfo);\n  }\n\n  /**\n    Returns the number of tokens a user has staked\n    @param _user the address of the user\n    @return number of staked tokens\n  */\n  function stake(address _user) public view override returns (uint256) {\n    return _users[_user].stake;\n  }\n\n  /**\n    Returns the number of tokens a user has staked with the boost\n    @param _user the address of the user\n    @return number of staked tokens with boost\n  */\n  function stakeWithBoost(address _user) public view override returns (uint256) {\n    return _users[_user].stakeWithBoost;\n  }\n\n  /**\n    Returns the number of tokens a user can claim via `releaseMIMO`\n    @param _user the address of the user\n    @return number of MIMO tokens that the user can claim\n  */\n  function pendingMIMO(address _user) public view override returns (uint256) {\n    UserInfo memory _userInfo = _users[_user];\n    return _pendingMIMO(_userInfo.stakeWithBoost, _userInfo.accAmountPerShare);\n  }\n\n  /**\n    Returns the number of PAR tokens the user has earned as a reward\n    @param _user the address of the user\n    @return number of PAR tokens that will be sent automatically when staking/unstaking\n  */\n  function pendingPAR(address _user) public view override returns (uint256) {\n    UserInfo memory _userInfo = _users[_user];\n    return _pendingPAR(_userInfo.stakeWithBoost, _userInfo.accParAmountPerShare);\n  }\n\n  function par() public view override returns (IERC20) {\n    return _par;\n  }\n\n  function a() public view override returns (IGovernanceAddressProvider) {\n    return _a;\n  }\n\n  function boostConfig() public view override returns (BoostConfig memory) {\n    return _boostConfig;\n  }\n\n  function totalStake() public view override returns (uint256) {\n    return _totalStake;\n  }\n\n  function totalStakeWithBoost() public view override returns (uint256) {\n    return _totalStakeWithBoost;\n  }\n\n  /**\n    Returns the userInfo stored of a user\n    @param _user the address of the user\n    @return `struct UserInfo {\n      uint256 stake;\n      uint256 stakeWithBoost;\n      uint256 accAmountPerShare;\n      uint256 accParAmountPerShare;\n    }`\n  **/\n  function userInfo(address _user) public view override returns (UserInfo memory) {\n    return _users[_user];\n  }\n\n  /**\n    Refreshes the global state and subsequently increases a user's stake\n    This is an internal call and meant to be called within derivative contracts\n    @param user the address of the user\n    @param value the amount by which the stake will be increased\n  */\n  function _increaseStake(address user, uint256 value) internal {\n    require(value > 0, \"LM101\");\n    UserInfo memory _userInfo = _users[user];\n\n    _releaseRewards(user, _userInfo);\n    _totalStake = _totalStake.add(value);\n    _userInfo.stake = _userInfo.stake.add(value);\n    _userInfo.accAmountPerShare = _accMimoAmountPerShare;\n    _userInfo.accParAmountPerShare = _accParAmountPerShare;\n    _updateBoost(user, _userInfo);\n\n    emit StakeIncreased(user, value);\n  }\n\n  /**\n    Refreshes the global state and subsequently decreases the stake a user has\n    This is an internal call and meant to be called within derivative contracts\n    @param user the address of the user\n    @param value the amount by which the stake will be reduced\n  */\n  function _decreaseStake(address user, uint256 value) internal {\n    require(value > 0, \"LM101\");\n    UserInfo memory _userInfo = _users[user];\n    require(_userInfo.stake >= value, \"LM102\");\n\n    _releaseRewards(user, _userInfo);\n    _totalStake = _totalStake.sub(value);\n    _userInfo.stake = _userInfo.stake.sub(value);\n    _userInfo.accAmountPerShare = _accMimoAmountPerShare;\n    _userInfo.accParAmountPerShare = _accParAmountPerShare;\n    _updateBoost(user, _userInfo);\n\n    emit StakeDecreased(user, value);\n  }\n\n  function _releaseRewards(address _user, UserInfo memory _userInfo) internal {\n    uint256 pendingMIMO = _pendingMIMO(_userInfo.stakeWithBoost, _userInfo.accAmountPerShare);\n    uint256 pendingPAR = _pendingPAR(_userInfo.stakeWithBoost, _userInfo.accParAmountPerShare);\n    _refresh();\n\n    if (_userInfo.stakeWithBoost > 0) {\n      _mimoBalanceTracker = _mimoBalanceTracker.sub(pendingMIMO);\n      _parBalanceTracker = _parBalanceTracker.sub(pendingPAR);\n    }\n\n    if (pendingMIMO > 0) {\n      require(_a.mimo().transfer(_user, pendingMIMO), \"LM100\");\n    }\n    if (pendingPAR > 0) {\n      require(_par.transfer(_user, pendingPAR), \"LM100\");\n    }\n  }\n\n  /**\n    Updates the internal state variables based on user's veMIMO hodlings\n    @param _user the address of the user\n   */\n  function _updateBoost(address _user, UserInfo memory _userInfo) internal {\n    // if user had a boost already, first remove it from the totalStakeWithBoost\n    if (_userInfo.stakeWithBoost > 0) {\n      _totalStakeWithBoost = _totalStakeWithBoost.sub(_userInfo.stakeWithBoost);\n    }\n    uint256 multiplier = _getBoostMultiplier(_user);\n    _userInfo.stakeWithBoost = _userInfo.stake.wadMul(multiplier);\n    _totalStakeWithBoost = _totalStakeWithBoost.add(_userInfo.stakeWithBoost);\n    _users[_user] = _userInfo;\n  }\n\n  /**\n    Refreshes the global state and subsequently updates a user's stake\n    This is an internal call and meant to be called within derivative contracts\n    @param user the address of the user\n    @param stake the new amount of stake for the user\n  */\n  function _updateStake(address user, uint256 stake) internal returns (bool) {\n    uint256 oldStake = _users[user].stake;\n    if (stake > oldStake) {\n      _increaseStake(user, stake.sub(oldStake));\n    }\n    if (stake < oldStake) {\n      _decreaseStake(user, oldStake.sub(stake));\n    }\n  }\n\n  /**\n    Updates the internal state variables after accounting for newly received MIMO and PAR reward tokens\n  */\n  function _refresh() internal {\n    if (_totalStake == 0) {\n      return;\n    }\n    uint256 currentMimoBalance = _a.mimo().balanceOf(address(this));\n    uint256 currentParBalance = _par.balanceOf(address(this));\n    uint256 mimoReward = currentMimoBalance.sub(_mimoBalanceTracker);\n    uint256 parReward = currentParBalance.sub(_parBalanceTracker);\n\n    _mimoBalanceTracker = currentMimoBalance;\n    _accMimoAmountPerShare = _accMimoAmountPerShare.add(mimoReward.rayDiv(_totalStakeWithBoost));\n    _parBalanceTracker = currentParBalance;\n    _accParAmountPerShare = _accParAmountPerShare.add(parReward.rayDiv(_totalStakeWithBoost));\n  }\n\n  /**\n    Returns the number of tokens a user can claim via `releaseMIMO`\n    @return number of MIMO tokens that the user can claim\n  */\n  function _pendingMIMO(uint256 _userStakeWithBoost, uint256 _userAccAmountPerShare) internal view returns (uint256) {\n    if (_totalStakeWithBoost == 0) {\n      return 0;\n    }\n    uint256 currentBalance = _a.mimo().balanceOf(address(this));\n    uint256 reward = currentBalance.sub(_mimoBalanceTracker);\n    uint256 accMimoAmountPerShare = _accMimoAmountPerShare.add(reward.rayDiv(_totalStakeWithBoost));\n    return _userStakeWithBoost.rayMul(accMimoAmountPerShare.sub(_userAccAmountPerShare));\n  }\n\n  /**\n    Returns the number of PAR tokens the user has earned as a reward\n    @return number of PAR tokens that will be sent automatically when staking/unstaking\n  */\n  function _pendingPAR(uint256 _userStakeWithBoost, uint256 _userAccParAmountPerShare) internal view returns (uint256) {\n    if (_totalStakeWithBoost == 0) {\n      return 0;\n    }\n    uint256 currentBalance = _par.balanceOf(address(this));\n    uint256 reward = currentBalance.sub(_parBalanceTracker);\n    uint256 accParAmountPerShare = _accParAmountPerShare.add(reward.rayDiv(_totalStakeWithBoost));\n\n    return _userStakeWithBoost.rayMul(accParAmountPerShare.sub(_userAccParAmountPerShare));\n  }\n\n  /**\n    Returns the boost multiplier the user is eligible for\n    @param _user the address of the user\n    @return the boost multiplier based on the user's veMIMO per the boost formula : a + b / (c + e^-((veMIMO / d) - e))\n   */\n  function _getBoostMultiplier(address _user) internal view returns (uint256) {\n    uint256 veMIMO = _a.votingEscrow().balanceOf(_user);\n\n    if (veMIMO == 0) return 1e18;\n\n    // Convert boostConfig variables to signed 64.64-bit fixed point numbers\n    int128 a = ABDKMath64x64.fromUInt(_boostConfig.a);\n    int128 b = ABDKMath64x64.fromUInt(_boostConfig.b);\n    int128 c = ABDKMath64x64.fromUInt(_boostConfig.c);\n    int128 e = ABDKMath64x64.fromUInt(_boostConfig.e);\n    int128 DECIMALS = ABDKMath64x64.fromUInt(1e18);\n\n    int128 e1 = veMIMO.divu(_boostConfig.d); // x/25000\n    int128 e2 = e1.sub(e); // x/25000 - 6\n    int128 e3 = e2.neg(); // -(x/25000 - 6)\n    int128 e4 = e3.exp(); // e^-(x/25000 - 6)\n    int128 e5 = e4.add(c); // 1 + e^-(x/25000 - 6)\n    int128 e6 = b.div(e5).add(a); // 1 + 3/(1 + e^-(x/25000 - 6))\n    uint64 e7 = e6.mul(DECIMALS).toUInt(); // convert back to uint64\n    uint256 multiplier = uint256(e7); // convert to uint256\n\n    require(multiplier >= 1e18 && multiplier <= _boostConfig.maxBoost, \"LM103\");\n\n    return multiplier;\n  }\n}\n",
  "sourcePath": "/home/mingyue/sub_contract_content/Web3Bugs/contracts/115/core/contracts/liquidityMining/v2/GenericMinerV2.sol",
  "compiler": {
    "name": "solc",
    "version": "0.6.12+commit.27d51765.Emscripten.clang"
  },
  "schemaVersion": "3.4.7",
  "updatedAt": "2025-02-28T14:09:34.654Z",
  "devdoc": {
    "kind": "dev",
    "methods": {
      "pendingMIMO(address)": {
        "params": {
          "_user": "the address of the user"
        },
        "returns": {
          "_0": "number of MIMO tokens that the user can claim"
        }
      },
      "pendingPAR(address)": {
        "params": {
          "_user": "the address of the user"
        },
        "returns": {
          "_0": "number of PAR tokens that will be sent automatically when staking/unstaking"
        }
      },
      "releaseRewards(address)": {
        "params": {
          "_user": "the address of the user for which the reward tokens will be released"
        }
      },
      "setBoostConfig((uint256,uint256,uint256,uint256,uint256,uint256))": {
        "details": "can only be called by protocol manager",
        "params": {
          "newBoostConfig": "contains all boost multiplier parameters, see {IGenericMinerV2 - BoostConfig}"
        }
      },
      "stake(address)": {
        "params": {
          "_user": "the address of the user"
        },
        "returns": {
          "_0": "number of staked tokens"
        }
      },
      "stakeWithBoost(address)": {
        "params": {
          "_user": "the address of the user"
        },
        "returns": {
          "_0": "number of staked tokens with boost"
        }
      },
      "userInfo(address)": {
        "params": {
          "_user": "the address of the user"
        },
        "returns": {
          "_0": "`struct UserInfo { uint256 stake; uint256 stakeWithBoost; uint256 accAmountPerShare; uint256 accParAmountPerShare; }`*"
        }
      }
    },
    "version": 1
  },
  "userdoc": {
    "kind": "user",
    "methods": {
      "pendingMIMO(address)": {
        "notice": "Returns the number of tokens a user can claim via `releaseMIMO`"
      },
      "pendingPAR(address)": {
        "notice": "Returns the number of PAR tokens the user has earned as a reward"
      },
      "releaseRewards(address)": {
        "notice": "Releases outstanding rewards balances to the user"
      },
      "setBoostConfig((uint256,uint256,uint256,uint256,uint256,uint256))": {
        "notice": "Sets new boost config"
      },
      "stake(address)": {
        "notice": "Returns the number of tokens a user has staked"
      },
      "stakeWithBoost(address)": {
        "notice": "Returns the number of tokens a user has staked with the boost"
      },
      "updateBoost(address)": {
        "notice": "Reapplies the boost of the user, useful if a whale's vMIMO has decreased but their boost is still the original value"
      },
      "userInfo(address)": {
        "notice": "Returns the userInfo stored of a user"
      }
    },
    "version": 1
  }
}