{
  "contractName": "GovernanceAddressProvider",
  "abi": [
    {
      "inputs": [
        {
          "internalType": "contract IAddressProvider",
          "name": "_parallel",
          "type": "address"
        }
      ],
      "stateMutability": "nonpayable",
      "type": "constructor"
    },
    {
      "inputs": [],
      "name": "debtNotifier",
      "outputs": [
        {
          "internalType": "contract IDebtNotifier",
          "name": "",
          "type": "address"
        }
      ],
      "stateMutability": "view",
      "type": "function"
    },
    {
      "inputs": [],
      "name": "governorAlpha",
      "outputs": [
        {
          "internalType": "contract IGovernorAlpha",
          "name": "",
          "type": "address"
        }
      ],
      "stateMutability": "view",
      "type": "function"
    },
    {
      "inputs": [],
      "name": "mimo",
      "outputs": [
        {
          "internalType": "contract IMIMO",
          "name": "",
          "type": "address"
        }
      ],
      "stateMutability": "view",
      "type": "function"
    },
    {
      "inputs": [],
      "name": "parallel",
      "outputs": [
        {
          "internalType": "contract IAddressProvider",
          "name": "",
          "type": "address"
        }
      ],
      "stateMutability": "view",
      "type": "function"
    },
    {
      "inputs": [],
      "name": "timelock",
      "outputs": [
        {
          "internalType": "contract ITimelock",
          "name": "",
          "type": "address"
        }
      ],
      "stateMutability": "view",
      "type": "function"
    },
    {
      "inputs": [],
      "name": "votingEscrow",
      "outputs": [
        {
          "internalType": "contract IVotingEscrow",
          "name": "",
          "type": "address"
        }
      ],
      "stateMutability": "view",
      "type": "function"
    },
    {
      "inputs": [
        {
          "internalType": "contract IAddressProvider",
          "name": "_parallel",
          "type": "address"
        }
      ],
      "name": "setParallelAddressProvider",
      "outputs": [],
      "stateMutability": "nonpayable",
      "type": "function"
    },
    {
      "inputs": [
        {
          "internalType": "contract IMIMO",
          "name": "_mimo",
          "type": "address"
        }
      ],
      "name": "setMIMO",
      "outputs": [],
      "stateMutability": "nonpayable",
      "type": "function"
    },
    {
      "inputs": [
        {
          "internalType": "contract IDebtNotifier",
          "name": "_debtNotifier",
          "type": "address"
        }
      ],
      "name": "setDebtNotifier",
      "outputs": [],
      "stateMutability": "nonpayable",
      "type": "function"
    },
    {
      "inputs": [
        {
          "internalType": "contract IGovernorAlpha",
          "name": "_governorAlpha",
          "type": "address"
        }
      ],
      "name": "setGovernorAlpha",
      "outputs": [],
      "stateMutability": "nonpayable",
      "type": "function"
    },
    {
      "inputs": [
        {
          "internalType": "contract ITimelock",
          "name": "_timelock",
          "type": "address"
        }
      ],
      "name": "setTimelock",
      "outputs": [],
      "stateMutability": "nonpayable",
      "type": "function"
    },
    {
      "inputs": [
        {
          "internalType": "contract IVotingEscrow",
          "name": "_votingEscrow",
          "type": "address"
        }
      ],
      "name": "setVotingEscrow",
      "outputs": [],
      "stateMutability": "nonpayable",
      "type": "function"
    },
    {
      "inputs": [],
      "name": "controller",
      "outputs": [
        {
          "internalType": "contract IAccessController",
          "name": "",
          "type": "address"
        }
      ],
      "stateMutability": "view",
      "type": "function"
    }
  ],
  "bytecode": "0x608060405234801561001057600080fd5b50604051610c1e380380610c1e83398101604081905261002f91610067565b6001600160a01b03811661004257600080fd5b600080546001600160a01b0319166001600160a01b0392909216919091179055610095565b600060208284031215610078578081fd5b81516001600160a01b038116811461008e578182fd5b9392505050565b610b7a806100a46000396000f3fe608060405234801561001057600080fd5b50600436106100cf5760003560e01c80639e7153021161008c578063ce5ec92e11610066578063ce5ec92e1461016b578063d33219b41461017e578063f77c479114610186578063fd4300851461018e576100cf565b80639e7153021461013d578063bd1b714614610150578063bdacb30314610158576100cf565b80633df06b59146100d45780634b969866146100f25780634f2bfe5b1461010757806364650b3d1461010f5780636d9b182314610122578063972d9f9c1461012a575b600080fd5b6100dc610196565b6040516100e99190610ae1565b60405180910390f35b610105610100366004610aae565b6101a5565b005b6100dc6102fb565b61010561011d366004610aae565b61030a565b6100dc610457565b610105610138366004610aae565b610466565b61010561014b366004610aae565b6105b3565b6100dc610700565b610105610166366004610aae565b61070f565b610105610179366004610aae565b61085c565b6100dc6109a9565b6100dc6109b8565b6100dc610a44565b6000546001600160a01b031681565b6101ad6109b8565b6001600160a01b03166391d148546101c36109b8565b6001600160a01b031663ec87621c6040518163ffffffff1660e01b815260040160206040518083038186803b1580156101fb57600080fd5b505afa15801561020f573d6000803e3d6000fd5b505050506040513d601f19601f820116820180604052508101906102339190610a7a565b336040518363ffffffff1660e01b8152600401610251929190610aca565b60206040518083038186803b15801561026957600080fd5b505afa15801561027d573d6000803e3d6000fd5b505050506040513d601f19601f820116820180604052508101906102a19190610a53565b6102c65760405162461bcd60e51b81526004016102bd90610af5565b60405180910390fd5b6001600160a01b0381166102d957600080fd5b600280546001600160a01b0319166001600160a01b0392909216919091179055565b6005546001600160a01b031681565b6103126109b8565b6001600160a01b03166391d148546103286109b8565b6001600160a01b031663ec87621c6040518163ffffffff1660e01b815260040160206040518083038186803b15801561036057600080fd5b505afa158015610374573d6000803e3d6000fd5b505050506040513d601f19601f820116820180604052508101906103989190610a7a565b336040518363ffffffff1660e01b81526004016103b6929190610aca565b60206040518083038186803b1580156103ce57600080fd5b505afa1580156103e2573d6000803e3d6000fd5b505050506040513d601f19601f820116820180604052508101906104069190610a53565b6104225760405162461bcd60e51b81526004016102bd90610af5565b6001600160a01b03811661043557600080fd5b600080546001600160a01b0319166001600160a01b0392909216919091179055565b6001546001600160a01b031681565b61046e6109b8565b6001600160a01b03166391d148546104846109b8565b6001600160a01b031663ec87621c6040518163ffffffff1660e01b815260040160206040518083038186803b1580156104bc57600080fd5b505afa1580156104d0573d6000803e3d6000fd5b505050506040513d601f19601f820116820180604052508101906104f49190610a7a565b336040518363ffffffff1660e01b8152600401610512929190610aca565b60206040518083038186803b15801561052a57600080fd5b505afa15801561053e573d6000803e3d6000fd5b505050506040513d601f19601f820116820180604052508101906105629190610a53565b61057e5760405162461bcd60e51b81526004016102bd90610af5565b6001600160a01b03811661059157600080fd5b600180546001600160a01b0319166001600160a01b0392909216919091179055565b6105bb6109b8565b6001600160a01b03166391d148546105d16109b8565b6001600160a01b031663ec87621c6040518163ffffffff1660e01b815260040160206040518083038186803b15801561060957600080fd5b505afa15801561061d573d6000803e3d6000fd5b505050506040513d601f19601f820116820180604052508101906106419190610a7a565b336040518363ffffffff1660e01b815260040161065f929190610aca565b60206040518083038186803b15801561067757600080fd5b505afa15801561068b573d6000803e3d6000fd5b505050506040513d601f19601f820116820180604052508101906106af9190610a53565b6106cb5760405162461bcd60e51b81526004016102bd90610af5565b6001600160a01b0381166106de57600080fd5b600380546001600160a01b0319166001600160a01b0392909216919091179055565b6002546001600160a01b031681565b6107176109b8565b6001600160a01b03166391d1485461072d6109b8565b6001600160a01b031663ec87621c6040518163ffffffff1660e01b815260040160206040518083038186803b15801561076557600080fd5b505afa158015610779573d6000803e3d6000fd5b505050506040513d601f19601f8201168201806040525081019061079d9190610a7a565b336040518363ffffffff1660e01b81526004016107bb929190610aca565b60206040518083038186803b1580156107d357600080fd5b505afa1580156107e7573d6000803e3d6000fd5b505050506040513d601f19601f8201168201806040525081019061080b9190610a53565b6108275760405162461bcd60e51b81526004016102bd90610af5565b6001600160a01b03811661083a57600080fd5b600480546001600160a01b0319166001600160a01b0392909216919091179055565b6108646109b8565b6001600160a01b03166391d1485461087a6109b8565b6001600160a01b031663ec87621c6040518163ffffffff1660e01b815260040160206040518083038186803b1580156108b257600080fd5b505afa1580156108c6573d6000803e3d6000fd5b505050506040513d601f19601f820116820180604052508101906108ea9190610a7a565b336040518363ffffffff1660e01b8152600401610908929190610aca565b60206040518083038186803b15801561092057600080fd5b505afa158015610934573d6000803e3d6000fd5b505050506040513d601f19601f820116820180604052508101906109589190610a53565b6109745760405162461bcd60e51b81526004016102bd90610af5565b6001600160a01b03811661098757600080fd5b600580546001600160a01b0319166001600160a01b0392909216919091179055565b6004546001600160a01b031681565b60008060009054906101000a90046001600160a01b03166001600160a01b031663f77c47916040518163ffffffff1660e01b815260040160206040518083038186803b158015610a0757600080fd5b505afa158015610a1b573d6000803e3d6000fd5b505050506040513d601f19601f82011682018060405250810190610a3f9190610a92565b905090565b6003546001600160a01b031681565b600060208284031215610a64578081fd5b81518015158114610a73578182fd5b9392505050565b600060208284031215610a8b578081fd5b5051919050565b600060208284031215610aa3578081fd5b8151610a7381610b2c565b600060208284031215610abf578081fd5b8135610a7381610b2c565b9182526001600160a01b0316602082015260400190565b6001600160a01b0391909116815260200190565b60208082526017908201527f43616c6c6572206973206e6f742061204d616e61676572000000000000000000604082015260600190565b6001600160a01b0381168114610b4157600080fd5b5056fea2646970667358221220412bb415b4f0b493e03390b63134008ae60a2ca75c4598515810bf5c16c2c9a364736f6c634300060c0033",
  "immutableReferences": {},
  "source": "// SPDX-License-Identifier: MIT\n\npragma experimental ABIEncoderV2;\npragma solidity 0.6.12;\n\nimport \"./interfaces/IGovernanceAddressProvider.sol\";\nimport \"./interfaces/IGovernorAlpha.sol\";\nimport \"./interfaces/ITimelock.sol\";\nimport \"./interfaces/IVotingEscrow.sol\";\nimport \"../interfaces/IAccessController.sol\";\nimport \"../liquidityMining/interfaces/IDebtNotifier.sol\";\nimport \"../liquidityMining/interfaces/IMIMO.sol\";\n\ncontract GovernanceAddressProvider is IGovernanceAddressProvider {\n  IAddressProvider public override parallel;\n  IMIMO public override mimo;\n  IDebtNotifier public override debtNotifier;\n  IGovernorAlpha public override governorAlpha;\n  ITimelock public override timelock;\n  IVotingEscrow public override votingEscrow;\n\n  constructor(IAddressProvider _parallel) public {\n    require(address(_parallel) != address(0));\n    parallel = _parallel;\n  }\n\n  modifier onlyManager() {\n    require(controller().hasRole(controller().MANAGER_ROLE(), msg.sender), \"Caller is not a Manager\");\n    _;\n  }\n\n  /**\n    Update the `AddressProvider` address that points to main AddressProvider\n    used in the Parallel Protocol\n    @dev only manager can call this.\n    @param _parallel the address of the new `AddressProvider` address.\n  */\n  function setParallelAddressProvider(IAddressProvider _parallel) public override onlyManager {\n    require(address(_parallel) != address(0));\n    parallel = _parallel;\n  }\n\n  /**\n    Update the `MIMO` ERC20 token address\n    @dev only manager can call this.\n    @param _mimo the address of the new `MIMO` token address.\n  */\n  function setMIMO(IMIMO _mimo) public override onlyManager {\n    require(address(_mimo) != address(0));\n    mimo = _mimo;\n  }\n\n  /**\n    Update the `DebtNotifier` address\n    @dev only manager can call this.\n    @param _debtNotifier the address of the new `DebtNotifier`.\n  */\n  function setDebtNotifier(IDebtNotifier _debtNotifier) public override onlyManager {\n    require(address(_debtNotifier) != address(0));\n    debtNotifier = _debtNotifier;\n  }\n\n  /**\n    Update the `GovernorAlpha` address\n    @dev only manager can call this.\n    @param _governorAlpha the address of the new `GovernorAlpha`.\n  */\n  function setGovernorAlpha(IGovernorAlpha _governorAlpha) public override onlyManager {\n    require(address(_governorAlpha) != address(0));\n    governorAlpha = _governorAlpha;\n  }\n\n  /**\n    Update the `Timelock` address\n    @dev only manager can call this.\n    @param _timelock the address of the new `Timelock`.\n  */\n  function setTimelock(ITimelock _timelock) public override onlyManager {\n    require(address(_timelock) != address(0));\n    timelock = _timelock;\n  }\n\n  /**\n    Update the `VotingEscrow` address\n    @dev only manager can call this.\n    @param _votingEscrow the address of the new `VotingEscrow`.\n  */\n  function setVotingEscrow(IVotingEscrow _votingEscrow) public override onlyManager {\n    require(address(_votingEscrow) != address(0));\n    votingEscrow = _votingEscrow;\n  }\n\n  function controller() public view override returns (IAccessController) {\n    return parallel.controller();\n  }\n}\n",
  "sourcePath": "/home/mingyue/sub_contract_content/Web3Bugs/contracts/115/core/contracts/governance/GovernanceAddressProvider.sol",
  "compiler": {
    "name": "solc",
    "version": "0.6.12+commit.27d51765.Emscripten.clang"
  },
  "schemaVersion": "3.4.7",
  "updatedAt": "2025-02-28T14:09:34.610Z",
  "devdoc": {
    "kind": "dev",
    "methods": {
      "setDebtNotifier(address)": {
        "details": "only manager can call this.",
        "params": {
          "_debtNotifier": "the address of the new `DebtNotifier`."
        }
      },
      "setGovernorAlpha(address)": {
        "details": "only manager can call this.",
        "params": {
          "_governorAlpha": "the address of the new `GovernorAlpha`."
        }
      },
      "setMIMO(address)": {
        "details": "only manager can call this.",
        "params": {
          "_mimo": "the address of the new `MIMO` token address."
        }
      },
      "setParallelAddressProvider(address)": {
        "details": "only manager can call this.",
        "params": {
          "_parallel": "the address of the new `AddressProvider` address."
        }
      },
      "setTimelock(address)": {
        "details": "only manager can call this.",
        "params": {
          "_timelock": "the address of the new `Timelock`."
        }
      },
      "setVotingEscrow(address)": {
        "details": "only manager can call this.",
        "params": {
          "_votingEscrow": "the address of the new `VotingEscrow`."
        }
      }
    },
    "version": 1
  },
  "userdoc": {
    "kind": "user",
    "methods": {
      "setDebtNotifier(address)": {
        "notice": "Update the `DebtNotifier` address"
      },
      "setGovernorAlpha(address)": {
        "notice": "Update the `GovernorAlpha` address"
      },
      "setMIMO(address)": {
        "notice": "Update the `MIMO` ERC20 token address"
      },
      "setParallelAddressProvider(address)": {
        "notice": "Update the `AddressProvider` address that points to main AddressProvider used in the Parallel Protocol"
      },
      "setTimelock(address)": {
        "notice": "Update the `Timelock` address"
      },
      "setVotingEscrow(address)": {
        "notice": "Update the `VotingEscrow` address"
      }
    },
    "version": 1
  }
}