{
  "contractName": "GovernorAlpha",
  "abi": [
    {
      "inputs": [
        {
          "internalType": "contract IGovernanceAddressProvider",
          "name": "_addresses",
          "type": "address"
        },
        {
          "internalType": "address",
          "name": "_guardian",
          "type": "address"
        }
      ],
      "stateMutability": "nonpayable",
      "type": "constructor"
    },
    {
      "anonymous": false,
      "inputs": [
        {
          "indexed": false,
          "internalType": "uint256",
          "name": "id",
          "type": "uint256"
        }
      ],
      "name": "ProposalCanceled",
      "type": "event"
    },
    {
      "anonymous": false,
      "inputs": [
        {
          "indexed": false,
          "internalType": "uint256",
          "name": "id",
          "type": "uint256"
        },
        {
          "indexed": false,
          "internalType": "address",
          "name": "proposer",
          "type": "address"
        },
        {
          "indexed": false,
          "internalType": "address[]",
          "name": "targets",
          "type": "address[]"
        },
        {
          "indexed": false,
          "internalType": "uint256[]",
          "name": "values",
          "type": "uint256[]"
        },
        {
          "indexed": false,
          "internalType": "string[]",
          "name": "signatures",
          "type": "string[]"
        },
        {
          "indexed": false,
          "internalType": "bytes[]",
          "name": "calldatas",
          "type": "bytes[]"
        },
        {
          "indexed": false,
          "internalType": "uint256",
          "name": "startTime",
          "type": "uint256"
        },
        {
          "indexed": false,
          "internalType": "uint256",
          "name": "endTime",
          "type": "uint256"
        },
        {
          "indexed": false,
          "internalType": "string",
          "name": "description",
          "type": "string"
        }
      ],
      "name": "ProposalCreated",
      "type": "event"
    },
    {
      "anonymous": false,
      "inputs": [
        {
          "indexed": false,
          "internalType": "uint256",
          "name": "id",
          "type": "uint256"
        }
      ],
      "name": "ProposalExecuted",
      "type": "event"
    },
    {
      "anonymous": false,
      "inputs": [
        {
          "indexed": false,
          "internalType": "uint256",
          "name": "id",
          "type": "uint256"
        },
        {
          "indexed": false,
          "internalType": "uint256",
          "name": "eta",
          "type": "uint256"
        }
      ],
      "name": "ProposalQueued",
      "type": "event"
    },
    {
      "anonymous": false,
      "inputs": [
        {
          "indexed": false,
          "internalType": "address",
          "name": "voter",
          "type": "address"
        },
        {
          "indexed": false,
          "internalType": "uint256",
          "name": "proposalId",
          "type": "uint256"
        },
        {
          "indexed": false,
          "internalType": "bool",
          "name": "support",
          "type": "bool"
        },
        {
          "indexed": false,
          "internalType": "uint256",
          "name": "votes",
          "type": "uint256"
        }
      ],
      "name": "VoteCast",
      "type": "event"
    },
    {
      "inputs": [],
      "name": "a",
      "outputs": [
        {
          "internalType": "contract IGovernanceAddressProvider",
          "name": "",
          "type": "address"
        }
      ],
      "stateMutability": "view",
      "type": "function"
    },
    {
      "inputs": [],
      "name": "guardian",
      "outputs": [
        {
          "internalType": "address",
          "name": "",
          "type": "address"
        }
      ],
      "stateMutability": "view",
      "type": "function"
    },
    {
      "inputs": [
        {
          "internalType": "address",
          "name": "",
          "type": "address"
        }
      ],
      "name": "latestProposalIds",
      "outputs": [
        {
          "internalType": "uint256",
          "name": "",
          "type": "uint256"
        }
      ],
      "stateMutability": "view",
      "type": "function"
    },
    {
      "inputs": [],
      "name": "proposalCount",
      "outputs": [
        {
          "internalType": "uint256",
          "name": "",
          "type": "uint256"
        }
      ],
      "stateMutability": "view",
      "type": "function"
    },
    {
      "inputs": [
        {
          "internalType": "uint256",
          "name": "",
          "type": "uint256"
        }
      ],
      "name": "proposals",
      "outputs": [
        {
          "internalType": "uint256",
          "name": "id",
          "type": "uint256"
        },
        {
          "internalType": "address",
          "name": "proposer",
          "type": "address"
        },
        {
          "internalType": "uint256",
          "name": "eta",
          "type": "uint256"
        },
        {
          "internalType": "uint256",
          "name": "startTime",
          "type": "uint256"
        },
        {
          "internalType": "uint256",
          "name": "endTime",
          "type": "uint256"
        },
        {
          "internalType": "uint256",
          "name": "forVotes",
          "type": "uint256"
        },
        {
          "internalType": "uint256",
          "name": "againstVotes",
          "type": "uint256"
        },
        {
          "internalType": "bool",
          "name": "canceled",
          "type": "bool"
        },
        {
          "internalType": "bool",
          "name": "executed",
          "type": "bool"
        }
      ],
      "stateMutability": "view",
      "type": "function"
    },
    {
      "inputs": [],
      "name": "proposalMaxOperations",
      "outputs": [
        {
          "internalType": "uint256",
          "name": "",
          "type": "uint256"
        }
      ],
      "stateMutability": "pure",
      "type": "function"
    },
    {
      "inputs": [
        {
          "internalType": "address[]",
          "name": "targets",
          "type": "address[]"
        },
        {
          "internalType": "uint256[]",
          "name": "values",
          "type": "uint256[]"
        },
        {
          "internalType": "string[]",
          "name": "signatures",
          "type": "string[]"
        },
        {
          "internalType": "bytes[]",
          "name": "calldatas",
          "type": "bytes[]"
        },
        {
          "internalType": "string",
          "name": "description",
          "type": "string"
        },
        {
          "internalType": "uint256",
          "name": "endTime",
          "type": "uint256"
        }
      ],
      "name": "propose",
      "outputs": [
        {
          "internalType": "uint256",
          "name": "",
          "type": "uint256"
        }
      ],
      "stateMutability": "nonpayable",
      "type": "function"
    },
    {
      "inputs": [
        {
          "internalType": "uint256",
          "name": "proposalId",
          "type": "uint256"
        }
      ],
      "name": "queue",
      "outputs": [],
      "stateMutability": "nonpayable",
      "type": "function"
    },
    {
      "inputs": [
        {
          "internalType": "uint256",
          "name": "proposalId",
          "type": "uint256"
        }
      ],
      "name": "execute",
      "outputs": [],
      "stateMutability": "payable",
      "type": "function"
    },
    {
      "inputs": [
        {
          "internalType": "uint256",
          "name": "proposalId",
          "type": "uint256"
        }
      ],
      "name": "cancel",
      "outputs": [],
      "stateMutability": "nonpayable",
      "type": "function"
    },
    {
      "inputs": [
        {
          "internalType": "uint256",
          "name": "proposalId",
          "type": "uint256"
        },
        {
          "internalType": "bool",
          "name": "support",
          "type": "bool"
        }
      ],
      "name": "castVote",
      "outputs": [],
      "stateMutability": "nonpayable",
      "type": "function"
    },
    {
      "inputs": [],
      "name": "__acceptAdmin",
      "outputs": [],
      "stateMutability": "nonpayable",
      "type": "function"
    },
    {
      "inputs": [],
      "name": "__abdicate",
      "outputs": [],
      "stateMutability": "nonpayable",
      "type": "function"
    },
    {
      "inputs": [
        {
          "internalType": "address",
          "name": "newPendingAdmin",
          "type": "address"
        },
        {
          "internalType": "uint256",
          "name": "eta",
          "type": "uint256"
        }
      ],
      "name": "__queueSetTimelockPendingAdmin",
      "outputs": [],
      "stateMutability": "nonpayable",
      "type": "function"
    },
    {
      "inputs": [
        {
          "internalType": "address",
          "name": "newPendingAdmin",
          "type": "address"
        },
        {
          "internalType": "uint256",
          "name": "eta",
          "type": "uint256"
        }
      ],
      "name": "__executeSetTimelockPendingAdmin",
      "outputs": [],
      "stateMutability": "nonpayable",
      "type": "function"
    },
    {
      "inputs": [],
      "name": "quorumVotes",
      "outputs": [
        {
          "internalType": "uint256",
          "name": "",
          "type": "uint256"
        }
      ],
      "stateMutability": "view",
      "type": "function"
    },
    {
      "inputs": [],
      "name": "proposalThreshold",
      "outputs": [
        {
          "internalType": "uint256",
          "name": "",
          "type": "uint256"
        }
      ],
      "stateMutability": "view",
      "type": "function"
    },
    {
      "inputs": [
        {
          "internalType": "uint256",
          "name": "proposalId",
          "type": "uint256"
        }
      ],
      "name": "getActions",
      "outputs": [
        {
          "internalType": "address[]",
          "name": "targets",
          "type": "address[]"
        },
        {
          "internalType": "uint256[]",
          "name": "values",
          "type": "uint256[]"
        },
        {
          "internalType": "string[]",
          "name": "signatures",
          "type": "string[]"
        },
        {
          "internalType": "bytes[]",
          "name": "calldatas",
          "type": "bytes[]"
        }
      ],
      "stateMutability": "view",
      "type": "function"
    },
    {
      "inputs": [
        {
          "internalType": "uint256",
          "name": "proposalId",
          "type": "uint256"
        },
        {
          "internalType": "address",
          "name": "voter",
          "type": "address"
        }
      ],
      "name": "getReceipt",
      "outputs": [
        {
          "components": [
            {
              "internalType": "bool",
              "name": "hasVoted",
              "type": "bool"
            },
            {
              "internalType": "bool",
              "name": "support",
              "type": "bool"
            },
            {
              "internalType": "uint256",
              "name": "votes",
              "type": "uint256"
            }
          ],
          "internalType": "struct IGovernorAlpha.Receipt",
          "name": "",
          "type": "tuple"
        }
      ],
      "stateMutability": "view",
      "type": "function"
    },
    {
      "inputs": [
        {
          "internalType": "uint256",
          "name": "proposalId",
          "type": "uint256"
        }
      ],
      "name": "state",
      "outputs": [
        {
          "internalType": "enum IGovernorAlpha.ProposalState",
          "name": "",
          "type": "uint8"
        }
      ],
      "stateMutability": "view",
      "type": "function"
    }
  ],
  "bytecode": "0x60806040523480156200001157600080fd5b5060405162003b1938038062003b1983398101604081905262000034916200008e565b6001600160a01b0382166200004857600080fd5b6001600160a01b0381166200005c57600080fd5b600080546001600160a01b039384166001600160a01b03199182161790915560018054929093169116179055620000e5565b60008060408385031215620000a1578182fd5b8251620000ae81620000cc565b6020840151909250620000c181620000cc565b809150509250929050565b6001600160a01b0381168114620000e257600080fd5b50565b613a2480620000f56000396000f3fe60806040526004361061011f5760003560e01c8063452a9320116100a0578063b9a6196111610064578063b9a6196114610319578063da35c6641461032e578063ddf0b00914610343578063e23a9a5214610363578063fe0d94c1146103905761011f565b8063452a9320146102a5578063760fbc13146102ba5780637bdbe4d0146102cf57806391500671146102e4578063b58131b0146103045761011f565b806321f43e42116100e757806321f43e42146101f357806324bc1a6414610213578063328dd982146102285780633e4f49e61461025857806340e58ee5146102855761011f565b8063013cf08b146101245780630944db16146101625780630dbe671f1461018f57806315373e3d146101b157806317977c61146101d3575b600080fd5b34801561013057600080fd5b5061014461013f366004612d04565b6103a3565b604051610159999897969594939291906138ce565b60405180910390f35b34801561016e57600080fd5b5061018261017d366004612b6d565b6103fc565b6040516101599190613081565b34801561019b57600080fd5b506101a4610b56565b6040516101599190612ee3565b3480156101bd57600080fd5b506101d16101cc366004612d4b565b610b65565b005b3480156101df57600080fd5b506101826101ee366004612b26565b610d7b565b3480156101ff57600080fd5b506101d161020e366004612b42565b610d8d565b34801561021f57600080fd5b50610182610f6a565b34801561023457600080fd5b50610248610243366004612d04565b611238565b6040516101599493929190613029565b34801561026457600080fd5b50610278610273366004612d04565b6114c7565b604051610159919061308a565b34801561029157600080fd5b506101d16102a0366004612d04565b6116ad565b3480156102b157600080fd5b506101a46118e2565b3480156102c657600080fd5b506101d16118f1565b3480156102db57600080fd5b5061018261192d565b3480156102f057600080fd5b506101d16102ff366004612b42565b611932565b34801561031057600080fd5b50610182611b06565b34801561032557600080fd5b506101d1611c2d565b34801561033a57600080fd5b50610182611d2f565b34801561034f57600080fd5b506101d161035e366004612d04565b611d35565b34801561036f57600080fd5b5061038361037e366004612d1c565b61204f565b6040516101599190613811565b6101d161039e366004612d04565b6120b3565b6003602052600090815260409020805460018201546002830154600784015460088501546009860154600a870154600b9097015495966001600160a01b0390951695939492939192909160ff8082169161010090041689565b60008061040983426122f3565b905060008054906101000a90046001600160a01b03166001600160a01b0316633df06b596040518163ffffffff1660e01b815260040160206040518083038186803b15801561045757600080fd5b505afa15801561046b573d6000803e3d6000fd5b505050506040513d601f19601f8201168201806040525081019061048f9190612ce8565b6001600160a01b03166379502c556040518163ffffffff1660e01b815260040160206040518083038186803b1580156104c757600080fd5b505afa1580156104db573d6000803e3d6000fd5b505050506040513d601f19601f820116820180604052508101906104ff9190612ce8565b6001600160a01b0316638635447a6040518163ffffffff1660e01b815260040160206040518083038186803b15801561053757600080fd5b505afa15801561054b573d6000803e3d6000fd5b505050506040513d601f19601f8201168201806040525081019061056f9190612c5d565b8110156105975760405162461bcd60e51b815260040161058e90613581565b60405180910390fd5b60008054906101000a90046001600160a01b03166001600160a01b0316633df06b596040518163ffffffff1660e01b815260040160206040518083038186803b1580156105e357600080fd5b505afa1580156105f7573d6000803e3d6000fd5b505050506040513d601f19601f8201168201806040525081019061061b9190612ce8565b6001600160a01b03166379502c556040518163ffffffff1660e01b815260040160206040518083038186803b15801561065357600080fd5b505afa158015610667573d6000803e3d6000fd5b505050506040513d601f19601f8201168201806040525081019061068b9190612ce8565b6001600160a01b0316630e31f6c26040518163ffffffff1660e01b815260040160206040518083038186803b1580156106c357600080fd5b505afa1580156106d7573d6000803e3d6000fd5b505050506040513d601f19601f820116820180604052508101906106fb9190612c5d565b81111561071a5760405162461bcd60e51b815260040161058e906136e4565b610722611b06565b60008054906101000a90046001600160a01b03166001600160a01b0316634f2bfe5b6040518163ffffffff1660e01b815260040160206040518083038186803b15801561076e57600080fd5b505afa158015610782573d6000803e3d6000fd5b505050506040513d601f19601f820116820180604052508101906107a69190612ce8565b6001600160a01b0316634ee2cd7e33866040518363ffffffff1660e01b81526004016107d3929190612ef7565b60206040518083038186803b1580156107eb57600080fd5b505afa1580156107ff573d6000803e3d6000fd5b505050506040513d601f19601f820116820180604052508101906108239190612c5d565b116108405760405162461bcd60e51b815260040161058e90613604565b86518851148015610852575085518851145b801561085f575084518851145b61087b5760405162461bcd60e51b815260040161058e9061346c565b87516108995760405162461bcd60e51b815260040161058e906135b8565b6108a161192d565b885111156108c15760405162461bcd60e51b815260040161058e90613424565b3360009081526004602052604090205480156109125760006108e2826114c7565b905060008160068111156108f257fe5b14156109105760405162461bcd60e51b815260040161058e90613661565b505b60028054600101905561092361263e565b604051806101a001604052806002548152602001336001600160a01b03168152602001600081526020018b81526020018a815260200189815260200188815260200142815260200186815260200160008152602001600081526020016000151581526020016000151581525090508060036000836000015181526020019081526020016000206000820151816000015560208201518160010160006101000a8154816001600160a01b0302191690836001600160a01b03160217905550604082015181600201556060820151816003019080519060200190610a069291906126b3565b5060808201518051610a22916004840191602090910190612718565b5060a08201518051610a3e91600584019160209091019061275f565b5060c08201518051610a5a9160068401916020909101906127b8565b5060e082015181600701556101008201518160080155610120820151816009015561014082015181600a015561016082015181600b0160006101000a81548160ff02191690831515021790555061018082015181600b0160016101000a81548160ff02191690831515021790555090505080600001516004600083602001516001600160a01b03166001600160a01b03168152602001908152602001600020819055507f7d84a6263ae0d98d3329bd7b46bb4e8d6f98cd35a7adb45c274c8b7fd5ebd5e08160000151338c8c8c8c428c8e604051610b4099989796959493929190613836565b60405180910390a1519998505050505050505050565b6000546001600160a01b031681565b6000610b70836114c7565b6006811115610b7b57fe5b14610b985760405162461bcd60e51b815260040161058e90613771565b6000828152600360209081526040808320338452600c8101909252909120805460ff1615610bd85760405162461bcd60e51b815260040161058e90613330565b60008060009054906101000a90046001600160a01b03166001600160a01b0316634f2bfe5b6040518163ffffffff1660e01b815260040160206040518083038186803b158015610c2757600080fd5b505afa158015610c3b573d6000803e3d6000fd5b505050506040513d601f19601f82011682018060405250810190610c5f9190612ce8565b6001600160a01b0316634ee2cd7e3385600801546040518363ffffffff1660e01b8152600401610c90929190612ef7565b60206040518083038186803b158015610ca857600080fd5b505afa158015610cbc573d6000803e3d6000fd5b505050506040513d601f19601f82011682018060405250810190610ce09190612c5d565b90508315610d01576009830154610cf7908261231b565b6009840155610d16565b600a830154610d10908261231b565b600a8401555b8154600160ff19909116811761ff0019166101008615150217835582018190556040517f877856338e13f63d0c36822ff0ef736b80934cd90574a3a5bc9262c39d217c4690610d6c903390889088908690612f10565b60405180910390a15050505050565b60046020526000908152604090205481565b6001546001600160a01b03163314610db75760405162461bcd60e51b815260040161058e90613207565b60008054906101000a90046001600160a01b03166001600160a01b031663d33219b46040518163ffffffff1660e01b815260040160206040518083038186803b158015610e0357600080fd5b505afa158015610e17573d6000803e3d6000fd5b505050506040513d601f19601f82011682018060405250810190610e3b9190612ce8565b6001600160a01b0316630825f38f60008054906101000a90046001600160a01b03166001600160a01b031663d33219b46040518163ffffffff1660e01b815260040160206040518083038186803b158015610e9557600080fd5b505afa158015610ea9573d6000803e3d6000fd5b505050506040513d601f19601f82011682018060405250810190610ecd9190612ce8565b600085604051602001610ee09190612ee3565b604051602081830303815290604052856040518563ffffffff1660e01b8152600401610f0f9493929190612f38565b600060405180830381600087803b158015610f2957600080fd5b505af1158015610f3d573d6000803e3d6000fd5b505050506040513d6000823e601f3d908101601f19168201604052610f659190810190612c75565b505050565b6000805460408051633df06b5960e01b81529051611233926001600160a01b031691633df06b59916004808301926020929190829003018186803b158015610fb157600080fd5b505afa158015610fc5573d6000803e3d6000fd5b505050506040513d601f19601f82011682018060405250810190610fe99190612ce8565b6001600160a01b03166379502c556040518163ffffffff1660e01b815260040160206040518083038186803b15801561102157600080fd5b505afa158015611035573d6000803e3d6000fd5b505050506040513d601f19601f820116820180604052508101906110599190612ce8565b6001600160a01b0316635a35f8346040518163ffffffff1660e01b815260040160206040518083038186803b15801561109157600080fd5b505afa1580156110a5573d6000803e3d6000fd5b505050506040513d601f19601f820116820180604052508101906110c99190612c5d565b60008054906101000a90046001600160a01b03166001600160a01b0316634f2bfe5b6040518163ffffffff1660e01b815260040160206040518083038186803b15801561111557600080fd5b505afa158015611129573d6000803e3d6000fd5b505050506040513d601f19601f8201168201806040525081019061114d9190612ce8565b6001600160a01b03166372f702f36040518163ffffffff1660e01b815260040160206040518083038186803b15801561118557600080fd5b505afa158015611199573d6000803e3d6000fd5b505050506040513d601f19601f820116820180604052508101906111bd9190612ce8565b6001600160a01b03166318160ddd6040518163ffffffff1660e01b815260040160206040518083038186803b1580156111f557600080fd5b505afa158015611209573d6000803e3d6000fd5b505050506040513d601f19601f8201168201806040525081019061122d9190612c5d565b90612347565b905090565b606080606080600060036000878152602001908152602001600020905080600301816004018260050183600601838054806020026020016040519081016040528092919081815260200182805480156112ba57602002820191906000526020600020905b81546001600160a01b0316815260019091019060200180831161129c575b505050505093508280548060200260200160405190810160405280929190818152602001828054801561130c57602002820191906000526020600020905b8154815260200190600101908083116112f8575b5050505050925081805480602002602001604051908101604052809291908181526020016000905b828210156113df5760008481526020908190208301805460408051601f60026000196101006001871615020190941693909304928301859004850281018501909152818152928301828280156113cb5780601f106113a0576101008083540402835291602001916113cb565b820191906000526020600020905b8154815290600101906020018083116113ae57829003601f168201915b505050505081526020019060010190611334565b50505050915080805480602002602001604051908101604052809291908181526020016000905b828210156114b15760008481526020908190208301805460408051601f600260001961010060018716150201909416939093049283018590048502810185019091528181529283018282801561149d5780601f106114725761010080835404028352916020019161149d565b820191906000526020600020905b81548152906001019060200180831161148057829003601f168201915b505050505081526020019060010190611406565b5050505090509450945094509450509193509193565b600081600254101580156114db5750600082115b6114f75760405162461bcd60e51b815260040161058e906132b0565b6000828152600360205260409020600b81015460ff161561151c5760019150506116a8565b806008015442116115315760009150506116a8565b80600a01548160090154111580611552575061154b610f6a565b8160090154105b156115615760029150506116a8565b60028101546115745760039150506116a8565b600b810154610100900460ff16156115905760069150506116a8565b611692816008015460008054906101000a90046001600160a01b03166001600160a01b031663d33219b46040518163ffffffff1660e01b815260040160206040518083038186803b1580156115e457600080fd5b505afa1580156115f8573d6000803e3d6000fd5b505050506040513d601f19601f8201168201806040525081019061161c9190612ce8565b6001600160a01b031663c1a287e26040518163ffffffff1660e01b815260040160206040518083038186803b15801561165457600080fd5b505afa158015611668573d6000803e3d6000fd5b505050506040513d601f19601f8201168201806040525081019061168c9190612c5d565b9061231b565b42106116a25760059150506116a8565b60049150505b919050565b60006116b8826114c7565b905060068160068111156116c857fe5b14156116e65760405162461bcd60e51b815260040161058e9061371b565b60008281526003602052604090206001546001600160a01b0316331461171e5760405162461bcd60e51b815260040161058e90613279565b600b8101805460ff1916600117905560005b60038201548110156118a55760008054906101000a90046001600160a01b03166001600160a01b031663d33219b46040518163ffffffff1660e01b815260040160206040518083038186803b15801561178857600080fd5b505afa15801561179c573d6000803e3d6000fd5b505050506040513d601f19601f820116820180604052508101906117c09190612ce8565b6001600160a01b031663591fcdfe8360030183815481106117dd57fe5b6000918252602090912001546004850180546001600160a01b03909216918590811061180557fe5b906000526020600020015485600501858154811061181f57fe5b9060005260206000200186600601868154811061183857fe5b9060005260206000200187600201546040518663ffffffff1660e01b8152600401611867959493929190612ff0565b600060405180830381600087803b15801561188157600080fd5b505af1158015611895573d6000803e3d6000fd5b5050600190920191506117309050565b507f789cf55be980739dad1d0699b93b58e806b51c9d96619bfa8fe0a28abaa7b30c836040516118d59190613081565b60405180910390a1505050565b6001546001600160a01b031681565b6001546001600160a01b0316331461191b5760405162461bcd60e51b815260040161058e906137bb565b600180546001600160a01b0319169055565b600a90565b6001546001600160a01b0316331461195c5760405162461bcd60e51b815260040161058e906133b4565b60008054906101000a90046001600160a01b03166001600160a01b031663d33219b46040518163ffffffff1660e01b815260040160206040518083038186803b1580156119a857600080fd5b505afa1580156119bc573d6000803e3d6000fd5b505050506040513d601f19601f820116820180604052508101906119e09190612ce8565b6001600160a01b0316633a66f90160008054906101000a90046001600160a01b03166001600160a01b031663d33219b46040518163ffffffff1660e01b815260040160206040518083038186803b158015611a3a57600080fd5b505afa158015611a4e573d6000803e3d6000fd5b505050506040513d601f19601f82011682018060405250810190611a729190612ce8565b600085604051602001611a859190612ee3565b604051602081830303815290604052856040518563ffffffff1660e01b8152600401611ab49493929190612f38565b602060405180830381600087803b158015611ace57600080fd5b505af1158015611ae2573d6000803e3d6000fd5b505050506040513d601f19601f82011682018060405250810190610f659190612c5d565b6000805460408051633df06b5960e01b81529051611233926001600160a01b031691633df06b59916004808301926020929190829003018186803b158015611b4d57600080fd5b505afa158015611b61573d6000803e3d6000fd5b505050506040513d601f19601f82011682018060405250810190611b859190612ce8565b6001600160a01b03166379502c556040518163ffffffff1660e01b815260040160206040518083038186803b158015611bbd57600080fd5b505afa158015611bd1573d6000803e3d6000fd5b505050506040513d601f19601f82011682018060405250810190611bf59190612ce8565b6001600160a01b031663b58131b06040518163ffffffff1660e01b815260040160206040518083038186803b15801561109157600080fd5b6001546001600160a01b03163314611c575760405162461bcd60e51b815260040161058e9061309e565b60008054906101000a90046001600160a01b03166001600160a01b031663d33219b46040518163ffffffff1660e01b815260040160206040518083038186803b158015611ca357600080fd5b505afa158015611cb7573d6000803e3d6000fd5b505050506040513d601f19601f82011682018060405250810190611cdb9190612ce8565b6001600160a01b0316630e18b6816040518163ffffffff1660e01b8152600401600060405180830381600087803b158015611d1557600080fd5b505af1158015611d29573d6000803e3d6000fd5b50505050565b60025481565b6003611d40826114c7565b6006811115611d4b57fe5b14611d685760405162461bcd60e51b815260040161058e906130fb565b6000818152600360209081526040808320835482516334cc866d60e21b81529251919493611e6d936001600160a01b039092169263d33219b4926004808201939291829003018186803b158015611dbe57600080fd5b505afa158015611dd2573d6000803e3d6000fd5b505050506040513d601f19601f82011682018060405250810190611df69190612ce8565b6001600160a01b0316636a42b8f86040518163ffffffff1660e01b815260040160206040518083038186803b158015611e2e57600080fd5b505afa158015611e42573d6000803e3d6000fd5b505050506040513d601f19601f82011682018060405250810190611e669190612c5d565b429061231b565b905060005b60038301548110156120155761200d836003018281548110611e9057fe5b6000918252602090912001546004850180546001600160a01b039092169184908110611eb857fe5b9060005260206000200154856005018481548110611ed257fe5b600091825260209182902001805460408051601f6002600019610100600187161502019094169390930492830185900485028101850190915281815292830182828015611f605780601f10611f3557610100808354040283529160200191611f60565b820191906000526020600020905b815481529060010190602001808311611f4357829003601f168201915b5050505050866006018581548110611f7457fe5b600091825260209182902001805460408051601f60026000196101006001871615020190941693909304928301859004850281018501909152818152928301828280156120025780601f10611fd757610100808354040283529160200191612002565b820191906000526020600020905b815481529060010190602001808311611fe557829003601f168201915b505050505086612377565b600101611e72565b50600282018190556040517f9a2e42fd6722813d69113e7d0079d3d940171428df7373df9c7f7617cfda2892906118d5908590849061391a565b612057612811565b5060008281526003602090815260408083206001600160a01b0385168452600c018252918290208251606081018452815460ff808216151583526101009091041615159281019290925260010154918101919091525b92915050565b60046120be826114c7565b60068111156120c957fe5b146120e65760405162461bcd60e51b815260040161058e90613165565b6000818152600360205260408120600b8101805461ff001916610100179055905b60038201548110156122b75760008054906101000a90046001600160a01b03166001600160a01b031663d33219b46040518163ffffffff1660e01b815260040160206040518083038186803b15801561215f57600080fd5b505afa158015612173573d6000803e3d6000fd5b505050506040513d601f19601f820116820180604052508101906121979190612ce8565b6001600160a01b0316630825f38f8360040183815481106121b457fe5b90600052602060002001548460030184815481106121ce57fe5b6000918252602090912001546004860180546001600160a01b0390921691869081106121f657fe5b906000526020600020015486600501868154811061221057fe5b9060005260206000200187600601878154811061222957fe5b9060005260206000200188600201546040518763ffffffff1660e01b8152600401612258959493929190612ff0565b6000604051808303818588803b15801561227157600080fd5b505af1158015612285573d6000803e3d6000fd5b50505050506040513d6000823e601f3d908101601f191682016040526122ae9190810190612c75565b50600101612107565b507f712ae1383f79ac853f8d882153778e0260ef8f03b504e2866e0593e04d2b291f826040516122e79190613081565b60405180910390a15050565b6000828211156123155760405162461bcd60e51b815260040161058e906132f9565b50900390565b6000828201838110156123405760405162461bcd60e51b815260040161058e906131d0565b9392505050565b6000612340670de0b6b3a764000061237161236286866125d2565b6706f05b59d3b200009061231b565b9061260c565b60008054906101000a90046001600160a01b03166001600160a01b031663d33219b46040518163ffffffff1660e01b815260040160206040518083038186803b1580156123c357600080fd5b505afa1580156123d7573d6000803e3d6000fd5b505050506040513d601f19601f820116820180604052508101906123fb9190612ce8565b6001600160a01b031663f2b065378686868686604051602001612422959493929190612fa4565b604051602081830303815290604052805190602001206040518263ffffffff1660e01b81526004016124549190613081565b60206040518083038186803b15801561246c57600080fd5b505afa158015612480573d6000803e3d6000fd5b505050506040513d601f19601f820116820180604052508101906124a49190612c41565b156124c15760405162461bcd60e51b815260040161058e90613517565b60008054906101000a90046001600160a01b03166001600160a01b031663d33219b46040518163ffffffff1660e01b815260040160206040518083038186803b15801561250d57600080fd5b505afa158015612521573d6000803e3d6000fd5b505050506040513d601f19601f820116820180604052508101906125459190612ce8565b6001600160a01b0316633a66f90186868686866040518663ffffffff1660e01b8152600401612578959493929190612fa4565b602060405180830381600087803b15801561259257600080fd5b505af11580156125a6573d6000803e3d6000fd5b505050506040513d601f19601f820116820180604052508101906125ca9190612c5d565b505050505050565b6000826125e1575060006120ad565b828202828482816125ee57fe5b04146123405760405162461bcd60e51b815260040161058e906134d6565b600080821161262d5760405162461bcd60e51b815260040161058e9061337d565b81838161263657fe5b049392505050565b604051806101a001604052806000815260200160006001600160a01b031681526020016000815260200160608152602001606081526020016060815260200160608152602001600081526020016000815260200160008152602001600081526020016000151581526020016000151581525090565b828054828255906000526020600020908101928215612708579160200282015b8281111561270857825182546001600160a01b0319166001600160a01b039091161782556020909201916001909101906126d3565b50612714929150612831565b5090565b828054828255906000526020600020908101928215612753579160200282015b82811115612753578251825591602001919060010190612738565b50612714929150612850565b8280548282559060005260206000209081019282156127ac579160200282015b828111156127ac578251805161279c918491602090910190612865565b509160200191906001019061277f565b506127149291506128d2565b828054828255906000526020600020908101928215612805579160200282015b8281111561280557825180516127f5918491602090910190612865565b50916020019190600101906127d8565b506127149291506128ef565b604080516060810182526000808252602082018190529181019190915290565b5b808211156127145780546001600160a01b0319168155600101612832565b5b808211156127145760008155600101612851565b828054600181600116156101000203166002900490600052602060002090601f016020900481019282601f106128a657805160ff1916838001178555612753565b828001600101855582156127535791820182811115612753578251825591602001919060010190612738565b808211156127145760006128e6828261290c565b506001016128d2565b80821115612714576000612903828261290c565b506001016128ef565b50805460018160011615610100020316600290046000825580601f106129325750612950565b601f0160209004906000526020600020908101906129509190612850565b50565b600082601f830112612963578081fd5b81356129766129718261394f565b613928565b81815291506020808301908481018184028601820187101561299757600080fd5b60005b848110156129bf5781356129ad816139cb565b8452928201929082019060010161299a565b505050505092915050565b600082601f8301126129da578081fd5b81356129e86129718261394f565b818152915060208083019084810160005b848110156129bf57612a10888484358a0101612ad8565b845292820192908201906001016129f9565b600082601f830112612a32578081fd5b8135612a406129718261394f565b818152915060208083019084810160005b848110156129bf57612a68888484358a0101612ad8565b84529282019290820190600101612a51565b600082601f830112612a8a578081fd5b8135612a986129718261394f565b818152915060208083019084810181840286018201871015612ab957600080fd5b60005b848110156129bf57813584529282019290820190600101612abc565b600082601f830112612ae8578081fd5b8135612af66129718261396f565b9150808252836020828501011115612b0d57600080fd5b8060208401602084013760009082016020015292915050565b600060208284031215612b37578081fd5b8135612340816139cb565b60008060408385031215612b54578081fd5b8235612b5f816139cb565b946020939093013593505050565b60008060008060008060c08789031215612b85578182fd5b863567ffffffffffffffff80821115612b9c578384fd5b612ba88a838b01612953565b97506020890135915080821115612bbd578384fd5b612bc98a838b01612a7a565b96506040890135915080821115612bde578384fd5b612bea8a838b01612a22565b95506060890135915080821115612bff578384fd5b612c0b8a838b016129ca565b94506080890135915080821115612c20578384fd5b50612c2d89828a01612ad8565b92505060a087013590509295509295509295565b600060208284031215612c52578081fd5b8151612340816139e0565b600060208284031215612c6e578081fd5b5051919050565b600060208284031215612c86578081fd5b815167ffffffffffffffff811115612c9c578182fd5b8201601f81018413612cac578182fd5b8051612cba6129718261396f565b818152856020838501011115612cce578384fd5b612cdf82602083016020860161399f565b95945050505050565b600060208284031215612cf9578081fd5b8151612340816139cb565b600060208284031215612d15578081fd5b5035919050565b60008060408385031215612d2e578182fd5b823591506020830135612d40816139cb565b809150509250929050565b60008060408385031215612d5d578182fd5b823591506020830135612d40816139e0565b6000815180845260208085019450808401835b83811015612da75781516001600160a01b031687529582019590820190600101612d82565b509495945050505050565b6000815180845260208085018081965082840281019150828601855b85811015612df8578284038952612de6848351612e34565b98850198935090840190600101612dce565b5091979650505050505050565b6000815180845260208085019450808401835b83811015612da757815187529582019590820190600101612e18565b60008151808452612e4c81602086016020860161399f565b601f01601f19169290920160200192915050565b60008154600180821660008114612e7e5760018114612e9c57612eda565b60028304607f16865260ff1983166020870152604086019350612eda565b60028304808752612eac86613993565b60005b82811015612ed05781546020828b0101528482019150602081019050612eaf565b8801602001955050505b50505092915050565b6001600160a01b0391909116815260200190565b6001600160a01b03929092168252602082015260400190565b6001600160a01b03949094168452602084019290925215156040830152606082015260800190565b600060018060a01b038616825284602083015260a06040830152601860a08301527f73657450656e64696e6741646d696e286164647265737329000000000000000060c083015260e06060830152612f9360e0830185612e34565b905082608083015295945050505050565b600060018060a01b038716825285602083015260a06040830152612fcb60a0830186612e34565b8281036060840152612fdd8186612e34565b9150508260808301529695505050505050565b600060018060a01b038716825285602083015260a0604083015261301760a0830186612e60565b8281036060840152612fdd8186612e60565b60006080825261303c6080830187612d6f565b828103602084015261304e8187612e05565b905082810360408401526130628186612db2565b905082810360608401526130768185612db2565b979650505050505050565b90815260200190565b602081016007831061309857fe5b91905290565b60208082526039908201527f476f7665726e6f72416c7068613a3a5f5f61636365707441646d696e3a20736560408201527f6e646572206d75737420626520676f7620677561726469616e00000000000000606082015260800190565b60208082526044908201527f476f7665726e6f72416c7068613a3a71756575653a2070726f706f73616c206360408201527f616e206f6e6c79206265207175657565642069662069742069732073756363656060820152631959195960e21b608082015260a00190565b60208082526045908201527f476f7665726e6f72416c7068613a3a657865637574653a2070726f706f73616c60408201527f2063616e206f6e6c7920626520657865637574656420696620697420697320716060820152641d595d595960da1b608082015260a00190565b6020808252601b908201527f536166654d6174683a206164646974696f6e206f766572666c6f770000000000604082015260600190565b6020808252604c908201527f476f7665726e6f72416c7068613a3a5f5f6578656375746553657454696d656c60408201527f6f636b50656e64696e6741646d696e3a2073656e646572206d7573742062652060608201526b33b7bb1033bab0b93234b0b760a11b608082015260a00190565b60208082526018908201527f4f6e6c7920477561726469616e2063616e2063616e63656c0000000000000000604082015260600190565b60208082526029908201527f476f7665726e6f72416c7068613a3a73746174653a20696e76616c69642070726040820152681bdc1bdcd85b081a5960ba1b606082015260800190565b6020808252601e908201527f536166654d6174683a207375627472616374696f6e206f766572666c6f770000604082015260600190565b6020808252602d908201527f476f7665726e6f72416c7068613a3a5f63617374566f74653a20766f7465722060408201526c185b1c9958591e481d9bdd1959609a1b606082015260800190565b6020808252601a908201527f536166654d6174683a206469766973696f6e206279207a65726f000000000000604082015260600190565b6020808252604a908201527f476f7665726e6f72416c7068613a3a5f5f717565756553657454696d656c6f6360408201527f6b50656e64696e6741646d696e3a2073656e646572206d75737420626520676f6060820152693b1033bab0b93234b0b760b11b608082015260a00190565b60208082526028908201527f476f7665726e6f72416c7068613a3a70726f706f73653a20746f6f206d616e7960408201526720616374696f6e7360c01b606082015260800190565b60208082526044908201527f476f7665726e6f72416c7068613a3a70726f706f73653a2070726f706f73616c60408201527f2066756e6374696f6e20696e666f726d6174696f6e206172697479206d69736d6060820152630c2e8c6d60e31b608082015260a00190565b60208082526021908201527f536166654d6174683a206d756c7469706c69636174696f6e206f766572666c6f6040820152607760f81b606082015260800190565b60208082526044908201527f476f7665726e6f72416c7068613a3a5f71756575654f725265766572743a207060408201527f726f706f73616c20616374696f6e20616c7265616479207175657565642061746060820152632065746160e01b608082015260a00190565b6020808252601b908201527f50726f706f73616c20656e642d74696d6520746f6f206561726c790000000000604082015260600190565b6020808252602c908201527f476f7665726e6f72416c7068613a3a70726f706f73653a206d7573742070726f60408201526b7669646520616374696f6e7360a01b606082015260800190565b6020808252603f908201527f476f7665726e6f72416c7068613a3a70726f706f73653a2070726f706f73657260408201527f20766f7465732062656c6f772070726f706f73616c207468726573686f6c6400606082015260800190565b60208082526058908201527f476f7665726e6f72416c7068613a3a70726f706f73653a206f6e65206c69766560408201527f2070726f706f73616c207065722070726f706f7365722c20666f756e6420616e60608201527f20616c7265616479206163746976652070726f706f73616c0000000000000000608082015260a00190565b6020808252601a908201527f50726f706f73616c20656e642d74696d6520746f6f206c617465000000000000604082015260600190565b60208082526036908201527f476f7665726e6f72416c7068613a3a63616e63656c3a2063616e6e6f742063616040820152751b98d95b08195e1958dd5d1959081c1c9bdc1bdcd85b60521b606082015260800190565b6020808252602a908201527f476f7665726e6f72416c7068613a3a5f63617374566f74653a20766f74696e67604082015269081a5cc818db1bdcd95960b21b606082015260800190565b60208082526036908201527f476f7665726e6f72416c7068613a3a5f5f61626469636174653a2073656e6465604082015275391036bab9ba1031329033b7bb1033bab0b93234b0b760511b606082015260800190565b8151151581526020808301511515908201526040918201519181019190915260600190565b8981526001600160a01b0389166020820152610120604082018190526000906138618382018b612d6f565b90508281036060840152613875818a612e05565b905082810360808401526138898189612db2565b905082810360a084015261389d8188612db2565b90508560c08401528460e08401528281036101008401526138be8185612e34565b9c9b505050505050505050505050565b9889526001600160a01b0397909716602089015260408801959095526060870193909352608086019190915260a085015260c0840152151560e083015215156101008201526101200190565b918252602082015260400190565b60405181810167ffffffffffffffff8111828210171561394757600080fd5b604052919050565b600067ffffffffffffffff821115613965578081fd5b5060209081020190565b600067ffffffffffffffff821115613985578081fd5b50601f01601f191660200190565b60009081526020902090565b60005b838110156139ba5781810151838201526020016139a2565b83811115611d295750506000910152565b6001600160a01b038116811461295057600080fd5b801515811461295057600080fdfea2646970667358221220042958f369a620406d0c878d42217fbf6866c2ba3285c0d5323d44630374286664736f6c634300060c0033",
  "immutableReferences": {},
  "source": "// SPDX-License-Identifier: BSD-3-Clause\npragma solidity 0.6.12;\npragma experimental ABIEncoderV2;\n\nimport \"@openzeppelin/contracts/math/SafeMath.sol\";\nimport \"./interfaces/IGovernorAlpha.sol\";\nimport \"./interfaces/IGovernanceAddressProvider.sol\";\nimport \"../libraries/WadRayMath.sol\";\n\ncontract GovernorAlpha is IGovernorAlpha {\n  using SafeMath for uint256;\n  using WadRayMath for uint256;\n\n  /// @notice The maximum number of actions that can be included in a proposal\n  function proposalMaxOperations() public pure returns (uint256) {\n    return 10;\n  } // 10 actions\n\n  IGovernanceAddressProvider public a;\n\n  /// @notice The address of the Governor Guardian\n  address public guardian;\n\n  /// @notice The total number of proposals\n  uint256 public proposalCount;\n\n  /// @notice The official record of all proposals ever proposed\n  mapping(uint256 => Proposal) public proposals;\n\n  /// @notice The latest proposal for each proposer\n  mapping(address => uint256) public latestProposalIds;\n\n  constructor(IGovernanceAddressProvider _addresses, address _guardian) public {\n    require(address(_addresses) != address(0));\n    require(address(_guardian) != address(0));\n\n    a = _addresses;\n    guardian = _guardian;\n  }\n\n  function propose(\n    address[] memory targets,\n    uint256[] memory values,\n    string[] memory signatures,\n    bytes[] memory calldatas,\n    string memory description,\n    uint256 endTime\n  ) public override returns (uint256) {\n    uint256 votingDuration = endTime.sub(block.timestamp);\n    require(votingDuration >= a.parallel().config().minVotingPeriod(), \"Proposal end-time too early\");\n    require(votingDuration <= a.parallel().config().maxVotingPeriod(), \"Proposal end-time too late\");\n\n    require(\n      a.votingEscrow().balanceOfAt(msg.sender, endTime) > proposalThreshold(),\n      \"GovernorAlpha::propose: proposer votes below proposal threshold\"\n    );\n    require(\n      targets.length == values.length && targets.length == signatures.length && targets.length == calldatas.length,\n      \"GovernorAlpha::propose: proposal function information arity mismatch\"\n    );\n    require(targets.length != 0, \"GovernorAlpha::propose: must provide actions\");\n    require(targets.length <= proposalMaxOperations(), \"GovernorAlpha::propose: too many actions\");\n\n    uint256 latestProposalId = latestProposalIds[msg.sender];\n    if (latestProposalId != 0) {\n      ProposalState proposersLatestProposalState = state(latestProposalId);\n      require(\n        proposersLatestProposalState != ProposalState.Active,\n        \"GovernorAlpha::propose: one live proposal per proposer, found an already active proposal\"\n      );\n    }\n\n    proposalCount++;\n    Proposal memory newProposal = Proposal({\n      id: proposalCount,\n      proposer: msg.sender,\n      eta: 0,\n      targets: targets,\n      values: values,\n      signatures: signatures,\n      calldatas: calldatas,\n      startTime: block.timestamp,\n      endTime: endTime,\n      forVotes: 0,\n      againstVotes: 0,\n      canceled: false,\n      executed: false\n    });\n\n    proposals[newProposal.id] = newProposal;\n    latestProposalIds[newProposal.proposer] = newProposal.id;\n\n    emit ProposalCreated(\n      newProposal.id,\n      msg.sender,\n      targets,\n      values,\n      signatures,\n      calldatas,\n      block.timestamp,\n      endTime,\n      description\n    );\n    return newProposal.id;\n  }\n\n  function queue(uint256 proposalId) public override {\n    require(\n      state(proposalId) == ProposalState.Succeeded,\n      \"GovernorAlpha::queue: proposal can only be queued if it is succeeded\"\n    );\n    Proposal storage proposal = proposals[proposalId];\n    uint256 eta = block.timestamp.add(a.timelock().delay());\n    for (uint256 i = 0; i < proposal.targets.length; i++) {\n      _queueOrRevert(proposal.targets[i], proposal.values[i], proposal.signatures[i], proposal.calldatas[i], eta);\n    }\n    proposal.eta = eta;\n    emit ProposalQueued(proposalId, eta);\n  }\n\n  function execute(uint256 proposalId) public payable override {\n    require(\n      state(proposalId) == ProposalState.Queued,\n      \"GovernorAlpha::execute: proposal can only be executed if it is queued\"\n    );\n    Proposal storage proposal = proposals[proposalId];\n    proposal.executed = true;\n    for (uint256 i = 0; i < proposal.targets.length; i++) {\n      a.timelock().executeTransaction{ value: proposal.values[i] }(\n        proposal.targets[i],\n        proposal.values[i],\n        proposal.signatures[i],\n        proposal.calldatas[i],\n        proposal.eta\n      );\n    }\n    emit ProposalExecuted(proposalId);\n  }\n\n  function cancel(uint256 proposalId) public override {\n    ProposalState state = state(proposalId);\n    require(state != ProposalState.Executed, \"GovernorAlpha::cancel: cannot cancel executed proposal\");\n\n    Proposal storage proposal = proposals[proposalId];\n    require(msg.sender == guardian, \"Only Guardian can cancel\");\n\n    proposal.canceled = true;\n    for (uint256 i = 0; i < proposal.targets.length; i++) {\n      a.timelock().cancelTransaction(\n        proposal.targets[i],\n        proposal.values[i],\n        proposal.signatures[i],\n        proposal.calldatas[i],\n        proposal.eta\n      );\n    }\n\n    emit ProposalCanceled(proposalId);\n  }\n\n  function castVote(uint256 proposalId, bool support) public override {\n    require(state(proposalId) == ProposalState.Active, \"GovernorAlpha::_castVote: voting is closed\");\n    Proposal storage proposal = proposals[proposalId];\n    Receipt storage receipt = proposal.receipts[msg.sender];\n    require(receipt.hasVoted == false, \"GovernorAlpha::_castVote: voter already voted\");\n    uint256 votes = a.votingEscrow().balanceOfAt(msg.sender, proposal.endTime);\n\n    if (support) {\n      proposal.forVotes = proposal.forVotes.add(votes);\n    } else {\n      proposal.againstVotes = proposal.againstVotes.add(votes);\n    }\n\n    receipt.hasVoted = true;\n    receipt.support = support;\n    receipt.votes = votes;\n\n    emit VoteCast(msg.sender, proposalId, support, votes);\n  }\n\n  // solhint-disable-next-line private-vars-leading-underscore\n  function __acceptAdmin() public {\n    require(msg.sender == guardian, \"GovernorAlpha::__acceptAdmin: sender must be gov guardian\");\n    a.timelock().acceptAdmin();\n  }\n\n  // solhint-disable-next-line private-vars-leading-underscore\n  function __abdicate() public {\n    require(msg.sender == guardian, \"GovernorAlpha::__abdicate: sender must be gov guardian\");\n    guardian = address(0);\n  }\n\n  // solhint-disable-next-line private-vars-leading-underscore\n  function __queueSetTimelockPendingAdmin(address newPendingAdmin, uint256 eta) public {\n    require(msg.sender == guardian, \"GovernorAlpha::__queueSetTimelockPendingAdmin: sender must be gov guardian\");\n    a.timelock().queueTransaction(\n      address(a.timelock()),\n      0,\n      \"setPendingAdmin(address)\",\n      abi.encode(newPendingAdmin),\n      eta\n    );\n  }\n\n  // solhint-disable-next-line private-vars-leading-underscore\n  function __executeSetTimelockPendingAdmin(address newPendingAdmin, uint256 eta) public {\n    require(msg.sender == guardian, \"GovernorAlpha::__executeSetTimelockPendingAdmin: sender must be gov guardian\");\n    a.timelock().executeTransaction(\n      address(a.timelock()),\n      0,\n      \"setPendingAdmin(address)\",\n      abi.encode(newPendingAdmin),\n      eta\n    );\n  }\n\n  /// @notice The number of votes in support of a proposal required in order for a quorum to be reached and for a vote to succeed\n  function quorumVotes() public view override returns (uint256) {\n    return a.votingEscrow().stakingToken().totalSupply().wadMul(a.parallel().config().votingQuorum());\n  }\n\n  /// @notice The number of votes required in order for a voter to become a proposer\n  function proposalThreshold() public view override returns (uint256) {\n    return a.votingEscrow().stakingToken().totalSupply().wadMul(a.parallel().config().proposalThreshold());\n  }\n\n  function getActions(uint256 proposalId)\n    public\n    view\n    override\n    returns (\n      address[] memory targets,\n      uint256[] memory values,\n      string[] memory signatures,\n      bytes[] memory calldatas\n    )\n  {\n    Proposal storage p = proposals[proposalId];\n    return (p.targets, p.values, p.signatures, p.calldatas);\n  }\n\n  function getReceipt(uint256 proposalId, address voter) public view override returns (Receipt memory) {\n    return proposals[proposalId].receipts[voter];\n  }\n\n  function state(uint256 proposalId) public view override returns (ProposalState) {\n    require(proposalCount >= proposalId && proposalId > 0, \"GovernorAlpha::state: invalid proposal id\");\n    Proposal storage proposal = proposals[proposalId];\n    if (proposal.canceled) {\n      return ProposalState.Canceled;\n    } else if (block.timestamp <= proposal.endTime) {\n      return ProposalState.Active;\n    } else if (proposal.forVotes <= proposal.againstVotes || proposal.forVotes < quorumVotes()) {\n      return ProposalState.Defeated;\n    } else if (proposal.eta == 0) {\n      return ProposalState.Succeeded;\n    } else if (proposal.executed) {\n      return ProposalState.Executed;\n    } else if (block.timestamp >= a.timelock().GRACE_PERIOD().add(proposal.endTime)) {\n      return ProposalState.Expired;\n    } else {\n      return ProposalState.Queued;\n    }\n  }\n\n  function _queueOrRevert(\n    address target,\n    uint256 value,\n    string memory signature,\n    bytes memory data,\n    uint256 eta\n  ) internal {\n    require(\n      !a.timelock().queuedTransactions(keccak256(abi.encode(target, value, signature, data, eta))),\n      \"GovernorAlpha::_queueOrRevert: proposal action already queued at eta\"\n    );\n    a.timelock().queueTransaction(target, value, signature, data, eta);\n  }\n}\n",
  "sourcePath": "/home/mingyue/sub_contract_content/Web3Bugs/contracts/115/core/contracts/governance/GovernorAlpha.sol",
  "compiler": {
    "name": "solc",
    "version": "0.6.12+commit.27d51765.Emscripten.clang"
  },
  "schemaVersion": "3.4.7",
  "updatedAt": "2025-02-28T14:09:34.611Z",
  "devdoc": {
    "kind": "dev",
    "methods": {},
    "version": 1
  },
  "userdoc": {
    "events": {
      "ProposalCanceled(uint256)": {
        "notice": "An event emitted when a proposal has been canceled"
      },
      "ProposalCreated(uint256,address,address[],uint256[],string[],bytes[],uint256,uint256,string)": {
        "notice": "An event emitted when a new proposal is created"
      },
      "ProposalExecuted(uint256)": {
        "notice": "An event emitted when a proposal has been executed in the Timelock"
      },
      "ProposalQueued(uint256,uint256)": {
        "notice": "An event emitted when a proposal has been queued in the Timelock"
      },
      "VoteCast(address,uint256,bool,uint256)": {
        "notice": "An event emitted when a vote has been cast on a proposal"
      }
    },
    "kind": "user",
    "methods": {
      "guardian()": {
        "notice": "The address of the Governor Guardian"
      },
      "latestProposalIds(address)": {
        "notice": "The latest proposal for each proposer"
      },
      "proposalCount()": {
        "notice": "The total number of proposals"
      },
      "proposalMaxOperations()": {
        "notice": "The maximum number of actions that can be included in a proposal"
      },
      "proposalThreshold()": {
        "notice": "The number of votes required in order for a voter to become a proposer"
      },
      "proposals(uint256)": {
        "notice": "The official record of all proposals ever proposed"
      },
      "quorumVotes()": {
        "notice": "The number of votes in support of a proposal required in order for a quorum to be reached and for a vote to succeed"
      }
    },
    "version": 1
  }
}