{
  "contractName": "GUniLPOracle",
  "abi": [
    {
      "inputs": [
        {
          "internalType": "uint8",
          "name": "_decimals",
          "type": "uint8"
        },
        {
          "internalType": "string",
          "name": "_description",
          "type": "string"
        },
        {
          "internalType": "contract IGUniPool",
          "name": "_pool",
          "type": "address"
        },
        {
          "internalType": "contract AggregatorV3Interface",
          "name": "_oracleA",
          "type": "address"
        },
        {
          "internalType": "contract AggregatorV3Interface",
          "name": "_oracleB",
          "type": "address"
        }
      ],
      "stateMutability": "nonpayable",
      "type": "constructor"
    },
    {
      "inputs": [],
      "name": "decimals",
      "outputs": [
        {
          "internalType": "uint8",
          "name": "",
          "type": "uint8"
        }
      ],
      "stateMutability": "view",
      "type": "function"
    },
    {
      "inputs": [],
      "name": "description",
      "outputs": [
        {
          "internalType": "string",
          "name": "",
          "type": "string"
        }
      ],
      "stateMutability": "view",
      "type": "function"
    },
    {
      "inputs": [],
      "name": "oracleA",
      "outputs": [
        {
          "internalType": "contract AggregatorV3Interface",
          "name": "",
          "type": "address"
        }
      ],
      "stateMutability": "view",
      "type": "function"
    },
    {
      "inputs": [],
      "name": "oracleB",
      "outputs": [
        {
          "internalType": "contract AggregatorV3Interface",
          "name": "",
          "type": "address"
        }
      ],
      "stateMutability": "view",
      "type": "function"
    },
    {
      "inputs": [],
      "name": "pool",
      "outputs": [
        {
          "internalType": "contract IGUniPool",
          "name": "",
          "type": "address"
        }
      ],
      "stateMutability": "view",
      "type": "function"
    },
    {
      "inputs": [],
      "name": "version",
      "outputs": [
        {
          "internalType": "uint256",
          "name": "",
          "type": "uint256"
        }
      ],
      "stateMutability": "view",
      "type": "function"
    },
    {
      "inputs": [
        {
          "internalType": "uint80",
          "name": "_roundId",
          "type": "uint80"
        }
      ],
      "name": "getRoundData",
      "outputs": [
        {
          "internalType": "uint80",
          "name": "roundId",
          "type": "uint80"
        },
        {
          "internalType": "int256",
          "name": "answer",
          "type": "int256"
        },
        {
          "internalType": "uint256",
          "name": "startedAt",
          "type": "uint256"
        },
        {
          "internalType": "uint256",
          "name": "updatedAt",
          "type": "uint256"
        },
        {
          "internalType": "uint80",
          "name": "answeredInRound",
          "type": "uint80"
        }
      ],
      "stateMutability": "view",
      "type": "function"
    },
    {
      "inputs": [],
      "name": "latestRoundData",
      "outputs": [
        {
          "internalType": "uint80",
          "name": "roundId",
          "type": "uint80"
        },
        {
          "internalType": "int256",
          "name": "answer",
          "type": "int256"
        },
        {
          "internalType": "uint256",
          "name": "startedAt",
          "type": "uint256"
        },
        {
          "internalType": "uint256",
          "name": "updatedAt",
          "type": "uint256"
        },
        {
          "internalType": "uint80",
          "name": "answeredInRound",
          "type": "uint80"
        }
      ],
      "stateMutability": "view",
      "type": "function"
    }
  ],
  "bytecode": "0x61016060405260036001553480156200001757600080fd5b5060405162000e1f38038062000e1f833981810160405260a08110156200003d57600080fd5b8151602083018051604051929492938301929190846401000000008211156200006557600080fd5b9083019060208201858111156200007b57600080fd5b82516401000000008111828201881017156200009657600080fd5b82525081516020918201929091019080838360005b83811015620000c5578181015183820152602001620000ab565b50505050905090810190601f168015620000f35780820380516001836020036101000a031916815260200191505b5060409081526020820151908201516060909201519093509091506001600160a01b03831662000153576040805162461bcd60e51b815260206004808301919091526024820152630433030360e41b604482015290519081900360640190fd5b6001600160a01b03821662000198576040805162461bcd60e51b815260206004808301919091526024820152630433030360e41b604482015290519081900360640190fd5b6001600160a01b038116620001dd576040805162461bcd60e51b815260206004808301919091526024820152630433030360e41b604482015290519081900360640190fd5b6002805460ff191660ff87161790558351620002019060009060208701906200042a565b506001600160601b0319606084811b821660805283811b821660a05282901b1660c05260408051630dfe168160e01b815290516000916001600160a01b03861691630dfe168191600480820192602092909190829003018186803b1580156200026957600080fd5b505afa1580156200027e573d6000803e3d6000fd5b505050506040513d60208110156200029557600080fd5b50516040805163313ce56760e01b815290516001600160a01b039092169163313ce56791600480820192602092909190829003018186803b158015620002da57600080fd5b505afa158015620002ef573d6000803e3d6000fd5b505050506040513d60208110156200030657600080fd5b505160ff16600a81810a60e0526012829003900a610100526040805163d21220a760e01b815290519192506000916001600160a01b0387169163d21220a7916004808301926020929190829003018186803b1580156200036557600080fd5b505afa1580156200037a573d6000803e3d6000fd5b505050506040513d60208110156200039157600080fd5b50516040805163313ce56760e01b815290516001600160a01b039092169163313ce56791600480820192602092909190829003018186803b158015620003d657600080fd5b505afa158015620003eb573d6000803e3d6000fd5b505050506040513d60208110156200040257600080fd5b505160ff16600a81810a61012052601291909103900a6101405250620004c695505050505050565b828054600181600116156101000203166002900490600052602060002090601f016020900481019282601f106200046d57805160ff19168380011785556200049d565b828001600101855582156200049d579182015b828111156200049d57825182559160200191906001019062000480565b50620004ab929150620004af565b5090565b5b80821115620004ab5760008155600101620004b0565b60805160601c60a05160601c60c05160601c60e0516101005161012051610140516108e8620005376000398061068f52508061048a5250806106c35250806104585250806102e652806103c75250806101f3528061031552508061021752806104ca52806105b852506108e86000f3fe608060405234801561001057600080fd5b50600436106100885760003560e01c80637284e4161161005b5780637284e416146100f15780639a6fc8f51461016e5780639bdff8eb146101e1578063feaf968c146101e957610088565b80631670cb6f1461008d57806316f0115b146100b1578063313ce567146100b957806354fd4d50146100d7575b600080fd5b6100956101f1565b604080516001600160a01b039092168252519081900360200190f35b610095610215565b6100c1610239565b6040805160ff9092168252519081900360200190f35b6100df610242565b60408051918252519081900360200190f35b6100f9610248565b6040805160208082528351818301528351919283929083019185019080838360005b8381101561013357818101518382015260200161011b565b50505050905090810190601f1680156101605780820380516001836020036101000a031916815260200191505b509250505060405180910390f35b6101976004803603602081101561018457600080fd5b503569ffffffffffffffffffff166102d6565b604051808669ffffffffffffffffffff1681526020018581526020018481526020018381526020018269ffffffffffffffffffff1681526020019550505050505060405180910390f35b6100956102e4565b610197610308565b7f000000000000000000000000000000000000000000000000000000000000000081565b7f000000000000000000000000000000000000000000000000000000000000000081565b60025460ff1681565b60015481565b6000805460408051602060026001851615610100026000190190941693909304601f810184900484028201840190925281815292918301828280156102ce5780601f106102a3576101008083540402835291602001916102ce565b820191906000526020600020905b8154815290600101906020018083116102b157829003601f168201915b505050505081565b506000908190819081908190565b7f000000000000000000000000000000000000000000000000000000000000000081565b60008060008060008060007f00000000000000000000000000000000000000000000000000000000000000006001600160a01b031663feaf968c6040518163ffffffff1660e01b815260040160a06040518083038186803b15801561036c57600080fd5b505afa158015610380573d6000803e3d6000fd5b505050506040513d60a081101561039657600080fd5b50602081015160609091015160408051633fabe5a360e21b8152905192945090925060009182916001600160a01b037f0000000000000000000000000000000000000000000000000000000000000000169163feaf968c9160048082019260a092909190829003018186803b15801561040e57600080fd5b505afa158015610422573d6000803e3d6000fd5b505050506040513d60a081101561043857600080fd5b50602081015160609091015190925090508382600060306104c161047c847f000000000000000000000000000000000000000000000000000000000000000061071c565b6104b4600160601b6104ae887f000000000000000000000000000000000000000000000000000000000000000061071c565b9061071c565b816104bb57fe5b0461077e565b901b90506000807f00000000000000000000000000000000000000000000000000000000000000006001600160a01b031663b670ed7d846040518263ffffffff1660e01b815260040180826001600160a01b03168152602001915050604080518083038186803b15801561053457600080fd5b505afa158015610548573d6000803e3d6000fd5b505050506040513d604081101561055e57600080fd5b50805160209091015190925090508115158061057a5750600081115b6105b4576040805162461bcd60e51b815260206004808301919091526024820152630433130360e41b604482015290519081900360640190fd5b60007f00000000000000000000000000000000000000000000000000000000000000006001600160a01b03166318160ddd6040518163ffffffff1660e01b815260040160206040518083038186803b15801561060f57600080fd5b505afa158015610623573d6000803e3d6000fd5b505050506040513d602081101561063957600080fd5b50519050633b9aca0081101561067f576040805162461bcd60e51b815260206004808301919091526024820152634331303160e01b604482015290519081900360640190fd5b6106fa816106f46106ba6106b3867f000000000000000000000000000000000000000000000000000000000000000061071c565b899061071c565b6106ee6106e7887f000000000000000000000000000000000000000000000000000000000000000061071c565b8b9061071c565b906107d0565b9061082a565b9d50889b508689111561070b57869b505b505050505050505050509091929394565b60008261072b57506000610778565b8282028284828161073857fe5b04146107755760405162461bcd60e51b81526004018080602001828103825260218152602001806108926021913960400191505060405180910390fd5b90505b92915050565b600060038211156107c1575080600160028204015b818110156107bb578091506002818285816107aa57fe5b0401816107b357fe5b049050610793565b506107cb565b81156107cb575060015b919050565b600082820183811015610775576040805162461bcd60e51b815260206004820152601b60248201527f536166654d6174683a206164646974696f6e206f766572666c6f770000000000604482015290519081900360640190fd5b6000808211610880576040805162461bcd60e51b815260206004820152601a60248201527f536166654d6174683a206469766973696f6e206279207a65726f000000000000604482015290519081900360640190fd5b81838161088957fe5b04939250505056fe536166654d6174683a206d756c7469706c69636174696f6e206f766572666c6f77a26469706673582212208652c0d9ff99ceae3c9affdaa9ff73adc6a129cfae7e99ff7f3353538e488ec364736f6c634300060c0033",
  "immutableReferences": {
    "28605": [
      {
        "length": 32,
        "start": 535
      },
      {
        "length": 32,
        "start": 1226
      },
      {
        "length": 32,
        "start": 1464
      }
    ],
    "28607": [
      {
        "length": 32,
        "start": 499
      },
      {
        "length": 32,
        "start": 789
      }
    ],
    "28609": [
      {
        "length": 32,
        "start": 742
      },
      {
        "length": 32,
        "start": 967
      }
    ],
    "28611": [
      {
        "length": 32,
        "start": 1112
      }
    ],
    "28613": [
      {
        "length": 32,
        "start": 1731
      }
    ],
    "28615": [
      {
        "length": 32,
        "start": 1162
      }
    ],
    "28617": [
      {
        "length": 32,
        "start": 1679
      }
    ]
  },
  "source": "// SPDX-License-Identifier: MIT\n\npragma solidity 0.6.12;\n\nimport \"@openzeppelin/contracts/math/SafeMath.sol\";\nimport \"@openzeppelin/contracts/token/ERC20/ERC20.sol\";\n\nimport \"../chainlink/AggregatorV3Interface.sol\";\nimport \"../interfaces/IGUniPool.sol\";\nimport \"../libraries/MathPow.sol\";\n\ncontract GUniLPOracle is AggregatorV3Interface {\n  using SafeMath for uint256;\n\n  string public override description;\n  uint256 public override version = 3;\n  uint8 public override decimals;\n\n  IGUniPool public immutable pool;\n  AggregatorV3Interface public immutable oracleA;\n  AggregatorV3Interface public immutable oracleB;\n\n  uint256 private immutable _tokenDecimalsUnitA;\n  uint256 private immutable _tokenDecimalsOffsetA;\n  uint256 private immutable _tokenDecimalsUnitB;\n  uint256 private immutable _tokenDecimalsOffsetB;\n\n  constructor(\n    uint8 _decimals,\n    string memory _description,\n    IGUniPool _pool,\n    AggregatorV3Interface _oracleA,\n    AggregatorV3Interface _oracleB\n  ) public {\n    require(address(_pool) != address(0), \"C000\");\n    require(address(_oracleA) != address(0), \"C000\");\n    require(address(_oracleB) != address(0), \"C000\");\n\n    decimals = _decimals;\n    description = _description;\n    pool = _pool;\n    oracleA = _oracleA;\n    oracleB = _oracleB;\n\n    uint256 decimalsA = ERC20(_pool.token0()).decimals();\n    _tokenDecimalsUnitA = 10**decimalsA;\n    _tokenDecimalsOffsetA = 10**(18 - decimalsA);\n\n    uint256 decimalsB = ERC20(_pool.token1()).decimals();\n    _tokenDecimalsUnitB = 10**decimalsB;\n    _tokenDecimalsOffsetB = 10**(18 - decimalsB);\n  }\n\n  function getRoundData(uint80 _roundId)\n    public\n    view\n    override\n    returns (\n      uint80 roundId,\n      int256 answer,\n      uint256 startedAt,\n      uint256 updatedAt,\n      uint80 answeredInRound\n    )\n  {\n    // Skip the implementation since it is not used by price feed\n  }\n\n  /**\n   * @notice get data about the latest round. Consumers are encouraged to check\n   * that they're receiving fresh data by inspecting the updatedAt and\n   * answeredInRound return values.\n   * Note that different underlying implementations of AggregatorV3Interface\n   * have slightly different semantics for some of the return values. Consumers\n   * should determine what implementations they expect to receive\n   * data from and validate that they can properly handle return data from all\n   * of them.\n   * @return roundId is the round ID from the aggregator for which the data was\n   * retrieved combined with an phase to ensure that round IDs get larger as\n   * time moves forward.\n   * @return answer is the answer for the given round\n   * @return startedAt is the timestamp when the round was started.\n   * (Only some AggregatorV3Interface implementations return meaningful values)\n   * @return updatedAt is the timestamp when the round last was updated (i.e.\n   * answer was last computed)\n   * @return answeredInRound is the round ID of the round in which the answer\n   * was computed.\n   * (Only some AggregatorV3Interface implementations return meaningful values)\n   * @dev Note that answer and updatedAt may change between queries.\n   */\n  function latestRoundData()\n    public\n    view\n    override\n    returns (\n      uint80 roundId,\n      int256 answer,\n      uint256 startedAt,\n      uint256 updatedAt,\n      uint80 answeredInRound\n    )\n  {\n    (, int256 answerA, , uint256 assetUpdatedAtA, ) = oracleA.latestRoundData();\n    (, int256 answerB, , uint256 assetUpdatedAtB, ) = oracleB.latestRoundData();\n    uint256 priceA = uint256(answerA);\n    uint256 priceB = uint256(answerB);\n    uint160 sqrtPriceX96 = uint160(\n      MathPow.sqrt((priceA.mul(_tokenDecimalsUnitB).mul(1 << 96)) / (priceB.mul(_tokenDecimalsUnitA))) << 48\n    );\n\n    (uint256 rA, uint256 rB) = pool.getUnderlyingBalancesAtPrice(sqrtPriceX96);\n    require(rA > 0 || rB > 0, \"C100\");\n    uint256 totalSupply = pool.totalSupply();\n    require(totalSupply >= 1e9, \"C101\");\n\n    answer = int256(\n      priceA.mul(rA.mul(_tokenDecimalsOffsetA)).add(priceB.mul(rB.mul(_tokenDecimalsOffsetB))).div(totalSupply)\n    );\n    updatedAt = assetUpdatedAtA;\n\n    // use ealier time for updateAt\n    if (assetUpdatedAtA > assetUpdatedAtB) {\n      updatedAt = assetUpdatedAtB;\n    }\n  }\n}\n",
  "sourcePath": "/home/mingyue/sub_contract_content/Web3Bugs/contracts/115/core/contracts/oracles/GUniLPOracle.sol",
  "compiler": {
    "name": "solc",
    "version": "0.6.12+commit.27d51765.Emscripten.clang"
  },
  "schemaVersion": "3.4.7",
  "updatedAt": "2025-02-28T14:09:34.669Z",
  "devdoc": {
    "kind": "dev",
    "methods": {
      "latestRoundData()": {
        "details": "Note that answer and updatedAt may change between queries.",
        "returns": {
          "answer": "is the answer for the given round",
          "answeredInRound": "is the round ID of the round in which the answer was computed. (Only some AggregatorV3Interface implementations return meaningful values)",
          "roundId": "is the round ID from the aggregator for which the data was retrieved combined with an phase to ensure that round IDs get larger as time moves forward.",
          "startedAt": "is the timestamp when the round was started. (Only some AggregatorV3Interface implementations return meaningful values)",
          "updatedAt": "is the timestamp when the round last was updated (i.e. answer was last computed)"
        }
      }
    },
    "version": 1
  },
  "userdoc": {
    "kind": "user",
    "methods": {
      "latestRoundData()": {
        "notice": "get data about the latest round. Consumers are encouraged to check that they're receiving fresh data by inspecting the updatedAt and answeredInRound return values. Note that different underlying implementations of AggregatorV3Interface have slightly different semantics for some of the return values. Consumers should determine what implementations they expect to receive data from and validate that they can properly handle return data from all of them."
      }
    },
    "version": 1
  }
}