{
  "contractName": "InceptionVaultFactory",
  "abi": [
    {
      "inputs": [
        {
          "internalType": "address",
          "name": "adminInceptionVaultBase",
          "type": "address"
        },
        {
          "internalType": "address",
          "name": "inceptionVaultsCoreBase",
          "type": "address"
        },
        {
          "internalType": "address",
          "name": "inceptionVaultsDataProviderBase",
          "type": "address"
        },
        {
          "internalType": "contract IAddressProvider",
          "name": "addressProvider",
          "type": "address"
        },
        {
          "internalType": "contract IDebtNotifier",
          "name": "debtNotifier",
          "type": "address"
        },
        {
          "internalType": "contract IWETH",
          "name": "weth",
          "type": "address"
        },
        {
          "internalType": "contract IERC20",
          "name": "mimo",
          "type": "address"
        }
      ],
      "stateMutability": "nonpayable",
      "type": "constructor"
    },
    {
      "anonymous": false,
      "inputs": [
        {
          "indexed": false,
          "internalType": "address",
          "name": "owner",
          "type": "address"
        },
        {
          "indexed": false,
          "internalType": "contract IAdminInceptionVault",
          "name": "adminInceptionVault",
          "type": "address"
        },
        {
          "indexed": false,
          "internalType": "contract IInceptionVaultsCore",
          "name": "inceptionVaultsCore",
          "type": "address"
        },
        {
          "indexed": false,
          "internalType": "contract IInceptionVaultsDataProvider",
          "name": "inceptionVaultsDataProvider",
          "type": "address"
        },
        {
          "indexed": false,
          "internalType": "contract IInceptionVaultPriceFeed",
          "name": "inceptionVaultPriceFeed",
          "type": "address"
        }
      ],
      "name": "InceptionVaultDeployed",
      "type": "event"
    },
    {
      "anonymous": false,
      "inputs": [
        {
          "indexed": true,
          "internalType": "address",
          "name": "previousOwner",
          "type": "address"
        },
        {
          "indexed": true,
          "internalType": "address",
          "name": "newOwner",
          "type": "address"
        }
      ],
      "name": "OwnershipTransferred",
      "type": "event"
    },
    {
      "anonymous": false,
      "inputs": [
        {
          "indexed": false,
          "internalType": "uint16",
          "name": "_id",
          "type": "uint16"
        },
        {
          "indexed": false,
          "internalType": "address",
          "name": "_address",
          "type": "address"
        }
      ],
      "name": "PriceFeedAdded",
      "type": "event"
    },
    {
      "inputs": [],
      "name": "claimOwnership",
      "outputs": [],
      "stateMutability": "nonpayable",
      "type": "function"
    },
    {
      "inputs": [],
      "name": "owner",
      "outputs": [
        {
          "internalType": "address",
          "name": "",
          "type": "address"
        }
      ],
      "stateMutability": "view",
      "type": "function"
    },
    {
      "inputs": [],
      "name": "pendingOwner",
      "outputs": [
        {
          "internalType": "address",
          "name": "",
          "type": "address"
        }
      ],
      "stateMutability": "view",
      "type": "function"
    },
    {
      "inputs": [
        {
          "internalType": "address",
          "name": "newOwner",
          "type": "address"
        },
        {
          "internalType": "bool",
          "name": "direct",
          "type": "bool"
        },
        {
          "internalType": "bool",
          "name": "renounce",
          "type": "bool"
        }
      ],
      "name": "transferOwnership",
      "outputs": [],
      "stateMutability": "nonpayable",
      "type": "function"
    },
    {
      "inputs": [
        {
          "components": [
            {
              "internalType": "uint256",
              "name": "liquidationRatio",
              "type": "uint256"
            },
            {
              "internalType": "uint256",
              "name": "minCollateralRatio",
              "type": "uint256"
            },
            {
              "internalType": "uint256",
              "name": "borrowRate",
              "type": "uint256"
            },
            {
              "internalType": "uint256",
              "name": "originationFee",
              "type": "uint256"
            },
            {
              "internalType": "uint256",
              "name": "liquidationBonus",
              "type": "uint256"
            },
            {
              "internalType": "uint256",
              "name": "liquidationFee",
              "type": "uint256"
            }
          ],
          "internalType": "struct IInceptionVaultsCore.VaultConfig",
          "name": "_vaultConfig",
          "type": "tuple"
        },
        {
          "internalType": "contract IERC20",
          "name": "_inceptionCollateral",
          "type": "address"
        },
        {
          "internalType": "address",
          "name": "_inceptionVaultPriceFeed",
          "type": "address"
        },
        {
          "internalType": "address",
          "name": "_assetOracle",
          "type": "address"
        }
      ],
      "name": "cloneInceptionVault",
      "outputs": [],
      "stateMutability": "nonpayable",
      "type": "function"
    },
    {
      "inputs": [
        {
          "internalType": "address",
          "name": "_address",
          "type": "address"
        }
      ],
      "name": "addPriceFeed",
      "outputs": [],
      "stateMutability": "nonpayable",
      "type": "function"
    },
    {
      "inputs": [],
      "name": "a",
      "outputs": [
        {
          "internalType": "contract IAddressProvider",
          "name": "",
          "type": "address"
        }
      ],
      "stateMutability": "view",
      "type": "function"
    },
    {
      "inputs": [],
      "name": "debtNotifier",
      "outputs": [
        {
          "internalType": "contract IDebtNotifier",
          "name": "",
          "type": "address"
        }
      ],
      "stateMutability": "view",
      "type": "function"
    },
    {
      "inputs": [],
      "name": "weth",
      "outputs": [
        {
          "internalType": "contract IWETH",
          "name": "",
          "type": "address"
        }
      ],
      "stateMutability": "view",
      "type": "function"
    },
    {
      "inputs": [],
      "name": "mimo",
      "outputs": [
        {
          "internalType": "contract IERC20",
          "name": "",
          "type": "address"
        }
      ],
      "stateMutability": "view",
      "type": "function"
    },
    {
      "inputs": [],
      "name": "adminInceptionVaultBase",
      "outputs": [
        {
          "internalType": "address",
          "name": "",
          "type": "address"
        }
      ],
      "stateMutability": "view",
      "type": "function"
    },
    {
      "inputs": [],
      "name": "inceptionVaultsCoreBase",
      "outputs": [
        {
          "internalType": "address",
          "name": "",
          "type": "address"
        }
      ],
      "stateMutability": "view",
      "type": "function"
    },
    {
      "inputs": [],
      "name": "inceptionVaultsDataProviderBase",
      "outputs": [
        {
          "internalType": "address",
          "name": "",
          "type": "address"
        }
      ],
      "stateMutability": "view",
      "type": "function"
    },
    {
      "inputs": [],
      "name": "inceptionVaultCount",
      "outputs": [
        {
          "internalType": "uint256",
          "name": "",
          "type": "uint256"
        }
      ],
      "stateMutability": "view",
      "type": "function"
    },
    {
      "inputs": [],
      "name": "priceFeedCount",
      "outputs": [
        {
          "internalType": "uint8",
          "name": "",
          "type": "uint8"
        }
      ],
      "stateMutability": "view",
      "type": "function"
    },
    {
      "inputs": [
        {
          "internalType": "uint256",
          "name": "_id",
          "type": "uint256"
        }
      ],
      "name": "inceptionVaults",
      "outputs": [
        {
          "components": [
            {
              "internalType": "address",
              "name": "owner",
              "type": "address"
            },
            {
              "internalType": "contract IAdminInceptionVault",
              "name": "adminInceptionVault",
              "type": "address"
            },
            {
              "internalType": "contract IInceptionVaultsCore",
              "name": "inceptionVaultsCore",
              "type": "address"
            },
            {
              "internalType": "contract IInceptionVaultsDataProvider",
              "name": "inceptionVaultsDataProvider",
              "type": "address"
            },
            {
              "internalType": "contract IInceptionVaultPriceFeed",
              "name": "inceptionVaultPriceFeed",
              "type": "address"
            },
            {
              "internalType": "bool",
              "name": "isCustomPriceFeed",
              "type": "bool"
            }
          ],
          "internalType": "struct IInceptionVaultFactory.InceptionVault",
          "name": "",
          "type": "tuple"
        }
      ],
      "stateMutability": "view",
      "type": "function"
    },
    {
      "inputs": [
        {
          "internalType": "uint8",
          "name": "_id",
          "type": "uint8"
        }
      ],
      "name": "priceFeeds",
      "outputs": [
        {
          "internalType": "address",
          "name": "",
          "type": "address"
        }
      ],
      "stateMutability": "view",
      "type": "function"
    },
    {
      "inputs": [
        {
          "internalType": "address",
          "name": "_priceFeed",
          "type": "address"
        }
      ],
      "name": "priceFeedIds",
      "outputs": [
        {
          "internalType": "uint16",
          "name": "",
          "type": "uint16"
        }
      ],
      "stateMutability": "view",
      "type": "function"
    }
  ],
  "bytecode": "0x6101606040523480156200001257600080fd5b50604051620015b7380380620015b78339810160408190526200003591620001e5565b600080546001600160a01b0319163390811782556040519091907f8be0079c531659141344cd1fd0a4f28419497f9722a3daafe3b4186f6b6457e0908290a36001600160a01b038716620000a65760405162461bcd60e51b81526004016200009d906200028f565b60405180910390fd5b6001600160a01b038616620000cf5760405162461bcd60e51b81526004016200009d906200028f565b6001600160a01b038516620000f85760405162461bcd60e51b81526004016200009d906200028f565b6001600160a01b038416620001215760405162461bcd60e51b81526004016200009d906200028f565b6001600160a01b0383166200014a5760405162461bcd60e51b81526004016200009d906200028f565b6001600160a01b038216620001735760405162461bcd60e51b81526004016200009d906200028f565b6001600160a01b0381166200019c5760405162461bcd60e51b81526004016200009d906200028f565b6001600160601b0319606097881b81166101005295871b86166101205293861b85166101405291851b8416608052841b831660a052831b821660c05290911b1660e052620002c7565b600080600080600080600060e0888a03121562000200578283fd5b87516200020d81620002ae565b60208901519097506200022081620002ae565b60408901519096506200023381620002ae565b60608901519095506200024681620002ae565b60808901519094506200025981620002ae565b60a08901519093506200026c81620002ae565b60c08901519092506200027f81620002ae565b8091505092959891949750929550565b602080825260059082015264049563030360dc1b604082015260600190565b6001600160a01b0381168114620002c457600080fd5b50565b60805160601c60a05160601c60c05160601c60e05160601c6101005160601c6101205160601c6101405160601c611250620003676000398061053d5280610b785250806105075280610b9c5250806104d15280610bc052508061080e5280610c9b5250806107ec5280610be45250806107ca5280610cce52508061045c52806105dc52806105ff52806107a85280610894528061091a52506112506000f3fe608060405234801561001057600080fd5b50600436106101165760003560e01c8063396c39f0116100a257806365586b161161007157806365586b16146102045780636d9b1823146102195780638da5cb5b14610221578063bd1b714614610229578063e30c39781461023157610116565b8063396c39f0146101e45780633e9b4a07146101ec5780633fc8cef3146101f45780634e71e0c8146101fc57610116565b80632a6a7a07116100e95780632a6a7a07146101745780632fe66f9414610187578063336eb6ae146101a757806336c15ab2146101c75780633902db75146101dc57610116565b8063078dfbe71461011b5780630bb6842d146101305780630dbe671f146101435780631673d18714610161575b600080fd5b61012e610129366004610dc6565b610239565b005b61012e61013e366004610da3565b610328565b61014b61045a565b6040516101589190610ed4565b60405180910390f35b61012e61016f366004610e2c565b61047e565b61014b610182366004610ea6565b610aab565b61019a610195366004610e8e565b610acd565b604051610158919061115d565b6101ba6101b5366004610da3565b610b48565b60405161015891906111b2565b6101cf610b66565b60405161015891906111ca565b61014b610b76565b61014b610b9a565b61014b610bbe565b61014b610be2565b61012e610c06565b61020c610c93565b60405161015891906111c1565b61014b610c99565b61014b610cbd565b61014b610ccc565b61014b610cf0565b6000546001600160a01b0316331461026c5760405162461bcd60e51b8152600401610263906110b5565b60405180910390fd5b8115610307576001600160a01b0383161515806102865750805b6102a25760405162461bcd60e51b815260040161026390611056565b600080546040516001600160a01b03808716939216917f8be0079c531659141344cd1fd0a4f28419497f9722a3daafe3b4186f6b6457e091a3600080546001600160a01b0385166001600160a01b031991821617909155600180549091169055610323565b600180546001600160a01b0319166001600160a01b0385161790555b505050565b6000546001600160a01b031633146103525760405162461bcd60e51b8152600401610263906110b5565b6001600160a01b0381166103785760405162461bcd60e51b81526004016102639061113e565b6001600160a01b03811660009081526005602052604090205460ff16156103b15760405162461bcd60e51b815260040161026390611037565b6001805460ff600160a01b8083048216840191821690810260ff60a01b1990931692909217909255600081815260046020908152604080832080546001600160a01b0388166001600160a01b031990911681179091558352600590915290819020805460ff1916909217909155517fce873113a26f399a08adc369507d3fbd34a0ab66928c999379280dfa08fe8e989061044e90839085906111d8565b60405180910390a15050565b7f000000000000000000000000000000000000000000000000000000000000000090565b6001600160a01b0383166104a45760405162461bcd60e51b81526004016102639061113e565b6001600160a01b0382166104ca5760405162461bcd60e51b81526004016102639061113e565b60006104fe7f00000000000000000000000000000000000000000000000000000000000000006001600160a01b0316610cff565b905060006105347f00000000000000000000000000000000000000000000000000000000000000006001600160a01b0316610cff565b9050600061056a7f00000000000000000000000000000000000000000000000000000000000000006001600160a01b0316610cff565b6001600160a01b03861660009081526005602052604081205491925090819060ff1615610754576001600160a01b0386166105b75760405162461bcd60e51b81526004016102639061113e565b6105c9876001600160a01b0316610cff565b9150816001600160a01b031663f8c8765e7f00000000000000000000000000000000000000000000000000000000000000008a897f00000000000000000000000000000000000000000000000000000000000000006001600160a01b031663741bef1a6040518163ffffffff1660e01b815260040160206040518083038186803b15801561065657600080fd5b505afa15801561066a573d6000803e3d6000fd5b505050506040513d601f19601f8201168201806040525081019061068e9190610e10565b6001600160a01b0316636719d7ac6040518163ffffffff1660e01b815260040160206040518083038186803b1580156106c657600080fd5b505afa1580156106da573d6000803e3d6000fd5b505050506040513d601f19601f820116820180604052508101906106fe9190610e10565b6040518563ffffffff1660e01b815260040161071d9493929190610ff2565b600060405180830381600087803b15801561073757600080fd5b505af115801561074b573d6000803e3d6000fd5b50505050610782565b6001600160a01b0386161561077b5760405162461bcd60e51b8152600401610263906110ea565b5085905060015b60405163cc2a9a5b60e01b81526001600160a01b0386169063cc2a9a5b906108389033907f0000000000000000000000000000000000000000000000000000000000000000907f0000000000000000000000000000000000000000000000000000000000000000907f0000000000000000000000000000000000000000000000000000000000000000907f0000000000000000000000000000000000000000000000000000000000000000908c90600401610ee8565b600060405180830381600087803b15801561085257600080fd5b505af1158015610866573d6000803e3d6000fd5b5050604051633aa4f83f60e01b81526001600160a01b0387169250633aa4f83f91506108c29033908d908d907f0000000000000000000000000000000000000000000000000000000000000000908c908b908b90600401610f54565b600060405180830381600087803b1580156108dc57600080fd5b505af11580156108f0573d6000803e3d6000fd5b505060405163485cc95560e01b81526001600160a01b038616925063485cc95591506109429087907f00000000000000000000000000000000000000000000000000000000000000009060040161101d565b600060405180830381600087803b15801561095c57600080fd5b505af1158015610970573d6000803e3d6000fd5b5050600280546001019081905591506109899050610d6e565b506040805160c081018252338082526001600160a01b0389811660208085019182528a83168587019081528a8416606087019081528a8516608088019081528a151560a0890190815260008b81526003958690528a9020895181549089166001600160a01b03199182161782559651600182018054918a169189169190911790559351600285018054918916918816919091179055915193830180549487169486169490941790935591516004909101805492511515600160a01b0260ff60a01b1992909516929093169190911716919091179055915190917f65b1d87218ce62ab42945c88ba8d7a9391651424b560e3b89893e6d57738958b91610a9691908a908a908a908a90610f22565b60405180910390a15050505050505050505050565b60ff81166000908152600460205260409020546001600160a01b03165b919050565b610ad5610d6e565b50600090815260036020818152604092839020835160c08101855281546001600160a01b0390811682526001830154811693820193909352600282015483169481019490945291820154811660608401526004909101549081166080830152600160a01b900460ff16151560a082015290565b6001600160a01b031660009081526005602052604090205460ff1690565b600154600160a01b900460ff1690565b7f000000000000000000000000000000000000000000000000000000000000000090565b7f000000000000000000000000000000000000000000000000000000000000000090565b7f000000000000000000000000000000000000000000000000000000000000000090565b7f000000000000000000000000000000000000000000000000000000000000000090565b6001546001600160a01b0316338114610c315760405162461bcd60e51b815260040161026390611109565b600080546040516001600160a01b03808516939216917f8be0079c531659141344cd1fd0a4f28419497f9722a3daafe3b4186f6b6457e091a3600080546001600160a01b039092166001600160a01b0319928316179055600180549091169055565b60025490565b7f000000000000000000000000000000000000000000000000000000000000000090565b6000546001600160a01b031681565b7f000000000000000000000000000000000000000000000000000000000000000090565b6001546001600160a01b031681565b6000604051733d602d80600a3d3981f3363d3d373d3d3d363d7360601b81528260601b60148201526e5af43d82803e903d91602b57fd5bf360881b60288201526037816000f09150506001600160a01b038116610ac85760405162461bcd60e51b815260040161026390611085565b6040805160c081018252600080825260208201819052918101829052606081018290526080810182905260a081019190915290565b600060208284031215610db4578081fd5b8135610dbf816111f4565b9392505050565b600080600060608486031215610dda578182fd5b8335610de5816111f4565b92506020840135610df58161120c565b91506040840135610e058161120c565b809150509250925092565b600060208284031215610e21578081fd5b8151610dbf816111f4565b600080600080848603610120811215610e43578182fd5b60c0811215610e50578182fd5b5084935060c0850135610e62816111f4565b925060e0850135610e72816111f4565b9150610100850135610e83816111f4565b939692955090935050565b600060208284031215610e9f578081fd5b5035919050565b600060208284031215610eb7578081fd5b813560ff81168114610dbf578182fd5b6001600160a01b03169052565b6001600160a01b0391909116815260200190565b6001600160a01b0396871681529486166020860152928516604085015290841660608401528316608083015290911660a082015260c00190565b6001600160a01b0395861681529385166020850152918416604084015283166060830152909116608082015260a00190565b60006101808201905060018060a01b038916825287356020830152602088013560408301526040880135606083015260608801356080830152608088013560a083015260a088013560c0830152610fae60e0830188610ec7565b610fbc610100830187610ec7565b610fca610120830186610ec7565b610fd8610140830185610ec7565b610fe6610160830184610ec7565b98975050505050505050565b6001600160a01b03948516815292841660208401529083166040830152909116606082015260800190565b6001600160a01b0392831681529116602082015260400190565b60208082526005908201526424ab18181960d91b604082015260600190565b6020808252601590820152744f776e61626c653a207a65726f206164647265737360581b604082015260600190565b602080825260169082015275115490cc4c4d8dce8818dc99585d194819985a5b195960521b604082015260600190565b6020808252818101527f4f776e61626c653a2063616c6c6572206973206e6f7420746865206f776e6572604082015260600190565b602080825260059082015264495630303160d81b604082015260600190565b6020808252818101527f4f776e61626c653a2063616c6c657220213d2070656e64696e67206f776e6572604082015260600190565b602080825260059082015264049563030360dc1b604082015260600190565b81516001600160a01b0390811682526020808401518216908301526040808401518216908301526060808401518216908301526080808401519091169082015260a09182015115159181019190915260c00190565b61ffff91909116815260200190565b90815260200190565b60ff91909116815260200190565b60ff9290921682526001600160a01b0316602082015260400190565b6001600160a01b038116811461120957600080fd5b50565b801515811461120957600080fdfea2646970667358221220b947beecf443a23de5c0727f15c9756aef6e09ddc5022671d3c46c0f849e3c3a64736f6c634300060c0033",
  "immutableReferences": {
    "10965": [
      {
        "length": 32,
        "start": 1116
      },
      {
        "length": 32,
        "start": 1500
      },
      {
        "length": 32,
        "start": 1535
      },
      {
        "length": 32,
        "start": 1960
      },
      {
        "length": 32,
        "start": 2196
      },
      {
        "length": 32,
        "start": 2330
      }
    ],
    "10967": [
      {
        "length": 32,
        "start": 1994
      },
      {
        "length": 32,
        "start": 3278
      }
    ],
    "10969": [
      {
        "length": 32,
        "start": 2028
      },
      {
        "length": 32,
        "start": 3044
      }
    ],
    "10971": [
      {
        "length": 32,
        "start": 2062
      },
      {
        "length": 32,
        "start": 3227
      }
    ],
    "10973": [
      {
        "length": 32,
        "start": 1233
      },
      {
        "length": 32,
        "start": 3008
      }
    ],
    "10975": [
      {
        "length": 32,
        "start": 1287
      },
      {
        "length": 32,
        "start": 2972
      }
    ],
    "10977": [
      {
        "length": 32,
        "start": 1341
      },
      {
        "length": 32,
        "start": 2936
      }
    ]
  },
  "source": "//SPDX-License-Identifier: MIT\npragma solidity 0.6.12;\npragma experimental ABIEncoderV2;\n\nimport \"@openzeppelin/contracts/token/ERC20/IERC20.sol\";\nimport \"@openzeppelin/contracts/proxy/Clones.sol\";\n\nimport \"./BoringOwnable.sol\";\nimport \"./interfaces/IInceptionVaultFactory.sol\";\nimport \"./interfaces/IAdminInceptionVault.sol\";\nimport \"./interfaces/IInceptionVaultsCore.sol\";\nimport \"./interfaces/IInceptionVaultsDataProvider.sol\";\nimport \"./interfaces/IInceptionVaultPriceFeed.sol\";\nimport \"../chainlink/AggregatorV3Interface.sol\";\nimport \"../interfaces/IWETH.sol\";\nimport \"../interfaces/IAddressProvider.sol\";\nimport \"../liquidityMining/interfaces/IGenericMiner.sol\";\nimport \"../liquidityMining/interfaces/IDebtNotifier.sol\";\n\ncontract InceptionVaultFactory is IInceptionVaultFactory, BoringOwnable {\n  using Clones for address;\n\n  IAddressProvider private immutable _a;\n  IDebtNotifier private immutable _debtNotifier;\n  IWETH private immutable _weth;\n  IERC20 private immutable _mimo;\n  address private immutable _adminInceptionVaultBase;\n  address private immutable _inceptionVaultsCoreBase;\n  address private immutable _inceptionVaultsDataProviderBase;\n\n  uint8 private _priceFeedCount;\n  uint256 private _inceptionVaultCount;\n\n  mapping(uint256 => InceptionVault) private _inceptionVaults;\n  mapping(uint8 => address) private _priceFeeds;\n  mapping(address => uint8) private _priceFeedIds;\n\n  constructor(\n    address adminInceptionVaultBase,\n    address inceptionVaultsCoreBase,\n    address inceptionVaultsDataProviderBase,\n    IAddressProvider addressProvider,\n    IDebtNotifier debtNotifier,\n    IWETH weth,\n    IERC20 mimo\n  ) public {\n    require(adminInceptionVaultBase != address(0), \"IV000\");\n    require(inceptionVaultsCoreBase != address(0), \"IV000\");\n    require(inceptionVaultsDataProviderBase != address(0), \"IV000\");\n    require(address(addressProvider) != address(0), \"IV000\");\n    require(address(debtNotifier) != address(0), \"IV000\");\n    require(address(weth) != address(0), \"IV000\");\n    require(address(mimo) != address(0), \"IV000\");\n    _adminInceptionVaultBase = adminInceptionVaultBase;\n    _inceptionVaultsCoreBase = inceptionVaultsCoreBase;\n    _inceptionVaultsDataProviderBase = inceptionVaultsDataProviderBase;\n    _a = addressProvider;\n    _debtNotifier = debtNotifier;\n    _weth = weth;\n    _mimo = mimo;\n  }\n\n  /**\n    Clones and initializes all 3 Inception Vault contracts : AdminInceptionVault, InceptionVaultsCore, InceptionVaultsDataProvider.\n    @param _vaultConfig the inception vault configuration paramaters, see {IInceptionVaultFactory - VaultConfig}.\n    @param _inceptionCollateral the address of the ERC20 token that will be set as inceptionCollateral\n  */\n  function cloneInceptionVault(\n    IInceptionVaultsCore.VaultConfig calldata _vaultConfig,\n    IERC20 _inceptionCollateral,\n    address _inceptionVaultPriceFeed,\n    address _assetOracle\n  ) external override {\n    require(address(_inceptionCollateral) != address(0), \"IV000\");\n    require(_inceptionVaultPriceFeed != address(0), \"IV000\");\n    IAdminInceptionVault adminInceptionVault = IAdminInceptionVault(_adminInceptionVaultBase.clone());\n    IInceptionVaultsCore inceptionVaultsCore = IInceptionVaultsCore(_inceptionVaultsCoreBase.clone());\n    IInceptionVaultsDataProvider inceptionVaultsDataProvider = IInceptionVaultsDataProvider(\n      _inceptionVaultsDataProviderBase.clone()\n    );\n    IInceptionVaultPriceFeed inceptionVaultPriceFeed;\n    bool isCustomPriceFeed;\n\n    if (_priceFeedIds[_inceptionVaultPriceFeed] != 0) {\n      require(address(_assetOracle) != address(0), \"IV000\");\n      inceptionVaultPriceFeed = IInceptionVaultPriceFeed(_inceptionVaultPriceFeed.clone());\n      inceptionVaultPriceFeed.initialize(_a, address(_inceptionCollateral), _assetOracle, _a.priceFeed().eurOracle());\n    } else {\n      require(address(_assetOracle) == address(0), \"IV001\");\n      inceptionVaultPriceFeed = IInceptionVaultPriceFeed(_inceptionVaultPriceFeed);\n      isCustomPriceFeed = true;\n    }\n\n    adminInceptionVault.initialize(msg.sender, _a, _debtNotifier, _weth, _mimo, inceptionVaultsCore);\n\n    inceptionVaultsCore.initialize(\n      msg.sender,\n      _vaultConfig,\n      _inceptionCollateral,\n      _a,\n      adminInceptionVault,\n      inceptionVaultsDataProvider,\n      inceptionVaultPriceFeed\n    );\n\n    inceptionVaultsDataProvider.initialize(inceptionVaultsCore, _a);\n\n    uint256 newId = ++_inceptionVaultCount;\n    InceptionVault memory v = InceptionVault({\n      owner: msg.sender,\n      adminInceptionVault: adminInceptionVault,\n      inceptionVaultsCore: inceptionVaultsCore,\n      inceptionVaultsDataProvider: inceptionVaultsDataProvider,\n      inceptionVaultPriceFeed: inceptionVaultPriceFeed,\n      isCustomPriceFeed: isCustomPriceFeed\n    });\n\n    _inceptionVaults[newId] = v;\n\n    emit InceptionVaultDeployed(\n      msg.sender,\n      adminInceptionVault,\n      inceptionVaultsCore,\n      inceptionVaultsDataProvider,\n      inceptionVaultPriceFeed\n    );\n  }\n\n  function addPriceFeed(address _address) external override onlyOwner {\n    require(_address != address(0), \"IV000\");\n    require(_priceFeedIds[_address] == 0, \"IV002\");\n    uint8 newId = ++_priceFeedCount;\n    _priceFeeds[newId] = _address;\n    _priceFeedIds[_address] = newId;\n    emit PriceFeedAdded(newId, _address);\n  }\n\n  function a() public view override returns (IAddressProvider) {\n    return _a;\n  }\n\n  function debtNotifier() public view override returns (IDebtNotifier) {\n    return _debtNotifier;\n  }\n\n  function weth() public view override returns (IWETH) {\n    return _weth;\n  }\n\n  function mimo() public view override returns (IERC20) {\n    return _mimo;\n  }\n\n  function adminInceptionVaultBase() public view override returns (address) {\n    return _adminInceptionVaultBase;\n  }\n\n  function inceptionVaultsCoreBase() public view override returns (address) {\n    return _inceptionVaultsCoreBase;\n  }\n\n  function inceptionVaultsDataProviderBase() public view override returns (address) {\n    return _inceptionVaultsDataProviderBase;\n  }\n\n  function inceptionVaultCount() public view override returns (uint256) {\n    return _inceptionVaultCount;\n  }\n\n  function priceFeedCount() public view override returns (uint8) {\n    return _priceFeedCount;\n  }\n\n  function inceptionVaults(uint256 _id) public view override returns (InceptionVault memory) {\n    return _inceptionVaults[_id];\n  }\n\n  function priceFeeds(uint8 _id) public view override returns (address) {\n    return _priceFeeds[_id];\n  }\n\n  function priceFeedIds(address _priceFeed) public view override returns (uint16) {\n    return _priceFeedIds[_priceFeed];\n  }\n}\n",
  "sourcePath": "/home/mingyue/sub_contract_content/Web3Bugs/contracts/115/core/contracts/inception/InceptionVaultFactory.sol",
  "compiler": {
    "name": "solc",
    "version": "0.6.12+commit.27d51765.Emscripten.clang"
  },
  "schemaVersion": "3.4.7",
  "updatedAt": "2025-02-28T14:09:34.619Z",
  "devdoc": {
    "kind": "dev",
    "methods": {
      "cloneInceptionVault((uint256,uint256,uint256,uint256,uint256,uint256),address,address,address)": {
        "params": {
          "_inceptionCollateral": "the address of the ERC20 token that will be set as inceptionCollateral",
          "_vaultConfig": "the inception vault configuration paramaters, see {IInceptionVaultFactory - VaultConfig}."
        }
      },
      "transferOwnership(address,bool,bool)": {
        "params": {
          "direct": "True if `newOwner` should be set immediately. False if `newOwner` needs to use `claimOwnership`.",
          "newOwner": "Address of the new owner.",
          "renounce": "Allows the `newOwner` to be `address(0)` if `direct` and `renounce` is True. Has no effect otherwise."
        }
      }
    },
    "version": 1
  },
  "userdoc": {
    "kind": "user",
    "methods": {
      "claimOwnership()": {
        "notice": "Needs to be called by `pendingOwner` to claim ownership."
      },
      "cloneInceptionVault((uint256,uint256,uint256,uint256,uint256,uint256),address,address,address)": {
        "notice": "Clones and initializes all 3 Inception Vault contracts : AdminInceptionVault, InceptionVaultsCore, InceptionVaultsDataProvider."
      },
      "transferOwnership(address,bool,bool)": {
        "notice": "Transfers ownership to `newOwner`. Either directly or claimable by the new pending owner. Can only be invoked by the current `owner`."
      }
    },
    "version": 1
  }
}