{
  "contractName": "InceptionVaultsDataProvider",
  "abi": [
    {
      "inputs": [
        {
          "internalType": "contract IInceptionVaultsCore",
          "name": "inceptionVaultsCore",
          "type": "address"
        },
        {
          "internalType": "contract IAddressProvider",
          "name": "addressProvider",
          "type": "address"
        }
      ],
      "name": "initialize",
      "outputs": [],
      "stateMutability": "nonpayable",
      "type": "function"
    },
    {
      "inputs": [
        {
          "internalType": "address",
          "name": "_owner",
          "type": "address"
        }
      ],
      "name": "createVault",
      "outputs": [
        {
          "internalType": "uint256",
          "name": "",
          "type": "uint256"
        }
      ],
      "stateMutability": "nonpayable",
      "type": "function"
    },
    {
      "inputs": [
        {
          "internalType": "uint256",
          "name": "_vaultId",
          "type": "uint256"
        },
        {
          "internalType": "uint256",
          "name": "_balance",
          "type": "uint256"
        }
      ],
      "name": "setCollateralBalance",
      "outputs": [],
      "stateMutability": "nonpayable",
      "type": "function"
    },
    {
      "inputs": [
        {
          "internalType": "uint256",
          "name": "_id",
          "type": "uint256"
        },
        {
          "internalType": "uint256",
          "name": "_newBaseDebt",
          "type": "uint256"
        }
      ],
      "name": "setBaseDebt",
      "outputs": [],
      "stateMutability": "nonpayable",
      "type": "function"
    },
    {
      "inputs": [
        {
          "internalType": "uint256",
          "name": "_id",
          "type": "uint256"
        }
      ],
      "name": "vaults",
      "outputs": [
        {
          "components": [
            {
              "internalType": "address",
              "name": "owner",
              "type": "address"
            },
            {
              "internalType": "uint256",
              "name": "collateralBalance",
              "type": "uint256"
            },
            {
              "internalType": "uint256",
              "name": "baseDebt",
              "type": "uint256"
            },
            {
              "internalType": "uint256",
              "name": "createdAt",
              "type": "uint256"
            }
          ],
          "internalType": "struct IInceptionVaultsDataProvider.InceptionVault",
          "name": "",
          "type": "tuple"
        }
      ],
      "stateMutability": "view",
      "type": "function"
    },
    {
      "inputs": [
        {
          "internalType": "uint256",
          "name": "_id",
          "type": "uint256"
        }
      ],
      "name": "vaultOwner",
      "outputs": [
        {
          "internalType": "address",
          "name": "",
          "type": "address"
        }
      ],
      "stateMutability": "view",
      "type": "function"
    },
    {
      "inputs": [
        {
          "internalType": "uint256",
          "name": "_id",
          "type": "uint256"
        }
      ],
      "name": "vaultCollateralBalance",
      "outputs": [
        {
          "internalType": "uint256",
          "name": "",
          "type": "uint256"
        }
      ],
      "stateMutability": "view",
      "type": "function"
    },
    {
      "inputs": [
        {
          "internalType": "uint256",
          "name": "_id",
          "type": "uint256"
        }
      ],
      "name": "vaultBaseDebt",
      "outputs": [
        {
          "internalType": "uint256",
          "name": "",
          "type": "uint256"
        }
      ],
      "stateMutability": "view",
      "type": "function"
    },
    {
      "inputs": [
        {
          "internalType": "address",
          "name": "_owner",
          "type": "address"
        }
      ],
      "name": "vaultId",
      "outputs": [
        {
          "internalType": "uint256",
          "name": "",
          "type": "uint256"
        }
      ],
      "stateMutability": "view",
      "type": "function"
    },
    {
      "inputs": [
        {
          "internalType": "uint256",
          "name": "_vaultId",
          "type": "uint256"
        }
      ],
      "name": "vaultDebt",
      "outputs": [
        {
          "internalType": "uint256",
          "name": "",
          "type": "uint256"
        }
      ],
      "stateMutability": "view",
      "type": "function"
    },
    {
      "inputs": [
        {
          "internalType": "uint256",
          "name": "_id",
          "type": "uint256"
        }
      ],
      "name": "vaultExists",
      "outputs": [
        {
          "internalType": "bool",
          "name": "",
          "type": "bool"
        }
      ],
      "stateMutability": "view",
      "type": "function"
    },
    {
      "inputs": [],
      "name": "a",
      "outputs": [
        {
          "internalType": "contract IAddressProvider",
          "name": "",
          "type": "address"
        }
      ],
      "stateMutability": "view",
      "type": "function"
    },
    {
      "inputs": [],
      "name": "inceptionVaultsCore",
      "outputs": [
        {
          "internalType": "contract IInceptionVaultsCore",
          "name": "",
          "type": "address"
        }
      ],
      "stateMutability": "view",
      "type": "function"
    },
    {
      "inputs": [],
      "name": "inceptionVaultCount",
      "outputs": [
        {
          "internalType": "uint256",
          "name": "",
          "type": "uint256"
        }
      ],
      "stateMutability": "view",
      "type": "function"
    },
    {
      "inputs": [],
      "name": "baseDebt",
      "outputs": [
        {
          "internalType": "uint256",
          "name": "",
          "type": "uint256"
        }
      ],
      "stateMutability": "view",
      "type": "function"
    }
  ],
  "bytecode": "0x608060405234801561001057600080fd5b50610ae2806100206000396000f3fe608060405234801561001057600080fd5b50600436106100f55760003560e01c8063828f8def11610097578063c8c5c81511610066578063c8c5c815146101d1578063d310f49b146101e4578063dcd68128146101f7578063ef18fcb414610217576100f5565b8063828f8def146101785780638c64ea4a1461018b578063b4bd6f46146101ab578063c7eb222b146101be576100f5565b80633c2ecfe5116100d35780633c2ecfe514610135578063485cc9551461014857806365586b161461015d5780637726a73c14610165576100f5565b80630dbe671f146100fa57806314fcfb9414610118578063193968b21461012d575b600080fd5b61010261022a565b60405161010f9190610930565b60405180910390f35b61012061023f565b60405161010f9190610a7d565b610102610245565b6101026101433660046108df565b610254565b61015b61015636600461088b565b61026f565b005b61012061033e565b61012061017336600461086f565b610344565b6101206101863660046108df565b61035f565b61019e6101993660046108df565b610374565b60405161010f9190610a49565b6101206101b936600461086f565b6103d3565b61015b6101cc36600461090f565b61048d565b6101206101df3660046108df565b6104f1565b6101206101f23660046108df565b610506565b61020a6102053660046108df565b6106d8565b60405161010f9190610944565b61015b61022536600461090f565b610736565b6000546201000090046001600160a01b031690565b60035490565b6001546001600160a01b031690565b6000908152600460205260409020546001600160a01b031690565b600054610100900460ff168061028857506102886107da565b80610296575060005460ff16155b6102bb5760405162461bcd60e51b81526004016102b2906109fb565b60405180910390fd5b600054610100900460ff161580156102e6576000805460ff1961ff0019909116610100171660011790555b600180546001600160a01b0319166001600160a01b03858116919091179091556000805462010000600160b01b03191662010000928516929092029190911790558015610339576000805461ff00191690555b505050565b60025490565b6001600160a01b031660009081526005602052604090205490565b60009081526004602052604090206001015490565b61037c61083e565b61038461083e565b5050600090815260046020908152604091829020825160808101845281546001600160a01b03168152600182015492810192909252600281015492820192909252600390910154606082015290565b6001546000906001600160a01b031633146104005760405162461bcd60e51b81526004016102b2906109dc565b600280546001019081905561041361083e565b50604080516080810182526001600160a01b0394851680825260006020808401828152848601838152426060870190815288855260048452878520965187546001600160a01b0319169b169a909a178655905160018601555160028501559651600390930192909255815260059094529092208290555090565b6001546001600160a01b031633146104b75760405162461bcd60e51b81526004016102b2906109dc565b6104c0826106d8565b6104dc5760405162461bcd60e51b81526004016102b290610986565b60009182526004602052604090912060010155565b60009081526004602052604090206002015490565b600061051061083e565b506000828152600460208181526040808420815160808101835281546001600160a01b03908116825260018301548286015260028301548285015260039092015460608201529454825163b8091c5b60e01b81529251620100009091049091169363b8091c5b938382019390929190829003018186803b15801561059357600080fd5b505afa1580156105a7573d6000803e3d6000fd5b505050506040513d601f19601f820116820180604052508101906105cb91906108c3565b6001600160a01b0316631c3405e28260400151600160009054906101000a90046001600160a01b03166001600160a01b0316633bbf5b7f6040518163ffffffff1660e01b815260040160206040518083038186803b15801561062c57600080fd5b505afa158015610640573d6000803e3d6000fd5b505050506040513d601f19601f8201168201806040525081019061066491906108f7565b6040518363ffffffff1660e01b8152600401610681929190610a86565b60206040518083038186803b15801561069957600080fd5b505afa1580156106ad573d6000803e3d6000fd5b505050506040513d601f19601f820116820180604052508101906106d191906108f7565b9392505050565b60006106e261083e565b5050600090815260046020908152604091829020825160808101845281546001600160a01b031680825260018301549382019390935260028201549381019390935260030154606090920191909152151590565b6001546001600160a01b031633146107605760405162461bcd60e51b81526004016102b2906109dc565b600082815260046020526040902060028101548211156107ac5760006107938260020154846107eb90919063ffffffff16565b6003549091506107a39082610813565b600355506107d3565b60028101546000906107be90846107eb565b6003549091506107ce90826107eb565b600355505b6002015550565b60006107e530610838565b15905090565b60008282111561080d5760405162461bcd60e51b81526004016102b2906109a5565b50900390565b6000828201838110156106d15760405162461bcd60e51b81526004016102b29061094f565b3b151590565b604051806080016040528060006001600160a01b031681526020016000815260200160008152602001600081525090565b600060208284031215610880578081fd5b81356106d181610a94565b6000806040838503121561089d578081fd5b82356108a881610a94565b915060208301356108b881610a94565b809150509250929050565b6000602082840312156108d4578081fd5b81516106d181610a94565b6000602082840312156108f0578081fd5b5035919050565b600060208284031215610908578081fd5b5051919050565b60008060408385031215610921578182fd5b50508035926020909101359150565b6001600160a01b0391909116815260200190565b901515815260200190565b6020808252601b908201527f536166654d6174683a206164646974696f6e206f766572666c6f770000000000604082015260600190565b602080825260059082015264495631303560d81b604082015260600190565b6020808252601e908201527f536166654d6174683a207375627472616374696f6e206f766572666c6f770000604082015260600190565b602080825260059082015264495630313160d81b604082015260600190565b6020808252602e908201527f496e697469616c697a61626c653a20636f6e747261637420697320616c72656160408201526d191e481a5b9a5d1a585b1a5e995960921b606082015260800190565b81516001600160a01b0316815260208083015190820152604080830151908201526060918201519181019190915260800190565b90815260200190565b918252602082015260400190565b6001600160a01b0381168114610aa957600080fd5b5056fea26469706673582212200c373e580eb50bf67669b0058a046d3c3fee4ac2883f63dec0324dd130e182d764736f6c634300060c0033",
  "immutableReferences": {},
  "source": "//SPDX-License-Identifier: MIT\npragma solidity 0.6.12;\npragma experimental ABIEncoderV2;\n\nimport \"@openzeppelin/contracts/math/SafeMath.sol\";\nimport \"@openzeppelin/contracts/proxy/Initializable.sol\";\n\nimport \"./interfaces/IInceptionVaultsCore.sol\";\nimport \"./interfaces/IInceptionVaultsDataProvider.sol\";\nimport \"../interfaces/IAddressProvider.sol\";\n\ncontract InceptionVaultsDataProvider is IInceptionVaultsDataProvider, Initializable {\n  using SafeMath for uint256;\n\n  IAddressProvider private _a;\n  IInceptionVaultsCore private _inceptionVaultsCore;\n\n  uint256 private _inceptionVaultCount;\n\n  uint256 private _baseDebt;\n\n  mapping(uint256 => InceptionVault) private _vaults;\n  mapping(address => uint256) private _vaultOwners;\n\n  modifier onlyInceptionCore() {\n    require(msg.sender == address(_inceptionVaultsCore), \"IV011\");\n    _;\n  }\n\n  function initialize(IInceptionVaultsCore inceptionVaultsCore, IAddressProvider addressProvider)\n    external\n    override\n    initializer\n  {\n    _inceptionVaultsCore = inceptionVaultsCore;\n    _a = addressProvider;\n  }\n\n  /**\n    Opens a new vault.\n    @dev only the vaultsCore module can call this function\n    @param _owner the owner of the new vault.\n  */\n  function createVault(address _owner) external override onlyInceptionCore returns (uint256) {\n    uint256 newId = ++_inceptionVaultCount;\n    InceptionVault memory v = InceptionVault({\n      owner: _owner,\n      collateralBalance: 0,\n      baseDebt: 0,\n      createdAt: block.timestamp\n    });\n    _vaults[newId] = v;\n    _vaultOwners[_owner] = newId;\n    return newId;\n  }\n\n  /**\n    Set the collateral balance of a vault.\n    @dev only the vaultsCore module can call this function\n    @param _vaultId Vault ID of which the collateral balance will be updated\n    @param _balance the new balance of the vault.\n  */\n  function setCollateralBalance(uint256 _vaultId, uint256 _balance) external override onlyInceptionCore {\n    require(vaultExists(_vaultId), \"IV105\");\n    InceptionVault storage v = _vaults[_vaultId];\n    v.collateralBalance = _balance;\n  }\n\n  /**\n   Set the base debt of a vault.\n    @dev only the vaultsCore module can call this function\n    @param _id Vault ID of which the base debt will be updated\n    @param _newBaseDebt the new base debt of the vault.\n  */\n  function setBaseDebt(uint256 _id, uint256 _newBaseDebt) external override onlyInceptionCore {\n    InceptionVault storage _vault = _vaults[_id];\n    if (_newBaseDebt > _vault.baseDebt) {\n      uint256 increase = _newBaseDebt.sub(_vault.baseDebt);\n      _baseDebt = _baseDebt.add(increase);\n    } else {\n      uint256 decrease = _vault.baseDebt.sub(_newBaseDebt);\n      _baseDebt = _baseDebt.sub(decrease);\n    }\n    _vault.baseDebt = _newBaseDebt;\n  }\n\n  /**\n    Get a vault by vault ID.\n    @param _id The vault's ID to be retrieved\n    @return struct InceptionVault {\n      address owner;\n      uint256 collateralBalance;\n      uint256 baseDebt;\n      uint256 createdAt;\n    }\n  */\n  function vaults(uint256 _id) external view override returns (InceptionVault memory) {\n    InceptionVault memory v = _vaults[_id];\n    return v;\n  }\n\n  /**\n    Get the owner of a vault.\n    @param _id the ID of the vault\n    @return owner of the vault\n  */\n  function vaultOwner(uint256 _id) external view override returns (address) {\n    return _vaults[_id].owner;\n  }\n\n  /**\n   Get the collateral balance of a vault.\n@param _id the ID of the vault\n    @return collateral balance of the vault\n  */\n  function vaultCollateralBalance(uint256 _id) external view override returns (uint256) {\n    return _vaults[_id].collateralBalance;\n  }\n\n  /**\n   Get the base debt of a vault.\n@param _id the ID of the vault\n    @return base debt of the vault\n  */\n  function vaultBaseDebt(uint256 _id) external view override returns (uint256) {\n    return _vaults[_id].baseDebt;\n  }\n\n  /**\n    Retrieve the vault id for a specified owner and collateral type.\n    @dev returns 0 for non-existing vaults\n    @param _owner address of the owner of the vault\n    @return vault id of the vault or 0\n  */\n  function vaultId(address _owner) external view override returns (uint256) {\n    return _vaultOwners[_owner];\n  }\n\n  /**\n    Calculated the total outstanding debt for a specific vault.\n    @dev uses the existing cumulative rate. Call `refreshCollateral()` on `VaultsCore`\n    to make sure it's up to date.\n    @param _vaultId the ID of the vault\n    @return total debt of one vault\n  */\n  function vaultDebt(uint256 _vaultId) external view override returns (uint256) {\n    InceptionVault memory v = _vaults[_vaultId];\n    return _a.ratesManager().calculateDebt(v.baseDebt, _inceptionVaultsCore.cumulativeRate());\n  }\n\n  /**\n    Checks if a specified vault exists.\n    @param _id the ID of the vault\n    @return boolean if the vault exists\n  */\n  function vaultExists(uint256 _id) public view override returns (bool) {\n    InceptionVault memory v = _vaults[_id];\n    return v.owner != address(0);\n  }\n\n  function a() public view override returns (IAddressProvider) {\n    return _a;\n  }\n\n  function inceptionVaultsCore() public view override returns (IInceptionVaultsCore) {\n    return _inceptionVaultsCore;\n  }\n\n  function inceptionVaultCount() public view override returns (uint256) {\n    return _inceptionVaultCount;\n  }\n\n  function baseDebt() public view override returns (uint256) {\n    return _baseDebt;\n  }\n}\n",
  "sourcePath": "/home/mingyue/sub_contract_content/Web3Bugs/contracts/115/core/contracts/inception/InceptionVaultsDataProvider.sol",
  "compiler": {
    "name": "solc",
    "version": "0.6.12+commit.27d51765.Emscripten.clang"
  },
  "schemaVersion": "3.4.7",
  "updatedAt": "2025-02-28T14:09:34.623Z",
  "devdoc": {
    "kind": "dev",
    "methods": {
      "createVault(address)": {
        "details": "only the vaultsCore module can call this function",
        "params": {
          "_owner": "the owner of the new vault."
        }
      },
      "setBaseDebt(uint256,uint256)": {
        "details": "only the vaultsCore module can call this function",
        "params": {
          "_id": "Vault ID of which the base debt will be updated",
          "_newBaseDebt": "the new base debt of the vault."
        }
      },
      "setCollateralBalance(uint256,uint256)": {
        "details": "only the vaultsCore module can call this function",
        "params": {
          "_balance": "the new balance of the vault.",
          "_vaultId": "Vault ID of which the collateral balance will be updated"
        }
      },
      "vaultBaseDebt(uint256)": {
        "params": {
          "_id": "the ID of the vault"
        },
        "returns": {
          "_0": "base debt of the vault"
        }
      },
      "vaultCollateralBalance(uint256)": {
        "params": {
          "_id": "the ID of the vault"
        },
        "returns": {
          "_0": "collateral balance of the vault"
        }
      },
      "vaultDebt(uint256)": {
        "details": "uses the existing cumulative rate. Call `refreshCollateral()` on `VaultsCore` to make sure it's up to date.",
        "params": {
          "_vaultId": "the ID of the vault"
        },
        "returns": {
          "_0": "total debt of one vault"
        }
      },
      "vaultExists(uint256)": {
        "params": {
          "_id": "the ID of the vault"
        },
        "returns": {
          "_0": "boolean if the vault exists"
        }
      },
      "vaultId(address)": {
        "details": "returns 0 for non-existing vaults",
        "params": {
          "_owner": "address of the owner of the vault"
        },
        "returns": {
          "_0": "vault id of the vault or 0"
        }
      },
      "vaultOwner(uint256)": {
        "params": {
          "_id": "the ID of the vault"
        },
        "returns": {
          "_0": "owner of the vault"
        }
      },
      "vaults(uint256)": {
        "params": {
          "_id": "The vault's ID to be retrieved"
        },
        "returns": {
          "_0": "struct InceptionVault { address owner; uint256 collateralBalance; uint256 baseDebt; uint256 createdAt; }"
        }
      }
    },
    "version": 1
  },
  "userdoc": {
    "kind": "user",
    "methods": {
      "createVault(address)": {
        "notice": "Opens a new vault."
      },
      "setBaseDebt(uint256,uint256)": {
        "notice": "Set the base debt of a vault."
      },
      "setCollateralBalance(uint256,uint256)": {
        "notice": "Set the collateral balance of a vault."
      },
      "vaultBaseDebt(uint256)": {
        "notice": "Get the base debt of a vault."
      },
      "vaultCollateralBalance(uint256)": {
        "notice": "Get the collateral balance of a vault."
      },
      "vaultDebt(uint256)": {
        "notice": "Calculated the total outstanding debt for a specific vault."
      },
      "vaultExists(uint256)": {
        "notice": "Checks if a specified vault exists."
      },
      "vaultId(address)": {
        "notice": "Retrieve the vault id for a specified owner and collateral type."
      },
      "vaultOwner(uint256)": {
        "notice": "Get the owner of a vault."
      },
      "vaults(uint256)": {
        "notice": "Get a vault by vault ID."
      }
    },
    "version": 1
  }
}