{
  "contractName": "InceptionVaultsCore",
  "abi": [
    {
      "anonymous": false,
      "inputs": [
        {
          "indexed": true,
          "internalType": "uint256",
          "name": "vaultId",
          "type": "uint256"
        },
        {
          "indexed": false,
          "internalType": "uint256",
          "name": "amount",
          "type": "uint256"
        },
        {
          "indexed": true,
          "internalType": "address",
          "name": "sender",
          "type": "address"
        }
      ],
      "name": "Borrowed",
      "type": "event"
    },
    {
      "anonymous": false,
      "inputs": [
        {
          "indexed": false,
          "internalType": "uint256",
          "name": "elapsedTime",
          "type": "uint256"
        },
        {
          "indexed": false,
          "internalType": "uint256",
          "name": "newCumulativeRate",
          "type": "uint256"
        }
      ],
      "name": "CumulativeRateUpdated",
      "type": "event"
    },
    {
      "anonymous": false,
      "inputs": [
        {
          "indexed": true,
          "internalType": "uint256",
          "name": "vaultId",
          "type": "uint256"
        },
        {
          "indexed": false,
          "internalType": "uint256",
          "name": "amount",
          "type": "uint256"
        },
        {
          "indexed": true,
          "internalType": "address",
          "name": "sender",
          "type": "address"
        }
      ],
      "name": "Deposited",
      "type": "event"
    },
    {
      "anonymous": false,
      "inputs": [
        {
          "indexed": true,
          "internalType": "uint256",
          "name": "vaultId",
          "type": "uint256"
        },
        {
          "indexed": false,
          "internalType": "uint256",
          "name": "debtRepaid",
          "type": "uint256"
        },
        {
          "indexed": false,
          "internalType": "uint256",
          "name": "collateralLiquidated",
          "type": "uint256"
        },
        {
          "indexed": true,
          "internalType": "address",
          "name": "owner",
          "type": "address"
        },
        {
          "indexed": true,
          "internalType": "address",
          "name": "sender",
          "type": "address"
        }
      ],
      "name": "Liquidated",
      "type": "event"
    },
    {
      "anonymous": false,
      "inputs": [
        {
          "indexed": true,
          "internalType": "address",
          "name": "previousOwner",
          "type": "address"
        },
        {
          "indexed": true,
          "internalType": "address",
          "name": "newOwner",
          "type": "address"
        }
      ],
      "name": "OwnershipTransferred",
      "type": "event"
    },
    {
      "anonymous": false,
      "inputs": [
        {
          "indexed": true,
          "internalType": "uint256",
          "name": "vaultId",
          "type": "uint256"
        },
        {
          "indexed": false,
          "internalType": "uint256",
          "name": "amount",
          "type": "uint256"
        },
        {
          "indexed": true,
          "internalType": "address",
          "name": "sender",
          "type": "address"
        }
      ],
      "name": "Repaid",
      "type": "event"
    },
    {
      "anonymous": false,
      "inputs": [
        {
          "indexed": true,
          "internalType": "uint256",
          "name": "vautlId",
          "type": "uint256"
        },
        {
          "indexed": false,
          "internalType": "uint256",
          "name": "amount",
          "type": "uint256"
        },
        {
          "indexed": true,
          "internalType": "address",
          "name": "sender",
          "type": "address"
        }
      ],
      "name": "Withdrawn",
      "type": "event"
    },
    {
      "inputs": [],
      "name": "claimOwnership",
      "outputs": [],
      "stateMutability": "nonpayable",
      "type": "function"
    },
    {
      "inputs": [],
      "name": "owner",
      "outputs": [
        {
          "internalType": "address",
          "name": "",
          "type": "address"
        }
      ],
      "stateMutability": "view",
      "type": "function"
    },
    {
      "inputs": [],
      "name": "pendingOwner",
      "outputs": [
        {
          "internalType": "address",
          "name": "",
          "type": "address"
        }
      ],
      "stateMutability": "view",
      "type": "function"
    },
    {
      "inputs": [
        {
          "internalType": "address",
          "name": "newOwner",
          "type": "address"
        },
        {
          "internalType": "bool",
          "name": "direct",
          "type": "bool"
        },
        {
          "internalType": "bool",
          "name": "renounce",
          "type": "bool"
        }
      ],
      "name": "transferOwnership",
      "outputs": [],
      "stateMutability": "nonpayable",
      "type": "function"
    },
    {
      "inputs": [
        {
          "internalType": "address",
          "name": "_owner",
          "type": "address"
        },
        {
          "components": [
            {
              "internalType": "uint256",
              "name": "liquidationRatio",
              "type": "uint256"
            },
            {
              "internalType": "uint256",
              "name": "minCollateralRatio",
              "type": "uint256"
            },
            {
              "internalType": "uint256",
              "name": "borrowRate",
              "type": "uint256"
            },
            {
              "internalType": "uint256",
              "name": "originationFee",
              "type": "uint256"
            },
            {
              "internalType": "uint256",
              "name": "liquidationBonus",
              "type": "uint256"
            },
            {
              "internalType": "uint256",
              "name": "liquidationFee",
              "type": "uint256"
            }
          ],
          "internalType": "struct IInceptionVaultsCore.VaultConfig",
          "name": "vaultConfig",
          "type": "tuple"
        },
        {
          "internalType": "contract IERC20",
          "name": "inceptionCollateral",
          "type": "address"
        },
        {
          "internalType": "contract IAddressProvider",
          "name": "addressProvider",
          "type": "address"
        },
        {
          "internalType": "contract IAdminInceptionVault",
          "name": "adminInceptionVault",
          "type": "address"
        },
        {
          "internalType": "contract IInceptionVaultsDataProvider",
          "name": "inceptionVaultsDataProvider",
          "type": "address"
        },
        {
          "internalType": "contract IInceptionVaultPriceFeed",
          "name": "inceptionPriceFeed",
          "type": "address"
        }
      ],
      "name": "initialize",
      "outputs": [],
      "stateMutability": "nonpayable",
      "type": "function"
    },
    {
      "inputs": [
        {
          "internalType": "uint256",
          "name": "_vaultId",
          "type": "uint256"
        },
        {
          "internalType": "uint256",
          "name": "_amount",
          "type": "uint256"
        }
      ],
      "name": "depositByVaultId",
      "outputs": [],
      "stateMutability": "nonpayable",
      "type": "function"
    },
    {
      "inputs": [
        {
          "internalType": "uint256",
          "name": "_depositAmount",
          "type": "uint256"
        },
        {
          "internalType": "uint256",
          "name": "_borrowAmount",
          "type": "uint256"
        }
      ],
      "name": "depositAndBorrow",
      "outputs": [],
      "stateMutability": "nonpayable",
      "type": "function"
    },
    {
      "inputs": [
        {
          "internalType": "uint256",
          "name": "_vaultId",
          "type": "uint256"
        },
        {
          "internalType": "uint256",
          "name": "_amount",
          "type": "uint256"
        }
      ],
      "name": "withdraw",
      "outputs": [],
      "stateMutability": "nonpayable",
      "type": "function"
    },
    {
      "inputs": [
        {
          "internalType": "uint256",
          "name": "_vaultId",
          "type": "uint256"
        }
      ],
      "name": "repayAll",
      "outputs": [],
      "stateMutability": "nonpayable",
      "type": "function"
    },
    {
      "inputs": [
        {
          "internalType": "uint256",
          "name": "_vaultId",
          "type": "uint256"
        }
      ],
      "name": "liquidate",
      "outputs": [],
      "stateMutability": "nonpayable",
      "type": "function"
    },
    {
      "inputs": [
        {
          "internalType": "uint256",
          "name": "_amount",
          "type": "uint256"
        }
      ],
      "name": "deposit",
      "outputs": [],
      "stateMutability": "nonpayable",
      "type": "function"
    },
    {
      "inputs": [
        {
          "internalType": "uint256",
          "name": "_vaultId",
          "type": "uint256"
        },
        {
          "internalType": "uint256",
          "name": "_amount",
          "type": "uint256"
        }
      ],
      "name": "borrow",
      "outputs": [],
      "stateMutability": "nonpayable",
      "type": "function"
    },
    {
      "inputs": [
        {
          "internalType": "uint256",
          "name": "_vaultId",
          "type": "uint256"
        },
        {
          "internalType": "uint256",
          "name": "_amount",
          "type": "uint256"
        }
      ],
      "name": "repay",
      "outputs": [],
      "stateMutability": "nonpayable",
      "type": "function"
    },
    {
      "inputs": [
        {
          "internalType": "uint256",
          "name": "_vaultId",
          "type": "uint256"
        },
        {
          "internalType": "uint256",
          "name": "_amount",
          "type": "uint256"
        }
      ],
      "name": "liquidatePartial",
      "outputs": [],
      "stateMutability": "nonpayable",
      "type": "function"
    },
    {
      "inputs": [],
      "name": "cumulativeRate",
      "outputs": [
        {
          "internalType": "uint256",
          "name": "",
          "type": "uint256"
        }
      ],
      "stateMutability": "view",
      "type": "function"
    },
    {
      "inputs": [],
      "name": "lastRefresh",
      "outputs": [
        {
          "internalType": "uint256",
          "name": "",
          "type": "uint256"
        }
      ],
      "stateMutability": "view",
      "type": "function"
    },
    {
      "inputs": [],
      "name": "vaultConfig",
      "outputs": [
        {
          "components": [
            {
              "internalType": "uint256",
              "name": "liquidationRatio",
              "type": "uint256"
            },
            {
              "internalType": "uint256",
              "name": "minCollateralRatio",
              "type": "uint256"
            },
            {
              "internalType": "uint256",
              "name": "borrowRate",
              "type": "uint256"
            },
            {
              "internalType": "uint256",
              "name": "originationFee",
              "type": "uint256"
            },
            {
              "internalType": "uint256",
              "name": "liquidationBonus",
              "type": "uint256"
            },
            {
              "internalType": "uint256",
              "name": "liquidationFee",
              "type": "uint256"
            }
          ],
          "internalType": "struct IInceptionVaultsCore.VaultConfig",
          "name": "",
          "type": "tuple"
        }
      ],
      "stateMutability": "view",
      "type": "function"
    },
    {
      "inputs": [],
      "name": "a",
      "outputs": [
        {
          "internalType": "contract IAddressProvider",
          "name": "",
          "type": "address"
        }
      ],
      "stateMutability": "view",
      "type": "function"
    },
    {
      "inputs": [],
      "name": "inceptionCollateral",
      "outputs": [
        {
          "internalType": "contract IERC20",
          "name": "",
          "type": "address"
        }
      ],
      "stateMutability": "view",
      "type": "function"
    },
    {
      "inputs": [],
      "name": "adminInceptionVault",
      "outputs": [
        {
          "internalType": "contract IAdminInceptionVault",
          "name": "",
          "type": "address"
        }
      ],
      "stateMutability": "view",
      "type": "function"
    },
    {
      "inputs": [],
      "name": "inceptionVaultsData",
      "outputs": [
        {
          "internalType": "contract IInceptionVaultsDataProvider",
          "name": "",
          "type": "address"
        }
      ],
      "stateMutability": "view",
      "type": "function"
    },
    {
      "inputs": [],
      "name": "inceptionPriceFeed",
      "outputs": [
        {
          "internalType": "contract IInceptionVaultPriceFeed",
          "name": "",
          "type": "address"
        }
      ],
      "stateMutability": "view",
      "type": "function"
    }
  ],
  "bytecode": "0x608060405234801561001057600080fd5b50600080546001600160a01b0319163390811782556040519091907f8be0079c531659141344cd1fd0a4f28419497f9722a3daafe3b4186f6b6457e0908290a36001600255612ce2806100646000396000f3fe608060405234801561001057600080fd5b50600436106101425760003560e01c8063441a3e70116100b85780638da5cb5b1161007c5780638da5cb5b14610246578063b6b55f251461024e578063b75061bb14610261578063ce28104114610274578063d8aed14514610287578063e30c39781461029a57610142565b8063441a3e70146102065780634e71e0c8146102195780634fe88214146102215780637cc34bb4146102295780638c1a846f1461023e57610142565b80632f1cc3461161010a5780632f1cc346146101a85780632f51a720146101b05780633221be54146101b85780633aa4f83f146101cb5780633bbf5b7f146101de578063415f1240146101f357610142565b8063078dfbe7146101475780630dbe671f1461015c5780630ecbcdab1461017a5780631b95b9521461018d5780631e6b626714610195575b600080fd5b61015a6101553660046125a3565b6102a2565b005b610164610391565b60405161017191906127a5565b60405180910390f35b61015a610188366004612768565b6103a0565b610164610aa8565b61015a6101a3366004612768565b610ab7565b6101646111b6565b6101646111c5565b61015a6101c6366004612738565b6111d4565b61015a6101d93660046125ed565b6111e3565b6101e661131a565b6040516101719190612bf2565b61015a610201366004612738565b611320565b61015a610214366004612768565b61132c565b61015a611427565b6101e66114b4565b6102316114ba565b6040516101719190612bae565b6101646114ff565b61016461150e565b61015a61025c366004612738565b61151d565b61015a61026f366004612768565b61155e565b61015a610282366004612768565b6115f4565b61015a610295366004612768565b61161a565b6101646117c9565b6000546001600160a01b031633146102d55760405162461bcd60e51b81526004016102cc90612a2f565b60405180910390fd5b8115610370576001600160a01b0383161515806102ef5750805b61030b5760405162461bcd60e51b81526004016102cc906128bd565b600080546040516001600160a01b03808716939216917f8be0079c531659141344cd1fd0a4f28419497f9722a3daafe3b4186f6b6457e091a3600080546001600160a01b0385166001600160a01b03199182161790915560018054909116905561038c565b600180546001600160a01b0319166001600160a01b0385161790555b505050565b600c546001600160a01b031690565b600f54604051633c2ecfe560e01b8152839133916001600160a01b0390911690633c2ecfe5906103d4908590600401612bf2565b60206040518083038186803b1580156103ec57600080fd5b505afa158015610400573d6000803e3d6000fd5b505050506040513d601f19601f820116820180604052508101906104249190612587565b6001600160a01b03161461044a5760405162461bcd60e51b81526004016102cc90612829565b60028054141561046c5760405162461bcd60e51b81526004016102cc90612b77565b60028055600c54604080516316d8a5a960e01b815290516000926001600160a01b0316916316d8a5a9916004808301926020929190829003018186803b1580156104b557600080fd5b505afa1580156104c9573d6000803e3d6000fd5b505050506040513d601f19601f820116820180604052508101906104ed9190612587565b600e546040516370a0823160e01b81529192506001600160a01b03808416926370a08231926105209216906004016127a5565b60206040518083038186803b15801561053857600080fd5b505afa15801561054c573d6000803e3d6000fd5b505050506040513d601f19601f820116820180604052508101906105709190612750565b83111561058f5760405162461bcd60e51b81526004016102cc90612848565b610597612515565b600f54604051634632752560e11b81526001600160a01b0390911690638c64ea4a906105c7908890600401612bf2565b60806040518083038186803b1580156105df57600080fd5b505afa1580156105f3573d6000803e3d6000fd5b505050506040513d601f19601f8201168201806040525081019061061791906126e6565b90506106216117d8565b600954849015610647576009546106449061063d908790611940565b8290611979565b90505b600c546040805163b8091c5b60e01b815290516000926001600160a01b03169163b8091c5b916004808301926020929190829003018186803b15801561068c57600080fd5b505afa1580156106a0573d6000803e3d6000fd5b505050506040513d601f19601f820116820180604052508101906106c49190612587565b6001600160a01b0316633a282c0a836004546040518363ffffffff1660e01b81526004016106f3929190612c12565b60206040518083038186803b15801561070b57600080fd5b505afa15801561071f573d6000803e3d6000fd5b505050506040513d601f19601f820116820180604052508101906107439190612750565b600f5460408501519192506001600160a01b03169063ef18fcb490899061076a9085611979565b6040518363ffffffff1660e01b8152600401610787929190612c12565b600060405180830381600087803b1580156107a157600080fd5b505af11580156107b5573d6000803e3d6000fd5b50506010546020860151604051629c91a560e11b8152600094506001600160a01b039092169250630139234a916107ef9190600401612bf2565b60206040518083038186803b15801561080757600080fd5b505afa15801561081b573d6000803e3d6000fd5b505050506040513d601f19601f8201168201806040525081019061083f9190612750565b600f5460405163d310f49b60e01b81529192506000916001600160a01b039091169063d310f49b90610875908c90600401612bf2565b60206040518083038186803b15801561088d57600080fd5b505afa1580156108a1573d6000803e3d6000fd5b505050506040513d601f19601f820116820180604052508101906108c59190612750565b90506000600c60009054906101000a90046001600160a01b03166001600160a01b0316631ef3a04c6040518163ffffffff1660e01b815260040160206040518083038186803b15801561091757600080fd5b505afa15801561092b573d6000803e3d6000fd5b505050506040513d601f19601f8201168201806040525081019061094f9190612587565b600754604051630e84c2b360e01b81526001600160a01b039290921691630e84c2b3916109829187918791600401612c20565b60206040518083038186803b15801561099a57600080fd5b505afa1580156109ae573d6000803e3d6000fd5b505050506040513d601f19601f820116820180604052508101906109d291906126ca565b9050806109f15760405162461bcd60e51b81526004016102cc9061289e565b600e546040516372e95ddf60e01b81526001600160a01b03909116906372e95ddf90610a23908c903390600401612bfb565b600060405180830381600087803b158015610a3d57600080fd5b505af1158015610a51573d6000803e3d6000fd5b50505050336001600160a01b03168a7feaf3bd02ad76e4b07064f7a219cd7722f0124fcc8b391721b63bc069aa4cbeb88b604051610a8f9190612bf2565b60405180910390a3505060016002555050505050505050565b600e546001600160a01b031690565b600280541415610ad95760405162461bcd60e51b81526004016102cc90612b77565b60028055610ae5612515565b600f54604051634632752560e11b81526001600160a01b0390911690638c64ea4a90610b15908690600401612bf2565b60806040518083038186803b158015610b2d57600080fd5b505afa158015610b41573d6000803e3d6000fd5b505050506040513d601f19601f82011682018060405250810190610b6591906126e6565b9050610b6f6117d8565b6010546020820151604051629c91a560e11b81526000926001600160a01b031691630139234a91610ba39190600401612bf2565b60206040518083038186803b158015610bbb57600080fd5b505afa158015610bcf573d6000803e3d6000fd5b505050506040513d601f19601f82011682018060405250810190610bf39190612750565b600f5460405163d310f49b60e01b81529192506000916001600160a01b039091169063d310f49b90610c29908890600401612bf2565b60206040518083038186803b158015610c4157600080fd5b505afa158015610c55573d6000803e3d6000fd5b505050506040513d601f19601f82011682018060405250810190610c799190612750565b9050600c60009054906101000a90046001600160a01b03166001600160a01b0316631ef3a04c6040518163ffffffff1660e01b815260040160206040518083038186803b158015610cc957600080fd5b505afa158015610cdd573d6000803e3d6000fd5b505050506040513d601f19601f82011682018060405250810190610d019190612587565b600654604051630e84c2b360e01b81526001600160a01b039290921691630e84c2b391610d349186918691600401612c20565b60206040518083038186803b158015610d4c57600080fd5b505afa158015610d60573d6000803e3d6000fd5b505050506040513d601f19601f82011682018060405250810190610d8491906126ca565b15610da15760405162461bcd60e51b81526004016102cc90612ad7565b6000610dba600660050154610db461199e565b906119aa565b90506000610dc883836119d2565b9050600081871115610dde575094508482610deb565b610de88784611940565b90505b600a54600090610e0790610e00908a90611940565b8990611979565b90506000868210610f81578691506000610e35610e2e610e2561199e565b600a5490611979565b89906119d2565b905080871115610f7157610e4987826119aa565b915081600c60009054906101000a90046001600160a01b03166001600160a01b03166316d8a5a96040518163ffffffff1660e01b815260040160206040518083038186803b158015610e9a57600080fd5b505afa158015610eae573d6000803e3d6000fd5b505050506040513d601f19601f82011682018060405250810190610ed29190612587565b600e546040516370a0823160e01b81526001600160a01b03928316926370a0823192610f03929116906004016127a5565b60206040518083038186803b158015610f1b57600080fd5b505afa158015610f2f573d6000803e3d6000fd5b505050506040513d601f19601f82011682018060405250810190610f539190612750565b1015610f715760405162461bcd60e51b81526004016102cc90612848565b610f7b87836119aa565b90995092505b610f948a610f8f8584611979565b611a00565b600c54604080516316d8a5a960e01b815290516000926001600160a01b0316916316d8a5a9916004808301926020929190829003018186803b158015610fd957600080fd5b505afa158015610fed573d6000803e3d6000fd5b505050506040513d601f19601f820116820180604052508101906110119190612587565b90506110286001600160a01b03821633308d611c69565b600e54611042906001600160a01b0383811691168c611cc1565b6010546040516345e5f69f60e01b81526000916001600160a01b0316906345e5f69f90611073908790600401612bf2565b60206040518083038186803b15801561108b57600080fd5b505afa15801561109f573d6000803e3d6000fd5b505050506040513d601f19601f820116820180604052508101906110c39190612750565b600f5460208c01519192506001600160a01b03169063c7eb222b908e906110ea90856119aa565b6040518363ffffffff1660e01b8152600401611107929190612c12565b600060405180830381600087803b15801561112157600080fd5b505af1158015611135573d6000803e3d6000fd5b5050600d5461115192506001600160a01b031690503383611cc1565b336001600160a01b03168a600001516001600160a01b03168d7faba5d629ca14a7d184b55def9058e247debfb64f6ccebd9782b8c9c65307ccb0888560405161119b929190612c12565b60405180910390a45050600160025550505050505050505050565b6010546001600160a01b031690565b600f546001600160a01b031690565b6111e08160001961161a565b50565b600354610100900460ff16806111fc57506111fc611ce0565b8061120a575060035460ff16155b6112265760405162461bcd60e51b81526004016102cc906129a0565b600354610100900460ff16158015611251576003805460ff1961ff0019909116610100171660011790555b86516006556020870151600755604087015160085560608701516009556080870151600a5560a0870151600b55600d80546001600160a01b0319166001600160a01b038816179055426005556112a5611cf1565b600455600c80546001600160a01b03199081166001600160a01b0388811691909117909255600e80548216878416179055600f805482168684161790556000805482168b8416179055601080549091169184169190911790558015611310576003805461ff00191690555b5050505050505050565b60045490565b6111e081600019610ab7565b600f54604051633c2ecfe560e01b8152839133916001600160a01b0390911690633c2ecfe590611360908590600401612bf2565b60206040518083038186803b15801561137857600080fd5b505afa15801561138c573d6000803e3d6000fd5b505050506040513d601f19601f820116820180604052508101906113b09190612587565b6001600160a01b0316146113d65760405162461bcd60e51b81526004016102cc90612829565b6002805414156113f85760405162461bcd60e51b81526004016102cc90612b77565b600280556114068383611d01565b600d5461141d906001600160a01b03163384611cc1565b5050600160025550565b6001546001600160a01b03163381146114525760405162461bcd60e51b81526004016102cc90612a64565b600080546040516001600160a01b03808516939216917f8be0079c531659141344cd1fd0a4f28419497f9722a3daafe3b4186f6b6457e091a3600080546001600160a01b039092166001600160a01b0319928316179055600180549091169055565b60055490565b6114c2612546565b506040805160c08101825260065481526007546020820152600854918101919091526009546060820152600a546080820152600b5460a082015290565b600d546001600160a01b031690565b6000546001600160a01b031681565b6000811161153d5760405162461bcd60e51b81526004016102cc90612a99565b600d54611555906001600160a01b0316333084611c69565b6111e0816120a9565b6115678261151d565b600f54604051631dc9a9cf60e21b81526000916001600160a01b031690637726a73c906115989033906004016127a5565b60206040518083038186803b1580156115b057600080fd5b505afa1580156115c4573d6000803e3d6000fd5b505050506040513d601f19601f820116820180604052508101906115e89190612750565b905061038c81836103a0565b600d5461160c906001600160a01b0316333084611c69565b61161682826121bc565b5050565b60028054141561163c5760405162461bcd60e51b81526004016102cc90612b77565b600280556116486117d8565b600f5460405163d310f49b60e01b81526000916001600160a01b03169063d310f49b90611679908690600401612bf2565b60206040518083038186803b15801561169157600080fd5b505afa1580156116a5573d6000803e3d6000fd5b505050506040513d601f19601f820116820180604052508101906116c99190612750565b90508082106116d6578091505b6116e08383611a00565b600c54604080516316d8a5a960e01b815290516000926001600160a01b0316916316d8a5a9916004808301926020929190829003018186803b15801561172557600080fd5b505afa158015611739573d6000803e3d6000fd5b505050506040513d601f19601f8201168201806040525081019061175d9190612587565b600e5490915061177c906001600160a01b038084169133911686611c69565b336001600160a01b0316847fec0b41ca9a2a301ec07412b3c841535558e6b49d98c606aeca50e85f164182f2856040516117b69190612bf2565b60405180910390a3505060016002555050565b6001546001600160a01b031681565b60055442906000906117eb9083906119aa565b9050600c60009054906101000a90046001600160a01b03166001600160a01b031663b8091c5b6040518163ffffffff1660e01b815260040160206040518083038186803b15801561183b57600080fd5b505afa15801561184f573d6000803e3d6000fd5b505050506040513d601f19601f820116820180604052508101906118739190612587565b6001600160a01b031663e7b5e7bd600660020154600454846040518463ffffffff1660e01b81526004016118a993929190612c20565b60206040518083038186803b1580156118c157600080fd5b505afa1580156118d5573d6000803e3d6000fd5b505050506040513d601f19601f820116820180604052508101906118f99190612750565b600481905560058390556040517f0a097e23d7cd87699e7e22178deea8f3351d86777ff42068561cafbb462288109161193491849190612c12565b60405180910390a15050565b6000611970670de0b6b3a764000061196a61195b8686612301565b6706f05b59d3b2000090611979565b9061233b565b90505b92915050565b6000828201838110156119705760405162461bcd60e51b81526004016102cc90612867565b670de0b6b3a764000090565b6000828211156119cc5760405162461bcd60e51b81526004016102cc906128ec565b50900390565b6000600282046119f88361196a6119f187670de0b6b3a7640000612301565b8490611979565b949350505050565b600f5460405163d310f49b60e01b81526000916001600160a01b03169063d310f49b90611a31908690600401612bf2565b60206040518083038186803b158015611a4957600080fd5b505afa158015611a5d573d6000803e3d6000fd5b505050506040513d601f19601f82011682018060405250810190611a819190612750565b90506000611a8f82846119aa565b905080611b0057600f54604051633bc63f2d60e21b81526001600160a01b039091169063ef18fcb490611ac9908790600090600401612c12565b600060405180830381600087803b158015611ae357600080fd5b505af1158015611af7573d6000803e3d6000fd5b50505050611c63565b600c546040805163b8091c5b60e01b815290516000926001600160a01b03169163b8091c5b916004808301926020929190829003018186803b158015611b4557600080fd5b505afa158015611b59573d6000803e3d6000fd5b505050506040513d601f19601f82011682018060405250810190611b7d9190612587565b6001600160a01b0316633a282c0a836004546040518363ffffffff1660e01b8152600401611bac929190612c12565b60206040518083038186803b158015611bc457600080fd5b505afa158015611bd8573d6000803e3d6000fd5b505050506040513d601f19601f82011682018060405250810190611bfc9190612750565b600f54604051633bc63f2d60e21b81529192506001600160a01b03169063ef18fcb490611c2f9088908590600401612c12565b600060405180830381600087803b158015611c4957600080fd5b505af1158015611c5d573d6000803e3d6000fd5b50505050505b50505050565b611c63846323b872dd60e01b858585604051602401611c8a939291906127b9565b60408051601f198184030181529190526020810180516001600160e01b03166001600160e01b03199093169290921790915261236d565b61038c8363a9059cbb60e01b8484604051602401611c8a9291906127dd565b6000611ceb306123fc565b15905090565b6b033b2e3c9fd0803ce800000090565b611d09612515565b600f54604051634632752560e11b81526001600160a01b0390911690638c64ea4a90611d39908690600401612bf2565b60806040518083038186803b158015611d5157600080fd5b505afa158015611d65573d6000803e3d6000fd5b505050506040513d601f19601f82011682018060405250810190611d8991906126e6565b90508060200151821115611daf5760405162461bcd60e51b81526004016102cc90612ab8565b6020810151600090611dc190846119aa565b600f5460405163c7eb222b60e01b81529192506001600160a01b03169063c7eb222b90611df49087908590600401612c12565b600060405180830381600087803b158015611e0e57600080fd5b505af1158015611e22573d6000803e3d6000fd5b5050505060408201511561206157611e386117d8565b601054604051629c91a560e11b81526000916001600160a01b031690630139234a90611e68908590600401612bf2565b60206040518083038186803b158015611e8057600080fd5b505afa158015611e94573d6000803e3d6000fd5b505050506040513d601f19601f82011682018060405250810190611eb89190612750565b9050600c60009054906101000a90046001600160a01b03166001600160a01b0316631ef3a04c6040518163ffffffff1660e01b815260040160206040518083038186803b158015611f0857600080fd5b505afa158015611f1c573d6000803e3d6000fd5b505050506040513d601f19601f82011682018060405250810190611f409190612587565b600f54604051634632752560e11b81526001600160a01b0392831692630e84c2b3928592911690638c64ea4a90611f7b908b90600401612bf2565b60806040518083038186803b158015611f9357600080fd5b505afa158015611fa7573d6000803e3d6000fd5b505050506040513d601f19601f82011682018060405250810190611fcb91906126e6565b604001516006600101546040518463ffffffff1660e01b8152600401611ff393929190612c20565b60206040518083038186803b15801561200b57600080fd5b505afa15801561201f573d6000803e3d6000fd5b505050506040513d601f19601f8201168201806040525081019061204391906126ca565b61205f5760405162461bcd60e51b81526004016102cc9061289e565b505b336001600160a01b0316847f02ffa641367f5b897c0f8be81bce51f2ef055b4113d7a1e4fd082feea749bf528560405161209b9190612bf2565b60405180910390a350505050565b600f54604051631dc9a9cf60e21b81526000916001600160a01b031690637726a73c906120da9033906004016127a5565b60206040518083038186803b1580156120f257600080fd5b505afa158015612106573d6000803e3d6000fd5b505050506040513d601f19601f8201168201806040525081019061212a9190612750565b9050806121b657600f54604051635a5eb7a360e11b81526001600160a01b039091169063b4bd6f46906121619033906004016127a5565b602060405180830381600087803b15801561217b57600080fd5b505af115801561218f573d6000803e3d6000fd5b505050506040513d601f19601f820116820180604052508101906121b39190612750565b90505b61161681835b6121c4612515565b600f54604051634632752560e11b81526001600160a01b0390911690638c64ea4a906121f4908690600401612bf2565b60806040518083038186803b15801561220c57600080fd5b505afa158015612220573d6000803e3d6000fd5b505050506040513d601f19601f8201168201806040525081019061224491906126e6565b600f5460208201519192506001600160a01b03169063c7eb222b90859061226b9086611979565b6040518363ffffffff1660e01b8152600401612288929190612c12565b600060405180830381600087803b1580156122a257600080fd5b505af11580156122b6573d6000803e3d6000fd5b50505050336001600160a01b0316837ffaddc2a572d923daf0944fe20bf804595e90ca57c85045b1081d338d1510bf14846040516122f49190612bf2565b60405180910390a3505050565b60008261231057506000611973565b8282028284828161231d57fe5b04146119705760405162461bcd60e51b81526004016102cc906129ee565b600080821161235c5760405162461bcd60e51b81526004016102cc90612969565b81838161236557fe5b049392505050565b60606123c2826040518060400160405280602081526020017f5361666545524332303a206c6f772d6c6576656c2063616c6c206661696c6564815250856001600160a01b03166124029092919063ffffffff16565b80519091501561038c57808060200190518101906123e091906126ca565b61038c5760405162461bcd60e51b81526004016102cc90612b2d565b3b151590565b6060612411848460008561241b565b90505b9392505050565b60608247101561243d5760405162461bcd60e51b81526004016102cc90612923565b612446856123fc565b6124625760405162461bcd60e51b81526004016102cc90612af6565b60006060866001600160a01b0316858760405161247f9190612789565b60006040518083038185875af1925050503d80600081146124bc576040519150601f19603f3d011682016040523d82523d6000602084013e6124c1565b606091505b50915091506124d18282866124dc565b979650505050505050565b606083156124eb575081612414565b8251156124fb5782518084602001fd5b8160405162461bcd60e51b81526004016102cc91906127f6565b604051806080016040528060006001600160a01b031681526020016000815260200160008152602001600081525090565b6040518060c001604052806000815260200160008152602001600081526020016000815260200160008152602001600081525090565b803561197381612c89565b600060208284031215612598578081fd5b815161197081612c89565b6000806000606084860312156125b7578182fd5b83356125c281612c89565b925060208401356125d281612c9e565b915060408401356125e281612c9e565b809150509250925092565b6000806000806000806000878903610180811215612609578384fd5b883561261481612c89565b975060c0601f1982011215612627578384fd5b5061263260c0612c36565b6020890135815260408901356020820152606089013560408201526080890135606082015260a0890135608082015260c089013560a08201528096505061267c8960e08a0161257c565b945061268c896101008a0161257c565b935061269c896101208a0161257c565b92506126ac896101408a0161257c565b91506126bc896101608a0161257c565b905092959891949750929550565b6000602082840312156126db578081fd5b815161197081612c9e565b6000608082840312156126f7578081fd5b6127016080612c36565b825161270c81612c89565b808252506020830151602082015260408301516040820152606083015160608201528091505092915050565b600060208284031215612749578081fd5b5035919050565b600060208284031215612761578081fd5b5051919050565b6000806040838503121561277a578182fd5b50508035926020909101359150565b6000825161279b818460208701612c5d565b9190910192915050565b6001600160a01b0391909116815260200190565b6001600160a01b039384168152919092166020820152604081019190915260600190565b6001600160a01b03929092168252602082015260400190565b6000602082528251806020840152612815816040850160208701612c5d565b601f01601f19169190910160400192915050565b602080825260059082015264049563031360dc1b604082015260600190565b60208082526005908201526412558c4c0d60da1b604082015260600190565b6020808252601b908201527f536166654d6174683a206164646974696f6e206f766572666c6f770000000000604082015260600190565b60208082526005908201526424ab18981960d91b604082015260600190565b6020808252601590820152744f776e61626c653a207a65726f206164647265737360581b604082015260600190565b6020808252601e908201527f536166654d6174683a207375627472616374696f6e206f766572666c6f770000604082015260600190565b60208082526026908201527f416464726573733a20696e73756666696369656e742062616c616e636520666f6040820152651c8818d85b1b60d21b606082015260800190565b6020808252601a908201527f536166654d6174683a206469766973696f6e206279207a65726f000000000000604082015260600190565b6020808252602e908201527f496e697469616c697a61626c653a20636f6e747261637420697320616c72656160408201526d191e481a5b9a5d1a585b1a5e995960921b606082015260800190565b60208082526021908201527f536166654d6174683a206d756c7469706c69636174696f6e206f766572666c6f6040820152607760f81b606082015260800190565b6020808252818101527f4f776e61626c653a2063616c6c6572206973206e6f7420746865206f776e6572604082015260600190565b6020808252818101527f4f776e61626c653a2063616c6c657220213d2070656e64696e67206f776e6572604082015260600190565b602080825260059082015264049563130360dc1b604082015260600190565b602080825260059082015264495631303160d81b604082015260600190565b602080825260059082015264495631303360d81b604082015260600190565b6020808252601d908201527f416464726573733a2063616c6c20746f206e6f6e2d636f6e7472616374000000604082015260600190565b6020808252602a908201527f5361666545524332303a204552433230206f7065726174696f6e20646964206e6040820152691bdd081cdd58d8d9595960b21b606082015260800190565b6020808252601f908201527f5265656e7472616e637947756172643a207265656e7472616e742063616c6c00604082015260600190565b600060c082019050825182526020830151602083015260408301516040830152606083015160608301526080830151608083015260a083015160a083015292915050565b90815260200190565b9182526001600160a01b0316602082015260400190565b918252602082015260400190565b9283526020830191909152604082015260600190565b60405181810167ffffffffffffffff81118282101715612c5557600080fd5b604052919050565b60005b83811015612c78578181015183820152602001612c60565b83811115611c635750506000910152565b6001600160a01b03811681146111e057600080fd5b80151581146111e057600080fdfea2646970667358221220ddceb1468124ed9fc4615aeb6115d19e9c0569e901f6ec3ac542aa88ccb7b58c64736f6c634300060c0033",
  "immutableReferences": {},
  "source": "//SPDX-License-Identifier: MIT\npragma solidity 0.6.12;\npragma experimental ABIEncoderV2;\n\nimport \"@openzeppelin/contracts/token/ERC20/IERC20.sol\";\nimport \"@openzeppelin/contracts/token/ERC20/SafeERC20.sol\";\nimport \"@openzeppelin/contracts/utils/ReentrancyGuard.sol\";\nimport \"@openzeppelin/contracts/proxy/Initializable.sol\";\n\nimport \"./BoringOwnable.sol\";\nimport \"./interfaces/IInceptionVaultsCore.sol\";\nimport \"./interfaces/IAdminInceptionVault.sol\";\nimport \"./interfaces/IInceptionVaultsDataProvider.sol\";\nimport \"./interfaces/IInceptionVaultPriceFeed.sol\";\nimport \"../interfaces/IAddressProvider.sol\";\nimport \"../libraries/WadRayMath.sol\";\n\ncontract InceptionVaultsCore is IInceptionVaultsCore, BoringOwnable, ReentrancyGuard, Initializable {\n  using SafeMath for uint256;\n  using SafeERC20 for IERC20;\n  using WadRayMath for uint256;\n\n  uint256 internal constant _MAX_INT = 2**256 - 1;\n\n  uint256 private _cumulativeRate;\n  uint256 private _lastRefresh;\n  VaultConfig private _vaultConfig;\n\n  IAddressProvider private _a;\n  IERC20 private _inceptionCollateral;\n  IAdminInceptionVault private _adminInceptionVault;\n  IInceptionVaultsDataProvider private _inceptionVaultsData;\n  IInceptionVaultPriceFeed private _inceptionPriceFeed;\n\n  modifier onlyVaultOwner(uint256 _vaultId) {\n    require(_inceptionVaultsData.vaultOwner(_vaultId) == msg.sender, \"IV010\");\n    _;\n  }\n\n  function initialize(\n    address _owner,\n    VaultConfig memory vaultConfig,\n    IERC20 inceptionCollateral,\n    IAddressProvider addressProvider,\n    IAdminInceptionVault adminInceptionVault,\n    IInceptionVaultsDataProvider inceptionVaultsDataProvider,\n    IInceptionVaultPriceFeed inceptionPriceFeed\n  ) external override initializer {\n    _vaultConfig = vaultConfig;\n    _inceptionCollateral = inceptionCollateral;\n    _lastRefresh = block.timestamp;\n    _cumulativeRate = WadRayMath.ray();\n    _a = addressProvider;\n    _adminInceptionVault = adminInceptionVault;\n    _inceptionVaultsData = inceptionVaultsDataProvider;\n    owner = _owner;\n    _inceptionPriceFeed = inceptionPriceFeed;\n  }\n\n  /**\n    Deposit inceptionCollateral ERC20 token into the specified vault as collateral\n    @dev this function uses `transferFrom()` and requires pre-approval via `approve()` on the ERC20.\n    @param _vaultId the ID of the vault in which to deposit the inceptioCollateral.\n    @param _amount the amount of tokens to be deposited in WEI.\n  **/\n  function depositByVaultId(uint256 _vaultId, uint256 _amount) external override {\n    _inceptionCollateral.safeTransferFrom(msg.sender, address(this), _amount);\n\n    _addCollateralToVaultById(_vaultId, _amount);\n  }\n\n  /**\n    Deposit inceptionCollateral ERC20 token into the vault of the msg.sender as collateral and borrows the specified amount of tokens in WEI\n    @dev see deposit() and borrow()\n    @param _depositAmount the amount of inceptionCollateral to be deposited in WEI.\n    @param _borrowAmount the amount of borrowed StableX tokens in WEI.\n  **/\n  function depositAndBorrow(uint256 _depositAmount, uint256 _borrowAmount) external override {\n    deposit(_depositAmount);\n    uint256 vaultId = _inceptionVaultsData.vaultId(msg.sender);\n    borrow(vaultId, _borrowAmount);\n  }\n\n  /**\n    Withdraws inceptionCollateral ERC20 token from a vault.\n    @dev Only the owner of a vault can withdraw collateral from it.\n    `withdraw()` will fail if it would bring the vault below the minimum collateralization treshold.\n    @param _vaultId the ID of the vault from which to withdraw the inceptionCollateral.\n    @param _amount the amount of inceptionCollateral ERC20 tokens to be withdrawn in WEI.\n  **/\n  function withdraw(uint256 _vaultId, uint256 _amount) external override onlyVaultOwner(_vaultId) nonReentrant {\n    _removeCollateralFromVault(_vaultId, _amount);\n    _inceptionCollateral.safeTransfer(msg.sender, _amount);\n  }\n\n  /**\n    Convenience function to repay all debt of a vault\n    @dev `repayAll()` will update the outstanding vault debt to the current time.\n    @param _vaultId the ID of the vault for which to repay the debt.\n  **/\n  function repayAll(uint256 _vaultId) external override {\n    repay(_vaultId, _MAX_INT);\n  }\n\n  /**\n    Liquidate a vault that is below the liquidation treshold by repaying its outstanding debt.\n    @dev `liquidate()` will update the outstanding vault debt to the current time and pay a `liquidationBonus`\n    to the liquidator. `liquidate()` can be called by anyone.\n    @param _vaultId the ID of the vault to be liquidated.\n  **/\n  function liquidate(uint256 _vaultId) external override {\n    liquidatePartial(_vaultId, _MAX_INT);\n  }\n\n  /**\n    Deposit inceptionCollateral ERC20 token into the vault of the msg.sender as collateral\n    @dev A new vault is created if no vault exists for the `msg.sender` with the specified collateral type.\n    this function uses `transferFrom()` and requires pre-approval via `approve()` on the ERC20.\n    @param _amount the amount of tokens to be deposited in WEI.\n  **/\n  function deposit(uint256 _amount) public override {\n    require(_amount > 0, \"IV100\");\n    _inceptionCollateral.safeTransferFrom(msg.sender, address(this), _amount);\n\n    _addCollateralToVault(_amount);\n  }\n\n  /**\n    Borrow new PAR tokens from a vault.\n    @dev Only the owner of a vault can borrow from it.\n    `borrow()` will update the outstanding vault debt to the current time before attempting the withdrawal.\n     `borrow()` will fail if it would bring the vault below the minimum collateralization treshold.\n    @param _vaultId the ID of the vault from which to borrow.\n    @param _amount the amount of borrowed inceptionCollateral tokens in WEI.\n  **/\n  function borrow(uint256 _vaultId, uint256 _amount) public override onlyVaultOwner(_vaultId) nonReentrant {\n    IERC20 stablex = IERC20(_a.stablex());\n    require(_amount <= stablex.balanceOf(address(_adminInceptionVault)), \"IV104\");\n    IInceptionVaultsDataProvider.InceptionVault memory v = _inceptionVaultsData.vaults(_vaultId);\n\n    // Make sure current rate is up to date\n    _refreshCumulativeRate();\n\n    uint256 newDebt = _amount;\n    if (_vaultConfig.originationFee > 0) {\n      newDebt = newDebt.add(_amount.wadMul(_vaultConfig.originationFee));\n    }\n\n    // Increment vault borrow balance\n\n    uint256 newBaseDebt = _a.ratesManager().calculateBaseDebt(newDebt, _cumulativeRate);\n\n    _inceptionVaultsData.setBaseDebt(_vaultId, v.baseDebt.add(newBaseDebt));\n\n    uint256 collateralValue = _inceptionPriceFeed.convertFrom(v.collateralBalance);\n    uint256 newVaultDebt = _inceptionVaultsData.vaultDebt(_vaultId);\n\n    bool isHealthy = _a.liquidationManager().isHealthy(collateralValue, newVaultDebt, _vaultConfig.minCollateralRatio);\n\n    require(isHealthy, \"IV102\");\n\n    _adminInceptionVault.lendPAR(_amount, msg.sender);\n\n    emit Borrowed(_vaultId, _amount, msg.sender);\n  }\n\n  /**\n    Repay an outstanding PAR balance to a vault.\n    @dev `repay()` will update the outstanding vault debt to the current time.\n    @param _vaultId the ID of the vault for which to repay the outstanding debt balance.\n    @param _amount the amount of PAR tokens in WEI to be repaid.\n  **/\n  function repay(uint256 _vaultId, uint256 _amount) public override nonReentrant {\n    // Make sure current rate is up to date\n    _refreshCumulativeRate();\n\n    uint256 currentVaultDebt = _inceptionVaultsData.vaultDebt(_vaultId);\n    // Decrement vault borrow balance\n    if (_amount >= currentVaultDebt) {\n      // Full repayment\n      _amount = currentVaultDebt; //only pay back what's outstanding\n    }\n    _reduceVaultDebt(_vaultId, _amount);\n    // This will require a user allowance first\n    IERC20 stablex = IERC20(_a.stablex());\n    stablex.safeTransferFrom(msg.sender, address(_adminInceptionVault), _amount);\n    emit Repaid(_vaultId, _amount, msg.sender);\n  }\n\n  /**\n    Liquidate a vault partially that is below the liquidation treshold by repaying part of its outstanding debt.\n    @dev `liquidatePartial()` will update the outstanding vault debt to the current time and pay a `liquidationBonus`\n    to the liquidator. A LiquidationFee will be applied to the borrower during the liquidation.\n    This means that the change in outstanding debt can be smaller than the repaid amount.\n    `liquidatePartial()` can be called by anyone.\n    @param _vaultId the ID of the vault to be liquidated.\n    @param _amount the amount of debt+liquidationFee to repay.\n  **/\n  function liquidatePartial(uint256 _vaultId, uint256 _amount) public override nonReentrant {\n    IInceptionVaultsDataProvider.InceptionVault memory v = _inceptionVaultsData.vaults(_vaultId);\n    _refreshCumulativeRate();\n    uint256 collateralValue = _inceptionPriceFeed.convertFrom(v.collateralBalance);\n    uint256 currentVaultDebt = _inceptionVaultsData.vaultDebt(_vaultId);\n    require(\n      !_a.liquidationManager().isHealthy(collateralValue, currentVaultDebt, _vaultConfig.liquidationRatio),\n      \"IV103\"\n    );\n    uint256 repaymentAfterLiquidationFeeRatio = WadRayMath.wad().sub(_vaultConfig.liquidationFee);\n    uint256 maxLiquidationCost = currentVaultDebt.wadDiv(repaymentAfterLiquidationFeeRatio);\n    uint256 repayAmount;\n    if (_amount > maxLiquidationCost) {\n      _amount = maxLiquidationCost;\n      repayAmount = currentVaultDebt;\n    } else {\n      repayAmount = _amount.wadMul(repaymentAfterLiquidationFeeRatio);\n    }\n    uint256 collateralValueToReceive = _amount.add(_amount.wadMul(_vaultConfig.liquidationBonus));\n    uint256 insuranceAmount = 0;\n    if (collateralValueToReceive >= collateralValue) {\n      // Not enough collateral for debt & liquidation bonus\n      collateralValueToReceive = collateralValue;\n      uint256 discountedCollateralValue = collateralValue.wadDiv(_vaultConfig.liquidationBonus.add(WadRayMath.wad()));\n      if (currentVaultDebt > discountedCollateralValue) {\n        // Not enough collateral for debt alone\n        insuranceAmount = currentVaultDebt.sub(discountedCollateralValue);\n        require(_a.stablex().balanceOf(address(_adminInceptionVault)) >= insuranceAmount, \"IV104\");\n      }\n      repayAmount = currentVaultDebt.sub(insuranceAmount);\n      _amount = discountedCollateralValue;\n    }\n    // Reduce the vault debt by repayAmount\n    _reduceVaultDebt(_vaultId, repayAmount.add(insuranceAmount));\n    IERC20 stablex = IERC20(_a.stablex());\n    stablex.safeTransferFrom(msg.sender, address(this), _amount);\n    stablex.safeTransfer(address(_adminInceptionVault), _amount);\n    // Send the claimed collateral to the liquidator\n    uint256 collateralToReceive = _inceptionPriceFeed.convertTo(collateralValueToReceive);\n    _inceptionVaultsData.setCollateralBalance(_vaultId, v.collateralBalance.sub(collateralToReceive));\n    _inceptionCollateral.safeTransfer(msg.sender, collateralToReceive);\n    emit Liquidated(_vaultId, repayAmount, collateralToReceive, v.owner, msg.sender);\n  }\n\n  function cumulativeRate() public view override returns (uint256) {\n    return _cumulativeRate;\n  }\n\n  function lastRefresh() public view override returns (uint256) {\n    return _lastRefresh;\n  }\n\n  function vaultConfig() public view override returns (VaultConfig memory) {\n    return _vaultConfig;\n  }\n\n  function a() public view override returns (IAddressProvider) {\n    return _a;\n  }\n\n  function inceptionCollateral() public view override returns (IERC20) {\n    return _inceptionCollateral;\n  }\n\n  function adminInceptionVault() public view override returns (IAdminInceptionVault) {\n    return _adminInceptionVault;\n  }\n\n  function inceptionVaultsData() public view override returns (IInceptionVaultsDataProvider) {\n    return _inceptionVaultsData;\n  }\n\n  function inceptionPriceFeed() public view override returns (IInceptionVaultPriceFeed) {\n    return _inceptionPriceFeed;\n  }\n\n  function _addCollateralToVault(uint256 _amount) internal {\n    uint256 vaultId = _inceptionVaultsData.vaultId(msg.sender);\n    if (vaultId == 0) {\n      vaultId = _inceptionVaultsData.createVault(msg.sender);\n    }\n    _addCollateralToVaultById(vaultId, _amount);\n  }\n\n  function _removeCollateralFromVault(uint256 _vaultId, uint256 _amount) internal {\n    IInceptionVaultsDataProvider.InceptionVault memory v = _inceptionVaultsData.vaults(_vaultId);\n    require(_amount <= v.collateralBalance, \"IV101\");\n    uint256 newCollateralBalance = v.collateralBalance.sub(_amount);\n    _inceptionVaultsData.setCollateralBalance(_vaultId, newCollateralBalance);\n    if (v.baseDebt > 0) {\n      _refreshCumulativeRate();\n      uint256 newCollateralValue = _inceptionPriceFeed.convertFrom(newCollateralBalance);\n      require(\n        _a.liquidationManager().isHealthy(\n          newCollateralValue,\n          _inceptionVaultsData.vaults(_vaultId).baseDebt,\n          _vaultConfig.minCollateralRatio\n        ),\n        \"IV102\"\n      );\n    }\n\n    emit Withdrawn(_vaultId, _amount, msg.sender);\n  }\n\n  function _addCollateralToVaultById(uint256 _vaultId, uint256 _amount) internal {\n    IInceptionVaultsDataProvider.InceptionVault memory v = _inceptionVaultsData.vaults(_vaultId);\n    _inceptionVaultsData.setCollateralBalance(_vaultId, v.collateralBalance.add(_amount));\n    emit Deposited(_vaultId, _amount, msg.sender);\n  }\n\n  function _refreshCumulativeRate() internal {\n    uint256 timestamp = block.timestamp;\n    uint256 _timeElapsed = block.timestamp.sub(_lastRefresh);\n    _cumulativeRate = _a.ratesManager().calculateCumulativeRate(_vaultConfig.borrowRate, _cumulativeRate, _timeElapsed);\n    _lastRefresh = timestamp;\n    emit CumulativeRateUpdated(_timeElapsed, _cumulativeRate);\n  }\n\n  /**\n    Internal helper function to reduce the debt of a vault.\n    @dev assumes cumulative rates for the vault's collateral type are up to date.\n    please call `refreshCollateral()` before calling this function.\n    @param _vaultId the ID of the vault for which to reduce the debt.\n    @param _amount the amount of debt to be reduced.\n  **/\n  function _reduceVaultDebt(uint256 _vaultId, uint256 _amount) internal {\n    uint256 currentVaultDebt = _inceptionVaultsData.vaultDebt(_vaultId);\n    uint256 remainder = currentVaultDebt.sub(_amount);\n\n    if (remainder == 0) {\n      _inceptionVaultsData.setBaseDebt(_vaultId, 0);\n    } else {\n      uint256 newBaseDebt = _a.ratesManager().calculateBaseDebt(remainder, _cumulativeRate);\n      _inceptionVaultsData.setBaseDebt(_vaultId, newBaseDebt);\n    }\n  }\n}\n",
  "sourcePath": "/home/mingyue/sub_contract_content/Web3Bugs/contracts/115/core/contracts/inception/InceptionVaultsCore.sol",
  "compiler": {
    "name": "solc",
    "version": "0.6.12+commit.27d51765.Emscripten.clang"
  },
  "schemaVersion": "3.4.7",
  "updatedAt": "2025-02-28T14:09:34.620Z",
  "devdoc": {
    "kind": "dev",
    "methods": {
      "borrow(uint256,uint256)": {
        "details": "Only the owner of a vault can borrow from it. `borrow()` will update the outstanding vault debt to the current time before attempting the withdrawal. `borrow()` will fail if it would bring the vault below the minimum collateralization treshold.",
        "params": {
          "_amount": "the amount of borrowed inceptionCollateral tokens in WEI.*",
          "_vaultId": "the ID of the vault from which to borrow."
        }
      },
      "deposit(uint256)": {
        "details": "A new vault is created if no vault exists for the `msg.sender` with the specified collateral type. this function uses `transferFrom()` and requires pre-approval via `approve()` on the ERC20.",
        "params": {
          "_amount": "the amount of tokens to be deposited in WEI.*"
        }
      },
      "depositAndBorrow(uint256,uint256)": {
        "details": "see deposit() and borrow()",
        "params": {
          "_borrowAmount": "the amount of borrowed StableX tokens in WEI.*",
          "_depositAmount": "the amount of inceptionCollateral to be deposited in WEI."
        }
      },
      "depositByVaultId(uint256,uint256)": {
        "details": "this function uses `transferFrom()` and requires pre-approval via `approve()` on the ERC20.",
        "params": {
          "_amount": "the amount of tokens to be deposited in WEI.*",
          "_vaultId": "the ID of the vault in which to deposit the inceptioCollateral."
        }
      },
      "liquidate(uint256)": {
        "details": "`liquidate()` will update the outstanding vault debt to the current time and pay a `liquidationBonus` to the liquidator. `liquidate()` can be called by anyone.",
        "params": {
          "_vaultId": "the ID of the vault to be liquidated.*"
        }
      },
      "liquidatePartial(uint256,uint256)": {
        "details": "`liquidatePartial()` will update the outstanding vault debt to the current time and pay a `liquidationBonus` to the liquidator. A LiquidationFee will be applied to the borrower during the liquidation. This means that the change in outstanding debt can be smaller than the repaid amount. `liquidatePartial()` can be called by anyone.",
        "params": {
          "_amount": "the amount of debt+liquidationFee to repay.*",
          "_vaultId": "the ID of the vault to be liquidated."
        }
      },
      "repay(uint256,uint256)": {
        "details": "`repay()` will update the outstanding vault debt to the current time.",
        "params": {
          "_amount": "the amount of PAR tokens in WEI to be repaid.*",
          "_vaultId": "the ID of the vault for which to repay the outstanding debt balance."
        }
      },
      "repayAll(uint256)": {
        "details": "`repayAll()` will update the outstanding vault debt to the current time.",
        "params": {
          "_vaultId": "the ID of the vault for which to repay the debt.*"
        }
      },
      "transferOwnership(address,bool,bool)": {
        "params": {
          "direct": "True if `newOwner` should be set immediately. False if `newOwner` needs to use `claimOwnership`.",
          "newOwner": "Address of the new owner.",
          "renounce": "Allows the `newOwner` to be `address(0)` if `direct` and `renounce` is True. Has no effect otherwise."
        }
      },
      "withdraw(uint256,uint256)": {
        "details": "Only the owner of a vault can withdraw collateral from it. `withdraw()` will fail if it would bring the vault below the minimum collateralization treshold.",
        "params": {
          "_amount": "the amount of inceptionCollateral ERC20 tokens to be withdrawn in WEI.*",
          "_vaultId": "the ID of the vault from which to withdraw the inceptionCollateral."
        }
      }
    },
    "version": 1
  },
  "userdoc": {
    "kind": "user",
    "methods": {
      "borrow(uint256,uint256)": {
        "notice": "Borrow new PAR tokens from a vault."
      },
      "claimOwnership()": {
        "notice": "Needs to be called by `pendingOwner` to claim ownership."
      },
      "deposit(uint256)": {
        "notice": "Deposit inceptionCollateral ERC20 token into the vault of the msg.sender as collateral"
      },
      "depositAndBorrow(uint256,uint256)": {
        "notice": "Deposit inceptionCollateral ERC20 token into the vault of the msg.sender as collateral and borrows the specified amount of tokens in WEI"
      },
      "depositByVaultId(uint256,uint256)": {
        "notice": "Deposit inceptionCollateral ERC20 token into the specified vault as collateral"
      },
      "liquidate(uint256)": {
        "notice": "Liquidate a vault that is below the liquidation treshold by repaying its outstanding debt."
      },
      "liquidatePartial(uint256,uint256)": {
        "notice": "Liquidate a vault partially that is below the liquidation treshold by repaying part of its outstanding debt."
      },
      "repay(uint256,uint256)": {
        "notice": "Repay an outstanding PAR balance to a vault."
      },
      "repayAll(uint256)": {
        "notice": "Convenience function to repay all debt of a vault"
      },
      "transferOwnership(address,bool,bool)": {
        "notice": "Transfers ownership to `newOwner`. Either directly or claimable by the new pending owner. Can only be invoked by the current `owner`."
      },
      "withdraw(uint256,uint256)": {
        "notice": "Withdraws inceptionCollateral ERC20 token from a vault."
      }
    },
    "version": 1
  }
}