{
  "contractName": "LiquidationManagerV1",
  "abi": [
    {
      "inputs": [
        {
          "internalType": "contract IAddressProviderV1",
          "name": "_addresses",
          "type": "address"
        }
      ],
      "stateMutability": "nonpayable",
      "type": "constructor"
    },
    {
      "inputs": [],
      "name": "FULL_LIQUIDIATION_TRESHOLD",
      "outputs": [
        {
          "internalType": "uint256",
          "name": "",
          "type": "uint256"
        }
      ],
      "stateMutability": "view",
      "type": "function"
    },
    {
      "inputs": [],
      "name": "HEALTH_FACTOR_LIQUIDATION_THRESHOLD",
      "outputs": [
        {
          "internalType": "uint256",
          "name": "",
          "type": "uint256"
        }
      ],
      "stateMutability": "view",
      "type": "function"
    },
    {
      "inputs": [],
      "name": "a",
      "outputs": [
        {
          "internalType": "contract IAddressProviderV1",
          "name": "",
          "type": "address"
        }
      ],
      "stateMutability": "view",
      "type": "function"
    },
    {
      "inputs": [
        {
          "internalType": "address",
          "name": "_collateralType",
          "type": "address"
        },
        {
          "internalType": "uint256",
          "name": "_collateralValue",
          "type": "uint256"
        },
        {
          "internalType": "uint256",
          "name": "_vaultDebt",
          "type": "uint256"
        }
      ],
      "name": "isHealthy",
      "outputs": [
        {
          "internalType": "bool",
          "name": "",
          "type": "bool"
        }
      ],
      "stateMutability": "view",
      "type": "function"
    },
    {
      "inputs": [
        {
          "internalType": "address",
          "name": "_collateralType",
          "type": "address"
        },
        {
          "internalType": "uint256",
          "name": "_collateralValue",
          "type": "uint256"
        },
        {
          "internalType": "uint256",
          "name": "_vaultDebt",
          "type": "uint256"
        }
      ],
      "name": "calculateHealthFactor",
      "outputs": [
        {
          "internalType": "uint256",
          "name": "healthFactor",
          "type": "uint256"
        }
      ],
      "stateMutability": "view",
      "type": "function"
    },
    {
      "inputs": [
        {
          "internalType": "uint256",
          "name": "_amount",
          "type": "uint256"
        }
      ],
      "name": "liquidationBonus",
      "outputs": [
        {
          "internalType": "uint256",
          "name": "bonus",
          "type": "uint256"
        }
      ],
      "stateMutability": "view",
      "type": "function"
    },
    {
      "inputs": [
        {
          "internalType": "uint256",
          "name": "_amount",
          "type": "uint256"
        }
      ],
      "name": "applyLiquidationDiscount",
      "outputs": [
        {
          "internalType": "uint256",
          "name": "discountedAmount",
          "type": "uint256"
        }
      ],
      "stateMutability": "view",
      "type": "function"
    }
  ],
  "bytecode": "0x608060405234801561001057600080fd5b506040516109ef3803806109ef83398101604081905261002f9161006c565b60016000556001600160a01b03811661004757600080fd5b600180546001600160a01b0319166001600160a01b039290921691909117905561009a565b60006020828403121561007d578081fd5b81516001600160a01b0381168114610093578182fd5b9392505050565b610946806100a96000396000f3fe608060405234801561001057600080fd5b506004361061007d5760003560e01c8063c3525c281161005b578063c3525c28146100c8578063de8a044e146100d0578063e91a5842146100e3578063eb36deb7146100f65761007d565b80630dbe671f146100825780634fbbd94c146100a05780637c4dd53e146100c0575b600080fd5b61008a610116565b60405161009791906107ea565b60405180910390f35b6100b36100ae3660046107ba565b610125565b60405161009791906108ef565b6100b361022d565b6100b361023a565b6100b36100de3660046106f6565b610246565b6100b36100f13660046107ba565b6104c6565b6101096101043660046106f6565b6105d9565b60405161009791906107fe565b6001546001600160a01b031681565b6000610227600160009054906101000a90046001600160a01b03166001600160a01b03166379502c556040518163ffffffff1660e01b815260040160206040518083038186803b15801561017857600080fd5b505afa15801561018c573d6000803e3d6000fd5b505050506040513d601f19601f820116820180604052508101906101b0919061072a565b6001600160a01b0316637b7c1f4c6040518163ffffffff1660e01b815260040160206040518083038186803b1580156101e857600080fd5b505afa1580156101fc573d6000803e3d6000fd5b505050506040513d601f19601f8201168201806040525081019061022091906107d2565b83906105fb565b92915050565b68056bc75e2d6310000081565b670de0b6b3a764000081565b60008161025c5761025561062b565b90506104bf565b60006102688484610637565b90506000600160009054906101000a90046001600160a01b03166001600160a01b03166379502c556040518163ffffffff1660e01b815260040160206040518083038186803b1580156102ba57600080fd5b505afa1580156102ce573d6000803e3d6000fd5b505050506040513d601f19601f820116820180604052508101906102f2919061072a565b6001600160a01b031663db67c4d5876040518263ffffffff1660e01b815260040161031d91906107ea565b60206040518083038186803b15801561033557600080fd5b505afa158015610349573d6000803e3d6000fd5b505050506040513d601f19601f8201168201806040525081019061036d91906107d2565b9050600081116103985760405162461bcd60e51b815260040161038f90610840565b60405180910390fd5b600154604080516379502c5560e01b815290516000926001600160a01b0316916379502c55916004808301926020929190829003018186803b1580156103dd57600080fd5b505afa1580156103f1573d6000803e3d6000fd5b505050506040513d601f19601f82011682018060405250810190610415919061072a565b6001600160a01b0316634a6e0dd0836040518263ffffffff1660e01b815260040161044091906108ef565b60a06040518083038186803b15801561045857600080fd5b505afa15801561046c573d6000803e3d6000fd5b505050506040513d601f19601f820116820180604052508101906104909190610746565b60400151905080156104b0576104a68382610637565b93505050506104bf565b670de0b6b3a764000093505050505b9392505050565b60006102276105d26104d661062b565b600160009054906101000a90046001600160a01b03166001600160a01b03166379502c556040518163ffffffff1660e01b815260040160206040518083038186803b15801561052457600080fd5b505afa158015610538573d6000803e3d6000fd5b505050506040513d601f19601f8201168201806040525081019061055c919061072a565b6001600160a01b0316637b7c1f4c6040518163ffffffff1660e01b815260040160206040518083038186803b15801561059457600080fd5b505afa1580156105a8573d6000803e3d6000fd5b505050506040513d601f19601f820116820180604052508101906105cc91906107d2565b90610665565b8390610637565b6000806105e7858585610246565b670de0b6b3a7640000111595945050505050565b60006104bf670de0b6b3a7640000610625610616868661068a565b6706f05b59d3b2000090610665565b906106c4565b670de0b6b3a764000090565b60006002820461065d8361062561065687670de0b6b3a764000061068a565b8490610665565b949350505050565b6000828201838110156104bf5760405162461bcd60e51b815260040161038f90610809565b60008261069957506000610227565b828202828482816106a657fe5b04146104bf5760405162461bcd60e51b815260040161038f906108ae565b60008082116106e55760405162461bcd60e51b815260040161038f90610877565b8183816106ee57fe5b049392505050565b60008060006060848603121561070a578283fd5b8335610715816108f8565b95602085013595506040909401359392505050565b60006020828403121561073b578081fd5b81516104bf816108f8565b600060a08284031215610757578081fd5b60405160a0810181811067ffffffffffffffff82111715610776578283fd5b6040528251610784816108f8565b80825250602083015160208201526040830151604082015260608301516060820152608083015160808201528091505092915050565b6000602082840312156107cb578081fd5b5035919050565b6000602082840312156107e3578081fd5b5051919050565b6001600160a01b0391909116815260200190565b901515815260200190565b6020808252601b908201527f536166654d6174683a206164646974696f6e206f766572666c6f770000000000604082015260600190565b60208082526018908201527f636f6c6c61746572616c206e6f7420737570706f727465640000000000000000604082015260600190565b6020808252601a908201527f536166654d6174683a206469766973696f6e206279207a65726f000000000000604082015260600190565b60208082526021908201527f536166654d6174683a206d756c7469706c69636174696f6e206f766572666c6f6040820152607760f81b606082015260800190565b90815260200190565b6001600160a01b038116811461090d57600080fd5b5056fea2646970667358221220cb53183aeaf938f370f7bc997e94113a727ba303e0084ffac0b29ca48462c77d64736f6c634300060c0033",
  "immutableReferences": {},
  "source": "// SPDX-License-Identifier: MIT\n\npragma experimental ABIEncoderV2;\npragma solidity 0.6.12;\n\nimport \"@openzeppelin/contracts/utils/ReentrancyGuard.sol\";\nimport \"@openzeppelin/contracts/math/SafeMath.sol\";\nimport \"../libraries/WadRayMath.sol\";\nimport \"./interfaces/IAddressProviderV1.sol\";\nimport \"./interfaces/IConfigProviderV1.sol\";\nimport \"./interfaces/ILiquidationManagerV1.sol\";\n\ncontract LiquidationManagerV1 is ILiquidationManagerV1, ReentrancyGuard {\n  using SafeMath for uint256;\n  using WadRayMath for uint256;\n\n  IAddressProviderV1 public override a;\n\n  uint256 public constant HEALTH_FACTOR_LIQUIDATION_THRESHOLD = 1e18; // 1\n  uint256 public constant FULL_LIQUIDIATION_TRESHOLD = 100e18; // 100 USDX, vaults below 100 USDX can be liquidated in full\n\n  constructor(IAddressProviderV1 _addresses) public {\n    require(address(_addresses) != address(0));\n    a = _addresses;\n  }\n\n  /**\n    Check if the health factor is above or equal to 1.\n    @param _collateralType address of the collateral type\n    @param _collateralValue value of the collateral in stableX currency\n    @param _vaultDebt outstanding debt to which the collateral balance shall be compared\n    @return boolean if the health factor is >= 1.\n  */\n  function isHealthy(\n    address _collateralType,\n    uint256 _collateralValue,\n    uint256 _vaultDebt\n  ) public view override returns (bool) {\n    uint256 healthFactor = calculateHealthFactor(_collateralType, _collateralValue, _vaultDebt);\n    return healthFactor >= HEALTH_FACTOR_LIQUIDATION_THRESHOLD;\n  }\n\n  /**\n    Calculate the healthfactor of a debt balance\n    @param _collateralType address of the collateral type\n    @param _collateralValue value of the collateral in stableX currency\n    @param _vaultDebt outstanding debt to which the collateral balance shall be compared\n    @return healthFactor\n  */\n  function calculateHealthFactor(\n    address _collateralType,\n    uint256 _collateralValue,\n    uint256 _vaultDebt\n  ) public view override returns (uint256 healthFactor) {\n    if (_vaultDebt == 0) return WadRayMath.wad();\n\n    // CurrentCollateralizationRatio = deposited ETH in USD / debt in USD\n    uint256 collateralizationRatio = _collateralValue.wadDiv(_vaultDebt);\n\n    // Healthfactor = CurrentCollateralizationRatio / MinimumCollateralizationRatio\n\n    uint256 collateralId = a.config().collateralIds(_collateralType);\n    require(collateralId > 0, \"collateral not supported\");\n\n    uint256 minRatio = a.config().collateralConfigs(collateralId).minCollateralRatio;\n    if (minRatio > 0) {\n      return collateralizationRatio.wadDiv(minRatio);\n    }\n\n    return 1e18; // 1\n  }\n\n  /**\n    Calculate the liquidation bonus for a specified amount\n    @param _amount amount for which the liquidation bonus shall be calculated\n    @return bonus the liquidation bonus to pay out\n  */\n  function liquidationBonus(uint256 _amount) public view override returns (uint256 bonus) {\n    return _amount.wadMul(IConfigProviderV1(address(a.config())).liquidationBonus());\n  }\n\n  /**\n    Apply the liquidation bonus to a balance as a discount.\n    @param _amount the balance on which to apply to liquidation bonus as a discount.\n    @return discountedAmount\n  */\n  function applyLiquidationDiscount(uint256 _amount) public view override returns (uint256 discountedAmount) {\n    return _amount.wadDiv(IConfigProviderV1(address(a.config())).liquidationBonus().add(WadRayMath.wad()));\n  }\n}\n",
  "sourcePath": "/home/mingyue/sub_contract_content/Web3Bugs/contracts/115/core/contracts/v1/LiquidiationManagerV1.sol",
  "compiler": {
    "name": "solc",
    "version": "0.6.12+commit.27d51765.Emscripten.clang"
  },
  "schemaVersion": "3.4.7",
  "updatedAt": "2025-02-28T14:09:34.678Z",
  "devdoc": {
    "kind": "dev",
    "methods": {
      "applyLiquidationDiscount(uint256)": {
        "params": {
          "_amount": "the balance on which to apply to liquidation bonus as a discount."
        },
        "returns": {
          "discountedAmount": "discountedAmount"
        }
      },
      "calculateHealthFactor(address,uint256,uint256)": {
        "params": {
          "_collateralType": "address of the collateral type",
          "_collateralValue": "value of the collateral in stableX currency",
          "_vaultDebt": "outstanding debt to which the collateral balance shall be compared"
        },
        "returns": {
          "healthFactor": "healthFactor"
        }
      },
      "isHealthy(address,uint256,uint256)": {
        "params": {
          "_collateralType": "address of the collateral type",
          "_collateralValue": "value of the collateral in stableX currency",
          "_vaultDebt": "outstanding debt to which the collateral balance shall be compared"
        },
        "returns": {
          "_0": "boolean if the health factor is >= 1."
        }
      },
      "liquidationBonus(uint256)": {
        "params": {
          "_amount": "amount for which the liquidation bonus shall be calculated"
        },
        "returns": {
          "bonus": "the liquidation bonus to pay out"
        }
      }
    },
    "version": 1
  },
  "userdoc": {
    "kind": "user",
    "methods": {
      "applyLiquidationDiscount(uint256)": {
        "notice": "Apply the liquidation bonus to a balance as a discount."
      },
      "calculateHealthFactor(address,uint256,uint256)": {
        "notice": "Calculate the healthfactor of a debt balance"
      },
      "isHealthy(address,uint256,uint256)": {
        "notice": "Check if the health factor is above or equal to 1."
      },
      "liquidationBonus(uint256)": {
        "notice": "Calculate the liquidation bonus for a specified amount"
      }
    },
    "version": 1
  }
}