{
  "contractName": "MerkleDistributor",
  "abi": [
    {
      "inputs": [
        {
          "internalType": "address",
          "name": "_token",
          "type": "address"
        },
        {
          "internalType": "bytes32",
          "name": "_merkleRoot",
          "type": "bytes32"
        },
        {
          "internalType": "uint256",
          "name": "_endTime",
          "type": "uint256"
        }
      ],
      "stateMutability": "nonpayable",
      "type": "constructor"
    },
    {
      "anonymous": false,
      "inputs": [
        {
          "indexed": false,
          "internalType": "uint256",
          "name": "index",
          "type": "uint256"
        },
        {
          "indexed": false,
          "internalType": "address",
          "name": "account",
          "type": "address"
        },
        {
          "indexed": false,
          "internalType": "uint256",
          "name": "amount",
          "type": "uint256"
        }
      ],
      "name": "Claimed",
      "type": "event"
    },
    {
      "anonymous": false,
      "inputs": [
        {
          "indexed": true,
          "internalType": "address",
          "name": "previousOwner",
          "type": "address"
        },
        {
          "indexed": true,
          "internalType": "address",
          "name": "newOwner",
          "type": "address"
        }
      ],
      "name": "OwnershipTransferred",
      "type": "event"
    },
    {
      "inputs": [],
      "name": "endTime",
      "outputs": [
        {
          "internalType": "uint256",
          "name": "",
          "type": "uint256"
        }
      ],
      "stateMutability": "view",
      "type": "function"
    },
    {
      "inputs": [],
      "name": "merkleRoot",
      "outputs": [
        {
          "internalType": "bytes32",
          "name": "",
          "type": "bytes32"
        }
      ],
      "stateMutability": "view",
      "type": "function"
    },
    {
      "inputs": [],
      "name": "owner",
      "outputs": [
        {
          "internalType": "address",
          "name": "",
          "type": "address"
        }
      ],
      "stateMutability": "view",
      "type": "function"
    },
    {
      "inputs": [],
      "name": "renounceOwnership",
      "outputs": [],
      "stateMutability": "nonpayable",
      "type": "function"
    },
    {
      "inputs": [],
      "name": "token",
      "outputs": [
        {
          "internalType": "address",
          "name": "",
          "type": "address"
        }
      ],
      "stateMutability": "view",
      "type": "function"
    },
    {
      "inputs": [
        {
          "internalType": "address",
          "name": "newOwner",
          "type": "address"
        }
      ],
      "name": "transferOwnership",
      "outputs": [],
      "stateMutability": "nonpayable",
      "type": "function"
    },
    {
      "inputs": [
        {
          "internalType": "uint256",
          "name": "_index",
          "type": "uint256"
        },
        {
          "internalType": "address",
          "name": "_account",
          "type": "address"
        },
        {
          "internalType": "uint256",
          "name": "_amount",
          "type": "uint256"
        },
        {
          "internalType": "bytes32[]",
          "name": "merkleProof",
          "type": "bytes32[]"
        }
      ],
      "name": "claim",
      "outputs": [],
      "stateMutability": "nonpayable",
      "type": "function"
    },
    {
      "inputs": [
        {
          "internalType": "uint256",
          "name": "_index",
          "type": "uint256"
        }
      ],
      "name": "isClaimed",
      "outputs": [
        {
          "internalType": "bool",
          "name": "",
          "type": "bool"
        }
      ],
      "stateMutability": "view",
      "type": "function"
    },
    {
      "inputs": [],
      "name": "isActive",
      "outputs": [
        {
          "internalType": "bool",
          "name": "",
          "type": "bool"
        }
      ],
      "stateMutability": "view",
      "type": "function"
    },
    {
      "inputs": [
        {
          "internalType": "address",
          "name": "_tokenAddress",
          "type": "address"
        },
        {
          "internalType": "uint256",
          "name": "_tokenAmount",
          "type": "uint256"
        }
      ],
      "name": "recoverERC20",
      "outputs": [],
      "stateMutability": "nonpayable",
      "type": "function"
    }
  ],
  "bytecode": "0x60e060405234801561001057600080fd5b50604051610b9a380380610b9a83398101604081905261002f916100d1565b60006100396100cd565b600080546001600160a01b0319166001600160a01b0383169081178255604051929350917f8be0079c531659141344cd1fd0a4f28419497f9722a3daafe3b4186f6b6457e0908290a3506001600160601b0319606084901b1660805260a08290524281116100c25760405162461bcd60e51b81526004016100b990610112565b60405180910390fd5b60c0525061013b9050565b3390565b6000806000606084860312156100e5578283fd5b83516001600160a01b03811681146100fb578384fd5b602085015160409095015190969495509392505050565b6020808252600f908201526e496e76616c696420656e6454696d6560881b604082015260600190565b60805160601c60a05160c051610a216101796000398061015352806103a352508061022e528061037f525080610295528061060e5250610a216000f3fe608060405234801561001057600080fd5b506004361061009e5760003560e01c80638980f11f116100665780638980f11f146100fb5780638da5cb5b1461010e5780639e34070f14610123578063f2fde38b14610136578063fc0c546a146101495761009e565b806322f3e2d4146100a35780632e7ba6ef146100c15780632eb4a7ab146100d65780633197cbb6146100eb578063715018a6146100f3575b600080fd5b6100ab610151565b6040516100b8919061088f565b60405180910390f35b6100d46100cf36600461079a565b610177565b005b6100de61037d565b6040516100b8919061089a565b6100de6103a1565b6100d46103c5565b6100d4610109366004610738565b61044e565b610116610519565b6040516100b89190610862565b6100ab610131366004610782565b610528565b6100d4610144366004610716565b61054c565b61011661060c565b7f0000000000000000000000000000000000000000000000000000000000000000421090565b61017f610151565b6101a45760405162461bcd60e51b815260040161019b90610940565b60405180910390fd5b6101ad85610528565b156101ca5760405162461bcd60e51b815260040161019b90610912565b60008585856040516020016101e19392919061083a565b6040516020818303038152906040528051906020012090506102598383808060200260200160405190810160405280939291908181526020018383602002808284376000920191909152507f000000000000000000000000000000000000000000000000000000000000000092508591506106309050565b6102755760405162461bcd60e51b815260040161019b906109a5565b61027e866106cd565b60405163a9059cbb60e01b81526001600160a01b037f0000000000000000000000000000000000000000000000000000000000000000169063a9059cbb906102cc9088908890600401610876565b602060405180830381600087803b1580156102e657600080fd5b505af11580156102fa573d6000803e3d6000fd5b505050506040513d601f19601f8201168201806040525081019061031e9190610762565b61033a5760405162461bcd60e51b815260040161019b906108e9565b7f4ec90e965519d92681267467f775ada5bd214aa92c0dc93d90a5e880ce9ed02686868660405161036d939291906109cc565b60405180910390a1505050505050565b7f000000000000000000000000000000000000000000000000000000000000000081565b7f000000000000000000000000000000000000000000000000000000000000000081565b6103cd6106f5565b6001600160a01b03166103de610519565b6001600160a01b0316146104045760405162461bcd60e51b815260040161019b90610970565b600080546040516001600160a01b03909116907f8be0079c531659141344cd1fd0a4f28419497f9722a3daafe3b4186f6b6457e0908390a3600080546001600160a01b0319169055565b6104566106f5565b6001600160a01b0316610467610519565b6001600160a01b03161461048d5760405162461bcd60e51b815260040161019b90610970565b816001600160a01b031663a9059cbb6104a4610519565b836040518363ffffffff1660e01b81526004016104c2929190610876565b602060405180830381600087803b1580156104dc57600080fd5b505af11580156104f0573d6000803e3d6000fd5b505050506040513d601f19601f820116820180604052508101906105149190610762565b505050565b6000546001600160a01b031690565b610100810460009081526001602081905260409091205460ff9092161b9081161490565b6105546106f5565b6001600160a01b0316610565610519565b6001600160a01b03161461058b5760405162461bcd60e51b815260040161019b90610970565b6001600160a01b0381166105b15760405162461bcd60e51b815260040161019b906108a3565b600080546040516001600160a01b03808516939216917f8be0079c531659141344cd1fd0a4f28419497f9722a3daafe3b4186f6b6457e091a3600080546001600160a01b0319166001600160a01b0392909216919091179055565b7f000000000000000000000000000000000000000000000000000000000000000081565b600081815b85518110156106c257600086828151811061064c57fe5b6020026020010151905080831161068d57828160405160200161067092919061082c565b6040516020818303038152906040528051906020012092506106b9565b80836040516020016106a092919061082c565b6040516020818303038152906040528051906020012092505b50600101610635565b509092149392505050565b61010081046000908152600160208190526040909120805460ff9093169190911b9091179055565b3390565b80356001600160a01b038116811461071057600080fd5b92915050565b600060208284031215610727578081fd5b61073183836106f9565b9392505050565b6000806040838503121561074a578081fd5b61075484846106f9565b946020939093013593505050565b600060208284031215610773578081fd5b81518015158114610731578182fd5b600060208284031215610793578081fd5b5035919050565b6000806000806000608086880312156107b1578081fd5b853594506107c287602088016106f9565b935060408601359250606086013567ffffffffffffffff808211156107e5578283fd5b818801915088601f8301126107f8578283fd5b813581811115610806578384fd5b8960208083028501011115610819578384fd5b9699959850939650602001949392505050565b918252602082015260400190565b92835260609190911b6bffffffffffffffffffffffff19166020830152603482015260540190565b6001600160a01b0391909116815260200190565b6001600160a01b03929092168252602082015260400190565b901515815260200190565b90815260200190565b60208082526026908201527f4f776e61626c653a206e6577206f776e657220697320746865207a65726f206160408201526564647265737360d01b606082015260800190565b6020808252600f908201526e151c985b9cd9995c8819985a5b1959608a1b604082015260600190565b602080825260149082015273111c9bdc08185b1c9958591e4818db185a5b595960621b604082015260600190565b60208082526016908201527510db185a5b481c195c9a5bd9081a185cc8195b99195960521b604082015260600190565b6020808252818101527f4f776e61626c653a2063616c6c6572206973206e6f7420746865206f776e6572604082015260600190565b6020808252600d908201526c24b73b30b634b210383937b7b360991b604082015260600190565b9283526001600160a01b0391909116602083015260408201526060019056fea2646970667358221220e33c3ab517317c6008a4c1b58962dfccbad885600435f8698b3f3fa11e70c8a864736f6c634300060c0033",
  "immutableReferences": {
    "29613": [
      {
        "length": 32,
        "start": 661
      },
      {
        "length": 32,
        "start": 1550
      }
    ],
    "29616": [
      {
        "length": 32,
        "start": 558
      },
      {
        "length": 32,
        "start": 895
      }
    ],
    "29619": [
      {
        "length": 32,
        "start": 339
      },
      {
        "length": 32,
        "start": 931
      }
    ]
  },
  "source": "// SPDX-License-Identifier: MIT\n\npragma experimental ABIEncoderV2;\npragma solidity 0.6.12;\n\nimport \"@openzeppelin/contracts/token/ERC20/IERC20.sol\";\nimport \"@openzeppelin/contracts/cryptography/MerkleProof.sol\";\nimport \"@openzeppelin/contracts/access/Ownable.sol\";\nimport \"../interfaces/IMerkleDistributor.sol\";\n\ncontract MerkleDistributor is IMerkleDistributor, Ownable {\n  address public immutable override token;\n  bytes32 public immutable override merkleRoot;\n  uint256 public immutable override endTime;\n\n  // This is a packed array of booleans.\n  mapping(uint256 => uint256) private _claimedBitMap;\n\n  constructor(\n    address _token,\n    bytes32 _merkleRoot,\n    uint256 _endTime\n  ) public {\n    token = _token;\n    merkleRoot = _merkleRoot;\n    require(block.timestamp < _endTime, \"Invalid endTime\");\n    endTime = _endTime;\n  }\n\n  /** @dev Modifier to check that claim period is active.*/\n  modifier whenActive() {\n    require(isActive(), \"Claim period has ended\");\n    _;\n  }\n\n  function claim(\n    uint256 _index,\n    address _account,\n    uint256 _amount,\n    bytes32[] calldata merkleProof\n  ) external override whenActive {\n    require(!isClaimed(_index), \"Drop already claimed\");\n\n    // Verify the merkle proof.\n    bytes32 node = keccak256(abi.encodePacked(_index, _account, _amount));\n    require(MerkleProof.verify(merkleProof, merkleRoot, node), \"Invalid proof\");\n\n    // Mark it claimed and send the token.\n    _setClaimed(_index);\n    require(IERC20(token).transfer(_account, _amount), \"Transfer failed\");\n\n    emit Claimed(_index, _account, _amount);\n  }\n\n  function isClaimed(uint256 _index) public view override returns (bool) {\n    uint256 claimedWordIndex = _index / 256;\n    uint256 claimedBitIndex = _index % 256;\n    uint256 claimedWord = _claimedBitMap[claimedWordIndex];\n    uint256 mask = (1 << claimedBitIndex);\n    return claimedWord & mask == mask;\n  }\n\n  function isActive() public view override returns (bool) {\n    return block.timestamp < endTime;\n  }\n\n  function recoverERC20(address _tokenAddress, uint256 _tokenAmount) public onlyOwner {\n    IERC20(_tokenAddress).transfer(owner(), _tokenAmount);\n  }\n\n  function _setClaimed(uint256 _index) private {\n    uint256 claimedWordIndex = _index / 256;\n    uint256 claimedBitIndex = _index % 256;\n    _claimedBitMap[claimedWordIndex] = _claimedBitMap[claimedWordIndex] | (1 << claimedBitIndex);\n  }\n}\n",
  "sourcePath": "/home/mingyue/sub_contract_content/Web3Bugs/contracts/115/core/contracts/upgrade/MerkleDistributor.sol",
  "compiler": {
    "name": "solc",
    "version": "0.6.12+commit.27d51765.Emscripten.clang"
  },
  "schemaVersion": "3.4.7",
  "updatedAt": "2025-02-28T14:09:34.672Z",
  "devdoc": {
    "kind": "dev",
    "methods": {
      "owner()": {
        "details": "Returns the address of the current owner."
      },
      "renounceOwnership()": {
        "details": "Leaves the contract without owner. It will not be possible to call `onlyOwner` functions anymore. Can only be called by the current owner. NOTE: Renouncing ownership will leave the contract without an owner, thereby removing any functionality that is only available to the owner."
      },
      "transferOwnership(address)": {
        "details": "Transfers ownership of the contract to a new account (`newOwner`). Can only be called by the current owner."
      }
    },
    "version": 1
  },
  "userdoc": {
    "kind": "user",
    "methods": {},
    "version": 1
  }
}