{
  "contractName": "MIMODistributor",
  "abi": [
    {
      "inputs": [
        {
          "internalType": "contract IGovernanceAddressProvider",
          "name": "_a",
          "type": "address"
        },
        {
          "internalType": "uint256",
          "name": "_startTime",
          "type": "uint256"
        }
      ],
      "stateMutability": "nonpayable",
      "type": "constructor"
    },
    {
      "anonymous": false,
      "inputs": [
        {
          "indexed": false,
          "internalType": "address",
          "name": "account",
          "type": "address"
        },
        {
          "indexed": false,
          "internalType": "uint256",
          "name": "shares",
          "type": "uint256"
        }
      ],
      "name": "PayeeAdded",
      "type": "event"
    },
    {
      "anonymous": false,
      "inputs": [
        {
          "indexed": false,
          "internalType": "uint256",
          "name": "newTokens",
          "type": "uint256"
        },
        {
          "indexed": false,
          "internalType": "uint256",
          "name": "releasedAt",
          "type": "uint256"
        }
      ],
      "name": "TokensReleased",
      "type": "event"
    },
    {
      "inputs": [],
      "name": "a",
      "outputs": [
        {
          "internalType": "contract IGovernanceAddressProvider",
          "name": "",
          "type": "address"
        }
      ],
      "stateMutability": "view",
      "type": "function"
    },
    {
      "inputs": [
        {
          "internalType": "address[]",
          "name": "_payees",
          "type": "address[]"
        },
        {
          "internalType": "uint256[]",
          "name": "_shares",
          "type": "uint256[]"
        }
      ],
      "name": "changePayees",
      "outputs": [],
      "stateMutability": "nonpayable",
      "type": "function"
    },
    {
      "inputs": [],
      "name": "getPayees",
      "outputs": [
        {
          "internalType": "address[]",
          "name": "",
          "type": "address[]"
        }
      ],
      "stateMutability": "view",
      "type": "function"
    },
    {
      "inputs": [
        {
          "internalType": "uint256",
          "name": "",
          "type": "uint256"
        }
      ],
      "name": "payees",
      "outputs": [
        {
          "internalType": "address",
          "name": "",
          "type": "address"
        }
      ],
      "stateMutability": "view",
      "type": "function"
    },
    {
      "inputs": [],
      "name": "release",
      "outputs": [],
      "stateMutability": "nonpayable",
      "type": "function"
    },
    {
      "inputs": [
        {
          "internalType": "address",
          "name": "",
          "type": "address"
        }
      ],
      "name": "shares",
      "outputs": [
        {
          "internalType": "uint256",
          "name": "",
          "type": "uint256"
        }
      ],
      "stateMutability": "view",
      "type": "function"
    },
    {
      "inputs": [],
      "name": "startTime",
      "outputs": [
        {
          "internalType": "uint256",
          "name": "",
          "type": "uint256"
        }
      ],
      "stateMutability": "view",
      "type": "function"
    },
    {
      "inputs": [],
      "name": "totalShares",
      "outputs": [
        {
          "internalType": "uint256",
          "name": "",
          "type": "uint256"
        }
      ],
      "stateMutability": "view",
      "type": "function"
    },
    {
      "inputs": [],
      "name": "currentIssuance",
      "outputs": [
        {
          "internalType": "uint256",
          "name": "",
          "type": "uint256"
        }
      ],
      "stateMutability": "view",
      "type": "function"
    },
    {
      "inputs": [
        {
          "internalType": "uint256",
          "name": "timestamp",
          "type": "uint256"
        }
      ],
      "name": "weeklyIssuanceAt",
      "outputs": [
        {
          "internalType": "uint256",
          "name": "",
          "type": "uint256"
        }
      ],
      "stateMutability": "view",
      "type": "function"
    },
    {
      "inputs": [],
      "name": "mintableTokens",
      "outputs": [
        {
          "internalType": "uint256",
          "name": "",
          "type": "uint256"
        }
      ],
      "stateMutability": "view",
      "type": "function"
    },
    {
      "inputs": [
        {
          "internalType": "uint256",
          "name": "timestamp",
          "type": "uint256"
        }
      ],
      "name": "totalSupplyAt",
      "outputs": [
        {
          "internalType": "uint256",
          "name": "",
          "type": "uint256"
        }
      ],
      "stateMutability": "view",
      "type": "function"
    }
  ],
  "bytecode": "0x608060405234801561001057600080fd5b5060405161127638038061127683398101604081905261002f9161006b565b6001600160a01b03821661004257600080fd5b600380546001600160a01b0319166001600160a01b0393909316929092179091556004556100a3565b6000806040838503121561007d578182fd5b82516001600160a01b0381168114610093578283fd5b6020939093015192949293505050565b6111c4806100b26000396000f3fe608060405234801561001057600080fd5b50600436106100b45760003560e01c8063981b24d011610071578063981b24d014610126578063acd7af0114610139578063ce7c2ac21461014c578063cf3dfae71461015f578063d404808914610167578063ebcd2a611461016f576100b4565b80630dbe671f146100b957806327f38113146100d75780633a98ef39146100ec57806363037b0c1461010157806378e979251461011457806386d1a69f1461011c575b600080fd5b6100c1610182565b6040516100ce9190610e28565b60405180910390f35b6100df610191565b6040516100ce9190610e55565b6100f46101f3565b6040516100ce919061111b565b6100c161010f366004610e10565b6101f9565b6100f4610220565b610124610226565b005b6100f4610134366004610e10565b6102fd565b610124610147366004610cf9565b6103d1565b6100f461015a366004610cdd565b6106f0565b6100f4610702565b6100f4610811565b6100f461017d366004610e10565b610818565b6003546001600160a01b031681565b606060028054806020026020016040519081016040528092919081815260200182805480156101e957602002820191906000526020600020905b81546001600160a01b031681526001909101906020018083116101cb575b5050505050905090565b60005481565b6002818154811061020657fe5b6000918252602090912001546001600160a01b0316905081565b60045481565b6000610230610702565b90506000811161025b5760405162461bcd60e51b815260040161025290610fb8565b60405180910390fd5b60025461027a5760405162461bcd60e51b815260040161025290611087565b60005b6002548110156102c05760006002828154811061029657fe5b6000918252602090912001546001600160a01b031690506102b78382610870565b5060010161027d565b507f06bfc9e66ca14afa6b27c5211d92e2453d2007b51cd69146f7d2b2b5654cf2b981426040516102f2929190611124565b60405180910390a150565b6000806103156004548461098690919063ffffffff16565b905060006103268262093a806109b3565b905062093a80820660006103386109e5565b90506000610390610355836b030d45a7987b12b880800000610986565b61038a6a2de89507556d846780000061038461037d6b030d45a7987b12b8808000008a6109f5565b8790610986565b90610a4f565b90610a88565b9050600061039d88610818565b905060006103b862093a806103b28488610ab2565b906109b3565b90506103c48382610aec565b9998505050505050505050565b600360009054906101000a90046001600160a01b03166001600160a01b031663f77c47916040518163ffffffff1660e01b815260040160206040518083038186803b15801561041f57600080fd5b505afa158015610433573d6000803e3d6000fd5b505050506040513d601f19601f820116820180604052508101906104579190610df4565b6001600160a01b03166391d14854600360009054906101000a90046001600160a01b03166001600160a01b031663f77c47916040518163ffffffff1660e01b815260040160206040518083038186803b1580156104b357600080fd5b505afa1580156104c7573d6000803e3d6000fd5b505050506040513d601f19601f820116820180604052508101906104eb9190610df4565b6001600160a01b031663ec87621c6040518163ffffffff1660e01b815260040160206040518083038186803b15801561052357600080fd5b505afa158015610537573d6000803e3d6000fd5b505050506040513d601f19601f8201168201806040525081019061055b9190610ddc565b336040518363ffffffff1660e01b8152600401610579929190610ea2565b60206040518083038186803b15801561059157600080fd5b505afa1580156105a5573d6000803e3d6000fd5b505050506040513d601f19601f820116820180604052508101906105c99190610dbc565b6105e55760405162461bcd60e51b815260040161025290611021565b80518251146106065760405162461bcd60e51b8152600401610252906110be565b60008251116106275760405162461bcd60e51b815260040161025290610ef0565b6002541580159061063f5750600061063d610702565b115b1561064c5761064c610226565b60005b60025481101561069757600160006002838154811061066a57fe5b60009182526020808320909101546001600160a01b0316835282019290925260400181205560010161064f565b506106a460026000610c35565b60008080555b82518110156106eb576106e38382815181106106c257fe5b60200260200101518383815181106106d657fe5b6020026020010151610b11565b6001016106aa565b505050565b60016020526000908152604090205481565b600061080c600360009054906101000a90046001600160a01b03166001600160a01b0316636d9b18236040518163ffffffff1660e01b815260040160206040518083038186803b15801561075557600080fd5b505afa158015610769573d6000803e3d6000fd5b505050506040513d601f19601f8201168201806040525081019061078d9190610df4565b6001600160a01b03166318160ddd6040518163ffffffff1660e01b815260040160206040518083038186803b1580156107c557600080fd5b505afa1580156107d9573d6000803e3d6000fd5b505050506040513d601f19601f820116820180604052508101906107fd9190610ddc565b610806426102fd565b90610986565b905090565b600061080c425b6000806108306004548461098690919063ffffffff16565b905060006108418262093a806109b3565b90506108686a2de89507556d84678000006103846b030d45a7987b12b880800000846109f5565b949350505050565b600080546001600160a01b03831682526001602052604082205461089a91906103b2908690610ab2565b9050600360009054906101000a90046001600160a01b03166001600160a01b0316636d9b18236040518163ffffffff1660e01b815260040160206040518083038186803b1580156108ea57600080fd5b505afa1580156108fe573d6000803e3d6000fd5b505050506040513d601f19601f820116820180604052508101906109229190610df4565b6001600160a01b03166340c10f1983836040518363ffffffff1660e01b815260040161094f929190610e3c565b600060405180830381600087803b15801561096957600080fd5b505af115801561097d573d6000803e3d6000fd5b50505050505050565b6000828211156109a85760405162461bcd60e51b815260040161025290610f4a565b508082035b92915050565b60008082116109d45760405162461bcd60e51b815260040161025290610f81565b8183816109dd57fe5b049392505050565b6b033b2e3c9fd0803ce800000090565b600060028206610a11576b033b2e3c9fd0803ce8000000610a13565b825b90506002820491505b81156109ad57610a2c8384610a4f565b92506002820615610a4457610a418184610a4f565b90505b600282049150610a1c565b6000610a816b033b2e3c9fd0803ce80000006103b2610a6e8686610ab2565b6b019d971e4fe8401e7400000090610aec565b9392505050565b600060028204610868836103b2610aab876b033b2e3c9fd0803ce8000000610ab2565b8490610aec565b600082610ac1575060006109ad565b82820282848281610ace57fe5b0414610a815760405162461bcd60e51b815260040161025290610fe0565b600082820183811015610a815760405162461bcd60e51b815260040161025290610eb9565b6001600160a01b038216610b375760405162461bcd60e51b815260040161025290611050565b60008111610b575760405162461bcd60e51b8152600401610252906110f5565b6001600160a01b03821660009081526001602052604090205415610b8d5760405162461bcd60e51b815260040161025290610f13565b6002805460018082019092557f405787fa12a823e0f2b7631cc41b3ba8828b3321ca811111fa75cd3aa3bb5ace0180546001600160a01b0319166001600160a01b03851690811790915560009081526020919091526040812082905554610bf49082610aec565b6000556040517f40c340f65e17194d14ddddb073d3c9f888e3cb52b5aae0c6c7706b4fbc905fac90610c299084908490610e3c565b60405180910390a15050565b5080546000825590600052602060002090810190610c539190610c56565b50565b5b80821115610c6b5760008155600101610c57565b5090565b600082601f830112610c7f578081fd5b8135610c92610c8d82611159565b611132565b818152915060208083019084810181840286018201871015610cb357600080fd5b60005b84811015610cd257813584529282019290820190600101610cb6565b505050505092915050565b600060208284031215610cee578081fd5b8135610a8181611179565b60008060408385031215610d0b578081fd5b823567ffffffffffffffff80821115610d22578283fd5b818501915085601f830112610d35578283fd5b8135610d43610c8d82611159565b80828252602080830192508086018a828387028901011115610d63578788fd5b8796505b84871015610d8e578035610d7a81611179565b845260019690960195928101928101610d67565b509096508701359350505080821115610da5578283fd5b50610db285828601610c6f565b9150509250929050565b600060208284031215610dcd578081fd5b81518015158114610a81578182fd5b600060208284031215610ded578081fd5b5051919050565b600060208284031215610e05578081fd5b8151610a8181611179565b600060208284031215610e21578081fd5b5035919050565b6001600160a01b0391909116815260200190565b6001600160a01b03929092168252602082015260400190565b6020808252825182820181905260009190848201906040850190845b81811015610e965783516001600160a01b031683529284019291840191600101610e71565b50909695505050505050565b9182526001600160a01b0316602082015260400190565b6020808252601b908201527f536166654d6174683a206164646974696f6e206f766572666c6f770000000000604082015260600190565b6020808252600990820152684e6f2070617965657360b81b604082015260600190565b60208082526018908201527f706179656520616c726561647920686173207368617265730000000000000000604082015260600190565b6020808252601e908201527f536166654d6174683a207375627472616374696f6e206f766572666c6f770000604082015260600190565b6020808252601a908201527f536166654d6174683a206469766973696f6e206279207a65726f000000000000604082015260600190565b6020808252600e908201526d06e6577546f6b656e7320697320360941b604082015260600190565b60208082526021908201527f536166654d6174683a206d756c7469706c69636174696f6e206f766572666c6f6040820152607760f81b606082015260800190565b60208082526015908201527421b0b63632b91034b9903737ba1026b0b730b3b2b960591b604082015260600190565b60208082526019908201527f706179656520697320746865207a65726f206164647265737300000000000000604082015260600190565b60208082526019908201527f506179656573206e6f7420636f6e666967757265642079657400000000000000604082015260600190565b6020808252601c908201527f50617965657320616e6420736861726573206d69736d61746368656400000000604082015260600190565b6020808252600c908201526b07368617265732061726520360a41b604082015260600190565b90815260200190565b918252602082015260400190565b60405181810167ffffffffffffffff8111828210171561115157600080fd5b604052919050565b600067ffffffffffffffff82111561116f578081fd5b5060209081020190565b6001600160a01b0381168114610c5357600080fdfea2646970667358221220870b3e98e1769c2a6f2581da8206eb3bb88204a9994a353f010ba02c35f301d564736f6c634300060c0033",
  "immutableReferences": {},
  "source": "// SPDX-License-Identifier: MIT\n\npragma experimental ABIEncoderV2;\npragma solidity 0.6.12;\n\nimport \"@openzeppelin/contracts/math/SafeMath.sol\";\nimport \"../libraries/WadRayMath.sol\";\nimport \"../governance/interfaces/IGovernanceAddressProvider.sol\";\nimport \"./interfaces/IMIMODistributor.sol\";\nimport \"./BaseDistributor.sol\";\n\n/*\n  \tDistribution Formula:\n  \t55.5m MIMO in first week\n  \t-5.55% redution per week\n\n  \ttotal(timestamp) = _SECONDS_PER_WEEK * ( (1-_WEEKLY_R^(timestamp/_SECONDS_PER_WEEK)) / (1-_WEEKLY_R) )\n  \t\t+ timestamp % _SECONDS_PER_WEEK * (1-_WEEKLY_R^(timestamp/_SECONDS_PER_WEEK)\n  */\n\ncontract MIMODistributor is BaseDistributor, IMIMODistributorExtension {\n  using SafeMath for uint256;\n  using WadRayMath for uint256;\n\n  uint256 private constant _SECONDS_PER_YEAR = 365 days;\n  uint256 private constant _SECONDS_PER_WEEK = 7 days;\n  uint256 private constant _WEEKLY_R = 9445e23; //-5.55%\n  uint256 private constant _FIRST_WEEK_TOKENS = 55500000 ether; //55.5m\n\n  uint256 public override startTime;\n\n  constructor(IGovernanceAddressProvider _a, uint256 _startTime) public {\n    require(address(_a) != address(0));\n\n    a = _a;\n    startTime = _startTime;\n  }\n\n  /**\n    Get current monthly issuance of new MIMO tokens.\n    @return number of monthly issued tokens currently`.\n  */\n  function currentIssuance() public view override returns (uint256) {\n    return weeklyIssuanceAt(now);\n  }\n\n  /**\n    Get monthly issuance of new MIMO tokens at `timestamp`.\n    @dev invalid for timestamps before deployment\n    @param timestamp for which to calculate the monthly issuance\n    @return number of monthly issued tokens at `timestamp`.\n  */\n  function weeklyIssuanceAt(uint256 timestamp) public view override returns (uint256) {\n    uint256 elapsedSeconds = timestamp.sub(startTime);\n    uint256 elapsedWeeks = elapsedSeconds.div(_SECONDS_PER_WEEK);\n    return _WEEKLY_R.rayPow(elapsedWeeks).rayMul(_FIRST_WEEK_TOKENS);\n  }\n\n  /**\n    Calculates how many MIMO tokens can be minted since the last time tokens were minted\n    @return number of mintable tokens available right now.\n  */\n  function mintableTokens() public view override returns (uint256) {\n    return totalSupplyAt(now).sub(a.mimo().totalSupply());\n  }\n\n  /**\n    Calculates the totalSupply for any point after `startTime`\n    @param timestamp for which to calculate the totalSupply\n    @return totalSupply at timestamp.\n  */\n  function totalSupplyAt(uint256 timestamp) public view override returns (uint256) {\n    uint256 elapsedSeconds = timestamp.sub(startTime);\n    uint256 elapsedWeeks = elapsedSeconds.div(_SECONDS_PER_WEEK);\n    uint256 lastWeekSeconds = elapsedSeconds % _SECONDS_PER_WEEK;\n    uint256 one = WadRayMath.ray();\n    uint256 fullWeeks = one.sub(_WEEKLY_R.rayPow(elapsedWeeks)).rayMul(_FIRST_WEEK_TOKENS).rayDiv(one.sub(_WEEKLY_R));\n    uint256 currentWeekIssuance = weeklyIssuanceAt(timestamp);\n    uint256 partialWeek = currentWeekIssuance.mul(lastWeekSeconds).div(_SECONDS_PER_WEEK);\n    return fullWeeks.add(partialWeek);\n  }\n\n  /**\n    Internal function to release a percentage of newTokens to a specific payee\n    @dev uses totalShares to calculate correct share\n    @param _totalnewTokensReceived Total newTokens for all payees, will be split according to shares\n    @param _payee The address of the payee to whom to distribute the fees.\n  */\n  function _release(uint256 _totalnewTokensReceived, address _payee) internal override {\n    uint256 payment = _totalnewTokensReceived.mul(shares[_payee]).div(totalShares);\n    a.mimo().mint(_payee, payment);\n  }\n}\n",
  "sourcePath": "/home/mingyue/sub_contract_content/Web3Bugs/contracts/115/core/contracts/liquidityMining/MIMODistributor.sol",
  "compiler": {
    "name": "solc",
    "version": "0.6.12+commit.27d51765.Emscripten.clang"
  },
  "schemaVersion": "3.4.7",
  "updatedAt": "2025-02-28T14:09:34.647Z",
  "devdoc": {
    "kind": "dev",
    "methods": {
      "changePayees(address[],uint256[])": {
        "details": "will release existing fees before the update.",
        "params": {
          "_payees": "Array of payees",
          "_shares": "Array of shares for each payee"
        }
      },
      "currentIssuance()": {
        "returns": {
          "_0": "number of monthly issued tokens currently`."
        }
      },
      "getPayees()": {
        "returns": {
          "_0": "array of current payees."
        }
      },
      "mintableTokens()": {
        "returns": {
          "_0": "number of mintable tokens available right now."
        }
      },
      "release()": {
        "details": "anyone can call this."
      },
      "totalSupplyAt(uint256)": {
        "params": {
          "timestamp": "for which to calculate the totalSupply"
        },
        "returns": {
          "_0": "totalSupply at timestamp."
        }
      },
      "weeklyIssuanceAt(uint256)": {
        "details": "invalid for timestamps before deployment",
        "params": {
          "timestamp": "for which to calculate the monthly issuance"
        },
        "returns": {
          "_0": "number of monthly issued tokens at `timestamp`."
        }
      }
    },
    "version": 1
  },
  "userdoc": {
    "kind": "user",
    "methods": {
      "changePayees(address[],uint256[])": {
        "notice": "Updates the payee configuration to a new one."
      },
      "currentIssuance()": {
        "notice": "Get current monthly issuance of new MIMO tokens."
      },
      "getPayees()": {
        "notice": "Get current configured payees."
      },
      "mintableTokens()": {
        "notice": "Calculates how many MIMO tokens can be minted since the last time tokens were minted"
      },
      "release()": {
        "notice": "Public function to release the accumulated new MIMO tokens to the payees."
      },
      "totalSupplyAt(uint256)": {
        "notice": "Calculates the totalSupply for any point after `startTime`"
      },
      "weeklyIssuanceAt(uint256)": {
        "notice": "Get monthly issuance of new MIMO tokens at `timestamp`."
      }
    },
    "version": 1
  }
}