{
  "contractName": "MIMODeployment",
  "abi": [
    {
      "inputs": [
        {
          "internalType": "contract IGovernanceAddressProvider",
          "name": "_ga",
          "type": "address"
        },
        {
          "internalType": "contract IMIMO",
          "name": "_mimo",
          "type": "address"
        },
        {
          "internalType": "contract IMIMODistributor",
          "name": "_mimoDistributor",
          "type": "address"
        },
        {
          "internalType": "contract ISupplyMiner",
          "name": "_wethSupplyMiner",
          "type": "address"
        },
        {
          "internalType": "contract ISupplyMiner",
          "name": "_wbtcSupplyMiner",
          "type": "address"
        },
        {
          "internalType": "contract ISupplyMiner",
          "name": "_usdcSupplyMiner",
          "type": "address"
        },
        {
          "internalType": "contract IDemandMiner",
          "name": "_demandMiner",
          "type": "address"
        },
        {
          "internalType": "contract IDebtNotifier",
          "name": "_debtNotifier",
          "type": "address"
        },
        {
          "internalType": "contract IVotingEscrow",
          "name": "_votingEscrow",
          "type": "address"
        },
        {
          "internalType": "address",
          "name": "_weth",
          "type": "address"
        },
        {
          "internalType": "address",
          "name": "_wbtc",
          "type": "address"
        },
        {
          "internalType": "address",
          "name": "_usdc",
          "type": "address"
        }
      ],
      "stateMutability": "nonpayable",
      "type": "constructor"
    },
    {
      "inputs": [],
      "name": "debtNotifier",
      "outputs": [
        {
          "internalType": "contract IDebtNotifier",
          "name": "",
          "type": "address"
        }
      ],
      "stateMutability": "view",
      "type": "function"
    },
    {
      "inputs": [],
      "name": "demandMiner",
      "outputs": [
        {
          "internalType": "contract IDemandMiner",
          "name": "",
          "type": "address"
        }
      ],
      "stateMutability": "view",
      "type": "function"
    },
    {
      "inputs": [],
      "name": "ga",
      "outputs": [
        {
          "internalType": "contract IGovernanceAddressProvider",
          "name": "",
          "type": "address"
        }
      ],
      "stateMutability": "view",
      "type": "function"
    },
    {
      "inputs": [],
      "name": "mimo",
      "outputs": [
        {
          "internalType": "contract IMIMO",
          "name": "",
          "type": "address"
        }
      ],
      "stateMutability": "view",
      "type": "function"
    },
    {
      "inputs": [],
      "name": "mimoDistributor",
      "outputs": [
        {
          "internalType": "contract IMIMODistributor",
          "name": "",
          "type": "address"
        }
      ],
      "stateMutability": "view",
      "type": "function"
    },
    {
      "inputs": [],
      "name": "usdc",
      "outputs": [
        {
          "internalType": "address",
          "name": "",
          "type": "address"
        }
      ],
      "stateMutability": "view",
      "type": "function"
    },
    {
      "inputs": [],
      "name": "usdcSupplyMiner",
      "outputs": [
        {
          "internalType": "contract ISupplyMiner",
          "name": "",
          "type": "address"
        }
      ],
      "stateMutability": "view",
      "type": "function"
    },
    {
      "inputs": [],
      "name": "votingEscrow",
      "outputs": [
        {
          "internalType": "contract IVotingEscrow",
          "name": "",
          "type": "address"
        }
      ],
      "stateMutability": "view",
      "type": "function"
    },
    {
      "inputs": [],
      "name": "wbtc",
      "outputs": [
        {
          "internalType": "address",
          "name": "",
          "type": "address"
        }
      ],
      "stateMutability": "view",
      "type": "function"
    },
    {
      "inputs": [],
      "name": "wbtcSupplyMiner",
      "outputs": [
        {
          "internalType": "contract ISupplyMiner",
          "name": "",
          "type": "address"
        }
      ],
      "stateMutability": "view",
      "type": "function"
    },
    {
      "inputs": [],
      "name": "weth",
      "outputs": [
        {
          "internalType": "address",
          "name": "",
          "type": "address"
        }
      ],
      "stateMutability": "view",
      "type": "function"
    },
    {
      "inputs": [],
      "name": "wethSupplyMiner",
      "outputs": [
        {
          "internalType": "contract ISupplyMiner",
          "name": "",
          "type": "address"
        }
      ],
      "stateMutability": "view",
      "type": "function"
    },
    {
      "inputs": [],
      "name": "setup",
      "outputs": [],
      "stateMutability": "nonpayable",
      "type": "function"
    }
  ],
  "bytecode": "0x60806040523480156200001157600080fd5b5060405162000ed938038062000ed9833981016040819052620000349162000207565b6001600160a01b038c166200004857600080fd5b6001600160a01b038b166200005c57600080fd5b6001600160a01b038a166200007057600080fd5b6001600160a01b0389166200008457600080fd5b6001600160a01b0388166200009857600080fd5b6001600160a01b038716620000ac57600080fd5b6001600160a01b038616620000c057600080fd5b6001600160a01b038516620000d457600080fd5b6001600160a01b038416620000e857600080fd5b6001600160a01b038316620000fc57600080fd5b6001600160a01b0382166200011057600080fd5b6001600160a01b0381166200012457600080fd5b600080546001600160a01b03199081166001600160a01b039e8f16179091556001805482169c8e169c909c17909b55600280548c169a8d169a909a17909955600380548b16988c1698909817909755600480548a16968b1696909617909555600580548916948a169490941790935560068054881692891692909217909155600780548716918816919091179055600880548616918716919091179055600980548516918616919091179055600a80548416918516919091179055600b805490921692169190911790556200032b565b8051620002018162000312565b92915050565b6000806000806000806000806000806000806101808d8f0312156200022a578788fd5b8c51620002378162000312565b60208e0151909c506200024a8162000312565b60408e0151909b506200025d8162000312565b60608e0151909a50620002708162000312565b60808e0151909950620002838162000312565b60a08e0151909850620002968162000312565b9650620002a78e60c08f01620001f4565b9550620002b88e60e08f01620001f4565b9450620002ca8e6101008f01620001f4565b9350620002dc8e6101208f01620001f4565b9250620002ee8e6101408f01620001f4565b9150620003008e6101608f01620001f4565b90509295989b509295989b509295989b565b6001600160a01b03811681146200032857600080fd5b50565b610b9e806200033b6000396000f3fe608060405234801561001057600080fd5b50600436106100cf5760003560e01c80634f2bfe5b1161008c578063bd1b714611610066578063bd1b714614610134578063bedc40661461013c578063c6a4ac6414610144578063d1a8d95e1461014c576100cf565b80634f2bfe5b1461011a5780636d9b182314610122578063ba0bba401461012a576100cf565b806304b0e95a146100d45780631301d0f3146100f25780633213de14146100fa5780633cdc5389146101025780633e413bee1461010a5780633fc8cef314610112575b600080fd5b6100dc610154565b6040516100e99190610a5d565b60405180910390f35b6100dc610163565b6100dc610172565b6100dc610181565b6100dc610190565b6100dc61019f565b6100dc6101ae565b6100dc6101bd565b6101326101cc565b005b6100dc6109a6565b6100dc6109b5565b6100dc6109c4565b6100dc6109d3565b6002546001600160a01b031681565b6005546001600160a01b031681565b6004546001600160a01b031681565b600a546001600160a01b031681565b600b546001600160a01b031681565b6009546001600160a01b031681565b6008546001600160a01b031681565b6001546001600160a01b031681565b60008054906101000a90046001600160a01b03166001600160a01b031663f77c47916040518163ffffffff1660e01b815260040160206040518083038186803b15801561021857600080fd5b505afa15801561022c573d6000803e3d6000fd5b505050506040513d601f19601f820116820180604052508101906102509190610a21565b6001600160a01b03166391d1485460008054906101000a90046001600160a01b03166001600160a01b031663f77c47916040518163ffffffff1660e01b815260040160206040518083038186803b1580156102aa57600080fd5b505afa1580156102be573d6000803e3d6000fd5b505050506040513d601f19601f820116820180604052508101906102e29190610a21565b6001600160a01b031663ec87621c6040518163ffffffff1660e01b815260040160206040518083038186803b15801561031a57600080fd5b505afa15801561032e573d6000803e3d6000fd5b505050506040513d601f19601f820116820180604052508101906103529190610a09565b336040518363ffffffff1660e01b8152600401610370929190610b19565b60206040518083038186803b15801561038857600080fd5b505afa15801561039c573d6000803e3d6000fd5b505050506040513d601f19601f820116820180604052508101906103c091906109e2565b6103e55760405162461bcd60e51b81526004016103dc90610b30565b60405180910390fd5b6000546001546040516325cb67e760e21b81526001600160a01b039283169263972d9f9c9261041992911690600401610a5d565b600060405180830381600087803b15801561043357600080fd5b505af1158015610447573d6000803e3d6000fd5b505060005460085460405163672f649760e11b81526001600160a01b03928316945063ce5ec92e93506104809290911690600401610a5d565b600060405180830381600087803b15801561049a57600080fd5b505af11580156104ae573d6000803e3d6000fd5b5050600754600954600354604051631acdcd4f60e31b81526001600160a01b03938416955063d66e6a7894506104ee939283169290911690600401610a71565b600060405180830381600087803b15801561050857600080fd5b505af115801561051c573d6000803e3d6000fd5b5050600754600a5460048054604051631acdcd4f60e31b81526001600160a01b03948516965063d66e6a78955061055b94938416939091169101610a71565b600060405180830381600087803b15801561057557600080fd5b505af1158015610589573d6000803e3d6000fd5b5050600754600b54600554604051631acdcd4f60e31b81526001600160a01b03938416955063d66e6a7894506105c9939283169290911690600401610a71565b600060405180830381600087803b1580156105e357600080fd5b505af11580156105f7573d6000803e3d6000fd5b505060408051600480825260a0820190925260609350915060208201608080368337505060035482519293506001600160a01b03169183915060009061063957fe5b6001600160a01b03928316602091820292909201015260045482519116908290600190811061066457fe5b6001600160a01b03928316602091820292909201015260055482519116908290600290811061068f57fe5b6001600160a01b0392831660209182029290920101526006548251911690829060039081106106ba57fe5b6001600160a01b039290921660209283029190910182015260408051600480825260a08201909252606092909190820160808036833701905050905060148160008151811061070557fe5b60200260200101818152505060198160018151811061072057fe5b60200260200101818152505060058160028151811061073b57fe5b60200260200101818152505060328160038151811061075657fe5b602090810291909101015260025460405163acd7af0160e01b81526001600160a01b039091169063acd7af01906107939085908590600401610a8b565b600060405180830381600087803b1580156107ad57600080fd5b505af11580156107c1573d6000803e3d6000fd5b5050505060008060009054906101000a90046001600160a01b03166001600160a01b031663f77c47916040518163ffffffff1660e01b815260040160206040518083038186803b15801561081457600080fd5b505afa158015610828573d6000803e3d6000fd5b505050506040513d601f19601f8201168201806040525081019061084c9190610a21565b6001600160a01b031663ec87621c6040518163ffffffff1660e01b815260040160206040518083038186803b15801561088457600080fd5b505afa158015610898573d6000803e3d6000fd5b505050506040513d601f19601f820116820180604052508101906108bc9190610a09565b905060008054906101000a90046001600160a01b03166001600160a01b031663f77c47916040518163ffffffff1660e01b815260040160206040518083038186803b15801561090a57600080fd5b505afa15801561091e573d6000803e3d6000fd5b505050506040513d601f19601f820116820180604052508101906109429190610a21565b6001600160a01b03166336568abe82306040518363ffffffff1660e01b815260040161096f929190610b19565b600060405180830381600087803b15801561098957600080fd5b505af115801561099d573d6000803e3d6000fd5b50505050505050565b6007546001600160a01b031681565b6000546001600160a01b031681565b6006546001600160a01b031681565b6003546001600160a01b031681565b6000602082840312156109f3578081fd5b81518015158114610a02578182fd5b9392505050565b600060208284031215610a1a578081fd5b5051919050565b600060208284031215610a32578081fd5b81516001600160a01b0381168114610a02578182fd5b815260200190565b6001600160a01b03169052565b6001600160a01b0391909116815260200190565b6001600160a01b0392831681529116602082015260400190565b604080825283519082018190526000906020906060840190828701845b82811015610acb57610abb848351610a50565b9284019290840190600101610aa8565b50505083810382850152808551610ae28184610b5f565b91508387019250845b81811015610b0c57610afe838551610a48565b938501939250600101610aeb565b5090979650505050505050565b9182526001600160a01b0316602082015260400190565b60208082526015908201527421b0b63632b91034b9903737ba1026b0b730b3b2b960591b604082015260600190565b9081526020019056fea26469706673582212209ad9ef9a0708e4402a410982b01638f7f7b5080d49994590afc69465a00407f264736f6c634300060c0033",
  "immutableReferences": {},
  "source": "// SPDX-License-Identifier: MIT\n\npragma experimental ABIEncoderV2;\npragma solidity 0.6.12;\n\nimport \"@openzeppelin/contracts/math/SafeMath.sol\";\nimport \"../liquidityMining/interfaces/IMIMO.sol\";\nimport \"../liquidityMining/interfaces/IMIMODistributor.sol\";\nimport \"../liquidityMining/interfaces/ISupplyMiner.sol\";\nimport \"../liquidityMining/interfaces/IDemandMiner.sol\";\nimport \"../liquidityMining/interfaces/IDebtNotifier.sol\";\nimport \"../libraries/WadRayMath.sol\";\nimport \"../governance/interfaces/IGovernanceAddressProvider.sol\";\nimport \"../governance/interfaces/IVotingEscrow.sol\";\nimport \"../interfaces/IAddressProvider.sol\";\n\ncontract MIMODeployment {\n  IGovernanceAddressProvider public ga;\n  IMIMO public mimo;\n  IMIMODistributor public mimoDistributor;\n  ISupplyMiner public wethSupplyMiner;\n  ISupplyMiner public wbtcSupplyMiner;\n  ISupplyMiner public usdcSupplyMiner;\n  IDemandMiner public demandMiner;\n  IDebtNotifier public debtNotifier;\n  IVotingEscrow public votingEscrow;\n\n  address public weth;\n  address public wbtc;\n  address public usdc;\n\n  modifier onlyManager() {\n    require(ga.controller().hasRole(ga.controller().MANAGER_ROLE(), msg.sender), \"Caller is not Manager\");\n    _;\n  }\n\n  constructor(\n    IGovernanceAddressProvider _ga,\n    IMIMO _mimo,\n    IMIMODistributor _mimoDistributor,\n    ISupplyMiner _wethSupplyMiner,\n    ISupplyMiner _wbtcSupplyMiner,\n    ISupplyMiner _usdcSupplyMiner,\n    IDemandMiner _demandMiner,\n    IDebtNotifier _debtNotifier,\n    IVotingEscrow _votingEscrow,\n    address _weth,\n    address _wbtc,\n    address _usdc\n  ) public {\n    require(address(_ga) != address(0));\n    require(address(_mimo) != address(0));\n    require(address(_mimoDistributor) != address(0));\n    require(address(_wethSupplyMiner) != address(0));\n    require(address(_wbtcSupplyMiner) != address(0));\n    require(address(_usdcSupplyMiner) != address(0));\n    require(address(_demandMiner) != address(0));\n    require(address(_debtNotifier) != address(0));\n    require(address(_votingEscrow) != address(0));\n    require(_weth != address(0));\n    require(_wbtc != address(0));\n    require(_usdc != address(0));\n\n    ga = _ga;\n    mimo = _mimo;\n    mimoDistributor = _mimoDistributor;\n    wethSupplyMiner = _wethSupplyMiner;\n    wbtcSupplyMiner = _wbtcSupplyMiner;\n    usdcSupplyMiner = _usdcSupplyMiner;\n    demandMiner = _demandMiner;\n    debtNotifier = _debtNotifier;\n    votingEscrow = _votingEscrow;\n\n    weth = _weth;\n    wbtc = _wbtc;\n    usdc = _usdc;\n  }\n\n  function setup() public onlyManager {\n    //IAddressProvider parallel = a.parallel();\n\n    //bytes32 MIMO_MINTER_ROLE = keccak256(\"MIMO_MINTER_ROLE\");\n    //bytes32 DEFAULT_ADMIN_ROLE = 0x0000000000000000000000000000000000000000000000000000000000000000;\n\n    ga.setMIMO(mimo);\n    ga.setVotingEscrow(votingEscrow);\n\n    debtNotifier.setCollateralSupplyMiner(weth, wethSupplyMiner);\n    debtNotifier.setCollateralSupplyMiner(wbtc, wbtcSupplyMiner);\n    debtNotifier.setCollateralSupplyMiner(usdc, usdcSupplyMiner);\n\n    address[] memory payees = new address[](4);\n    payees[0] = address(wethSupplyMiner);\n    payees[1] = address(wbtcSupplyMiner);\n    payees[2] = address(usdcSupplyMiner);\n    payees[3] = address(demandMiner);\n    uint256[] memory shares = new uint256[](4);\n    shares[0] = uint256(20);\n    shares[1] = uint256(25);\n    shares[2] = uint256(5);\n    shares[3] = uint256(50);\n    mimoDistributor.changePayees(payees, shares);\n\n    bytes32 MANAGER_ROLE = ga.controller().MANAGER_ROLE();\n    ga.controller().renounceRole(MANAGER_ROLE, address(this));\n  }\n}\n",
  "sourcePath": "/home/mingyue/sub_contract_content/Web3Bugs/contracts/115/core/contracts/upgrade/MIMODeployment.sol",
  "compiler": {
    "name": "solc",
    "version": "0.6.12+commit.27d51765.Emscripten.clang"
  },
  "schemaVersion": "3.4.7",
  "updatedAt": "2025-02-28T14:09:34.671Z",
  "devdoc": {
    "kind": "dev",
    "methods": {},
    "version": 1
  },
  "userdoc": {
    "kind": "user",
    "methods": {},
    "version": 1
  }
}