{
  "contractName": "MIMOBuybackUniswapV2",
  "abi": [
    {
      "inputs": [
        {
          "internalType": "uint256",
          "name": "_lockExpiry",
          "type": "uint256"
        },
        {
          "internalType": "address",
          "name": "_router",
          "type": "address"
        },
        {
          "internalType": "address",
          "name": "_a",
          "type": "address"
        },
        {
          "internalType": "address",
          "name": "_mimo",
          "type": "address"
        }
      ],
      "stateMutability": "nonpayable",
      "type": "constructor"
    },
    {
      "inputs": [],
      "name": "KEEPER_ROLE",
      "outputs": [
        {
          "internalType": "bytes32",
          "name": "",
          "type": "bytes32"
        }
      ],
      "stateMutability": "view",
      "type": "function"
    },
    {
      "inputs": [],
      "name": "MIMO",
      "outputs": [
        {
          "internalType": "contract IERC20",
          "name": "",
          "type": "address"
        }
      ],
      "stateMutability": "view",
      "type": "function"
    },
    {
      "inputs": [],
      "name": "PAR",
      "outputs": [
        {
          "internalType": "contract IERC20",
          "name": "",
          "type": "address"
        }
      ],
      "stateMutability": "view",
      "type": "function"
    },
    {
      "inputs": [],
      "name": "a",
      "outputs": [
        {
          "internalType": "contract IAddressProvider",
          "name": "",
          "type": "address"
        }
      ],
      "stateMutability": "view",
      "type": "function"
    },
    {
      "inputs": [],
      "name": "lockExpiry",
      "outputs": [
        {
          "internalType": "uint256",
          "name": "",
          "type": "uint256"
        }
      ],
      "stateMutability": "view",
      "type": "function"
    },
    {
      "inputs": [],
      "name": "router",
      "outputs": [
        {
          "internalType": "contract IUniswapV2Router02",
          "name": "",
          "type": "address"
        }
      ],
      "stateMutability": "view",
      "type": "function"
    },
    {
      "inputs": [],
      "name": "whitelistEnabled",
      "outputs": [
        {
          "internalType": "bool",
          "name": "",
          "type": "bool"
        }
      ],
      "stateMutability": "view",
      "type": "function"
    },
    {
      "inputs": [
        {
          "internalType": "address",
          "name": "destination",
          "type": "address"
        }
      ],
      "name": "withdrawMIMO",
      "outputs": [],
      "stateMutability": "nonpayable",
      "type": "function"
    },
    {
      "inputs": [],
      "name": "buyMIMO",
      "outputs": [],
      "stateMutability": "nonpayable",
      "type": "function"
    },
    {
      "inputs": [
        {
          "internalType": "bool",
          "name": "_status",
          "type": "bool"
        }
      ],
      "name": "setWhitelistEnabled",
      "outputs": [],
      "stateMutability": "nonpayable",
      "type": "function"
    }
  ],
  "bytecode": "0x60806040526004805460ff60a01b191690553480156200001e57600080fd5b50604051620011bb380380620011bb8339810160408190526200004191620001f0565b6003849055600080546001600160a01b038085166001600160a01b0319928316179283905560028054858316931692909217909155604080516316d8a5a960e01b8152905192909116916316d8a5a991600480820192602092909190829003018186803b158015620000b257600080fd5b505afa158015620000c7573d6000803e3d6000fd5b505050506040513d601f19601f82011682018060405250810190620000ed9190620001d1565b600180546001600160a01b03199081166001600160a01b039384161791829055600480549091168684161780825560405163095ea7b360e01b81529284169363095ea7b3936200014793929091169160001991016200024b565b602060405180830381600087803b1580156200016257600080fd5b505af115801562000177573d6000803e3d6000fd5b505050506040513d601f19601f820116820180604052508101906200019d9190620001a8565b50505050506200027d565b600060208284031215620001ba578081fd5b81518015158114620001ca578182fd5b9392505050565b600060208284031215620001e3578081fd5b8151620001ca8162000264565b6000806000806080858703121562000206578283fd5b8451935060208501516200021a8162000264565b60408601519093506200022d8162000264565b6060860151909250620002408162000264565b939692955090935050565b6001600160a01b03929092168252602082015260400190565b6001600160a01b03811681146200027a57600080fd5b50565b610f2e806200028d6000396000f3fe608060405234801561001057600080fd5b506004361061009e5760003560e01c80637552118e116100665780637552118e1461010857806391951c2514610110578063a00e07c414610118578063f3715a4b14610120578063f887ea40146101335761009e565b8063052d9e7e146100a35780630dbe671f146100b8578063364bc15a146100d657806341b519da146100eb57806351fb012d146100f3575b600080fd5b6100b66100b1366004610cc5565b61013b565b005b6100c0610372565b6040516100cd9190610d31565b60405180910390f35b6100de610381565b6040516100cd9190610d69565b6100c06103a5565b6100fb6103b4565b6040516100cd9190610d5e565b6100b66103c4565b6100de6108b3565b6100c06108b9565b6100b661012e366004610c0d565b6108c8565b6100c0610bfe565b60008054906101000a90046001600160a01b03166001600160a01b031663f77c47916040518163ffffffff1660e01b815260040160206040518083038186803b15801561018757600080fd5b505afa15801561019b573d6000803e3d6000fd5b505050506040513d601f19601f820116820180604052508101906101bf9190610d15565b6001600160a01b03166391d1485460008054906101000a90046001600160a01b03166001600160a01b031663f77c47916040518163ffffffff1660e01b815260040160206040518083038186803b15801561021957600080fd5b505afa15801561022d573d6000803e3d6000fd5b505050506040513d601f19601f820116820180604052508101906102519190610d15565b6001600160a01b031663ec87621c6040518163ffffffff1660e01b815260040160206040518083038186803b15801561028957600080fd5b505afa15801561029d573d6000803e3d6000fd5b505050506040513d601f19601f820116820180604052508101906102c19190610cfd565b336040518363ffffffff1660e01b81526004016102df929190610d72565b60206040518083038186803b1580156102f757600080fd5b505afa15801561030b573d6000803e3d6000fd5b505050506040513d601f19601f8201168201806040525081019061032f9190610ce1565b6103545760405162461bcd60e51b815260040161034b90610db9565b60405180910390fd5b60048054911515600160a01b0260ff60a01b19909216919091179055565b6000546001600160a01b031681565b7ffc8737ab85eb45125971625a9ebdb75cc78e01d5c1fa80c4c6e5203f47bc4fab81565b6001546001600160a01b031681565b600454600160a01b900460ff1681565b600454600160a01b900460ff1615806104f9575060008054906101000a90046001600160a01b03166001600160a01b031663f77c47916040518163ffffffff1660e01b815260040160206040518083038186803b15801561042457600080fd5b505afa158015610438573d6000803e3d6000fd5b505050506040513d601f19601f8201168201806040525081019061045c9190610d15565b6001600160a01b03166391d148547ffc8737ab85eb45125971625a9ebdb75cc78e01d5c1fa80c4c6e5203f47bc4fab336040518363ffffffff1660e01b81526004016104a9929190610d72565b60206040518083038186803b1580156104c157600080fd5b505afa1580156104d5573d6000803e3d6000fd5b505050506040513d601f19601f820116820180604052508101906104f99190610ce1565b6105155760405162461bcd60e51b815260040161034b90610d89565b60008054906101000a90046001600160a01b03166001600160a01b031663f2f4eb266040518163ffffffff1660e01b815260040160206040518083038186803b15801561056157600080fd5b505afa158015610575573d6000803e3d6000fd5b505050506040513d601f19601f820116820180604052508101906105999190610d15565b6001600160a01b031663c19d93fb6040518163ffffffff1660e01b815260040160206040518083038186803b1580156105d157600080fd5b505afa1580156105e5573d6000803e3d6000fd5b505050506040513d601f19601f820116820180604052508101906106099190610d15565b6001600160a01b031663f8ac93e86040518163ffffffff1660e01b8152600401600060405180830381600087803b15801561064357600080fd5b505af1158015610657573d6000803e3d6000fd5b5050505060008054906101000a90046001600160a01b03166001600160a01b0316630d43e8ad6040518163ffffffff1660e01b815260040160206040518083038186803b1580156106a757600080fd5b505afa1580156106bb573d6000803e3d6000fd5b505050506040513d601f19601f820116820180604052508101906106df9190610d15565b6001600160a01b03166386d1a69f6040518163ffffffff1660e01b8152600401600060405180830381600087803b15801561071957600080fd5b505af115801561072d573d6000803e3d6000fd5b505060408051600280825260608083018452945090925090602083019080368337505060015482519293506001600160a01b03169183915060009061076e57fe5b6001600160a01b03928316602091820292909201015260025482519116908290600190811061079957fe5b6001600160a01b039283166020918202929092010152600480546001546040516370a0823160e01b8152918416936338ed1739939116916370a08231916107e291309101610d31565b60206040518083038186803b1580156107fa57600080fd5b505afa15801561080e573d6000803e3d6000fd5b505050506040513d601f19601f820116820180604052508101906108329190610cfd565b600084306000196040518663ffffffff1660e01b8152600401610859959493929190610e1e565b600060405180830381600087803b15801561087357600080fd5b505af1158015610887573d6000803e3d6000fd5b505050506040513d6000823e601f3d908101601f191682016040526108af9190810190610c30565b5050565b60035481565b6002546001600160a01b031681565b60008054906101000a90046001600160a01b03166001600160a01b031663f77c47916040518163ffffffff1660e01b815260040160206040518083038186803b15801561091457600080fd5b505afa158015610928573d6000803e3d6000fd5b505050506040513d601f19601f8201168201806040525081019061094c9190610d15565b6001600160a01b03166391d1485460008054906101000a90046001600160a01b03166001600160a01b031663f77c47916040518163ffffffff1660e01b815260040160206040518083038186803b1580156109a657600080fd5b505afa1580156109ba573d6000803e3d6000fd5b505050506040513d601f19601f820116820180604052508101906109de9190610d15565b6001600160a01b031663ec87621c6040518163ffffffff1660e01b815260040160206040518083038186803b158015610a1657600080fd5b505afa158015610a2a573d6000803e3d6000fd5b505050506040513d601f19601f82011682018060405250810190610a4e9190610cfd565b336040518363ffffffff1660e01b8152600401610a6c929190610d72565b60206040518083038186803b158015610a8457600080fd5b505afa158015610a98573d6000803e3d6000fd5b505050506040513d601f19601f82011682018060405250810190610abc9190610ce1565b610ad85760405162461bcd60e51b815260040161034b90610db9565b6003544211610af95760405162461bcd60e51b815260040161034b90610df0565b6002546040516370a0823160e01b81526001600160a01b039091169063a9059cbb90839083906370a0823190610b33903090600401610d31565b60206040518083038186803b158015610b4b57600080fd5b505afa158015610b5f573d6000803e3d6000fd5b505050506040513d601f19601f82011682018060405250810190610b839190610cfd565b6040518363ffffffff1660e01b8152600401610ba0929190610d45565b602060405180830381600087803b158015610bba57600080fd5b505af1158015610bce573d6000803e3d6000fd5b505050506040513d601f19601f82011682018060405250810190610bf29190610ce1565b610bfb57600080fd5b50565b6004546001600160a01b031681565b600060208284031215610c1e578081fd5b8135610c2981610ed5565b9392505050565b60006020808385031215610c42578182fd5b825167ffffffffffffffff811115610c58578283fd5b8301601f81018513610c68578283fd5b8051610c7b610c7682610eb5565b610e8e565b8181528381019083850185840285018601891015610c97578687fd5b8694505b83851015610cb9578051835260019490940193918501918501610c9b565b50979650505050505050565b600060208284031215610cd6578081fd5b8135610c2981610eea565b600060208284031215610cf2578081fd5b8151610c2981610eea565b600060208284031215610d0e578081fd5b5051919050565b600060208284031215610d26578081fd5b8151610c2981610ed5565b6001600160a01b0391909116815260200190565b6001600160a01b03929092168252602082015260400190565b901515815260200190565b90815260200190565b9182526001600160a01b0316602082015260400190565b60208082526016908201527521b0b63632b91034b9903737ba10309025b2b2b832b960511b604082015260600190565b60208082526017908201527f43616c6c6572206973206e6f742061204d616e61676572000000000000000000604082015260600190565b6020808252601490820152731b1bd8dac81b9bdd08195e1c1a5c9959081e595d60621b604082015260600190565b600060a082018783526020878185015260a0604085015281875180845260c0860191508289019350845b81811015610e6d5784516001600160a01b031683529383019391830191600101610e48565b50506001600160a01b03969096166060850152505050608001529392505050565b60405181810167ffffffffffffffff81118282101715610ead57600080fd5b604052919050565b600067ffffffffffffffff821115610ecb578081fd5b5060209081020190565b6001600160a01b0381168114610bfb57600080fd5b8015158114610bfb57600080fdfea2646970667358221220d8e530201a54b2f22bb705b7b31a3bb585446495068cc513672bd2dfd321ba5664736f6c634300060c0033",
  "immutableReferences": {},
  "source": "// SPDX-License-Identifier: MIT\n\npragma experimental ABIEncoderV2;\npragma solidity 0.6.12;\n\nimport \"@openzeppelin/contracts/token/ERC20/IERC20.sol\";\nimport \"../interfaces/IAddressProvider.sol\";\nimport \"../libraries/interfaces/IUniswapV2Router02.sol\";\n\ncontract MIMOBuybackUniswapV2 {\n  bytes32 public constant KEEPER_ROLE = keccak256(\"KEEPER_ROLE\");\n\n  IAddressProvider public a;\n  IERC20 public PAR;\n  IERC20 public MIMO;\n  uint256 public lockExpiry;\n\n  IUniswapV2Router02 public router;\n\n  bool public whitelistEnabled = false;\n\n  constructor(\n    uint256 _lockExpiry,\n    address _router,\n    address _a,\n    address _mimo\n  ) public {\n    lockExpiry = _lockExpiry;\n    a = IAddressProvider(_a);\n    MIMO = IERC20(_mimo);\n    PAR = a.stablex();\n\n    router = IUniswapV2Router02(_router);\n\n    PAR.approve(address(router), 2**256 - 1);\n  }\n\n  modifier onlyManager() {\n    require(a.controller().hasRole(a.controller().MANAGER_ROLE(), msg.sender), \"Caller is not a Manager\");\n    _;\n  }\n\n  modifier onlyKeeper() {\n    require(!whitelistEnabled || a.controller().hasRole(KEEPER_ROLE, msg.sender), \"Caller is not a Keeper\");\n    _;\n  }\n\n  function withdrawMIMO(address destination) public onlyManager {\n    require(block.timestamp > lockExpiry, \"lock not expired yet\");\n    require(MIMO.transfer(destination, MIMO.balanceOf(address(this))));\n  }\n\n  function buyMIMO() public onlyKeeper {\n    a.core().state().refresh();\n    a.feeDistributor().release();\n\n    address[] memory path = new address[](2);\n    path[0] = address(PAR); // tokenIn\n    path[1] = address(MIMO); // tokenOut\n\n    router.swapExactTokensForTokens(\n      PAR.balanceOf(address(this)), // amountIn\n      0, // amountOutMin: we can skip computing this number because the math is tested\n      path,\n      address(this), // receive address\n      2**256 - 1 // deadline\n    );\n  }\n\n  function setWhitelistEnabled(bool _status) public onlyManager {\n    whitelistEnabled = _status;\n  }\n}\n",
  "sourcePath": "/home/mingyue/sub_contract_content/Web3Bugs/contracts/115/core/contracts/liquidityMining/MIMOBuybackUniswapV2.sol",
  "compiler": {
    "name": "solc",
    "version": "0.6.12+commit.27d51765.Emscripten.clang"
  },
  "schemaVersion": "3.4.7",
  "updatedAt": "2025-02-28T14:09:34.647Z",
  "devdoc": {
    "kind": "dev",
    "methods": {},
    "version": 1
  },
  "userdoc": {
    "kind": "user",
    "methods": {},
    "version": 1
  }
}