{
  "contractName": "MIMODistributorV2",
  "abi": [
    {
      "inputs": [
        {
          "internalType": "contract IGovernanceAddressProvider",
          "name": "_a",
          "type": "address"
        },
        {
          "internalType": "uint256",
          "name": "_startTime",
          "type": "uint256"
        },
        {
          "internalType": "contract IMIMODistributor",
          "name": "_mimoDistributor",
          "type": "address"
        }
      ],
      "stateMutability": "nonpayable",
      "type": "constructor"
    },
    {
      "anonymous": false,
      "inputs": [
        {
          "indexed": false,
          "internalType": "address",
          "name": "account",
          "type": "address"
        },
        {
          "indexed": false,
          "internalType": "uint256",
          "name": "shares",
          "type": "uint256"
        }
      ],
      "name": "PayeeAdded",
      "type": "event"
    },
    {
      "anonymous": false,
      "inputs": [
        {
          "indexed": false,
          "internalType": "uint256",
          "name": "newTokens",
          "type": "uint256"
        },
        {
          "indexed": false,
          "internalType": "uint256",
          "name": "releasedAt",
          "type": "uint256"
        }
      ],
      "name": "TokensReleased",
      "type": "event"
    },
    {
      "inputs": [],
      "name": "a",
      "outputs": [
        {
          "internalType": "contract IGovernanceAddressProvider",
          "name": "",
          "type": "address"
        }
      ],
      "stateMutability": "view",
      "type": "function"
    },
    {
      "inputs": [],
      "name": "alreadyMinted",
      "outputs": [
        {
          "internalType": "uint256",
          "name": "",
          "type": "uint256"
        }
      ],
      "stateMutability": "view",
      "type": "function"
    },
    {
      "inputs": [
        {
          "internalType": "address[]",
          "name": "_payees",
          "type": "address[]"
        },
        {
          "internalType": "uint256[]",
          "name": "_shares",
          "type": "uint256[]"
        }
      ],
      "name": "changePayees",
      "outputs": [],
      "stateMutability": "nonpayable",
      "type": "function"
    },
    {
      "inputs": [],
      "name": "getPayees",
      "outputs": [
        {
          "internalType": "address[]",
          "name": "",
          "type": "address[]"
        }
      ],
      "stateMutability": "view",
      "type": "function"
    },
    {
      "inputs": [
        {
          "internalType": "uint256",
          "name": "",
          "type": "uint256"
        }
      ],
      "name": "payees",
      "outputs": [
        {
          "internalType": "address",
          "name": "",
          "type": "address"
        }
      ],
      "stateMutability": "view",
      "type": "function"
    },
    {
      "inputs": [],
      "name": "release",
      "outputs": [],
      "stateMutability": "nonpayable",
      "type": "function"
    },
    {
      "inputs": [
        {
          "internalType": "address",
          "name": "",
          "type": "address"
        }
      ],
      "name": "shares",
      "outputs": [
        {
          "internalType": "uint256",
          "name": "",
          "type": "uint256"
        }
      ],
      "stateMutability": "view",
      "type": "function"
    },
    {
      "inputs": [],
      "name": "startTime",
      "outputs": [
        {
          "internalType": "uint256",
          "name": "",
          "type": "uint256"
        }
      ],
      "stateMutability": "view",
      "type": "function"
    },
    {
      "inputs": [],
      "name": "totalShares",
      "outputs": [
        {
          "internalType": "uint256",
          "name": "",
          "type": "uint256"
        }
      ],
      "stateMutability": "view",
      "type": "function"
    },
    {
      "inputs": [],
      "name": "currentIssuance",
      "outputs": [
        {
          "internalType": "uint256",
          "name": "",
          "type": "uint256"
        }
      ],
      "stateMutability": "view",
      "type": "function"
    },
    {
      "inputs": [
        {
          "internalType": "uint256",
          "name": "timestamp",
          "type": "uint256"
        }
      ],
      "name": "weeklyIssuanceAt",
      "outputs": [
        {
          "internalType": "uint256",
          "name": "",
          "type": "uint256"
        }
      ],
      "stateMutability": "view",
      "type": "function"
    },
    {
      "inputs": [],
      "name": "mintableTokens",
      "outputs": [
        {
          "internalType": "uint256",
          "name": "",
          "type": "uint256"
        }
      ],
      "stateMutability": "view",
      "type": "function"
    },
    {
      "inputs": [
        {
          "internalType": "uint256",
          "name": "timestamp",
          "type": "uint256"
        }
      ],
      "name": "totalSupplyAt",
      "outputs": [
        {
          "internalType": "uint256",
          "name": "",
          "type": "uint256"
        }
      ],
      "stateMutability": "view",
      "type": "function"
    }
  ],
  "bytecode": "0x60806040523480156200001157600080fd5b506040516200141538038062001415833981016040819052620000349162000199565b6001600160a01b0383166200004857600080fd5b6001600160a01b0381166200005c57600080fd5b600380546001600160a01b0319166001600160a01b03858116919091179091556005839055604051630981b24d60e41b81529082169063981b24d090620000a8908590600401620001f9565b60206040518083038186803b158015620000c157600080fd5b505afa158015620000d6573d6000803e3d6000fd5b505050506040513d601f19601f82011682018060405250810190620000fc9190620001e0565b60065560055460405163ebcd2a6160e01b81526000916001600160a01b0384169163ebcd2a61916200013191600401620001f9565b60206040518083038186803b1580156200014a57600080fd5b505afa1580156200015f573d6000803e3d6000fd5b505050506040513d601f19601f82011682018060405250810190620001859190620001e0565b905060048104600455506200021b92505050565b600080600060608486031215620001ae578283fd5b8351620001bb8162000202565b602085015160408601519194509250620001d58162000202565b809150509250925092565b600060208284031215620001f2578081fd5b5051919050565b90815260200190565b6001600160a01b03811681146200021857600080fd5b50565b6111ea806200022b6000396000f3fe608060405234801561001057600080fd5b50600436106100cf5760003560e01c806386d1a69f1161008c578063ce7c2ac211610066578063ce7c2ac21461016f578063cf3dfae714610182578063d40480891461018a578063ebcd2a6114610192576100cf565b806386d1a69f1461013f578063981b24d014610149578063acd7af011461015c576100cf565b80630dbe671f146100d457806327f38113146100f25780633a98ef391461010757806353bcb9511461011c57806363037b0c1461012457806378e9792514610137575b600080fd5b6100dc6101a5565b6040516100e99190610e4e565b60405180910390f35b6100fa6101b4565b6040516100e99190610e7b565b61010f610216565b6040516100e99190611141565b61010f61021c565b6100dc610132366004610e36565b610222565b61010f610249565b61014761024f565b005b61010f610157366004610e36565b610326565b61014761016a366004610d1f565b6103fe565b61010f61017d366004610d03565b61071d565b61010f61072f565b61010f61083e565b61010f6101a0366004610e36565b610845565b6003546001600160a01b031681565b6060600280548060200260200160405190810160405280929190818152602001828054801561020c57602002820191906000526020600020905b81546001600160a01b031681526001909101906020018083116101ee575b5050505050905090565b60005481565b60065481565b6002818154811061022f57fe5b6000918252602090912001546001600160a01b0316905081565b60055481565b600061025961072f565b9050600081116102845760405162461bcd60e51b815260040161027b90610fde565b60405180910390fd5b6002546102a35760405162461bcd60e51b815260040161027b906110ad565b60005b6002548110156102e9576000600282815481106102bf57fe5b6000918252602090912001546001600160a01b031690506102e08382610896565b506001016102a6565b507f06bfc9e66ca14afa6b27c5211d92e2453d2007b51cd69146f7d2b2b5654cf2b9814260405161031b92919061114a565b60405180910390a150565b60008061033e600554846109ac90919063ffffffff16565b9050600061034f8262093a806109d9565b905062093a8082066000610361610a0b565b905060006103b161037e836b032fb4175dfb24dbce2000006109ac565b6004546103ab906103a561039e6b032fb4175dfb24dbce2000008a610a1b565b87906109ac565b90610a75565b90610aae565b905060006103be88610845565b905060006103d962093a806103d38488610ad8565b906109d9565b90506103f16103e88483610b12565b60065490610b12565b9998505050505050505050565b600360009054906101000a90046001600160a01b03166001600160a01b031663f77c47916040518163ffffffff1660e01b815260040160206040518083038186803b15801561044c57600080fd5b505afa158015610460573d6000803e3d6000fd5b505050506040513d601f19601f820116820180604052508101906104849190610e1a565b6001600160a01b03166391d14854600360009054906101000a90046001600160a01b03166001600160a01b031663f77c47916040518163ffffffff1660e01b815260040160206040518083038186803b1580156104e057600080fd5b505afa1580156104f4573d6000803e3d6000fd5b505050506040513d601f19601f820116820180604052508101906105189190610e1a565b6001600160a01b031663ec87621c6040518163ffffffff1660e01b815260040160206040518083038186803b15801561055057600080fd5b505afa158015610564573d6000803e3d6000fd5b505050506040513d601f19601f820116820180604052508101906105889190610e02565b336040518363ffffffff1660e01b81526004016105a6929190610ec8565b60206040518083038186803b1580156105be57600080fd5b505afa1580156105d2573d6000803e3d6000fd5b505050506040513d601f19601f820116820180604052508101906105f69190610de2565b6106125760405162461bcd60e51b815260040161027b90611047565b80518251146106335760405162461bcd60e51b815260040161027b906110e4565b60008251116106545760405162461bcd60e51b815260040161027b90610f16565b6002541580159061066c5750600061066a61072f565b115b156106795761067961024f565b60005b6002548110156106c457600160006002838154811061069757fe5b60009182526020808320909101546001600160a01b0316835282019290925260400181205560010161067c565b506106d160026000610c5b565b60008080555b8251811015610718576107108382815181106106ef57fe5b602002602001015183838151811061070357fe5b6020026020010151610b37565b6001016106d7565b505050565b60016020526000908152604090205481565b6000610839600360009054906101000a90046001600160a01b03166001600160a01b0316636d9b18236040518163ffffffff1660e01b815260040160206040518083038186803b15801561078257600080fd5b505afa158015610796573d6000803e3d6000fd5b505050506040513d601f19601f820116820180604052508101906107ba9190610e1a565b6001600160a01b03166318160ddd6040518163ffffffff1660e01b815260040160206040518083038186803b1580156107f257600080fd5b505afa158015610806573d6000803e3d6000fd5b505050506040513d601f19601f8201168201806040525081019061082a9190610e02565b61083342610326565b906109ac565b905090565b6000610839425b60008061085d600554846109ac90919063ffffffff16565b9050600061086e8262093a806109d9565b60045490915061088e906103a56b032fb4175dfb24dbce20000084610a1b565b949350505050565b600080546001600160a01b0383168252600160205260408220546108c091906103d3908690610ad8565b9050600360009054906101000a90046001600160a01b03166001600160a01b0316636d9b18236040518163ffffffff1660e01b815260040160206040518083038186803b15801561091057600080fd5b505afa158015610924573d6000803e3d6000fd5b505050506040513d601f19601f820116820180604052508101906109489190610e1a565b6001600160a01b03166340c10f1983836040518363ffffffff1660e01b8152600401610975929190610e62565b600060405180830381600087803b15801561098f57600080fd5b505af11580156109a3573d6000803e3d6000fd5b50505050505050565b6000828211156109ce5760405162461bcd60e51b815260040161027b90610f70565b508082035b92915050565b60008082116109fa5760405162461bcd60e51b815260040161027b90610fa7565b818381610a0357fe5b049392505050565b6b033b2e3c9fd0803ce800000090565b600060028206610a37576b033b2e3c9fd0803ce8000000610a39565b825b90506002820491505b81156109d357610a528384610a75565b92506002820615610a6a57610a678184610a75565b90505b600282049150610a42565b6000610aa76b033b2e3c9fd0803ce80000006103d3610a948686610ad8565b6b019d971e4fe8401e7400000090610b12565b9392505050565b60006002820461088e836103d3610ad1876b033b2e3c9fd0803ce8000000610ad8565b8490610b12565b600082610ae7575060006109d3565b82820282848281610af457fe5b0414610aa75760405162461bcd60e51b815260040161027b90611006565b600082820183811015610aa75760405162461bcd60e51b815260040161027b90610edf565b6001600160a01b038216610b5d5760405162461bcd60e51b815260040161027b90611076565b60008111610b7d5760405162461bcd60e51b815260040161027b9061111b565b6001600160a01b03821660009081526001602052604090205415610bb35760405162461bcd60e51b815260040161027b90610f39565b6002805460018082019092557f405787fa12a823e0f2b7631cc41b3ba8828b3321ca811111fa75cd3aa3bb5ace0180546001600160a01b0319166001600160a01b03851690811790915560009081526020919091526040812082905554610c1a9082610b12565b6000556040517f40c340f65e17194d14ddddb073d3c9f888e3cb52b5aae0c6c7706b4fbc905fac90610c4f9084908490610e62565b60405180910390a15050565b5080546000825590600052602060002090810190610c799190610c7c565b50565b5b80821115610c915760008155600101610c7d565b5090565b600082601f830112610ca5578081fd5b8135610cb8610cb38261117f565b611158565b818152915060208083019084810181840286018201871015610cd957600080fd5b60005b84811015610cf857813584529282019290820190600101610cdc565b505050505092915050565b600060208284031215610d14578081fd5b8135610aa78161119f565b60008060408385031215610d31578081fd5b823567ffffffffffffffff80821115610d48578283fd5b818501915085601f830112610d5b578283fd5b8135610d69610cb38261117f565b80828252602080830192508086018a828387028901011115610d89578788fd5b8796505b84871015610db4578035610da08161119f565b845260019690960195928101928101610d8d565b509096508701359350505080821115610dcb578283fd5b50610dd885828601610c95565b9150509250929050565b600060208284031215610df3578081fd5b81518015158114610aa7578182fd5b600060208284031215610e13578081fd5b5051919050565b600060208284031215610e2b578081fd5b8151610aa78161119f565b600060208284031215610e47578081fd5b5035919050565b6001600160a01b0391909116815260200190565b6001600160a01b03929092168252602082015260400190565b6020808252825182820181905260009190848201906040850190845b81811015610ebc5783516001600160a01b031683529284019291840191600101610e97565b50909695505050505050565b9182526001600160a01b0316602082015260400190565b6020808252601b908201527f536166654d6174683a206164646974696f6e206f766572666c6f770000000000604082015260600190565b6020808252600990820152684e6f2070617965657360b81b604082015260600190565b60208082526018908201527f706179656520616c726561647920686173207368617265730000000000000000604082015260600190565b6020808252601e908201527f536166654d6174683a207375627472616374696f6e206f766572666c6f770000604082015260600190565b6020808252601a908201527f536166654d6174683a206469766973696f6e206279207a65726f000000000000604082015260600190565b6020808252600e908201526d06e6577546f6b656e7320697320360941b604082015260600190565b60208082526021908201527f536166654d6174683a206d756c7469706c69636174696f6e206f766572666c6f6040820152607760f81b606082015260800190565b60208082526015908201527421b0b63632b91034b9903737ba1026b0b730b3b2b960591b604082015260600190565b60208082526019908201527f706179656520697320746865207a65726f206164647265737300000000000000604082015260600190565b60208082526019908201527f506179656573206e6f7420636f6e666967757265642079657400000000000000604082015260600190565b6020808252601c908201527f50617965657320616e6420736861726573206d69736d61746368656400000000604082015260600190565b6020808252600c908201526b07368617265732061726520360a41b604082015260600190565b90815260200190565b918252602082015260400190565b60405181810167ffffffffffffffff8111828210171561117757600080fd5b604052919050565b600067ffffffffffffffff821115611195578081fd5b5060209081020190565b6001600160a01b0381168114610c7957600080fdfea26469706673582212206398d61e845d26b701e20fd94b222d872000ab6169487f8dd0ad9592fb65cfea64736f6c634300060c0033",
  "immutableReferences": {},
  "source": "// SPDX-License-Identifier: MIT\n\npragma experimental ABIEncoderV2;\npragma solidity 0.6.12;\n\nimport \"@openzeppelin/contracts/math/SafeMath.sol\";\nimport \"../libraries/WadRayMath.sol\";\nimport \"../governance/interfaces/IGovernanceAddressProvider.sol\";\nimport \"./interfaces/IMIMODistributor.sol\";\nimport \"./BaseDistributor.sol\";\n\ncontract MIMODistributorV2 is BaseDistributor, IMIMODistributorExtension {\n  using SafeMath for uint256;\n  using WadRayMath for uint256;\n\n  uint256 private constant _SECONDS_PER_YEAR = 365 days;\n  uint256 private constant _SECONDS_PER_WEEK = 7 days;\n  uint256 private constant _WEEKLY_R = 986125e21; // -1.3875% per week (-5.55% / 4)\n  uint256 private _FIRST_WEEK_TOKENS;\n\n  uint256 public override startTime;\n  uint256 public alreadyMinted;\n\n  constructor(\n    IGovernanceAddressProvider _a,\n    uint256 _startTime,\n    IMIMODistributor _mimoDistributor\n  ) public {\n    require(address(_a) != address(0));\n    require(address(_mimoDistributor) != address(0));\n\n    a = _a;\n    startTime = _startTime;\n    alreadyMinted = _mimoDistributor.totalSupplyAt(startTime);\n\n    uint256 weeklyIssuanceV1 = _mimoDistributor.weeklyIssuanceAt(startTime);\n    _FIRST_WEEK_TOKENS = weeklyIssuanceV1 / 4; // reduce weeky issuance by 4\n  }\n\n  /**\n    Get current monthly issuance of new MIMO tokens.\n    @return number of monthly issued tokens currently`.\n  */\n  function currentIssuance() public view override returns (uint256) {\n    return weeklyIssuanceAt(now);\n  }\n\n  /**\n    Get monthly issuance of new MIMO tokens at `timestamp`.\n    @dev invalid for timestamps before deployment\n    @param timestamp for which to calculate the monthly issuance\n    @return number of monthly issued tokens at `timestamp`.\n  */\n  function weeklyIssuanceAt(uint256 timestamp) public view override returns (uint256) {\n    uint256 elapsedSeconds = timestamp.sub(startTime);\n    uint256 elapsedWeeks = elapsedSeconds.div(_SECONDS_PER_WEEK);\n    return _WEEKLY_R.rayPow(elapsedWeeks).rayMul(_FIRST_WEEK_TOKENS);\n  }\n\n  /**\n    Calculates how many MIMO tokens can be minted since the last time tokens were minted\n    @return number of mintable tokens available right now.\n  */\n  function mintableTokens() public view override returns (uint256) {\n    return totalSupplyAt(now).sub(a.mimo().totalSupply());\n  }\n\n  /**\n    Calculates the totalSupply for any point after `startTime`\n    @param timestamp for which to calculate the totalSupply\n    @return totalSupply at timestamp.\n  */\n  function totalSupplyAt(uint256 timestamp) public view override returns (uint256) {\n    uint256 elapsedSeconds = timestamp.sub(startTime);\n    uint256 elapsedWeeks = elapsedSeconds.div(_SECONDS_PER_WEEK);\n    uint256 lastWeekSeconds = elapsedSeconds % _SECONDS_PER_WEEK;\n    uint256 one = WadRayMath.ray();\n    uint256 fullWeeks = one.sub(_WEEKLY_R.rayPow(elapsedWeeks)).rayMul(_FIRST_WEEK_TOKENS).rayDiv(one.sub(_WEEKLY_R));\n    uint256 currentWeekIssuance = weeklyIssuanceAt(timestamp);\n    uint256 partialWeek = currentWeekIssuance.mul(lastWeekSeconds).div(_SECONDS_PER_WEEK);\n    return alreadyMinted.add(fullWeeks.add(partialWeek));\n  }\n\n  /**\n    Internal function to release a percentage of newTokens to a specific payee\n    @dev uses totalShares to calculate correct share\n    @param _totalnewTokensReceived Total newTokens for all payees, will be split according to shares\n    @param _payee The address of the payee to whom to distribute the fees.\n  */\n  function _release(uint256 _totalnewTokensReceived, address _payee) internal override {\n    uint256 payment = _totalnewTokensReceived.mul(shares[_payee]).div(totalShares);\n    a.mimo().mint(_payee, payment);\n  }\n}\n",
  "sourcePath": "/home/mingyue/sub_contract_content/Web3Bugs/contracts/115/core/contracts/liquidityMining/MIMODistributorV2.sol",
  "compiler": {
    "name": "solc",
    "version": "0.6.12+commit.27d51765.Emscripten.clang"
  },
  "schemaVersion": "3.4.7",
  "updatedAt": "2025-02-28T14:09:34.648Z",
  "devdoc": {
    "kind": "dev",
    "methods": {
      "changePayees(address[],uint256[])": {
        "details": "will release existing fees before the update.",
        "params": {
          "_payees": "Array of payees",
          "_shares": "Array of shares for each payee"
        }
      },
      "currentIssuance()": {
        "returns": {
          "_0": "number of monthly issued tokens currently`."
        }
      },
      "getPayees()": {
        "returns": {
          "_0": "array of current payees."
        }
      },
      "mintableTokens()": {
        "returns": {
          "_0": "number of mintable tokens available right now."
        }
      },
      "release()": {
        "details": "anyone can call this."
      },
      "totalSupplyAt(uint256)": {
        "params": {
          "timestamp": "for which to calculate the totalSupply"
        },
        "returns": {
          "_0": "totalSupply at timestamp."
        }
      },
      "weeklyIssuanceAt(uint256)": {
        "details": "invalid for timestamps before deployment",
        "params": {
          "timestamp": "for which to calculate the monthly issuance"
        },
        "returns": {
          "_0": "number of monthly issued tokens at `timestamp`."
        }
      }
    },
    "version": 1
  },
  "userdoc": {
    "kind": "user",
    "methods": {
      "changePayees(address[],uint256[])": {
        "notice": "Updates the payee configuration to a new one."
      },
      "currentIssuance()": {
        "notice": "Get current monthly issuance of new MIMO tokens."
      },
      "getPayees()": {
        "notice": "Get current configured payees."
      },
      "mintableTokens()": {
        "notice": "Calculates how many MIMO tokens can be minted since the last time tokens were minted"
      },
      "release()": {
        "notice": "Public function to release the accumulated new MIMO tokens to the payees."
      },
      "totalSupplyAt(uint256)": {
        "notice": "Calculates the totalSupply for any point after `startTime`"
      },
      "weeklyIssuanceAt(uint256)": {
        "notice": "Get monthly issuance of new MIMO tokens at `timestamp`."
      }
    },
    "version": 1
  }
}