{
  "contractName": "MinerPayer",
  "abi": [
    {
      "inputs": [
        {
          "internalType": "contract IGovernanceAddressProvider",
          "name": "_a",
          "type": "address"
        }
      ],
      "stateMutability": "nonpayable",
      "type": "constructor"
    },
    {
      "anonymous": false,
      "inputs": [
        {
          "indexed": false,
          "internalType": "address",
          "name": "account",
          "type": "address"
        },
        {
          "indexed": false,
          "internalType": "uint256",
          "name": "shares",
          "type": "uint256"
        }
      ],
      "name": "PayeeAdded",
      "type": "event"
    },
    {
      "anonymous": false,
      "inputs": [
        {
          "indexed": false,
          "internalType": "uint256",
          "name": "newTokens",
          "type": "uint256"
        },
        {
          "indexed": false,
          "internalType": "uint256",
          "name": "releasedAt",
          "type": "uint256"
        }
      ],
      "name": "TokensReleased",
      "type": "event"
    },
    {
      "inputs": [],
      "name": "KEEPER_ROLE",
      "outputs": [
        {
          "internalType": "bytes32",
          "name": "",
          "type": "bytes32"
        }
      ],
      "stateMutability": "view",
      "type": "function"
    },
    {
      "inputs": [],
      "name": "a",
      "outputs": [
        {
          "internalType": "contract IGovernanceAddressProvider",
          "name": "",
          "type": "address"
        }
      ],
      "stateMutability": "view",
      "type": "function"
    },
    {
      "inputs": [
        {
          "internalType": "uint256",
          "name": "",
          "type": "uint256"
        }
      ],
      "name": "payees",
      "outputs": [
        {
          "internalType": "address",
          "name": "",
          "type": "address"
        }
      ],
      "stateMutability": "view",
      "type": "function"
    },
    {
      "inputs": [
        {
          "internalType": "address",
          "name": "",
          "type": "address"
        }
      ],
      "name": "shares",
      "outputs": [
        {
          "internalType": "uint256",
          "name": "",
          "type": "uint256"
        }
      ],
      "stateMutability": "view",
      "type": "function"
    },
    {
      "inputs": [],
      "name": "totalShares",
      "outputs": [
        {
          "internalType": "uint256",
          "name": "",
          "type": "uint256"
        }
      ],
      "stateMutability": "view",
      "type": "function"
    },
    {
      "inputs": [
        {
          "internalType": "uint256",
          "name": "totalAmount",
          "type": "uint256"
        }
      ],
      "name": "release",
      "outputs": [],
      "stateMutability": "nonpayable",
      "type": "function"
    },
    {
      "inputs": [
        {
          "internalType": "address[]",
          "name": "_payees",
          "type": "address[]"
        },
        {
          "internalType": "uint256[]",
          "name": "_shares",
          "type": "uint256[]"
        }
      ],
      "name": "changePayees",
      "outputs": [],
      "stateMutability": "nonpayable",
      "type": "function"
    },
    {
      "inputs": [],
      "name": "getPayees",
      "outputs": [
        {
          "internalType": "address[]",
          "name": "",
          "type": "address[]"
        }
      ],
      "stateMutability": "view",
      "type": "function"
    }
  ],
  "bytecode": "0x608060405234801561001057600080fd5b5060405161116638038061116683398101604081905261002f91610083565b6001600160a01b03811661005e5760405162461bcd60e51b8152600401610055906100b1565b60405180910390fd5b600180546001600160a01b0319166001600160a01b03929092169190911790556100f6565b600060208284031215610094578081fd5b81516001600160a01b03811681146100aa578182fd5b9392505050565b60208082526025908201527f476f7665726e616e636520616464726573732063616e27742062652030206164604082015264647265737360d81b606082015260800190565b611061806101056000396000f3fe608060405234801561001057600080fd5b50600436106100885760003560e01c80633a98ef391161005b5780633a98ef39146100ea57806363037b0c146100f2578063acd7af0114610105578063ce7c2ac21461011857610088565b80630dbe671f1461008d57806327f38113146100ab578063364bc15a146100c057806337bdc99b146100d5575b600080fd5b61009561012b565b6040516100a29190610ccf565b60405180910390f35b6100b361013a565b6040516100a29190610cfc565b6100c861019c565b6040516100a29190610d49565b6100e86100e3366004610cb7565b6101c0565b005b6100c86104cb565b610095610100366004610cb7565b6104d1565b6100e8610113366004610ba0565b6104f8565b6100c8610126366004610b84565b6107d1565b6001546001600160a01b031681565b6060600380548060200260200160405190810160405280929190818152602001828054801561019257602002820191906000526020600020905b81546001600160a01b03168152600190910190602001808311610174575b5050505050905090565b7ffc8737ab85eb45125971625a9ebdb75cc78e01d5c1fa80c4c6e5203f47bc4fab81565b600160009054906101000a90046001600160a01b03166001600160a01b031663f77c47916040518163ffffffff1660e01b815260040160206040518083038186803b15801561020e57600080fd5b505afa158015610222573d6000803e3d6000fd5b505050506040513d601f19601f820116820180604052508101906102469190610c9b565b6001600160a01b03166391d148547ffc8737ab85eb45125971625a9ebdb75cc78e01d5c1fa80c4c6e5203f47bc4fab336040518363ffffffff1660e01b8152600401610293929190610d52565b60206040518083038186803b1580156102ab57600080fd5b505afa1580156102bf573d6000803e3d6000fd5b505050506040513d601f19601f820116820180604052508101906102e39190610c63565b6103085760405162461bcd60e51b81526004016102ff90610e9d565b60405180910390fd5b600160009054906101000a90046001600160a01b03166001600160a01b0316636d9b18236040518163ffffffff1660e01b815260040160206040518083038186803b15801561035657600080fd5b505afa15801561036a573d6000803e3d6000fd5b505050506040513d601f19601f8201168201806040525081019061038e9190610c9b565b6001600160a01b03166370a08231306040518263ffffffff1660e01b81526004016103b99190610ccf565b60206040518083038186803b1580156103d157600080fd5b505afa1580156103e5573d6000803e3d6000fd5b505050506040513d601f19601f820116820180604052508101906104099190610c83565b8111156104285760405162461bcd60e51b81526004016102ff90610f72565b600081116104485760405162461bcd60e51b81526004016102ff90610e34565b60005b60035481101561048e5760006003828154811061046457fe5b6000918252602090912001546001600160a01b0316905061048583826107e3565b5060010161044b565b507f06bfc9e66ca14afa6b27c5211d92e2453d2007b51cd69146f7d2b2b5654cf2b981426040516104c0929190610fc1565b60405180910390a150565b60005481565b600381815481106104de57fe5b6000918252602090912001546001600160a01b0316905081565b600160009054906101000a90046001600160a01b03166001600160a01b031663f77c47916040518163ffffffff1660e01b815260040160206040518083038186803b15801561054657600080fd5b505afa15801561055a573d6000803e3d6000fd5b505050506040513d601f19601f8201168201806040525081019061057e9190610c9b565b6001600160a01b03166391d14854600160009054906101000a90046001600160a01b03166001600160a01b031663f77c47916040518163ffffffff1660e01b815260040160206040518083038186803b1580156105da57600080fd5b505afa1580156105ee573d6000803e3d6000fd5b505050506040513d601f19601f820116820180604052508101906106129190610c9b565b6001600160a01b031663ec87621c6040518163ffffffff1660e01b815260040160206040518083038186803b15801561064a57600080fd5b505afa15801561065e573d6000803e3d6000fd5b505050506040513d601f19601f820116820180604052508101906106829190610c83565b336040518363ffffffff1660e01b81526004016106a0929190610d52565b60206040518083038186803b1580156106b857600080fd5b505afa1580156106cc573d6000803e3d6000fd5b505050506040513d601f19601f820116820180604052508101906106f09190610c63565b61070c5760405162461bcd60e51b81526004016102ff90610dc6565b805182511461072d5760405162461bcd60e51b81526004016102ff90610ecd565b60005b60035481101561077857600260006003838154811061074b57fe5b60009182526020808320909101546001600160a01b03168352820192909252604001812055600101610730565b5061078560036000610adc565b60008080555b82518110156107cc576107c48382815181106107a357fe5b60200260200101518383815181106107b757fe5b6020026020010151610920565b60010161078b565b505050565b60026020526000908152604090205481565b600080546001600160a01b038316825260026020526040822054610813919061080d908690610a42565b90610a85565b9050600160009054906101000a90046001600160a01b03166001600160a01b0316636d9b18236040518163ffffffff1660e01b815260040160206040518083038186803b15801561086357600080fd5b505afa158015610877573d6000803e3d6000fd5b505050506040513d601f19601f8201168201806040525081019061089b9190610c9b565b6001600160a01b031663a9059cbb83836040518363ffffffff1660e01b81526004016108c8929190610ce3565b602060405180830381600087803b1580156108e257600080fd5b505af11580156108f6573d6000803e3d6000fd5b505050506040513d601f19601f8201168201806040525081019061091a9190610c63565b50505050565b6001600160a01b0382166109465760405162461bcd60e51b81526004016102ff90610f3b565b600081116109665760405162461bcd60e51b81526004016102ff90610da0565b6001600160a01b0382166000908152600260205260409020541561099c5760405162461bcd60e51b81526004016102ff90610f04565b60038054600181019091557fc2575a0e9e593c00f959f8c92f12db2869c3395a3b0502d05e2516446f71f85b0180546001600160a01b0319166001600160a01b038416908117909155600090815260026020526040812082905554610a019082610ab7565b6000556040517f40c340f65e17194d14ddddb073d3c9f888e3cb52b5aae0c6c7706b4fbc905fac90610a369084908490610ce3565b60405180910390a15050565b600082610a5157506000610a7f565b82820282848281610a5e57fe5b0414610a7c5760405162461bcd60e51b81526004016102ff90610e5c565b90505b92915050565b6000808211610aa65760405162461bcd60e51b81526004016102ff90610dfd565b818381610aaf57fe5b049392505050565b600082820183811015610a7c5760405162461bcd60e51b81526004016102ff90610d69565b5080546000825590600052602060002090810190610afa9190610afd565b50565b5b80821115610b125760008155600101610afe565b5090565b600082601f830112610b26578081fd5b8135610b39610b3482610ff6565b610fcf565b818152915060208083019084810181840286018201871015610b5a57600080fd5b60005b84811015610b7957813584529282019290820190600101610b5d565b505050505092915050565b600060208284031215610b95578081fd5b8135610a7c81611016565b60008060408385031215610bb2578081fd5b823567ffffffffffffffff80821115610bc9578283fd5b818501915085601f830112610bdc578283fd5b8135610bea610b3482610ff6565b80828252602080830192508086018a828387028901011115610c0a578788fd5b8796505b84871015610c35578035610c2181611016565b845260019690960195928101928101610c0e565b509096508701359350505080821115610c4c578283fd5b50610c5985828601610b16565b9150509250929050565b600060208284031215610c74578081fd5b81518015158114610a7c578182fd5b600060208284031215610c94578081fd5b5051919050565b600060208284031215610cac578081fd5b8151610a7c81611016565b600060208284031215610cc8578081fd5b5035919050565b6001600160a01b0391909116815260200190565b6001600160a01b03929092168252602082015260400190565b6020808252825182820181905260009190848201906040850190845b81811015610d3d5783516001600160a01b031683529284019291840191600101610d18565b50909695505050505050565b90815260200190565b9182526001600160a01b0316602082015260400190565b6020808252601b908201527f536166654d6174683a206164646974696f6e206f766572666c6f770000000000604082015260600190565b6020808252600c908201526b05368617265732061726520360a41b604082015260600190565b60208082526017908201527f43616c6c6572206973206e6f742061206d616e61676572000000000000000000604082015260600190565b6020808252601a908201527f536166654d6174683a206469766973696f6e206279207a65726f000000000000604082015260600190565b6020808252600e908201526d06e6577546f6b656e7320697320360941b604082015260600190565b60208082526021908201527f536166654d6174683a206d756c7469706c69636174696f6e206f766572666c6f6040820152607760f81b606082015260800190565b60208082526016908201527521b0b63632b91034b9903737ba10309025b2b2b832b960511b604082015260600190565b6020808252601c908201527f50617965657320616e6420736861726573206d69736d61746368656400000000604082015260600190565b60208082526018908201527f506179656520616c726561647920686173207368617265730000000000000000604082015260600190565b60208082526019908201527f506179656520697320746865207a65726f206164647265737300000000000000604082015260600190565b6020808252602f908201527f436f6e747261637420646f65736e277420686f6c6420656e6f756768204d494d60408201526e4f20746f206469737472696275746560881b606082015260800190565b918252602082015260400190565b60405181810167ffffffffffffffff81118282101715610fee57600080fd5b604052919050565b600067ffffffffffffffff82111561100c578081fd5b5060209081020190565b6001600160a01b0381168114610afa57600080fdfea26469706673582212209ab68d2aebf2d8619cd87527b28d12305c4b527b949d5f300744383d80747e1c64736f6c634300060c0033",
  "immutableReferences": {},
  "source": "pragma experimental ABIEncoderV2;\npragma solidity 0.6.12;\n\nimport \"../governance/interfaces/IGovernanceAddressProvider.sol\";\nimport \"@openzeppelin/contracts/math/SafeMath.sol\";\nimport \"../libraries/WadRayMath.sol\";\n\n/*\n@title Miner Payer\n@notice A tool for sending MIMO tokens to a set of miners\n*/\ncontract MinerPayer {\n  event PayeeAdded(address account, uint256 shares);\n  event TokensReleased(uint256 newTokens, uint256 releasedAt);\n  using SafeMath for uint256;\n  using WadRayMath for uint256;\n\n  uint256 public totalShares;\n  IGovernanceAddressProvider public a;\n  bytes32 public constant KEEPER_ROLE = keccak256(\"KEEPER_ROLE\");\n  mapping(address => uint256) public shares;\n  address[] public payees;\n\n  modifier onlyKeeper() {\n    require(a.controller().hasRole(KEEPER_ROLE, msg.sender), \"Caller is not a Keeper\");\n    _;\n  }\n\n  modifier onlyManager() {\n    require(a.controller().hasRole(a.controller().MANAGER_ROLE(), msg.sender), \"Caller is not a manager\");\n    _;\n  }\n\n  constructor(IGovernanceAddressProvider _a) public {\n    require(address(_a) != address(0), \"Governance address can't be 0 address\");\n    a = _a;\n  }\n\n  /*\n  @notice Sends a total amount of MIMO tokens held by this contract to a set of miners, distributing the total amount as per the shares array stored in the contract\n  @param totalAmount The total amount to send all of the miners\n  */\n  function release(uint256 totalAmount) public onlyKeeper {\n    require(totalAmount <= a.mimo().balanceOf(address(this)), \"Contract doesn't hold enough MIMO to distribute\");\n    require(totalAmount > 0, \"newTokens is 0\");\n    // Send MIMO to all receivers\n    for (uint256 i = 0; i < payees.length; i++) {\n      address payee = payees[i];\n      _release(totalAmount, payee);\n    }\n    emit TokensReleased(totalAmount, now);\n  }\n\n  /**\n    Updates the payee configuration to a new one.\n    @param _payees Array of payees\n    @param _shares Array of shares for each payee\n  */\n  function changePayees(address[] memory _payees, uint256[] memory _shares) public onlyManager {\n    require(_payees.length == _shares.length, \"Payees and shares mismatched\");\n\n    for (uint256 i = 0; i < payees.length; i++) {\n      delete shares[payees[i]];\n    }\n\n    delete payees;\n    totalShares = 0;\n\n    for (uint256 i = 0; i < _payees.length; i++) {\n      _addPayee(_payees[i], _shares[i]);\n    }\n  }\n\n  /**\n    Get current configured payees.\n    @return array of current payees.\n  */\n  function getPayees() public view returns (address[] memory) {\n    return payees;\n  }\n\n  /**\n    Internal function to release a percentage of newTokens to a specific payee\n    @dev uses totalShares to calculate correct share\n    @dev same as _release in BaseDistributor\n    @param _totalnewTokensReceived Total newTokens for all payees, will be split according to shares\n    @param _payee The address of the payee to whom to distribute the fees.\n  */\n  function _release(uint256 _totalnewTokensReceived, address _payee) internal {\n    uint256 payment = _totalnewTokensReceived.mul(shares[_payee]).div(totalShares);\n    a.mimo().transfer(_payee, payment);\n  }\n\n  /**\n    Internal function to add a new payee. \n    @dev will update totalShares and therefore reduce the relative share of all other payees. \n    @dev Same as _addPayee in BaseDistributor.\n    @param _payee The address of the payee to add.\n    @param _shares The number of shares owned by the payee.\n  */\n  function _addPayee(address _payee, uint256 _shares) internal {\n    require(_payee != address(0), \"Payee is the zero address\");\n    require(_shares > 0, \"Shares are 0\");\n    require(shares[_payee] == 0, \"Payee already has shares\");\n\n    payees.push(_payee);\n    shares[_payee] = _shares;\n    totalShares = totalShares.add(_shares);\n    emit PayeeAdded(_payee, _shares);\n  }\n}\n",
  "sourcePath": "/home/mingyue/sub_contract_content/Web3Bugs/contracts/115/core/contracts/liquidityMining/MinerPayer.sol",
  "compiler": {
    "name": "solc",
    "version": "0.6.12+commit.27d51765.Emscripten.clang"
  },
  "schemaVersion": "3.4.7",
  "updatedAt": "2025-02-28T14:09:34.649Z",
  "devdoc": {
    "kind": "dev",
    "methods": {
      "changePayees(address[],uint256[])": {
        "params": {
          "_payees": "Array of payees",
          "_shares": "Array of shares for each payee"
        }
      },
      "getPayees()": {
        "returns": {
          "_0": "array of current payees."
        }
      }
    },
    "version": 1
  },
  "userdoc": {
    "kind": "user",
    "methods": {
      "changePayees(address[],uint256[])": {
        "notice": "Updates the payee configuration to a new one."
      },
      "getPayees()": {
        "notice": "Get current configured payees."
      }
    },
    "version": 1
  }
}