{
  "contractName": "MockBalancerPool",
  "abi": [
    {
      "inputs": [
        {
          "internalType": "address",
          "name": "_tokenA",
          "type": "address"
        },
        {
          "internalType": "address",
          "name": "_tokenB",
          "type": "address"
        }
      ],
      "stateMutability": "nonpayable",
      "type": "constructor"
    },
    {
      "inputs": [],
      "name": "tokenA",
      "outputs": [
        {
          "internalType": "address",
          "name": "",
          "type": "address"
        }
      ],
      "stateMutability": "view",
      "type": "function"
    },
    {
      "inputs": [],
      "name": "tokenB",
      "outputs": [
        {
          "internalType": "address",
          "name": "",
          "type": "address"
        }
      ],
      "stateMutability": "view",
      "type": "function"
    },
    {
      "inputs": [
        {
          "internalType": "address",
          "name": "",
          "type": "address"
        }
      ],
      "name": "tokenBalances",
      "outputs": [
        {
          "internalType": "uint256",
          "name": "",
          "type": "uint256"
        }
      ],
      "stateMutability": "view",
      "type": "function"
    },
    {
      "inputs": [
        {
          "internalType": "address",
          "name": "",
          "type": "address"
        }
      ],
      "name": "tokenWeights",
      "outputs": [
        {
          "internalType": "uint256",
          "name": "",
          "type": "uint256"
        }
      ],
      "stateMutability": "view",
      "type": "function"
    },
    {
      "inputs": [],
      "name": "totalSupply",
      "outputs": [
        {
          "internalType": "uint256",
          "name": "",
          "type": "uint256"
        }
      ],
      "stateMutability": "view",
      "type": "function"
    },
    {
      "inputs": [
        {
          "internalType": "address",
          "name": "token",
          "type": "address"
        },
        {
          "internalType": "uint256",
          "name": "weight",
          "type": "uint256"
        }
      ],
      "name": "setNormalizedWeight",
      "outputs": [],
      "stateMutability": "nonpayable",
      "type": "function"
    },
    {
      "inputs": [
        {
          "internalType": "uint256",
          "name": "supply",
          "type": "uint256"
        }
      ],
      "name": "setTotalSupply",
      "outputs": [],
      "stateMutability": "nonpayable",
      "type": "function"
    },
    {
      "inputs": [],
      "name": "getNormalizedWeights",
      "outputs": [
        {
          "internalType": "uint256[]",
          "name": "",
          "type": "uint256[]"
        }
      ],
      "stateMutability": "view",
      "type": "function"
    }
  ],
  "bytecode": "0x608060405234801561001057600080fd5b5060405161036d38038061036d8339818101604052604081101561003357600080fd5b508051602090910151600080546001600160a01b039384166001600160a01b031991821617909155600180549390921692169190911790556102f38061007a6000396000f3fe608060405234801561001057600080fd5b50600436106100885760003560e01c80637f66be2c1161005b5780637f66be2c146100f9578063ab2f3ad414610127578063f7ea7a3d1461014d578063f89f27ed1461016a57610088565b80630fc63d101461008d57806318160ddd146100b1578063523fba7f146100cb5780635f64b55b146100f1575b600080fd5b6100956101c2565b604080516001600160a01b039092168252519081900360200190f35b6100b96101d1565b60408051918252519081900360200190f35b6100b9600480360360208110156100e157600080fd5b50356001600160a01b03166101d7565b6100956101e9565b6101256004803603604081101561010f57600080fd5b506001600160a01b0381351690602001356101f8565b005b6100b96004803603602081101561013d57600080fd5b50356001600160a01b0316610214565b6101256004803603602081101561016357600080fd5b5035610226565b61017261022b565b60408051602080825283518183015283519192839290830191858101910280838360005b838110156101ae578181015183820152602001610196565b505050509050019250505060405180910390f35b6000546001600160a01b031681565b60025481565b60036020526000908152604090205481565b6001546001600160a01b031681565b6001600160a01b03909116600090815260046020526040902055565b60046020526000908152604090205481565b600255565b6040805160028082526060808301845292839291906020830190803683375050600080546001600160a01b031681526004602052604081205483519394509284925061027357fe5b602090810291909101810191909152600180546001600160a01b03166000908152600490925260409091205482519091839181106102ad57fe5b602090810291909101015290509056fea26469706673582212207df4841cfbffbdcf939ba35ad16437411811eccfeba26dfac0637a5153367df764736f6c634300060c0033",
  "immutableReferences": {},
  "source": "// SPDX-License-Identifier: MIT\n\npragma solidity 0.6.12;\n\nimport \"../interfaces/IBalancerPool.sol\";\n\ncontract MockBalancerPool is IBalancerPool {\n  address public tokenA;\n  address public tokenB;\n  uint256 public override totalSupply;\n  mapping(address => uint256) public tokenBalances;\n  mapping(address => uint256) public tokenWeights;\n\n  constructor(address _tokenA, address _tokenB) public {\n    tokenA = _tokenA;\n    tokenB = _tokenB;\n  }\n\n  function setNormalizedWeight(address token, uint256 weight) public {\n    tokenWeights[token] = weight;\n  }\n\n  function setTotalSupply(uint256 supply) public {\n    totalSupply = supply;\n  }\n\n  function getNormalizedWeights() external view override returns (uint256[] memory) {\n    uint256[] memory weights = new uint256[](2);\n    weights[0] = tokenWeights[tokenA];\n    weights[1] = tokenWeights[tokenB];\n\n    return weights;\n  }\n}\n",
  "sourcePath": "/home/mingyue/sub_contract_content/Web3Bugs/contracts/115/core/contracts/mocks/MockBalancerPool.sol",
  "compiler": {
    "name": "solc",
    "version": "0.6.12+commit.27d51765.Emscripten.clang"
  },
  "schemaVersion": "3.4.7",
  "updatedAt": "2025-02-28T14:09:34.661Z",
  "devdoc": {
    "kind": "dev",
    "methods": {},
    "version": 1
  },
  "userdoc": {
    "kind": "user",
    "methods": {},
    "version": 1
  }
}