{
  "contractName": "MockGenericMiner",
  "abi": [
    {
      "inputs": [
        {
          "internalType": "contract IGovernanceAddressProvider",
          "name": "_addresses",
          "type": "address"
        }
      ],
      "stateMutability": "nonpayable",
      "type": "constructor"
    },
    {
      "anonymous": false,
      "inputs": [
        {
          "indexed": true,
          "internalType": "address",
          "name": "user",
          "type": "address"
        },
        {
          "indexed": false,
          "internalType": "uint256",
          "name": "stake",
          "type": "uint256"
        }
      ],
      "name": "StakeDecreased",
      "type": "event"
    },
    {
      "anonymous": false,
      "inputs": [
        {
          "indexed": true,
          "internalType": "address",
          "name": "user",
          "type": "address"
        },
        {
          "indexed": false,
          "internalType": "uint256",
          "name": "stake",
          "type": "uint256"
        }
      ],
      "name": "StakeIncreased",
      "type": "event"
    },
    {
      "inputs": [],
      "name": "a",
      "outputs": [
        {
          "internalType": "contract IGovernanceAddressProvider",
          "name": "",
          "type": "address"
        }
      ],
      "stateMutability": "view",
      "type": "function"
    },
    {
      "inputs": [
        {
          "internalType": "address",
          "name": "_user",
          "type": "address"
        }
      ],
      "name": "pendingMIMO",
      "outputs": [
        {
          "internalType": "uint256",
          "name": "",
          "type": "uint256"
        }
      ],
      "stateMutability": "view",
      "type": "function"
    },
    {
      "inputs": [
        {
          "internalType": "address",
          "name": "_user",
          "type": "address"
        }
      ],
      "name": "releaseMIMO",
      "outputs": [],
      "stateMutability": "nonpayable",
      "type": "function"
    },
    {
      "inputs": [
        {
          "internalType": "address",
          "name": "_user",
          "type": "address"
        }
      ],
      "name": "stake",
      "outputs": [
        {
          "internalType": "uint256",
          "name": "",
          "type": "uint256"
        }
      ],
      "stateMutability": "view",
      "type": "function"
    },
    {
      "inputs": [],
      "name": "totalStake",
      "outputs": [
        {
          "internalType": "uint256",
          "name": "",
          "type": "uint256"
        }
      ],
      "stateMutability": "view",
      "type": "function"
    },
    {
      "inputs": [
        {
          "internalType": "address",
          "name": "_user",
          "type": "address"
        }
      ],
      "name": "userInfo",
      "outputs": [
        {
          "components": [
            {
              "internalType": "uint256",
              "name": "stake",
              "type": "uint256"
            },
            {
              "internalType": "uint256",
              "name": "accAmountPerShare",
              "type": "uint256"
            }
          ],
          "internalType": "struct IGenericMiner.UserInfo",
          "name": "",
          "type": "tuple"
        }
      ],
      "stateMutability": "view",
      "type": "function"
    },
    {
      "inputs": [
        {
          "internalType": "address",
          "name": "user",
          "type": "address"
        },
        {
          "internalType": "uint256",
          "name": "value",
          "type": "uint256"
        }
      ],
      "name": "increaseStake",
      "outputs": [],
      "stateMutability": "nonpayable",
      "type": "function"
    },
    {
      "inputs": [
        {
          "internalType": "address",
          "name": "user",
          "type": "address"
        },
        {
          "internalType": "uint256",
          "name": "value",
          "type": "uint256"
        }
      ],
      "name": "decreaseStake",
      "outputs": [],
      "stateMutability": "nonpayable",
      "type": "function"
    }
  ],
  "bytecode": "0x608060405234801561001057600080fd5b50604051610e76380380610e7683398101604081905261002f91610069565b806001600160a01b03811661004357600080fd5b600280546001600160a01b0319166001600160a01b039290921691909117905550610097565b60006020828403121561007a578081fd5b81516001600160a01b0381168114610090578182fd5b9392505050565b610dd0806100a66000396000f3fe608060405234801561001057600080fd5b50600436106100885760003560e01c80635d7e94671161005b5780635d7e94671461010057806360ed390a146101135780637c284c0a146101265780638b0e9f3f1461013957610088565b80630dbe671f1461008d5780631959a002146100ab5780631a73ba01146100cb57806326476204146100e0575b600080fd5b610095610141565b6040516100a29190610be1565b60405180910390f35b6100be6100b9366004610b46565b610150565b6040516100a29190610d62565b6100de6100d9366004610b62565b610189565b005b6100f36100ee366004610b46565b610197565b6040516100a29190610d79565b6100de61010e366004610b62565b6101b2565b6100de610121366004610b46565b6101bc565b6100f3610134366004610b46565b610324565b6100f36104bc565b6002546001600160a01b031681565b610158610b2c565b506001600160a01b031660009081526020818152604091829020825180840190935280548352600101549082015290565b61019382826104c2565b5050565b6001600160a01b031660009081526020819052604090205490565b61019382826106d1565b6001600160a01b03811660009081526020819052604090206101dc6108be565b60006102026101fa83600101546004546109fd90919063ffffffff16565b835490610a2a565b60035490915061021290826109fd565b60035560048054600184015560025460408051636d9b182360e01b815290516001600160a01b0390921692636d9b1823928282019260209290829003018186803b15801561025f57600080fd5b505afa158015610273573d6000803e3d6000fd5b505050506040513d601f19601f820116820180604052508101906102979190610bad565b6001600160a01b031663a9059cbb84836040518363ffffffff1660e01b81526004016102c4929190610bf5565b602060405180830381600087803b1580156102de57600080fd5b505af11580156102f2573d6000803e3d6000fd5b505050506040513d601f19601f820116820180604052508101906103169190610b8d565b61031f57600080fd5b505050565b600080600260009054906101000a90046001600160a01b03166001600160a01b0316636d9b18236040518163ffffffff1660e01b815260040160206040518083038186803b15801561037557600080fd5b505afa158015610389573d6000803e3d6000fd5b505050506040513d601f19601f820116820180604052508101906103ad9190610bad565b6001600160a01b03166370a08231306040518263ffffffff1660e01b81526004016103d89190610be1565b60206040518083038186803b1580156103f057600080fd5b505afa158015610404573d6000803e3d6000fd5b505050506040513d601f19601f820116820180604052508101906104289190610bc9565b90506000610441600354836109fd90919063ffffffff16565b9050600061046661045d60015484610a6990919063ffffffff16565b60045490610a9b565b6001600160a01b0386166000908152602081905260409020600101549091506104b3906104949083906109fd565b6001600160a01b03871660009081526020819052604090205490610a2a565b95945050505050565b60015481565b600081116104eb5760405162461bcd60e51b81526004016104e290610cf4565b60405180910390fd5b6001600160a01b038216600090815260208190526040902080548211156105245760405162461bcd60e51b81526004016104e290610d2b565b61052c6108be565b600061054a6101fa83600101546004546109fd90919063ffffffff16565b60035490915061055a90826109fd565b600355815461056990846109fd565b82556004546001808401919091555461058290846109fd565b60015560025460408051636d9b182360e01b815290516001600160a01b0390921691636d9b182391600480820192602092909190829003018186803b1580156105ca57600080fd5b505afa1580156105de573d6000803e3d6000fd5b505050506040513d601f19601f820116820180604052508101906106029190610bad565b6001600160a01b031663a9059cbb85836040518363ffffffff1660e01b815260040161062f929190610bf5565b602060405180830381600087803b15801561064957600080fd5b505af115801561065d573d6000803e3d6000fd5b505050506040513d601f19601f820116820180604052508101906106819190610b8d565b61068a57600080fd5b836001600160a01b03167f700865370ffb2a65a2b0242e6a64b21ac907ed5ecd46c9cffc729c177b2b1c69846040516106c39190610d79565b60405180910390a250505050565b600081116106f15760405162461bcd60e51b81526004016104e290610cf4565b6001600160a01b03821660009081526020819052604090206107116108be565b80546000901561074b576107376101fa83600101546004546109fd90919063ffffffff16565b60035490915061074790826109fd565b6003555b6001546107589084610a9b565b60015581546107679084610a9b565b82556004546001830155801561088557600260009054906101000a90046001600160a01b03166001600160a01b0316636d9b18236040518163ffffffff1660e01b815260040160206040518083038186803b1580156107c557600080fd5b505afa1580156107d9573d6000803e3d6000fd5b505050506040513d601f19601f820116820180604052508101906107fd9190610bad565b6001600160a01b031663a9059cbb85836040518363ffffffff1660e01b815260040161082a929190610bf5565b602060405180830381600087803b15801561084457600080fd5b505af1158015610858573d6000803e3d6000fd5b505050506040513d601f19601f8201168201806040525081019061087c9190610b8d565b61088557600080fd5b836001600160a01b03167f8b0ed825817a2e696c9a931715af4609fc60e1701f09c89ee7645130e937eb2d846040516106c39190610d79565b6001546108ca576109fb565b60025460408051636d9b182360e01b815290516000926001600160a01b031691636d9b1823916004808301926020929190829003018186803b15801561090f57600080fd5b505afa158015610923573d6000803e3d6000fd5b505050506040513d601f19601f820116820180604052508101906109479190610bad565b6001600160a01b03166370a08231306040518263ffffffff1660e01b81526004016109729190610be1565b60206040518083038186803b15801561098a57600080fd5b505afa15801561099e573d6000803e3d6000fd5b505050506040513d601f19601f820116820180604052508101906109c29190610bc9565b905060006109db600354836109fd90919063ffffffff16565b60038390556001549091506109f59061045d908390610a69565b60045550505b565b600082821115610a1f5760405162461bcd60e51b81526004016104e290610c45565b508082035b92915050565b6000610a626b033b2e3c9fd0803ce8000000610a5c610a498686610ac0565b6b019d971e4fe8401e7400000090610a9b565b90610afa565b9392505050565b600060028204610a9383610a5c610a8c876b033b2e3c9fd0803ce8000000610ac0565b8490610a9b565b949350505050565b600082820183811015610a625760405162461bcd60e51b81526004016104e290610c0e565b600082610acf57506000610a24565b82820282848281610adc57fe5b0414610a625760405162461bcd60e51b81526004016104e290610cb3565b6000808211610b1b5760405162461bcd60e51b81526004016104e290610c7c565b818381610b2457fe5b049392505050565b604051806040016040528060008152602001600081525090565b600060208284031215610b57578081fd5b8135610a6281610d82565b60008060408385031215610b74578081fd5b8235610b7f81610d82565b946020939093013593505050565b600060208284031215610b9e578081fd5b81518015158114610a62578182fd5b600060208284031215610bbe578081fd5b8151610a6281610d82565b600060208284031215610bda578081fd5b5051919050565b6001600160a01b0391909116815260200190565b6001600160a01b03929092168252602082015260400190565b6020808252601b908201527f536166654d6174683a206164646974696f6e206f766572666c6f770000000000604082015260600190565b6020808252601e908201527f536166654d6174683a207375627472616374696f6e206f766572666c6f770000604082015260600190565b6020808252601a908201527f536166654d6174683a206469766973696f6e206279207a65726f000000000000604082015260600190565b60208082526021908201527f536166654d6174683a206d756c7469706c69636174696f6e206f766572666c6f6040820152607760f81b606082015260800190565b6020808252601f908201527f5354414b455f4d5553545f42455f475245415445525f5448414e5f5a45524f00604082015260600190565b6020808252601b908201527f494e53554646494349454e545f5354414b455f464f525f555345520000000000604082015260600190565b815181526020918201519181019190915260400190565b90815260200190565b6001600160a01b0381168114610d9757600080fd5b5056fea2646970667358221220e4f635dd03036f87b89f785d6457b8001ba73af2e4ae4f38cb0a60fce688ee3364736f6c634300060c0033",
  "immutableReferences": {},
  "source": "// SPDX-License-Identifier: MIT\n\npragma experimental ABIEncoderV2;\npragma solidity 0.6.12;\n\nimport \"../liquidityMining/GenericMiner.sol\";\nimport \"../governance/interfaces/IGovernanceAddressProvider.sol\";\n\ncontract MockGenericMiner is GenericMiner {\n  constructor(IGovernanceAddressProvider _addresses) public GenericMiner(_addresses) {}\n\n  function increaseStake(address user, uint256 value) public {\n    _increaseStake(user, value);\n  }\n\n  function decreaseStake(address user, uint256 value) public {\n    _decreaseStake(user, value);\n  }\n}\n",
  "sourcePath": "/home/mingyue/sub_contract_content/Web3Bugs/contracts/115/core/contracts/mocks/MockGenericMiner.sol",
  "compiler": {
    "name": "solc",
    "version": "0.6.12+commit.27d51765.Emscripten.clang"
  },
  "schemaVersion": "3.4.7",
  "updatedAt": "2025-02-28T14:09:34.664Z",
  "devdoc": {
    "kind": "dev",
    "methods": {
      "pendingMIMO(address)": {
        "params": {
          "_user": "the address of the user."
        },
        "returns": {
          "_0": "number of MIMO tokens that the user can claim"
        }
      },
      "releaseMIMO(address)": {
        "params": {
          "_user": "the address of the user for which the MIMO tokens will be released."
        }
      },
      "stake(address)": {
        "params": {
          "_user": "the address of the user."
        },
        "returns": {
          "_0": "number of staked tokens"
        }
      },
      "userInfo(address)": {
        "params": {
          "_user": "the address of the user."
        },
        "returns": {
          "_0": "`struct UserInfo { uint256 stake; uint256 rewardDebt; }`*"
        }
      }
    },
    "version": 1
  },
  "userdoc": {
    "kind": "user",
    "methods": {
      "pendingMIMO(address)": {
        "notice": "Returns the number of tokens a user can claim via `releaseMIMO`."
      },
      "releaseMIMO(address)": {
        "notice": "Releases the outstanding MIMO balance to the user."
      },
      "stake(address)": {
        "notice": "Returns the number of tokens a user has staked."
      },
      "userInfo(address)": {
        "notice": "Returns the userInfo stored of a user."
      }
    },
    "version": 1
  }
}