{
  "contractName": "PARMiner",
  "abi": [
    {
      "inputs": [
        {
          "internalType": "contract IGovernanceAddressProvider",
          "name": "_addresses",
          "type": "address"
        }
      ],
      "stateMutability": "nonpayable",
      "type": "constructor"
    },
    {
      "anonymous": false,
      "inputs": [
        {
          "indexed": true,
          "internalType": "address",
          "name": "user",
          "type": "address"
        },
        {
          "indexed": false,
          "internalType": "uint256",
          "name": "stake",
          "type": "uint256"
        }
      ],
      "name": "StakeDecreased",
      "type": "event"
    },
    {
      "anonymous": false,
      "inputs": [
        {
          "indexed": true,
          "internalType": "address",
          "name": "user",
          "type": "address"
        },
        {
          "indexed": false,
          "internalType": "uint256",
          "name": "stake",
          "type": "uint256"
        }
      ],
      "name": "StakeIncreased",
      "type": "event"
    },
    {
      "inputs": [],
      "name": "a",
      "outputs": [
        {
          "internalType": "contract IGovernanceAddressProvider",
          "name": "",
          "type": "address"
        }
      ],
      "stateMutability": "view",
      "type": "function"
    },
    {
      "inputs": [],
      "name": "par",
      "outputs": [
        {
          "internalType": "contract IERC20",
          "name": "",
          "type": "address"
        }
      ],
      "stateMutability": "view",
      "type": "function"
    },
    {
      "inputs": [],
      "name": "totalStake",
      "outputs": [
        {
          "internalType": "uint256",
          "name": "",
          "type": "uint256"
        }
      ],
      "stateMutability": "view",
      "type": "function"
    },
    {
      "inputs": [
        {
          "internalType": "uint256",
          "name": "amount",
          "type": "uint256"
        }
      ],
      "name": "deposit",
      "outputs": [],
      "stateMutability": "nonpayable",
      "type": "function"
    },
    {
      "inputs": [
        {
          "internalType": "uint256",
          "name": "amount",
          "type": "uint256"
        }
      ],
      "name": "withdraw",
      "outputs": [],
      "stateMutability": "nonpayable",
      "type": "function"
    },
    {
      "inputs": [
        {
          "internalType": "address",
          "name": "_user",
          "type": "address"
        }
      ],
      "name": "releaseMIMO",
      "outputs": [],
      "stateMutability": "nonpayable",
      "type": "function"
    },
    {
      "inputs": [
        {
          "internalType": "address",
          "name": "_user",
          "type": "address"
        }
      ],
      "name": "releasePAR",
      "outputs": [],
      "stateMutability": "nonpayable",
      "type": "function"
    },
    {
      "inputs": [
        {
          "internalType": "address",
          "name": "_user",
          "type": "address"
        }
      ],
      "name": "restakePAR",
      "outputs": [],
      "stateMutability": "nonpayable",
      "type": "function"
    },
    {
      "inputs": [
        {
          "internalType": "address",
          "name": "_user",
          "type": "address"
        }
      ],
      "name": "stake",
      "outputs": [
        {
          "internalType": "uint256",
          "name": "",
          "type": "uint256"
        }
      ],
      "stateMutability": "view",
      "type": "function"
    },
    {
      "inputs": [
        {
          "internalType": "address",
          "name": "_user",
          "type": "address"
        }
      ],
      "name": "pendingMIMO",
      "outputs": [
        {
          "internalType": "uint256",
          "name": "",
          "type": "uint256"
        }
      ],
      "stateMutability": "view",
      "type": "function"
    },
    {
      "inputs": [
        {
          "internalType": "address",
          "name": "_user",
          "type": "address"
        }
      ],
      "name": "pendingPAR",
      "outputs": [
        {
          "internalType": "uint256",
          "name": "",
          "type": "uint256"
        }
      ],
      "stateMutability": "view",
      "type": "function"
    },
    {
      "inputs": [
        {
          "internalType": "address",
          "name": "_user",
          "type": "address"
        }
      ],
      "name": "userInfo",
      "outputs": [
        {
          "components": [
            {
              "internalType": "uint256",
              "name": "stake",
              "type": "uint256"
            },
            {
              "internalType": "uint256",
              "name": "accAmountPerShare",
              "type": "uint256"
            },
            {
              "internalType": "uint256",
              "name": "accParAmountPerShare",
              "type": "uint256"
            }
          ],
          "internalType": "struct PARMiner.UserInfo",
          "name": "",
          "type": "tuple"
        }
      ],
      "stateMutability": "view",
      "type": "function"
    }
  ],
  "bytecode": "0x60806040523480156200001157600080fd5b506040516200174d3803806200174d833981016040819052620000349162000173565b6001600160a01b0381166200004857600080fd5b600380546001600160a01b0319166001600160a01b03831690811790915560408051633df06b5960e01b81529051633df06b5991600480820192602092909190829003018186803b1580156200009d57600080fd5b505afa158015620000b2573d6000803e3d6000fd5b505050506040513d601f19601f82011682018060405250810190620000d8919062000173565b6001600160a01b03166316d8a5a96040518163ffffffff1660e01b815260040160206040518083038186803b1580156200011157600080fd5b505afa15801562000126573d6000803e3d6000fd5b505050506040513d601f19601f820116820180604052508101906200014c919062000173565b600080546001600160a01b0319166001600160a01b039290921691909117905550620001b2565b60006020828403121562000185578081fd5b8151620001928162000199565b9392505050565b6001600160a01b0381168114620001af57600080fd5b50565b61158b80620001c26000396000f3fe608060405234801561001057600080fd5b50600436106100b45760003560e01c80636ae01bfd116100715780636ae01bfd146101475780637c284c0a1461015a5780638b0e9f3f1461016d5780638d4aedc014610175578063a3898c0714610188578063b6b55f251461019b576100b4565b80630dbe671f146100b95780631959a002146100d757806326476204146100f75780632e1a7d4d14610117578063495d32cb1461012c57806360ed390a14610134575b600080fd5b6100c16101ae565b6040516100ce9190611291565b60405180910390f35b6100ea6100e53660046111ed565b6101bd565b6040516100ce91906114ea565b61010a6101053660046111ed565b610206565b6040516100ce919061150b565b61012a610125366004611245565b610221565b005b6100c1610245565b61012a6101423660046111ed565b610254565b61012a6101553660046111ed565b6103c8565b61010a6101683660046111ed565b61045e565b61010a6105f7565b61012a6101833660046111ed565b6105fd565b61010a6101963660046111ed565b61066b565b61012a6101a9366004611245565b610767565b6003546001600160a01b031681565b6101c56111cc565b506001600160a01b03166000908152600160208181526040928390208351606081018552815481529281015491830191909152600201549181019190915290565b6001600160a01b031660009081526001602052604090205490565b600054610238906001600160a01b03163383610789565b61024233826107df565b50565b6000546001600160a01b031681565b6001600160a01b0381166000908152600160205260409020610274610ae3565b61027f600254610c22565b60006102a561029d8360010154600554610ca090919063ffffffff16565b835490610ccd565b6004549091506102b59082610ca0565b6004908155600554600184015560035460408051636d9b182360e01b815290516001600160a01b0390921692636d9b1823928282019260209290829003018186803b15801561030357600080fd5b505afa158015610317573d6000803e3d6000fd5b505050506040513d601f19601f8201168201806040525081019061033b9190611229565b6001600160a01b031663a9059cbb84836040518363ffffffff1660e01b81526004016103689291906112c9565b602060405180830381600087803b15801561038257600080fd5b505af1158015610396573d6000803e3d6000fd5b505050506040513d601f19601f820116820180604052508101906103ba9190611209565b6103c357600080fd5b505050565b6001600160a01b03811660009081526001602052604090206103e8610ae3565b6103f3600254610c22565b600061041161029d8360020154600754610ca090919063ffffffff16565b6006549091506104219082610ca0565b600655600754600283015560005460405163a9059cbb60e01b81526001600160a01b039091169063a9059cbb9061036890869085906004016112c9565b600080600360009054906101000a90046001600160a01b03166001600160a01b0316636d9b18236040518163ffffffff1660e01b815260040160206040518083038186803b1580156104af57600080fd5b505afa1580156104c3573d6000803e3d6000fd5b505050506040513d601f19601f820116820180604052508101906104e79190611229565b6001600160a01b03166370a08231306040518263ffffffff1660e01b81526004016105129190611291565b60206040518083038186803b15801561052a57600080fd5b505afa15801561053e573d6000803e3d6000fd5b505050506040513d601f19601f82011682018060405250810190610562919061125d565b9050600061057b60045483610ca090919063ffffffff16565b905060006105a061059760025484610d0c90919063ffffffff16565b60055490610d3e565b6001600160a01b038616600090815260016020819052604090912001549091506105ee906105cf908390610ca0565b6001600160a01b03871660009081526001602052604090205490610ccd565b95945050505050565b60025481565b6001600160a01b038116600090815260016020526040902061061d610ae3565b610628600254610c22565b600061064661029d8360020154600754610ca090919063ffffffff16565b6006549091506106569082610ca0565b60065560075460028301556103c38382610d63565b600254600080546040516370a0823160e01b8152919283926106fb926001600160a01b0316906370a08231906106a5903090600401611291565b60206040518083038186803b1580156106bd57600080fd5b505afa1580156106d1573d6000803e3d6000fd5b505050506040513d601f19601f820116820180604052508101906106f5919061125d565b90610ca0565b9050600061071460065483610ca090919063ffffffff16565b9050600061073961073060025484610d0c90919063ffffffff16565b60075490610d3e565b6001600160a01b0386166000908152600160205260409020600201549091506105ee906105cf908390610ca0565b60005461077f906001600160a01b0316333084610fc1565b6102423382610d63565b6103c38363a9059cbb60e01b84846040516024016107a89291906112c9565b60408051601f198184030181529190526020810180516001600160e01b03166001600160e01b031990931692909217909152610fe8565b600081116108085760405162461bcd60e51b81526004016107ff906113fb565b60405180910390fd5b6001600160a01b038216600090815260016020526040902080548211156108415760405162461bcd60e51b81526004016107ff90611469565b610849610ae3565b6002546000906108599084610ca0565b905061086481610c22565b600061088a6108828460010154600554610ca090919063ffffffff16565b845490610ccd565b60045490915061089a9082610ca0565b600455600554600184015560028301546007546000916108c5916108bd91610ca0565b855490610ccd565b6006549091506108d59082610ca0565b600655600754600285015583546108ec9086610ca0565b845560028390558115610a0757600360009054906101000a90046001600160a01b03166001600160a01b0316636d9b18236040518163ffffffff1660e01b815260040160206040518083038186803b15801561094757600080fd5b505afa15801561095b573d6000803e3d6000fd5b505050506040513d601f19601f8201168201806040525081019061097f9190611229565b6001600160a01b031663a9059cbb87846040518363ffffffff1660e01b81526004016109ac9291906112c9565b602060405180830381600087803b1580156109c657600080fd5b505af11580156109da573d6000803e3d6000fd5b505050506040513d601f19601f820116820180604052508101906109fe9190611209565b610a0757600080fd5b8015610a9a5760005460405163a9059cbb60e01b81526001600160a01b039091169063a9059cbb90610a3f90899085906004016112c9565b602060405180830381600087803b158015610a5957600080fd5b505af1158015610a6d573d6000803e3d6000fd5b505050506040513d601f19601f82011682018060405250810190610a919190611209565b610a9a57600080fd5b856001600160a01b03167f700865370ffb2a65a2b0242e6a64b21ac907ed5ecd46c9cffc729c177b2b1c6986604051610ad3919061150b565b60405180910390a2505050505050565b600254610aef57610c20565b60035460408051636d9b182360e01b815290516000926001600160a01b031691636d9b1823916004808301926020929190829003018186803b158015610b3457600080fd5b505afa158015610b48573d6000803e3d6000fd5b505050506040513d601f19601f82011682018060405250810190610b6c9190611229565b6001600160a01b03166370a08231306040518263ffffffff1660e01b8152600401610b979190611291565b60206040518083038186803b158015610baf57600080fd5b505afa158015610bc3573d6000803e3d6000fd5b505050506040513d601f19601f82011682018060405250810190610be7919061125d565b90506000610c0060045483610ca090919063ffffffff16565b6004839055600254909150610c1a90610597908390610d0c565b60055550505b565b600254610c2e57610242565b600080546040516370a0823160e01b8152610c659184916001600160a01b03909116906370a08231906106a5903090600401611291565b90506000610c7e60065483610ca090919063ffffffff16565b6006839055600254909150610c9890610730908390610d0c565b600755505050565b600082821115610cc25760405162461bcd60e51b81526004016107ff9061134c565b508082035b92915050565b6000610d056b033b2e3c9fd0803ce8000000610cff610cec8686611077565b6b019d971e4fe8401e7400000090610d3e565b906110b1565b9392505050565b600060028204610d3683610cff610d2f876b033b2e3c9fd0803ce8000000611077565b8490610d3e565b949350505050565b600082820183811015610d055760405162461bcd60e51b81526004016107ff90611315565b60008111610d835760405162461bcd60e51b81526004016107ff906113fb565b6001600160a01b0382166000908152600160205260409020610da3610ae3565b600254600090610db39084610d3e565b9050610dbe81610c22565b8154600090819015610e2357610de66108bd8560010154600554610ca090919063ffffffff16565b600454909250610df69083610ca0565b6004556002840154600754610e0f916108bd9190610ca0565b600654909150610e1f9082610ca0565b6006555b60028390558354610e349086610d3e565b8455600554600185015560075460028501558015610e6b578354610e589082610d3e565b8455600254610e679082610d3e565b6002555b8115610f7f57600360009054906101000a90046001600160a01b03166001600160a01b0316636d9b18236040518163ffffffff1660e01b815260040160206040518083038186803b158015610ebf57600080fd5b505afa158015610ed3573d6000803e3d6000fd5b505050506040513d601f19601f82011682018060405250810190610ef79190611229565b6001600160a01b031663a9059cbb87846040518363ffffffff1660e01b8152600401610f249291906112c9565b602060405180830381600087803b158015610f3e57600080fd5b505af1158015610f52573d6000803e3d6000fd5b505050506040513d601f19601f82011682018060405250810190610f769190611209565b610f7f57600080fd5b6001600160a01b0386167f8b0ed825817a2e696c9a931715af4609fc60e1701f09c89ee7645130e937eb2d610fb48784610d3e565b604051610ad3919061150b565b610fe2846323b872dd60e01b8585856040516024016107a8939291906112a5565b50505050565b606061103d826040518060400160405280602081526020017f5361666545524332303a206c6f772d6c6576656c2063616c6c206661696c6564815250856001600160a01b03166110e39092919063ffffffff16565b8051909150156103c3578080602001905181019061105b9190611209565b6103c35760405162461bcd60e51b81526004016107ff906114a0565b60008261108657506000610cc7565b8282028284828161109357fe5b0414610d055760405162461bcd60e51b81526004016107ff906113ba565b60008082116110d25760405162461bcd60e51b81526004016107ff90611383565b8183816110db57fe5b049392505050565b6060610d368484600085856110f78561118d565b6111135760405162461bcd60e51b81526004016107ff90611432565b60006060866001600160a01b031685876040516111309190611275565b60006040518083038185875af1925050503d806000811461116d576040519150601f19603f3d011682016040523d82523d6000602084013e611172565b606091505b5091509150611182828286611193565b979650505050505050565b3b151590565b606083156111a2575081610d05565b8251156111b25782518084602001fd5b8160405162461bcd60e51b81526004016107ff91906112e2565b60405180606001604052806000815260200160008152602001600081525090565b6000602082840312156111fe578081fd5b8135610d0581611540565b60006020828403121561121a578081fd5b81518015158114610d05578182fd5b60006020828403121561123a578081fd5b8151610d0581611540565b600060208284031215611256578081fd5b5035919050565b60006020828403121561126e578081fd5b5051919050565b60008251611287818460208701611514565b9190910192915050565b6001600160a01b0391909116815260200190565b6001600160a01b039384168152919092166020820152604081019190915260600190565b6001600160a01b03929092168252602082015260400190565b6000602082528251806020840152611301816040850160208701611514565b601f01601f19169190910160400192915050565b6020808252601b908201527f536166654d6174683a206164646974696f6e206f766572666c6f770000000000604082015260600190565b6020808252601e908201527f536166654d6174683a207375627472616374696f6e206f766572666c6f770000604082015260600190565b6020808252601a908201527f536166654d6174683a206469766973696f6e206279207a65726f000000000000604082015260600190565b60208082526021908201527f536166654d6174683a206d756c7469706c69636174696f6e206f766572666c6f6040820152607760f81b606082015260800190565b6020808252601f908201527f5354414b455f4d5553545f42455f475245415445525f5448414e5f5a45524f00604082015260600190565b6020808252601d908201527f416464726573733a2063616c6c20746f206e6f6e2d636f6e7472616374000000604082015260600190565b6020808252601b908201527f494e53554646494349454e545f5354414b455f464f525f555345520000000000604082015260600190565b6020808252602a908201527f5361666545524332303a204552433230206f7065726174696f6e20646964206e6040820152691bdd081cdd58d8d9595960b21b606082015260800190565b81518152602080830151908201526040918201519181019190915260600190565b90815260200190565b60005b8381101561152f578181015183820152602001611517565b83811115610fe25750506000910152565b6001600160a01b038116811461024257600080fdfea2646970667358221220542652800435ad52ade81c84f2fd7e7b0ce12afae89d13bb9ab5b2c9babd091164736f6c634300060c0033",
  "immutableReferences": {},
  "source": "// SPDX-License-Identifier: MIT\n\npragma experimental ABIEncoderV2;\npragma solidity 0.6.12;\n\nimport \"@openzeppelin/contracts/math/SafeMath.sol\";\nimport \"../libraries/WadRayMath.sol\";\nimport \"@openzeppelin/contracts/token/ERC20/IERC20.sol\";\nimport \"@openzeppelin/contracts/token/ERC20/SafeERC20.sol\";\nimport \"./interfaces/IMIMO.sol\";\nimport \"./interfaces/IGenericMiner.sol\";\n\ncontract PARMiner {\n  using SafeMath for uint256;\n  using WadRayMath for uint256;\n  using SafeERC20 for IERC20;\n\n  struct UserInfo {\n    uint256 stake;\n    uint256 accAmountPerShare;\n    uint256 accParAmountPerShare;\n  }\n\n  event StakeIncreased(address indexed user, uint256 stake);\n  event StakeDecreased(address indexed user, uint256 stake);\n\n  IERC20 public par;\n\n  mapping(address => UserInfo) internal _users;\n\n  uint256 public totalStake;\n  IGovernanceAddressProvider public a;\n\n  uint256 internal _balanceTracker;\n  uint256 internal _accAmountPerShare;\n\n  uint256 internal _parBalanceTracker;\n  uint256 internal _accParAmountPerShare;\n\n  constructor(IGovernanceAddressProvider _addresses) public {\n    require(address(_addresses) != address(0));\n    a = _addresses;\n\n    par = IERC20(_addresses.parallel().stablex());\n  }\n\n  /**\n    Deposit an ERC20 pool token for staking\n    @dev this function uses `transferFrom()` and requires pre-approval via `approve()` on the ERC20.\n    @param amount the amount of tokens to be deposited. Unit is in WEI.\n  **/\n  function deposit(uint256 amount) public {\n    par.safeTransferFrom(msg.sender, address(this), amount);\n    _increaseStake(msg.sender, amount);\n  }\n\n  /**\n    Withdraw staked ERC20 pool tokens. Will fail if user does not have enough tokens staked.\n    @param amount the amount of tokens to be withdrawn. Unit is in WEI.\n  **/\n  function withdraw(uint256 amount) public {\n    par.safeTransfer(msg.sender, amount);\n    _decreaseStake(msg.sender, amount);\n  }\n\n  /**\n    Releases the outstanding MIMO balance to the user.\n    @param _user the address of the user for which the MIMO tokens will be released.\n  */\n  function releaseMIMO(address _user) public virtual {\n    UserInfo storage userInfo = _users[_user];\n    _refresh();\n    _refreshPAR(totalStake);\n    uint256 pending = userInfo.stake.rayMul(_accAmountPerShare.sub(userInfo.accAmountPerShare));\n    _balanceTracker = _balanceTracker.sub(pending);\n    userInfo.accAmountPerShare = _accAmountPerShare;\n    require(a.mimo().transfer(_user, pending));\n  }\n\n  /**\n    Releases the outstanding PAR reward balance to the user.\n    @param _user the address of the user for which the PAR tokens will be released.\n  */\n  function releasePAR(address _user) public virtual {\n    UserInfo storage userInfo = _users[_user];\n    _refresh();\n    _refreshPAR(totalStake);\n    uint256 pending = userInfo.stake.rayMul(_accParAmountPerShare.sub(userInfo.accParAmountPerShare));\n    _parBalanceTracker = _parBalanceTracker.sub(pending);\n    userInfo.accParAmountPerShare = _accParAmountPerShare;\n    require(par.transfer(_user, pending));\n  }\n\n  /**\n    Restakes the outstanding PAR reward balance to the user. Instead of sending the PAR to the user, it will be added to their stake\n    @param _user the address of the user for which the PAR tokens will be restaked.\n  */\n  function restakePAR(address _user) public virtual {\n    UserInfo storage userInfo = _users[_user];\n    _refresh();\n    _refreshPAR(totalStake);\n    uint256 pending = userInfo.stake.rayMul(_accParAmountPerShare.sub(userInfo.accParAmountPerShare));\n    _parBalanceTracker = _parBalanceTracker.sub(pending);\n    userInfo.accParAmountPerShare = _accParAmountPerShare;\n\n    _increaseStake(_user, pending);\n  }\n\n  /**\n    Returns the number of tokens a user has staked.\n    @param _user the address of the user.\n    @return number of staked tokens\n  */\n  function stake(address _user) public view returns (uint256) {\n    return _users[_user].stake;\n  }\n\n  /**\n    Returns the number of tokens a user can claim via `releaseMIMO`.\n    @param _user the address of the user.\n    @return number of MIMO tokens that the user can claim\n  */\n  function pendingMIMO(address _user) public view returns (uint256) {\n    uint256 currentBalance = a.mimo().balanceOf(address(this));\n    uint256 reward = currentBalance.sub(_balanceTracker);\n    uint256 accAmountPerShare = _accAmountPerShare.add(reward.rayDiv(totalStake));\n\n    return _users[_user].stake.rayMul(accAmountPerShare.sub(_users[_user].accAmountPerShare));\n  }\n\n  /**\n    Returns the number of PAR tokens the user has earned as a reward\n    @param _user the address of the user.\n    @return nnumber of PAR tokens that will be sent automatically when staking/unstaking\n  */\n  function pendingPAR(address _user) public view returns (uint256) {\n    uint256 currentBalance = par.balanceOf(address(this)).sub(totalStake);\n    uint256 reward = currentBalance.sub(_parBalanceTracker);\n    uint256 accParAmountPerShare = _accParAmountPerShare.add(reward.rayDiv(totalStake));\n\n    return _users[_user].stake.rayMul(accParAmountPerShare.sub(_users[_user].accParAmountPerShare));\n  }\n\n  /**\n    Returns the userInfo stored of a user.\n    @param _user the address of the user.\n    @return `struct UserInfo {\n      uint256 stake;\n      uint256 rewardDebt;\n    }`\n  **/\n  function userInfo(address _user) public view returns (UserInfo memory) {\n    return _users[_user];\n  }\n\n  /**\n    Refreshes the global state and subsequently decreases the stake a user has.\n    This is an internal call and meant to be called within derivative contracts.\n    @param user the address of the user\n    @param value the amount by which the stake will be reduced\n  */\n  function _decreaseStake(address user, uint256 value) internal {\n    require(value > 0, \"STAKE_MUST_BE_GREATER_THAN_ZERO\"); //TODO cleanup error message\n\n    UserInfo storage userInfo = _users[user];\n    require(userInfo.stake >= value, \"INSUFFICIENT_STAKE_FOR_USER\"); //TODO cleanup error message\n    _refresh();\n    uint256 newTotalStake = totalStake.sub(value);\n    _refreshPAR(newTotalStake);\n\n    uint256 pending = userInfo.stake.rayMul(_accAmountPerShare.sub(userInfo.accAmountPerShare));\n    _balanceTracker = _balanceTracker.sub(pending);\n    userInfo.accAmountPerShare = _accAmountPerShare;\n\n    uint256 pendingPAR = userInfo.stake.rayMul(_accParAmountPerShare.sub(userInfo.accParAmountPerShare));\n\n    _parBalanceTracker = _parBalanceTracker.sub(pendingPAR);\n    userInfo.accParAmountPerShare = _accParAmountPerShare;\n\n    userInfo.stake = userInfo.stake.sub(value);\n    totalStake = newTotalStake;\n\n    if (pending > 0) {\n      require(a.mimo().transfer(user, pending));\n    }\n    if (pendingPAR > 0) {\n      require(par.transfer(user, pendingPAR));\n    }\n\n    emit StakeDecreased(user, value);\n  }\n\n  /**\n    Refreshes the global state and subsequently increases a user's stake.\n    This is an internal call and meant to be called within derivative contracts.\n    @param user the address of the user\n    @param value the amount by which the stake will be increased\n  */\n  function _increaseStake(address user, uint256 value) internal {\n    require(value > 0, \"STAKE_MUST_BE_GREATER_THAN_ZERO\"); //TODO cleanup error message\n\n    UserInfo storage userInfo = _users[user];\n\n    _refresh();\n\n    uint256 newTotalStake = totalStake.add(value);\n    _refreshPAR(newTotalStake);\n\n    uint256 pending;\n    uint256 pendingPAR;\n    if (userInfo.stake > 0) {\n      pending = userInfo.stake.rayMul(_accAmountPerShare.sub(userInfo.accAmountPerShare));\n      _balanceTracker = _balanceTracker.sub(pending);\n\n      // maybe we should add the accumulated PAR to the stake of the user instead?\n      pendingPAR = userInfo.stake.rayMul(_accParAmountPerShare.sub(userInfo.accParAmountPerShare));\n      _parBalanceTracker = _parBalanceTracker.sub(pendingPAR);\n    }\n\n    totalStake = newTotalStake;\n    userInfo.stake = userInfo.stake.add(value);\n\n    userInfo.accAmountPerShare = _accAmountPerShare;\n    userInfo.accParAmountPerShare = _accParAmountPerShare;\n\n    if (pendingPAR > 0) {\n      // add pendingPAR balance to stake and totalStake instead of sending it back\n      userInfo.stake = userInfo.stake.add(pendingPAR);\n      totalStake = totalStake.add(pendingPAR);\n    }\n    if (pending > 0) {\n      require(a.mimo().transfer(user, pending));\n    }\n\n    emit StakeIncreased(user, value.add(pendingPAR));\n  }\n\n  /**\n    Refreshes the global state and subsequently updates a user's stake.\n    This is an internal call and meant to be called within derivative contracts.\n    @param user the address of the user\n    @param stake the new amount of stake for the user\n  */\n  function _updateStake(address user, uint256 stake) internal returns (bool) {\n    uint256 oldStake = _users[user].stake;\n    if (stake > oldStake) {\n      _increaseStake(user, stake.sub(oldStake));\n    }\n    if (stake < oldStake) {\n      _decreaseStake(user, oldStake.sub(stake));\n    }\n  }\n\n  /**\n    Updates the internal state variables after accounting for newly received MIMO tokens.\n  */\n  function _refresh() internal {\n    if (totalStake == 0) {\n      return;\n    }\n    uint256 currentBalance = a.mimo().balanceOf(address(this));\n    uint256 reward = currentBalance.sub(_balanceTracker);\n    _balanceTracker = currentBalance;\n    _accAmountPerShare = _accAmountPerShare.add(reward.rayDiv(totalStake));\n  }\n\n  /**\n    Updates the internal state variables after accounting for newly received PAR tokens.\n  */\n  function _refreshPAR(uint256 newTotalStake) internal {\n    if (totalStake == 0) {\n      return;\n    }\n    uint256 currentParBalance = par.balanceOf(address(this)).sub(newTotalStake);\n    uint256 parReward = currentParBalance.sub(_parBalanceTracker);\n\n    _parBalanceTracker = currentParBalance;\n    _accParAmountPerShare = _accParAmountPerShare.add(parReward.rayDiv(totalStake));\n  }\n}\n",
  "sourcePath": "/home/mingyue/sub_contract_content/Web3Bugs/contracts/115/core/contracts/liquidityMining/PARMiner.sol",
  "compiler": {
    "name": "solc",
    "version": "0.6.12+commit.27d51765.Emscripten.clang"
  },
  "schemaVersion": "3.4.7",
  "updatedAt": "2025-02-28T14:09:34.650Z",
  "devdoc": {
    "kind": "dev",
    "methods": {
      "deposit(uint256)": {
        "details": "this function uses `transferFrom()` and requires pre-approval via `approve()` on the ERC20.",
        "params": {
          "amount": "the amount of tokens to be deposited. Unit is in WEI.*"
        }
      },
      "pendingMIMO(address)": {
        "params": {
          "_user": "the address of the user."
        },
        "returns": {
          "_0": "number of MIMO tokens that the user can claim"
        }
      },
      "pendingPAR(address)": {
        "params": {
          "_user": "the address of the user."
        },
        "returns": {
          "_0": "nnumber of PAR tokens that will be sent automatically when staking/unstaking"
        }
      },
      "releaseMIMO(address)": {
        "params": {
          "_user": "the address of the user for which the MIMO tokens will be released."
        }
      },
      "releasePAR(address)": {
        "params": {
          "_user": "the address of the user for which the PAR tokens will be released."
        }
      },
      "restakePAR(address)": {
        "params": {
          "_user": "the address of the user for which the PAR tokens will be restaked."
        }
      },
      "stake(address)": {
        "params": {
          "_user": "the address of the user."
        },
        "returns": {
          "_0": "number of staked tokens"
        }
      },
      "userInfo(address)": {
        "params": {
          "_user": "the address of the user."
        },
        "returns": {
          "_0": "`struct UserInfo { uint256 stake; uint256 rewardDebt; }`*"
        }
      },
      "withdraw(uint256)": {
        "params": {
          "amount": "the amount of tokens to be withdrawn. Unit is in WEI.*"
        }
      }
    },
    "version": 1
  },
  "userdoc": {
    "kind": "user",
    "methods": {
      "deposit(uint256)": {
        "notice": "Deposit an ERC20 pool token for staking"
      },
      "pendingMIMO(address)": {
        "notice": "Returns the number of tokens a user can claim via `releaseMIMO`."
      },
      "pendingPAR(address)": {
        "notice": "Returns the number of PAR tokens the user has earned as a reward"
      },
      "releaseMIMO(address)": {
        "notice": "Releases the outstanding MIMO balance to the user."
      },
      "releasePAR(address)": {
        "notice": "Releases the outstanding PAR reward balance to the user."
      },
      "restakePAR(address)": {
        "notice": "Restakes the outstanding PAR reward balance to the user. Instead of sending the PAR to the user, it will be added to their stake"
      },
      "stake(address)": {
        "notice": "Returns the number of tokens a user has staked."
      },
      "userInfo(address)": {
        "notice": "Returns the userInfo stored of a user."
      },
      "withdraw(uint256)": {
        "notice": "Withdraw staked ERC20 pool tokens. Will fail if user does not have enough tokens staked."
      }
    },
    "version": 1
  }
}