{
  "contractName": "PolygonDistributor",
  "abi": [
    {
      "inputs": [
        {
          "internalType": "contract IGovernanceAddressProvider",
          "name": "_a",
          "type": "address"
        },
        {
          "internalType": "contract IRootChainManager",
          "name": "_rootChainManager",
          "type": "address"
        },
        {
          "internalType": "address",
          "name": "_erc20Predicate",
          "type": "address"
        }
      ],
      "stateMutability": "nonpayable",
      "type": "constructor"
    },
    {
      "anonymous": false,
      "inputs": [
        {
          "indexed": false,
          "internalType": "address",
          "name": "account",
          "type": "address"
        },
        {
          "indexed": false,
          "internalType": "uint256",
          "name": "shares",
          "type": "uint256"
        }
      ],
      "name": "PayeeAdded",
      "type": "event"
    },
    {
      "anonymous": false,
      "inputs": [
        {
          "indexed": false,
          "internalType": "uint256",
          "name": "newTokens",
          "type": "uint256"
        },
        {
          "indexed": false,
          "internalType": "uint256",
          "name": "releasedAt",
          "type": "uint256"
        }
      ],
      "name": "TokensReleased",
      "type": "event"
    },
    {
      "inputs": [],
      "name": "a",
      "outputs": [
        {
          "internalType": "contract IGovernanceAddressProvider",
          "name": "",
          "type": "address"
        }
      ],
      "stateMutability": "view",
      "type": "function"
    },
    {
      "inputs": [
        {
          "internalType": "address[]",
          "name": "_payees",
          "type": "address[]"
        },
        {
          "internalType": "uint256[]",
          "name": "_shares",
          "type": "uint256[]"
        }
      ],
      "name": "changePayees",
      "outputs": [],
      "stateMutability": "nonpayable",
      "type": "function"
    },
    {
      "inputs": [],
      "name": "erc20Predicate",
      "outputs": [
        {
          "internalType": "address",
          "name": "",
          "type": "address"
        }
      ],
      "stateMutability": "view",
      "type": "function"
    },
    {
      "inputs": [],
      "name": "getPayees",
      "outputs": [
        {
          "internalType": "address[]",
          "name": "",
          "type": "address[]"
        }
      ],
      "stateMutability": "view",
      "type": "function"
    },
    {
      "inputs": [
        {
          "internalType": "uint256",
          "name": "",
          "type": "uint256"
        }
      ],
      "name": "payees",
      "outputs": [
        {
          "internalType": "address",
          "name": "",
          "type": "address"
        }
      ],
      "stateMutability": "view",
      "type": "function"
    },
    {
      "inputs": [],
      "name": "release",
      "outputs": [],
      "stateMutability": "nonpayable",
      "type": "function"
    },
    {
      "inputs": [],
      "name": "rootChainManager",
      "outputs": [
        {
          "internalType": "contract IRootChainManager",
          "name": "",
          "type": "address"
        }
      ],
      "stateMutability": "view",
      "type": "function"
    },
    {
      "inputs": [
        {
          "internalType": "address",
          "name": "",
          "type": "address"
        }
      ],
      "name": "shares",
      "outputs": [
        {
          "internalType": "uint256",
          "name": "",
          "type": "uint256"
        }
      ],
      "stateMutability": "view",
      "type": "function"
    },
    {
      "inputs": [],
      "name": "totalShares",
      "outputs": [
        {
          "internalType": "uint256",
          "name": "",
          "type": "uint256"
        }
      ],
      "stateMutability": "view",
      "type": "function"
    },
    {
      "inputs": [],
      "name": "mintableTokens",
      "outputs": [
        {
          "internalType": "uint256",
          "name": "",
          "type": "uint256"
        }
      ],
      "stateMutability": "view",
      "type": "function"
    }
  ],
  "bytecode": "0x60806040523480156200001157600080fd5b50604051620011f4380380620011f48339810160408190526200003491620000b3565b6001600160a01b0383166200004857600080fd5b6001600160a01b0382166200005c57600080fd5b6001600160a01b0381166200007057600080fd5b600380546001600160a01b039485166001600160a01b0319918216179091556004805493851693821693909317909255600580549190931691161790556200011f565b600080600060608486031215620000c8578283fd5b8351620000d58162000106565b6020850151909350620000e88162000106565b6040850151909250620000fb8162000106565b809150509250925092565b6001600160a01b03811681146200011c57600080fd5b50565b6110c5806200012f6000396000f3fe608060405234801561001057600080fd5b506004361061009e5760003560e01c8063acd7af0111610066578063acd7af0114610108578063b68649761461011b578063bd07018d14610123578063ce7c2ac21461012b578063cf3dfae71461013e5761009e565b80630dbe671f146100a357806327f38113146100c15780633a98ef39146100d657806363037b0c146100eb57806386d1a69f146100fe575b600080fd5b6100ab610146565b6040516100b89190610cf1565b60405180910390f35b6100c9610155565b6040516100b89190610d8d565b6100de6101b7565b6040516100b8919061101c565b6100ab6100f9366004610cd9565b6101bd565b6101066101e4565b005b610106610116366004610bc2565b6102bb565b6100ab6105da565b6100ab6105e9565b6100de610139366004610ba6565b6105f8565b6100de61060a565b6003546001600160a01b031681565b606060028054806020026020016040519081016040528092919081815260200182805480156101ad57602002820191906000526020600020905b81546001600160a01b0316815260019091019060200180831161018f575b5050505050905090565b60005481565b600281815481106101ca57fe5b6000918252602090912001546001600160a01b0316905081565b60006101ee61060a565b9050600081116102195760405162461bcd60e51b815260040161021090610eb9565b60405180910390fd5b6002546102385760405162461bcd60e51b815260040161021090610f88565b60005b60025481101561027e5760006002828154811061025457fe5b6000918252602090912001546001600160a01b031690506102758382610707565b5060010161023b565b507f06bfc9e66ca14afa6b27c5211d92e2453d2007b51cd69146f7d2b2b5654cf2b981426040516102b0929190611025565b60405180910390a150565b600360009054906101000a90046001600160a01b03166001600160a01b031663f77c47916040518163ffffffff1660e01b815260040160206040518083038186803b15801561030957600080fd5b505afa15801561031d573d6000803e3d6000fd5b505050506040513d601f19601f820116820180604052508101906103419190610cbd565b6001600160a01b03166391d14854600360009054906101000a90046001600160a01b03166001600160a01b031663f77c47916040518163ffffffff1660e01b815260040160206040518083038186803b15801561039d57600080fd5b505afa1580156103b1573d6000803e3d6000fd5b505050506040513d601f19601f820116820180604052508101906103d59190610cbd565b6001600160a01b031663ec87621c6040518163ffffffff1660e01b815260040160206040518083038186803b15801561040d57600080fd5b505afa158015610421573d6000803e3d6000fd5b505050506040513d601f19601f820116820180604052508101906104459190610ca5565b336040518363ffffffff1660e01b8152600401610463929190610dda565b60206040518083038186803b15801561047b57600080fd5b505afa15801561048f573d6000803e3d6000fd5b505050506040513d601f19601f820116820180604052508101906104b39190610c85565b6104cf5760405162461bcd60e51b815260040161021090610f22565b80518251146104f05760405162461bcd60e51b815260040161021090610fbf565b60008251116105115760405162461bcd60e51b815260040161021090610e28565b600254158015906105295750600061052761060a565b115b15610536576105366101e4565b60005b60025481101561058157600160006002838154811061055457fe5b60009182526020808320909101546001600160a01b03168352820192909252604001812055600101610539565b5061058e60026000610afe565b60008080555b82518110156105d5576105cd8382815181106105ac57fe5b60200260200101518383815181106105c057fe5b6020026020010151610940565b600101610594565b505050565b6005546001600160a01b031681565b6004546001600160a01b031681565b60016020526000908152604090205481565b60035460408051636d9b182360e01b815290516000926001600160a01b031691636d9b1823916004808301926020929190829003018186803b15801561064f57600080fd5b505afa158015610663573d6000803e3d6000fd5b505050506040513d601f19601f820116820180604052508101906106879190610cbd565b6001600160a01b03166370a08231306040518263ffffffff1660e01b81526004016106b29190610cf1565b60206040518083038186803b1580156106ca57600080fd5b505afa1580156106de573d6000803e3d6000fd5b505050506040513d601f19601f820116820180604052508101906107029190610ca5565b905090565b600080546001600160a01b0383168252600160205260408220546107379190610731908690610a64565b90610aa7565b9050600360009054906101000a90046001600160a01b03166001600160a01b0316636d9b18236040518163ffffffff1660e01b815260040160206040518083038186803b15801561078757600080fd5b505afa15801561079b573d6000803e3d6000fd5b505050506040513d601f19601f820116820180604052508101906107bf9190610cbd565b60055460405163095ea7b360e01b81526001600160a01b039283169263095ea7b3926107f2929116908590600401610d74565b602060405180830381600087803b15801561080c57600080fd5b505af1158015610820573d6000803e3d6000fd5b505050506040513d601f19601f820116820180604052508101906108449190610c85565b506004805460035460408051636d9b182360e01b815290516001600160a01b039384169463e3dec8fb9488941692636d9b18239281830192602092829003018186803b15801561089357600080fd5b505afa1580156108a7573d6000803e3d6000fd5b505050506040513d601f19601f820116820180604052508101906108cb9190610cbd565b846040516020016108dc919061101c565b6040516020818303038152906040526040518463ffffffff1660e01b815260040161090993929190610d05565b600060405180830381600087803b15801561092357600080fd5b505af1158015610937573d6000803e3d6000fd5b50505050505050565b6001600160a01b0382166109665760405162461bcd60e51b815260040161021090610f51565b600081116109865760405162461bcd60e51b815260040161021090610ff6565b6001600160a01b038216600090815260016020526040902054156109bc5760405162461bcd60e51b815260040161021090610e4b565b6002805460018082019092557f405787fa12a823e0f2b7631cc41b3ba8828b3321ca811111fa75cd3aa3bb5ace0180546001600160a01b0319166001600160a01b03851690811790915560009081526020919091526040812082905554610a239082610ad9565b6000556040517f40c340f65e17194d14ddddb073d3c9f888e3cb52b5aae0c6c7706b4fbc905fac90610a589084908490610d74565b60405180910390a15050565b600082610a7357506000610aa1565b82820282848281610a8057fe5b0414610a9e5760405162461bcd60e51b815260040161021090610ee1565b90505b92915050565b6000808211610ac85760405162461bcd60e51b815260040161021090610e82565b818381610ad157fe5b049392505050565b600082820183811015610a9e5760405162461bcd60e51b815260040161021090610df1565b5080546000825590600052602060002090810190610b1c9190610b1f565b50565b5b80821115610b345760008155600101610b20565b5090565b600082601f830112610b48578081fd5b8135610b5b610b568261105a565b611033565b818152915060208083019084810181840286018201871015610b7c57600080fd5b60005b84811015610b9b57813584529282019290820190600101610b7f565b505050505092915050565b600060208284031215610bb7578081fd5b8135610a9e8161107a565b60008060408385031215610bd4578081fd5b823567ffffffffffffffff80821115610beb578283fd5b818501915085601f830112610bfe578283fd5b8135610c0c610b568261105a565b80828252602080830192508086018a828387028901011115610c2c578788fd5b8796505b84871015610c57578035610c438161107a565b845260019690960195928101928101610c30565b509096508701359350505080821115610c6e578283fd5b50610c7b85828601610b38565b9150509250929050565b600060208284031215610c96578081fd5b81518015158114610a9e578182fd5b600060208284031215610cb6578081fd5b5051919050565b600060208284031215610cce578081fd5b8151610a9e8161107a565b600060208284031215610cea578081fd5b5035919050565b6001600160a01b0391909116815260200190565b600060018060a01b0380861683526020818616818501526060604085015284519150816060850152825b82811015610d4b57858101820151858201608001528101610d2f565b82811115610d5c5783608084870101525b5050601f01601f191691909101608001949350505050565b6001600160a01b03929092168252602082015260400190565b6020808252825182820181905260009190848201906040850190845b81811015610dce5783516001600160a01b031683529284019291840191600101610da9565b50909695505050505050565b9182526001600160a01b0316602082015260400190565b6020808252601b908201527f536166654d6174683a206164646974696f6e206f766572666c6f770000000000604082015260600190565b6020808252600990820152684e6f2070617965657360b81b604082015260600190565b60208082526018908201527f706179656520616c726561647920686173207368617265730000000000000000604082015260600190565b6020808252601a908201527f536166654d6174683a206469766973696f6e206279207a65726f000000000000604082015260600190565b6020808252600e908201526d06e6577546f6b656e7320697320360941b604082015260600190565b60208082526021908201527f536166654d6174683a206d756c7469706c69636174696f6e206f766572666c6f6040820152607760f81b606082015260800190565b60208082526015908201527421b0b63632b91034b9903737ba1026b0b730b3b2b960591b604082015260600190565b60208082526019908201527f706179656520697320746865207a65726f206164647265737300000000000000604082015260600190565b60208082526019908201527f506179656573206e6f7420636f6e666967757265642079657400000000000000604082015260600190565b6020808252601c908201527f50617965657320616e6420736861726573206d69736d61746368656400000000604082015260600190565b6020808252600c908201526b07368617265732061726520360a41b604082015260600190565b90815260200190565b918252602082015260400190565b60405181810167ffffffffffffffff8111828210171561105257600080fd5b604052919050565b600067ffffffffffffffff821115611070578081fd5b5060209081020190565b6001600160a01b0381168114610b1c57600080fdfea26469706673582212204dadc9ec39a98cf5911f7bf1f3323eb28cfd427405c1a0d2315981f047aa86c764736f6c634300060c0033",
  "immutableReferences": {},
  "source": "// SPDX-License-Identifier: MIT\n\npragma experimental ABIEncoderV2;\npragma solidity 0.6.12;\n\nimport \"@openzeppelin/contracts/math/SafeMath.sol\";\nimport \"../libraries/interfaces/IRootChainManager.sol\";\nimport \"../governance/interfaces/IGovernanceAddressProvider.sol\";\nimport \"./BaseDistributor.sol\";\n\ncontract PolygonDistributor is BaseDistributor {\n  using SafeMath for uint256;\n\n  IRootChainManager public rootChainManager;\n  address public erc20Predicate;\n\n  constructor(\n    IGovernanceAddressProvider _a,\n    IRootChainManager _rootChainManager,\n    address _erc20Predicate\n  ) public {\n    require(address(_a) != address(0));\n    require(address(_rootChainManager) != address(0));\n    require(_erc20Predicate != address(0));\n\n    a = _a;\n    rootChainManager = _rootChainManager;\n    erc20Predicate = _erc20Predicate;\n  }\n\n  /**\n    Calculates how many MIMO tokens can be minted since the last time tokens were minted\n    @return number of mintable tokens available right now.\n  */\n  function mintableTokens() public view override returns (uint256) {\n    return a.mimo().balanceOf(address(this));\n  }\n\n  /**\n    Internal function to release a percentage of newTokens to a specific payee\n    @dev uses totalShares to calculate correct share\n    @param _totalnewTokensReceived Total newTokens for all payees, will be split according to shares\n    @param _payee The address of the payee to whom to distribute the fees.\n  */\n  function _release(uint256 _totalnewTokensReceived, address _payee) internal override {\n    uint256 payment = _totalnewTokensReceived.mul(shares[_payee]).div(totalShares);\n    a.mimo().approve(erc20Predicate, payment);\n    rootChainManager.depositFor(_payee, address(a.mimo()), abi.encode(payment));\n  }\n}\n",
  "sourcePath": "/home/mingyue/sub_contract_content/Web3Bugs/contracts/115/core/contracts/liquidityMining/PolygonDistributor.sol",
  "compiler": {
    "name": "solc",
    "version": "0.6.12+commit.27d51765.Emscripten.clang"
  },
  "schemaVersion": "3.4.7",
  "updatedAt": "2025-02-28T14:09:34.651Z",
  "devdoc": {
    "kind": "dev",
    "methods": {
      "changePayees(address[],uint256[])": {
        "details": "will release existing fees before the update.",
        "params": {
          "_payees": "Array of payees",
          "_shares": "Array of shares for each payee"
        }
      },
      "getPayees()": {
        "returns": {
          "_0": "array of current payees."
        }
      },
      "mintableTokens()": {
        "returns": {
          "_0": "number of mintable tokens available right now."
        }
      },
      "release()": {
        "details": "anyone can call this."
      }
    },
    "version": 1
  },
  "userdoc": {
    "kind": "user",
    "methods": {
      "changePayees(address[],uint256[])": {
        "notice": "Updates the payee configuration to a new one."
      },
      "getPayees()": {
        "notice": "Get current configured payees."
      },
      "mintableTokens()": {
        "notice": "Calculates how many MIMO tokens can be minted since the last time tokens were minted"
      },
      "release()": {
        "notice": "Public function to release the accumulated new MIMO tokens to the payees."
      }
    },
    "version": 1
  }
}