{
  "contractName": "PreUseAirdrop",
  "abi": [
    {
      "inputs": [
        {
          "internalType": "contract IGovernanceAddressProvider",
          "name": "_ga",
          "type": "address"
        },
        {
          "internalType": "contract IMIMODistributor",
          "name": "_mimoDistributor",
          "type": "address"
        }
      ],
      "stateMutability": "nonpayable",
      "type": "constructor"
    },
    {
      "inputs": [],
      "name": "ga",
      "outputs": [
        {
          "internalType": "contract IGovernanceAddressProvider",
          "name": "",
          "type": "address"
        }
      ],
      "stateMutability": "view",
      "type": "function"
    },
    {
      "inputs": [],
      "name": "mimoDistributor",
      "outputs": [
        {
          "internalType": "contract IMIMODistributor",
          "name": "",
          "type": "address"
        }
      ],
      "stateMutability": "view",
      "type": "function"
    },
    {
      "inputs": [
        {
          "internalType": "uint256",
          "name": "",
          "type": "uint256"
        }
      ],
      "name": "payouts",
      "outputs": [
        {
          "internalType": "address",
          "name": "recipient",
          "type": "address"
        },
        {
          "internalType": "uint256",
          "name": "amount",
          "type": "uint256"
        }
      ],
      "stateMutability": "view",
      "type": "function"
    },
    {
      "inputs": [],
      "name": "airdrop",
      "outputs": [],
      "stateMutability": "nonpayable",
      "type": "function"
    }
  ],
  "bytecode": "0x608060405234801561001057600080fd5b5060405161134338038061134383398101604081905261002f91610b59565b6001600160a01b03821661004257600080fd5b6001600160a01b03811661005557600080fd5b600180546001600160a01b03199081166001600160a01b0394851617825560028054821693851693909317835560408051808201825273bbd92c75c6f8b0ffe9e5bcb2e56a5e2600871a1081526ae049c364e25c21d55068c4602080830191825260008054808801825581805293517f290decd9548b62a8d60345a988386fc84ba6bc95484008f6362f93160ef3e56394890285810180548916928c169290921790915592517f290decd9548b62a8d60345a988386fc84ba6bc95484008f6362f93160ef3e564938401558451808601865273cc8793d5eb95faa707ea4155e09b2d3f44f33d1e81526aae86be67944a9c197b9b748184019081528254808a0184558380529151918a0280870180548a16938d169390931790925551908401558451808601865273185f19b43d818e10a31be68f445ef8edcb8afb8381526a12596b8852fd1b3d7561a88184019081528254808a0184558380529151918a0280870180548a16938d169390931790925551908401558451808601865273ded9f901d40a96c3ee558e6885bcc7efc51ad07881526a0b508e91f31071601433018184019081528254808a0184558380529151918a0280870180548a16938d1693909317909255519084015584518086018652730b3890bbf2553bd098b45006add734d6fbd6089e81526a06f6579f172663952e57328184019081528254808a0184558380529151918a0280870180548a16938d1693909317909255519084015584518086018652733f41a1cfd3c8b8d9c162de0f42307a0095a6e5df81526a05ec212d3e42cdacb850928184019081528254808a0184558380529151918a0280870180548a16938d1693909317909255519084015584518086018652739115badce4873d58fa73b08279529a796550999a81526a04a8b7ed7ff0cd96477f068184019081528254808a0184558380529151918a0280870180548a16938d1693909317909255519084015584518086018652737bc8c0b66d7f0e2193ed11eecaafe7c1837b926f81526a047aa5f3baaf95f86256578184019081528254808a0184558380529151918a0280870180548a16938d169390931790925551908401558451808601865273e7809aaaaa78e5a24e059889e561f598f3a4664c81526a03e5df6e2a8cba26cc24838184019081528254808a0184558380529151918a0280870180548a16938d169390931790925551908401558451808601865273f4d3566729f257edd0d4bf365d8f0db7bf56e1c681526a027ab2b403498f4a20f2078184019081528254808a0184558380529151918a0280870180548a16938d1693909317909255519084015584518086018652736cf9aa65ebad7028536e353393630e2340ca604981526a02432841a2399eace856838184019081528254808a0184558380529151918a0280870180548a16938d16939093179092555190840155845180860186527374386381cb384cc0fba0ac669d22f515ffc147d281526a01215a33b82220e2dabf9a8184019081528254808a0184558380529151918a0280870180548a16938d1693909317909255519084015584518086018652739144b150f28437e06ab5ff5190365294eb1e87ec81526a0120aca579566d97230b6a8184019081528254808a0184558380529151918a0280870180548a16938d1693909317909255519084015584518086018652735691d53685e8e219329bd8adf62b1a0a17df9d1181526994d258f163d5c9df17d08184019081528254808a0184558380529151918a0280870180548a16938d1693909317909255519084015584518086018652732b91b4f5223a0a1f5c7e1d139dddd6b5b57c7a518152698fb66e96dba8958456ce8184019081528254808a0184558380529151918a0280870180548a16938d1693909317909255519084015584518086018652738ddbad507f3b20239516810c308ba4f3baeaf3a18152698693a74ef293cb2fc21f8184019081528254808a0184558380529151918a0280870180548a16938d169390931790925551908401558451808601865273c3874a2c59b9779a75874be6b5f0b578120a8701815269676b6cd32286361f8dd88184019081528254808a0184558380529151918a0280870180548a16938d1693909317909255519084015584518086018652730a22c160f7e57f2e7d88b2fa1b1b03571bde61288152693f0c41bc60dc7d8bbd978184019081528254808a0184558380529151918a0280870180548a16938d1693909317909255519084015584518086018652730a1aa2b65832fc0c71f2ba488c84bee0b9db96928152691c1908608a4740536e438184019081528254808a0184558380529151918a0280870180548a16938d169390931790925551908401558451808601865273af7b7abc272a3ae6dd6da41b9832c758477a85f28152691b951f4a930dcc56ab8b8184019081528254808a0184558380529151918a0280870180548a16938d169390931790925551908401558451808601865273cdb17d9bcba8e3bab6f68d59065efe784700bee18152690f09ed702bb84e95193f8184019081528254808a0184558380529151918a0280870180548a16938d1693909317909255519084015584518086018652734dec19003f9bb01a4c0d089605618b2d76dee30d8152690ec00645ae5f3fbbc9b48184019081528254808a0184558380529151918a0280870180548a16938d16939093179092555190840155845180860186527331aaca1940c82130c2d4407e609e626e87a7bc1881526904973153ec35776ab9ad8184019081528254808a0184558380529151918a0280870180548a16938d169390931790925551908401558451808601865273bc77ab8dd8baa6ddf0d0c241d31b2e30bcec127d815269049182a408d986524d108184019081528254808a0184558380529151918a0280870180548a16938d1693909317909255519084015584518086018652731c25cdd83cd7106c3dcb361230ec9e6930aadd308152690301272ba93da44b6e1a8184019081528254808a0184558380529151918a0280870180548a16938d169390931790925551908401558451808601865273f1b78ed53fa2f9b8cffa677ad8023aca92109d0881526902edce4315ecfb7059c48184019081528254808a0184558380529151918a0280870180548a16938d169390931790925551908401558451808601865273d27962455de27561e62345a516931f23929972638152690179bf514691f37c96cd8184019081528254808a0184558380529151918a0280870180548a16938d169390931790925551908401558451808601865273d8a4411c623ad361e98bc9d98ca33ee1cf308bca815268f2afae3c68f1d7729d8184019081528254808a0184558380529151918a0280870180548a16938d1693909317909255519084015584518086018652731f06fa59809ee23ee06e533d67d29c6564fc1964815268b60e4f883b11f321348184019081528254808a0184558380529151918a0280870180548a16938d169390931790925551908401558451808601865273edccc1501e3bcc8b3973b9be33f6bd7072d283888152687e3e6d3baffc6920628184019081528254808a0184558380529151918a0280870180548a16938d169390931790925551908401558451808601865273d738a884b2afe625d372260e57e86e3eb4d5e1d7815268194dbafc6cfdd5dfe48184019081528254808a0184558380529151918a0280870180548a16938d169390931790925551908401558451808601909552736942b1b6526fa05035d47c09b419039c00ef75458552681800328b96af0d370291850191825280549687018155805292519490950290810180549093169390951692909217905551910155610baa565b60008060408385031215610b6b578182fd5b8251610b7681610b92565b6020840151909250610b8781610b92565b809150509250929050565b6001600160a01b0381168114610ba757600080fd5b50565b61078a80610bb96000396000f3fe608060405234801561001057600080fd5b506004361061004c5760003560e01c806304b0e95a1461005157806329652e861461006f5780633884d63514610090578063bedc40661461009a575b600080fd5b6100596100a2565b60405161006691906106f1565b60405180910390f35b61008261007d3660046106a9565b6100b1565b6040516100669291906106c1565b6100986100e6565b005b610059610628565b6002546001600160a01b031681565b600081815481106100be57fe5b6000918252602090912060029091020180546001909101546001600160a01b03909116915082565b600160009054906101000a90046001600160a01b03166001600160a01b031663f77c47916040518163ffffffff1660e01b815260040160206040518083038186803b15801561013457600080fd5b505afa158015610148573d6000803e3d6000fd5b505050506040513d601f19601f8201168201806040525081019061016c919061068d565b6001600160a01b03166391d14854600160009054906101000a90046001600160a01b03166001600160a01b031663f77c47916040518163ffffffff1660e01b815260040160206040518083038186803b1580156101c857600080fd5b505afa1580156101dc573d6000803e3d6000fd5b505050506040513d601f19601f82011682018060405250810190610200919061068d565b6001600160a01b031663ec87621c6040518163ffffffff1660e01b815260040160206040518083038186803b15801561023857600080fd5b505afa15801561024c573d6000803e3d6000fd5b505050506040513d601f19601f820116820180604052508101906102709190610675565b336040518363ffffffff1660e01b815260040161028e9291906106da565b60206040518083038186803b1580156102a657600080fd5b505afa1580156102ba573d6000803e3d6000fd5b505050506040513d601f19601f820116820180604052508101906102de919061064e565b6103035760405162461bcd60e51b81526004016102fa90610705565b60405180910390fd5b60015460408051636d9b182360e01b815290516000926001600160a01b031691636d9b1823916004808301926020929190829003018186803b15801561034857600080fd5b505afa15801561035c573d6000803e3d6000fd5b505050506040513d601f19601f82011682018060405250810190610380919061068d565b905060005b60005481101561044257610397610637565b600082815481106103a457fe5b6000918252602091829020604080518082018252600290930290910180546001600160a01b0390811680855260019092015494840185905291516340c10f1960e01b8152929450908616926340c10f19926104039291906004016106c1565b600060405180830381600087803b15801561041d57600080fd5b505af1158015610431573d6000803e3d6000fd5b505060019093019250610385915050565b506002546040805163cf3dfae760e01b815290516000926001600160a01b03169163cf3dfae7916004808301926020929190829003018186803b15801561048857600080fd5b505afa15801561049c573d6000803e3d6000fd5b505050506040513d601f19601f820116820180604052508101906104c09190610675565b116104ca57600080fd5b6000816001600160a01b031663223a5d9e6040518163ffffffff1660e01b815260040160206040518083038186803b15801561050557600080fd5b505afa158015610519573d6000803e3d6000fd5b505050506040513d601f19601f8201168201806040525081019061053d9190610675565b9050600160009054906101000a90046001600160a01b03166001600160a01b031663f77c47916040518163ffffffff1660e01b815260040160206040518083038186803b15801561058d57600080fd5b505afa1580156105a1573d6000803e3d6000fd5b505050506040513d601f19601f820116820180604052508101906105c5919061068d565b6001600160a01b03166336568abe82306040518363ffffffff1660e01b81526004016105f29291906106da565b600060405180830381600087803b15801561060c57600080fd5b505af1158015610620573d6000803e3d6000fd5b505050505050565b6001546001600160a01b031681565b604080518082019091526000808252602082015290565b60006020828403121561065f578081fd5b8151801515811461066e578182fd5b9392505050565b600060208284031215610686578081fd5b5051919050565b60006020828403121561069e578081fd5b815161066e8161073c565b6000602082840312156106ba578081fd5b5035919050565b6001600160a01b03929092168252602082015260400190565b9182526001600160a01b0316602082015260400190565b6001600160a01b0391909116815260200190565b60208082526017908201527f43616c6c6572206973206e6f742061204d616e61676572000000000000000000604082015260600190565b6001600160a01b038116811461075157600080fd5b5056fea2646970667358221220c2377633a5025804bf1ab2c583ad36b424b1dc33222063bbde5d5135f94eb3c264736f6c634300060c0033",
  "immutableReferences": {},
  "source": "// SPDX-License-Identifier: MIT\n\npragma experimental ABIEncoderV2;\npragma solidity 0.6.12;\n\nimport \"@openzeppelin/contracts/token/ERC20/IERC20.sol\";\nimport \"@openzeppelin/contracts/token/ERC20/SafeERC20.sol\";\nimport \"../token/MIMO.sol\";\n\nimport \"../governance/interfaces/IGovernanceAddressProvider.sol\";\nimport \"../liquidityMining/interfaces/IMIMODistributor.sol\";\n\ncontract PreUseAirdrop {\n  using SafeERC20 for IERC20;\n\n  struct Payout {\n    address recipient;\n    uint256 amount;\n  }\n\n  Payout[] public payouts;\n\n  IGovernanceAddressProvider public ga;\n  IMIMODistributor public mimoDistributor;\n\n  modifier onlyManager() {\n    require(ga.controller().hasRole(ga.controller().MANAGER_ROLE(), msg.sender), \"Caller is not a Manager\");\n    _;\n  }\n\n  constructor(IGovernanceAddressProvider _ga, IMIMODistributor _mimoDistributor) public {\n    require(address(_ga) != address(0));\n    require(address(_mimoDistributor) != address(0));\n\n    ga = _ga;\n    mimoDistributor = _mimoDistributor;\n\n    payouts.push(Payout(0xBBd92c75C6f8B0FFe9e5BCb2e56a5e2600871a10, 271147720731494841509243076));\n    payouts.push(Payout(0xcc8793d5eB95fAa707ea4155e09b2D3F44F33D1E, 210989402066696530434956148));\n    payouts.push(Payout(0x185f19B43d818E10a31BE68f445ef8EDCB8AFB83, 22182938994846641176273320));\n    payouts.push(Payout(0xDeD9F901D40A96C3Ee558E6885bcc7eFC51ad078, 13678603288816593264718593));\n    payouts.push(Payout(0x0B3890bbF2553Bd098B45006aDD734d6Fbd6089E, 8416873402881706143143730));\n    payouts.push(Payout(0x3F41a1CFd3C8B8d9c162dE0f42307a0095A6e5DF, 7159719590701445955473554));\n    payouts.push(Payout(0x9115BaDce4873d58fa73b08279529A796550999a, 5632453715407980754075398));\n    payouts.push(Payout(0x7BC8C0B66d7f0E2193ED11eeCAAfE7c1837b926f, 5414893264683531027764823));\n    payouts.push(Payout(0xE7809aaaaa78E5a24E059889E561f598F3a4664c, 4712320945661497844704387));\n    payouts.push(Payout(0xf4D3566729f257edD0D4bF365d8f0Db7bF56e1C6, 2997276841876706895655431));\n    payouts.push(Payout(0x6Cf9AA65EBaD7028536E353393630e2340ca6049, 2734992792750385321760387));\n    payouts.push(Payout(0x74386381Cb384CC0FBa0Ac669d22f515FfC147D2, 1366427847282177615773594));\n    payouts.push(Payout(0x9144b150f28437E06Ab5FF5190365294eb1E87ec, 1363226310703652991601514));\n    payouts.push(Payout(0x5691d53685e8e219329bD8ADf62b1A0A17df9D11, 702790464733701088417744));\n    payouts.push(Payout(0x2B91B4f5223a0a1f5c7e1D139dDdD6B5B57C7A51, 678663683269882192090830));\n    payouts.push(Payout(0x8ddBad507F3b20239516810C308Ba4f3BaeAf3a1, 635520835923336863138335));\n    payouts.push(Payout(0xc3874A2C59b9779A75874Be6B5f0b578120A8701, 488385391000796390198744));\n    payouts.push(Payout(0x0A22C160f7E57F2e7d88b2fa1B1B03571bdE6128, 297735186117080365383063));\n    payouts.push(Payout(0x0a1aa2b65832fC0c71f2Ba488c84BeE0b9DB9692, 132688033756581498940995));\n    payouts.push(Payout(0xAf7b7AbC272a3aE6dD6dA41b9832C758477a85f2, 130254714680714068405131));\n    payouts.push(Payout(0xCDb17d9bCbA8E3bab6F68D59065efe784700Bee1, 71018627162763037055295));\n    payouts.push(Payout(0x4Dec19003F9Bb01A4c0D089605618b2d76deE30d, 69655357581389001902516));\n    payouts.push(Payout(0x31AacA1940C82130c2D4407E609e626E87A7BC18, 21678478730854029506989));\n    payouts.push(Payout(0xBc77AB8dd8BAa6ddf0D0c241d31b2e30bcEC127d, 21573657481017931484432));\n    payouts.push(Payout(0x1c25cDD83Cd7106C3dcB361230eC9E6930Aadd30, 14188368728356337446426));\n    payouts.push(Payout(0xf1B78ed53fa2f9B8cFfa677Ad8023aCa92109d08, 13831474058511281838532));\n    payouts.push(Payout(0xd27962455de27561e62345a516931F2392997263, 6968208393315527988941));\n    payouts.push(Payout(0xD8A4411C623aD361E98bC9D98cA33eE1cF308Bca, 4476771187861728227997));\n    payouts.push(Payout(0x1f06fA59809ee23Ee06e533D67D29C6564fC1964, 3358338614042115121460));\n    payouts.push(Payout(0xeDccc1501e3BCC8b3973B9BE33f6Bd7072d28388, 2328788070517256560738));\n    payouts.push(Payout(0xD738A884B2aFE625d372260E57e86E3eB4d5e1D7, 466769668474372743140));\n    payouts.push(Payout(0x6942b1b6526Fa05035d47c09B419039c00Ef7545, 442736084997163005698));\n  }\n\n  function airdrop() public onlyManager {\n    MIMO mimo = MIMO(address(ga.mimo()));\n    for (uint256 i = 0; i < payouts.length; i++) {\n      Payout memory payout = payouts[i];\n      mimo.mint(payout.recipient, payout.amount);\n    }\n    require(mimoDistributor.mintableTokens() > 0);\n\n    bytes32 MIMO_MINTER_ROLE = mimo.MIMO_MINTER_ROLE();\n    ga.controller().renounceRole(MIMO_MINTER_ROLE, address(this));\n  }\n}\n",
  "sourcePath": "/home/mingyue/sub_contract_content/Web3Bugs/contracts/115/core/contracts/upgrade/PreUseAirdrop.sol",
  "compiler": {
    "name": "solc",
    "version": "0.6.12+commit.27d51765.Emscripten.clang"
  },
  "schemaVersion": "3.4.7",
  "updatedAt": "2025-02-28T14:09:34.673Z",
  "devdoc": {
    "kind": "dev",
    "methods": {},
    "version": 1
  },
  "userdoc": {
    "kind": "user",
    "methods": {},
    "version": 1
  }
}