{
  "contractName": "PriceFeed",
  "abi": [
    {
      "inputs": [
        {
          "internalType": "contract IAddressProvider",
          "name": "_addresses",
          "type": "address"
        }
      ],
      "stateMutability": "nonpayable",
      "type": "constructor"
    },
    {
      "anonymous": false,
      "inputs": [
        {
          "indexed": false,
          "internalType": "address",
          "name": "oracle",
          "type": "address"
        },
        {
          "indexed": false,
          "internalType": "address",
          "name": "sender",
          "type": "address"
        }
      ],
      "name": "EurOracleUpdated",
      "type": "event"
    },
    {
      "anonymous": false,
      "inputs": [
        {
          "indexed": true,
          "internalType": "address",
          "name": "asset",
          "type": "address"
        },
        {
          "indexed": false,
          "internalType": "address",
          "name": "oracle",
          "type": "address"
        },
        {
          "indexed": false,
          "internalType": "address",
          "name": "sender",
          "type": "address"
        }
      ],
      "name": "OracleUpdated",
      "type": "event"
    },
    {
      "inputs": [],
      "name": "PRICE_ORACLE_STALE_THRESHOLD",
      "outputs": [
        {
          "internalType": "uint256",
          "name": "",
          "type": "uint256"
        }
      ],
      "stateMutability": "view",
      "type": "function"
    },
    {
      "inputs": [],
      "name": "a",
      "outputs": [
        {
          "internalType": "contract IAddressProvider",
          "name": "",
          "type": "address"
        }
      ],
      "stateMutability": "view",
      "type": "function"
    },
    {
      "inputs": [
        {
          "internalType": "address",
          "name": "",
          "type": "address"
        }
      ],
      "name": "assetOracles",
      "outputs": [
        {
          "internalType": "contract AggregatorV3Interface",
          "name": "",
          "type": "address"
        }
      ],
      "stateMutability": "view",
      "type": "function"
    },
    {
      "inputs": [],
      "name": "eurOracle",
      "outputs": [
        {
          "internalType": "contract AggregatorV3Interface",
          "name": "",
          "type": "address"
        }
      ],
      "stateMutability": "view",
      "type": "function"
    },
    {
      "inputs": [
        {
          "internalType": "address",
          "name": "_asset",
          "type": "address"
        },
        {
          "internalType": "address",
          "name": "_oracle",
          "type": "address"
        }
      ],
      "name": "setAssetOracle",
      "outputs": [],
      "stateMutability": "nonpayable",
      "type": "function"
    },
    {
      "inputs": [
        {
          "internalType": "address",
          "name": "_oracle",
          "type": "address"
        }
      ],
      "name": "setEurOracle",
      "outputs": [],
      "stateMutability": "nonpayable",
      "type": "function"
    },
    {
      "inputs": [
        {
          "internalType": "address",
          "name": "_asset",
          "type": "address"
        }
      ],
      "name": "getAssetPrice",
      "outputs": [
        {
          "internalType": "uint256",
          "name": "price",
          "type": "uint256"
        }
      ],
      "stateMutability": "view",
      "type": "function"
    },
    {
      "inputs": [
        {
          "internalType": "address",
          "name": "_asset",
          "type": "address"
        },
        {
          "internalType": "uint256",
          "name": "_amount",
          "type": "uint256"
        }
      ],
      "name": "convertFrom",
      "outputs": [
        {
          "internalType": "uint256",
          "name": "",
          "type": "uint256"
        }
      ],
      "stateMutability": "view",
      "type": "function"
    },
    {
      "inputs": [
        {
          "internalType": "address",
          "name": "_asset",
          "type": "address"
        },
        {
          "internalType": "uint256",
          "name": "_amount",
          "type": "uint256"
        }
      ],
      "name": "convertTo",
      "outputs": [
        {
          "internalType": "uint256",
          "name": "",
          "type": "uint256"
        }
      ],
      "stateMutability": "view",
      "type": "function"
    }
  ],
  "bytecode": "0x608060405234801561001057600080fd5b506040516112e93803806112e983398101604081905261002f91610067565b6001600160a01b03811661004257600080fd5b600080546001600160a01b0319166001600160a01b0392909216919091179055610095565b600060208284031215610078578081fd5b81516001600160a01b038116811461008e578182fd5b9392505050565b611245806100a46000396000f3fe608060405234801561001057600080fd5b50600436106100935760003560e01c80636719d7ac116100665780636719d7ac146100f1578063724091e0146100f95780637cbcfee2146101195780639bfa518114610121578063b3596f071461013457610093565b80630dbe671f146100985780632b663986146100b65780633947e586146100c957806362adfe7a146100de575b600080fd5b6100a0610147565b6040516100ad919061102b565b60405180910390f35b6100a06100c4366004610eb5565b610156565b6100dc6100d7366004610eb5565b610171565b005b6100dc6100ec366004610ed1565b6103f5565b6100a0610699565b61010c610107366004610f09565b6106a8565b6040516100ad91906111ee565b61010c61090f565b61010c61012f366004610f09565b610916565b61010c610142366004610eb5565b610b5b565b6000546001600160a01b031681565b6001602052600090815260409020546001600160a01b031681565b60008054906101000a90046001600160a01b03166001600160a01b031663f77c47916040518163ffffffff1660e01b815260040160206040518083038186803b1580156101bd57600080fd5b505afa1580156101d1573d6000803e3d6000fd5b505050506040513d601f19601f820116820180604052508101906101f59190610f6c565b6001600160a01b03166391d1485460008054906101000a90046001600160a01b03166001600160a01b031663f77c47916040518163ffffffff1660e01b815260040160206040518083038186803b15801561024f57600080fd5b505afa158015610263573d6000803e3d6000fd5b505050506040513d601f19601f820116820180604052508101906102879190610f6c565b6001600160a01b031663ec87621c6040518163ffffffff1660e01b815260040160206040518083038186803b1580156102bf57600080fd5b505afa1580156102d3573d6000803e3d6000fd5b505050506040513d601f19601f820116820180604052508101906102f79190610f54565b336040518363ffffffff1660e01b8152600401610315929190611014565b60206040518083038186803b15801561032d57600080fd5b505afa158015610341573d6000803e3d6000fd5b505050506040513d601f19601f820116820180604052508101906103659190610f34565b61038a5760405162461bcd60e51b815260040161038190611125565b60405180910390fd5b6001600160a01b03811661039d57600080fd5b600280546001600160a01b0319166001600160a01b0383161790556040517fd07f7f4ba9ec388890a9c9f081c2dfe0af03481b461cb24d84878b107e198b5c906103ea9083903390610ffa565b60405180910390a150565b60008054906101000a90046001600160a01b03166001600160a01b031663f77c47916040518163ffffffff1660e01b815260040160206040518083038186803b15801561044157600080fd5b505afa158015610455573d6000803e3d6000fd5b505050506040513d601f19601f820116820180604052508101906104799190610f6c565b6001600160a01b03166391d1485460008054906101000a90046001600160a01b03166001600160a01b031663f77c47916040518163ffffffff1660e01b815260040160206040518083038186803b1580156104d357600080fd5b505afa1580156104e7573d6000803e3d6000fd5b505050506040513d601f19601f8201168201806040525081019061050b9190610f6c565b6001600160a01b031663ec87621c6040518163ffffffff1660e01b815260040160206040518083038186803b15801561054357600080fd5b505afa158015610557573d6000803e3d6000fd5b505050506040513d601f19601f8201168201806040525081019061057b9190610f54565b336040518363ffffffff1660e01b8152600401610599929190611014565b60206040518083038186803b1580156105b157600080fd5b505afa1580156105c5573d6000803e3d6000fd5b505050506040513d601f19601f820116820180604052508101906105e99190610f34565b6106055760405162461bcd60e51b815260040161038190611125565b6001600160a01b03821661061857600080fd5b6001600160a01b03811661062b57600080fd5b6001600160a01b038281166000818152600160205260409081902080546001600160a01b0319169385169390931790925590517fa18d4edc0f9c89f7feb41d0243d7f20bf44c5b426ede1cc1014a31ab8eb724899061068d9084903390610ffa565b60405180910390a25050565b6002546001600160a01b031681565b6000806106b484610b5b565b90506000846001600160a01b031663313ce5676040518163ffffffff1660e01b815260040160206040518083038186803b1580156106f157600080fd5b505afa158015610705573d6000803e3d6000fd5b505050506040513d601f19601f820116820180604052508101906107299190610fd9565b905060008060009054906101000a90046001600160a01b03166001600160a01b03166316d8a5a96040518163ffffffff1660e01b815260040160206040518083038186803b15801561077a57600080fd5b505afa15801561078e573d6000803e3d6000fd5b505050506040513d601f19601f820116820180604052508101906107b29190610f6c565b6001600160a01b031663313ce5676040518163ffffffff1660e01b815260040160206040518083038186803b1580156107ea57600080fd5b505afa1580156107fe573d6000803e3d6000fd5b505050506040513d601f19601f820116820180604052508101906108229190610fd9565b6001600160a01b03808816600090815260016020908152604080832054815163313ce56760e01b815291519596509294929093169263313ce5679260048083019392829003018186803b15801561087857600080fd5b505afa15801561088c573d6000803e3d6000fd5b505050506040513d601f19601f820116820180604052508101906108b09190610fd9565b905060006108c2600a8460ff16610db4565b905060006108e0600a6108db60ff868116908916610e03565b610db4565b9050610900816108fa846108f48c8b610e2f565b90610e2f565b90610e69565b96505050505050505b92915050565b6201518081565b60008061092284610b5b565b90506000846001600160a01b031663313ce5676040518163ffffffff1660e01b815260040160206040518083038186803b15801561095f57600080fd5b505afa158015610973573d6000803e3d6000fd5b505050506040513d601f19601f820116820180604052508101906109979190610fd9565b905060008060009054906101000a90046001600160a01b03166001600160a01b03166316d8a5a96040518163ffffffff1660e01b815260040160206040518083038186803b1580156109e857600080fd5b505afa1580156109fc573d6000803e3d6000fd5b505050506040513d601f19601f82011682018060405250810190610a209190610f6c565b6001600160a01b031663313ce5676040518163ffffffff1660e01b815260040160206040518083038186803b158015610a5857600080fd5b505afa158015610a6c573d6000803e3d6000fd5b505050506040513d601f19601f82011682018060405250810190610a909190610fd9565b6001600160a01b03808816600090815260016020908152604080832054815163313ce56760e01b815291519596509294929093169263313ce5679260048083019392829003018186803b158015610ae657600080fd5b505afa158015610afa573d6000803e3d6000fd5b505050506040513d601f19601f82011682018060405250810190610b1e9190610fd9565b90506000610b30600a8460ff16610db4565b90506000610b49600a6108db60ff868116908916610e03565b9050610900826108fa88818c86610e2f565b6000806000600260009054906101000a90046001600160a01b03166001600160a01b031663feaf968c6040518163ffffffff1660e01b815260040160a06040518083038186803b158015610bae57600080fd5b505afa158015610bc2573d6000803e3d6000fd5b505050506040513d601f19601f82011682018060405250810190610be69190610f88565b5093505092505060008213610c0d5760405162461bcd60e51b81526004016103819061103f565b6201518081420310610c315760405162461bcd60e51b8152600401610381906111b7565b6001600160a01b03808516600090815260016020526040808220548151633fabe5a360e21b815291519293849391169163feaf968c9160048083019260a0929190829003018186803b158015610c8657600080fd5b505afa158015610c9a573d6000803e3d6000fd5b505050506040513d601f19601f82011682018060405250810190610cbe9190610f88565b5093505092505060008213610ce55760405162461bcd60e51b81526004016103819061115c565b6201518081420310610d095760405162461bcd60e51b81526004016103819061118a565b6002546040805163313ce56760e01b815290516000926001600160a01b03169163313ce567916004808301926020929190829003018186803b158015610d4e57600080fd5b505afa158015610d62573d6000803e3d6000fd5b505050506040513d601f19601f82011682018060405250810190610d869190610fd9565b90506000610d98600a8360ff16610db4565b9050610da8866108fa8684610e2f565b98975050505050505050565b600060028206610dc5576001610dc7565b825b90506002820491505b811561090957610de08384610e2f565b92506002820615610df857610df58184610e2f565b90505b600282049150610dd0565b600082820183811015610e285760405162461bcd60e51b815260040161038190611076565b9392505050565b600082610e3e57506000610909565b82820282848281610e4b57fe5b0414610e285760405162461bcd60e51b8152600401610381906110e4565b6000808211610e8a5760405162461bcd60e51b8152600401610381906110ad565b818381610e9357fe5b049392505050565b805169ffffffffffffffffffff8116811461090957600080fd5b600060208284031215610ec6578081fd5b8135610e28816111f7565b60008060408385031215610ee3578081fd5b8235610eee816111f7565b91506020830135610efe816111f7565b809150509250929050565b60008060408385031215610f1b578182fd5b8235610f26816111f7565b946020939093013593505050565b600060208284031215610f45578081fd5b81518015158114610e28578182fd5b600060208284031215610f65578081fd5b5051919050565b600060208284031215610f7d578081fd5b8151610e28816111f7565b600080600080600060a08688031215610f9f578081fd5b610fa98787610e9b565b9450602086015193506040860151925060608601519150610fcd8760808801610e9b565b90509295509295909350565b600060208284031215610fea578081fd5b815160ff81168114610e28578182fd5b6001600160a01b0392831681529116602082015260400190565b9182526001600160a01b0316602082015260400190565b6001600160a01b0391909116815260200190565b60208082526018908201527f4555522070726963652064617461206e6f742076616c69640000000000000000604082015260600190565b6020808252601b908201527f536166654d6174683a206164646974696f6e206f766572666c6f770000000000604082015260600190565b6020808252601a908201527f536166654d6174683a206469766973696f6e206279207a65726f000000000000604082015260600190565b60208082526021908201527f536166654d6174683a206d756c7469706c69636174696f6e206f766572666c6f6040820152607760f81b606082015260800190565b60208082526017908201527f43616c6c6572206973206e6f742061204d616e61676572000000000000000000604082015260600190565b602080825260149082015273141c9a58d94819185d18481b9bdd081d985b1a5960621b604082015260600190565b60208082526013908201527250726963652064617461206973207374616c6560681b604082015260600190565b60208082526017908201527f4555522070726963652064617461206973207374616c65000000000000000000604082015260600190565b90815260200190565b6001600160a01b038116811461120c57600080fd5b5056fea26469706673582212208e9a4701312e199e91da42768c43e02ec7cf2475f79267e022aff1d75e46adb164736f6c634300060c0033",
  "immutableReferences": {},
  "source": "// SPDX-License-Identifier: MIT\n\npragma experimental ABIEncoderV2;\npragma solidity 0.6.12;\n\nimport \"@openzeppelin/contracts/math/SafeMath.sol\";\nimport \"@openzeppelin/contracts/token/ERC20/ERC20.sol\";\n\nimport \"../interfaces/IPriceFeed.sol\";\nimport \"../interfaces/IAddressProvider.sol\";\nimport \"../chainlink/AggregatorV3Interface.sol\";\nimport \"../libraries/MathPow.sol\";\nimport \"../libraries/WadRayMath.sol\";\n\ncontract PriceFeed is IPriceFeed {\n  using SafeMath for uint256;\n  using SafeMath for uint8;\n  using WadRayMath for uint256;\n\n  uint256 public constant PRICE_ORACLE_STALE_THRESHOLD = 1 days;\n\n  IAddressProvider public override a;\n\n  mapping(address => AggregatorV3Interface) public override assetOracles;\n\n  AggregatorV3Interface public override eurOracle;\n\n  constructor(IAddressProvider _addresses) public {\n    require(address(_addresses) != address(0));\n    a = _addresses;\n  }\n\n  modifier onlyManager() {\n    require(a.controller().hasRole(a.controller().MANAGER_ROLE(), msg.sender), \"Caller is not a Manager\");\n    _;\n  }\n\n  /**\n   * @notice Sets the oracle for the given asset,\n   * @param _asset address to the collateral asset e.g. WETH\n   * @param _oracle address to the oracel, this oracle should implement the AggregatorV3Interface\n   */\n  function setAssetOracle(address _asset, address _oracle) public override onlyManager {\n    require(_asset != address(0));\n    require(_oracle != address(0));\n    assetOracles[_asset] = AggregatorV3Interface(_oracle);\n    emit OracleUpdated(_asset, _oracle, msg.sender);\n  }\n\n  /**\n   * @notice Sets the oracle for EUR, this oracle should provide EUR-USD prices\n   * @param _oracle address to the oracle, this oracle should implement the AggregatorV3Interface\n   */\n  function setEurOracle(address _oracle) public override onlyManager {\n    require(_oracle != address(0));\n    eurOracle = AggregatorV3Interface(_oracle);\n    emit EurOracleUpdated(_oracle, msg.sender);\n  }\n\n  /**\n   * Gets the asset price in EUR (PAR)\n   * @dev returned value has matching decimals to the asset oracle (not the EUR oracle)\n   * @param _asset address to the collateral asset e.g. WETH\n   */\n  function getAssetPrice(address _asset) public view override returns (uint256 price) {\n    (, int256 eurAnswer, , uint256 eurUpdatedAt, ) = eurOracle.latestRoundData();\n    require(eurAnswer > 0, \"EUR price data not valid\");\n    require(block.timestamp - eurUpdatedAt < PRICE_ORACLE_STALE_THRESHOLD, \"EUR price data is stale\");\n\n    (, int256 answer, , uint256 assetUpdatedAt, ) = assetOracles[_asset].latestRoundData();\n    require(answer > 0, \"Price data not valid\");\n    require(block.timestamp - assetUpdatedAt < PRICE_ORACLE_STALE_THRESHOLD, \"Price data is stale\");\n\n    uint8 eurDecimals = eurOracle.decimals();\n    uint256 eurAccuracy = MathPow.pow(10, eurDecimals);\n    return uint256(answer).mul(eurAccuracy).div(uint256(eurAnswer));\n  }\n\n  /**\n   * @notice Converts asset balance into stablecoin balance at current price\n   * @param _asset address to the collateral asset e.g. WETH\n   * @param _amount amount of collateral\n   */\n  function convertFrom(address _asset, uint256 _amount) public view override returns (uint256) {\n    uint256 price = getAssetPrice(_asset);\n    uint8 collateralDecimals = ERC20(_asset).decimals();\n    uint8 parDecimals = ERC20(address(a.stablex())).decimals(); // Needs re-casting because ISTABLEX does not expose decimals()\n    uint8 oracleDecimals = assetOracles[_asset].decimals();\n    uint256 parAccuracy = MathPow.pow(10, parDecimals);\n    uint256 collateralAccuracy = MathPow.pow(10, oracleDecimals.add(collateralDecimals));\n    return _amount.mul(price).mul(parAccuracy).div(collateralAccuracy);\n  }\n\n  /**\n   * @notice Converts stablecoin balance into collateral balance at current price\n   * @param _asset address to the collateral asset e.g. WETH\n   * @param _amount amount of stablecoin\n   */\n  function convertTo(address _asset, uint256 _amount) public view override returns (uint256) {\n    uint256 price = getAssetPrice(_asset);\n    uint8 collateralDecimals = ERC20(_asset).decimals();\n    uint8 parDecimals = ERC20(address(a.stablex())).decimals(); // Needs re-casting because ISTABLEX does not expose decimals()\n    uint8 oracleDecimals = assetOracles[_asset].decimals();\n    uint256 parAccuracy = MathPow.pow(10, parDecimals);\n    uint256 collateralAccuracy = MathPow.pow(10, oracleDecimals.add(collateralDecimals));\n    return _amount.mul(collateralAccuracy).div(price).div(parAccuracy);\n  }\n}\n",
  "sourcePath": "/home/mingyue/sub_contract_content/Web3Bugs/contracts/115/core/contracts/core/PriceFeed.sol",
  "compiler": {
    "name": "solc",
    "version": "0.6.12+commit.27d51765.Emscripten.clang"
  },
  "schemaVersion": "3.4.7",
  "updatedAt": "2025-02-28T14:09:34.601Z",
  "devdoc": {
    "kind": "dev",
    "methods": {
      "convertFrom(address,uint256)": {
        "params": {
          "_amount": "amount of collateral",
          "_asset": "address to the collateral asset e.g. WETH"
        }
      },
      "convertTo(address,uint256)": {
        "params": {
          "_amount": "amount of stablecoin",
          "_asset": "address to the collateral asset e.g. WETH"
        }
      },
      "getAssetPrice(address)": {
        "details": "returned value has matching decimals to the asset oracle (not the EUR oracle)",
        "params": {
          "_asset": "address to the collateral asset e.g. WETH"
        }
      },
      "setAssetOracle(address,address)": {
        "params": {
          "_asset": "address to the collateral asset e.g. WETH",
          "_oracle": "address to the oracel, this oracle should implement the AggregatorV3Interface"
        }
      },
      "setEurOracle(address)": {
        "params": {
          "_oracle": "address to the oracle, this oracle should implement the AggregatorV3Interface"
        }
      }
    },
    "version": 1
  },
  "userdoc": {
    "kind": "user",
    "methods": {
      "convertFrom(address,uint256)": {
        "notice": "Converts asset balance into stablecoin balance at current price"
      },
      "convertTo(address,uint256)": {
        "notice": "Converts stablecoin balance into collateral balance at current price"
      },
      "getAssetPrice(address)": {
        "notice": "Gets the asset price in EUR (PAR)"
      },
      "setAssetOracle(address,address)": {
        "notice": "Sets the oracle for the given asset,"
      },
      "setEurOracle(address)": {
        "notice": "Sets the oracle for EUR, this oracle should provide EUR-USD prices"
      }
    },
    "version": 1
  }
}