{
  "contractName": "TestTimelock",
  "abi": [
    {
      "inputs": [
        {
          "internalType": "address",
          "name": "admin_",
          "type": "address"
        },
        {
          "internalType": "uint256",
          "name": "delay_",
          "type": "uint256"
        }
      ],
      "stateMutability": "nonpayable",
      "type": "constructor"
    },
    {
      "anonymous": false,
      "inputs": [
        {
          "indexed": true,
          "internalType": "bytes32",
          "name": "txHash",
          "type": "bytes32"
        },
        {
          "indexed": true,
          "internalType": "address",
          "name": "target",
          "type": "address"
        },
        {
          "indexed": false,
          "internalType": "uint256",
          "name": "value",
          "type": "uint256"
        },
        {
          "indexed": false,
          "internalType": "string",
          "name": "signature",
          "type": "string"
        },
        {
          "indexed": false,
          "internalType": "bytes",
          "name": "data",
          "type": "bytes"
        },
        {
          "indexed": false,
          "internalType": "uint256",
          "name": "eta",
          "type": "uint256"
        }
      ],
      "name": "CancelTransaction",
      "type": "event"
    },
    {
      "anonymous": false,
      "inputs": [
        {
          "indexed": true,
          "internalType": "bytes32",
          "name": "txHash",
          "type": "bytes32"
        },
        {
          "indexed": true,
          "internalType": "address",
          "name": "target",
          "type": "address"
        },
        {
          "indexed": false,
          "internalType": "uint256",
          "name": "value",
          "type": "uint256"
        },
        {
          "indexed": false,
          "internalType": "string",
          "name": "signature",
          "type": "string"
        },
        {
          "indexed": false,
          "internalType": "bytes",
          "name": "data",
          "type": "bytes"
        },
        {
          "indexed": false,
          "internalType": "uint256",
          "name": "eta",
          "type": "uint256"
        }
      ],
      "name": "ExecuteTransaction",
      "type": "event"
    },
    {
      "anonymous": false,
      "inputs": [
        {
          "indexed": true,
          "internalType": "address",
          "name": "newAdmin",
          "type": "address"
        }
      ],
      "name": "NewAdmin",
      "type": "event"
    },
    {
      "anonymous": false,
      "inputs": [
        {
          "indexed": true,
          "internalType": "uint256",
          "name": "newDelay",
          "type": "uint256"
        }
      ],
      "name": "NewDelay",
      "type": "event"
    },
    {
      "anonymous": false,
      "inputs": [
        {
          "indexed": true,
          "internalType": "address",
          "name": "newPendingAdmin",
          "type": "address"
        }
      ],
      "name": "NewPendingAdmin",
      "type": "event"
    },
    {
      "anonymous": false,
      "inputs": [
        {
          "indexed": true,
          "internalType": "bytes32",
          "name": "txHash",
          "type": "bytes32"
        },
        {
          "indexed": true,
          "internalType": "address",
          "name": "target",
          "type": "address"
        },
        {
          "indexed": false,
          "internalType": "uint256",
          "name": "value",
          "type": "uint256"
        },
        {
          "indexed": false,
          "internalType": "string",
          "name": "signature",
          "type": "string"
        },
        {
          "indexed": false,
          "internalType": "bytes",
          "name": "data",
          "type": "bytes"
        },
        {
          "indexed": false,
          "internalType": "uint256",
          "name": "eta",
          "type": "uint256"
        }
      ],
      "name": "QueueTransaction",
      "type": "event"
    },
    {
      "stateMutability": "payable",
      "type": "fallback"
    },
    {
      "inputs": [],
      "name": "GRACE_PERIOD",
      "outputs": [
        {
          "internalType": "uint256",
          "name": "",
          "type": "uint256"
        }
      ],
      "stateMutability": "view",
      "type": "function"
    },
    {
      "inputs": [],
      "name": "MAXIMUM_DELAY",
      "outputs": [
        {
          "internalType": "uint256",
          "name": "",
          "type": "uint256"
        }
      ],
      "stateMutability": "view",
      "type": "function"
    },
    {
      "inputs": [],
      "name": "MINIMUM_DELAY",
      "outputs": [
        {
          "internalType": "uint256",
          "name": "",
          "type": "uint256"
        }
      ],
      "stateMutability": "view",
      "type": "function"
    },
    {
      "inputs": [],
      "name": "acceptAdmin",
      "outputs": [],
      "stateMutability": "nonpayable",
      "type": "function"
    },
    {
      "inputs": [],
      "name": "admin",
      "outputs": [
        {
          "internalType": "address",
          "name": "",
          "type": "address"
        }
      ],
      "stateMutability": "view",
      "type": "function"
    },
    {
      "inputs": [
        {
          "internalType": "address",
          "name": "target",
          "type": "address"
        },
        {
          "internalType": "uint256",
          "name": "value",
          "type": "uint256"
        },
        {
          "internalType": "string",
          "name": "signature",
          "type": "string"
        },
        {
          "internalType": "bytes",
          "name": "data",
          "type": "bytes"
        },
        {
          "internalType": "uint256",
          "name": "eta",
          "type": "uint256"
        }
      ],
      "name": "cancelTransaction",
      "outputs": [],
      "stateMutability": "nonpayable",
      "type": "function"
    },
    {
      "inputs": [],
      "name": "delay",
      "outputs": [
        {
          "internalType": "uint256",
          "name": "",
          "type": "uint256"
        }
      ],
      "stateMutability": "view",
      "type": "function"
    },
    {
      "inputs": [
        {
          "internalType": "address",
          "name": "target",
          "type": "address"
        },
        {
          "internalType": "uint256",
          "name": "value",
          "type": "uint256"
        },
        {
          "internalType": "string",
          "name": "signature",
          "type": "string"
        },
        {
          "internalType": "bytes",
          "name": "data",
          "type": "bytes"
        },
        {
          "internalType": "uint256",
          "name": "eta",
          "type": "uint256"
        }
      ],
      "name": "executeTransaction",
      "outputs": [
        {
          "internalType": "bytes",
          "name": "",
          "type": "bytes"
        }
      ],
      "stateMutability": "payable",
      "type": "function"
    },
    {
      "inputs": [],
      "name": "pendingAdmin",
      "outputs": [
        {
          "internalType": "address",
          "name": "",
          "type": "address"
        }
      ],
      "stateMutability": "view",
      "type": "function"
    },
    {
      "inputs": [
        {
          "internalType": "address",
          "name": "target",
          "type": "address"
        },
        {
          "internalType": "uint256",
          "name": "value",
          "type": "uint256"
        },
        {
          "internalType": "string",
          "name": "signature",
          "type": "string"
        },
        {
          "internalType": "bytes",
          "name": "data",
          "type": "bytes"
        },
        {
          "internalType": "uint256",
          "name": "eta",
          "type": "uint256"
        }
      ],
      "name": "queueTransaction",
      "outputs": [
        {
          "internalType": "bytes32",
          "name": "",
          "type": "bytes32"
        }
      ],
      "stateMutability": "nonpayable",
      "type": "function"
    },
    {
      "inputs": [
        {
          "internalType": "bytes32",
          "name": "",
          "type": "bytes32"
        }
      ],
      "name": "queuedTransactions",
      "outputs": [
        {
          "internalType": "bool",
          "name": "",
          "type": "bool"
        }
      ],
      "stateMutability": "view",
      "type": "function"
    },
    {
      "inputs": [
        {
          "internalType": "uint256",
          "name": "_delay",
          "type": "uint256"
        }
      ],
      "name": "setDelay",
      "outputs": [],
      "stateMutability": "nonpayable",
      "type": "function"
    },
    {
      "inputs": [
        {
          "internalType": "address",
          "name": "_pendingAdmin",
          "type": "address"
        }
      ],
      "name": "setPendingAdmin",
      "outputs": [],
      "stateMutability": "nonpayable",
      "type": "function"
    },
    {
      "stateMutability": "payable",
      "type": "receive"
    },
    {
      "inputs": [
        {
          "internalType": "address",
          "name": "pendingAdmin_",
          "type": "address"
        }
      ],
      "name": "harnessSetPendingAdmin",
      "outputs": [],
      "stateMutability": "nonpayable",
      "type": "function"
    },
    {
      "inputs": [
        {
          "internalType": "address",
          "name": "admin_",
          "type": "address"
        }
      ],
      "name": "harnessSetAdmin",
      "outputs": [],
      "stateMutability": "nonpayable",
      "type": "function"
    }
  ],
  "bytecode": "0x608060405234801561001057600080fd5b506040516119523803806119528339818101604052604081101561003357600080fd5b508051602090910151816202a3006001600160a01b03821661005457600080fd5b6202a3008110156100965760405162461bcd60e51b81526004018080602001828103825260378152602001806118e36037913960400191505060405180910390fd5b62278d008111156100d85760405162461bcd60e51b815260040180806020018281038252603881526020018061191a6038913960400191505060405180910390fd5b50600080546001600160a01b039092166001600160a01b0319909216919091179055600255506117d68061010d6000396000f3fe6080604052600436106100ec5760003560e01c806372b812b41161008a578063c1a287e211610059578063c1a287e214610674578063e177246e14610689578063f2b06537146106b3578063f851a440146106f1576100f3565b806372b812b4146105e45780637d645fab146106175780639ddf774f1461062c578063b1b43ae51461065f576100f3565b80633a66f901116100c65780633a66f901146102f05780634dd18bf51461044f578063591fcdfe146104825780636a42b8f8146105cf576100f3565b80630825f38f146100f55780630e18b681146102aa57806326782247146102bf576100f3565b366100f357005b005b610235600480360360a081101561010b57600080fd5b6001600160a01b0382351691602081013591810190606081016040820135600160201b81111561013a57600080fd5b82018360208201111561014c57600080fd5b803590602001918460018302840111600160201b8311171561016d57600080fd5b91908080601f0160208091040260200160405190810160405280939291908181526020018383808284376000920191909152509295949360208101935035915050600160201b8111156101bf57600080fd5b8201836020820111156101d157600080fd5b803590602001918460018302840111600160201b831117156101f257600080fd5b91908080601f0160208091040260200160405190810160405280939291908181526020018383808284376000920191909152509295505091359250610706915050565b6040805160208082528351818301528351919283929083019185019080838360005b8381101561026f578181015183820152602001610257565b50505050905090810190601f16801561029c5780820380516001836020036101000a031916815260200191505b509250505060405180910390f35b3480156102b657600080fd5b506100f3610bf8565b3480156102cb57600080fd5b506102d4610c94565b604080516001600160a01b039092168252519081900360200190f35b3480156102fc57600080fd5b5061043d600480360360a081101561031357600080fd5b6001600160a01b0382351691602081013591810190606081016040820135600160201b81111561034257600080fd5b82018360208201111561035457600080fd5b803590602001918460018302840111600160201b8311171561037557600080fd5b91908080601f0160208091040260200160405190810160405280939291908181526020018383808284376000920191909152509295949360208101935035915050600160201b8111156103c757600080fd5b8201836020820111156103d957600080fd5b803590602001918460018302840111600160201b831117156103fa57600080fd5b91908080601f0160208091040260200160405190810160405280939291908181526020018383808284376000920191909152509295505091359250610ca3915050565b60408051918252519081900360200190f35b34801561045b57600080fd5b506100f36004803603602081101561047257600080fd5b50356001600160a01b0316610f9f565b34801561048e57600080fd5b506100f3600480360360a08110156104a557600080fd5b6001600160a01b0382351691602081013591810190606081016040820135600160201b8111156104d457600080fd5b8201836020820111156104e657600080fd5b803590602001918460018302840111600160201b8311171561050757600080fd5b91908080601f0160208091040260200160405190810160405280939291908181526020018383808284376000920191909152509295949360208101935035915050600160201b81111561055957600080fd5b82018360208201111561056b57600080fd5b803590602001918460018302840111600160201b8311171561058c57600080fd5b91908080601f016020809104026020016040519081016040528093929190818152602001838380828437600092019190915250929550509135925061102d915050565b3480156105db57600080fd5b5061043d6112da565b3480156105f057600080fd5b506100f36004803603602081101561060757600080fd5b50356001600160a01b03166112e0565b34801561062357600080fd5b5061043d611302565b34801561063857600080fd5b506100f36004803603602081101561064f57600080fd5b50356001600160a01b0316611309565b34801561066b57600080fd5b5061043d61132b565b34801561068057600080fd5b5061043d611332565b34801561069557600080fd5b506100f3600480360360208110156106ac57600080fd5b5035611339565b3480156106bf57600080fd5b506106dd600480360360208110156106d657600080fd5b503561142e565b604080519115158252519081900360200190f35b3480156106fd57600080fd5b506102d4611443565b6000546060906001600160a01b031633146107525760405162461bcd60e51b81526004018080602001828103825260388152602001806114b46038913960400191505060405180910390fd5b6000868686868660405160200180866001600160a01b031681526020018581526020018060200180602001848152602001838103835286818151815260200191508051906020019080838360005b838110156107b85781810151838201526020016107a0565b50505050905090810190601f1680156107e55780820380516001836020036101000a031916815260200191505b50838103825285518152855160209182019187019080838360005b83811015610818578181015183820152602001610800565b50505050905090810190601f1680156108455780820380516001836020036101000a031916815260200191505b5060408051601f1981840301815291815281516020928301206000818152600390935291205490995060ff1697506108b696505050505050505760405162461bcd60e51b815260040180806020018281038252603d815260200180611607603d913960400191505060405180910390fd5b824210156108f55760405162461bcd60e51b81526004018080602001828103825260458152602001806115566045913960600191505060405180910390fd5b6109028362127500611452565b4211156109405760405162461bcd60e51b81526004018080602001828103825260338152602001806115236033913960400191505060405180910390fd5b6000818152600360205260409020805460ff1916905584516060906109665750836109e9565b85805190602001208560405160200180836001600160e01b031916815260040182805190602001908083835b602083106109b15780518252601f199092019160209182019101610992565b6001836020036101000a0380198251168184511680821785525050505050509050019250505060405160208183030381529060405290505b60006060896001600160a01b031689846040518082805190602001908083835b60208310610a285780518252601f199092019160209182019101610a09565b6001836020036101000a03801982511681845116808217855250505050505090500191505060006040518083038185875af1925050503d8060008114610a8a576040519150601f19603f3d011682016040523d82523d6000602084013e610a8f565b606091505b509150915081610ad05760405162461bcd60e51b815260040180806020018281038252603d8152602001806116ea603d913960400191505060405180910390fd5b896001600160a01b0316847fa560e3198060a2f10670c1ec5b403077ea6ae93ca8de1c32b451dc1a943cd6e78b8b8b8b604051808581526020018060200180602001848152602001838103835286818151815260200191508051906020019080838360005b83811015610b4d578181015183820152602001610b35565b50505050905090810190601f168015610b7a5780820380516001836020036101000a031916815260200191505b50838103825285518152855160209182019187019080838360005b83811015610bad578181015183820152602001610b95565b50505050905090810190601f168015610bda5780820380516001836020036101000a031916815260200191505b50965050505050505060405180910390a39998505050505050505050565b6001546001600160a01b03163314610c415760405162461bcd60e51b81526004018080602001828103825260388152602001806116446038913960400191505060405180910390fd5b60008054336001600160a01b031991821617808355600180549092169091556040516001600160a01b03909116917f71614071b88dee5e0b2ae578a9dd7b2ebbe9ae832ba419dc0242cd065a290b6c91a2565b6001546001600160a01b031681565b600080546001600160a01b03163314610ced5760405162461bcd60e51b81526004018080602001828103825260368152602001806116b46036913960400191505060405180910390fd5b600254610cfb904290611452565b821015610d395760405162461bcd60e51b81526004018080602001828103825260498152602001806117276049913960600191505060405180910390fd5b6000868686868660405160200180866001600160a01b031681526020018581526020018060200180602001848152602001838103835286818151815260200191508051906020019080838360005b83811015610d9f578181015183820152602001610d87565b50505050905090810190601f168015610dcc5780820380516001836020036101000a031916815260200191505b50838103825285518152855160209182019187019080838360005b83811015610dff578181015183820152602001610de7565b50505050905090810190601f168015610e2c5780820380516001836020036101000a031916815260200191505b5097505050505050505060405160208183030381529060405280519060200120905060016003600083815260200190815260200160002060006101000a81548160ff021916908315150217905550866001600160a01b0316817f76e2796dc3a81d57b0e8504b647febcbeeb5f4af818e164f11eef8131a6a763f88888888604051808581526020018060200180602001848152602001838103835286818151815260200191508051906020019080838360005b83811015610ef7578181015183820152602001610edf565b50505050905090810190601f168015610f245780820380516001836020036101000a031916815260200191505b50838103825285518152855160209182019187019080838360005b83811015610f57578181015183820152602001610f3f565b50505050905090810190601f168015610f845780820380516001836020036101000a031916815260200191505b50965050505050505060405180910390a39695505050505050565b333014610fdd5760405162461bcd60e51b815260040180806020018281038252603881526020018061167c6038913960400191505060405180910390fd5b600180546001600160a01b0319166001600160a01b0383811691909117918290556040519116907f69d78e38a01985fbb1462961809b4b2d65531bc93b2b94037f3334b82ca4a75690600090a250565b6000546001600160a01b031633146110765760405162461bcd60e51b81526004018080602001828103825260378152602001806114ec6037913960400191505060405180910390fd5b6000858585858560405160200180866001600160a01b031681526020018581526020018060200180602001848152602001838103835286818151815260200191508051906020019080838360005b838110156110dc5781810151838201526020016110c4565b50505050905090810190601f1680156111095780820380516001836020036101000a031916815260200191505b50838103825285518152855160209182019187019080838360005b8381101561113c578181015183820152602001611124565b50505050905090810190601f1680156111695780820380516001836020036101000a031916815260200191505b5097505050505050505060405160208183030381529060405280519060200120905060006003600083815260200190815260200160002060006101000a81548160ff021916908315150217905550856001600160a01b0316817f2fffc091a501fd91bfbff27141450d3acb40fb8e6d8382b243ec7a812a3aaf8787878787604051808581526020018060200180602001848152602001838103835286818151815260200191508051906020019080838360005b8381101561123457818101518382015260200161121c565b50505050905090810190601f1680156112615780820380516001836020036101000a031916815260200191505b50838103825285518152855160209182019187019080838360005b8381101561129457818101518382015260200161127c565b50505050905090810190601f1680156112c15780820380516001836020036101000a031916815260200191505b50965050505050505060405180910390a3505050505050565b60025481565b600080546001600160a01b0319166001600160a01b0392909216919091179055565b62278d0081565b600180546001600160a01b0319166001600160a01b0392909216919091179055565b6202a30081565b6212750081565b3330146113775760405162461bcd60e51b81526004018080602001828103825260318152602001806117706031913960400191505060405180910390fd5b6202a3008110156113b95760405162461bcd60e51b815260040180806020018281038252603481526020018061159b6034913960400191505060405180910390fd5b62278d008111156113fb5760405162461bcd60e51b81526004018080602001828103825260388152602001806115cf6038913960400191505060405180910390fd5b600281905560405181907f948b1f6a42ee138b7e34058ba85a37f716d55ff25ff05a763f15bed6a04c8d2c90600090a250565b60036020526000908152604090205460ff1681565b6000546001600160a01b031681565b6000828201838110156114ac576040805162461bcd60e51b815260206004820152601b60248201527f536166654d6174683a206164646974696f6e206f766572666c6f770000000000604482015290519081900360640190fd5b939250505056fe54696d656c6f636b3a3a657865637574655472616e73616374696f6e3a2043616c6c206d75737420636f6d652066726f6d2061646d696e2e54696d656c6f636b3a3a63616e63656c5472616e73616374696f6e3a2043616c6c206d75737420636f6d652066726f6d2061646d696e2e54696d656c6f636b3a3a657865637574655472616e73616374696f6e3a205472616e73616374696f6e206973207374616c652e54696d656c6f636b3a3a657865637574655472616e73616374696f6e3a205472616e73616374696f6e206861736e2774207375727061737365642074696d65206c6f636b2e54696d656c6f636b3a3a73657444656c61793a2044656c6179206d75737420657863656564206d696e696d756d2064656c61792e54696d656c6f636b3a3a73657444656c61793a2044656c6179206d757374206e6f7420657863656564206d6178696d756d2064656c61792e54696d656c6f636b3a3a657865637574655472616e73616374696f6e3a205472616e73616374696f6e206861736e2774206265656e207175657565642e54696d656c6f636b3a3a61636365707441646d696e3a2043616c6c206d75737420636f6d652066726f6d2070656e64696e6741646d696e2e54696d656c6f636b3a3a73657450656e64696e6741646d696e3a2043616c6c206d75737420636f6d652066726f6d2054696d656c6f636b2e54696d656c6f636b3a3a71756575655472616e73616374696f6e3a2043616c6c206d75737420636f6d652066726f6d2061646d696e2e54696d656c6f636b3a3a657865637574655472616e73616374696f6e3a205472616e73616374696f6e20657865637574696f6e2072657665727465642e54696d656c6f636b3a3a71756575655472616e73616374696f6e3a20457374696d6174656420657865637574696f6e20626c6f636b206d75737420736174697366792064656c61792e54696d656c6f636b3a3a73657444656c61793a2043616c6c206d75737420636f6d652066726f6d2054696d656c6f636b2ea2646970667358221220a382208f90e98d8fa7617479af043dd5ec4711f2c65141e571fe4800f2d4348d64736f6c634300060c003354696d656c6f636b3a3a636f6e7374727563746f723a2044656c6179206d75737420657863656564206d696e696d756d2064656c61792e54696d656c6f636b3a3a73657444656c61793a2044656c6179206d757374206e6f7420657863656564206d6178696d756d2064656c61792e",
  "immutableReferences": {},
  "source": "// SPDX-License-Identifier: BSD-3-Clause\npragma solidity 0.6.12;\n\nimport \"../Timelock.sol\";\n\n// Test timelock contract with admin helpers\ncontract TestTimelock is Timelock {\n  constructor(address admin_, uint256 delay_) public Timelock(admin_, 2 days) {\n    delay = delay_;\n  }\n\n  function harnessSetPendingAdmin(address pendingAdmin_) public {\n    pendingAdmin = pendingAdmin_;\n  }\n\n  function harnessSetAdmin(address admin_) public {\n    admin = admin_;\n  }\n}\n",
  "sourcePath": "/home/mingyue/sub_contract_content/Web3Bugs/contracts/115/core/contracts/governance/test/TestTimelock.sol",
  "compiler": {
    "name": "solc",
    "version": "0.6.12+commit.27d51765.Emscripten.clang"
  },
  "schemaVersion": "3.4.7",
  "updatedAt": "2025-02-28T14:09:34.617Z",
  "devdoc": {
    "kind": "dev",
    "methods": {},
    "version": 1
  },
  "userdoc": {
    "kind": "user",
    "methods": {},
    "version": 1
  }
}