{
  "contractName": "Upgrade",
  "abi": [
    {
      "inputs": [
        {
          "internalType": "contract IAddressProvider",
          "name": "_addresses",
          "type": "address"
        },
        {
          "internalType": "contract IVaultsCore",
          "name": "_core",
          "type": "address"
        },
        {
          "internalType": "contract IVaultsCoreState",
          "name": "_coreState",
          "type": "address"
        },
        {
          "internalType": "contract ILiquidationManager",
          "name": "_liquidationManager",
          "type": "address"
        },
        {
          "internalType": "contract IConfigProvider",
          "name": "_config",
          "type": "address"
        },
        {
          "internalType": "contract IFeeDistributor",
          "name": "_feeDistributor",
          "type": "address"
        },
        {
          "internalType": "contract IDebtNotifier",
          "name": "_debtNotifier",
          "type": "address"
        },
        {
          "internalType": "contract IPriceFeed",
          "name": "_priceFeed",
          "type": "address"
        },
        {
          "internalType": "address",
          "name": "_bpool",
          "type": "address"
        }
      ],
      "stateMutability": "nonpayable",
      "type": "constructor"
    },
    {
      "inputs": [],
      "name": "LIQUIDATION_BONUS",
      "outputs": [
        {
          "internalType": "uint256",
          "name": "",
          "type": "uint256"
        }
      ],
      "stateMutability": "view",
      "type": "function"
    },
    {
      "inputs": [],
      "name": "a",
      "outputs": [
        {
          "internalType": "contract IAddressProvider",
          "name": "",
          "type": "address"
        }
      ],
      "stateMutability": "view",
      "type": "function"
    },
    {
      "inputs": [],
      "name": "bpool",
      "outputs": [
        {
          "internalType": "address",
          "name": "",
          "type": "address"
        }
      ],
      "stateMutability": "view",
      "type": "function"
    },
    {
      "inputs": [],
      "name": "config",
      "outputs": [
        {
          "internalType": "contract IConfigProvider",
          "name": "",
          "type": "address"
        }
      ],
      "stateMutability": "view",
      "type": "function"
    },
    {
      "inputs": [],
      "name": "core",
      "outputs": [
        {
          "internalType": "contract IVaultsCore",
          "name": "",
          "type": "address"
        }
      ],
      "stateMutability": "view",
      "type": "function"
    },
    {
      "inputs": [],
      "name": "coreState",
      "outputs": [
        {
          "internalType": "contract IVaultsCoreState",
          "name": "",
          "type": "address"
        }
      ],
      "stateMutability": "view",
      "type": "function"
    },
    {
      "inputs": [],
      "name": "debtNotifier",
      "outputs": [
        {
          "internalType": "contract IDebtNotifier",
          "name": "",
          "type": "address"
        }
      ],
      "stateMutability": "view",
      "type": "function"
    },
    {
      "inputs": [],
      "name": "feeDistributor",
      "outputs": [
        {
          "internalType": "contract IFeeDistributor",
          "name": "",
          "type": "address"
        }
      ],
      "stateMutability": "view",
      "type": "function"
    },
    {
      "inputs": [],
      "name": "liquidationManager",
      "outputs": [
        {
          "internalType": "contract ILiquidationManager",
          "name": "",
          "type": "address"
        }
      ],
      "stateMutability": "view",
      "type": "function"
    },
    {
      "inputs": [],
      "name": "priceFeed",
      "outputs": [
        {
          "internalType": "contract IPriceFeed",
          "name": "",
          "type": "address"
        }
      ],
      "stateMutability": "view",
      "type": "function"
    },
    {
      "inputs": [],
      "name": "upgrade",
      "outputs": [],
      "stateMutability": "nonpayable",
      "type": "function"
    }
  ],
  "bytecode": "0x60806040523480156200001157600080fd5b5060405162001e5e38038062001e5e833981016040819052620000349162000189565b6001600160a01b0389166200004857600080fd5b6001600160a01b0388166200005c57600080fd5b6001600160a01b0387166200007057600080fd5b6001600160a01b0386166200008457600080fd5b6001600160a01b0385166200009857600080fd5b6001600160a01b038416620000ac57600080fd5b6001600160a01b038316620000c057600080fd5b6001600160a01b038216620000d457600080fd5b6001600160a01b038116620000e857600080fd5b600080546001600160a01b03199081166001600160a01b039b8c1617909155600180548216998b1699909917909855600280548916978a1697909717909655600380548816958916959095179094556004805487169388169390931790925560058054861691871691909117905560068054851691861691909117905560078054841691851691909117905560088054909216921691909117905562000278565b60008060008060008060008060006101208a8c031215620001a8578485fd5b8951620001b5816200025f565b60208b0151909950620001c8816200025f565b60408b0151909850620001db816200025f565b60608b0151909750620001ee816200025f565b60808b015190965062000201816200025f565b60a08b015190955062000214816200025f565b60c08b015190945062000227816200025f565b60e08b01519093506200023a816200025f565b6101008b01519092506200024e816200025f565b809150509295985092959850929598565b6001600160a01b03811681146200027557600080fd5b50565b611bd680620002886000396000f3fe608060405234801561001057600080fd5b50600436106100a95760003560e01c80635679f934116100715780635679f934146100f9578063741bef1a1461010157806379502c5514610109578063bd1b714614610111578063d55ec69714610119578063f2f4eb2614610123576100a9565b80630d43e8ad146100ae5780630dbe671f146100cc5780631ef3a04c146100d457806323a2f46c146100dc5780633574d4c4146100e4575b600080fd5b6100b661012b565b6040516100c39190611a6b565b60405180910390f35b6100b661013a565b6100b6610149565b6100b6610158565b6100ec610167565b6040516100c39190611b7f565b6100b6610172565b6100b6610181565b6100b6610190565b6100b661019f565b6101216101ae565b005b6100b6611940565b6005546001600160a01b031681565b6000546001600160a01b031681565b6003546001600160a01b031681565b6008546001600160a01b031681565b66b1a2bc2ec5000081565b6002546001600160a01b031681565b6007546001600160a01b031681565b6004546001600160a01b031681565b6006546001600160a01b031681565b60008054906101000a90046001600160a01b03166001600160a01b031663f77c47916040518163ffffffff1660e01b815260040160206040518083038186803b1580156101fa57600080fd5b505afa15801561020e573d6000803e3d6000fd5b505050506040513d601f19601f8201168201806040525081019061023291906119c6565b6001600160a01b03166391d1485460008054906101000a90046001600160a01b03166001600160a01b031663f77c47916040518163ffffffff1660e01b815260040160206040518083038186803b15801561028c57600080fd5b505afa1580156102a0573d6000803e3d6000fd5b505050506040513d601f19601f820116820180604052508101906102c491906119c6565b6001600160a01b031663ec87621c6040518163ffffffff1660e01b815260040160206040518083038186803b1580156102fc57600080fd5b505afa158015610310573d6000803e3d6000fd5b505050506040513d601f19601f8201168201806040525081019061033491906119ae565b336040518363ffffffff1660e01b8152600401610352929190611b68565b60206040518083038186803b15801561036a57600080fd5b505afa15801561037e573d6000803e3d6000fd5b505050506040513d601f19601f820116820180604052508101906103a29190611987565b6103ab57600080fd5b60008060009054906101000a90046001600160a01b03166001600160a01b03166379502c556040518163ffffffff1660e01b815260040160206040518083038186803b1580156103fa57600080fd5b505afa15801561040e573d6000803e3d6000fd5b505050506040513d601f19601f8201168201806040525081019061043291906119c6565b905060008060009054906101000a90046001600160a01b03166001600160a01b031663741bef1a6040518163ffffffff1660e01b815260040160206040518083038186803b15801561048357600080fd5b505afa158015610497573d6000803e3d6000fd5b505050506040513d601f19601f820116820180604052508101906104bb91906119c6565b905060008060009054906101000a90046001600160a01b03166001600160a01b031663f2f4eb266040518163ffffffff1660e01b815260040160206040518083038186803b15801561050c57600080fd5b505afa158015610520573d6000803e3d6000fd5b505050506040513d601f19601f8201168201806040525081019061054491906119c6565b905060008060009054906101000a90046001600160a01b03166001600160a01b0316630d43e8ad6040518163ffffffff1660e01b815260040160206040518083038186803b15801561059557600080fd5b505afa1580156105a9573d6000803e3d6000fd5b505050506040513d601f19601f820116820180604052508101906105cd91906119c6565b905060008060009054906101000a90046001600160a01b03166001600160a01b031663f77c47916040518163ffffffff1660e01b815260040160206040518083038186803b15801561061e57600080fd5b505afa158015610632573d6000803e3d6000fd5b505050506040513d601f19601f8201168201806040525081019061065691906119c6565b6001600160a01b031663d53913936040518163ffffffff1660e01b815260040160206040518083038186803b15801561068e57600080fd5b505afa1580156106a2573d6000803e3d6000fd5b505050506040513d601f19601f820116820180604052508101906106c691906119ae565b905060008060009054906101000a90046001600160a01b03166001600160a01b031663f77c47916040518163ffffffff1660e01b815260040160206040518083038186803b15801561071757600080fd5b505afa15801561072b573d6000803e3d6000fd5b505050506040513d601f19601f8201168201806040525081019061074f91906119c6565b6001600160a01b031663ec87621c6040518163ffffffff1660e01b815260040160206040518083038186803b15801561078757600080fd5b505afa15801561079b573d6000803e3d6000fd5b505050506040513d601f19601f820116820180604052508101906107bf91906119ae565b600080546040805163f77c479160e01b8152905193945091926001600160a01b039091169163f77c4791916004808301926020929190829003018186803b15801561080957600080fd5b505afa15801561081d573d6000803e3d6000fd5b505050506040513d601f19601f8201168201806040525081019061084191906119c6565b6001600160a01b0316632f2ff15d83306040518363ffffffff1660e01b815260040161086e929190611b68565b600060405180830381600087803b15801561088857600080fd5b505af115801561089c573d6000803e3d6000fd5b5050505060008054906101000a90046001600160a01b03166001600160a01b031663f77c47916040518163ffffffff1660e01b815260040160206040518083038186803b1580156108ec57600080fd5b505afa158015610900573d6000803e3d6000fd5b505050506040513d601f19601f8201168201806040525081019061092491906119c6565b600154604051632f2ff15d60e01b81526001600160a01b0392831692632f2ff15d9261095892889290911690600401611b68565b600060405180830381600087803b15801561097257600080fd5b505af1158015610986573d6000803e3d6000fd5b5050505060008054906101000a90046001600160a01b03166001600160a01b031663f77c47916040518163ffffffff1660e01b815260040160206040518083038186803b1580156109d657600080fd5b505afa1580156109ea573d6000803e3d6000fd5b505050506040513d601f19601f82011682018060405250810190610a0e91906119c6565b600554604051632f2ff15d60e01b81526001600160a01b0392831692632f2ff15d92610a4292889290911690600401611b68565b600060405180830381600087803b158015610a5c57600080fd5b505af1158015610a70573d6000803e3d6000fd5b50505050846001600160a01b031663f8ac93e86040518163ffffffff1660e01b8152600401600060405180830381600087803b158015610aaf57600080fd5b505af1158015610ac3573d6000803e3d6000fd5b505050506000856001600160a01b031663b718ee946040518163ffffffff1660e01b815260040160206040518083038186803b158015610b0257600080fd5b505afa158015610b16573d6000803e3d6000fd5b505050506040513d601f19601f82011682018060405250810190610b3a91906119ae565b1115610b9457836001600160a01b03166386d1a69f6040518163ffffffff1660e01b8152600401600060405180830381600087803b158015610b7b57600080fd5b505af1158015610b8f573d6000803e3d6000fd5b505050505b60008054906101000a90046001600160a01b03166001600160a01b031663f77c47916040518163ffffffff1660e01b815260040160206040518083038186803b158015610be057600080fd5b505afa158015610bf4573d6000803e3d6000fd5b505050506040513d601f19601f82011682018060405250810190610c1891906119c6565b6001600160a01b031663d547741f8460008054906101000a90046001600160a01b03166001600160a01b031663f2f4eb266040518163ffffffff1660e01b815260040160206040518083038186803b158015610c7357600080fd5b505afa158015610c87573d6000803e3d6000fd5b505050506040513d601f19601f82011682018060405250810190610cab91906119c6565b6040518363ffffffff1660e01b8152600401610cc8929190611b68565b600060405180830381600087803b158015610ce257600080fd5b505af1158015610cf6573d6000803e3d6000fd5b5050505060008054906101000a90046001600160a01b03166001600160a01b031663f77c47916040518163ffffffff1660e01b815260040160206040518083038186803b158015610d4657600080fd5b505afa158015610d5a573d6000803e3d6000fd5b505050506040513d601f19601f82011682018060405250810190610d7e91906119c6565b6001600160a01b031663d547741f8460008054906101000a90046001600160a01b03166001600160a01b0316630d43e8ad6040518163ffffffff1660e01b815260040160206040518083038186803b158015610dd957600080fd5b505afa158015610ded573d6000803e3d6000fd5b505050506040513d601f19601f82011682018060405250810190610e1191906119c6565b6040518363ffffffff1660e01b8152600401610e2e929190611b68565b600060405180830381600087803b158015610e4857600080fd5b505af1158015610e5c573d6000803e3d6000fd5b505060015460405162900f0160e41b81526001600160a01b03808a169450630900f0109350610e8f921690600401611a6b565b600060405180830381600087803b158015610ea957600080fd5b505af1158015610ebd573d6000803e3d6000fd5b5050600054600154604051636123ef3f60e01b81526001600160a01b039283169450636123ef3f9350610ef69290911690600401611a6b565b600060405180830381600087803b158015610f1057600080fd5b505af1158015610f24573d6000803e3d6000fd5b5050600054600480546040516339a8f0ff60e01b81526001600160a01b0393841695506339a8f0ff9450610f5c939091169101611a6b565b600060405180830381600087803b158015610f7657600080fd5b505af1158015610f8a573d6000803e3d6000fd5b50506000546003546040516338f92fc760e01b81526001600160a01b0392831694506338f92fc79350610fc39290911690600401611a6b565b600060405180830381600087803b158015610fdd57600080fd5b505af1158015610ff1573d6000803e3d6000fd5b505060005460055460405163ccfc2e8d60e01b81526001600160a01b03928316945063ccfc2e8d935061102a9290911690600401611a6b565b600060405180830381600087803b15801561104457600080fd5b505af1158015611058573d6000803e3d6000fd5b50506000546007546040516339273c6d60e11b81526001600160a01b03928316945063724e78da93506110919290911690600401611a6b565b600060405180830381600087803b1580156110ab57600080fd5b505af11580156110bf573d6000803e3d6000fd5b50505050600760009054906101000a90046001600160a01b03166001600160a01b0316633947e586876001600160a01b0316636719d7ac6040518163ffffffff1660e01b815260040160206040518083038186803b15801561112057600080fd5b505afa158015611134573d6000803e3d6000fd5b505050506040513d601f19601f8201168201806040525081019061115891906119c6565b6040518263ffffffff1660e01b81526004016111749190611a6b565b600060405180830381600087803b15801561118e57600080fd5b505af11580156111a2573d6000803e3d6000fd5b505050506000876001600160a01b031663d47e470d6040518163ffffffff1660e01b815260040160206040518083038186803b1580156111e157600080fd5b505afa1580156111f5573d6000803e3d6000fd5b505050506040513d601f19601f8201168201806040525081019061121991906119ae565b905060015b81811161141d5761122d61194f565b6040516304a6e0dd60e41b81526001600160a01b038b1690634a6e0dd090611259908590600401611b7f565b60a06040518083038186803b15801561127157600080fd5b505afa158015611285573d6000803e3d6000fd5b505050506040513d601f19601f820116820180604052508101906112a991906119e2565b600480548251602084015160408086015160608701516080880151925163c7acd53160e01b81529798506001600160a01b039095169663c7acd53196611302969293849392909166b1a2bc2ec500009160009101611a99565b600060405180830381600087803b15801561131c57600080fd5b505af1158015611330573d6000803e3d6000fd5b505060075483516040516315b31cc360e11b81526001600160a01b0392831694506362adfe7a935090918d1690632b66398690611371908490600401611a6b565b60206040518083038186803b15801561138957600080fd5b505afa15801561139d573d6000803e3d6000fd5b505050506040513d601f19601f820116820180604052508101906113c191906119c6565b6040518363ffffffff1660e01b81526004016113de929190611a7f565b600060405180830381600087803b1580156113f857600080fd5b505af115801561140c573d6000803e3d6000fd5b50506001909301925061121e915050565b5060025460405163158cb02560e31b81526001600160a01b039091169063ac6581289061144e908990600401611a6b565b600060405180830381600087803b15801561146857600080fd5b505af115801561147c573d6000803e3d6000fd5b505060015460405163cfc1b41960e01b81526001600160a01b03909116925063cfc1b41991506114b0908990600401611a6b565b600060405180830381600087803b1580156114ca57600080fd5b505af11580156114de573d6000803e3d6000fd5b50506001546006546040516325cb4c3360e11b81526001600160a01b039283169450634b96986693506115179290911690600401611a6b565b600060405180830381600087803b15801561153157600080fd5b505af1158015611545573d6000803e3d6000fd5b50505050600660009054906101000a90046001600160a01b03166001600160a01b0316630dbe671f6040518163ffffffff1660e01b815260040160206040518083038186803b15801561159757600080fd5b505afa1580156115ab573d6000803e3d6000fd5b505050506040513d601f19601f820116820180604052508101906115cf91906119c6565b6006546040516325cb4c3360e11b81526001600160a01b0392831692634b9698669261160092911690600401611a6b565b600060405180830381600087803b15801561161a57600080fd5b505af115801561162e573d6000803e3d6000fd5b505060408051600280825260608083018452945090925090602083019080368337505060085482519293506001600160a01b03169183915060009061166f57fe5b6001600160a01b039283166020918202929092010152600180548351921691839190811061169957fe5b6001600160a01b0392909216602092830291909101909101526040805160028082526060828101909352816020016020820280368337019050509050605a816000815181106116e457fe5b602002602001018181525050600a816001815181106116ff57fe5b602090810291909101015260055460405163acd7af0160e01b81526001600160a01b039091169063acd7af019061173c9085908590600401611ada565b600060405180830381600087803b15801561175657600080fd5b505af115801561176a573d6000803e3d6000fd5b5050505060008054906101000a90046001600160a01b03166001600160a01b031663f77c47916040518163ffffffff1660e01b815260040160206040518083038186803b1580156117ba57600080fd5b505afa1580156117ce573d6000803e3d6000fd5b505050506040513d601f19601f820116820180604052508101906117f291906119c6565b6001600160a01b031663d547741f86306040518363ffffffff1660e01b815260040161181f929190611b68565b600060405180830381600087803b15801561183957600080fd5b505af115801561184d573d6000803e3d6000fd5b5050505060008054906101000a90046001600160a01b03166001600160a01b031663f77c47916040518163ffffffff1660e01b815260040160206040518083038186803b15801561189d57600080fd5b505afa1580156118b1573d6000803e3d6000fd5b505050506040513d601f19601f820116820180604052508101906118d591906119c6565b6001600160a01b031663d547741f85306040518363ffffffff1660e01b8152600401611902929190611b68565b600060405180830381600087803b15801561191c57600080fd5b505af1158015611930573d6000803e3d6000fd5b5050505050505050505050505050565b6001546001600160a01b031681565b6040518060a0016040528060006001600160a01b03168152602001600081526020016000815260200160008152602001600081525090565b600060208284031215611998578081fd5b815180151581146119a7578182fd5b9392505050565b6000602082840312156119bf578081fd5b5051919050565b6000602082840312156119d7578081fd5b81516119a781611b88565b600060a082840312156119f3578081fd5b60405160a0810181811067ffffffffffffffff82111715611a12578283fd5b6040528251611a2081611b88565b80825250602083015160208201526040830151604082015260608301516060820152608083015160808201528091505092915050565b815260200190565b6001600160a01b03169052565b6001600160a01b0391909116815260200190565b6001600160a01b0392831681529116602082015260400190565b6001600160a01b03989098168852602088019690965260408701949094526060860192909252608085015260a084015260c083015260e08201526101000190565b604080825283519082018190526000906020906060840190828701845b82811015611b1a57611b0a848351611a5e565b9284019290840190600101611af7565b50505083810382850152808551611b318184611b7f565b91508387019250845b81811015611b5b57611b4d838551611a56565b938501939250600101611b3a565b5090979650505050505050565b9182526001600160a01b0316602082015260400190565b90815260200190565b6001600160a01b0381168114611b9d57600080fd5b5056fea2646970667358221220e9566e936eebfd8be3b7a08d66b93a3d92af9b688987e445d1e82d3798bc1d8764736f6c634300060c0033",
  "immutableReferences": {},
  "source": "// SPDX-License-Identifier: MIT\n\npragma experimental ABIEncoderV2;\npragma solidity 0.6.12;\n\nimport \"@openzeppelin/contracts/math/SafeMath.sol\";\nimport \"../v1/interfaces/IConfigProviderV1.sol\";\nimport \"../v1/interfaces/IVaultsCoreV1.sol\";\nimport \"../v1/interfaces/IFeeDistributorV1.sol\";\nimport \"../interfaces/IAddressProvider.sol\";\nimport \"../interfaces/IVaultsCore.sol\";\nimport \"../interfaces/IVaultsCoreState.sol\";\nimport \"../interfaces/ILiquidationManager.sol\";\nimport \"../interfaces/IConfigProvider.sol\";\nimport \"../interfaces/IFeeDistributor.sol\";\nimport \"../liquidityMining/interfaces/IDebtNotifier.sol\";\n\ncontract Upgrade {\n  using SafeMath for uint256;\n\n  uint256 public constant LIQUIDATION_BONUS = 5e16; // 5%\n\n  IAddressProvider public a;\n  IVaultsCore public core;\n  IVaultsCoreState public coreState;\n  ILiquidationManager public liquidationManager;\n  IConfigProvider public config;\n  IFeeDistributor public feeDistributor;\n  IDebtNotifier public debtNotifier;\n  IPriceFeed public priceFeed;\n  address public bpool;\n\n  modifier onlyManager() {\n    require(a.controller().hasRole(a.controller().MANAGER_ROLE(), msg.sender));\n    _;\n  }\n\n  constructor(\n    IAddressProvider _addresses,\n    IVaultsCore _core,\n    IVaultsCoreState _coreState,\n    ILiquidationManager _liquidationManager,\n    IConfigProvider _config,\n    IFeeDistributor _feeDistributor,\n    IDebtNotifier _debtNotifier,\n    IPriceFeed _priceFeed,\n    address _bpool\n  ) public {\n    require(address(_addresses) != address(0));\n    require(address(_core) != address(0));\n    require(address(_coreState) != address(0));\n    require(address(_liquidationManager) != address(0));\n    require(address(_config) != address(0));\n    require(address(_feeDistributor) != address(0));\n    require(address(_debtNotifier) != address(0));\n    require(address(_priceFeed) != address(0));\n    require(_bpool != address(0));\n\n    a = _addresses;\n    core = _core;\n    coreState = _coreState;\n    liquidationManager = _liquidationManager;\n    config = _config;\n    feeDistributor = _feeDistributor;\n    debtNotifier = _debtNotifier;\n    priceFeed = _priceFeed;\n    bpool = _bpool;\n  }\n\n  function upgrade() public onlyManager {\n    IConfigProviderV1 oldConfig = IConfigProviderV1(address(a.config()));\n    IPriceFeed oldPriceFeed = IPriceFeed(address(a.priceFeed()));\n    IVaultsCoreV1 oldCore = IVaultsCoreV1(address(a.core()));\n    IFeeDistributorV1 oldFeeDistributor = IFeeDistributorV1(address(a.feeDistributor()));\n\n    bytes32 MINTER_ROLE = a.controller().MINTER_ROLE();\n    bytes32 MANAGER_ROLE = a.controller().MANAGER_ROLE();\n    bytes32 DEFAULT_ADMIN_ROLE = 0x0000000000000000000000000000000000000000000000000000000000000000;\n    a.controller().grantRole(MANAGER_ROLE, address(this));\n    a.controller().grantRole(MINTER_ROLE, address(core));\n    a.controller().grantRole(MINTER_ROLE, address(feeDistributor));\n\n    oldCore.refresh();\n    if (oldCore.availableIncome() > 0) {\n      oldFeeDistributor.release();\n    }\n\n    a.controller().revokeRole(MINTER_ROLE, address(a.core()));\n    a.controller().revokeRole(MINTER_ROLE, address(a.feeDistributor()));\n\n    oldCore.upgrade(payable(address(core)));\n\n    a.setVaultsCore(core);\n    a.setConfigProvider(config);\n    a.setLiquidationManager(liquidationManager);\n    a.setFeeDistributor(feeDistributor);\n    a.setPriceFeed(priceFeed);\n\n    priceFeed.setEurOracle(address(oldPriceFeed.eurOracle()));\n\n    uint256 numCollateralConfigs = oldConfig.numCollateralConfigs();\n    for (uint256 i = 1; i <= numCollateralConfigs; i++) {\n      IConfigProviderV1.CollateralConfig memory collateralConfig = oldConfig.collateralConfigs(i);\n\n      config.setCollateralConfig(\n        collateralConfig.collateralType,\n        collateralConfig.debtLimit,\n        collateralConfig.minCollateralRatio,\n        collateralConfig.minCollateralRatio,\n        collateralConfig.borrowRate,\n        collateralConfig.originationFee,\n        LIQUIDATION_BONUS,\n        0\n      );\n\n      priceFeed.setAssetOracle(\n        collateralConfig.collateralType,\n        address(oldPriceFeed.assetOracles(collateralConfig.collateralType))\n      );\n    }\n\n    coreState.syncStateFromV1(oldCore);\n    core.acceptUpgrade(payable(address(oldCore)));\n    core.setDebtNotifier(debtNotifier);\n    debtNotifier.a().setDebtNotifier(debtNotifier);\n\n    address[] memory payees = new address[](2);\n    payees[0] = bpool;\n    payees[1] = address(core);\n    uint256[] memory shares = new uint256[](2);\n    shares[0] = uint256(90);\n    shares[1] = uint256(10);\n    feeDistributor.changePayees(payees, shares);\n\n    a.controller().revokeRole(MANAGER_ROLE, address(this));\n    a.controller().revokeRole(DEFAULT_ADMIN_ROLE, address(this));\n  }\n}\n",
  "sourcePath": "/home/mingyue/sub_contract_content/Web3Bugs/contracts/115/core/contracts/upgrade/Upgrade.sol",
  "compiler": {
    "name": "solc",
    "version": "0.6.12+commit.27d51765.Emscripten.clang"
  },
  "schemaVersion": "3.4.7",
  "updatedAt": "2025-02-28T14:09:34.674Z",
  "devdoc": {
    "kind": "dev",
    "methods": {},
    "version": 1
  },
  "userdoc": {
    "kind": "user",
    "methods": {},
    "version": 1
  }
}