{
  "contractName": "USDX",
  "abi": [
    {
      "inputs": [
        {
          "internalType": "contract IAddressProvider",
          "name": "_addresses",
          "type": "address"
        }
      ],
      "stateMutability": "nonpayable",
      "type": "constructor"
    },
    {
      "anonymous": false,
      "inputs": [
        {
          "indexed": true,
          "internalType": "address",
          "name": "owner",
          "type": "address"
        },
        {
          "indexed": true,
          "internalType": "address",
          "name": "spender",
          "type": "address"
        },
        {
          "indexed": false,
          "internalType": "uint256",
          "name": "value",
          "type": "uint256"
        }
      ],
      "name": "Approval",
      "type": "event"
    },
    {
      "anonymous": false,
      "inputs": [
        {
          "indexed": true,
          "internalType": "address",
          "name": "from",
          "type": "address"
        },
        {
          "indexed": true,
          "internalType": "address",
          "name": "to",
          "type": "address"
        },
        {
          "indexed": false,
          "internalType": "uint256",
          "name": "value",
          "type": "uint256"
        }
      ],
      "name": "Transfer",
      "type": "event"
    },
    {
      "inputs": [],
      "name": "a",
      "outputs": [
        {
          "internalType": "contract IAddressProvider",
          "name": "",
          "type": "address"
        }
      ],
      "stateMutability": "view",
      "type": "function"
    },
    {
      "inputs": [
        {
          "internalType": "address",
          "name": "owner",
          "type": "address"
        },
        {
          "internalType": "address",
          "name": "spender",
          "type": "address"
        }
      ],
      "name": "allowance",
      "outputs": [
        {
          "internalType": "uint256",
          "name": "",
          "type": "uint256"
        }
      ],
      "stateMutability": "view",
      "type": "function"
    },
    {
      "inputs": [
        {
          "internalType": "address",
          "name": "spender",
          "type": "address"
        },
        {
          "internalType": "uint256",
          "name": "amount",
          "type": "uint256"
        }
      ],
      "name": "approve",
      "outputs": [
        {
          "internalType": "bool",
          "name": "",
          "type": "bool"
        }
      ],
      "stateMutability": "nonpayable",
      "type": "function"
    },
    {
      "inputs": [
        {
          "internalType": "address",
          "name": "account",
          "type": "address"
        }
      ],
      "name": "balanceOf",
      "outputs": [
        {
          "internalType": "uint256",
          "name": "",
          "type": "uint256"
        }
      ],
      "stateMutability": "view",
      "type": "function"
    },
    {
      "inputs": [],
      "name": "decimals",
      "outputs": [
        {
          "internalType": "uint8",
          "name": "",
          "type": "uint8"
        }
      ],
      "stateMutability": "view",
      "type": "function"
    },
    {
      "inputs": [
        {
          "internalType": "address",
          "name": "spender",
          "type": "address"
        },
        {
          "internalType": "uint256",
          "name": "subtractedValue",
          "type": "uint256"
        }
      ],
      "name": "decreaseAllowance",
      "outputs": [
        {
          "internalType": "bool",
          "name": "",
          "type": "bool"
        }
      ],
      "stateMutability": "nonpayable",
      "type": "function"
    },
    {
      "inputs": [
        {
          "internalType": "address",
          "name": "spender",
          "type": "address"
        },
        {
          "internalType": "uint256",
          "name": "addedValue",
          "type": "uint256"
        }
      ],
      "name": "increaseAllowance",
      "outputs": [
        {
          "internalType": "bool",
          "name": "",
          "type": "bool"
        }
      ],
      "stateMutability": "nonpayable",
      "type": "function"
    },
    {
      "inputs": [],
      "name": "name",
      "outputs": [
        {
          "internalType": "string",
          "name": "",
          "type": "string"
        }
      ],
      "stateMutability": "view",
      "type": "function"
    },
    {
      "inputs": [],
      "name": "symbol",
      "outputs": [
        {
          "internalType": "string",
          "name": "",
          "type": "string"
        }
      ],
      "stateMutability": "view",
      "type": "function"
    },
    {
      "inputs": [],
      "name": "totalSupply",
      "outputs": [
        {
          "internalType": "uint256",
          "name": "",
          "type": "uint256"
        }
      ],
      "stateMutability": "view",
      "type": "function"
    },
    {
      "inputs": [
        {
          "internalType": "address",
          "name": "recipient",
          "type": "address"
        },
        {
          "internalType": "uint256",
          "name": "amount",
          "type": "uint256"
        }
      ],
      "name": "transfer",
      "outputs": [
        {
          "internalType": "bool",
          "name": "",
          "type": "bool"
        }
      ],
      "stateMutability": "nonpayable",
      "type": "function"
    },
    {
      "inputs": [
        {
          "internalType": "address",
          "name": "sender",
          "type": "address"
        },
        {
          "internalType": "address",
          "name": "recipient",
          "type": "address"
        },
        {
          "internalType": "uint256",
          "name": "amount",
          "type": "uint256"
        }
      ],
      "name": "transferFrom",
      "outputs": [
        {
          "internalType": "bool",
          "name": "",
          "type": "bool"
        }
      ],
      "stateMutability": "nonpayable",
      "type": "function"
    },
    {
      "inputs": [
        {
          "internalType": "address",
          "name": "account",
          "type": "address"
        },
        {
          "internalType": "uint256",
          "name": "amount",
          "type": "uint256"
        }
      ],
      "name": "mint",
      "outputs": [],
      "stateMutability": "nonpayable",
      "type": "function"
    },
    {
      "inputs": [
        {
          "internalType": "address",
          "name": "account",
          "type": "address"
        },
        {
          "internalType": "uint256",
          "name": "amount",
          "type": "uint256"
        }
      ],
      "name": "burn",
      "outputs": [],
      "stateMutability": "nonpayable",
      "type": "function"
    }
  ],
  "bytecode": "0x60806040523480156200001157600080fd5b506040516200138f3803806200138f833981016040819052620000349162000188565b604080518082018252600e81526d2aa9a21029ba30b13632b1b7b4b760911b6020808301918252835180850190945260048452630aaa688b60e31b9084015281519192916200008691600391620000ec565b5080516200009c906004906020840190620000ec565b50506005805460ff19166012179055506001600160a01b038116620000c057600080fd5b600580546001600160a01b0390921661010002610100600160a81b0319909216919091179055620001b8565b828054600181600116156101000203166002900490600052602060002090601f016020900481019282601f106200012f57805160ff19168380011785556200015f565b828001600101855582156200015f579182015b828111156200015f57825182559160200191906001019062000142565b506200016d92915062000171565b5090565b5b808211156200016d576000815560010162000172565b6000602082840312156200019a578081fd5b81516001600160a01b0381168114620001b1578182fd5b9392505050565b6111c780620001c86000396000f3fe608060405234801561001057600080fd5b50600436106100ea5760003560e01c806340c10f191161008c5780639dc29fac116100665780639dc29fac146101c2578063a457c2d7146101d5578063a9059cbb146101e8578063dd62ed3e146101fb576100ea565b806340c10f191461019257806370a08231146101a757806395d89b41146101ba576100ea565b806318160ddd116100c857806318160ddd1461014257806323b872dd14610157578063313ce5671461016a578063395093511461017f576100ea565b806306fdde03146100ef578063095ea7b31461010d5780630dbe671f1461012d575b600080fd5b6100f761020e565b6040516101049190610e56565b60405180910390f35b61012061011b366004610da1565b6102a4565b6040516101049190610e20565b6101356102c1565b6040516101049190610e42565b61014a6102d5565b60405161010491906110cd565b610120610165366004610d61565b6102db565b610172610362565b60405161010491906110d6565b61012061018d366004610da1565b61036b565b6101a56101a0366004610da1565b6103b9565b005b61014a6101b5366004610d0d565b6105e4565b6100f76105ff565b6101a56101d0366004610da1565b610660565b6101206101e3366004610da1565b61087e565b6101206101f6366004610da1565b6108e6565b61014a610209366004610d29565b6108fa565b60038054604080516020601f600260001961010060018816150201909516949094049384018190048102820181019092528281526060939092909183018282801561029a5780601f1061026f5761010080835404028352916020019161029a565b820191906000526020600020905b81548152906001019060200180831161027d57829003601f168201915b5050505050905090565b60006102b86102b1610925565b8484610929565b50600192915050565b60055461010090046001600160a01b031681565b60025490565b60006102e88484846109dd565b610358846102f4610925565b61035385604051806060016040528060288152602001611145602891396001600160a01b038a16600090815260016020526040812090610332610925565b6001600160a01b031681526020810191909152604001600020549190610af2565b610929565b5060019392505050565b60055460ff1690565b60006102b8610378610925565b846103538560016000610389610925565b6001600160a01b03908116825260208083019390935260409182016000908120918c168152925290205490610b1e565b600560019054906101000a90046001600160a01b03166001600160a01b031663f77c47916040518163ffffffff1660e01b815260040160206040518083038186803b15801561040757600080fd5b505afa15801561041b573d6000803e3d6000fd5b505050506040513d601f19601f8201168201806040525081019061043f9190610e04565b6001600160a01b03166391d14854600560019054906101000a90046001600160a01b03166001600160a01b031663f77c47916040518163ffffffff1660e01b815260040160206040518083038186803b15801561049b57600080fd5b505afa1580156104af573d6000803e3d6000fd5b505050506040513d601f19601f820116820180604052508101906104d39190610e04565b6001600160a01b031663d53913936040518163ffffffff1660e01b815260040160206040518083038186803b15801561050b57600080fd5b505afa15801561051f573d6000803e3d6000fd5b505050506040513d601f19601f820116820180604052508101906105439190610dec565b336040518363ffffffff1660e01b8152600401610561929190610e2b565b60206040518083038186803b15801561057957600080fd5b505afa15801561058d573d6000803e3d6000fd5b505050506040513d601f19601f820116820180604052508101906105b19190610dcc565b6105d65760405162461bcd60e51b81526004016105cd90610f9c565b60405180910390fd5b6105e08282610b4a565b5050565b6001600160a01b031660009081526020819052604090205490565b60048054604080516020601f600260001961010060018816150201909516949094049384018190048102820181019092528281526060939092909183018282801561029a5780601f1061026f5761010080835404028352916020019161029a565b600560019054906101000a90046001600160a01b03166001600160a01b031663f77c47916040518163ffffffff1660e01b815260040160206040518083038186803b1580156106ae57600080fd5b505afa1580156106c2573d6000803e3d6000fd5b505050506040513d601f19601f820116820180604052508101906106e69190610e04565b6001600160a01b03166391d14854600560019054906101000a90046001600160a01b03166001600160a01b031663f77c47916040518163ffffffff1660e01b815260040160206040518083038186803b15801561074257600080fd5b505afa158015610756573d6000803e3d6000fd5b505050506040513d601f19601f8201168201806040525081019061077a9190610e04565b6001600160a01b031663d53913936040518163ffffffff1660e01b815260040160206040518083038186803b1580156107b257600080fd5b505afa1580156107c6573d6000803e3d6000fd5b505050506040513d601f19601f820116820180604052508101906107ea9190610dec565b336040518363ffffffff1660e01b8152600401610808929190610e2b565b60206040518083038186803b15801561082057600080fd5b505afa158015610834573d6000803e3d6000fd5b505050506040513d601f19601f820116820180604052508101906108589190610dcc565b6108745760405162461bcd60e51b81526004016105cd90610f9c565b6105e08282610c0a565b60006102b861088b610925565b846103538560405180606001604052806025815260200161116d60259139600160006108b5610925565b6001600160a01b03908116825260208083019390935260409182016000908120918d16815292529020549190610af2565b60006102b86108f3610925565b84846109dd565b6001600160a01b03918216600090815260016020908152604080832093909416825291909152205490565b3390565b6001600160a01b03831661094f5760405162461bcd60e51b81526004016105cd90611052565b6001600160a01b0382166109755760405162461bcd60e51b81526004016105cd90610eec565b6001600160a01b0380841660008181526001602090815260408083209487168084529490915290819020849055517f8c5be1e5ebec7d5bd14f71427d1e84f3dd0314c0f7b2291e5b200ac8c7c3b925906109d09085906110cd565b60405180910390a3505050565b6001600160a01b038316610a035760405162461bcd60e51b81526004016105cd9061100d565b6001600160a01b038216610a295760405162461bcd60e51b81526004016105cd90610ea9565b610a34838383610ce0565b610a718160405180606001604052806026815260200161111f602691396001600160a01b0386166000908152602081905260409020549190610af2565b6001600160a01b038085166000908152602081905260408082209390935590841681522054610aa09082610b1e565b6001600160a01b0380841660008181526020819052604090819020939093559151908516907fddf252ad1be2c89b69c2b068fc378daa952ba7f163c4a11628f55a4df523b3ef906109d09085906110cd565b60008184841115610b165760405162461bcd60e51b81526004016105cd9190610e56565b505050900390565b600082820183811015610b435760405162461bcd60e51b81526004016105cd90610f2e565b9392505050565b6001600160a01b038216610b705760405162461bcd60e51b81526004016105cd90611096565b610b7c60008383610ce0565b600254610b899082610b1e565b6002556001600160a01b038216600090815260208190526040902054610baf9082610b1e565b6001600160a01b0383166000818152602081905260408082209390935591519091907fddf252ad1be2c89b69c2b068fc378daa952ba7f163c4a11628f55a4df523b3ef90610bfe9085906110cd565b60405180910390a35050565b6001600160a01b038216610c305760405162461bcd60e51b81526004016105cd90610fcc565b610c3c82600083610ce0565b610c79816040518060600160405280602281526020016110fd602291396001600160a01b0385166000908152602081905260409020549190610af2565b6001600160a01b038316600090815260208190526040902055600254610c9f9082610ce5565b6002556040516000906001600160a01b038416907fddf252ad1be2c89b69c2b068fc378daa952ba7f163c4a11628f55a4df523b3ef90610bfe9085906110cd565b505050565b600082821115610d075760405162461bcd60e51b81526004016105cd90610f65565b50900390565b600060208284031215610d1e578081fd5b8135610b43816110e4565b60008060408385031215610d3b578081fd5b8235610d46816110e4565b91506020830135610d56816110e4565b809150509250929050565b600080600060608486031215610d75578081fd5b8335610d80816110e4565b92506020840135610d90816110e4565b929592945050506040919091013590565b60008060408385031215610db3578182fd5b8235610dbe816110e4565b946020939093013593505050565b600060208284031215610ddd578081fd5b81518015158114610b43578182fd5b600060208284031215610dfd578081fd5b5051919050565b600060208284031215610e15578081fd5b8151610b43816110e4565b901515815260200190565b9182526001600160a01b0316602082015260400190565b6001600160a01b0391909116815260200190565b6000602080835283518082850152825b81811015610e8257858101830151858201604001528201610e66565b81811115610e935783604083870101525b50601f01601f1916929092016040019392505050565b60208082526023908201527f45524332303a207472616e7366657220746f20746865207a65726f206164647260408201526265737360e81b606082015260800190565b60208082526022908201527f45524332303a20617070726f766520746f20746865207a65726f206164647265604082015261737360f01b606082015260800190565b6020808252601b908201527f536166654d6174683a206164646974696f6e206f766572666c6f770000000000604082015260600190565b6020808252601e908201527f536166654d6174683a207375627472616374696f6e206f766572666c6f770000604082015260600190565b60208082526016908201527521b0b63632b91034b9903737ba10309036b4b73a32b960511b604082015260600190565b60208082526021908201527f45524332303a206275726e2066726f6d20746865207a65726f206164647265736040820152607360f81b606082015260800190565b60208082526025908201527f45524332303a207472616e736665722066726f6d20746865207a65726f206164604082015264647265737360d81b606082015260800190565b60208082526024908201527f45524332303a20617070726f76652066726f6d20746865207a65726f206164646040820152637265737360e01b606082015260800190565b6020808252601f908201527f45524332303a206d696e7420746f20746865207a65726f206164647265737300604082015260600190565b90815260200190565b60ff91909116815260200190565b6001600160a01b03811681146110f957600080fd5b5056fe45524332303a206275726e20616d6f756e7420657863656564732062616c616e636545524332303a207472616e7366657220616d6f756e7420657863656564732062616c616e636545524332303a207472616e7366657220616d6f756e74206578636565647320616c6c6f77616e636545524332303a2064656372656173656420616c6c6f77616e63652062656c6f77207a65726fa2646970667358221220dfeb395906c12dfeab6ca118577e0779de6b50736c293f272948a2146d00ed1664736f6c634300060c0033",
  "immutableReferences": {},
  "source": "// solium-disable security/no-block-members\n// SPDX-License-Identifier: MIT\n\npragma experimental ABIEncoderV2;\npragma solidity 0.6.12;\n\nimport \"@openzeppelin/contracts/token/ERC20/ERC20.sol\";\nimport \"../interfaces/IAddressProvider.sol\";\nimport \"../interfaces/ISTABLEX.sol\";\n\n/**\n * @title   USDX\n * @notice  Stablecoin which can be minted against collateral in a vault\n */\ncontract USDX is ISTABLEX, ERC20(\"USD Stablecoin\", \"USDX\") {\n  IAddressProvider public override a;\n\n  constructor(IAddressProvider _addresses) public {\n    require(address(_addresses) != address(0));\n    a = _addresses;\n  }\n\n  function mint(address account, uint256 amount) public override onlyMinter {\n    _mint(account, amount);\n  }\n\n  function burn(address account, uint256 amount) public override onlyMinter {\n    _burn(account, amount);\n  }\n\n  modifier onlyMinter() {\n    require(a.controller().hasRole(a.controller().MINTER_ROLE(), msg.sender), \"Caller is not a minter\");\n    _;\n  }\n}\n",
  "sourcePath": "/home/mingyue/sub_contract_content/Web3Bugs/contracts/115/core/contracts/token/USDX.sol",
  "compiler": {
    "name": "solc",
    "version": "0.6.12+commit.27d51765.Emscripten.clang"
  },
  "schemaVersion": "3.4.7",
  "updatedAt": "2025-02-28T14:09:34.671Z",
  "devdoc": {
    "kind": "dev",
    "methods": {
      "allowance(address,address)": {
        "details": "See {IERC20-allowance}."
      },
      "approve(address,uint256)": {
        "details": "See {IERC20-approve}. Requirements: - `spender` cannot be the zero address."
      },
      "balanceOf(address)": {
        "details": "See {IERC20-balanceOf}."
      },
      "decimals()": {
        "details": "Returns the number of decimals used to get its user representation. For example, if `decimals` equals `2`, a balance of `505` tokens should be displayed to a user as `5,05` (`505 / 10 ** 2`). Tokens usually opt for a value of 18, imitating the relationship between Ether and Wei. This is the value {ERC20} uses, unless {_setupDecimals} is called. NOTE: This information is only used for _display_ purposes: it in no way affects any of the arithmetic of the contract, including {IERC20-balanceOf} and {IERC20-transfer}."
      },
      "decreaseAllowance(address,uint256)": {
        "details": "Atomically decreases the allowance granted to `spender` by the caller. This is an alternative to {approve} that can be used as a mitigation for problems described in {IERC20-approve}. Emits an {Approval} event indicating the updated allowance. Requirements: - `spender` cannot be the zero address. - `spender` must have allowance for the caller of at least `subtractedValue`."
      },
      "increaseAllowance(address,uint256)": {
        "details": "Atomically increases the allowance granted to `spender` by the caller. This is an alternative to {approve} that can be used as a mitigation for problems described in {IERC20-approve}. Emits an {Approval} event indicating the updated allowance. Requirements: - `spender` cannot be the zero address."
      },
      "name()": {
        "details": "Returns the name of the token."
      },
      "symbol()": {
        "details": "Returns the symbol of the token, usually a shorter version of the name."
      },
      "totalSupply()": {
        "details": "See {IERC20-totalSupply}."
      },
      "transfer(address,uint256)": {
        "details": "See {IERC20-transfer}. Requirements: - `recipient` cannot be the zero address. - the caller must have a balance of at least `amount`."
      },
      "transferFrom(address,address,uint256)": {
        "details": "See {IERC20-transferFrom}. Emits an {Approval} event indicating the updated allowance. This is not required by the EIP. See the note at the beginning of {ERC20}. Requirements: - `sender` and `recipient` cannot be the zero address. - `sender` must have a balance of at least `amount`. - the caller must have allowance for ``sender``'s tokens of at least `amount`."
      }
    },
    "title": "USDX",
    "version": 1
  },
  "userdoc": {
    "kind": "user",
    "methods": {},
    "notice": "Stablecoin which can be minted against collateral in a vault",
    "version": 1
  }
}