{
  "contractName": "VaultsDataProviderV1",
  "abi": [
    {
      "inputs": [
        {
          "internalType": "contract IAddressProviderV1",
          "name": "_addresses",
          "type": "address"
        }
      ],
      "stateMutability": "nonpayable",
      "type": "constructor"
    },
    {
      "inputs": [],
      "name": "a",
      "outputs": [
        {
          "internalType": "contract IAddressProviderV1",
          "name": "",
          "type": "address"
        }
      ],
      "stateMutability": "view",
      "type": "function"
    },
    {
      "inputs": [
        {
          "internalType": "address",
          "name": "",
          "type": "address"
        }
      ],
      "name": "baseDebt",
      "outputs": [
        {
          "internalType": "uint256",
          "name": "",
          "type": "uint256"
        }
      ],
      "stateMutability": "view",
      "type": "function"
    },
    {
      "inputs": [],
      "name": "vaultCount",
      "outputs": [
        {
          "internalType": "uint256",
          "name": "",
          "type": "uint256"
        }
      ],
      "stateMutability": "view",
      "type": "function"
    },
    {
      "inputs": [
        {
          "internalType": "address",
          "name": "_collateralType",
          "type": "address"
        },
        {
          "internalType": "address",
          "name": "_owner",
          "type": "address"
        }
      ],
      "name": "createVault",
      "outputs": [
        {
          "internalType": "uint256",
          "name": "",
          "type": "uint256"
        }
      ],
      "stateMutability": "nonpayable",
      "type": "function"
    },
    {
      "inputs": [
        {
          "internalType": "uint256",
          "name": "_id",
          "type": "uint256"
        },
        {
          "internalType": "uint256",
          "name": "_balance",
          "type": "uint256"
        }
      ],
      "name": "setCollateralBalance",
      "outputs": [],
      "stateMutability": "nonpayable",
      "type": "function"
    },
    {
      "inputs": [
        {
          "internalType": "uint256",
          "name": "_id",
          "type": "uint256"
        },
        {
          "internalType": "uint256",
          "name": "_newBaseDebt",
          "type": "uint256"
        }
      ],
      "name": "setBaseDebt",
      "outputs": [],
      "stateMutability": "nonpayable",
      "type": "function"
    },
    {
      "inputs": [
        {
          "internalType": "uint256",
          "name": "_id",
          "type": "uint256"
        }
      ],
      "name": "vaults",
      "outputs": [
        {
          "components": [
            {
              "internalType": "address",
              "name": "collateralType",
              "type": "address"
            },
            {
              "internalType": "address",
              "name": "owner",
              "type": "address"
            },
            {
              "internalType": "uint256",
              "name": "collateralBalance",
              "type": "uint256"
            },
            {
              "internalType": "uint256",
              "name": "baseDebt",
              "type": "uint256"
            },
            {
              "internalType": "uint256",
              "name": "createdAt",
              "type": "uint256"
            }
          ],
          "internalType": "struct IVaultsDataProviderV1.Vault",
          "name": "",
          "type": "tuple"
        }
      ],
      "stateMutability": "view",
      "type": "function"
    },
    {
      "inputs": [
        {
          "internalType": "uint256",
          "name": "_id",
          "type": "uint256"
        }
      ],
      "name": "vaultOwner",
      "outputs": [
        {
          "internalType": "address",
          "name": "",
          "type": "address"
        }
      ],
      "stateMutability": "view",
      "type": "function"
    },
    {
      "inputs": [
        {
          "internalType": "uint256",
          "name": "_id",
          "type": "uint256"
        }
      ],
      "name": "vaultCollateralType",
      "outputs": [
        {
          "internalType": "address",
          "name": "",
          "type": "address"
        }
      ],
      "stateMutability": "view",
      "type": "function"
    },
    {
      "inputs": [
        {
          "internalType": "uint256",
          "name": "_id",
          "type": "uint256"
        }
      ],
      "name": "vaultCollateralBalance",
      "outputs": [
        {
          "internalType": "uint256",
          "name": "",
          "type": "uint256"
        }
      ],
      "stateMutability": "view",
      "type": "function"
    },
    {
      "inputs": [
        {
          "internalType": "uint256",
          "name": "_id",
          "type": "uint256"
        }
      ],
      "name": "vaultBaseDebt",
      "outputs": [
        {
          "internalType": "uint256",
          "name": "",
          "type": "uint256"
        }
      ],
      "stateMutability": "view",
      "type": "function"
    },
    {
      "inputs": [
        {
          "internalType": "address",
          "name": "_collateralType",
          "type": "address"
        },
        {
          "internalType": "address",
          "name": "_owner",
          "type": "address"
        }
      ],
      "name": "vaultId",
      "outputs": [
        {
          "internalType": "uint256",
          "name": "",
          "type": "uint256"
        }
      ],
      "stateMutability": "view",
      "type": "function"
    },
    {
      "inputs": [
        {
          "internalType": "uint256",
          "name": "_id",
          "type": "uint256"
        }
      ],
      "name": "vaultExists",
      "outputs": [
        {
          "internalType": "bool",
          "name": "",
          "type": "bool"
        }
      ],
      "stateMutability": "view",
      "type": "function"
    },
    {
      "inputs": [],
      "name": "debt",
      "outputs": [
        {
          "internalType": "uint256",
          "name": "",
          "type": "uint256"
        }
      ],
      "stateMutability": "view",
      "type": "function"
    },
    {
      "inputs": [
        {
          "internalType": "address",
          "name": "_collateralType",
          "type": "address"
        }
      ],
      "name": "collateralDebt",
      "outputs": [
        {
          "internalType": "uint256",
          "name": "",
          "type": "uint256"
        }
      ],
      "stateMutability": "view",
      "type": "function"
    },
    {
      "inputs": [
        {
          "internalType": "uint256",
          "name": "_vaultId",
          "type": "uint256"
        }
      ],
      "name": "vaultDebt",
      "outputs": [
        {
          "internalType": "uint256",
          "name": "",
          "type": "uint256"
        }
      ],
      "stateMutability": "view",
      "type": "function"
    }
  ],
  "bytecode": "0x6080604052600060015534801561001557600080fd5b506040516112a53803806112a58339810160408190526100349161006c565b6001600160a01b03811661004757600080fd5b600080546001600160a01b0319166001600160a01b039290921691909117905561009a565b60006020828403121561007d578081fd5b81516001600160a01b0381168114610093578182fd5b9392505050565b6111fc806100a96000396000f3fe608060405234801561001057600080fd5b50600436106101005760003560e01c8063b508bc5911610097578063cc92d31c11610066578063cc92d31c146101fa578063d310f49b1461020d578063dcd6812814610220578063ef18fcb41461024057610100565b8063b508bc59146101ac578063bd44815f146101bf578063c7eb222b146101d2578063c8c5c815146101e757610100565b80634e571cb0116100d35780634e571cb01461015e578063828f8def146101715780638c64ea4a14610184578063a7c6a100146101a457610100565b80630dbe671f146101055780630dca59c11461012357806312aa5dc6146101385780633c2ecfe51461014b575b600080fd5b61010d610253565b60405161011a9190611036565b60405180910390f35b61012b610262565b60405161011a9190611197565b61012b610146366004610f01565b61048b565b61010d610159366004610fe5565b610695565b61012b61016c366004610f01565b6106b3565b61012b61017f366004610fe5565b6106c5565b610197610192366004610fe5565b6106da565b60405161011a9190611154565b61012b610745565b61010d6101ba366004610fe5565b61074b565b61012b6101cd366004610f1d565b610766565b6101e56101e0366004611015565b610792565b005b61012b6101f5366004610fe5565b610889565b61012b610208366004610f1d565b61089f565b61012b61021b366004610fe5565b610a57565b61023361022e366004610fe5565b610c79565b60405161011a919061104a565b6101e561024e366004611015565b610ce7565b6000546001600160a01b031681565b60008060015b60008054906101000a90046001600160a01b03166001600160a01b03166379502c556040518163ffffffff1660e01b815260040160206040518083038186803b1580156102b457600080fd5b505afa1580156102c8573d6000803e3d6000fd5b505050506040513d601f19601f820116820180604052508101906102ec9190610f55565b6001600160a01b031663d47e470d6040518163ffffffff1660e01b815260040160206040518083038186803b15801561032457600080fd5b505afa158015610338573d6000803e3d6000fd5b505050506040513d601f19601f8201168201806040525081019061035c9190610ffd565b81116104855760008060009054906101000a90046001600160a01b03166001600160a01b03166379502c556040518163ffffffff1660e01b815260040160206040518083038186803b1580156103b157600080fd5b505afa1580156103c5573d6000803e3d6000fd5b505050506040513d601f19601f820116820180604052508101906103e99190610f55565b6001600160a01b0316634a6e0dd0836040518263ffffffff1660e01b81526004016104149190611197565b60a06040518083038186803b15801561042c57600080fd5b505afa158015610440573d6000803e3d6000fd5b505050506040513d601f19601f820116820180604052508101906104649190610f71565b51905061047a6104738261048b565b8490610e73565b925050600101610268565b50905090565b60008060009054906101000a90046001600160a01b03166001600160a01b031663b8091c5b6040518163ffffffff1660e01b815260040160206040518083038186803b1580156104da57600080fd5b505afa1580156104ee573d6000803e3d6000fd5b505050506040513d601f19601f820116820180604052508101906105129190610f55565b6001600160a01b038381166000908152600260209081526040808320549254815163797a759360e11b8152915195851695631c3405e295919091169263f2f4eb269260048082019391829003018186803b15801561056f57600080fd5b505afa158015610583573d6000803e3d6000fd5b505050506040513d601f19601f820116820180604052508101906105a79190610f55565b6001600160a01b03166385d36cd7866040518263ffffffff1660e01b81526004016105d29190611036565b60206040518083038186803b1580156105ea57600080fd5b505afa1580156105fe573d6000803e3d6000fd5b505050506040513d601f19601f820116820180604052508101906106229190610ffd565b6040518363ffffffff1660e01b815260040161063f9291906111a0565b60206040518083038186803b15801561065757600080fd5b505afa15801561066b573d6000803e3d6000fd5b505050506040513d601f19601f8201168201806040525081019061068f9190610ffd565b92915050565b6000908152600360205260409020600101546001600160a01b031690565b60026020526000908152604090205481565b60009081526003602052604090206002015490565b6106e2610ec0565b6106ea610ec0565b5050600090815260036020818152604092839020835160a08101855281546001600160a01b03908116825260018301541692810192909252600281015493820193909352908201546060820152600490910154608082015290565b60015481565b6000908152600360205260409020546001600160a01b031690565b6001600160a01b0380821660009081526004602090815260408083209386168352929052205492915050565b60008054906101000a90046001600160a01b03166001600160a01b031663f2f4eb266040518163ffffffff1660e01b815260040160206040518083038186803b1580156107de57600080fd5b505afa1580156107f2573d6000803e3d6000fd5b505050506040513d601f19601f820116820180604052508101906108169190610f55565b6001600160a01b0316336001600160a01b03161461084f5760405162461bcd60e51b8152600401610846906110c3565b60405180910390fd5b61085882610c79565b6108745760405162461bcd60e51b81526004016108469061112a565b60009182526003602052604090912060020155565b6000908152600360208190526040909120015490565b60008060009054906101000a90046001600160a01b03166001600160a01b031663f2f4eb266040518163ffffffff1660e01b815260040160206040518083038186803b1580156108ee57600080fd5b505afa158015610902573d6000803e3d6000fd5b505050506040513d601f19601f820116820180604052508101906109269190610f55565b6001600160a01b0316336001600160a01b0316146109565760405162461bcd60e51b8152600401610846906110c3565b6001600160a01b03831661096957600080fd5b6001600160a01b03821661097c57600080fd5b600180548101908190556001600160a01b0384166109ac5760405162461bcd60e51b8152600401610846906110fa565b6109b4610ec0565b506040805160a0810182526001600160a01b0380871680835286821660208085018281526000868801818152606088018281524260808a019081528b845260038087528b85209a518b54908b166001600160a01b0319918216178c55955160018c01805491909b16961695909517909855905160028901555191870191909155935160049586015590835292835283822090825290915220819055905092915050565b6000610a61610ec0565b610a6a836106da565b905060008054906101000a90046001600160a01b03166001600160a01b031663b8091c5b6040518163ffffffff1660e01b815260040160206040518083038186803b158015610ab857600080fd5b505afa158015610acc573d6000803e3d6000fd5b505050506040513d601f19601f82011682018060405250810190610af09190610f55565b6001600160a01b0316631c3405e2826060015160008054906101000a90046001600160a01b03166001600160a01b031663f2f4eb266040518163ffffffff1660e01b815260040160206040518083038186803b158015610b4f57600080fd5b505afa158015610b63573d6000803e3d6000fd5b505050506040513d601f19601f82011682018060405250810190610b879190610f55565b84516040516385d36cd760e01b81526001600160a01b0392909216916385d36cd791610bb591600401611036565b60206040518083038186803b158015610bcd57600080fd5b505afa158015610be1573d6000803e3d6000fd5b505050506040513d601f19601f82011682018060405250810190610c059190610ffd565b6040518363ffffffff1660e01b8152600401610c229291906111a0565b60206040518083038186803b158015610c3a57600080fd5b505afa158015610c4e573d6000803e3d6000fd5b505050506040513d601f19601f82011682018060405250810190610c729190610ffd565b9392505050565b6000610c83610ec0565b5050600090815260036020818152604092839020835160a08101855281546001600160a01b03908116808352600184015490911693820193909352600282015494810194909452918201546060840152600490910154608090920191909152151590565b60008054906101000a90046001600160a01b03166001600160a01b031663f2f4eb266040518163ffffffff1660e01b815260040160206040518083038186803b158015610d3357600080fd5b505afa158015610d47573d6000803e3d6000fd5b505050506040513d601f19601f82011682018060405250810190610d6b9190610f55565b6001600160a01b0316336001600160a01b031614610d9b5760405162461bcd60e51b8152600401610846906110c3565b600082815260036020819052604090912090810154821115610e17576000610dd0826003015484610e9890919063ffffffff16565b82546001600160a01b0316600090815260026020526040902054909150610df79082610e73565b82546001600160a01b031660009081526002602052604090205550610e6c565b6003810154600090610e299084610e98565b82546001600160a01b0316600090815260026020526040902054909150610e509082610e98565b82546001600160a01b0316600090815260026020526040902055505b6003015550565b600082820183811015610c725760405162461bcd60e51b815260040161084690611055565b600082821115610eba5760405162461bcd60e51b81526004016108469061108c565b50900390565b6040518060a0016040528060006001600160a01b0316815260200160006001600160a01b031681526020016000815260200160008152602001600081525090565b600060208284031215610f12578081fd5b8135610c72816111ae565b60008060408385031215610f2f578081fd5b8235610f3a816111ae565b91506020830135610f4a816111ae565b809150509250929050565b600060208284031215610f66578081fd5b8151610c72816111ae565b600060a08284031215610f82578081fd5b60405160a0810181811067ffffffffffffffff82111715610fa1578283fd5b6040528251610faf816111ae565b80825250602083015160208201526040830151604082015260608301516060820152608083015160808201528091505092915050565b600060208284031215610ff6578081fd5b5035919050565b60006020828403121561100e578081fd5b5051919050565b60008060408385031215611027578182fd5b50508035926020909101359150565b6001600160a01b0391909116815260200190565b901515815260200190565b6020808252601b908201527f536166654d6174683a206164646974696f6e206f766572666c6f770000000000604082015260600190565b6020808252601e908201527f536166654d6174683a207375627472616374696f6e206f766572666c6f770000604082015260600190565b60208082526018908201527f43616c6c6572206973206e6f74205661756c7473436f72650000000000000000604082015260600190565b60208082526016908201527531b7b63630ba32b930b62a3cb832903ab735b737bbb760511b604082015260600190565b60208082526010908201526f2b30bab63a103737ba103337bab7321760811b604082015260600190565b81516001600160a01b0390811682526020808401519091169082015260408083015190820152606080830151908201526080918201519181019190915260a00190565b90815260200190565b918252602082015260400190565b6001600160a01b03811681146111c357600080fd5b5056fea264697066735822122041295ea833e3373a75c59f86fe0448c6b86daf9fa744805289d6221658459b4c64736f6c634300060c0033",
  "immutableReferences": {},
  "source": "// SPDX-License-Identifier: MIT\n\npragma experimental ABIEncoderV2;\npragma solidity 0.6.12;\n\nimport \"@openzeppelin/contracts/math/SafeMath.sol\";\nimport \"./interfaces/IVaultsDataProviderV1.sol\";\nimport \"./interfaces/IAddressProviderV1.sol\";\n\ncontract VaultsDataProviderV1 is IVaultsDataProviderV1 {\n  using SafeMath for uint256;\n\n  IAddressProviderV1 public override a;\n\n  uint256 public override vaultCount = 0;\n\n  mapping(address => uint256) public override baseDebt;\n\n  mapping(uint256 => Vault) private _vaults;\n  mapping(address => mapping(address => uint256)) private _vaultOwners;\n\n  modifier onlyVaultsCore() {\n    require(msg.sender == address(a.core()), \"Caller is not VaultsCore\");\n    _;\n  }\n\n  constructor(IAddressProviderV1 _addresses) public {\n    require(address(_addresses) != address(0));\n    a = _addresses;\n  }\n\n  /**\n    Opens a new vault.\n    @dev only the vaultsCore module can call this function\n    @param _collateralType address to the collateral asset e.g. WETH\n    @param _owner the owner of the new vault.\n  */\n  function createVault(address _collateralType, address _owner) public override onlyVaultsCore returns (uint256) {\n    require(_collateralType != address(0));\n    require(_owner != address(0));\n    uint256 newId = ++vaultCount;\n    require(_collateralType != address(0), \"collateralType unknown\");\n    Vault memory v = Vault({\n      collateralType: _collateralType,\n      owner: _owner,\n      collateralBalance: 0,\n      baseDebt: 0,\n      createdAt: block.timestamp\n    });\n    _vaults[newId] = v;\n    _vaultOwners[_owner][_collateralType] = newId;\n    return newId;\n  }\n\n  /**\n    Set the collateral balance of a vault.\n    @dev only the vaultsCore module can call this function\n    @param _id Vault ID of which the collateral balance will be updated\n    @param _balance the new balance of the vault.\n  */\n  function setCollateralBalance(uint256 _id, uint256 _balance) public override onlyVaultsCore {\n    require(vaultExists(_id), \"Vault not found.\");\n    Vault storage v = _vaults[_id];\n    v.collateralBalance = _balance;\n  }\n\n  /**\n    Set the base debt of a vault.\n    @dev only the vaultsCore module can call this function\n    @param _id Vault ID of which the base debt will be updated\n    @param _newBaseDebt the new base debt of the vault.\n  */\n  function setBaseDebt(uint256 _id, uint256 _newBaseDebt) public override onlyVaultsCore {\n    Vault storage _vault = _vaults[_id];\n    if (_newBaseDebt > _vault.baseDebt) {\n      uint256 increase = _newBaseDebt.sub(_vault.baseDebt);\n      baseDebt[_vault.collateralType] = baseDebt[_vault.collateralType].add(increase);\n    } else {\n      uint256 decrease = _vault.baseDebt.sub(_newBaseDebt);\n      baseDebt[_vault.collateralType] = baseDebt[_vault.collateralType].sub(decrease);\n    }\n    _vault.baseDebt = _newBaseDebt;\n  }\n\n  /**\n    Get a vault by vault ID.\n    @param _id The vault's ID to be retrieved\n  */\n  function vaults(uint256 _id) public view override returns (Vault memory) {\n    Vault memory v = _vaults[_id];\n    return v;\n  }\n\n  /**\n    Get the owner of a vault.\n    @param _id the ID of the vault\n    @return owner of the vault\n  */\n  function vaultOwner(uint256 _id) public view override returns (address) {\n    return _vaults[_id].owner;\n  }\n\n  /**\n    Get the collateral type of a vault.\n    @param _id the ID of the vault\n    @return address for the collateral type of the vault\n  */\n  function vaultCollateralType(uint256 _id) public view override returns (address) {\n    return _vaults[_id].collateralType;\n  }\n\n  /**\n    Get the collateral balance of a vault.\n    @param _id the ID of the vault\n    @return collateral balance of the vault\n  */\n  function vaultCollateralBalance(uint256 _id) public view override returns (uint256) {\n    return _vaults[_id].collateralBalance;\n  }\n\n  /**\n    Get the base debt of a vault.\n    @param _id the ID of the vault\n    @return base debt of the vault\n  */\n  function vaultBaseDebt(uint256 _id) public view override returns (uint256) {\n    return _vaults[_id].baseDebt;\n  }\n\n  /**\n    Retrieve the vault id for a specified owner and collateral type.\n    @dev returns 0 for non-existing vaults\n    @param _collateralType address of the collateral type (Eg: WETH)\n    @param _owner address of the owner of the vault\n    @return vault id of the vault or 0\n  */\n  function vaultId(address _collateralType, address _owner) public view override returns (uint256) {\n    return _vaultOwners[_owner][_collateralType];\n  }\n\n  /**\n    Checks if a specified vault exists.\n    @param _id the ID of the vault\n    @return boolean if the vault exists\n  */\n  function vaultExists(uint256 _id) public view override returns (bool) {\n    Vault memory v = _vaults[_id];\n    return v.collateralType != address(0);\n  }\n\n  /**\n    Calculated the total outstanding debt for all vaults and all collateral types.\n    @dev uses the existing cumulative rate. Call `refresh()` on `VaultsCore`\n    to make sure it's up to date.\n    @return total debt of the platform\n  */\n  function debt() public view override returns (uint256) {\n    uint256 total = 0;\n    for (uint256 i = 1; i <= a.config().numCollateralConfigs(); i++) {\n      address collateralType = a.config().collateralConfigs(i).collateralType;\n      total = total.add(collateralDebt(collateralType));\n    }\n    return total;\n  }\n\n  /**\n    Calculated the total outstanding debt for all vaults of a specific collateral type.\n    @dev uses the existing cumulative rate. Call `refreshCollateral()` on `VaultsCore`\n    to make sure it's up to date.\n    @param _collateralType address of the collateral type (Eg: WETH)\n    @return total debt of the platform of one collateral type\n  */\n  function collateralDebt(address _collateralType) public view override returns (uint256) {\n    return a.ratesManager().calculateDebt(baseDebt[_collateralType], a.core().cumulativeRates(_collateralType));\n  }\n\n  /**\n    Calculated the total outstanding debt for a specific vault.\n    @dev uses the existing cumulative rate. Call `refreshCollateral()` on `VaultsCore`\n    to make sure it's up to date.\n    @param _vaultId the ID of the vault\n    @return total debt of one vault\n  */\n  function vaultDebt(uint256 _vaultId) public view override returns (uint256) {\n    IVaultsDataProviderV1.Vault memory v = vaults(_vaultId);\n    return a.ratesManager().calculateDebt(v.baseDebt, a.core().cumulativeRates(v.collateralType));\n  }\n}\n",
  "sourcePath": "/home/mingyue/sub_contract_content/Web3Bugs/contracts/115/core/contracts/v1/VaultsDataProviderV1.sol",
  "compiler": {
    "name": "solc",
    "version": "0.6.12+commit.27d51765.Emscripten.clang"
  },
  "schemaVersion": "3.4.7",
  "updatedAt": "2025-02-28T14:09:34.682Z",
  "devdoc": {
    "kind": "dev",
    "methods": {
      "collateralDebt(address)": {
        "details": "uses the existing cumulative rate. Call `refreshCollateral()` on `VaultsCore` to make sure it's up to date.",
        "params": {
          "_collateralType": "address of the collateral type (Eg: WETH)"
        },
        "returns": {
          "_0": "total debt of the platform of one collateral type"
        }
      },
      "createVault(address,address)": {
        "details": "only the vaultsCore module can call this function",
        "params": {
          "_collateralType": "address to the collateral asset e.g. WETH",
          "_owner": "the owner of the new vault."
        }
      },
      "debt()": {
        "details": "uses the existing cumulative rate. Call `refresh()` on `VaultsCore` to make sure it's up to date.",
        "returns": {
          "_0": "total debt of the platform"
        }
      },
      "setBaseDebt(uint256,uint256)": {
        "details": "only the vaultsCore module can call this function",
        "params": {
          "_id": "Vault ID of which the base debt will be updated",
          "_newBaseDebt": "the new base debt of the vault."
        }
      },
      "setCollateralBalance(uint256,uint256)": {
        "details": "only the vaultsCore module can call this function",
        "params": {
          "_balance": "the new balance of the vault.",
          "_id": "Vault ID of which the collateral balance will be updated"
        }
      },
      "vaultBaseDebt(uint256)": {
        "params": {
          "_id": "the ID of the vault"
        },
        "returns": {
          "_0": "base debt of the vault"
        }
      },
      "vaultCollateralBalance(uint256)": {
        "params": {
          "_id": "the ID of the vault"
        },
        "returns": {
          "_0": "collateral balance of the vault"
        }
      },
      "vaultCollateralType(uint256)": {
        "params": {
          "_id": "the ID of the vault"
        },
        "returns": {
          "_0": "address for the collateral type of the vault"
        }
      },
      "vaultDebt(uint256)": {
        "details": "uses the existing cumulative rate. Call `refreshCollateral()` on `VaultsCore` to make sure it's up to date.",
        "params": {
          "_vaultId": "the ID of the vault"
        },
        "returns": {
          "_0": "total debt of one vault"
        }
      },
      "vaultExists(uint256)": {
        "params": {
          "_id": "the ID of the vault"
        },
        "returns": {
          "_0": "boolean if the vault exists"
        }
      },
      "vaultId(address,address)": {
        "details": "returns 0 for non-existing vaults",
        "params": {
          "_collateralType": "address of the collateral type (Eg: WETH)",
          "_owner": "address of the owner of the vault"
        },
        "returns": {
          "_0": "vault id of the vault or 0"
        }
      },
      "vaultOwner(uint256)": {
        "params": {
          "_id": "the ID of the vault"
        },
        "returns": {
          "_0": "owner of the vault"
        }
      },
      "vaults(uint256)": {
        "params": {
          "_id": "The vault's ID to be retrieved"
        }
      }
    },
    "version": 1
  },
  "userdoc": {
    "kind": "user",
    "methods": {
      "collateralDebt(address)": {
        "notice": "Calculated the total outstanding debt for all vaults of a specific collateral type."
      },
      "createVault(address,address)": {
        "notice": "Opens a new vault."
      },
      "debt()": {
        "notice": "Calculated the total outstanding debt for all vaults and all collateral types."
      },
      "setBaseDebt(uint256,uint256)": {
        "notice": "Set the base debt of a vault."
      },
      "setCollateralBalance(uint256,uint256)": {
        "notice": "Set the collateral balance of a vault."
      },
      "vaultBaseDebt(uint256)": {
        "notice": "Get the base debt of a vault."
      },
      "vaultCollateralBalance(uint256)": {
        "notice": "Get the collateral balance of a vault."
      },
      "vaultCollateralType(uint256)": {
        "notice": "Get the collateral type of a vault."
      },
      "vaultDebt(uint256)": {
        "notice": "Calculated the total outstanding debt for a specific vault."
      },
      "vaultExists(uint256)": {
        "notice": "Checks if a specified vault exists."
      },
      "vaultId(address,address)": {
        "notice": "Retrieve the vault id for a specified owner and collateral type."
      },
      "vaultOwner(uint256)": {
        "notice": "Get the owner of a vault."
      },
      "vaults(uint256)": {
        "notice": "Get a vault by vault ID."
      }
    },
    "version": 1
  }
}