{
  "contractName": "VaultsCoreV1",
  "abi": [
    {
      "inputs": [
        {
          "internalType": "contract IAddressProviderV1",
          "name": "_addresses",
          "type": "address"
        }
      ],
      "stateMutability": "nonpayable",
      "type": "constructor"
    },
    {
      "anonymous": false,
      "inputs": [
        {
          "indexed": true,
          "internalType": "uint256",
          "name": "vaultId",
          "type": "uint256"
        },
        {
          "indexed": false,
          "internalType": "uint256",
          "name": "amount",
          "type": "uint256"
        },
        {
          "indexed": true,
          "internalType": "address",
          "name": "sender",
          "type": "address"
        }
      ],
      "name": "Borrowed",
      "type": "event"
    },
    {
      "anonymous": false,
      "inputs": [
        {
          "indexed": true,
          "internalType": "address",
          "name": "collateralType",
          "type": "address"
        },
        {
          "indexed": false,
          "internalType": "uint256",
          "name": "elapsedTime",
          "type": "uint256"
        },
        {
          "indexed": false,
          "internalType": "uint256",
          "name": "newCumulativeRate",
          "type": "uint256"
        }
      ],
      "name": "CumulativeRateUpdated",
      "type": "event"
    },
    {
      "anonymous": false,
      "inputs": [
        {
          "indexed": true,
          "internalType": "uint256",
          "name": "vaultId",
          "type": "uint256"
        },
        {
          "indexed": false,
          "internalType": "uint256",
          "name": "amount",
          "type": "uint256"
        },
        {
          "indexed": true,
          "internalType": "address",
          "name": "sender",
          "type": "address"
        }
      ],
      "name": "Deposited",
      "type": "event"
    },
    {
      "anonymous": false,
      "inputs": [
        {
          "indexed": true,
          "internalType": "uint256",
          "name": "vaultId",
          "type": "uint256"
        },
        {
          "indexed": false,
          "internalType": "uint256",
          "name": "insuranceAmount",
          "type": "uint256"
        },
        {
          "indexed": true,
          "internalType": "address",
          "name": "sender",
          "type": "address"
        }
      ],
      "name": "InsurancePaid",
      "type": "event"
    },
    {
      "anonymous": false,
      "inputs": [
        {
          "indexed": true,
          "internalType": "uint256",
          "name": "vaultId",
          "type": "uint256"
        },
        {
          "indexed": false,
          "internalType": "uint256",
          "name": "debtRepaid",
          "type": "uint256"
        },
        {
          "indexed": false,
          "internalType": "uint256",
          "name": "collateralLiquidated",
          "type": "uint256"
        },
        {
          "indexed": true,
          "internalType": "address",
          "name": "owner",
          "type": "address"
        },
        {
          "indexed": true,
          "internalType": "address",
          "name": "sender",
          "type": "address"
        }
      ],
      "name": "Liquidated",
      "type": "event"
    },
    {
      "anonymous": false,
      "inputs": [
        {
          "indexed": true,
          "internalType": "uint256",
          "name": "vaultId",
          "type": "uint256"
        },
        {
          "indexed": true,
          "internalType": "address",
          "name": "collateralType",
          "type": "address"
        },
        {
          "indexed": true,
          "internalType": "address",
          "name": "owner",
          "type": "address"
        }
      ],
      "name": "Opened",
      "type": "event"
    },
    {
      "anonymous": false,
      "inputs": [
        {
          "indexed": true,
          "internalType": "uint256",
          "name": "vaultId",
          "type": "uint256"
        },
        {
          "indexed": false,
          "internalType": "uint256",
          "name": "amount",
          "type": "uint256"
        },
        {
          "indexed": true,
          "internalType": "address",
          "name": "sender",
          "type": "address"
        }
      ],
      "name": "Repaid",
      "type": "event"
    },
    {
      "anonymous": false,
      "inputs": [
        {
          "indexed": true,
          "internalType": "uint256",
          "name": "vaultId",
          "type": "uint256"
        },
        {
          "indexed": false,
          "internalType": "uint256",
          "name": "amount",
          "type": "uint256"
        },
        {
          "indexed": true,
          "internalType": "address",
          "name": "sender",
          "type": "address"
        }
      ],
      "name": "Withdrawn",
      "type": "event"
    },
    {
      "inputs": [],
      "name": "MAX_INT",
      "outputs": [
        {
          "internalType": "uint256",
          "name": "",
          "type": "uint256"
        }
      ],
      "stateMutability": "view",
      "type": "function"
    },
    {
      "inputs": [],
      "name": "a",
      "outputs": [
        {
          "internalType": "contract IAddressProviderV1",
          "name": "",
          "type": "address"
        }
      ],
      "stateMutability": "view",
      "type": "function"
    },
    {
      "inputs": [
        {
          "internalType": "address",
          "name": "",
          "type": "address"
        }
      ],
      "name": "cumulativeRates",
      "outputs": [
        {
          "internalType": "uint256",
          "name": "",
          "type": "uint256"
        }
      ],
      "stateMutability": "view",
      "type": "function"
    },
    {
      "inputs": [
        {
          "internalType": "address",
          "name": "",
          "type": "address"
        }
      ],
      "name": "lastRefresh",
      "outputs": [
        {
          "internalType": "uint256",
          "name": "",
          "type": "uint256"
        }
      ],
      "stateMutability": "view",
      "type": "function"
    },
    {
      "inputs": [
        {
          "internalType": "address",
          "name": "_newVaultsCore",
          "type": "address"
        }
      ],
      "name": "upgrade",
      "outputs": [],
      "stateMutability": "nonpayable",
      "type": "function"
    },
    {
      "inputs": [],
      "name": "availableIncome",
      "outputs": [
        {
          "internalType": "uint256",
          "name": "",
          "type": "uint256"
        }
      ],
      "stateMutability": "view",
      "type": "function"
    },
    {
      "inputs": [],
      "name": "refresh",
      "outputs": [],
      "stateMutability": "nonpayable",
      "type": "function"
    },
    {
      "inputs": [
        {
          "internalType": "address",
          "name": "_collateralType",
          "type": "address"
        }
      ],
      "name": "initializeRates",
      "outputs": [],
      "stateMutability": "nonpayable",
      "type": "function"
    },
    {
      "inputs": [
        {
          "internalType": "address",
          "name": "_collateralType",
          "type": "address"
        }
      ],
      "name": "refreshCollateral",
      "outputs": [],
      "stateMutability": "nonpayable",
      "type": "function"
    },
    {
      "inputs": [
        {
          "internalType": "address",
          "name": "_collateralType",
          "type": "address"
        },
        {
          "internalType": "uint256",
          "name": "_amount",
          "type": "uint256"
        }
      ],
      "name": "deposit",
      "outputs": [],
      "stateMutability": "nonpayable",
      "type": "function"
    },
    {
      "inputs": [
        {
          "internalType": "uint256",
          "name": "_vaultId",
          "type": "uint256"
        },
        {
          "internalType": "uint256",
          "name": "_amount",
          "type": "uint256"
        }
      ],
      "name": "withdraw",
      "outputs": [],
      "stateMutability": "nonpayable",
      "type": "function"
    },
    {
      "inputs": [
        {
          "internalType": "uint256",
          "name": "_vaultId",
          "type": "uint256"
        }
      ],
      "name": "withdrawAll",
      "outputs": [],
      "stateMutability": "nonpayable",
      "type": "function"
    },
    {
      "inputs": [
        {
          "internalType": "uint256",
          "name": "_vaultId",
          "type": "uint256"
        },
        {
          "internalType": "uint256",
          "name": "_amount",
          "type": "uint256"
        }
      ],
      "name": "borrow",
      "outputs": [],
      "stateMutability": "nonpayable",
      "type": "function"
    },
    {
      "inputs": [
        {
          "internalType": "uint256",
          "name": "_vaultId",
          "type": "uint256"
        }
      ],
      "name": "repayAll",
      "outputs": [],
      "stateMutability": "nonpayable",
      "type": "function"
    },
    {
      "inputs": [
        {
          "internalType": "uint256",
          "name": "_vaultId",
          "type": "uint256"
        },
        {
          "internalType": "uint256",
          "name": "_amount",
          "type": "uint256"
        }
      ],
      "name": "repay",
      "outputs": [],
      "stateMutability": "nonpayable",
      "type": "function"
    },
    {
      "inputs": [
        {
          "internalType": "uint256",
          "name": "_vaultId",
          "type": "uint256"
        }
      ],
      "name": "liquidate",
      "outputs": [],
      "stateMutability": "nonpayable",
      "type": "function"
    }
  ],
  "bytecode": "0x60806040523480156200001157600080fd5b5060405162004a2038038062004a20833981016040819052620000349162000073565b60016000556001600160a01b0381166200004d57600080fd5b600380546001600160a01b0319166001600160a01b0392909216919091179055620000a3565b60006020828403121562000085578081fd5b81516001600160a01b03811681146200009c578182fd5b9392505050565b61496d80620000b36000396000f3fe608060405234801561001057600080fd5b50600436106101005760003560e01c806376b8de6a11610097578063c9d6c0f811610066578063c9d6c0f8146101ed578063d8aed14514610200578063f8ac93e814610213578063fe042ceb1461021b57610100565b806376b8de6a146101ac57806385d36cd7146101bf578063958e2d31146101d2578063b718ee94146101e557610100565b80633221be54116100d35780633221be5414610160578063415f124014610173578063441a3e701461018657806347e7ef241461019957610100565b80630900f01014610105578063098d32281461011a5780630dbe671f146101385780630ecbcdab1461014d575b600080fd5b6101186101133660046143e1565b61022e565b005b610122610771565b60405161012f91906148a2565b60405180910390f35b610140610777565b60405161012f9190614592565b61011861015b366004614555565b610786565b61011861016e36600461453d565b611381565b61011861018136600461453d565b611390565b610118610194366004614555565b611fc4565b6101186101a7366004614419565b6126b3565b6101186101ba3660046143e1565b612c2e565b6101226101cd3660046143e1565b612d23565b6101186101e036600461453d565b612d35565b610122612f5d565b6101226101fb3660046143e1565b613159565b61011861020e366004614555565b61316b565b6101186134d9565b6101186102293660046143e1565b6136e5565b600360009054906101000a90046001600160a01b03166001600160a01b031663f77c47916040518163ffffffff1660e01b815260040160206040518083038186803b15801561027c57600080fd5b505afa158015610290573d6000803e3d6000fd5b505050506040513d601f19601f820116820180604052508101906102b491906143fd565b6001600160a01b03166391d14854600360009054906101000a90046001600160a01b03166001600160a01b031663f77c47916040518163ffffffff1660e01b815260040160206040518083038186803b15801561031057600080fd5b505afa158015610324573d6000803e3d6000fd5b505050506040513d601f19601f8201168201806040525081019061034891906143fd565b6001600160a01b031663ec87621c6040518163ffffffff1660e01b815260040160206040518083038186803b15801561038057600080fd5b505afa158015610394573d6000803e3d6000fd5b505050506040513d601f19601f820116820180604052508101906103b89190614464565b336040518363ffffffff1660e01b81526004016103d692919061461e565b60206040518083038186803b1580156103ee57600080fd5b505afa158015610402573d6000803e3d6000fd5b505050506040513d601f19601f820116820180604052508101906104269190614444565b61042f57600080fd5b6001600160a01b03811661044257600080fd5b600360009054906101000a90046001600160a01b03166001600160a01b03166316d8a5a96040518163ffffffff1660e01b815260040160206040518083038186803b15801561049057600080fd5b505afa1580156104a4573d6000803e3d6000fd5b505050506040513d601f19601f820116820180604052508101906104c891906143fd565b6001600160a01b031663095ea7b3826000196040518363ffffffff1660e01b81526004016104f79291906145a6565b602060405180830381600087803b15801561051157600080fd5b505af1158015610525573d6000803e3d6000fd5b505050506040513d601f19601f820116820180604052508101906105499190614444565b61055257600080fd5b60015b600360009054906101000a90046001600160a01b03166001600160a01b03166379502c556040518163ffffffff1660e01b815260040160206040518083038186803b1580156105a357600080fd5b505afa1580156105b7573d6000803e3d6000fd5b505050506040513d601f19601f820116820180604052508101906105db91906143fd565b6001600160a01b031663d47e470d6040518163ffffffff1660e01b815260040160206040518083038186803b15801561061357600080fd5b505afa158015610627573d6000803e3d6000fd5b505050506040513d601f19601f8201168201806040525081019061064b9190614464565b811161076d57600354604080516379502c5560e01b815290516000926001600160a01b0316916379502c55916004808301926020929190829003018186803b15801561069657600080fd5b505afa1580156106aa573d6000803e3d6000fd5b505050506040513d601f19601f820116820180604052508101906106ce91906143fd565b6001600160a01b0316634a6e0dd0836040518263ffffffff1660e01b81526004016106f991906148a2565b60a06040518083038186803b15801561071157600080fd5b505afa158015610725573d6000803e3d6000fd5b505050506040513d601f19601f82011682018060405250810190610749919061447c565b519050806107636001600160a01b03821685600019613852565b5050600101610555565b5050565b60001981565b6003546001600160a01b031681565b81336001600160a01b0316600360009054906101000a90046001600160a01b03166001600160a01b03166365d552876040518163ffffffff1660e01b815260040160206040518083038186803b1580156107df57600080fd5b505afa1580156107f3573d6000803e3d6000fd5b505050506040513d601f19601f8201168201806040525081019061081791906143fd565b6001600160a01b0316633c2ecfe5836040518263ffffffff1660e01b815260040161084291906148a2565b60206040518083038186803b15801561085a57600080fd5b505afa15801561086e573d6000803e3d6000fd5b505050506040513d601f19601f8201168201806040525081019061089291906143fd565b6001600160a01b0316146108a557600080fd5b600260005414156108d15760405162461bcd60e51b81526004016108c890614815565b60405180910390fd5b60026000556108de6143a0565b600360009054906101000a90046001600160a01b03166001600160a01b03166365d552876040518163ffffffff1660e01b815260040160206040518083038186803b15801561092c57600080fd5b505afa158015610940573d6000803e3d6000fd5b505050506040513d601f19601f8201168201806040525081019061096491906143fd565b6001600160a01b0316638c64ea4a856040518263ffffffff1660e01b815260040161098f91906148a2565b60a06040518083038186803b1580156109a757600080fd5b505afa1580156109bb573d6000803e3d6000fd5b505050506040513d601f19601f820116820180604052508101906109df91906144d8565b90506109ee81600001516136e5565b600354604080516379502c5560e01b815290516000926001600160a01b0316916379502c55916004808301926020929190829003018186803b158015610a3357600080fd5b505afa158015610a47573d6000803e3d6000fd5b505050506040513d601f19601f82011682018060405250810190610a6b91906143fd565b8251604051631775a5f760e21b81526001600160a01b039290921691635dd697dc91610a9991600401614592565b60206040518083038186803b158015610ab157600080fd5b505afa158015610ac5573d6000803e3d6000fd5b505050506040513d601f19601f82011682018060405250810190610ae99190614464565b9050838115610b0957610b06610aff868461394c565b8290613985565b90505b6003546040805163b8091c5b60e01b815290516000926001600160a01b03169163b8091c5b916004808301926020929190829003018186803b158015610b4e57600080fd5b505afa158015610b62573d6000803e3d6000fd5b505050506040513d601f19601f82011682018060405250810190610b8691906143fd565b84516001600160a01b0390811660009081526001602052604090819020549051631d14160560e11b81529290911691633a282c0a91610bca918691906004016148ab565b60206040518083038186803b158015610be257600080fd5b505afa158015610bf6573d6000803e3d6000fd5b505050506040513d601f19601f82011682018060405250810190610c1a9190614464565b9050600360009054906101000a90046001600160a01b03166001600160a01b03166365d552876040518163ffffffff1660e01b815260040160206040518083038186803b158015610c6a57600080fd5b505afa158015610c7e573d6000803e3d6000fd5b505050506040513d601f19601f82011682018060405250810190610ca291906143fd565b6001600160a01b031663ef18fcb488610cc884886060015161398590919063ffffffff16565b6040518363ffffffff1660e01b8152600401610ce59291906148ab565b600060405180830381600087803b158015610cff57600080fd5b505af1158015610d13573d6000803e3d6000fd5b505050506000600360009054906101000a90046001600160a01b03166001600160a01b031663741bef1a6040518163ffffffff1660e01b815260040160206040518083038186803b158015610d6757600080fd5b505afa158015610d7b573d6000803e3d6000fd5b505050506040513d601f19601f82011682018060405250810190610d9f91906143fd565b6001600160a01b031663724091e0866000015187604001516040518363ffffffff1660e01b8152600401610dd49291906145a6565b60206040518083038186803b158015610dec57600080fd5b505afa158015610e00573d6000803e3d6000fd5b505050506040513d601f19601f82011682018060405250810190610e249190614464565b90506000600360009054906101000a90046001600160a01b03166001600160a01b03166365d552876040518163ffffffff1660e01b815260040160206040518083038186803b158015610e7657600080fd5b505afa158015610e8a573d6000803e3d6000fd5b505050506040513d601f19601f82011682018060405250810190610eae91906143fd565b6001600160a01b031663d310f49b8a6040518263ffffffff1660e01b8152600401610ed991906148a2565b60206040518083038186803b158015610ef157600080fd5b505afa158015610f05573d6000803e3d6000fd5b505050506040513d601f19601f82011682018060405250810190610f299190614464565b9050600360009054906101000a90046001600160a01b03166001600160a01b03166379502c556040518163ffffffff1660e01b815260040160206040518083038186803b158015610f7957600080fd5b505afa158015610f8d573d6000803e3d6000fd5b505050506040513d601f19601f82011682018060405250810190610fb191906143fd565b8651604051638a98b12d60e01b81526001600160a01b039290921691638a98b12d91610fdf91600401614592565b60206040518083038186803b158015610ff757600080fd5b505afa15801561100b573d6000803e3d6000fd5b505050506040513d601f19601f8201168201806040525081019061102f9190614464565b600360009054906101000a90046001600160a01b03166001600160a01b03166365d552876040518163ffffffff1660e01b815260040160206040518083038186803b15801561107d57600080fd5b505afa158015611091573d6000803e3d6000fd5b505050506040513d601f19601f820116820180604052508101906110b591906143fd565b87516040516309552ee360e11b81526001600160a01b0392909216916312aa5dc6916110e391600401614592565b60206040518083038186803b1580156110fb57600080fd5b505afa15801561110f573d6000803e3d6000fd5b505050506040513d601f19601f820116820180604052508101906111339190614464565b111561113e57600080fd5b600354604080516307bce81360e21b815290516000926001600160a01b031691631ef3a04c916004808301926020929190829003018186803b15801561118357600080fd5b505afa158015611197573d6000803e3d6000fd5b505050506040513d601f19601f820116820180604052508101906111bb91906143fd565b875160405163eb36deb760e01b81526001600160a01b03929092169163eb36deb7916111ed91879087906004016145fd565b60206040518083038186803b15801561120557600080fd5b505afa158015611219573d6000803e3d6000fd5b505050506040513d601f19601f8201168201806040525081019061123d9190614444565b90508061124957600080fd5b600360009054906101000a90046001600160a01b03166001600160a01b03166316d8a5a96040518163ffffffff1660e01b815260040160206040518083038186803b15801561129757600080fd5b505afa1580156112ab573d6000803e3d6000fd5b505050506040513d601f19601f820116820180604052508101906112cf91906143fd565b6001600160a01b03166340c10f19338b6040518363ffffffff1660e01b81526004016112fc9291906145a6565b600060405180830381600087803b15801561131657600080fd5b505af115801561132a573d6000803e3d6000fd5b50505050336001600160a01b03168a7feaf3bd02ad76e4b07064f7a219cd7722f0124fcc8b391721b63bc069aa4cbeb88b60405161136891906148a2565b60405180910390a3505060016000555050505050505050565b61138d8160001961316b565b50565b600260005414156113b35760405162461bcd60e51b81526004016108c890614815565b60026000556113c06143a0565b600360009054906101000a90046001600160a01b03166001600160a01b03166365d552876040518163ffffffff1660e01b815260040160206040518083038186803b15801561140e57600080fd5b505afa158015611422573d6000803e3d6000fd5b505050506040513d601f19601f8201168201806040525081019061144691906143fd565b6001600160a01b0316638c64ea4a836040518263ffffffff1660e01b815260040161147191906148a2565b60a06040518083038186803b15801561148957600080fd5b505afa15801561149d573d6000803e3d6000fd5b505050506040513d601f19601f820116820180604052508101906114c191906144d8565b90506114d081600001516136e5565b60035460408051633a0df78d60e11b815290516000926001600160a01b03169163741bef1a916004808301926020929190829003018186803b15801561151557600080fd5b505afa158015611529573d6000803e3d6000fd5b505050506040513d601f19601f8201168201806040525081019061154d91906143fd565b6001600160a01b031663724091e0836000015184604001516040518363ffffffff1660e01b81526004016115829291906145a6565b60206040518083038186803b15801561159a57600080fd5b505afa1580156115ae573d6000803e3d6000fd5b505050506040513d601f19601f820116820180604052508101906115d29190614464565b90506000600360009054906101000a90046001600160a01b03166001600160a01b03166365d552876040518163ffffffff1660e01b815260040160206040518083038186803b15801561162457600080fd5b505afa158015611638573d6000803e3d6000fd5b505050506040513d601f19601f8201168201806040525081019061165c91906143fd565b6001600160a01b031663d310f49b856040518263ffffffff1660e01b815260040161168791906148a2565b60206040518083038186803b15801561169f57600080fd5b505afa1580156116b3573d6000803e3d6000fd5b505050506040513d601f19601f820116820180604052508101906116d79190614464565b9050600360009054906101000a90046001600160a01b03166001600160a01b0316631ef3a04c6040518163ffffffff1660e01b815260040160206040518083038186803b15801561172757600080fd5b505afa15801561173b573d6000803e3d6000fd5b505050506040513d601f19601f8201168201806040525081019061175f91906143fd565b835160405163eb36deb760e01b81526001600160a01b03929092169163eb36deb79161179191869086906004016145fd565b60206040518083038186803b1580156117a957600080fd5b505afa1580156117bd573d6000803e3d6000fd5b505050506040513d601f19601f820116820180604052508101906117e19190614444565b156117eb57600080fd5b600354604080516307bce81360e21b815290516000926001600160a01b031691631ef3a04c916004808301926020929190829003018186803b15801561183057600080fd5b505afa158015611844573d6000803e3d6000fd5b505050506040513d601f19601f8201168201806040525081019061186891906143fd565b6001600160a01b031663e91a5842846040518263ffffffff1660e01b815260040161189391906148a2565b60206040518083038186803b1580156118ab57600080fd5b505afa1580156118bf573d6000803e3d6000fd5b505050506040513d601f19601f820116820180604052508101906118e39190614464565b905060008280831015611b4b5760006118fc85856139aa565b905080600360009054906101000a90046001600160a01b03166001600160a01b03166316d8a5a96040518163ffffffff1660e01b815260040160206040518083038186803b15801561194d57600080fd5b505afa158015611961573d6000803e3d6000fd5b505050506040513d601f19601f8201168201806040525081019061198591906143fd565b6001600160a01b03166370a08231306040518263ffffffff1660e01b81526004016119b09190614592565b60206040518083038186803b1580156119c857600080fd5b505afa1580156119dc573d6000803e3d6000fd5b505050506040513d601f19601f82011682018060405250810190611a009190614464565b1015611a0b57600080fd5b600360009054906101000a90046001600160a01b03166001600160a01b03166316d8a5a96040518163ffffffff1660e01b815260040160206040518083038186803b158015611a5957600080fd5b505afa158015611a6d573d6000803e3d6000fd5b505050506040513d601f19601f82011682018060405250810190611a9191906143fd565b6001600160a01b0316639dc29fac30836040518363ffffffff1660e01b8152600401611abe9291906145a6565b600060405180830381600087803b158015611ad857600080fd5b505af1158015611aec573d6000803e3d6000fd5b50505050336001600160a01b0316887fee59f0ab11beb3caf57d8bff0a6295df41b8a08d3adcabc7840e70ad1e4c9c5783604051611b2a91906148a2565b60405180910390a360408701519250611b4385826139aa565b915050611d61565b600360009054906101000a90046001600160a01b03166001600160a01b031663741bef1a6040518163ffffffff1660e01b815260040160206040518083038186803b158015611b9957600080fd5b505afa158015611bad573d6000803e3d6000fd5b505050506040513d601f19601f82011682018060405250810190611bd191906143fd565b8651604051639bfa518160e01b81526001600160a01b039290921691639bfa518191611c019188906004016145a6565b60206040518083038186803b158015611c1957600080fd5b505afa158015611c2d573d6000803e3d6000fd5b505050506040513d601f19601f82011682018060405250810190611c519190614464565b9150611d5e600360009054906101000a90046001600160a01b03166001600160a01b0316631ef3a04c6040518163ffffffff1660e01b815260040160206040518083038186803b158015611ca457600080fd5b505afa158015611cb8573d6000803e3d6000fd5b505050506040513d601f19601f82011682018060405250810190611cdc91906143fd565b6001600160a01b0316634fbbd94c846040518263ffffffff1660e01b8152600401611d0791906148a2565b60206040518083038186803b158015611d1f57600080fd5b505afa158015611d33573d6000803e3d6000fd5b505050506040513d601f19601f82011682018060405250810190611d579190614464565b8390613985565b91505b611d6b87856139d2565b600360009054906101000a90046001600160a01b03166001600160a01b03166316d8a5a96040518163ffffffff1660e01b815260040160206040518083038186803b158015611db957600080fd5b505afa158015611dcd573d6000803e3d6000fd5b505050506040513d601f19601f82011682018060405250810190611df191906143fd565b6001600160a01b0316639dc29fac33836040518363ffffffff1660e01b8152600401611e1e9291906145a6565b600060405180830381600087803b158015611e3857600080fd5b505af1158015611e4c573d6000803e3d6000fd5b50505050600360009054906101000a90046001600160a01b03166001600160a01b03166365d552876040518163ffffffff1660e01b815260040160206040518083038186803b158015611e9e57600080fd5b505afa158015611eb2573d6000803e3d6000fd5b505050506040513d601f19601f82011682018060405250810190611ed691906143fd565b6001600160a01b031663c7eb222b88611efc858a604001516139aa90919063ffffffff16565b6040518363ffffffff1660e01b8152600401611f199291906148ab565b600060405180830381600087803b158015611f3357600080fd5b505af1158015611f47573d6000803e3d6000fd5b505087519150611f6390506001600160a01b0382163385613ed4565b336001600160a01b031687602001516001600160a01b0316897faba5d629ca14a7d184b55def9058e247debfb64f6ccebd9782b8c9c65307ccb08587604051611fad9291906148ab565b60405180910390a450506001600055505050505050565b81336001600160a01b0316600360009054906101000a90046001600160a01b03166001600160a01b03166365d552876040518163ffffffff1660e01b815260040160206040518083038186803b15801561201d57600080fd5b505afa158015612031573d6000803e3d6000fd5b505050506040513d601f19601f8201168201806040525081019061205591906143fd565b6001600160a01b0316633c2ecfe5836040518263ffffffff1660e01b815260040161208091906148a2565b60206040518083038186803b15801561209857600080fd5b505afa1580156120ac573d6000803e3d6000fd5b505050506040513d601f19601f820116820180604052508101906120d091906143fd565b6001600160a01b0316146120e357600080fd5b600260005414156121065760405162461bcd60e51b81526004016108c890614815565b60026000556121136143a0565b600360009054906101000a90046001600160a01b03166001600160a01b03166365d552876040518163ffffffff1660e01b815260040160206040518083038186803b15801561216157600080fd5b505afa158015612175573d6000803e3d6000fd5b505050506040513d601f19601f8201168201806040525081019061219991906143fd565b6001600160a01b0316638c64ea4a856040518263ffffffff1660e01b81526004016121c491906148a2565b60a06040518083038186803b1580156121dc57600080fd5b505afa1580156121f0573d6000803e3d6000fd5b505050506040513d601f19601f8201168201806040525081019061221491906144d8565b9050806040015183111561222757600080fd5b604081015160009061223990856139aa565b9050600360009054906101000a90046001600160a01b03166001600160a01b03166365d552876040518163ffffffff1660e01b815260040160206040518083038186803b15801561228957600080fd5b505afa15801561229d573d6000803e3d6000fd5b505050506040513d601f19601f820116820180604052508101906122c191906143fd565b6001600160a01b031663c7eb222b86836040518363ffffffff1660e01b81526004016122ee9291906148ab565b600060405180830381600087803b15801561230857600080fd5b505af115801561231c573d6000803e3d6000fd5b5050505060608201511561264e578151612335906136e5565b60035460408051633a0df78d60e11b815290516000926001600160a01b03169163741bef1a916004808301926020929190829003018186803b15801561237a57600080fd5b505afa15801561238e573d6000803e3d6000fd5b505050506040513d601f19601f820116820180604052508101906123b291906143fd565b8351604051630392048f60e51b81526001600160a01b03929092169163724091e0916123e29186906004016145a6565b60206040518083038186803b1580156123fa57600080fd5b505afa15801561240e573d6000803e3d6000fd5b505050506040513d601f19601f820116820180604052508101906124329190614464565b90506000600360009054906101000a90046001600160a01b03166001600160a01b0316631ef3a04c6040518163ffffffff1660e01b815260040160206040518083038186803b15801561248457600080fd5b505afa158015612498573d6000803e3d6000fd5b505050506040513d601f19601f820116820180604052508101906124bc91906143fd565b6001600160a01b031663eb36deb7856000015184600360009054906101000a90046001600160a01b03166001600160a01b03166365d552876040518163ffffffff1660e01b815260040160206040518083038186803b15801561251e57600080fd5b505afa158015612532573d6000803e3d6000fd5b505050506040513d601f19601f8201168201806040525081019061255691906143fd565b6001600160a01b031663d310f49b8c6040518263ffffffff1660e01b815260040161258191906148a2565b60206040518083038186803b15801561259957600080fd5b505afa1580156125ad573d6000803e3d6000fd5b505050506040513d601f19601f820116820180604052508101906125d19190614464565b6040518463ffffffff1660e01b81526004016125ef939291906145fd565b60206040518083038186803b15801561260757600080fd5b505afa15801561261b573d6000803e3d6000fd5b505050506040513d601f19601f8201168201806040525081019061263f9190614444565b90508061264b57600080fd5b50505b81516126646001600160a01b0382163387613ed4565b336001600160a01b0316867f02ffa641367f5b897c0f8be81bce51f2ef055b4113d7a1e4fd082feea749bf528760405161269e91906148a2565b60405180910390a35050600160005550505050565b600360009054906101000a90046001600160a01b03166001600160a01b03166379502c556040518163ffffffff1660e01b815260040160206040518083038186803b15801561270157600080fd5b505afa158015612715573d6000803e3d6000fd5b505050506040513d601f19601f8201168201806040525081019061273991906143fd565b6001600160a01b031663db67c4d5836040518263ffffffff1660e01b81526004016127649190614592565b60206040518083038186803b15801561277c57600080fd5b505afa158015612790573d6000803e3d6000fd5b505050506040513d601f19601f820116820180604052508101906127b49190614464565b6127bd57600080fd5b600354604080516365d5528760e01b815290516000926001600160a01b0316916365d55287916004808301926020929190829003018186803b15801561280257600080fd5b505afa158015612816573d6000803e3d6000fd5b505050506040513d601f19601f8201168201806040525081019061283a91906143fd565b6001600160a01b031663bd44815f84336040518363ffffffff1660e01b81526004016128679291906145bf565b60206040518083038186803b15801561287f57600080fd5b505afa158015612893573d6000803e3d6000fd5b505050506040513d601f19601f820116820180604052508101906128b79190614464565b9050806129c657600360009054906101000a90046001600160a01b03166001600160a01b03166365d552876040518163ffffffff1660e01b815260040160206040518083038186803b15801561290c57600080fd5b505afa158015612920573d6000803e3d6000fd5b505050506040513d601f19601f8201168201806040525081019061294491906143fd565b6001600160a01b031663cc92d31c84336040518363ffffffff1660e01b81526004016129719291906145bf565b602060405180830381600087803b15801561298b57600080fd5b505af115801561299f573d6000803e3d6000fd5b505050506040513d601f19601f820116820180604052508101906129c39190614464565b90505b6129ce6143a0565b600360009054906101000a90046001600160a01b03166001600160a01b03166365d552876040518163ffffffff1660e01b815260040160206040518083038186803b158015612a1c57600080fd5b505afa158015612a30573d6000803e3d6000fd5b505050506040513d601f19601f82011682018060405250810190612a5491906143fd565b6001600160a01b0316638c64ea4a836040518263ffffffff1660e01b8152600401612a7f91906148a2565b60a06040518083038186803b158015612a9757600080fd5b505afa158015612aab573d6000803e3d6000fd5b505050506040513d601f19601f82011682018060405250810190612acf91906144d8565b9050600360009054906101000a90046001600160a01b03166001600160a01b03166365d552876040518163ffffffff1660e01b815260040160206040518083038186803b158015612b1f57600080fd5b505afa158015612b33573d6000803e3d6000fd5b505050506040513d601f19601f82011682018060405250810190612b5791906143fd565b6001600160a01b031663c7eb222b83612b7d86856040015161398590919063ffffffff16565b6040518363ffffffff1660e01b8152600401612b9a9291906148ab565b600060405180830381600087803b158015612bb457600080fd5b505af1158015612bc8573d6000803e3d6000fd5b505082519150612be590506001600160a01b038216333087613ef3565b336001600160a01b0316837ffaddc2a572d923daf0944fe20bf804595e90ca57c85045b1081d338d1510bf1486604051612c1f91906148a2565b60405180910390a35050505050565b600360009054906101000a90046001600160a01b03166001600160a01b03166379502c556040518163ffffffff1660e01b815260040160206040518083038186803b158015612c7c57600080fd5b505afa158015612c90573d6000803e3d6000fd5b505050506040513d601f19601f82011682018060405250810190612cb491906143fd565b6001600160a01b0316336001600160a01b031614612cd157600080fd5b6001600160a01b038116612ce457600080fd5b6001600160a01b0381166000908152600260205260409020429055612d07613f1a565b6001600160a01b03909116600090815260016020526040902055565b60016020526000908152604090205481565b80336001600160a01b0316600360009054906101000a90046001600160a01b03166001600160a01b03166365d552876040518163ffffffff1660e01b815260040160206040518083038186803b158015612d8e57600080fd5b505afa158015612da2573d6000803e3d6000fd5b505050506040513d601f19601f82011682018060405250810190612dc691906143fd565b6001600160a01b0316633c2ecfe5836040518263ffffffff1660e01b8152600401612df191906148a2565b60206040518083038186803b158015612e0957600080fd5b505afa158015612e1d573d6000803e3d6000fd5b505050506040513d601f19601f82011682018060405250810190612e4191906143fd565b6001600160a01b031614612e5457600080fd5b600354604080516365d5528760e01b815290516000926001600160a01b0316916365d55287916004808301926020929190829003018186803b158015612e9957600080fd5b505afa158015612ead573d6000803e3d6000fd5b505050506040513d601f19601f82011682018060405250810190612ed191906143fd565b6001600160a01b031663828f8def846040518263ffffffff1660e01b8152600401612efc91906148a2565b60206040518083038186803b158015612f1457600080fd5b505afa158015612f28573d6000803e3d6000fd5b505050506040513d601f19601f82011682018060405250810190612f4c9190614464565b9050612f588382611fc4565b505050565b6000613154600360009054906101000a90046001600160a01b03166001600160a01b03166316d8a5a96040518163ffffffff1660e01b815260040160206040518083038186803b158015612fb057600080fd5b505afa158015612fc4573d6000803e3d6000fd5b505050506040513d601f19601f82011682018060405250810190612fe891906143fd565b6001600160a01b03166318160ddd6040518163ffffffff1660e01b815260040160206040518083038186803b15801561302057600080fd5b505afa158015613034573d6000803e3d6000fd5b505050506040513d601f19601f820116820180604052508101906130589190614464565b600360009054906101000a90046001600160a01b03166001600160a01b03166365d552876040518163ffffffff1660e01b815260040160206040518083038186803b1580156130a657600080fd5b505afa1580156130ba573d6000803e3d6000fd5b505050506040513d601f19601f820116820180604052508101906130de91906143fd565b6001600160a01b0316630dca59c16040518163ffffffff1660e01b815260040160206040518083038186803b15801561311657600080fd5b505afa15801561312a573d6000803e3d6000fd5b505050506040513d601f19601f8201168201806040525081019061314e9190614464565b906139aa565b905090565b60026020526000908152604090205481565b6002600054141561318e5760405162461bcd60e51b81526004016108c890614815565b60026000908155600354604080516365d5528760e01b815290516001600160a01b03909216916365d5528791600480820192602092909190829003018186803b1580156131da57600080fd5b505afa1580156131ee573d6000803e3d6000fd5b505050506040513d601f19601f8201168201806040525081019061321291906143fd565b6001600160a01b031663b508bc59846040518263ffffffff1660e01b815260040161323d91906148a2565b60206040518083038186803b15801561325557600080fd5b505afa158015613269573d6000803e3d6000fd5b505050506040513d601f19601f8201168201806040525081019061328d91906143fd565b9050613298816136e5565b600354604080516365d5528760e01b815290516000926001600160a01b0316916365d55287916004808301926020929190829003018186803b1580156132dd57600080fd5b505afa1580156132f1573d6000803e3d6000fd5b505050506040513d601f19601f8201168201806040525081019061331591906143fd565b6001600160a01b031663d310f49b856040518263ffffffff1660e01b815260040161334091906148a2565b60206040518083038186803b15801561335857600080fd5b505afa15801561336c573d6000803e3d6000fd5b505050506040513d601f19601f820116820180604052508101906133909190614464565b905080831061339d578092505b6133a784846139d2565b600360009054906101000a90046001600160a01b03166001600160a01b03166316d8a5a96040518163ffffffff1660e01b815260040160206040518083038186803b1580156133f557600080fd5b505afa158015613409573d6000803e3d6000fd5b505050506040513d601f19601f8201168201806040525081019061342d91906143fd565b6001600160a01b0316639dc29fac33856040518363ffffffff1660e01b815260040161345a9291906145a6565b600060405180830381600087803b15801561347457600080fd5b505af1158015613488573d6000803e3d6000fd5b50505050336001600160a01b0316847fec0b41ca9a2a301ec07412b3c841535558e6b49d98c606aeca50e85f164182f2856040516134c691906148a2565b60405180910390a3505060016000555050565b60015b600360009054906101000a90046001600160a01b03166001600160a01b03166379502c556040518163ffffffff1660e01b815260040160206040518083038186803b15801561352a57600080fd5b505afa15801561353e573d6000803e3d6000fd5b505050506040513d601f19601f8201168201806040525081019061356291906143fd565b6001600160a01b031663d47e470d6040518163ffffffff1660e01b815260040160206040518083038186803b15801561359a57600080fd5b505afa1580156135ae573d6000803e3d6000fd5b505050506040513d601f19601f820116820180604052508101906135d29190614464565b811161138d57600354604080516379502c5560e01b815290516000926001600160a01b0316916379502c55916004808301926020929190829003018186803b15801561361d57600080fd5b505afa158015613631573d6000803e3d6000fd5b505050506040513d601f19601f8201168201806040525081019061365591906143fd565b6001600160a01b0316634a6e0dd0836040518263ffffffff1660e01b815260040161368091906148a2565b60a06040518083038186803b15801561369857600080fd5b505afa1580156136ac573d6000803e3d6000fd5b505050506040513d601f19601f820116820180604052508101906136d0919061447c565b5190506136dc816136e5565b506001016134dc565b6001600160a01b0381166136f857600080fd5b600360009054906101000a90046001600160a01b03166001600160a01b03166379502c556040518163ffffffff1660e01b815260040160206040518083038186803b15801561374657600080fd5b505afa15801561375a573d6000803e3d6000fd5b505050506040513d601f19601f8201168201806040525081019061377e91906143fd565b6001600160a01b031663db67c4d5826040518263ffffffff1660e01b81526004016137a99190614592565b60206040518083038186803b1580156137c157600080fd5b505afa1580156137d5573d6000803e3d6000fd5b505050506040513d601f19601f820116820180604052508101906137f99190614464565b61380257600080fd5b6001600160a01b0381166000908152600260205260408120544291906138299083906139aa565b90506138358382613f2a565b506001600160a01b03909116600090815260026020526040902055565b8015806138da5750604051636eb1769f60e11b81526001600160a01b0384169063dd62ed3e9061388890309086906004016145bf565b60206040518083038186803b1580156138a057600080fd5b505afa1580156138b4573d6000803e3d6000fd5b505050506040513d601f19601f820116820180604052508101906138d89190614464565b155b6138f65760405162461bcd60e51b81526004016108c89061484c565b612f588363095ea7b360e01b84846040516024016139159291906145a6565b60408051601f198184030181529190526020810180516001600160e01b03166001600160e01b03199093169290921790915261418c565b600061397c670de0b6b3a7640000613976613967868661421b565b6706f05b59d3b2000090613985565b90614255565b90505b92915050565b60008282018381101561397c5760405162461bcd60e51b81526004016108c890614668565b6000828211156139cc5760405162461bcd60e51b81526004016108c89061469f565b50900390565b600354604080516365d5528760e01b815290516000926001600160a01b0316916365d55287916004808301926020929190829003018186803b158015613a1757600080fd5b505afa158015613a2b573d6000803e3d6000fd5b505050506040513d601f19601f82011682018060405250810190613a4f91906143fd565b6001600160a01b031663b508bc59846040518263ffffffff1660e01b8152600401613a7a91906148a2565b60206040518083038186803b158015613a9257600080fd5b505afa158015613aa6573d6000803e3d6000fd5b505050506040513d601f19601f82011682018060405250810190613aca91906143fd565b90506000600360009054906101000a90046001600160a01b03166001600160a01b03166365d552876040518163ffffffff1660e01b815260040160206040518083038186803b158015613b1c57600080fd5b505afa158015613b30573d6000803e3d6000fd5b505050506040513d601f19601f82011682018060405250810190613b5491906143fd565b6001600160a01b031663d310f49b856040518263ffffffff1660e01b8152600401613b7f91906148a2565b60206040518083038186803b158015613b9757600080fd5b505afa158015613bab573d6000803e3d6000fd5b505050506040513d601f19601f82011682018060405250810190613bcf9190614464565b90506000613bdd82856139aa565b6001600160a01b03841660009081526001602052604090205490915081613ce957600360009054906101000a90046001600160a01b03166001600160a01b03166365d552876040518163ffffffff1660e01b815260040160206040518083038186803b158015613c4c57600080fd5b505afa158015613c60573d6000803e3d6000fd5b505050506040513d601f19601f82011682018060405250810190613c8491906143fd565b6001600160a01b031663ef18fcb48760006040518363ffffffff1660e01b8152600401613cb29291906148ab565b600060405180830381600087803b158015613ccc57600080fd5b505af1158015613ce0573d6000803e3d6000fd5b50505050613ecc565b6003546040805163b8091c5b60e01b815290516000926001600160a01b03169163b8091c5b916004808301926020929190829003018186803b158015613d2e57600080fd5b505afa158015613d42573d6000803e3d6000fd5b505050506040513d601f19601f82011682018060405250810190613d6691906143fd565b6001600160a01b0316633a282c0a84846040518363ffffffff1660e01b8152600401613d939291906148ab565b60206040518083038186803b158015613dab57600080fd5b505afa158015613dbf573d6000803e3d6000fd5b505050506040513d601f19601f82011682018060405250810190613de39190614464565b9050600360009054906101000a90046001600160a01b03166001600160a01b03166365d552876040518163ffffffff1660e01b815260040160206040518083038186803b158015613e3357600080fd5b505afa158015613e47573d6000803e3d6000fd5b505050506040513d601f19601f82011682018060405250810190613e6b91906143fd565b6001600160a01b031663ef18fcb488836040518363ffffffff1660e01b8152600401613e989291906148ab565b600060405180830381600087803b158015613eb257600080fd5b505af1158015613ec6573d6000803e3d6000fd5b50505050505b505050505050565b612f588363a9059cbb60e01b84846040516024016139159291906145a6565b613f14846323b872dd60e01b858585604051602401613915939291906145d9565b50505050565b6b033b2e3c9fd0803ce800000090565b600354604080516379502c5560e01b815290516000926001600160a01b0316916379502c55916004808301926020929190829003018186803b158015613f6f57600080fd5b505afa158015613f83573d6000803e3d6000fd5b505050506040513d601f19601f82011682018060405250810190613fa791906143fd565b6001600160a01b031663e4ea33ef846040518263ffffffff1660e01b8152600401613fd29190614592565b60206040518083038186803b158015613fea57600080fd5b505afa158015613ffe573d6000803e3d6000fd5b505050506040513d601f19601f820116820180604052508101906140229190614464565b6001600160a01b0380851660009081526001602090815260409182902054600354835163b8091c5b60e01b81529351959650909493169263b8091c5b926004808201939291829003018186803b15801561407b57600080fd5b505afa15801561408f573d6000803e3d6000fd5b505050506040513d601f19601f820116820180604052508101906140b391906143fd565b6001600160a01b031663e7b5e7bd8383866040518463ffffffff1660e01b81526004016140e2939291906148b9565b60206040518083038186803b1580156140fa57600080fd5b505afa15801561410e573d6000803e3d6000fd5b505050506040513d601f19601f820116820180604052508101906141329190614464565b6001600160a01b038516600081815260016020526040908190208390555190917e8d79dfe2ff68111aa3d402375f53b30613efb53f7b045a1e739a94468d15e09161417e9187916148ab565b60405180910390a250505050565b60606141e1826040518060400160405280602081526020017f5361666545524332303a206c6f772d6c6576656c2063616c6c206661696c6564815250856001600160a01b03166142879092919063ffffffff16565b805190915015612f5857808060200190518101906141ff9190614444565b612f585760405162461bcd60e51b81526004016108c8906147cb565b60008261422a5750600061397f565b8282028284828161423757fe5b041461397c5760405162461bcd60e51b81526004016108c890614753565b60008082116142765760405162461bcd60e51b81526004016108c89061471c565b81838161427f57fe5b049392505050565b606061429684846000856142a0565b90505b9392505050565b6060824710156142c25760405162461bcd60e51b81526004016108c8906146d6565b6142cb85614361565b6142e75760405162461bcd60e51b81526004016108c890614794565b60006060866001600160a01b031685876040516143049190614576565b60006040518083038185875af1925050503d8060008114614341576040519150601f19603f3d011682016040523d82523d6000602084013e614346565b606091505b5091509150614356828286614367565b979650505050505050565b3b151590565b60608315614376575081614299565b8251156143865782518084602001fd5b8160405162461bcd60e51b81526004016108c89190614635565b6040518060a0016040528060006001600160a01b0316815260200160006001600160a01b031681526020016000815260200160008152602001600081525090565b6000602082840312156143f2578081fd5b813561397c81614922565b60006020828403121561440e578081fd5b815161397c81614922565b6000806040838503121561442b578081fd5b823561443681614922565b946020939093013593505050565b600060208284031215614455578081fd5b8151801515811461397c578182fd5b600060208284031215614475578081fd5b5051919050565b600060a0828403121561448d578081fd5b61449760a06148cf565b82516144a281614922565b80825250602083015160208201526040830151604082015260608301516060820152608083015160808201528091505092915050565b600060a082840312156144e9578081fd5b6144f360a06148cf565b82516144fe81614922565b8152602083015161450e81614922565b806020830152506040830151604082015260608301516060820152608083015160808201528091505092915050565b60006020828403121561454e578081fd5b5035919050565b60008060408385031215614567578182fd5b50508035926020909101359150565b600082516145888184602087016148f6565b9190910192915050565b6001600160a01b0391909116815260200190565b6001600160a01b03929092168252602082015260400190565b6001600160a01b0392831681529116602082015260400190565b6001600160a01b039384168152919092166020820152604081019190915260600190565b6001600160a01b039390931683526020830191909152604082015260600190565b9182526001600160a01b0316602082015260400190565b60006020825282518060208401526146548160408501602087016148f6565b601f01601f19169190910160400192915050565b6020808252601b908201527f536166654d6174683a206164646974696f6e206f766572666c6f770000000000604082015260600190565b6020808252601e908201527f536166654d6174683a207375627472616374696f6e206f766572666c6f770000604082015260600190565b60208082526026908201527f416464726573733a20696e73756666696369656e742062616c616e636520666f6040820152651c8818d85b1b60d21b606082015260800190565b6020808252601a908201527f536166654d6174683a206469766973696f6e206279207a65726f000000000000604082015260600190565b60208082526021908201527f536166654d6174683a206d756c7469706c69636174696f6e206f766572666c6f6040820152607760f81b606082015260800190565b6020808252601d908201527f416464726573733a2063616c6c20746f206e6f6e2d636f6e7472616374000000604082015260600190565b6020808252602a908201527f5361666545524332303a204552433230206f7065726174696f6e20646964206e6040820152691bdd081cdd58d8d9595960b21b606082015260800190565b6020808252601f908201527f5265656e7472616e637947756172643a207265656e7472616e742063616c6c00604082015260600190565b60208082526036908201527f5361666545524332303a20617070726f76652066726f6d206e6f6e2d7a65726f60408201527520746f206e6f6e2d7a65726f20616c6c6f77616e636560501b606082015260800190565b90815260200190565b918252602082015260400190565b9283526020830191909152604082015260600190565b60405181810167ffffffffffffffff811182821017156148ee57600080fd5b604052919050565b60005b838110156149115781810151838201526020016148f9565b83811115613f145750506000910152565b6001600160a01b038116811461138d57600080fdfea26469706673582212203204253b64d70cebaf8ca8657809462ef048705b8f9dcfa331505acd69f0695264736f6c634300060c0033",
  "immutableReferences": {},
  "source": "// SPDX-License-Identifier: MIT\n\npragma experimental ABIEncoderV2;\npragma solidity 0.6.12;\n\nimport \"@openzeppelin/contracts/token/ERC20/IERC20.sol\";\nimport \"@openzeppelin/contracts/token/ERC20/SafeERC20.sol\";\nimport \"@openzeppelin/contracts/utils/ReentrancyGuard.sol\";\nimport \"@openzeppelin/contracts/math/SafeMath.sol\";\n\nimport \"../libraries/WadRayMath.sol\";\nimport \"./interfaces/IVaultsCoreV1.sol\";\nimport \"./interfaces/ILiquidationManagerV1.sol\";\nimport \"./interfaces/IAddressProviderV1.sol\";\n\ncontract VaultsCoreV1 is IVaultsCoreV1, ReentrancyGuard {\n  using SafeERC20 for IERC20;\n  using SafeMath for uint256;\n  using WadRayMath for uint256;\n\n  uint256 public constant MAX_INT = 2**256 - 1;\n\n  mapping(address => uint256) public override cumulativeRates;\n  mapping(address => uint256) public override lastRefresh;\n\n  IAddressProviderV1 public override a;\n\n  modifier onlyManager() {\n    require(a.controller().hasRole(a.controller().MANAGER_ROLE(), msg.sender));\n    _;\n  }\n\n  modifier onlyVaultOwner(uint256 _vaultId) {\n    require(a.vaultsData().vaultOwner(_vaultId) == msg.sender);\n    _;\n  }\n\n  modifier onlyConfig() {\n    require(msg.sender == address(a.config()));\n    _;\n  }\n\n  constructor(IAddressProviderV1 _addresses) public {\n    require(address(_addresses) != address(0));\n    a = _addresses;\n  }\n\n  /*\n    Allow smooth upgrading of the vaultscore.\n    @dev this function approves token transfers to the new vaultscore of\n    both stablex and all configured collateral types\n    @param _newVaultsCore address of the new vaultscore\n  */\n  function upgrade(address _newVaultsCore) public override onlyManager {\n    require(address(_newVaultsCore) != address(0));\n    require(a.stablex().approve(_newVaultsCore, MAX_INT));\n\n    for (uint256 i = 1; i <= a.config().numCollateralConfigs(); i++) {\n      address collateralType = a.config().collateralConfigs(i).collateralType;\n      IERC20 asset = IERC20(collateralType);\n      asset.safeApprove(_newVaultsCore, MAX_INT);\n    }\n  }\n\n  /**\n    Calculate the available income\n    @return available income that has not been minted yet.\n  **/\n  function availableIncome() public view override returns (uint256) {\n    return a.vaultsData().debt().sub(a.stablex().totalSupply());\n  }\n\n  /**\n    Refresh the cumulative rates and debts of all vaults and all collateral types.\n  **/\n  function refresh() public override {\n    for (uint256 i = 1; i <= a.config().numCollateralConfigs(); i++) {\n      address collateralType = a.config().collateralConfigs(i).collateralType;\n      refreshCollateral(collateralType);\n    }\n  }\n\n  /**\n    Initialize the cumulative rates to 1 for a new collateral type.\n    @param _collateralType the address of the new collateral type to be initialized\n  **/\n  function initializeRates(address _collateralType) public override onlyConfig {\n    require(_collateralType != address(0));\n    lastRefresh[_collateralType] = now;\n    cumulativeRates[_collateralType] = WadRayMath.ray();\n  }\n\n  /**\n    Refresh the cumulative rate of a collateraltype.\n    @dev this updates the debt for all vaults with the specified collateral type.\n    @param _collateralType the address of the collateral type to be refreshed.\n  **/\n  function refreshCollateral(address _collateralType) public override {\n    require(_collateralType != address(0));\n    require(a.config().collateralIds(_collateralType) != 0);\n    uint256 timestamp = now;\n    uint256 timeElapsed = timestamp.sub(lastRefresh[_collateralType]);\n    _refreshCumulativeRate(_collateralType, timeElapsed);\n    lastRefresh[_collateralType] = timestamp;\n  }\n\n  /**\n    Internal function to increase the cumulative rate over a specified time period\n    @dev this updates the debt for all vaults with the specified collateral type.\n    @param _collateralType the address of the collateral type to be updated\n    @param _timeElapsed the amount of time in seconds to add to the cumulative rate\n  **/\n  function _refreshCumulativeRate(address _collateralType, uint256 _timeElapsed) internal {\n    uint256 borrowRate = a.config().collateralBorrowRate(_collateralType);\n    uint256 oldCumulativeRate = cumulativeRates[_collateralType];\n    cumulativeRates[_collateralType] = a.ratesManager().calculateCumulativeRate(\n      borrowRate,\n      oldCumulativeRate,\n      _timeElapsed\n    );\n    emit CumulativeRateUpdated(_collateralType, _timeElapsed, cumulativeRates[_collateralType]);\n  }\n\n  /**\n    Deposit an ERC20 token into the vault of the msg.sender as collateral\n    @dev A new vault is created if no vault exists for the `msg.sender` with the specified collateral type.\n    this function used `transferFrom()` and requires pre-approval via `approve()` on the ERC20.\n    @param _collateralType the address of the collateral type to be deposited\n    @param _amount the amount of tokens to be deposited in WEI.\n  **/\n  function deposit(address _collateralType, uint256 _amount) public override {\n    require(a.config().collateralIds(_collateralType) != 0);\n    uint256 vaultId = a.vaultsData().vaultId(_collateralType, msg.sender);\n    if (vaultId == 0) {\n      vaultId = a.vaultsData().createVault(_collateralType, msg.sender);\n    }\n    IVaultsDataProvider.Vault memory v = a.vaultsData().vaults(vaultId);\n    a.vaultsData().setCollateralBalance(vaultId, v.collateralBalance.add(_amount));\n\n    IERC20 asset = IERC20(v.collateralType);\n    asset.safeTransferFrom(msg.sender, address(this), _amount);\n\n    emit Deposited(vaultId, _amount, msg.sender);\n  }\n\n  /**\n    Withdraws ERC20 tokens from a vault.\n    @dev Only te owner of a vault can withdraw collateral from it.\n    `withdraw()` will fail if it would bring the vault below the liquidation treshold.\n    @param _vaultId the ID of the vault from which to withdraw the collateral.\n    @param _amount the amount of ERC20 tokens to be withdrawn in WEI.\n  **/\n  function withdraw(uint256 _vaultId, uint256 _amount) public override onlyVaultOwner(_vaultId) nonReentrant {\n    IVaultsDataProvider.Vault memory v = a.vaultsData().vaults(_vaultId);\n    require(_amount <= v.collateralBalance);\n    uint256 newCollateralBalance = v.collateralBalance.sub(_amount);\n    a.vaultsData().setCollateralBalance(_vaultId, newCollateralBalance);\n    if (v.baseDebt > 0) {\n      //save gas cost when withdrawing from 0 debt vault\n      refreshCollateral(v.collateralType);\n      uint256 newCollateralValue = a.priceFeed().convertFrom(v.collateralType, newCollateralBalance);\n      bool _isHealthy = ILiquidationManagerV1(address(a.liquidationManager())).isHealthy(\n        v.collateralType,\n        newCollateralValue,\n        a.vaultsData().vaultDebt(_vaultId)\n      );\n      require(_isHealthy);\n    }\n\n    IERC20 asset = IERC20(v.collateralType);\n    asset.safeTransfer(msg.sender, _amount);\n    emit Withdrawn(_vaultId, _amount, msg.sender);\n  }\n\n  /**\n    Convenience function to withdraw all collateral of a vault\n    @dev Only te owner of a vault can withdraw collateral from it.\n    `withdrawAll()` will fail if the vault has any outstanding debt attached to it.\n    @param _vaultId the ID of the vault from which to withdraw the collateral.\n  **/\n  function withdrawAll(uint256 _vaultId) public override onlyVaultOwner(_vaultId) {\n    uint256 collateralBalance = a.vaultsData().vaultCollateralBalance(_vaultId);\n    withdraw(_vaultId, collateralBalance);\n  }\n\n  /**\n    Borrow new StableX (Eg: PAR) tokens from a vault.\n    @dev Only te owner of a vault can borrow from it.\n    `borrow()` will update the outstanding vault debt to the current time before attempting the withdrawal.\n     and will fail if it would bring the vault below the liquidation treshold.\n    @param _vaultId the ID of the vault from which to borrow.\n    @param _amount the amount of borrowed StableX tokens in WEI.\n  **/\n  function borrow(uint256 _vaultId, uint256 _amount) public override onlyVaultOwner(_vaultId) nonReentrant {\n    IVaultsDataProvider.Vault memory v = a.vaultsData().vaults(_vaultId);\n\n    //make sure current rate is up to date\n    refreshCollateral(v.collateralType);\n\n    uint256 originationFeePercentage = a.config().collateralOriginationFee(v.collateralType);\n    uint256 newDebt = _amount;\n    if (originationFeePercentage > 0) {\n      newDebt = newDebt.add(_amount.wadMul(originationFeePercentage));\n    }\n\n    // Increment vault borrow balance\n    uint256 newBaseDebt = a.ratesManager().calculateBaseDebt(newDebt, cumulativeRates[v.collateralType]);\n\n    a.vaultsData().setBaseDebt(_vaultId, v.baseDebt.add(newBaseDebt));\n\n    uint256 collateralValue = a.priceFeed().convertFrom(v.collateralType, v.collateralBalance);\n    uint256 newVaultDebt = a.vaultsData().vaultDebt(_vaultId);\n\n    require(a.vaultsData().collateralDebt(v.collateralType) <= a.config().collateralDebtLimit(v.collateralType));\n\n    bool isHealthy = ILiquidationManagerV1(address(a.liquidationManager())).isHealthy(\n      v.collateralType,\n      collateralValue,\n      newVaultDebt\n    );\n    require(isHealthy);\n\n    a.stablex().mint(msg.sender, _amount);\n    emit Borrowed(_vaultId, _amount, msg.sender);\n  }\n\n  /**\n    Convenience function to repay all debt of a vault\n    @dev `repayAll()` will update the outstanding vault debt to the current time.\n    @param _vaultId the ID of the vault for which to repay the debt.\n  **/\n  function repayAll(uint256 _vaultId) public override {\n    repay(_vaultId, 2**256 - 1);\n  }\n\n  /**\n    Repay an outstanding StableX balance to a vault.\n    @dev `repay()` will update the outstanding vault debt to the current time.\n    @param _vaultId the ID of the vault for which to repay the outstanding debt balance.\n    @param _amount the amount of StableX tokens in WEI to be repaid.\n  **/\n  function repay(uint256 _vaultId, uint256 _amount) public override nonReentrant {\n    address collateralType = a.vaultsData().vaultCollateralType(_vaultId);\n\n    // Make sure current rate is up to date\n    refreshCollateral(collateralType);\n\n    uint256 currentVaultDebt = a.vaultsData().vaultDebt(_vaultId);\n    // Decrement vault borrow balance\n    if (_amount >= currentVaultDebt) {\n      //full repayment\n      _amount = currentVaultDebt; //only pay back what's outstanding\n    }\n    _reduceVaultDebt(_vaultId, _amount);\n    a.stablex().burn(msg.sender, _amount);\n\n    emit Repaid(_vaultId, _amount, msg.sender);\n  }\n\n  /**\n    Internal helper function to reduce the debt of a vault.\n    @dev assumes cumulative rates for the vault's collateral type are up to date.\n    please call `refreshCollateral()` before calling this function.\n    @param _vaultId the ID of the vault for which to reduce the debt.\n    @param _amount the amount of debt to be reduced.\n  **/\n  function _reduceVaultDebt(uint256 _vaultId, uint256 _amount) internal {\n    address collateralType = a.vaultsData().vaultCollateralType(_vaultId);\n\n    uint256 currentVaultDebt = a.vaultsData().vaultDebt(_vaultId);\n    uint256 remainder = currentVaultDebt.sub(_amount);\n    uint256 cumulativeRate = cumulativeRates[collateralType];\n\n    if (remainder == 0) {\n      a.vaultsData().setBaseDebt(_vaultId, 0);\n    } else {\n      uint256 newBaseDebt = a.ratesManager().calculateBaseDebt(remainder, cumulativeRate);\n      a.vaultsData().setBaseDebt(_vaultId, newBaseDebt);\n    }\n  }\n\n  /**\n    Liquidate a vault that is below the liquidation treshold by repaying it's outstanding debt.\n    @dev `liquidate()` will update the outstanding vault debt to the current time and pay a `liquidationBonus`\n    to the liquidator. `liquidate()` can be called by anyone.\n    @param _vaultId the ID of the vault to be liquidated.\n  **/\n  function liquidate(uint256 _vaultId) public override nonReentrant {\n    IVaultsDataProvider.Vault memory v = a.vaultsData().vaults(_vaultId);\n\n    refreshCollateral(v.collateralType);\n\n    uint256 collateralValue = a.priceFeed().convertFrom(v.collateralType, v.collateralBalance);\n    uint256 currentVaultDebt = a.vaultsData().vaultDebt(_vaultId);\n\n    require(\n      !ILiquidationManagerV1(address(a.liquidationManager())).isHealthy(\n        v.collateralType,\n        collateralValue,\n        currentVaultDebt\n      )\n    );\n\n    uint256 discountedValue = ILiquidationManagerV1(address(a.liquidationManager())).applyLiquidationDiscount(\n      collateralValue\n    );\n    uint256 collateralToReceive;\n    uint256 stableXToPay = currentVaultDebt;\n\n    if (discountedValue < currentVaultDebt) {\n      //Insurance Case\n      uint256 insuranceAmount = currentVaultDebt.sub(discountedValue);\n      require(a.stablex().balanceOf(address(this)) >= insuranceAmount);\n      a.stablex().burn(address(this), insuranceAmount);\n      emit InsurancePaid(_vaultId, insuranceAmount, msg.sender);\n      collateralToReceive = v.collateralBalance;\n      stableXToPay = currentVaultDebt.sub(insuranceAmount);\n    } else {\n      collateralToReceive = a.priceFeed().convertTo(v.collateralType, currentVaultDebt);\n      collateralToReceive = collateralToReceive.add(\n        ILiquidationManagerV1(address(a.liquidationManager())).liquidationBonus(collateralToReceive)\n      );\n    }\n    // reduce the vault debt to 0\n    _reduceVaultDebt(_vaultId, currentVaultDebt);\n    a.stablex().burn(msg.sender, stableXToPay);\n\n    // send the collateral to the liquidator\n    a.vaultsData().setCollateralBalance(_vaultId, v.collateralBalance.sub(collateralToReceive));\n    IERC20 asset = IERC20(v.collateralType);\n    asset.safeTransfer(msg.sender, collateralToReceive);\n\n    emit Liquidated(_vaultId, stableXToPay, collateralToReceive, v.owner, msg.sender);\n  }\n}\n",
  "sourcePath": "/home/mingyue/sub_contract_content/Web3Bugs/contracts/115/core/contracts/v1/VaultsCoreV1.sol",
  "compiler": {
    "name": "solc",
    "version": "0.6.12+commit.27d51765.Emscripten.clang"
  },
  "schemaVersion": "3.4.7",
  "updatedAt": "2025-02-28T14:09:34.679Z",
  "devdoc": {
    "kind": "dev",
    "methods": {
      "availableIncome()": {
        "returns": {
          "_0": "available income that has not been minted yet.*"
        }
      },
      "borrow(uint256,uint256)": {
        "details": "Only te owner of a vault can borrow from it. `borrow()` will update the outstanding vault debt to the current time before attempting the withdrawal. and will fail if it would bring the vault below the liquidation treshold.",
        "params": {
          "_amount": "the amount of borrowed StableX tokens in WEI.*",
          "_vaultId": "the ID of the vault from which to borrow."
        }
      },
      "deposit(address,uint256)": {
        "details": "A new vault is created if no vault exists for the `msg.sender` with the specified collateral type. this function used `transferFrom()` and requires pre-approval via `approve()` on the ERC20.",
        "params": {
          "_amount": "the amount of tokens to be deposited in WEI.*",
          "_collateralType": "the address of the collateral type to be deposited"
        }
      },
      "initializeRates(address)": {
        "params": {
          "_collateralType": "the address of the new collateral type to be initialized*"
        }
      },
      "liquidate(uint256)": {
        "details": "`liquidate()` will update the outstanding vault debt to the current time and pay a `liquidationBonus` to the liquidator. `liquidate()` can be called by anyone.",
        "params": {
          "_vaultId": "the ID of the vault to be liquidated.*"
        }
      },
      "refreshCollateral(address)": {
        "details": "this updates the debt for all vaults with the specified collateral type.",
        "params": {
          "_collateralType": "the address of the collateral type to be refreshed.*"
        }
      },
      "repay(uint256,uint256)": {
        "details": "`repay()` will update the outstanding vault debt to the current time.",
        "params": {
          "_amount": "the amount of StableX tokens in WEI to be repaid.*",
          "_vaultId": "the ID of the vault for which to repay the outstanding debt balance."
        }
      },
      "repayAll(uint256)": {
        "details": "`repayAll()` will update the outstanding vault debt to the current time.",
        "params": {
          "_vaultId": "the ID of the vault for which to repay the debt.*"
        }
      },
      "withdraw(uint256,uint256)": {
        "details": "Only te owner of a vault can withdraw collateral from it. `withdraw()` will fail if it would bring the vault below the liquidation treshold.",
        "params": {
          "_amount": "the amount of ERC20 tokens to be withdrawn in WEI.*",
          "_vaultId": "the ID of the vault from which to withdraw the collateral."
        }
      },
      "withdrawAll(uint256)": {
        "details": "Only te owner of a vault can withdraw collateral from it. `withdrawAll()` will fail if the vault has any outstanding debt attached to it.",
        "params": {
          "_vaultId": "the ID of the vault from which to withdraw the collateral.*"
        }
      }
    },
    "version": 1
  },
  "userdoc": {
    "kind": "user",
    "methods": {
      "availableIncome()": {
        "notice": "Calculate the available income"
      },
      "borrow(uint256,uint256)": {
        "notice": "Borrow new StableX (Eg: PAR) tokens from a vault."
      },
      "deposit(address,uint256)": {
        "notice": "Deposit an ERC20 token into the vault of the msg.sender as collateral"
      },
      "initializeRates(address)": {
        "notice": "Initialize the cumulative rates to 1 for a new collateral type."
      },
      "liquidate(uint256)": {
        "notice": "Liquidate a vault that is below the liquidation treshold by repaying it's outstanding debt."
      },
      "refresh()": {
        "notice": "Refresh the cumulative rates and debts of all vaults and all collateral types.*"
      },
      "refreshCollateral(address)": {
        "notice": "Refresh the cumulative rate of a collateraltype."
      },
      "repay(uint256,uint256)": {
        "notice": "Repay an outstanding StableX balance to a vault."
      },
      "repayAll(uint256)": {
        "notice": "Convenience function to repay all debt of a vault"
      },
      "withdraw(uint256,uint256)": {
        "notice": "Withdraws ERC20 tokens from a vault."
      },
      "withdrawAll(uint256)": {
        "notice": "Convenience function to withdraw all collateral of a vault"
      }
    },
    "version": 1
  }
}