{
  "contractName": "VaultsCoreState",
  "abi": [
    {
      "inputs": [
        {
          "internalType": "contract IAddressProvider",
          "name": "_addresses",
          "type": "address"
        }
      ],
      "stateMutability": "nonpayable",
      "type": "constructor"
    },
    {
      "anonymous": false,
      "inputs": [
        {
          "indexed": true,
          "internalType": "address",
          "name": "collateralType",
          "type": "address"
        },
        {
          "indexed": false,
          "internalType": "uint256",
          "name": "elapsedTime",
          "type": "uint256"
        },
        {
          "indexed": false,
          "internalType": "uint256",
          "name": "newCumulativeRate",
          "type": "uint256"
        }
      ],
      "name": "CumulativeRateUpdated",
      "type": "event"
    },
    {
      "inputs": [],
      "name": "a",
      "outputs": [
        {
          "internalType": "contract IAddressProvider",
          "name": "",
          "type": "address"
        }
      ],
      "stateMutability": "view",
      "type": "function"
    },
    {
      "inputs": [
        {
          "internalType": "address",
          "name": "",
          "type": "address"
        }
      ],
      "name": "cumulativeRates",
      "outputs": [
        {
          "internalType": "uint256",
          "name": "",
          "type": "uint256"
        }
      ],
      "stateMutability": "view",
      "type": "function"
    },
    {
      "inputs": [
        {
          "internalType": "address",
          "name": "",
          "type": "address"
        }
      ],
      "name": "lastRefresh",
      "outputs": [
        {
          "internalType": "uint256",
          "name": "",
          "type": "uint256"
        }
      ],
      "stateMutability": "view",
      "type": "function"
    },
    {
      "inputs": [],
      "name": "synced",
      "outputs": [
        {
          "internalType": "bool",
          "name": "",
          "type": "bool"
        }
      ],
      "stateMutability": "view",
      "type": "function"
    },
    {
      "inputs": [],
      "name": "availableIncome",
      "outputs": [
        {
          "internalType": "uint256",
          "name": "",
          "type": "uint256"
        }
      ],
      "stateMutability": "view",
      "type": "function"
    },
    {
      "inputs": [],
      "name": "refresh",
      "outputs": [],
      "stateMutability": "nonpayable",
      "type": "function"
    },
    {
      "inputs": [
        {
          "internalType": "contract IVaultsCoreState",
          "name": "_stateAddress",
          "type": "address"
        }
      ],
      "name": "syncState",
      "outputs": [],
      "stateMutability": "nonpayable",
      "type": "function"
    },
    {
      "inputs": [
        {
          "internalType": "contract IVaultsCoreV1",
          "name": "_core",
          "type": "address"
        }
      ],
      "name": "syncStateFromV1",
      "outputs": [],
      "stateMutability": "nonpayable",
      "type": "function"
    },
    {
      "inputs": [
        {
          "internalType": "address",
          "name": "_collateralType",
          "type": "address"
        }
      ],
      "name": "initializeRates",
      "outputs": [],
      "stateMutability": "nonpayable",
      "type": "function"
    },
    {
      "inputs": [
        {
          "internalType": "address",
          "name": "_collateralType",
          "type": "address"
        }
      ],
      "name": "refreshCollateral",
      "outputs": [],
      "stateMutability": "nonpayable",
      "type": "function"
    }
  ],
  "bytecode": "0x60806040526000805460ff1916905534801561001a57600080fd5b5060405161182538038061182583398101604081905261003991610077565b6001600160a01b03811661004c57600080fd5b600080546001600160a01b0390921661010002610100600160a81b03199092169190911790556100a5565b600060208284031215610088578081fd5b81516001600160a01b038116811461009e578182fd5b9392505050565b611771806100b46000396000f3fe608060405234801561001057600080fd5b506004361061009e5760003560e01c8063ac65812811610066578063ac6581281461011e578063b718ee9414610131578063c9d6c0f814610139578063f8ac93e81461014c578063fe042ceb146101545761009e565b80630dbe671f146100a357806334e1d65b146100c15780635c2d1656146100d657806376b8de6a146100eb57806385d36cd7146100fe575b600080fd5b6100ab610167565b6040516100b8919061168c565b60405180910390f35b6100c961017b565b6040516100b891906116a0565b6100e96100e4366004611582565b610184565b005b6100e96100f9366004611582565b6106dd565b61011161010c366004611582565b6107d2565b6040516100b891906116f9565b6100e961012c366004611582565b6107e4565b610111610d2c565b610111610147366004611582565b610f28565b6100e9610f3a565b6100e9610162366004611582565b611154565b60005461010090046001600160a01b031681565b60005460ff1681565b600060019054906101000a90046001600160a01b03166001600160a01b031663f77c47916040518163ffffffff1660e01b815260040160206040518083038186803b1580156101d257600080fd5b505afa1580156101e6573d6000803e3d6000fd5b505050506040513d601f19601f8201168201806040525081019061020a91906115dd565b6001600160a01b03166391d14854600060019054906101000a90046001600160a01b03166001600160a01b031663f77c47916040518163ffffffff1660e01b815260040160206040518083038186803b15801561026657600080fd5b505afa15801561027a573d6000803e3d6000fd5b505050506040513d601f19601f8201168201806040525081019061029e91906115dd565b6001600160a01b031663ec87621c6040518163ffffffff1660e01b815260040160206040518083038186803b1580156102d657600080fd5b505afa1580156102ea573d6000803e3d6000fd5b505050506040513d601f19601f8201168201806040525081019061030e91906115c5565b336040518363ffffffff1660e01b815260040161032c9291906116ab565b60206040518083038186803b15801561034457600080fd5b505afa158015610358573d6000803e3d6000fd5b505050506040513d601f19601f8201168201806040525081019061037c91906115a5565b61038557600080fd5b60005460ff161561039557600080fd5b60015b600060019054906101000a90046001600160a01b03166001600160a01b03166379502c556040518163ffffffff1660e01b815260040160206040518083038186803b1580156103e657600080fd5b505afa1580156103fa573d6000803e3d6000fd5b505050506040513d601f19601f8201168201806040525081019061041e91906115dd565b6001600160a01b031663d47e470d6040518163ffffffff1660e01b815260040160206040518083038186803b15801561045657600080fd5b505afa15801561046a573d6000803e3d6000fd5b505050506040513d601f19601f8201168201806040525081019061048e91906115c5565b81116106cc5760008060019054906101000a90046001600160a01b03166001600160a01b03166379502c556040518163ffffffff1660e01b815260040160206040518083038186803b1580156104e357600080fd5b505afa1580156104f7573d6000803e3d6000fd5b505050506040513d601f19601f8201168201806040525081019061051b91906115dd565b6001600160a01b0316634a6e0dd0836040518263ffffffff1660e01b815260040161054691906116f9565b6101006040518083038186803b15801561055f57600080fd5b505afa158015610573573d6000803e3d6000fd5b505050506040513d601f19601f8201168201806040525081019061059791906115f9565b516040516385d36cd760e01b81529091506001600160a01b038416906385d36cd7906105c790849060040161168c565b60206040518083038186803b1580156105df57600080fd5b505afa1580156105f3573d6000803e3d6000fd5b505050506040513d601f19601f8201168201806040525081019061061791906115c5565b6001600160a01b038083166000908152600160205260409081902092909255905163193ad81f60e31b81529084169063c9d6c0f89061065a90849060040161168c565b60206040518083038186803b15801561067257600080fd5b505afa158015610686573d6000803e3d6000fd5b505050506040513d601f19601f820116820180604052508101906106aa91906115c5565b6001600160a01b03909116600090815260026020526040902055600101610398565b50506000805460ff19166001179055565b600060019054906101000a90046001600160a01b03166001600160a01b03166379502c556040518163ffffffff1660e01b815260040160206040518083038186803b15801561072b57600080fd5b505afa15801561073f573d6000803e3d6000fd5b505050506040513d601f19601f8201168201806040525081019061076391906115dd565b6001600160a01b0316336001600160a01b03161461078057600080fd5b6001600160a01b03811661079357600080fd5b6001600160a01b03811660009081526002602052604090204290556107b66112c1565b6001600160a01b03909116600090815260016020526040902055565b60016020526000908152604090205481565b600060019054906101000a90046001600160a01b03166001600160a01b031663f77c47916040518163ffffffff1660e01b815260040160206040518083038186803b15801561083257600080fd5b505afa158015610846573d6000803e3d6000fd5b505050506040513d601f19601f8201168201806040525081019061086a91906115dd565b6001600160a01b03166391d14854600060019054906101000a90046001600160a01b03166001600160a01b031663f77c47916040518163ffffffff1660e01b815260040160206040518083038186803b1580156108c657600080fd5b505afa1580156108da573d6000803e3d6000fd5b505050506040513d601f19601f820116820180604052508101906108fe91906115dd565b6001600160a01b031663ec87621c6040518163ffffffff1660e01b815260040160206040518083038186803b15801561093657600080fd5b505afa15801561094a573d6000803e3d6000fd5b505050506040513d601f19601f8201168201806040525081019061096e91906115c5565b336040518363ffffffff1660e01b815260040161098c9291906116ab565b60206040518083038186803b1580156109a457600080fd5b505afa1580156109b8573d6000803e3d6000fd5b505050506040513d601f19601f820116820180604052508101906109dc91906115a5565b6109e557600080fd5b60005460ff16156109f557600080fd5b60015b600060019054906101000a90046001600160a01b03166001600160a01b03166379502c556040518163ffffffff1660e01b815260040160206040518083038186803b158015610a4657600080fd5b505afa158015610a5a573d6000803e3d6000fd5b505050506040513d601f19601f82011682018060405250810190610a7e91906115dd565b6001600160a01b031663d47e470d6040518163ffffffff1660e01b815260040160206040518083038186803b158015610ab657600080fd5b505afa158015610aca573d6000803e3d6000fd5b505050506040513d601f19601f82011682018060405250810190610aee91906115c5565b81116106cc5760008060019054906101000a90046001600160a01b03166001600160a01b03166379502c556040518163ffffffff1660e01b815260040160206040518083038186803b158015610b4357600080fd5b505afa158015610b57573d6000803e3d6000fd5b505050506040513d601f19601f82011682018060405250810190610b7b91906115dd565b6001600160a01b0316634a6e0dd0836040518263ffffffff1660e01b8152600401610ba691906116f9565b6101006040518083038186803b158015610bbf57600080fd5b505afa158015610bd3573d6000803e3d6000fd5b505050506040513d601f19601f82011682018060405250810190610bf791906115f9565b516040516385d36cd760e01b81529091506001600160a01b038416906385d36cd790610c2790849060040161168c565b60206040518083038186803b158015610c3f57600080fd5b505afa158015610c53573d6000803e3d6000fd5b505050506040513d601f19601f82011682018060405250810190610c7791906115c5565b6001600160a01b038083166000908152600160205260409081902092909255905163193ad81f60e31b81529084169063c9d6c0f890610cba90849060040161168c565b60206040518083038186803b158015610cd257600080fd5b505afa158015610ce6573d6000803e3d6000fd5b505050506040513d601f19601f82011682018060405250810190610d0a91906115c5565b6001600160a01b039091166000908152600260205260409020556001016109f8565b6000610f23600060019054906101000a90046001600160a01b03166001600160a01b03166316d8a5a96040518163ffffffff1660e01b815260040160206040518083038186803b158015610d7f57600080fd5b505afa158015610d93573d6000803e3d6000fd5b505050506040513d601f19601f82011682018060405250810190610db791906115dd565b6001600160a01b03166318160ddd6040518163ffffffff1660e01b815260040160206040518083038186803b158015610def57600080fd5b505afa158015610e03573d6000803e3d6000fd5b505050506040513d601f19601f82011682018060405250810190610e2791906115c5565b600060019054906101000a90046001600160a01b03166001600160a01b03166365d552876040518163ffffffff1660e01b815260040160206040518083038186803b158015610e7557600080fd5b505afa158015610e89573d6000803e3d6000fd5b505050506040513d601f19601f82011682018060405250810190610ead91906115dd565b6001600160a01b0316630dca59c16040518163ffffffff1660e01b815260040160206040518083038186803b158015610ee557600080fd5b505afa158015610ef9573d6000803e3d6000fd5b505050506040513d601f19601f82011682018060405250810190610f1d91906115c5565b906112d1565b905090565b60026020526000908152604090205481565b60015b600060019054906101000a90046001600160a01b03166001600160a01b03166379502c556040518163ffffffff1660e01b815260040160206040518083038186803b158015610f8b57600080fd5b505afa158015610f9f573d6000803e3d6000fd5b505050506040513d601f19601f82011682018060405250810190610fc391906115dd565b6001600160a01b031663d47e470d6040518163ffffffff1660e01b815260040160206040518083038186803b158015610ffb57600080fd5b505afa15801561100f573d6000803e3d6000fd5b505050506040513d601f19601f8201168201806040525081019061103391906115c5565b81116111515760008060019054906101000a90046001600160a01b03166001600160a01b03166379502c556040518163ffffffff1660e01b815260040160206040518083038186803b15801561108857600080fd5b505afa15801561109c573d6000803e3d6000fd5b505050506040513d601f19601f820116820180604052508101906110c091906115dd565b6001600160a01b0316634a6e0dd0836040518263ffffffff1660e01b81526004016110eb91906116f9565b6101006040518083038186803b15801561110457600080fd5b505afa158015611118573d6000803e3d6000fd5b505050506040513d601f19601f8201168201806040525081019061113c91906115f9565b51905061114881611154565b50600101610f3d565b50565b6001600160a01b03811661116757600080fd5b600060019054906101000a90046001600160a01b03166001600160a01b03166379502c556040518163ffffffff1660e01b815260040160206040518083038186803b1580156111b557600080fd5b505afa1580156111c9573d6000803e3d6000fd5b505050506040513d601f19601f820116820180604052508101906111ed91906115dd565b6001600160a01b031663db67c4d5826040518263ffffffff1660e01b8152600401611218919061168c565b60206040518083038186803b15801561123057600080fd5b505afa158015611244573d6000803e3d6000fd5b505050506040513d601f19601f8201168201806040525081019061126891906115c5565b61127157600080fd5b6001600160a01b0381166000908152600260205260408120544291906112989083906112d1565b90506112a48382611307565b506001600160a01b03909116600090815260026020526040902055565b6b033b2e3c9fd0803ce800000090565b6000828211156112fc5760405162461bcd60e51b81526004016112f3906116c2565b60405180910390fd5b508082035b92915050565b60008060019054906101000a90046001600160a01b03166001600160a01b03166379502c556040518163ffffffff1660e01b815260040160206040518083038186803b15801561135657600080fd5b505afa15801561136a573d6000803e3d6000fd5b505050506040513d601f19601f8201168201806040525081019061138e91906115dd565b6001600160a01b031663e4ea33ef846040518263ffffffff1660e01b81526004016113b9919061168c565b60206040518083038186803b1580156113d157600080fd5b505afa1580156113e5573d6000803e3d6000fd5b505050506040513d601f19601f8201168201806040525081019061140991906115c5565b6001600160a01b038085166000908152600160209081526040808320549254815163b8091c5b60e01b8152915195965092946101009093049093169263b8091c5b9260048083019392829003018186803b15801561146657600080fd5b505afa15801561147a573d6000803e3d6000fd5b505050506040513d601f19601f8201168201806040525081019061149e91906115dd565b6001600160a01b031663e7b5e7bd8383866040518463ffffffff1660e01b81526004016114cd93929190611710565b60206040518083038186803b1580156114e557600080fd5b505afa1580156114f9573d6000803e3d6000fd5b505050506040513d601f19601f8201168201806040525081019061151d91906115c5565b6001600160a01b038516600081815260016020526040908190208390555190917e8d79dfe2ff68111aa3d402375f53b30613efb53f7b045a1e739a94468d15e091611569918791611702565b60405180910390a250505050565b805161130181611726565b600060208284031215611593578081fd5b813561159e81611726565b9392505050565b6000602082840312156115b6578081fd5b8151801515811461159e578182fd5b6000602082840312156115d6578081fd5b5051919050565b6000602082840312156115ee578081fd5b815161159e81611726565b600061010080838503121561160c578182fd5b6040519081019067ffffffffffffffff8211818310171561162b578283fd5b816040526116398585611577565b81526020840151602082015260408401516040820152606084015160608201526080840151608082015260a084015160a082015260c084015160c082015260e084015160e0820152809250505092915050565b6001600160a01b0391909116815260200190565b901515815260200190565b9182526001600160a01b0316602082015260400190565b6020808252601e908201527f536166654d6174683a207375627472616374696f6e206f766572666c6f770000604082015260600190565b90815260200190565b918252602082015260400190565b9283526020830191909152604082015260600190565b6001600160a01b038116811461115157600080fdfea264697066735822122049fc459366758874bba34d257d51672aad624ddbc3df318cf3e8d20ae022523c64736f6c634300060c0033",
  "immutableReferences": {},
  "source": "// SPDX-License-Identifier: MIT\n\npragma experimental ABIEncoderV2;\npragma solidity 0.6.12;\n\nimport \"@openzeppelin/contracts/utils/ReentrancyGuard.sol\";\nimport \"@openzeppelin/contracts/math/SafeMath.sol\";\n\nimport \"../libraries/WadRayMath.sol\";\nimport \"../interfaces/IAddressProvider.sol\";\nimport \"../interfaces/IVaultsCoreState.sol\";\nimport \"../v1/interfaces/IVaultsCoreV1.sol\";\n\ncontract VaultsCoreState is IVaultsCoreState {\n  using SafeMath for uint256;\n  using WadRayMath for uint256;\n\n  uint256 internal constant _MAX_INT = 2**256 - 1;\n\n  bool public override synced = false;\n  IAddressProvider public override a;\n\n  mapping(address => uint256) public override cumulativeRates;\n  mapping(address => uint256) public override lastRefresh;\n\n  modifier onlyConfig() {\n    require(msg.sender == address(a.config()));\n    _;\n  }\n\n  modifier onlyManager() {\n    require(a.controller().hasRole(a.controller().MANAGER_ROLE(), msg.sender));\n    _;\n  }\n\n  modifier notSynced() {\n    require(!synced);\n    _;\n  }\n\n  constructor(IAddressProvider _addresses) public {\n    require(address(_addresses) != address(0));\n    a = _addresses;\n  }\n\n  /**\n    Calculate the available income\n    @return available income that has not been minted yet.\n  **/\n  function availableIncome() public view override returns (uint256) {\n    return a.vaultsData().debt().sub(a.stablex().totalSupply());\n  }\n\n  /**\n    Refresh the cumulative rates and debts of all vaults and all collateral types.\n    @dev anyone can call this.\n  **/\n  function refresh() public override {\n    for (uint256 i = 1; i <= a.config().numCollateralConfigs(); i++) {\n      address collateralType = a.config().collateralConfigs(i).collateralType;\n      refreshCollateral(collateralType);\n    }\n  }\n\n  /**\n    Sync state with another instance. This is used during version upgrade to keep V2 in sync with V2.\n    @dev This call will read the state via\n      `cumulativeRates(address collateralType)` and `lastRefresh(address collateralType)`.\n    @param _stateAddress address from which the state is to be copied.\n  **/\n  function syncState(IVaultsCoreState _stateAddress) public override onlyManager notSynced {\n    for (uint256 i = 1; i <= a.config().numCollateralConfigs(); i++) {\n      address collateralType = a.config().collateralConfigs(i).collateralType;\n      cumulativeRates[collateralType] = _stateAddress.cumulativeRates(collateralType);\n      lastRefresh[collateralType] = _stateAddress.lastRefresh(collateralType);\n    }\n    synced = true;\n  }\n\n  /**\n    Sync state with v1 core. This is used during version upgrade to keep V2 in sync with V1.\n    @dev This call will read the state via\n      `cumulativeRates(address collateralType)` and `lastRefresh(address collateralType)`.\n    @param _core address of core v1 from which the state is to be copied.\n  **/\n  function syncStateFromV1(IVaultsCoreV1 _core) public override onlyManager notSynced {\n    for (uint256 i = 1; i <= a.config().numCollateralConfigs(); i++) {\n      address collateralType = a.config().collateralConfigs(i).collateralType;\n      cumulativeRates[collateralType] = _core.cumulativeRates(collateralType);\n      lastRefresh[collateralType] = _core.lastRefresh(collateralType);\n    }\n    synced = true;\n  }\n\n  /**\n    Initialize the cumulative rates to 1 for a new collateral type.\n    @param _collateralType the address of the new collateral type to be initialized\n  **/\n  function initializeRates(address _collateralType) public override onlyConfig {\n    require(_collateralType != address(0));\n    lastRefresh[_collateralType] = block.timestamp;\n    cumulativeRates[_collateralType] = WadRayMath.ray();\n  }\n\n  /**\n    Refresh the cumulative rate of a collateraltype.\n    @dev this updates the debt for all vaults with the specified collateral type.\n    @param _collateralType the address of the collateral type to be refreshed.\n  **/\n  function refreshCollateral(address _collateralType) public override {\n    require(_collateralType != address(0));\n    require(a.config().collateralIds(_collateralType) != 0);\n    uint256 timestamp = block.timestamp;\n    uint256 timeElapsed = timestamp.sub(lastRefresh[_collateralType]);\n    _refreshCumulativeRate(_collateralType, timeElapsed);\n    lastRefresh[_collateralType] = timestamp;\n  }\n\n  /**\n    Internal function to increase the cumulative rate over a specified time period\n    @dev this updates the debt for all vaults with the specified collateral type.\n    @param _collateralType the address of the collateral type to be updated\n    @param _timeElapsed the amount of time in seconds to add to the cumulative rate\n  **/\n  function _refreshCumulativeRate(address _collateralType, uint256 _timeElapsed) internal {\n    uint256 borrowRate = a.config().collateralBorrowRate(_collateralType);\n    uint256 oldCumulativeRate = cumulativeRates[_collateralType];\n    cumulativeRates[_collateralType] = a.ratesManager().calculateCumulativeRate(\n      borrowRate,\n      oldCumulativeRate,\n      _timeElapsed\n    );\n    emit CumulativeRateUpdated(_collateralType, _timeElapsed, cumulativeRates[_collateralType]);\n  }\n}\n",
  "sourcePath": "/home/mingyue/sub_contract_content/Web3Bugs/contracts/115/core/contracts/core/VaultsCoreState.sol",
  "compiler": {
    "name": "solc",
    "version": "0.6.12+commit.27d51765.Emscripten.clang"
  },
  "schemaVersion": "3.4.7",
  "updatedAt": "2025-02-28T14:09:34.606Z",
  "devdoc": {
    "kind": "dev",
    "methods": {
      "availableIncome()": {
        "returns": {
          "_0": "available income that has not been minted yet.*"
        }
      },
      "initializeRates(address)": {
        "params": {
          "_collateralType": "the address of the new collateral type to be initialized*"
        }
      },
      "refresh()": {
        "details": "anyone can call this.*"
      },
      "refreshCollateral(address)": {
        "details": "this updates the debt for all vaults with the specified collateral type.",
        "params": {
          "_collateralType": "the address of the collateral type to be refreshed.*"
        }
      },
      "syncState(address)": {
        "details": "This call will read the state via `cumulativeRates(address collateralType)` and `lastRefresh(address collateralType)`.",
        "params": {
          "_stateAddress": "address from which the state is to be copied.*"
        }
      },
      "syncStateFromV1(address)": {
        "details": "This call will read the state via `cumulativeRates(address collateralType)` and `lastRefresh(address collateralType)`.",
        "params": {
          "_core": "address of core v1 from which the state is to be copied.*"
        }
      }
    },
    "version": 1
  },
  "userdoc": {
    "kind": "user",
    "methods": {
      "availableIncome()": {
        "notice": "Calculate the available income"
      },
      "initializeRates(address)": {
        "notice": "Initialize the cumulative rates to 1 for a new collateral type."
      },
      "refresh()": {
        "notice": "Refresh the cumulative rates and debts of all vaults and all collateral types."
      },
      "refreshCollateral(address)": {
        "notice": "Refresh the cumulative rate of a collateraltype."
      },
      "syncState(address)": {
        "notice": "Sync state with another instance. This is used during version upgrade to keep V2 in sync with V2."
      },
      "syncStateFromV1(address)": {
        "notice": "Sync state with v1 core. This is used during version upgrade to keep V2 in sync with V1."
      }
    },
    "version": 1
  }
}