{
  "contractName": "VotingEscrow",
  "abi": [
    {
      "inputs": [
        {
          "internalType": "contract IERC20",
          "name": "_stakingToken",
          "type": "address"
        },
        {
          "internalType": "contract IGovernanceAddressProvider",
          "name": "_a",
          "type": "address"
        },
        {
          "internalType": "contract IGenericMiner",
          "name": "_miner",
          "type": "address"
        },
        {
          "internalType": "string",
          "name": "_name",
          "type": "string"
        },
        {
          "internalType": "string",
          "name": "_symbol",
          "type": "string"
        }
      ],
      "stateMutability": "nonpayable",
      "type": "constructor"
    },
    {
      "anonymous": false,
      "inputs": [
        {
          "indexed": true,
          "internalType": "address",
          "name": "provider",
          "type": "address"
        },
        {
          "indexed": false,
          "internalType": "uint256",
          "name": "value",
          "type": "uint256"
        },
        {
          "indexed": false,
          "internalType": "uint256",
          "name": "locktime",
          "type": "uint256"
        },
        {
          "indexed": true,
          "internalType": "enum IVotingEscrow.LockAction",
          "name": "action",
          "type": "uint8"
        },
        {
          "indexed": false,
          "internalType": "uint256",
          "name": "ts",
          "type": "uint256"
        }
      ],
      "name": "Deposit",
      "type": "event"
    },
    {
      "anonymous": false,
      "inputs": [],
      "name": "Expired",
      "type": "event"
    },
    {
      "anonymous": false,
      "inputs": [
        {
          "indexed": true,
          "internalType": "address",
          "name": "provider",
          "type": "address"
        },
        {
          "indexed": false,
          "internalType": "uint256",
          "name": "value",
          "type": "uint256"
        },
        {
          "indexed": false,
          "internalType": "uint256",
          "name": "ts",
          "type": "uint256"
        }
      ],
      "name": "Withdraw",
      "type": "event"
    },
    {
      "inputs": [],
      "name": "MAXTIME",
      "outputs": [
        {
          "internalType": "uint256",
          "name": "",
          "type": "uint256"
        }
      ],
      "stateMutability": "view",
      "type": "function"
    },
    {
      "inputs": [],
      "name": "a",
      "outputs": [
        {
          "internalType": "contract IGovernanceAddressProvider",
          "name": "",
          "type": "address"
        }
      ],
      "stateMutability": "view",
      "type": "function"
    },
    {
      "inputs": [],
      "name": "decimals",
      "outputs": [
        {
          "internalType": "uint256",
          "name": "",
          "type": "uint256"
        }
      ],
      "stateMutability": "view",
      "type": "function"
    },
    {
      "inputs": [],
      "name": "expired",
      "outputs": [
        {
          "internalType": "bool",
          "name": "",
          "type": "bool"
        }
      ],
      "stateMutability": "view",
      "type": "function"
    },
    {
      "inputs": [
        {
          "internalType": "address",
          "name": "",
          "type": "address"
        }
      ],
      "name": "locked",
      "outputs": [
        {
          "internalType": "uint256",
          "name": "amount",
          "type": "uint256"
        },
        {
          "internalType": "uint256",
          "name": "end",
          "type": "uint256"
        }
      ],
      "stateMutability": "view",
      "type": "function"
    },
    {
      "inputs": [],
      "name": "miner",
      "outputs": [
        {
          "internalType": "contract IGenericMiner",
          "name": "",
          "type": "address"
        }
      ],
      "stateMutability": "view",
      "type": "function"
    },
    {
      "inputs": [],
      "name": "minimumLockTime",
      "outputs": [
        {
          "internalType": "uint256",
          "name": "",
          "type": "uint256"
        }
      ],
      "stateMutability": "view",
      "type": "function"
    },
    {
      "inputs": [],
      "name": "name",
      "outputs": [
        {
          "internalType": "string",
          "name": "",
          "type": "string"
        }
      ],
      "stateMutability": "view",
      "type": "function"
    },
    {
      "inputs": [],
      "name": "stakingToken",
      "outputs": [
        {
          "internalType": "contract IERC20",
          "name": "",
          "type": "address"
        }
      ],
      "stateMutability": "view",
      "type": "function"
    },
    {
      "inputs": [],
      "name": "symbol",
      "outputs": [
        {
          "internalType": "string",
          "name": "",
          "type": "string"
        }
      ],
      "stateMutability": "view",
      "type": "function"
    },
    {
      "inputs": [
        {
          "internalType": "uint256",
          "name": "_value",
          "type": "uint256"
        },
        {
          "internalType": "uint256",
          "name": "_unlockTime",
          "type": "uint256"
        }
      ],
      "name": "createLock",
      "outputs": [],
      "stateMutability": "nonpayable",
      "type": "function"
    },
    {
      "inputs": [
        {
          "internalType": "uint256",
          "name": "_value",
          "type": "uint256"
        }
      ],
      "name": "increaseLockAmount",
      "outputs": [],
      "stateMutability": "nonpayable",
      "type": "function"
    },
    {
      "inputs": [
        {
          "internalType": "uint256",
          "name": "_unlockTime",
          "type": "uint256"
        }
      ],
      "name": "increaseLockLength",
      "outputs": [],
      "stateMutability": "nonpayable",
      "type": "function"
    },
    {
      "inputs": [],
      "name": "withdraw",
      "outputs": [],
      "stateMutability": "nonpayable",
      "type": "function"
    },
    {
      "inputs": [],
      "name": "expireContract",
      "outputs": [],
      "stateMutability": "nonpayable",
      "type": "function"
    },
    {
      "inputs": [
        {
          "internalType": "contract IGenericMiner",
          "name": "_miner",
          "type": "address"
        }
      ],
      "name": "setMiner",
      "outputs": [],
      "stateMutability": "nonpayable",
      "type": "function"
    },
    {
      "inputs": [
        {
          "internalType": "uint256",
          "name": "_minimumLockTime",
          "type": "uint256"
        }
      ],
      "name": "setMinimumLockTime",
      "outputs": [],
      "stateMutability": "nonpayable",
      "type": "function"
    },
    {
      "inputs": [
        {
          "internalType": "address",
          "name": "_owner",
          "type": "address"
        }
      ],
      "name": "balanceOf",
      "outputs": [
        {
          "internalType": "uint256",
          "name": "",
          "type": "uint256"
        }
      ],
      "stateMutability": "view",
      "type": "function"
    },
    {
      "inputs": [
        {
          "internalType": "address",
          "name": "_owner",
          "type": "address"
        },
        {
          "internalType": "uint256",
          "name": "_blockTime",
          "type": "uint256"
        }
      ],
      "name": "balanceOfAt",
      "outputs": [
        {
          "internalType": "uint256",
          "name": "",
          "type": "uint256"
        }
      ],
      "stateMutability": "view",
      "type": "function"
    }
  ],
  "bytecode": "0x6080604052620151806001556002805460ff191690553480156200002257600080fd5b5060405162001f2c38038062001f2c83398101604081905262000045916200024f565b60016000556001600160a01b0385166200005e57600080fd5b6001600160a01b0384166200007257600080fd5b6001600160a01b0383166200008657600080fd5b600280546001600160a01b0380881661010002610100600160a81b031990921691909117909155600680548683166001600160a01b03199182161790915560078054928616929091169190911790558151620000ea9060049060208501906200010c565b508051620001009060059060208401906200010c565b50505050505062000310565b828054600181600116156101000203166002900490600052602060002090601f016020900481019282601f106200014f57805160ff19168380011785556200017f565b828001600101855582156200017f579182015b828111156200017f57825182559160200191906001019062000162565b506200018d92915062000191565b5090565b5b808211156200018d576000815560010162000192565b600082601f830112620001b9578081fd5b81516001600160401b0380821115620001d0578283fd5b6040516020601f8401601f1916820181018381118382101715620001f2578586fd5b806040525081945083825286818588010111156200020f57600080fd5b600092505b8383101562000233578583018101518284018201529182019162000214565b83831115620002455760008185840101525b5050505092915050565b600080600080600060a0868803121562000267578081fd5b85516200027481620002f7565b60208701519095506200028781620002f7565b60408701519094506200029a81620002f7565b60608701519093506001600160401b0380821115620002b7578283fd5b620002c589838a01620001a8565b93506080880151915080821115620002db578283fd5b50620002ea88828901620001a8565b9150509295509295909350565b6001600160a01b03811681146200030d57600080fd5b50565b611c0c80620003206000396000f3fe608060405234801561001057600080fd5b50600436106101215760003560e01c806363160282116100ad5780639742ca46116100715780639742ca461461020c578063b52c05fe1461021f578063cbf9fe5f14610232578063ed6d0c5b14610253578063ee00ef3a1461025b57610121565b806363160282146101c3578063645be221146101d657806370a08231146101e957806372f702f3146101fc57806395d89b411461020457610121565b8063349dc329116100f4578063349dc329146101785780633ccfd60b14610180578063403f4447146101885780634c2067c71461019b5780634ee2cd7e146101b057610121565b806306fdde03146101265780630dbe671f146101445780630f73d0b414610159578063313ce56714610163575b600080fd5b61012e610263565b60405161013b9190611638565b60405180910390f35b61014c6102f1565b60405161013b91906115c5565b610161610300565b005b61016b610578565b60405161013b9190611b65565b61014c61057d565b61016161058c565b610161610196366004611570565b610597565b6101a361068f565b60405161013b9190611616565b61016b6101be3660046114f1565b610698565b6101616101d1366004611570565b610753565b6101616101e4366004611570565b610878565b61016b6101f73660046114d5565b610ab4565b61014c610ac0565b61012e610ad4565b61016161021a3660046114d5565b610b2f565b61016161022d366004611588565b610d88565b6102456102403660046114d5565b610ea7565b60405161013b929190611b6e565b61016b610ec0565b61016b610ec6565b6004805460408051602060026001851615610100026000190190941693909304601f810184900484028201840190925281815292918301828280156102e95780601f106102be576101008083540402835291602001916102e9565b820191906000526020600020905b8154815290600101906020018083116102cc57829003601f168201915b505050505081565b6006546001600160a01b031681565b600660009054906101000a90046001600160a01b03166001600160a01b031663f77c47916040518163ffffffff1660e01b815260040160206040518083038186803b15801561034e57600080fd5b505afa158015610362573d6000803e3d6000fd5b505050506040513d601f19601f820116820180604052508101906103869190611554565b6001600160a01b03166391d14854600660009054906101000a90046001600160a01b03166001600160a01b031663f77c47916040518163ffffffff1660e01b815260040160206040518083038186803b1580156103e257600080fd5b505afa1580156103f6573d6000803e3d6000fd5b505050506040513d601f19601f8201168201806040525081019061041a9190611554565b6001600160a01b031663ec87621c6040518163ffffffff1660e01b815260040160206040518083038186803b15801561045257600080fd5b505afa158015610466573d6000803e3d6000fd5b505050506040513d601f19601f8201168201806040525081019061048a919061153c565b336040518363ffffffff1660e01b81526004016104a8929190611621565b60206040518083038186803b1580156104c057600080fd5b505afa1580156104d4573d6000803e3d6000fd5b505050506040513d601f19601f820116820180604052508101906104f8919061151c565b61051d5760405162461bcd60e51b8152600401610514906118d8565b60405180910390fd5b60025460ff16156105405760405162461bcd60e51b8152600401610514906117d1565b6002805460ff191660011790556040517f203d82d8d99f63bfecc8335216735e0271df4249ea752b030f9ab305b94e5afe90600090a1565b601281565b6007546001600160a01b031681565b61059533610ece565b565b600260005414156105ba5760405162461bcd60e51b815260040161051490611a73565b600260008190555460ff16156105e25760405162461bcd60e51b8152600401610514906117d1565b6105ea6114bb565b5060408051808201825233600081815260036020818152948220805485529290915283526001015491810191909152816106365760405162461bcd60e51b8152600401610514906118a1565b80516106545760405162461bcd60e51b81526004016105149061197b565b428160200151116106775760405162461bcd60e51b8152600401610514906116a2565b6106863383600084600161108c565b50506001600055565b60025460ff1681565b6000428210156106ba5760405162461bcd60e51b8152600401610514906119e2565b6106c26114bb565b506001600160a01b03831660009081526003602090815260409182902082518084019093528054835260010154908201819052831061070557600091505061074d565b602081015160009061071790856111d3565b9050630784ce0081111561072c5750630784ce005b815161074890630784ce009061074290846111fb565b9061123c565b925050505b92915050565b600260005414156107765760405162461bcd60e51b815260040161051490611a73565b600260008190555460ff161561079e5760405162461bcd60e51b8152600401610514906117d1565b6107a66114bb565b506040805180820182523360008181526003602081815294822080548552929091528352600101549181019190915280516107f35760405162461bcd60e51b8152600401610514906117fe565b428160200151116108165760405162461bcd60e51b815260040161051490611955565b806020015182116108395760405162461bcd60e51b81526004016105149061166b565b600154602082015161084c9084906111d3565b116108695760405162461bcd60e51b815260040161051490611aaa565b6106863360008484600261108c565b600660009054906101000a90046001600160a01b03166001600160a01b031663f77c47916040518163ffffffff1660e01b815260040160206040518083038186803b1580156108c657600080fd5b505afa1580156108da573d6000803e3d6000fd5b505050506040513d601f19601f820116820180604052508101906108fe9190611554565b6001600160a01b03166391d14854600660009054906101000a90046001600160a01b03166001600160a01b031663f77c47916040518163ffffffff1660e01b815260040160206040518083038186803b15801561095a57600080fd5b505afa15801561096e573d6000803e3d6000fd5b505050506040513d601f19601f820116820180604052508101906109929190611554565b6001600160a01b031663ec87621c6040518163ffffffff1660e01b815260040160206040518083038186803b1580156109ca57600080fd5b505afa1580156109de573d6000803e3d6000fd5b505050506040513d601f19601f82011682018060405250810190610a02919061153c565b336040518363ffffffff1660e01b8152600401610a20929190611621565b60206040518083038186803b158015610a3857600080fd5b505afa158015610a4c573d6000803e3d6000fd5b505050506040513d601f19601f82011682018060405250810190610a70919061151c565b610a8c5760405162461bcd60e51b8152600401610514906118d8565b60025460ff1615610aaf5760405162461bcd60e51b8152600401610514906117d1565b600155565b600061074d8242610698565b60025461010090046001600160a01b031681565b6005805460408051602060026001851615610100026000190190941693909304601f810184900484028201840190925281815292918301828280156102e95780601f106102be576101008083540402835291602001916102e9565b600660009054906101000a90046001600160a01b03166001600160a01b031663f77c47916040518163ffffffff1660e01b815260040160206040518083038186803b158015610b7d57600080fd5b505afa158015610b91573d6000803e3d6000fd5b505050506040513d601f19601f82011682018060405250810190610bb59190611554565b6001600160a01b03166391d14854600660009054906101000a90046001600160a01b03166001600160a01b031663f77c47916040518163ffffffff1660e01b815260040160206040518083038186803b158015610c1157600080fd5b505afa158015610c25573d6000803e3d6000fd5b505050506040513d601f19601f82011682018060405250810190610c499190611554565b6001600160a01b031663ec87621c6040518163ffffffff1660e01b815260040160206040518083038186803b158015610c8157600080fd5b505afa158015610c95573d6000803e3d6000fd5b505050506040513d601f19601f82011682018060405250810190610cb9919061153c565b336040518363ffffffff1660e01b8152600401610cd7929190611621565b60206040518083038186803b158015610cef57600080fd5b505afa158015610d03573d6000803e3d6000fd5b505050506040513d601f19601f82011682018060405250810190610d27919061151c565b610d435760405162461bcd60e51b8152600401610514906118d8565b60025460ff1615610d665760405162461bcd60e51b8152600401610514906117d1565b600780546001600160a01b0319166001600160a01b0392909216919091179055565b60026000541415610dab5760405162461bcd60e51b815260040161051490611a73565b600260008190555460ff1615610dd35760405162461bcd60e51b8152600401610514906117d1565b610ddb6114bb565b506040805180820182523360008181526003602081815294822080548552929091528352600101549181019190915282610e275760405162461bcd60e51b8152600401610514906118a1565b805115610e465760405162461bcd60e51b81526004016105149061186a565b428211610e655760405162461bcd60e51b81526004016105149061190f565b600154610e7283426111d3565b11610e8f5760405162461bcd60e51b815260040161051490611aaa565b610e9d33848484600061108c565b5050600160005550565b6003602052600090815260409020805460019091015482565b60015481565b630784ce0081565b60026000541415610ef15760405162461bcd60e51b815260040161051490611a73565b6002600055610efe6114bb565b506040805180820182526001600160a01b03831660008181526003602081815294822080548552929091528352600101549181018290529042101580610f46575060025460ff165b610f625760405162461bcd60e51b815260040161051490611afe565b8051610f805760405162461bcd60e51b815260040161051490611b2e565b8051610f8a6114bb565b50604080518082018252600080825260208083018281526001600160a01b0380891684526003909252939091208251815592516001909301929092556002549091610fdc91610100900416858461126e565b6007546040516330769c8560e11b81526001600160a01b03909116906360ed390a9061100c9087906004016115c5565b600060405180830381600087803b15801561102657600080fd5b505af115801561103a573d6000803e3d6000fd5b50505050836001600160a01b03167ff279e6a1f5e320cca91135676d9cb6e44ca8a08c0b88342bcdb1144f6511b5688342604051611079929190611b6e565b60405180910390a2505060016000555050565b6110946114bb565b50604080518082019091528251808252602080850151908301526110b890866112c9565b815283156110c857602081018490525b6001600160a01b038616600090815260036020908152604090912082518155908201516001909101558415611114576002546111149061010090046001600160a01b03168730886112ee565b6007546040516330769c8560e11b81526001600160a01b03909116906360ed390a906111449089906004016115c5565b600060405180830381600087803b15801561115e57600080fd5b505af1158015611172573d6000803e3d6000fd5b5050505081600281111561118257fe5b866001600160a01b03167fbe9cf0e939c614fad640a623a53ba0a807c8cb503c4c4c8dacabe27b86ff2dd5878460200151426040516111c393929190611b7c565b60405180910390a3505050505050565b6000828211156111f55760405162461bcd60e51b81526004016105149061171d565b50900390565b60008261120a5750600061074d565b8282028284828161121757fe5b04146112355760405162461bcd60e51b815260040161051490611829565b9392505050565b600080821161125d5760405162461bcd60e51b81526004016105149061179a565b81838161126657fe5b049392505050565b6112c48363a9059cbb60e01b848460405160240161128d9291906115fd565b60408051601f198184030181529190526020810180516001600160e01b03166001600160e01b031990931692909217909152611315565b505050565b6000828201838110156112355760405162461bcd60e51b8152600401610514906116e6565b61130f846323b872dd60e01b85858560405160240161128d939291906115d9565b50505050565b606061136a826040518060400160405280602081526020017f5361666545524332303a206c6f772d6c6576656c2063616c6c206661696c6564815250856001600160a01b03166113a49092919063ffffffff16565b8051909150156112c45780806020019051810190611388919061151c565b6112c45760405162461bcd60e51b815260040161051490611a29565b60606113b384846000856113bb565b949350505050565b6060824710156113dd5760405162461bcd60e51b815260040161051490611754565b6113e68561147c565b6114025760405162461bcd60e51b8152600401610514906119ab565b60006060866001600160a01b0316858760405161141f91906115a9565b60006040518083038185875af1925050503d806000811461145c576040519150601f19603f3d011682016040523d82523d6000602084013e611461565b606091505b5091509150611471828286611482565b979650505050505050565b3b151590565b60608315611491575081611235565b8251156114a15782518084602001fd5b8160405162461bcd60e51b81526004016105149190611638565b604051806040016040528060008152602001600081525090565b6000602082840312156114e6578081fd5b813561123581611bbe565b60008060408385031215611503578081fd5b823561150e81611bbe565b946020939093013593505050565b60006020828403121561152d578081fd5b81518015158114611235578182fd5b60006020828403121561154d578081fd5b5051919050565b600060208284031215611565578081fd5b815161123581611bbe565b600060208284031215611581578081fd5b5035919050565b6000806040838503121561159a578182fd5b50508035926020909101359150565b600082516115bb818460208701611b92565b9190910192915050565b6001600160a01b0391909116815260200190565b6001600160a01b039384168152919092166020820152604081019190915260600190565b6001600160a01b03929092168252602082015260400190565b901515815260200190565b9182526001600160a01b0316602082015260400190565b6000602082528251806020840152611657816040850160208701611b92565b601f01601f19169190910160400192915050565b6020808252601b908201527f43616e206f6e6c7920696e637265617365206c6f636b2074696d650000000000604082015260600190565b60208082526024908201527f43616e6e6f742061646420746f2065787069726564206c6f636b2e20576974686040820152636472617760e01b606082015260800190565b6020808252601b908201527f536166654d6174683a206164646974696f6e206f766572666c6f770000000000604082015260600190565b6020808252601e908201527f536166654d6174683a207375627472616374696f6e206f766572666c6f770000604082015260600190565b60208082526026908201527f416464726573733a20696e73756666696369656e742062616c616e636520666f6040820152651c8818d85b1b60d21b606082015260800190565b6020808252601a908201527f536166654d6174683a206469766973696f6e206279207a65726f000000000000604082015260600190565b60208082526013908201527210dbdb9d1c9858dd081a5cc8195e1c1a5c9959606a1b604082015260600190565b602080825260119082015270139bdd1a1a5b99c81a5cc81b1bd8dad959607a1b604082015260600190565b60208082526021908201527f536166654d6174683a206d756c7469706c69636174696f6e206f766572666c6f6040820152607760f81b606082015260800190565b60208082526019908201527f5769746864726177206f6c6420746f6b656e7320666972737400000000000000604082015260600190565b6020808252601a908201527f4d757374207374616b65206e6f6e207a65726f20616d6f756e74000000000000604082015260600190565b60208082526017908201527f43616c6c6572206973206e6f742061204d616e61676572000000000000000000604082015260600190565b60208082526026908201527f43616e206f6e6c79206c6f636b20756e74696c2074696d6520696e207468652060408201526566757475726560d01b606082015260800190565b6020808252600c908201526b131bd8dac8195e1c1a5c995960a21b604082015260600190565b602080825260169082015275139bc8195e1a5cdd1a5b99c81b1bd8dac8199bdd5b9960521b604082015260600190565b6020808252601d908201527f416464726573733a2063616c6c20746f206e6f6e2d636f6e7472616374000000604082015260600190565b60208082526027908201527f4d757374207061737320626c6f636b2074696d657374616d7020696e207468656040820152662066757475726560c81b606082015260800190565b6020808252602a908201527f5361666545524332303a204552433230206f7065726174696f6e20646964206e6040820152691bdd081cdd58d8d9595960b21b606082015260800190565b6020808252601f908201527f5265656e7472616e637947756172643a207265656e7472616e742063616c6c00604082015260600190565b60208082526034908201527f4c6f636b206475726174696f6e2073686f756c64206265206c6172676572207460408201527368616e206d696e696d756d206c6f636b74696d6560601b606082015260800190565b602080825260169082015275546865206c6f636b206469646e27742065787069726560501b604082015260600190565b6020808252601f908201527f4d757374206861766520736f6d657468696e6720746f20776974686472617700604082015260600190565b90815260200190565b918252602082015260400190565b9283526020830191909152604082015260600190565b60005b83811015611bad578181015183820152602001611b95565b8381111561130f5750506000910152565b6001600160a01b0381168114611bd357600080fd5b5056fea26469706673582212207e1a6f03c27779274bb85970e99dd9e4cb2c4829ad663e99af9849c1b4d57b7064736f6c634300060c0033",
  "immutableReferences": {},
  "source": "// SPDX-License-Identifier: AGPL-3.0\n/* solium-disable security/no-block-members */\npragma experimental ABIEncoderV2;\npragma solidity 0.6.12;\n\nimport \"@openzeppelin/contracts/utils/ReentrancyGuard.sol\";\nimport { SafeERC20, IERC20 } from \"@openzeppelin/contracts/token/ERC20/SafeERC20.sol\";\nimport { SafeMath } from \"@openzeppelin/contracts/math/SafeMath.sol\";\nimport \"./interfaces/IVotingEscrow.sol\";\nimport \"./interfaces/IGovernanceAddressProvider.sol\";\nimport \"../liquidityMining/interfaces/IGenericMiner.sol\";\n\n/**\n * @title  VotingEscrow\n * @notice Lockup GOV, receive vGOV (voting weight that decays over time)\n * @dev    Supports:\n *            1) Tracking MIMO Locked up\n *            2) Decaying voting weight lookup\n *            3) Closure of contract\n */\ncontract VotingEscrow is IVotingEscrow, ReentrancyGuard {\n  using SafeMath for uint256;\n  using SafeERC20 for IERC20;\n\n  uint256 public constant MAXTIME = 1460 days; // 365 * 4 years\n  uint256 public minimumLockTime = 1 days;\n  bool public expired = false;\n  IERC20 public override stakingToken;\n\n  mapping(address => LockedBalance) public locked;\n\n  string public override name;\n  string public override symbol;\n  // solhint-disable-next-line\n  uint256 public constant override decimals = 18;\n\n  // AddressProvider\n  IGovernanceAddressProvider public a;\n  IGenericMiner public miner;\n\n  constructor(\n    IERC20 _stakingToken,\n    IGovernanceAddressProvider _a,\n    IGenericMiner _miner,\n    string memory _name,\n    string memory _symbol\n  ) public {\n    require(address(_stakingToken) != address(0));\n    require(address(_a) != address(0));\n    require(address(_miner) != address(0));\n\n    stakingToken = _stakingToken;\n    a = _a;\n    miner = _miner;\n\n    name = _name;\n    symbol = _symbol;\n  }\n\n  modifier onlyManager() {\n    require(a.controller().hasRole(a.controller().MANAGER_ROLE(), msg.sender), \"Caller is not a Manager\");\n    _;\n  }\n\n  /** @dev Modifier to ensure contract has not yet expired */\n  modifier contractNotExpired() {\n    require(!expired, \"Contract is expired\");\n    _;\n  }\n\n  /**\n   * @dev Creates a new lock\n   * @param _value Total units of StakingToken to lockup\n   * @param _unlockTime Time at which the stake should unlock\n   */\n  function createLock(uint256 _value, uint256 _unlockTime) external override nonReentrant contractNotExpired {\n    LockedBalance memory locked_ = LockedBalance({ amount: locked[msg.sender].amount, end: locked[msg.sender].end });\n\n    require(_value > 0, \"Must stake non zero amount\");\n    require(locked_.amount == 0, \"Withdraw old tokens first\");\n    require(_unlockTime > block.timestamp, \"Can only lock until time in the future\");\n    require(_unlockTime.sub(block.timestamp) > minimumLockTime, \"Lock duration should be larger than minimum locktime\");\n\n    _depositFor(msg.sender, _value, _unlockTime, locked_, LockAction.CREATE_LOCK);\n  }\n\n  /**\n   * @dev Increases amount of stake thats locked up & resets decay\n   * @param _value Additional units of StakingToken to add to exiting stake\n   */\n  function increaseLockAmount(uint256 _value) external override nonReentrant contractNotExpired {\n    LockedBalance memory locked_ = LockedBalance({ amount: locked[msg.sender].amount, end: locked[msg.sender].end });\n\n    require(_value > 0, \"Must stake non zero amount\");\n    require(locked_.amount > 0, \"No existing lock found\");\n    require(locked_.end > block.timestamp, \"Cannot add to expired lock. Withdraw\");\n\n    _depositFor(msg.sender, _value, 0, locked_, LockAction.INCREASE_LOCK_AMOUNT);\n  }\n\n  /**\n   * @dev Increases length of lockup & resets decay\n   * @param _unlockTime New unlocktime for lockup\n   */\n  function increaseLockLength(uint256 _unlockTime) external override nonReentrant contractNotExpired {\n    LockedBalance memory locked_ = LockedBalance({ amount: locked[msg.sender].amount, end: locked[msg.sender].end });\n\n    require(locked_.amount > 0, \"Nothing is locked\");\n    require(locked_.end > block.timestamp, \"Lock expired\");\n    require(_unlockTime > locked_.end, \"Can only increase lock time\");\n    require(_unlockTime.sub(locked_.end) > minimumLockTime, \"Lock duration should be larger than minimum locktime\");\n\n    _depositFor(msg.sender, 0, _unlockTime, locked_, LockAction.INCREASE_LOCK_TIME);\n  }\n\n  /**\n   * @dev Withdraws all the senders stake, providing lockup is over\n   */\n  function withdraw() external override {\n    _withdraw(msg.sender);\n  }\n\n  /**\n   * @dev Ends the contract, unlocking all stakes.\n   * No more staking can happen. Only withdraw.\n   */\n  function expireContract() external override onlyManager contractNotExpired {\n    expired = true;\n    emit Expired();\n  }\n\n  /**\n   * @dev Set miner address.\n   * @param _miner new miner contract address\n   */\n  function setMiner(IGenericMiner _miner) external override onlyManager contractNotExpired {\n    miner = _miner;\n  }\n\n  /**\n   * @dev Set minimumLockTime.\n   * @param _minimumLockTime minimum lockTime\n   */\n  function setMinimumLockTime(uint256 _minimumLockTime) external override onlyManager contractNotExpired {\n    minimumLockTime = _minimumLockTime;\n  }\n\n  /***************************************\n                    GETTERS\n    ****************************************/\n\n  /**\n   * @dev Gets the user's votingWeight at the current time.\n   * @param _owner User for which to return the votingWeight\n   * @return uint256 Balance of user\n   */\n  function balanceOf(address _owner) public view override returns (uint256) {\n    return balanceOfAt(_owner, block.timestamp);\n  }\n\n  /**\n   * @dev Gets a users votingWeight at a given block timestamp\n   * @param _owner User for which to return the balance\n   * @param _blockTime Timestamp for which to calculate balance. Can not be in the past\n   * @return uint256 Balance of user\n   */\n  function balanceOfAt(address _owner, uint256 _blockTime) public view override returns (uint256) {\n    require(_blockTime >= block.timestamp, \"Must pass block timestamp in the future\");\n\n    LockedBalance memory currentLock = locked[_owner];\n\n    if (currentLock.end <= _blockTime) return 0;\n    uint256 remainingLocktime = currentLock.end.sub(_blockTime);\n    if (remainingLocktime > MAXTIME) {\n      remainingLocktime = MAXTIME;\n    }\n\n    return currentLock.amount.mul(remainingLocktime).div(MAXTIME);\n  }\n\n  /**\n   * @dev Deposits or creates a stake for a given address\n   * @param _addr User address to assign the stake\n   * @param _value Total units of StakingToken to lockup\n   * @param _unlockTime Time at which the stake should unlock\n   * @param _oldLocked Previous amount staked by this user\n   * @param _action See LockAction enum\n   */\n  function _depositFor(\n    address _addr,\n    uint256 _value,\n    uint256 _unlockTime,\n    LockedBalance memory _oldLocked,\n    LockAction _action\n  ) internal {\n    LockedBalance memory newLocked = LockedBalance({ amount: _oldLocked.amount, end: _oldLocked.end });\n\n    // Adding to existing lock, or if a lock is expired - creating a new one\n    newLocked.amount = newLocked.amount.add(_value);\n    if (_unlockTime != 0) {\n      newLocked.end = _unlockTime;\n    }\n    locked[_addr] = newLocked;\n\n    if (_value != 0) {\n      stakingToken.safeTransferFrom(_addr, address(this), _value);\n    }\n\n    miner.releaseMIMO(_addr);\n\n    emit Deposit(_addr, _value, newLocked.end, _action, block.timestamp);\n  }\n\n  /**\n   * @dev Withdraws a given users stake, providing the lockup has finished\n   * @param _addr User for which to withdraw\n   */\n  function _withdraw(address _addr) internal nonReentrant {\n    LockedBalance memory oldLock = LockedBalance({ end: locked[_addr].end, amount: locked[_addr].amount });\n    require(block.timestamp >= oldLock.end || expired, \"The lock didn't expire\");\n    require(oldLock.amount > 0, \"Must have something to withdraw\");\n\n    uint256 value = uint256(oldLock.amount);\n\n    LockedBalance memory currentLock = LockedBalance({ end: 0, amount: 0 });\n    locked[_addr] = currentLock;\n\n    stakingToken.safeTransfer(_addr, value);\n    miner.releaseMIMO(_addr);\n\n    emit Withdraw(_addr, value, block.timestamp);\n  }\n}\n",
  "sourcePath": "/home/mingyue/sub_contract_content/Web3Bugs/contracts/115/core/contracts/governance/VotingEscrow.sol",
  "compiler": {
    "name": "solc",
    "version": "0.6.12+commit.27d51765.Emscripten.clang"
  },
  "schemaVersion": "3.4.7",
  "updatedAt": "2025-02-28T14:09:34.614Z",
  "devdoc": {
    "details": "Supports:            1) Tracking MIMO Locked up            2) Decaying voting weight lookup            3) Closure of contract",
    "kind": "dev",
    "methods": {
      "balanceOf(address)": {
        "details": "Gets the user's votingWeight at the current time.",
        "params": {
          "_owner": "User for which to return the votingWeight"
        },
        "returns": {
          "_0": "uint256 Balance of user"
        }
      },
      "balanceOfAt(address,uint256)": {
        "details": "Gets a users votingWeight at a given block timestamp",
        "params": {
          "_blockTime": "Timestamp for which to calculate balance. Can not be in the past",
          "_owner": "User for which to return the balance"
        },
        "returns": {
          "_0": "uint256 Balance of user"
        }
      },
      "createLock(uint256,uint256)": {
        "details": "Creates a new lock",
        "params": {
          "_unlockTime": "Time at which the stake should unlock",
          "_value": "Total units of StakingToken to lockup"
        }
      },
      "expireContract()": {
        "details": "Ends the contract, unlocking all stakes. No more staking can happen. Only withdraw."
      },
      "increaseLockAmount(uint256)": {
        "details": "Increases amount of stake thats locked up & resets decay",
        "params": {
          "_value": "Additional units of StakingToken to add to exiting stake"
        }
      },
      "increaseLockLength(uint256)": {
        "details": "Increases length of lockup & resets decay",
        "params": {
          "_unlockTime": "New unlocktime for lockup"
        }
      },
      "setMiner(address)": {
        "details": "Set miner address.",
        "params": {
          "_miner": "new miner contract address"
        }
      },
      "setMinimumLockTime(uint256)": {
        "details": "Set minimumLockTime.",
        "params": {
          "_minimumLockTime": "minimum lockTime"
        }
      },
      "withdraw()": {
        "details": "Withdraws all the senders stake, providing lockup is over"
      }
    },
    "title": "VotingEscrow",
    "version": 1
  },
  "userdoc": {
    "events": {
      "Deposit(address,uint256,uint256,uint8,uint256)": {
        "notice": "Shared Events "
      }
    },
    "kind": "user",
    "methods": {},
    "notice": "Lockup GOV, receive vGOV (voting weight that decays over time)",
    "version": 1
  }
}