{
  "_format": "hh-sol-artifact-1",
  "contractName": "AmmGauge",
  "sourceName": "contracts/tokenomics/AmmGauge.sol",
  "abi": [
    {
      "inputs": [
        {
          "internalType": "contract IController",
          "name": "_controller",
          "type": "address"
        },
        {
          "internalType": "address",
          "name": "_ammToken",
          "type": "address"
        }
      ],
      "stateMutability": "nonpayable",
      "type": "constructor"
    },
    {
      "anonymous": false,
      "inputs": [
        {
          "indexed": true,
          "internalType": "address",
          "name": "account",
          "type": "address"
        },
        {
          "indexed": true,
          "internalType": "address",
          "name": "token",
          "type": "address"
        },
        {
          "indexed": false,
          "internalType": "uint256",
          "name": "amount",
          "type": "uint256"
        }
      ],
      "name": "AmmStaked",
      "type": "event"
    },
    {
      "anonymous": false,
      "inputs": [
        {
          "indexed": true,
          "internalType": "address",
          "name": "account",
          "type": "address"
        },
        {
          "indexed": true,
          "internalType": "address",
          "name": "token",
          "type": "address"
        },
        {
          "indexed": false,
          "internalType": "uint256",
          "name": "amount",
          "type": "uint256"
        }
      ],
      "name": "AmmUnstaked",
      "type": "event"
    },
    {
      "anonymous": false,
      "inputs": [
        {
          "indexed": true,
          "internalType": "address",
          "name": "account",
          "type": "address"
        },
        {
          "indexed": false,
          "internalType": "uint256",
          "name": "amount",
          "type": "uint256"
        }
      ],
      "name": "RewardClaimed",
      "type": "event"
    },
    {
      "inputs": [],
      "name": "ammLastUpdated",
      "outputs": [
        {
          "internalType": "uint48",
          "name": "",
          "type": "uint48"
        }
      ],
      "stateMutability": "view",
      "type": "function"
    },
    {
      "inputs": [],
      "name": "ammStakedIntegral",
      "outputs": [
        {
          "internalType": "uint256",
          "name": "",
          "type": "uint256"
        }
      ],
      "stateMutability": "view",
      "type": "function"
    },
    {
      "inputs": [],
      "name": "ammToken",
      "outputs": [
        {
          "internalType": "address",
          "name": "",
          "type": "address"
        }
      ],
      "stateMutability": "view",
      "type": "function"
    },
    {
      "inputs": [
        {
          "internalType": "address",
          "name": "",
          "type": "address"
        }
      ],
      "name": "balances",
      "outputs": [
        {
          "internalType": "uint256",
          "name": "",
          "type": "uint256"
        }
      ],
      "stateMutability": "view",
      "type": "function"
    },
    {
      "inputs": [
        {
          "internalType": "address",
          "name": "beneficiary",
          "type": "address"
        }
      ],
      "name": "claimRewards",
      "outputs": [
        {
          "internalType": "uint256",
          "name": "",
          "type": "uint256"
        }
      ],
      "stateMutability": "nonpayable",
      "type": "function"
    },
    {
      "inputs": [
        {
          "internalType": "address",
          "name": "user",
          "type": "address"
        }
      ],
      "name": "claimableRewards",
      "outputs": [
        {
          "internalType": "uint256",
          "name": "",
          "type": "uint256"
        }
      ],
      "stateMutability": "view",
      "type": "function"
    },
    {
      "inputs": [],
      "name": "controller",
      "outputs": [
        {
          "internalType": "contract IController",
          "name": "",
          "type": "address"
        }
      ],
      "stateMutability": "view",
      "type": "function"
    },
    {
      "inputs": [],
      "name": "getAmmToken",
      "outputs": [
        {
          "internalType": "address",
          "name": "",
          "type": "address"
        }
      ],
      "stateMutability": "view",
      "type": "function"
    },
    {
      "inputs": [
        {
          "internalType": "address",
          "name": "token",
          "type": "address"
        }
      ],
      "name": "isAmmToken",
      "outputs": [
        {
          "internalType": "bool",
          "name": "",
          "type": "bool"
        }
      ],
      "stateMutability": "view",
      "type": "function"
    },
    {
      "inputs": [],
      "name": "kill",
      "outputs": [
        {
          "internalType": "bool",
          "name": "",
          "type": "bool"
        }
      ],
      "stateMutability": "nonpayable",
      "type": "function"
    },
    {
      "inputs": [],
      "name": "killed",
      "outputs": [
        {
          "internalType": "bool",
          "name": "",
          "type": "bool"
        }
      ],
      "stateMutability": "view",
      "type": "function"
    },
    {
      "inputs": [
        {
          "internalType": "address",
          "name": "",
          "type": "address"
        }
      ],
      "name": "perUserShare",
      "outputs": [
        {
          "internalType": "uint256",
          "name": "",
          "type": "uint256"
        }
      ],
      "stateMutability": "view",
      "type": "function"
    },
    {
      "inputs": [
        {
          "internalType": "address",
          "name": "",
          "type": "address"
        }
      ],
      "name": "perUserStakedIntegral",
      "outputs": [
        {
          "internalType": "uint256",
          "name": "",
          "type": "uint256"
        }
      ],
      "stateMutability": "view",
      "type": "function"
    },
    {
      "inputs": [],
      "name": "poolCheckpoint",
      "outputs": [
        {
          "internalType": "bool",
          "name": "",
          "type": "bool"
        }
      ],
      "stateMutability": "nonpayable",
      "type": "function"
    },
    {
      "inputs": [],
      "name": "roleManager",
      "outputs": [
        {
          "internalType": "contract IRoleManager",
          "name": "",
          "type": "address"
        }
      ],
      "stateMutability": "view",
      "type": "function"
    },
    {
      "inputs": [
        {
          "internalType": "uint256",
          "name": "amount",
          "type": "uint256"
        }
      ],
      "name": "stake",
      "outputs": [
        {
          "internalType": "bool",
          "name": "",
          "type": "bool"
        }
      ],
      "stateMutability": "nonpayable",
      "type": "function"
    },
    {
      "inputs": [
        {
          "internalType": "address",
          "name": "account",
          "type": "address"
        },
        {
          "internalType": "uint256",
          "name": "amount",
          "type": "uint256"
        }
      ],
      "name": "stakeFor",
      "outputs": [
        {
          "internalType": "bool",
          "name": "",
          "type": "bool"
        }
      ],
      "stateMutability": "nonpayable",
      "type": "function"
    },
    {
      "inputs": [],
      "name": "totalStaked",
      "outputs": [
        {
          "internalType": "uint256",
          "name": "",
          "type": "uint256"
        }
      ],
      "stateMutability": "view",
      "type": "function"
    },
    {
      "inputs": [
        {
          "internalType": "uint256",
          "name": "amount",
          "type": "uint256"
        }
      ],
      "name": "unstake",
      "outputs": [
        {
          "internalType": "bool",
          "name": "",
          "type": "bool"
        }
      ],
      "stateMutability": "nonpayable",
      "type": "function"
    },
    {
      "inputs": [
        {
          "internalType": "address",
          "name": "dst",
          "type": "address"
        },
        {
          "internalType": "uint256",
          "name": "amount",
          "type": "uint256"
        }
      ],
      "name": "unstakeFor",
      "outputs": [
        {
          "internalType": "bool",
          "name": "",
          "type": "bool"
        }
      ],
      "stateMutability": "nonpayable",
      "type": "function"
    }
  ],
  "bytecode": "0x60e06040523480156200001157600080fd5b5060405162001987380380620019878339810160408190526200003491620001ae565b620000c7826001600160a01b0316632954018c6040518163ffffffff1660e01b815260040160206040518083038186803b1580156200007257600080fd5b505afa15801562000087573d6000803e3d6000fd5b505050506040513d601f19601f82011682018060405250810190620000ad9190620001ed565b6001600160a01b03166200010360201b620010691760201c565b6001600160a01b0390811660805290811660c0521660a0526005805466ffffffffffff0019166101004265ffffffffffff160217905562000214565b6040516321f8a72160e01b81526a3937b632a6b0b730b3b2b960a91b60048201526000906001600160a01b038316906321f8a7219060240160206040518083038186803b1580156200015457600080fd5b505afa15801562000169573d6000803e3d6000fd5b505050506040513d601f19601f820116820180604052508101906200018f9190620001ed565b92915050565b6001600160a01b0381168114620001ab57600080fd5b50565b60008060408385031215620001c257600080fd5b8251620001cf8162000195565b6020840151909250620001e28162000195565b809150509250929050565b6000602082840312156200020057600080fd5b81516200020d8162000195565b9392505050565b60805160a05160c0516116cc620002bb600039600081816101f5015281816102c101528181610340015281816103f801528181610489015281816104c9015281816105b1015281816106f301528181610784015281816107c30152818161089d01528181610abf0152610cb901526000818161030e015281816108f601528181610a1901528181610c130152610f2d0152600081816101320152610dda01526116cc6000f3fe608060405234801561001057600080fd5b506004361061012b5760003560e01c806367673084116100ad578063ac79313911610071578063ac793139146102bc578063dc01f60d146102e3578063ef5cfb8c146102f6578063f77c479114610309578063fa3f8f1b1461033057600080fd5b80636767308414610257578063817b1cd214610277578063870cf99f14610280578063a3db1abb146102a0578063a694fc3a146102a957600080fd5b806336ef088c116100f457806336ef088c146101e05780633b2caf55146101f357806341c0e1b5146102195780635790a0c814610221578063654b911b1461022957600080fd5b8062435da5146101305780631f3a0e411461016f57806327e235e31461018c5780632e17de78146101ba5780632ee40908146101cd575b600080fd5b7f00000000000000000000000000000000000000000000000000000000000000005b6040516001600160a01b0390911681526020015b60405180910390f35b60055461017c9060ff1681565b6040519015158152602001610166565b6101ac61019a3660046114db565b60006020819052908152604090205481565b604051908152602001610166565b61017c6101c83660046114f8565b610370565b61017c6101db366004611511565b610382565b61017c6101ee366004611511565b610628565b7f0000000000000000000000000000000000000000000000000000000000000000610152565b61017c6108f2565b61017c610a01565b60055461024090610100900465ffffffffffff1681565b60405165ffffffffffff9091168152602001610166565b6101ac6102653660046114db565b60036020526000908152604090205481565b6101ac60025481565b6101ac61028e3660046114db565b60046020526000908152604090205481565b6101ac60015481565b61017c6102b73660046114f8565b610bc2565b6101527f000000000000000000000000000000000000000000000000000000000000000081565b6101ac6102f13660046114db565b610bce565b6101ac6103043660046114db565b610dc4565b6101527f000000000000000000000000000000000000000000000000000000000000000081565b61017c61033e3660046114db565b7f00000000000000000000000000000000000000000000000000000000000000006001600160a01b0390811691161490565b600061037c3383610628565b92915050565b60008082116040518060400160405280600e81526020016d1a5b9d985b1a5908185b5bdd5b9d60921b815250906103d55760405162461bcd60e51b81526004016103cc9190611569565b60405180910390fd5b506103df836110f1565b506040516370a0823160e01b81523060048201526000907f00000000000000000000000000000000000000000000000000000000000000006001600160a01b0316906370a082319060240160206040518083038186803b15801561044257600080fd5b505afa158015610456573d6000803e3d6000fd5b505050506040513d601f19601f8201168201806040525081019061047a919061159c565b90506104b16001600160a01b037f000000000000000000000000000000000000000000000000000000000000000016333086611196565b6040516370a0823160e01b81523060048201526000907f00000000000000000000000000000000000000000000000000000000000000006001600160a01b0316906370a082319060240160206040518083038186803b15801561051357600080fd5b505afa158015610527573d6000803e3d6000fd5b505050506040513d601f19601f8201168201806040525081019061054b919061159c565b9050600061055983836115cb565b905080600080886001600160a01b03166001600160a01b03168152602001908152602001600020600082825461058f91906115e2565b9250508190555080600260008282546105a891906115e2565b925050819055507f00000000000000000000000000000000000000000000000000000000000000006001600160a01b0316866001600160a01b03167fe50e01a006e0e13d78357108d064628dc8a6abf6ac87e5272b2f720bd83c91028760405161061491815260200190565b60405180910390a350600195945050505050565b60008082116040518060400160405280600e81526020016d1a5b9d985b1a5908185b5bdd5b9d60921b815250906106725760405162461bcd60e51b81526004016103cc9190611569565b5033600090815260208181526040918290205482518084019093526014835273696e73756666696369656e742062616c616e636560601b918301919091528311156106d05760405162461bcd60e51b81526004016103cc9190611569565b506106da336110f1565b506040516370a0823160e01b81523060048201526000907f00000000000000000000000000000000000000000000000000000000000000006001600160a01b0316906370a082319060240160206040518083038186803b15801561073d57600080fd5b505afa158015610751573d6000803e3d6000fd5b505050506040513d601f19601f82011682018060405250810190610775919061159c565b90506107ab6001600160a01b037f0000000000000000000000000000000000000000000000000000000000000000168585611207565b6040516370a0823160e01b81523060048201526000907f00000000000000000000000000000000000000000000000000000000000000006001600160a01b0316906370a082319060240160206040518083038186803b15801561080d57600080fd5b505afa158015610821573d6000803e3d6000fd5b505050506040513d601f19601f82011682018060405250810190610845919061159c565b9050600061085382846115cb565b336000908152602081905260408120805492935083929091906108779084906115cb565b92505081905550806002600082825461089091906115cb565b90915550506040518581527f00000000000000000000000000000000000000000000000000000000000000006001600160a01b03169033907f6a3d96108f8ba7846f5d2c24c6409830e6e16d8ab9c1e4f17059cb74ee9092f790602001610614565b60007f00000000000000000000000000000000000000000000000000000000000000006001600160a01b031663dbcd89fa6040518163ffffffff1660e01b815260040160206040518083038186803b15801561094d57600080fd5b505afa158015610961573d6000803e3d6000fd5b505050506040513d601f19601f8201168201806040525081019061098591906115fa565b6001600160a01b0316336001600160a01b03161460405180604001604052806013815260200172756e617574686f72697a65642061636365737360681b815250906109e35760405162461bcd60e51b81526004016103cc9190611569565b506109ec610a01565b50506005805460ff1916600190811790915590565b60055460009060ff1615610a155750600090565b60007f00000000000000000000000000000000000000000000000000000000000000006001600160a01b031663dbcd89fa6040518163ffffffff1660e01b815260040160206040518083038186803b158015610a7057600080fd5b505afa158015610a84573d6000803e3d6000fd5b505050506040513d601f19601f82011682018060405250810190610aa891906115fa565b604051633da3c28f60e01b81526001600160a01b037f0000000000000000000000000000000000000000000000000000000000000000811660048301529190911690633da3c28f9060240160206040518083038186803b158015610b0b57600080fd5b505afa158015610b1f573d6000803e3d6000fd5b505050506040513d601f19601f82011682018060405250810190610b43919061159c565b600554909150600090610b6390610100900465ffffffffffff16426115cb565b60025490915015610b9c57600254610b8590610b7f8385611617565b9061123c565b60016000828254610b9691906115e2565b90915550505b50506005805466ffffffffffff0019166101004265ffffffffffff160217905550600190565b600061037c3383610382565b6001546005546000919060ff16158015610bea57506000600254115b15610d5457600254600554610d479190610c1190610100900465ffffffffffff16426115cb565b7f00000000000000000000000000000000000000000000000000000000000000006001600160a01b031663dbcd89fa6040518163ffffffff1660e01b815260040160206040518083038186803b158015610c6a57600080fd5b505afa158015610c7e573d6000803e3d6000fd5b505050506040513d601f19601f82011682018060405250810190610ca291906115fa565b604051633da3c28f60e01b81526001600160a01b037f0000000000000000000000000000000000000000000000000000000000000000811660048301529190911690633da3c28f9060240160206040518083038186803b158015610d0557600080fd5b505afa158015610d19573d6000803e3d6000fd5b505050506040513d601f19601f82011682018060405250810190610d3d919061159c565b610b7f9190611617565b610d5190826115e2565b90505b6001600160a01b038316600090815260036020526040902054610d9a90610d7b90836115cb565b6001600160a01b0385166000908152602081905260409020549061125b565b6001600160a01b038416600090815260046020526040902054610dbd91906115e2565b9392505050565b6000336001600160a01b0383161480610e8457507f0000000000000000000000000000000000000000000000000000000000000000604051632474521560e21b815268067617567655f7a61760bc1b60048201523360248201526001600160a01b0391909116906391d148549060440160206040518083038186803b158015610e4c57600080fd5b505afa158015610e60573d6000803e3d6000fd5b505050506040513d601f19601f82011682018060405250810190610e849190611636565b60405180604001604052806013815260200172756e617574686f72697a65642061636365737360681b81525090610ece5760405162461bcd60e51b81526004016103cc9190611569565b50610ed8826110f1565b506001600160a01b03821660009081526004602052604090205480610f005750600092915050565b600060046000856001600160a01b03166001600160a01b03168152602001908152602001600020819055507f00000000000000000000000000000000000000000000000000000000000000006001600160a01b031663dbcd89fa6040518163ffffffff1660e01b815260040160206040518083038186803b158015610f8457600080fd5b505afa158015610f98573d6000803e3d6000fd5b505050506040513d601f19601f82011682018060405250810190610fbc91906115fa565b6040516335106f4960e11b81526001600160a01b038581166004830152602482018490529190911690636a20de9290604401600060405180830381600087803b15801561100857600080fd5b505af115801561101c573d6000803e3d6000fd5b50505050826001600160a01b03167f106f923f993c2149d49b4255ff723acafa1f2d94393f561d3eda32ae348f72418260405161105b91815260200190565b60405180910390a292915050565b6040516321f8a72160e01b81526a3937b632a6b0b730b3b2b960a91b60048201526000906001600160a01b038316906321f8a7219060240160206040518083038186803b1580156110b957600080fd5b505afa1580156110cd573d6000803e3d6000fd5b505050506040513d601f19601f8201168201806040525081019061037c91906115fa565b60006110fb610a01565b506001600160a01b03821660009081526003602052604090205460015461114491611125916115cb565b6001600160a01b0384166000908152602081905260409020549061125b565b6001600160a01b0383166000908152600460205260408120805490919061116c9084906115e2565b9091555050600180546001600160a01b039093166000908152600360205260409020929092555090565b6040516001600160a01b03808516602483015283166044820152606481018290526112019085906323b872dd60e01b906084015b60408051601f198184030181529190526020810180516001600160e01b03166001600160e01b031990931692909217909152611270565b50505050565b6040516001600160a01b03831660248201526044810182905261123790849063a9059cbb60e01b906064016111ca565b505050565b600081611251670de0b6b3a764000085611617565b610dbd9190611658565b6000670de0b6b3a76400006112518385611617565b60006112c5826040518060400160405280602081526020017f5361666545524332303a206c6f772d6c6576656c2063616c6c206661696c6564815250856001600160a01b03166113429092919063ffffffff16565b80519091501561123757808060200190518101906112e39190611636565b6112375760405162461bcd60e51b815260206004820152602a60248201527f5361666545524332303a204552433230206f7065726174696f6e20646964206e6044820152691bdd081cdd58d8d9595960b21b60648201526084016103cc565b60606113518484600085611359565b949350505050565b6060824710156113ba5760405162461bcd60e51b815260206004820152602660248201527f416464726573733a20696e73756666696369656e742062616c616e636520666f6044820152651c8818d85b1b60d21b60648201526084016103cc565b6001600160a01b0385163b6114115760405162461bcd60e51b815260206004820152601d60248201527f416464726573733a2063616c6c20746f206e6f6e2d636f6e747261637400000060448201526064016103cc565b600080866001600160a01b0316858760405161142d919061167a565b60006040518083038185875af1925050503d806000811461146a576040519150601f19603f3d011682016040523d82523d6000602084013e61146f565b606091505b509150915061147f82828661148a565b979650505050505050565b60608315611499575081610dbd565b8251156114a95782518084602001fd5b8160405162461bcd60e51b81526004016103cc9190611569565b6001600160a01b03811681146114d857600080fd5b50565b6000602082840312156114ed57600080fd5b8135610dbd816114c3565b60006020828403121561150a57600080fd5b5035919050565b6000806040838503121561152457600080fd5b823561152f816114c3565b946020939093013593505050565b60005b83811015611558578181015183820152602001611540565b838111156112015750506000910152565b602081526000825180602084015261158881604085016020870161153d565b601f01601f19169190910160400192915050565b6000602082840312156115ae57600080fd5b5051919050565b634e487b7160e01b600052601160045260246000fd5b6000828210156115dd576115dd6115b5565b500390565b600082198211156115f5576115f56115b5565b500190565b60006020828403121561160c57600080fd5b8151610dbd816114c3565b6000816000190483118215151615611631576116316115b5565b500290565b60006020828403121561164857600080fd5b81518015158114610dbd57600080fd5b60008261167557634e487b7160e01b600052601260045260246000fd5b500490565b6000825161168c81846020870161153d565b919091019291505056fea26469706673582212202009901be6c6a5eb53028711357a0754269f41d85aa366c3e0ecc82e7671515564736f6c63430008090033",
  "linkReferences": {},
  "deployedLinkReferences": {}
}