{
  "_format": "hh-sol-artifact-1",
  "contractName": "AuraMinter",
  "sourceName": "contracts/AuraMinter.sol",
  "abi": [
    {
      "inputs": [
        {
          "internalType": "address",
          "name": "_aura",
          "type": "address"
        },
        {
          "internalType": "address",
          "name": "_dao",
          "type": "address"
        }
      ],
      "stateMutability": "nonpayable",
      "type": "constructor"
    },
    {
      "anonymous": false,
      "inputs": [
        {
          "indexed": true,
          "internalType": "address",
          "name": "previousOwner",
          "type": "address"
        },
        {
          "indexed": true,
          "internalType": "address",
          "name": "newOwner",
          "type": "address"
        }
      ],
      "name": "OwnershipTransferred",
      "type": "event"
    },
    {
      "inputs": [],
      "name": "aura",
      "outputs": [
        {
          "internalType": "contract AuraToken",
          "name": "",
          "type": "address"
        }
      ],
      "stateMutability": "view",
      "type": "function"
    },
    {
      "inputs": [],
      "name": "inflationProtectionTime",
      "outputs": [
        {
          "internalType": "uint256",
          "name": "",
          "type": "uint256"
        }
      ],
      "stateMutability": "view",
      "type": "function"
    },
    {
      "inputs": [
        {
          "internalType": "address",
          "name": "_to",
          "type": "address"
        },
        {
          "internalType": "uint256",
          "name": "_amount",
          "type": "uint256"
        }
      ],
      "name": "mint",
      "outputs": [],
      "stateMutability": "nonpayable",
      "type": "function"
    },
    {
      "inputs": [],
      "name": "owner",
      "outputs": [
        {
          "internalType": "address",
          "name": "",
          "type": "address"
        }
      ],
      "stateMutability": "view",
      "type": "function"
    },
    {
      "inputs": [],
      "name": "renounceOwnership",
      "outputs": [],
      "stateMutability": "nonpayable",
      "type": "function"
    },
    {
      "inputs": [
        {
          "internalType": "address",
          "name": "newOwner",
          "type": "address"
        }
      ],
      "name": "transferOwnership",
      "outputs": [],
      "stateMutability": "nonpayable",
      "type": "function"
    }
  ],
  "bytecode": "0x60c060405234801561001057600080fd5b5060405161060338038061060383398101604081905261002f916100d3565b61003833610067565b6001600160a01b03821660805261004e81610067565b61005c4263059fa600610106565b60a0525061012c9050565b600080546001600160a01b038381166001600160a01b0319831681178455604051919092169283917f8be0079c531659141344cd1fd0a4f28419497f9722a3daafe3b4186f6b6457e09190a35050565b80516001600160a01b03811681146100ce57600080fd5b919050565b600080604083850312156100e657600080fd5b6100ef836100b7565b91506100fd602084016100b7565b90509250929050565b6000821982111561012757634e487b7160e01b600052601160045260246000fd5b500190565b60805160a0516104a661015d600039600081816099015261018e01526000818160f8015261022101526104a66000f3fe608060405234801561001057600080fd5b50600436106100725760003560e01c80638da5cb5b116100505780638da5cb5b146100ce578063e13b7f5c146100f3578063f2fde38b1461011a57600080fd5b806340c10f1914610077578063715018a61461008c578063888714c614610094575b600080fd5b61008a61008536600461044d565b61012d565b005b61008a610281565b6100bb7f000000000000000000000000000000000000000000000000000000000000000081565b6040519081526020015b60405180910390f35b6000546001600160a01b03165b6040516001600160a01b0390911681526020016100c5565b6100db7f000000000000000000000000000000000000000000000000000000000000000081565b61008a610128366004610477565b6102e7565b6000546001600160a01b0316331461018c5760405162461bcd60e51b815260206004820181905260248201527f4f776e61626c653a2063616c6c6572206973206e6f7420746865206f776e657260448201526064015b60405180910390fd5b7f000000000000000000000000000000000000000000000000000000000000000042116101fb5760405162461bcd60e51b815260206004820152601b60248201527f496e666c6174696f6e2070726f74656374656420666f72206e6f7700000000006044820152606401610183565b6040516310f98a6560e11b81526001600160a01b038381166004830152602482018390527f000000000000000000000000000000000000000000000000000000000000000016906321f314ca90604401600060405180830381600087803b15801561026557600080fd5b505af1158015610279573d6000803e3d6000fd5b505050505050565b6000546001600160a01b031633146102db5760405162461bcd60e51b815260206004820181905260248201527f4f776e61626c653a2063616c6c6572206973206e6f7420746865206f776e65726044820152606401610183565b6102e560006103c9565b565b6000546001600160a01b031633146103415760405162461bcd60e51b815260206004820181905260248201527f4f776e61626c653a2063616c6c6572206973206e6f7420746865206f776e65726044820152606401610183565b6001600160a01b0381166103bd5760405162461bcd60e51b815260206004820152602660248201527f4f776e61626c653a206e6577206f776e657220697320746865207a65726f206160448201527f64647265737300000000000000000000000000000000000000000000000000006064820152608401610183565b6103c6816103c9565b50565b600080546001600160a01b038381167fffffffffffffffffffffffff0000000000000000000000000000000000000000831681178455604051919092169283917f8be0079c531659141344cd1fd0a4f28419497f9722a3daafe3b4186f6b6457e09190a35050565b80356001600160a01b038116811461044857600080fd5b919050565b6000806040838503121561046057600080fd5b61046983610431565b946020939093013593505050565b60006020828403121561048957600080fd5b61049282610431565b939250505056fea164736f6c634300080b000a",
  "linkReferences": {},
  "deployedLinkReferences": {}
}