{
  "_format": "hh-sol-artifact-1",
  "contractName": "MockErc20Strategy",
  "sourceName": "contracts/testing/MockErc20Strategy.sol",
  "abi": [
    {
      "inputs": [
        {
          "internalType": "contract IRoleManager",
          "name": "roleManager",
          "type": "address"
        },
        {
          "internalType": "address",
          "name": "underlying",
          "type": "address"
        }
      ],
      "stateMutability": "nonpayable",
      "type": "constructor"
    },
    {
      "inputs": [],
      "name": "balance",
      "outputs": [
        {
          "internalType": "uint256",
          "name": "",
          "type": "uint256"
        }
      ],
      "stateMutability": "view",
      "type": "function"
    },
    {
      "inputs": [],
      "name": "deposit",
      "outputs": [
        {
          "internalType": "bool",
          "name": "",
          "type": "bool"
        }
      ],
      "stateMutability": "payable",
      "type": "function"
    },
    {
      "inputs": [
        {
          "internalType": "address",
          "name": "account",
          "type": "address"
        }
      ],
      "name": "drainFunds",
      "outputs": [],
      "stateMutability": "nonpayable",
      "type": "function"
    },
    {
      "inputs": [],
      "name": "harvest",
      "outputs": [
        {
          "internalType": "uint256",
          "name": "",
          "type": "uint256"
        }
      ],
      "stateMutability": "pure",
      "type": "function"
    },
    {
      "inputs": [],
      "name": "harvestable",
      "outputs": [
        {
          "internalType": "uint256",
          "name": "",
          "type": "uint256"
        }
      ],
      "stateMutability": "pure",
      "type": "function"
    },
    {
      "inputs": [],
      "name": "hasPendingFunds",
      "outputs": [
        {
          "internalType": "bool",
          "name": "",
          "type": "bool"
        }
      ],
      "stateMutability": "pure",
      "type": "function"
    },
    {
      "inputs": [],
      "name": "name",
      "outputs": [
        {
          "internalType": "string",
          "name": "",
          "type": "string"
        }
      ],
      "stateMutability": "pure",
      "type": "function"
    },
    {
      "inputs": [],
      "name": "roleManager",
      "outputs": [
        {
          "internalType": "contract IRoleManager",
          "name": "",
          "type": "address"
        }
      ],
      "stateMutability": "view",
      "type": "function"
    },
    {
      "inputs": [
        {
          "internalType": "address",
          "name": "newVault",
          "type": "address"
        }
      ],
      "name": "setVault",
      "outputs": [
        {
          "internalType": "bool",
          "name": "",
          "type": "bool"
        }
      ],
      "stateMutability": "nonpayable",
      "type": "function"
    },
    {
      "inputs": [],
      "name": "shutdown",
      "outputs": [
        {
          "internalType": "bool",
          "name": "",
          "type": "bool"
        }
      ],
      "stateMutability": "pure",
      "type": "function"
    },
    {
      "inputs": [
        {
          "internalType": "address",
          "name": "lpToken",
          "type": "address"
        },
        {
          "internalType": "address",
          "name": "stakerVault",
          "type": "address"
        }
      ],
      "name": "stakeInVault",
      "outputs": [],
      "stateMutability": "nonpayable",
      "type": "function"
    },
    {
      "inputs": [],
      "name": "strategist",
      "outputs": [
        {
          "internalType": "address",
          "name": "",
          "type": "address"
        }
      ],
      "stateMutability": "view",
      "type": "function"
    },
    {
      "inputs": [
        {
          "internalType": "address",
          "name": "coin",
          "type": "address"
        },
        {
          "internalType": "address",
          "name": "to",
          "type": "address"
        },
        {
          "internalType": "uint256",
          "name": "amount",
          "type": "uint256"
        }
      ],
      "name": "transfer",
      "outputs": [
        {
          "internalType": "bool",
          "name": "",
          "type": "bool"
        }
      ],
      "stateMutability": "nonpayable",
      "type": "function"
    },
    {
      "inputs": [],
      "name": "want",
      "outputs": [
        {
          "internalType": "address",
          "name": "",
          "type": "address"
        }
      ],
      "stateMutability": "view",
      "type": "function"
    },
    {
      "inputs": [
        {
          "internalType": "uint256",
          "name": "amount",
          "type": "uint256"
        }
      ],
      "name": "withdraw",
      "outputs": [
        {
          "internalType": "bool",
          "name": "",
          "type": "bool"
        }
      ],
      "stateMutability": "nonpayable",
      "type": "function"
    },
    {
      "inputs": [],
      "name": "withdrawAll",
      "outputs": [
        {
          "internalType": "uint256",
          "name": "",
          "type": "uint256"
        }
      ],
      "stateMutability": "nonpayable",
      "type": "function"
    },
    {
      "inputs": [
        {
          "internalType": "address",
          "name": "coin",
          "type": "address"
        }
      ],
      "name": "withdrawDust",
      "outputs": [
        {
          "internalType": "bool",
          "name": "",
          "type": "bool"
        }
      ],
      "stateMutability": "nonpayable",
      "type": "function"
    }
  ],
  "bytecode": "0x60a060405234801561001057600080fd5b5060405161116838038061116883398101604081905261002f91610091565b6001600160a01b0391821660805260008054919092166001600160a01b03199182161790915560028054909116733d9819210a31b4961b30ef54be2aed79b9c9cd3b1790556100cb565b6001600160a01b038116811461008e57600080fd5b50565b600080604083850312156100a457600080fd5b82516100af81610079565b60208401519092506100c081610079565b809150509250929050565b60805161107b6100ed600039600081816101110152610713015261107b6000f3fe6080604052600436106100fd5760003560e01c806361240eea11610095578063beabacc811610064578063beabacc8146102b5578063d0e30db0146102d5578063d8115fac146102dd578063dbbd47d414610239578063fc0e74d1146102fd57600080fd5b806361240eea146102575780636817031b1461026b578063853828b61461028b578063b69ef8a8146102a057600080fd5b80631fe4a686116100d15780631fe4a686146101d757806324f63c8b146101f75780632e1a7d4d146102195780634641257d1461023957600080fd5b8062435da51461010257806301b99eba1461014e57806306fdde031461017e5780631f1fcd51146101b9575b600080fd5b34801561010e57600080fd5b507f00000000000000000000000000000000000000000000000000000000000000005b6040516001600160a01b0390911681526020015b60405180910390f35b34801561015a57600080fd5b5061016e610169366004610ee8565b610316565b6040519015158152602001610145565b34801561018a57600080fd5b50604080518082018252600c81526b4d6f636b537472617465677960a01b602082015290516101459190610f33565b3480156101c557600080fd5b506000546001600160a01b0316610131565b3480156101e357600080fd5b50600254610131906001600160a01b031681565b34801561020357600080fd5b50610217610212366004610f66565b6104d6565b005b34801561022557600080fd5b5061016e610234366004610f99565b6105e7565b34801561024557600080fd5b5060005b604051908152602001610145565b34801561026357600080fd5b50600061016e565b34801561027757600080fd5b5061016e610286366004610ee8565b61070f565b34801561029757600080fd5b506102496108db565b3480156102ac57600080fd5b506102496109d0565b3480156102c157600080fd5b5061016e6102d0366004610fb2565b610a4c565b61016e610b2c565b3480156102e957600080fd5b506102176102f8366004610ee8565b610b8c565b34801561030957600080fd5b50600161016e565b905090565b600080546001600160a01b038381169116141561037a5760405162461bcd60e51b815260206004820152601760248201527f556e617574686f72697a6564207769746864726177616c00000000000000000060448201526064015b60405180910390fd5b6040516370a0823160e01b81523060048201526000906001600160a01b038416906370a082319060240160206040518083038186803b1580156103bc57600080fd5b505afa1580156103d0573d6000803e3d6000fd5b505050506040513d601f19601f820116820180604052508101906103f49190610fee565b9050600081116104465760405162461bcd60e51b815260206004820152601a60248201527f496e76616c696420616d6f756e7420746f2077697468647261770000000000006044820152606401610371565b60015460405163a9059cbb60e01b81526001600160a01b039182166004820152602481018390529084169063a9059cbb90604401602060405180830381600087803b15801561049457600080fd5b505af11580156104a8573d6000803e3d6000fd5b505050506040513d601f19601f820116820180604052508101906104cc9190611007565b5060019392505050565b60405163095ea7b360e01b81526001600160a01b038281166004830152673782dace9d900000602483015283169063095ea7b390604401602060405180830381600087803b15801561052757600080fd5b505af115801561053b573d6000803e3d6000fd5b505050506040513d601f19601f8201168201806040525081019061055f9190611007565b5060405163534a7e1d60e11b8152673782dace9d90000060048201526001600160a01b0382169063a694fc3a906024015b602060405180830381600087803b1580156105aa57600080fd5b505af11580156105be573d6000803e3d6000fd5b505050506040513d601f19601f820116820180604052508101906105e29190611007565b505050565b600154604080518082019091526013815272756e617574686f72697a65642061636365737360681b60208201526000916001600160a01b0316331461063f5760405162461bcd60e51b81526004016103719190610f33565b50600080546040516370a0823160e01b81523060048201526001600160a01b03909116906370a082319060240160206040518083038186803b15801561068457600080fd5b505afa158015610698573d6000803e3d6000fd5b505050506040513d601f19601f820116820180604052508101906106bc9190610fee565b90508083116106e7576001546000546106e2916001600160a01b03918216911685610c43565b610704565b600154600054610704916001600160a01b03918216911683610c43565b60019150505b919050565b60007f0000000000000000000000000000000000000000000000000000000000000000604051632474521560e21b815269676f7665726e616e636560b01b60048201523360248201526001600160a01b0391909116906391d148549060440160206040518083038186803b15801561078657600080fd5b505afa15801561079a573d6000803e3d6000fd5b505050506040513d601f19601f820116820180604052508101906107be9190611007565b60405180604001604052806013815260200172756e617574686f72697a65642061636365737360681b815250906108085760405162461bcd60e51b81526004016103719190610f33565b506001546001600160a01b0316156108625760405162461bcd60e51b815260206004820152601a60248201527f5661756c742063616e206f6e6c7920626520736574206f6e63650000000000006044820152606401610371565b6001600160a01b0382166108b85760405162461bcd60e51b815260206004820152601c60248201527f5661756c742063616e6e6f74206265207a65726f2061646472657373000000006044820152606401610371565b50600180546001600160a01b0383166001600160a01b0319909116178155919050565b600154604080518082019091526013815272756e617574686f72697a65642061636365737360681b60208201526000916001600160a01b031633146109335760405162461bcd60e51b81526004016103719190610f33565b50600080546040516370a0823160e01b81523060048201526001600160a01b03909116906370a082319060240160206040518083038186803b15801561097857600080fd5b505afa15801561098c573d6000803e3d6000fd5b505050506040513d601f19601f820116820180604052508101906109b09190610fee565b600154600054919250610311916001600160a01b03908116911683610c43565b600080546040516370a0823160e01b81523060048201526001600160a01b03909116906370a082319060240160206040518083038186803b158015610a1457600080fd5b505afa158015610a28573d6000803e3d6000fd5b505050506040513d601f19601f820116820180604052508101906103119190610fee565b6000808211610a9d5760405162461bcd60e51b815260206004820152601a60248201527f496e76616c696420616d6f756e7420746f207472616e736665720000000000006044820152606401610371565b60405163a9059cbb60e01b81526001600160a01b0384811660048301526024820184905285169063a9059cbb90604401602060405180830381600087803b158015610ae757600080fd5b505af1158015610afb573d6000803e3d6000fd5b505050506040513d601f19601f82011682018060405250810190610b1f9190611007565b50600190505b9392505050565b600154604080518082019091526013815272756e617574686f72697a65642061636365737360681b60208201526000916001600160a01b03163314610b845760405162461bcd60e51b81526004016103719190610f33565b506001905090565b600080546040516370a0823160e01b81523060048201526001600160a01b03909116906370a082319060240160206040518083038186803b158015610bd057600080fd5b505afa158015610be4573d6000803e3d6000fd5b505050506040513d601f19601f82011682018060405250810190610c089190610fee565b60005460405163a9059cbb60e01b81526001600160a01b0385811660048301526024820184905292935091169063a9059cbb90604401610590565b604080516001600160a01b03848116602483015260448083018590528351808403909101815260649092018352602080830180516001600160e01b031663a9059cbb60e01b17905283518085019094528084527f5361666545524332303a206c6f772d6c6576656c2063616c6c206661696c6564908401526105e292869291600091610cd3918516908490610d50565b8051909150156105e25780806020019051810190610cf19190611007565b6105e25760405162461bcd60e51b815260206004820152602a60248201527f5361666545524332303a204552433230206f7065726174696f6e20646964206e6044820152691bdd081cdd58d8d9595960b21b6064820152608401610371565b6060610d5f8484600085610d67565b949350505050565b606082471015610dc85760405162461bcd60e51b815260206004820152602660248201527f416464726573733a20696e73756666696369656e742062616c616e636520666f6044820152651c8818d85b1b60d21b6064820152608401610371565b6001600160a01b0385163b610e1f5760405162461bcd60e51b815260206004820152601d60248201527f416464726573733a2063616c6c20746f206e6f6e2d636f6e74726163740000006044820152606401610371565b600080866001600160a01b03168587604051610e3b9190611029565b60006040518083038185875af1925050503d8060008114610e78576040519150601f19603f3d011682016040523d82523d6000602084013e610e7d565b606091505b5091509150610e8d828286610e98565b979650505050505050565b60608315610ea7575081610b25565b825115610eb75782518084602001fd5b8160405162461bcd60e51b81526004016103719190610f33565b80356001600160a01b038116811461070a57600080fd5b600060208284031215610efa57600080fd5b610b2582610ed1565b60005b83811015610f1e578181015183820152602001610f06565b83811115610f2d576000848401525b50505050565b6020815260008251806020840152610f52816040850160208701610f03565b601f01601f19169190910160400192915050565b60008060408385031215610f7957600080fd5b610f8283610ed1565b9150610f9060208401610ed1565b90509250929050565b600060208284031215610fab57600080fd5b5035919050565b600080600060608486031215610fc757600080fd5b610fd084610ed1565b9250610fde60208501610ed1565b9150604084013590509250925092565b60006020828403121561100057600080fd5b5051919050565b60006020828403121561101957600080fd5b81518015158114610b2557600080fd5b6000825161103b818460208701610f03565b919091019291505056fea2646970667358221220771455c050c80f73b60bcf8d623cda344f6e53f48dd022af59a798f7d63ff62464736f6c63430008090033",
  "linkReferences": {},
  "deployedLinkReferences": {}
}