{
  "_format": "hh-sol-artifact-1",
  "contractName": "MockPriceOracle",
  "sourceName": "contracts/testing/MockPriceOracle.sol",
  "abi": [
    {
      "inputs": [
        {
          "internalType": "address",
          "name": "baseAsset",
          "type": "address"
        }
      ],
      "name": "getPriceETH",
      "outputs": [
        {
          "internalType": "uint256",
          "name": "",
          "type": "uint256"
        }
      ],
      "stateMutability": "view",
      "type": "function"
    },
    {
      "inputs": [
        {
          "internalType": "address",
          "name": "baseAsset",
          "type": "address"
        }
      ],
      "name": "getPriceUSD",
      "outputs": [
        {
          "internalType": "uint256",
          "name": "",
          "type": "uint256"
        }
      ],
      "stateMutability": "view",
      "type": "function"
    },
    {
      "inputs": [
        {
          "internalType": "address",
          "name": "baseAsset",
          "type": "address"
        },
        {
          "internalType": "uint256",
          "name": "price",
          "type": "uint256"
        }
      ],
      "name": "setPrice",
      "outputs": [],
      "stateMutability": "nonpayable",
      "type": "function"
    }
  ],
  "bytecode": "0x608060405234801561001057600080fd5b50610163806100206000396000f3fe608060405234801561001057600080fd5b50600436106100405760003560e01c8062e4768b146100455780635708447d14610071578063e5ec9db914610071575b600080fd5b61006f6100533660046100e8565b6001600160a01b03909116600090815260208190526040902055565b005b61008461007f366004610112565b610096565b60405190815260200160405180910390f35b6001600160a01b03811660009081526020819052604081205480156100bb57806100c5565b670de0b6b3a76400005b9392505050565b80356001600160a01b03811681146100e357600080fd5b919050565b600080604083850312156100fb57600080fd5b610104836100cc565b946020939093013593505050565b60006020828403121561012457600080fd5b6100c5826100cc56fea2646970667358221220cb9fc6cc93bd98a07951806137938ee4a563c7abc915a8a92c7a62d850425f0264736f6c63430008090033",
  "linkReferences": {},
  "deployedLinkReferences": {}
}