{
  "_format": "hh-sol-artifact-1",
  "contractName": "ControlledToken",
  "sourceName": "contracts/ControlledToken.sol",
  "abi": [
    {
      "inputs": [
        {
          "internalType": "string",
          "name": "_name",
          "type": "string"
        },
        {
          "internalType": "string",
          "name": "_symbol",
          "type": "string"
        },
        {
          "internalType": "uint8",
          "name": "decimals_",
          "type": "uint8"
        },
        {
          "internalType": "address",
          "name": "_controller",
          "type": "address"
        }
      ],
      "stateMutability": "nonpayable",
      "type": "constructor"
    },
    {
      "anonymous": false,
      "inputs": [
        {
          "indexed": true,
          "internalType": "address",
          "name": "owner",
          "type": "address"
        },
        {
          "indexed": true,
          "internalType": "address",
          "name": "spender",
          "type": "address"
        },
        {
          "indexed": false,
          "internalType": "uint256",
          "name": "value",
          "type": "uint256"
        }
      ],
      "name": "Approval",
      "type": "event"
    },
    {
      "anonymous": false,
      "inputs": [
        {
          "indexed": false,
          "internalType": "string",
          "name": "name",
          "type": "string"
        },
        {
          "indexed": false,
          "internalType": "string",
          "name": "symbol",
          "type": "string"
        },
        {
          "indexed": false,
          "internalType": "uint8",
          "name": "decimals",
          "type": "uint8"
        },
        {
          "indexed": true,
          "internalType": "address",
          "name": "controller",
          "type": "address"
        }
      ],
      "name": "Deployed",
      "type": "event"
    },
    {
      "anonymous": false,
      "inputs": [
        {
          "indexed": true,
          "internalType": "address",
          "name": "from",
          "type": "address"
        },
        {
          "indexed": true,
          "internalType": "address",
          "name": "to",
          "type": "address"
        },
        {
          "indexed": false,
          "internalType": "uint256",
          "name": "value",
          "type": "uint256"
        }
      ],
      "name": "Transfer",
      "type": "event"
    },
    {
      "inputs": [],
      "name": "DOMAIN_SEPARATOR",
      "outputs": [
        {
          "internalType": "bytes32",
          "name": "",
          "type": "bytes32"
        }
      ],
      "stateMutability": "view",
      "type": "function"
    },
    {
      "inputs": [
        {
          "internalType": "address",
          "name": "owner",
          "type": "address"
        },
        {
          "internalType": "address",
          "name": "spender",
          "type": "address"
        }
      ],
      "name": "allowance",
      "outputs": [
        {
          "internalType": "uint256",
          "name": "",
          "type": "uint256"
        }
      ],
      "stateMutability": "view",
      "type": "function"
    },
    {
      "inputs": [
        {
          "internalType": "address",
          "name": "spender",
          "type": "address"
        },
        {
          "internalType": "uint256",
          "name": "amount",
          "type": "uint256"
        }
      ],
      "name": "approve",
      "outputs": [
        {
          "internalType": "bool",
          "name": "",
          "type": "bool"
        }
      ],
      "stateMutability": "nonpayable",
      "type": "function"
    },
    {
      "inputs": [
        {
          "internalType": "address",
          "name": "account",
          "type": "address"
        }
      ],
      "name": "balanceOf",
      "outputs": [
        {
          "internalType": "uint256",
          "name": "",
          "type": "uint256"
        }
      ],
      "stateMutability": "view",
      "type": "function"
    },
    {
      "inputs": [],
      "name": "controller",
      "outputs": [
        {
          "internalType": "address",
          "name": "",
          "type": "address"
        }
      ],
      "stateMutability": "view",
      "type": "function"
    },
    {
      "inputs": [
        {
          "internalType": "address",
          "name": "_user",
          "type": "address"
        },
        {
          "internalType": "uint256",
          "name": "_amount",
          "type": "uint256"
        }
      ],
      "name": "controllerBurn",
      "outputs": [],
      "stateMutability": "nonpayable",
      "type": "function"
    },
    {
      "inputs": [
        {
          "internalType": "address",
          "name": "_operator",
          "type": "address"
        },
        {
          "internalType": "address",
          "name": "_user",
          "type": "address"
        },
        {
          "internalType": "uint256",
          "name": "_amount",
          "type": "uint256"
        }
      ],
      "name": "controllerBurnFrom",
      "outputs": [],
      "stateMutability": "nonpayable",
      "type": "function"
    },
    {
      "inputs": [
        {
          "internalType": "address",
          "name": "_user",
          "type": "address"
        },
        {
          "internalType": "uint256",
          "name": "_amount",
          "type": "uint256"
        }
      ],
      "name": "controllerMint",
      "outputs": [],
      "stateMutability": "nonpayable",
      "type": "function"
    },
    {
      "inputs": [],
      "name": "decimals",
      "outputs": [
        {
          "internalType": "uint8",
          "name": "",
          "type": "uint8"
        }
      ],
      "stateMutability": "view",
      "type": "function"
    },
    {
      "inputs": [
        {
          "internalType": "address",
          "name": "spender",
          "type": "address"
        },
        {
          "internalType": "uint256",
          "name": "subtractedValue",
          "type": "uint256"
        }
      ],
      "name": "decreaseAllowance",
      "outputs": [
        {
          "internalType": "bool",
          "name": "",
          "type": "bool"
        }
      ],
      "stateMutability": "nonpayable",
      "type": "function"
    },
    {
      "inputs": [
        {
          "internalType": "address",
          "name": "spender",
          "type": "address"
        },
        {
          "internalType": "uint256",
          "name": "addedValue",
          "type": "uint256"
        }
      ],
      "name": "increaseAllowance",
      "outputs": [
        {
          "internalType": "bool",
          "name": "",
          "type": "bool"
        }
      ],
      "stateMutability": "nonpayable",
      "type": "function"
    },
    {
      "inputs": [],
      "name": "name",
      "outputs": [
        {
          "internalType": "string",
          "name": "",
          "type": "string"
        }
      ],
      "stateMutability": "view",
      "type": "function"
    },
    {
      "inputs": [
        {
          "internalType": "address",
          "name": "owner",
          "type": "address"
        }
      ],
      "name": "nonces",
      "outputs": [
        {
          "internalType": "uint256",
          "name": "",
          "type": "uint256"
        }
      ],
      "stateMutability": "view",
      "type": "function"
    },
    {
      "inputs": [
        {
          "internalType": "address",
          "name": "owner",
          "type": "address"
        },
        {
          "internalType": "address",
          "name": "spender",
          "type": "address"
        },
        {
          "internalType": "uint256",
          "name": "value",
          "type": "uint256"
        },
        {
          "internalType": "uint256",
          "name": "deadline",
          "type": "uint256"
        },
        {
          "internalType": "uint8",
          "name": "v",
          "type": "uint8"
        },
        {
          "internalType": "bytes32",
          "name": "r",
          "type": "bytes32"
        },
        {
          "internalType": "bytes32",
          "name": "s",
          "type": "bytes32"
        }
      ],
      "name": "permit",
      "outputs": [],
      "stateMutability": "nonpayable",
      "type": "function"
    },
    {
      "inputs": [],
      "name": "symbol",
      "outputs": [
        {
          "internalType": "string",
          "name": "",
          "type": "string"
        }
      ],
      "stateMutability": "view",
      "type": "function"
    },
    {
      "inputs": [],
      "name": "totalSupply",
      "outputs": [
        {
          "internalType": "uint256",
          "name": "",
          "type": "uint256"
        }
      ],
      "stateMutability": "view",
      "type": "function"
    },
    {
      "inputs": [
        {
          "internalType": "address",
          "name": "recipient",
          "type": "address"
        },
        {
          "internalType": "uint256",
          "name": "amount",
          "type": "uint256"
        }
      ],
      "name": "transfer",
      "outputs": [
        {
          "internalType": "bool",
          "name": "",
          "type": "bool"
        }
      ],
      "stateMutability": "nonpayable",
      "type": "function"
    },
    {
      "inputs": [
        {
          "internalType": "address",
          "name": "sender",
          "type": "address"
        },
        {
          "internalType": "address",
          "name": "recipient",
          "type": "address"
        },
        {
          "internalType": "uint256",
          "name": "amount",
          "type": "uint256"
        }
      ],
      "name": "transferFrom",
      "outputs": [
        {
          "internalType": "bool",
          "name": "",
          "type": "bool"
        }
      ],
      "stateMutability": "nonpayable",
      "type": "function"
    }
  ],
  "bytecode": "0x6101606040527f6e71edae12b1b97f4d1f60370fef10105fa2faae0126114a169c64845d6126c9610120523480156200003757600080fd5b5060405162001b4b38038062001b4b8339810160408190526200005a91620003fa565b6040518060400160405280601c81526020017f506f6f6c546f67657468657220436f6e74726f6c6c6564546f6b656e0000000081525080604051806040016040528060018152602001603160f81b81525086868160039080519060200190620000c5929190620002c3565b508051620000db906004906020840190620002c3565b5050825160209384012082519284019290922060c083815260e08290524660a0818152604080517f8b73c3c69bb8fe3d512ecc4cf759cc79239f7b179b0ffacaa9a75d522b39400f818a018190528183019890985260608101959095526080808601939093523085830152805180860390920182529390920190925280519401939093209092526101005250506001600160a01b038116620001d85760405162461bcd60e51b815260206004820152602b60248201527f436f6e74726f6c6c6564546f6b656e2f636f6e74726f6c6c65722d6e6f742d7a60448201526a65726f2d6164647265737360a81b60648201526084015b60405180910390fd5b600680546001600160a01b0319166001600160a01b03831617905560ff8216620002455760405162461bcd60e51b815260206004820181905260248201527f436f6e74726f6c6c6564546f6b656e2f646563696d616c732d67742d7a65726f6044820152606401620001cf565b7fff0000000000000000000000000000000000000000000000000000000000000060f883901b16610140526040516001600160a01b038216907fde72fc29218361f33503847e6f32be813f9ec92fc7c772bb59e46675c890fd0e90620002b190879087908790620004cc565b60405180910390a2505050506200058f565b828054620002d1906200053c565b90600052602060002090601f016020900481019282620002f5576000855562000340565b82601f106200031057805160ff191683800117855562000340565b8280016001018555821562000340579182015b828111156200034057825182559160200191906001019062000323565b506200034e92915062000352565b5090565b5b808211156200034e576000815560010162000353565b600082601f8301126200037b57600080fd5b81516001600160401b038082111562000398576200039862000579565b604051601f8301601f19908116603f01168101908282118183101715620003c357620003c362000579565b81604052838152866020858801011115620003dd57600080fd5b620003f084602083016020890162000509565b9695505050505050565b600080600080608085870312156200041157600080fd5b84516001600160401b03808211156200042957600080fd5b620004378883890162000369565b955060208701519150808211156200044e57600080fd5b506200045d8782880162000369565b935050604085015160ff811681146200047557600080fd5b60608601519092506001600160a01b03811681146200049357600080fd5b939692955090935050565b60008151808452620004b881602086016020860162000509565b601f01601f19169290920160200192915050565b606081526000620004e160608301866200049e565b8281036020840152620004f581866200049e565b91505060ff83166040830152949350505050565b60005b83811015620005265781810151838201526020016200050c565b8381111562000536576000848401525b50505050565b600181811c908216806200055157607f821691505b602082108114156200057357634e487b7160e01b600052602260045260246000fd5b50919050565b634e487b7160e01b600052604160045260246000fd5b60805160a05160c05160e05161010051610120516101405160f81c61155e620005ed60003960006101a80152600061078801526000610c5e01526000610cad01526000610c8801526000610c0c01526000610c35015261155e6000f3fe608060405234801561001057600080fd5b50600436106101365760003560e01c806370a08231116100b2578063a457c2d711610081578063d505accf11610066578063d505accf14610292578063dd62ed3e146102a5578063f77c4791146102de57600080fd5b8063a457c2d71461026c578063a9059cbb1461027f57600080fd5b806370a08231146102155780637ecebe001461023e57806390596dd11461025157806395d89b411461026457600080fd5b8063313ce5671161010957806339509351116100ee57806339509351146101da5780635d7b0758146101ed578063631b5dfb1461020257600080fd5b8063313ce567146101a15780633644e515146101d257600080fd5b806306fdde031461013b578063095ea7b31461015957806318160ddd1461017c57806323b872dd1461018e575b600080fd5b610143610309565b6040516101509190611443565b60405180910390f35b61016c610167366004611419565b61039b565b6040519015158152602001610150565b6002545b604051908152602001610150565b61016c61019c36600461136a565b6103b1565b60405160ff7f0000000000000000000000000000000000000000000000000000000000000000168152602001610150565b610180610475565b61016c6101e8366004611419565b610484565b6102006101fb366004611419565b6104c0565b005b61020061021036600461136a565b610528565b610180610223366004611315565b6001600160a01b031660009081526020819052604090205490565b61018061024c366004611315565b6105e3565b61020061025f366004611419565b610603565b610143610667565b61016c61027a366004611419565b610676565b61016c61028d366004611419565b610727565b6102006102a03660046113a6565b610734565b6101806102b3366004611337565b6001600160a01b03918216600090815260016020908152604080832093909416825291909152205490565b6006546102f1906001600160a01b031681565b6040516001600160a01b039091168152602001610150565b606060038054610318906114c7565b80601f0160208091040260200160405190810160405280929190818152602001828054610344906114c7565b80156103915780601f1061036657610100808354040283529160200191610391565b820191906000526020600020905b81548152906001019060200180831161037457829003601f168201915b5050505050905090565b60006103a8338484610898565b50600192915050565b60006103be8484846109f0565b6001600160a01b03841660009081526001602090815260408083203384529091529020548281101561045d5760405162461bcd60e51b815260206004820152602860248201527f45524332303a207472616e7366657220616d6f756e742065786365656473206160448201527f6c6c6f77616e636500000000000000000000000000000000000000000000000060648201526084015b60405180910390fd5b61046a8533858403610898565b506001949350505050565b600061047f610c08565b905090565b3360008181526001602090815260408083206001600160a01b038716845290915281205490916103a89185906104bb908690611498565b610898565b6006546001600160a01b0316331461051a5760405162461bcd60e51b815260206004820152601f60248201527f436f6e74726f6c6c6564546f6b656e2f6f6e6c792d636f6e74726f6c6c6572006044820152606401610454565b6105248282610cfb565b5050565b6006546001600160a01b031633146105825760405162461bcd60e51b815260206004820152601f60248201527f436f6e74726f6c6c6564546f6b656e2f6f6e6c792d636f6e74726f6c6c6572006044820152606401610454565b816001600160a01b0316836001600160a01b0316146105d4576001600160a01b038281166000908152600160209081526040808320938716835292905220546105d490839085906104bb9085906114b0565b6105de8282610dda565b505050565b6001600160a01b0381166000908152600560205260408120545b92915050565b6006546001600160a01b0316331461065d5760405162461bcd60e51b815260206004820152601f60248201527f436f6e74726f6c6c6564546f6b656e2f6f6e6c792d636f6e74726f6c6c6572006044820152606401610454565b6105248282610dda565b606060048054610318906114c7565b3360009081526001602090815260408083206001600160a01b0386168452909152812054828110156107105760405162461bcd60e51b815260206004820152602560248201527f45524332303a2064656372656173656420616c6c6f77616e63652062656c6f7760448201527f207a65726f0000000000000000000000000000000000000000000000000000006064820152608401610454565b61071d3385858403610898565b5060019392505050565b60006103a83384846109f0565b834211156107845760405162461bcd60e51b815260206004820152601d60248201527f45524332305065726d69743a206578706972656420646561646c696e650000006044820152606401610454565b60007f00000000000000000000000000000000000000000000000000000000000000008888886107b38c610f5f565b6040805160208101969096526001600160a01b0394851690860152929091166060840152608083015260a082015260c0810186905260e001604051602081830303815290604052805190602001209050600061080e82610f87565b9050600061081e82878787610ff0565b9050896001600160a01b0316816001600160a01b0316146108815760405162461bcd60e51b815260206004820152601e60248201527f45524332305065726d69743a20696e76616c6964207369676e617475726500006044820152606401610454565b61088c8a8a8a610898565b50505050505050505050565b6001600160a01b0383166109135760405162461bcd60e51b8152602060048201526024808201527f45524332303a20617070726f76652066726f6d20746865207a65726f2061646460448201527f72657373000000000000000000000000000000000000000000000000000000006064820152608401610454565b6001600160a01b03821661098f5760405162461bcd60e51b815260206004820152602260248201527f45524332303a20617070726f766520746f20746865207a65726f20616464726560448201527f73730000000000000000000000000000000000000000000000000000000000006064820152608401610454565b6001600160a01b0383811660008181526001602090815260408083209487168084529482529182902085905590518481527f8c5be1e5ebec7d5bd14f71427d1e84f3dd0314c0f7b2291e5b200ac8c7c3b925910160405180910390a3505050565b6001600160a01b038316610a6c5760405162461bcd60e51b815260206004820152602560248201527f45524332303a207472616e736665722066726f6d20746865207a65726f20616460448201527f64726573730000000000000000000000000000000000000000000000000000006064820152608401610454565b6001600160a01b038216610ae85760405162461bcd60e51b815260206004820152602360248201527f45524332303a207472616e7366657220746f20746865207a65726f206164647260448201527f65737300000000000000000000000000000000000000000000000000000000006064820152608401610454565b6001600160a01b03831660009081526020819052604090205481811015610b775760405162461bcd60e51b815260206004820152602660248201527f45524332303a207472616e7366657220616d6f756e742065786365656473206260448201527f616c616e636500000000000000000000000000000000000000000000000000006064820152608401610454565b6001600160a01b03808516600090815260208190526040808220858503905591851681529081208054849290610bae908490611498565b92505081905550826001600160a01b0316846001600160a01b03167fddf252ad1be2c89b69c2b068fc378daa952ba7f163c4a11628f55a4df523b3ef84604051610bfa91815260200190565b60405180910390a350505050565b60007f0000000000000000000000000000000000000000000000000000000000000000461415610c5757507f000000000000000000000000000000000000000000000000000000000000000090565b50604080517f00000000000000000000000000000000000000000000000000000000000000006020808301919091527f0000000000000000000000000000000000000000000000000000000000000000828401527f000000000000000000000000000000000000000000000000000000000000000060608301524660808301523060a0808401919091528351808403909101815260c0909201909252805191012090565b6001600160a01b038216610d515760405162461bcd60e51b815260206004820152601f60248201527f45524332303a206d696e7420746f20746865207a65726f2061646472657373006044820152606401610454565b8060026000828254610d639190611498565b90915550506001600160a01b03821660009081526020819052604081208054839290610d90908490611498565b90915550506040518181526001600160a01b038316906000907fddf252ad1be2c89b69c2b068fc378daa952ba7f163c4a11628f55a4df523b3ef9060200160405180910390a35050565b6001600160a01b038216610e565760405162461bcd60e51b815260206004820152602160248201527f45524332303a206275726e2066726f6d20746865207a65726f2061646472657360448201527f73000000000000000000000000000000000000000000000000000000000000006064820152608401610454565b6001600160a01b03821660009081526020819052604090205481811015610ee55760405162461bcd60e51b815260206004820152602260248201527f45524332303a206275726e20616d6f756e7420657863656564732062616c616e60448201527f63650000000000000000000000000000000000000000000000000000000000006064820152608401610454565b6001600160a01b0383166000908152602081905260408120838303905560028054849290610f149084906114b0565b90915550506040518281526000906001600160a01b038516907fddf252ad1be2c89b69c2b068fc378daa952ba7f163c4a11628f55a4df523b3ef9060200160405180910390a3505050565b6001600160a01b03811660009081526005602052604090208054600181018255905b50919050565b60006105fd610f94610c08565b836040517f19010000000000000000000000000000000000000000000000000000000000006020820152602281018390526042810182905260009060620160405160208183030381529060405280519060200120905092915050565b600080600061100187878787611018565b9150915061100e81611105565b5095945050505050565b6000807f7fffffffffffffffffffffffffffffff5d576e7357a4501ddfe92f46681b20a083111561104f57506000905060036110fc565b8460ff16601b1415801561106757508460ff16601c14155b1561107857506000905060046110fc565b6040805160008082526020820180845289905260ff881692820192909252606081018690526080810185905260019060a0016020604051602081039080840390855afa1580156110cc573d6000803e3d6000fd5b5050604051601f1901519150506001600160a01b0381166110f5576000600192509250506110fc565b9150600090505b94509492505050565b600081600481111561111957611119611512565b14156111225750565b600181600481111561113657611136611512565b14156111845760405162461bcd60e51b815260206004820152601860248201527f45434453413a20696e76616c6964207369676e617475726500000000000000006044820152606401610454565b600281600481111561119857611198611512565b14156111e65760405162461bcd60e51b815260206004820152601f60248201527f45434453413a20696e76616c6964207369676e6174757265206c656e677468006044820152606401610454565b60038160048111156111fa576111fa611512565b141561126e5760405162461bcd60e51b815260206004820152602260248201527f45434453413a20696e76616c6964207369676e6174757265202773272076616c60448201527f75650000000000000000000000000000000000000000000000000000000000006064820152608401610454565b600481600481111561128257611282611512565b14156112f65760405162461bcd60e51b815260206004820152602260248201527f45434453413a20696e76616c6964207369676e6174757265202776272076616c60448201527f75650000000000000000000000000000000000000000000000000000000000006064820152608401610454565b50565b80356001600160a01b038116811461131057600080fd5b919050565b60006020828403121561132757600080fd5b611330826112f9565b9392505050565b6000806040838503121561134a57600080fd5b611353836112f9565b9150611361602084016112f9565b90509250929050565b60008060006060848603121561137f57600080fd5b611388846112f9565b9250611396602085016112f9565b9150604084013590509250925092565b600080600080600080600060e0888a0312156113c157600080fd5b6113ca886112f9565b96506113d8602089016112f9565b95506040880135945060608801359350608088013560ff811681146113fc57600080fd5b9699959850939692959460a0840135945060c09093013592915050565b6000806040838503121561142c57600080fd5b611435836112f9565b946020939093013593505050565b600060208083528351808285015260005b8181101561147057858101830151858201604001528201611454565b81811115611482576000604083870101525b50601f01601f1916929092016040019392505050565b600082198211156114ab576114ab6114fc565b500190565b6000828210156114c2576114c26114fc565b500390565b600181811c908216806114db57607f821691505b60208210811415610f8157634e487b7160e01b600052602260045260246000fd5b634e487b7160e01b600052601160045260246000fd5b634e487b7160e01b600052602160045260246000fdfea26469706673582212200b7eec9471a2868c1d5c34c3566b003a3df16290d621bba453dba1828fff655f64736f6c63430008060033",
  "linkReferences": {},
  "deployedLinkReferences": {}
}