{
  "_format": "hh-sol-artifact-1",
  "contractName": "Alchemist",
  "sourceName": "contracts/v3/alchemix/Alchemist.sol",
  "abi": [
    {
      "inputs": [
        {
          "internalType": "contract IMintableERC20",
          "name": "_token",
          "type": "address"
        },
        {
          "internalType": "contract IMintableERC20",
          "name": "_xtoken",
          "type": "address"
        },
        {
          "internalType": "address",
          "name": "_governance",
          "type": "address"
        },
        {
          "internalType": "address",
          "name": "_sentinel",
          "type": "address"
        }
      ],
      "stateMutability": "nonpayable",
      "type": "constructor"
    },
    {
      "anonymous": false,
      "inputs": [
        {
          "indexed": true,
          "internalType": "contract IVaultAdapter",
          "name": "adapter",
          "type": "address"
        }
      ],
      "name": "ActiveVaultUpdated",
      "type": "event"
    },
    {
      "anonymous": false,
      "inputs": [
        {
          "indexed": false,
          "internalType": "uint256",
          "name": "limit",
          "type": "uint256"
        }
      ],
      "name": "CollateralizationLimitUpdated",
      "type": "event"
    },
    {
      "anonymous": false,
      "inputs": [
        {
          "indexed": false,
          "internalType": "bool",
          "name": "status",
          "type": "bool"
        }
      ],
      "name": "EmergencyExitUpdated",
      "type": "event"
    },
    {
      "anonymous": false,
      "inputs": [
        {
          "indexed": false,
          "internalType": "uint256",
          "name": "amount",
          "type": "uint256"
        }
      ],
      "name": "FundsFlushed",
      "type": "event"
    },
    {
      "anonymous": false,
      "inputs": [
        {
          "indexed": false,
          "internalType": "uint256",
          "name": "withdrawnAmount",
          "type": "uint256"
        },
        {
          "indexed": false,
          "internalType": "uint256",
          "name": "decreasedValue",
          "type": "uint256"
        }
      ],
      "name": "FundsHarvested",
      "type": "event"
    },
    {
      "anonymous": false,
      "inputs": [
        {
          "indexed": true,
          "internalType": "uint256",
          "name": "vaultId",
          "type": "uint256"
        },
        {
          "indexed": false,
          "internalType": "uint256",
          "name": "withdrawnAmount",
          "type": "uint256"
        },
        {
          "indexed": false,
          "internalType": "uint256",
          "name": "decreasedValue",
          "type": "uint256"
        }
      ],
      "name": "FundsRecalled",
      "type": "event"
    },
    {
      "anonymous": false,
      "inputs": [
        {
          "indexed": false,
          "internalType": "address",
          "name": "governance",
          "type": "address"
        }
      ],
      "name": "GovernanceUpdated",
      "type": "event"
    },
    {
      "anonymous": false,
      "inputs": [
        {
          "indexed": false,
          "internalType": "uint256",
          "name": "fee",
          "type": "uint256"
        }
      ],
      "name": "HarvestFeeUpdated",
      "type": "event"
    },
    {
      "anonymous": false,
      "inputs": [
        {
          "indexed": false,
          "internalType": "address",
          "name": "pendingGovernance",
          "type": "address"
        }
      ],
      "name": "PendingGovernanceUpdated",
      "type": "event"
    },
    {
      "anonymous": false,
      "inputs": [
        {
          "indexed": false,
          "internalType": "address",
          "name": "treasury",
          "type": "address"
        }
      ],
      "name": "RewardsUpdated",
      "type": "event"
    },
    {
      "anonymous": false,
      "inputs": [
        {
          "indexed": false,
          "internalType": "address",
          "name": "sentinel",
          "type": "address"
        }
      ],
      "name": "SentinelUpdated",
      "type": "event"
    },
    {
      "anonymous": false,
      "inputs": [
        {
          "indexed": true,
          "internalType": "address",
          "name": "account",
          "type": "address"
        },
        {
          "indexed": false,
          "internalType": "uint256",
          "name": "amount",
          "type": "uint256"
        }
      ],
      "name": "TokensDeposited",
      "type": "event"
    },
    {
      "anonymous": false,
      "inputs": [
        {
          "indexed": true,
          "internalType": "address",
          "name": "account",
          "type": "address"
        },
        {
          "indexed": false,
          "internalType": "uint256",
          "name": "requestedAmount",
          "type": "uint256"
        },
        {
          "indexed": false,
          "internalType": "uint256",
          "name": "withdrawnAmount",
          "type": "uint256"
        },
        {
          "indexed": false,
          "internalType": "uint256",
          "name": "decreasedValue",
          "type": "uint256"
        }
      ],
      "name": "TokensLiquidated",
      "type": "event"
    },
    {
      "anonymous": false,
      "inputs": [
        {
          "indexed": true,
          "internalType": "address",
          "name": "account",
          "type": "address"
        },
        {
          "indexed": false,
          "internalType": "uint256",
          "name": "parentAmount",
          "type": "uint256"
        },
        {
          "indexed": false,
          "internalType": "uint256",
          "name": "childAmount",
          "type": "uint256"
        }
      ],
      "name": "TokensRepaid",
      "type": "event"
    },
    {
      "anonymous": false,
      "inputs": [
        {
          "indexed": true,
          "internalType": "address",
          "name": "account",
          "type": "address"
        },
        {
          "indexed": false,
          "internalType": "uint256",
          "name": "requestedAmount",
          "type": "uint256"
        },
        {
          "indexed": false,
          "internalType": "uint256",
          "name": "withdrawnAmount",
          "type": "uint256"
        },
        {
          "indexed": false,
          "internalType": "uint256",
          "name": "decreasedValue",
          "type": "uint256"
        }
      ],
      "name": "TokensWithdrawn",
      "type": "event"
    },
    {
      "anonymous": false,
      "inputs": [
        {
          "indexed": false,
          "internalType": "address",
          "name": "transmuter",
          "type": "address"
        }
      ],
      "name": "TransmuterUpdated",
      "type": "event"
    },
    {
      "inputs": [],
      "name": "MAXIMUM_COLLATERALIZATION_LIMIT",
      "outputs": [
        {
          "internalType": "uint256",
          "name": "",
          "type": "uint256"
        }
      ],
      "stateMutability": "view",
      "type": "function"
    },
    {
      "inputs": [],
      "name": "MINIMUM_COLLATERALIZATION_LIMIT",
      "outputs": [
        {
          "internalType": "uint256",
          "name": "",
          "type": "uint256"
        }
      ],
      "stateMutability": "view",
      "type": "function"
    },
    {
      "inputs": [],
      "name": "PERCENT_RESOLUTION",
      "outputs": [
        {
          "internalType": "uint256",
          "name": "",
          "type": "uint256"
        }
      ],
      "stateMutability": "view",
      "type": "function"
    },
    {
      "inputs": [],
      "name": "ZERO_ADDRESS",
      "outputs": [
        {
          "internalType": "address",
          "name": "",
          "type": "address"
        }
      ],
      "stateMutability": "view",
      "type": "function"
    },
    {
      "inputs": [],
      "name": "_linkGasOracle",
      "outputs": [
        {
          "internalType": "address",
          "name": "",
          "type": "address"
        }
      ],
      "stateMutability": "view",
      "type": "function"
    },
    {
      "inputs": [],
      "name": "acceptGovernance",
      "outputs": [],
      "stateMutability": "nonpayable",
      "type": "function"
    },
    {
      "inputs": [],
      "name": "borrowFee",
      "outputs": [
        {
          "internalType": "uint256",
          "name": "",
          "type": "uint256"
        }
      ],
      "stateMutability": "view",
      "type": "function"
    },
    {
      "inputs": [],
      "name": "collateralizationLimit",
      "outputs": [
        {
          "components": [
            {
              "internalType": "uint256",
              "name": "x",
              "type": "uint256"
            }
          ],
          "internalType": "struct FixedPointMath.FixedDecimal",
          "name": "",
          "type": "tuple"
        }
      ],
      "stateMutability": "view",
      "type": "function"
    },
    {
      "inputs": [
        {
          "internalType": "uint256",
          "name": "_amount",
          "type": "uint256"
        }
      ],
      "name": "deposit",
      "outputs": [],
      "stateMutability": "nonpayable",
      "type": "function"
    },
    {
      "inputs": [],
      "name": "emergencyExit",
      "outputs": [
        {
          "internalType": "bool",
          "name": "",
          "type": "bool"
        }
      ],
      "stateMutability": "view",
      "type": "function"
    },
    {
      "inputs": [],
      "name": "flush",
      "outputs": [
        {
          "internalType": "uint256",
          "name": "",
          "type": "uint256"
        }
      ],
      "stateMutability": "nonpayable",
      "type": "function"
    },
    {
      "inputs": [],
      "name": "flushActivator",
      "outputs": [
        {
          "internalType": "uint256",
          "name": "",
          "type": "uint256"
        }
      ],
      "stateMutability": "view",
      "type": "function"
    },
    {
      "inputs": [
        {
          "internalType": "address",
          "name": "_account",
          "type": "address"
        }
      ],
      "name": "getCdpLastDeposit",
      "outputs": [
        {
          "internalType": "uint256",
          "name": "",
          "type": "uint256"
        }
      ],
      "stateMutability": "view",
      "type": "function"
    },
    {
      "inputs": [
        {
          "internalType": "address",
          "name": "_account",
          "type": "address"
        }
      ],
      "name": "getCdpTotalCredit",
      "outputs": [
        {
          "internalType": "uint256",
          "name": "",
          "type": "uint256"
        }
      ],
      "stateMutability": "view",
      "type": "function"
    },
    {
      "inputs": [
        {
          "internalType": "address",
          "name": "_account",
          "type": "address"
        }
      ],
      "name": "getCdpTotalDebt",
      "outputs": [
        {
          "internalType": "uint256",
          "name": "",
          "type": "uint256"
        }
      ],
      "stateMutability": "view",
      "type": "function"
    },
    {
      "inputs": [
        {
          "internalType": "address",
          "name": "_account",
          "type": "address"
        }
      ],
      "name": "getCdpTotalDeposited",
      "outputs": [
        {
          "internalType": "uint256",
          "name": "",
          "type": "uint256"
        }
      ],
      "stateMutability": "view",
      "type": "function"
    },
    {
      "inputs": [
        {
          "internalType": "uint256",
          "name": "_vaultId",
          "type": "uint256"
        }
      ],
      "name": "getVaultAdapter",
      "outputs": [
        {
          "internalType": "contract IVaultAdapter",
          "name": "",
          "type": "address"
        }
      ],
      "stateMutability": "view",
      "type": "function"
    },
    {
      "inputs": [
        {
          "internalType": "uint256",
          "name": "_vaultId",
          "type": "uint256"
        }
      ],
      "name": "getVaultTotalDeposited",
      "outputs": [
        {
          "internalType": "uint256",
          "name": "",
          "type": "uint256"
        }
      ],
      "stateMutability": "view",
      "type": "function"
    },
    {
      "inputs": [],
      "name": "governance",
      "outputs": [
        {
          "internalType": "address",
          "name": "",
          "type": "address"
        }
      ],
      "stateMutability": "view",
      "type": "function"
    },
    {
      "inputs": [
        {
          "internalType": "uint256",
          "name": "_vaultId",
          "type": "uint256"
        }
      ],
      "name": "harvest",
      "outputs": [
        {
          "internalType": "uint256",
          "name": "",
          "type": "uint256"
        },
        {
          "internalType": "uint256",
          "name": "",
          "type": "uint256"
        }
      ],
      "stateMutability": "nonpayable",
      "type": "function"
    },
    {
      "inputs": [],
      "name": "harvestFee",
      "outputs": [
        {
          "internalType": "uint256",
          "name": "",
          "type": "uint256"
        }
      ],
      "stateMutability": "view",
      "type": "function"
    },
    {
      "inputs": [
        {
          "internalType": "contract IVaultAdapter",
          "name": "_adapter",
          "type": "address"
        }
      ],
      "name": "initialize",
      "outputs": [],
      "stateMutability": "nonpayable",
      "type": "function"
    },
    {
      "inputs": [],
      "name": "initialized",
      "outputs": [
        {
          "internalType": "bool",
          "name": "",
          "type": "bool"
        }
      ],
      "stateMutability": "view",
      "type": "function"
    },
    {
      "inputs": [
        {
          "internalType": "uint256",
          "name": "_amount",
          "type": "uint256"
        }
      ],
      "name": "liquidate",
      "outputs": [
        {
          "internalType": "uint256",
          "name": "",
          "type": "uint256"
        },
        {
          "internalType": "uint256",
          "name": "",
          "type": "uint256"
        }
      ],
      "stateMutability": "nonpayable",
      "type": "function"
    },
    {
      "inputs": [
        {
          "internalType": "contract IVaultAdapter",
          "name": "_adapter",
          "type": "address"
        }
      ],
      "name": "migrate",
      "outputs": [],
      "stateMutability": "nonpayable",
      "type": "function"
    },
    {
      "inputs": [
        {
          "internalType": "uint256",
          "name": "_amount",
          "type": "uint256"
        }
      ],
      "name": "mint",
      "outputs": [],
      "stateMutability": "nonpayable",
      "type": "function"
    },
    {
      "inputs": [],
      "name": "pegMinimum",
      "outputs": [
        {
          "internalType": "uint256",
          "name": "",
          "type": "uint256"
        }
      ],
      "stateMutability": "view",
      "type": "function"
    },
    {
      "inputs": [],
      "name": "pendingGovernance",
      "outputs": [
        {
          "internalType": "address",
          "name": "",
          "type": "address"
        }
      ],
      "stateMutability": "view",
      "type": "function"
    },
    {
      "inputs": [
        {
          "internalType": "uint256",
          "name": "_vaultId",
          "type": "uint256"
        },
        {
          "internalType": "uint256",
          "name": "_amount",
          "type": "uint256"
        }
      ],
      "name": "recall",
      "outputs": [
        {
          "internalType": "uint256",
          "name": "",
          "type": "uint256"
        },
        {
          "internalType": "uint256",
          "name": "",
          "type": "uint256"
        }
      ],
      "stateMutability": "nonpayable",
      "type": "function"
    },
    {
      "inputs": [
        {
          "internalType": "uint256",
          "name": "_vaultId",
          "type": "uint256"
        }
      ],
      "name": "recallAll",
      "outputs": [
        {
          "internalType": "uint256",
          "name": "",
          "type": "uint256"
        },
        {
          "internalType": "uint256",
          "name": "",
          "type": "uint256"
        }
      ],
      "stateMutability": "nonpayable",
      "type": "function"
    },
    {
      "inputs": [
        {
          "internalType": "uint256",
          "name": "_parentAmount",
          "type": "uint256"
        },
        {
          "internalType": "uint256",
          "name": "_childAmount",
          "type": "uint256"
        }
      ],
      "name": "repay",
      "outputs": [],
      "stateMutability": "nonpayable",
      "type": "function"
    },
    {
      "inputs": [],
      "name": "rewards",
      "outputs": [
        {
          "internalType": "address",
          "name": "",
          "type": "address"
        }
      ],
      "stateMutability": "view",
      "type": "function"
    },
    {
      "inputs": [],
      "name": "sentinel",
      "outputs": [
        {
          "internalType": "address",
          "name": "",
          "type": "address"
        }
      ],
      "stateMutability": "view",
      "type": "function"
    },
    {
      "inputs": [
        {
          "internalType": "uint256",
          "name": "_borrowFee",
          "type": "uint256"
        }
      ],
      "name": "setBorrowFee",
      "outputs": [],
      "stateMutability": "nonpayable",
      "type": "function"
    },
    {
      "inputs": [
        {
          "internalType": "uint256",
          "name": "_limit",
          "type": "uint256"
        }
      ],
      "name": "setCollateralizationLimit",
      "outputs": [],
      "stateMutability": "nonpayable",
      "type": "function"
    },
    {
      "inputs": [
        {
          "internalType": "bool",
          "name": "_emergencyExit",
          "type": "bool"
        }
      ],
      "name": "setEmergencyExit",
      "outputs": [],
      "stateMutability": "nonpayable",
      "type": "function"
    },
    {
      "inputs": [
        {
          "internalType": "uint256",
          "name": "_flushActivator",
          "type": "uint256"
        }
      ],
      "name": "setFlushActivator",
      "outputs": [],
      "stateMutability": "nonpayable",
      "type": "function"
    },
    {
      "inputs": [
        {
          "internalType": "uint256",
          "name": "_harvestFee",
          "type": "uint256"
        }
      ],
      "name": "setHarvestFee",
      "outputs": [],
      "stateMutability": "nonpayable",
      "type": "function"
    },
    {
      "inputs": [
        {
          "internalType": "uint256",
          "name": "peg",
          "type": "uint256"
        }
      ],
      "name": "setPegMinimum",
      "outputs": [],
      "stateMutability": "nonpayable",
      "type": "function"
    },
    {
      "inputs": [
        {
          "internalType": "address",
          "name": "_pendingGovernance",
          "type": "address"
        }
      ],
      "name": "setPendingGovernance",
      "outputs": [],
      "stateMutability": "nonpayable",
      "type": "function"
    },
    {
      "inputs": [
        {
          "internalType": "address",
          "name": "_rewards",
          "type": "address"
        }
      ],
      "name": "setRewards",
      "outputs": [],
      "stateMutability": "nonpayable",
      "type": "function"
    },
    {
      "inputs": [
        {
          "internalType": "address",
          "name": "_sentinel",
          "type": "address"
        }
      ],
      "name": "setSentinel",
      "outputs": [],
      "stateMutability": "nonpayable",
      "type": "function"
    },
    {
      "inputs": [
        {
          "internalType": "address",
          "name": "_transmuter",
          "type": "address"
        }
      ],
      "name": "setTransmuter",
      "outputs": [],
      "stateMutability": "nonpayable",
      "type": "function"
    },
    {
      "inputs": [],
      "name": "token",
      "outputs": [
        {
          "internalType": "contract IMintableERC20",
          "name": "",
          "type": "address"
        }
      ],
      "stateMutability": "view",
      "type": "function"
    },
    {
      "inputs": [],
      "name": "totalDeposited",
      "outputs": [
        {
          "internalType": "uint256",
          "name": "",
          "type": "uint256"
        }
      ],
      "stateMutability": "view",
      "type": "function"
    },
    {
      "inputs": [],
      "name": "transmuter",
      "outputs": [
        {
          "internalType": "address",
          "name": "",
          "type": "address"
        }
      ],
      "stateMutability": "view",
      "type": "function"
    },
    {
      "inputs": [],
      "name": "vaultCount",
      "outputs": [
        {
          "internalType": "uint256",
          "name": "",
          "type": "uint256"
        }
      ],
      "stateMutability": "view",
      "type": "function"
    },
    {
      "inputs": [
        {
          "internalType": "uint256",
          "name": "_amount",
          "type": "uint256"
        }
      ],
      "name": "withdraw",
      "outputs": [
        {
          "internalType": "uint256",
          "name": "",
          "type": "uint256"
        },
        {
          "internalType": "uint256",
          "name": "",
          "type": "uint256"
        }
      ],
      "stateMutability": "nonpayable",
      "type": "function"
    },
    {
      "inputs": [],
      "name": "xtoken",
      "outputs": [
        {
          "internalType": "contract IMintableERC20",
          "name": "",
          "type": "address"
        }
      ],
      "stateMutability": "view",
      "type": "function"
    }
  ],
  "bytecode": "0x60806040523480156200001157600080fd5b50604051620038a0380380620038a083398101604081905262000034916200018a565b60016000556001600160a01b0382166200006b5760405162461bcd60e51b81526004016200006290620001f1565b60405180910390fd5b6001600160a01b038116620000945760405162461bcd60e51b815260040162000062906200027e565b600180546001600160a01b03199081166001600160a01b03878116919091179092556002805482168684161781556003805483168685161790556005805490921692841692909217905569152d02c7e14af6800000600b556000906200011090670de0b6b3a76400009062000141602090811b62001b1617901c565b604080516020808201835290839052600d9290925580519182019052600090819052600e5550620002e19350505050565b600082620001525750600062000184565b828202828482816200016057fe5b0414620001815760405162461bcd60e51b815260040162000062906200023d565b90505b92915050565b60008060008060808587031215620001a0578384fd5b8451620001ad81620002c8565b6020860151909450620001c081620002c8565b6040860151909350620001d381620002c8565b6060860151909250620001e681620002c8565b939692955090935050565b6020808252602c908201527f416c6368656d6973743a20676f7665726e616e6365206164647265737320636160408201526b373737ba10313290183c181760a11b606082015260800190565b60208082526021908201527f536166654d6174683a206d756c7469706c69636174696f6e206f766572666c6f6040820152607760f81b606082015260800190565b6020808252602a908201527f416c6368656d6973743a2073656e74696e656c20616464726573732063616e6e60408201526937ba10313290183c181760b11b606082015260800190565b6001600160a01b0381168114620002de57600080fd5b50565b6135af80620002f16000396000f3fe608060405234801561001057600080fd5b50600436106102bb5760003560e01c80639a9af22111610182578063c869adb4116100e9578063f0d787a3116100a2578063fc00e8a01161007c578063fc00e8a01461057d578063fc0c546a14610590578063fefdc5d114610598578063ff50abdc146105ab576102bb565b8063f0d787a314610565578063f39c38a01461056d578063f58c251c14610575576102bb565b8063c869adb4146104fe578063ce5494bb14610511578063d8aed14514610524578063ddc6326214610537578063e626648a1461054a578063ec38a86214610552576102bb565b8063aa6e04341161013b578063aa6e043414610497578063aaf16660146104aa578063adb4a9ad146104bd578063b5962917146104d0578063b6b55f25146104d8578063c4d66de8146104eb576102bb565b80639a9af221146104465780639ec5a89414610459578063a005fda314610461578063a0712d6814610469578063a1e401a91461047c578063a7c6a1001461048f576102bb565b8063415f12401161022657806353ffa18b116101df57806353ffa18b146104005780635641ec03146104135780635aa6e6751461041b5780636b9f96ea146104235780637239d2b91461042b578063792b55b614610433576102bb565b8063415f1240146103a257806345ee0755146103b557806345f867b3146103c85780634aaf7c65146103d05780634c3a8e02146103e5578063538ba4f9146103f8576102bb565b8063238efcbc11610278578063238efcbc146103435780632670fdd81461034b5780632e1a7d4d1461035e57806330d4d1901461037f57806334024e02146103875780633847f0381461039a576102bb565b80630510111e146102c057806309dac061146102de5780630abb6035146102f3578063158ef93e146103065780631718a68f1461031b57806322c37b7514610330575b600080fd5b6102c86105b3565b6040516102d591906134a5565b60405180910390f35b6102f16102ec366004612c14565b6105bf565b005b6102f1610301366004612c14565b61066e565b61030e610709565b6040516102d59190612d42565b610323610712565b6040516102d59190612cf1565b6102f161033e366004612c84565b610721565b6102f1610750565b610323610359366004612c84565b6107cb565b61037161036c366004612c84565b6107ea565b6040516102d59291906134ae565b6102c861098b565b6102f1610395366004612c84565b610997565b6102c86109c6565b6103716103b0366004612c84565b6109cc565b6102f16103c3366004612c30565b610bb8565b6102c8610c3a565b6103d8610c40565b6040516102d5919061349b565b6103716103f3366004612c84565b610c5c565b610323610cd6565b6102f161040e366004612c84565b610cdb565b61030e610d95565b610323610da3565b6102c8610db2565b610323610e38565b6102f1610441366004612c84565b610e47565b6102c8610454366004612c14565b610ec8565b610323610ee6565b610323610ef5565b6102f1610477366004612c84565b610f04565b6102c861048a366004612c14565b6111e8565b6102c8611203565b6102c86104a5366004612c14565b611214565b6102c86104b8366004612c84565b61123e565b6102f16104cb366004612c14565b611257565b6102c86112f2565b6102f16104e6366004612c84565b6112f8565b6102f16104f9366004612c14565b611447565b6102f161050c366004612c84565b6114fd565b6102f161051f366004612c14565b61157e565b6102f1610532366004612cb4565b6115d6565b610371610545366004612c84565b61188f565b6102c86119c2565b6102f1610560366004612c14565b6119c8565b6102c8611a63565b610323611a69565b610323611a78565b6102c861058b366004612c14565b611a87565b610323611aaa565b6103716105a6366004612cb4565b611ab9565b6102c8611b10565b673782dace9d90000081565b6003546001600160a01b031633146105f25760405162461bcd60e51b81526004016105e99061304c565b60405180910390fd5b6001600160a01b0381166106185760405162461bcd60e51b81526004016105e9906132dc565b600580546001600160a01b0319166001600160a01b0383161790556040517fdc117600f93282860144d2cd2745f8e2e15c3ca2a32b4290c30f7cd1ae7ffcb990610663908390612cf1565b60405180910390a150565b6003546001600160a01b031633146106985760405162461bcd60e51b81526004016105e99061304c565b6001600160a01b0381166106be5760405162461bcd60e51b81526004016105e990612dcc565b600480546001600160a01b0319166001600160a01b0383161790556040517fc9e2377236eab4280090ce8f2317332649736d92f00dcf20a8dd6684ec5e783990610663908390612cf1565b600c5460ff1681565b6002546001600160a01b031681565b6003546001600160a01b0316331461074b5760405162461bcd60e51b81526004016105e99061304c565b600b55565b6004546001600160a01b0316331461077a5760405162461bcd60e51b81526004016105e990613109565b600454600380546001600160a01b0319166001600160a01b0390921691821790556040517f9d3e522e1e47a2f6009739342b9cc7b252a1888154e843ab55ee1c81745795ab90610663908390612cf1565b6000806107d9601084611b59565b546001600160a01b03169392505050565b600080600260005414156108105760405162461bcd60e51b81526004016105e990613326565b600260005561081e33611b80565b15801561082a57503332145b6108465760405162461bcd60e51b81526004016105e990612ef8565b600c5460ff166108685760405162461bcd60e51b81526004016105e99061325b565b336000908152600f602052604090206003810154431161089a5760405162461bcd60e51b81526004016105e990613140565b6108a581600d611b86565b6000806108b23387611be2565b60408051808201909152601b81527f4578636565647320776974686472617761626c6520616d6f756e740000000000602082015285549294509092506108fa91908390611d0d565b83556040805160608101909152603180825261092391600d916135226020830139859190611d39565b600b54861061093657610934611d68565b505b336001600160a01b03167fb3ad69dc1d2c6b1f5f5b0927ffd8ee8f1437a156253c8f6dccc75e6f8e4fd38b878484604051610973939291906134bc565b60405180910390a26001600055909590945092505050565b670de0b6b3a764000081565b6003546001600160a01b031633146109c15760405162461bcd60e51b81526004016105e99061304c565b601255565b60125481565b600080600260005414156109f25760405162461bcd60e51b81526004016105e990613326565b6002600055610a0033611b80565b158015610a0c57503332145b610a285760405162461bcd60e51b81526004016105e990612ef8565b60125415610ad657601254600160009054906101000a90046001600160a01b03166001600160a01b031663bb7b8b806040518163ffffffff1660e01b815260040160206040518083038186803b158015610a8157600080fd5b505afa158015610a95573d6000803e3d6000fd5b505050506040513d601f19601f82011682018060405250810190610ab99190612c9c565b11610ad65760405162461bcd60e51b81526004016105e9906133e2565b600c5460ff16610af85760405162461bcd60e51b81526004016105e99061325b565b336000908152600f60205260409020610b1281600d611b86565b8060010154841115610b2657806001015493505b600080610b333087611be2565b91509150610b4082611dc1565b6040805160208101909152600081528354610b5c918390611d0d565b83556040805160208101909152600081526001840154610b7d918490611d0d565b600184015560405133907f3ea051727656be6fd11c2260f244f29ff3c70d1fb077bfa73e89d554e9bb95c790610973908990869086906134bc565b6003546001600160a01b0316331480610bdb57506005546001600160a01b031633145b610bf75760405162461bcd60e51b81526004016105e990613140565b600c805461ff001916610100831515021790556040517ff0064f2efd0da4bc63eecf2e75590fe8a308eaa526a51c334e50eec09a71104990610663908390612d42565b61271081565b610c48612c01565b506040805160208101909152600d54815290565b60008060026000541415610c825760405162461bcd60e51b81526004016105e990613326565b6002600055600c5460ff16610ca95760405162461bcd60e51b81526004016105e99061325b565b6000610cb6601085611b59565b9050610cc6848260010154611f13565b6001600055909590945092505050565b600081565b6003546001600160a01b03163314610d055760405162461bcd60e51b81526004016105e99061304c565b670de0b6b3a7640000811015610d2d5760405162461bcd60e51b81526004016105e990612faa565b673782dace9d900000811115610d555760405162461bcd60e51b81526004016105e990612ffb565b60408051602081018252829052600d829055517ff78180bc708b1292177c888900951cd66a39faf48dc7b6d111e93285dbbe55a0906106639083906134a5565b600c54610100900460ff1681565b6003546001600160a01b031681565b600060026000541415610dd75760405162461bcd60e51b81526004016105e990613326565b6002600055600c5460ff16610dfe5760405162461bcd60e51b81526004016105e99061325b565b600c54610100900460ff1615610e265760405162461bcd60e51b81526004016105e990613151565b610e2e611d68565b9050600160005590565b6006546001600160a01b031681565b6003546001600160a01b03163314610e715760405162461bcd60e51b81526004016105e99061304c565b612710811115610e935760405162461bcd60e51b81526004016105e9906130c4565b60088190556040517fc36862a253ff42cc71f4f200d3c62e8e5eaaece01041fc6900aeace64ade72a8906106639083906134a5565b6001600160a01b03166000908152600f602052604090206003015490565b6007546001600160a01b031681565b6011546001600160a01b031681565b60026000541415610f275760405162461bcd60e51b81526004016105e990613326565b6002600055610f3533611b80565b158015610f4157503332145b610f5d5760405162461bcd60e51b81526004016105e990612ef8565b6012541561100b57601254600160009054906101000a90046001600160a01b03166001600160a01b031663bb7b8b806040518163ffffffff1660e01b815260040160206040518083038186803b158015610fb657600080fd5b505afa158015610fca573d6000803e3d6000fd5b505050506040513d601f19601f82011682018060405250810190610fee9190612c9c565b1161100b5760405162461bcd60e51b81526004016105e9906133e2565b600c5460ff1661102d5760405162461bcd60e51b81526004016105e99061325b565b336000908152600f6020526040902061104781600d611b86565b6002810154828110156111575760006110608483611fcf565b6009549091501561110f57600061108e61271061108860095485611b1690919063ffffffff16565b90612011565b60018501549091506110a09082612053565b60018501556002546007546040516340c10f1960e01b81526001600160a01b03928316926340c10f19926110db929116908590600401612d05565b600060405180830381600087803b1580156110f557600080fd5b505af1158015611109573d6000803e3d6000fd5b50505050505b600183015461111e9082612053565b6001840155600060028401556040805160608101909152602780825261115191600d916135536020830139859190611d39565b50611167565b6111618184611fcf565b60028301555b6002546040516340c10f1960e01b81526001600160a01b03909116906340c10f19906111999033908790600401612d05565b600060405180830381600087803b1580156111b357600080fd5b505af11580156111c7573d6000803e3d6000fd5b50505050600b5483106111de576111dc611d68565b505b5050600160005550565b6001600160a01b03166000908152600f602052604090205490565b600061120f6010612078565b905090565b6001600160a01b0381166000908152600f6020526040812061123781600d61207c565b9392505050565b60008061124c601084611b59565b600101549392505050565b6003546001600160a01b031633146112815760405162461bcd60e51b81526004016105e99061304c565b6001600160a01b0381166112a75760405162461bcd60e51b81526004016105e990612d80565b600680546001600160a01b0319166001600160a01b0383161790556040517fe42bb1780117f5788c6e0042e955291223819875891ddf465b8e4fbb85a933e990610663908390612cf1565b60085481565b6002600054141561131b5760405162461bcd60e51b81526004016105e990613326565b600260005561132933611b80565b15801561133557503332145b6113515760405162461bcd60e51b81526004016105e990612ef8565b600c5460ff166113735760405162461bcd60e51b81526004016105e99061325b565b600c54610100900460ff161561139b5760405162461bcd60e51b81526004016105e990613151565b336000908152600f602052604090206113b581600d611b86565b6001546113cd906001600160a01b03163330856120bb565b600b5482106113e0576113de611d68565b505b600a546113ed9083612053565b600a5580546113fc9083612053565b815543600382015560405133907f59062170a285eb80e8c6b8ced60428442a51910635005233fc4ce084a475845e906114369085906134a5565b60405180910390a250506001600055565b6003546001600160a01b031633146114715760405162461bcd60e51b81526004016105e99061304c565b600c5460ff16156114945760405162461bcd60e51b81526004016105e990612f2d565b6006546001600160a01b03166114bc5760405162461bcd60e51b81526004016105e990612e18565b6007546001600160a01b03166114e45760405162461bcd60e51b81526004016105e990612ea5565b6114ed81612113565b50600c805460ff19166001179055565b6003546001600160a01b031633146115275760405162461bcd60e51b81526004016105e99061304c565b6127108111156115495760405162461bcd60e51b81526004016105e99061340e565b60098190556040517fc36862a253ff42cc71f4f200d3c62e8e5eaaece01041fc6900aeace64ade72a8906106639083906134a5565b600c5460ff166115a05760405162461bcd60e51b81526004016105e99061325b565b6003546001600160a01b031633146115ca5760405162461bcd60e51b81526004016105e99061304c565b6115d381612113565b50565b600260005414156115f95760405162461bcd60e51b81526004016105e990613326565b600260005561160733611b80565b15801561161357503332145b61162f5760405162461bcd60e51b81526004016105e990612ef8565b601254156116dd57601254600160009054906101000a90046001600160a01b03166001600160a01b031663bb7b8b806040518163ffffffff1660e01b815260040160206040518083038186803b15801561168857600080fd5b505afa15801561169c573d6000803e3d6000fd5b505050506040513d601f19601f820116820180604052508101906116c09190612c9c565b116116dd5760405162461bcd60e51b81526004016105e9906133e2565b600c5460ff166116ff5760405162461bcd60e51b81526004016105e99061325b565b336000908152600f6020526040902061171981600d611b86565b821561174057600154611737906001600160a01b03163330866120bb565b61174083611dc1565b811561180d5760025460405163079cc67960e41b81526001600160a01b03909116906379cc6790906117789033908690600401612d05565b600060405180830381600087803b15801561179257600080fd5b505af11580156117a6573d6000803e3d6000fd5b505060025460405163288aafcb60e01b81526001600160a01b03909116925063288aafcb91506117da9085906004016134a5565b600060405180830381600087803b1580156117f457600080fd5b505af1158015611808573d6000803e3d6000fd5b505050505b60006118198484612053565b905061184381604051806020016040528060008152508460010154611d0d9092919063ffffffff16565b600183015560405133907fbade234341a40ca3c71df59b3ca02b8bb65b491a098af970953228b4f4a5d38f9061187c90879087906134ae565b60405180910390a2505060016000555050565b600c54600090819060ff166118b65760405162461bcd60e51b81526004016105e99061325b565b60006118c3601085611b59565b90506000806118d2833061223e565b9092509050811561197e5760006118fa61271061108860085486611b1690919063ffffffff16565b905060006119088483611fcf565b9050611912612c01565b611927600a5461192184612291565b906122d3565b6040805160208101909152600e5481529091506119449082612307565b51600e55821561196b5760075460015461196b916001600160a01b03918216911685612337565b811561197a5761197a82611dc1565b5050505b7f11d2034f4471d11a13f0f1798ceaf0c9db2812d450a0681958ce7d4f2fb97f0982826040516119af9291906134ae565b60405180910390a1909350915050915091565b60095481565b6003546001600160a01b031633146119f25760405162461bcd60e51b81526004016105e99061304c565b6001600160a01b038116611a185760405162461bcd60e51b81526004016105e990613452565b600780546001600160a01b0319166001600160a01b0383161790556040517f05f3326e0527f309d4015dee3bc3f36e650b53fc823bab69c99847814acfafdf90610663908390612cf1565b600b5481565b6004546001600160a01b031681565b6005546001600160a01b031681565b6001600160a01b0381166000908152600f6020526040812061123781600d61235b565b6001546001600160a01b031681565b60008060026000541415611adf5760405162461bcd60e51b81526004016105e990613326565b6002600055600c5460ff16611b065760405162461bcd60e51b81526004016105e99061325b565b610cc68484611f13565b600a5481565b600082611b2557506000611b53565b82820282848281611b3257fe5b0414611b505760405162461bcd60e51b81526004016105e990613083565b90505b92915050565b6000826000018281548110611b6a57fe5b9060005260206000209060020201905092915050565b3b151590565b6000611b9283836123a2565b90508260010154811115611bc0576001830180546000909155611bb58282611fcf565b600285015550611bd5565b6001830154611bcf9082611fcf565b60018401555b5060010154600490910155565b6001546040516370a0823160e01b815260009182918291611c729186916001600160a01b0316906370a0823190611c1d903090600401612cf1565b60206040518083038186803b158015611c3557600080fd5b505afa158015611c49573d6000803e3d6000fd5b505050506040513d601f19601f82011682018060405250810190611c6d9190612c9c565b61241b565b90506001600160a01b0385163014611c9b57600154611c9b906001600160a01b03168683612337565b80806000611ca98783611fcf565b90508015611cee576000611cbd6010612431565b9050600080611ccd838c8661245c565b9092509050611cdc8683612053565b9550611ce88582612053565b94505050505b600a54611cfb9083611fcf565b600a55509093509150505b9250929050565b60008184841115611d315760405162461bcd60e51b81526004016105e99190612d4d565b505050900390565b611d438383612492565b8190611d625760405162461bcd60e51b81526004016105e99190612d4d565b50505050565b600080611d756010612431565b90506000611d82826124c0565b90507f860f4701faa0ecdeecd9e9eaae11a8612bbd01c663081f7c0c4e4873df653d6981604051611db391906134a5565b60405180910390a191505090565b60015460065460405163095ea7b360e01b81526001600160a01b039283169263095ea7b392611df7929116908590600401612d05565b602060405180830381600087803b158015611e1157600080fd5b505af1158015611e25573d6000803e3d6000fd5b505050506040513d601f19601f82011682018060405250810190611e499190612c4c565b50600654604051631f72642160e31b81526001600160a01b039091169063fb93210890611e7c9030908590600401612d05565b600060405180830381600087803b158015611e9657600080fd5b505af1158015611eaa573d6000803e3d6000fd5b505060025460405163288aafcb60e01b81526001600160a01b03909116925063288aafcb9150611ede9084906004016134a5565b600060405180830381600087803b158015611ef857600080fd5b505af1158015611f0c573d6000803e3d6000fd5b5050505050565b600c546000908190610100900460ff1680611f3857506003546001600160a01b031633145b80611f4c5750611f486010612554565b8414155b611f685760405162461bcd60e51b81526004016105e9906131bf565b6000611f75601086611b59565b9050600080611f8583308861245c565b91509150867fccbd929f935422b28ee209a0db0556280b0a3d9bc4da58f1d3f0ab4f8a4996478383604051611fbb9291906134ae565b60405180910390a290969095509350505050565b6000611b5083836040518060400160405280601e81526020017f536166654d6174683a207375627472616374696f6e206f766572666c6f770000815250611d0d565b6000611b5083836040518060400160405280601a81526020017f536166654d6174683a206469766973696f6e206279207a65726f0000000000008152506125ad565b600082820183811015611b505760405162461bcd60e51b81526004016105e990612e6e565b5490565b60008061208984846123a2565b90508061209c5750506001820154611b53565b60018401548082106120b357600092505050611b53565b039392505050565b611d62846323b872dd60e01b8585856040516024016120dc93929190612d1e565b60408051601f198184030181529190526020810180516001600160e01b03166001600160e01b0319909316929092179091526125e4565b6001600160a01b0381166121395760405162461bcd60e51b81526004016105e990613394565b60015460408051637e062a3560e11b815290516001600160a01b039283169284169163fc0c546a916004808301926020929190829003018186803b15801561218057600080fd5b505afa158015612194573d6000803e3d6000fd5b505050506040513d601f19601f820116820180604052508101906121b89190612c68565b6001600160a01b0316146121de5760405162461bcd60e51b81526004016105e99061335d565b604080518082019091526001600160a01b03821681526000602082015261220790601090612673565b6040516001600160a01b038216907f0821015de34e20b0878a40f6f165801417f53b2017016d7321cacee989c8cfa790600090a250565b600080836001015461224f856126b6565b1161225f57506000905080611d06565b60006122788560010154612272876126b6565b90611fcf565b9050612285858583612732565b92509250509250929050565b612299612c01565b60008215806122b6575050670de0b6b3a764000082810290810483145b6122bf57600080fd5b604080516020810190915290815292915050565b6122db612c01565b816122e557600080fd5b6040518060200160405280838560000151816122fd57fe5b0490529392505050565b61230f612c01565b8251825181019081101561232257600080fd5b60408051602081019091529081529392505050565b6123568363a9059cbb60e01b84846040516024016120dc929190612d05565b505050565b60008061236884846123a2565b90508061237b5750506002820154611b53565b600184015480821161239257600092505050611b53565b6002850154910301905092915050565b60006123ac612c01565b506040805160208101909152600183015481526123c7612c01565b506040805160208101909152600485015481526123e482826128ec565b6123f357600092505050611b53565b84546124129061240d90612407858561291d565b90612938565b612966565b95945050505050565b600081831061242a5781611b50565b5090919050565b60008161243d81612554565b8154811061244757fe5b90600052602060002090600202019050919050565b600080808061246c878787612732565b600189015491935091506124809082611fcf565b60018801559092509050935093915050565b6000806124b76124a28585612975565b604080516020810190915285548152906128ec565b13159392505050565b6000806124cc836129b9565b9050611237816001600160a01b03166370a08231306040518263ffffffff1660e01b81526004016124fd9190612cf1565b60206040518083038186803b15801561251557600080fd5b505afa158015612529573d6000803e3d6000fd5b505050506040513d601f19601f8201168201806040525081019061254d9190612c9c565b8490612a35565b60008061256083612078565b905061123760016040518060400160405280601a81526020017f416c6368656d6973745661756c742e4c6973743a20656d70747900000000000081525083611d0d9092919063ffffffff16565b600081836125ce5760405162461bcd60e51b81526004016105e99190612d4d565b5060008385816125da57fe5b0495945050505050565b6060612639826040518060400160405280602081526020017f5361666545524332303a206c6f772d6c6576656c2063616c6c206661696c6564815250856001600160a01b0316612adc9092919063ffffffff16565b80519091501561235657808060200190518101906126579190612c4c565b6123565760405162461bcd60e51b81526004016105e990613292565b8154600180820184556000938452602093849020835160029093020180546001600160a01b0319166001600160a01b039093169290921782559190920151910155565b8054604080516306a61f7560e51b815290516000926001600160a01b03169163d4c3eea0916004808301926020929190829003018186803b1580156126fa57600080fd5b505afa15801561270e573d6000803e3d6000fd5b505050506040513d601f19601f82011682018060405250810190611b539190612c9c565b6000806000612740866129b9565b90506000816001600160a01b03166370a08231876040518263ffffffff1660e01b81526004016127709190612cf1565b60206040518083038186803b15801561278857600080fd5b505afa15801561279c573d6000803e3d6000fd5b505050506040513d601f19601f820116820180604052508101906127c09190612c9c565b905060006127cd886126b6565b885460405163f3fef3a360e01b81529192506001600160a01b03169063f3fef3a3906127ff908a908a90600401612d05565b600060405180830381600087803b15801561281957600080fd5b505af115801561282d573d6000803e3d6000fd5b50506040516370a0823160e01b8152600092506001600160a01b03861691506370a0823190612860908b90600401612cf1565b60206040518083038186803b15801561287857600080fd5b505afa15801561288c573d6000803e3d6000fd5b505050506040513d601f19601f820116820180604052508101906128b09190612c9c565b905060006128be8285611fcf565b905060006128cb8b6126b6565b905060006128d98583611fcf565b929c929b50919950505050505050505050565b8051825160009111156129025750600019611b53565b81518351111561291457506001611b53565b50600092915050565b612925612c01565b8251825181039081111561232257600080fd5b612940612c01565b600082158061295d57505082518281029083828161295a57fe5b04145b61232257600080fd5b51670de0b6b3a7640000900490565b61297d612c01565b6000612989848461207c565b9050806129a057612998612aeb565b915050611b53565b6129b1816119218660000154612291565b949350505050565b805460408051637e062a3560e11b815290516000926001600160a01b03169163fc0c546a916004808301926020929190829003018186803b1580156129fd57600080fd5b505afa158015612a11573d6000803e3d6000fd5b505050506040513d601f19601f82011682018060405250810190611b539190612c68565b600080612a41846129b9565b8454909150612a5d906001600160a01b03808416911685612337565b835460405163b6b55f2560e01b81526001600160a01b039091169063b6b55f2590612a8c9086906004016134a5565b600060405180830381600087803b158015612aa657600080fd5b505af1158015612aba573d6000803e3d6000fd5b5050506001850154612acd915084612053565b60018501555081905092915050565b60606129b18484600085612b07565b612af3612c01565b506040805160208101909152600019815290565b606082471015612b295760405162461bcd60e51b81526004016105e990612f64565b612b3285611b80565b612b4e5760405162461bcd60e51b81526004016105e990613188565b60006060866001600160a01b03168587604051612b6b9190612cd5565b60006040518083038185875af1925050503d8060008114612ba8576040519150601f19603f3d011682016040523d82523d6000602084013e612bad565b606091505b5091509150612bbd828286612bc8565b979650505050505050565b60608315612bd7575081611237565b825115612be75782518084602001fd5b8160405162461bcd60e51b81526004016105e99190612d4d565b6040518060200160405280600081525090565b600060208284031215612c25578081fd5b8135611b50816134fe565b600060208284031215612c41578081fd5b8135611b5081613513565b600060208284031215612c5d578081fd5b8151611b5081613513565b600060208284031215612c79578081fd5b8151611b50816134fe565b600060208284031215612c95578081fd5b5035919050565b600060208284031215612cad578081fd5b5051919050565b60008060408385031215612cc6578081fd5b50508035926020909101359150565b60008251612ce78184602087016134d2565b9190910192915050565b6001600160a01b0391909116815260200190565b6001600160a01b03929092168252602082015260400190565b6001600160a01b039384168152919092166020820152604081019190915260600190565b901515815260200190565b6000602082528251806020840152612d6c8160408501602087016134d2565b601f01601f19169190910160400192915050565b6020808252602c908201527f416c6368656d6973743a207472616e736d75746572206164647265737320636160408201526b373737ba10313290183c181760a11b606082015260800190565b6020808252602c908201527f416c6368656d6973743a20676f7665726e616e6365206164647265737320636160408201526b373737ba10313290183c181760a11b606082015260800190565b60208082526036908201527f416c6368656d6973743a2063616e6e6f7420696e697469616c697a652074726160408201527506e736d75746572206164647265737320746f203078360541b606082015260800190565b6020808252601b908201527f536166654d6174683a206164646974696f6e206f766572666c6f770000000000604082015260600190565b60208082526033908201527f416c6368656d6973743a2063616e6e6f7420696e697469616c697a6520726577604082015272061726473206164647265737320746f2030783606c1b606082015260800190565b6020808252818101527f536f72727920776520646f206e6f742061636365707420636f6e747261637421604082015260600190565b6020808252601e908201527f416c6368656d6973743a20616c726561647920696e697469616c697a65640000604082015260600190565b60208082526026908201527f416464726573733a20696e73756666696369656e742062616c616e636520666f6040820152651c8818d85b1b60d21b606082015260800190565b60208082526031908201527f416c6368656d6973743a20636f6c6c61746572616c697a6174696f6e206c696d60408201527034ba103132b637bb9036b4b734b6bab69760791b606082015260800190565b60208082526031908201527f416c6368656d6973743a20636f6c6c61746572616c697a6174696f6e206c696d60408201527034ba1030b137bb329036b0bc34b6bab69760791b606082015260800190565b6020808252601b908201527f416c6368656d6973743a206f6e6c7920676f7665726e616e63652e0000000000604082015260600190565b60208082526021908201527f536166654d6174683a206d756c7469706c69636174696f6e206f766572666c6f6040820152607760f81b606082015260800190565b60208082526025908201527f416c6368656d6973743a2068617276657374206665652061626f7665206d617860408201526434b6bab69760d91b606082015260800190565b6020808252601f908201527f73656e646572206973206e6f742070656e64696e67476f7665726e616e636500604082015260600190565b602080825260009082015260400190565b60208082526017908201527f656d657267656e637920706175736520656e61626c6564000000000000000000604082015260600190565b6020808252601d908201527f416464726573733a2063616c6c20746f206e6f6e2d636f6e7472616374000000604082015260600190565b60208082526070908201527f416c6368656d6973743a206e6f7420616e20656d657267656e63792c206e6f7460408201527f20676f7665726e616e63652c20616e64207573657220646f6573206e6f74206860608201527f617665207065726d697373696f6e20746f20726563616c6c2066756e6473206660808201526f1c9bdb481858dd1a5d99481d985d5b1d60821b60a082015260c00190565b6020808252601b908201527f416c6368656d6973743a206e6f7420696e697469616c697a65642e0000000000604082015260600190565b6020808252602a908201527f5361666545524332303a204552433230206f7065726174696f6e20646964206e6040820152691bdd081cdd58d8d9595960b21b606082015260800190565b6020808252602a908201527f416c6368656d6973743a2073656e74696e656c20616464726573732063616e6e60408201526937ba10313290183c181760b11b606082015260800190565b6020808252601f908201527f5265656e7472616e637947756172643a207265656e7472616e742063616c6c00604082015260600190565b6020808252601a908201527f416c6368656d6973743a20746f6b656e206d69736d617463682e000000000000604082015260600190565b6020808252602e908201527f416c6368656d6973743a20616374697665207661756c7420616464726573732060408201526d31b0b73737ba10313290183c181760911b606082015260800190565b60208082526012908201527137b333103832b3903634b6b4ba30ba34b7b760711b604082015260600190565b60208082526024908201527f416c6368656d6973743a20626f72726f77206665652061626f7665206d61786960408201526336bab69760e11b606082015260800190565b60208082526029908201527f416c6368656d6973743a207265776172647320616464726573732063616e6e6f6040820152683a10313290183c181760b91b606082015260800190565b9051815260200190565b90815260200190565b918252602082015260400190565b9283526020830191909152604082015260600190565b60005b838110156134ed5781810151838201526020016134d5565b83811115611d625750506000910152565b6001600160a01b03811681146115d357600080fd5b80151581146115d357600080fdfe416374696f6e20626c6f636b65643a20756e6865616c74687920636f6c6c61746572616c697a6174696f6e20726174696f416c6368656d6973743a204c6f616e2d746f2d76616c756520726174696f206272656163686564a264697066735822122052f4850a55968157a5dd42ce3d132275c2b64f47312491cd606b1c966bdb62f364736f6c634300060c0033",
  "linkReferences": {},
  "deployedLinkReferences": {}
}