{
  "_format": "hh-sol-artifact-1",
  "contractName": "L1TimelockTrigger",
  "sourceName": "contracts/L1TimelockTrigger.sol",
  "abi": [
    {
      "inputs": [
        {
          "internalType": "address",
          "name": "_owner",
          "type": "address"
        },
        {
          "internalType": "contract IPrizeDistributionBuffer",
          "name": "_prizeDistributionBuffer",
          "type": "address"
        },
        {
          "internalType": "contract IDrawCalculatorTimelock",
          "name": "_timelock",
          "type": "address"
        }
      ],
      "stateMutability": "nonpayable",
      "type": "constructor"
    },
    {
      "anonymous": false,
      "inputs": [
        {
          "indexed": true,
          "internalType": "contract IPrizeDistributionBuffer",
          "name": "prizeDistributionBuffer",
          "type": "address"
        },
        {
          "indexed": true,
          "internalType": "contract IDrawCalculatorTimelock",
          "name": "timelock",
          "type": "address"
        }
      ],
      "name": "Deployed",
      "type": "event"
    },
    {
      "anonymous": false,
      "inputs": [
        {
          "indexed": true,
          "internalType": "address",
          "name": "previousManager",
          "type": "address"
        },
        {
          "indexed": true,
          "internalType": "address",
          "name": "newManager",
          "type": "address"
        }
      ],
      "name": "ManagerTransferred",
      "type": "event"
    },
    {
      "anonymous": false,
      "inputs": [
        {
          "indexed": true,
          "internalType": "address",
          "name": "pendingOwner",
          "type": "address"
        }
      ],
      "name": "OwnershipOffered",
      "type": "event"
    },
    {
      "anonymous": false,
      "inputs": [
        {
          "indexed": true,
          "internalType": "address",
          "name": "previousOwner",
          "type": "address"
        },
        {
          "indexed": true,
          "internalType": "address",
          "name": "newOwner",
          "type": "address"
        }
      ],
      "name": "OwnershipTransferred",
      "type": "event"
    },
    {
      "anonymous": false,
      "inputs": [
        {
          "indexed": true,
          "internalType": "uint32",
          "name": "drawId",
          "type": "uint32"
        },
        {
          "components": [
            {
              "internalType": "uint8",
              "name": "bitRangeSize",
              "type": "uint8"
            },
            {
              "internalType": "uint8",
              "name": "matchCardinality",
              "type": "uint8"
            },
            {
              "internalType": "uint32",
              "name": "startTimestampOffset",
              "type": "uint32"
            },
            {
              "internalType": "uint32",
              "name": "endTimestampOffset",
              "type": "uint32"
            },
            {
              "internalType": "uint32",
              "name": "maxPicksPerUser",
              "type": "uint32"
            },
            {
              "internalType": "uint32",
              "name": "expiryDuration",
              "type": "uint32"
            },
            {
              "internalType": "uint104",
              "name": "numberOfPicks",
              "type": "uint104"
            },
            {
              "internalType": "uint32[16]",
              "name": "tiers",
              "type": "uint32[16]"
            },
            {
              "internalType": "uint256",
              "name": "prize",
              "type": "uint256"
            }
          ],
          "indexed": false,
          "internalType": "struct IPrizeDistributionSource.PrizeDistribution",
          "name": "prizeDistribution",
          "type": "tuple"
        }
      ],
      "name": "PrizeDistributionPushed",
      "type": "event"
    },
    {
      "inputs": [],
      "name": "claimOwnership",
      "outputs": [],
      "stateMutability": "nonpayable",
      "type": "function"
    },
    {
      "inputs": [],
      "name": "manager",
      "outputs": [
        {
          "internalType": "address",
          "name": "",
          "type": "address"
        }
      ],
      "stateMutability": "view",
      "type": "function"
    },
    {
      "inputs": [],
      "name": "owner",
      "outputs": [
        {
          "internalType": "address",
          "name": "",
          "type": "address"
        }
      ],
      "stateMutability": "view",
      "type": "function"
    },
    {
      "inputs": [],
      "name": "pendingOwner",
      "outputs": [
        {
          "internalType": "address",
          "name": "",
          "type": "address"
        }
      ],
      "stateMutability": "view",
      "type": "function"
    },
    {
      "inputs": [],
      "name": "prizeDistributionBuffer",
      "outputs": [
        {
          "internalType": "contract IPrizeDistributionBuffer",
          "name": "",
          "type": "address"
        }
      ],
      "stateMutability": "view",
      "type": "function"
    },
    {
      "inputs": [
        {
          "internalType": "uint32",
          "name": "_drawId",
          "type": "uint32"
        },
        {
          "components": [
            {
              "internalType": "uint8",
              "name": "bitRangeSize",
              "type": "uint8"
            },
            {
              "internalType": "uint8",
              "name": "matchCardinality",
              "type": "uint8"
            },
            {
              "internalType": "uint32",
              "name": "startTimestampOffset",
              "type": "uint32"
            },
            {
              "internalType": "uint32",
              "name": "endTimestampOffset",
              "type": "uint32"
            },
            {
              "internalType": "uint32",
              "name": "maxPicksPerUser",
              "type": "uint32"
            },
            {
              "internalType": "uint32",
              "name": "expiryDuration",
              "type": "uint32"
            },
            {
              "internalType": "uint104",
              "name": "numberOfPicks",
              "type": "uint104"
            },
            {
              "internalType": "uint32[16]",
              "name": "tiers",
              "type": "uint32[16]"
            },
            {
              "internalType": "uint256",
              "name": "prize",
              "type": "uint256"
            }
          ],
          "internalType": "struct IPrizeDistributionSource.PrizeDistribution",
          "name": "_prizeDistribution",
          "type": "tuple"
        }
      ],
      "name": "push",
      "outputs": [],
      "stateMutability": "nonpayable",
      "type": "function"
    },
    {
      "inputs": [],
      "name": "renounceOwnership",
      "outputs": [],
      "stateMutability": "nonpayable",
      "type": "function"
    },
    {
      "inputs": [
        {
          "internalType": "address",
          "name": "_newManager",
          "type": "address"
        }
      ],
      "name": "setManager",
      "outputs": [
        {
          "internalType": "bool",
          "name": "",
          "type": "bool"
        }
      ],
      "stateMutability": "nonpayable",
      "type": "function"
    },
    {
      "inputs": [],
      "name": "timelock",
      "outputs": [
        {
          "internalType": "contract IDrawCalculatorTimelock",
          "name": "",
          "type": "address"
        }
      ],
      "stateMutability": "view",
      "type": "function"
    },
    {
      "inputs": [
        {
          "internalType": "address",
          "name": "_newOwner",
          "type": "address"
        }
      ],
      "name": "transferOwnership",
      "outputs": [],
      "stateMutability": "nonpayable",
      "type": "function"
    }
  ],
  "bytecode": "0x60a060405234801561001057600080fd5b50604051610bc7380380610bc783398101604081905261002f916100f1565b82610039816100a1565b50606082901b6001600160601b031916608052600380546001600160a01b0319166001600160a01b0383811691821790925560405190918416907f09e48df7857bd0c1e0d31bb8a85d42cf1874817895f171c917f6ee2cea73ec2090600090a3505050610156565b600080546001600160a01b038381166001600160a01b0319831681178455604051919092169283917f8be0079c531659141344cd1fd0a4f28419497f9722a3daafe3b4186f6b6457e09190a35050565b60008060006060848603121561010657600080fd5b83516101118161013e565b60208501519093506101228161013e565b60408501519092506101338161013e565b809150509250925092565b6001600160a01b038116811461015357600080fd5b50565b60805160601c610a4d61017a6000396000818160a801526102c40152610a4d6000f3fe608060405234801561001057600080fd5b506004361061009e5760003560e01c80638da5cb5b116100665780638da5cb5b1461011d578063d0ebdbe71461012e578063d33219b414610151578063e30c397814610164578063f2fde38b1461017557600080fd5b80630840bbdd146100a35780633dafd356146100e7578063481c6a75146100fc5780634e71e0c81461010d578063715018a614610115575b600080fd5b6100ca7f000000000000000000000000000000000000000000000000000000000000000081565b6040516001600160a01b0390911681526020015b60405180910390f35b6100fa6100f53660046107b3565b610188565b005b6002546001600160a01b03166100ca565b6100fa610390565b6100fa610411565b6000546001600160a01b03166100ca565b61014161013c366004610761565b610456565b60405190151581526020016100de565b6003546100ca906001600160a01b031681565b6001546001600160a01b03166100ca565b6100fa610183366004610761565b6104a2565b3361019b6002546001600160a01b031690565b6001600160a01b031614806101c95750336101be6000546001600160a01b031690565b6001600160a01b0316145b6102295760405162461bcd60e51b815260206004820152602660248201527f4d616e61676561626c652f63616c6c65722d6e6f742d6d616e616765722d6f7260448201526516b7bbb732b960d11b60648201526084015b60405180910390fd5b60035460405163d3c45b8d60e01b815263ffffffff841660048201526001600160a01b039091169063d3c45b8d90602401602060405180830381600087803b15801561027457600080fd5b505af1158015610288573d6000803e3d6000fd5b505050506040513d601f19601f820116820180604052508101906102ac9190610791565b50604051630449387760e21b81526001600160a01b037f00000000000000000000000000000000000000000000000000000000000000001690631124e1dc906102fb90859085906004016109bc565b602060405180830381600087803b15801561031557600080fd5b505af1158015610329573d6000803e3d6000fd5b505050506040513d601f19601f8201168201806040525081019061034d9190610791565b508163ffffffff167fa8d834c585da75dc5076dfaed2f4cc0c65d2d07cfc01f7c27023ab61563f257e8260405161038491906109a7565b60405180910390a25050565b6001546001600160a01b031633146103ea5760405162461bcd60e51b815260206004820152601f60248201527f4f776e61626c652f63616c6c65722d6e6f742d70656e64696e674f776e6572006044820152606401610220565b6001546103ff906001600160a01b0316610589565b600180546001600160a01b0319169055565b336104246000546001600160a01b031690565b6001600160a01b03161461044a5760405162461bcd60e51b815260040161022090610970565b6104546000610589565b565b60003361046b6000546001600160a01b031690565b6001600160a01b0316146104915760405162461bcd60e51b815260040161022090610970565b61049a826105d9565b90505b919050565b336104b56000546001600160a01b031690565b6001600160a01b0316146104db5760405162461bcd60e51b815260040161022090610970565b6001600160a01b03811661053f5760405162461bcd60e51b815260206004820152602560248201527f4f776e61626c652f70656e64696e674f776e65722d6e6f742d7a65726f2d6164604482015264647265737360d81b6064820152608401610220565b600180546001600160a01b0319166001600160a01b0383169081179091556040517f239a2ddded15777fa246aed5f7e1a9bc69a39d4eb4a397034d1d85766cca7d4c90600090a250565b600080546001600160a01b038381166001600160a01b0319831681178455604051919092169283917f8be0079c531659141344cd1fd0a4f28419497f9722a3daafe3b4186f6b6457e09190a35050565b6002546000906001600160a01b039081169083168114156106485760405162461bcd60e51b815260206004820152602360248201527f4d616e61676561626c652f6578697374696e672d6d616e616765722d6164647260448201526265737360e81b6064820152608401610220565b600280546001600160a01b0319166001600160a01b0385811691821790925560405190918316907f9cb45c728de594dab506a1f1a8554e24c8eeaf983618d5ec5dd7bc6f3c49feee90600090a350600192915050565b600082601f8301126106af57600080fd5b60405161020080820182811067ffffffffffffffff821117156106d4576106d4610a01565b60405281848281018710156106e857600080fd5b600092505b6010831015610714576106ff8161073c565b825260019290920191602091820191016106ed565b509195945050505050565b80356cffffffffffffffffffffffffff8116811461049d57600080fd5b803563ffffffff8116811461049d57600080fd5b803560ff8116811461049d57600080fd5b60006020828403121561077357600080fd5b81356001600160a01b038116811461078a57600080fd5b9392505050565b6000602082840312156107a357600080fd5b8151801515811461078a57600080fd5b6000808284036103208112156107c857600080fd5b6107d18461073c565b925061030080601f19830112156107e757600080fd5b6107ef6109d7565b91506107fd60208601610750565b825261080b60408601610750565b602083015261081c6060860161073c565b604083015261082d6080860161073c565b606083015261083e60a0860161073c565b608083015261084f60c0860161073c565b60a083015261086060e0860161071f565b60c08301526101006108748782880161069e565b60e0840152940135938101939093525092909150565b8060005b60108110156108b357815163ffffffff1684526020938401939091019060010161088e565b50505050565b60ff815116825260ff602082015116602083015260408101516108e4604084018263ffffffff169052565b5060608101516108fc606084018263ffffffff169052565b506080810151610914608084018263ffffffff169052565b5060a081015161092c60a084018263ffffffff169052565b5060c081015161094d60c08401826cffffffffffffffffffffffffff169052565b5060e081015161096060e084018261088a565b5061010001516102e09190910152565b60208082526018908201527f4f776e61626c652f63616c6c65722d6e6f742d6f776e65720000000000000000604082015260600190565b61030081016109b682846108b9565b92915050565b63ffffffff83168152610320810161078a60208301846108b9565b604051610120810167ffffffffffffffff811182821017156109fb576109fb610a01565b60405290565b634e487b7160e01b600052604160045260246000fdfea26469706673582212203f663707aed43f0431e7522b48fda1042941c2fc8e66ef7c1c1f6772a9d60b8a64736f6c63430008060033",
  "linkReferences": {},
  "deployedLinkReferences": {}
}