{
  "_format": "hh-sol-artifact-1",
  "contractName": "TwabRewardsHarness",
  "sourceName": "contracts/harness/TwabRewardsHarness.sol",
  "abi": [
    {
      "inputs": [
        {
          "internalType": "contract ITicket",
          "name": "_ticket",
          "type": "address"
        }
      ],
      "stateMutability": "nonpayable",
      "type": "constructor"
    },
    {
      "anonymous": false,
      "inputs": [
        {
          "indexed": true,
          "internalType": "uint256",
          "name": "promotionId",
          "type": "uint256"
        }
      ],
      "name": "PromotionCreated",
      "type": "event"
    },
    {
      "anonymous": false,
      "inputs": [
        {
          "indexed": true,
          "internalType": "uint256",
          "name": "promotionId",
          "type": "uint256"
        },
        {
          "indexed": true,
          "internalType": "address",
          "name": "recipient",
          "type": "address"
        },
        {
          "indexed": false,
          "internalType": "uint256",
          "name": "amount",
          "type": "uint256"
        }
      ],
      "name": "PromotionDestroyed",
      "type": "event"
    },
    {
      "anonymous": false,
      "inputs": [
        {
          "indexed": true,
          "internalType": "uint256",
          "name": "promotionId",
          "type": "uint256"
        },
        {
          "indexed": true,
          "internalType": "address",
          "name": "recipient",
          "type": "address"
        },
        {
          "indexed": false,
          "internalType": "uint256",
          "name": "amount",
          "type": "uint256"
        },
        {
          "indexed": false,
          "internalType": "uint8",
          "name": "epochNumber",
          "type": "uint8"
        }
      ],
      "name": "PromotionEnded",
      "type": "event"
    },
    {
      "anonymous": false,
      "inputs": [
        {
          "indexed": true,
          "internalType": "uint256",
          "name": "promotionId",
          "type": "uint256"
        },
        {
          "indexed": false,
          "internalType": "uint256",
          "name": "numberOfEpochs",
          "type": "uint256"
        }
      ],
      "name": "PromotionExtended",
      "type": "event"
    },
    {
      "anonymous": false,
      "inputs": [
        {
          "indexed": true,
          "internalType": "uint256",
          "name": "promotionId",
          "type": "uint256"
        },
        {
          "indexed": false,
          "internalType": "uint8[]",
          "name": "epochIds",
          "type": "uint8[]"
        },
        {
          "indexed": true,
          "internalType": "address",
          "name": "user",
          "type": "address"
        },
        {
          "indexed": false,
          "internalType": "uint256",
          "name": "amount",
          "type": "uint256"
        }
      ],
      "name": "RewardsClaimed",
      "type": "event"
    },
    {
      "inputs": [],
      "name": "GRACE_PERIOD",
      "outputs": [
        {
          "internalType": "uint32",
          "name": "",
          "type": "uint32"
        }
      ],
      "stateMutability": "view",
      "type": "function"
    },
    {
      "inputs": [
        {
          "internalType": "address",
          "name": "_user",
          "type": "address"
        },
        {
          "internalType": "uint256",
          "name": "_promotionId",
          "type": "uint256"
        },
        {
          "internalType": "uint8[]",
          "name": "_epochIds",
          "type": "uint8[]"
        }
      ],
      "name": "claimRewards",
      "outputs": [
        {
          "internalType": "uint256",
          "name": "",
          "type": "uint256"
        }
      ],
      "stateMutability": "nonpayable",
      "type": "function"
    },
    {
      "inputs": [
        {
          "internalType": "contract IERC20",
          "name": "_token",
          "type": "address"
        },
        {
          "internalType": "uint64",
          "name": "_startTimestamp",
          "type": "uint64"
        },
        {
          "internalType": "uint256",
          "name": "_tokensPerEpoch",
          "type": "uint256"
        },
        {
          "internalType": "uint48",
          "name": "_epochDuration",
          "type": "uint48"
        },
        {
          "internalType": "uint8",
          "name": "_numberOfEpochs",
          "type": "uint8"
        }
      ],
      "name": "createPromotion",
      "outputs": [
        {
          "internalType": "uint256",
          "name": "",
          "type": "uint256"
        }
      ],
      "stateMutability": "nonpayable",
      "type": "function"
    },
    {
      "inputs": [
        {
          "internalType": "uint256",
          "name": "_promotionId",
          "type": "uint256"
        },
        {
          "internalType": "address",
          "name": "_to",
          "type": "address"
        }
      ],
      "name": "destroyPromotion",
      "outputs": [
        {
          "internalType": "bool",
          "name": "",
          "type": "bool"
        }
      ],
      "stateMutability": "nonpayable",
      "type": "function"
    },
    {
      "inputs": [
        {
          "internalType": "uint256",
          "name": "_promotionId",
          "type": "uint256"
        },
        {
          "internalType": "address",
          "name": "_to",
          "type": "address"
        }
      ],
      "name": "endPromotion",
      "outputs": [
        {
          "internalType": "bool",
          "name": "",
          "type": "bool"
        }
      ],
      "stateMutability": "nonpayable",
      "type": "function"
    },
    {
      "inputs": [
        {
          "internalType": "uint256",
          "name": "_promotionId",
          "type": "uint256"
        },
        {
          "internalType": "uint8",
          "name": "_numberOfEpochs",
          "type": "uint8"
        }
      ],
      "name": "extendPromotion",
      "outputs": [
        {
          "internalType": "bool",
          "name": "",
          "type": "bool"
        }
      ],
      "stateMutability": "nonpayable",
      "type": "function"
    },
    {
      "inputs": [
        {
          "internalType": "uint256",
          "name": "_promotionId",
          "type": "uint256"
        }
      ],
      "name": "getCurrentEpochId",
      "outputs": [
        {
          "internalType": "uint256",
          "name": "",
          "type": "uint256"
        }
      ],
      "stateMutability": "view",
      "type": "function"
    },
    {
      "inputs": [
        {
          "internalType": "uint256",
          "name": "_promotionId",
          "type": "uint256"
        }
      ],
      "name": "getPromotion",
      "outputs": [
        {
          "components": [
            {
              "internalType": "address",
              "name": "creator",
              "type": "address"
            },
            {
              "internalType": "uint64",
              "name": "startTimestamp",
              "type": "uint64"
            },
            {
              "internalType": "uint8",
              "name": "numberOfEpochs",
              "type": "uint8"
            },
            {
              "internalType": "uint48",
              "name": "epochDuration",
              "type": "uint48"
            },
            {
              "internalType": "uint48",
              "name": "createdAt",
              "type": "uint48"
            },
            {
              "internalType": "contract IERC20",
              "name": "token",
              "type": "address"
            },
            {
              "internalType": "uint256",
              "name": "tokensPerEpoch",
              "type": "uint256"
            },
            {
              "internalType": "uint256",
              "name": "rewardsUnclaimed",
              "type": "uint256"
            }
          ],
          "internalType": "struct ITwabRewards.Promotion",
          "name": "",
          "type": "tuple"
        }
      ],
      "stateMutability": "view",
      "type": "function"
    },
    {
      "inputs": [
        {
          "internalType": "uint256",
          "name": "_promotionId",
          "type": "uint256"
        }
      ],
      "name": "getRemainingRewards",
      "outputs": [
        {
          "internalType": "uint256",
          "name": "",
          "type": "uint256"
        }
      ],
      "stateMutability": "view",
      "type": "function"
    },
    {
      "inputs": [
        {
          "internalType": "address",
          "name": "_user",
          "type": "address"
        },
        {
          "internalType": "uint256",
          "name": "_promotionId",
          "type": "uint256"
        },
        {
          "internalType": "uint8[]",
          "name": "_epochIds",
          "type": "uint8[]"
        }
      ],
      "name": "getRewardsAmount",
      "outputs": [
        {
          "internalType": "uint256[]",
          "name": "",
          "type": "uint256[]"
        }
      ],
      "stateMutability": "view",
      "type": "function"
    },
    {
      "inputs": [
        {
          "internalType": "uint256",
          "name": "_userClaimedEpochs",
          "type": "uint256"
        },
        {
          "internalType": "uint8",
          "name": "_epochId",
          "type": "uint8"
        }
      ],
      "name": "isClaimedEpoch",
      "outputs": [
        {
          "internalType": "bool",
          "name": "",
          "type": "bool"
        }
      ],
      "stateMutability": "pure",
      "type": "function"
    },
    {
      "inputs": [
        {
          "internalType": "contract ITicket",
          "name": "_ticket",
          "type": "address"
        }
      ],
      "name": "requireTicket",
      "outputs": [],
      "stateMutability": "view",
      "type": "function"
    },
    {
      "inputs": [],
      "name": "ticket",
      "outputs": [
        {
          "internalType": "contract ITicket",
          "name": "",
          "type": "address"
        }
      ],
      "stateMutability": "view",
      "type": "function"
    }
  ],
  "bytecode": "0x60a06040523480156200001157600080fd5b506040516200238b3803806200238b8339810160408190526200003491620001c5565b80620000408162000057565b60601b6001600160601b0319166080525062000243565b6001600160a01b038116620000b35760405162461bcd60e51b815260206004820181905260248201527f54776162526577617264732f7469636b65742d6e6f742d7a65726f2d6164647260448201526064015b60405180910390fd5b60405163f77c479160e01b602082015260009081906001600160a01b0384169060240160408051601f1981840301815290829052620000f291620001ec565b600060405180830381855afa9150503d80600081146200012f576040519150601f19603f3d011682016040523d82523d6000602084013e62000134565b606091505b509150915081801562000148575060008151115b801562000172575080806020019051810190620001669190620001c5565b6001600160a01b031615155b620001c05760405162461bcd60e51b815260206004820152601a60248201527f54776162526577617264732f696e76616c69642d7469636b65740000000000006044820152606401620000aa565b505050565b600060208284031215620001d857600080fd5b8151620001e5816200022a565b9392505050565b6000825160005b818110156200020f5760208186018101518583015201620001f3565b818111156200021f576000828501525b509190910192915050565b6001600160a01b03811681146200024057600080fd5b50565b60805160601c61211b62000270600039600081816101ab015281816112cd0152611425015261211b6000f3fe608060405234801561001057600080fd5b50600436106100df5760003560e01c806366cfae5e1161008c578063a495884511610066578063a4958845146101fa578063b2456c3a1461020d578063c1a287e214610220578063f824d0fb1461023f57600080fd5b806366cfae5e146101855780636cc25db7146101a657806375943cdb146101e557600080fd5b806314fdecca116100bd57806314fdecca1461013f57806320555db11461015f57806347734d2c1461017257600080fd5b8063096fe668146100e45780630b011a161461010c578063120468a01461012c575b600080fd5b6100f76100f2366004611cea565b610252565b60405190151581526020015b60405180910390f35b61011f61011a366004611a5f565b6103c4565b6040516101039190611d92565b6100f761013a366004611cba565b610519565b61015261014d366004611c88565b61067f565b6040516101039190611e85565b6100f761016d366004611cba565b6106cf565b6100f7610180366004611cea565b61089f565b610198610193366004611bd2565b6108b5565b604051908152602001610103565b6101cd7f000000000000000000000000000000000000000000000000000000000000000081565b6040516001600160a01b039091168152602001610103565b6101f86101f3366004611c4e565b610cec565b005b610198610208366004611c88565b610cf8565b61019861021b366004611a5f565b610d0b565b61022a624f1a0081565b60405163ffffffff9091168152602001610103565b61019861024d366004611c88565b610eb6565b600061025d82610ec9565b600061026884610f1c565b90506102738161105c565b60408101516102838160ff61200e565b60ff168460ff1611156102dd5760405162461bcd60e51b815260206004820152601d60248201527f54776162526577617264732f65706f6368732d6f7665722d6c696d697400000060448201526064015b60405180910390fd5b6102e78482611f61565b600086815260208190526040812080547fffffff00ffffffffffffffffffffffffffffffffffffffffffffffffffffffff16600160e01b60ff9485160217905560c0840151909161033a91908716611fa8565b90508060008088815260200190815260200160002060030160008282546103619190611f1d565b909155505060a0830151610380906001600160a01b03163330846110d3565b60405160ff8616815286907fa9527ed49c1c2ab5449cfef5b611076ce228a0a0de4534874963b83abb6e7b469060200160405180910390a250600195945050505050565b606060006103d185610f1c565b90508260008167ffffffffffffffff8111156103ef576103ef6120ba565b604051908082528060200260200182016040528015610418578160200160208202803683370190505b50905060005b8281101561050d5760008881526002602090815260408083206001600160a01b038d1684529091529020546104819088888481811061045f5761045f6120a4565b90506020020160208101906104749190611d16565b60ff161c60019081161490565b156104ab57600082828151811061049a5761049a6120a4565b6020026020010181815250506104fb565b6104dc89858989858181106104c2576104c26120a4565b90506020020160208101906104d79190611d16565b61118a565b8282815181106104ee576104ee6120a4565b6020026020010181815250505b806105058161205d565b91505061041e565b50979650505050505050565b60006001600160a01b0382166105715760405162461bcd60e51b815260206004820152601f60248201527f54776162526577617264732f70617965652d6e6f742d7a65726f2d616464720060448201526064016102d4565b600061057c84610f1c565b905061058781611503565b6105908161105c565b600061059b8261155c565b600086815260208190526040812080547fffffff00ffffffffffffffffffffffffffffffffffffffffffffffffffffffff16600160e01b60ff8516021790559091506105e6836115a8565b905080600080888152602001908152602001600020600301600082825461060d9190611ff7565b909155505060a083015161062b906001600160a01b0316868361160c565b6040805182815260ff841660208201526001600160a01b0387169188917f98f89153fa6ee40b2edcd2e1ce4a5a9edfb2f74818016fc24e6cfe7b6fcd12a9910160405180910390a350600195945050505050565b6040805161010081018252600080825260208201819052918101829052606081018290526080810182905260a0810182905260c0810182905260e08101919091526106c982610f1c565b92915050565b60006001600160a01b0382166107275760405162461bcd60e51b815260206004820152601f60248201527f54776162526577617264732f70617965652d6e6f742d7a65726f2d616464720060448201526064016102d4565b600061073284610f1c565b905061073d81611503565b60408101516060820151602083015160009260ff1690910265ffffffffffff160167ffffffffffffffff16608083015190915065ffffffffffff166000624f1a0082841061078b578361078d565b825b6107979190611f1d565b9050804210156107e95760405162461bcd60e51b815260206004820152601f60248201527f54776162526577617264732f67726163652d706572696f642d6163746976650060448201526064016102d4565b60e0840151600088815260208190526040812080547fffffff000000000000000000000000000000000000000000000000000000000016815560018101829055600281018290556003015560a085015161084d906001600160a01b0316888361160c565b866001600160a01b0316887f6f804f2ef186cd4b2a6740c084b86f557a497a1fcf3a6b073068a55c51187b6f8360405161088991815260200190565b60405180910390a3506001979650505050505050565b6000600160ff831684901c8116145b9392505050565b60008084116109065760405162461bcd60e51b815260206004820152601b60248201527f54776162526577617264732f746f6b656e732d6e6f742d7a65726f000000000060448201526064016102d4565b60008365ffffffffffff161161095e5760405162461bcd60e51b815260206004820152601d60248201527f54776162526577617264732f6475726174696f6e2d6e6f742d7a65726f00000060448201526064016102d4565b61096782610ec9565b600060015460016109789190611f1d565b60018190559050600061098e60ff851687611fa8565b9050604051806101000160405280336001600160a01b031681526020018867ffffffffffffffff1681526020018560ff1681526020018665ffffffffffff1681526020014265ffffffffffff168152602001896001600160a01b031681526020018781526020018281525060008084815260200190815260200160002060008201518160000160006101000a8154816001600160a01b0302191690836001600160a01b0316021790555060208201518160000160146101000a81548167ffffffffffffffff021916908367ffffffffffffffff160217905550604082015181600001601c6101000a81548160ff021916908360ff16021790555060608201518160010160006101000a81548165ffffffffffff021916908365ffffffffffff16021790555060808201518160010160066101000a81548165ffffffffffff021916908365ffffffffffff16021790555060a082015181600101600c6101000a8154816001600160a01b0302191690836001600160a01b0316021790555060c0820151816002015560e082015181600301559050506000886001600160a01b03166370a08231306040518263ffffffff1660e01b8152600401610b5f91906001600160a01b0391909116815260200190565b60206040518083038186803b158015610b7757600080fd5b505afa158015610b8b573d6000803e3d6000fd5b505050506040513d601f19601f82011682018060405250810190610baf9190611ca1565b9050610bc66001600160a01b038a163330856110d3565b6040517f70a082310000000000000000000000000000000000000000000000000000000081523060048201526000906001600160a01b038b16906370a082319060240160206040518083038186803b158015610c2157600080fd5b505afa158015610c35573d6000803e3d6000fd5b505050506040513d601f19601f82011682018060405250810190610c599190611ca1565b905080610c668484611f1d565b14610cb35760405162461bcd60e51b815260206004820152601d60248201527f54776162526577617264732f70726f6d6f2d616d6f756e742d6469666600000060448201526064016102d4565b60405184907faedc1797e973574eb0e43205c473287ca44eb1c9d0f677dbb0ec8cfc72bb68f390600090a2509198975050505050505050565b610cf58161165a565b50565b60006106c9610d0683610f1c565b6115a8565b600080610d1785610f1c565b60008681526002602090815260408083206001600160a01b038b1684529091528120549192509084825b81811015610e03576000888883818110610d5d57610d5d6120a4565b9050602002016020810190610d729190611d16565b9050600160ff821685901c81161415610dcd5760405162461bcd60e51b815260206004820152601b60248201527f54776162526577617264732f726577617264732d636c61696d6564000000000060448201526064016102d4565b610dd88b878361118a565b610de29086611f1d565b9450600160ff82161b84179350508080610dfb9061205d565b915050610d41565b5060008881526002602090815260408083206001600160a01b038d16845282528083208590558a83529082905281206003018054859290610e45908490611ff7565b909155505060a0840151610e63906001600160a01b03168a8561160c565b886001600160a01b0316887f446a5bb69110f4fa9a5802e85237a4281d1d27dbe989b22da4a75d9deae8c778898987604051610ea193929190611e04565b60405180910390a35090979650505050505050565b60006106c9610ec483610f1c565b61155c565b60008160ff1611610cf55760405162461bcd60e51b815260206004820152601b60248201527f54776162526577617264732f65706f6368732d6e6f742d7a65726f000000000060448201526064016102d4565b6040805161010081018252600080825260208201819052918101829052606081018290526080810182905260a0810182905260c0810182905260e08101919091526000828152602081815260409182902082516101008101845281546001600160a01b0380821680845274010000000000000000000000000000000000000000830467ffffffffffffffff1695840195909552600160e01b90910460ff1694820194909452600182015465ffffffffffff8082166060840152660100000000000082041660808301526c01000000000000000000000000900490931660a0840152600281015460c08401526003015460e08301526106c95760405162461bcd60e51b815260206004820152601d60248201527f54776162526577617264732f696e76616c69642d70726f6d6f74696f6e00000060448201526064016102d4565b604081015160608201516020830151429260ff1690910265ffffffffffff160167ffffffffffffffff1611610cf55760405162461bcd60e51b815260206004820152601e60248201527f54776162526577617264732f70726f6d6f74696f6e2d696e616374697665000060448201526064016102d4565b6040516001600160a01b03808516602483015283166044820152606481018290526111849085907f23b872dd00000000000000000000000000000000000000000000000000000000906084015b60408051601f198184030181529190526020810180517bffffffffffffffffffffffffffffffffffffffffffffffffffffffff167fffffffff00000000000000000000000000000000000000000000000000000000909316929092179091526117cc565b50505050565b606082015160009065ffffffffffff16816111a860ff851683611fc7565b85602001516111b79190611f35565b905060006111c58383611f35565b90508067ffffffffffffffff164210156112215760405162461bcd60e51b815260206004820152601a60248201527f54776162526577617264732f65706f63682d6e6f742d6f76657200000000000060448201526064016102d4565b856040015160ff168560ff161061127a5760405162461bcd60e51b815260206004820152601c60248201527f54776162526577617264732f696e76616c69642d65706f63682d69640000000060448201526064016102d4565b6040517f98b16f360000000000000000000000000000000000000000000000000000000081526001600160a01b03888116600483015267ffffffffffffffff8085166024840152831660448301526000917f0000000000000000000000000000000000000000000000000000000000000000909116906398b16f369060640160206040518083038186803b15801561131157600080fd5b505afa158015611325573d6000803e3d6000fd5b505050506040513d601f19601f820116820180604052508101906113499190611ca1565b905080156114f557604080516001808252818301909252600091602080830190803683370190505090508381600081518110611387576113876120a4565b67ffffffffffffffff929092166020928302919091019091015260408051600180825281830190925260009181602001602082028036833701905050905083816000815181106113d9576113d96120a4565b67ffffffffffffffff909216602092830291909101909101526040517f8e6d536a0000000000000000000000000000000000000000000000000000000081526000906001600160a01b037f00000000000000000000000000000000000000000000000000000000000000001690638e6d536a9061145c9086908690600401611dd6565b60006040518083038186803b15801561147457600080fd5b505afa158015611488573d6000803e3d6000fd5b505050506040513d6000823e601f3d908101601f191682016040526114b09190810190611aeb565b6000815181106114c2576114c26120a4565b6020026020010151905080848b60c001516114dd9190611fa8565b6114e79190611f86565b9750505050505050506108ae565b506000979650505050505050565b80516001600160a01b03163314610cf55760405162461bcd60e51b815260206004820152601e60248201527f54776162526577617264732f6f6e6c792d70726f6d6f2d63726561746f72000060448201526064016102d4565b600080826020015167ffffffffffffffff164211156106c957826060015165ffffffffffff16836020015167ffffffffffffffff164203816115a0576115a061208e565b049392505050565b60408101516060820151602083015160009260ff1690910265ffffffffffff160167ffffffffffffffff164211156115e257506000919050565b6115eb8261155c565b826040015160ff166115fd9190611ff7565b8260c001516106c99190611fa8565b6040516001600160a01b0383166024820152604481018290526116559084907fa9059cbb0000000000000000000000000000000000000000000000000000000090606401611120565b505050565b6001600160a01b0381166116b05760405162461bcd60e51b815260206004820181905260248201527f54776162526577617264732f7469636b65742d6e6f742d7a65726f2d6164647260448201526064016102d4565b6040517ff77c479100000000000000000000000000000000000000000000000000000000602082015260009081906001600160a01b0384169060240160408051601f198184030181529082905261170691611d76565b600060405180830381855afa9150503d8060008114611741576040519150601f19603f3d011682016040523d82523d6000602084013e611746565b606091505b5091509150818015611759575060008151115b80156117805750808060200190518101906117749190611c6b565b6001600160a01b031615155b6116555760405162461bcd60e51b815260206004820152601a60248201527f54776162526577617264732f696e76616c69642d7469636b657400000000000060448201526064016102d4565b6000611821826040518060400160405280602081526020017f5361666545524332303a206c6f772d6c6576656c2063616c6c206661696c6564815250856001600160a01b03166118b19092919063ffffffff16565b805190915015611655578080602001905181019061183f9190611bb0565b6116555760405162461bcd60e51b815260206004820152602a60248201527f5361666545524332303a204552433230206f7065726174696f6e20646964206e60448201527f6f7420737563636565640000000000000000000000000000000000000000000060648201526084016102d4565b60606118c084846000856118c8565b949350505050565b6060824710156119405760405162461bcd60e51b815260206004820152602660248201527f416464726573733a20696e73756666696369656e742062616c616e636520666f60448201527f722063616c6c000000000000000000000000000000000000000000000000000060648201526084016102d4565b6001600160a01b0385163b6119975760405162461bcd60e51b815260206004820152601d60248201527f416464726573733a2063616c6c20746f206e6f6e2d636f6e747261637400000060448201526064016102d4565b600080866001600160a01b031685876040516119b39190611d76565b60006040518083038185875af1925050503d80600081146119f0576040519150601f19603f3d011682016040523d82523d6000602084013e6119f5565b606091505b5091509150611a05828286611a10565b979650505050505050565b60608315611a1f5750816108ae565b825115611a2f5782518084602001fd5b8160405162461bcd60e51b81526004016102d49190611e52565b803560ff81168114611a5a57600080fd5b919050565b60008060008060608587031215611a7557600080fd5b8435611a80816120d0565b935060208501359250604085013567ffffffffffffffff80821115611aa457600080fd5b818701915087601f830112611ab857600080fd5b813581811115611ac757600080fd5b8860208260051b8501011115611adc57600080fd5b95989497505060200194505050565b60006020808385031215611afe57600080fd5b825167ffffffffffffffff80821115611b1657600080fd5b818501915085601f830112611b2a57600080fd5b815181811115611b3c57611b3c6120ba565b8060051b604051601f19603f83011681018181108582111715611b6157611b616120ba565b604052828152858101935084860182860187018a1015611b8057600080fd5b600095505b83861015611ba3578051855260019590950194938601938601611b85565b5098975050505050505050565b600060208284031215611bc257600080fd5b815180151581146108ae57600080fd5b600080600080600060a08688031215611bea57600080fd5b8535611bf5816120d0565b9450602086013567ffffffffffffffff81168114611c1257600080fd5b935060408601359250606086013565ffffffffffff81168114611c3457600080fd5b9150611c4260808701611a49565b90509295509295909350565b600060208284031215611c6057600080fd5b81356108ae816120d0565b600060208284031215611c7d57600080fd5b81516108ae816120d0565b600060208284031215611c9a57600080fd5b5035919050565b600060208284031215611cb357600080fd5b5051919050565b60008060408385031215611ccd57600080fd5b823591506020830135611cdf816120d0565b809150509250929050565b60008060408385031215611cfd57600080fd5b82359150611d0d60208401611a49565b90509250929050565b600060208284031215611d2857600080fd5b6108ae82611a49565b600081518084526020808501945080840160005b83811015611d6b57815167ffffffffffffffff1687529582019590820190600101611d45565b509495945050505050565b60008251611d88818460208701612031565b9190910192915050565b6020808252825182820181905260009190848201906040850190845b81811015611dca57835183529284019291840191600101611dae565b50909695505050505050565b604081526000611de96040830185611d31565b8281036020840152611dfb8185611d31565b95945050505050565b6040808252810183905260008460608301825b86811015611e3f5760ff611e2a84611a49565b16825260209283019290910190600101611e17565b5060209390930193909352509392505050565b6020815260008251806020840152611e71816040850160208701612031565b601f01601f19169190910160400192915050565b6000610100820190506001600160a01b03835116825267ffffffffffffffff602084015116602083015260ff604084015116604083015265ffffffffffff60608401511660608301526080830151611ee7608084018265ffffffffffff169052565b5060a0830151611f0260a08401826001600160a01b03169052565b5060c083015160c083015260e083015160e083015292915050565b60008219821115611f3057611f30612078565b500190565b600067ffffffffffffffff808316818516808303821115611f5857611f58612078565b01949350505050565b600060ff821660ff84168060ff03821115611f7e57611f7e612078565b019392505050565b600082611fa357634e487b7160e01b600052601260045260246000fd5b500490565b6000816000190483118215151615611fc257611fc2612078565b500290565b600067ffffffffffffffff80831681851681830481118215151615611fee57611fee612078565b02949350505050565b60008282101561200957612009612078565b500390565b600060ff821660ff84168082101561202857612028612078565b90039392505050565b60005b8381101561204c578181015183820152602001612034565b838111156111845750506000910152565b600060001982141561207157612071612078565b5060010190565b634e487b7160e01b600052601160045260246000fd5b634e487b7160e01b600052601260045260246000fd5b634e487b7160e01b600052603260045260246000fd5b634e487b7160e01b600052604160045260246000fd5b6001600160a01b0381168114610cf557600080fdfea26469706673582212209af47c413973b3388934d11b50286f790305fc141feeaeef94c9092c7ba0d46764736f6c63430008060033",
  "linkReferences": {},
  "deployedLinkReferences": {}
}