{
  "_format": "hh-sol-artifact-1",
  "contractName": "Controller",
  "sourceName": "contracts/Controller.sol",
  "abi": [
    {
      "inputs": [
        {
          "internalType": "contract IAddressProvider",
          "name": "_addressProvider",
          "type": "address"
        }
      ],
      "stateMutability": "nonpayable",
      "type": "constructor"
    },
    {
      "anonymous": false,
      "inputs": [
        {
          "indexed": true,
          "internalType": "bytes32",
          "name": "key",
          "type": "bytes32"
        },
        {
          "indexed": false,
          "internalType": "address",
          "name": "value",
          "type": "address"
        },
        {
          "indexed": false,
          "internalType": "uint256",
          "name": "delay",
          "type": "uint256"
        }
      ],
      "name": "ConfigPreparedAddress",
      "type": "event"
    },
    {
      "anonymous": false,
      "inputs": [
        {
          "indexed": true,
          "internalType": "bytes32",
          "name": "key",
          "type": "bytes32"
        },
        {
          "indexed": false,
          "internalType": "uint256",
          "name": "value",
          "type": "uint256"
        },
        {
          "indexed": false,
          "internalType": "uint256",
          "name": "delay",
          "type": "uint256"
        }
      ],
      "name": "ConfigPreparedNumber",
      "type": "event"
    },
    {
      "anonymous": false,
      "inputs": [
        {
          "indexed": true,
          "internalType": "bytes32",
          "name": "key",
          "type": "bytes32"
        }
      ],
      "name": "ConfigReset",
      "type": "event"
    },
    {
      "anonymous": false,
      "inputs": [
        {
          "indexed": true,
          "internalType": "bytes32",
          "name": "key",
          "type": "bytes32"
        },
        {
          "indexed": false,
          "internalType": "address",
          "name": "oldValue",
          "type": "address"
        },
        {
          "indexed": false,
          "internalType": "address",
          "name": "newValue",
          "type": "address"
        }
      ],
      "name": "ConfigUpdatedAddress",
      "type": "event"
    },
    {
      "anonymous": false,
      "inputs": [
        {
          "indexed": true,
          "internalType": "bytes32",
          "name": "key",
          "type": "bytes32"
        },
        {
          "indexed": false,
          "internalType": "uint256",
          "name": "oldValue",
          "type": "uint256"
        },
        {
          "indexed": false,
          "internalType": "uint256",
          "name": "newValue",
          "type": "uint256"
        }
      ],
      "name": "ConfigUpdatedNumber",
      "type": "event"
    },
    {
      "inputs": [
        {
          "internalType": "address",
          "name": "stakerVault",
          "type": "address"
        }
      ],
      "name": "addStakerVault",
      "outputs": [
        {
          "internalType": "bool",
          "name": "",
          "type": "bool"
        }
      ],
      "stateMutability": "nonpayable",
      "type": "function"
    },
    {
      "inputs": [],
      "name": "addressProvider",
      "outputs": [
        {
          "internalType": "contract IAddressProvider",
          "name": "",
          "type": "address"
        }
      ],
      "stateMutability": "view",
      "type": "function"
    },
    {
      "inputs": [
        {
          "internalType": "address",
          "name": "keeper",
          "type": "address"
        }
      ],
      "name": "canKeeperExecuteAction",
      "outputs": [
        {
          "internalType": "bool",
          "name": "",
          "type": "bool"
        }
      ],
      "stateMutability": "view",
      "type": "function"
    },
    {
      "inputs": [
        {
          "internalType": "bytes32",
          "name": "",
          "type": "bytes32"
        }
      ],
      "name": "currentAddresses",
      "outputs": [
        {
          "internalType": "address",
          "name": "",
          "type": "address"
        }
      ],
      "stateMutability": "view",
      "type": "function"
    },
    {
      "inputs": [
        {
          "internalType": "bytes32",
          "name": "",
          "type": "bytes32"
        }
      ],
      "name": "currentUInts256",
      "outputs": [
        {
          "internalType": "uint256",
          "name": "",
          "type": "uint256"
        }
      ],
      "stateMutability": "view",
      "type": "function"
    },
    {
      "inputs": [
        {
          "internalType": "bytes32",
          "name": "",
          "type": "bytes32"
        }
      ],
      "name": "deadlines",
      "outputs": [
        {
          "internalType": "uint256",
          "name": "",
          "type": "uint256"
        }
      ],
      "stateMutability": "view",
      "type": "function"
    },
    {
      "inputs": [],
      "name": "executeKeeperRequiredStakedBKD",
      "outputs": [],
      "stateMutability": "nonpayable",
      "type": "function"
    },
    {
      "inputs": [],
      "name": "getKeeperRequiredStakedBKD",
      "outputs": [
        {
          "internalType": "uint256",
          "name": "",
          "type": "uint256"
        }
      ],
      "stateMutability": "view",
      "type": "function"
    },
    {
      "inputs": [
        {
          "internalType": "address",
          "name": "payer",
          "type": "address"
        }
      ],
      "name": "getTotalEthRequiredForGas",
      "outputs": [
        {
          "internalType": "uint256",
          "name": "",
          "type": "uint256"
        }
      ],
      "stateMutability": "view",
      "type": "function"
    },
    {
      "inputs": [],
      "name": "inflationManager",
      "outputs": [
        {
          "internalType": "contract IInflationManager",
          "name": "",
          "type": "address"
        }
      ],
      "stateMutability": "view",
      "type": "function"
    },
    {
      "inputs": [
        {
          "internalType": "bytes32",
          "name": "",
          "type": "bytes32"
        }
      ],
      "name": "pendingAddresses",
      "outputs": [
        {
          "internalType": "address",
          "name": "",
          "type": "address"
        }
      ],
      "stateMutability": "view",
      "type": "function"
    },
    {
      "inputs": [
        {
          "internalType": "bytes32",
          "name": "",
          "type": "bytes32"
        }
      ],
      "name": "pendingUInts256",
      "outputs": [
        {
          "internalType": "uint256",
          "name": "",
          "type": "uint256"
        }
      ],
      "stateMutability": "view",
      "type": "function"
    },
    {
      "inputs": [
        {
          "internalType": "uint256",
          "name": "amount",
          "type": "uint256"
        }
      ],
      "name": "prepareKeeperRequiredStakedBKD",
      "outputs": [],
      "stateMutability": "nonpayable",
      "type": "function"
    },
    {
      "inputs": [
        {
          "internalType": "address",
          "name": "pool",
          "type": "address"
        }
      ],
      "name": "removePool",
      "outputs": [
        {
          "internalType": "bool",
          "name": "",
          "type": "bool"
        }
      ],
      "stateMutability": "nonpayable",
      "type": "function"
    },
    {
      "inputs": [],
      "name": "roleManager",
      "outputs": [
        {
          "internalType": "contract IRoleManager",
          "name": "",
          "type": "address"
        }
      ],
      "stateMutability": "view",
      "type": "function"
    },
    {
      "inputs": [
        {
          "internalType": "address",
          "name": "_inflationManager",
          "type": "address"
        }
      ],
      "name": "setInflationManager",
      "outputs": [],
      "stateMutability": "nonpayable",
      "type": "function"
    }
  ],
  "bytecode": "0x60c06040523480156200001157600080fd5b50604051620016d8380380620016d8833981016040819052620000349162000116565b62000053816001600160a01b03166200006b60201b62000f041760201c565b6001600160a01b039081166080521660a0526200013d565b6040516321f8a72160e01b81526a3937b632a6b0b730b3b2b960a91b60048201526000906001600160a01b038316906321f8a7219060240160206040518083038186803b158015620000bc57600080fd5b505afa158015620000d1573d6000803e3d6000fd5b505050506040513d601f19601f82011682018060405250810190620000f7919062000116565b92915050565b6001600160a01b03811681146200011357600080fd5b50565b6000602082840312156200012957600080fd5b81516200013681620000fd565b9392505050565b60805160a05161152f620001a9600039600081816101a301528181610315015281816104e90152818161061c015281816108e201528181610b430152610d78015260008181610106015281816103cb0152818161071701528181610a460152610c68015261152f6000f3fe608060405234801561001057600080fd5b50600436106100ff5760003560e01c806394421e8911610097578063c1d84e0b11610066578063c1d84e0b14610259578063dbcd89fa1461026c578063e3976edf1461027f578063f76c3399146102a857600080fd5b806394421e891461020b578063a41a76b21461021e578063aff1b7e414610231578063c19d354f1461025157600080fd5b80632954018c116100d35780632954018c1461019e578063346a4a51146101c55780633b7d0946146101e55780637f4c43ac146101f857600080fd5b8062435da5146101045780630f74c4d61461014357806315dbfe621461014d5780631951f52c1461017b575b600080fd5b7f00000000000000000000000000000000000000000000000000000000000000005b6040516001600160a01b0390911681526020015b60405180910390f35b61014b6102d1565b005b61016d61015b36600461125b565b60016020526000908152604090205481565b60405190815260200161013a565b61018e610189366004611289565b6102fa565b604051901515815260200161013a565b6101267f000000000000000000000000000000000000000000000000000000000000000081565b61016d6101d336600461125b565b60046020526000908152604090205481565b61018e6101f3366004611289565b6103c7565b61014b610206366004611289565b610715565b61016d610219366004611289565b6108d7565b61014b61022c36600461125b565b610a44565b61016d61023f36600461125b565b60036020526000908152604090205481565b61016d610bfb565b61018e610267366004611289565b610c46565b600554610126906001600160a01b031681565b61012661028d36600461125b565b6000602081905290815260409020546001600160a01b031681565b6101266102b636600461125b565b6002602052600090815260409020546001600160a01b031681565b6102f77912d15154115497d49154555254915117d4d51052d15117d092d160321b610f93565b50565b600080610305610bfb565b90508015806103c05750806103427f00000000000000000000000000000000000000000000000000000000000000006001600160a01b0316610fbe565b6040516370a0823160e01b81526001600160a01b03868116600483015291909116906370a082319060240160206040518083038186803b15801561038557600080fd5b505afa158015610399573d6000803e3d6000fd5b505050506040513d601f19601f820116820180604052508101906103bd91906112a6565b10155b9392505050565b60007f0000000000000000000000000000000000000000000000000000000000000000604051632474521560e21b815269676f7665726e616e636560b01b60048201523360248201526001600160a01b0391909116906391d148549060440160206040518083038186803b15801561043e57600080fd5b505afa158015610452573d6000803e3d6000fd5b505050506040513d601f19601f8201168201806040525081019061047691906112cf565b60405180604001604052806013815260200172756e617574686f72697a65642061636365737360681b815250906104c95760405162461bcd60e51b81526004016104c091906112ea565b60405180910390fd5b50604051631dbe84a360e11b81526001600160a01b0383811660048301527f00000000000000000000000000000000000000000000000000000000000000001690633b7d094690602401602060405180830381600087803b15801561052d57600080fd5b505af1158015610541573d6000803e3d6000fd5b505050506040513d601f19601f8201168201806040525081019061056591906112cf565b61057157506000919050565b6000826001600160a01b0316638214f5a46040518163ffffffff1660e01b815260040160206040518083038186803b1580156105ac57600080fd5b505afa1580156105c0573d6000803e3d6000fd5b505050506040513d601f19601f820116820180604052508101906105e4919061134a565b6005549091506001600160a01b03161561070a57604051636b3d334d60e01b81526001600160a01b03828116600483015260009182917f00000000000000000000000000000000000000000000000000000000000000001690636b3d334d90602401604080518083038186803b15801561065d57600080fd5b505afa158015610671573d6000803e3d6000fd5b505050506040513d601f19601f820116820180604052508101906106959190611367565b9150915081156107075760055460405163c51dfc8f60e01b81526001600160a01b03838116600483015285811660248301529091169063c51dfc8f90604401600060405180830381600087803b1580156106ee57600080fd5b505af1158015610702573d6000803e3d6000fd5b505050505b50505b60019150505b919050565b7f0000000000000000000000000000000000000000000000000000000000000000604051632474521560e21b815269676f7665726e616e636560b01b60048201523360248201526001600160a01b0391909116906391d148549060440160206040518083038186803b15801561078a57600080fd5b505afa15801561079e573d6000803e3d6000fd5b505050506040513d601f19601f820116820180604052508101906107c291906112cf565b60405180604001604052806013815260200172756e617574686f72697a65642061636365737360681b8152509061080c5760405162461bcd60e51b81526004016104c091906112ea565b506005546040805180820190915260168152751059191c995cdcc81a5cc8185b1c9958591e481cd95d60521b6020820152906001600160a01b0316156108655760405162461bcd60e51b81526004016104c091906112ea565b5060408051808201909152601081526f1a5b9d985b1a5908185c99dd5b595b9d60821b60208201526001600160a01b0382166108b45760405162461bcd60e51b81526004016104c091906112ea565b50600580546001600160a01b0319166001600160a01b0392909216919091179055565b6000806000905060007f00000000000000000000000000000000000000000000000000000000000000006001600160a01b0316635d138a346040518163ffffffff1660e01b815260040160006040518083038186803b15801561093957600080fd5b505afa15801561094d573d6000803e3d6000fd5b505050506040513d6000823e601f3d908101601f1916820160405261097591908101906113b4565b805190915060005b81811015610a3a5782818151811061099757610997611479565b6020908102919091010151604051633ee18c2360e11b81526001600160a01b03888116600483015290911690637dc318469060240160206040518083038186803b1580156109e457600080fd5b505afa1580156109f8573d6000803e3d6000fd5b505050506040513d601f19601f82011682018060405250810190610a1c91906112a6565b610a2690856114a5565b935080610a32816114bd565b91505061097d565b5091949350505050565b7f0000000000000000000000000000000000000000000000000000000000000000604051632474521560e21b815269676f7665726e616e636560b01b60048201523360248201526001600160a01b0391909116906391d148549060440160206040518083038186803b158015610ab957600080fd5b505afa158015610acd573d6000803e3d6000fd5b505050506040513d601f19601f82011682018060405250810190610af191906112cf565b60405180604001604052806013815260200172756e617574686f72697a65642061636365737360681b81525090610b3b5760405162461bcd60e51b81526004016104c091906112ea565b506000610b707f00000000000000000000000000000000000000000000000000000000000000006001600160a01b0316610fbe565b6001600160a01b031614156040518060400160405280601881526020017f7a65726f2061646472657373206e6f7420616c6c6f776564000000000000000081525090610bcf5760405162461bcd60e51b81526004016104c091906112ea565b50610bf77912d15154115497d49154555254915117d4d51052d15117d092d160321b82610ff9565b5050565b7912d15154115497d49154555254915117d4d51052d15117d092d160321b60005260036020527ff9cec71463bbdc9484113d7c4d6a0bab1ccc113b3f956e7fa3114dc553b40d025490565b600069676f7665726e616e636560b01b6b706f6f6c5f666163746f727960a01b7f0000000000000000000000000000000000000000000000000000000000000000604051636bab521160e11b815260048101849052602481018390523360448201526001600160a01b03919091169063d756a4229060640160206040518083038186803b158015610cd657600080fd5b505afa158015610cea573d6000803e3d6000fd5b505050506040513d601f19601f82011682018060405250810190610d0e91906112cf565b60405180604001604052806013815260200172756e617574686f72697a65642061636365737360681b81525090610d585760405162461bcd60e51b81526004016104c091906112ea565b5060405163c1d84e0b60e01b81526001600160a01b0385811660048301527f0000000000000000000000000000000000000000000000000000000000000000169063c1d84e0b90602401602060405180830381600087803b158015610dbc57600080fd5b505af1158015610dd0573d6000803e3d6000fd5b505050506040513d601f19601f82011682018060405250810190610df491906112cf565b610e015760009250610efd565b6005546001600160a01b031615610ef8576000846001600160a01b0316632c8161246040518163ffffffff1660e01b815260040160206040518083038186803b158015610e4d57600080fd5b505afa158015610e61573d6000803e3d6000fd5b505050506040513d601f19601f82011682018060405250810190610e85919061134a565b90506001600160a01b03811615610ef657600554604051631caea2c960e01b81526001600160a01b03838116600483015290911690631caea2c990602401600060405180830381600087803b158015610edd57600080fd5b505af1158015610ef1573d6000803e3d6000fd5b505050505b505b600192505b5050919050565b6040516321f8a72160e01b81526a3937b632a6b0b730b3b2b960a91b60048201526000906001600160a01b038316906321f8a721906024015b60206040518083038186803b158015610f5557600080fd5b505afa158015610f69573d6000803e3d6000fd5b505050506040513d601f19601f82011682018060405250810190610f8d919061134a565b92915050565b6000610f9e82611009565b600082815260016020526040902054610fb783826110b2565b5092915050565b6040516321f8a72160e01b8152683135b22637b1b5b2b960b91b60048201526000906001600160a01b038316906321f8a72190602401610f3d565b60006103c083836203f48061111e565b600060046000838152602001908152602001600020549050804210156040518060600160405280602181526020016114d9602191399061105c5760405162461bcd60e51b81526004016104c091906112ea565b5060408051808201909152600d81526c0646561646c696e65206973203609c1b60208201528161109f5760405162461bcd60e51b81526004016104c091906112ea565b5050600090815260046020526040812055565b6000828152600360209081526040808320805490859055600183528184208490556004835281842084905581518181529283018590529185917fcc0bafe2accb565ea70674bf4b2555e49a47d410fb9932dfab3e5f41855d0a2f910160405180910390a2509092915050565b600061112a8483611181565b600084815260016020908152604091829020859055815185815290810184905285917f0e6790002e78fb96ff1fdfe3a3bb2a86489d3f3923372c1fe5b6b1fed071eed4910160405180910390a25060019392505050565b6004600083815260200190815260200160002054600014604051806040016040528060128152602001710646561646c696e65206d75737420626520360741b815250906111e15760405162461bcd60e51b81526004016104c091906112ea565b5060408051808201909152601881527f64656c6179206265206174206c6561737420332064617973000000000000000060208201526203f48082101561123a5760405162461bcd60e51b81526004016104c091906112ea565b5061124581426114a5565b6000928352600460205260409092209190915550565b60006020828403121561126d57600080fd5b5035919050565b6001600160a01b03811681146102f757600080fd5b60006020828403121561129b57600080fd5b81356103c081611274565b6000602082840312156112b857600080fd5b5051919050565b8051801515811461071057600080fd5b6000602082840312156112e157600080fd5b6103c0826112bf565b600060208083528351808285015260005b81811015611317578581018301518582016040015282016112fb565b81811115611329576000604083870101525b50601f01601f1916929092016040019392505050565b805161071081611274565b60006020828403121561135c57600080fd5b81516103c081611274565b6000806040838503121561137a57600080fd5b611383836112bf565b9150602083015161139381611274565b809150509250929050565b634e487b7160e01b600052604160045260246000fd5b600060208083850312156113c757600080fd5b825167ffffffffffffffff808211156113df57600080fd5b818501915085601f8301126113f357600080fd5b8151818111156114055761140561139e565b8060051b604051601f19603f8301168101818110858211171561142a5761142a61139e565b60405291825284820192508381018501918883111561144857600080fd5b938501935b8285101561146d5761145e8561133f565b8452938501939285019261144d565b98975050505050505050565b634e487b7160e01b600052603260045260246000fd5b634e487b7160e01b600052601160045260246000fd5b600082198211156114b8576114b861148f565b500190565b60006000198214156114d1576114d161148f565b506001019056fe646561646c696e6520686173206e6f74206265656e207265616368656420796574a264697066735822122022d601b7394d38faebd18ad63f6a9acab289678395834a15d52065e0ec5260a864736f6c63430008090033",
  "linkReferences": {},
  "deployedLinkReferences": {}
}