{
  "_format": "hh-sol-artifact-1",
  "contractName": "YearnControllerMock",
  "sourceName": "contracts/v3/alchemix/mocks/YearnControllerMock.sol",
  "abi": [
    {
      "inputs": [
        {
          "internalType": "address",
          "name": "_token",
          "type": "address"
        }
      ],
      "name": "balanceOf",
      "outputs": [
        {
          "internalType": "uint256",
          "name": "",
          "type": "uint256"
        }
      ],
      "stateMutability": "view",
      "type": "function"
    },
    {
      "inputs": [],
      "name": "blackhole",
      "outputs": [
        {
          "internalType": "address",
          "name": "",
          "type": "address"
        }
      ],
      "stateMutability": "view",
      "type": "function"
    },
    {
      "inputs": [
        {
          "internalType": "address",
          "name": "_token",
          "type": "address"
        },
        {
          "internalType": "uint256",
          "name": "_amount",
          "type": "uint256"
        }
      ],
      "name": "earn",
      "outputs": [],
      "stateMutability": "nonpayable",
      "type": "function"
    },
    {
      "inputs": [
        {
          "internalType": "uint256",
          "name": "_withdrawalFee",
          "type": "uint256"
        }
      ],
      "name": "setWithdrawalFee",
      "outputs": [],
      "stateMutability": "nonpayable",
      "type": "function"
    },
    {
      "inputs": [
        {
          "internalType": "address",
          "name": "_token",
          "type": "address"
        },
        {
          "internalType": "uint256",
          "name": "_amount",
          "type": "uint256"
        }
      ],
      "name": "withdraw",
      "outputs": [],
      "stateMutability": "nonpayable",
      "type": "function"
    },
    {
      "inputs": [],
      "name": "withdrawalFee",
      "outputs": [
        {
          "internalType": "uint256",
          "name": "",
          "type": "uint256"
        }
      ],
      "stateMutability": "view",
      "type": "function"
    },
    {
      "inputs": [],
      "name": "withdrawalMax",
      "outputs": [
        {
          "internalType": "uint256",
          "name": "",
          "type": "uint256"
        }
      ],
      "stateMutability": "view",
      "type": "function"
    }
  ],
  "bytecode": "0x6080604052603260005534801561001557600080fd5b506106a5806100256000396000f3fe608060405234801561001057600080fd5b506004361061007d5760003560e01c8063b02bf4b91161005b578063b02bf4b9146100c8578063d5c1ff73146100db578063f34447f7146100e3578063f3fef3a3146100f85761007d565b806370a08231146100825780638bc7e8c4146100ab578063ac1e5025146100b3575b600080fd5b61009561009036600461045e565b61010b565b6040516100a29190610636565b60405180910390f35b610095610190565b6100c66100c13660046104c3565b610196565b005b6100c66100d6366004610479565b61019b565b61009561019f565b6100eb6101a5565b6040516100a2919061050f565b6100c6610106366004610479565b6101ab565b6040516370a0823160e01b81526000906001600160a01b038316906370a082319061013a90309060040161050f565b60206040518083038186803b15801561015257600080fd5b505afa158015610166573d6000803e3d6000fd5b505050506040513d601f19601f8201168201806040525081019061018a91906104db565b92915050565b60005481565b600055565b5050565b61271081565b61dead81565b6040516370a0823160e01b81526000906001600160a01b038416906370a08231906101da90309060040161050f565b60206040518083038186803b1580156101f257600080fd5b505afa158015610206573d6000803e3d6000fd5b505050506040513d601f19601f8201168201806040525081019061022a91906104db565b90506102406001600160a01b0384163384610245565b505050565b6102408363a9059cbb60e01b8484604051602401610264929190610523565b60408051601f198184030181529190526020810180516001600160e01b03166001600160e01b03199093169290921790915260606102eb826040518060400160405280602081526020017f5361666545524332303a206c6f772d6c6576656c2063616c6c206661696c6564815250856001600160a01b031661032e9092919063ffffffff16565b805190915015610240578080602001905181019061030991906104a3565b6102405760405162461bcd60e51b8152600401610325906105ec565b60405180910390fd5b606061033d8484600085610347565b90505b9392505050565b6060824710156103695760405162461bcd60e51b81526004016103259061056f565b61037285610408565b61038e5760405162461bcd60e51b8152600401610325906105b5565b60006060866001600160a01b031685876040516103ab91906104f3565b60006040518083038185875af1925050503d80600081146103e8576040519150601f19603f3d011682016040523d82523d6000602084013e6103ed565b606091505b50915091506103fd82828661040e565b979650505050505050565b3b151590565b6060831561041d575081610340565b82511561042d5782518084602001fd5b8160405162461bcd60e51b8152600401610325919061053c565b80356001600160a01b038116811461018a57600080fd5b60006020828403121561046f578081fd5b6103408383610447565b6000806040838503121561048b578081fd5b6104958484610447565b946020939093013593505050565b6000602082840312156104b4578081fd5b81518015158114610340578182fd5b6000602082840312156104d4578081fd5b5035919050565b6000602082840312156104ec578081fd5b5051919050565b6000825161050581846020870161063f565b9190910192915050565b6001600160a01b0391909116815260200190565b6001600160a01b03929092168252602082015260400190565b600060208252825180602084015261055b81604085016020870161063f565b601f01601f19169190910160400192915050565b60208082526026908201527f416464726573733a20696e73756666696369656e742062616c616e636520666f6040820152651c8818d85b1b60d21b606082015260800190565b6020808252601d908201527f416464726573733a2063616c6c20746f206e6f6e2d636f6e7472616374000000604082015260600190565b6020808252602a908201527f5361666545524332303a204552433230206f7065726174696f6e20646964206e6040820152691bdd081cdd58d8d9595960b21b606082015260800190565b90815260200190565b60005b8381101561065a578181015183820152602001610642565b83811115610669576000848401525b5050505056fea2646970667358221220a4903368985ea33cd5a663d16586f0e4c3d6de863792ab85974a6388c594385364736f6c634300060c0033",
  "linkReferences": {},
  "deployedLinkReferences": {}
}