{
  "contracts/testing/MockChainlinkFeed.sol": {
    "MockChainlinkFeed": {
      "abi": [
        {
          "inputs": [
            {
              "internalType": "uint8",
              "name": "_decimals",
              "type": "uint8"
            },
            {
              "internalType": "int256",
              "name": "_price",
              "type": "int256"
            },
            {
              "internalType": "uint256",
              "name": "_lastUpdate",
              "type": "uint256"
            }
          ],
          "stateMutability": "nonpayable",
          "type": "constructor"
        },
        {
          "inputs": [],
          "name": "decimals",
          "outputs": [
            {
              "internalType": "uint8",
              "name": "",
              "type": "uint8"
            }
          ],
          "stateMutability": "view",
          "type": "function"
        },
        {
          "inputs": [],
          "name": "lastUpdate",
          "outputs": [
            {
              "internalType": "uint256",
              "name": "",
              "type": "uint256"
            }
          ],
          "stateMutability": "view",
          "type": "function"
        },
        {
          "inputs": [],
          "name": "latestRoundData",
          "outputs": [
            {
              "internalType": "uint80",
              "name": "roundId",
              "type": "uint80"
            },
            {
              "internalType": "int256",
              "name": "answer",
              "type": "int256"
            },
            {
              "internalType": "uint256",
              "name": "startedAt",
              "type": "uint256"
            },
            {
              "internalType": "uint256",
              "name": "updatedAt",
              "type": "uint256"
            },
            {
              "internalType": "uint80",
              "name": "answeredInRound",
              "type": "uint80"
            }
          ],
          "stateMutability": "view",
          "type": "function"
        },
        {
          "inputs": [],
          "name": "price",
          "outputs": [
            {
              "internalType": "int256",
              "name": "",
              "type": "int256"
            }
          ],
          "stateMutability": "view",
          "type": "function"
        }
      ],
      "evm": {
        "bytecode": {
          "linkReferences": {},
          "object": "60e060405234801561001057600080fd5b5060405161024738038061024783398101604081905261002f91610042565b60ff90921660805260a05260c05261007f565b60008060006060848603121561005757600080fd5b835160ff8116811461006857600080fd5b602085015160409095015190969495509392505050565b60805160a05160c05161018f6100b86000396000818160c9015261011c0152600081816094015260f6015260006056015261018f6000f3fe608060405234801561001057600080fd5b506004361061004c5760003560e01c8063313ce56714610051578063a035b1fe1461008f578063c0463711146100c4578063feaf968c146100eb575b600080fd5b6100787f000000000000000000000000000000000000000000000000000000000000000081565b60405160ff90911681526020015b60405180910390f35b6100b67f000000000000000000000000000000000000000000000000000000000000000081565b604051908152602001610086565b6100b67f000000000000000000000000000000000000000000000000000000000000000081565b6040805160008082527f000000000000000000000000000000000000000000000000000000000000000060208301527f00000000000000000000000000000000000000000000000000000000000000009282018390526060820192909252608081019190915260a00161008656fea2646970667358221220683c5ec5ebd2e87ec7c5a676afa384b8225799cc227bc5ca8e86ffd9b656f30e64736f6c63430008090033",
          "opcodes": "PUSH1 0xE0 PUSH1 0x40 MSTORE CALLVALUE DUP1 ISZERO PUSH2 0x10 JUMPI PUSH1 0x0 DUP1 REVERT JUMPDEST POP PUSH1 0x40 MLOAD PUSH2 0x247 CODESIZE SUB DUP1 PUSH2 0x247 DUP4 CODECOPY DUP2 ADD PUSH1 0x40 DUP2 SWAP1 MSTORE PUSH2 0x2F SWAP2 PUSH2 0x42 JUMP JUMPDEST PUSH1 0xFF SWAP1 SWAP3 AND PUSH1 0x80 MSTORE PUSH1 0xA0 MSTORE PUSH1 0xC0 MSTORE PUSH2 0x7F JUMP JUMPDEST PUSH1 0x0 DUP1 PUSH1 0x0 PUSH1 0x60 DUP5 DUP7 SUB SLT ISZERO PUSH2 0x57 JUMPI PUSH1 0x0 DUP1 REVERT JUMPDEST DUP4 MLOAD PUSH1 0xFF DUP2 AND DUP2 EQ PUSH2 0x68 JUMPI PUSH1 0x0 DUP1 REVERT JUMPDEST PUSH1 0x20 DUP6 ADD MLOAD PUSH1 0x40 SWAP1 SWAP6 ADD MLOAD SWAP1 SWAP7 SWAP5 SWAP6 POP SWAP4 SWAP3 POP POP POP JUMP JUMPDEST PUSH1 0x80 MLOAD PUSH1 0xA0 MLOAD PUSH1 0xC0 MLOAD PUSH2 0x18F PUSH2 0xB8 PUSH1 0x0 CODECOPY PUSH1 0x0 DUP2 DUP2 PUSH1 0xC9 ADD MSTORE PUSH2 0x11C ADD MSTORE PUSH1 0x0 DUP2 DUP2 PUSH1 0x94 ADD MSTORE PUSH1 0xF6 ADD MSTORE PUSH1 0x0 PUSH1 0x56 ADD MSTORE PUSH2 0x18F PUSH1 0x0 RETURN INVALID PUSH1 0x80 PUSH1 0x40 MSTORE CALLVALUE DUP1 ISZERO PUSH2 0x10 JUMPI PUSH1 0x0 DUP1 REVERT JUMPDEST POP PUSH1 0x4 CALLDATASIZE LT PUSH2 0x4C JUMPI PUSH1 0x0 CALLDATALOAD PUSH1 0xE0 SHR DUP1 PUSH4 0x313CE567 EQ PUSH2 0x51 JUMPI DUP1 PUSH4 0xA035B1FE EQ PUSH2 0x8F JUMPI DUP1 PUSH4 0xC0463711 EQ PUSH2 0xC4 JUMPI DUP1 PUSH4 0xFEAF968C EQ PUSH2 0xEB JUMPI JUMPDEST PUSH1 0x0 DUP1 REVERT JUMPDEST PUSH2 0x78 PUSH32 0x0 DUP2 JUMP JUMPDEST PUSH1 0x40 MLOAD PUSH1 0xFF SWAP1 SWAP2 AND DUP2 MSTORE PUSH1 0x20 ADD JUMPDEST PUSH1 0x40 MLOAD DUP1 SWAP2 SUB SWAP1 RETURN JUMPDEST PUSH2 0xB6 PUSH32 0x0 DUP2 JUMP JUMPDEST PUSH1 0x40 MLOAD SWAP1 DUP2 MSTORE PUSH1 0x20 ADD PUSH2 0x86 JUMP JUMPDEST PUSH2 0xB6 PUSH32 0x0 DUP2 JUMP JUMPDEST PUSH1 0x40 DUP1 MLOAD PUSH1 0x0 DUP1 DUP3 MSTORE PUSH32 0x0 PUSH1 0x20 DUP4 ADD MSTORE PUSH32 0x0 SWAP3 DUP3 ADD DUP4 SWAP1 MSTORE PUSH1 0x60 DUP3 ADD SWAP3 SWAP1 SWAP3 MSTORE PUSH1 0x80 DUP2 ADD SWAP2 SWAP1 SWAP2 MSTORE PUSH1 0xA0 ADD PUSH2 0x86 JUMP INVALID LOG2 PUSH5 0x6970667358 0x22 SLT KECCAK256 PUSH9 0x3C5EC5EBD2E87EC7C5 0xA6 PUSH23 0xAFA384B8225799CC227BC5CA8E86FFD9B656F30E64736F PUSH13 0x63430008090033000000000000 "
        },
        "methodIdentifiers": {
          "decimals()": "313ce567",
          "lastUpdate()": "c0463711",
          "latestRoundData()": "feaf968c",
          "price()": "a035b1fe"
        }
      }
    }
  }
}