{
  "_format": "hh-sol-artifact-1",
  "contractName": "YVault",
  "sourceName": "contracts/vaults/yVault/yVault.sol",
  "abi": [
    {
      "inputs": [
        {
          "internalType": "address",
          "name": "_token",
          "type": "address"
        },
        {
          "internalType": "address",
          "name": "_controller",
          "type": "address"
        },
        {
          "components": [
            {
              "internalType": "uint128",
              "name": "numerator",
              "type": "uint128"
            },
            {
              "internalType": "uint128",
              "name": "denominator",
              "type": "uint128"
            }
          ],
          "internalType": "struct YVault.Rate",
          "name": "_availableTokensRate",
          "type": "tuple"
        }
      ],
      "stateMutability": "nonpayable",
      "type": "constructor"
    },
    {
      "anonymous": false,
      "inputs": [
        {
          "indexed": true,
          "internalType": "address",
          "name": "owner",
          "type": "address"
        },
        {
          "indexed": true,
          "internalType": "address",
          "name": "spender",
          "type": "address"
        },
        {
          "indexed": false,
          "internalType": "uint256",
          "name": "value",
          "type": "uint256"
        }
      ],
      "name": "Approval",
      "type": "event"
    },
    {
      "anonymous": false,
      "inputs": [
        {
          "indexed": true,
          "internalType": "address",
          "name": "depositor",
          "type": "address"
        },
        {
          "indexed": false,
          "internalType": "uint256",
          "name": "wantAmount",
          "type": "uint256"
        }
      ],
      "name": "Deposit",
      "type": "event"
    },
    {
      "anonymous": false,
      "inputs": [
        {
          "indexed": true,
          "internalType": "address",
          "name": "previousOwner",
          "type": "address"
        },
        {
          "indexed": true,
          "internalType": "address",
          "name": "newOwner",
          "type": "address"
        }
      ],
      "name": "OwnershipTransferred",
      "type": "event"
    },
    {
      "anonymous": false,
      "inputs": [
        {
          "indexed": true,
          "internalType": "address",
          "name": "from",
          "type": "address"
        },
        {
          "indexed": true,
          "internalType": "address",
          "name": "to",
          "type": "address"
        },
        {
          "indexed": false,
          "internalType": "uint256",
          "name": "value",
          "type": "uint256"
        }
      ],
      "name": "Transfer",
      "type": "event"
    },
    {
      "anonymous": false,
      "inputs": [
        {
          "indexed": true,
          "internalType": "address",
          "name": "withdrawer",
          "type": "address"
        },
        {
          "indexed": false,
          "internalType": "uint256",
          "name": "wantAmount",
          "type": "uint256"
        }
      ],
      "name": "Withdrawal",
      "type": "event"
    },
    {
      "inputs": [
        {
          "internalType": "address",
          "name": "owner",
          "type": "address"
        },
        {
          "internalType": "address",
          "name": "spender",
          "type": "address"
        }
      ],
      "name": "allowance",
      "outputs": [
        {
          "internalType": "uint256",
          "name": "",
          "type": "uint256"
        }
      ],
      "stateMutability": "view",
      "type": "function"
    },
    {
      "inputs": [
        {
          "internalType": "address",
          "name": "spender",
          "type": "address"
        },
        {
          "internalType": "uint256",
          "name": "amount",
          "type": "uint256"
        }
      ],
      "name": "approve",
      "outputs": [
        {
          "internalType": "bool",
          "name": "",
          "type": "bool"
        }
      ],
      "stateMutability": "nonpayable",
      "type": "function"
    },
    {
      "inputs": [],
      "name": "available",
      "outputs": [
        {
          "internalType": "uint256",
          "name": "",
          "type": "uint256"
        }
      ],
      "stateMutability": "view",
      "type": "function"
    },
    {
      "inputs": [],
      "name": "balance",
      "outputs": [
        {
          "internalType": "uint256",
          "name": "",
          "type": "uint256"
        }
      ],
      "stateMutability": "view",
      "type": "function"
    },
    {
      "inputs": [
        {
          "internalType": "address",
          "name": "account",
          "type": "address"
        }
      ],
      "name": "balanceOf",
      "outputs": [
        {
          "internalType": "uint256",
          "name": "",
          "type": "uint256"
        }
      ],
      "stateMutability": "view",
      "type": "function"
    },
    {
      "inputs": [],
      "name": "balanceOfJPEG",
      "outputs": [
        {
          "internalType": "uint256",
          "name": "",
          "type": "uint256"
        }
      ],
      "stateMutability": "view",
      "type": "function"
    },
    {
      "inputs": [],
      "name": "controller",
      "outputs": [
        {
          "internalType": "contract IController",
          "name": "",
          "type": "address"
        }
      ],
      "stateMutability": "view",
      "type": "function"
    },
    {
      "inputs": [],
      "name": "decimals",
      "outputs": [
        {
          "internalType": "uint8",
          "name": "",
          "type": "uint8"
        }
      ],
      "stateMutability": "view",
      "type": "function"
    },
    {
      "inputs": [
        {
          "internalType": "address",
          "name": "spender",
          "type": "address"
        },
        {
          "internalType": "uint256",
          "name": "subtractedValue",
          "type": "uint256"
        }
      ],
      "name": "decreaseAllowance",
      "outputs": [
        {
          "internalType": "bool",
          "name": "",
          "type": "bool"
        }
      ],
      "stateMutability": "nonpayable",
      "type": "function"
    },
    {
      "inputs": [
        {
          "internalType": "uint256",
          "name": "_amount",
          "type": "uint256"
        }
      ],
      "name": "deposit",
      "outputs": [],
      "stateMutability": "nonpayable",
      "type": "function"
    },
    {
      "inputs": [],
      "name": "depositAll",
      "outputs": [],
      "stateMutability": "nonpayable",
      "type": "function"
    },
    {
      "inputs": [],
      "name": "earn",
      "outputs": [],
      "stateMutability": "nonpayable",
      "type": "function"
    },
    {
      "inputs": [],
      "name": "farm",
      "outputs": [
        {
          "internalType": "address",
          "name": "",
          "type": "address"
        }
      ],
      "stateMutability": "view",
      "type": "function"
    },
    {
      "inputs": [],
      "name": "getPricePerFullShare",
      "outputs": [
        {
          "internalType": "uint256",
          "name": "",
          "type": "uint256"
        }
      ],
      "stateMutability": "view",
      "type": "function"
    },
    {
      "inputs": [
        {
          "internalType": "address",
          "name": "spender",
          "type": "address"
        },
        {
          "internalType": "uint256",
          "name": "addedValue",
          "type": "uint256"
        }
      ],
      "name": "increaseAllowance",
      "outputs": [
        {
          "internalType": "bool",
          "name": "",
          "type": "bool"
        }
      ],
      "stateMutability": "nonpayable",
      "type": "function"
    },
    {
      "inputs": [],
      "name": "name",
      "outputs": [
        {
          "internalType": "string",
          "name": "",
          "type": "string"
        }
      ],
      "stateMutability": "view",
      "type": "function"
    },
    {
      "inputs": [],
      "name": "owner",
      "outputs": [
        {
          "internalType": "address",
          "name": "",
          "type": "address"
        }
      ],
      "stateMutability": "view",
      "type": "function"
    },
    {
      "inputs": [],
      "name": "renounceOwnership",
      "outputs": [],
      "stateMutability": "view",
      "type": "function"
    },
    {
      "inputs": [
        {
          "components": [
            {
              "internalType": "uint128",
              "name": "numerator",
              "type": "uint128"
            },
            {
              "internalType": "uint128",
              "name": "denominator",
              "type": "uint128"
            }
          ],
          "internalType": "struct YVault.Rate",
          "name": "_rate",
          "type": "tuple"
        }
      ],
      "name": "setAvailableTokensRate",
      "outputs": [],
      "stateMutability": "nonpayable",
      "type": "function"
    },
    {
      "inputs": [
        {
          "internalType": "address",
          "name": "_contract",
          "type": "address"
        },
        {
          "internalType": "bool",
          "name": "_isWhitelisted",
          "type": "bool"
        }
      ],
      "name": "setContractWhitelisted",
      "outputs": [],
      "stateMutability": "nonpayable",
      "type": "function"
    },
    {
      "inputs": [
        {
          "internalType": "address",
          "name": "_controller",
          "type": "address"
        }
      ],
      "name": "setController",
      "outputs": [],
      "stateMutability": "nonpayable",
      "type": "function"
    },
    {
      "inputs": [
        {
          "internalType": "address",
          "name": "_farm",
          "type": "address"
        }
      ],
      "name": "setFarmingPool",
      "outputs": [],
      "stateMutability": "nonpayable",
      "type": "function"
    },
    {
      "inputs": [],
      "name": "symbol",
      "outputs": [
        {
          "internalType": "string",
          "name": "",
          "type": "string"
        }
      ],
      "stateMutability": "view",
      "type": "function"
    },
    {
      "inputs": [],
      "name": "token",
      "outputs": [
        {
          "internalType": "contract ERC20",
          "name": "",
          "type": "address"
        }
      ],
      "stateMutability": "view",
      "type": "function"
    },
    {
      "inputs": [],
      "name": "totalSupply",
      "outputs": [
        {
          "internalType": "uint256",
          "name": "",
          "type": "uint256"
        }
      ],
      "stateMutability": "view",
      "type": "function"
    },
    {
      "inputs": [
        {
          "internalType": "address",
          "name": "recipient",
          "type": "address"
        },
        {
          "internalType": "uint256",
          "name": "amount",
          "type": "uint256"
        }
      ],
      "name": "transfer",
      "outputs": [
        {
          "internalType": "bool",
          "name": "",
          "type": "bool"
        }
      ],
      "stateMutability": "nonpayable",
      "type": "function"
    },
    {
      "inputs": [
        {
          "internalType": "address",
          "name": "sender",
          "type": "address"
        },
        {
          "internalType": "address",
          "name": "recipient",
          "type": "address"
        },
        {
          "internalType": "uint256",
          "name": "amount",
          "type": "uint256"
        }
      ],
      "name": "transferFrom",
      "outputs": [
        {
          "internalType": "bool",
          "name": "",
          "type": "bool"
        }
      ],
      "stateMutability": "nonpayable",
      "type": "function"
    },
    {
      "inputs": [
        {
          "internalType": "address",
          "name": "newOwner",
          "type": "address"
        }
      ],
      "name": "transferOwnership",
      "outputs": [],
      "stateMutability": "nonpayable",
      "type": "function"
    },
    {
      "inputs": [
        {
          "internalType": "address",
          "name": "",
          "type": "address"
        }
      ],
      "name": "whitelistedContracts",
      "outputs": [
        {
          "internalType": "bool",
          "name": "",
          "type": "bool"
        }
      ],
      "stateMutability": "view",
      "type": "function"
    },
    {
      "inputs": [
        {
          "internalType": "uint256",
          "name": "_shares",
          "type": "uint256"
        }
      ],
      "name": "withdraw",
      "outputs": [],
      "stateMutability": "nonpayable",
      "type": "function"
    },
    {
      "inputs": [],
      "name": "withdrawAll",
      "outputs": [],
      "stateMutability": "nonpayable",
      "type": "function"
    },
    {
      "inputs": [],
      "name": "withdrawJPEG",
      "outputs": [],
      "stateMutability": "nonpayable",
      "type": "function"
    }
  ],
  "bytecode": "0x60a06040523480156200001157600080fd5b506040516200319b3803806200319b833981016040819052620000349162000534565b826001600160a01b03166306fdde036040518163ffffffff1660e01b815260040160006040518083038186803b1580156200006e57600080fd5b505afa15801562000083573d6000803e3d6000fd5b505050506040513d6000823e601f3d908101601f19168201604052620000ad919081019062000588565b604051602001620000bf9190620006f6565b604051602081830303815290604052836001600160a01b03166395d89b416040518163ffffffff1660e01b815260040160006040518083038186803b1580156200010857600080fd5b505afa1580156200011d573d6000803e3d6000fd5b505050506040513d6000823e601f3d908101601f1916820160405262000147919081019062000588565b604051602001620001599190620006d4565b60408051601f1981840301815291905281516200017e906003906020850190620003af565b50805162000194906004906020840190620003af565b505050620001b1620001ab620001df60201b60201c565b620001e3565b620001bc8262000235565b620001c781620002cf565b505060601b6001600160601b0319166080526200087e565b3390565b600580546001600160a01b038381166001600160a01b0319831681179093556040519116919082907f8be0079c531659141344cd1fd0a4f28419497f9722a3daafe3b4186f6b6457e090600090a35050565b6200023f620001df565b6001600160a01b031662000252620003a0565b6001600160a01b031614620002845760405162461bcd60e51b81526004016200027b9062000727565b60405180910390fd5b6001600160a01b038116620002ad5760405162461bcd60e51b81526004016200027b9062000715565b600680546001600160a01b0319166001600160a01b0392909216919091179055565b620002d9620001df565b6001600160a01b0316620002ec620003a0565b6001600160a01b031614620003155760405162461bcd60e51b81526004016200027b9062000727565b80516001600160801b03161580159062000349575080600001516001600160801b031681602001516001600160801b031610155b620003685760405162461bcd60e51b81526004016200027b9062000703565b8051600880546020909301516001600160801b03908116600160801b029281166001600160801b031990941693909317909216179055565b6005546001600160a01b031690565b828054620003bd90620007fc565b90600052602060002090601f016020900481019282620003e157600085556200042c565b82601f10620003fc57805160ff19168380011785556200042c565b828001600101855582156200042c579182015b828111156200042c5782518255916020019190600101906200040f565b506200043a9291506200043e565b5090565b5b808211156200043a57600081556001016200043f565b60006200046c620004668462000765565b62000739565b9050828152602081018484840111156200048557600080fd5b62000492848285620007c9565b509392505050565b8051620004a78162000859565b92915050565b600082601f830112620004bf57600080fd5b8151620004d184826020860162000455565b949350505050565b600060408284031215620004ec57600080fd5b620004f8604062000739565b9050600062000508848462000527565b82525060206200051b8484830162000527565b60208301525092915050565b8051620004a78162000873565b6000806000608084860312156200054a57600080fd5b60006200055886866200049a565b93505060206200056b868287016200049a565b92505060406200057e86828701620004d9565b9150509250925092565b6000602082840312156200059b57600080fd5b81516001600160401b03811115620005b257600080fd5b620004d184828501620004ad565b6000620005cd8262000792565b620005d981856200079f565b9350620005eb818560208601620007c9565b9290920192915050565b600062000604600c8362000796565b6b494e56414c49445f5241544560a01b815260200192915050565b60006200062e60128362000796565b7124a72b20a624a22fa1a7a72a2927a62622a960711b815260200192915050565b60006200065e60208362000796565b7f4f776e61626c653a2063616c6c6572206973206e6f7420746865206f776e6572815260200192915050565b6000620006996005836200079f565b6412941151d160da1b815260050192915050565b6000620006bc6009836200079f565b680252822a3f1404cb2160bd1b815260090192915050565b6000620006e1826200068a565b9150620006ef8284620005c0565b9392505050565b6000620006e182620006ad565b60208082528101620004a781620005f5565b60208082528101620004a7816200061f565b60208082528101620004a7816200064f565b6040518181016001600160401b03811182821017156200075d576200075d62000843565b604052919050565b60006001600160401b0382111562000781576200078162000843565b506020601f91909101601f19160190565b5190565b90815260200190565b919050565b6000620004a782620007bd565b6001600160801b031690565b6001600160a01b031690565b60005b83811015620007e6578181015183820152602001620007cc565b83811115620007f6576000848401525b50505050565b6002810460018216806200081157607f821691505b602082108114156200082757620008276200082d565b50919050565b634e487b7160e01b600052602260045260246000fd5b634e487b7160e01b600052604160045260246000fd5b6200086481620007a4565b81146200087057600080fd5b50565b6200086481620007b1565b60805160601c6128a3620008f86000396000818161068b01528181610768015281816107d30152818161084601528181610aa901528181610c5a01528181610de101528181610ef701528181610f860152818161109801528181611153015281816111bd0152818161126201526113fd01526128a36000f3fe608060405234801561001057600080fd5b50600436106101f05760003560e01c80638da5cb5b1161010f578063b6b55f25116100a2578063e75e04d011610071578063e75e04d0146103b0578063f2fde38b146103c3578063f77c4791146103d6578063fc0c546a146103eb576101f0565b8063b6b55f251461037a578063d389800f1461038d578063dd62ed3e14610395578063de5f6268146103a8576101f0565b80639711c715116100de5780639711c71514610344578063a457c2d71461034c578063a9059cbb1461035f578063b69ef8a814610372576101f0565b80638da5cb5b1461031957806390406ef81461032157806392eefe9b1461032957806395d89b411461033c576101f0565b806336e9332d1161018757806370a082311161015657806370a08231146102ee578063715018a61461030157806377c7b8fc14610309578063853828b614610311576101f0565b806336e9332d146102ab578063391feebb146102c057806339509351146102d357806348a0d754146102e6576101f0565b806323b872dd116101c357806323b872dd1461025d5780632e1a7d4d14610270578063313ce567146102835780633342ad4714610298576101f0565b806306fdde03146101f5578063095ea7b314610213578063118f81691461023357806318160ddd14610248575b600080fd5b6101fd6103f3565b60405161020a91906124a5565b60405180910390f35b610226610221366004611bca565b610486565b60405161020a9190612489565b610246610241366004611b9a565b6104a4565b005b610250610517565b60405161020a9190612626565b61022661026b366004611b4d565b61051d565b61024661027e366004611c36565b6105af565b61028b610842565b60405161020a9190612634565b6102466102a6366004611c18565b6108da565b6102b36109e9565b60405161020a919061241d565b6102266102ce366004611af5565b6109f8565b6102266102e1366004611bca565b610a0d565b610250610a61565b6102506102fc366004611af5565b610b42565b610246610b5d565b610250610bb4565b610246610bfb565b6102b3610c09565b610250610c18565b610246610337366004611af5565b610cd2565b6101fd610d66565b610246610d75565b61022661035a366004611bca565b610e41565b61022661036d366004611bca565b610eba565b610250610ece565b610246610388366004611c36565b611015565b610246611135565b6102506103a3366004611b13565b61121c565b610246611247565b6102466103be366004611af5565b6112e7565b6102466103d1366004611af5565b61137b565b6103de6113ec565b60405161020a9190612497565b6103de6113fb565b606060038054610402906127a6565b80601f016020809104026020016040519081016040528092919081815260200182805461042e906127a6565b801561047b5780601f106104505761010080835404028352916020019161047b565b820191906000526020600020905b81548152906001019060200180831161045e57829003601f168201915b505050505090505b90565b600061049a61049361141f565b8484611423565b5060015b92915050565b6104ac61141f565b6001600160a01b03166104bd610c09565b6001600160a01b0316146104ec5760405162461bcd60e51b81526004016104e390612546565b60405180910390fd5b6001600160a01b03919091166000908152600960205260409020805460ff1916911515919091179055565b60025490565b600061052a8484846114d7565b6001600160a01b03841660009081526001602052604081208161054b61141f565b6001600160a01b03166001600160a01b031681526020019081526020016000205490508281101561058e5760405162461bcd60e51b81526004016104e390612536565b6105a28561059a61141f565b858403611423565b60019150505b9392505050565b336105b9816115fb565b15806105dd57506001600160a01b03811660009081526009602052604090205460ff165b6105f95760405162461bcd60e51b81526004016104e390612566565b600082116106195760405162461bcd60e51b81526004016104e3906125c6565b6000610623610517565b9050600081116106455760405162461bcd60e51b81526004016104e3906125d6565b60008184610651610ece565b61065b91906126d6565b61066591906126ac565b90506106713385611601565b6040516370a0823160e01b81526000906001600160a01b037f000000000000000000000000000000000000000000000000000000000000000016906370a08231906106c090309060040161241d565b60206040518083038186803b1580156106d857600080fd5b505afa1580156106ec573d6000803e3d6000fd5b505050506040513d601f19601f820116820180604052508101906107109190611c54565b9050818110156107c6576000610726828461270b565b6006546040517ff3fef3a30000000000000000000000000000000000000000000000000000000081529192506001600160a01b03169063f3fef3a390610792907f000000000000000000000000000000000000000000000000000000000000000090859060040161246e565b600060405180830381600087803b1580156107ac57600080fd5b505af11580156107c0573d6000803e3d6000fd5b50505050505b6107fa6001600160a01b037f00000000000000000000000000000000000000000000000000000000000000001633846116f3565b336001600160a01b03167f7fcf532c15f0a6db0bd6d0e038bea71d30d808c7d98cb3bf7268a95bf5081b65836040516108339190612626565b60405180910390a25050505050565b60007f00000000000000000000000000000000000000000000000000000000000000006001600160a01b031663313ce5676040518163ffffffff1660e01b815260040160206040518083038186803b15801561089d57600080fd5b505afa1580156108b1573d6000803e3d6000fd5b505050506040513d601f19601f820116820180604052508101906108d59190611c72565b905090565b6108e261141f565b6001600160a01b03166108f3610c09565b6001600160a01b0316146109195760405162461bcd60e51b81526004016104e390612546565b80516fffffffffffffffffffffffffffffffff1615801590610967575080600001516fffffffffffffffffffffffffffffffff1681602001516fffffffffffffffffffffffffffffffff1610155b6109835760405162461bcd60e51b81526004016104e3906124f6565b8051600880546020909301516fffffffffffffffffffffffffffffffff908116700100000000000000000000000000000000029281167fffffffffffffffffffffffffffffffff0000000000000000000000000000000090941693909317909216179055565b6007546001600160a01b031681565b60096020526000908152604090205460ff1681565b600061049a610a1a61141f565b848460016000610a2861141f565b6001600160a01b03908116825260208083019390935260409182016000908120918b1681529252902054610a5c919061267e565b611423565b6008546040516370a0823160e01b81526000916fffffffffffffffffffffffffffffffff70010000000000000000000000000000000082048116929116906001600160a01b037f000000000000000000000000000000000000000000000000000000000000000016906370a0823190610ade90309060040161241d565b60206040518083038186803b158015610af657600080fd5b505afa158015610b0a573d6000803e3d6000fd5b505050506040513d601f19601f82011682018060405250810190610b2e9190611c54565b610b3891906126d6565b6108d591906126ac565b6001600160a01b031660009081526020819052604090205490565b610b6561141f565b6001600160a01b0316610b76610c09565b6001600160a01b031614610b9c5760405162461bcd60e51b81526004016104e390612546565b60405162461bcd60e51b81526004016104e3906125e6565b600080610bbf610517565b905080610bd0576000915050610483565b80610bd9610ece565b610beb90670de0b6b3a76400006126d6565b610bf591906126ac565b91505090565b610c0761027e33610b42565b565b6005546001600160a01b031690565b6006546040517f353a9bd00000000000000000000000000000000000000000000000000000000081526000916001600160a01b03169063353a9bd090610c82907f00000000000000000000000000000000000000000000000000000000000000009060040161241d565b60206040518083038186803b158015610c9a57600080fd5b505afa158015610cae573d6000803e3d6000fd5b505050506040513d601f19601f820116820180604052508101906108d59190611c54565b610cda61141f565b6001600160a01b0316610ceb610c09565b6001600160a01b031614610d115760405162461bcd60e51b81526004016104e390612546565b6001600160a01b038116610d375760405162461bcd60e51b81526004016104e390612526565b6006805473ffffffffffffffffffffffffffffffffffffffff19166001600160a01b0392909216919091179055565b606060048054610402906127a6565b6007546001600160a01b0316610d9d5760405162461bcd60e51b81526004016104e390612606565b6006546007546040517fe02869770000000000000000000000000000000000000000000000000000000081526001600160a01b039283169263e028697792610e0d927f0000000000000000000000000000000000000000000000000000000000000000929091169060040161242b565b600060405180830381600087803b158015610e2757600080fd5b505af1158015610e3b573d6000803e3d6000fd5b50505050565b60008060016000610e5061141f565b6001600160a01b0390811682526020808301939093526040918201600090812091881681529252902054905082811015610e9c5760405162461bcd60e51b81526004016104e3906125f6565b610eb0610ea761141f565b85858403611423565b5060019392505050565b600061049a610ec761141f565b84846114d7565b6006546040516370a0823160e01b81526000916001600160a01b0316906370a0823190610f1f907f00000000000000000000000000000000000000000000000000000000000000009060040161241d565b60206040518083038186803b158015610f3757600080fd5b505afa158015610f4b573d6000803e3d6000fd5b505050506040513d601f19601f82011682018060405250810190610f6f9190611c54565b6040516370a0823160e01b81526001600160a01b037f000000000000000000000000000000000000000000000000000000000000000016906370a0823190610fbb90309060040161241d565b60206040518083038186803b158015610fd357600080fd5b505afa158015610fe7573d6000803e3d6000fd5b505050506040513d601f19601f8201168201806040525081019061100b9190611c54565b6108d5919061267e565b3361101f816115fb565b158061104357506001600160a01b03811660009081526009602052604090205460ff165b61105f5760405162461bcd60e51b81526004016104e390612566565b6000821161107f5760405162461bcd60e51b81526004016104e3906125c6565b6000611089610ece565b90506110c06001600160a01b037f000000000000000000000000000000000000000000000000000000000000000016333086611776565b60006110ca610517565b90506000816110da5750836110f2565b826110e583876126d6565b6110ef91906126ac565b90505b6110fc3382611797565b336001600160a01b03167fe1fffcc4923d04b559f4d29a8bfc6cda04eb5b0d3c460751c2402c5c5cc9109c866040516108339190612626565b600061113f610a61565b60065490915061117c906001600160a01b037f000000000000000000000000000000000000000000000000000000000000000081169116836116f3565b6006546040517fb02bf4b90000000000000000000000000000000000000000000000000000000081526001600160a01b039091169063b02bf4b9906111e7907f000000000000000000000000000000000000000000000000000000000000000090859060040161246e565b600060405180830381600087803b15801561120157600080fd5b505af1158015611215573d6000803e3d6000fd5b5050505050565b6001600160a01b03918216600090815260016020908152604080832093909416825291909152205490565b6040516370a0823160e01b8152610c07906001600160a01b037f000000000000000000000000000000000000000000000000000000000000000016906370a082319061129790339060040161241d565b60206040518083038186803b1580156112af57600080fd5b505afa1580156112c3573d6000803e3d6000fd5b505050506040513d601f19601f820116820180604052508101906103889190611c54565b6112ef61141f565b6001600160a01b0316611300610c09565b6001600160a01b0316146113265760405162461bcd60e51b81526004016104e390612546565b6001600160a01b03811661134c5760405162461bcd60e51b81526004016104e390612556565b6007805473ffffffffffffffffffffffffffffffffffffffff19166001600160a01b0392909216919091179055565b61138361141f565b6001600160a01b0316611394610c09565b6001600160a01b0316146113ba5760405162461bcd60e51b81526004016104e390612546565b6001600160a01b0381166113e05760405162461bcd60e51b81526004016104e3906124d6565b6113e981611863565b50565b6006546001600160a01b031681565b7f000000000000000000000000000000000000000000000000000000000000000081565b3390565b6001600160a01b0383166114495760405162461bcd60e51b81526004016104e390612596565b6001600160a01b03821661146f5760405162461bcd60e51b81526004016104e3906124e6565b6001600160a01b0380841660008181526001602090815260408083209487168084529490915290819020849055517f8c5be1e5ebec7d5bd14f71427d1e84f3dd0314c0f7b2291e5b200ac8c7c3b925906114ca908590612626565b60405180910390a3505050565b6001600160a01b0383166114fd5760405162461bcd60e51b81526004016104e390612586565b6001600160a01b0382166115235760405162461bcd60e51b81526004016104e3906124b6565b61152e8383836116ee565b6001600160a01b038316600090815260208190526040902054818110156115675760405162461bcd60e51b81526004016104e390612506565b6001600160a01b0380851660009081526020819052604080822085850390559185168152908120805484929061159e90849061267e565b92505081905550826001600160a01b0316846001600160a01b03167fddf252ad1be2c89b69c2b068fc378daa952ba7f163c4a11628f55a4df523b3ef846040516115e89190612626565b60405180910390a3610e3b8484846116ee565b3b151590565b6001600160a01b0382166116275760405162461bcd60e51b81526004016104e390612576565b611633826000836116ee565b6001600160a01b0382166000908152602081905260409020548181101561166c5760405162461bcd60e51b81526004016104e3906124c6565b6001600160a01b038316600090815260208190526040812083830390556002805484929061169b90849061270b565b90915550506040516000906001600160a01b038516907fddf252ad1be2c89b69c2b068fc378daa952ba7f163c4a11628f55a4df523b3ef906116de908690612626565b60405180910390a36116ee836000845b505050565b6116ee8363a9059cbb60e01b848460405160240161171292919061246e565b60408051601f198184030181529190526020810180517bffffffffffffffffffffffffffffffffffffffffffffffffffffffff167fffffffff00000000000000000000000000000000000000000000000000000000909316929092179091526118c2565b610e3b846323b872dd60e01b85858560405160240161171293929190612446565b6001600160a01b0382166117bd5760405162461bcd60e51b81526004016104e390612616565b6117c9600083836116ee565b80600260008282546117db919061267e565b90915550506001600160a01b0382166000908152602081905260408120805483929061180890849061267e565b90915550506040516001600160a01b038316906000907fddf252ad1be2c89b69c2b068fc378daa952ba7f163c4a11628f55a4df523b3ef9061184b908590612626565b60405180910390a361185f600083836116ee565b5050565b600580546001600160a01b0383811673ffffffffffffffffffffffffffffffffffffffff19831681179093556040519116919082907f8be0079c531659141344cd1fd0a4f28419497f9722a3daafe3b4186f6b6457e090600090a35050565b6000611917826040518060400160405280602081526020017f5361666545524332303a206c6f772d6c6576656c2063616c6c206661696c6564815250856001600160a01b03166119519092919063ffffffff16565b8051909150156116ee57808060200190518101906119359190611bfa565b6116ee5760405162461bcd60e51b81526004016104e3906125b6565b60606119608484600085611968565b949350505050565b60608247101561198a5760405162461bcd60e51b81526004016104e390612516565b611993856115fb565b6119af5760405162461bcd60e51b81526004016104e3906125a6565b600080866001600160a01b031685876040516119cb9190612411565b60006040518083038185875af1925050503d8060008114611a08576040519150601f19603f3d011682016040523d82523d6000602084013e611a0d565b606091505b5091509150611a1d828286611a28565b979650505050505050565b60608315611a375750816105a8565b825115611a475782518084602001fd5b8160405162461bcd60e51b81526004016104e391906124a5565b803561049e81612835565b803561049e81612849565b805161049e81612849565b600060408284031215611a9457600080fd5b611a9e6040612642565b90506000611aac8484611ac9565b8252506020611abd84848301611ac9565b60208301525092915050565b803561049e81612852565b803561049e8161285b565b805161049e8161285b565b805161049e81612864565b600060208284031215611b0757600080fd5b60006119608484611a61565b60008060408385031215611b2657600080fd5b6000611b328585611a61565b9250506020611b4385828601611a61565b9150509250929050565b600080600060608486031215611b6257600080fd5b6000611b6e8686611a61565b9350506020611b7f86828701611a61565b9250506040611b9086828701611ad4565b9150509250925092565b60008060408385031215611bad57600080fd5b6000611bb98585611a61565b9250506020611b4385828601611a6c565b60008060408385031215611bdd57600080fd5b6000611be98585611a61565b9250506020611b4385828601611ad4565b600060208284031215611c0c57600080fd5b60006119608484611a77565b600060408284031215611c2a57600080fd5b60006119608484611a82565b600060208284031215611c4857600080fd5b60006119608484611ad4565b600060208284031215611c6657600080fd5b60006119608484611adf565b600060208284031215611c8457600080fd5b60006119608484611aea565b611c9981612738565b82525050565b611c9981612743565b6000611cb38261266c565b611cbd8185612670565b9350611ccd81856020860161277a565b9290920192915050565b611c998161276f565b6000611ceb8261266c565b611cf58185612675565b9350611d0581856020860161277a565b611d0e8161282b565b9093019392505050565b6000611d25602383612675565b7f45524332303a207472616e7366657220746f20746865207a65726f206164647281527f6573730000000000000000000000000000000000000000000000000000000000602082015260400192915050565b6000611d84602283612675565b7f45524332303a206275726e20616d6f756e7420657863656564732062616c616e81527f6365000000000000000000000000000000000000000000000000000000000000602082015260400192915050565b6000611de3602683612675565b7f4f776e61626c653a206e6577206f776e657220697320746865207a65726f206181527f6464726573730000000000000000000000000000000000000000000000000000602082015260400192915050565b6000611e42602283612675565b7f45524332303a20617070726f766520746f20746865207a65726f20616464726581527f7373000000000000000000000000000000000000000000000000000000000000602082015260400192915050565b6000611ea1600c83612675565b7f494e56414c49445f524154450000000000000000000000000000000000000000815260200192915050565b6000611eda602683612675565b7f45524332303a207472616e7366657220616d6f756e742065786365656473206281527f616c616e63650000000000000000000000000000000000000000000000000000602082015260400192915050565b6000611f39602683612675565b7f416464726573733a20696e73756666696369656e742062616c616e636520666f81527f722063616c6c0000000000000000000000000000000000000000000000000000602082015260400192915050565b6000611f98601283612675565b7f494e56414c49445f434f4e54524f4c4c45520000000000000000000000000000815260200192915050565b6000611fd1602883612675565b7f45524332303a207472616e7366657220616d6f756e742065786365656473206181527f6c6c6f77616e6365000000000000000000000000000000000000000000000000602082015260400192915050565b6000612030602083612675565b7f4f776e61626c653a2063616c6c6572206973206e6f7420746865206f776e6572815260200192915050565b6000612069601483612675565b7f494e56414c49445f4641524d494e475f504f4f4c000000000000000000000000815260200192915050565b60006120a2601583612675565b7f436f6e747261637473206e6f7420616c6c6f7765640000000000000000000000815260200192915050565b60006120db602183612675565b7f45524332303a206275726e2066726f6d20746865207a65726f2061646472657381527f7300000000000000000000000000000000000000000000000000000000000000602082015260400192915050565b600061213a602583612675565b7f45524332303a207472616e736665722066726f6d20746865207a65726f20616481527f6472657373000000000000000000000000000000000000000000000000000000602082015260400192915050565b6000612199602483612675565b7f45524332303a20617070726f76652066726f6d20746865207a65726f2061646481527f7265737300000000000000000000000000000000000000000000000000000000602082015260400192915050565b60006121f8601d83612675565b7f416464726573733a2063616c6c20746f206e6f6e2d636f6e7472616374000000815260200192915050565b6000612231602a83612675565b7f5361666545524332303a204552433230206f7065726174696f6e20646964206e81527f6f74207375636365656400000000000000000000000000000000000000000000602082015260400192915050565b6000612290600e83612675565b7f494e56414c49445f414d4f554e54000000000000000000000000000000000000815260200192915050565b60006122c9601383612675565b7f4e4f5f544f4b454e535f4445504f534954454400000000000000000000000000815260200192915050565b6000612302601983612675565b7f43616e6e6f742072656e6f756e6365206f776e65727368697000000000000000815260200192915050565b600061233b602583612675565b7f45524332303a2064656372656173656420616c6c6f77616e63652062656c6f7781527f207a65726f000000000000000000000000000000000000000000000000000000602082015260400192915050565b600061239a600783612675565b7f4e4f5f4641524d00000000000000000000000000000000000000000000000000815260200192915050565b60006123d3601f83612675565b7f45524332303a206d696e7420746f20746865207a65726f206164647265737300815260200192915050565b611c9981610483565b611c9981612769565b60006105a88284611ca8565b6020810161049e8284611c90565b604081016124398285611c90565b6105a86020830184611c90565b606081016124548286611c90565b6124616020830185611c90565b61196060408301846123ff565b6040810161247c8285611c90565b6105a860208301846123ff565b6020810161049e8284611c9f565b6020810161049e8284611cd7565b602080825281016105a88184611ce0565b6020808252810161049e81611d18565b6020808252810161049e81611d77565b6020808252810161049e81611dd6565b6020808252810161049e81611e35565b6020808252810161049e81611e94565b6020808252810161049e81611ecd565b6020808252810161049e81611f2c565b6020808252810161049e81611f8b565b6020808252810161049e81611fc4565b6020808252810161049e81612023565b6020808252810161049e8161205c565b6020808252810161049e81612095565b6020808252810161049e816120ce565b6020808252810161049e8161212d565b6020808252810161049e8161218c565b6020808252810161049e816121eb565b6020808252810161049e81612224565b6020808252810161049e81612283565b6020808252810161049e816122bc565b6020808252810161049e816122f5565b6020808252810161049e8161232e565b6020808252810161049e8161238d565b6020808252810161049e816123c6565b6020810161049e82846123ff565b6020810161049e8284612408565b60405181810167ffffffffffffffff8111828210171561266457612664612815565b604052919050565b5190565b919050565b90815260200190565b600061268982610483565b915061269483610483565b925082198211156126a7576126a76127d3565b500190565b60006126b782610483565b91506126c283610483565b9250826126d1576126d16127e9565b500490565b60006126e182610483565b91506126ec83610483565b9250816000190483118215151615612706576127066127d3565b500290565b600061271682610483565b915061272183610483565b925082821015612733576127336127d3565b500390565b600061049e8261275d565b151590565b6fffffffffffffffffffffffffffffffff1690565b6001600160a01b031690565b60ff1690565b600061049e82612738565b60005b8381101561279557818101518382015260200161277d565b83811115610e3b5750506000910152565b6002810460018216806127ba57607f821691505b602082108114156127cd576127cd6127ff565b50919050565b634e487b7160e01b600052601160045260246000fd5b634e487b7160e01b600052601260045260246000fd5b634e487b7160e01b600052602260045260246000fd5b634e487b7160e01b600052604160045260246000fd5b601f01601f191690565b61283e81612738565b81146113e957600080fd5b61283e81612743565b61283e81612748565b61283e81610483565b61283e8161276956fea26469706673582212203721b4a26c772f5bef02a21ab7c19b90fb7423c300b72973a9923c601ff97a3964736f6c63430008000033",
  "linkReferences": {},
  "deployedLinkReferences": {}
}