{
  "_format": "hh-sol-artifact-1",
  "contractName": "MockEthAnchorRouter",
  "sourceName": "contracts/mock/MockEthAnchorRouter.sol",
  "abi": [
    {
      "inputs": [
        {
          "internalType": "contract IERC20",
          "name": "_ustToken",
          "type": "address"
        },
        {
          "internalType": "contract IERC20",
          "name": "_aUstToken",
          "type": "address"
        }
      ],
      "stateMutability": "nonpayable",
      "type": "constructor"
    },
    {
      "inputs": [],
      "name": "aUstToken",
      "outputs": [
        {
          "internalType": "contract IERC20",
          "name": "",
          "type": "address"
        }
      ],
      "stateMutability": "view",
      "type": "function"
    },
    {
      "inputs": [
        {
          "internalType": "address",
          "name": "_operator",
          "type": "address"
        }
      ],
      "name": "addPendingOperator",
      "outputs": [],
      "stateMutability": "nonpayable",
      "type": "function"
    },
    {
      "inputs": [
        {
          "internalType": "address",
          "name": "",
          "type": "address"
        }
      ],
      "name": "depositFinishResults",
      "outputs": [
        {
          "internalType": "uint256",
          "name": "",
          "type": "uint256"
        }
      ],
      "stateMutability": "view",
      "type": "function"
    },
    {
      "inputs": [
        {
          "internalType": "address",
          "name": "",
          "type": "address"
        }
      ],
      "name": "depositOperations",
      "outputs": [
        {
          "internalType": "uint256",
          "name": "",
          "type": "uint256"
        }
      ],
      "stateMutability": "view",
      "type": "function"
    },
    {
      "inputs": [
        {
          "internalType": "address",
          "name": "_operation",
          "type": "address"
        }
      ],
      "name": "finishDepositStable",
      "outputs": [],
      "stateMutability": "nonpayable",
      "type": "function"
    },
    {
      "inputs": [
        {
          "internalType": "address",
          "name": "_operation",
          "type": "address"
        }
      ],
      "name": "finishRedeemStable",
      "outputs": [],
      "stateMutability": "nonpayable",
      "type": "function"
    },
    {
      "inputs": [
        {
          "internalType": "uint256",
          "name": "_amount",
          "type": "uint256"
        }
      ],
      "name": "initDepositStable",
      "outputs": [
        {
          "internalType": "address",
          "name": "operator",
          "type": "address"
        }
      ],
      "stateMutability": "nonpayable",
      "type": "function"
    },
    {
      "inputs": [
        {
          "internalType": "uint256",
          "name": "_amount",
          "type": "uint256"
        }
      ],
      "name": "initRedeemStable",
      "outputs": [
        {
          "internalType": "address",
          "name": "operator",
          "type": "address"
        }
      ],
      "stateMutability": "nonpayable",
      "type": "function"
    },
    {
      "inputs": [
        {
          "internalType": "address",
          "name": "_operation",
          "type": "address"
        },
        {
          "internalType": "uint256",
          "name": "_amount",
          "type": "uint256"
        }
      ],
      "name": "notifyDepositResult",
      "outputs": [],
      "stateMutability": "nonpayable",
      "type": "function"
    },
    {
      "inputs": [
        {
          "internalType": "address",
          "name": "_operation",
          "type": "address"
        },
        {
          "internalType": "uint256",
          "name": "_amount",
          "type": "uint256"
        }
      ],
      "name": "notifyRedeemResult",
      "outputs": [],
      "stateMutability": "nonpayable",
      "type": "function"
    },
    {
      "inputs": [],
      "name": "pendingOperator",
      "outputs": [
        {
          "internalType": "address",
          "name": "",
          "type": "address"
        }
      ],
      "stateMutability": "view",
      "type": "function"
    },
    {
      "inputs": [
        {
          "internalType": "address",
          "name": "",
          "type": "address"
        }
      ],
      "name": "redeemFinishResults",
      "outputs": [
        {
          "internalType": "uint256",
          "name": "",
          "type": "uint256"
        }
      ],
      "stateMutability": "view",
      "type": "function"
    },
    {
      "inputs": [
        {
          "internalType": "address",
          "name": "",
          "type": "address"
        }
      ],
      "name": "redeemOperations",
      "outputs": [
        {
          "internalType": "uint256",
          "name": "",
          "type": "uint256"
        }
      ],
      "stateMutability": "view",
      "type": "function"
    },
    {
      "inputs": [],
      "name": "ustToken",
      "outputs": [
        {
          "internalType": "contract IERC20",
          "name": "",
          "type": "address"
        }
      ],
      "stateMutability": "view",
      "type": "function"
    }
  ],
  "bytecode": "0x608060405234801561001057600080fd5b50604051610b7b380380610b7b83398101604081905261002f91610116565b6001600160a01b03821661007e5760405162461bcd60e51b815260206004820152601160248201527034b73b30b634b2102aa9aa103a37b5b2b760791b60448201526064015b60405180910390fd5b6001600160a01b0381166100c95760405162461bcd60e51b815260206004820152601260248201527134b73b30b634b21030aaa9aa103a37b5b2b760711b6044820152606401610075565b600080546001600160a01b039384166001600160a01b03199182161790915560018054929093169116179055610149565b80516001600160a01b038116811461011157600080fd5b919050565b6000806040838503121561012957600080fd5b610132836100fa565b9150610140602084016100fa565b90509250929050565b610a23806101586000396000f3fe608060405234801561001057600080fd5b50600436106100ea5760003560e01c8063a18b8f961161008c578063ac7e534e11610066578063ac7e534e146101e7578063bb0b8e1d146101fa578063e71f468d1461021a578063ed30abd11461023a57600080fd5b8063a18b8f9614610193578063a8a15a21146101c1578063ac1a2322146101d457600080fd5b80637249abb9116100c85780637249abb914610147578063781338c01461015a5780638278749b1461016d578063949103471461018057600080fd5b806307caf901146100ef5780631bbec15e1461011f57806333d7841e14610132575b600080fd5b6101026100fd3660046108d6565b61025a565b6040516001600160a01b0390911681526020015b60405180910390f35b600154610102906001600160a01b031681565b61014561014036600461090b565b6102cd565b005b610145610155366004610935565b610330565b600054610102906001600160a01b031681565b61014561017b366004610935565b610395565b61014561018e36600461090b565b61041f565b6101b36101a1366004610935565b60036020526000908152604090205481565b604051908152602001610116565b6101026101cf3660046108d6565b610482565b6101456101e2366004610935565b6104f5565b600254610102906001600160a01b031681565b6101b3610208366004610935565b60046020526000908152604090205481565b6101b3610228366004610935565b60066020526000908152604090205481565b6101b3610248366004610935565b60056020526000908152604090205481565b6002546000906001600160a01b031661027257600080fd5b60015461028a906001600160a01b031633308561055b565b50600280546001600160a01b03908116600090815260046020526040902092909255805473ffffffffffffffffffffffffffffffffffffffff1981169091551690565b6001600160a01b0382166000908152600460205260409020546102ef57600080fd5b600054610307906001600160a01b031633308461055b565b6001600160a01b0390911660009081526004602090815260408083208390556006909152902055565b6001600160a01b03811660009081526006602052604090205461035257600080fd5b6001600160a01b03808216600090815260066020526040812054905461037b9216903390610612565b6001600160a01b0316600090815260066020526040812055565b6001600160a01b0381166103f05760405162461bcd60e51b815260206004820152601060248201527f696e76616c6964206f70657261746f720000000000000000000000000000000060448201526064015b60405180910390fd5b6002805473ffffffffffffffffffffffffffffffffffffffff19166001600160a01b0392909216919091179055565b6001600160a01b03821660009081526003602052604090205461044157600080fd5b600154610459906001600160a01b031633308461055b565b6001600160a01b0390911660009081526003602090815260408083208390556005909152902055565b6002546000906001600160a01b031661049a57600080fd5b6000546104b2906001600160a01b031633308561055b565b50600280546001600160a01b03908116600090815260036020526040902092909255805473ffffffffffffffffffffffffffffffffffffffff1981169091551690565b6001600160a01b03811660009081526005602052604090205461051757600080fd5b6001600160a01b038082166000908152600560205260409020546001546105419216903390610612565b6001600160a01b0316600090815260056020526040812055565b6040516001600160a01b038085166024830152831660448201526064810182905261060c9085907f23b872dd00000000000000000000000000000000000000000000000000000000906084015b60408051601f198184030181529190526020810180517bffffffffffffffffffffffffffffffffffffffffffffffffffffffff167fffffffff0000000000000000000000000000000000000000000000000000000090931692909217909152610660565b50505050565b6040516001600160a01b03831660248201526044810182905261065b9084907fa9059cbb00000000000000000000000000000000000000000000000000000000906064016105a8565b505050565b60006106b5826040518060400160405280602081526020017f5361666545524332303a206c6f772d6c6576656c2063616c6c206661696c6564815250856001600160a01b03166107459092919063ffffffff16565b80519091501561065b57808060200190518101906106d39190610950565b61065b5760405162461bcd60e51b815260206004820152602a60248201527f5361666545524332303a204552433230206f7065726174696f6e20646964206e60448201527f6f7420737563636565640000000000000000000000000000000000000000000060648201526084016103e7565b6060610754848460008561075e565b90505b9392505050565b6060824710156107d65760405162461bcd60e51b815260206004820152602660248201527f416464726573733a20696e73756666696369656e742062616c616e636520666f60448201527f722063616c6c000000000000000000000000000000000000000000000000000060648201526084016103e7565b843b6108245760405162461bcd60e51b815260206004820152601d60248201527f416464726573733a2063616c6c20746f206e6f6e2d636f6e747261637400000060448201526064016103e7565b600080866001600160a01b03168587604051610840919061099e565b60006040518083038185875af1925050503d806000811461087d576040519150601f19603f3d011682016040523d82523d6000602084013e610882565b606091505b509150915061089282828661089d565b979650505050505050565b606083156108ac575081610757565b8251156108bc5782518084602001fd5b8160405162461bcd60e51b81526004016103e791906109ba565b6000602082840312156108e857600080fd5b5035919050565b80356001600160a01b038116811461090657600080fd5b919050565b6000806040838503121561091e57600080fd5b610927836108ef565b946020939093013593505050565b60006020828403121561094757600080fd5b610757826108ef565b60006020828403121561096257600080fd5b8151801515811461075757600080fd5b60005b8381101561098d578181015183820152602001610975565b8381111561060c5750506000910152565b600082516109b0818460208701610972565b9190910192915050565b60208152600082518060208401526109d9816040850160208701610972565b601f01601f1916919091016040019291505056fea2646970667358221220dcf3b9dd0235c8a0983f9b0b56348364d7da5c86effb8b30d74c2a2cebfe13a364736f6c634300080a0033",
  "linkReferences": {},
  "deployedLinkReferences": {}
}