{
  "_format": "hh-sol-artifact-1",
  "contractName": "VaultReserve",
  "sourceName": "contracts/vault/VaultReserve.sol",
  "abi": [
    {
      "inputs": [
        {
          "internalType": "contract IRoleManager",
          "name": "roleManager",
          "type": "address"
        }
      ],
      "stateMutability": "nonpayable",
      "type": "constructor"
    },
    {
      "anonymous": false,
      "inputs": [
        {
          "indexed": true,
          "internalType": "address",
          "name": "vault",
          "type": "address"
        },
        {
          "indexed": true,
          "internalType": "address",
          "name": "token",
          "type": "address"
        },
        {
          "indexed": false,
          "internalType": "uint256",
          "name": "amount",
          "type": "uint256"
        }
      ],
      "name": "Deposit",
      "type": "event"
    },
    {
      "anonymous": false,
      "inputs": [
        {
          "indexed": true,
          "internalType": "address",
          "name": "vault",
          "type": "address"
        }
      ],
      "name": "VaultListed",
      "type": "event"
    },
    {
      "anonymous": false,
      "inputs": [
        {
          "indexed": true,
          "internalType": "address",
          "name": "vault",
          "type": "address"
        },
        {
          "indexed": true,
          "internalType": "address",
          "name": "token",
          "type": "address"
        },
        {
          "indexed": false,
          "internalType": "uint256",
          "name": "amount",
          "type": "uint256"
        }
      ],
      "name": "Withdraw",
      "type": "event"
    },
    {
      "inputs": [
        {
          "internalType": "address",
          "name": "vault",
          "type": "address"
        }
      ],
      "name": "canWithdraw",
      "outputs": [
        {
          "internalType": "bool",
          "name": "",
          "type": "bool"
        }
      ],
      "stateMutability": "view",
      "type": "function"
    },
    {
      "inputs": [
        {
          "internalType": "address",
          "name": "token",
          "type": "address"
        },
        {
          "internalType": "uint256",
          "name": "amount",
          "type": "uint256"
        }
      ],
      "name": "deposit",
      "outputs": [
        {
          "internalType": "bool",
          "name": "",
          "type": "bool"
        }
      ],
      "stateMutability": "payable",
      "type": "function"
    },
    {
      "inputs": [
        {
          "internalType": "address",
          "name": "vault",
          "type": "address"
        },
        {
          "internalType": "address",
          "name": "token",
          "type": "address"
        }
      ],
      "name": "getBalance",
      "outputs": [
        {
          "internalType": "uint256",
          "name": "",
          "type": "uint256"
        }
      ],
      "stateMutability": "view",
      "type": "function"
    },
    {
      "inputs": [],
      "name": "minWithdrawalDelay",
      "outputs": [
        {
          "internalType": "uint256",
          "name": "",
          "type": "uint256"
        }
      ],
      "stateMutability": "view",
      "type": "function"
    },
    {
      "inputs": [],
      "name": "roleManager",
      "outputs": [
        {
          "internalType": "contract IRoleManager",
          "name": "",
          "type": "address"
        }
      ],
      "stateMutability": "view",
      "type": "function"
    },
    {
      "inputs": [
        {
          "internalType": "address",
          "name": "token",
          "type": "address"
        },
        {
          "internalType": "uint256",
          "name": "amount",
          "type": "uint256"
        }
      ],
      "name": "withdraw",
      "outputs": [
        {
          "internalType": "bool",
          "name": "",
          "type": "bool"
        }
      ],
      "stateMutability": "nonpayable",
      "type": "function"
    }
  ],
  "bytecode": "0x60a060405234801561001057600080fd5b50604051610d22380380610d2283398101604081905261002f91610047565b6001600160a01b03166080526203f480600255610077565b60006020828403121561005957600080fd5b81516001600160a01b038116811461007057600080fd5b9392505050565b608051610c8361009f600039600081816073015281816101a1015261051c0152610c836000f3fe6080604052600436106100545760003560e01c8062435da5146100595780630d5b0067146100a257806319262d30146100c657806347e7ef24146100f6578063d4fac45d14610109578063f3fef3a31461014d575b600080fd5b34801561006557600080fd5b506040516001600160a01b037f00000000000000000000000000000000000000000000000000000000000000001681526020015b60405180910390f35b3480156100ae57600080fd5b506100b860025481565b604051908152602001610099565b3480156100d257600080fd5b506100e66100e1366004610ada565b61016d565b6040519015158152602001610099565b6100e6610104366004610af5565b61019d565b34801561011557600080fd5b506100b8610124366004610b1f565b6001600160a01b0391821660009081526020818152604080832093909416825291909152205490565b34801561015957600080fd5b506100e6610168366004610af5565b610518565b6002546001600160a01b038216600090815260016020526040812054909161019491610b68565b42101592915050565b60007f0000000000000000000000000000000000000000000000000000000000000000604051632474521560e21b8152641d985d5b1d60da1b60048201523360248201526001600160a01b0391909116906391d148549060440160206040518083038186803b15801561020f57600080fd5b505afa158015610223573d6000803e3d6000fd5b505050506040513d601f19601f820116820180604052508101906102479190610b80565b60405180604001604052806013815260200172756e617574686f72697a65642061636365737360681b8152509061029a5760405162461bcd60e51b81526004016102919190610bce565b60405180910390fd5b506001600160a01b03831661032f5760408051808201909152600e81526d1a5b9d985b1a5908185b5bdd5b9d60921b60208201523483146102ee5760405162461bcd60e51b81526004016102919190610bce565b50336000908152602081815260408083206001600160a01b038716845290915281208054349290610320908490610b68565b90915550600191506105129050565b6040516370a0823160e01b81523060048201526000906001600160a01b038516906370a082319060240160206040518083038186803b15801561037157600080fd5b505afa158015610385573d6000803e3d6000fd5b505050506040513d601f19601f820116820180604052508101906103a99190610c01565b90506103c06001600160a01b0385163330866107c3565b6040516370a0823160e01b81523060048201526000906001600160a01b038616906370a082319060240160206040518083038186803b15801561040257600080fd5b505afa158015610416573d6000803e3d6000fd5b505050506040513d601f19601f8201168201806040525081019061043a9190610c01565b905060006104488383610c1a565b9050848110156040518060400160405280600e81526020016d1a5b9d985b1a5908185b5bdd5b9d60921b815250906104935760405162461bcd60e51b81526004016102919190610bce565b50336000908152602081815260408083206001600160a01b038a168452909152812080548392906104c5908490610b68565b90915550506040518581526001600160a01b0387169033907f5548c837ab068cf56a2c2479df0882a4922fd203edb7517321831d95078c5f629060200160405180910390a3600193505050505b92915050565b60007f0000000000000000000000000000000000000000000000000000000000000000604051632474521560e21b8152641d985d5b1d60da1b60048201523360248201526001600160a01b0391909116906391d148549060440160206040518083038186803b15801561058a57600080fd5b505afa15801561059e573d6000803e3d6000fd5b505050506040513d601f19601f820116820180604052508101906105c29190610b80565b60405180604001604052806013815260200172756e617574686f72697a65642061636365737360681b8152509061060c5760405162461bcd60e51b81526004016102919190610bce565b506106163361016d565b6040518060400160405280601781526020017f52657365727665206163636573732065786365656465640000000000000000008152509061066a5760405162461bcd60e51b81526004016102919190610bce565b50336000908152602081815260408083206001600160a01b03871684528252918290205482518084019093526014835273696e73756666696369656e742062616c616e636560601b9183019190915290838210156106db5760405162461bcd60e51b81526004016102919190610bce565b50336000908152602081815260408083206001600160a01b03881684529091528120805485929061070d908490610c1a565b90915550503360009081526001602052604090204290556001600160a01b03841661076557604051339084156108fc029085906000818181858888f1935050505015801561075f573d6000803e3d6000fd5b50610779565b6107796001600160a01b0385163385610834565b6040518381526001600160a01b0385169033907f9b1bfa7fa9ee420a16e124f794c35ac9f90472acc99140eb2f6447c714cad8eb9060200160405180910390a35060019392505050565b6040516001600160a01b038085166024830152831660448201526064810182905261082e9085906323b872dd60e01b906084015b60408051601f198184030181529190526020810180516001600160e01b03166001600160e01b031990931692909217909152610869565b50505050565b6040516001600160a01b03831660248201526044810182905261086490849063a9059cbb60e01b906064016107f7565b505050565b60006108be826040518060400160405280602081526020017f5361666545524332303a206c6f772d6c6576656c2063616c6c206661696c6564815250856001600160a01b031661093b9092919063ffffffff16565b80519091501561086457808060200190518101906108dc9190610b80565b6108645760405162461bcd60e51b815260206004820152602a60248201527f5361666545524332303a204552433230206f7065726174696f6e20646964206e6044820152691bdd081cdd58d8d9595960b21b6064820152608401610291565b606061094a8484600085610954565b90505b9392505050565b6060824710156109b55760405162461bcd60e51b815260206004820152602660248201527f416464726573733a20696e73756666696369656e742062616c616e636520666f6044820152651c8818d85b1b60d21b6064820152608401610291565b6001600160a01b0385163b610a0c5760405162461bcd60e51b815260206004820152601d60248201527f416464726573733a2063616c6c20746f206e6f6e2d636f6e74726163740000006044820152606401610291565b600080866001600160a01b03168587604051610a289190610c31565b60006040518083038185875af1925050503d8060008114610a65576040519150601f19603f3d011682016040523d82523d6000602084013e610a6a565b606091505b5091509150610a7a828286610a85565b979650505050505050565b60608315610a9457508161094d565b825115610aa45782518084602001fd5b8160405162461bcd60e51b81526004016102919190610bce565b80356001600160a01b0381168114610ad557600080fd5b919050565b600060208284031215610aec57600080fd5b61094d82610abe565b60008060408385031215610b0857600080fd5b610b1183610abe565b946020939093013593505050565b60008060408385031215610b3257600080fd5b610b3b83610abe565b9150610b4960208401610abe565b90509250929050565b634e487b7160e01b600052601160045260246000fd5b60008219821115610b7b57610b7b610b52565b500190565b600060208284031215610b9257600080fd5b8151801515811461094d57600080fd5b60005b83811015610bbd578181015183820152602001610ba5565b8381111561082e5750506000910152565b6020815260008251806020840152610bed816040850160208701610ba2565b601f01601f19169190910160400192915050565b600060208284031215610c1357600080fd5b5051919050565b600082821015610c2c57610c2c610b52565b500390565b60008251610c43818460208701610ba2565b919091019291505056fea2646970667358221220dbf664cd3e445a7f082d944d7360d451f6fc2ca53a32e43398e50a8cb65b75e964736f6c63430008090033",
  "linkReferences": {},
  "deployedLinkReferences": {}
}