{
  "_format": "hh-sol-artifact-1",
  "contractName": "AuraBalRewardPool",
  "sourceName": "contracts/AuraBalRewardPool.sol",
  "abi": [
    {
      "inputs": [
        {
          "internalType": "address",
          "name": "_stakingToken",
          "type": "address"
        },
        {
          "internalType": "address",
          "name": "_rewardToken",
          "type": "address"
        },
        {
          "internalType": "address",
          "name": "_rewardManager",
          "type": "address"
        },
        {
          "internalType": "address",
          "name": "_auraLocker",
          "type": "address"
        },
        {
          "internalType": "address",
          "name": "_penaltyForwarder",
          "type": "address"
        },
        {
          "internalType": "uint256",
          "name": "_startDelay",
          "type": "uint256"
        }
      ],
      "stateMutability": "nonpayable",
      "type": "constructor"
    },
    {
      "anonymous": false,
      "inputs": [
        {
          "indexed": false,
          "internalType": "uint256",
          "name": "amount",
          "type": "uint256"
        }
      ],
      "name": "PenaltyForwarded",
      "type": "event"
    },
    {
      "anonymous": false,
      "inputs": [
        {
          "indexed": false,
          "internalType": "uint256",
          "name": "reward",
          "type": "uint256"
        }
      ],
      "name": "RewardAdded",
      "type": "event"
    },
    {
      "anonymous": false,
      "inputs": [
        {
          "indexed": true,
          "internalType": "address",
          "name": "user",
          "type": "address"
        },
        {
          "indexed": false,
          "internalType": "uint256",
          "name": "reward",
          "type": "uint256"
        },
        {
          "indexed": false,
          "internalType": "bool",
          "name": "locked",
          "type": "bool"
        }
      ],
      "name": "RewardPaid",
      "type": "event"
    },
    {
      "anonymous": false,
      "inputs": [
        {
          "indexed": true,
          "internalType": "address",
          "name": "user",
          "type": "address"
        },
        {
          "indexed": false,
          "internalType": "uint256",
          "name": "amount",
          "type": "uint256"
        }
      ],
      "name": "Staked",
      "type": "event"
    },
    {
      "anonymous": false,
      "inputs": [
        {
          "indexed": true,
          "internalType": "address",
          "name": "user",
          "type": "address"
        },
        {
          "indexed": false,
          "internalType": "uint256",
          "name": "amount",
          "type": "uint256"
        }
      ],
      "name": "Withdrawn",
      "type": "event"
    },
    {
      "inputs": [],
      "name": "auraLocker",
      "outputs": [
        {
          "internalType": "contract IAuraLocker",
          "name": "",
          "type": "address"
        }
      ],
      "stateMutability": "view",
      "type": "function"
    },
    {
      "inputs": [
        {
          "internalType": "address",
          "name": "account",
          "type": "address"
        }
      ],
      "name": "balanceOf",
      "outputs": [
        {
          "internalType": "uint256",
          "name": "",
          "type": "uint256"
        }
      ],
      "stateMutability": "view",
      "type": "function"
    },
    {
      "inputs": [],
      "name": "duration",
      "outputs": [
        {
          "internalType": "uint256",
          "name": "",
          "type": "uint256"
        }
      ],
      "stateMutability": "view",
      "type": "function"
    },
    {
      "inputs": [
        {
          "internalType": "address",
          "name": "account",
          "type": "address"
        }
      ],
      "name": "earned",
      "outputs": [
        {
          "internalType": "uint256",
          "name": "",
          "type": "uint256"
        }
      ],
      "stateMutability": "view",
      "type": "function"
    },
    {
      "inputs": [],
      "name": "forwardPenalty",
      "outputs": [],
      "stateMutability": "nonpayable",
      "type": "function"
    },
    {
      "inputs": [
        {
          "internalType": "bool",
          "name": "_lock",
          "type": "bool"
        }
      ],
      "name": "getReward",
      "outputs": [
        {
          "internalType": "bool",
          "name": "",
          "type": "bool"
        }
      ],
      "stateMutability": "nonpayable",
      "type": "function"
    },
    {
      "inputs": [],
      "name": "initialiseRewards",
      "outputs": [
        {
          "internalType": "bool",
          "name": "",
          "type": "bool"
        }
      ],
      "stateMutability": "nonpayable",
      "type": "function"
    },
    {
      "inputs": [],
      "name": "lastTimeRewardApplicable",
      "outputs": [
        {
          "internalType": "uint256",
          "name": "",
          "type": "uint256"
        }
      ],
      "stateMutability": "view",
      "type": "function"
    },
    {
      "inputs": [],
      "name": "lastUpdateTime",
      "outputs": [
        {
          "internalType": "uint256",
          "name": "",
          "type": "uint256"
        }
      ],
      "stateMutability": "view",
      "type": "function"
    },
    {
      "inputs": [],
      "name": "penaltyForwarder",
      "outputs": [
        {
          "internalType": "address",
          "name": "",
          "type": "address"
        }
      ],
      "stateMutability": "view",
      "type": "function"
    },
    {
      "inputs": [],
      "name": "pendingPenalty",
      "outputs": [
        {
          "internalType": "uint256",
          "name": "",
          "type": "uint256"
        }
      ],
      "stateMutability": "view",
      "type": "function"
    },
    {
      "inputs": [],
      "name": "periodFinish",
      "outputs": [
        {
          "internalType": "uint256",
          "name": "",
          "type": "uint256"
        }
      ],
      "stateMutability": "view",
      "type": "function"
    },
    {
      "inputs": [],
      "name": "rewardManager",
      "outputs": [
        {
          "internalType": "address",
          "name": "",
          "type": "address"
        }
      ],
      "stateMutability": "view",
      "type": "function"
    },
    {
      "inputs": [],
      "name": "rewardPerToken",
      "outputs": [
        {
          "internalType": "uint256",
          "name": "",
          "type": "uint256"
        }
      ],
      "stateMutability": "view",
      "type": "function"
    },
    {
      "inputs": [],
      "name": "rewardPerTokenStored",
      "outputs": [
        {
          "internalType": "uint256",
          "name": "",
          "type": "uint256"
        }
      ],
      "stateMutability": "view",
      "type": "function"
    },
    {
      "inputs": [],
      "name": "rewardRate",
      "outputs": [
        {
          "internalType": "uint256",
          "name": "",
          "type": "uint256"
        }
      ],
      "stateMutability": "view",
      "type": "function"
    },
    {
      "inputs": [],
      "name": "rewardToken",
      "outputs": [
        {
          "internalType": "contract IERC20",
          "name": "",
          "type": "address"
        }
      ],
      "stateMutability": "view",
      "type": "function"
    },
    {
      "inputs": [
        {
          "internalType": "address",
          "name": "",
          "type": "address"
        }
      ],
      "name": "rewards",
      "outputs": [
        {
          "internalType": "uint256",
          "name": "",
          "type": "uint256"
        }
      ],
      "stateMutability": "view",
      "type": "function"
    },
    {
      "inputs": [
        {
          "internalType": "uint256",
          "name": "_amount",
          "type": "uint256"
        }
      ],
      "name": "stake",
      "outputs": [
        {
          "internalType": "bool",
          "name": "",
          "type": "bool"
        }
      ],
      "stateMutability": "nonpayable",
      "type": "function"
    },
    {
      "inputs": [],
      "name": "stakeAll",
      "outputs": [
        {
          "internalType": "bool",
          "name": "",
          "type": "bool"
        }
      ],
      "stateMutability": "nonpayable",
      "type": "function"
    },
    {
      "inputs": [
        {
          "internalType": "address",
          "name": "_for",
          "type": "address"
        },
        {
          "internalType": "uint256",
          "name": "_amount",
          "type": "uint256"
        }
      ],
      "name": "stakeFor",
      "outputs": [
        {
          "internalType": "bool",
          "name": "",
          "type": "bool"
        }
      ],
      "stateMutability": "nonpayable",
      "type": "function"
    },
    {
      "inputs": [],
      "name": "stakingToken",
      "outputs": [
        {
          "internalType": "contract IERC20",
          "name": "",
          "type": "address"
        }
      ],
      "stateMutability": "view",
      "type": "function"
    },
    {
      "inputs": [],
      "name": "startTime",
      "outputs": [
        {
          "internalType": "uint256",
          "name": "",
          "type": "uint256"
        }
      ],
      "stateMutability": "view",
      "type": "function"
    },
    {
      "inputs": [],
      "name": "totalSupply",
      "outputs": [
        {
          "internalType": "uint256",
          "name": "",
          "type": "uint256"
        }
      ],
      "stateMutability": "view",
      "type": "function"
    },
    {
      "inputs": [
        {
          "internalType": "address",
          "name": "",
          "type": "address"
        }
      ],
      "name": "userRewardPerTokenPaid",
      "outputs": [
        {
          "internalType": "uint256",
          "name": "",
          "type": "uint256"
        }
      ],
      "stateMutability": "view",
      "type": "function"
    },
    {
      "inputs": [
        {
          "internalType": "uint256",
          "name": "amount",
          "type": "uint256"
        },
        {
          "internalType": "bool",
          "name": "claim",
          "type": "bool"
        },
        {
          "internalType": "bool",
          "name": "lock",
          "type": "bool"
        }
      ],
      "name": "withdraw",
      "outputs": [
        {
          "internalType": "bool",
          "name": "",
          "type": "bool"
        }
      ],
      "stateMutability": "nonpayable",
      "type": "function"
    }
  ],
  "bytecode": "0x61014060405260008055600060015560006002553480156200002057600080fd5b5060405162001bf338038062001bf38339810160408190526200004391620004bb565b6001600160a01b0386811660a052858116608081905285821660c05284821660e05290831661010052620000879084600019620000e5602090811b62000e5f17901c565b621275008110620000c85760405162461bcd60e51b81526020600482015260066024820152652164656c617960d01b60448201526064015b60405180910390fd5b620000d4814262000533565b61012052506200061e945050505050565b801580620001635750604051636eb1769f60e11b81523060048201526001600160a01b03838116602483015284169063dd62ed3e90604401602060405180830381865afa1580156200013b573d6000803e3d6000fd5b505050506040513d601f19601f820116820180604052508101906200016191906200055a565b155b620001d75760405162461bcd60e51b815260206004820152603660248201527f5361666545524332303a20617070726f76652066726f6d206e6f6e2d7a65726f60448201527f20746f206e6f6e2d7a65726f20616c6c6f77616e6365000000000000000000006064820152608401620000bf565b604080516001600160a01b038416602482015260448082018490528251808303909101815260649091019091526020810180516001600160e01b0390811663095ea7b360e01b179091526200022f9185916200023416565b505050565b600062000290826040518060400160405280602081526020017f5361666545524332303a206c6f772d6c6576656c2063616c6c206661696c6564815250856001600160a01b03166200031260201b62000fe0179092919060201c565b8051909150156200022f5780806020019051810190620002b1919062000574565b6200022f5760405162461bcd60e51b815260206004820152602a60248201527f5361666545524332303a204552433230206f7065726174696f6e20646964206e6044820152691bdd081cdd58d8d9595960b21b6064820152608401620000bf565b60606200032384846000856200032d565b90505b9392505050565b606082471015620003905760405162461bcd60e51b815260206004820152602660248201527f416464726573733a20696e73756666696369656e742062616c616e636520666f6044820152651c8818d85b1b60d21b6064820152608401620000bf565b843b620003e05760405162461bcd60e51b815260206004820152601d60248201527f416464726573733a2063616c6c20746f206e6f6e2d636f6e74726163740000006044820152606401620000bf565b600080866001600160a01b03168587604051620003fe9190620005cb565b60006040518083038185875af1925050503d80600081146200043d576040519150601f19603f3d011682016040523d82523d6000602084013e62000442565b606091505b5090925090506200045582828662000460565b979650505050505050565b606083156200047157508162000326565b825115620004825782518084602001fd5b8160405162461bcd60e51b8152600401620000bf9190620005e9565b80516001600160a01b0381168114620004b657600080fd5b919050565b60008060008060008060c08789031215620004d557600080fd5b620004e0876200049e565b9550620004f0602088016200049e565b945062000500604088016200049e565b935062000510606088016200049e565b925062000520608088016200049e565b915060a087015190509295509295509295565b600082198211156200055557634e487b7160e01b600052601160045260246000fd5b500190565b6000602082840312156200056d57600080fd5b5051919050565b6000602082840312156200058757600080fd5b815180151581146200032657600080fd5b60005b83811015620005b55781810151838201526020016200059b565b83811115620005c5576000848401525b50505050565b60008251620005df81846020870162000598565b9190910192915050565b60208152600082518060208401526200060a81604085016020870162000598565b601f01601f19169190910160400192915050565b60805160a05160c05160e0516101005161012051611538620006bb600039600081816102e801526108ef0152600081816101fd01526106ee0152600081816103ad0152610b9001526000818161023c01526108c60152600081816102c10152818161058f01528181610639015281816108390152610da30152600081816103e6015281816106cc015281816109c50152610c4301526115386000f3fe608060405234801561001057600080fd5b50600436106101ad5760003560e01c80638dcb4061116100ee578063bd6d285011610097578063d661448711610071578063d6614487146103a8578063df136d65146103cf578063ebe2b12b146103d8578063f7c618c1146103e157600080fd5b8063bd6d28501461038e578063c8f33c9114610397578063cd3daf9d146103a057600080fd5b80639514fb2f116100c85780639514fb2f14610360578063a4698feb14610368578063a694fc3a1461037b57600080fd5b80638dcb40611461033b5780638faa85051461034357806392930b451461034d57600080fd5b80632ee409081161015b57806378e979251161013557806378e97925146102e35780637b0a47ee1461030a57806380faa57d146103135780638b8763471461031b57600080fd5b80632ee409081461027057806370a082311461029357806372f702f3146102bc57600080fd5b80630f4ef8a61161018c5780630f4ef8a6146102375780630fb5a6b41461025e57806318160ddd1461026857600080fd5b80628cc262146101b25780630700037d146101d8578063076bbb67146101f8575b600080fd5b6101c56101c0366004611326565b610408565b6040519081526020015b60405180910390f35b6101c56101e6366004611326565b60076020526000908152604090205481565b61021f7f000000000000000000000000000000000000000000000000000000000000000081565b6040516001600160a01b0390911681526020016101cf565b61021f7f000000000000000000000000000000000000000000000000000000000000000081565b6101c56212750081565b6005546101c5565b61028361027e366004611341565b610487565b60405190151581526020016101cf565b6101c56102a1366004611326565b6001600160a01b031660009081526008602052604090205490565b61021f7f000000000000000000000000000000000000000000000000000000000000000081565b6101c57f000000000000000000000000000000000000000000000000000000000000000081565b6101c560025481565b6101c5610604565b6101c5610329366004611326565b60066020526000908152604090205481565b610283610617565b61034b6106b8565b005b61028361035b36600461137c565b610749565b6102836108b9565b6102836103763660046113be565b610aeb565b6102836103893660046113db565b610cb3565b6101c560005481565b6101c560035481565b6101c5610e11565b61021f7f000000000000000000000000000000000000000000000000000000000000000081565b6101c560045481565b6101c560015481565b61021f7f000000000000000000000000000000000000000000000000000000000000000081565b6001600160a01b0381166000908152600760209081526040808320546006909252822054610481919061047b90670de0b6b3a764000090610475906104559061044f610e11565b90610ff9565b6001600160a01b0388166000908152600860205260409020545b90611005565b90611011565b9061101d565b92915050565b600082610492610e11565b60045561049d610604565b6003556001600160a01b038116156104e4576104b881610408565b6001600160a01b0382166000908152600760209081526040808320939093556004546006909152919020555b600083116105395760405162461bcd60e51b815260206004820152601b60248201527f526577617264506f6f6c203a2043616e6e6f74207374616b652030000000000060448201526064015b60405180910390fd5b600554610546908461101d565b6005556001600160a01b03841660009081526008602052604090205461056c908461101d565b6001600160a01b038086166000908152600860205260409020919091556105b7907f000000000000000000000000000000000000000000000000000000000000000016333086611029565b836001600160a01b03167f9e71bc8eea02a63969f509818f2dafb9254532904319f9dbda79b67bd34a5f3d846040516105f291815260200190565b60405180910390a25060019392505050565b600061061242600154611067565b905090565b6040516370a0823160e01b815233600482015260009081906001600160a01b037f000000000000000000000000000000000000000000000000000000000000000016906370a0823190602401602060405180830381865afa158015610680573d6000803e3d6000fd5b505050506040513d601f19601f820116820180604052508101906106a491906113f4565b90506106af81610cb3565b50600191505090565b600080549080556107136001600160a01b037f0000000000000000000000000000000000000000000000000000000000000000167f00000000000000000000000000000000000000000000000000000000000000008361107d565b6040518181527f39346cbe10cbb5c94debda36f2afe71c5dbe015ad0b194b6df8498c815137d249060200160405180910390a150565b600033610754610e11565b60045561075f610604565b6003556001600160a01b038116156107a65761077a81610408565b6001600160a01b0382166000908152600760209081526040808320939093556004546006909152919020555b600085116107f65760405162461bcd60e51b815260206004820152601e60248201527f526577617264506f6f6c203a2043616e6e6f74207769746864726177203000006044820152606401610530565b6005546108039086610ff9565b600555336000908152600860205260409020546108209086610ff9565b33600081815260086020526040902091909155610868907f00000000000000000000000000000000000000000000000000000000000000006001600160a01b0316908761107d565b60405185815233907f7084f5476618d8e60b11ef0d7d3f06914655adb8793e28ff7f018d4c76d505d59060200160405180910390a283156108ae576108ac83610aeb565b505b506001949350505050565b6000336001600160a01b037f000000000000000000000000000000000000000000000000000000000000000016148061091157507f000000000000000000000000000000000000000000000000000000000000000042115b61095d5760405162461bcd60e51b815260206004820152600b60248201527f21617574686f72697a65640000000000000000000000000000000000000000006044820152606401610530565b600254156109ad5760405162461bcd60e51b815260206004820152600960248201527f216f6e652074696d6500000000000000000000000000000000000000000000006044820152606401610530565b6040516370a0823160e01b81523060048201526000907f00000000000000000000000000000000000000000000000000000000000000006001600160a01b0316906370a0823190602401602060405180830381865afa158015610a14573d6000803e3d6000fd5b505050506040513d601f19601f82011682018060405250810190610a3891906113f4565b905060008111610a8a5760405162461bcd60e51b815260206004820152600860248201527f2162616c616e63650000000000000000000000000000000000000000000000006044820152606401610530565b610a978162127500611011565b600255426003819055610aad906212750061101d565b6001556040518181527fde88a922e0d3b88b24e9623efeb464919c6bf9f66857a65e2bfcf2ce87a9433d9060200160405180910390a1600191505090565b600033610af6610e11565b600455610b01610604565b6003556001600160a01b03811615610b4857610b1c81610408565b6001600160a01b0382166000908152600760209081526040808320939093556004546006909152919020555b336000908152600760205260409020548015610ca957336000908152600760205260408120558315610bf95760405163282d3fdf60e01b8152336004820152602481018290527f00000000000000000000000000000000000000000000000000000000000000006001600160a01b03169063282d3fdf90604401600060405180830381600087803b158015610bdc57600080fd5b505af1158015610bf0573d6000803e3d6000fd5b50505050610c6c565b6000600a610c08836002611423565b610c129190611442565b905080600080828254610c259190611464565b90915550610c6a905033610c39838561147c565b6001600160a01b037f000000000000000000000000000000000000000000000000000000000000000016919061107d565b505b60408051828152851515602082015233917f16027d9cd5ffbfabaed8d9c40e1908fdeae11ae44ba883b5eab9c0bcbf1355b0910160405180910390a25b5060019392505050565b600033610cbe610e11565b600455610cc9610604565b6003556001600160a01b03811615610d1057610ce481610408565b6001600160a01b0382166000908152600760209081526040808320939093556004546006909152919020555b60008311610d605760405162461bcd60e51b815260206004820152601b60248201527f526577617264506f6f6c203a2043616e6e6f74207374616b65203000000000006044820152606401610530565b600554610d6d908461101d565b60055533600090815260086020526040902054610d8a908461101d565b33600081815260086020526040902091909155610dd3907f00000000000000000000000000000000000000000000000000000000000000006001600160a01b0316903086611029565b60405183815233907f9e71bc8eea02a63969f509818f2dafb9254532904319f9dbda79b67bd34a5f3d9060200160405180910390a250600192915050565b6000610e1c60055490565b610e27575060045490565b610612610e56610e3660055490565b610475670de0b6b3a764000061046f60025461046f60035461044f610604565b6004549061101d565b801580610ed95750604051636eb1769f60e11b81523060048201526001600160a01b03838116602483015284169063dd62ed3e90604401602060405180830381865afa158015610eb3573d6000803e3d6000fd5b505050506040513d601f19601f82011682018060405250810190610ed791906113f4565b155b610f4b5760405162461bcd60e51b815260206004820152603660248201527f5361666545524332303a20617070726f76652066726f6d206e6f6e2d7a65726f60448201527f20746f206e6f6e2d7a65726f20616c6c6f77616e6365000000000000000000006064820152608401610530565b6040516001600160a01b038316602482015260448101829052610fdb90849063095ea7b360e01b906064015b60408051601f198184030181529190526020810180517bffffffffffffffffffffffffffffffffffffffffffffffffffffffff167fffffffff00000000000000000000000000000000000000000000000000000000909316929092179091526110ad565b505050565b6060610fef8484600085611192565b90505b9392505050565b6000610ff2828461147c565b6000610ff28284611423565b6000610ff28284611442565b6000610ff28284611464565b6040516001600160a01b03808516602483015283166044820152606481018290526110619085906323b872dd60e01b90608401610f77565b50505050565b60008183106110765781610ff2565b5090919050565b6040516001600160a01b038316602482015260448101829052610fdb90849063a9059cbb60e01b90606401610f77565b6000611102826040518060400160405280602081526020017f5361666545524332303a206c6f772d6c6576656c2063616c6c206661696c6564815250856001600160a01b0316610fe09092919063ffffffff16565b805190915015610fdb57808060200190518101906111209190611493565b610fdb5760405162461bcd60e51b815260206004820152602a60248201527f5361666545524332303a204552433230206f7065726174696f6e20646964206e60448201527f6f742073756363656564000000000000000000000000000000000000000000006064820152608401610530565b60608247101561120a5760405162461bcd60e51b815260206004820152602660248201527f416464726573733a20696e73756666696369656e742062616c616e636520666f60448201527f722063616c6c00000000000000000000000000000000000000000000000000006064820152608401610530565b843b6112585760405162461bcd60e51b815260206004820152601d60248201527f416464726573733a2063616c6c20746f206e6f6e2d636f6e74726163740000006044820152606401610530565b600080866001600160a01b0316858760405161127491906114dc565b60006040518083038185875af1925050503d80600081146112b1576040519150601f19603f3d011682016040523d82523d6000602084013e6112b6565b606091505b50915091506112c68282866112d1565b979650505050505050565b606083156112e0575081610ff2565b8251156112f05782518084602001fd5b8160405162461bcd60e51b815260040161053091906114f8565b80356001600160a01b038116811461132157600080fd5b919050565b60006020828403121561133857600080fd5b610ff28261130a565b6000806040838503121561135457600080fd5b61135d8361130a565b946020939093013593505050565b801515811461137957600080fd5b50565b60008060006060848603121561139157600080fd5b8335925060208401356113a38161136b565b915060408401356113b38161136b565b809150509250925092565b6000602082840312156113d057600080fd5b8135610ff28161136b565b6000602082840312156113ed57600080fd5b5035919050565b60006020828403121561140657600080fd5b5051919050565b634e487b7160e01b600052601160045260246000fd5b600081600019048311821515161561143d5761143d61140d565b500290565b60008261145f57634e487b7160e01b600052601260045260246000fd5b500490565b600082198211156114775761147761140d565b500190565b60008282101561148e5761148e61140d565b500390565b6000602082840312156114a557600080fd5b8151610ff28161136b565b60005b838110156114cb5781810151838201526020016114b3565b838111156110615750506000910152565b600082516114ee8184602087016114b0565b9190910192915050565b60208152600082518060208401526115178160408501602087016114b0565b601f01601f1916919091016040019291505056fea164736f6c634300080b000a",
  "linkReferences": {},
  "deployedLinkReferences": {}
}