{
  "_format": "hh-sol-artifact-1",
  "contractName": "NativeStrategyCurve3Crv",
  "sourceName": "contracts/v3/strategies/NativeStrategyCurve3Crv.sol",
  "abi": [
    {
      "inputs": [
        {
          "internalType": "string",
          "name": "_name",
          "type": "string"
        },
        {
          "internalType": "address",
          "name": "_want",
          "type": "address"
        },
        {
          "internalType": "address",
          "name": "_crv",
          "type": "address"
        },
        {
          "internalType": "address",
          "name": "_weth",
          "type": "address"
        },
        {
          "internalType": "address",
          "name": "_dai",
          "type": "address"
        },
        {
          "internalType": "address",
          "name": "_usdc",
          "type": "address"
        },
        {
          "internalType": "address",
          "name": "_usdt",
          "type": "address"
        },
        {
          "internalType": "contract Gauge",
          "name": "_gauge",
          "type": "address"
        },
        {
          "internalType": "contract Mintr",
          "name": "_crvMintr",
          "type": "address"
        },
        {
          "internalType": "contract IStableSwap3Pool",
          "name": "_stableSwap3Pool",
          "type": "address"
        },
        {
          "internalType": "address",
          "name": "_controller",
          "type": "address"
        },
        {
          "internalType": "address",
          "name": "_manager",
          "type": "address"
        },
        {
          "internalType": "address",
          "name": "_router",
          "type": "address"
        }
      ],
      "stateMutability": "nonpayable",
      "type": "constructor"
    },
    {
      "inputs": [],
      "name": "ONE_HUNDRED_PERCENT",
      "outputs": [
        {
          "internalType": "uint256",
          "name": "",
          "type": "uint256"
        }
      ],
      "stateMutability": "view",
      "type": "function"
    },
    {
      "inputs": [
        {
          "internalType": "contract IERC20",
          "name": "_token",
          "type": "address"
        },
        {
          "internalType": "address",
          "name": "_spender",
          "type": "address"
        },
        {
          "internalType": "uint256",
          "name": "_amount",
          "type": "uint256"
        }
      ],
      "name": "approveForSpender",
      "outputs": [],
      "stateMutability": "nonpayable",
      "type": "function"
    },
    {
      "inputs": [],
      "name": "balanceOf",
      "outputs": [
        {
          "internalType": "uint256",
          "name": "",
          "type": "uint256"
        }
      ],
      "stateMutability": "view",
      "type": "function"
    },
    {
      "inputs": [],
      "name": "balanceOfPool",
      "outputs": [
        {
          "internalType": "uint256",
          "name": "",
          "type": "uint256"
        }
      ],
      "stateMutability": "view",
      "type": "function"
    },
    {
      "inputs": [],
      "name": "balanceOfWant",
      "outputs": [
        {
          "internalType": "uint256",
          "name": "",
          "type": "uint256"
        }
      ],
      "stateMutability": "view",
      "type": "function"
    },
    {
      "inputs": [],
      "name": "controller",
      "outputs": [
        {
          "internalType": "address",
          "name": "",
          "type": "address"
        }
      ],
      "stateMutability": "view",
      "type": "function"
    },
    {
      "inputs": [],
      "name": "crv",
      "outputs": [
        {
          "internalType": "address",
          "name": "",
          "type": "address"
        }
      ],
      "stateMutability": "view",
      "type": "function"
    },
    {
      "inputs": [],
      "name": "crvMintr",
      "outputs": [
        {
          "internalType": "contract Mintr",
          "name": "",
          "type": "address"
        }
      ],
      "stateMutability": "view",
      "type": "function"
    },
    {
      "inputs": [],
      "name": "dai",
      "outputs": [
        {
          "internalType": "address",
          "name": "",
          "type": "address"
        }
      ],
      "stateMutability": "view",
      "type": "function"
    },
    {
      "inputs": [],
      "name": "deposit",
      "outputs": [],
      "stateMutability": "nonpayable",
      "type": "function"
    },
    {
      "inputs": [],
      "name": "gauge",
      "outputs": [
        {
          "internalType": "contract Gauge",
          "name": "",
          "type": "address"
        }
      ],
      "stateMutability": "view",
      "type": "function"
    },
    {
      "inputs": [],
      "name": "getMostPremium",
      "outputs": [
        {
          "internalType": "address",
          "name": "",
          "type": "address"
        },
        {
          "internalType": "uint256",
          "name": "",
          "type": "uint256"
        }
      ],
      "stateMutability": "view",
      "type": "function"
    },
    {
      "inputs": [
        {
          "internalType": "uint256",
          "name": "_estimatedWETH",
          "type": "uint256"
        },
        {
          "internalType": "uint256",
          "name": "_estimatedYAXIS",
          "type": "uint256"
        }
      ],
      "name": "harvest",
      "outputs": [],
      "stateMutability": "nonpayable",
      "type": "function"
    },
    {
      "inputs": [],
      "name": "manager",
      "outputs": [
        {
          "internalType": "contract IManager",
          "name": "",
          "type": "address"
        }
      ],
      "stateMutability": "view",
      "type": "function"
    },
    {
      "inputs": [],
      "name": "name",
      "outputs": [
        {
          "internalType": "string",
          "name": "",
          "type": "string"
        }
      ],
      "stateMutability": "view",
      "type": "function"
    },
    {
      "inputs": [],
      "name": "router",
      "outputs": [
        {
          "internalType": "contract ISwap",
          "name": "",
          "type": "address"
        }
      ],
      "stateMutability": "view",
      "type": "function"
    },
    {
      "inputs": [
        {
          "internalType": "address",
          "name": "_router",
          "type": "address"
        }
      ],
      "name": "setRouter",
      "outputs": [],
      "stateMutability": "nonpayable",
      "type": "function"
    },
    {
      "inputs": [],
      "name": "skim",
      "outputs": [],
      "stateMutability": "nonpayable",
      "type": "function"
    },
    {
      "inputs": [],
      "name": "stableSwap3Pool",
      "outputs": [
        {
          "internalType": "contract IStableSwap3Pool",
          "name": "",
          "type": "address"
        }
      ],
      "stateMutability": "view",
      "type": "function"
    },
    {
      "inputs": [],
      "name": "usdc",
      "outputs": [
        {
          "internalType": "address",
          "name": "",
          "type": "address"
        }
      ],
      "stateMutability": "view",
      "type": "function"
    },
    {
      "inputs": [],
      "name": "usdt",
      "outputs": [
        {
          "internalType": "address",
          "name": "",
          "type": "address"
        }
      ],
      "stateMutability": "view",
      "type": "function"
    },
    {
      "inputs": [],
      "name": "want",
      "outputs": [
        {
          "internalType": "address",
          "name": "",
          "type": "address"
        }
      ],
      "stateMutability": "view",
      "type": "function"
    },
    {
      "inputs": [],
      "name": "weth",
      "outputs": [
        {
          "internalType": "address",
          "name": "",
          "type": "address"
        }
      ],
      "stateMutability": "view",
      "type": "function"
    },
    {
      "inputs": [
        {
          "internalType": "uint256",
          "name": "_amount",
          "type": "uint256"
        }
      ],
      "name": "withdraw",
      "outputs": [],
      "stateMutability": "nonpayable",
      "type": "function"
    },
    {
      "inputs": [
        {
          "internalType": "address",
          "name": "_asset",
          "type": "address"
        }
      ],
      "name": "withdraw",
      "outputs": [],
      "stateMutability": "nonpayable",
      "type": "function"
    },
    {
      "inputs": [],
      "name": "withdrawAll",
      "outputs": [],
      "stateMutability": "nonpayable",
      "type": "function"
    }
  ],
  "bytecode": "0x6101e06040523480156200001257600080fd5b5060405162002eba38038062002eba83398181016040526101a08110156200003957600080fd5b81019080805160405193929190846401000000008211156200005a57600080fd5b9083019060208201858111156200007057600080fd5b82516401000000008111828201881017156200008b57600080fd5b82525081516020918201929091019080838360005b83811015620000ba578181015183820152602001620000a0565b50505050905090810190601f168015620000e85780820380516001836020036101000a031916815260200191505b506040526020018051906020019092919080519060200190929190805190602001909291908051906020019092919080519060200190929190805190602001909291908051906020019092919080519060200190929190805190602001909291908051906020019092919080519060200190929190805190602001909291905050508c83838e8d8585600090805190602001906200018892919062000750565b50606083811b6001600160601b031990811660805286821b811660c05285821b811660e0529083901b1660a052600180546001600160a01b0319166001600160a01b0383811691909117909155620001f2908316826000196200033d602090811b6200126117901c565b505050505060608c811b6001600160601b0319908116610100528b821b8116610120528a821b81166101405289821b81166101605286821b81166101a05288821b81166101c0529087901b166101805250620002676001600160a01b038d16876000196200033d602090811b6200126117901c565b6200028e816000198d6001600160a01b03166200033d60201b62001261179092919060201c565b620002b5846000198b6001600160a01b03166200033d60201b62001261179092919060201c565b620002dc846000198a6001600160a01b03166200033d60201b62001261179092919060201c565b6200030384600019896001600160a01b03166200033d60201b62001261179092919060201c565b6200032a846000198e6001600160a01b03166200033d60201b62001261179092919060201c565b50505050505050505050505050620007ec565b801580620003c7575060408051636eb1769f60e11b81523060048201526001600160a01b03848116602483015291519185169163dd62ed3e91604480820192602092909190829003018186803b1580156200039757600080fd5b505afa158015620003ac573d6000803e3d6000fd5b505050506040513d6020811015620003c357600080fd5b5051155b620004045760405162461bcd60e51b815260040180806020018281038252603681526020018062002e846036913960400191505060405180910390fd5b604080516001600160a01b038416602482015260448082018490528251808303909101815260649091019091526020810180516001600160e01b0390811663095ea7b360e01b179091526200045c9185916200046116565b505050565b6060620004bd826040518060400160405280602081526020017f5361666545524332303a206c6f772d6c6576656c2063616c6c206661696c6564815250856001600160a01b03166200051d60201b62001374179092919060201c565b8051909150156200045c57808060200190516020811015620004de57600080fd5b50516200045c5760405162461bcd60e51b815260040180806020018281038252602a81526020018062002e5a602a913960400191505060405180910390fd5b60606200052e848460008562000538565b90505b9392505050565b6060824710156200057b5760405162461bcd60e51b815260040180806020018281038252602681526020018062002e346026913960400191505060405180910390fd5b6200058685620006a0565b620005d8576040805162461bcd60e51b815260206004820152601d60248201527f416464726573733a2063616c6c20746f206e6f6e2d636f6e7472616374000000604482015290519081900360640190fd5b60006060866001600160a01b031685876040518082805190602001908083835b60208310620006195780518252601f199092019160209182019101620005f8565b6001836020036101000a03801982511681845116808217855250505050505090500191505060006040518083038185875af1925050503d80600081146200067d576040519150601f19603f3d011682016040523d82523d6000602084013e62000682565b606091505b50909250905062000695828286620006a6565b979650505050505050565b3b151590565b60608315620006b757508162000531565b825115620006c85782518084602001fd5b8160405162461bcd60e51b81526004018080602001828103825283818151815260200191508051906020019080838360005b8381101562000714578181015183820152602001620006fa565b50505050905090810190601f168015620007425780820380516001836020036101000a031916815260200191505b509250505060405180910390fd5b828054600181600116156101000203166002900490600052602060002090601f016020900481019282601f106200079357805160ff1916838001178555620007c3565b82800160010185558215620007c3579182015b82811115620007c3578251825591602001919060010190620007a6565b50620007d1929150620007d5565b5090565b5b80821115620007d15760008155600101620007d6565b60805160601c60a05160601c60c05160601c60e05160601c6101005160601c6101205160601c6101405160601c6101605160601c6101805160601c6101a05160601c6101c05160601c6124c0620009746000398061047b5280610e405280611679528061172f5280611ae15280611bdb52508061079452806108f552806109825280610c7152806122dd5250806103c75280611bac5250806106ff5280610a86528061225052508061072352806108475280610a4252806121b55250806109fe5280610ab5528061120c5280612121525080610c9552806117bd52508061076b5280610e6452806111145280611d985250806105225280610587528061061052806106d45280610aed5280610c455280610ce25280610e16528061102f52806110a852806112305250806107475280610f575280610f8c52806117fd5280611cd15280611d175280611e645280611f395250806105b852806105e352806106b25280610b595280610d4e5280610df45280610fb9528061142f52806114d552506124c06000f3fe608060405234801561001057600080fd5b506004361061018e5760003560e01c80636a4874a1116100de578063d0e30db011610097578063ef9e237911610071578063ef9e237914610377578063f4b9fa75146103ad578063f77c4791146103b5578063f887ea40146103bd5761018e565b8063d0e30db014610344578063dd0081c71461034c578063e4a4b7b1146103545761018e565b80636a4874a1146102f6578063722713f7146102fe578063853828b614610306578063a6f19c841461030e578063c0d7865514610316578063c1a3d44c1461033c5761018e565b80632f48ab7d1161014b578063481c6a7511610125578063481c6a751461029557806348677dbe1461029d57806351cff8d9146102c85780635a3874ac146102ee5761018e565b80632f48ab7d1461027d5780633e413bee146102855780633fc8cef31461028d5761018e565b8063017f39871461019357806306fdde03146101b757806311588086146102345780631dd19cb41461024e5780631f1fcd51146102585780632e1a7d4d14610260575b600080fd5b61019b6103c5565b604080516001600160a01b039092168252519081900360200190f35b6101bf6103e9565b6040805160208082528351818301528351919283929083019185019080838360005b838110156101f95781810151838201526020016101e1565b50505050905090810190601f1680156102265780820380516001836020036101000a031916815260200191505b509250505060405180910390f35b61023c610477565b60408051918252519081900360200190f35b610256610517565b005b61019b6105e1565b6102566004803603602081101561027657600080fd5b5035610605565b61019b6106fd565b61019b610721565b61019b610745565b61019b610769565b6102a561078d565b604080516001600160a01b03909316835260208301919091528051918290030190f35b610256600480360360208110156102de57600080fd5b50356001600160a01b0316610ae2565b61019b610c6f565b61019b610c93565b61023c610cb7565b610256610cd7565b61019b610e3e565b6102566004803603602081101561032c57600080fd5b50356001600160a01b0316610e62565b61023c610fb5565b610256611024565b61023c611097565b6102566004803603604081101561036a57600080fd5b508035906020013561109d565b6102566004803603606081101561038d57600080fd5b506001600160a01b03813581169160208101359091169060400135611112565b61019b61120a565b61019b61122e565b61019b611252565b7f000000000000000000000000000000000000000000000000000000000000000081565b6000805460408051602060026001851615610100026000190190941693909304601f8101849004840282018401909252818152929183018282801561046f5780601f106104445761010080835404028352916020019161046f565b820191906000526020600020905b81548152906001019060200180831161045257829003601f168201915b505050505081565b60007f00000000000000000000000000000000000000000000000000000000000000006001600160a01b03166370a08231306040518263ffffffff1660e01b815260040180826001600160a01b0316815260200191505060206040518083038186803b1580156104e657600080fd5b505afa1580156104fa573d6000803e3d6000fd5b505050506040513d602081101561051057600080fd5b5051905090565b336001600160a01b037f00000000000000000000000000000000000000000000000000000000000000001614610582576040805162461bcd60e51b815260206004820152600b60248201526a10b1b7b73a3937b63632b960a91b604482015290519081900360640190fd5b6105df7f00000000000000000000000000000000000000000000000000000000000000006105ae610fb5565b6001600160a01b037f000000000000000000000000000000000000000000000000000000000000000016919061138d565b565b7f000000000000000000000000000000000000000000000000000000000000000081565b336001600160a01b037f00000000000000000000000000000000000000000000000000000000000000001614610670576040805162461bcd60e51b815260206004820152600b60248201526a10b1b7b73a3937b63632b960a91b604482015290519081900360640190fd5b600061067a610fb5565b9050818110156106a55761069661069183836113df565b61142a565b91506106a28282611580565b91505b6106f96001600160a01b037f0000000000000000000000000000000000000000000000000000000000000000167f00000000000000000000000000000000000000000000000000000000000000008461138d565b5050565b7f000000000000000000000000000000000000000000000000000000000000000081565b7f000000000000000000000000000000000000000000000000000000000000000081565b7f000000000000000000000000000000000000000000000000000000000000000081565b7f000000000000000000000000000000000000000000000000000000000000000081565b60008060007f00000000000000000000000000000000000000000000000000000000000000006001600160a01b0316634903b0d160006040518263ffffffff1660e01b81526004018082815260200191505060206040518083038186803b1580156107f757600080fd5b505afa15801561080b573d6000803e3d6000fd5b505050506040513d602081101561082157600080fd5b50516040805163313ce56760e01b81529051919250600091610973916001600160a01b037f0000000000000000000000000000000000000000000000000000000000000000169163313ce56791600480820192602092909190829003018186803b15801561088e57600080fd5b505afa1580156108a2573d6000803e3d6000fd5b505050506040513d60208110156108b857600080fd5b505160408051634903b0d160e01b815260016004820152905160ff928316600a0a9092169161096d91670de0b6b3a7640000916001600160a01b037f00000000000000000000000000000000000000000000000000000000000000001691634903b0d1916024808301926020929190829003018186803b15801561093b57600080fd5b505afa15801561094f573d6000803e3d6000fd5b505050506040513d602081101561096557600080fd5b5051906115da565b90611633565b905060006109e564e8d4a510007f00000000000000000000000000000000000000000000000000000000000000006001600160a01b0316634903b0d160026040518263ffffffff1660e01b81526004018082815260200191505060206040518083038186803b15801561093b57600080fd5b90508183111580156109f75750808311155b15610a2b577f0000000000000000000000000000000000000000000000000000000000000000600094509450505050610ade565b828211158015610a3b5750808211155b15610a6f577f0000000000000000000000000000000000000000000000000000000000000000600194509450505050610ade565b828111158015610a7f5750818111155b15610ab3577f0000000000000000000000000000000000000000000000000000000000000000600294509450505050610ade565b7f00000000000000000000000000000000000000000000000000000000000000006000945094505050505b9091565b336001600160a01b037f00000000000000000000000000000000000000000000000000000000000000001614610b4d576040805162461bcd60e51b815260206004820152600b60248201526a10b1b7b73a3937b63632b960a91b604482015290519081900360640190fd5b806001600160a01b03167f00000000000000000000000000000000000000000000000000000000000000006001600160a01b03161415610bbd576040805162461bcd60e51b815260206004808301919091526024820152631dd85b9d60e21b604482015290519081900360640190fd5b604080516370a0823160e01b8152306004820152905182916000916001600160a01b038416916370a08231916024808301926020929190829003018186803b158015610c0857600080fd5b505afa158015610c1c573d6000803e3d6000fd5b505050506040513d6020811015610c3257600080fd5b50519050610c6a6001600160a01b0383167f00000000000000000000000000000000000000000000000000000000000000008361138d565b505050565b7f000000000000000000000000000000000000000000000000000000000000000081565b7f000000000000000000000000000000000000000000000000000000000000000081565b6000610cd2610cc4610477565b610ccc610fb5565b90611580565b905090565b336001600160a01b037f00000000000000000000000000000000000000000000000000000000000000001614610d42576040805162461bcd60e51b815260206004820152600b60248201526a10b1b7b73a3937b63632b960a91b604482015290519081900360640190fd5b610d4a611675565b60007f00000000000000000000000000000000000000000000000000000000000000006001600160a01b03166370a08231306040518263ffffffff1660e01b815260040180826001600160a01b0316815260200191505060206040518083038186803b158015610db957600080fd5b505afa158015610dcd573d6000803e3d6000fd5b505050506040513d6020811015610de357600080fd5b50519050610e3b6001600160a01b037f0000000000000000000000000000000000000000000000000000000000000000167f00000000000000000000000000000000000000000000000000000000000000008361138d565b50565b7f000000000000000000000000000000000000000000000000000000000000000081565b7f00000000000000000000000000000000000000000000000000000000000000006001600160a01b0316635aa6e6756040518163ffffffff1660e01b815260040160206040518083038186803b158015610ebb57600080fd5b505afa158015610ecf573d6000803e3d6000fd5b505050506040513d6020811015610ee557600080fd5b50516001600160a01b03163314610f31576040805162461bcd60e51b815260206004820152600b60248201526a21676f7665726e616e636560a81b604482015290519081900360640190fd5b600180546001600160a01b0319166001600160a01b0383811691909117909155610f7f907f000000000000000000000000000000000000000000000000000000000000000016826000611261565b610e3b6001600160a01b037f00000000000000000000000000000000000000000000000000000000000000001682600019611261565b60007f00000000000000000000000000000000000000000000000000000000000000006001600160a01b03166370a08231306040518263ffffffff1660e01b815260040180826001600160a01b0316815260200191505060206040518083038186803b1580156104e657600080fd5b336001600160a01b037f0000000000000000000000000000000000000000000000000000000000000000161461108f576040805162461bcd60e51b815260206004820152600b60248201526a10b1b7b73a3937b63632b960a91b604482015290519081900360640190fd5b6105df61171b565b61271081565b336001600160a01b037f00000000000000000000000000000000000000000000000000000000000000001614611108576040805162461bcd60e51b815260206004820152600b60248201526a10b1b7b73a3937b63632b960a91b604482015290519081900360640190fd5b6106f982826117ae565b7f00000000000000000000000000000000000000000000000000000000000000006001600160a01b0316635aa6e6756040518163ffffffff1660e01b815260040160206040518083038186803b15801561116b57600080fd5b505afa15801561117f573d6000803e3d6000fd5b505050506040513d602081101561119557600080fd5b50516001600160a01b031633146111e1576040805162461bcd60e51b815260206004820152600b60248201526a21676f7665726e616e636560a81b604482015290519081900360640190fd5b6111f66001600160a01b038416836000611261565b610c6a6001600160a01b0384168383611261565b7f000000000000000000000000000000000000000000000000000000000000000081565b7f000000000000000000000000000000000000000000000000000000000000000081565b6001546001600160a01b031681565b8015806112e7575060408051636eb1769f60e11b81523060048201526001600160a01b03848116602483015291519185169163dd62ed3e91604480820192602092909190829003018186803b1580156112b957600080fd5b505afa1580156112cd573d6000803e3d6000fd5b505050506040513d60208110156112e357600080fd5b5051155b6113225760405162461bcd60e51b81526004018080602001828103825260368152602001806124556036913960400191505060405180910390fd5b604080516001600160a01b038416602482015260448082018490528251808303909101815260649091019091526020810180516001600160e01b031663095ea7b360e01b179052610c6a90849061183b565b606061138384846000856118ec565b90505b9392505050565b604080516001600160a01b038416602482015260448082018490528251808303909101815260649091019091526020810180516001600160e01b031663a9059cbb60e01b179052610c6a90849061183b565b600061142183836040518060400160405280601e81526020017f536166654d6174683a207375627472616374696f6e206f766572666c6f770000815250611a48565b90505b92915050565b6000807f00000000000000000000000000000000000000000000000000000000000000006001600160a01b03166370a08231306040518263ffffffff1660e01b815260040180826001600160a01b0316815260200191505060206040518083038186803b15801561149a57600080fd5b505afa1580156114ae573d6000803e3d6000fd5b505050506040513d60208110156114c457600080fd5b505190506114d183611adf565b60007f00000000000000000000000000000000000000000000000000000000000000006001600160a01b03166370a08231306040518263ffffffff1660e01b815260040180826001600160a01b0316815260200191505060206040518083038186803b15801561154057600080fd5b505afa158015611554573d6000803e3d6000fd5b505050506040513d602081101561156a57600080fd5b5051905061157881836113df565b949350505050565b600082820183811015611421576040805162461bcd60e51b815260206004820152601b60248201527f536166654d6174683a206164646974696f6e206f766572666c6f770000000000604482015290519081900360640190fd5b6000826115e957506000611424565b828202828482816115f657fe5b04146114215760405162461bcd60e51b815260040180806020018281038252602181526020018061240a6021913960400191505060405180910390fd5b600061142183836040518060400160405280601a81526020017f536166654d6174683a206469766973696f6e206279207a65726f000000000000815250611b45565b60007f00000000000000000000000000000000000000000000000000000000000000006001600160a01b03166370a08231306040518263ffffffff1660e01b815260040180826001600160a01b0316815260200191505060206040518083038186803b1580156116e457600080fd5b505afa1580156116f8573d6000803e3d6000fd5b505050506040513d602081101561170e57600080fd5b50519050610e3b81611adf565b6000611725610fb5565b90508015610e3b577f00000000000000000000000000000000000000000000000000000000000000006001600160a01b031663b6b55f25826040518263ffffffff1660e01b815260040180828152602001915050600060405180830381600087803b15801561179357600080fd5b505af11580156117a7573d6000803e3d6000fd5b5050505050565b6117b6611baa565b60006117e37f00000000000000000000000000000000000000000000000000000000000000008484611c4d565b90508015610c6a5760006117f561078d565b5090506118257f000000000000000000000000000000000000000000000000000000000000000082846001611fba565b61182d6120f9565b61183561171b565b50505050565b6060611890826040518060400160405280602081526020017f5361666545524332303a206c6f772d6c6576656c2063616c6c206661696c6564815250856001600160a01b03166113749092919063ffffffff16565b805190915015610c6a578080602001905160208110156118af57600080fd5b5051610c6a5760405162461bcd60e51b815260040180806020018281038252602a81526020018061242b602a913960400191505060405180910390fd5b60608247101561192d5760405162461bcd60e51b81526004018080602001828103825260268152602001806123e46026913960400191505060405180910390fd5b61193685612359565b611987576040805162461bcd60e51b815260206004820152601d60248201527f416464726573733a2063616c6c20746f206e6f6e2d636f6e7472616374000000604482015290519081900360640190fd5b60006060866001600160a01b031685876040518082805190602001908083835b602083106119c65780518252601f1990920191602091820191016119a7565b6001836020036101000a03801982511681845116808217855250505050505090500191505060006040518083038185875af1925050503d8060008114611a28576040519150601f19603f3d011682016040523d82523d6000602084013e611a2d565b606091505b5091509150611a3d82828661235f565b979650505050505050565b60008184841115611ad75760405162461bcd60e51b81526004018080602001828103825283818151815260200191508051906020019080838360005b83811015611a9c578181015183820152602001611a84565b50505050905090810190601f168015611ac95780820380516001836020036101000a031916815260200191505b509250505060405180910390fd5b505050900390565b7f00000000000000000000000000000000000000000000000000000000000000006001600160a01b0316632e1a7d4d826040518263ffffffff1660e01b815260040180828152602001915050600060405180830381600087803b15801561179357600080fd5b60008183611b945760405162461bcd60e51b8152602060048201818152835160248401528351909283926044909101919085019080838360008315611a9c578181015183820152602001611a84565b506000838581611ba057fe5b0495945050505050565b7f00000000000000000000000000000000000000000000000000000000000000006001600160a01b0316636a6278427f00000000000000000000000000000000000000000000000000000000000000006040518263ffffffff1660e01b815260040180826001600160a01b03168152602001915050600060405180830381600087803b158015611c3957600080fd5b505af1158015611835573d6000803e3d6000fd5b600080846001600160a01b03166370a08231306040518263ffffffff1660e01b815260040180826001600160a01b0316815260200191505060206040518083038186803b158015611c9d57600080fd5b505afa158015611cb1573d6000803e3d6000fd5b505050506040513d6020811015611cc757600080fd5b50519050611cf7857f00000000000000000000000000000000000000000000000000000000000000008387611fba565b604080516370a0823160e01b815230600482015290516001600160a01b037f000000000000000000000000000000000000000000000000000000000000000016916370a08231916024808301926020929190829003018186803b158015611d5d57600080fd5b505afa158015611d71573d6000803e3d6000fd5b505050506040513d6020811015611d8757600080fd5b505191508115611fb25760008060007f00000000000000000000000000000000000000000000000000000000000000006001600160a01b031663da633d316040518163ffffffff1660e01b815260040160606040518083038186803b158015611def57600080fd5b505afa158015611e03573d6000803e3d6000fd5b505050506040513d6060811015611e1957600080fd5b5080516020820151604090920151909450909250905060008115801590611e4857506001600160a01b03831615155b15611f1957611e5d61271061096d88856115da565b9050611e8b7f000000000000000000000000000000000000000000000000000000000000000085838a611fba565b611f1983856001600160a01b03166370a08231306040518263ffffffff1660e01b815260040180826001600160a01b0316815260200191505060206040518083038186803b158015611edc57600080fd5b505afa158015611ef0573d6000803e3d6000fd5b505050506040513d6020811015611f0657600080fd5b50516001600160a01b038716919061138d565b604080516370a0823160e01b815230600482015290516001600160a01b037f000000000000000000000000000000000000000000000000000000000000000016916370a08231916024808301926020929190829003018186803b158015611f7f57600080fd5b505afa158015611f93573d6000803e3d6000fd5b505050506040513d6020811015611fa957600080fd5b50519550505050505b509392505050565b60408051600280825260608083018452926020830190803683370190505090508481600081518110611fe857fe5b60200260200101906001600160a01b031690816001600160a01b031681525050838160018151811061201657fe5b6001600160a01b039283166020918202929092018101919091526001546040516338ed173960e01b8152600481018781526024820187905230606483018190526402540be4006084840181905260a060448501908152885160a4860152885195909716966338ed1739968b968b968b96939260c490910191878201910280838360005b838110156120b1578181015183820152602001612099565b505050509050019650505050505050600060405180830381600087803b1580156120da57600080fd5b505af11580156120ee573d6000803e3d6000fd5b505050505050505050565b6121016123c5565b604080516370a0823160e01b815230600482015290516001600160a01b037f000000000000000000000000000000000000000000000000000000000000000016916370a08231916024808301926020929190829003018186803b15801561216757600080fd5b505afa15801561217b573d6000803e3d6000fd5b505050506040513d602081101561219157600080fd5b50518152604080516370a0823160e01b815230600482015290516001600160a01b037f000000000000000000000000000000000000000000000000000000000000000016916370a08231916024808301926020929190829003018186803b1580156121fb57600080fd5b505afa15801561220f573d6000803e3d6000fd5b505050506040513d602081101561222557600080fd5b5051602080830191909152604080516370a0823160e01b815230600482015290516001600160a01b037f000000000000000000000000000000000000000000000000000000000000000016926370a082319260248082019391829003018186803b15801561229257600080fd5b505afa1580156122a6573d6000803e3d6000fd5b505050506040513d60208110156122bc57600080fd5b50518160026020020152604051634515cef360e01b81526001600160a01b037f00000000000000000000000000000000000000000000000000000000000000001690634515cef39083906001906004018083606080838360005b8381101561232e578181015183820152602001612316565b5050505090500182815260200192505050600060405180830381600087803b15801561179357600080fd5b3b151590565b6060831561236e575081611386565b82511561237e5782518084602001fd5b60405162461bcd60e51b8152602060048201818152845160248401528451859391928392604401919085019080838360008315611a9c578181015183820152602001611a84565b6040518060600160405280600390602082028036833750919291505056fe416464726573733a20696e73756666696369656e742062616c616e636520666f722063616c6c536166654d6174683a206d756c7469706c69636174696f6e206f766572666c6f775361666545524332303a204552433230206f7065726174696f6e20646964206e6f7420737563636565645361666545524332303a20617070726f76652066726f6d206e6f6e2d7a65726f20746f206e6f6e2d7a65726f20616c6c6f77616e6365a264697066735822122077736e663be156432b646a169f67e53c9ccb17e1db13a2b5dd816e9ee21392f164736f6c634300060c0033416464726573733a20696e73756666696369656e742062616c616e636520666f722063616c6c5361666545524332303a204552433230206f7065726174696f6e20646964206e6f7420737563636565645361666545524332303a20617070726f76652066726f6d206e6f6e2d7a65726f20746f206e6f6e2d7a65726f20616c6c6f77616e6365",
  "linkReferences": {},
  "deployedLinkReferences": {}
}