{
  "_format": "hh-sol-artifact-1",
  "contractName": "OwnableERC721",
  "sourceName": "contracts/visor/OwnableERC721.sol",
  "abi": [
    {
      "inputs": [],
      "name": "nft",
      "outputs": [
        {
          "internalType": "address",
          "name": "nftAddress",
          "type": "address"
        }
      ],
      "stateMutability": "view",
      "type": "function"
    },
    {
      "inputs": [],
      "name": "owner",
      "outputs": [
        {
          "internalType": "address",
          "name": "ownerAddress",
          "type": "address"
        }
      ],
      "stateMutability": "view",
      "type": "function"
    }
  ],
  "bytecode": "0x608060405234801561001057600080fd5b50610169806100206000396000f3fe608060405234801561001057600080fd5b50600436106100365760003560e01c806347ccca021461003b5780638da5cb5b1461006c575b600080fd5b610043610074565b6040805173ffffffffffffffffffffffffffffffffffffffff9092168252519081900360200190f35b610043610090565b60005473ffffffffffffffffffffffffffffffffffffffff1690565b60008054604080517f6352211e000000000000000000000000000000000000000000000000000000008152306004820152905173ffffffffffffffffffffffffffffffffffffffff90921691636352211e91602480820192602092909190829003018186803b15801561010257600080fd5b505afa158015610116573d6000803e3d6000fd5b505050506040513d602081101561012c57600080fd5b505190509056fea264697066735822122060500d5bc70b239d36b2b04466ec87d72738c0ceb07e7216e958bfc464dba3c964736f6c63430007060033",
  "linkReferences": {},
  "deployedLinkReferences": {}
}