{
  "_format": "hh-sol-artifact-1",
  "contractName": "SelfDestructMockup",
  "sourceName": "contracts/mockups/SelfDestructMockup.sol",
  "abi": [
    {
      "inputs": [
        {
          "internalType": "address payable",
          "name": "_address",
          "type": "address"
        }
      ],
      "name": "killme",
      "outputs": [],
      "stateMutability": "nonpayable",
      "type": "function"
    },
    {
      "stateMutability": "payable",
      "type": "receive"
    }
  ],
  "bytecode": "0x608060405234801561001057600080fd5b5060b68061001f6000396000f3fe60806040526004361060205760003560e01c8063212743c914602b57600080fd5b36602657005b600080fd5b348015603657600080fd5b50604660423660046054565b6048565b005b806001600160a01b0316ff5b6000602082840312156064578081fd5b81356001600160a01b03811681146079578182fd5b939250505056fea26469706673582212206cedb8c4f5bbf4a14cfa695e08c54614a52766e6a3eb1e33e6369e6d06895b4764736f6c63430008040033",
  "linkReferences": {},
  "deployedLinkReferences": {}
}