{
  "_format": "hh-sol-artifact-1",
  "contractName": "MockLockingErc20Strategy",
  "sourceName": "contracts/testing/MockLockingStrategy.sol",
  "abi": [
    {
      "inputs": [
        {
          "internalType": "contract IRoleManager",
          "name": "roleManager",
          "type": "address"
        },
        {
          "internalType": "address",
          "name": "_underlying",
          "type": "address"
        }
      ],
      "stateMutability": "nonpayable",
      "type": "constructor"
    },
    {
      "inputs": [],
      "name": "amountLocked",
      "outputs": [
        {
          "internalType": "uint256",
          "name": "",
          "type": "uint256"
        }
      ],
      "stateMutability": "view",
      "type": "function"
    },
    {
      "inputs": [],
      "name": "balance",
      "outputs": [
        {
          "internalType": "uint256",
          "name": "",
          "type": "uint256"
        }
      ],
      "stateMutability": "view",
      "type": "function"
    },
    {
      "inputs": [],
      "name": "deposit",
      "outputs": [
        {
          "internalType": "bool",
          "name": "",
          "type": "bool"
        }
      ],
      "stateMutability": "payable",
      "type": "function"
    },
    {
      "inputs": [
        {
          "internalType": "address",
          "name": "account",
          "type": "address"
        }
      ],
      "name": "drainFunds",
      "outputs": [],
      "stateMutability": "nonpayable",
      "type": "function"
    },
    {
      "inputs": [],
      "name": "harvest",
      "outputs": [
        {
          "internalType": "uint256",
          "name": "",
          "type": "uint256"
        }
      ],
      "stateMutability": "pure",
      "type": "function"
    },
    {
      "inputs": [],
      "name": "harvestable",
      "outputs": [
        {
          "internalType": "uint256",
          "name": "",
          "type": "uint256"
        }
      ],
      "stateMutability": "pure",
      "type": "function"
    },
    {
      "inputs": [],
      "name": "hasPendingFunds",
      "outputs": [
        {
          "internalType": "bool",
          "name": "",
          "type": "bool"
        }
      ],
      "stateMutability": "pure",
      "type": "function"
    },
    {
      "inputs": [],
      "name": "name",
      "outputs": [
        {
          "internalType": "string",
          "name": "",
          "type": "string"
        }
      ],
      "stateMutability": "pure",
      "type": "function"
    },
    {
      "inputs": [],
      "name": "roleManager",
      "outputs": [
        {
          "internalType": "contract IRoleManager",
          "name": "",
          "type": "address"
        }
      ],
      "stateMutability": "view",
      "type": "function"
    },
    {
      "inputs": [
        {
          "internalType": "uint256",
          "name": "amount",
          "type": "uint256"
        }
      ],
      "name": "setAmountLocked",
      "outputs": [],
      "stateMutability": "nonpayable",
      "type": "function"
    },
    {
      "inputs": [
        {
          "internalType": "address",
          "name": "newVault",
          "type": "address"
        }
      ],
      "name": "setVault",
      "outputs": [
        {
          "internalType": "bool",
          "name": "",
          "type": "bool"
        }
      ],
      "stateMutability": "nonpayable",
      "type": "function"
    },
    {
      "inputs": [],
      "name": "shutdown",
      "outputs": [
        {
          "internalType": "bool",
          "name": "",
          "type": "bool"
        }
      ],
      "stateMutability": "pure",
      "type": "function"
    },
    {
      "inputs": [
        {
          "internalType": "address",
          "name": "lpToken",
          "type": "address"
        },
        {
          "internalType": "address",
          "name": "stakerVault",
          "type": "address"
        }
      ],
      "name": "stakeInVault",
      "outputs": [],
      "stateMutability": "nonpayable",
      "type": "function"
    },
    {
      "inputs": [],
      "name": "strategist",
      "outputs": [
        {
          "internalType": "address",
          "name": "",
          "type": "address"
        }
      ],
      "stateMutability": "view",
      "type": "function"
    },
    {
      "inputs": [
        {
          "internalType": "address",
          "name": "coin",
          "type": "address"
        },
        {
          "internalType": "address",
          "name": "to",
          "type": "address"
        },
        {
          "internalType": "uint256",
          "name": "amount",
          "type": "uint256"
        }
      ],
      "name": "transfer",
      "outputs": [
        {
          "internalType": "bool",
          "name": "",
          "type": "bool"
        }
      ],
      "stateMutability": "nonpayable",
      "type": "function"
    },
    {
      "inputs": [],
      "name": "want",
      "outputs": [
        {
          "internalType": "address",
          "name": "",
          "type": "address"
        }
      ],
      "stateMutability": "view",
      "type": "function"
    },
    {
      "inputs": [
        {
          "internalType": "uint256",
          "name": "amount",
          "type": "uint256"
        }
      ],
      "name": "withdraw",
      "outputs": [
        {
          "internalType": "bool",
          "name": "",
          "type": "bool"
        }
      ],
      "stateMutability": "nonpayable",
      "type": "function"
    },
    {
      "inputs": [],
      "name": "withdrawAll",
      "outputs": [
        {
          "internalType": "uint256",
          "name": "",
          "type": "uint256"
        }
      ],
      "stateMutability": "nonpayable",
      "type": "function"
    },
    {
      "inputs": [
        {
          "internalType": "address",
          "name": "coin",
          "type": "address"
        }
      ],
      "name": "withdrawDust",
      "outputs": [
        {
          "internalType": "bool",
          "name": "",
          "type": "bool"
        }
      ],
      "stateMutability": "nonpayable",
      "type": "function"
    }
  ],
  "bytecode": "0x60a060405234801561001057600080fd5b5060405161119738038061119783398101604081905261002f91610090565b6001600160a01b0391821660805260008054929091166001600160a01b031992831617905560028054909116733d9819210a31b4961b30ef54be2aed79b9c9cd3b1790556100ca565b6001600160a01b038116811461008d57600080fd5b50565b600080604083850312156100a357600080fd5b82516100ae81610078565b60208401519092506100bf81610078565b809150509250929050565b6080516110ab6100ec60003960008181610127015261075f01526110ab6000f3fe6080604052600436106101135760003560e01c806361240eea116100a0578063beabacc811610064578063beabacc814610301578063d0e30db014610321578063d8115fac14610329578063dbbd47d41461026f578063fc0e74d11461034957600080fd5b806361240eea1461028d5780636817031b146102a15780636c6c7e05146102c1578063853828b6146102d7578063b69ef8a8146102ec57600080fd5b80631fe4a686116100e75780631fe4a686146101ed57806324f63c8b1461020d5780632e1a7d4d1461022f57806339418a401461024f5780634641257d1461026f57600080fd5b8062435da51461011857806301b99eba1461016457806306fdde03146101945780631f1fcd51146101cf575b600080fd5b34801561012457600080fd5b507f00000000000000000000000000000000000000000000000000000000000000005b6040516001600160a01b0390911681526020015b60405180910390f35b34801561017057600080fd5b5061018461017f366004610ef3565b610362565b604051901515815260200161015b565b3480156101a057600080fd5b50604080518082018252600c81526b4d6f636b537472617465677960a01b6020820152905161015b9190610f3e565b3480156101db57600080fd5b506000546001600160a01b0316610147565b3480156101f957600080fd5b50600254610147906001600160a01b031681565b34801561021957600080fd5b5061022d610228366004610f71565b610522565b005b34801561023b57600080fd5b5061018461024a366004610fa4565b610633565b34801561025b57600080fd5b5061022d61026a366004610fa4565b600355565b34801561027b57600080fd5b5060005b60405190815260200161015b565b34801561029957600080fd5b506000610184565b3480156102ad57600080fd5b506101846102bc366004610ef3565b61075b565b3480156102cd57600080fd5b5061027f60035481565b3480156102e357600080fd5b5061027f610927565b3480156102f857600080fd5b5061027f6109db565b34801561030d57600080fd5b5061018461031c366004610fbd565b610a57565b610184610b37565b34801561033557600080fd5b5061022d610344366004610ef3565b610b97565b34801561035557600080fd5b506001610184565b905090565b600080546001600160a01b03838116911614156103c65760405162461bcd60e51b815260206004820152601760248201527f556e617574686f72697a6564207769746864726177616c00000000000000000060448201526064015b60405180910390fd5b6040516370a0823160e01b81523060048201526000906001600160a01b038416906370a082319060240160206040518083038186803b15801561040857600080fd5b505afa15801561041c573d6000803e3d6000fd5b505050506040513d601f19601f820116820180604052508101906104409190610ff9565b9050600081116104925760405162461bcd60e51b815260206004820152601a60248201527f496e76616c696420616d6f756e7420746f20776974686472617700000000000060448201526064016103bd565b60015460405163a9059cbb60e01b81526001600160a01b039182166004820152602481018390529084169063a9059cbb90604401602060405180830381600087803b1580156104e057600080fd5b505af11580156104f4573d6000803e3d6000fd5b505050506040513d601f19601f820116820180604052508101906105189190611012565b5060019392505050565b60405163095ea7b360e01b81526001600160a01b038281166004830152673782dace9d900000602483015283169063095ea7b390604401602060405180830381600087803b15801561057357600080fd5b505af1158015610587573d6000803e3d6000fd5b505050506040513d601f19601f820116820180604052508101906105ab9190611012565b5060405163534a7e1d60e11b8152673782dace9d90000060048201526001600160a01b0382169063a694fc3a906024015b602060405180830381600087803b1580156105f657600080fd5b505af115801561060a573d6000803e3d6000fd5b505050506040513d601f19601f8201168201806040525081019061062e9190611012565b505050565b600154604080518082019091526013815272756e617574686f72697a65642061636365737360681b60208201526000916001600160a01b0316331461068b5760405162461bcd60e51b81526004016103bd9190610f3e565b50600080546040516370a0823160e01b81523060048201526001600160a01b03909116906370a082319060240160206040518083038186803b1580156106d057600080fd5b505afa1580156106e4573d6000803e3d6000fd5b505050506040513d601f19601f820116820180604052508101906107089190610ff9565b90508083116107335760015460005461072e916001600160a01b03918216911685610c4e565b610750565b600154600054610750916001600160a01b03918216911683610c4e565b60019150505b919050565b60007f0000000000000000000000000000000000000000000000000000000000000000604051632474521560e21b815269676f7665726e616e636560b01b60048201523360248201526001600160a01b0391909116906391d148549060440160206040518083038186803b1580156107d257600080fd5b505afa1580156107e6573d6000803e3d6000fd5b505050506040513d601f19601f8201168201806040525081019061080a9190611012565b60405180604001604052806013815260200172756e617574686f72697a65642061636365737360681b815250906108545760405162461bcd60e51b81526004016103bd9190610f3e565b506001546001600160a01b0316156108ae5760405162461bcd60e51b815260206004820152601a60248201527f5661756c742063616e206f6e6c7920626520736574206f6e636500000000000060448201526064016103bd565b6001600160a01b0382166109045760405162461bcd60e51b815260206004820152601c60248201527f5661756c742063616e6e6f74206265207a65726f20616464726573730000000060448201526064016103bd565b50600180546001600160a01b0383166001600160a01b0319909116178155919050565b600080546040516370a0823160e01b815230600482015282916001600160a01b0316906370a082319060240160206040518083038186803b15801561096b57600080fd5b505afa15801561097f573d6000803e3d6000fd5b505050506040513d601f19601f820116820180604052508101906109a39190610ff9565b90506000600354826109b59190611034565b6001546000549192506109d5916001600160a01b03908116911683610c4e565b92915050565b600080546040516370a0823160e01b81523060048201526001600160a01b03909116906370a082319060240160206040518083038186803b158015610a1f57600080fd5b505afa158015610a33573d6000803e3d6000fd5b505050506040513d601f19601f8201168201806040525081019061035d9190610ff9565b6000808211610aa85760405162461bcd60e51b815260206004820152601a60248201527f496e76616c696420616d6f756e7420746f207472616e7366657200000000000060448201526064016103bd565b60405163a9059cbb60e01b81526001600160a01b0384811660048301526024820184905285169063a9059cbb90604401602060405180830381600087803b158015610af257600080fd5b505af1158015610b06573d6000803e3d6000fd5b505050506040513d601f19601f82011682018060405250810190610b2a9190611012565b50600190505b9392505050565b600154604080518082019091526013815272756e617574686f72697a65642061636365737360681b60208201526000916001600160a01b03163314610b8f5760405162461bcd60e51b81526004016103bd9190610f3e565b506001905090565b600080546040516370a0823160e01b81523060048201526001600160a01b03909116906370a082319060240160206040518083038186803b158015610bdb57600080fd5b505afa158015610bef573d6000803e3d6000fd5b505050506040513d601f19601f82011682018060405250810190610c139190610ff9565b60005460405163a9059cbb60e01b81526001600160a01b0385811660048301526024820184905292935091169063a9059cbb906044016105dc565b604080516001600160a01b03848116602483015260448083018590528351808403909101815260649092018352602080830180516001600160e01b031663a9059cbb60e01b17905283518085019094528084527f5361666545524332303a206c6f772d6c6576656c2063616c6c206661696c65649084015261062e92869291600091610cde918516908490610d5b565b80519091501561062e5780806020019051810190610cfc9190611012565b61062e5760405162461bcd60e51b815260206004820152602a60248201527f5361666545524332303a204552433230206f7065726174696f6e20646964206e6044820152691bdd081cdd58d8d9595960b21b60648201526084016103bd565b6060610d6a8484600085610d72565b949350505050565b606082471015610dd35760405162461bcd60e51b815260206004820152602660248201527f416464726573733a20696e73756666696369656e742062616c616e636520666f6044820152651c8818d85b1b60d21b60648201526084016103bd565b6001600160a01b0385163b610e2a5760405162461bcd60e51b815260206004820152601d60248201527f416464726573733a2063616c6c20746f206e6f6e2d636f6e747261637400000060448201526064016103bd565b600080866001600160a01b03168587604051610e469190611059565b60006040518083038185875af1925050503d8060008114610e83576040519150601f19603f3d011682016040523d82523d6000602084013e610e88565b606091505b5091509150610e98828286610ea3565b979650505050505050565b60608315610eb2575081610b30565b825115610ec25782518084602001fd5b8160405162461bcd60e51b81526004016103bd9190610f3e565b80356001600160a01b038116811461075657600080fd5b600060208284031215610f0557600080fd5b610b3082610edc565b60005b83811015610f29578181015183820152602001610f11565b83811115610f38576000848401525b50505050565b6020815260008251806020840152610f5d816040850160208701610f0e565b601f01601f19169190910160400192915050565b60008060408385031215610f8457600080fd5b610f8d83610edc565b9150610f9b60208401610edc565b90509250929050565b600060208284031215610fb657600080fd5b5035919050565b600080600060608486031215610fd257600080fd5b610fdb84610edc565b9250610fe960208501610edc565b9150604084013590509250925092565b60006020828403121561100b57600080fd5b5051919050565b60006020828403121561102457600080fd5b81518015158114610b3057600080fd5b60008282101561105457634e487b7160e01b600052601160045260246000fd5b500390565b6000825161106b818460208701610f0e565b919091019291505056fea2646970667358221220924427d20899992adbb57eb65965328cf96feb21f0677f03b58dc86f6c78af4d64736f6c63430008090033",
  "linkReferences": {},
  "deployedLinkReferences": {}
}