{
  "_format": "hh-sol-artifact-1",
  "contractName": "MockVotingEscrow",
  "sourceName": "contracts/testing/MockVotingEscrow.sol",
  "abi": [
    {
      "inputs": [
        {
          "internalType": "address",
          "name": "crvToken_",
          "type": "address"
        }
      ],
      "stateMutability": "nonpayable",
      "type": "constructor"
    },
    {
      "inputs": [
        {
          "internalType": "address",
          "name": "_address",
          "type": "address"
        }
      ],
      "name": "balanceOf",
      "outputs": [
        {
          "internalType": "uint256",
          "name": "",
          "type": "uint256"
        }
      ],
      "stateMutability": "view",
      "type": "function"
    },
    {
      "inputs": [
        {
          "internalType": "uint256",
          "name": "_value",
          "type": "uint256"
        },
        {
          "internalType": "uint256",
          "name": "",
          "type": "uint256"
        }
      ],
      "name": "create_lock",
      "outputs": [],
      "stateMutability": "nonpayable",
      "type": "function"
    },
    {
      "inputs": [
        {
          "internalType": "uint256",
          "name": "_value",
          "type": "uint256"
        }
      ],
      "name": "increase_amount",
      "outputs": [],
      "stateMutability": "nonpayable",
      "type": "function"
    },
    {
      "inputs": [
        {
          "internalType": "uint256",
          "name": "unlockTime",
          "type": "uint256"
        }
      ],
      "name": "increase_unlock_time",
      "outputs": [],
      "stateMutability": "nonpayable",
      "type": "function"
    },
    {
      "inputs": [],
      "name": "totalSupply",
      "outputs": [
        {
          "internalType": "uint256",
          "name": "",
          "type": "uint256"
        }
      ],
      "stateMutability": "view",
      "type": "function"
    },
    {
      "inputs": [
        {
          "internalType": "uint256",
          "name": "amount",
          "type": "uint256"
        }
      ],
      "name": "updateTotalSupply",
      "outputs": [],
      "stateMutability": "nonpayable",
      "type": "function"
    },
    {
      "inputs": [],
      "name": "withdraw",
      "outputs": [],
      "stateMutability": "nonpayable",
      "type": "function"
    }
  ],
  "bytecode": "0x60806040526000805534801561001457600080fd5b506040516104c23803806104c283398101604081905261003391610058565b600180546001600160a01b0319166001600160a01b0392909216919091179055610088565b60006020828403121561006a57600080fd5b81516001600160a01b038116811461008157600080fd5b9392505050565b61042b806100976000396000f3fe608060405234801561001057600080fd5b506004361061007d5760003560e01c806365fc38731161005b57806365fc3873146100ad57806366d49bab146100c057806370a08231146100d3578063eff7a612146100fc57600080fd5b806318160ddd146100825780633ccfd60b146100985780634957677c1461009a575b600080fd5b6000545b60405190815260200160405180910390f35b005b6100986100a8366004610329565b61010d565b6100986100bb366004610342565b610177565b6100986100ce366004610329565b600055565b6100866100e1366004610364565b6001600160a01b031660009081526002602052604090205490565b61009861010a366004610329565b50565b3360009081526002602052604090205461016e5760405162461bcd60e51b815260206004820181905260248201527f61206c6f636b206e6565647320746f206669727374206265206372656174656460448201526064015b60405180910390fd5b61010a8161025f565b6001546040516370a0823160e01b815233600482015283916001600160a01b0316906370a082319060240160206040518083038186803b1580156101ba57600080fd5b505afa1580156101ce573d6000803e3d6000fd5b505050506040513d601f19601f820116820180604052508101906101f29190610394565b10156102525760405162461bcd60e51b815260206004820152602960248201527f6d73672e73656e6465722068617320696e73756666696369656e742066756e646044820152687320746f206c6f636b60b81b6064820152608401610165565b61025b8261025f565b5050565b6001546040516323b872dd60e01b8152336004820152306024820152604481018390526001600160a01b03909116906323b872dd90606401602060405180830381600087803b1580156102b157600080fd5b505af11580156102c5573d6000803e3d6000fd5b505050506040513d601f19601f820116820180604052508101906102e991906103ad565b5033600090815260026020526040812080548392906103099084906103cf565b925050819055508060008082825461032191906103cf565b909155505050565b60006020828403121561033b57600080fd5b5035919050565b6000806040838503121561035557600080fd5b50508035926020909101359150565b60006020828403121561037657600080fd5b81356001600160a01b038116811461038d57600080fd5b9392505050565b6000602082840312156103a657600080fd5b5051919050565b6000602082840312156103bf57600080fd5b8151801515811461038d57600080fd5b600082198211156103f057634e487b7160e01b600052601160045260246000fd5b50019056fea2646970667358221220322b4fcf5b3e8e6bde549efb721f7039abf9423e8d09b0b135657ee58216856564736f6c63430008090033",
  "linkReferences": {},
  "deployedLinkReferences": {}
}