{
  "_format": "hh-sol-artifact-1",
  "contractName": "LibInsuranceMock",
  "sourceName": "contracts/test/LibInsuranceMock.sol",
  "abi": [
    {
      "inputs": [
        {
          "internalType": "uint256",
          "name": "poolTokenSupply",
          "type": "uint256"
        },
        {
          "internalType": "uint256",
          "name": "poolTokenUnderlying",
          "type": "uint256"
        },
        {
          "internalType": "uint256",
          "name": "wadAmount",
          "type": "uint256"
        }
      ],
      "name": "calcMintAmount",
      "outputs": [
        {
          "internalType": "uint256",
          "name": "",
          "type": "uint256"
        }
      ],
      "stateMutability": "pure",
      "type": "function"
    },
    {
      "inputs": [
        {
          "internalType": "uint256",
          "name": "poolTokenSupply",
          "type": "uint256"
        },
        {
          "internalType": "uint256",
          "name": "poolTokenUnderlying",
          "type": "uint256"
        },
        {
          "internalType": "uint256",
          "name": "wadAmount",
          "type": "uint256"
        }
      ],
      "name": "calcWithdrawAmount",
      "outputs": [
        {
          "internalType": "uint256",
          "name": "",
          "type": "uint256"
        }
      ],
      "stateMutability": "pure",
      "type": "function"
    }
  ],
  "bytecode": "0x6102ee61003a600b82828239805160001a60731461002d57634e487b7160e01b600052600060045260246000fd5b30600052607381538281f3fe73000000000000000000000000000000000000000030146080604052600436106100405760003560e01c806310e1c631146100455780636dca87ae1461006e575b600080fd5b610058610053366004610284565b610081565b60405161006591906102af565b60405180910390f35b61005861007c366004610284565b610098565b600061008e8484846100a5565b90505b9392505050565b600061008e8484846100da565b6000836100b3575080610091565b826100c057506000610091565b6100d36100cd85856100f2565b83610107565b9050610091565b6000836100e957506000610091565b61008e6100cd84865b600061009183670de0b6b3a764000084610113565b600061009183836101be565b6000808060001985870986860292508281109083900303905080610149576000841161013e57600080fd5b508290049050610091565b80841161015557600080fd5b60008486880960026001871981018816978890046003810283188082028403028082028403028082028403028082028403028082028403029081029092039091026000889003889004909101858311909403939093029303949094049190911702949350505050565b60008080600019848609848602925082811083820303915050600080670de0b6b3a76400008688099150506706f05b59d3b1ffff8111826102115780670de0b6b3a764000085040194505050505061027e565b82670de0b6b3a76400001161022557600080fd5b6204000082850304939091119091037d40000000000000000000000000000000000000000000000000000000000002919091177faccb18165bd6fe31ae1cf318dc5b51eee0e1ba569b88cd74c1773b91fac10669020190505b92915050565b600080600060608486031215610298578283fd5b505081359360208301359350604090920135919050565b9081526020019056fea2646970667358221220c20debbe84f056e6598979e175729eeedc26eb08860804609c8b1bcf531afb6f64736f6c63430008000033",
  "linkReferences": {},
  "deployedLinkReferences": {}
}