{
  "_format": "hh-sol-artifact-1",
  "contractName": "DelegatedStaking",
  "sourceName": "contracts/DelegatedStaking.sol",
  "abi": [
    {
      "anonymous": false,
      "inputs": [
        {
          "indexed": false,
          "internalType": "uint128",
          "name": "amount",
          "type": "uint128"
        }
      ],
      "name": "AllocatedTokensTaken",
      "type": "event"
    },
    {
      "anonymous": false,
      "inputs": [
        {
          "indexed": true,
          "internalType": "uint128",
          "name": "validatorId",
          "type": "uint128"
        },
        {
          "indexed": true,
          "internalType": "address",
          "name": "beneficiary",
          "type": "address"
        },
        {
          "indexed": false,
          "internalType": "uint128",
          "name": "amount",
          "type": "uint128"
        }
      ],
      "name": "CommissionRewardRedeemed",
      "type": "event"
    },
    {
      "anonymous": false,
      "inputs": [
        {
          "indexed": false,
          "internalType": "uint128",
          "name": "newRate",
          "type": "uint128"
        }
      ],
      "name": "EmissionRateChanged",
      "type": "event"
    },
    {
      "anonymous": false,
      "inputs": [
        {
          "indexed": false,
          "internalType": "uint128",
          "name": "minStakedRequired",
          "type": "uint128"
        },
        {
          "indexed": false,
          "internalType": "uint128",
          "name": "validatorCoolDown",
          "type": "uint128"
        },
        {
          "indexed": false,
          "internalType": "uint128",
          "name": "delegatorCoolDown",
          "type": "uint128"
        },
        {
          "indexed": false,
          "internalType": "uint128",
          "name": "maxCapMultiplier",
          "type": "uint128"
        },
        {
          "indexed": false,
          "internalType": "uint128",
          "name": "allocatedTokensPerEpoch",
          "type": "uint128"
        },
        {
          "indexed": false,
          "internalType": "uint128",
          "name": "globalExchangeRate",
          "type": "uint128"
        }
      ],
      "name": "Initialized",
      "type": "event"
    },
    {
      "anonymous": false,
      "inputs": [
        {
          "indexed": false,
          "internalType": "uint8",
          "name": "version",
          "type": "uint8"
        }
      ],
      "name": "Initialized",
      "type": "event"
    },
    {
      "anonymous": false,
      "inputs": [
        {
          "indexed": false,
          "internalType": "uint128",
          "name": "amount",
          "type": "uint128"
        }
      ],
      "name": "MaxCapMultiplierChanged",
      "type": "event"
    },
    {
      "anonymous": false,
      "inputs": [
        {
          "indexed": true,
          "internalType": "address",
          "name": "previousOwner",
          "type": "address"
        },
        {
          "indexed": true,
          "internalType": "address",
          "name": "newOwner",
          "type": "address"
        }
      ],
      "name": "OwnershipTransferred",
      "type": "event"
    },
    {
      "anonymous": false,
      "inputs": [
        {
          "indexed": true,
          "internalType": "uint128",
          "name": "validatorId",
          "type": "uint128"
        },
        {
          "indexed": true,
          "internalType": "address",
          "name": "delegator",
          "type": "address"
        },
        {
          "indexed": false,
          "internalType": "uint128",
          "name": "amount",
          "type": "uint128"
        },
        {
          "indexed": false,
          "internalType": "uint128",
          "name": "unstakingId",
          "type": "uint128"
        }
      ],
      "name": "RecoveredUnstake",
      "type": "event"
    },
    {
      "anonymous": false,
      "inputs": [
        {
          "indexed": true,
          "internalType": "uint128",
          "name": "validatorId",
          "type": "uint128"
        },
        {
          "indexed": true,
          "internalType": "address",
          "name": "beneficiary",
          "type": "address"
        },
        {
          "indexed": false,
          "internalType": "uint128",
          "name": "amount",
          "type": "uint128"
        }
      ],
      "name": "RewardRedeemed",
      "type": "event"
    },
    {
      "anonymous": false,
      "inputs": [
        {
          "indexed": false,
          "internalType": "uint128",
          "name": "amount",
          "type": "uint128"
        }
      ],
      "name": "RewardTokensDeposited",
      "type": "event"
    },
    {
      "anonymous": false,
      "inputs": [
        {
          "indexed": true,
          "internalType": "uint128",
          "name": "validatorId",
          "type": "uint128"
        },
        {
          "indexed": false,
          "internalType": "address",
          "name": "delegator",
          "type": "address"
        },
        {
          "indexed": false,
          "internalType": "uint128",
          "name": "amount",
          "type": "uint128"
        }
      ],
      "name": "Staked",
      "type": "event"
    },
    {
      "anonymous": false,
      "inputs": [
        {
          "indexed": true,
          "internalType": "uint128",
          "name": "oldValidatorId",
          "type": "uint128"
        },
        {
          "indexed": true,
          "internalType": "uint128",
          "name": "newValidatorId",
          "type": "uint128"
        },
        {
          "indexed": true,
          "internalType": "address",
          "name": "delegator",
          "type": "address"
        },
        {
          "indexed": false,
          "internalType": "uint128",
          "name": "amount",
          "type": "uint128"
        },
        {
          "indexed": false,
          "internalType": "uint128",
          "name": "unstakingId",
          "type": "uint128"
        }
      ],
      "name": "TransferredUnstake",
      "type": "event"
    },
    {
      "anonymous": false,
      "inputs": [
        {
          "indexed": true,
          "internalType": "uint128",
          "name": "validatorId",
          "type": "uint128"
        },
        {
          "indexed": true,
          "internalType": "address",
          "name": "delegator",
          "type": "address"
        },
        {
          "indexed": false,
          "internalType": "uint128",
          "name": "amount",
          "type": "uint128"
        }
      ],
      "name": "UnstakeRedeemed",
      "type": "event"
    },
    {
      "anonymous": false,
      "inputs": [
        {
          "indexed": true,
          "internalType": "uint128",
          "name": "validatorId",
          "type": "uint128"
        },
        {
          "indexed": true,
          "internalType": "address",
          "name": "delegator",
          "type": "address"
        },
        {
          "indexed": false,
          "internalType": "uint128",
          "name": "amount",
          "type": "uint128"
        }
      ],
      "name": "Unstaked",
      "type": "event"
    },
    {
      "anonymous": false,
      "inputs": [
        {
          "indexed": true,
          "internalType": "uint128",
          "name": "id",
          "type": "uint128"
        },
        {
          "indexed": true,
          "internalType": "address",
          "name": "validator",
          "type": "address"
        },
        {
          "indexed": true,
          "internalType": "address",
          "name": "operator",
          "type": "address"
        }
      ],
      "name": "ValidatorAdded",
      "type": "event"
    },
    {
      "anonymous": false,
      "inputs": [
        {
          "indexed": true,
          "internalType": "uint128",
          "name": "validatorId",
          "type": "uint128"
        },
        {
          "indexed": false,
          "internalType": "uint128",
          "name": "newRate",
          "type": "uint128"
        }
      ],
      "name": "ValidatorCommissionRateChanged",
      "type": "event"
    },
    {
      "anonymous": false,
      "inputs": [
        {
          "indexed": true,
          "internalType": "uint128",
          "name": "id",
          "type": "uint128"
        }
      ],
      "name": "ValidatorDisabled",
      "type": "event"
    },
    {
      "anonymous": false,
      "inputs": [
        {
          "indexed": false,
          "internalType": "uint128",
          "name": "amount",
          "type": "uint128"
        }
      ],
      "name": "ValidatorMinStakedRequiredChanged",
      "type": "event"
    },
    {
      "inputs": [
        {
          "internalType": "address",
          "name": "validator",
          "type": "address"
        },
        {
          "internalType": "address",
          "name": "operator",
          "type": "address"
        },
        {
          "internalType": "uint128",
          "name": "commissionRate",
          "type": "uint128"
        }
      ],
      "name": "addValidator",
      "outputs": [],
      "stateMutability": "nonpayable",
      "type": "function"
    },
    {
      "inputs": [
        {
          "internalType": "uint128",
          "name": "amount",
          "type": "uint128"
        }
      ],
      "name": "depositRewardTokens",
      "outputs": [],
      "stateMutability": "nonpayable",
      "type": "function"
    },
    {
      "inputs": [
        {
          "internalType": "uint128",
          "name": "validatorId",
          "type": "uint128"
        }
      ],
      "name": "disableValidator",
      "outputs": [],
      "stateMutability": "nonpayable",
      "type": "function"
    },
    {
      "inputs": [
        {
          "internalType": "address",
          "name": "delegator",
          "type": "address"
        }
      ],
      "name": "getDelegatorDetails",
      "outputs": [
        {
          "internalType": "uint128[]",
          "name": "delegated",
          "type": "uint128[]"
        },
        {
          "internalType": "uint128[]",
          "name": "rewardsAvailable",
          "type": "uint128[]"
        },
        {
          "internalType": "uint128[]",
          "name": "commissionRewards",
          "type": "uint128[]"
        }
      ],
      "stateMutability": "view",
      "type": "function"
    },
    {
      "inputs": [],
      "name": "getMetadata",
      "outputs": [
        {
          "internalType": "uint128",
          "name": "",
          "type": "uint128"
        },
        {
          "internalType": "uint128",
          "name": "",
          "type": "uint128"
        },
        {
          "internalType": "uint128",
          "name": "",
          "type": "uint128"
        },
        {
          "internalType": "uint128",
          "name": "",
          "type": "uint128"
        },
        {
          "internalType": "uint128",
          "name": "",
          "type": "uint128"
        }
      ],
      "stateMutability": "view",
      "type": "function"
    },
    {
      "inputs": [],
      "name": "getValidatorsDetails",
      "outputs": [
        {
          "internalType": "uint128[]",
          "name": "commissionRates",
          "type": "uint128[]"
        },
        {
          "internalType": "uint128[]",
          "name": "delegated",
          "type": "uint128[]"
        }
      ],
      "stateMutability": "view",
      "type": "function"
    },
    {
      "inputs": [
        {
          "internalType": "uint128",
          "name": "minStakedRequired",
          "type": "uint128"
        }
      ],
      "name": "initialize",
      "outputs": [],
      "stateMutability": "nonpayable",
      "type": "function"
    },
    {
      "inputs": [],
      "name": "owner",
      "outputs": [
        {
          "internalType": "address",
          "name": "",
          "type": "address"
        }
      ],
      "stateMutability": "view",
      "type": "function"
    },
    {
      "inputs": [
        {
          "internalType": "uint128",
          "name": "amount",
          "type": "uint128"
        },
        {
          "internalType": "uint128",
          "name": "validatorId",
          "type": "uint128"
        },
        {
          "internalType": "uint128",
          "name": "unstakingId",
          "type": "uint128"
        }
      ],
      "name": "recoverUnstaking",
      "outputs": [],
      "stateMutability": "nonpayable",
      "type": "function"
    },
    {
      "inputs": [
        {
          "internalType": "uint128",
          "name": "validatorId",
          "type": "uint128"
        },
        {
          "internalType": "address",
          "name": "beneficiary",
          "type": "address"
        }
      ],
      "name": "redeemAllRewards",
      "outputs": [],
      "stateMutability": "nonpayable",
      "type": "function"
    },
    {
      "inputs": [
        {
          "internalType": "uint128",
          "name": "validatorId",
          "type": "uint128"
        },
        {
          "internalType": "address",
          "name": "beneficiary",
          "type": "address"
        },
        {
          "internalType": "uint128",
          "name": "amount",
          "type": "uint128"
        }
      ],
      "name": "redeemRewards",
      "outputs": [],
      "stateMutability": "nonpayable",
      "type": "function"
    },
    {
      "inputs": [
        {
          "internalType": "uint128",
          "name": "amount",
          "type": "uint128"
        },
        {
          "internalType": "uint128",
          "name": "oldValidatorId",
          "type": "uint128"
        },
        {
          "internalType": "uint128",
          "name": "newValidatorId",
          "type": "uint128"
        },
        {
          "internalType": "uint128",
          "name": "unstakingId",
          "type": "uint128"
        }
      ],
      "name": "redelegateUnstaked",
      "outputs": [],
      "stateMutability": "nonpayable",
      "type": "function"
    },
    {
      "inputs": [],
      "name": "renounceOwnership",
      "outputs": [],
      "stateMutability": "nonpayable",
      "type": "function"
    },
    {
      "inputs": [
        {
          "internalType": "uint128",
          "name": "amount",
          "type": "uint128"
        }
      ],
      "name": "setAllocatedTokensPerEpoch",
      "outputs": [],
      "stateMutability": "nonpayable",
      "type": "function"
    },
    {
      "inputs": [
        {
          "internalType": "uint128",
          "name": "amount",
          "type": "uint128"
        }
      ],
      "name": "setMaxCapMultiplier",
      "outputs": [],
      "stateMutability": "nonpayable",
      "type": "function"
    },
    {
      "inputs": [
        {
          "internalType": "uint128",
          "name": "amount",
          "type": "uint128"
        },
        {
          "internalType": "uint128",
          "name": "validatorId",
          "type": "uint128"
        }
      ],
      "name": "setValidatorCommissionRate",
      "outputs": [],
      "stateMutability": "nonpayable",
      "type": "function"
    },
    {
      "inputs": [
        {
          "internalType": "uint128",
          "name": "amount",
          "type": "uint128"
        }
      ],
      "name": "setValidatorMinStakedRequired",
      "outputs": [],
      "stateMutability": "nonpayable",
      "type": "function"
    },
    {
      "inputs": [
        {
          "internalType": "uint128",
          "name": "validatorId",
          "type": "uint128"
        },
        {
          "internalType": "uint128",
          "name": "amount",
          "type": "uint128"
        }
      ],
      "name": "stake",
      "outputs": [],
      "stateMutability": "nonpayable",
      "type": "function"
    },
    {
      "inputs": [
        {
          "internalType": "uint128",
          "name": "amount",
          "type": "uint128"
        }
      ],
      "name": "takeOutRewardTokens",
      "outputs": [],
      "stateMutability": "nonpayable",
      "type": "function"
    },
    {
      "inputs": [
        {
          "internalType": "address",
          "name": "newOwner",
          "type": "address"
        }
      ],
      "name": "transferOwnership",
      "outputs": [],
      "stateMutability": "nonpayable",
      "type": "function"
    },
    {
      "inputs": [
        {
          "internalType": "uint128",
          "name": "amount",
          "type": "uint128"
        },
        {
          "internalType": "uint128",
          "name": "validatorId",
          "type": "uint128"
        },
        {
          "internalType": "uint128",
          "name": "unstakingId",
          "type": "uint128"
        }
      ],
      "name": "transferUnstakedOut",
      "outputs": [],
      "stateMutability": "nonpayable",
      "type": "function"
    },
    {
      "inputs": [
        {
          "internalType": "uint128",
          "name": "validatorId",
          "type": "uint128"
        },
        {
          "internalType": "uint128",
          "name": "amount",
          "type": "uint128"
        }
      ],
      "name": "unstake",
      "outputs": [],
      "stateMutability": "nonpayable",
      "type": "function"
    }
  ],
  "bytecode": "0x608060405234801561001057600080fd5b50614d9b806100206000396000f3fe608060405234801561001057600080fd5b50600436106101825760003560e01c80636cb4ded3116100d85780638b877db21161008c578063b0f0b82411610066578063b0f0b8241461034f578063f1aa0c6514610362578063f2fde38b1461037557600080fd5b80638b877db2146103015780638da5cb5b14610314578063916094491461033c57600080fd5b80637a5b4f59116100bd5780637a5b4f59146102905780638459ec68146102db578063884ef0aa146102ee57600080fd5b80636cb4ded314610275578063715018a61461028857600080fd5b806340e7e9f01161013a57806347f2d9261161011457806347f2d9261461022d5780634d5f0e841461024f57806356db9ef11461026257600080fd5b806340e7e9f0146101e857806341322c1b146101fb57806342e450791461021a57600080fd5b80632a019e6f1161016b5780632a019e6f146101af57806333bb3aea146101c25780633a64440b146101d557600080fd5b806307fd87631461018757806317c2b0a91461019c575b600080fd5b61019a610195366004614977565b610388565b005b61019a6101aa366004614977565b610398565b61019a6101bd36600461495a565b6104e5565b61019a6101d036600461490e565b610571565b61019a6101e33660046149a0565b610833565b61019a6101f63660046149cb565b610a8b565b610203610db1565b604051610211929190614a86565b60405180910390f35b61019a61022836600461490e565b611034565b61024061023b366004614892565b61124e565b60405161021193929190614ab4565b61019a61025d36600461490e565b6119a8565b61019a61027036600461490e565b611a1b565b61019a61028336600461490e565b611cad565b61019a611da0565b610298611db4565b604080516fffffffffffffffffffffffffffffffff968716815294861660208601529285169284019290925283166060830152909116608082015260a001610211565b61019a6102e9366004614928565b611e49565b61019a6102fc3660046149a0565b611e55565b61019a61030f36600461490e565b61206b565b60335460405173ffffffffffffffffffffffffffffffffffffffff9091168152602001610211565b61019a61034a366004614977565b6123ca565b61019a61035d3660046148ac565b612aad565b61019a61037036600461490e565b612c5c565b61019a610383366004614892565b612eb7565b61039482826001612f6e565b5050565b6103a061362f565b670de0b6b3a7640000826fffffffffffffffffffffffffffffffff1610610428576040517f08c379a000000000000000000000000000000000000000000000000000000000815260206004820152601b60248201527f52617465206d757374206265206c657373207468616e2031303025000000000060448201526064015b60405180910390fd5b6104306136b0565b6fffffffffffffffffffffffffffffffff81166000908152606b6020526040902061045a9061383d565b6fffffffffffffffffffffffffffffffff8181166000818152606b602090815260409182902060020180547fffffffffffffffffffffffffffffffff00000000000000000000000000000000169487169485179055905192835290917f0f8cc456c84d934a2b1eb24d7b56c2304c9e61aed06c7e67aa5167ff06c0bc65910160405180910390a25050565b6000816fffffffffffffffffffffffffffffffff1611610561576040517f08c379a000000000000000000000000000000000000000000000000000000000815260206004820152600b60248201527f416d6f756e742069732030000000000000000000000000000000000000000000604482015260640161041f565b61056c838383613a84565b505050565b61057961362f565b6000816fffffffffffffffffffffffffffffffff16116105f5576040517f08c379a000000000000000000000000000000000000000000000000000000000815260206004820152600b60248201527f416d6f756e742069732030000000000000000000000000000000000000000000604482015260640161041f565b6068546000906fffffffffffffffffffffffffffffffff16156107685761061a6136b0565b6068546000906fffffffffffffffffffffffffffffffff438116911611610642576000610662565b6068546106629043906fffffffffffffffffffffffffffffffff16614c34565b6067549091506000906106889083906fffffffffffffffffffffffffffffffff16614bbf565b905060006106968583614b7c565b90506106a28583614cd8565b93506fffffffffffffffffffffffffffffffff811661071d576040517f08c379a000000000000000000000000000000000000000000000000000000000815260206004820181905260248201527f5468697320616d6f756e742077696c6c20656e64207468652070726f6772616d604482015260640161041f565b606880547fffffffffffffffffffffffffffffffff000000000000000000000000000000001643929092016fffffffffffffffffffffffffffffffff169190911790555061079f9050565b60675461079c90839070010000000000000000000000000000000090046fffffffffffffffffffffffffffffffff16614cd8565b90505b606780547fffffffffffffffffffffffffffffffff00000000000000000000000000000000166fffffffffffffffffffffffffffffffff84169081179091556040519081527ffb3d9984fbf5e8b1bd1c813e9b3b150d7ca19b38139d9ec25222c2d6f3dc006b9060200160405180910390a16fffffffffffffffffffffffffffffffff811615610394576103943382614167565b6fffffffffffffffffffffffffffffffff8083166000908152606b6020908152604080832033845260070190915281208054919290919084169081106108a2577f4e487b7100000000000000000000000000000000000000000000000000000000600052603260045260246000fd5b600091825260209091200180549091506fffffffffffffffffffffffffffffffff9081164390911611610931576040517f08c379a000000000000000000000000000000000000000000000000000000000815260206004820152601d60248201527f436f6f6c646f776e20706572696f6420686173206e6f7420656e646564000000604482015260640161041f565b80546fffffffffffffffffffffffffffffffff8086167001000000000000000000000000000000009092041610156109c5576040517f08c379a000000000000000000000000000000000000000000000000000000000815260206004820152601260248201527f416d6f756e7420697320746f6f20686967680000000000000000000000000000604482015260640161041f565b6109cf3385614167565b80546fffffffffffffffffffffffffffffffff80821670010000000000000000000000000000000092839004821687900382168302178084559190910416610a385780547fffffffffffffffffffffffffffffffff000000000000000000000000000000001681555b6040516fffffffffffffffffffffffffffffffff85811682523391908516907fcc3831faf8ad2fa485ccdcbda5395205ac872caaafa8d6bb70d38bed3c97705a906020015b60405180910390a350505050565b6fffffffffffffffffffffffffffffffff8084166000908152606b6020526040902060020154700100000000000000000000000000000000900416610b2c576040517f08c379a000000000000000000000000000000000000000000000000000000000815260206004820152601960248201527f56616c696461746f72206973206e6f742064697361626c656400000000000000604482015260640161041f565b6fffffffffffffffffffffffffffffffff83166000908152606b602052604090205473ffffffffffffffffffffffffffffffffffffffff16331415610bcd576040517f08c379a000000000000000000000000000000000000000000000000000000000815260206004820152601b60248201527f56616c696461746f722063616e6e6f7420726564656c65676174650000000000604482015260640161041f565b6fffffffffffffffffffffffffffffffff8084166000908152606b602090815260408083203384526007019091528120805491929091908416908110610c3c577f4e487b7100000000000000000000000000000000000000000000000000000000600052603260045260246000fd5b600091825260209091200180549091506fffffffffffffffffffffffffffffffff808716700100000000000000000000000000000000909204161015610cde576040517f08c379a000000000000000000000000000000000000000000000000000000000815260206004820152601960248201527f556e7374616b696e6720686173206c65737320746f6b656e7300000000000000604482015260640161041f565b610cea83866000612f6e565b80546fffffffffffffffffffffffffffffffff80821670010000000000000000000000000000000092839004821688900382168302178084559190910416610d535780547fffffffffffffffffffffffffffffffff000000000000000000000000000000001681555b604080516fffffffffffffffffffffffffffffffff87811682528481166020830152339281871692918816917fdb209e7e3dcb1031673c39d14dd7278593d5e8904ab101532597e9f6d3f87bf9910160405180910390a45050505050565b606a5460609081906fffffffffffffffffffffffffffffffff1667ffffffffffffffff811115610e0a577f4e487b7100000000000000000000000000000000000000000000000000000000600052604160045260246000fd5b604051908082528060200260200182016040528015610e33578160200160208202803683370190505b50606a549092506fffffffffffffffffffffffffffffffff1667ffffffffffffffff811115610e8b577f4e487b7100000000000000000000000000000000000000000000000000000000600052604160045260246000fd5b604051908082528060200260200182016040528015610eb4578160200160208202803683370190505b50905060005b606a546fffffffffffffffffffffffffffffffff908116908216101561102f576fffffffffffffffffffffffffffffffff8082166000818152606b60205260409020600281015486519193169186918110610f3e577f4e487b7100000000000000000000000000000000000000000000000000000000600052603260045260246000fd5b6fffffffffffffffffffffffffffffffff928316602091820292909201810191909152825473ffffffffffffffffffffffffffffffffffffffff1660009081526006840190915260409020546004830154610fb2929182169170010000000000000000000000000000000090910416614c34565b83836fffffffffffffffffffffffffffffffff1681518110610ffd577f4e487b7100000000000000000000000000000000000000000000000000000000600052603260045260246000fd5b6fffffffffffffffffffffffffffffffff909216602092830291909101909101525061102881614ca8565b9050610eba565b509091565b6fffffffffffffffffffffffffffffffff8082166000908152606b602052604090206002810154909170010000000000000000000000000000000090910416156110da576040517f08c379a000000000000000000000000000000000000000000000000000000000815260206004820152601d60248201527f56616c696461746f7220697320616c72656164792064697361626c6564000000604482015260640161041f565b805473ffffffffffffffffffffffffffffffffffffffff16331480611116575060335473ffffffffffffffffffffffffffffffffffffffff1633145b61117c576040517f08c379a000000000000000000000000000000000000000000000000000000000815260206004820181905260248201527f43616c6c6572206973206e6f74206f776e6572206f722076616c696461746f72604482015260640161041f565b6111846136b0565b61118d8161383d565b6068546fffffffffffffffffffffffffffffffff90811643909116106111c7576068546fffffffffffffffffffffffffffffffff166111c9565b435b6002820180546fffffffffffffffffffffffffffffffff90811670010000000000000000000000000000000093821684021790915560038301546068805480841692841690859004841603831690930217909155604051908316907ff97fbe9a37a2eae093c44e9bbcd9afde23ba64215e8fd80b9c49b1fbd4d58e5490600090a25050565b606a54606090819081906fffffffffffffffffffffffffffffffff1667ffffffffffffffff8111156112a9577f4e487b7100000000000000000000000000000000000000000000000000000000600052604160045260246000fd5b6040519080825280602002602001820160405280156112d2578160200160208202803683370190505b50606a549093506fffffffffffffffffffffffffffffffff1667ffffffffffffffff81111561132a577f4e487b7100000000000000000000000000000000000000000000000000000000600052604160045260246000fd5b604051908082528060200260200182016040528015611353578160200160208202803683370190505b50606a549092506fffffffffffffffffffffffffffffffff1667ffffffffffffffff8111156113ab577f4e487b7100000000000000000000000000000000000000000000000000000000600052604160045260246000fd5b6040519080825280602002602001820160405280156113d4578160200160208202803683370190505b506068549091506000906fffffffffffffffffffffffffffffffff164310611410576068546fffffffffffffffffffffffffffffffff16611412565b435b6069549091506000906fffffffffffffffffffffffffffffffff700100000000000000000000000000000000820481169161144e911684614c65565b6068546067546fffffffffffffffffffffffffffffffff70010000000000000000000000000000000090920482169161149191670de0b6b3a76400009116614bf7565b61149b9190614bab565b6114a59190614bf7565b6114af9190614b48565b905060008060005b606a546fffffffffffffffffffffffffffffffff908116908216101561199c576fffffffffffffffffffffffffffffffff8082166000818152606b6020908152604080832073ffffffffffffffffffffffffffffffffffffffff8f1684526006810190925290912080548c51929750909550909216918a91908110611565577f4e487b7100000000000000000000000000000000000000000000000000000000600052603260045260246000fd5b6fffffffffffffffffffffffffffffffff928316602091820292909201015260028401547001000000000000000000000000000000009004166118175760038301546000906115e8906fffffffffffffffffffffffffffffffff808216916115e3917001000000000000000000000000000000009091041688614c34565b614198565b6002850154909150600090670de0b6b3a76400009061161d906fffffffffffffffffffffffffffffffff908116908516614bf7565b6116279190614bab565b60048601549091506000906fffffffffffffffffffffffffffffffff16670de0b6b3a76400006116578486614c34565b6fffffffffffffffffffffffffffffffff166116739190614bf7565b61167d9190614bab565b855460058801549192506fffffffffffffffffffffffffffffffff808216926116c39270010000000000000000000000000000000090048216916115e391869116614b48565b6116cd9190614c34565b8a856fffffffffffffffffffffffffffffffff1681518110611718577f4e487b7100000000000000000000000000000000000000000000000000000000600052603260045260246000fd5b6fffffffffffffffffffffffffffffffff90921660209283029190910190910152855473ffffffffffffffffffffffffffffffffffffffff8d81169116141561180f57600586015461179190839070010000000000000000000000000000000090046fffffffffffffffffffffffffffffffff16614b48565b89856fffffffffffffffffffffffffffffffff16815181106117dc577f4e487b7100000000000000000000000000000000000000000000000000000000600052603260045260246000fd5b60200260200101906fffffffffffffffffffffffffffffffff1690816fffffffffffffffffffffffffffffffff16815250505b50505061198c565b815460058401546fffffffffffffffffffffffffffffffff808316926118559270010000000000000000000000000000000090910482169116614198565b61185f9190614c34565b87826fffffffffffffffffffffffffffffffff16815181106118aa577f4e487b7100000000000000000000000000000000000000000000000000000000600052603260045260246000fd5b6fffffffffffffffffffffffffffffffff90921660209283029190910190910152825473ffffffffffffffffffffffffffffffffffffffff8a81169116141561198c578260050160109054906101000a90046fffffffffffffffffffffffffffffffff1686826fffffffffffffffffffffffffffffffff1681518110611959577f4e487b7100000000000000000000000000000000000000000000000000000000600052603260045260246000fd5b60200260200101906fffffffffffffffffffffffffffffffff1690816fffffffffffffffffffffffffffffffff16815250505b61199581614ca8565b90506114b7565b50505050509193909250565b6119b061362f565b606680546fffffffffffffffffffffffffffffffff908116700100000000000000000000000000000000918416918202179091556040519081527f512ec0e094095380d72ed82a9e0bd4b3936bdf65bc3544cba2190589ce0fe7c9906020015b60405180910390a150565b600054610100900460ff1615808015611a3b5750600054600160ff909116105b80611a555750303b158015611a55575060005460ff166001145b611ae1576040517f08c379a000000000000000000000000000000000000000000000000000000000815260206004820152602e60248201527f496e697469616c697a61626c653a20636f6e747261637420697320616c72656160448201527f647920696e697469616c697a6564000000000000000000000000000000000000606482015260840161041f565b600080547fffffffffffffffffffffffffffffffffffffffffffffffffffffffffffffff001660011790558015611b3f57600080547fffffffffffffffffffffffffffffffffffffffffffffffffffffffffffff00ff166101001790555b611b476141d3565b7202d6e8000000000000000000000000001240f8606555600a7fffffffffffffffffffffffffffffffff000000000000000000000000000000007001000000000000000000000000000000006fffffffffffffffffffffffffffffffff8581168281028416851760665560678054670de0b6b3a7640000951685179055606980548316770de0b6b3a764000000000000000000000000000000000000179081905560408051928352621240f860208401526202d6e89083015260608201959095526080810193909352920490911660a08201527fc14f791e91115bffacba233b6a4dd8304a8d2fa5c5aaf209cb3b3385e98e68ce9060c00160405180910390a1801561039457600080547fffffffffffffffffffffffffffffffffffffffffffffffffffffffffffff00ff169055604051600181527f7f26b83ff96e1f2b6a682f133852f6798a09c465da95921460cefb38474024989060200160405180910390a15050565b611cb561362f565b6000816fffffffffffffffffffffffffffffffff1611611d31576040517f08c379a000000000000000000000000000000000000000000000000000000000815260206004820152601660248201527f4d7573742062652067726561746572207468616e203000000000000000000000604482015260640161041f565b606680547fffffffffffffffffffffffffffffffff00000000000000000000000000000000166fffffffffffffffffffffffffffffffff83169081179091556040519081527fbe85ebc47051eb40cf466cba324b4ceee119941ef0101ec0123999a5b679409990602001611a10565b611da861362f565b611db26000614272565b565b60695460685460009182918291829182918291670de0b6b3a764000091611e08916fffffffffffffffffffffffffffffffff7001000000000000000000000000000000009283900481169290910416614bf7565b611e129190614bab565b606754606854606654606a546fffffffffffffffffffffffffffffffff9384169b9284169a50908316985092965091169350915050565b61039482826000613a84565b6fffffffffffffffffffffffffffffffff8083166000908152606b602090815260408083203384526007019091528120805491929091908416908110611ec4577f4e487b7100000000000000000000000000000000000000000000000000000000600052603260045260246000fd5b600091825260209091200180549091506fffffffffffffffffffffffffffffffff808616700100000000000000000000000000000000909204161015611f66576040517f08c379a000000000000000000000000000000000000000000000000000000000815260206004820152601960248201527f556e7374616b696e6720686173206c65737320746f6b656e7300000000000000604482015260640161041f565b611f7283856000612f6e565b805484908290601090611fac90849070010000000000000000000000000000000090046fffffffffffffffffffffffffffffffff16614c34565b82546101009290920a6fffffffffffffffffffffffffffffffff81810219909316918316021790915582547001000000000000000000000000000000009004161515905061201b5780547fffffffffffffffffffffffffffffffff000000000000000000000000000000001681555b604080516fffffffffffffffffffffffffffffffff868116825284811660208301523392908616917ff9087cb83487275bb1784df2905fb9038a38f2423637cba5910e5e638147b5469101610a7d565b61207361362f565b6000816fffffffffffffffffffffffffffffffff16116120ef576040517f08c379a000000000000000000000000000000000000000000000000000000000815260206004820152600b60248201527f416d6f756e742069732030000000000000000000000000000000000000000000604482015260640161041f565b60675461210e906fffffffffffffffffffffffffffffffff1682614cd8565b6fffffffffffffffffffffffffffffffff1615612187576040517f08c379a000000000000000000000000000000000000000000000000000000000815260206004820152600c60248201527f4e6f74206d756c7469706c650000000000000000000000000000000000000000604482015260640161041f565b6068546fffffffffffffffffffffffffffffffff16156122b15760675443906000906121c5906fffffffffffffffffffffffffffffffff1684614b7c565b6068549091506fffffffffffffffffffffffffffffffff808416916121ec91849116614c34565b6fffffffffffffffffffffffffffffffff1611612265576040517f08c379a000000000000000000000000000000000000000000000000000000000815260206004820181905260248201527f43616e6e6f742074616b656f757420726577617264732066726f6d2070617374604482015260640161041f565b606880547fffffffffffffffffffffffffffffffff0000000000000000000000000000000081166fffffffffffffffffffffffffffffffff91821693909303169190911790555061237e565b6067546fffffffffffffffffffffffffffffffff808316700100000000000000000000000000000000909204161015612346576040517f08c379a000000000000000000000000000000000000000000000000000000000815260206004820181905260248201527f416d6f756e742069732067726561746572207468616e20617661696c61626c65604482015260640161041f565b606780546fffffffffffffffffffffffffffffffff700100000000000000000000000000000000808304821685900382160291161790555b6123883382614167565b6040516fffffffffffffffffffffffffffffffff821681527fb377d2221ae3ae0038f8a2593ce854d79cc6d598036b3acb67a2bed08557ee2e90602001611a10565b606a546fffffffffffffffffffffffffffffffff9081169083161061244b576040517f08c379a000000000000000000000000000000000000000000000000000000000815260206004820152601160248201527f496e76616c69642076616c696461746f72000000000000000000000000000000604482015260640161041f565b6fffffffffffffffffffffffffffffffff8083166000908152606b6020908152604080832033845260068101909252909120805491929091848216911610156124f0576040517f08c379a000000000000000000000000000000000000000000000000000000000815260206004820152601860248201527f5374616b6564203c20616d6f756e742070726f76696465640000000000000000604482015260640161041f565b815473ffffffffffffffffffffffffffffffffffffffff1633146125126136b0565b61251b8361383d565b60058301546000906125409086906fffffffffffffffffffffffffffffffff166142e9565b90506000816fffffffffffffffffffffffffffffffff16116125be576040517f08c379a000000000000000000000000000000000000000000000000000000000815260206004820152601b60248201527f556e7374616b6520616d6f756e7420697320746f6f20736d616c6c0000000000604482015260640161041f565b600284015470010000000000000000000000000000000090046fffffffffffffffffffffffffffffffff166129045781801561260f5750606854436fffffffffffffffffffffffffffffffff909116115b156127c55782546000906126369087906fffffffffffffffffffffffffffffffff16614c34565b60665490915060009061265b906fffffffffffffffffffffffffffffffff1683614bbf565b8554600488015491925060009161269b916fffffffffffffffffffffffffffffffff90811691700100000000000000000000000000000000900416614c34565b9050816fffffffffffffffffffffffffffffffff16816fffffffffffffffffffffffffffffffff16111561272b576040517f08c379a000000000000000000000000000000000000000000000000000000000815260206004820152601d60248201527f43616e6e6f7420756e7374616b65206265796f6e64206d617820636170000000604482015260640161041f565b6066546fffffffffffffffffffffffffffffffff700100000000000000000000000000000000909104811690841610156127c1576040517f08c379a000000000000000000000000000000000000000000000000000000000815260206004820152601d60248201527f556e7374616b65203e206d696e207374616b6564207265717569726564000000604482015260640161041f565b5050505b60006127ef86606960109054906101000a90046fffffffffffffffffffffffffffffffff166142e9565b90506000816fffffffffffffffffffffffffffffffff161161286d576040517f08c379a000000000000000000000000000000000000000000000000000000000815260206004820152601b60248201527f556e7374616b6520616d6f756e7420697320746f6f20736d616c6c0000000000604482015260640161041f565b606880546fffffffffffffffffffffffffffffffff700100000000000000000000000000000000808304821685900382168102928216929092179092556003870180548084169490940383167fffffffffffffffffffffffffffffffff0000000000000000000000000000000094851617905560048701805480841686900384169416841782900483168990039092160290911790555b82546fffffffffffffffffffffffffffffffff7001000000000000000000000000000000008083048216849003821681028083169383169390931788900382167fffffffffffffffffffffffffffffffff0000000000000000000000000000000093909316929092178555600286015460009290041661298457436129b0565b600285015470010000000000000000000000000000000090046fffffffffffffffffffffffffffffffff165b9050826129e55760655470010000000000000000000000000000000090046fffffffffffffffffffffffffffffffff166129fb565b6065546fffffffffffffffffffffffffffffffff165b3360008181526007880160209081526040808320815180830183526fffffffffffffffffffffffffffffffff9690970186811688528c8716888501818152835460018101855593875295859020985195518816700100000000000000000000000000000000029588169590951797909101969096555191825291928a16917fac341c36c62696149aa1ffae3ebbe2ba6e165d9d5e7e3ea8ee8a9a426b5f9ee0910160405180910390a350505050505050565b612ab561362f565b670de0b6b3a7640000816fffffffffffffffffffffffffffffffff1610612b38576040517f08c379a000000000000000000000000000000000000000000000000000000000815260206004820152601b60248201527f52617465206d757374206265206c657373207468616e20313030250000000000604482015260640161041f565b606a546fffffffffffffffffffffffffffffffff9081166000818152606b602052604080822080547fffffffffffffffffffffffff000000000000000000000000000000000000000090811673ffffffffffffffffffffffffffffffffffffffff8a81169182178455600184018054909316908a16908117909255600290920180547fffffffffffffffffffffffffffffffff0000000000000000000000000000000016968816969096179095559051929392909184917fdcc44d6e4fba97feb958f8b10b2669187dad8512c6fe2455f07880c65ec2db239190a45050606a80546fffffffffffffffffffffffffffffffff808216600101167fffffffffffffffffffffffffffffffff000000000000000000000000000000009091161790555050565b612c6461362f565b6067546fffffffffffffffffffffffffffffffff9081169082161015612ce6576040517f08c379a000000000000000000000000000000000000000000000000000000000815260206004820152601c60248201527f446f6573206e6f7420636f766572206c6561737420312065706f636800000000604482015260640161041f565b606754612d05906fffffffffffffffffffffffffffffffff1682614cd8565b6fffffffffffffffffffffffffffffffff1615612d7e576040517f08c379a000000000000000000000000000000000000000000000000000000000815260206004820152600c60248201527f4e6f74206d756c7469706c650000000000000000000000000000000000000000604482015260640161041f565b6068546fffffffffffffffffffffffffffffffff1615612e34576067546fffffffffffffffffffffffffffffffff90811690821681612de6577f4e487b7100000000000000000000000000000000000000000000000000000000600052601260045260246000fd5b606880547fffffffffffffffffffffffffffffffff000000000000000000000000000000008116939092046fffffffffffffffffffffffffffffffff92831601909116919091179055612e6b565b606780546fffffffffffffffffffffffffffffffff7001000000000000000000000000000000008083048216850182160291161790555b612e753382614324565b6040516fffffffffffffffffffffffffffffffff821681527f2db5044922a44e715fdfd31c569712694c5956bbd41e06011f1c8ed339f5ff8f90602001611a10565b612ebf61362f565b73ffffffffffffffffffffffffffffffffffffffff8116612f62576040517f08c379a000000000000000000000000000000000000000000000000000000000815260206004820152602660248201527f4f776e61626c653a206e6577206f776e657220697320746865207a65726f206160448201527f6464726573730000000000000000000000000000000000000000000000000000606482015260840161041f565b612f6b81614272565b50565b670de0b6b3a7640000826fffffffffffffffffffffffffffffffff161015612ff2576040517f08c379a000000000000000000000000000000000000000000000000000000000815260206004820152601f60248201527f416d6f756e74206d757374206265206174206c65617374203120746f6b656e00604482015260640161041f565b606a546fffffffffffffffffffffffffffffffff90811690841610613073576040517f08c379a000000000000000000000000000000000000000000000000000000000815260206004820152601160248201527f496e76616c69642076616c696461746f72000000000000000000000000000000604482015260640161041f565b6fffffffffffffffffffffffffffffffff8084166000908152606b60205260409020600281015490917001000000000000000000000000000000009091041615613119576040517f08c379a000000000000000000000000000000000000000000000000000000000815260206004820152601560248201527f56616c696461746f722069732064697361626c65640000000000000000000000604482015260640161041f565b6068546fffffffffffffffffffffffffffffffff166131e3576067546fffffffffffffffffffffffffffffffff8082169170010000000000000000000000000000000090041681613193577f4e487b7100000000000000000000000000000000000000000000000000000000600052601260045260246000fd5b606880547fffffffffffffffffffffffffffffffff00000000000000000000000000000000169290910443016fffffffffffffffffffffffffffffffff9081169290921790556067805490911690555b606854436fffffffffffffffffffffffffffffffff90911611613262576040517f08c379a000000000000000000000000000000000000000000000000000000000815260206004820152600d60248201527f50726f6772616d20656e64656400000000000000000000000000000000000000604482015260640161041f565b61326a6136b0565b6132738161383d565b805473ffffffffffffffffffffffffffffffffffffffff1633141561335a576066543360009081526006830160205260409020546fffffffffffffffffffffffffffffffff7001000000000000000000000000000000009092048216916132db911685614b48565b6fffffffffffffffffffffffffffffffff161015613355576040517f08c379a000000000000000000000000000000000000000000000000000000000815260206004820152601c60248201527f416d6f756e74203c206d696e207374616b656420726571756972656400000000604482015260640161041f565b613476565b805473ffffffffffffffffffffffffffffffffffffffff1660009081526006820160205260408120546066546fffffffffffffffffffffffffffffffff91821692916133a7911683614bbf565b9050600085838560040160109054906101000a90046fffffffffffffffffffffffffffffffff166133d89190614c34565b6133e29190614b48565b9050816fffffffffffffffffffffffffffffffff16816fffffffffffffffffffffffffffffffff161115613472576040517f08c379a000000000000000000000000000000000000000000000000000000000815260206004820152601f60248201527f56616c696461746f72206d617820636170616369747920657863656564656400604482015260640161041f565b5050505b8115613486576134863384614324565b33600090815260068201602052604081206069549091906134ce90869070010000000000000000000000000000000090046fffffffffffffffffffffffffffffffff166142e9565b606880546fffffffffffffffffffffffffffffffff7001000000000000000000000000000000008083048216850182160291811691909117909155600385018054808316840183167fffffffffffffffffffffffffffffffff00000000000000000000000000000000919091161790556005850154919250600091613555918891166142e9565b6004850180546fffffffffffffffffffffffffffffffff808216840181167fffffffffffffffffffffffffffffffff0000000000000000000000000000000092831617835586547001000000000000000000000000000000008082048316860183168102918316919091178855835481810483168c0183169091029082161790925585548083168a0183169116178555604080513381528983166020820152929350908916917fc833924412a8727ace4d92945c637ad2d4b389e582bfd4a95cdee608eee9720a910160405180910390a250505050505050565b60335473ffffffffffffffffffffffffffffffffffffffff163314611db2576040517f08c379a000000000000000000000000000000000000000000000000000000000815260206004820181905260248201527f4f776e61626c653a2063616c6c6572206973206e6f7420746865206f776e6572604482015260640161041f565b60685443906000906fffffffffffffffffffffffffffffffff908116908316106136ee576068546fffffffffffffffffffffffffffffffff166136f0565b815b6069549091506fffffffffffffffffffffffffffffffff8083169116146103945760685470010000000000000000000000000000000090046fffffffffffffffffffffffffffffffff16156137fb576068546069546067546fffffffffffffffffffffffffffffffff70010000000000000000000000000000000090930483169290811691811684031602670de0b6b3a764000002816137b9577f4e487b7100000000000000000000000000000000000000000000000000000000600052601260045260246000fd5b606980546fffffffffffffffffffffffffffffffff80821694909304700100000000000000000000000000000000918290048416019092169091029190911790555b606980546fffffffffffffffffffffffffffffffff83167fffffffffffffffffffffffffffffffff000000000000000000000000000000009091161790555050565b600281015470010000000000000000000000000000000090046fffffffffffffffffffffffffffffffff16612f6b5760048101546fffffffffffffffffffffffffffffffff166138e6576069546005820180547001000000000000000000000000000000009092046fffffffffffffffffffffffffffffffff167fffffffffffffffffffffffffffffffff00000000000000000000000000000000909216919091179055613a44565b60038101546069546fffffffffffffffffffffffffffffffff700100000000000000000000000000000000808404821692048116919091039160009161392d911683614198565b6002840154909150600090670de0b6b3a764000090613962906fffffffffffffffffffffffffffffffff908116908516614bf7565b61396c9190614bab565b60048501549091506fffffffffffffffffffffffffffffffff16670de0b6b3a76400006139998385614c34565b6fffffffffffffffffffffffffffffffff166139b59190614bf7565b6139bf9190614bab565b6005850180546000906139e59084906fffffffffffffffffffffffffffffffff16614b48565b82546101009290920a6fffffffffffffffffffffffffffffffff81810219909316918316021790915560058601805480831670010000000000000000000000000000000091829004841695909501909216909102929092179091555050505b6069546003820180546fffffffffffffffffffffffffffffffff700100000000000000000000000000000000938490048116909302921691909117905550565b73ffffffffffffffffffffffffffffffffffffffff8216613b01576040517f08c379a000000000000000000000000000000000000000000000000000000000815260206004820152601360248201527f496e76616c69642062656e656669636961727900000000000000000000000000604482015260640161041f565b613b096136b0565b6fffffffffffffffffffffffffffffffff83166000908152606b60205260409020613b338161383d565b3360009081526006820160205260408120805460058401549192916fffffffffffffffffffffffffffffffff80831692613b859270010000000000000000000000000000000090910482169116614198565b613b8f9190614c34565b835490915073ffffffffffffffffffffffffffffffffffffffff16331415613edd576fffffffffffffffffffffffffffffffff8416613bf857600583015470010000000000000000000000000000000090046fffffffffffffffffffffffffffffffff16810193505b60058301546fffffffffffffffffffffffffffffffff80861691613c32917001000000000000000000000000000000009091041683614b48565b6fffffffffffffffffffffffffffffffff161015613cac576040517f08c379a000000000000000000000000000000000000000000000000000000000815260206004820152601960248201527f52656465656d20616d6f756e74203e20617661696c61626c6500000000000000604482015260640161041f565b60058301546000906fffffffffffffffffffffffffffffffff700100000000000000000000000000000000909104811690861610613ceb576000613d21565b6005840154613d2190869070010000000000000000000000000000000090046fffffffffffffffffffffffffffffffff16614c34565b90506fffffffffffffffffffffffffffffffff8116613e08576005840154600090613d9290613d769070010000000000000000000000000000000090046fffffffffffffffffffffffffffffffff1688614c34565b60058701546fffffffffffffffffffffffffffffffff166142e9565b84546fffffffffffffffffffffffffffffffff7001000000000000000000000000000000008083048216849003821602918116919091178655600487018054808316939093039091167fffffffffffffffffffffffffffffffff0000000000000000000000000000000092909216919091179055505b8573ffffffffffffffffffffffffffffffffffffffff16876fffffffffffffffffffffffffffffffff167fca484c45ad2d2422ff409731d1783446054a9a6549f63f4e668f85d03513624c838760050160109054906101000a90046fffffffffffffffffffffffffffffffff16613e7f9190614c34565b6040516fffffffffffffffffffffffffffffffff909116815260200160405180910390a36005840180546fffffffffffffffffffffffffffffffff928316700100000000000000000000000000000000029216919091179055614021565b6fffffffffffffffffffffffffffffffff8416613ef8578093505b836fffffffffffffffffffffffffffffffff16816fffffffffffffffffffffffffffffffff161015613f86576040517f08c379a000000000000000000000000000000000000000000000000000000000815260206004820152601960248201527f52656465656d20616d6f756e74203e20617661696c61626c6500000000000000604482015260640161041f565b6005830154600090613fab9086906fffffffffffffffffffffffffffffffff166142e9565b83546fffffffffffffffffffffffffffffffff7001000000000000000000000000000000008083048216849003821602918116919091178555600486018054808316939093039091167fffffffffffffffffffffffffffffffff0000000000000000000000000000000092909216919091179055505b61402b8585614167565b600283015470010000000000000000000000000000000090046fffffffffffffffffffffffffffffffff166140fd57600061408485606960109054906101000a90046fffffffffffffffffffffffffffffffff166142e9565b606880546fffffffffffffffffffffffffffffffff700100000000000000000000000000000000808304821685900382160291811691909117909155600386018054808316939093039091167fffffffffffffffffffffffffffffffff0000000000000000000000000000000092909216919091179055505b6040516fffffffffffffffffffffffffffffffff858116825273ffffffffffffffffffffffffffffffffffffffff871691908816907fbf3f2aa111a63b63567f864e18723c486b9276b75fdadebb83f62cd228263e0c9060200160405180910390a3505050505050565b61039473d417144312dbf50465b1c641d016962017ef6240836fffffffffffffffffffffffffffffffff8416614356565b6000670de0b6b3a76400006141c26fffffffffffffffffffffffffffffffff808516908616614bf7565b6141cc9190614bab565b9392505050565b600054610100900460ff1661426a576040517f08c379a000000000000000000000000000000000000000000000000000000000815260206004820152602b60248201527f496e697469616c697a61626c653a20636f6e7472616374206973206e6f74206960448201527f6e697469616c697a696e67000000000000000000000000000000000000000000606482015260840161041f565b611db261442a565b6033805473ffffffffffffffffffffffffffffffffffffffff8381167fffffffffffffffffffffffff0000000000000000000000000000000000000000831681179093556040519116919082907f8be0079c531659141344cd1fd0a4f28419497f9722a3daafe3b4186f6b6457e090600090a35050565b6000816fffffffffffffffffffffffffffffffff16670de0b6b3a7640000846fffffffffffffffffffffffffffffffff166141c29190614bf7565b61039473d417144312dbf50465b1c641d016962017ef624083306fffffffffffffffffffffffffffffffff85166144ca565b60405173ffffffffffffffffffffffffffffffffffffffff831660248201526044810182905261056c9084907fa9059cbb00000000000000000000000000000000000000000000000000000000906064015b604080517fffffffffffffffffffffffffffffffffffffffffffffffffffffffffffffffe08184030181529190526020810180517bffffffffffffffffffffffffffffffffffffffffffffffffffffffff167fffffffff000000000000000000000000000000000000000000000000000000009093169290921790915261452e565b600054610100900460ff166144c1576040517f08c379a000000000000000000000000000000000000000000000000000000000815260206004820152602b60248201527f496e697469616c697a61626c653a20636f6e7472616374206973206e6f74206960448201527f6e697469616c697a696e67000000000000000000000000000000000000000000606482015260840161041f565b611db233614272565b60405173ffffffffffffffffffffffffffffffffffffffff808516602483015283166044820152606481018290526145289085907f23b872dd00000000000000000000000000000000000000000000000000000000906084016143a8565b50505050565b6000614590826040518060400160405280602081526020017f5361666545524332303a206c6f772d6c6576656c2063616c6c206661696c65648152508573ffffffffffffffffffffffffffffffffffffffff1661463d9092919063ffffffff16565b90508051600014806145b15750808060200190518101906145b191906148ee565b61056c576040517f08c379a000000000000000000000000000000000000000000000000000000000815260206004820152602a60248201527f5361666545524332303a204552433230206f7065726174696f6e20646964206e60448201527f6f74207375636365656400000000000000000000000000000000000000000000606482015260840161041f565b606061464c8484600085614654565b949350505050565b6060824710156146e6576040517f08c379a000000000000000000000000000000000000000000000000000000000815260206004820152602660248201527f416464726573733a20696e73756666696369656e742062616c616e636520666f60448201527f722063616c6c0000000000000000000000000000000000000000000000000000606482015260840161041f565b6000808673ffffffffffffffffffffffffffffffffffffffff16858760405161470f9190614a6a565b60006040518083038185875af1925050503d806000811461474c576040519150601f19603f3d011682016040523d82523d6000602084013e614751565b606091505b50915091506147628783838761476d565b979650505050505050565b606083156148005782516147f95773ffffffffffffffffffffffffffffffffffffffff85163b6147f9576040517f08c379a000000000000000000000000000000000000000000000000000000000815260206004820152601d60248201527f416464726573733a2063616c6c20746f206e6f6e2d636f6e7472616374000000604482015260640161041f565b508161464c565b61464c83838151156148155781518083602001fd5b806040517f08c379a000000000000000000000000000000000000000000000000000000000815260040161041f9190614af7565b803573ffffffffffffffffffffffffffffffffffffffff8116811461486d57600080fd5b919050565b80356fffffffffffffffffffffffffffffffff8116811461486d57600080fd5b6000602082840312156148a3578081fd5b6141cc82614849565b6000806000606084860312156148c0578182fd5b6148c984614849565b92506148d760208501614849565b91506148e560408501614872565b90509250925092565b6000602082840312156148ff578081fd5b815180151581146141cc578182fd5b60006020828403121561491f578081fd5b6141cc82614872565b6000806040838503121561493a578182fd5b61494383614872565b915061495160208401614849565b90509250929050565b60008060006060848603121561496e578283fd5b6148c984614872565b60008060408385031215614989578182fd5b61499283614872565b915061495160208401614872565b6000806000606084860312156149b4578283fd5b6149bd84614872565b92506148d760208501614872565b600080600080608085870312156149e0578081fd5b6149e985614872565b93506149f760208601614872565b9250614a0560408601614872565b9150614a1360608601614872565b905092959194509250565b6000815180845260208085019450808401835b83811015614a5f5781516fffffffffffffffffffffffffffffffff1687529582019590820190600101614a31565b509495945050505050565b60008251614a7c818460208701614c7c565b9190910192915050565b604081526000614a996040830185614a1e565b8281036020840152614aab8185614a1e565b95945050505050565b606081526000614ac76060830186614a1e565b8281036020840152614ad98186614a1e565b90508281036040840152614aed8185614a1e565b9695505050505050565b6020815260008251806020840152614b16816040850160208701614c7c565b601f017fffffffffffffffffffffffffffffffffffffffffffffffffffffffffffffffe0169190910160400192915050565b60006fffffffffffffffffffffffffffffffff808316818516808303821115614b7357614b73614d07565b01949350505050565b60006fffffffffffffffffffffffffffffffff80841680614b9f57614b9f614d36565b92169190910492915050565b600082614bba57614bba614d36565b500490565b60006fffffffffffffffffffffffffffffffff80831681851681830481118215151615614bee57614bee614d07565b02949350505050565b6000817fffffffffffffffffffffffffffffffffffffffffffffffffffffffffffffffff0483118215151615614c2f57614c2f614d07565b500290565b60006fffffffffffffffffffffffffffffffff83811690831681811015614c5d57614c5d614d07565b039392505050565b600082821015614c7757614c77614d07565b500390565b60005b83811015614c97578181015183820152602001614c7f565b838111156145285750506000910152565b60006fffffffffffffffffffffffffffffffff80831681811415614cce57614cce614d07565b6001019392505050565b60006fffffffffffffffffffffffffffffffff80841680614cfb57614cfb614d36565b92169190910692915050565b7f4e487b7100000000000000000000000000000000000000000000000000000000600052601160045260246000fd5b7f4e487b7100000000000000000000000000000000000000000000000000000000600052601260045260246000fdfea26469706673582212204aec75592ae6becbb3b048e18f5dc508e4c84c27a55ab6dcc8e9532b341e2edd64736f6c63430008040033",
  "linkReferences": {},
  "deployedLinkReferences": {}
}