{
  "_format": "hh-sol-artifact-1",
  "contractName": "LibBalancesMock",
  "sourceName": "contracts/test/LibBalancesMock.sol",
  "abi": [
    {
      "inputs": [
        {
          "components": [
            {
              "internalType": "int256",
              "name": "quote",
              "type": "int256"
            },
            {
              "internalType": "int256",
              "name": "base",
              "type": "int256"
            }
          ],
          "internalType": "struct Balances.Position",
          "name": "position",
          "type": "tuple"
        },
        {
          "components": [
            {
              "internalType": "uint256",
              "name": "price",
              "type": "uint256"
            },
            {
              "internalType": "uint256",
              "name": "amount",
              "type": "uint256"
            },
            {
              "internalType": "enum Perpetuals.Side",
              "name": "side",
              "type": "uint8"
            }
          ],
          "internalType": "struct Balances.Trade",
          "name": "trade",
          "type": "tuple"
        },
        {
          "internalType": "uint256",
          "name": "feeRate",
          "type": "uint256"
        }
      ],
      "name": "applyTrade",
      "outputs": [
        {
          "components": [
            {
              "internalType": "int256",
              "name": "quote",
              "type": "int256"
            },
            {
              "internalType": "int256",
              "name": "base",
              "type": "int256"
            }
          ],
          "internalType": "struct Balances.Position",
          "name": "",
          "type": "tuple"
        }
      ],
      "stateMutability": "pure",
      "type": "function"
    },
    {
      "inputs": [
        {
          "components": [
            {
              "internalType": "int256",
              "name": "quote",
              "type": "int256"
            },
            {
              "internalType": "int256",
              "name": "base",
              "type": "int256"
            }
          ],
          "internalType": "struct Balances.Position",
          "name": "position",
          "type": "tuple"
        },
        {
          "internalType": "uint256",
          "name": "price",
          "type": "uint256"
        }
      ],
      "name": "leveragedNotionalValue",
      "outputs": [
        {
          "internalType": "uint256",
          "name": "",
          "type": "uint256"
        }
      ],
      "stateMutability": "pure",
      "type": "function"
    },
    {
      "inputs": [
        {
          "components": [
            {
              "internalType": "int256",
              "name": "quote",
              "type": "int256"
            },
            {
              "internalType": "int256",
              "name": "base",
              "type": "int256"
            }
          ],
          "internalType": "struct Balances.Position",
          "name": "position",
          "type": "tuple"
        },
        {
          "internalType": "uint256",
          "name": "price",
          "type": "uint256"
        }
      ],
      "name": "margin",
      "outputs": [
        {
          "internalType": "int256",
          "name": "",
          "type": "int256"
        }
      ],
      "stateMutability": "pure",
      "type": "function"
    },
    {
      "inputs": [
        {
          "components": [
            {
              "internalType": "int256",
              "name": "quote",
              "type": "int256"
            },
            {
              "internalType": "int256",
              "name": "base",
              "type": "int256"
            }
          ],
          "internalType": "struct Balances.Position",
          "name": "position",
          "type": "tuple"
        },
        {
          "internalType": "uint256",
          "name": "gasCost",
          "type": "uint256"
        },
        {
          "internalType": "uint256",
          "name": "price",
          "type": "uint256"
        },
        {
          "internalType": "uint256",
          "name": "trueMaxLeverage",
          "type": "uint256"
        }
      ],
      "name": "marginIsValid",
      "outputs": [
        {
          "internalType": "bool",
          "name": "",
          "type": "bool"
        }
      ],
      "stateMutability": "pure",
      "type": "function"
    },
    {
      "inputs": [
        {
          "components": [
            {
              "internalType": "int256",
              "name": "quote",
              "type": "int256"
            },
            {
              "internalType": "int256",
              "name": "base",
              "type": "int256"
            }
          ],
          "internalType": "struct Balances.Position",
          "name": "position",
          "type": "tuple"
        },
        {
          "internalType": "uint256",
          "name": "price",
          "type": "uint256"
        },
        {
          "internalType": "uint256",
          "name": "liquidationGasCost",
          "type": "uint256"
        },
        {
          "internalType": "uint256",
          "name": "maximumLeverage",
          "type": "uint256"
        }
      ],
      "name": "minimumMargin",
      "outputs": [
        {
          "internalType": "uint256",
          "name": "",
          "type": "uint256"
        }
      ],
      "stateMutability": "pure",
      "type": "function"
    },
    {
      "inputs": [
        {
          "components": [
            {
              "internalType": "int256",
              "name": "quote",
              "type": "int256"
            },
            {
              "internalType": "int256",
              "name": "base",
              "type": "int256"
            }
          ],
          "internalType": "struct Balances.Position",
          "name": "position",
          "type": "tuple"
        },
        {
          "internalType": "uint256",
          "name": "price",
          "type": "uint256"
        }
      ],
      "name": "notionalValue",
      "outputs": [
        {
          "internalType": "uint256",
          "name": "",
          "type": "uint256"
        }
      ],
      "stateMutability": "pure",
      "type": "function"
    },
    {
      "inputs": [
        {
          "internalType": "uint256",
          "name": "tokenDecimals",
          "type": "uint256"
        },
        {
          "internalType": "uint256",
          "name": "amount",
          "type": "uint256"
        }
      ],
      "name": "tokenToWad",
      "outputs": [
        {
          "internalType": "int256",
          "name": "",
          "type": "int256"
        }
      ],
      "stateMutability": "pure",
      "type": "function"
    },
    {
      "inputs": [
        {
          "internalType": "uint256",
          "name": "tokenDecimals",
          "type": "uint256"
        },
        {
          "internalType": "uint256",
          "name": "wadAmount",
          "type": "uint256"
        }
      ],
      "name": "wadToToken",
      "outputs": [
        {
          "internalType": "uint256",
          "name": "",
          "type": "uint256"
        }
      ],
      "stateMutability": "pure",
      "type": "function"
    }
  ],
  "bytecode": "0x608060405234801561001057600080fd5b50610cce806100206000396000f3fe608060405234801561001057600080fd5b50600436106100885760003560e01c8063bf5b9fcc1161005b578063bf5b9fcc146100ef578063c19cd10d1461010f578063d9cc00b01461012f578063fa8124ff1461014257610088565b80631b12bff51461008d5780632342d921146100b65780633bd6f1d7146100c9578063bdd747fb146100dc575b600080fd5b6100a061009b366004610944565b610155565b6040516100ad9190610970565b60405180910390f35b6100a06100c4366004610944565b61016a565b6100a06100d736600461088b565b610176565b6100a06100ea366004610861565b61019d565b6101026100fd36600461081a565b6101b7565b6040516100ad91906109b0565b61012261011d3660046108df565b6101f0565b6040516100ad9190610965565b6100a061013d366004610861565b6101fe565b6100a0610150366004610861565b610218565b60006101618383610232565b90505b92915050565b60006101618383610257565b600061019261018a368790038701876108c4565b85858561028e565b90505b949350505050565b60006101616101b1368590038501856108c4565b836102e6565b6101bf6107b8565b6101e66101d1368690038601866108c4565b6101e0368690038601866108fe565b84610342565b90505b9392505050565b60006101928585858561046d565b6000610161610212368590038501856108c4565b836104ab565b600061016161022c368590038501856108c4565b836104c3565b600080610240846012610c6b565b61024b90600a610abc565b90506101958184610a56565b600080610265846012610c6b565b61027090600a610abc565b905061027b816104eb565b610284846104eb565b6101959190610b8a565b60008460200151600014156102a557506000610195565b60006102b186866104ab565b905060006102c0856006610c0d565b905060006102ce838661053b565b90506102da8183610a3e565b98975050505050505050565b6000806102f384846104ab565b9050600061030185856104c3565b9050600061030e836104eb565b9050600061031c8383610c2c565b121561032e5760009350505050610164565b6103388282610c2c565b9350505050610164565b61034a6107b8565b600061035984602001516104eb565b9050600061036a85600001516104eb565b905060006103788383610550565b9050600061038f87602001518860000151886105e8565b905060008080896040015160018111156103b957634e487b7160e01b600052602160045260246000fd5b14156103f357858a602001516103cf91906109ff565b905082848b600001516103e29190610c2c565b6103ec91906109ff565b915061044f565b60018960400151600181111561041957634e487b7160e01b600052602160045260246000fd5b141561044f57858a6020015161042f9190610c2c565b905082848b6000015161044291906109ff565b61044c9190610c2c565b91505b60408051808201909152918252602082015298975050505050505050565b60008061047c8685878661028e565b9050600061048a87866104c3565b905060008112156104a057600092505050610195565b101595945050505050565b60006101616104bd8460200151610615565b8361063c565b6000806104cf836104eb565b90506104df846020015182610550565b845161019591906109ff565b60006001600160ff1b03821115610537576040517f08c379a000000000000000000000000000000000000000000000000000000000815260040161052e90610979565b60405180910390fd5b5090565b600061016183670de0b6b3a764000084610648565b6000600160ff1b831361056257600080fd5b600160ff1b821361057257600080fd5b600080600085126105835784610588565b846000035b915060008412610598578361059d565b836000035b905060006105ab83836106f3565b90506001600160ff1b038111156105c157600080fd5b6000198087139086138082186001146105da57826102da565b505060000395945050505050565b6000806105f5858561063c565b9050600061060b610606838661063c565b6104eb565b9695505050505050565b6000600160ff1b821361062757600080fd5b600082126106355781610164565b5060000390565b600061016183836106f3565b600080806000198587098686029250828110908390030390508061067e576000841161067357600080fd5b5082900490506101e9565b80841161068a57600080fd5b60008486880960026001871981018816978890046003810283188082028403028082028403028082028403028082028403028082028403029081029092039091026000889003889004909101858311909403939093029303949094049190911702949350505050565b60008080600019848609848602925082811083820303915050600080670de0b6b3a76400008688099150506706f05b59d3b1ffff8111826107465780670de0b6b3a7640000850401945050505050610164565b82670de0b6b3a76400001161075a57600080fd5b6204000082850304939091119091037d40000000000000000000000000000000000000000000000000000000000002919091177faccb18165bd6fe31ae1cf318dc5b51eee0e1ba569b88cd74c1773b91fac106690201905092915050565b604051806040016040528060008152602001600081525090565b6000604082840312156107e3578081fd5b50919050565b6000604082840312156107fa578081fd5b61080460406109c7565b9050813581526020820135602082015292915050565b600080600083850360c081121561082f578384fd5b61083986866107d2565b93506060603f198201121561084c578283fd5b5060408401915060a084013590509250925092565b60008060608385031215610873578182fd5b61087d84846107d2565b946040939093013593505050565b60008060008060a085870312156108a0578081fd5b6108aa86866107d2565b966040860135965060608601359560800135945092505050565b6000604082840312156108d5578081fd5b61016183836107e9565b60008060008060a085870312156108f4578384fd5b6108aa86866107e9565b60006060828403121561090f578081fd5b61091960606109c7565b8235815260208301356020820152604083013560028110610938578283fd5b60408201529392505050565b60008060408385031215610956578182fd5b50508035926020909101359150565b901515815260200190565b90815260200190565b60208082526010908201527f75696e74323536206f766572666c6f7700000000000000000000000000000000604082015260600190565b815181526020918201519181019190915260400190565b60405181810167ffffffffffffffff811182821017156109f757634e487b7160e01b600052604160045260246000fd5b604052919050565b6000808212826001600160ff1b0303841381151615610a2057610a20610c82565b82600160ff1b038412811615610a3857610a38610c82565b50500190565b60008219821115610a5157610a51610c82565b500190565b600082610a7157634e487b7160e01b81526012600452602481fd5b500490565b80825b6001808611610a885750610ab3565b818704821115610a9a57610a9a610c82565b80861615610aa757918102915b9490941c938002610a79565b94509492505050565b60006101616000198484600082610ad5575060016101e9565b81610ae2575060006101e9565b8160018114610af85760028114610b0257610b2f565b60019150506101e9565b60ff841115610b1357610b13610c82565b6001841b915084821115610b2957610b29610c82565b506101e9565b5060208310610133831016604e8410600b8410161715610b62575081810a83811115610b5d57610b5d610c82565b6101e9565b610b6f8484846001610a76565b808604821115610b8157610b81610c82565b02949350505050565b60006001600160ff1b0381841382841385830485118282161615610bb057610bb0610c82565b600160ff1b84871286820588128184161615610bce57610bce610c82565b858712925087820587128484161615610be957610be9610c82565b87850587128184161615610bff57610bff610c82565b505050929093029392505050565b6000816000190483118215151615610c2757610c27610c82565b500290565b600080831283600160ff1b01831281151615610c4a57610c4a610c82565b836001600160ff1b03018313811615610c6557610c65610c82565b50500390565b600082821015610c7d57610c7d610c82565b500390565b634e487b7160e01b600052601160045260246000fdfea2646970667358221220309cac8e5da560ef5c324acbfd6758b3e18055e5d97f750fd2e05387bc3c0d6c64736f6c63430008000033",
  "linkReferences": {},
  "deployedLinkReferences": {}
}