{
  "_format": "hh-sol-artifact-1",
  "contractName": "DrawCalculatorHarness",
  "sourceName": "contracts/test/DrawCalculatorHarness.sol",
  "abi": [
    {
      "inputs": [
        {
          "internalType": "address",
          "name": "_owner",
          "type": "address"
        },
        {
          "internalType": "contract ITicket",
          "name": "_ticket",
          "type": "address"
        },
        {
          "internalType": "contract IDrawBuffer",
          "name": "_drawBuffer",
          "type": "address"
        },
        {
          "internalType": "contract PrizeDistributionBuffer",
          "name": "_prizeDistributionBuffer",
          "type": "address"
        }
      ],
      "stateMutability": "nonpayable",
      "type": "constructor"
    },
    {
      "anonymous": false,
      "inputs": [
        {
          "indexed": true,
          "internalType": "contract ITicket",
          "name": "ticket",
          "type": "address"
        },
        {
          "indexed": true,
          "internalType": "contract IDrawBuffer",
          "name": "drawBuffer",
          "type": "address"
        },
        {
          "indexed": true,
          "internalType": "contract IPrizeDistributionBuffer",
          "name": "prizeDistributionBuffer",
          "type": "address"
        }
      ],
      "name": "Deployed",
      "type": "event"
    },
    {
      "anonymous": false,
      "inputs": [
        {
          "indexed": true,
          "internalType": "address",
          "name": "pendingOwner",
          "type": "address"
        }
      ],
      "name": "OwnershipOffered",
      "type": "event"
    },
    {
      "anonymous": false,
      "inputs": [
        {
          "indexed": true,
          "internalType": "address",
          "name": "previousOwner",
          "type": "address"
        },
        {
          "indexed": true,
          "internalType": "address",
          "name": "newOwner",
          "type": "address"
        }
      ],
      "name": "OwnershipTransferred",
      "type": "event"
    },
    {
      "anonymous": false,
      "inputs": [
        {
          "indexed": true,
          "internalType": "contract PrizeDistributor",
          "name": "prizeDistributor",
          "type": "address"
        }
      ],
      "name": "PrizeDistributorSet",
      "type": "event"
    },
    {
      "inputs": [],
      "name": "TIERS_LENGTH",
      "outputs": [
        {
          "internalType": "uint8",
          "name": "",
          "type": "uint8"
        }
      ],
      "stateMutability": "view",
      "type": "function"
    },
    {
      "inputs": [
        {
          "internalType": "address",
          "name": "_user",
          "type": "address"
        },
        {
          "internalType": "uint32[]",
          "name": "_drawIds",
          "type": "uint32[]"
        },
        {
          "internalType": "bytes",
          "name": "_pickIndicesForDraws",
          "type": "bytes"
        }
      ],
      "name": "calculate",
      "outputs": [
        {
          "internalType": "uint256[]",
          "name": "",
          "type": "uint256[]"
        },
        {
          "internalType": "bytes",
          "name": "",
          "type": "bytes"
        }
      ],
      "stateMutability": "view",
      "type": "function"
    },
    {
      "inputs": [
        {
          "components": [
            {
              "internalType": "uint8",
              "name": "bitRangeSize",
              "type": "uint8"
            },
            {
              "internalType": "uint8",
              "name": "matchCardinality",
              "type": "uint8"
            },
            {
              "internalType": "uint32",
              "name": "startTimestampOffset",
              "type": "uint32"
            },
            {
              "internalType": "uint32",
              "name": "endTimestampOffset",
              "type": "uint32"
            },
            {
              "internalType": "uint32",
              "name": "maxPicksPerUser",
              "type": "uint32"
            },
            {
              "internalType": "uint136",
              "name": "numberOfPicks",
              "type": "uint136"
            },
            {
              "internalType": "uint32[16]",
              "name": "tiers",
              "type": "uint32[16]"
            },
            {
              "internalType": "uint256",
              "name": "prize",
              "type": "uint256"
            }
          ],
          "internalType": "struct IPrizeDistributionBuffer.PrizeDistribution",
          "name": "_prizeDistribution",
          "type": "tuple"
        },
        {
          "internalType": "uint256",
          "name": "_normalizedUserBalance",
          "type": "uint256"
        }
      ],
      "name": "calculateNumberOfUserPicks",
      "outputs": [
        {
          "internalType": "uint64",
          "name": "",
          "type": "uint64"
        }
      ],
      "stateMutability": "pure",
      "type": "function"
    },
    {
      "inputs": [
        {
          "components": [
            {
              "internalType": "uint8",
              "name": "bitRangeSize",
              "type": "uint8"
            },
            {
              "internalType": "uint8",
              "name": "matchCardinality",
              "type": "uint8"
            },
            {
              "internalType": "uint32",
              "name": "startTimestampOffset",
              "type": "uint32"
            },
            {
              "internalType": "uint32",
              "name": "endTimestampOffset",
              "type": "uint32"
            },
            {
              "internalType": "uint32",
              "name": "maxPicksPerUser",
              "type": "uint32"
            },
            {
              "internalType": "uint136",
              "name": "numberOfPicks",
              "type": "uint136"
            },
            {
              "internalType": "uint32[16]",
              "name": "tiers",
              "type": "uint32[16]"
            },
            {
              "internalType": "uint256",
              "name": "prize",
              "type": "uint256"
            }
          ],
          "internalType": "struct IPrizeDistributionBuffer.PrizeDistribution",
          "name": "_prizeDistribution",
          "type": "tuple"
        },
        {
          "internalType": "uint256",
          "name": "_prizeTierIndex",
          "type": "uint256"
        }
      ],
      "name": "calculatePrizeTierFraction",
      "outputs": [
        {
          "internalType": "uint256",
          "name": "",
          "type": "uint256"
        }
      ],
      "stateMutability": "pure",
      "type": "function"
    },
    {
      "inputs": [
        {
          "internalType": "uint256",
          "name": "_randomNumberThisPick",
          "type": "uint256"
        },
        {
          "internalType": "uint256",
          "name": "_winningRandomNumber",
          "type": "uint256"
        },
        {
          "internalType": "uint256[]",
          "name": "_masks",
          "type": "uint256[]"
        }
      ],
      "name": "calculateTierIndex",
      "outputs": [
        {
          "internalType": "uint256",
          "name": "",
          "type": "uint256"
        }
      ],
      "stateMutability": "pure",
      "type": "function"
    },
    {
      "inputs": [],
      "name": "claimOwnership",
      "outputs": [],
      "stateMutability": "nonpayable",
      "type": "function"
    },
    {
      "inputs": [
        {
          "components": [
            {
              "internalType": "uint8",
              "name": "bitRangeSize",
              "type": "uint8"
            },
            {
              "internalType": "uint8",
              "name": "matchCardinality",
              "type": "uint8"
            },
            {
              "internalType": "uint32",
              "name": "startTimestampOffset",
              "type": "uint32"
            },
            {
              "internalType": "uint32",
              "name": "endTimestampOffset",
              "type": "uint32"
            },
            {
              "internalType": "uint32",
              "name": "maxPicksPerUser",
              "type": "uint32"
            },
            {
              "internalType": "uint136",
              "name": "numberOfPicks",
              "type": "uint136"
            },
            {
              "internalType": "uint32[16]",
              "name": "tiers",
              "type": "uint32[16]"
            },
            {
              "internalType": "uint256",
              "name": "prize",
              "type": "uint256"
            }
          ],
          "internalType": "struct IPrizeDistributionBuffer.PrizeDistribution",
          "name": "_prizeDistribution",
          "type": "tuple"
        }
      ],
      "name": "createBitMasks",
      "outputs": [
        {
          "internalType": "uint256[]",
          "name": "",
          "type": "uint256[]"
        }
      ],
      "stateMutability": "pure",
      "type": "function"
    },
    {
      "inputs": [],
      "name": "drawBuffer",
      "outputs": [
        {
          "internalType": "contract IDrawBuffer",
          "name": "",
          "type": "address"
        }
      ],
      "stateMutability": "view",
      "type": "function"
    },
    {
      "inputs": [],
      "name": "getDrawBuffer",
      "outputs": [
        {
          "internalType": "contract IDrawBuffer",
          "name": "",
          "type": "address"
        }
      ],
      "stateMutability": "view",
      "type": "function"
    },
    {
      "inputs": [
        {
          "internalType": "address",
          "name": "_user",
          "type": "address"
        },
        {
          "internalType": "uint32[]",
          "name": "_drawIds",
          "type": "uint32[]"
        }
      ],
      "name": "getNormalizedBalancesForDrawIds",
      "outputs": [
        {
          "internalType": "uint256[]",
          "name": "",
          "type": "uint256[]"
        }
      ],
      "stateMutability": "view",
      "type": "function"
    },
    {
      "inputs": [],
      "name": "getPrizeDistributionBuffer",
      "outputs": [
        {
          "internalType": "contract IPrizeDistributionBuffer",
          "name": "",
          "type": "address"
        }
      ],
      "stateMutability": "view",
      "type": "function"
    },
    {
      "inputs": [
        {
          "internalType": "uint8",
          "name": "_bitRangeSize",
          "type": "uint8"
        },
        {
          "internalType": "uint256",
          "name": "_prizeTierIndex",
          "type": "uint256"
        }
      ],
      "name": "numberOfPrizesForIndex",
      "outputs": [
        {
          "internalType": "uint256",
          "name": "",
          "type": "uint256"
        }
      ],
      "stateMutability": "pure",
      "type": "function"
    },
    {
      "inputs": [],
      "name": "owner",
      "outputs": [
        {
          "internalType": "address",
          "name": "",
          "type": "address"
        }
      ],
      "stateMutability": "view",
      "type": "function"
    },
    {
      "inputs": [],
      "name": "pendingOwner",
      "outputs": [
        {
          "internalType": "address",
          "name": "",
          "type": "address"
        }
      ],
      "stateMutability": "view",
      "type": "function"
    },
    {
      "inputs": [],
      "name": "prizeDistributionBuffer",
      "outputs": [
        {
          "internalType": "contract IPrizeDistributionBuffer",
          "name": "",
          "type": "address"
        }
      ],
      "stateMutability": "view",
      "type": "function"
    },
    {
      "inputs": [],
      "name": "renounceOwnership",
      "outputs": [],
      "stateMutability": "nonpayable",
      "type": "function"
    },
    {
      "inputs": [],
      "name": "ticket",
      "outputs": [
        {
          "internalType": "contract ITicket",
          "name": "",
          "type": "address"
        }
      ],
      "stateMutability": "view",
      "type": "function"
    },
    {
      "inputs": [
        {
          "internalType": "address",
          "name": "_newOwner",
          "type": "address"
        }
      ],
      "name": "transferOwnership",
      "outputs": [],
      "stateMutability": "nonpayable",
      "type": "function"
    }
  ],
  "bytecode": "0x60e06040523480156200001157600080fd5b50604051620028633803806200286383398101604081905262000034916200020d565b83838383836200004481620001bd565b506001600160a01b038316620000a15760405162461bcd60e51b815260206004820152601860248201527f4472617743616c632f7469636b65742d6e6f742d7a65726f000000000000000060448201526064015b60405180910390fd5b6001600160a01b038116620000f95760405162461bcd60e51b815260206004820152601560248201527f4472617743616c632f7064622d6e6f742d7a65726f0000000000000000000000604482015260640162000098565b6001600160a01b038216620001515760405162461bcd60e51b815260206004820152601460248201527f4472617743616c632f64682d6e6f742d7a65726f000000000000000000000000604482015260640162000098565b6001600160601b0319606084811b821660a05283811b821660805282901b1660c0526040516001600160a01b0382811691848216918616907fc95935a66d15e0da5e412aca0ad27ae891d20b2fb91cf3994b6a3bf2b817808290600090a450505050505050506200028e565b600080546001600160a01b038381166001600160a01b0319831681178455604051919092169283917f8be0079c531659141344cd1fd0a4f28419497f9722a3daafe3b4186f6b6457e09190a35050565b600080600080608085870312156200022457600080fd5b8451620002318162000275565b6020860151909450620002448162000275565b6040860151909350620002578162000275565b60608601519092506200026a8162000275565b939692955090935050565b6001600160a01b03811681146200028b57600080fd5b50565b60805160601c60a05160601c60c05160601c612564620002ff60003960008181610140015281816102790152818161053d01526107410152600081816101f501528181610dd90152610e6c0152600081816101c2015281816102ce0152818161049701526106b001526125646000f3fe608060405234801561001057600080fd5b50600436106101365760003560e01c80638da5cb5b116100b2578063ce343bb611610081578063e30c397811610066578063e30c397814610303578063f2fde38b14610314578063f8d0ca4c1461032757600080fd5b8063ce343bb6146102c9578063d6552607146102f057600080fd5b80638da5cb5b14610245578063aaca392e14610256578063bd97a25214610277578063c4bda46b1461029d57600080fd5b80634e71e0c8116101095780636d4bfa6e116100ee5780636d4bfa6e14610217578063715018a61461022a5780638045fbcf1461023257600080fd5b80634e71e0c8146101e65780636cc25db7146101f057600080fd5b80630840bbdd1461013b578063094a24911461017f57806319a6a545146101a05780634019f2d6146101c0575b600080fd5b6101627f000000000000000000000000000000000000000000000000000000000000000081565b6040516001600160a01b0390911681526020015b60405180910390f35b61019261018d366004611f42565b610341565b604051908152602001610176565b6101b36101ae366004611e10565b610356565b6040516101769190612097565b7f0000000000000000000000000000000000000000000000000000000000000000610162565b6101ee61036f565b005b6101627f000000000000000000000000000000000000000000000000000000000000000081565b610192610225366004611e95565b610402565b6101ee61041c565b6101b3610240366004611945565b610491565b6000546001600160a01b0316610162565b610269610264366004611998565b6105f4565b6040516101769291906120aa565b7f0000000000000000000000000000000000000000000000000000000000000000610162565b6102b06102ab366004611e77565b610860565b60405167ffffffffffffffff9091168152602001610176565b6101627f000000000000000000000000000000000000000000000000000000000000000081565b6101926102fe366004611e2d565b61086c565b6001546001600160a01b0316610162565b6101ee61032236600461192a565b610886565b61032f601081565b60405160ff9091168152602001610176565b600061034d83836109c2565b90505b92915050565b606061035061036a36849003840184611e5a565b610a25565b6001546001600160a01b031633146103ce5760405162461bcd60e51b815260206004820152601f60248201527f4f776e61626c652f63616c6c65722d6e6f742d70656e64696e674f776e65720060448201526064015b60405180910390fd5b6001546103e3906001600160a01b0316610b05565b6001805473ffffffffffffffffffffffffffffffffffffffff19169055565b600061040f848484610b62565b60ff1690505b9392505050565b3361042f6000546001600160a01b031690565b6001600160a01b0316146104855760405162461bcd60e51b815260206004820152601860248201527f4f776e61626c652f63616c6c65722d6e6f742d6f776e6572000000000000000060448201526064016103c5565b61048f6000610b05565b565b606060007f00000000000000000000000000000000000000000000000000000000000000006001600160a01b031663d0bb78f385856040518363ffffffff1660e01b81526004016104e392919061210f565b60006040518083038186803b1580156104fb57600080fd5b505afa15801561050f573d6000803e3d6000fd5b505050506040513d6000823e601f3d908101601f191682016040526105379190810190611b63565b905060007f00000000000000000000000000000000000000000000000000000000000000006001600160a01b031663d30a5daf86866040518363ffffffff1660e01b815260040161058992919061210f565b60006040518083038186803b1580156105a157600080fd5b505afa1580156105b5573d6000803e3d6000fd5b505050506040513d6000823e601f3d908101601f191682016040526105dd9190810190611c5e565b90506105ea868383610be6565b9695505050505050565b606080600061060584860186611a43565b8051909150861461067d5760405162461bcd60e51b8152602060048201526024808201527f4472617743616c632f696e76616c69642d7069636b2d696e64696365732d6c6560448201527f6e6774680000000000000000000000000000000000000000000000000000000060648201526084016103c5565b6040517fd0bb78f30000000000000000000000000000000000000000000000000000000081526000906001600160a01b037f0000000000000000000000000000000000000000000000000000000000000000169063d0bb78f3906106e7908b908b9060040161210f565b60006040518083038186803b1580156106ff57600080fd5b505afa158015610713573d6000803e3d6000fd5b505050506040513d6000823e601f3d908101601f1916820160405261073b9190810190611b63565b905060007f00000000000000000000000000000000000000000000000000000000000000006001600160a01b031663d30a5daf8a8a6040518363ffffffff1660e01b815260040161078d92919061210f565b60006040518083038186803b1580156107a557600080fd5b505afa1580156107b9573d6000803e3d6000fd5b505050506040513d6000823e601f3d908101601f191682016040526107e19190810190611c5e565b905060006107f08b8484610be6565b6040517fffffffffffffffffffffffffffffffffffffffff00000000000000000000000060608e901b16602082015290915060009060340160405160208183030381529060405280519060200120905061084d8282868887611058565b9650965050505050509550959350505050565b600061034d8383611256565b600061034d61088036859003850185611e5a565b8361128e565b336108996000546001600160a01b031690565b6001600160a01b0316146108ef5760405162461bcd60e51b815260206004820152601860248201527f4f776e61626c652f63616c6c65722d6e6f742d6f776e6572000000000000000060448201526064016103c5565b6001600160a01b03811661096b5760405162461bcd60e51b815260206004820152602560248201527f4f776e61626c652f70656e64696e674f776e65722d6e6f742d7a65726f2d616460448201527f647265737300000000000000000000000000000000000000000000000000000060648201526084016103c5565b6001805473ffffffffffffffffffffffffffffffffffffffff19166001600160a01b0383169081179091556040517f239a2ddded15777fa246aed5f7e1a9bc69a39d4eb4a397034d1d85766cca7d4c90600090a250565b6000806109d360ff851660026122e7565b905060006109e184836122e7565b90505b8315610a1d576109f56001856123be565b6109ff90836122e7565b610a0990826123be565b905083610a158161241d565b9450506109e4565b949350505050565b60606000826020015160ff1667ffffffffffffffff811115610a4957610a496124bf565b604051908082528060200260200182016040528015610a72578160200160208202803683370190505b5090506000600184600001516002610a8a91906122f3565b610a9491906123be565b905060005b846020015160ff168160ff161015610afc576000856000015160ff168260ff16610ac3919061239f565b90508083901b848360ff1681518110610ade57610ade6124a9565b60209081029190910101525080610af481612473565b915050610a99565b50909392505050565b600080546001600160a01b0383811673ffffffffffffffffffffffffffffffffffffffff19831681178455604051919092169283917f8be0079c531659141344cd1fd0a4f28419497f9722a3daafe3b4186f6b6457e09190a35050565b80516000908190815b8160ff168160ff161015610bdb576000858260ff1681518110610b9057610b906124a9565b6020026020010151905080871681891614610bba57610baf84846123fa565b945050505050610415565b83610bc481612473565b945050508080610bd390612473565b915050610b6b565b506105ea82826123fa565b60606000835167ffffffffffffffff811115610c0457610c046124bf565b604051908082528060200260200182016040528015610c2d578160200160208202803683370190505b5090506000845167ffffffffffffffff811115610c4c57610c4c6124bf565b604051908082528060200260200182016040528015610c75578160200160208202803683370190505b50905060005b85518163ffffffff161015610da557848163ffffffff1681518110610ca257610ca26124a9565b60200260200101516040015163ffffffff16868263ffffffff1681518110610ccc57610ccc6124a9565b60200260200101516040015103838263ffffffff1681518110610cf157610cf16124a9565b602002602001019067ffffffffffffffff16908167ffffffffffffffff1681525050848163ffffffff1681518110610d2b57610d2b6124a9565b60200260200101516060015163ffffffff16868263ffffffff1681518110610d5557610d556124a9565b60200260200101516040015103828263ffffffff1681518110610d7a57610d7a6124a9565b67ffffffffffffffff9092166020928302919091019091015280610d9d8161244f565b915050610c7b565b506040517f68c7fd570000000000000000000000000000000000000000000000000000000081526000906001600160a01b037f000000000000000000000000000000000000000000000000000000000000000016906368c7fd5790610e12908a9087908790600401611fe3565b60006040518083038186803b158015610e2a57600080fd5b505afa158015610e3e573d6000803e3d6000fd5b505050506040513d6000823e601f3d908101601f19168201604052610e669190810190611d78565b905060007f00000000000000000000000000000000000000000000000000000000000000006001600160a01b0316638e6d536a85856040518363ffffffff1660e01b8152600401610eb892919061215a565b60006040518083038186803b158015610ed057600080fd5b505afa158015610ee4573d6000803e3d6000fd5b505050506040513d6000823e601f3d908101601f19168201604052610f0c9190810190611d78565b90506000875167ffffffffffffffff811115610f2a57610f2a6124bf565b604051908082528060200260200182016040528015610f53578160200160208202803683370190505b50905060005b885181101561104b576000838281518110610f7657610f766124a9565b602002602001015111610fcb5760405162461bcd60e51b815260206004820152601a60248201527f4472617743616c632f746f74616c2d737570706c792d7a65726f00000000000060448201526064016103c5565b828181518110610fdd57610fdd6124a9565b6020026020010151848281518110610ff757610ff76124a9565b6020026020010151670de0b6b3a7640000611012919061239f565b61101c9190612282565b82828151811061102e5761102e6124a9565b60209081029190910101528061104381612434565b915050610f59565b5098975050505050505050565b6060806000875167ffffffffffffffff811115611077576110776124bf565b6040519080825280602002602001820160405280156110a0578160200160208202803683370190505b5090506000885167ffffffffffffffff8111156110bf576110bf6124bf565b6040519080825280602002602001820160405280156110f257816020015b60608152602001906001900390816110dd5790505b50905060005b87518163ffffffff161015611224576000611151878363ffffffff1681518110611124576111246124a9565b60200260200101518c8463ffffffff1681518110611144576111446124a9565b6020026020010151611256565b90506111cb898363ffffffff168151811061116e5761116e6124a9565b6020026020010151600001518267ffffffffffffffff168c8b8663ffffffff168151811061119e5761119e6124a9565b60200260200101518b8763ffffffff16815181106111be576111be6124a9565b60200260200101516112d9565b858463ffffffff16815181106111e3576111e36124a9565b60200260200101858563ffffffff1681518110611202576112026124a9565b602090810291909101019190915252508061121c8161244f565b9150506110f8565b50806040516020016112369190612017565b604051602081830303815290604052925081935050509550959350505050565b6000670de0b6b3a76400008360a0015170ffffffffffffffffffffffffffffffffff1683611284919061239f565b61034d9190612282565b6000808360c0015183601081106112a7576112a76124a9565b602002015163ffffffff16905060006112c48560000151856109c2565b90506112d08183612282565b95945050505050565b6000606060006112e884610a25565b85516040805160108082526102208201909252929350909160009160208201610200803683370190505090506000866080015163ffffffff168363ffffffff1611156113765760405162461bcd60e51b815260206004820152601f60248201527f4472617743616c632f657863656564732d6d61782d757365722d7069636b730060448201526064016103c5565b60005b8363ffffffff168163ffffffff16101561158e578a898263ffffffff16815181106113a6576113a66124a9565b602002602001015167ffffffffffffffff16106114055760405162461bcd60e51b815260206004820181905260248201527f4472617743616c632f696e73756666696369656e742d757365722d7069636b7360448201526064016103c5565b63ffffffff8116156114bc578861141d6001836123d5565b63ffffffff1681518110611433576114336124a9565b602002602001015167ffffffffffffffff16898263ffffffff168151811061145d5761145d6124a9565b602002602001015167ffffffffffffffff16116114bc5760405162461bcd60e51b815260206004820152601860248201527f4472617743616c632f7069636b732d617363656e64696e67000000000000000060448201526064016103c5565b60008a8a8363ffffffff16815181106114d7576114d76124a9565b602002602001015160405160200161150392919091825267ffffffffffffffff16602082015260400190565b6040516020818303038152906040528051906020012060001c9050600061152b828f89610b62565b9050601060ff82161015611579578360ff168160ff16111561154b578093505b848160ff1681518110611560576115606124a9565b60200260200101805180919061157590612434565b9052505b505080806115869061244f565b915050611379565b5060008061159c898461165d565b905060005b8360ff16811161162a5760008582815181106115bf576115bf6124a9565b60200260200101511115611618578481815181106115df576115df6124a9565b60200260200101518282815181106115f9576115f96124a9565b602002602001015161160b919061239f565b6116159084612245565b92505b8061162281612434565b9150506115a1565b50633b9aca008960e0015183611640919061239f565b61164a9190612282565b9d939c50929a5050505050505050505050565b6060600061166c83600161225d565b60ff1667ffffffffffffffff811115611687576116876124bf565b6040519080825280602002602001820160405280156116b0578160200160208202803683370190505b50905060005b8360ff168160ff1611611702576116d0858260ff1661128e565b828260ff16815181106116e5576116e56124a9565b6020908102919091010152806116fa81612473565b9150506116b6565b509392505050565b80356001600160a01b038116811461172157600080fd5b919050565b600082601f83011261173757600080fd5b61173f6121cc565b8083856102008601111561175257600080fd5b60005b601081101561177e578135611769816124f7565b84526020938401939190910190600101611755565b509095945050505050565b600082601f83011261179a57600080fd5b6117a26121cc565b808385610200860111156117b557600080fd5b60005b601081101561177e5781516117cc816124f7565b845260209384019391909101906001016117b8565b60008083601f8401126117f357600080fd5b50813567ffffffffffffffff81111561180b57600080fd5b6020830191508360208260051b850101111561182657600080fd5b9250929050565b60006102e0828403121561184057600080fd5b50919050565b60006102e0828403121561185957600080fd5b61186161217f565b9050813561186e8161251f565b815261187c60208301611914565b602082015261188d604083016118fe565b604082015261189e606083016118fe565b60608201526118af608083016118fe565b60808201526118c060a083016118e8565b60a08201526118d28360c08401611726565b60c08201526102c082013560e082015292915050565b8035611721816124d5565b8051611721816124d5565b8035611721816124f7565b8051611721816124f7565b80356117218161251f565b80516117218161251f565b60006020828403121561193c57600080fd5b61034d8261170a565b60008060006040848603121561195a57600080fd5b6119638461170a565b9250602084013567ffffffffffffffff81111561197f57600080fd5b61198b868287016117e1565b9497909650939450505050565b6000806000806000606086880312156119b057600080fd5b6119b98661170a565b9450602086013567ffffffffffffffff808211156119d657600080fd5b6119e289838a016117e1565b909650945060408801359150808211156119fb57600080fd5b818801915088601f830112611a0f57600080fd5b813581811115611a1e57600080fd5b896020828501011115611a3057600080fd5b9699959850939650602001949392505050565b60006020808385031215611a5657600080fd5b823567ffffffffffffffff80821115611a6e57600080fd5b818501915085601f830112611a8257600080fd5b8135611a95611a9082612221565b6121f0565b80828252858201915085850189878560051b8801011115611ab557600080fd5b60005b84811015611b5457813586811115611acf57600080fd5b8701603f81018c13611ae057600080fd5b88810135611af0611a9082612221565b808282528b82019150604084018f60408560051b8701011115611b1257600080fd5b600094505b83851015611b3e578035611b2a81612509565b835260019490940193918c01918c01611b17565b5087525050509287019290870190600101611ab8565b50909998505050505050505050565b60006020808385031215611b7657600080fd5b825167ffffffffffffffff811115611b8d57600080fd5b8301601f81018513611b9e57600080fd5b8051611bac611a9082612221565b8181528381019083850160a0808502860187018a1015611bcb57600080fd5b60009550855b85811015611c4f5781838c031215611be7578687fd5b611bef6121a9565b8351815288840151611c00816124f7565b818a0152604084810151611c1381612509565b90820152606084810151611c2681612509565b90820152608084810151611c39816124f7565b9082015285529387019391810191600101611bd1565b50919998505050505050505050565b60006020808385031215611c7157600080fd5b825167ffffffffffffffff811115611c8857600080fd5b8301601f81018513611c9957600080fd5b8051611ca7611a9082612221565b818152838101908385016102e0808502860187018a1015611cc757600080fd5b60009550855b85811015611c4f5781838c031215611ce3578687fd5b611ceb61217f565b611cf48461191f565b8152611d0189850161191f565b898201526040611d12818601611909565b908201526060611d23858201611909565b908201526080611d34858201611909565b9082015260a0611d458582016118f3565b9082015260c0611d578d868301611789565b908201526102c084015160e082015285529387019391810191600101611ccd565b60006020808385031215611d8b57600080fd5b825167ffffffffffffffff811115611da257600080fd5b8301601f81018513611db357600080fd5b8051611dc1611a9082612221565b80828252848201915084840188868560051b8701011115611de157600080fd5b600094505b83851015611e04578051835260019490940193918501918501611de6565b50979650505050505050565b60006102e08284031215611e2357600080fd5b61034d838361182d565b6000806103008385031215611e4157600080fd5b611e4b848461182d565b946102e0939093013593505050565b60006102e08284031215611e6d57600080fd5b61034d8383611846565b6000806103008385031215611e8b57600080fd5b611e4b8484611846565b600080600060608486031215611eaa57600080fd5b833592506020808501359250604085013567ffffffffffffffff811115611ed057600080fd5b8501601f81018713611ee157600080fd5b8035611eef611a9082612221565b8082825284820191508484018a868560051b8701011115611f0f57600080fd5b600094505b83851015611f32578035835260019490940193918501918501611f14565b5080955050505050509250925092565b60008060408385031215611f5557600080fd5b8235611f608161251f565b946020939093013593505050565b600081518084526020808501945080840160005b83811015611f9e57815187529582019590820190600101611f82565b509495945050505050565b600081518084526020808501945080840160005b83811015611f9e57815167ffffffffffffffff1687529582019590820190600101611fbd565b6001600160a01b03841681526060602082015260006120056060830185611fa9565b82810360408401526105ea8185611fa9565b6000602080830181845280855180835260408601915060408160051b870101925083870160005b8281101561208a577fffffffffffffffffffffffffffffffffffffffffffffffffffffffffffffffc0888603018452612078858351611f6e565b9450928501929085019060010161203e565b5092979650505050505050565b60208152600061034d6020830184611f6e565b6040815260006120bd6040830185611f6e565b602083820381850152845180835260005b818110156120e95786810183015184820184015282016120ce565b818111156120fa5760008383860101525b50601f01601f19169190910101949350505050565b60208082528181018390526000908460408401835b8681101561214f578235612137816124f7565b63ffffffff1682529183019190830190600101612124565b509695505050505050565b60408152600061216d6040830185611fa9565b82810360208401526112d08185611fa9565b604051610100810167ffffffffffffffff811182821017156121a3576121a36124bf565b60405290565b60405160a0810167ffffffffffffffff811182821017156121a3576121a36124bf565b604051610200810167ffffffffffffffff811182821017156121a3576121a36124bf565b604051601f8201601f1916810167ffffffffffffffff81118282101715612219576122196124bf565b604052919050565b600067ffffffffffffffff82111561223b5761223b6124bf565b5060051b60200190565b6000821982111561225857612258612493565b500190565b600060ff821660ff84168060ff0382111561227a5761227a612493565b019392505050565b60008261229f57634e487b7160e01b600052601260045260246000fd5b500490565b600181815b808511156122df5781600019048211156122c5576122c5612493565b808516156122d257918102915b93841c93908002906122a9565b509250929050565b600061034d83836122fe565b600061034d60ff8416835b60008261230d57506001610350565b8161231a57506000610350565b8160018114612330576002811461233a57612356565b6001915050610350565b60ff84111561234b5761234b612493565b50506001821b610350565b5060208310610133831016604e8410600b8410161715612379575081810a610350565b61238383836122a4565b806000190482111561239757612397612493565b029392505050565b60008160001904831182151516156123b9576123b9612493565b500290565b6000828210156123d0576123d0612493565b500390565b600063ffffffff838116908316818110156123f2576123f2612493565b039392505050565b600060ff821660ff84168082101561241457612414612493565b90039392505050565b60008161242c5761242c612493565b506000190190565b600060001982141561244857612448612493565b5060010190565b600063ffffffff8083168181141561246957612469612493565b6001019392505050565b600060ff821660ff81141561248a5761248a612493565b60010192915050565b634e487b7160e01b600052601160045260246000fd5b634e487b7160e01b600052603260045260246000fd5b634e487b7160e01b600052604160045260246000fd5b70ffffffffffffffffffffffffffffffffff811681146124f457600080fd5b50565b63ffffffff811681146124f457600080fd5b67ffffffffffffffff811681146124f457600080fd5b60ff811681146124f457600080fdfea2646970667358221220f3ab5424afdd6e05deb641bc584cb1029eac2a02a1c19c3b62d149caaaba119664736f6c63430008060033",
  "linkReferences": {},
  "deployedLinkReferences": {}
}