{
  "_format": "hh-sol-artifact-1",
  "contractName": "DrawCalculatorTimelock",
  "sourceName": "contracts/DrawCalculatorTimelock.sol",
  "abi": [
    {
      "inputs": [
        {
          "internalType": "address",
          "name": "_owner",
          "type": "address"
        },
        {
          "internalType": "contract IDrawCalculator",
          "name": "_calculator",
          "type": "address"
        },
        {
          "internalType": "uint32",
          "name": "_timelockDuration",
          "type": "uint32"
        }
      ],
      "stateMutability": "nonpayable",
      "type": "constructor"
    },
    {
      "anonymous": false,
      "inputs": [
        {
          "indexed": true,
          "internalType": "contract IDrawCalculator",
          "name": "drawCalculator",
          "type": "address"
        },
        {
          "indexed": false,
          "internalType": "uint32",
          "name": "timelockDuration",
          "type": "uint32"
        }
      ],
      "name": "Deployed",
      "type": "event"
    },
    {
      "anonymous": false,
      "inputs": [
        {
          "indexed": true,
          "internalType": "uint32",
          "name": "drawId",
          "type": "uint32"
        },
        {
          "indexed": false,
          "internalType": "uint32",
          "name": "timestamp",
          "type": "uint32"
        }
      ],
      "name": "LockedDraw",
      "type": "event"
    },
    {
      "anonymous": false,
      "inputs": [
        {
          "indexed": true,
          "internalType": "address",
          "name": "previousManager",
          "type": "address"
        },
        {
          "indexed": true,
          "internalType": "address",
          "name": "newManager",
          "type": "address"
        }
      ],
      "name": "ManagerTransferred",
      "type": "event"
    },
    {
      "anonymous": false,
      "inputs": [
        {
          "indexed": true,
          "internalType": "address",
          "name": "pendingOwner",
          "type": "address"
        }
      ],
      "name": "OwnershipOffered",
      "type": "event"
    },
    {
      "anonymous": false,
      "inputs": [
        {
          "indexed": true,
          "internalType": "address",
          "name": "previousOwner",
          "type": "address"
        },
        {
          "indexed": true,
          "internalType": "address",
          "name": "newOwner",
          "type": "address"
        }
      ],
      "name": "OwnershipTransferred",
      "type": "event"
    },
    {
      "anonymous": false,
      "inputs": [
        {
          "indexed": false,
          "internalType": "uint32",
          "name": "duration",
          "type": "uint32"
        }
      ],
      "name": "TimelockDurationSet",
      "type": "event"
    },
    {
      "anonymous": false,
      "inputs": [
        {
          "components": [
            {
              "internalType": "uint128",
              "name": "timestamp",
              "type": "uint128"
            },
            {
              "internalType": "uint32",
              "name": "drawId",
              "type": "uint32"
            }
          ],
          "indexed": false,
          "internalType": "struct IDrawCalculatorTimelock.Timelock",
          "name": "timelock",
          "type": "tuple"
        }
      ],
      "name": "TimelockSet",
      "type": "event"
    },
    {
      "inputs": [
        {
          "internalType": "address",
          "name": "user",
          "type": "address"
        },
        {
          "internalType": "uint32[]",
          "name": "drawIds",
          "type": "uint32[]"
        },
        {
          "internalType": "bytes",
          "name": "data",
          "type": "bytes"
        }
      ],
      "name": "calculate",
      "outputs": [
        {
          "internalType": "uint256[]",
          "name": "",
          "type": "uint256[]"
        },
        {
          "internalType": "bytes",
          "name": "",
          "type": "bytes"
        }
      ],
      "stateMutability": "view",
      "type": "function"
    },
    {
      "inputs": [],
      "name": "claimOwnership",
      "outputs": [],
      "stateMutability": "nonpayable",
      "type": "function"
    },
    {
      "inputs": [],
      "name": "getDrawCalculator",
      "outputs": [
        {
          "internalType": "contract IDrawCalculator",
          "name": "",
          "type": "address"
        }
      ],
      "stateMutability": "view",
      "type": "function"
    },
    {
      "inputs": [],
      "name": "getTimelock",
      "outputs": [
        {
          "components": [
            {
              "internalType": "uint128",
              "name": "timestamp",
              "type": "uint128"
            },
            {
              "internalType": "uint32",
              "name": "drawId",
              "type": "uint32"
            }
          ],
          "internalType": "struct IDrawCalculatorTimelock.Timelock",
          "name": "",
          "type": "tuple"
        }
      ],
      "stateMutability": "view",
      "type": "function"
    },
    {
      "inputs": [],
      "name": "getTimelockDuration",
      "outputs": [
        {
          "internalType": "uint32",
          "name": "",
          "type": "uint32"
        }
      ],
      "stateMutability": "view",
      "type": "function"
    },
    {
      "inputs": [],
      "name": "hasElapsed",
      "outputs": [
        {
          "internalType": "bool",
          "name": "",
          "type": "bool"
        }
      ],
      "stateMutability": "view",
      "type": "function"
    },
    {
      "inputs": [
        {
          "internalType": "uint32",
          "name": "_drawId",
          "type": "uint32"
        }
      ],
      "name": "lock",
      "outputs": [
        {
          "internalType": "bool",
          "name": "",
          "type": "bool"
        }
      ],
      "stateMutability": "nonpayable",
      "type": "function"
    },
    {
      "inputs": [],
      "name": "manager",
      "outputs": [
        {
          "internalType": "address",
          "name": "",
          "type": "address"
        }
      ],
      "stateMutability": "view",
      "type": "function"
    },
    {
      "inputs": [],
      "name": "owner",
      "outputs": [
        {
          "internalType": "address",
          "name": "",
          "type": "address"
        }
      ],
      "stateMutability": "view",
      "type": "function"
    },
    {
      "inputs": [],
      "name": "pendingOwner",
      "outputs": [
        {
          "internalType": "address",
          "name": "",
          "type": "address"
        }
      ],
      "stateMutability": "view",
      "type": "function"
    },
    {
      "inputs": [],
      "name": "renounceOwnership",
      "outputs": [],
      "stateMutability": "nonpayable",
      "type": "function"
    },
    {
      "inputs": [
        {
          "internalType": "address",
          "name": "_newManager",
          "type": "address"
        }
      ],
      "name": "setManager",
      "outputs": [
        {
          "internalType": "bool",
          "name": "",
          "type": "bool"
        }
      ],
      "stateMutability": "nonpayable",
      "type": "function"
    },
    {
      "inputs": [
        {
          "components": [
            {
              "internalType": "uint128",
              "name": "timestamp",
              "type": "uint128"
            },
            {
              "internalType": "uint32",
              "name": "drawId",
              "type": "uint32"
            }
          ],
          "internalType": "struct IDrawCalculatorTimelock.Timelock",
          "name": "_timelock",
          "type": "tuple"
        }
      ],
      "name": "setTimelock",
      "outputs": [],
      "stateMutability": "nonpayable",
      "type": "function"
    },
    {
      "inputs": [
        {
          "internalType": "uint32",
          "name": "_timelockDuration",
          "type": "uint32"
        }
      ],
      "name": "setTimelockDuration",
      "outputs": [],
      "stateMutability": "nonpayable",
      "type": "function"
    },
    {
      "inputs": [
        {
          "internalType": "address",
          "name": "_newOwner",
          "type": "address"
        }
      ],
      "name": "transferOwnership",
      "outputs": [],
      "stateMutability": "nonpayable",
      "type": "function"
    }
  ],
  "bytecode": "0x60a06040523480156200001157600080fd5b506040516200122738038062001227833981016040819052620000349162000155565b826200004081620000ab565b506001600160601b0319606083901b166080526200005e81620000fb565b60405163ffffffff821681526001600160a01b038316907f1ec0b5dbb0ca7039fc541ebde09f802f13f394dc70328f69521c9df64d56ba739060200160405180910390a2505050620001ca565b600080546001600160a01b038381166001600160a01b0319831681178455604051919092169283917f8be0079c531659141344cd1fd0a4f28419497f9722a3daafe3b4186f6b6457e09190a35050565b6002805463ffffffff60a01b1916600160a01b63ffffffff8416908102919091179091556040519081527f2607ecb03bc646643f6e6a7818db8d53cf9022e79f212f0275ab0e726ffb97de9060200160405180910390a150565b6000806000606084860312156200016b57600080fd5b83516200017881620001b1565b60208501519093506200018b81620001b1565b604085015190925063ffffffff81168114620001a657600080fd5b809150509250925092565b6001600160a01b0381168114620001c757600080fd5b50565b60805160601c611037620001f06000396000818161011101526104be01526110376000f3fe608060405234801561001057600080fd5b50600436106100f55760003560e01c8063aaca392e11610097578063d3c45b8d11610066578063d3c45b8d14610234578063e30c397814610247578063f2fde38b14610258578063fdf2f3121461026b57600080fd5b8063aaca392e146101d5578063c9f2e0d9146101f6578063d0ebdbe714610209578063d3a9c6121461022c57600080fd5b80634e71e0c8116100d35780634e71e0c81461015f5780636221a54b14610167578063715018a6146101bc5780638da5cb5b146101c457600080fd5b80630dc9c0f1146100fa5780632d680cfa1461010f578063481c6a751461014e575b600080fd5b61010d610108366004610d52565b610290565b005b7f00000000000000000000000000000000000000000000000000000000000000005b6040516001600160a01b0390911681526020015b60405180910390f35b6002546001600160a01b0316610131565b61010d61034c565b6040805180820182526000808252602091820152815180830183526003546001600160801b03811680835263ffffffff600160801b909204821692840192835284519081529151169181019190915201610145565b61010d6103cd565b6000546001600160a01b0316610131565b6101e86101e3366004610bce565b610412565b604051610145929190610e5a565b61010d610204366004610dbb565b61055e565b61021c610217366004610bac565b6105a3565b6040519015158152602001610145565b61021c6105ef565b61021c610242366004610dbb565b61062b565b6001546001600160a01b0316610131565b61010d610266366004610bac565b6107e0565b600254600160a01b900463ffffffff1660405163ffffffff9091168152602001610145565b336102a36000546001600160a01b031690565b6001600160a01b0316146102d25760405162461bcd60e51b81526004016102c990610ec2565b60405180910390fd5b805160038054602080850180516001600160801b039095166001600160a01b03199093168317600160801b63ffffffff9687160217909355604080519283529251909316928101929092527f42dd13ae53bb50ee7d7115673c106f053e02398f000e36d1e5969afc507e19ba91015b60405180910390a150565b6001546001600160a01b031633146103a65760405162461bcd60e51b815260206004820152601f60248201527f4f776e61626c652f63616c6c65722d6e6f742d70656e64696e674f776e65720060448201526064016102c9565b6001546103bb906001600160a01b03166108c7565b600180546001600160a01b0319169055565b336103e06000546001600160a01b031690565b6001600160a01b0316146104065760405162461bcd60e51b81526004016102c990610ec2565b61041060006108c7565b565b604080518082019091526003546001600160801b0381168252600160801b900463ffffffff166020820152606090819060005b868110156104a657816020015163ffffffff1688888381811061046a5761046a610fd5565b905060200201602081019061047f9190610dbb565b63ffffffff1614156104945761049482610917565b8061049e81610fa4565b915050610445565b506040516355651c9760e11b81526001600160a01b037f0000000000000000000000000000000000000000000000000000000000000000169063aaca392e906104fb908b908b908b908b908b90600401610dd6565b60006040518083038186803b15801561051357600080fd5b505afa158015610527573d6000803e3d6000fd5b505050506040513d6000823e601f3d908101601f1916820160405261054f9190810190610c80565b92509250509550959350505050565b336105716000546001600160a01b031690565b6001600160a01b0316146105975760405162461bcd60e51b81526004016102c990610ec2565b6105a08161096c565b50565b6000336105b86000546001600160a01b031690565b6001600160a01b0316146105de5760405162461bcd60e51b81526004016102c990610ec2565b6105e7826109c0565b90505b919050565b604080518082019091526003546001600160801b0381168252600160801b900463ffffffff16602082015260009061062690610a85565b905090565b6000336106406002546001600160a01b031690565b6001600160a01b0316148061066e5750336106636000546001600160a01b031690565b6001600160a01b0316145b6106c95760405162461bcd60e51b815260206004820152602660248201527f4d616e61676561626c652f63616c6c65722d6e6f742d6d616e616765722d6f7260448201526516b7bbb732b960d11b60648201526084016102c9565b604080518082019091526003546001600160801b0381168252600160801b900463ffffffff1660208201819052610701906001610f55565b63ffffffff168363ffffffff16146107545760405162461bcd60e51b81526020600482015260166024820152754f4d2f6e6f742d6472617769642d706c75732d6f6e6560501b60448201526064016102c9565b61075d81610917565b604080518082018252426001600160801b03811680835263ffffffff8781166020948501819052600380546001600160a01b031916909317600160801b82021790925593519382168452909290917fab01869b114234eaa7be033294249849011783dbd02cf5ffd427e5d6b4aa481b910160405180910390a25060019392505050565b336107f36000546001600160a01b031690565b6001600160a01b0316146108195760405162461bcd60e51b81526004016102c990610ec2565b6001600160a01b03811661087d5760405162461bcd60e51b815260206004820152602560248201527f4f776e61626c652f70656e64696e674f776e65722d6e6f742d7a65726f2d6164604482015264647265737360d81b60648201526084016102c9565b600180546001600160a01b0319166001600160a01b0383169081179091556040517f239a2ddded15777fa246aed5f7e1a9bc69a39d4eb4a397034d1d85766cca7d4c90600090a250565b600080546001600160a01b038381166001600160a01b0319831681178455604051919092169283917f8be0079c531659141344cd1fd0a4f28419497f9722a3daafe3b4186f6b6457e09190a35050565b61092081610a85565b6105a05760405162461bcd60e51b815260206004820152601760248201527f4f4d2f74696d656c6f636b2d6e6f742d6578706972656400000000000000000060448201526064016102c9565b6002805463ffffffff60a01b1916600160a01b63ffffffff8416908102919091179091556040519081527f2607ecb03bc646643f6e6a7818db8d53cf9022e79f212f0275ab0e726ffb97de90602001610341565b6002546000906001600160a01b03908116908316811415610a2f5760405162461bcd60e51b815260206004820152602360248201527f4d616e61676561626c652f6578697374696e672d6d616e616765722d6164647260448201526265737360e81b60648201526084016102c9565b600280546001600160a01b0319166001600160a01b0385811691821790925560405190918316907f9cb45c728de594dab506a1f1a8554e24c8eeaf983618d5ec5dd7bc6f3c49feee90600090a350600192915050565b80516000906001600160801b0316610a9f57506001919050565b6002548251610abb91600160a01b900463ffffffff1690610f2a565b6001600160801b0316421192915050565b80356001600160a01b03811681146105ea57600080fd5b60008083601f840112610af557600080fd5b50813567ffffffffffffffff811115610b0d57600080fd5b602083019150836020828501011115610b2557600080fd5b9250929050565b600082601f830112610b3d57600080fd5b815167ffffffffffffffff811115610b5757610b57610feb565b610b6a601f8201601f1916602001610ef9565b818152846020838601011115610b7f57600080fd5b610b90826020830160208701610f74565b949350505050565b803563ffffffff811681146105ea57600080fd5b600060208284031215610bbe57600080fd5b610bc782610acc565b9392505050565b600080600080600060608688031215610be657600080fd5b610bef86610acc565b9450602086013567ffffffffffffffff80821115610c0c57600080fd5b818801915088601f830112610c2057600080fd5b813581811115610c2f57600080fd5b8960208260051b8501011115610c4457600080fd5b602083019650809550506040880135915080821115610c6257600080fd5b50610c6f88828901610ae3565b969995985093965092949392505050565b60008060408385031215610c9357600080fd5b825167ffffffffffffffff80821115610cab57600080fd5b818501915085601f830112610cbf57600080fd5b8151602082821115610cd357610cd3610feb565b8160051b610ce2828201610ef9565b8381528281019086840183880185018c1015610cfd57600080fd5b600097505b85881015610d20578051835260019790970196918401918401610d02565b509289015192975091945050505080821115610d3b57600080fd5b50610d4885828601610b2c565b9150509250929050565b600060408284031215610d6457600080fd5b6040516040810181811067ffffffffffffffff82111715610d8757610d87610feb565b60405282356001600160801b0381168114610da157600080fd5b8152610daf60208401610b98565b60208201529392505050565b600060208284031215610dcd57600080fd5b610bc782610b98565b6001600160a01b038616815260606020808301829052908201859052600090869060808401835b88811015610e265763ffffffff610e1385610b98565b1682529282019290820190600101610dfd565b5084810360408601528581528587838301376000818701830152601f909501601f1916909401909301979650505050505050565b604080825283519082018190526000906020906060840190828701845b82811015610e9357815184529284019290840190600101610e77565b505050838103828501528451808252610eb181848401858901610f74565b601f01601f19160101949350505050565b60208082526018908201527f4f776e61626c652f63616c6c65722d6e6f742d6f776e65720000000000000000604082015260600190565b604051601f8201601f1916810167ffffffffffffffff81118282101715610f2257610f22610feb565b604052919050565b60006001600160801b03808316818516808303821115610f4c57610f4c610fbf565b01949350505050565b600063ffffffff808316818516808303821115610f4c57610f4c610fbf565b60005b83811015610f8f578181015183820152602001610f77565b83811115610f9e576000848401525b50505050565b6000600019821415610fb857610fb8610fbf565b5060010190565b634e487b7160e01b600052601160045260246000fd5b634e487b7160e01b600052603260045260246000fd5b634e487b7160e01b600052604160045260246000fdfea26469706673582212205d09439eb688e427d56548af24f259f6bad262f8c1b0d4f59fe9f11883a657e364736f6c63430008060033",
  "linkReferences": {},
  "deployedLinkReferences": {}
}