{
  "_format": "hh-sol-artifact-1",
  "contractName": "DrawCalculator",
  "sourceName": "contracts/DrawCalculator.sol",
  "abi": [
    {
      "inputs": [
        {
          "internalType": "address",
          "name": "_owner",
          "type": "address"
        },
        {
          "internalType": "contract ITicket",
          "name": "_ticket",
          "type": "address"
        },
        {
          "internalType": "contract IDrawBuffer",
          "name": "_drawBuffer",
          "type": "address"
        },
        {
          "internalType": "contract IPrizeDistributionBuffer",
          "name": "_prizeDistributionBuffer",
          "type": "address"
        }
      ],
      "stateMutability": "nonpayable",
      "type": "constructor"
    },
    {
      "anonymous": false,
      "inputs": [
        {
          "indexed": true,
          "internalType": "contract ITicket",
          "name": "ticket",
          "type": "address"
        },
        {
          "indexed": true,
          "internalType": "contract IDrawBuffer",
          "name": "drawBuffer",
          "type": "address"
        },
        {
          "indexed": true,
          "internalType": "contract IPrizeDistributionBuffer",
          "name": "prizeDistributionBuffer",
          "type": "address"
        }
      ],
      "name": "Deployed",
      "type": "event"
    },
    {
      "anonymous": false,
      "inputs": [
        {
          "indexed": true,
          "internalType": "address",
          "name": "pendingOwner",
          "type": "address"
        }
      ],
      "name": "OwnershipOffered",
      "type": "event"
    },
    {
      "anonymous": false,
      "inputs": [
        {
          "indexed": true,
          "internalType": "address",
          "name": "previousOwner",
          "type": "address"
        },
        {
          "indexed": true,
          "internalType": "address",
          "name": "newOwner",
          "type": "address"
        }
      ],
      "name": "OwnershipTransferred",
      "type": "event"
    },
    {
      "anonymous": false,
      "inputs": [
        {
          "indexed": true,
          "internalType": "contract PrizeDistributor",
          "name": "prizeDistributor",
          "type": "address"
        }
      ],
      "name": "PrizeDistributorSet",
      "type": "event"
    },
    {
      "inputs": [],
      "name": "TIERS_LENGTH",
      "outputs": [
        {
          "internalType": "uint8",
          "name": "",
          "type": "uint8"
        }
      ],
      "stateMutability": "view",
      "type": "function"
    },
    {
      "inputs": [
        {
          "internalType": "address",
          "name": "_user",
          "type": "address"
        },
        {
          "internalType": "uint32[]",
          "name": "_drawIds",
          "type": "uint32[]"
        },
        {
          "internalType": "bytes",
          "name": "_pickIndicesForDraws",
          "type": "bytes"
        }
      ],
      "name": "calculate",
      "outputs": [
        {
          "internalType": "uint256[]",
          "name": "",
          "type": "uint256[]"
        },
        {
          "internalType": "bytes",
          "name": "",
          "type": "bytes"
        }
      ],
      "stateMutability": "view",
      "type": "function"
    },
    {
      "inputs": [],
      "name": "claimOwnership",
      "outputs": [],
      "stateMutability": "nonpayable",
      "type": "function"
    },
    {
      "inputs": [],
      "name": "drawBuffer",
      "outputs": [
        {
          "internalType": "contract IDrawBuffer",
          "name": "",
          "type": "address"
        }
      ],
      "stateMutability": "view",
      "type": "function"
    },
    {
      "inputs": [],
      "name": "getDrawBuffer",
      "outputs": [
        {
          "internalType": "contract IDrawBuffer",
          "name": "",
          "type": "address"
        }
      ],
      "stateMutability": "view",
      "type": "function"
    },
    {
      "inputs": [
        {
          "internalType": "address",
          "name": "_user",
          "type": "address"
        },
        {
          "internalType": "uint32[]",
          "name": "_drawIds",
          "type": "uint32[]"
        }
      ],
      "name": "getNormalizedBalancesForDrawIds",
      "outputs": [
        {
          "internalType": "uint256[]",
          "name": "",
          "type": "uint256[]"
        }
      ],
      "stateMutability": "view",
      "type": "function"
    },
    {
      "inputs": [],
      "name": "getPrizeDistributionBuffer",
      "outputs": [
        {
          "internalType": "contract IPrizeDistributionBuffer",
          "name": "",
          "type": "address"
        }
      ],
      "stateMutability": "view",
      "type": "function"
    },
    {
      "inputs": [],
      "name": "owner",
      "outputs": [
        {
          "internalType": "address",
          "name": "",
          "type": "address"
        }
      ],
      "stateMutability": "view",
      "type": "function"
    },
    {
      "inputs": [],
      "name": "pendingOwner",
      "outputs": [
        {
          "internalType": "address",
          "name": "",
          "type": "address"
        }
      ],
      "stateMutability": "view",
      "type": "function"
    },
    {
      "inputs": [],
      "name": "prizeDistributionBuffer",
      "outputs": [
        {
          "internalType": "contract IPrizeDistributionBuffer",
          "name": "",
          "type": "address"
        }
      ],
      "stateMutability": "view",
      "type": "function"
    },
    {
      "inputs": [],
      "name": "renounceOwnership",
      "outputs": [],
      "stateMutability": "nonpayable",
      "type": "function"
    },
    {
      "inputs": [],
      "name": "ticket",
      "outputs": [
        {
          "internalType": "contract ITicket",
          "name": "",
          "type": "address"
        }
      ],
      "stateMutability": "view",
      "type": "function"
    },
    {
      "inputs": [
        {
          "internalType": "address",
          "name": "_newOwner",
          "type": "address"
        }
      ],
      "name": "transferOwnership",
      "outputs": [],
      "stateMutability": "nonpayable",
      "type": "function"
    }
  ],
  "bytecode": "0x60e06040523480156200001157600080fd5b506040516200247c3803806200247c833981016040819052620000349162000205565b836200004081620001b5565b506001600160a01b0383166200009d5760405162461bcd60e51b815260206004820152601860248201527f4472617743616c632f7469636b65742d6e6f742d7a65726f000000000000000060448201526064015b60405180910390fd5b6001600160a01b038116620000f55760405162461bcd60e51b815260206004820152601560248201527f4472617743616c632f7064622d6e6f742d7a65726f0000000000000000000000604482015260640162000094565b6001600160a01b0382166200014d5760405162461bcd60e51b815260206004820152601460248201527f4472617743616c632f64682d6e6f742d7a65726f000000000000000000000000604482015260640162000094565b6001600160601b0319606084811b821660a05283811b821660805282901b1660c0526040516001600160a01b0382811691848216918616907fc95935a66d15e0da5e412aca0ad27ae891d20b2fb91cf3994b6a3bf2b817808290600090a45050505062000286565b600080546001600160a01b038381166001600160a01b0319831681178455604051919092169283917f8be0079c531659141344cd1fd0a4f28419497f9722a3daafe3b4186f6b6457e09190a35050565b600080600080608085870312156200021c57600080fd5b845162000229816200026d565b60208601519094506200023c816200026d565b60408601519093506200024f816200026d565b606086015190925062000262816200026d565b939692955090935050565b6001600160a01b03811681146200028357600080fd5b50565b60805160601c60a05160601c60c05160601c612186620002f66000396000818160e9015281816101db01528181610418015261061e01526000818161015d01528181610ac90152610b5c01526000818161012a0152818161020401528181610372015261058d01526121866000f3fe608060405234801561001057600080fd5b50600436106100df5760003560e01c80638da5cb5b1161008c578063ce343bb611610066578063ce343bb6146101ff578063e30c397814610226578063f2fde38b14610237578063f8d0ca4c1461024a57600080fd5b80638da5cb5b146101a7578063aaca392e146101b8578063bd97a252146101d957600080fd5b80636cc25db7116100bd5780636cc25db714610158578063715018a61461017f5780638045fbcf1461018757600080fd5b80630840bbdd146100e45780634019f2d6146101285780634e71e0c81461014e575b600080fd5b61010b7f000000000000000000000000000000000000000000000000000000000000000081565b6040516001600160a01b0390911681526020015b60405180910390f35b7f000000000000000000000000000000000000000000000000000000000000000061010b565b610156610264565b005b61010b7f000000000000000000000000000000000000000000000000000000000000000081565b6101566102f7565b61019a61019536600461170d565b61036c565b60405161011f9190611d0b565b6000546001600160a01b031661010b565b6101cb6101c6366004611760565b6104d1565b60405161011f929190611d1e565b7f000000000000000000000000000000000000000000000000000000000000000061010b565b61010b7f000000000000000000000000000000000000000000000000000000000000000081565b6001546001600160a01b031661010b565b6101566102453660046116f2565b61073d565b610252601081565b60405160ff909116815260200161011f565b6001546001600160a01b031633146102c35760405162461bcd60e51b815260206004820152601f60248201527f4f776e61626c652f63616c6c65722d6e6f742d70656e64696e674f776e65720060448201526064015b60405180910390fd5b6001546102d8906001600160a01b0316610879565b6001805473ffffffffffffffffffffffffffffffffffffffff19169055565b3361030a6000546001600160a01b031690565b6001600160a01b0316146103605760405162461bcd60e51b815260206004820152601860248201527f4f776e61626c652f63616c6c65722d6e6f742d6f776e6572000000000000000060448201526064016102ba565b61036a6000610879565b565b606060007f00000000000000000000000000000000000000000000000000000000000000006001600160a01b031663d0bb78f385856040518363ffffffff1660e01b81526004016103be929190611d83565b60006040518083038186803b1580156103d657600080fd5b505afa1580156103ea573d6000803e3d6000fd5b505050506040513d6000823e601f3d908101601f19168201604052610412919081019061192b565b905060007f00000000000000000000000000000000000000000000000000000000000000006001600160a01b031663d30a5daf86866040518363ffffffff1660e01b8152600401610464929190611d83565b60006040518083038186803b15801561047c57600080fd5b505afa158015610490573d6000803e3d6000fd5b505050506040513d6000823e601f3d908101601f191682016040526104b89190810190611a26565b90506104c58683836108d6565b925050505b9392505050565b60608060006104e28486018661180b565b8051909150861461055a5760405162461bcd60e51b8152602060048201526024808201527f4472617743616c632f696e76616c69642d7069636b2d696e64696365732d6c6560448201527f6e6774680000000000000000000000000000000000000000000000000000000060648201526084016102ba565b6040517fd0bb78f30000000000000000000000000000000000000000000000000000000081526000906001600160a01b037f0000000000000000000000000000000000000000000000000000000000000000169063d0bb78f3906105c4908b908b90600401611d83565b60006040518083038186803b1580156105dc57600080fd5b505afa1580156105f0573d6000803e3d6000fd5b505050506040513d6000823e601f3d908101601f19168201604052610618919081019061192b565b905060007f00000000000000000000000000000000000000000000000000000000000000006001600160a01b031663d30a5daf8a8a6040518363ffffffff1660e01b815260040161066a929190611d83565b60006040518083038186803b15801561068257600080fd5b505afa158015610696573d6000803e3d6000fd5b505050506040513d6000823e601f3d908101601f191682016040526106be9190810190611a26565b905060006106cd8b84846108d6565b6040517fffffffffffffffffffffffffffffffffffffffff00000000000000000000000060608e901b16602082015290915060009060340160405160208183030381529060405280519060200120905061072a8282868887610d48565b9650965050505050509550959350505050565b336107506000546001600160a01b031690565b6001600160a01b0316146107a65760405162461bcd60e51b815260206004820152601860248201527f4f776e61626c652f63616c6c65722d6e6f742d6f776e6572000000000000000060448201526064016102ba565b6001600160a01b0381166108225760405162461bcd60e51b815260206004820152602560248201527f4f776e61626c652f70656e64696e674f776e65722d6e6f742d7a65726f2d616460448201527f647265737300000000000000000000000000000000000000000000000000000060648201526084016102ba565b6001805473ffffffffffffffffffffffffffffffffffffffff19166001600160a01b0383169081179091556040517f239a2ddded15777fa246aed5f7e1a9bc69a39d4eb4a397034d1d85766cca7d4c90600090a250565b600080546001600160a01b0383811673ffffffffffffffffffffffffffffffffffffffff19831681178455604051919092169283917f8be0079c531659141344cd1fd0a4f28419497f9722a3daafe3b4186f6b6457e09190a35050565b60606000835167ffffffffffffffff8111156108f4576108f461210f565b60405190808252806020026020018201604052801561091d578160200160208202803683370190505b5090506000845167ffffffffffffffff81111561093c5761093c61210f565b604051908082528060200260200182016040528015610965578160200160208202803683370190505b50905060005b85518163ffffffff161015610a9557848163ffffffff1681518110610992576109926120f9565b60200260200101516040015163ffffffff16868263ffffffff16815181106109bc576109bc6120f9565b60200260200101516040015103838263ffffffff16815181106109e1576109e16120f9565b602002602001019067ffffffffffffffff16908167ffffffffffffffff1681525050848163ffffffff1681518110610a1b57610a1b6120f9565b60200260200101516060015163ffffffff16868263ffffffff1681518110610a4557610a456120f9565b60200260200101516040015103828263ffffffff1681518110610a6a57610a6a6120f9565b67ffffffffffffffff9092166020928302919091019091015280610a8d8161209f565b91505061096b565b506040517f68c7fd570000000000000000000000000000000000000000000000000000000081526000906001600160a01b037f000000000000000000000000000000000000000000000000000000000000000016906368c7fd5790610b02908a9087908790600401611c4d565b60006040518083038186803b158015610b1a57600080fd5b505afa158015610b2e573d6000803e3d6000fd5b505050506040513d6000823e601f3d908101601f19168201604052610b569190810190611b40565b905060007f00000000000000000000000000000000000000000000000000000000000000006001600160a01b0316638e6d536a85856040518363ffffffff1660e01b8152600401610ba8929190611dce565b60006040518083038186803b158015610bc057600080fd5b505afa158015610bd4573d6000803e3d6000fd5b505050506040513d6000823e601f3d908101601f19168201604052610bfc9190810190611b40565b90506000875167ffffffffffffffff811115610c1a57610c1a61210f565b604051908082528060200260200182016040528015610c43578160200160208202803683370190505b50905060005b8851811015610d3b576000838281518110610c6657610c666120f9565b602002602001015111610cbb5760405162461bcd60e51b815260206004820152601a60248201527f4472617743616c632f746f74616c2d737570706c792d7a65726f00000000000060448201526064016102ba565b828181518110610ccd57610ccd6120f9565b6020026020010151848281518110610ce757610ce76120f9565b6020026020010151670de0b6b3a7640000610d029190611fef565b610d0c9190611ed2565b828281518110610d1e57610d1e6120f9565b602090810291909101015280610d3381612084565b915050610c49565b5098975050505050505050565b6060806000875167ffffffffffffffff811115610d6757610d6761210f565b604051908082528060200260200182016040528015610d90578160200160208202803683370190505b5090506000885167ffffffffffffffff811115610daf57610daf61210f565b604051908082528060200260200182016040528015610de257816020015b6060815260200190600190039081610dcd5790505b50905060005b87518163ffffffff161015610f14576000610e41878363ffffffff1681518110610e1457610e146120f9565b60200260200101518c8463ffffffff1681518110610e3457610e346120f9565b6020026020010151610f46565b9050610ebb898363ffffffff1681518110610e5e57610e5e6120f9565b6020026020010151600001518267ffffffffffffffff168c8b8663ffffffff1681518110610e8e57610e8e6120f9565b60200260200101518b8763ffffffff1681518110610eae57610eae6120f9565b6020026020010151610f87565b858463ffffffff1681518110610ed357610ed36120f9565b60200260200101858563ffffffff1681518110610ef257610ef26120f9565b6020908102919091010191909152525080610f0c8161209f565b915050610de8565b5080604051602001610f269190611c8b565b604051602081830303815290604052925081935050509550959350505050565b6000670de0b6b3a76400008360a0015170ffffffffffffffffffffffffffffffffff1683610f749190611fef565b610f7e9190611ed2565b90505b92915050565b600060606000610f968461130b565b85516040805160108082526102208201909252929350909160009160208201610200803683370190505090506000866080015163ffffffff168363ffffffff1611156110245760405162461bcd60e51b815260206004820152601f60248201527f4472617743616c632f657863656564732d6d61782d757365722d7069636b730060448201526064016102ba565b60005b8363ffffffff168163ffffffff16101561123c578a898263ffffffff1681518110611054576110546120f9565b602002602001015167ffffffffffffffff16106110b35760405162461bcd60e51b815260206004820181905260248201527f4472617743616c632f696e73756666696369656e742d757365722d7069636b7360448201526064016102ba565b63ffffffff81161561116a57886110cb600183612025565b63ffffffff16815181106110e1576110e16120f9565b602002602001015167ffffffffffffffff16898263ffffffff168151811061110b5761110b6120f9565b602002602001015167ffffffffffffffff161161116a5760405162461bcd60e51b815260206004820152601860248201527f4472617743616c632f7069636b732d617363656e64696e67000000000000000060448201526064016102ba565b60008a8a8363ffffffff1681518110611185576111856120f9565b60200260200101516040516020016111b192919091825267ffffffffffffffff16602082015260400190565b6040516020818303038152906040528051906020012060001c905060006111d9828f896113eb565b9050601060ff82161015611227578360ff168160ff1611156111f9578093505b848160ff168151811061120e5761120e6120f9565b60200260200101805180919061122390612084565b9052505b505080806112349061209f565b915050611027565b5060008061124a898461146f565b905060005b8360ff1681116112d857600085828151811061126d5761126d6120f9565b602002602001015111156112c65784818151811061128d5761128d6120f9565b60200260200101518282815181106112a7576112a76120f9565b60200260200101516112b99190611fef565b6112c39084611e95565b92505b806112d081612084565b91505061124f565b50633b9aca008960e00151836112ee9190611fef565b6112f89190611ed2565b9d939c50929a5050505050505050505050565b60606000826020015160ff1667ffffffffffffffff81111561132f5761132f61210f565b604051908082528060200260200182016040528015611358578160200160208202803683370190505b50905060006001846000015160026113709190611f43565b61137a919061200e565b905060005b846020015160ff168160ff1610156113e2576000856000015160ff168260ff166113a99190611fef565b90508083901b848360ff16815181106113c4576113c46120f9565b602090810291909101015250806113da816120c3565b91505061137f565b50909392505050565b80516000908190815b8160ff168160ff161015611464576000858260ff1681518110611419576114196120f9565b602002602001015190508087168189161461144357611438848461204a565b9450505050506104ca565b8361144d816120c3565b94505050808061145c906120c3565b9150506113f4565b506104c5828261204a565b6060600061147e836001611ead565b60ff1667ffffffffffffffff8111156114995761149961210f565b6040519080825280602002602001820160405280156114c2578160200160208202803683370190505b50905060005b8360ff168160ff1611611514576114e2858260ff1661151c565b828260ff16815181106114f7576114f76120f9565b60209081029190910101528061150c816120c3565b9150506114c8565b509392505050565b6000808360c001518360108110611535576115356120f9565b602002015163ffffffff1690506000611552856000015185611567565b905061155e8183611ed2565b95945050505050565b60008061157860ff85166002611f37565b905060006115868483611f37565b90505b83156115c25761159a60018561200e565b6115a49083611f37565b6115ae908261200e565b9050836115ba8161206d565b945050611589565b949350505050565b80356001600160a01b03811681146115e157600080fd5b919050565b600082601f8301126115f757600080fd5b60405161020080820182811067ffffffffffffffff8211171561161c5761161c61210f565b604052818482810187101561163057600080fd5b600092505b601083101561165e57805161164981612125565b82526001929092019160209182019101611635565b509195945050505050565b60008083601f84011261167b57600080fd5b50813567ffffffffffffffff81111561169357600080fd5b6020830191508360208260051b85010111156116ae57600080fd5b9250929050565b805170ffffffffffffffffffffffffffffffffff811681146115e157600080fd5b80516115e181612125565b805160ff811681146115e157600080fd5b60006020828403121561170457600080fd5b610f7e826115ca565b60008060006040848603121561172257600080fd5b61172b846115ca565b9250602084013567ffffffffffffffff81111561174757600080fd5b61175386828701611669565b9497909650939450505050565b60008060008060006060868803121561177857600080fd5b611781866115ca565b9450602086013567ffffffffffffffff8082111561179e57600080fd5b6117aa89838a01611669565b909650945060408801359150808211156117c357600080fd5b818801915088601f8301126117d757600080fd5b8135818111156117e657600080fd5b8960208285010111156117f857600080fd5b9699959850939650602001949392505050565b6000602080838503121561181e57600080fd5b823567ffffffffffffffff8082111561183657600080fd5b818501915085601f83011261184a57600080fd5b813561185d61185882611e71565b611e40565b80828252858201915085850189878560051b880101111561187d57600080fd5b60005b8481101561191c5781358681111561189757600080fd5b8701603f81018c136118a857600080fd5b888101356118b861185882611e71565b808282528b82019150604084018f60408560051b87010111156118da57600080fd5b600094505b838510156119065780356118f28161213a565b835260019490940193918c01918c016118df565b5087525050509287019290870190600101611880565b50909998505050505050505050565b6000602080838503121561193e57600080fd5b825167ffffffffffffffff81111561195557600080fd5b8301601f8101851361196657600080fd5b805161197461185882611e71565b8181528381019083850160a0808502860187018a101561199357600080fd5b60009550855b85811015611a175781838c0312156119af578687fd5b6119b7611df3565b83518152888401516119c881612125565b818a01526040848101516119db8161213a565b908201526060848101516119ee8161213a565b90820152608084810151611a0181612125565b9082015285529387019391810191600101611999565b50919998505050505050505050565b60006020808385031215611a3957600080fd5b825167ffffffffffffffff811115611a5057600080fd5b8301601f81018513611a6157600080fd5b8051611a6f61185882611e71565b818152838101908385016102e0808502860187018a1015611a8f57600080fd5b60009550855b85811015611a175781838c031215611aab578687fd5b611ab3611e1c565b611abc846116e1565b8152611ac98985016116e1565b898201526040611ada8186016116d6565b908201526060611aeb8582016116d6565b908201526080611afc8582016116d6565b9082015260a0611b0d8582016116b5565b9082015260c0611b1f8d8683016115e6565b908201526102c084015160e082015285529387019391810191600101611a95565b60006020808385031215611b5357600080fd5b825167ffffffffffffffff811115611b6a57600080fd5b8301601f81018513611b7b57600080fd5b8051611b8961185882611e71565b80828252848201915084840188868560051b8701011115611ba957600080fd5b600094505b83851015611bcc578051835260019490940193918501918501611bae565b50979650505050505050565b600081518084526020808501945080840160005b83811015611c0857815187529582019590820190600101611bec565b509495945050505050565b600081518084526020808501945080840160005b83811015611c0857815167ffffffffffffffff1687529582019590820190600101611c27565b6001600160a01b0384168152606060208201526000611c6f6060830185611c13565b8281036040840152611c818185611c13565b9695505050505050565b6000602080830181845280855180835260408601915060408160051b870101925083870160005b82811015611cfe577fffffffffffffffffffffffffffffffffffffffffffffffffffffffffffffffc0888603018452611cec858351611bd8565b94509285019290850190600101611cb2565b5092979650505050505050565b602081526000610f7e6020830184611bd8565b604081526000611d316040830185611bd8565b602083820381850152845180835260005b81811015611d5d578681018301518482018401528201611d42565b81811115611d6e5760008383860101525b50601f01601f19169190910101949350505050565b60208082528181018390526000908460408401835b86811015611dc3578235611dab81612125565b63ffffffff1682529183019190830190600101611d98565b509695505050505050565b604081526000611de16040830185611c13565b828103602084015261155e8185611c13565b60405160a0810167ffffffffffffffff81118282101715611e1657611e1661210f565b60405290565b604051610100810167ffffffffffffffff81118282101715611e1657611e1661210f565b604051601f8201601f1916810167ffffffffffffffff81118282101715611e6957611e6961210f565b604052919050565b600067ffffffffffffffff821115611e8b57611e8b61210f565b5060051b60200190565b60008219821115611ea857611ea86120e3565b500190565b600060ff821660ff84168060ff03821115611eca57611eca6120e3565b019392505050565b600082611eef57634e487b7160e01b600052601260045260246000fd5b500490565b600181815b80851115611f2f578160001904821115611f1557611f156120e3565b80851615611f2257918102915b93841c9390800290611ef9565b509250929050565b6000610f7e8383611f4e565b6000610f7e60ff8416835b600082611f5d57506001610f81565b81611f6a57506000610f81565b8160018114611f805760028114611f8a57611fa6565b6001915050610f81565b60ff841115611f9b57611f9b6120e3565b50506001821b610f81565b5060208310610133831016604e8410600b8410161715611fc9575081810a610f81565b611fd38383611ef4565b8060001904821115611fe757611fe76120e3565b029392505050565b6000816000190483118215151615612009576120096120e3565b500290565b600082821015612020576120206120e3565b500390565b600063ffffffff83811690831681811015612042576120426120e3565b039392505050565b600060ff821660ff841680821015612064576120646120e3565b90039392505050565b60008161207c5761207c6120e3565b506000190190565b6000600019821415612098576120986120e3565b5060010190565b600063ffffffff808316818114156120b9576120b96120e3565b6001019392505050565b600060ff821660ff8114156120da576120da6120e3565b60010192915050565b634e487b7160e01b600052601160045260246000fd5b634e487b7160e01b600052603260045260246000fd5b634e487b7160e01b600052604160045260246000fd5b63ffffffff8116811461213757600080fd5b50565b67ffffffffffffffff8116811461213757600080fdfea2646970667358221220fc301beee360c8af5e2cac77d2c75666a1ae28a52bd280635dc090fc28a064fd64736f6c63430008060033",
  "linkReferences": {},
  "deployedLinkReferences": {}
}