{
  "_format": "hh-sol-artifact-1",
  "contractName": "TickMathTest",
  "sourceName": "contracts/test/TickMathTest.sol",
  "abi": [
    {
      "inputs": [
        {
          "internalType": "int24",
          "name": "tick",
          "type": "int24"
        }
      ],
      "name": "getSqrtRatioAtTick",
      "outputs": [
        {
          "internalType": "uint160",
          "name": "",
          "type": "uint160"
        }
      ],
      "stateMutability": "pure",
      "type": "function"
    },
    {
      "inputs": [
        {
          "internalType": "uint160",
          "name": "sqrtPriceX96",
          "type": "uint160"
        }
      ],
      "name": "getTickAtSqrtRatio",
      "outputs": [
        {
          "internalType": "int24",
          "name": "",
          "type": "int24"
        }
      ],
      "stateMutability": "pure",
      "type": "function"
    }
  ],
  "bytecode": "0x608060405234801561001057600080fd5b506109b4806100206000396000f3fe608060405234801561001057600080fd5b50600436106100365760003560e01c80634f76c0581461003b578063986cfba314610066575b600080fd5b61004e610049366004610872565b61009e565b60405160029190910b81526020015b60405180910390f35b610079610074366004610848565b6100af565b60405173ffffffffffffffffffffffffffffffffffffffff909116815260200161005d565b60006100a9826100ba565b92915050565b60006100a982610485565b60006401000276a373ffffffffffffffffffffffffffffffffffffffff831610801590610110575073fffd8963efd1fc6a506488495d951d5263988d2673ffffffffffffffffffffffffffffffffffffffff8316105b61017b576040517f08c379a000000000000000000000000000000000000000000000000000000000815260206004820152600160248201527f520000000000000000000000000000000000000000000000000000000000000060448201526064015b60405180910390fd5b77ffffffffffffffffffffffffffffffffffffffff00000000602083901b166fffffffffffffffffffffffffffffffff811160071b81811c67ffffffffffffffff811160061b90811c63ffffffff811160051b90811c61ffff811160041b90811c60ff8111600390811b91821c600f811160021b90811c918211600190811b92831c9790881196179094179092171790911717176080811061022557607f810383901c915061022f565b80607f0383901b91505b908002607f81811c60ff83811c9190911c800280831c81831c1c800280841c81841c1c800280851c81851c1c800280861c81861c1c800280871c81871c1c800280881c81881c1c800280891c81891c1c8002808a1c818a1c1c8002808b1c818b1c1c8002808c1c818c1c1c8002808d1c818d1c1c8002808e1c9c81901c9c909c1c80029c8d901c9e9d7fffffffffffffffffffffffffffffffffffffffffffffffffffffffffffffff808f0160401b60c09190911c678000000000000000161760c19b909b1c674000000000000000169a909a1760c29990991c672000000000000000169890981760c39790971c671000000000000000169690961760c49590951c670800000000000000169490941760c59390931c670400000000000000169290921760c69190911c670200000000000000161760c79190911c670100000000000000161760c89190911c6680000000000000161760c99190911c6640000000000000161760ca9190911c6620000000000000161760cb9190911c6610000000000000161760cc9190911c6608000000000000161760cd9190911c66040000000000001617693627a301d71055774c8581027ffffffffffffffffffffffffffffffffffd709b7e5480fba5a50fed5e62ffc5568101608090811d906fdb2df09e81959a81455e260799a0632f8301901d600281810b9083900b14610476578873ffffffffffffffffffffffffffffffffffffffff1661044e82610485565b73ffffffffffffffffffffffffffffffffffffffff1611156104705781610478565b80610478565b815b9998505050505050505050565b60008060008360020b1261049c578260020b6104a9565b8260020b6104a9906108e7565b90506104d47ffffffffffffffffffffffffffffffffffffffffffffffffffffffffffff276186108a8565b62ffffff16811115610542576040517f08c379a000000000000000000000000000000000000000000000000000000000815260206004820152601260248201527f5449434b5f4f55545f4f465f424f554e445300000000000000000000000000006044820152606401610172565b60006001821661056357700100000000000000000000000000000000610575565b6ffffcb933bd6fad37aa2d162d1a5940015b70ffffffffffffffffffffffffffffffffff16905060028216156105a9576ffff97272373d413259a46990580e213a0260801c5b60048216156105c8576ffff2e50f5f656932ef12357cf3c7fdcc0260801c5b60088216156105e7576fffe5caca7e10e4e61c3624eaa0941cd00260801c5b6010821615610606576fffcb9843d60f6159c9db58835c9266440260801c5b6020821615610625576fff973b41fa98c081472e6896dfb254c00260801c5b6040821615610644576fff2ea16466c96a3843ec78b326b528610260801c5b6080821615610663576ffe5dee046a99a2a811c461f1969c30530260801c5b610100821615610683576ffcbe86c7900a88aedcffc83b479aa3a40260801c5b6102008216156106a3576ff987a7253ac413176f2b074cf7815e540260801c5b6104008216156106c3576ff3392b0822b70005940c7a398e4b70f30260801c5b6108008216156106e3576fe7159475a2c29b7443b29c7fa6e889d90260801c5b611000821615610703576fd097f3bdfd2022b8845ad8f792aa58250260801c5b612000821615610723576fa9f746462d870fdf8a65dc1f90e061e50260801c5b614000821615610743576f70d869a156d2a1b890bb3df62baf32f70260801c5b618000821615610763576f31be135f97d08fd981231505542fcfa60260801c5b62010000821615610784576f09aa508b5b7a84e1c677de54f3e99bc90260801c5b620200008216156107a4576e5d6af8dedb81196699c329225ee6040260801c5b620400008216156107c3576d2216e584f5fa1ea926041bedfe980260801c5b620800008216156107e0576b048a170391f7dc42444e8fa20260801c5b60008460020b131561081f57807fffffffffffffffffffffffffffffffffffffffffffffffffffffffffffffffff8161081b5761081b61094f565b0490505b640100000000810615610833576001610836565b60005b60ff16602082901c0192505050919050565b60006020828403121561085a57600080fd5b81358060020b811461086b57600080fd5b9392505050565b60006020828403121561088457600080fd5b813573ffffffffffffffffffffffffffffffffffffffff8116811461086b57600080fd5b60008160020b7fffffffffffffffffffffffffffffffffffffffffffffffffffffffffff8000008114156108de576108de610920565b60000392915050565b60007f800000000000000000000000000000000000000000000000000000000000000082141561091957610919610920565b5060000390565b7f4e487b7100000000000000000000000000000000000000000000000000000000600052601160045260246000fd5b7f4e487b7100000000000000000000000000000000000000000000000000000000600052601260045260246000fdfea264697066735822122048a15d2052da0326fa876fb1fa0214e96174fb1fd229154eafd1705705ea0d1c64736f6c63430008070033",
  "linkReferences": {},
  "deployedLinkReferences": {}
}