{
  "_format": "hh-sol-artifact-1",
  "contractName": "PrizeSplitStrategy",
  "sourceName": "contracts/prize-strategy/PrizeSplitStrategy.sol",
  "abi": [
    {
      "inputs": [
        {
          "internalType": "address",
          "name": "_owner",
          "type": "address"
        },
        {
          "internalType": "contract IPrizePool",
          "name": "_prizePool",
          "type": "address"
        }
      ],
      "stateMutability": "nonpayable",
      "type": "constructor"
    },
    {
      "anonymous": false,
      "inputs": [
        {
          "indexed": true,
          "internalType": "address",
          "name": "owner",
          "type": "address"
        },
        {
          "indexed": false,
          "internalType": "contract IPrizePool",
          "name": "prizePool",
          "type": "address"
        }
      ],
      "name": "Deployed",
      "type": "event"
    },
    {
      "anonymous": false,
      "inputs": [
        {
          "indexed": false,
          "internalType": "uint256",
          "name": "totalPrizeCaptured",
          "type": "uint256"
        }
      ],
      "name": "Distributed",
      "type": "event"
    },
    {
      "anonymous": false,
      "inputs": [
        {
          "indexed": true,
          "internalType": "address",
          "name": "pendingOwner",
          "type": "address"
        }
      ],
      "name": "OwnershipOffered",
      "type": "event"
    },
    {
      "anonymous": false,
      "inputs": [
        {
          "indexed": true,
          "internalType": "address",
          "name": "previousOwner",
          "type": "address"
        },
        {
          "indexed": true,
          "internalType": "address",
          "name": "newOwner",
          "type": "address"
        }
      ],
      "name": "OwnershipTransferred",
      "type": "event"
    },
    {
      "anonymous": false,
      "inputs": [
        {
          "indexed": true,
          "internalType": "address",
          "name": "user",
          "type": "address"
        },
        {
          "indexed": false,
          "internalType": "uint256",
          "name": "prizeAwarded",
          "type": "uint256"
        },
        {
          "indexed": true,
          "internalType": "contract IControlledToken",
          "name": "token",
          "type": "address"
        }
      ],
      "name": "PrizeSplitAwarded",
      "type": "event"
    },
    {
      "anonymous": false,
      "inputs": [
        {
          "indexed": true,
          "internalType": "uint256",
          "name": "target",
          "type": "uint256"
        }
      ],
      "name": "PrizeSplitRemoved",
      "type": "event"
    },
    {
      "anonymous": false,
      "inputs": [
        {
          "indexed": true,
          "internalType": "address",
          "name": "target",
          "type": "address"
        },
        {
          "indexed": false,
          "internalType": "uint16",
          "name": "percentage",
          "type": "uint16"
        },
        {
          "indexed": false,
          "internalType": "uint256",
          "name": "index",
          "type": "uint256"
        }
      ],
      "name": "PrizeSplitSet",
      "type": "event"
    },
    {
      "inputs": [],
      "name": "claimOwnership",
      "outputs": [],
      "stateMutability": "nonpayable",
      "type": "function"
    },
    {
      "inputs": [],
      "name": "distribute",
      "outputs": [
        {
          "internalType": "uint256",
          "name": "",
          "type": "uint256"
        }
      ],
      "stateMutability": "nonpayable",
      "type": "function"
    },
    {
      "inputs": [],
      "name": "getPrizePool",
      "outputs": [
        {
          "internalType": "contract IPrizePool",
          "name": "",
          "type": "address"
        }
      ],
      "stateMutability": "view",
      "type": "function"
    },
    {
      "inputs": [
        {
          "internalType": "uint256",
          "name": "_prizeSplitIndex",
          "type": "uint256"
        }
      ],
      "name": "getPrizeSplit",
      "outputs": [
        {
          "components": [
            {
              "internalType": "address",
              "name": "target",
              "type": "address"
            },
            {
              "internalType": "uint16",
              "name": "percentage",
              "type": "uint16"
            }
          ],
          "internalType": "struct IPrizeSplit.PrizeSplitConfig",
          "name": "",
          "type": "tuple"
        }
      ],
      "stateMutability": "view",
      "type": "function"
    },
    {
      "inputs": [],
      "name": "getPrizeSplits",
      "outputs": [
        {
          "components": [
            {
              "internalType": "address",
              "name": "target",
              "type": "address"
            },
            {
              "internalType": "uint16",
              "name": "percentage",
              "type": "uint16"
            }
          ],
          "internalType": "struct IPrizeSplit.PrizeSplitConfig[]",
          "name": "",
          "type": "tuple[]"
        }
      ],
      "stateMutability": "view",
      "type": "function"
    },
    {
      "inputs": [],
      "name": "owner",
      "outputs": [
        {
          "internalType": "address",
          "name": "",
          "type": "address"
        }
      ],
      "stateMutability": "view",
      "type": "function"
    },
    {
      "inputs": [],
      "name": "pendingOwner",
      "outputs": [
        {
          "internalType": "address",
          "name": "",
          "type": "address"
        }
      ],
      "stateMutability": "view",
      "type": "function"
    },
    {
      "inputs": [],
      "name": "renounceOwnership",
      "outputs": [],
      "stateMutability": "nonpayable",
      "type": "function"
    },
    {
      "inputs": [
        {
          "components": [
            {
              "internalType": "address",
              "name": "target",
              "type": "address"
            },
            {
              "internalType": "uint16",
              "name": "percentage",
              "type": "uint16"
            }
          ],
          "internalType": "struct IPrizeSplit.PrizeSplitConfig",
          "name": "_prizeSplit",
          "type": "tuple"
        },
        {
          "internalType": "uint8",
          "name": "_prizeSplitIndex",
          "type": "uint8"
        }
      ],
      "name": "setPrizeSplit",
      "outputs": [],
      "stateMutability": "nonpayable",
      "type": "function"
    },
    {
      "inputs": [
        {
          "components": [
            {
              "internalType": "address",
              "name": "target",
              "type": "address"
            },
            {
              "internalType": "uint16",
              "name": "percentage",
              "type": "uint16"
            }
          ],
          "internalType": "struct IPrizeSplit.PrizeSplitConfig[]",
          "name": "_newPrizeSplits",
          "type": "tuple[]"
        }
      ],
      "name": "setPrizeSplits",
      "outputs": [],
      "stateMutability": "nonpayable",
      "type": "function"
    },
    {
      "inputs": [
        {
          "internalType": "address",
          "name": "_newOwner",
          "type": "address"
        }
      ],
      "name": "transferOwnership",
      "outputs": [],
      "stateMutability": "nonpayable",
      "type": "function"
    }
  ],
  "bytecode": "0x60806040523480156200001157600080fd5b50604051620014c0380380620014c0833981016040819052620000349162000161565b81620000408162000111565b506001600160a01b038116620000b35760405162461bcd60e51b815260206004820152602e60248201527f5072697a6553706c697453747261746567792f7072697a652d706f6f6c2d6e6f60448201526d742d7a65726f2d6164647265737360901b606482015260840160405180910390fd5b600380546001600160a01b0319166001600160a01b03838116918217909255604051908152908316907f09e48df7857bd0c1e0d31bb8a85d42cf1874817895f171c917f6ee2cea73ec209060200160405180910390a25050620001b9565b600080546001600160a01b038381166001600160a01b0319831681178455604051919092169283917f8be0079c531659141344cd1fd0a4f28419497f9722a3daafe3b4186f6b6457e09190a35050565b600080604083850312156200017557600080fd5b82516200018281620001a0565b60208401519092506200019581620001a0565b809150509250929050565b6001600160a01b0381168114620001b657600080fd5b50565b6112f780620001c96000396000f3fe608060405234801561001057600080fd5b50600436106100c95760003560e01c80638da5cb5b11610081578063e30c39781161005b578063e30c397814610176578063e4fc6b6d14610187578063f2fde38b1461019d57600080fd5b80638da5cb5b14610130578063cf1e3b5914610141578063cf713d6e1461015657600080fd5b80634e71e0c8116100b25780634e71e0c8146100f6578063715018a6146100fe578063884bf67c1461010657600080fd5b8063056ea84f146100ce578063063a2298146100e3575b600080fd5b6100e16100dc3660046110c4565b6101b0565b005b6100e16100f1366004611016565b61045f565b6100e161086a565b6100e16108f8565b6003546001600160a01b03165b6040516001600160a01b0390911681526020015b60405180910390f35b6000546001600160a01b0316610113565b61014961096d565b6040516101279190611134565b610169610164366004611102565b6109e4565b6040516101279190611198565b6001546001600160a01b0316610113565b61018f610a47565b604051908152602001610127565b6100e16101ab366004610ff2565b610b23565b336101c36000546001600160a01b031690565b6001600160a01b03161461021e5760405162461bcd60e51b815260206004820152601860248201527f4f776e61626c652f63616c6c65722d6e6f742d6f776e6572000000000000000060448201526064015b60405180910390fd5b60025460ff8216106102985760405162461bcd60e51b815260206004820152602160248201527f5072697a6553706c69742f6e6f6e6578697374656e742d7072697a6573706c6960448201527f74000000000000000000000000000000000000000000000000000000000000006064820152608401610215565b81516001600160a01b03166103145760405162461bcd60e51b8152602060048201526024808201527f5072697a6553706c69742f696e76616c69642d7072697a6573706c69742d746160448201527f72676574000000000000000000000000000000000000000000000000000000006064820152608401610215565b8160028260ff168154811061032b5761032b611293565b60009182526020808320845192018054949091015161ffff16600160a01b0275ffffffffffffffffffffffffffffffffffffffffffff199094166001600160a01b039092169190911792909217909155610383610c5f565b90506103e88111156103fd5760405162461bcd60e51b815260206004820152602e60248201527f5072697a6553706c69742f696e76616c69642d7072697a6573706c69742d706560448201527f7263656e746167652d746f74616c0000000000000000000000000000000000006064820152608401610215565b82600001516001600160a01b03167f0865d776fd684728838c688d6a6a82888f61c57a4032c8c320c24949317b9a3484602001518460405161045292919061ffff92909216825260ff16602082015260400190565b60405180910390a2505050565b336104726000546001600160a01b031690565b6001600160a01b0316146104c85760405162461bcd60e51b815260206004820152601860248201527f4f776e61626c652f63616c6c65722d6e6f742d6f776e657200000000000000006044820152606401610215565b8060005b8181101561074d5760008484838181106104e8576104e8611293565b9050604002018036038101906104fe91906110a8565b80519091506001600160a01b031661057d5760405162461bcd60e51b8152602060048201526024808201527f5072697a6553706c69742f696e76616c69642d7072697a6573706c69742d746160448201527f72676574000000000000000000000000000000000000000000000000000000006064820152608401610215565b6002548210610602576002805460018101825560009190915281517f405787fa12a823e0f2b7631cc41b3ba8828b3321ca811111fa75cd3aa3bb5ace9091018054602084015161ffff16600160a01b0275ffffffffffffffffffffffffffffffffffffffffffff199091166001600160a01b03909316929092179190911790556106e8565b60006002838154811061061757610617611293565b6000918252602091829020604080518082019091529101546001600160a01b03808216808452600160a01b90920461ffff1693830193909352845191935091161415806106745750806020015161ffff16826020015161ffff1614155b156106df57816002848154811061068d5761068d611293565b6000918252602091829020835191018054939092015161ffff16600160a01b0275ffffffffffffffffffffffffffffffffffffffffffff199093166001600160a01b03909116179190911790556106e6565b505061073b565b505b80516020808301516040805161ffff90921682529181018590526001600160a01b03909216917f0865d776fd684728838c688d6a6a82888f61c57a4032c8c320c24949317b9a34910160405180910390a2505b806107458161122c565b9150506104cc565b505b6002548110156107e05760025460009061076b90600190611215565b9050600280548061077e5761077e61127d565b6000828152602081208201600019908101805475ffffffffffffffffffffffffffffffffffffffffffff1916905590910190915560405182917f99fa473fdf53414bcd014cf6e7509fc58c68f7b86174767faa6ad5100cd5bae591a25061074f565b60006107ea610c5f565b90506103e88111156108645760405162461bcd60e51b815260206004820152602e60248201527f5072697a6553706c69742f696e76616c69642d7072697a6573706c69742d706560448201527f7263656e746167652d746f74616c0000000000000000000000000000000000006064820152608401610215565b50505050565b6001546001600160a01b031633146108c45760405162461bcd60e51b815260206004820152601f60248201527f4f776e61626c652f63616c6c65722d6e6f742d70656e64696e674f776e6572006044820152606401610215565b6001546108d9906001600160a01b0316610ceb565b6001805473ffffffffffffffffffffffffffffffffffffffff19169055565b3361090b6000546001600160a01b031690565b6001600160a01b0316146109615760405162461bcd60e51b815260206004820152601860248201527f4f776e61626c652f63616c6c65722d6e6f742d6f776e657200000000000000006044820152606401610215565b61096b6000610ceb565b565b60606002805480602002602001604051908101604052809291908181526020016000905b828210156109db57600084815260209081902060408051808201909152908401546001600160a01b0381168252600160a01b900461ffff1681830152825260019092019101610991565b50505050905090565b604080518082019091526000808252602082015260028281548110610a0b57610a0b611293565b6000918252602091829020604080518082019091529101546001600160a01b0381168252600160a01b900461ffff169181019190915292915050565b600080600360009054906101000a90046001600160a01b03166001600160a01b031663e6d8a94b6040518163ffffffff1660e01b8152600401602060405180830381600087803b158015610a9a57600080fd5b505af1158015610aae573d6000803e3d6000fd5b505050506040513d601f19601f82011682018060405250810190610ad2919061111b565b905080610ae157600091505090565b610aea81610d48565b506040518181527fddc9c30275a04c48091f24199f9c405765de34d979d6847f5b9798a57232d2e59060200160405180910390a1919050565b33610b366000546001600160a01b031690565b6001600160a01b031614610b8c5760405162461bcd60e51b815260206004820152601860248201527f4f776e61626c652f63616c6c65722d6e6f742d6f776e657200000000000000006044820152606401610215565b6001600160a01b038116610c085760405162461bcd60e51b815260206004820152602560248201527f4f776e61626c652f70656e64696e674f776e65722d6e6f742d7a65726f2d616460448201527f64726573730000000000000000000000000000000000000000000000000000006064820152608401610215565b6001805473ffffffffffffffffffffffffffffffffffffffff19166001600160a01b0383169081179091556040517f239a2ddded15777fa246aed5f7e1a9bc69a39d4eb4a397034d1d85766cca7d4c90600090a250565b6002546000908190815b818160ff161015610ce357600060028260ff1681548110610c8c57610c8c611293565b6000918252602091829020604080518082019091529101546001600160a01b0381168252600160a01b900461ffff169181018290529150610ccd90856111bc565b9350508080610cdb90611247565b915050610c69565b509092915050565b600080546001600160a01b0383811673ffffffffffffffffffffffffffffffffffffffff19831681178455604051919092169283917f8be0079c531659141344cd1fd0a4f28419497f9722a3daafe3b4186f6b6457e09190a35050565b6002546000908290825b81811015610de257600060028281548110610d6f57610d6f611293565b60009182526020808320604080518082019091529201546001600160a01b0381168352600160a01b900461ffff16908201819052909250610db1908890610deb565b9050610dc1826000015182610e11565b610dcb8186611215565b945050508080610dda9061122c565b915050610d52565b50929392505050565b60006103e8610dfe61ffff8416856111f6565b610e0891906111d4565b90505b92915050565b600354604080517fc002c4d600000000000000000000000000000000000000000000000000000000815290516000926001600160a01b03169163c002c4d6916004808301926020929190829003018186803b158015610e6f57600080fd5b505afa158015610e83573d6000803e3d6000fd5b505050506040513d601f19601f82011682018060405250810190610ea7919061108b565b6003546040517f5d8a776e0000000000000000000000000000000000000000000000000000000081526001600160a01b03868116600483015260248201869052929350911690635d8a776e90604401600060405180830381600087803b158015610f1057600080fd5b505af1158015610f24573d6000803e3d6000fd5b50505050806001600160a01b0316836001600160a01b03167f40b9722744d0ba62d8b847077d65a712335b6769aa37fff7ad7852ec299222a784604051610f6d91815260200190565b60405180910390a3505050565b600060408284031215610f8c57600080fd5b6040516040810181811067ffffffffffffffff82111715610fbd57634e487b7160e01b600052604160045260246000fd5b6040529050808235610fce816112a9565b8152602083013561ffff81168114610fe557600080fd5b6020919091015292915050565b60006020828403121561100457600080fd5b813561100f816112a9565b9392505050565b6000806020838503121561102957600080fd5b823567ffffffffffffffff8082111561104157600080fd5b818501915085601f83011261105557600080fd5b81358181111561106457600080fd5b8660208260061b850101111561107957600080fd5b60209290920196919550909350505050565b60006020828403121561109d57600080fd5b815161100f816112a9565b6000604082840312156110ba57600080fd5b610e088383610f7a565b600080606083850312156110d757600080fd5b6110e18484610f7a565b9150604083013560ff811681146110f757600080fd5b809150509250929050565b60006020828403121561111457600080fd5b5035919050565b60006020828403121561112d57600080fd5b5051919050565b602080825282518282018190526000919060409081850190868401855b8281101561118b5761117b84835180516001600160a01b0316825260209081015161ffff16910152565b9284019290850190600101611151565b5091979650505050505050565b81516001600160a01b0316815260208083015161ffff169082015260408101610e0b565b600082198211156111cf576111cf611267565b500190565b6000826111f157634e487b7160e01b600052601260045260246000fd5b500490565b600081600019048311821515161561121057611210611267565b500290565b60008282101561122757611227611267565b500390565b600060001982141561124057611240611267565b5060010190565b600060ff821660ff81141561125e5761125e611267565b60010192915050565b634e487b7160e01b600052601160045260246000fd5b634e487b7160e01b600052603160045260246000fd5b634e487b7160e01b600052603260045260246000fd5b6001600160a01b03811681146112be57600080fd5b5056fea2646970667358221220df7dc7335c98d07975aa38c5773a2248fd452a12e357ae265c32084da30ddb6364736f6c63430008060033",
  "linkReferences": {},
  "deployedLinkReferences": {}
}