{
  "_format": "hh-sol-artifact-1",
  "contractName": "CTokenRegistry",
  "sourceName": "contracts/actions/topup/handlers/CTokenRegistry.sol",
  "abi": [
    {
      "inputs": [
        {
          "internalType": "address",
          "name": "comptrollerAddress",
          "type": "address"
        }
      ],
      "stateMutability": "nonpayable",
      "type": "constructor"
    },
    {
      "inputs": [],
      "name": "COMPTROLLER_MAINNET_ADDRESS",
      "outputs": [
        {
          "internalType": "address",
          "name": "",
          "type": "address"
        }
      ],
      "stateMutability": "view",
      "type": "function"
    },
    {
      "inputs": [],
      "name": "comptroller",
      "outputs": [
        {
          "internalType": "contract Comptroller",
          "name": "",
          "type": "address"
        }
      ],
      "stateMutability": "view",
      "type": "function"
    },
    {
      "inputs": [
        {
          "internalType": "address",
          "name": "underlying",
          "type": "address"
        }
      ],
      "name": "fetchCToken",
      "outputs": [
        {
          "internalType": "contract CToken",
          "name": "",
          "type": "address"
        }
      ],
      "stateMutability": "nonpayable",
      "type": "function"
    },
    {
      "inputs": [
        {
          "internalType": "address",
          "name": "underlying",
          "type": "address"
        }
      ],
      "name": "getCToken",
      "outputs": [
        {
          "internalType": "contract CToken",
          "name": "",
          "type": "address"
        }
      ],
      "stateMutability": "view",
      "type": "function"
    },
    {
      "inputs": [
        {
          "internalType": "address",
          "name": "underlying",
          "type": "address"
        },
        {
          "internalType": "bool",
          "name": "ensureExists",
          "type": "bool"
        }
      ],
      "name": "getCToken",
      "outputs": [
        {
          "internalType": "contract CToken",
          "name": "",
          "type": "address"
        }
      ],
      "stateMutability": "view",
      "type": "function"
    }
  ],
  "bytecode": "0x60a06040523480156200001157600080fd5b506040516200111338038062001113833981016040819052620000349162000469565b6001600160a01b0381166080526200004b62000052565b506200073b565b60006080516001600160a01b031663b0772d0b6040518163ffffffff1660e01b815260040160006040518083038186803b1580156200009057600080fd5b505afa158015620000a5573d6000803e3d6000fd5b505050506040513d6000823e601f3d908101601f19168201604052620000cf9190810190620004d9565b905060005b8151811015620002f7576000828281518110620000f557620000f562000597565b602002602001015190506200011081620002fb60201b60201c565b6200011c5750620002e2565b604051630c68aa8960e31b602082015260240160405160208183030381529060405280519060200120816001600160a01b03166395d89b416040518163ffffffff1660e01b815260040160006040518083038186803b1580156200017f57600080fd5b505afa15801562000194573d6000803e3d6000fd5b505050506040513d6000823e601f3d908101601f19168201604052620001be9190810190620005e0565b604051602001620001d091906200067e565b604051602081830303815290604052805190602001201415620002355760008080526020527fad3228b676f7d3cd4284a5443f17f1962b36e491b30a40b2405849e597ba5fb580546001600160a01b0319166001600160a01b038316179055620002e0565b80600080836001600160a01b0316636f307dc36040518163ffffffff1660e01b815260040160206040518083038186803b1580156200027357600080fd5b505afa15801562000288573d6000803e3d6000fd5b505050506040513d601f19601f82011682018060405250810190620002ae919062000469565b6001600160a01b039081168252602082019290925260400160002080546001600160a01b031916929091169190911790555b505b80620002ee816200069c565b915050620000d4565b5050565b608051604051638e8f294b60e01b81526001600160a01b0383811660048301526000928392911690638e8f294b9060240160606040518083038186803b1580156200034557600080fd5b505afa1580156200035a573d6000803e3d6000fd5b505050506040513d601f19601f82011682018060405250810190620003809190620006dc565b505090506000733d9819210a31b4961b30ef54be2aed79b9c9cd3b6001600160a01b03166080516001600160a01b03161480156200043a57506080516040516394543c1560e01b81526001600160a01b038681166004830152909116906394543c159060240160206040518083038186803b158015620003ff57600080fd5b505afa15801562000414573d6000803e3d6000fd5b505050506040513d601f19601f820116820180604052508101906200043a91906200071d565b905081801562000448575080155b949350505050565b6001600160a01b03811681146200046657600080fd5b50565b6000602082840312156200047c57600080fd5b8151620004898162000450565b9392505050565b634e487b7160e01b600052604160045260246000fd5b604051601f8201601f191681016001600160401b0381118282101715620004d157620004d162000490565b604052919050565b60006020808385031215620004ed57600080fd5b82516001600160401b03808211156200050557600080fd5b818501915085601f8301126200051a57600080fd5b8151818111156200052f576200052f62000490565b8060051b915062000542848301620004a6565b81815291830184019184810190888411156200055d57600080fd5b938501935b838510156200058b57845192506200057a8362000450565b828252938501939085019062000562565b98975050505050505050565b634e487b7160e01b600052603260045260246000fd5b60005b83811015620005ca578181015183820152602001620005b0565b83811115620005da576000848401525b50505050565b600060208284031215620005f357600080fd5b81516001600160401b03808211156200060b57600080fd5b818401915084601f8301126200062057600080fd5b81518181111562000635576200063562000490565b6200064a601f8201601f1916602001620004a6565b91508082528560208285010111156200066257600080fd5b62000675816020840160208601620005ad565b50949350505050565b6000825162000692818460208701620005ad565b9190910192915050565b6000600019821415620006bf57634e487b7160e01b600052601160045260246000fd5b5060010190565b80518015158114620006d757600080fd5b919050565b600080600060608486031215620006f257600080fd5b620006fd84620006c6565b9250602084015191506200071460408501620006c6565b90509250925092565b6000602082840312156200073057600080fd5b6200048982620006c6565b6080516109a162000772600039600081816090015281816101e3015281816104a901528181610549015261059801526109a16000f3fe608060405234801561001057600080fd5b50600436106100575760003560e01c80632e3882351461005c5780635fe3b5671461008b5780637e5a4eb9146100b2578063b6bbc950146100c5578063f3748fc8146100d8575b600080fd5b61006f61006a36600461063f565b6100f3565b6040516001600160a01b03909116815260200160405180910390f35b61006f7f000000000000000000000000000000000000000000000000000000000000000081565b61006f6100c036600461063f565b610132565b61006f6100d336600461066a565b610145565b61006f733d9819210a31b4961b30ef54be2aed79b9c9cd3b81565b600080610101836000610145565b90506001600160a01b038116156101185792915050565b6101206101df565b61012b836001610145565b9392505050565b600061013f826001610145565b92915050565b6001600160a01b0380831660009081526020819052604081205490911682801561018657506001600160a01b0381161580610186575061018481610485565b155b1561012b57604080518082018252601e81527f756e6465726c79696e6720746f6b656e206e6f7420737570706f7274656400006020820152905162461bcd60e51b81526101d691906004016106d3565b60405180910390fd5b60007f00000000000000000000000000000000000000000000000000000000000000006001600160a01b031663b0772d0b6040518163ffffffff1660e01b815260040160006040518083038186803b15801561023a57600080fd5b505afa15801561024e573d6000803e3d6000fd5b505050506040513d6000823e601f3d908101601f19168201604052610276919081019061074d565b905060005b8151811015610481576000828281518110610298576102986107ff565b602002602001015190506102ab81610485565b6102b5575061046f565b604051630c68aa8960e31b602082015260240160405160208183030381529060405280519060200120816001600160a01b03166395d89b416040518163ffffffff1660e01b815260040160006040518083038186803b15801561031757600080fd5b505afa15801561032b573d6000803e3d6000fd5b505050506040513d6000823e601f3d908101601f191682016040526103539190810190610815565b60405160200161036391906108a9565b6040516020818303038152906040528051906020012014156103c65760008080526020527fad3228b676f7d3cd4284a5443f17f1962b36e491b30a40b2405849e597ba5fb580546001600160a01b0319166001600160a01b03831617905561046d565b80600080836001600160a01b0316636f307dc36040518163ffffffff1660e01b815260040160206040518083038186803b15801561040357600080fd5b505afa158015610417573d6000803e3d6000fd5b505050506040513d601f19601f8201168201806040525081019061043b91906108c5565b6001600160a01b039081168252602082019290925260400160002080546001600160a01b031916929091169190911790555b505b80610479816108e2565b91505061027b565b5050565b604051638e8f294b60e01b81526001600160a01b03828116600483015260009182917f00000000000000000000000000000000000000000000000000000000000000001690638e8f294b9060240160606040518083038186803b1580156104eb57600080fd5b505afa1580156104ff573d6000803e3d6000fd5b505050506040513d601f19601f82011682018060405250810190610523919061090b565b505090506000733d9819210a31b4961b30ef54be2aed79b9c9cd3b6001600160a01b03167f00000000000000000000000000000000000000000000000000000000000000006001600160a01b031614801561061257506040516394543c1560e01b81526001600160a01b0385811660048301527f000000000000000000000000000000000000000000000000000000000000000016906394543c159060240160206040518083038186803b1580156105da57600080fd5b505afa1580156105ee573d6000803e3d6000fd5b505050506040513d601f19601f82011682018060405250810190610612919061094e565b905081801561061f575080155b949350505050565b6001600160a01b038116811461063c57600080fd5b50565b60006020828403121561065157600080fd5b813561012b81610627565b801515811461063c57600080fd5b6000806040838503121561067d57600080fd5b823561068881610627565b915060208301356106988161065c565b809150509250929050565b60005b838110156106be5781810151838201526020016106a6565b838111156106cd576000848401525b50505050565b60208152600082518060208401526106f28160408501602087016106a3565b601f01601f19169190910160400192915050565b634e487b7160e01b600052604160045260246000fd5b604051601f8201601f1916810167ffffffffffffffff8111828210171561074557610745610706565b604052919050565b6000602080838503121561076057600080fd5b825167ffffffffffffffff8082111561077857600080fd5b818501915085601f83011261078c57600080fd5b81518181111561079e5761079e610706565b8060051b91506107af84830161071c565b81815291830184019184810190888411156107c957600080fd5b938501935b838510156107f357845192506107e383610627565b82825293850193908501906107ce565b98975050505050505050565b634e487b7160e01b600052603260045260246000fd5b60006020828403121561082757600080fd5b815167ffffffffffffffff8082111561083f57600080fd5b818401915084601f83011261085357600080fd5b81518181111561086557610865610706565b610878601f8201601f191660200161071c565b915080825285602082850101111561088f57600080fd5b6108a08160208401602086016106a3565b50949350505050565b600082516108bb8184602087016106a3565b9190910192915050565b6000602082840312156108d757600080fd5b815161012b81610627565b600060001982141561090457634e487b7160e01b600052601160045260246000fd5b5060010190565b60008060006060848603121561092057600080fd5b835161092b8161065c565b6020850151604086015191945092506109438161065c565b809150509250925092565b60006020828403121561096057600080fd5b815161012b8161065c56fea2646970667358221220a9e0191ab6dabee91de57a82d4db86575b83a57f002504f6685be04e5e8e78bf64736f6c63430008090033",
  "linkReferences": {},
  "deployedLinkReferences": {}
}