{
  "_format": "hh-sol-artifact-1",
  "contractName": "VUSD",
  "sourceName": "contracts/VUSD.sol",
  "abi": [
    {
      "inputs": [
        {
          "internalType": "address",
          "name": "_reserveToken",
          "type": "address"
        }
      ],
      "stateMutability": "nonpayable",
      "type": "constructor"
    },
    {
      "anonymous": false,
      "inputs": [
        {
          "indexed": true,
          "internalType": "address",
          "name": "owner",
          "type": "address"
        },
        {
          "indexed": true,
          "internalType": "address",
          "name": "spender",
          "type": "address"
        },
        {
          "indexed": false,
          "internalType": "uint256",
          "name": "value",
          "type": "uint256"
        }
      ],
      "name": "Approval",
      "type": "event"
    },
    {
      "anonymous": false,
      "inputs": [
        {
          "indexed": false,
          "internalType": "address",
          "name": "account",
          "type": "address"
        }
      ],
      "name": "Paused",
      "type": "event"
    },
    {
      "anonymous": false,
      "inputs": [
        {
          "indexed": true,
          "internalType": "bytes32",
          "name": "role",
          "type": "bytes32"
        },
        {
          "indexed": true,
          "internalType": "bytes32",
          "name": "previousAdminRole",
          "type": "bytes32"
        },
        {
          "indexed": true,
          "internalType": "bytes32",
          "name": "newAdminRole",
          "type": "bytes32"
        }
      ],
      "name": "RoleAdminChanged",
      "type": "event"
    },
    {
      "anonymous": false,
      "inputs": [
        {
          "indexed": true,
          "internalType": "bytes32",
          "name": "role",
          "type": "bytes32"
        },
        {
          "indexed": true,
          "internalType": "address",
          "name": "account",
          "type": "address"
        },
        {
          "indexed": true,
          "internalType": "address",
          "name": "sender",
          "type": "address"
        }
      ],
      "name": "RoleGranted",
      "type": "event"
    },
    {
      "anonymous": false,
      "inputs": [
        {
          "indexed": true,
          "internalType": "bytes32",
          "name": "role",
          "type": "bytes32"
        },
        {
          "indexed": true,
          "internalType": "address",
          "name": "account",
          "type": "address"
        },
        {
          "indexed": true,
          "internalType": "address",
          "name": "sender",
          "type": "address"
        }
      ],
      "name": "RoleRevoked",
      "type": "event"
    },
    {
      "anonymous": false,
      "inputs": [
        {
          "indexed": true,
          "internalType": "address",
          "name": "from",
          "type": "address"
        },
        {
          "indexed": true,
          "internalType": "address",
          "name": "to",
          "type": "address"
        },
        {
          "indexed": false,
          "internalType": "uint256",
          "name": "value",
          "type": "uint256"
        }
      ],
      "name": "Transfer",
      "type": "event"
    },
    {
      "anonymous": false,
      "inputs": [
        {
          "indexed": false,
          "internalType": "address",
          "name": "account",
          "type": "address"
        }
      ],
      "name": "Unpaused",
      "type": "event"
    },
    {
      "inputs": [],
      "name": "DEFAULT_ADMIN_ROLE",
      "outputs": [
        {
          "internalType": "bytes32",
          "name": "",
          "type": "bytes32"
        }
      ],
      "stateMutability": "view",
      "type": "function"
    },
    {
      "inputs": [],
      "name": "MINTER_ROLE",
      "outputs": [
        {
          "internalType": "bytes32",
          "name": "",
          "type": "bytes32"
        }
      ],
      "stateMutability": "view",
      "type": "function"
    },
    {
      "inputs": [],
      "name": "PAUSER_ROLE",
      "outputs": [
        {
          "internalType": "bytes32",
          "name": "",
          "type": "bytes32"
        }
      ],
      "stateMutability": "view",
      "type": "function"
    },
    {
      "inputs": [
        {
          "internalType": "address",
          "name": "owner",
          "type": "address"
        },
        {
          "internalType": "address",
          "name": "spender",
          "type": "address"
        }
      ],
      "name": "allowance",
      "outputs": [
        {
          "internalType": "uint256",
          "name": "",
          "type": "uint256"
        }
      ],
      "stateMutability": "view",
      "type": "function"
    },
    {
      "inputs": [
        {
          "internalType": "address",
          "name": "spender",
          "type": "address"
        },
        {
          "internalType": "uint256",
          "name": "amount",
          "type": "uint256"
        }
      ],
      "name": "approve",
      "outputs": [
        {
          "internalType": "bool",
          "name": "",
          "type": "bool"
        }
      ],
      "stateMutability": "nonpayable",
      "type": "function"
    },
    {
      "inputs": [
        {
          "internalType": "address",
          "name": "account",
          "type": "address"
        }
      ],
      "name": "balanceOf",
      "outputs": [
        {
          "internalType": "uint256",
          "name": "",
          "type": "uint256"
        }
      ],
      "stateMutability": "view",
      "type": "function"
    },
    {
      "inputs": [
        {
          "internalType": "uint256",
          "name": "amount",
          "type": "uint256"
        }
      ],
      "name": "burn",
      "outputs": [],
      "stateMutability": "nonpayable",
      "type": "function"
    },
    {
      "inputs": [
        {
          "internalType": "address",
          "name": "account",
          "type": "address"
        },
        {
          "internalType": "uint256",
          "name": "amount",
          "type": "uint256"
        }
      ],
      "name": "burnFrom",
      "outputs": [],
      "stateMutability": "nonpayable",
      "type": "function"
    },
    {
      "inputs": [],
      "name": "decimals",
      "outputs": [
        {
          "internalType": "uint8",
          "name": "",
          "type": "uint8"
        }
      ],
      "stateMutability": "pure",
      "type": "function"
    },
    {
      "inputs": [
        {
          "internalType": "address",
          "name": "spender",
          "type": "address"
        },
        {
          "internalType": "uint256",
          "name": "subtractedValue",
          "type": "uint256"
        }
      ],
      "name": "decreaseAllowance",
      "outputs": [
        {
          "internalType": "bool",
          "name": "",
          "type": "bool"
        }
      ],
      "stateMutability": "nonpayable",
      "type": "function"
    },
    {
      "inputs": [
        {
          "internalType": "bytes32",
          "name": "role",
          "type": "bytes32"
        }
      ],
      "name": "getRoleAdmin",
      "outputs": [
        {
          "internalType": "bytes32",
          "name": "",
          "type": "bytes32"
        }
      ],
      "stateMutability": "view",
      "type": "function"
    },
    {
      "inputs": [
        {
          "internalType": "bytes32",
          "name": "role",
          "type": "bytes32"
        },
        {
          "internalType": "uint256",
          "name": "index",
          "type": "uint256"
        }
      ],
      "name": "getRoleMember",
      "outputs": [
        {
          "internalType": "address",
          "name": "",
          "type": "address"
        }
      ],
      "stateMutability": "view",
      "type": "function"
    },
    {
      "inputs": [
        {
          "internalType": "bytes32",
          "name": "role",
          "type": "bytes32"
        }
      ],
      "name": "getRoleMemberCount",
      "outputs": [
        {
          "internalType": "uint256",
          "name": "",
          "type": "uint256"
        }
      ],
      "stateMutability": "view",
      "type": "function"
    },
    {
      "inputs": [],
      "name": "governance",
      "outputs": [
        {
          "internalType": "address",
          "name": "",
          "type": "address"
        }
      ],
      "stateMutability": "view",
      "type": "function"
    },
    {
      "inputs": [
        {
          "internalType": "bytes32",
          "name": "role",
          "type": "bytes32"
        },
        {
          "internalType": "address",
          "name": "account",
          "type": "address"
        }
      ],
      "name": "grantRole",
      "outputs": [],
      "stateMutability": "nonpayable",
      "type": "function"
    },
    {
      "inputs": [
        {
          "internalType": "bytes32",
          "name": "role",
          "type": "bytes32"
        },
        {
          "internalType": "address",
          "name": "account",
          "type": "address"
        }
      ],
      "name": "hasRole",
      "outputs": [
        {
          "internalType": "bool",
          "name": "",
          "type": "bool"
        }
      ],
      "stateMutability": "view",
      "type": "function"
    },
    {
      "inputs": [
        {
          "internalType": "address",
          "name": "spender",
          "type": "address"
        },
        {
          "internalType": "uint256",
          "name": "addedValue",
          "type": "uint256"
        }
      ],
      "name": "increaseAllowance",
      "outputs": [
        {
          "internalType": "bool",
          "name": "",
          "type": "bool"
        }
      ],
      "stateMutability": "nonpayable",
      "type": "function"
    },
    {
      "inputs": [
        {
          "internalType": "address",
          "name": "_governance",
          "type": "address"
        }
      ],
      "name": "init",
      "outputs": [],
      "stateMutability": "nonpayable",
      "type": "function"
    },
    {
      "inputs": [
        {
          "internalType": "string",
          "name": "name",
          "type": "string"
        },
        {
          "internalType": "string",
          "name": "symbol",
          "type": "string"
        }
      ],
      "name": "initialize",
      "outputs": [],
      "stateMutability": "nonpayable",
      "type": "function"
    },
    {
      "inputs": [],
      "name": "maxWithdrawalProcesses",
      "outputs": [
        {
          "internalType": "uint256",
          "name": "",
          "type": "uint256"
        }
      ],
      "stateMutability": "view",
      "type": "function"
    },
    {
      "inputs": [
        {
          "internalType": "address",
          "name": "to",
          "type": "address"
        },
        {
          "internalType": "uint256",
          "name": "amount",
          "type": "uint256"
        }
      ],
      "name": "mint",
      "outputs": [],
      "stateMutability": "nonpayable",
      "type": "function"
    },
    {
      "inputs": [
        {
          "internalType": "address",
          "name": "to",
          "type": "address"
        },
        {
          "internalType": "uint256",
          "name": "amount",
          "type": "uint256"
        }
      ],
      "name": "mintWithReserve",
      "outputs": [],
      "stateMutability": "nonpayable",
      "type": "function"
    },
    {
      "inputs": [],
      "name": "name",
      "outputs": [
        {
          "internalType": "string",
          "name": "",
          "type": "string"
        }
      ],
      "stateMutability": "view",
      "type": "function"
    },
    {
      "inputs": [],
      "name": "pause",
      "outputs": [],
      "stateMutability": "nonpayable",
      "type": "function"
    },
    {
      "inputs": [],
      "name": "paused",
      "outputs": [
        {
          "internalType": "bool",
          "name": "",
          "type": "bool"
        }
      ],
      "stateMutability": "view",
      "type": "function"
    },
    {
      "inputs": [],
      "name": "processWithdrawals",
      "outputs": [],
      "stateMutability": "nonpayable",
      "type": "function"
    },
    {
      "inputs": [
        {
          "internalType": "bytes32",
          "name": "role",
          "type": "bytes32"
        },
        {
          "internalType": "address",
          "name": "account",
          "type": "address"
        }
      ],
      "name": "renounceRole",
      "outputs": [],
      "stateMutability": "nonpayable",
      "type": "function"
    },
    {
      "inputs": [],
      "name": "reserveToken",
      "outputs": [
        {
          "internalType": "contract IERC20",
          "name": "",
          "type": "address"
        }
      ],
      "stateMutability": "view",
      "type": "function"
    },
    {
      "inputs": [
        {
          "internalType": "bytes32",
          "name": "role",
          "type": "bytes32"
        },
        {
          "internalType": "address",
          "name": "account",
          "type": "address"
        }
      ],
      "name": "revokeRole",
      "outputs": [],
      "stateMutability": "nonpayable",
      "type": "function"
    },
    {
      "inputs": [
        {
          "internalType": "address",
          "name": "_governance",
          "type": "address"
        }
      ],
      "name": "setGovernace",
      "outputs": [],
      "stateMutability": "nonpayable",
      "type": "function"
    },
    {
      "inputs": [
        {
          "internalType": "uint256",
          "name": "_maxWithdrawalProcesses",
          "type": "uint256"
        }
      ],
      "name": "setMaxWithdrawalProcesses",
      "outputs": [],
      "stateMutability": "nonpayable",
      "type": "function"
    },
    {
      "inputs": [],
      "name": "start",
      "outputs": [
        {
          "internalType": "uint256",
          "name": "",
          "type": "uint256"
        }
      ],
      "stateMutability": "view",
      "type": "function"
    },
    {
      "inputs": [
        {
          "internalType": "bytes4",
          "name": "interfaceId",
          "type": "bytes4"
        }
      ],
      "name": "supportsInterface",
      "outputs": [
        {
          "internalType": "bool",
          "name": "",
          "type": "bool"
        }
      ],
      "stateMutability": "view",
      "type": "function"
    },
    {
      "inputs": [],
      "name": "symbol",
      "outputs": [
        {
          "internalType": "string",
          "name": "",
          "type": "string"
        }
      ],
      "stateMutability": "view",
      "type": "function"
    },
    {
      "inputs": [],
      "name": "totalSupply",
      "outputs": [
        {
          "internalType": "uint256",
          "name": "",
          "type": "uint256"
        }
      ],
      "stateMutability": "view",
      "type": "function"
    },
    {
      "inputs": [
        {
          "internalType": "address",
          "name": "recipient",
          "type": "address"
        },
        {
          "internalType": "uint256",
          "name": "amount",
          "type": "uint256"
        }
      ],
      "name": "transfer",
      "outputs": [
        {
          "internalType": "bool",
          "name": "",
          "type": "bool"
        }
      ],
      "stateMutability": "nonpayable",
      "type": "function"
    },
    {
      "inputs": [
        {
          "internalType": "address",
          "name": "sender",
          "type": "address"
        },
        {
          "internalType": "address",
          "name": "recipient",
          "type": "address"
        },
        {
          "internalType": "uint256",
          "name": "amount",
          "type": "uint256"
        }
      ],
      "name": "transferFrom",
      "outputs": [
        {
          "internalType": "bool",
          "name": "",
          "type": "bool"
        }
      ],
      "stateMutability": "nonpayable",
      "type": "function"
    },
    {
      "inputs": [],
      "name": "unpause",
      "outputs": [],
      "stateMutability": "nonpayable",
      "type": "function"
    },
    {
      "inputs": [
        {
          "internalType": "uint256",
          "name": "amount",
          "type": "uint256"
        }
      ],
      "name": "withdraw",
      "outputs": [],
      "stateMutability": "nonpayable",
      "type": "function"
    },
    {
      "inputs": [
        {
          "internalType": "uint256",
          "name": "",
          "type": "uint256"
        }
      ],
      "name": "withdrawals",
      "outputs": [
        {
          "internalType": "address",
          "name": "usr",
          "type": "address"
        },
        {
          "internalType": "uint256",
          "name": "amount",
          "type": "uint256"
        }
      ],
      "stateMutability": "view",
      "type": "function"
    }
  ],
  "bytecode": "0x60a06040523480156200001157600080fd5b506040516200532e3803806200532e83398181016040528101906200003791906200014f565b600073ffffffffffffffffffffffffffffffffffffffff168173ffffffffffffffffffffffffffffffffffffffff161415620000aa576040517f08c379a0000000000000000000000000000000000000000000000000000000008152600401620000a190620001e2565b60405180910390fd5b8073ffffffffffffffffffffffffffffffffffffffff1660808173ffffffffffffffffffffffffffffffffffffffff16815250505062000204565b600080fd5b600073ffffffffffffffffffffffffffffffffffffffff82169050919050565b60006200011782620000ea565b9050919050565b62000129816200010a565b81146200013557600080fd5b50565b60008151905062000149816200011e565b92915050565b600060208284031215620001685762000167620000e5565b5b6000620001788482850162000138565b91505092915050565b600082825260208201905092915050565b7f765553443a206e756c6c205f72657365727665546f6b656e0000000000000000600082015250565b6000620001ca60188362000181565b9150620001d78262000192565b602082019050919050565b60006020820190508181036000830152620001fd81620001bb565b9050919050565b6080516150f96200023560003960008181610a6d01528181610c690152818161171c015261174601526150f96000f3fe608060405234801561001057600080fd5b50600436106102485760003560e01c806370a082311161013b578063a457c2d7116100b8578063d547741f1161007c578063d547741f146106f0578063dd62ed3e1461070c578063e63ab1e91461073c578063f4325d671461075a578063f99bbc071461077857610248565b8063a457c2d714610624578063a9059cbb14610654578063be9a655514610684578063ca15c873146106a2578063d5391393146106d257610248565b80639010d07c116100ff5780639010d07c1461056a57806391d148541461059a57806395d89b41146105ca578063a217fddf146105e8578063a2ca056e1461060657610248565b806370a08231146104dc57806379cc67901461050c5780638456cb5914610528578063851e3ca5146105325780638dcb6b871461054e57610248565b8063313ce567116101c957806342966c681161018d57806342966c68146104375780634cd88b76146104535780635aa6e6751461046f5780635c975abb1461048d5780635cc07076146104ab57610248565b8063313ce567146103a757806336568abe146103c557806339509351146103e15780633f4ba83a1461041157806340c10f191461041b57610248565b806323b872dd1161021057806323b872dd14610305578063248a9ca3146103355780632a228fc2146103655780632e1a7d4d1461036f5780632f2ff15d1461038b57610248565b806301ffc9a71461024d57806306fdde031461027d578063095ea7b31461029b57806318160ddd146102cb57806319ab453c146102e9575b600080fd5b61026760048036038101906102629190613864565b610794565b60405161027491906138ac565b60405180910390f35b61028561080e565b6040516102929190613960565b60405180910390f35b6102b560048036038101906102b09190613a16565b6108a0565b6040516102c291906138ac565b60405180910390f35b6102d36108be565b6040516102e09190613a65565b60405180910390f35b61030360048036038101906102fe9190613a80565b6108c8565b005b61031f600480360381019061031a9190613aad565b610951565b60405161032c91906138ac565b60405180910390f35b61034f600480360381019061034a9190613b36565b610a49565b60405161035c9190613b72565b60405180910390f35b61036d610a69565b005b61038960048036038101906103849190613b8d565b610ce0565b005b6103a560048036038101906103a09190613bba565b610d96565b005b6103af610dca565b6040516103bc9190613c16565b60405180910390f35b6103df60048036038101906103da9190613bba565b610dd3565b005b6103fb60048036038101906103f69190613a16565b610e07565b60405161040891906138ac565b60405180910390f35b610419610eb3565b005b61043560048036038101906104309190613a16565b610f2d565b005b610451600480360381019061044c9190613b8d565b610fab565b005b61046d60048036038101906104689190613d66565b610fbf565b005b6104776110a7565b6040516104849190613ded565b60405180910390f35b6104956110cb565b6040516104a291906138ac565b60405180910390f35b6104c560048036038101906104c09190613b8d565b6110e3565b6040516104d3929190613e08565b60405180910390f35b6104f660048036038101906104f19190613a80565b611138565b6040516105039190613a65565b60405180910390f35b61052660048036038101906105219190613a16565b611181565b005b6105306111fc565b005b61054c60048036038101906105479190613a80565b611276565b005b61056860048036038101906105639190613b8d565b611310565b005b610584600480360381019061057f9190613e31565b6113a9565b6040516105919190613ded565b60405180910390f35b6105b460048036038101906105af9190613bba565b6113d8565b6040516105c191906138ac565b60405180910390f35b6105d2611443565b6040516105df9190613960565b60405180910390f35b6105f06114d5565b6040516105fd9190613b72565b60405180910390f35b61060e6114dc565b60405161061b9190613a65565b60405180910390f35b61063e60048036038101906106399190613a16565b6114e3565b60405161064b91906138ac565b60405180910390f35b61066e60048036038101906106699190613a16565b6115ce565b60405161067b91906138ac565b60405180910390f35b61068c6115ec565b6040516106999190613a65565b60405180910390f35b6106bc60048036038101906106b79190613b36565b6115f3565b6040516106c99190613a65565b60405180910390f35b6106da611617565b6040516106e79190613b72565b60405180910390f35b61070a60048036038101906107059190613bba565b61163b565b005b61072660048036038101906107219190613e71565b61166f565b6040516107339190613a65565b60405180910390f35b6107446116f6565b6040516107519190613b72565b60405180910390f35b61076261171a565b60405161076f9190613f10565b60405180910390f35b610792600480360381019061078d9190613a16565b61173e565b005b60007f5a05180f000000000000000000000000000000000000000000000000000000007bffffffffffffffffffffffffffffffffffffffffffffffffffffffff1916827bffffffffffffffffffffffffffffffffffffffffffffffffffffffff19161480610807575061080682611799565b5b9050919050565b606060cc805461081d90613f5a565b80601f016020809104026020016040519081016040528092919081815260200182805461084990613f5a565b80156108965780601f1061086b57610100808354040283529160200191610896565b820191906000526020600020905b81548152906001019060200180831161087957829003601f168201915b5050505050905090565b60006108b46108ad611813565b848461181b565b6001905092915050565b600060cb54905090565b61093c6040518060400160405280600a81526020017f487562626c6520555344000000000000000000000000000000000000000000008152506040518060400160405280600481526020017f6855534400000000000000000000000000000000000000000000000000000000815250610fbf565b610945816119e6565b60646101c58190555050565b600061095e848484611a29565b600060ca60008673ffffffffffffffffffffffffffffffffffffffff1673ffffffffffffffffffffffffffffffffffffffff16815260200190815260200160002060006109a9611813565b73ffffffffffffffffffffffffffffffffffffffff1673ffffffffffffffffffffffffffffffffffffffff16815260200190815260200160002054905082811015610a29576040517f08c379a0000000000000000000000000000000000000000000000000000000008152600401610a2090613ffe565b60405180910390fd5b610a3d85610a35611813565b85840361181b565b60019150509392505050565b600060656000838152602001908152602001600020600101549050919050565b60007f000000000000000000000000000000000000000000000000000000000000000073ffffffffffffffffffffffffffffffffffffffff166370a08231306040518263ffffffff1660e01b8152600401610ac49190613ded565b60206040518083038186803b158015610adc57600080fd5b505afa158015610af0573d6000803e3d6000fd5b505050506040513d601f19601f82011682018060405250810190610b149190614033565b90506101c36101c45481548110610b2e57610b2d614060565b5b906000526020600020906002020160010154811015610b82576040517f08c379a0000000000000000000000000000000000000000000000000000000008152600401610b7990614101565b60405180910390fd5b60006101c45490505b6101c38054905081108015610bb157506101c5546101c45482610bae9190614150565b11155b15610cd45760006101c38281548110610bcd57610bcc614060565b5b90600052602060002090600202016040518060400160405290816000820160009054906101000a900473ffffffffffffffffffffffffffffffffffffffff1673ffffffffffffffffffffffffffffffffffffffff1673ffffffffffffffffffffffffffffffffffffffff16815260200160018201548152505090508060200151831015610c5a5750610cd4565b610cad816000015182602001517f000000000000000000000000000000000000000000000000000000000000000073ffffffffffffffffffffffffffffffffffffffff16611cad9092919063ffffffff16565b806020015183610cbd9190614150565b9250600182610ccc9190614184565b915050610b8b565b806101c4819055505050565b610ce981610fab565b6101c360405180604001604052803373ffffffffffffffffffffffffffffffffffffffff16815260200183815250908060018154018082558091505060019003906000526020600020906002020160009091909190915060008201518160000160006101000a81548173ffffffffffffffffffffffffffffffffffffffff021916908373ffffffffffffffffffffffffffffffffffffffff16021790555060208201518160010155505050565b610da08282611d33565b610dc58160976000858152602001908152602001600020611d5c90919063ffffffff16565b505050565b60006006905090565b610ddd8282611d8c565b610e028160976000858152602001908152602001600020611e0f90919063ffffffff16565b505050565b6000610ea9610e14611813565b848460ca6000610e22611813565b73ffffffffffffffffffffffffffffffffffffffff1673ffffffffffffffffffffffffffffffffffffffff16815260200190815260200160002060008873ffffffffffffffffffffffffffffffffffffffff1673ffffffffffffffffffffffffffffffffffffffff16815260200190815260200160002054610ea49190614184565b61181b565b6001905092915050565b610ee47f65d7a28e3265b37a6474929f336521b332c1681b933f6cb9f3376673440d862a610edf611813565b6113d8565b610f23576040517f08c379a0000000000000000000000000000000000000000000000000000000008152600401610f1a9061424c565b60405180910390fd5b610f2b611e3f565b565b610f5e7f9f2df0fed2c77648de5860a4cc508cd0818c85b8b8a1ab4ceeef8d981c8956a6610f59611813565b6113d8565b610f9d576040517f08c379a0000000000000000000000000000000000000000000000000000000008152600401610f94906142de565b60405180910390fd5b610fa78282611ee2565b5050565b610fbc610fb6611813565b82612043565b50565b600060159054906101000a900460ff1680610fe75750600060149054906101000a900460ff16155b611026576040517f08c379a000000000000000000000000000000000000000000000000000000000815260040161101d90614370565b60405180910390fd5b60008060159054906101000a900460ff161590508015611077576001600060156101000a81548160ff0219169083151502179055506001600060146101000a81548160ff0219169083151502179055505b611081838361221c565b80156110a25760008060156101000a81548160ff0219169083151502179055505b505050565b60008054906101000a900473ffffffffffffffffffffffffffffffffffffffff1681565b600061012d60009054906101000a900460ff16905090565b6101c381815481106110f457600080fd5b90600052602060002090600202016000915090508060000160009054906101000a900473ffffffffffffffffffffffffffffffffffffffff16908060010154905082565b600060c960008373ffffffffffffffffffffffffffffffffffffffff1673ffffffffffffffffffffffffffffffffffffffff168152602001908152602001600020549050919050565b60006111948361118f611813565b61166f565b9050818110156111d9576040517f08c379a00000000000000000000000000000000000000000000000000000000081526004016111d090614402565b60405180910390fd5b6111ed836111e5611813565b84840361181b565b6111f78383612043565b505050565b61122d7f65d7a28e3265b37a6474929f336521b332c1681b933f6cb9f3376673440d862a611228611813565b6113d8565b61126c576040517f08c379a000000000000000000000000000000000000000000000000000000000815260040161126390614494565b60405180910390fd5b611274612346565b565b60008054906101000a900473ffffffffffffffffffffffffffffffffffffffff1673ffffffffffffffffffffffffffffffffffffffff163373ffffffffffffffffffffffffffffffffffffffff1614611304576040517f08c379a00000000000000000000000000000000000000000000000000000000081526004016112fb90614500565b60405180910390fd5b61130d816119e6565b50565b60008054906101000a900473ffffffffffffffffffffffffffffffffffffffff1673ffffffffffffffffffffffffffffffffffffffff163373ffffffffffffffffffffffffffffffffffffffff161461139e576040517f08c379a000000000000000000000000000000000000000000000000000000000815260040161139590614500565b60405180910390fd5b806101c58190555050565b60006113d082609760008681526020019081526020016000206123ea90919063ffffffff16565b905092915050565b60006065600084815260200190815260200160002060000160008373ffffffffffffffffffffffffffffffffffffffff1673ffffffffffffffffffffffffffffffffffffffff16815260200190815260200160002060009054906101000a900460ff16905092915050565b606060cd805461145290613f5a565b80601f016020809104026020016040519081016040528092919081815260200182805461147e90613f5a565b80156114cb5780601f106114a0576101008083540402835291602001916114cb565b820191906000526020600020905b8154815290600101906020018083116114ae57829003601f168201915b5050505050905090565b6000801b81565b6101c55481565b60008060ca60006114f2611813565b73ffffffffffffffffffffffffffffffffffffffff1673ffffffffffffffffffffffffffffffffffffffff16815260200190815260200160002060008573ffffffffffffffffffffffffffffffffffffffff1673ffffffffffffffffffffffffffffffffffffffff168152602001908152602001600020549050828110156115af576040517f08c379a00000000000000000000000000000000000000000000000000000000081526004016115a690614592565b60405180910390fd5b6115c36115ba611813565b8585840361181b565b600191505092915050565b60006115e26115db611813565b8484611a29565b6001905092915050565b6101c45481565b600061161060976000848152602001908152602001600020612404565b9050919050565b7f9f2df0fed2c77648de5860a4cc508cd0818c85b8b8a1ab4ceeef8d981c8956a681565b6116458282612419565b61166a8160976000858152602001908152602001600020611e0f90919063ffffffff16565b505050565b600060ca60008473ffffffffffffffffffffffffffffffffffffffff1673ffffffffffffffffffffffffffffffffffffffff16815260200190815260200160002060008373ffffffffffffffffffffffffffffffffffffffff1673ffffffffffffffffffffffffffffffffffffffff16815260200190815260200160002054905092915050565b7f65d7a28e3265b37a6474929f336521b332c1681b933f6cb9f3376673440d862a81565b7f000000000000000000000000000000000000000000000000000000000000000081565b61178b3330837f000000000000000000000000000000000000000000000000000000000000000073ffffffffffffffffffffffffffffffffffffffff16612442909392919063ffffffff16565b6117958282611ee2565b5050565b60007f7965db0b000000000000000000000000000000000000000000000000000000007bffffffffffffffffffffffffffffffffffffffffffffffffffffffff1916827bffffffffffffffffffffffffffffffffffffffffffffffffffffffff1916148061180c575061180b826124cb565b5b9050919050565b600033905090565b600073ffffffffffffffffffffffffffffffffffffffff168373ffffffffffffffffffffffffffffffffffffffff16141561188b576040517f08c379a000000000000000000000000000000000000000000000000000000000815260040161188290614624565b60405180910390fd5b600073ffffffffffffffffffffffffffffffffffffffff168273ffffffffffffffffffffffffffffffffffffffff1614156118fb576040517f08c379a00000000000000000000000000000000000000000000000000000000081526004016118f2906146b6565b60405180910390fd5b8060ca60008573ffffffffffffffffffffffffffffffffffffffff1673ffffffffffffffffffffffffffffffffffffffff16815260200190815260200160002060008473ffffffffffffffffffffffffffffffffffffffff1673ffffffffffffffffffffffffffffffffffffffff168152602001908152602001600020819055508173ffffffffffffffffffffffffffffffffffffffff168373ffffffffffffffffffffffffffffffffffffffff167f8c5be1e5ebec7d5bd14f71427d1e84f3dd0314c0f7b2291e5b200ac8c7c3b925836040516119d99190613a65565b60405180910390a3505050565b806000806101000a81548173ffffffffffffffffffffffffffffffffffffffff021916908373ffffffffffffffffffffffffffffffffffffffff16021790555050565b600073ffffffffffffffffffffffffffffffffffffffff168373ffffffffffffffffffffffffffffffffffffffff161415611a99576040517f08c379a0000000000000000000000000000000000000000000000000000000008152600401611a9090614748565b60405180910390fd5b600073ffffffffffffffffffffffffffffffffffffffff168273ffffffffffffffffffffffffffffffffffffffff161415611b09576040517f08c379a0000000000000000000000000000000000000000000000000000000008152600401611b00906147da565b60405180910390fd5b611b14838383612535565b600060c960008573ffffffffffffffffffffffffffffffffffffffff1673ffffffffffffffffffffffffffffffffffffffff16815260200190815260200160002054905081811015611b9b576040517f08c379a0000000000000000000000000000000000000000000000000000000008152600401611b929061486c565b60405180910390fd5b81810360c960008673ffffffffffffffffffffffffffffffffffffffff1673ffffffffffffffffffffffffffffffffffffffff168152602001908152602001600020819055508160c960008573ffffffffffffffffffffffffffffffffffffffff1673ffffffffffffffffffffffffffffffffffffffff1681526020019081526020016000206000828254611c309190614184565b925050819055508273ffffffffffffffffffffffffffffffffffffffff168473ffffffffffffffffffffffffffffffffffffffff167fddf252ad1be2c89b69c2b068fc378daa952ba7f163c4a11628f55a4df523b3ef84604051611c949190613a65565b60405180910390a3611ca7848484612545565b50505050565b611d2e8363a9059cbb60e01b8484604051602401611ccc929190613e08565b604051602081830303815290604052907bffffffffffffffffffffffffffffffffffffffffffffffffffffffff19166020820180517bffffffffffffffffffffffffffffffffffffffffffffffffffffffff838183161783525050505061254a565b505050565b611d3c82610a49565b611d4d81611d48611813565b612611565b611d5783836126ae565b505050565b6000611d84836000018373ffffffffffffffffffffffffffffffffffffffff1660001b61278f565b905092915050565b611d94611813565b73ffffffffffffffffffffffffffffffffffffffff168173ffffffffffffffffffffffffffffffffffffffff1614611e01576040517f08c379a0000000000000000000000000000000000000000000000000000000008152600401611df8906148fe565b60405180910390fd5b611e0b82826127ff565b5050565b6000611e37836000018373ffffffffffffffffffffffffffffffffffffffff1660001b6128e1565b905092915050565b611e476110cb565b611e86576040517f08c379a0000000000000000000000000000000000000000000000000000000008152600401611e7d9061496a565b60405180910390fd5b600061012d60006101000a81548160ff0219169083151502179055507f5db9ee0a495bf2e6ff9c91a7834c1ba4fdd244a5e8aa4e537bd38aeae4b073aa611ecb611813565b604051611ed89190613ded565b60405180910390a1565b600073ffffffffffffffffffffffffffffffffffffffff168273ffffffffffffffffffffffffffffffffffffffff161415611f52576040517f08c379a0000000000000000000000000000000000000000000000000000000008152600401611f49906149d6565b60405180910390fd5b611f5e60008383612535565b8060cb6000828254611f709190614184565b925050819055508060c960008473ffffffffffffffffffffffffffffffffffffffff1673ffffffffffffffffffffffffffffffffffffffff1681526020019081526020016000206000828254611fc69190614184565b925050819055508173ffffffffffffffffffffffffffffffffffffffff16600073ffffffffffffffffffffffffffffffffffffffff167fddf252ad1be2c89b69c2b068fc378daa952ba7f163c4a11628f55a4df523b3ef8360405161202b9190613a65565b60405180910390a361203f60008383612545565b5050565b600073ffffffffffffffffffffffffffffffffffffffff168273ffffffffffffffffffffffffffffffffffffffff1614156120b3576040517f08c379a00000000000000000000000000000000000000000000000000000000081526004016120aa90614a68565b60405180910390fd5b6120bf82600083612535565b600060c960008473ffffffffffffffffffffffffffffffffffffffff1673ffffffffffffffffffffffffffffffffffffffff16815260200190815260200160002054905081811015612146576040517f08c379a000000000000000000000000000000000000000000000000000000000815260040161213d90614afa565b60405180910390fd5b81810360c960008573ffffffffffffffffffffffffffffffffffffffff1673ffffffffffffffffffffffffffffffffffffffff168152602001908152602001600020819055508160cb600082825461219e9190614150565b92505081905550600073ffffffffffffffffffffffffffffffffffffffff168373ffffffffffffffffffffffffffffffffffffffff167fddf252ad1be2c89b69c2b068fc378daa952ba7f163c4a11628f55a4df523b3ef846040516122039190613a65565b60405180910390a361221783600084612545565b505050565b600060159054906101000a900460ff16806122445750600060149054906101000a900460ff16155b612283576040517f08c379a000000000000000000000000000000000000000000000000000000000815260040161227a90614370565b60405180910390fd5b60008060159054906101000a900460ff1615905080156122d4576001600060156101000a81548160ff0219169083151502179055506001600060146101000a81548160ff0219169083151502179055505b6122dc6129f5565b6122e4612ad1565b6122ec612bad565b6122f4612c89565b6122fe8383612d65565b612306612e71565b61230e612f4d565b612316613045565b6123208383613121565b80156123415760008060156101000a81548160ff0219169083151502179055505b505050565b61234e6110cb565b1561238e576040517f08c379a000000000000000000000000000000000000000000000000000000000815260040161238590614b66565b60405180910390fd5b600161012d60006101000a81548160ff0219169083151502179055507f62e78cea01bee320cd4e420270b5ea74000d11b0c9f74754ebdbfc544b05a2586123d3611813565b6040516123e09190613ded565b60405180910390a1565b60006123f98360000183613275565b60001c905092915050565b6000612412826000016132a0565b9050919050565b61242282610a49565b6124338161242e611813565b612611565b61243d83836127ff565b505050565b6124c5846323b872dd60e01b85858560405160240161246393929190614b86565b604051602081830303815290604052907bffffffffffffffffffffffffffffffffffffffffffffffffffffffff19166020820180517bffffffffffffffffffffffffffffffffffffffffffffffffffffffff838183161783525050505061254a565b50505050565b60007f01ffc9a7000000000000000000000000000000000000000000000000000000007bffffffffffffffffffffffffffffffffffffffffffffffffffffffff1916827bffffffffffffffffffffffffffffffffffffffffffffffffffffffff1916149050919050565b6125408383836132b1565b505050565b505050565b60006125ac826040518060400160405280602081526020017f5361666545524332303a206c6f772d6c6576656c2063616c6c206661696c65648152508573ffffffffffffffffffffffffffffffffffffffff166133099092919063ffffffff16565b905060008151111561260c57808060200190518101906125cc9190614be9565b61260b576040517f08c379a000000000000000000000000000000000000000000000000000000000815260040161260290614c88565b60405180910390fd5b5b505050565b61261b82826113d8565b6126aa576126408173ffffffffffffffffffffffffffffffffffffffff166014613321565b61264e8360001c6020613321565b60405160200161265f929190614d7c565b6040516020818303038152906040526040517f08c379a00000000000000000000000000000000000000000000000000000000081526004016126a19190613960565b60405180910390fd5b5050565b6126b882826113d8565b61278b5760016065600084815260200190815260200160002060000160008373ffffffffffffffffffffffffffffffffffffffff1673ffffffffffffffffffffffffffffffffffffffff16815260200190815260200160002060006101000a81548160ff021916908315150217905550612730611813565b73ffffffffffffffffffffffffffffffffffffffff168173ffffffffffffffffffffffffffffffffffffffff16837f2f8788117e7eff1d82e926ec794901d17c78024a50270940304540a733656f0d60405160405180910390a45b5050565b600061279b838361355d565b6127f45782600001829080600181540180825580915050600190039060005260206000200160009091909190915055826000018054905083600101600084815260200190815260200160002081905550600190506127f9565b600090505b92915050565b61280982826113d8565b156128dd5760006065600084815260200190815260200160002060000160008373ffffffffffffffffffffffffffffffffffffffff1673ffffffffffffffffffffffffffffffffffffffff16815260200190815260200160002060006101000a81548160ff021916908315150217905550612882611813565b73ffffffffffffffffffffffffffffffffffffffff168173ffffffffffffffffffffffffffffffffffffffff16837ff6391f5c32d9c69d2a47ea670b442974b53935d1edc7fd64eb21e047a839171b60405160405180910390a45b5050565b600080836001016000848152602001908152602001600020549050600081146129e95760006001826129139190614150565b905060006001866000018054905061292b9190614150565b905081811461299a57600086600001828154811061294c5761294b614060565b5b90600052602060002001549050808760000184815481106129705761296f614060565b5b90600052602060002001819055508387600101600083815260200190815260200160002081905550505b856000018054806129ae576129ad614db6565b5b6001900381819060005260206000200160009055905585600101600086815260200190815260200160002060009055600193505050506129ef565b60009150505b92915050565b600060159054906101000a900460ff1680612a1d5750600060149054906101000a900460ff16155b612a5c576040517f08c379a0000000000000000000000000000000000000000000000000000000008152600401612a5390614370565b60405180910390fd5b60008060159054906101000a900460ff161590508015612aad576001600060156101000a81548160ff0219169083151502179055506001600060146101000a81548160ff0219169083151502179055505b8015612ace5760008060156101000a81548160ff0219169083151502179055505b50565b600060159054906101000a900460ff1680612af95750600060149054906101000a900460ff16155b612b38576040517f08c379a0000000000000000000000000000000000000000000000000000000008152600401612b2f90614370565b60405180910390fd5b60008060159054906101000a900460ff161590508015612b89576001600060156101000a81548160ff0219169083151502179055506001600060146101000a81548160ff0219169083151502179055505b8015612baa5760008060156101000a81548160ff0219169083151502179055505b50565b600060159054906101000a900460ff1680612bd55750600060149054906101000a900460ff16155b612c14576040517f08c379a0000000000000000000000000000000000000000000000000000000008152600401612c0b90614370565b60405180910390fd5b60008060159054906101000a900460ff161590508015612c65576001600060156101000a81548160ff0219169083151502179055506001600060146101000a81548160ff0219169083151502179055505b8015612c865760008060156101000a81548160ff0219169083151502179055505b50565b600060159054906101000a900460ff1680612cb15750600060149054906101000a900460ff16155b612cf0576040517f08c379a0000000000000000000000000000000000000000000000000000000008152600401612ce790614370565b60405180910390fd5b60008060159054906101000a900460ff161590508015612d41576001600060156101000a81548160ff0219169083151502179055506001600060146101000a81548160ff0219169083151502179055505b8015612d625760008060156101000a81548160ff0219169083151502179055505b50565b600060159054906101000a900460ff1680612d8d5750600060149054906101000a900460ff16155b612dcc576040517f08c379a0000000000000000000000000000000000000000000000000000000008152600401612dc390614370565b60405180910390fd5b60008060159054906101000a900460ff161590508015612e1d576001600060156101000a81548160ff0219169083151502179055506001600060146101000a81548160ff0219169083151502179055505b8260cc9080519060200190612e33929190613755565b508160cd9080519060200190612e4a929190613755565b508015612e6c5760008060156101000a81548160ff0219169083151502179055505b505050565b600060159054906101000a900460ff1680612e995750600060149054906101000a900460ff16155b612ed8576040517f08c379a0000000000000000000000000000000000000000000000000000000008152600401612ecf90614370565b60405180910390fd5b60008060159054906101000a900460ff161590508015612f29576001600060156101000a81548160ff0219169083151502179055506001600060146101000a81548160ff0219169083151502179055505b8015612f4a5760008060156101000a81548160ff0219169083151502179055505b50565b600060159054906101000a900460ff1680612f755750600060149054906101000a900460ff16155b612fb4576040517f08c379a0000000000000000000000000000000000000000000000000000000008152600401612fab90614370565b60405180910390fd5b60008060159054906101000a900460ff161590508015613005576001600060156101000a81548160ff0219169083151502179055506001600060146101000a81548160ff0219169083151502179055505b600061012d60006101000a81548160ff02191690831515021790555080156130425760008060156101000a81548160ff0219169083151502179055505b50565b600060159054906101000a900460ff168061306d5750600060149054906101000a900460ff16155b6130ac576040517f08c379a00000000000000000000000000000000000000000000000000000000081526004016130a390614370565b60405180910390fd5b60008060159054906101000a900460ff1615905080156130fd576001600060156101000a81548160ff0219169083151502179055506001600060146101000a81548160ff0219169083151502179055505b801561311e5760008060156101000a81548160ff0219169083151502179055505b50565b600060159054906101000a900460ff16806131495750600060149054906101000a900460ff16155b613188576040517f08c379a000000000000000000000000000000000000000000000000000000000815260040161317f90614370565b60405180910390fd5b60008060159054906101000a900460ff1615905080156131d9576001600060156101000a81548160ff0219169083151502179055506001600060146101000a81548160ff0219169083151502179055505b6131ed6000801b6131e8611813565b613580565b61321e7f9f2df0fed2c77648de5860a4cc508cd0818c85b8b8a1ab4ceeef8d981c8956a6613219611813565b613580565b61324f7f65d7a28e3265b37a6474929f336521b332c1681b933f6cb9f3376673440d862a61324a611813565b613580565b80156132705760008060156101000a81548160ff0219169083151502179055505b505050565b600082600001828154811061328d5761328c614060565b5b9060005260206000200154905092915050565b600081600001805490509050919050565b6132bc8383836135b4565b6132c46110cb565b15613304576040517f08c379a00000000000000000000000000000000000000000000000000000000081526004016132fb90614e57565b60405180910390fd5b505050565b606061331884846000856135b9565b90509392505050565b6060600060028360026133349190614e77565b61333e9190614184565b67ffffffffffffffff81111561335757613356613c3b565b5b6040519080825280601f01601f1916602001820160405280156133895781602001600182028036833780820191505090505b5090507f3000000000000000000000000000000000000000000000000000000000000000816000815181106133c1576133c0614060565b5b60200101907effffffffffffffffffffffffffffffffffffffffffffffffffffffffffffff1916908160001a9053507f78000000000000000000000000000000000000000000000000000000000000008160018151811061342557613424614060565b5b60200101907effffffffffffffffffffffffffffffffffffffffffffffffffffffffffffff1916908160001a905350600060018460026134659190614e77565b61346f9190614184565b90505b600181111561350f577f3031323334353637383961626364656600000000000000000000000000000000600f8616601081106134b1576134b0614060565b5b1a60f81b8282815181106134c8576134c7614060565b5b60200101907effffffffffffffffffffffffffffffffffffffffffffffffffffffffffffff1916908160001a905350600485901c94508061350890614ed1565b9050613472565b5060008414613553576040517f08c379a000000000000000000000000000000000000000000000000000000000815260040161354a90614f47565b60405180910390fd5b8091505092915050565b600080836001016000848152602001908152602001600020541415905092915050565b61358a82826136cd565b6135af8160976000858152602001908152602001600020611d5c90919063ffffffff16565b505050565b505050565b6060824710156135fe576040517f08c379a00000000000000000000000000000000000000000000000000000000081526004016135f590614fd9565b60405180910390fd5b613607856136db565b613646576040517f08c379a000000000000000000000000000000000000000000000000000000000815260040161363d90615045565b60405180910390fd5b6000808673ffffffffffffffffffffffffffffffffffffffff16858760405161366f91906150ac565b60006040518083038185875af1925050503d80600081146136ac576040519150601f19603f3d011682016040523d82523d6000602084013e6136b1565b606091505b50915091506136c18282866136ee565b92505050949350505050565b6136d782826126ae565b5050565b600080823b905060008111915050919050565b606083156136fe5782905061374e565b6000835111156137115782518084602001fd5b816040517f08c379a00000000000000000000000000000000000000000000000000000000081526004016137459190613960565b60405180910390fd5b9392505050565b82805461376190613f5a565b90600052602060002090601f01602090048101928261378357600085556137ca565b82601f1061379c57805160ff19168380011785556137ca565b828001600101855582156137ca579182015b828111156137c95782518255916020019190600101906137ae565b5b5090506137d791906137db565b5090565b5b808211156137f45760008160009055506001016137dc565b5090565b6000604051905090565b600080fd5b600080fd5b60007fffffffff0000000000000000000000000000000000000000000000000000000082169050919050565b6138418161380c565b811461384c57600080fd5b50565b60008135905061385e81613838565b92915050565b60006020828403121561387a57613879613802565b5b60006138888482850161384f565b91505092915050565b60008115159050919050565b6138a681613891565b82525050565b60006020820190506138c1600083018461389d565b92915050565b600081519050919050565b600082825260208201905092915050565b60005b838110156139015780820151818401526020810190506138e6565b83811115613910576000848401525b50505050565b6000601f19601f8301169050919050565b6000613932826138c7565b61393c81856138d2565b935061394c8185602086016138e3565b61395581613916565b840191505092915050565b6000602082019050818103600083015261397a8184613927565b905092915050565b600073ffffffffffffffffffffffffffffffffffffffff82169050919050565b60006139ad82613982565b9050919050565b6139bd816139a2565b81146139c857600080fd5b50565b6000813590506139da816139b4565b92915050565b6000819050919050565b6139f3816139e0565b81146139fe57600080fd5b50565b600081359050613a10816139ea565b92915050565b60008060408385031215613a2d57613a2c613802565b5b6000613a3b858286016139cb565b9250506020613a4c85828601613a01565b9150509250929050565b613a5f816139e0565b82525050565b6000602082019050613a7a6000830184613a56565b92915050565b600060208284031215613a9657613a95613802565b5b6000613aa4848285016139cb565b91505092915050565b600080600060608486031215613ac657613ac5613802565b5b6000613ad4868287016139cb565b9350506020613ae5868287016139cb565b9250506040613af686828701613a01565b9150509250925092565b6000819050919050565b613b1381613b00565b8114613b1e57600080fd5b50565b600081359050613b3081613b0a565b92915050565b600060208284031215613b4c57613b4b613802565b5b6000613b5a84828501613b21565b91505092915050565b613b6c81613b00565b82525050565b6000602082019050613b876000830184613b63565b92915050565b600060208284031215613ba357613ba2613802565b5b6000613bb184828501613a01565b91505092915050565b60008060408385031215613bd157613bd0613802565b5b6000613bdf85828601613b21565b9250506020613bf0858286016139cb565b9150509250929050565b600060ff82169050919050565b613c1081613bfa565b82525050565b6000602082019050613c2b6000830184613c07565b92915050565b600080fd5b600080fd5b7f4e487b7100000000000000000000000000000000000000000000000000000000600052604160045260246000fd5b613c7382613916565b810181811067ffffffffffffffff82111715613c9257613c91613c3b565b5b80604052505050565b6000613ca56137f8565b9050613cb18282613c6a565b919050565b600067ffffffffffffffff821115613cd157613cd0613c3b565b5b613cda82613916565b9050602081019050919050565b82818337600083830152505050565b6000613d09613d0484613cb6565b613c9b565b905082815260208101848484011115613d2557613d24613c36565b5b613d30848285613ce7565b509392505050565b600082601f830112613d4d57613d4c613c31565b5b8135613d5d848260208601613cf6565b91505092915050565b60008060408385031215613d7d57613d7c613802565b5b600083013567ffffffffffffffff811115613d9b57613d9a613807565b5b613da785828601613d38565b925050602083013567ffffffffffffffff811115613dc857613dc7613807565b5b613dd485828601613d38565b9150509250929050565b613de7816139a2565b82525050565b6000602082019050613e026000830184613dde565b92915050565b6000604082019050613e1d6000830185613dde565b613e2a6020830184613a56565b9392505050565b60008060408385031215613e4857613e47613802565b5b6000613e5685828601613b21565b9250506020613e6785828601613a01565b9150509250929050565b60008060408385031215613e8857613e87613802565b5b6000613e96858286016139cb565b9250506020613ea7858286016139cb565b9150509250929050565b6000819050919050565b6000613ed6613ed1613ecc84613982565b613eb1565b613982565b9050919050565b6000613ee882613ebb565b9050919050565b6000613efa82613edd565b9050919050565b613f0a81613eef565b82525050565b6000602082019050613f256000830184613f01565b92915050565b7f4e487b7100000000000000000000000000000000000000000000000000000000600052602260045260246000fd5b60006002820490506001821680613f7257607f821691505b60208210811415613f8657613f85613f2b565b5b50919050565b7f45524332303a207472616e7366657220616d6f756e742065786365656473206160008201527f6c6c6f77616e6365000000000000000000000000000000000000000000000000602082015250565b6000613fe86028836138d2565b9150613ff382613f8c565b604082019050919050565b6000602082019050818103600083015261401781613fdb565b9050919050565b60008151905061402d816139ea565b92915050565b60006020828403121561404957614048613802565b5b60006140578482850161401e565b91505092915050565b7f4e487b7100000000000000000000000000000000000000000000000000000000600052603260045260246000fd5b7f43616e6e6f742070726f63657373207769746864726177616c7320617420746860008201527f69732074696d653a204e6f7420656e6f7567682062616c616e63650000000000602082015250565b60006140eb603b836138d2565b91506140f68261408f565b604082019050919050565b6000602082019050818103600083015261411a816140de565b9050919050565b7f4e487b7100000000000000000000000000000000000000000000000000000000600052601160045260246000fd5b600061415b826139e0565b9150614166836139e0565b92508282101561417957614178614121565b5b828203905092915050565b600061418f826139e0565b915061419a836139e0565b9250827fffffffffffffffffffffffffffffffffffffffffffffffffffffffffffffffff038211156141cf576141ce614121565b5b828201905092915050565b7f45524332305072657365744d696e7465725061757365723a206d75737420686160008201527f76652070617573657220726f6c6520746f20756e706175736500000000000000602082015250565b60006142366039836138d2565b9150614241826141da565b604082019050919050565b6000602082019050818103600083015261426581614229565b9050919050565b7f45524332305072657365744d696e7465725061757365723a206d75737420686160008201527f7665206d696e74657220726f6c6520746f206d696e7400000000000000000000602082015250565b60006142c86036836138d2565b91506142d38261426c565b604082019050919050565b600060208201905081810360008301526142f7816142bb565b9050919050565b7f496e697469616c697a61626c653a20636f6e747261637420697320616c72656160008201527f647920696e697469616c697a6564000000000000000000000000000000000000602082015250565b600061435a602e836138d2565b9150614365826142fe565b604082019050919050565b600060208201905081810360008301526143898161434d565b9050919050565b7f45524332303a206275726e20616d6f756e74206578636565647320616c6c6f7760008201527f616e636500000000000000000000000000000000000000000000000000000000602082015250565b60006143ec6024836138d2565b91506143f782614390565b604082019050919050565b6000602082019050818103600083015261441b816143df565b9050919050565b7f45524332305072657365744d696e7465725061757365723a206d75737420686160008201527f76652070617573657220726f6c6520746f207061757365000000000000000000602082015250565b600061447e6037836138d2565b915061448982614422565b604082019050919050565b600060208201905081810360008301526144ad81614471565b9050919050565b7f4f4e4c595f474f5645524e414e43450000000000000000000000000000000000600082015250565b60006144ea600f836138d2565b91506144f5826144b4565b602082019050919050565b60006020820190508181036000830152614519816144dd565b9050919050565b7f45524332303a2064656372656173656420616c6c6f77616e63652062656c6f7760008201527f207a65726f000000000000000000000000000000000000000000000000000000602082015250565b600061457c6025836138d2565b915061458782614520565b604082019050919050565b600060208201905081810360008301526145ab8161456f565b9050919050565b7f45524332303a20617070726f76652066726f6d20746865207a65726f2061646460008201527f7265737300000000000000000000000000000000000000000000000000000000602082015250565b600061460e6024836138d2565b9150614619826145b2565b604082019050919050565b6000602082019050818103600083015261463d81614601565b9050919050565b7f45524332303a20617070726f766520746f20746865207a65726f20616464726560008201527f7373000000000000000000000000000000000000000000000000000000000000602082015250565b60006146a06022836138d2565b91506146ab82614644565b604082019050919050565b600060208201905081810360008301526146cf81614693565b9050919050565b7f45524332303a207472616e736665722066726f6d20746865207a65726f20616460008201527f6472657373000000000000000000000000000000000000000000000000000000602082015250565b60006147326025836138d2565b915061473d826146d6565b604082019050919050565b6000602082019050818103600083015261476181614725565b9050919050565b7f45524332303a207472616e7366657220746f20746865207a65726f206164647260008201527f6573730000000000000000000000000000000000000000000000000000000000602082015250565b60006147c46023836138d2565b91506147cf82614768565b604082019050919050565b600060208201905081810360008301526147f3816147b7565b9050919050565b7f45524332303a207472616e7366657220616d6f756e742065786365656473206260008201527f616c616e63650000000000000000000000000000000000000000000000000000602082015250565b60006148566026836138d2565b9150614861826147fa565b604082019050919050565b6000602082019050818103600083015261488581614849565b9050919050565b7f416363657373436f6e74726f6c3a2063616e206f6e6c792072656e6f756e636560008201527f20726f6c657320666f722073656c660000000000000000000000000000000000602082015250565b60006148e8602f836138d2565b91506148f38261488c565b604082019050919050565b60006020820190508181036000830152614917816148db565b9050919050565b7f5061757361626c653a206e6f7420706175736564000000000000000000000000600082015250565b60006149546014836138d2565b915061495f8261491e565b602082019050919050565b6000602082019050818103600083015261498381614947565b9050919050565b7f45524332303a206d696e7420746f20746865207a65726f206164647265737300600082015250565b60006149c0601f836138d2565b91506149cb8261498a565b602082019050919050565b600060208201905081810360008301526149ef816149b3565b9050919050565b7f45524332303a206275726e2066726f6d20746865207a65726f2061646472657360008201527f7300000000000000000000000000000000000000000000000000000000000000602082015250565b6000614a526021836138d2565b9150614a5d826149f6565b604082019050919050565b60006020820190508181036000830152614a8181614a45565b9050919050565b7f45524332303a206275726e20616d6f756e7420657863656564732062616c616e60008201527f6365000000000000000000000000000000000000000000000000000000000000602082015250565b6000614ae46022836138d2565b9150614aef82614a88565b604082019050919050565b60006020820190508181036000830152614b1381614ad7565b9050919050565b7f5061757361626c653a2070617573656400000000000000000000000000000000600082015250565b6000614b506010836138d2565b9150614b5b82614b1a565b602082019050919050565b60006020820190508181036000830152614b7f81614b43565b9050919050565b6000606082019050614b9b6000830186613dde565b614ba86020830185613dde565b614bb56040830184613a56565b949350505050565b614bc681613891565b8114614bd157600080fd5b50565b600081519050614be381614bbd565b92915050565b600060208284031215614bff57614bfe613802565b5b6000614c0d84828501614bd4565b91505092915050565b7f5361666545524332303a204552433230206f7065726174696f6e20646964206e60008201527f6f74207375636365656400000000000000000000000000000000000000000000602082015250565b6000614c72602a836138d2565b9150614c7d82614c16565b604082019050919050565b60006020820190508181036000830152614ca181614c65565b9050919050565b600081905092915050565b7f416363657373436f6e74726f6c3a206163636f756e7420000000000000000000600082015250565b6000614ce9601783614ca8565b9150614cf482614cb3565b601782019050919050565b6000614d0a826138c7565b614d148185614ca8565b9350614d248185602086016138e3565b80840191505092915050565b7f206973206d697373696e6720726f6c6520000000000000000000000000000000600082015250565b6000614d66601183614ca8565b9150614d7182614d30565b601182019050919050565b6000614d8782614cdc565b9150614d938285614cff565b9150614d9e82614d59565b9150614daa8284614cff565b91508190509392505050565b7f4e487b7100000000000000000000000000000000000000000000000000000000600052603160045260246000fd5b7f45524332305061757361626c653a20746f6b656e207472616e7366657220776860008201527f696c652070617573656400000000000000000000000000000000000000000000602082015250565b6000614e41602a836138d2565b9150614e4c82614de5565b604082019050919050565b60006020820190508181036000830152614e7081614e34565b9050919050565b6000614e82826139e0565b9150614e8d836139e0565b9250817fffffffffffffffffffffffffffffffffffffffffffffffffffffffffffffffff0483118215151615614ec657614ec5614121565b5b828202905092915050565b6000614edc826139e0565b91506000821415614ef057614eef614121565b5b600182039050919050565b7f537472696e67733a20686578206c656e67746820696e73756666696369656e74600082015250565b6000614f316020836138d2565b9150614f3c82614efb565b602082019050919050565b60006020820190508181036000830152614f6081614f24565b9050919050565b7f416464726573733a20696e73756666696369656e742062616c616e636520666f60008201527f722063616c6c0000000000000000000000000000000000000000000000000000602082015250565b6000614fc36026836138d2565b9150614fce82614f67565b604082019050919050565b60006020820190508181036000830152614ff281614fb6565b9050919050565b7f416464726573733a2063616c6c20746f206e6f6e2d636f6e7472616374000000600082015250565b600061502f601d836138d2565b915061503a82614ff9565b602082019050919050565b6000602082019050818103600083015261505e81615022565b9050919050565b600081519050919050565b600081905092915050565b600061508682615065565b6150908185615070565b93506150a08185602086016138e3565b80840191505092915050565b60006150b8828461507b565b91508190509291505056fea26469706673582212204abe1f77ec136a6fcee0735632b0594ce40bef9e085307b661d6297ffd50775564736f6c63430008090033",
  "linkReferences": {},
  "deployedLinkReferences": {}
}