{
  "_format": "hh-sol-artifact-1",
  "contractName": "InflationManager",
  "sourceName": "contracts/tokenomics/InflationManager.sol",
  "abi": [
    {
      "inputs": [
        {
          "internalType": "contract IAddressProvider",
          "name": "_addressProvider",
          "type": "address"
        }
      ],
      "stateMutability": "nonpayable",
      "type": "constructor"
    },
    {
      "anonymous": false,
      "inputs": [
        {
          "indexed": true,
          "internalType": "address",
          "name": "token",
          "type": "address"
        },
        {
          "indexed": true,
          "internalType": "address",
          "name": "ammGauge",
          "type": "address"
        }
      ],
      "name": "AmmGaugeDelisted",
      "type": "event"
    },
    {
      "anonymous": false,
      "inputs": [
        {
          "indexed": true,
          "internalType": "address",
          "name": "token",
          "type": "address"
        },
        {
          "indexed": true,
          "internalType": "address",
          "name": "ammGauge",
          "type": "address"
        }
      ],
      "name": "AmmGaugeListed",
      "type": "event"
    },
    {
      "anonymous": false,
      "inputs": [
        {
          "indexed": true,
          "internalType": "bytes32",
          "name": "key",
          "type": "bytes32"
        },
        {
          "indexed": false,
          "internalType": "address",
          "name": "value",
          "type": "address"
        },
        {
          "indexed": false,
          "internalType": "uint256",
          "name": "delay",
          "type": "uint256"
        }
      ],
      "name": "ConfigPreparedAddress",
      "type": "event"
    },
    {
      "anonymous": false,
      "inputs": [
        {
          "indexed": true,
          "internalType": "bytes32",
          "name": "key",
          "type": "bytes32"
        },
        {
          "indexed": false,
          "internalType": "uint256",
          "name": "value",
          "type": "uint256"
        },
        {
          "indexed": false,
          "internalType": "uint256",
          "name": "delay",
          "type": "uint256"
        }
      ],
      "name": "ConfigPreparedNumber",
      "type": "event"
    },
    {
      "anonymous": false,
      "inputs": [
        {
          "indexed": true,
          "internalType": "bytes32",
          "name": "key",
          "type": "bytes32"
        }
      ],
      "name": "ConfigReset",
      "type": "event"
    },
    {
      "anonymous": false,
      "inputs": [
        {
          "indexed": true,
          "internalType": "bytes32",
          "name": "key",
          "type": "bytes32"
        },
        {
          "indexed": false,
          "internalType": "address",
          "name": "oldValue",
          "type": "address"
        },
        {
          "indexed": false,
          "internalType": "address",
          "name": "newValue",
          "type": "address"
        }
      ],
      "name": "ConfigUpdatedAddress",
      "type": "event"
    },
    {
      "anonymous": false,
      "inputs": [
        {
          "indexed": true,
          "internalType": "bytes32",
          "name": "key",
          "type": "bytes32"
        },
        {
          "indexed": false,
          "internalType": "uint256",
          "name": "oldValue",
          "type": "uint256"
        },
        {
          "indexed": false,
          "internalType": "uint256",
          "name": "newValue",
          "type": "uint256"
        }
      ],
      "name": "ConfigUpdatedNumber",
      "type": "event"
    },
    {
      "anonymous": false,
      "inputs": [
        {
          "indexed": true,
          "internalType": "address",
          "name": "pool",
          "type": "address"
        },
        {
          "indexed": true,
          "internalType": "address",
          "name": "keeperGauge",
          "type": "address"
        }
      ],
      "name": "KeeperGaugeDelisted",
      "type": "event"
    },
    {
      "anonymous": false,
      "inputs": [
        {
          "indexed": true,
          "internalType": "address",
          "name": "pool",
          "type": "address"
        },
        {
          "indexed": true,
          "internalType": "address",
          "name": "keeperGauge",
          "type": "address"
        }
      ],
      "name": "KeeperGaugeListed",
      "type": "event"
    },
    {
      "anonymous": false,
      "inputs": [
        {
          "indexed": true,
          "internalType": "address",
          "name": "token",
          "type": "address"
        },
        {
          "indexed": false,
          "internalType": "uint256",
          "name": "newWeight",
          "type": "uint256"
        }
      ],
      "name": "NewAmmTokenWeight",
      "type": "event"
    },
    {
      "anonymous": false,
      "inputs": [
        {
          "indexed": true,
          "internalType": "address",
          "name": "pool",
          "type": "address"
        },
        {
          "indexed": false,
          "internalType": "uint256",
          "name": "newWeight",
          "type": "uint256"
        }
      ],
      "name": "NewKeeperWeight",
      "type": "event"
    },
    {
      "anonymous": false,
      "inputs": [
        {
          "indexed": true,
          "internalType": "address",
          "name": "pool",
          "type": "address"
        },
        {
          "indexed": false,
          "internalType": "uint256",
          "name": "newWeight",
          "type": "uint256"
        }
      ],
      "name": "NewLpWeight",
      "type": "event"
    },
    {
      "inputs": [
        {
          "internalType": "address",
          "name": "lpToken",
          "type": "address"
        }
      ],
      "name": "addGaugeForVault",
      "outputs": [
        {
          "internalType": "bool",
          "name": "",
          "type": "bool"
        }
      ],
      "stateMutability": "nonpayable",
      "type": "function"
    },
    {
      "inputs": [
        {
          "internalType": "address",
          "name": "depositStakerVault",
          "type": "address"
        },
        {
          "internalType": "address",
          "name": "strategyPool",
          "type": "address"
        }
      ],
      "name": "addStrategyToDepositStakerVault",
      "outputs": [
        {
          "internalType": "bool",
          "name": "",
          "type": "bool"
        }
      ],
      "stateMutability": "nonpayable",
      "type": "function"
    },
    {
      "inputs": [],
      "name": "addressProvider",
      "outputs": [
        {
          "internalType": "contract IAddressProvider",
          "name": "",
          "type": "address"
        }
      ],
      "stateMutability": "view",
      "type": "function"
    },
    {
      "inputs": [
        {
          "internalType": "address",
          "name": "pool",
          "type": "address"
        }
      ],
      "name": "advanceKeeperGaugeEpoch",
      "outputs": [
        {
          "internalType": "bool",
          "name": "",
          "type": "bool"
        }
      ],
      "stateMutability": "nonpayable",
      "type": "function"
    },
    {
      "inputs": [
        {
          "internalType": "address[]",
          "name": "tokens",
          "type": "address[]"
        }
      ],
      "name": "batchExecuteAmmTokenWeights",
      "outputs": [
        {
          "internalType": "bool",
          "name": "",
          "type": "bool"
        }
      ],
      "stateMutability": "nonpayable",
      "type": "function"
    },
    {
      "inputs": [
        {
          "internalType": "address[]",
          "name": "pools",
          "type": "address[]"
        }
      ],
      "name": "batchExecuteKeeperPoolWeights",
      "outputs": [
        {
          "internalType": "bool",
          "name": "",
          "type": "bool"
        }
      ],
      "stateMutability": "nonpayable",
      "type": "function"
    },
    {
      "inputs": [
        {
          "internalType": "address[]",
          "name": "lpTokens",
          "type": "address[]"
        }
      ],
      "name": "batchExecuteLpPoolWeights",
      "outputs": [
        {
          "internalType": "bool",
          "name": "",
          "type": "bool"
        }
      ],
      "stateMutability": "nonpayable",
      "type": "function"
    },
    {
      "inputs": [
        {
          "internalType": "address[]",
          "name": "tokens",
          "type": "address[]"
        },
        {
          "internalType": "uint256[]",
          "name": "weights",
          "type": "uint256[]"
        }
      ],
      "name": "batchPrepareAmmTokenWeights",
      "outputs": [
        {
          "internalType": "bool",
          "name": "",
          "type": "bool"
        }
      ],
      "stateMutability": "nonpayable",
      "type": "function"
    },
    {
      "inputs": [
        {
          "internalType": "address[]",
          "name": "pools",
          "type": "address[]"
        },
        {
          "internalType": "uint256[]",
          "name": "weights",
          "type": "uint256[]"
        }
      ],
      "name": "batchPrepareKeeperPoolWeights",
      "outputs": [
        {
          "internalType": "bool",
          "name": "",
          "type": "bool"
        }
      ],
      "stateMutability": "nonpayable",
      "type": "function"
    },
    {
      "inputs": [
        {
          "internalType": "address[]",
          "name": "lpTokens",
          "type": "address[]"
        },
        {
          "internalType": "uint256[]",
          "name": "weights",
          "type": "uint256[]"
        }
      ],
      "name": "batchPrepareLpPoolWeights",
      "outputs": [
        {
          "internalType": "bool",
          "name": "",
          "type": "bool"
        }
      ],
      "stateMutability": "nonpayable",
      "type": "function"
    },
    {
      "inputs": [],
      "name": "checkpointAllGauges",
      "outputs": [
        {
          "internalType": "bool",
          "name": "",
          "type": "bool"
        }
      ],
      "stateMutability": "nonpayable",
      "type": "function"
    },
    {
      "inputs": [
        {
          "internalType": "bytes32",
          "name": "",
          "type": "bytes32"
        }
      ],
      "name": "currentAddresses",
      "outputs": [
        {
          "internalType": "address",
          "name": "",
          "type": "address"
        }
      ],
      "stateMutability": "view",
      "type": "function"
    },
    {
      "inputs": [
        {
          "internalType": "bytes32",
          "name": "",
          "type": "bytes32"
        }
      ],
      "name": "currentUInts256",
      "outputs": [
        {
          "internalType": "uint256",
          "name": "",
          "type": "uint256"
        }
      ],
      "stateMutability": "view",
      "type": "function"
    },
    {
      "inputs": [],
      "name": "deactivateWeightBasedKeeperDistribution",
      "outputs": [
        {
          "internalType": "bool",
          "name": "",
          "type": "bool"
        }
      ],
      "stateMutability": "nonpayable",
      "type": "function"
    },
    {
      "inputs": [
        {
          "internalType": "bytes32",
          "name": "",
          "type": "bytes32"
        }
      ],
      "name": "deadlines",
      "outputs": [
        {
          "internalType": "uint256",
          "name": "",
          "type": "uint256"
        }
      ],
      "stateMutability": "view",
      "type": "function"
    },
    {
      "inputs": [
        {
          "internalType": "address",
          "name": "token",
          "type": "address"
        }
      ],
      "name": "executeAmmTokenWeight",
      "outputs": [
        {
          "internalType": "uint256",
          "name": "",
          "type": "uint256"
        }
      ],
      "stateMutability": "nonpayable",
      "type": "function"
    },
    {
      "inputs": [
        {
          "internalType": "address",
          "name": "pool",
          "type": "address"
        }
      ],
      "name": "executeKeeperPoolWeight",
      "outputs": [
        {
          "internalType": "uint256",
          "name": "",
          "type": "uint256"
        }
      ],
      "stateMutability": "nonpayable",
      "type": "function"
    },
    {
      "inputs": [
        {
          "internalType": "address",
          "name": "lpToken",
          "type": "address"
        }
      ],
      "name": "executeLpPoolWeight",
      "outputs": [
        {
          "internalType": "uint256",
          "name": "",
          "type": "uint256"
        }
      ],
      "stateMutability": "nonpayable",
      "type": "function"
    },
    {
      "inputs": [
        {
          "internalType": "address",
          "name": "",
          "type": "address"
        }
      ],
      "name": "gauges",
      "outputs": [
        {
          "internalType": "bool",
          "name": "",
          "type": "bool"
        }
      ],
      "stateMutability": "view",
      "type": "function"
    },
    {
      "inputs": [],
      "name": "getAllAmmGauges",
      "outputs": [
        {
          "internalType": "address[]",
          "name": "",
          "type": "address[]"
        }
      ],
      "stateMutability": "view",
      "type": "function"
    },
    {
      "inputs": [
        {
          "internalType": "address",
          "name": "token",
          "type": "address"
        }
      ],
      "name": "getAmmGaugeForToken",
      "outputs": [
        {
          "internalType": "address",
          "name": "",
          "type": "address"
        }
      ],
      "stateMutability": "view",
      "type": "function"
    },
    {
      "inputs": [
        {
          "internalType": "address",
          "name": "token",
          "type": "address"
        }
      ],
      "name": "getAmmRateForToken",
      "outputs": [
        {
          "internalType": "uint256",
          "name": "",
          "type": "uint256"
        }
      ],
      "stateMutability": "view",
      "type": "function"
    },
    {
      "inputs": [
        {
          "internalType": "address",
          "name": "token",
          "type": "address"
        }
      ],
      "name": "getAmmWeightForToken",
      "outputs": [
        {
          "internalType": "uint256",
          "name": "",
          "type": "uint256"
        }
      ],
      "stateMutability": "view",
      "type": "function"
    },
    {
      "inputs": [
        {
          "internalType": "address",
          "name": "pool",
          "type": "address"
        }
      ],
      "name": "getKeeperGaugeForPool",
      "outputs": [
        {
          "internalType": "address",
          "name": "",
          "type": "address"
        }
      ],
      "stateMutability": "view",
      "type": "function"
    },
    {
      "inputs": [
        {
          "internalType": "address",
          "name": "pool",
          "type": "address"
        }
      ],
      "name": "getKeeperRateForPool",
      "outputs": [
        {
          "internalType": "uint256",
          "name": "",
          "type": "uint256"
        }
      ],
      "stateMutability": "view",
      "type": "function"
    },
    {
      "inputs": [
        {
          "internalType": "address",
          "name": "pool",
          "type": "address"
        }
      ],
      "name": "getKeeperWeightForPool",
      "outputs": [
        {
          "internalType": "uint256",
          "name": "",
          "type": "uint256"
        }
      ],
      "stateMutability": "view",
      "type": "function"
    },
    {
      "inputs": [
        {
          "internalType": "address",
          "name": "lpToken",
          "type": "address"
        }
      ],
      "name": "getLpPoolWeight",
      "outputs": [
        {
          "internalType": "uint256",
          "name": "",
          "type": "uint256"
        }
      ],
      "stateMutability": "view",
      "type": "function"
    },
    {
      "inputs": [
        {
          "internalType": "address",
          "name": "stakerVault",
          "type": "address"
        }
      ],
      "name": "getLpRateForStakerVault",
      "outputs": [
        {
          "internalType": "uint256",
          "name": "",
          "type": "uint256"
        }
      ],
      "stateMutability": "view",
      "type": "function"
    },
    {
      "inputs": [
        {
          "internalType": "address",
          "name": "account",
          "type": "address"
        }
      ],
      "name": "isInflationWeightManager",
      "outputs": [
        {
          "internalType": "bool",
          "name": "",
          "type": "bool"
        }
      ],
      "stateMutability": "view",
      "type": "function"
    },
    {
      "inputs": [
        {
          "internalType": "address",
          "name": "beneficiary",
          "type": "address"
        },
        {
          "internalType": "uint256",
          "name": "amount",
          "type": "uint256"
        }
      ],
      "name": "mintRewards",
      "outputs": [],
      "stateMutability": "nonpayable",
      "type": "function"
    },
    {
      "inputs": [],
      "name": "minter",
      "outputs": [
        {
          "internalType": "address",
          "name": "",
          "type": "address"
        }
      ],
      "stateMutability": "view",
      "type": "function"
    },
    {
      "inputs": [
        {
          "internalType": "bytes32",
          "name": "",
          "type": "bytes32"
        }
      ],
      "name": "pendingAddresses",
      "outputs": [
        {
          "internalType": "address",
          "name": "",
          "type": "address"
        }
      ],
      "stateMutability": "view",
      "type": "function"
    },
    {
      "inputs": [
        {
          "internalType": "bytes32",
          "name": "",
          "type": "bytes32"
        }
      ],
      "name": "pendingUInts256",
      "outputs": [
        {
          "internalType": "uint256",
          "name": "",
          "type": "uint256"
        }
      ],
      "stateMutability": "view",
      "type": "function"
    },
    {
      "inputs": [
        {
          "internalType": "address",
          "name": "token",
          "type": "address"
        },
        {
          "internalType": "uint256",
          "name": "newTokenWeight",
          "type": "uint256"
        }
      ],
      "name": "prepareAmmTokenWeight",
      "outputs": [
        {
          "internalType": "bool",
          "name": "",
          "type": "bool"
        }
      ],
      "stateMutability": "nonpayable",
      "type": "function"
    },
    {
      "inputs": [
        {
          "internalType": "address",
          "name": "pool",
          "type": "address"
        },
        {
          "internalType": "uint256",
          "name": "newPoolWeight",
          "type": "uint256"
        }
      ],
      "name": "prepareKeeperPoolWeight",
      "outputs": [
        {
          "internalType": "bool",
          "name": "",
          "type": "bool"
        }
      ],
      "stateMutability": "nonpayable",
      "type": "function"
    },
    {
      "inputs": [
        {
          "internalType": "address",
          "name": "lpToken",
          "type": "address"
        },
        {
          "internalType": "uint256",
          "name": "newPoolWeight",
          "type": "uint256"
        }
      ],
      "name": "prepareLpPoolWeight",
      "outputs": [
        {
          "internalType": "bool",
          "name": "",
          "type": "bool"
        }
      ],
      "stateMutability": "nonpayable",
      "type": "function"
    },
    {
      "inputs": [
        {
          "internalType": "address",
          "name": "token",
          "type": "address"
        }
      ],
      "name": "removeAmmGauge",
      "outputs": [
        {
          "internalType": "bool",
          "name": "",
          "type": "bool"
        }
      ],
      "stateMutability": "nonpayable",
      "type": "function"
    },
    {
      "inputs": [
        {
          "internalType": "address",
          "name": "pool",
          "type": "address"
        }
      ],
      "name": "removeKeeperGauge",
      "outputs": [
        {
          "internalType": "bool",
          "name": "",
          "type": "bool"
        }
      ],
      "stateMutability": "nonpayable",
      "type": "function"
    },
    {
      "inputs": [
        {
          "internalType": "address",
          "name": "stakerVault",
          "type": "address"
        },
        {
          "internalType": "address",
          "name": "lpToken",
          "type": "address"
        }
      ],
      "name": "removeStakerVaultFromInflation",
      "outputs": [],
      "stateMutability": "nonpayable",
      "type": "function"
    },
    {
      "inputs": [],
      "name": "roleManager",
      "outputs": [
        {
          "internalType": "contract IRoleManager",
          "name": "",
          "type": "address"
        }
      ],
      "stateMutability": "view",
      "type": "function"
    },
    {
      "inputs": [
        {
          "internalType": "address",
          "name": "token",
          "type": "address"
        },
        {
          "internalType": "address",
          "name": "_ammGauge",
          "type": "address"
        }
      ],
      "name": "setAmmGauge",
      "outputs": [
        {
          "internalType": "bool",
          "name": "",
          "type": "bool"
        }
      ],
      "stateMutability": "nonpayable",
      "type": "function"
    },
    {
      "inputs": [
        {
          "internalType": "address",
          "name": "pool",
          "type": "address"
        },
        {
          "internalType": "address",
          "name": "_keeperGauge",
          "type": "address"
        }
      ],
      "name": "setKeeperGauge",
      "outputs": [
        {
          "internalType": "bool",
          "name": "",
          "type": "bool"
        }
      ],
      "stateMutability": "nonpayable",
      "type": "function"
    },
    {
      "inputs": [
        {
          "internalType": "address",
          "name": "_minter",
          "type": "address"
        }
      ],
      "name": "setMinter",
      "outputs": [
        {
          "internalType": "bool",
          "name": "",
          "type": "bool"
        }
      ],
      "stateMutability": "nonpayable",
      "type": "function"
    },
    {
      "inputs": [],
      "name": "totalAmmTokenWeight",
      "outputs": [
        {
          "internalType": "uint256",
          "name": "",
          "type": "uint256"
        }
      ],
      "stateMutability": "view",
      "type": "function"
    },
    {
      "inputs": [],
      "name": "totalKeeperPoolWeight",
      "outputs": [
        {
          "internalType": "uint256",
          "name": "",
          "type": "uint256"
        }
      ],
      "stateMutability": "view",
      "type": "function"
    },
    {
      "inputs": [],
      "name": "totalLpPoolWeight",
      "outputs": [
        {
          "internalType": "uint256",
          "name": "",
          "type": "uint256"
        }
      ],
      "stateMutability": "view",
      "type": "function"
    },
    {
      "inputs": [],
      "name": "weightBasedKeeperDistributionDeactivated",
      "outputs": [
        {
          "internalType": "bool",
          "name": "",
          "type": "bool"
        }
      ],
      "stateMutability": "view",
      "type": "function"
    },
    {
      "inputs": [
        {
          "internalType": "address",
          "name": "gauge",
          "type": "address"
        }
      ],
      "name": "whitelistGauge",
      "outputs": [],
      "stateMutability": "nonpayable",
      "type": "function"
    }
  ],
  "bytecode": "0x60c06040523480156200001157600080fd5b5060405162004cd538038062004cd5833981016040819052620000349162000116565b62000053816001600160a01b03166200006b60201b6200382b1760201c565b6001600160a01b039081166080521660a0526200013d565b6040516321f8a72160e01b81526a3937b632a6b0b730b3b2b960a91b60048201526000906001600160a01b038316906321f8a7219060240160206040518083038186803b158015620000bc57600080fd5b505afa158015620000d1573d6000803e3d6000fd5b505050506040513d601f19601f82011682018060405250810190620000f7919062000116565b92915050565b6001600160a01b03811681146200011357600080fd5b50565b6000602082840312156200012957600080fd5b81516200013681620000fd565b9392505050565b60805160a051614b33620001a260003960008181610391015281816107fb01528181610c9501528181611060015281816113a8015281816118f901528181611da6015281816126bb01528181612dce0152613bb4015260006138b50152614b336000f3fe608060405234801561001057600080fd5b506004361061029f5760003560e01c80638461372f11610167578063b9a09fd5116100ce578063e003285811610087578063e00328581461060e578063e195a21514610621578063e3976edf14610634578063f76c33991461065d578063fca3b5aa14610686578063fd600b841461069957600080fd5b8063b9a09fd514610596578063bea00b72146105b9578063c51dfc8f146105cc578063c9fb321a146105df578063df9ccfff146105e8578063df9f8fb7146105fb57600080fd5b80639bbdd1ac116101205780639bbdd1ac146105205780639c6856fc14610533578063a871d4ee14610546578063aff1b7e41461055b578063b2d918c11461057b578063b662fc551461058e57600080fd5b80638461372f146104b857806385cabd98146104cb5780638a75b2cd146104de5780638d651082146104e75780638d6dca55146104fa5780638e01c1961461050d57600080fd5b80633d65d2df1161020b5780635394ee05116101c45780635394ee051461044557806354a8f333146104595780636a20de921461046c5780636ad2d1311461047f57806372ec31a8146104925780637ddbc911146104a557600080fd5b80633d65d2df146103d35780633da3c28f146103e657806342035057146103f9578063430e2e571461040c5780634875e0521461041f5780634bb382451461043257600080fd5b80631dc388ea1161025d5780631dc388ea1461034a578063204b0b8d1461035d57806326ea87b0146103705780632897a553146103795780632954018c1461038c578063346a4a51146103b357600080fd5b8062435da5146102a457806307546172146102c95780630edb01e4146102dc57806315dbfe62146102f4578063187e66e3146103225780631caea2c914610335575b600080fd5b6102ac6106ac565b6040516001600160a01b0390911681526020015b60405180910390f35b6005546102ac906001600160a01b031681565b6102e46106bb565b60405190151581526020016102c0565b6103146103023660046145e6565b60016020526000908152604090205481565b6040519081526020016102c0565b6102e4610330366004614617565b6108ef565b610348610343366004614643565b610a4f565b005b610314610358366004614643565b610b4d565b6102e461036b366004614617565b610b84565b61031460075481565b610314610387366004614643565b610e20565b6102ac7f000000000000000000000000000000000000000000000000000000000000000081565b6103146103c13660046145e6565b60046020526000908152604090205481565b6102e46103e13660046146a5565b610f11565b6103146103f4366004614643565b61127e565b610314610407366004614643565b61135c565b6102e461041a366004614643565b61137e565b6102e461042d366004614711565b61155c565b6102e461044036600461474a565b6117b0565b6005546102e490600160a01b900460ff1681565b6102e46104673660046146a5565b611a86565b61034861047a366004614617565b611ca0565b61031461048d366004614643565b611d82565b6103146104a0366004614643565b611f2e565b6102ac6104b3366004614643565b611f3a565b6102e46104c6366004614711565b611f50565b6102e46104d9366004614643565b612294565b61031460085481565b6102e46104f53660046146a5565b612333565b6102e4610508366004614643565b612536565b61031461051b366004614643565b612697565b6102e461052e366004614711565b612759565b610314610541366004614643565b612ae1565b61054e612bd0565b6040516102c0919061478c565b6103146105693660046145e6565b60036020526000908152604090205481565b6102e4610589366004614617565b612bdc565b6102e4612d1f565b6102e46105a4366004614643565b600f6020526000908152604090205460ff1681565b6103146105c7366004614643565b612fc0565b6103486105da366004614711565b612fe1565b61031460065481565b6102ac6105f6366004614643565b6130e7565b6102e4610609366004614643565b6130f5565b6102e461061c36600461474a565b6131df565b6102e461062f36600461474a565b613339565b6102ac6106423660046145e6565b6000602081905290815260409020546001600160a01b031681565b6102ac61066b3660046145e6565b6002602052600090815260409020546001600160a01b031681565b6102e4610694366004614643565b613496565b6102e46106a7366004614643565b61363c565b60006106b66138b3565b905090565b60006106c56138b3565b604051632474521560e21b815269676f7665726e616e636560b01b60048201523360248201526001600160a01b0391909116906391d148549060440160206040518083038186803b15801561071957600080fd5b505afa15801561072d573d6000803e3d6000fd5b505050506040513d601f19601f8201168201806040525081019061075191906147d9565b604051806040016040528060138152602001600080516020614a798339815191528152509061079c5760405162461bcd60e51b815260040161079391906147fb565b60405180910390fd5b50600554600160a01b900460ff16156107f75760405162461bcd60e51b815260206004820152601f60248201527f5765696768742d626173656420646973742e2064656163746976617465642e006044820152606401610793565b60007f00000000000000000000000000000000000000000000000000000000000000006001600160a01b031663c5c63e656040518163ffffffff1660e01b815260040160006040518083038186803b15801561085257600080fd5b505afa158015610866573d6000803e3d6000fd5b505050506040513d6000823e601f3d908101601f1916820160405261088e9190810190614871565b805190915060005b818110156108d2576108c08382815181106108b3576108b3614936565b60200260200101516138d7565b806108ca81614962565b915050610896565b50506005805460ff60a01b1916600160a01b179055506001905090565b600069676f7665726e616e636560b01b7034b7333630ba34b7b72fb6b0b730b3b2b960791b61091c6138b3565b6001600160a01b031663d756a4228383336040518463ffffffff1660e01b815260040161094b9392919061497d565b60206040518083038186803b15801561096357600080fd5b505afa158015610977573d6000803e3d6000fd5b505050506040513d601f19601f8201168201806040525081019061099b91906147d9565b604051806040016040528060138152602001600080516020614a79833981519152815250906109dd5760405162461bcd60e51b815260040161079391906147fb565b506109e9600c866139d1565b610a2b5760405162461bcd60e51b8152602060048201526013602482015272185b5b4819d85d59d9481b9bdd08199bdd5b99606a1b6044820152606401610793565b6000610a36866139ed565b9050610a428186613a2b565b5060019695505050505050565b6931b7b73a3937b63632b960b11b610a656138b3565b604051632474521560e21b8152600481018390523360248201526001600160a01b0391909116906391d148549060440160206040518083038186803b158015610aad57600080fd5b505afa158015610ac1573d6000803e3d6000fd5b505050506040513d601f19601f82011682018060405250810190610ae591906147d9565b604051806040016040528060138152602001600080516020614a7983398151915281525090610b275760405162461bcd60e51b815260040161079391906147fb565b50506001600160a01b03166000908152600f60205260409020805460ff19166001179055565b600080610b59836139ed565b9050610b6e8382610b6933612294565b613a3b565b5060009081526003602052604090205492915050565b600069676f7665726e616e636560b01b7034b7333630ba34b7b72fb6b0b730b3b2b960791b610bb16138b3565b6001600160a01b031663d756a4228383336040518463ffffffff1660e01b8152600401610be09392919061497d565b60206040518083038186803b158015610bf857600080fd5b505afa158015610c0c573d6000803e3d6000fd5b505050506040513d601f19601f82011682018060405250810190610c3091906147d9565b604051806040016040528060138152602001600080516020614a7983398151915281525090610c725760405162461bcd60e51b815260040161079391906147fb565b5060405163059eadeb60e41b81526001600160a01b0386811660048301526000917f0000000000000000000000000000000000000000000000000000000000000000909116906359eadeb09060240160206040518083038186803b158015610cd957600080fd5b505afa158015610ced573d6000803e3d6000fd5b505050506040513d601f19601f82011682018060405250810190610d11919061499c565b9050600f6000826001600160a01b0316632c8161246040518163ffffffff1660e01b815260040160206040518083038186803b158015610d5057600080fd5b505afa158015610d64573d6000803e3d6000fd5b505050506040513d601f19601f82011682018060405250810190610d88919061499c565b6001600160a01b031681526020808201929092526040908101600020548151808301909252601482527311d85d59d948191bd95cc81b9bdd08195e1a5cdd60621b928201929092529060ff16610df15760405162461bcd60e51b815260040161079391906147fb565b50610dfb86613b92565b6000610e0682613c87565b9050610e128187613a2b565b506001979650505050505050565b6005546000906001600160a01b03161580610e3b5750600754155b15610e4857506000919050565b6000610e5383613c87565b90506000600560009054906101000a90046001600160a01b03166001600160a01b03166388258d316040518163ffffffff1660e01b815260040160206040518083038186803b158015610ea557600080fd5b505afa158015610eb9573d6000803e3d6000fd5b505050506040513d601f19601f82011682018060405250810190610edd91906149b9565b60075460008481526003602052604081205492935091610efe9084906149d2565b610f0891906149f1565b95945050505050565b600069676f7665726e616e636560b01b7034b7333630ba34b7b72fb6b0b730b3b2b960791b610f3e6138b3565b6001600160a01b031663d756a4228383336040518463ffffffff1660e01b8152600401610f6d9392919061497d565b60206040518083038186803b158015610f8557600080fd5b505afa158015610f99573d6000803e3d6000fd5b505050506040513d601f19601f82011682018060405250810190610fbd91906147d9565b604051806040016040528060138152602001600080516020614a7983398151915281525090610fff5760405162461bcd60e51b815260040161079391906147fb565b50858481146110505760405162461bcd60e51b815260206004820152601b60248201527f496e76616c6964206c656e677468206f6620617267756d656e747300000000006044820152606401610793565b6000805b8281101561126e5760007f00000000000000000000000000000000000000000000000000000000000000006001600160a01b03166359eadeb08c8c8581811061109f5761109f614936565b90506020020160208101906110b49190614643565b6040516001600160e01b031960e084901b1681526001600160a01b03909116600482015260240160206040518083038186803b1580156110f357600080fd5b505afa158015611107573d6000803e3d6000fd5b505050506040513d601f19601f8201168201806040525081019061112b919061499c565b905060006001600160a01b0316816001600160a01b0316632c8161246040518163ffffffff1660e01b815260040160206040518083038186803b15801561117157600080fd5b505afa158015611185573d6000803e3d6000fd5b505050506040513d601f19601f820116820180604052508101906111a9919061499c565b6001600160a01b03161415604051806040016040528060118152602001701859191c995cdcc81b9bdd08199bdd5b99607a1b815250906111fc5760405162461bcd60e51b815260040161079391906147fb565b5061122c8b8b8481811061121257611212614936565b90506020020160208101906112279190614643565b613b92565b61123581613c87565b9250611259838a8a8581811061124d5761124d614936565b90506020020135613a2b565b5050808061126690614962565b915050611054565b5060019998505050505050505050565b6005546000906001600160a01b031615806112995750600854155b156112a657506000919050565b60006112b1836139ed565b90506000600560009054906101000a90046001600160a01b03166001600160a01b031663877f16926040518163ffffffff1660e01b815260040160206040518083038186803b15801561130357600080fd5b505afa158015611317573d6000803e3d6000fd5b505050506040513d601f19601f8201168201806040525081019061133b91906149b9565b60085460008481526003602052604081205492935091610efe9084906149d2565b600080611368836139ed565b6000908152600360205260409020549392505050565b604051635b80b5fb60e11b815233600482018190526001600160a01b0383811660248401526000927f00000000000000000000000000000000000000000000000000000000000000009091169063b7016bf69060440160206040518083038186803b1580156113ec57600080fd5b505afa158015611400573d6000803e3d6000fd5b505050506040513d601f19601f8201168201806040525081019061142491906147d9565b604051806040016040528060138152602001600080516020614a79833981519152815250906114665760405162461bcd60e51b815260040161079391906147fb565b506000816001600160a01b0316632c8161246040518163ffffffff1660e01b815260040160206040518083038186803b1580156114a257600080fd5b505afa1580156114b6573d6000803e3d6000fd5b505050506040513d601f19601f820116820180604052508101906114da919061499c565b60408051808201909152601481527311d85d59d948191bd95cc81b9bdd08195e1a5cdd60621b60208201529091506001600160a01b03821661152f5760405162461bcd60e51b815260040161079391906147fb565b506001600160a01b03166000908152600f60205260409020805460ff191660019081179091559392505050565b60006115666138b3565b604051632474521560e21b815269676f7665726e616e636560b01b60048201523360248201526001600160a01b0391909116906391d148549060440160206040518083038186803b1580156115ba57600080fd5b505afa1580156115ce573d6000803e3d6000fd5b505050506040513d601f19601f820116820180604052508101906115f291906147d9565b604051806040016040528060138152602001600080516020614a79833981519152815250906116345760405162461bcd60e51b815260040161079391906147fb565b506000826001600160a01b0316638d928af86040518163ffffffff1660e01b815260040160206040518083038186803b15801561167057600080fd5b505afa158015611684573d6000803e3d6000fd5b505050506040513d601f19601f820116820180604052508101906116a8919061499c565b9050836001600160a01b031663223e5479826001600160a01b03166307da06036040518163ffffffff1660e01b815260040160206040518083038186803b1580156116f257600080fd5b505afa158015611706573d6000803e3d6000fd5b505050506040513d601f19601f8201168201806040525081019061172a919061499c565b6040516001600160e01b031960e084901b1681526001600160a01b039091166004820152602401602060405180830381600087803b15801561176b57600080fd5b505af115801561177f573d6000803e3d6000fd5b505050506040513d601f19601f820116820180604052508101906117a391906147d9565b5060019150505b92915050565b600069676f7665726e616e636560b01b7034b7333630ba34b7b72fb6b0b730b3b2b960791b6117dd6138b3565b6001600160a01b031663d756a4228383336040518463ffffffff1660e01b815260040161180c9392919061497d565b60206040518083038186803b15801561182457600080fd5b505afa158015611838573d6000803e3d6000fd5b505050506040513d601f19601f8201168201806040525081019061185c91906147d9565b604051806040016040528060138152602001600080516020614a798339815191528152509061189e5760405162461bcd60e51b815260040161079391906147fb565b508360005b81811015610a425760008787838181106118bf576118bf614936565b90506020020160208101906118d49190614643565b60405163059eadeb60e41b81526001600160a01b0380831660048301529192506000917f000000000000000000000000000000000000000000000000000000000000000016906359eadeb09060240160206040518083038186803b15801561193b57600080fd5b505afa15801561194f573d6000803e3d6000fd5b505050506040513d601f19601f82011682018060405250810190611973919061499c565b905060006001600160a01b0316816001600160a01b0316632c8161246040518163ffffffff1660e01b815260040160206040518083038186803b1580156119b957600080fd5b505afa1580156119cd573d6000803e3d6000fd5b505050506040513d601f19601f820116820180604052508101906119f1919061499c565b6001600160a01b03161415604051806040016040528060118152602001701859191c995cdcc81b9bdd08199bdd5b99607a1b81525090611a445760405162461bcd60e51b815260040161079391906147fb565b50611a4e82613b92565b6000611a5982613c87565b9050611a6f818484611a6a33612294565b613ca7565b505050508080611a7e90614962565b9150506118a3565b600069676f7665726e616e636560b01b7034b7333630ba34b7b72fb6b0b730b3b2b960791b611ab36138b3565b6001600160a01b031663d756a4228383336040518463ffffffff1660e01b8152600401611ae29392919061497d565b60206040518083038186803b158015611afa57600080fd5b505afa158015611b0e573d6000803e3d6000fd5b505050506040513d601f19601f82011682018060405250810190611b3291906147d9565b604051806040016040528060138152602001600080516020614a7983398151915281525090611b745760405162461bcd60e51b815260040161079391906147fb565b50856000858214611bc75760405162461bcd60e51b815260206004820152601b60248201527f496e76616c6964206c656e677468206f6620617267756d656e747300000000006044820152606401610793565b60005b8281101561126e57611c048a8a83818110611be757611be7614936565b9050602002016020810190611bfc9190614643565b600c906139d1565b611c465760405162461bcd60e51b8152602060048201526013602482015272185b5b4819d85d59d9481b9bdd08199bdd5b99606a1b6044820152606401610793565b611c758a8a83818110611c5b57611c5b614936565b9050602002016020810190611c709190614643565b6139ed565b9150611c8d8289898481811061124d5761124d614936565b5080611c9881614962565b915050611bca565b336000908152600f602090815260409182902054825180840190935260138352600080516020614a798339815191529183019190915260ff16611cf65760405162461bcd60e51b815260040161079391906147fb565b506005546040516340c10f1960e01b81526001600160a01b03848116600483015260248201849052909116906340c10f1990604401602060405180830381600087803b158015611d4557600080fd5b505af1158015611d59573d6000803e3d6000fd5b505050506040513d601f19601f82011682018060405250810190611d7d91906147d9565b505050565b60405163059eadeb60e41b81526001600160a01b03828116600483015260009182917f000000000000000000000000000000000000000000000000000000000000000016906359eadeb09060240160206040518083038186803b158015611de857600080fd5b505afa158015611dfc573d6000803e3d6000fd5b505050506040513d601f19601f82011682018060405250810190611e20919061499c565b905060006001600160a01b0316816001600160a01b0316632c8161246040518163ffffffff1660e01b815260040160206040518083038186803b158015611e6657600080fd5b505afa158015611e7a573d6000803e3d6000fd5b505050506040513d601f19601f82011682018060405250810190611e9e919061499c565b6001600160a01b03161415604051806040016040528060118152602001701859191c995cdcc81b9bdd08199bdd5b99607a1b81525090611ef15760405162461bcd60e51b815260040161079391906147fb565b50611efb83613b92565b6000611f0682613c87565b9050611f17818584611a6a33612294565b506000908152600360205260409020549392505050565b60008061136883613df5565b600080611f48600c84613e19565b949350505050565b6000611f5a6138b3565b604051632474521560e21b815269676f7665726e616e636560b01b60048201523360248201526001600160a01b0391909116906391d148549060440160206040518083038186803b158015611fae57600080fd5b505afa158015611fc2573d6000803e3d6000fd5b505050506040513d601f19601f82011682018060405250810190611fe691906147d9565b604051806040016040528060138152602001600080516020614a79833981519152815250906120285760405162461bcd60e51b815260040161079391906147fb565b5060405163fa3f8f1b60e01b81526001600160a01b03848116600483015283169063fa3f8f1b9060240160206040518083038186803b15801561206a57600080fd5b505afa15801561207e573d6000803e3d6000fd5b505050506040513d601f19601f820116820180604052508101906120a291906147d9565b6040518060400160405280601781526020017f61646472657373206e6f742077686974656c6973746564000000000000000000815250906120f65760405162461bcd60e51b815260040161079391906147fb565b506000612103600c613e40565b905060005b81811015612151576001600160a01b038416612125600c83613e4b565b6001600160a01b0316141561213f576000925050506117aa565b8061214981614962565b915050612108565b5061215d600c856139d1565b1561225b57600061216f600c86613e58565b9050806001600160a01b0316635790a0c86040518163ffffffff1660e01b8152600401602060405180830381600087803b1580156121ac57600080fd5b505af11580156121c0573d6000803e3d6000fd5b505050506040513d601f19601f820116820180604052508101906121e491906147d9565b50806001600160a01b03166341c0e1b56040518163ffffffff1660e01b8152600401602060405180830381600087803b15801561222057600080fd5b505af1158015612234573d6000803e3d6000fd5b505050506040513d601f19601f8201168201806040525081019061225891906147d9565b50505b612267600c8585613e6d565b5050506001600160a01b03166000908152600f60205260409020805460ff19166001908117909155919050565b600061229e6138b3565b604051632474521560e21b81527034b7333630ba34b7b72fb6b0b730b3b2b960791b60048201526001600160a01b03848116602483015291909116906391d148549060440160206040518083038186803b1580156122fb57600080fd5b505afa15801561230f573d6000803e3d6000fd5b505050506040513d601f19601f820116820180604052508101906117aa91906147d9565b600061233d6138b3565b604051632474521560e21b815269676f7665726e616e636560b01b60048201523360248201526001600160a01b0391909116906391d148549060440160206040518083038186803b15801561239157600080fd5b505afa1580156123a5573d6000803e3d6000fd5b505050506040513d601f19601f820116820180604052508101906123c991906147d9565b604051806040016040528060138152602001600080516020614a798339815191528152509061240b5760405162461bcd60e51b815260040161079391906147fb565b5060408051808201909152601081526f1a5b9d985b1a5908185c99dd5b595b9d60821b602082015284908382146124555760405162461bcd60e51b815260040161079391906147fb565b506000805b82811015610e125761249488888381811061247757612477614936565b905060200201602081019061248c9190614643565b6009906139d1565b6040518060400160405280601081526020016f1a5b9d985b1a5908185c99dd5b595b9d60821b815250906124db5760405162461bcd60e51b815260040161079391906147fb565b5061250b8888838181106124f1576124f1614936565b90506020020160208101906125069190614643565b613df5565b91506125238287878481811061124d5761124d614936565b508061252e81614962565b91505061245a565b60006125406138b3565b604051632474521560e21b815269676f7665726e616e636560b01b60048201523360248201526001600160a01b0391909116906391d148549060440160206040518083038186803b15801561259457600080fd5b505afa1580156125a8573d6000803e3d6000fd5b505050506040513d601f19601f820116820180604052508101906125cc91906147d9565b604051806040016040528060138152602001600080516020614a798339815191528152509061260e5760405162461bcd60e51b815260040161079391906147fb565b5061261a600983613e58565b6001600160a01b0316633cf80e6c6040518163ffffffff1660e01b8152600401602060405180830381600087803b15801561265457600080fd5b505af1158015612668573d6000803e3d6000fd5b505050506040513d601f19601f8201168201806040525081019061268c91906147d9565b50600190505b919050565b60405163059eadeb60e41b81526001600160a01b03828116600483015260009182917f000000000000000000000000000000000000000000000000000000000000000016906359eadeb09060240160206040518083038186803b1580156126fd57600080fd5b505afa158015612711573d6000803e3d6000fd5b505050506040513d601f19601f82011682018060405250810190612735919061499c565b9050600061274282613c87565b600090815260036020526040902054949350505050565b60006127636138b3565b604051632474521560e21b815269676f7665726e616e636560b01b60048201523360248201526001600160a01b0391909116906391d148549060440160206040518083038186803b1580156127b757600080fd5b505afa1580156127cb573d6000803e3d6000fd5b505050506040513d601f19601f820116820180604052508101906127ef91906147d9565b604051806040016040528060138152602001600080516020614a79833981519152815250906128315760405162461bcd60e51b815260040161079391906147fb565b50600061283e6009613e40565b90506000805b8281101561288b576001600160a01b038516612861600983613e4b565b6001600160a01b03161415612879576001915061288b565b8061288381614962565b915050612844565b50801580156128a35750600554600160a01b900460ff165b80156128b0575060018210155b156128c0576000925050506117aa565b6000806128ce600988613e19565b915091508115806128f15750856001600160a01b0316816001600160a01b031614155b6040518060400160405280601081526020016f1a5b9d985b1a5908185c99dd5b595b9d60821b815250906129385760405162461bcd60e51b815260040161079391906147fb565b508180156129b45750806001600160a01b0316631f3a0e416040518163ffffffff1660e01b815260040160206040518083038186803b15801561297a57600080fd5b505afa15801561298e573d6000803e3d6000fd5b505050506040513d601f19601f820116820180604052508101906129b291906147d9565b155b15612aa257806001600160a01b0316635790a0c86040518163ffffffff1660e01b8152600401602060405180830381600087803b1580156129f457600080fd5b505af1158015612a08573d6000803e3d6000fd5b505050506040513d601f19601f82011682018060405250810190612a2c91906147d9565b50806001600160a01b03166341c0e1b56040518163ffffffff1660e01b8152600401602060405180830381600087803b158015612a6857600080fd5b505af1158015612a7c573d6000803e3d6000fd5b505050506040513d601f19601f82011682018060405250810190612aa091906147d9565b505b612aae60098888613e6d565b5050506001600160a01b0384166000908152600f60205260409020805460ff191660019081179091559250505092915050565b6005546000906001600160a01b0316612afc57506000919050565b6005546040805163017e7eab60e71b815290516000926001600160a01b03169163bf3f5580916004808301926020929190829003018186803b158015612b4157600080fd5b505afa158015612b55573d6000803e3d6000fd5b505050506040513d601f19601f82011682018060405250810190612b7991906149b9565b600554909150600160a01b900460ff1615612b945792915050565b600654612ba45750600092915050565b6000612baf84613df5565b60065460008281526003602052604081205492935091610efe9085906149d2565b60606106b6600c613e86565b6000612be66138b3565b604051632474521560e21b815269676f7665726e616e636560b01b60048201523360248201526001600160a01b0391909116906391d148549060440160206040518083038186803b158015612c3a57600080fd5b505afa158015612c4e573d6000803e3d6000fd5b505050506040513d601f19601f82011682018060405250810190612c7291906147d9565b604051806040016040528060138152602001600080516020614a7983398151915281525090612cb45760405162461bcd60e51b815260040161079391906147fb565b50612cc06009846139d1565b6040518060400160405280601081526020016f1a5b9d985b1a5908185c99dd5b595b9d60821b81525090612d075760405162461bcd60e51b815260040161079391906147fb565b506000612d1384613df5565b90506117a38184613a2b565b600080612d2c6009613e40565b905060005b81811015612dc957612d44600982613e4b565b6001600160a01b0316635790a0c86040518163ffffffff1660e01b8152600401602060405180830381600087803b158015612d7e57600080fd5b505af1158015612d92573d6000803e3d6000fd5b505050506040513d601f19601f82011682018060405250810190612db691906147d9565b5080612dc181614962565b915050612d31565b5060007f00000000000000000000000000000000000000000000000000000000000000006001600160a01b03166375a8012b6040518163ffffffff1660e01b815260040160006040518083038186803b158015612e2557600080fd5b505afa158015612e39573d6000803e3d6000fd5b505050506040513d6000823e601f3d908101601f19168201604052612e619190810190614871565b905060005b8151811015612f0e57818181518110612e8157612e81614936565b60200260200101516001600160a01b0316635790a0c86040518163ffffffff1660e01b8152600401602060405180830381600087803b158015612ec357600080fd5b505af1158015612ed7573d6000803e3d6000fd5b505050506040513d601f19601f82011682018060405250810190612efb91906147d9565b5080612f0681614962565b915050612e66565b50612f19600c613e40565b915060005b82811015612fb657612f31600c82613e4b565b6001600160a01b0316635790a0c86040518163ffffffff1660e01b8152600401602060405180830381600087803b158015612f6b57600080fd5b505af1158015612f7f573d6000803e3d6000fd5b505050506040513d601f19601f82011682018060405250810190612fa391906147d9565b5080612fae81614962565b915050612f1e565b5060019250505090565b600080612fcc83613df5565b9050610b6e8184612fdc33612294565b613f35565b6931b7b73a3937b63632b960b11b612ff76138b3565b604051632474521560e21b8152600481018390523360248201526001600160a01b0391909116906391d148549060440160206040518083038186803b15801561303f57600080fd5b505afa158015613053573d6000803e3d6000fd5b505050506040513d601f19601f8201168201806040525081019061307791906147d9565b604051806040016040528060138152602001600080516020614a79833981519152815250906130b95760405162461bcd60e51b815260040161079391906147fb565b5060006130c584613c87565b90506130d2816000613a2b565b506130e08184866001613ca7565b5050505050565b600080611f48600984613e19565b60006130ff6138b3565b604051632474521560e21b815269676f7665726e616e636560b01b60048201523360248201526001600160a01b0391909116906391d148549060440160206040518083038186803b15801561315357600080fd5b505afa158015613167573d6000803e3d6000fd5b505050506040513d601f19601f8201168201806040525081019061318b91906147d9565b604051806040016040528060138152602001600080516020614a79833981519152815250906131cd5760405162461bcd60e51b815260040161079391906147fb565b506131d7826138d7565b506001919050565b600069676f7665726e616e636560b01b7034b7333630ba34b7b72fb6b0b730b3b2b960791b61320c6138b3565b6001600160a01b031663d756a4228383336040518463ffffffff1660e01b815260040161323b9392919061497d565b60206040518083038186803b15801561325357600080fd5b505afa158015613267573d6000803e3d6000fd5b505050506040513d601f19601f8201168201806040525081019061328b91906147d9565b604051806040016040528060138152602001600080516020614a79833981519152815250906132cd5760405162461bcd60e51b815260040161079391906147fb565b50836000805b82811015610e12576132f08888838181106124f1576124f1614936565b91506133268289898481811061330857613308614936565b905060200201602081019061331d9190614643565b612fdc33612294565b508061333181614962565b9150506132d3565b600069676f7665726e616e636560b01b7034b7333630ba34b7b72fb6b0b730b3b2b960791b6133666138b3565b6001600160a01b031663d756a4228383336040518463ffffffff1660e01b81526004016133959392919061497d565b60206040518083038186803b1580156133ad57600080fd5b505afa1580156133c1573d6000803e3d6000fd5b505050506040513d601f19601f820116820180604052508101906133e591906147d9565b604051806040016040528060138152602001600080516020614a79833981519152815250906134275760405162461bcd60e51b815260040161079391906147fb565b5083600061343433612294565b905060008060005b8481101561126e5789898281811061345657613456614936565b905060200201602081019061346b9190614643565b9150613476826139ed565b9250613483828486613a3b565b508061348e81614962565b91505061343c565b60006134a06138b3565b604051632474521560e21b815269676f7665726e616e636560b01b60048201523360248201526001600160a01b0391909116906391d148549060440160206040518083038186803b1580156134f457600080fd5b505afa158015613508573d6000803e3d6000fd5b505050506040513d601f19601f8201168201806040525081019061352c91906147d9565b604051806040016040528060138152602001600080516020614a798339815191528152509061356e5760405162461bcd60e51b815260040161079391906147fb565b506005546040805180820190915260168152751059191c995cdcc81a5cc8185b1c9958591e481cd95d60521b6020820152906001600160a01b0316156135c75760405162461bcd60e51b815260040161079391906147fb565b5060006001600160a01b0316826001600160a01b03161415604051806080016040528060448152602001614aba60449139906136165760405162461bcd60e51b815260040161079391906147fb565b5050600580546001600160a01b0383166001600160a01b03199091161790556001919050565b60006136466138b3565b604051632474521560e21b815269676f7665726e616e636560b01b60048201523360248201526001600160a01b0391909116906391d148549060440160206040518083038186803b15801561369a57600080fd5b505afa1580156136ae573d6000803e3d6000fd5b505050506040513d601f19601f820116820180604052508101906136d291906147d9565b604051806040016040528060138152602001600080516020614a79833981519152815250906137145760405162461bcd60e51b815260040161079391906147fb565b50613720600c836139d1565b61372c57506000919050565b6000613739600c84613e58565b90506000613746846139ed565b9050613753816000613a2b565b5061376084826001613a3b565b50816001600160a01b03166341c0e1b56040518163ffffffff1660e01b8152600401602060405180830381600087803b15801561379c57600080fd5b505af11580156137b0573d6000803e3d6000fd5b505050506040513d601f19601f820116820180604052508101906137d491906147d9565b506137e0600c8561407a565b50816001600160a01b0316846001600160a01b03167fcc16c499caeb153ba6505515fba6ee59e03ae0b2d58e71b0bf2f5d6c1edce18a60405160405180910390a35060019392505050565b6040516321f8a72160e01b81526a3937b632a6b0b730b3b2b960a91b60048201526000906001600160a01b038316906321f8a7219060240160206040518083038186803b15801561387b57600080fd5b505afa15801561388f573d6000803e3d6000fd5b505050506040513d601f19601f820116820180604052508101906117aa919061499c565b7f000000000000000000000000000000000000000000000000000000000000000090565b60006138e4600983613e58565b905060006138f183613df5565b90506138fe816000613a2b565b5061390b81846001613f35565b5061391760098461407a565b50816001600160a01b03166341c0e1b56040518163ffffffff1660e01b8152600401602060405180830381600087803b15801561395357600080fd5b505af1158015613967573d6000803e3d6000fd5b505050506040513d601f19601f8201168201806040525081019061398b91906147d9565b50816001600160a01b0316836001600160a01b03167f17f0f96ae429677ea4738e76673566db1bd65621496eee49c94173e289e24dc860405160405180910390a3505050565b60006139e6836001600160a01b03841661408f565b9392505050565b600068185b5b55d95a59da1d60ba1b82604051602001613a0e929190614a13565b604051602081830303815290604052805190602001209050919050565b60006139e683836203f48061409b565b6000613a48600c85613e58565b6001600160a01b0316635790a0c86040518163ffffffff1660e01b8152600401602060405180830381600087803b158015613a8257600080fd5b505af1158015613a96573d6000803e3d6000fd5b505050506040513d601f19601f82011682018060405250810190613aba91906147d9565b50600083815260016020908152604080832054600390925290912054600854613ae39190614a33565b613aed9190614a4a565b6008819055613afd576000613b01565b6008545b60085581613b1757613b12836140f1565b613b31565b600083815260016020526040902054613b3190849061411c565b50836001600160a01b03167fae184fbf7bfb224f97d6249d7fa54401f07985f32c0dc355869f2268ef3211f56003600086815260200190815260200160002054604051613b8091815260200190565b60405180910390a25060019392505050565b604051633dea062f60e21b81526001600160a01b0382811660048301526000917f00000000000000000000000000000000000000000000000000000000000000009091169063f7a818bc9060240160206040518083038186803b158015613bf857600080fd5b505afa158015613c0c573d6000803e3d6000fd5b505050506040513d601f19601f82011682018060405250810190613c30919061499c565b6001600160a01b03161415604051806040016040528060118152602001701859191c995cdcc81b9bdd08199bdd5b99607a1b81525090613c835760405162461bcd60e51b815260040161079391906147fb565b5050565b6000671b1c15d95a59da1d60c21b82604051602001613a0e929190614a13565b6000826001600160a01b0316635790a0c86040518163ffffffff1660e01b8152600401602060405180830381600087803b158015613ce457600080fd5b505af1158015613cf8573d6000803e3d6000fd5b505050506040513d601f19601f82011682018060405250810190613d1c91906147d9565b50600085815260016020908152604080832054600390925290912054600754613d459190614a33565b613d4f9190614a4a565b6007819055613d5f576000613d63565b6007545b60075581613d7957613d74856140f1565b613d93565b600085815260016020526040902054613d9390869061411c565b50836001600160a01b03167fed56e077a86640eda727b81e991a174258c5356858ae761a377afccf9fac283e6003600088815260200190815260200160002054604051613de291815260200190565b60405180910390a2506001949350505050565b60006b1ad9595c195c95d95a59da1d60a21b82604051602001613a0e929190614a13565b6000808080613e31866001600160a01b038716614188565b909450925050505b9250929050565b60006117aa826141c2565b600080610f0884846141cd565b60006139e6836001600160a01b0384166141dc565b6000611f48846001600160a01b0380861690851661424c565b60606000613e9383613e40565b905060008167ffffffffffffffff811115613eb057613eb0614850565b604051908082528060200260200182016040528015613ed9578160200160208202803683370190505b50905060005b82811015613f2d57613ef18582613e4b565b828281518110613f0357613f03614936565b6001600160a01b039092166020928302919091019091015280613f2581614962565b915050613edf565b509392505050565b6000613f42600984613e58565b6001600160a01b0316635790a0c86040518163ffffffff1660e01b8152600401602060405180830381600087803b158015613f7c57600080fd5b505af1158015613f90573d6000803e3d6000fd5b505050506040513d601f19601f82011682018060405250810190613fb491906147d9565b50600084815260016020908152604080832054600390925290912054600654613fdd9190614a33565b613fe79190614a4a565b6006819055613ff7576000613ffb565b6006545b600655816140115761400c846140f1565b61402b565b60008481526001602052604090205461402b90859061411c565b50826001600160a01b03167fd4087c97381173c70bcc96da898724a384de03e9b747eefe531406b538babeac6003600087815260200190815260200160002054604051613b8091815260200190565b60006139e6836001600160a01b038416614269565b60006139e68383614286565b60006140a7848361429e565b600084815260016020908152604091829020859055815185815290810184905285917f0e6790002e78fb96ff1fdfe3a3bb2a86489d3f3923372c1fe5b6b1fed071eed49101613b80565b60006140fc82614378565b600082815260016020526040902054614115838261411c565b5092915050565b6000828152600360209081526040808320805490859055600183528184208490556004835281842084905581518181529283018590529185917fcc0bafe2accb565ea70674bf4b2555e49a47d410fb9932dfab3e5f41855d0a2f910160405180910390a2509092915050565b60008181526002830160205260408120548190806141b7576141aa858561408f565b925060009150613e399050565b600192509050613e39565b60006117aa82614421565b6000808080613e31868661442b565b6000818152600283016020526040812054801515806142005750614200848461408f565b6139e65760405162461bcd60e51b815260206004820152601e60248201527f456e756d657261626c654d61703a206e6f6e6578697374656e74206b657900006044820152606401610793565b60008281526002840160205260408120829055611f488484614456565b600081815260028301602052604081208190556139e68383614462565b600081815260018301602052604081205415156139e6565b6004600083815260200190815260200160002054600014604051806040016040528060128152602001710646561646c696e65206d75737420626520360741b815250906142fe5760405162461bcd60e51b815260040161079391906147fb565b5060408051808201909152601881527f64656c6179206265206174206c6561737420332064617973000000000000000060208201526203f4808210156143575760405162461bcd60e51b815260040161079391906147fb565b506143628142614a4a565b6000928352600460205260409092209190915550565b60006004600083815260200190815260200160002054905080421015604051806060016040528060218152602001614a9960219139906143cb5760405162461bcd60e51b815260040161079391906147fb565b5060408051808201909152600d81526c0646561646c696e65206973203609c1b60208201528161440e5760405162461bcd60e51b815260040161079391906147fb565b5050600090815260046020526040812055565b60006117aa825490565b60008080614439858561446e565b600081815260029690960160205260409095205494959350505050565b60006139e6838361447a565b60006139e683836144c9565b60006139e683836145bc565b60008181526001830160205260408120546144c1575081546001818101845560008481526020808220909301849055845484825282860190935260409020919091556117aa565b5060006117aa565b600081815260018301602052604081205480156145b25760006144ed600183614a33565b855490915060009061450190600190614a33565b905081811461456657600086600001828154811061452157614521614936565b906000526020600020015490508087600001848154811061454457614544614936565b6000918252602080832090910192909255918252600188019052604090208390555b855486908061457757614577614a62565b6001900381819060005260206000200160009055905585600101600086815260200190815260200160002060009055600193505050506117aa565b60009150506117aa565b60008260000182815481106145d3576145d3614936565b9060005260206000200154905092915050565b6000602082840312156145f857600080fd5b5035919050565b6001600160a01b038116811461461457600080fd5b50565b6000806040838503121561462a57600080fd5b8235614635816145ff565b946020939093013593505050565b60006020828403121561465557600080fd5b81356139e6816145ff565b60008083601f84011261467257600080fd5b50813567ffffffffffffffff81111561468a57600080fd5b6020830191508360208260051b8501011115613e3957600080fd5b600080600080604085870312156146bb57600080fd5b843567ffffffffffffffff808211156146d357600080fd5b6146df88838901614660565b909650945060208701359150808211156146f857600080fd5b5061470587828801614660565b95989497509550505050565b6000806040838503121561472457600080fd5b823561472f816145ff565b9150602083013561473f816145ff565b809150509250929050565b6000806020838503121561475d57600080fd5b823567ffffffffffffffff81111561477457600080fd5b61478085828601614660565b90969095509350505050565b6020808252825182820181905260009190848201906040850190845b818110156147cd5783516001600160a01b0316835292840192918401916001016147a8565b50909695505050505050565b6000602082840312156147eb57600080fd5b815180151581146139e657600080fd5b600060208083528351808285015260005b818110156148285785810183015185820160400152820161480c565b8181111561483a576000604083870101525b50601f01601f1916929092016040019392505050565b634e487b7160e01b600052604160045260246000fd5b8051612692816145ff565b6000602080838503121561488457600080fd5b825167ffffffffffffffff8082111561489c57600080fd5b818501915085601f8301126148b057600080fd5b8151818111156148c2576148c2614850565b8060051b604051601f19603f830116810181811085821117156148e7576148e7614850565b60405291825284820192508381018501918883111561490557600080fd5b938501935b8285101561492a5761491b85614866565b8452938501939285019261490a565b98975050505050505050565b634e487b7160e01b600052603260045260246000fd5b634e487b7160e01b600052601160045260246000fd5b60006000198214156149765761497661494c565b5060010190565b92835260208301919091526001600160a01b0316604082015260600190565b6000602082840312156149ae57600080fd5b81516139e6816145ff565b6000602082840312156149cb57600080fd5b5051919050565b60008160001904831182151516156149ec576149ec61494c565b500290565b600082614a0e57634e487b7160e01b600052601260045260246000fd5b500490565b91825260601b6bffffffffffffffffffffffff1916602082015260340190565b600082821015614a4557614a4561494c565b500390565b60008219821115614a5d57614a5d61494c565b500190565b634e487b7160e01b600052603160045260246000fdfe756e617574686f72697a65642061636365737300000000000000000000000000646561646c696e6520686173206e6f74206265656e207265616368656420796574746865206d696e7465722061646472657373206f6620746865204c5020746f6b656e20616e642074686520706f6f6c206164647265737320646f206e6f74206d61746368a2646970667358221220058c9e3064168a03e655820976488e96cd9349be77c5c7810d92d8ef3e0bb8f464736f6c63430008090033",
  "linkReferences": {},
  "deployedLinkReferences": {}
}