{
  "_format": "hh-sol-artifact-1",
  "contractName": "BadgerYearnWbtcPeak",
  "sourceName": "contracts/peaks/BadgerYearnWbtcPeak.sol",
  "abi": [
    {
      "inputs": [
        {
          "internalType": "address",
          "name": "_core",
          "type": "address"
        },
        {
          "internalType": "address",
          "name": "_byvWBTC",
          "type": "address"
        }
      ],
      "stateMutability": "nonpayable",
      "type": "constructor"
    },
    {
      "anonymous": false,
      "inputs": [
        {
          "indexed": false,
          "internalType": "address",
          "name": "account",
          "type": "address"
        },
        {
          "indexed": false,
          "internalType": "uint256",
          "name": "ibBTC",
          "type": "uint256"
        },
        {
          "indexed": false,
          "internalType": "uint256",
          "name": "byvWBTC",
          "type": "uint256"
        }
      ],
      "name": "Mint",
      "type": "event"
    },
    {
      "anonymous": false,
      "inputs": [
        {
          "indexed": true,
          "internalType": "address",
          "name": "previousOwner",
          "type": "address"
        },
        {
          "indexed": true,
          "internalType": "address",
          "name": "newOwner",
          "type": "address"
        }
      ],
      "name": "OwnershipTransferred",
      "type": "event"
    },
    {
      "anonymous": false,
      "inputs": [
        {
          "indexed": false,
          "internalType": "address",
          "name": "account",
          "type": "address"
        },
        {
          "indexed": false,
          "internalType": "uint256",
          "name": "ibBTC",
          "type": "uint256"
        },
        {
          "indexed": false,
          "internalType": "uint256",
          "name": "byvWBTC",
          "type": "uint256"
        }
      ],
      "name": "Redeem",
      "type": "event"
    },
    {
      "inputs": [
        {
          "internalType": "address",
          "name": "account",
          "type": "address"
        }
      ],
      "name": "approveContractAccess",
      "outputs": [],
      "stateMutability": "nonpayable",
      "type": "function"
    },
    {
      "inputs": [
        {
          "internalType": "address",
          "name": "",
          "type": "address"
        }
      ],
      "name": "approved",
      "outputs": [
        {
          "internalType": "bool",
          "name": "",
          "type": "bool"
        }
      ],
      "stateMutability": "view",
      "type": "function"
    },
    {
      "inputs": [
        {
          "internalType": "address",
          "name": "",
          "type": "address"
        }
      ],
      "name": "blockLock",
      "outputs": [
        {
          "internalType": "uint256",
          "name": "",
          "type": "uint256"
        }
      ],
      "stateMutability": "view",
      "type": "function"
    },
    {
      "inputs": [],
      "name": "byvWBTC",
      "outputs": [
        {
          "internalType": "contract IbyvWbtc",
          "name": "",
          "type": "address"
        }
      ],
      "stateMutability": "view",
      "type": "function"
    },
    {
      "inputs": [
        {
          "internalType": "uint256",
          "name": "inAmount",
          "type": "uint256"
        }
      ],
      "name": "calcMint",
      "outputs": [
        {
          "internalType": "uint256",
          "name": "bBTC",
          "type": "uint256"
        },
        {
          "internalType": "uint256",
          "name": "fee",
          "type": "uint256"
        }
      ],
      "stateMutability": "view",
      "type": "function"
    },
    {
      "inputs": [
        {
          "internalType": "uint256",
          "name": "bBtc",
          "type": "uint256"
        }
      ],
      "name": "calcRedeem",
      "outputs": [
        {
          "internalType": "uint256",
          "name": "sett",
          "type": "uint256"
        },
        {
          "internalType": "uint256",
          "name": "fee",
          "type": "uint256"
        },
        {
          "internalType": "uint256",
          "name": "max",
          "type": "uint256"
        }
      ],
      "stateMutability": "view",
      "type": "function"
    },
    {
      "inputs": [],
      "name": "core",
      "outputs": [
        {
          "internalType": "contract ICore",
          "name": "",
          "type": "address"
        }
      ],
      "stateMutability": "view",
      "type": "function"
    },
    {
      "inputs": [
        {
          "internalType": "uint256",
          "name": "inAmount",
          "type": "uint256"
        },
        {
          "internalType": "bytes32[]",
          "name": "merkleProof",
          "type": "bytes32[]"
        }
      ],
      "name": "mint",
      "outputs": [
        {
          "internalType": "uint256",
          "name": "outAmount",
          "type": "uint256"
        }
      ],
      "stateMutability": "nonpayable",
      "type": "function"
    },
    {
      "inputs": [],
      "name": "owner",
      "outputs": [
        {
          "internalType": "address",
          "name": "_owner",
          "type": "address"
        }
      ],
      "stateMutability": "view",
      "type": "function"
    },
    {
      "inputs": [],
      "name": "portfolioValue",
      "outputs": [
        {
          "internalType": "uint256",
          "name": "",
          "type": "uint256"
        }
      ],
      "stateMutability": "view",
      "type": "function"
    },
    {
      "inputs": [
        {
          "internalType": "uint256",
          "name": "inAmount",
          "type": "uint256"
        }
      ],
      "name": "redeem",
      "outputs": [
        {
          "internalType": "uint256",
          "name": "outAmount",
          "type": "uint256"
        }
      ],
      "stateMutability": "nonpayable",
      "type": "function"
    },
    {
      "inputs": [
        {
          "internalType": "address",
          "name": "account",
          "type": "address"
        }
      ],
      "name": "revokeContractAccess",
      "outputs": [],
      "stateMutability": "nonpayable",
      "type": "function"
    },
    {
      "inputs": [
        {
          "internalType": "address",
          "name": "newOwner",
          "type": "address"
        }
      ],
      "name": "transferOwnership",
      "outputs": [],
      "stateMutability": "nonpayable",
      "type": "function"
    }
  ],
  "bytecode": "0x60c06040523480156200001157600080fd5b50604051620024aa380380620024aa8339818101604052810190620000379190620001f5565b6200004833620000be60201b60201c565b8173ffffffffffffffffffffffffffffffffffffffff1660808173ffffffffffffffffffffffffffffffffffffffff1660601b815250508073ffffffffffffffffffffffffffffffffffffffff1660a08173ffffffffffffffffffffffffffffffffffffffff1660601b81525050505062000383565b600073ffffffffffffffffffffffffffffffffffffffff168173ffffffffffffffffffffffffffffffffffffffff16141562000131576040517f08c379a00000000000000000000000000000000000000000000000000000000081526004016200012890620002f7565b60405180910390fd5b8073ffffffffffffffffffffffffffffffffffffffff1662000158620001bb60201b60201c565b73ffffffffffffffffffffffffffffffffffffffff167f8be0079c531659141344cd1fd0a4f28419497f9722a3daafe3b4186f6b6457e060405160405180910390a36000604051620001aa90620002e0565b604051809103902090508181555050565b600080604051620001cc90620002e0565b60405180910390209050805491505090565b600081519050620001ef8162000369565b92915050565b600080604083850312156200020957600080fd5b60006200021985828601620001de565b92505060206200022c85828601620001de565b9150509250929050565b600062000245600b836200032a565b91507f70726f78792e6f776e65720000000000000000000000000000000000000000006000830152600b82019050919050565b600062000287602b8362000319565b91507f4f776e61626c6550726f78793a206e6577206f776e657220697320746865207a60008301527f65726f20616464726573730000000000000000000000000000000000000000006020830152604082019050919050565b6000620002ed8262000236565b9150819050919050565b60006020820190508181036000830152620003128162000278565b9050919050565b600082825260208201905092915050565b600081905092915050565b6000620003428262000349565b9050919050565b600073ffffffffffffffffffffffffffffffffffffffff82169050919050565b620003748162000335565b81146200038057600080fd5b50565b60805160601c60a05160601c6120cb620003df60003980610363528061071952806107a25280610a425280610e2d528061102b52508061065852806109895280610ace5280610b8c5280610c645280610d0c52506120cb6000f3fe608060405234801561001057600080fd5b50600436106100cf5760003560e01c8063ca820d2f1161008c578063ed21b97511610066578063ed21b97514610226578063f2f4eb2614610258578063f2fde38b14610276578063f84dfc6614610292576100cf565b8063ca820d2f146101a8578063d8b964e6146101c6578063db006a75146101f6576100cf565b8063269ac051146100d45780636c3618651461010457806373acb590146101205780637c61e8651461013e5780638da5cb5b1461015a578063ba41b0c614610178575b600080fd5b6100ee60048036038101906100e99190611688565b6102c3565b6040516100fb9190611e05565b60405180910390f35b61011e60048036038101906101199190611688565b6102db565b005b61012861035c565b6040516101359190611e05565b60405180910390f35b61015860048036038101906101539190611688565b610414565b005b610162610495565b60405161016f9190611be0565b60405180910390f35b610192600480360381019061018d919061172c565b6104b6565b60405161019f9190611e05565b60405180910390f35b6101b06107a0565b6040516101bd9190611cc8565b60405180910390f35b6101e060048036038101906101db9190611688565b6107c4565b6040516101ed9190611c92565b60405180910390f35b610210600480360381019061020b91906116da565b6107e4565b60405161021d9190611e05565b60405180910390f35b610240600480360381019061023b91906116da565b610ac6565b60405161024f93929190611eb2565b60405180910390f35b610260610c62565b60405161026d9190611cad565b60405180910390f35b610290600480360381019061028b9190611688565b610c86565b005b6102ac60048036038101906102a791906116da565b610d07565b6040516102ba929190611e89565b60405180910390f35b60016020528060005260406000206000915090505481565b3373ffffffffffffffffffffffffffffffffffffffff166102fa610495565b73ffffffffffffffffffffffffffffffffffffffff1614610350576040517f08c379a000000000000000000000000000000000000000000000000000000000815260040161034790611dc5565b60405180910390fd5b61035981610dc7565b50565b600061040f7f000000000000000000000000000000000000000000000000000000000000000073ffffffffffffffffffffffffffffffffffffffff166370a08231306040518263ffffffff1660e01b81526004016103ba9190611be0565b60206040518083038186803b1580156103d257600080fd5b505afa1580156103e6573d6000803e3d6000fd5b505050506040513d601f19601f8201168201806040525081019061040a9190611703565b610e21565b905090565b3373ffffffffffffffffffffffffffffffffffffffff16610433610495565b73ffffffffffffffffffffffffffffffffffffffff1614610489576040517f08c379a000000000000000000000000000000000000000000000000000000000815260040161048090611dc5565b60405180910390fd5b61049281610eed565b50565b6000806040516104a490611bcb565b60405180910390209050805491505090565b60003273ffffffffffffffffffffffffffffffffffffffff163373ffffffffffffffffffffffffffffffffffffffff16148061053a57506000803373ffffffffffffffffffffffffffffffffffffffff1673ffffffffffffffffffffffffffffffffffffffff16815260200190815260200160002060009054906101000a900460ff165b610579576040517f08c379a000000000000000000000000000000000000000000000000000000000815260040161057090611d85565b60405180910390fd5b6000803373ffffffffffffffffffffffffffffffffffffffff1673ffffffffffffffffffffffffffffffffffffffff16815260200190815260200160002060009054906101000a900460ff168061060e575043600160003373ffffffffffffffffffffffffffffffffffffffff1673ffffffffffffffffffffffffffffffffffffffff16815260200190815260200160002054105b61064d576040517f08c379a000000000000000000000000000000000000000000000000000000000815260040161064490611d05565b60405180910390fd5b61065633610f47565b7f000000000000000000000000000000000000000000000000000000000000000073ffffffffffffffffffffffffffffffffffffffff166347c699d161069b86610e21565b3386866040518563ffffffff1660e01b81526004016106bd9493929190611e49565b602060405180830381600087803b1580156106d757600080fd5b505af11580156106eb573d6000803e3d6000fd5b505050506040513d601f19601f8201168201806040525081019061070f9190611703565b905061075e3330867f000000000000000000000000000000000000000000000000000000000000000073ffffffffffffffffffffffffffffffffffffffff16610f8e909392919063ffffffff16565b7f4c209b5fc8ad50758f13e2e1088ba56a560dff690a1c6fef26394f4c03821c4f33828660405161079193929190611bfb565b60405180910390a19392505050565b7f000000000000000000000000000000000000000000000000000000000000000081565b60006020528060005260406000206000915054906101000a900460ff1681565b60003273ffffffffffffffffffffffffffffffffffffffff163373ffffffffffffffffffffffffffffffffffffffff16148061086857506000803373ffffffffffffffffffffffffffffffffffffffff1673ffffffffffffffffffffffffffffffffffffffff16815260200190815260200160002060009054906101000a900460ff165b6108a7576040517f08c379a000000000000000000000000000000000000000000000000000000000815260040161089e90611d85565b60405180910390fd5b6000803373ffffffffffffffffffffffffffffffffffffffff1673ffffffffffffffffffffffffffffffffffffffff16815260200190815260200160002060009054906101000a900460ff168061093c575043600160003373ffffffffffffffffffffffffffffffffffffffff1673ffffffffffffffffffffffffffffffffffffffff16815260200190815260200160002054105b61097b576040517f08c379a000000000000000000000000000000000000000000000000000000000815260040161097290611d05565b60405180910390fd5b61098433610f47565b610a397f000000000000000000000000000000000000000000000000000000000000000073ffffffffffffffffffffffffffffffffffffffff16637bde82f284336040518363ffffffff1660e01b81526004016109e2929190611e20565b602060405180830381600087803b1580156109fc57600080fd5b505af1158015610a10573d6000803e3d6000fd5b505050506040513d601f19601f82011682018060405250810190610a349190611703565b611017565b9050610a8633827f000000000000000000000000000000000000000000000000000000000000000073ffffffffffffffffffffffffffffffffffffffff166110eb9092919063ffffffff16565b7fe5b754fb1abb7f01b499791d0b820ae3b6af3424ac1c59768edb53f4ec31a929338383604051610ab993929190611bfb565b60405180910390a1919050565b6000806000807f000000000000000000000000000000000000000000000000000000000000000073ffffffffffffffffffffffffffffffffffffffff1663f0db6adf866040518263ffffffff1660e01b8152600401610b259190611e05565b604080518083038186803b158015610b3c57600080fd5b505afa158015610b50573d6000803e3d6000fd5b505050506040513d601f19601f82011682018060405250810190610b749190611784565b8094508192505050610b8581611017565b9350610c587f000000000000000000000000000000000000000000000000000000000000000073ffffffffffffffffffffffffffffffffffffffff166399530b066040518163ffffffff1660e01b815260040160206040518083038186803b158015610bf057600080fd5b505afa158015610c04573d6000803e3d6000fd5b505050506040513d601f19601f82011682018060405250810190610c289190611703565b610c4a670de0b6b3a7640000610c3c61035c565b61117190919063ffffffff16565b6111e190919063ffffffff16565b9150509193909250565b7f000000000000000000000000000000000000000000000000000000000000000081565b3373ffffffffffffffffffffffffffffffffffffffff16610ca5610495565b73ffffffffffffffffffffffffffffffffffffffff1614610cfb576040517f08c379a0000000000000000000000000000000000000000000000000000000008152600401610cf290611dc5565b60405180910390fd5b610d048161122b565b50565b6000807f000000000000000000000000000000000000000000000000000000000000000073ffffffffffffffffffffffffffffffffffffffff16634c31990a610d4f85610e21565b6040518263ffffffff1660e01b8152600401610d6b9190611e05565b604080518083038186803b158015610d8257600080fd5b505afa158015610d96573d6000803e3d6000fd5b505050506040513d601f19601f82011682018060405250810190610dba9190611784565b8092508193505050915091565b60016000808373ffffffffffffffffffffffffffffffffffffffff1673ffffffffffffffffffffffffffffffffffffffff16815260200190815260200160002060006101000a81548160ff02191690831515021790555050565b6000610ee66064610ed87f000000000000000000000000000000000000000000000000000000000000000073ffffffffffffffffffffffffffffffffffffffff166399530b066040518163ffffffff1660e01b815260040160206040518083038186803b158015610e9157600080fd5b505afa158015610ea5573d6000803e3d6000fd5b505050506040513d601f19601f82011682018060405250810190610ec99190611703565b8561117190919063ffffffff16565b61117190919063ffffffff16565b9050919050565b60008060008373ffffffffffffffffffffffffffffffffffffffff1673ffffffffffffffffffffffffffffffffffffffff16815260200190815260200160002060006101000a81548160ff02191690831515021790555050565b43600160008373ffffffffffffffffffffffffffffffffffffffff1673ffffffffffffffffffffffffffffffffffffffff1681526020019081526020016000208190555050565b611011846323b872dd60e01b858585604051602401610faf93929190611c32565b604051602081830303815290604052907bffffffffffffffffffffffffffffffffffffffffffffffffffffffff19166020820180517bffffffffffffffffffffffffffffffffffffffffffffffffffffffff838183161783525050505061131b565b50505050565b60006110e468056bc75e2d631000006110d67f000000000000000000000000000000000000000000000000000000000000000073ffffffffffffffffffffffffffffffffffffffff166399530b066040518163ffffffff1660e01b815260040160206040518083038186803b15801561108f57600080fd5b505afa1580156110a3573d6000803e3d6000fd5b505050506040513d601f19601f820116820180604052508101906110c79190611703565b856111e190919063ffffffff16565b6111e190919063ffffffff16565b9050919050565b61116c8363a9059cbb60e01b848460405160240161110a929190611c69565b604051602081830303815290604052907bffffffffffffffffffffffffffffffffffffffffffffffffffffffff19166020820180517bffffffffffffffffffffffffffffffffffffffffffffffffffffffff838183161783525050505061131b565b505050565b60008083141561118457600090506111db565b600082840290508284828161119557fe5b04146111d6576040517f08c379a00000000000000000000000000000000000000000000000000000000081526004016111cd90611d65565b60405180910390fd5b809150505b92915050565b600061122383836040518060400160405280601a81526020017f536166654d6174683a206469766973696f6e206279207a65726f0000000000008152506113e2565b905092915050565b600073ffffffffffffffffffffffffffffffffffffffff168173ffffffffffffffffffffffffffffffffffffffff16141561129b576040517f08c379a000000000000000000000000000000000000000000000000000000000815260040161129290611d45565b60405180910390fd5b8073ffffffffffffffffffffffffffffffffffffffff166112ba610495565b73ffffffffffffffffffffffffffffffffffffffff167f8be0079c531659141344cd1fd0a4f28419497f9722a3daafe3b4186f6b6457e060405160405180910390a3600060405161130a90611bcb565b604051809103902090508181555050565b606061137d826040518060400160405280602081526020017f5361666545524332303a206c6f772d6c6576656c2063616c6c206661696c65648152508573ffffffffffffffffffffffffffffffffffffffff166114439092919063ffffffff16565b90506000815111156113dd578080602001905181019061139d91906116b1565b6113dc576040517f08c379a00000000000000000000000000000000000000000000000000000000081526004016113d390611de5565b60405180910390fd5b5b505050565b60008083118290611429576040517f08c379a00000000000000000000000000000000000000000000000000000000081526004016114209190611ce3565b60405180910390fd5b50600083858161143557fe5b049050809150509392505050565b6060611452848460008561145b565b90509392505050565b6060824710156114a0576040517f08c379a000000000000000000000000000000000000000000000000000000000815260040161149790611d25565b60405180910390fd5b6114a985611570565b6114e8576040517f08c379a00000000000000000000000000000000000000000000000000000000081526004016114df90611da5565b60405180910390fd5b600060608673ffffffffffffffffffffffffffffffffffffffff1685876040516115129190611bb4565b60006040518083038185875af1925050503d806000811461154f576040519150601f19603f3d011682016040523d82523d6000602084013e611554565b606091505b5091509150611564828286611583565b92505050949350505050565b600080823b905060008111915050919050565b60608315611593578290506115e3565b6000835111156115a65782518084602001fd5b816040517f08c379a00000000000000000000000000000000000000000000000000000000081526004016115da9190611ce3565b60405180910390fd5b9392505050565b6000813590506115f981612050565b92915050565b60008083601f84011261161157600080fd5b8235905067ffffffffffffffff81111561162a57600080fd5b60208301915083602082028301111561164257600080fd5b9250929050565b60008151905061165881612067565b92915050565b60008135905061166d8161207e565b92915050565b6000815190506116828161207e565b92915050565b60006020828403121561169a57600080fd5b60006116a8848285016115ea565b91505092915050565b6000602082840312156116c357600080fd5b60006116d184828501611649565b91505092915050565b6000602082840312156116ec57600080fd5b60006116fa8482850161165e565b91505092915050565b60006020828403121561171557600080fd5b600061172384828501611673565b91505092915050565b60008060006040848603121561174157600080fd5b600061174f8682870161165e565b935050602084013567ffffffffffffffff81111561176c57600080fd5b611778868287016115ff565b92509250509250925092565b6000806040838503121561179757600080fd5b60006117a585828601611673565b92505060206117b685828601611673565b9150509250929050565b6117c981611f7f565b82525050565b6117d881611f37565b82525050565b60006117ea8385611eff565b93507f07ffffffffffffffffffffffffffffffffffffffffffffffffffffffffffffff83111561181957600080fd5b60208302925061182a838584611ffd565b82840190509392505050565b61183f81611f49565b82525050565b600061185082611ee9565b61185a8185611f10565b935061186a81856020860161200c565b80840191505092915050565b61187f81611f91565b82525050565b61188e81611fb5565b82525050565b600061189f82611ef4565b6118a98185611f1b565b93506118b981856020860161200c565b6118c28161203f565b840191505092915050565b60006118da600c83611f1b565b91507f424c4f434b5f4c4f434b454400000000000000000000000000000000000000006000830152602082019050919050565b600061191a602683611f1b565b91507f416464726573733a20696e73756666696369656e742062616c616e636520666f60008301527f722063616c6c00000000000000000000000000000000000000000000000000006020830152604082019050919050565b6000611980600b83611f2c565b91507f70726f78792e6f776e65720000000000000000000000000000000000000000006000830152600b82019050919050565b60006119c0602b83611f1b565b91507f4f776e61626c6550726f78793a206e6577206f776e657220697320746865207a60008301527f65726f20616464726573730000000000000000000000000000000000000000006020830152604082019050919050565b6000611a26602183611f1b565b91507f536166654d6174683a206d756c7469706c69636174696f6e206f766572666c6f60008301527f77000000000000000000000000000000000000000000000000000000000000006020830152604082019050919050565b6000611a8c600d83611f1b565b91507f4143434553535f44454e494544000000000000000000000000000000000000006000830152602082019050919050565b6000611acc601d83611f1b565b91507f416464726573733a2063616c6c20746f206e6f6e2d636f6e74726163740000006000830152602082019050919050565b6000611b0c600983611f1b565b91507f4e4f545f4f574e455200000000000000000000000000000000000000000000006000830152602082019050919050565b6000611b4c602a83611f1b565b91507f5361666545524332303a204552433230206f7065726174696f6e20646964206e60008301527f6f742073756363656564000000000000000000000000000000000000000000006020830152604082019050919050565b611bae81611f75565b82525050565b6000611bc08284611845565b915081905092915050565b6000611bd682611973565b9150819050919050565b6000602082019050611bf560008301846117cf565b92915050565b6000606082019050611c1060008301866117c0565b611c1d6020830185611ba5565b611c2a6040830184611ba5565b949350505050565b6000606082019050611c4760008301866117cf565b611c5460208301856117cf565b611c616040830184611ba5565b949350505050565b6000604082019050611c7e60008301856117cf565b611c8b6020830184611ba5565b9392505050565b6000602082019050611ca76000830184611836565b92915050565b6000602082019050611cc26000830184611876565b92915050565b6000602082019050611cdd6000830184611885565b92915050565b60006020820190508181036000830152611cfd8184611894565b905092915050565b60006020820190508181036000830152611d1e816118cd565b9050919050565b60006020820190508181036000830152611d3e8161190d565b9050919050565b60006020820190508181036000830152611d5e816119b3565b9050919050565b60006020820190508181036000830152611d7e81611a19565b9050919050565b60006020820190508181036000830152611d9e81611a7f565b9050919050565b60006020820190508181036000830152611dbe81611abf565b9050919050565b60006020820190508181036000830152611dde81611aff565b9050919050565b60006020820190508181036000830152611dfe81611b3f565b9050919050565b6000602082019050611e1a6000830184611ba5565b92915050565b6000604082019050611e356000830185611ba5565b611e4260208301846117c0565b9392505050565b6000606082019050611e5e6000830187611ba5565b611e6b60208301866117c0565b8181036040830152611e7e8184866117de565b905095945050505050565b6000604082019050611e9e6000830185611ba5565b611eab6020830184611ba5565b9392505050565b6000606082019050611ec76000830186611ba5565b611ed46020830185611ba5565b611ee16040830184611ba5565b949350505050565b600081519050919050565b600081519050919050565b600082825260208201905092915050565b600081905092915050565b600082825260208201905092915050565b600081905092915050565b6000611f4282611f55565b9050919050565b60008115159050919050565b600073ffffffffffffffffffffffffffffffffffffffff82169050919050565b6000819050919050565b6000611f8a82611fd9565b9050919050565b6000611f9c82611fa3565b9050919050565b6000611fae82611f55565b9050919050565b6000611fc082611fc7565b9050919050565b6000611fd282611f55565b9050919050565b6000611fe482611feb565b9050919050565b6000611ff682611f55565b9050919050565b82818337600083830152505050565b60005b8381101561202a57808201518184015260208101905061200f565b83811115612039576000848401525b50505050565b6000601f19601f8301169050919050565b61205981611f37565b811461206457600080fd5b50565b61207081611f49565b811461207b57600080fd5b50565b61208781611f75565b811461209257600080fd5b5056fea26469706673582212207812d06bca15604ba0afe7d61764f41e1d2bb348a4c3c5e6b04b95558f0646dd64736f6c634300060b0033",
  "linkReferences": {},
  "deployedLinkReferences": {}
}