{
  "_format": "hh-sol-artifact-1",
  "contractName": "Auction",
  "sourceName": "contracts/Auction.sol",
  "abi": [
    {
      "anonymous": false,
      "inputs": [
        {
          "indexed": false,
          "internalType": "address",
          "name": "_settler",
          "type": "address"
        }
      ],
      "name": "AuctionSettled",
      "type": "event"
    },
    {
      "anonymous": false,
      "inputs": [],
      "name": "AuctionStarted",
      "type": "event"
    },
    {
      "anonymous": false,
      "inputs": [
        {
          "indexed": false,
          "internalType": "address",
          "name": "_burned",
          "type": "address"
        },
        {
          "indexed": false,
          "internalType": "address",
          "name": "_burnee",
          "type": "address"
        },
        {
          "indexed": false,
          "internalType": "uint256",
          "name": "_amount",
          "type": "uint256"
        }
      ],
      "name": "BondBurned",
      "type": "event"
    },
    {
      "anonymous": false,
      "inputs": [
        {
          "indexed": false,
          "internalType": "address",
          "name": "_bonder",
          "type": "address"
        },
        {
          "indexed": false,
          "internalType": "uint256",
          "name": "_amount",
          "type": "uint256"
        }
      ],
      "name": "Bonded",
      "type": "event"
    },
    {
      "anonymous": false,
      "inputs": [
        {
          "indexed": false,
          "internalType": "contract IERC20",
          "name": "_token",
          "type": "address"
        },
        {
          "indexed": false,
          "internalType": "uint256",
          "name": "_amount",
          "type": "uint256"
        },
        {
          "indexed": false,
          "internalType": "uint256",
          "name": "_id",
          "type": "uint256"
        }
      ],
      "name": "BountyAdded",
      "type": "event"
    },
    {
      "anonymous": false,
      "inputs": [
        {
          "indexed": false,
          "internalType": "address",
          "name": "_claimer",
          "type": "address"
        },
        {
          "indexed": false,
          "internalType": "address",
          "name": "_token",
          "type": "address"
        },
        {
          "indexed": false,
          "internalType": "uint256",
          "name": "_amount",
          "type": "uint256"
        },
        {
          "indexed": false,
          "internalType": "uint256",
          "name": "_id",
          "type": "uint256"
        }
      ],
      "name": "BountyClaimed",
      "type": "event"
    },
    {
      "inputs": [
        {
          "internalType": "contract IERC20",
          "name": "token",
          "type": "address"
        },
        {
          "internalType": "uint256",
          "name": "amount",
          "type": "uint256"
        }
      ],
      "name": "addBounty",
      "outputs": [
        {
          "internalType": "uint256",
          "name": "",
          "type": "uint256"
        }
      ],
      "stateMutability": "nonpayable",
      "type": "function"
    },
    {
      "inputs": [],
      "name": "auctionBonder",
      "outputs": [
        {
          "internalType": "address",
          "name": "",
          "type": "address"
        }
      ],
      "stateMutability": "view",
      "type": "function"
    },
    {
      "inputs": [],
      "name": "auctionOngoing",
      "outputs": [
        {
          "internalType": "bool",
          "name": "",
          "type": "bool"
        }
      ],
      "stateMutability": "view",
      "type": "function"
    },
    {
      "inputs": [],
      "name": "auctionStart",
      "outputs": [
        {
          "internalType": "uint256",
          "name": "",
          "type": "uint256"
        }
      ],
      "stateMutability": "view",
      "type": "function"
    },
    {
      "inputs": [],
      "name": "basket",
      "outputs": [
        {
          "internalType": "contract IBasket",
          "name": "",
          "type": "address"
        }
      ],
      "stateMutability": "view",
      "type": "function"
    },
    {
      "inputs": [],
      "name": "bondAmount",
      "outputs": [
        {
          "internalType": "uint256",
          "name": "",
          "type": "uint256"
        }
      ],
      "stateMutability": "view",
      "type": "function"
    },
    {
      "inputs": [],
      "name": "bondBlock",
      "outputs": [
        {
          "internalType": "uint256",
          "name": "",
          "type": "uint256"
        }
      ],
      "stateMutability": "view",
      "type": "function"
    },
    {
      "inputs": [],
      "name": "bondBurn",
      "outputs": [],
      "stateMutability": "nonpayable",
      "type": "function"
    },
    {
      "inputs": [],
      "name": "bondForRebalance",
      "outputs": [],
      "stateMutability": "nonpayable",
      "type": "function"
    },
    {
      "inputs": [],
      "name": "factory",
      "outputs": [
        {
          "internalType": "contract IFactory",
          "name": "",
          "type": "address"
        }
      ],
      "stateMutability": "view",
      "type": "function"
    },
    {
      "inputs": [],
      "name": "hasBonded",
      "outputs": [
        {
          "internalType": "bool",
          "name": "",
          "type": "bool"
        }
      ],
      "stateMutability": "view",
      "type": "function"
    },
    {
      "inputs": [
        {
          "internalType": "address",
          "name": "basket_",
          "type": "address"
        },
        {
          "internalType": "address",
          "name": "factory_",
          "type": "address"
        }
      ],
      "name": "initialize",
      "outputs": [],
      "stateMutability": "nonpayable",
      "type": "function"
    },
    {
      "inputs": [],
      "name": "initialized",
      "outputs": [
        {
          "internalType": "bool",
          "name": "",
          "type": "bool"
        }
      ],
      "stateMutability": "view",
      "type": "function"
    },
    {
      "inputs": [],
      "name": "killAuction",
      "outputs": [],
      "stateMutability": "nonpayable",
      "type": "function"
    },
    {
      "inputs": [
        {
          "internalType": "uint256[]",
          "name": "bountyIDs",
          "type": "uint256[]"
        },
        {
          "internalType": "address[]",
          "name": "inputTokens",
          "type": "address[]"
        },
        {
          "internalType": "uint256[]",
          "name": "inputWeights",
          "type": "uint256[]"
        },
        {
          "internalType": "address[]",
          "name": "outputTokens",
          "type": "address[]"
        },
        {
          "internalType": "uint256[]",
          "name": "outputWeights",
          "type": "uint256[]"
        }
      ],
      "name": "settleAuction",
      "outputs": [],
      "stateMutability": "nonpayable",
      "type": "function"
    },
    {
      "inputs": [],
      "name": "startAuction",
      "outputs": [],
      "stateMutability": "nonpayable",
      "type": "function"
    }
  ],
  "bytecode": "0x608060405234801561001057600080fd5b506001600055611852806100256000396000f3fe608060405234801561001057600080fd5b50600436106100d05760003560e01c8063089e136e146100d5578063158ef93e146100f7578063478c681e14610104578063485cc9551461010e5780634f245ef71461012157806367c3b483146101385780636b64c7691461014557806380f323a71461014d578063832ab52914610156578063899a1e361461015f57806399a9210e14610172578063ad71f67e1461017a578063ae1d82f01461018d578063c45a015514610195578063d940d811146101b5578063edc832b3146101c8575b600080fd5b6003546100e29060ff1681565b60405190151581526020015b60405180910390f35b600a546100e29060ff1681565b61010c6101db565b005b61010c61011c3660046113b8565b61037a565b61012a60025481565b6040519081526020016100ee565b6001546100e29060ff1681565b61010c6103db565b61012a60045481565b61012a60055481565b61012a61016d3660046115af565b61048e565b61010c6105d3565b61010c6101883660046114bc565b61073b565b61010c610e4b565b6007546101a8906001600160a01b031681565b6040516100ee9190611610565b6008546101a8906001600160a01b031681565b6006546101a8906001600160a01b031681565b60015460ff166101ea57600080fd5b60035460ff16156101fa57600080fd5b43600555600654600754604080516319d0138360e01b815290516001600160a01b0393841693909216916319d0138391600480820192602092909190829003018186803b15801561024a57600080fd5b505afa15801561025e573d6000803e3d6000fd5b505050506040513d601f19601f8201168201806040525081019061028291906115db565b816001600160a01b03166318160ddd6040518163ffffffff1660e01b815260040160206040518083038186803b1580156102bb57600080fd5b505afa1580156102cf573d6000803e3d6000fd5b505050506040513d601f19601f820116820180604052508101906102f391906115db565b6102fd9190611723565b600481905561031a906001600160a01b0383169033903090610e81565b6003805460ff19166001179055600880546001600160a01b031916339081179091556004546040517fd0a009034e24a39106653c4903cf28b1947b8a9964d03206648e0f0a5de74a469261036f929091611648565b60405180910390a150565b6007546001600160a01b03161561039057600080fd5b600a5460ff16156103a057600080fd5b600680546001600160a01b039384166001600160a01b03199182161790915560078054929093169116179055600a805460ff19166001179055565b6006546001600160a01b0316331461040e5760405162461bcd60e51b815260040161040590611694565b60405180910390fd5b60015460ff16156104535760405162461bcd60e51b815260206004820152600f60248201526e37b733b7b4b7339030bab1ba34b7b760891b6044820152606401610405565b6001805460ff191681179055436002556040517fc8f99b9ac2a284b93c3652b9f064a6706724088cdafa9e0a8437c026191b2f0390600090a1565b60006104a56001600160a01b038416333085610e81565b604080516060810182526001600160a01b038581168252602082018581526001938301848152600980548087018255600082815295517f6e1540171b6c0c960b71a7020d9f60077f6af931a8bbf590da0223dacf75c7af600390920291820180546001600160a01b031916919096161790945591517f6e1540171b6c0c960b71a7020d9f60077f6af931a8bbf590da0223dacf75c7b0840155517f6e1540171b6c0c960b71a7020d9f60077f6af931a8bbf590da0223dacf75c7b1909201805460ff19169215159290921790915554909161057f91611764565b604080516001600160a01b0387168152602081018690529081018290529091507f8995102fba1c09c335213e7f0fb14bb67ced754740fe5dff224c43d5ec287f089060600160405180910390a19392505050565b60015460ff166105e257600080fd5b60035460ff166105f157600080fd5b43611680600554610602919061170b565b111561060d57600080fd5b60065460048054604051630fdeac3760e21b8152918201526001600160a01b0390911690633f7ab0dc90602401600060405180830381600087803b15801561065457600080fd5b505af1158015610668573d6000803e3d6000fd5b50506003805460ff19908116909155600180549091169055505060065460408051631535eca960e01b815290516001600160a01b0390921691631535eca99160048082019260009290919082900301818387803b1580156106c857600080fd5b505af11580156106dc573d6000803e3d6000fd5b50506008546004546040517fffe69c3e368ffaa4465b110170f194d40193561c8ca8defeab5d7bfccac173d39450610721935033926001600160a01b03169190611624565b60405180910390a1600880546001600160a01b0319169055565b6002600054141561078e5760405162461bcd60e51b815260206004820152601f60248201527f5265656e7472616e637947756172643a207265656e7472616e742063616c6c006044820152606401610405565b600260005560015460ff166107a257600080fd5b60035460ff166107b157600080fd5b436116806005546107c2919061170b565b116107cc57600080fd5b6008546001600160a01b031633146107e357600080fd5b82518451146107f157600080fd5b80518251146107ff57600080fd5b60005b84518110156108845761087233600660009054906101000a90046001600160a01b0316868481518110610837576108376117d8565b6020026020010151888581518110610851576108516117d8565b60200260200101516001600160a01b0316610e81909392919063ffffffff16565b8061087c816117a7565b915050610802565b5060005b82518110156108e45760065482516108d2916001600160a01b03169033908590859081106108b8576108b86117d8565b6020026020010151868581518110610851576108516117d8565b806108dc816117a7565b915050610888565b50600654604080516309ff1f2760e21b815290516000926001600160a01b0316916327fc7c9c916004808301926020929190829003018186803b15801561092a57600080fd5b505afa15801561093e573d6000803e3d6000fd5b505050506040513d601f19601f8201168201806040525081019061096291906115db565b600760009054906101000a90046001600160a01b03166001600160a01b031663063dff7f6040518163ffffffff1660e01b815260040160206040518083038186803b1580156109b057600080fd5b505afa1580156109c4573d6000803e3d6000fd5b505050506040513d601f19601f820116820180604052508101906109e891906115db565b6109f29190611745565b90506000600760009054906101000a90046001600160a01b03166001600160a01b031663db92164d6040518163ffffffff1660e01b815260040160206040518083038186803b158015610a4457600080fd5b505afa158015610a58573d6000803e3d6000fd5b505050506040513d601f19601f82011682018060405250810190610a7c91906115db565b670de0b6b3a7640000600254600554610a959190611764565b610a9f9190611745565b610aa99190611723565b90506000610ab78284611764565b9050600080600660009054906101000a90046001600160a01b03166001600160a01b031663764720076040518163ffffffff1660e01b815260040160006040518083038186803b158015610b0a57600080fd5b505afa158015610b1e573d6000803e3d6000fd5b505050506040513d6000823e601f3d908101601f19168201604052610b4691908101906113f1565b60065491935091506001600160a01b031660005b8251811015610ce2576000670de0b6b3a76400008087868581518110610b8257610b826117d8565b6020026020010151866001600160a01b03166318160ddd6040518163ffffffff1660e01b815260040160206040518083038186803b158015610bc357600080fd5b505afa158015610bd7573d6000803e3d6000fd5b505050506040513d601f19601f82011682018060405250810190610bfb91906115db565b610c059190611745565b610c0f9190611745565b610c199190611723565b610c239190611723565b905080858381518110610c3857610c386117d8565b60209081029190910101516006546040516370a0823160e01b81526001600160a01b03928316926370a0823192610c7492911690600401611610565b60206040518083038186803b158015610c8c57600080fd5b505afa158015610ca0573d6000803e3d6000fd5b505050506040513d601f19601f82011682018060405250810190610cc491906115db565b1015610ccf57600080fd5b5080610cda816117a7565b915050610b5a565b50600660009054906101000a90046001600160a01b03166001600160a01b031663121689236040518163ffffffff1660e01b8152600401600060405180830381600087803b158015610d3357600080fd5b505af1158015610d47573d6000803e3d6000fd5b5050600654604051633df0067f60e21b8152600481018890526001600160a01b03909116925063f7c019fc9150602401602060405180830381600087803b158015610d9157600080fd5b505af1158015610da5573d6000803e3d6000fd5b505050506040513d601f19601f82011682018060405250810190610dc991906115db565b506001805460ff19908116909155600380549091169055600454610df9906001600160a01b038316903390610edf565b610e028b610f03565b7f3539af76bcb13fa381f2ec32e6d90b9c5e95055778ebdca0e7a192ba0775588133604051610e319190611610565b60405180910390a150506001600055505050505050505050565b6006546001600160a01b03163314610e755760405162461bcd60e51b815260040161040590611694565b6001805460ff19169055565b610ed9846323b872dd60e01b858585604051602401610ea293929190611624565b60408051601f198184030181529190526020810180516001600160e01b03166001600160e01b031990931692909217909152611031565b50505050565b610efe8363a9059cbb60e01b8484604051602401610ea2929190611648565b505050565b60005b815181101561102d5760006009838381518110610f2557610f256117d8565b602002602001015181548110610f3d57610f3d6117d8565b60009182526020909120600390910201600281015490915060ff16610f6157600080fd5b60018101548154610f7f916001600160a01b03909116903390610edf565b60028101805460ff191690558054600182015484517f21c7da6732f0fae7bee8f0cb7c37fbd83a44e850e28deaf637caefe6ae528de49233926001600160a01b0390911691879087908110610fd657610fd66117d8565b602002602001015160405161101294939291906001600160a01b0394851681529290931660208301526040820152606081019190915260800190565b60405180910390a15080611025816117a7565b915050610f06565b5050565b6000611086826040518060400160405280602081526020017f5361666545524332303a206c6f772d6c6576656c2063616c6c206661696c6564815250856001600160a01b03166111039092919063ffffffff16565b805190915015610efe57808060200190518101906110a4919061158d565b610efe5760405162461bcd60e51b815260206004820152602a60248201527f5361666545524332303a204552433230206f7065726174696f6e20646964206e6044820152691bdd081cdd58d8d9595960b21b6064820152608401610405565b6060611112848460008561111c565b90505b9392505050565b60608247101561117d5760405162461bcd60e51b815260206004820152602660248201527f416464726573733a20696e73756666696369656e742062616c616e636520666f6044820152651c8818d85b1b60d21b6064820152608401610405565b843b6111cb5760405162461bcd60e51b815260206004820152601d60248201527f416464726573733a2063616c6c20746f206e6f6e2d636f6e74726163740000006044820152606401610405565b600080866001600160a01b031685876040516111e791906115f4565b60006040518083038185875af1925050503d8060008114611224576040519150601f19603f3d011682016040523d82523d6000602084013e611229565b606091505b5091509150611239828286611244565b979650505050505050565b60608315611253575081611115565b8251156112635782518084602001fd5b8160405162461bcd60e51b81526004016104059190611661565b600082601f83011261128e57600080fd5b813560206112a361129e836116e8565b6116b8565b80838252828201915082860187848660051b89010111156112c357600080fd5b60005b858110156112eb5781356112d981611804565b845292840192908401906001016112c6565b5090979650505050505050565b600082601f83011261130957600080fd5b8135602061131961129e836116e8565b80838252828201915082860187848660051b890101111561133957600080fd5b60005b858110156112eb5781358452928401929084019060010161133c565b600082601f83011261136957600080fd5b8151602061137961129e836116e8565b80838252828201915082860187848660051b890101111561139957600080fd5b60005b858110156112eb5781518452928401929084019060010161139c565b600080604083850312156113cb57600080fd5b82356113d681611804565b915060208301356113e681611804565b809150509250929050565b6000806040838503121561140457600080fd5b82516001600160401b038082111561141b57600080fd5b818501915085601f83011261142f57600080fd5b8151602061143f61129e836116e8565b8083825282820191508286018a848660051b890101111561145f57600080fd5b600096505b8487101561148b57805161147781611804565b835260019690960195918301918301611464565b50918801519196509093505050808211156114a557600080fd5b506114b285828601611358565b9150509250929050565b600080600080600060a086880312156114d457600080fd5b85356001600160401b03808211156114eb57600080fd5b6114f789838a016112f8565b9650602088013591508082111561150d57600080fd5b61151989838a0161127d565b9550604088013591508082111561152f57600080fd5b61153b89838a016112f8565b9450606088013591508082111561155157600080fd5b61155d89838a0161127d565b9350608088013591508082111561157357600080fd5b50611580888289016112f8565b9150509295509295909350565b60006020828403121561159f57600080fd5b8151801515811461111557600080fd5b600080604083850312156115c257600080fd5b82356115cd81611804565b946020939093013593505050565b6000602082840312156115ed57600080fd5b5051919050565b6000825161160681846020870161177b565b9190910192915050565b6001600160a01b0391909116815260200190565b6001600160a01b039384168152919092166020820152604081019190915260600190565b6001600160a01b03929092168252602082015260400190565b602081526000825180602084015261168081604085016020870161177b565b601f01601f19169190910160400192915050565b6020808252600a90820152691b9bdd0818985cdad95d60b21b604082015260600190565b604051601f8201601f191681016001600160401b03811182821017156116e0576116e06117ee565b604052919050565b60006001600160401b03821115611701576117016117ee565b5060051b60200190565b6000821982111561171e5761171e6117c2565b500190565b60008261174057634e487b7160e01b600052601260045260246000fd5b500490565b600081600019048311821515161561175f5761175f6117c2565b500290565b600082821015611776576117766117c2565b500390565b60005b8381101561179657818101518382015260200161177e565b83811115610ed95750506000910152565b60006000198214156117bb576117bb6117c2565b5060010190565b634e487b7160e01b600052601160045260246000fd5b634e487b7160e01b600052603260045260246000fd5b634e487b7160e01b600052604160045260246000fd5b6001600160a01b038116811461181957600080fd5b5056fea2646970667358221220be434b90d8ecdc145ff50ccaf14c4a39efa3a988027aa13aa347cd3b3f48032964736f6c63430008070033",
  "linkReferences": {},
  "deployedLinkReferences": {}
}