{
  "_format": "hh-sol-artifact-1",
  "contractName": "MockSwapper3Crv",
  "sourceName": "contracts/testing/MockSwapper3Crv.sol",
  "abi": [
    {
      "inputs": [],
      "name": "CURVE_POOL",
      "outputs": [
        {
          "internalType": "address",
          "name": "",
          "type": "address"
        }
      ],
      "stateMutability": "view",
      "type": "function"
    },
    {
      "inputs": [],
      "name": "DAI",
      "outputs": [
        {
          "internalType": "address",
          "name": "",
          "type": "address"
        }
      ],
      "stateMutability": "view",
      "type": "function"
    },
    {
      "inputs": [],
      "name": "SUSHISWAP",
      "outputs": [
        {
          "internalType": "address",
          "name": "",
          "type": "address"
        }
      ],
      "stateMutability": "view",
      "type": "function"
    },
    {
      "inputs": [],
      "name": "SUSHISWAP_FACTORY",
      "outputs": [
        {
          "internalType": "address",
          "name": "",
          "type": "address"
        }
      ],
      "stateMutability": "view",
      "type": "function"
    },
    {
      "inputs": [],
      "name": "TRI_CRV",
      "outputs": [
        {
          "internalType": "address",
          "name": "",
          "type": "address"
        }
      ],
      "stateMutability": "view",
      "type": "function"
    },
    {
      "inputs": [],
      "name": "UNISWAP",
      "outputs": [
        {
          "internalType": "address",
          "name": "",
          "type": "address"
        }
      ],
      "stateMutability": "view",
      "type": "function"
    },
    {
      "inputs": [],
      "name": "UNISWAP_FACTORY",
      "outputs": [
        {
          "internalType": "address",
          "name": "",
          "type": "address"
        }
      ],
      "stateMutability": "view",
      "type": "function"
    },
    {
      "inputs": [],
      "name": "USDC",
      "outputs": [
        {
          "internalType": "address",
          "name": "",
          "type": "address"
        }
      ],
      "stateMutability": "view",
      "type": "function"
    },
    {
      "inputs": [],
      "name": "USDT",
      "outputs": [
        {
          "internalType": "address",
          "name": "",
          "type": "address"
        }
      ],
      "stateMutability": "view",
      "type": "function"
    },
    {
      "inputs": [],
      "name": "WETH",
      "outputs": [
        {
          "internalType": "address",
          "name": "",
          "type": "address"
        }
      ],
      "stateMutability": "view",
      "type": "function"
    },
    {
      "inputs": [
        {
          "internalType": "address",
          "name": "fromToken",
          "type": "address"
        },
        {
          "internalType": "address",
          "name": "toToken",
          "type": "address"
        },
        {
          "internalType": "uint256",
          "name": "amount",
          "type": "uint256"
        }
      ],
      "name": "getBestDex",
      "outputs": [
        {
          "internalType": "address",
          "name": "bestDex",
          "type": "address"
        },
        {
          "internalType": "uint256",
          "name": "amountOut",
          "type": "uint256"
        }
      ],
      "stateMutability": "view",
      "type": "function"
    },
    {
      "inputs": [
        {
          "internalType": "address",
          "name": "fromToken",
          "type": "address"
        },
        {
          "internalType": "address",
          "name": "toToken",
          "type": "address"
        }
      ],
      "name": "getRate",
      "outputs": [
        {
          "internalType": "uint256",
          "name": "",
          "type": "uint256"
        }
      ],
      "stateMutability": "view",
      "type": "function"
    },
    {
      "inputs": [
        {
          "internalType": "address",
          "name": "",
          "type": "address"
        },
        {
          "internalType": "address",
          "name": "",
          "type": "address"
        }
      ],
      "name": "lpTokens",
      "outputs": [
        {
          "internalType": "address",
          "name": "",
          "type": "address"
        }
      ],
      "stateMutability": "view",
      "type": "function"
    },
    {
      "inputs": [
        {
          "internalType": "address",
          "name": "fromToken",
          "type": "address"
        },
        {
          "internalType": "address",
          "name": "toToken",
          "type": "address"
        },
        {
          "internalType": "uint256",
          "name": "swapAmount",
          "type": "uint256"
        },
        {
          "internalType": "uint256",
          "name": "minAmount",
          "type": "uint256"
        }
      ],
      "name": "swap",
      "outputs": [
        {
          "internalType": "uint256",
          "name": "",
          "type": "uint256"
        }
      ],
      "stateMutability": "nonpayable",
      "type": "function"
    },
    {
      "inputs": [
        {
          "internalType": "address",
          "name": "tokenIn",
          "type": "address"
        },
        {
          "internalType": "address",
          "name": "tokenOut",
          "type": "address"
        },
        {
          "internalType": "uint256",
          "name": "amountIn",
          "type": "uint256"
        },
        {
          "internalType": "address",
          "name": "dex",
          "type": "address"
        }
      ],
      "name": "tokenAmountOut",
      "outputs": [
        {
          "internalType": "uint256",
          "name": "",
          "type": "uint256"
        }
      ],
      "stateMutability": "view",
      "type": "function"
    },
    {
      "inputs": [
        {
          "internalType": "address",
          "name": "",
          "type": "address"
        }
      ],
      "name": "triPoolIndex",
      "outputs": [
        {
          "internalType": "int128",
          "name": "",
          "type": "int128"
        }
      ],
      "stateMutability": "view",
      "type": "function"
    }
  ],
  "bytecode": "0x60806040523480156200001157600080fd5b50600060208181527f5306b8fbe80b30a74098357ee8e26fad8dc069da9011cca5f0870a0a5982e54180546001600160801b03199081169091557fc6521c8ea4247e8beb499344e591b9401fb2807ff9997dd598fd9e56c73a264d80548216600117905573dac17f958d2ee523a2206206994597c13d831ec79092527fa934b07068f5d95a11413ed6d08a4a1122dc4b8c14a6ab2d94f8b279dac630428054909216600217909155620000fd90736b175474e89094c44da98b954eedeac495271d0f9073d9e1ce17f2641f24ae83637ab66a2cca9c378b9f9060001990620007f262000252821b17901c565b6200014073a0b86991c6218b36c1d19d4a2e9eb0ce3606eb4873d9e1ce17f2641f24ae83637ab66a2cca9c378b9f60001962000252602090811b620007f217901c565b6200018373dac17f958d2ee523a2206206994597c13d831ec773d9e1ce17f2641f24ae83637ab66a2cca9c378b9f60001962000252602090811b620007f217901c565b620001c6736b175474e89094c44da98b954eedeac495271d0f737a250d5630b4cf539739df2c5dacb4c659f2488d60001962000252602090811b620007f217901c565b6200020973a0b86991c6218b36c1d19d4a2e9eb0ce3606eb48737a250d5630b4cf539739df2c5dacb4c659f2488d60001962000252602090811b620007f217901c565b6200024c73dac17f958d2ee523a2206206994597c13d831ec7737a250d5630b4cf539739df2c5dacb4c659f2488d60001962000252602090811b620007f217901c565b620006ec565b801580620002e05750604051636eb1769f60e11b81523060048201526001600160a01b03838116602483015284169063dd62ed3e9060440160206040518083038186803b158015620002a357600080fd5b505afa158015620002b8573d6000803e3d6000fd5b505050506040513d601f19601f82011682018060405250810190620002de919062000628565b155b620003585760405162461bcd60e51b815260206004820152603660248201527f5361666545524332303a20617070726f76652066726f6d206e6f6e2d7a65726f60448201527f20746f206e6f6e2d7a65726f20616c6c6f77616e63650000000000000000000060648201526084015b60405180910390fd5b604080516001600160a01b038416602482015260448082018490528251808303909101815260649091019091526020810180516001600160e01b0390811663095ea7b360e01b17909152620003b0918591620003b516565b505050565b600062000411826040518060400160405280602081526020017f5361666545524332303a206c6f772d6c6576656c2063616c6c206661696c6564815250856001600160a01b03166200049360201b6200094e179092919060201c565b805190915015620003b0578080602001905181019062000432919062000642565b620003b05760405162461bcd60e51b815260206004820152602a60248201527f5361666545524332303a204552433230206f7065726174696f6e20646964206e6044820152691bdd081cdd58d8d9595960b21b60648201526084016200034f565b6060620004a48484600085620004ae565b90505b9392505050565b606082471015620005115760405162461bcd60e51b815260206004820152602660248201527f416464726573733a20696e73756666696369656e742062616c616e636520666f6044820152651c8818d85b1b60d21b60648201526084016200034f565b6001600160a01b0385163b6200056a5760405162461bcd60e51b815260206004820152601d60248201527f416464726573733a2063616c6c20746f206e6f6e2d636f6e747261637400000060448201526064016200034f565b600080866001600160a01b0316858760405162000588919062000699565b60006040518083038185875af1925050503d8060008114620005c7576040519150601f19603f3d011682016040523d82523d6000602084013e620005cc565b606091505b509092509050620005df828286620005ea565b979650505050505050565b60608315620005fb575081620004a7565b8251156200060c5782518084602001fd5b8160405162461bcd60e51b81526004016200034f9190620006b7565b6000602082840312156200063b57600080fd5b5051919050565b6000602082840312156200065557600080fd5b81518015158114620004a757600080fd5b60005b838110156200068357818101518382015260200162000669565b8381111562000693576000848401525b50505050565b60008251620006ad81846020870162000666565b9190910192915050565b6020815260008251806020840152620006d881604085016020870162000666565b601f01601f19169190910160400192915050565b61158b80620006fc6000396000f3fe608060405234801561001057600080fd5b50600436106101005760003560e01c8063ad5c464811610097578063c74c0fac11610066578063c74c0fac14610294578063cf8c5597146102af578063e0bab4c4146102e5578063fe0291561461030057600080fd5b8063ad5c46481461020f578063b522558b1461022a578063c54e44eb1461025e578063c745d9e71461027957600080fd5b806386a8b4b5116100d357806386a8b4b5146101ab57806389a30271146101c657806392e91af6146101e15780639c708aab146101f457600080fd5b80631762433f14610105578063379b87ea1461013c578063495c0f9b1461015d57806351f7a54314610190575b600080fd5b6101186101133660046111dd565b610313565b604080516001600160a01b0390931683526020830191909152015b60405180910390f35b61014f61014a366004611219565b61032e565b604051908152602001610133565b61017873c0aee478e3658e2610c5f7a4a2e1777ce9e4f2ac81565b6040516001600160a01b039091168152602001610133565b610178736c3f90f043a72fa612cbac8115ee7e52bde6e49081565b61017873bebc44782c7db0a1a60cb6fe97d0b483032ff1c781565b61017873a0b86991c6218b36c1d19d4a2e9eb0ce3606eb4881565b61014f6101ef36600461124c565b610560565b61017873d9e1ce17f2641f24ae83637ab66a2cca9c378b9f81565b61017873c02aaa39b223fe8d0a0e5c4f27ead9083c756cc281565b610178610238366004611219565b60016020908152600092835260408084209091529082529020546001600160a01b031681565b61017873dac17f958d2ee523a2206206994597c13d831ec781565b610178737a250d5630b4cf539739df2c5dacb4c659f2488d81565b610178735c69bee701ef814a2b6a3edd4b1652cb9cc5aa6f81565b6102d26102bd366004611299565b600060208190529081526040902054600f0b81565b604051600f9190910b8152602001610133565b610178736b175474e89094c44da98b954eedeac495271d0f81565b61014f61030e3660046112b4565b610577565b600080610321858585610967565b915091505b935093915050565b60006001600160a01b038316736c3f90f043a72fa612cbac8115ee7e52bde6e4901480156103c557506001600160a01b038216736b175474e89094c44da98b954eedeac495271d0f148061039e57506001600160a01b03821673a0b86991c6218b36c1d19d4a2e9eb0ce3606eb48145b806103c557506001600160a01b03821673dac17f958d2ee523a2206206994597c13d831ec7145b6104115760405162461bcd60e51b8152602060048201526018602482015277546f6b656e2070616972206e6f7420737761707061626c6560401b60448201526064015b60405180910390fd5b6001600160a01b038216736b175474e89094c44da98b954eedeac495271d0f14156104c25773bebc44782c7db0a1a60cb6fe97d0b483032ff1c76001600160a01b031663bb7b8b806040518163ffffffff1660e01b815260040160206040518083038186803b15801561048357600080fd5b505afa158015610497573d6000803e3d6000fd5b505050506040513d601f19601f820116820180604052508101906104bb91906112f6565b905061055a565b64e8d4a5100073bebc44782c7db0a1a60cb6fe97d0b483032ff1c76001600160a01b031663bb7b8b806040518163ffffffff1660e01b815260040160206040518083038186803b15801561051557600080fd5b505afa158015610529573d6000803e3d6000fd5b505050506040513d601f19601f8201168201806040525081019061054d91906112f6565b610557919061130f565b90505b92915050565b600061056e858585856109c1565b95945050505050565b60006001600160a01b038516736c3f90f043a72fa612cbac8115ee7e52bde6e49014801561060e57506001600160a01b038416736b175474e89094c44da98b954eedeac495271d0f14806105e757506001600160a01b03841673a0b86991c6218b36c1d19d4a2e9eb0ce3606eb48145b8061060e57506001600160a01b03841673dac17f958d2ee523a2206206994597c13d831ec7145b6106555760405162461bcd60e51b8152602060048201526018602482015277546f6b656e2070616972206e6f7420737761707061626c6560401b6044820152606401610408565b6040516323b872dd60e01b8152336004820152306024820152604481018490526001600160a01b038616906323b872dd90606401602060405180830381600087803b1580156106a357600080fd5b505af11580156106b7573d6000803e3d6000fd5b505050506040513d601f19601f820116820180604052508101906106db9190611331565b506000806106e98587610b2d565b6001600160a01b038116600090815260208190526040808220549051630d2680e960e11b8152600481018a9052600f9190910b60248201526044810191909152919350915073bebc44782c7db0a1a60cb6fe97d0b483032ff1c790631a4d01d290606401600060405180830381600087803b15801561076757600080fd5b505af115801561077b573d6000803e3d6000fd5b50505050600061078c828885610c32565b9050848110156040518060400160405280601b81526020017f696e73756666696369656e742066756e64732072656365697665640000000000815250906107e65760405162461bcd60e51b81526004016104089190611383565b50979650505050505050565b80158061087b5750604051636eb1769f60e11b81523060048201526001600160a01b03838116602483015284169063dd62ed3e9060440160206040518083038186803b15801561084157600080fd5b505afa158015610855573d6000803e3d6000fd5b505050506040513d601f19601f8201168201806040525081019061087991906112f6565b155b6108e65760405162461bcd60e51b815260206004820152603660248201527f5361666545524332303a20617070726f76652066726f6d206e6f6e2d7a65726f60448201527520746f206e6f6e2d7a65726f20616c6c6f77616e636560501b6064820152608401610408565b6040516001600160a01b03831660248201526044810182905261094990849063095ea7b360e01b906064015b60408051601f198184030181529190526020810180516001600160e01b03166001600160e01b031990931692909217909152610e66565b505050565b606061095d8484600085610f38565b90505b9392505050565b600080737a250d5630b4cf539739df2c5dacb4c659f2488d808261098d888888856109c1565b9050600061099d898989866109c1565b9050808210156109ae5782816109b1565b83825b9550955050505050935093915050565b604080516003808252608082019092526000918291906020820160608036833701905050905085816000815181106109fb576109fb6113cc565b60200260200101906001600160a01b031690816001600160a01b03168152505073c02aaa39b223fe8d0a0e5c4f27ead9083c756cc281600181518110610a4357610a436113cc565b60200260200101906001600160a01b031690816001600160a01b0316815250508481600281518110610a7757610a776113cc565b6001600160a01b03928316602091820292909201015260405163d06ca61f60e01b81529084169063d06ca61f90610ab49087908590600401611426565b60006040518083038186803b158015610acc57600080fd5b505afa158015610ae0573d6000803e3d6000fd5b505050506040513d6000823e601f3d908101601f19168201604052610b08919081019061143f565b600281518110610b1a57610b1a6113cc565b6020026020010151915050949350505050565b600080600080610b5286736b175474e89094c44da98b954eedeac495271d0f87611069565b91509150600080610b788873a0b86991c6218b36c1d19d4a2e9eb0ce3606eb4889611069565b91509150600080610b9e8a73dac17f958d2ee523a2206206994597c13d831ec78b611069565b915091508285118015610bb057508085115b15610bda5785736b175474e89094c44da98b954eedeac495271d0f97509750505050505050610c2b565b80831115610c07578373a0b86991c6218b36c1d19d4a2e9eb0ce3606eb4897509750505050505050610c2b565b50955073dac17f958d2ee523a2206206994597c13d831ec79450610c2b9350505050565b9250929050565b6040516370a0823160e01b815230600482015260009081906001600160a01b038616906370a082319060240160206040518083038186803b158015610c7657600080fd5b505afa158015610c8a573d6000803e3d6000fd5b505050506040513d601f19601f82011682018060405250810190610cae91906112f6565b9050836001600160a01b0316856001600160a01b03161415610ce557610cde6001600160a01b0385163383611158565b9050610960565b80610cf4576000915050610960565b60408051600380825260808201909252600091602082016060803683370190505090508581600081518110610d2b57610d2b6113cc565b60200260200101906001600160a01b031690816001600160a01b03168152505073c02aaa39b223fe8d0a0e5c4f27ead9083c756cc281600181518110610d7357610d736113cc565b60200260200101906001600160a01b031690816001600160a01b0316815250508481600281518110610da757610da76113cc565b6001600160a01b0392831660209182029290920101526040516338ed173960e01b8152908516906338ed173990610deb9085906000908690339042906004016114fd565b600060405180830381600087803b158015610e0557600080fd5b505af1158015610e19573d6000803e3d6000fd5b505050506040513d6000823e601f3d908101601f19168201604052610e41919081019061143f565b600281518110610e5357610e536113cc565b6020026020010151925050509392505050565b6000610ebb826040518060400160405280602081526020017f5361666545524332303a206c6f772d6c6576656c2063616c6c206661696c6564815250856001600160a01b031661094e9092919063ffffffff16565b8051909150156109495780806020019051810190610ed99190611331565b6109495760405162461bcd60e51b815260206004820152602a60248201527f5361666545524332303a204552433230206f7065726174696f6e20646964206e6044820152691bdd081cdd58d8d9595960b21b6064820152608401610408565b606082471015610f995760405162461bcd60e51b815260206004820152602660248201527f416464726573733a20696e73756666696369656e742062616c616e636520666f6044820152651c8818d85b1b60d21b6064820152608401610408565b6001600160a01b0385163b610ff05760405162461bcd60e51b815260206004820152601d60248201527f416464726573733a2063616c6c20746f206e6f6e2d636f6e74726163740000006044820152606401610408565b600080866001600160a01b0316858760405161100c9190611539565b60006040518083038185875af1925050503d8060008114611049576040519150601f19603f3d011682016040523d82523d6000602084013e61104e565b606091505b509150915061105e828286611188565b979650505050505050565b6001600160a01b03821660009081526020819052604080822054905163cc2b27d760e01b815260048101869052600f9190910b60248201528190819073bebc44782c7db0a1a60cb6fe97d0b483032ff1c79063cc2b27d79060440160206040518083038186803b1580156110dc57600080fd5b505afa1580156110f0573d6000803e3d6000fd5b505050506040513d601f19601f8201168201806040525081019061111491906112f6565b9050836001600160a01b0316856001600160a01b0316141561113b57600092509050610326565b600080611149878785610967565b90999098509650505050505050565b6040516001600160a01b03831660248201526044810182905261094990849063a9059cbb60e01b90606401610912565b60608315611197575081610960565b8251156111a75782518084602001fd5b8160405162461bcd60e51b81526004016104089190611383565b80356001600160a01b03811681146111d857600080fd5b919050565b6000806000606084860312156111f257600080fd5b6111fb846111c1565b9250611209602085016111c1565b9150604084013590509250925092565b6000806040838503121561122c57600080fd5b611235836111c1565b9150611243602084016111c1565b90509250929050565b6000806000806080858703121561126257600080fd5b61126b856111c1565b9350611279602086016111c1565b92506040850135915061128e606086016111c1565b905092959194509250565b6000602082840312156112ab57600080fd5b610557826111c1565b600080600080608085870312156112ca57600080fd5b6112d3856111c1565b93506112e1602086016111c1565b93969395505050506040820135916060013590565b60006020828403121561130857600080fd5b5051919050565b60008261132c57634e487b7160e01b600052601260045260246000fd5b500490565b60006020828403121561134357600080fd5b8151801515811461096057600080fd5b60005b8381101561136e578181015183820152602001611356565b8381111561137d576000848401525b50505050565b60208152600082518060208401526113a2816040850160208701611353565b601f01601f19169190910160400192915050565b634e487b7160e01b600052604160045260246000fd5b634e487b7160e01b600052603260045260246000fd5b600081518084526020808501945080840160005b8381101561141b5781516001600160a01b0316875295820195908201906001016113f6565b509495945050505050565b82815260406020820152600061095d60408301846113e2565b6000602080838503121561145257600080fd5b825167ffffffffffffffff8082111561146a57600080fd5b818501915085601f83011261147e57600080fd5b815181811115611490576114906113b6565b8060051b604051601f19603f830116810181811085821117156114b5576114b56113b6565b6040529182528482019250838101850191888311156114d357600080fd5b938501935b828510156114f1578451845293850193928501926114d8565b98975050505050505050565b85815284602082015260a06040820152600061151c60a08301866113e2565b6001600160a01b0394909416606083015250608001529392505050565b6000825161154b818460208701611353565b919091019291505056fea26469706673582212208de7d5e8d4462dd3059f2263b1586b8e035cc3ae500a64733518c1e04d09da4364736f6c63430008090033",
  "linkReferences": {},
  "deployedLinkReferences": {}
}