{
  "_format": "hh-sol-artifact-1",
  "contractName": "MockMarginAccount",
  "sourceName": "contracts/tests/MockMarginAccount.sol",
  "abi": [
    {
      "inputs": [
        {
          "internalType": "address",
          "name": "_trustedForwarder",
          "type": "address"
        }
      ],
      "stateMutability": "nonpayable",
      "type": "constructor"
    },
    {
      "inputs": [
        {
          "internalType": "enum IMarginAccount.LiquidationStatus",
          "name": "",
          "type": "uint8"
        }
      ],
      "name": "NOT_LIQUIDATABLE",
      "type": "error"
    },
    {
      "anonymous": false,
      "inputs": [
        {
          "indexed": true,
          "internalType": "address",
          "name": "trader",
          "type": "address"
        },
        {
          "indexed": true,
          "internalType": "uint256",
          "name": "idx",
          "type": "uint256"
        },
        {
          "indexed": false,
          "internalType": "uint256",
          "name": "seizeAmount",
          "type": "uint256"
        },
        {
          "indexed": false,
          "internalType": "uint256",
          "name": "repayAmount",
          "type": "uint256"
        },
        {
          "indexed": false,
          "internalType": "uint256",
          "name": "timestamp",
          "type": "uint256"
        }
      ],
      "name": "MarginAccountLiquidated",
      "type": "event"
    },
    {
      "anonymous": false,
      "inputs": [
        {
          "indexed": true,
          "internalType": "address",
          "name": "trader",
          "type": "address"
        },
        {
          "indexed": true,
          "internalType": "uint256",
          "name": "idx",
          "type": "uint256"
        },
        {
          "indexed": false,
          "internalType": "uint256",
          "name": "amount",
          "type": "uint256"
        },
        {
          "indexed": false,
          "internalType": "uint256",
          "name": "timestamp",
          "type": "uint256"
        }
      ],
      "name": "MarginAdded",
      "type": "event"
    },
    {
      "anonymous": false,
      "inputs": [
        {
          "indexed": true,
          "internalType": "address",
          "name": "trader",
          "type": "address"
        },
        {
          "indexed": true,
          "internalType": "uint256",
          "name": "idx",
          "type": "uint256"
        },
        {
          "indexed": false,
          "internalType": "uint256",
          "name": "amount",
          "type": "uint256"
        },
        {
          "indexed": false,
          "internalType": "uint256",
          "name": "timestamp",
          "type": "uint256"
        }
      ],
      "name": "MarginRemoved",
      "type": "event"
    },
    {
      "anonymous": false,
      "inputs": [
        {
          "indexed": false,
          "internalType": "address",
          "name": "account",
          "type": "address"
        }
      ],
      "name": "Paused",
      "type": "event"
    },
    {
      "anonymous": false,
      "inputs": [
        {
          "indexed": true,
          "internalType": "address",
          "name": "trader",
          "type": "address"
        },
        {
          "indexed": false,
          "internalType": "int256",
          "name": "realizedPnl",
          "type": "int256"
        },
        {
          "indexed": false,
          "internalType": "uint256",
          "name": "timestamp",
          "type": "uint256"
        }
      ],
      "name": "PnLRealized",
      "type": "event"
    },
    {
      "anonymous": false,
      "inputs": [
        {
          "indexed": true,
          "internalType": "address",
          "name": "trader",
          "type": "address"
        },
        {
          "indexed": false,
          "internalType": "uint256[]",
          "name": "seized",
          "type": "uint256[]"
        },
        {
          "indexed": false,
          "internalType": "uint256",
          "name": "repayAmount",
          "type": "uint256"
        },
        {
          "indexed": false,
          "internalType": "uint256",
          "name": "timestamp",
          "type": "uint256"
        }
      ],
      "name": "SettledBadDebt",
      "type": "event"
    },
    {
      "anonymous": false,
      "inputs": [
        {
          "indexed": false,
          "internalType": "address",
          "name": "account",
          "type": "address"
        }
      ],
      "name": "Unpaused",
      "type": "event"
    },
    {
      "inputs": [
        {
          "internalType": "uint256",
          "name": "idx",
          "type": "uint256"
        },
        {
          "internalType": "uint256",
          "name": "amount",
          "type": "uint256"
        }
      ],
      "name": "addMargin",
      "outputs": [],
      "stateMutability": "nonpayable",
      "type": "function"
    },
    {
      "inputs": [
        {
          "internalType": "uint256",
          "name": "idx",
          "type": "uint256"
        },
        {
          "internalType": "uint256",
          "name": "amount",
          "type": "uint256"
        },
        {
          "internalType": "address",
          "name": "to",
          "type": "address"
        }
      ],
      "name": "addMarginFor",
      "outputs": [],
      "stateMutability": "nonpayable",
      "type": "function"
    },
    {
      "inputs": [
        {
          "internalType": "uint256",
          "name": "idx",
          "type": "uint256"
        },
        {
          "internalType": "uint256",
          "name": "_weight",
          "type": "uint256"
        }
      ],
      "name": "changeCollateralWeight",
      "outputs": [],
      "stateMutability": "nonpayable",
      "type": "function"
    },
    {
      "inputs": [],
      "name": "clearingHouse",
      "outputs": [
        {
          "internalType": "contract IClearingHouse",
          "name": "",
          "type": "address"
        }
      ],
      "stateMutability": "view",
      "type": "function"
    },
    {
      "inputs": [],
      "name": "credit",
      "outputs": [
        {
          "internalType": "uint256",
          "name": "",
          "type": "uint256"
        }
      ],
      "stateMutability": "view",
      "type": "function"
    },
    {
      "inputs": [
        {
          "internalType": "address",
          "name": "trader",
          "type": "address"
        }
      ],
      "name": "getNormalizedMargin",
      "outputs": [
        {
          "internalType": "int256",
          "name": "weighted",
          "type": "int256"
        }
      ],
      "stateMutability": "view",
      "type": "function"
    },
    {
      "inputs": [
        {
          "internalType": "address",
          "name": "trader",
          "type": "address"
        }
      ],
      "name": "getSpotCollateralValue",
      "outputs": [
        {
          "internalType": "int256",
          "name": "spot",
          "type": "int256"
        }
      ],
      "stateMutability": "view",
      "type": "function"
    },
    {
      "inputs": [],
      "name": "governance",
      "outputs": [
        {
          "internalType": "address",
          "name": "",
          "type": "address"
        }
      ],
      "stateMutability": "view",
      "type": "function"
    },
    {
      "inputs": [
        {
          "internalType": "address",
          "name": "_governance",
          "type": "address"
        },
        {
          "internalType": "address",
          "name": "_vusd",
          "type": "address"
        }
      ],
      "name": "initialize",
      "outputs": [],
      "stateMutability": "nonpayable",
      "type": "function"
    },
    {
      "inputs": [],
      "name": "insuranceFund",
      "outputs": [
        {
          "internalType": "contract IInsuranceFund",
          "name": "",
          "type": "address"
        }
      ],
      "stateMutability": "view",
      "type": "function"
    },
    {
      "inputs": [
        {
          "internalType": "address",
          "name": "trader",
          "type": "address"
        },
        {
          "internalType": "bool",
          "name": "includeFunding",
          "type": "bool"
        }
      ],
      "name": "isLiquidatable",
      "outputs": [
        {
          "internalType": "enum IMarginAccount.LiquidationStatus",
          "name": "_isLiquidatable",
          "type": "uint8"
        },
        {
          "internalType": "uint256",
          "name": "repayAmount",
          "type": "uint256"
        },
        {
          "internalType": "uint256",
          "name": "incentivePerDollar",
          "type": "uint256"
        }
      ],
      "stateMutability": "view",
      "type": "function"
    },
    {
      "inputs": [
        {
          "internalType": "address",
          "name": "forwarder",
          "type": "address"
        }
      ],
      "name": "isTrustedForwarder",
      "outputs": [
        {
          "internalType": "bool",
          "name": "",
          "type": "bool"
        }
      ],
      "stateMutability": "view",
      "type": "function"
    },
    {
      "inputs": [
        {
          "internalType": "address",
          "name": "trader",
          "type": "address"
        },
        {
          "internalType": "uint256",
          "name": "repay",
          "type": "uint256"
        },
        {
          "internalType": "uint256",
          "name": "idx",
          "type": "uint256"
        },
        {
          "internalType": "uint256",
          "name": "minSeizeAmount",
          "type": "uint256"
        }
      ],
      "name": "liquidateExactRepay",
      "outputs": [],
      "stateMutability": "nonpayable",
      "type": "function"
    },
    {
      "inputs": [
        {
          "internalType": "address",
          "name": "trader",
          "type": "address"
        },
        {
          "internalType": "uint256",
          "name": "maxRepay",
          "type": "uint256"
        },
        {
          "internalType": "uint256",
          "name": "idx",
          "type": "uint256"
        },
        {
          "internalType": "uint256",
          "name": "seize",
          "type": "uint256"
        }
      ],
      "name": "liquidateExactSeize",
      "outputs": [],
      "stateMutability": "nonpayable",
      "type": "function"
    },
    {
      "inputs": [
        {
          "internalType": "address",
          "name": "trader",
          "type": "address"
        },
        {
          "internalType": "uint256",
          "name": "maxRepay",
          "type": "uint256"
        },
        {
          "internalType": "uint256[]",
          "name": "idxs",
          "type": "uint256[]"
        }
      ],
      "name": "liquidateFlexible",
      "outputs": [],
      "stateMutability": "nonpayable",
      "type": "function"
    },
    {
      "inputs": [],
      "name": "liquidationIncentive",
      "outputs": [
        {
          "internalType": "uint256",
          "name": "",
          "type": "uint256"
        }
      ],
      "stateMutability": "view",
      "type": "function"
    },
    {
      "inputs": [
        {
          "internalType": "uint256",
          "name": "",
          "type": "uint256"
        },
        {
          "internalType": "address",
          "name": "",
          "type": "address"
        }
      ],
      "name": "margin",
      "outputs": [
        {
          "internalType": "int256",
          "name": "",
          "type": "int256"
        }
      ],
      "stateMutability": "view",
      "type": "function"
    },
    {
      "inputs": [],
      "name": "oracle",
      "outputs": [
        {
          "internalType": "contract IOracle",
          "name": "",
          "type": "address"
        }
      ],
      "stateMutability": "view",
      "type": "function"
    },
    {
      "inputs": [],
      "name": "pause",
      "outputs": [],
      "stateMutability": "nonpayable",
      "type": "function"
    },
    {
      "inputs": [],
      "name": "paused",
      "outputs": [
        {
          "internalType": "bool",
          "name": "",
          "type": "bool"
        }
      ],
      "stateMutability": "view",
      "type": "function"
    },
    {
      "inputs": [
        {
          "internalType": "address",
          "name": "trader",
          "type": "address"
        },
        {
          "internalType": "int256",
          "name": "realizedPnl",
          "type": "int256"
        }
      ],
      "name": "realizePnL",
      "outputs": [],
      "stateMutability": "nonpayable",
      "type": "function"
    },
    {
      "inputs": [
        {
          "internalType": "uint256",
          "name": "idx",
          "type": "uint256"
        },
        {
          "internalType": "uint256",
          "name": "amount",
          "type": "uint256"
        }
      ],
      "name": "removeMargin",
      "outputs": [],
      "stateMutability": "nonpayable",
      "type": "function"
    },
    {
      "inputs": [
        {
          "internalType": "address",
          "name": "_governance",
          "type": "address"
        }
      ],
      "name": "setGovernace",
      "outputs": [],
      "stateMutability": "nonpayable",
      "type": "function"
    },
    {
      "inputs": [
        {
          "internalType": "address",
          "name": "trader",
          "type": "address"
        },
        {
          "internalType": "uint256",
          "name": "idx",
          "type": "uint256"
        },
        {
          "internalType": "int256",
          "name": "amount",
          "type": "int256"
        }
      ],
      "name": "setMargin",
      "outputs": [],
      "stateMutability": "nonpayable",
      "type": "function"
    },
    {
      "inputs": [
        {
          "internalType": "address",
          "name": "trader",
          "type": "address"
        }
      ],
      "name": "settleBadDebt",
      "outputs": [],
      "stateMutability": "nonpayable",
      "type": "function"
    },
    {
      "inputs": [],
      "name": "supportedAssets",
      "outputs": [
        {
          "components": [
            {
              "internalType": "contract IERC20",
              "name": "token",
              "type": "address"
            },
            {
              "internalType": "uint256",
              "name": "weight",
              "type": "uint256"
            },
            {
              "internalType": "uint8",
              "name": "decimals",
              "type": "uint8"
            }
          ],
          "internalType": "struct IMarginAccount.Collateral[]",
          "name": "",
          "type": "tuple[]"
        }
      ],
      "stateMutability": "view",
      "type": "function"
    },
    {
      "inputs": [],
      "name": "supportedAssetsLen",
      "outputs": [
        {
          "internalType": "uint256",
          "name": "",
          "type": "uint256"
        }
      ],
      "stateMutability": "view",
      "type": "function"
    },
    {
      "inputs": [
        {
          "internalType": "uint256",
          "name": "",
          "type": "uint256"
        }
      ],
      "name": "supportedCollateral",
      "outputs": [
        {
          "internalType": "contract IERC20",
          "name": "token",
          "type": "address"
        },
        {
          "internalType": "uint256",
          "name": "weight",
          "type": "uint256"
        },
        {
          "internalType": "uint8",
          "name": "decimals",
          "type": "uint8"
        }
      ],
      "stateMutability": "view",
      "type": "function"
    },
    {
      "inputs": [
        {
          "internalType": "address",
          "name": "_registry",
          "type": "address"
        },
        {
          "internalType": "uint256",
          "name": "_liquidationIncentive",
          "type": "uint256"
        }
      ],
      "name": "syncDeps",
      "outputs": [],
      "stateMutability": "nonpayable",
      "type": "function"
    },
    {
      "inputs": [
        {
          "internalType": "address",
          "name": "recipient",
          "type": "address"
        },
        {
          "internalType": "uint256",
          "name": "amount",
          "type": "uint256"
        }
      ],
      "name": "transferOutVusd",
      "outputs": [],
      "stateMutability": "nonpayable",
      "type": "function"
    },
    {
      "inputs": [],
      "name": "trustedForwarder",
      "outputs": [
        {
          "internalType": "address",
          "name": "",
          "type": "address"
        }
      ],
      "stateMutability": "view",
      "type": "function"
    },
    {
      "inputs": [],
      "name": "unpause",
      "outputs": [],
      "stateMutability": "nonpayable",
      "type": "function"
    },
    {
      "inputs": [],
      "name": "vusd",
      "outputs": [
        {
          "internalType": "contract IERC20FlexibleSupply",
          "name": "",
          "type": "address"
        }
      ],
      "stateMutability": "view",
      "type": "function"
    },
    {
      "inputs": [
        {
          "internalType": "address",
          "name": "trader",
          "type": "address"
        }
      ],
      "name": "weightedAndSpotCollateral",
      "outputs": [
        {
          "internalType": "int256",
          "name": "weighted",
          "type": "int256"
        },
        {
          "internalType": "int256",
          "name": "spot",
          "type": "int256"
        }
      ],
      "stateMutability": "view",
      "type": "function"
    },
    {
      "inputs": [
        {
          "internalType": "address",
          "name": "_coin",
          "type": "address"
        },
        {
          "internalType": "uint256",
          "name": "_weight",
          "type": "uint256"
        }
      ],
      "name": "whitelistCollateral",
      "outputs": [],
      "stateMutability": "nonpayable",
      "type": "function"
    }
  ],
  "bytecode": "0x60a06040523480156200001157600080fd5b50604051620062a8380380620062a88339818101604052810190620000379190620000fc565b80808060008060166101000a81548160ff0219169083151502179055508073ffffffffffffffffffffffffffffffffffffffff1660808173ffffffffffffffffffffffffffffffffffffffff1681525050505050506200012e565b600080fd5b600073ffffffffffffffffffffffffffffffffffffffff82169050919050565b6000620000c48262000097565b9050919050565b620000d681620000b7565b8114620000e257600080fd5b50565b600081519050620000f681620000cb565b92915050565b60006020828403121562000115576200011462000092565b5b60006200012584828501620000e5565b91505092915050565b608051616157620001516000396000818161124001526114d801526161576000f3fe608060405234801561001057600080fd5b50600436106102115760003560e01c80638456cb5911610125578063c804cf60116100ad578063e5590ea21161007c578063e5590ea2146105b5578063edac5203146105e5578063f9a8232e14610603578063fd9910e11461061f578063ff71fa221461063b57610211565b8063c804cf6014610530578063d41194b81461054c578063e19b74f714610568578063e2c9713b1461058457610211565b80638c765e94116100f45780638c765e941461049c5780639277f8ff146104ba578063a06d083c146104d6578063a80ce55c146104f4578063b79023031461051257610211565b80638456cb591461042a578063851e3ca514610434578063870b007914610450578063873490ea1461046c57610211565b8063572b6c05116101a85780636141cc1c116101775780636141cc1c146103985780637da0a877146103b45780637dc0d1d0146103d25780637ed5e295146103f057806381d6dd8b1461040c57610211565b8063572b6c05146102fc5780635aa6e6751461032c5780635c975abb1461034a57806360cb53051461036857610211565b80633f4ba83a116101e45780633f4ba83a14610288578063485cc955146102925780634b8f4381146102ae578063500b2265146102ca57610211565b806304aa459c1461021657806304ec9d6e146102325780630af968001461024e578063242e74a71461026c575b600080fd5b610230600480360381019061022b91906141ad565b61066d565b005b61024c60048036038101906102479190614221565b610874565b005b610256610910565b60405161026391906142c0565b60405180910390f35b61028660048036038101906102819190614311565b610936565b005b610290610990565b005b6102ac60048036038101906102a79190614364565b610a28565b005b6102c860048036038101906102c391906143a4565b610b5d565b005b6102e460048036038101906102df919061441c565b610fac565b6040516102f3939291906144e2565b60405180910390f35b61031660048036038101906103119190614519565b61123c565b6040516103239190614555565b60405180910390f35b610334611294565b604051610341919061457f565b60405180910390f35b6103526112b8565b60405161035f9190614555565b60405180910390f35b610382600480360381019061037d9190614519565b6112ce565b60405161038f91906145a9565b60405180910390f35b6103b260048036038101906103ad91906145c4565b6112e4565b005b6103bc6114d4565b6040516103c9919061457f565b60405180910390f35b6103da6114fc565b6040516103e79190614638565b60405180910390f35b61040a60048036038101906104059190614221565b611522565b005b610414611938565b6040516104219190614653565b60405180910390f35b610432611945565b005b61044e60048036038101906104499190614519565b6119dd565b005b61046a600480360381019061046591906143a4565b611a77565b005b6104866004803603810190610481919061466e565b611bc0565b60405161049391906145a9565b60405180910390f35b6104a4611be5565b6040516104b19190614653565b60405180910390f35b6104d460048036038101906104cf91906146ae565b611beb565b005b6104de611d4d565b6040516104eb9190614653565b60405180910390f35b6104fc611d53565b604051610509919061482b565b60405180910390f35b61051a611e2f565b604051610527919061486e565b60405180910390f35b61054a60048036038101906105459190614519565b611e55565b005b610566600480360381019061056191906143a4565b612468565b005b610582600480360381019061057d9190614889565b6124c6565b005b61059e60048036038101906105999190614519565b61262f565b6040516105ac9291906148f0565b60405180910390f35b6105cf60048036038101906105ca9190614519565b6128fa565b6040516105dc91906145a9565b60405180910390f35b6105ed61290f565b6040516105fa919061493a565b60405180910390f35b61061d60048036038101906106189190614889565b612935565b005b61063960048036038101906106349190614221565b612a9e565b005b61065560048036038101906106509190614955565b612b43565b604051610664939291906149a0565b60405180910390f35b6106756112b8565b156106b5576040517f08c379a00000000000000000000000000000000000000000000000000000000081526004016106ac90614a34565b60405180910390fd5b600160009054906101000a900473ffffffffffffffffffffffffffffffffffffffff1673ffffffffffffffffffffffffffffffffffffffff166343ba4970856040518263ffffffff1660e01b8152600401610710919061457f565b600060405180830381600087803b15801561072a57600080fd5b505af115801561073e573d6000803e3d6000fd5b50505050600080600090505b8383905081101561086c57600061077a8786868581811061076e5761076d614a54565b5b90506020020135612baa565b9050600160038111156107905761078f61445c565b5b816000015160038111156107a7576107a661445c565b5b14156107ee5780600001516040517f25ba9ec60000000000000000000000000000000000000000000000000000000081526004016107e59190614a83565b60405180910390fd5b600060038111156108025761080161445c565b5b816000015160038111156108195761081861445c565b5b14610824575061086c565b610848878787878681811061083c5761083b614a54565b5b90506020020135612e0c565b925082866108569190614acd565b955050808061086490614b01565b91505061074a565b505050505050565b60008054906101000a900473ffffffffffffffffffffffffffffffffffffffff1673ffffffffffffffffffffffffffffffffffffffff163373ffffffffffffffffffffffffffffffffffffffff1614610902576040517f08c379a00000000000000000000000000000000000000000000000000000000081526004016108f990614b96565b60405180910390fd5b61090c8282612f67565b5050565b600160009054906101000a900473ffffffffffffffffffffffffffffffffffffffff1681565b806008600084815260200190815260200160002060008573ffffffffffffffffffffffffffffffffffffffff1673ffffffffffffffffffffffffffffffffffffffff16815260200190815260200160002081905550505050565b60008054906101000a900473ffffffffffffffffffffffffffffffffffffffff1673ffffffffffffffffffffffffffffffffffffffff163373ffffffffffffffffffffffffffffffffffffffff1614610a1e576040517f08c379a0000000000000000000000000000000000000000000000000000000008152600401610a1590614b96565b60405180910390fd5b610a26613288565b565b600060159054906101000a900460ff1680610a505750600060149054906101000a900460ff16155b610a8f576040517f08c379a0000000000000000000000000000000000000000000000000000000008152600401610a8690614c28565b60405180910390fd5b60008060159054906101000a900460ff161590508015610ae0576001600060156101000a81548160ff0219169083151502179055506001600060146101000a81548160ff0219169083151502179055505b610ae983613329565b610af682620f4240612f67565b81600460006101000a81548173ffffffffffffffffffffffffffffffffffffffff021916908373ffffffffffffffffffffffffffffffffffffffff1602179055508015610b585760008060156101000a81548160ff0219169083151502179055505b505050565b610b656112b8565b15610ba5576040517f08c379a0000000000000000000000000000000000000000000000000000000008152600401610b9c90614a34565b60405180910390fd5b6000610baf61336c565b9050600160009054906101000a900473ffffffffffffffffffffffffffffffffffffffff1673ffffffffffffffffffffffffffffffffffffffff166343ba4970826040518263ffffffff1660e01b8152600401610c0c919061457f565b600060405180830381600087803b158015610c2657600080fd5b505af1158015610c3a573d6000803e3d6000fd5b5050505060006008600080815260200190815260200160002060008373ffffffffffffffffffffffffffffffffffffffff1673ffffffffffffffffffffffffffffffffffffffff168152602001908152602001600020541215610cd2576040517f08c379a0000000000000000000000000000000000000000000000000000000008152600401610cc990614cba565b60405180910390fd5b610cdb8261337b565b6008600085815260200190815260200160002060008373ffffffffffffffffffffffffffffffffffffffff1673ffffffffffffffffffffffffffffffffffffffff168152602001908152602001600020541215610d6d576040517f08c379a0000000000000000000000000000000000000000000000000000000008152600401610d6490614d26565b60405180910390fd5b610d768261337b565b6008600085815260200190815260200160002060008373ffffffffffffffffffffffffffffffffffffffff1673ffffffffffffffffffffffffffffffffffffffff1681526020019081526020016000206000828254610dd59190614d46565b92505081905550600160009054906101000a900473ffffffffffffffffffffffffffffffffffffffff1673ffffffffffffffffffffffffffffffffffffffff16632083c3cc826040518263ffffffff1660e01b8152600401610e37919061457f565b60206040518083038186803b158015610e4f57600080fd5b505afa158015610e63573d6000803e3d6000fd5b505050506040513d601f19601f82011682018060405250810190610e879190614def565b610ec6576040517f08c379a0000000000000000000000000000000000000000000000000000000008152600401610ebd90614e68565b60405180910390fd5b6000831415610ede57610ed981836133e8565b610f4f565b610f4e818360068681548110610ef757610ef6614a54565b5b906000526020600020906003020160000160009054906101000a900473ffffffffffffffffffffffffffffffffffffffff1673ffffffffffffffffffffffffffffffffffffffff166135ab9092919063ffffffff16565b5b828173ffffffffffffffffffffffffffffffffffffffff167ffe460128225239fdbbc5909326e8198b8396336ff9b32b8f4dbda29447ecf97c84610f91613631565b604051610f9f929190614e88565b60405180910390a3505050565b6000806000806008600080815260200190815260200160002060008773ffffffffffffffffffffffffffffffffffffffff1673ffffffffffffffffffffffffffffffffffffffff16815260200190815260200160002054905084156110c457600160009054906101000a900473ffffffffffffffffffffffffffffffffffffffff1673ffffffffffffffffffffffffffffffffffffffff1663e239e840876040518263ffffffff1660e01b8152600401611066919061457f565b60206040518083038186803b15801561107e57600080fd5b505afa158015611092573d6000803e3d6000fd5b505050506040513d601f19601f820116820180604052508101906110b69190614ec6565b816110c19190614d46565b90505b600081126110dd57600260008093509350935050611235565b6000600160009054906101000a900473ffffffffffffffffffffffffffffffffffffffff1673ffffffffffffffffffffffffffffffffffffffff1663260124af886040518263ffffffff1660e01b815260040161113a919061457f565b604080518083038186803b15801561115157600080fd5b505afa158015611165573d6000803e3d6000fd5b505050506040513d601f19601f820116820180604052508101906111899190614f08565b509050600081146111a65760016000809450945094505050611235565b6000806111b28961262f565b91509150600082126111d257600360008096509650965050505050611235565b6111e4846111df90614f48565b613639565b9550620f4240945060008113156112305761122260075487620f424061120985613639565b6112139190614f91565b61121d919061501a565b613686565b8561122d919061504b565b94505b505050505b9250925092565b60007f000000000000000000000000000000000000000000000000000000000000000073ffffffffffffffffffffffffffffffffffffffff168273ffffffffffffffffffffffffffffffffffffffff16149050919050565b60008054906101000a900473ffffffffffffffffffffffffffffffffffffffff1681565b60008060169054906101000a900460ff16905090565b60006112d98261262f565b905080915050919050565b6112ec6112b8565b1561132c576040517f08c379a000000000000000000000000000000000000000000000000000000000815260040161132390614a34565b60405180910390fd5b6000821161136f576040517f08c379a0000000000000000000000000000000000000000000000000000000008152600401611366906150ed565b60405180910390fd5b600083141561138e5761138961138361336c565b8361369f565b611408565b61140761139961336c565b3084600687815481106113af576113ae614a54565b5b906000526020600020906003020160000160009054906101000a900473ffffffffffffffffffffffffffffffffffffffff1673ffffffffffffffffffffffffffffffffffffffff1661385f909392919063ffffffff16565b5b6114118261337b565b6008600085815260200190815260200160002060008373ffffffffffffffffffffffffffffffffffffffff1673ffffffffffffffffffffffffffffffffffffffff1681526020019081526020016000206000828254611470919061510d565b92505081905550828173ffffffffffffffffffffffffffffffffffffffff167fe424152e5f8dcbc0fbba9108ff4e148910ddb920dd772c655cb76517f579decf846114b9613631565b6040516114c7929190614e88565b60405180910390a3505050565b60007f0000000000000000000000000000000000000000000000000000000000000000905090565b600260009054906101000a900473ffffffffffffffffffffffffffffffffffffffff1681565b60008054906101000a900473ffffffffffffffffffffffffffffffffffffffff1673ffffffffffffffffffffffffffffffffffffffff163373ffffffffffffffffffffffffffffffffffffffff16146115b0576040517f08c379a00000000000000000000000000000000000000000000000000000000081526004016115a790614b96565b60405180910390fd5b600a620f42406115c0919061501a565b811115611602576040517f08c379a00000000000000000000000000000000000000000000000000000000081526004016115f9906151ed565b60405180910390fd5b60008290503073ffffffffffffffffffffffffffffffffffffffff168173ffffffffffffffffffffffffffffffffffffffff1663f742269d6040518163ffffffff1660e01b815260040160206040518083038186803b15801561166457600080fd5b505afa158015611678573d6000803e3d6000fd5b505050506040513d601f19601f8201168201806040525081019061169c9190615222565b73ffffffffffffffffffffffffffffffffffffffff16146116f2576040517f08c379a00000000000000000000000000000000000000000000000000000000081526004016116e99061529b565b60405180910390fd5b8073ffffffffffffffffffffffffffffffffffffffff16630af968006040518163ffffffff1660e01b815260040160206040518083038186803b15801561173857600080fd5b505afa15801561174c573d6000803e3d6000fd5b505050506040513d601f19601f820116820180604052508101906117709190615222565b600160006101000a81548173ffffffffffffffffffffffffffffffffffffffff021916908373ffffffffffffffffffffffffffffffffffffffff1602179055508073ffffffffffffffffffffffffffffffffffffffff16637dc0d1d06040518163ffffffff1660e01b815260040160206040518083038186803b1580156117f657600080fd5b505afa15801561180a573d6000803e3d6000fd5b505050506040513d601f19601f8201168201806040525081019061182e9190615222565b600260006101000a81548173ffffffffffffffffffffffffffffffffffffffff021916908373ffffffffffffffffffffffffffffffffffffffff1602179055508073ffffffffffffffffffffffffffffffffffffffff1663b79023036040518163ffffffff1660e01b815260040160206040518083038186803b1580156118b457600080fd5b505afa1580156118c8573d6000803e3d6000fd5b505050506040513d601f19601f820116820180604052508101906118ec9190615222565b600360006101000a81548173ffffffffffffffffffffffffffffffffffffffff021916908373ffffffffffffffffffffffffffffffffffffffff16021790555081600781905550505050565b6000600680549050905090565b60008054906101000a900473ffffffffffffffffffffffffffffffffffffffff1673ffffffffffffffffffffffffffffffffffffffff163373ffffffffffffffffffffffffffffffffffffffff16146119d3576040517f08c379a00000000000000000000000000000000000000000000000000000000081526004016119ca90614b96565b60405180910390fd5b6119db6138e8565b565b60008054906101000a900473ffffffffffffffffffffffffffffffffffffffff1673ffffffffffffffffffffffffffffffffffffffff163373ffffffffffffffffffffffffffffffffffffffff1614611a6b576040517f08c379a0000000000000000000000000000000000000000000000000000000008152600401611a6290614b96565b60405180910390fd5b611a7481613329565b50565b60008054906101000a900473ffffffffffffffffffffffffffffffffffffffff1673ffffffffffffffffffffffffffffffffffffffff163373ffffffffffffffffffffffffffffffffffffffff1614611b05576040517f08c379a0000000000000000000000000000000000000000000000000000000008152600401611afc90614b96565b60405180910390fd5b620f4240811115611b4b576040517f08c379a0000000000000000000000000000000000000000000000000000000008152600401611b4290615307565b60405180910390fd5b6006805490508210611b92576040517f08c379a0000000000000000000000000000000000000000000000000000000008152600401611b8990615373565b60405180910390fd5b8060068381548110611ba757611ba6614a54565b5b9060005260206000209060030201600101819055505050565b6008602052816000526040600020602052806000526040600020600091509150505481565b60075481565b600160009054906101000a900473ffffffffffffffffffffffffffffffffffffffff1673ffffffffffffffffffffffffffffffffffffffff16611c2c61336c565b73ffffffffffffffffffffffffffffffffffffffff1614611c82576040517f08c379a0000000000000000000000000000000000000000000000000000000008152600401611c79906153df565b60405180910390fd5b60008114611d4957806008600080815260200190815260200160002060008473ffffffffffffffffffffffffffffffffffffffff1673ffffffffffffffffffffffffffffffffffffffff1681526020019081526020016000206000828254611cea919061510d565b925050819055508173ffffffffffffffffffffffffffffffffffffffff167ff9067ab1bfec1213afebcdd6735481adbaecc73093f35eeb381b1bb499aa454482611d32613631565b604051611d409291906153ff565b60405180910390a25b5050565b60055481565b60606006805480602002602001604051908101604052809291908181526020016000905b82821015611e2657838290600052602060002090600302016040518060600160405290816000820160009054906101000a900473ffffffffffffffffffffffffffffffffffffffff1673ffffffffffffffffffffffffffffffffffffffff1673ffffffffffffffffffffffffffffffffffffffff168152602001600182015481526020016002820160009054906101000a900460ff1660ff1660ff168152505081526020019060010190611d77565b50505050905090565b600360009054906101000a900473ffffffffffffffffffffffffffffffffffffffff1681565b611e5d6112b8565b15611e9d576040517f08c379a0000000000000000000000000000000000000000000000000000000008152600401611e9490614a34565b60405180910390fd5b6000600160009054906101000a900473ffffffffffffffffffffffffffffffffffffffff1673ffffffffffffffffffffffffffffffffffffffff1663260124af836040518263ffffffff1660e01b8152600401611efa919061457f565b604080518083038186803b158015611f1157600080fd5b505afa158015611f25573d6000803e3d6000fd5b505050506040513d601f19601f82011682018060405250810190611f499190614f08565b50905060008114611f8f576040517f08c379a0000000000000000000000000000000000000000000000000000000008152600401611f869061549a565b60405180910390fd5b6000611f9a836112ce565b12611fda576040517f08c379a0000000000000000000000000000000000000000000000000000000008152600401611fd190615506565b60405180910390fd5b60006008600080815260200190815260200160002060008473ffffffffffffffffffffffffffffffffffffffff1673ffffffffffffffffffffffffffffffffffffffff16815260200190815260200160002054905060008112612072576040517f08c379a000000000000000000000000000000000000000000000000000000000815260040161206990615572565b60405180910390fd5b60006120868261208190614f48565b613639565b905060006006805480602002602001604051908101604052809291908181526020016000905b8282101561215b57838290600052602060002090600302016040518060600160405290816000820160009054906101000a900473ffffffffffffffffffffffffffffffffffffffff1673ffffffffffffffffffffffffffffffffffffffff1673ffffffffffffffffffffffffffffffffffffffff168152602001600182015481526020016002820160009054906101000a900460ff1660ff1660ff1681525050815260200190600101906120ac565b505050509050600360009054906101000a900473ffffffffffffffffffffffffffffffffffffffff1673ffffffffffffffffffffffffffffffffffffffff1663e2eb4f5e836040518263ffffffff1660e01b81526004016121bc9190614653565b600060405180830381600087803b1580156121d657600080fd5b505af11580156121ea573d6000803e3d6000fd5b5050505060006008600080815260200190815260200160002060008773ffffffffffffffffffffffffffffffffffffffff1673ffffffffffffffffffffffffffffffffffffffff168152602001908152602001600020819055506000815167ffffffffffffffff81111561226157612260615592565b5b60405190808252806020026020018201604052801561228f5781602001602082028036833780820191505090505b5090506000600190505b82518110156124065760006008600083815260200190815260200160002060008973ffffffffffffffffffffffffffffffffffffffff1673ffffffffffffffffffffffffffffffffffffffff16815260200190815260200160002054905060008113156123f25760006008600084815260200190815260200160002060008a73ffffffffffffffffffffffffffffffffffffffff1673ffffffffffffffffffffffffffffffffffffffff168152602001908152602001600020819055506123c9600360009054906101000a900473ffffffffffffffffffffffffffffffffffffffff1661238583613639565b86858151811061239857612397614a54565b5b60200260200101516000015173ffffffffffffffffffffffffffffffffffffffff166135ab9092919063ffffffff16565b6123d281613639565b8383815181106123e5576123e4614a54565b5b6020026020010181815250505b5080806123fe90614b01565b915050612299565b508573ffffffffffffffffffffffffffffffffffffffff167f18172d438ecc20ef650e13e0037292d809dc7a0803e0505eed947341008e6e7c8285612449613631565b60405161245893929190615670565b60405180910390a2505050505050565b6124706112b8565b156124b0576040517f08c379a00000000000000000000000000000000000000000000000000000000081526004016124a790614a34565b60405180910390fd5b6124c282826124bd61336c565b6112e4565b5050565b6124ce6112b8565b1561250e576040517f08c379a000000000000000000000000000000000000000000000000000000000815260040161250590614a34565b60405180910390fd5b600160009054906101000a900473ffffffffffffffffffffffffffffffffffffffff1673ffffffffffffffffffffffffffffffffffffffff166343ba4970856040518263ffffffff1660e01b8152600401612569919061457f565b600060405180830381600087803b15801561258357600080fd5b505af1158015612597573d6000803e3d6000fd5b5050505060006125a78584612baa565b9050600060038111156125bd576125bc61445c565b5b816000015160038111156125d4576125d361445c565b5b1461261a5780600001516040517f25ba9ec60000000000000000000000000000000000000000000000000000000081526004016126119190614a83565b60405180910390fd5b612627818686868661398b565b505050505050565b60008060006006805480602002602001604051908101604052809291908181526020016000905b8282101561270557838290600052602060002090600302016040518060600160405290816000820160009054906101000a900473ffffffffffffffffffffffffffffffffffffffff1673ffffffffffffffffffffffffffffffffffffffff1673ffffffffffffffffffffffffffffffffffffffff168152602001600182015481526020016002820160009054906101000a900460ff1660ff1660ff168152505081526020019060010190612656565b50505050905061271361402c565b60005b82518110156128f25782818151811061273257612731614a54565b5b602002602001015191506000600260009054906101000a900473ffffffffffffffffffffffffffffffffffffffff1673ffffffffffffffffffffffffffffffffffffffff1663fc57d4df85848151811061278f5761278e614a54565b5b6020026020010151600001516040518263ffffffff1660e01b81526004016127b7919061457f565b60206040518083038186803b1580156127cf57600080fd5b505afa1580156127e3573d6000803e3d6000fd5b505050506040513d601f19601f820116820180604052508101906128079190614ec6565b6008600084815260200190815260200160002060008973ffffffffffffffffffffffffffffffffffffffff1673ffffffffffffffffffffffffffffffffffffffff1681526020019081526020016000205461286291906156ae565b90506000836040015160ff16905080600a61287d91906158f8565b826128889190615943565b86612893919061510d565b95506006816128a2919061504b565b600a6128ae91906158f8565b6128bb856020015161337b565b836128c691906156ae565b6128d09190615943565b876128db919061510d565b9650505080806128ea90614b01565b915050612716565b505050915091565b60006129058261262f565b5080915050919050565b600460009054906101000a900473ffffffffffffffffffffffffffffffffffffffff1681565b61293d6112b8565b1561297d576040517f08c379a000000000000000000000000000000000000000000000000000000000815260040161297490614a34565b60405180910390fd5b600160009054906101000a900473ffffffffffffffffffffffffffffffffffffffff1673ffffffffffffffffffffffffffffffffffffffff166343ba4970856040518263ffffffff1660e01b81526004016129d8919061457f565b600060405180830381600087803b1580156129f257600080fd5b505af1158015612a06573d6000803e3d6000fd5b505050506000612a168584612baa565b905060006003811115612a2c57612a2b61445c565b5b81600001516003811115612a4357612a4261445c565b5b14612a895780600001516040517f25ba9ec6000000000000000000000000000000000000000000000000000000008152600401612a809190614a83565b60405180910390fd5b612a9681868686866139f7565b505050505050565b600160009054906101000a900473ffffffffffffffffffffffffffffffffffffffff1673ffffffffffffffffffffffffffffffffffffffff16612adf61336c565b73ffffffffffffffffffffffffffffffffffffffff1614612b35576040517f08c379a0000000000000000000000000000000000000000000000000000000008152600401612b2c906153df565b60405180910390fd5b612b3f82826133e8565b5050565b60068181548110612b5357600080fd5b90600052602060002090600302016000915090508060000160009054906101000a900473ffffffffffffffffffffffffffffffffffffffff16908060010154908060020160009054906101000a900460ff16905083565b612bb2614066565b600082118015612bc6575060068054905082105b612c05576040517f08c379a0000000000000000000000000000000000000000000000000000000008152600401612bfc906159f9565b60405180910390fd5b612c10836000610fac565b8360000184606001856040018381525083815250836003811115612c3757612c3661445c565b5b6003811115612c4957612c4861445c565b5b81525050505060006003811115612c6357612c6261445c565b5b81600001516003811115612c7a57612c7961445c565b5b1415612e0657600060068381548110612c9657612c95614a54565b5b90600052602060002090600302016040518060600160405290816000820160009054906101000a900473ffffffffffffffffffffffffffffffffffffffff1673ffffffffffffffffffffffffffffffffffffffff1673ffffffffffffffffffffffffffffffffffffffff168152602001600182015481526020016002820160009054906101000a900460ff1660ff1660ff16815250509050612de5600260009054906101000a900473ffffffffffffffffffffffffffffffffffffffff1673ffffffffffffffffffffffffffffffffffffffff1663fc57d4df83600001516040518263ffffffff1660e01b8152600401612d90919061457f565b60206040518083038186803b158015612da857600080fd5b505afa158015612dbc573d6000803e3d6000fd5b505050506040513d601f19601f82011682018060405250810190612de09190614ec6565b613639565b8260800181815250508060400151826020019060ff16908160ff1681525050505b92915050565b6000612e166112b8565b15612e56576040517f08c379a0000000000000000000000000000000000000000000000000000000008152600401612e4d90614a34565b60405180910390fd5b6000612e628584612baa565b90506000612ec882612ec36008600088815260200190815260200160002060008a73ffffffffffffffffffffffffffffffffffffffff1673ffffffffffffffffffffffffffffffffffffffff16815260200190815260200160002054613639565b613af2565b905081606001518110612ef657612ee7828784606001518760006139f7565b50816060015192505050612f60565b612f5b82878787612f56600860008b815260200190815260200160002060008d73ffffffffffffffffffffffffffffffffffffffff1673ffffffffffffffffffffffffffffffffffffffff16815260200190815260200160002054613639565b61398b565b925050505b9392505050565b620f4240811115612fad576040517f08c379a0000000000000000000000000000000000000000000000000000000008152600401612fa490615307565b60405180910390fd5b60006006805480602002602001604051908101604052809291908181526020016000905b8282101561308057838290600052602060002090600302016040518060600160405290816000820160009054906101000a900473ffffffffffffffffffffffffffffffffffffffff1673ffffffffffffffffffffffffffffffffffffffff1673ffffffffffffffffffffffffffffffffffffffff168152602001600182015481526020016002820160009054906101000a900460ff1660ff1660ff168152505081526020019060010190612fd1565b50505050905060005b8151811015613132578373ffffffffffffffffffffffffffffffffffffffff168282815181106130bc576130bb614a54565b5b60200260200101516000015173ffffffffffffffffffffffffffffffffffffffff16141561311f576040517f08c379a000000000000000000000000000000000000000000000000000000000815260040161311690615a65565b60405180910390fd5b808061312a90614b01565b915050613089565b50600660405180606001604052808573ffffffffffffffffffffffffffffffffffffffff1681526020018481526020018573ffffffffffffffffffffffffffffffffffffffff1663313ce5676040518163ffffffff1660e01b815260040160206040518083038186803b1580156131a857600080fd5b505afa1580156131bc573d6000803e3d6000fd5b505050506040513d601f19601f820116820180604052508101906131e09190615ab1565b60ff16815250908060018154018082558091505060019003906000526020600020906003020160009091909190915060008201518160000160006101000a81548173ffffffffffffffffffffffffffffffffffffffff021916908373ffffffffffffffffffffffffffffffffffffffff1602179055506020820151816001015560408201518160020160006101000a81548160ff021916908360ff1602179055505050505050565b6132906112b8565b6132cf576040517f08c379a00000000000000000000000000000000000000000000000000000000081526004016132c690615b2a565b60405180910390fd5b60008060166101000a81548160ff0219169083151502179055507f5db9ee0a495bf2e6ff9c91a7834c1ba4fdd244a5e8aa4e537bd38aeae4b073aa61331261336c565b60405161331f919061457f565b60405180910390a1565b806000806101000a81548173ffffffffffffffffffffffffffffffffffffffff021916908373ffffffffffffffffffffffffffffffffffffffff16021790555050565b6000613376613b55565b905090565b60007f7fffffffffffffffffffffffffffffffffffffffffffffffffffffffffffffff8211156133e0576040517f08c379a00000000000000000000000000000000000000000000000000000000081526004016133d790615bbc565b60405180910390fd5b819050919050565b6000600460009054906101000a900473ffffffffffffffffffffffffffffffffffffffff1673ffffffffffffffffffffffffffffffffffffffff166370a08231306040518263ffffffff1660e01b8152600401613445919061457f565b60206040518083038186803b15801561345d57600080fd5b505afa158015613471573d6000803e3d6000fd5b505050506040513d601f19601f820116820180604052508101906134959190615bdc565b90508181101561355957600081836134ad9190614acd565b905080600560008282546134c1919061504b565b92505081905550600460009054906101000a900473ffffffffffffffffffffffffffffffffffffffff1673ffffffffffffffffffffffffffffffffffffffff166340c10f1930836040518363ffffffff1660e01b8152600401613525929190615c09565b600060405180830381600087803b15801561353f57600080fd5b505af1158015613553573d6000803e3d6000fd5b50505050505b6135a68383600460009054906101000a900473ffffffffffffffffffffffffffffffffffffffff1673ffffffffffffffffffffffffffffffffffffffff166135ab9092919063ffffffff16565b505050565b61362c8363a9059cbb60e01b84846040516024016135ca929190615c09565b604051602081830303815290604052907bffffffffffffffffffffffffffffffffffffffffffffffffffffffff19166020820180517bffffffffffffffffffffffffffffffffffffffffffffffffffffffff8381831617835250505050613b87565b505050565b600042905090565b60008082121561367e576040517f08c379a000000000000000000000000000000000000000000000000000000000815260040161367590615c7e565b60405180910390fd5b819050919050565b60008183106136955781613697565b825b905092915050565b6136ee823083600460009054906101000a900473ffffffffffffffffffffffffffffffffffffffff1673ffffffffffffffffffffffffffffffffffffffff1661385f909392919063ffffffff16565b6000600554111561385b5760006137b1600460009054906101000a900473ffffffffffffffffffffffffffffffffffffffff1673ffffffffffffffffffffffffffffffffffffffff166370a08231306040518263ffffffff1660e01b8152600401613759919061457f565b60206040518083038186803b15801561377157600080fd5b505afa158015613785573d6000803e3d6000fd5b505050506040513d601f19601f820116820180604052508101906137a99190615bdc565b600554613c4e565b905080600560008282546137c59190614acd565b92505081905550600460009054906101000a900473ffffffffffffffffffffffffffffffffffffffff1673ffffffffffffffffffffffffffffffffffffffff166342966c68826040518263ffffffff1660e01b81526004016138279190614653565b600060405180830381600087803b15801561384157600080fd5b505af1158015613855573d6000803e3d6000fd5b50505050505b5050565b6138e2846323b872dd60e01b85858560405160240161388093929190615c9e565b604051602081830303815290604052907bffffffffffffffffffffffffffffffffffffffffffffffffffffffff19166020820180517bffffffffffffffffffffffffffffffffffffffffffffffffffffffff8381831617835250505050613b87565b50505050565b6138f06112b8565b15613930576040517f08c379a000000000000000000000000000000000000000000000000000000000815260040161392790614a34565b60405180910390fd5b6001600060166101000a81548160ff0219169083151502179055507f62e78cea01bee320cd4e420270b5ea74000d11b0c9f74754ebdbfc544b05a25861397461336c565b604051613981919061457f565b60405180910390a1565b60006139978683613af2565b9050838111156139dc576040517f08c379a00000000000000000000000000000000000000000000000000000000081526004016139d390615d47565b60405180910390fd5b6139ed858285858a60600151613c67565b5095945050505050565b6000613a928660800151613a2a886040015187613a149190614f91565b60068a60200151613a259190615d67565b613e5c565b613a34919061501a565b613a8d6008600087815260200190815260200160002060008973ffffffffffffffffffffffffffffffffffffffff1673ffffffffffffffffffffffffffffffffffffffff16815260200190815260200160002054613639565b613686565b905081811015613ad7576040517f08c379a0000000000000000000000000000000000000000000000000000000008152600401613ace90615de7565b60405180910390fd5b613ae8858585848a60600151613c67565b5095945050505050565b60008260200151600a613b059190615e07565b836080015183613b159190614f91565b613b1f919061501a565b9050600083604001511115613b4f578260400151620f424082613b429190614f91565b613b4c919061501a565b90505b92915050565b6000613b603361123c565b15613b7457601436033560601c9050613b83565b613b7c613e7e565b9050613b84565b5b90565b6000613be9826040518060400160405280602081526020017f5361666545524332303a206c6f772d6c6576656c2063616c6c206661696c65648152508573ffffffffffffffffffffffffffffffffffffffff16613e869092919063ffffffff16565b9050600081511115613c495780806020019051810190613c099190614def565b613c48576040517f08c379a0000000000000000000000000000000000000000000000000000000008152600401613c3f90615ec4565b60405180910390fd5b5b505050565b6000818310613c5d5781613c5f565b825b905092915050565b600080851480613c775750600083145b15613c8457819050613e53565b613c95613c8f61336c565b8661369f565b613c9e8561337b565b6008600080815260200190815260200160002060008873ffffffffffffffffffffffffffffffffffffffff1673ffffffffffffffffffffffffffffffffffffffff1681526020019081526020016000206000828254613cfd919061510d565b92505081905550613d0d8361337b565b6008600086815260200190815260200160002060008873ffffffffffffffffffffffffffffffffffffffff1673ffffffffffffffffffffffffffffffffffffffff1681526020019081526020016000206000828254613d6c9190614d46565b92505081905550613dea613d7e61336c565b8460068781548110613d9357613d92614a54565b5b906000526020600020906003020160000160009054906101000a900473ffffffffffffffffffffffffffffffffffffffff1673ffffffffffffffffffffffffffffffffffffffff166135ab9092919063ffffffff16565b838673ffffffffffffffffffffffffffffffffffffffff167f7fb23588e5b71d6f001557fcf957144c19a47dd6b80368d48b6289f6ba4cf1998588613e2d613631565b604051613e3c93929190615ee4565b60405180910390a38482613e509190614acd565b90505b95945050505050565b600081600a613e6b9190615e07565b83613e769190614f91565b905092915050565b600033905090565b6060613e958484600085613e9e565b90509392505050565b606082471015613ee3576040517f08c379a0000000000000000000000000000000000000000000000000000000008152600401613eda90615f8d565b60405180910390fd5b613eec85613fb2565b613f2b576040517f08c379a0000000000000000000000000000000000000000000000000000000008152600401613f2290615ff9565b60405180910390fd5b6000808673ffffffffffffffffffffffffffffffffffffffff168587604051613f549190616093565b60006040518083038185875af1925050503d8060008114613f91576040519150601f19603f3d011682016040523d82523d6000602084013e613f96565b606091505b5091509150613fa6828286613fc5565b92505050949350505050565b600080823b905060008111915050919050565b60608315613fd557829050614025565b600083511115613fe85782518084602001fd5b816040517f08c379a000000000000000000000000000000000000000000000000000000000815260040161401c91906160ff565b60405180910390fd5b9392505050565b6040518060600160405280600073ffffffffffffffffffffffffffffffffffffffff16815260200160008152602001600060ff1681525090565b6040518060a00160405280600060038111156140855761408461445c565b5b8152602001600060ff1681526020016000815260200160008152602001600081525090565b600080fd5b600080fd5b600073ffffffffffffffffffffffffffffffffffffffff82169050919050565b60006140df826140b4565b9050919050565b6140ef816140d4565b81146140fa57600080fd5b50565b60008135905061410c816140e6565b92915050565b6000819050919050565b61412581614112565b811461413057600080fd5b50565b6000813590506141428161411c565b92915050565b600080fd5b600080fd5b600080fd5b60008083601f84011261416d5761416c614148565b5b8235905067ffffffffffffffff81111561418a5761418961414d565b5b6020830191508360208202830111156141a6576141a5614152565b5b9250929050565b600080600080606085870312156141c7576141c66140aa565b5b60006141d5878288016140fd565b94505060206141e687828801614133565b935050604085013567ffffffffffffffff811115614207576142066140af565b5b61421387828801614157565b925092505092959194509250565b60008060408385031215614238576142376140aa565b5b6000614246858286016140fd565b925050602061425785828601614133565b9150509250929050565b6000819050919050565b600061428661428161427c846140b4565b614261565b6140b4565b9050919050565b60006142988261426b565b9050919050565b60006142aa8261428d565b9050919050565b6142ba8161429f565b82525050565b60006020820190506142d560008301846142b1565b92915050565b6000819050919050565b6142ee816142db565b81146142f957600080fd5b50565b60008135905061430b816142e5565b92915050565b60008060006060848603121561432a576143296140aa565b5b6000614338868287016140fd565b935050602061434986828701614133565b925050604061435a868287016142fc565b9150509250925092565b6000806040838503121561437b5761437a6140aa565b5b6000614389858286016140fd565b925050602061439a858286016140fd565b9150509250929050565b600080604083850312156143bb576143ba6140aa565b5b60006143c985828601614133565b92505060206143da85828601614133565b9150509250929050565b60008115159050919050565b6143f9816143e4565b811461440457600080fd5b50565b600081359050614416816143f0565b92915050565b60008060408385031215614433576144326140aa565b5b6000614441858286016140fd565b925050602061445285828601614407565b9150509250929050565b7f4e487b7100000000000000000000000000000000000000000000000000000000600052602160045260246000fd5b6004811061449c5761449b61445c565b5b50565b60008190506144ad8261448b565b919050565b60006144bd8261449f565b9050919050565b6144cd816144b2565b82525050565b6144dc81614112565b82525050565b60006060820190506144f760008301866144c4565b61450460208301856144d3565b61451160408301846144d3565b949350505050565b60006020828403121561452f5761452e6140aa565b5b600061453d848285016140fd565b91505092915050565b61454f816143e4565b82525050565b600060208201905061456a6000830184614546565b92915050565b614579816140d4565b82525050565b60006020820190506145946000830184614570565b92915050565b6145a3816142db565b82525050565b60006020820190506145be600083018461459a565b92915050565b6000806000606084860312156145dd576145dc6140aa565b5b60006145eb86828701614133565b93505060206145fc86828701614133565b925050604061460d868287016140fd565b9150509250925092565b60006146228261428d565b9050919050565b61463281614617565b82525050565b600060208201905061464d6000830184614629565b92915050565b600060208201905061466860008301846144d3565b92915050565b60008060408385031215614685576146846140aa565b5b600061469385828601614133565b92505060206146a4858286016140fd565b9150509250929050565b600080604083850312156146c5576146c46140aa565b5b60006146d3858286016140fd565b92505060206146e4858286016142fc565b9150509250929050565b600081519050919050565b600082825260208201905092915050565b6000819050602082019050919050565b60006147258261428d565b9050919050565b6147358161471a565b82525050565b61474481614112565b82525050565b600060ff82169050919050565b6147608161474a565b82525050565b60608201600082015161477c600085018261472c565b50602082015161478f602085018261473b565b5060408201516147a26040850182614757565b50505050565b60006147b48383614766565b60608301905092915050565b6000602082019050919050565b60006147d8826146ee565b6147e281856146f9565b93506147ed8361470a565b8060005b8381101561481e57815161480588826147a8565b9750614810836147c0565b9250506001810190506147f1565b5085935050505092915050565b6000602082019050818103600083015261484581846147cd565b905092915050565b60006148588261428d565b9050919050565b6148688161484d565b82525050565b6000602082019050614883600083018461485f565b92915050565b600080600080608085870312156148a3576148a26140aa565b5b60006148b1878288016140fd565b94505060206148c287828801614133565b93505060406148d387828801614133565b92505060606148e487828801614133565b91505092959194509250565b6000604082019050614905600083018561459a565b614912602083018461459a565b9392505050565b60006149248261428d565b9050919050565b61493481614919565b82525050565b600060208201905061494f600083018461492b565b92915050565b60006020828403121561496b5761496a6140aa565b5b600061497984828501614133565b91505092915050565b61498b8161471a565b82525050565b61499a8161474a565b82525050565b60006060820190506149b56000830186614982565b6149c260208301856144d3565b6149cf6040830184614991565b949350505050565b600082825260208201905092915050565b7f5061757361626c653a2070617573656400000000000000000000000000000000600082015250565b6000614a1e6010836149d7565b9150614a29826149e8565b602082019050919050565b60006020820190508181036000830152614a4d81614a11565b9050919050565b7f4e487b7100000000000000000000000000000000000000000000000000000000600052603260045260246000fd5b6000602082019050614a9860008301846144c4565b92915050565b7f4e487b7100000000000000000000000000000000000000000000000000000000600052601160045260246000fd5b6000614ad882614112565b9150614ae383614112565b925082821015614af657614af5614a9e565b5b828203905092915050565b6000614b0c82614112565b91507fffffffffffffffffffffffffffffffffffffffffffffffffffffffffffffffff821415614b3f57614b3e614a9e565b5b600182019050919050565b7f4f4e4c595f474f5645524e414e43450000000000000000000000000000000000600082015250565b6000614b80600f836149d7565b9150614b8b82614b4a565b602082019050919050565b60006020820190508181036000830152614baf81614b73565b9050919050565b7f496e697469616c697a61626c653a20636f6e747261637420697320616c72656160008201527f647920696e697469616c697a6564000000000000000000000000000000000000602082015250565b6000614c12602e836149d7565b9150614c1d82614bb6565b604082019050919050565b60006020820190508181036000830152614c4181614c05565b9050919050565b7f43616e6e6f742072656d6f7665206d617267696e207768656e2076757364206260008201527f616c616e6365206973206e656761746976650000000000000000000000000000602082015250565b6000614ca46032836149d7565b9150614caf82614c48565b604082019050919050565b60006020820190508181036000830152614cd381614c97565b9050919050565b7f496e73756666696369656e742062616c616e6365000000000000000000000000600082015250565b6000614d106014836149d7565b9150614d1b82614cda565b602082019050919050565b60006020820190508181036000830152614d3f81614d03565b9050919050565b6000614d51826142db565b9150614d5c836142db565b9250827f800000000000000000000000000000000000000000000000000000000000000001821260008412151615614d9757614d96614a9e565b5b827f7fffffffffffffffffffffffffffffffffffffffffffffffffffffffffffffff018213600084121615614dcf57614dce614a9e565b5b828203905092915050565b600081519050614de9816143f0565b92915050565b600060208284031215614e0557614e046140aa565b5b6000614e1384828501614dda565b91505092915050565b7f4d412e72656d6f76654d617267696e2e42656c6f775f4d4d0000000000000000600082015250565b6000614e526018836149d7565b9150614e5d82614e1c565b602082019050919050565b60006020820190508181036000830152614e8181614e45565b9050919050565b6000604082019050614e9d60008301856144d3565b614eaa60208301846144d3565b9392505050565b600081519050614ec0816142e5565b92915050565b600060208284031215614edc57614edb6140aa565b5b6000614eea84828501614eb1565b91505092915050565b600081519050614f028161411c565b92915050565b60008060408385031215614f1f57614f1e6140aa565b5b6000614f2d85828601614ef3565b9250506020614f3e85828601614eb1565b9150509250929050565b6000614f53826142db565b91507f8000000000000000000000000000000000000000000000000000000000000000821415614f8657614f85614a9e565b5b816000039050919050565b6000614f9c82614112565b9150614fa783614112565b9250817fffffffffffffffffffffffffffffffffffffffffffffffffffffffffffffffff0483118215151615614fe057614fdf614a9e565b5b828202905092915050565b7f4e487b7100000000000000000000000000000000000000000000000000000000600052601260045260246000fd5b600061502582614112565b915061503083614112565b9250826150405761503f614feb565b5b828204905092915050565b600061505682614112565b915061506183614112565b9250827fffffffffffffffffffffffffffffffffffffffffffffffffffffffffffffffff0382111561509657615095614a9e565b5b828201905092915050565b7f416464206e6f6e2d7a65726f206d617267696e00000000000000000000000000600082015250565b60006150d76013836149d7565b91506150e2826150a1565b602082019050919050565b60006020820190508181036000830152615106816150ca565b9050919050565b6000615118826142db565b9150615123836142db565b9250817f7fffffffffffffffffffffffffffffffffffffffffffffffffffffffffffffff0383136000831215161561515e5761515d614a9e565b5b817f800000000000000000000000000000000000000000000000000000000000000003831260008312161561519657615195614a9e565b5b828201905092915050565b7f4d412e73796e63446570732e4c495f47545f31305f70657263656e7400000000600082015250565b60006151d7601c836149d7565b91506151e2826151a1565b602082019050919050565b60006020820190508181036000830152615206816151ca565b9050919050565b60008151905061521c816140e6565b92915050565b600060208284031215615238576152376140aa565b5b60006152468482850161520d565b91505092915050565b7f496e636f72726563742073657475700000000000000000000000000000000000600082015250565b6000615285600f836149d7565b91506152908261524f565b602082019050919050565b600060208201905081810360008301526152b481615278565b9050919050565b7f776569676874203e203165360000000000000000000000000000000000000000600082015250565b60006152f1600c836149d7565b91506152fc826152bb565b602082019050919050565b60006020820190508181036000830152615320816152e4565b9050919050565b7f436f6c6c61746572616c206e6f7420737570706f727465640000000000000000600082015250565b600061535d6018836149d7565b915061536882615327565b602082019050919050565b6000602082019050818103600083015261538c81615350565b9050919050565b7f4f6e6c7920636c656172696e67486f7573650000000000000000000000000000600082015250565b60006153c96012836149d7565b91506153d482615393565b602082019050919050565b600060208201905081810360008301526153f8816153bc565b9050919050565b6000604082019050615414600083018561459a565b61542160208301846144d3565b9392505050565b7f4c697175696461746520706f736974696f6e73206265666f726520736574746c60008201527f696e672062616420646562740000000000000000000000000000000000000000602082015250565b6000615484602c836149d7565b915061548f82615428565b604082019050919050565b600060208201905081810360008301526154b381615477565b9050919050565b7f41626f7665206261642064656274207468726573686f6c640000000000000000600082015250565b60006154f06018836149d7565b91506154fb826154ba565b602082019050919050565b6000602082019050818103600083015261551f816154e3565b9050919050565b7f4e6f7468696e6720746f20726570617900000000000000000000000000000000600082015250565b600061555c6010836149d7565b915061556782615526565b602082019050919050565b6000602082019050818103600083015261558b8161554f565b9050919050565b7f4e487b7100000000000000000000000000000000000000000000000000000000600052604160045260246000fd5b600081519050919050565b600082825260208201905092915050565b6000819050602082019050919050565b60006155f9838361473b565b60208301905092915050565b6000602082019050919050565b600061561d826155c1565b61562781856155cc565b9350615632836155dd565b8060005b8381101561566357815161564a88826155ed565b975061565583615605565b925050600181019050615636565b5085935050505092915050565b6000606082019050818103600083015261568a8186615612565b905061569960208301856144d3565b6156a660408301846144d3565b949350505050565b60006156b9826142db565b91506156c4836142db565b9250827f7fffffffffffffffffffffffffffffffffffffffffffffffffffffffffffffff048211600084136000841316161561570357615702614a9e565b5b817f800000000000000000000000000000000000000000000000000000000000000005831260008412600084131616156157405761573f614a9e565b5b827f8000000000000000000000000000000000000000000000000000000000000000058212600084136000841216161561577d5761577c614a9e565b5b827f7fffffffffffffffffffffffffffffffffffffffffffffffffffffffffffffff05821260008412600084121616156157ba576157b9614a9e565b5b828202905092915050565b60008160011c9050919050565b6000808291508390505b600185111561581c578086048111156157f8576157f7614a9e565b5b60018516156158075780820291505b8081029050615815856157c5565b94506157dc565b94509492505050565b60008261583557600190506158f1565b8161584357600090506158f1565b8160018114615859576002811461586357615892565b60019150506158f1565b60ff84111561587557615874614a9e565b5b8360020a91508482111561588c5761588b614a9e565b5b506158f1565b5060208310610133831016604e8410600b84101617156158c75782820a9050838111156158c2576158c1614a9e565b5b6158f1565b6158d484848460016157d2565b925090508184048111156158eb576158ea614a9e565b5b81810290505b9392505050565b600061590382614112565b915061590e83614112565b925061593b7fffffffffffffffffffffffffffffffffffffffffffffffffffffffffffffffff8484615825565b905092915050565b600061594e826142db565b9150615959836142db565b92508261596957615968614feb565b5b600160000383147f8000000000000000000000000000000000000000000000000000000000000000831416156159a2576159a1614a9e565b5b828205905092915050565b7f636f6c6c61746572616c206e6f74207365697a61626c65000000000000000000600082015250565b60006159e36017836149d7565b91506159ee826159ad565b602082019050919050565b60006020820190508181036000830152615a12816159d6565b9050919050565b7f636f6c6c61746572616c20657869737473000000000000000000000000000000600082015250565b6000615a4f6011836149d7565b9150615a5a82615a19565b602082019050919050565b60006020820190508181036000830152615a7e81615a42565b9050919050565b615a8e8161474a565b8114615a9957600080fd5b50565b600081519050615aab81615a85565b92915050565b600060208284031215615ac757615ac66140aa565b5b6000615ad584828501615a9c565b91505092915050565b7f5061757361626c653a206e6f7420706175736564000000000000000000000000600082015250565b6000615b146014836149d7565b9150615b1f82615ade565b602082019050919050565b60006020820190508181036000830152615b4381615b07565b9050919050565b7f53616665436173743a2076616c756520646f65736e27742066697420696e206160008201527f6e20696e74323536000000000000000000000000000000000000000000000000602082015250565b6000615ba66028836149d7565b9150615bb182615b4a565b604082019050919050565b60006020820190508181036000830152615bd581615b99565b9050919050565b600060208284031215615bf257615bf16140aa565b5b6000615c0084828501614ef3565b91505092915050565b6000604082019050615c1e6000830185614570565b615c2b60208301846144d3565b9392505050565b7f53616665436173743a2076616c7565206d75737420626520706f736974697665600082015250565b6000615c686020836149d7565b9150615c7382615c32565b602082019050919050565b60006020820190508181036000830152615c9781615c5b565b9050919050565b6000606082019050615cb36000830186614570565b615cc06020830185614570565b615ccd60408301846144d3565b949350505050565b7f4e65656420746f207265706179206d6f726520746f207365697a65207468617460008201527f206d756368000000000000000000000000000000000000000000000000000000602082015250565b6000615d316025836149d7565b9150615d3c82615cd5565b604082019050919050565b60006020820190508181036000830152615d6081615d24565b9050919050565b6000615d728261474a565b9150615d7d8361474a565b925082821015615d9057615d8f614a9e565b5b828203905092915050565b7f4e6f74207365697a696e6720656e6f7567680000000000000000000000000000600082015250565b6000615dd16012836149d7565b9150615ddc82615d9b565b602082019050919050565b60006020820190508181036000830152615e0081615dc4565b9050919050565b6000615e1282614112565b9150615e1d8361474a565b9250615e4a7fffffffffffffffffffffffffffffffffffffffffffffffffffffffffffffffff8484615825565b905092915050565b7f5361666545524332303a204552433230206f7065726174696f6e20646964206e60008201527f6f74207375636365656400000000000000000000000000000000000000000000602082015250565b6000615eae602a836149d7565b9150615eb982615e52565b604082019050919050565b60006020820190508181036000830152615edd81615ea1565b9050919050565b6000606082019050615ef960008301866144d3565b615f0660208301856144d3565b615f1360408301846144d3565b949350505050565b7f416464726573733a20696e73756666696369656e742062616c616e636520666f60008201527f722063616c6c0000000000000000000000000000000000000000000000000000602082015250565b6000615f776026836149d7565b9150615f8282615f1b565b604082019050919050565b60006020820190508181036000830152615fa681615f6a565b9050919050565b7f416464726573733a2063616c6c20746f206e6f6e2d636f6e7472616374000000600082015250565b6000615fe3601d836149d7565b9150615fee82615fad565b602082019050919050565b6000602082019050818103600083015261601281615fd6565b9050919050565b600081519050919050565b600081905092915050565b60005b8381101561604d578082015181840152602081019050616032565b8381111561605c576000848401525b50505050565b600061606d82616019565b6160778185616024565b935061608781856020860161602f565b80840191505092915050565b600061609f8284616062565b915081905092915050565b600081519050919050565b6000601f19601f8301169050919050565b60006160d1826160aa565b6160db81856149d7565b93506160eb81856020860161602f565b6160f4816160b5565b840191505092915050565b6000602082019050818103600083015261611981846160c6565b90509291505056fea2646970667358221220bfe53c9930ed68e44cf285234d503ee75427a49bebef0a25574dfbf7779d873364736f6c63430008090033",
  "linkReferences": {},
  "deployedLinkReferences": {}
}