{
  "_format": "hh-sol-artifact-1",
  "contractName": "Ticket",
  "sourceName": "contracts/Ticket.sol",
  "abi": [
    {
      "inputs": [
        {
          "internalType": "string",
          "name": "_name",
          "type": "string"
        },
        {
          "internalType": "string",
          "name": "_symbol",
          "type": "string"
        },
        {
          "internalType": "uint8",
          "name": "decimals_",
          "type": "uint8"
        },
        {
          "internalType": "address",
          "name": "_controller",
          "type": "address"
        }
      ],
      "stateMutability": "nonpayable",
      "type": "constructor"
    },
    {
      "anonymous": false,
      "inputs": [
        {
          "indexed": true,
          "internalType": "address",
          "name": "owner",
          "type": "address"
        },
        {
          "indexed": true,
          "internalType": "address",
          "name": "spender",
          "type": "address"
        },
        {
          "indexed": false,
          "internalType": "uint256",
          "name": "value",
          "type": "uint256"
        }
      ],
      "name": "Approval",
      "type": "event"
    },
    {
      "anonymous": false,
      "inputs": [
        {
          "indexed": true,
          "internalType": "address",
          "name": "delegator",
          "type": "address"
        },
        {
          "indexed": true,
          "internalType": "address",
          "name": "delegate",
          "type": "address"
        }
      ],
      "name": "Delegated",
      "type": "event"
    },
    {
      "anonymous": false,
      "inputs": [
        {
          "indexed": false,
          "internalType": "string",
          "name": "name",
          "type": "string"
        },
        {
          "indexed": false,
          "internalType": "string",
          "name": "symbol",
          "type": "string"
        },
        {
          "indexed": false,
          "internalType": "uint8",
          "name": "decimals",
          "type": "uint8"
        },
        {
          "indexed": true,
          "internalType": "address",
          "name": "controller",
          "type": "address"
        }
      ],
      "name": "Deployed",
      "type": "event"
    },
    {
      "anonymous": false,
      "inputs": [
        {
          "components": [
            {
              "internalType": "uint224",
              "name": "amount",
              "type": "uint224"
            },
            {
              "internalType": "uint32",
              "name": "timestamp",
              "type": "uint32"
            }
          ],
          "indexed": false,
          "internalType": "struct ObservationLib.Observation",
          "name": "newTotalSupplyTwab",
          "type": "tuple"
        }
      ],
      "name": "NewTotalSupplyTwab",
      "type": "event"
    },
    {
      "anonymous": false,
      "inputs": [
        {
          "indexed": true,
          "internalType": "address",
          "name": "delegate",
          "type": "address"
        },
        {
          "components": [
            {
              "internalType": "uint224",
              "name": "amount",
              "type": "uint224"
            },
            {
              "internalType": "uint32",
              "name": "timestamp",
              "type": "uint32"
            }
          ],
          "indexed": false,
          "internalType": "struct ObservationLib.Observation",
          "name": "newTwab",
          "type": "tuple"
        }
      ],
      "name": "NewUserTwab",
      "type": "event"
    },
    {
      "anonymous": false,
      "inputs": [
        {
          "indexed": false,
          "internalType": "string",
          "name": "name",
          "type": "string"
        },
        {
          "indexed": false,
          "internalType": "string",
          "name": "symbol",
          "type": "string"
        },
        {
          "indexed": false,
          "internalType": "uint8",
          "name": "decimals",
          "type": "uint8"
        },
        {
          "indexed": true,
          "internalType": "address",
          "name": "controller",
          "type": "address"
        }
      ],
      "name": "TicketInitialized",
      "type": "event"
    },
    {
      "anonymous": false,
      "inputs": [
        {
          "indexed": true,
          "internalType": "address",
          "name": "from",
          "type": "address"
        },
        {
          "indexed": true,
          "internalType": "address",
          "name": "to",
          "type": "address"
        },
        {
          "indexed": false,
          "internalType": "uint256",
          "name": "value",
          "type": "uint256"
        }
      ],
      "name": "Transfer",
      "type": "event"
    },
    {
      "inputs": [],
      "name": "DOMAIN_SEPARATOR",
      "outputs": [
        {
          "internalType": "bytes32",
          "name": "",
          "type": "bytes32"
        }
      ],
      "stateMutability": "view",
      "type": "function"
    },
    {
      "inputs": [
        {
          "internalType": "address",
          "name": "owner",
          "type": "address"
        },
        {
          "internalType": "address",
          "name": "spender",
          "type": "address"
        }
      ],
      "name": "allowance",
      "outputs": [
        {
          "internalType": "uint256",
          "name": "",
          "type": "uint256"
        }
      ],
      "stateMutability": "view",
      "type": "function"
    },
    {
      "inputs": [
        {
          "internalType": "address",
          "name": "spender",
          "type": "address"
        },
        {
          "internalType": "uint256",
          "name": "amount",
          "type": "uint256"
        }
      ],
      "name": "approve",
      "outputs": [
        {
          "internalType": "bool",
          "name": "",
          "type": "bool"
        }
      ],
      "stateMutability": "nonpayable",
      "type": "function"
    },
    {
      "inputs": [
        {
          "internalType": "address",
          "name": "account",
          "type": "address"
        }
      ],
      "name": "balanceOf",
      "outputs": [
        {
          "internalType": "uint256",
          "name": "",
          "type": "uint256"
        }
      ],
      "stateMutability": "view",
      "type": "function"
    },
    {
      "inputs": [],
      "name": "controller",
      "outputs": [
        {
          "internalType": "address",
          "name": "",
          "type": "address"
        }
      ],
      "stateMutability": "view",
      "type": "function"
    },
    {
      "inputs": [
        {
          "internalType": "address",
          "name": "_user",
          "type": "address"
        },
        {
          "internalType": "uint256",
          "name": "_amount",
          "type": "uint256"
        }
      ],
      "name": "controllerBurn",
      "outputs": [],
      "stateMutability": "nonpayable",
      "type": "function"
    },
    {
      "inputs": [
        {
          "internalType": "address",
          "name": "_operator",
          "type": "address"
        },
        {
          "internalType": "address",
          "name": "_user",
          "type": "address"
        },
        {
          "internalType": "uint256",
          "name": "_amount",
          "type": "uint256"
        }
      ],
      "name": "controllerBurnFrom",
      "outputs": [],
      "stateMutability": "nonpayable",
      "type": "function"
    },
    {
      "inputs": [
        {
          "internalType": "address",
          "name": "_user",
          "type": "address"
        },
        {
          "internalType": "address",
          "name": "_to",
          "type": "address"
        }
      ],
      "name": "controllerDelegateFor",
      "outputs": [],
      "stateMutability": "nonpayable",
      "type": "function"
    },
    {
      "inputs": [
        {
          "internalType": "address",
          "name": "_user",
          "type": "address"
        },
        {
          "internalType": "uint256",
          "name": "_amount",
          "type": "uint256"
        }
      ],
      "name": "controllerMint",
      "outputs": [],
      "stateMutability": "nonpayable",
      "type": "function"
    },
    {
      "inputs": [],
      "name": "decimals",
      "outputs": [
        {
          "internalType": "uint8",
          "name": "",
          "type": "uint8"
        }
      ],
      "stateMutability": "view",
      "type": "function"
    },
    {
      "inputs": [
        {
          "internalType": "address",
          "name": "spender",
          "type": "address"
        },
        {
          "internalType": "uint256",
          "name": "subtractedValue",
          "type": "uint256"
        }
      ],
      "name": "decreaseAllowance",
      "outputs": [
        {
          "internalType": "bool",
          "name": "",
          "type": "bool"
        }
      ],
      "stateMutability": "nonpayable",
      "type": "function"
    },
    {
      "inputs": [
        {
          "internalType": "address",
          "name": "_to",
          "type": "address"
        }
      ],
      "name": "delegate",
      "outputs": [],
      "stateMutability": "nonpayable",
      "type": "function"
    },
    {
      "inputs": [
        {
          "internalType": "address",
          "name": "_user",
          "type": "address"
        }
      ],
      "name": "delegateOf",
      "outputs": [
        {
          "internalType": "address",
          "name": "",
          "type": "address"
        }
      ],
      "stateMutability": "view",
      "type": "function"
    },
    {
      "inputs": [
        {
          "internalType": "address",
          "name": "_user",
          "type": "address"
        },
        {
          "internalType": "address",
          "name": "_newDelegate",
          "type": "address"
        },
        {
          "internalType": "uint256",
          "name": "_deadline",
          "type": "uint256"
        },
        {
          "internalType": "uint8",
          "name": "_v",
          "type": "uint8"
        },
        {
          "internalType": "bytes32",
          "name": "_r",
          "type": "bytes32"
        },
        {
          "internalType": "bytes32",
          "name": "_s",
          "type": "bytes32"
        }
      ],
      "name": "delegateWithSignature",
      "outputs": [],
      "stateMutability": "nonpayable",
      "type": "function"
    },
    {
      "inputs": [
        {
          "internalType": "address",
          "name": "_user",
          "type": "address"
        }
      ],
      "name": "getAccountDetails",
      "outputs": [
        {
          "components": [
            {
              "internalType": "uint208",
              "name": "balance",
              "type": "uint208"
            },
            {
              "internalType": "uint24",
              "name": "nextTwabIndex",
              "type": "uint24"
            },
            {
              "internalType": "uint24",
              "name": "cardinality",
              "type": "uint24"
            }
          ],
          "internalType": "struct TwabLib.AccountDetails",
          "name": "",
          "type": "tuple"
        }
      ],
      "stateMutability": "view",
      "type": "function"
    },
    {
      "inputs": [
        {
          "internalType": "address",
          "name": "_user",
          "type": "address"
        },
        {
          "internalType": "uint64",
          "name": "_startTime",
          "type": "uint64"
        },
        {
          "internalType": "uint64",
          "name": "_endTime",
          "type": "uint64"
        }
      ],
      "name": "getAverageBalanceBetween",
      "outputs": [
        {
          "internalType": "uint256",
          "name": "",
          "type": "uint256"
        }
      ],
      "stateMutability": "view",
      "type": "function"
    },
    {
      "inputs": [
        {
          "internalType": "address",
          "name": "_user",
          "type": "address"
        },
        {
          "internalType": "uint64[]",
          "name": "_startTimes",
          "type": "uint64[]"
        },
        {
          "internalType": "uint64[]",
          "name": "_endTimes",
          "type": "uint64[]"
        }
      ],
      "name": "getAverageBalancesBetween",
      "outputs": [
        {
          "internalType": "uint256[]",
          "name": "",
          "type": "uint256[]"
        }
      ],
      "stateMutability": "view",
      "type": "function"
    },
    {
      "inputs": [
        {
          "internalType": "uint64[]",
          "name": "_startTimes",
          "type": "uint64[]"
        },
        {
          "internalType": "uint64[]",
          "name": "_endTimes",
          "type": "uint64[]"
        }
      ],
      "name": "getAverageTotalSuppliesBetween",
      "outputs": [
        {
          "internalType": "uint256[]",
          "name": "",
          "type": "uint256[]"
        }
      ],
      "stateMutability": "view",
      "type": "function"
    },
    {
      "inputs": [
        {
          "internalType": "address",
          "name": "_user",
          "type": "address"
        },
        {
          "internalType": "uint64",
          "name": "_target",
          "type": "uint64"
        }
      ],
      "name": "getBalanceAt",
      "outputs": [
        {
          "internalType": "uint256",
          "name": "",
          "type": "uint256"
        }
      ],
      "stateMutability": "view",
      "type": "function"
    },
    {
      "inputs": [
        {
          "internalType": "address",
          "name": "_user",
          "type": "address"
        },
        {
          "internalType": "uint64[]",
          "name": "_targets",
          "type": "uint64[]"
        }
      ],
      "name": "getBalancesAt",
      "outputs": [
        {
          "internalType": "uint256[]",
          "name": "",
          "type": "uint256[]"
        }
      ],
      "stateMutability": "view",
      "type": "function"
    },
    {
      "inputs": [
        {
          "internalType": "uint64[]",
          "name": "_targets",
          "type": "uint64[]"
        }
      ],
      "name": "getTotalSuppliesAt",
      "outputs": [
        {
          "internalType": "uint256[]",
          "name": "",
          "type": "uint256[]"
        }
      ],
      "stateMutability": "view",
      "type": "function"
    },
    {
      "inputs": [
        {
          "internalType": "uint64",
          "name": "_target",
          "type": "uint64"
        }
      ],
      "name": "getTotalSupplyAt",
      "outputs": [
        {
          "internalType": "uint256",
          "name": "",
          "type": "uint256"
        }
      ],
      "stateMutability": "view",
      "type": "function"
    },
    {
      "inputs": [
        {
          "internalType": "address",
          "name": "_user",
          "type": "address"
        },
        {
          "internalType": "uint16",
          "name": "_index",
          "type": "uint16"
        }
      ],
      "name": "getTwab",
      "outputs": [
        {
          "components": [
            {
              "internalType": "uint224",
              "name": "amount",
              "type": "uint224"
            },
            {
              "internalType": "uint32",
              "name": "timestamp",
              "type": "uint32"
            }
          ],
          "internalType": "struct ObservationLib.Observation",
          "name": "",
          "type": "tuple"
        }
      ],
      "stateMutability": "view",
      "type": "function"
    },
    {
      "inputs": [
        {
          "internalType": "address",
          "name": "spender",
          "type": "address"
        },
        {
          "internalType": "uint256",
          "name": "addedValue",
          "type": "uint256"
        }
      ],
      "name": "increaseAllowance",
      "outputs": [
        {
          "internalType": "bool",
          "name": "",
          "type": "bool"
        }
      ],
      "stateMutability": "nonpayable",
      "type": "function"
    },
    {
      "inputs": [],
      "name": "name",
      "outputs": [
        {
          "internalType": "string",
          "name": "",
          "type": "string"
        }
      ],
      "stateMutability": "view",
      "type": "function"
    },
    {
      "inputs": [
        {
          "internalType": "address",
          "name": "owner",
          "type": "address"
        }
      ],
      "name": "nonces",
      "outputs": [
        {
          "internalType": "uint256",
          "name": "",
          "type": "uint256"
        }
      ],
      "stateMutability": "view",
      "type": "function"
    },
    {
      "inputs": [
        {
          "internalType": "address",
          "name": "owner",
          "type": "address"
        },
        {
          "internalType": "address",
          "name": "spender",
          "type": "address"
        },
        {
          "internalType": "uint256",
          "name": "value",
          "type": "uint256"
        },
        {
          "internalType": "uint256",
          "name": "deadline",
          "type": "uint256"
        },
        {
          "internalType": "uint8",
          "name": "v",
          "type": "uint8"
        },
        {
          "internalType": "bytes32",
          "name": "r",
          "type": "bytes32"
        },
        {
          "internalType": "bytes32",
          "name": "s",
          "type": "bytes32"
        }
      ],
      "name": "permit",
      "outputs": [],
      "stateMutability": "nonpayable",
      "type": "function"
    },
    {
      "inputs": [],
      "name": "symbol",
      "outputs": [
        {
          "internalType": "string",
          "name": "",
          "type": "string"
        }
      ],
      "stateMutability": "view",
      "type": "function"
    },
    {
      "inputs": [],
      "name": "totalSupply",
      "outputs": [
        {
          "internalType": "uint256",
          "name": "",
          "type": "uint256"
        }
      ],
      "stateMutability": "view",
      "type": "function"
    },
    {
      "inputs": [
        {
          "internalType": "address",
          "name": "recipient",
          "type": "address"
        },
        {
          "internalType": "uint256",
          "name": "amount",
          "type": "uint256"
        }
      ],
      "name": "transfer",
      "outputs": [
        {
          "internalType": "bool",
          "name": "",
          "type": "bool"
        }
      ],
      "stateMutability": "nonpayable",
      "type": "function"
    },
    {
      "inputs": [
        {
          "internalType": "address",
          "name": "sender",
          "type": "address"
        },
        {
          "internalType": "address",
          "name": "recipient",
          "type": "address"
        },
        {
          "internalType": "uint256",
          "name": "amount",
          "type": "uint256"
        }
      ],
      "name": "transferFrom",
      "outputs": [
        {
          "internalType": "bool",
          "name": "",
          "type": "bool"
        }
      ],
      "stateMutability": "nonpayable",
      "type": "function"
    }
  ],
  "bytecode": "0x6101806040527f6e71edae12b1b97f4d1f60370fef10105fa2faae0126114a169c64845d6126c9610120527f94019368dc6b2ee4ac32010c9d0081ec29874325b541829d001d22c296b5246c610160523480156200005c57600080fd5b5060405162003c7438038062003c748339810160408190526200007f9162000427565b838383836040518060400160405280601c81526020017f506f6f6c546f67657468657220436f6e74726f6c6c6564546f6b656e0000000081525080604051806040016040528060018152602001603160f81b81525086868160039080519060200190620000ee929190620002f0565b50805162000104906004906020840190620002f0565b5050825160209384012082519284019290922060c083815260e08290524660a0818152604080517f8b73c3c69bb8fe3d512ecc4cf759cc79239f7b179b0ffacaa9a75d522b39400f818a018190528183019890985260608101959095526080808601939093523085830152805180860390920182529390920190925280519401939093209092526101005250506001600160a01b038116620002015760405162461bcd60e51b815260206004820152602b60248201527f436f6e74726f6c6c6564546f6b656e2f636f6e74726f6c6c65722d6e6f742d7a60448201526a65726f2d6164647265737360a81b60648201526084015b60405180910390fd5b600680546001600160a01b0319166001600160a01b03831617905560ff82166200026e5760405162461bcd60e51b815260206004820181905260248201527f436f6e74726f6c6c6564546f6b656e2f646563696d616c732d67742d7a65726f6044820152606401620001f8565b7fff0000000000000000000000000000000000000000000000000000000000000060f883901b16610140526040516001600160a01b038216907fde72fc29218361f33503847e6f32be813f9ec92fc7c772bb59e46675c890fd0e90620002da90879087908790620004f9565b60405180910390a25050505050505050620005bc565b828054620002fe9062000569565b90600052602060002090601f0160209004810192826200032257600085556200036d565b82601f106200033d57805160ff19168380011785556200036d565b828001600101855582156200036d579182015b828111156200036d57825182559160200191906001019062000350565b506200037b9291506200037f565b5090565b5b808211156200037b576000815560010162000380565b600082601f830112620003a857600080fd5b81516001600160401b0380821115620003c557620003c5620005a6565b604051601f8301601f19908116603f01168101908282118183101715620003f057620003f0620005a6565b816040528381528660208588010111156200040a57600080fd5b6200041d84602083016020890162000536565b9695505050505050565b600080600080608085870312156200043e57600080fd5b84516001600160401b03808211156200045657600080fd5b620004648883890162000396565b955060208701519150808211156200047b57600080fd5b506200048a8782880162000396565b935050604085015160ff81168114620004a257600080fd5b60608601519092506001600160a01b0381168114620004c057600080fd5b939692955090935050565b60008151808452620004e581602086016020860162000536565b601f01601f19169290920160200192915050565b6060815260006200050e6060830186620004cb565b8281036020840152620005228186620004cb565b91505060ff83166040830152949350505050565b60005b838110156200055357818101518382015260200162000539565b8381111562000563576000848401525b50505050565b600181811c908216806200057e57607f821691505b60208210811415620005a057634e487b7160e01b600052602260045260246000fd5b50919050565b634e487b7160e01b600052604160045260246000fd5b60805160a05160c05160e05161010051610120516101405160f81c6101605161364f620006256000396000610cd40152600061031b01526000610ff9015260006115dd0152600061162c015260006116070152600061158b015260006115b4015261364f6000f3fe608060405234801561001057600080fd5b50600436106101e55760003560e01c806368c7fd571161010f57806395d89b41116100a2578063a9059cbb11610071578063a9059cbb1461052e578063d505accf14610541578063dd62ed3e14610554578063f77c47911461058d57600080fd5b806395d89b41146104ed57806398b16f36146104f55780639ecb037014610508578063a457c2d71461051b57600080fd5b80638d22ea2a116100de5780638d22ea2a1461046d5780638e6d536a146104b457806390596dd1146104c7578063919974dc146104da57600080fd5b806368c7fd571461040b57806370a082311461041e5780637ecebe001461044757806385beb5f11461045a57600080fd5b806333e39b61116101875780635c19a95c116101565780635c19a95c146103b25780635d7b0758146103c5578063613ed6bd146103d8578063631b5dfb146103f857600080fd5b806333e39b61146103455780633644e5151461035a57806336bb2a3814610362578063395093511461039f57600080fd5b806323b872dd116101c357806323b872dd1461023d5780632aceb534146102505780632d0dd68614610301578063313ce5671461031457600080fd5b806306fdde03146101ea578063095ea7b31461020857806318160ddd1461022b575b600080fd5b6101f26105a0565b6040516101ff91906132fe565b60405180910390f35b61021b61021636600461315a565b610632565b60405190151581526020016101ff565b6002545b6040519081526020016101ff565b61021b61024b366004612f43565b610649565b6102c961025e366004612ef5565b6040805160608082018352600080835260208084018290529284018190526001600160a01b03949094168452600782529282902082519384018352546001600160d01b038116845262ffffff600160d01b8204811692850192909252600160e81b9004169082015290565b6040805182516001600160d01b0316815260208084015162ffffff9081169183019190915292820151909216908201526060016101ff565b61022f61030f36600461329f565b61070f565b60405160ff7f00000000000000000000000000000000000000000000000000000000000000001681526020016101ff565b610358610353366004612f10565b61075b565b005b61022f6107c3565b61037561037036600461311c565b6107d2565b6040805182516001600160e01b0316815260209283015163ffffffff1692810192909252016101ff565b61021b6103ad36600461315a565b61084a565b6103586103c0366004612ef5565b610886565b6103586103d336600461315a565b610893565b6103eb6103e6366004613048565b6108f7565b6040516101ff91906132ba565b610358610406366004612f43565b610a13565b6103eb61041936600461309b565b610ace565b61022f61042c366004612ef5565b6001600160a01b031660009081526020819052604090205490565b61022f610455366004612ef5565b610b00565b6103eb6104683660046131f1565b610b1e565b61049c61047b366004612ef5565b6001600160a01b039081166000908152630100000860205260409020541690565b6040516001600160a01b0390911681526020016101ff565b6103eb6104c2366004613233565b610c01565b6103586104d536600461315a565b610c1c565b6103586104e8366004612fe9565b610c80565b6101f2610e00565b61022f6105033660046131ae565b610e0f565b61022f610516366004613184565b610e80565b61021b61052936600461315a565b610ee7565b61021b61053c36600461315a565b610f98565b61035861054f366004612f7f565b610fa5565b61022f610562366004612f10565b6001600160a01b03918216600090815260016020908152604080832093909416825291909152205490565b60065461049c906001600160a01b031681565b6060600380546105af906134db565b80601f01602080910402602001604051908101604052809291908181526020018280546105db906134db565b80156106285780601f106105fd57610100808354040283529160200191610628565b820191906000526020600020905b81548152906001019060200180831161060b57829003601f168201915b5050505050905090565b600061063f338484611109565b5060015b92915050565b6000610656848484611261565b6001600160a01b0384166000908152600160209081526040808320338452909152902054828110156106f55760405162461bcd60e51b815260206004820152602860248201527f45524332303a207472616e7366657220616d6f756e742065786365656473206160448201527f6c6c6f77616e636500000000000000000000000000000000000000000000000060648201526084015b60405180910390fd5b6107028533858403611109565b60019150505b9392505050565b604080516060810182526008546001600160d01b038116825262ffffff600160d01b820481166020840152600160e81b9091041691810191909152600090610643906009908442611485565b6006546001600160a01b031633146107b55760405162461bcd60e51b815260206004820152601f60248201527f436f6e74726f6c6c6564546f6b656e2f6f6e6c792d636f6e74726f6c6c65720060448201526064016106ec565b6107bf82826114b1565b5050565b60006107cd611587565b905090565b60408051808201909152600080825260208201526001600160a01b038316600090815260076020526040902060010161ffff831662ffffff81106108185761081861359f565b604080518082019091529101546001600160e01b0381168252600160e01b900463ffffffff1660208201529392505050565b3360008181526001602090815260408083206001600160a01b0387168452909152812054909161063f9185906108819086906133be565b611109565b61089033826114b1565b50565b6006546001600160a01b031633146108ed5760405162461bcd60e51b815260206004820152601f60248201527f436f6e74726f6c6c6564546f6b656e2f6f6e6c792d636f6e74726f6c6c65720060448201526064016106ec565b6107bf828261167a565b60608160008167ffffffffffffffff811115610915576109156135b5565b60405190808252806020026020018201604052801561093e578160200160208202803683370190505b506001600160a01b0387166000908152600760209081526040808320815160608101835281546001600160d01b038116825262ffffff600160d01b8204811695830195909552600160e81b900490931691830191909152929350905b84811015610a06576109d783600101838a8a858181106109bc576109bc61359f565b90506020020160208101906109d1919061329f565b42611485565b8482815181106109e9576109e961359f565b6020908102919091010152806109fe81613510565b91505061099a565b5091979650505050505050565b6006546001600160a01b03163314610a6d5760405162461bcd60e51b815260206004820152601f60248201527f436f6e74726f6c6c6564546f6b656e2f6f6e6c792d636f6e74726f6c6c65720060448201526064016106ec565b816001600160a01b0316836001600160a01b031614610abf576001600160a01b03828116600090815260016020908152604080832093871683529290522054610abf90839085906108819085906134a7565b610ac98282611765565b505050565b6001600160a01b0385166000908152600760205260409020606090610af690868686866118f6565b9695505050505050565b6001600160a01b038116600090815260056020526040812054610643565b60608160008167ffffffffffffffff811115610b3c57610b3c6135b5565b604051908082528060200260200182016040528015610b65578160200160208202803683370190505b50604080516060810182526008546001600160d01b038116825262ffffff600160d01b820481166020840152600160e81b909104169181019190915290915060005b83811015610bf657610bc76009838989858181106109bc576109bc61359f565b838281518110610bd957610bd961359f565b602090810291909101015280610bee81613510565b915050610ba7565b509095945050505050565b6060610c116008868686866118f6565b90505b949350505050565b6006546001600160a01b03163314610c765760405162461bcd60e51b815260206004820152601f60248201527f436f6e74726f6c6c6564546f6b656e2f6f6e6c792d636f6e74726f6c6c65720060448201526064016106ec565b6107bf8282611765565b83421115610cd05760405162461bcd60e51b815260206004820181905260248201527f5469636b65742f64656c65676174652d657870697265642d646561646c696e6560448201526064016106ec565b60007f00000000000000000000000000000000000000000000000000000000000000008787610cfe8a611a93565b6040805160208101959095526001600160a01b039384169085015291166060830152608082015260a0810186905260c0016040516020818303038152906040528051906020012090506000610d5282611abb565b90506000610d6282878787611b24565b9050886001600160a01b0316816001600160a01b031614610deb5760405162461bcd60e51b815260206004820152602160248201527f5469636b65742f64656c65676174652d696e76616c69642d7369676e6174757260448201527f650000000000000000000000000000000000000000000000000000000000000060648201526084016106ec565b610df589896114b1565b505050505050505050565b6060600480546105af906134db565b6001600160a01b0383166000908152600760209081526040808320815160608101835281546001600160d01b038116825262ffffff600160d01b8204811695830195909552600160e81b90049093169183019190915290610e77906001830190868642611b4c565b95945050505050565b6001600160a01b0382166000908152600760209081526040808320815160608101835281546001600160d01b038116825262ffffff600160d01b8204811695830195909552600160e81b90049093169183019190915290610c149060018301908542611485565b3360009081526001602090815260408083206001600160a01b038616845290915281205482811015610f815760405162461bcd60e51b815260206004820152602560248201527f45524332303a2064656372656173656420616c6c6f77616e63652062656c6f7760448201527f207a65726f00000000000000000000000000000000000000000000000000000060648201526084016106ec565b610f8e3385858403611109565b5060019392505050565b600061063f338484611261565b83421115610ff55760405162461bcd60e51b815260206004820152601d60248201527f45524332305065726d69743a206578706972656420646561646c696e6500000060448201526064016106ec565b60007f00000000000000000000000000000000000000000000000000000000000000008888886110248c611a93565b6040805160208101969096526001600160a01b0394851690860152929091166060840152608083015260a082015260c0810186905260e001604051602081830303815290604052805190602001209050600061107f82611abb565b9050600061108f82878787611b24565b9050896001600160a01b0316816001600160a01b0316146110f25760405162461bcd60e51b815260206004820152601e60248201527f45524332305065726d69743a20696e76616c6964207369676e6174757265000060448201526064016106ec565b6110fd8a8a8a611109565b50505050505050505050565b6001600160a01b0383166111845760405162461bcd60e51b8152602060048201526024808201527f45524332303a20617070726f76652066726f6d20746865207a65726f2061646460448201527f726573730000000000000000000000000000000000000000000000000000000060648201526084016106ec565b6001600160a01b0382166112005760405162461bcd60e51b815260206004820152602260248201527f45524332303a20617070726f766520746f20746865207a65726f20616464726560448201527f737300000000000000000000000000000000000000000000000000000000000060648201526084016106ec565b6001600160a01b0383811660008181526001602090815260408083209487168084529482529182902085905590518481527f8c5be1e5ebec7d5bd14f71427d1e84f3dd0314c0f7b2291e5b200ac8c7c3b925910160405180910390a3505050565b6001600160a01b0383166112dd5760405162461bcd60e51b815260206004820152602560248201527f45524332303a207472616e736665722066726f6d20746865207a65726f20616460448201527f647265737300000000000000000000000000000000000000000000000000000060648201526084016106ec565b6001600160a01b0382166113595760405162461bcd60e51b815260206004820152602360248201527f45524332303a207472616e7366657220746f20746865207a65726f206164647260448201527f657373000000000000000000000000000000000000000000000000000000000060648201526084016106ec565b611364838383611b84565b6001600160a01b038316600090815260208190526040902054818110156113f35760405162461bcd60e51b815260206004820152602660248201527f45524332303a207472616e7366657220616d6f756e742065786365656473206260448201527f616c616e6365000000000000000000000000000000000000000000000000000060648201526084016106ec565b6001600160a01b0380851660009081526020819052604080822085850390559185168152908120805484929061142a9084906133be565b92505081905550826001600160a01b0316846001600160a01b03167fddf252ad1be2c89b69c2b068fc378daa952ba7f163c4a11628f55a4df523b3ef8460405161147691815260200190565b60405180910390a35b50505050565b6000808263ffffffff168463ffffffff16116114a157836114a3565b825b9050610af686868386611c17565b6001600160a01b038281166000908152602081815260408083205463010000089092529091205490919081169083168114156114ed5750505050565b6001600160a01b03848116600090815263010000086020526040902080547fffffffffffffffffffffffff000000000000000000000000000000000000000016918516919091179055611541818484611d30565b826001600160a01b0316846001600160a01b03167f4bc154dd35d6a5cb9206482ecb473cdbf2473006d6bce728b9cc0741bcc59ea260405160405180910390a350505050565b60007f00000000000000000000000000000000000000000000000000000000000000004614156115d657507f000000000000000000000000000000000000000000000000000000000000000090565b50604080517f00000000000000000000000000000000000000000000000000000000000000006020808301919091527f0000000000000000000000000000000000000000000000000000000000000000828401527f000000000000000000000000000000000000000000000000000000000000000060608301524660808301523060a0808401919091528351808403909101815260c0909201909252805191012090565b6001600160a01b0382166116d05760405162461bcd60e51b815260206004820152601f60248201527f45524332303a206d696e7420746f20746865207a65726f20616464726573730060448201526064016106ec565b6116dc60008383611b84565b80600260008282546116ee91906133be565b90915550506001600160a01b0382166000908152602081905260408120805483929061171b9084906133be565b90915550506040518181526001600160a01b038316906000907fddf252ad1be2c89b69c2b068fc378daa952ba7f163c4a11628f55a4df523b3ef9060200160405180910390a35050565b6001600160a01b0382166117e15760405162461bcd60e51b815260206004820152602160248201527f45524332303a206275726e2066726f6d20746865207a65726f2061646472657360448201527f730000000000000000000000000000000000000000000000000000000000000060648201526084016106ec565b6117ed82600083611b84565b6001600160a01b0382166000908152602081905260409020548181101561187c5760405162461bcd60e51b815260206004820152602260248201527f45524332303a206275726e20616d6f756e7420657863656564732062616c616e60448201527f636500000000000000000000000000000000000000000000000000000000000060648201526084016106ec565b6001600160a01b03831660009081526020819052604081208383039055600280548492906118ab9084906134a7565b90915550506040518281526000906001600160a01b038516907fddf252ad1be2c89b69c2b068fc378daa952ba7f163c4a11628f55a4df523b3ef9060200160405180910390a3505050565b606083821461196d5760405162461bcd60e51b815260206004820152602360248201527f5469636b65742f73746172742d656e642d74696d65732d6c656e6774682d6d6160448201527f746368000000000000000000000000000000000000000000000000000000000060648201526084016106ec565b6040805160608101825287546001600160d01b038116825262ffffff600160d01b820481166020840152600160e81b909104169181019190915260008567ffffffffffffffff8111156119c2576119c26135b5565b6040519080825280602002602001820160405280156119eb578160200160208202803683370190505b5090504260005b87811015611a8557611a568a600101858b8b85818110611a1457611a1461359f565b9050602002016020810190611a29919061329f565b8a8a86818110611a3b57611a3b61359f565b9050602002016020810190611a50919061329f565b86611b4c565b838281518110611a6857611a6861359f565b602090810291909101015280611a7d81613510565b9150506119f2565b509098975050505050505050565b6001600160a01b03811660009081526005602052604090208054600181018255905b50919050565b6000610643611ac8611587565b836040517f19010000000000000000000000000000000000000000000000000000000000006020820152602281018390526042810182905260009060620160405160208183030381529060405280519060200120905092915050565b6000806000611b3587878787611dc1565b91509150611b4281611eae565b5095945050505050565b6000808263ffffffff168463ffffffff1611611b685783611b6a565b825b9050611b79878787848761209f565b979650505050505050565b816001600160a01b0316836001600160a01b03161415611ba357505050565b60006001600160a01b03841615611bd457506001600160a01b03808416600090815263010000086020526040902054165b60006001600160a01b03841615611c0557506001600160a01b03808416600090815263010000086020526040902054165b611c10828285611d30565b5050505050565b604080518082019091526000808252602082018190529081906040805180820190915260008082526020820152611c4e888861213b565b60208101519194509150611c6f9063ffffffff90811690889088906121bb16565b15611c8a57505084516001600160d01b03169150610c149050565b6000611c96898961228c565b6020810151909350909150611cb79063ffffffff808a169190899061230916565b15611cc9576000945050505050610c14565b611cdb8985838a8c604001518b6123d8565b8094508193505050611cf683602001518360200151886125a5565b63ffffffff1682600001518460000151611d109190613487565b611d1a91906133f6565b6001600160e01b03169998505050505050505050565b6001600160a01b038316158015611d4f57506001600160a01b03821615155b15611d6257611d5d8161266f565b611d8f565b6001600160a01b03831615801590611d8157506001600160a01b038216155b15611d8f57611d8f8161276f565b6001600160a01b03831615611da857611da883826127a9565b6001600160a01b03821615610ac957610ac982826128e1565b6000807f7fffffffffffffffffffffffffffffff5d576e7357a4501ddfe92f46681b20a0831115611df85750600090506003611ea5565b8460ff16601b14158015611e1057508460ff16601c14155b15611e215750600090506004611ea5565b6040805160008082526020820180845289905260ff881692820192909252606081018690526080810185905260019060a0016020604051602081039080840390855afa158015611e75573d6000803e3d6000fd5b5050604051601f1901519150506001600160a01b038116611e9e57600060019250925050611ea5565b9150600090505b94509492505050565b6000816004811115611ec257611ec2613589565b1415611ecb5750565b6001816004811115611edf57611edf613589565b1415611f2d5760405162461bcd60e51b815260206004820152601860248201527f45434453413a20696e76616c6964207369676e6174757265000000000000000060448201526064016106ec565b6002816004811115611f4157611f41613589565b1415611f8f5760405162461bcd60e51b815260206004820152601f60248201527f45434453413a20696e76616c6964207369676e6174757265206c656e6774680060448201526064016106ec565b6003816004811115611fa357611fa3613589565b14156120175760405162461bcd60e51b815260206004820152602260248201527f45434453413a20696e76616c6964207369676e6174757265202773272076616c60448201527f756500000000000000000000000000000000000000000000000000000000000060648201526084016106ec565b600481600481111561202b5761202b613589565b14156108905760405162461bcd60e51b815260206004820152602260248201527f45434453413a20696e76616c6964207369676e6174757265202776272076616c60448201527f756500000000000000000000000000000000000000000000000000000000000060648201526084016106ec565b60008060006120ae888861228c565b915091506000806120bf8a8a61213b565b9150915060006120d58b8b8487878a8f8e612912565b905060006120e98c8c8588888b8f8f612912565b90506120fe816020015183602001518a6125a5565b63ffffffff16826000015182600001516121189190613487565b61212291906133f6565b6001600160e01b03169c9b505050505050505050505050565b604080518082019091526000808252602082018190529061216a836020015162ffffff1662ffffff8016612a5c565b9150838262ffffff1662ffffff81106121855761218561359f565b604080518082019091529101546001600160e01b0381168252600160e01b900463ffffffff166020820152919491935090915050565b60008163ffffffff168463ffffffff16111580156121e557508163ffffffff168363ffffffff1611155b15612201578263ffffffff168463ffffffff1611159050610708565b60008263ffffffff168563ffffffff16116122305761222b63ffffffff86166401000000006133d6565b612238565b8463ffffffff165b64ffffffffff16905060008363ffffffff168563ffffffff16116122705761226b63ffffffff86166401000000006133d6565b612278565b8463ffffffff165b64ffffffffff169091111595945050505050565b604080518082019091526000808252602082018190529082602001519150838262ffffff1662ffffff81106122c3576122c361359f565b604080518082019091529101546001600160e01b0381168252600160e01b900463ffffffff166020820181905290915061230257600091508382612185565b9250929050565b60008163ffffffff168463ffffffff161115801561233357508163ffffffff168363ffffffff1611155b1561234e578263ffffffff168463ffffffff16109050610708565b60008263ffffffff168563ffffffff161161237d5761237863ffffffff86166401000000006133d6565b612385565b8463ffffffff165b64ffffffffff16905060008363ffffffff168563ffffffff16116123bd576123b863ffffffff86166401000000006133d6565b6123c5565b8463ffffffff165b64ffffffffff1690911095945050505050565b6040805180820190915260008082526020820152604080518082019091526000808252602082015260008662ffffff1690506000818962ffffff1610612423578862ffffff1661243e565b600161243462ffffff8816846133be565b61243e91906134a7565b905060005b600261244f83856133be565b612459919061341c565b90508a61246b828962ffffff16612a86565b62ffffff1662ffffff81106124825761248261359f565b604080518082019091529101546001600160e01b0381168252600160e01b900463ffffffff1660208201819052909550806124ca576124c28260016133be565b935050612443565b8b6124da838a62ffffff16612a92565b62ffffff1662ffffff81106124f1576124f161359f565b604080518082019091529101546001600160e01b038116825263ffffffff600160e01b9091048116602083015290955060009061253690838116908c908b906121bb16565b905080801561255f575061255f8660200151898c63ffffffff166121bb9092919063ffffffff16565b1561256b575050612597565b806125825761257b6001846134a7565b9350612590565b61258d8360016133be565b94505b5050612443565b505050965096945050505050565b60008163ffffffff168463ffffffff16111580156125cf57508163ffffffff168363ffffffff1611155b156125e5576125de83856134be565b9050610708565b60008263ffffffff168563ffffffff16116126145761260f63ffffffff86166401000000006133d6565b61261c565b8463ffffffff165b64ffffffffff16905060008363ffffffff168563ffffffff16116126545761264f63ffffffff86166401000000006133d6565b61265c565b8463ffffffff165b64ffffffffff169050610af681836134a7565b806126775750565b6000806000612690600861268a86612aa2565b42612b25565b825160088054602086015160408701516001600160d01b039094167fffffff000000000000000000000000000000000000000000000000000000000090921691909117600160d01b62ffffff92831602177cffffffffffffffffffffffffffffffffffffffffffffffffffffffffff16600160e81b919093160291909117905591945092509050801561147f576040805183516001600160e01b0316815260208085015163ffffffff16908201527f3375b905d617084fa6b7531688cc8046feb1f1a0b8ba2273de03c59d8d84416c910160405180910390a150505050565b806127775750565b6000806000612690600861278a86612aa2565b6040518060600160405280602c81526020016135ee602c913942612bce565b806127b2575050565b6001600160a01b03821660009081526007602052604081209080806127f9846127da87612aa2565b6040518060600160405280602281526020016135cc6022913942612bce565b82518754602085015160408601516001600160d01b039093167fffffff000000000000000000000000000000000000000000000000000000000090921691909117600160d01b62ffffff92831602177cffffffffffffffffffffffffffffffffffffffffffffffffffffffffff16600160e81b91909216021787559194509250905080156128d9576040805183516001600160e01b0316815260208085015163ffffffff16908201526001600160a01b038816917fdd3e7cd3a260a292b0b3306b2ca62f30a7349619a9d09c58109318774c6b627d910160405180910390a25b505050505050565b806128ea575050565b6001600160a01b03821660009081526007602052604081209080806127f98461268a87612aa2565b60408051808201909152600080825260208201526129458383896020015163ffffffff166123099092919063ffffffff16565b15612969576129628789600001516001600160d01b031685612ca1565b9050612a50565b8263ffffffff16876020015163ffffffff161415612988575085612a50565b8263ffffffff16866020015163ffffffff1614156129a7575084612a50565b6129c68660200151838563ffffffff166123099092919063ffffffff16565b156129eb5750604080518082019091526000815263ffffffff83166020820152612a50565b600080612a008b8888888e60400151896123d8565b915091506000612a1982602001518460200151876125a5565b63ffffffff1683600001518360000151612a339190613487565b612a3d91906133f6565b9050612a4a838288612ca1565b93505050505b98975050505050505050565b600081612a6b57506000610643565b6107086001612a7a84866133be565b612a8491906134a7565b835b60006107088284613549565b6000610708612a848460016133be565b60006001600160d01b03821115612b215760405162461bcd60e51b815260206004820152602760248201527f53616665436173743a2076616c756520646f65736e27742066697420696e203260448201527f303820626974730000000000000000000000000000000000000000000000000060648201526084016106ec565b5090565b604080516060810182526000808252602082018190529181019190915260408051808201909152600080825260208201526040805160608101825286546001600160d01b038116825262ffffff600160d01b820481166020840152600160e81b9091041691810191909152600090612ba1600188018287612d1c565b83519296509094509250612bb6908790613353565b6001600160d01b031684525091959094509092509050565b604080516060810182526000808252602082018190529181019190915260408051808201909152600080825260208201526040805160608101825287546001600160d01b0380821680845262ffffff600160d01b840481166020860152600160e81b9093049092169383019390935260009287919089161115612c645760405162461bcd60e51b81526004016106ec91906132fe565b50612c73886001018287612d1c565b83519296509094509250612c8890889061345f565b6001600160d01b03168452509196909550909350915050565b60408051808201909152600080825260208201526040518060400160405280612cdf8660200151858663ffffffff166125a59092919063ffffffff16565b612cef9063ffffffff1686613430565b8651612cfb919061337e565b6001600160e01b031681526020018363ffffffff1681525090509392505050565b60408051606081018252600080825260208201819052918101919091526040805180820190915260008082526020820152600080612d5a878761213b565b9150508463ffffffff16816020015163ffffffff161415612d8357859350915060009050612dfa565b6000612d9d8288600001516001600160d01b031688612ca1565b90508088886020015162ffffff1662ffffff8110612dbd57612dbd61359f565b825160209093015163ffffffff16600160e01b026001600160e01b03909316929092179101556000612dee88612e03565b95509093506001925050505b93509350939050565b60408051606081018252600080825260208083018290529282015290820151612e339062ffffff90811690612a92565b62ffffff9081166020840152604083015181161015612b2157600182604001818151612e5f91906133a0565b62ffffff169052505090565b80356001600160a01b0381168114612e8257600080fd5b919050565b60008083601f840112612e9957600080fd5b50813567ffffffffffffffff811115612eb157600080fd5b6020830191508360208260051b850101111561230257600080fd5b803567ffffffffffffffff81168114612e8257600080fd5b803560ff81168114612e8257600080fd5b600060208284031215612f0757600080fd5b61070882612e6b565b60008060408385031215612f2357600080fd5b612f2c83612e6b565b9150612f3a60208401612e6b565b90509250929050565b600080600060608486031215612f5857600080fd5b612f6184612e6b565b9250612f6f60208501612e6b565b9150604084013590509250925092565b600080600080600080600060e0888a031215612f9a57600080fd5b612fa388612e6b565b9650612fb160208901612e6b565b95506040880135945060608801359350612fcd60808901612ee4565b925060a0880135915060c0880135905092959891949750929550565b60008060008060008060c0878903121561300257600080fd5b61300b87612e6b565b955061301960208801612e6b565b94506040870135935061302e60608801612ee4565b92506080870135915060a087013590509295509295509295565b60008060006040848603121561305d57600080fd5b61306684612e6b565b9250602084013567ffffffffffffffff81111561308257600080fd5b61308e86828701612e87565b9497909650939450505050565b6000806000806000606086880312156130b357600080fd5b6130bc86612e6b565b9450602086013567ffffffffffffffff808211156130d957600080fd5b6130e589838a01612e87565b909650945060408801359150808211156130fe57600080fd5b5061310b88828901612e87565b969995985093965092949392505050565b6000806040838503121561312f57600080fd5b61313883612e6b565b9150602083013561ffff8116811461314f57600080fd5b809150509250929050565b6000806040838503121561316d57600080fd5b61317683612e6b565b946020939093013593505050565b6000806040838503121561319757600080fd5b6131a083612e6b565b9150612f3a60208401612ecc565b6000806000606084860312156131c357600080fd5b6131cc84612e6b565b92506131da60208501612ecc565b91506131e860408501612ecc565b90509250925092565b6000806020838503121561320457600080fd5b823567ffffffffffffffff81111561321b57600080fd5b61322785828601612e87565b90969095509350505050565b6000806000806040858703121561324957600080fd5b843567ffffffffffffffff8082111561326157600080fd5b61326d88838901612e87565b9096509450602087013591508082111561328657600080fd5b5061329387828801612e87565b95989497509550505050565b6000602082840312156132b157600080fd5b61070882612ecc565b6020808252825182820181905260009190848201906040850190845b818110156132f2578351835292840192918401916001016132d6565b50909695505050505050565b600060208083528351808285015260005b8181101561332b5785810183015185820160400152820161330f565b8181111561333d576000604083870101525b50601f01601f1916929092016040019392505050565b60006001600160d01b038083168185168083038211156133755761337561355d565b01949350505050565b60006001600160e01b038083168185168083038211156133755761337561355d565b600062ffffff8083168185168083038211156133755761337561355d565b600082198211156133d1576133d161355d565b500190565b600064ffffffffff8083168185168083038211156133755761337561355d565b60006001600160e01b038084168061341057613410613573565b92169190910492915050565b60008261342b5761342b613573565b500490565b60006001600160e01b03808316818516818304811182151516156134565761345661355d565b02949350505050565b60006001600160d01b038381169083168181101561347f5761347f61355d565b039392505050565b60006001600160e01b038381169083168181101561347f5761347f61355d565b6000828210156134b9576134b961355d565b500390565b600063ffffffff8381169083168181101561347f5761347f61355d565b600181811c908216806134ef57607f821691505b60208210811415611ab557634e487b7160e01b600052602260045260246000fd5b60007fffffffffffffffffffffffffffffffffffffffffffffffffffffffffffffffff8214156135425761354261355d565b5060010190565b60008261355857613558613573565b500690565b634e487b7160e01b600052601160045260246000fd5b634e487b7160e01b600052601260045260246000fd5b634e487b7160e01b600052602160045260246000fd5b634e487b7160e01b600052603260045260246000fd5b634e487b7160e01b600052604160045260246000fdfe45524332303a206275726e20616d6f756e7420657863656564732062616c616e63655469636b65742f6275726e2d616d6f756e742d657863656564732d746f74616c2d737570706c792d74776162a2646970667358221220e8e24490df3412ecab85bad23153315d3ccbfdb8234cde5c6adf741ba37a939964736f6c63430008060033",
  "linkReferences": {},
  "deployedLinkReferences": {}
}