{
  "contractName": "Airdrop",
  "abi": [
    {
      "inputs": [
        {
          "internalType": "contract IERC20",
          "name": "_token",
          "type": "address"
        }
      ],
      "stateMutability": "nonpayable",
      "type": "constructor"
    },
    {
      "anonymous": false,
      "inputs": [
        {
          "indexed": false,
          "internalType": "uint256",
          "name": "tranchId",
          "type": "uint256"
        },
        {
          "indexed": false,
          "internalType": "address",
          "name": "account",
          "type": "address"
        },
        {
          "indexed": false,
          "internalType": "uint256",
          "name": "balance",
          "type": "uint256"
        }
      ],
      "name": "Claimed",
      "type": "event"
    },
    {
      "anonymous": false,
      "inputs": [
        {
          "indexed": true,
          "internalType": "address",
          "name": "previousOwner",
          "type": "address"
        },
        {
          "indexed": true,
          "internalType": "address",
          "name": "newOwner",
          "type": "address"
        }
      ],
      "name": "OwnershipTransferred",
      "type": "event"
    },
    {
      "anonymous": false,
      "inputs": [
        {
          "indexed": false,
          "internalType": "uint256",
          "name": "tranchId",
          "type": "uint256"
        },
        {
          "indexed": false,
          "internalType": "bytes32",
          "name": "merkleRoot",
          "type": "bytes32"
        },
        {
          "indexed": false,
          "internalType": "uint64",
          "name": "startTime",
          "type": "uint64"
        },
        {
          "indexed": false,
          "internalType": "uint64",
          "name": "endTime",
          "type": "uint64"
        },
        {
          "indexed": false,
          "internalType": "uint256",
          "name": "totalAmount",
          "type": "uint256"
        }
      ],
      "name": "TrancheAdded",
      "type": "event"
    },
    {
      "anonymous": false,
      "inputs": [
        {
          "indexed": false,
          "internalType": "uint256",
          "name": "tranchId",
          "type": "uint256"
        },
        {
          "indexed": false,
          "internalType": "uint256",
          "name": "expireAmount",
          "type": "uint256"
        }
      ],
      "name": "TrancheExpired",
      "type": "event"
    },
    {
      "inputs": [
        {
          "internalType": "uint256",
          "name": "",
          "type": "uint256"
        },
        {
          "internalType": "address",
          "name": "",
          "type": "address"
        }
      ],
      "name": "claimed",
      "outputs": [
        {
          "internalType": "bool",
          "name": "",
          "type": "bool"
        }
      ],
      "stateMutability": "view",
      "type": "function"
    },
    {
      "inputs": [],
      "name": "owner",
      "outputs": [
        {
          "internalType": "address",
          "name": "",
          "type": "address"
        }
      ],
      "stateMutability": "view",
      "type": "function"
    },
    {
      "inputs": [],
      "name": "renounceOwnership",
      "outputs": [],
      "stateMutability": "nonpayable",
      "type": "function"
    },
    {
      "inputs": [],
      "name": "token",
      "outputs": [
        {
          "internalType": "contract IERC20",
          "name": "",
          "type": "address"
        }
      ],
      "stateMutability": "view",
      "type": "function"
    },
    {
      "inputs": [],
      "name": "trancheIdx",
      "outputs": [
        {
          "internalType": "uint256",
          "name": "",
          "type": "uint256"
        }
      ],
      "stateMutability": "view",
      "type": "function"
    },
    {
      "inputs": [
        {
          "internalType": "uint256",
          "name": "",
          "type": "uint256"
        }
      ],
      "name": "tranches",
      "outputs": [
        {
          "internalType": "bytes32",
          "name": "merkleRoot",
          "type": "bytes32"
        },
        {
          "internalType": "uint64",
          "name": "startTime",
          "type": "uint64"
        },
        {
          "internalType": "uint64",
          "name": "endTime",
          "type": "uint64"
        },
        {
          "internalType": "uint256",
          "name": "totalAmount",
          "type": "uint256"
        },
        {
          "internalType": "uint256",
          "name": "claimedAmount",
          "type": "uint256"
        }
      ],
      "stateMutability": "view",
      "type": "function"
    },
    {
      "inputs": [
        {
          "internalType": "address",
          "name": "newOwner",
          "type": "address"
        }
      ],
      "name": "transferOwnership",
      "outputs": [],
      "stateMutability": "nonpayable",
      "type": "function"
    },
    {
      "inputs": [
        {
          "internalType": "bytes32",
          "name": "merkleRoot",
          "type": "bytes32"
        },
        {
          "internalType": "uint64",
          "name": "startTime",
          "type": "uint64"
        },
        {
          "internalType": "uint64",
          "name": "endTime",
          "type": "uint64"
        },
        {
          "internalType": "uint256",
          "name": "totalAmount",
          "type": "uint256"
        }
      ],
      "name": "newTranche",
      "outputs": [],
      "stateMutability": "nonpayable",
      "type": "function"
    },
    {
      "inputs": [
        {
          "internalType": "uint256",
          "name": "_trancheId",
          "type": "uint256"
        }
      ],
      "name": "expireTranche",
      "outputs": [],
      "stateMutability": "nonpayable",
      "type": "function"
    },
    {
      "inputs": [
        {
          "internalType": "address",
          "name": "account",
          "type": "address"
        },
        {
          "internalType": "uint256",
          "name": "_trancheId",
          "type": "uint256"
        },
        {
          "internalType": "uint256",
          "name": "_balance",
          "type": "uint256"
        },
        {
          "internalType": "bytes32[]",
          "name": "_merkleProof",
          "type": "bytes32[]"
        }
      ],
      "name": "claim",
      "outputs": [],
      "stateMutability": "nonpayable",
      "type": "function"
    },
    {
      "inputs": [
        {
          "internalType": "address",
          "name": "account",
          "type": "address"
        },
        {
          "internalType": "uint256[]",
          "name": "_trancheIds",
          "type": "uint256[]"
        },
        {
          "internalType": "uint256[]",
          "name": "_balances",
          "type": "uint256[]"
        },
        {
          "internalType": "bytes32[][]",
          "name": "_merkleProofs",
          "type": "bytes32[][]"
        }
      ],
      "name": "claims",
      "outputs": [],
      "stateMutability": "nonpayable",
      "type": "function"
    },
    {
      "inputs": [
        {
          "internalType": "address",
          "name": "account",
          "type": "address"
        },
        {
          "internalType": "uint256",
          "name": "_trancheId",
          "type": "uint256"
        },
        {
          "internalType": "uint256",
          "name": "_balance",
          "type": "uint256"
        },
        {
          "internalType": "bytes32[]",
          "name": "_merkleProof",
          "type": "bytes32[]"
        }
      ],
      "name": "verifyClaim",
      "outputs": [
        {
          "internalType": "bool",
          "name": "valid",
          "type": "bool"
        }
      ],
      "stateMutability": "view",
      "type": "function"
    }
  ],
  "bytecode": "0x608060405234801561001057600080fd5b506040516115ca3803806115ca83398101604081905261002f916100ac565b60006100396100a8565b600080546001600160a01b0319166001600160a01b0383169081178255604051929350917f8be0079c531659141344cd1fd0a4f28419497f9722a3daafe3b4186f6b6457e0908290a350600180546001600160a01b0319166001600160a01b03929092169190911790556100da565b3390565b6000602082840312156100bd578081fd5b81516001600160a01b03811681146100d3578182fd5b9392505050565b6114e1806100e96000396000f3fe608060405234801561001057600080fd5b50600436106100b45760003560e01c80638da5cb5b116100715780638da5cb5b1461014b578063d573512214610160578063d5efd20a14610173578063eb0d07f514610186578063f2fde38b14610199578063fc0c546a146101ac576100b4565b80630876bc80146100b9578063120aa877146100d7578063172bd6de146100f757806326c259621461010c578063715018a6146101305780638c593fbf14610138575b600080fd5b6100c16101b4565b6040516100ce919061136d565b60405180910390f35b6100ea6100e536600461115a565b6101ba565b6040516100ce91906111bb565b61010a61010536600461109a565b6101da565b005b61011f61011a366004611142565b61022a565b6040516100ce9594939291906111c6565b61010a610267565b61010a6101463660046110ff565b610313565b61015361049d565b6040516100ce91906111a7565b61010a61016e366004610ff4565b6104ac565b61010a610181366004611142565b6105a7565b6100ea61019436600461109a565b61073f565b61010a6101a7366004610fda565b610796565b610153610898565b60045481565b600360209081526000928352604080842090915290825290205460ff1681565b6102198585858585808060200260200160405190810160405280939291908181526020018383602002808284376000920191909152506108a792505050565b6102238584610a5a565b5050505050565b6002602081905260009182526040909120805460018201549282015460039092015490926001600160401b0380821693600160401b909204169185565b61026f610a98565b6001600160a01b031661028061049d565b6001600160a01b0316146102c9576040805162461bcd60e51b81526020600482018190526024820152600080516020611462833981519152604482015290519081900360640190fd5b600080546040516001600160a01b03909116907f8be0079c531659141344cd1fd0a4f28419497f9722a3daafe3b4186f6b6457e0908390a3600080546001600160a01b0319169055565b61031b610a98565b6001600160a01b031661032c61049d565b6001600160a01b031614610375576040805162461bcd60e51b81526020600482018190526024820152600080516020611462833981519152604482015290519081900360640190fd5b42826001600160401b0316116103a65760405162461bcd60e51b815260040161039d90611342565b60405180910390fd5b600480546040805160a0810182528781526001600160401b038088166020808401918252888316848601908152606085018981526000608087018181528982526002948590529790209551865592516001808701805493518716600160401b026fffffffffffffffff0000000000000000199390971667ffffffffffffffff1990941693909317919091169490941790559051908301559151600390910155915490916104539190610a9c565b6004556040517f968bad38b8df86ae3cada01f760301ebb2788931075ddfc0402d619fca5ff58a9061048e9083908890889088908890611395565b60405180910390a15050505050565b6000546001600160a01b031690565b8483811480156104bb57508082145b6104d75760405162461bcd60e51b815260040161039d90611316565b6000805b82811015610591576105628a8a8a848181106104f357fe5b9050602002013589898581811061050657fe5b9050602002013588888681811061051957fe5b905060200281019061052b91906113cf565b808060200260200160405190810160405280939291908181526020018383602002808284376000920191909152506108a792505050565b61058787878381811061057157fe5b9050602002013583610a9c90919063ffffffff16565b91506001016104db565b5061059c8982610a5a565b505050505050505050565b6105af610a98565b6001600160a01b03166105c061049d565b6001600160a01b031614610609576040805162461bcd60e51b81526020600482018190526024820152600080516020611462833981519152604482015290519081900360640190fd5b600081815260026020818152604092839020835160a0810185528154815260018201546001600160401b0380821694830194909452600160401b900490921693820184905291820154606082015260039091015460808201529042116106815760405162461bcd60e51b815260040161039d906112a5565b600061069e82608001518360600151610afd90919063ffffffff16565b905080156106c4576106c46106b161049d565b6001546001600160a01b03169083610b5a565b60008381526002602081905260408083208381556001810180546fffffffffffffffffffffffffffffffff19169055918201839055600390910191909155517f060e2b3a5cc13dc722cd8480a81cfc19f590da5d72b6918a7fee89f5e4ae35b59061073290859084906113c1565b60405180910390a1505050565b6000848152600260209081526040808320548151858402818101850190935285815261078c938a9389929189918991829190850190849080828437600092019190915250610bb192505050565b9695505050505050565b61079e610a98565b6001600160a01b03166107af61049d565b6001600160a01b0316146107f8576040805162461bcd60e51b81526020600482018190526024820152600080516020611462833981519152604482015290519081900360640190fd5b6001600160a01b03811661083d5760405162461bcd60e51b81526004018080602001828103825260268152602001806114166026913960400191505060405180910390fd5b600080546040516001600160a01b03808516939216917f8be0079c531659141344cd1fd0a4f28419497f9722a3daafe3b4186f6b6457e091a3600080546001600160a01b0319166001600160a01b0392909216919091179055565b6001546001600160a01b031681565b60045483106108c85760405162461bcd60e51b815260040161039d906112c6565b600083815260026020526040902060010154426001600160401b03909116106109035760405162461bcd60e51b815260040161039d906112f3565b60008381526002602052604090206001015442600160401b9091046001600160401b0316116109445760405162461bcd60e51b815260040161039d90611225565b60008381526003602090815260408083206001600160a01b038816845290915290205460ff16156109875760405162461bcd60e51b815260040161039d90611245565b6000838152600260205260409020546109a39085908484610bb1565b6109bf5760405162461bcd60e51b815260040161039d906111f5565b60008381526003602081815260408084206001600160a01b03891685528252808420805460ff1916600117905586845260029091529091200154610a039083610a9c565b6000848152600260205260409081902060030191909155517f4ec90e965519d92681267467f775ada5bd214aa92c0dc93d90a5e880ce9ed02690610a4c90859087908690611376565b60405180910390a150505050565b8015610a7c57600154610a77906001600160a01b03168383610b5a565b610a94565b60405162461bcd60e51b815260040161039d9061126e565b5050565b3390565b600082820183811015610af6576040805162461bcd60e51b815260206004820152601b60248201527f536166654d6174683a206164646974696f6e206f766572666c6f770000000000604482015290519081900360640190fd5b9392505050565b600082821115610b54576040805162461bcd60e51b815260206004820152601e60248201527f536166654d6174683a207375627472616374696f6e206f766572666c6f770000604482015290519081900360640190fd5b50900390565b604080516001600160a01b038416602482015260448082018490528251808303909101815260649091019091526020810180516001600160e01b031663a9059cbb60e01b179052610bac908490610bea565b505050565b6000808584604051602001610bc7929190611185565b60405160208183030381529060405280519060200120905061078c838683610c9b565b6000610c3f826040518060400160405280602081526020017f5361666545524332303a206c6f772d6c6576656c2063616c6c206661696c6564815250856001600160a01b0316610d449092919063ffffffff16565b805190915015610bac57808060200190516020811015610c5e57600080fd5b5051610bac5760405162461bcd60e51b815260040180806020018281038252602a815260200180611482602a913960400191505060405180910390fd5b600081815b8551811015610d39576000868281518110610cb757fe5b60200260200101519050808311610cfe5782816040516020018083815260200182815260200192505050604051602081830303815290604052805190602001209250610d30565b808360405160200180838152602001828152602001925050506040516020818303038152906040528051906020012092505b50600101610ca0565b509092149392505050565b6060610d538484600085610d5b565b949350505050565b606082471015610d9c5760405162461bcd60e51b815260040180806020018281038252602681526020018061143c6026913960400191505060405180910390fd5b610da585610eb6565b610df6576040805162461bcd60e51b815260206004820152601d60248201527f416464726573733a2063616c6c20746f206e6f6e2d636f6e7472616374000000604482015290519081900360640190fd5b600080866001600160a01b031685876040518082805190602001908083835b60208310610e345780518252601f199092019160209182019101610e15565b6001836020036101000a03801982511681845116808217855250505050505090500191505060006040518083038185875af1925050503d8060008114610e96576040519150601f19603f3d011682016040523d82523d6000602084013e610e9b565b606091505b5091509150610eab828286610ec0565b979650505050505050565b803b15155b919050565b60608315610ecf575081610af6565b825115610edf5782518084602001fd5b8160405162461bcd60e51b81526004018080602001828103825283818151815260200191508051906020019080838360005b83811015610f29578181015183820152602001610f11565b50505050905090810190601f168015610f565780820380516001836020036101000a031916815260200191505b509250505060405180910390fd5b80356001600160a01b0381168114610ebb57600080fd5b60008083601f840112610f8c578182fd5b5081356001600160401b03811115610fa2578182fd5b6020830191508360208083028501011115610fbc57600080fd5b9250929050565b80356001600160401b0381168114610ebb57600080fd5b600060208284031215610feb578081fd5b610af682610f64565b60008060008060008060006080888a03121561100e578283fd5b61101788610f64565b965060208801356001600160401b0380821115611032578485fd5b61103e8b838c01610f7b565b909850965060408a0135915080821115611056578485fd5b6110628b838c01610f7b565b909650945060608a013591508082111561107a578384fd5b506110878a828b01610f7b565b989b979a50959850939692959293505050565b6000806000806000608086880312156110b1578081fd5b6110ba86610f64565b9450602086013593506040860135925060608601356001600160401b038111156110e2578182fd5b6110ee88828901610f7b565b969995985093965092949392505050565b60008060008060808587031215611114578384fd5b8435935061112460208601610fc3565b925061113260408601610fc3565b9396929550929360600135925050565b600060208284031215611153578081fd5b5035919050565b6000806040838503121561116c578182fd5b8235915061117c60208401610f64565b90509250929050565b60609290921b6bffffffffffffffffffffffff19168252601482015260340190565b6001600160a01b0391909116815260200190565b901515815260200190565b9485526001600160401b0393841660208601529190921660408401526060830191909152608082015260a00190565b60208082526016908201527524b731b7b93932b1ba1036b2b935b63290383937b7b360511b604082015260600190565b60208082526006908201526545787069726560d01b604082015260600190565b6020808252600f908201526e105b1c9958591e4818db185a5b5959608a1b604082015260600190565b6020808252601f908201527f4e6f2062616c616e636520776f756c64206265207472616e7366657272656400604082015260600190565b602080825260079082015266139bdd08115b9960ca1b604082015260600190565b602080825260139082015272125b98dbdc9c9958dd081d1c985b98da195259606a1b604082015260600190565b602080825260099082015268139bdd0814dd185c9d60ba1b604082015260600190565b6020808252601290820152714d69736d61746368696e6720696e7075747360701b604082015260600190565b602080825260119082015270496e636f727265637420656e6474696d6560781b604082015260600190565b90815260200190565b9283526001600160a01b03919091166020830152604082015260600190565b94855260208501939093526001600160401b039182166040850152166060830152608082015260a00190565b918252602082015260400190565b6000808335601e198436030181126113e5578283fd5b8301803591506001600160401b038211156113fe578283fd5b6020908101925081023603821315610fbc57600080fdfe4f776e61626c653a206e6577206f776e657220697320746865207a65726f2061646472657373416464726573733a20696e73756666696369656e742062616c616e636520666f722063616c6c4f776e61626c653a2063616c6c6572206973206e6f7420746865206f776e65725361666545524332303a204552433230206f7065726174696f6e20646964206e6f742073756363656564a264697066735822122096db8e0419eefd861cb7134a40462328fe42e50d672cc38872b31f989678d47d64736f6c63430007060033",
  "immutableReferences": {},
  "source": "// SPDX-License-Identifier: BUSL-1.1\npragma solidity 0.7.6;\npragma experimental ABIEncoderV2 ;\n\nimport \"@openzeppelin/contracts/cryptography/MerkleProof.sol\";\nimport \"@openzeppelin/contracts/token/ERC20/IERC20.sol\";\nimport \"@openzeppelin/contracts/token/ERC20/SafeERC20.sol\";\nimport \"@openzeppelin/contracts/math/SafeMath.sol\";\nimport \"@openzeppelin/contracts/access/Ownable.sol\";\n\ncontract Airdrop is Ownable {\n    using SafeERC20 for IERC20;\n    using SafeMath for uint256;\n    event TrancheAdded (uint256 tranchId, bytes32 merkleRoot, uint64 startTime, uint64 endTime, uint256 totalAmount);\n    event Claimed(uint256 tranchId, address account, uint256 balance);\n    event TrancheExpired (uint256 tranchId, uint expireAmount);\n    struct Tranche {\n        bytes32 merkleRoot;\n        uint64 startTime;\n        uint64 endTime;\n        uint256 totalAmount;\n        uint256 claimedAmount;\n    }\n\n    IERC20 public token;\n    mapping(uint256 => Tranche) public tranches;\n    mapping(uint256 => mapping(address => bool)) public claimed;\n    uint256 public trancheIdx;\n\n    constructor (IERC20 _token){\n        token = _token;\n    }\n\n    function newTranche(bytes32 merkleRoot, uint64 startTime, uint64 endTime, uint256 totalAmount) external onlyOwner\n    {\n        require(endTime > block.timestamp, 'Incorrect endtime');\n        uint trancheId = trancheIdx;\n        tranches[trancheId] = Tranche(merkleRoot, startTime, endTime, totalAmount, 0);\n        trancheIdx = trancheIdx.add(1);\n        emit TrancheAdded(trancheId, merkleRoot, startTime, endTime, totalAmount);\n    }\n\n    function expireTranche(uint256 _trancheId) external onlyOwner {\n        Tranche memory tranche = tranches[_trancheId];\n        require(block.timestamp > tranche.endTime, 'Not End');\n        uint expireAmount = tranche.totalAmount.sub(tranche.claimedAmount);\n        if (expireAmount > 0) {\n            token.safeTransfer(owner(), expireAmount);\n        }\n        delete tranches[_trancheId];\n        emit TrancheExpired(_trancheId, expireAmount);\n    }\n\n    function claim(address account, uint256 _trancheId, uint256 _balance, bytes32[] calldata _merkleProof) external\n    {\n        _claim(account, _trancheId, _balance, _merkleProof);\n        _disburse(account, _balance);\n    }\n\n    function claims(address account, uint256[] calldata _trancheIds, uint256[] calldata _balances, bytes32[][] calldata _merkleProofs) external {\n        uint256 len = _trancheIds.length;\n        require(len == _balances.length && len == _merkleProofs.length, \"Mismatching inputs\");\n        uint256 totalBalance = 0;\n        for (uint256 i = 0; i < len; i ++) {\n            _claim(account, _trancheIds[i], _balances[i], _merkleProofs[i]);\n            totalBalance = totalBalance.add(_balances[i]);\n        }\n        _disburse(account, totalBalance);\n    }\n\n    function verifyClaim(address account, uint256 _trancheId, uint256 _balance, bytes32[] calldata _merkleProof) external view returns (bool valid) {\n        return _verifyClaim(account, tranches[_trancheId].merkleRoot, _balance, _merkleProof);\n    }\n\n    function _claim(address account, uint256 _trancheId, uint256 _balance, bytes32[] memory _merkleProof) private {\n        require(_trancheId < trancheIdx, \"Incorrect trancheId\");\n        require(tranches[_trancheId].startTime < block.timestamp, \"Not Start\");\n        require(tranches[_trancheId].endTime > block.timestamp, \"Expire\");\n        require(!claimed[_trancheId][account], \"Already claimed\");\n        require(_verifyClaim(account, tranches[_trancheId].merkleRoot, _balance, _merkleProof), \"Incorrect merkle proof\");\n        claimed[_trancheId][account] = true;\n        tranches[_trancheId].claimedAmount = tranches[_trancheId].claimedAmount.add(_balance);\n        emit Claimed(_trancheId, account, _balance);\n    }\n\n    function _verifyClaim(address account, bytes32 root, uint256 _balance, bytes32[] memory _merkleProof) private pure returns (bool valid) {\n        bytes32 leaf = keccak256(abi.encodePacked(account, _balance));\n        return MerkleProof.verify(_merkleProof, root, leaf);\n    }\n\n    function _disburse(address account, uint256 _balance) private {\n        if (_balance > 0) {\n            token.safeTransfer(account, _balance);\n        } else {\n            revert(\"No balance would be transferred\");\n        }\n    }\n}",
  "sourcePath": "/home/mingyue/Smartian/Web3Bugs/contracts/72/openleverage-contracts/contracts/Airdrop.sol",
  "compiler": {
    "name": "solc",
    "version": "0.7.6+commit.7338295f.Emscripten.clang"
  },
  "schemaVersion": "3.4.16",
  "updatedAt": "2025-02-26T03:47:59.355Z",
  "devdoc": {
    "kind": "dev",
    "methods": {
      "owner()": {
        "details": "Returns the address of the current owner."
      },
      "renounceOwnership()": {
        "details": "Leaves the contract without owner. It will not be possible to call `onlyOwner` functions anymore. Can only be called by the current owner. NOTE: Renouncing ownership will leave the contract without an owner, thereby removing any functionality that is only available to the owner."
      },
      "transferOwnership(address)": {
        "details": "Transfers ownership of the contract to a new account (`newOwner`). Can only be called by the current owner."
      }
    },
    "version": 1
  },
  "userdoc": {
    "kind": "user",
    "methods": {},
    "version": 1
  }
}