{
  "contractName": "BscDexAggregatorV1",
  "abi": [
    {
      "anonymous": false,
      "inputs": [
        {
          "indexed": false,
          "internalType": "address",
          "name": "oldAdmin",
          "type": "address"
        },
        {
          "indexed": false,
          "internalType": "address",
          "name": "newAdmin",
          "type": "address"
        }
      ],
      "name": "NewAdmin",
      "type": "event"
    },
    {
      "anonymous": false,
      "inputs": [
        {
          "indexed": false,
          "internalType": "address",
          "name": "oldPendingAdmin",
          "type": "address"
        },
        {
          "indexed": false,
          "internalType": "address",
          "name": "newPendingAdmin",
          "type": "address"
        }
      ],
      "name": "NewPendingAdmin",
      "type": "event"
    },
    {
      "inputs": [],
      "name": "acceptAdmin",
      "outputs": [],
      "stateMutability": "nonpayable",
      "type": "function"
    },
    {
      "inputs": [],
      "name": "admin",
      "outputs": [
        {
          "internalType": "address payable",
          "name": "",
          "type": "address"
        }
      ],
      "stateMutability": "view",
      "type": "function"
    },
    {
      "inputs": [],
      "name": "developer",
      "outputs": [
        {
          "internalType": "address payable",
          "name": "",
          "type": "address"
        }
      ],
      "stateMutability": "view",
      "type": "function"
    },
    {
      "inputs": [
        {
          "internalType": "uint8",
          "name": "",
          "type": "uint8"
        }
      ],
      "name": "dexInfo",
      "outputs": [
        {
          "internalType": "contract IUniswapV2Factory",
          "name": "factory",
          "type": "address"
        },
        {
          "internalType": "uint16",
          "name": "fees",
          "type": "uint16"
        }
      ],
      "stateMutability": "view",
      "type": "function"
    },
    {
      "inputs": [],
      "name": "implementation",
      "outputs": [
        {
          "internalType": "address",
          "name": "",
          "type": "address"
        }
      ],
      "stateMutability": "view",
      "type": "function"
    },
    {
      "inputs": [],
      "name": "openLev",
      "outputs": [
        {
          "internalType": "address",
          "name": "",
          "type": "address"
        }
      ],
      "stateMutability": "view",
      "type": "function"
    },
    {
      "inputs": [],
      "name": "pancakeFactory",
      "outputs": [
        {
          "internalType": "contract IUniswapV2Factory",
          "name": "",
          "type": "address"
        }
      ],
      "stateMutability": "view",
      "type": "function"
    },
    {
      "inputs": [],
      "name": "pendingAdmin",
      "outputs": [
        {
          "internalType": "address payable",
          "name": "",
          "type": "address"
        }
      ],
      "stateMutability": "view",
      "type": "function"
    },
    {
      "inputs": [
        {
          "internalType": "address payable",
          "name": "newPendingAdmin",
          "type": "address"
        }
      ],
      "name": "setPendingAdmin",
      "outputs": [],
      "stateMutability": "nonpayable",
      "type": "function"
    },
    {
      "inputs": [
        {
          "internalType": "contract IUniswapV2Pair",
          "name": "",
          "type": "address"
        }
      ],
      "name": "uniV2PriceOracle",
      "outputs": [
        {
          "internalType": "uint32",
          "name": "blockTimestampLast",
          "type": "uint32"
        },
        {
          "internalType": "uint256",
          "name": "price0",
          "type": "uint256"
        },
        {
          "internalType": "uint256",
          "name": "price1",
          "type": "uint256"
        },
        {
          "internalType": "uint256",
          "name": "price0CumulativeLast",
          "type": "uint256"
        },
        {
          "internalType": "uint256",
          "name": "price1CumulativeLast",
          "type": "uint256"
        }
      ],
      "stateMutability": "view",
      "type": "function"
    },
    {
      "inputs": [
        {
          "internalType": "contract IUniswapV2Factory",
          "name": "_pancakeFactory",
          "type": "address"
        },
        {
          "internalType": "address",
          "name": "_unsedFactory",
          "type": "address"
        }
      ],
      "name": "initialize",
      "outputs": [],
      "stateMutability": "nonpayable",
      "type": "function"
    },
    {
      "inputs": [
        {
          "internalType": "uint8[]",
          "name": "dexName",
          "type": "uint8[]"
        },
        {
          "internalType": "contract IUniswapV2Factory[]",
          "name": "factoryAddr",
          "type": "address[]"
        },
        {
          "internalType": "uint16[]",
          "name": "fees",
          "type": "uint16[]"
        }
      ],
      "name": "setDexInfo",
      "outputs": [],
      "stateMutability": "nonpayable",
      "type": "function"
    },
    {
      "inputs": [
        {
          "internalType": "address",
          "name": "_openLev",
          "type": "address"
        }
      ],
      "name": "setOpenLev",
      "outputs": [],
      "stateMutability": "nonpayable",
      "type": "function"
    },
    {
      "inputs": [
        {
          "internalType": "address",
          "name": "buyToken",
          "type": "address"
        },
        {
          "internalType": "address",
          "name": "sellToken",
          "type": "address"
        },
        {
          "internalType": "uint24",
          "name": "buyTax",
          "type": "uint24"
        },
        {
          "internalType": "uint24",
          "name": "sellTax",
          "type": "uint24"
        },
        {
          "internalType": "uint256",
          "name": "sellAmount",
          "type": "uint256"
        },
        {
          "internalType": "uint256",
          "name": "minBuyAmount",
          "type": "uint256"
        },
        {
          "internalType": "bytes",
          "name": "data",
          "type": "bytes"
        }
      ],
      "name": "sell",
      "outputs": [
        {
          "internalType": "uint256",
          "name": "buyAmount",
          "type": "uint256"
        }
      ],
      "stateMutability": "nonpayable",
      "type": "function"
    },
    {
      "inputs": [
        {
          "internalType": "uint256",
          "name": "sellAmount",
          "type": "uint256"
        },
        {
          "internalType": "uint256",
          "name": "minBuyAmount",
          "type": "uint256"
        },
        {
          "internalType": "bytes",
          "name": "data",
          "type": "bytes"
        }
      ],
      "name": "sellMul",
      "outputs": [
        {
          "internalType": "uint256",
          "name": "buyAmount",
          "type": "uint256"
        }
      ],
      "stateMutability": "nonpayable",
      "type": "function"
    },
    {
      "inputs": [
        {
          "internalType": "address",
          "name": "buyToken",
          "type": "address"
        },
        {
          "internalType": "address",
          "name": "sellToken",
          "type": "address"
        },
        {
          "internalType": "uint24",
          "name": "buyTax",
          "type": "uint24"
        },
        {
          "internalType": "uint24",
          "name": "sellTax",
          "type": "uint24"
        },
        {
          "internalType": "uint256",
          "name": "buyAmount",
          "type": "uint256"
        },
        {
          "internalType": "uint256",
          "name": "maxSellAmount",
          "type": "uint256"
        },
        {
          "internalType": "bytes",
          "name": "data",
          "type": "bytes"
        }
      ],
      "name": "buy",
      "outputs": [
        {
          "internalType": "uint256",
          "name": "sellAmount",
          "type": "uint256"
        }
      ],
      "stateMutability": "nonpayable",
      "type": "function"
    },
    {
      "inputs": [
        {
          "internalType": "address",
          "name": "buyToken",
          "type": "address"
        },
        {
          "internalType": "address",
          "name": "sellToken",
          "type": "address"
        },
        {
          "internalType": "uint24",
          "name": "buyTax",
          "type": "uint24"
        },
        {
          "internalType": "uint24",
          "name": "sellTax",
          "type": "uint24"
        },
        {
          "internalType": "uint256",
          "name": "sellAmount",
          "type": "uint256"
        },
        {
          "internalType": "bytes",
          "name": "data",
          "type": "bytes"
        }
      ],
      "name": "calBuyAmount",
      "outputs": [
        {
          "internalType": "uint256",
          "name": "buyAmount",
          "type": "uint256"
        }
      ],
      "stateMutability": "view",
      "type": "function"
    },
    {
      "inputs": [
        {
          "internalType": "address",
          "name": "buyToken",
          "type": "address"
        },
        {
          "internalType": "address",
          "name": "sellToken",
          "type": "address"
        },
        {
          "internalType": "uint24",
          "name": "buyTax",
          "type": "uint24"
        },
        {
          "internalType": "uint24",
          "name": "sellTax",
          "type": "uint24"
        },
        {
          "internalType": "uint256",
          "name": "buyAmount",
          "type": "uint256"
        },
        {
          "internalType": "bytes",
          "name": "data",
          "type": "bytes"
        }
      ],
      "name": "calSellAmount",
      "outputs": [
        {
          "internalType": "uint256",
          "name": "sellAmount",
          "type": "uint256"
        }
      ],
      "stateMutability": "view",
      "type": "function"
    },
    {
      "inputs": [
        {
          "internalType": "address",
          "name": "desToken",
          "type": "address"
        },
        {
          "internalType": "address",
          "name": "quoteToken",
          "type": "address"
        },
        {
          "internalType": "bytes",
          "name": "data",
          "type": "bytes"
        }
      ],
      "name": "getPrice",
      "outputs": [
        {
          "internalType": "uint256",
          "name": "price",
          "type": "uint256"
        },
        {
          "internalType": "uint8",
          "name": "decimals",
          "type": "uint8"
        }
      ],
      "stateMutability": "view",
      "type": "function"
    },
    {
      "inputs": [
        {
          "internalType": "address",
          "name": "desToken",
          "type": "address"
        },
        {
          "internalType": "address",
          "name": "quoteToken",
          "type": "address"
        },
        {
          "internalType": "uint32",
          "name": "secondsAgo",
          "type": "uint32"
        },
        {
          "internalType": "bytes",
          "name": "data",
          "type": "bytes"
        }
      ],
      "name": "getAvgPrice",
      "outputs": [
        {
          "internalType": "uint256",
          "name": "price",
          "type": "uint256"
        },
        {
          "internalType": "uint8",
          "name": "decimals",
          "type": "uint8"
        },
        {
          "internalType": "uint256",
          "name": "timestamp",
          "type": "uint256"
        }
      ],
      "stateMutability": "view",
      "type": "function"
    },
    {
      "inputs": [
        {
          "internalType": "address",
          "name": "desToken",
          "type": "address"
        },
        {
          "internalType": "address",
          "name": "quoteToken",
          "type": "address"
        },
        {
          "internalType": "uint32",
          "name": "secondsAgo",
          "type": "uint32"
        },
        {
          "internalType": "bytes",
          "name": "dexData",
          "type": "bytes"
        }
      ],
      "name": "getPriceCAvgPriceHAvgPrice",
      "outputs": [
        {
          "internalType": "uint256",
          "name": "price",
          "type": "uint256"
        },
        {
          "internalType": "uint256",
          "name": "cAvgPrice",
          "type": "uint256"
        },
        {
          "internalType": "uint256",
          "name": "hAvgPrice",
          "type": "uint256"
        },
        {
          "internalType": "uint8",
          "name": "decimals",
          "type": "uint8"
        },
        {
          "internalType": "uint256",
          "name": "timestamp",
          "type": "uint256"
        }
      ],
      "stateMutability": "view",
      "type": "function"
    },
    {
      "inputs": [
        {
          "internalType": "address",
          "name": "desToken",
          "type": "address"
        },
        {
          "internalType": "address",
          "name": "quoteToken",
          "type": "address"
        },
        {
          "internalType": "uint32",
          "name": "timeWindow",
          "type": "uint32"
        },
        {
          "internalType": "bytes",
          "name": "data",
          "type": "bytes"
        }
      ],
      "name": "updatePriceOracle",
      "outputs": [
        {
          "internalType": "bool",
          "name": "",
          "type": "bool"
        }
      ],
      "stateMutability": "nonpayable",
      "type": "function"
    },
    {
      "inputs": [
        {
          "internalType": "address",
          "name": "desToken",
          "type": "address"
        },
        {
          "internalType": "address",
          "name": "quoteToken",
          "type": "address"
        },
        {
          "internalType": "bytes",
          "name": "data",
          "type": "bytes"
        }
      ],
      "name": "updateV3Observation",
      "outputs": [],
      "stateMutability": "pure",
      "type": "function"
    }
  ],
  "bytecode": "0x608060405234801561001057600080fd5b50600380546001600160a01b0319163317905561334c806100326000396000f3fe608060405234801561001057600080fd5b506004361061014d5760003560e01c80635c60da1b116100c3578063cbf09bf81161007c578063cbf09bf8146102dd578063cf24406b146102f0578063d522a11e14610303578063e0f1c9c514610316578063f18ef3591461031e578063f851a440146103315761014d565b80635c60da1b14610251578063808914761461025957806396e011971461026c578063a59a36ae14610290578063a96de5bd146102b4578063ca4b208b146102d55761014d565b806329a726131161011557806329a72613146101cf578063355efdd9146101d7578063485cc955146101f85780634a6682bb1461020b5780634dd18bf51461022b5780635962f6131461023e5761014d565b806304e79e2914610152578063080296e4146101675780630e18b6811461019257806315426c971461019a57806326782247146101ba575b600080fd5b610165610160366004612a49565b610339565b005b61017a610175366004612c00565b6103e0565b60405161018993929190613223565b60405180910390f35b610165610490565b6101ad6101a8366004612c00565b610590565b6040516101899190612edc565b6101c26106a9565b6040516101899190612eae565b6101c26106b8565b6101ea6101e5366004612a81565b6106c7565b604051610189929190613212565b610165610206366004612d4a565b610709565b61021e610219366004612ae1565b6107c2565b60405161018991906131e3565b610165610239366004612a49565b61083c565b61021e61024c366004612ae1565b6108f5565b6101c261094e565b61021e610267366004612b6b565b61095d565b61027f61027a366004612a49565b6109c4565b60405161018995949392919061323c565b6102a361029e366004612c00565b6109fb565b6040516101899594939291906131ec565b6102c76102c2366004612e18565b610a92565b604051610189929190612ee7565b6101c2610aba565b6101656102eb366004612c73565b610ac9565b61021e6102fe366004612b6b565b610c22565b61021e610311366004612de0565b610c88565b6101c2610ce7565b61016561032c366004612a81565b610cf6565b6101c2610d0e565b6001546001600160a01b0316331461038f576040805162461bcd60e51b815260206004820152601460248201527331b0b63632b91036bab9ba1031329030b236b4b760611b604482015290519081900360640190fd5b6001600160a01b0381166103be5760405162461bcd60e51b81526004016103b59061303f565b60405180910390fd5b600680546001600160a01b0319166001600160a01b0392909216919091179055565b60006012818061041988886007846103f78a610d1d565b60ff1681526020810191909152604001600020546001600160a01b0316610d50565b6001600160a01b038116600090815260046020818152604092839020835160a081018552815463ffffffff16815260018201549281019290925260028101549382019390935260038301546060820152910154608082015290915061047f898983610e89565b909a94995097509295505050505050565b6002546001600160a01b031633146104d95760405162461bcd60e51b81526004018080602001828103825260228152602001806132d46022913960400191505060405180910390fd5b60018054600280546001600160a01b038082166001600160a01b031980861682179687905590921690925560408051938316808552949092166020840152815190927ff9ffabca9c8276e99321725bcb43fb076a6c66a54b7f21c4e8146d8519b417dc92908290030190a1600254604080516001600160a01b038085168252909216602083015280517fca4f2f25d0898edd99413412fb94012f9e54ec8142f9b093e7720646a95b16a99281900390910190a15050565b6006546000906001600160a01b031633146105bd5760405162461bcd60e51b81526004016103b59061308b565b60006105d18686600760006103f788610d1d565b6001600160a01b0381166000908152600460208181526040808420815160a081018352815463ffffffff168152600182015493810193909352600281015491830191909152600381015460608301529091015460808201529192508061063a8484896012610ec0565b91509150801561069b576001600160a01b0384166000908152600460208181526040928390208551815463ffffffff191663ffffffff9091161781559085015160018201559184015160028301556060840151600383015560808401519101555b93505050505b949350505050565b6002546001600160a01b031681565b6006546001600160a01b031681565b600060126106ff6007836106da86610d1d565b60ff1681526020810191909152604001600020546001600160a01b0316868684611132565b9150935093915050565b6001546001600160a01b031633146107335760405162461bcd60e51b81526004016103b5906131c0565b50600580546001600160a01b03199081166001600160a01b03938416908117909255604080518082019091529182526019602080840191825260036000526007905291517f3be6fd20d5acfde5b873b48692cd31f4d3c7e8ee8a813af4696af8859e5ca6c6805493519390921693169290921761ffff60a01b1916600160a01b61ffff90921691909102179055565b60006107ce8385611289565b9250610825600760006107e085610d1d565b60ff16815260208082019290925260409081016000208151808301909252546001600160a01b0381168252600160a01b900461ffff16918101919091528888866112b9565b90506108318186611289565b979650505050505050565b6001546001600160a01b03163314610892576040805162461bcd60e51b815260206004820152601460248201527331b0b63632b91036bab9ba1031329030b236b4b760611b604482015290519081900360640190fd5b600280546001600160a01b038381166001600160a01b0319831681179093556040805191909216808252602082019390935281517fca4f2f25d0898edd99413412fb94012f9e54ec8142f9b093e7720646a95b16a9929181900390910190a15050565b60006108316007600061090785610d1d565b60ff16815260208082019290925260409081016000208151808301909252546001600160a01b0381168252600160a01b900461ffff169181019190915288888689896113a1565b6000546001600160a01b031681565b6000336109b760078361096f86610d1d565b60ff16815260208082019290925260409081016000208151808301909252546001600160a01b0381168252600160a01b900461ffff16918101919091528a8a888886806114af565b9998505050505050505050565b60046020819052600091825260409091208054600182015460028301546003840154939094015463ffffffff909216939092909185565b6000808060128180610a148a8a6007846103f78c610d1d565b6001600160a01b038116600090815260046020818152604092839020835160a081018552815463ffffffff168152600182015492810192909252600281015493820193909352600383015460608201529101546080820152909150610a7c82828d8d88611801565b929e919d509b5094995097509295505050505050565b6007602052600090815260409020546001600160a01b03811690600160a01b900461ffff1682565b6003546001600160a01b031681565b6001546001600160a01b03163314610b1f576040805162461bcd60e51b815260206004820152601460248201527331b0b63632b91036bab9ba1031329030b236b4b760611b604482015290519081900360640190fd5b81518351148015610b31575080518351145b610b4d5760405162461bcd60e51b81526004016103b590612f32565b60005b8351811015610c1c5760006040518060400160405280858481518110610b7257fe5b60200260200101516001600160a01b03168152602001848481518110610b9457fe5b602002602001015161ffff1681525090508060076000878581518110610bb657fe5b60209081029190910181015160ff1682528181019290925260400160002082518154939092015161ffff16600160a01b0261ffff60a01b196001600160a01b039093166001600160a01b0319909416939093179190911691909117905550600101610b50565b50505050565b6000610c7c60076000610c3485610d1d565b60ff16815260208082019290925260409081016000208151808301909252546001600160a01b0381168252600160a01b900461ffff1691810191909152898987878b8b611a38565b98975050505050505050565b60006106a160076000610c9a85610d1d565b60ff16815260208082019290925260409081016000208151808301909252546001600160a01b0381168252600160a01b900461ffff16918101919091528585610ce286611e11565b611ef2565b6005546001600160a01b031681565b60405162461bcd60e51b81526004016103b5906130f9565b6001546001600160a01b031681565b6000600182511015610d415760405162461bcd60e51b81526004016103b590612f4f565b50602081015160001a5b919050565b6000806000846001600160a01b0316866001600160a01b031610610d75578486610d78565b85855b909250905073ca143ce32fe78f1f7019d7d551a6402fc5350c736001600160a01b0385161415610dff57838282604051602001610db6929190612e32565b60405160208183030381529060405280519060200120604051602001610ddd929190612e59565b6040516020818303038152906040528051906020012060001c92505050610e82565b60405163e6a4390560e01b81526001600160a01b0385169063e6a4390590610e2d9089908990600401612ec2565b60206040518083038186803b158015610e4557600080fd5b505afa158015610e59573d6000803e3d6000fd5b505050506040513d601f19601f82011682018060405250810190610e7d9190612a65565b925050505b9392505050565b805160009063ffffffff166001600160a01b0380851690861610610eb15782604001516106ff565b82602001519150935093915050565b610ec8612896565b600080610ed442611fb0565b90508486600001510163ffffffff168163ffffffff161015610efd578560009250925050611129565b6000876001600160a01b0316630902f1ac6040518163ffffffff1660e01b815260040160606040518083038186803b158015610f3857600080fd5b505afa158015610f4c573d6000803e3d6000fd5b505050506040513d601f19601f82011682018060405250810190610f709190612d82565b925050508163ffffffff168163ffffffff1614610fdb57876001600160a01b031663fff6cae96040518163ffffffff1660e01b8152600401600060405180830381600087803b158015610fc257600080fd5b505af1158015610fd6573d6000803e3d6000fd5b505050505b60008760000151830390506000896001600160a01b0316635909c0d56040518163ffffffff1660e01b815260040160206040518083038186803b15801561102157600080fd5b505afa158015611035573d6000803e3d6000fd5b505050506040513d601f19601f820116820180604052508101906110599190612dc8565b905060008a6001600160a01b0316635a3d54936040518163ffffffff1660e01b815260040160206040518083038186803b15801561109657600080fd5b505afa1580156110aa573d6000803e3d6000fd5b505050506040513d601f19601f820116820180604052508101906110ce9190612dc8565b8a5190915063ffffffff161561110b576110ee828b60600151858b611fc3565b60208b015260808a0151611105908290858b611fc3565b60408b01525b60608a01919091526080890152505063ffffffff1685525083905060015b94509492505050565b600080611140858588610d50565b9050600080826001600160a01b0316630902f1ac6040518163ffffffff1660e01b815260040160606040518083038186803b15801561117e57600080fd5b505afa158015611192573d6000803e3d6000fd5b505050506040513d601f19601f820116820180604052508101906111b69190612d82565b506001600160701b031691506001600160701b03169150826001600160a01b0316630dfe16816040518163ffffffff1660e01b815260040160206040518083038186803b15801561120657600080fd5b505afa15801561121a573d6000803e3d6000fd5b505050506040513d601f19601f8201168201806040525081019061123e9190612a65565b6001600160a01b0316876001600160a01b031614611275576112708161126a8460ff8916600a0a612005565b9061205e565b61069b565b61069b8261126a8360ff8916600a0a612005565b6000620f42406112a86112a18262ffffff86166120bd565b8590612005565b816112af57fe5b0490505b92915050565b6000806112cb85858860000151610d50565b9050600080826001600160a01b0316630902f1ac6040518163ffffffff1660e01b815260040160606040518083038186803b15801561130957600080fd5b505afa15801561131d573d6000803e3d6000fd5b505050506040513d601f19601f820116820180604052508101906113419190612d82565b506001600160701b031691506001600160701b03169150856001600160a01b0316876001600160a01b03161015611391576113878582846113828c8861211a565b6121db565b93505050506106a1565b6113878583836113828c8861211a565b6000806113b387878a60000151610d50565b9050600080826001600160a01b0316630902f1ac6040518163ffffffff1660e01b815260040160606040518083038186803b1580156113f157600080fd5b505afa158015611405573d6000803e3d6000fd5b505050506040513d601f19601f820116820180604052508101906114299190612d82565b506001600160701b031691506001600160701b03169150876001600160a01b0316896001600160a01b03161061147c576114776114668888612284565b83836114728e8861211a565b6122c8565b611495565b6114956114898888612284565b82846114728e8861211a565b93506114a18486612284565b9a9950505050505050505050565b6000806114c188888b60000151610d50565b9050806001600160a01b031663fff6cae96040518163ffffffff1660e01b8152600401600060405180830381600087803b1580156114fe57600080fd5b505af1158015611512573d6000803e3d6000fd5b50505050600080826001600160a01b0316630902f1ac6040518163ffffffff1660e01b815260040160606040518083038186803b15801561155257600080fd5b505afa158015611566573d6000803e3d6000fd5b505050506040513d601f19601f8201168201806040525081019061158a9190612d82565b506001600160701b031691506001600160701b031691506115ad8987858b61235f565b975060008a6001600160a01b03166370a08231876040518263ffffffff1660e01b81526004016115dd9190612eae565b60206040518083038186803b1580156115f557600080fd5b505afa158015611609573d6000803e3d6000fd5b505050506040513d601f19601f8201168201806040525081019061162d9190612dc8565b90506116398c8561211a565b61ffff1660208d01526001600160a01b03808b16908c1610156116d1576116668983858f602001516121db565b60405163022c0d9f60e01b81529095506001600160a01b0385169063022c0d9f9061169a9088906000908b90600401612f04565b600060405180830381600087803b1580156116b457600080fd5b505af11580156116c8573d6000803e3d6000fd5b50505050611748565b6116e18984848f602001516121db565b60405163022c0d9f60e01b81529095506001600160a01b0385169063022c0d9f906117159060009089908b90600401612f04565b600060405180830381600087803b15801561172f57600080fd5b505af1158015611743573d6000803e3d6000fd5b505050505b878510156117685760405162461bcd60e51b81526004016103b590613122565b60006117f0828d6001600160a01b03166370a082318a6040518263ffffffff1660e01b815260040161179a9190612eae565b60206040518083038186803b1580156117b257600080fd5b505afa1580156117c6573d6000803e3d6000fd5b505050506040513d601f19601f820116820180604052508101906117ea9190612dc8565b906120bd565b9d9c50505050505050505050505050565b6000806000806000866001600160a01b0316886001600160a01b031610905060008060008c6001600160a01b0316630902f1ac6040518163ffffffff1660e01b815260040160606040518083038186803b15801561185e57600080fd5b505afa158015611872573d6000803e3d6000fd5b505050506040513d601f19601f820116820180604052508101906118969190612d82565b92506001600160701b031692506001600160701b03169250836118cc576118c78261126a8560ff8d16600a0a612005565b6118e0565b6118e08361126a8460ff8d16600a0a612005565b9750836118f1578b604001516118f7565b8b602001515b8c5190965063ffffffff90811695508116851061191657859650611a28565b8b518103846119a45761199f8e6001600160a01b0316635a3d54936040518163ffffffff1660e01b815260040160206040518083038186803b15801561195b57600080fd5b505afa15801561196f573d6000803e3d6000fd5b505050506040513d601f19601f820116820180604052508101906119939190612dc8565b8e60800151838d611fc3565b611a24565b611a248e6001600160a01b0316635909c0d56040518163ffffffff1660e01b815260040160206040518083038186803b1580156119e057600080fd5b505afa1580156119f4573d6000803e3d6000fd5b505050506040513d601f19601f82011682018060405250810190611a189190612dc8565b8e60600151838d611fc3565b9750505b5050505095509550955095915050565b600080611a4a88888b60000151610d50565b9050806001600160a01b031663fff6cae96040518163ffffffff1660e01b8152600401600060405180830381600087803b158015611a8757600080fd5b505af1158015611a9b573d6000803e3d6000fd5b50505050600080826001600160a01b0316630902f1ac6040518163ffffffff1660e01b815260040160606040518083038186803b158015611adb57600080fd5b505afa158015611aef573d6000803e3d6000fd5b505050506040513d601f19601f82011682018060405250810190611b139190612d82565b506001600160701b031691506001600160701b0316915060008a6001600160a01b03166370a08231336040518263ffffffff1660e01b8152600401611b589190612eae565b60206040518083038186803b158015611b7057600080fd5b505afa158015611b84573d6000803e3d6000fd5b505050506040513d601f19601f82011682018060405250810190611ba89190612dc8565b9050611bb48c8561211a565b61ffff1660208d01526001600160a01b03808b16908c161015611c9657611bea611bde8a89612284565b83858f602001516122c8565b9450611bf68587612284565b945087851115611c185760405162461bcd60e51b81526004016103b59061305b565b611c248a33868861235f565b506001600160a01b03841663022c0d9f611c3e8b8a612284565b6000336040518463ffffffff1660e01b8152600401611c5f93929190612f04565b600060405180830381600087803b158015611c7957600080fd5b505af1158015611c8d573d6000803e3d6000fd5b50505050611d57565b611caf611ca38a89612284565b84848f602001516122c8565b9450611cbb8587612284565b945087851115611cdd5760405162461bcd60e51b81526004016103b59061305b565b611ce98a33868861235f565b506001600160a01b03841663022c0d9f6000611d058c8b612284565b336040518463ffffffff1660e01b8152600401611d2493929190612f04565b600060405180830381600087803b158015611d3e57600080fd5b505af1158015611d52573d6000803e3d6000fd5b505050505b6040516370a0823160e01b81526000906001600160a01b038d16906370a0823190611d86903390600401612eae565b60206040518083038186803b158015611d9e57600080fd5b505afa158015611db2573d6000803e3d6000fd5b505050506040513d601f19601f82011682018060405250810190611dd69190612dc8565b9050611de281836120bd565b8a1115611e015760405162461bcd60e51b81526004016103b590612fcc565b5050505050979650505050505050565b60606000611e1e836123a2565b905060008160ff1660140260050190508084511015611e4f5760405162461bcd60e51b81526004016103b590612ff9565b600560ff831667ffffffffffffffff81118015611e6b57600080fd5b50604051908082528060200260200182016040528015611e95578160200160208202803683370190505b50935060005b8360ff16811015611ee957601481028201868101602001518651606082901c90889085908110611ec757fe5b6001600160a01b03909216602092830291909101909101525050600101611e9b565b50505050919050565b600060015b8251811015611f8f576000836001830381518110611f1157fe5b602002602001015190506000848381518110611f2957fe5b602002602001015190506000600186510384149050600084600114611f4e5730611f50565b335b9050600082611f5f5730611f61565b335b9050611f738b85878d600087876114af565b965082611f7e578699505b505060019093019250611ef7915050565b50828110156106a15760405162461bcd60e51b81526004016103b590613122565b8063ffffffff81168114610d4b57600080fd5b6000611ffc8363ffffffff166070611ff48560ff16600a0a611fee898b6120bd90919063ffffffff16565b90612005565b901c9061205e565b95945050505050565b600082612014575060006112b3565b8282028284828161202157fe5b0414610e825760405162461bcd60e51b81526004018080602001828103825260218152602001806132f66021913960400191505060405180910390fd5b60008082116120b4576040805162461bcd60e51b815260206004820152601a60248201527f536166654d6174683a206469766973696f6e206279207a65726f000000000000604482015290519081900360640190fd5b8183816112af57fe5b600082821115612114576040805162461bcd60e51b815260206004820152601e60248201527f536166654d6174683a207375627472616374696f6e206f766572666c6f770000604482015290519081900360640190fd5b50900390565b81516000906001600160a01b0316733cd1c46068daea5ebb0d3f55f6915b10648062b814156121d0578251604051634c2fc06f60e01b81526121c9916001600160a01b031690634c2fc06f90612174908690600401612eae565b60206040518083038186803b15801561218c57600080fd5b505afa1580156121a0573d6000803e3d6000fd5b505050506040513d601f19601f820116820180604052508101906121c49190612dc8565b6123d1565b90506112b3565b5060208201516112b3565b60008085116121fc5760405162461bcd60e51b81526004016103b5906130c2565b60008411801561220c5750600083115b6122285760405162461bcd60e51b81526004016103b590613190565b600061224461223d61271061ffff86166120bd565b8790612005565b905060006122528286612005565b9050600061226c8361226689612710612005565b906123e2565b905080828161227757fe5b0498975050505050505050565b600080612299620f424062ffffff85166120bd565b905060006122b360016117ea8461226689620f4240612005565b90508181816122be57fe5b0495945050505050565b60008085116122e95760405162461bcd60e51b81526004016103b590613159565b6000841180156122f95750600083115b6123155760405162461bcd60e51b81526004016103b590613190565b6000612327612710611fee8789612005565b9050600061234861233e61271061ffff87166120bd565b611fee878a6120bd565b9050610831600182848161235857fe5b04906123e2565b60006001600160a01b03841630141561238d576123866001600160a01b038616848461243c565b90506106a1565b611ffc6001600160a01b038616858585612664565b60006005825110156123c65760405162461bcd60e51b81526004016103b590612f84565b506024015160001a90565b8061ffff81168114610d4b57600080fd5b600082820183811015610e82576040805162461bcd60e51b815260206004820152601b60248201527f536166654d6174683a206164646974696f6e206f766572666c6f770000000000604482015290519081900360640190fd5b60008115610e82576000846001600160a01b03166370a08231856040518263ffffffff1660e01b815260040180826001600160a01b0316815260200191505060206040518083038186803b15801561249357600080fd5b505afa1580156124a7573d6000803e3d6000fd5b505050506040513d60208110156124bd57600080fd5b5051604080516001600160a01b038781166024830152604480830188905283518084039091018152606490920183526020820180516001600160e01b031663a9059cbb60e01b1781529251825194955090891693919290918291908083835b6020831061253b5780518252601f19909201916020918201910161251c565b6001836020036101000a0380198251168184511680821785525050505050509050019150506000604051808303816000865af19150503d806000811461259d576040519150601f19603f3d011682016040523d82523d6000602084013e6125a2565b606091505b5050506000856001600160a01b03166370a08231866040518263ffffffff1660e01b815260040180826001600160a01b0316815260200191505060206040518083038186803b1580156125f457600080fd5b505afa158015612608573d6000803e3d6000fd5b505050506040513d602081101561261e57600080fd5b5051905081811161265b576040805162461bcd60e51b81526020600482015260026024820152612a2360f11b604482015290519081900360640190fd5b03949350505050565b600081156106a1576000856001600160a01b03166370a08231856040518263ffffffff1660e01b815260040180826001600160a01b0316815260200191505060206040518083038186803b1580156126bb57600080fd5b505afa1580156126cf573d6000803e3d6000fd5b505050506040513d60208110156126e557600080fd5b5051604080516001600160a01b0388811660248301528781166044830152606480830188905283518084039091018152608490920183526020820180516001600160e01b03166323b872dd60e01b17815292518251949550908a1693919290918291908083835b6020831061276b5780518252601f19909201916020918201910161274c565b6001836020036101000a0380198251168184511680821785525050505050509050019150506000604051808303816000865af19150503d80600081146127cd576040519150601f19603f3d011682016040523d82523d6000602084013e6127d2565b606091505b5050506000866001600160a01b03166370a08231866040518263ffffffff1660e01b815260040180826001600160a01b0316815260200191505060206040518083038186803b15801561282457600080fd5b505afa158015612838573d6000803e3d6000fd5b505050506040513d602081101561284e57600080fd5b5051905081811161288c576040805162461bcd60e51b81526020600482015260036024820152622a232360e91b604482015290519081900360640190fd5b0395945050505050565b6040518060a00160405280600063ffffffff168152602001600081526020016000815260200160008152602001600081525090565b600082601f8301126128db578081fd5b813560206128f06128eb8361328b565b613267565b828152818101908583018385028701840188101561290c578586fd5b855b85811015612933578135612921816132a9565b8452928401929084019060010161290e565b5090979650505050505050565b600082601f830112612950578081fd5b813560206129606128eb8361328b565b828152818101908583018385028701840188101561297c578586fd5b855b8581101561293357813561ffff81168114612997578788fd5b8452928401929084019060010161297e565b600082601f8301126129b9578081fd5b813567ffffffffffffffff8111156129cd57fe5b6129e0601f8201601f1916602001613267565b8181528460208386010111156129f4578283fd5b816020850160208301379081016020019190915292915050565b80516001600160701b0381168114610d4b57600080fd5b803562ffffff81168114610d4b57600080fd5b803560ff81168114610d4b57600080fd5b600060208284031215612a5a578081fd5b8135610e82816132a9565b600060208284031215612a76578081fd5b8151610e82816132a9565b600080600060608486031215612a95578182fd5b8335612aa0816132a9565b92506020840135612ab0816132a9565b9150604084013567ffffffffffffffff811115612acb578182fd5b612ad7868287016129a9565b9150509250925092565b60008060008060008060c08789031215612af9578182fd5b8635612b04816132a9565b95506020870135612b14816132a9565b9450612b2260408801612a25565b9350612b3060608801612a25565b92506080870135915060a087013567ffffffffffffffff811115612b52578182fd5b612b5e89828a016129a9565b9150509295509295509295565b600080600080600080600060e0888a031215612b85578485fd5b8735612b90816132a9565b96506020880135612ba0816132a9565b9550612bae60408901612a25565b9450612bbc60608901612a25565b93506080880135925060a0880135915060c088013567ffffffffffffffff811115612be5578182fd5b612bf18a828b016129a9565b91505092959891949750929550565b60008060008060808587031215612c15578182fd5b8435612c20816132a9565b93506020850135612c30816132a9565b92506040850135612c40816132c1565b9150606085013567ffffffffffffffff811115612c5b578182fd5b612c67878288016129a9565b91505092959194509250565b600080600060608486031215612c87578081fd5b833567ffffffffffffffff80821115612c9e578283fd5b818601915086601f830112612cb1578283fd5b81356020612cc16128eb8361328b565b82815281810190858301838502870184018c1015612cdd578788fd5b8796505b84871015612d0657612cf281612a38565b835260019690960195918301918301612ce1565b5097505087013592505080821115612d1c578283fd5b612d28878388016128cb565b93506040860135915080821115612d3d578283fd5b50612ad786828701612940565b60008060408385031215612d5c578182fd5b8235612d67816132a9565b91506020830135612d77816132a9565b809150509250929050565b600080600060608486031215612d96578081fd5b612d9f84612a0e565b9250612dad60208501612a0e565b91506040840151612dbd816132c1565b809150509250925092565b600060208284031215612dd9578081fd5b5051919050565b600080600060608486031215612df4578081fd5b8335925060208401359150604084013567ffffffffffffffff811115612acb578182fd5b600060208284031215612e29578081fd5b610e8282612a38565b6bffffffffffffffffffffffff19606093841b811682529190921b16601482015260280190565b6001600160f81b0319815260609290921b6bffffffffffffffffffffffff1916600183015260158201527efb7f630766e6a796048ea87d01acd3068e8ff67d078148a3fa3f4a84f69bd5603582015260550190565b6001600160a01b0391909116815260200190565b6001600160a01b0392831681529116602082015260400190565b901515815260200190565b6001600160a01b0392909216825261ffff16602082015260400190565b92835260208301919091526001600160a01b0316604082015260806060820181905260009082015260a00190565b60208082526003908201526222a7a960e91b604082015260600190565b6020808252818101527f446578446174613a20746f4465782077726f6e67206461746120666f726d6174604082015260600190565b60208082526028908201527f446578446174613a20746f41727261794c656e6774682077726f6e67206461746040820152671848199bdc9b585d60c21b606082015260800190565b6020808252601390820152721ddc9bdb99c8185b5bdd5b9d08189bdd59da1d606a1b604082015260600190565b60208082526026908201527f446578446174613a20746f556e695632506174682077726f6e67206461746120604082015265199bdc9b585d60d21b606082015260800190565b602080825260029082015261060f60f31b604082015260600190565b6020808252601690820152750e6cad8d840c2dadeeadce840dcdee840cadcdeeaced60531b604082015260600190565b6020808252601d908201527f4f6e6c79206f70656e4c65762063616e20757064617465207072696365000000604082015260600190565b60208082526019908201527f494e53554646494349454e545f494e5055545f414d4f554e5400000000000000604082015260600190565b6020808252600f908201526e139bdd081a5b5c1b195b595b9d1959608a1b604082015260600190565b60208082526018908201527f62757920616d6f756e74206c657373207468616e206d696e0000000000000000604082015260600190565b6020808252601a908201527f494e53554646494349454e545f4f55545055545f414d4f554e54000000000000604082015260600190565b602080825260169082015275494e53554646494349454e545f4c495155494449545960501b604082015260600190565b6020808252600990820152682737ba1030b236b4b760b91b604082015260600190565b90815260200190565b9485526020850193909352604084019190915260ff166060830152608082015260a00190565b91825260ff16602082015260400190565b92835260ff919091166020830152604082015260600190565b63ffffffff959095168552602085019390935260408401919091526060830152608082015260a00190565b60405181810167ffffffffffffffff8111828210171561328357fe5b604052919050565b600067ffffffffffffffff82111561329f57fe5b5060209081020190565b6001600160a01b03811681146132be57600080fd5b50565b63ffffffff811681146132be57600080fdfe6f6e6c792070656e64696e6741646d696e2063616e206163636570742061646d696e536166654d6174683a206d756c7469706c69636174696f6e206f766572666c6f77a264697066735822122014a6b604fdd7661270272a44f8bf527a2ed4a548c4eb28975f562f373df2bfd664736f6c63430007060033",
  "immutableReferences": {},
  "source": "// SPDX-License-Identifier: BUSL-1.1\npragma solidity 0.7.6;\npragma experimental ABIEncoderV2;\n\nimport \"./UniV2ClassDex.sol\";\nimport \"../DexAggregatorInterface.sol\";\nimport \"../../lib/DexData.sol\";\nimport \"../../lib/Utils.sol\";\nimport \"@openzeppelin/contracts/math/SafeMath.sol\";\nimport \"../../DelegateInterface.sol\";\nimport \"../../Adminable.sol\";\n\n/// @title Swap logic on BSC\n/// @author OpenLeverage\n/// @notice Use this contract to swap tokens.\n/// @dev Routers for different swap requests.\ncontract BscDexAggregatorV1 is DelegateInterface, Adminable, DexAggregatorInterface, UniV2ClassDex {\n    using DexData for bytes;\n    using SafeMath for uint;\n\n    mapping(IUniswapV2Pair => V2PriceOracle) public uniV2PriceOracle;\n    IUniswapV2Factory public pancakeFactory;\n    address public openLev;\n    uint8 private constant priceDecimals = 18;\n\n    mapping(uint8 => DexInfo) public dexInfo;\n\n    //pancakeFactory: 0xcA143Ce32Fe78f1f7019d7d551a6402fC5350c73\n    function initialize(\n        IUniswapV2Factory _pancakeFactory,\n        address _unsedFactory\n    ) public {\n        require(msg.sender == admin, \"Not admin\");\n        // Shh - currently unused\n        _unsedFactory;\n        pancakeFactory = _pancakeFactory;\n        dexInfo[DexData.DEX_PANCAKE] = DexInfo(_pancakeFactory, 25);\n    }\n\n    /// @notice Save factories of the dex.\n    /// @param dexName Index of Dex. find list of dex in contracts/lib/DexData.sol.\n    /// @param factoryAddr Factory address of Different dex forked from uniswap.\n    /// @param fees Swap fee collects by dex.\n    function setDexInfo(uint8[] memory dexName, IUniswapV2Factory[] memory factoryAddr, uint16[] memory fees) external override onlyAdmin {\n        require(dexName.length == factoryAddr.length && dexName.length == fees.length, 'EOR');\n        for (uint i = 0; i < dexName.length; i++) {\n            DexInfo memory info = DexInfo(factoryAddr[i], fees[i]);\n            dexInfo[dexName[i]] = info;\n        }\n    }\n\n    /// @dev SetOpenlev address to update dex price\n    function setOpenLev(address _openLev) external onlyAdmin {\n        require(address(0) != _openLev, '0x');\n        openLev = _openLev;\n    }\n\n    /// @notice Sell tokens \n    /// @dev Sell exact amount of token with tax applied\n    /// @param buyToken Address of token transfer from Dex pair\n    /// @param sellToken Address of token transfer into Dex pair\n    /// @param buyTax Tax applyed by buyToken while transfer from Dex pair\n    /// @param sellTax Tax applyed by SellToken while transfer into Dex pair\n    /// @param sellAmount Exact amount to sell\n    /// @param minBuyAmount minmum amount of token to receive.\n    /// @param data Dex to use for swap\n    /// @return buyAmount Exact Amount bought\n    function sell(address buyToken, address sellToken, uint24 buyTax, uint24 sellTax, uint sellAmount, uint minBuyAmount, bytes memory data) external override returns (uint buyAmount){\n        buyTax;\n        sellTax;\n        address payer = msg.sender;\n        buyAmount = uniClassSell(dexInfo[data.toDex()], buyToken, sellToken, sellAmount, minBuyAmount, payer, payer);\n    }\n\n    /// @notice Sell tokens \n    /// @dev Sell exact amount of token through path\n    /// @param sellAmount Exact amount to sell\n    /// @param minBuyAmount minmum amount of token to receive.\n    /// @param data Dex to use for swap and path of the swap\n    /// @return buyAmount Exact amount bought\n    function sellMul(uint sellAmount, uint minBuyAmount, bytes memory data) external override returns (uint buyAmount){\n        buyAmount = uniClassSellMul(dexInfo[data.toDex()], sellAmount, minBuyAmount, data.toUniV2Path());\n    }\n\n    /// @notice Buy tokens \n    /// @dev Buy exact amount of token with tax applied\n    /// @param buyToken Address of token transfer from Dex pair\n    /// @param sellToken Address of token transfer into Dex pair\n    /// @param buyTax Tax applyed by buyToken while transfer from Dex pair\n    /// @param sellTax Tax applyed by sellToken while transfer into Dex pair\n    /// @param buyAmount Exact amount to buy\n    /// @param maxSellAmount maximum amount of token to receive.\n    /// @param data Dex to use for swap\n    /// @return sellAmount Exact amount sold\n    function buy(address buyToken, address sellToken, uint24 buyTax, uint24 sellTax, uint buyAmount, uint maxSellAmount, bytes memory data) external override returns (uint sellAmount){\n        sellAmount = uniClassBuy(dexInfo[data.toDex()], buyToken, sellToken, buyAmount, maxSellAmount, buyTax, sellTax);\n    }\n\n    /// @notice Calculate amount of token to buy \n    /// @dev Calculate exact amount of token to buy with tax applied\n    /// @param buyToken Address of token transfer from Dex pair\n    /// @param sellToken Address of token transfer into Dex pair\n    /// @param buyTax Tax applyed by buyToken while transfer from Dex pair\n    /// @param sellTax Tax applyed by sellToken while transfer into Dex pair\n    /// @param sellAmount Exact amount to sell\n    /// @param data Dex to use for swap\n    /// @return buyAmount Amount of buyToken would bought\n    function calBuyAmount(address buyToken, address sellToken, uint24 buyTax, uint24 sellTax, uint sellAmount, bytes memory data) external view override returns (uint buyAmount) {\n        sellAmount = Utils.toAmountAfterTax(sellAmount, sellTax);\n        buyAmount = uniClassCalBuyAmount(dexInfo[data.toDex()], buyToken, sellToken, sellAmount);\n        buyAmount = Utils.toAmountAfterTax(buyAmount, buyTax);\n    }\n\n    /// @notice Calculate amount of token to sell \n    /// @dev Calculate exact amount of token to sell with tax applied\n    /// @param buyToken Address of token transfer from Dex pair\n    /// @param sellToken Address of token transfer into Dex pair\n    /// @param buyTax Tax applyed by buyToken while transfer from Dex pair\n    /// @param sellTax Tax applyed by SellToken while transfer into Dex pair\n    /// @param buyAmount Exact amount to buy\n    /// @param data Dex to use for swap\n    /// @return sellAmount Amount of sellToken would sold\n    function calSellAmount(address buyToken, address sellToken, uint24 buyTax, uint24 sellTax, uint buyAmount, bytes memory data) external view override returns (uint sellAmount){\n        sellAmount = uniClassCalSellAmount(dexInfo[data.toDex()], buyToken, sellToken, buyAmount, buyTax, sellTax);\n    }\n\n    /// @notice Get price \n    /// @dev Get current price of desToken / quoteToken\n    /// @param desToken Token to be priced\n    /// @param quoteToken Token used for pricing\n    /// @param data Dex to use for swap\n    function getPrice(address desToken, address quoteToken, bytes memory data) external view override returns (uint256 price, uint8 decimals){\n        decimals = priceDecimals;\n        price = uniClassGetPrice(dexInfo[data.toDex()].factory, desToken, quoteToken, decimals);\n    }\n\n    /// @dev Get average price of desToken / quoteToken in the last period of time\n    /// @param desToken Token to be priced\n    /// @param quoteToken Token used for pricing\n    /// @param secondsAgo Time period of the average\n    /// @param data Dex to use for swap\n    function getAvgPrice(address desToken, address quoteToken, uint32 secondsAgo, bytes memory data) external view override returns (uint256 price, uint8 decimals, uint256 timestamp){\n        // Shh - currently unused\n        secondsAgo;\n        decimals = priceDecimals;\n        address pair = getUniClassPair(desToken, quoteToken, dexInfo[data.toDex()].factory);\n        V2PriceOracle memory priceOracle = uniV2PriceOracle[IUniswapV2Pair(pair)];\n        (price, timestamp) = uniClassGetAvgPrice(desToken, quoteToken, priceOracle);\n    }\n\n    /// @notice Fet current and history price\n    /// @param desToken Token to be priced\n    /// @param quoteToken Token used for pricing\n    /// @param secondsAgo not used on BSC\n    /// @param dexData dex parameters\n    /// @return price Real-time price\n    /// @return cAvgPrice Current TWAP price\n    /// @return hAvgPrice Historical TWAP price\n    /// @return decimals Token price decimal\n    /// @return timestamp Last TWAP price update timestamp \n    function getPriceCAvgPriceHAvgPrice(\n        address desToken,\n        address quoteToken,\n        uint32 secondsAgo,\n        bytes memory dexData\n    ) external view override returns (uint price, uint cAvgPrice, uint256 hAvgPrice, uint8 decimals, uint256 timestamp){\n        secondsAgo;\n        decimals = priceDecimals;\n        address pair = getUniClassPair(desToken, quoteToken, dexInfo[dexData.toDex()].factory);\n        V2PriceOracle memory priceOracle = uniV2PriceOracle[IUniswapV2Pair(pair)];\n        (price, cAvgPrice, hAvgPrice, timestamp) = uniClassGetPriceCAvgPriceHAvgPrice(pair, priceOracle, desToken, quoteToken, decimals);\n    }\n\n    /// @dev Update Dex price if not updated over time window\n    /// @param desToken Token to be priced\n    /// @param quoteToken Token used for pricing\n    /// @param timeWindow minmum time gap between two updates\n    /// @param data dex parameters\n    /// @return If updated\n    function updatePriceOracle(address desToken, address quoteToken, uint32 timeWindow, bytes memory data) external override returns (bool){\n        require(msg.sender == openLev, \"Only openLev can update price\");\n        address pair = getUniClassPair(desToken, quoteToken, dexInfo[data.toDex()].factory);\n        V2PriceOracle memory priceOracle = uniV2PriceOracle[IUniswapV2Pair(pair)];\n        (V2PriceOracle memory updatedPriceOracle, bool updated) = uniClassUpdatePriceOracle(pair, priceOracle, timeWindow, priceDecimals);\n        if (updated) {\n            uniV2PriceOracle[IUniswapV2Pair(pair)] = updatedPriceOracle;\n        }\n        return updated;\n    }\n\n    /// @dev Update UniV3 observations\n    /// @param desToken Token to be priced\n    /// @param quoteToken Token used for pricing\n    /// @param data Dex parameters\n    function updateV3Observation(address desToken, address quoteToken, bytes memory data) external pure override {\n        // Shh - currently unused\n        (desToken,quoteToken, data);\n        revert(\"Not implemented\");\n    }\n}\n",
  "sourcePath": "/home/mingyue/Smartian/Web3Bugs/contracts/72/openleverage-contracts/contracts/dex/bsc/BscDexAggregatorV1.sol",
  "compiler": {
    "name": "solc",
    "version": "0.7.6+commit.7338295f.Emscripten.clang"
  },
  "schemaVersion": "3.4.16",
  "updatedAt": "2025-02-26T03:47:59.454Z",
  "devdoc": {
    "author": "OpenLeverage",
    "details": "Routers for different swap requests.",
    "kind": "dev",
    "methods": {
      "buy(address,address,uint24,uint24,uint256,uint256,bytes)": {
        "details": "Buy exact amount of token with tax applied",
        "params": {
          "buyAmount": "Exact amount to buy",
          "buyTax": "Tax applyed by buyToken while transfer from Dex pair",
          "buyToken": "Address of token transfer from Dex pair",
          "data": "Dex to use for swap",
          "maxSellAmount": "maximum amount of token to receive.",
          "sellTax": "Tax applyed by sellToken while transfer into Dex pair",
          "sellToken": "Address of token transfer into Dex pair"
        },
        "returns": {
          "sellAmount": "Exact amount sold"
        }
      },
      "calBuyAmount(address,address,uint24,uint24,uint256,bytes)": {
        "details": "Calculate exact amount of token to buy with tax applied",
        "params": {
          "buyTax": "Tax applyed by buyToken while transfer from Dex pair",
          "buyToken": "Address of token transfer from Dex pair",
          "data": "Dex to use for swap",
          "sellAmount": "Exact amount to sell",
          "sellTax": "Tax applyed by sellToken while transfer into Dex pair",
          "sellToken": "Address of token transfer into Dex pair"
        },
        "returns": {
          "buyAmount": "Amount of buyToken would bought"
        }
      },
      "calSellAmount(address,address,uint24,uint24,uint256,bytes)": {
        "details": "Calculate exact amount of token to sell with tax applied",
        "params": {
          "buyAmount": "Exact amount to buy",
          "buyTax": "Tax applyed by buyToken while transfer from Dex pair",
          "buyToken": "Address of token transfer from Dex pair",
          "data": "Dex to use for swap",
          "sellTax": "Tax applyed by SellToken while transfer into Dex pair",
          "sellToken": "Address of token transfer into Dex pair"
        },
        "returns": {
          "sellAmount": "Amount of sellToken would sold"
        }
      },
      "getAvgPrice(address,address,uint32,bytes)": {
        "details": "Get average price of desToken / quoteToken in the last period of time",
        "params": {
          "data": "Dex to use for swap",
          "desToken": "Token to be priced",
          "quoteToken": "Token used for pricing",
          "secondsAgo": "Time period of the average"
        }
      },
      "getPrice(address,address,bytes)": {
        "details": "Get current price of desToken / quoteToken",
        "params": {
          "data": "Dex to use for swap",
          "desToken": "Token to be priced",
          "quoteToken": "Token used for pricing"
        }
      },
      "getPriceCAvgPriceHAvgPrice(address,address,uint32,bytes)": {
        "params": {
          "desToken": "Token to be priced",
          "dexData": "dex parameters",
          "quoteToken": "Token used for pricing",
          "secondsAgo": "not used on BSC"
        },
        "returns": {
          "cAvgPrice": "Current TWAP price",
          "decimals": "Token price decimal",
          "hAvgPrice": "Historical TWAP price",
          "price": "Real-time price",
          "timestamp": "Last TWAP price update timestamp "
        }
      },
      "sell(address,address,uint24,uint24,uint256,uint256,bytes)": {
        "details": "Sell exact amount of token with tax applied",
        "params": {
          "buyTax": "Tax applyed by buyToken while transfer from Dex pair",
          "buyToken": "Address of token transfer from Dex pair",
          "data": "Dex to use for swap",
          "minBuyAmount": "minmum amount of token to receive.",
          "sellAmount": "Exact amount to sell",
          "sellTax": "Tax applyed by SellToken while transfer into Dex pair",
          "sellToken": "Address of token transfer into Dex pair"
        },
        "returns": {
          "buyAmount": "Exact Amount bought"
        }
      },
      "sellMul(uint256,uint256,bytes)": {
        "details": "Sell exact amount of token through path",
        "params": {
          "data": "Dex to use for swap and path of the swap",
          "minBuyAmount": "minmum amount of token to receive.",
          "sellAmount": "Exact amount to sell"
        },
        "returns": {
          "buyAmount": "Exact amount bought"
        }
      },
      "setDexInfo(uint8[],address[],uint16[])": {
        "params": {
          "dexName": "Index of Dex. find list of dex in contracts/lib/DexData.sol.",
          "factoryAddr": "Factory address of Different dex forked from uniswap.",
          "fees": "Swap fee collects by dex."
        }
      },
      "setOpenLev(address)": {
        "details": "SetOpenlev address to update dex price"
      },
      "updatePriceOracle(address,address,uint32,bytes)": {
        "details": "Update Dex price if not updated over time window",
        "params": {
          "data": "dex parameters",
          "desToken": "Token to be priced",
          "quoteToken": "Token used for pricing",
          "timeWindow": "minmum time gap between two updates"
        },
        "returns": {
          "_0": "If updated"
        }
      },
      "updateV3Observation(address,address,bytes)": {
        "details": "Update UniV3 observations",
        "params": {
          "data": "Dex parameters",
          "desToken": "Token to be priced",
          "quoteToken": "Token used for pricing"
        }
      }
    },
    "title": "Swap logic on BSC",
    "version": 1
  },
  "userdoc": {
    "kind": "user",
    "methods": {
      "buy(address,address,uint24,uint24,uint256,uint256,bytes)": {
        "notice": "Buy tokens "
      },
      "calBuyAmount(address,address,uint24,uint24,uint256,bytes)": {
        "notice": "Calculate amount of token to buy "
      },
      "calSellAmount(address,address,uint24,uint24,uint256,bytes)": {
        "notice": "Calculate amount of token to sell "
      },
      "getPrice(address,address,bytes)": {
        "notice": "Get price "
      },
      "getPriceCAvgPriceHAvgPrice(address,address,uint32,bytes)": {
        "notice": "Fet current and history price"
      },
      "implementation()": {
        "notice": "Implementation address for this contract"
      },
      "sell(address,address,uint24,uint24,uint256,uint256,bytes)": {
        "notice": "Sell tokens "
      },
      "sellMul(uint256,uint256,bytes)": {
        "notice": "Sell tokens "
      },
      "setDexInfo(uint8[],address[],uint16[])": {
        "notice": "Save factories of the dex."
      }
    },
    "notice": "Use this contract to swap tokens.",
    "version": 1
  }
}