{
  "contractName": "ControllerV1",
  "abi": [
    {
      "inputs": [],
      "stateMutability": "nonpayable",
      "type": "constructor"
    },
    {
      "anonymous": false,
      "inputs": [
        {
          "indexed": false,
          "internalType": "address",
          "name": "pool",
          "type": "address"
        },
        {
          "indexed": false,
          "internalType": "uint256",
          "name": "supplyAmount",
          "type": "uint256"
        },
        {
          "indexed": false,
          "internalType": "uint256",
          "name": "borrowerAmount",
          "type": "uint256"
        },
        {
          "indexed": false,
          "internalType": "uint64",
          "name": "startTime",
          "type": "uint64"
        },
        {
          "indexed": false,
          "internalType": "uint64",
          "name": "duration",
          "type": "uint64"
        },
        {
          "indexed": false,
          "internalType": "uint256",
          "name": "newSupplyBorrowBalance",
          "type": "uint256"
        }
      ],
      "name": "Distribution2Pool",
      "type": "event"
    },
    {
      "anonymous": false,
      "inputs": [
        {
          "indexed": false,
          "internalType": "address",
          "name": "token0",
          "type": "address"
        },
        {
          "indexed": false,
          "internalType": "address",
          "name": "pool0",
          "type": "address"
        },
        {
          "indexed": false,
          "internalType": "address",
          "name": "token1",
          "type": "address"
        },
        {
          "indexed": false,
          "internalType": "address",
          "name": "pool1",
          "type": "address"
        },
        {
          "indexed": false,
          "internalType": "uint16",
          "name": "marketId",
          "type": "uint16"
        },
        {
          "indexed": false,
          "internalType": "uint16",
          "name": "marginLimit",
          "type": "uint16"
        },
        {
          "indexed": false,
          "internalType": "bytes",
          "name": "dexData",
          "type": "bytes"
        }
      ],
      "name": "LPoolPairCreated",
      "type": "event"
    },
    {
      "anonymous": false,
      "inputs": [
        {
          "indexed": false,
          "internalType": "uint256",
          "name": "marketId",
          "type": "uint256"
        },
        {
          "indexed": false,
          "internalType": "address",
          "name": "liquidator",
          "type": "address"
        },
        {
          "indexed": false,
          "internalType": "uint256",
          "name": "reward",
          "type": "uint256"
        },
        {
          "indexed": false,
          "internalType": "uint256",
          "name": "newExtraBalance",
          "type": "uint256"
        }
      ],
      "name": "LiquidateReward",
      "type": "event"
    },
    {
      "anonymous": false,
      "inputs": [
        {
          "indexed": false,
          "internalType": "address",
          "name": "oldAdmin",
          "type": "address"
        },
        {
          "indexed": false,
          "internalType": "address",
          "name": "newAdmin",
          "type": "address"
        }
      ],
      "name": "NewAdmin",
      "type": "event"
    },
    {
      "anonymous": false,
      "inputs": [
        {
          "indexed": false,
          "internalType": "uint256",
          "name": "moreSupplyBorrowBalance",
          "type": "uint256"
        },
        {
          "indexed": false,
          "internalType": "uint256",
          "name": "moreExtraBalance",
          "type": "uint256"
        },
        {
          "indexed": false,
          "internalType": "uint128",
          "name": "updatePricePer",
          "type": "uint128"
        },
        {
          "indexed": false,
          "internalType": "uint128",
          "name": "liquidatorMaxPer",
          "type": "uint128"
        },
        {
          "indexed": false,
          "internalType": "uint16",
          "name": "liquidatorOLERatio",
          "type": "uint16"
        },
        {
          "indexed": false,
          "internalType": "uint16",
          "name": "xoleRaiseRatio",
          "type": "uint16"
        },
        {
          "indexed": false,
          "internalType": "uint128",
          "name": "xoleRaiseMinAmount",
          "type": "uint128"
        }
      ],
      "name": "NewOLETokenDistribution",
      "type": "event"
    },
    {
      "anonymous": false,
      "inputs": [
        {
          "indexed": false,
          "internalType": "address",
          "name": "oldPendingAdmin",
          "type": "address"
        },
        {
          "indexed": false,
          "internalType": "address",
          "name": "newPendingAdmin",
          "type": "address"
        }
      ],
      "name": "NewPendingAdmin",
      "type": "event"
    },
    {
      "anonymous": false,
      "inputs": [
        {
          "indexed": false,
          "internalType": "address",
          "name": "pool",
          "type": "address"
        },
        {
          "indexed": false,
          "internalType": "address",
          "name": "rewarder",
          "type": "address"
        },
        {
          "indexed": false,
          "internalType": "bool",
          "name": "isBorrow",
          "type": "bool"
        },
        {
          "indexed": false,
          "internalType": "uint256",
          "name": "reward",
          "type": "uint256"
        }
      ],
      "name": "PoolReward",
      "type": "event"
    },
    {
      "anonymous": false,
      "inputs": [
        {
          "indexed": false,
          "internalType": "uint256",
          "name": "marketId",
          "type": "uint256"
        },
        {
          "indexed": false,
          "internalType": "address",
          "name": "updator",
          "type": "address"
        },
        {
          "indexed": false,
          "internalType": "uint256",
          "name": "reward",
          "type": "uint256"
        },
        {
          "indexed": false,
          "internalType": "uint256",
          "name": "newExtraBalance",
          "type": "uint256"
        }
      ],
      "name": "UpdatePriceReward",
      "type": "event"
    },
    {
      "inputs": [],
      "name": "acceptAdmin",
      "outputs": [],
      "stateMutability": "nonpayable",
      "type": "function"
    },
    {
      "inputs": [],
      "name": "admin",
      "outputs": [
        {
          "internalType": "address payable",
          "name": "",
          "type": "address"
        }
      ],
      "stateMutability": "view",
      "type": "function"
    },
    {
      "inputs": [],
      "name": "baseRatePerBlock",
      "outputs": [
        {
          "internalType": "uint256",
          "name": "",
          "type": "uint256"
        }
      ],
      "stateMutability": "view",
      "type": "function"
    },
    {
      "inputs": [],
      "name": "developer",
      "outputs": [
        {
          "internalType": "address payable",
          "name": "",
          "type": "address"
        }
      ],
      "stateMutability": "view",
      "type": "function"
    },
    {
      "inputs": [],
      "name": "dexAggregator",
      "outputs": [
        {
          "internalType": "contract DexAggregatorInterface",
          "name": "",
          "type": "address"
        }
      ],
      "stateMutability": "view",
      "type": "function"
    },
    {
      "inputs": [],
      "name": "implementation",
      "outputs": [
        {
          "internalType": "address",
          "name": "",
          "type": "address"
        }
      ],
      "stateMutability": "view",
      "type": "function"
    },
    {
      "inputs": [],
      "name": "jumpMultiplierPerBlock",
      "outputs": [
        {
          "internalType": "uint256",
          "name": "",
          "type": "uint256"
        }
      ],
      "stateMutability": "view",
      "type": "function"
    },
    {
      "inputs": [],
      "name": "kink",
      "outputs": [
        {
          "internalType": "uint256",
          "name": "",
          "type": "uint256"
        }
      ],
      "stateMutability": "view",
      "type": "function"
    },
    {
      "inputs": [
        {
          "internalType": "contract LPoolInterface",
          "name": "",
          "type": "address"
        },
        {
          "internalType": "bool",
          "name": "",
          "type": "bool"
        },
        {
          "internalType": "address",
          "name": "",
          "type": "address"
        }
      ],
      "name": "lPoolRewardByAccounts",
      "outputs": [
        {
          "internalType": "uint256",
          "name": "rewardPerTokenStored",
          "type": "uint256"
        },
        {
          "internalType": "uint256",
          "name": "rewards",
          "type": "uint256"
        },
        {
          "internalType": "uint256",
          "name": "extraToken",
          "type": "uint256"
        }
      ],
      "stateMutability": "view",
      "type": "function"
    },
    {
      "inputs": [
        {
          "internalType": "contract LPoolInterface",
          "name": "",
          "type": "address"
        },
        {
          "internalType": "bool",
          "name": "",
          "type": "bool"
        }
      ],
      "name": "lpoolDistributions",
      "outputs": [
        {
          "internalType": "uint64",
          "name": "startTime",
          "type": "uint64"
        },
        {
          "internalType": "uint64",
          "name": "endTime",
          "type": "uint64"
        },
        {
          "internalType": "uint64",
          "name": "duration",
          "type": "uint64"
        },
        {
          "internalType": "uint64",
          "name": "lastUpdateTime",
          "type": "uint64"
        },
        {
          "internalType": "uint256",
          "name": "totalRewardAmount",
          "type": "uint256"
        },
        {
          "internalType": "uint256",
          "name": "rewardRate",
          "type": "uint256"
        },
        {
          "internalType": "uint256",
          "name": "rewardPerTokenStored",
          "type": "uint256"
        },
        {
          "internalType": "uint256",
          "name": "extraTotalToken",
          "type": "uint256"
        }
      ],
      "stateMutability": "view",
      "type": "function"
    },
    {
      "inputs": [],
      "name": "lpoolImplementation",
      "outputs": [
        {
          "internalType": "address",
          "name": "",
          "type": "address"
        }
      ],
      "stateMutability": "view",
      "type": "function"
    },
    {
      "inputs": [
        {
          "internalType": "address",
          "name": "",
          "type": "address"
        },
        {
          "internalType": "address",
          "name": "",
          "type": "address"
        }
      ],
      "name": "lpoolPairs",
      "outputs": [
        {
          "internalType": "address",
          "name": "lpool0",
          "type": "address"
        },
        {
          "internalType": "address",
          "name": "lpool1",
          "type": "address"
        }
      ],
      "stateMutability": "view",
      "type": "function"
    },
    {
      "inputs": [
        {
          "internalType": "address",
          "name": "",
          "type": "address"
        }
      ],
      "name": "lpoolUnAlloweds",
      "outputs": [
        {
          "internalType": "bool",
          "name": "",
          "type": "bool"
        }
      ],
      "stateMutability": "view",
      "type": "function"
    },
    {
      "inputs": [
        {
          "internalType": "uint256",
          "name": "",
          "type": "uint256"
        }
      ],
      "name": "marketExtraDistribution",
      "outputs": [
        {
          "internalType": "bool",
          "name": "",
          "type": "bool"
        }
      ],
      "stateMutability": "view",
      "type": "function"
    },
    {
      "inputs": [
        {
          "internalType": "uint256",
          "name": "",
          "type": "uint256"
        }
      ],
      "name": "marketSuspend",
      "outputs": [
        {
          "internalType": "bool",
          "name": "",
          "type": "bool"
        }
      ],
      "stateMutability": "view",
      "type": "function"
    },
    {
      "inputs": [],
      "name": "multiplierPerBlock",
      "outputs": [
        {
          "internalType": "uint256",
          "name": "",
          "type": "uint256"
        }
      ],
      "stateMutability": "view",
      "type": "function"
    },
    {
      "inputs": [],
      "name": "oleToken",
      "outputs": [
        {
          "internalType": "contract IERC20",
          "name": "",
          "type": "address"
        }
      ],
      "stateMutability": "view",
      "type": "function"
    },
    {
      "inputs": [],
      "name": "oleTokenDistribution",
      "outputs": [
        {
          "internalType": "uint256",
          "name": "supplyBorrowBalance",
          "type": "uint256"
        },
        {
          "internalType": "uint256",
          "name": "extraBalance",
          "type": "uint256"
        },
        {
          "internalType": "uint128",
          "name": "updatePricePer",
          "type": "uint128"
        },
        {
          "internalType": "uint128",
          "name": "liquidatorMaxPer",
          "type": "uint128"
        },
        {
          "internalType": "uint16",
          "name": "liquidatorOLERatio",
          "type": "uint16"
        },
        {
          "internalType": "uint16",
          "name": "xoleRaiseRatio",
          "type": "uint16"
        },
        {
          "internalType": "uint128",
          "name": "xoleRaiseMinAmount",
          "type": "uint128"
        }
      ],
      "stateMutability": "view",
      "type": "function"
    },
    {
      "inputs": [],
      "name": "oleWethDexData",
      "outputs": [
        {
          "internalType": "bytes",
          "name": "",
          "type": "bytes"
        }
      ],
      "stateMutability": "view",
      "type": "function"
    },
    {
      "inputs": [],
      "name": "openLev",
      "outputs": [
        {
          "internalType": "address",
          "name": "",
          "type": "address"
        }
      ],
      "stateMutability": "view",
      "type": "function"
    },
    {
      "inputs": [],
      "name": "pendingAdmin",
      "outputs": [
        {
          "internalType": "address payable",
          "name": "",
          "type": "address"
        }
      ],
      "stateMutability": "view",
      "type": "function"
    },
    {
      "inputs": [
        {
          "internalType": "address payable",
          "name": "newPendingAdmin",
          "type": "address"
        }
      ],
      "name": "setPendingAdmin",
      "outputs": [],
      "stateMutability": "nonpayable",
      "type": "function"
    },
    {
      "inputs": [],
      "name": "suspend",
      "outputs": [
        {
          "internalType": "bool",
          "name": "",
          "type": "bool"
        }
      ],
      "stateMutability": "view",
      "type": "function"
    },
    {
      "inputs": [],
      "name": "wETH",
      "outputs": [
        {
          "internalType": "address",
          "name": "",
          "type": "address"
        }
      ],
      "stateMutability": "view",
      "type": "function"
    },
    {
      "inputs": [],
      "name": "xoleToken",
      "outputs": [
        {
          "internalType": "address",
          "name": "",
          "type": "address"
        }
      ],
      "stateMutability": "view",
      "type": "function"
    },
    {
      "inputs": [
        {
          "internalType": "contract IERC20",
          "name": "_oleToken",
          "type": "address"
        },
        {
          "internalType": "address",
          "name": "_xoleToken",
          "type": "address"
        },
        {
          "internalType": "address",
          "name": "_wETH",
          "type": "address"
        },
        {
          "internalType": "address",
          "name": "_lpoolImplementation",
          "type": "address"
        },
        {
          "internalType": "address",
          "name": "_openlev",
          "type": "address"
        },
        {
          "internalType": "contract DexAggregatorInterface",
          "name": "_dexAggregator",
          "type": "address"
        },
        {
          "internalType": "bytes",
          "name": "_oleWethDexData",
          "type": "bytes"
        }
      ],
      "name": "initialize",
      "outputs": [],
      "stateMutability": "nonpayable",
      "type": "function"
    },
    {
      "inputs": [
        {
          "internalType": "address",
          "name": "token0",
          "type": "address"
        },
        {
          "internalType": "address",
          "name": "token1",
          "type": "address"
        },
        {
          "internalType": "uint16",
          "name": "marginLimit",
          "type": "uint16"
        },
        {
          "internalType": "bytes",
          "name": "dexData",
          "type": "bytes"
        }
      ],
      "name": "createLPoolPair",
      "outputs": [],
      "stateMutability": "nonpayable",
      "type": "function"
    },
    {
      "inputs": [
        {
          "internalType": "address",
          "name": "minter",
          "type": "address"
        },
        {
          "internalType": "uint256",
          "name": "lTokenAmount",
          "type": "uint256"
        }
      ],
      "name": "mintAllowed",
      "outputs": [],
      "stateMutability": "nonpayable",
      "type": "function"
    },
    {
      "inputs": [
        {
          "internalType": "address",
          "name": "from",
          "type": "address"
        },
        {
          "internalType": "address",
          "name": "to",
          "type": "address"
        },
        {
          "internalType": "uint256",
          "name": "lTokenAmount",
          "type": "uint256"
        }
      ],
      "name": "transferAllowed",
      "outputs": [],
      "stateMutability": "nonpayable",
      "type": "function"
    },
    {
      "inputs": [
        {
          "internalType": "address",
          "name": "redeemer",
          "type": "address"
        },
        {
          "internalType": "uint256",
          "name": "lTokenAmount",
          "type": "uint256"
        }
      ],
      "name": "redeemAllowed",
      "outputs": [],
      "stateMutability": "nonpayable",
      "type": "function"
    },
    {
      "inputs": [
        {
          "internalType": "address",
          "name": "borrower",
          "type": "address"
        },
        {
          "internalType": "address",
          "name": "payee",
          "type": "address"
        },
        {
          "internalType": "uint256",
          "name": "borrowAmount",
          "type": "uint256"
        }
      ],
      "name": "borrowAllowed",
      "outputs": [],
      "stateMutability": "nonpayable",
      "type": "function"
    },
    {
      "inputs": [
        {
          "internalType": "address",
          "name": "payer",
          "type": "address"
        },
        {
          "internalType": "address",
          "name": "borrower",
          "type": "address"
        },
        {
          "internalType": "uint256",
          "name": "repayAmount",
          "type": "uint256"
        },
        {
          "internalType": "bool",
          "name": "isEnd",
          "type": "bool"
        }
      ],
      "name": "repayBorrowAllowed",
      "outputs": [],
      "stateMutability": "nonpayable",
      "type": "function"
    },
    {
      "inputs": [
        {
          "internalType": "uint256",
          "name": "marketId",
          "type": "uint256"
        },
        {
          "internalType": "address",
          "name": "liquidator",
          "type": "address"
        },
        {
          "internalType": "uint256",
          "name": "liquidateAmount",
          "type": "uint256"
        },
        {
          "internalType": "bytes",
          "name": "dexData",
          "type": "bytes"
        }
      ],
      "name": "liquidateAllowed",
      "outputs": [],
      "stateMutability": "nonpayable",
      "type": "function"
    },
    {
      "inputs": [
        {
          "internalType": "uint256",
          "name": "marketId",
          "type": "uint256"
        }
      ],
      "name": "marginTradeAllowed",
      "outputs": [
        {
          "internalType": "bool",
          "name": "",
          "type": "bool"
        }
      ],
      "stateMutability": "view",
      "type": "function"
    },
    {
      "inputs": [
        {
          "internalType": "uint256",
          "name": "marketId",
          "type": "uint256"
        }
      ],
      "name": "updatePriceAllowed",
      "outputs": [],
      "stateMutability": "nonpayable",
      "type": "function"
    },
    {
      "inputs": [
        {
          "internalType": "contract LPoolInterface",
          "name": "lpool",
          "type": "address"
        },
        {
          "internalType": "bool",
          "name": "isBorrow",
          "type": "bool"
        }
      ],
      "name": "lastTimeRewardApplicable",
      "outputs": [
        {
          "internalType": "uint256",
          "name": "",
          "type": "uint256"
        }
      ],
      "stateMutability": "view",
      "type": "function"
    },
    {
      "inputs": [
        {
          "internalType": "contract LPoolInterface",
          "name": "lpool",
          "type": "address"
        },
        {
          "internalType": "address",
          "name": "account",
          "type": "address"
        },
        {
          "internalType": "bool",
          "name": "isBorrow",
          "type": "bool"
        }
      ],
      "name": "earned",
      "outputs": [
        {
          "internalType": "uint256",
          "name": "",
          "type": "uint256"
        }
      ],
      "stateMutability": "view",
      "type": "function"
    },
    {
      "inputs": [
        {
          "internalType": "contract LPoolInterface[]",
          "name": "lpools",
          "type": "address[]"
        },
        {
          "internalType": "address",
          "name": "account",
          "type": "address"
        }
      ],
      "name": "getSupplyRewards",
      "outputs": [],
      "stateMutability": "nonpayable",
      "type": "function"
    },
    {
      "inputs": [
        {
          "internalType": "uint256",
          "name": "moreSupplyBorrowBalance",
          "type": "uint256"
        },
        {
          "internalType": "uint256",
          "name": "moreExtraBalance",
          "type": "uint256"
        },
        {
          "internalType": "uint128",
          "name": "updatePricePer",
          "type": "uint128"
        },
        {
          "internalType": "uint128",
          "name": "liquidatorMaxPer",
          "type": "uint128"
        },
        {
          "internalType": "uint16",
          "name": "liquidatorOLERatio",
          "type": "uint16"
        },
        {
          "internalType": "uint16",
          "name": "xoleRaiseRatio",
          "type": "uint16"
        },
        {
          "internalType": "uint128",
          "name": "xoleRaiseMinAmount",
          "type": "uint128"
        }
      ],
      "name": "setOLETokenDistribution",
      "outputs": [],
      "stateMutability": "nonpayable",
      "type": "function"
    },
    {
      "inputs": [
        {
          "internalType": "address",
          "name": "pool",
          "type": "address"
        },
        {
          "internalType": "uint256",
          "name": "supplyAmount",
          "type": "uint256"
        },
        {
          "internalType": "uint256",
          "name": "borrowAmount",
          "type": "uint256"
        },
        {
          "internalType": "uint64",
          "name": "startTime",
          "type": "uint64"
        },
        {
          "internalType": "uint64",
          "name": "duration",
          "type": "uint64"
        }
      ],
      "name": "distributeRewards2Pool",
      "outputs": [],
      "stateMutability": "nonpayable",
      "type": "function"
    },
    {
      "inputs": [
        {
          "internalType": "address",
          "name": "pool",
          "type": "address"
        },
        {
          "internalType": "uint256",
          "name": "supplyAmount",
          "type": "uint256"
        },
        {
          "internalType": "uint256",
          "name": "borrowAmount",
          "type": "uint256"
        }
      ],
      "name": "distributeRewards2PoolMore",
      "outputs": [],
      "stateMutability": "nonpayable",
      "type": "function"
    },
    {
      "inputs": [
        {
          "internalType": "uint256[]",
          "name": "marketIds",
          "type": "uint256[]"
        },
        {
          "internalType": "bool",
          "name": "isDistribution",
          "type": "bool"
        }
      ],
      "name": "distributeExtraRewards2Markets",
      "outputs": [],
      "stateMutability": "nonpayable",
      "type": "function"
    },
    {
      "inputs": [
        {
          "internalType": "address",
          "name": "_lpoolImplementation",
          "type": "address"
        }
      ],
      "name": "setLPoolImplementation",
      "outputs": [],
      "stateMutability": "nonpayable",
      "type": "function"
    },
    {
      "inputs": [
        {
          "internalType": "address",
          "name": "_openlev",
          "type": "address"
        }
      ],
      "name": "setOpenLev",
      "outputs": [],
      "stateMutability": "nonpayable",
      "type": "function"
    },
    {
      "inputs": [
        {
          "internalType": "contract DexAggregatorInterface",
          "name": "_dexAggregator",
          "type": "address"
        }
      ],
      "name": "setDexAggregator",
      "outputs": [],
      "stateMutability": "nonpayable",
      "type": "function"
    },
    {
      "inputs": [
        {
          "internalType": "uint256",
          "name": "_baseRatePerBlock",
          "type": "uint256"
        },
        {
          "internalType": "uint256",
          "name": "_multiplierPerBlock",
          "type": "uint256"
        },
        {
          "internalType": "uint256",
          "name": "_jumpMultiplierPerBlock",
          "type": "uint256"
        },
        {
          "internalType": "uint256",
          "name": "_kink",
          "type": "uint256"
        }
      ],
      "name": "setInterestParam",
      "outputs": [],
      "stateMutability": "nonpayable",
      "type": "function"
    },
    {
      "inputs": [
        {
          "internalType": "address",
          "name": "lpool",
          "type": "address"
        },
        {
          "internalType": "bool",
          "name": "unAllowed",
          "type": "bool"
        }
      ],
      "name": "setLPoolUnAllowed",
      "outputs": [],
      "stateMutability": "nonpayable",
      "type": "function"
    },
    {
      "inputs": [
        {
          "internalType": "bool",
          "name": "_uspend",
          "type": "bool"
        }
      ],
      "name": "setSuspend",
      "outputs": [],
      "stateMutability": "nonpayable",
      "type": "function"
    },
    {
      "inputs": [
        {
          "internalType": "uint256",
          "name": "marketId",
          "type": "uint256"
        },
        {
          "internalType": "bool",
          "name": "suspend",
          "type": "bool"
        }
      ],
      "name": "setMarketSuspend",
      "outputs": [],
      "stateMutability": "nonpayable",
      "type": "function"
    },
    {
      "inputs": [
        {
          "internalType": "bytes",
          "name": "_oleWethDexData",
          "type": "bytes"
        }
      ],
      "name": "setOleWethDexData",
      "outputs": [],
      "stateMutability": "nonpayable",
      "type": "function"
    }
  ],
  "bytecode": "0x608060405234801561001057600080fd5b50600380546001600160a01b03191633179055615328806100326000396000f3fe608060405234801561001057600080fd5b50600436106102d65760003560e01c8063815ad0d111610182578063cf6e2504116100e9578063ebbeb858116100a2578063f24286211161007c578063f242862114610623578063f851a4401461062b578063fd2da33914610633578063ff125c8a1461063b576102d6565b8063ebbeb858146105e6578063ec04977e14610608578063f14039de1461061b576102d6565b8063cf6e25041461057f578063cff2a7fb14610592578063da3d454c146105a5578063e1798a13146105b8578063e6400bbe146105cb578063e7eac1b0146105d3576102d6565b8063bae9c55c1161013b578063bae9c55c14610518578063bc687bd01461052b578063bffc62c31461053e578063c29dc3dd14610551578063ca4b208b14610564578063cd77b1ac1461056c576102d6565b8063815ad0d1146104bc578063846587c2146104cf5780638726bb89146104e257806395a21aec146104ea578063a33474a9146104fd578063b9f9850a14610510576102d6565b806353e083a81161024157806364adff09116101fa5780637532fbd6116101d45780637532fbd61461046557806377daf7eb1461048c57806378b026781461049f5780637c21d5e0146104b4576102d6565b806364adff091461042a5780636f1fd4fe146104325780636fcf510314610452576102d6565b806353e083a8146103c6578063541eac3b146103ce57806355f53aa5146103e157806355fea300146103f457806357739dc51461040f5780635c60da1b14610422576102d6565b80632678224711610293578063267822471461034f578063270f37261461035757806329a726131461036a57806338643b06146103725780633df31a5c146103925780634dd18bf5146103b3576102d6565b806304e79e29146102db57806309644e98146102f05780630cd07c33146103035780630e18b681146103165780630f09e2321461031e5780631ce9934714610331575b600080fd5b6102ee6102e936600461366f565b61064e565b005b6102ee6102fe366004613775565b6106ec565b6102ee610311366004613c2e565b610742565b6102ee610941565b6102ee61032c36600461392a565b610a41565b610339610af2565b6040516103469190613d7e565b60405180910390f35b610339610b01565b6102ee6103653660046137c7565b610b10565b610339610b99565b61038561038036600461366f565b610ba8565b6040516103469190613fda565b6103a56103a036600461368b565b610bbd565b604051610346929190613d92565b6102ee6103c136600461366f565b610bee565b610339610c9e565b6102ee6103dc36600461366f565b610cad565b6103856103ef366004613b92565b610d42565b6103fc610da7565b6040516103469796959493929190614348565b6102ee61041d3660046137f4565b610de6565b610339610e4b565b610339610e5a565b610445610440366004613af8565b610e69565b604051610346919061431b565b6102ee610460366004613a14565b610eaa565b6104786104733660046137c7565b610f1f565b60405161034698979695949392919061439e565b6102ee61049a3660046139dc565b610f80565b6104a7610ffc565b6040516103469190613fe5565b61033961108a565b6103856104ca366004613b92565b611099565b6102ee6104dd366004613b92565b6110ae565b61044561118b565b6102ee6104f8366004613a4e565b611191565b6102ee61050b366004613ca9565b61123a565b6104456112f6565b6102ee610526366004613c0a565b6112fc565b6102ee6105393660046136c3565b61137a565b6102ee61054c3660046138ab565b611a38565b6102ee61055f366004613853565b611ced565b610339612052565b6102ee61057a3660046137f4565b612061565b6102ee61058d36600461381f565b6120a7565b6102ee6105a036600461366f565b612258565b6102ee6105b3366004613735565b6122ed565b6102ee6105c6366004613bc2565b612426565b610385612638565b6103856105e1366004613b92565b612648565b6105f96105f4366004613b37565b61265d565b60405161034693929190614388565b6104456106163660046137c7565b61268f565b6104456126d9565b6103396126df565b6103396126ee565b6104456126fd565b6102ee610649366004613735565b612703565b6001546001600160a01b0316331461069b576040805162461bcd60e51b815260206004820152601460248201526000805160206152b2833981519152604482015290519081900360640190fd5b6001600160a01b0381166106ca5760405162461bcd60e51b81526004016106c19061402e565b60405180910390fd5b600d80546001600160a01b0319166001600160a01b0392909216919091179055565b801561071f57600d546001600160a01b0385811691161461071f5760405162461bcd60e51b81526004016106c1906142d0565b61072b3384600161271a565b1561073c5761073c3384600161282d565b50505050565b6001546001600160a01b0316331461078f576040805162461bcd60e51b815260206004820152601460248201526000805160206152b2833981519152604482015290519081900360640190fd5b600f5460009061079f90896128e3565b6010549091506000906107b290896128e3565b905060006107c082846128e3565b600480546040516370a0823160e01b815292935083926001600160a01b03909116916370a08231916107f491309101613d7e565b60206040518083038186803b15801561080c57600080fd5b505afa158015610820573d6000803e3d6000fd5b505050506040513d601f19601f820116820180604052508101906108449190613baa565b10156108625760405162461bcd60e51b81526004016106c190614079565b600f8390556010829055601180546fffffffffffffffffffffffffffffffff19166001600160801b038a8116919091178116600160801b8a831602179091556012805461ffff191661ffff8981169190911763ffff0000191662010000918916919091021773ffffffffffffffffffffffffffffffff000000001916640100000000928716929092029190911790556040517fe2e6ab174f916d54d7486c14bb76215da5c7fde04fa9afad9a2d8f17007e47a79061092d908c908c908c908c908c908c908c90614348565b60405180910390a150505050505050505050565b6002546001600160a01b0316331461098a5760405162461bcd60e51b815260040180806020018281038252602281526020018061526f6022913960400191505060405180910390fd5b60018054600280546001600160a01b038082166001600160a01b031980861682179687905590921690925560408051938316808552949092166020840152815190927ff9ffabca9c8276e99321725bcb43fb076a6c66a54b7f21c4e8146d8519b417dc92908290030190a1600254604080516001600160a01b038085168252909216602083015280517fca4f2f25d0898edd99413412fb94012f9e54ec8142f9b093e7720646a95b16a99281900390910190a15050565b6001546001600160a01b0316331480610a6457506003546001600160a01b031633145b610a9f5760405162461bcd60e51b81526004018080602001828103825260218152602001806152d26021913960400191505060405180910390fd5b60005b8251811015610aed578160146000858481518110610abc57fe5b6020908102919091018101518252810191909152604001600020805460ff1916911515919091179055600101610aa2565b505050565b6007546001600160a01b031681565b6002546001600160a01b031681565b6001546001600160a01b0316331480610b3357506003546001600160a01b031633145b610b6e5760405162461bcd60e51b81526004018080602001828103825260218152602001806152d26021913960400191505060405180910390fd5b6001600160a01b03919091166000908152601660205260409020805460ff1916911515919091179055565b600d546001600160a01b031681565b60166020526000908152604090205460ff1681565b6013602090815260009283526040808420909152908252902080546001909101546001600160a01b03918216911682565b6001546001600160a01b03163314610c3b576040805162461bcd60e51b815260206004820152601460248201526000805160206152b2833981519152604482015290519081900360640190fd5b600280546001600160a01b038381166001600160a01b0319831681179093556040805191909216808252602082019390935281517fca4f2f25d0898edd99413412fb94012f9e54ec8142f9b093e7720646a95b16a9929181900390910190a15050565b6004546001600160a01b031681565b6001546001600160a01b03163314610cfa576040805162461bcd60e51b815260206004820152601460248201526000805160206152b2833981519152604482015290519081900360640190fd5b6001600160a01b038116610d205760405162461bcd60e51b81526004016106c19061402e565b600780546001600160a01b0319166001600160a01b0392909216919091179055565b600e54600090600160a01b900460ff1615610d6f5760405162461bcd60e51b81526004016106c190614183565b60008281526015602052604090205460ff1615610d9e5760405162461bcd60e51b81526004016106c190614283565b5060015b919050565b600f546010546011546012546001600160801b0380831692600160801b900481169161ffff808216926201000083049091169164010000000090041687565b3360009081526016602052604090205460ff1615610e165760405162461bcd60e51b81526004016106c190614134565b600e54600160a01b900460ff1615610e405760405162461bcd60e51b81526004016106c190614183565b610aed33838361293d565b6000546001600160a01b031681565b6005546001600160a01b031681565b6000610e758483612aed565b1580610e885750610e868483612b1c565b155b15610e9557506000610ea3565b610ea0848484612b52565b90505b9392505050565b6001546001600160a01b0316331480610ecd57506003546001600160a01b031633145b610f085760405162461bcd60e51b81526004018080602001828103825260218152602001806152d26021913960400191505060405180910390fd5b8051610f1b90600c9060208401906134aa565b5050565b6017602090815260009283526040808420909152908252902080546001820154600283015460038401546004909401546001600160401b0380851695600160401b8604821695600160801b8104831695600160c01b90910490921693919288565b6001546001600160a01b0316331480610fa357506003546001600160a01b031633145b610fde5760405162461bcd60e51b81526004018080602001828103825260218152602001806152d26021913960400191505060405180910390fd5b600e8054911515600160a01b0260ff60a01b19909216919091179055565b600c805460408051602060026001851615610100026000190190941693909304601f810184900484028201840190925281815292918301828280156110825780601f1061105757610100808354040283529160200191611082565b820191906000526020600020905b81548152906001019060200180831161106557829003601f168201915b505050505081565b600e546001600160a01b031681565b60146020526000908152604090205460ff1681565b600d5433906001600160a01b03168114806110d25750600d546001600160a01b0316155b6110ee5760405162461bcd60e51b81526004016106c1906142d0565b60008281526014602052604090205460ff1661110957610f1b565b6011546010546001600160801b03909116908111156111285750610f1b565b6111323282612cfa565b15610aed576010546111449082612e17565b60108190556040517fbedfb35bad931fe70505852894e376f9ba03d2a39271d9ed1aa26999e1bdef1e9161117e9186913291869190614324565b60405180910390a1505050565b60095481565b6001546001600160a01b031633146111bb5760405162461bcd60e51b81526004016106c1906142ad565b600480546001600160a01b03199081166001600160a01b038a811691909117909255600580548216898416179055600680548216888416179055600780548216878416179055600d80548216868416179055600e8054909116918416919091179055805161123090600c9060208401906134aa565b5050505050505050565b6001546001600160a01b03163314611287576040805162461bcd60e51b815260206004820152601460248201526000805160206152b2833981519152604482015290519081900360640190fd5b6509184e72a000841080156112a157506509184e72a00083105b80156112b257506509184e72a00082105b80156112c65750670de0b6b3a76400008111155b6112e25760405162461bcd60e51b81526004016106c1906142fe565b600893909355600991909155600a55600b55565b600a5481565b6001546001600160a01b031633148061131f57506003546001600160a01b031633145b61135a5760405162461bcd60e51b81526004018080602001828103825260218152602001806152d26021913960400191505060405180910390fd5b600091825260156020526040909120805460ff1916911515919091179055565b826001600160a01b0316846001600160a01b031614156113ac5760405162461bcd60e51b81526004016106c1906140a5565b6001600160a01b038481166000908152601360209081526040808320878516845290915290205416158061140557506001600160a01b038381166000908152601360209081526040808320888516845290915290205416155b6114215760405162461bcd60e51b81526004016106c1906141d3565b60006040518060c00160405280866001600160a01b03168152602001856001600160a01b031681526020018461ffff1681526020018381526020016040518060400160405280601381526020017227b832b72632bb32b930b3b290262a37b5b2b760691b815250815260200160405180604001604052806006815260200165262a37b5b2b760d11b815250815250905060006040516114bf90613536565b604051809103906000f0801580156114db573d6000803e3d6000fd5b5082516006549192506001600160a01b0380841692639d867f80929182811691161461150857600061150b565b60015b30600854600954600a54600b54670de0b6b3a76400008b608001518c60a001518d600001516001600160a01b031663313ce5676040518163ffffffff1660e01b815260040160206040518083038186803b15801561156857600080fd5b505afa15801561157c573d6000803e3d6000fd5b505050506040513d601f19601f820116820180604052508101906115a09190613d05565b600160009054906101000a90046001600160a01b0316600760009054906101000a90046001600160a01b03166040518e63ffffffff1660e01b81526004016115f49d9c9b9a99989796959493929190613ed8565b600060405180830381600087803b15801561160e57600080fd5b505af1158015611622573d6000803e3d6000fd5b50505050600060405161163490613536565b604051809103906000f080158015611650573d6000803e3d6000fd5b5060208401516006549192506001600160a01b0380841692639d867f809291828116911614611680576000611683565b60015b30600854600954600a54600b54670de0b6b3a76400008c608001518d60a001518e602001516001600160a01b031663313ce5676040518163ffffffff1660e01b815260040160206040518083038186803b1580156116e057600080fd5b505afa1580156116f4573d6000803e3d6000fd5b505050506040513d601f19601f820116820180604052508101906117189190613d05565b600160009054906101000a90046001600160a01b0316600760009054906101000a90046001600160a01b03166040518e63ffffffff1660e01b815260040161176c9d9c9b9a99989796959493929190613ed8565b600060405180830381600087803b15801561178657600080fd5b505af115801561179a573d6000803e3d6000fd5b505050506040518060400160405280836001600160a01b03168152602001826001600160a01b031681525060136000896001600160a01b03166001600160a01b031681526020019081526020016000206000886001600160a01b03166001600160a01b0316815260200190815260200160002060008201518160000160006101000a8154816001600160a01b0302191690836001600160a01b0316021790555060208201518160010160006101000a8154816001600160a01b0302191690836001600160a01b031602179055509050506040518060400160405280836001600160a01b03168152602001826001600160a01b031681525060136000886001600160a01b03166001600160a01b031681526020019081526020016000206000896001600160a01b03166001600160a01b0316815260200190815260200160002060008201518160000160006101000a8154816001600160a01b0302191690836001600160a01b0316021790555060208201518160010160006101000a8154816001600160a01b0302191690836001600160a01b031602179055509050506000600d60009054906101000a90046001600160a01b03166001600160a01b0316638cc87dcd8484876040015188606001516040518563ffffffff1660e01b81526004016119879493929190613ff8565b602060405180830381600087803b1580156119a157600080fd5b505af11580156119b5573d6000803e3d6000fd5b505050506040513d601f19601f820116820180604052508101906119d99190613b76565b90507fa93d5420526ec2e57967e1a68281eaf60571ea4d504a514ada54acabfa895f518460000151848660200151858589604001518a60600151604051611a269796959493929190613dac565b60405180910390a15050505050505050565b6000805b83811015611ba357611a70858583818110611a5357fe5b9050602002016020810190611a68919061366f565b84600061271a565b15611b9b57600060186000878785818110611a8757fe5b9050602002016020810190611a9c919061366f565b6001600160a01b039081168252602080830193909352604091820160009081208180528452828120918816815292529020600101549050611add83826128e3565b9250600060186000888886818110611af157fe5b9050602002016020810190611b06919061366f565b6001600160a01b039081168252602080830193909352604091820160009081208180528452828120918916815292529020600101557f5b92a4df2395658131c362e19a736809906be41d2409f9a511847b6700f31090868684818110611b6857fe5b9050602002016020810190611b7d919061366f565b85600084604051611b919493929190613e07565b60405180910390a1505b600101611a3c565b5060008111611bc45760405162461bcd60e51b81526004016106c19061415a565b600480546040516370a0823160e01b815283926001600160a01b03909216916370a0823191611bf591309101613d7e565b60206040518083038186803b158015611c0d57600080fd5b505afa158015611c21573d6000803e3d6000fd5b505050506040513d601f19601f82011682018060405250810190611c459190613baa565b1015611c635760405162461bcd60e51b81526004016106c19061422c565b6004805460405163a9059cbb60e01b81526001600160a01b039091169163a9059cbb91611c94918691869101613f82565b602060405180830381600087803b158015611cae57600080fd5b505af1158015611cc2573d6000803e3d6000fd5b505050506040513d601f19601f82011682018060405250810190611ce691906139f8565b5050505050565b6001546001600160a01b03163314611d3a576040805162461bcd60e51b815260206004820152601460248201526000805160206152b2833981519152604482015290519081900360640190fd5b6000841180611d495750600083115b611d655760405162461bcd60e51b81526004016106c1906141fd565b42826001600160401b031611611d8d5760405162461bcd60e51b81526004016106c19061404a565b8315611eb6576001600160a01b03851660009081526017602090815260408083208380529091529020546001600160401b031615611ddd5760405162461bcd60e51b81526004016106c190614255565b611de8848383612e74565b6001600160a01b0386166000908152601760209081526040808320838052825291829020835181549285015193850151606086015167ffffffffffffffff199094166001600160401b039283161767ffffffffffffffff60401b1916600160401b958316959095029490941767ffffffffffffffff60801b1916600160801b94821694909402939093176001600160c01b0316600160c01b93909216929092021781556080820151600182015560a0820151600282015560c0820151600382015560e0909101516004909101555b8215611fe8576001600160a01b0385166000908152601760209081526040808320600184529091529020546001600160401b031615611f075760405162461bcd60e51b81526004016106c190614255565b611f12838383612e74565b6001600160a01b0386166000908152601760209081526040808320600180855290835292819020845181549386015192860151606087015167ffffffffffffffff199095166001600160401b039283161767ffffffffffffffff60401b1916600160401b948316949094029390931767ffffffffffffffff60801b1916600160801b93821693909302929092176001600160c01b0316600160c01b929093169190910291909117815560808301519181019190915560a0820151600282015560c0820151600382015560e0909101516004909101555b6000611ff485856128e3565b600f549091506120049082612e17565b600f8190556040517fb5c098ef122fe390f998b80430691302db5fe496321511104569074c3765b69591612042918991899189918991899190613f9b565b60405180910390a1505050505050565b6003546001600160a01b031681565b600e54600160a01b900460ff161561208b5760405162461bcd60e51b81526004016106c190614183565b612096338383612eed565b15610f1b57610f1b3383600061282d565b6001546001600160a01b031633146120f4576040805162461bcd60e51b815260206004820152601460248201526000805160206152b2833981519152604482015290519081900360640190fd5b60008211806121035750600081115b61211f5760405162461bcd60e51b81526004016106c1906140fd565b811561215f576121318360008061271a565b506001600160a01b0383166000908152601760209081526040808320838052909152902061215f9083613103565b80156121a157612172836000600161271a565b506001600160a01b03831660009081526017602090815260408083206001845290915290206121a19082613103565b60008082116121b15760006121b4565b60015b905060006121c284846128e3565b600f549091506121d29082612e17565b600f8190556001600160a01b03861660009081526017602090815260408083208615158452909152908190205490517fb5c098ef122fe390f998b80430691302db5fe496321511104569074c3765b69592612249928992899289926001600160401b0380821693600160801b909204169190613f9b565b60405180910390a15050505050565b6001546001600160a01b031633146122a5576040805162461bcd60e51b815260206004820152601460248201526000805160206152b2833981519152604482015290519081900360640190fd5b6001600160a01b0381166122cb5760405162461bcd60e51b81526004016106c19061402e565b600e80546001600160a01b0319166001600160a01b0392909216919091179055565b3360009081526016602052604090205460ff161561231d5760405162461bcd60e51b81526004016106c190614134565b600e54600160a01b900460ff16156123475760405162461bcd60e51b81526004016106c190614183565b600d5482906001600160a01b038083169116148061236e5750600d546001600160a01b0316155b61238a5760405162461bcd60e51b81526004016106c1906142d0565b81336001600160a01b031663fb0fc2b66040518163ffffffff1660e01b815260040160206040518083038186803b1580156123c457600080fd5b505afa1580156123d8573d6000803e3d6000fd5b505050506040513d601f19601f820116820180604052508101906123fc9190613baa565b101561241a5760405162461bcd60e51b81526004016106c1906140d0565b611ce63385600161271a565b600d5433906001600160a01b031681148061244a5750600d546001600160a01b0316155b6124665760405162461bcd60e51b81526004016106c1906142d0565b60008581526015602052604090205460ff16156124955760405162461bcd60e51b81526004016106c190614283565b60008581526014602052604090205460ff166124b057611ce6565b601154600160801b90046001600160801b03166124cc57611ce6565b600e546006546004805460405163355efdd960e01b815260009485946001600160a01b039182169463355efdd99461250d94928416931691600c9101613e32565b604080518083038186803b15801561252457600080fd5b505afa158015612538573d6000803e3d6000fd5b505050506040513d601f19601f8201168201806040525081019061255c9190613cda565b601254919350915060009061259e906064906125989061ffff1661259260ff8716600a0a838983620927c0640ba43b7400613224565b90613224565b9061327d565b601154909150600160801b90046001600160801b03168111156125d05750601154600160801b90046001600160801b03165b6010548111156125e257505050611ce6565b6125ec8782612cfa565b15611230576010546125fe9082612e17565b60108190556040517f59af4b0ce14ea03a1bba7140a1ac0fb88b9a96edbdc92b0cf62010dde092250d91611a26918b918b91869190614324565b600e54600160a01b900460ff1681565b60156020526000908152604090205460ff1681565b601860209081526000938452604080852082529284528284209052825290208054600182015460029092015490919083565b6001600160a01b038216600090815260176020908152604080832084151584529091528120546126d0904290600160401b90046001600160401b03166132e4565b90505b92915050565b60085481565b6006546001600160a01b031681565b6001546001600160a01b031681565b600b5481565b61270e338483612eed565b5061073c33838361293d565b60006127268483612aed565b158061273957506127378483612b1c565b155b1561274657506000610ea3565b600061275285846132fa565b6001600160a01b0386166000908152601760209081526040808320871515845290915290206003018190559050612789858461268f565b6001600160a01b0380871660009081526017602090815260408083208815158452909152902080546001600160401b0393909316600160c01b026001600160c01b0390931692909217909155841615612822576127e7858585612b52565b6001600160a01b0386811660009081526018602090815260408083208815158452825280832093891683529290522060018101919091558190555b506001949350505050565b6001600160a01b0380841660009081526018602090815260408083208515158452825280832093861683529290522060010154801561073c5760006128728483612cfa565b90508015611ce6576001600160a01b03808616600090815260186020908152604080832087151584528252808320938816835292905281812060010155517f5b92a4df2395658131c362e19a736809906be41d2409f9a511847b6700f3109090612249908790879087908790613e07565b6000828201838110156126d0576040805162461bcd60e51b815260206004820152601b60248201527f536166654d6174683a206164646974696f6e206f766572666c6f770000000000604482015290519081900360640190fd5b60008061294c8585600061271a565b6005549091506001600160a01b031615806129fa57506012546005546040516370a0823160e01b81526401000000009092046001600160801b0316916001600160a01b03909116906370a08231906129a8908890600401613d7e565b60206040518083038186803b1580156129c057600080fd5b505afa1580156129d4573d6000803e3d6000fd5b505050506040513d601f19601f820116820180604052508101906129f89190613baa565b105b15612a06579050610ea3565b601254600090612a289060649061259890879062010000900461ffff16613224565b6001600160a01b0380881660009081526018602090815260408083208380528252808320938a1683529290522060020154909150612a6690826128e3565b6001600160a01b0380881660008181526018602090815260408083208380528252808320948b1683529381528382206002019490945590815260178352818120818052909252902060040154612abc90826128e3565b6001600160a01b03871660009081526017602090815260408083208380529091529020600401555090509392505050565b6001600160a01b0391909116600090815260176020908152604080832093151583529290522060010154151590565b6001600160a01b03919091166000908152601760209081526040808320931515835292905220546001600160401b031642101590565b6001600160a01b0380841660009081526018602090815260408083208515158452825280832093861683529281528282208351606081018552815481526001820154928101929092526002015492810192909252908183612c3c57612c378260400151876001600160a01b03166370a08231886040518263ffffffff1660e01b8152600401612be19190613d7e565b60206040518083038186803b158015612bf957600080fd5b505afa158015612c0d573d6000803e3d6000fd5b505050506040513d601f19601f82011682018060405250810190612c319190613baa565b906128e3565b612cb8565b6040516305eff7ef60e21b81526001600160a01b038716906317bfdfbc90612c68908890600401613d7e565b60206040518083038186803b158015612c8057600080fd5b505afa158015612c94573d6000803e3d6000fd5b505050506040513d601f19601f82011682018060405250810190612cb89190613baa565b9050612cf08260200151612c31670de0b6b3a7640000612598612ce98760000151612ce38d8c6132fa565b90612e17565b8690613224565b9695505050505050565b600480546040516370a0823160e01b815260009284926001600160a01b0316916370a0823191612d2c91309101613d7e565b60206040518083038186803b158015612d4457600080fd5b505afa158015612d58573d6000803e3d6000fd5b505050506040513d601f19601f82011682018060405250810190612d7c9190613baa565b1015612d8a575060006126d3565b6004805460405163a9059cbb60e01b81526001600160a01b039091169163a9059cbb91612dbb918791879101613f82565b602060405180830381600087803b158015612dd557600080fd5b505af1158015612de9573d6000803e3d6000fd5b505050506040513d601f19601f82011682018060405250810190612e0d91906139f8565b5060019392505050565b600082821115612e6e576040805162461bcd60e51b815260206004820152601e60248201527f536166654d6174683a207375627472616374696f6e206f766572666c6f770000604482015290519081900360640190fd5b50900390565b612e7c613543565b6001600160401b03808416808352838501909116602083018190521015612eb55760405162461bcd60e51b81526004016106c1906141a6565b6001600160401b0380831660408301819052908416606083015260808201859052612ee190859061327d565b60a08201529392505050565b600080612efc8585600061271a565b6005549091506001600160a01b0316612f16579050610ea3565b6001600160a01b03808616600090815260186020908152604080832083805282528083209388168352929052206002015480612f5457509050610ea3565b6040516370a0823160e01b81526000906001600160a01b038816906370a0823190612f83908990600401613d7e565b60206040518083038186803b158015612f9b57600080fd5b505afa158015612faf573d6000803e3d6000fd5b505050506040513d601f19601f82011682018060405250810190612fd39190613baa565b90508481141561305d576001600160a01b0380881660008181526018602090815260408083208380528252808320948b1683529381528382206002018290559181526017825282812081805290915220600401546130319083612e17565b6001600160a01b03881660009081526017602090815260408083208380529091529020600401556130f8565b600061306d826125988589613224565b90506130798382612e17565b6001600160a01b03808a1660008181526018602090815260408083208380528252808320948d16835293815283822060020194909455908152601783528181208180529092529020600401546130cf9082612e17565b6001600160a01b0389166000908152601760209081526040808320838052909152902060040155505b509095945050505050565b81544290600160401b90046001600160401b0316811061314457825461313a908390600160801b90046001600160401b031661327d565b6002840155613199565b82546002840154600160401b9091046001600160401b03168290039060009061316e908390613224565b855490915061319190600160801b90046001600160401b031661259886846128e3565b600286015550505b82546001600160c01b0316600160c01b6001600160401b0383160217835560018301546131c690836128e3565b600184015582546001600160401b03600160801b8204811683018116600160401b90810267ffffffffffffffff60401b199093169290921780865591909104168110610aed5760405162461bcd60e51b81526004016106c1906141a6565b600082613233575060006126d3565b8282028284828161324057fe5b04146126d05760405162461bcd60e51b81526004018080602001828103825260218152602001806152916021913960400191505060405180910390fd5b60008082116132d3576040805162461bcd60e51b815260206004820152601a60248201527f536166654d6174683a206469766973696f6e206279207a65726f000000000000604482015290519081900360640190fd5b8183816132dc57fe5b049392505050565b60008183106132f357816126d0565b5090919050565b6001600160a01b03821660009081526017602090815260408083208415158452825280832081516101008101835281546001600160401b038082168352600160401b8204811695830195909552600160801b8104851693820193909352600160c01b909204909216606082015260018201546080820152600282015460a0820152600382015460c082015260049091015460e082015281836133dc576133d78260e00151866001600160a01b03166318160ddd6040518163ffffffff1660e01b815260040160206040518083038186803b158015612bf957600080fd5b61344d565b846001600160a01b03166373acee986040518163ffffffff1660e01b815260040160206040518083038186803b15801561341557600080fd5b505afa158015613429573d6000803e3d6000fd5b505050506040513d601f19601f8201168201806040525081019061344d9190613baa565b905080613460575060c0015190506126d3565b6134a161349682612598670de0b6b3a76400006125928760a0015161259289606001516001600160401b0316612ce38e8e61268f565b60c0840151906128e3565b95945050505050565b828054600181600116156101000203166002900490600052602060002090601f0160209004810192826134e05760008555613526565b82601f106134f957805160ff1916838001178555613526565b82800160010185558215613526579182015b8281111561352657825182559160200191906001019061350b565b506135329291506135ac565b5090565b610e218061444e83390190565b60405180610100016040528060006001600160401b0316815260200160006001600160401b0316815260200160006001600160401b0316815260200160006001600160401b03168152602001600081526020016000815260200160008152602001600081525090565b5b8082111561353257600081556001016135ad565b8035610da28161442f565b600082601f8301126135dc578081fd5b81356001600160401b038111156135ef57fe5b613602601f8201601f19166020016143e8565b818152846020838601011115613616578283fd5b816020850160208301379081016020019190915292915050565b80356001600160801b0381168114610da257600080fd5b80356001600160401b0381168114610da257600080fd5b805160ff81168114610da257600080fd5b600060208284031215613680578081fd5b81356126d081614417565b6000806040838503121561369d578081fd5b82356136a881614417565b915060208301356136b881614417565b809150509250929050565b600080600080608085870312156136d8578182fd5b84356136e381614417565b935060208501356136f381614417565b925060408501356137038161443d565b915060608501356001600160401b0381111561371d578182fd5b613729878288016135cc565b91505092959194509250565b600080600060608486031215613749578283fd5b833561375481614417565b9250602084013561376481614417565b929592945050506040919091013590565b6000806000806080858703121561378a578384fd5b843561379581614417565b935060208501356137a581614417565b92506040850135915060608501356137bc8161442f565b939692955090935050565b600080604083850312156137d9578182fd5b82356137e481614417565b915060208301356136b88161442f565b60008060408385031215613806578182fd5b823561381181614417565b946020939093013593505050565b600080600060608486031215613833578081fd5b833561383e81614417565b95602085013595506040909401359392505050565b600080600080600060a0868803121561386a578283fd5b853561387581614417565b9450602086013593506040860135925061389160608701613647565b915061389f60808701613647565b90509295509295909350565b6000806000604084860312156138bf578081fd5b83356001600160401b03808211156138d5578283fd5b818601915086601f8301126138e8578283fd5b8135818111156138f6578384fd5b8760208083028501011115613909578384fd5b6020928301955093505084013561391f81614417565b809150509250925092565b6000806040838503121561393c578182fd5b82356001600160401b0380821115613952578384fd5b818501915085601f830112613965578384fd5b813560208282111561397357fe5b80820292506139838184016143e8565b8281528181019085830185870184018b101561399d578889fd5b8896505b848710156139bf5780358352600196909601959183019183016139a1565b5096506139cf90508782016135c1565b9450505050509250929050565b6000602082840312156139ed578081fd5b81356126d08161442f565b600060208284031215613a09578081fd5b81516126d08161442f565b600060208284031215613a25578081fd5b81356001600160401b03811115613a3a578182fd5b613a46848285016135cc565b949350505050565b600080600080600080600060e0888a031215613a68578485fd5b8735613a7381614417565b96506020880135613a8381614417565b95506040880135613a9381614417565b94506060880135613aa381614417565b93506080880135613ab381614417565b925060a0880135613ac381614417565b915060c08801356001600160401b03811115613add578182fd5b613ae98a828b016135cc565b91505092959891949750929550565b600080600060608486031215613b0c578081fd5b8335613b1781614417565b92506020840135613b2781614417565b9150604084013561391f8161442f565b600080600060608486031215613b4b578081fd5b8335613b5681614417565b92506020840135613b668161442f565b9150604084013561391f81614417565b600060208284031215613b87578081fd5b81516126d08161443d565b600060208284031215613ba3578081fd5b5035919050565b600060208284031215613bbb578081fd5b5051919050565b60008060008060808587031215613bd7578182fd5b843593506020850135613be981614417565b92506040850135915060608501356001600160401b0381111561371d578182fd5b60008060408385031215613c1c578182fd5b8235915060208301356136b88161442f565b600080600080600080600060e0888a031215613c48578081fd5b8735965060208801359550613c5f60408901613630565b9450613c6d60608901613630565b93506080880135613c7d8161443d565b925060a0880135613c8d8161443d565b9150613c9b60c08901613630565b905092959891949750929550565b60008060008060808587031215613cbe578182fd5b5050823594602084013594506040840135936060013592509050565b60008060408385031215613cec578182fd5b82519150613cfc6020840161365e565b90509250929050565b600060208284031215613d16578081fd5b6126d08261365e565b6001600160a01b03169052565b60008151808452815b81811015613d5157602081850181015186830182015201613d35565b81811115613d625782602083870101525b50601f01601f19169290920160200192915050565b60ff169052565b6001600160a01b0391909116815260200190565b6001600160a01b0392831681529116602082015260400190565b6001600160a01b038881168252878116602083015286811660408301528516606082015261ffff8481166080830152831660a082015260e060c08201819052600090613dfa90830184613d2c565b9998505050505050505050565b6001600160a01b03948516815292909316602083015215156040820152606081019190915260800190565b60006060820160018060a01b038087168452602081871681860152606060408601528391508554600180821660008114613e735760018114613e9157613ec9565b60028304607f16865260ff198316608089015260a088019450613ec9565b60028304808752613ea18a61440b565b885b82811015613ebf5781548b820160800152908401908601613ea3565b8a01608001965050505b50929998505050505050505050565b6001600160a01b038e1681528c151560208201526000613efb604083018e613d1f565b8b60608301528a60808301528960a08301528860c08301528760e08301526101a0610100830152613f306101a0830188613d2c565b828103610120840152613f438188613d2c565b915050613f54610140830186613d77565b613f62610160830185613d1f565b613f70610180830184613d1f565b9e9d5050505050505050505050505050565b6001600160a01b03929092168252602082015260400190565b6001600160a01b03969096168652602086019490945260408501929092526001600160401b03908116606085015216608083015260a082015260c00190565b901515815260200190565b6000602082526126d06020830184613d2c565b6001600160a01b0385811682528416602082015261ffff83166040820152608060608201819052600090612cf090830184613d2c565b602080825260029082015261060f60f31b604082015260600190565b602080825260159082015274737461727454696d65203c20626c6f636b54696d6560581b604082015260600190565b6020808252601290820152716e6f7420656e6f7567682062616c616e636560701b604082015260600190565b6020808252601190820152706964656e746963616c206164647265737360781b604082015260600190565b602080825260139082015272426f72726f77206f7574206f662072616e676560681b604082015260600190565b60208082526018908201527f616d6f756e743020616e6420616d6f756e743120697320300000000000000000604082015260600190565b6020808252600c908201526b13141bdbdb081c185d5cd95960a21b604082015260600190565b6020808252600f908201526e72657761726473206973207a65726f60881b604082015260600190565b60208082526009908201526814dd5cdc195b99195960ba1b604082015260600190565b602080825260139082015272456e6454696d65206973206f766572666c6f7760681b604082015260600190565b60208082526010908201526f706f6f6c20706169722065786973747360801b604082015260600190565b6020808252601590820152740616d6f756e74206973206c657373207468616e203605c1b604082015260600190565b6020808252600f908201526e62616c616e63653c7265776172647360881b604082015260600190565b60208082526014908201527344697374726962757465206f6e6c79206f6e636560601b604082015260600190565b60208082526010908201526f13585c9ad95d081cdd5cdc195b99195960821b604082015260600190565b6020808252600990820152683737ba1030b236b4b760b91b604082015260600190565b60208082526014908201527327b832b930ba37b9103737ba1037b832b72632bb60611b604082015260600190565b60208082526003908201526250524960e81b604082015260600190565b90815260200190565b9384526001600160a01b039290921660208401526040830152606082015260800190565b96875260208701959095526001600160801b039384166040870152918316606086015261ffff90811660808601521660a08401521660c082015260e00190565b9283526020830191909152604082015260600190565b6001600160401b03988916815296881660208801529487166040870152929095166060850152608084015260a083019390935260c082019290925260e08101919091526101000190565b6040518181016001600160401b038111828210171561440357fe5b604052919050565b60009081526020902090565b6001600160a01b038116811461442c57600080fd5b50565b801515811461442c57600080fd5b61ffff8116811461442c57600080fdfe608060405234801561001057600080fd5b5060038054336001600160a01b03199182168117909255600180549091169091179055610ddf806100426000396000f3fe6080604052600436106100955760003560e01c80635c60da1b116100595780635c60da1b146102fc5780639d867f8014610311578063ca4b208b146104a4578063d784d426146104b9578063f851a440146104ec576100a4565b80630933c1ed146100ac5780630e18b681146101d257806326782247146101e75780634487152f146102185780634dd18bf5146102c9576100a4565b366100a4576100a2610501565b005b6100a2610501565b3480156100b857600080fd5b5061015d600480360360208110156100cf57600080fd5b810190602081018135600160201b8111156100e957600080fd5b8201836020820111156100fb57600080fd5b803590602001918460018302840111600160201b8311171561011c57600080fd5b91908080601f01602080910402602001604051908101604052809392919081815260200183838082843760009201919091525092955061058c945050505050565b6040805160208082528351818301528351919283929083019185019080838360005b8381101561019757818101518382015260200161017f565b50505050905090810190601f1680156101c45780820380516001836020036101000a031916815260200191505b509250505060405180910390f35b3480156101de57600080fd5b506100a26105ab565b3480156101f357600080fd5b506101fc6106ab565b604080516001600160a01b039092168252519081900360200190f35b34801561022457600080fd5b5061015d6004803603602081101561023b57600080fd5b810190602081018135600160201b81111561025557600080fd5b82018360208201111561026757600080fd5b803590602001918460018302840111600160201b8311171561028857600080fd5b91908080601f0160208091040260200160405190810160405280939291908181526020018383808284376000920191909152509295506106ba945050505050565b3480156102d557600080fd5b506100a2600480360360208110156102ec57600080fd5b50356001600160a01b03166108d8565b34801561030857600080fd5b506101fc610991565b34801561031d57600080fd5b506100a260048036036101a081101561033557600080fd5b6001600160a01b038235811692602081013515159260408201359092169160608201359160808101359160a08201359160c08101359160e082013591908101906101208101610100820135600160201b81111561039157600080fd5b8201836020820111156103a357600080fd5b803590602001918460018302840111600160201b831117156103c457600080fd5b91908080601f0160208091040260200160405190810160405280939291908181526020018383808284376000920191909152509295949360208101935035915050600160201b81111561041657600080fd5b82018360208201111561042857600080fd5b803590602001918460018302840111600160201b8311171561044957600080fd5b91908080601f0160208091040260200160405190810160405280939291908181526020018383808284376000920191909152509295505060ff8335169350506001600160a01b036020830135811692604001351690506109a0565b3480156104b057600080fd5b506101fc610bf0565b3480156104c557600080fd5b506100a2600480360360208110156104dc57600080fd5b50356001600160a01b0316610bff565b3480156104f857600080fd5b506101fc610cb7565b361561058a57600080546040516001600160a01b0390911690829036908083838082843760405192019450600093509091505080830381855af49150503d806000811461056a576040519150601f19603f3d011682016040523d82523d6000602084013e61056f565b606091505b505090506040513d6000823e818015610586573d82f35b3d82fd5b565b6000546060906105a5906001600160a01b031683610cc6565b92915050565b6002546001600160a01b031633146105f45760405162461bcd60e51b8152600401808060200182810382526022815260200180610d886022913960400191505060405180910390fd5b60018054600280546001600160a01b038082166001600160a01b031980861682179687905590921690925560408051938316808552949092166020840152815190927ff9ffabca9c8276e99321725bcb43fb076a6c66a54b7f21c4e8146d8519b417dc92908290030190a1600254604080516001600160a01b038085168252909216602083015280517fca4f2f25d0898edd99413412fb94012f9e54ec8142f9b093e7720646a95b16a99281900390910190a15050565b6002546001600160a01b031681565b6060600080306001600160a01b0316846040516024018080602001828103825283818151815260200191508051906020019080838360005b8381101561070a5781810151838201526020016106f2565b50505050905090810190601f1680156107375780820380516001836020036101000a031916815260200191505b5060408051601f198184030181529181526020820180516001600160e01b0316630933c1ed60e01b178152905182519295509350839250908083835b602083106107925780518252601f199092019160209182019101610773565b6001836020036101000a038019825116818451168082178552505050505050905001915050600060405180830381855afa9150503d80600081146107f2576040519150601f19603f3d011682016040523d82523d6000602084013e6107f7565b606091505b5091509150600082141561080c573d60208201fd5b80806020019051602081101561082157600080fd5b8101908080516040519392919084600160201b82111561084057600080fd5b90830190602082018581111561085557600080fd5b8251600160201b81118282018810171561086e57600080fd5b82525081516020918201929091019080838360005b8381101561089b578181015183820152602001610883565b50505050905090810190601f1680156108c85780820380516001836020036101000a031916815260200191505b5060405250505092505050919050565b6001546001600160a01b0316331461092e576040805162461bcd60e51b815260206004820152601460248201527331b0b63632b91036bab9ba1031329030b236b4b760611b604482015290519081900360640190fd5b600280546001600160a01b038381166001600160a01b0319831681179093556040805191909216808252602082019390935281517fca4f2f25d0898edd99413412fb94012f9e54ec8142f9b093e7720646a95b16a9929181900390910190a15050565b6000546001600160a01b031681565b6001546001600160a01b031633146109f6576040805162461bcd60e51b815260206004820152601460248201527331b0b63632b91036bab9ba1031329030b236b4b760611b604482015290519081900360640190fd5b6000546001600160a01b031615610a46576040805162461bcd60e51b815260206004820152600f60248201526e696e697469616c697a65206f6e636560881b604482015290519081900360640190fd5b610bb3818e8e8e8e8e8e8e8e8e8e8e604051602401808c6001600160a01b031681526020018b151581526020018a6001600160a01b0316815260200189815260200188815260200187815260200186815260200185815260200180602001806020018460ff168152602001838103835286818151815260200191508051906020019080838360005b83811015610ae6578181015183820152602001610ace565b50505050905090810190601f168015610b135780820380516001836020036101000a031916815260200191505b50838103825285518152855160209182019187019080838360005b83811015610b46578181015183820152602001610b2e565b50505050905090810190601f168015610b735780820380516001836020036101000a031916815260200191505b5060408051601f198184030181529190526020810180516001600160e01b03166319134c6d60e31b1790529d50610cc69c50505050505050505050505050565b50600080546001600160a01b039283166001600160a01b031991821617909155600180549390921692169190911790555050505050505050505050565b6003546001600160a01b031681565b6001546001600160a01b03163314610c55576040805162461bcd60e51b815260206004820152601460248201527331b0b63632b91036bab9ba1031329030b236b4b760611b604482015290519081900360640190fd5b600080546001600160a01b038381166001600160a01b0319831617928390556040805192821680845293909116602083015280517fd604de94d45953f9138079ec1b82d533cb2160c906d1076d1f7ed54befbca97a9281900390910190a15050565b6001546001600160a01b031681565b6060600080846001600160a01b0316846040518082805190602001908083835b60208310610d055780518252601f199092019160209182019101610ce6565b6001836020036101000a038019825116818451168082178552505050505050905001915050600060405180830381855af49150503d8060008114610d65576040519150601f19603f3d011682016040523d82523d6000602084013e610d6a565b606091505b50915091506000821415610d7f573d60208201fd5b94935050505056fe6f6e6c792070656e64696e6741646d696e2063616e206163636570742061646d696ea2646970667358221220c492dce528296adbf1260a27d2220e6da609842a20d7dff7c98d00e3c81e792964736f6c634300070600336f6e6c792070656e64696e6741646d696e2063616e206163636570742061646d696e536166654d6174683a206d756c7469706c69636174696f6e206f766572666c6f7763616c6c6572206d7573742062652061646d696e00000000000000000000000063616c6c6572206d7573742062652061646d696e206f7220646576656c6f706572a2646970667358221220252d91c99b8b392650169545bd33af67a56343e224f9c59c87abb23707108e9f64736f6c63430007060033",
  "immutableReferences": {},
  "source": "// SPDX-License-Identifier: BUSL-1.1\npragma solidity 0.7.6;\npragma experimental ABIEncoderV2;\n\nimport \"./ControllerInterface.sol\";\nimport \"./liquidity/LPoolDelegator.sol\";\nimport \"./Adminable.sol\";\nimport \"@openzeppelin/contracts/math/SafeMath.sol\";\nimport \"@openzeppelin/contracts/math/Math.sol\";\nimport \"./DelegateInterface.sol\";\nimport \"./lib/DexData.sol\";\nimport \"@openzeppelin/contracts/token/ERC20/ERC20.sol\";\nimport \"./OpenLevInterface.sol\";\nimport \"./XOLEInterface.sol\";\n\n/// @title OpenLeverage Controller Logic\n/// @author OpenLeverage\n/// @notice You can use this contract for operating trades and find trading intel.\n/// @dev Admin of this contract is the address of Timelock. Admin set configs and transfer insurance expected to XOLE.\ncontract ControllerV1 is DelegateInterface, Adminable, ControllerInterface, ControllerStorage {\n    using SafeMath for uint;\n    constructor () {}\n\n    /// @notice Initialize proxy contract\n    /// @dev This function is not supposed to call multiple times. All configs can be set through other functions.\n    /// @param _oleToken Address of OLEToken.\n    /// @param _xoleToken address of XOLEToken.\n    /// @param _wETH Address of wrapped native coin.\n    /// @param _lpoolImplementation Address of lending pool logic contract.\n    /// @param _openlev Address of openLev aggregator contract.\n    /// @param _dexAggregator Address of DexAggregatorDelegator.\n    /// @param _oleWethDexData Index and feeRate of ole/weth pair.\n    function initialize(\n        IERC20 _oleToken,\n        address _xoleToken,\n        address _wETH,\n        address _lpoolImplementation,\n        address _openlev,\n        DexAggregatorInterface _dexAggregator,\n        bytes memory _oleWethDexData\n    ) public {\n        require(msg.sender == admin, \"not admin\");\n        oleToken = _oleToken;\n        xoleToken = _xoleToken;\n        wETH = _wETH;\n        lpoolImplementation = _lpoolImplementation;\n        openLev = _openlev;\n        dexAggregator = _dexAggregator;\n        oleWethDexData = _oleWethDexData;\n    }\n\n    struct LPoolPairVar {\n        address token0;\n        address token1;\n        uint16 marginLimit;\n        bytes dexData;\n        string tokenName;\n        string tokenSymbol;\n    }\n\n    /// @notice Create Lending pools for token0, token1. create market on OpenLev\n    /// @param token0 Address of token0\n    /// @param token1 Address of token1\n    /// @param marginLimit The liquidation trigger ratio of deposited token value to borrowed token value.\n    /// @param dexData Pair initiate data including index, feeRate of the Dex and tax rate of the underlying tokens.\n    function createLPoolPair(address token0, address token1, uint16 marginLimit, bytes memory dexData) external override {\n        require(token0 != token1, 'identical address');\n        require(lpoolPairs[token0][token1].lpool0 == address(0) || lpoolPairs[token1][token0].lpool0 == address(0), 'pool pair exists');\n        LPoolPairVar memory pairVar = LPoolPairVar(token0, token1, marginLimit, dexData, \"OpenLeverage LToken\", \"LToken\");\n        LPoolDelegator pool0 = new LPoolDelegator();\n        pool0.initialize(pairVar.token0, pairVar.token0 == wETH ? true : false, address(this), baseRatePerBlock, multiplierPerBlock, jumpMultiplierPerBlock, kink, 1e18,\n            pairVar.tokenName, pairVar.tokenSymbol, ERC20(pairVar.token0).decimals(), admin, lpoolImplementation);\n        LPoolDelegator pool1 = new LPoolDelegator();\n        pool1.initialize(pairVar.token1, pairVar.token1 == wETH ? true : false, address(this), baseRatePerBlock, multiplierPerBlock, jumpMultiplierPerBlock, kink, 1e18,\n            pairVar.tokenName, pairVar.tokenSymbol, ERC20(pairVar.token1).decimals(), admin, lpoolImplementation);\n        lpoolPairs[token0][token1] = LPoolPair(address(pool0), address(pool1));\n        lpoolPairs[token1][token0] = LPoolPair(address(pool0), address(pool1));\n        uint16 marketId = (OpenLevInterface(openLev)).addMarket(LPoolInterface(address(pool0)), LPoolInterface(address(pool1)), pairVar.marginLimit, pairVar.dexData);\n        emit LPoolPairCreated(pairVar.token0, address(pool0), pairVar.token1, address(pool1), marketId, pairVar.marginLimit, pairVar.dexData);\n    }\n\n\n    /*** Policy Hooks ***/\n    function mintAllowed(address minter, uint lTokenAmount) external override onlyLPoolAllowed onlyNotSuspended {\n        stake(LPoolInterface(msg.sender), minter, lTokenAmount);\n    }\n\n    function transferAllowed(address from, address to, uint lTokenAmount) external override {\n        withdraw(LPoolInterface(msg.sender), from, lTokenAmount);\n        stake(LPoolInterface(msg.sender), to, lTokenAmount);\n    }\n\n    function redeemAllowed(address redeemer, uint lTokenAmount) external override onlyNotSuspended {\n        if (withdraw(LPoolInterface(msg.sender), redeemer, lTokenAmount)) {\n            getRewardInternal(LPoolInterface(msg.sender), redeemer, false);\n        }\n    }\n\n    function borrowAllowed(address borrower, address payee, uint borrowAmount) external override onlyLPoolAllowed onlyNotSuspended onlyOpenLevOperator(payee) {\n        require(LPoolInterface(msg.sender).availableForBorrow() >= borrowAmount, \"Borrow out of range\");\n        updateReward(LPoolInterface(msg.sender), borrower, true);\n    }\n\n    function repayBorrowAllowed(address payer, address borrower, uint repayAmount, bool isEnd) external override {\n        // Shh - currently unused\n        repayAmount;\n        if (isEnd) {\n            require(openLev == payer, \"Operator not openLev\");\n        }\n        if (updateReward(LPoolInterface(msg.sender), borrower, true)) {\n            getRewardInternal(LPoolInterface(msg.sender), borrower, true);\n        }\n    }\n\n    function liquidateAllowed(uint marketId, address liquidator, uint liquidateAmount, bytes memory dexData) external override onlyOpenLevOperator(msg.sender) {\n        // Shh - currently unused\n        liquidateAmount;\n        dexData;\n        require(!marketSuspend[marketId], 'Market suspended');\n        // market no distribution\n        if (marketExtraDistribution[marketId] == false) {\n            return;\n        }\n        // rewards is zero or balance not enough\n        if (oleTokenDistribution.liquidatorMaxPer == 0) {\n            return;\n        }\n        //get wETH quote ole price\n        (uint256 price, uint8 decimal) = dexAggregator.getPrice(wETH, address(oleToken), oleWethDexData);\n        // oleRewards=wETHValue*liquidatorOLERatio\n        uint calcLiquidatorRewards = uint(600000)  // needs approximately 600k gas for liquidation\n        .mul(50 gwei).mul(price).div(10 ** uint(decimal))\n        .mul(oleTokenDistribution.liquidatorOLERatio).div(100);\n        // check compare max\n        if (calcLiquidatorRewards > oleTokenDistribution.liquidatorMaxPer) {\n            calcLiquidatorRewards = oleTokenDistribution.liquidatorMaxPer;\n        }\n        if (calcLiquidatorRewards > oleTokenDistribution.extraBalance) {\n            return;\n        }\n        if (transferOut(liquidator, calcLiquidatorRewards)) {\n            oleTokenDistribution.extraBalance = oleTokenDistribution.extraBalance.sub(calcLiquidatorRewards);\n            emit LiquidateReward(marketId, liquidator, calcLiquidatorRewards, oleTokenDistribution.extraBalance);\n        }\n    }\n\n    function marginTradeAllowed(uint marketId) external view override onlyNotSuspended returns (bool){\n        require(!marketSuspend[marketId], 'Market suspended');\n        return true;\n    }\n\n    function updatePriceAllowed(uint marketId) external override onlyOpenLevOperator(msg.sender) {\n        // Shh - currently unused\n        marketId;\n        // market no distribution\n        if (marketExtraDistribution[marketId] == false) {\n            return;\n        }\n        uint reward = oleTokenDistribution.updatePricePer;\n        if (reward > oleTokenDistribution.extraBalance) {\n            return;\n        }\n        if (transferOut(tx.origin, reward)) {\n            oleTokenDistribution.extraBalance = oleTokenDistribution.extraBalance.sub(reward);\n            emit UpdatePriceReward(marketId, tx.origin, reward, oleTokenDistribution.extraBalance);\n        }\n    }\n\n    /*** Distribution Functions ***/\n\n    function initDistribution(uint totalAmount, uint64 startTime, uint64 duration) internal pure returns (ControllerStorage.LPoolDistribution memory distribution){\n        distribution.startTime = startTime;\n        distribution.endTime = startTime + duration;\n        require(distribution.endTime >= startTime, 'EndTime is overflow');\n        distribution.duration = duration;\n        distribution.lastUpdateTime = startTime;\n        distribution.totalRewardAmount = totalAmount;\n        distribution.rewardRate = totalAmount.div(duration);\n    }\n\n    function updateDistribution(ControllerStorage.LPoolDistribution storage distribution, uint addAmount) internal {\n        uint256 blockTime = block.timestamp;\n        if (blockTime >= distribution.endTime) {\n            distribution.rewardRate = addAmount.div(distribution.duration);\n        } else {\n            uint256 remaining = distribution.endTime - blockTime;\n            uint256 leftover = remaining.mul(distribution.rewardRate);\n            distribution.rewardRate = addAmount.add(leftover).div(distribution.duration);\n        }\n        distribution.lastUpdateTime = uint64(blockTime);\n        distribution.totalRewardAmount = distribution.totalRewardAmount.add(addAmount);\n        distribution.endTime = distribution.duration + uint64(blockTime);\n        require(distribution.endTime > blockTime, 'EndTime is overflow');\n    }\n\n    function checkStart(LPoolInterface lpool, bool isBorrow) internal view returns (bool){\n        return block.timestamp >= lpoolDistributions[lpool][isBorrow].startTime;\n    }\n\n\n    function existRewards(LPoolInterface lpool, bool isBorrow) internal view returns (bool){\n        return lpoolDistributions[lpool][isBorrow].totalRewardAmount > 0;\n    }\n\n    function lastTimeRewardApplicable(LPoolInterface lpool, bool isBorrow) public view returns (uint256) {\n        return Math.min(block.timestamp, lpoolDistributions[lpool][isBorrow].endTime);\n    }\n\n    function rewardPerToken(LPoolInterface lpool, bool isBorrow) internal view returns (uint256) {\n        LPoolDistribution memory distribution = lpoolDistributions[lpool][isBorrow];\n        uint totalAmount = isBorrow ? lpool.totalBorrowsCurrent() : lpool.totalSupply().add(distribution.extraTotalToken);\n        if (totalAmount == 0) {\n            return distribution.rewardPerTokenStored;\n        }\n        return\n        distribution.rewardPerTokenStored.add(\n            lastTimeRewardApplicable(lpool, isBorrow)\n            .sub(distribution.lastUpdateTime)\n            .mul(distribution.rewardRate)\n            .mul(1e18)\n            .div(totalAmount)\n        );\n    }\n\n    function updateReward(LPoolInterface lpool, address account, bool isBorrow) internal returns (bool) {\n        if (!existRewards(lpool, isBorrow) || !checkStart(lpool, isBorrow)) {\n            return false;\n        }\n        uint rewardPerTokenStored = rewardPerToken(lpool, isBorrow);\n        lpoolDistributions[lpool][isBorrow].rewardPerTokenStored = rewardPerTokenStored;\n        lpoolDistributions[lpool][isBorrow].lastUpdateTime = uint64(lastTimeRewardApplicable(lpool, isBorrow));\n        if (account != address(0)) {\n            lPoolRewardByAccounts[lpool][isBorrow][account].rewards = earnedInternal(lpool, account, isBorrow);\n            lPoolRewardByAccounts[lpool][isBorrow][account].rewardPerTokenStored = rewardPerTokenStored;\n        }\n        return true;\n    }\n\n    function stake(LPoolInterface lpool, address account, uint256 amount) internal returns (bool) {\n        bool updateSucceed = updateReward(lpool, account, false);\n        if (xoleToken == address(0) || XOLEInterface(xoleToken).balanceOf(account) < oleTokenDistribution.xoleRaiseMinAmount) {\n            return updateSucceed;\n        }\n        uint addExtraToken = amount.mul(oleTokenDistribution.xoleRaiseRatio).div(100);\n        lPoolRewardByAccounts[lpool][false][account].extraToken = lPoolRewardByAccounts[lpool][false][account].extraToken.add(addExtraToken);\n        lpoolDistributions[lpool][false].extraTotalToken = lpoolDistributions[lpool][false].extraTotalToken.add(addExtraToken);\n        return updateSucceed;\n    }\n\n    function withdraw(LPoolInterface lpool, address account, uint256 amount) internal returns (bool)  {\n        bool updateSucceed = updateReward(lpool, account, false);\n        if (xoleToken == address(0)) {\n            return updateSucceed;\n        }\n        uint extraToken = lPoolRewardByAccounts[lpool][false][account].extraToken;\n        if (extraToken == 0) {\n            return updateSucceed;\n        }\n        uint oldBalance = lpool.balanceOf(account);\n        //withdraw all\n        if (oldBalance == amount) {\n            lPoolRewardByAccounts[lpool][false][account].extraToken = 0;\n            lpoolDistributions[lpool][false].extraTotalToken = lpoolDistributions[lpool][false].extraTotalToken.sub(extraToken);\n        } else {\n            uint subExtraToken = extraToken.mul(amount).div(oldBalance);\n            lPoolRewardByAccounts[lpool][false][account].extraToken = extraToken.sub(subExtraToken);\n            lpoolDistributions[lpool][false].extraTotalToken = lpoolDistributions[lpool][false].extraTotalToken.sub(subExtraToken);\n        }\n        return updateSucceed;\n    }\n\n\n    function earnedInternal(LPoolInterface lpool, address account, bool isBorrow) internal view returns (uint256) {\n        LPoolRewardByAccount memory accountReward = lPoolRewardByAccounts[lpool][isBorrow][account];\n        uint accountBalance = isBorrow ? lpool.borrowBalanceCurrent(account) : lpool.balanceOf(account).add(accountReward.extraToken);\n        return\n        accountBalance\n        .mul(rewardPerToken(lpool, isBorrow).sub(accountReward.rewardPerTokenStored))\n        .div(1e18)\n        .add(accountReward.rewards);\n    }\n\n    function getRewardInternal(LPoolInterface lpool, address account, bool isBorrow) internal {\n        uint256 reward = lPoolRewardByAccounts[lpool][isBorrow][account].rewards;\n        if (reward > 0) {\n            bool succeed = transferOut(account, reward);\n            if (succeed) {\n                lPoolRewardByAccounts[lpool][isBorrow][account].rewards = 0;\n                emit PoolReward(address(lpool), account, isBorrow, reward);\n            }\n        }\n    }\n\n    function earned(LPoolInterface lpool, address account, bool isBorrow) external override view returns (uint256) {\n        if (!existRewards(lpool, isBorrow) || !checkStart(lpool, isBorrow)) {\n            return 0;\n        }\n        return earnedInternal(lpool, account, isBorrow);\n    }\n\n    function getSupplyRewards(LPoolInterface[] calldata lpools, address account) external override {\n        uint rewards;\n        for (uint i = 0; i < lpools.length; i++) {\n            if (updateReward(lpools[i], account, false)) {\n                uint poolRewards = lPoolRewardByAccounts[lpools[i]][false][account].rewards;\n                rewards = rewards.add(poolRewards);\n                lPoolRewardByAccounts[lpools[i]][false][account].rewards = 0;\n                emit PoolReward(address(lpools[i]), account, false, poolRewards);\n            }\n        }\n        require(rewards > 0, 'rewards is zero');\n        require(oleToken.balanceOf(address(this)) >= rewards, 'balance<rewards');\n        oleToken.transfer(account, rewards);\n    }\n\n\n    function transferOut(address to, uint amount) internal returns (bool){\n        if (oleToken.balanceOf(address(this)) < amount) {\n            return false;\n        }\n        oleToken.transfer(to, amount);\n        return true;\n    }\n    /*** Admin Functions ***/\n\n    function setOLETokenDistribution(uint moreSupplyBorrowBalance, uint moreExtraBalance, uint128 updatePricePer, uint128 liquidatorMaxPer, uint16 liquidatorOLERatio, uint16 xoleRaiseRatio, uint128 xoleRaiseMinAmount) external override onlyAdmin {\n        uint newSupplyBorrowBalance = oleTokenDistribution.supplyBorrowBalance.add(moreSupplyBorrowBalance);\n        uint newExtraBalance = oleTokenDistribution.extraBalance.add(moreExtraBalance);\n        uint totalAll = newExtraBalance.add(newSupplyBorrowBalance);\n        require(oleToken.balanceOf(address(this)) >= totalAll, 'not enough balance');\n        oleTokenDistribution.supplyBorrowBalance = newSupplyBorrowBalance;\n        oleTokenDistribution.extraBalance = newExtraBalance;\n        oleTokenDistribution.updatePricePer = updatePricePer;\n        oleTokenDistribution.liquidatorMaxPer = liquidatorMaxPer;\n        oleTokenDistribution.liquidatorOLERatio = liquidatorOLERatio;\n        oleTokenDistribution.xoleRaiseRatio = xoleRaiseRatio;\n        oleTokenDistribution.xoleRaiseMinAmount = xoleRaiseMinAmount;\n        emit NewOLETokenDistribution(moreSupplyBorrowBalance, moreExtraBalance, updatePricePer, liquidatorMaxPer, liquidatorOLERatio, xoleRaiseRatio, xoleRaiseMinAmount);\n    }\n\n    function distributeRewards2Pool(address pool, uint supplyAmount, uint borrowAmount, uint64 startTime, uint64 duration) external override onlyAdmin {\n        require(supplyAmount > 0 || borrowAmount > 0, 'amount is less than 0');\n        require(startTime > block.timestamp, 'startTime < blockTime');\n        if (supplyAmount > 0) {\n            require(lpoolDistributions[LPoolInterface(pool)][false].startTime == 0, 'Distribute only once');\n            lpoolDistributions[LPoolInterface(pool)][false] = initDistribution(supplyAmount, startTime, duration);\n        }\n        if (borrowAmount > 0) {\n            require(lpoolDistributions[LPoolInterface(pool)][true].startTime == 0, 'Distribute only once');\n            lpoolDistributions[LPoolInterface(pool)][true] = initDistribution(borrowAmount, startTime, duration);\n        }\n        uint subAmount = supplyAmount.add(borrowAmount);\n        oleTokenDistribution.supplyBorrowBalance = oleTokenDistribution.supplyBorrowBalance.sub(subAmount);\n        emit Distribution2Pool(pool, supplyAmount, borrowAmount, startTime, duration, oleTokenDistribution.supplyBorrowBalance);\n    }\n\n    function distributeRewards2PoolMore(address pool, uint supplyAmount, uint borrowAmount) external override onlyAdmin {\n        require(supplyAmount > 0 || borrowAmount > 0, 'amount0 and amount1 is 0');\n        if (supplyAmount > 0) {\n            updateReward(LPoolInterface(pool), address(0), false);\n            updateDistribution(lpoolDistributions[LPoolInterface(pool)][false], supplyAmount);\n        }\n        if (borrowAmount > 0) {\n            updateReward(LPoolInterface(pool), address(0), true);\n            updateDistribution(lpoolDistributions[LPoolInterface(pool)][true], borrowAmount);\n        }\n        bool isBorrowMore = borrowAmount > 0 ? true : false;\n        uint subAmount = supplyAmount.add(borrowAmount);\n        oleTokenDistribution.supplyBorrowBalance = oleTokenDistribution.supplyBorrowBalance.sub(subAmount);\n        emit Distribution2Pool(pool, supplyAmount, borrowAmount, lpoolDistributions[LPoolInterface(pool)][isBorrowMore].startTime,\n            lpoolDistributions[LPoolInterface(pool)][isBorrowMore].duration, oleTokenDistribution.supplyBorrowBalance);\n    }\n\n    function distributeExtraRewards2Markets(uint[] memory marketIds, bool isDistribution) external override onlyAdminOrDeveloper {\n        for (uint i = 0; i < marketIds.length; i++) {\n            marketExtraDistribution[marketIds[i]] = isDistribution;\n        }\n    }\n\n    function setLPoolImplementation(address _lpoolImplementation) external override onlyAdmin {\n        require(address(0) != _lpoolImplementation, '0x');\n        lpoolImplementation = _lpoolImplementation;\n    }\n\n    function setOpenLev(address _openlev) external override onlyAdmin {\n        require(address(0) != _openlev, '0x');\n        openLev = _openlev;\n    }\n\n    function setDexAggregator(DexAggregatorInterface _dexAggregator) external override onlyAdmin {\n        require(address(0) != address(_dexAggregator), '0x');\n        dexAggregator = _dexAggregator;\n    }\n\n    function setInterestParam(uint256 _baseRatePerBlock, uint256 _multiplierPerBlock, uint256 _jumpMultiplierPerBlock, uint256 _kink) external override onlyAdmin {\n        require(_baseRatePerBlock < 1e13 && _multiplierPerBlock < 1e13 && _jumpMultiplierPerBlock < 1e13 && _kink <= 1e18, 'PRI');\n        baseRatePerBlock = _baseRatePerBlock;\n        multiplierPerBlock = _multiplierPerBlock;\n        jumpMultiplierPerBlock = _jumpMultiplierPerBlock;\n        kink = _kink;\n    }\n\n    function setLPoolUnAllowed(address lpool, bool unAllowed) external override onlyAdminOrDeveloper {\n        lpoolUnAlloweds[lpool] = unAllowed;\n    }\n\n    function setSuspend(bool _uspend) external override onlyAdminOrDeveloper {\n        suspend = _uspend;\n    }\n\n    function setMarketSuspend(uint marketId, bool suspend) external override onlyAdminOrDeveloper {\n        marketSuspend[marketId] = suspend;\n    }\n\n    function setOleWethDexData(bytes memory _oleWethDexData) external override onlyAdminOrDeveloper {\n        oleWethDexData = _oleWethDexData;\n    }\n\n    modifier onlyLPoolAllowed() {\n        require(!lpoolUnAlloweds[msg.sender], \"LPool paused\");\n        _;\n    }\n\n    modifier onlyNotSuspended() {\n        require(!suspend, 'Suspended');\n        _;\n    }\n    \n    modifier onlyOpenLevOperator(address operator) {\n        require(openLev == operator || openLev == address(0), \"Operator not openLev\");\n        _;\n    }\n\n}",
  "sourcePath": "/home/mingyue/Smartian/Web3Bugs/contracts/72/openleverage-contracts/contracts/ControllerV1.sol",
  "compiler": {
    "name": "solc",
    "version": "0.7.6+commit.7338295f.Emscripten.clang"
  },
  "schemaVersion": "3.4.16",
  "updatedAt": "2025-02-26T03:47:59.370Z",
  "devdoc": {
    "author": "OpenLeverage",
    "details": "Admin of this contract is the address of Timelock. Admin set configs and transfer insurance expected to XOLE.",
    "kind": "dev",
    "methods": {
      "createLPoolPair(address,address,uint16,bytes)": {
        "params": {
          "dexData": "Pair initiate data including index, feeRate of the Dex and tax rate of the underlying tokens.",
          "marginLimit": "The liquidation trigger ratio of deposited token value to borrowed token value.",
          "token0": "Address of token0",
          "token1": "Address of token1"
        }
      },
      "initialize(address,address,address,address,address,address,bytes)": {
        "details": "This function is not supposed to call multiple times. All configs can be set through other functions.",
        "params": {
          "_dexAggregator": "Address of DexAggregatorDelegator.",
          "_lpoolImplementation": "Address of lending pool logic contract.",
          "_oleToken": "Address of OLEToken.",
          "_oleWethDexData": "Index and feeRate of ole/weth pair.",
          "_openlev": "Address of openLev aggregator contract.",
          "_wETH": "Address of wrapped native coin.",
          "_xoleToken": "address of XOLEToken."
        }
      }
    },
    "title": "OpenLeverage Controller Logic",
    "version": 1
  },
  "userdoc": {
    "kind": "user",
    "methods": {
      "createLPoolPair(address,address,uint16,bytes)": {
        "notice": "Create Lending pools for token0, token1. create market on OpenLev"
      },
      "implementation()": {
        "notice": "Implementation address for this contract"
      },
      "initialize(address,address,address,address,address,address,bytes)": {
        "notice": "Initialize proxy contract"
      }
    },
    "notice": "You can use this contract for operating trades and find trading intel.",
    "version": 1
  }
}