{
  "contractName": "ControllerStorage",
  "abi": [
    {
      "anonymous": false,
      "inputs": [
        {
          "indexed": false,
          "internalType": "address",
          "name": "pool",
          "type": "address"
        },
        {
          "indexed": false,
          "internalType": "uint256",
          "name": "supplyAmount",
          "type": "uint256"
        },
        {
          "indexed": false,
          "internalType": "uint256",
          "name": "borrowerAmount",
          "type": "uint256"
        },
        {
          "indexed": false,
          "internalType": "uint64",
          "name": "startTime",
          "type": "uint64"
        },
        {
          "indexed": false,
          "internalType": "uint64",
          "name": "duration",
          "type": "uint64"
        },
        {
          "indexed": false,
          "internalType": "uint256",
          "name": "newSupplyBorrowBalance",
          "type": "uint256"
        }
      ],
      "name": "Distribution2Pool",
      "type": "event"
    },
    {
      "anonymous": false,
      "inputs": [
        {
          "indexed": false,
          "internalType": "address",
          "name": "token0",
          "type": "address"
        },
        {
          "indexed": false,
          "internalType": "address",
          "name": "pool0",
          "type": "address"
        },
        {
          "indexed": false,
          "internalType": "address",
          "name": "token1",
          "type": "address"
        },
        {
          "indexed": false,
          "internalType": "address",
          "name": "pool1",
          "type": "address"
        },
        {
          "indexed": false,
          "internalType": "uint16",
          "name": "marketId",
          "type": "uint16"
        },
        {
          "indexed": false,
          "internalType": "uint16",
          "name": "marginLimit",
          "type": "uint16"
        },
        {
          "indexed": false,
          "internalType": "bytes",
          "name": "dexData",
          "type": "bytes"
        }
      ],
      "name": "LPoolPairCreated",
      "type": "event"
    },
    {
      "anonymous": false,
      "inputs": [
        {
          "indexed": false,
          "internalType": "uint256",
          "name": "marketId",
          "type": "uint256"
        },
        {
          "indexed": false,
          "internalType": "address",
          "name": "liquidator",
          "type": "address"
        },
        {
          "indexed": false,
          "internalType": "uint256",
          "name": "reward",
          "type": "uint256"
        },
        {
          "indexed": false,
          "internalType": "uint256",
          "name": "newExtraBalance",
          "type": "uint256"
        }
      ],
      "name": "LiquidateReward",
      "type": "event"
    },
    {
      "anonymous": false,
      "inputs": [
        {
          "indexed": false,
          "internalType": "uint256",
          "name": "moreSupplyBorrowBalance",
          "type": "uint256"
        },
        {
          "indexed": false,
          "internalType": "uint256",
          "name": "moreExtraBalance",
          "type": "uint256"
        },
        {
          "indexed": false,
          "internalType": "uint128",
          "name": "updatePricePer",
          "type": "uint128"
        },
        {
          "indexed": false,
          "internalType": "uint128",
          "name": "liquidatorMaxPer",
          "type": "uint128"
        },
        {
          "indexed": false,
          "internalType": "uint16",
          "name": "liquidatorOLERatio",
          "type": "uint16"
        },
        {
          "indexed": false,
          "internalType": "uint16",
          "name": "xoleRaiseRatio",
          "type": "uint16"
        },
        {
          "indexed": false,
          "internalType": "uint128",
          "name": "xoleRaiseMinAmount",
          "type": "uint128"
        }
      ],
      "name": "NewOLETokenDistribution",
      "type": "event"
    },
    {
      "anonymous": false,
      "inputs": [
        {
          "indexed": false,
          "internalType": "address",
          "name": "pool",
          "type": "address"
        },
        {
          "indexed": false,
          "internalType": "address",
          "name": "rewarder",
          "type": "address"
        },
        {
          "indexed": false,
          "internalType": "bool",
          "name": "isBorrow",
          "type": "bool"
        },
        {
          "indexed": false,
          "internalType": "uint256",
          "name": "reward",
          "type": "uint256"
        }
      ],
      "name": "PoolReward",
      "type": "event"
    },
    {
      "anonymous": false,
      "inputs": [
        {
          "indexed": false,
          "internalType": "uint256",
          "name": "marketId",
          "type": "uint256"
        },
        {
          "indexed": false,
          "internalType": "address",
          "name": "updator",
          "type": "address"
        },
        {
          "indexed": false,
          "internalType": "uint256",
          "name": "reward",
          "type": "uint256"
        },
        {
          "indexed": false,
          "internalType": "uint256",
          "name": "newExtraBalance",
          "type": "uint256"
        }
      ],
      "name": "UpdatePriceReward",
      "type": "event"
    },
    {
      "inputs": [],
      "name": "baseRatePerBlock",
      "outputs": [
        {
          "internalType": "uint256",
          "name": "",
          "type": "uint256"
        }
      ],
      "stateMutability": "view",
      "type": "function"
    },
    {
      "inputs": [],
      "name": "dexAggregator",
      "outputs": [
        {
          "internalType": "contract DexAggregatorInterface",
          "name": "",
          "type": "address"
        }
      ],
      "stateMutability": "view",
      "type": "function"
    },
    {
      "inputs": [],
      "name": "jumpMultiplierPerBlock",
      "outputs": [
        {
          "internalType": "uint256",
          "name": "",
          "type": "uint256"
        }
      ],
      "stateMutability": "view",
      "type": "function"
    },
    {
      "inputs": [],
      "name": "kink",
      "outputs": [
        {
          "internalType": "uint256",
          "name": "",
          "type": "uint256"
        }
      ],
      "stateMutability": "view",
      "type": "function"
    },
    {
      "inputs": [
        {
          "internalType": "contract LPoolInterface",
          "name": "",
          "type": "address"
        },
        {
          "internalType": "bool",
          "name": "",
          "type": "bool"
        },
        {
          "internalType": "address",
          "name": "",
          "type": "address"
        }
      ],
      "name": "lPoolRewardByAccounts",
      "outputs": [
        {
          "internalType": "uint256",
          "name": "rewardPerTokenStored",
          "type": "uint256"
        },
        {
          "internalType": "uint256",
          "name": "rewards",
          "type": "uint256"
        },
        {
          "internalType": "uint256",
          "name": "extraToken",
          "type": "uint256"
        }
      ],
      "stateMutability": "view",
      "type": "function"
    },
    {
      "inputs": [
        {
          "internalType": "contract LPoolInterface",
          "name": "",
          "type": "address"
        },
        {
          "internalType": "bool",
          "name": "",
          "type": "bool"
        }
      ],
      "name": "lpoolDistributions",
      "outputs": [
        {
          "internalType": "uint64",
          "name": "startTime",
          "type": "uint64"
        },
        {
          "internalType": "uint64",
          "name": "endTime",
          "type": "uint64"
        },
        {
          "internalType": "uint64",
          "name": "duration",
          "type": "uint64"
        },
        {
          "internalType": "uint64",
          "name": "lastUpdateTime",
          "type": "uint64"
        },
        {
          "internalType": "uint256",
          "name": "totalRewardAmount",
          "type": "uint256"
        },
        {
          "internalType": "uint256",
          "name": "rewardRate",
          "type": "uint256"
        },
        {
          "internalType": "uint256",
          "name": "rewardPerTokenStored",
          "type": "uint256"
        },
        {
          "internalType": "uint256",
          "name": "extraTotalToken",
          "type": "uint256"
        }
      ],
      "stateMutability": "view",
      "type": "function"
    },
    {
      "inputs": [],
      "name": "lpoolImplementation",
      "outputs": [
        {
          "internalType": "address",
          "name": "",
          "type": "address"
        }
      ],
      "stateMutability": "view",
      "type": "function"
    },
    {
      "inputs": [
        {
          "internalType": "address",
          "name": "",
          "type": "address"
        },
        {
          "internalType": "address",
          "name": "",
          "type": "address"
        }
      ],
      "name": "lpoolPairs",
      "outputs": [
        {
          "internalType": "address",
          "name": "lpool0",
          "type": "address"
        },
        {
          "internalType": "address",
          "name": "lpool1",
          "type": "address"
        }
      ],
      "stateMutability": "view",
      "type": "function"
    },
    {
      "inputs": [
        {
          "internalType": "address",
          "name": "",
          "type": "address"
        }
      ],
      "name": "lpoolUnAlloweds",
      "outputs": [
        {
          "internalType": "bool",
          "name": "",
          "type": "bool"
        }
      ],
      "stateMutability": "view",
      "type": "function"
    },
    {
      "inputs": [
        {
          "internalType": "uint256",
          "name": "",
          "type": "uint256"
        }
      ],
      "name": "marketExtraDistribution",
      "outputs": [
        {
          "internalType": "bool",
          "name": "",
          "type": "bool"
        }
      ],
      "stateMutability": "view",
      "type": "function"
    },
    {
      "inputs": [
        {
          "internalType": "uint256",
          "name": "",
          "type": "uint256"
        }
      ],
      "name": "marketSuspend",
      "outputs": [
        {
          "internalType": "bool",
          "name": "",
          "type": "bool"
        }
      ],
      "stateMutability": "view",
      "type": "function"
    },
    {
      "inputs": [],
      "name": "multiplierPerBlock",
      "outputs": [
        {
          "internalType": "uint256",
          "name": "",
          "type": "uint256"
        }
      ],
      "stateMutability": "view",
      "type": "function"
    },
    {
      "inputs": [],
      "name": "oleToken",
      "outputs": [
        {
          "internalType": "contract IERC20",
          "name": "",
          "type": "address"
        }
      ],
      "stateMutability": "view",
      "type": "function"
    },
    {
      "inputs": [],
      "name": "oleTokenDistribution",
      "outputs": [
        {
          "internalType": "uint256",
          "name": "supplyBorrowBalance",
          "type": "uint256"
        },
        {
          "internalType": "uint256",
          "name": "extraBalance",
          "type": "uint256"
        },
        {
          "internalType": "uint128",
          "name": "updatePricePer",
          "type": "uint128"
        },
        {
          "internalType": "uint128",
          "name": "liquidatorMaxPer",
          "type": "uint128"
        },
        {
          "internalType": "uint16",
          "name": "liquidatorOLERatio",
          "type": "uint16"
        },
        {
          "internalType": "uint16",
          "name": "xoleRaiseRatio",
          "type": "uint16"
        },
        {
          "internalType": "uint128",
          "name": "xoleRaiseMinAmount",
          "type": "uint128"
        }
      ],
      "stateMutability": "view",
      "type": "function"
    },
    {
      "inputs": [],
      "name": "oleWethDexData",
      "outputs": [
        {
          "internalType": "bytes",
          "name": "",
          "type": "bytes"
        }
      ],
      "stateMutability": "view",
      "type": "function"
    },
    {
      "inputs": [],
      "name": "openLev",
      "outputs": [
        {
          "internalType": "address",
          "name": "",
          "type": "address"
        }
      ],
      "stateMutability": "view",
      "type": "function"
    },
    {
      "inputs": [],
      "name": "suspend",
      "outputs": [
        {
          "internalType": "bool",
          "name": "",
          "type": "bool"
        }
      ],
      "stateMutability": "view",
      "type": "function"
    },
    {
      "inputs": [],
      "name": "wETH",
      "outputs": [
        {
          "internalType": "address",
          "name": "",
          "type": "address"
        }
      ],
      "stateMutability": "view",
      "type": "function"
    },
    {
      "inputs": [],
      "name": "xoleToken",
      "outputs": [
        {
          "internalType": "address",
          "name": "",
          "type": "address"
        }
      ],
      "stateMutability": "view",
      "type": "function"
    }
  ],
  "bytecode": "0x608060405234801561001057600080fd5b50610761806100206000396000f3fe608060405234801561001057600080fd5b50600436106101215760003560e01c80637c21d5e0116100ad578063e7eac1b011610071578063e7eac1b014610234578063ebbeb85814610247578063f14039de14610269578063f242862114610271578063fd2da3391461027957610121565b80637c21d5e0146101f4578063815ad0d1146101fc5780638726bb891461020f578063b9f9850a14610224578063e6400bbe1461022c57610121565b806353e083a8116100f457806353e083a81461018d57806355fea3001461019557806364adff09146101b05780637532fbd6146101b857806378b02678146101df57610121565b80631ce993471461012657806329a726131461014457806338643b061461014c5780633df31a5c1461016c575b600080fd5b61012e610281565b60405161013b91906105dd565b60405180910390f35b61012e610290565b61015f61015a3660046104ee565b61029f565b60405161013b919061060b565b61017f61017a366004610511565b6102b4565b60405161013b9291906105f1565b61012e6102e5565b61019d6102f4565b60405161013b9796959493929190610672565b61012e610333565b6101cb6101c6366004610549565b610342565b60405161013b9897969594939291906106c8565b6101e76103a9565b60405161013b9190610616565b61012e610437565b61015f61020a3660046105c5565b610446565b61021761045b565b60405161013b9190610669565b610217610461565b61015f610467565b61015f6102423660046105c5565b610477565b61025a61025536600461057d565b61048c565b60405161013b939291906106b2565b6102176104be565b61012e6104c4565b6102176104d3565b6003546001600160a01b031681565b6009546001600160a01b031681565b60126020526000908152604090205460ff1681565b600f602090815260009283526040808420909152908252902080546001909101546001600160a01b03918216911682565b6000546001600160a01b031681565b600b54600c54600d54600e546001600160801b0380831692600160801b900481169161ffff808216926201000083049091169164010000000090041687565b6001546001600160a01b031681565b60136020908152600092835260408084209091529082529020805460018201546002830154600384015460049094015467ffffffffffffffff80851695680100000000000000008604821695600160801b8104831695600160c01b90910490921693919288565b6008805460408051602060026001851615610100026000190190941693909304601f8101849004840282018401909252818152929183018282801561042f5780601f106104045761010080835404028352916020019161042f565b820191906000526020600020905b81548152906001019060200180831161041257829003601f168201915b505050505081565b600a546001600160a01b031681565b60106020526000908152604090205460ff1681565b60055481565b60065481565b600a54600160a01b900460ff1681565b60116020526000908152604090205460ff1681565b601460209081526000938452604080852082529284528284209052825290208054600182015460029092015490919083565b60045481565b6002546001600160a01b031681565b60075481565b803580151581146104e957600080fd5b919050565b6000602082840312156104ff578081fd5b813561050a81610713565b9392505050565b60008060408385031215610523578081fd5b823561052e81610713565b9150602083013561053e81610713565b809150509250929050565b6000806040838503121561055b578182fd5b823561056681610713565b9150610574602084016104d9565b90509250929050565b600080600060608486031215610591578081fd5b833561059c81610713565b92506105aa602085016104d9565b915060408401356105ba81610713565b809150509250925092565b6000602082840312156105d6578081fd5b5035919050565b6001600160a01b0391909116815260200190565b6001600160a01b0392831681529116602082015260400190565b901515815260200190565b6000602080835283518082850152825b8181101561064257858101830151858201604001528201610626565b818111156106535783604083870101525b50601f01601f1916929092016040019392505050565b90815260200190565b96875260208701959095526001600160801b039384166040870152918316606086015261ffff90811660808601521660a08401521660c082015260e00190565b9283526020830191909152604082015260600190565b67ffffffffffffffff988916815296881660208801529487166040870152929095166060850152608084015260a083019390935260c082019290925260e08101919091526101000190565b6001600160a01b038116811461072857600080fd5b5056fea2646970667358221220c91940e2b46f058e1fd95491eb3e112bce4d4f73081a9c83d354aff19f0add4864736f6c63430007060033",
  "immutableReferences": {},
  "source": "// SPDX-License-Identifier: BUSL-1.1\npragma solidity 0.7.6;\n\npragma experimental ABIEncoderV2;\n\nimport \"./liquidity/LPoolInterface.sol\";\nimport \"@openzeppelin/contracts/token/ERC20/IERC20.sol\";\nimport \"./dex/DexAggregatorInterface.sol\";\n\ncontract ControllerStorage {\n\n    //lpool-pair\n    struct LPoolPair {\n        address lpool0;\n        address lpool1;\n    }\n    //lpool-distribution\n    struct LPoolDistribution {\n        uint64 startTime;\n        uint64 endTime;\n        uint64 duration;\n        uint64 lastUpdateTime;\n        uint256 totalRewardAmount;\n        uint256 rewardRate;\n        uint256 rewardPerTokenStored;\n        uint256 extraTotalToken;\n    }\n    //lpool-rewardByAccount\n    struct LPoolRewardByAccount {\n        uint rewardPerTokenStored;\n        uint rewards;\n        uint extraToken;\n    }\n\n    struct OLETokenDistribution {\n        uint supplyBorrowBalance;\n        uint extraBalance;\n        uint128 updatePricePer;\n        uint128 liquidatorMaxPer;\n        uint16 liquidatorOLERatio;//300=>300%\n        uint16 xoleRaiseRatio;//150=>150%\n        uint128 xoleRaiseMinAmount;\n    }\n\n    IERC20 public oleToken;\n\n    address public xoleToken;\n\n    address public wETH;\n\n    address public lpoolImplementation;\n\n    //interest param\n    uint256 public baseRatePerBlock;\n    uint256 public multiplierPerBlock;\n    uint256 public jumpMultiplierPerBlock;\n    uint256 public kink;\n\n    bytes public oleWethDexData;\n\n    address public openLev;\n\n    DexAggregatorInterface public dexAggregator;\n\n    bool public suspend;\n\n    OLETokenDistribution public oleTokenDistribution;\n    //token0=>token1=>pair\n    mapping(address => mapping(address => LPoolPair)) public lpoolPairs;\n    //marketId=>isDistribution\n    mapping(uint => bool) public marketExtraDistribution;\n    //marketId=>isSuspend\n    mapping(uint => bool) public marketSuspend;\n    //pool=>allowed\n    mapping(address => bool) public lpoolUnAlloweds;\n    //pool=>bool=>distribution(true is borrow,false is supply)\n    mapping(LPoolInterface => mapping(bool => LPoolDistribution)) public lpoolDistributions;\n    //pool=>bool=>distribution(true is borrow,false is supply)\n    mapping(LPoolInterface => mapping(bool => mapping(address => LPoolRewardByAccount))) public lPoolRewardByAccounts;\n\n    event LPoolPairCreated(address token0, address pool0, address token1, address pool1, uint16 marketId, uint16 marginLimit, bytes dexData);\n\n    event Distribution2Pool(address pool, uint supplyAmount, uint borrowerAmount, uint64 startTime, uint64 duration, uint newSupplyBorrowBalance);\n\n    event UpdatePriceReward(uint marketId, address updator, uint reward, uint newExtraBalance);\n\n    event LiquidateReward(uint marketId, address liquidator, uint reward, uint newExtraBalance);\n\n    event PoolReward(address pool, address rewarder, bool isBorrow, uint reward);\n\n    event NewOLETokenDistribution(uint moreSupplyBorrowBalance, uint moreExtraBalance, uint128 updatePricePer, uint128 liquidatorMaxPer, uint16 liquidatorOLERatio, uint16 xoleRaiseRatio, uint128 xoleRaiseMinAmount);\n\n\n}\n/**\n  * @title Controller\n  * @author OpenLeverage\n  */\ninterface ControllerInterface {\n\n    function createLPoolPair(address tokenA, address tokenB, uint16 marginLimit, bytes memory dexData) external;\n\n    /*** Policy Hooks ***/\n\n    function mintAllowed(address minter, uint lTokenAmount) external;\n\n    function transferAllowed(address from, address to, uint lTokenAmount) external;\n\n    function redeemAllowed(address redeemer, uint lTokenAmount) external;\n\n    function borrowAllowed(address borrower, address payee, uint borrowAmount) external;\n\n    function repayBorrowAllowed(address payer, address borrower, uint repayAmount, bool isEnd) external;\n\n    function liquidateAllowed(uint marketId, address liquidator, uint liquidateAmount, bytes memory dexData) external;\n\n    function marginTradeAllowed(uint marketId) external view returns (bool);\n\n    function updatePriceAllowed(uint marketId) external;\n\n    /*** Admin Functions ***/\n\n    function setLPoolImplementation(address _lpoolImplementation) external;\n\n    function setOpenLev(address _openlev) external;\n\n    function setDexAggregator(DexAggregatorInterface _dexAggregator) external;\n\n    function setInterestParam(uint256 _baseRatePerBlock, uint256 _multiplierPerBlock, uint256 _jumpMultiplierPerBlock, uint256 _kink) external;\n\n    function setLPoolUnAllowed(address lpool, bool unAllowed) external;\n\n    function setSuspend(bool suspend) external;\n\n    function setMarketSuspend(uint marketId, bool suspend) external;\n\n    function setOleWethDexData(bytes memory _oleWethDexData) external;\n\n    // liquidatorOLERatio: Two decimal in percentage, ex. 300% => 300\n    function setOLETokenDistribution(uint moreSupplyBorrowBalance, uint moreExtraBalance, uint128 updatePricePer, uint128 liquidatorMaxPer, uint16 liquidatorOLERatio, uint16 xoleRaiseRatio, uint128 xoleRaiseMinAmount) external;\n\n    function distributeRewards2Pool(address pool, uint supplyAmount, uint borrowAmount, uint64 startTime, uint64 duration) external;\n\n    function distributeRewards2PoolMore(address pool, uint supplyAmount, uint borrowAmount) external;\n\n    function distributeExtraRewards2Markets(uint[] memory marketIds, bool isDistribution) external;\n\n    /***Distribution Functions ***/\n\n    function earned(LPoolInterface lpool, address account, bool isBorrow) external view returns (uint256);\n\n    function getSupplyRewards(LPoolInterface[] calldata lpools, address account) external;\n\n}\n\n\n",
  "sourcePath": "/home/mingyue/Smartian/Web3Bugs/contracts/72/openleverage-contracts/contracts/ControllerInterface.sol",
  "compiler": {
    "name": "solc",
    "version": "0.7.6+commit.7338295f.Emscripten.clang"
  },
  "schemaVersion": "3.4.16",
  "updatedAt": "2025-02-26T03:47:59.361Z",
  "devdoc": {
    "kind": "dev",
    "methods": {},
    "version": 1
  },
  "userdoc": {
    "kind": "user",
    "methods": {},
    "version": 1
  }
}