{
  "contractName": "Delegator",
  "abi": [
    {
      "inputs": [
        {
          "internalType": "address",
          "name": "implementation_",
          "type": "address"
        }
      ],
      "stateMutability": "nonpayable",
      "type": "constructor"
    },
    {
      "stateMutability": "payable",
      "type": "fallback"
    },
    {
      "inputs": [],
      "name": "implementation",
      "outputs": [
        {
          "internalType": "address",
          "name": "",
          "type": "address"
        }
      ],
      "stateMutability": "view",
      "type": "function"
    },
    {
      "inputs": [],
      "name": "owner",
      "outputs": [
        {
          "internalType": "address",
          "name": "",
          "type": "address"
        }
      ],
      "stateMutability": "view",
      "type": "function"
    },
    {
      "stateMutability": "payable",
      "type": "receive"
    },
    {
      "inputs": [
        {
          "internalType": "address",
          "name": "newOwner",
          "type": "address"
        }
      ],
      "name": "changeOwner",
      "outputs": [],
      "stateMutability": "nonpayable",
      "type": "function"
    },
    {
      "inputs": [
        {
          "internalType": "bytes",
          "name": "data",
          "type": "bytes"
        }
      ],
      "name": "delegateToImplementation",
      "outputs": [
        {
          "internalType": "bytes",
          "name": "",
          "type": "bytes"
        }
      ],
      "stateMutability": "nonpayable",
      "type": "function"
    },
    {
      "inputs": [
        {
          "internalType": "bytes",
          "name": "data",
          "type": "bytes"
        }
      ],
      "name": "delegateToViewImplementation",
      "outputs": [
        {
          "internalType": "bytes",
          "name": "",
          "type": "bytes"
        }
      ],
      "stateMutability": "view",
      "type": "function"
    }
  ],
  "bytecode": "0x608060405234801561001057600080fd5b506040516108ba3803806108ba8339818101604052602081101561003357600080fd5b505160408051336024808301919091528251808303909101815260449091019091526020810180516001600160e01b0390811663189acdbd60e31b1790915261007e9183916100a416565b50600180546001600160a01b0319166001600160a01b0392909216919091179055610165565b6060600080846001600160a01b0316846040518082805190602001908083835b602083106100e35780518252601f1990920191602091820191016100c4565b6001836020036101000a038019825116818451168082178552505050505050905001915050600060405180830381855af49150503d8060008114610143576040519150601f19603f3d011682016040523d82523d6000602084013e610148565b606091505b5091509150600082141561015d573d60208201fd5b949350505050565b610746806101746000396000f3fe60806040526004361061004e5760003560e01c80630933c1ed146101155780634487152f1461023d5780635c60da1b146102f05780638da5cb5b14610321578063a6f9dae11461033657610055565b3661005557005b34156100925760405162461bcd60e51b81526004018080602001828103825260378152602001806106da6037913960400191505060405180910390fd5b6001546040516000916001600160a01b031690829036908083838082843760405192019450600093509091505080830381855af49150503d80600081146100f5576040519150601f19603f3d011682016040523d82523d6000602084013e6100fa565b606091505b505090506040513d6000823e818015610111573d82f35b3d82fd5b34801561012157600080fd5b506101c86004803603602081101561013857600080fd5b81019060208101813564010000000081111561015357600080fd5b82018360208201111561016557600080fd5b8035906020019184600183028401116401000000008311171561018757600080fd5b91908080601f01602080910402602001604051908101604052809392919081815260200183838082843760009201919091525092955061036b945050505050565b6040805160208082528351818301528351919283929083019185019080838360005b838110156102025781810151838201526020016101ea565b50505050905090810190601f16801561022f5780820380516001836020036101000a031916815260200191505b509250505060405180910390f35b34801561024957600080fd5b506101c86004803603602081101561026057600080fd5b81019060208101813564010000000081111561027b57600080fd5b82018360208201111561028d57600080fd5b803590602001918460018302840111640100000000831117156102af57600080fd5b91908080601f01602080910402602001604051908101604052809392919081815260200183838082843760009201919091525092955061038a945050505050565b3480156102fc57600080fd5b506103056105aa565b604080516001600160a01b039092168252519081900360200190f35b34801561032d57600080fd5b506103056105b9565b34801561034257600080fd5b506103696004803603602081101561035957600080fd5b50356001600160a01b03166105c8565b005b600154606090610384906001600160a01b031683610618565b92915050565b6060600080306001600160a01b0316846040516024018080602001828103825283818151815260200191508051906020019080838360005b838110156103da5781810151838201526020016103c2565b50505050905090810190601f1680156104075780820380516001836020036101000a031916815260200191505b5060408051601f198184030181529181526020820180516001600160e01b0316630933c1ed60e01b178152905182519295509350839250908083835b602083106104625780518252601f199092019160209182019101610443565b6001836020036101000a038019825116818451168082178552505050505050905001915050600060405180830381855afa9150503d80600081146104c2576040519150601f19603f3d011682016040523d82523d6000602084013e6104c7565b606091505b509150915060008214156104dc573d60208201fd5b8080602001905160208110156104f157600080fd5b810190808051604051939291908464010000000082111561051157600080fd5b90830190602082018581111561052657600080fd5b825164010000000081118282018810171561054057600080fd5b82525081516020918201929091019080838360005b8381101561056d578181015183820152602001610555565b50505050905090810190601f16801561059a5780820380516001836020036101000a031916815260200191505b5060405250505092505050919050565b6001546001600160a01b031681565b6000546001600160a01b031681565b604080516001600160a01b0383166024808301919091528251808303909101815260449091019091526020810180516001600160e01b031663a6f9dae160e01b1790526106149061036b565b5050565b6060600080846001600160a01b0316846040518082805190602001908083835b602083106106575780518252601f199092019160209182019101610638565b6001836020036101000a038019825116818451168082178552505050505050905001915050600060405180830381855af49150503d80600081146106b7576040519150601f19603f3d011682016040523d82523d6000602084013e6106bc565b606091505b509150915060008214156106d1573d60208201fd5b94935050505056fe43457263323044656c656761746f723a66616c6c6261636b3a2063616e6e6f742073656e642076616c756520746f2066616c6c6261636ba264697066735822122096b1e7489bf8ef2540ef082ef49402c95e72b2d6baddd28a1c60b98c83801e0864736f6c63430007060033",
  "immutableReferences": {},
  "source": "// SPDX-License-Identifier: BUSL-1.1\n\npragma solidity >=0.4.22 <0.8.0;\n\nimport './Interface.sol';\n\ncontract Delegator is Interface {\n    address public implementation;\n    constructor(address implementation_) {\n        // First delegate gets to initialize the delegator (i.e. storage contract)\n        delegateTo(implementation_, abi.encodeWithSignature(\"initialize(address)\",\n            msg.sender));\n        implementation = implementation_;\n    }\n    function changeOwner(address newOwner) external override {\n        delegateToImplementation(abi.encodeWithSignature(\"changeOwner(address)\", newOwner));\n    }\n    /**\n * Internal method to delegate execution to another contract\n * @dev It returns to the external caller whatever the implementation returns or forwards reverts\n * @param callee The contract to delegatecall\n * @param data The raw data to delegatecall\n * @return The returned bytes from the delegatecall\n */\n    function delegateTo(address callee, bytes memory data) internal returns (bytes memory) {\n        (bool success, bytes memory returnData) = callee.delegatecall(data);\n        assembly {\n            if eq(success, 0) {revert(add(returnData, 0x20), returndatasize())}\n        }\n        return returnData;\n    }\n\n    /**\n     * Delegates execution to the implementation contract\n     * @dev It returns to the external caller whatever the implementation returns or forwards reverts\n     * @param data The raw data to delegatecall\n     * @return The returned bytes from the delegatecall\n     */\n    function delegateToImplementation(bytes memory data) public returns (bytes memory) {\n        return delegateTo(implementation, data);\n    }\n\n    /**\n     * Delegates execution to an implementation contract\n     * @dev It returns to the external caller whatever the implementation returns or forwards reverts\n     *  There are an additional 2 prefix uints from the wrapper returndata, which we ignore since we make an extra hop.\n     * @param data The raw data to delegatecall\n     * @return The returned bytes from the delegatecall\n     */\n    function delegateToViewImplementation(bytes memory data) public view returns (bytes memory) {\n        (bool success, bytes memory returnData) = address(this).staticcall(abi.encodeWithSignature(\"delegateToImplementation(bytes)\", data));\n        assembly {\n            if eq(success, 0) {revert(add(returnData, 0x20), returndatasize())}\n        }\n        return abi.decode(returnData, (bytes));\n    }\n\n    /**\n     * Delegates execution to an implementation contract\n     * @dev It returns to the external caller whatever the implementation returns or forwards reverts\n     */\n    fallback() external payable {\n        require(msg.value == 0, \"CErc20Delegator:fallback: cannot send value to fallback\");\n        // delegate all other functions to current implementation\n        (bool success,) = implementation.delegatecall(msg.data);\n\n        assembly {\n            let free_mem_ptr := mload(0x40)\n            returndatacopy(free_mem_ptr, 0, returndatasize())\n\n            switch success\n            case 0 {revert(free_mem_ptr, returndatasize())}\n            default {return (free_mem_ptr, returndatasize())}\n        }\n    }\n\n    receive() external payable {}\n}\n",
  "sourcePath": "/home/mingyue/Smartian/Web3Bugs/contracts/72/openleverage-contracts/contracts/test/Delegator.sol",
  "compiler": {
    "name": "solc",
    "version": "0.7.6+commit.7338295f.Emscripten.clang"
  },
  "schemaVersion": "3.4.16",
  "updatedAt": "2025-02-26T03:48:00.212Z",
  "devdoc": {
    "kind": "dev",
    "methods": {
      "delegateToImplementation(bytes)": {
        "details": "It returns to the external caller whatever the implementation returns or forwards reverts",
        "params": {
          "data": "The raw data to delegatecall"
        },
        "returns": {
          "_0": "The returned bytes from the delegatecall"
        }
      },
      "delegateToViewImplementation(bytes)": {
        "details": "It returns to the external caller whatever the implementation returns or forwards reverts  There are an additional 2 prefix uints from the wrapper returndata, which we ignore since we make an extra hop.",
        "params": {
          "data": "The raw data to delegatecall"
        },
        "returns": {
          "_0": "The returned bytes from the delegatecall"
        }
      }
    },
    "version": 1
  },
  "userdoc": {
    "kind": "user",
    "methods": {
      "delegateToImplementation(bytes)": {
        "notice": "Delegates execution to the implementation contract"
      },
      "delegateToViewImplementation(bytes)": {
        "notice": "Delegates execution to an implementation contract"
      }
    },
    "version": 1
  }
}