{
  "contractName": "Delegate",
  "abi": [
    {
      "inputs": [],
      "name": "delegatePrivate",
      "outputs": [
        {
          "internalType": "uint256",
          "name": "",
          "type": "uint256"
        }
      ],
      "stateMutability": "view",
      "type": "function"
    },
    {
      "inputs": [],
      "name": "delegatePrivateConstant",
      "outputs": [
        {
          "internalType": "uint256",
          "name": "",
          "type": "uint256"
        }
      ],
      "stateMutability": "view",
      "type": "function"
    },
    {
      "inputs": [],
      "name": "delegatePrivateParam",
      "outputs": [
        {
          "internalType": "uint256",
          "name": "",
          "type": "uint256"
        }
      ],
      "stateMutability": "view",
      "type": "function"
    },
    {
      "inputs": [],
      "name": "owner",
      "outputs": [
        {
          "internalType": "address",
          "name": "",
          "type": "address"
        }
      ],
      "stateMutability": "view",
      "type": "function"
    },
    {
      "inputs": [
        {
          "internalType": "address",
          "name": "newOwner",
          "type": "address"
        }
      ],
      "name": "initialize",
      "outputs": [],
      "stateMutability": "nonpayable",
      "type": "function"
    },
    {
      "inputs": [
        {
          "internalType": "uint256",
          "name": "delegatePrivateParam_",
          "type": "uint256"
        }
      ],
      "name": "setDelegatePrivateParam",
      "outputs": [],
      "stateMutability": "nonpayable",
      "type": "function"
    },
    {
      "inputs": [
        {
          "internalType": "address",
          "name": "newOwner",
          "type": "address"
        }
      ],
      "name": "changeOwner",
      "outputs": [],
      "stateMutability": "nonpayable",
      "type": "function"
    }
  ],
  "bytecode": "0x6080604052606460025534801561001557600080fd5b50610192806100256000396000f3fe608060405234801561001057600080fd5b506004361061007d5760003560e01c8063a6f9dae11161005b578063a6f9dae1146100df578063a8bc504a14610105578063c4d66de8146100df578063dcd8ff1c1461010d5761007d565b80632405aaef146100825780638da5cb5b1461009c5780639ed41acf146100c0575b600080fd5b61008a610115565b60408051918252519081900360200190f35b6100a461011a565b604080516001600160a01b039092168252519081900360200190f35b6100dd600480360360208110156100d657600080fd5b5035610129565b005b6100dd600480360360208110156100f557600080fd5b50356001600160a01b031661012e565b61008a610150565b61008a610156565b600181565b6000546001600160a01b031681565b600255565b600080546001600160a01b0319166001600160a01b0392909216919091179055565b60025481565b6001548156fea264697066735822122054833cd9023fcd5953562990166bb0c9047cfb10d005e3334aa62196410b54bf64736f6c63430007060033",
  "immutableReferences": {},
  "source": "// SPDX-License-Identifier: BUSL-1.1\npragma solidity >=0.4.22 <0.8.0;\n\nimport './Interface.sol';\n\ncontract Delegate is Interface {\n    uint public delegatePrivate;\n\n    uint public delegatePrivateParam=100;\n\n    uint constant public delegatePrivateConstant=1;\n\n    function initialize(address newOwner) public {\n        owner = newOwner;\n    }\n    function setDelegatePrivateParam(uint delegatePrivateParam_) external  {\n        delegatePrivateParam = delegatePrivateParam_;\n    }\n    function changeOwner(address newOwner) external override {\n        owner = newOwner;\n    }\n\n}\n",
  "sourcePath": "/home/mingyue/Smartian/Web3Bugs/contracts/72/openleverage-contracts/contracts/test/Delegate.sol",
  "compiler": {
    "name": "solc",
    "version": "0.7.6+commit.7338295f.Emscripten.clang"
  },
  "schemaVersion": "3.4.16",
  "updatedAt": "2025-02-26T03:48:00.211Z",
  "devdoc": {
    "kind": "dev",
    "methods": {},
    "version": 1
  },
  "userdoc": {
    "kind": "user",
    "methods": {},
    "version": 1
  }
}