{
  "contractName": "DexAggregatorDelegator",
  "abi": [
    {
      "inputs": [
        {
          "internalType": "address",
          "name": "_uniV2Factory",
          "type": "address"
        },
        {
          "internalType": "address",
          "name": "_uniV3Factory",
          "type": "address"
        },
        {
          "internalType": "address payable",
          "name": "admin_",
          "type": "address"
        },
        {
          "internalType": "address",
          "name": "implementation_",
          "type": "address"
        }
      ],
      "stateMutability": "nonpayable",
      "type": "constructor"
    },
    {
      "anonymous": false,
      "inputs": [
        {
          "indexed": false,
          "internalType": "address",
          "name": "oldAdmin",
          "type": "address"
        },
        {
          "indexed": false,
          "internalType": "address",
          "name": "newAdmin",
          "type": "address"
        }
      ],
      "name": "NewAdmin",
      "type": "event"
    },
    {
      "anonymous": false,
      "inputs": [
        {
          "indexed": false,
          "internalType": "address",
          "name": "oldImplementation",
          "type": "address"
        },
        {
          "indexed": false,
          "internalType": "address",
          "name": "newImplementation",
          "type": "address"
        }
      ],
      "name": "NewImplementation",
      "type": "event"
    },
    {
      "anonymous": false,
      "inputs": [
        {
          "indexed": false,
          "internalType": "address",
          "name": "oldPendingAdmin",
          "type": "address"
        },
        {
          "indexed": false,
          "internalType": "address",
          "name": "newPendingAdmin",
          "type": "address"
        }
      ],
      "name": "NewPendingAdmin",
      "type": "event"
    },
    {
      "stateMutability": "payable",
      "type": "fallback"
    },
    {
      "inputs": [],
      "name": "acceptAdmin",
      "outputs": [],
      "stateMutability": "nonpayable",
      "type": "function"
    },
    {
      "inputs": [],
      "name": "admin",
      "outputs": [
        {
          "internalType": "address payable",
          "name": "",
          "type": "address"
        }
      ],
      "stateMutability": "view",
      "type": "function"
    },
    {
      "inputs": [
        {
          "internalType": "bytes",
          "name": "data",
          "type": "bytes"
        }
      ],
      "name": "delegateToImplementation",
      "outputs": [
        {
          "internalType": "bytes",
          "name": "",
          "type": "bytes"
        }
      ],
      "stateMutability": "nonpayable",
      "type": "function"
    },
    {
      "inputs": [
        {
          "internalType": "bytes",
          "name": "data",
          "type": "bytes"
        }
      ],
      "name": "delegateToViewImplementation",
      "outputs": [
        {
          "internalType": "bytes",
          "name": "",
          "type": "bytes"
        }
      ],
      "stateMutability": "view",
      "type": "function"
    },
    {
      "inputs": [],
      "name": "developer",
      "outputs": [
        {
          "internalType": "address payable",
          "name": "",
          "type": "address"
        }
      ],
      "stateMutability": "view",
      "type": "function"
    },
    {
      "inputs": [],
      "name": "implementation",
      "outputs": [
        {
          "internalType": "address",
          "name": "",
          "type": "address"
        }
      ],
      "stateMutability": "view",
      "type": "function"
    },
    {
      "inputs": [],
      "name": "pendingAdmin",
      "outputs": [
        {
          "internalType": "address payable",
          "name": "",
          "type": "address"
        }
      ],
      "stateMutability": "view",
      "type": "function"
    },
    {
      "inputs": [
        {
          "internalType": "address payable",
          "name": "newPendingAdmin",
          "type": "address"
        }
      ],
      "name": "setPendingAdmin",
      "outputs": [],
      "stateMutability": "nonpayable",
      "type": "function"
    },
    {
      "stateMutability": "payable",
      "type": "receive"
    },
    {
      "inputs": [
        {
          "internalType": "address",
          "name": "implementation_",
          "type": "address"
        }
      ],
      "name": "setImplementation",
      "outputs": [],
      "stateMutability": "nonpayable",
      "type": "function"
    }
  ],
  "bytecode": "0x608060405234801561001057600080fd5b50604051610bc7380380610bc78339818101604052608081101561003357600080fd5b50805160208083015160408085015160609095015160038054336001600160a01b0319918216811790925560018054909116909117905581516001600160a01b0380871660248301528416604480830191909152835180830390910181526064909101909252928101805163485cc95560e01b6001600160e01b0391821617909152939491939192916100c891839161010016565b50600080546001600160a01b039283166001600160a01b03199182161790915560018054939092169216919091179055506101c19050565b6060600080846001600160a01b0316846040518082805190602001908083835b6020831061013f5780518252601f199092019160209182019101610120565b6001836020036101000a038019825116818451168082178552505050505050905001915050600060405180830381855af49150503d806000811461019f576040519150601f19603f3d011682016040523d82523d6000602084013e6101a4565b606091505b509150915060008214156101b9573d60208201fd5b949350505050565b6109f7806101d06000396000f3fe60806040526004361061008a5760003560e01c80634dd18bf5116100595780634dd18bf5146102c25780635c60da1b146102f5578063ca4b208b1461030a578063d784d4261461031f578063f851a4401461035257610099565b80630933c1ed146100a15780630e18b681146101c957806326782247146101de5780634487152f1461020f57610099565b3661009957610097610367565b005b610097610367565b3480156100ad57600080fd5b50610154600480360360208110156100c457600080fd5b8101906020810181356401000000008111156100df57600080fd5b8201836020820111156100f157600080fd5b8035906020019184600183028401116401000000008311171561011357600080fd5b91908080601f0160208091040260200160405190810160405280939291908181526020018383808284376000920191909152509295506103f2945050505050565b6040805160208082528351818301528351919283929083019185019080838360005b8381101561018e578181015183820152602001610176565b50505050905090810190601f1680156101bb5780820380516001836020036101000a031916815260200191505b509250505060405180910390f35b3480156101d557600080fd5b50610097610411565b3480156101ea57600080fd5b506101f3610511565b604080516001600160a01b039092168252519081900360200190f35b34801561021b57600080fd5b506101546004803603602081101561023257600080fd5b81019060208101813564010000000081111561024d57600080fd5b82018360208201111561025f57600080fd5b8035906020019184600183028401116401000000008311171561028157600080fd5b91908080601f016020809104026020016040519081016040528093929190818152602001838380828437600092019190915250929550610520945050505050565b3480156102ce57600080fd5b50610097600480360360208110156102e557600080fd5b50356001600160a01b0316610740565b34801561030157600080fd5b506101f36107f9565b34801561031657600080fd5b506101f3610808565b34801561032b57600080fd5b506100976004803603602081101561034257600080fd5b50356001600160a01b0316610817565b34801561035e57600080fd5b506101f36108cf565b36156103f057600080546040516001600160a01b0390911690829036908083838082843760405192019450600093509091505080830381855af49150503d80600081146103d0576040519150601f19603f3d011682016040523d82523d6000602084013e6103d5565b606091505b505090506040513d6000823e8180156103ec573d82f35b3d82fd5b565b60005460609061040b906001600160a01b0316836108de565b92915050565b6002546001600160a01b0316331461045a5760405162461bcd60e51b81526004018080602001828103825260228152602001806109a06022913960400191505060405180910390fd5b60018054600280546001600160a01b038082166001600160a01b031980861682179687905590921690925560408051938316808552949092166020840152815190927ff9ffabca9c8276e99321725bcb43fb076a6c66a54b7f21c4e8146d8519b417dc92908290030190a1600254604080516001600160a01b038085168252909216602083015280517fca4f2f25d0898edd99413412fb94012f9e54ec8142f9b093e7720646a95b16a99281900390910190a15050565b6002546001600160a01b031681565b6060600080306001600160a01b0316846040516024018080602001828103825283818151815260200191508051906020019080838360005b83811015610570578181015183820152602001610558565b50505050905090810190601f16801561059d5780820380516001836020036101000a031916815260200191505b5060408051601f198184030181529181526020820180516001600160e01b0316630933c1ed60e01b178152905182519295509350839250908083835b602083106105f85780518252601f1990920191602091820191016105d9565b6001836020036101000a038019825116818451168082178552505050505050905001915050600060405180830381855afa9150503d8060008114610658576040519150601f19603f3d011682016040523d82523d6000602084013e61065d565b606091505b50915091506000821415610672573d60208201fd5b80806020019051602081101561068757600080fd5b81019080805160405193929190846401000000008211156106a757600080fd5b9083019060208201858111156106bc57600080fd5b82516401000000008111828201881017156106d657600080fd5b82525081516020918201929091019080838360005b838110156107035781810151838201526020016106eb565b50505050905090810190601f1680156107305780820380516001836020036101000a031916815260200191505b5060405250505092505050919050565b6001546001600160a01b03163314610796576040805162461bcd60e51b815260206004820152601460248201527331b0b63632b91036bab9ba1031329030b236b4b760611b604482015290519081900360640190fd5b600280546001600160a01b038381166001600160a01b0319831681179093556040805191909216808252602082019390935281517fca4f2f25d0898edd99413412fb94012f9e54ec8142f9b093e7720646a95b16a9929181900390910190a15050565b6000546001600160a01b031681565b6003546001600160a01b031681565b6001546001600160a01b0316331461086d576040805162461bcd60e51b815260206004820152601460248201527331b0b63632b91036bab9ba1031329030b236b4b760611b604482015290519081900360640190fd5b600080546001600160a01b038381166001600160a01b0319831617928390556040805192821680845293909116602083015280517fd604de94d45953f9138079ec1b82d533cb2160c906d1076d1f7ed54befbca97a9281900390910190a15050565b6001546001600160a01b031681565b6060600080846001600160a01b0316846040518082805190602001908083835b6020831061091d5780518252601f1990920191602091820191016108fe565b6001836020036101000a038019825116818451168082178552505050505050905001915050600060405180830381855af49150503d806000811461097d576040519150601f19603f3d011682016040523d82523d6000602084013e610982565b606091505b50915091506000821415610997573d60208201fd5b94935050505056fe6f6e6c792070656e64696e6741646d696e2063616e206163636570742061646d696ea2646970667358221220b98e411d901b3fe2589d499bc2bd952543b3318c679090af20069aedbe47c7d664736f6c63430007060033",
  "immutableReferences": {},
  "source": "// SPDX-License-Identifier: BUSL-1.1\n\npragma solidity 0.7.6;\n\nimport \"../DelegatorInterface.sol\";\nimport \"./DexAggregatorInterface.sol\";\nimport \"../Adminable.sol\";\n\ncontract DexAggregatorDelegator is DelegatorInterface, Adminable {\n\n    constructor(address _uniV2Factory,\n        address _uniV3Factory,\n        address payable admin_,\n        address implementation_) {\n        admin = msg.sender;\n        // Creator of the contract is admin during initialization\n        // First delegate gets to initialize the delegator (i.e. storage contract)\n        delegateTo(implementation_, abi.encodeWithSignature(\"initialize(address,address)\",\n            _uniV2Factory,\n            _uniV3Factory\n            ));\n        implementation = implementation_;\n        // Set the proper admin now that initialization is done\n        admin = admin_;\n    }\n\n    /**\n     * Called by the admin to update the implementation of the delegator\n     * @param implementation_ The address of the new implementation for delegation\n     */\n    function setImplementation(address implementation_) public override onlyAdmin {\n        address oldImplementation = implementation;\n        implementation = implementation_;\n        emit NewImplementation(oldImplementation, implementation);\n    }\n}\n",
  "sourcePath": "/home/mingyue/Smartian/Web3Bugs/contracts/72/openleverage-contracts/contracts/dex/DexAggregatorDelegator.sol",
  "compiler": {
    "name": "solc",
    "version": "0.7.6+commit.7338295f.Emscripten.clang"
  },
  "schemaVersion": "3.4.16",
  "updatedAt": "2025-02-26T03:47:59.443Z",
  "devdoc": {
    "kind": "dev",
    "methods": {
      "delegateToImplementation(bytes)": {
        "details": "It returns to the external caller whatever the implementation returns or forwards reverts",
        "params": {
          "data": "The raw data to delegatecall"
        },
        "returns": {
          "_0": "The returned bytes from the delegatecall"
        }
      },
      "delegateToViewImplementation(bytes)": {
        "details": "It returns to the external caller whatever the implementation returns or forwards reverts  There are an additional 2 prefix uints from the wrapper returndata, which we ignore since we make an extra hop.",
        "params": {
          "data": "The raw data to delegatecall"
        },
        "returns": {
          "_0": "The returned bytes from the delegatecall"
        }
      },
      "setImplementation(address)": {
        "params": {
          "implementation_": "The address of the new implementation for delegation"
        }
      }
    },
    "version": 1
  },
  "userdoc": {
    "events": {
      "NewImplementation(address,address)": {
        "notice": "Emitted when implementation is changed"
      }
    },
    "kind": "user",
    "methods": {
      "delegateToImplementation(bytes)": {
        "notice": "Delegates execution to the implementation contract"
      },
      "delegateToViewImplementation(bytes)": {
        "notice": "Delegates execution to an implementation contract"
      },
      "implementation()": {
        "notice": "Implementation address for this contract"
      },
      "setImplementation(address)": {
        "notice": "Called by the admin to update the implementation of the delegator"
      }
    },
    "version": 1
  }
}