{
  "contractName": "GovernorAlpha",
  "abi": [
    {
      "inputs": [
        {
          "internalType": "address payable",
          "name": "timelock_",
          "type": "address"
        },
        {
          "internalType": "address",
          "name": "xoleToken_",
          "type": "address"
        },
        {
          "internalType": "address",
          "name": "guardian_",
          "type": "address"
        }
      ],
      "stateMutability": "nonpayable",
      "type": "constructor"
    },
    {
      "anonymous": false,
      "inputs": [
        {
          "indexed": false,
          "internalType": "uint256",
          "name": "id",
          "type": "uint256"
        }
      ],
      "name": "ProposalCanceled",
      "type": "event"
    },
    {
      "anonymous": false,
      "inputs": [
        {
          "indexed": false,
          "internalType": "uint256",
          "name": "id",
          "type": "uint256"
        },
        {
          "indexed": false,
          "internalType": "address",
          "name": "proposer",
          "type": "address"
        },
        {
          "indexed": false,
          "internalType": "address[]",
          "name": "targets",
          "type": "address[]"
        },
        {
          "indexed": false,
          "internalType": "uint256[]",
          "name": "values",
          "type": "uint256[]"
        },
        {
          "indexed": false,
          "internalType": "string[]",
          "name": "signatures",
          "type": "string[]"
        },
        {
          "indexed": false,
          "internalType": "bytes[]",
          "name": "calldatas",
          "type": "bytes[]"
        },
        {
          "indexed": false,
          "internalType": "uint256",
          "name": "startBlock",
          "type": "uint256"
        },
        {
          "indexed": false,
          "internalType": "uint256",
          "name": "endBlock",
          "type": "uint256"
        },
        {
          "indexed": false,
          "internalType": "string",
          "name": "description",
          "type": "string"
        }
      ],
      "name": "ProposalCreated",
      "type": "event"
    },
    {
      "anonymous": false,
      "inputs": [
        {
          "indexed": false,
          "internalType": "uint256",
          "name": "id",
          "type": "uint256"
        }
      ],
      "name": "ProposalExecuted",
      "type": "event"
    },
    {
      "anonymous": false,
      "inputs": [
        {
          "indexed": false,
          "internalType": "uint256",
          "name": "id",
          "type": "uint256"
        },
        {
          "indexed": false,
          "internalType": "uint256",
          "name": "eta",
          "type": "uint256"
        }
      ],
      "name": "ProposalQueued",
      "type": "event"
    },
    {
      "anonymous": false,
      "inputs": [
        {
          "indexed": false,
          "internalType": "address",
          "name": "voter",
          "type": "address"
        },
        {
          "indexed": false,
          "internalType": "uint256",
          "name": "proposalId",
          "type": "uint256"
        },
        {
          "indexed": false,
          "internalType": "bool",
          "name": "support",
          "type": "bool"
        },
        {
          "indexed": false,
          "internalType": "uint256",
          "name": "votes",
          "type": "uint256"
        }
      ],
      "name": "VoteCast",
      "type": "event"
    },
    {
      "inputs": [],
      "name": "BALLOT_TYPEHASH",
      "outputs": [
        {
          "internalType": "bytes32",
          "name": "",
          "type": "bytes32"
        }
      ],
      "stateMutability": "view",
      "type": "function"
    },
    {
      "inputs": [],
      "name": "DOMAIN_TYPEHASH",
      "outputs": [
        {
          "internalType": "bytes32",
          "name": "",
          "type": "bytes32"
        }
      ],
      "stateMutability": "view",
      "type": "function"
    },
    {
      "inputs": [],
      "name": "guardian",
      "outputs": [
        {
          "internalType": "address",
          "name": "",
          "type": "address"
        }
      ],
      "stateMutability": "view",
      "type": "function"
    },
    {
      "inputs": [
        {
          "internalType": "address",
          "name": "",
          "type": "address"
        }
      ],
      "name": "latestProposalIds",
      "outputs": [
        {
          "internalType": "uint256",
          "name": "",
          "type": "uint256"
        }
      ],
      "stateMutability": "view",
      "type": "function"
    },
    {
      "inputs": [],
      "name": "name",
      "outputs": [
        {
          "internalType": "string",
          "name": "",
          "type": "string"
        }
      ],
      "stateMutability": "view",
      "type": "function"
    },
    {
      "inputs": [],
      "name": "proposalCount",
      "outputs": [
        {
          "internalType": "uint256",
          "name": "",
          "type": "uint256"
        }
      ],
      "stateMutability": "view",
      "type": "function"
    },
    {
      "inputs": [
        {
          "internalType": "uint256",
          "name": "",
          "type": "uint256"
        }
      ],
      "name": "proposals",
      "outputs": [
        {
          "internalType": "uint256",
          "name": "id",
          "type": "uint256"
        },
        {
          "internalType": "address",
          "name": "proposer",
          "type": "address"
        },
        {
          "internalType": "uint256",
          "name": "eta",
          "type": "uint256"
        },
        {
          "internalType": "uint256",
          "name": "startBlock",
          "type": "uint256"
        },
        {
          "internalType": "uint256",
          "name": "endBlock",
          "type": "uint256"
        },
        {
          "internalType": "uint256",
          "name": "forVotes",
          "type": "uint256"
        },
        {
          "internalType": "uint256",
          "name": "againstVotes",
          "type": "uint256"
        },
        {
          "internalType": "bool",
          "name": "canceled",
          "type": "bool"
        },
        {
          "internalType": "bool",
          "name": "executed",
          "type": "bool"
        }
      ],
      "stateMutability": "view",
      "type": "function"
    },
    {
      "inputs": [
        {
          "internalType": "uint256",
          "name": "",
          "type": "uint256"
        },
        {
          "internalType": "address",
          "name": "",
          "type": "address"
        }
      ],
      "name": "receipts",
      "outputs": [
        {
          "internalType": "bool",
          "name": "hasVoted",
          "type": "bool"
        },
        {
          "internalType": "bool",
          "name": "support",
          "type": "bool"
        },
        {
          "internalType": "uint256",
          "name": "votes",
          "type": "uint256"
        }
      ],
      "stateMutability": "view",
      "type": "function"
    },
    {
      "inputs": [],
      "name": "timelock",
      "outputs": [
        {
          "internalType": "contract Timelock",
          "name": "",
          "type": "address"
        }
      ],
      "stateMutability": "view",
      "type": "function"
    },
    {
      "inputs": [],
      "name": "xole",
      "outputs": [
        {
          "internalType": "contract XOLE",
          "name": "",
          "type": "address"
        }
      ],
      "stateMutability": "view",
      "type": "function"
    },
    {
      "inputs": [
        {
          "internalType": "uint256",
          "name": "blockNumber",
          "type": "uint256"
        }
      ],
      "name": "quorumVotes",
      "outputs": [
        {
          "internalType": "uint256",
          "name": "",
          "type": "uint256"
        }
      ],
      "stateMutability": "view",
      "type": "function"
    },
    {
      "inputs": [],
      "name": "proposalThreshold",
      "outputs": [
        {
          "internalType": "uint256",
          "name": "",
          "type": "uint256"
        }
      ],
      "stateMutability": "view",
      "type": "function"
    },
    {
      "inputs": [],
      "name": "proposalMaxOperations",
      "outputs": [
        {
          "internalType": "uint256",
          "name": "",
          "type": "uint256"
        }
      ],
      "stateMutability": "pure",
      "type": "function"
    },
    {
      "inputs": [],
      "name": "votingDelay",
      "outputs": [
        {
          "internalType": "uint256",
          "name": "",
          "type": "uint256"
        }
      ],
      "stateMutability": "pure",
      "type": "function"
    },
    {
      "inputs": [],
      "name": "votingPeriod",
      "outputs": [
        {
          "internalType": "uint256",
          "name": "",
          "type": "uint256"
        }
      ],
      "stateMutability": "pure",
      "type": "function"
    },
    {
      "inputs": [
        {
          "internalType": "address[]",
          "name": "targets",
          "type": "address[]"
        },
        {
          "internalType": "uint256[]",
          "name": "values",
          "type": "uint256[]"
        },
        {
          "internalType": "string[]",
          "name": "signatures",
          "type": "string[]"
        },
        {
          "internalType": "bytes[]",
          "name": "calldatas",
          "type": "bytes[]"
        },
        {
          "internalType": "string",
          "name": "description",
          "type": "string"
        }
      ],
      "name": "propose",
      "outputs": [
        {
          "internalType": "uint256",
          "name": "",
          "type": "uint256"
        }
      ],
      "stateMutability": "nonpayable",
      "type": "function"
    },
    {
      "inputs": [
        {
          "internalType": "uint256",
          "name": "proposalId",
          "type": "uint256"
        }
      ],
      "name": "queue",
      "outputs": [
        {
          "internalType": "bool",
          "name": "",
          "type": "bool"
        }
      ],
      "stateMutability": "nonpayable",
      "type": "function"
    },
    {
      "inputs": [
        {
          "internalType": "uint256",
          "name": "proposalId",
          "type": "uint256"
        }
      ],
      "name": "execute",
      "outputs": [
        {
          "internalType": "bool",
          "name": "",
          "type": "bool"
        }
      ],
      "stateMutability": "payable",
      "type": "function"
    },
    {
      "inputs": [
        {
          "internalType": "uint256",
          "name": "proposalId",
          "type": "uint256"
        }
      ],
      "name": "getActions",
      "outputs": [
        {
          "internalType": "address[]",
          "name": "targets",
          "type": "address[]"
        },
        {
          "internalType": "uint256[]",
          "name": "values",
          "type": "uint256[]"
        },
        {
          "internalType": "string[]",
          "name": "signatures",
          "type": "string[]"
        },
        {
          "internalType": "bytes[]",
          "name": "calldatas",
          "type": "bytes[]"
        }
      ],
      "stateMutability": "view",
      "type": "function"
    },
    {
      "inputs": [
        {
          "internalType": "uint256",
          "name": "proposalId",
          "type": "uint256"
        },
        {
          "internalType": "address",
          "name": "voter",
          "type": "address"
        }
      ],
      "name": "getReceipt",
      "outputs": [
        {
          "components": [
            {
              "internalType": "bool",
              "name": "hasVoted",
              "type": "bool"
            },
            {
              "internalType": "bool",
              "name": "support",
              "type": "bool"
            },
            {
              "internalType": "uint256",
              "name": "votes",
              "type": "uint256"
            }
          ],
          "internalType": "struct GovernorAlpha.Receipt",
          "name": "",
          "type": "tuple"
        }
      ],
      "stateMutability": "view",
      "type": "function"
    },
    {
      "inputs": [
        {
          "internalType": "uint256",
          "name": "proposalId",
          "type": "uint256"
        }
      ],
      "name": "state",
      "outputs": [
        {
          "internalType": "enum GovernorAlpha.ProposalState",
          "name": "",
          "type": "uint8"
        }
      ],
      "stateMutability": "view",
      "type": "function"
    },
    {
      "inputs": [
        {
          "internalType": "uint256",
          "name": "proposalId",
          "type": "uint256"
        }
      ],
      "name": "cancel",
      "outputs": [],
      "stateMutability": "nonpayable",
      "type": "function"
    },
    {
      "inputs": [
        {
          "internalType": "uint256",
          "name": "proposalId",
          "type": "uint256"
        },
        {
          "internalType": "bool",
          "name": "support",
          "type": "bool"
        }
      ],
      "name": "castVote",
      "outputs": [],
      "stateMutability": "nonpayable",
      "type": "function"
    },
    {
      "inputs": [
        {
          "internalType": "uint256",
          "name": "proposalId",
          "type": "uint256"
        },
        {
          "internalType": "bool",
          "name": "support",
          "type": "bool"
        },
        {
          "internalType": "uint8",
          "name": "v",
          "type": "uint8"
        },
        {
          "internalType": "bytes32",
          "name": "r",
          "type": "bytes32"
        },
        {
          "internalType": "bytes32",
          "name": "s",
          "type": "bytes32"
        }
      ],
      "name": "castVoteBySig",
      "outputs": [],
      "stateMutability": "nonpayable",
      "type": "function"
    },
    {
      "inputs": [
        {
          "internalType": "uint256",
          "name": "proposalId",
          "type": "uint256"
        },
        {
          "internalType": "bool[]",
          "name": "support",
          "type": "bool[]"
        },
        {
          "internalType": "uint8[]",
          "name": "v",
          "type": "uint8[]"
        },
        {
          "internalType": "bytes32[]",
          "name": "r",
          "type": "bytes32[]"
        },
        {
          "internalType": "bytes32[]",
          "name": "s",
          "type": "bytes32[]"
        }
      ],
      "name": "castVoteBySigs",
      "outputs": [],
      "stateMutability": "nonpayable",
      "type": "function"
    },
    {
      "inputs": [],
      "name": "__acceptAdmin",
      "outputs": [],
      "stateMutability": "nonpayable",
      "type": "function"
    },
    {
      "inputs": [],
      "name": "__abdicate",
      "outputs": [],
      "stateMutability": "nonpayable",
      "type": "function"
    }
  ],
  "bytecode": "0x60806040523480156200001157600080fd5b50604051620031b7380380620031b7833981016040819052620000349162000077565b600080546001600160a01b039485166001600160a01b031991821617909155600180549385169382169390931790925560028054919093169116179055620000e3565b6000806000606084860312156200008c578283fd5b83516200009981620000ca565b6020850151909350620000ac81620000ca565b6040850151909250620000bf81620000ca565b809150509250925092565b6001600160a01b0381168114620000e057600080fd5b50565b6130c480620000f36000396000f3fe60806040526004361061019c5760003560e01c8063452a9320116100ec578063d33219b41161008a578063ddf0b00911610064578063ddf0b00914610470578063deaaa7cc1461049d578063e23a9a52146104b2578063fe0d94c1146104df5761019c565b8063d33219b414610426578063da35c6641461043b578063da95691a146104505761019c565b8063760fbc13116100c6578063760fbc13146103d25780637bdbe4d0146103e7578063b58131b0146103fc578063b9a61961146104115761019c565b8063452a93201461037d5780634634c61f1461039257806375bc36d0146103b25761019c565b80631aef5e0d116101595780633932abb1116101335780633932abb1146102ec5780633e4f49e61461030157806340e58ee51461032e5780634178b2491461034e5761019c565b80631aef5e0d1461028557806320606b70146102a7578063328dd982146102bc5761019c565b8063013cf08b146101a157806302a251a3146101df57806306fdde03146102015780630f7b1f081461022357806315373e3d1461024357806317977c6114610265575b600080fd5b3480156101ad57600080fd5b506101c16101bc3660046123d3565b6104f2565b6040516101d699989796959493929190612f8a565b60405180910390f35b3480156101eb57600080fd5b506101f461054b565b6040516101d6919061287e565b34801561020d57600080fd5b50610216610551565b6040516101d691906128f5565b34801561022f57600080fd5b506101f461023e3660046123d3565b61058a565b34801561024f57600080fd5b5061026361025e36600461251c565b610620565b005b34801561027157600080fd5b506101f4610280366004612246565b61062f565b34801561029157600080fd5b5061029a610641565b6040516101d69190612729565b3480156102b357600080fd5b506101f4610650565b3480156102c857600080fd5b506102dc6102d73660046123d3565b610674565b6040516101d69493929190612803565b3480156102f857600080fd5b506101f4610903565b34801561030d57600080fd5b5061032161031c3660046123d3565b610908565b6040516101d691906128e1565b34801561033a57600080fd5b506102636103493660046123d3565b610a9f565b34801561035a57600080fd5b5061036e6103693660046123eb565b610d15565b6040516101d693929190612866565b34801561038957600080fd5b5061029a610d46565b34801561039e57600080fd5b506102636103ad36600461254b565b610d55565b3480156103be57600080fd5b506102636103cd366004612416565b610d69565b3480156103de57600080fd5b50610263610e06565b3480156103f357600080fd5b506101f4610e42565b34801561040857600080fd5b506101f4610e47565b34801561041d57600080fd5b50610263610eda565b34801561043257600080fd5b5061029a610f5f565b34801561044757600080fd5b506101f4610f6e565b34801561045c57600080fd5b506101f461046b366004612260565b610f74565b34801561047c57600080fd5b5061049061048b3660046123d3565b611384565b6040516101d6919061285b565b3480156104a957600080fd5b506101f4611602565b3480156104be57600080fd5b506104d26104cd3660046123eb565b611626565b6040516101d69190612ecd565b6104906104ed3660046123d3565b611683565b6004602052600090815260409020805460018201546002830154600784015460088501546009860154600a870154600b9097015495966001600160a01b0390951695939492939192909160ff8082169161010090041689565b61438090565b6040518060400160405280601c81526020017f4f70656e204c6576657261676520476f7665726e6f7220416c7068610000000081525081565b600154604051630981b24d60e41b81526000916019916001600160a01b039091169063981b24d0906105c090869060040161287e565b60206040518083038186803b1580156105d857600080fd5b505afa1580156105ec573d6000803e3d6000fd5b505050506040513d601f19601f820116820180604052508101906106109190612348565b8161061757fe5b0490505b919050565b61062b33838361184f565b5050565b60066020526000908152604090205481565b6001546001600160a01b031681565b7f8cad95687ba82c2ce50e74f7b754645e5117c3a5bec8151c0726d5857980a86681565b606080606080600060046000878152602001908152602001600020905080600301816004018260050183600601838054806020026020016040519081016040528092919081815260200182805480156106f657602002820191906000526020600020905b81546001600160a01b031681526001909101906020018083116106d8575b505050505093508280548060200260200160405190810160405280929190818152602001828054801561074857602002820191906000526020600020905b815481526020019060010190808311610734575b5050505050925081805480602002602001604051908101604052809291908181526020016000905b8282101561081b5760008481526020908190208301805460408051601f60026000196101006001871615020190941693909304928301859004850281018501909152818152928301828280156108075780601f106107dc57610100808354040283529160200191610807565b820191906000526020600020905b8154815290600101906020018083116107ea57829003601f168201915b505050505081526020019060010190610770565b50505050915080805480602002602001604051908101604052809291908181526020016000905b828210156108ed5760008481526020908190208301805460408051601f60026000196101006001871615020190941693909304928301859004850281018501909152818152928301828280156108d95780601f106108ae576101008083540402835291602001916108d9565b820191906000526020600020905b8154815290600101906020018083116108bc57829003601f168201915b505050505081526020019060010190610842565b5050505090509450945094509450509193509193565b600190565b6000816003541015801561091c5750600082115b6109415760405162461bcd60e51b8152600401610938906129dd565b60405180910390fd5b6000828152600460205260409020600b81015460ff161561096657600291505061061b565b8060070154431161097b57600091505061061b565b8060080154431161099057600191505061061b565b80600a015481600901541115806109b657506109af816007015461058a565b8160090154105b156109c557600391505061061b565b60028101546109d857600491505061061b565b600b810154610100900460ff16156109f457600791505061061b565b610a85816002015460008054906101000a90046001600160a01b03166001600160a01b031663c1a287e26040518163ffffffff1660e01b815260040160206040518083038186803b158015610a4857600080fd5b505afa158015610a5c573d6000803e3d6000fd5b505050506040513d601f19601f82011682018060405250810190610a809190612348565b6119ee565b4210610a9557600691505061061b565b600591505061061b565b6000610aaa82610908565b90506007816007811115610aba57fe5b1415610ad85760405162461bcd60e51b815260040161093890612e1e565b600082815260046020526040812090610af2436001611a1a565b60018301549091506001600160a01b03163314610bcb576002546001600160a01b0316331480610baf5750610b25610e47565b600180549084015460405163782d6fe160e01b81526001600160a01b039283169263782d6fe192610b5d92911690869060040161273d565b60206040518083038186803b158015610b7557600080fd5b505afa158015610b89573d6000803e3d6000fd5b505050506040513d601f19601f82011682018060405250810190610bad9190612348565b105b610bcb5760405162461bcd60e51b815260040161093890612bea565b600b8201805460ff1916600117905560005b6003830154811015610cd7576000546003840180546001600160a01b039092169163591fcdfe919084908110610c0f57fe5b6000918252602090912001546004860180546001600160a01b039092169185908110610c3757fe5b9060005260206000200154866005018581548110610c5157fe5b90600052602060002001876006018681548110610c6a57fe5b9060005260206000200188600201546040518663ffffffff1660e01b8152600401610c999594939291906127ca565b600060405180830381600087803b158015610cb357600080fd5b505af1158015610cc7573d6000803e3d6000fd5b505060019092019150610bdd9050565b507f789cf55be980739dad1d0699b93b58e806b51c9d96619bfa8fe0a28abaa7b30c84604051610d07919061287e565b60405180910390a150505050565b60056020908152600092835260408084209091529082529020805460019091015460ff808316926101009004169083565b6002546001600160a01b031681565b610d628585858585611a42565b5050505050565b82518451148015610d7b575081518351145b8015610d88575080518251145b610d9157600080fd5b60005b8451811015610dfe57610df686868381518110610dad57fe5b6020026020010151868481518110610dc157fe5b6020026020010151868581518110610dd557fe5b6020026020010151868681518110610de957fe5b6020026020010151611a42565b600101610d94565b505050505050565b6002546001600160a01b03163314610e305760405162461bcd60e51b815260040161093890612a26565b600280546001600160a01b0319169055565b600a90565b600154604051630981b24d60e41b81526000916064916001600160a01b039091169063981b24d090610e7d90439060040161287e565b60206040518083038186803b158015610e9557600080fd5b505afa158015610ea9573d6000803e3d6000fd5b505050506040513d601f19601f82011682018060405250810190610ecd9190612348565b81610ed457fe5b04905090565b6002546001600160a01b03163314610f045760405162461bcd60e51b815260040161093890612a26565b6000805460408051630e18b68160e01b815290516001600160a01b0390921692630e18b6819260048084019382900301818387803b158015610f4557600080fd5b505af1158015610f59573d6000803e3d6000fd5b50505050565b6000546001600160a01b031681565b60035481565b600080610f82436001611a1a565b9050610f8c610e47565b60015460405163782d6fe160e01b81526001600160a01b039091169063782d6fe190610fbe903390869060040161273d565b60206040518083038186803b158015610fd657600080fd5b505afa158015610fea573d6000803e3d6000fd5b505050506040513d601f19601f8201168201806040525081019061100e9190612348565b1161102b5760405162461bcd60e51b815260040161093890612cef565b8551875114801561103d575084518751145b801561104a575083518751145b6110665760405162461bcd60e51b815260040161093890612b80565b86516110845760405162461bcd60e51b815260040161093890612ca3565b61108c610e42565b875111156110ac5760405162461bcd60e51b815260040161093890612ae0565b3360009081526006602052604090205480156111295760006110cd82610908565b905060018160078111156110dd57fe5b14156110fb5760405162461bcd60e51b815260040161093890612d9b565b600081600781111561110957fe5b14156111275760405162461bcd60e51b815260040161093890612a5d565b505b600061113743610a80610903565b9050600061114782610a8061054b565b9050600360008154809291906001019190505550604051806101a001604052806003548152602001336001600160a01b03168152602001600081526020018b81526020018a81526020018981526020018881526020018381526020018281526020016000815260200160008152602001600015158152602001600015158152506004600060035481526020019081526020016000206000820151816000015560208201518160010160006101000a8154816001600160a01b0302191690836001600160a01b03160217905550604082015181600201556060820151816003019080519060200190611239929190611d56565b5060808201518051611255916004840191602090910190611dbb565b5060a08201518051611271916005840191602090910190611df6565b5060c0820151805161128d916006840191602090910190611e4f565b5060e082015181600701556101008201518160080155610120820151816009015561014082015181600a015561016082015181600b0160006101000a81548160ff02191690831515021790555061018082015181600b0160016101000a81548160ff02191690831515021790555090505060035460066000336001600160a01b03166001600160a01b03168152602001908152602001600020819055507f7d84a6263ae0d98d3329bd7b46bb4e8d6f98cd35a7adb45c274c8b7fd5ebd5e0600354338c8c8c8c88888e60405161136b99989796959493929190612ef2565b60405180910390a1505060035498975050505050505050565b6000600461139183610908565b600781111561139c57fe5b146113b95760405162461bcd60e51b815260040161093890612908565b600082815260046020818152604080842084548251630d48571f60e31b8152925191959461140e9442946001600160a01b0390931693636a42b8f8938084019390829003018186803b158015610a4857600080fd5b905060005b60038301548110156115b6576115ae83600301828154811061143157fe5b6000918252602090912001546004850180546001600160a01b03909216918490811061145957fe5b906000526020600020015485600501848154811061147357fe5b600091825260209182902001805460408051601f60026000196101006001871615020190941693909304928301859004850281018501909152818152928301828280156115015780601f106114d657610100808354040283529160200191611501565b820191906000526020600020905b8154815290600101906020018083116114e457829003601f168201915b505050505086600601858154811061151557fe5b600091825260209182902001805460408051601f60026000196101006001871615020190941693909304928301859004850281018501909152818152928301828280156115a35780601f10611578576101008083540402835291602001916115a3565b820191906000526020600020905b81548152906001019060200180831161158657829003601f168201915b505050505086611bfb565b600101611413565b50600282018190556040517f9a2e42fd6722813d69113e7d0079d3d940171428df7373df9c7f7617cfda2892906115f09086908490612fd6565b60405180910390a15060019392505050565b7f8e25870c07e0b0b3884c78da52790939a455c275406c44ae8b434b692fb916ee81565b61162e611ea8565b5060009182526005602090815260408084206001600160a01b03939093168452918152918190208151606081018352815460ff8082161515835261010090910416151593810193909352600101549082015290565b6000600561169083610908565b600781111561169b57fe5b146116b85760405162461bcd60e51b815260040161093890612972565b6000828152600460205260408120600b8101805461ff001916610100179055905b600382015481101561180e576000546004830180546001600160a01b0390921691630825f38f91908490811061170b57fe5b906000526020600020015484600301848154811061172557fe5b6000918252602090912001546004860180546001600160a01b03909216918690811061174d57fe5b906000526020600020015486600501868154811061176757fe5b9060005260206000200187600601878154811061178057fe5b9060005260206000200188600201546040518763ffffffff1660e01b81526004016117af9594939291906127ca565b6000604051808303818588803b1580156117c857600080fd5b505af11580156117dc573d6000803e3d6000fd5b50505050506040513d6000823e601f3d908101601f191682016040526118059190810190612360565b506001016116d9565b507f712ae1383f79ac853f8d882153778e0260ef8f03b504e2866e0593e04d2b291f8360405161183e919061287e565b60405180910390a150600192915050565b600161185a83610908565b600781111561186557fe5b146118825760405162461bcd60e51b815260040161093890612e74565b6000828152600460209081526040808320600583528184206001600160a01b0388168552909252909120805460ff16156118ce5760405162461bcd60e51b815260040161093890612b28565b600154600783015460405163782d6fe160e01b81526000926001600160a01b03169163782d6fe191611904918a9160040161273d565b60206040518083038186803b15801561191c57600080fd5b505afa158015611930573d6000803e3d6000fd5b505050506040513d601f19601f820116820180604052508101906119549190612348565b905083156119745761196a8360090154826119ee565b6009840155611988565b61198283600a0154826119ee565b600a8401555b8154600160ff19909116811761ff0019166101008615150217835582018190556040517f877856338e13f63d0c36822ff0ef736b80934cd90574a3a5bc9262c39d217c46906119de908890889088908690612756565b60405180910390a1505050505050565b600082820183811015611a135760405162461bcd60e51b815260040161093890612b55565b9392505050565b600082821115611a3c5760405162461bcd60e51b815260040161093890612e9e565b50900390565b60408051808201909152601c81527f4f70656e204c6576657261676520476f7665726e6f7220416c7068610000000060209091015260007f8cad95687ba82c2ce50e74f7b754645e5117c3a5bec8151c0726d5857980a8667f17a00da56542b1389e7dd0d7be1fbcbec550baf5859c211c9945f08310de721d611ac3611d52565b30604051602001611ad79493929190612887565b60405160208183030381529060405280519060200120905060007f8e25870c07e0b0b3884c78da52790939a455c275406c44ae8b434b692fb916ee8787604051602001611b26939291906128ab565b60405160208183030381529060405280519060200120905060008282604051602001611b5392919061270e565b604051602081830303815290604052805190602001209050600060018288888860405160008152602001604052604051611b9094939291906128c3565b6020604051602081039080840390855afa158015611bb2573d6000803e3d6000fd5b5050604051601f1901519150506001600160a01b038116611be55760405162461bcd60e51b815260040161093890612d4c565b611bf0818a8a61184f565b505050505050505050565b6000546040516001600160a01b039091169063f2b0653790611c29908890889088908890889060200161277e565b604051602081830303815290604052805190602001206040518263ffffffff1660e01b8152600401611c5b919061287e565b60206040518083038186803b158015611c7357600080fd5b505afa158015611c87573d6000803e3d6000fd5b505050506040513d601f19601f82011682018060405250810190611cab919061232c565b15611cc85760405162461bcd60e51b815260040161093890612c39565b600054604051633a66f90160e01b81526001600160a01b0390911690633a66f90190611d00908890889088908890889060040161277e565b602060405180830381600087803b158015611d1a57600080fd5b505af1158015611d2e573d6000803e3d6000fd5b505050506040513d601f19601f82011682018060405250810190610dfe9190612348565b4690565b828054828255906000526020600020908101928215611dab579160200282015b82811115611dab57825182546001600160a01b0319166001600160a01b03909116178255602090920191600190910190611d76565b50611db7929150611ec8565b5090565b828054828255906000526020600020908101928215611dab579160200282015b82811115611dab578251825591602001919060010190611ddb565b828054828255906000526020600020908101928215611e43579160200282015b82811115611e435782518051611e33918491602090910190611edd565b5091602001919060010190611e16565b50611db7929150611f58565b828054828255906000526020600020908101928215611e9c579160200282015b82811115611e9c5782518051611e8c918491602090910190611edd565b5091602001919060010190611e6f565b50611db7929150611f75565b604080516060810182526000808252602082018190529181019190915290565b5b80821115611db75760008155600101611ec9565b828054600181600116156101000203166002900490600052602060002090601f016020900481019282611f135760008555611dab565b82601f10611f2c57805160ff1916838001178555611dab565b82800160010185558215611dab5791820182811115611dab578251825591602001919060010190611ddb565b80821115611db7576000611f6c8282611f92565b50600101611f58565b80821115611db7576000611f898282611f92565b50600101611f75565b50805460018160011615610100020316600290046000825580601f10611fb85750611fd6565b601f016020900490600052602060002090810190611fd69190611ec8565b50565b6000611fec611fe784613026565b612fe4565b905082815283838301111561200057600080fd5b828260208301376000602084830101529392505050565b80356001600160a01b038116811461061b57600080fd5b600082601f83011261203e578081fd5b8135602061204e611fe783613008565b828152818101908583018385028701840188101561206a578586fd5b855b8581101561208f5761207d82612017565b8452928401929084019060010161206c565b5090979650505050505050565b600082601f8301126120ac578081fd5b813560206120bc611fe783613008565b82815281810190858301838502870184018810156120d8578586fd5b855b8581101561208f578135845292840192908401906001016120da565b600082601f830112612106578081fd5b81356020612116611fe783613008565b82815281810190858301855b8581101561208f578135880189603f82011261213c578788fd5b61214d8a8783013560408401611fd9565b8552509284019290840190600101612122565b600082601f830112612170578081fd5b81356020612180611fe783613008565b82815281810190858301855b8581101561208f576121a3898684358b0101612216565b8452928401929084019060010161218c565b600082601f8301126121c5578081fd5b813560206121d5611fe783613008565b82815281810190858301838502870184018810156121f1578586fd5b855b8581101561208f5761220482612235565b845292840192908401906001016121f3565b600082601f830112612226578081fd5b611a1383833560208501611fd9565b803560ff8116811461061b57600080fd5b600060208284031215612257578081fd5b611a1382612017565b600080600080600060a08688031215612277578081fd5b853567ffffffffffffffff8082111561228e578283fd5b61229a89838a0161202e565b965060208801359150808211156122af578283fd5b6122bb89838a0161209c565b955060408801359150808211156122d0578283fd5b6122dc89838a01612160565b945060608801359150808211156122f1578283fd5b6122fd89838a016120f6565b93506080880135915080821115612312578283fd5b5061231f88828901612216565b9150509295509295909350565b60006020828403121561233d578081fd5b8151611a1381613080565b600060208284031215612359578081fd5b5051919050565b600060208284031215612371578081fd5b815167ffffffffffffffff811115612387578182fd5b8201601f81018413612397578182fd5b80516123a5611fe782613026565b8181528560208385010111156123b9578384fd5b6123ca826020830160208601613054565b95945050505050565b6000602082840312156123e4578081fd5b5035919050565b600080604083850312156123fd578182fd5b8235915061240d60208401612017565b90509250929050565b600080600080600060a0868803121561242d578283fd5b8535945060208087013567ffffffffffffffff8082111561244c578586fd5b818901915089601f83011261245f578586fd5b813561246d611fe782613008565b81815284810190848601868402860187018e101561248957898afd5b8995505b838610156124b45780356124a081613080565b83526001959095019491860191860161248d565b509850505060408901359250808311156124cc578586fd5b6124d88a848b016121b5565b955060608901359250808311156124ed578384fd5b6124f98a848b0161209c565b9450608089013592508083111561250e578384fd5b505061231f8882890161209c565b6000806040838503121561252e578182fd5b82359150602083013561254081613080565b809150509250929050565b600080600080600060a08688031215612562578283fd5b85359450602086013561257481613080565b935061258260408701612235565b94979396509394606081013594506080013592915050565b6000815180845260208085019450808401835b838110156125d25781516001600160a01b0316875295820195908201906001016125ad565b509495945050505050565b6000815180845260208085018081965082840281019150828601855b8581101561262357828403895261261184835161265f565b988501989350908401906001016125f9565b5091979650505050505050565b6000815180845260208085019450808401835b838110156125d257815187529582019590820190600101612643565b60008151808452612677816020860160208601613054565b601f01601f19169290920160200192915050565b600081546001808216600081146126a957600181146126c757612705565b60028304607f16865260ff1983166020870152604086019350612705565b600283048087526126d786613048565b60005b828110156126fb5781546020828b01015284820191506020810190506126da565b8801602001955050505b50505092915050565b61190160f01b81526002810192909252602282015260420190565b6001600160a01b0391909116815260200190565b6001600160a01b03929092168252602082015260400190565b6001600160a01b03949094168452602084019290925215156040830152606082015260800190565b600060018060a01b038716825285602083015260a060408301526127a560a083018661265f565b82810360608401526127b7818661265f565b9150508260808301529695505050505050565b600060018060a01b038716825285602083015260a060408301526127f160a083018661268b565b82810360608401526127b7818661268b565b600060808252612816608083018761259a565b82810360208401526128288187612630565b9050828103604084015261283c81866125dd565b9050828103606084015261285081856125dd565b979650505050505050565b901515815260200190565b92151583529015156020830152604082015260600190565b90815260200190565b938452602084019290925260408301526001600160a01b0316606082015260800190565b92835260208301919091521515604082015260600190565b93845260ff9290921660208401526040830152606082015260800190565b60208101600883106128ef57fe5b91905290565b600060208252611a13602083018461265f565b60208082526044908201527f476f7665726e6f72416c7068613a3a71756575653a2070726f706f73616c206360408201527f616e206f6e6c79206265207175657565642069662069742069732073756363656060820152631959195960e21b608082015260a00190565b60208082526045908201527f476f7665726e6f72416c7068613a3a657865637574653a2070726f706f73616c60408201527f2063616e206f6e6c7920626520657865637574656420696620697420697320716060820152641d595d595960da1b608082015260a00190565b60208082526029908201527f476f7665726e6f72416c7068613a3a73746174653a20696e76616c69642070726040820152681bdc1bdcd85b081a5960ba1b606082015260800190565b6020808252601b908201527f53656e646572206d75737420626520676f7620677561726469616e0000000000604082015260600190565b60208082526059908201527f476f7665726e6f72416c7068613a3a70726f706f73653a206f6e65206c69766560408201527f2070726f706f73616c207065722070726f706f7365722c20666f756e6420616e60608201527f20616c72656164792070656e64696e672070726f706f73616c00000000000000608082015260a00190565b60208082526028908201527f476f7665726e6f72416c7068613a3a70726f706f73653a20746f6f206d616e7960408201526720616374696f6e7360c01b606082015260800190565b602080825260139082015272159bdd195c88185b1c9958591e481d9bdd1959606a1b604082015260600190565b6020808252601190820152706164646974696f6e206f766572666c6f7760781b604082015260600190565b60208082526044908201527f476f7665726e6f72416c7068613a3a70726f706f73653a2070726f706f73616c60408201527f2066756e6374696f6e20696e666f726d6174696f6e206172697479206d69736d6060820152630c2e8c6d60e31b608082015260a00190565b6020808252602f908201527f476f7665726e6f72416c7068613a3a63616e63656c3a2070726f706f7365722060408201526e18589bdd99481d1a1c995cda1bdb19608a1b606082015260800190565b60208082526044908201527f476f7665726e6f72416c7068613a3a5f71756575654f725265766572743a207060408201527f726f706f73616c20616374696f6e20616c7265616479207175657565642061746060820152632065746160e01b608082015260a00190565b6020808252602c908201527f476f7665726e6f72416c7068613a3a70726f706f73653a206d7573742070726f60408201526b7669646520616374696f6e7360a01b606082015260800190565b6020808252603f908201527f476f7665726e6f72416c7068613a3a70726f706f73653a2070726f706f73657260408201527f20766f7465732062656c6f772070726f706f73616c207468726573686f6c6400606082015260800190565b6020808252602f908201527f476f7665726e6f72416c7068613a3a63617374566f746542795369673a20696e60408201526e76616c6964207369676e617475726560881b606082015260800190565b60208082526058908201527f476f7665726e6f72416c7068613a3a70726f706f73653a206f6e65206c69766560408201527f2070726f706f73616c207065722070726f706f7365722c20666f756e6420616e60608201527f20616c7265616479206163746976652070726f706f73616c0000000000000000608082015260a00190565b60208082526036908201527f476f7665726e6f72416c7068613a3a63616e63656c3a2063616e6e6f742063616040820152751b98d95b08195e1958dd5d1959081c1c9bdc1bdcd85b60521b606082015260800190565b60208082526010908201526f159bdd1a5b99c81a5cc818db1bdcd95960821b604082015260600190565b6020808252601590820152747375627472616374696f6e20756e646572666c6f7760581b604082015260600190565b8151151581526020808301511515908201526040918201519181019190915260600190565b8981526001600160a01b038916602082015261012060408201819052600090612f1d8382018b61259a565b90508281036060840152612f31818a612630565b90508281036080840152612f4581896125dd565b905082810360a0840152612f5981886125dd565b90508560c08401528460e0840152828103610100840152612f7a818561265f565b9c9b505050505050505050505050565b9889526001600160a01b0397909716602089015260408801959095526060870193909352608086019190915260a085015260c0840152151560e083015215156101008201526101200190565b918252602082015260400190565b60405181810167ffffffffffffffff8111828210171561300057fe5b604052919050565b600067ffffffffffffffff82111561301c57fe5b5060209081020190565b600067ffffffffffffffff82111561303a57fe5b50601f01601f191660200190565b60009081526020902090565b60005b8381101561306f578181015183820152602001613057565b83811115610f595750506000910152565b8015158114611fd657600080fdfea26469706673582212205a465e70939176ce4c587fb2e315a530b4b192ca64c7c0eef6305bd69828fc8964736f6c63430007060033",
  "immutableReferences": {},
  "source": "// SPDX-License-Identifier: BUSL-1.1\npragma solidity 0.7.6;\n\npragma experimental ABIEncoderV2;\n\nimport \"./Timelock.sol\";\nimport \"../XOLE.sol\";\n\n/// @title Admin to all OpenLeverage contracts\n/// @author OpenLeverage\n/// @dev Fork from compound https://github.com/compound-finance/compound-protocol/blob/master/contracts/Governance/GovernorAlpha.sol\ncontract GovernorAlpha {\n    // The name of this contract\n    string public constant name = \"Open Leverage Governor Alpha\";\n\n    // The number of votes in support of a proposal required in order for a quorum to be reached and for a vote to succeed\n    function quorumVotes(uint blockNumber) public view returns (uint) {return xole.totalSupplyAt(blockNumber) / 25;} //  4% of XOLE\n\n    // The number of votes required in order for a voter to become a proposer\n    function proposalThreshold() public view returns (uint) {return xole.totalSupplyAt(block.number) / 100;} // 1%\n\n    // The maximum number of actions that can be included in a proposal\n    function proposalMaxOperations() public pure returns (uint) {return 10;} // 10 actions\n\n    // The delay before voting on a proposal may take place, once proposed\n    function votingDelay() public pure returns (uint) {return 1;} // 1 block\n\n    // The duration of voting on a proposal, in blocks\n    function votingPeriod() public pure returns (uint) {return 17280;} // ~3 days in blocks (assuming 15s blocks)\n\n    // The address of the OpenLev Protocol Timelock\n    Timelock public timelock;\n\n    // The address of the OpenLev governance token\n    XOLE public xole;\n\n    // The address of the Governor Guardian\n    address public guardian;\n\n    // The total number of proposals\n    uint public proposalCount;\n\n    struct Proposal {\n        // Unique id for looking up a proposal\n        uint id;\n\n        // Creator of the proposal\n        address proposer;\n\n        // The timestamp that the proposal will be available for execution, set once the vote succeeds\n        uint eta;\n\n        // the ordered list of target addresses for calls to be made\n        address[] targets;\n\n        // The ordered list of values (i.e. msg.value) to be passed to the calls to be made\n        uint[] values;\n\n        // The ordered list of function signatures to be called\n        string[] signatures;\n\n        // The ordered list of calldata to be passed to each call\n        bytes[] calldatas;\n\n        // The block at which voting begins: holders must delegate their votes prior to this block\n        uint startBlock;\n\n        // The block at which voting ends: votes must be cast prior to this block\n        uint endBlock;\n\n        // Current number of votes in favor of this proposal\n        uint forVotes;\n\n        // Current number of votes in opposition to this proposal\n        uint againstVotes;\n\n        // Flag marking whether the proposal has been canceled\n        bool canceled;\n\n        // Flag marking whether the proposal has been executed\n        bool executed;\n\n        // Receipts of ballots for the entire set of voters\n        //mapping(address => Receipt) receipts;\n    }\n\n    // Ballot receipt record for a voter\n    struct Receipt {\n        // Whether or not a vote has been cast\n        bool hasVoted;\n\n        // Whether or not the voter supports the proposal\n        bool support;\n\n        // The number of votes the voter had, which were cast\n        uint votes;\n    }\n\n    // Possible states that a proposal may be in\n    enum ProposalState {\n        Pending,\n        Active,\n        Canceled,\n        Defeated,\n        Succeeded,\n        Queued,\n        Expired,\n        Executed\n    }\n\n    // The official record of all proposals ever proposed\n    mapping(uint => Proposal) public proposals;\n\n    // proposalId => voter => receipt\n    mapping(uint => mapping(address => Receipt)) public receipts;\n\n    // The latest proposal for each proposer\n    mapping(address => uint) public latestProposalIds;\n\n    // The EIP-712 typehash for the contract's domain\n    bytes32 public constant DOMAIN_TYPEHASH = keccak256(\"EIP712Domain(string name,uint256 chainId,address verifyingContract)\");\n\n    // The EIP-712 typehash for the ballot struct used by the contract\n    bytes32 public constant BALLOT_TYPEHASH = keccak256(\"Ballot(uint256 proposalId,bool support)\");\n\n    // An event emitted when a new proposal is created\n    event ProposalCreated(uint id, address proposer, address[] targets, uint[] values, string[] signatures, bytes[] calldatas, uint startBlock, uint endBlock, string description);\n\n    // An event emitted when a vote has been cast on a proposal\n    event VoteCast(address voter, uint proposalId, bool support, uint votes);\n\n    // An event emitted when a proposal has been canceled\n    event ProposalCanceled(uint id);\n\n    // An event emitted when a proposal has been queued in the Timelock\n    event ProposalQueued(uint id, uint eta);\n\n    // An event emitted when a proposal has been executed in the Timelock\n    event ProposalExecuted(uint id);\n\n    constructor(address payable timelock_, address xoleToken_, address guardian_) {\n        timelock = Timelock(timelock_);\n        xole = XOLE(xoleToken_);\n        guardian = guardian_;\n    }\n\n    /// @notice Add proposal for vote\n    /// @param targets Addresses of contract to call.\n    /// @param values Amount of native token send along with the transactions.\n    /// @param signatures Function signature of the target contract.\n    /// @param calldatas Arguments pass to the target function.\n    /// @param description For event only.\n    /// @return Proposal ID\n    function propose(address[] memory targets, uint[] memory values, string[] memory signatures, bytes[] memory calldatas, string memory description) external returns (uint) {\n        uint previousBlockNumber = sub256(block.number, 1);\n        require(xole.getPriorVotes(msg.sender, previousBlockNumber) > proposalThreshold(), \"GovernorAlpha::propose: proposer votes below proposal threshold\");\n        require(targets.length == values.length && targets.length == signatures.length && targets.length == calldatas.length, \"GovernorAlpha::propose: proposal function information arity mismatch\");\n        require(targets.length != 0, \"GovernorAlpha::propose: must provide actions\");\n        require(targets.length <= proposalMaxOperations(), \"GovernorAlpha::propose: too many actions\");\n\n        uint latestProposalId = latestProposalIds[msg.sender];\n        if (latestProposalId != 0) {\n            ProposalState proposersLatestProposalState = state(latestProposalId);\n            require(proposersLatestProposalState != ProposalState.Active, \"GovernorAlpha::propose: one live proposal per proposer, found an already active proposal\");\n            require(proposersLatestProposalState != ProposalState.Pending, \"GovernorAlpha::propose: one live proposal per proposer, found an already pending proposal\");\n        }\n\n        uint startBlock = add256(block.number, votingDelay());\n        uint endBlock = add256(startBlock, votingPeriod());\n\n        proposalCount++;\n\n        proposals[proposalCount] = Proposal({\n        id : proposalCount,\n        proposer : msg.sender,\n        eta : 0,\n        targets : targets,\n        values : values,\n        signatures : signatures,\n        calldatas : calldatas,\n        startBlock : startBlock,\n        endBlock : endBlock,\n        forVotes : 0,\n        againstVotes : 0,\n        canceled : false,\n        executed : false\n        });\n\n        latestProposalIds[msg.sender] = proposalCount;\n\n        emit ProposalCreated(proposalCount, msg.sender, targets, values, signatures, calldatas, startBlock, endBlock, description);\n        return proposalCount;\n    }\n\n    /// @dev Add transaction to timelock queue\n    /// @param proposalId Queue proposal if vote success\n    /// @return success\n    function queue(uint proposalId) external returns (bool) {\n        require(state(proposalId) == ProposalState.Succeeded, \"GovernorAlpha::queue: proposal can only be queued if it is succeeded\");\n        Proposal storage proposal = proposals[proposalId];\n        uint eta = add256(block.timestamp, timelock.delay());\n        for (uint i = 0; i < proposal.targets.length; i++) {\n            _queueOrRevert(proposal.targets[i], proposal.values[i], proposal.signatures[i], proposal.calldatas[i], eta);\n        }\n\n        proposal.eta = eta;\n        emit ProposalQueued(proposalId, eta);\n        return true;\n    }\n\n    /// @dev queued transactions on time lock.\n    /// @param target Address of contract to call.\n    /// @param value Amount of native token send along with the transaction.\n    /// @param signature Function signature of the target contract.\n    /// @param data Argument pass to the target function.\n    /// @param eta Time before execution.\n    function _queueOrRevert(address target, uint value, string memory signature, bytes memory data, uint eta) internal {\n        require(!timelock.queuedTransactions(keccak256(abi.encode(target, value, signature, data, eta))), \"GovernorAlpha::_queueOrRevert: proposal action already queued at eta\");\n        timelock.queueTransaction(target, value, signature, data, eta);\n    }\n\n    /// @dev Execute transactions on time lock.\n    /// @return success\n    function execute(uint proposalId) external payable returns (bool){\n        require(state(proposalId) == ProposalState.Queued, \"GovernorAlpha::execute: proposal can only be executed if it is queued\");\n        Proposal storage proposal = proposals[proposalId];\n        proposal.executed = true;\n        for (uint i = 0; i < proposal.targets.length; i++) {\n            timelock.executeTransaction{value : proposal.values[i]}(proposal.targets[i], proposal.values[i], proposal.signatures[i], proposal.calldatas[i], proposal.eta);\n        }\n        emit ProposalExecuted(proposalId);\n        return true;\n    }\n\n    /// @notice Get all exsisting proposals.\n    function getActions(uint proposalId) public view returns (address[] memory targets, uint[] memory values, string[] memory signatures, bytes[] memory calldatas) {\n        Proposal storage p = proposals[proposalId];\n        return (p.targets, p.values, p.signatures, p.calldatas);\n    }\n\n    /// @notice Get all vote result.\n    function getReceipt(uint proposalId, address voter) public view returns (Receipt memory) {\n        return receipts[proposalId][voter];\n    }\n\n    /// @notice Get current vote status.\n    function state(uint proposalId) public view returns (ProposalState) {\n        require(proposalCount >= proposalId && proposalId > 0, \"GovernorAlpha::state: invalid proposal id\");\n        Proposal storage proposal = proposals[proposalId];\n        if (proposal.canceled) {\n            return ProposalState.Canceled;\n        } else if (block.number <= proposal.startBlock) {\n            return ProposalState.Pending;\n        } else if (block.number <= proposal.endBlock) {\n            return ProposalState.Active;\n        } else if (proposal.forVotes <= proposal.againstVotes || proposal.forVotes < quorumVotes(proposal.startBlock)) {\n            return ProposalState.Defeated;\n        } else if (proposal.eta == 0) {\n            return ProposalState.Succeeded;\n        } else if (proposal.executed) {\n            return ProposalState.Executed;\n        } else if (block.timestamp >= add256(proposal.eta, timelock.GRACE_PERIOD())) {\n            return ProposalState.Expired;\n        } else {\n            return ProposalState.Queued;\n        }\n    }\n\n    /// @notice Get current vote status.\n    function cancel(uint proposalId) external {\n        ProposalState proposalState = state(proposalId);\n        require(proposalState != ProposalState.Executed, \"GovernorAlpha::cancel: cannot cancel executed proposal\");\n\n        Proposal storage proposal = proposals[proposalId];\n        uint previousBlockNumber = sub256(block.number, 1);\n        if (msg.sender != proposal.proposer) {\n            require(msg.sender == guardian || xole.getPriorVotes(proposal.proposer, previousBlockNumber) < proposalThreshold(), \"GovernorAlpha::cancel: proposer above threshold\");\n        }\n        proposal.canceled = true;\n        for (uint i = 0; i < proposal.targets.length; i++) {\n            timelock.cancelTransaction(proposal.targets[i], proposal.values[i], proposal.signatures[i], proposal.calldatas[i], proposal.eta);\n        }\n\n        emit ProposalCanceled(proposalId);\n    }\n\n    function castVote(uint proposalId, bool support) external {\n        return _castVote(msg.sender, proposalId, support);\n    }\n\n    /// @dev Delegate vote to others and verify signature on\n    /// @param support Votes true for support false for against\n    /// @param v The recovery byte of the signature\n    /// @param r Half of the ECDSA signature pair\n    /// @param s Half of the ECDSA signature pair\n    function castVoteBySig(uint proposalId, bool support, uint8 v, bytes32 r, bytes32 s) external {\n        castVoteBySigInternal(proposalId, support, v, r, s);\n    }\n\n    /// @dev Cast vote by vote using castVoteBySig\n    /// @param support Votes true for support false for against\n    /// @param v The recovery byte of the signature\n    /// @param r Half of the ECDSA signature pair\n    /// @param s Half of the ECDSA signature pair\n    function castVoteBySigs(uint proposalId, bool[] memory support, uint8[] memory v, bytes32[] memory r, bytes32[] memory s) external {\n        require(support.length == v.length && v.length == r.length && r.length == s.length);\n        for (uint i = 0; i < support.length; i++) {\n            castVoteBySigInternal(proposalId, support[i], v[i], r[i], s[i]);\n        }\n    }\n\n    function castVoteBySigInternal(uint proposalId, bool support, uint8 v, bytes32 r, bytes32 s) internal {\n        bytes32 domainSeparator = keccak256(abi.encode(DOMAIN_TYPEHASH, keccak256(bytes(name)), getChainId(), address(this)));\n        bytes32 structHash = keccak256(abi.encode(BALLOT_TYPEHASH, proposalId, support));\n        bytes32 digest = keccak256(abi.encodePacked(\"\\x19\\x01\", domainSeparator, structHash));\n        address signatory = ecrecover(digest, v, r, s);\n        require(signatory != address(0), \"GovernorAlpha::castVoteBySig: invalid signature\");\n        return _castVote(signatory, proposalId, support);\n    }\n\n    function _castVote(address voter, uint proposalId, bool support) internal {\n\n        require(state(proposalId) == ProposalState.Active, \"Voting is closed\");\n\n        Proposal storage proposal = proposals[proposalId];\n\n        Receipt storage receipt = receipts[proposalId][voter];\n        require(!receipt.hasVoted, \"Voter already voted\");\n        uint votes = xole.getPriorVotes(voter, proposal.startBlock);\n\n        if (support) {\n            proposal.forVotes = add256(proposal.forVotes, votes);\n        } else {\n            proposal.againstVotes = add256(proposal.againstVotes, votes);\n        }\n\n        receipt.hasVoted = true;\n        receipt.support = support;\n        receipt.votes = votes;\n\n        emit VoteCast(voter, proposalId, support, votes);\n    }\n\n    function __acceptAdmin() external {\n        require(msg.sender == guardian, \"Sender must be gov guardian\");\n        timelock.acceptAdmin();\n    }\n\n    function __abdicate() external {\n        require(msg.sender == guardian, \"Sender must be gov guardian\");\n        guardian = address(0);\n    }\n\n\n    function add256(uint256 a, uint256 b) internal pure returns (uint) {\n        uint c = a + b;\n        require(c >= a, \"addition overflow\");\n        return c;\n    }\n\n    function sub256(uint256 a, uint256 b) internal pure returns (uint) {\n        require(b <= a, \"subtraction underflow\");\n        return a - b;\n    }\n\n    function getChainId() internal pure returns (uint) {\n        uint256 chainId;\n        assembly {chainId := chainid()}\n        return chainId;\n    }\n}",
  "sourcePath": "/home/mingyue/Smartian/Web3Bugs/contracts/72/openleverage-contracts/contracts/gov/GovernorAlpha.sol",
  "compiler": {
    "name": "solc",
    "version": "0.7.6+commit.7338295f.Emscripten.clang"
  },
  "schemaVersion": "3.4.16",
  "updatedAt": "2025-02-26T03:47:59.512Z",
  "devdoc": {
    "author": "OpenLeverage",
    "details": "Fork from compound https://github.com/compound-finance/compound-protocol/blob/master/contracts/Governance/GovernorAlpha.sol",
    "kind": "dev",
    "methods": {
      "castVoteBySig(uint256,bool,uint8,bytes32,bytes32)": {
        "details": "Delegate vote to others and verify signature on",
        "params": {
          "r": "Half of the ECDSA signature pair",
          "s": "Half of the ECDSA signature pair",
          "support": "Votes true for support false for against",
          "v": "The recovery byte of the signature"
        }
      },
      "castVoteBySigs(uint256,bool[],uint8[],bytes32[],bytes32[])": {
        "details": "Cast vote by vote using castVoteBySig",
        "params": {
          "r": "Half of the ECDSA signature pair",
          "s": "Half of the ECDSA signature pair",
          "support": "Votes true for support false for against",
          "v": "The recovery byte of the signature"
        }
      },
      "execute(uint256)": {
        "details": "Execute transactions on time lock.",
        "returns": {
          "_0": "success"
        }
      },
      "propose(address[],uint256[],string[],bytes[],string)": {
        "params": {
          "calldatas": "Arguments pass to the target function.",
          "description": "For event only.",
          "signatures": "Function signature of the target contract.",
          "targets": "Addresses of contract to call.",
          "values": "Amount of native token send along with the transactions."
        },
        "returns": {
          "_0": "Proposal ID"
        }
      },
      "queue(uint256)": {
        "details": "Add transaction to timelock queue",
        "params": {
          "proposalId": "Queue proposal if vote success"
        },
        "returns": {
          "_0": "success"
        }
      }
    },
    "title": "Admin to all OpenLeverage contracts",
    "version": 1
  },
  "userdoc": {
    "kind": "user",
    "methods": {
      "cancel(uint256)": {
        "notice": "Get current vote status."
      },
      "getActions(uint256)": {
        "notice": "Get all exsisting proposals."
      },
      "getReceipt(uint256,address)": {
        "notice": "Get all vote result."
      },
      "propose(address[],uint256[],string[],bytes[],string)": {
        "notice": "Add proposal for vote"
      },
      "state(uint256)": {
        "notice": "Get current vote status."
      }
    },
    "version": 1
  }
}