{
  "contractName": "LPool",
  "abi": [
    {
      "inputs": [],
      "stateMutability": "nonpayable",
      "type": "constructor"
    },
    {
      "anonymous": false,
      "inputs": [
        {
          "indexed": false,
          "internalType": "uint256",
          "name": "cashPrior",
          "type": "uint256"
        },
        {
          "indexed": false,
          "internalType": "uint256",
          "name": "interestAccumulated",
          "type": "uint256"
        },
        {
          "indexed": false,
          "internalType": "uint256",
          "name": "borrowIndex",
          "type": "uint256"
        },
        {
          "indexed": false,
          "internalType": "uint256",
          "name": "totalBorrows",
          "type": "uint256"
        }
      ],
      "name": "AccrueInterest",
      "type": "event"
    },
    {
      "anonymous": false,
      "inputs": [
        {
          "indexed": true,
          "internalType": "address",
          "name": "owner",
          "type": "address"
        },
        {
          "indexed": true,
          "internalType": "address",
          "name": "spender",
          "type": "address"
        },
        {
          "indexed": false,
          "internalType": "uint256",
          "name": "amount",
          "type": "uint256"
        }
      ],
      "name": "Approval",
      "type": "event"
    },
    {
      "anonymous": false,
      "inputs": [
        {
          "indexed": false,
          "internalType": "address",
          "name": "borrower",
          "type": "address"
        },
        {
          "indexed": false,
          "internalType": "address",
          "name": "payee",
          "type": "address"
        },
        {
          "indexed": false,
          "internalType": "uint256",
          "name": "borrowAmount",
          "type": "uint256"
        },
        {
          "indexed": false,
          "internalType": "uint256",
          "name": "accountBorrows",
          "type": "uint256"
        },
        {
          "indexed": false,
          "internalType": "uint256",
          "name": "totalBorrows",
          "type": "uint256"
        }
      ],
      "name": "Borrow",
      "type": "event"
    },
    {
      "anonymous": false,
      "inputs": [
        {
          "indexed": false,
          "internalType": "address",
          "name": "minter",
          "type": "address"
        },
        {
          "indexed": false,
          "internalType": "uint256",
          "name": "mintAmount",
          "type": "uint256"
        },
        {
          "indexed": false,
          "internalType": "uint256",
          "name": "mintTokens",
          "type": "uint256"
        }
      ],
      "name": "Mint",
      "type": "event"
    },
    {
      "anonymous": false,
      "inputs": [
        {
          "indexed": false,
          "internalType": "address",
          "name": "oldAdmin",
          "type": "address"
        },
        {
          "indexed": false,
          "internalType": "address",
          "name": "newAdmin",
          "type": "address"
        }
      ],
      "name": "NewAdmin",
      "type": "event"
    },
    {
      "anonymous": false,
      "inputs": [
        {
          "indexed": false,
          "internalType": "uint256",
          "name": "oldBorrowCapFactorMantissa",
          "type": "uint256"
        },
        {
          "indexed": false,
          "internalType": "uint256",
          "name": "newBorrowCapFactorMantissa",
          "type": "uint256"
        }
      ],
      "name": "NewBorrowCapFactorMantissa",
      "type": "event"
    },
    {
      "anonymous": false,
      "inputs": [
        {
          "indexed": false,
          "internalType": "address",
          "name": "oldController",
          "type": "address"
        },
        {
          "indexed": false,
          "internalType": "address",
          "name": "newController",
          "type": "address"
        }
      ],
      "name": "NewController",
      "type": "event"
    },
    {
      "anonymous": false,
      "inputs": [
        {
          "indexed": false,
          "internalType": "uint256",
          "name": "baseRatePerBlock",
          "type": "uint256"
        },
        {
          "indexed": false,
          "internalType": "uint256",
          "name": "multiplierPerBlock",
          "type": "uint256"
        },
        {
          "indexed": false,
          "internalType": "uint256",
          "name": "jumpMultiplierPerBlock",
          "type": "uint256"
        },
        {
          "indexed": false,
          "internalType": "uint256",
          "name": "kink",
          "type": "uint256"
        }
      ],
      "name": "NewInterestParam",
      "type": "event"
    },
    {
      "anonymous": false,
      "inputs": [
        {
          "indexed": false,
          "internalType": "address",
          "name": "oldPendingAdmin",
          "type": "address"
        },
        {
          "indexed": false,
          "internalType": "address",
          "name": "newPendingAdmin",
          "type": "address"
        }
      ],
      "name": "NewPendingAdmin",
      "type": "event"
    },
    {
      "anonymous": false,
      "inputs": [
        {
          "indexed": false,
          "internalType": "uint256",
          "name": "oldReserveFactorMantissa",
          "type": "uint256"
        },
        {
          "indexed": false,
          "internalType": "uint256",
          "name": "newReserveFactorMantissa",
          "type": "uint256"
        }
      ],
      "name": "NewReserveFactor",
      "type": "event"
    },
    {
      "anonymous": false,
      "inputs": [
        {
          "indexed": false,
          "internalType": "address",
          "name": "redeemer",
          "type": "address"
        },
        {
          "indexed": false,
          "internalType": "uint256",
          "name": "redeemAmount",
          "type": "uint256"
        },
        {
          "indexed": false,
          "internalType": "uint256",
          "name": "redeemTokens",
          "type": "uint256"
        }
      ],
      "name": "Redeem",
      "type": "event"
    },
    {
      "anonymous": false,
      "inputs": [
        {
          "indexed": false,
          "internalType": "address",
          "name": "payer",
          "type": "address"
        },
        {
          "indexed": false,
          "internalType": "address",
          "name": "borrower",
          "type": "address"
        },
        {
          "indexed": false,
          "internalType": "uint256",
          "name": "repayAmount",
          "type": "uint256"
        },
        {
          "indexed": false,
          "internalType": "uint256",
          "name": "badDebtsAmount",
          "type": "uint256"
        },
        {
          "indexed": false,
          "internalType": "uint256",
          "name": "accountBorrows",
          "type": "uint256"
        },
        {
          "indexed": false,
          "internalType": "uint256",
          "name": "totalBorrows",
          "type": "uint256"
        }
      ],
      "name": "RepayBorrow",
      "type": "event"
    },
    {
      "anonymous": false,
      "inputs": [
        {
          "indexed": false,
          "internalType": "address",
          "name": "benefactor",
          "type": "address"
        },
        {
          "indexed": false,
          "internalType": "uint256",
          "name": "addAmount",
          "type": "uint256"
        },
        {
          "indexed": false,
          "internalType": "uint256",
          "name": "newTotalReserves",
          "type": "uint256"
        }
      ],
      "name": "ReservesAdded",
      "type": "event"
    },
    {
      "anonymous": false,
      "inputs": [
        {
          "indexed": false,
          "internalType": "address",
          "name": "to",
          "type": "address"
        },
        {
          "indexed": false,
          "internalType": "uint256",
          "name": "reduceAmount",
          "type": "uint256"
        },
        {
          "indexed": false,
          "internalType": "uint256",
          "name": "newTotalReserves",
          "type": "uint256"
        }
      ],
      "name": "ReservesReduced",
      "type": "event"
    },
    {
      "anonymous": false,
      "inputs": [
        {
          "indexed": true,
          "internalType": "address",
          "name": "from",
          "type": "address"
        },
        {
          "indexed": true,
          "internalType": "address",
          "name": "to",
          "type": "address"
        },
        {
          "indexed": false,
          "internalType": "uint256",
          "name": "amount",
          "type": "uint256"
        }
      ],
      "name": "Transfer",
      "type": "event"
    },
    {
      "inputs": [],
      "name": "acceptAdmin",
      "outputs": [],
      "stateMutability": "nonpayable",
      "type": "function"
    },
    {
      "inputs": [],
      "name": "accrualBlockNumber",
      "outputs": [
        {
          "internalType": "uint256",
          "name": "",
          "type": "uint256"
        }
      ],
      "stateMutability": "view",
      "type": "function"
    },
    {
      "inputs": [],
      "name": "admin",
      "outputs": [
        {
          "internalType": "address payable",
          "name": "",
          "type": "address"
        }
      ],
      "stateMutability": "view",
      "type": "function"
    },
    {
      "inputs": [],
      "name": "baseRatePerBlock",
      "outputs": [
        {
          "internalType": "uint256",
          "name": "",
          "type": "uint256"
        }
      ],
      "stateMutability": "view",
      "type": "function"
    },
    {
      "inputs": [],
      "name": "borrowCapFactorMantissa",
      "outputs": [
        {
          "internalType": "uint256",
          "name": "",
          "type": "uint256"
        }
      ],
      "stateMutability": "view",
      "type": "function"
    },
    {
      "inputs": [],
      "name": "borrowIndex",
      "outputs": [
        {
          "internalType": "uint256",
          "name": "",
          "type": "uint256"
        }
      ],
      "stateMutability": "view",
      "type": "function"
    },
    {
      "inputs": [],
      "name": "controller",
      "outputs": [
        {
          "internalType": "address",
          "name": "",
          "type": "address"
        }
      ],
      "stateMutability": "view",
      "type": "function"
    },
    {
      "inputs": [],
      "name": "decimals",
      "outputs": [
        {
          "internalType": "uint8",
          "name": "",
          "type": "uint8"
        }
      ],
      "stateMutability": "view",
      "type": "function"
    },
    {
      "inputs": [],
      "name": "developer",
      "outputs": [
        {
          "internalType": "address payable",
          "name": "",
          "type": "address"
        }
      ],
      "stateMutability": "view",
      "type": "function"
    },
    {
      "inputs": [],
      "name": "implementation",
      "outputs": [
        {
          "internalType": "address",
          "name": "",
          "type": "address"
        }
      ],
      "stateMutability": "view",
      "type": "function"
    },
    {
      "inputs": [],
      "name": "isWethPool",
      "outputs": [
        {
          "internalType": "bool",
          "name": "",
          "type": "bool"
        }
      ],
      "stateMutability": "view",
      "type": "function"
    },
    {
      "inputs": [],
      "name": "jumpMultiplierPerBlock",
      "outputs": [
        {
          "internalType": "uint256",
          "name": "",
          "type": "uint256"
        }
      ],
      "stateMutability": "view",
      "type": "function"
    },
    {
      "inputs": [],
      "name": "kink",
      "outputs": [
        {
          "internalType": "uint256",
          "name": "",
          "type": "uint256"
        }
      ],
      "stateMutability": "view",
      "type": "function"
    },
    {
      "inputs": [],
      "name": "multiplierPerBlock",
      "outputs": [
        {
          "internalType": "uint256",
          "name": "",
          "type": "uint256"
        }
      ],
      "stateMutability": "view",
      "type": "function"
    },
    {
      "inputs": [],
      "name": "name",
      "outputs": [
        {
          "internalType": "string",
          "name": "",
          "type": "string"
        }
      ],
      "stateMutability": "view",
      "type": "function"
    },
    {
      "inputs": [],
      "name": "pendingAdmin",
      "outputs": [
        {
          "internalType": "address payable",
          "name": "",
          "type": "address"
        }
      ],
      "stateMutability": "view",
      "type": "function"
    },
    {
      "inputs": [],
      "name": "reserveFactorMantissa",
      "outputs": [
        {
          "internalType": "uint256",
          "name": "",
          "type": "uint256"
        }
      ],
      "stateMutability": "view",
      "type": "function"
    },
    {
      "inputs": [
        {
          "internalType": "address payable",
          "name": "newPendingAdmin",
          "type": "address"
        }
      ],
      "name": "setPendingAdmin",
      "outputs": [],
      "stateMutability": "nonpayable",
      "type": "function"
    },
    {
      "inputs": [],
      "name": "symbol",
      "outputs": [
        {
          "internalType": "string",
          "name": "",
          "type": "string"
        }
      ],
      "stateMutability": "view",
      "type": "function"
    },
    {
      "inputs": [],
      "name": "totalBorrows",
      "outputs": [
        {
          "internalType": "uint256",
          "name": "",
          "type": "uint256"
        }
      ],
      "stateMutability": "view",
      "type": "function"
    },
    {
      "inputs": [],
      "name": "totalReserves",
      "outputs": [
        {
          "internalType": "uint256",
          "name": "",
          "type": "uint256"
        }
      ],
      "stateMutability": "view",
      "type": "function"
    },
    {
      "inputs": [],
      "name": "totalSupply",
      "outputs": [
        {
          "internalType": "uint256",
          "name": "",
          "type": "uint256"
        }
      ],
      "stateMutability": "view",
      "type": "function"
    },
    {
      "inputs": [],
      "name": "underlying",
      "outputs": [
        {
          "internalType": "address",
          "name": "",
          "type": "address"
        }
      ],
      "stateMutability": "view",
      "type": "function"
    },
    {
      "inputs": [
        {
          "internalType": "address",
          "name": "underlying_",
          "type": "address"
        },
        {
          "internalType": "bool",
          "name": "isWethPool_",
          "type": "bool"
        },
        {
          "internalType": "address",
          "name": "controller_",
          "type": "address"
        },
        {
          "internalType": "uint256",
          "name": "baseRatePerBlock_",
          "type": "uint256"
        },
        {
          "internalType": "uint256",
          "name": "multiplierPerBlock_",
          "type": "uint256"
        },
        {
          "internalType": "uint256",
          "name": "jumpMultiplierPerBlock_",
          "type": "uint256"
        },
        {
          "internalType": "uint256",
          "name": "kink_",
          "type": "uint256"
        },
        {
          "internalType": "uint256",
          "name": "initialExchangeRateMantissa_",
          "type": "uint256"
        },
        {
          "internalType": "string",
          "name": "name_",
          "type": "string"
        },
        {
          "internalType": "string",
          "name": "symbol_",
          "type": "string"
        },
        {
          "internalType": "uint8",
          "name": "decimals_",
          "type": "uint8"
        }
      ],
      "name": "initialize",
      "outputs": [],
      "stateMutability": "nonpayable",
      "type": "function"
    },
    {
      "inputs": [
        {
          "internalType": "address",
          "name": "dst",
          "type": "address"
        },
        {
          "internalType": "uint256",
          "name": "amount",
          "type": "uint256"
        }
      ],
      "name": "transfer",
      "outputs": [
        {
          "internalType": "bool",
          "name": "",
          "type": "bool"
        }
      ],
      "stateMutability": "nonpayable",
      "type": "function"
    },
    {
      "inputs": [
        {
          "internalType": "address",
          "name": "src",
          "type": "address"
        },
        {
          "internalType": "address",
          "name": "dst",
          "type": "address"
        },
        {
          "internalType": "uint256",
          "name": "amount",
          "type": "uint256"
        }
      ],
      "name": "transferFrom",
      "outputs": [
        {
          "internalType": "bool",
          "name": "",
          "type": "bool"
        }
      ],
      "stateMutability": "nonpayable",
      "type": "function"
    },
    {
      "inputs": [
        {
          "internalType": "address",
          "name": "spender",
          "type": "address"
        },
        {
          "internalType": "uint256",
          "name": "amount",
          "type": "uint256"
        }
      ],
      "name": "approve",
      "outputs": [
        {
          "internalType": "bool",
          "name": "",
          "type": "bool"
        }
      ],
      "stateMutability": "nonpayable",
      "type": "function"
    },
    {
      "inputs": [
        {
          "internalType": "address",
          "name": "owner",
          "type": "address"
        },
        {
          "internalType": "address",
          "name": "spender",
          "type": "address"
        }
      ],
      "name": "allowance",
      "outputs": [
        {
          "internalType": "uint256",
          "name": "",
          "type": "uint256"
        }
      ],
      "stateMutability": "view",
      "type": "function"
    },
    {
      "inputs": [
        {
          "internalType": "address",
          "name": "owner",
          "type": "address"
        }
      ],
      "name": "balanceOf",
      "outputs": [
        {
          "internalType": "uint256",
          "name": "",
          "type": "uint256"
        }
      ],
      "stateMutability": "view",
      "type": "function"
    },
    {
      "inputs": [
        {
          "internalType": "address",
          "name": "owner",
          "type": "address"
        }
      ],
      "name": "balanceOfUnderlying",
      "outputs": [
        {
          "internalType": "uint256",
          "name": "",
          "type": "uint256"
        }
      ],
      "stateMutability": "nonpayable",
      "type": "function"
    },
    {
      "inputs": [
        {
          "internalType": "uint256",
          "name": "mintAmount",
          "type": "uint256"
        }
      ],
      "name": "mint",
      "outputs": [],
      "stateMutability": "nonpayable",
      "type": "function"
    },
    {
      "inputs": [
        {
          "internalType": "address",
          "name": "to",
          "type": "address"
        },
        {
          "internalType": "uint256",
          "name": "amount",
          "type": "uint256"
        }
      ],
      "name": "mintTo",
      "outputs": [],
      "stateMutability": "payable",
      "type": "function"
    },
    {
      "inputs": [],
      "name": "mintEth",
      "outputs": [],
      "stateMutability": "payable",
      "type": "function"
    },
    {
      "inputs": [
        {
          "internalType": "uint256",
          "name": "redeemTokens",
          "type": "uint256"
        }
      ],
      "name": "redeem",
      "outputs": [],
      "stateMutability": "nonpayable",
      "type": "function"
    },
    {
      "inputs": [
        {
          "internalType": "uint256",
          "name": "redeemAmount",
          "type": "uint256"
        }
      ],
      "name": "redeemUnderlying",
      "outputs": [],
      "stateMutability": "nonpayable",
      "type": "function"
    },
    {
      "inputs": [
        {
          "internalType": "address",
          "name": "borrower",
          "type": "address"
        },
        {
          "internalType": "uint256",
          "name": "borrowAmount",
          "type": "uint256"
        }
      ],
      "name": "borrowBehalf",
      "outputs": [],
      "stateMutability": "nonpayable",
      "type": "function"
    },
    {
      "inputs": [
        {
          "internalType": "address",
          "name": "borrower",
          "type": "address"
        },
        {
          "internalType": "uint256",
          "name": "repayAmount",
          "type": "uint256"
        }
      ],
      "name": "repayBorrowBehalf",
      "outputs": [],
      "stateMutability": "nonpayable",
      "type": "function"
    },
    {
      "inputs": [
        {
          "internalType": "address",
          "name": "borrower",
          "type": "address"
        },
        {
          "internalType": "uint256",
          "name": "repayAmount",
          "type": "uint256"
        }
      ],
      "name": "repayBorrowEndByOpenLev",
      "outputs": [],
      "stateMutability": "nonpayable",
      "type": "function"
    },
    {
      "inputs": [],
      "name": "availableForBorrow",
      "outputs": [
        {
          "internalType": "uint256",
          "name": "",
          "type": "uint256"
        }
      ],
      "stateMutability": "view",
      "type": "function"
    },
    {
      "inputs": [
        {
          "internalType": "address",
          "name": "account",
          "type": "address"
        }
      ],
      "name": "getAccountSnapshot",
      "outputs": [
        {
          "internalType": "uint256",
          "name": "",
          "type": "uint256"
        },
        {
          "internalType": "uint256",
          "name": "",
          "type": "uint256"
        },
        {
          "internalType": "uint256",
          "name": "",
          "type": "uint256"
        }
      ],
      "stateMutability": "view",
      "type": "function"
    },
    {
      "inputs": [],
      "name": "borrowRatePerBlock",
      "outputs": [
        {
          "internalType": "uint256",
          "name": "",
          "type": "uint256"
        }
      ],
      "stateMutability": "view",
      "type": "function"
    },
    {
      "inputs": [],
      "name": "supplyRatePerBlock",
      "outputs": [
        {
          "internalType": "uint256",
          "name": "",
          "type": "uint256"
        }
      ],
      "stateMutability": "view",
      "type": "function"
    },
    {
      "inputs": [],
      "name": "totalBorrowsCurrent",
      "outputs": [
        {
          "internalType": "uint256",
          "name": "",
          "type": "uint256"
        }
      ],
      "stateMutability": "view",
      "type": "function"
    },
    {
      "inputs": [
        {
          "internalType": "address",
          "name": "account",
          "type": "address"
        }
      ],
      "name": "borrowBalanceCurrent",
      "outputs": [
        {
          "internalType": "uint256",
          "name": "",
          "type": "uint256"
        }
      ],
      "stateMutability": "view",
      "type": "function"
    },
    {
      "inputs": [
        {
          "internalType": "address",
          "name": "account",
          "type": "address"
        }
      ],
      "name": "borrowBalanceStored",
      "outputs": [
        {
          "internalType": "uint256",
          "name": "",
          "type": "uint256"
        }
      ],
      "stateMutability": "view",
      "type": "function"
    },
    {
      "inputs": [],
      "name": "exchangeRateCurrent",
      "outputs": [
        {
          "internalType": "uint256",
          "name": "",
          "type": "uint256"
        }
      ],
      "stateMutability": "nonpayable",
      "type": "function"
    },
    {
      "inputs": [],
      "name": "exchangeRateStored",
      "outputs": [
        {
          "internalType": "uint256",
          "name": "",
          "type": "uint256"
        }
      ],
      "stateMutability": "view",
      "type": "function"
    },
    {
      "inputs": [],
      "name": "getCash",
      "outputs": [
        {
          "internalType": "uint256",
          "name": "",
          "type": "uint256"
        }
      ],
      "stateMutability": "view",
      "type": "function"
    },
    {
      "inputs": [],
      "name": "accrueInterest",
      "outputs": [],
      "stateMutability": "nonpayable",
      "type": "function"
    },
    {
      "inputs": [
        {
          "internalType": "address",
          "name": "newController",
          "type": "address"
        }
      ],
      "name": "setController",
      "outputs": [],
      "stateMutability": "nonpayable",
      "type": "function"
    },
    {
      "inputs": [
        {
          "internalType": "uint256",
          "name": "newBorrowCapFactorMantissa",
          "type": "uint256"
        }
      ],
      "name": "setBorrowCapFactorMantissa",
      "outputs": [],
      "stateMutability": "nonpayable",
      "type": "function"
    },
    {
      "inputs": [
        {
          "internalType": "uint256",
          "name": "baseRatePerBlock_",
          "type": "uint256"
        },
        {
          "internalType": "uint256",
          "name": "multiplierPerBlock_",
          "type": "uint256"
        },
        {
          "internalType": "uint256",
          "name": "jumpMultiplierPerBlock_",
          "type": "uint256"
        },
        {
          "internalType": "uint256",
          "name": "kink_",
          "type": "uint256"
        }
      ],
      "name": "setInterestParams",
      "outputs": [],
      "stateMutability": "nonpayable",
      "type": "function"
    },
    {
      "inputs": [
        {
          "internalType": "uint256",
          "name": "newReserveFactorMantissa",
          "type": "uint256"
        }
      ],
      "name": "setReserveFactor",
      "outputs": [],
      "stateMutability": "nonpayable",
      "type": "function"
    },
    {
      "inputs": [
        {
          "internalType": "uint256",
          "name": "addAmount",
          "type": "uint256"
        }
      ],
      "name": "addReserves",
      "outputs": [],
      "stateMutability": "nonpayable",
      "type": "function"
    },
    {
      "inputs": [
        {
          "internalType": "address payable",
          "name": "to",
          "type": "address"
        },
        {
          "internalType": "uint256",
          "name": "reduceAmount",
          "type": "uint256"
        }
      ],
      "name": "reduceReserves",
      "outputs": [],
      "stateMutability": "nonpayable",
      "type": "function"
    }
  ],
  "bytecode": "0x608060405234801561001057600080fd5b50600380546001600160a01b031916331790556001601955614e77806100376000396000f3fe6080604052600436106103505760003560e01c8063852a12e3116101c6578063c37f68e2116100f7578063ebd0847f11610095578063f851a4401161006f578063f851a44014610c8b578063f8f9da2814610ca0578063fb0fc2b614610cb5578063fd2da33914610cca57610350565b8063ebd0847f14610c25578063f14039de14610c61578063f77c479114610c7657610350565b8063cc2c929e116100d1578063cc2c929e14610ba3578063d245445b14610bb8578063db006a7514610bc0578063dd62ed3e14610bea57610350565b8063c37f68e2146109bb578063c89a636814610a0c578063ca4b208b14610b8e57610350565b8063a0712d6811610164578063aa5af0fd1161013e578063aa5af0fd14610967578063ae9d70b01461097c578063b9f9850a14610991578063bd6d894d146109a657610350565b8063a0712d68146108ef578063a6afed9514610919578063a9059cbb1461092e57610350565b80638f840ddd116101a05780638f840ddd1461085f57806392eefe9b1461087457806395d89b41146108a757806395dd9193146108bc57610350565b8063852a12e3146107e7578063856e5bb3146108115780638726bb891461084a57610350565b80633af9e669116102a05780636940caa01161023e5780636f307dc3116102185780636f307dc31461076057806370a082311461077557806373acee98146107a85780637821a514146107bd57610350565b80636940caa0146106e85780636c540baf146107125780636e45a80f1461072757610350565b8063449a52f81161027a578063449a52f81461065f57806347bd37181461068b5780634dd18bf5146106a05780635c60da1b146106d357610350565b80633af9e669146106025780633b1d21a21461063557806342af38d81461064a57610350565b806318160ddd1161030d57806323b872dd116102e757806323b872dd1461052a5780632608f8181461056d57806326782247146105a6578063313ce567146105d757610350565b806318160ddd146104d6578063182df0f5146104eb5780631c4469831461050057610350565b806306fdde0314610355578063095ea7b3146103df5780630e18b6811461042c57806310cc9d6414610443578063173b99041461047c57806317bfdfbc146104a3575b600080fd5b34801561036157600080fd5b5061036a610cdf565b6040805160208082528351818301528351919283929083019185019080838360005b838110156103a457818101518382015260200161038c565b50505050905090810190601f1680156103d15780820380516001836020036101000a031916815260200191505b509250505060405180910390f35b3480156103eb57600080fd5b506104186004803603604081101561040257600080fd5b506001600160a01b038135169060200135610d6d565b604080519115158252519081900360200190f35b34801561043857600080fd5b50610441610dda565b005b34801561044f57600080fd5b506104416004803603604081101561046657600080fd5b506001600160a01b038135169060200135610eda565b34801561048857600080fd5b50610491610f44565b60408051918252519081900360200190f35b3480156104af57600080fd5b50610491600480360360208110156104c657600080fd5b50356001600160a01b0316610f4a565b3480156104e257600080fd5b5061049161101c565b3480156104f757600080fd5b50610491611022565b34801561050c57600080fd5b506104416004803603602081101561052357600080fd5b5035611087565b34801561053657600080fd5b506104186004803603606081101561054d57600080fd5b506001600160a01b0381358116916020810135909116906040013561117c565b34801561057957600080fd5b506104416004803603604081101561059057600080fd5b506001600160a01b0381351690602001356111e2565b3480156105b257600080fd5b506105bb611242565b604080516001600160a01b039092168252519081900360200190f35b3480156105e357600080fd5b506105ec611251565b6040805160ff9092168252519081900360200190f35b34801561060e57600080fd5b506104916004803603602081101561062557600080fd5b50356001600160a01b031661125a565b34801561064157600080fd5b506104916112f7565b34801561065657600080fd5b50610491611373565b6104416004803603604081101561067557600080fd5b506001600160a01b038135169060200135611379565b34801561069757600080fd5b50610491611405565b3480156106ac57600080fd5b50610441600480360360208110156106c357600080fd5b50356001600160a01b031661140b565b3480156106df57600080fd5b506105bb6114c4565b3480156106f457600080fd5b506104416004803603602081101561070b57600080fd5b50356114d3565b34801561071e57600080fd5b506104916115c0565b34801561073357600080fd5b506104416004803603604081101561074a57600080fd5b506001600160a01b0381351690602001356115c6565b34801561076c57600080fd5b506105bb6116e5565b34801561078157600080fd5b506104916004803603602081101561079857600080fd5b50356001600160a01b03166116f4565b3480156107b457600080fd5b5061049161170f565b3480156107c957600080fd5b50610441600480360360208110156107e057600080fd5b503561197d565b3480156107f357600080fd5b506104416004803603602081101561080a57600080fd5b5035611a42565b34801561081d57600080fd5b506104416004803603604081101561083457600080fd5b506001600160a01b038135169060200135611aa9565b34801561085657600080fd5b50610491611b07565b34801561086b57600080fd5b50610491611b0d565b34801561088057600080fd5b506104416004803603602081101561089757600080fd5b50356001600160a01b0316611b13565b3480156108b357600080fd5b5061036a611c0c565b3480156108c857600080fd5b50610491600480360360208110156108df57600080fd5b50356001600160a01b0316611c67565b3480156108fb57600080fd5b506104416004803603602081101561091257600080fd5b5035611c82565b34801561092557600080fd5b50610441611ce1565b34801561093a57600080fd5b506104186004803603604081101561095157600080fd5b506001600160a01b03813516906020013561209d565b34801561097357600080fd5b50610491612102565b34801561098857600080fd5b50610491612108565b34801561099d57600080fd5b50610491612128565b3480156109b257600080fd5b5061049161212e565b3480156109c757600080fd5b506109ee600480360360208110156109de57600080fd5b50356001600160a01b0316612195565b60408051938452602084019290925282820152519081900360600190f35b348015610a1857600080fd5b506104416004803603610160811015610a3057600080fd5b6001600160a01b038235811692602081013515159260408201359092169160608201359160808101359160a08201359160c08101359160e082013591908101906101208101610100820135640100000000811115610a8d57600080fd5b820183602082011115610a9f57600080fd5b80359060200191846001830284011164010000000083111715610ac157600080fd5b91908080601f0160208091040260200160405190810160405280939291908181526020018383808284376000920191909152509295949360208101935035915050640100000000811115610b1457600080fd5b820183602082011115610b2657600080fd5b80359060200191846001830284011164010000000083111715610b4857600080fd5b91908080601f0160208091040260200160405190810160405280939291908181526020018383808284376000920191909152509295505050903560ff16915061222c9050565b348015610b9a57600080fd5b506105bb612551565b348015610baf57600080fd5b50610418612560565b610441612570565b348015610bcc57600080fd5b5061044160048036036020811015610be357600080fd5b503561261c565b348015610bf657600080fd5b5061049160048036036040811015610c0d57600080fd5b506001600160a01b038135811691602001351661267b565b348015610c3157600080fd5b5061044160048036036080811015610c4857600080fd5b50803590602081013590604081013590606001356126a6565b348015610c6d57600080fd5b506104916128ab565b348015610c8257600080fd5b506105bb6128b1565b348015610c9757600080fd5b506105bb6128c0565b348015610cac57600080fd5b506104916128cf565b348015610cc157600080fd5b506104916128e7565b348015610cd657600080fd5b50610491612993565b6004805460408051602060026001851615610100026000190190941693909304601f81018490048402820184019092528181529291830182828015610d655780601f10610d3a57610100808354040283529160200191610d65565b820191906000526020600020905b815481529060010190602001808311610d4857829003601f168201915b505050505081565b3360008181526009602090815260408083206001600160a01b03871680855290835281842086905581518681529151939493909284927f8c5be1e5ebec7d5bd14f71427d1e84f3dd0314c0f7b2291e5b200ac8c7c3b925929081900390910190a360019150505b92915050565b6002546001600160a01b03163314610e235760405162461bcd60e51b8152600401808060200182810382526022815260200180614daa6022913960400191505060405180910390fd5b60018054600280546001600160a01b038082166001600160a01b031980861682179687905590921690925560408051938316808552949092166020840152815190927ff9ffabca9c8276e99321725bcb43fb076a6c66a54b7f21c4e8146d8519b417dc92908290030190a1600254604080516001600160a01b038085168252909216602083015280517fca4f2f25d0898edd99413412fb94012f9e54ec8142f9b093e7720646a95b16a99281900390910190a15050565b60026019541415610f20576040805162461bcd60e51b815260206004820152601f6024820152600080516020614d8a833981519152604482015290519081900360640190fd5b6002601955610f2d611ce1565b610f3a3383836001612999565b5050600160195550565b60115481565b6000806000610f57612d76565b90925090506000826003811115610f6a57fe5b14610fb5576040805162461bcd60e51b815260206004820152601660248201527518d85b18c8189bdc9c9bddc81a5b99195e0819985a5b60521b604482015290519081900360640190fd5b600080610fc28684612e2f565b90925090506000826003811115610fd557fe5b14611013576040805162461bcd60e51b815260206004820152600960248201526818d85b18c819985a5b60ba1b604482015290519081900360640190fd5b95945050505050565b60075481565b600080600061102f612ee0565b9092509050600082600381111561104257fe5b14611080576040805162461bcd60e51b815260206004820152600960248201526818d85b18c819985a5b60ba1b604482015290519081900360640190fd5b9150505b90565b6001546001600160a01b031633146110dd576040805162461bcd60e51b815260206004820152601460248201527331b0b63632b91036bab9ba1031329030b236b4b760611b604482015290519081900360640190fd5b670de0b6b3a764000081111561112d576040805162461bcd60e51b815260206004820152601060248201526f466163746f7220746f6f206c6172676560801b604482015290519081900360640190fd5b611135611ce1565b6011805490829055604080518281526020810184905281517faaa68312e2ea9d50e16af5068410ab56e1a1fd06037b1a35664812c30f821460929181900390910190a15050565b6000600260195414156111c4576040805162461bcd60e51b815260206004820152601f6024820152600080516020614d8a833981519152604482015290519081900360640190fd5b60026019556111d533858585612f8b565b6001601955949350505050565b60026019541415611228576040805162461bcd60e51b815260206004820152601f6024820152600080516020614d8a833981519152604482015290519081900360640190fd5b6002601955611235611ce1565b610f3a3383836000612999565b6002546001600160a01b031681565b60065460ff1681565b600080604051806020016040528061127061212e565b90526001600160a01b03841660009081526008602052604081205491925090819061129c9084906132ec565b909250905060008260038111156112af57fe5b146112ef576040805162461bcd60e51b815260206004820152600b60248201526a18d85b18c819985a5b195960aa1b604482015290519081900360640190fd5b949350505050565b601354604080516370a0823160e01b815230600482015290516000926001600160a01b0316916370a08231916024808301926020929190829003018186803b15801561134257600080fd5b505afa158015611356573d6000803e3d6000fd5b505050506040513d602081101561136c57600080fd5b5051905090565b600a5481565b600260195414156113bf576040805162461bcd60e51b815260206004820152601f6024820152600080516020614d8a833981519152604482015290519081900360640190fd5b60026019556113cc611ce1565b601354600160a01b900460ff16156113f0576113ea82346000613338565b506113fc565b610f3a82826001613338565b50506001601955565b600f5481565b6001546001600160a01b03163314611461576040805162461bcd60e51b815260206004820152601460248201527331b0b63632b91036bab9ba1031329030b236b4b760611b604482015290519081900360640190fd5b600280546001600160a01b038381166001600160a01b0319831681179093556040805191909216808252602082019390935281517fca4f2f25d0898edd99413412fb94012f9e54ec8142f9b093e7720646a95b16a9929181900390910190a15050565b6000546001600160a01b031681565b6001546001600160a01b03163314611529576040805162461bcd60e51b815260206004820152601460248201527331b0b63632b91036bab9ba1031329030b236b4b760611b604482015290519081900360640190fd5b670de0b6b3a7640000811115611579576040805162461bcd60e51b815260206004820152601060248201526f466163746f7220746f6f206c6172676560801b604482015290519081900360640190fd5b600a805490829055604080518281526020810184905281517f8d783a1777b97cb9cbf193604a8a1bc534234dbaaa16629ff7022f0d63a7322f929181900390910190a15050565b600d5481565b6002601954141561160c576040805162461bcd60e51b815260206004820152601f6024820152600080516020614d8a833981519152604482015290519081900360640190fd5b60026019556001546001600160a01b03163314611667576040805162461bcd60e51b815260206004820152601460248201527331b0b63632b91036bab9ba1031329030b236b4b760611b604482015290519081900360640190fd5b61166f611ce1565b60125460009061167f90836137f4565b6012819055905061169283836001613851565b604080516001600160a01b03851681526020810184905280820183905290517f3bad0c59cf2f06e7314077049f48a93578cd16f5ef92329f1dab1420a99c177e9181900360600190a15050600160195550565b6013546001600160a01b031681565b6001600160a01b031660009081526008602052604090205490565b60008061171a61392b565b600d549091508082141561173457600f5492505050611084565b600061173e6112f7565b600f5460125491925090600061175584848461392f565b905065048c273950008111156117a9576040805162461bcd60e51b81526020600482015260146024820152733137b93937bbb2b9103930ba32903434b3b432b960611b604482015290519081900360640190fd5b6000806117b688886139f2565b909250905060008260038111156117c957fe5b14611813576040805162461bcd60e51b815260206004820152601560248201527463616c6320626c6f636b2064656c7461206572726f60581b604482015290519081900360640190fd5b61181b614c2f565b60008061183660405180602001604052808881525085613a15565b9095509250600085600381111561184957fe5b1461189b576040805162461bcd60e51b815260206004820152601a60248201527f63616c6320696e74657265737420666163746f72206572726f72000000000000604482015290519081900360640190fd5b6118a583896132ec565b909550915060008560038111156118b857fe5b14611904576040805162461bcd60e51b815260206004820152601760248201527631b0b6319034b73a32b932b9ba1030b1b19032b93937b960491b604482015290519081900360640190fd5b61190e8289613a7d565b9095509050600085600381111561192157fe5b1461196e576040805162461bcd60e51b815260206004820152601860248201527731b0b631903a37ba30b6103137b93937bbb99032b93937b960411b604482015290519081900360640190fd5b9a505050505050505050505090565b600260195414156119c3576040805162461bcd60e51b815260206004820152601f6024820152600080516020614d8a833981519152604482015290519081900360640190fd5b60026019556119d0611ce1565b6000806119df33846001613aa3565b6012549091506119ef9082613b40565b6012819055604080513381526020810184905280820183905290519193507fa91e67c5ea634cd43a12c5a482724b03de01e85ca68702a53d0c2f45cb7c1dc5919081900360600190a15050600160195550565b60026019541415611a88576040805162461bcd60e51b815260206004820152601f6024820152600080516020614d8a833981519152604482015290519081900360640190fd5b6002601955611a95611ce1565b611aa133600083613b9a565b506001601955565b60026019541415611aef576040805162461bcd60e51b815260206004820152601f6024820152600080516020614d8a833981519152604482015290519081900360640190fd5b6002601955611afc611ce1565b6113fc8233836140d1565b60155481565b60125481565b6001546001600160a01b03163314611b69576040805162461bcd60e51b815260206004820152601460248201527331b0b63632b91036bab9ba1031329030b236b4b760611b604482015290519081900360640190fd5b6001600160a01b038116611ba9576040805162461bcd60e51b8152602060048201526002602482015261060f60f31b604482015290519081900360640190fd5b600b80546001600160a01b038381166001600160a01b0319831681179093556040805191909216808252602082019390935281517ff9b6a28700579d5c8fab50f0ac2dcaa52109b85c369c4f511fcc873330ab6cbb929181900390910190a15050565b6005805460408051602060026001851615610100026000190190941693909304601f81018490048402820184019092528181529291830182828015610d655780601f10610d3a57610100808354040283529160200191610d65565b6001600160a01b031660009081526018602052604090205490565b60026019541415611cc8576040805162461bcd60e51b815260206004820152601f6024820152600080516020614d8a833981519152604482015290519081900360640190fd5b6002601955611cd5611ce1565b6113fc33826000613338565b6000611ceb61392b565b600d5490915080821415611d0057505061209b565b6000611d0a6112f7565b600f54600e5460125492935090916000611d2585858461392f565b905065048c27395000811115611d79576040805162461bcd60e51b81526020600482015260146024820152733137b93937bbb2b9103930ba32903434b3b432b960611b604482015290519081900360640190fd5b600080611d8689896139f2565b90925090506000826003811115611d9957fe5b14611de3576040805162461bcd60e51b815260206004820152601560248201527463616c6320626c6f636b2064656c7461206572726f60581b604482015290519081900360640190fd5b611deb614c2f565b600080600080611e0960405180602001604052808a81525087613a15565b90975094506000876003811115611e1c57fe5b14611e6e576040805162461bcd60e51b815260206004820152601a60248201527f63616c6320696e74657265737420666163746f72206572726f72000000000000604482015290519081900360640190fd5b611e78858c6132ec565b90975093506000876003811115611e8b57fe5b14611ed7576040805162461bcd60e51b815260206004820152601760248201527631b0b6319034b73a32b932b9ba1030b1b19032b93937b960491b604482015290519081900360640190fd5b611ee1848c613a7d565b90975092506000876003811115611ef457fe5b14611f41576040805162461bcd60e51b815260206004820152601860248201527731b0b631903a37ba30b6103137b93937bbb99032b93937b960411b604482015290519081900360640190fd5b611f5c6040518060200160405280601154815250858b61442c565b90975090506000876003811115611f6f57fe5b14611fc1576040805162461bcd60e51b815260206004820152601960248201527f63616c6320746f74616c207265736572766573206572726f7200000000000000604482015290519081900360640190fd5b611fcc858b8c61442c565b90975091506000876003811115611fdf57fe5b14612031576040805162461bcd60e51b815260206004820152601860248201527f63616c6320626f72726f777320696e646578206572726f720000000000000000604482015290519081900360640190fd5b600d8e9055600e829055600f8390556012819055604080518d8152602081018690528082018490526060810185905290517f4dec04e750ca11537cabcd8a9eab06494de08da3735bc8871cd41250e190bc049181900360800190a150505050505050505050505050505b565b6000600260195414156120e5576040805162461bcd60e51b815260206004820152601f6024820152600080516020614d8a833981519152604482015290519081900360640190fd5b60026019556120f633808585612f8b565b60016019559392505050565b600e5481565b60006121236121156112f7565b600f54601254601154614481565b905090565b60165481565b600060026019541415612176576040805162461bcd60e51b815260206004820152601f6024820152600080516020614d8a833981519152604482015290519081900360640190fd5b6002601955612183611ce1565b61218b611022565b9050600160195590565b6001600160a01b038116600090815260086020526040812054819081908180806121be886144ee565b9350905060008160038111156121d057fe5b146121e957600080600096509650965050505050612225565b6121f1612ee0565b92509050600081600381111561220357fe5b1461221c57600080600096509650965050505050612225565b50919450925090505b9193909250565b6001600160a01b038b16612287576040805162461bcd60e51b815260206004820152601f60248201527f756e6465726c79696e675f20616464726573732063616e6e6f74206265203000604482015290519081900360640190fd5b6001600160a01b0389166122e2576040805162461bcd60e51b815260206004820152601f60248201527f636f6e74726f6c6c65725f20616464726573732063616e6e6f74206265203000604482015290519081900360640190fd5b6001546001600160a01b03163314612341576040805162461bcd60e51b815260206004820181905260248201527f4f6e6c7920616c6c6f7720746f2062652063616c6c65642062792061646d696e604482015290519081900360640190fd5b600d541580156123515750600e54155b612390576040805162461bcd60e51b815260206004820152600b60248201526a696e69746564206f6e636560a81b604482015290519081900360640190fd5b600c849055836123d15760405162461bcd60e51b8152600401808060200182810382526035815260200180614e0d6035913960400191505060405180910390fd5b600b80546001600160a01b0319166001600160a01b038b161790556013805460ff60a01b1916600160a01b8c151502179055601488905560158790556016869055601785905561241f61392b565b600d556a084595161401484a000000600e55670b1a2bc2ec500000600a5567016345785d8a0000601155825161245c906004906020860190614c42565b508151612470906005906020850190614c42565b506006805460ff191660ff831617905560038054600160a01b60ff60a01b19909116179055601380546001600160a01b0319166001600160a01b038d81169190911791829055604080516318160ddd60e01b8152905192909116916318160ddd91600480820192602092909190829003018186803b1580156124f157600080fd5b505afa158015612505573d6000803e3d6000fd5b505050506040513d602081101561251b57600080fd5b50506040805160008082529151339291600080516020614ded833981519152919081900360200190a35050505050505050505050565b6003546001600160a01b031681565b601354600160a01b900460ff1681565b600260195414156125b6576040805162461bcd60e51b815260206004820152601f6024820152600080516020614d8a833981519152604482015290519081900360640190fd5b6002601955601354600160a01b900460ff16612608576040805162461bcd60e51b815260206004820152600c60248201526b1b9bdd08195d1a081c1bdbdb60a21b604482015290519081900360640190fd5b612610611ce1565b611aa133346000613338565b60026019541415612662576040805162461bcd60e51b815260206004820152601f6024820152600080516020614d8a833981519152604482015290519081900360640190fd5b600260195561266f611ce1565b611aa133826000613b9a565b6001600160a01b03918216600090815260096020908152604080832093909416825291909152205490565b6001546001600160a01b031633146126fc576040805162461bcd60e51b815260206004820152601460248201527331b0b63632b91036bab9ba1031329030b236b4b760611b604482015290519081900360640190fd5b6014541561270c5761270c611ce1565b6509184e72a000841061275c576040805162461bcd60e51b815260206004820152601360248201527242617365207261746520746f6f206c6172676560681b604482015290519081900360640190fd5b60148490556509184e72a00083106127b0576040805162461bcd60e51b81526020600482015260126024820152714d756c207261746520746f6f206c6172676560701b604482015290519081900360640190fd5b60158390556509184e72a0008210612805576040805162461bcd60e51b81526020600482015260136024820152724a756d70207261746520746f6f206c6172676560681b604482015290519081900360640190fd5b6016829055670de0b6b3a7640000811115612859576040805162461bcd60e51b815260206004820152600f60248201526e4b6c696e6520746f6f206c6172676560881b604482015290519081900360640190fd5b601781905560408051858152602081018590528082018490526060810183905290517f1d6ada507d93788b3d2e6f68f2999ef7e05f2196ba5cde6db7d0a785745b3c249181900360800190a150505050565b60145481565b600b546001600160a01b031681565b6001546001600160a01b031681565b60006121236128dc6112f7565b600f5460125461392f565b6000806128f26112f7565b905060008061290683600f54601254614506565b9092509050600082600381111561291957fe5b1461292a5760009350505050611084565b600080612947604051806020016040528085815250600a546132ec565b9092509050600082600381111561295a57fe5b1461296d57600095505050505050611084565b80600f54111561298557600095505050505050611084565b600f54900394505050505090565b60175481565b60006129a361392b565b600d54146129e9576040805162461bcd60e51b815260206004820152600e60248201526d6e6f742073616d6520626c6f636b60901b604482015290519081900360640190fd5b600b546040805163012c89d360e31b81526001600160a01b0388811660048301528781166024830152604482018790528515156064830152915191909216916309644e9891608480830192600092919082900301818387803b158015612a4e57600080fd5b505af1158015612a62573d6000803e3d6000fd5b50505050612a6e614cce565b6001600160a01b038516600090815260186020526040908190206001015490820152612a99856144ee565b6060830181905282826003811115612aad57fe5b6003811115612ab857fe5b9052506000905081516003811115612acc57fe5b14612b16576040805162461bcd60e51b815260206004820152601560248201527431b0b6319030b1b1903137b93937bb9032b93937b960591b604482015290519081900360640190fd5b600019841415612b2f5760608101516020820152612b37565b602081018490525b612b478682602001516000613aa3565b60c0820152828015612b6057508060c001518160600151115b15612b765760c081015160608201510360e08201525b8060c0015181606001511015612c1057670e92596fd6290000612bbc8260600151612bb6670de0b6b3a76400008560c0015161454490919063ffffffff16565b9061459d565b1115612c04576040805162461bcd60e51b81526020600482015260126024820152717265706179206d6f7265207468616e20352560701b604482015290519081900360640190fd5b60006080820152612c33565b8215612c225760006080820152612c33565b60c081015160608201510360808201525b600f548160c001511115612c4d57600060a0820152612c7d565b8215612c6e576060810151600f54612c64916137f4565b60a0820152612c7d565b60c0810151600f540360a08201525b806080015160186000876001600160a01b03166001600160a01b0316815260200190815260200160002060000181905550600e5460186000876001600160a01b03166001600160a01b03168152602001908152602001600020600101819055508060a00151600f819055507f6fadbf7329d21f278e724fa0d4511001a158f2a97ee35c5bc4cf8b64417399ef86868360c001518460e0015185608001518660a0015160405180876001600160a01b03168152602001866001600160a01b03168152602001858152602001848152602001838152602001828152602001965050505050505060405180910390a160c0015195945050505050565b6000806000612d8361392b565b600d54909150600081831415612da4576000600e5494509450505050612e2b565b6000612db16128dc6112f7565b9050600080612dc086866139f2565b91509150612dcc614c2f565b612de460405180602001604052808681525083613a15565b90935090506000836003811115612df757fe5b14612e0f578260009850985050505050505050612e2b565b612e1e81600e54600e5461442c565b9099509750505050505050505b9091565b6001600160a01b038216600090815260186020526040812080548291829182918291612e65576000809550955050505050612ed9565b8054612e719088614604565b90945092506000846003811115612e8457fe5b14612e99578360009550955050505050612ed9565b612ea7838260010154614643565b90945091506000846003811115612eba57fe5b14612ecf578360009550955050505050612ed9565b5060009450925050505b9250929050565b600754600090819080612efb575050600c5460009150612e2b565b6000612f056112f7565b90506000612f11614c2f565b6000612f2284600f54601254614506565b935090506000816003811115612f3457fe5b14612f4957955060009450612e2b9350505050565b612f53838661466e565b925090506000816003811115612f6557fe5b14612f7a57955060009450612e2b9350505050565b5051600095509350612e2b92505050565b60006001600160a01b038316612fe8576040805162461bcd60e51b815260206004820152601760248201527f64737420616464726573732063616e6e6f742062652030000000000000000000604482015290519081900360640190fd5b826001600160a01b0316846001600160a01b0316141561303b576040805162461bcd60e51b81526020600482015260096024820152681cdc98c80f48191cdd60ba1b604482015290519081900360640190fd5b600b546040805160016276d1bb60e11b031981526001600160a01b0387811660048301528681166024830152604482018690529151919092169163ff125c8a91606480830192600092919082900301818387803b15801561309b57600080fd5b505af11580156130af573d6000803e3d6000fd5b505050506000846001600160a01b0316866001600160a01b031614156130d85750600019613100565b506001600160a01b038085166000908152600960209081526040808320938916835292905220545b60008060008061311085886139f2565b9094509250600084600381111561312357fe5b14613163576040805162461bcd60e51b815260206004820152600b60248201526a1b9bdd08185b1b1bddd95960aa1b604482015290519081900360640190fd5b6001600160a01b03891660009081526008602052604090205461318690886139f2565b9094509150600084600381111561319957fe5b146131d8576040805162461bcd60e51b815260206004820152600a6024820152690dcdee840cadcdeeaced60b31b604482015290519081900360640190fd5b6001600160a01b0388166000908152600860205260409020546131fb9088613a7d565b9094509050600084600381111561320e57fe5b1461324b576040805162461bcd60e51b81526020600482015260086024820152670e8dede40daeac6d60c31b604482015290519081900360640190fd5b6001600160a01b03808a16600090815260086020526040808220859055918a1681522081905560001985146132a3576001600160a01b03808a166000908152600960209081526040808320938e168352929052208390555b876001600160a01b0316896001600160a01b0316600080516020614ded833981519152896040518082815260200191505060405180910390a35060019998505050505050505050565b6000806000806132fc8686613a15565b9092509050600082600381111561330f57fe5b146133205750915060009050612ed9565b600061332b8261471f565b9350935050509250929050565b600061334261392b565b600d5414613388576040805162461bcd60e51b815260206004820152600e60248201526d6e6f742073616d6520626c6f636b60901b604482015290519081900360640190fd5b613390614d14565b613398612ee0565b60208301819052828260038111156133ac57fe5b60038111156133b757fe5b90525060009050815160038111156133cb57fe5b14613417576040805162461bcd60e51b815260206004820152601760248201527631b0b6319032bc31b430b733b2b930ba329032b93937b960491b604482015290519081900360640190fd5b82156134ec5760006134276112f7565b9050336001600160a01b031663d7efa12987876040518363ffffffff1660e01b815260040180836001600160a01b0316815260200182815260200192505050600060405180830381600087803b15801561348057600080fd5b505af1158015613494573d6000803e3d6000fd5b5050505060006134a26112f7565b90508181116134e1576040805162461bcd60e51b815260206004820152600660248201526506d696e7420360d41b604482015290519081900360640190fd5b0360a08201526134fe565b6134f885856001613aa3565b60a08201525b61351e8160a001516040518060200160405280846020015181525061472e565b604083018190528282600381111561353257fe5b600381111561353d57fe5b905250600090508151600381111561355157fe5b1461359b576040805162461bcd60e51b815260206004820152601560248201527431b0b6319036b4b73a103a37b5b2b71032b93937b960591b604482015290519081900360640190fd5b600b5460408083015181516357739dc560e01b81526001600160a01b038981166004830152602482019290925291519216916357739dc59160448082019260009290919082900301818387803b1580156135f457600080fd5b505af1158015613608573d6000803e3d6000fd5b5050505061361c6007548260400151613a7d565b606083018190528282600381111561363057fe5b600381111561363b57fe5b905250600090508151600381111561364f57fe5b1461369a576040805162461bcd60e51b815260206004820152601660248201527518d85b18c81cdd5c1c1b1e481b995dc819985a5b195960521b604482015290519081900360640190fd5b6001600160a01b0385166000908152600860205260409081902054908201516136c39190613a7d565b60808301819052828260038111156136d757fe5b60038111156136e257fe5b90525060009050815160038111156136f657fe5b14613740576040805162461bcd60e51b815260206004820152601560248201527418d85b18c81d1bdad95b9cc81b995dc8185a5b1959605a1b604482015290519081900360640190fd5b60608082015160075560808201516001600160a01b0387166000818152600860209081526040918290209390935560a0850151818601518251938452938301528181019290925290517f4c209b5fc8ad50758f13e2e1088ba56a560dff690a1c6fef26394f4c03821c4f929181900390910190a1604080820151815190815290516001600160a01b038716913091600080516020614ded8339815191529181900360200190a360a0015190505b9392505050565b60008282111561384b576040805162461bcd60e51b815260206004820152601e60248201527f536166654d6174683a207375627472616374696f6e206f766572666c6f770000604482015290519081900360640190fd5b50900390565b601354600160a01b900460ff1680156138675750805b1561390d5760135460408051632e1a7d4d60e01b81526004810185905290516001600160a01b0390921691632e1a7d4d9160248082019260009290919082900301818387803b1580156138b957600080fd5b505af11580156138cd573d6000803e3d6000fd5b50506040516001600160a01b038616925084156108fc02915084906000818181858888f19350505050158015613907573d6000803e3d6000fd5b50613926565b601354613924906001600160a01b0316848461473e565b505b505050565b4390565b60008061393d858585614966565b9050601754811161397d5761397560145461396f670de0b6b3a7640000612bb66015548661454490919063ffffffff16565b90613b40565b9150506137ed565b60006139a860145461396f670de0b6b3a7640000612bb660155460175461454490919063ffffffff16565b905060006139c1601754846137f490919063ffffffff16565b90506139e88261396f670de0b6b3a7640000612bb66016548661454490919063ffffffff16565b93505050506137ed565b600080838311613a09575060009050818303612ed9565b50600390506000612ed9565b6000613a1f614c2f565b600080613a30866000015186614604565b90925090506000826003811115613a4357fe5b14613a6257506040805160208101909152600081529092509050612ed9565b60408051602081019091529081526000969095509350505050565b600080838301848110613a9557600092509050612ed9565b600260009250925050612ed9565b601354600090600160a01b900460ff168015613abc5750815b15613b28575060135460408051630d0e30db60e41b8152905134926001600160a01b03169163d0e30db091849160048082019260009290919082900301818588803b158015613b0a57600080fd5b505af1158015613b1e573d6000803e3d6000fd5b50505050506137ed565b6013546112ef906001600160a01b031685308661499e565b6000828201838110156137ed576040805162461bcd60e51b815260206004820152601b60248201527f536166654d6174683a206164646974696f6e206f766572666c6f770000000000604482015290519081900360640190fd5b613ba261392b565b600d5414613be8576040805162461bcd60e51b815260206004820152600e60248201526d6e6f742073616d6520626c6f636b60901b604482015290519081900360640190fd5b811580613bf3575080155b613c32576040805162461bcd60e51b815260206004820152600b60248201526a6f6e65206265207a65726f60a81b604482015290519081900360640190fd5b613c3a614d14565b613c42612ee0565b6020830181905282826003811115613c5657fe5b6003811115613c6157fe5b9052506000905081516003811115613c7557fe5b14613cc1576040805162461bcd60e51b815260206004820152601760248201527631b0b6319032bc31b430b733b2b930ba329032b93937b960491b604482015290519081900360640190fd5b8215613d7357604080820184905280516020808201909252908201518152613ce990846132ec565b6060830181905282826003811115613cfd57fe5b6003811115613d0857fe5b9052506000905081516003811115613d1c57fe5b14613d6e576040805162461bcd60e51b815260206004820152601860248201527f63616c632072656465656d20616d6f756e74206572726f720000000000000000604482015290519081900360640190fd5b613e1c565b613d8f826040518060200160405280846020015181525061472e565b6040830181905282826003811115613da357fe5b6003811115613dae57fe5b9052506000905081516003811115613dc257fe5b14613e14576040805162461bcd60e51b815260206004820152601860248201527f63616c632072656465656d20746f6b656e73206572726f720000000000000000604482015290519081900360640190fd5b606081018290525b600b54604080830151815163335dec6b60e21b81526001600160a01b0388811660048301526024820192909252915192169163cd77b1ac9160448082019260009290919082900301818387803b158015613e7557600080fd5b505af1158015613e89573d6000803e3d6000fd5b50505050613e9d60075482604001516139f2565b6080830181905282826003811115613eb157fe5b6003811115613ebc57fe5b9052506000905081516003811115613ed057fe5b14613f1a576040805162461bcd60e51b815260206004820152601560248201527431b0b6319039bab838363c903732bb9032b93937b960591b604482015290519081900360640190fd5b6001600160a01b038416600090815260086020526040908190205490820151613f4391906139f2565b60a0830181905282826003811115613f5757fe5b6003811115613f6257fe5b9052506000905081516003811115613f7657fe5b14613fbf576040805162461bcd60e51b815260206004820152601460248201527331b0b631903a37b5b2b7103732bb9032b93937b960611b604482015290519081900360640190fd5b8060600151613fcc6112f7565b101561400f576040805162461bcd60e51b815260206004820152600d60248201526c63617368203c2072656465656d60981b604482015290519081900360640190fd5b608081015160075560a08101516001600160a01b03851660009081526008602052604090205560608101516140479085906001613851565b6040808201518151908152905130916001600160a01b03871691600080516020614ded8339815191529181900360200190a360608082015160408084015181516001600160a01b0389168152602081019390935282820152517fe5b754fb1abb7f01b499791d0b820ae3b6af3424ac1c59768edb53f4ec31a929929181900390910190a150505050565b6140d961392b565b600d541461411f576040805162461bcd60e51b815260206004820152600e60248201526d6e6f742073616d6520626c6f636b60901b604482015290519081900360640190fd5b600b546040805163368f515360e21b81526001600160a01b0386811660048301528581166024830152604482018590529151919092169163da3d454c91606480830192600092919082900301818387803b15801561417c57600080fd5b505af1158015614190573d6000803e3d6000fd5b505050508061419d6112f7565b10156141de576040805162461bcd60e51b815260206004820152600b60248201526a636173683c626f72726f7760a81b604482015290519081900360640190fd5b6141e6614d4b565b6141ef846144ee565b602083018190528282600381111561420357fe5b600381111561420e57fe5b905250600090508151600381111561422257fe5b1461426d576040805162461bcd60e51b815260206004820152601660248201527531b0b6319030b1b1903137b93937bbb99032b93937b960511b604482015290519081900360640190fd5b61427b816020015183613a7d565b604083018190528282600381111561428f57fe5b600381111561429a57fe5b90525060009050815160038111156142ae57fe5b146142f9576040805162461bcd60e51b815260206004820152601660248201527531b0b6319030b1b1903137b93937bbb99032b93937b960511b604482015290519081900360640190fd5b614305600f5483613a7d565b606083018190528282600381111561431957fe5b600381111561432457fe5b905250600090508151600381111561433857fe5b14614385576040805162461bcd60e51b815260206004820152601860248201527731b0b631903a37ba30b6103137b93937bbb99032b93937b960411b604482015290519081900360640190fd5b6040808201516001600160a01b03861660009081526018602052918220908155600e546001909101556060820151600f556143c39084908490613851565b60408082015160608084015183516001600160a01b03808a1682528816602082015280850187905291820192909252608081019190915290517f10a0132d3bf8c82a7fb93a86160f3074ca5c3e5706fa2bcdf0e2b5fd495af09b9181900360a00190a150505050565b60008060008061443c8787613a15565b9092509050600082600381111561444f57fe5b146144605750915060009050614479565b61447261446c8261471f565b86613a7d565b9350935050505b935093915050565b600080614496670de0b6b3a7640000846137f4565b905060006144a587878761392f565b905060006144bf670de0b6b3a7640000612bb68486614544565b90506144e2670de0b6b3a7640000612bb6836144dc8c8c8c614966565b90614544565b98975050505050505050565b6000806144fd83600e54612e2f565b91509150915091565b6000806000806145168787613a7d565b9092509050600082600381111561452957fe5b1461453a5750915060009050614479565b61447281866139f2565b60008261455357506000610dd4565b8282028284828161456057fe5b04146137ed5760405162461bcd60e51b8152600401808060200182810382526021815260200180614dcc6021913960400191505060405180910390fd5b60008082116145f3576040805162461bcd60e51b815260206004820152601a60248201527f536166654d6174683a206469766973696f6e206279207a65726f000000000000604482015290519081900360640190fd5b8183816145fc57fe5b049392505050565b6000808361461757506000905080612ed9565b8383028385828161462457fe5b041461463857600260009250925050612ed9565b600092509050612ed9565b600080826146575750600190506000612ed9565b600083858161466257fe5b04915091509250929050565b6000614678614c2f565b60008061468d86670de0b6b3a7640000614604565b909250905060008260038111156146a057fe5b146146bf57506040805160208101909152600081529092509050612ed9565b6000806146cc8388614643565b909250905060008260038111156146df57fe5b146147025781604051806020016040528060008152509550955050505050612ed9565b604080516020810190915290815260009890975095505050505050565b51670de0b6b3a7640000900490565b6000806000806132fc8686614bd0565b600081156137ed576000846001600160a01b03166370a08231856040518263ffffffff1660e01b815260040180826001600160a01b0316815260200191505060206040518083038186803b15801561479557600080fd5b505afa1580156147a9573d6000803e3d6000fd5b505050506040513d60208110156147bf57600080fd5b5051604080516001600160a01b038781166024830152604480830188905283518084039091018152606490920183526020820180516001600160e01b031663a9059cbb60e01b1781529251825194955090891693919290918291908083835b6020831061483d5780518252601f19909201916020918201910161481e565b6001836020036101000a0380198251168184511680821785525050505050509050019150506000604051808303816000865af19150503d806000811461489f576040519150601f19603f3d011682016040523d82523d6000602084013e6148a4565b606091505b5050506000856001600160a01b03166370a08231866040518263ffffffff1660e01b815260040180826001600160a01b0316815260200191505060206040518083038186803b1580156148f657600080fd5b505afa15801561490a573d6000803e3d6000fd5b505050506040513d602081101561492057600080fd5b5051905081811161495d576040805162461bcd60e51b81526020600482015260026024820152612a2360f11b604482015290519081900360640190fd5b03949350505050565b600082614975575060006137ed565b6112ef61498c836149868787613b40565b906137f4565b612bb685670de0b6b3a7640000614544565b600081156112ef576000856001600160a01b03166370a08231856040518263ffffffff1660e01b815260040180826001600160a01b0316815260200191505060206040518083038186803b1580156149f557600080fd5b505afa158015614a09573d6000803e3d6000fd5b505050506040513d6020811015614a1f57600080fd5b5051604080516001600160a01b0388811660248301528781166044830152606480830188905283518084039091018152608490920183526020820180516001600160e01b03166323b872dd60e01b17815292518251949550908a1693919290918291908083835b60208310614aa55780518252601f199092019160209182019101614a86565b6001836020036101000a0380198251168184511680821785525050505050509050019150506000604051808303816000865af19150503d8060008114614b07576040519150601f19603f3d011682016040523d82523d6000602084013e614b0c565b606091505b5050506000866001600160a01b03166370a08231866040518263ffffffff1660e01b815260040180826001600160a01b0316815260200191505060206040518083038186803b158015614b5e57600080fd5b505afa158015614b72573d6000803e3d6000fd5b505050506040513d6020811015614b8857600080fd5b50519050818111614bc6576040805162461bcd60e51b81526020600482015260036024820152622a232360e91b604482015290519081900360640190fd5b0395945050505050565b6000614bda614c2f565b600080614bef670de0b6b3a764000087614604565b90925090506000826003811115614c0257fe5b14614c2157506040805160208101909152600081529092509050612ed9565b61332b81866000015161466e565b6040518060200160405280600081525090565b828054600181600116156101000203166002900490600052602060002090601f016020900481019282614c785760008555614cbe565b82601f10614c9157805160ff1916838001178555614cbe565b82800160010185558215614cbe579182015b82811115614cbe578251825591602001919060010190614ca3565b50614cca929150614d74565b5090565b6040805161010081019091528060008152602001600081526020016000815260200160008152602001600081526020016000815260200160008152602001600081525090565b6040805160c08101909152806000815260200160008152602001600081526020016000815260200160008152602001600081525090565b604080516080810190915280600081526020016000815260200160008152602001600081525090565b5b80821115614cca5760008155600101614d7556fe5265656e7472616e637947756172643a207265656e7472616e742063616c6c006f6e6c792070656e64696e6741646d696e2063616e206163636570742061646d696e536166654d6174683a206d756c7469706c69636174696f6e206f766572666c6f77ddf252ad1be2c89b69c2b068fc378daa952ba7f163c4a11628f55a4df523b3ef496e697469616c2045786368616e67652052617465204d616e74697373612073686f756c642062652067726561746572207a65726fa2646970667358221220ff3741bd568f565f919e35543e6af2999fe005804331100246fdbccab6aa245b64736f6c63430007060033",
  "immutableReferences": {},
  "source": "// SPDX-License-Identifier: BUSL-1.1\npragma solidity 0.7.6;\n\n\nimport \"./LPoolInterface.sol\";\nimport \"./LPoolDepositor.sol\";\nimport \"../lib/Exponential.sol\";\nimport \"../Adminable.sol\";\nimport \"../lib/CarefulMath.sol\";\nimport \"../lib/TransferHelper.sol\";\nimport \"@openzeppelin/contracts/utils/ReentrancyGuard.sol\";\n\nimport \"../DelegateInterface.sol\";\nimport \"../ControllerInterface.sol\";\nimport \"../IWETH.sol\";\n\n/// @title OpenLeverage's LToken Contract\n/// @dev Abstract base for LTokens\n/// @author OpenLeverage\ncontract LPool is DelegateInterface, Adminable, LPoolInterface, Exponential, ReentrancyGuard {\n    using TransferHelper for IERC20;\n    using SafeMath for uint;\n\n    constructor() {\n\n    }\n    \n    /// @notice Initialize the money market\n    /// @param controller_ The address of the Controller\n    /// @param baseRatePerBlock_ The base interest rate which is the y-intercept when utilization rate is 0\n    /// @param multiplierPerBlock_ The multiplier of utilization rate that gives the slope of the interest rate\n    /// @param jumpMultiplierPerBlock_ The multiplierPerBlock after hitting a specified utilization point\n    /// @param kink_ The utilization point at which the jump multiplier is applied\n    /// @param initialExchangeRateMantissa_ The initial exchange rate, scaled by 1e18\n    /// @param name_ EIP-20 name of this token\n    /// @param symbol_ EIP-20 symbol of this token\n    /// @param decimals_ EIP-20 decimal precision of this token\n    function initialize(\n        address underlying_,\n        bool isWethPool_,\n        address controller_,\n        uint256 baseRatePerBlock_,\n        uint256 multiplierPerBlock_,\n        uint256 jumpMultiplierPerBlock_,\n        uint256 kink_,\n        uint initialExchangeRateMantissa_,\n        string memory name_,\n        string memory symbol_,\n        uint8 decimals_) public {\n        require(underlying_ != address(0), \"underlying_ address cannot be 0\");\n        require(controller_ != address(0), \"controller_ address cannot be 0\");\n        require(msg.sender == admin, \"Only allow to be called by admin\");\n        require(accrualBlockNumber == 0 && borrowIndex == 0, \"inited once\");\n\n        // Set initial exchange rate\n        initialExchangeRateMantissa = initialExchangeRateMantissa_;\n        require(initialExchangeRateMantissa > 0, \"Initial Exchange Rate Mantissa should be greater zero\");\n        //set controller\n        controller = controller_;\n        isWethPool = isWethPool_;\n        //set interestRateModel\n        baseRatePerBlock = baseRatePerBlock_;\n        multiplierPerBlock = multiplierPerBlock_;\n        jumpMultiplierPerBlock = jumpMultiplierPerBlock_;\n        kink = kink_;\n\n        // Initialize block number and borrow index (block number mocks depend on controller being set)\n        accrualBlockNumber = getBlockNumber();\n        borrowIndex = 1e25;\n        //80%\n        borrowCapFactorMantissa = 0.8e18;\n        //10%\n        reserveFactorMantissa = 0.1e18;\n\n\n        name = name_;\n        symbol = symbol_;\n        decimals = decimals_;\n\n        _notEntered = true;\n\n        // Set underlying and sanity check it\n        underlying = underlying_;\n        IERC20(underlying).totalSupply();\n        emit Transfer(address(0), msg.sender, 0);\n    }\n\n    /// @notice Transfer `tokens` tokens from `src` to `dst` by `spender`\n    /// @dev Called by both `transfer` and `transferFrom` internally\n    /// @param spender The address of the account performing the transfer\n    /// @param src The address of the source account\n    /// @param dst The address of the destination account\n    /// @param tokens The number of tokens to transfer\n    /// @return Whether or not the transfer succeeded\n    function transferTokens(address spender, address src, address dst, uint tokens) internal returns (bool) {\n        require(dst != address(0), \"dst address cannot be 0\");\n        /* Do not allow self-transfers */\n        require(src != dst, \"src = dst\");\n        /* Fail if transfer not allowed */\n        (ControllerInterface(controller)).transferAllowed(src, dst, tokens);\n\n        /* Get the allowance, infinite for the account owner */\n        uint startingAllowance = 0;\n        if (spender == src) {\n            startingAllowance = uint(- 1);\n        } else {\n            startingAllowance = transferAllowances[src][spender];\n        }\n\n        /* Do the calculations, checking for {under,over}flow */\n        MathError mathErr;\n        uint allowanceNew;\n        uint srcTokensNew;\n        uint dstTokensNew;\n\n        (mathErr, allowanceNew) = subUInt(startingAllowance, tokens);\n        require(mathErr == MathError.NO_ERROR, 'not allowed');\n\n        (mathErr, srcTokensNew) = subUInt(accountTokens[src], tokens);\n        require(mathErr == MathError.NO_ERROR, 'not enough');\n\n        (mathErr, dstTokensNew) = addUInt(accountTokens[dst], tokens);\n        require(mathErr == MathError.NO_ERROR, 'too much');\n\n        accountTokens[src] = srcTokensNew;\n        accountTokens[dst] = dstTokensNew;\n\n        /* Eat some of the allowance (if necessary) */\n        if (startingAllowance != uint(- 1)) {\n            transferAllowances[src][spender] = allowanceNew;\n        }\n        /* We emit a Transfer event */\n        emit Transfer(src, dst, tokens);\n        return true;\n    }\n\n    /// @notice Transfer `amount` tokens from `msg.sender` to `dst`\n    /// @param dst The address of the destination account\n    /// @param amount The number of tokens to transfer\n    /// @return Whether or not the transfer succeeded\n    function transfer(address dst, uint256 amount) external override nonReentrant returns (bool) {\n        return transferTokens(msg.sender, msg.sender, dst, amount);\n    }\n\n    /// @notice Transfer `amount` tokens from `src` to `dst`\n    /// @param src The address of the source account\n    /// @param dst The address of the destination account\n    /// @param amount The number of tokens to transfer\n    /// @return Whether or not the transfer succeeded\n    function transferFrom(address src, address dst, uint256 amount) external override nonReentrant returns (bool) {\n        return transferTokens(msg.sender, src, dst, amount);\n    }\n\n    /// @notice Approve `spender` to transfer up to `amount` from `src`\n    /// @dev This will overwrite the approval amount for `spender`\n    ///  and is subject to issues noted [here](https://eips.ethereum.org/EIPS/eip-20#approve)\n    /// @param spender The address of the account which may transfer tokens\n    /// @param amount The number of tokens that are approved (-1 means infinite)\n    /// @return Whether or not the approval succeeded\n    function approve(address spender, uint256 amount) external override returns (bool) {\n        address src = msg.sender;\n        transferAllowances[src][spender] = amount;\n        emit Approval(src, spender, amount);\n        return true;\n    }\n\n    /// @notice Get the current allowance from `owner` for `spender`\n    /// @param owner The address of the account which owns the tokens to be spent\n    /// @param spender The address of the account which may transfer tokens\n    /// @return The number of tokens allowed to be spent (-1 means infinite)\n    function allowance(address owner, address spender) external override view returns (uint256) {\n        return transferAllowances[owner][spender];\n    }\n\n    /// @notice Get the token balance of the `owner`\n    /// @param owner The address of the account to query\n    /// @return The number of tokens owned by `owner`\n    function balanceOf(address owner) external override view returns (uint256) {\n        return accountTokens[owner];\n    }\n\n    /// @notice Get the underlying balance of the `owner`\n    /// @dev This also accrues interest in a transaction\n    /// @param owner The address of the account to query\n    /// @return The amount of underlying owned by `owner`\n    function balanceOfUnderlying(address owner) external override returns (uint) {\n        Exp memory exchangeRate = Exp({mantissa : exchangeRateCurrent()});\n        (MathError mErr, uint balance) = mulScalarTruncate(exchangeRate, accountTokens[owner]);\n        require(mErr == MathError.NO_ERROR, \"calc failed\");\n        return balance;\n    }\n\n    /*** User Interface ***/\n\n    /// @notice Sender supplies assets into the market and receives lTokens in exchange\n    /// @dev Accrues interest whether or not the operation succeeds, unless reverted\n    /// @param mintAmount The amount of the underlying asset to supply\n    function mint(uint mintAmount) external override nonReentrant {\n        accrueInterest();\n        mintFresh(msg.sender, mintAmount, false);\n    }\n\n    function mintTo(address to, uint amount) external payable override nonReentrant {\n        accrueInterest();\n        if (isWethPool) {\n            mintFresh(to, msg.value, false);\n        } else {\n            mintFresh(to, amount, true);\n        }\n    }\n\n    function mintEth() external payable override nonReentrant {\n        require(isWethPool, \"not eth pool\");\n        accrueInterest();\n        mintFresh(msg.sender, msg.value, false);\n    }\n\n    /// @notice Sender redeems lTokens in exchange for the underlying asset\n    /// @dev Accrues interest whether or not the operation succeeds, unless reverted\n    /// @param redeemTokens The number of lTokens to redeem into underlying\n    function redeem(uint redeemTokens) external override nonReentrant {\n        accrueInterest();\n        // redeemFresh emits redeem-specific logs on errors, so we don't need to\n        redeemFresh(msg.sender, redeemTokens, 0);\n    }\n\n    /// @notice Sender redeems lTokens in exchange for a specified amount of underlying asset\n    /// @dev Accrues interest whether or not the operation succeeds, unless reverted\n    /// @param redeemAmount The amount of underlying to redeem\n    function redeemUnderlying(uint redeemAmount) external override nonReentrant {\n        accrueInterest();\n        // redeemFresh emits redeem-specific logs on errors, so we don't need to\n        redeemFresh(msg.sender, 0, redeemAmount);\n    }\n\n    function borrowBehalf(address borrower, uint borrowAmount) external override nonReentrant {\n        accrueInterest();\n        // borrowFresh emits borrow-specific logs on errors, so we don't need to\n        borrowFresh(payable(borrower), msg.sender, borrowAmount);\n    }\n\n    /// @notice Sender repays a borrow belonging to borrower\n    /// @param borrower the account with the debt being payed off\n    /// @param repayAmount The amount to repay\n    function repayBorrowBehalf(address borrower, uint repayAmount) external override nonReentrant {\n        accrueInterest();\n        // repayBorrowFresh emits repay-borrow-specific logs on errors, so we don't need to\n        repayBorrowFresh(msg.sender, borrower, repayAmount, false);\n    }\n\n    function repayBorrowEndByOpenLev(address borrower, uint repayAmount) external override nonReentrant {\n        accrueInterest();\n        repayBorrowFresh(msg.sender, borrower, repayAmount, true);\n    }\n\n\n    /*** Safe Token ***/\n\n    /// Gets balance of this contract in terms of the underlying\n    /// @dev This excludes the value of the current message, if any\n    /// @return The quantity of underlying tokens owned by this contract\n    function getCashPrior() internal view returns (uint) {\n        return IERC20(underlying).balanceOf(address(this));\n    }\n\n\n    /**\n     * @dev Similar to EIP20 transfer, except it handles a False result from `transferFrom` and reverts in that case.\n     *      This will revert due to insufficient balance or insufficient allowance.\n     *      This function returns the actual amount received,\n     *      which may be less than `amount` if there is a fee attached to the transfer.\n     *\n     *      Note: This wrapper safely handles non-standard ERC-20 tokens that do not return a value.\n     *            See here: https://medium.com/coinmonks/missing-return-value-bug-at-least-130-tokens-affected-d67bf08521ca\n     */\n    function doTransferIn(address from, uint amount, bool convertWeth) internal returns (uint actualAmount) {\n        if (isWethPool && convertWeth) {\n            actualAmount = msg.value;\n            IWETH(underlying).deposit{value : actualAmount}();\n        } else {\n            actualAmount = IERC20(underlying).safeTransferFrom(from, address(this), amount);\n        }\n    }\n\n    /**\n     * @dev Similar to EIP20 transfer, except it handles a False success from `transfer` and returns an explanatory\n     *      error code rather than reverting. If caller has not called checked protocol's balance, this may revert due to\n     *      insufficient cash held in this contract. If caller has checked protocol's balance prior to this call, and verified\n     *      it is >= amount, this should not revert in normal conditions.\n     *\n     *      Note: This wrapper safely handles non-standard ERC-20 tokens that do not return a value.\n     *            See here: https://medium.com/coinmonks/missing-return-value-bug-at-least-130-tokens-affected-d67bf08521ca\n     */\n    function doTransferOut(address payable to, uint amount, bool convertWeth) internal {\n        if (isWethPool && convertWeth) {\n            IWETH(underlying).withdraw(amount);\n            to.transfer(amount);\n        } else {\n            IERC20(underlying).safeTransfer(to, amount);\n        }\n    }\n\n    function availableForBorrow() external view override returns (uint){\n        uint cash = getCashPrior();\n        (MathError err0, uint sum) = addThenSubUInt(cash, totalBorrows, totalReserves);\n        if (err0 != MathError.NO_ERROR) {\n            return 0;\n        }\n        (MathError err1, uint maxAvailable) = mulScalarTruncate(Exp({mantissa : sum}), borrowCapFactorMantissa);\n        if (err1 != MathError.NO_ERROR) {\n            return 0;\n        }\n        if (totalBorrows > maxAvailable) {\n            return 0;\n        }\n        return maxAvailable - totalBorrows;\n    }\n\n\n    /// @notice Get a snapshot of the account's balances, and the cached exchange rate\n    /// @dev This is used by controller to more efficiently perform liquidity checks.\n    /// @param account Address of the account to snapshot\n    /// @return ( token balance, borrow balance, exchange rate mantissa)\n    function getAccountSnapshot(address account) external override view returns (uint, uint, uint) {\n        uint cTokenBalance = accountTokens[account];\n        uint borrowBalance;\n        uint exchangeRateMantissa;\n\n        MathError mErr;\n\n        (mErr, borrowBalance) = borrowBalanceStoredInternal(account);\n        if (mErr != MathError.NO_ERROR) {\n            return (0, 0, 0);\n        }\n\n        (mErr, exchangeRateMantissa) = exchangeRateStoredInternal();\n        if (mErr != MathError.NO_ERROR) {\n            return (0, 0, 0);\n        }\n\n        return (cTokenBalance, borrowBalance, exchangeRateMantissa);\n    }\n\n    /// @dev Function to simply retrieve block number\n    ///  This exists mainly for inheriting test contracts to stub this result.\n    function getBlockNumber() internal view returns (uint) {\n        return block.number;\n    }\n\n    /// @notice Returns the current per-block borrow interest rate for this cToken\n    /// @return The borrow interest rate per block, scaled by 1e18\n    function borrowRatePerBlock() external override view returns (uint) {\n        return getBorrowRateInternal(getCashPrior(), totalBorrows, totalReserves);\n    }\n\n    \n    /// @notice Returns the current per-block supply interest rate for this cToken\n    /// @return The supply interest rate per block, scaled by 1e18\n    function supplyRatePerBlock() external override view returns (uint) {\n        return getSupplyRateInternal(getCashPrior(), totalBorrows, totalReserves, reserveFactorMantissa);\n    }\n\n    function utilizationRate(uint cash, uint borrows, uint reserves) internal pure returns (uint) {\n        // Utilization rate is 0 when there are no borrows\n        if (borrows == 0) {\n            return 0;\n        }\n        return borrows.mul(1e18).div(cash.add(borrows).sub(reserves));\n    }\n\n    /// @notice Calculates the current borrow rate per block, with the error code expected by the market\n    /// @param cash The amount of cash in the market\n    /// @param borrows The amount of borrows in the market\n    /// @return The borrow rate percentage per block as a mantissa (scaled by 1e18)\n    function getBorrowRateInternal(uint cash, uint borrows, uint reserves) internal view returns (uint) {\n        uint util = utilizationRate(cash, borrows, reserves);\n        if (util <= kink) {\n            return util.mul(multiplierPerBlock).div(1e18).add(baseRatePerBlock);\n        } else {\n            uint normalRate = kink.mul(multiplierPerBlock).div(1e18).add(baseRatePerBlock);\n            uint excessUtil = util.sub(kink);\n            return excessUtil.mul(jumpMultiplierPerBlock).div(1e18).add(normalRate);\n        }\n    }\n\n    /// @notice Calculates the current supply rate per block\n    /// @param cash The amount of cash in the market\n    /// @param borrows The amount of borrows in the market\n    /// @return The supply rate percentage per block as a mantissa (scaled by 1e18)\n    function getSupplyRateInternal(uint cash, uint borrows, uint reserves, uint reserveFactor) internal view returns (uint) {\n        uint oneMinusReserveFactor = uint(1e18).sub(reserveFactor);\n        uint borrowRate = getBorrowRateInternal(cash, borrows, reserves);\n        uint rateToPool = borrowRate.mul(oneMinusReserveFactor).div(1e18);\n        return utilizationRate(cash, borrows, reserves).mul(rateToPool).div(1e18);\n    }\n\n    /// @notice Returns the current total borrows plus accrued interest\n    /// @return The total borrows with interest\n    function totalBorrowsCurrent() external override view returns (uint) {\n        /* Remember the initial block number */\n        uint currentBlockNumber = getBlockNumber();\n        uint accrualBlockNumberPrior = accrualBlockNumber;\n\n        /* Short-circuit accumulating 0 interest */\n        if (accrualBlockNumberPrior == currentBlockNumber) {\n            return totalBorrows;\n        }\n\n        /* Read the previous values out of storage */\n        uint cashPrior = getCashPrior();\n        uint borrowsPrior = totalBorrows;\n        uint reservesPrior = totalReserves;\n\n        /* Calculate the current borrow interest rate */\n        uint borrowRateMantissa = getBorrowRateInternal(cashPrior, borrowsPrior, reservesPrior);\n        require(borrowRateMantissa <= borrowRateMaxMantissa, \"borrower rate higher\");\n\n        /* Calculate the number of blocks elapsed since the last accrual */\n        (MathError mathErr, uint blockDelta) = subUInt(currentBlockNumber, accrualBlockNumberPrior);\n        require(mathErr == MathError.NO_ERROR, \"calc block delta erro\");\n\n        Exp memory simpleInterestFactor;\n        uint interestAccumulated;\n        uint totalBorrowsNew;\n\n        (mathErr, simpleInterestFactor) = mulScalar(Exp({mantissa : borrowRateMantissa}), blockDelta);\n        require(mathErr == MathError.NO_ERROR, 'calc interest factor error');\n\n        (mathErr, interestAccumulated) = mulScalarTruncate(simpleInterestFactor, borrowsPrior);\n        require(mathErr == MathError.NO_ERROR, 'calc interest acc error');\n\n        (mathErr, totalBorrowsNew) = addUInt(interestAccumulated, borrowsPrior);\n        require(mathErr == MathError.NO_ERROR, 'calc total borrows error');\n\n        return totalBorrowsNew;\n    }\n\n    /// @notice Accrue interest to updated borrowIndex and then calculate account's borrow balance using the updated borrowIndex\n    /// @param account The address whose balance should be calculated after updating borrowIndex\n    /// @return The calculated balance\n    function borrowBalanceCurrent(address account) external view override returns (uint) {\n        (MathError err0, uint borrowIndex) = calCurrentBorrowIndex();\n        require(err0 == MathError.NO_ERROR, \"calc borrow index fail\");\n        (MathError err1, uint result) = borrowBalanceStoredInternalWithBorrowerIndex(account, borrowIndex);\n        require(err1 == MathError.NO_ERROR, \"calc fail\");\n        return result;\n    }\n\n    function borrowBalanceStored(address account) external override view returns (uint){\n        return accountBorrows[account].principal;\n    }\n\n\n    /// @notice Return the borrow balance of account based on stored data\n    /// @param account The address whose balance should be calculated\n    /// @return (error code, the calculated balance or 0 if error code is non-zero)\n    function borrowBalanceStoredInternal(address account) internal view returns (MathError, uint) {\n        return borrowBalanceStoredInternalWithBorrowerIndex(account, borrowIndex);\n    }\n\n    /// @notice Return the borrow balance of account based on stored data\n    /// @param account The address whose balance should be calculated\n    /// @return (error code, the calculated balance or 0 if error code is non-zero)\n    function borrowBalanceStoredInternalWithBorrowerIndex(address account, uint borrowIndex) internal view returns (MathError, uint) {\n        /* Note: we do not assert that the market is up to date */\n        MathError mathErr;\n        uint principalTimesIndex;\n        uint result;\n\n        /* Get borrowBalance and borrowIndex */\n        BorrowSnapshot storage borrowSnapshot = accountBorrows[account];\n\n        /* If borrowBalance = 0 then borrowIndex is likely also 0.\n         * Rather than failing the calculation with a division by 0, we immediately return 0 in this case.\n         */\n        if (borrowSnapshot.principal == 0) {\n            return (MathError.NO_ERROR, 0);\n        }\n\n        /* Calculate new borrow balance using the interest index:\n         *  recentBorrowBalance = borrower.borrowBalance * market.borrowIndex / borrower.borrowIndex\n         */\n        (mathErr, principalTimesIndex) = mulUInt(borrowSnapshot.principal, borrowIndex);\n        if (mathErr != MathError.NO_ERROR) {\n            return (mathErr, 0);\n        }\n\n        (mathErr, result) = divUInt(principalTimesIndex, borrowSnapshot.interestIndex);\n        if (mathErr != MathError.NO_ERROR) {\n            return (mathErr, 0);\n        }\n\n        return (MathError.NO_ERROR, result);\n    }\n\n    /// @notice Accrue interest then return the up-to-date exchange rate\n    /// @return Calculated exchange rate scaled by 1e18\n    function exchangeRateCurrent() public override nonReentrant returns (uint) {\n        accrueInterest();\n        return exchangeRateStored();\n    }\n\n    /// Calculates the exchange rate from the underlying to the LToken\n    /// @dev This function does not accrue interest before calculating the exchange rate\n    /// @return Calculated exchange rate scaled by 1e18\n    function exchangeRateStored() public override view returns (uint) {\n        (MathError err, uint result) = exchangeRateStoredInternal();\n        require(err == MathError.NO_ERROR, \"calc fail\");\n        return result;\n    }\n\n    /// @notice Calculates the exchange rate from the underlying to the LToken\n    /// @dev This function does not accrue interest before calculating the exchange rate\n    /// @return (error code, calculated exchange rate scaled by 1e18)\n    function exchangeRateStoredInternal() internal view returns (MathError, uint) {\n        uint _totalSupply = totalSupply;\n        if (_totalSupply == 0) {\n            /*\n             * If there are no tokens minted:\n             *  exchangeRate = initialExchangeRate\n             */\n            return (MathError.NO_ERROR, initialExchangeRateMantissa);\n        } else {\n            /*\n             * Otherwise:\n             *  exchangeRate = (totalCash + totalBorrows - totalReserves) / totalSupply\n             */\n            uint _totalCash = getCashPrior();\n            uint cashPlusBorrowsMinusReserves;\n            Exp memory exchangeRate;\n            MathError mathErr;\n\n            (mathErr, cashPlusBorrowsMinusReserves) = addThenSubUInt(_totalCash, totalBorrows, totalReserves);\n            if (mathErr != MathError.NO_ERROR) {\n                return (mathErr, 0);\n            }\n\n            (mathErr, exchangeRate) = getExp(cashPlusBorrowsMinusReserves, _totalSupply);\n            if (mathErr != MathError.NO_ERROR) {\n                return (mathErr, 0);\n            }\n\n            return (MathError.NO_ERROR, exchangeRate.mantissa);\n        }\n    }\n\n    /// @notice Get cash balance of this cToken in the underlying asset\n    /// @return The quantity of underlying asset owned by this contract\n    function getCash() external override view returns (uint) {\n        return IERC20(underlying).balanceOf(address(this));\n    }\n\n    function calCurrentBorrowIndex() internal view returns (MathError, uint) {\n        /* Remember the initial block number */\n        uint currentBlockNumber = getBlockNumber();\n        uint accrualBlockNumberPrior = accrualBlockNumber;\n        uint borrowIndexNew;\n        /* Short-circuit accumulating 0 interest */\n        if (accrualBlockNumberPrior == currentBlockNumber) {\n            return (MathError.NO_ERROR, borrowIndex);\n        }\n        uint borrowRateMantissa = getBorrowRateInternal(getCashPrior(), totalBorrows, totalReserves);\n        (MathError mathErr, uint blockDelta) = subUInt(currentBlockNumber, accrualBlockNumberPrior);\n\n        Exp memory simpleInterestFactor;\n        (mathErr, simpleInterestFactor) = mulScalar(Exp({mantissa : borrowRateMantissa}), blockDelta);\n        if (mathErr != MathError.NO_ERROR) {\n            return (mathErr, 0);\n        }\n        (mathErr, borrowIndexNew) = mulScalarTruncateAddUInt(simpleInterestFactor, borrowIndex, borrowIndex);\n        return (mathErr, borrowIndexNew);\n    }\n\n    /// @notice Applies accrued interest to total borrows and reserves\n    /// @dev This calculates interest accrued from the last checkpointed block\n    ///   up to the current block and writes new checkpoint to storage.\n    function accrueInterest() public override {\n        /* Remember the initial block number */\n        uint currentBlockNumber = getBlockNumber();\n        uint accrualBlockNumberPrior = accrualBlockNumber;\n\n        /* Short-circuit accumulating 0 interest */\n        if (accrualBlockNumberPrior == currentBlockNumber) {\n            return;\n        }\n\n        /* Read the previous values out of storage */\n        uint cashPrior = getCashPrior();\n        uint borrowsPrior = totalBorrows;\n        uint borrowIndexPrior = borrowIndex;\n        uint reservesPrior = totalReserves;\n\n        /* Calculate the current borrow interest rate */\n        uint borrowRateMantissa = getBorrowRateInternal(cashPrior, borrowsPrior, reservesPrior);\n        require(borrowRateMantissa <= borrowRateMaxMantissa, \"borrower rate higher\");\n\n        /* Calculate the number of blocks elapsed since the last accrual */\n        (MathError mathErr, uint blockDelta) = subUInt(currentBlockNumber, accrualBlockNumberPrior);\n        require(mathErr == MathError.NO_ERROR, \"calc block delta erro\");\n\n\n        /*\n         * Calculate the interest accumulated into borrows and reserves and the new index:\n         *  simpleInterestFactor = borrowRate * blockDelta\n         *  interestAccumulated = simpleInterestFactor * totalBorrows\n         *  totalBorrowsNew = interestAccumulated + totalBorrows\n         *  borrowIndexNew = simpleInterestFactor * borrowIndex + borrowIndex\n         */\n\n        Exp memory simpleInterestFactor;\n        uint interestAccumulated;\n        uint totalBorrowsNew;\n        uint borrowIndexNew;\n        uint totalReservesNew;\n\n        (mathErr, simpleInterestFactor) = mulScalar(Exp({mantissa : borrowRateMantissa}), blockDelta);\n        require(mathErr == MathError.NO_ERROR, 'calc interest factor error');\n\n        (mathErr, interestAccumulated) = mulScalarTruncate(simpleInterestFactor, borrowsPrior);\n        require(mathErr == MathError.NO_ERROR, 'calc interest acc error');\n\n        (mathErr, totalBorrowsNew) = addUInt(interestAccumulated, borrowsPrior);\n        require(mathErr == MathError.NO_ERROR, 'calc total borrows error');\n\n        (mathErr, totalReservesNew) = mulScalarTruncateAddUInt(Exp({mantissa : reserveFactorMantissa}), interestAccumulated, reservesPrior);\n        require(mathErr == MathError.NO_ERROR, 'calc total reserves error');\n\n        (mathErr, borrowIndexNew) = mulScalarTruncateAddUInt(simpleInterestFactor, borrowIndexPrior, borrowIndexPrior);\n        require(mathErr == MathError.NO_ERROR, 'calc borrows index error');\n\n\n        /* We write the previously calculated values into storage */\n        accrualBlockNumber = currentBlockNumber;\n        borrowIndex = borrowIndexNew;\n        totalBorrows = totalBorrowsNew;\n        totalReserves = totalReservesNew;\n\n        /* We emit an AccrueInterest event */\n        emit AccrueInterest(cashPrior, interestAccumulated, borrowIndexNew, totalBorrowsNew);\n\n    }\n\n    struct MintLocalVars {\n        MathError mathErr;\n        uint exchangeRateMantissa;\n        uint mintTokens;\n        uint totalSupplyNew;\n        uint accountTokensNew;\n        uint actualMintAmount;\n    }\n\n    /// @notice User supplies assets into the market and receives lTokens in exchange\n    /// @dev Assumes interest has already been accrued up to the current block\n    /// @param minter The address of the account which is supplying the assets\n    /// @param mintAmount The amount of the underlying asset to supply\n    /// @return uint the actual mint amount.\n    function mintFresh(address minter, uint mintAmount, bool isDelegete) internal sameBlock returns (uint) {\n        MintLocalVars memory vars;\n        (vars.mathErr, vars.exchangeRateMantissa) = exchangeRateStoredInternal();\n        require(vars.mathErr == MathError.NO_ERROR, 'calc exchangerate error');\n\n        /*\n         *  We call `doTransferIn` for the minter and the mintAmount.\n         *  Note: The cToken must handle variations between ERC-20 and ETH underlying.\n         *  `doTransferIn` reverts if anything goes wrong, since we can't be sure if\n         *  side-effects occurred. The function returns the amount actually transferred,\n         *  in case of a fee. On success, the cToken holds an additional `actualMintAmount`\n         *  of cash.\n         */\n        if (isDelegete) {\n            uint balanceBefore = getCashPrior();\n            LPoolDepositor(msg.sender).transferToPool(minter, mintAmount);\n            uint balanceAfter = getCashPrior();\n            require(balanceAfter > balanceBefore, 'mint 0');\n            vars.actualMintAmount = balanceAfter - balanceBefore;\n        } else {\n            vars.actualMintAmount = doTransferIn(minter, mintAmount, true);\n        }\n        /*\n         * We get the current exchange rate and calculate the number of lTokens to be minted:\n         *  mintTokens = actualMintAmount / exchangeRate\n         */\n\n        (vars.mathErr, vars.mintTokens) = divScalarByExpTruncate(vars.actualMintAmount, Exp({mantissa : vars.exchangeRateMantissa}));\n        require(vars.mathErr == MathError.NO_ERROR, \"calc mint token error\");\n\n        /* Fail if mint not allowed */\n        (ControllerInterface(controller)).mintAllowed(minter, vars.mintTokens);\n        /*\n         * We calculate the new total supply of lTokens and minter token balance, checking for overflow:\n         *  totalSupplyNew = totalSupply + mintTokens\n         *  accountTokensNew = accountTokens[minter] + mintTokens\n         */\n        (vars.mathErr, vars.totalSupplyNew) = addUInt(totalSupply, vars.mintTokens);\n        require(vars.mathErr == MathError.NO_ERROR, \"calc supply new failed\");\n\n        (vars.mathErr, vars.accountTokensNew) = addUInt(accountTokens[minter], vars.mintTokens);\n        require(vars.mathErr == MathError.NO_ERROR, \"calc tokens new ailed\");\n\n        /* We write previously calculated values into storage */\n        totalSupply = vars.totalSupplyNew;\n        accountTokens[minter] = vars.accountTokensNew;\n\n        /* We emit a Mint event, and a Transfer event */\n        emit Mint(minter, vars.actualMintAmount, vars.mintTokens);\n        emit Transfer(address(this), minter, vars.mintTokens);\n\n        /* We call the defense hook */\n\n        return vars.actualMintAmount;\n    }\n\n\n    struct RedeemLocalVars {\n        MathError mathErr;\n        uint exchangeRateMantissa;\n        uint redeemTokens;\n        uint redeemAmount;\n        uint totalSupplyNew;\n        uint accountTokensNew;\n    }\n\n    /// @notice User redeems lTokens in exchange for the underlying asset\n    /// @dev Assumes interest has already been accrued up to the current block\n    /// @param redeemer The address of the account which is redeeming the tokens\n    /// @param redeemTokensIn The number of lTokens to redeem into underlying (only one of redeemTokensIn or redeemAmountIn may be non-zero)\n    /// @param redeemAmountIn The number of underlying tokens to receive from redeeming lTokens (only one of redeemTokensIn or redeemAmountIn may be non-zero)\n    function redeemFresh(address payable redeemer, uint redeemTokensIn, uint redeemAmountIn) internal sameBlock {\n        require(redeemTokensIn == 0 || redeemAmountIn == 0, \"one be zero\");\n\n        RedeemLocalVars memory vars;\n\n        /* exchangeRate = invoke Exchange Rate Stored() */\n        (vars.mathErr, vars.exchangeRateMantissa) = exchangeRateStoredInternal();\n        require(vars.mathErr == MathError.NO_ERROR, 'calc exchangerate error');\n\n        /* If redeemTokensIn > 0: */\n        if (redeemTokensIn > 0) {\n            /*\n             * We calculate the exchange rate and the amount of underlying to be redeemed:\n             *  redeemTokens = redeemTokensIn\n             *  redeemAmount = redeemTokensIn x exchangeRateCurrent\n             */\n            vars.redeemTokens = redeemTokensIn;\n\n            (vars.mathErr, vars.redeemAmount) = mulScalarTruncate(Exp({mantissa : vars.exchangeRateMantissa}), redeemTokensIn);\n            require(vars.mathErr == MathError.NO_ERROR, 'calc redeem amount error');\n        } else {\n            /*\n             * We get the current exchange rate and calculate the amount to be redeemed:\n             *  redeemTokens = redeemAmountIn / exchangeRate\n             *  redeemAmount = redeemAmountIn\n             */\n\n            (vars.mathErr, vars.redeemTokens) = divScalarByExpTruncate(redeemAmountIn, Exp({mantissa : vars.exchangeRateMantissa}));\n            require(vars.mathErr == MathError.NO_ERROR, 'calc redeem tokens error');\n            vars.redeemAmount = redeemAmountIn;\n        }\n\n        /* Fail if redeem not allowed */\n        (ControllerInterface(controller)).redeemAllowed(redeemer, vars.redeemTokens);\n\n        /*\n         * We calculate the new total supply and redeemer balance, checking for underflow:\n         *  totalSupplyNew = totalSupply - redeemTokens\n         *  accountTokensNew = accountTokens[redeemer] - redeemTokens\n         */\n        (vars.mathErr, vars.totalSupplyNew) = subUInt(totalSupply, vars.redeemTokens);\n        require(vars.mathErr == MathError.NO_ERROR, 'calc supply new error');\n\n        (vars.mathErr, vars.accountTokensNew) = subUInt(accountTokens[redeemer], vars.redeemTokens);\n        require(vars.mathErr == MathError.NO_ERROR, 'calc token new error');\n        require(getCashPrior() >= vars.redeemAmount, 'cash < redeem');\n\n        /* We write previously calculated values into storage */\n        totalSupply = vars.totalSupplyNew;\n        accountTokens[redeemer] = vars.accountTokensNew;\n        /*\n         * We invoke doTransferOut for the redeemer and the redeemAmount.\n         *  Note: The cToken must handle variations between ERC-20 and ETH underlying.\n         *  On success, the cToken has redeemAmount less of cash.\n         *  doTransferOut reverts if anything goes wrong, since we can't be sure if side effects occurred.\n         */\n        doTransferOut(redeemer, vars.redeemAmount, true);\n\n\n        /* We emit a Transfer event, and a Redeem event */\n        emit Transfer(redeemer, address(this), vars.redeemTokens);\n        emit Redeem(redeemer, vars.redeemAmount, vars.redeemTokens);\n\n        /* We call the defense hook */\n    }\n\n    struct BorrowLocalVars {\n        MathError mathErr;\n        uint accountBorrows;\n        uint accountBorrowsNew;\n        uint totalBorrowsNew;\n    }\n\n    /// @notice Users borrow assets from the protocol to their own address\n    /// @param borrowAmount The amount of the underlying asset to borrow\n    function borrowFresh(address payable borrower, address payable payee, uint borrowAmount) internal sameBlock {\n        /* Fail if borrow not allowed */\n        (ControllerInterface(controller)).borrowAllowed(borrower, payee, borrowAmount);\n\n        /* Fail gracefully if protocol has insufficient underlying cash */\n        require(getCashPrior() >= borrowAmount, 'cash<borrow');\n\n        BorrowLocalVars memory vars;\n\n        /*\n         * We calculate the new borrower and total borrow balances, failing on overflow:\n         *  accountBorrowsNew = accountBorrows + borrowAmount\n         *  totalBorrowsNew = totalBorrows + borrowAmount\n         */\n        (vars.mathErr, vars.accountBorrows) = borrowBalanceStoredInternal(borrower);\n        require(vars.mathErr == MathError.NO_ERROR, 'calc acc borrows error');\n\n        (vars.mathErr, vars.accountBorrowsNew) = addUInt(vars.accountBorrows, borrowAmount);\n        require(vars.mathErr == MathError.NO_ERROR, 'calc acc borrows error');\n\n        (vars.mathErr, vars.totalBorrowsNew) = addUInt(totalBorrows, borrowAmount);\n        require(vars.mathErr == MathError.NO_ERROR, 'calc total borrows error');\n\n        /* We write the previously calculated values into storage */\n        accountBorrows[borrower].principal = vars.accountBorrowsNew;\n        accountBorrows[borrower].interestIndex = borrowIndex;\n        totalBorrows = vars.totalBorrowsNew;\n\n        /*\n         * We invoke doTransferOut for the borrower and the borrowAmount.\n         *  Note: The cToken must handle variations between ERC-20 and ETH underlying.\n         *  On success, the cToken borrowAmount less of cash.\n         *  doTransferOut reverts if anything goes wrong, since we can't be sure if side effects occurred.\n         */\n        doTransferOut(payee, borrowAmount, false);\n\n        /* We emit a Borrow event */\n        emit Borrow(borrower, payee, borrowAmount, vars.accountBorrowsNew, vars.totalBorrowsNew);\n\n        /* We call the defense hook */\n    }\n\n    struct RepayBorrowLocalVars {\n        MathError mathErr;\n        uint repayAmount;\n        uint borrowerIndex;\n        uint accountBorrows;\n        uint accountBorrowsNew;\n        uint totalBorrowsNew;\n        uint actualRepayAmount;\n        uint badDebtsAmount;\n    }\n\n    /// @notice Borrows are repaid by another user (possibly the borrower).\n    /// @param payer the account paying off the borrow\n    /// @param borrower the account with the debt being payed off\n    /// @param repayAmount the amount of undelrying tokens being returned\n    function repayBorrowFresh(address payer, address borrower, uint repayAmount, bool isEnd) internal sameBlock returns (uint) {\n        /* Fail if repayBorrow not allowed */\n        (ControllerInterface(controller)).repayBorrowAllowed(payer, borrower, repayAmount, isEnd);\n\n        RepayBorrowLocalVars memory vars;\n\n        /* We remember the original borrowerIndex for verification purposes */\n        vars.borrowerIndex = accountBorrows[borrower].interestIndex;\n\n        /* We fetch the amount the borrower owes, with accumulated interest */\n        (vars.mathErr, vars.accountBorrows) = borrowBalanceStoredInternal(borrower);\n        require(vars.mathErr == MathError.NO_ERROR, 'calc acc borrow error');\n\n        /* If repayAmount == -1, repayAmount = accountBorrows */\n        if (repayAmount == uint(- 1)) {\n            vars.repayAmount = vars.accountBorrows;\n        } else {\n            vars.repayAmount = repayAmount;\n        }\n        vars.actualRepayAmount = doTransferIn(payer, vars.repayAmount, false);\n\n\n        if (isEnd && vars.accountBorrows > vars.actualRepayAmount) {\n            vars.badDebtsAmount = vars.accountBorrows - vars.actualRepayAmount;\n        }\n\n        /*\n        *  We calculate the new borrower and total borrow balances, failing on underflow:\n        *  accountBorrowsNew = accountBorrows - repayAmount\n        *  totalBorrowsNew = totalBorrows - repayAmount\n        */\n        if (vars.accountBorrows < vars.actualRepayAmount) {\n            require(vars.actualRepayAmount.mul(1e18).div(vars.accountBorrows) <= 105e16, 'repay more than 5%');\n            vars.accountBorrowsNew = 0;\n        } else {\n            if (isEnd) {\n                vars.accountBorrowsNew = 0;\n            } else {\n                vars.accountBorrowsNew = vars.accountBorrows - vars.actualRepayAmount;\n            }\n        }\n        //Avoid mantissa errors\n        if (vars.actualRepayAmount > totalBorrows) {\n            vars.totalBorrowsNew = 0;\n        } else {\n            if (isEnd) {\n                vars.totalBorrowsNew = totalBorrows.sub(vars.accountBorrows);\n            } else {\n                vars.totalBorrowsNew = totalBorrows - vars.actualRepayAmount;\n            }\n        }\n\n        /* We write the previously calculated values into storage */\n        accountBorrows[borrower].principal = vars.accountBorrowsNew;\n        accountBorrows[borrower].interestIndex = borrowIndex;\n        totalBorrows = vars.totalBorrowsNew;\n\n        /* We emit a RepayBorrow event */\n        emit RepayBorrow(payer, borrower, vars.actualRepayAmount, vars.badDebtsAmount, vars.accountBorrowsNew, vars.totalBorrowsNew);\n\n        /* We call the defense hook */\n\n        return vars.actualRepayAmount;\n    }\n\n    /*** Admin Functions ***/\n\n    /// @notice Sets a new CONTROLLER for the market\n    /// @dev Admin function to set a new controller\n    function setController(address newController) external override onlyAdmin {\n        require(address(0) != newController, \"0x\");\n        address oldController = controller;\n        controller = newController;\n        // Emit NewController(oldController, newController)\n        emit NewController(oldController, newController);\n    }\n\n    function setBorrowCapFactorMantissa(uint newBorrowCapFactorMantissa) external override onlyAdmin {\n        require(newBorrowCapFactorMantissa <= 1e18, 'Factor too large');\n        uint oldBorrowCapFactorMantissa = borrowCapFactorMantissa;\n        borrowCapFactorMantissa = newBorrowCapFactorMantissa;\n        emit NewBorrowCapFactorMantissa(oldBorrowCapFactorMantissa, borrowCapFactorMantissa);\n    }\n\n    function setInterestParams(uint baseRatePerBlock_, uint multiplierPerBlock_, uint jumpMultiplierPerBlock_, uint kink_) external override onlyAdmin {\n        //accrueInterest except first\n        if (baseRatePerBlock != 0) {\n            accrueInterest();\n        }\n        // total rate perYear < 2000%\n        require(baseRatePerBlock_ < 1e13, 'Base rate too large');\n        baseRatePerBlock = baseRatePerBlock_;\n        require(multiplierPerBlock_ < 1e13, 'Mul rate too large');\n        multiplierPerBlock = multiplierPerBlock_;\n        require(jumpMultiplierPerBlock_ < 1e13, 'Jump rate too large');\n        jumpMultiplierPerBlock = jumpMultiplierPerBlock_;\n        require(kink_ <= 1e18, 'Kline too large');\n        kink = kink_;\n        emit NewInterestParam(baseRatePerBlock_, multiplierPerBlock_, jumpMultiplierPerBlock_, kink_);\n    }\n\n    function setReserveFactor(uint newReserveFactorMantissa) external override onlyAdmin {\n        require(newReserveFactorMantissa <= 1e18, 'Factor too large');\n        accrueInterest();\n        uint oldReserveFactorMantissa = reserveFactorMantissa;\n        reserveFactorMantissa = newReserveFactorMantissa;\n        emit NewReserveFactor(oldReserveFactorMantissa, newReserveFactorMantissa);\n    }\n\n    function addReserves(uint addAmount) external override nonReentrant {\n        accrueInterest();\n        uint totalReservesNew;\n        uint actualAddAmount = doTransferIn(msg.sender, addAmount, true);\n        totalReservesNew = totalReserves.add(actualAddAmount);\n        totalReserves = totalReservesNew;\n        emit ReservesAdded(msg.sender, actualAddAmount, totalReservesNew);\n    }\n\n    function reduceReserves(address payable to, uint reduceAmount) external override nonReentrant onlyAdmin {\n        accrueInterest();\n        uint totalReservesNew;\n        totalReservesNew = totalReserves.sub(reduceAmount);\n        totalReserves = totalReservesNew;\n        doTransferOut(to, reduceAmount, true);\n        emit ReservesReduced(to, reduceAmount, totalReservesNew);\n    }\n\n    modifier sameBlock() {\n        require(accrualBlockNumber == getBlockNumber(), 'not same block');\n        _;\n    }\n}\n\n",
  "sourcePath": "/home/mingyue/Smartian/Web3Bugs/contracts/72/openleverage-contracts/contracts/liquidity/LPool.sol",
  "compiler": {
    "name": "solc",
    "version": "0.7.6+commit.7338295f.Emscripten.clang"
  },
  "schemaVersion": "3.4.16",
  "updatedAt": "2025-02-26T03:47:59.975Z",
  "devdoc": {
    "author": "OpenLeverage",
    "details": "Abstract base for LTokens",
    "kind": "dev",
    "methods": {
      "accrueInterest()": {
        "details": "This calculates interest accrued from the last checkpointed block   up to the current block and writes new checkpoint to storage."
      },
      "allowance(address,address)": {
        "params": {
          "owner": "The address of the account which owns the tokens to be spent",
          "spender": "The address of the account which may transfer tokens"
        },
        "returns": {
          "_0": "The number of tokens allowed to be spent (-1 means infinite)"
        }
      },
      "approve(address,uint256)": {
        "details": "This will overwrite the approval amount for `spender`  and is subject to issues noted [here](https://eips.ethereum.org/EIPS/eip-20#approve)",
        "params": {
          "amount": "The number of tokens that are approved (-1 means infinite)",
          "spender": "The address of the account which may transfer tokens"
        },
        "returns": {
          "_0": "Whether or not the approval succeeded"
        }
      },
      "balanceOf(address)": {
        "params": {
          "owner": "The address of the account to query"
        },
        "returns": {
          "_0": "The number of tokens owned by `owner`"
        }
      },
      "balanceOfUnderlying(address)": {
        "details": "This also accrues interest in a transaction",
        "params": {
          "owner": "The address of the account to query"
        },
        "returns": {
          "_0": "The amount of underlying owned by `owner`"
        }
      },
      "borrowBalanceCurrent(address)": {
        "params": {
          "account": "The address whose balance should be calculated after updating borrowIndex"
        },
        "returns": {
          "_0": "The calculated balance"
        }
      },
      "borrowRatePerBlock()": {
        "returns": {
          "_0": "The borrow interest rate per block, scaled by 1e18"
        }
      },
      "exchangeRateCurrent()": {
        "returns": {
          "_0": "Calculated exchange rate scaled by 1e18"
        }
      },
      "exchangeRateStored()": {
        "details": "This function does not accrue interest before calculating the exchange rate",
        "returns": {
          "_0": "Calculated exchange rate scaled by 1e18"
        }
      },
      "getAccountSnapshot(address)": {
        "details": "This is used by controller to more efficiently perform liquidity checks.",
        "params": {
          "account": "Address of the account to snapshot"
        },
        "returns": {
          "_0": "( token balance, borrow balance, exchange rate mantissa)"
        }
      },
      "getCash()": {
        "returns": {
          "_0": "The quantity of underlying asset owned by this contract"
        }
      },
      "initialize(address,bool,address,uint256,uint256,uint256,uint256,uint256,string,string,uint8)": {
        "params": {
          "baseRatePerBlock_": "The base interest rate which is the y-intercept when utilization rate is 0",
          "controller_": "The address of the Controller",
          "decimals_": "EIP-20 decimal precision of this token",
          "initialExchangeRateMantissa_": "The initial exchange rate, scaled by 1e18",
          "jumpMultiplierPerBlock_": "The multiplierPerBlock after hitting a specified utilization point",
          "kink_": "The utilization point at which the jump multiplier is applied",
          "multiplierPerBlock_": "The multiplier of utilization rate that gives the slope of the interest rate",
          "name_": "EIP-20 name of this token",
          "symbol_": "EIP-20 symbol of this token"
        }
      },
      "mint(uint256)": {
        "details": "Accrues interest whether or not the operation succeeds, unless reverted",
        "params": {
          "mintAmount": "The amount of the underlying asset to supply"
        }
      },
      "redeem(uint256)": {
        "details": "Accrues interest whether or not the operation succeeds, unless reverted",
        "params": {
          "redeemTokens": "The number of lTokens to redeem into underlying"
        }
      },
      "redeemUnderlying(uint256)": {
        "details": "Accrues interest whether or not the operation succeeds, unless reverted",
        "params": {
          "redeemAmount": "The amount of underlying to redeem"
        }
      },
      "repayBorrowBehalf(address,uint256)": {
        "params": {
          "borrower": "the account with the debt being payed off",
          "repayAmount": "The amount to repay"
        }
      },
      "setController(address)": {
        "details": "Admin function to set a new controller"
      },
      "supplyRatePerBlock()": {
        "returns": {
          "_0": "The supply interest rate per block, scaled by 1e18"
        }
      },
      "totalBorrowsCurrent()": {
        "returns": {
          "_0": "The total borrows with interest"
        }
      },
      "transfer(address,uint256)": {
        "params": {
          "amount": "The number of tokens to transfer",
          "dst": "The address of the destination account"
        },
        "returns": {
          "_0": "Whether or not the transfer succeeded"
        }
      },
      "transferFrom(address,address,uint256)": {
        "params": {
          "amount": "The number of tokens to transfer",
          "dst": "The address of the destination account",
          "src": "The address of the source account"
        },
        "returns": {
          "_0": "Whether or not the transfer succeeded"
        }
      }
    },
    "title": "OpenLeverage's LToken Contract",
    "version": 1
  },
  "userdoc": {
    "events": {
      "AccrueInterest(uint256,uint256,uint256,uint256)": {
        "notice": "Event emitted when interest is accrued"
      },
      "Approval(address,address,uint256)": {
        "notice": "EIP20 Approval event"
      },
      "Borrow(address,address,uint256,uint256,uint256)": {
        "notice": "Event emitted when underlying is borrowed"
      },
      "Mint(address,uint256,uint256)": {
        "notice": "Event emitted when tokens are minted"
      },
      "NewController(address,address)": {
        "notice": "Event emitted when controller is changed"
      },
      "NewInterestParam(uint256,uint256,uint256,uint256)": {
        "notice": "Event emitted when interestParam is changed"
      },
      "NewReserveFactor(uint256,uint256)": {
        "notice": "Event emitted when the reserve factor is changed"
      },
      "Redeem(address,uint256,uint256)": {
        "notice": "Event emitted when tokens are redeemed"
      },
      "RepayBorrow(address,address,uint256,uint256,uint256,uint256)": {
        "notice": "Event emitted when a borrow is repaid"
      },
      "ReservesAdded(address,uint256,uint256)": {
        "notice": "Event emitted when the reserves are added"
      },
      "ReservesReduced(address,uint256,uint256)": {
        "notice": "Event emitted when the reserves are reduced"
      },
      "Transfer(address,address,uint256)": {
        "notice": "EIP20 Transfer event"
      }
    },
    "kind": "user",
    "methods": {
      "accrualBlockNumber()": {
        "notice": "Block number that interest was last accrued at"
      },
      "accrueInterest()": {
        "notice": "Applies accrued interest to total borrows and reserves"
      },
      "allowance(address,address)": {
        "notice": "Get the current allowance from `owner` for `spender`"
      },
      "approve(address,uint256)": {
        "notice": "Approve `spender` to transfer up to `amount` from `src`"
      },
      "balanceOf(address)": {
        "notice": "Get the token balance of the `owner`"
      },
      "balanceOfUnderlying(address)": {
        "notice": "Get the underlying balance of the `owner`"
      },
      "borrowBalanceCurrent(address)": {
        "notice": "Accrue interest to updated borrowIndex and then calculate account's borrow balance using the updated borrowIndex"
      },
      "borrowCapFactorMantissa()": {
        "notice": "Maximum fraction of borrower cap(80%)"
      },
      "borrowIndex()": {
        "notice": "Accumulator of the total earned interest rate since the opening of the market"
      },
      "borrowRatePerBlock()": {
        "notice": "Returns the current per-block borrow interest rate for this cToken"
      },
      "controller()": {
        "notice": "Contract which oversees inter-lToken operations"
      },
      "decimals()": {
        "notice": "EIP-20 token decimals for this token"
      },
      "exchangeRateCurrent()": {
        "notice": "Accrue interest then return the up-to-date exchange rate"
      },
      "exchangeRateStored()": {
        "notice": "Calculates the exchange rate from the underlying to the LToken"
      },
      "getAccountSnapshot(address)": {
        "notice": "Get a snapshot of the account's balances, and the cached exchange rate"
      },
      "getCash()": {
        "notice": "Get cash balance of this cToken in the underlying asset"
      },
      "implementation()": {
        "notice": "Implementation address for this contract"
      },
      "initialize(address,bool,address,uint256,uint256,uint256,uint256,uint256,string,string,uint8)": {
        "notice": "Initialize the money market"
      },
      "mint(uint256)": {
        "notice": "Sender supplies assets into the market and receives lTokens in exchange"
      },
      "name()": {
        "notice": "EIP-20 token name for this token"
      },
      "redeem(uint256)": {
        "notice": "Sender redeems lTokens in exchange for the underlying asset"
      },
      "redeemUnderlying(uint256)": {
        "notice": "Sender redeems lTokens in exchange for a specified amount of underlying asset"
      },
      "repayBorrowBehalf(address,uint256)": {
        "notice": "Sender repays a borrow belonging to borrower"
      },
      "reserveFactorMantissa()": {
        "notice": "Fraction of interest currently set aside for reserves 20%"
      },
      "setController(address)": {
        "notice": "Sets a new CONTROLLER for the market"
      },
      "supplyRatePerBlock()": {
        "notice": "Returns the current per-block supply interest rate for this cToken"
      },
      "symbol()": {
        "notice": "EIP-20 token symbol for this token"
      },
      "totalBorrows()": {
        "notice": "Total amount of outstanding borrows of the underlying in this market"
      },
      "totalBorrowsCurrent()": {
        "notice": "Returns the current total borrows plus accrued interest"
      },
      "totalSupply()": {
        "notice": "Total number of tokens in circulation"
      },
      "transfer(address,uint256)": {
        "notice": "Transfer `amount` tokens from `msg.sender` to `dst`"
      },
      "transferFrom(address,address,uint256)": {
        "notice": "Transfer `amount` tokens from `src` to `dst`"
      }
    },
    "version": 1
  }
}