{
  "contractName": "LPoolDepositor",
  "abi": [
    {
      "inputs": [],
      "stateMutability": "nonpayable",
      "type": "constructor"
    },
    {
      "inputs": [
        {
          "internalType": "address",
          "name": "pool",
          "type": "address"
        },
        {
          "internalType": "uint256",
          "name": "amount",
          "type": "uint256"
        }
      ],
      "name": "deposit",
      "outputs": [],
      "stateMutability": "nonpayable",
      "type": "function"
    },
    {
      "inputs": [
        {
          "internalType": "address",
          "name": "from",
          "type": "address"
        },
        {
          "internalType": "uint256",
          "name": "amount",
          "type": "uint256"
        }
      ],
      "name": "transferToPool",
      "outputs": [],
      "stateMutability": "nonpayable",
      "type": "function"
    },
    {
      "inputs": [
        {
          "internalType": "address payable",
          "name": "pool",
          "type": "address"
        }
      ],
      "name": "depositNative",
      "outputs": [],
      "stateMutability": "payable",
      "type": "function"
    }
  ],
  "bytecode": "0x608060405234801561001057600080fd5b50600160005561051e806100256000396000f3fe6080604052600436106100345760003560e01c806333bb7f911461003957806347e7ef2414610061578063d7efa1291461009a575b600080fd5b61005f6004803603602081101561004f57600080fd5b50356001600160a01b03166100d3565b005b34801561006d57600080fd5b5061005f6004803603604081101561008457600080fd5b506001600160a01b03813516906020013561013d565b3480156100a657600080fd5b5061005f600480360360408110156100bd57600080fd5b506001600160a01b0381351690602001356101a4565b604080516308934a5f60e31b815233600482015260006024820181905291516001600160a01b0384169263449a52f89234926044808301939282900301818588803b15801561012157600080fd5b505af1158015610135573d6000803e3d6000fd5b505050505050565b6001600160a01b038216600081815260016020908152604080832033808552925280832085905580516308934a5f60e31b81526004810192909252602482018590525163449a52f89260448084019391929182900301818387803b15801561012157600080fd5b3360009081526001602090815260408083206001600160a01b0386168452909152902054811461020f576040805162461bcd60e51b8152602060048201526011602482015270666f722063616c6c6261636b206f6e6c7960781b604482015290519081900360640190fd5b3360008181526001602090815260408083206001600160a01b03871684528252808320929092558151636f307dc360e01b815291516102af938693909286928492636f307dc3926004808301939192829003018186803b15801561027257600080fd5b505afa158015610286573d6000803e3d6000fd5b505050506040513d602081101561029c57600080fd5b50516001600160a01b03169291906102b4565b505050565b600081156104e0576000856001600160a01b03166370a08231856040518263ffffffff1660e01b815260040180826001600160a01b0316815260200191505060206040518083038186803b15801561030b57600080fd5b505afa15801561031f573d6000803e3d6000fd5b505050506040513d602081101561033557600080fd5b5051604080516001600160a01b0388811660248301528781166044830152606480830188905283518084039091018152608490920183526020820180516001600160e01b03166323b872dd60e01b17815292518251949550908a1693919290918291908083835b602083106103bb5780518252601f19909201916020918201910161039c565b6001836020036101000a0380198251168184511680821785525050505050509050019150506000604051808303816000865af19150503d806000811461041d576040519150601f19603f3d011682016040523d82523d6000602084013e610422565b606091505b5050506000866001600160a01b03166370a08231866040518263ffffffff1660e01b815260040180826001600160a01b0316815260200191505060206040518083038186803b15801561047457600080fd5b505afa158015610488573d6000803e3d6000fd5b505050506040513d602081101561049e57600080fd5b505190508181116104dc576040805162461bcd60e51b81526020600482015260036024820152622a232360e91b604482015290519081900360640190fd5b0390505b94935050505056fea264697066735822122096b2f22539141b72ecbe03c55b084c65401f0be519e06be3b20755926c61423664736f6c63430007060033",
  "immutableReferences": {},
  "source": "// SPDX-License-Identifier: BUSL-1.1\npragma solidity 0.7.6;\n\nimport \"./LPoolInterface.sol\";\nimport \"../lib/Exponential.sol\";\nimport \"@openzeppelin/contracts/utils/ReentrancyGuard.sol\";\nimport \"../lib/TransferHelper.sol\";\nimport \"../dex/DexAggregatorInterface.sol\";\nimport \"../IWETH.sol\";\n\n/// @title User Deposit Contract\n/// @author OpenLeverage\n/// @notice Use this contract for supplying lending pool funds  \ncontract LPoolDepositor is ReentrancyGuard {\n    using TransferHelper for IERC20;\n\n    mapping(address => mapping(address => uint)) allowedToTransfer;\n\n    constructor() {\n    }\n\n    /// @notice Deposit ERC20 token\n    function deposit(address pool, uint amount) external {\n        allowedToTransfer[pool][msg.sender] = amount;\n        LPoolInterface(pool).mintTo(msg.sender, amount);\n    }\n\n    /// @dev Callback function for lending pool \n    function transferToPool(address from, uint amount) external{\n        require(allowedToTransfer[msg.sender][from] == amount, \"for callback only\");\n        delete allowedToTransfer[msg.sender][from];\n        IERC20(LPoolInterface(msg.sender).underlying()).safeTransferFrom(from, msg.sender, amount);\n    }\n\n    /// @notice Deposit native token\n    function depositNative(address payable pool) external payable  {\n        LPoolInterface(pool).mintTo{value : msg.value}(msg.sender, 0);\n    }\n}\n\n",
  "sourcePath": "/home/mingyue/Smartian/Web3Bugs/contracts/72/openleverage-contracts/contracts/liquidity/LPoolDepositor.sol",
  "compiler": {
    "name": "solc",
    "version": "0.7.6+commit.7338295f.Emscripten.clang"
  },
  "schemaVersion": "3.4.16",
  "updatedAt": "2025-02-26T03:47:59.984Z",
  "devdoc": {
    "author": "OpenLeverage",
    "kind": "dev",
    "methods": {
      "transferToPool(address,uint256)": {
        "details": "Callback function for lending pool "
      }
    },
    "title": "User Deposit Contract",
    "version": 1
  },
  "userdoc": {
    "kind": "user",
    "methods": {
      "deposit(address,uint256)": {
        "notice": "Deposit ERC20 token"
      },
      "depositNative(address)": {
        "notice": "Deposit native token"
      }
    },
    "notice": "Use this contract for supplying lending pool funds  ",
    "version": 1
  }
}