{
  "contractName": "MockERC20",
  "abi": [
    {
      "inputs": [
        {
          "internalType": "string",
          "name": "name_",
          "type": "string"
        },
        {
          "internalType": "string",
          "name": "symbol_",
          "type": "string"
        }
      ],
      "stateMutability": "nonpayable",
      "type": "constructor"
    },
    {
      "anonymous": false,
      "inputs": [
        {
          "indexed": true,
          "internalType": "address",
          "name": "owner",
          "type": "address"
        },
        {
          "indexed": true,
          "internalType": "address",
          "name": "spender",
          "type": "address"
        },
        {
          "indexed": false,
          "internalType": "uint256",
          "name": "value",
          "type": "uint256"
        }
      ],
      "name": "Approval",
      "type": "event"
    },
    {
      "anonymous": false,
      "inputs": [
        {
          "indexed": true,
          "internalType": "address",
          "name": "from",
          "type": "address"
        },
        {
          "indexed": true,
          "internalType": "address",
          "name": "to",
          "type": "address"
        },
        {
          "indexed": false,
          "internalType": "uint256",
          "name": "value",
          "type": "uint256"
        }
      ],
      "name": "Transfer",
      "type": "event"
    },
    {
      "inputs": [
        {
          "internalType": "address",
          "name": "owner",
          "type": "address"
        },
        {
          "internalType": "address",
          "name": "spender",
          "type": "address"
        }
      ],
      "name": "allowance",
      "outputs": [
        {
          "internalType": "uint256",
          "name": "",
          "type": "uint256"
        }
      ],
      "stateMutability": "view",
      "type": "function"
    },
    {
      "inputs": [
        {
          "internalType": "address",
          "name": "spender",
          "type": "address"
        },
        {
          "internalType": "uint256",
          "name": "amount",
          "type": "uint256"
        }
      ],
      "name": "approve",
      "outputs": [
        {
          "internalType": "bool",
          "name": "",
          "type": "bool"
        }
      ],
      "stateMutability": "nonpayable",
      "type": "function"
    },
    {
      "inputs": [],
      "name": "decimals",
      "outputs": [
        {
          "internalType": "uint8",
          "name": "",
          "type": "uint8"
        }
      ],
      "stateMutability": "view",
      "type": "function"
    },
    {
      "inputs": [
        {
          "internalType": "address",
          "name": "spender",
          "type": "address"
        },
        {
          "internalType": "uint256",
          "name": "subtractedValue",
          "type": "uint256"
        }
      ],
      "name": "decreaseAllowance",
      "outputs": [
        {
          "internalType": "bool",
          "name": "",
          "type": "bool"
        }
      ],
      "stateMutability": "nonpayable",
      "type": "function"
    },
    {
      "inputs": [
        {
          "internalType": "address",
          "name": "spender",
          "type": "address"
        },
        {
          "internalType": "uint256",
          "name": "addedValue",
          "type": "uint256"
        }
      ],
      "name": "increaseAllowance",
      "outputs": [
        {
          "internalType": "bool",
          "name": "",
          "type": "bool"
        }
      ],
      "stateMutability": "nonpayable",
      "type": "function"
    },
    {
      "inputs": [],
      "name": "name",
      "outputs": [
        {
          "internalType": "string",
          "name": "",
          "type": "string"
        }
      ],
      "stateMutability": "view",
      "type": "function"
    },
    {
      "inputs": [],
      "name": "symbol",
      "outputs": [
        {
          "internalType": "string",
          "name": "",
          "type": "string"
        }
      ],
      "stateMutability": "view",
      "type": "function"
    },
    {
      "inputs": [],
      "name": "totalSupply",
      "outputs": [
        {
          "internalType": "uint256",
          "name": "",
          "type": "uint256"
        }
      ],
      "stateMutability": "view",
      "type": "function"
    },
    {
      "inputs": [
        {
          "internalType": "address",
          "name": "to",
          "type": "address"
        },
        {
          "internalType": "uint256",
          "name": "amount",
          "type": "uint256"
        }
      ],
      "name": "mint",
      "outputs": [],
      "stateMutability": "nonpayable",
      "type": "function"
    },
    {
      "inputs": [
        {
          "internalType": "address",
          "name": "from",
          "type": "address"
        },
        {
          "internalType": "uint256",
          "name": "amount",
          "type": "uint256"
        }
      ],
      "name": "burn",
      "outputs": [],
      "stateMutability": "nonpayable",
      "type": "function"
    },
    {
      "inputs": [
        {
          "internalType": "address",
          "name": "addr",
          "type": "address"
        },
        {
          "internalType": "uint256",
          "name": "_t",
          "type": "uint256"
        }
      ],
      "name": "balanceOf",
      "outputs": [
        {
          "internalType": "uint256",
          "name": "",
          "type": "uint256"
        }
      ],
      "stateMutability": "view",
      "type": "function"
    },
    {
      "inputs": [
        {
          "internalType": "address",
          "name": "account",
          "type": "address"
        }
      ],
      "name": "balanceOf",
      "outputs": [
        {
          "internalType": "uint256",
          "name": "",
          "type": "uint256"
        }
      ],
      "stateMutability": "view",
      "type": "function"
    },
    {
      "inputs": [
        {
          "internalType": "address",
          "name": "recipient",
          "type": "address"
        },
        {
          "internalType": "uint256",
          "name": "amount",
          "type": "uint256"
        }
      ],
      "name": "transfer",
      "outputs": [
        {
          "internalType": "bool",
          "name": "",
          "type": "bool"
        }
      ],
      "stateMutability": "nonpayable",
      "type": "function"
    },
    {
      "inputs": [
        {
          "internalType": "address",
          "name": "sender",
          "type": "address"
        },
        {
          "internalType": "address",
          "name": "recipient",
          "type": "address"
        },
        {
          "internalType": "uint256",
          "name": "amount",
          "type": "uint256"
        }
      ],
      "name": "transferFrom",
      "outputs": [
        {
          "internalType": "bool",
          "name": "",
          "type": "bool"
        }
      ],
      "stateMutability": "nonpayable",
      "type": "function"
    }
  ],
  "bytecode": "0x60806040523480156200001157600080fd5b5060405162000fcb38038062000fcb833981810160405260408110156200003757600080fd5b81019080805160405193929190846401000000008211156200005857600080fd5b9083019060208201858111156200006e57600080fd5b82516401000000008111828201881017156200008957600080fd5b82525081516020918201929091019080838360005b83811015620000b85781810151838201526020016200009e565b50505050905090810190601f168015620000e65780820380516001836020036101000a031916815260200191505b50604052602001805160405193929190846401000000008211156200010a57600080fd5b9083019060208201858111156200012057600080fd5b82516401000000008111828201881017156200013b57600080fd5b82525081516020918201929091019080838360005b838110156200016a57818101518382015260200162000150565b50505050905090810190601f168015620001985780820380516001836020036101000a031916815260200191505b50604052505082518391508290620001b8906003906020850190620001e7565b508051620001ce906004906020840190620001e7565b50506005805460ff191660121790555062000293915050565b828054600181600116156101000203166002900490600052602060002090601f0160209004810192826200021f57600085556200026a565b82601f106200023a57805160ff19168380011785556200026a565b828001600101855582156200026a579182015b828111156200026a5782518255916020019190600101906200024d565b50620002789291506200027c565b5090565b5b808211156200027857600081556001016200027d565b610d2880620002a36000396000f3fe608060405234801561001057600080fd5b50600436106100e95760003560e01c806340c10f191161008c5780639dc29fac116100665780639dc29fac146102cd578063a457c2d7146102f9578063a9059cbb14610325578063dd62ed3e14610351576100e9565b806340c10f191461027157806370a082311461029f57806395d89b41146102c5576100e9565b806318160ddd116100c857806318160ddd146101e957806323b872dd146101f1578063313ce567146102275780633950935114610245576100e9565b8062fdd58e146100ee57806306fdde031461012c578063095ea7b3146101a9575b600080fd5b61011a6004803603604081101561010457600080fd5b506001600160a01b03813516906020013561037f565b60408051918252519081900360200190f35b610134610391565b6040805160208082528351818301528351919283929083019185019080838360005b8381101561016e578181015183820152602001610156565b50505050905090810190601f16801561019b5780820380516001836020036101000a031916815260200191505b509250505060405180910390f35b6101d5600480360360408110156101bf57600080fd5b506001600160a01b038135169060200135610427565b604080519115158252519081900360200190f35b61011a610444565b6101d56004803603606081101561020757600080fd5b506001600160a01b0381358116916020810135909116906040013561044a565b61022f610499565b6040805160ff9092168252519081900360200190f35b6101d56004803603604081101561025b57600080fd5b506001600160a01b0381351690602001356104a2565b61029d6004803603604081101561028757600080fd5b506001600160a01b0381351690602001356104f0565b005b61011a600480360360208110156102b557600080fd5b50356001600160a01b03166104fe565b610134610519565b61029d600480360360408110156102e357600080fd5b506001600160a01b03813516906020013561057a565b6101d56004803603604081101561030f57600080fd5b506001600160a01b038135169060200135610584565b6101d56004803603604081101561033b57600080fd5b506001600160a01b0381351690602001356105ec565b61011a6004803603604081101561036757600080fd5b506001600160a01b03813581169160200135166105f9565b600061038a836104fe565b9392505050565b60038054604080516020601f600260001961010060018816150201909516949094049384018190048102820181019092528281526060939092909183018282801561041d5780601f106103f25761010080835404028352916020019161041d565b820191906000526020600020905b81548152906001019060200180831161040057829003601f168201915b5050505050905090565b600061043b610434610624565b8484610628565b50600192915050565b60025490565b6000610457848484610714565b61048f843361048a85604051806060016040528060288152602001610c3c602891396104838a336105f9565b919061086f565b610628565b5060019392505050565b60055460ff1690565b600061043b6104af610624565b8461048a85600160006104c0610624565b6001600160a01b03908116825260208083019390935260409182016000908120918c168152925290205490610906565b6104fa8282610960565b5050565b6001600160a01b031660009081526020819052604090205490565b60048054604080516020601f600260001961010060018816150201909516949094049384018190048102820181019092528281526060939092909183018282801561041d5780601f106103f25761010080835404028352916020019161041d565b6104fa8282610a50565b600061043b610591610624565b8461048a85604051806060016040528060258152602001610cce60259139600160006105bb610624565b6001600160a01b03908116825260208083019390935260409182016000908120918d1681529252902054919061086f565b600061043b338484610714565b6001600160a01b03918216600090815260016020908152604080832093909416825291909152205490565b3390565b6001600160a01b03831661066d5760405162461bcd60e51b8152600401808060200182810382526024815260200180610caa6024913960400191505060405180910390fd5b6001600160a01b0382166106b25760405162461bcd60e51b8152600401808060200182810382526022815260200180610bf46022913960400191505060405180910390fd5b6001600160a01b03808416600081815260016020908152604080832094871680845294825291829020859055815185815291517f8c5be1e5ebec7d5bd14f71427d1e84f3dd0314c0f7b2291e5b200ac8c7c3b9259281900390910190a3505050565b6001600160a01b0383166107595760405162461bcd60e51b8152600401808060200182810382526025815260200180610c856025913960400191505060405180910390fd5b6001600160a01b03821661079e5760405162461bcd60e51b8152600401808060200182810382526023815260200180610baf6023913960400191505060405180910390fd5b6107a9838383610b4c565b6107e681604051806060016040528060268152602001610c16602691396001600160a01b038616600090815260208190526040902054919061086f565b6001600160a01b0380851660009081526020819052604080822093909355908416815220546108159082610906565b6001600160a01b038084166000818152602081815260409182902094909455805185815290519193928716927fddf252ad1be2c89b69c2b068fc378daa952ba7f163c4a11628f55a4df523b3ef92918290030190a3505050565b600081848411156108fe5760405162461bcd60e51b81526004018080602001828103825283818151815260200191508051906020019080838360005b838110156108c35781810151838201526020016108ab565b50505050905090810190601f1680156108f05780820380516001836020036101000a031916815260200191505b509250505060405180910390fd5b505050900390565b60008282018381101561038a576040805162461bcd60e51b815260206004820152601b60248201527f536166654d6174683a206164646974696f6e206f766572666c6f770000000000604482015290519081900360640190fd5b6001600160a01b0382166109bb576040805162461bcd60e51b815260206004820152601f60248201527f45524332303a206d696e7420746f20746865207a65726f206164647265737300604482015290519081900360640190fd5b6109c760008383610b4c565b6002546109d49082610906565b6002556001600160a01b0382166000908152602081905260409020546109fa9082610906565b6001600160a01b0383166000818152602081815260408083209490945583518581529351929391927fddf252ad1be2c89b69c2b068fc378daa952ba7f163c4a11628f55a4df523b3ef9281900390910190a35050565b6001600160a01b038216610a955760405162461bcd60e51b8152600401808060200182810382526021815260200180610c646021913960400191505060405180910390fd5b610aa182600083610b4c565b610ade81604051806060016040528060228152602001610bd2602291396001600160a01b038516600090815260208190526040902054919061086f565b6001600160a01b038316600090815260208190526040902055600254610b049082610b51565b6002556040805182815290516000916001600160a01b038516917fddf252ad1be2c89b69c2b068fc378daa952ba7f163c4a11628f55a4df523b3ef9181900360200190a35050565b505050565b600082821115610ba8576040805162461bcd60e51b815260206004820152601e60248201527f536166654d6174683a207375627472616374696f6e206f766572666c6f770000604482015290519081900360640190fd5b5090039056fe45524332303a207472616e7366657220746f20746865207a65726f206164647265737345524332303a206275726e20616d6f756e7420657863656564732062616c616e636545524332303a20617070726f766520746f20746865207a65726f206164647265737345524332303a207472616e7366657220616d6f756e7420657863656564732062616c616e636545524332303a207472616e7366657220616d6f756e74206578636565647320616c6c6f77616e636545524332303a206275726e2066726f6d20746865207a65726f206164647265737345524332303a207472616e736665722066726f6d20746865207a65726f206164647265737345524332303a20617070726f76652066726f6d20746865207a65726f206164647265737345524332303a2064656372656173656420616c6c6f77616e63652062656c6f77207a65726fa2646970667358221220907d1142521856fbcea0ebb6bd5a96648ccf51b010d2241e8c6fa2afbc49a78764736f6c63430007060033",
  "immutableReferences": {},
  "source": "// SPDX-License-Identifier: BUSL-1.1\npragma solidity 0.7.6;\n\nimport \"@openzeppelin/contracts/token/ERC20/ERC20.sol\";\nimport \"@openzeppelin/contracts/math/SafeMath.sol\";\n\ncontract MockERC20 is ERC20 {\n    using SafeMath for uint;\n\n    constructor (string memory name_, string memory symbol_)  ERC20(name_, symbol_) {\n    }\n\n    function mint(address to, uint256 amount) public {\n        _mint(to, amount);\n    }\n\n    function burn(address from, uint256 amount) public{\n        _burn(from, amount);\n    }\n\n    function balanceOf(address addr, uint256 _t) external view returns (uint256){\n        _t;\n        return balanceOf(addr);\n    }\n\n    function transfer(address recipient, uint256 amount) public override returns (bool) {\n        _transfer(msg.sender, recipient, amount);\n        return true;\n    }\n\n    function transferFrom(address sender, address recipient, uint256 amount) public override returns (bool) {\n        _transfer(sender, recipient, amount);\n        _approve(sender, msg.sender, allowance(sender, msg.sender).sub(amount, \"ERC20: transfer amount exceeds allowance\"));\n        return true;\n    }\n}\n",
  "sourcePath": "/home/mingyue/Smartian/Web3Bugs/contracts/72/openleverage-contracts/contracts/test/MockERC20.sol",
  "compiler": {
    "name": "solc",
    "version": "0.7.6+commit.7338295f.Emscripten.clang"
  },
  "schemaVersion": "3.4.16",
  "updatedAt": "2025-02-26T03:48:00.213Z",
  "devdoc": {
    "kind": "dev",
    "methods": {
      "allowance(address,address)": {
        "details": "See {IERC20-allowance}."
      },
      "approve(address,uint256)": {
        "details": "See {IERC20-approve}. Requirements: - `spender` cannot be the zero address."
      },
      "balanceOf(address)": {
        "details": "See {IERC20-balanceOf}."
      },
      "decimals()": {
        "details": "Returns the number of decimals used to get its user representation. For example, if `decimals` equals `2`, a balance of `505` tokens should be displayed to a user as `5,05` (`505 / 10 ** 2`). Tokens usually opt for a value of 18, imitating the relationship between Ether and Wei. This is the value {ERC20} uses, unless {_setupDecimals} is called. NOTE: This information is only used for _display_ purposes: it in no way affects any of the arithmetic of the contract, including {IERC20-balanceOf} and {IERC20-transfer}."
      },
      "decreaseAllowance(address,uint256)": {
        "details": "Atomically decreases the allowance granted to `spender` by the caller. This is an alternative to {approve} that can be used as a mitigation for problems described in {IERC20-approve}. Emits an {Approval} event indicating the updated allowance. Requirements: - `spender` cannot be the zero address. - `spender` must have allowance for the caller of at least `subtractedValue`."
      },
      "increaseAllowance(address,uint256)": {
        "details": "Atomically increases the allowance granted to `spender` by the caller. This is an alternative to {approve} that can be used as a mitigation for problems described in {IERC20-approve}. Emits an {Approval} event indicating the updated allowance. Requirements: - `spender` cannot be the zero address."
      },
      "name()": {
        "details": "Returns the name of the token."
      },
      "symbol()": {
        "details": "Returns the symbol of the token, usually a shorter version of the name."
      },
      "totalSupply()": {
        "details": "See {IERC20-totalSupply}."
      },
      "transfer(address,uint256)": {
        "details": "See {IERC20-transfer}. Requirements: - `recipient` cannot be the zero address. - the caller must have a balance of at least `amount`."
      },
      "transferFrom(address,address,uint256)": {
        "details": "See {IERC20-transferFrom}. Emits an {Approval} event indicating the updated allowance. This is not required by the EIP. See the note at the beginning of {ERC20}. Requirements: - `sender` and `recipient` cannot be the zero address. - `sender` must have a balance of at least `amount`. - the caller must have allowance for ``sender``'s tokens of at least `amount`."
      }
    },
    "version": 1
  },
  "userdoc": {
    "kind": "user",
    "methods": {},
    "version": 1
  }
}