{
  "contractName": "MockUniswapV3Factory",
  "abi": [
    {
      "inputs": [],
      "stateMutability": "nonpayable",
      "type": "constructor"
    },
    {
      "anonymous": false,
      "inputs": [
        {
          "indexed": true,
          "internalType": "uint24",
          "name": "fee",
          "type": "uint24"
        },
        {
          "indexed": true,
          "internalType": "int24",
          "name": "tickSpacing",
          "type": "int24"
        }
      ],
      "name": "FeeAmountEnabled",
      "type": "event"
    },
    {
      "anonymous": false,
      "inputs": [
        {
          "indexed": true,
          "internalType": "address",
          "name": "oldOwner",
          "type": "address"
        },
        {
          "indexed": true,
          "internalType": "address",
          "name": "newOwner",
          "type": "address"
        }
      ],
      "name": "OwnerChanged",
      "type": "event"
    },
    {
      "anonymous": false,
      "inputs": [
        {
          "indexed": true,
          "internalType": "address",
          "name": "token0",
          "type": "address"
        },
        {
          "indexed": true,
          "internalType": "address",
          "name": "token1",
          "type": "address"
        },
        {
          "indexed": true,
          "internalType": "uint24",
          "name": "fee",
          "type": "uint24"
        },
        {
          "indexed": false,
          "internalType": "int24",
          "name": "tickSpacing",
          "type": "int24"
        },
        {
          "indexed": false,
          "internalType": "address",
          "name": "pool",
          "type": "address"
        }
      ],
      "name": "PoolCreated",
      "type": "event"
    },
    {
      "inputs": [
        {
          "internalType": "uint24",
          "name": "",
          "type": "uint24"
        }
      ],
      "name": "feeAmountTickSpacing",
      "outputs": [
        {
          "internalType": "int24",
          "name": "",
          "type": "int24"
        }
      ],
      "stateMutability": "view",
      "type": "function"
    },
    {
      "inputs": [
        {
          "internalType": "address",
          "name": "",
          "type": "address"
        },
        {
          "internalType": "address",
          "name": "",
          "type": "address"
        },
        {
          "internalType": "uint24",
          "name": "",
          "type": "uint24"
        }
      ],
      "name": "getPool",
      "outputs": [
        {
          "internalType": "address",
          "name": "",
          "type": "address"
        }
      ],
      "stateMutability": "view",
      "type": "function"
    },
    {
      "inputs": [],
      "name": "owner",
      "outputs": [
        {
          "internalType": "address",
          "name": "",
          "type": "address"
        }
      ],
      "stateMutability": "view",
      "type": "function"
    },
    {
      "inputs": [
        {
          "internalType": "address",
          "name": "tokenA",
          "type": "address"
        },
        {
          "internalType": "address",
          "name": "tokenB",
          "type": "address"
        },
        {
          "internalType": "uint24",
          "name": "fee",
          "type": "uint24"
        }
      ],
      "name": "createPool",
      "outputs": [
        {
          "internalType": "address",
          "name": "pool",
          "type": "address"
        }
      ],
      "stateMutability": "nonpayable",
      "type": "function"
    },
    {
      "inputs": [
        {
          "internalType": "address",
          "name": "_owner",
          "type": "address"
        }
      ],
      "name": "setOwner",
      "outputs": [],
      "stateMutability": "nonpayable",
      "type": "function"
    },
    {
      "inputs": [
        {
          "internalType": "uint24",
          "name": "fee",
          "type": "uint24"
        },
        {
          "internalType": "int24",
          "name": "tickSpacing",
          "type": "int24"
        }
      ],
      "name": "enableFeeAmount",
      "outputs": [],
      "stateMutability": "nonpayable",
      "type": "function"
    }
  ],
  "bytecode": "0x608060405234801561001057600080fd5b50600080546001600160a01b0319163390811782556040519091907fb532073b38c83145e3e5135377a08bf9aab55bc0fd7c1179cd4fb995d2a5159c908290a36101f4600081815260016020527f344a86d038cc67650617710ee5afca4f5d1ed60d199ecd86852cac7a55b2d3e5805462ffffff1916600a908117909155604051909291600080516020615eb083398151915291a3610bb8600081815260016020527f8bf1273959200f3b11670b7338c174c40286607d4b851c000be7fc007987b275805462ffffff1916603c908117909155604051909291600080516020615eb083398151915291a3612710600081815260016020527f1ca239af1d44623dfaa87ee0cbbbe4bbeb2112df36e66deedafd694350d045cd805462ffffff191660c8908117909155604051909291600080516020615eb083398151915291a3615d528061015e6000396000f3fe608060405234801561001057600080fd5b50600436106100625760003560e01c806313af4035146100675780631698ee821461008f57806322afcccb146100e75780638a7c195f146101205780638da5cb5b1461014b578063a167129514610153575b600080fd5b61008d6004803603602081101561007d57600080fd5b50356001600160a01b031661018f565b005b6100cb600480360360608110156100a557600080fd5b5080356001600160a01b03908116916020810135909116906040013562ffffff16610201565b604080516001600160a01b039092168252519081900360200190f35b610109600480360360208110156100fd57600080fd5b503562ffffff1661022d565b6040805160029290920b8252519081900360200190f35b61008d6004803603604081101561013657600080fd5b5062ffffff813516906020013560020b610242565b6100cb610305565b6100cb6004803603606081101561016957600080fd5b5080356001600160a01b03908116916020810135909116906040013562ffffff16610314565b6000546001600160a01b031633146101a657600080fd5b600080546040516001600160a01b03808516939216917fb532073b38c83145e3e5135377a08bf9aab55bc0fd7c1179cd4fb995d2a5159c91a3600080546001600160a01b0319166001600160a01b0392909216919091179055565b60026020908152600093845260408085208252928452828420905282529020546001600160a01b031681565b60016020526000908152604090205460020b81565b6000546001600160a01b0316331461025957600080fd5b620f42408262ffffff161061026d57600080fd5b60008160020b13801561028457506140008160020b125b61028d57600080fd5b62ffffff8216600090815260016020526040902054600290810b900b156102b357600080fd5b62ffffff828116600081815260016020526040808220805462ffffff1916600287900b958616179055517fc66a3fdf07232cdd185febcc6579d408c241b47ae2f9907d84be655141eeaecc9190a35050565b6000546001600160a01b031681565b6000826001600160a01b0316846001600160a01b0316141561033557600080fd5b600080846001600160a01b0316866001600160a01b03161061035857848661035b565b85855b90925090506001600160a01b03821661037357600080fd5b62ffffff8416600090815260016020526040902054600290810b9081900b61039a57600080fd5b6001600160a01b0383811660009081526002602090815260408083208685168452825280832062ffffff8a16845290915290205416156103d957600080fd5b30838387846040516103ea906104fc565b6001600160a01b03958616815293851660208501529190931660408084019190915262ffffff909316606083015260020b608082015290519081900360a001906000f08015801561043f573d6000803e3d6000fd5b506001600160a01b03808516600081815260026020818152604080842089871680865290835281852062ffffff8e168087529084528286208054988a166001600160a01b0319998a16811790915582875285855283872088885285528387208288528552958390208054909816861790975581519389900b845291830193909352825195995093947f783cca1c0412dd0d695e784568c96da2e9c22ff989357a2e8b1d9b2b4e6b7118929181900390910190a45050509392505050565b6158138061050a8339019056fe6101406040523480156200001257600080fd5b506040516200581338038062005813833981810160405260a08110156200003857600080fd5b5080516020808301516040840151606080860151608096870151600281810b900b60e890811b6101005287841b6001600160601b031990811690995285841b891660a0529284901b90971660c0529081901b6001600160e81b03191660e052939491939092909190620000b6908290620000d3811b62002cdd17901c565b60801b6001600160801b0319166101205250620001419350505050565b60008082600281900b620d89e71981620000e957fe5b05029050600083600281900b620d89e8816200010157fe5b0502905060008460020b83830360020b816200011957fe5b0560010190508062ffffff166001600160801b038016816200013757fe5b0495945050505050565b60805160601c60a05160601c60c05160601c60e05160e81c6101005160e81c6101205160801c6156086200020b60003980611ef25280614b075280614b3e525080610c725280612a995280614b725280614ba4525080610d61528061181952806118505280612ae152508061121f52806118d35280611d4252806124185280612abd5280613f4752508061094c528061134d52806118a25280611cdc5280611e3c5280611f1652806123925280613dfe52508061206a52806122515280612a7552506156086000f3fe608060405234801561001057600080fd5b50600436106101c45760003560e01c806370cf754a116100f9578063c45a015511610097578063ddca3f4311610071578063ddca3f431461087a578063f30583991461089a578063f30dba93146108a2578063f637731d14610924576101c4565b8063c45a01551461084b578063d0c93a7c14610853578063d21220a714610872576101c4565b806385b66729116100d357806385b6672914610672578063883bdbfd146106af578063a34123a7146107b6578063a38807f2146107f0576101c4565b806370cf754a1461060c578063792eb791146106145780638206a4d11461064a576101c4565b80633c8a7d8d116101665780634f1eb3d8116101405780634f1eb3d81461050c578063514ea4bf1461055d5780635339c296146105b657806363a0a562146105d6576101c4565b80633c8a7d8d146103c85780634614131914610468578063490e6cbc14610482576101c4565b80631ad8b03b116101a25780631ad8b03b146102be578063252c09d7146102f557806332148f671461034c5780633850c7bd1461036f576101c4565b80630dfe1681146101c9578063128acb08146101ed5780631a6865021461029a575b600080fd5b6101d161094a565b604080516001600160a01b039092168252519081900360200190f35b610281600480360360a081101561020357600080fd5b6001600160a01b0382358116926020810135151592604082013592606083013516919081019060a081016080820135600160201b81111561024357600080fd5b82018360208201111561025557600080fd5b803590602001918460018302840111600160201b8311171561027657600080fd5b50909250905061096e565b6040805192835260208301919091528051918290030190f35b6102a2611505565b604080516001600160801b039092168252519081900360200190f35b6102c6611514565b60405180836001600160801b03168152602001826001600160801b031681526020019250505060405180910390f35b6103126004803603602081101561030b57600080fd5b503561152e565b6040805163ffffffff909516855260069390930b60208501526001600160a01b039091168383015215156060830152519081900360800190f35b61036d6004803603602081101561036257600080fd5b503561ffff16611573565b005b610377611662565b604080516001600160a01b03909816885260029690960b602088015261ffff9485168787015292841660608701529216608085015260ff90911660a0840152151560c0830152519081900360e00190f35b610281600480360360a08110156103de57600080fd5b6001600160a01b03823516916020810135600290810b92604083013590910b916001600160801b036060820135169181019060a081016080820135600160201b81111561042a57600080fd5b82018360208201111561043c57600080fd5b803590602001918460018302840111600160201b8311171561045d57600080fd5b5090925090506116b2565b610470611778565b60408051918252519081900360200190f35b61036d6004803603608081101561049857600080fd5b6001600160a01b038235169160208101359160408201359190810190608081016060820135600160201b8111156104ce57600080fd5b8201836020820111156104e057600080fd5b803590602001918460018302840111600160201b8311171561050157600080fd5b50909250905061177e565b6102c6600480360360a081101561052257600080fd5b506001600160a01b03813516906020810135600290810b91604081013590910b906001600160801b0360608201358116916080013516611bd1565b61057a6004803603602081101561057357600080fd5b5035611deb565b604080516001600160801b0396871681526020810195909552848101939093529084166060840152909216608082015290519081900360a00190f35b610470600480360360208110156105cc57600080fd5b503560010b611e28565b61036d600480360360608110156105ec57600080fd5b506001600160a01b03813581169160208101359091169060400135611e3a565b6102a2611ef0565b61036d6004803603606081101561062a57600080fd5b506001600160a01b03813581169160208101359091169060400135611f14565b61036d6004803603604081101561066057600080fd5b5060ff81358116916020013516611fff565b6102c66004803603606081101561068857600080fd5b506001600160a01b03813516906001600160801b03602082013581169160400135166121e3565b61071d600480360360208110156106c557600080fd5b810190602081018135600160201b8111156106df57600080fd5b8201836020820111156106f157600080fd5b803590602001918460208302840111600160201b8311171561071257600080fd5b5090925090506124b0565b604051808060200180602001838103835285818151815260200191508051906020019060200280838360005b83811015610761578181015183820152602001610749565b50505050905001838103825284818151815260200191508051906020019060200280838360005b838110156107a0578181015183820152602001610788565b5050505090500194505050505060405180910390f35b610281600480360360608110156107cc57600080fd5b508035600290810b91602081013590910b90604001356001600160801b0316612715565b61081a6004803603604081101561080657600080fd5b508035600290810b9160200135900b61288c565b6040805160069490940b84526001600160a01b03909216602084015263ffffffff1682820152519081900360600190f35b6101d1612a73565b61085b612a97565b6040805160029290920b8252519081900360200190f35b6101d1612abb565b610882612adf565b6040805162ffffff9092168252519081900360200190f35b610470612b03565b6108c2600480360360208110156108b857600080fd5b503560020b612b09565b604080516001600160801b039099168952600f9790970b602089015287870195909552606087019390935260069190910b60808601526001600160a01b031660a085015263ffffffff1660c0840152151560e083015251908190036101000190f35b61036d6004803603602081101561093a57600080fd5b50356001600160a01b0316612b73565b7f000000000000000000000000000000000000000000000000000000000000000081565b600080856109a8576040805162461bcd60e51b8152602060048201526002602482015261415360f01b604482015290519081900360640190fd5b6040805160e0810182526000546001600160a01b0381168252600160a01b8104600290810b810b900b602083015261ffff600160b81b8204811693830193909352600160c81b810483166060830152600160d81b8104909216608082015260ff600160e81b8304811660a0830152600160f01b909204909116151560c08201819052610a61576040805162461bcd60e51b81526020600482015260036024820152624c4f4b60e81b604482015290519081900360640190fd5b87610aac5780600001516001600160a01b0316866001600160a01b0316118015610aa7575073fffd8963efd1fc6a506488495d951d5263988d266001600160a01b038716105b610ade565b80600001516001600160a01b0316866001600160a01b0316108015610ade57506401000276a36001600160a01b038716115b610b15576040805162461bcd60e51b815260206004820152600360248201526214d41360ea1b604482015290519081900360640190fd5b6000805460ff60f01b191681556040805160c08101909152808a610b445760048460a0015160ff16901c610b57565b60108460a0015160ff1681610b5557fe5b065b60ff1681526004546001600160801b03166020820152604001610b78612d49565b63ffffffff168152602001600060060b815260200160006001600160a01b031681526020016000151581525090506000808913905060006040518060e001604052808b81526020016000815260200185600001516001600160a01b03168152602001856020015160020b81526020018c610bf457600254610bf8565b6001545b815260200160006001600160801b0316815260200184602001516001600160801b031681525090505b805115801590610c475750886001600160a01b031681604001516001600160a01b031614155b1561101157610c5461556f565b60408201516001600160a01b031681526060820151610c97906006907f00000000000000000000000000000000000000000000000000000000000000008f612d4d565b15156040830152600290810b810b60208301819052620d89e719910b1215610cc857620d89e7196020820152610ce7565b6020810151620d89e860029190910b1315610ce757620d89e860208201525b610cf48160200151612e8f565b6001600160a01b031660608201526040820151610d85908d610d2e578b6001600160a01b031683606001516001600160a01b031611610d48565b8b6001600160a01b031683606001516001600160a01b0316105b610d56578260600151610d58565b8b5b60c085015185517f00000000000000000000000000000000000000000000000000000000000000006131c0565b60c085015260a084015260808301526001600160a01b031660408301528215610de757610dbb8160c001518260800151016133b2565b825103825260a0810151610ddd90610dd2906133b2565b6020840151906133c8565b6020830152610e22565b610df48160a001516133b2565b825101825260c08101516080820151610e1c91610e1191016133b2565b6020840151906133e4565b60208301525b835160ff1615610e68576000846000015160ff168260c0015181610e4257fe5b60c0840180519290910491829003905260a0840180519091016001600160801b03169052505b60c08201516001600160801b031615610ea757610e9b8160c00151600160801b8460c001516001600160801b03166133fa565b60808301805190910190525b80606001516001600160a01b031682604001516001600160a01b03161415610fd057806040015115610fa7578360a00151610f3157610f0f846040015160008760200151886040015188602001518a6060015160086134aa909695949392919063ffffffff16565b6001600160a01b03166080860152600690810b900b6060850152600160a08501525b6000610f7d82602001518e610f4857600154610f4e565b84608001515b8f610f5d578560800151610f61565b6002545b608089015160608a015160408b0151600595949392919061363c565b90508c15610f89576000035b610f978360c00151826136f6565b6001600160801b031660c0840152505b8b610fb6578060200151610fbf565b60018160200151035b600290810b900b606083015261100b565b80600001516001600160a01b031682604001516001600160a01b03161461100b57610ffe82604001516137ac565b600290810b900b60608301525b50610c21565b836020015160020b816060015160020b146110df5760008061105f86604001518660400151886020015188602001518a606001518b608001516008613ac7909695949392919063ffffffff16565b604085015160608601516000805461ffff60c81b1916600160c81b61ffff958616021761ffff60b81b1916600160b81b95909416949094029290921762ffffff60a01b1916600160a01b62ffffff60029490940b9390931692909202919091176001600160a01b0319166001600160a01b03909116179055506111049050565b6040810151600080546001600160a01b0319166001600160a01b039092169190911790555b8060c001516001600160801b031683602001516001600160801b03161461114a5760c0810151600480546001600160801b0319166001600160801b039092169190911790555b8a1561119a57608081015160015560a08101516001600160801b0316156111955760a0810151600380546001600160801b031981166001600160801b03918216909301169190911790555b6111e0565b608081015160025560a08101516001600160801b0316156111e05760a0810151600380546001600160801b03808216600160801b92839004821690940116029190911790555b8115158b1515146111f957602081015181518b03611206565b80600001518a0381602001515b90965094508a1561133f576000851215611248576112487f00000000000000000000000000000000000000000000000000000000000000008d87600003613c62565b6000611252613db0565b9050336001600160a01b031663fa461e3388888c8c6040518563ffffffff1660e01b815260040180858152602001848152602001806020018281038252848482818152602001925080828437600081840152601f19601f82011690508083019250505095505050505050600060405180830381600087803b1580156112d657600080fd5b505af11580156112ea573d6000803e3d6000fd5b505050506112f6613db0565b6113008289613ee9565b1115611339576040805162461bcd60e51b815260206004820152600360248201526249494160e81b604482015290519081900360640190fd5b50611469565b6000861215611376576113767f00000000000000000000000000000000000000000000000000000000000000008d88600003613c62565b6000611380613ef9565b9050336001600160a01b031663fa461e3388888c8c6040518563ffffffff1660e01b815260040180858152602001848152602001806020018281038252848482818152602001925080828437600081840152601f19601f82011690508083019250505095505050505050600060405180830381600087803b15801561140457600080fd5b505af1158015611418573d6000803e3d6000fd5b50505050611424613ef9565b61142e8288613ee9565b1115611467576040805162461bcd60e51b815260206004820152600360248201526249494160e81b604482015290519081900360640190fd5b505b60408082015160c083015160608085015184518b8152602081018b90526001600160a01b03948516818701526001600160801b039093169183019190915260020b60808201529151908e169133917fc42079f94a6350d7e6235f29174924f928cc2ac818eb64fed8004e115fbcca679181900360a00190a350506000805460ff60f01b1916600160f01b17905550919890975095505050505050565b6004546001600160801b031681565b6003546001600160801b0380821691600160801b90041682565b60088161ffff811061153f57600080fd5b015463ffffffff81169150600160201b810460060b90600160581b81046001600160a01b031690600160f81b900460ff1684565b600054600160f01b900460ff166115b7576040805162461bcd60e51b81526020600482015260036024820152624c4f4b60e81b604482015290519081900360640190fd5b6000805460ff60f01b1916808255600160d81b900461ffff16906115dd60088385613f91565b6000805461ffff808416600160d81b810261ffff60d81b199093169290921790925591925083161461164a576040805161ffff80851682528316602082015281517fac49e518f90a358f652e4400164f05a5d8f7e35e7747279bc3a93dbf584e125a929181900390910190a15b50506000805460ff60f01b1916600160f01b17905550565b6000546001600160a01b03811690600160a01b810460020b9061ffff600160b81b8204811691600160c81b8104821691600160d81b8204169060ff600160e81b8204811691600160f01b90041687565b600080548190600160f01b900460ff166116f9576040805162461bcd60e51b81526020600482015260036024820152624c4f4b60e81b604482015290519081900360640190fd5b6000805460ff60f01b19169055604080516080810182526001600160a01b038a168152600289810b602083015288900b91810191909152611754906060810161174a6001600160801b038916614034565b600f0b9052614045565b50506000805460ff60f01b1916600160f01b178155998a9950975050505050505050565b60025481565b600054600160f01b900460ff166117c2576040805162461bcd60e51b81526020600482015260036024820152624c4f4b60e81b604482015290519081900360640190fd5b6000805460ff60f01b191690556004546001600160801b031680611811576040805162461bcd60e51b81526020600482015260016024820152601360fa1b604482015290519081900360640190fd5b6000611846867f000000000000000000000000000000000000000000000000000000000000000062ffffff16620f424061427d565b9050600061187d867f000000000000000000000000000000000000000000000000000000000000000062ffffff16620f424061427d565b90506000611889613db0565b90506000611895613ef9565b905088156118c8576118c87f00000000000000000000000000000000000000000000000000000000000000008b8b613c62565b87156118f9576118f97f00000000000000000000000000000000000000000000000000000000000000008b8a613c62565b336001600160a01b031663e9cbafb085858a8a6040518563ffffffff1660e01b815260040180858152602001848152602001806020018281038252848482818152602001925080828437600081840152601f19601f82011690508083019250505095505050505050600060405180830381600087803b15801561197b57600080fd5b505af115801561198f573d6000803e3d6000fd5b50505050600061199d613db0565b905060006119a9613ef9565b9050816119b68588613ee9565b11156119ee576040805162461bcd60e51b8152602060048201526002602482015261046360f41b604482015290519081900360640190fd5b806119f98487613ee9565b1115611a31576040805162461bcd60e51b8152602060048201526002602482015261463160f01b604482015290519081900360640190fd5b8382038382038115611ac05760008054600160e81b9004600f16908115611a64578160ff168481611a5e57fe5b04611a67565b60005b90506001600160801b03811615611a9a57600380546001600160801b038082168401166001600160801b03199091161790555b611ab4818503600160801b8d6001600160801b03166133fa565b60018054909101905550505b8015611b4b5760008054600160e81b900460041c600f16908115611af0578160ff168381611aea57fe5b04611af3565b60005b90506001600160801b03811615611b2557600380546001600160801b03600160801b8083048216850182160291161790555b611b3f818403600160801b8d6001600160801b03166133fa565b60028054909101905550505b8d6001600160a01b0316336001600160a01b03167fbdbdb71d7860376ba52b25a5028beea23581364a40522f6bcfb86bb1f2dca6338f8f86866040518085815260200184815260200183815260200182815260200194505050505060405180910390a350506000805460ff60f01b1916600160f01b179055505050505050505050505050565b600080548190600160f01b900460ff16611c18576040805162461bcd60e51b81526020600482015260036024820152624c4f4b60e81b604482015290519081900360640190fd5b6000805460ff60f01b19168155611c3260073389896142b7565b60038101549091506001600160801b0390811690861611611c535784611c62565b60038101546001600160801b03165b60038201549093506001600160801b03600160801b909104811690851611611c8a5783611ca0565b6003810154600160801b90046001600160801b03165b91506001600160801b03831615611d05576003810180546001600160801b031981166001600160801b03918216869003821617909155611d05907f0000000000000000000000000000000000000000000000000000000000000000908a908616613c62565b6001600160801b03821615611d6b576003810180546001600160801b03600160801b808304821686900382160291811691909117909155611d6b907f0000000000000000000000000000000000000000000000000000000000000000908a908516613c62565b604080516001600160a01b038a1681526001600160801b0380861660208301528416818301529051600288810b92908a900b9133917f70935338e69775456a85ddef226c395fb668b63fa0115f5f20610b388e6ca9c0919081900360600190a4506000805460ff60f01b1916600160f01b17905590969095509350505050565b60076020526000908152604090208054600182015460028301546003909301546001600160801b0392831693919281811691600160801b90041685565b60066020526000908152604090205481565b7f00000000000000000000000000000000000000000000000000000000000000006001600160a01b0316836001600160a01b03161415611eb357611e8c670de0b6b3a764000060c083901b5b0461431b565b6201000780546001600160a01b0319166001600160a01b0392909216919091179055611eeb565b611ec8816503782dace9d960d21b81611e8657fe5b6201000780546001600160a01b0319166001600160a01b03929092169190911790555b505050565b7f000000000000000000000000000000000000000000000000000000000000000081565b7f00000000000000000000000000000000000000000000000000000000000000006001600160a01b0316836001600160a01b03161415611f8957611f64670de0b6b3a764000060c083901b611e86565b600080546001600160a01b0319166001600160a01b0392909216919091179055611fbf565b611f9e816503782dace9d960d21b81611e8657fe5b600080546001600160a01b0319166001600160a01b03929092169190911790555b600054611fd4906001600160a01b03166137ac565b6000805460029290920b62ffffff16600160a01b0262ffffff60a01b19909216919091179055505050565b600054600160f01b900460ff16612043576040805162461bcd60e51b81526020600482015260036024820152624c4f4b60e81b604482015290519081900360640190fd5b6000805460ff60f01b1916905560408051638da5cb5b60e01b815290516001600160a01b037f00000000000000000000000000000000000000000000000000000000000000001691638da5cb5b916004808301926020929190829003018186803b1580156120b057600080fd5b505afa1580156120c4573d6000803e3d6000fd5b505050506040513d60208110156120da57600080fd5b50516001600160a01b031633146120f057600080fd5b60ff82161580612113575060048260ff16101580156121135750600a8260ff1611155b801561213d575060ff8116158061213d575060048160ff161015801561213d5750600a8160ff1611155b61214657600080fd5b60008054610ff0600484901b16840160ff908116600160e81b90810260ff60e81b19841617909355919004167f973d8d92bb299f4af6ce49b52a8adb85ae46b9f214c4c4fc06ac77401237b1336010826040805160ff9390920683168252600f600486901c16602083015286831682820152918516606082015290519081900360800190a150506000805460ff60f01b1916600160f01b17905550565b600080548190600160f01b900460ff1661222a576040805162461bcd60e51b81526020600482015260036024820152624c4f4b60e81b604482015290519081900360640190fd5b6000805460ff60f01b1916905560408051638da5cb5b60e01b815290516001600160a01b037f00000000000000000000000000000000000000000000000000000000000000001691638da5cb5b916004808301926020929190829003018186803b15801561229757600080fd5b505afa1580156122ab573d6000803e3d6000fd5b505050506040513d60208110156122c157600080fd5b50516001600160a01b031633146122d757600080fd5b6003546001600160801b03908116908516116122f35783612300565b6003546001600160801b03165b6003549092506001600160801b03600160801b909104811690841611612326578261233a565b600354600160801b90046001600160801b03165b90506001600160801b038216156123bb576003546001600160801b038381169116141561236957600019909101905b600380546001600160801b031981166001600160801b039182168590038216179091556123bb907f00000000000000000000000000000000000000000000000000000000000000009087908516613c62565b6001600160801b03811615612441576003546001600160801b03828116600160801b9092041614156123ec57600019015b600380546001600160801b03600160801b808304821685900382160291811691909117909155612441907f00000000000000000000000000000000000000000000000000000000000000009087908416613c62565b604080516001600160801b0380851682528316602082015281516001600160a01b0388169233927f596b573906218d3411850b26a6b437d6c4522fdb43d2d2386263f86d50b8b151929081900390910190a36000805460ff60f01b1916600160f01b1790559094909350915050565b6060808267ffffffffffffffff811180156124ca57600080fd5b506040519080825280602002602001820160405280156124f4578160200160208202803683370190505b5091508267ffffffffffffffff8111801561250e57600080fd5b50604051908082528060200260200182016040528015612538578160200160208202803683370190505b509050600082600186869050038151811061254f57fe5b602002602001019060060b908160060b81525050838390506002141561260a5762010007546001600160a01b03166125a95760008260008151811061259057fe5b602002602001019060060b908160060b81525050612605565b838360018181106125b657fe5b620100075463ffffffff6020909202939093013516916125df91506001600160a01b03166137ac565b60020b02826000815181106125f057fe5b602002602001019060060b908160060b815250505b61270e565b600383141561270e5762010007546001600160a01b03166126575760008260008151811061263457fe5b602002602001019060060b908160060b815250506000826001815181106125f057fe5b8383600281811061266457fe5b620100075463ffffffff60209092029390930135169161268d91506001600160a01b03166137ac565b60020b028260008151811061269e57fe5b602002602001019060060b908160060b81525050838360018181106126bf57fe5b620100075463ffffffff6020909202939093013516916126e891506001600160a01b03166137ac565b60020b02826001815181106126f957fe5b602002602001019060060b908160060b815250505b9250929050565b600080548190600160f01b900460ff1661275c576040805162461bcd60e51b81526020600482015260036024820152624c4f4b60e81b604482015290519081900360640190fd5b6000805460ff60f01b1916815560408051608081018252338152600288810b602083015287900b91810191909152819081906127b590606081016127a86001600160801b038a16614034565b600003600f0b9052614045565b92509250925081600003945080600003935060008511806127d65750600084115b15612815576003830180546001600160801b038082168089018216600160801b93849004831689019092169092029091176001600160801b0319161790555b604080516001600160801b0388168152602081018790528082018690529051600289810b92908b900b9133917f0c396cd989a39f4459b5fa1aed6a9a8dcdbc45908acfd67e028cd568da98982c919081900360600190a450506000805460ff60f01b1916600160f01b179055509094909350915050565b600080600061289b858561436c565b600285810b810b60009081526005602052604080822087840b90930b825281206003830154600681900b93600160381b82046001600160a01b0316928492600160d81b810463ffffffff169284929091600160f81b900460ff16806128ff57600080fd5b6003820154600681900b9850600160381b81046001600160a01b03169650600160d81b810463ffffffff169450600160f81b900460ff168061294057600080fd5b50506040805160e0810182526000546001600160a01b0381168252600160a01b8104600290810b810b810b6020840181905261ffff600160b81b8404811695850195909552600160c81b830485166060850152600160d81b8304909416608084015260ff600160e81b8304811660a0850152600160f01b909204909116151560c08301529093508e810b91900b121590506129e957509390940396509003935090039050612a6c565b8a60020b816020015160020b1215612a5d576000612a05612d49565b6020830151604084015160045460608601519394506000938493612a3b936008938893879392916001600160801b0316906134aa565b9a9003989098039b505094909603929092039650909103039250612a6c915050565b50949093039650039350900390505b9250925092565b7f000000000000000000000000000000000000000000000000000000000000000081565b7f000000000000000000000000000000000000000000000000000000000000000081565b7f000000000000000000000000000000000000000000000000000000000000000081565b7f000000000000000000000000000000000000000000000000000000000000000081565b60015481565b60056020526000908152604090208054600182015460028301546003909301546001600160801b03831693600160801b909304600f0b9290600681900b90600160381b81046001600160a01b031690600160d81b810463ffffffff1690600160f81b900460ff1688565b6000546001600160a01b031615612bb6576040805162461bcd60e51b8152602060048201526002602482015261414960f01b604482015290519081900360640190fd5b6000612bc1826137ac565b9050600080612bd9612bd1612d49565b600890614435565b6040805160e0810182526001600160a01b038816808252600288810b6020808501829052600085870181905261ffff898116606088018190529089166080880181905260a08801839052600160c0909801979097528154600160f01b6001600160a01b0319909116871762ffffff60a01b1916600160a01b62ffffff9787900b97909716969096029590951763ffffffff60b81b1916600160c81b9091021761ffff60d81b1916600160d81b9096029590951761ffff60e81b191692909217909355835191825281019190915281519395509193507f98636036cb66a9c19a37435efc1e90142190214e8abeb821bdba3f2990dd4c9592918290030190a150505050565b60008082600281900b620d89e71981612cf257fe5b05029050600083600281900b620d89e881612d0957fe5b0502905060008460020b83830360020b81612d2057fe5b0560010190508062ffffff166001600160801b03801681612d3d57fe5b0493505050505b919050565b4290565b60008060008460020b8660020b81612d6157fe5b05905060008660020b128015612d8857508460020b8660020b81612d8157fe5b0760020b15155b15612d9257600019015b8315612e0757600080612da483614481565b600182810b810b600090815260208d9052604090205460ff83169190911b80016000190190811680151597509294509092509085612de957888360ff16860302612dfc565b88612df382614493565b840360ff168603025b965050505050612e85565b600080612e1683600101614481565b91509150600060018260ff166001901b031990506000818b60008660010b60010b8152602001908152602001600020541690508060001415955085612e6857888360ff0360ff16866001010102612e7e565b8883612e7383614532565b0360ff168660010101025b9650505050505b5094509492505050565b60008060008360020b12612ea6578260020b612eae565b8260020b6000035b9050620d89e8811115612eec576040805162461bcd60e51b81526020600482015260016024820152601560fa1b604482015290519081900360640190fd5b600060018216612f0057600160801b612f12565b6ffffcb933bd6fad37aa2d162d1a5940015b70ffffffffffffffffffffffffffffffffff1690506002821615612f46576ffff97272373d413259a46990580e213a0260801c5b6004821615612f65576ffff2e50f5f656932ef12357cf3c7fdcc0260801c5b6008821615612f84576fffe5caca7e10e4e61c3624eaa0941cd00260801c5b6010821615612fa3576fffcb9843d60f6159c9db58835c9266440260801c5b6020821615612fc2576fff973b41fa98c081472e6896dfb254c00260801c5b6040821615612fe1576fff2ea16466c96a3843ec78b326b528610260801c5b6080821615613000576ffe5dee046a99a2a811c461f1969c30530260801c5b610100821615613020576ffcbe86c7900a88aedcffc83b479aa3a40260801c5b610200821615613040576ff987a7253ac413176f2b074cf7815e540260801c5b610400821615613060576ff3392b0822b70005940c7a398e4b70f30260801c5b610800821615613080576fe7159475a2c29b7443b29c7fa6e889d90260801c5b6110008216156130a0576fd097f3bdfd2022b8845ad8f792aa58250260801c5b6120008216156130c0576fa9f746462d870fdf8a65dc1f90e061e50260801c5b6140008216156130e0576f70d869a156d2a1b890bb3df62baf32f70260801c5b618000821615613100576f31be135f97d08fd981231505542fcfa60260801c5b62010000821615613121576f09aa508b5b7a84e1c677de54f3e99bc90260801c5b62020000821615613141576e5d6af8dedb81196699c329225ee6040260801c5b62040000821615613160576d2216e584f5fa1ea926041bedfe980260801c5b6208000082161561317d576b048a170391f7dc42444e8fa20260801c5b60008460020b131561319857806000198161319457fe5b0490505b600160201b8106156131ab5760016131ae565b60005b60ff16602082901c0192505050919050565b60008080806001600160a01b03808916908a1610158187128015906132455760006131f98989620f42400362ffffff16620f42406133fa565b9050826132125761320d8c8c8c600161461c565b61321f565b61321f8b8d8c6001614697565b9550858110613230578a965061323f565b61323c8c8b8386614742565b96505b5061328f565b8161325c576132578b8b8b6000614697565b613269565b6132698a8c8b600061461c565b935083886000031061327d5789955061328f565b61328c8b8a8a6000038561478e565b95505b6001600160a01b038a81169087161482156132f2578080156132ae5750815b6132c4576132bf878d8c6001614697565b6132c6565b855b95508080156132d3575081155b6132e9576132e4878d8c600061461c565b6132eb565b845b945061333c565b8080156132fc5750815b6133125761330d8c888c600161461c565b613314565b855b9550808015613321575081155b613337576133328c888c6000614697565b613339565b845b94505b8115801561334c57508860000385115b15613358578860000394505b81801561337757508a6001600160a01b0316876001600160a01b031614155b156133865785890393506133a3565b6133a0868962ffffff168a620f42400362ffffff1661427d565b93505b50505095509550955095915050565b6000600160ff1b82106133c457600080fd5b5090565b808203828113156000831215146133de57600080fd5b92915050565b818101828112156000831215146133de57600080fd5b6000808060001985870986860292508281109083900303905080613430576000841161342557600080fd5b5082900490506134a3565b80841161343c57600080fd5b6000848688096000868103871696879004966002600389028118808a02820302808a02820302808a02820302808a02820302808a02820302808a02909103029181900381900460010186841190950394909402919094039290920491909117919091029150505b9392505050565b60008063ffffffff8716613550576000898661ffff1661ffff81106134cb57fe5b60408051608081018252919092015463ffffffff808216808452600160201b8304600690810b810b900b6020850152600160581b83046001600160a01b031694840194909452600160f81b90910460ff16151560608301529092508a161461353c57613539818a89886147da565b90505b806020015181604001519250925050613630565b8688036000806135658c8c858c8c8c8c61487d565b91509150816000015163ffffffff168363ffffffff161415613597578160200151826040015194509450505050613630565b805163ffffffff848116911614156135bf578060200151816040015194509450505050613630565b8151815160208085015190840151918390039286039163ffffffff80841692908516910360060b816135ed57fe5b05028460200151018263ffffffff168263ffffffff1686604001518660400151036001600160a01b0316028161361f57fe5b048560400151019650965050505050505b97509795505050505050565b600295860b860b60009081526020979097526040909620600181018054909503909455938301805490920390915560038201805463ffffffff600160d81b6001600160a01b03600160381b808504821690960316909402600160381b600160d81b031990921691909117600681810b90960390950b66ffffffffffffff1666ffffffffffffff199095169490941782810485169095039093160263ffffffff60d81b1990931692909217905554600160801b9004600f0b90565b60008082600f0b121561375b57826001600160801b03168260000384039150816001600160801b031610613756576040805162461bcd60e51b81526020600482015260026024820152614c5360f01b604482015290519081900360640190fd5b6133de565b826001600160801b03168284019150816001600160801b031610156133de576040805162461bcd60e51b81526020600482015260026024820152614c4160f01b604482015290519081900360640190fd5b60006401000276a36001600160a01b038316108015906137e8575073fffd8963efd1fc6a506488495d951d5263988d266001600160a01b038316105b61381d576040805162461bcd60e51b81526020600482015260016024820152602960f91b604482015290519081900360640190fd5b640100000000600160c01b03602083901b166001600160801b03811160071b81811c67ffffffffffffffff811160061b90811c63ffffffff811160051b90811c61ffff811160041b90811c60ff8111600390811b91821c600f811160021b90811c918211600190811b92831c979088119617909417909217179091171717608081106138b157607f810383901c91506138bb565b80607f0383901b91505b908002607f81811c60ff83811c9190911c800280831c81831c1c800280841c81841c1c800280851c81851c1c800280861c81861c1c800280871c81871c1c800280881c81881c1c800280891c81891c1c8002808a1c818a1c1c8002808b1c818b1c1c8002808c1c818c1c1c8002808d1c818d1c1c8002808e1c9c81901c9c909c1c80029c8d901c9e9d607f198f0160401b60c09190911c678000000000000000161760c19b909b1c674000000000000000169a909a1760c29990991c672000000000000000169890981760c39790971c671000000000000000169690961760c49590951c670800000000000000169490941760c59390931c670400000000000000169290921760c69190911c670200000000000000161760c79190911c600160381b161760c89190911c6680000000000000161760c99190911c6640000000000000161760ca9190911c6620000000000000161760cb9190911c6610000000000000161760cc9190911c6608000000000000161760cd9190911c66040000000000001617693627a301d71055774c8581026f028f6481ab7f045a5af012a19d003aa9198101608090811d906fdb2df09e81959a81455e260799a0632f8301901d600281810b9083900b14613ab857886001600160a01b0316613a9c82612e8f565b6001600160a01b03161115613ab15781613ab3565b805b613aba565b815b9998505050505050505050565b6000806000898961ffff1661ffff8110613add57fe5b60408051608081018252919092015463ffffffff808216808452600160201b8304600690810b810b900b6020850152600160581b83046001600160a01b031694840194909452600160f81b90910460ff161515606083015290925089161415613b4c5788859250925050613630565b8461ffff168461ffff16118015613b6d57506001850361ffff168961ffff16145b15613b7a57839150613b7e565b8491505b8161ffff168960010161ffff1681613b9257fe5b069250613ba1818989896147da565b8a8461ffff1661ffff8110613bb257fe5b825191018054602084015160408501516060909501511515600160f81b026001600160f81b036001600160a01b03909616600160581b027fff0000000000000000000000000000000000000000ffffffffffffffffffffff60069390930b66ffffffffffffff16600160201b026affffffffffffff000000001963ffffffff90971663ffffffff199095169490941795909516929092171692909217929092161790555097509795505050505050565b604080516001600160a01b038481166024830152604480830185905283518084039091018152606490920183526020820180516001600160e01b031663a9059cbb60e01b1781529251825160009485949389169392918291908083835b60208310613cde5780518252601f199092019160209182019101613cbf565b6001836020036101000a0380198251168184511680821785525050505050509050019150506000604051808303816000865af19150503d8060008114613d40576040519150601f19603f3d011682016040523d82523d6000602084013e613d45565b606091505b5091509150818015613d73575080511580613d735750808060200190516020811015613d7057600080fd5b50515b613da9576040805162461bcd60e51b81526020600482015260026024820152612a2360f11b604482015290519081900360640190fd5b5050505050565b604080513060248083019190915282518083039091018152604490910182526020810180516001600160e01b03166370a0823160e01b17815291518151600093849384936001600160a01b037f00000000000000000000000000000000000000000000000000000000000000001693919290918291908083835b60208310613e495780518252601f199092019160209182019101613e2a565b6001836020036101000a038019825116818451168082178552505050505050905001915050600060405180830381855afa9150503d8060008114613ea9576040519150601f19603f3d011682016040523d82523d6000602084013e613eae565b606091505b5091509150818015613ec257506020815110155b613ecb57600080fd5b808060200190516020811015613ee057600080fd5b50519250505090565b808201828110156133de57600080fd5b604080513060248083019190915282518083039091018152604490910182526020810180516001600160e01b03166370a0823160e01b17815291518151600093849384936001600160a01b037f000000000000000000000000000000000000000000000000000000000000000016939192909182919080838360208310613e495780518252601f199092019160209182019101613e2a565b6000808361ffff1611613fcf576040805162461bcd60e51b81526020600482015260016024820152604960f81b604482015290519081900360640190fd5b8261ffff168261ffff1611613fe55750816134a3565b825b8261ffff168161ffff16101561402b576001858261ffff1661ffff811061400a57fe5b01805463ffffffff191663ffffffff92909216919091179055600101613fe7565b50909392505050565b80600f81900b8114612d4457600080fd5b600080600061405c8460200151856040015161436c565b6040805160e0810182526000546001600160a01b0381168252600160a01b8104600290810b810b900b602080840182905261ffff600160b81b8404811685870152600160c81b84048116606080870191909152600160d81b8504909116608086015260ff600160e81b8504811660a0870152600160f01b909404909316151560c0850152885190890151948901519289015193946141009491939092909190614a77565b93508460600151600f0b60001461427557846020015160020b816020015160020b12156141555761414e6141378660200151612e8f565b6141448760400151612e8f565b8760600151614c2c565b9250614275565b846040015160020b816020015160020b121561424b5760045460408201516001600160801b03909116906141a79061418b612d49565b6020850151606086015160808701516008949392918791613ac7565b6000805461ffff60c81b1916600160c81b61ffff938416021761ffff60b81b1916600160b81b9390921692909202179055815160408701516141f791906141ed90612e8f565b8860600151614c2c565b93506142156142098760200151612e8f565b83516060890151614c70565b92506142258187606001516136f6565b600480546001600160801b0319166001600160801b039290921691909117905550614275565b61427261425b8660200151612e8f565b6142688760400151612e8f565b8760600151614c70565b91505b509193909250565b600061428a8484846133fa565b90506000828061429657fe5b84860911156134a35760001981106142ad57600080fd5b6001019392505050565b6040805160609490941b6bffffffffffffffffffffffff1916602080860191909152600293840b60e890811b60348701529290930b90911b60378401528051808403601a018152603a90930181528251928201929092206000908152929052902090565b6000600382111561435e575080600160028204015b818110156143585780915060028182858161434757fe5b04018161435057fe5b049050614330565b50612d44565b8115612d4457506001919050565b8060020b8260020b126143ac576040805162461bcd60e51b8152602060048201526003602482015262544c5560e81b604482015290519081900360640190fd5b620d89e719600283900b12156143ef576040805162461bcd60e51b8152602060048201526003602482015262544c4d60e81b604482015290519081900360640190fd5b620d89e8600282900b1315614431576040805162461bcd60e51b815260206004820152600360248201526254554d60e81b604482015290519081900360640190fd5b5050565b6040805160808101825263ffffffff9283168082526000602083018190529282019290925260016060909101819052835463ffffffff1916909117909116600160f81b17909155908190565b60020b600881901d9161010090910790565b60008082116144a157600080fd5b600160801b82106144b457608091821c91015b6801000000000000000082106144cc57604091821c91015b600160201b82106144df57602091821c91015b6201000082106144f157601091821c91015b610100821061450257600891821c91015b6010821061451257600491821c91015b6004821061452257600291821c91015b60028210612d4457600101919050565b600080821161454057600080fd5b5060ff6001600160801b0382161561455b57607f1901614563565b608082901c91505b67ffffffffffffffff82161561457c57603f1901614584565b604082901c91505b63ffffffff82161561459957601f19016145a1565b602082901c91505b61ffff8216156145b457600f19016145bc565b601082901c91505b60ff8216156145ce57600719016145d6565b600882901c91505b600f8216156145e857600319016145f0565b600482901c91505b6003821615614602576001190161460a565b600282901c91505b6001821615612d445760001901919050565b6000836001600160a01b0316856001600160a01b0316111561463c579293925b8161466957614664836001600160801b03168686036001600160a01b0316600160601b6133fa565b61468c565b61468c836001600160801b03168686036001600160a01b0316600160601b61427d565b90505b949350505050565b6000836001600160a01b0316856001600160a01b031611156146b7579293925b600160601b600160e01b03606084901b166001600160a01b0386860381169087166146e157600080fd5b8361471157866001600160a01b03166147048383896001600160a01b03166133fa565b8161470b57fe5b04614737565b6147376147288383896001600160a01b031661427d565b886001600160a01b0316614c9f565b979650505050505050565b600080856001600160a01b03161161475957600080fd5b6000846001600160801b03161161476f57600080fd5b81614781576146648585856001614caa565b61468c8585856001614d8b565b600080856001600160a01b0316116147a557600080fd5b6000846001600160801b0316116147bb57600080fd5b816147cd576146648585856000614d8b565b61468c8585856000614caa565b6147e26155ab565b600085600001518503905060405180608001604052808663ffffffff1681526020018263ffffffff168660020b0288602001510160060b81526020016000856001600160801b031611614836576001614838565b845b6001600160801b031663ffffffff60801b608085901b168161485657fe5b048860400151016001600160a01b0316815260200160011515815250915050949350505050565b6148856155ab565b61488d6155ab565b888561ffff1661ffff811061489e57fe5b60408051608081018252919092015463ffffffff8116808352600160201b8204600690810b810b900b6020840152600160581b82046001600160a01b031693830193909352600160f81b900460ff1615156060820152925061490290899089614e6e565b1561493a578663ffffffff16826000015163ffffffff16141561492457613630565b81614931838989886147da565b91509150613630565b888361ffff168660010161ffff168161494f57fe5b0661ffff1661ffff811061495f57fe5b60408051608081018252929091015463ffffffff81168352600160201b8104600690810b810b900b60208401526001600160a01b03600160581b8204169183019190915260ff600160f81b90910416151560608201819052909250614a1457604080516080810182528a5463ffffffff81168252600160201b8104600690810b810b900b6020830152600160581b81046001600160a01b031692820192909252600160f81b90910460ff161515606082015291505b614a2388836000015189614e6e565b614a5a576040805162461bcd60e51b815260206004820152600360248201526213d31160ea1b604482015290519081900360640190fd5b614a678989898887614f2f565b9150915097509795505050505050565b6000614a8660078787876142b7565b60015460025491925090600080600f87900b15614bcc576000614aa7612d49565b6000805460045492935090918291614af19160089186918591600160a01b810460020b9161ffff600160b81b83048116926001600160801b0390921691600160c81b9004166134aa565b9092509050614b2b60058d8b8d8b8b87898b60007f00000000000000000000000000000000000000000000000000000000000000006150cd565b9450614b6260058c8b8d8b8b87898b60017f00000000000000000000000000000000000000000000000000000000000000006150cd565b93508415614b9657614b9660068d7f0000000000000000000000000000000000000000000000000000000000000000615286565b8315614bc857614bc860068c7f0000000000000000000000000000000000000000000000000000000000000000615286565b5050505b600080614bde60058c8c8b8a8a6152ec565b9092509050614bef878a8484615398565b600089600f0b1215614c1d578315614c0c57614c0c60058c61552d565b8215614c1d57614c1d60058b61552d565b50505050505095945050505050565b60008082600f0b12614c5257614c4d614c488585856001614697565b6133b2565b61468f565b614c65614c488585856000036000614697565b600003949350505050565b60008082600f0b12614c8c57614c4d614c48858585600161461c565b614c65614c48858585600003600061461c565b808204910615150190565b60008115614d1d5760006001600160a01b03841115614ce057614cdb84600160601b876001600160801b03166133fa565b614cf8565b6001600160801b038516606085901b81614cf657fe5b045b9050614d15614d106001600160a01b03881683613ee9565b615559565b91505061468f565b60006001600160a01b03841115614d4b57614d4684600160601b876001600160801b031661427d565b614d62565b614d62606085901b6001600160801b038716614c9f565b905080866001600160a01b031611614d7957600080fd5b6001600160a01b03861603905061468f565b600082614d9957508361468f565b600160601b600160e01b03606085901b168215614e27576001600160a01b03861684810290858281614dc757fe5b041415614df857818101828110614df657614dec83896001600160a01b03168361427d565b935050505061468f565b505b614e1e82614e19878a6001600160a01b03168681614e1257fe5b0490613ee9565b614c9f565b9250505061468f565b6001600160a01b03861684810290858281614e3e57fe5b04148015614e4b57508082115b614e5457600080fd5b808203614dec614d10846001600160a01b038b168461427d565b60008363ffffffff168363ffffffff1611158015614e9857508363ffffffff168263ffffffff1611155b15614eb4578163ffffffff168363ffffffff16111590506134a3565b60008463ffffffff168463ffffffff1611614edb578363ffffffff16600160201b01614ee3565b8363ffffffff165b64ffffffffff16905060008563ffffffff168463ffffffff1611614f13578363ffffffff16600160201b01614f1b565b8363ffffffff165b64ffffffffff169091111595945050505050565b614f376155ab565b614f3f6155ab565b60008361ffff168560010161ffff1681614f5557fe5b0661ffff169050600060018561ffff16830103905060005b506002818301048961ffff87168281614f8257fe5b0661ffff8110614f8e57fe5b60408051608081018252929091015463ffffffff81168352600160201b8104600690810b810b900b60208401526001600160a01b03600160581b8204169183019190915260ff600160f81b90910416151560608201819052909550614ff857806001019250614f6d565b898661ffff16826001018161500957fe5b0661ffff811061501557fe5b60408051608081018252929091015463ffffffff81168352600160201b8104600690810b810b900b60208401526001600160a01b03600160581b8204169183019190915260ff600160f81b9091041615156060820152855190945060009061507f908b908b614e6e565b905080801561509857506150988a8a8760000151614e6e565b156150a357506150c0565b806150b3576001820392506150ba565b8160010193505b50614f6d565b5050509550959350505050565b60028a810b900b600090815260208c90526040812080546001600160801b0316826150f8828d6136f6565b9050846001600160801b0316816001600160801b03161115615146576040805162461bcd60e51b81526020600482015260026024820152614c4f60f01b604482015290519081900360640190fd5b6001600160801b0382811615908216158114159450156151eb578c60020b8e60020b136151d357600183018b9055600283018a9055600383018054600160381b600160d81b031916600160381b6001600160a01b038c16021766ffffffffffffff191666ffffffffffffff60068b900b161763ffffffff60d81b1916600160d81b63ffffffff8a16021790555b6003830180546001600160f81b0316600160f81b1790555b82546001600160801b0319166001600160801b0382161783558561523457825461522f9061522a90600160801b9004600f90810b810b908f900b6133e4565b614034565b615255565b82546152559061522a90600160801b9004600f90810b810b908f900b6133c8565b8354600f9190910b6001600160801b03908116600160801b0291161790925550909c9b505050505050505050505050565b8060020b8260020b8161529557fe5b0760020b156152a357600080fd5b6000806152be8360020b8560020b816152b857fe5b05614481565b600191820b820b60009081526020979097526040909620805460ff9097169190911b90951890945550505050565b600285810b80820b60009081526020899052604080822088850b850b83529082209193849391929184918291908a900b1261533257505060018201546002830154615345565b8360010154880391508360020154870390505b6000808b60020b8b60020b12156153675750506001830154600284015461537a565b84600101548a0391508460020154890390505b92909803979097039b96909503949094039850939650505050505050565b6040805160a08101825285546001600160801b0390811682526001870154602083015260028701549282019290925260038601548083166060830152600160801b900490911660808201526000600f85900b6154375781516001600160801b031661542f576040805162461bcd60e51b815260206004820152600260248201526104e560f41b604482015290519081900360640190fd5b508051615446565b815161544390866136f6565b90505b600061546a8360200151860384600001516001600160801b0316600160801b6133fa565b905060006154908460400151860385600001516001600160801b0316600160801b6133fa565b905086600f0b6000146154b75787546001600160801b0319166001600160801b0384161788555b60018801869055600288018590556001600160801b0382161515806154e557506000816001600160801b0316115b15615523576003880180546001600160801b031981166001600160801b039182168501821617808216600160801b9182900483168501909216021790555b5050505050505050565b600290810b810b6000908152602092909252604082208281556001810183905590810182905560030155565b806001600160a01b0381168114612d4457600080fd5b6040805160e081018252600080825260208201819052918101829052606081018290526080810182905260a0810182905260c081019190915290565b6040805160808101825260008082526020820181905291810182905260608101919091529056fea26469706673582212209a0a5aa060139815b5e97d5b046900c5d3f6cf999fad075a810c7cad537000cd64736f6c63430007060033a2646970667358221220cbdf64d568f6a30e78a7a006efea8fedb9f930e6b15cbdf625e7582d955a944f64736f6c63430007060033c66a3fdf07232cdd185febcc6579d408c241b47ae2f9907d84be655141eeaecc",
  "immutableReferences": {},
  "source": "// SPDX-License-Identifier: BUSL-1.1\npragma solidity 0.7.6;\n\n\nimport '@uniswap/v3-core/contracts/interfaces/IUniswapV3Factory.sol';\n\nimport './MockUniswapV3Pair.sol';\n\n\ncontract MockUniswapV3Factory is IUniswapV3Factory {\n\n\n    address override public owner;\n    mapping(uint24 => int24) override public  feeAmountTickSpacing;\n    mapping(address => mapping(address => mapping(uint24 => address))) override public  getPool;\n\n    constructor() {\n        owner = msg.sender;\n        emit OwnerChanged(address(0), msg.sender);\n\n        feeAmountTickSpacing[500] = 10;\n        emit FeeAmountEnabled(500, 10);\n        feeAmountTickSpacing[3000] = 60;\n        emit FeeAmountEnabled(3000, 60);\n        feeAmountTickSpacing[10000] = 200;\n        emit FeeAmountEnabled(10000, 200);\n    }\n\n    struct Parameters {\n        address factory;\n        address token0;\n        address token1;\n        uint24 fee;\n        int24 tickSpacing;\n    }\n    /// @inheritdoc IUniswapV3Factory\n    function createPool(\n        address tokenA,\n        address tokenB,\n        uint24 fee\n    ) external override  returns (address pool) {\n        require(tokenA != tokenB);\n        (address token0, address token1) =tokenA<tokenB? (tokenA, tokenB):(tokenB, tokenA);\n        require(token0 != address(0));\n        int24 tickSpacing = feeAmountTickSpacing[fee];\n        require(tickSpacing != 0);\n        require(getPool[token0][token1][fee] == address(0));\n        pool = address(new MockUniswapV3Pair(address(this),token0, token1, fee, tickSpacing));\n        //        delete parameters;\n        //        pool = deploy(address(this), token0, token1, fee, tickSpacing);\n        getPool[token0][token1][fee] = pool;\n        // populate mapping in the reverse direction, deliberate choice to avoid the cost of comparing addresses\n        getPool[token1][token0][fee] = pool;\n        emit PoolCreated(token0, token1, fee, tickSpacing, pool);\n    }\n\n    /// @inheritdoc IUniswapV3Factory\n    function setOwner(address _owner) external override {\n        require(msg.sender == owner);\n        emit OwnerChanged(owner, _owner);\n        owner = _owner;\n    }\n\n    /// @inheritdoc IUniswapV3Factory\n    function enableFeeAmount(uint24 fee, int24 tickSpacing) public override {\n        require(msg.sender == owner);\n        require(fee < 1000000);\n        // tick spacing is capped at 16384 to prevent the situation where tickSpacing is so large that\n        // TickBitmap#nextInitializedTickWithinOneWord overflows int24 container from a valid tick\n        // 16384 ticks represents a >5x price change with ticks of 1 bips\n        require(tickSpacing > 0 && tickSpacing < 16384);\n        require(feeAmountTickSpacing[fee] == 0);\n\n        feeAmountTickSpacing[fee] = tickSpacing;\n        emit FeeAmountEnabled(fee, tickSpacing);\n    }\n\n}\n",
  "sourcePath": "/home/mingyue/Smartian/Web3Bugs/contracts/72/openleverage-contracts/contracts/test/MockUniswapV3Factory.sol",
  "compiler": {
    "name": "solc",
    "version": "0.7.6+commit.7338295f.Emscripten.clang"
  },
  "schemaVersion": "3.4.16",
  "updatedAt": "2025-02-26T03:48:00.799Z",
  "devdoc": {
    "kind": "dev",
    "methods": {
      "createPool(address,address,uint24)": {
        "details": "tokenA and tokenB may be passed in either order: token0/token1 or token1/token0. tickSpacing is retrieved from the fee. The call will revert if the pool already exists, the fee is invalid, or the token arguments are invalid.",
        "params": {
          "fee": "The desired fee for the pool",
          "tokenA": "One of the two tokens in the desired pool",
          "tokenB": "The other of the two tokens in the desired pool"
        },
        "returns": {
          "pool": "The address of the newly created pool"
        }
      },
      "enableFeeAmount(uint24,int24)": {
        "details": "Fee amounts may never be removed once enabled",
        "params": {
          "fee": "The fee amount to enable, denominated in hundredths of a bip (i.e. 1e-6)",
          "tickSpacing": "The spacing between ticks to be enforced for all pools created with the given fee amount"
        }
      },
      "setOwner(address)": {
        "details": "Must be called by the current owner",
        "params": {
          "_owner": "The new owner of the factory"
        }
      }
    },
    "stateVariables": {
      "feeAmountTickSpacing": {
        "details": "A fee amount can never be removed, so this value should be hard coded or cached in the calling context",
        "params": {
          "fee": "The enabled fee, denominated in hundredths of a bip. Returns 0 in case of unenabled fee"
        },
        "return": "The tick spacing"
      },
      "getPool": {
        "details": "tokenA and tokenB may be passed in either token0/token1 or token1/token0 order",
        "params": {
          "fee": "The fee collected upon every swap in the pool, denominated in hundredths of a bip",
          "tokenA": "The contract address of either token0 or token1",
          "tokenB": "The contract address of the other token"
        },
        "return": "pool The pool address"
      },
      "owner": {
        "details": "Can be changed by the current owner via setOwner",
        "return": "The address of the factory owner"
      }
    },
    "version": 1
  },
  "userdoc": {
    "events": {
      "FeeAmountEnabled(uint24,int24)": {
        "notice": "Emitted when a new fee amount is enabled for pool creation via the factory"
      },
      "OwnerChanged(address,address)": {
        "notice": "Emitted when the owner of the factory is changed"
      },
      "PoolCreated(address,address,uint24,int24,address)": {
        "notice": "Emitted when a pool is created"
      }
    },
    "kind": "user",
    "methods": {
      "createPool(address,address,uint24)": {
        "notice": "Creates a pool for the given two tokens and fee"
      },
      "enableFeeAmount(uint24,int24)": {
        "notice": "Enables a fee amount with the given tickSpacing"
      },
      "feeAmountTickSpacing(uint24)": {
        "notice": "Returns the tick spacing for a given fee amount, if enabled, or 0 if not enabled"
      },
      "getPool(address,address,uint24)": {
        "notice": "Returns the pool address for a given pair of tokens and a fee, or address 0 if it does not exist"
      },
      "owner()": {
        "notice": "Returns the current owner of the factory"
      },
      "setOwner(address)": {
        "notice": "Updates the owner of the factory"
      }
    },
    "version": 1
  }
}