{
  "contractName": "MockUniswapV3Pair",
  "abi": [
    {
      "inputs": [
        {
          "internalType": "address",
          "name": "_factory",
          "type": "address"
        },
        {
          "internalType": "address",
          "name": "_token0",
          "type": "address"
        },
        {
          "internalType": "address",
          "name": "_token1",
          "type": "address"
        },
        {
          "internalType": "uint24",
          "name": "_fee",
          "type": "uint24"
        },
        {
          "internalType": "int24",
          "name": "_tickSpacing",
          "type": "int24"
        }
      ],
      "stateMutability": "nonpayable",
      "type": "constructor"
    },
    {
      "anonymous": false,
      "inputs": [
        {
          "indexed": true,
          "internalType": "address",
          "name": "owner",
          "type": "address"
        },
        {
          "indexed": true,
          "internalType": "int24",
          "name": "tickLower",
          "type": "int24"
        },
        {
          "indexed": true,
          "internalType": "int24",
          "name": "tickUpper",
          "type": "int24"
        },
        {
          "indexed": false,
          "internalType": "uint128",
          "name": "amount",
          "type": "uint128"
        },
        {
          "indexed": false,
          "internalType": "uint256",
          "name": "amount0",
          "type": "uint256"
        },
        {
          "indexed": false,
          "internalType": "uint256",
          "name": "amount1",
          "type": "uint256"
        }
      ],
      "name": "Burn",
      "type": "event"
    },
    {
      "anonymous": false,
      "inputs": [
        {
          "indexed": true,
          "internalType": "address",
          "name": "owner",
          "type": "address"
        },
        {
          "indexed": false,
          "internalType": "address",
          "name": "recipient",
          "type": "address"
        },
        {
          "indexed": true,
          "internalType": "int24",
          "name": "tickLower",
          "type": "int24"
        },
        {
          "indexed": true,
          "internalType": "int24",
          "name": "tickUpper",
          "type": "int24"
        },
        {
          "indexed": false,
          "internalType": "uint128",
          "name": "amount0",
          "type": "uint128"
        },
        {
          "indexed": false,
          "internalType": "uint128",
          "name": "amount1",
          "type": "uint128"
        }
      ],
      "name": "Collect",
      "type": "event"
    },
    {
      "anonymous": false,
      "inputs": [
        {
          "indexed": true,
          "internalType": "address",
          "name": "sender",
          "type": "address"
        },
        {
          "indexed": true,
          "internalType": "address",
          "name": "recipient",
          "type": "address"
        },
        {
          "indexed": false,
          "internalType": "uint128",
          "name": "amount0",
          "type": "uint128"
        },
        {
          "indexed": false,
          "internalType": "uint128",
          "name": "amount1",
          "type": "uint128"
        }
      ],
      "name": "CollectProtocol",
      "type": "event"
    },
    {
      "anonymous": false,
      "inputs": [
        {
          "indexed": true,
          "internalType": "address",
          "name": "sender",
          "type": "address"
        },
        {
          "indexed": true,
          "internalType": "address",
          "name": "recipient",
          "type": "address"
        },
        {
          "indexed": false,
          "internalType": "uint256",
          "name": "amount0",
          "type": "uint256"
        },
        {
          "indexed": false,
          "internalType": "uint256",
          "name": "amount1",
          "type": "uint256"
        },
        {
          "indexed": false,
          "internalType": "uint256",
          "name": "paid0",
          "type": "uint256"
        },
        {
          "indexed": false,
          "internalType": "uint256",
          "name": "paid1",
          "type": "uint256"
        }
      ],
      "name": "Flash",
      "type": "event"
    },
    {
      "anonymous": false,
      "inputs": [
        {
          "indexed": false,
          "internalType": "uint16",
          "name": "observationCardinalityNextOld",
          "type": "uint16"
        },
        {
          "indexed": false,
          "internalType": "uint16",
          "name": "observationCardinalityNextNew",
          "type": "uint16"
        }
      ],
      "name": "IncreaseObservationCardinalityNext",
      "type": "event"
    },
    {
      "anonymous": false,
      "inputs": [
        {
          "indexed": false,
          "internalType": "uint160",
          "name": "sqrtPriceX96",
          "type": "uint160"
        },
        {
          "indexed": false,
          "internalType": "int24",
          "name": "tick",
          "type": "int24"
        }
      ],
      "name": "Initialize",
      "type": "event"
    },
    {
      "anonymous": false,
      "inputs": [
        {
          "indexed": false,
          "internalType": "address",
          "name": "sender",
          "type": "address"
        },
        {
          "indexed": true,
          "internalType": "address",
          "name": "owner",
          "type": "address"
        },
        {
          "indexed": true,
          "internalType": "int24",
          "name": "tickLower",
          "type": "int24"
        },
        {
          "indexed": true,
          "internalType": "int24",
          "name": "tickUpper",
          "type": "int24"
        },
        {
          "indexed": false,
          "internalType": "uint128",
          "name": "amount",
          "type": "uint128"
        },
        {
          "indexed": false,
          "internalType": "uint256",
          "name": "amount0",
          "type": "uint256"
        },
        {
          "indexed": false,
          "internalType": "uint256",
          "name": "amount1",
          "type": "uint256"
        }
      ],
      "name": "Mint",
      "type": "event"
    },
    {
      "anonymous": false,
      "inputs": [
        {
          "indexed": false,
          "internalType": "uint8",
          "name": "feeProtocol0Old",
          "type": "uint8"
        },
        {
          "indexed": false,
          "internalType": "uint8",
          "name": "feeProtocol1Old",
          "type": "uint8"
        },
        {
          "indexed": false,
          "internalType": "uint8",
          "name": "feeProtocol0New",
          "type": "uint8"
        },
        {
          "indexed": false,
          "internalType": "uint8",
          "name": "feeProtocol1New",
          "type": "uint8"
        }
      ],
      "name": "SetFeeProtocol",
      "type": "event"
    },
    {
      "anonymous": false,
      "inputs": [
        {
          "indexed": true,
          "internalType": "address",
          "name": "sender",
          "type": "address"
        },
        {
          "indexed": true,
          "internalType": "address",
          "name": "recipient",
          "type": "address"
        },
        {
          "indexed": false,
          "internalType": "int256",
          "name": "amount0",
          "type": "int256"
        },
        {
          "indexed": false,
          "internalType": "int256",
          "name": "amount1",
          "type": "int256"
        },
        {
          "indexed": false,
          "internalType": "uint160",
          "name": "sqrtPriceX96",
          "type": "uint160"
        },
        {
          "indexed": false,
          "internalType": "uint128",
          "name": "liquidity",
          "type": "uint128"
        },
        {
          "indexed": false,
          "internalType": "int24",
          "name": "tick",
          "type": "int24"
        }
      ],
      "name": "Swap",
      "type": "event"
    },
    {
      "inputs": [],
      "name": "factory",
      "outputs": [
        {
          "internalType": "address",
          "name": "",
          "type": "address"
        }
      ],
      "stateMutability": "view",
      "type": "function"
    },
    {
      "inputs": [],
      "name": "fee",
      "outputs": [
        {
          "internalType": "uint24",
          "name": "",
          "type": "uint24"
        }
      ],
      "stateMutability": "view",
      "type": "function"
    },
    {
      "inputs": [],
      "name": "feeGrowthGlobal0X128",
      "outputs": [
        {
          "internalType": "uint256",
          "name": "",
          "type": "uint256"
        }
      ],
      "stateMutability": "view",
      "type": "function"
    },
    {
      "inputs": [],
      "name": "feeGrowthGlobal1X128",
      "outputs": [
        {
          "internalType": "uint256",
          "name": "",
          "type": "uint256"
        }
      ],
      "stateMutability": "view",
      "type": "function"
    },
    {
      "inputs": [],
      "name": "liquidity",
      "outputs": [
        {
          "internalType": "uint128",
          "name": "",
          "type": "uint128"
        }
      ],
      "stateMutability": "view",
      "type": "function"
    },
    {
      "inputs": [],
      "name": "maxLiquidityPerTick",
      "outputs": [
        {
          "internalType": "uint128",
          "name": "",
          "type": "uint128"
        }
      ],
      "stateMutability": "view",
      "type": "function"
    },
    {
      "inputs": [
        {
          "internalType": "uint256",
          "name": "",
          "type": "uint256"
        }
      ],
      "name": "observations",
      "outputs": [
        {
          "internalType": "uint32",
          "name": "blockTimestamp",
          "type": "uint32"
        },
        {
          "internalType": "int56",
          "name": "tickCumulative",
          "type": "int56"
        },
        {
          "internalType": "uint160",
          "name": "secondsPerLiquidityCumulativeX128",
          "type": "uint160"
        },
        {
          "internalType": "bool",
          "name": "initialized",
          "type": "bool"
        }
      ],
      "stateMutability": "view",
      "type": "function"
    },
    {
      "inputs": [
        {
          "internalType": "bytes32",
          "name": "",
          "type": "bytes32"
        }
      ],
      "name": "positions",
      "outputs": [
        {
          "internalType": "uint128",
          "name": "liquidity",
          "type": "uint128"
        },
        {
          "internalType": "uint256",
          "name": "feeGrowthInside0LastX128",
          "type": "uint256"
        },
        {
          "internalType": "uint256",
          "name": "feeGrowthInside1LastX128",
          "type": "uint256"
        },
        {
          "internalType": "uint128",
          "name": "tokensOwed0",
          "type": "uint128"
        },
        {
          "internalType": "uint128",
          "name": "tokensOwed1",
          "type": "uint128"
        }
      ],
      "stateMutability": "view",
      "type": "function"
    },
    {
      "inputs": [],
      "name": "protocolFees",
      "outputs": [
        {
          "internalType": "uint128",
          "name": "token0",
          "type": "uint128"
        },
        {
          "internalType": "uint128",
          "name": "token1",
          "type": "uint128"
        }
      ],
      "stateMutability": "view",
      "type": "function"
    },
    {
      "inputs": [],
      "name": "slot0",
      "outputs": [
        {
          "internalType": "uint160",
          "name": "sqrtPriceX96",
          "type": "uint160"
        },
        {
          "internalType": "int24",
          "name": "tick",
          "type": "int24"
        },
        {
          "internalType": "uint16",
          "name": "observationIndex",
          "type": "uint16"
        },
        {
          "internalType": "uint16",
          "name": "observationCardinality",
          "type": "uint16"
        },
        {
          "internalType": "uint16",
          "name": "observationCardinalityNext",
          "type": "uint16"
        },
        {
          "internalType": "uint8",
          "name": "feeProtocol",
          "type": "uint8"
        },
        {
          "internalType": "bool",
          "name": "unlocked",
          "type": "bool"
        }
      ],
      "stateMutability": "view",
      "type": "function"
    },
    {
      "inputs": [
        {
          "internalType": "int16",
          "name": "",
          "type": "int16"
        }
      ],
      "name": "tickBitmap",
      "outputs": [
        {
          "internalType": "uint256",
          "name": "",
          "type": "uint256"
        }
      ],
      "stateMutability": "view",
      "type": "function"
    },
    {
      "inputs": [],
      "name": "tickSpacing",
      "outputs": [
        {
          "internalType": "int24",
          "name": "",
          "type": "int24"
        }
      ],
      "stateMutability": "view",
      "type": "function"
    },
    {
      "inputs": [
        {
          "internalType": "int24",
          "name": "",
          "type": "int24"
        }
      ],
      "name": "ticks",
      "outputs": [
        {
          "internalType": "uint128",
          "name": "liquidityGross",
          "type": "uint128"
        },
        {
          "internalType": "int128",
          "name": "liquidityNet",
          "type": "int128"
        },
        {
          "internalType": "uint256",
          "name": "feeGrowthOutside0X128",
          "type": "uint256"
        },
        {
          "internalType": "uint256",
          "name": "feeGrowthOutside1X128",
          "type": "uint256"
        },
        {
          "internalType": "int56",
          "name": "tickCumulativeOutside",
          "type": "int56"
        },
        {
          "internalType": "uint160",
          "name": "secondsPerLiquidityOutsideX128",
          "type": "uint160"
        },
        {
          "internalType": "uint32",
          "name": "secondsOutside",
          "type": "uint32"
        },
        {
          "internalType": "bool",
          "name": "initialized",
          "type": "bool"
        }
      ],
      "stateMutability": "view",
      "type": "function"
    },
    {
      "inputs": [],
      "name": "token0",
      "outputs": [
        {
          "internalType": "address",
          "name": "",
          "type": "address"
        }
      ],
      "stateMutability": "view",
      "type": "function"
    },
    {
      "inputs": [],
      "name": "token1",
      "outputs": [
        {
          "internalType": "address",
          "name": "",
          "type": "address"
        }
      ],
      "stateMutability": "view",
      "type": "function"
    },
    {
      "inputs": [
        {
          "internalType": "int24",
          "name": "tickLower",
          "type": "int24"
        },
        {
          "internalType": "int24",
          "name": "tickUpper",
          "type": "int24"
        }
      ],
      "name": "snapshotCumulativesInside",
      "outputs": [
        {
          "internalType": "int56",
          "name": "tickCumulativeInside",
          "type": "int56"
        },
        {
          "internalType": "uint160",
          "name": "secondsPerLiquidityInsideX128",
          "type": "uint160"
        },
        {
          "internalType": "uint32",
          "name": "secondsInside",
          "type": "uint32"
        }
      ],
      "stateMutability": "view",
      "type": "function"
    },
    {
      "inputs": [
        {
          "internalType": "uint16",
          "name": "observationCardinalityNext",
          "type": "uint16"
        }
      ],
      "name": "increaseObservationCardinalityNext",
      "outputs": [],
      "stateMutability": "nonpayable",
      "type": "function"
    },
    {
      "inputs": [
        {
          "internalType": "uint160",
          "name": "sqrtPriceX96",
          "type": "uint160"
        }
      ],
      "name": "initialize",
      "outputs": [],
      "stateMutability": "nonpayable",
      "type": "function"
    },
    {
      "inputs": [
        {
          "internalType": "uint32[]",
          "name": "secondsAgos",
          "type": "uint32[]"
        }
      ],
      "name": "observe",
      "outputs": [
        {
          "internalType": "int56[]",
          "name": "tickCumulatives",
          "type": "int56[]"
        },
        {
          "internalType": "uint160[]",
          "name": "lCumulatives",
          "type": "uint160[]"
        }
      ],
      "stateMutability": "view",
      "type": "function"
    },
    {
      "inputs": [
        {
          "internalType": "address",
          "name": "tokenA",
          "type": "address"
        },
        {
          "internalType": "address",
          "name": "tokenB",
          "type": "address"
        },
        {
          "internalType": "uint256",
          "name": "price",
          "type": "uint256"
        }
      ],
      "name": "setPrice",
      "outputs": [],
      "stateMutability": "nonpayable",
      "type": "function"
    },
    {
      "inputs": [
        {
          "internalType": "address",
          "name": "tokenA",
          "type": "address"
        },
        {
          "internalType": "address",
          "name": "tokenB",
          "type": "address"
        },
        {
          "internalType": "uint256",
          "name": "price",
          "type": "uint256"
        }
      ],
      "name": "setPreviousPrice",
      "outputs": [],
      "stateMutability": "nonpayable",
      "type": "function"
    },
    {
      "inputs": [
        {
          "internalType": "address",
          "name": "recipient",
          "type": "address"
        },
        {
          "internalType": "int24",
          "name": "tickLower",
          "type": "int24"
        },
        {
          "internalType": "int24",
          "name": "tickUpper",
          "type": "int24"
        },
        {
          "internalType": "uint128",
          "name": "amount",
          "type": "uint128"
        },
        {
          "internalType": "bytes",
          "name": "data",
          "type": "bytes"
        }
      ],
      "name": "mint",
      "outputs": [
        {
          "internalType": "uint256",
          "name": "",
          "type": "uint256"
        },
        {
          "internalType": "uint256",
          "name": "",
          "type": "uint256"
        }
      ],
      "stateMutability": "nonpayable",
      "type": "function"
    },
    {
      "inputs": [
        {
          "internalType": "address",
          "name": "recipient",
          "type": "address"
        },
        {
          "internalType": "int24",
          "name": "tickLower",
          "type": "int24"
        },
        {
          "internalType": "int24",
          "name": "tickUpper",
          "type": "int24"
        },
        {
          "internalType": "uint128",
          "name": "amount0Requested",
          "type": "uint128"
        },
        {
          "internalType": "uint128",
          "name": "amount1Requested",
          "type": "uint128"
        }
      ],
      "name": "collect",
      "outputs": [
        {
          "internalType": "uint128",
          "name": "amount0",
          "type": "uint128"
        },
        {
          "internalType": "uint128",
          "name": "amount1",
          "type": "uint128"
        }
      ],
      "stateMutability": "nonpayable",
      "type": "function"
    },
    {
      "inputs": [
        {
          "internalType": "int24",
          "name": "tickLower",
          "type": "int24"
        },
        {
          "internalType": "int24",
          "name": "tickUpper",
          "type": "int24"
        },
        {
          "internalType": "uint128",
          "name": "amount",
          "type": "uint128"
        }
      ],
      "name": "burn",
      "outputs": [
        {
          "internalType": "uint256",
          "name": "amount0",
          "type": "uint256"
        },
        {
          "internalType": "uint256",
          "name": "amount1",
          "type": "uint256"
        }
      ],
      "stateMutability": "nonpayable",
      "type": "function"
    },
    {
      "inputs": [
        {
          "internalType": "address",
          "name": "recipient",
          "type": "address"
        },
        {
          "internalType": "bool",
          "name": "zeroForOne",
          "type": "bool"
        },
        {
          "internalType": "int256",
          "name": "amountSpecified",
          "type": "int256"
        },
        {
          "internalType": "uint160",
          "name": "sqrtPriceLimitX96",
          "type": "uint160"
        },
        {
          "internalType": "bytes",
          "name": "data",
          "type": "bytes"
        }
      ],
      "name": "swap",
      "outputs": [
        {
          "internalType": "int256",
          "name": "amount0",
          "type": "int256"
        },
        {
          "internalType": "int256",
          "name": "amount1",
          "type": "int256"
        }
      ],
      "stateMutability": "nonpayable",
      "type": "function"
    },
    {
      "inputs": [
        {
          "internalType": "address",
          "name": "recipient",
          "type": "address"
        },
        {
          "internalType": "uint256",
          "name": "amount0",
          "type": "uint256"
        },
        {
          "internalType": "uint256",
          "name": "amount1",
          "type": "uint256"
        },
        {
          "internalType": "bytes",
          "name": "data",
          "type": "bytes"
        }
      ],
      "name": "flash",
      "outputs": [],
      "stateMutability": "nonpayable",
      "type": "function"
    },
    {
      "inputs": [
        {
          "internalType": "uint8",
          "name": "feeProtocol0",
          "type": "uint8"
        },
        {
          "internalType": "uint8",
          "name": "feeProtocol1",
          "type": "uint8"
        }
      ],
      "name": "setFeeProtocol",
      "outputs": [],
      "stateMutability": "nonpayable",
      "type": "function"
    },
    {
      "inputs": [
        {
          "internalType": "address",
          "name": "recipient",
          "type": "address"
        },
        {
          "internalType": "uint128",
          "name": "amount0Requested",
          "type": "uint128"
        },
        {
          "internalType": "uint128",
          "name": "amount1Requested",
          "type": "uint128"
        }
      ],
      "name": "collectProtocol",
      "outputs": [
        {
          "internalType": "uint128",
          "name": "amount0",
          "type": "uint128"
        },
        {
          "internalType": "uint128",
          "name": "amount1",
          "type": "uint128"
        }
      ],
      "stateMutability": "nonpayable",
      "type": "function"
    }
  ],
  "bytecode": "0x6101406040523480156200001257600080fd5b506040516200581338038062005813833981810160405260a08110156200003857600080fd5b5080516020808301516040840151606080860151608096870151600281810b900b60e890811b6101005287841b6001600160601b031990811690995285841b891660a0529284901b90971660c0529081901b6001600160e81b03191660e052939491939092909190620000b6908290620000d3811b62002cdd17901c565b60801b6001600160801b0319166101205250620001419350505050565b60008082600281900b620d89e71981620000e957fe5b05029050600083600281900b620d89e8816200010157fe5b0502905060008460020b83830360020b816200011957fe5b0560010190508062ffffff166001600160801b038016816200013757fe5b0495945050505050565b60805160601c60a05160601c60c05160601c60e05160e81c6101005160e81c6101205160801c6156086200020b60003980611ef25280614b075280614b3e525080610c725280612a995280614b725280614ba4525080610d61528061181952806118505280612ae152508061121f52806118d35280611d4252806124185280612abd5280613f4752508061094c528061134d52806118a25280611cdc5280611e3c5280611f1652806123925280613dfe52508061206a52806122515280612a7552506156086000f3fe608060405234801561001057600080fd5b50600436106101c45760003560e01c806370cf754a116100f9578063c45a015511610097578063ddca3f4311610071578063ddca3f431461087a578063f30583991461089a578063f30dba93146108a2578063f637731d14610924576101c4565b8063c45a01551461084b578063d0c93a7c14610853578063d21220a714610872576101c4565b806385b66729116100d357806385b6672914610672578063883bdbfd146106af578063a34123a7146107b6578063a38807f2146107f0576101c4565b806370cf754a1461060c578063792eb791146106145780638206a4d11461064a576101c4565b80633c8a7d8d116101665780634f1eb3d8116101405780634f1eb3d81461050c578063514ea4bf1461055d5780635339c296146105b657806363a0a562146105d6576101c4565b80633c8a7d8d146103c85780634614131914610468578063490e6cbc14610482576101c4565b80631ad8b03b116101a25780631ad8b03b146102be578063252c09d7146102f557806332148f671461034c5780633850c7bd1461036f576101c4565b80630dfe1681146101c9578063128acb08146101ed5780631a6865021461029a575b600080fd5b6101d161094a565b604080516001600160a01b039092168252519081900360200190f35b610281600480360360a081101561020357600080fd5b6001600160a01b0382358116926020810135151592604082013592606083013516919081019060a081016080820135600160201b81111561024357600080fd5b82018360208201111561025557600080fd5b803590602001918460018302840111600160201b8311171561027657600080fd5b50909250905061096e565b6040805192835260208301919091528051918290030190f35b6102a2611505565b604080516001600160801b039092168252519081900360200190f35b6102c6611514565b60405180836001600160801b03168152602001826001600160801b031681526020019250505060405180910390f35b6103126004803603602081101561030b57600080fd5b503561152e565b6040805163ffffffff909516855260069390930b60208501526001600160a01b039091168383015215156060830152519081900360800190f35b61036d6004803603602081101561036257600080fd5b503561ffff16611573565b005b610377611662565b604080516001600160a01b03909816885260029690960b602088015261ffff9485168787015292841660608701529216608085015260ff90911660a0840152151560c0830152519081900360e00190f35b610281600480360360a08110156103de57600080fd5b6001600160a01b03823516916020810135600290810b92604083013590910b916001600160801b036060820135169181019060a081016080820135600160201b81111561042a57600080fd5b82018360208201111561043c57600080fd5b803590602001918460018302840111600160201b8311171561045d57600080fd5b5090925090506116b2565b610470611778565b60408051918252519081900360200190f35b61036d6004803603608081101561049857600080fd5b6001600160a01b038235169160208101359160408201359190810190608081016060820135600160201b8111156104ce57600080fd5b8201836020820111156104e057600080fd5b803590602001918460018302840111600160201b8311171561050157600080fd5b50909250905061177e565b6102c6600480360360a081101561052257600080fd5b506001600160a01b03813516906020810135600290810b91604081013590910b906001600160801b0360608201358116916080013516611bd1565b61057a6004803603602081101561057357600080fd5b5035611deb565b604080516001600160801b0396871681526020810195909552848101939093529084166060840152909216608082015290519081900360a00190f35b610470600480360360208110156105cc57600080fd5b503560010b611e28565b61036d600480360360608110156105ec57600080fd5b506001600160a01b03813581169160208101359091169060400135611e3a565b6102a2611ef0565b61036d6004803603606081101561062a57600080fd5b506001600160a01b03813581169160208101359091169060400135611f14565b61036d6004803603604081101561066057600080fd5b5060ff81358116916020013516611fff565b6102c66004803603606081101561068857600080fd5b506001600160a01b03813516906001600160801b03602082013581169160400135166121e3565b61071d600480360360208110156106c557600080fd5b810190602081018135600160201b8111156106df57600080fd5b8201836020820111156106f157600080fd5b803590602001918460208302840111600160201b8311171561071257600080fd5b5090925090506124b0565b604051808060200180602001838103835285818151815260200191508051906020019060200280838360005b83811015610761578181015183820152602001610749565b50505050905001838103825284818151815260200191508051906020019060200280838360005b838110156107a0578181015183820152602001610788565b5050505090500194505050505060405180910390f35b610281600480360360608110156107cc57600080fd5b508035600290810b91602081013590910b90604001356001600160801b0316612715565b61081a6004803603604081101561080657600080fd5b508035600290810b9160200135900b61288c565b6040805160069490940b84526001600160a01b03909216602084015263ffffffff1682820152519081900360600190f35b6101d1612a73565b61085b612a97565b6040805160029290920b8252519081900360200190f35b6101d1612abb565b610882612adf565b6040805162ffffff9092168252519081900360200190f35b610470612b03565b6108c2600480360360208110156108b857600080fd5b503560020b612b09565b604080516001600160801b039099168952600f9790970b602089015287870195909552606087019390935260069190910b60808601526001600160a01b031660a085015263ffffffff1660c0840152151560e083015251908190036101000190f35b61036d6004803603602081101561093a57600080fd5b50356001600160a01b0316612b73565b7f000000000000000000000000000000000000000000000000000000000000000081565b600080856109a8576040805162461bcd60e51b8152602060048201526002602482015261415360f01b604482015290519081900360640190fd5b6040805160e0810182526000546001600160a01b0381168252600160a01b8104600290810b810b900b602083015261ffff600160b81b8204811693830193909352600160c81b810483166060830152600160d81b8104909216608082015260ff600160e81b8304811660a0830152600160f01b909204909116151560c08201819052610a61576040805162461bcd60e51b81526020600482015260036024820152624c4f4b60e81b604482015290519081900360640190fd5b87610aac5780600001516001600160a01b0316866001600160a01b0316118015610aa7575073fffd8963efd1fc6a506488495d951d5263988d266001600160a01b038716105b610ade565b80600001516001600160a01b0316866001600160a01b0316108015610ade57506401000276a36001600160a01b038716115b610b15576040805162461bcd60e51b815260206004820152600360248201526214d41360ea1b604482015290519081900360640190fd5b6000805460ff60f01b191681556040805160c08101909152808a610b445760048460a0015160ff16901c610b57565b60108460a0015160ff1681610b5557fe5b065b60ff1681526004546001600160801b03166020820152604001610b78612d49565b63ffffffff168152602001600060060b815260200160006001600160a01b031681526020016000151581525090506000808913905060006040518060e001604052808b81526020016000815260200185600001516001600160a01b03168152602001856020015160020b81526020018c610bf457600254610bf8565b6001545b815260200160006001600160801b0316815260200184602001516001600160801b031681525090505b805115801590610c475750886001600160a01b031681604001516001600160a01b031614155b1561101157610c5461556f565b60408201516001600160a01b031681526060820151610c97906006907f00000000000000000000000000000000000000000000000000000000000000008f612d4d565b15156040830152600290810b810b60208301819052620d89e719910b1215610cc857620d89e7196020820152610ce7565b6020810151620d89e860029190910b1315610ce757620d89e860208201525b610cf48160200151612e8f565b6001600160a01b031660608201526040820151610d85908d610d2e578b6001600160a01b031683606001516001600160a01b031611610d48565b8b6001600160a01b031683606001516001600160a01b0316105b610d56578260600151610d58565b8b5b60c085015185517f00000000000000000000000000000000000000000000000000000000000000006131c0565b60c085015260a084015260808301526001600160a01b031660408301528215610de757610dbb8160c001518260800151016133b2565b825103825260a0810151610ddd90610dd2906133b2565b6020840151906133c8565b6020830152610e22565b610df48160a001516133b2565b825101825260c08101516080820151610e1c91610e1191016133b2565b6020840151906133e4565b60208301525b835160ff1615610e68576000846000015160ff168260c0015181610e4257fe5b60c0840180519290910491829003905260a0840180519091016001600160801b03169052505b60c08201516001600160801b031615610ea757610e9b8160c00151600160801b8460c001516001600160801b03166133fa565b60808301805190910190525b80606001516001600160a01b031682604001516001600160a01b03161415610fd057806040015115610fa7578360a00151610f3157610f0f846040015160008760200151886040015188602001518a6060015160086134aa909695949392919063ffffffff16565b6001600160a01b03166080860152600690810b900b6060850152600160a08501525b6000610f7d82602001518e610f4857600154610f4e565b84608001515b8f610f5d578560800151610f61565b6002545b608089015160608a015160408b0151600595949392919061363c565b90508c15610f89576000035b610f978360c00151826136f6565b6001600160801b031660c0840152505b8b610fb6578060200151610fbf565b60018160200151035b600290810b900b606083015261100b565b80600001516001600160a01b031682604001516001600160a01b03161461100b57610ffe82604001516137ac565b600290810b900b60608301525b50610c21565b836020015160020b816060015160020b146110df5760008061105f86604001518660400151886020015188602001518a606001518b608001516008613ac7909695949392919063ffffffff16565b604085015160608601516000805461ffff60c81b1916600160c81b61ffff958616021761ffff60b81b1916600160b81b95909416949094029290921762ffffff60a01b1916600160a01b62ffffff60029490940b9390931692909202919091176001600160a01b0319166001600160a01b03909116179055506111049050565b6040810151600080546001600160a01b0319166001600160a01b039092169190911790555b8060c001516001600160801b031683602001516001600160801b03161461114a5760c0810151600480546001600160801b0319166001600160801b039092169190911790555b8a1561119a57608081015160015560a08101516001600160801b0316156111955760a0810151600380546001600160801b031981166001600160801b03918216909301169190911790555b6111e0565b608081015160025560a08101516001600160801b0316156111e05760a0810151600380546001600160801b03808216600160801b92839004821690940116029190911790555b8115158b1515146111f957602081015181518b03611206565b80600001518a0381602001515b90965094508a1561133f576000851215611248576112487f00000000000000000000000000000000000000000000000000000000000000008d87600003613c62565b6000611252613db0565b9050336001600160a01b031663fa461e3388888c8c6040518563ffffffff1660e01b815260040180858152602001848152602001806020018281038252848482818152602001925080828437600081840152601f19601f82011690508083019250505095505050505050600060405180830381600087803b1580156112d657600080fd5b505af11580156112ea573d6000803e3d6000fd5b505050506112f6613db0565b6113008289613ee9565b1115611339576040805162461bcd60e51b815260206004820152600360248201526249494160e81b604482015290519081900360640190fd5b50611469565b6000861215611376576113767f00000000000000000000000000000000000000000000000000000000000000008d88600003613c62565b6000611380613ef9565b9050336001600160a01b031663fa461e3388888c8c6040518563ffffffff1660e01b815260040180858152602001848152602001806020018281038252848482818152602001925080828437600081840152601f19601f82011690508083019250505095505050505050600060405180830381600087803b15801561140457600080fd5b505af1158015611418573d6000803e3d6000fd5b50505050611424613ef9565b61142e8288613ee9565b1115611467576040805162461bcd60e51b815260206004820152600360248201526249494160e81b604482015290519081900360640190fd5b505b60408082015160c083015160608085015184518b8152602081018b90526001600160a01b03948516818701526001600160801b039093169183019190915260020b60808201529151908e169133917fc42079f94a6350d7e6235f29174924f928cc2ac818eb64fed8004e115fbcca679181900360a00190a350506000805460ff60f01b1916600160f01b17905550919890975095505050505050565b6004546001600160801b031681565b6003546001600160801b0380821691600160801b90041682565b60088161ffff811061153f57600080fd5b015463ffffffff81169150600160201b810460060b90600160581b81046001600160a01b031690600160f81b900460ff1684565b600054600160f01b900460ff166115b7576040805162461bcd60e51b81526020600482015260036024820152624c4f4b60e81b604482015290519081900360640190fd5b6000805460ff60f01b1916808255600160d81b900461ffff16906115dd60088385613f91565b6000805461ffff808416600160d81b810261ffff60d81b199093169290921790925591925083161461164a576040805161ffff80851682528316602082015281517fac49e518f90a358f652e4400164f05a5d8f7e35e7747279bc3a93dbf584e125a929181900390910190a15b50506000805460ff60f01b1916600160f01b17905550565b6000546001600160a01b03811690600160a01b810460020b9061ffff600160b81b8204811691600160c81b8104821691600160d81b8204169060ff600160e81b8204811691600160f01b90041687565b600080548190600160f01b900460ff166116f9576040805162461bcd60e51b81526020600482015260036024820152624c4f4b60e81b604482015290519081900360640190fd5b6000805460ff60f01b19169055604080516080810182526001600160a01b038a168152600289810b602083015288900b91810191909152611754906060810161174a6001600160801b038916614034565b600f0b9052614045565b50506000805460ff60f01b1916600160f01b178155998a9950975050505050505050565b60025481565b600054600160f01b900460ff166117c2576040805162461bcd60e51b81526020600482015260036024820152624c4f4b60e81b604482015290519081900360640190fd5b6000805460ff60f01b191690556004546001600160801b031680611811576040805162461bcd60e51b81526020600482015260016024820152601360fa1b604482015290519081900360640190fd5b6000611846867f000000000000000000000000000000000000000000000000000000000000000062ffffff16620f424061427d565b9050600061187d867f000000000000000000000000000000000000000000000000000000000000000062ffffff16620f424061427d565b90506000611889613db0565b90506000611895613ef9565b905088156118c8576118c87f00000000000000000000000000000000000000000000000000000000000000008b8b613c62565b87156118f9576118f97f00000000000000000000000000000000000000000000000000000000000000008b8a613c62565b336001600160a01b031663e9cbafb085858a8a6040518563ffffffff1660e01b815260040180858152602001848152602001806020018281038252848482818152602001925080828437600081840152601f19601f82011690508083019250505095505050505050600060405180830381600087803b15801561197b57600080fd5b505af115801561198f573d6000803e3d6000fd5b50505050600061199d613db0565b905060006119a9613ef9565b9050816119b68588613ee9565b11156119ee576040805162461bcd60e51b8152602060048201526002602482015261046360f41b604482015290519081900360640190fd5b806119f98487613ee9565b1115611a31576040805162461bcd60e51b8152602060048201526002602482015261463160f01b604482015290519081900360640190fd5b8382038382038115611ac05760008054600160e81b9004600f16908115611a64578160ff168481611a5e57fe5b04611a67565b60005b90506001600160801b03811615611a9a57600380546001600160801b038082168401166001600160801b03199091161790555b611ab4818503600160801b8d6001600160801b03166133fa565b60018054909101905550505b8015611b4b5760008054600160e81b900460041c600f16908115611af0578160ff168381611aea57fe5b04611af3565b60005b90506001600160801b03811615611b2557600380546001600160801b03600160801b8083048216850182160291161790555b611b3f818403600160801b8d6001600160801b03166133fa565b60028054909101905550505b8d6001600160a01b0316336001600160a01b03167fbdbdb71d7860376ba52b25a5028beea23581364a40522f6bcfb86bb1f2dca6338f8f86866040518085815260200184815260200183815260200182815260200194505050505060405180910390a350506000805460ff60f01b1916600160f01b179055505050505050505050505050565b600080548190600160f01b900460ff16611c18576040805162461bcd60e51b81526020600482015260036024820152624c4f4b60e81b604482015290519081900360640190fd5b6000805460ff60f01b19168155611c3260073389896142b7565b60038101549091506001600160801b0390811690861611611c535784611c62565b60038101546001600160801b03165b60038201549093506001600160801b03600160801b909104811690851611611c8a5783611ca0565b6003810154600160801b90046001600160801b03165b91506001600160801b03831615611d05576003810180546001600160801b031981166001600160801b03918216869003821617909155611d05907f0000000000000000000000000000000000000000000000000000000000000000908a908616613c62565b6001600160801b03821615611d6b576003810180546001600160801b03600160801b808304821686900382160291811691909117909155611d6b907f0000000000000000000000000000000000000000000000000000000000000000908a908516613c62565b604080516001600160a01b038a1681526001600160801b0380861660208301528416818301529051600288810b92908a900b9133917f70935338e69775456a85ddef226c395fb668b63fa0115f5f20610b388e6ca9c0919081900360600190a4506000805460ff60f01b1916600160f01b17905590969095509350505050565b60076020526000908152604090208054600182015460028301546003909301546001600160801b0392831693919281811691600160801b90041685565b60066020526000908152604090205481565b7f00000000000000000000000000000000000000000000000000000000000000006001600160a01b0316836001600160a01b03161415611eb357611e8c670de0b6b3a764000060c083901b5b0461431b565b6201000780546001600160a01b0319166001600160a01b0392909216919091179055611eeb565b611ec8816503782dace9d960d21b81611e8657fe5b6201000780546001600160a01b0319166001600160a01b03929092169190911790555b505050565b7f000000000000000000000000000000000000000000000000000000000000000081565b7f00000000000000000000000000000000000000000000000000000000000000006001600160a01b0316836001600160a01b03161415611f8957611f64670de0b6b3a764000060c083901b611e86565b600080546001600160a01b0319166001600160a01b0392909216919091179055611fbf565b611f9e816503782dace9d960d21b81611e8657fe5b600080546001600160a01b0319166001600160a01b03929092169190911790555b600054611fd4906001600160a01b03166137ac565b6000805460029290920b62ffffff16600160a01b0262ffffff60a01b19909216919091179055505050565b600054600160f01b900460ff16612043576040805162461bcd60e51b81526020600482015260036024820152624c4f4b60e81b604482015290519081900360640190fd5b6000805460ff60f01b1916905560408051638da5cb5b60e01b815290516001600160a01b037f00000000000000000000000000000000000000000000000000000000000000001691638da5cb5b916004808301926020929190829003018186803b1580156120b057600080fd5b505afa1580156120c4573d6000803e3d6000fd5b505050506040513d60208110156120da57600080fd5b50516001600160a01b031633146120f057600080fd5b60ff82161580612113575060048260ff16101580156121135750600a8260ff1611155b801561213d575060ff8116158061213d575060048160ff161015801561213d5750600a8160ff1611155b61214657600080fd5b60008054610ff0600484901b16840160ff908116600160e81b90810260ff60e81b19841617909355919004167f973d8d92bb299f4af6ce49b52a8adb85ae46b9f214c4c4fc06ac77401237b1336010826040805160ff9390920683168252600f600486901c16602083015286831682820152918516606082015290519081900360800190a150506000805460ff60f01b1916600160f01b17905550565b600080548190600160f01b900460ff1661222a576040805162461bcd60e51b81526020600482015260036024820152624c4f4b60e81b604482015290519081900360640190fd5b6000805460ff60f01b1916905560408051638da5cb5b60e01b815290516001600160a01b037f00000000000000000000000000000000000000000000000000000000000000001691638da5cb5b916004808301926020929190829003018186803b15801561229757600080fd5b505afa1580156122ab573d6000803e3d6000fd5b505050506040513d60208110156122c157600080fd5b50516001600160a01b031633146122d757600080fd5b6003546001600160801b03908116908516116122f35783612300565b6003546001600160801b03165b6003549092506001600160801b03600160801b909104811690841611612326578261233a565b600354600160801b90046001600160801b03165b90506001600160801b038216156123bb576003546001600160801b038381169116141561236957600019909101905b600380546001600160801b031981166001600160801b039182168590038216179091556123bb907f00000000000000000000000000000000000000000000000000000000000000009087908516613c62565b6001600160801b03811615612441576003546001600160801b03828116600160801b9092041614156123ec57600019015b600380546001600160801b03600160801b808304821685900382160291811691909117909155612441907f00000000000000000000000000000000000000000000000000000000000000009087908416613c62565b604080516001600160801b0380851682528316602082015281516001600160a01b0388169233927f596b573906218d3411850b26a6b437d6c4522fdb43d2d2386263f86d50b8b151929081900390910190a36000805460ff60f01b1916600160f01b1790559094909350915050565b6060808267ffffffffffffffff811180156124ca57600080fd5b506040519080825280602002602001820160405280156124f4578160200160208202803683370190505b5091508267ffffffffffffffff8111801561250e57600080fd5b50604051908082528060200260200182016040528015612538578160200160208202803683370190505b509050600082600186869050038151811061254f57fe5b602002602001019060060b908160060b81525050838390506002141561260a5762010007546001600160a01b03166125a95760008260008151811061259057fe5b602002602001019060060b908160060b81525050612605565b838360018181106125b657fe5b620100075463ffffffff6020909202939093013516916125df91506001600160a01b03166137ac565b60020b02826000815181106125f057fe5b602002602001019060060b908160060b815250505b61270e565b600383141561270e5762010007546001600160a01b03166126575760008260008151811061263457fe5b602002602001019060060b908160060b815250506000826001815181106125f057fe5b8383600281811061266457fe5b620100075463ffffffff60209092029390930135169161268d91506001600160a01b03166137ac565b60020b028260008151811061269e57fe5b602002602001019060060b908160060b81525050838360018181106126bf57fe5b620100075463ffffffff6020909202939093013516916126e891506001600160a01b03166137ac565b60020b02826001815181106126f957fe5b602002602001019060060b908160060b815250505b9250929050565b600080548190600160f01b900460ff1661275c576040805162461bcd60e51b81526020600482015260036024820152624c4f4b60e81b604482015290519081900360640190fd5b6000805460ff60f01b1916815560408051608081018252338152600288810b602083015287900b91810191909152819081906127b590606081016127a86001600160801b038a16614034565b600003600f0b9052614045565b92509250925081600003945080600003935060008511806127d65750600084115b15612815576003830180546001600160801b038082168089018216600160801b93849004831689019092169092029091176001600160801b0319161790555b604080516001600160801b0388168152602081018790528082018690529051600289810b92908b900b9133917f0c396cd989a39f4459b5fa1aed6a9a8dcdbc45908acfd67e028cd568da98982c919081900360600190a450506000805460ff60f01b1916600160f01b179055509094909350915050565b600080600061289b858561436c565b600285810b810b60009081526005602052604080822087840b90930b825281206003830154600681900b93600160381b82046001600160a01b0316928492600160d81b810463ffffffff169284929091600160f81b900460ff16806128ff57600080fd5b6003820154600681900b9850600160381b81046001600160a01b03169650600160d81b810463ffffffff169450600160f81b900460ff168061294057600080fd5b50506040805160e0810182526000546001600160a01b0381168252600160a01b8104600290810b810b810b6020840181905261ffff600160b81b8404811695850195909552600160c81b830485166060850152600160d81b8304909416608084015260ff600160e81b8304811660a0850152600160f01b909204909116151560c08301529093508e810b91900b121590506129e957509390940396509003935090039050612a6c565b8a60020b816020015160020b1215612a5d576000612a05612d49565b6020830151604084015160045460608601519394506000938493612a3b936008938893879392916001600160801b0316906134aa565b9a9003989098039b505094909603929092039650909103039250612a6c915050565b50949093039650039350900390505b9250925092565b7f000000000000000000000000000000000000000000000000000000000000000081565b7f000000000000000000000000000000000000000000000000000000000000000081565b7f000000000000000000000000000000000000000000000000000000000000000081565b7f000000000000000000000000000000000000000000000000000000000000000081565b60015481565b60056020526000908152604090208054600182015460028301546003909301546001600160801b03831693600160801b909304600f0b9290600681900b90600160381b81046001600160a01b031690600160d81b810463ffffffff1690600160f81b900460ff1688565b6000546001600160a01b031615612bb6576040805162461bcd60e51b8152602060048201526002602482015261414960f01b604482015290519081900360640190fd5b6000612bc1826137ac565b9050600080612bd9612bd1612d49565b600890614435565b6040805160e0810182526001600160a01b038816808252600288810b6020808501829052600085870181905261ffff898116606088018190529089166080880181905260a08801839052600160c0909801979097528154600160f01b6001600160a01b0319909116871762ffffff60a01b1916600160a01b62ffffff9787900b97909716969096029590951763ffffffff60b81b1916600160c81b9091021761ffff60d81b1916600160d81b9096029590951761ffff60e81b191692909217909355835191825281019190915281519395509193507f98636036cb66a9c19a37435efc1e90142190214e8abeb821bdba3f2990dd4c9592918290030190a150505050565b60008082600281900b620d89e71981612cf257fe5b05029050600083600281900b620d89e881612d0957fe5b0502905060008460020b83830360020b81612d2057fe5b0560010190508062ffffff166001600160801b03801681612d3d57fe5b0493505050505b919050565b4290565b60008060008460020b8660020b81612d6157fe5b05905060008660020b128015612d8857508460020b8660020b81612d8157fe5b0760020b15155b15612d9257600019015b8315612e0757600080612da483614481565b600182810b810b600090815260208d9052604090205460ff83169190911b80016000190190811680151597509294509092509085612de957888360ff16860302612dfc565b88612df382614493565b840360ff168603025b965050505050612e85565b600080612e1683600101614481565b91509150600060018260ff166001901b031990506000818b60008660010b60010b8152602001908152602001600020541690508060001415955085612e6857888360ff0360ff16866001010102612e7e565b8883612e7383614532565b0360ff168660010101025b9650505050505b5094509492505050565b60008060008360020b12612ea6578260020b612eae565b8260020b6000035b9050620d89e8811115612eec576040805162461bcd60e51b81526020600482015260016024820152601560fa1b604482015290519081900360640190fd5b600060018216612f0057600160801b612f12565b6ffffcb933bd6fad37aa2d162d1a5940015b70ffffffffffffffffffffffffffffffffff1690506002821615612f46576ffff97272373d413259a46990580e213a0260801c5b6004821615612f65576ffff2e50f5f656932ef12357cf3c7fdcc0260801c5b6008821615612f84576fffe5caca7e10e4e61c3624eaa0941cd00260801c5b6010821615612fa3576fffcb9843d60f6159c9db58835c9266440260801c5b6020821615612fc2576fff973b41fa98c081472e6896dfb254c00260801c5b6040821615612fe1576fff2ea16466c96a3843ec78b326b528610260801c5b6080821615613000576ffe5dee046a99a2a811c461f1969c30530260801c5b610100821615613020576ffcbe86c7900a88aedcffc83b479aa3a40260801c5b610200821615613040576ff987a7253ac413176f2b074cf7815e540260801c5b610400821615613060576ff3392b0822b70005940c7a398e4b70f30260801c5b610800821615613080576fe7159475a2c29b7443b29c7fa6e889d90260801c5b6110008216156130a0576fd097f3bdfd2022b8845ad8f792aa58250260801c5b6120008216156130c0576fa9f746462d870fdf8a65dc1f90e061e50260801c5b6140008216156130e0576f70d869a156d2a1b890bb3df62baf32f70260801c5b618000821615613100576f31be135f97d08fd981231505542fcfa60260801c5b62010000821615613121576f09aa508b5b7a84e1c677de54f3e99bc90260801c5b62020000821615613141576e5d6af8dedb81196699c329225ee6040260801c5b62040000821615613160576d2216e584f5fa1ea926041bedfe980260801c5b6208000082161561317d576b048a170391f7dc42444e8fa20260801c5b60008460020b131561319857806000198161319457fe5b0490505b600160201b8106156131ab5760016131ae565b60005b60ff16602082901c0192505050919050565b60008080806001600160a01b03808916908a1610158187128015906132455760006131f98989620f42400362ffffff16620f42406133fa565b9050826132125761320d8c8c8c600161461c565b61321f565b61321f8b8d8c6001614697565b9550858110613230578a965061323f565b61323c8c8b8386614742565b96505b5061328f565b8161325c576132578b8b8b6000614697565b613269565b6132698a8c8b600061461c565b935083886000031061327d5789955061328f565b61328c8b8a8a6000038561478e565b95505b6001600160a01b038a81169087161482156132f2578080156132ae5750815b6132c4576132bf878d8c6001614697565b6132c6565b855b95508080156132d3575081155b6132e9576132e4878d8c600061461c565b6132eb565b845b945061333c565b8080156132fc5750815b6133125761330d8c888c600161461c565b613314565b855b9550808015613321575081155b613337576133328c888c6000614697565b613339565b845b94505b8115801561334c57508860000385115b15613358578860000394505b81801561337757508a6001600160a01b0316876001600160a01b031614155b156133865785890393506133a3565b6133a0868962ffffff168a620f42400362ffffff1661427d565b93505b50505095509550955095915050565b6000600160ff1b82106133c457600080fd5b5090565b808203828113156000831215146133de57600080fd5b92915050565b818101828112156000831215146133de57600080fd5b6000808060001985870986860292508281109083900303905080613430576000841161342557600080fd5b5082900490506134a3565b80841161343c57600080fd5b6000848688096000868103871696879004966002600389028118808a02820302808a02820302808a02820302808a02820302808a02820302808a02909103029181900381900460010186841190950394909402919094039290920491909117919091029150505b9392505050565b60008063ffffffff8716613550576000898661ffff1661ffff81106134cb57fe5b60408051608081018252919092015463ffffffff808216808452600160201b8304600690810b810b900b6020850152600160581b83046001600160a01b031694840194909452600160f81b90910460ff16151560608301529092508a161461353c57613539818a89886147da565b90505b806020015181604001519250925050613630565b8688036000806135658c8c858c8c8c8c61487d565b91509150816000015163ffffffff168363ffffffff161415613597578160200151826040015194509450505050613630565b805163ffffffff848116911614156135bf578060200151816040015194509450505050613630565b8151815160208085015190840151918390039286039163ffffffff80841692908516910360060b816135ed57fe5b05028460200151018263ffffffff168263ffffffff1686604001518660400151036001600160a01b0316028161361f57fe5b048560400151019650965050505050505b97509795505050505050565b600295860b860b60009081526020979097526040909620600181018054909503909455938301805490920390915560038201805463ffffffff600160d81b6001600160a01b03600160381b808504821690960316909402600160381b600160d81b031990921691909117600681810b90960390950b66ffffffffffffff1666ffffffffffffff199095169490941782810485169095039093160263ffffffff60d81b1990931692909217905554600160801b9004600f0b90565b60008082600f0b121561375b57826001600160801b03168260000384039150816001600160801b031610613756576040805162461bcd60e51b81526020600482015260026024820152614c5360f01b604482015290519081900360640190fd5b6133de565b826001600160801b03168284019150816001600160801b031610156133de576040805162461bcd60e51b81526020600482015260026024820152614c4160f01b604482015290519081900360640190fd5b60006401000276a36001600160a01b038316108015906137e8575073fffd8963efd1fc6a506488495d951d5263988d266001600160a01b038316105b61381d576040805162461bcd60e51b81526020600482015260016024820152602960f91b604482015290519081900360640190fd5b640100000000600160c01b03602083901b166001600160801b03811160071b81811c67ffffffffffffffff811160061b90811c63ffffffff811160051b90811c61ffff811160041b90811c60ff8111600390811b91821c600f811160021b90811c918211600190811b92831c979088119617909417909217179091171717608081106138b157607f810383901c91506138bb565b80607f0383901b91505b908002607f81811c60ff83811c9190911c800280831c81831c1c800280841c81841c1c800280851c81851c1c800280861c81861c1c800280871c81871c1c800280881c81881c1c800280891c81891c1c8002808a1c818a1c1c8002808b1c818b1c1c8002808c1c818c1c1c8002808d1c818d1c1c8002808e1c9c81901c9c909c1c80029c8d901c9e9d607f198f0160401b60c09190911c678000000000000000161760c19b909b1c674000000000000000169a909a1760c29990991c672000000000000000169890981760c39790971c671000000000000000169690961760c49590951c670800000000000000169490941760c59390931c670400000000000000169290921760c69190911c670200000000000000161760c79190911c600160381b161760c89190911c6680000000000000161760c99190911c6640000000000000161760ca9190911c6620000000000000161760cb9190911c6610000000000000161760cc9190911c6608000000000000161760cd9190911c66040000000000001617693627a301d71055774c8581026f028f6481ab7f045a5af012a19d003aa9198101608090811d906fdb2df09e81959a81455e260799a0632f8301901d600281810b9083900b14613ab857886001600160a01b0316613a9c82612e8f565b6001600160a01b03161115613ab15781613ab3565b805b613aba565b815b9998505050505050505050565b6000806000898961ffff1661ffff8110613add57fe5b60408051608081018252919092015463ffffffff808216808452600160201b8304600690810b810b900b6020850152600160581b83046001600160a01b031694840194909452600160f81b90910460ff161515606083015290925089161415613b4c5788859250925050613630565b8461ffff168461ffff16118015613b6d57506001850361ffff168961ffff16145b15613b7a57839150613b7e565b8491505b8161ffff168960010161ffff1681613b9257fe5b069250613ba1818989896147da565b8a8461ffff1661ffff8110613bb257fe5b825191018054602084015160408501516060909501511515600160f81b026001600160f81b036001600160a01b03909616600160581b027fff0000000000000000000000000000000000000000ffffffffffffffffffffff60069390930b66ffffffffffffff16600160201b026affffffffffffff000000001963ffffffff90971663ffffffff199095169490941795909516929092171692909217929092161790555097509795505050505050565b604080516001600160a01b038481166024830152604480830185905283518084039091018152606490920183526020820180516001600160e01b031663a9059cbb60e01b1781529251825160009485949389169392918291908083835b60208310613cde5780518252601f199092019160209182019101613cbf565b6001836020036101000a0380198251168184511680821785525050505050509050019150506000604051808303816000865af19150503d8060008114613d40576040519150601f19603f3d011682016040523d82523d6000602084013e613d45565b606091505b5091509150818015613d73575080511580613d735750808060200190516020811015613d7057600080fd5b50515b613da9576040805162461bcd60e51b81526020600482015260026024820152612a2360f11b604482015290519081900360640190fd5b5050505050565b604080513060248083019190915282518083039091018152604490910182526020810180516001600160e01b03166370a0823160e01b17815291518151600093849384936001600160a01b037f00000000000000000000000000000000000000000000000000000000000000001693919290918291908083835b60208310613e495780518252601f199092019160209182019101613e2a565b6001836020036101000a038019825116818451168082178552505050505050905001915050600060405180830381855afa9150503d8060008114613ea9576040519150601f19603f3d011682016040523d82523d6000602084013e613eae565b606091505b5091509150818015613ec257506020815110155b613ecb57600080fd5b808060200190516020811015613ee057600080fd5b50519250505090565b808201828110156133de57600080fd5b604080513060248083019190915282518083039091018152604490910182526020810180516001600160e01b03166370a0823160e01b17815291518151600093849384936001600160a01b037f000000000000000000000000000000000000000000000000000000000000000016939192909182919080838360208310613e495780518252601f199092019160209182019101613e2a565b6000808361ffff1611613fcf576040805162461bcd60e51b81526020600482015260016024820152604960f81b604482015290519081900360640190fd5b8261ffff168261ffff1611613fe55750816134a3565b825b8261ffff168161ffff16101561402b576001858261ffff1661ffff811061400a57fe5b01805463ffffffff191663ffffffff92909216919091179055600101613fe7565b50909392505050565b80600f81900b8114612d4457600080fd5b600080600061405c8460200151856040015161436c565b6040805160e0810182526000546001600160a01b0381168252600160a01b8104600290810b810b900b602080840182905261ffff600160b81b8404811685870152600160c81b84048116606080870191909152600160d81b8504909116608086015260ff600160e81b8504811660a0870152600160f01b909404909316151560c0850152885190890151948901519289015193946141009491939092909190614a77565b93508460600151600f0b60001461427557846020015160020b816020015160020b12156141555761414e6141378660200151612e8f565b6141448760400151612e8f565b8760600151614c2c565b9250614275565b846040015160020b816020015160020b121561424b5760045460408201516001600160801b03909116906141a79061418b612d49565b6020850151606086015160808701516008949392918791613ac7565b6000805461ffff60c81b1916600160c81b61ffff938416021761ffff60b81b1916600160b81b9390921692909202179055815160408701516141f791906141ed90612e8f565b8860600151614c2c565b93506142156142098760200151612e8f565b83516060890151614c70565b92506142258187606001516136f6565b600480546001600160801b0319166001600160801b039290921691909117905550614275565b61427261425b8660200151612e8f565b6142688760400151612e8f565b8760600151614c70565b91505b509193909250565b600061428a8484846133fa565b90506000828061429657fe5b84860911156134a35760001981106142ad57600080fd5b6001019392505050565b6040805160609490941b6bffffffffffffffffffffffff1916602080860191909152600293840b60e890811b60348701529290930b90911b60378401528051808403601a018152603a90930181528251928201929092206000908152929052902090565b6000600382111561435e575080600160028204015b818110156143585780915060028182858161434757fe5b04018161435057fe5b049050614330565b50612d44565b8115612d4457506001919050565b8060020b8260020b126143ac576040805162461bcd60e51b8152602060048201526003602482015262544c5560e81b604482015290519081900360640190fd5b620d89e719600283900b12156143ef576040805162461bcd60e51b8152602060048201526003602482015262544c4d60e81b604482015290519081900360640190fd5b620d89e8600282900b1315614431576040805162461bcd60e51b815260206004820152600360248201526254554d60e81b604482015290519081900360640190fd5b5050565b6040805160808101825263ffffffff9283168082526000602083018190529282019290925260016060909101819052835463ffffffff1916909117909116600160f81b17909155908190565b60020b600881901d9161010090910790565b60008082116144a157600080fd5b600160801b82106144b457608091821c91015b6801000000000000000082106144cc57604091821c91015b600160201b82106144df57602091821c91015b6201000082106144f157601091821c91015b610100821061450257600891821c91015b6010821061451257600491821c91015b6004821061452257600291821c91015b60028210612d4457600101919050565b600080821161454057600080fd5b5060ff6001600160801b0382161561455b57607f1901614563565b608082901c91505b67ffffffffffffffff82161561457c57603f1901614584565b604082901c91505b63ffffffff82161561459957601f19016145a1565b602082901c91505b61ffff8216156145b457600f19016145bc565b601082901c91505b60ff8216156145ce57600719016145d6565b600882901c91505b600f8216156145e857600319016145f0565b600482901c91505b6003821615614602576001190161460a565b600282901c91505b6001821615612d445760001901919050565b6000836001600160a01b0316856001600160a01b0316111561463c579293925b8161466957614664836001600160801b03168686036001600160a01b0316600160601b6133fa565b61468c565b61468c836001600160801b03168686036001600160a01b0316600160601b61427d565b90505b949350505050565b6000836001600160a01b0316856001600160a01b031611156146b7579293925b600160601b600160e01b03606084901b166001600160a01b0386860381169087166146e157600080fd5b8361471157866001600160a01b03166147048383896001600160a01b03166133fa565b8161470b57fe5b04614737565b6147376147288383896001600160a01b031661427d565b886001600160a01b0316614c9f565b979650505050505050565b600080856001600160a01b03161161475957600080fd5b6000846001600160801b03161161476f57600080fd5b81614781576146648585856001614caa565b61468c8585856001614d8b565b600080856001600160a01b0316116147a557600080fd5b6000846001600160801b0316116147bb57600080fd5b816147cd576146648585856000614d8b565b61468c8585856000614caa565b6147e26155ab565b600085600001518503905060405180608001604052808663ffffffff1681526020018263ffffffff168660020b0288602001510160060b81526020016000856001600160801b031611614836576001614838565b845b6001600160801b031663ffffffff60801b608085901b168161485657fe5b048860400151016001600160a01b0316815260200160011515815250915050949350505050565b6148856155ab565b61488d6155ab565b888561ffff1661ffff811061489e57fe5b60408051608081018252919092015463ffffffff8116808352600160201b8204600690810b810b900b6020840152600160581b82046001600160a01b031693830193909352600160f81b900460ff1615156060820152925061490290899089614e6e565b1561493a578663ffffffff16826000015163ffffffff16141561492457613630565b81614931838989886147da565b91509150613630565b888361ffff168660010161ffff168161494f57fe5b0661ffff1661ffff811061495f57fe5b60408051608081018252929091015463ffffffff81168352600160201b8104600690810b810b900b60208401526001600160a01b03600160581b8204169183019190915260ff600160f81b90910416151560608201819052909250614a1457604080516080810182528a5463ffffffff81168252600160201b8104600690810b810b900b6020830152600160581b81046001600160a01b031692820192909252600160f81b90910460ff161515606082015291505b614a2388836000015189614e6e565b614a5a576040805162461bcd60e51b815260206004820152600360248201526213d31160ea1b604482015290519081900360640190fd5b614a678989898887614f2f565b9150915097509795505050505050565b6000614a8660078787876142b7565b60015460025491925090600080600f87900b15614bcc576000614aa7612d49565b6000805460045492935090918291614af19160089186918591600160a01b810460020b9161ffff600160b81b83048116926001600160801b0390921691600160c81b9004166134aa565b9092509050614b2b60058d8b8d8b8b87898b60007f00000000000000000000000000000000000000000000000000000000000000006150cd565b9450614b6260058c8b8d8b8b87898b60017f00000000000000000000000000000000000000000000000000000000000000006150cd565b93508415614b9657614b9660068d7f0000000000000000000000000000000000000000000000000000000000000000615286565b8315614bc857614bc860068c7f0000000000000000000000000000000000000000000000000000000000000000615286565b5050505b600080614bde60058c8c8b8a8a6152ec565b9092509050614bef878a8484615398565b600089600f0b1215614c1d578315614c0c57614c0c60058c61552d565b8215614c1d57614c1d60058b61552d565b50505050505095945050505050565b60008082600f0b12614c5257614c4d614c488585856001614697565b6133b2565b61468f565b614c65614c488585856000036000614697565b600003949350505050565b60008082600f0b12614c8c57614c4d614c48858585600161461c565b614c65614c48858585600003600061461c565b808204910615150190565b60008115614d1d5760006001600160a01b03841115614ce057614cdb84600160601b876001600160801b03166133fa565b614cf8565b6001600160801b038516606085901b81614cf657fe5b045b9050614d15614d106001600160a01b03881683613ee9565b615559565b91505061468f565b60006001600160a01b03841115614d4b57614d4684600160601b876001600160801b031661427d565b614d62565b614d62606085901b6001600160801b038716614c9f565b905080866001600160a01b031611614d7957600080fd5b6001600160a01b03861603905061468f565b600082614d9957508361468f565b600160601b600160e01b03606085901b168215614e27576001600160a01b03861684810290858281614dc757fe5b041415614df857818101828110614df657614dec83896001600160a01b03168361427d565b935050505061468f565b505b614e1e82614e19878a6001600160a01b03168681614e1257fe5b0490613ee9565b614c9f565b9250505061468f565b6001600160a01b03861684810290858281614e3e57fe5b04148015614e4b57508082115b614e5457600080fd5b808203614dec614d10846001600160a01b038b168461427d565b60008363ffffffff168363ffffffff1611158015614e9857508363ffffffff168263ffffffff1611155b15614eb4578163ffffffff168363ffffffff16111590506134a3565b60008463ffffffff168463ffffffff1611614edb578363ffffffff16600160201b01614ee3565b8363ffffffff165b64ffffffffff16905060008563ffffffff168463ffffffff1611614f13578363ffffffff16600160201b01614f1b565b8363ffffffff165b64ffffffffff169091111595945050505050565b614f376155ab565b614f3f6155ab565b60008361ffff168560010161ffff1681614f5557fe5b0661ffff169050600060018561ffff16830103905060005b506002818301048961ffff87168281614f8257fe5b0661ffff8110614f8e57fe5b60408051608081018252929091015463ffffffff81168352600160201b8104600690810b810b900b60208401526001600160a01b03600160581b8204169183019190915260ff600160f81b90910416151560608201819052909550614ff857806001019250614f6d565b898661ffff16826001018161500957fe5b0661ffff811061501557fe5b60408051608081018252929091015463ffffffff81168352600160201b8104600690810b810b900b60208401526001600160a01b03600160581b8204169183019190915260ff600160f81b9091041615156060820152855190945060009061507f908b908b614e6e565b905080801561509857506150988a8a8760000151614e6e565b156150a357506150c0565b806150b3576001820392506150ba565b8160010193505b50614f6d565b5050509550959350505050565b60028a810b900b600090815260208c90526040812080546001600160801b0316826150f8828d6136f6565b9050846001600160801b0316816001600160801b03161115615146576040805162461bcd60e51b81526020600482015260026024820152614c4f60f01b604482015290519081900360640190fd5b6001600160801b0382811615908216158114159450156151eb578c60020b8e60020b136151d357600183018b9055600283018a9055600383018054600160381b600160d81b031916600160381b6001600160a01b038c16021766ffffffffffffff191666ffffffffffffff60068b900b161763ffffffff60d81b1916600160d81b63ffffffff8a16021790555b6003830180546001600160f81b0316600160f81b1790555b82546001600160801b0319166001600160801b0382161783558561523457825461522f9061522a90600160801b9004600f90810b810b908f900b6133e4565b614034565b615255565b82546152559061522a90600160801b9004600f90810b810b908f900b6133c8565b8354600f9190910b6001600160801b03908116600160801b0291161790925550909c9b505050505050505050505050565b8060020b8260020b8161529557fe5b0760020b156152a357600080fd5b6000806152be8360020b8560020b816152b857fe5b05614481565b600191820b820b60009081526020979097526040909620805460ff9097169190911b90951890945550505050565b600285810b80820b60009081526020899052604080822088850b850b83529082209193849391929184918291908a900b1261533257505060018201546002830154615345565b8360010154880391508360020154870390505b6000808b60020b8b60020b12156153675750506001830154600284015461537a565b84600101548a0391508460020154890390505b92909803979097039b96909503949094039850939650505050505050565b6040805160a08101825285546001600160801b0390811682526001870154602083015260028701549282019290925260038601548083166060830152600160801b900490911660808201526000600f85900b6154375781516001600160801b031661542f576040805162461bcd60e51b815260206004820152600260248201526104e560f41b604482015290519081900360640190fd5b508051615446565b815161544390866136f6565b90505b600061546a8360200151860384600001516001600160801b0316600160801b6133fa565b905060006154908460400151860385600001516001600160801b0316600160801b6133fa565b905086600f0b6000146154b75787546001600160801b0319166001600160801b0384161788555b60018801869055600288018590556001600160801b0382161515806154e557506000816001600160801b0316115b15615523576003880180546001600160801b031981166001600160801b039182168501821617808216600160801b9182900483168501909216021790555b5050505050505050565b600290810b810b6000908152602092909252604082208281556001810183905590810182905560030155565b806001600160a01b0381168114612d4457600080fd5b6040805160e081018252600080825260208201819052918101829052606081018290526080810182905260a0810182905260c081019190915290565b6040805160808101825260008082526020820181905291810182905260608101919091529056fea26469706673582212209a0a5aa060139815b5e97d5b046900c5d3f6cf999fad075a810c7cad537000cd64736f6c63430007060033",
  "immutableReferences": {
    "38123": [
      {
        "length": 32,
        "start": 8298
      },
      {
        "length": 32,
        "start": 8785
      },
      {
        "length": 32,
        "start": 10869
      }
    ],
    "38127": [
      {
        "length": 32,
        "start": 2380
      },
      {
        "length": 32,
        "start": 4941
      },
      {
        "length": 32,
        "start": 6306
      },
      {
        "length": 32,
        "start": 7388
      },
      {
        "length": 32,
        "start": 7740
      },
      {
        "length": 32,
        "start": 7958
      },
      {
        "length": 32,
        "start": 9106
      },
      {
        "length": 32,
        "start": 15870
      }
    ],
    "38131": [
      {
        "length": 32,
        "start": 4639
      },
      {
        "length": 32,
        "start": 6355
      },
      {
        "length": 32,
        "start": 7490
      },
      {
        "length": 32,
        "start": 9240
      },
      {
        "length": 32,
        "start": 10941
      },
      {
        "length": 32,
        "start": 16199
      }
    ],
    "38135": [
      {
        "length": 32,
        "start": 3425
      },
      {
        "length": 32,
        "start": 6169
      },
      {
        "length": 32,
        "start": 6224
      },
      {
        "length": 32,
        "start": 10977
      }
    ],
    "38139": [
      {
        "length": 32,
        "start": 3186
      },
      {
        "length": 32,
        "start": 10905
      },
      {
        "length": 32,
        "start": 19314
      },
      {
        "length": 32,
        "start": 19364
      }
    ],
    "38143": [
      {
        "length": 32,
        "start": 7922
      },
      {
        "length": 32,
        "start": 19207
      },
      {
        "length": 32,
        "start": 19262
      }
    ]
  },
  "source": "// SPDX-License-Identifier: BUSL-1.1\npragma solidity 0.7.6;\n\n\nimport '@uniswap/v3-core/contracts/interfaces/IUniswapV3Pool.sol';\n\nimport '@uniswap/v3-core/contracts/libraries/LowGasSafeMath.sol';\nimport '@uniswap/v3-core/contracts/libraries/SafeCast.sol';\nimport '@uniswap/v3-core/contracts/libraries/Tick.sol';\nimport '@uniswap/v3-core/contracts/libraries/TickBitmap.sol';\nimport '@uniswap/v3-core/contracts/libraries/Position.sol';\nimport '@uniswap/v3-core/contracts/libraries/Oracle.sol';\n\nimport '@uniswap/v3-core/contracts/libraries/FullMath.sol';\nimport '@uniswap/v3-core/contracts/libraries/FixedPoint128.sol';\nimport '@uniswap/v3-core/contracts/libraries/TransferHelper.sol';\nimport '@uniswap/v3-core/contracts/libraries/TickMath.sol';\nimport '@uniswap/v3-core/contracts/libraries/LiquidityMath.sol';\nimport '@uniswap/v3-core/contracts/libraries/SqrtPriceMath.sol';\nimport '@uniswap/v3-core/contracts/libraries/SwapMath.sol';\n\nimport '@uniswap/v3-core/contracts/interfaces/IUniswapV3PoolDeployer.sol';\nimport '@uniswap/v3-core/contracts/interfaces/IUniswapV3Factory.sol';\nimport '@uniswap/v3-core/contracts/interfaces/IERC20Minimal.sol';\nimport '@uniswap/v3-core/contracts/interfaces/callback/IUniswapV3MintCallback.sol';\nimport '@uniswap/v3-core/contracts/interfaces/callback/IUniswapV3SwapCallback.sol';\nimport '@uniswap/v3-core/contracts/interfaces/callback/IUniswapV3FlashCallback.sol';\n\ncontract MockUniswapV3Pair is IUniswapV3Pool {\n    using LowGasSafeMath for uint256;\n    using LowGasSafeMath for int256;\n    using SafeCast for uint256;\n    using SafeCast for int256;\n    using Tick for mapping(int24 => Tick.Info);\n    using TickBitmap for mapping(int16 => uint256);\n    using Position for mapping(bytes32 => Position.Info);\n    using Position for Position.Info;\n    using Oracle for Oracle.Observation[65535];\n\n/// @inheritdoc IUniswapV3PoolImmutables\naddress override public immutable  factory;\n/// @inheritdoc IUniswapV3PoolImmutables\naddress override public immutable  token0;\n/// @inheritdoc IUniswapV3PoolImmutables\naddress override public immutable  token1;\n/// @inheritdoc IUniswapV3PoolImmutables\nuint24 override public immutable  fee;\n\n/// @inheritdoc IUniswapV3PoolImmutables\nint24 override public immutable  tickSpacing;\n\n/// @inheritdoc IUniswapV3PoolImmutables\nuint128 override public immutable  maxLiquidityPerTick;\n\nstruct Slot0 {\n// the current price\nuint160 sqrtPriceX96;\n// the current tick\nint24 tick;\n// the most-recently updated index of the observations array\nuint16 observationIndex;\n// the current maximum number of observations that are being stored\nuint16 observationCardinality;\n// the next maximum number of observations to store, triggered in observations.write\nuint16 observationCardinalityNext;\n// the current protocol fee as a percentage of the swap fee taken on withdrawal\n// represented as an integer denominator (1/x)%\nuint8 feeProtocol;\n// whether the pool is locked\nbool unlocked;\n}\n/// @inheritdoc IUniswapV3PoolState\nSlot0 override public  slot0;\n\n/// @inheritdoc IUniswapV3PoolState\nuint256 override public  feeGrowthGlobal0X128;\n/// @inheritdoc IUniswapV3PoolState\nuint256 override public  feeGrowthGlobal1X128;\n\n// accumulated protocol fees in token0/token1 units\nstruct ProtocolFees {\nuint128 token0;\nuint128 token1;\n}\n/// @inheritdoc IUniswapV3PoolState\nProtocolFees override public  protocolFees;\n\n/// @inheritdoc IUniswapV3PoolState\nuint128 override public  liquidity;\n\n/// @inheritdoc IUniswapV3PoolState\nmapping(int24 => Tick.Info) override public  ticks;\n/// @inheritdoc IUniswapV3PoolState\nmapping(int16 => uint256) override public  tickBitmap;\n/// @inheritdoc IUniswapV3PoolState\nmapping(bytes32 => Position.Info) override public  positions;\n/// @inheritdoc IUniswapV3PoolState\nOracle.Observation[65535] override public  observations;\n\n/// @dev Mutually exclusive reentrancy protection into the pool to/from a method. This method also prevents entrance\n/// to a function before the pool is initialized. The reentrancy guard is required throughout the contract because\n/// we use balance checks to determine the payment status of interactions such as mint, swap and flash.\nmodifier lock() {\nrequire(slot0.unlocked, 'LOK');\nslot0.unlocked = false;\n_;\nslot0.unlocked = true;\n}\n\n/// @dev Prevents calling a function from anyone except the address returned by IUniswapV3Factory#owner()\nmodifier onlyFactoryOwner() {\nrequire(msg.sender == IUniswapV3Factory(factory).owner());\n_;\n}\n\nconstructor(address _factory, address _token0, address _token1, uint24 _fee, int24 _tickSpacing) {\ntickSpacing = _tickSpacing;\nfactory = _factory;\ntoken0 =_token0;\ntoken1 = _token1;\nfee = _fee;\nmaxLiquidityPerTick = Tick.tickSpacingToMaxLiquidityPerTick(_tickSpacing);\n}\n\n/// @dev Common checks for valid tick inputs.\nfunction checkTicks(int24 tickLower, int24 tickUpper) private pure {\nrequire(tickLower < tickUpper, 'TLU');\nrequire(tickLower >= TickMath.MIN_TICK, 'TLM');\nrequire(tickUpper <= TickMath.MAX_TICK, 'TUM');\n}\n/// @dev Returns the block timestamp truncated to 32 bits, i.e. mod 2**32. This method is overridden in tests.\nfunction _blockTimestamp() internal view virtual returns (uint32) {\nreturn uint32(block.timestamp);\n// truncation is desired\n}\n\n/// @dev Get the pool's balance of token0\n/// @dev This function is gas optimized to avoid a redundant extcodesize check in addition to the returndatasize\n/// check\nfunction balance0() private view returns (uint256) {\n(bool success, bytes memory data) =\ntoken0.staticcall(abi.encodeWithSelector(IERC20Minimal.balanceOf.selector, address(this)));\nrequire(success && data.length >= 32);\nreturn abi.decode(data, (uint256));\n}\n\n/// @dev Get the pool's balance of token1\n/// @dev This function is gas optimized to avoid a redundant extcodesize check in addition to the returndatasize\n/// check\nfunction balance1() private view returns (uint256) {\n(bool success, bytes memory data) =\ntoken1.staticcall(abi.encodeWithSelector(IERC20Minimal.balanceOf.selector, address(this)));\nrequire(success && data.length >= 32);\nreturn abi.decode(data, (uint256));\n}\n\n/// @inheritdoc IUniswapV3PoolDerivedState\nfunction snapshotCumulativesInside(int24 tickLower, int24 tickUpper)\nexternal\nview\noverride\n\nreturns (\nint56 tickCumulativeInside,\nuint160 secondsPerLiquidityInsideX128,\nuint32 secondsInside\n)\n{\ncheckTicks(tickLower, tickUpper);\n\nint56 tickCumulativeLower;\nint56 tickCumulativeUpper;\nuint160 secondsPerLiquidityOutsideLowerX128;\nuint160 secondsPerLiquidityOutsideUpperX128;\nuint32 secondsOutsideLower;\nuint32 secondsOutsideUpper;\n\n{\nTick.Info storage lower = ticks[tickLower];\nTick.Info storage upper = ticks[tickUpper];\nbool initializedLower;\n(tickCumulativeLower, secondsPerLiquidityOutsideLowerX128, secondsOutsideLower, initializedLower) = (\nlower.tickCumulativeOutside,\nlower.secondsPerLiquidityOutsideX128,\nlower.secondsOutside,\nlower.initialized\n);\nrequire(initializedLower);\n\nbool initializedUpper;\n(tickCumulativeUpper, secondsPerLiquidityOutsideUpperX128, secondsOutsideUpper, initializedUpper) = (\nupper.tickCumulativeOutside,\nupper.secondsPerLiquidityOutsideX128,\nupper.secondsOutside,\nupper.initialized\n);\nrequire(initializedUpper);\n}\n\nSlot0 memory _slot0 = slot0;\n\nif (_slot0.tick < tickLower) {\nreturn (\ntickCumulativeLower - tickCumulativeUpper,\nsecondsPerLiquidityOutsideLowerX128 - secondsPerLiquidityOutsideUpperX128,\nsecondsOutsideLower - secondsOutsideUpper\n);\n} else if (_slot0.tick < tickUpper) {\nuint32 time = _blockTimestamp();\n(int56 tickCumulative, uint160 secondsPerLiquidityCumulativeX128) =\nobservations.observeSingle(\ntime,\n0,\n_slot0.tick,\n_slot0.observationIndex,\nliquidity,\n_slot0.observationCardinality\n);\nreturn (\ntickCumulative - tickCumulativeLower - tickCumulativeUpper,\nsecondsPerLiquidityCumulativeX128 -\nsecondsPerLiquidityOutsideLowerX128 -\nsecondsPerLiquidityOutsideUpperX128,\ntime - secondsOutsideLower - secondsOutsideUpper\n);\n} else {\nreturn (\ntickCumulativeUpper - tickCumulativeLower,\nsecondsPerLiquidityOutsideUpperX128 - secondsPerLiquidityOutsideLowerX128,\nsecondsOutsideUpper - secondsOutsideLower\n);\n}\n}\n\n\n\n/// @inheritdoc IUniswapV3PoolActions\nfunction increaseObservationCardinalityNext(uint16 observationCardinalityNext)\nexternal\noverride\nlock\n\n{\nuint16 observationCardinalityNextOld = slot0.observationCardinalityNext;\n// for the event\nuint16 observationCardinalityNextNew =\nobservations.grow(observationCardinalityNextOld, observationCardinalityNext);\nslot0.observationCardinalityNext = observationCardinalityNextNew;\nif (observationCardinalityNextOld != observationCardinalityNextNew)\nemit IncreaseObservationCardinalityNext(observationCardinalityNextOld, observationCardinalityNextNew);\n}\n\n/// @inheritdoc IUniswapV3PoolActions\n/// @dev not locked because it initializes unlocked\nfunction initialize(uint160 sqrtPriceX96) external override {\nrequire(slot0.sqrtPriceX96 == 0, 'AI');\n\nint24 tick = TickMath.getTickAtSqrtRatio(sqrtPriceX96);\n\n(uint16 cardinality, uint16 cardinalityNext) = observations.initialize(_blockTimestamp());\n\nslot0 = Slot0({\nsqrtPriceX96 : sqrtPriceX96,\ntick : tick,\nobservationIndex : 0,\nobservationCardinality : cardinality,\nobservationCardinalityNext : cardinalityNext,\nfeeProtocol : 0,\nunlocked : true\n});\n\nemit Initialize(sqrtPriceX96, tick);\n}\n\nstruct ModifyPositionParams {\n// the address that owns the position\naddress owner;\n// the lower and upper tick of the position\nint24 tickLower;\nint24 tickUpper;\n// any change in liquidity\nint128 liquidityDelta;\n}\n\n/// @dev Effect some changes to a position\n/// @param params the position details and the change to the position's liquidity to effect\n/// @return position a storage pointer referencing the position with the given owner and tick range\n/// @return amount0 the amount of token0 owed to the pool, negative if the pool should pay the recipient\n/// @return amount1 the amount of token1 owed to the pool, negative if the pool should pay the recipient\nfunction _modifyPosition(ModifyPositionParams memory params)\nprivate\n\nreturns (\nPosition.Info storage position,\nint256 amount0,\nint256 amount1\n)\n{\ncheckTicks(params.tickLower, params.tickUpper);\n\nSlot0 memory _slot0 = slot0;\n// SLOAD for gas optimization\n\nposition = _updatePosition(\nparams.owner,\nparams.tickLower,\nparams.tickUpper,\nparams.liquidityDelta,\n_slot0.tick\n);\n\nif (params.liquidityDelta != 0) {\nif (_slot0.tick < params.tickLower) {\n// current tick is below the passed range; liquidity can only become in range by crossing from left to\n// right, when we'll need _more_ token0 (it's becoming more valuable) so user must provide it\namount0 = SqrtPriceMath.getAmount0Delta(\nTickMath.getSqrtRatioAtTick(params.tickLower),\nTickMath.getSqrtRatioAtTick(params.tickUpper),\nparams.liquidityDelta\n);\n} else if (_slot0.tick < params.tickUpper) {\n// current tick is inside the passed range\nuint128 liquidityBefore = liquidity;\n// SLOAD for gas optimization\n\n// write an oracle entry\n(slot0.observationIndex, slot0.observationCardinality) = observations.write(\n_slot0.observationIndex,\n_blockTimestamp(),\n_slot0.tick,\nliquidityBefore,\n_slot0.observationCardinality,\n_slot0.observationCardinalityNext\n);\n\namount0 = SqrtPriceMath.getAmount0Delta(\n_slot0.sqrtPriceX96,\nTickMath.getSqrtRatioAtTick(params.tickUpper),\nparams.liquidityDelta\n);\namount1 = SqrtPriceMath.getAmount1Delta(\nTickMath.getSqrtRatioAtTick(params.tickLower),\n_slot0.sqrtPriceX96,\nparams.liquidityDelta\n);\n\nliquidity = LiquidityMath.addDelta(liquidityBefore, params.liquidityDelta);\n} else {\n// current tick is above the passed range; liquidity can only become in range by crossing from right to\n// left, when we'll need _more_ token1 (it's becoming more valuable) so user must provide it\namount1 = SqrtPriceMath.getAmount1Delta(\nTickMath.getSqrtRatioAtTick(params.tickLower),\nTickMath.getSqrtRatioAtTick(params.tickUpper),\nparams.liquidityDelta\n);\n}\n}\n}\n\n/// @dev Gets and updates a position with the given liquidity delta\n/// @param owner the owner of the position\n/// @param tickLower the lower tick of the position's tick range\n/// @param tickUpper the upper tick of the position's tick range\n/// @param tick the current tick, passed to avoid sloads\nfunction _updatePosition(\naddress owner,\nint24 tickLower,\nint24 tickUpper,\nint128 liquidityDelta,\nint24 tick\n) private returns (Position.Info storage position) {\nposition = positions.get(owner, tickLower, tickUpper);\n\nuint256 _feeGrowthGlobal0X128 = feeGrowthGlobal0X128;\n// SLOAD for gas optimization\nuint256 _feeGrowthGlobal1X128 = feeGrowthGlobal1X128;\n// SLOAD for gas optimization\n\n// if we need to update the ticks, do it\nbool flippedLower;\nbool flippedUpper;\nif (liquidityDelta != 0) {\nuint32 time = _blockTimestamp();\n(int56 tickCumulative, uint160 secondsPerLiquidityCumulativeX128) =\nobservations.observeSingle(\ntime,\n0,\nslot0.tick,\nslot0.observationIndex,\nliquidity,\nslot0.observationCardinality\n);\n\nflippedLower = ticks.update(\ntickLower,\ntick,\nliquidityDelta,\n_feeGrowthGlobal0X128,\n_feeGrowthGlobal1X128,\nsecondsPerLiquidityCumulativeX128,\ntickCumulative,\ntime,\nfalse,\nmaxLiquidityPerTick\n);\nflippedUpper = ticks.update(\ntickUpper,\ntick,\nliquidityDelta,\n_feeGrowthGlobal0X128,\n_feeGrowthGlobal1X128,\nsecondsPerLiquidityCumulativeX128,\ntickCumulative,\ntime,\ntrue,\nmaxLiquidityPerTick\n);\n\nif (flippedLower) {\ntickBitmap.flipTick(tickLower, tickSpacing);\n}\nif (flippedUpper) {\ntickBitmap.flipTick(tickUpper, tickSpacing);\n}\n}\n\n(uint256 feeGrowthInside0X128, uint256 feeGrowthInside1X128) =\nticks.getFeeGrowthInside(tickLower, tickUpper, tick, _feeGrowthGlobal0X128, _feeGrowthGlobal1X128);\n\nposition.update(liquidityDelta, feeGrowthInside0X128, feeGrowthInside1X128);\n\n// clear any tick data that is no longer needed\nif (liquidityDelta < 0) {\nif (flippedLower) {\nticks.clear(tickLower);\n}\nif (flippedUpper) {\nticks.clear(tickUpper);\n}\n}\n}\n/// @inheritdoc IUniswapV3PoolDerivedState\nfunction observe(uint32[] calldata secondsAgos)\nexternal\nview\noverride\nreturns (int56[] memory tickCumulatives, uint160[] memory lCumulatives)\n{\ntickCumulatives = new int56[](secondsAgos.length);\nlCumulatives = new uint160[](secondsAgos.length);\ntickCumulatives[secondsAgos.length -1] = 0;\nif (secondsAgos.length== 2){\nif (prePrice == 0){\ntickCumulatives[0] = 0;\n}else {\ntickCumulatives[0] = (int56)(TickMath.getTickAtSqrtRatio(prePrice) * int(secondsAgos[1]));\n}\n}\nelse if (secondsAgos.length == 3){\nif (prePrice == 0){\ntickCumulatives[0] = 0;\ntickCumulatives[1] = 0;\n}\nelse {\ntickCumulatives[0] = (int56)(TickMath.getTickAtSqrtRatio(prePrice) * int(secondsAgos[2]));\ntickCumulatives[1] = (int56)(TickMath.getTickAtSqrtRatio(prePrice) * int(secondsAgos[1]));\n}\n}\n}\n\n// price = price * 2**96\nfunction setPrice(address tokenA, address tokenB, uint price) external {\ntokenB;\ntokenA;\nif (tokenA == token0){\nslot0.sqrtPriceX96 = uint160(Sqrt.sqrt((price << 192) / 10**18));\n}else {\nslot0.sqrtPriceX96 = uint160(Sqrt.sqrt(((10 ** 18) << 192)  / price));\n}\nslot0.tick = TickMath.getTickAtSqrtRatio(slot0.sqrtPriceX96);\n}\n\nuint160 prePrice;\nfunction setPreviousPrice(address tokenA, address tokenB, uint price) external {\ntokenB;\ntokenA;\nif (tokenA == token0){\nprePrice = uint160(Sqrt.sqrt((price << 192) / 10 ** 18));\n}else {\nprePrice = uint160(Sqrt.sqrt(((10 ** 18) << 192)  / price));\n}\n}\n\n/// @inheritdoc IUniswapV3PoolActions\n/// @dev  is applied indirectly via _modifyPosition\nfunction mint(\naddress recipient,\nint24 tickLower,\nint24 tickUpper,\nuint128 amount,\nbytes calldata data\n) external override lock returns (uint256, uint256) {\ndata;\n\n_modifyPosition(\nModifyPositionParams({\nowner : recipient,\ntickLower : tickLower,\ntickUpper : tickUpper,\nliquidityDelta : int256(amount).toInt128()\n})\n);\n\nreturn (0, 0);\n}\n\n/// @inheritdoc IUniswapV3PoolActions\nfunction collect(\naddress recipient,\nint24 tickLower,\nint24 tickUpper,\nuint128 amount0Requested,\nuint128 amount1Requested\n) external override lock returns (uint128 amount0, uint128 amount1) {\n// we don't need to checkTicks here, because invalid positions will never have non-zero tokensOwed{0,1}\nPosition.Info storage position = positions.get(msg.sender, tickLower, tickUpper);\n\namount0 = amount0Requested > position.tokensOwed0 ? position.tokensOwed0 : amount0Requested;\namount1 = amount1Requested > position.tokensOwed1 ? position.tokensOwed1 : amount1Requested;\n\nif (amount0 > 0) {\nposition.tokensOwed0 -= amount0;\nTransferHelper.safeTransfer(token0, recipient, amount0);\n}\nif (amount1 > 0) {\nposition.tokensOwed1 -= amount1;\nTransferHelper.safeTransfer(token1, recipient, amount1);\n}\n\nemit Collect(msg.sender, recipient, tickLower, tickUpper, amount0, amount1);\n}\n\n/// @inheritdoc IUniswapV3PoolActions\n/// @dev  is applied indirectly via _modifyPosition\nfunction burn(\nint24 tickLower,\nint24 tickUpper,\nuint128 amount\n) external override lock returns (uint256 amount0, uint256 amount1) {\n(Position.Info storage position, int256 amount0Int, int256 amount1Int) =\n_modifyPosition(\nModifyPositionParams({\nowner : msg.sender,\ntickLower : tickLower,\ntickUpper : tickUpper,\nliquidityDelta : - int256(amount).toInt128()\n})\n);\n\namount0 = uint256(- amount0Int);\namount1 = uint256(- amount1Int);\n\nif (amount0 > 0 || amount1 > 0) {\n(position.tokensOwed0, position.tokensOwed1) = (\nposition.tokensOwed0 + uint128(amount0),\nposition.tokensOwed1 + uint128(amount1)\n);\n}\n\nemit Burn(msg.sender, tickLower, tickUpper, amount, amount0, amount1);\n}\n\nstruct SwapCache {\n// the protocol fee for the input token\nuint8 feeProtocol;\n// liquidity at the beginning of the swap\nuint128 liquidityStart;\n// the timestamp of the current block\nuint32 blockTimestamp;\n// the current value of the tick accumulator, computed only if we cross an initialized tick\nint56 tickCumulative;\n// the current value of seconds per liquidity accumulator, computed only if we cross an initialized tick\nuint160 secondsPerLiquidityCumulativeX128;\n// whether we've computed and cached the above two accumulators\nbool computedLatestObservation;\n}\n\n// the top level state of the swap, the results of which are recorded in storage at the end\nstruct SwapState {\n// the amount remaining to be swapped in/out of the input/output asset\nint256 amountSpecifiedRemaining;\n// the amount already swapped out/in of the output/input asset\nint256 amountCalculated;\n// current sqrt(price)\nuint160 sqrtPriceX96;\n// the tick associated with the current price\nint24 tick;\n// the global fee growth of the input token\nuint256 feeGrowthGlobalX128;\n// amount of input token paid as protocol fee\nuint128 protocolFee;\n// the current liquidity in range\nuint128 liquidity;\n}\n\nstruct StepComputations {\n// the price at the beginning of the step\nuint160 sqrtPriceStartX96;\n// the next tick to swap to from the current tick in the swap direction\nint24 tickNext;\n// whether tickNext is initialized or not\nbool initialized;\n// sqrt(price) for the next tick (1/0)\nuint160 sqrtPriceNextX96;\n// how much is being swapped in in this step\nuint256 amountIn;\n// how much is being swapped out\nuint256 amountOut;\n// how much fee is being paid in\nuint256 feeAmount;\n}\n\n/// @inheritdoc IUniswapV3PoolActions\nfunction swap(\naddress recipient,\nbool zeroForOne,\nint256 amountSpecified,\nuint160 sqrtPriceLimitX96,\nbytes calldata data\n) external override returns (int256 amount0, int256 amount1) {\nrequire(amountSpecified != 0, 'AS');\n\nSlot0 memory slot0Start = slot0;\n\nrequire(slot0Start.unlocked, 'LOK');\nrequire(\nzeroForOne\n? sqrtPriceLimitX96 < slot0Start.sqrtPriceX96 && sqrtPriceLimitX96 > TickMath.MIN_SQRT_RATIO\n: sqrtPriceLimitX96 > slot0Start.sqrtPriceX96 && sqrtPriceLimitX96 < TickMath.MAX_SQRT_RATIO,\n'SPL'\n);\n\nslot0.unlocked = false;\n\nSwapCache memory cache =\nSwapCache({\nliquidityStart : liquidity,\nblockTimestamp : _blockTimestamp(),\nfeeProtocol : zeroForOne ? (slot0Start.feeProtocol % 16) : (slot0Start.feeProtocol >> 4),\nsecondsPerLiquidityCumulativeX128 : 0,\ntickCumulative : 0,\ncomputedLatestObservation : false\n});\n\nbool exactInput = amountSpecified > 0;\n\nSwapState memory state =\nSwapState({\namountSpecifiedRemaining : amountSpecified,\namountCalculated : 0,\nsqrtPriceX96 : slot0Start.sqrtPriceX96,\ntick : slot0Start.tick,\nfeeGrowthGlobalX128 : zeroForOne ? feeGrowthGlobal0X128 : feeGrowthGlobal1X128,\nprotocolFee : 0,\nliquidity : cache.liquidityStart\n});\n\n// continue swapping as long as we haven't used the entire input/output and haven't reached the price limit\nwhile (state.amountSpecifiedRemaining != 0 && state.sqrtPriceX96 != sqrtPriceLimitX96) {\nStepComputations memory step;\n\nstep.sqrtPriceStartX96 = state.sqrtPriceX96;\n\n(step.tickNext, step.initialized) = tickBitmap.nextInitializedTickWithinOneWord(\nstate.tick,\ntickSpacing,\nzeroForOne\n);\n\n// ensure that we do not overshoot the min/max tick, as the tick bitmap is not aware of these bounds\nif (step.tickNext < TickMath.MIN_TICK) {\nstep.tickNext = TickMath.MIN_TICK;\n} else if (step.tickNext > TickMath.MAX_TICK) {\nstep.tickNext = TickMath.MAX_TICK;\n}\n\n// get the price for the next tick\nstep.sqrtPriceNextX96 = TickMath.getSqrtRatioAtTick(step.tickNext);\n\n// compute values to swap to the target tick, price limit, or point where input/output amount is exhausted\n(state.sqrtPriceX96, step.amountIn, step.amountOut, step.feeAmount) = SwapMath.computeSwapStep(\nstate.sqrtPriceX96,\n(zeroForOne ? step.sqrtPriceNextX96 < sqrtPriceLimitX96 : step.sqrtPriceNextX96 > sqrtPriceLimitX96)\n? sqrtPriceLimitX96\n: step.sqrtPriceNextX96,\nstate.liquidity,\nstate.amountSpecifiedRemaining,\nfee\n);\n\nif (exactInput) {\nstate.amountSpecifiedRemaining -= (step.amountIn + step.feeAmount).toInt256();\nstate.amountCalculated = state.amountCalculated.sub(step.amountOut.toInt256());\n} else {\nstate.amountSpecifiedRemaining += step.amountOut.toInt256();\nstate.amountCalculated = state.amountCalculated.add((step.amountIn + step.feeAmount).toInt256());\n}\n\n// if the protocol fee is on, calculate how much is owed, decrement feeAmount, and increment protocolFee\nif (cache.feeProtocol > 0) {\nuint256 delta = step.feeAmount / cache.feeProtocol;\nstep.feeAmount -= delta;\nstate.protocolFee += uint128(delta);\n}\n\n// update global fee tracker\nif (state.liquidity > 0)\nstate.feeGrowthGlobalX128 += FullMath.mulDiv(step.feeAmount, FixedPoint128.Q128, state.liquidity);\n\n// shift tick if we reached the next price\nif (state.sqrtPriceX96 == step.sqrtPriceNextX96) {\n// if the tick is initialized, run the tick transition\nif (step.initialized) {\n// check for the placeholder value, which we replace with the actual value the first time the swap\n// crosses an initialized tick\nif (!cache.computedLatestObservation) {\n(cache.tickCumulative, cache.secondsPerLiquidityCumulativeX128) = observations.observeSingle(\ncache.blockTimestamp,\n0,\nslot0Start.tick,\nslot0Start.observationIndex,\ncache.liquidityStart,\nslot0Start.observationCardinality\n);\ncache.computedLatestObservation = true;\n}\nint128 liquidityNet =\nticks.cross(\nstep.tickNext,\n(zeroForOne ? state.feeGrowthGlobalX128 : feeGrowthGlobal0X128),\n(zeroForOne ? feeGrowthGlobal1X128 : state.feeGrowthGlobalX128),\ncache.secondsPerLiquidityCumulativeX128,\ncache.tickCumulative,\ncache.blockTimestamp\n);\n// if we're moving leftward, we interpret liquidityNet as the opposite sign\n// safe because liquidityNet cannot be type(int128).min\nif (zeroForOne) liquidityNet = - liquidityNet;\n\nstate.liquidity = LiquidityMath.addDelta(state.liquidity, liquidityNet);\n}\n\nstate.tick = zeroForOne ? step.tickNext - 1 : step.tickNext;\n} else if (state.sqrtPriceX96 != step.sqrtPriceStartX96) {\n// recompute unless we're on a lower tick boundary (i.e. already transitioned ticks), and haven't moved\nstate.tick = TickMath.getTickAtSqrtRatio(state.sqrtPriceX96);\n}\n}\n\n// update tick and write an oracle entry if the tick change\nif (state.tick != slot0Start.tick) {\n(uint16 observationIndex, uint16 observationCardinality) =\nobservations.write(\nslot0Start.observationIndex,\ncache.blockTimestamp,\nslot0Start.tick,\ncache.liquidityStart,\nslot0Start.observationCardinality,\nslot0Start.observationCardinalityNext\n);\n(slot0.sqrtPriceX96, slot0.tick, slot0.observationIndex, slot0.observationCardinality) = (\nstate.sqrtPriceX96,\nstate.tick,\nobservationIndex,\nobservationCardinality\n);\n} else {\n// otherwise just update the price\nslot0.sqrtPriceX96 = state.sqrtPriceX96;\n}\n\n// update liquidity if it changed\nif (cache.liquidityStart != state.liquidity) liquidity = state.liquidity;\n\n// update fee growth global and, if necessary, protocol fees\n// overflow is acceptable, protocol has to withdraw before it hits type(uint128).max fees\nif (zeroForOne) {\nfeeGrowthGlobal0X128 = state.feeGrowthGlobalX128;\nif (state.protocolFee > 0) protocolFees.token0 += state.protocolFee;\n} else {\nfeeGrowthGlobal1X128 = state.feeGrowthGlobalX128;\nif (state.protocolFee > 0) protocolFees.token1 += state.protocolFee;\n}\n\n(amount0, amount1) = zeroForOne == exactInput\n? (amountSpecified - state.amountSpecifiedRemaining, state.amountCalculated)\n: (state.amountCalculated, amountSpecified - state.amountSpecifiedRemaining);\n\n// do the transfers and collect payment\nif (zeroForOne) {\nif (amount1 < 0) TransferHelper.safeTransfer(token1, recipient, uint256(- amount1));\n\nuint256 balance0Before = balance0();\nIUniswapV3SwapCallback(msg.sender).uniswapV3SwapCallback(amount0, amount1, data);\nrequire(balance0Before.add(uint256(amount0)) <= balance0(), 'IIA');\n} else {\nif (amount0 < 0) TransferHelper.safeTransfer(token0, recipient, uint256(- amount0));\n\nuint256 balance1Before = balance1();\nIUniswapV3SwapCallback(msg.sender).uniswapV3SwapCallback(amount0, amount1, data);\nrequire(balance1Before.add(uint256(amount1)) <= balance1(), 'IIA');\n}\n\nemit Swap(msg.sender, recipient, amount0, amount1, state.sqrtPriceX96, state.liquidity, state.tick);\nslot0.unlocked = true;\n}\n\n/// @inheritdoc IUniswapV3PoolActions\nfunction flash(\naddress recipient,\nuint256 amount0,\nuint256 amount1,\nbytes calldata data\n) external override lock {\nuint128 _liquidity = liquidity;\nrequire(_liquidity > 0, 'L');\n\nuint256 fee0 = FullMath.mulDivRoundingUp(amount0, fee, 1e6);\nuint256 fee1 = FullMath.mulDivRoundingUp(amount1, fee, 1e6);\nuint256 balance0Before = balance0();\nuint256 balance1Before = balance1();\n\nif (amount0 > 0) TransferHelper.safeTransfer(token0, recipient, amount0);\nif (amount1 > 0) TransferHelper.safeTransfer(token1, recipient, amount1);\n\nIUniswapV3FlashCallback(msg.sender).uniswapV3FlashCallback(fee0, fee1, data);\n\nuint256 balance0After = balance0();\nuint256 balance1After = balance1();\n\nrequire(balance0Before.add(fee0) <= balance0After, 'F0');\nrequire(balance1Before.add(fee1) <= balance1After, 'F1');\n\n// sub is safe because we know balanceAfter is gt balanceBefore by at least fee\nuint256 paid0 = balance0After - balance0Before;\nuint256 paid1 = balance1After - balance1Before;\n\nif (paid0 > 0) {\nuint8 feeProtocol0 = slot0.feeProtocol % 16;\nuint256 fees0 = feeProtocol0 == 0 ? 0 : paid0 / feeProtocol0;\nif (uint128(fees0) > 0) protocolFees.token0 += uint128(fees0);\nfeeGrowthGlobal0X128 += FullMath.mulDiv(paid0 - fees0, FixedPoint128.Q128, _liquidity);\n}\nif (paid1 > 0) {\nuint8 feeProtocol1 = slot0.feeProtocol >> 4;\nuint256 fees1 = feeProtocol1 == 0 ? 0 : paid1 / feeProtocol1;\nif (uint128(fees1) > 0) protocolFees.token1 += uint128(fees1);\nfeeGrowthGlobal1X128 += FullMath.mulDiv(paid1 - fees1, FixedPoint128.Q128, _liquidity);\n}\n\nemit Flash(msg.sender, recipient, amount0, amount1, paid0, paid1);\n}\n\n/// @inheritdoc IUniswapV3PoolOwnerActions\nfunction setFeeProtocol(uint8 feeProtocol0, uint8 feeProtocol1) external override lock onlyFactoryOwner {\nrequire(\n(feeProtocol0 == 0 || (feeProtocol0 >= 4 && feeProtocol0 <= 10)) &&\n(feeProtocol1 == 0 || (feeProtocol1 >= 4 && feeProtocol1 <= 10))\n);\nuint8 feeProtocolOld = slot0.feeProtocol;\nslot0.feeProtocol = feeProtocol0 + (feeProtocol1 << 4);\nemit SetFeeProtocol(feeProtocolOld % 16, feeProtocolOld >> 4, feeProtocol0, feeProtocol1);\n}\n\n/// @inheritdoc IUniswapV3PoolOwnerActions\nfunction collectProtocol(\naddress recipient,\nuint128 amount0Requested,\nuint128 amount1Requested\n) external override lock onlyFactoryOwner returns (uint128 amount0, uint128 amount1) {\namount0 = amount0Requested > protocolFees.token0 ? protocolFees.token0 : amount0Requested;\namount1 = amount1Requested > protocolFees.token1 ? protocolFees.token1 : amount1Requested;\n\nif (amount0 > 0) {\nif (amount0 == protocolFees.token0) amount0--;\n// ensure that the slot is not cleared, for gas savings\nprotocolFees.token0 -= amount0;\nTransferHelper.safeTransfer(token0, recipient, amount0);\n}\nif (amount1 > 0) {\nif (amount1 == protocolFees.token1) amount1--;\n// ensure that the slot is not cleared, for gas savings\nprotocolFees.token1 -= amount1;\nTransferHelper.safeTransfer(token1, recipient, amount1);\n}\n\nemit CollectProtocol(msg.sender, recipient, amount0, amount1);\n}\n\n}\n\nlibrary Sqrt {\n    // babylonian method (https://en.wikipedia.org/wiki/Methods_of_computing_square_roots#Babylonian_method)\n    function sqrt(uint y) internal pure returns (uint z) {\n        if (y > 3) {\n            z = y;\n            uint x = y / 2 + 1;\n            while (x < z) {\n                z = x;\n                x = (y / x + x) / 2;\n            }\n        } else if (y != 0) {\n            z = 1;\n        }\n    }\n}",
  "sourcePath": "/home/mingyue/Smartian/Web3Bugs/contracts/72/openleverage-contracts/contracts/test/MockUniswapV3Pair.sol",
  "compiler": {
    "name": "solc",
    "version": "0.7.6+commit.7338295f.Emscripten.clang"
  },
  "schemaVersion": "3.4.16",
  "updatedAt": "2025-02-26T03:48:00.942Z",
  "devdoc": {
    "kind": "dev",
    "methods": {
      "burn(int24,int24,uint128)": {
        "details": "is applied indirectly via _modifyPosition",
        "params": {
          "amount": "How much liquidity to burn",
          "tickLower": "The lower tick of the position for which to burn liquidity",
          "tickUpper": "The upper tick of the position for which to burn liquidity"
        },
        "returns": {
          "amount0": "The amount of token0 sent to the recipient",
          "amount1": "The amount of token1 sent to the recipient"
        }
      },
      "collect(address,int24,int24,uint128,uint128)": {
        "details": "Does not recompute fees earned, which must be done either via mint or burn of any amount of liquidity. Collect must be called by the position owner. To withdraw only token0 or only token1, amount0Requested or amount1Requested may be set to zero. To withdraw all tokens owed, caller may pass any value greater than the actual tokens owed, e.g. type(uint128).max. Tokens owed may be from accumulated swap fees or burned liquidity.",
        "params": {
          "amount0Requested": "How much token0 should be withdrawn from the fees owed",
          "amount1Requested": "How much token1 should be withdrawn from the fees owed",
          "recipient": "The address which should receive the fees collected",
          "tickLower": "The lower tick of the position for which to collect fees",
          "tickUpper": "The upper tick of the position for which to collect fees"
        },
        "returns": {
          "amount0": "The amount of fees collected in token0",
          "amount1": "The amount of fees collected in token1"
        }
      },
      "collectProtocol(address,uint128,uint128)": {
        "params": {
          "amount0Requested": "The maximum amount of token0 to send, can be 0 to collect fees in only token1",
          "amount1Requested": "The maximum amount of token1 to send, can be 0 to collect fees in only token0",
          "recipient": "The address to which collected protocol fees should be sent"
        },
        "returns": {
          "amount0": "The protocol fee collected in token0",
          "amount1": "The protocol fee collected in token1"
        }
      },
      "flash(address,uint256,uint256,bytes)": {
        "details": "The caller of this method receives a callback in the form of IUniswapV3FlashCallback#uniswapV3FlashCallbackCan be used to donate underlying tokens pro-rata to currently in-range liquidity providers by calling with 0 amount{0,1} and sending the donation amount(s) from the callback",
        "params": {
          "amount0": "The amount of token0 to send",
          "amount1": "The amount of token1 to send",
          "data": "Any data to be passed through to the callback",
          "recipient": "The address which will receive the token0 and token1 amounts"
        }
      },
      "increaseObservationCardinalityNext(uint16)": {
        "details": "This method is no-op if the pool already has an observationCardinalityNext greater than or equal to the input observationCardinalityNext.",
        "params": {
          "observationCardinalityNext": "The desired minimum number of observations for the pool to store"
        }
      },
      "initialize(uint160)": {
        "details": "not locked because it initializes unlocked",
        "params": {
          "sqrtPriceX96": "the initial sqrt price of the pool as a Q64.96"
        }
      },
      "mint(address,int24,int24,uint128,bytes)": {
        "details": "is applied indirectly via _modifyPosition",
        "params": {
          "amount": "The amount of liquidity to mint",
          "data": "Any data that should be passed through to the callback",
          "recipient": "The address for which the liquidity will be created",
          "tickLower": "The lower tick of the position in which to add liquidity",
          "tickUpper": "The upper tick of the position in which to add liquidity"
        },
        "returns": {
          "_0": "The amount of token0 that was paid to mint the given amount of liquidity. Matches the value in the callback",
          "_1": "The amount of token1 that was paid to mint the given amount of liquidity. Matches the value in the callback"
        }
      },
      "observe(uint32[])": {
        "details": "To get a time weighted average tick or liquidity-in-range, you must call this with two values, one representing the beginning of the period and another for the end of the period. E.g., to get the last hour time-weighted average tick, you must call it with secondsAgos = [3600, 0].The time weighted average tick represents the geometric time weighted average price of the pool, in log base sqrt(1.0001) of token1 / token0. The TickMath library can be used to go from a tick value to a ratio.",
        "params": {
          "secondsAgos": "From how long ago each cumulative tick and liquidity value should be returned"
        },
        "returns": {
          "lCumulatives": "Cumulative seconds per liquidity-in-range value as of each `secondsAgos` from the current block timestamp",
          "tickCumulatives": "Cumulative tick values as of each `secondsAgos` from the current block timestamp"
        }
      },
      "setFeeProtocol(uint8,uint8)": {
        "params": {
          "feeProtocol0": "new protocol fee for token0 of the pool",
          "feeProtocol1": "new protocol fee for token1 of the pool"
        }
      },
      "snapshotCumulativesInside(int24,int24)": {
        "details": "Snapshots must only be compared to other snapshots, taken over a period for which a position existed. I.e., snapshots cannot be compared if a position is not held for the entire period between when the first snapshot is taken and the second snapshot is taken.",
        "params": {
          "tickLower": "The lower tick of the range",
          "tickUpper": "The upper tick of the range"
        },
        "returns": {
          "secondsInside": "The snapshot of seconds per liquidity for the range",
          "secondsPerLiquidityInsideX128": "The snapshot of seconds per liquidity for the range",
          "tickCumulativeInside": "The snapshot of the tick accumulator for the range"
        }
      },
      "swap(address,bool,int256,uint160,bytes)": {
        "details": "The caller of this method receives a callback in the form of IUniswapV3SwapCallback#uniswapV3SwapCallback",
        "params": {
          "amountSpecified": "The amount of the swap, which implicitly configures the swap as exact input (positive), or exact output (negative)",
          "data": "Any data to be passed through to the callback",
          "recipient": "The address to receive the output of the swap",
          "sqrtPriceLimitX96": "The Q64.96 sqrt price limit. If zero for one, the price cannot be less than this value after the swap. If one for zero, the price cannot be greater than this value after the swap",
          "zeroForOne": "The direction of the swap, true for token0 to token1, false for token1 to token0"
        },
        "returns": {
          "amount0": "The delta of the balance of token0 of the pool, exact when negative, minimum when positive",
          "amount1": "The delta of the balance of token1 of the pool, exact when negative, minimum when positive"
        }
      }
    },
    "stateVariables": {
      "factory": {
        "return": "The contract address"
      },
      "fee": {
        "return": "The fee"
      },
      "feeGrowthGlobal0X128": {
        "details": "This value can overflow the uint256"
      },
      "feeGrowthGlobal1X128": {
        "details": "This value can overflow the uint256"
      },
      "liquidity": {
        "details": "This value has no relationship to the total liquidity across all ticks"
      },
      "maxLiquidityPerTick": {
        "details": "This parameter is enforced per tick to prevent liquidity from overflowing a uint128 at any point, and also prevents out-of-range liquidity from being used to prevent adding in-range liquidity to a pool",
        "return": "The max amount of liquidity per tick"
      },
      "observations": {
        "details": "You most likely want to use #observe() instead of this method to get an observation as of some amount of time ago, rather than at a specific index in the array.",
        "params": {
          "index": "The element of the observations array to fetch"
        },
        "return": "blockTimestamp The timestamp of the observation, Returns tickCumulative the tick multiplied by seconds elapsed for the life of the pool as of the observation timestamp, Returns secondsPerLiquidityCumulativeX128 the seconds per in range liquidity for the life of the pool as of the observation timestamp, Returns initialized whether the observation has been initialized and the values are safe to use"
      },
      "positions": {
        "params": {
          "key": "The position's key is a hash of a preimage composed by the owner, tickLower and tickUpper"
        },
        "return": "_liquidity The amount of liquidity in the position, Returns feeGrowthInside0LastX128 fee growth of token0 inside the tick range as of the last mint/burn/poke, Returns feeGrowthInside1LastX128 fee growth of token1 inside the tick range as of the last mint/burn/poke, Returns tokensOwed0 the computed amount of token0 owed to the position as of the last mint/burn/poke, Returns tokensOwed1 the computed amount of token1 owed to the position as of the last mint/burn/poke"
      },
      "protocolFees": {
        "details": "Protocol fees will never exceed uint128 max in either token"
      },
      "slot0": {
        "return": "sqrtPriceX96 The current price of the pool as a sqrt(token1/token0) Q64.96 value tick The current tick of the pool, i.e. according to the last tick transition that was run. This value may not always be equal to SqrtTickMath.getTickAtSqrtRatio(sqrtPriceX96) if the price is on a tick boundary. observationIndex The index of the last oracle observation that was written, observationCardinality The current maximum number of observations stored in the pool, observationCardinalityNext The next maximum number of observations, to be updated when the observation. feeProtocol The protocol fee for both tokens of the pool. Encoded as two 4 bit values, where the protocol fee of token1 is shifted 4 bits and the protocol fee of token0 is the lower 4 bits. Used as the denominator of a fraction of the swap fee, e.g. 4 means 1/4th of the swap fee. unlocked Whether the pool is currently locked to reentrancy"
      },
      "tickSpacing": {
        "details": "Ticks can only be used at multiples of this value, minimum of 1 and always positive e.g.: a tickSpacing of 3 means ticks can be initialized every 3rd tick, i.e., ..., -6, -3, 0, 3, 6, ... This value is an int24 to avoid casting even though it is always positive.",
        "return": "The tick spacing"
      },
      "ticks": {
        "params": {
          "tick": "The tick to look up"
        },
        "return": "liquidityGross the total amount of position liquidity that uses the pool either as tick lower or tick upper, liquidityNet how much liquidity changes when the pool price crosses the tick, feeGrowthOutside0X128 the fee growth on the other side of the tick from the current tick in token0, feeGrowthOutside1X128 the fee growth on the other side of the tick from the current tick in token1, tickCumulativeOutside the cumulative tick value on the other side of the tick from the current tick secondsPerLiquidityOutsideX128 the seconds spent per liquidity on the other side of the tick from the current tick, secondsOutside the seconds spent on the other side of the tick from the current tick, initialized Set to true if the tick is initialized, i.e. liquidityGross is greater than 0, otherwise equal to false. Outside values can only be used if the tick is initialized, i.e. if liquidityGross is greater than 0. In addition, these values are only relative and must be used only in comparison to previous snapshots for a specific position."
      },
      "token0": {
        "return": "The token contract address"
      },
      "token1": {
        "return": "The token contract address"
      }
    },
    "version": 1
  },
  "userdoc": {
    "events": {
      "Burn(address,int24,int24,uint128,uint256,uint256)": {
        "notice": "Emitted when a position's liquidity is removed"
      },
      "Collect(address,address,int24,int24,uint128,uint128)": {
        "notice": "Emitted when fees are collected by the owner of a position"
      },
      "CollectProtocol(address,address,uint128,uint128)": {
        "notice": "Emitted when the collected protocol fees are withdrawn by the factory owner"
      },
      "Flash(address,address,uint256,uint256,uint256,uint256)": {
        "notice": "Emitted by the pool for any flashes of token0/token1"
      },
      "IncreaseObservationCardinalityNext(uint16,uint16)": {
        "notice": "Emitted by the pool for increases to the number of observations that can be stored"
      },
      "Initialize(uint160,int24)": {
        "notice": "Emitted exactly once by a pool when #initialize is first called on the pool"
      },
      "Mint(address,address,int24,int24,uint128,uint256,uint256)": {
        "notice": "Emitted when liquidity is minted for a given position"
      },
      "SetFeeProtocol(uint8,uint8,uint8,uint8)": {
        "notice": "Emitted when the protocol fee is changed by the pool"
      },
      "Swap(address,address,int256,int256,uint160,uint128,int24)": {
        "notice": "Emitted by the pool for any swaps between token0 and token1"
      }
    },
    "kind": "user",
    "methods": {
      "burn(int24,int24,uint128)": {
        "notice": "Burn liquidity from the sender and account tokens owed for the liquidity to the position"
      },
      "collect(address,int24,int24,uint128,uint128)": {
        "notice": "Collects tokens owed to a position"
      },
      "collectProtocol(address,uint128,uint128)": {
        "notice": "Collect the protocol fee accrued to the pool"
      },
      "factory()": {
        "notice": "The contract that deployed the pool, which must adhere to the IUniswapV3Factory interface"
      },
      "fee()": {
        "notice": "The pool's fee in hundredths of a bip, i.e. 1e-6"
      },
      "feeGrowthGlobal0X128()": {
        "notice": "The fee growth as a Q128.128 fees of token0 collected per unit of liquidity for the entire life of the pool"
      },
      "feeGrowthGlobal1X128()": {
        "notice": "The fee growth as a Q128.128 fees of token1 collected per unit of liquidity for the entire life of the pool"
      },
      "flash(address,uint256,uint256,bytes)": {
        "notice": "Receive token0 and/or token1 and pay it back, plus a fee, in the callback"
      },
      "increaseObservationCardinalityNext(uint16)": {
        "notice": "Increase the maximum number of price and liquidity observations that this pool will store"
      },
      "initialize(uint160)": {
        "notice": "Sets the initial price for the pool"
      },
      "liquidity()": {
        "notice": "The currently in range liquidity available to the pool"
      },
      "maxLiquidityPerTick()": {
        "notice": "The maximum amount of position liquidity that can use any tick in the range"
      },
      "mint(address,int24,int24,uint128,bytes)": {
        "notice": "Adds liquidity for the given recipient/tickLower/tickUpper position"
      },
      "observations(uint256)": {
        "notice": "Returns data about a specific observation index"
      },
      "observe(uint32[])": {
        "notice": "Returns the cumulative tick and liquidity as of each timestamp `secondsAgo` from the current block timestamp"
      },
      "positions(bytes32)": {
        "notice": "Returns the information about a position by the position's key"
      },
      "protocolFees()": {
        "notice": "The amounts of token0 and token1 that are owed to the protocol"
      },
      "setFeeProtocol(uint8,uint8)": {
        "notice": "Set the denominator of the protocol's % share of the fees"
      },
      "slot0()": {
        "notice": "The 0th storage slot in the pool stores many values, and is exposed as a single method to save gas when accessed externally."
      },
      "snapshotCumulativesInside(int24,int24)": {
        "notice": "Returns a snapshot of the tick cumulative, seconds per liquidity and seconds inside a tick range"
      },
      "swap(address,bool,int256,uint160,bytes)": {
        "notice": "Swap token0 for token1, or token1 for token0"
      },
      "tickBitmap(int16)": {
        "notice": "Returns 256 packed tick initialized boolean values. See TickBitmap for more information"
      },
      "tickSpacing()": {
        "notice": "The pool tick spacing"
      },
      "ticks(int24)": {
        "notice": "Look up information about a specific tick in the pool"
      },
      "token0()": {
        "notice": "The first of the two tokens of the pool, sorted by address"
      },
      "token1()": {
        "notice": "The second of the two tokens of the pool, sorted by address"
      }
    },
    "version": 1
  }
}