{
  "contractName": "MockUniswapV2Pair",
  "abi": [
    {
      "inputs": [
        {
          "internalType": "address",
          "name": "tokenA",
          "type": "address"
        },
        {
          "internalType": "address",
          "name": "tokenB",
          "type": "address"
        },
        {
          "internalType": "uint112",
          "name": "reserve0",
          "type": "uint112"
        },
        {
          "internalType": "uint112",
          "name": "reserve1",
          "type": "uint112"
        }
      ],
      "stateMutability": "nonpayable",
      "type": "constructor"
    },
    {
      "inputs": [],
      "name": "_blockTimestampLast",
      "outputs": [
        {
          "internalType": "uint32",
          "name": "",
          "type": "uint32"
        }
      ],
      "stateMutability": "view",
      "type": "function"
    },
    {
      "inputs": [],
      "name": "_price0CumulativeLast",
      "outputs": [
        {
          "internalType": "uint256",
          "name": "",
          "type": "uint256"
        }
      ],
      "stateMutability": "view",
      "type": "function"
    },
    {
      "inputs": [],
      "name": "_price1CumulativeLast",
      "outputs": [
        {
          "internalType": "uint256",
          "name": "",
          "type": "uint256"
        }
      ],
      "stateMutability": "view",
      "type": "function"
    },
    {
      "inputs": [],
      "name": "_reserve0",
      "outputs": [
        {
          "internalType": "uint112",
          "name": "",
          "type": "uint112"
        }
      ],
      "stateMutability": "view",
      "type": "function"
    },
    {
      "inputs": [],
      "name": "_reserve1",
      "outputs": [
        {
          "internalType": "uint112",
          "name": "",
          "type": "uint112"
        }
      ],
      "stateMutability": "view",
      "type": "function"
    },
    {
      "inputs": [
        {
          "internalType": "uint256",
          "name": "amount0Out",
          "type": "uint256"
        },
        {
          "internalType": "uint256",
          "name": "amount1Out",
          "type": "uint256"
        },
        {
          "internalType": "address",
          "name": "to",
          "type": "address"
        },
        {
          "internalType": "bytes",
          "name": "data",
          "type": "bytes"
        }
      ],
      "name": "swap",
      "outputs": [],
      "stateMutability": "nonpayable",
      "type": "function"
    },
    {
      "inputs": [
        {
          "internalType": "address",
          "name": "tokenA",
          "type": "address"
        },
        {
          "internalType": "address",
          "name": "tokenB",
          "type": "address"
        },
        {
          "internalType": "uint256",
          "name": "price",
          "type": "uint256"
        }
      ],
      "name": "setPrice",
      "outputs": [],
      "stateMutability": "nonpayable",
      "type": "function"
    },
    {
      "inputs": [
        {
          "internalType": "address",
          "name": "tokenA",
          "type": "address"
        },
        {
          "internalType": "address",
          "name": "tokenB",
          "type": "address"
        },
        {
          "internalType": "uint256",
          "name": "price",
          "type": "uint256"
        }
      ],
      "name": "setPriceUpdateAfter",
      "outputs": [],
      "stateMutability": "nonpayable",
      "type": "function"
    },
    {
      "inputs": [],
      "name": "getReserves",
      "outputs": [
        {
          "internalType": "uint112",
          "name": "reserve0",
          "type": "uint112"
        },
        {
          "internalType": "uint112",
          "name": "reserve1",
          "type": "uint112"
        },
        {
          "internalType": "uint32",
          "name": "blockTimestampLast",
          "type": "uint32"
        }
      ],
      "stateMutability": "view",
      "type": "function"
    },
    {
      "inputs": [],
      "name": "price0CumulativeLast",
      "outputs": [
        {
          "internalType": "uint256",
          "name": "",
          "type": "uint256"
        }
      ],
      "stateMutability": "view",
      "type": "function"
    },
    {
      "inputs": [],
      "name": "price1CumulativeLast",
      "outputs": [
        {
          "internalType": "uint256",
          "name": "",
          "type": "uint256"
        }
      ],
      "stateMutability": "view",
      "type": "function"
    },
    {
      "inputs": [],
      "name": "token0",
      "outputs": [
        {
          "internalType": "address",
          "name": "",
          "type": "address"
        }
      ],
      "stateMutability": "view",
      "type": "function"
    },
    {
      "inputs": [],
      "name": "token1",
      "outputs": [
        {
          "internalType": "address",
          "name": "",
          "type": "address"
        }
      ],
      "stateMutability": "view",
      "type": "function"
    },
    {
      "inputs": [
        {
          "internalType": "uint256",
          "name": "_price",
          "type": "uint256"
        }
      ],
      "name": "setPrice0CumulativeLast",
      "outputs": [],
      "stateMutability": "nonpayable",
      "type": "function"
    },
    {
      "inputs": [
        {
          "internalType": "uint256",
          "name": "_price",
          "type": "uint256"
        }
      ],
      "name": "setPrice1CumulativeLast",
      "outputs": [],
      "stateMutability": "nonpayable",
      "type": "function"
    },
    {
      "inputs": [],
      "name": "sync",
      "outputs": [],
      "stateMutability": "nonpayable",
      "type": "function"
    }
  ],
  "bytecode": "0x60806040523480156200001157600080fd5b50604051620019f8380380620019f8833981810160405260808110156200003757600080fd5b50805160208201516040830151606090930151919290916001600160a01b0380851690841614156200006857600080fd5b6001600160701b0382166200007c57600080fd5b6001600160701b0381166200009057600080fd5b826001600160a01b0316846001600160a01b031610620000b2578284620000b5565b83835b600380546001600160a01b03199081166001600160a01b0393841617909155600280549091169282169290921791829055600480546001600160701b0319166001600160701b0386811691909117600160701b600160e01b031916600160701b8683160217808355604080516340c10f1960e01b81523094810194909452911660248301525192909116916340c10f199160448082019260009290919082900301818387803b1580156200016857600080fd5b505af11580156200017d573d6000803e3d6000fd5b505060035460048054604080516340c10f1960e01b81523093810193909352600160701b9091046001600160701b03166024830152516001600160a01b0390921693506340c10f19925060448082019260009290919082900301818387803b158015620001e957600080fd5b505af1158015620001fe573d6000803e3d6000fd5b5050505062000221640100000000426200027660201b620014c21790919060201c565b600480546001600160e01b0316600160e01b63ffffffff9384168102919091179182905581049091166001600160701b0380831682028116600055600160701b9092048216021660015550620002df92505050565b6000808211620002cd576040805162461bcd60e51b815260206004820152601860248201527f536166654d6174683a206d6f64756c6f206279207a65726f0000000000000000604482015290519081900360640190fd5b818381620002d757fe5b069392505050565b61170980620002ef6000396000f3fe608060405234801561001057600080fd5b50600436106101005760003560e01c80636f642e7f11610097578063b5f54cd911610066578063b5f54cd914610304578063d21220a71461030c578063e78f81ea14610314578063fff6cae91461031c57610100565b80636f642e7f14610281578063792eb7911461028957806387115321146102bf578063aa886f58146102e357610100565b80632599841f116100d35780632599841f1461020c57806345ab8470146102425780635909c0d51461025f5780635a3d54931461027957610100565b8063022c0d9f146101055780630902f1ac146101935780630dfe1681146101cb5780631deaf95f146101ef575b600080fd5b6101916004803603608081101561011b57600080fd5b8135916020810135916001600160a01b03604083013516919081019060808101606082013564010000000081111561015257600080fd5b82018360208201111561016457600080fd5b8035906020019184600183028401116401000000008311171561018657600080fd5b509092509050610324565b005b61019b610731565b604080516001600160701b03948516815292909316602083015263ffffffff168183015290519081900360600190f35b6101d361075b565b604080516001600160a01b039092168252519081900360200190f35b6101916004803603602081101561020557600080fd5b503561076a565b6101916004803603606081101561022257600080fd5b506001600160a01b0381358116916020810135909116906040013561076f565b6101916004803603602081101561025857600080fd5b5035610dd5565b610267610dda565b60408051918252519081900360200190f35b610267610de0565b610267610de6565b6101916004803603606081101561029f57600080fd5b506001600160a01b03813581169160208101359091169060400135610dec565b6102c7611451565b604080516001600160701b039092168252519081900360200190f35b6102eb611467565b6040805163ffffffff9092168252519081900360200190f35b6102c761147a565b6101d3611489565b610267611498565b61019161149e565b84156103ad576002546040805163a9059cbb60e01b81526001600160a01b038681166004830152602482018990529151919092169163a9059cbb9160448083019260209291908290030181600087803b15801561038057600080fd5b505af1158015610394573d6000803e3d6000fd5b505050506040513d60208110156103aa57600080fd5b50505b8315610436576003546040805163a9059cbb60e01b81526001600160a01b038681166004830152602482018890529151919092169163a9059cbb9160448083019260209291908290030181600087803b15801561040957600080fd5b505af115801561041d573d6000803e3d6000fd5b505050506040513d602081101561043357600080fd5b50505b80156104e857826001600160a01b03166310d1e85c33878786866040518663ffffffff1660e01b815260040180866001600160a01b03168152602001858152602001848152602001806020018281038252848482818152602001925080828437600081840152601f19601f8201169050808301925050509650505050505050600060405180830381600087803b1580156104cf57600080fd5b505af11580156104e3573d6000803e3d6000fd5b505050505b600254604080516370a0823160e01b815230600482015290516105f3926001600160a01b0316916370a08231916024808301926020929190829003018186803b15801561053457600080fd5b505afa158015610548573d6000803e3d6000fd5b505050506040513d602081101561055e57600080fd5b5051600354604080516370a0823160e01b815230600482015290516001600160a01b03909216916370a0823191602480820192602092909190829003018186803b1580156105ab57600080fd5b505afa1580156105bf573d6000803e3d6000fd5b505050506040513d60208110156105d557600080fd5b50516004546001600160701b0380821691600160701b900416611529565b600254604080516370a0823160e01b815230600482015290516001600160a01b03909216916370a0823191602480820192602092909190829003018186803b15801561063e57600080fd5b505afa158015610652573d6000803e3d6000fd5b505050506040513d602081101561066857600080fd5b5051600480546001600160701b0319166001600160701b03909216919091178155600354604080516370a0823160e01b81523093810193909352516001600160a01b03909116916370a08231916024808301926020929190829003018186803b1580156106d457600080fd5b505afa1580156106e8573d6000803e3d6000fd5b505050506040513d60208110156106fe57600080fd5b5051600480546001600160701b03909216600160701b02600160701b600160e01b03199092169190911790555050505050565b6004546001600160701b0380821692600160701b830490911691600160e01b900463ffffffff1690565b6002546001600160a01b031690565b600155565b6002546001600160a01b03848116911614156107d2576004805460646001600160701b0369d3c21bcecceda100000085810282169290920416600160701b02600160701b600160e01b03196001600160701b031990931691909117919091161790555b6003546001600160a01b03848116911614156108415760048054600160701b600160e01b03191666d3c21bcecceda160881b17905560646001600160701b0369d3c21bcecceda1000000830216600480546001600160701b031916929091046001600160701b03169190911790555b60048054600254604080516370a0823160e01b81523094810194909452516001600160701b03909216926001600160a01b03909116916370a0823191602480820192602092909190829003018186803b15801561089d57600080fd5b505afa1580156108b1573d6000803e3d6000fd5b505050506040513d60208110156108c757600080fd5b505111156109df5760025460048054604080516370a0823160e01b81523093810193909352516001600160a01b039093169263a9059cbb9284926001600160701b03169183916370a08231916024808301926020929190829003018186803b15801561093257600080fd5b505afa158015610946573d6000803e3d6000fd5b505050506040513d602081101561095c57600080fd5b5051604080516001600160e01b031960e087901b1681526001600160a01b03909416600485015291900360248301525160448083019260209291908290030181600087803b1580156109ad57600080fd5b505af11580156109c1573d6000803e3d6000fd5b505050506040513d60208110156109d757600080fd5b50610ad89050565b600254604080516370a0823160e01b8152306004820181905291516001600160a01b03909316926340c10f19929184916370a0823191602480820192602092909190829003018186803b158015610a3557600080fd5b505afa158015610a49573d6000803e3d6000fd5b505050506040513d6020811015610a5f57600080fd5b505160048054604080516001600160e01b031960e088901b1681526001600160a01b03909516928501929092526001600160701b031691909103602483015251604480830192600092919082900301818387803b158015610abf57600080fd5b505af1158015610ad3573d6000803e3d6000fd5b505050505b60048054600354604080516370a0823160e01b8152309481019490945251600160701b9092046001600160701b0316926001600160a01b03909116916370a0823191602480820192602092909190829003018186803b158015610b3a57600080fd5b505afa158015610b4e573d6000803e3d6000fd5b505050506040513d6020811015610b6457600080fd5b50511115610c835760035460048054604080516370a0823160e01b81523093810193909352516001600160a01b039093169263a9059cbb928492600160701b90046001600160701b03169183916370a08231916024808301926020929190829003018186803b158015610bd657600080fd5b505afa158015610bea573d6000803e3d6000fd5b505050506040513d6020811015610c0057600080fd5b5051604080516001600160e01b031960e087901b1681526001600160a01b03909416600485015291900360248301525160448083019260209291908290030181600087803b158015610c5157600080fd5b505af1158015610c65573d6000803e3d6000fd5b505050506040513d6020811015610c7b57600080fd5b50610d849050565b600354604080516370a0823160e01b8152306004820181905291516001600160a01b03909316926340c10f19929184916370a0823191602480820192602092909190829003018186803b158015610cd957600080fd5b505afa158015610ced573d6000803e3d6000fd5b505050506040513d6020811015610d0357600080fd5b505160048054604080516001600160e01b031960e088901b1681526001600160a01b03909516928501929092526001600160701b03600160701b9091041691909103602483015251604480830192600092919082900301818387803b158015610d6b57600080fd5b505af1158015610d7f573d6000803e3d6000fd5b505050505b600254604080516370a0823160e01b81523060048201529051610dd0926001600160a01b0316916370a08231916024808301926020929190829003018186803b15801561053457600080fd5b505050565b600055565b60005490565b60015490565b60015481565b600254604080516370a0823160e01b81523060048201529051610e38926001600160a01b0316916370a08231916024808301926020929190829003018186803b15801561053457600080fd5b6002546001600160a01b0384811691161415610e9b576004805460646001600160701b0369d3c21bcecceda100000085810282169290920416600160701b02600160701b600160e01b03196001600160701b031990931691909117919091161790555b6003546001600160a01b0384811691161415610f0a5760048054600160701b600160e01b03191666d3c21bcecceda160881b17905560646001600160701b0369d3c21bcecceda1000000830216600480546001600160701b031916929091046001600160701b03169190911790555b60048054600254604080516370a0823160e01b81523094810194909452516001600160701b03909216926001600160a01b03909116916370a0823191602480820192602092909190829003018186803b158015610f6657600080fd5b505afa158015610f7a573d6000803e3d6000fd5b505050506040513d6020811015610f9057600080fd5b505111156110a85760025460048054604080516370a0823160e01b81523093810193909352516001600160a01b039093169263a9059cbb9284926001600160701b03169183916370a08231916024808301926020929190829003018186803b158015610ffb57600080fd5b505afa15801561100f573d6000803e3d6000fd5b505050506040513d602081101561102557600080fd5b5051604080516001600160e01b031960e087901b1681526001600160a01b03909416600485015291900360248301525160448083019260209291908290030181600087803b15801561107657600080fd5b505af115801561108a573d6000803e3d6000fd5b505050506040513d60208110156110a057600080fd5b506111a19050565b600254604080516370a0823160e01b8152306004820181905291516001600160a01b03909316926340c10f19929184916370a0823191602480820192602092909190829003018186803b1580156110fe57600080fd5b505afa158015611112573d6000803e3d6000fd5b505050506040513d602081101561112857600080fd5b505160048054604080516001600160e01b031960e088901b1681526001600160a01b03909516928501929092526001600160701b031691909103602483015251604480830192600092919082900301818387803b15801561118857600080fd5b505af115801561119c573d6000803e3d6000fd5b505050505b60048054600354604080516370a0823160e01b8152309481019490945251600160701b9092046001600160701b0316926001600160a01b03909116916370a0823191602480820192602092909190829003018186803b15801561120357600080fd5b505afa158015611217573d6000803e3d6000fd5b505050506040513d602081101561122d57600080fd5b5051111561134c5760035460048054604080516370a0823160e01b81523093810193909352516001600160a01b039093169263a9059cbb928492600160701b90046001600160701b03169183916370a08231916024808301926020929190829003018186803b15801561129f57600080fd5b505afa1580156112b3573d6000803e3d6000fd5b505050506040513d60208110156112c957600080fd5b5051604080516001600160e01b031960e087901b1681526001600160a01b03909416600485015291900360248301525160448083019260209291908290030181600087803b15801561131a57600080fd5b505af115801561132e573d6000803e3d6000fd5b505050506040513d602081101561134457600080fd5b50610dd09050565b600354604080516370a0823160e01b8152306004820181905291516001600160a01b03909316926340c10f19929184916370a0823191602480820192602092909190829003018186803b1580156113a257600080fd5b505afa1580156113b6573d6000803e3d6000fd5b505050506040513d60208110156113cc57600080fd5b505160048054604080516001600160e01b031960e088901b1681526001600160a01b03909516928501929092526001600160701b03600160701b9091041691909103602483015251604480830192600092919082900301818387803b15801561143457600080fd5b505af1158015611448573d6000803e3d6000fd5b50505050505050565b600454600160701b90046001600160701b031681565b600454600160e01b900463ffffffff1681565b6004546001600160701b031681565b6003546001600160a01b031690565b60005481565b6004546114c0906001600160701b0380821691600160701b9004168181611529565b565b6000808211611518576040805162461bcd60e51b815260206004820152601860248201527f536166654d6174683a206d6f64756c6f206279207a65726f0000000000000000604482015290519081900360640190fd5b81838161152157fe5b069392505050565b6001600160701b03841180159061154757506001600160701b038311155b61158e576040805162461bcd60e51b8152602060048201526013602482015272556e697377617056323a204f564552464c4f5760681b604482015290519081900360640190fd5b60045463ffffffff42811691600160e01b900481168203908116158015906115be57506001600160701b03841615155b80156115d257506001600160701b03831615155b1561163d578063ffffffff166115fa856115eb8661169c565b6001600160e01b0316906116ae565b600080546001600160e01b03929092169290920201905563ffffffff8116611625846115eb8761169c565b600180546001600160e01b0392909216929092020190555b50600480546001600160701b0319166001600160701b0396871617600160701b600160e01b031916600160701b9590961694909402949094176001600160e01b0316600160e01b63ffffffff9590951694909402939093179091555050565b6001600160701b0316600160701b0290565b60006001600160701b0382166001600160e01b038416816116cb57fe5b04939250505056fea2646970667358221220ba1a76a5083fbf3501789d2acc3385f212e547e047ed15a5fd06fc99e019e43f64736f6c63430007060033",
  "immutableReferences": {},
  "source": "// SPDX-License-Identifier: BUSL-1.1\n\npragma solidity 0.7.6;\n\nimport \"@openzeppelin/contracts/math/SafeMath.sol\";\nimport \"./MockERC20.sol\";\nimport \"../dex/eth/UniV2Dex.sol\";\nimport \"@uniswap/v2-core/contracts/interfaces/IUniswapV2Callee.sol\";\nimport \"@uniswap/v2-core/contracts/interfaces/IUniswapV2Pair.sol\";\n\nlibrary UQ112x112 {\n    uint224 constant Q112 = 2 ** 112;\n\n    // encode a uint112 as a UQ112x112\n    function encode(uint112 y) internal pure returns (uint224 z) {\n        z = uint224(y) * Q112;\n        // never overflows\n    }\n\n    // divide a UQ112x112 by a uint112, returning a UQ112x112\n    function uqdiv(uint224 x, uint112 y) internal pure returns (uint224 z) {\n        z = x / uint224(y);\n    }\n}\n\ncontract MockUniswapV2Pair {\n    using SafeMath for uint256;\n    using UQ112x112 for uint224;\n\n    uint public _price0CumulativeLast;\n    uint public _price1CumulativeLast;\n\n    address internal _token0;\n    address internal _token1;\n    uint112 public _reserve0;\n    uint112 public _reserve1;\n    uint32 public _blockTimestampLast;\n\n    constructor(address tokenA,\n        address tokenB,\n        uint112 reserve0,\n        uint112 reserve1)\n    {\n        require(tokenA != tokenB);\n        require(reserve0 != 0);\n        require(reserve1 != 0);\n        (_token0, _token1) = tokenA < tokenB ? (tokenA, tokenB) : (tokenB, tokenA);\n\n//        _token0 = tokenA;\n//        _token1 = tokenB;\n        _reserve0 = reserve0;\n        _reserve1 = reserve1;\n\n        MockERC20(_token0).mint(address(this), _reserve0);\n        MockERC20(_token1).mint(address(this), _reserve1);\n        _blockTimestampLast = uint32(block.timestamp.mod(2 ** 32));\n        _price0CumulativeLast = uint(_reserve0 * _blockTimestampLast);\n        _price1CumulativeLast = uint(_reserve1 * _blockTimestampLast);\n    }\n\n    function swap(uint amount0Out, uint amount1Out, address to, bytes calldata data) external {\n        if (amount0Out > 0) {\n            MockERC20(_token0).transfer(to, amount0Out);\n        }\n        if (amount1Out > 0) {\n            MockERC20(_token1).transfer(to, amount1Out);\n        }\n        if (data.length > 0) {\n            IUniswapV2Callee(to).uniswapV2Call(msg.sender, amount0Out, amount1Out, data);\n        }\n        _update(MockERC20(_token0).balanceOf(address(this)), MockERC20(_token1).balanceOf(address(this)), _reserve0, _reserve1);\n        _reserve0 = uint112(MockERC20(_token0).balanceOf(address(this)));\n        _reserve1 = uint112(MockERC20(_token1).balanceOf(address(this)));\n    }\n\n\n    function setPrice(address tokenA, address tokenB, uint price) external {\n        _update(MockERC20(_token0).balanceOf(address(this)), MockERC20(_token1).balanceOf(address(this)), _reserve0, _reserve1);\n        tokenB;\n        if (_token0 == tokenA) {\n            _reserve0 = 1000000 * 1e18 * 1;\n            _reserve1 = 1000000 * 1e18 * uint112(price) / 100;\n        }\n        if (_token1 == tokenA) {\n            _reserve1 = 1000000 * 1e18 * 1;\n            _reserve0 = 1000000 * 1e18 * uint112(price) / 100;\n        }\n        if (MockERC20(_token0).balanceOf(address(this)) > _reserve0) {\n            MockERC20(_token0).transfer(_token0, MockERC20(_token0).balanceOf(address(this)) - _reserve0);\n        } else {\n            MockERC20(_token0).mint(address(this), _reserve0 - MockERC20(_token0).balanceOf(address(this)));\n        }\n        if (MockERC20(_token1).balanceOf(address(this)) > _reserve1) {\n            MockERC20(_token1).transfer(_token1, MockERC20(_token1).balanceOf(address(this)) - _reserve1);\n        } else {\n            MockERC20(_token1).mint(address(this), _reserve1 - MockERC20(_token1).balanceOf(address(this)));\n        }\n    }\n\n    function setPriceUpdateAfter(address tokenA, address tokenB, uint price) external {\n        tokenB;\n        if (_token0 == tokenA) {\n            _reserve0 = 1000000 * 1e18 * 1;\n            _reserve1 = 1000000 * 1e18 * uint112(price) / 100;\n        }\n        if (_token1 == tokenA) {\n            _reserve1 = 1000000 * 1e18 * 1;\n            _reserve0 = 1000000 * 1e18 * uint112(price) / 100;\n        }\n        if (MockERC20(_token0).balanceOf(address(this)) > _reserve0) {\n            MockERC20(_token0).transfer(_token0, MockERC20(_token0).balanceOf(address(this)) - _reserve0);\n        } else {\n            MockERC20(_token0).mint(address(this), _reserve0 - MockERC20(_token0).balanceOf(address(this)));\n        }\n        if (MockERC20(_token1).balanceOf(address(this)) > _reserve1) {\n            MockERC20(_token1).transfer(_token1, MockERC20(_token1).balanceOf(address(this)) - _reserve1);\n        } else {\n            MockERC20(_token1).mint(address(this), _reserve1 - MockERC20(_token1).balanceOf(address(this)));\n        }\n        \n        _update(MockERC20(_token0).balanceOf(address(this)), MockERC20(_token1).balanceOf(address(this)), _reserve0, _reserve1);\n    }\n\n    // update reserves and, on the first call per block, price accumulators\n    function _update(uint balance0, uint balance1, uint112 _reserve00, uint112 _reserve11) private {\n        require(balance0 <= uint112(- 1) && balance1 <= uint112(- 1), 'UniswapV2: OVERFLOW');\n        uint32 blockTimestamp = uint32(block.timestamp % 2 ** 32);\n        uint32 timeElapsed = blockTimestamp - _blockTimestampLast;\n        // overflow is desired\n        if (timeElapsed > 0 && _reserve00 != 0 && _reserve11 != 0) {\n            // * never overflows, and + overflow is desired\n            _price0CumulativeLast += uint(UQ112x112.encode(_reserve11).uqdiv(_reserve00)) * timeElapsed;\n            _price1CumulativeLast += uint(UQ112x112.encode(_reserve00).uqdiv(_reserve11)) * timeElapsed;\n        }\n        _reserve0 = uint112(balance0);\n        _reserve1 = uint112(balance1);\n        _blockTimestampLast = blockTimestamp;\n    }\n\n    function getReserves() external view\n    returns (uint112 reserve0, uint112 reserve1, uint32 blockTimestampLast){\n        return (_reserve0, _reserve1, _blockTimestampLast);\n    }\n\n    function price0CumulativeLast() external view returns (uint){\n        return _price0CumulativeLast;\n    }\n\n    function price1CumulativeLast() external view returns (uint){\n        return _price1CumulativeLast;\n    }\n\n    function token0() external view returns (address){\n        return _token0;\n    }\n\n    function token1() external view returns (address){\n        return _token1;\n    }\n\n    function setPrice0CumulativeLast(uint _price) external {\n        _price0CumulativeLast = _price;\n    }\n\n    function setPrice1CumulativeLast(uint _price) external {\n        _price1CumulativeLast = _price;\n    }\n    // force reserves to match balances\n    function sync() external {\n        _update(_reserve0, _reserve1, _reserve0, _reserve1);\n    }\n}\n",
  "sourcePath": "/home/mingyue/Smartian/Web3Bugs/contracts/72/openleverage-contracts/contracts/test/MockUniswapV2Pair.sol",
  "compiler": {
    "name": "solc",
    "version": "0.7.6+commit.7338295f.Emscripten.clang"
  },
  "schemaVersion": "3.4.16",
  "updatedAt": "2025-02-26T03:48:00.542Z",
  "devdoc": {
    "kind": "dev",
    "methods": {},
    "version": 1
  },
  "userdoc": {
    "kind": "user",
    "methods": {},
    "version": 1
  }
}