{
  "contractName": "OLEToken",
  "abi": [
    {
      "inputs": [
        {
          "internalType": "address",
          "name": "initAccount",
          "type": "address"
        },
        {
          "internalType": "address payable",
          "name": "_admin",
          "type": "address"
        },
        {
          "internalType": "string",
          "name": "_name",
          "type": "string"
        },
        {
          "internalType": "string",
          "name": "_symbol",
          "type": "string"
        }
      ],
      "stateMutability": "nonpayable",
      "type": "constructor"
    },
    {
      "anonymous": false,
      "inputs": [
        {
          "indexed": true,
          "internalType": "address",
          "name": "owner",
          "type": "address"
        },
        {
          "indexed": true,
          "internalType": "address",
          "name": "spender",
          "type": "address"
        },
        {
          "indexed": false,
          "internalType": "uint256",
          "name": "amount",
          "type": "uint256"
        }
      ],
      "name": "Approval",
      "type": "event"
    },
    {
      "anonymous": false,
      "inputs": [
        {
          "indexed": false,
          "internalType": "address",
          "name": "oldAdmin",
          "type": "address"
        },
        {
          "indexed": false,
          "internalType": "address",
          "name": "newAdmin",
          "type": "address"
        }
      ],
      "name": "NewAdmin",
      "type": "event"
    },
    {
      "anonymous": false,
      "inputs": [
        {
          "indexed": false,
          "internalType": "address",
          "name": "oldPendingAdmin",
          "type": "address"
        },
        {
          "indexed": false,
          "internalType": "address",
          "name": "newPendingAdmin",
          "type": "address"
        }
      ],
      "name": "NewPendingAdmin",
      "type": "event"
    },
    {
      "anonymous": false,
      "inputs": [
        {
          "indexed": true,
          "internalType": "address",
          "name": "from",
          "type": "address"
        },
        {
          "indexed": true,
          "internalType": "address",
          "name": "to",
          "type": "address"
        },
        {
          "indexed": false,
          "internalType": "uint256",
          "name": "amount",
          "type": "uint256"
        }
      ],
      "name": "Transfer",
      "type": "event"
    },
    {
      "inputs": [],
      "name": "acceptAdmin",
      "outputs": [],
      "stateMutability": "nonpayable",
      "type": "function"
    },
    {
      "inputs": [],
      "name": "admin",
      "outputs": [
        {
          "internalType": "address payable",
          "name": "",
          "type": "address"
        }
      ],
      "stateMutability": "view",
      "type": "function"
    },
    {
      "inputs": [],
      "name": "decimals",
      "outputs": [
        {
          "internalType": "uint8",
          "name": "",
          "type": "uint8"
        }
      ],
      "stateMutability": "view",
      "type": "function"
    },
    {
      "inputs": [],
      "name": "developer",
      "outputs": [
        {
          "internalType": "address payable",
          "name": "",
          "type": "address"
        }
      ],
      "stateMutability": "view",
      "type": "function"
    },
    {
      "inputs": [],
      "name": "name",
      "outputs": [
        {
          "internalType": "string",
          "name": "",
          "type": "string"
        }
      ],
      "stateMutability": "view",
      "type": "function"
    },
    {
      "inputs": [],
      "name": "pendingAdmin",
      "outputs": [
        {
          "internalType": "address payable",
          "name": "",
          "type": "address"
        }
      ],
      "stateMutability": "view",
      "type": "function"
    },
    {
      "inputs": [
        {
          "internalType": "address payable",
          "name": "newPendingAdmin",
          "type": "address"
        }
      ],
      "name": "setPendingAdmin",
      "outputs": [],
      "stateMutability": "nonpayable",
      "type": "function"
    },
    {
      "inputs": [],
      "name": "symbol",
      "outputs": [
        {
          "internalType": "string",
          "name": "",
          "type": "string"
        }
      ],
      "stateMutability": "view",
      "type": "function"
    },
    {
      "inputs": [],
      "name": "totalSupply",
      "outputs": [
        {
          "internalType": "uint256",
          "name": "",
          "type": "uint256"
        }
      ],
      "stateMutability": "view",
      "type": "function"
    },
    {
      "inputs": [
        {
          "internalType": "address",
          "name": "account",
          "type": "address"
        },
        {
          "internalType": "uint256",
          "name": "amount",
          "type": "uint256"
        }
      ],
      "name": "mint",
      "outputs": [],
      "stateMutability": "nonpayable",
      "type": "function"
    },
    {
      "inputs": [
        {
          "internalType": "uint256",
          "name": "amount",
          "type": "uint256"
        }
      ],
      "name": "burn",
      "outputs": [],
      "stateMutability": "nonpayable",
      "type": "function"
    },
    {
      "inputs": [
        {
          "internalType": "address",
          "name": "account",
          "type": "address"
        },
        {
          "internalType": "address",
          "name": "spender",
          "type": "address"
        }
      ],
      "name": "allowance",
      "outputs": [
        {
          "internalType": "uint256",
          "name": "",
          "type": "uint256"
        }
      ],
      "stateMutability": "view",
      "type": "function"
    },
    {
      "inputs": [
        {
          "internalType": "address",
          "name": "spender",
          "type": "address"
        },
        {
          "internalType": "uint256",
          "name": "amount",
          "type": "uint256"
        }
      ],
      "name": "approve",
      "outputs": [
        {
          "internalType": "bool",
          "name": "",
          "type": "bool"
        }
      ],
      "stateMutability": "nonpayable",
      "type": "function"
    },
    {
      "inputs": [
        {
          "internalType": "address",
          "name": "account",
          "type": "address"
        }
      ],
      "name": "balanceOf",
      "outputs": [
        {
          "internalType": "uint256",
          "name": "",
          "type": "uint256"
        }
      ],
      "stateMutability": "view",
      "type": "function"
    },
    {
      "inputs": [
        {
          "internalType": "address",
          "name": "dst",
          "type": "address"
        },
        {
          "internalType": "uint256",
          "name": "amount",
          "type": "uint256"
        }
      ],
      "name": "transfer",
      "outputs": [
        {
          "internalType": "bool",
          "name": "",
          "type": "bool"
        }
      ],
      "stateMutability": "nonpayable",
      "type": "function"
    },
    {
      "inputs": [
        {
          "internalType": "address",
          "name": "src",
          "type": "address"
        },
        {
          "internalType": "address",
          "name": "dst",
          "type": "address"
        },
        {
          "internalType": "uint256",
          "name": "amount",
          "type": "uint256"
        }
      ],
      "name": "transferFrom",
      "outputs": [
        {
          "internalType": "bool",
          "name": "",
          "type": "bool"
        }
      ],
      "stateMutability": "nonpayable",
      "type": "function"
    }
  ],
  "bytecode": "0x60806040526b033b2e3c9fd0803ce80000006005553480156200002157600080fd5b5060405162000f4838038062000f48833981016040819052620000449162000252565b60028054336001600160a01b031991821617909155600080549091166001600160a01b0385811691909117825560055490861682526007602090815260409092205582516200009a91600391908501906200010b565b508051620000b09060049060208401906200010b565b50836001600160a01b031660006001600160a01b03167fddf252ad1be2c89b69c2b068fc378daa952ba7f163c4a11628f55a4df523b3ef600554604051620000f99190620002e4565b60405180910390a35050505062000306565b828054600181600116156101000203166002900490600052602060002090601f0160209004810192826200014357600085556200018e565b82601f106200015e57805160ff19168380011785556200018e565b828001600101855582156200018e579182015b828111156200018e57825182559160200191906001019062000171565b506200019c929150620001a0565b5090565b5b808211156200019c5760008155600101620001a1565b600082601f830112620001c8578081fd5b81516001600160401b0380821115620001dd57fe5b6040516020601f8401601f1916820181018381118382101715620001fd57fe5b604052838252858401810187101562000214578485fd5b8492505b8383101562000237578583018101518284018201529182019162000218565b838311156200024857848185840101525b5095945050505050565b6000806000806080858703121562000268578384fd5b84516200027581620002ed565b60208601519094506200028881620002ed565b60408601519093506001600160401b0380821115620002a5578384fd5b620002b388838901620001b7565b93506060870151915080821115620002c9578283fd5b50620002d887828801620001b7565b91505092959194509250565b90815260200190565b6001600160a01b03811681146200030357600080fd5b50565b610c3280620003166000396000f3fe608060405234801561001057600080fd5b50600436106101005760003560e01c806342966c6811610097578063a9059cbb11610066578063a9059cbb146101f3578063ca4b208b14610206578063dd62ed3e1461020e578063f851a4401461022157610100565b806342966c68146101b25780634dd18bf5146101c557806370a08231146101d857806395d89b41146101eb57610100565b806323b872dd116100d357806323b872dd146101625780632678224714610175578063313ce5671461018a57806340c10f191461019f57610100565b806306fdde0314610105578063095ea7b3146101235780630e18b6811461014357806318160ddd1461014d575b600080fd5b61010d610229565b60405161011a9190610acd565b60405180910390f35b610136610131366004610a6b565b6102b7565b60405161011a9190610ac2565b61014b610321565b005b610155610421565b60405161011a9190610bab565b610136610170366004610a2b565b610427565b61017d6104ed565b60405161011a9190610aae565b6101926104fc565b60405161011a9190610bb4565b61014b6101ad366004610a6b565b610501565b61014b6101c0366004610a96565b610614565b61014b6101d33660046109d7565b61068e565b6101556101e63660046109d7565b610747565b61010d610762565b610136610201366004610a6b565b6107bd565b61017d6107d3565b61015561021c3660046109f3565b6107e2565b61017d61080d565b6003805460408051602060026001851615610100026000190190941693909304601f810184900484028201840190925281815292918301828280156102af5780601f10610284576101008083540402835291602001916102af565b820191906000526020600020905b81548152906001019060200180831161029257829003601f168201915b505050505081565b3360008181526006602090815260408083206001600160a01b038716808552925280832085905551919290917f8c5be1e5ebec7d5bd14f71427d1e84f3dd0314c0f7b2291e5b200ac8c7c3b92590610310908690610bab565b60405180910390a350600192915050565b6001546001600160a01b0316331461036a5760405162461bcd60e51b8152600401808060200182810382526022815260200180610bdb6022913960400191505060405180910390fd5b60008054600180546001600160a01b038082166001600160a01b031980861682179687905590921690925560408051938316808552949092166020840152815190927ff9ffabca9c8276e99321725bcb43fb076a6c66a54b7f21c4e8146d8519b417dc92908290030190a1600154604080516001600160a01b038085168252909216602083015280517fca4f2f25d0898edd99413412fb94012f9e54ec8142f9b093e7720646a95b16a99281900390910190a15050565b60055481565b6001600160a01b03831660008181526006602090815260408083203380855292528220549192909190821480159061046157506000198114155b156104d657610470818561081c565b6001600160a01b038781166000818152600660209081526040808320948816808452949091529081902084905551919290917f8c5be1e5ebec7d5bd14f71427d1e84f3dd0314c0f7b2291e5b200ac8c7c3b925916104cd91610bab565b60405180910390a35b6104e1868686610879565b50600195945050505050565b6001546001600160a01b031681565b601281565b6000546001600160a01b03163314610557576040805162461bcd60e51b815260206004820152601460248201527331b0b63632b91036bab9ba1031329030b236b4b760611b604482015290519081900360640190fd5b6001600160a01b0382166105865760405162461bcd60e51b815260040161057d90610b4a565b60405180910390fd5b6005546105939082610976565b6005556001600160a01b0382166000908152600760205260409020546105b99082610976565b6001600160a01b0383166000818152600760205260408082209390935591519091907fddf252ad1be2c89b69c2b068fc378daa952ba7f163c4a11628f55a4df523b3ef90610608908590610bab565b60405180910390a35050565b3360009081526007602052604090205461062e908261081c565b3360009081526007602052604090205560055461064b908261081c565b60055560405160009033907fddf252ad1be2c89b69c2b068fc378daa952ba7f163c4a11628f55a4df523b3ef90610683908590610bab565b60405180910390a350565b6000546001600160a01b031633146106e4576040805162461bcd60e51b815260206004820152601460248201527331b0b63632b91036bab9ba1031329030b236b4b760611b604482015290519081900360640190fd5b600180546001600160a01b038381166001600160a01b0319831681179093556040805191909216808252602082019390935281517fca4f2f25d0898edd99413412fb94012f9e54ec8142f9b093e7720646a95b16a9929181900390910190a15050565b6001600160a01b031660009081526007602052604090205490565b6004805460408051602060026001851615610100026000190190941693909304601f810184900484028201840190925281815292918301828280156102af5780601f10610284576101008083540402835291602001916102af565b60006107ca338484610879565b50600192915050565b6002546001600160a01b031681565b6001600160a01b03918216600090815260066020908152604080832093909416825291909152205490565b6000546001600160a01b031681565b600082821115610873576040805162461bcd60e51b815260206004820152601e60248201527f536166654d6174683a207375627472616374696f6e206f766572666c6f770000604482015290519081900360640190fd5b50900390565b6001600160a01b03831661089f5760405162461bcd60e51b815260040161057d90610b81565b6001600160a01b0382166108c55760405162461bcd60e51b815260040161057d90610b20565b6001600160a01b0383166000908152600760205260409020546108e8908261081c565b6001600160a01b0380851660009081526007602052604080822093909355908416815220546109179082610976565b6001600160a01b0380841660008181526007602052604090819020939093559151908516907fddf252ad1be2c89b69c2b068fc378daa952ba7f163c4a11628f55a4df523b3ef90610969908590610bab565b60405180910390a3505050565b6000828201838110156109d0576040805162461bcd60e51b815260206004820152601b60248201527f536166654d6174683a206164646974696f6e206f766572666c6f770000000000604482015290519081900360640190fd5b9392505050565b6000602082840312156109e8578081fd5b81356109d081610bc2565b60008060408385031215610a05578081fd5b8235610a1081610bc2565b91506020830135610a2081610bc2565b809150509250929050565b600080600060608486031215610a3f578081fd5b8335610a4a81610bc2565b92506020840135610a5a81610bc2565b929592945050506040919091013590565b60008060408385031215610a7d578182fd5b8235610a8881610bc2565b946020939093013593505050565b600060208284031215610aa7578081fd5b5035919050565b6001600160a01b0391909116815260200190565b901515815260200190565b6000602080835283518082850152825b81811015610af957858101830151858201604001528201610add565b81811115610b0a5783604083870101525b50601f01601f1916929092016040019392505050565b60208082526010908201526f5a65726f20647374206164647265737360801b604082015260600190565b6020808252601d908201527f4f4c453a206d696e7420746f20746865207a65726f2061646472657373000000604082015260600190565b60208082526010908201526f5a65726f20737263206164647265737360801b604082015260600190565b90815260200190565b60ff91909116815260200190565b6001600160a01b0381168114610bd757600080fd5b5056fe6f6e6c792070656e64696e6741646d696e2063616e206163636570742061646d696ea2646970667358221220c0b0113bbe59debabcdd7e6ceb978749f64dcb77174842d04f51e7a00aea187c64736f6c63430007060033",
  "immutableReferences": {},
  "source": "// SPDX-License-Identifier: BUSL-1.1\npragma solidity 0.7.6;\n\npragma experimental ABIEncoderV2;\n\nimport \"../Adminable.sol\";\nimport \"@openzeppelin/contracts/math/SafeMath.sol\";\n\n/// @dev Admin of this contract is the address of Timelock. \ncontract OLEToken is Adminable {\n    using SafeMath for uint;\n\n    // EIP-20 token name for this token\n    string public  name;\n\n    // EIP-20 token symbol for this token\n    string public  symbol;\n\n    // EIP-20 token decimals for this token\n    uint8 public constant decimals = 18;\n\n    // Total number of tokens in circulation\n    uint public totalSupply = 1000000000e18; // 1 billion OLE\n\n    // Allowance amounts on behalf of others\n    mapping(address => mapping(address => uint)) internal allowances;\n\n    // Official record of token balances for each account\n    mapping(address => uint) internal balances;\n\n    // The standard EIP-20 transfer event\n    event Transfer(address indexed from, address indexed to, uint256 amount);\n\n    // The standard EIP-20 approval event\n    event Approval(address indexed owner, address indexed spender, uint256 amount);\n\n    /**\n     * Construct a new OpenLev token\n     * @param initAccount The initial account to grant all the tokens\n     */\n    constructor(address initAccount, address payable _admin, string memory _name, string memory _symbol)  {\n        admin = _admin;\n        balances[initAccount] = totalSupply;\n        name = _name;\n        symbol = _symbol;\n        emit Transfer(address(0), initAccount, totalSupply);\n    }\n\n    function mint(address account, uint amount) external onlyAdmin {\n        require(account != address(0), \"OLE: mint to the zero address\");\n        totalSupply = totalSupply.add(amount);\n        balances[account] = balances[account].add(amount);\n        emit Transfer(address(0), account, amount);\n    }\n\n    function burn(uint amount) external {\n        balances[msg.sender] = balances[msg.sender].sub(amount);\n        totalSupply = totalSupply.sub(amount);\n        emit Transfer(msg.sender, address(0), amount);\n    }\n    /**\n     * Get the number of tokens `spender` is approved to spend on behalf of `account`\n     * @param account The address of the account holding the funds\n     * @param spender The address of the account spending the funds\n     * @return The number of tokens approved\n     */\n    function allowance(address account, address spender) external view returns (uint) {\n        return allowances[account][spender];\n    }\n\n\n    /**\n     * Approve `spender` to transfer up to `amount` from `src`\n     * @dev This will overwrite the approval amount for `spender`\n     *  and is subject to issues noted [here](https://eips.ethereum.org/EIPS/eip-20#approve)\n     * @param spender The address of the account which may transfer tokens\n     * @return Whether or not the approval succeeded\n     */\n    function approve(address spender, uint amount) external returns (bool) {\n        allowances[msg.sender][spender] = amount;\n        emit Approval(msg.sender, spender, amount);\n        return true;\n    }\n\n    /**\n     * Get the number of tokens held by the `account`\n     * @param account The address of the account to get the balance of\n     * @return The number of tokens held\n     */\n    function balanceOf(address account) external view returns (uint) {\n        return balances[account];\n    }\n\n    /**\n     * Transfer `amount` tokens from `msg.sender` to `dst`\n     * @param dst The address of the destination account\n     * @return Whether or not the transfer succeeded\n     */\n    function transfer(address dst, uint amount) external returns (bool) {\n        _transferTokens(msg.sender, dst, amount);\n        return true;\n    }\n\n    /**\n     * Transfer `amount` tokens from `src` to `dst`\n     * @param src The address of the source account\n     * @param dst The address of the destination account\n     * @return Whether or not the transfer succeeded\n     */\n    function transferFrom(address src, address dst, uint amount) external returns (bool) {\n        address spender = msg.sender;\n        uint spenderAllowance = allowances[src][spender];\n\n        if (spender != src && spenderAllowance != uint(- 1)) {\n            allowances[src][spender] = spenderAllowance.sub(amount);\n            emit Approval(src, spender, allowances[src][spender]);\n        }\n\n        _transferTokens(src, dst, amount);\n        return true;\n    }\n\n\n    function _transferTokens(address src, address dst, uint amount) internal {\n        require(src != address(0), \"Zero src address\");\n        require(dst != address(0), \"Zero dst address\");\n\n        balances[src] = balances[src].sub(amount);\n        balances[dst] = balances[dst].add(amount);\n        emit Transfer(src, dst, amount);\n    }\n\n}\n",
  "sourcePath": "/home/mingyue/Smartian/Web3Bugs/contracts/72/openleverage-contracts/contracts/gov/OLEToken.sol",
  "compiler": {
    "name": "solc",
    "version": "0.7.6+commit.7338295f.Emscripten.clang"
  },
  "schemaVersion": "3.4.16",
  "updatedAt": "2025-02-26T03:47:59.520Z",
  "devdoc": {
    "details": "Admin of this contract is the address of Timelock. ",
    "kind": "dev",
    "methods": {
      "allowance(address,address)": {
        "params": {
          "account": "The address of the account holding the funds",
          "spender": "The address of the account spending the funds"
        },
        "returns": {
          "_0": "The number of tokens approved"
        }
      },
      "approve(address,uint256)": {
        "details": "This will overwrite the approval amount for `spender`  and is subject to issues noted [here](https://eips.ethereum.org/EIPS/eip-20#approve)",
        "params": {
          "spender": "The address of the account which may transfer tokens"
        },
        "returns": {
          "_0": "Whether or not the approval succeeded"
        }
      },
      "balanceOf(address)": {
        "params": {
          "account": "The address of the account to get the balance of"
        },
        "returns": {
          "_0": "The number of tokens held"
        }
      },
      "constructor": {
        "params": {
          "initAccount": "The initial account to grant all the tokens"
        }
      },
      "transfer(address,uint256)": {
        "params": {
          "dst": "The address of the destination account"
        },
        "returns": {
          "_0": "Whether or not the transfer succeeded"
        }
      },
      "transferFrom(address,address,uint256)": {
        "params": {
          "dst": "The address of the destination account",
          "src": "The address of the source account"
        },
        "returns": {
          "_0": "Whether or not the transfer succeeded"
        }
      }
    },
    "version": 1
  },
  "userdoc": {
    "kind": "user",
    "methods": {
      "allowance(address,address)": {
        "notice": "Get the number of tokens `spender` is approved to spend on behalf of `account`"
      },
      "approve(address,uint256)": {
        "notice": "Approve `spender` to transfer up to `amount` from `src`"
      },
      "balanceOf(address)": {
        "notice": "Get the number of tokens held by the `account`"
      },
      "constructor": {
        "notice": "Construct a new OpenLev token"
      },
      "transfer(address,uint256)": {
        "notice": "Transfer `amount` tokens from `msg.sender` to `dst`"
      },
      "transferFrom(address,address,uint256)": {
        "notice": "Transfer `amount` tokens from `src` to `dst`"
      }
    },
    "version": 1
  }
}