{
  "contractName": "OLETokenLock",
  "abi": [
    {
      "inputs": [
        {
          "internalType": "contract OLEToken",
          "name": "token_",
          "type": "address"
        },
        {
          "internalType": "address[]",
          "name": "beneficiaries",
          "type": "address[]"
        },
        {
          "internalType": "uint256[]",
          "name": "amounts",
          "type": "uint256[]"
        },
        {
          "internalType": "uint128[]",
          "name": "startTimes",
          "type": "uint128[]"
        },
        {
          "internalType": "uint128[]",
          "name": "endTimes",
          "type": "uint128[]"
        }
      ],
      "stateMutability": "nonpayable",
      "type": "constructor"
    },
    {
      "anonymous": false,
      "inputs": [
        {
          "indexed": false,
          "internalType": "address",
          "name": "beneficiary",
          "type": "address"
        },
        {
          "indexed": false,
          "internalType": "uint256",
          "name": "amount",
          "type": "uint256"
        }
      ],
      "name": "Release",
      "type": "event"
    },
    {
      "anonymous": false,
      "inputs": [
        {
          "indexed": false,
          "internalType": "address",
          "name": "beneficiary",
          "type": "address"
        },
        {
          "indexed": false,
          "internalType": "address",
          "name": "to",
          "type": "address"
        },
        {
          "indexed": false,
          "internalType": "uint256",
          "name": "amount",
          "type": "uint256"
        }
      ],
      "name": "TransferTo",
      "type": "event"
    },
    {
      "inputs": [
        {
          "internalType": "address",
          "name": "",
          "type": "address"
        }
      ],
      "name": "releaseVars",
      "outputs": [
        {
          "internalType": "uint256",
          "name": "amount",
          "type": "uint256"
        },
        {
          "internalType": "uint128",
          "name": "startTime",
          "type": "uint128"
        },
        {
          "internalType": "uint128",
          "name": "endTime",
          "type": "uint128"
        },
        {
          "internalType": "uint128",
          "name": "lastUpdateTime",
          "type": "uint128"
        }
      ],
      "stateMutability": "view",
      "type": "function"
    },
    {
      "inputs": [],
      "name": "token",
      "outputs": [
        {
          "internalType": "contract OLEToken",
          "name": "",
          "type": "address"
        }
      ],
      "stateMutability": "view",
      "type": "function"
    },
    {
      "inputs": [
        {
          "internalType": "address",
          "name": "beneficiary",
          "type": "address"
        }
      ],
      "name": "release",
      "outputs": [],
      "stateMutability": "nonpayable",
      "type": "function"
    },
    {
      "inputs": [
        {
          "internalType": "address",
          "name": "to",
          "type": "address"
        },
        {
          "internalType": "uint256",
          "name": "amount",
          "type": "uint256"
        }
      ],
      "name": "transferTo",
      "outputs": [],
      "stateMutability": "nonpayable",
      "type": "function"
    },
    {
      "inputs": [
        {
          "internalType": "address",
          "name": "beneficiary",
          "type": "address"
        }
      ],
      "name": "releaseAbleAmount",
      "outputs": [
        {
          "internalType": "uint256",
          "name": "",
          "type": "uint256"
        }
      ],
      "stateMutability": "view",
      "type": "function"
    },
    {
      "inputs": [
        {
          "internalType": "address",
          "name": "beneficiary",
          "type": "address"
        }
      ],
      "name": "lockedAmount",
      "outputs": [
        {
          "internalType": "uint256",
          "name": "",
          "type": "uint256"
        }
      ],
      "stateMutability": "view",
      "type": "function"
    }
  ],
  "bytecode": "0x60806040523480156200001157600080fd5b506040516200107a3803806200107a833981810160405260a08110156200003757600080fd5b8151602083018051604051929492938301929190846401000000008211156200005f57600080fd5b9083019060208201858111156200007557600080fd5b82518660208202830111640100000000821117156200009357600080fd5b82525081516020918201928201910280838360005b83811015620000c2578181015183820152602001620000a8565b5050505090500160405260200180516040519392919084640100000000821115620000ec57600080fd5b9083019060208201858111156200010257600080fd5b82518660208202830111640100000000821117156200012057600080fd5b82525081516020918201928201910280838360005b838110156200014f57818101518382015260200162000135565b50505050905001604052602001805160405193929190846401000000008211156200017957600080fd5b9083019060208201858111156200018f57600080fd5b8251866020820283011164010000000082111715620001ad57600080fd5b82525081516020918201928201910280838360005b83811015620001dc578181015183820152602001620001c2565b50505050905001604052602001805160405193929190846401000000008211156200020657600080fd5b9083019060208201858111156200021c57600080fd5b82518660208202830111640100000000821117156200023a57600080fd5b82525081516020918201928201910280838360005b83811015620002695781810151838201526020016200024f565b505050509050016040525050508251845114801562000289575081518451145b801562000297575080518451145b620002e9576040805162461bcd60e51b815260206004820152601960248201527f4172726179206c656e677468206d7573742062652073616d6500000000000000604482015290519081900360640190fd5b600080546001600160a01b0319166001600160a01b0387161781555b8451811015620004275760008582815181106200031e57fe5b6020026020010151905060405180608001604052808684815181106200034057fe5b602002602001015181526020018584815181106200035a57fe5b60200260200101516001600160801b031681526020018484815181106200037d57fe5b60200260200101516001600160801b03168152602001858481518110620003a057fe5b6020908102919091018101516001600160801b039081169092526001600160a01b039093166000908152600180855260409182902084518155948401518582018054938601518516600160801b029185166001600160801b031994851617851691909117905560609093015160029094018054949092169316929092179091550162000305565b505050505050610c3d806200043d6000396000f3fe608060405234801561001057600080fd5b50600436106100625760003560e01c80630792d72514610067578063191655871461009f5780632ccb1b30146100c757806343d9a2b4146100f3578063a153e7081461014a578063fc0c546a14610170575b600080fd5b61008d6004803603602081101561007d57600080fd5b50356001600160a01b0316610194565b60408051918252519081900360200190f35b6100c5600480360360208110156100b557600080fd5b50356001600160a01b0316610307565b005b6100c5600480360360408110156100dd57600080fd5b506001600160a01b03813516906020013561036e565b6101196004803603602081101561010957600080fd5b50356001600160a01b031661071f565b604080519485526001600160801b039384166020860152918316848301529091166060830152519081900360800190f35b61008d6004803603602081101561016057600080fd5b50356001600160a01b0316610756565b610178610825565b604080516001600160a01b039092168252519081900360200190f35b6001600160a01b0381166000908152600160208181526040808420815160808101835281548152938101546001600160801b03808216948601859052600160801b90910481169285019290925260020154166060830152421015610234576040805162461bcd60e51b81526020600482015260126024820152716e6f742074696d6520746f20756e6c6f636b60701b604482015290519081900360640190fd5b8051610287576040805162461bcd60e51b815260206004820152601a60248201527f62656e656669636961727920646f6573206e6f74206578697374000000000000604482015290519081900360640190fd5b600081604001516001600160801b031642116102a357426102b2565b81604001516001600160801b03165b90506102ff82602001518360400151036001600160801b03166102f984600001516102f386606001516001600160801b03168661083490919063ffffffff16565b90610896565b906108ef565b949350505050565b6001600160a01b038116610362576040805162461bcd60e51b815260206004820152601f60248201527f62656e656669636961727920616464726573732063616e6e6f74206265203000604482015290519081900360640190fd5b61036b81610956565b50565b336000818152600160205260409020546103cf576040805162461bcd60e51b815260206004820152601a60248201527f62656e656669636961727920646f6573206e6f74206578697374000000000000604482015290519081900360640190fd5b6001600160a01b03831660009081526001602052604090205415610428576040805162461bcd60e51b815260206004820152600b60248201526a1d1bc81a5cc8195e1a5cdd60aa1b604482015290519081900360640190fd5b806001600160a01b0316836001600160a01b0316141561047e576040805162461bcd60e51b815260206004820152600c60248201526b73616d65206164647265737360a01b604482015290519081900360640190fd5b61048781610956565b600061049282610756565b9050828110156104d6576040805162461bcd60e51b815260206004820152600a60248201526909cdee840cadcdeeaced60b31b604482015290519081900360640190fd5b6104e08184610834565b6001600160a01b038316600090815260016020819052604082209283559190910154426001600160801b03909116116105195742610540565b6001600160a01b038316600090815260016020819052604090912001546001600160801b03165b90508060016000856001600160a01b03166001600160a01b0316815260200190815260200160002060010160006101000a8154816001600160801b0302191690836001600160801b031602179055506040518060800160405280858152602001826001600160801b0316815260200160016000866001600160a01b03166001600160a01b0316815260200190815260200160002060010160109054906101000a90046001600160801b03166001600160801b03168152602001826001600160801b031681525060016000876001600160a01b03166001600160a01b031681526020019081526020016000206000820151816000015560208201518160010160006101000a8154816001600160801b0302191690836001600160801b0316021790555060408201518160010160106101000a8154816001600160801b0302191690836001600160801b0316021790555060608201518160020160006101000a8154816001600160801b0302191690836001600160801b031602179055509050507fd70645d60a6465bb7b8c93d33a3bd06236ce6a6b1ea6111401bb4724dbaaefef83868660405180846001600160a01b03168152602001836001600160a01b03168152602001828152602001935050505060405180910390a15050505050565b60016020819052600091825260409091208054918101546002909101546001600160801b0380831692600160801b90048116911684565b6001600160a01b0381166000908152600160208181526040808420815160808101835281548152938101546001600160801b0380821694860194909452600160801b900483169184018290526002015490911660608301524211156107ef576040805162461bcd60e51b815260206004820152600a6024820152691b1bd8dad95908195b9960b21b604482015290519081900360640190fd5b602081015160408201516060830151835161081e936001600160801b039084038116936102f993900316610896565b9392505050565b6000546001600160a01b031681565b60008282111561088b576040805162461bcd60e51b815260206004820152601e60248201527f536166654d6174683a207375627472616374696f6e206f766572666c6f770000604482015290519081900360640190fd5b508082035b92915050565b6000826108a557506000610890565b828202828482816108b257fe5b041461081e5760405162461bcd60e51b8152600401808060200182810382526021815260200180610be76021913960400191505060405180910390fd5b6000808211610945576040805162461bcd60e51b815260206004820152601a60248201527f536166654d6174683a206469766973696f6e206279207a65726f000000000000604482015290519081900360640190fd5b81838161094e57fe5b049392505050565b60008054604080516370a0823160e01b815230600482015290516001600160a01b03909216916370a0823191602480820192602092909190829003018186803b1580156109a257600080fd5b505afa1580156109b6573d6000803e3d6000fd5b505050506040513d60208110156109cc57600080fd5b5051905080610a18576040805162461bcd60e51b81526020600482015260136024820152726e6f20616d6f756e7420617661696c61626c6560681b604482015290519081900360640190fd5b6000610a2383610194565b905080821015610a7a576040805162461bcd60e51b815260206004820152601b60248201527f7472616e73666572206f7574206c696d69742065786365656473200000000000604482015290519081900360640190fd5b6001600160a01b03831660009081526001602081905260409091200154600160801b90046001600160801b03164211610ab35742610ae1565b6001600160a01b03831660009081526001602081905260409091200154600160801b90046001600160801b03165b6001600160a01b03848116600081815260016020908152604080832060020180546fffffffffffffffffffffffffffffffff19166001600160801b0397909716969096179095558154855163a9059cbb60e01b81526004810194909452602484018790529451949093169363a9059cbb936044808501949193918390030190829087803b158015610b7157600080fd5b505af1158015610b85573d6000803e3d6000fd5b505050506040513d6020811015610b9b57600080fd5b5050604080516001600160a01b03851681526020810183905281517ff6334794522b9db534a812aaae1af828a2e96aac68473b58e36d7d0bfd67477b929181900390910190a150505056fe536166654d6174683a206d756c7469706c69636174696f6e206f766572666c6f77a264697066735822122046ec09e0853ee71216d8cc2ad13857968e3d1640bf525da1a4d3e4cdd08ac3ff64736f6c63430007060033",
  "immutableReferences": {},
  "source": "// SPDX-License-Identifier: BUSL-1.1\npragma solidity 0.7.6;\n\n\nimport \"@openzeppelin/contracts/math/SafeMath.sol\";\nimport \"./gov/OLEToken.sol\";\n\n\n/// @title OLE token Locked\n/// @author OpenLeverage\n/// @notice Release OLE to beneficiaries linearly.\ncontract OLETokenLock {\n\n    using SafeMath for uint256;\n    OLEToken public token;\n    mapping(address => ReleaseVar) public releaseVars;\n\n    event Release(address beneficiary, uint amount);\n    event TransferTo(address beneficiary, address to, uint amount);\n\n    struct ReleaseVar {\n        uint256 amount;\n        uint128 startTime;\n        uint128 endTime;\n        uint128 lastUpdateTime;\n    }\n\n    constructor(OLEToken token_, address[] memory beneficiaries, uint256[] memory amounts, uint128[] memory startTimes, uint128[] memory endTimes) {\n        require(beneficiaries.length == amounts.length\n        && beneficiaries.length == startTimes.length\n            && beneficiaries.length == endTimes.length, \"Array length must be same\");\n        token = token_;\n        for (uint i = 0; i < beneficiaries.length; i++) {\n            address beneficiary = beneficiaries[i];\n            releaseVars[beneficiary] = ReleaseVar(amounts[i], startTimes[i], endTimes[i], startTimes[i]);\n        }\n    }\n\n    function release(address beneficiary) external {\n        require(beneficiary != address(0), \"beneficiary address cannot be 0\");\n        releaseInternal(beneficiary);\n    }\n\n    function releaseInternal(address beneficiary) internal {\n        uint256 amount = token.balanceOf(address(this));\n        require(amount > 0, \"no amount available\");\n        uint256 releaseAmount = releaseAbleAmount(beneficiary);\n        // The transfer out limit exceeds the available limit of the account\n        require(amount >= releaseAmount, \"transfer out limit exceeds \");\n        releaseVars[beneficiary].lastUpdateTime = uint128(block.timestamp > releaseVars[beneficiary].endTime ? releaseVars[beneficiary].endTime : block.timestamp);\n        token.transfer(beneficiary, releaseAmount);\n        emit Release(beneficiary, releaseAmount);\n    }\n\n    function transferTo(address to, uint amount) external {\n        address beneficiary = msg.sender;\n        require(releaseVars[beneficiary].amount > 0, 'beneficiary does not exist');\n        require(releaseVars[to].amount == 0, 'to is exist');\n        require(to != beneficiary, 'same address');\n        // release firstly\n        releaseInternal(beneficiary);\n        // calc locked left amount\n        uint lockedLeftAmount = lockedAmount(beneficiary);\n        require(lockedLeftAmount >= amount, 'Not enough');\n        releaseVars[beneficiary].amount = lockedLeftAmount.sub(amount);\n        uint128 startTime = uint128(releaseVars[beneficiary].startTime > block.timestamp ? releaseVars[beneficiary].startTime : block.timestamp);\n        releaseVars[beneficiary].startTime = startTime;\n        releaseVars[to] = ReleaseVar(amount, startTime, releaseVars[beneficiary].endTime, startTime);\n        emit TransferTo(beneficiary, to, amount);\n    }\n\n    function releaseAbleAmount(address beneficiary) public view returns (uint256){\n        ReleaseVar memory releaseVar = releaseVars[beneficiary];\n        require(block.timestamp >= releaseVar.startTime, \"not time to unlock\");\n        require(releaseVar.amount > 0, \"beneficiary does not exist\");\n        uint256 calTime = block.timestamp > releaseVar.endTime ? releaseVar.endTime : block.timestamp;\n        return calTime.sub(releaseVar.lastUpdateTime).mul(releaseVar.amount)\n        .div(releaseVar.endTime - releaseVar.startTime);\n    }\n\n    function lockedAmount(address beneficiary) public view returns (uint256){\n        ReleaseVar memory releaseVar = releaseVars[beneficiary];\n        require(releaseVar.endTime >= block.timestamp, 'locked end');\n        return releaseVar.amount.mul(releaseVar.endTime - releaseVar.lastUpdateTime)\n        .div(releaseVar.endTime - releaseVar.startTime);\n    }\n\n}",
  "sourcePath": "/home/mingyue/Smartian/Web3Bugs/contracts/72/openleverage-contracts/contracts/OLETokenLock.sol",
  "compiler": {
    "name": "solc",
    "version": "0.7.6+commit.7338295f.Emscripten.clang"
  },
  "schemaVersion": "3.4.16",
  "updatedAt": "2025-02-26T03:47:59.381Z",
  "devdoc": {
    "author": "OpenLeverage",
    "kind": "dev",
    "methods": {},
    "title": "OLE token Locked",
    "version": 1
  },
  "userdoc": {
    "kind": "user",
    "methods": {},
    "notice": "Release OLE to beneficiaries linearly.",
    "version": 1
  }
}