{
  "contractName": "OpenLevV1Lib",
  "abi": [
    {
      "inputs": [
        {
          "internalType": "address",
          "name": "owner",
          "type": "address"
        },
        {
          "internalType": "uint256",
          "name": "held",
          "type": "uint256"
        },
        {
          "internalType": "address",
          "name": "heldToken",
          "type": "address"
        },
        {
          "internalType": "address",
          "name": "sellToken",
          "type": "address"
        },
        {
          "internalType": "contract LPoolInterface",
          "name": "borrowPool",
          "type": "LPoolInterface"
        },
        {
          "internalType": "bool",
          "name": "isOpen",
          "type": "bool"
        },
        {
          "internalType": "bytes",
          "name": "dexData",
          "type": "bytes"
        }
      ],
      "name": "marginRatio",
      "outputs": [
        {
          "internalType": "uint256",
          "name": "",
          "type": "uint256"
        },
        {
          "internalType": "uint256",
          "name": "",
          "type": "uint256"
        },
        {
          "internalType": "uint256",
          "name": "",
          "type": "uint256"
        },
        {
          "internalType": "uint256",
          "name": "",
          "type": "uint256"
        },
        {
          "internalType": "uint256",
          "name": "",
          "type": "uint256"
        }
      ],
      "stateMutability": "view",
      "type": "function"
    },
    {
      "inputs": [
        {
          "internalType": "address",
          "name": "owner",
          "type": "address"
        },
        {
          "internalType": "bool",
          "name": "isOpen",
          "type": "bool"
        },
        {
          "internalType": "uint256",
          "name": "amount",
          "type": "uint256"
        },
        {
          "components": [
            {
              "internalType": "contract LPoolInterface",
              "name": "buyPool",
              "type": "LPoolInterface"
            },
            {
              "internalType": "contract LPoolInterface",
              "name": "sellPool",
              "type": "LPoolInterface"
            },
            {
              "internalType": "contract IERC20",
              "name": "buyToken",
              "type": "IERC20"
            },
            {
              "internalType": "contract IERC20",
              "name": "sellToken",
              "type": "IERC20"
            },
            {
              "internalType": "uint256",
              "name": "reserveBuyToken",
              "type": "uint256"
            },
            {
              "internalType": "uint256",
              "name": "reserveSellToken",
              "type": "uint256"
            },
            {
              "internalType": "uint256",
              "name": "buyPoolInsurance",
              "type": "uint256"
            },
            {
              "internalType": "uint256",
              "name": "sellPoolInsurance",
              "type": "uint256"
            },
            {
              "internalType": "uint16",
              "name": "marginLimit",
              "type": "uint16"
            },
            {
              "internalType": "uint16",
              "name": "priceDiffientRatio",
              "type": "uint16"
            },
            {
              "internalType": "uint32[]",
              "name": "dexs",
              "type": "uint32[]"
            }
          ],
          "internalType": "struct Types.MarketVars",
          "name": "vars",
          "type": "tuple"
        },
        {
          "internalType": "bytes",
          "name": "dexData",
          "type": "bytes"
        }
      ],
      "name": "isPositionHealthy",
      "outputs": [
        {
          "internalType": "bool",
          "name": "",
          "type": "bool"
        }
      ],
      "stateMutability": "view",
      "type": "function"
    },
    {
      "inputs": [
        {
          "internalType": "contract DexAggregatorInterface",
          "name": "dexAggregator",
          "type": "DexAggregatorInterface"
        },
        {
          "internalType": "uint16",
          "name": "twapDuration",
          "type": "uint16"
        },
        {
          "internalType": "uint16",
          "name": "priceDiffientRatio",
          "type": "uint16"
        },
        {
          "internalType": "address",
          "name": "token0",
          "type": "address"
        },
        {
          "internalType": "address",
          "name": "token1",
          "type": "address"
        },
        {
          "internalType": "bytes",
          "name": "dexData",
          "type": "bytes"
        }
      ],
      "name": "shouldUpdatePriceInternal",
      "outputs": [
        {
          "internalType": "bool",
          "name": "",
          "type": "bool"
        }
      ],
      "stateMutability": "view",
      "type": "function"
    },
    {
      "inputs": [
        {
          "components": [
            {
              "internalType": "contract LPoolInterface",
              "name": "buyPool",
              "type": "LPoolInterface"
            },
            {
              "internalType": "contract LPoolInterface",
              "name": "sellPool",
              "type": "LPoolInterface"
            },
            {
              "internalType": "contract IERC20",
              "name": "buyToken",
              "type": "IERC20"
            },
            {
              "internalType": "contract IERC20",
              "name": "sellToken",
              "type": "IERC20"
            },
            {
              "internalType": "uint256",
              "name": "reserveBuyToken",
              "type": "uint256"
            },
            {
              "internalType": "uint256",
              "name": "reserveSellToken",
              "type": "uint256"
            },
            {
              "internalType": "uint256",
              "name": "buyPoolInsurance",
              "type": "uint256"
            },
            {
              "internalType": "uint256",
              "name": "sellPoolInsurance",
              "type": "uint256"
            },
            {
              "internalType": "uint16",
              "name": "marginLimit",
              "type": "uint16"
            },
            {
              "internalType": "uint16",
              "name": "priceDiffientRatio",
              "type": "uint16"
            },
            {
              "internalType": "uint32[]",
              "name": "dexs",
              "type": "uint32[]"
            }
          ],
          "internalType": "struct Types.MarketVars",
          "name": "vars",
          "type": "tuple"
        },
        {
          "internalType": "bool",
          "name": "longToken",
          "type": "bool"
        },
        {
          "internalType": "bool",
          "name": "depositToken",
          "type": "bool"
        },
        {
          "internalType": "uint256",
          "name": "deposit",
          "type": "uint256"
        },
        {
          "internalType": "uint256",
          "name": "borrow",
          "type": "uint256"
        },
        {
          "internalType": "bytes",
          "name": "dexData",
          "type": "bytes"
        },
        {
          "components": [
            {
              "internalType": "contract DexAggregatorInterface",
              "name": "dexAggregator",
              "type": "DexAggregatorInterface"
            },
            {
              "internalType": "address",
              "name": "controller",
              "type": "address"
            },
            {
              "internalType": "address",
              "name": "wETH",
              "type": "address"
            },
            {
              "internalType": "address",
              "name": "xOLE",
              "type": "address"
            }
          ],
          "internalType": "struct OpenLevStorage.AddressConfig",
          "name": "addressConfig",
          "type": "tuple"
        },
        {
          "components": [
            {
              "internalType": "uint256",
              "name": "deposited",
              "type": "uint256"
            },
            {
              "internalType": "uint256",
              "name": "held",
              "type": "uint256"
            },
            {
              "internalType": "bool",
              "name": "depositToken",
              "type": "bool"
            },
            {
              "internalType": "uint128",
              "name": "lastBlockNum",
              "type": "uint128"
            }
          ],
          "internalType": "struct Types.Trade",
          "name": "trade",
          "type": "tuple"
        }
      ],
      "name": "verifyTrade",
      "outputs": [],
      "stateMutability": "view",
      "type": "function"
    }
  ],
  "bytecode": "0x6134c8610026600b82828239805160001a60731461001957fe5b30600052607381538281f3fe73000000000000000000000000000000000000000030146080604052600436106100b35760003560e01c80638744ba6d1161007b5780638744ba6d146101705780639c34edf914610194578063b8cdbe41146101b4578063c19ef550146101c7578063da6288c8146101da578063f8df0a21146101fa576100b3565b8063154f0968146100b857806319ea053f146100da578063289e376f146100fa57806329134522146101305780634a009e0014610150575b600080fd5b8180156100c457600080fd5b506100d86100d3366004612ee0565b61021a565b005b8180156100e657600080fd5b506100d86100f5366004612aa3565b6102d6565b81801561010657600080fd5b5061011a610115366004612aa3565b6103a6565b60405161012791906133c8565b60405180910390f35b81801561013c57600080fd5b506100d861014b366004613032565b61043e565b61016361015e366004612c0e565b61060e565b6040516101279190613249565b61018361017e366004612af3565b610764565b6040516101279594939291906133d1565b8180156101a057600080fd5b506100d86101af366004612a63565b610795565b6100d86101c2366004612d57565b6107fe565b6101636101d53660046129d4565b6109a9565b8180156101e657600080fd5b506100d86101f5366004612e83565b610b91565b81801561020657600080fd5b506100d8610215366004612ca4565b610c8d565b6127108561ffff16108015610233575060008461ffff16115b8015610240575060008251115b6102655760405162461bcd60e51b815260040161025c9061337f565b60405180910390fd5b60038101805461ffff868116600160a01b0261ffff60a01b19918916600160b01b0261ffff60b01b19909316929092171617905581516102ae90600783019060208501906125f6565b50600301805461ffff909316600160c01b0261ffff60c01b1990931692909217909155505050565b816001600160a01b0316836001600160a01b0316141561038a57604051632e1a7d4d60e01b81526001600160a01b03831690632e1a7d4d9061031c9084906004016133c8565b600060405180830381600087803b15801561033657600080fd5b505af115801561034a573d6000803e3d6000fd5b50506040516001600160a01b038716925083156108fc02915083906000818181858888f19350505050158015610384573d6000803e3d6000fd5b506103a0565b61039e6001600160a01b03841685836114a1565b505b50505050565b6000826001600160a01b0316846001600160a01b0316141561041e57826001600160a01b031663d0e30db0346040518263ffffffff1660e01b81526004016000604051808303818588803b1580156103fd57600080fd5b505af1158015610411573d6000803e3d6000fd5b5050505050349050610436565b6104336001600160a01b0385168630856116cb565b90505b949350505050565b6127108b61ffff16108015610456575060648a60ff16105b8015610466575060008961ffff16115b8015610477575060648761ffff1611155b8015610488575060648661ffff1611155b801561049957506127108461ffff16105b80156104a9575060008261ffff16115b6104c55760405162461bcd60e51b815260040161025c9061337f565b8a8160000160006101000a81548161ffff021916908361ffff160217905550898160000160026101000a81548160ff021916908360ff160217905550888160000160036101000a81548161ffff021916908361ffff160217905550878160000160056101000a81548161ffff021916908361ffff160217905550868160000160076101000a81548161ffff021916908361ffff160217905550858160000160096101000a81548161ffff021916908361ffff1602179055508481600001600b6101000a8154816001600160801b0302191690836001600160801b031602179055508381600001601b6101000a81548161ffff021916908361ffff1602179055508281600001601d6101000a81548160ff021916908360ff1602179055508181600001601e6101000a81548161ffff021916908361ffff1602179055505050505050505050505050565b6000610619826118fd565b6106255750600061075a565b6000806000896001600160a01b031663a59a36ae88888c896040518563ffffffff1660e01b815260040161065c9493929190613213565b60a06040518083038186803b15801561067457600080fd5b505afa158015610688573d6000803e3d6000fd5b505050506040513d601f19601f820116820180604052508101906106ac9190613120565b94505093509350506106cb8961ffff168261191790919063ffffffff16565b4210156106de576000935050505061075a565b8215806106e9575081155b156106fa576001935050505061075a565b606460006107128461070c878561197a565b906119d3565b90506107228261ffff8c16611917565b8110158061073d57506107398261ffff8c16611a3a565b8111155b156107505760019550505050505061075a565b6000955050505050505b9695505050505050565b600080600080600061077b8c8c8c8c8c8c8c611a97565b945094509450945094505b97509750975097509792505050565b6001600160a01b038316158015906107b557506001600160a01b03821615155b6107d15760405162461bcd60e51b815260040161025c90613328565b6001810180546001600160a01b03199081166001600160a01b039586161790915581541691909216179055565b60008715158715151461081557886060015161081b565b88604001515b90506000816001600160a01b031663313ce5676040518163ffffffff1660e01b815260040160206040518083038186803b15801561085857600080fd5b505afa15801561086c573d6000803e3d6000fd5b505050506040513d601f19601f82011682018060405250810190610890919061316c565b60ff1690506000600482116108a65760016108ae565b60048203600a0a5b9050600085604001516001600160a01b0316846001600160a01b0316146108d557886108d7565b345b90508181116108f85760405162461bcd60e51b815260040161025c906132d1565b60608501516001600160801b0316610933576000881161092a5760405162461bcd60e51b815260040161025c906132ee565b5050505061099f565b846040015115158a15151480156109605750436001600160801b031685606001516001600160801b031614155b801561097e575061097e8c610140015161097989611f32565b611f59565b61099a5760405162461bcd60e51b815260040161025c9061330b565b505050505b5050505050505050565b60006109b36126a5565b6109fb8786886109c75786606001516109cd565b86604001515b896109dc5787604001516109e2565b87606001515b8a6109ee5788516109f4565b88602001515b8b89611a97565b60808601526060850152604080850191909152602084019190915290825280516302b2007560e31b81529051600091309163159003a89160048082019261014092909190829003018186803b158015610a5357600080fd5b505afa158015610a67573d6000803e3d6000fd5b505050506040513d601f19601f82011682018060405250810190610a8b9190612f5a565b50985050505050505050508615610ae85784610100015161ffff16826000015110158015610ac6575084610100015161ffff16826020015110155b8015610adf575084610100015161ffff16826040015110155b92505050610b88565b816080015182606001511015610b43576000610b1a836060015161070c6064866080015161197a90919063ffffffff16565b90508160ff166064820310610b415760405162461bcd60e51b815260040161025c90613362565b505b84610100015161ffff168260000151101580610b6c575084610100015161ffff16826020015110155b80610adf575084610100015161ffff1682604001511015925050505b95945050505050565b8254825460038601546002870154600093610bd6936001600160a01b039182169361ffff600160f01b909204821693600160c01b82049092169290811691168761060e565b60028601546003870154919250600091610bfd916001600160a01b03908116911685611fcc565b90508015610c84576004860180546001600160a01b031916321790558115610c84576001850154604051634232c3e160e11b81526001600160a01b039091169063846587c290610c51908a906004016133b9565b600060405180830381600087803b158015610c6b57600080fd5b505af1158015610c7f573d6000803e3d6000fd5b505050505b50505050505050565b60008a6001600160a01b0316636f307dc36040518163ffffffff1660e01b815260040160206040518083038186803b158015610cc857600080fd5b505afa158015610cdc573d6000803e3d6000fd5b505050506040513d601f19601f82011682018060405250810190610d0091906129b8565b905060008a6001600160a01b0316636f307dc36040518163ffffffff1660e01b815260040160206040518083038186803b158015610d3d57600080fd5b505afa158015610d51573d6000803e3d6000fd5b505050506040513d601f19601f82011682018060405250810190610d7591906129b8565b90506000610d828a612148565b9050610d8e8582612177565b8015610da6575060018601546001600160a01b031633145b8015610dc25750865461ffff63010000009091048116908c1610155b8015610dd45750620186a08b61ffff16105b610df05760405162461bcd60e51b815260040161025c90613345565b6000610dfb8b612191565b905062030d4081600081518110610e0e57fe5b602002602001015162ffffff16108015610e43575062030d4081600181518110610e3457fe5b602002602001015162ffffff16105b8015610e6a575062030d4081600281518110610e5b57fe5b602002602001015162ffffff16105b8015610e91575062030d4081600381518110610e8257fe5b602002602001015162ffffff16105b8015610eb8575062030d4081600481518110610ea957fe5b602002602001015162ffffff16105b8015610edf575062030d4081600581518110610ed057fe5b602002602001015162ffffff16105b610efb5760405162461bcd60e51b815260040161025c9061339c565b80600081518110610f0857fe5b60209081029190910181015161ffff8c16600090815287835260408082206001600160a01b0389168352845280822082805290935291909120805462ffffff191662ffffff909216919091179055805181906001908110610f6557fe5b60209081029190910181015161ffff8c16600090815287835260408082206001600160a01b0388168352845280822082805290935291909120805462ffffff191662ffffff909216919091179055805181906002908110610fc257fe5b60209081029190910181015161ffff8c16600090815287835260408082206001600160a01b038916835284528082206001835290935291909120805462ffffff191662ffffff90921691909117905580518190600390811061102057fe5b60209081029190910181015161ffff8c16600090815287835260408082206001600160a01b038816835284528082206001835290935291909120805462ffffff191662ffffff90921691909117905580518190600490811061107e57fe5b60209081029190910181015161ffff8c16600090815287835260408082206001600160a01b038916835284528082206002835290935291909120805462ffffff191662ffffff9092169190911790558051819060059081106110dc57fe5b60209081029190910181015161ffff8c16600090815287835260408082206001600160a01b038881168452908552818320600284529094529020805462ffffff191662ffffff90921691909117905561113b915084168e600019612277565b506111526001600160a01b0383168d600019612277565b506040805160018082528183019092526000916020808301908036833701905050905061117e8b611f32565b8160008151811061118b57fe5b602002602001019063ffffffff16908163ffffffff16815250506040518061016001604052808f6001600160a01b031681526020018e6001600160a01b03168152602001856001600160a01b03168152602001846001600160a01b031681526020018d61ffff1681526020018960000160009054906101000a900461ffff1661ffff1681526020018960000160059054906101000a900461ffff1661ffff16815260200160006001600160a01b031681526020016000815260200160008152602001828152508960008c61ffff1661ffff16815260200190815260200160002060008201518160000160006101000a8154816001600160a01b0302191690836001600160a01b0316021790555060208201518160010160006101000a8154816001600160a01b0302191690836001600160a01b0316021790555060408201518160020160006101000a8154816001600160a01b0302191690836001600160a01b0316021790555060608201518160030160006101000a8154816001600160a01b0302191690836001600160a01b0316021790555060808201518160030160146101000a81548161ffff021916908361ffff16021790555060a08201518160030160166101000a81548161ffff021916908361ffff16021790555060c08201518160030160186101000a81548161ffff021916908361ffff16021790555060e08201518160040160006101000a8154816001600160a01b0302191690836001600160a01b03160217905550610100820151816005015561012082015181600601556101408201518160070190805190602001906113e89291906125f6565b509050506113f58b6118fd565b1561140b5761140584848d611fcc565b50611491565b60ff821660021415611491578660000160009054906101000a90046001600160a01b03166001600160a01b031663f18ef35985858e6040518463ffffffff1660e01b815260040161145e939291906131e7565b600060405180830381600087803b15801561147857600080fd5b505af115801561148c573d6000803e3d6000fd5b505050505b5050505050505050505050505050565b600081156116c4576000846001600160a01b03166370a08231856040518263ffffffff1660e01b815260040180826001600160a01b0316815260200191505060206040518083038186803b1580156114f857600080fd5b505afa15801561150c573d6000803e3d6000fd5b505050506040513d602081101561152257600080fd5b5051604080516001600160a01b038781166024830152604480830188905283518084039091018152606490920183526020820180516001600160e01b031663a9059cbb60e01b1781529251825194955090891693919290918291908083835b602083106115a05780518252601f199092019160209182019101611581565b6001836020036101000a0380198251168184511680821785525050505050509050019150506000604051808303816000865af19150503d8060008114611602576040519150601f19603f3d011682016040523d82523d6000602084013e611607565b606091505b5050506000856001600160a01b03166370a08231866040518263ffffffff1660e01b815260040180826001600160a01b0316815260200191505060206040518083038186803b15801561165957600080fd5b505afa15801561166d573d6000803e3d6000fd5b505050506040513d602081101561168357600080fd5b505190508181116116c0576040805162461bcd60e51b81526020600482015260026024820152612a2360f11b604482015290519081900360640190fd5b0390505b9392505050565b60008115610436576000856001600160a01b03166370a08231856040518263ffffffff1660e01b815260040180826001600160a01b0316815260200191505060206040518083038186803b15801561172257600080fd5b505afa158015611736573d6000803e3d6000fd5b505050506040513d602081101561174c57600080fd5b5051604080516001600160a01b0388811660248301528781166044830152606480830188905283518084039091018152608490920183526020820180516001600160e01b03166323b872dd60e01b17815292518251949550908a1693919290918291908083835b602083106117d25780518252601f1990920191602091820191016117b3565b6001836020036101000a0380198251168184511680821785525050505050509050019150506000604051808303816000865af19150503d8060008114611834576040519150601f19603f3d011682016040523d82523d6000602084013e611839565b606091505b5050506000866001600160a01b03166370a08231866040518263ffffffff1660e01b815260040180826001600160a01b0316815260200191505060206040518083038186803b15801561188b57600080fd5b505afa15801561189f573d6000803e3d6000fd5b505050506040513d60208110156118b557600080fd5b505190508181116118f3576040805162461bcd60e51b81526020600482015260036024820152622a232360e91b604482015290519081900360640190fd5b0395945050505050565b6000600261190a83612148565b60ff16141590505b919050565b600082820183811015611971576040805162461bcd60e51b815260206004820152601b60248201527f536166654d6174683a206164646974696f6e206f766572666c6f770000000000604482015290519081900360640190fd5b90505b92915050565b60008261198957506000611974565b8282028284828161199657fe5b04146119715760405162461bcd60e51b81526004018080602001828103825260218152602001806134726021913960400191505060405180910390fd5b6000808211611a29576040805162461bcd60e51b815260206004820152601a60248201527f536166654d6174683a206469766973696f6e206279207a65726f000000000000604482015290519081900360640190fd5b818381611a3257fe5b049392505050565b600082821115611a91576040805162461bcd60e51b815260206004820152601e60248201527f536166654d6174683a207375627472616374696f6e206f766572666c6f770000604482015290519081900360640190fd5b50900390565b6000806000806000611aa76126d4565b606081018c905260808082018890526001600160a01b03808d1683528b811660208401528e1660408084019190915261271060a0840152805163309d7f9560e21b81529051600092309263c275fe549260048083019392829003018186803b158015611b1257600080fd5b505afa158015611b26573d6000803e3d6000fd5b505050506040513d601f19601f82011682018060405250810190611b4a9190612bb0565b50505090506000306001600160a01b031663159003a86040518163ffffffff1660e01b81526004016101406040518083038186803b158015611b8b57600080fd5b505afa158015611b9f573d6000803e3d6000fd5b505050506040513d601f19601f82011682018060405250810190611bc39190612f5a565b995050505050505050505060008a611c5a5760408085015190516305eff7ef60e21b81526001600160a01b038e16916317bfdfbc91611c0591906004016131d3565b60206040518083038186803b158015611c1d57600080fd5b505afa158015611c31573d6000803e3d6000fd5b505050506040513d601f19601f82011682018060405250810190611c559190613108565b611cda565b60408085015190516395dd919360e01b81526001600160a01b038e16916395dd919391611c8a91906004016131d3565b60206040518083038186803b158015611ca257600080fd5b505afa158015611cb6573d6000803e3d6000fd5b505050506040513d601f19601f82011682018060405250810190611cda9190613108565b905080611cff5750505060a0015161ffff169450849350839250829150819050610786565b8351602085015160808601516040516352cd1b5760e11b81526001600160a01b0387169363a59a36ae93611d3b93919290918891600401613213565b60a06040518083038186803b158015611d5357600080fd5b505afa158015611d67573d6000803e3d6000fd5b505050506040513d601f19601f82011682018060405250810190611d8b9190613120565b610140890181905260ff90911661012089015261010088019190915260e087019190915260c0860191909152611dc59061ffff8416611917565b421115611dd85760e08401516101008501525b6000611e0485610120015160ff16600a0a61070c8760c00151886060015161197a90919063ffffffff16565b9050600082821015611e17576000611e40565b611e408361070c8860a0015161ffff16611e3a8787611a3a90919063ffffffff16565b9061197a565b9050611e6c86610120015160ff16600a0a61070c8860e00151896060015161197a90919063ffffffff16565b9150600083831015611e7f576000611ea2565b611ea28461070c8960a0015161ffff16611e3a8888611a3a90919063ffffffff16565b9050611ecf87610120015160ff16600a0a61070c8961010001518a6060015161197a90919063ffffffff16565b9250600084841015611ee2576000611f05565b611f058561070c8a60a0015161ffff16611e3a8989611a3a90919063ffffffff16565b60c089015160e090990151939d50919b509099509597509550505050505097509750975097509792505050565b60006001825110611f4b5750602081015160001a611912565b50602081015160e81c611912565b6000805b8351811015611fc557838181518110611f7257fe5b602002602001015163ffffffff1660001415611f8d57611fc5565b8263ffffffff16848281518110611fa057fe5b602002602001015163ffffffff161415611fbd5760019150611fc5565b600101611f5d565b5092915050565b600080306001600160a01b031663c275fe546040518163ffffffff1660e01b815260040160806040518083038186803b15801561200857600080fd5b505afa15801561201c573d6000803e3d6000fd5b505050506040513d601f19601f820116820180604052508101906120409190612bb0565b50505090506000306001600160a01b031663159003a86040518163ffffffff1660e01b81526004016101406040518083038186803b15801561208157600080fd5b505afa158015612095573d6000803e3d6000fd5b505050506040513d601f19601f820116820180604052508101906120b99190612f5a565b9950505050505050505050816001600160a01b03166315426c97878784886040518563ffffffff1660e01b81526004016120f69493929190613213565b602060405180830381600087803b15801561211057600080fd5b505af1158015612124573d6000803e3d6000fd5b505050506040513d601f19601f8201168201806040525081019061075a9190612b94565b600060018251101561216c5760405162461bcd60e51b815260040161025c90613254565b506020015160001a90565b60ff90811660009081526020929092526040909120541690565b6060600061219e836125c7565b6003029050600560ff82166001600160401b03811180156121be57600080fd5b506040519080825280602002602001820160405280156121e8578160200160208202803683370190505b50925060005b8260ff1681101561226f578185511161222c57600084828151811061220f57fe5b602002602001019062ffffff16908162ffffff1681525050612267565b84820160200151845160e882901c9086908490811061224757fe5b602002602001019062ffffff16908162ffffff1681525050600383019250505b6001016121ee565b505050919050565b600080846001600160a01b031663dd62ed3e30866040518363ffffffff1660e01b815260040180836001600160a01b03168152602001826001600160a01b031681526020019250505060206040518083038186803b1580156122d857600080fd5b505afa1580156122ec573d6000803e3d6000fd5b505050506040513d602081101561230257600080fd5b50511561242757604080516001600160a01b038681166024830152600060448084019190915283518084039091018152606490920183526020820180516001600160e01b031663095ea7b360e01b178152925182519189169390918291908083835b602083106123835780518252601f199092019160209182019101612364565b6001836020036101000a0380198251168184511680821785525050505050509050019150506000604051808303816000865af19150503d80600081146123e5576040519150601f19603f3d011682016040523d82523d6000602084013e6123ea565b606091505b50508091505080612427576040805162461bcd60e51b815260206004820152600260248201526120a360f11b604482015290519081900360640190fd5b604080516001600160a01b038681166024830152604480830187905283518084039091018152606490920183526020820180516001600160e01b031663095ea7b360e01b178152925182519189169390918291908083835b6020831061249e5780518252601f19909201916020918201910161247f565b6001836020036101000a0380198251168184511680821785525050505050509050019150506000604051808303816000865af19150503d8060008114612500576040519150601f19603f3d011682016040523d82523d6000602084013e612505565b606091505b50508091505080612542576040805162461bcd60e51b815260206004820152600260248201526120a360f11b604482015290519081900360640190fd5b60408051636eb1769f60e11b81523060048201526001600160a01b03868116602483015291519187169163dd62ed3e91604480820192602092909190829003018186803b15801561259257600080fd5b505afa1580156125a6573d6000803e3d6000fd5b505050506040513d60208110156125bc57600080fd5b505195945050505050565b60006005825110156125eb5760405162461bcd60e51b815260040161025c90613289565b506024015160001a90565b828054828255906000526020600020906007016008900481019282156126955791602002820160005b8382111561266357835183826101000a81548163ffffffff021916908363ffffffff160217905550926020019260040160208160030104928301926001030261261f565b80156126935782816101000a81549063ffffffff0219169055600401602081600301049283019260010302612663565b505b506126a1929150612750565b5090565b6040518060a0016040528060008152602001600081526020016000815260200160008152602001600081525090565b60405180610160016040528060006001600160a01b0316815260200160006001600160a01b0316815260200160006001600160a01b031681526020016000815260200160608152602001600061ffff168152602001600081526020016000815260200160008152602001600060ff168152602001600081525090565b5b808211156126a15760008155600101612751565b600082601f830112612775578081fd5b813560206001600160401b0382111561278a57fe5b8082026127988282016133f4565b8381528281019086840183880185018910156127b2578687fd5b8693505b858410156127e557803563ffffffff811681146127d1578788fd5b8352600193909301929184019184016127b6565b50979650505050505050565b600082601f830112612801578081fd5b81356001600160401b0381111561281457fe5b612827601f8201601f19166020016133f4565b81815284602083860101111561283b578283fd5b816020850160208301379081016020019190915292915050565b803561191281613417565b6000610160808385031215612873578182fd5b61287c816133f4565b91505061288882612855565b815261289660208301612855565b60208201526128a760408301612855565b60408201526128b860608301612855565b60608201526080820135608082015260a082013560a082015260c082013560c082015260e082013560e08201526101006128f38184016129ad565b908201526101206129058382016129ad565b90820152610140828101356001600160401b0381111561292457600080fd5b61293085828601612765565b82840152505092915050565b60006080828403121561294d578081fd5b604051608081018181106001600160401b038211171561296957fe5b80604052508091508235815260208301356020820152604083013561298d8161342f565b604082015260608301356129a08161343d565b6060919091015292915050565b803561191281613452565b6000602082840312156129c9578081fd5b815161197181613417565b600080600080600060a086880312156129eb578081fd5b85356129f681613417565b94506020860135612a068161342f565b93506040860135925060608601356001600160401b0380821115612a28578283fd5b612a3489838a01612860565b93506080880135915080821115612a49578283fd5b50612a56888289016127f1565b9150509295509295909350565b600080600060608486031215612a77578081fd5b8335612a8281613417565b92506020840135612a9281613417565b929592945050506040919091013590565b60008060008060808587031215612ab8578182fd5b8435612ac381613417565b93506020850135612ad381613417565b92506040850135612ae381613417565b9396929550929360600135925050565b600080600080600080600060e0888a031215612b0d578485fd5b8735612b1881613417565b9650602088013595506040880135612b2f81613417565b94506060880135612b3f81613417565b93506080880135612b4f81613417565b925060a0880135612b5f8161342f565b915060c08801356001600160401b03811115612b79578182fd5b612b858a828b016127f1565b91505092959891949750929550565b600060208284031215612ba5578081fd5b81516119718161342f565b60008060008060808587031215612bc5578182fd5b8451612bd081613417565b6020860151909450612be181613417565b6040860151909350612bf281613417565b6060860151909250612c0381613417565b939692955090935050565b60008060008060008060c08789031215612c26578384fd5b8635612c3181613417565b95506020870135612c4181613452565b94506040870135612c5181613452565b93506060870135612c6181613417565b92506080870135612c7181613417565b915060a08701356001600160401b03811115612c8b578182fd5b612c9789828a016127f1565b9150509295509295509295565b6000806000806000806000806000806101408b8d031215612cc3578384fd5b8a35612cce81613417565b995060208b0135612cde81613417565b985060408b0135612cee81613452565b975060608b01356001600160401b03811115612d08578485fd5b612d148d828e016127f1565b97505060808b0135612d2581613452565b999c989b50969995989760a0870135975060c08701359660e08101359650610100810135955061012001359350915050565b600080600080600080600080888a036101c0811215612d74578283fd5b89356001600160401b0380821115612d8a578485fd5b612d968d838e01612860565b9a5060208c01359150612da88261342f565b90985060408b013590612dba8261342f565b90975060608b0135965060808b0135955060a08b01359080821115612ddd578485fd5b612de98d838e016127f1565b9550608060bf1984011215612dfc578485fd5b60405192506080830191508282108183111715612e1557fe5b5060405260c08a0135612e2781613417565b815260e08a0135612e3781613417565b60208201526101008a0135612e4b81613417565b60408201526101208a0135612e5f81613417565b60608201529150612e748a6101408b0161293c565b90509295985092959890939650565b600080600080600060a08688031215612e9a578283fd5b8535612ea581613452565b945060208601359350604086013592506060860135915060808601356001600160401b03811115612ed4578182fd5b612a56888289016127f1565b600080600080600060a08688031215612ef7578283fd5b8535612f0281613452565b94506020860135612f1281613452565b93506040860135612f2281613452565b925060608601356001600160401b03811115612f3c578182fd5b612f4888828901612765565b95989497509295608001359392505050565b6000806000806000806000806000806101408b8d031215612f79578384fd5b8a51612f8481613452565b60208c0151909a50612f9581613462565b60408c0151909950612fa681613452565b60608c0151909850612fb781613452565b60808c0151909750612fc881613452565b60a08c0151909650612fd981613452565b60c08c0151909550612fea8161343d565b60e08c0151909450612ffb81613452565b6101008c015190935061300d81613462565b6101208c015190925061301f81613452565b809150509295989b9194979a5092959850565b60008060008060008060008060008060006101608c8e031215613053578485fd5b8b3561305e81613452565b9a5060208c013561306e81613462565b995060408c013561307e81613452565b985060608c013561308e81613452565b975060808c013561309e81613452565b965060a08c01356130ae81613452565b955060c08c01356130be8161343d565b945060e08c01356130ce81613452565b93506101008c01356130df81613462565b92506130ee6101208d016129ad565b91506101408c013590509295989b509295989b9093969950565b600060208284031215613119578081fd5b5051919050565b600080600080600060a08688031215613137578283fd5b855194506020860151935060408601519250606086015161315781613462565b80925050608086015190509295509295909350565b60006020828403121561317d578081fd5b815161197181613462565b60008151808452815b818110156131ad57602081850181015186830182015201613191565b818111156131be5782602083870101525b50601f01601f19169290920160200192915050565b6001600160a01b0391909116815260200190565b6001600160a01b03848116825283166020820152606060408201819052600090610b8890830184613188565b6001600160a01b0385811682528416602082015261ffff8316604082015260806060820181905260009061075a90830184613188565b901515815260200190565b6020808252818101527f446578446174613a20746f4465782077726f6e67206461746120666f726d6174604082015260600190565b60208082526028908201527f446578446174613a20746f41727261794c656e6774682077726f6e67206461746040820152671848199bdc9b585d60c21b606082015260800190565b60208082526003908201526244545360e81b604082015260600190565b60208082526003908201526204242360ec1b604082015260600190565b602080825260039082015262444e5360e81b604082015260600190565b60208082526003908201526204344360ec1b604082015260600190565b6020808252600390820152620aa88b60eb1b604082015260600190565b60208082526003908201526213541560ea1b604082015260600190565b60208082526003908201526250524960e81b604082015260600190565b6020808252600390820152622baa2960e91b604082015260600190565b61ffff91909116815260200190565b90815260200190565b948552602085019390935260408401919091526060830152608082015260a00190565b6040518181016001600160401b038111828210171561340f57fe5b604052919050565b6001600160a01b038116811461342c57600080fd5b50565b801515811461342c57600080fd5b6001600160801b038116811461342c57600080fd5b61ffff8116811461342c57600080fd5b60ff8116811461342c57600080fdfe536166654d6174683a206d756c7469706c69636174696f6e206f766572666c6f77a264697066735822122098531f240828a76e7cd02e87075758f1ccb7719f4b7159bbaef5b9938716ca9164736f6c63430007060033",
  "immutableReferences": {},
  "source": "pragma solidity 0.7.6;\n\nimport \"@openzeppelin/contracts/token/ERC20/ERC20.sol\";\nimport \"./OpenLevInterface.sol\";\nimport \"./Adminable.sol\";\nimport \"./XOLEInterface.sol\";\nimport \"./IWETH.sol\";\n\npragma experimental ABIEncoderV2;\n\n\nlibrary OpenLevV1Lib {\n    using SafeMath for uint;\n    using TransferHelper for IERC20;\n    using DexData for bytes;\n\n    struct PricesVar {\n        uint current;\n        uint cAvg;\n        uint hAvg;\n        uint price;\n        uint cAvgPrice;\n    }\n\n    function addMarket(\n        LPoolInterface pool0,\n        LPoolInterface pool1,\n        uint16 marginLimit,\n        bytes memory dexData,\n        uint16 marketId,\n        mapping(uint16 => Types.Market) storage markets,\n        OpenLevStorage.CalculateConfig storage config,\n        OpenLevStorage.AddressConfig storage addressConfig,\n        mapping(uint8 => bool) storage _supportDexs,\n        mapping(uint16 => mapping(address => mapping(uint => uint24))) storage taxes\n    ) external {\n        address token0 = pool0.underlying();\n        address token1 = pool1.underlying(); \n        uint8 dex = dexData.toDex();\n        require(isSupportDex(_supportDexs, dex) && msg.sender == address(addressConfig.controller) && marginLimit >= config.defaultMarginLimit && marginLimit < 100000, \"UDX\");\n\n        {\n            uint24[] memory taxRates = dexData.toTransferFeeRates();\n            require(taxRates[0] < 200000 && taxRates[1] < 200000 && taxRates[2] < 200000 && taxRates[3] < 200000 &&taxRates[4] < 200000 && taxRates[5] < 200000, \"WTR\" );\n            taxes[marketId][token0][0]= taxRates[0];\n            taxes[marketId][token1][0]= taxRates[1];\n            taxes[marketId][token0][1]= taxRates[2];\n            taxes[marketId][token1][1]= taxRates[3];\n            taxes[marketId][token0][2]= taxRates[4];\n            taxes[marketId][token1][2]= taxRates[5];\n        }\n\n        // Approve the max number for pools\n        IERC20(token0).safeApprove(address(pool0), uint256(- 1));\n        IERC20(token1).safeApprove(address(pool1), uint256(- 1));\n        //Create Market\n        uint32[] memory dexs = new uint32[](1);\n        dexs[0] = dexData.toDexDetail();\n        markets[marketId] = Types.Market(pool0, pool1, token0, token1, marginLimit, config.defaultFeesRate, config.priceDiffientRatio, address(0), 0, 0, dexs);\n        // Init price oracle\n        if (dexData.isUniV2Class()) {\n            OpenLevV1Lib.updatePriceInternal(token0, token1, dexData);\n        } else if (dex == DexData.DEX_UNIV3) {\n            addressConfig.dexAggregator.updateV3Observation(token0, token1, dexData);\n        }\n    }\n\n    function setCalculateConfigInternal(\n        uint16 defaultFeesRate,\n        uint8 insuranceRatio,\n        uint16 defaultMarginLimit,\n        uint16 priceDiffientRatio,\n        uint16 updatePriceDiscount,\n        uint16 feesDiscount,\n        uint128 feesDiscountThreshold,\n        uint16 penaltyRatio,\n        uint8 maxLiquidationPriceDiffientRatio,\n        uint16 twapDuration,\n        OpenLevStorage.CalculateConfig storage calculateConfig\n    ) external {\n        require(defaultFeesRate < 10000 && insuranceRatio < 100 && defaultMarginLimit > 0 && updatePriceDiscount <= 100\n        && feesDiscount <= 100 && penaltyRatio < 10000 && twapDuration > 0, 'PRI');\n        calculateConfig.defaultFeesRate = defaultFeesRate;\n        calculateConfig.insuranceRatio = insuranceRatio;\n        calculateConfig.defaultMarginLimit = defaultMarginLimit;\n        calculateConfig.priceDiffientRatio = priceDiffientRatio;\n        calculateConfig.updatePriceDiscount = updatePriceDiscount;\n        calculateConfig.feesDiscount = feesDiscount;\n        calculateConfig.feesDiscountThreshold = feesDiscountThreshold;\n        calculateConfig.penaltyRatio = penaltyRatio;\n        calculateConfig.maxLiquidationPriceDiffientRatio = maxLiquidationPriceDiffientRatio;\n        calculateConfig.twapDuration = twapDuration;\n    }\n\n    function setAddressConfigInternal(\n        address controller,\n        DexAggregatorInterface dexAggregator,\n        OpenLevStorage.AddressConfig storage addressConfig\n    ) external {\n        require(controller != address(0) && address(dexAggregator) != address(0), 'CD0');\n        addressConfig.controller = controller;\n        addressConfig.dexAggregator = dexAggregator;\n    }\n\n    function setMarketConfigInternal(\n        uint16 feesRate,\n        uint16 marginLimit,\n        uint16 priceDiffientRatio,\n        uint32[] memory dexs,\n        Types.Market storage market\n    ) external {\n        require(feesRate < 10000 && marginLimit > 0 && dexs.length > 0, 'PRI');\n        market.feesRate = feesRate;\n        market.marginLimit = marginLimit;\n        market.dexs = dexs;\n        market.priceDiffientRatio = priceDiffientRatio;\n    }\n\n    function marginRatio(\n        address owner,\n        uint held,\n        address heldToken,\n        address sellToken,\n        LPoolInterface borrowPool,\n        bool isOpen,\n        bytes memory dexData\n    ) external view returns (uint, uint, uint, uint, uint){\n        return marginRatioPrivate(owner, held, heldToken, sellToken, borrowPool, isOpen, dexData);\n    }\n\n    function marginRatioPrivate(\n        address owner,\n        uint held,\n        address heldToken,\n        address sellToken,\n        LPoolInterface borrowPool,\n        bool isOpen,\n        bytes memory dexData\n    ) private view returns (uint, uint, uint, uint, uint){\n        Types.MarginRatioVars memory ratioVars;\n        ratioVars.held = held;\n        ratioVars.dexData = dexData;\n        ratioVars.heldToken = heldToken;\n        ratioVars.sellToken = sellToken;\n        ratioVars.owner = owner;\n        ratioVars.multiplier = 10000;\n\n        (DexAggregatorInterface dexAggregator,,,) = OpenLevStorage(address(this)).addressConfig();\n        (,,,,,,,,,uint16 twapDuration) = OpenLevStorage(address(this)).calculateConfig();\n\n        uint borrowed = isOpen ? borrowPool.borrowBalanceStored(ratioVars.owner) : borrowPool.borrowBalanceCurrent(ratioVars.owner);\n        if (borrowed == 0) {\n            return (ratioVars.multiplier, ratioVars.multiplier, ratioVars.multiplier, ratioVars.multiplier, ratioVars.multiplier);\n        }\n        (ratioVars.price, ratioVars.cAvgPrice, ratioVars.hAvgPrice, ratioVars.decimals, ratioVars.lastUpdateTime) = dexAggregator.getPriceCAvgPriceHAvgPrice(ratioVars.heldToken, ratioVars.sellToken, twapDuration, ratioVars.dexData);\n        //Ignore hAvgPrice\n        if (block.timestamp > ratioVars.lastUpdateTime.add(twapDuration)) {\n            ratioVars.hAvgPrice = ratioVars.cAvgPrice;\n        }\n        //marginRatio=(marketValue-borrowed)/borrowed\n        uint marketValue = ratioVars.held.mul(ratioVars.price).div(10 ** uint(ratioVars.decimals));\n        uint current = marketValue >= borrowed ? marketValue.sub(borrowed).mul(ratioVars.multiplier).div(borrowed) : 0;\n        marketValue = ratioVars.held.mul(ratioVars.cAvgPrice).div(10 ** uint(ratioVars.decimals));\n        uint cAvg = marketValue >= borrowed ? marketValue.sub(borrowed).mul(ratioVars.multiplier).div(borrowed) : 0;\n        marketValue = ratioVars.held.mul(ratioVars.hAvgPrice).div(10 ** uint(ratioVars.decimals));\n        uint hAvg = marketValue >= borrowed ? marketValue.sub(borrowed).mul(ratioVars.multiplier).div(borrowed) : 0;\n        return (current, cAvg, hAvg, ratioVars.price, ratioVars.cAvgPrice);\n    }\n\n    function isPositionHealthy(\n        address owner,\n        bool isOpen,\n        uint amount,\n        Types.MarketVars memory vars,\n        bytes memory dexData\n    ) external view returns (bool){\n        PricesVar memory prices;\n        (prices.current, prices.cAvg, prices.hAvg, prices.price, prices.cAvgPrice) = marginRatioPrivate(owner,\n            amount,\n            isOpen ? address(vars.buyToken) : address(vars.sellToken),\n            isOpen ? address(vars.sellToken) : address(vars.buyToken),\n            isOpen ? vars.sellPool : vars.buyPool,\n            isOpen,\n            dexData\n        );\n\n        (,,,,,,,,uint8 maxLiquidationPriceDiffientRatio,) = OpenLevStorage(address(this)).calculateConfig();\n        if (isOpen) {\n            return prices.current >= vars.marginLimit && prices.cAvg >= vars.marginLimit && prices.hAvg >= vars.marginLimit;\n        } else {\n            // Avoid flash loan\n            if (prices.price < prices.cAvgPrice) {\n                uint differencePriceRatio = prices.cAvgPrice.mul(100).div(prices.price);\n                require(differencePriceRatio - 100 < maxLiquidationPriceDiffientRatio, 'MPT');\n            }\n            return prices.current >= vars.marginLimit || prices.cAvg >= vars.marginLimit || prices.hAvg >= vars.marginLimit;\n        }\n    }\n\n    function updatePriceInternal(address token0, address token1, bytes memory dexData) internal returns (bool){\n        (DexAggregatorInterface dexAggregator,,,) = OpenLevStorage(address(this)).addressConfig();\n        (,,,,,,,,,uint16 twapDuration) = OpenLevStorage(address(this)).calculateConfig();\n        return dexAggregator.updatePriceOracle(token0, token1, twapDuration, dexData);\n    }\n\n    function shouldUpdatePriceInternal(DexAggregatorInterface dexAggregator, uint16 twapDuration, uint16 priceDiffientRatio, address token0, address token1, bytes memory dexData) public view returns (bool){\n        if (!dexData.isUniV2Class()) {\n            return false;\n        }\n        (, uint cAvgPrice, uint hAvgPrice,, uint lastUpdateTime) = dexAggregator.getPriceCAvgPriceHAvgPrice(token0, token1, twapDuration, dexData);\n        if (block.timestamp < lastUpdateTime.add(twapDuration)) {\n            return false;\n        }\n        //Not initialized yet\n        if (cAvgPrice == 0 || hAvgPrice == 0) {\n            return true;\n        }\n        //price difference\n        uint one = 100;\n        uint differencePriceRatio = cAvgPrice.mul(one).div(hAvgPrice);\n        if (differencePriceRatio >= (one.add(priceDiffientRatio)) || differencePriceRatio <= (one.sub(priceDiffientRatio))) {\n            return true;\n        }\n        return false;\n    }\n\n    function updatePrice(uint16 marketId, Types.Market storage market, OpenLevStorage.AddressConfig storage addressConfig,\n        OpenLevStorage.CalculateConfig storage calculateConfig, bytes memory dexData) external {\n        bool shouldUpdate = shouldUpdatePriceInternal(addressConfig.dexAggregator, calculateConfig.twapDuration, market.priceDiffientRatio, market.token1, market.token0, dexData);\n        bool updateResult = updatePriceInternal(market.token0, market.token1, dexData);\n        if (updateResult) {\n            //Discount\n            market.priceUpdater = tx.origin;\n            //Reward OLE\n            if (shouldUpdate) {\n                (ControllerInterface(addressConfig.controller)).updatePriceAllowed(marketId);\n            }\n        }\n    }\n\n    function transferIn(address from, IERC20 token, address weth, uint amount) external returns (uint) {\n        if (address(token) == weth) {\n            IWETH(weth).deposit{value : msg.value}();\n            return msg.value;\n        } else {\n            return token.safeTransferFrom(from, address(this), amount);\n        }\n    }\n\n    function doTransferOut(address to, IERC20 token, address weth, uint amount) external {\n        if (address(token) == weth) {\n            IWETH(weth).withdraw(amount);\n            payable(to).transfer(amount);\n        } else {\n            token.safeTransfer(to, amount);\n        }\n    }\n\n    function isInSupportDex(uint32[] memory dexs, uint32 dex) internal pure returns (bool supported){\n        for (uint i = 0; i < dexs.length; i++) {\n            if (dexs[i] == 0) {\n                break;\n            }\n            if (dexs[i] == dex) {\n                supported = true;\n                break;\n            }\n        }\n    }\n\n    function isSupportDex(mapping(uint8 => bool) storage _supportDexs, uint8 dex) internal view returns (bool){\n        return _supportDexs[dex];\n    }\n\n    function amountToShare(uint amount, uint totalShare, uint reserve) internal pure returns (uint share){\n        share = totalShare > 0 && reserve > 0 ? totalShare.mul(amount) / reserve : amount;\n    }\n\n    function shareToAmount(uint share, uint totalShare, uint reserve) internal pure returns (uint amount){\n        if (totalShare > 0 && reserve > 0){\n            amount = reserve.mul(share) / totalShare;\n        }\n    }\n\n    function verifyTrade(Types.MarketVars memory vars, bool longToken, bool depositToken, uint deposit, uint borrow, bytes memory dexData, OpenLevStorage.AddressConfig memory addressConfig, Types.Trade memory trade) external view {\n        //verify if deposit token allowed\n        address depositTokenAddr = depositToken == longToken ? address(vars.buyToken) : address(vars.sellToken);\n\n        //verify minimal deposit > absolute value 0.0001\n        uint decimals = ERC20(depositTokenAddr).decimals();\n        uint minimalDeposit = decimals > 4 ? 10 ** (decimals - 4) : 1;\n        uint actualDeposit = depositTokenAddr == addressConfig.wETH ? msg.value : deposit;\n        require(actualDeposit > minimalDeposit, \"DTS\");\n\n        // New trade\n        if (trade.lastBlockNum == 0) {\n            require(borrow > 0, \"BB0\");\n            return;\n        } else {\n            // For new trade, these checks are not needed\n            require(depositToken == trade.depositToken && trade.lastBlockNum != uint128(block.number) && isInSupportDex(vars.dexs, dexData.toDexDetail()), \"DNS\");\n        }\n    }\n}",
  "sourcePath": "/home/mingyue/Smartian/Web3Bugs/contracts/72/openleverage-contracts/contracts/OpenLevV1Lib.sol",
  "compiler": {
    "name": "solc",
    "version": "0.7.6+commit.7338295f.Emscripten.clang"
  },
  "schemaVersion": "3.4.16",
  "updatedAt": "2025-02-26T03:47:59.416Z",
  "devdoc": {
    "kind": "dev",
    "methods": {},
    "version": 1
  },
  "userdoc": {
    "kind": "user",
    "methods": {},
    "version": 1
  }
}