{
  "contractName": "QueryHelper",
  "abi": [
    {
      "inputs": [],
      "stateMutability": "nonpayable",
      "type": "constructor"
    },
    {
      "inputs": [
        {
          "internalType": "contract IOpenLev",
          "name": "openLev",
          "type": "address"
        },
        {
          "internalType": "uint16",
          "name": "marketId",
          "type": "uint16"
        },
        {
          "internalType": "address[]",
          "name": "traders",
          "type": "address[]"
        },
        {
          "internalType": "bool[]",
          "name": "longTokens",
          "type": "bool[]"
        },
        {
          "internalType": "bytes",
          "name": "dexData",
          "type": "bytes"
        }
      ],
      "name": "getTraderPositons",
      "outputs": [
        {
          "components": [
            {
              "internalType": "uint256",
              "name": "deposited",
              "type": "uint256"
            },
            {
              "internalType": "uint256",
              "name": "held",
              "type": "uint256"
            },
            {
              "internalType": "uint256",
              "name": "borrowed",
              "type": "uint256"
            },
            {
              "internalType": "uint256",
              "name": "marginRatio",
              "type": "uint256"
            },
            {
              "internalType": "uint32",
              "name": "marginLimit",
              "type": "uint32"
            }
          ],
          "internalType": "struct QueryHelper.PositionVars[]",
          "name": "results",
          "type": "tuple[]"
        }
      ],
      "stateMutability": "view",
      "type": "function"
    },
    {
      "inputs": [
        {
          "internalType": "contract IOpenLev",
          "name": "openLev",
          "type": "address"
        },
        {
          "internalType": "uint16",
          "name": "marketId",
          "type": "uint16"
        },
        {
          "internalType": "address[]",
          "name": "traders",
          "type": "address[]"
        },
        {
          "internalType": "bool[]",
          "name": "longTokens",
          "type": "bool[]"
        },
        {
          "internalType": "bytes",
          "name": "dexData",
          "type": "bytes"
        }
      ],
      "name": "getTraderLiqs",
      "outputs": [
        {
          "components": [
            {
              "internalType": "enum QueryHelper.LiqStatus",
              "name": "status",
              "type": "uint8"
            },
            {
              "internalType": "uint256",
              "name": "lastUpdateTime",
              "type": "uint256"
            },
            {
              "internalType": "uint256",
              "name": "currentMarginRatio",
              "type": "uint256"
            },
            {
              "internalType": "uint256",
              "name": "cAvgMarginRatio",
              "type": "uint256"
            },
            {
              "internalType": "uint256",
              "name": "hAvgMarginRatio",
              "type": "uint256"
            },
            {
              "internalType": "uint32",
              "name": "marginLimit",
              "type": "uint32"
            }
          ],
          "internalType": "struct QueryHelper.LiqVars[]",
          "name": "results",
          "type": "tuple[]"
        }
      ],
      "stateMutability": "nonpayable",
      "type": "function"
    },
    {
      "inputs": [
        {
          "internalType": "contract IOpenLev",
          "name": "openLev",
          "type": "address"
        },
        {
          "internalType": "uint16",
          "name": "marketId",
          "type": "uint16"
        },
        {
          "internalType": "address",
          "name": "desToken",
          "type": "address"
        },
        {
          "internalType": "address",
          "name": "quoteToken",
          "type": "address"
        },
        {
          "internalType": "uint32",
          "name": "secondsAgo",
          "type": "uint32"
        },
        {
          "internalType": "bytes",
          "name": "dexData",
          "type": "bytes"
        }
      ],
      "name": "calPriceCAvgPriceHAvgPrice",
      "outputs": [
        {
          "internalType": "uint256",
          "name": "price",
          "type": "uint256"
        },
        {
          "internalType": "uint256",
          "name": "cAvgPrice",
          "type": "uint256"
        },
        {
          "internalType": "uint256",
          "name": "hAvgPrice",
          "type": "uint256"
        },
        {
          "internalType": "uint8",
          "name": "decimals",
          "type": "uint8"
        },
        {
          "internalType": "uint256",
          "name": "timestamp",
          "type": "uint256"
        }
      ],
      "stateMutability": "nonpayable",
      "type": "function"
    },
    {
      "inputs": [
        {
          "internalType": "contract IOpenLev",
          "name": "openLev",
          "type": "address"
        },
        {
          "internalType": "contract IV3Quoter",
          "name": "v3Quoter",
          "type": "address"
        },
        {
          "internalType": "uint16",
          "name": "marketId",
          "type": "uint16"
        },
        {
          "internalType": "uint16",
          "name": "slippage",
          "type": "uint16"
        },
        {
          "internalType": "address",
          "name": "trader",
          "type": "address"
        },
        {
          "internalType": "bool",
          "name": "longToken",
          "type": "bool"
        },
        {
          "internalType": "bytes",
          "name": "dexData",
          "type": "bytes"
        }
      ],
      "name": "getLiqCallData",
      "outputs": [
        {
          "internalType": "uint256",
          "name": "minOrMaxAmount",
          "type": "uint256"
        },
        {
          "internalType": "bytes",
          "name": "callDexData",
          "type": "bytes"
        }
      ],
      "stateMutability": "nonpayable",
      "type": "function"
    },
    {
      "inputs": [
        {
          "internalType": "contract IOpenLev",
          "name": "openLev",
          "type": "address"
        },
        {
          "internalType": "uint16[]",
          "name": "marketIds",
          "type": "uint16[]"
        },
        {
          "internalType": "contract LPoolInterface[]",
          "name": "pools",
          "type": "address[]"
        }
      ],
      "name": "getPoolDetails",
      "outputs": [
        {
          "components": [
            {
              "internalType": "uint256",
              "name": "totalBorrows",
              "type": "uint256"
            },
            {
              "internalType": "uint256",
              "name": "cash",
              "type": "uint256"
            },
            {
              "internalType": "uint256",
              "name": "totalReserves",
              "type": "uint256"
            },
            {
              "internalType": "uint256",
              "name": "availableForBorrow",
              "type": "uint256"
            },
            {
              "internalType": "uint256",
              "name": "insurance",
              "type": "uint256"
            },
            {
              "internalType": "uint256",
              "name": "supplyRatePerBlock",
              "type": "uint256"
            },
            {
              "internalType": "uint256",
              "name": "borrowRatePerBlock",
              "type": "uint256"
            },
            {
              "internalType": "uint256",
              "name": "reserveFactorMantissa",
              "type": "uint256"
            },
            {
              "internalType": "uint256",
              "name": "exchangeRate",
              "type": "uint256"
            },
            {
              "internalType": "uint256",
              "name": "baseRatePerBlock",
              "type": "uint256"
            },
            {
              "internalType": "uint256",
              "name": "multiplierPerBlock",
              "type": "uint256"
            },
            {
              "internalType": "uint256",
              "name": "jumpMultiplierPerBlock",
              "type": "uint256"
            },
            {
              "internalType": "uint256",
              "name": "kink",
              "type": "uint256"
            }
          ],
          "internalType": "struct QueryHelper.PoolVars[]",
          "name": "results",
          "type": "tuple[]"
        }
      ],
      "stateMutability": "view",
      "type": "function"
    },
    {
      "inputs": [
        {
          "internalType": "contract IXOLE",
          "name": "xole",
          "type": "address"
        },
        {
          "internalType": "contract IERC20",
          "name": "balanceOfToken",
          "type": "address"
        }
      ],
      "name": "getXOLEDetail",
      "outputs": [
        {
          "components": [
            {
              "internalType": "uint256",
              "name": "totalStaked",
              "type": "uint256"
            },
            {
              "internalType": "uint256",
              "name": "totalShared",
              "type": "uint256"
            },
            {
              "internalType": "uint256",
              "name": "tranferedToAccount",
              "type": "uint256"
            },
            {
              "internalType": "uint256",
              "name": "devFund",
              "type": "uint256"
            },
            {
              "internalType": "uint256",
              "name": "balanceOf",
              "type": "uint256"
            }
          ],
          "internalType": "struct QueryHelper.XOLEVars",
          "name": "vars",
          "type": "tuple"
        }
      ],
      "stateMutability": "view",
      "type": "function"
    }
  ],
  "bytecode": "0x608060405234801561001057600080fd5b50613494806100206000396000f3fe608060405234801561001057600080fd5b50600436106100625760003560e01c806312068f25146100675780634983b884146100905780635f5e3f4d146100b0578063633da70d146100d057806395fb8f2f146100f4578063975f048b14610114575b600080fd5b61007a61007536600461288b565b610135565b6040516100879190613145565b60405180910390f35b6100a361009e366004612a4d565b610885565b60405161008791906131fc565b6100c36100be366004612b32565b610ce3565b60405161008791906132cd565b6100e36100de3660046129b6565b610f66565b60405161008795949392919061337b565b610107610102366004612a4d565b611176565b60405161008791906130bd565b61012761012236600461290b565b611ae8565b604051610087929190613362565b60608167ffffffffffffffff8111801561014e57600080fd5b5060405190808252806020026020018201604052801561018857816020015b6101756125ac565b81526020019060019003908161016d5790505b50905060005b8281101561087b5760008484838181106101a457fe5b90506020020160208101906101b99190612853565b90506000886001600160a01b031663284f43028989868181106101d857fe5b90506020020160208101906101ed9190612dd2565b6040518263ffffffff1660e01b81526004016102099190613307565b6101406040518083038186803b15801561022257600080fd5b505afa158015610236573d6000803e3d6000fd5b505050506040513d601f19601f8201168201806040525081019061025a9190612cb3565b90506102646125ac565b826001600160a01b031682600001516001600160a01b03161461028c57816101200151610293565b8161010001515b816080018181525050826001600160a01b0316633b1d21a26040518163ffffffff1660e01b815260040160206040518083038186803b1580156102d557600080fd5b505afa1580156102e9573d6000803e3d6000fd5b505050506040513d601f19601f8201168201806040525081019061030d9190612dee565b816020018181525050826001600160a01b03166373acee986040518163ffffffff1660e01b815260040160206040518083038186803b15801561034f57600080fd5b505afa158015610363573d6000803e3d6000fd5b505050506040513d601f19601f820116820180604052508101906103879190612dee565b816000018181525050826001600160a01b0316638f840ddd6040518163ffffffff1660e01b815260040160206040518083038186803b1580156103c957600080fd5b505afa1580156103dd573d6000803e3d6000fd5b505050506040513d601f19601f820116820180604052508101906104019190612dee565b816040018181525050826001600160a01b031663fb0fc2b66040518163ffffffff1660e01b815260040160206040518083038186803b15801561044357600080fd5b505afa158015610457573d6000803e3d6000fd5b505050506040513d601f19601f8201168201806040525081019061047b9190612dee565b816060018181525050826001600160a01b031663ae9d70b06040518163ffffffff1660e01b815260040160206040518083038186803b1580156104bd57600080fd5b505afa1580156104d1573d6000803e3d6000fd5b505050506040513d601f19601f820116820180604052508101906104f59190612dee565b8160a0018181525050826001600160a01b031663f8f9da286040518163ffffffff1660e01b815260040160206040518083038186803b15801561053757600080fd5b505afa15801561054b573d6000803e3d6000fd5b505050506040513d601f19601f8201168201806040525081019061056f9190612dee565b8160c0018181525050826001600160a01b031663173b99046040518163ffffffff1660e01b815260040160206040518083038186803b1580156105b157600080fd5b505afa1580156105c5573d6000803e3d6000fd5b505050506040513d601f19601f820116820180604052508101906105e99190612dee565b8160e0018181525050826001600160a01b031663182df0f56040518163ffffffff1660e01b815260040160206040518083038186803b15801561062b57600080fd5b505afa15801561063f573d6000803e3d6000fd5b505050506040513d601f19601f820116820180604052508101906106639190612dee565b81610100018181525050826001600160a01b031663f14039de6040518163ffffffff1660e01b815260040160206040518083038186803b1580156106a657600080fd5b505afa1580156106ba573d6000803e3d6000fd5b505050506040513d601f19601f820116820180604052508101906106de9190612dee565b81610120018181525050826001600160a01b0316638726bb896040518163ffffffff1660e01b815260040160206040518083038186803b15801561072157600080fd5b505afa158015610735573d6000803e3d6000fd5b505050506040513d601f19601f820116820180604052508101906107599190612dee565b81610140018181525050826001600160a01b031663b9f9850a6040518163ffffffff1660e01b815260040160206040518083038186803b15801561079c57600080fd5b505afa1580156107b0573d6000803e3d6000fd5b505050506040513d601f19601f820116820180604052508101906107d49190612dee565b81610160018181525050826001600160a01b031663fd2da3396040518163ffffffff1660e01b815260040160206040518083038186803b15801561081757600080fd5b505afa15801561082b573d6000803e3d6000fd5b505050506040513d601f19601f8201168201806040525081019061084f9190612dee565b6101808201528451819086908690811061086557fe5b602090810291909101015250505060010161018e565b5095945050505050565b60608567ffffffffffffffff8111801561089e57600080fd5b506040519080825280602002602001820160405280156108d857816020015b6108c5612614565b8152602001906001900390816108bd5790505b5090506000896001600160a01b031663284f43028a6040518263ffffffff1660e01b81526004016109099190613307565b6101406040518083038186803b15801561092257600080fd5b505afa158015610936573d6000803e3d6000fd5b505050506040513d601f19601f8201168201806040525081019061095a9190612cb3565b905060005b87811015610cd55761096f612614565b60008c6001600160a01b0316636c3fbc348c8c8681811061098c57fe5b90506020020160208101906109a19190612853565b8e8c8c888181106109ae57fe5b90506020020160208101906109c3919061286f565b6040518463ffffffff1660e01b81526004016109e19392919061301e565b60806040518083038186803b1580156109f957600080fd5b505afa158015610a0d573d6000803e3d6000fd5b505050506040513d601f19601f82011682018060405250810190610a319190612d72565b9050806020015160001415610a5f5781858481518110610a4d57fe5b60200260200101819052505050610ccd565b60208082015190830152805182526001600160a01b038d16634c42ba0b8c8c86818110610a8857fe5b9050602002016020810190610a9d9190612853565b8e8c8c88818110610aaa57fe5b9050602002016020810190610abf919061286f565b8b8b6040518663ffffffff1660e01b8152600401610ae1959493929190613045565b60806040518083038186803b158015610af957600080fd5b505afa158015610b0d573d6000803e3d6000fd5b505050506040513d601f19601f82011682018060405250810190610b319190612e06565b63ffffffff16608086015250506060830152888884818110610b4f57fe5b9050602002016020810190610b64919061286f565b610c0d5783602001516001600160a01b03166317bfdfbc8c8c86818110610b8757fe5b9050602002016020810190610b9c9190612853565b6040518263ffffffff1660e01b8152600401610bb89190612f2a565b60206040518083038186803b158015610bd057600080fd5b505afa158015610be4573d6000803e3d6000fd5b505050506040513d601f19601f82011682018060405250810190610c089190612dee565b610caa565b83516001600160a01b03166317bfdfbc8c8c86818110610c2957fe5b9050602002016020810190610c3e9190612853565b6040518263ffffffff1660e01b8152600401610c5a9190612f2a565b60206040518083038186803b158015610c7257600080fd5b505afa158015610c86573d6000803e3d6000fd5b505050506040513d601f19601f82011682018060405250810190610caa9190612dee565b604083015284518290869085908110610cbf57fe5b602002602001018190525050505b60010161095f565b505098975050505050505050565b610ceb612649565b826001600160a01b031663568914126040518163ffffffff1660e01b815260040160206040518083038186803b158015610d2457600080fd5b505afa158015610d38573d6000803e3d6000fd5b505050506040513d601f19601f82011682018060405250810190610d5c9190612dee565b816000018181525050826001600160a01b031663aed29d076040518163ffffffff1660e01b815260040160206040518083038186803b158015610d9e57600080fd5b505afa158015610db2573d6000803e3d6000fd5b505050506040513d601f19601f82011682018060405250810190610dd69190612dee565b816020018181525050826001600160a01b0316638471eb446040518163ffffffff1660e01b815260040160206040518083038186803b158015610e1857600080fd5b505afa158015610e2c573d6000803e3d6000fd5b505050506040513d601f19601f82011682018060405250810190610e509190612dee565b816040018181525050826001600160a01b0316634390d2a86040518163ffffffff1660e01b815260040160206040518083038186803b158015610e9257600080fd5b505afa158015610ea6573d6000803e3d6000fd5b505050506040513d601f19601f82011682018060405250810190610eca9190612dee565b60608201526001600160a01b03821615610f60576040516370a0823160e01b81526001600160a01b038316906370a0823190610f0a908690600401612f2a565b60206040518083038186803b158015610f2257600080fd5b505afa158015610f36573d6000803e3d6000fd5b505050506040513d601f19601f82011682018060405250810190610f5a9190612dee565b60808201525b92915050565b6000806000806000808b6001600160a01b031663c275fe546040518163ffffffff1660e01b815260040160806040518083038186803b158015610fa857600080fd5b505afa158015610fbc573d6000803e3d6000fd5b505050506040513d601f19601f82011682018060405250810190610fe09190612b6a565b80516040516352cd1b5760e11b81529192506001600160a01b03169063a59a36ae90611016908d908d908d908d90600401612fe6565b60a06040518083038186803b15801561102e57600080fd5b505afa158015611042573d6000803e3d6000fd5b505050506040513d601f19601f820116820180604052508101906110669190612e46565b9091929350909192509091509050809250508b6001600160a01b03166390e9097a8c896040518363ffffffff1660e01b81526004016110a692919061333d565b600060405180830381600087803b1580156110c057600080fd5b505af11580156110d4573d6000803e3d6000fd5b505082516040516352cd1b5760e11b81526001600160a01b03909116925063a59a36ae915061110d908d908d908d908d90600401612fe6565b60a06040518083038186803b15801561112557600080fd5b505afa158015611139573d6000803e3d6000fd5b505050506040513d601f19601f8201168201806040525081019061115d9190612e46565b50929f919e509c50909a50919850909650505050505050565b60608567ffffffffffffffff8111801561118f57600080fd5b506040519080825280602002602001820160405280156111c957816020015b6111b6612678565b8152602001906001900390816111ae5790505b5090506111d46126b5565b6001600160a01b038a16815261ffff891660408083019190915280516020601f86018190048102820181019092528481529085908590819084018382808284376000920182905250610120860194909452505082516040808501519051631427a18160e11b81526001600160a01b03909216925063284f43029161125b9190600401613307565b6101406040518083038186803b15801561127457600080fd5b505afa158015611288573d6000803e3d6000fd5b505050506040513d601f19601f820116820180604052508101906112ac9190612cb3565b9050600082600001516001600160a01b031663c275fe546040518163ffffffff1660e01b815260040160806040518083038186803b1580156112ed57600080fd5b505afa158015611301573d6000803e3d6000fd5b505050506040513d601f19601f820116820180604052508101906113259190612b6a565b9050600083600001516001600160a01b03166341ed0afe6040518163ffffffff1660e01b81526004016101406040518083038186803b15801561136757600080fd5b505afa15801561137b573d6000803e3d6000fd5b505050506040513d601f19601f8201168201806040525081019061139f9190612be8565b8251604080860151606087015161012080860151908a015193516352cd1b5760e11b81529596506001600160a01b039094169463a59a36ae946113e6949091600401612f3e565b60a06040518083038186803b1580156113fe57600080fd5b505afa158015611412573d6000803e3d6000fd5b505050506040513d601f19601f820116820180604052508101906114369190612e46565b9091929350909192509091509050846101000181815250508c6001600160a01b03166390e9097a8d89896040518463ffffffff1660e01b815260040161147e93929190613316565b600060405180830381600087803b15801561149857600080fd5b505af11580156114ac573d6000803e3d6000fd5b5050505081600001516001600160a01b031663a59a36ae846040015185606001518461012001518861012001516040518563ffffffff1660e01b81526004016114f89493929190612f3e565b60a06040518083038186803b15801561151057600080fd5b505afa158015611524573d6000803e3d6000fd5b505050506040513d601f19601f820116820180604052508101906115489190612e46565b50505060a0860152608085015281516060840151604080860151610120808601519089015192516352cd1b5760e11b81526001600160a01b039095169463a59a36ae9461159b9490939291600401612f3e565b60a06040518083038186803b1580156115b357600080fd5b505afa1580156115c7573d6000803e3d6000fd5b505050506040513d601f19601f820116820180604052508101906115eb9190612e46565b50505060e086015260c085015260005b8a811015611ad7578b8b8281811061160f57fe5b90506020020160208101906116249190612853565b6001600160a01b0316602086015289898281811061163e57fe5b9050602002016020810190611653919061286f565b15156060860152611662612678565b8551602087015160408089015160608a01519151631b0fef0d60e21b81526000946001600160a01b031693636c3fbc34936116a193919260040161301e565b60806040518083038186803b1580156116b957600080fd5b505afa1580156116cd573d6000803e3d6000fd5b505050506040513d601f19601f820116820180604052508101906116f19190612d72565b905080602001516000141561172657600482528751829089908590811061171457fe5b60200260200101819052505050611acf565b6101008701516020808401919091528751908801516040808a015160608b01516101208c01519251634c42ba0b60e01b81526001600160a01b0390951694634c42ba0b9461177a9490939291600401613087565b60806040518083038186803b15801561179257600080fd5b505afa1580156117a6573d6000803e3d6000fd5b505050506040513d601f19601f820116820180604052508101906117ca9190612e06565b63ffffffff1660a08601819052608086019190915260608501919091526040840182905210801561180857508160a0015163ffffffff168260600151115b801561182157508160a0015163ffffffff168260800151115b1561183f578160005b9081600481111561183757fe5b905250611ab4565b8160a0015163ffffffff16826040015110801561186957508160a0015163ffffffff168260600151115b801561188257508160a0015163ffffffff168260800151115b15611912576118c68a8a8080601f0160208091040260200160405190810160405280939291908181526020018383808284376000920191909152506123ad92505050565b1561190557816020015184610120015161ffff16420311156118fb578160015b908160048111156118f357fe5b905250611900565b600282525b61190d565b81600261182a565b611ab4565b8160a0015163ffffffff16826040015110801561193c57508160a0015163ffffffff168260600151105b15611ab457816020015184610120015161ffff164203118061196b57508160a0015163ffffffff168260800151105b15611aaf578b8b8481811061197c57fe5b9050602002016020810190611991919061286f565b1580156119a5575086608001518760a00151115b80156119e1575083610100015160ff1660646119dd89608001516119d760648c60a001516123c790919063ffffffff16565b90612427565b0310155b80611a5657508b8b848181106119f357fe5b9050602002016020810190611a08919061286f565b15156001148015611a2057508660c001518760e00151115b8015611a56575083610100015160ff166064611a528960c001516119d760648c60e001516123c790919063ffffffff16565b0310155b15611aa757611a9a8a8a8080601f0160208091040260200160405190810160405280939291908181526020018383808284376000920191909152506123ad92505050565b156118fb578160016118e6565b81600361182a565b600282525b81888481518110611ac157fe5b602002602001018190525050505b6001016115fb565b505050505098975050505050505050565b600060606000896001600160a01b031663284f4302896040518263ffffffff1660e01b8152600401611b1a9190613307565b6101406040518083038186803b158015611b3357600080fd5b505afa158015611b47573d6000803e3d6000fd5b505050506040513d601f19601f82011682018060405250810190611b6b9190612cb3565b905060008a6001600160a01b0316636c3fbc34888b896040518463ffffffff1660e01b8152600401611b9f9392919061301e565b60806040518083038186803b158015611bb757600080fd5b505afa158015611bcb573d6000803e3d6000fd5b505050506040513d601f19601f82011682018060405250810190611bef9190612d72565b9050611bf9612720565b611c1e6127106119d78560a0015161ffff1685602001516123c790919063ffffffff16565b80825260208201526040805163309d7f9560e21b815290516000916001600160a01b038f169163c275fe5491600480820192608092909190829003018186803b158015611c6a57600080fd5b505afa158015611c7e573d6000803e3d6000fd5b505050506040513d601f19601f82011682018060405250810190611ca29190612b6a565b905060008d6001600160a01b03166341ed0afe6040518163ffffffff1660e01b81526004016101406040518083038186803b158015611ce057600080fd5b505afa158015611cf4573d6000803e3d6000fd5b505050506040513d601f19601f82011682018060405250810190611d189190612be8565b90508060c001516001600160801b031682606001516001600160a01b03166370a082318c6040518263ffffffff1660e01b8152600401611d589190612f2a565b60206040518083038186803b158015611d7057600080fd5b505afa158015611d84573d6000803e3d6000fd5b505050506040513d601f19601f82011682018060405250810190611da89190612dee565b1115611de357611ddd611dd560646119d78460a0015161ffff1687600001516123c790919063ffffffff16565b84519061248e565b60208401525b896001600160a01b03168560e001516001600160a01b03161415611e3957611e33611e2860646119d7846080015161ffff1687600001516123c790919063ffffffff16565b60208501519061248e565b60208401525b611e5e6127106119d78360e0015161ffff1687602001516123c790919063ffffffff16565b6040840181905260208085015190860151611e8392611e7d919061248e565b9061248e565b606084015288611f125784602001516001600160a01b03166317bfdfbc8b6040518263ffffffff1660e01b8152600401611ebd9190612f2a565b60206040518083038186803b158015611ed557600080fd5b505afa158015611ee9573d6000803e3d6000fd5b505050506040513d601f19601f82011682018060405250810190611f0d9190612dee565b611f91565b84516040516305eff7ef60e21b81526001600160a01b03909116906317bfdfbc90611f41908d90600401612f2a565b60206040518083038186803b158015611f5957600080fd5b505afa158015611f6d573d6000803e3d6000fd5b505050506040513d601f19601f82011682018060405250810190611f919190612dee565b6080840152611f9f886123ad565b612063578c6001600160a01b031663f7729d438a611fc1578660400151611fc7565b86606001515b8b611fd6578760600151611fdc565b87604001515b611fe58c6124eb565b876060015160006040518663ffffffff1660e01b815260040161200c959493929190612f7e565b602060405180830381600087803b15801561202657600080fd5b505af115801561203a573d6000803e3d6000fd5b505050506040513d601f19601f8201168201806040525081019061205e9190612dee565b612112565b81516001600160a01b031663f5358c488a612082578660600151612088565b86604001515b8b61209757876040015161209d565b87606001515b86606001518c6040518563ffffffff1660e01b81526004016120c29493929190612fb3565b60206040518083038186803b1580156120da57600080fd5b505afa1580156120ee573d6000803e3d6000fd5b505050506040513d601f19601f820116820180604052508101906121129190612dee565b60a084018190526080840151111560e08401526040840151151589151514158061213e57508260e00151155b156121af576121726121676103e86119d78e61ffff168760a001516123c790919063ffffffff16565b60a08501519061248e565b965061217d886123ad565b6121a657876040516020016121929190612ee4565b6040516020818303038152906040526121a8565b875b955061239c565b6121b8886123ad565b61227c578c6001600160a01b03166330d07f218a6121da5786604001516121e0565b86606001515b8b6121ef5787606001516121f5565b87604001515b6121fe8c6124eb565b876080015160006040518663ffffffff1660e01b8152600401612225959493929190612f7e565b602060405180830381600087803b15801561223f57600080fd5b505af1158015612253573d6000803e3d6000fd5b505050506040513d601f19601f820116820180604052508101906122779190612dee565b61232b565b81516001600160a01b031663a4d5ef8e8a61229b5786606001516122a1565b86604001515b8b6122b05787604001516122b6565b87606001515b86608001518c6040518563ffffffff1660e01b81526004016122db9493929190612fb3565b60206040518083038186803b1580156122f357600080fd5b505afa158015612307573d6000803e3d6000fd5b505050506040513d601f19601f8201168201806040525081019061232b9190612dee565b8360c00181815250506123636123586103e86119d78e61ffff168760c001516123c790919063ffffffff16565b60c085015190612523565b965061236e886123ad565b61239757876040516020016123839190612f09565b604051602081830303815290604052612399565b875b95505b505050505097509795505050505050565b600060026123ba8361257d565b60ff16141590505b919050565b6000826123d657506000610f60565b828202828482816123e357fe5b04146124205760405162461bcd60e51b815260040180806020018281038252602181526020018061343e6021913960400191505060405180910390fd5b9392505050565b600080821161247d576040805162461bcd60e51b815260206004820152601a60248201527f536166654d6174683a206469766973696f6e206279207a65726f000000000000604482015290519081900360640190fd5b81838161248657fe5b049392505050565b6000828211156124e5576040805162461bcd60e51b815260206004820152601e60248201527f536166654d6174683a207375627472616374696f6e206f766572666c6f770000604482015290519081900360640190fd5b50900390565b60006004825110156125185760405162461bcd60e51b815260040161250f90613298565b60405180910390fd5b506021015160e81c90565b600082820183811015612420576040805162461bcd60e51b815260206004820152601b60248201527f536166654d6174683a206164646974696f6e206f766572666c6f770000000000604482015290519081900360640190fd5b60006001825110156125a15760405162461bcd60e51b815260040161250f90613263565b506020015160001a90565b604051806101a00160405280600081526020016000815260200160008152602001600081526020016000815260200160008152602001600081526020016000815260200160008152602001600081526020016000815260200160008152602001600081525090565b6040518060a0016040528060008152602001600081526020016000815260200160008152602001600063ffffffff1681525090565b6040518060a0016040528060008152602001600081526020016000815260200160008152602001600081525090565b6040805160c08101909152806000815260200160008152602001600081526020016000815260200160008152602001600063ffffffff1681525090565b60405180610140016040528060006001600160a01b0316815260200160006001600160a01b03168152602001600061ffff1681526020016000151581526020016000815260200160008152602001600081526020016000815260200160008152602001606081525090565b604051806101000160405280600081526020016000815260200160008152602001600081526020016000815260200160008152602001600081526020016000151581525090565b80516123c2816133f5565b60008083601f840112612783578081fd5b50813567ffffffffffffffff81111561279a578182fd5b60208301915083602080830285010111156127b457600080fd5b9250929050565b600082601f8301126127cb578081fd5b813567ffffffffffffffff8111156127df57fe5b6127f2601f8201601f19166020016133a1565b818152846020838601011115612806578283fd5b816020850160208301379081016020019190915292915050565b80516001600160801b03811681146123c257600080fd5b80516123c28161341b565b805160ff811681146123c257600080fd5b600060208284031215612864578081fd5b8135612420816133f5565b600060208284031215612880578081fd5b81356124208161340d565b6000806000806000606086880312156128a2578081fd5b85356128ad816133f5565b9450602086013567ffffffffffffffff808211156128c9578283fd5b6128d589838a01612772565b909650945060408801359150808211156128ed578283fd5b506128fa88828901612772565b969995985093965092949392505050565b600080600080600080600060e0888a031215612925578485fd5b8735612930816133f5565b96506020880135612940816133f5565b955060408801356129508161341b565b945060608801356129608161341b565b93506080880135612970816133f5565b925060a08801356129808161340d565b915060c088013567ffffffffffffffff81111561299b578182fd5b6129a78a828b016127bb565b91505092959891949750929550565b60008060008060008060c087890312156129ce578384fd5b86356129d9816133f5565b955060208701356129e98161341b565b945060408701356129f9816133f5565b93506060870135612a09816133f5565b92506080870135612a198161342b565b915060a087013567ffffffffffffffff811115612a34578182fd5b612a4089828a016127bb565b9150509295509295509295565b60008060008060008060008060a0898b031215612a68578182fd5b8835612a73816133f5565b97506020890135612a838161341b565b9650604089013567ffffffffffffffff80821115612a9f578384fd5b612aab8c838d01612772565b909850965060608b0135915080821115612ac3578384fd5b612acf8c838d01612772565b909650945060808b0135915080821115612ae7578384fd5b818b0191508b601f830112612afa578384fd5b813581811115612b08578485fd5b8c6020828501011115612b19578485fd5b6020830194508093505050509295985092959890939650565b60008060408385031215612b44578182fd5b8235612b4f816133f5565b91506020830135612b5f816133f5565b809150509250929050565b600060808284031215612b7b578081fd5b6040516080810181811067ffffffffffffffff82111715612b9857fe5b6040528251612ba6816133f5565b81526020830151612bb6816133f5565b60208201526040830151612bc9816133f5565b60408201526060830151612bdc816133f5565b60608201529392505050565b6000610140808385031215612bfb578182fd5b612c04816133a1565b9050612c0f83612837565b8152612c1d60208401612842565b6020820152612c2e60408401612837565b6040820152612c3f60608401612837565b6060820152612c5060808401612837565b6080820152612c6160a08401612837565b60a0820152612c7260c08401612820565b60c0820152612c8360e08401612837565b60e0820152610100612c96818501612842565b90820152610120612ca8848201612837565b908201529392505050565b6000610140808385031215612cc6578182fd5b612ccf816133a1565b9050612cda83612767565b8152612ce860208401612767565b6020820152612cf960408401612767565b6040820152612d0a60608401612767565b6060820152612d1b60808401612837565b6080820152612d2c60a08401612837565b60a0820152612d3d60c08401612837565b60c0820152612d4e60e08401612767565b60e08201526101008381015190820152610120928301519281019290925250919050565b600060808284031215612d83578081fd5b6040516080810181811067ffffffffffffffff82111715612da057fe5b806040525082518152602083015160208201526040830151612dc18161340d565b6040820152612bdc60608401612820565b600060208284031215612de3578081fd5b81356124208161341b565b600060208284031215612dff578081fd5b5051919050565b60008060008060808587031215612e1b578182fd5b8451935060208501519250604085015191506060850151612e3b8161342b565b939692955090935050565b600080600080600060a08688031215612e5d578283fd5b855194506020860151935060408601519250612e7b60608701612842565b9150608086015190509295509295909350565b60008284528282602086013780602084860101526020601f19601f85011685010190509392505050565b60008151808452612ed08160208601602086016133c5565b601f01601f19169290920160200192915050565b60008251612ef68184602087016133c5565b600160f81b920191825250600101919050565b60008251612f1b8184602087016133c5565b91909101908152600101919050565b6001600160a01b0391909116815260200190565b6001600160a01b0385811682528416602082015261ffff83166040820152608060608201819052600090612f7490830184612eb8565b9695505050505050565b6001600160a01b039586168152938516602085015262ffffff9290921660408401526060830152909116608082015260a00190565b6001600160a01b0385811682528416602082015260408101839052608060608201819052600090612f7490830184612eb8565b6001600160a01b0385811682528416602082015263ffffffff83166040820152608060608201819052600090612f7490830184612eb8565b6001600160a01b0393909316835261ffff9190911660208301521515604082015260600190565b6001600160a01b038616815261ffff85166020820152831515604082015260806060820181905260009061307c9083018486612e8e565b979650505050505050565b6001600160a01b038516815261ffff841660208201528215156040820152608060608201819052600090612f7490830184612eb8565b602080825282518282018190526000919060409081850190868401855b828110156131385781518051600581106130f057fe5b855280870151878601528581015186860152606080820151908601526080808201519086015260a09081015163ffffffff169085015260c090930192908501906001016130da565b5091979650505050505050565b602080825282518282018190526000919060409081850190868401855b828110156131385781518051855286810151878601528581015186860152606080820151908601526080808201519086015260a0808201519086015260c0808201519086015260e08082015190860152610100808201519086015261012080820151908601526101408082015190860152610160808201519086015261018090810151908501526101a09093019290850190600101613162565b602080825282518282018190526000919060409081850190868401855b8281101561313857815180518552868101518786015285810151868601526060808201519086015260809081015163ffffffff169085015260a09093019290850190600101613219565b6020808252818101527f446578446174613a20746f4465782077726f6e67206461746120666f726d6174604082015260600190565b6020808252818101527f446578446174613a20746f4665652077726f6e67206461746120666f726d6174604082015260600190565b600060a082019050825182526020830151602083015260408301516040830152606083015160608301526080830151608083015292915050565b61ffff91909116815260200190565b600061ffff8516825260406020830152613334604083018486612e8e565b95945050505050565b600061ffff841682526040602083015261335a6040830184612eb8565b949350505050565b60008382526040602083015261335a6040830184612eb8565b9485526020850193909352604084019190915260ff166060830152608082015260a00190565b60405181810167ffffffffffffffff811182821017156133bd57fe5b604052919050565b60005b838110156133e05781810151838201526020016133c8565b838111156133ef576000848401525b50505050565b6001600160a01b038116811461340a57600080fd5b50565b801515811461340a57600080fd5b61ffff8116811461340a57600080fd5b63ffffffff8116811461340a57600080fdfe536166654d6174683a206d756c7469706c69636174696f6e206f766572666c6f77a2646970667358221220f1e799d3619da46dbadb85030c21108405554b9d95154218cba39b6c2a36ac7564736f6c63430007060033",
  "immutableReferences": {},
  "source": "// SPDX-License-Identifier: BUSL-1.1\npragma solidity 0.7.6;\npragma experimental ABIEncoderV2;\n\nimport \"@openzeppelin/contracts/math/SafeMath.sol\";\nimport \"../Types.sol\";\nimport \"../lib/DexData.sol\";\n\n\ncontract QueryHelper {\n    using DexData for bytes;\n    using SafeMath for uint;\n\n    constructor ()\n    {\n\n    }\n    struct PositionVars {\n        uint deposited;\n        uint held;\n        uint borrowed;\n        uint marginRatio;\n        uint32 marginLimit;\n    }\n    enum LiqStatus{\n        HEALTHY, // Do nothing\n        UPDATE, // Need update price\n        WAITING, // Waiting\n        LIQ, // Can liquidate\n        NOP// No position\n    }\n\n    struct LiqVars {\n        LiqStatus status;\n        uint lastUpdateTime;\n        uint currentMarginRatio;\n        uint cAvgMarginRatio;\n        uint hAvgMarginRatio;\n        uint32 marginLimit;\n    }\n\n    struct PoolVars {\n        uint totalBorrows;\n        uint cash;\n        uint totalReserves;\n        uint availableForBorrow;\n        uint insurance;\n        uint supplyRatePerBlock;\n        uint borrowRatePerBlock;\n        uint reserveFactorMantissa;\n        uint exchangeRate;\n        uint baseRatePerBlock;\n        uint multiplierPerBlock;\n        uint jumpMultiplierPerBlock;\n        uint kink;\n    }\n\n    struct XOLEVars {\n        uint totalStaked;\n        uint totalShared;\n        uint tranferedToAccount;\n        uint devFund;\n        uint balanceOf;\n    }\n\n    function getTraderPositons(IOpenLev openLev, uint16 marketId, address[] calldata traders, bool[] calldata longTokens, bytes calldata dexData) external view returns (PositionVars[] memory results){\n        results = new PositionVars[](traders.length);\n        IOpenLev.MarketVar memory market = openLev.markets(marketId);\n        for (uint i = 0; i < traders.length; i++) {\n            PositionVars memory item;\n            Types.Trade memory trade = openLev.activeTrades(traders[i], marketId, longTokens[i]);\n            if (trade.held == 0) {\n                results[i] = item;\n                continue;\n            }\n            item.held = trade.held;\n            item.deposited = trade.deposited;\n            (item.marginRatio,,,item.marginLimit) = openLev.marginRatio(traders[i], marketId, longTokens[i], dexData);\n            item.borrowed = longTokens[i] ? market.pool0.borrowBalanceCurrent(traders[i]) : market.pool1.borrowBalanceCurrent(traders[i]);\n            results[i] = item;\n        }\n        return results;\n    }\n\n    struct LiqReqVars {\n        IOpenLev openLev;\n        address owner;\n        uint16 marketId;\n        bool longToken;\n        uint256 token0price;\n        uint256 token0cAvgPrice;\n        uint256 token1price;\n        uint256 token1cAvgPrice;\n        uint256 timestamp;\n        bytes dexData;\n    }\n    //offchain call\n    function getTraderLiqs(IOpenLev openLev, uint16 marketId, address[] calldata traders, bool[] calldata longTokens, bytes calldata dexData) external returns (LiqVars[] memory results){\n        results = new LiqVars[](traders.length);\n        LiqReqVars memory reqVar;\n        reqVar.openLev = openLev;\n        reqVar.marketId = marketId;\n        reqVar.dexData = dexData;\n        IOpenLev.MarketVar memory market = reqVar.openLev.markets(reqVar.marketId);\n        IOpenLev.AddressConfig memory adrConf = reqVar.openLev.addressConfig();\n        IOpenLev.CalculateConfig memory calConf = reqVar.openLev.getCalculateConfig();\n        (,,,, reqVar.timestamp) = adrConf.dexAggregator.getPriceCAvgPriceHAvgPrice(market.token0, market.token1, calConf.twapDuration, reqVar.dexData);\n        openLev.updatePrice(marketId, dexData);\n        (reqVar.token0price, reqVar.token0cAvgPrice,,,) = adrConf.dexAggregator.getPriceCAvgPriceHAvgPrice(market.token0, market.token1, calConf.twapDuration, reqVar.dexData);\n        (reqVar.token1price, reqVar.token1cAvgPrice,,,) = adrConf.dexAggregator.getPriceCAvgPriceHAvgPrice(market.token1, market.token0, calConf.twapDuration, reqVar.dexData);\n\n        for (uint i = 0; i < traders.length; i++) {\n            reqVar.owner = traders[i];\n            reqVar.longToken = longTokens[i];\n            LiqVars memory item;\n            Types.Trade memory trade = reqVar.openLev.activeTrades(reqVar.owner, reqVar.marketId, reqVar.longToken);\n            if (trade.held == 0) {\n                item.status = LiqStatus.NOP;\n                results[i] = item;\n                continue;\n            }\n            item.lastUpdateTime = reqVar.timestamp;\n            (item.currentMarginRatio, item.cAvgMarginRatio, item.hAvgMarginRatio, item.marginLimit) = reqVar.openLev.marginRatio(reqVar.owner, reqVar.marketId, reqVar.longToken, reqVar.dexData);\n            if (item.currentMarginRatio > item.marginLimit && item.cAvgMarginRatio > item.marginLimit && item.hAvgMarginRatio > item.marginLimit) {\n                item.status = LiqStatus.HEALTHY;\n            }\n            else if (item.currentMarginRatio < item.marginLimit && item.cAvgMarginRatio > item.marginLimit && item.hAvgMarginRatio > item.marginLimit) {\n                if (dexData.isUniV2Class()) {\n                    if (block.timestamp - calConf.twapDuration > item.lastUpdateTime) {\n                        item.status = LiqStatus.UPDATE;\n                    } else {\n                        item.status = LiqStatus.WAITING;\n                    }\n                } else {\n                    item.status = LiqStatus.WAITING;\n                }\n            } else if (item.currentMarginRatio < item.marginLimit && item.cAvgMarginRatio < item.marginLimit) {\n                //Liq\n                if (block.timestamp - calConf.twapDuration > item.lastUpdateTime || item.hAvgMarginRatio < item.marginLimit) {\n                    // cAvgRatio diff currentRatio >+-5% ,waiting\n                    if ((longTokens[i] == false && reqVar.token0cAvgPrice > reqVar.token0price && reqVar.token0cAvgPrice.mul(100).div(reqVar.token0price) - 100 >= calConf.maxLiquidationPriceDiffientRatio)\n                        || (longTokens[i] == true && reqVar.token1cAvgPrice > reqVar.token1price && reqVar.token1cAvgPrice.mul(100).div(reqVar.token1price) - 100 >= calConf.maxLiquidationPriceDiffientRatio)) {\n                        if (dexData.isUniV2Class()) {\n                            item.status = LiqStatus.UPDATE;\n                        } else {\n                            item.status = LiqStatus.WAITING;\n                        }\n                    } else {\n                        item.status = LiqStatus.LIQ;\n                    }\n                } else {\n                    item.status = LiqStatus.WAITING;\n                }\n            }\n            results[i] = item;\n        }\n        return results;\n    }\n    // offchain call\n    function calPriceCAvgPriceHAvgPrice(IOpenLev openLev, uint16 marketId, address desToken, address quoteToken, uint32 secondsAgo, bytes memory dexData) external\n    returns (uint price, uint cAvgPrice, uint256 hAvgPrice, uint8 decimals, uint256 timestamp){\n        IOpenLev.AddressConfig memory adrConf = openLev.addressConfig();\n        (,,,, timestamp) = adrConf.dexAggregator.getPriceCAvgPriceHAvgPrice(desToken, quoteToken, secondsAgo, dexData);\n        openLev.updatePrice(marketId, dexData);\n        (price, cAvgPrice, hAvgPrice, decimals,) = adrConf.dexAggregator.getPriceCAvgPriceHAvgPrice(desToken, quoteToken, secondsAgo, dexData);\n    }\n\n    struct LiqCallVars {\n        uint defaultFees;\n        uint newFees;\n        uint penalty;\n        uint heldAfterFees;\n        uint borrows;\n        uint currentBuyAmount;\n        uint currentSellAmount;\n        bool canRepayBorrows;\n    }\n    //offchain call slippage 10%=>100\n    function getLiqCallData(IOpenLev openLev, IV3Quoter v3Quoter, uint16 marketId, uint16 slippage, address trader, bool longToken, bytes memory dexData) external returns (uint minOrMaxAmount,\n        bytes memory callDexData)\n    {\n        IOpenLev.MarketVar memory market = openLev.markets(marketId);\n        Types.Trade memory trade = openLev.activeTrades(trader, marketId, longToken);\n        LiqCallVars memory callVars;\n        // cal remain held after fees and penalty\n        callVars.defaultFees = trade.held.mul(market.feesRate).div(10000);\n        callVars.newFees = callVars.defaultFees;\n        IOpenLev.AddressConfig memory adrConf = openLev.addressConfig();\n        IOpenLev.CalculateConfig memory calConf = openLev.getCalculateConfig();\n        // if trader holds more xOLE, then should enjoy trading discount.\n        if (IXOLE(adrConf.xOLE).balanceOf(trader) > calConf.feesDiscountThreshold) {\n            callVars.newFees = callVars.defaultFees.sub(callVars.defaultFees.mul(calConf.feesDiscount).div(100));\n        }\n        // if trader update price, then should enjoy trading discount.\n        if (market.priceUpdater == trader) {\n            callVars.newFees = callVars.newFees.sub(callVars.defaultFees.mul(calConf.updatePriceDiscount).div(100));\n        }\n        callVars.penalty = trade.held.mul(calConf.penaltyRatio).div(10000);\n        callVars.heldAfterFees = trade.held.sub(callVars.penalty).sub(callVars.newFees);\n        callVars.borrows = longToken ? market.pool0.borrowBalanceCurrent(trader) : market.pool1.borrowBalanceCurrent(trader);\n\n        callVars.currentBuyAmount = dexData.isUniV2Class() ?\n        adrConf.dexAggregator.calBuyAmount(longToken ?\n            market.token0 : market.token1, longToken ? market.token1 : market.token0, callVars.heldAfterFees, dexData) :\n        v3Quoter.quoteExactInputSingle(longToken ? market.token1 : market.token0, longToken ? market.token0 : market.token1, dexData.toFee(), callVars.heldAfterFees, 0);\n        callVars.canRepayBorrows = callVars.currentBuyAmount >= callVars.borrows;\n        //flash sell,cal minBuyAmount\n        if (trade.depositToken != longToken || !callVars.canRepayBorrows) {\n            minOrMaxAmount = callVars.currentBuyAmount.sub(callVars.currentBuyAmount.mul(slippage).div(1000));\n            callDexData = dexData.isUniV2Class() ? dexData : abi.encodePacked(dexData, hex\"01\");\n        }\n        // flash buy,cal maxSellAmount\n        else {\n            callVars.currentSellAmount = dexData.isUniV2Class() ?\n            adrConf.dexAggregator.calSellAmount(longToken ?\n                market.token0 : market.token1, longToken ? market.token1 : market.token0, callVars.borrows, dexData) :\n            v3Quoter.quoteExactOutputSingle(longToken ? market.token1 : market.token0, longToken ? market.token0 : market.token1, dexData.toFee(), callVars.borrows, 0);\n            minOrMaxAmount = callVars.currentSellAmount.add(callVars.currentSellAmount.mul(slippage).div(1000));\n            callDexData = dexData.isUniV2Class() ? dexData : abi.encodePacked(dexData, hex\"00\");\n        }\n    }\n\n    function getPoolDetails(IOpenLev openLev, uint16[] calldata marketIds, LPoolInterface[] calldata pools) external view returns (PoolVars[] memory results){\n        results = new PoolVars[](pools.length);\n        for (uint i = 0; i < pools.length; i++) {\n            LPoolInterface pool = pools[i];\n            IOpenLev.MarketVar memory market = openLev.markets(marketIds[i]);\n            PoolVars memory item;\n            item.insurance = address(market.pool0) == address(pool) ? market.pool0Insurance : market.pool1Insurance;\n            item.cash = pool.getCash();\n            item.totalBorrows = pool.totalBorrowsCurrent();\n            item.totalReserves = pool.totalReserves();\n            item.availableForBorrow = pool.availableForBorrow();\n            item.supplyRatePerBlock = pool.supplyRatePerBlock();\n            item.borrowRatePerBlock = pool.borrowRatePerBlock();\n            item.reserveFactorMantissa = pool.reserveFactorMantissa();\n            item.exchangeRate = pool.exchangeRateStored();\n            item.baseRatePerBlock = pool.baseRatePerBlock();\n            item.multiplierPerBlock = pool.multiplierPerBlock();\n            item.jumpMultiplierPerBlock = pool.jumpMultiplierPerBlock();\n            item.kink = pool.kink();\n            results[i] = item;\n        }\n        return results;\n    }\n\n    function getXOLEDetail(IXOLE xole, IERC20 balanceOfToken) external view returns (XOLEVars memory vars){\n        vars.totalStaked = xole.totalLocked();\n        vars.totalShared = xole.totalRewarded();\n        vars.tranferedToAccount = xole.withdrewReward();\n        vars.devFund = xole.devFund();\n        if (address(0) != address(balanceOfToken)) {\n            vars.balanceOf = balanceOfToken.balanceOf(address(xole));\n        }\n    }\n}\n\ninterface IXOLE {\n    function totalLocked() external view returns (uint256);\n\n    function totalRewarded() external view returns (uint256);\n\n    function withdrewReward() external view returns (uint256);\n\n    function devFund() external view returns (uint256);\n\n    function balanceOf(address addr) external view returns (uint256);\n\n\n}\n\ninterface DexAggregatorInterface {\n    function calBuyAmount(address buyToken, address sellToken, uint sellAmount, bytes memory data) external view returns (uint);\n\n    function calSellAmount(address buyToken, address sellToken, uint buyAmount, bytes memory data) external view returns (uint);\n\n    function getPriceCAvgPriceHAvgPrice(address desToken, address quoteToken, uint32 secondsAgo, bytes memory dexData) external view returns (uint price, uint cAvgPrice, uint256 hAvgPrice, uint8 decimals, uint256 timestamp);\n\n}\n\ninterface IV3Quoter {\n    function quoteExactInputSingle(\n        address tokenIn,\n        address tokenOut,\n        uint24 fee,\n        uint256 amountIn,\n        uint160 sqrtPriceLimitX96\n    ) external returns (uint256 amountOut);\n\n    function quoteExactOutputSingle(\n        address tokenIn,\n        address tokenOut,\n        uint24 fee,\n        uint256 amountOut,\n        uint160 sqrtPriceLimitX96\n    ) external returns (uint256 amountIn);\n}\n\ninterface IOpenLev {\n    struct MarketVar {// Market info\n        LPoolInterface pool0;       // Lending Pool 0\n        LPoolInterface pool1;       // Lending Pool 1\n        address token0;              // Lending Token 0\n        address token1;              // Lending Token 1\n        uint16 marginLimit;         // Margin ratio limit for specific trading pair. Two decimal in percentage, ex. 15.32% => 1532\n        uint16 feesRate;            // feesRate 30=>0.3%\n        uint16 priceDiffientRatio;\n        address priceUpdater;\n        uint pool0Insurance;        // Insurance balance for token 0\n        uint pool1Insurance;        // Insurance balance for token 1\n    }\n\n    struct AddressConfig {\n        DexAggregatorInterface dexAggregator;\n        address controller;\n        address wETH;\n        address xOLE;\n    }\n\n    struct CalculateConfig {\n        uint16 defaultFeesRate; // 30 =>0.003\n        uint8 insuranceRatio; // 33=>33%\n        uint16 defaultMarginLimit; // 3000=>30%\n        uint16 priceDiffientRatio; //10=>10%\n        uint16 updatePriceDiscount;//25=>25%\n        uint16 feesDiscount; // 25=>25%\n        uint128 feesDiscountThreshold; //  30 * (10 ** 18) minimal holding of xOLE to enjoy fees discount\n        uint16 penaltyRatio;//100=>1%\n        uint8 maxLiquidationPriceDiffientRatio;//30=>30%\n        uint16 twapDuration;//28=>28s\n    }\n\n    function activeTrades(address owner, uint16 marketId, bool longToken) external view returns (Types.Trade memory);\n\n    function marginRatio(address owner, uint16 marketId, bool longToken, bytes memory dexData) external view returns (uint current, uint cAvg, uint hAvg, uint32 limit);\n\n    function markets(uint16 marketId) external view returns (MarketVar memory);\n\n    function getMarketSupportDexs(uint16 marketId) external view returns (uint32[] memory);\n\n    function addressConfig() external view returns (AddressConfig memory);\n\n    function getCalculateConfig() external view returns (CalculateConfig memory);\n\n    function updatePrice(uint16 marketId, bytes memory dexData) external;\n\n}\n",
  "sourcePath": "/home/mingyue/Smartian/Web3Bugs/contracts/72/openleverage-contracts/contracts/periphery/QueryHelper.sol",
  "compiler": {
    "name": "solc",
    "version": "0.7.6+commit.7338295f.Emscripten.clang"
  },
  "schemaVersion": "3.4.16",
  "updatedAt": "2025-02-26T03:48:00.026Z",
  "devdoc": {
    "kind": "dev",
    "methods": {},
    "version": 1
  },
  "userdoc": {
    "kind": "user",
    "methods": {},
    "version": 1
  }
}