{
  "contractName": "Reserve",
  "abi": [
    {
      "inputs": [
        {
          "internalType": "address payable",
          "name": "_admin",
          "type": "address"
        },
        {
          "internalType": "contract IERC20",
          "name": "_oleToken",
          "type": "address"
        }
      ],
      "stateMutability": "nonpayable",
      "type": "constructor"
    },
    {
      "anonymous": false,
      "inputs": [
        {
          "indexed": false,
          "internalType": "address",
          "name": "oldAdmin",
          "type": "address"
        },
        {
          "indexed": false,
          "internalType": "address",
          "name": "newAdmin",
          "type": "address"
        }
      ],
      "name": "NewAdmin",
      "type": "event"
    },
    {
      "anonymous": false,
      "inputs": [
        {
          "indexed": false,
          "internalType": "address",
          "name": "oldPendingAdmin",
          "type": "address"
        },
        {
          "indexed": false,
          "internalType": "address",
          "name": "newPendingAdmin",
          "type": "address"
        }
      ],
      "name": "NewPendingAdmin",
      "type": "event"
    },
    {
      "anonymous": false,
      "inputs": [
        {
          "indexed": false,
          "internalType": "address",
          "name": "to",
          "type": "address"
        },
        {
          "indexed": false,
          "internalType": "uint256",
          "name": "amount",
          "type": "uint256"
        }
      ],
      "name": "TransferTo",
      "type": "event"
    },
    {
      "inputs": [],
      "name": "acceptAdmin",
      "outputs": [],
      "stateMutability": "nonpayable",
      "type": "function"
    },
    {
      "inputs": [],
      "name": "admin",
      "outputs": [
        {
          "internalType": "address payable",
          "name": "",
          "type": "address"
        }
      ],
      "stateMutability": "view",
      "type": "function"
    },
    {
      "inputs": [],
      "name": "developer",
      "outputs": [
        {
          "internalType": "address payable",
          "name": "",
          "type": "address"
        }
      ],
      "stateMutability": "view",
      "type": "function"
    },
    {
      "inputs": [],
      "name": "oleToken",
      "outputs": [
        {
          "internalType": "contract IERC20",
          "name": "",
          "type": "address"
        }
      ],
      "stateMutability": "view",
      "type": "function"
    },
    {
      "inputs": [],
      "name": "pendingAdmin",
      "outputs": [
        {
          "internalType": "address payable",
          "name": "",
          "type": "address"
        }
      ],
      "stateMutability": "view",
      "type": "function"
    },
    {
      "inputs": [
        {
          "internalType": "address payable",
          "name": "newPendingAdmin",
          "type": "address"
        }
      ],
      "name": "setPendingAdmin",
      "outputs": [],
      "stateMutability": "nonpayable",
      "type": "function"
    },
    {
      "inputs": [
        {
          "internalType": "address",
          "name": "to",
          "type": "address"
        },
        {
          "internalType": "uint256",
          "name": "amount",
          "type": "uint256"
        }
      ],
      "name": "transfer",
      "outputs": [],
      "stateMutability": "nonpayable",
      "type": "function"
    }
  ],
  "bytecode": "0x608060405234801561001057600080fd5b5060405161065e38038061065e8339818101604052604081101561003357600080fd5b508051602090910151600280546001600160a01b031916331790556001600160a01b0382166100a9576040805162461bcd60e51b815260206004820152601a60248201527f5f61646d696e20616464726573732063616e6e6f742062652030000000000000604482015290519081900360640190fd5b6001600160a01b038116610104576040805162461bcd60e51b815260206004820152601d60248201527f5f6f6c65546f6b656e20616464726573732063616e6e6f742062652030000000604482015290519081900360640190fd5b600080546001600160a01b039384166001600160a01b0319918216179091556003805492909316911617905561051f8061013f6000396000f3fe608060405234801561001057600080fd5b506004361061007d5760003560e01c806353e083a81161005b57806353e083a8146100d6578063a9059cbb146100de578063ca4b208b1461010a578063f851a440146101125761007d565b80630e18b68114610082578063267822471461008c5780634dd18bf5146100b0575b600080fd5b61008a61011a565b005b61009461021a565b604080516001600160a01b039092168252519081900360200190f35b61008a600480360360208110156100c657600080fd5b50356001600160a01b0316610229565b6100946102e2565b61008a600480360360408110156100f457600080fd5b506001600160a01b0381351690602001356102f1565b6100946104a9565b6100946104b8565b6001546001600160a01b031633146101635760405162461bcd60e51b81526004018080602001828103825260228152602001806104c86022913960400191505060405180910390fd5b60008054600180546001600160a01b038082166001600160a01b031980861682179687905590921690925560408051938316808552949092166020840152815190927ff9ffabca9c8276e99321725bcb43fb076a6c66a54b7f21c4e8146d8519b417dc92908290030190a1600154604080516001600160a01b038085168252909216602083015280517fca4f2f25d0898edd99413412fb94012f9e54ec8142f9b093e7720646a95b16a99281900390910190a15050565b6001546001600160a01b031681565b6000546001600160a01b0316331461027f576040805162461bcd60e51b815260206004820152601460248201527331b0b63632b91036bab9ba1031329030b236b4b760611b604482015290519081900360640190fd5b600180546001600160a01b038381166001600160a01b0319831681179093556040805191909216808252602082019390935281517fca4f2f25d0898edd99413412fb94012f9e54ec8142f9b093e7720646a95b16a9929181900390910190a15050565b6003546001600160a01b031681565b6000546001600160a01b03163314610347576040805162461bcd60e51b815260206004820152601460248201527331b0b63632b91036bab9ba1031329030b236b4b760611b604482015290519081900360640190fd5b6001600160a01b03821661039b576040805162461bcd60e51b81526020600482015260166024820152750746f20616464726573732063616e6e6f7420626520360541b604482015290519081900360640190fd5b600081116103df576040805162461bcd60e51b815260206004820152600c60248201526b616d6f756e7420697320302160a01b604482015290519081900360640190fd5b6003546040805163a9059cbb60e01b81526001600160a01b038581166004830152602482018590529151919092169163a9059cbb9160448083019260209291908290030181600087803b15801561043557600080fd5b505af1158015610449573d6000803e3d6000fd5b505050506040513d602081101561045f57600080fd5b5050604080516001600160a01b03841681526020810183905281517f845850991963cc258a0464dadcae66e59e72e9883beb28e5ea89a547df58eaff929181900390910190a15050565b6002546001600160a01b031681565b6000546001600160a01b03168156fe6f6e6c792070656e64696e6741646d696e2063616e206163636570742061646d696ea2646970667358221220153b0a162cce0d31977fdec1fd44966fca066f2d9b5b790c0732800ea0b66b3864736f6c63430007060033",
  "immutableReferences": {},
  "source": "// SPDX-License-Identifier: BUSL-1.1\n\npragma solidity 0.7.6;\n\nimport \"@openzeppelin/contracts/token/ERC20/IERC20.sol\";\nimport \"@openzeppelin/contracts/math/SafeMath.sol\";\nimport \"./Adminable.sol\";\n\n/// @title Total reserves of OLE\n/// @author OpenLeverage\n/// @notice OLE token not distributed \n/// @dev Admin of this contract is the address of Timelock.\ncontract Reserve is Adminable {\n    IERC20 public oleToken;\n    using SafeMath for uint;\n\n    event TransferTo(address to, uint amount);\n\n    constructor (\n        address payable _admin,\n        IERC20 _oleToken\n    ) {\n        require(_admin != address(0), \"_admin address cannot be 0\");\n        require(address(_oleToken) != address(0), \"_oleToken address cannot be 0\");\n\n        admin = _admin;\n        oleToken = _oleToken;\n    }\n\n    function transfer(address to, uint amount) external onlyAdmin {\n        require(to != address(0), \"to address cannot be 0\");\n        require(amount > 0, \"amount is 0!\");\n        oleToken.transfer(to, amount);\n        emit TransferTo(to, amount);\n    }\n}\n",
  "sourcePath": "/home/mingyue/Smartian/Web3Bugs/contracts/72/openleverage-contracts/contracts/Reserve.sol",
  "compiler": {
    "name": "solc",
    "version": "0.7.6+commit.7338295f.Emscripten.clang"
  },
  "schemaVersion": "3.4.16",
  "updatedAt": "2025-02-26T03:47:59.422Z",
  "devdoc": {
    "author": "OpenLeverage",
    "details": "Admin of this contract is the address of Timelock.",
    "kind": "dev",
    "methods": {},
    "title": "Total reserves of OLE",
    "version": 1
  },
  "userdoc": {
    "kind": "user",
    "methods": {},
    "notice": "OLE token not distributed ",
    "version": 1
  }
}