{
  "contractName": "UniV3Dex",
  "abi": [
    {
      "inputs": [],
      "name": "uniV3Factory",
      "outputs": [
        {
          "internalType": "contract IUniswapV3Factory",
          "name": "",
          "type": "address"
        }
      ],
      "stateMutability": "view",
      "type": "function"
    },
    {
      "inputs": [
        {
          "internalType": "int256",
          "name": "amount0Delta",
          "type": "int256"
        },
        {
          "internalType": "int256",
          "name": "amount1Delta",
          "type": "int256"
        },
        {
          "internalType": "bytes",
          "name": "_data",
          "type": "bytes"
        }
      ],
      "name": "uniswapV3SwapCallback",
      "outputs": [],
      "stateMutability": "nonpayable",
      "type": "function"
    }
  ],
  "bytecode": "0x608060405234801561001057600080fd5b50610b78806100206000396000f3fe608060405234801561001057600080fd5b50600436106100365760003560e01c8063705e474b1461003b578063fa461e3314610059575b600080fd5b61004361006e565b6040516100509190610ac7565b60405180910390f35b61006c610067366004610997565b61007d565b005b6000546001600160a01b031681565b600084138061008c5750600083135b61009557600080fd5b60006100a382840184610a12565b90506100bc816000015182602001518360400151610171565b6001600160a01b0316336001600160a01b0316146100f55760405162461bcd60e51b81526004016100ec90610adb565b60405180910390fd5b600061011582608001516000881361010d578661010f565b875b9061024b565b60608301519091506001600160a01b0316301415610149578151610143906001600160a01b0316338361029d565b50610169565b60608201518251610167916001600160a01b039091169033846104c5565b505b505050505050565b600080546001600160a01b0316731f98431c8ad98523631ae4a59f267346ea31f98414156101c0576000546101b9906001600160a01b03166101b48686866106f9565b61074f565b9050610244565b600054604051630b4c774160e11b81526001600160a01b0390911690631698ee82906101f490879087908790600401610a9f565b60206040518083038186803b15801561020c57600080fd5b505afa158015610220573d6000803e3d6000fd5b505050506040513d601f19601f820116820180604052508101906101b9919061097b565b9392505050565b600080610260620f424062ffffff8516610833565b9050600061028660016102808461027a89620f4240610890565b906108e9565b90610833565b905081818161029157fe5b04925050505b92915050565b60008115610244576000846001600160a01b03166370a08231856040518263ffffffff1660e01b815260040180826001600160a01b0316815260200191505060206040518083038186803b1580156102f457600080fd5b505afa158015610308573d6000803e3d6000fd5b505050506040513d602081101561031e57600080fd5b5051604080516001600160a01b038781166024830152604480830188905283518084039091018152606490920183526020820180516001600160e01b031663a9059cbb60e01b1781529251825194955090891693919290918291908083835b6020831061039c5780518252601f19909201916020918201910161037d565b6001836020036101000a0380198251168184511680821785525050505050509050019150506000604051808303816000865af19150503d80600081146103fe576040519150601f19603f3d011682016040523d82523d6000602084013e610403565b606091505b5050506000856001600160a01b03166370a08231866040518263ffffffff1660e01b815260040180826001600160a01b0316815260200191505060206040518083038186803b15801561045557600080fd5b505afa158015610469573d6000803e3d6000fd5b505050506040513d602081101561047f57600080fd5b505190508181116104bc576040805162461bcd60e51b81526020600482015260026024820152612a2360f11b604482015290519081900360640190fd5b03949350505050565b600081156106f1576000856001600160a01b03166370a08231856040518263ffffffff1660e01b815260040180826001600160a01b0316815260200191505060206040518083038186803b15801561051c57600080fd5b505afa158015610530573d6000803e3d6000fd5b505050506040513d602081101561054657600080fd5b5051604080516001600160a01b0388811660248301528781166044830152606480830188905283518084039091018152608490920183526020820180516001600160e01b03166323b872dd60e01b17815292518251949550908a1693919290918291908083835b602083106105cc5780518252601f1990920191602091820191016105ad565b6001836020036101000a0380198251168184511680821785525050505050509050019150506000604051808303816000865af19150503d806000811461062e576040519150601f19603f3d011682016040523d82523d6000602084013e610633565b606091505b5050506000866001600160a01b03166370a08231866040518263ffffffff1660e01b815260040180826001600160a01b0316815260200191505060206040518083038186803b15801561068557600080fd5b505afa158015610699573d6000803e3d6000fd5b505050506040513d60208110156106af57600080fd5b505190508181116106ed576040805162461bcd60e51b81526020600482015260036024820152622a232360e91b604482015290519081900360640190fd5b0390505b949350505050565b610701610943565b826001600160a01b0316846001600160a01b0316111561071f579192915b50604080516060810182526001600160a01b03948516815292909316602083015262ffffff169181019190915290565b600081602001516001600160a01b031682600001516001600160a01b03161061077757600080fd5b50805160208083015160409384015184516001600160a01b0394851681850152939091168385015262ffffff166060808401919091528351808403820181526080840185528051908301206001600160f81b031960a085015294901b6bffffffffffffffffffffffff191660a183015260b58201939093527fe34f199b19b2b4f47f68442619d555527d244f78a3297ea89325f843f87b8b5460d5808301919091528251808303909101815260f5909101909152805191012090565b60008282111561088a576040805162461bcd60e51b815260206004820152601e60248201527f536166654d6174683a207375627472616374696f6e206f766572666c6f770000604482015290519081900360640190fd5b50900390565b60008261089f57506000610297565b828202828482816108ac57fe5b04146102445760405162461bcd60e51b8152600401808060200182810382526021815260200180610b226021913960400191505060405180910390fd5b600082820183811015610244576040805162461bcd60e51b815260206004820152601b60248201527f536166654d6174683a206164646974696f6e206f766572666c6f770000000000604482015290519081900360640190fd5b604080516060810182526000808252602082018190529181019190915290565b803562ffffff8116811461097657600080fd5b919050565b60006020828403121561098c578081fd5b815161024481610b09565b600080600080606085870312156109ac578283fd5b8435935060208501359250604085013567ffffffffffffffff808211156109d1578384fd5b818701915087601f8301126109e4578384fd5b8135818111156109f2578485fd5b886020828501011115610a03578485fd5b95989497505060200194505050565b600060a08284031215610a23578081fd5b60405160a0810181811067ffffffffffffffff82111715610a4057fe5b6040528235610a4e81610b09565b81526020830135610a5e81610b09565b6020820152610a6f60408401610963565b60408201526060830135610a8281610b09565b6060820152610a9360808401610963565b60808201529392505050565b6001600160a01b03938416815291909216602082015262ffffff909116604082015260600190565b6001600160a01b0391909116815260200190565b602080825260149082015273158cc818d85b1b08189858dac81a5b9d985b1a5960621b604082015260600190565b6001600160a01b0381168114610b1e57600080fd5b5056fe536166654d6174683a206d756c7469706c69636174696f6e206f766572666c6f77a2646970667358221220738f25b31239f00ccf81808295af10760c7de5c9288d31568165660e367ede7864736f6c63430007060033",
  "immutableReferences": {},
  "source": "// SPDX-License-Identifier: BUSL-1.1\npragma solidity 0.7.6;\npragma abicoder v2;\n\nimport \"@openzeppelin/contracts/math/SafeMath.sol\";\nimport \"@openzeppelin/contracts/token/ERC20/IERC20.sol\";\nimport \"@uniswap/v3-core/contracts/interfaces/callback/IUniswapV3SwapCallback.sol\";\nimport \"@uniswap/v3-core/contracts/interfaces/IUniswapV3Factory.sol\";\nimport \"@uniswap/v3-core/contracts/interfaces/IUniswapV3Pool.sol\";\nimport \"@uniswap/v3-periphery/contracts/libraries/PoolAddress.sol\";\nimport '@uniswap/v3-core/contracts/libraries/SafeCast.sol';\nimport '@uniswap/v3-core/contracts/libraries/TickMath.sol';\nimport \"../../lib/DexData.sol\";\nimport \"../../lib/TransferHelper.sol\";\nimport \"../../lib/Utils.sol\";\n\n\ncontract UniV3Dex is IUniswapV3SwapCallback {\n    using SafeMath for uint;\n    using TransferHelper for IERC20;\n    using SafeCast for uint256;\n    using Utils for uint256;\n    IUniswapV3Factory public  uniV3Factory;\n    uint16 private constant observationSize = 12;\n\n    struct SwapCallData {\n        IUniswapV3Pool pool;\n        address recipient;\n        bool zeroForOne;\n        int256 amountSpecified;\n        uint160 sqrtPriceLimitX96;\n    }\n\n    struct SwapCallbackData {\n        address tokenIn;\n        address tokenOut;\n        uint24 fee;\n        address payer;\n        uint24 transferFeeRate;\n    }\n\n    function initializeUniV3(\n        IUniswapV3Factory _uniV3Factory\n    ) internal {\n        uniV3Factory = _uniV3Factory;\n    }\n\n    function uniV3Sell(address buyToken, address sellToken, uint24 sellTax, uint24 buyTax, uint sellAmount, uint minBuyAmount, uint24 fee, bool checkPool, address payer, address payee) internal returns (uint amountOut){\n        // to slience warning\n        buyTax;\n        SwapCallbackData memory data = SwapCallbackData({tokenIn : sellToken, tokenOut : buyToken, fee : fee, payer : payer, transferFeeRate: sellTax});\n        SwapCallData memory callData;\n        callData.zeroForOne = data.tokenIn < data.tokenOut;\n        callData.recipient = payee;\n        callData.amountSpecified = sellAmount.toInt256();\n        callData.sqrtPriceLimitX96 = getSqrtPriceLimitX96(callData.zeroForOne);\n        callData.pool = getPool(data.tokenIn, data.tokenOut, fee);\n        if (checkPool) {\n            require(isPoolObservationsEnough(callData.pool), \"Pool observations not enough\");\n        }\n        (int256 amount0, int256 amount1) =\n        callData.pool.swap(\n            callData.recipient,\n            callData.zeroForOne,\n            callData.amountSpecified,\n            callData.sqrtPriceLimitX96,\n            abi.encode(data)\n        );\n        amountOut = uint256(- (callData.zeroForOne ? amount1 : amount0));\n        require(amountOut >= minBuyAmount, 'buy amount less than min');\n        require(sellAmount == uint256(callData.zeroForOne ? amount0 : amount1), 'Cannot sell all');\n    }\n\n    function uniV3SellMul(uint sellAmount, uint minBuyAmount, DexData.V3PoolData[] memory path) internal returns (uint buyAmount){\n        for (uint i = 0; i < path.length; i++) {\n            DexData.V3PoolData memory poolData = path[i];\n            address buyToken = poolData.tokenB;\n            address sellToken = poolData.tokenA;\n            bool isLast = i == path.length - 1;\n            address payer = i == 0 ? msg.sender : address(this);\n            address payee = isLast ? msg.sender : address(this);\n            buyAmount = uniV3Sell(buyToken, sellToken, 0, 0, sellAmount, 0, poolData.fee, false, payer, payee);\n            if (!isLast) {\n                sellAmount = buyAmount;\n            }\n        }\n        require(buyAmount >= minBuyAmount, 'buy amount less than min');\n    }\n\n    function uniV3Buy(address buyToken, address sellToken, uint buyAmount, uint maxSellAmount, uint24 fee, bool checkPool, uint24 buyTokenFeeRate, uint24 sellTokenFeeRate) internal returns (uint amountIn){\n        SwapCallbackData memory data = SwapCallbackData({tokenIn : sellToken, tokenOut : buyToken, fee : fee, payer : msg.sender, transferFeeRate: sellTokenFeeRate});\n        bool zeroForOne = data.tokenIn < data.tokenOut;\n        IUniswapV3Pool pool = getPool(data.tokenIn, data.tokenOut, fee);\n        if (checkPool) {\n            require(isPoolObservationsEnough(pool), \"Pool observations not enough\");\n        }\n\n        buyAmount = buyAmount.toAmountBeforeTax(buyTokenFeeRate);\n        int buyAmountInt = - buyAmount.toInt256();\n\n        (int256 amount0Delta, int256 amount1Delta) =\n        pool.swap(\n            data.payer,\n            zeroForOne,\n            buyAmountInt,\n            getSqrtPriceLimitX96(zeroForOne),\n            abi.encode(data)\n        );\n\n        uint256 amountOutReceived;\n        (amountIn, amountOutReceived) = zeroForOne\n        ? (uint256(amount0Delta), uint256(- amount1Delta))\n        : (uint256(amount1Delta), uint256(- amount0Delta));\n        require(amountOutReceived == buyAmount, 'Cannot buy enough');\n        require(amountIn <= maxSellAmount, 'sell amount not enough');\n    }\n\n\n    function uniV3GetPrice(address desToken, address quoteToken, uint8 decimals, uint24 fee) internal view returns (uint256 price, IUniswapV3Pool pool){\n        pool = getPool(desToken, quoteToken, fee);\n        (uint160 sqrtPriceX96,,,,,,) = pool.slot0();\n        price = getPriceBySqrtPriceX96(desToken, quoteToken, sqrtPriceX96, decimals);\n    }\n\n    function uniV3GetAvgPrice(address desToken, address quoteToken, uint32 secondsAgo, uint8 decimals, uint24 fee) internal view returns (uint256 price, uint256 timestamp, IUniswapV3Pool pool){\n        require(secondsAgo > 0, \"SecondsAgo must >0\");\n        pool = getPool(desToken, quoteToken, fee);\n        price = calcAvgPrice(pool, desToken, quoteToken, secondsAgo, decimals);\n        timestamp = block.timestamp.sub(secondsAgo);\n    }\n\n    function uniV3GetPriceCAvgPriceHAvgPrice(address desToken, address quoteToken, uint32 secondsAgo, uint8 decimals, uint24 fee) internal view returns (uint price, uint cAvgPrice, uint256 hAvgPrice, uint256 timestamp){\n        IUniswapV3Pool pool;\n        (price, pool) = uniV3GetPrice(desToken, quoteToken, decimals, fee);\n        (cAvgPrice, hAvgPrice) = calcAvgPrices(pool, desToken, quoteToken, secondsAgo / 2, secondsAgo, decimals);\n        timestamp = block.timestamp.sub(secondsAgo);\n    }\n\n    function increaseV3Observation(address desToken, address quoteToken, uint24 fee) internal {\n        getPool(desToken, quoteToken, fee).increaseObservationCardinalityNext(observationSize);\n    }\n\n    function getPriceBySqrtPriceX96(address desToken, address quoteToken, uint160 sqrtPriceX96, uint8 decimals) internal pure returns (uint256){\n        uint priceScale = 10 ** decimals;\n        // maximum2**\n        uint token0Price;\n        // when sqrtPrice>1  retain 4 decimals\n        if (sqrtPriceX96 > (2 ** 96)) {\n            token0Price = (uint(sqrtPriceX96) >> (86)).mul((uint(sqrtPriceX96) >> (86))).mul(priceScale) >> (10 * 2);\n        } else {\n            token0Price = uint(sqrtPriceX96).mul(uint(sqrtPriceX96)).mul(priceScale) >> (96 * 2);\n        }\n        if (desToken < quoteToken) {\n            return token0Price;\n        } else {\n            return uint(priceScale).mul(priceScale).div(token0Price);\n        }\n    }\n\n    function uniswapV3SwapCallback(\n        int256 amount0Delta,\n        int256 amount1Delta,\n        bytes calldata _data\n    ) external override {\n        require(amount0Delta > 0 || amount1Delta > 0);\n        SwapCallbackData memory data = abi.decode(_data, (SwapCallbackData));\n        require(msg.sender == address(getPool(data.tokenIn, data.tokenOut, data.fee)), \"V3 call back invalid\");\n        uint256 amountToPay = uint256(amount0Delta > 0 ? amount0Delta : amount1Delta).toAmountBeforeTax(data.transferFeeRate);\n        if (data.payer == address(this)) {\n            IERC20(data.tokenIn).safeTransfer(msg.sender, amountToPay);\n        } else {\n            IERC20(data.tokenIn).safeTransferFrom(data.payer, msg.sender, amountToPay);\n        }\n    }\n\n    function calcAvgPrice(IUniswapV3Pool pool, address desToken, address quoteToken, uint32 secondsAgo, uint8 decimals) internal view returns (uint price){\n        uint32[] memory secondsAgos = new uint32[](2);\n        secondsAgos[0] = 0;\n        secondsAgos[1] = secondsAgo;\n        (int56[] memory tickCumulatives1,) = pool.observe(secondsAgos);\n        int24 avgTick = int24(((tickCumulatives1[0] - tickCumulatives1[1]) / (secondsAgo)));\n        uint160 sqrtPriceX96 = TickMath.getSqrtRatioAtTick(avgTick);\n        price = getPriceBySqrtPriceX96(desToken, quoteToken, sqrtPriceX96, decimals);\n    }\n\n    function calcAvgPrices(IUniswapV3Pool pool, address desToken, address quoteToken, uint32 second1, uint32 second2, uint8 decimals) internal view returns (uint price1, uint price2){\n        uint32[] memory secondsAgos = new uint32[](3);\n        secondsAgos[0] = 0;\n        secondsAgos[1] = second1;\n        secondsAgos[2] = second2;\n        (int56[] memory tickCumulatives,) = pool.observe(secondsAgos);\n        int24 avgTick1 = int24(((tickCumulatives[0] - tickCumulatives[1]) / (second1)));\n        uint160 sqrtPriceX961 = TickMath.getSqrtRatioAtTick(avgTick1);\n        price1 = getPriceBySqrtPriceX96(desToken, quoteToken, sqrtPriceX961, decimals);\n        int24 avgTick2 = int24(((tickCumulatives[1] - tickCumulatives[2]) / (second2 - second1)));\n        uint160 sqrtPriceX962 = TickMath.getSqrtRatioAtTick(avgTick2);\n        price2 = getPriceBySqrtPriceX96(desToken, quoteToken, sqrtPriceX962, decimals);\n    }\n\n    function getSqrtPriceLimitX96(bool zeroForOne) internal pure returns (uint160) {\n        return zeroForOne ? TickMath.MIN_SQRT_RATIO + 1 : TickMath.MAX_SQRT_RATIO - 1;\n    }\n\n    function getPool(\n        address tokenA,\n        address tokenB,\n        uint24 fee\n    ) internal view returns (IUniswapV3Pool) {\n        if (address(uniV3Factory) == 0x1F98431c8aD98523631AE4a59f267346ea31F984) {\n            return IUniswapV3Pool(PoolAddress.computeAddress(address(uniV3Factory) , PoolAddress.getPoolKey(tokenA, tokenB, fee)));\n        } else {\n            return IUniswapV3Pool(uniV3Factory.getPool(tokenA, tokenB, fee));\n        }\n    }\n\n    function isPoolObservationsEnough(IUniswapV3Pool pool) internal view returns (bool){\n        (,,,,uint16 count,,) = pool.slot0();\n        return count >= observationSize;\n    }\n\n}",
  "sourcePath": "/home/mingyue/Smartian/Web3Bugs/contracts/72/openleverage-contracts/contracts/dex/eth/UniV3Dex.sol",
  "compiler": {
    "name": "solc",
    "version": "0.7.6+commit.7338295f.Emscripten.clang"
  },
  "schemaVersion": "3.4.16",
  "updatedAt": "2025-02-26T03:47:59.494Z",
  "devdoc": {
    "kind": "dev",
    "methods": {},
    "version": 1
  },
  "userdoc": {
    "kind": "user",
    "methods": {},
    "version": 1
  }
}