{
  "contractName": "UpgradeLPoolV2",
  "abi": [
    {
      "anonymous": false,
      "inputs": [
        {
          "indexed": false,
          "internalType": "uint256",
          "name": "cashPrior",
          "type": "uint256"
        },
        {
          "indexed": false,
          "internalType": "uint256",
          "name": "interestAccumulated",
          "type": "uint256"
        },
        {
          "indexed": false,
          "internalType": "uint256",
          "name": "borrowIndex",
          "type": "uint256"
        },
        {
          "indexed": false,
          "internalType": "uint256",
          "name": "totalBorrows",
          "type": "uint256"
        }
      ],
      "name": "AccrueInterest",
      "type": "event"
    },
    {
      "anonymous": false,
      "inputs": [
        {
          "indexed": true,
          "internalType": "address",
          "name": "owner",
          "type": "address"
        },
        {
          "indexed": true,
          "internalType": "address",
          "name": "spender",
          "type": "address"
        },
        {
          "indexed": false,
          "internalType": "uint256",
          "name": "amount",
          "type": "uint256"
        }
      ],
      "name": "Approval",
      "type": "event"
    },
    {
      "anonymous": false,
      "inputs": [
        {
          "indexed": false,
          "internalType": "address",
          "name": "borrower",
          "type": "address"
        },
        {
          "indexed": false,
          "internalType": "address",
          "name": "payee",
          "type": "address"
        },
        {
          "indexed": false,
          "internalType": "uint256",
          "name": "borrowAmount",
          "type": "uint256"
        },
        {
          "indexed": false,
          "internalType": "uint256",
          "name": "accountBorrows",
          "type": "uint256"
        },
        {
          "indexed": false,
          "internalType": "uint256",
          "name": "totalBorrows",
          "type": "uint256"
        }
      ],
      "name": "Borrow",
      "type": "event"
    },
    {
      "anonymous": false,
      "inputs": [
        {
          "indexed": false,
          "internalType": "address",
          "name": "minter",
          "type": "address"
        },
        {
          "indexed": false,
          "internalType": "uint256",
          "name": "mintAmount",
          "type": "uint256"
        },
        {
          "indexed": false,
          "internalType": "uint256",
          "name": "mintTokens",
          "type": "uint256"
        }
      ],
      "name": "Mint",
      "type": "event"
    },
    {
      "anonymous": false,
      "inputs": [
        {
          "indexed": false,
          "internalType": "address",
          "name": "oldAdmin",
          "type": "address"
        },
        {
          "indexed": false,
          "internalType": "address",
          "name": "newAdmin",
          "type": "address"
        }
      ],
      "name": "NewAdmin",
      "type": "event"
    },
    {
      "anonymous": false,
      "inputs": [
        {
          "indexed": false,
          "internalType": "uint256",
          "name": "oldBorrowCapFactorMantissa",
          "type": "uint256"
        },
        {
          "indexed": false,
          "internalType": "uint256",
          "name": "newBorrowCapFactorMantissa",
          "type": "uint256"
        }
      ],
      "name": "NewBorrowCapFactorMantissa",
      "type": "event"
    },
    {
      "anonymous": false,
      "inputs": [
        {
          "indexed": false,
          "internalType": "address",
          "name": "oldController",
          "type": "address"
        },
        {
          "indexed": false,
          "internalType": "address",
          "name": "newController",
          "type": "address"
        }
      ],
      "name": "NewController",
      "type": "event"
    },
    {
      "anonymous": false,
      "inputs": [
        {
          "indexed": false,
          "internalType": "uint256",
          "name": "baseRatePerBlock",
          "type": "uint256"
        },
        {
          "indexed": false,
          "internalType": "uint256",
          "name": "multiplierPerBlock",
          "type": "uint256"
        },
        {
          "indexed": false,
          "internalType": "uint256",
          "name": "jumpMultiplierPerBlock",
          "type": "uint256"
        },
        {
          "indexed": false,
          "internalType": "uint256",
          "name": "kink",
          "type": "uint256"
        }
      ],
      "name": "NewInterestParam",
      "type": "event"
    },
    {
      "anonymous": false,
      "inputs": [
        {
          "indexed": false,
          "internalType": "address",
          "name": "oldPendingAdmin",
          "type": "address"
        },
        {
          "indexed": false,
          "internalType": "address",
          "name": "newPendingAdmin",
          "type": "address"
        }
      ],
      "name": "NewPendingAdmin",
      "type": "event"
    },
    {
      "anonymous": false,
      "inputs": [
        {
          "indexed": false,
          "internalType": "uint256",
          "name": "oldReserveFactorMantissa",
          "type": "uint256"
        },
        {
          "indexed": false,
          "internalType": "uint256",
          "name": "newReserveFactorMantissa",
          "type": "uint256"
        }
      ],
      "name": "NewReserveFactor",
      "type": "event"
    },
    {
      "anonymous": false,
      "inputs": [
        {
          "indexed": false,
          "internalType": "address",
          "name": "redeemer",
          "type": "address"
        },
        {
          "indexed": false,
          "internalType": "uint256",
          "name": "redeemAmount",
          "type": "uint256"
        },
        {
          "indexed": false,
          "internalType": "uint256",
          "name": "redeemTokens",
          "type": "uint256"
        }
      ],
      "name": "Redeem",
      "type": "event"
    },
    {
      "anonymous": false,
      "inputs": [
        {
          "indexed": false,
          "internalType": "address",
          "name": "payer",
          "type": "address"
        },
        {
          "indexed": false,
          "internalType": "address",
          "name": "borrower",
          "type": "address"
        },
        {
          "indexed": false,
          "internalType": "uint256",
          "name": "repayAmount",
          "type": "uint256"
        },
        {
          "indexed": false,
          "internalType": "uint256",
          "name": "badDebtsAmount",
          "type": "uint256"
        },
        {
          "indexed": false,
          "internalType": "uint256",
          "name": "accountBorrows",
          "type": "uint256"
        },
        {
          "indexed": false,
          "internalType": "uint256",
          "name": "totalBorrows",
          "type": "uint256"
        }
      ],
      "name": "RepayBorrow",
      "type": "event"
    },
    {
      "anonymous": false,
      "inputs": [
        {
          "indexed": false,
          "internalType": "address",
          "name": "benefactor",
          "type": "address"
        },
        {
          "indexed": false,
          "internalType": "uint256",
          "name": "addAmount",
          "type": "uint256"
        },
        {
          "indexed": false,
          "internalType": "uint256",
          "name": "newTotalReserves",
          "type": "uint256"
        }
      ],
      "name": "ReservesAdded",
      "type": "event"
    },
    {
      "anonymous": false,
      "inputs": [
        {
          "indexed": false,
          "internalType": "address",
          "name": "to",
          "type": "address"
        },
        {
          "indexed": false,
          "internalType": "uint256",
          "name": "reduceAmount",
          "type": "uint256"
        },
        {
          "indexed": false,
          "internalType": "uint256",
          "name": "newTotalReserves",
          "type": "uint256"
        }
      ],
      "name": "ReservesReduced",
      "type": "event"
    },
    {
      "anonymous": false,
      "inputs": [
        {
          "indexed": true,
          "internalType": "address",
          "name": "from",
          "type": "address"
        },
        {
          "indexed": true,
          "internalType": "address",
          "name": "to",
          "type": "address"
        },
        {
          "indexed": false,
          "internalType": "uint256",
          "name": "amount",
          "type": "uint256"
        }
      ],
      "name": "Transfer",
      "type": "event"
    },
    {
      "inputs": [],
      "name": "acceptAdmin",
      "outputs": [],
      "stateMutability": "nonpayable",
      "type": "function"
    },
    {
      "inputs": [],
      "name": "accrualBlockNumber",
      "outputs": [
        {
          "internalType": "uint256",
          "name": "",
          "type": "uint256"
        }
      ],
      "stateMutability": "view",
      "type": "function"
    },
    {
      "inputs": [],
      "name": "accrueInterest",
      "outputs": [],
      "stateMutability": "nonpayable",
      "type": "function"
    },
    {
      "inputs": [
        {
          "internalType": "uint256",
          "name": "addAmount",
          "type": "uint256"
        }
      ],
      "name": "addReserves",
      "outputs": [],
      "stateMutability": "nonpayable",
      "type": "function"
    },
    {
      "inputs": [],
      "name": "admin",
      "outputs": [
        {
          "internalType": "address payable",
          "name": "",
          "type": "address"
        }
      ],
      "stateMutability": "view",
      "type": "function"
    },
    {
      "inputs": [
        {
          "internalType": "address",
          "name": "owner",
          "type": "address"
        },
        {
          "internalType": "address",
          "name": "spender",
          "type": "address"
        }
      ],
      "name": "allowance",
      "outputs": [
        {
          "internalType": "uint256",
          "name": "",
          "type": "uint256"
        }
      ],
      "stateMutability": "view",
      "type": "function"
    },
    {
      "inputs": [
        {
          "internalType": "address",
          "name": "spender",
          "type": "address"
        },
        {
          "internalType": "uint256",
          "name": "amount",
          "type": "uint256"
        }
      ],
      "name": "approve",
      "outputs": [
        {
          "internalType": "bool",
          "name": "",
          "type": "bool"
        }
      ],
      "stateMutability": "nonpayable",
      "type": "function"
    },
    {
      "inputs": [],
      "name": "availableForBorrow",
      "outputs": [
        {
          "internalType": "uint256",
          "name": "",
          "type": "uint256"
        }
      ],
      "stateMutability": "view",
      "type": "function"
    },
    {
      "inputs": [
        {
          "internalType": "address",
          "name": "owner",
          "type": "address"
        }
      ],
      "name": "balanceOf",
      "outputs": [
        {
          "internalType": "uint256",
          "name": "",
          "type": "uint256"
        }
      ],
      "stateMutability": "view",
      "type": "function"
    },
    {
      "inputs": [
        {
          "internalType": "address",
          "name": "owner",
          "type": "address"
        }
      ],
      "name": "balanceOfUnderlying",
      "outputs": [
        {
          "internalType": "uint256",
          "name": "",
          "type": "uint256"
        }
      ],
      "stateMutability": "nonpayable",
      "type": "function"
    },
    {
      "inputs": [],
      "name": "baseRatePerBlock",
      "outputs": [
        {
          "internalType": "uint256",
          "name": "",
          "type": "uint256"
        }
      ],
      "stateMutability": "view",
      "type": "function"
    },
    {
      "inputs": [
        {
          "internalType": "address",
          "name": "account",
          "type": "address"
        }
      ],
      "name": "borrowBalanceCurrent",
      "outputs": [
        {
          "internalType": "uint256",
          "name": "",
          "type": "uint256"
        }
      ],
      "stateMutability": "view",
      "type": "function"
    },
    {
      "inputs": [
        {
          "internalType": "address",
          "name": "account",
          "type": "address"
        }
      ],
      "name": "borrowBalanceStored",
      "outputs": [
        {
          "internalType": "uint256",
          "name": "",
          "type": "uint256"
        }
      ],
      "stateMutability": "view",
      "type": "function"
    },
    {
      "inputs": [
        {
          "internalType": "address",
          "name": "borrower",
          "type": "address"
        },
        {
          "internalType": "uint256",
          "name": "borrowAmount",
          "type": "uint256"
        }
      ],
      "name": "borrowBehalf",
      "outputs": [],
      "stateMutability": "nonpayable",
      "type": "function"
    },
    {
      "inputs": [],
      "name": "borrowCapFactorMantissa",
      "outputs": [
        {
          "internalType": "uint256",
          "name": "",
          "type": "uint256"
        }
      ],
      "stateMutability": "view",
      "type": "function"
    },
    {
      "inputs": [],
      "name": "borrowIndex",
      "outputs": [
        {
          "internalType": "uint256",
          "name": "",
          "type": "uint256"
        }
      ],
      "stateMutability": "view",
      "type": "function"
    },
    {
      "inputs": [],
      "name": "borrowRatePerBlock",
      "outputs": [
        {
          "internalType": "uint256",
          "name": "",
          "type": "uint256"
        }
      ],
      "stateMutability": "view",
      "type": "function"
    },
    {
      "inputs": [],
      "name": "controller",
      "outputs": [
        {
          "internalType": "address",
          "name": "",
          "type": "address"
        }
      ],
      "stateMutability": "view",
      "type": "function"
    },
    {
      "inputs": [],
      "name": "decimals",
      "outputs": [
        {
          "internalType": "uint8",
          "name": "",
          "type": "uint8"
        }
      ],
      "stateMutability": "view",
      "type": "function"
    },
    {
      "inputs": [],
      "name": "developer",
      "outputs": [
        {
          "internalType": "address payable",
          "name": "",
          "type": "address"
        }
      ],
      "stateMutability": "view",
      "type": "function"
    },
    {
      "inputs": [],
      "name": "exchangeRateCurrent",
      "outputs": [
        {
          "internalType": "uint256",
          "name": "",
          "type": "uint256"
        }
      ],
      "stateMutability": "nonpayable",
      "type": "function"
    },
    {
      "inputs": [],
      "name": "exchangeRateStored",
      "outputs": [
        {
          "internalType": "uint256",
          "name": "",
          "type": "uint256"
        }
      ],
      "stateMutability": "view",
      "type": "function"
    },
    {
      "inputs": [
        {
          "internalType": "address",
          "name": "account",
          "type": "address"
        }
      ],
      "name": "getAccountSnapshot",
      "outputs": [
        {
          "internalType": "uint256",
          "name": "",
          "type": "uint256"
        },
        {
          "internalType": "uint256",
          "name": "",
          "type": "uint256"
        },
        {
          "internalType": "uint256",
          "name": "",
          "type": "uint256"
        }
      ],
      "stateMutability": "view",
      "type": "function"
    },
    {
      "inputs": [],
      "name": "getCash",
      "outputs": [
        {
          "internalType": "uint256",
          "name": "",
          "type": "uint256"
        }
      ],
      "stateMutability": "view",
      "type": "function"
    },
    {
      "inputs": [],
      "name": "implementation",
      "outputs": [
        {
          "internalType": "address",
          "name": "",
          "type": "address"
        }
      ],
      "stateMutability": "view",
      "type": "function"
    },
    {
      "inputs": [
        {
          "internalType": "address",
          "name": "underlying_",
          "type": "address"
        },
        {
          "internalType": "bool",
          "name": "isWethPool_",
          "type": "bool"
        },
        {
          "internalType": "address",
          "name": "controller_",
          "type": "address"
        },
        {
          "internalType": "uint256",
          "name": "baseRatePerBlock_",
          "type": "uint256"
        },
        {
          "internalType": "uint256",
          "name": "multiplierPerBlock_",
          "type": "uint256"
        },
        {
          "internalType": "uint256",
          "name": "jumpMultiplierPerBlock_",
          "type": "uint256"
        },
        {
          "internalType": "uint256",
          "name": "kink_",
          "type": "uint256"
        },
        {
          "internalType": "uint256",
          "name": "initialExchangeRateMantissa_",
          "type": "uint256"
        },
        {
          "internalType": "string",
          "name": "name_",
          "type": "string"
        },
        {
          "internalType": "string",
          "name": "symbol_",
          "type": "string"
        },
        {
          "internalType": "uint8",
          "name": "decimals_",
          "type": "uint8"
        }
      ],
      "name": "initialize",
      "outputs": [],
      "stateMutability": "nonpayable",
      "type": "function"
    },
    {
      "inputs": [],
      "name": "isWethPool",
      "outputs": [
        {
          "internalType": "bool",
          "name": "",
          "type": "bool"
        }
      ],
      "stateMutability": "view",
      "type": "function"
    },
    {
      "inputs": [],
      "name": "jumpMultiplierPerBlock",
      "outputs": [
        {
          "internalType": "uint256",
          "name": "",
          "type": "uint256"
        }
      ],
      "stateMutability": "view",
      "type": "function"
    },
    {
      "inputs": [],
      "name": "kink",
      "outputs": [
        {
          "internalType": "uint256",
          "name": "",
          "type": "uint256"
        }
      ],
      "stateMutability": "view",
      "type": "function"
    },
    {
      "inputs": [
        {
          "internalType": "uint256",
          "name": "mintAmount",
          "type": "uint256"
        }
      ],
      "name": "mint",
      "outputs": [],
      "stateMutability": "nonpayable",
      "type": "function"
    },
    {
      "inputs": [],
      "name": "mintEth",
      "outputs": [],
      "stateMutability": "payable",
      "type": "function"
    },
    {
      "inputs": [
        {
          "internalType": "address",
          "name": "to",
          "type": "address"
        },
        {
          "internalType": "uint256",
          "name": "amount",
          "type": "uint256"
        }
      ],
      "name": "mintTo",
      "outputs": [],
      "stateMutability": "payable",
      "type": "function"
    },
    {
      "inputs": [],
      "name": "multiplierPerBlock",
      "outputs": [
        {
          "internalType": "uint256",
          "name": "",
          "type": "uint256"
        }
      ],
      "stateMutability": "view",
      "type": "function"
    },
    {
      "inputs": [],
      "name": "name",
      "outputs": [
        {
          "internalType": "string",
          "name": "",
          "type": "string"
        }
      ],
      "stateMutability": "view",
      "type": "function"
    },
    {
      "inputs": [],
      "name": "pendingAdmin",
      "outputs": [
        {
          "internalType": "address payable",
          "name": "",
          "type": "address"
        }
      ],
      "stateMutability": "view",
      "type": "function"
    },
    {
      "inputs": [
        {
          "internalType": "uint256",
          "name": "redeemTokens",
          "type": "uint256"
        }
      ],
      "name": "redeem",
      "outputs": [],
      "stateMutability": "nonpayable",
      "type": "function"
    },
    {
      "inputs": [
        {
          "internalType": "uint256",
          "name": "redeemAmount",
          "type": "uint256"
        }
      ],
      "name": "redeemUnderlying",
      "outputs": [],
      "stateMutability": "nonpayable",
      "type": "function"
    },
    {
      "inputs": [
        {
          "internalType": "address payable",
          "name": "to",
          "type": "address"
        },
        {
          "internalType": "uint256",
          "name": "reduceAmount",
          "type": "uint256"
        }
      ],
      "name": "reduceReserves",
      "outputs": [],
      "stateMutability": "nonpayable",
      "type": "function"
    },
    {
      "inputs": [
        {
          "internalType": "address",
          "name": "borrower",
          "type": "address"
        },
        {
          "internalType": "uint256",
          "name": "repayAmount",
          "type": "uint256"
        }
      ],
      "name": "repayBorrowBehalf",
      "outputs": [],
      "stateMutability": "nonpayable",
      "type": "function"
    },
    {
      "inputs": [
        {
          "internalType": "address",
          "name": "borrower",
          "type": "address"
        },
        {
          "internalType": "uint256",
          "name": "repayAmount",
          "type": "uint256"
        }
      ],
      "name": "repayBorrowEndByOpenLev",
      "outputs": [],
      "stateMutability": "nonpayable",
      "type": "function"
    },
    {
      "inputs": [],
      "name": "reserveFactorMantissa",
      "outputs": [
        {
          "internalType": "uint256",
          "name": "",
          "type": "uint256"
        }
      ],
      "stateMutability": "view",
      "type": "function"
    },
    {
      "inputs": [
        {
          "internalType": "uint256",
          "name": "newBorrowCapFactorMantissa",
          "type": "uint256"
        }
      ],
      "name": "setBorrowCapFactorMantissa",
      "outputs": [],
      "stateMutability": "nonpayable",
      "type": "function"
    },
    {
      "inputs": [
        {
          "internalType": "address",
          "name": "newController",
          "type": "address"
        }
      ],
      "name": "setController",
      "outputs": [],
      "stateMutability": "nonpayable",
      "type": "function"
    },
    {
      "inputs": [
        {
          "internalType": "uint256",
          "name": "baseRatePerBlock_",
          "type": "uint256"
        },
        {
          "internalType": "uint256",
          "name": "multiplierPerBlock_",
          "type": "uint256"
        },
        {
          "internalType": "uint256",
          "name": "jumpMultiplierPerBlock_",
          "type": "uint256"
        },
        {
          "internalType": "uint256",
          "name": "kink_",
          "type": "uint256"
        }
      ],
      "name": "setInterestParams",
      "outputs": [],
      "stateMutability": "nonpayable",
      "type": "function"
    },
    {
      "inputs": [
        {
          "internalType": "address payable",
          "name": "newPendingAdmin",
          "type": "address"
        }
      ],
      "name": "setPendingAdmin",
      "outputs": [],
      "stateMutability": "nonpayable",
      "type": "function"
    },
    {
      "inputs": [
        {
          "internalType": "uint256",
          "name": "newReserveFactorMantissa",
          "type": "uint256"
        }
      ],
      "name": "setReserveFactor",
      "outputs": [],
      "stateMutability": "nonpayable",
      "type": "function"
    },
    {
      "inputs": [],
      "name": "supplyRatePerBlock",
      "outputs": [
        {
          "internalType": "uint256",
          "name": "",
          "type": "uint256"
        }
      ],
      "stateMutability": "view",
      "type": "function"
    },
    {
      "inputs": [],
      "name": "symbol",
      "outputs": [
        {
          "internalType": "string",
          "name": "",
          "type": "string"
        }
      ],
      "stateMutability": "view",
      "type": "function"
    },
    {
      "inputs": [],
      "name": "totalBorrows",
      "outputs": [
        {
          "internalType": "uint256",
          "name": "",
          "type": "uint256"
        }
      ],
      "stateMutability": "view",
      "type": "function"
    },
    {
      "inputs": [],
      "name": "totalBorrowsCurrent",
      "outputs": [
        {
          "internalType": "uint256",
          "name": "",
          "type": "uint256"
        }
      ],
      "stateMutability": "view",
      "type": "function"
    },
    {
      "inputs": [],
      "name": "totalReserves",
      "outputs": [
        {
          "internalType": "uint256",
          "name": "",
          "type": "uint256"
        }
      ],
      "stateMutability": "view",
      "type": "function"
    },
    {
      "inputs": [],
      "name": "totalSupply",
      "outputs": [
        {
          "internalType": "uint256",
          "name": "",
          "type": "uint256"
        }
      ],
      "stateMutability": "view",
      "type": "function"
    },
    {
      "inputs": [
        {
          "internalType": "address",
          "name": "dst",
          "type": "address"
        },
        {
          "internalType": "uint256",
          "name": "amount",
          "type": "uint256"
        }
      ],
      "name": "transfer",
      "outputs": [
        {
          "internalType": "bool",
          "name": "",
          "type": "bool"
        }
      ],
      "stateMutability": "nonpayable",
      "type": "function"
    },
    {
      "inputs": [
        {
          "internalType": "address",
          "name": "src",
          "type": "address"
        },
        {
          "internalType": "address",
          "name": "dst",
          "type": "address"
        },
        {
          "internalType": "uint256",
          "name": "amount",
          "type": "uint256"
        }
      ],
      "name": "transferFrom",
      "outputs": [
        {
          "internalType": "bool",
          "name": "",
          "type": "bool"
        }
      ],
      "stateMutability": "nonpayable",
      "type": "function"
    },
    {
      "inputs": [],
      "name": "underlying",
      "outputs": [
        {
          "internalType": "address",
          "name": "",
          "type": "address"
        }
      ],
      "stateMutability": "view",
      "type": "function"
    },
    {
      "inputs": [],
      "name": "version",
      "outputs": [
        {
          "internalType": "int256",
          "name": "",
          "type": "int256"
        }
      ],
      "stateMutability": "view",
      "type": "function"
    },
    {
      "inputs": [],
      "name": "getName",
      "outputs": [
        {
          "internalType": "string",
          "name": "",
          "type": "string"
        }
      ],
      "stateMutability": "pure",
      "type": "function"
    },
    {
      "inputs": [],
      "name": "setVersion",
      "outputs": [],
      "stateMutability": "nonpayable",
      "type": "function"
    }
  ],
  "bytecode": "0x608060405234801561001057600080fd5b50600380546001600160a01b031916331790556001601955614eb2806100376000396000f3fe6080604052600436106103815760003560e01c80637821a514116101d1578063bd6d894d11610102578063dd62ed3e116100a0578063f851a4401161006f578063f851a4401461093d578063f8f9da2814610952578063fb0fc2b614610967578063fd2da3391461097c57610381565b8063dd62ed3e146108d3578063ebd0847f146108f3578063f14039de14610913578063f77c47911461092857610381565b8063ca4b208b116100dc578063ca4b208b14610881578063cc2c929e14610896578063d245445b146108ab578063db006a75146108b357610381565b8063bd6d894d1461081d578063c37f68e214610832578063c89a63681461086157610381565b806395dd91931161016f578063a9059cbb11610149578063a9059cbb146107be578063aa5af0fd146107de578063ae9d70b0146107f3578063b9f9850a1461080857610381565b806395dd919314610769578063a0712d6814610789578063a6afed95146107a957610381565b80638726bb89116101ab5780638726bb891461070a5780638f840ddd1461071f57806392eefe9b1461073457806395d89b411461075457610381565b80637821a514146106aa578063852a12e3146106ca578063856e5bb3146106ea57610381565b8063313ce567116102b657806354fd4d50116102545780636e45a80f116102235780636e45a80f146106405780636f307dc31461066057806370a082311461067557806373acee981461069557610381565b806354fd4d50146105e15780635c60da1b146105f65780636940caa01461060b5780636c540baf1461062b57610381565b806342af38d81161029057806342af38d814610584578063449a52f81461059957806347bd3718146105ac5780634dd18bf5146105c157610381565b8063313ce5671461052d5780633af9e6691461054f5780633b1d21a21461056f57610381565b806317d7de7c116103235780631c446983116102fd5780631c446983146104ab57806323b872dd146104cb5780632608f818146104eb578063267822471461050b57610381565b806317d7de7c1461046c57806318160ddd14610481578063182df0f51461049657610381565b80630e18b6811161035f5780630e18b681146103f557806310cc9d641461040a578063173b99041461042a57806317bfdfbc1461044c57610381565b806306fdde0314610386578063095ea7b3146103b15780630e15932b146103de575b600080fd5b34801561039257600080fd5b5061039b610991565b6040516103a89190614d35565b60405180910390f35b3480156103bd57600080fd5b506103d16103cc366004614cb2565b610a1f565b6040516103a89190614d21565b3480156103ea57600080fd5b506103f3610a8c565b005b34801561040157600080fd5b506103f3610a97565b34801561041657600080fd5b506103f3610425366004614cb2565b610b97565b34801561043657600080fd5b5061043f610c01565b6040516103a89190614d2c565b34801561045857600080fd5b5061043f610467366004614b17565b610c07565b34801561047857600080fd5b5061039b610cdb565b34801561048d57600080fd5b5061043f610d04565b3480156104a257600080fd5b5061043f610d0a565b3480156104b757600080fd5b506103f36104c6366004614cc4565b610d6e565b3480156104d757600080fd5b506103d16104e6366004614b96565b610e63565b3480156104f757600080fd5b506103f3610506366004614cb2565b610ec9565b34801561051757600080fd5b50610520610f29565b6040516103a89190614d0d565b34801561053957600080fd5b50610542610f38565b6040516103a89190614d9e565b34801561055b57600080fd5b5061043f61056a366004614b17565b610f41565b34801561057b57600080fd5b5061043f610fde565b34801561059057600080fd5b5061043f61105a565b6103f36105a7366004614cb2565b611060565b3480156105b857600080fd5b5061043f6110ec565b3480156105cd57600080fd5b506103f36105dc366004614b17565b6110f2565b3480156105ed57600080fd5b5061043f6111ab565b34801561060257600080fd5b506105206111b1565b34801561061757600080fd5b506103f3610626366004614cc4565b6111c0565b34801561063757600080fd5b5061043f6112ad565b34801561064c57600080fd5b506103f361065b366004614b33565b6112b3565b34801561066c57600080fd5b506105206113d2565b34801561068157600080fd5b5061043f610690366004614b17565b6113e1565b3480156106a157600080fd5b5061043f6113fc565b3480156106b657600080fd5b506103f36106c5366004614cc4565b61166a565b3480156106d657600080fd5b506103f36106e5366004614cc4565b61172f565b3480156106f657600080fd5b506103f3610705366004614cb2565b611796565b34801561071657600080fd5b5061043f6117f4565b34801561072b57600080fd5b5061043f6117fa565b34801561074057600080fd5b506103f361074f366004614b17565b611800565b34801561076057600080fd5b5061039b6118f9565b34801561077557600080fd5b5061043f610784366004614b17565b611954565b34801561079557600080fd5b506103f36107a4366004614cc4565b61196f565b3480156107b557600080fd5b506103f36119ce565b3480156107ca57600080fd5b506103d16107d9366004614cb2565b611d8a565b3480156107ea57600080fd5b5061043f611def565b3480156107ff57600080fd5b5061043f611df5565b34801561081457600080fd5b5061043f611e15565b34801561082957600080fd5b5061043f611e1b565b34801561083e57600080fd5b5061085261084d366004614b17565b611e82565b6040516103a893929190614d88565b34801561086d57600080fd5b506103f361087c366004614bd6565b611f19565b34801561088d57600080fd5b5061052061223e565b3480156108a257600080fd5b506103d161224d565b6103f361225d565b3480156108bf57600080fd5b506103f36108ce366004614cc4565b612309565b3480156108df57600080fd5b5061043f6108ee366004614b5e565b612368565b3480156108ff57600080fd5b506103f361090e366004614cdc565b612393565b34801561091f57600080fd5b5061043f612598565b34801561093457600080fd5b5061052061259e565b34801561094957600080fd5b506105206125ad565b34801561095e57600080fd5b5061043f6125bc565b34801561097357600080fd5b5061043f6125d4565b34801561098857600080fd5b5061043f612680565b6004805460408051602060026001851615610100026000190190941693909304601f81018490048402820184019092528181529291830182828015610a175780601f106109ec57610100808354040283529160200191610a17565b820191906000526020600020905b8154815290600101906020018083116109fa57829003601f168201915b505050505081565b3360008181526009602090815260408083206001600160a01b03871680855290835281842086905581518681529151939493909284927f8c5be1e5ebec7d5bd14f71427d1e84f3dd0314c0f7b2291e5b200ac8c7c3b925929081900390910190a360019150505b92915050565b601a80546001019055565b6002546001600160a01b03163314610ae05760405162461bcd60e51b8152600401808060200182810382526022815260200180614de56022913960400191505060405180910390fd5b60018054600280546001600160a01b038082166001600160a01b031980861682179687905590921690925560408051938316808552949092166020840152815190927ff9ffabca9c8276e99321725bcb43fb076a6c66a54b7f21c4e8146d8519b417dc92908290030190a1600254604080516001600160a01b038085168252909216602083015280517fca4f2f25d0898edd99413412fb94012f9e54ec8142f9b093e7720646a95b16a99281900390910190a15050565b60026019541415610bdd576040805162461bcd60e51b815260206004820152601f6024820152600080516020614dc5833981519152604482015290519081900360640190fd5b6002601955610bea6119ce565b610bf73383836001612686565b5050600160195550565b60115481565b6000806000610c14612a63565b90925090506000826003811115610c2757fe5b14610c72576040805162461bcd60e51b815260206004820152601660248201527518d85b18c8189bdc9c9bddc81a5b99195e0819985a5b60521b604482015290519081900360640190fd5b600080610c7f8684612b1c565b90925090506000826003811115610c9257fe5b14610cd0576040805162461bcd60e51b815260206004820152600960248201526818d85b18c819985a5b60ba1b604482015290519081900360640190fd5b93505050505b919050565b60408051808201909152600e81526d262837b7b62ab833b930b232ab1960911b60208201525b90565b60075481565b6000806000610d17612bcd565b90925090506000826003811115610d2a57fe5b14610d68576040805162461bcd60e51b815260206004820152600960248201526818d85b18c819985a5b60ba1b604482015290519081900360640190fd5b91505090565b6001546001600160a01b03163314610dc4576040805162461bcd60e51b815260206004820152601460248201527331b0b63632b91036bab9ba1031329030b236b4b760611b604482015290519081900360640190fd5b670de0b6b3a7640000811115610e14576040805162461bcd60e51b815260206004820152601060248201526f466163746f7220746f6f206c6172676560801b604482015290519081900360640190fd5b610e1c6119ce565b6011805490829055604080518281526020810184905281517faaa68312e2ea9d50e16af5068410ab56e1a1fd06037b1a35664812c30f821460929181900390910190a15050565b600060026019541415610eab576040805162461bcd60e51b815260206004820152601f6024820152600080516020614dc5833981519152604482015290519081900360640190fd5b6002601955610ebc33858585612c78565b6001601955949350505050565b60026019541415610f0f576040805162461bcd60e51b815260206004820152601f6024820152600080516020614dc5833981519152604482015290519081900360640190fd5b6002601955610f1c6119ce565b610bf73383836000612686565b6002546001600160a01b031681565b60065460ff1681565b6000806040518060200160405280610f57611e1b565b90526001600160a01b038416600090815260086020526040812054919250908190610f83908490612fd9565b90925090506000826003811115610f9657fe5b14610fd6576040805162461bcd60e51b815260206004820152600b60248201526a18d85b18c819985a5b195960aa1b604482015290519081900360640190fd5b949350505050565b601354604080516370a0823160e01b815230600482015290516000926001600160a01b0316916370a08231916024808301926020929190829003018186803b15801561102957600080fd5b505afa15801561103d573d6000803e3d6000fd5b505050506040513d602081101561105357600080fd5b5051905090565b600a5481565b600260195414156110a6576040805162461bcd60e51b815260206004820152601f6024820152600080516020614dc5833981519152604482015290519081900360640190fd5b60026019556110b36119ce565b601354600160a01b900460ff16156110d7576110d182346000613025565b506110e3565b610bf782826001613025565b50506001601955565b600f5481565b6001546001600160a01b03163314611148576040805162461bcd60e51b815260206004820152601460248201527331b0b63632b91036bab9ba1031329030b236b4b760611b604482015290519081900360640190fd5b600280546001600160a01b038381166001600160a01b0319831681179093556040805191909216808252602082019390935281517fca4f2f25d0898edd99413412fb94012f9e54ec8142f9b093e7720646a95b16a9929181900390910190a15050565b601a5481565b6000546001600160a01b031681565b6001546001600160a01b03163314611216576040805162461bcd60e51b815260206004820152601460248201527331b0b63632b91036bab9ba1031329030b236b4b760611b604482015290519081900360640190fd5b670de0b6b3a7640000811115611266576040805162461bcd60e51b815260206004820152601060248201526f466163746f7220746f6f206c6172676560801b604482015290519081900360640190fd5b600a805490829055604080518281526020810184905281517f8d783a1777b97cb9cbf193604a8a1bc534234dbaaa16629ff7022f0d63a7322f929181900390910190a15050565b600d5481565b600260195414156112f9576040805162461bcd60e51b815260206004820152601f6024820152600080516020614dc5833981519152604482015290519081900360640190fd5b60026019556001546001600160a01b03163314611354576040805162461bcd60e51b815260206004820152601460248201527331b0b63632b91036bab9ba1031329030b236b4b760611b604482015290519081900360640190fd5b61135c6119ce565b60125460009061136c90836134e1565b6012819055905061137f8383600161353e565b604080516001600160a01b03851681526020810184905280820183905290517f3bad0c59cf2f06e7314077049f48a93578cd16f5ef92329f1dab1420a99c177e9181900360600190a15050600160195550565b6013546001600160a01b031681565b6001600160a01b031660009081526008602052604090205490565b600080611407613618565b600d549091508082141561142157600f5492505050610d01565b600061142b610fde565b600f5460125491925090600061144284848461361c565b905065048c27395000811115611496576040805162461bcd60e51b81526020600482015260146024820152733137b93937bbb2b9103930ba32903434b3b432b960611b604482015290519081900360640190fd5b6000806114a388886136df565b909250905060008260038111156114b657fe5b14611500576040805162461bcd60e51b815260206004820152601560248201527463616c6320626c6f636b2064656c7461206572726f60581b604482015290519081900360640190fd5b61150861491c565b60008061152360405180602001604052808881525085613702565b9095509250600085600381111561153657fe5b14611588576040805162461bcd60e51b815260206004820152601a60248201527f63616c6320696e74657265737420666163746f72206572726f72000000000000604482015290519081900360640190fd5b6115928389612fd9565b909550915060008560038111156115a557fe5b146115f1576040805162461bcd60e51b815260206004820152601760248201527631b0b6319034b73a32b932b9ba1030b1b19032b93937b960491b604482015290519081900360640190fd5b6115fb828961376a565b9095509050600085600381111561160e57fe5b1461165b576040805162461bcd60e51b815260206004820152601860248201527731b0b631903a37ba30b6103137b93937bbb99032b93937b960411b604482015290519081900360640190fd5b9a505050505050505050505090565b600260195414156116b0576040805162461bcd60e51b815260206004820152601f6024820152600080516020614dc5833981519152604482015290519081900360640190fd5b60026019556116bd6119ce565b6000806116cc33846001613790565b6012549091506116dc908261382d565b6012819055604080513381526020810184905280820183905290519193507fa91e67c5ea634cd43a12c5a482724b03de01e85ca68702a53d0c2f45cb7c1dc5919081900360600190a15050600160195550565b60026019541415611775576040805162461bcd60e51b815260206004820152601f6024820152600080516020614dc5833981519152604482015290519081900360640190fd5b60026019556117826119ce565b61178e33600083613887565b506001601955565b600260195414156117dc576040805162461bcd60e51b815260206004820152601f6024820152600080516020614dc5833981519152604482015290519081900360640190fd5b60026019556117e96119ce565b6110e3823383613dbe565b60155481565b60125481565b6001546001600160a01b03163314611856576040805162461bcd60e51b815260206004820152601460248201527331b0b63632b91036bab9ba1031329030b236b4b760611b604482015290519081900360640190fd5b6001600160a01b038116611896576040805162461bcd60e51b8152602060048201526002602482015261060f60f31b604482015290519081900360640190fd5b600b80546001600160a01b038381166001600160a01b0319831681179093556040805191909216808252602082019390935281517ff9b6a28700579d5c8fab50f0ac2dcaa52109b85c369c4f511fcc873330ab6cbb929181900390910190a15050565b6005805460408051602060026001851615610100026000190190941693909304601f81018490048402820184019092528181529291830182828015610a175780601f106109ec57610100808354040283529160200191610a17565b6001600160a01b031660009081526018602052604090205490565b600260195414156119b5576040805162461bcd60e51b815260206004820152601f6024820152600080516020614dc5833981519152604482015290519081900360640190fd5b60026019556119c26119ce565b6110e333826000613025565b60006119d8613618565b600d54909150808214156119ed575050611d88565b60006119f7610fde565b600f54600e5460125492935090916000611a1285858461361c565b905065048c27395000811115611a66576040805162461bcd60e51b81526020600482015260146024820152733137b93937bbb2b9103930ba32903434b3b432b960611b604482015290519081900360640190fd5b600080611a7389896136df565b90925090506000826003811115611a8657fe5b14611ad0576040805162461bcd60e51b815260206004820152601560248201527463616c6320626c6f636b2064656c7461206572726f60581b604482015290519081900360640190fd5b611ad861491c565b600080600080611af660405180602001604052808a81525087613702565b90975094506000876003811115611b0957fe5b14611b5b576040805162461bcd60e51b815260206004820152601a60248201527f63616c6320696e74657265737420666163746f72206572726f72000000000000604482015290519081900360640190fd5b611b65858c612fd9565b90975093506000876003811115611b7857fe5b14611bc4576040805162461bcd60e51b815260206004820152601760248201527631b0b6319034b73a32b932b9ba1030b1b19032b93937b960491b604482015290519081900360640190fd5b611bce848c61376a565b90975092506000876003811115611be157fe5b14611c2e576040805162461bcd60e51b815260206004820152601860248201527731b0b631903a37ba30b6103137b93937bbb99032b93937b960411b604482015290519081900360640190fd5b611c496040518060200160405280601154815250858b614119565b90975090506000876003811115611c5c57fe5b14611cae576040805162461bcd60e51b815260206004820152601960248201527f63616c6320746f74616c207265736572766573206572726f7200000000000000604482015290519081900360640190fd5b611cb9858b8c614119565b90975091506000876003811115611ccc57fe5b14611d1e576040805162461bcd60e51b815260206004820152601860248201527f63616c6320626f72726f777320696e646578206572726f720000000000000000604482015290519081900360640190fd5b600d8e9055600e829055600f8390556012819055604080518d8152602081018690528082018490526060810185905290517f4dec04e750ca11537cabcd8a9eab06494de08da3735bc8871cd41250e190bc049181900360800190a150505050505050505050505050505b565b600060026019541415611dd2576040805162461bcd60e51b815260206004820152601f6024820152600080516020614dc5833981519152604482015290519081900360640190fd5b6002601955611de333808585612c78565b60016019559392505050565b600e5481565b6000611e10611e02610fde565b600f5460125460115461416e565b905090565b60165481565b600060026019541415611e63576040805162461bcd60e51b815260206004820152601f6024820152600080516020614dc5833981519152604482015290519081900360640190fd5b6002601955611e706119ce565b611e78610d0a565b9050600160195590565b6001600160a01b03811660009081526008602052604081205481908190818080611eab886141db565b935090506000816003811115611ebd57fe5b14611ed657600080600096509650965050505050611f12565b611ede612bcd565b925090506000816003811115611ef057fe5b14611f0957600080600096509650965050505050611f12565b50919450925090505b9193909250565b6001600160a01b038b16611f74576040805162461bcd60e51b815260206004820152601f60248201527f756e6465726c79696e675f20616464726573732063616e6e6f74206265203000604482015290519081900360640190fd5b6001600160a01b038916611fcf576040805162461bcd60e51b815260206004820152601f60248201527f636f6e74726f6c6c65725f20616464726573732063616e6e6f74206265203000604482015290519081900360640190fd5b6001546001600160a01b0316331461202e576040805162461bcd60e51b815260206004820181905260248201527f4f6e6c7920616c6c6f7720746f2062652063616c6c65642062792061646d696e604482015290519081900360640190fd5b600d5415801561203e5750600e54155b61207d576040805162461bcd60e51b815260206004820152600b60248201526a696e69746564206f6e636560a81b604482015290519081900360640190fd5b600c849055836120be5760405162461bcd60e51b8152600401808060200182810382526035815260200180614e486035913960400191505060405180910390fd5b600b80546001600160a01b0319166001600160a01b038b161790556013805460ff60a01b1916600160a01b8c151502179055601488905560158790556016869055601785905561210c613618565b600d556a084595161401484a000000600e55670b1a2bc2ec500000600a5567016345785d8a0000601155825161214990600490602086019061492f565b50815161215d90600590602085019061492f565b506006805460ff191660ff831617905560038054600160a01b60ff60a01b19909116179055601380546001600160a01b0319166001600160a01b038d81169190911791829055604080516318160ddd60e01b8152905192909116916318160ddd91600480820192602092909190829003018186803b1580156121de57600080fd5b505afa1580156121f2573d6000803e3d6000fd5b505050506040513d602081101561220857600080fd5b50506040805160008082529151339291600080516020614e28833981519152919081900360200190a35050505050505050505050565b6003546001600160a01b031681565b601354600160a01b900460ff1681565b600260195414156122a3576040805162461bcd60e51b815260206004820152601f6024820152600080516020614dc5833981519152604482015290519081900360640190fd5b6002601955601354600160a01b900460ff166122f5576040805162461bcd60e51b815260206004820152600c60248201526b1b9bdd08195d1a081c1bdbdb60a21b604482015290519081900360640190fd5b6122fd6119ce565b61178e33346000613025565b6002601954141561234f576040805162461bcd60e51b815260206004820152601f6024820152600080516020614dc5833981519152604482015290519081900360640190fd5b600260195561235c6119ce565b61178e33826000613887565b6001600160a01b03918216600090815260096020908152604080832093909416825291909152205490565b6001546001600160a01b031633146123e9576040805162461bcd60e51b815260206004820152601460248201527331b0b63632b91036bab9ba1031329030b236b4b760611b604482015290519081900360640190fd5b601454156123f9576123f96119ce565b6509184e72a0008410612449576040805162461bcd60e51b815260206004820152601360248201527242617365207261746520746f6f206c6172676560681b604482015290519081900360640190fd5b60148490556509184e72a000831061249d576040805162461bcd60e51b81526020600482015260126024820152714d756c207261746520746f6f206c6172676560701b604482015290519081900360640190fd5b60158390556509184e72a00082106124f2576040805162461bcd60e51b81526020600482015260136024820152724a756d70207261746520746f6f206c6172676560681b604482015290519081900360640190fd5b6016829055670de0b6b3a7640000811115612546576040805162461bcd60e51b815260206004820152600f60248201526e4b6c696e6520746f6f206c6172676560881b604482015290519081900360640190fd5b601781905560408051858152602081018590528082018490526060810183905290517f1d6ada507d93788b3d2e6f68f2999ef7e05f2196ba5cde6db7d0a785745b3c249181900360800190a150505050565b60145481565b600b546001600160a01b031681565b6001546001600160a01b031681565b6000611e106125c9610fde565b600f5460125461361c565b6000806125df610fde565b90506000806125f383600f546012546141f3565b9092509050600082600381111561260657fe5b146126175760009350505050610d01565b600080612634604051806020016040528085815250600a54612fd9565b9092509050600082600381111561264757fe5b1461265a57600095505050505050610d01565b80600f54111561267257600095505050505050610d01565b600f54900394505050505090565b60175481565b6000612690613618565b600d54146126d6576040805162461bcd60e51b815260206004820152600e60248201526d6e6f742073616d6520626c6f636b60901b604482015290519081900360640190fd5b600b546040805163012c89d360e31b81526001600160a01b0388811660048301528781166024830152604482018790528515156064830152915191909216916309644e9891608480830192600092919082900301818387803b15801561273b57600080fd5b505af115801561274f573d6000803e3d6000fd5b5050505061275b6149bb565b6001600160a01b038516600090815260186020526040908190206001015490820152612786856141db565b606083018190528282600381111561279a57fe5b60038111156127a557fe5b90525060009050815160038111156127b957fe5b14612803576040805162461bcd60e51b815260206004820152601560248201527431b0b6319030b1b1903137b93937bb9032b93937b960591b604482015290519081900360640190fd5b60001984141561281c5760608101516020820152612824565b602081018490525b6128348682602001516000613790565b60c082015282801561284d57508060c001518160600151115b156128635760c081015160608201510360e08201525b8060c00151816060015110156128fd57670e92596fd62900006128a982606001516128a3670de0b6b3a76400008560c0015161423190919063ffffffff16565b9061428a565b11156128f1576040805162461bcd60e51b81526020600482015260126024820152717265706179206d6f7265207468616e20352560701b604482015290519081900360640190fd5b60006080820152612920565b821561290f5760006080820152612920565b60c081015160608201510360808201525b600f548160c00151111561293a57600060a082015261296a565b821561295b576060810151600f54612951916134e1565b60a082015261296a565b60c0810151600f540360a08201525b806080015160186000876001600160a01b03166001600160a01b0316815260200190815260200160002060000181905550600e5460186000876001600160a01b03166001600160a01b03168152602001908152602001600020600101819055508060a00151600f819055507f6fadbf7329d21f278e724fa0d4511001a158f2a97ee35c5bc4cf8b64417399ef86868360c001518460e0015185608001518660a0015160405180876001600160a01b03168152602001866001600160a01b03168152602001858152602001848152602001838152602001828152602001965050505050505060405180910390a160c0015195945050505050565b6000806000612a70613618565b600d54909150600081831415612a91576000600e5494509450505050612b18565b6000612a9e6125c9610fde565b9050600080612aad86866136df565b91509150612ab961491c565b612ad160405180602001604052808681525083613702565b90935090506000836003811115612ae457fe5b14612afc578260009850985050505050505050612b18565b612b0b81600e54600e54614119565b9099509750505050505050505b9091565b6001600160a01b038216600090815260186020526040812080548291829182918291612b52576000809550955050505050612bc6565b8054612b5e90886142f1565b90945092506000846003811115612b7157fe5b14612b86578360009550955050505050612bc6565b612b94838260010154614330565b90945091506000846003811115612ba757fe5b14612bbc578360009550955050505050612bc6565b5060009450925050505b9250929050565b600754600090819080612be8575050600c5460009150612b18565b6000612bf2610fde565b90506000612bfe61491c565b6000612c0f84600f546012546141f3565b935090506000816003811115612c2157fe5b14612c3657955060009450612b189350505050565b612c40838661435b565b925090506000816003811115612c5257fe5b14612c6757955060009450612b189350505050565b5051600095509350612b1892505050565b60006001600160a01b038316612cd5576040805162461bcd60e51b815260206004820152601760248201527f64737420616464726573732063616e6e6f742062652030000000000000000000604482015290519081900360640190fd5b826001600160a01b0316846001600160a01b03161415612d28576040805162461bcd60e51b81526020600482015260096024820152681cdc98c80f48191cdd60ba1b604482015290519081900360640190fd5b600b546040805160016276d1bb60e11b031981526001600160a01b0387811660048301528681166024830152604482018690529151919092169163ff125c8a91606480830192600092919082900301818387803b158015612d8857600080fd5b505af1158015612d9c573d6000803e3d6000fd5b505050506000846001600160a01b0316866001600160a01b03161415612dc55750600019612ded565b506001600160a01b038085166000908152600960209081526040808320938916835292905220545b600080600080612dfd85886136df565b90945092506000846003811115612e1057fe5b14612e50576040805162461bcd60e51b815260206004820152600b60248201526a1b9bdd08185b1b1bddd95960aa1b604482015290519081900360640190fd5b6001600160a01b038916600090815260086020526040902054612e7390886136df565b90945091506000846003811115612e8657fe5b14612ec5576040805162461bcd60e51b815260206004820152600a6024820152690dcdee840cadcdeeaced60b31b604482015290519081900360640190fd5b6001600160a01b038816600090815260086020526040902054612ee8908861376a565b90945090506000846003811115612efb57fe5b14612f38576040805162461bcd60e51b81526020600482015260086024820152670e8dede40daeac6d60c31b604482015290519081900360640190fd5b6001600160a01b03808a16600090815260086020526040808220859055918a168152208190556000198514612f90576001600160a01b03808a166000908152600960209081526040808320938e168352929052208390555b876001600160a01b0316896001600160a01b0316600080516020614e28833981519152896040518082815260200191505060405180910390a35060019998505050505050505050565b600080600080612fe98686613702565b90925090506000826003811115612ffc57fe5b1461300d5750915060009050612bc6565b60006130188261440c565b9350935050509250929050565b600061302f613618565b600d5414613075576040805162461bcd60e51b815260206004820152600e60248201526d6e6f742073616d6520626c6f636b60901b604482015290519081900360640190fd5b61307d614a01565b613085612bcd565b602083018190528282600381111561309957fe5b60038111156130a457fe5b90525060009050815160038111156130b857fe5b14613104576040805162461bcd60e51b815260206004820152601760248201527631b0b6319032bc31b430b733b2b930ba329032b93937b960491b604482015290519081900360640190fd5b82156131d9576000613114610fde565b9050336001600160a01b031663d7efa12987876040518363ffffffff1660e01b815260040180836001600160a01b0316815260200182815260200192505050600060405180830381600087803b15801561316d57600080fd5b505af1158015613181573d6000803e3d6000fd5b50505050600061318f610fde565b90508181116131ce576040805162461bcd60e51b815260206004820152600660248201526506d696e7420360d41b604482015290519081900360640190fd5b0360a08201526131eb565b6131e585856001613790565b60a08201525b61320b8160a001516040518060200160405280846020015181525061441b565b604083018190528282600381111561321f57fe5b600381111561322a57fe5b905250600090508151600381111561323e57fe5b14613288576040805162461bcd60e51b815260206004820152601560248201527431b0b6319036b4b73a103a37b5b2b71032b93937b960591b604482015290519081900360640190fd5b600b5460408083015181516357739dc560e01b81526001600160a01b038981166004830152602482019290925291519216916357739dc59160448082019260009290919082900301818387803b1580156132e157600080fd5b505af11580156132f5573d6000803e3d6000fd5b50505050613309600754826040015161376a565b606083018190528282600381111561331d57fe5b600381111561332857fe5b905250600090508151600381111561333c57fe5b14613387576040805162461bcd60e51b815260206004820152601660248201527518d85b18c81cdd5c1c1b1e481b995dc819985a5b195960521b604482015290519081900360640190fd5b6001600160a01b0385166000908152600860205260409081902054908201516133b0919061376a565b60808301819052828260038111156133c457fe5b60038111156133cf57fe5b90525060009050815160038111156133e357fe5b1461342d576040805162461bcd60e51b815260206004820152601560248201527418d85b18c81d1bdad95b9cc81b995dc8185a5b1959605a1b604482015290519081900360640190fd5b60608082015160075560808201516001600160a01b0387166000818152600860209081526040918290209390935560a0850151818601518251938452938301528181019290925290517f4c209b5fc8ad50758f13e2e1088ba56a560dff690a1c6fef26394f4c03821c4f929181900390910190a1604080820151815190815290516001600160a01b038716913091600080516020614e288339815191529181900360200190a360a0015190505b9392505050565b600082821115613538576040805162461bcd60e51b815260206004820152601e60248201527f536166654d6174683a207375627472616374696f6e206f766572666c6f770000604482015290519081900360640190fd5b50900390565b601354600160a01b900460ff1680156135545750805b156135fa5760135460408051632e1a7d4d60e01b81526004810185905290516001600160a01b0390921691632e1a7d4d9160248082019260009290919082900301818387803b1580156135a657600080fd5b505af11580156135ba573d6000803e3d6000fd5b50506040516001600160a01b038616925084156108fc02915084906000818181858888f193505050501580156135f4573d6000803e3d6000fd5b50613613565b601354613611906001600160a01b0316848461442b565b505b505050565b4390565b60008061362a858585614653565b9050601754811161366a5761366260145461365c670de0b6b3a76400006128a36015548661423190919063ffffffff16565b9061382d565b9150506134da565b600061369560145461365c670de0b6b3a76400006128a360155460175461423190919063ffffffff16565b905060006136ae601754846134e190919063ffffffff16565b90506136d58261365c670de0b6b3a76400006128a36016548661423190919063ffffffff16565b93505050506134da565b6000808383116136f6575060009050818303612bc6565b50600390506000612bc6565b600061370c61491c565b60008061371d8660000151866142f1565b9092509050600082600381111561373057fe5b1461374f57506040805160208101909152600081529092509050612bc6565b60408051602081019091529081526000969095509350505050565b60008083830184811061378257600092509050612bc6565b600260009250925050612bc6565b601354600090600160a01b900460ff1680156137a95750815b15613815575060135460408051630d0e30db60e41b8152905134926001600160a01b03169163d0e30db091849160048082019260009290919082900301818588803b1580156137f757600080fd5b505af115801561380b573d6000803e3d6000fd5b50505050506134da565b601354610fd6906001600160a01b031685308661468b565b6000828201838110156134da576040805162461bcd60e51b815260206004820152601b60248201527f536166654d6174683a206164646974696f6e206f766572666c6f770000000000604482015290519081900360640190fd5b61388f613618565b600d54146138d5576040805162461bcd60e51b815260206004820152600e60248201526d6e6f742073616d6520626c6f636b60901b604482015290519081900360640190fd5b8115806138e0575080155b61391f576040805162461bcd60e51b815260206004820152600b60248201526a6f6e65206265207a65726f60a81b604482015290519081900360640190fd5b613927614a01565b61392f612bcd565b602083018190528282600381111561394357fe5b600381111561394e57fe5b905250600090508151600381111561396257fe5b146139ae576040805162461bcd60e51b815260206004820152601760248201527631b0b6319032bc31b430b733b2b930ba329032b93937b960491b604482015290519081900360640190fd5b8215613a60576040808201849052805160208082019092529082015181526139d69084612fd9565b60608301819052828260038111156139ea57fe5b60038111156139f557fe5b9052506000905081516003811115613a0957fe5b14613a5b576040805162461bcd60e51b815260206004820152601860248201527f63616c632072656465656d20616d6f756e74206572726f720000000000000000604482015290519081900360640190fd5b613b09565b613a7c826040518060200160405280846020015181525061441b565b6040830181905282826003811115613a9057fe5b6003811115613a9b57fe5b9052506000905081516003811115613aaf57fe5b14613b01576040805162461bcd60e51b815260206004820152601860248201527f63616c632072656465656d20746f6b656e73206572726f720000000000000000604482015290519081900360640190fd5b606081018290525b600b54604080830151815163335dec6b60e21b81526001600160a01b0388811660048301526024820192909252915192169163cd77b1ac9160448082019260009290919082900301818387803b158015613b6257600080fd5b505af1158015613b76573d6000803e3d6000fd5b50505050613b8a60075482604001516136df565b6080830181905282826003811115613b9e57fe5b6003811115613ba957fe5b9052506000905081516003811115613bbd57fe5b14613c07576040805162461bcd60e51b815260206004820152601560248201527431b0b6319039bab838363c903732bb9032b93937b960591b604482015290519081900360640190fd5b6001600160a01b038416600090815260086020526040908190205490820151613c3091906136df565b60a0830181905282826003811115613c4457fe5b6003811115613c4f57fe5b9052506000905081516003811115613c6357fe5b14613cac576040805162461bcd60e51b815260206004820152601460248201527331b0b631903a37b5b2b7103732bb9032b93937b960611b604482015290519081900360640190fd5b8060600151613cb9610fde565b1015613cfc576040805162461bcd60e51b815260206004820152600d60248201526c63617368203c2072656465656d60981b604482015290519081900360640190fd5b608081015160075560a08101516001600160a01b0385166000908152600860205260409020556060810151613d34908590600161353e565b6040808201518151908152905130916001600160a01b03871691600080516020614e288339815191529181900360200190a360608082015160408084015181516001600160a01b0389168152602081019390935282820152517fe5b754fb1abb7f01b499791d0b820ae3b6af3424ac1c59768edb53f4ec31a929929181900390910190a150505050565b613dc6613618565b600d5414613e0c576040805162461bcd60e51b815260206004820152600e60248201526d6e6f742073616d6520626c6f636b60901b604482015290519081900360640190fd5b600b546040805163368f515360e21b81526001600160a01b0386811660048301528581166024830152604482018590529151919092169163da3d454c91606480830192600092919082900301818387803b158015613e6957600080fd5b505af1158015613e7d573d6000803e3d6000fd5b5050505080613e8a610fde565b1015613ecb576040805162461bcd60e51b815260206004820152600b60248201526a636173683c626f72726f7760a81b604482015290519081900360640190fd5b613ed3614a38565b613edc846141db565b6020830181905282826003811115613ef057fe5b6003811115613efb57fe5b9052506000905081516003811115613f0f57fe5b14613f5a576040805162461bcd60e51b815260206004820152601660248201527531b0b6319030b1b1903137b93937bbb99032b93937b960511b604482015290519081900360640190fd5b613f6881602001518361376a565b6040830181905282826003811115613f7c57fe5b6003811115613f8757fe5b9052506000905081516003811115613f9b57fe5b14613fe6576040805162461bcd60e51b815260206004820152601660248201527531b0b6319030b1b1903137b93937bbb99032b93937b960511b604482015290519081900360640190fd5b613ff2600f548361376a565b606083018190528282600381111561400657fe5b600381111561401157fe5b905250600090508151600381111561402557fe5b14614072576040805162461bcd60e51b815260206004820152601860248201527731b0b631903a37ba30b6103137b93937bbb99032b93937b960411b604482015290519081900360640190fd5b6040808201516001600160a01b03861660009081526018602052918220908155600e546001909101556060820151600f556140b0908490849061353e565b60408082015160608084015183516001600160a01b03808a1682528816602082015280850187905291820192909252608081019190915290517f10a0132d3bf8c82a7fb93a86160f3074ca5c3e5706fa2bcdf0e2b5fd495af09b9181900360a00190a150505050565b6000806000806141298787613702565b9092509050600082600381111561413c57fe5b1461414d5750915060009050614166565b61415f6141598261440c565b8661376a565b9350935050505b935093915050565b600080614183670de0b6b3a7640000846134e1565b9050600061419287878761361c565b905060006141ac670de0b6b3a76400006128a38486614231565b90506141cf670de0b6b3a76400006128a3836141c98c8c8c614653565b90614231565b98975050505050505050565b6000806141ea83600e54612b1c565b91509150915091565b600080600080614203878761376a565b9092509050600082600381111561421657fe5b146142275750915060009050614166565b61415f81866136df565b60008261424057506000610a86565b8282028284828161424d57fe5b04146134da5760405162461bcd60e51b8152600401808060200182810382526021815260200180614e076021913960400191505060405180910390fd5b60008082116142e0576040805162461bcd60e51b815260206004820152601a60248201527f536166654d6174683a206469766973696f6e206279207a65726f000000000000604482015290519081900360640190fd5b8183816142e957fe5b049392505050565b6000808361430457506000905080612bc6565b8383028385828161431157fe5b041461432557600260009250925050612bc6565b600092509050612bc6565b600080826143445750600190506000612bc6565b600083858161434f57fe5b04915091509250929050565b600061436561491c565b60008061437a86670de0b6b3a76400006142f1565b9092509050600082600381111561438d57fe5b146143ac57506040805160208101909152600081529092509050612bc6565b6000806143b98388614330565b909250905060008260038111156143cc57fe5b146143ef5781604051806020016040528060008152509550955050505050612bc6565b604080516020810190915290815260009890975095505050505050565b51670de0b6b3a7640000900490565b600080600080612fe986866148bd565b600081156134da576000846001600160a01b03166370a08231856040518263ffffffff1660e01b815260040180826001600160a01b0316815260200191505060206040518083038186803b15801561448257600080fd5b505afa158015614496573d6000803e3d6000fd5b505050506040513d60208110156144ac57600080fd5b5051604080516001600160a01b038781166024830152604480830188905283518084039091018152606490920183526020820180516001600160e01b031663a9059cbb60e01b1781529251825194955090891693919290918291908083835b6020831061452a5780518252601f19909201916020918201910161450b565b6001836020036101000a0380198251168184511680821785525050505050509050019150506000604051808303816000865af19150503d806000811461458c576040519150601f19603f3d011682016040523d82523d6000602084013e614591565b606091505b5050506000856001600160a01b03166370a08231866040518263ffffffff1660e01b815260040180826001600160a01b0316815260200191505060206040518083038186803b1580156145e357600080fd5b505afa1580156145f7573d6000803e3d6000fd5b505050506040513d602081101561460d57600080fd5b5051905081811161464a576040805162461bcd60e51b81526020600482015260026024820152612a2360f11b604482015290519081900360640190fd5b03949350505050565b600082614662575060006134da565b610fd661467983614673878761382d565b906134e1565b6128a385670de0b6b3a7640000614231565b60008115610fd6576000856001600160a01b03166370a08231856040518263ffffffff1660e01b815260040180826001600160a01b0316815260200191505060206040518083038186803b1580156146e257600080fd5b505afa1580156146f6573d6000803e3d6000fd5b505050506040513d602081101561470c57600080fd5b5051604080516001600160a01b0388811660248301528781166044830152606480830188905283518084039091018152608490920183526020820180516001600160e01b03166323b872dd60e01b17815292518251949550908a1693919290918291908083835b602083106147925780518252601f199092019160209182019101614773565b6001836020036101000a0380198251168184511680821785525050505050509050019150506000604051808303816000865af19150503d80600081146147f4576040519150601f19603f3d011682016040523d82523d6000602084013e6147f9565b606091505b5050506000866001600160a01b03166370a08231866040518263ffffffff1660e01b815260040180826001600160a01b0316815260200191505060206040518083038186803b15801561484b57600080fd5b505afa15801561485f573d6000803e3d6000fd5b505050506040513d602081101561487557600080fd5b505190508181116148b3576040805162461bcd60e51b81526020600482015260036024820152622a232360e91b604482015290519081900360640190fd5b0395945050505050565b60006148c761491c565b6000806148dc670de0b6b3a7640000876142f1565b909250905060008260038111156148ef57fe5b1461490e57506040805160208101909152600081529092509050612bc6565b61301881866000015161435b565b6040518060200160405280600081525090565b828054600181600116156101000203166002900490600052602060002090601f01602090048101928261496557600085556149ab565b82601f1061497e57805160ff19168380011785556149ab565b828001600101855582156149ab579182015b828111156149ab578251825591602001919060010190614990565b506149b7929150614a61565b5090565b6040805161010081019091528060008152602001600081526020016000815260200160008152602001600081526020016000815260200160008152602001600081525090565b6040805160c08101909152806000815260200160008152602001600081526020016000815260200160008152602001600081525090565b604080516080810190915280600081526020016000815260200160008152602001600081525090565b5b808211156149b75760008155600101614a62565b8035610cd681614dac565b80358015158114610cd657600080fd5b600082601f830112614aa1578081fd5b813567ffffffffffffffff80821115614ab657fe5b604051601f8301601f191681016020018281118282101715614ad457fe5b604052828152848301602001861015614aeb578384fd5b82602086016020830137918201602001929092529392505050565b803560ff81168114610cd657600080fd5b600060208284031215614b28578081fd5b81356134da81614dac565b60008060408385031215614b45578081fd5b8235614b5081614dac565b946020939093013593505050565b60008060408385031215614b70578182fd5b8235614b7b81614dac565b91506020830135614b8b81614dac565b809150509250929050565b600080600060608486031215614baa578081fd5b8335614bb581614dac565b92506020840135614bc581614dac565b929592945050506040919091013590565b60008060008060008060008060008060006101608c8e031215614bf7578687fd5b614c008c614a76565b9a50614c0e60208d01614a81565b9950614c1c60408d01614a76565b985060608c0135975060808c0135965060a08c0135955060c08c0135945060e08c0135935067ffffffffffffffff806101008e01351115614c5b578384fd5b614c6c8e6101008f01358f01614a91565b9350806101208e01351115614c7f578283fd5b50614c918d6101208e01358e01614a91565b9150614ca06101408d01614b06565b90509295989b509295989b9093969950565b60008060408385031215614b45578182fd5b600060208284031215614cd5578081fd5b5035919050565b60008060008060808587031215614cf1578384fd5b5050823594602084013594506040840135936060013592509050565b6001600160a01b0391909116815260200190565b901515815260200190565b90815260200190565b6000602080835283518082850152825b81811015614d6157858101830151858201604001528201614d45565b81811115614d725783604083870101525b50601f01601f1916929092016040019392505050565b9283526020830191909152604082015260600190565b60ff91909116815260200190565b6001600160a01b0381168114614dc157600080fd5b5056fe5265656e7472616e637947756172643a207265656e7472616e742063616c6c006f6e6c792070656e64696e6741646d696e2063616e206163636570742061646d696e536166654d6174683a206d756c7469706c69636174696f6e206f766572666c6f77ddf252ad1be2c89b69c2b068fc378daa952ba7f163c4a11628f55a4df523b3ef496e697469616c2045786368616e67652052617465204d616e74697373612073686f756c642062652067726561746572207a65726fa264697066735822122013b5a7911038f8352b6fe180d048521a6b331c8bd2eb1fa0f28da158cd36cc9464736f6c63430007060033",
  "immutableReferences": {},
  "source": "// SPDX-License-Identifier: BUSL-1.1\npragma solidity 0.7.6;\n\n\nimport \"../liquidity/LPool.sol\";\n\npragma experimental ABIEncoderV2;\n\ncontract UpgradeLPoolV2 is LPool {\n    int public version;\n\n    function getName() external pure returns (string memory)  {\n        return \"LPoolUpgradeV2\";\n    }\n\n    function setVersion() external {\n        version = version + 1;\n    }\n}\n",
  "sourcePath": "/home/mingyue/Smartian/Web3Bugs/contracts/72/openleverage-contracts/contracts/test/UpgradeLPoolV2.sol",
  "compiler": {
    "name": "solc",
    "version": "0.7.6+commit.7338295f.Emscripten.clang"
  },
  "schemaVersion": "3.4.16",
  "updatedAt": "2025-02-26T03:48:01.520Z",
  "devdoc": {
    "kind": "dev",
    "methods": {
      "accrueInterest()": {
        "details": "This calculates interest accrued from the last checkpointed block   up to the current block and writes new checkpoint to storage."
      },
      "allowance(address,address)": {
        "params": {
          "owner": "The address of the account which owns the tokens to be spent",
          "spender": "The address of the account which may transfer tokens"
        },
        "returns": {
          "_0": "The number of tokens allowed to be spent (-1 means infinite)"
        }
      },
      "approve(address,uint256)": {
        "details": "This will overwrite the approval amount for `spender`  and is subject to issues noted [here](https://eips.ethereum.org/EIPS/eip-20#approve)",
        "params": {
          "amount": "The number of tokens that are approved (-1 means infinite)",
          "spender": "The address of the account which may transfer tokens"
        },
        "returns": {
          "_0": "Whether or not the approval succeeded"
        }
      },
      "balanceOf(address)": {
        "params": {
          "owner": "The address of the account to query"
        },
        "returns": {
          "_0": "The number of tokens owned by `owner`"
        }
      },
      "balanceOfUnderlying(address)": {
        "details": "This also accrues interest in a transaction",
        "params": {
          "owner": "The address of the account to query"
        },
        "returns": {
          "_0": "The amount of underlying owned by `owner`"
        }
      },
      "borrowBalanceCurrent(address)": {
        "params": {
          "account": "The address whose balance should be calculated after updating borrowIndex"
        },
        "returns": {
          "_0": "The calculated balance"
        }
      },
      "borrowRatePerBlock()": {
        "returns": {
          "_0": "The borrow interest rate per block, scaled by 1e18"
        }
      },
      "exchangeRateCurrent()": {
        "returns": {
          "_0": "Calculated exchange rate scaled by 1e18"
        }
      },
      "exchangeRateStored()": {
        "details": "This function does not accrue interest before calculating the exchange rate",
        "returns": {
          "_0": "Calculated exchange rate scaled by 1e18"
        }
      },
      "getAccountSnapshot(address)": {
        "details": "This is used by controller to more efficiently perform liquidity checks.",
        "params": {
          "account": "Address of the account to snapshot"
        },
        "returns": {
          "_0": "( token balance, borrow balance, exchange rate mantissa)"
        }
      },
      "getCash()": {
        "returns": {
          "_0": "The quantity of underlying asset owned by this contract"
        }
      },
      "initialize(address,bool,address,uint256,uint256,uint256,uint256,uint256,string,string,uint8)": {
        "params": {
          "baseRatePerBlock_": "The base interest rate which is the y-intercept when utilization rate is 0",
          "controller_": "The address of the Controller",
          "decimals_": "EIP-20 decimal precision of this token",
          "initialExchangeRateMantissa_": "The initial exchange rate, scaled by 1e18",
          "jumpMultiplierPerBlock_": "The multiplierPerBlock after hitting a specified utilization point",
          "kink_": "The utilization point at which the jump multiplier is applied",
          "multiplierPerBlock_": "The multiplier of utilization rate that gives the slope of the interest rate",
          "name_": "EIP-20 name of this token",
          "symbol_": "EIP-20 symbol of this token"
        }
      },
      "mint(uint256)": {
        "details": "Accrues interest whether or not the operation succeeds, unless reverted",
        "params": {
          "mintAmount": "The amount of the underlying asset to supply"
        }
      },
      "redeem(uint256)": {
        "details": "Accrues interest whether or not the operation succeeds, unless reverted",
        "params": {
          "redeemTokens": "The number of lTokens to redeem into underlying"
        }
      },
      "redeemUnderlying(uint256)": {
        "details": "Accrues interest whether or not the operation succeeds, unless reverted",
        "params": {
          "redeemAmount": "The amount of underlying to redeem"
        }
      },
      "repayBorrowBehalf(address,uint256)": {
        "params": {
          "borrower": "the account with the debt being payed off",
          "repayAmount": "The amount to repay"
        }
      },
      "setController(address)": {
        "details": "Admin function to set a new controller"
      },
      "supplyRatePerBlock()": {
        "returns": {
          "_0": "The supply interest rate per block, scaled by 1e18"
        }
      },
      "totalBorrowsCurrent()": {
        "returns": {
          "_0": "The total borrows with interest"
        }
      },
      "transfer(address,uint256)": {
        "params": {
          "amount": "The number of tokens to transfer",
          "dst": "The address of the destination account"
        },
        "returns": {
          "_0": "Whether or not the transfer succeeded"
        }
      },
      "transferFrom(address,address,uint256)": {
        "params": {
          "amount": "The number of tokens to transfer",
          "dst": "The address of the destination account",
          "src": "The address of the source account"
        },
        "returns": {
          "_0": "Whether or not the transfer succeeded"
        }
      }
    },
    "version": 1
  },
  "userdoc": {
    "events": {
      "AccrueInterest(uint256,uint256,uint256,uint256)": {
        "notice": "Event emitted when interest is accrued"
      },
      "Approval(address,address,uint256)": {
        "notice": "EIP20 Approval event"
      },
      "Borrow(address,address,uint256,uint256,uint256)": {
        "notice": "Event emitted when underlying is borrowed"
      },
      "Mint(address,uint256,uint256)": {
        "notice": "Event emitted when tokens are minted"
      },
      "NewController(address,address)": {
        "notice": "Event emitted when controller is changed"
      },
      "NewInterestParam(uint256,uint256,uint256,uint256)": {
        "notice": "Event emitted when interestParam is changed"
      },
      "NewReserveFactor(uint256,uint256)": {
        "notice": "Event emitted when the reserve factor is changed"
      },
      "Redeem(address,uint256,uint256)": {
        "notice": "Event emitted when tokens are redeemed"
      },
      "RepayBorrow(address,address,uint256,uint256,uint256,uint256)": {
        "notice": "Event emitted when a borrow is repaid"
      },
      "ReservesAdded(address,uint256,uint256)": {
        "notice": "Event emitted when the reserves are added"
      },
      "ReservesReduced(address,uint256,uint256)": {
        "notice": "Event emitted when the reserves are reduced"
      },
      "Transfer(address,address,uint256)": {
        "notice": "EIP20 Transfer event"
      }
    },
    "kind": "user",
    "methods": {
      "accrualBlockNumber()": {
        "notice": "Block number that interest was last accrued at"
      },
      "accrueInterest()": {
        "notice": "Applies accrued interest to total borrows and reserves"
      },
      "allowance(address,address)": {
        "notice": "Get the current allowance from `owner` for `spender`"
      },
      "approve(address,uint256)": {
        "notice": "Approve `spender` to transfer up to `amount` from `src`"
      },
      "balanceOf(address)": {
        "notice": "Get the token balance of the `owner`"
      },
      "balanceOfUnderlying(address)": {
        "notice": "Get the underlying balance of the `owner`"
      },
      "borrowBalanceCurrent(address)": {
        "notice": "Accrue interest to updated borrowIndex and then calculate account's borrow balance using the updated borrowIndex"
      },
      "borrowCapFactorMantissa()": {
        "notice": "Maximum fraction of borrower cap(80%)"
      },
      "borrowIndex()": {
        "notice": "Accumulator of the total earned interest rate since the opening of the market"
      },
      "borrowRatePerBlock()": {
        "notice": "Returns the current per-block borrow interest rate for this cToken"
      },
      "controller()": {
        "notice": "Contract which oversees inter-lToken operations"
      },
      "decimals()": {
        "notice": "EIP-20 token decimals for this token"
      },
      "exchangeRateCurrent()": {
        "notice": "Accrue interest then return the up-to-date exchange rate"
      },
      "exchangeRateStored()": {
        "notice": "Calculates the exchange rate from the underlying to the LToken"
      },
      "getAccountSnapshot(address)": {
        "notice": "Get a snapshot of the account's balances, and the cached exchange rate"
      },
      "getCash()": {
        "notice": "Get cash balance of this cToken in the underlying asset"
      },
      "implementation()": {
        "notice": "Implementation address for this contract"
      },
      "initialize(address,bool,address,uint256,uint256,uint256,uint256,uint256,string,string,uint8)": {
        "notice": "Initialize the money market"
      },
      "mint(uint256)": {
        "notice": "Sender supplies assets into the market and receives lTokens in exchange"
      },
      "name()": {
        "notice": "EIP-20 token name for this token"
      },
      "redeem(uint256)": {
        "notice": "Sender redeems lTokens in exchange for the underlying asset"
      },
      "redeemUnderlying(uint256)": {
        "notice": "Sender redeems lTokens in exchange for a specified amount of underlying asset"
      },
      "repayBorrowBehalf(address,uint256)": {
        "notice": "Sender repays a borrow belonging to borrower"
      },
      "reserveFactorMantissa()": {
        "notice": "Fraction of interest currently set aside for reserves 20%"
      },
      "setController(address)": {
        "notice": "Sets a new CONTROLLER for the market"
      },
      "supplyRatePerBlock()": {
        "notice": "Returns the current per-block supply interest rate for this cToken"
      },
      "symbol()": {
        "notice": "EIP-20 token symbol for this token"
      },
      "totalBorrows()": {
        "notice": "Total amount of outstanding borrows of the underlying in this market"
      },
      "totalBorrowsCurrent()": {
        "notice": "Returns the current total borrows plus accrued interest"
      },
      "totalSupply()": {
        "notice": "Total number of tokens in circulation"
      },
      "transfer(address,uint256)": {
        "notice": "Transfer `amount` tokens from `msg.sender` to `dst`"
      },
      "transferFrom(address,address,uint256)": {
        "notice": "Transfer `amount` tokens from `src` to `dst`"
      }
    },
    "version": 1
  }
}