{
  "contractName": "XOLEDelegator",
  "abi": [
    {
      "inputs": [
        {
          "internalType": "address",
          "name": "_oleToken",
          "type": "address"
        },
        {
          "internalType": "contract DexAggregatorInterface",
          "name": "_dexAgg",
          "type": "address"
        },
        {
          "internalType": "uint256",
          "name": "_devFundRatio",
          "type": "uint256"
        },
        {
          "internalType": "address",
          "name": "_dev",
          "type": "address"
        },
        {
          "internalType": "address payable",
          "name": "_admin",
          "type": "address"
        },
        {
          "internalType": "address",
          "name": "implementation_",
          "type": "address"
        }
      ],
      "stateMutability": "nonpayable",
      "type": "constructor"
    },
    {
      "anonymous": false,
      "inputs": [
        {
          "indexed": false,
          "internalType": "address",
          "name": "oldAdmin",
          "type": "address"
        },
        {
          "indexed": false,
          "internalType": "address",
          "name": "newAdmin",
          "type": "address"
        }
      ],
      "name": "NewAdmin",
      "type": "event"
    },
    {
      "anonymous": false,
      "inputs": [
        {
          "indexed": false,
          "internalType": "address",
          "name": "oldImplementation",
          "type": "address"
        },
        {
          "indexed": false,
          "internalType": "address",
          "name": "newImplementation",
          "type": "address"
        }
      ],
      "name": "NewImplementation",
      "type": "event"
    },
    {
      "anonymous": false,
      "inputs": [
        {
          "indexed": false,
          "internalType": "address",
          "name": "oldPendingAdmin",
          "type": "address"
        },
        {
          "indexed": false,
          "internalType": "address",
          "name": "newPendingAdmin",
          "type": "address"
        }
      ],
      "name": "NewPendingAdmin",
      "type": "event"
    },
    {
      "stateMutability": "payable",
      "type": "fallback"
    },
    {
      "inputs": [],
      "name": "acceptAdmin",
      "outputs": [],
      "stateMutability": "nonpayable",
      "type": "function"
    },
    {
      "inputs": [],
      "name": "admin",
      "outputs": [
        {
          "internalType": "address payable",
          "name": "",
          "type": "address"
        }
      ],
      "stateMutability": "view",
      "type": "function"
    },
    {
      "inputs": [
        {
          "internalType": "bytes",
          "name": "data",
          "type": "bytes"
        }
      ],
      "name": "delegateToImplementation",
      "outputs": [
        {
          "internalType": "bytes",
          "name": "",
          "type": "bytes"
        }
      ],
      "stateMutability": "nonpayable",
      "type": "function"
    },
    {
      "inputs": [
        {
          "internalType": "bytes",
          "name": "data",
          "type": "bytes"
        }
      ],
      "name": "delegateToViewImplementation",
      "outputs": [
        {
          "internalType": "bytes",
          "name": "",
          "type": "bytes"
        }
      ],
      "stateMutability": "view",
      "type": "function"
    },
    {
      "inputs": [],
      "name": "developer",
      "outputs": [
        {
          "internalType": "address payable",
          "name": "",
          "type": "address"
        }
      ],
      "stateMutability": "view",
      "type": "function"
    },
    {
      "inputs": [],
      "name": "implementation",
      "outputs": [
        {
          "internalType": "address",
          "name": "",
          "type": "address"
        }
      ],
      "stateMutability": "view",
      "type": "function"
    },
    {
      "inputs": [],
      "name": "pendingAdmin",
      "outputs": [
        {
          "internalType": "address payable",
          "name": "",
          "type": "address"
        }
      ],
      "stateMutability": "view",
      "type": "function"
    },
    {
      "inputs": [
        {
          "internalType": "address payable",
          "name": "newPendingAdmin",
          "type": "address"
        }
      ],
      "name": "setPendingAdmin",
      "outputs": [],
      "stateMutability": "nonpayable",
      "type": "function"
    },
    {
      "stateMutability": "payable",
      "type": "receive"
    },
    {
      "inputs": [
        {
          "internalType": "address",
          "name": "implementation_",
          "type": "address"
        }
      ],
      "name": "setImplementation",
      "outputs": [],
      "stateMutability": "nonpayable",
      "type": "function"
    }
  ],
  "bytecode": "0x608060405234801561001057600080fd5b50604051610bf7380380610bf783398101604081905261002f9161019c565b60038054336001600160a01b031991821681179092556001805490911690911790556040516100a190829061006e908990899089908990602401610218565b60408051601f198184030181529190526020810180516001600160e01b03908116632f880c2560e21b179091526100db16565b50600080546001600160a01b039283166001600160a01b031991821617909155600180549390921692169190911790555061025b92505050565b6060600080846001600160a01b0316846040518082805190602001908083835b6020831061011a5780518252601f1990920191602091820191016100fb565b6001836020036101000a038019825116818451168082178552505050505050905001915050600060405180830381855af49150503d806000811461017a576040519150601f19603f3d011682016040523d82523d6000602084013e61017f565b606091505b50915091506000821415610194573d60208201fd5b949350505050565b60008060008060008060c087890312156101b4578182fd5b86516101bf81610243565b60208801519096506101d081610243565b6040880151606089015191965094506101e881610243565b60808801519093506101f981610243565b60a088015190925061020a81610243565b809150509295509295509295565b6001600160a01b03948516815292841660208401526040830191909152909116606082015260800190565b6001600160a01b038116811461025857600080fd5b50565b61098d8061026a6000396000f3fe60806040526004361061008a5760003560e01c80634dd18bf5116100595780634dd18bf51461012e5780635c60da1b1461014e578063ca4b208b14610163578063d784d42614610178578063f851a4401461019857610099565b80630933c1ed146100a15780630e18b681146100d757806326782247146100ec5780634487152f1461010e57610099565b36610099576100976101ad565b005b6100976101ad565b3480156100ad57600080fd5b506100c16100bc366004610807565b610238565b6040516100ce91906108ca565b60405180910390f35b3480156100e357600080fd5b50610097610257565b3480156100f857600080fd5b50610101610357565b6040516100ce919061089c565b34801561011a57600080fd5b506100c1610129366004610807565b610366565b34801561013a57600080fd5b506100976101493660046107e4565b610586565b34801561015a57600080fd5b5061010161063f565b34801561016f57600080fd5b5061010161064e565b34801561018457600080fd5b506100976101933660046107e4565b61065d565b3480156101a457600080fd5b50610101610714565b361561023657600080546040516001600160a01b0390911690829036908083838082843760405192019450600093509091505080830381855af49150503d8060008114610216576040519150601f19603f3d011682016040523d82523d6000602084013e61021b565b606091505b505090506040513d6000823e818015610232573d82f35b3d82fd5b565b600054606090610251906001600160a01b031683610723565b92915050565b6002546001600160a01b031633146102a05760405162461bcd60e51b81526004018080602001828103825260228152602001806109366022913960400191505060405180910390fd5b60018054600280546001600160a01b038082166001600160a01b031980861682179687905590921690925560408051938316808552949092166020840152815190927ff9ffabca9c8276e99321725bcb43fb076a6c66a54b7f21c4e8146d8519b417dc92908290030190a1600254604080516001600160a01b038085168252909216602083015280517fca4f2f25d0898edd99413412fb94012f9e54ec8142f9b093e7720646a95b16a99281900390910190a15050565b6002546001600160a01b031681565b6060600080306001600160a01b0316846040516024018080602001828103825283818151815260200191508051906020019080838360005b838110156103b657818101518382015260200161039e565b50505050905090810190601f1680156103e35780820380516001836020036101000a031916815260200191505b5060408051601f198184030181529181526020820180516001600160e01b0316630933c1ed60e01b178152905182519295509350839250908083835b6020831061043e5780518252601f19909201916020918201910161041f565b6001836020036101000a038019825116818451168082178552505050505050905001915050600060405180830381855afa9150503d806000811461049e576040519150601f19603f3d011682016040523d82523d6000602084013e6104a3565b606091505b509150915060008214156104b8573d60208201fd5b8080602001905160208110156104cd57600080fd5b81019080805160405193929190846401000000008211156104ed57600080fd5b90830190602082018581111561050257600080fd5b825164010000000081118282018810171561051c57600080fd5b82525081516020918201929091019080838360005b83811015610549578181015183820152602001610531565b50505050905090810190601f1680156105765780820380516001836020036101000a031916815260200191505b5060405250505092505050919050565b6001546001600160a01b031633146105dc576040805162461bcd60e51b815260206004820152601460248201527331b0b63632b91036bab9ba1031329030b236b4b760611b604482015290519081900360640190fd5b600280546001600160a01b038381166001600160a01b0319831681179093556040805191909216808252602082019390935281517fca4f2f25d0898edd99413412fb94012f9e54ec8142f9b093e7720646a95b16a9929181900390910190a15050565b6000546001600160a01b031681565b6003546001600160a01b031681565b6001546001600160a01b031633146106b3576040805162461bcd60e51b815260206004820152601460248201527331b0b63632b91036bab9ba1031329030b236b4b760611b604482015290519081900360640190fd5b600080546001600160a01b038381166001600160a01b031983161792839055604051918116927fd604de94d45953f9138079ec1b82d533cb2160c906d1076d1f7ed54befbca97a9261070892859216906108b0565b60405180910390a15050565b6001546001600160a01b031681565b6060600080846001600160a01b0316846040518082805190602001908083835b602083106107625780518252601f199092019160209182019101610743565b6001836020036101000a038019825116818451168082178552505050505050905001915050600060405180830381855af49150503d80600081146107c2576040519150601f19603f3d011682016040523d82523d6000602084013e6107c7565b606091505b509150915060008214156107dc573d60208201fd5b949350505050565b6000602082840312156107f5578081fd5b81356108008161091d565b9392505050565b60006020808385031215610819578182fd5b823567ffffffffffffffff80821115610830578384fd5b818501915085601f830112610843578384fd5b81358181111561084f57fe5b604051601f8201601f191681018501838111828210171561086c57fe5b6040528181528382018501881015610882578586fd5b818585018683013790810190930193909352509392505050565b6001600160a01b0391909116815260200190565b6001600160a01b0392831681529116602082015260400190565b6000602080835283518082850152825b818110156108f6578581018301518582016040015282016108da565b818111156109075783604083870101525b50601f01601f1916929092016040019392505050565b6001600160a01b038116811461093257600080fd5b5056fe6f6e6c792070656e64696e6741646d696e2063616e206163636570742061646d696ea2646970667358221220d0fea0d3db5396198340b241a03921e86f74a44436846415a8c76cc65a9d7e0b64736f6c63430007060033",
  "immutableReferences": {},
  "source": "// SPDX-License-Identifier: BUSL-1.1\npragma solidity 0.7.6;\n\npragma experimental ABIEncoderV2;\n\nimport \"./Types.sol\";\nimport \"./Adminable.sol\";\nimport \"./DelegatorInterface.sol\";\nimport \"./XOLEInterface.sol\";\n\n/**\n  * @title OpenLevDelegator\n  * @author OpenLeverage\n  */\ncontract XOLEDelegator is DelegatorInterface, Adminable {\n\n    constructor(\n        address _oleToken,\n        DexAggregatorInterface _dexAgg,\n        uint _devFundRatio,\n        address _dev,\n        address payable _admin,\n        address implementation_){\n        admin = msg.sender;\n        // Creator of the contract is admin during initialization\n        // First delegate gets to initialize the delegator (i.e. storage contract)\n        delegateTo(implementation_, abi.encodeWithSignature(\"initialize(address,address,uint256,address)\",\n            _oleToken,\n            _dexAgg,\n            _devFundRatio,\n            _dev\n            ));\n        implementation = implementation_;\n\n        // Set the proper admin now that initialization is done\n        admin = _admin;\n    }\n\n    /**\n     * Called by the admin to update the implementation of the delegator\n     * @param implementation_ The address of the new implementation for delegation\n     */\n    function setImplementation(address implementation_) public override onlyAdmin {\n        address oldImplementation = implementation;\n        implementation = implementation_;\n        emit NewImplementation(oldImplementation, implementation);\n    }\n\n}\n",
  "sourcePath": "/home/mingyue/Smartian/Web3Bugs/contracts/72/openleverage-contracts/contracts/XOLEDelegator.sol",
  "compiler": {
    "name": "solc",
    "version": "0.7.6+commit.7338295f.Emscripten.clang"
  },
  "schemaVersion": "3.4.16",
  "updatedAt": "2025-02-26T03:47:59.439Z",
  "devdoc": {
    "author": "OpenLeverage",
    "kind": "dev",
    "methods": {
      "delegateToImplementation(bytes)": {
        "details": "It returns to the external caller whatever the implementation returns or forwards reverts",
        "params": {
          "data": "The raw data to delegatecall"
        },
        "returns": {
          "_0": "The returned bytes from the delegatecall"
        }
      },
      "delegateToViewImplementation(bytes)": {
        "details": "It returns to the external caller whatever the implementation returns or forwards reverts  There are an additional 2 prefix uints from the wrapper returndata, which we ignore since we make an extra hop.",
        "params": {
          "data": "The raw data to delegatecall"
        },
        "returns": {
          "_0": "The returned bytes from the delegatecall"
        }
      },
      "setImplementation(address)": {
        "params": {
          "implementation_": "The address of the new implementation for delegation"
        }
      }
    },
    "title": "OpenLevDelegator",
    "version": 1
  },
  "userdoc": {
    "events": {
      "NewImplementation(address,address)": {
        "notice": "Emitted when implementation is changed"
      }
    },
    "kind": "user",
    "methods": {
      "delegateToImplementation(bytes)": {
        "notice": "Delegates execution to the implementation contract"
      },
      "delegateToViewImplementation(bytes)": {
        "notice": "Delegates execution to an implementation contract"
      },
      "implementation()": {
        "notice": "Implementation address for this contract"
      },
      "setImplementation(address)": {
        "notice": "Called by the admin to update the implementation of the delegator"
      }
    },
    "version": 1
  }
}