{
  "contractName": "XOLE",
  "abi": [
    {
      "inputs": [],
      "stateMutability": "nonpayable",
      "type": "constructor"
    },
    {
      "anonymous": false,
      "inputs": [
        {
          "indexed": true,
          "internalType": "address",
          "name": "delegator",
          "type": "address"
        },
        {
          "indexed": true,
          "internalType": "address",
          "name": "fromDelegate",
          "type": "address"
        },
        {
          "indexed": true,
          "internalType": "address",
          "name": "toDelegate",
          "type": "address"
        }
      ],
      "name": "DelegateChanged",
      "type": "event"
    },
    {
      "anonymous": false,
      "inputs": [
        {
          "indexed": true,
          "internalType": "address",
          "name": "delegate",
          "type": "address"
        },
        {
          "indexed": false,
          "internalType": "uint256",
          "name": "previousBalance",
          "type": "uint256"
        },
        {
          "indexed": false,
          "internalType": "uint256",
          "name": "newBalance",
          "type": "uint256"
        }
      ],
      "name": "DelegateVotesChanged",
      "type": "event"
    },
    {
      "anonymous": false,
      "inputs": [
        {
          "indexed": true,
          "internalType": "address",
          "name": "provider",
          "type": "address"
        },
        {
          "indexed": false,
          "internalType": "uint256",
          "name": "value",
          "type": "uint256"
        },
        {
          "indexed": true,
          "internalType": "uint256",
          "name": "locktime",
          "type": "uint256"
        },
        {
          "indexed": false,
          "internalType": "int128",
          "name": "type_",
          "type": "int128"
        },
        {
          "indexed": false,
          "internalType": "uint256",
          "name": "ts",
          "type": "uint256"
        }
      ],
      "name": "Deposit",
      "type": "event"
    },
    {
      "anonymous": false,
      "inputs": [
        {
          "indexed": true,
          "internalType": "address",
          "name": "delegatee",
          "type": "address"
        },
        {
          "indexed": true,
          "internalType": "uint256",
          "name": "nonce",
          "type": "uint256"
        },
        {
          "indexed": false,
          "internalType": "uint256",
          "name": "expiry",
          "type": "uint256"
        },
        {
          "indexed": false,
          "internalType": "uint8",
          "name": "v",
          "type": "uint8"
        },
        {
          "indexed": false,
          "internalType": "bytes32",
          "name": "r",
          "type": "bytes32"
        },
        {
          "indexed": false,
          "internalType": "bytes32",
          "name": "s",
          "type": "bytes32"
        }
      ],
      "name": "FailedDelegateBySig",
      "type": "event"
    },
    {
      "anonymous": false,
      "inputs": [
        {
          "indexed": false,
          "internalType": "address",
          "name": "oldAdmin",
          "type": "address"
        },
        {
          "indexed": false,
          "internalType": "address",
          "name": "newAdmin",
          "type": "address"
        }
      ],
      "name": "NewAdmin",
      "type": "event"
    },
    {
      "anonymous": false,
      "inputs": [
        {
          "indexed": false,
          "internalType": "address",
          "name": "oldPendingAdmin",
          "type": "address"
        },
        {
          "indexed": false,
          "internalType": "address",
          "name": "newPendingAdmin",
          "type": "address"
        }
      ],
      "name": "NewPendingAdmin",
      "type": "event"
    },
    {
      "anonymous": false,
      "inputs": [
        {
          "indexed": false,
          "internalType": "address",
          "name": "fromToken",
          "type": "address"
        },
        {
          "indexed": false,
          "internalType": "uint256",
          "name": "convertAmount",
          "type": "uint256"
        },
        {
          "indexed": false,
          "internalType": "uint256",
          "name": "reward",
          "type": "uint256"
        }
      ],
      "name": "RewardAdded",
      "type": "event"
    },
    {
      "anonymous": false,
      "inputs": [
        {
          "indexed": false,
          "internalType": "address",
          "name": "fromToken",
          "type": "address"
        },
        {
          "indexed": false,
          "internalType": "address",
          "name": "toToken",
          "type": "address"
        },
        {
          "indexed": false,
          "internalType": "uint256",
          "name": "convertAmount",
          "type": "uint256"
        },
        {
          "indexed": false,
          "internalType": "uint256",
          "name": "returnAmount",
          "type": "uint256"
        }
      ],
      "name": "RewardConvert",
      "type": "event"
    },
    {
      "anonymous": false,
      "inputs": [
        {
          "indexed": false,
          "internalType": "address",
          "name": "paidTo",
          "type": "address"
        },
        {
          "indexed": false,
          "internalType": "uint256",
          "name": "amount",
          "type": "uint256"
        }
      ],
      "name": "RewardPaid",
      "type": "event"
    },
    {
      "anonymous": false,
      "inputs": [
        {
          "indexed": false,
          "internalType": "uint256",
          "name": "prevSupply",
          "type": "uint256"
        },
        {
          "indexed": false,
          "internalType": "uint256",
          "name": "supply",
          "type": "uint256"
        }
      ],
      "name": "Supply",
      "type": "event"
    },
    {
      "anonymous": false,
      "inputs": [
        {
          "indexed": true,
          "internalType": "address",
          "name": "from",
          "type": "address"
        },
        {
          "indexed": true,
          "internalType": "address",
          "name": "to",
          "type": "address"
        },
        {
          "indexed": false,
          "internalType": "uint256",
          "name": "value",
          "type": "uint256"
        }
      ],
      "name": "Transfer",
      "type": "event"
    },
    {
      "anonymous": false,
      "inputs": [
        {
          "indexed": true,
          "internalType": "address",
          "name": "provider",
          "type": "address"
        },
        {
          "indexed": false,
          "internalType": "uint256",
          "name": "value",
          "type": "uint256"
        },
        {
          "indexed": false,
          "internalType": "uint256",
          "name": "ts",
          "type": "uint256"
        }
      ],
      "name": "Withdraw",
      "type": "event"
    },
    {
      "inputs": [],
      "name": "DELEGATION_TYPEHASH",
      "outputs": [
        {
          "internalType": "bytes32",
          "name": "",
          "type": "bytes32"
        }
      ],
      "stateMutability": "view",
      "type": "function"
    },
    {
      "inputs": [],
      "name": "DOMAIN_TYPEHASH",
      "outputs": [
        {
          "internalType": "bytes32",
          "name": "",
          "type": "bytes32"
        }
      ],
      "stateMutability": "view",
      "type": "function"
    },
    {
      "inputs": [],
      "name": "acceptAdmin",
      "outputs": [],
      "stateMutability": "nonpayable",
      "type": "function"
    },
    {
      "inputs": [],
      "name": "admin",
      "outputs": [
        {
          "internalType": "address payable",
          "name": "",
          "type": "address"
        }
      ],
      "stateMutability": "view",
      "type": "function"
    },
    {
      "inputs": [
        {
          "internalType": "address",
          "name": "",
          "type": "address"
        },
        {
          "internalType": "uint32",
          "name": "",
          "type": "uint32"
        }
      ],
      "name": "checkpoints",
      "outputs": [
        {
          "internalType": "uint32",
          "name": "fromBlock",
          "type": "uint32"
        },
        {
          "internalType": "uint256",
          "name": "votes",
          "type": "uint256"
        }
      ],
      "stateMutability": "view",
      "type": "function"
    },
    {
      "inputs": [],
      "name": "decimals",
      "outputs": [
        {
          "internalType": "uint8",
          "name": "",
          "type": "uint8"
        }
      ],
      "stateMutability": "view",
      "type": "function"
    },
    {
      "inputs": [
        {
          "internalType": "address",
          "name": "",
          "type": "address"
        }
      ],
      "name": "delegates",
      "outputs": [
        {
          "internalType": "address",
          "name": "",
          "type": "address"
        }
      ],
      "stateMutability": "view",
      "type": "function"
    },
    {
      "inputs": [],
      "name": "dev",
      "outputs": [
        {
          "internalType": "address",
          "name": "",
          "type": "address"
        }
      ],
      "stateMutability": "view",
      "type": "function"
    },
    {
      "inputs": [],
      "name": "devFund",
      "outputs": [
        {
          "internalType": "uint256",
          "name": "",
          "type": "uint256"
        }
      ],
      "stateMutability": "view",
      "type": "function"
    },
    {
      "inputs": [],
      "name": "devFundRatio",
      "outputs": [
        {
          "internalType": "uint256",
          "name": "",
          "type": "uint256"
        }
      ],
      "stateMutability": "view",
      "type": "function"
    },
    {
      "inputs": [],
      "name": "developer",
      "outputs": [
        {
          "internalType": "address payable",
          "name": "",
          "type": "address"
        }
      ],
      "stateMutability": "view",
      "type": "function"
    },
    {
      "inputs": [],
      "name": "dexAgg",
      "outputs": [
        {
          "internalType": "contract DexAggregatorInterface",
          "name": "",
          "type": "address"
        }
      ],
      "stateMutability": "view",
      "type": "function"
    },
    {
      "inputs": [],
      "name": "implementation",
      "outputs": [
        {
          "internalType": "address",
          "name": "",
          "type": "address"
        }
      ],
      "stateMutability": "view",
      "type": "function"
    },
    {
      "inputs": [],
      "name": "lastUpdateTime",
      "outputs": [
        {
          "internalType": "uint256",
          "name": "",
          "type": "uint256"
        }
      ],
      "stateMutability": "view",
      "type": "function"
    },
    {
      "inputs": [
        {
          "internalType": "address",
          "name": "",
          "type": "address"
        }
      ],
      "name": "locked",
      "outputs": [
        {
          "internalType": "uint256",
          "name": "amount",
          "type": "uint256"
        },
        {
          "internalType": "uint256",
          "name": "end",
          "type": "uint256"
        }
      ],
      "stateMutability": "view",
      "type": "function"
    },
    {
      "inputs": [],
      "name": "name",
      "outputs": [
        {
          "internalType": "string",
          "name": "",
          "type": "string"
        }
      ],
      "stateMutability": "view",
      "type": "function"
    },
    {
      "inputs": [
        {
          "internalType": "address",
          "name": "",
          "type": "address"
        }
      ],
      "name": "nonces",
      "outputs": [
        {
          "internalType": "uint256",
          "name": "",
          "type": "uint256"
        }
      ],
      "stateMutability": "view",
      "type": "function"
    },
    {
      "inputs": [
        {
          "internalType": "address",
          "name": "",
          "type": "address"
        }
      ],
      "name": "numCheckpoints",
      "outputs": [
        {
          "internalType": "uint32",
          "name": "",
          "type": "uint32"
        }
      ],
      "stateMutability": "view",
      "type": "function"
    },
    {
      "inputs": [],
      "name": "oleToken",
      "outputs": [
        {
          "internalType": "contract IERC20",
          "name": "",
          "type": "address"
        }
      ],
      "stateMutability": "view",
      "type": "function"
    },
    {
      "inputs": [],
      "name": "pendingAdmin",
      "outputs": [
        {
          "internalType": "address payable",
          "name": "",
          "type": "address"
        }
      ],
      "stateMutability": "view",
      "type": "function"
    },
    {
      "inputs": [],
      "name": "rewardPerTokenStored",
      "outputs": [
        {
          "internalType": "uint256",
          "name": "",
          "type": "uint256"
        }
      ],
      "stateMutability": "view",
      "type": "function"
    },
    {
      "inputs": [
        {
          "internalType": "address",
          "name": "",
          "type": "address"
        }
      ],
      "name": "rewards",
      "outputs": [
        {
          "internalType": "uint256",
          "name": "",
          "type": "uint256"
        }
      ],
      "stateMutability": "view",
      "type": "function"
    },
    {
      "inputs": [
        {
          "internalType": "address payable",
          "name": "newPendingAdmin",
          "type": "address"
        }
      ],
      "name": "setPendingAdmin",
      "outputs": [],
      "stateMutability": "nonpayable",
      "type": "function"
    },
    {
      "inputs": [],
      "name": "symbol",
      "outputs": [
        {
          "internalType": "string",
          "name": "",
          "type": "string"
        }
      ],
      "stateMutability": "view",
      "type": "function"
    },
    {
      "inputs": [],
      "name": "totalLocked",
      "outputs": [
        {
          "internalType": "uint256",
          "name": "",
          "type": "uint256"
        }
      ],
      "stateMutability": "view",
      "type": "function"
    },
    {
      "inputs": [],
      "name": "totalRewarded",
      "outputs": [
        {
          "internalType": "uint256",
          "name": "",
          "type": "uint256"
        }
      ],
      "stateMutability": "view",
      "type": "function"
    },
    {
      "inputs": [],
      "name": "totalStaked",
      "outputs": [
        {
          "internalType": "uint256",
          "name": "",
          "type": "uint256"
        }
      ],
      "stateMutability": "view",
      "type": "function"
    },
    {
      "inputs": [],
      "name": "totalSupply",
      "outputs": [
        {
          "internalType": "uint256",
          "name": "",
          "type": "uint256"
        }
      ],
      "stateMutability": "view",
      "type": "function"
    },
    {
      "inputs": [
        {
          "internalType": "uint256",
          "name": "",
          "type": "uint256"
        }
      ],
      "name": "totalSupplyCheckpoints",
      "outputs": [
        {
          "internalType": "uint32",
          "name": "fromBlock",
          "type": "uint32"
        },
        {
          "internalType": "uint256",
          "name": "votes",
          "type": "uint256"
        }
      ],
      "stateMutability": "view",
      "type": "function"
    },
    {
      "inputs": [],
      "name": "totalSupplyNumCheckpoints",
      "outputs": [
        {
          "internalType": "uint256",
          "name": "",
          "type": "uint256"
        }
      ],
      "stateMutability": "view",
      "type": "function"
    },
    {
      "inputs": [
        {
          "internalType": "address",
          "name": "",
          "type": "address"
        }
      ],
      "name": "userRewardPerTokenPaid",
      "outputs": [
        {
          "internalType": "uint256",
          "name": "",
          "type": "uint256"
        }
      ],
      "stateMutability": "view",
      "type": "function"
    },
    {
      "inputs": [],
      "name": "withdrewReward",
      "outputs": [
        {
          "internalType": "uint256",
          "name": "",
          "type": "uint256"
        }
      ],
      "stateMutability": "view",
      "type": "function"
    },
    {
      "inputs": [
        {
          "internalType": "address",
          "name": "_oleToken",
          "type": "address"
        },
        {
          "internalType": "contract DexAggregatorInterface",
          "name": "_dexAgg",
          "type": "address"
        },
        {
          "internalType": "uint256",
          "name": "_devFundRatio",
          "type": "uint256"
        },
        {
          "internalType": "address",
          "name": "_dev",
          "type": "address"
        }
      ],
      "name": "initialize",
      "outputs": [],
      "stateMutability": "nonpayable",
      "type": "function"
    },
    {
      "inputs": [
        {
          "internalType": "contract DexAggregatorInterface",
          "name": "newDexAgg",
          "type": "address"
        }
      ],
      "name": "setDexAgg",
      "outputs": [],
      "stateMutability": "nonpayable",
      "type": "function"
    },
    {
      "inputs": [],
      "name": "withdrawDevFund",
      "outputs": [],
      "stateMutability": "nonpayable",
      "type": "function"
    },
    {
      "inputs": [
        {
          "internalType": "uint256",
          "name": "amount",
          "type": "uint256"
        },
        {
          "internalType": "uint256",
          "name": "minBuyAmount",
          "type": "uint256"
        },
        {
          "internalType": "bytes",
          "name": "dexData",
          "type": "bytes"
        }
      ],
      "name": "convertToSharingToken",
      "outputs": [],
      "stateMutability": "nonpayable",
      "type": "function"
    },
    {
      "inputs": [
        {
          "internalType": "address",
          "name": "account",
          "type": "address"
        }
      ],
      "name": "earned",
      "outputs": [
        {
          "internalType": "uint256",
          "name": "",
          "type": "uint256"
        }
      ],
      "stateMutability": "view",
      "type": "function"
    },
    {
      "inputs": [],
      "name": "withdrawReward",
      "outputs": [],
      "stateMutability": "nonpayable",
      "type": "function"
    },
    {
      "inputs": [
        {
          "internalType": "uint256",
          "name": "newRatio",
          "type": "uint256"
        }
      ],
      "name": "setDevFundRatio",
      "outputs": [],
      "stateMutability": "nonpayable",
      "type": "function"
    },
    {
      "inputs": [
        {
          "internalType": "address",
          "name": "newDev",
          "type": "address"
        }
      ],
      "name": "setDev",
      "outputs": [],
      "stateMutability": "nonpayable",
      "type": "function"
    },
    {
      "inputs": [
        {
          "internalType": "address",
          "name": "addr",
          "type": "address"
        }
      ],
      "name": "balanceOf",
      "outputs": [
        {
          "internalType": "uint256",
          "name": "",
          "type": "uint256"
        }
      ],
      "stateMutability": "view",
      "type": "function"
    },
    {
      "inputs": [
        {
          "internalType": "uint256",
          "name": "blockNumber",
          "type": "uint256"
        }
      ],
      "name": "totalSupplyAt",
      "outputs": [
        {
          "internalType": "uint256",
          "name": "",
          "type": "uint256"
        }
      ],
      "stateMutability": "view",
      "type": "function"
    },
    {
      "inputs": [
        {
          "internalType": "uint256",
          "name": "_value",
          "type": "uint256"
        },
        {
          "internalType": "uint256",
          "name": "_unlock_time",
          "type": "uint256"
        }
      ],
      "name": "create_lock",
      "outputs": [],
      "stateMutability": "nonpayable",
      "type": "function"
    },
    {
      "inputs": [
        {
          "internalType": "uint256",
          "name": "_value",
          "type": "uint256"
        }
      ],
      "name": "increase_amount",
      "outputs": [],
      "stateMutability": "nonpayable",
      "type": "function"
    },
    {
      "inputs": [
        {
          "internalType": "uint256",
          "name": "_unlock_time",
          "type": "uint256"
        }
      ],
      "name": "increase_unlock_time",
      "outputs": [],
      "stateMutability": "nonpayable",
      "type": "function"
    },
    {
      "inputs": [],
      "name": "withdraw",
      "outputs": [],
      "stateMutability": "nonpayable",
      "type": "function"
    },
    {
      "inputs": [
        {
          "internalType": "address",
          "name": "delegatee",
          "type": "address"
        }
      ],
      "name": "delegate",
      "outputs": [],
      "stateMutability": "nonpayable",
      "type": "function"
    },
    {
      "inputs": [
        {
          "internalType": "address",
          "name": "delegatee",
          "type": "address"
        },
        {
          "internalType": "uint256",
          "name": "nonce",
          "type": "uint256"
        },
        {
          "internalType": "uint256",
          "name": "expiry",
          "type": "uint256"
        },
        {
          "internalType": "uint8",
          "name": "v",
          "type": "uint8"
        },
        {
          "internalType": "bytes32",
          "name": "r",
          "type": "bytes32"
        },
        {
          "internalType": "bytes32",
          "name": "s",
          "type": "bytes32"
        }
      ],
      "name": "delegateBySig",
      "outputs": [],
      "stateMutability": "nonpayable",
      "type": "function"
    },
    {
      "inputs": [
        {
          "internalType": "address",
          "name": "delegatee",
          "type": "address"
        },
        {
          "internalType": "uint256[]",
          "name": "nonce",
          "type": "uint256[]"
        },
        {
          "internalType": "uint256[]",
          "name": "expiry",
          "type": "uint256[]"
        },
        {
          "internalType": "uint8[]",
          "name": "v",
          "type": "uint8[]"
        },
        {
          "internalType": "bytes32[]",
          "name": "r",
          "type": "bytes32[]"
        },
        {
          "internalType": "bytes32[]",
          "name": "s",
          "type": "bytes32[]"
        }
      ],
      "name": "delegateBySigs",
      "outputs": [],
      "stateMutability": "nonpayable",
      "type": "function"
    },
    {
      "inputs": [
        {
          "internalType": "address",
          "name": "account",
          "type": "address"
        }
      ],
      "name": "getCurrentVotes",
      "outputs": [
        {
          "internalType": "uint256",
          "name": "",
          "type": "uint256"
        }
      ],
      "stateMutability": "view",
      "type": "function"
    },
    {
      "inputs": [
        {
          "internalType": "address",
          "name": "account",
          "type": "address"
        },
        {
          "internalType": "uint256",
          "name": "blockNumber",
          "type": "uint256"
        }
      ],
      "name": "getPriorVotes",
      "outputs": [
        {
          "internalType": "uint256",
          "name": "",
          "type": "uint256"
        }
      ],
      "stateMutability": "view",
      "type": "function"
    }
  ],
  "bytecode": "0x608060405234801561001057600080fd5b50600380546001600160a01b031916331790556001601a55613f53806100376000396000f3fe608060405234801561001057600080fd5b50600436106102f05760003560e01c8063782d6fe11161019d578063c3cda520116100e9578063d8fdb23a116100a2578063e7a324dc1161007c578063e7a324dc146105ca578063eff7a612146105d2578063f1127ed8146105e5578063f851a440146105f8576102f0565b8063d8fdb23a146105a7578063df136d65146105ba578063df589f3a146105c2576102f0565b8063c3cda52014610548578063c885bc581461055b578063c8f33c9114610563578063ca4b208b1461056b578063cbf9fe5f14610573578063d477f05f14610594576102f0565b806395d89b4111610156578063b40f603411610130578063b40f6034146104f9578063b4b5ea5714610501578063b66e4cdf14610514578063be20309414610535576102f0565b806395d89b4114610333578063981b24d0146104de578063aed29d07146104f1576102f0565b8063782d6fe11461048d5780637ecebe00146104a0578063817b1cd2146104b35780638471eb44146104bb5780638b876347146104c357806391cca3db146104d6576102f0565b80634390d2a81161025c578063587cde1e1161021557806364d16ac4116101ef57806364d16ac41461043457806365fc3873146104475780636fcfff451461045a57806370a082311461047a576102f0565b8063587cde1e146104065780635c19a95c146104195780635c60da1b1461042c576102f0565b80634390d2a8146103b557806348b3ec11146103bd5780634957677c146103d05780634dd18bf5146103e357806353e083a8146103f657806356891412146103fe576102f0565b806320606b70116102ae57806320606b701461036d5780632678224714610375578063313ce5671461037d5780633be60f2e146103925780633ccfd60b1461039a5780633e842df5146103a2576102f0565b80628cc262146102f5578063060d83971461031e57806306fdde03146103335780630700037d146103485780630e18b6811461035b57806318160ddd14610365575b600080fd5b610308610303366004613242565b610600565b6040516103159190613691565b60405180910390f35b610326610613565b60405161031591906135c0565b61033b610622565b6040516103159190613700565b610308610356366004613242565b610642565b610363610654565b005b610308610754565b61030861075a565b61032661077e565b61038561078d565b6040516103159190613d82565b610308610792565b610363610798565b6103636103b036600461346f565b6109db565b610308610a45565b6103636103cb366004613242565b610a4b565b6103636103de36600461346f565b610ac3565b6103636103f1366004613242565b610bab565b610326610c64565b610308610c73565b610326610414366004613242565b610c79565b610363610427366004613242565b610c94565b610326610cc7565b6103636104423660046134c0565b610cd6565b61036361045536600461349f565b61118a565b61046d610468366004613242565b6112b2565b6040516103159190613d5b565b610308610488366004613242565b6112ca565b61030861049b36600461338b565b6112e5565b6103086104ae366004613242565b6114ca565b6103086114dc565b6103086114e2565b6103086104d1366004613242565b6114e8565b6103266114fa565b6103086104ec36600461346f565b611509565b610308611640565b610363611646565b61030861050f366004613242565b611724565b61052761052236600461346f565b611788565b604051610315929190613d6c565b610363610543366004613339565b6117aa565b6103636105563660046133b6565b611864565b610363611872565b6103086118d2565b6103266118d8565b610586610581366004613242565b6118e7565b604051610315929190613d25565b6103636105a2366004613242565b611900565b6103636105b536600461325e565b611978565b610308611b8a565b610308611b90565b610308611b96565b6103636105e036600461346f565b611bba565b6105276105f336600461340f565b611ce5565b610326611d12565b600061060b82611d21565b90505b919050565b6008546001600160a01b031681565b60405180604001604052806004815260200163784f4c4560e01b81525081565b600d6020526000908152604090205481565b6002546001600160a01b0316331461069d5760405162461bcd60e51b8152600401808060200182810382526022815260200180613e346022913960400191505060405180910390fd5b60018054600280546001600160a01b038082166001600160a01b031980861682179687905590921690925560408051938316808552949092166020840152815190927ff9ffabca9c8276e99321725bcb43fb076a6c66a54b7f21c4e8146d8519b417dc92908290030190a1600254604080516001600160a01b038085168252909216602083015280517fca4f2f25d0898edd99413412fb94012f9e54ec8142f9b093e7720646a95b16a99281900390910190a15050565b60045481565b7f8cad95687ba82c2ce50e74f7b754645e5117c3a5bec8151c0726d5857980a86681565b6002546001600160a01b031681565b601281565b60165481565b6002601a5414156107de576040805162461bcd60e51b815260206004820152601f6024820152600080516020613e14833981519152604482015290519081900360640190fd5b6002601a55336107ee6000611d8e565b6012556107fa81611d21565b6001600160a01b0382166000908152600d6020908152604080832093909355601254601382528383205533825260078152908290208251808401909352805483526001015490820152610851565b60405180910390fd5b80602001514210156108755760405162461bcd60e51b815260040161084890613cdc565b80516005546108849082611de4565b600555600060208084018281528285523383526007909152604082208451815590516001909101556108b4611e41565b6009549091506001600160a01b031663a9059cbb336108d38585611eb7565b6040518363ffffffff1660e01b81526004016108f09291906135f8565b602060405180830381600087803b15801561090a57600080fd5b505af115801561091e573d6000803e3d6000fd5b505050506040513d601f19601f82011682018060405250810190610942919061344f565b61094b57600080fd5b61095433611f11565b336001600160a01b03167ff279e6a1f5e320cca91135676d9cb6e44ca8a08c0b88342bcdb1144f6511b568834260405161098f929190613d25565b60405180910390a27fe2403640ba68fed3a2f88b7557551d1993f84b99bb10ff833f0cf8db0c5e048633826040516109c89291906135f8565b60405180910390a150506001601a555050565b6001546001600160a01b03163314610a31576040805162461bcd60e51b815260206004820152601460248201527331b0b63632b91036bab9ba1031329030b236b4b760611b604482015290519081900360640190fd5b612710811115610a4057600080fd5b600c55565b600b5481565b6001546001600160a01b03163314610aa1576040805162461bcd60e51b815260206004820152601460248201527331b0b63632b91036bab9ba1031329030b236b4b760611b604482015290519081900360640190fd5b600880546001600160a01b0319166001600160a01b0392909216919091179055565b6002601a541415610b09576040805162461bcd60e51b815260206004820152601f6024820152600080516020613e14833981519152604482015290519081900360640190fd5b6002601a5533600090815260076020908152604091829020825180840190935280548352600101549082015281610b525760405162461bcd60e51b815260040161084890613c8a565b8051610b705760405162461bcd60e51b815260040161084890613bf6565b42816020015111610b935760405162461bcd60e51b8152600401610848906137d3565b610ba233836000846002611fbd565b50506001601a55565b6001546001600160a01b03163314610c01576040805162461bcd60e51b815260206004820152601460248201527331b0b63632b91036bab9ba1031329030b236b4b760611b604482015290519081900360640190fd5b600280546001600160a01b038381166001600160a01b0319831681179093556040805191909216808252602082019390935281517fca4f2f25d0898edd99413412fb94012f9e54ec8142f9b093e7720646a95b16a9929181900390910190a15050565b6009546001600160a01b031681565b60055481565b6014602052600090815260409020546001600160a01b031681565b6001600160a01b038116610cba5760405162461bcd60e51b8152600401610848906139fe565b610cc433826121d8565b50565b6000546001600160a01b031681565b6001546001600160a01b0316331480610cf957506003546001600160a01b031633145b610d345760405162461bcd60e51b8152600401808060200182810382526021815260200180613e9d6021913960400191505060405180910390fd5b600060045411610d565760405162461bcd60e51b815260040161084890613abd565b600080825160001415610d76576009546001600160a01b03169150610e10565b610d7f83612265565b15610dc8576000610d8f8461227d565b905080600081518110610d9e57fe5b6020026020010151925080600182510381518110610db857fe5b6020026020010151915050610e10565b6000610dd38461235e565b905080600081518110610de257fe5b602002602001015160000151925080600182510381518110610e0057fe5b6020026020010151602001519150505b6009546000906001600160a01b0384811691161415610f18576000610e42601054600f54611de490919063ffffffff16565b90506000610eed600b54610ee7600554610ee786600960009054906101000a90046001600160a01b03166001600160a01b03166370a08231306040518263ffffffff1660e01b8152600401610e9791906135c0565b60206040518083038186803b158015610eaf57600080fd5b505afa158015610ec3573d6000803e3d6000fd5b505050506040513d601f19601f82011682018060405250810190610ee79190613487565b90611de4565b905087811015610f0f5760405162461bcd60e51b81526004016108489061385d565b91506110729050565b6040516370a0823160e01b815286906001600160a01b038516906370a0823190610f469030906004016135c0565b60206040518083038186803b158015610f5e57600080fd5b505afa158015610f72573d6000803e3d6000fd5b505050506040513d601f19601f82011682018060405250810190610f969190613487565b1015610fb45760405162461bcd60e51b815260040161084890613a4f565b600854610fcf906001600160a01b03858116911660006124ef565b600854610fe9906001600160a01b038581169116886124ef565b600854604051636a91508f60e11b81526001600160a01b039091169063d522a11e9061101d90899089908990600401613d33565b602060405180830381600087803b15801561103757600080fd5b505af115801561104b573d6000803e3d6000fd5b505050506040513d601f19601f8201168201806040525081019061106f9190613487565b90505b6009546001600160a01b038481169116148061109b57506009546001600160a01b038381169116145b156111445760006110c36127106110bd600c548561260790919063ffffffff16565b90612660565b90506110cf8282611de4565b600b549092506110df9082611eb7565b600b55600f546110ef9083611eb7565b600f55426011556110ff82611d8e565b6012556040517f6a6f77044107a33658235d41bedbbaf2fe9ccdceb313143c947a5e76e1ec8474906111369086908a90869061363a565b60405180910390a150611182565b7fb0bb0f37039c5230cd4e55bddd2eb8074cd1cb9eeccf7a8c0ac2ccff3e839aec838388846040516111799493929190613611565b60405180910390a15b505050505050565b6002601a5414156111d0576040805162461bcd60e51b815260206004820152601f6024820152600080516020613e14833981519152604482015290519081900360640190fd5b6002601a5560006111ee62093a806111e88482612660565b90612607565b336000908152600760209081526040918290208251808401909352805483526001015490820152909150836112355760405162461bcd60e51b815260040161084890613b2b565b8051156112545760405162461bcd60e51b815260040161084890613af4565b4282116112735760405162461bcd60e51b815260040161084890613b53565b630784ce0042018211156112995760405162461bcd60e51b815260040161084890613a86565b6112a7338584846001611fbd565b50506001601a555050565b60186020526000908152604090205463ffffffff1681565b6001600160a01b031660009081526006602052604090205490565b60004382106113065760405162461bcd60e51b8152600401610848906138be565b6001600160a01b03831660009081526018602052604090205463ffffffff16806113345760009150506114c4565b6001600160a01b038416600090815260176020908152604080832063ffffffff6000198601811685529252909120541683106113a3576001600160a01b03841660009081526017602090815260408083206000199490940163ffffffff168352929052206001015490506114c4565b6001600160a01b038416600090815260176020908152604080832083805290915290205463ffffffff168310156113de5760009150506114c4565b600060001982015b8163ffffffff168163ffffffff161115611492576000600263ffffffff848403166001600160a01b038916600090815260176020908152604080832094909304860363ffffffff818116845294825291839020835180850190945280549094168084526001909401549083015292509087141561146d576020015194506114c49350505050565b805163ffffffff168711156114845781935061148b565b6001820392505b50506113e6565b506001600160a01b038516600090815260176020908152604080832063ffffffff909416835292905220600101549150505b92915050565b60196020526000908152604090205481565b600e5481565b60105481565b60136020526000908152604090205481565b600a546001600160a01b031681565b60006016546000141561151e5750600061060e565b6016546000190160009081526015602052604090205463ffffffff16821061155f57506016546000190160009081526015602052604090206001015461060e565b6000805260156020527fa31547ce6245cdb9ecea19cf8c7eb9f5974025bb4075011409251ae855b30aed5463ffffffff1682101561159f5750600061060e565b601654600090600019015b818111156116275760028282030481036000818152601560209081526040918290208251808401909352805463ffffffff16808452600190910154918301919091528614156116025760200151935061060e92505050565b805163ffffffff1686111561161957819350611620565b6001820392505b50506115aa565b5060009081526015602052604090206001015492915050565b600f5481565b600a546001600160a01b031633146116705760405162461bcd60e51b815260040161084890613970565b600b5461168f5760405162461bcd60e51b815260040161084890613c26565b600b80546000909155600954600a5460405163a9059cbb60e01b81526001600160a01b039283169263a9059cbb926116ce9291169085906004016135f8565b602060405180830381600087803b1580156116e857600080fd5b505af11580156116fc573d6000803e3d6000fd5b505050506040513d601f19601f82011682018060405250810190611720919061344f565b5050565b6001600160a01b03811660009081526018602052604081205463ffffffff168061174f576000611781565b6001600160a01b038316600090815260176020908152604080832063ffffffff60001986011684529091529020600101545b9392505050565b6015602052600090815260409020805460019091015463ffffffff9091169082565b6001546001600160a01b031633146117d45760405162461bcd60e51b815260040161084890613cb9565b6001600160a01b0384166117fa5760405162461bcd60e51b815260040161084890613c53565b6001600160a01b0381166118205760405162461bcd60e51b815260040161084890613992565b600980546001600160a01b039586166001600160a01b031991821617909155600c92909255600a805491851691831691909117905560088054929093169116179055565b6111828686868686866126c7565b600061187c611e41565b600954909150611896906001600160a01b031633836128e6565b7fe2403640ba68fed3a2f88b7557551d1993f84b99bb10ff833f0cf8db0c5e048633826040516118c79291906135f8565b60405180910390a150565b60115481565b6003546001600160a01b031681565b6007602052600090815260409020805460019091015482565b6001546001600160a01b03163314611956576040805162461bcd60e51b815260206004820152601460248201527331b0b63632b91036bab9ba1031329030b236b4b760611b604482015290519081900360640190fd5b600a80546001600160a01b0319166001600160a01b0392909216919091179055565b8351855114801561198a575082518551145b8015611997575081518551145b80156119a4575080518551145b6119ad57600080fd5b60005b8551811015611b81576000306001600160a01b031663c3cda52060e01b898985815181106119da57fe5b60200260200101518986815181106119ee57fe5b6020026020010151898781518110611a0257fe5b6020026020010151898881518110611a1657fe5b6020026020010151898981518110611a2a57fe5b6020026020010151604051602401611a479695949392919061365b565b60408051601f198184030181529181526020820180516001600160e01b03166001600160e01b0319909416939093179092529051611a859190613589565b6000604051808303816000865af19150503d8060008114611ac2576040519150601f19603f3d011682016040523d82523d6000602084013e611ac7565b606091505b5050905080611b7857868281518110611adc57fe5b6020026020010151886001600160a01b03167f1bffed5e02e1c7b996a1ac0a6ddce76606170e66ebd6883b4d87abfed2c657d9888581518110611b1b57fe5b6020026020010151888681518110611b2f57fe5b6020026020010151888781518110611b4357fe5b6020026020010151888881518110611b5757fe5b6020026020010151604051611b6f94939291906136e2565b60405180910390a35b506001016119b0565b50505050505050565b60125481565b600c5481565b7fe48329057bfd03d55e49b547132e39cffd9c1820ad7b9d4c5307691425d15adf81565b6002601a541415611c00576040805162461bcd60e51b815260206004820152601f6024820152600080516020613e14833981519152604482015290519081900360640190fd5b6002601a55336000908152600760209081526040808320815180830190925280548252600101549181019190915290611c4062093a806111e88582612660565b905042826020015111611c655760405162461bcd60e51b815260040161084890613bd0565b8151611c835760405162461bcd60e51b815260040161084890613a24565b81602001518111611ca65760405162461bcd60e51b8152600401610848906138f3565b630784ce004201811115611ccc5760405162461bcd60e51b815260040161084890613a86565b611cdb33600083856003611fbd565b50506001601a5550565b60176020908152600092835260408084209091529082529020805460019091015463ffffffff9091169082565b6001546001600160a01b031681565b6001600160a01b0381166000908152600d6020908152604080832054601390925282205461060b9190611d8890670de0b6b3a7640000906110bd90611d6990610ee788611d8e565b6001600160a01b03881660009081526006602052604090205490612607565b90611eb7565b600060045460001415611da4575060125461060e565b601154421415611ddb57600454611dd490611dcb906110bd85670de0b6b3a7640000612607565b60125490611eb7565b905061060e565b5060125461060e565b600082821115611e3b576040805162461bcd60e51b815260206004820152601e60248201527f536166654d6174683a207375627472616374696f6e206f766572666c6f770000604482015290519081900360640190fd5b50900390565b600033611e4e6000611d8e565b601255611e5a81611d21565b6001600160a01b0382166000908152600d602081815260408084209490945560125460138252848420553383525220548015611eb157336000908152600d6020526040812055601054611ead9082611eb7565b6010555b91505090565b600082820183811015611781576040805162461bcd60e51b815260206004820152601b60248201527f536166654d6174683a206164646974696f6e206f766572666c6f770000000000604482015290519081900360640190fd5b6001600160a01b038116600090815260066020526040902054600454611f379082611de4565b6004556001600160a01b038216600081815260066020526040808220829055519091907fddf252ad1be2c89b69c2b068fc378daa952ba7f163c4a11628f55a4df523b3ef90611f87908590613691565b60405180910390a36001600160a01b03808316600090815260146020526040812054611fb592169083612938565b611720612a75565b84611fc86000611d8e565b601255611fd481611d21565b6001600160a01b0382166000908152600d602090815260408083209390935560125460139091529190205560055461200c8187611eb7565b600555835161201b9087611eb7565b8452841561202b57602084018590525b6001600160a01b0387166000908152600760209081526040909120855181559085015160019091015585156120e6576009546040516323b872dd60e01b81526001600160a01b03909116906323b872dd9061208e90339030908b906004016135d4565b602060405180830381600087803b1580156120a857600080fd5b505af11580156120bc573d6000803e3d6000fd5b505050506040513d601f19601f820116820180604052508101906120e0919061344f565b6120e657fe5b8580612110576120f588611f11565b506001600160a01b0387166000908152600760205260409020545b6001600160a01b03881660009081526007602052604081206001015461213f9062093a80906110bd9042611de4565b905060018111156121795760006121656127106110bd60001985016111e88760d0612607565b90506121738a828501612b60565b50612183565b6121838983612b60565b8560200151896001600160a01b03167f4566dfc29f6f11d13a418c26a02bef7c28bae749d4de47e4e6a7cddea6730d598a88426040516121c593929190613d0c565b60405180910390a3505050505050505050565b6001600160a01b03808316600081815260196020908152604080832080546001019055601480835281842080546006855283862054929094528787166001600160a01b0319851681179091559151929095169493909285927f3134e8a2e6d97e929a7e54011ea5485d7d196dd5f0ba4d4ef95803e8e3fc257f9190a461225f828483612938565b50505050565b6000600261227283612c58565b60ff16141592915050565b6060600061228a83612c87565b905060008160ff16601402600501905080845110156122bb5760405162461bcd60e51b815260040161084890613817565b600560ff831667ffffffffffffffff811180156122d757600080fd5b50604051908082528060200260200182016040528015612301578160200160208202803683370190505b50935060005b8360ff1681101561235557601481028201868101602001518651606082901c9088908590811061233357fe5b6001600160a01b03909216602092830291909101909101525050600101612307565b50505050919050565b6060600061236b83612c87565b83519091506002601760ff841602019081111561239a5760405162461bcd60e51b81526004016108489061392a565b60018260ff16116123bd5760405162461bcd60e51b815260040161084890613713565b6000600560ff60001985011667ffffffffffffffff811180156123df57600080fd5b5060405190808252806020026020018201604052801561241957816020015b612406613139565b8152602001906001900390816123fe5790505b50945060005b6001850360ff168110156124e557612435613139565b816124555787830160200151606081901c82529350601490920191612485565b86600183038151811061246457fe5b60209081029190910181015101516001600160a01b03168152601792909201915b6020838901810151606081901c91830191909152603081901c6301000000600160d01b0316604882901c90810362ffffff16604084015288519195509082908990859081106124d057fe5b6020908102919091010152505060010161241f565b5050505050919050565b801580612575575060408051636eb1769f60e11b81523060048201526001600160a01b03848116602483015291519185169163dd62ed3e91604480820192602092909190829003018186803b15801561254757600080fd5b505afa15801561255b573d6000803e3d6000fd5b505050506040513d602081101561257157600080fd5b5051155b6125b05760405162461bcd60e51b8152600401808060200182810382526036815260200180613ee86036913960400191505060405180910390fd5b604080516001600160a01b038416602482015260448082018490528251808303909101815260649091019091526020810180516001600160e01b031663095ea7b360e01b179052612602908490612cb6565b505050565b600082612616575060006114c4565b8282028284828161262357fe5b04146117815760405162461bcd60e51b8152600401808060200182810382526021815260200180613e7c6021913960400191505060405180910390fd5b60008082116126b6576040805162461bcd60e51b815260206004820152601a60248201527f536166654d6174683a206469766973696f6e206279207a65726f000000000000604482015290519081900360640190fd5b8183816126bf57fe5b049392505050565b6001600160a01b0386166126ed5760405162461bcd60e51b8152600401610848906139fe565b8342111561270d5760405162461bcd60e51b8152600401610848906139c9565b604080518082019091526004815263784f4c4560e01b60209091015260007f8cad95687ba82c2ce50e74f7b754645e5117c3a5bec8151c0726d5857980a8667fc63a62895c37b93149fa0b6f2c8d497a0c91951682a9dd0c7a49b82beb78f55e612775612d67565b3060405160200161278994939291906136be565b60405160208183030381529060405280519060200120905060007fe48329057bfd03d55e49b547132e39cffd9c1820ad7b9d4c5307691425d15adf8888886040516020016127da949392919061369a565b604051602081830303815290604052805190602001209050600082826040516020016128079291906135a5565b60405160208183030381529060405280519060200120905060006001828888886040516000815260200160405260405161284494939291906136e2565b6020604051602081039080840390855afa158015612866573d6000803e3d6000fd5b5050604051601f1901519150506001600160a01b0381166128995760405162461bcd60e51b815260040161084890613889565b6001600160a01b03811660009081526019602052604090205489146128d05760405162461bcd60e51b815260040161084890613b99565b6128da818b6121d8565b50505050505050505050565b604080516001600160a01b038416602482015260448082018490528251808303909101815260649091019091526020810180516001600160e01b031663a9059cbb60e01b179052612602908490612cb6565b816001600160a01b0316836001600160a01b03161415801561295a5750600081115b15612602576001600160a01b038316156129ec576001600160a01b03831660009081526018602052604081205463ffffffff16908161299a5760006129cc565b6001600160a01b038516600090815260176020908152604080832063ffffffff60001987011684529091529020600101545b905060006129da8285611de4565b90506129e886848484612d6b565b5050505b6001600160a01b03821615612602576001600160a01b03821660009081526018602052604081205463ffffffff169081612a27576000612a59565b6001600160a01b038416600090815260176020908152604080832063ffffffff60001987011684529091529020600101545b90506000612a678285611eb7565b905061118285848484612d6b565b6000612ab6436040518060400160405280601c81526020017f626c6f636b206e756d6265722065786365656473203332206269747300000000815250612eed565b90506000601654118015612ae757506016546000190160009081526015602052604090205463ffffffff8281169116145b15612b0d5760045460165460001901600090815260156020526040902060010155610cc4565b60408051808201825263ffffffff80841682526004546020808401918252601680546000908152601590925294902092518354921663ffffffff1990921691909117825551600191820155815401905550565b600454612b6d9082611eb7565b6004556001600160a01b038216600090815260066020526040902054612b939082611eb7565b6001600160a01b0383166000818152600660205260408082209390935591519091907fddf252ad1be2c89b69c2b068fc378daa952ba7f163c4a11628f55a4df523b3ef90612be2908590613691565b60405180910390a36001600160a01b0382811660009081526014602052604090205416612c33576001600160a01b038216600081815260146020526040902080546001600160a01b03191690911790555b6001600160a01b03808316600090815260146020526040812054611fb5921683612938565b6000600182511015612c7c5760405162461bcd60e51b815260040161084890613756565b506020015160001a90565b6000600582511015612cab5760405162461bcd60e51b81526004016108489061378b565b506024015160001a90565b6000612d0b826040518060400160405280602081526020017f5361666545524332303a206c6f772d6c6576656c2063616c6c206661696c6564815250856001600160a01b0316612f1d9092919063ffffffff16565b80519091501561260257808060200190516020811015612d2a57600080fd5b50516126025760405162461bcd60e51b815260040180806020018281038252602a815260200180613ebe602a913960400191505060405180910390fd5b4690565b6000612dac436040518060400160405280601c81526020017f626c6f636b206e756d6265722065786365656473203332206269747300000000815250612eed565b905060008463ffffffff16118015612df557506001600160a01b038516600090815260176020908152604080832063ffffffff6000198901811685529252909120548282169116145b15612e32576001600160a01b038516600090815260176020908152604080832063ffffffff60001989011684529091529020600101829055612ea3565b60408051808201825263ffffffff808416825260208083018681526001600160a01b038a166000818152601784528681208b8616825284528681209551865490861663ffffffff19918216178755925160019687015590815260189092529390208054928801909116919092161790555b846001600160a01b03167fdec2bacdd2f05b59de34da9b523dff8be42e5e38e818c82fdb0bae774387a7248484604051612ede929190613d25565b60405180910390a25050505050565b6000816401000000008410612f155760405162461bcd60e51b81526004016108489190613700565b509192915050565b6060612f2c8484600085612f34565b949350505050565b606082471015612f755760405162461bcd60e51b8152600401808060200182810382526026815260200180613e566026913960400191505060405180910390fd5b612f7e8561308f565b612fcf576040805162461bcd60e51b815260206004820152601d60248201527f416464726573733a2063616c6c20746f206e6f6e2d636f6e7472616374000000604482015290519081900360640190fd5b600080866001600160a01b031685876040518082805190602001908083835b6020831061300d5780518252601f199092019160209182019101612fee565b6001836020036101000a03801982511681845116808217855250505050505090500191505060006040518083038185875af1925050503d806000811461306f576040519150601f19603f3d011682016040523d82523d6000602084013e613074565b606091505b5091509150613084828286613095565b979650505050505050565b3b151590565b606083156130a4575081611781565b8251156130b45782518084602001fd5b8160405162461bcd60e51b81526004018080602001828103825283818151815260200191508051906020019080838360005b838110156130fe5781810151838201526020016130e6565b50505050905090810190601f16801561312b5780820380516001836020036101000a031916815260200191505b509250505060405180910390fd5b604080516060810182526000808252602082018190529181019190915290565b803561060e81613dfe565b600082601f830112613174578081fd5b8135602061318961318483613db4565b613d90565b82815281810190858301838502870184018810156131a5578586fd5b855b858110156131c3578135845292840192908401906001016131a7565b5090979650505050505050565b600082601f8301126131e0578081fd5b813560206131f061318483613db4565b828152818101908583018385028701840188101561320c578586fd5b855b858110156131c35761321f82613231565b8452928401929084019060010161320e565b803560ff8116811461060e57600080fd5b600060208284031215613253578081fd5b813561178181613dfe565b60008060008060008060c08789031215613276578182fd5b61327f87613159565b9550602087013567ffffffffffffffff8082111561329b578384fd5b6132a78a838b01613164565b965060408901359150808211156132bc578384fd5b6132c88a838b01613164565b955060608901359150808211156132dd578384fd5b6132e98a838b016131d0565b945060808901359150808211156132fe578384fd5b61330a8a838b01613164565b935060a089013591508082111561331f578283fd5b5061332c89828a01613164565b9150509295509295509295565b6000806000806080858703121561334e578384fd5b843561335981613dfe565b9350602085013561336981613dfe565b925060408501359150606085013561338081613dfe565b939692955090935050565b6000806040838503121561339d578182fd5b82356133a881613dfe565b946020939093013593505050565b60008060008060008060c087890312156133ce578182fd5b86356133d981613dfe565b955060208701359450604087013593506133f560608801613231565b92506080870135915060a087013590509295509295509295565b60008060408385031215613421578182fd5b823561342c81613dfe565b9150602083013563ffffffff81168114613444578182fd5b809150509250929050565b600060208284031215613460578081fd5b81518015158114611781578182fd5b600060208284031215613480578081fd5b5035919050565b600060208284031215613498578081fd5b5051919050565b600080604083850312156134b1578182fd5b50508035926020909101359150565b6000806000606084860312156134d4578081fd5b833592506020808501359250604085013567ffffffffffffffff808211156134fa578384fd5b818701915087601f83011261350d578384fd5b81358181111561351957fe5b61352b601f8201601f19168501613d90565b91508082528884828501011115613540578485fd5b808484018584013784848284010152508093505050509250925092565b60008151808452613575816020860160208601613dd2565b601f01601f19169290920160200192915050565b6000825161359b818460208701613dd2565b9190910192915050565b61190160f01b81526002810192909252602282015260420190565b6001600160a01b0391909116815260200190565b6001600160a01b039384168152919092166020820152604081019190915260600190565b6001600160a01b03929092168252602082015260400190565b6001600160a01b0394851681529290931660208301526040820152606081019190915260800190565b6001600160a01b039390931683526020830191909152604082015260600190565b6001600160a01b039690961686526020860194909452604085019290925260ff166060840152608083015260a082015260c00190565b90815260200190565b9384526001600160a01b039290921660208401526040830152606082015260800190565b938452602084019290925260408301526001600160a01b0316606082015260800190565b93845260ff9290921660208401526040830152606082015260800190565b600060208252611781602083018461355d565b60208082526023908201527f446578446174613a20746f556e69563350617468207061746820746f6f2073686040820152621bdc9d60ea1b606082015260800190565b6020808252818101527f446578446174613a20746f4465782077726f6e67206461746120666f726d6174604082015260600190565b60208082526028908201527f446578446174613a20746f41727261794c656e6774682077726f6e67206461746040820152671848199bdc9b585d60c21b606082015260800190565b60208082526024908201527f43616e6e6f742061646420746f2065787069726564206c6f636b2e20576974686040820152636472617760e01b606082015260800190565b60208082526026908201527f446578446174613a20746f556e695632506174682077726f6e67206461746120604082015265199bdc9b585d60d21b606082015260800190565b602080825260129082015271457863656564204f4c452062616c616e636560701b604082015260600190565b6020808252818101527f64656c656761746542795369673a20696e76616c6964207369676e6174757265604082015260600190565b6020808252818101527f6765745072696f72566f7465733a6e6f74207965742064657465726d696e6564604082015260600190565b6020808252601f908201527f43616e206f6e6c7920696e637265617365206c6f636b206475726174696f6e00604082015260600190565b60208082526026908201527f446578446174613a20746f556e695633506174682077726f6e67206461746120604082015265199bdc9b585d60d21b606082015260800190565b602080825260089082015267446576206f6e6c7960c01b604082015260600190565b60208082526018908201527f5f64657620616464726573732063616e6e6f7420626520300000000000000000604082015260600190565b6020808252818101527f64656c656761746542795369673a207369676e61747572652065787069726564604082015260600190565b6020808252600c908201526b0c8cad8cacec2e8caca7460f60a31b604082015260600190565b602080825260119082015270139bdd1a1a5b99c81a5cc81b1bd8dad959607a1b604082015260600190565b60208082526018908201527f45786365656420617661696c61626c652062616c616e63650000000000000000604082015260600190565b6020808252601e908201527f566f74696e67206c6f636b2063616e2062652034207965617273206d61780000604082015260600190565b6020808252601e908201527f43616e277420736861726520776974686f7574206c6f636b6564204f4c450000604082015260600190565b60208082526019908201527f5769746864726177206f6c6420746f6b656e7320666972737400000000000000604082015260600190565b6020808252600e908201526d4e6f6e207a65726f2076616c756560901b604082015260600190565b60208082526026908201527f43616e206f6e6c79206c6f636b20756e74696c2074696d6520696e207468652060408201526566757475726560d01b606082015260800190565b6020808252601c908201527f64656c656761746542795369673a20696e76616c6964206e6f6e636500000000604082015260600190565b6020808252600c908201526b131bd8dac8195e1c1a5c995960a21b604082015260600190565b602080825260169082015275139bc8195e1a5cdd1a5b99c81b1bd8dac8199bdd5b9960521b604082015260600190565b6020808252601390820152724e6f2066756e6420746f20776974686472617760681b604082015260600190565b6020808252601d908201527f5f6f6c65546f6b656e20616464726573732063616e6e6f742062652030000000604082015260600190565b6020808252601590820152746e656564206e6f6e202d207a65726f2076616c756560581b604082015260600190565b6020808252600990820152682737ba1030b236b4b760b91b604082015260600190565b602080825260169082015275546865206c6f636b206469646e27742065787069726560501b604082015260600190565b928352600f9190910b6020830152604082015260600190565b918252602082015260400190565b600084825283602083015260606040830152613d52606083018461355d565b95945050505050565b63ffffffff91909116815260200190565b63ffffffff929092168252602082015260400190565b60ff91909116815260200190565b60405181810167ffffffffffffffff81118282101715613dac57fe5b604052919050565b600067ffffffffffffffff821115613dc857fe5b5060209081020190565b60005b83811015613ded578181015183820152602001613dd5565b8381111561225f5750506000910152565b6001600160a01b0381168114610cc457600080fdfe5265656e7472616e637947756172643a207265656e7472616e742063616c6c006f6e6c792070656e64696e6741646d696e2063616e206163636570742061646d696e416464726573733a20696e73756666696369656e742062616c616e636520666f722063616c6c536166654d6174683a206d756c7469706c69636174696f6e206f766572666c6f7763616c6c6572206d7573742062652061646d696e206f7220646576656c6f7065725361666545524332303a204552433230206f7065726174696f6e20646964206e6f7420737563636565645361666545524332303a20617070726f76652066726f6d206e6f6e2d7a65726f20746f206e6f6e2d7a65726f20616c6c6f77616e6365a2646970667358221220b071c95474df78693e7e7127c02179dd88cb5322cc5ac2b42b8b72d564db630264736f6c63430007060033",
  "immutableReferences": {},
  "source": "// SPDX-License-Identifier: BUSL-1.1\n\npragma solidity 0.7.6;\npragma experimental ABIEncoderV2;\n\nimport \"@openzeppelin/contracts/math/SafeMath.sol\";\nimport \"@openzeppelin/contracts/token/ERC20/IERC20.sol\";\nimport \"@openzeppelin/contracts/utils/ReentrancyGuard.sol\";\nimport \"./lib/SignedSafeMath128.sol\";\nimport \"./Adminable.sol\";\nimport \"./DelegateInterface.sol\";\nimport \"./XOLEInterface.sol\";\nimport \"./DelegateInterface.sol\";\nimport \"./lib/DexData.sol\";\n\n\n/// @title Voting Escrowed Token\n/// @author OpenLeverage\n/// @notice Lock OLE to get time and amount weighted xOLE\n/// @dev The weight in this implementation is linear, and lock cannot be more than maxtime (4 years)\ncontract XOLE is DelegateInterface, Adminable, XOLEInterface, XOLEStorage, ReentrancyGuard {\n    using SafeMath for uint256;\n    using SafeERC20 for IERC20;\n    using SignedSafeMath128 for int128;\n    using DexData for bytes;\n\n    /* We cannot really do block numbers per se b/c slope is per time, not per block\n    and per block could be fairly bad b/c Ethereum changes blocktimes.\n    What we can do is to extrapolate ***At functions\n    */\n    constructor() {\n    }\n\n    /// @notice initialize proxy contract\n    /// @dev This function is not supposed to call multiple times. All configs can be set through other functions.\n    /// @param _oleToken Address of contract _oleToken.\n    /// @param _dexAgg Contract DexAggregatorDelegator.\n    /// @param _devFundRatio Ratio of token reserved to Dev team\n    /// @param _dev Address of Dev team.\n    function initialize(\n        address _oleToken,\n        DexAggregatorInterface _dexAgg,\n        uint _devFundRatio,\n        address _dev\n    ) public {\n        require(msg.sender == admin, \"Not admin\");\n        require(_oleToken != address(0), \"_oleToken address cannot be 0\");\n        require(_dev != address(0), \"_dev address cannot be 0\");\n        oleToken = IERC20(_oleToken);\n        devFundRatio = _devFundRatio;\n        dev = _dev;\n        dexAgg = _dexAgg;\n    }\n\n    function setDexAgg(DexAggregatorInterface newDexAgg) external override onlyAdmin {\n        dexAgg = newDexAgg;\n    }\n\n    // Fees sharing functions  =====\n\n    function withdrawDevFund() external override {\n        require(msg.sender == dev, \"Dev only\");\n        require(devFund != 0, \"No fund to withdraw\");\n        uint toSend = devFund;\n        devFund = 0;\n        oleToken.transfer(dev, toSend);\n    }\n\n    /// @dev swap feeCollected to reward token\n    function convertToSharingToken(uint amount, uint minBuyAmount, bytes memory dexData) external override onlyAdminOrDeveloper() {\n        require(totalSupply > 0, \"Can't share without locked OLE\");\n        address fromToken;\n        address toToken;\n        // If no swapping, then assuming OLE reward distribution\n        if (dexData.length == 0) {\n            fromToken = address(oleToken);\n        }\n        // Not OLE\n        else {\n            if (dexData.isUniV2Class()) {\n                address[] memory path = dexData.toUniV2Path();\n                fromToken = path[0];\n                toToken = path[path.length - 1];\n            } else {\n                DexData.V3PoolData[] memory path = dexData.toUniV3Path();\n                fromToken = path[0].tokenA;\n                toToken = path[path.length - 1].tokenB;\n            }\n        }\n        uint newReward;\n        if (fromToken == address(oleToken)) {\n            uint claimable = totalRewarded.sub(withdrewReward);\n            uint toShare = oleToken.balanceOf(address(this)).sub(claimable).sub(totalLocked).sub(devFund);\n            require(toShare >= amount, 'Exceed OLE balance');\n            newReward = toShare;\n        } else {\n            require(IERC20(fromToken).balanceOf(address(this)) >= amount, \"Exceed available balance\");\n            (IERC20(fromToken)).safeApprove(address(dexAgg), 0);\n            (IERC20(fromToken)).safeApprove(address(dexAgg), amount);\n            newReward = dexAgg.sellMul(amount, minBuyAmount, dexData);\n        }\n        //fromToken or toToken equal OLE ,update reward\n        if (fromToken == address(oleToken) || toToken == address(oleToken)) {\n            uint newDevFund = newReward.mul(devFundRatio).div(10000);\n            newReward = newReward.sub(newDevFund);\n            devFund = devFund.add(newDevFund);\n            totalRewarded = totalRewarded.add(newReward);\n            lastUpdateTime = block.timestamp;\n            rewardPerTokenStored = rewardPerToken(newReward);\n            emit RewardAdded(fromToken, amount, newReward);\n        } else {\n            emit RewardConvert(fromToken, toToken, amount, newReward);\n        }\n\n    }\n\n    /// @notice calculate the amount of token reward\n    function earned(address account) external override view returns (uint) {\n        return earnedInternal(account);\n    }\n\n    function earnedInternal(address account) internal view returns (uint) {\n        return (balances[account])\n        .mul(rewardPerToken(0).sub(userRewardPerTokenPaid[account]))\n        .div(1e18)\n        .add(rewards[account]);\n    }\n\n    function rewardPerToken(uint newReward) internal view returns (uint) {\n        if (totalSupply == 0) {\n            return rewardPerTokenStored;\n        }\n\n        if (block.timestamp == lastUpdateTime) {\n            return rewardPerTokenStored.add(newReward\n            .mul(1e18)\n            .div(totalSupply));\n        } else {\n            return rewardPerTokenStored;\n        }\n    }\n\n    /// @notice transfer rewarded ole to msg.sender\n    function withdrawReward() external override {\n        uint reward = getReward();\n        oleToken.safeTransfer(msg.sender, reward);\n        emit RewardPaid(msg.sender, reward);\n    }\n\n    function getReward() internal updateReward(msg.sender) returns (uint) {\n        uint reward = rewards[msg.sender];\n        if (reward > 0) {\n            rewards[msg.sender] = 0;\n            withdrewReward = withdrewReward.add(reward);\n        }\n        return reward;\n    }\n\n    modifier updateReward(address account) {\n        rewardPerTokenStored = rewardPerToken(0);\n        rewards[account] = earnedInternal(account);\n        userRewardPerTokenPaid[account] = rewardPerTokenStored;\n        _;\n    }\n\n    /*** Admin Functions ***/\n    function setDevFundRatio(uint newRatio) external override onlyAdmin {\n        require(newRatio <= 10000);\n        devFundRatio = newRatio;\n    }\n\n    function setDev(address newDev) external override onlyAdmin {\n        dev = newDev;\n    }\n\n\n    function _mint(address account, uint amount) internal {\n        totalSupply = totalSupply.add(amount);\n        balances[account] = balances[account].add(amount);\n        emit Transfer(address(0), account, amount);\n        if (delegates[account] == address(0)) {\n            delegates[account] = account;\n        }\n        _moveDelegates(address(0), delegates[account], amount);\n        _updateTotalSupplyCheckPoints();\n    }\n\n    function _burn(address account) internal {\n        uint burnAmount = balances[account];\n        totalSupply = totalSupply.sub(burnAmount);\n        balances[account] = 0;\n        emit Transfer(account, address(0), burnAmount);\n        _moveDelegates(delegates[account], address(0), burnAmount);\n        _updateTotalSupplyCheckPoints();\n    }\n\n    function _updateTotalSupplyCheckPoints() internal {\n        uint32 blockNumber = safe32(block.number, \"block number exceeds 32 bits\");\n        if (totalSupplyNumCheckpoints > 0 && totalSupplyCheckpoints[totalSupplyNumCheckpoints - 1].fromBlock == blockNumber) {\n            totalSupplyCheckpoints[totalSupplyNumCheckpoints - 1].votes = totalSupply;\n        }\n        else {\n            totalSupplyCheckpoints[totalSupplyNumCheckpoints] = Checkpoint(blockNumber, totalSupply);\n            totalSupplyNumCheckpoints = totalSupplyNumCheckpoints + 1;\n        }\n\n    }\n\n    function balanceOf(address addr) external view override returns (uint256){\n        return balances[addr];\n    }\n\n    /// @dev get supply amount by blocknumber\n    function totalSupplyAt(uint256 blockNumber) external view returns (uint){\n        if (totalSupplyNumCheckpoints == 0) {\n            return 0;\n        }\n        if (totalSupplyCheckpoints[totalSupplyNumCheckpoints - 1].fromBlock <= blockNumber) {\n            return totalSupplyCheckpoints[totalSupplyNumCheckpoints - 1].votes;\n        }\n\n        // Next check implicit zero balance\n        if (totalSupplyCheckpoints[0].fromBlock > blockNumber) {\n            return 0;\n        }\n\n        uint lower;\n        uint upper = totalSupplyNumCheckpoints - 1;\n        while (upper > lower) {\n            uint center = upper - (upper - lower) / 2;\n            // ceil, avoiding overflow\n            Checkpoint memory cp = totalSupplyCheckpoints[center];\n            if (cp.fromBlock == blockNumber) {\n                return cp.votes;\n            } else if (cp.fromBlock < blockNumber) {\n                lower = center;\n            } else {\n                upper = center - 1;\n            }\n        }\n        return totalSupplyCheckpoints[lower].votes;\n    }\n\n    /// @notice Deposit `_value` tokens for `msg.sender` and lock until `_unlock_time`\n    /// @param _value Amount to deposit\n    /// @param _unlock_time Epoch time when tokens unlock, rounded down to whole weeks\n    function create_lock(uint256 _value, uint256 _unlock_time) external override nonReentrant() {\n        // Locktime is rounded down to weeks\n        uint256 unlock_time = _unlock_time.div(WEEK).mul(WEEK);\n        LockedBalance memory _locked = locked[msg.sender];\n\n        require(_value > 0, \"Non zero value\");\n        require(_locked.amount == 0, \"Withdraw old tokens first\");\n        require(unlock_time > block.timestamp, \"Can only lock until time in the future\");\n        require(unlock_time <= block.timestamp + MAXTIME, \"Voting lock can be 4 years max\");\n\n        _deposit_for(msg.sender, _value, unlock_time, _locked, CREATE_LOCK_TYPE);\n    }\n\n    \n    /// @notice Deposit `_value` additional tokens for `msg.sender`\n    /// without modifying the unlock time\n    /// @param _value Amount of tokens to deposit and add to the lock\n    function increase_amount(uint256 _value) external override nonReentrant() {\n        LockedBalance memory _locked = locked[msg.sender];\n        require(_value > 0, \"need non - zero value\");\n        require(_locked.amount > 0, \"No existing lock found\");\n        require(_locked.end > block.timestamp, \"Cannot add to expired lock. Withdraw\");\n        _deposit_for(msg.sender, _value, 0, _locked, INCREASE_LOCK_AMOUNT);\n    }\n\n    /// @notice Extend the unlock time for `msg.sender` to `_unlock_time`\n    /// @param _unlock_time New epoch time for unlocking\n    function increase_unlock_time(uint256 _unlock_time) external override nonReentrant() {\n        LockedBalance memory _locked = locked[msg.sender];\n        // Locktime is rounded down to weeks\n        uint256 unlock_time = _unlock_time.div(WEEK).mul(WEEK);\n        require(_locked.end > block.timestamp, \"Lock expired\");\n        require(_locked.amount > 0, \"Nothing is locked\");\n        require(unlock_time > _locked.end, \"Can only increase lock duration\");\n        require(unlock_time <= block.timestamp + MAXTIME, \"Voting lock can be 4 years max\");\n\n        _deposit_for(msg.sender, 0, unlock_time, _locked, INCREASE_UNLOCK_TIME);\n    }\n\n    /// @notice Deposit and lock tokens for a user\n    /// @param _addr User's wallet address\n    /// @param _value Amount to deposit\n    /// @param unlock_time New time when to unlock the tokens, or 0 if unchanged\n    /// @param _locked Previous locked amount / timestamp\n    /// @param _type For event only.\n    function _deposit_for(address _addr, uint256 _value, uint256 unlock_time, LockedBalance memory _locked, int128 _type) internal updateReward(_addr) {\n        uint256 locked_before = totalLocked;\n        totalLocked = locked_before.add(_value);\n        // Adding to existing lock, or if a lock is expired - creating a new one\n        _locked.amount = _locked.amount.add(_value);\n\n        if (unlock_time != 0) {\n            _locked.end = unlock_time;\n        }\n        locked[_addr] = _locked;\n\n        if (_value != 0) {\n            assert(IERC20(oleToken).transferFrom(msg.sender, address(this), _value));\n        }\n\n        uint calExtraValue = _value;\n        // only increase unlock time\n        if (_value == 0) {\n            _burn(_addr);\n            calExtraValue = locked[_addr].amount;\n        }\n        uint weekCount = locked[_addr].end.sub(block.timestamp).div(WEEK);\n        if (weekCount > 1) {\n            uint extraToken = calExtraValue.mul(oneWeekExtraRaise).mul(weekCount - 1).div(10000);\n            _mint(_addr, calExtraValue + extraToken);\n        } else {\n            _mint(_addr, calExtraValue);\n        }\n        emit Deposit(_addr, _value, _locked.end, _type, block.timestamp);\n    }\n\n    /// @notice Withdraw all tokens for `msg.sender`\n    /// @dev Only possible if the lock has expired\n    function withdraw() external override nonReentrant() updateReward(msg.sender) {\n        LockedBalance memory _locked = locked[msg.sender];\n        require(_locked.amount >= 0, \"Nothing to withdraw\");\n        require(block.timestamp >= _locked.end, \"The lock didn't expire\");\n        uint256 value = _locked.amount;\n        totalLocked = totalLocked.sub(value);\n        _locked.end = 0;\n        _locked.amount = 0;\n        locked[msg.sender] = _locked;\n        uint reward = getReward();\n        require(IERC20(oleToken).transfer(msg.sender, value.add(reward)));\n        _burn(msg.sender);\n        emit Withdraw(msg.sender, value, block.timestamp);\n        emit RewardPaid(msg.sender, reward);\n    }\n\n\n    /// Delegate votes from `msg.sender` to `delegatee`\n    /// @param delegatee The address to delegate votes to\n    function delegate(address delegatee) public {\n        require(delegatee != address(0), 'delegatee:0x');\n        return _delegate(msg.sender, delegatee);\n    }\n\n    /// Delegates votes from signatory to `delegatee`\n    /// @param delegatee The address to delegate votes to\n    /// @param nonce The contract state required to match the signature\n    /// @param expiry The time at which to expire the signature\n    /// @param v The recovery byte of the signature\n    /// @param r Half of the ECDSA signature pair\n    /// @param s Half of the ECDSA signature pair\n    function delegateBySig(address delegatee, uint nonce, uint expiry, uint8 v, bytes32 r, bytes32 s) public {\n        delegateBySigInternal(delegatee, nonce, expiry, v, r, s);\n    }\n\n    function delegateBySigs(address delegatee, uint[] memory nonce, uint[] memory expiry, uint8[] memory v, bytes32[] memory r, bytes32[] memory s) public {\n        require(nonce.length == expiry.length && nonce.length == v.length && nonce.length == r.length && nonce.length == s.length);\n        for (uint i = 0; i < nonce.length; i++) {\n            (bool success,) = address(this).call(\n                abi.encodeWithSelector(XOLE(address(this)).delegateBySig.selector, delegatee, nonce[i], expiry[i], v[i], r[i], s[i])\n            );\n            if (!success) emit FailedDelegateBySig(delegatee, nonce[i], expiry[i], v[i], r[i], s[i]);\n        }\n    }\n\n    function delegateBySigInternal(address delegatee, uint nonce, uint expiry, uint8 v, bytes32 r, bytes32 s) internal {\n        require(delegatee != address(0), 'delegatee:0x');\n        require(block.timestamp <= expiry, \"delegateBySig: signature expired\");\n\n        bytes32 domainSeparator = keccak256(abi.encode(DOMAIN_TYPEHASH, keccak256(bytes(name)), getChainId(), address(this)));\n        bytes32 structHash = keccak256(abi.encode(DELEGATION_TYPEHASH, delegatee, nonce, expiry));\n        bytes32 digest = keccak256(abi.encodePacked(\"\\x19\\x01\", domainSeparator, structHash));\n        address signatory = ecrecover(digest, v, r, s);\n        require(signatory != address(0), \"delegateBySig: invalid signature\");\n        require(nonce == nonces[signatory], \"delegateBySig: invalid nonce\");\n\n        _delegate(signatory, delegatee);\n    }\n\n    /// Gets the current votes balance for `account`\n    /// @param account The address to get votes balance\n    /// @return The number of current votes for `account`\n    function getCurrentVotes(address account) external view returns (uint) {\n        uint32 nCheckpoints = numCheckpoints[account];\n        return nCheckpoints > 0 ? checkpoints[account][nCheckpoints - 1].votes : 0;\n    }\n\n    /// Determine the prior number of votes for an account as of a block number\n    /// @dev Block number must be a finalized block or else this function will revert to prevent misinformation.\n    /// @param account The address of the account to check\n    /// @param blockNumber The block number to get the vote balance at\n    /// @return The number of votes the account had as of the given block\n    function getPriorVotes(address account, uint blockNumber) public view returns (uint) {\n        require(blockNumber < block.number, \"getPriorVotes:not yet determined\");\n\n        uint32 nCheckpoints = numCheckpoints[account];\n        if (nCheckpoints == 0) {\n            return 0;\n        }\n\n        // First check most recent balance\n        if (checkpoints[account][nCheckpoints - 1].fromBlock <= blockNumber) {\n            return checkpoints[account][nCheckpoints - 1].votes;\n        }\n\n        // Next check implicit zero balance\n        if (checkpoints[account][0].fromBlock > blockNumber) {\n            return 0;\n        }\n\n        uint32 lower;\n        uint32 upper = nCheckpoints - 1;\n        while (upper > lower) {\n            uint32 center = upper - (upper - lower) / 2;\n            // ceil, avoiding overflow\n            Checkpoint memory cp = checkpoints[account][center];\n            if (cp.fromBlock == blockNumber) {\n                return cp.votes;\n            } else if (cp.fromBlock < blockNumber) {\n                lower = center;\n            } else {\n                upper = center - 1;\n            }\n        }\n        return checkpoints[account][lower].votes;\n    }\n\n    function _delegate(address delegator, address delegatee) internal {\n        nonces[delegator]++;\n        address currentDelegate = delegates[delegator];\n        uint delegatorBalance = balances[delegator];\n        delegates[delegator] = delegatee;\n        emit DelegateChanged(delegator, currentDelegate, delegatee);\n        _moveDelegates(currentDelegate, delegatee, delegatorBalance);\n    }\n\n    function _moveDelegates(address srcRep, address dstRep, uint amount) internal {\n        if (srcRep != dstRep && amount > 0) {\n            if (srcRep != address(0)) {\n                uint32 srcRepNum = numCheckpoints[srcRep];\n                uint srcRepOld = srcRepNum > 0 ? checkpoints[srcRep][srcRepNum - 1].votes : 0;\n                uint srcRepNew = srcRepOld.sub(amount);\n                _writeCheckpoint(srcRep, srcRepNum, srcRepOld, srcRepNew);\n            }\n\n            if (dstRep != address(0)) {\n                uint32 dstRepNum = numCheckpoints[dstRep];\n                uint dstRepOld = dstRepNum > 0 ? checkpoints[dstRep][dstRepNum - 1].votes : 0;\n                uint dstRepNew = dstRepOld.add(amount);\n                _writeCheckpoint(dstRep, dstRepNum, dstRepOld, dstRepNew);\n            }\n        }\n    }\n\n    function _writeCheckpoint(address delegatee, uint32 nCheckpoints, uint oldVotes, uint newVotes) internal {\n        uint32 blockNumber = safe32(block.number, \"block number exceeds 32 bits\");\n\n        if (nCheckpoints > 0 && checkpoints[delegatee][nCheckpoints - 1].fromBlock == blockNumber) {\n            checkpoints[delegatee][nCheckpoints - 1].votes = newVotes;\n        } else {\n            checkpoints[delegatee][nCheckpoints] = Checkpoint(blockNumber, newVotes);\n            numCheckpoints[delegatee] = nCheckpoints + 1;\n        }\n\n        emit DelegateVotesChanged(delegatee, oldVotes, newVotes);\n    }\n\n    function safe32(uint n, string memory errorMessage) internal pure returns (uint32) {\n        require(n < 2 ** 32, errorMessage);\n        return uint32(n);\n    }\n\n    function getChainId() internal pure returns (uint) {\n        uint256 chainId;\n        assembly {chainId := chainid()}\n        return chainId;\n    }\n}\n",
  "sourcePath": "/home/mingyue/Smartian/Web3Bugs/contracts/72/openleverage-contracts/contracts/XOLE.sol",
  "compiler": {
    "name": "solc",
    "version": "0.7.6+commit.7338295f.Emscripten.clang"
  },
  "schemaVersion": "3.4.16",
  "updatedAt": "2025-02-26T03:47:59.432Z",
  "devdoc": {
    "author": "OpenLeverage",
    "details": "The weight in this implementation is linear, and lock cannot be more than maxtime (4 years)",
    "kind": "dev",
    "methods": {
      "convertToSharingToken(uint256,uint256,bytes)": {
        "details": "swap feeCollected to reward token"
      },
      "create_lock(uint256,uint256)": {
        "params": {
          "_unlock_time": "Epoch time when tokens unlock, rounded down to whole weeks",
          "_value": "Amount to deposit"
        }
      },
      "delegate(address)": {
        "params": {
          "delegatee": "The address to delegate votes to"
        }
      },
      "delegateBySig(address,uint256,uint256,uint8,bytes32,bytes32)": {
        "params": {
          "delegatee": "The address to delegate votes to",
          "expiry": "The time at which to expire the signature",
          "nonce": "The contract state required to match the signature",
          "r": "Half of the ECDSA signature pair",
          "s": "Half of the ECDSA signature pair",
          "v": "The recovery byte of the signature"
        }
      },
      "getCurrentVotes(address)": {
        "params": {
          "account": "The address to get votes balance"
        },
        "returns": {
          "_0": "The number of current votes for `account`"
        }
      },
      "getPriorVotes(address,uint256)": {
        "details": "Block number must be a finalized block or else this function will revert to prevent misinformation.",
        "params": {
          "account": "The address of the account to check",
          "blockNumber": "The block number to get the vote balance at"
        },
        "returns": {
          "_0": "The number of votes the account had as of the given block"
        }
      },
      "increase_amount(uint256)": {
        "params": {
          "_value": "Amount of tokens to deposit and add to the lock"
        }
      },
      "increase_unlock_time(uint256)": {
        "params": {
          "_unlock_time": "New epoch time for unlocking"
        }
      },
      "initialize(address,address,uint256,address)": {
        "details": "This function is not supposed to call multiple times. All configs can be set through other functions.",
        "params": {
          "_dev": "Address of Dev team.",
          "_devFundRatio": "Ratio of token reserved to Dev team",
          "_dexAgg": "Contract DexAggregatorDelegator.",
          "_oleToken": "Address of contract _oleToken."
        }
      },
      "totalSupplyAt(uint256)": {
        "details": "get supply amount by blocknumber"
      },
      "withdraw()": {
        "details": "Only possible if the lock has expired"
      }
    },
    "title": "Voting Escrowed Token",
    "version": 1
  },
  "userdoc": {
    "kind": "user",
    "methods": {
      "create_lock(uint256,uint256)": {
        "notice": "Deposit `_value` tokens for `msg.sender` and lock until `_unlock_time`"
      },
      "delegate(address)": {
        "notice": "Delegate votes from `msg.sender` to `delegatee`"
      },
      "delegateBySig(address,uint256,uint256,uint8,bytes32,bytes32)": {
        "notice": "Delegates votes from signatory to `delegatee`"
      },
      "earned(address)": {
        "notice": "calculate the amount of token reward"
      },
      "getCurrentVotes(address)": {
        "notice": "Gets the current votes balance for `account`"
      },
      "getPriorVotes(address,uint256)": {
        "notice": "Determine the prior number of votes for an account as of a block number"
      },
      "implementation()": {
        "notice": "Implementation address for this contract"
      },
      "increase_amount(uint256)": {
        "notice": "Deposit `_value` additional tokens for `msg.sender` without modifying the unlock time"
      },
      "increase_unlock_time(uint256)": {
        "notice": "Extend the unlock time for `msg.sender` to `_unlock_time`"
      },
      "initialize(address,address,uint256,address)": {
        "notice": "initialize proxy contract"
      },
      "withdraw()": {
        "notice": "Withdraw all tokens for `msg.sender`"
      },
      "withdrawReward()": {
        "notice": "transfer rewarded ole to msg.sender"
      }
    },
    "notice": "Lock OLE to get time and amount weighted xOLE",
    "version": 1
  }
}