{
  "_format": "hh-sol-artifact-1",
  "contractName": "VestedEscrowRevocable",
  "sourceName": "contracts/tokenomics/VestedEscrowRevocable.sol",
  "abi": [
    {
      "inputs": [
        {
          "internalType": "address",
          "name": "rewardToken_",
          "type": "address"
        },
        {
          "internalType": "uint256",
          "name": "starttime_",
          "type": "uint256"
        },
        {
          "internalType": "uint256",
          "name": "endtime_",
          "type": "uint256"
        },
        {
          "internalType": "address",
          "name": "fundAdmin_",
          "type": "address"
        },
        {
          "internalType": "address",
          "name": "treasury_",
          "type": "address"
        }
      ],
      "stateMutability": "nonpayable",
      "type": "constructor"
    },
    {
      "anonymous": false,
      "inputs": [
        {
          "indexed": true,
          "internalType": "address",
          "name": "user",
          "type": "address"
        },
        {
          "indexed": false,
          "internalType": "uint256",
          "name": "amount",
          "type": "uint256"
        }
      ],
      "name": "Claim",
      "type": "event"
    },
    {
      "anonymous": false,
      "inputs": [
        {
          "indexed": true,
          "internalType": "address",
          "name": "recipient",
          "type": "address"
        },
        {
          "indexed": false,
          "internalType": "uint256",
          "name": "reward",
          "type": "uint256"
        }
      ],
      "name": "Fund",
      "type": "event"
    },
    {
      "anonymous": false,
      "inputs": [
        {
          "indexed": true,
          "internalType": "address",
          "name": "user",
          "type": "address"
        },
        {
          "indexed": false,
          "internalType": "uint256",
          "name": "revokedAmount",
          "type": "uint256"
        }
      ],
      "name": "Revoked",
      "type": "event"
    },
    {
      "inputs": [],
      "name": "admin",
      "outputs": [
        {
          "internalType": "address",
          "name": "",
          "type": "address"
        }
      ],
      "stateMutability": "view",
      "type": "function"
    },
    {
      "inputs": [
        {
          "internalType": "address",
          "name": "_recipient",
          "type": "address"
        }
      ],
      "name": "balanceOf",
      "outputs": [
        {
          "internalType": "uint256",
          "name": "",
          "type": "uint256"
        }
      ],
      "stateMutability": "view",
      "type": "function"
    },
    {
      "inputs": [
        {
          "internalType": "address",
          "name": "_recipient",
          "type": "address"
        }
      ],
      "name": "claim",
      "outputs": [],
      "stateMutability": "nonpayable",
      "type": "function"
    },
    {
      "inputs": [],
      "name": "claim",
      "outputs": [],
      "stateMutability": "nonpayable",
      "type": "function"
    },
    {
      "inputs": [],
      "name": "endTime",
      "outputs": [
        {
          "internalType": "uint256",
          "name": "",
          "type": "uint256"
        }
      ],
      "stateMutability": "view",
      "type": "function"
    },
    {
      "inputs": [
        {
          "components": [
            {
              "internalType": "address",
              "name": "recipient",
              "type": "address"
            },
            {
              "internalType": "uint256",
              "name": "amount",
              "type": "uint256"
            }
          ],
          "internalType": "struct VestedEscrow.FundingAmount[]",
          "name": "amounts",
          "type": "tuple[]"
        }
      ],
      "name": "fund",
      "outputs": [
        {
          "internalType": "bool",
          "name": "",
          "type": "bool"
        }
      ],
      "stateMutability": "nonpayable",
      "type": "function"
    },
    {
      "inputs": [],
      "name": "fundAdmin",
      "outputs": [
        {
          "internalType": "address",
          "name": "",
          "type": "address"
        }
      ],
      "stateMutability": "view",
      "type": "function"
    },
    {
      "inputs": [
        {
          "internalType": "address",
          "name": "",
          "type": "address"
        }
      ],
      "name": "holdingContract",
      "outputs": [
        {
          "internalType": "address",
          "name": "",
          "type": "address"
        }
      ],
      "stateMutability": "view",
      "type": "function"
    },
    {
      "inputs": [
        {
          "internalType": "address",
          "name": "",
          "type": "address"
        }
      ],
      "name": "initialLocked",
      "outputs": [
        {
          "internalType": "uint256",
          "name": "",
          "type": "uint256"
        }
      ],
      "stateMutability": "view",
      "type": "function"
    },
    {
      "inputs": [],
      "name": "initialLockedSupply",
      "outputs": [
        {
          "internalType": "uint256",
          "name": "",
          "type": "uint256"
        }
      ],
      "stateMutability": "view",
      "type": "function"
    },
    {
      "inputs": [],
      "name": "initializeUnallocatedSupply",
      "outputs": [
        {
          "internalType": "bool",
          "name": "",
          "type": "bool"
        }
      ],
      "stateMutability": "nonpayable",
      "type": "function"
    },
    {
      "inputs": [],
      "name": "initializedSupply",
      "outputs": [
        {
          "internalType": "bool",
          "name": "",
          "type": "bool"
        }
      ],
      "stateMutability": "view",
      "type": "function"
    },
    {
      "inputs": [
        {
          "internalType": "address",
          "name": "_recipient",
          "type": "address"
        }
      ],
      "name": "lockedOf",
      "outputs": [
        {
          "internalType": "uint256",
          "name": "",
          "type": "uint256"
        }
      ],
      "stateMutability": "view",
      "type": "function"
    },
    {
      "inputs": [],
      "name": "lockedSupply",
      "outputs": [
        {
          "internalType": "uint256",
          "name": "",
          "type": "uint256"
        }
      ],
      "stateMutability": "view",
      "type": "function"
    },
    {
      "inputs": [
        {
          "internalType": "address",
          "name": "_recipient",
          "type": "address"
        }
      ],
      "name": "revoke",
      "outputs": [
        {
          "internalType": "bool",
          "name": "",
          "type": "bool"
        }
      ],
      "stateMutability": "nonpayable",
      "type": "function"
    },
    {
      "inputs": [
        {
          "internalType": "address",
          "name": "",
          "type": "address"
        }
      ],
      "name": "revokedTime",
      "outputs": [
        {
          "internalType": "uint256",
          "name": "",
          "type": "uint256"
        }
      ],
      "stateMutability": "view",
      "type": "function"
    },
    {
      "inputs": [],
      "name": "rewardToken",
      "outputs": [
        {
          "internalType": "contract IERC20",
          "name": "",
          "type": "address"
        }
      ],
      "stateMutability": "view",
      "type": "function"
    },
    {
      "inputs": [
        {
          "internalType": "address",
          "name": "_admin",
          "type": "address"
        }
      ],
      "name": "setAdmin",
      "outputs": [],
      "stateMutability": "nonpayable",
      "type": "function"
    },
    {
      "inputs": [
        {
          "internalType": "address",
          "name": "_fundadmin",
          "type": "address"
        }
      ],
      "name": "setFundAdmin",
      "outputs": [],
      "stateMutability": "nonpayable",
      "type": "function"
    },
    {
      "inputs": [],
      "name": "startTime",
      "outputs": [
        {
          "internalType": "uint256",
          "name": "",
          "type": "uint256"
        }
      ],
      "stateMutability": "view",
      "type": "function"
    },
    {
      "inputs": [
        {
          "internalType": "address",
          "name": "",
          "type": "address"
        }
      ],
      "name": "totalClaimed",
      "outputs": [
        {
          "internalType": "uint256",
          "name": "",
          "type": "uint256"
        }
      ],
      "stateMutability": "view",
      "type": "function"
    },
    {
      "inputs": [],
      "name": "totalTime",
      "outputs": [
        {
          "internalType": "uint256",
          "name": "",
          "type": "uint256"
        }
      ],
      "stateMutability": "view",
      "type": "function"
    },
    {
      "inputs": [],
      "name": "treasury",
      "outputs": [
        {
          "internalType": "address",
          "name": "",
          "type": "address"
        }
      ],
      "stateMutability": "view",
      "type": "function"
    },
    {
      "inputs": [],
      "name": "unallocatedSupply",
      "outputs": [
        {
          "internalType": "uint256",
          "name": "",
          "type": "uint256"
        }
      ],
      "stateMutability": "view",
      "type": "function"
    },
    {
      "inputs": [
        {
          "internalType": "address",
          "name": "_recipient",
          "type": "address"
        }
      ],
      "name": "vestedOf",
      "outputs": [
        {
          "internalType": "uint256",
          "name": "",
          "type": "uint256"
        }
      ],
      "stateMutability": "view",
      "type": "function"
    },
    {
      "inputs": [],
      "name": "vestedSupply",
      "outputs": [
        {
          "internalType": "uint256",
          "name": "",
          "type": "uint256"
        }
      ],
      "stateMutability": "view",
      "type": "function"
    }
  ],
  "bytecode": "0x6101006040523480156200001257600080fd5b5060405162001cc238038062001cc28339810160408190526200003591620001dd565b60016000558484848442831015620000945760405162461bcd60e51b815260206004820152601460248201527f7374617274206d7573742062652066757475726500000000000000000000000060448201526064015b60405180910390fd5b828211620000e55760405162461bcd60e51b815260206004820152601360248201527f656e64206d75737420626520677265617465720000000000000000000000000060448201526064016200008b565b6001600160a01b03841660805260a083905260c08290526200010883836200023b565b60035560018054336001600160a01b031991821617909155600280549091166001600160a01b03928316179055841660e05250506040518691506200014d90620001b2565b6001600160a01b039091168152602001604051809103906000f0801580156200017a573d6000803e3d6000fd5b506001600160a01b03918216600090815260096020526040902080546001600160a01b03191691909216179055506200026192505050565b6101568062001b6c83390190565b80516001600160a01b0381168114620001d857600080fd5b919050565b600080600080600060a08688031215620001f657600080fd5b6200020186620001c0565b945060208601519350604086015192506200021f60608701620001c0565b91506200022f60808701620001c0565b90509295509295909350565b6000828210156200025c57634e487b7160e01b600052601160045260246000fd5b500390565b60805160a05160c05160e05161187d620002ef600039600081816102680152818161068101528181610772015281816107da0152818161082901526108d6015260006102090152600081816102ff0152818161121f0152611257015260008181610426015281816107a201528181610b1b01528181610bea01528181610f4901526110a5015261187d6000f3fe60806040523480156200001157600080fd5b5060043610620001af5760003560e01c80639266f8df11620000f0578063aa04ae7811620000a3578063d9844dc0116200007a578063d9844dc014620003f3578063ef5d9ae814620003fd578063f7c618c11462000420578063f851a440146200044857600080fd5b8063aa04ae7814620003d5578063ca5c7b9114620003df578063d8df70df14620003e957600080fd5b80639266f8df1462000339578063944771041462000365578063955fbc60146200037c5780639c4565831462000393578063a5f1e28214620003a7578063a96d1edc14620003be57600080fd5b806361d027b3116200016657806374a8f103116200013d57806374a8f10314620002d157806378e9792514620002f95780637d086b29146200032157806392590cdf146200032b57600080fd5b806361d027b31462000262578063704b6c0214620002a357806370a0823114620002ba57600080fd5b8063099d695f14620001b45780631e83409a14620001ea5780633197cbb614620002035780633e26a732146200022b5780634e71d92d146200024e57806358533e0a1462000258575b600080fd5b620001d7620001c5366004620014c8565b60076020526000908152604090205481565b6040519081526020015b60405180910390f35b62000201620001fb366004620014c8565b6200045c565b005b620001d77f000000000000000000000000000000000000000000000000000000000000000081565b620001d76200023c366004620014c8565b600b6020526000908152604090205481565b62000201620004f8565b620001d760035481565b6200028a7f000000000000000000000000000000000000000000000000000000000000000081565b6040516001600160a01b039091168152602001620001e1565b62000201620002b4366004620014c8565b62000505565b620001d7620002cb366004620014c8565b62000581565b620002e8620002e2366004620014c8565b620005bb565b6040519015158152602001620001e1565b620001d77f000000000000000000000000000000000000000000000000000000000000000081565b620001d760045481565b600654620002e89060ff1681565b6200028a6200034a366004620014c8565b6009602052600090815260409020546001600160a01b031681565b620001d762000376366004620014c8565b620008d2565b620002e86200038d366004620014f3565b6200096f565b6002546200028a906001600160a01b031681565b620001d7620003b8366004620014c8565b62000d89565b62000201620003cf366004620014c8565b62000de7565b620001d760055481565b620001d762000e63565b620002e862000e83565b620001d762001036565b620001d76200040e366004620014c8565b60086020526000908152604090205481565b6200028a7f000000000000000000000000000000000000000000000000000000000000000081565b6001546200028a906001600160a01b031681565b60026000541415620004b55760405162461bcd60e51b815260206004820152601f60248201527f5265656e7472616e637947756172643a207265656e7472616e742063616c6c0060448201526064015b60405180910390fd5b60026000908155338152600b6020526040902054429015620004e35750336000908152600b60205260409020545b620004ef828262001042565b50506001600055565b62000503336200045c565b565b600154604080518082019091526013815272756e617574686f72697a65642061636365737360681b6020820152906001600160a01b031633146200055e5760405162461bcd60e51b8152600401620004ac91906200159c565b50600180546001600160a01b0319166001600160a01b0392909216919091179055565b6001600160a01b0381166000908152600b602052604081205442908015620005a7578091505b620005b384836200110a565b949350505050565b600154604080518082019091526013815272756e617574686f72697a65642061636365737360681b60208201526000916001600160a01b03163314620006165760405162461bcd60e51b8152600401620004ac91906200159c565b506001600160a01b0382166000908152600b6020526040902054156200067f5760405162461bcd60e51b815260206004820152601960248201527f526563697069656e7420616c7265616479207265766f6b6564000000000000006044820152606401620004ac565b7f00000000000000000000000000000000000000000000000000000000000000006001600160a01b0316826001600160a01b03161415620007035760405162461bcd60e51b815260206004820152601b60248201527f54726561737572792063616e6e6f74206265207265766f6b65642100000000006044820152606401620004ac565b6001600160a01b0382166000908152600b6020526040812042908190556200072d90849062001141565b6001600160a01b038416600090815260076020526040812054919250620007558383620015e7565b6001600160a01b03808716600090815260096020526040808220547f000000000000000000000000000000000000000000000000000000000000000084168352912054929350620007d0927f000000000000000000000000000000000000000000000000000000000000000083169291821691168462001166565b6001600160a01b037f000000000000000000000000000000000000000000000000000000000000000016600090815260076020526040812080548492906200081a90849062001601565b90915550506001600160a01b037f000000000000000000000000000000000000000000000000000000000000000016600090815260086020526040812080548592906200086990849062001601565b9250508190555082600a600082825462000884919062001601565b90915550506040518181526001600160a01b038616907f713b90881ad62c4fa8ab6bd9197fa86481fc0c11b2edba60026514281b2dbac49060200160405180910390a2506001949350505050565b60007f00000000000000000000000000000000000000000000000000000000000000006001600160a01b0316826001600160a01b031614156200093057600a546200091e834262001141565b6200092a9190620015e7565b92915050565b6001600160a01b0382166000908152600b6020526040902054801562000963576200095c838262001141565b9392505050565b6200095c834262001141565b600060026000541415620009c65760405162461bcd60e51b815260206004820152601f60248201527f5265656e7472616e637947756172643a207265656e7472616e742063616c6c006044820152606401620004ac565b60026000819055546001600160a01b0316331480620009ef57506001546001600160a01b031633145b60405180604001604052806013815260200172756e617574686f72697a65642061636365737360681b8152509062000a3c5760405162461bcd60e51b8152600401620004ac91906200159c565b5060065460ff1662000a915760405162461bcd60e51b815260206004820152601a60248201527f537570706c79206d75737420626520696e697469616c697a65640000000000006044820152606401620004ac565b6000805b8381101562000d5257600085858381811062000ab55762000ab56200161c565b90506040020160200135905060006009600088888681811062000adc5762000adc6200161c565b62000af49260206040909202019081019150620014c8565b6001600160a01b0390811682526020820192909252604001600020541690508062000bdc577f000000000000000000000000000000000000000000000000000000000000000060405162000b4890620014ba565b6001600160a01b039091168152602001604051809103906000f08015801562000b75573d6000803e3d6000fd5b509050806009600089898781811062000b925762000b926200161c565b62000baa9260206040909202019081019150620014c8565b6001600160a01b039081168252602082019290925260400160002080546001600160a01b031916929091169190911790555b62000c126001600160a01b037f0000000000000000000000000000000000000000000000000000000000000000168284620011d9565b816007600089898781811062000c2c5762000c2c6200161c565b62000c449260206040909202019081019150620014c8565b6001600160a01b03166001600160a01b031681526020019081526020016000205462000c71919062001601565b6007600089898781811062000c8a5762000c8a6200161c565b62000ca29260206040909202019081019150620014c8565b6001600160a01b0316815260208101919091526040016000205562000cc8828562001601565b935086868481811062000cdf5762000cdf6200161c565b62000cf79260206040909202019081019150620014c8565b6001600160a01b03167fda8220a878ff7a89474ccffdaa31ea1ed1ffbb0207d5051afccc4fbaf81f9bcd8360405162000d3291815260200190565b60405180910390a25050808062000d499062001632565b91505062000a95565b508060045462000d63919062001601565b60045560055462000d76908290620015e7565b6005555060019050600160005592915050565b6001600160a01b0381166000908152600b60205260408120541562000db057506000919050565b600062000dbe834262001141565b6001600160a01b0384166000908152600760205260409020549091506200095c908290620015e7565b600154604080518082019091526013815272756e617574686f72697a65642061636365737360681b6020820152906001600160a01b0316331462000e405760405162461bcd60e51b8152600401620004ac91906200159c565b50600280546001600160a01b0319166001600160a01b0392909216919091179055565b600062000e6f62001210565b60045462000e7e9190620015e7565b905090565b600154604080518082019091526013815272756e617574686f72697a65642061636365737360681b60208201526000916001600160a01b0316331462000ede5760405162461bcd60e51b8152600401620004ac91906200159c565b5060065460ff161562000f345760405162461bcd60e51b815260206004820152601f60248201527f537570706c7920616c726561647920696e697469616c697a6564206f6e6365006044820152606401620004ac565b6040516370a0823160e01b81523060048201527f00000000000000000000000000000000000000000000000000000000000000006001600160a01b0316906370a082319060240160206040518083038186803b15801562000f9457600080fd5b505afa15801562000fa9573d6000803e3d6000fd5b505050506040513d601f19601f8201168201806040525081019062000fcf919062001650565b6005819055620010225760405162461bcd60e51b815260206004820152601c60248201527f4e6f2072657761726420746f6b656e7320696e20636f6e7472616374000000006044820152606401620004ac565b506006805460ff1916600190811790915590565b600062000e7e62001210565b60006200105033836200110a565b9050806200105d57505050565b336000908152600860205260409020546200107a90829062001601565b33600090815260086020908152604080832093909355600990522054620010d0906001600160a01b037f000000000000000000000000000000000000000000000000000000000000000081169116858462001166565b60405181815233907f47cee97cb7acd717b3c0aa1435d004cd5b3c8c57d70dbceb4e4458bbd60e39d49060200160405180910390a2505050565b60008062001119848462001141565b6001600160a01b038516600090815260086020526040902054909150620005b39082620015e7565b6001600160a01b0382166000908152600760205260408120546200095c90836200121b565b6040516001600160a01b0380851660248301528316604482015260648101829052620011d39085906323b872dd60e01b906084015b60408051601f198184030181529190526020810180516001600160e01b03166001600160e01b031990931692909217909152620012a7565b50505050565b6040516001600160a01b0383166024820152604481018290526200120b90849063a9059cbb60e01b906064016200119b565b505050565b600062000e7e600454425b60007f00000000000000000000000000000000000000000000000000000000000000008210156200124f575060006200092a565b60006200127d7f000000000000000000000000000000000000000000000000000000000000000084620015e7565b9050620005b360035482866200129491906200166a565b620012a091906200168c565b8562001380565b6000620012fe826040518060400160405280602081526020017f5361666545524332303a206c6f772d6c6576656c2063616c6c206661696c6564815250856001600160a01b0316620013989092919063ffffffff16565b8051909150156200120b57808060200190518101906200131f9190620016af565b6200120b5760405162461bcd60e51b815260206004820152602a60248201527f5361666545524332303a204552433230206f7065726174696f6e20646964206e6044820152691bdd081cdd58d8d9595960b21b6064820152608401620004ac565b60008183106200139157816200095c565b5090919050565b6060620005b38484600085856001600160a01b0385163b620013fd5760405162461bcd60e51b815260206004820152601d60248201527f416464726573733a2063616c6c20746f206e6f6e2d636f6e74726163740000006044820152606401620004ac565b600080866001600160a01b031685876040516200141b9190620016d3565b60006040518083038185875af1925050503d80600081146200145a576040519150601f19603f3d011682016040523d82523d6000602084013e6200145f565b606091505b5091509150620014718282866200147c565b979650505050505050565b606083156200148d5750816200095c565b8251156200149e5782518084602001fd5b8160405162461bcd60e51b8152600401620004ac91906200159c565b61015680620016f283390190565b600060208284031215620014db57600080fd5b81356001600160a01b03811681146200095c57600080fd5b600080602083850312156200150757600080fd5b823567ffffffffffffffff808211156200152057600080fd5b818501915085601f8301126200153557600080fd5b8135818111156200154557600080fd5b8660208260061b85010111156200155b57600080fd5b60209290920196919550909350505050565b60005b838110156200158a57818101518382015260200162001570565b83811115620011d35750506000910152565b6020815260008251806020840152620015bd8160408501602087016200156d565b601f01601f19169190910160400192915050565b634e487b7160e01b600052601160045260246000fd5b600082821015620015fc57620015fc620015d1565b500390565b60008219821115620016175762001617620015d1565b500190565b634e487b7160e01b600052603260045260246000fd5b6000600019821415620016495762001649620015d1565b5060010190565b6000602082840312156200166357600080fd5b5051919050565b6000816000190483118215151615620016875762001687620015d1565b500290565b600082620016aa57634e487b7160e01b600052601260045260246000fd5b500490565b600060208284031215620016c257600080fd5b815180151581146200095c57600080fd5b60008251620016e78184602087016200156d565b919091019291505056fe608060405234801561001057600080fd5b5060405161015638038061015683398101604081905261002f916100b7565b60405163095ea7b360e01b815233600482015260001960248201526001600160a01b0382169063095ea7b390604401602060405180830381600087803b15801561007857600080fd5b505af115801561008c573d6000803e3d6000fd5b505050506040513d601f19601f820116820180604052508101906100b091906100e7565b5050610109565b6000602082840312156100c957600080fd5b81516001600160a01b03811681146100e057600080fd5b9392505050565b6000602082840312156100f957600080fd5b815180151581146100e057600080fd5b603f806101176000396000f3fe6080604052600080fdfea26469706673582212206fb0273403a1ccbf2d5cf5478d7921e1d3204fd705b9be3d62fe0cf149a2961164736f6c63430008090033a26469706673582212205c6bcfa54b1d1a8efcd8eab072b9a83fbef68979d960f5eccc5f5ddf33dfdea364736f6c63430008090033608060405234801561001057600080fd5b5060405161015638038061015683398101604081905261002f916100b7565b60405163095ea7b360e01b815233600482015260001960248201526001600160a01b0382169063095ea7b390604401602060405180830381600087803b15801561007857600080fd5b505af115801561008c573d6000803e3d6000fd5b505050506040513d601f19601f820116820180604052508101906100b091906100e7565b5050610109565b6000602082840312156100c957600080fd5b81516001600160a01b03811681146100e057600080fd5b9392505050565b6000602082840312156100f957600080fd5b815180151581146100e057600080fd5b603f806101176000396000f3fe6080604052600080fdfea26469706673582212206fb0273403a1ccbf2d5cf5478d7921e1d3204fd705b9be3d62fe0cf149a2961164736f6c63430008090033",
  "linkReferences": {},
  "deployedLinkReferences": {}
}