{
  "_format": "hh-sol-artifact-1",
  "contractName": "MockRewardStaking",
  "sourceName": "contracts/testing/MockRewardStaking.sol",
  "abi": [
    {
      "inputs": [
        {
          "internalType": "address",
          "name": "_token",
          "type": "address"
        },
        {
          "internalType": "address",
          "name": "_tokenCrv",
          "type": "address"
        },
        {
          "internalType": "address",
          "name": "_tokenCvx",
          "type": "address"
        }
      ],
      "stateMutability": "nonpayable",
      "type": "constructor"
    },
    {
      "inputs": [
        {
          "internalType": "address",
          "name": "account",
          "type": "address"
        }
      ],
      "name": "balanceOf",
      "outputs": [
        {
          "internalType": "uint256",
          "name": "",
          "type": "uint256"
        }
      ],
      "stateMutability": "view",
      "type": "function"
    },
    {
      "inputs": [
        {
          "internalType": "address",
          "name": "",
          "type": "address"
        }
      ],
      "name": "balances",
      "outputs": [
        {
          "internalType": "uint256",
          "name": "",
          "type": "uint256"
        }
      ],
      "stateMutability": "view",
      "type": "function"
    },
    {
      "inputs": [],
      "name": "booster",
      "outputs": [
        {
          "internalType": "address",
          "name": "",
          "type": "address"
        }
      ],
      "stateMutability": "view",
      "type": "function"
    },
    {
      "inputs": [
        {
          "internalType": "address",
          "name": "",
          "type": "address"
        }
      ],
      "name": "crvEarned",
      "outputs": [
        {
          "internalType": "uint256",
          "name": "",
          "type": "uint256"
        }
      ],
      "stateMutability": "view",
      "type": "function"
    },
    {
      "inputs": [],
      "name": "crvToken",
      "outputs": [
        {
          "internalType": "address",
          "name": "",
          "type": "address"
        }
      ],
      "stateMutability": "view",
      "type": "function"
    },
    {
      "inputs": [
        {
          "internalType": "address",
          "name": "",
          "type": "address"
        }
      ],
      "name": "cvxEarned",
      "outputs": [
        {
          "internalType": "uint256",
          "name": "",
          "type": "uint256"
        }
      ],
      "stateMutability": "view",
      "type": "function"
    },
    {
      "inputs": [],
      "name": "cvxToken",
      "outputs": [
        {
          "internalType": "address",
          "name": "",
          "type": "address"
        }
      ],
      "stateMutability": "view",
      "type": "function"
    },
    {
      "inputs": [
        {
          "internalType": "address",
          "name": "account",
          "type": "address"
        }
      ],
      "name": "earned",
      "outputs": [
        {
          "internalType": "uint256",
          "name": "",
          "type": "uint256"
        }
      ],
      "stateMutability": "view",
      "type": "function"
    },
    {
      "inputs": [
        {
          "internalType": "uint256",
          "name": "_pid",
          "type": "uint256"
        }
      ],
      "name": "extraRewards",
      "outputs": [
        {
          "internalType": "address",
          "name": "",
          "type": "address"
        }
      ],
      "stateMutability": "view",
      "type": "function"
    },
    {
      "inputs": [],
      "name": "extraRewardsLength",
      "outputs": [
        {
          "internalType": "uint256",
          "name": "",
          "type": "uint256"
        }
      ],
      "stateMutability": "view",
      "type": "function"
    },
    {
      "inputs": [
        {
          "internalType": "uint256",
          "name": "crvEarned",
          "type": "uint256"
        }
      ],
      "name": "getCvxMintAmount",
      "outputs": [
        {
          "internalType": "uint256",
          "name": "",
          "type": "uint256"
        }
      ],
      "stateMutability": "view",
      "type": "function"
    },
    {
      "inputs": [],
      "name": "getReward",
      "outputs": [],
      "stateMutability": "nonpayable",
      "type": "function"
    },
    {
      "inputs": [
        {
          "internalType": "address",
          "name": "_account",
          "type": "address"
        },
        {
          "internalType": "bool",
          "name": "_claimExtras",
          "type": "bool"
        }
      ],
      "name": "getReward",
      "outputs": [],
      "stateMutability": "nonpayable",
      "type": "function"
    },
    {
      "inputs": [],
      "name": "rewardToken",
      "outputs": [
        {
          "internalType": "address",
          "name": "",
          "type": "address"
        }
      ],
      "stateMutability": "view",
      "type": "function"
    },
    {
      "inputs": [
        {
          "internalType": "address",
          "name": "_booster",
          "type": "address"
        }
      ],
      "name": "setBooster",
      "outputs": [],
      "stateMutability": "nonpayable",
      "type": "function"
    },
    {
      "inputs": [
        {
          "internalType": "address",
          "name": "user",
          "type": "address"
        },
        {
          "internalType": "uint256",
          "name": "amount",
          "type": "uint256"
        }
      ],
      "name": "setCrvEarned",
      "outputs": [],
      "stateMutability": "nonpayable",
      "type": "function"
    },
    {
      "inputs": [
        {
          "internalType": "uint256",
          "name": "",
          "type": "uint256"
        }
      ],
      "name": "stake",
      "outputs": [],
      "stateMutability": "nonpayable",
      "type": "function"
    },
    {
      "inputs": [],
      "name": "stakeAll",
      "outputs": [
        {
          "internalType": "bool",
          "name": "",
          "type": "bool"
        }
      ],
      "stateMutability": "nonpayable",
      "type": "function"
    },
    {
      "inputs": [
        {
          "internalType": "address",
          "name": "user",
          "type": "address"
        },
        {
          "internalType": "uint256",
          "name": "amount",
          "type": "uint256"
        }
      ],
      "name": "stakeFor",
      "outputs": [],
      "stateMutability": "nonpayable",
      "type": "function"
    },
    {
      "inputs": [],
      "name": "token",
      "outputs": [
        {
          "internalType": "address",
          "name": "",
          "type": "address"
        }
      ],
      "stateMutability": "view",
      "type": "function"
    },
    {
      "inputs": [
        {
          "internalType": "uint256",
          "name": "amount",
          "type": "uint256"
        },
        {
          "internalType": "bool",
          "name": "claim",
          "type": "bool"
        }
      ],
      "name": "withdraw",
      "outputs": [
        {
          "internalType": "bool",
          "name": "",
          "type": "bool"
        }
      ],
      "stateMutability": "nonpayable",
      "type": "function"
    },
    {
      "inputs": [
        {
          "internalType": "uint256",
          "name": "amount",
          "type": "uint256"
        },
        {
          "internalType": "bool",
          "name": "claim",
          "type": "bool"
        }
      ],
      "name": "withdrawAndUnwrap",
      "outputs": [
        {
          "internalType": "bool",
          "name": "",
          "type": "bool"
        }
      ],
      "stateMutability": "nonpayable",
      "type": "function"
    }
  ],
  "bytecode": "0x608060405234801561001057600080fd5b50604051610b7e380380610b7e83398101604081905261002f9161008d565b600380546001600160a01b039485166001600160a01b0319918216179091556004805493851693821693909317909255600580549190931691161790556100d0565b80516001600160a01b038116811461008857600080fd5b919050565b6000806000606084860312156100a257600080fd5b6100ab84610071565b92506100b960208501610071565b91506100c760408501610071565b90509250925092565b610a9f806100df6000396000f3fe608060405234801561001057600080fd5b50600436106101415760003560e01c8063750d804a116100b8578063a694fc3a1161007c578063a694fc3a14610310578063c32e720214610321578063c6def07614610334578063d55a23f414610347578063f7c618c11461034e578063fc0c546a1461035f57600080fd5b8063750d804a146102a35780638d7a2d7e146102c35780638dcb4061146102e35780639405ab43146102ea57806394112dba146102fd57600080fd5b806338d074361161010a57806338d07436146101f55780633d18b9121461021b57806340c35446146102235780635a826df3146102375780637050ccd91461026757806370a082311461027a57600080fd5b80628cc2621461014657806327e235e3146101825780632ee40908146101a257806332d7d66d146101b75780633778851e146101e2575b600080fd5b61016f6101543660046108de565b6001600160a01b031660009081526001602052604090205490565b6040519081526020015b60405180910390f35b61016f6101903660046108de565b60006020819052908152604090205481565b6101b56101b0366004610900565b610372565b005b6004546101ca906001600160a01b031681565b6040516001600160a01b039091168152602001610179565b61016f6101f036600461092a565b61042e565b61020b610203366004610951565b600192915050565b6040519015158152602001610179565b6101b561053d565b6101ca61023136600461092a565b50600090565b6101b56102453660046108de565b600680546001600160a01b0319166001600160a01b0392909216919091179055565b6101b5610275366004610981565b610644565b61016f6102883660046108de565b6001600160a01b031660009081526020819052604090205490565b61016f6102b13660046108de565b60016020526000908152604090205481565b61016f6102d13660046108de565b60026020526000908152604090205481565b600161020b565b6101b56102f8366004610900565b610759565b6005546101ca906001600160a01b031681565b6101b561031e36600461092a565b50565b61020b61032f366004610951565b61079d565b6006546101ca906001600160a01b031681565b600061016f565b6004546001600160a01b03166101ca565b6003546101ca906001600160a01b031681565b6003546040516323b872dd60e01b8152336004820152306024820152604481018390526001600160a01b03909116906323b872dd90606401602060405180830381600087803b1580156103c457600080fd5b505af11580156103d8573d6000803e3d6000fd5b505050506040513d601f19601f820116820180604052508101906103fc91906109ad565b506001600160a01b038216600090815260208190526040812080548392906104259084906109e0565b90915550505050565b600080734e3fbd56cd56c3e72c1403e103b45db9da5b9d2b6001600160a01b03166318160ddd6040518163ffffffff1660e01b815260040160206040518083038186803b15801561047e57600080fd5b505afa158015610492573d6000803e3d6000fd5b505050506040513d601f19601f820116820180604052508101906104b691906109f8565b905060006104ce69152d02c7e14af680000083610a11565b90506103e881106104e3575060009392505050565b60006104f1826103e8610a33565b905060006103e86105028388610a4a565b61050c9190610a11565b90506000610525856a52b7d2dcc80cd2e4000000610a33565b905080821115610533578091505b5095945050505050565b600480543360008181526001602052604090819020549051636dafc3ab60e01b81529384019190915260248301526001600160a01b031690636dafc3ab90604401600060405180830381600087803b15801561059857600080fd5b505af11580156105ac573d6000803e3d6000fd5b50506005543360008181526002602052604090819020549051636dafc3ab60e01b8152600481019290925260248201526001600160a01b039091169250636dafc3ab9150604401600060405180830381600087803b15801561060d57600080fd5b505af1158015610621573d6000803e3d6000fd5b505033600090815260016020908152604080832083905560029091528120555050565b600480546001600160a01b0384811660008181526001602052604090819020549051636dafc3ab60e01b81529485019190915260248401521690636dafc3ab90604401600060405180830381600087803b1580156106a157600080fd5b505af11580156106b5573d6000803e3d6000fd5b50506005546001600160a01b0385811660008181526002602052604090819020549051636dafc3ab60e01b81526004810192909252602482015291169250636dafc3ab9150604401600060405180830381600087803b15801561071757600080fd5b505af115801561072b573d6000803e3d6000fd5b5050506001600160a01b03909216600090815260016020908152604080832083905560029091528120555050565b6001600160a01b038216600090815260016020526040902081905561077d8161042e565b6001600160a01b0390921660009081526002602052604090209190915550565b600081156108095760405162461bcd60e51b815260206004820152602f60248201527f4e6f7420696d706c656d656e74656420636c61696d696e6720696e207769746860448201526e06472617720616e6420756e7772617608c1b606482015260840160405180910390fd5b3360009081526020819052604081208054859290610828908490610a33565b90915550506006546040516305335c3960e21b815260006004820152602481018590523360448201526001600160a01b03909116906314cd70e490606401602060405180830381600087803b15801561088057600080fd5b505af1158015610894573d6000803e3d6000fd5b505050506040513d601f19601f820116820180604052508101906108b891906109ad565b5060019392505050565b80356001600160a01b03811681146108d957600080fd5b919050565b6000602082840312156108f057600080fd5b6108f9826108c2565b9392505050565b6000806040838503121561091357600080fd5b61091c836108c2565b946020939093013593505050565b60006020828403121561093c57600080fd5b5035919050565b801515811461031e57600080fd5b6000806040838503121561096457600080fd5b82359150602083013561097681610943565b809150509250929050565b6000806040838503121561099457600080fd5b61099d836108c2565b9150602083013561097681610943565b6000602082840312156109bf57600080fd5b81516108f981610943565b634e487b7160e01b600052601160045260246000fd5b600082198211156109f3576109f36109ca565b500190565b600060208284031215610a0a57600080fd5b5051919050565b600082610a2e57634e487b7160e01b600052601260045260246000fd5b500490565b600082821015610a4557610a456109ca565b500390565b6000816000190483118215151615610a6457610a646109ca565b50029056fea2646970667358221220240ce2f0cd5d31cf3cf431362cb38ede05b9f2d1e7073b9830e71cdcfd47968264736f6c63430008090033",
  "linkReferences": {},
  "deployedLinkReferences": {}
}