{
  "_format": "hh-sol-artifact-1",
  "contractName": "UniswapV3Oracle",
  "sourceName": "contracts/oracles/uniswap/UniswapV3Oracle.sol",
  "abi": [
    {
      "anonymous": false,
      "inputs": [
        {
          "indexed": true,
          "internalType": "bytes4",
          "name": "role",
          "type": "bytes4"
        },
        {
          "indexed": true,
          "internalType": "bytes4",
          "name": "newAdminRole",
          "type": "bytes4"
        }
      ],
      "name": "RoleAdminChanged",
      "type": "event"
    },
    {
      "anonymous": false,
      "inputs": [
        {
          "indexed": true,
          "internalType": "bytes4",
          "name": "role",
          "type": "bytes4"
        },
        {
          "indexed": true,
          "internalType": "address",
          "name": "account",
          "type": "address"
        },
        {
          "indexed": true,
          "internalType": "address",
          "name": "sender",
          "type": "address"
        }
      ],
      "name": "RoleGranted",
      "type": "event"
    },
    {
      "anonymous": false,
      "inputs": [
        {
          "indexed": true,
          "internalType": "bytes4",
          "name": "role",
          "type": "bytes4"
        },
        {
          "indexed": true,
          "internalType": "address",
          "name": "account",
          "type": "address"
        },
        {
          "indexed": true,
          "internalType": "address",
          "name": "sender",
          "type": "address"
        }
      ],
      "name": "RoleRevoked",
      "type": "event"
    },
    {
      "anonymous": false,
      "inputs": [
        {
          "indexed": true,
          "internalType": "uint32",
          "name": "secondsAgo",
          "type": "uint32"
        }
      ],
      "name": "SecondsAgoSet",
      "type": "event"
    },
    {
      "anonymous": false,
      "inputs": [
        {
          "indexed": true,
          "internalType": "bytes6",
          "name": "base",
          "type": "bytes6"
        },
        {
          "indexed": true,
          "internalType": "bytes6",
          "name": "quote",
          "type": "bytes6"
        },
        {
          "indexed": true,
          "internalType": "address",
          "name": "source",
          "type": "address"
        }
      ],
      "name": "SourceSet",
      "type": "event"
    },
    {
      "inputs": [],
      "name": "LOCK",
      "outputs": [
        {
          "internalType": "bytes4",
          "name": "",
          "type": "bytes4"
        }
      ],
      "stateMutability": "view",
      "type": "function"
    },
    {
      "inputs": [],
      "name": "ROOT",
      "outputs": [
        {
          "internalType": "bytes4",
          "name": "",
          "type": "bytes4"
        }
      ],
      "stateMutability": "view",
      "type": "function"
    },
    {
      "inputs": [
        {
          "internalType": "bytes6",
          "name": "base",
          "type": "bytes6"
        },
        {
          "internalType": "bytes6",
          "name": "quote",
          "type": "bytes6"
        },
        {
          "internalType": "uint256",
          "name": "amount",
          "type": "uint256"
        }
      ],
      "name": "_peek",
      "outputs": [
        {
          "internalType": "uint256",
          "name": "value",
          "type": "uint256"
        },
        {
          "internalType": "uint256",
          "name": "updateTime",
          "type": "uint256"
        }
      ],
      "stateMutability": "view",
      "type": "function"
    },
    {
      "inputs": [
        {
          "internalType": "bytes32",
          "name": "base",
          "type": "bytes32"
        },
        {
          "internalType": "bytes32",
          "name": "quote",
          "type": "bytes32"
        },
        {
          "internalType": "uint256",
          "name": "amount",
          "type": "uint256"
        }
      ],
      "name": "get",
      "outputs": [
        {
          "internalType": "uint256",
          "name": "value",
          "type": "uint256"
        },
        {
          "internalType": "uint256",
          "name": "updateTime",
          "type": "uint256"
        }
      ],
      "stateMutability": "view",
      "type": "function"
    },
    {
      "inputs": [
        {
          "internalType": "bytes4",
          "name": "role",
          "type": "bytes4"
        }
      ],
      "name": "getRoleAdmin",
      "outputs": [
        {
          "internalType": "bytes4",
          "name": "",
          "type": "bytes4"
        }
      ],
      "stateMutability": "view",
      "type": "function"
    },
    {
      "inputs": [
        {
          "internalType": "bytes4",
          "name": "role",
          "type": "bytes4"
        },
        {
          "internalType": "address",
          "name": "account",
          "type": "address"
        }
      ],
      "name": "grantRole",
      "outputs": [],
      "stateMutability": "nonpayable",
      "type": "function"
    },
    {
      "inputs": [
        {
          "internalType": "bytes4[]",
          "name": "roles",
          "type": "bytes4[]"
        },
        {
          "internalType": "address",
          "name": "account",
          "type": "address"
        }
      ],
      "name": "grantRoles",
      "outputs": [],
      "stateMutability": "nonpayable",
      "type": "function"
    },
    {
      "inputs": [
        {
          "internalType": "bytes4",
          "name": "role",
          "type": "bytes4"
        },
        {
          "internalType": "address",
          "name": "account",
          "type": "address"
        }
      ],
      "name": "hasRole",
      "outputs": [
        {
          "internalType": "bool",
          "name": "",
          "type": "bool"
        }
      ],
      "stateMutability": "view",
      "type": "function"
    },
    {
      "inputs": [
        {
          "internalType": "bytes4",
          "name": "role",
          "type": "bytes4"
        }
      ],
      "name": "lockRole",
      "outputs": [],
      "stateMutability": "nonpayable",
      "type": "function"
    },
    {
      "inputs": [
        {
          "internalType": "bytes32",
          "name": "base",
          "type": "bytes32"
        },
        {
          "internalType": "bytes32",
          "name": "quote",
          "type": "bytes32"
        },
        {
          "internalType": "uint256",
          "name": "amount",
          "type": "uint256"
        }
      ],
      "name": "peek",
      "outputs": [
        {
          "internalType": "uint256",
          "name": "value",
          "type": "uint256"
        },
        {
          "internalType": "uint256",
          "name": "updateTime",
          "type": "uint256"
        }
      ],
      "stateMutability": "view",
      "type": "function"
    },
    {
      "inputs": [
        {
          "internalType": "bytes4",
          "name": "role",
          "type": "bytes4"
        },
        {
          "internalType": "address",
          "name": "account",
          "type": "address"
        }
      ],
      "name": "renounceRole",
      "outputs": [],
      "stateMutability": "nonpayable",
      "type": "function"
    },
    {
      "inputs": [
        {
          "internalType": "bytes4",
          "name": "role",
          "type": "bytes4"
        },
        {
          "internalType": "address",
          "name": "account",
          "type": "address"
        }
      ],
      "name": "revokeRole",
      "outputs": [],
      "stateMutability": "nonpayable",
      "type": "function"
    },
    {
      "inputs": [
        {
          "internalType": "bytes4[]",
          "name": "roles",
          "type": "bytes4[]"
        },
        {
          "internalType": "address",
          "name": "account",
          "type": "address"
        }
      ],
      "name": "revokeRoles",
      "outputs": [],
      "stateMutability": "nonpayable",
      "type": "function"
    },
    {
      "inputs": [],
      "name": "secondsAgo",
      "outputs": [
        {
          "internalType": "uint32",
          "name": "",
          "type": "uint32"
        }
      ],
      "stateMutability": "view",
      "type": "function"
    },
    {
      "inputs": [
        {
          "internalType": "bytes4",
          "name": "role",
          "type": "bytes4"
        },
        {
          "internalType": "bytes4",
          "name": "adminRole",
          "type": "bytes4"
        }
      ],
      "name": "setRoleAdmin",
      "outputs": [],
      "stateMutability": "nonpayable",
      "type": "function"
    },
    {
      "inputs": [
        {
          "internalType": "uint32",
          "name": "secondsAgo_",
          "type": "uint32"
        }
      ],
      "name": "setSecondsAgo",
      "outputs": [],
      "stateMutability": "nonpayable",
      "type": "function"
    },
    {
      "inputs": [
        {
          "internalType": "bytes6",
          "name": "base",
          "type": "bytes6"
        },
        {
          "internalType": "bytes6",
          "name": "quote",
          "type": "bytes6"
        },
        {
          "internalType": "address",
          "name": "source",
          "type": "address"
        }
      ],
      "name": "setSource",
      "outputs": [],
      "stateMutability": "nonpayable",
      "type": "function"
    },
    {
      "inputs": [
        {
          "internalType": "bytes6[]",
          "name": "bases",
          "type": "bytes6[]"
        },
        {
          "internalType": "bytes6[]",
          "name": "quotes",
          "type": "bytes6[]"
        },
        {
          "internalType": "address[]",
          "name": "sources_",
          "type": "address[]"
        }
      ],
      "name": "setSources",
      "outputs": [],
      "stateMutability": "nonpayable",
      "type": "function"
    },
    {
      "inputs": [
        {
          "internalType": "bytes6",
          "name": "",
          "type": "bytes6"
        },
        {
          "internalType": "bytes6",
          "name": "",
          "type": "bytes6"
        }
      ],
      "name": "sources",
      "outputs": [
        {
          "internalType": "address",
          "name": "source",
          "type": "address"
        },
        {
          "internalType": "bool",
          "name": "inverse",
          "type": "bool"
        }
      ],
      "stateMutability": "view",
      "type": "function"
    },
    {
      "inputs": [
        {
          "internalType": "address",
          "name": "",
          "type": "address"
        }
      ],
      "name": "sourcesData",
      "outputs": [
        {
          "internalType": "address",
          "name": "factory",
          "type": "address"
        },
        {
          "internalType": "address",
          "name": "baseToken",
          "type": "address"
        },
        {
          "internalType": "address",
          "name": "quoteToken",
          "type": "address"
        },
        {
          "internalType": "uint24",
          "name": "fee",
          "type": "uint24"
        }
      ],
      "stateMutability": "view",
      "type": "function"
    }
  ],
  "bytecode": "0x60806040523480156200001157600080fd5b506200001f60003362000039565b620000336001600160e01b031980620000ae565b62000187565b62000045828262000130565b620000aa576001600160e01b031982166000818152602081815260408083206001600160a01b0386168085529252808320805460ff1916600117905551339391927fe6231789d19137da31d0550f4ba9ee379020a8cfb64cb79bf1790c996d2e616591a45b5050565b6001600160e01b03198116620000c48362000165565b6001600160e01b03191614620000aa576001600160e01b0319828116600081815260208190526040808220600101805463ffffffff191660e087901c17905551928416927fd348e2220a50b4500ec353f6e802d2f14dd1b5d6786148fd1bbcc570bf92d4739190a35050565b6001600160e01b031982166000908152602081815260408083206001600160a01b038516845290915290205460ff1692915050565b6001600160e01b03191660009081526020819052604090206001015460e01b90565b611c9c80620001976000396000f3fe608060405234801561001057600080fd5b506004361061016c5760003560e01c8063687f0e4c116100cd578063ad82110f11610081578063de02cde711610066578063de02cde7146102de578063effae353146102f1578063f5d76739146103045761016c565b8063ad82110f146102b8578063ae93c1b5146102cb5761016c565b806392b45d9c116100b257806392b45d9c1461027c5780639f1ed3c01461028f578063a4f0d7d0146102b05761016c565b8063687f0e4c1461025657806385f5f156146102695761016c565b80635909c12f11610124578063633dd14511610109578063633dd1451461021e578063671174951461023357806368284fd4146101c25761016c565b80635909c12f146101f65780635ba5e9f01461020b5761016c565b806344faded01161015557806344faded0146101af578063462f9a28146101c2578063559742d9146101e35761016c565b806310ab9432146101715780631ad7b1271461019a575b600080fd5b61018461017f36600461174a565b610317565b604051610191919061192c565b60405180910390f35b6101ad6101a8366004611897565b61032a565b005b6101ad6101bd36600461174a565b6103ff565b6101d56101d0366004611705565b61043d565b604051610191929190611ae3565b6101ad6101f1366004611730565b610467565b6101fe6104be565b6040516101919190611937565b6101fe610219366004611730565b6104c3565b6102266104d6565b6040516101919190611af1565b610246610241366004611540565b6104e2565b60405161019194939291906118bb565b6101ad61026436600461174a565b61052f565b6101ad610277366004611621565b610561565b6101ad61028a3660046117db565b61067d565b6102a261029d3660046117b2565b610b58565b604051610191929190611911565b6101fe610b9b565b6101ad6102c6366004611578565b610bbf565b6101ad6102d9366004611780565b610c5d565b6101ad6102ec36600461174a565b610c90565b6101ad6102ff366004611578565b610cc3565b6101d5610312366004611821565b610d54565b60006103238383610eec565b9392505050565b6103586000357fffffffff000000000000000000000000000000000000000000000000000000001633610eec565b61037d5760405162461bcd60e51b815260040161037490611aac565b60405180910390fd5b63ffffffff81166103a05760405162461bcd60e51b8152600401610374906119d2565b600180547fffffffffffffffffffffffffffffffffffffffffffffffffffffffff000000001663ffffffff83169081179091556040517f7a30af0ec8d2cdbaa589a5d6743a47a62b12f68a8d8df30747c7fcc9c69436ad90600090a250565b8161041261040c82610f39565b33610eec565b61042e5760405162461bcd60e51b81526004016103749061199b565b6104388383610f73565b505050565b60008061045b61044c86611018565b61045586611018565b85610d54565b91509150935093915050565b8061047461040c82610f39565b6104905760405162461bcd60e51b81526004016103749061199b565b6104ba827fffffffff0000000000000000000000000000000000000000000000000000000061105a565b5050565b600081565b60006104ce82610f39565b90505b919050565b60015463ffffffff1681565b6003602052600090815260409020805460018201546002909201546001600160a01b039182169282169181169074010000000000000000000000000000000000000000900462ffffff1684565b6001600160a01b03811633146105575760405162461bcd60e51b815260040161037490611a75565b6104ba8282610f73565b61058f6000357fffffffff000000000000000000000000000000000000000000000000000000001633610eec565b6105ab5760405162461bcd60e51b815260040161037490611aac565b815183511480156105bd575080518251145b6105d95760405162461bcd60e51b815260040161037490611a07565b60005b83518110156106775761066584828151811061060857634e487b7160e01b600052603260045260246000fd5b602002602001015184838151811061063057634e487b7160e01b600052603260045260246000fd5b602002602001015184848151811061065857634e487b7160e01b600052603260045260246000fd5b602002602001015161067d565b8061066f81611be9565b9150506105dc565b50505050565b6106ab6000357fffffffff000000000000000000000000000000000000000000000000000000001633610eec565b6106c75760405162461bcd60e51b815260040161037490611aac565b6040805180820182526001600160a01b03808416808352600060208085018281527fffffffffffff0000000000000000000000000000000000000000000000000000808b168085526002808552898620928c168087529285528986209851895494511515740100000000000000000000000000000000000000009081027fffffffffffffffffffffff00ffffffffffffffffffffffffffffffffffffffff928b167fffffffffffffffffffffffff000000000000000000000000000000000000000097881617831617909a558a51808c018c5288815260018188019081529488529186528a872092875291855294899020945185549251151590980297909616911617909316939093179092558251608081018085527fc45a0155000000000000000000000000000000000000000000000000000000009052925183929163c45a0155916084808601929190818703018186803b15801561082757600080fd5b505afa15801561083b573d6000803e3d6000fd5b505050506040513d601f19601f8201168201806040525081019061085f919061155c565b6001600160a01b03168152602001826001600160a01b0316630dfe16816040518163ffffffff1660e01b815260040160206040518083038186803b1580156108a657600080fd5b505afa1580156108ba573d6000803e3d6000fd5b505050506040513d601f19601f820116820180604052508101906108de919061155c565b6001600160a01b03168152602001826001600160a01b031663d21220a76040518163ffffffff1660e01b815260040160206040518083038186803b15801561092557600080fd5b505afa158015610939573d6000803e3d6000fd5b505050506040513d601f19601f8201168201806040525081019061095d919061155c565b6001600160a01b03168152602001826001600160a01b031663ddca3f436040518163ffffffff1660e01b815260040160206040518083038186803b1580156109a457600080fd5b505afa1580156109b8573d6000803e3d6000fd5b505050506040513d601f19601f820116820180604052508101906109dc919061185c565b62ffffff9081169091526001600160a01b038084166000818152600360209081526040808320875181549087167fffffffffffffffffffffffff000000000000000000000000000000000000000091821617825592880151600182018054918816918516919091179055878201516002909101805460609099015190971674010000000000000000000000000000000000000000027fffffffffffffffffff000000ffffffffffffffffffffffffffffffffffffffff9190961697909216969096171692909217909255915190917fffffffffffff000000000000000000000000000000000000000000000000000080861692908716917f6b17b6fe258656b70fbe6082d40c42859bfac908441594fab748a898387cc03591a46040516001600160a01b038216907fffffffffffff000000000000000000000000000000000000000000000000000080861691908516907f6b17b6fe258656b70fbe6082d40c42859bfac908441594fab748a898387cc03590600090a4505050565b60026020908152600092835260408084209091529082529020546001600160a01b0381169074010000000000000000000000000000000000000000900460ff1682565b7fffffffff0000000000000000000000000000000000000000000000000000000081565b60005b825181101561043857610bfe61040c848381518110610bf157634e487b7160e01b600052603260045260246000fd5b6020026020010151610f39565b610c1a5760405162461bcd60e51b81526004016103749061199b565b610c4b838281518110610c3d57634e487b7160e01b600052603260045260246000fd5b602002602001015183610f73565b80610c5581611be9565b915050610bc2565b81610c6a61040c82610f39565b610c865760405162461bcd60e51b81526004016103749061199b565b610438838361105a565b81610c9d61040c82610f39565b610cb95760405162461bcd60e51b81526004016103749061199b565b610438838361113c565b60005b825181101561043857610cf561040c848381518110610bf157634e487b7160e01b600052603260045260246000fd5b610d115760405162461bcd60e51b81526004016103749061199b565b610d42838281518110610d3457634e487b7160e01b600052603260045260246000fd5b60200260200101518361113c565b80610d4c81611be9565b915050610cc6565b7fffffffffffff0000000000000000000000000000000000000000000000000000838116600090815260026020908152604080832093861683529281528282208351808501909452546001600160a01b038116845274010000000000000000000000000000000000000000900460ff16151590830152908190610dd561143b565b81516001600160a01b0316610dfc5760405162461bcd60e51b815260040161037490611a3e565b5080516001600160a01b0390811660009081526003602090815260409182902082516080810184528154851681526001820154851681840152600290910154938416928101929092527401000000000000000000000000000000000000000090920462ffffff1660608201529082015115610ea1578051604082015160208301516060840151600154610e9a94939291908a9063ffffffff166111e3565b9350610ecd565b8051602082015160408301516060840151600154610eca94939291908a9063ffffffff166111e3565b93505b600154610ee09063ffffffff1642611bd2565b92505050935093915050565b7fffffffff0000000000000000000000000000000000000000000000000000000082166000908152602081815260408083206001600160a01b038516845290915290205460ff1692915050565b7fffffffff000000000000000000000000000000000000000000000000000000001660009081526020819052604090206001015460e01b90565b610f7d8282610eec565b156104ba577fffffffff0000000000000000000000000000000000000000000000000000000082166000818152602081815260408083206001600160a01b038616808552925280832080547fffffffffffffffffffffffffffffffffffffffffffffffffffffffffffffff0016905551339391927f4ddc7b757e7bdd7254a9cd39452d307a52761bc824625c6a33104a075d8099e691a45050565b807fffffffffffff0000000000000000000000000000000000000000000000000000811681146104d15760405162461bcd60e51b815260040161037490611964565b7fffffffff00000000000000000000000000000000000000000000000000000000811661108683610f39565b7fffffffff0000000000000000000000000000000000000000000000000000000016146104ba577fffffffff0000000000000000000000000000000000000000000000000000000082811660008181526020819052604080822060010180547fffffffffffffffffffffffffffffffffffffffffffffffffffffffff000000001660e087901c17905551928416927fd348e2220a50b4500ec353f6e802d2f14dd1b5d6786148fd1bbcc570bf92d4739190a35050565b6111468282610eec565b6104ba577fffffffff0000000000000000000000000000000000000000000000000000000082166000818152602081815260408083206001600160a01b038616808552925280832080547fffffffffffffffffffffffffffffffffffffffffffffffffffffffffffffff0016600117905551339391927fe6231789d19137da31d0550f4ba9ee379020a8cfb64cb79bf1790c996d2e616591a45050565b600080876001600160a01b0316631698ee828888886040518463ffffffff1660e01b8152600401611216939291906118e9565b60206040518083038186803b15801561122e57600080fd5b505afa158015611242573d6000803e3d6000fd5b505050506040513d601f19601f82011682018060405250810190611266919061155c565b9050806001600160a01b0316630dfe16816040518163ffffffff1660e01b815260040160206040518083038186803b1580156112a157600080fd5b505afa1580156112b5573d6000803e3d6000fd5b505050506040513d601f19601f820116820180604052508101906112d9919061155c565b6001600160a01b0316876001600160a01b031614156113755761136d816001600160a01b031663a035b1fe6040518163ffffffff1660e01b815260040160206040518083038186803b15801561132e57600080fd5b505afa158015611342573d6000803e3d6000fd5b505050506040513d601f19601f82011682018060405250810190611366919061187f565b85906113fe565b9150506113f4565b6113f0816001600160a01b031663a035b1fe6040518163ffffffff1660e01b815260040160206040518083038186803b1580156113b157600080fd5b505afa1580156113c5573d6000803e3d6000fd5b505050506040513d601f19601f820116820180604052508101906113e9919061187f565b859061141c565b9150505b9695505050505050565b600061140a8284611b95565b670de0b6b3a764000090049392505050565b60008161143184670de0b6b3a7640000611b95565b6103239190611b75565b60408051608081018252600080825260208201819052918101829052606081019190915290565b80356104d181611c4e565b600082601f83011261147d578081fd5b8135602061149261148d83611b51565b611b02565b82815281810190858301838502870184018810156114ae578586fd5b855b858110156114d3576114c182611510565b845292840192908401906001016114b0565b5090979650505050505050565b80357fffffffff00000000000000000000000000000000000000000000000000000000811681146104d157600080fd5b80357fffffffffffff0000000000000000000000000000000000000000000000000000811681146104d157600080fd5b600060208284031215611551578081fd5b813561032381611c4e565b60006020828403121561156d578081fd5b815161032381611c4e565b6000806040838503121561158a578081fd5b823567ffffffffffffffff8111156115a0578182fd5b8301601f810185136115b0578182fd5b803560206115c061148d83611b51565b82815281810190848301838502860184018a10156115dc578687fd5b8695505b84861015611605576115f1816114e0565b8352600195909501949183019183016115e0565b5095506116159050868201611462565b93505050509250929050565b600080600060608486031215611635578081fd5b833567ffffffffffffffff8082111561164c578283fd5b6116588783880161146d565b945060209150818601358181111561166e578384fd5b61167a8882890161146d565b94505060408601358181111561168e578384fd5b86019050601f810187136116a0578283fd5b80356116ae61148d82611b51565b81815283810190838501858402850186018b10156116ca578687fd5b8694505b838510156116f55780356116e181611c4e565b8352600194909401939185019185016116ce565b5080955050505050509250925092565b600080600060608486031215611719578283fd5b505081359360208301359350604090920135919050565b600060208284031215611741578081fd5b610323826114e0565b6000806040838503121561175c578182fd5b611765836114e0565b9150602083013561177581611c4e565b809150509250929050565b60008060408385031215611792578182fd5b61179b836114e0565b91506117a9602084016114e0565b90509250929050565b600080604083850312156117c4578182fd5b6117cd83611510565b91506117a960208401611510565b6000806000606084860312156117ef578081fd5b6117f884611510565b925061180660208501611510565b9150604084013561181681611c4e565b809150509250925092565b600080600060608486031215611835578081fd5b61183e84611510565b925061184c60208501611510565b9150604084013590509250925092565b60006020828403121561186d578081fd5b815162ffffff81168114610323578182fd5b600060208284031215611890578081fd5b5051919050565b6000602082840312156118a8578081fd5b813563ffffffff81168114610323578182fd5b6001600160a01b03948516815292841660208401529216604082015262ffffff909116606082015260800190565b6001600160a01b03938416815291909216602082015262ffffff909116604082015260600190565b6001600160a01b039290921682521515602082015260400190565b901515815260200190565b7fffffffff0000000000000000000000000000000000000000000000000000000091909116815260200190565b6020808252600d908201527f43617374206f766572666c6f7700000000000000000000000000000000000000604082015260600190565b6020808252600a908201527f4f6e6c792061646d696e00000000000000000000000000000000000000000000604082015260600190565b6020808252818101527f556e6973776170206d757374206c6f6f6b20696e746f2074686520706173742e604082015260600190565b60208082526011908201527f4d69736d61746368656420696e70757473000000000000000000000000000000604082015260600190565b60208082526010908201527f536f75726365206e6f7420666f756e6400000000000000000000000000000000604082015260600190565b60208082526016908201527f52656e6f756e6365206f6e6c7920666f722073656c6600000000000000000000604082015260600190565b6020808252600d908201527f4163636573732064656e69656400000000000000000000000000000000000000604082015260600190565b918252602082015260400190565b63ffffffff91909116815260200190565b604051601f82017fffffffffffffffffffffffffffffffffffffffffffffffffffffffffffffffe016810167ffffffffffffffff81118282101715611b4957611b49611c38565b604052919050565b600067ffffffffffffffff821115611b6b57611b6b611c38565b5060209081020190565b600082611b9057634e487b7160e01b81526012600452602481fd5b500490565b6000817fffffffffffffffffffffffffffffffffffffffffffffffffffffffffffffffff0483118215151615611bcd57611bcd611c22565b500290565b600082821015611be457611be4611c22565b500390565b60007fffffffffffffffffffffffffffffffffffffffffffffffffffffffffffffffff821415611c1b57611c1b611c22565b5060010190565b634e487b7160e01b600052601160045260246000fd5b634e487b7160e01b600052604160045260246000fd5b6001600160a01b0381168114611c6357600080fd5b5056fea264697066735822122085e0ab6fa14acbb9fe6c864d595cccf854783c5915ba1415d79d408ddfe63ae864736f6c63430008010033",
  "linkReferences": {},
  "deployedLinkReferences": {}
}