{
  "_format": "hh-sol-artifact-1",
  "contractName": "VaultStorage",
  "sourceName": "contracts/VaultStorage.sol",
  "abi": [
    {
      "inputs": [],
      "name": "platformFee",
      "outputs": [
        {
          "internalType": "uint256",
          "name": "",
          "type": "uint256"
        }
      ],
      "stateMutability": "view",
      "type": "function"
    },
    {
      "inputs": [],
      "name": "platformFeeRecipient",
      "outputs": [
        {
          "internalType": "address",
          "name": "",
          "type": "address"
        }
      ],
      "stateMutability": "view",
      "type": "function"
    },
    {
      "inputs": [],
      "name": "royaltyAsset",
      "outputs": [
        {
          "internalType": "address",
          "name": "",
          "type": "address"
        }
      ],
      "stateMutability": "view",
      "type": "function"
    },
    {
      "inputs": [],
      "name": "splitterProxy",
      "outputs": [
        {
          "internalType": "address",
          "name": "",
          "type": "address"
        }
      ],
      "stateMutability": "view",
      "type": "function"
    }
  ],
  "bytecode": "0x608060405234801561001057600080fd5b5061011d806100206000396000f3fe6080604052348015600f57600080fd5b506004361060465760003560e01c806326232a2e14604b578063a3b577ab146066578063c894ad491460a9578063eb13554f1460c8575b600080fd5b605360025481565b6040519081526020015b60405180910390f35b60015460859073ffffffffffffffffffffffffffffffffffffffff1681565b60405173ffffffffffffffffffffffffffffffffffffffff9091168152602001605d565b60005460859073ffffffffffffffffffffffffffffffffffffffff1681565b60035460859073ffffffffffffffffffffffffffffffffffffffff168156fea2646970667358221220aa46648189543b99c5dcbbf6b6d5f6c0eee12c74bbc12260e1e9eb99baa2cf7064736f6c63430008040033",
  "linkReferences": {},
  "deployedLinkReferences": {}
}