{
  "_format": "hh-sol-artifact-1",
  "contractName": "Erc20Vault",
  "sourceName": "contracts/vault/Erc20Vault.sol",
  "abi": [
    {
      "inputs": [
        {
          "internalType": "contract IController",
          "name": "controller",
          "type": "address"
        }
      ],
      "stateMutability": "nonpayable",
      "type": "constructor"
    },
    {
      "anonymous": false,
      "inputs": [
        {
          "indexed": true,
          "internalType": "bytes32",
          "name": "key",
          "type": "bytes32"
        },
        {
          "indexed": false,
          "internalType": "address",
          "name": "value",
          "type": "address"
        },
        {
          "indexed": false,
          "internalType": "uint256",
          "name": "delay",
          "type": "uint256"
        }
      ],
      "name": "ConfigPreparedAddress",
      "type": "event"
    },
    {
      "anonymous": false,
      "inputs": [
        {
          "indexed": true,
          "internalType": "bytes32",
          "name": "key",
          "type": "bytes32"
        },
        {
          "indexed": false,
          "internalType": "uint256",
          "name": "value",
          "type": "uint256"
        },
        {
          "indexed": false,
          "internalType": "uint256",
          "name": "delay",
          "type": "uint256"
        }
      ],
      "name": "ConfigPreparedNumber",
      "type": "event"
    },
    {
      "anonymous": false,
      "inputs": [
        {
          "indexed": true,
          "internalType": "bytes32",
          "name": "key",
          "type": "bytes32"
        }
      ],
      "name": "ConfigReset",
      "type": "event"
    },
    {
      "anonymous": false,
      "inputs": [
        {
          "indexed": true,
          "internalType": "bytes32",
          "name": "key",
          "type": "bytes32"
        },
        {
          "indexed": false,
          "internalType": "address",
          "name": "oldValue",
          "type": "address"
        },
        {
          "indexed": false,
          "internalType": "address",
          "name": "newValue",
          "type": "address"
        }
      ],
      "name": "ConfigUpdatedAddress",
      "type": "event"
    },
    {
      "anonymous": false,
      "inputs": [
        {
          "indexed": true,
          "internalType": "bytes32",
          "name": "key",
          "type": "bytes32"
        },
        {
          "indexed": false,
          "internalType": "uint256",
          "name": "oldValue",
          "type": "uint256"
        },
        {
          "indexed": false,
          "internalType": "uint256",
          "name": "newValue",
          "type": "uint256"
        }
      ],
      "name": "ConfigUpdatedNumber",
      "type": "event"
    },
    {
      "anonymous": false,
      "inputs": [
        {
          "indexed": true,
          "internalType": "uint256",
          "name": "netProfit",
          "type": "uint256"
        },
        {
          "indexed": true,
          "internalType": "uint256",
          "name": "loss",
          "type": "uint256"
        }
      ],
      "name": "Harvest",
      "type": "event"
    },
    {
      "anonymous": false,
      "inputs": [
        {
          "indexed": true,
          "internalType": "address",
          "name": "strategy",
          "type": "address"
        }
      ],
      "name": "StrategyActivated",
      "type": "event"
    },
    {
      "anonymous": false,
      "inputs": [
        {
          "indexed": true,
          "internalType": "address",
          "name": "strategy",
          "type": "address"
        }
      ],
      "name": "StrategyDeactivated",
      "type": "event"
    },
    {
      "inputs": [],
      "name": "MAX_DEVIATION_BOUND",
      "outputs": [
        {
          "internalType": "uint256",
          "name": "",
          "type": "uint256"
        }
      ],
      "stateMutability": "view",
      "type": "function"
    },
    {
      "inputs": [],
      "name": "MAX_PERFORMANCE_FEE",
      "outputs": [
        {
          "internalType": "uint256",
          "name": "",
          "type": "uint256"
        }
      ],
      "stateMutability": "view",
      "type": "function"
    },
    {
      "inputs": [],
      "name": "STRATEGY_DELAY",
      "outputs": [
        {
          "internalType": "uint256",
          "name": "",
          "type": "uint256"
        }
      ],
      "stateMutability": "view",
      "type": "function"
    },
    {
      "inputs": [],
      "name": "activateStrategy",
      "outputs": [
        {
          "internalType": "bool",
          "name": "",
          "type": "bool"
        }
      ],
      "stateMutability": "nonpayable",
      "type": "function"
    },
    {
      "inputs": [],
      "name": "addressProvider",
      "outputs": [
        {
          "internalType": "contract IAddressProvider",
          "name": "",
          "type": "address"
        }
      ],
      "stateMutability": "view",
      "type": "function"
    },
    {
      "inputs": [],
      "name": "controller",
      "outputs": [
        {
          "internalType": "contract IController",
          "name": "",
          "type": "address"
        }
      ],
      "stateMutability": "view",
      "type": "function"
    },
    {
      "inputs": [
        {
          "internalType": "bytes32",
          "name": "",
          "type": "bytes32"
        }
      ],
      "name": "currentAddresses",
      "outputs": [
        {
          "internalType": "address",
          "name": "",
          "type": "address"
        }
      ],
      "stateMutability": "view",
      "type": "function"
    },
    {
      "inputs": [],
      "name": "currentAllocated",
      "outputs": [
        {
          "internalType": "uint256",
          "name": "",
          "type": "uint256"
        }
      ],
      "stateMutability": "view",
      "type": "function"
    },
    {
      "inputs": [
        {
          "internalType": "bytes32",
          "name": "",
          "type": "bytes32"
        }
      ],
      "name": "currentUInts256",
      "outputs": [
        {
          "internalType": "uint256",
          "name": "",
          "type": "uint256"
        }
      ],
      "stateMutability": "view",
      "type": "function"
    },
    {
      "inputs": [],
      "name": "deactivateStrategy",
      "outputs": [
        {
          "internalType": "bool",
          "name": "",
          "type": "bool"
        }
      ],
      "stateMutability": "nonpayable",
      "type": "function"
    },
    {
      "inputs": [
        {
          "internalType": "bytes32",
          "name": "",
          "type": "bytes32"
        }
      ],
      "name": "deadlines",
      "outputs": [
        {
          "internalType": "uint256",
          "name": "",
          "type": "uint256"
        }
      ],
      "stateMutability": "view",
      "type": "function"
    },
    {
      "inputs": [],
      "name": "deposit",
      "outputs": [],
      "stateMutability": "payable",
      "type": "function"
    },
    {
      "inputs": [],
      "name": "executeBound",
      "outputs": [
        {
          "internalType": "uint256",
          "name": "",
          "type": "uint256"
        }
      ],
      "stateMutability": "nonpayable",
      "type": "function"
    },
    {
      "inputs": [],
      "name": "executeDebtLimit",
      "outputs": [
        {
          "internalType": "uint256",
          "name": "",
          "type": "uint256"
        }
      ],
      "stateMutability": "nonpayable",
      "type": "function"
    },
    {
      "inputs": [],
      "name": "executeNewStrategy",
      "outputs": [
        {
          "internalType": "address",
          "name": "",
          "type": "address"
        }
      ],
      "stateMutability": "nonpayable",
      "type": "function"
    },
    {
      "inputs": [],
      "name": "executePerformanceFee",
      "outputs": [
        {
          "internalType": "uint256",
          "name": "",
          "type": "uint256"
        }
      ],
      "stateMutability": "nonpayable",
      "type": "function"
    },
    {
      "inputs": [],
      "name": "executeReserveFee",
      "outputs": [
        {
          "internalType": "uint256",
          "name": "",
          "type": "uint256"
        }
      ],
      "stateMutability": "nonpayable",
      "type": "function"
    },
    {
      "inputs": [],
      "name": "executeStrategistFee",
      "outputs": [
        {
          "internalType": "uint256",
          "name": "",
          "type": "uint256"
        }
      ],
      "stateMutability": "nonpayable",
      "type": "function"
    },
    {
      "inputs": [],
      "name": "executeTargetAllocation",
      "outputs": [
        {
          "internalType": "uint256",
          "name": "",
          "type": "uint256"
        }
      ],
      "stateMutability": "nonpayable",
      "type": "function"
    },
    {
      "inputs": [
        {
          "internalType": "address",
          "name": "strategy",
          "type": "address"
        }
      ],
      "name": "getAllocatedToStrategyWaitingForRemoval",
      "outputs": [
        {
          "internalType": "uint256",
          "name": "",
          "type": "uint256"
        }
      ],
      "stateMutability": "view",
      "type": "function"
    },
    {
      "inputs": [],
      "name": "getBound",
      "outputs": [
        {
          "internalType": "uint256",
          "name": "",
          "type": "uint256"
        }
      ],
      "stateMutability": "view",
      "type": "function"
    },
    {
      "inputs": [],
      "name": "getDebtLimit",
      "outputs": [
        {
          "internalType": "uint256",
          "name": "",
          "type": "uint256"
        }
      ],
      "stateMutability": "view",
      "type": "function"
    },
    {
      "inputs": [],
      "name": "getPerformanceFee",
      "outputs": [
        {
          "internalType": "uint256",
          "name": "",
          "type": "uint256"
        }
      ],
      "stateMutability": "view",
      "type": "function"
    },
    {
      "inputs": [],
      "name": "getReserveFee",
      "outputs": [
        {
          "internalType": "uint256",
          "name": "",
          "type": "uint256"
        }
      ],
      "stateMutability": "view",
      "type": "function"
    },
    {
      "inputs": [],
      "name": "getStrategiesWaitingForRemoval",
      "outputs": [
        {
          "internalType": "address[]",
          "name": "",
          "type": "address[]"
        }
      ],
      "stateMutability": "view",
      "type": "function"
    },
    {
      "inputs": [],
      "name": "getStrategistFee",
      "outputs": [
        {
          "internalType": "uint256",
          "name": "",
          "type": "uint256"
        }
      ],
      "stateMutability": "view",
      "type": "function"
    },
    {
      "inputs": [],
      "name": "getStrategy",
      "outputs": [
        {
          "internalType": "contract IStrategy",
          "name": "",
          "type": "address"
        }
      ],
      "stateMutability": "view",
      "type": "function"
    },
    {
      "inputs": [],
      "name": "getTargetAllocation",
      "outputs": [
        {
          "internalType": "uint256",
          "name": "",
          "type": "uint256"
        }
      ],
      "stateMutability": "view",
      "type": "function"
    },
    {
      "inputs": [],
      "name": "getTotalUnderlying",
      "outputs": [
        {
          "internalType": "uint256",
          "name": "",
          "type": "uint256"
        }
      ],
      "stateMutability": "view",
      "type": "function"
    },
    {
      "inputs": [],
      "name": "getUnderlying",
      "outputs": [
        {
          "internalType": "address",
          "name": "",
          "type": "address"
        }
      ],
      "stateMutability": "view",
      "type": "function"
    },
    {
      "inputs": [],
      "name": "harvest",
      "outputs": [
        {
          "internalType": "bool",
          "name": "",
          "type": "bool"
        }
      ],
      "stateMutability": "nonpayable",
      "type": "function"
    },
    {
      "inputs": [
        {
          "internalType": "address",
          "name": "_pool",
          "type": "address"
        },
        {
          "internalType": "uint256",
          "name": "_debtLimit",
          "type": "uint256"
        },
        {
          "internalType": "uint256",
          "name": "_targetAllocation",
          "type": "uint256"
        },
        {
          "internalType": "uint256",
          "name": "_bound",
          "type": "uint256"
        }
      ],
      "name": "initialize",
      "outputs": [],
      "stateMutability": "nonpayable",
      "type": "function"
    },
    {
      "inputs": [
        {
          "internalType": "address",
          "name": "strategy_",
          "type": "address"
        }
      ],
      "name": "initializeStrategy",
      "outputs": [
        {
          "internalType": "bool",
          "name": "",
          "type": "bool"
        }
      ],
      "stateMutability": "nonpayable",
      "type": "function"
    },
    {
      "inputs": [
        {
          "internalType": "bytes32",
          "name": "",
          "type": "bytes32"
        }
      ],
      "name": "pendingAddresses",
      "outputs": [
        {
          "internalType": "address",
          "name": "",
          "type": "address"
        }
      ],
      "stateMutability": "view",
      "type": "function"
    },
    {
      "inputs": [
        {
          "internalType": "bytes32",
          "name": "",
          "type": "bytes32"
        }
      ],
      "name": "pendingUInts256",
      "outputs": [
        {
          "internalType": "uint256",
          "name": "",
          "type": "uint256"
        }
      ],
      "stateMutability": "view",
      "type": "function"
    },
    {
      "inputs": [],
      "name": "pool",
      "outputs": [
        {
          "internalType": "address",
          "name": "",
          "type": "address"
        }
      ],
      "stateMutability": "view",
      "type": "function"
    },
    {
      "inputs": [
        {
          "internalType": "uint256",
          "name": "newBound",
          "type": "uint256"
        }
      ],
      "name": "prepareBound",
      "outputs": [
        {
          "internalType": "bool",
          "name": "",
          "type": "bool"
        }
      ],
      "stateMutability": "nonpayable",
      "type": "function"
    },
    {
      "inputs": [
        {
          "internalType": "uint256",
          "name": "newDebtLimit",
          "type": "uint256"
        }
      ],
      "name": "prepareDebtLimit",
      "outputs": [
        {
          "internalType": "bool",
          "name": "",
          "type": "bool"
        }
      ],
      "stateMutability": "nonpayable",
      "type": "function"
    },
    {
      "inputs": [
        {
          "internalType": "address",
          "name": "newStrategy",
          "type": "address"
        }
      ],
      "name": "prepareNewStrategy",
      "outputs": [
        {
          "internalType": "bool",
          "name": "",
          "type": "bool"
        }
      ],
      "stateMutability": "nonpayable",
      "type": "function"
    },
    {
      "inputs": [
        {
          "internalType": "uint256",
          "name": "newPerformanceFee",
          "type": "uint256"
        }
      ],
      "name": "preparePerformanceFee",
      "outputs": [
        {
          "internalType": "bool",
          "name": "",
          "type": "bool"
        }
      ],
      "stateMutability": "nonpayable",
      "type": "function"
    },
    {
      "inputs": [
        {
          "internalType": "uint256",
          "name": "newReserveFee",
          "type": "uint256"
        }
      ],
      "name": "prepareReserveFee",
      "outputs": [
        {
          "internalType": "bool",
          "name": "",
          "type": "bool"
        }
      ],
      "stateMutability": "nonpayable",
      "type": "function"
    },
    {
      "inputs": [
        {
          "internalType": "uint256",
          "name": "newStrategistFee",
          "type": "uint256"
        }
      ],
      "name": "prepareStrategistFee",
      "outputs": [
        {
          "internalType": "bool",
          "name": "",
          "type": "bool"
        }
      ],
      "stateMutability": "nonpayable",
      "type": "function"
    },
    {
      "inputs": [
        {
          "internalType": "uint256",
          "name": "newTargetAllocation",
          "type": "uint256"
        }
      ],
      "name": "prepareTargetAllocation",
      "outputs": [
        {
          "internalType": "bool",
          "name": "",
          "type": "bool"
        }
      ],
      "stateMutability": "nonpayable",
      "type": "function"
    },
    {
      "inputs": [],
      "name": "reserve",
      "outputs": [
        {
          "internalType": "contract IVaultReserve",
          "name": "",
          "type": "address"
        }
      ],
      "stateMutability": "view",
      "type": "function"
    },
    {
      "inputs": [],
      "name": "resetBound",
      "outputs": [
        {
          "internalType": "bool",
          "name": "",
          "type": "bool"
        }
      ],
      "stateMutability": "nonpayable",
      "type": "function"
    },
    {
      "inputs": [],
      "name": "resetDebtLimit",
      "outputs": [
        {
          "internalType": "bool",
          "name": "",
          "type": "bool"
        }
      ],
      "stateMutability": "nonpayable",
      "type": "function"
    },
    {
      "inputs": [],
      "name": "resetNewStrategy",
      "outputs": [
        {
          "internalType": "bool",
          "name": "",
          "type": "bool"
        }
      ],
      "stateMutability": "nonpayable",
      "type": "function"
    },
    {
      "inputs": [],
      "name": "resetPerformanceFee",
      "outputs": [
        {
          "internalType": "bool",
          "name": "",
          "type": "bool"
        }
      ],
      "stateMutability": "nonpayable",
      "type": "function"
    },
    {
      "inputs": [],
      "name": "resetReserveFee",
      "outputs": [
        {
          "internalType": "bool",
          "name": "",
          "type": "bool"
        }
      ],
      "stateMutability": "nonpayable",
      "type": "function"
    },
    {
      "inputs": [],
      "name": "resetStrategistFee",
      "outputs": [
        {
          "internalType": "bool",
          "name": "",
          "type": "bool"
        }
      ],
      "stateMutability": "nonpayable",
      "type": "function"
    },
    {
      "inputs": [],
      "name": "resetTargetAllocation",
      "outputs": [
        {
          "internalType": "bool",
          "name": "",
          "type": "bool"
        }
      ],
      "stateMutability": "nonpayable",
      "type": "function"
    },
    {
      "inputs": [],
      "name": "roleManager",
      "outputs": [
        {
          "internalType": "contract IRoleManager",
          "name": "",
          "type": "address"
        }
      ],
      "stateMutability": "view",
      "type": "function"
    },
    {
      "inputs": [],
      "name": "strategyActive",
      "outputs": [
        {
          "internalType": "bool",
          "name": "",
          "type": "bool"
        }
      ],
      "stateMutability": "view",
      "type": "function"
    },
    {
      "inputs": [],
      "name": "totalDebt",
      "outputs": [
        {
          "internalType": "uint256",
          "name": "",
          "type": "uint256"
        }
      ],
      "stateMutability": "view",
      "type": "function"
    },
    {
      "inputs": [],
      "name": "waitingForRemovalAllocated",
      "outputs": [
        {
          "internalType": "uint256",
          "name": "",
          "type": "uint256"
        }
      ],
      "stateMutability": "view",
      "type": "function"
    },
    {
      "inputs": [
        {
          "internalType": "uint256",
          "name": "amount",
          "type": "uint256"
        }
      ],
      "name": "withdraw",
      "outputs": [
        {
          "internalType": "bool",
          "name": "",
          "type": "bool"
        }
      ],
      "stateMutability": "nonpayable",
      "type": "function"
    },
    {
      "inputs": [],
      "name": "withdrawAll",
      "outputs": [],
      "stateMutability": "nonpayable",
      "type": "function"
    },
    {
      "inputs": [],
      "name": "withdrawAllFromStrategy",
      "outputs": [
        {
          "internalType": "bool",
          "name": "",
          "type": "bool"
        }
      ],
      "stateMutability": "nonpayable",
      "type": "function"
    },
    {
      "inputs": [
        {
          "internalType": "uint256",
          "name": "amount",
          "type": "uint256"
        }
      ],
      "name": "withdrawFromReserve",
      "outputs": [],
      "stateMutability": "nonpayable",
      "type": "function"
    },
    {
      "inputs": [
        {
          "internalType": "uint256",
          "name": "amount",
          "type": "uint256"
        }
      ],
      "name": "withdrawFromStrategy",
      "outputs": [
        {
          "internalType": "bool",
          "name": "",
          "type": "bool"
        }
      ],
      "stateMutability": "nonpayable",
      "type": "function"
    },
    {
      "inputs": [
        {
          "internalType": "address",
          "name": "strategy",
          "type": "address"
        }
      ],
      "name": "withdrawFromStrategyWaitingForRemoval",
      "outputs": [
        {
          "internalType": "uint256",
          "name": "",
          "type": "uint256"
        }
      ],
      "stateMutability": "nonpayable",
      "type": "function"
    }
  ],
  "bytecode": "0x6101006040523480156200001257600080fd5b5060405162005bbf38038062005bbf83398101604081905262000035916200028f565b80620000c9816001600160a01b0316632954018c6040518163ffffffff1660e01b815260040160206040518083038186803b1580156200007457600080fd5b505afa15801562000089573d6000803e3d6000fd5b505050506040513d601f19601f82011682018060405250810190620000af91906200028f565b6001600160a01b0316620001a460201b620034da1760201c565b6001600160a01b03908116608052811660a081905260408051630a55006360e21b8152905160009291632954018c916004808301926020929190829003018186803b1580156200011857600080fd5b505afa1580156200012d573d6000803e3d6000fd5b505050506040513d601f19601f820116820180604052508101906200015391906200028f565b9050806001600160a01b031660c0816001600160a01b0316815250506200018e816001600160a01b03166200023760201b620035631760201c565b6001600160a01b031660e05250620002b6915050565b6040516321f8a72160e01b81526a3937b632a6b0b730b3b2b960a91b60048201526000906001600160a01b038316906321f8a721906024015b60206040518083038186803b158015620001f657600080fd5b505afa1580156200020b573d6000803e3d6000fd5b505050506040513d601f19601f820116820180604052508101906200023191906200028f565b92915050565b6040516321f8a72160e01b81526b7661756c745265736572766560a01b60048201526000906001600160a01b038316906321f8a72190602401620001dd565b6001600160a01b03811681146200028c57600080fd5b50565b600060208284031215620002a257600080fd5b8151620002af8162000276565b9392505050565b60805160a05160c05160e0516158826200033d600039600081816108d801528181610ca101528181610da901528181611ce2015281816148b20152818161499301528181614a1c01528181614dc201528181614f760152818161500601526150c901526000818161052b0152614e7f01526000610a1e015260006135a301526158826000f3fe6080604052600436106103a15760003560e01c80638e6ac89b116101e7578063c4baed931161010d578063e3976edf116100a0578063f76c33991161006f578063f76c3399146109d6578063f77c479114610a0c578063f95d943814610a40578063fc7b9c1814610a5657600080fd5b8063e3976edf14610956578063f09b8fb11461098c578063f1eeb9e6146109a1578063f3e7fc80146109c157600080fd5b8063d46a8478116100dc578063d46a847814610902578063d583e65914610917578063d698e2bb1461092c578063d8ae7bf81461094157600080fd5b8063c4baed9314610891578063c9fd9227146108b1578063cd3293de146108c6578063d0e30db0146108fa57600080fd5b8063a852d3e011610185578063aff1b7e411610154578063aff1b7e414610835578063b40494e514610862578063bd2a8b0714610877578063bdca91651461074e57600080fd5b8063a852d3e0146107cb578063a966bc09146107eb578063ade1096014610800578063af2a8fff1461081557600080fd5b80639816f473116101c15780639816f4731461076a5780639cf7fcc91461077f5780639d711f3b146107a1578063a50ec876146107b657600080fd5b80638e6ac89b1461072457806390f38918146107395780639407d08f1461074e57600080fd5b80634278a673116102cc5780636f21cac31161026a5780637fef50da116102395780637fef50da146106cf578063853828b6146106e4578063890f5f83146106f957806389efcaac1461070e57600080fd5b80636f21cac314610670578063779ce5a414610690578063798cf01d146106a55780637cd32a12146106ba57600080fd5b80634ec81af1116102a65780634ec81af1146106045780636741c1b914610624578063678cbcb5146106395780636d785cf31461065957600080fd5b80634278a673146105af5780634641257d146105cf57806348b19335146105e457600080fd5b806316f0115b116103445780632954018c116103135780632954018c146105195780632e1a7d4d1461054d57806332a894c11461056d578063346a4a511461058257600080fd5b806316f0115b146104af57806321401dd1146104cf5780632182a5c4146104e4578063235c36031461050457600080fd5b80630ee43c20116103805780630ee43c201461040f5780630fe6cbcf14610434578063102a91261461045457806315dbfe621461047457600080fd5b8062435da5146103a657806307da0603146103d85780630a8bcdb9146103ed575b600080fd5b3480156103b257600080fd5b506103bb610a6c565b6040516001600160a01b0390911681526020015b60405180910390f35b3480156103e457600080fd5b506103bb610a7b565b3480156103f957600080fd5b5061040d61040836600461553f565b610abd565b005b34801561041b57600080fd5b50610424610e63565b60405190151581526020016103cf565b34801561044057600080fd5b5061042461044f36600461553f565b610f56565b34801561046057600080fd5b5061042461046f36600461553f565b61105e565b34801561048057600080fd5b506104a161048f36600461553f565b603b6020526000908152604090205481565b6040519081526020016103cf565b3480156104bb57600080fd5b506002546103bb906001600160a01b031681565b3480156104db57600080fd5b5061042461115d565b3480156104f057600080fd5b506104246104ff36600461553f565b61123c565b34801561051057600080fd5b506104a1611329565b34801561052557600080fd5b506103bb7f000000000000000000000000000000000000000000000000000000000000000081565b34801561055957600080fd5b5061042461056836600461553f565b611368565b34801561057957600080fd5b506104a16116c3565b34801561058e57600080fd5b506104a161059d36600461553f565b603e6020526000908152604090205481565b3480156105bb57600080fd5b506104246105ca36600461553f565b6116e6565b3480156105db57600080fd5b5061042461181e565b3480156105f057600080fd5b506104246105ff36600461553f565b611913565b34801561061057600080fd5b5061040d61061f36600461556d565b611b4c565b34801561063057600080fd5b50610424611d39565b34801561064557600080fd5b506104246106543660046155a8565b611e18565b34801561066557600080fd5b506104a16206978081565b34801561067c57600080fd5b506104a161068b3660046155a8565b6120d3565b34801561069c57600080fd5b506104a16120e0565b3480156106b157600080fd5b506104a1612121565b3480156106c657600080fd5b506104a161215f565b3480156106db57600080fd5b506104a1612199565b3480156106f057600080fd5b5061040d6121cf565b34801561070557600080fd5b506104246122e0565b34801561071a57600080fd5b506104a160015481565b34801561073057600080fd5b506104246123cd565b34801561074557600080fd5b506104a16124bd565b34801561075a57600080fd5b506104a16706f05b59d3b2000081565b34801561077657600080fd5b506103bb6124ec565b34801561078b57600080fd5b50610794612569565b6040516103cf91906155c5565b3480156107ad57600080fd5b50610424612575565b3480156107c257600080fd5b506103bb612660565b3480156107d757600080fd5b506104246107e636600461553f565b6128a1565b3480156107f757600080fd5b50610424612995565b34801561080c57600080fd5b50610424612a7d565b34801561082157600080fd5b506104246108303660046155a8565b612b71565b34801561084157600080fd5b506104a161085036600461553f565b603d6020526000908152604090205481565b34801561086e57600080fd5b506104a1612c61565b34801561088357600080fd5b506004546104249060ff1681565b34801561089d57600080fd5b506104246108ac36600461553f565b612cd1565b3480156108bd57600080fd5b506104a1612e12565b3480156108d257600080fd5b506103bb7f000000000000000000000000000000000000000000000000000000000000000081565b61040d612e31565b34801561090e57600080fd5b506104a1612f23565b34801561092357600080fd5b506104a1612f4a565b34801561093857600080fd5b50610424612f94565b34801561094d57600080fd5b50610424613085565b34801561096257600080fd5b506103bb61097136600461553f565b603a602052600090815260409020546001600160a01b031681565b34801561099857600080fd5b506104a1613171565b3480156109ad57600080fd5b506104a16109bc3660046155a8565b61318d565b3480156109cd57600080fd5b506104a161349f565b3480156109e257600080fd5b506103bb6109f136600461553f565b603c602052600090815260409020546001600160a01b031681565b348015610a1857600080fd5b506103bb7f000000000000000000000000000000000000000000000000000000000000000081565b348015610a4c57600080fd5b506104a160005481565b348015610a6257600080fd5b506104a160035481565b6000610a766135a1565b905090565b67537472617465677960c01b600052603c6020527f15bdd40257915f753934b43755984618aeb2ae4fff096845769c2bb729e989be546001600160a01b031690565b610ac56135a1565b6001600160a01b03166391d1485469676f7665726e616e636560b01b336040518363ffffffff1660e01b8152600401610aff929190615612565b60206040518083038186803b158015610b1757600080fd5b505afa158015610b2b573d6000803e3d6000fd5b505050506040513d601f19601f82011682018060405250810190610b4f9190615629565b60405180604001604052806013815260200160008051602061580c83398151915281525090610b9a5760405162461bcd60e51b8152600401610b919190615677565b60405180910390fd5b5060408051808201909152600e81526d1a5b9d985b1a5908185b5bdd5b9d60921b602082015281610bde5760405162461bcd60e51b8152600401610b919190615677565b50600260009054906101000a90046001600160a01b03166001600160a01b031663b187bd266040518163ffffffff1660e01b815260040160206040518083038186803b158015610c2d57600080fd5b505afa158015610c41573d6000803e3d6000fd5b505050506040513d601f19601f82011682018060405250810190610c659190615629565b6040518060600160405280602c81526020016157e0602c913990610c9c5760405162461bcd60e51b8152600401610b919190615677565b5060007f00000000000000000000000000000000000000000000000000000000000000006001600160a01b031663d4fac45d30610cd76124ec565b6040516001600160e01b031960e085901b1681526001600160a01b0392831660048201529116602482015260440160206040518083038186803b158015610d1d57600080fd5b505afa158015610d31573d6000803e3d6000fd5b505050506040513d601f19601f82011682018060405250810190610d5591906156aa565b90508082111560405180604001604052806014815260200173696e73756666696369656e742062616c616e636560601b81525090610da65760405162461bcd60e51b8152600401610b919190615677565b507f00000000000000000000000000000000000000000000000000000000000000006001600160a01b031663f3fef3a3610dde6124ec565b6040516001600160e01b031960e084901b1681526001600160a01b03909116600482015260248101859052604401602060405180830381600087803b158015610e2657600080fd5b505af1158015610e3a573d6000803e3d6000fd5b505050506040513d601f19601f82011682018060405250810190610e5e9190615629565b505050565b6000610e6d6135a1565b6001600160a01b03166391d1485469676f7665726e616e636560b01b336040518363ffffffff1660e01b8152600401610ea7929190615612565b60206040518083038186803b158015610ebf57600080fd5b505afa158015610ed3573d6000803e3d6000fd5b505050506040513d601f19601f82011682018060405250810190610ef79190615629565b60405180604001604052806013815260200160008051602061580c83398151915281525090610f395760405162461bcd60e51b8152600401610b919190615677565b50610a766f2a30b933b2ba20b63637b1b0ba34b7b760811b6135c5565b6000610f606135a1565b6001600160a01b03166391d1485469676f7665726e616e636560b01b336040518363ffffffff1660e01b8152600401610f9a929190615612565b60206040518083038186803b158015610fb257600080fd5b505afa158015610fc6573d6000803e3d6000fd5b505050506040513d601f19601f82011682018060405250810190610fea9190615629565b60405180604001604052806013815260200160008051602061580c8339815191528152509061102c5760405162461bcd60e51b8152600401610b919190615677565b5061103e61103861349f565b8361366c565b6110586c5374726174656769737446656560981b836136f7565b92915050565b60006110686135a1565b6001600160a01b03166391d1485469676f7665726e616e636560b01b336040518363ffffffff1660e01b81526004016110a2929190615612565b60206040518083038186803b1580156110ba57600080fd5b505afa1580156110ce573d6000803e3d6000fd5b505050506040513d601f19601f820116820180604052508101906110f29190615629565b60405180604001604052806013815260200160008051602061580c833981519152815250906111345760405162461bcd60e51b8152600401610b919190615677565b5061114682611141612121565b61366c565b611058695265736572766546656560b01b836136f7565b60006111676135a1565b6001600160a01b03166391d1485469676f7665726e616e636560b01b336040518363ffffffff1660e01b81526004016111a1929190615612565b60206040518083038186803b1580156111b957600080fd5b505afa1580156111cd573d6000803e3d6000fd5b505050506040513d601f19601f820116820180604052508101906111f19190615629565b60405180604001604052806013815260200160008051602061580c833981519152815250906112335760405162461bcd60e51b8152600401610b919190615677565b50610a7661370e565b60006112466135a1565b6001600160a01b03166391d1485469676f7665726e616e636560b01b336040518363ffffffff1660e01b8152600401611280929190615612565b60206040518083038186803b15801561129857600080fd5b505afa1580156112ac573d6000803e3d6000fd5b505050506040513d601f19601f820116820180604052508101906112d09190615629565b60405180604001604052806013815260200160008051602061580c833981519152815250906113125760405162461bcd60e51b8152600401610b919190615677565b50611058681119589d131a5b5a5d60ba1b836136f7565b6d506572666f726d616e636546656560901b600052603d6020527fbadb955f4a57baa7811abc9bcd6809eb9d3b80456cae1a7ea27f30fddfd0c0a65490565b6002546000906001600160a01b031633148061141157506113876135a1565b6001600160a01b03166391d1485469676f7665726e616e636560b01b336040518363ffffffff1660e01b81526004016113c1929190615612565b60206040518083038186803b1580156113d957600080fd5b505afa1580156113ed573d6000803e3d6000fd5b505050506040513d601f19601f820116820180604052508101906114119190615629565b60405180604001604052806013815260200160008051602061580c833981519152815250906114535760405162461bcd60e51b8152600401610b919190615677565b50600061145e610a7b565b9050600061146a61376e565b9050838110156115e5576001600160a01b03821661148c575060009392505050565b6000826001600160a01b031663b69ef8a86040518163ffffffff1660e01b815260040160206040518083038186803b1580156114c757600080fd5b505afa1580156114db573d6000803e3d6000fd5b505050506040513d601f19601f820116820180604052508101906114ff91906156aa565b9050600061150d83876156d9565b9050818111156115235750600095945050505050565b60006115406115306120e0565b61153a84866156d9565b906137f1565b9050600061154e82856156d9565b604051632e1a7d4d60e01b8152600481018290529091506001600160a01b03871690632e1a7d4d90602401602060405180830381600087803b15801561159357600080fd5b505af11580156115a7573d6000803e3d6000fd5b505050506040513d601f19601f820116820180604052508101906115cb9190615629565b506115d860005482613810565b600055506116a392505050565b60006001600160a01b0383161561166a57826001600160a01b031663b69ef8a86040518163ffffffff1660e01b815260040160206040518083038186803b15801561162f57600080fd5b505afa158015611643573d6000803e3d6000fd5b505050506040513d601f19601f8201168201806040525081019061166791906156aa565b90505b60015460009061167a83856156f0565b61168491906156f0565b9050600061169287836156d9565b905061169e8184613834565b505050505b6002546116b9906001600160a01b031685613a4b565b5060019392505050565b6000806116d764109bdd5b9960da1b613a68565b90506116e1613a8c565b919050565b60006116f06135a1565b6001600160a01b03166391d1485469676f7665726e616e636560b01b336040518363ffffffff1660e01b815260040161172a929190615612565b60206040518083038186803b15801561174257600080fd5b505afa158015611756573d6000803e3d6000fd5b505050506040513d601f19601f8201168201806040525081019061177a9190615629565b60405180604001604052806013815260200160008051602061580c833981519152815250906117bc5760405162461bcd60e51b8152600401610b919190615677565b5060408051808201909152600e81526d1a5b9d985b1a5908185b5bdd5b9d60921b60208201526706f05b59d3b2000083111561180b5760405162461bcd60e51b8152600401610b919190615677565b5061105864109bdd5b9960da1b836136f7565b6002546000906001600160a01b03163314806118c8575061183d6135a1565b6001600160a01b03166391d148546a6d61696e74656e616e636560a81b336040518363ffffffff1660e01b8152600401611878929190615612565b60206040518083038186803b15801561189057600080fd5b505afa1580156118a4573d6000803e3d6000fd5b505050506040513d601f19601f820116820180604052508101906118c89190615629565b60405180604001604052806013815260200160008051602061580c8339815191528152509061190a5760405162461bcd60e51b8152600401610b919190615677565b50610a76613b4b565b600061191d6135a1565b6001600160a01b03166391d1485469676f7665726e616e636560b01b336040518363ffffffff1660e01b8152600401611957929190615612565b60206040518083038186803b15801561196f57600080fd5b505afa158015611983573d6000803e3d6000fd5b505050506040513d601f19601f820116820180604052508101906119a79190615629565b60405180604001604052806013815260200160008051602061580c833981519152815250906119e95760405162461bcd60e51b8152600401610b919190615677565b5060006119f4610a7b565b90506001600160a01b038116611a0d5750600092915050565b82816001600160a01b031663b69ef8a86040518163ffffffff1660e01b815260040160206040518083038186803b158015611a4757600080fd5b505afa158015611a5b573d6000803e3d6000fd5b505050506040513d601f19601f82011682018060405250810190611a7f91906156aa565b1015611a8e5750600092915050565b6000611a9861376e565b604051632e1a7d4d60e01b8152600481018690529091506001600160a01b03831690632e1a7d4d90602401602060405180830381600087803b158015611add57600080fd5b505af1158015611af1573d6000803e3d6000fd5b505050506040513d601f19601f82011682018060405250810190611b159190615629565b506000611b2061376e565b9050611b2c82826156d9565b600080828254611b3c91906156d9565b9091555060019695505050505050565b603f54610100900460ff16611b6757603f5460ff1615611b6b565b303b155b611bce5760405162461bcd60e51b815260206004820152602e60248201527f496e697469616c697a61626c653a20636f6e747261637420697320616c72656160448201526d191e481a5b9a5d1a585b1a5e995960921b6064820152608401610b91565b603f54610100900460ff16158015611bf057603f805461ffff19166101011790555b611bfc85858585613e02565b60025460408051639816f47360e01b815290516000926001600160a01b031691639816f473916004808301926020929190829003018186803b158015611c4157600080fd5b505afa158015611c55573d6000803e3d6000fd5b505050506040513d601f19601f82011682018060405250810190611c799190615708565b6040805180820190915260188152771e995c9bc81859191c995cdcc81b9bdd08185b1b1bddd95960421b60208201529091506001600160a01b038216611cd25760405162461bcd60e51b8152600401610b919190615677565b50611d096001600160a01b0382167f0000000000000000000000000000000000000000000000000000000000000000600019613fb0565b611d1f6001600160a01b03821687600019613fb0565b508015611d3257603f805461ff00191690555b5050505050565b6000611d436135a1565b6001600160a01b03166391d1485469676f7665726e616e636560b01b336040518363ffffffff1660e01b8152600401611d7d929190615612565b60206040518083038186803b158015611d9557600080fd5b505afa158015611da9573d6000803e3d6000fd5b505050506040513d601f19601f82011682018060405250810190611dcd9190615629565b60405180604001604052806013815260200160008051602061580c83398151915281525090611e0f5760405162461bcd60e51b8152600401610b919190615677565b50610a76614107565b6000611e226135a1565b6001600160a01b03166391d1485469676f7665726e616e636560b01b336040518363ffffffff1660e01b8152600401611e5c929190615612565b60206040518083038186803b158015611e7457600080fd5b505afa158015611e88573d6000803e3d6000fd5b505050506040513d601f19601f82011682018060405250810190611eac9190615629565b60405180604001604052806013815260200160008051602061580c83398151915281525090611eee5760405162461bcd60e51b8152600401610b919190615677565b5067537472617465677960c01b600052603c60209081527f15bdd40257915f753934b43755984618aeb2ae4fff096845769c2bb729e989be546040805180820190915260168152751059191c995cdcc81a5cc8185b1c9958591e481cd95d60521b928101929092526001600160a01b031615611f7d5760405162461bcd60e51b8152600401610b919190615677565b506040805180820190915260188152771e995c9bc81859191c995cdcc81b9bdd08185b1b1bddd95960421b60208201526001600160a01b038316611fd45760405162461bcd60e51b8152600401610b919190615677565b50611fea67537472617465677960c01b8361417b565b50611ff3614107565b5060006001600160a01b0316826001600160a01b0316631fe4a6866040518163ffffffff1660e01b815260040160206040518083038186803b15801561203857600080fd5b505afa15801561204c573d6000803e3d6000fd5b505050506040513d601f19601f820116820180604052508101906120709190615708565b6001600160a01b03161415604051806040016040528060188152602001771e995c9bc81859191c995cdcc81b9bdd08185b1b1bddd95960421b815250906120ca5760405162461bcd60e51b8152600401610b919190615677565b50600192915050565b6000611058600583614207565b6f2a30b933b2ba20b63637b1b0ba34b7b760811b600052603d6020527f0a3006de449e2f6da78c92d58370b3dd2ef3b1e1963fc373ed67d46ced02eb8f5490565b6c5374726174656769737446656560981b600052603d6020527f9991a201724620367b875943d3f1e2d8a65d067f05ccd6a37af85ae33cf679e95490565b681119589d131a5b5a5d60ba1b600052603d6020527fed35bbff007ae1d09677de3676c3cb1b0411569c4ab270913b3fb2a177a703195490565b64109bdd5b9960da1b600052603d6020527fcba6df5081839cab6ded1888d57f2772386c9d156438bb2faa7b07ec10c244705490565b6002546001600160a01b031633148061227557506121eb6135a1565b6001600160a01b03166391d1485469676f7665726e616e636560b01b336040518363ffffffff1660e01b8152600401612225929190615612565b60206040518083038186803b15801561223d57600080fd5b505afa158015612251573d6000803e3d6000fd5b505050506040513d601f19601f820116820180604052508101906122759190615629565b60405180604001604052806013815260200160008051602061580c833981519152815250906122b75760405162461bcd60e51b8152600401610b919190615677565b506122c061421c565b506002546122de906001600160a01b03166122d961376e565b613a4b565b565b60006122ea6135a1565b6001600160a01b03166391d1485469676f7665726e616e636560b01b336040518363ffffffff1660e01b8152600401612324929190615612565b60206040518083038186803b15801561233c57600080fd5b505afa158015612350573d6000803e3d6000fd5b505050506040513d601f19601f820116820180604052508101906123749190615629565b60405180604001604052806013815260200160008051602061580c833981519152815250906123b65760405162461bcd60e51b8152600401610b919190615677565b50610a76695265736572766546656560b01b6135c5565b60006123d76135a1565b6001600160a01b03166391d1485469676f7665726e616e636560b01b336040518363ffffffff1660e01b8152600401612411929190615612565b60206040518083038186803b15801561242957600080fd5b505afa15801561243d573d6000803e3d6000fd5b505050506040513d601f19601f820116820180604052508101906124619190615629565b60405180604001604052806013815260200160008051602061580c833981519152815250906124a35760405162461bcd60e51b8152600401610b919190615677565b50610a766c5374726174656769737446656560981b6135c5565b6000806124d96c5374726174656769737446656560981b613a68565b90506116e16124e661349f565b8261366c565b60025460408051639816f47360e01b815290516000926001600160a01b031691639816f473916004808301926020929190829003018186803b15801561253157600080fd5b505afa158015612545573d6000803e3d6000fd5b505050506040513d601f19601f82011682018060405250810190610a769190615708565b6060610a766005614305565b600061257f6135a1565b6001600160a01b03166391d1485469676f7665726e616e636560b01b336040518363ffffffff1660e01b81526004016125b9929190615612565b60206040518083038186803b1580156125d157600080fd5b505afa1580156125e5573d6000803e3d6000fd5b505050506040513d601f19601f820116820180604052508101906126099190615629565b60405180604001604052806013815260200160008051602061580c8339815191528152509061264b5760405162461bcd60e51b8152600401610b919190615677565b50610a7667537472617465677960c01b6143b4565b600061267667537472617465677960c01b614466565b6000612680610a7b565b90506001600160a01b0381161561282457612699613b4b565b50806001600160a01b031663fc0e74d16040518163ffffffff1660e01b8152600401602060405180830381600087803b1580156126d557600080fd5b505af11580156126e9573d6000803e3d6000fd5b505050506040513d601f19601f8201168201806040525081019061270d9190615629565b50806001600160a01b031663853828b66040518163ffffffff1660e01b8152600401602060405180830381600087803b15801561274957600080fd5b505af115801561275d573d6000803e3d6000fd5b505050506040513d601f19601f8201168201806040525081019061278191906156aa565b506000816001600160a01b031663b69ef8a86040518163ffffffff1660e01b815260040160206040518083038186803b1580156127bd57600080fd5b505afa1580156127d1573d6000803e3d6000fd5b505050506040513d601f19601f820116820180604052508101906127f591906156aa565b90508015612822576128096005838361450f565b50806001600082825461281c91906156f0565b90915550505b505b61282c61370e565b506000808055600381905567537472617465677960c01b90819052603a6020527fa4caf68bc3013a9a5274c5d8968485ae05b8c28e9f50493f41acc96b22818c23546001600160a01b031690612882908261417b565b506001600160a01b038116156110585761289a614107565b5092915050565b60006128ab6135a1565b6001600160a01b03166391d1485469676f7665726e616e636560b01b336040518363ffffffff1660e01b81526004016128e5929190615612565b60206040518083038186803b1580156128fd57600080fd5b505afa158015612911573d6000803e3d6000fd5b505050506040513d601f19601f820116820180604052508101906129359190615629565b60405180604001604052806013815260200160008051602061580c833981519152815250906129775760405162461bcd60e51b8152600401610b919190615677565b506110586f2a30b933b2ba20b63637b1b0ba34b7b760811b836136f7565b600061299f6135a1565b6001600160a01b03166391d1485469676f7665726e616e636560b01b336040518363ffffffff1660e01b81526004016129d9929190615612565b60206040518083038186803b1580156129f157600080fd5b505afa158015612a05573d6000803e3d6000fd5b505050506040513d601f19601f82011682018060405250810190612a299190615629565b60405180604001604052806013815260200160008051602061580c83398151915281525090612a6b5760405162461bcd60e51b8152600401610b919190615677565b50610a7664109bdd5b9960da1b6135c5565b6002546000906001600160a01b0316331480612b265750612a9c6135a1565b6001600160a01b03166391d1485469676f7665726e616e636560b01b336040518363ffffffff1660e01b8152600401612ad6929190615612565b60206040518083038186803b158015612aee57600080fd5b505afa158015612b02573d6000803e3d6000fd5b505050506040513d601f19601f82011682018060405250810190612b269190615629565b60405180604001604052806013815260200160008051602061580c83398151915281525090612b685760405162461bcd60e51b8152600401610b919190615677565b50610a7661421c565b6000612b7b6135a1565b6001600160a01b03166391d1485469676f7665726e616e636560b01b336040518363ffffffff1660e01b8152600401612bb5929190615612565b60206040518083038186803b158015612bcd57600080fd5b505afa158015612be1573d6000803e3d6000fd5b505050506040513d601f19601f82011682018060405250810190612c059190615629565b60405180604001604052806013815260200160008051602061580c83398151915281525090612c475760405162461bcd60e51b8152600401610b919190615677565b5061105867537472617465677960c01b836206978061452d565b600080612c6c61376e565b90506000612c78610a7b565b6001600160a01b03161415612c8c57919050565b600060015460005483612c9f91906156f0565b612ca991906156f0565b90508060035411612cc857600354612cc190826156d9565b9250505090565b60009250505090565b6000612cdb6135a1565b6001600160a01b03166391d1485469676f7665726e616e636560b01b336040518363ffffffff1660e01b8152600401612d15929190615612565b60206040518083038186803b158015612d2d57600080fd5b505afa158015612d41573d6000803e3d6000fd5b505050506040513d601f19601f82011682018060405250810190612d659190615629565b60405180604001604052806013815260200160008051602061580c83398151915281525090612da75760405162461bcd60e51b8152600401610b919190615677565b5060408051808201909152600e81526d1a5b9d985b1a5908185b5bdd5b9d60921b60208201526706f05b59d3b20000831115612df65760405162461bcd60e51b8152600401610b919190615677565b506110586d506572666f726d616e636546656560901b836136f7565b6000806116d76f2a30b933b2ba20b63637b1b0ba34b7b760811b613a68565b6002546001600160a01b0316331480612ed85750612e4d6135a1565b6001600160a01b03166391d148546a6d61696e74656e616e636560a81b336040518363ffffffff1660e01b8152600401612e88929190615612565b60206040518083038186803b158015612ea057600080fd5b505afa158015612eb4573d6000803e3d6000fd5b505050506040513d601f19601f82011682018060405250810190612ed89190615629565b60405180604001604052806013815260200160008051602061580c83398151915281525090612f1a5760405162461bcd60e51b8152600401610b919190615677565b506122de613a8c565b600080612f3c695265736572766546656560b01b613a68565b90506116e181611141612121565b600080612f62681119589d131a5b5a5d60ba1b613a68565b90506000612f7b826000546137f190919063ffffffff16565b90508060035410612f8e57612f8e6145aa565b50919050565b6000612f9e6135a1565b6001600160a01b03166391d1485469676f7665726e616e636560b01b336040518363ffffffff1660e01b8152600401612fd8929190615612565b60206040518083038186803b158015612ff057600080fd5b505afa158015613004573d6000803e3d6000fd5b505050506040513d601f19601f820116820180604052508101906130289190615629565b60405180604001604052806013815260200160008051602061580c8339815191528152509061306a5760405162461bcd60e51b8152600401610b919190615677565b50610a766d506572666f726d616e636546656560901b6135c5565b600061308f6135a1565b6001600160a01b03166391d1485469676f7665726e616e636560b01b336040518363ffffffff1660e01b81526004016130c9929190615612565b60206040518083038186803b1580156130e157600080fd5b505afa1580156130f5573d6000803e3d6000fd5b505050506040513d601f19601f820116820180604052508101906131199190615629565b60405180604001604052806013815260200160008051602061580c8339815191528152509061315b5760405162461bcd60e51b8152600401610b919190615677565b50610a76681119589d131a5b5a5d60ba1b6135c5565b6000610a766d506572666f726d616e636546656560901b613a68565b6000808061319c6005856145c7565b91509150816040518060400160405280601781526020017f537472617465677920646f6573206e6f74206578697374000000000000000000815250906131f55760405162461bcd60e51b8152600401610b919190615677565b506000849050806001600160a01b0316634641257d6040518163ffffffff1660e01b8152600401602060405180830381600087803b15801561323657600080fd5b505af115801561324a573d6000803e3d6000fd5b505050506040513d601f19601f8201168201806040525081019061326e91906156aa565b506000816001600160a01b031663853828b66040518163ffffffff1660e01b8152600401602060405180830381600087803b1580156132ac57600080fd5b505af11580156132c0573d6000803e3d6000fd5b505050506040513d601f19601f820116820180604052508101906132e491906156aa565b6001549091508082106132fb576000600155613309565b61330582826156d9565b6001555b838211156133f457600061331d85846156d9565b9050600061333b61333661332f611329565b84906137f1565b6145ee565b905080156133bd576133bd81866001600160a01b0316631fe4a6866040518163ffffffff1660e01b815260040160206040518083038186803b15801561338057600080fd5b505afa158015613394573d6000803e3d6000fd5b505050506040513d601f19601f820116820180604052508101906133b89190615708565b61464e565b60405160009650869083907f6c8433a8e155f0af04dba058d4e4695f7da554578963d876bdf4a6d8d6399d9c908390a35050613401565b6133fe82856156d9565b93505b826001600160a01b031663b69ef8a86040518163ffffffff1660e01b815260040160206040518083038186803b15801561343a57600080fd5b505afa15801561344e573d6000803e3d6000fd5b505050506040513d601f19601f8201168201806040525081019061347291906156aa565b613487576134816005846146e6565b50613495565b6134936005848661450f565b505b5095945050505050565b695265736572766546656560b01b600052603d6020527fa61f8e25cb35ba15fc70bbd3ba789d53bf34a4deddb38a43a213af3182d35aae5490565b6040516321f8a72160e01b81526a3937b632a6b0b730b3b2b960a91b60048201526000906001600160a01b038316906321f8a721906024015b60206040518083038186803b15801561352b57600080fd5b505afa15801561353f573d6000803e3d6000fd5b505050506040513d601f19601f820116820180604052508101906110589190615708565b6040516321f8a72160e01b81526b7661756c745265736572766560a01b60048201526000906001600160a01b038316906321f8a72190602401613513565b7f000000000000000000000000000000000000000000000000000000000000000090565b6000818152603e6020908152604080832054815180830190925260128252710646561646c696e65206d75737420626520360741b928201929092529061361e5760405162461bcd60e51b8152600401610b919190615677565b506000828152603e60209081526040808320839055603b9091528082208290555183917f90fb84ad67dd037c388289337bb80b61b8605d38ba9a875dc38b5600909d172f91a2506001919050565b670de0b6b3a764000061367f82846156f0565b11156136f35760405162461bcd60e51b815260206004820152603760248201527f73756d206f6620737472617465676973742066656520616e642072657365727660448201527f65206665652073686f756c642062652062656c6f7720310000000000000000006064820152608401610b91565b5050565b600061370783836203f4806146fb565b9392505050565b60045460009060ff166137215750600090565b6004805460ff19169055613733610a7b565b6001600160a01b03167f274ec28d31430170ad5dd350f8e7505ffab078c309300878c710383ae4cbed4960405160405180910390a250600190565b60006137786124ec565b6040516370a0823160e01b81523060048201526001600160a01b0391909116906370a082319060240160206040518083038186803b1580156137b957600080fd5b505afa1580156137cd573d6000803e3d6000fd5b505050506040513d601f19601f82011682018060405250810190610a7691906156aa565b6000670de0b6b3a76400006138068385615725565b6137079190615744565b60008183111561382b5761382482846156d9565b9050611058565b50600092915050565b60045460009060ff1661384957506000611058565b60006138536120e0565b9050600061385f610a7b565b9050600061386b612199565b9050600061387987856137f1565b9050600084156138925761388d83866156f0565b613895565b60005b9050670de0b6b3a764000081116138ac57806138b6565b670de0b6b3a76400005b905060008584116138d0576138cb84876156d9565b6138d3565b60005b90506138df89836137f1565b8811156139855760006138f2848a6156d9565b604051632e1a7d4d60e01b8152600481018290529091506001600160a01b03871690632e1a7d4d90602401602060405180830381600087803b15801561393757600080fd5b505af115801561394b573d6000803e3d6000fd5b505050506040513d601f19601f8201168201806040525081019061396f9190615629565b5061397c60005482613810565b60005550613a3c565b61398f89826137f1565b881015613a3c5760006139a289856156d9565b90506139ae8682613a4b565b806000808282546139bf91906156f0565b92505081905550856001600160a01b031663d0e30db06040518163ffffffff1660e01b8152600401602060405180830381600087803b158015613a0157600080fd5b505af1158015613a15573d6000803e3d6000fd5b505050506040513d601f19601f82011682018060405250810190613a399190615629565b50505b50600198975050505050505050565b6136f38282613a586124ec565b6001600160a01b03169190614751565b6000613a7382614466565b6000828152603b602052604090205461289a8382614781565b60045460ff16613a9857565b6000613aa2610a7b565b6001600160a01b031663b69ef8a86040518163ffffffff1660e01b815260040160206040518083038186803b158015613ada57600080fd5b505afa158015613aee573d6000803e3d6000fd5b505050506040513d601f19601f82011682018060405250810190613b1291906156aa565b9050600060015482613b2261376e565b613b2c91906156f0565b613b3691906156f0565b905080613b41575050565b610e5e8183613834565b600080613b56610a7b565b90506001600160a01b038116613b6e57600091505090565b806001600160a01b0316634641257d6040518163ffffffff1660e01b8152600401602060405180830381600087803b158015613ba957600080fd5b505af1158015613bbd573d6000803e3d6000fd5b505050506040513d601f19601f82011682018060405250810190613be191906156aa565b50600080826001600160a01b031663b69ef8a86040518163ffffffff1660e01b815260040160206040518083038186803b158015613c1e57600080fd5b505afa158015613c32573d6000803e3d6000fd5b505050506040513d601f19601f82011682018060405250810190613c5691906156aa565b6000546003549192509081831115613ce7576000613c7483856156d9565b905081811115613ca7578115613c9557613c8e82826156d9565b9050600091505b613c9e816147e2565b95509050613cb4565b613cb181836156d9565b91505b60405160009082907f6c8433a8e155f0af04dba058d4e4695f7da554578963d876bdf4a6d8d6399d9c908390a350613d78565b81831015613d6c576000613cfb84846156d9565b9050613d0781836156f0565b91506000613d1361215f565b90506000613d2185836137f1565b905080841115613d3757613d34846148ad565b93505b60405183906000907f6c8433a8e155f0af04dba058d4e4695f7da554578963d876bdf4a6d8d6399d9c908290a3505050613d78565b60019550505050505090565b80600381905550846001600160a01b031663b69ef8a86040518163ffffffff1660e01b815260040160206040518083038186803b158015613db857600080fd5b505afa158015613dcc573d6000803e3d6000fd5b505050506040513d601f19601f82011682018060405250810190613df091906156aa565b6000558315613d6c57613d6c84614ae5565b60408051808201909152600e81526d1a5b9d985b1a5908185b5bdd5b9d60921b6020820152670de0b6b3a7640000841115613e505760405162461bcd60e51b8152600401610b919190615677565b5060408051808201909152600e81526d1a5b9d985b1a5908185b5bdd5b9d60921b6020820152670de0b6b3a7640000831115613e9f5760405162461bcd60e51b8152600401610b919190615677565b5060408051808201909152600e81526d1a5b9d985b1a5908185b5bdd5b9d60921b60208201526706f05b59d3b20000821115613eee5760405162461bcd60e51b8152600401610b919190615677565b50600280546001600160a01b0319166001600160a01b038616179055613f20681119589d131a5b5a5d60ba1b84614781565b50613f3e6f2a30b933b2ba20b63637b1b0ba34b7b760811b83614781565b50613f5164109bdd5b9960da1b82614781565b50613f70695265736572766546656560b01b662386f26fc10000614781565b50613f936c5374726174656769737446656560981b67016345785d8a0000614781565b50611d326d506572666f726d616e636546656560901b6000614781565b8015806140395750604051636eb1769f60e11b81523060048201526001600160a01b03838116602483015284169063dd62ed3e9060440160206040518083038186803b158015613fff57600080fd5b505afa158015614013573d6000803e3d6000fd5b505050506040513d601f19601f8201168201806040525081019061403791906156aa565b155b6140a45760405162461bcd60e51b815260206004820152603660248201527f5361666545524332303a20617070726f76652066726f6d206e6f6e2d7a65726f60448201527520746f206e6f6e2d7a65726f20616c6c6f77616e636560501b6064820152608401610b91565b6040516001600160a01b038316602482015260448101829052610e5e90849063095ea7b360e01b906064015b60408051601f198184030181529190526020810180516001600160e01b03166001600160e01b031990931692909217909152614b2c565b600080614112610a7b565b90506001600160a01b03811661412a57600091505090565b6004805460ff191660011790556040516001600160a01b038216907f652f053fc39779b70b29678135ade972fcb79966fc68fcb77c996b1aa4fd9afb90600090a2614173613a8c565b600191505090565b6000828152603c6020908152604080832080546001600160a01b03198082166001600160a01b03888116918217909455603a86528487208054909216909155603e85528386208690558351929091168083529382015285917fc4a957706c639829ad54381b04930c464db6c7ffdc09d2b4b1acc9ee34fb926191015b60405180910390a2509092915050565b6000613707836001600160a01b038416614bfe565b600080614227610a7b565b90506001600160a01b03811661423f57600091505090565b614247613b4b565b50600061425261376e565b9050816001600160a01b031663853828b66040518163ffffffff1660e01b8152600401602060405180830381600087803b15801561428f57600080fd5b505af11580156142a3573d6000803e3d6000fd5b505050506040513d601f19601f820116820180604052508101906142c791906156aa565b5060006142d261376e565b905060006142e083836156d9565b90506142ee60005482613810565b6000556142f961370e565b50600194505050505090565b6060600061431283614c6e565b905060008167ffffffffffffffff81111561432f5761432f615766565b604051908082528060200260200182016040528015614358578160200160208202803683370190505b50905060005b828110156143ac576143708582614c79565b8282815181106143825761438261577c565b6001600160a01b0390921660209283029190910190910152806143a481615792565b91505061435e565b509392505050565b6000818152603e6020908152604080832054815180830190925260128252710646561646c696e65206d75737420626520360741b928201929092529061440d5760405162461bcd60e51b8152600401610b919190615677565b506000828152603e60209081526040808320839055603a90915280822080546001600160a01b03191690555183917f90fb84ad67dd037c388289337bb80b61b8605d38ba9a875dc38b5600909d172f91a2506001919050565b6000603e60008381526020019081526020016000205490508042101560405180606001604052806021815260200161582c60219139906144b95760405162461bcd60e51b8152600401610b919190615677565b5060408051808201909152600d81526c0646561646c696e65206973203609c1b6020820152816144fc5760405162461bcd60e51b8152600401610b919190615677565b50506000908152603e6020526040812055565b6000614525846001600160a01b03851684614c8f565b949350505050565b60006145398483614cac565b6000848152603a602090815260409182902080546001600160a01b0319166001600160a01b038716908117909155825190815290810184905285917fd46e58ee9dc1ae703349f8c09c19f23213a531b4d57f00cfd4a5a6cb6519668d91015b60405180910390a25060019392505050565b60035460006145b8826148ad565b90508082146136f35760035550565b60008080806145df866001600160a01b038716614d86565b909450925050505b9250929050565b6000806145fc61332f612121565b9050600061461261460b61349f565b85906137f1565b905060008161462184876156d9565b61462b91906156d9565b905061463682614dc0565b80156146455761464581614e77565b50909392505050565b6001600160a01b038116614660575050565b6002546040516317a790f160e11b81526001600160a01b0383811660048301526024820185905290911690632f4f21e290604401602060405180830381600087803b1580156146ae57600080fd5b505af11580156146c2573d6000803e3d6000fd5b505050506040513d601f19601f82011682018060405250810190610e5e91906156aa565b6000613707836001600160a01b038416614eb5565b60006147078483614cac565b6000848152603b6020908152604091829020859055815185815290810184905285917f0e6790002e78fb96ff1fdfe3a3bb2a86489d3f3923372c1fe5b6b1fed071eed49101614598565b6040516001600160a01b038316602482015260448101829052610e5e90849063a9059cbb60e01b906064016140d0565b6000828152603d60209081526040808320805490859055603b8352818420849055603e835281842084905581518181529283018590529185917fcc0bafe2accb565ea70674bf4b2555e49a47d410fb9932dfab3e5f41855d0a2f91016141f7565b60008060006147f261460b611329565b9050806147fd61376e565b101561488c5761480b610a7b565b6001600160a01b0316632e1a7d4d826040518263ffffffff1660e01b815260040161483891815260200190565b602060405180830381600087803b15801561485257600080fd5b505af1158015614866573d6000803e3d6000fd5b505050506040513d601f19601f8201168201806040525081019061488a9190615629565b505b6000614897826145ee565b90506148a382866156d9565b9590945092505050565b6000807f00000000000000000000000000000000000000000000000000000000000000006001600160a01b031663d4fac45d306148e86124ec565b6040516001600160e01b031960e085901b1681526001600160a01b0392831660048201529116602482015260440160206040518083038186803b15801561492e57600080fd5b505afa158015614942573d6000803e3d6000fd5b505050506040513d601f19601f8201168201806040525081019061496691906156aa565b90508083111561497e5761497981614ed2565b614ade565b60405163019262d360e41b81523060048201527f00000000000000000000000000000000000000000000000000000000000000006001600160a01b0316906319262d309060240160206040518083038186803b1580156149dd57600080fd5b505afa1580156149f1573d6000803e3d6000fd5b505050506040513d601f19601f82011682018060405250810190614a159190615629565b15614ade577f00000000000000000000000000000000000000000000000000000000000000006001600160a01b031663f3fef3a3614a516124ec565b6040516001600160e01b031960e084901b1681526001600160a01b03909116600482015260248101869052604401602060405180830381600087803b158015614a9957600080fd5b505af1158015614aad573d6000803e3d6000fd5b505050506040513d601f19601f82011682018060405250810190614ad19190615629565b5060009250614ade613a8c565b5090919050565b614b2981614af1610a7b565b6001600160a01b0316631fe4a6866040518163ffffffff1660e01b815260040160206040518083038186803b15801561338057600080fd5b50565b6000614b81826040518060400160405280602081526020017f5361666545524332303a206c6f772d6c6576656c2063616c6c206661696c6564815250856001600160a01b031661518e9092919063ffffffff16565b805190915015610e5e5780806020019051810190614b9f9190615629565b610e5e5760405162461bcd60e51b815260206004820152602a60248201527f5361666545524332303a204552433230206f7065726174696f6e20646964206e6044820152691bdd081cdd58d8d9595960b21b6064820152608401610b91565b600081815260028301602052604081205480151580614c225750614c22848461519d565b6137075760405162461bcd60e51b815260206004820152601e60248201527f456e756d657261626c654d61703a206e6f6e6578697374656e74206b657900006044820152606401610b91565b6000611058826151a9565b600080614c8684846151b4565b50949350505050565b6000828152600284016020526040812082905561452584846151c3565b603e600083815260200190815260200160002054600014604051806040016040528060128152602001710646561646c696e65206d75737420626520360741b81525090614d0c5760405162461bcd60e51b8152600401610b919190615677565b5060408051808201909152601881527f64656c6179206265206174206c6561737420332064617973000000000000000060208201526203f480821015614d655760405162461bcd60e51b8152600401610b919190615677565b50614d7081426156f0565b6000928352603e60205260409092209190915550565b6000818152600283016020526040812054819080614db557614da8858561519d565b9250600091506145e79050565b6001925090506145e7565b7f00000000000000000000000000000000000000000000000000000000000000006001600160a01b03166347e7ef24614df76124ec565b6040516001600160e01b031960e084901b1681526001600160a01b03909116600482015260248101849052604401602060405180830381600087803b158015614e3f57600080fd5b505af1158015614e53573d6000803e3d6000fd5b505050506040513d601f19601f820116820180604052508101906136f39190615629565b614b29614eac7f00000000000000000000000000000000000000000000000000000000000000006001600160a01b03166151cf565b82613a586124ec565b600081815260028301602052604081208190556137078383615209565b6000614edc610a7b565b6001600160a01b031663853828b66040518163ffffffff1660e01b8152600401602060405180830381600087803b158015614f1657600080fd5b505af1158015614f2a573d6000803e3d6000fd5b505050506040513d601f19601f82011682018060405250810190614f4e91906156aa565b90506000614f5e60005483613810565b60405163019262d360e41b81523060048201529091507f00000000000000000000000000000000000000000000000000000000000000006001600160a01b0316906319262d309060240160206040518083038186803b158015614fc057600080fd5b505afa158015614fd4573d6000803e3d6000fd5b505050506040513d601f19601f82011682018060405250810190614ff89190615629565b15615180578083106150c1577f00000000000000000000000000000000000000000000000000000000000000006001600160a01b031663f3fef3a361503b6124ec565b6040516001600160e01b031960e084901b1681526001600160a01b03909116600482015260248101849052604401602060405180830381600087803b15801561508357600080fd5b505af1158015615097573d6000803e3d6000fd5b505050506040513d601f19601f820116820180604052508101906150bb9190615629565b50615180565b8215615180577f00000000000000000000000000000000000000000000000000000000000000006001600160a01b031663f3fef3a36150fe6124ec565b6040516001600160e01b031960e084901b1681526001600160a01b03909116600482015260248101869052604401602060405180830381600087803b15801561514657600080fd5b505af115801561515a573d6000803e3d6000fd5b505050506040513d601f19601f8201168201806040525081019061517e9190615629565b505b61518861370e565b50505050565b60606145258484600085615215565b60006137078383615346565b60006110588261535e565b60008080806145df8686615368565b60006137078383615393565b6040516321f8a72160e01b815267747265617375727960c01b60048201526000906001600160a01b038316906321f8a72190602401613513565b600061370783836153e2565b6060824710156152765760405162461bcd60e51b815260206004820152602660248201527f416464726573733a20696e73756666696369656e742062616c616e636520666f6044820152651c8818d85b1b60d21b6064820152608401610b91565b6001600160a01b0385163b6152cd5760405162461bcd60e51b815260206004820152601d60248201527f416464726573733a2063616c6c20746f206e6f6e2d636f6e74726163740000006044820152606401610b91565b600080866001600160a01b031685876040516152e991906157ad565b60006040518083038185875af1925050503d8060008114615326576040519150601f19603f3d011682016040523d82523d6000602084013e61532b565b606091505b509150915061533b8282866154d5565b979650505050505050565b60008181526001830160205260408120541515613707565b6000611058825490565b60008080615376858561550e565b600081815260029690960160205260409095205494959350505050565b60008181526001830160205260408120546153da57508154600181810184556000848152602080822090930184905584548482528286019093526040902091909155611058565b506000611058565b600081815260018301602052604081205480156154cb5760006154066001836156d9565b855490915060009061541a906001906156d9565b905081811461547f57600086600001828154811061543a5761543a61577c565b906000526020600020015490508087600001848154811061545d5761545d61577c565b6000918252602080832090910192909255918252600188019052604090208390555b8554869080615490576154906157c9565b600190038181906000526020600020016000905590558560010160008681526020019081526020016000206000905560019350505050611058565b6000915050611058565b606083156154e4575081613707565b8251156154f45782518084602001fd5b8160405162461bcd60e51b8152600401610b919190615677565b60006137078383600082600001828154811061552c5761552c61577c565b9060005260206000200154905092915050565b60006020828403121561555157600080fd5b5035919050565b6001600160a01b0381168114614b2957600080fd5b6000806000806080858703121561558357600080fd5b843561558e81615558565b966020860135965060408601359560600135945092505050565b6000602082840312156155ba57600080fd5b813561370781615558565b6020808252825182820181905260009190848201906040850190845b818110156156065783516001600160a01b0316835292840192918401916001016155e1565b50909695505050505050565b9182526001600160a01b0316602082015260400190565b60006020828403121561563b57600080fd5b8151801515811461370757600080fd5b60005b8381101561566657818101518382015260200161564e565b838111156151885750506000910152565b602081526000825180602084015261569681604085016020870161564b565b601f01601f19169190910160400192915050565b6000602082840312156156bc57600080fd5b5051919050565b634e487b7160e01b600052601160045260246000fd5b6000828210156156eb576156eb6156c3565b500390565b60008219821115615703576157036156c3565b500190565b60006020828403121561571a57600080fd5b815161370781615558565b600081600019048311821515161561573f5761573f6156c3565b500290565b60008261576157634e487b7160e01b600052601260045260246000fd5b500490565b634e487b7160e01b600052604160045260246000fd5b634e487b7160e01b600052603260045260246000fd5b60006000198214156157a6576157a66156c3565b5060010190565b600082516157bf81846020870161564b565b9190910192915050565b634e487b7160e01b600052603160045260246000fdfe506f6f6c206d7573742062652070617573656420746f2077697468647261772066726f6d2072657365727665756e617574686f72697a65642061636365737300000000000000000000000000646561646c696e6520686173206e6f74206265656e207265616368656420796574a264697066735822122007d6cf7e8b921eb66a9514b97dd777a30965bbe806e56a6554283665fb6c65fd64736f6c63430008090033",
  "linkReferences": {},
  "deployedLinkReferences": {}
}