{
  "_format": "hh-sol-artifact-1",
  "contractName": "Erc20Pool",
  "sourceName": "contracts/pool/Erc20Pool.sol",
  "abi": [
    {
      "inputs": [
        {
          "internalType": "contract IController",
          "name": "_controller",
          "type": "address"
        }
      ],
      "stateMutability": "nonpayable",
      "type": "constructor"
    },
    {
      "anonymous": false,
      "inputs": [
        {
          "indexed": true,
          "internalType": "bytes32",
          "name": "key",
          "type": "bytes32"
        },
        {
          "indexed": false,
          "internalType": "address",
          "name": "value",
          "type": "address"
        },
        {
          "indexed": false,
          "internalType": "uint256",
          "name": "delay",
          "type": "uint256"
        }
      ],
      "name": "ConfigPreparedAddress",
      "type": "event"
    },
    {
      "anonymous": false,
      "inputs": [
        {
          "indexed": true,
          "internalType": "bytes32",
          "name": "key",
          "type": "bytes32"
        },
        {
          "indexed": false,
          "internalType": "uint256",
          "name": "value",
          "type": "uint256"
        },
        {
          "indexed": false,
          "internalType": "uint256",
          "name": "delay",
          "type": "uint256"
        }
      ],
      "name": "ConfigPreparedNumber",
      "type": "event"
    },
    {
      "anonymous": false,
      "inputs": [
        {
          "indexed": true,
          "internalType": "bytes32",
          "name": "key",
          "type": "bytes32"
        }
      ],
      "name": "ConfigReset",
      "type": "event"
    },
    {
      "anonymous": false,
      "inputs": [
        {
          "indexed": true,
          "internalType": "bytes32",
          "name": "key",
          "type": "bytes32"
        },
        {
          "indexed": false,
          "internalType": "address",
          "name": "oldValue",
          "type": "address"
        },
        {
          "indexed": false,
          "internalType": "address",
          "name": "newValue",
          "type": "address"
        }
      ],
      "name": "ConfigUpdatedAddress",
      "type": "event"
    },
    {
      "anonymous": false,
      "inputs": [
        {
          "indexed": true,
          "internalType": "bytes32",
          "name": "key",
          "type": "bytes32"
        },
        {
          "indexed": false,
          "internalType": "uint256",
          "name": "oldValue",
          "type": "uint256"
        },
        {
          "indexed": false,
          "internalType": "uint256",
          "name": "newValue",
          "type": "uint256"
        }
      ],
      "name": "ConfigUpdatedNumber",
      "type": "event"
    },
    {
      "anonymous": false,
      "inputs": [
        {
          "indexed": true,
          "internalType": "address",
          "name": "minter",
          "type": "address"
        },
        {
          "indexed": false,
          "internalType": "uint256",
          "name": "depositAmount",
          "type": "uint256"
        },
        {
          "indexed": false,
          "internalType": "uint256",
          "name": "mintedLpTokens",
          "type": "uint256"
        }
      ],
      "name": "Deposit",
      "type": "event"
    },
    {
      "anonymous": false,
      "inputs": [
        {
          "indexed": true,
          "internalType": "address",
          "name": "minter",
          "type": "address"
        },
        {
          "indexed": true,
          "internalType": "address",
          "name": "mintee",
          "type": "address"
        },
        {
          "indexed": false,
          "internalType": "uint256",
          "name": "depositAmount",
          "type": "uint256"
        },
        {
          "indexed": false,
          "internalType": "uint256",
          "name": "mintedLpTokens",
          "type": "uint256"
        }
      ],
      "name": "DepositFor",
      "type": "event"
    },
    {
      "anonymous": false,
      "inputs": [
        {
          "indexed": true,
          "internalType": "address",
          "name": "lpToken",
          "type": "address"
        }
      ],
      "name": "LpTokenSet",
      "type": "event"
    },
    {
      "anonymous": false,
      "inputs": [
        {
          "indexed": true,
          "internalType": "address",
          "name": "redeemer",
          "type": "address"
        },
        {
          "indexed": false,
          "internalType": "uint256",
          "name": "redeemAmount",
          "type": "uint256"
        },
        {
          "indexed": false,
          "internalType": "uint256",
          "name": "redeemTokens",
          "type": "uint256"
        }
      ],
      "name": "Redeem",
      "type": "event"
    },
    {
      "anonymous": false,
      "inputs": [
        {
          "indexed": true,
          "internalType": "address",
          "name": "stakerVault",
          "type": "address"
        }
      ],
      "name": "StakerVaultSet",
      "type": "event"
    },
    {
      "inputs": [],
      "name": "addressProvider",
      "outputs": [
        {
          "internalType": "contract IAddressProvider",
          "name": "",
          "type": "address"
        }
      ],
      "stateMutability": "view",
      "type": "function"
    },
    {
      "inputs": [
        {
          "internalType": "address",
          "name": "account",
          "type": "address"
        },
        {
          "internalType": "uint256",
          "name": "underlyingAmount",
          "type": "uint256"
        }
      ],
      "name": "calcRedeem",
      "outputs": [
        {
          "internalType": "uint256",
          "name": "",
          "type": "uint256"
        }
      ],
      "stateMutability": "view",
      "type": "function"
    },
    {
      "inputs": [],
      "name": "controller",
      "outputs": [
        {
          "internalType": "contract IController",
          "name": "",
          "type": "address"
        }
      ],
      "stateMutability": "view",
      "type": "function"
    },
    {
      "inputs": [
        {
          "internalType": "bytes32",
          "name": "",
          "type": "bytes32"
        }
      ],
      "name": "currentAddresses",
      "outputs": [
        {
          "internalType": "address",
          "name": "",
          "type": "address"
        }
      ],
      "stateMutability": "view",
      "type": "function"
    },
    {
      "inputs": [
        {
          "internalType": "bytes32",
          "name": "",
          "type": "bytes32"
        }
      ],
      "name": "currentUInts256",
      "outputs": [
        {
          "internalType": "uint256",
          "name": "",
          "type": "uint256"
        }
      ],
      "stateMutability": "view",
      "type": "function"
    },
    {
      "inputs": [
        {
          "internalType": "bytes32",
          "name": "",
          "type": "bytes32"
        }
      ],
      "name": "deadlines",
      "outputs": [
        {
          "internalType": "uint256",
          "name": "",
          "type": "uint256"
        }
      ],
      "stateMutability": "view",
      "type": "function"
    },
    {
      "inputs": [
        {
          "internalType": "uint256",
          "name": "depositAmount",
          "type": "uint256"
        }
      ],
      "name": "deposit",
      "outputs": [
        {
          "internalType": "uint256",
          "name": "",
          "type": "uint256"
        }
      ],
      "stateMutability": "payable",
      "type": "function"
    },
    {
      "inputs": [
        {
          "internalType": "uint256",
          "name": "depositAmount",
          "type": "uint256"
        },
        {
          "internalType": "uint256",
          "name": "minTokenAmount",
          "type": "uint256"
        }
      ],
      "name": "deposit",
      "outputs": [
        {
          "internalType": "uint256",
          "name": "",
          "type": "uint256"
        }
      ],
      "stateMutability": "payable",
      "type": "function"
    },
    {
      "inputs": [
        {
          "internalType": "uint256",
          "name": "depositAmount",
          "type": "uint256"
        },
        {
          "internalType": "uint256",
          "name": "minTokenAmount",
          "type": "uint256"
        }
      ],
      "name": "depositAndStake",
      "outputs": [
        {
          "internalType": "uint256",
          "name": "",
          "type": "uint256"
        }
      ],
      "stateMutability": "payable",
      "type": "function"
    },
    {
      "inputs": [],
      "name": "depositCap",
      "outputs": [
        {
          "internalType": "uint256",
          "name": "",
          "type": "uint256"
        }
      ],
      "stateMutability": "view",
      "type": "function"
    },
    {
      "inputs": [
        {
          "internalType": "address",
          "name": "account",
          "type": "address"
        },
        {
          "internalType": "uint256",
          "name": "depositAmount",
          "type": "uint256"
        }
      ],
      "name": "depositFor",
      "outputs": [
        {
          "internalType": "uint256",
          "name": "",
          "type": "uint256"
        }
      ],
      "stateMutability": "payable",
      "type": "function"
    },
    {
      "inputs": [
        {
          "internalType": "address",
          "name": "account",
          "type": "address"
        },
        {
          "internalType": "uint256",
          "name": "depositAmount",
          "type": "uint256"
        },
        {
          "internalType": "uint256",
          "name": "minTokenAmount",
          "type": "uint256"
        }
      ],
      "name": "depositFor",
      "outputs": [
        {
          "internalType": "uint256",
          "name": "",
          "type": "uint256"
        }
      ],
      "stateMutability": "payable",
      "type": "function"
    },
    {
      "inputs": [],
      "name": "exchangeRate",
      "outputs": [
        {
          "internalType": "uint256",
          "name": "",
          "type": "uint256"
        }
      ],
      "stateMutability": "view",
      "type": "function"
    },
    {
      "inputs": [],
      "name": "executeNewMaxWithdrawalFee",
      "outputs": [
        {
          "internalType": "uint256",
          "name": "",
          "type": "uint256"
        }
      ],
      "stateMutability": "nonpayable",
      "type": "function"
    },
    {
      "inputs": [],
      "name": "executeNewMinWithdrawalFee",
      "outputs": [
        {
          "internalType": "uint256",
          "name": "",
          "type": "uint256"
        }
      ],
      "stateMutability": "nonpayable",
      "type": "function"
    },
    {
      "inputs": [],
      "name": "executeNewRequiredReserves",
      "outputs": [
        {
          "internalType": "uint256",
          "name": "",
          "type": "uint256"
        }
      ],
      "stateMutability": "nonpayable",
      "type": "function"
    },
    {
      "inputs": [],
      "name": "executeNewReserveDeviation",
      "outputs": [
        {
          "internalType": "uint256",
          "name": "",
          "type": "uint256"
        }
      ],
      "stateMutability": "nonpayable",
      "type": "function"
    },
    {
      "inputs": [],
      "name": "executeNewVault",
      "outputs": [
        {
          "internalType": "address",
          "name": "",
          "type": "address"
        }
      ],
      "stateMutability": "nonpayable",
      "type": "function"
    },
    {
      "inputs": [],
      "name": "executeNewWithdrawalFeeDecreasePeriod",
      "outputs": [
        {
          "internalType": "uint256",
          "name": "",
          "type": "uint256"
        }
      ],
      "stateMutability": "nonpayable",
      "type": "function"
    },
    {
      "inputs": [],
      "name": "getLpToken",
      "outputs": [
        {
          "internalType": "address",
          "name": "",
          "type": "address"
        }
      ],
      "stateMutability": "view",
      "type": "function"
    },
    {
      "inputs": [],
      "name": "getMaxReserveDeviationRatio",
      "outputs": [
        {
          "internalType": "uint256",
          "name": "",
          "type": "uint256"
        }
      ],
      "stateMutability": "view",
      "type": "function"
    },
    {
      "inputs": [],
      "name": "getMaxWithdrawalFee",
      "outputs": [
        {
          "internalType": "uint256",
          "name": "",
          "type": "uint256"
        }
      ],
      "stateMutability": "view",
      "type": "function"
    },
    {
      "inputs": [],
      "name": "getMinWithdrawalFee",
      "outputs": [
        {
          "internalType": "uint256",
          "name": "",
          "type": "uint256"
        }
      ],
      "stateMutability": "view",
      "type": "function"
    },
    {
      "inputs": [
        {
          "internalType": "uint256",
          "name": "timeToWait",
          "type": "uint256"
        },
        {
          "internalType": "uint256",
          "name": "lastActionTimestamp",
          "type": "uint256"
        },
        {
          "internalType": "uint256",
          "name": "feeRatio",
          "type": "uint256"
        }
      ],
      "name": "getNewCurrentFees",
      "outputs": [
        {
          "internalType": "uint256",
          "name": "",
          "type": "uint256"
        }
      ],
      "stateMutability": "view",
      "type": "function"
    },
    {
      "inputs": [],
      "name": "getRequiredReserveRatio",
      "outputs": [
        {
          "internalType": "uint256",
          "name": "",
          "type": "uint256"
        }
      ],
      "stateMutability": "view",
      "type": "function"
    },
    {
      "inputs": [],
      "name": "getUnderlying",
      "outputs": [
        {
          "internalType": "address",
          "name": "",
          "type": "address"
        }
      ],
      "stateMutability": "view",
      "type": "function"
    },
    {
      "inputs": [],
      "name": "getVault",
      "outputs": [
        {
          "internalType": "contract IVault",
          "name": "",
          "type": "address"
        }
      ],
      "stateMutability": "view",
      "type": "function"
    },
    {
      "inputs": [
        {
          "internalType": "address",
          "name": "account",
          "type": "address"
        },
        {
          "internalType": "uint256",
          "name": "amount",
          "type": "uint256"
        }
      ],
      "name": "getWithdrawalFee",
      "outputs": [
        {
          "internalType": "uint256",
          "name": "",
          "type": "uint256"
        }
      ],
      "stateMutability": "view",
      "type": "function"
    },
    {
      "inputs": [],
      "name": "getWithdrawalFeeDecreasePeriod",
      "outputs": [
        {
          "internalType": "uint256",
          "name": "",
          "type": "uint256"
        }
      ],
      "stateMutability": "view",
      "type": "function"
    },
    {
      "inputs": [
        {
          "internalType": "address",
          "name": "from",
          "type": "address"
        },
        {
          "internalType": "address",
          "name": "to",
          "type": "address"
        },
        {
          "internalType": "uint256",
          "name": "amount",
          "type": "uint256"
        }
      ],
      "name": "handleLpTokenTransfer",
      "outputs": [],
      "stateMutability": "nonpayable",
      "type": "function"
    },
    {
      "inputs": [
        {
          "internalType": "string",
          "name": "name_",
          "type": "string"
        },
        {
          "internalType": "address",
          "name": "underlying_",
          "type": "address"
        },
        {
          "internalType": "uint256",
          "name": "depositCap_",
          "type": "uint256"
        },
        {
          "internalType": "address",
          "name": "vault_",
          "type": "address"
        }
      ],
      "name": "initialize",
      "outputs": [
        {
          "internalType": "bool",
          "name": "",
          "type": "bool"
        }
      ],
      "stateMutability": "nonpayable",
      "type": "function"
    },
    {
      "inputs": [],
      "name": "isCapped",
      "outputs": [
        {
          "internalType": "bool",
          "name": "",
          "type": "bool"
        }
      ],
      "stateMutability": "view",
      "type": "function"
    },
    {
      "inputs": [],
      "name": "isPaused",
      "outputs": [
        {
          "internalType": "bool",
          "name": "",
          "type": "bool"
        }
      ],
      "stateMutability": "view",
      "type": "function"
    },
    {
      "inputs": [],
      "name": "lpToken",
      "outputs": [
        {
          "internalType": "contract ILpToken",
          "name": "",
          "type": "address"
        }
      ],
      "stateMutability": "view",
      "type": "function"
    },
    {
      "inputs": [],
      "name": "name",
      "outputs": [
        {
          "internalType": "string",
          "name": "",
          "type": "string"
        }
      ],
      "stateMutability": "view",
      "type": "function"
    },
    {
      "inputs": [],
      "name": "pause",
      "outputs": [
        {
          "internalType": "bool",
          "name": "",
          "type": "bool"
        }
      ],
      "stateMutability": "nonpayable",
      "type": "function"
    },
    {
      "inputs": [
        {
          "internalType": "bytes32",
          "name": "",
          "type": "bytes32"
        }
      ],
      "name": "pendingAddresses",
      "outputs": [
        {
          "internalType": "address",
          "name": "",
          "type": "address"
        }
      ],
      "stateMutability": "view",
      "type": "function"
    },
    {
      "inputs": [
        {
          "internalType": "bytes32",
          "name": "",
          "type": "bytes32"
        }
      ],
      "name": "pendingUInts256",
      "outputs": [
        {
          "internalType": "uint256",
          "name": "",
          "type": "uint256"
        }
      ],
      "stateMutability": "view",
      "type": "function"
    },
    {
      "inputs": [
        {
          "internalType": "uint256",
          "name": "newFee",
          "type": "uint256"
        }
      ],
      "name": "prepareNewMaxWithdrawalFee",
      "outputs": [
        {
          "internalType": "bool",
          "name": "",
          "type": "bool"
        }
      ],
      "stateMutability": "nonpayable",
      "type": "function"
    },
    {
      "inputs": [
        {
          "internalType": "uint256",
          "name": "newFee",
          "type": "uint256"
        }
      ],
      "name": "prepareNewMinWithdrawalFee",
      "outputs": [
        {
          "internalType": "bool",
          "name": "",
          "type": "bool"
        }
      ],
      "stateMutability": "nonpayable",
      "type": "function"
    },
    {
      "inputs": [
        {
          "internalType": "uint256",
          "name": "_newRatio",
          "type": "uint256"
        }
      ],
      "name": "prepareNewRequiredReserves",
      "outputs": [
        {
          "internalType": "bool",
          "name": "",
          "type": "bool"
        }
      ],
      "stateMutability": "nonpayable",
      "type": "function"
    },
    {
      "inputs": [
        {
          "internalType": "uint256",
          "name": "newRatio",
          "type": "uint256"
        }
      ],
      "name": "prepareNewReserveDeviation",
      "outputs": [
        {
          "internalType": "bool",
          "name": "",
          "type": "bool"
        }
      ],
      "stateMutability": "nonpayable",
      "type": "function"
    },
    {
      "inputs": [
        {
          "internalType": "address",
          "name": "_vault",
          "type": "address"
        }
      ],
      "name": "prepareNewVault",
      "outputs": [
        {
          "internalType": "bool",
          "name": "",
          "type": "bool"
        }
      ],
      "stateMutability": "nonpayable",
      "type": "function"
    },
    {
      "inputs": [
        {
          "internalType": "uint256",
          "name": "newPeriod",
          "type": "uint256"
        }
      ],
      "name": "prepareNewWithdrawalFeeDecreasePeriod",
      "outputs": [
        {
          "internalType": "bool",
          "name": "",
          "type": "bool"
        }
      ],
      "stateMutability": "nonpayable",
      "type": "function"
    },
    {
      "inputs": [],
      "name": "rebalanceVault",
      "outputs": [],
      "stateMutability": "nonpayable",
      "type": "function"
    },
    {
      "inputs": [
        {
          "internalType": "uint256",
          "name": "redeemLpTokens",
          "type": "uint256"
        },
        {
          "internalType": "uint256",
          "name": "minRedeemAmount",
          "type": "uint256"
        }
      ],
      "name": "redeem",
      "outputs": [
        {
          "internalType": "uint256",
          "name": "",
          "type": "uint256"
        }
      ],
      "stateMutability": "nonpayable",
      "type": "function"
    },
    {
      "inputs": [
        {
          "internalType": "uint256",
          "name": "redeemLpTokens",
          "type": "uint256"
        }
      ],
      "name": "redeem",
      "outputs": [
        {
          "internalType": "uint256",
          "name": "",
          "type": "uint256"
        }
      ],
      "stateMutability": "nonpayable",
      "type": "function"
    },
    {
      "inputs": [],
      "name": "resetNewMaxWithdrawalFee",
      "outputs": [
        {
          "internalType": "bool",
          "name": "",
          "type": "bool"
        }
      ],
      "stateMutability": "nonpayable",
      "type": "function"
    },
    {
      "inputs": [],
      "name": "resetNewMinWithdrawalFee",
      "outputs": [
        {
          "internalType": "bool",
          "name": "",
          "type": "bool"
        }
      ],
      "stateMutability": "nonpayable",
      "type": "function"
    },
    {
      "inputs": [],
      "name": "resetNewReserveDeviation",
      "outputs": [
        {
          "internalType": "bool",
          "name": "",
          "type": "bool"
        }
      ],
      "stateMutability": "nonpayable",
      "type": "function"
    },
    {
      "inputs": [],
      "name": "resetNewVault",
      "outputs": [
        {
          "internalType": "bool",
          "name": "",
          "type": "bool"
        }
      ],
      "stateMutability": "nonpayable",
      "type": "function"
    },
    {
      "inputs": [],
      "name": "resetNewWithdrawalFeeDecreasePeriod",
      "outputs": [
        {
          "internalType": "bool",
          "name": "",
          "type": "bool"
        }
      ],
      "stateMutability": "nonpayable",
      "type": "function"
    },
    {
      "inputs": [],
      "name": "resetRequiredReserves",
      "outputs": [
        {
          "internalType": "bool",
          "name": "",
          "type": "bool"
        }
      ],
      "stateMutability": "nonpayable",
      "type": "function"
    },
    {
      "inputs": [],
      "name": "roleManager",
      "outputs": [
        {
          "internalType": "contract IRoleManager",
          "name": "",
          "type": "address"
        }
      ],
      "stateMutability": "view",
      "type": "function"
    },
    {
      "inputs": [
        {
          "internalType": "address",
          "name": "_lpToken",
          "type": "address"
        }
      ],
      "name": "setLpToken",
      "outputs": [
        {
          "internalType": "bool",
          "name": "",
          "type": "bool"
        }
      ],
      "stateMutability": "nonpayable",
      "type": "function"
    },
    {
      "inputs": [],
      "name": "setStaker",
      "outputs": [
        {
          "internalType": "bool",
          "name": "",
          "type": "bool"
        }
      ],
      "stateMutability": "nonpayable",
      "type": "function"
    },
    {
      "inputs": [],
      "name": "staker",
      "outputs": [
        {
          "internalType": "contract IStakerVault",
          "name": "",
          "type": "address"
        }
      ],
      "stateMutability": "view",
      "type": "function"
    },
    {
      "inputs": [],
      "name": "totalUnderlying",
      "outputs": [
        {
          "internalType": "uint256",
          "name": "",
          "type": "uint256"
        }
      ],
      "stateMutability": "view",
      "type": "function"
    },
    {
      "inputs": [],
      "name": "uncap",
      "outputs": [
        {
          "internalType": "bool",
          "name": "",
          "type": "bool"
        }
      ],
      "stateMutability": "nonpayable",
      "type": "function"
    },
    {
      "inputs": [],
      "name": "unpause",
      "outputs": [
        {
          "internalType": "bool",
          "name": "",
          "type": "bool"
        }
      ],
      "stateMutability": "nonpayable",
      "type": "function"
    },
    {
      "inputs": [
        {
          "internalType": "uint256",
          "name": "redeemLpTokens",
          "type": "uint256"
        },
        {
          "internalType": "uint256",
          "name": "minRedeemAmount",
          "type": "uint256"
        }
      ],
      "name": "unstakeAndRedeem",
      "outputs": [
        {
          "internalType": "uint256",
          "name": "",
          "type": "uint256"
        }
      ],
      "stateMutability": "nonpayable",
      "type": "function"
    },
    {
      "inputs": [
        {
          "internalType": "uint256",
          "name": "_depositCap",
          "type": "uint256"
        }
      ],
      "name": "updateDepositCap",
      "outputs": [
        {
          "internalType": "bool",
          "name": "",
          "type": "bool"
        }
      ],
      "stateMutability": "nonpayable",
      "type": "function"
    },
    {
      "inputs": [],
      "name": "withdrawAll",
      "outputs": [],
      "stateMutability": "nonpayable",
      "type": "function"
    },
    {
      "inputs": [
        {
          "internalType": "address",
          "name": "",
          "type": "address"
        }
      ],
      "name": "withdrawalFeeMetas",
      "outputs": [
        {
          "internalType": "uint64",
          "name": "timeToWait",
          "type": "uint64"
        },
        {
          "internalType": "uint64",
          "name": "feeRatio",
          "type": "uint64"
        },
        {
          "internalType": "uint64",
          "name": "lastActionTimestamp",
          "type": "uint64"
        }
      ],
      "stateMutability": "view",
      "type": "function"
    }
  ],
  "bytecode": "0x60e06040523480156200001157600080fd5b506040516200556b3803806200556b833981016040819052620000349162000278565b80620000c8816001600160a01b0316632954018c6040518163ffffffff1660e01b815260040160206040518083038186803b1580156200007357600080fd5b505afa15801562000088573d6000803e3d6000fd5b505050506040513d601f19601f82011682018060405250810190620000ae919062000278565b6001600160a01b0316620001cd60201b62003a111760201c565b6001600160a01b0390811660805260408051808201909152601881527f7a65726f2061646472657373206e6f7420616c6c6f77656400000000000000006020820152908216620001365760405162461bcd60e51b81526004016200012d91906200029f565b60405180910390fd5b506001600160a01b03811660a081905260408051630a55006360e21b81529051632954018c91600480820192602092909190829003018186803b1580156200017d57600080fd5b505afa15801562000192573d6000803e3d6000fd5b505050506040513d601f19601f82011682018060405250810190620001b8919062000278565b6001600160a01b031660c05250620002f79050565b6040516321f8a72160e01b81526a3937b632a6b0b730b3b2b960a91b60048201526000906001600160a01b038316906321f8a7219060240160206040518083038186803b1580156200021e57600080fd5b505afa15801562000233573d6000803e3d6000fd5b505050506040513d601f19601f8201168201806040525081019062000259919062000278565b92915050565b6001600160a01b03811681146200027557600080fd5b50565b6000602082840312156200028b57600080fd5b815162000298816200025f565b9392505050565b600060208083528351808285015260005b81811015620002ce57858101830151858201604001528201620002b0565b81811115620002e1576000604083870101525b50601f01601f1916929092016040019392505050565b60805160a05160c05161520c6200035f6000396000818161051601528181610e8d01528181611cb00152818161220901528181613057015281816137820152818161382e015281816138cf015261396e01526000610b2e01526000613a9b015261520c6000f3fe6080604052600436106103c25760003560e01c80637cbc2373116101f2578063b6b55f251161010d578063e2bbb158116100a0578063f07079031161006f578063f070790314610aa6578063f1b60c9814610ac6578063f76c339914610ae6578063f77c479114610b1c57600080fd5b8063e2bbb15814610a28578063e3976edf14610a3b578063ee78877714610a71578063efe9ee6b14610a9157600080fd5b8063d14397d7116100dc578063d14397d7146109b2578063d8178a0e146109d2578063db006a75146109f2578063dbd5edc714610a1257600080fd5b8063b6b55f2514610955578063b891126714610968578063c70920bc14610988578063ca917a9f1461099d57600080fd5b80639ba1c15611610185578063ac34993011610154578063ac349930146108d9578063aff1b7e4146108ee578063b187bd261461091b578063b3af73941461093557600080fd5b80639ba1c1561461087a5780639ee933b51461088f578063a08bd3ec146108af578063ac23e496146108c457600080fd5b8063855d7ecf116101c1578063855d7ecf146108125780638d928af8146108325780638f7265b0146108475780639816f4731461085c57600080fd5b80637cbc2373146107a85780638214f5a4146107c85780638456cb59146107e6578063853828b6146107fb57600080fd5b80633ad193be116102e25780635ebaf1db11610275578063671528d411610244578063671528d414610749578063697b9aab146107605780637969ee28146107755780637b95b5371461078857600080fd5b80635ebaf1db146106df5780635f7ad054146106ff5780635fcbd2851461071457806366f07dd21461073457600080fd5b80633ff5244a116102b15780633ff5244a146106775780634cf5fbf51461069757806355b09456146106aa578063580c7102146106ca57600080fd5b80633ad193be146106185780633ba0b9a91461062d5780633d59f0c3146106425780633f4ba83a1461066257600080fd5b806327a5e8501161035a5780632f4f21e2116103295780632f4f21e21461054d57806333aed88914610560578063346a4a511461057557806337829f49146105a257600080fd5b806327a5e850146104da57806328f6e2e3146104ef5780632954018c146105045780632d229bf21461053857600080fd5b8063096ddcba11610396578063096ddcba1461045557806315dbfe621461046a578063171e5e88146104a55780631f6663ab146104c557600080fd5b8062435da5146103c757806306fdde03146103f9578063089cf3c21461041b57806308e9940a14610440575b600080fd5b3480156103d357600080fd5b506103dc610b50565b6040516001600160a01b0390911681526020015b60405180910390f35b34801561040557600080fd5b5061040e610b5f565b6040516103f09190614d39565b34801561042757600080fd5b50610430610bed565b60405190151581526020016103f0565b34801561044c57600080fd5b50610430610ceb565b34801561046157600080fd5b506103dc610de0565b34801561047657600080fd5b50610497610485366004614d6c565b60016020526000908152604090205481565b6040519081526020016103f0565b3480156104b157600080fd5b506104306104c0366004614d6c565b610ef2565b3480156104d157600080fd5b506104306110b5565b3480156104e657600080fd5b506104976111f3565b3480156104fb57600080fd5b50610497611234565b34801561051057600080fd5b506103dc7f000000000000000000000000000000000000000000000000000000000000000081565b34801561054457600080fd5b50610497611275565b61049761055b366004614da8565b6112b1565b34801561056c57600080fd5b506104306112c8565b34801561058157600080fd5b50610497610590366004614d6c565b60046020526000908152604090205481565b3480156105ae57600080fd5b506105ee6105bd366004614dd4565b6006602052600090815260409020546001600160401b0380821691600160401b8104821691600160801b9091041683565b604080516001600160401b03948516815292841660208401529216918101919091526060016103f0565b34801561062457600080fd5b506104976113b2565b34801561063957600080fd5b506104976113db565b34801561064e57600080fd5b5061043061065d366004614dd4565b6114a3565b34801561066e57600080fd5b50610430611597565b34801561068357600080fd5b50610430610692366004614d6c565b611601565b6104976106a5366004614df1565b611708565b3480156106b657600080fd5b506104306106c5366004614e3c565b611a7f565b3480156106d657600080fd5b50610497611b08565b3480156106eb57600080fd5b506008546103dc906001600160a01b031681565b34801561070b57600080fd5b50610497611b27565b34801561072057600080fd5b506009546103dc906001600160a01b031681565b34801561074057600080fd5b50610430611b40565b34801561075557600080fd5b506007541515610430565b34801561076c57600080fd5b50610497611de5565b610497610783366004614f17565b611e26565b34801561079457600080fd5b506104976107a3366004614f17565b611ec1565b3480156107b457600080fd5b506104976107c3366004614f17565b6120d9565b3480156107d457600080fd5b506009546001600160a01b03166103dc565b3480156107f257600080fd5b50610430612457565b34801561080757600080fd5b506108106124c5565b005b34801561081e57600080fd5b5061043061082d366004614d6c565b6125f8565b34801561083e57600080fd5b506103dc6126ff565b34801561085357600080fd5b5061081061273e565b34801561086857600080fd5b50600b546001600160a01b03166103dc565b34801561088657600080fd5b5061049761281f565b34801561089b57600080fd5b506104306108aa366004614dd4565b612851565b3480156108bb57600080fd5b50610430612aba565b3480156108d057600080fd5b50610497612baf565b3480156108e557600080fd5b50610430612bdc565b3480156108fa57600080fd5b50610497610909366004614d6c565b60036020526000908152604090205481565b34801561092757600080fd5b506005546104309060ff1681565b34801561094157600080fd5b50610430610950366004614d6c565b612ccc565b610497610963366004614d6c565b612e2a565b34801561097457600080fd5b50610497610983366004614da8565b612e38565b34801561099457600080fd5b50610497613146565b3480156109a957600080fd5b506104976131fa565b3480156109be57600080fd5b506104976109cd366004614f39565b61323b565b3480156109de57600080fd5b506104976109ed366004614da8565b613297565b3480156109fe57600080fd5b50610497610a0d366004614d6c565b6133ad565b348015610a1e57600080fd5b5061049760075481565b610497610a36366004614f17565b6133ba565b348015610a4757600080fd5b506103dc610a56366004614d6c565b6000602081905290815260409020546001600160a01b031681565b348015610a7d57600080fd5b50610430610a8c366004614d6c565b6133c7565b348015610a9d57600080fd5b506104306134b8565b348015610ab257600080fd5b50610430610ac1366004614d6c565b6135ad565b348015610ad257600080fd5b50610810610ae1366004614f65565b6136f2565b348015610af257600080fd5b506103dc610b01366004614d6c565b6002602052600090815260409020546001600160a01b031681565b348015610b2857600080fd5b506103dc7f000000000000000000000000000000000000000000000000000000000000000081565b6000610b5a613a99565b905090565b600a8054610b6c90614fa6565b80601f0160208091040260200160405190810160405280929190818152602001828054610b9890614fa6565b8015610be55780601f10610bba57610100808354040283529160200191610be5565b820191906000526020600020905b815481529060010190602001808311610bc857829003601f168201915b505050505081565b6000610bf7613a99565b604051632474521560e21b815269676f7665726e616e636560b01b60048201523360248201526001600160a01b0391909116906391d148549060440160206040518083038186803b158015610c4b57600080fd5b505afa158015610c5f573d6000803e3d6000fd5b505050506040513d601f19601f82011682018060405250810190610c839190614fe1565b60405180604001604052806013815260200160008051602061512983398151915281525090610cce5760405162461bcd60e51b8152600401610cc59190614d39565b60405180910390fd5b50610b5a6f2932b9b2b93b32a232bb34b0ba34b7b760811b613abd565b6000610cf5613a99565b604051632474521560e21b815269676f7665726e616e636560b01b60048201523360248201526001600160a01b0391909116906391d148549060440160206040518083038186803b158015610d4957600080fd5b505afa158015610d5d573d6000803e3d6000fd5b505050506040513d601f19601f82011682018060405250810190610d819190614fe1565b60405180604001604052806013815260200160008051602061512983398151915281525090610dc35760405162461bcd60e51b8152600401610cc59190614d39565b50610b5a6f4d61785769746864726177616c46656560801b613abd565b600080610deb6126ff565b90506001600160a01b03811615610e5057806001600160a01b031663853828b66040518163ffffffff1660e01b8152600401600060405180830381600087803b158015610e3757600080fd5b505af1158015610e4b573d6000803e3d6000fd5b505050505b6000610e636415985d5b1d60da1b613b64565b604051630368a3a560e31b81526001600160a01b03848116600483015280831660248301529192507f000000000000000000000000000000000000000000000000000000000000000090911690631b451d2890604401600060405180830381600087803b158015610ed357600080fd5b505af1158015610ee7573d6000803e3d6000fd5b509295945050505050565b6000610efc613a99565b604051632474521560e21b815269676f7665726e616e636560b01b60048201523360248201526001600160a01b0391909116906391d148549060440160206040518083038186803b158015610f5057600080fd5b505afa158015610f64573d6000803e3d6000fd5b505050506040513d601f19601f82011682018060405250810190610f889190614fe1565b60405180604001604052806013815260200160008051602061512983398151915281525090610fca5760405162461bcd60e51b8152600401610cc59190614d39565b5060075415156040518060400160405280602081526020017f74686520706f6f6c206973206e6f742063757272656e746c7920636170706564815250906110245760405162461bcd60e51b8152600401610cc59190614d39565b508160075414156040518060600160405280602981526020016151ae60299139906110625760405162461bcd60e51b8152600401610cc59190614d39565b5060408051808201909152600e81526d1a5b9d985b1a5908185b5bdd5b9d60921b6020820152826110a65760405162461bcd60e51b8152600401610cc59190614d39565b5050600781905560015b919050565b60006110bf613a99565b604051632474521560e21b815269676f7665726e616e636560b01b60048201523360248201526001600160a01b0391909116906391d148549060440160206040518083038186803b15801561111357600080fd5b505afa158015611127573d6000803e3d6000fd5b505050506040513d601f19601f8201168201806040525081019061114b9190614fe1565b6040518060400160405280601381526020016000805160206151298339815191528152509061118d5760405162461bcd60e51b8152600401610cc59190614d39565b5060075415156040518060400160405280602081526020017f74686520706f6f6c206973206e6f742063757272656e746c7920636170706564815250906111e75760405162461bcd60e51b8152600401610cc59190614d39565b50506000600755600190565b6f4d696e5769746864726177616c46656560801b60005260036020527fc0f899a0b165dc0c43f66d0d223e281b3f278eca17e510016df881545bb9d8625490565b6f5265717569726564526573657276657360801b60005260036020527fba135a2864686570c0839a01a6e2733db5bf6cecadc565d84319df13ef016a155490565b60008051602061510983398151915260005260036020527f604a2499576f2f340436d07e04cc082bc0d8e83977929464e7f0af31c1c137ff5490565b60006112bf83836000611708565b90505b92915050565b60006112d2613a99565b604051632474521560e21b815269676f7665726e616e636560b01b60048201523360248201526001600160a01b0391909116906391d148549060440160206040518083038186803b15801561132657600080fd5b505afa15801561133a573d6000803e3d6000fd5b505050506040513d601f19601f8201168201806040525081019061135e9190614fe1565b604051806040016040528060138152602001600080516020615129833981519152815250906113a05760405162461bcd60e51b8152600401610cc59190614d39565b50610b5a6415985d5b1d60da1b613b98565b6000806113d16f5265717569726564526573657276657360801b613c49565b90506110b0613c6d565b6000806113e6613146565b90506000600960009054906101000a90046001600160a01b03166001600160a01b03166318160ddd6040518163ffffffff1660e01b815260040160206040518083038186803b15801561143857600080fd5b505afa15801561144c573d6000803e3d6000fd5b505050506040513d601f19601f820116820180604052508101906114709190615003565b905080158061147d575081155b1561149257670de0b6b3a76400009250505090565b61149c8282613c77565b9250505090565b60006114ad613a99565b604051632474521560e21b815269676f7665726e616e636560b01b60048201523360248201526001600160a01b0391909116906391d148549060440160206040518083038186803b15801561150157600080fd5b505afa158015611515573d6000803e3d6000fd5b505050506040513d601f19601f820116820180604052508101906115399190614fe1565b6040518060400160405280601381526020016000805160206151298339815191528152509061157b5760405162461bcd60e51b8152600401610cc59190614d39565b5061158e6415985d5b1d60da1b83613c96565b50600192915050565b60006115a233613ca6565b604051806040016040528060178152602001766e6f7420617574686f72697a656420746f20706175736560481b815250906115f05760405162461bcd60e51b8152600401610cc59190614d39565b50506005805460ff19169055600190565b600061160b613a99565b604051632474521560e21b815269676f7665726e616e636560b01b60048201523360248201526001600160a01b0391909116906391d148549060440160206040518083038186803b15801561165f57600080fd5b505afa158015611673573d6000803e3d6000fd5b505050506040513d601f19601f820116820180604052508101906116979190614fe1565b604051806040016040528060138152602001600080516020615129833981519152815250906116d95760405162461bcd60e51b8152600401610cc59190614d39565b506116eb6116e56111f3565b83613d3e565b6112c26f4d61785769746864726177616c46656560801b83613dd2565b60055460408051808201909152601281527118dbdb9d1c9858dd081a5cc81c185d5cd95960721b602082015260009160ff16156117585760405162461bcd60e51b8152600401610cc59190614d39565b5060006117636113db565b9050611770600754151590565b156118f9576009546040516370a0823160e01b81526001600160a01b03878116600483015260009216906370a082319060240160206040518083038186803b1580156117bb57600080fd5b505afa1580156117cf573d6000803e3d6000fd5b505050506040513d601f19601f820116820180604052508101906117f39190615003565b60085460405163a853ba2f60e01b81526001600160a01b0389811660048301529293506000929091169063a853ba2f9060240160206040518083038186803b15801561183e57600080fd5b505afa158015611852573d6000803e3d6000fd5b505050506040513d601f19601f820116820180604052508101906118769190615003565b9050600061188e846118888486615032565b90613de2565b60075490915061189e8883615032565b11156040518060400160405280601b81526020017f6465706f7369742065786365656473206465706f736974206361700000000000815250906118f45760405162461bcd60e51b8152600401610cc59190614d39565b505050505b6119033385613df7565b600061190f8583613c77565b9050838110156040518060400160405280600e81526020016d1a5b9d985b1a5908185b5bdd5b9d60921b8152509061195a5760405162461bcd60e51b8152600401610cc59190614d39565b506009546040516340c10f1960e01b81526001600160a01b03888116600483015260248201849052909116906340c10f1990604401600060405180830381600087803b1580156119a957600080fd5b505af11580156119bd573d6000803e3d6000fd5b505050506119c9613c6d565b336001600160a01b03871614806119e85750306001600160a01b038716145b15611a2d57604080518681526020810183905233917f90890809c654f11d6e72a28fa60149770a0d11ec6c92319d6ceb2bb0a4ea1a15910160405180910390a2611a74565b60408051868152602081018390526001600160a01b0388169133917f512d56e1f791d3bc07b8085104584ec42faefbefed34bbc0b881d8da16a8ebe1910160405180910390a35b9150505b9392505050565b6040805180820190915260188152771e995c9bc81859191c995cdcc81b9bdd08185b1b1bddd95960421b60208201526000906001600160a01b038516611ad85760405162461bcd60e51b8152600401610cc59190614d39565b50600b80546001600160a01b0319166001600160a01b038616179055611aff858484613e5b565b95945050505050565b6000806113d16f2932b9b2b93b32a232bb34b0ba34b7b760811b613c49565b6000610b5a600080516020615109833981519152613c49565b600069676f7665726e616e636560b01b6b706f6f6c5f666163746f727960a01b611b68613a99565b604051636bab521160e11b815260048101849052602481018390523360448201526001600160a01b03919091169063d756a4229060640160206040518083038186803b158015611bb757600080fd5b505afa158015611bcb573d6000803e3d6000fd5b505050506040513d601f19601f82011682018060405250810190611bef9190614fe1565b60405180604001604052806013815260200160008051602061512983398151915281525090611c315760405162461bcd60e51b8152600401610cc59190614d39565b506008546040805180820190915260168152751059191c995cdcc81a5cc8185b1c9958591e481cd95d60521b6020820152906001600160a01b031615611c8a5760405162461bcd60e51b8152600401610cc59190614d39565b5060095460405163059eadeb60e41b81526001600160a01b0391821660048201526000917f000000000000000000000000000000000000000000000000000000000000000016906359eadeb09060240160206040518083038186803b158015611cf257600080fd5b505afa158015611d06573d6000803e3d6000fd5b505050506040513d601f19601f82011682018060405250810190611d2a919061504a565b6040805180820190915260188152771e995c9bc81859191c995cdcc81b9bdd08185b1b1bddd95960421b60208201529091506001600160a01b038216611d835760405162461bcd60e51b8152600401610cc59190614d39565b50600880546001600160a01b0319166001600160a01b038316179055611da7613fe1565b6040516001600160a01b038216907f11a945e6ecbc8413276d84b4f853634a407ccf5a1a60b1fa649aea71ea386ff290600090a26001935050505090565b6f4d61785769746864726177616c46656560801b60005260036020527fa17a95707d09266a39dd08e8e69410950f03cfcf325d18179561eb773bcea2095490565b600080611e34308585611708565b6008546040516305dc812160e31b8152336004820152602481018390529192506001600160a01b031690632ee4090890604401602060405180830381600087803b158015611e8157600080fd5b505af1158015611e95573d6000803e3d6000fd5b505050506040513d601f19601f82011682018060405250810190611eb99190614fe1565b509392505050565b6009546040516370a0823160e01b815233600482015260009182916001600160a01b03909116906370a082319060240160206040518083038186803b158015611f0957600080fd5b505afa158015611f1d573d6000803e3d6000fd5b505050506040513d601f19601f82011682018060405250810190611f419190615003565b6008546040516370a0823160e01b815233600482015291925085916001600160a01b03909116906370a082319060240160206040518083038186803b158015611f8957600080fd5b505afa158015611f9d573d6000803e3d6000fd5b505050506040513d601f19601f82011682018060405250810190611fc19190615003565b611fcb9083615032565b101560405180604001604052806014815260200173696e73756666696369656e742062616c616e636560601b815250906120185760405162461bcd60e51b8152600401610cc59190614d39565b50838110156120c7576008546001600160a01b0316634974c679338061203e8589615067565b6040516001600160e01b031960e086901b1681526001600160a01b0393841660048201529290911660248301526044820152606401602060405180830381600087803b15801561208d57600080fd5b505af11580156120a1573d6000803e3d6000fd5b505050506040513d601f19601f820116820180604052508101906120c59190614fe1565b505b6120d184846120d9565b949350505050565b60008083116040518060400160405280600e81526020016d1a5b9d985b1a5908185b5bdd5b9d60921b815250906121235760405162461bcd60e51b8152600401610cc59190614d39565b506009546040516370a0823160e01b81523360048201526001600160a01b0390911690849082906370a082319060240160206040518083038186803b15801561216b57600080fd5b505afa15801561217f573d6000803e3d6000fd5b505050506040513d601f19601f820116820180604052508101906121a39190615003565b101560405180604001604052806014815260200173696e73756666696369656e742062616c616e636560601b815250906121f05760405162461bcd60e51b8152600401610cc59190614d39565b5060405163622e68cb60e01b81523360048201526000907f00000000000000000000000000000000000000000000000000000000000000006001600160a01b03169063622e68cb9060240160206040518083038186803b15801561225357600080fd5b505afa158015612267573d6000803e3d6000fd5b505050506040513d601f19601f8201168201806040525081019061228b9190614fe1565b61229e576122993386613297565b6122a1565b60005b905060006122af8287615067565b9050826001600160a01b03166318160ddd6040518163ffffffff1660e01b815260040160206040518083038186803b1580156122ea57600080fd5b505afa1580156122fe573d6000803e3d6000fd5b505050506040513d601f19601f820116820180604052508101906123229190615003565b86141561232c5750845b60006123406123396113db565b8390613de2565b9050858110156040518060600160405280602d81526020016150dc602d91399061237d5760405162461bcd60e51b8152600401610cc59190614d39565b5061238781614027565b604051632770a7eb60e21b8152336004820152602481018890526001600160a01b03851690639dc29fac90604401602060405180830381600087803b1580156123cf57600080fd5b505af11580156123e3573d6000803e3d6000fd5b505050506040513d601f19601f820116820180604052508101906124079190615003565b506124123382614265565b604080518281526020810189905233917fe5b754fb1abb7f01b499791d0b820ae3b6af3424ac1c59768edb53f4ec31a929910160405180910390a29695505050505050565b600061246233613ca6565b604051806040016040528060178152602001766e6f7420617574686f72697a656420746f20706175736560481b815250906124b05760405162461bcd60e51b8152600401610cc59190614d39565b50506005805460ff1916600190811790915590565b6124cd613a99565b604051632474521560e21b815269676f7665726e616e636560b01b60048201523360248201526001600160a01b0391909116906391d148549060440160206040518083038186803b15801561252157600080fd5b505afa158015612535573d6000803e3d6000fd5b505050506040513d601f19601f820116820180604052508101906125599190614fe1565b6040518060400160405280601381526020016000805160206151298339815191528152509061259b5760405162461bcd60e51b8152600401610cc59190614d39565b506125a46126ff565b6001600160a01b031663853828b66040518163ffffffff1660e01b8152600401600060405180830381600087803b1580156125de57600080fd5b505af11580156125f2573d6000803e3d6000fd5b50505050565b6000612602613a99565b604051632474521560e21b815269676f7665726e616e636560b01b60048201523360248201526001600160a01b0391909116906391d148549060440160206040518083038186803b15801561265657600080fd5b505afa15801561266a573d6000803e3d6000fd5b505050506040513d601f19601f8201168201806040525081019061268e9190614fe1565b604051806040016040528060138152602001600080516020615129833981519152815250906126d05760405162461bcd60e51b8152600401610cc59190614d39565b506126e2826126dd611de5565b613d3e565b6112c26f4d696e5769746864726177616c46656560801b83613dd2565b6415985d5b1d60da1b60005260026020527fc867d482ba9cd7435d7b7450243553d6e2a33c30f68e5a536cba3964e00c8aad546001600160a01b031690565b612746613a99565b604051632474521560e21b815269676f7665726e616e636560b01b60048201523360248201526001600160a01b0391909116906391d148549060440160206040518083038186803b15801561279a57600080fd5b505afa1580156127ae573d6000803e3d6000fd5b505050506040513d601f19601f820116820180604052508101906127d29190614fe1565b604051806040016040528060138152602001600080516020615129833981519152815250906128145760405162461bcd60e51b8152600401610cc59190614d39565b5061281d613c6d565b565b60008061283e6f4d61785769746864726177616c46656560801b613c49565b90506110b061284b6111f3565b82613d3e565b600069676f7665726e616e636560b01b6b706f6f6c5f666163746f727960a01b612879613a99565b604051636bab521160e11b815260048101849052602481018390523360448201526001600160a01b03919091169063d756a4229060640160206040518083038186803b1580156128c857600080fd5b505afa1580156128dc573d6000803e3d6000fd5b505050506040513d601f19601f820116820180604052508101906129009190614fe1565b604051806040016040528060138152602001600080516020615129833981519152815250906129425760405162461bcd60e51b8152600401610cc59190614d39565b506009546040805180820190915260168152751059191c995cdcc81a5cc8185b1c9958591e481cd95d60521b6020820152906001600160a01b03161561299b5760405162461bcd60e51b8152600401610cc59190614d39565b50306001600160a01b0316846001600160a01b031663075461726040518163ffffffff1660e01b815260040160206040518083038186803b1580156129df57600080fd5b505afa1580156129f3573d6000803e3d6000fd5b505050506040513d601f19601f82011682018060405250810190612a17919061504a565b6001600160a01b03161460405180608001604052806044815260200161516a6044913990612a585760405162461bcd60e51b8152600401610cc59190614d39565b50600980546001600160a01b0319166001600160a01b038616179055612a7c613fe1565b6040516001600160a01b038516907f1c1820b4910e7e24202fa882184fde52e795a3113b621ded50b099b270159acc90600090a25060019392505050565b6000612ac4613a99565b604051632474521560e21b815269676f7665726e616e636560b01b60048201523360248201526001600160a01b0391909116906391d148549060440160206040518083038186803b158015612b1857600080fd5b505afa158015612b2c573d6000803e3d6000fd5b505050506040513d601f19601f82011682018060405250810190612b509190614fe1565b60405180604001604052806013815260200160008051602061512983398151915281525090612b925760405162461bcd60e51b8152600401610cc59190614d39565b50610b5a6f5265717569726564526573657276657360801b613abd565b600080612bce6f4d696e5769746864726177616c46656560801b613c49565b90506110b0816126dd611de5565b6000612be6613a99565b604051632474521560e21b815269676f7665726e616e636560b01b60048201523360248201526001600160a01b0391909116906391d148549060440160206040518083038186803b158015612c3a57600080fd5b505afa158015612c4e573d6000803e3d6000fd5b505050506040513d601f19601f82011682018060405250810190612c729190614fe1565b60405180604001604052806013815260200160008051602061512983398151915281525090612cb45760405162461bcd60e51b8152600401610cc59190614d39565b50610b5a600080516020615109833981519152613abd565b6000612cd6613a99565b604051632474521560e21b815269676f7665726e616e636560b01b60048201523360248201526001600160a01b0391909116906391d148549060440160206040518083038186803b158015612d2a57600080fd5b505afa158015612d3e573d6000803e3d6000fd5b505050506040513d601f19601f82011682018060405250810190612d629190614fe1565b60405180604001604052806013815260200160008051602061512983398151915281525090612da45760405162461bcd60e51b8152600401610cc59190614d39565b506064612dba670de0b6b3a7640000603261507e565b612dc4919061509d565b8211156040518060400160405280600e81526020016d1a5b9d985b1a5908185b5bdd5b9d60921b81525090612e0c5760405162461bcd60e51b8152600401610cc59190614d39565b506112c26f2932b9b2b93b32a232bb34b0ba34b7b760811b83613dd2565b60006112c233836000611708565b60008082116040518060400160405280600e81526020016d1a5b9d985b1a5908185b5bdd5b9d60921b81525090612e825760405162461bcd60e51b8152600401610cc59190614d39565b506009546040516370a0823160e01b81526001600160a01b0385811660048301529091169060009082906370a082319060240160206040518083038186803b158015612ecd57600080fd5b505afa158015612ee1573d6000803e3d6000fd5b505050506040513d601f19601f82011682018060405250810190612f059190615003565b1160405180604001604052806014815260200173696e73756666696369656e742062616c616e636560601b81525090612f515760405162461bcd60e51b8152600401610cc59190614d39565b506000612f5c6113db565b90506000612f6a8583613c77565b9050826001600160a01b03166318160ddd6040518163ffffffff1660e01b815260040160206040518083038186803b158015612fa557600080fd5b505afa158015612fb9573d6000803e3d6000fd5b505050506040513d601f19601f82011682018060405250810190612fdd9190615003565b811415612fee5792506112c2915050565b6001600160a01b038681166000818152600660209081526040808320815160608101835290546001600160401b038082168352600160401b8204811694830194909452600160801b9004909216828201525163622e68cb60e01b815260048101939093529290917f00000000000000000000000000000000000000000000000000000000000000009091169063622e68cb9060240160206040518083038186803b15801561309b57600080fd5b505afa1580156130af573d6000803e3d6000fd5b505050506040513d601f19601f820116820180604052508101906130d39190614fe1565b61310c5761310982600001516001600160401b031683604001516001600160401b031684602001516001600160401b031661323b565b90505b600061312a61312383670de0b6b3a7640000615067565b8690613de2565b90506000613138898361427c565b9a9950505050505050505050565b6000806131516126ff565b9050600061315d6142a8565b90506001600160a01b0382166131735792915050565b6000826001600160a01b031663b40494e56040518163ffffffff1660e01b815260040160206040518083038186803b1580156131ae57600080fd5b505afa1580156131c2573d6000803e3d6000fd5b505050506040513d601f19601f820116820180604052508101906131e69190615003565b90506131f28282615032565b935050505090565b6f2932b9b2b93b32a232bb34b0ba34b7b760811b60005260036020527ff61ad85d902c01a6c2756008dbc41a8113da437e01ee2bc9df8881fed1c48c2e5490565b6000806132488442615067565b905060006132546111f3565b9050858210613266579150611a789050565b60006132728388613c77565b9050613282816118888488615067565b61328c9086615067565b979650505050505050565b6001600160a01b038281166000818152600660209081526040808320815160608101835290546001600160401b038082168352600160401b8204811694830194909452600160801b90049092168282015260095490516370a0823160e01b81526004810194909452919390929116906370a082319060240160206040518083038186803b15801561332757600080fd5b505afa15801561333b573d6000803e3d6000fd5b505050506040513d601f19601f8201168201806040525081019061335f9190615003565b61336d5760009150506112c2565b60006133a182600001516001600160401b031683604001516001600160401b031684602001516001600160401b031661323b565b9050611aff8482613de2565b60006112c28260006120d9565b60006112bf338484611708565b60006133d1613a99565b604051632474521560e21b815269676f7665726e616e636560b01b60048201523360248201526001600160a01b0391909116906391d148549060440160206040518083038186803b15801561342557600080fd5b505afa158015613439573d6000803e3d6000fd5b505050506040513d601f19601f8201168201806040525081019061345d9190614fe1565b6040518060400160405280601381526020016000805160206151298339815191528152509061349f5760405162461bcd60e51b8152600401610cc59190614d39565b506112c260008051602061510983398151915283613dd2565b60006134c2613a99565b604051632474521560e21b815269676f7665726e616e636560b01b60048201523360248201526001600160a01b0391909116906391d148549060440160206040518083038186803b15801561351657600080fd5b505afa15801561352a573d6000803e3d6000fd5b505050506040513d601f19601f8201168201806040525081019061354e9190614fe1565b604051806040016040528060138152602001600080516020615129833981519152815250906135905760405162461bcd60e51b8152600401610cc59190614d39565b50610b5a6f4d696e5769746864726177616c46656560801b613abd565b60006135b7613a99565b604051632474521560e21b815269676f7665726e616e636560b01b60048201523360248201526001600160a01b0391909116906391d148549060440160206040518083038186803b15801561360b57600080fd5b505afa15801561361f573d6000803e3d6000fd5b505050506040513d601f19601f820116820180604052508101906136439190614fe1565b604051806040016040528060138152602001600080516020615129833981519152815250906136855760405162461bcd60e51b8152600401610cc59190614d39565b5060408051808201909152600e81526d1a5b9d985b1a5908185b5bdd5b9d60921b6020820152670de0b6b3a76400008311156136d45760405162461bcd60e51b8152600401610cc59190614d39565b506112c26f5265717569726564526573657276657360801b83613dd2565b6009546001600160a01b031633148061371557506008546001600160a01b031633145b604051806040016040528060138152602001600080516020615129833981519152815250906137575760405162461bcd60e51b8152600401610cc59190614d39565b50600954604051635b80b5fb60e11b81526001600160a01b03848116600483015291821660248201527f00000000000000000000000000000000000000000000000000000000000000009091169063b7016bf69060440160206040518083038186803b1580156137c657600080fd5b505afa1580156137da573d6000803e3d6000fd5b505050506040513d601f19601f820116820180604052508101906137fe9190614fe1565b806138aa5750600954604051635b80b5fb60e11b81526001600160a01b03858116600483015291821660248201527f00000000000000000000000000000000000000000000000000000000000000009091169063b7016bf69060440160206040518083038186803b15801561387257600080fd5b505afa158015613886573d6000803e3d6000fd5b505050506040513d601f19601f820116820180604052508101906138aa9190614fe1565b80613949575060405163622e68cb60e01b81526001600160a01b0383811660048301527f0000000000000000000000000000000000000000000000000000000000000000169063622e68cb9060240160206040518083038186803b15801561391157600080fd5b505afa158015613925573d6000803e3d6000fd5b505050506040513d601f19601f820116820180604052508101906139499190614fe1565b806139e8575060405163622e68cb60e01b81526001600160a01b0384811660048301527f0000000000000000000000000000000000000000000000000000000000000000169063622e68cb9060240160206040518083038186803b1580156139b057600080fd5b505afa1580156139c4573d6000803e3d6000fd5b505050506040513d601f19601f820116820180604052508101906139e89190614fe1565b156139f257505050565b6001600160a01b03821615613a0c57613a0c828483614324565b505050565b6040516321f8a72160e01b81526a3937b632a6b0b730b3b2b960a91b60048201526000906001600160a01b038316906321f8a7219060240160206040518083038186803b158015613a6157600080fd5b505afa158015613a75573d6000803e3d6000fd5b505050506040513d601f19601f820116820180604052508101906112c2919061504a565b7f000000000000000000000000000000000000000000000000000000000000000090565b600081815260046020908152604080832054815180830190925260128252710646561646c696e65206d75737420626520360741b9282019290925290613b165760405162461bcd60e51b8152600401610cc59190614d39565b50600082815260046020908152604080832083905560019091528082208290555183917f90fb84ad67dd037c388289337bb80b61b8605d38ba9a875dc38b5600909d172f91a2506001919050565b6000613b6f82614595565b6000828152602081905260409020546001600160a01b0316613b91838261463e565b5092915050565b600081815260046020908152604080832054815180830190925260128252710646561646c696e65206d75737420626520360741b9282019290925290613bf15760405162461bcd60e51b8152600401610cc59190614d39565b5060008281526004602090815260408083208390559082905280822080546001600160a01b03191690555183917f90fb84ad67dd037c388289337bb80b61b8605d38ba9a875dc38b5600909d172f91a2506001919050565b6000613c5482614595565b600082815260016020526040902054613b9183826146c9565b61281d6000614027565b600081613c8c670de0b6b3a76400008561507e565b6112bf919061509d565b60006112bf83836203f48061472a565b6000613cb0613a99565b604051632474521560e21b815269676f7665726e616e636560b01b60048201526001600160a01b03848116602483015291909116906391d148549060440160206040518083038186803b158015613d0657600080fd5b505afa158015613d1a573d6000803e3d6000fd5b505050506040513d601f19601f820116820180604052508101906112c29190614fe1565b60408051808201909152600e81526d1a5b9d985b1a5908185b5bdd5b9d60921b602082015282821015613d845760405162461bcd60e51b8152600401610cc59190614d39565b5060408051808201909152600e81526d1a5b9d985b1a5908185b5bdd5b9d60921b602082015266b1a2bc2ec50000821115613a0c5760405162461bcd60e51b8152600401610cc59190614d39565b60006112bf83836203f4806147a5565b6000670de0b6b3a7640000613c8c838561507e565b604080518082019091526011815270696e76616c6964206d73672e76616c756560781b60208201523415613e3e5760405162461bcd60e51b8152600401610cc59190614d39565b50600b54613e57906001600160a01b03168330846147fb565b5050565b60055460009062010000900460ff16613e7f57600554610100900460ff1615613e83565b303b155b613ee65760405162461bcd60e51b815260206004820152602e60248201527f496e697469616c697a61626c653a20636f6e747261637420697320616c72656160448201526d191e481a5b9a5d1a585b1a5e995960921b6064820152608401610cc5565b60055462010000900460ff16158015613f0b576005805462ffff001916620101001790555b8451613f1e90600a906020880190614c74565b506007849055613f3f60008051602061510983398151915262093a806146c9565b50613f646f4d61785769746864726177616c46656560801b666a94d74f4300006146c9565b50613f8a6f5265717569726564526573657276657360801b670de0b6b3a76400006146c9565b50613faf6f2932b9b2b93b32a232bb34b0ba34b7b760811b6611c37937e080006146c9565b50613fc26415985d5b1d60da1b8461463e565b50600191508015611eb9576005805462ff000019169055509392505050565b6008546009546001600160a01b03918216911681158061400857506001600160a01b038116155b15614011575050565b613e576001600160a01b03821683600019614866565b60006140316126ff565b90506001600160a01b038116614045575050565b6008546040805163ba4ac71160e01b815290516000926001600160a01b03169163ba4ac711916004808301926020929190829003018186803b15801561408a57600080fd5b505afa15801561409e573d6000803e3d6000fd5b505050506040513d601f19601f820116820180604052508101906140c29190615003565b905060006140d16123396113db565b905060006140df600161498a565b905060006140f56140ee6131fa565b8490613de2565b9050600061410b614104611234565b8590613de2565b90508287118061412e575080826141228986615067565b61412c9190615032565b105b156141ce576000836141408984615032565b61414a9190615067565b604051632e1a7d4d60e01b8152600481018290529091506001600160a01b03881690632e1a7d4d90602401602060405180830381600087803b15801561418f57600080fd5b505af11580156141a3573d6000803e3d6000fd5b505050506040513d601f19601f820116820180604052508101906141c79190614fe1565b505061425c565b60006141da8885615067565b90506141e68383615032565b81111561425a5760006141f98383615067565b90506142058882614265565b876001600160a01b031663d0e30db06040518163ffffffff1660e01b8152600401600060405180830381600087803b15801561424057600080fd5b505af1158015614254573d6000803e3d6000fd5b50505050505b505b50505050505050565b600b54613e57906001600160a01b03168383614994565b600081600181614294670de0b6b3a76400008761507e565b61429e9190615032565b613c8c9190615067565b600b546040516370a0823160e01b81523060048201526000916001600160a01b0316906370a082319060240160206040518083038186803b1580156142ec57600080fd5b505afa158015614300573d6000803e3d6000fd5b505050506040513d601f19601f82011682018060405250810190610b5a9190615003565b6001600160a01b03838116600081815260066020526040808220600854915163a853ba2f60e01b8152600481019490945293919291169063a853ba2f9060240160206040518083038186803b15801561437c57600080fd5b505afa158015614390573d6000803e3d6000fd5b505050506040513d601f19601f820116820180604052508101906143b49190615003565b6009546040516370a0823160e01b81526001600160a01b038881166004830152909116906370a082319060240160206040518083038186803b1580156143f957600080fd5b505afa15801561440d573d6000803e3d6000fd5b505050506040513d601f19601f820116820180604052508101906144319190615003565b61443b9190615032565b825490915060009061446b906001600160401b0380821691600160801b8104821691600160401b9091041661323b565b9050600061448361447c8487615032565b8690613c77565b9050600061449982670de0b6b3a7640000615067565b905060006001600160a01b0388166144ba576144b3611de5565b9050614500565b6001600160a01b038816600090815260066020526040902080546144fc906001600160401b0380821691600160801b8104821691600160401b9091041661323b565b9150505b600061450c8483613de2565b6145168487613de2565b6145209190615032565b87546fffffffffffffffff00000000000000001916600160401b6001600160401b038316021788559050614552611275565b8754426001600160401b03908116600160801b02921677ffffffffffffffff0000000000000000ffffffffffffffff199091161717909655505050505050505050565b6000600460008381526020019081526020016000205490508042101560405180606001604052806021815260200161514960219139906145e85760405162461bcd60e51b8152600401610cc59190614d39565b5060408051808201909152600d81526c0646561646c696e65206973203609c1b60208201528161462b5760405162461bcd60e51b8152600401610cc59190614d39565b5050600090815260046020526040812055565b600082815260026020908152604080832080546001600160a01b03198082166001600160a01b038881169182179094558686528487208054909216909155600485528386208690558351929091168083529382015285917fc4a957706c639829ad54381b04930c464db6c7ffdc09d2b4b1acc9ee34fb926191015b60405180910390a2509092915050565b6000828152600360209081526040808320805490859055600183528184208490556004835281842084905581518181529283018590529185917fcc0bafe2accb565ea70674bf4b2555e49a47d410fb9932dfab3e5f41855d0a2f91016146b9565b600061473684836149c4565b6000848152602081815260409182902080546001600160a01b0319166001600160a01b038716908117909155825190815290810184905285917fd46e58ee9dc1ae703349f8c09c19f23213a531b4d57f00cfd4a5a6cb6519668d91015b60405180910390a25060019392505050565b60006147b184836149c4565b600084815260016020908152604091829020859055815185815290810184905285917f0e6790002e78fb96ff1fdfe3a3bb2a86489d3f3923372c1fe5b6b1fed071eed49101614793565b6040516001600160a01b03808516602483015283166044820152606481018290526125f29085906323b872dd60e01b906084015b60408051601f198184030181529190526020810180516001600160e01b03166001600160e01b031990931692909217909152614a9e565b8015806148ef5750604051636eb1769f60e11b81523060048201526001600160a01b03838116602483015284169063dd62ed3e9060440160206040518083038186803b1580156148b557600080fd5b505afa1580156148c9573d6000803e3d6000fd5b505050506040513d601f19601f820116820180604052508101906148ed9190615003565b155b61495a5760405162461bcd60e51b815260206004820152603660248201527f5361666545524332303a20617070726f76652066726f6d206e6f6e2d7a65726f60448201527520746f206e6f6e2d7a65726f20616c6c6f77616e636560501b6064820152608401610cc5565b6040516001600160a01b038316602482015260448101829052613a0c90849063095ea7b360e01b9060640161482f565b60006112c26142a8565b6040516001600160a01b038316602482015260448101829052613a0c90849063a9059cbb60e01b9060640161482f565b6004600083815260200190815260200160002054600014604051806040016040528060128152602001710646561646c696e65206d75737420626520360741b81525090614a245760405162461bcd60e51b8152600401610cc59190614d39565b5060408051808201909152601881527f64656c6179206265206174206c6561737420332064617973000000000000000060208201526203f480821015614a7d5760405162461bcd60e51b8152600401610cc59190614d39565b50614a888142615032565b6000928352600460205260409092209190915550565b6000614af3826040518060400160405280602081526020017f5361666545524332303a206c6f772d6c6576656c2063616c6c206661696c6564815250856001600160a01b0316614b709092919063ffffffff16565b805190915015613a0c5780806020019051810190614b119190614fe1565b613a0c5760405162461bcd60e51b815260206004820152602a60248201527f5361666545524332303a204552433230206f7065726174696f6e20646964206e6044820152691bdd081cdd58d8d9595960b21b6064820152608401610cc5565b60606120d18484600085856001600160a01b0385163b614bd25760405162461bcd60e51b815260206004820152601d60248201527f416464726573733a2063616c6c20746f206e6f6e2d636f6e74726163740000006044820152606401610cc5565b600080866001600160a01b03168587604051614bee91906150bf565b60006040518083038185875af1925050503d8060008114614c2b576040519150601f19603f3d011682016040523d82523d6000602084013e614c30565b606091505b509150915061328c82828660608315614c4a575081611a78565b825115614c5a5782518084602001fd5b8160405162461bcd60e51b8152600401610cc59190614d39565b828054614c8090614fa6565b90600052602060002090601f016020900481019282614ca25760008555614ce8565b82601f10614cbb57805160ff1916838001178555614ce8565b82800160010185558215614ce8579182015b82811115614ce8578251825591602001919060010190614ccd565b50614cf4929150614cf8565b5090565b5b80821115614cf45760008155600101614cf9565b60005b83811015614d28578181015183820152602001614d10565b838111156125f25750506000910152565b6020815260008251806020840152614d58816040850160208701614d0d565b601f01601f19169190910160400192915050565b600060208284031215614d7e57600080fd5b5035919050565b6001600160a01b0381168114614d9a57600080fd5b50565b80356110b081614d85565b60008060408385031215614dbb57600080fd5b8235614dc681614d85565b946020939093013593505050565b600060208284031215614de657600080fd5b8135611a7881614d85565b600080600060608486031215614e0657600080fd5b8335614e1181614d85565b95602085013595506040909401359392505050565b634e487b7160e01b600052604160045260246000fd5b60008060008060808587031215614e5257600080fd5b84356001600160401b0380821115614e6957600080fd5b818701915087601f830112614e7d57600080fd5b813581811115614e8f57614e8f614e26565b604051601f8201601f19908116603f01168101908382118183101715614eb757614eb7614e26565b816040528281528a6020848701011115614ed057600080fd5b826020860160208301376000602084830101528098505050505050614ef760208601614d9d565b925060408501359150614f0c60608601614d9d565b905092959194509250565b60008060408385031215614f2a57600080fd5b50508035926020909101359150565b600080600060608486031215614f4e57600080fd5b505081359360208301359350604090920135919050565b600080600060608486031215614f7a57600080fd5b8335614f8581614d85565b92506020840135614f9581614d85565b929592945050506040919091013590565b600181811c90821680614fba57607f821691505b60208210811415614fdb57634e487b7160e01b600052602260045260246000fd5b50919050565b600060208284031215614ff357600080fd5b81518015158114611a7857600080fd5b60006020828403121561501557600080fd5b5051919050565b634e487b7160e01b600052601160045260246000fd5b600082198211156150455761504561501c565b500190565b60006020828403121561505c57600080fd5b8151611a7881614d85565b6000828210156150795761507961501c565b500390565b60008160001904831182151516156150985761509861501c565b500290565b6000826150ba57634e487b7160e01b600052601260045260246000fd5b500490565b600082516150d1818460208701614d0d565b919091019291505056fe6e6f7420656e6f7567682066756e647320776572652077697468647261776e2066726f6d2074686520706f6f6c5769746864726177616c4665654465637265617365506572696f640000000000756e617574686f72697a65642061636365737300000000000000000000000000646561646c696e6520686173206e6f74206265656e207265616368656420796574746865206d696e7465722061646472657373206f6620746865204c5020746f6b656e20616e642074686520706f6f6c206164647265737320646f206e6f74206d6174636876616c7565206d75737420626520646966666572656e7420746f206578697374696e672076616c7565a264697066735822122074308b14dd49f58b1ea4e82e45edab4f7ac5a79e9139abe2f66c488e6fe0ed4664736f6c63430008090033",
  "linkReferences": {},
  "deployedLinkReferences": {}
}