{
  "_format": "hh-sol-artifact-1",
  "contractName": "MockStrategySwapper",
  "sourceName": "contracts/strategies/MockStrategySwapper.sol",
  "abi": [
    {
      "inputs": [
        {
          "internalType": "address",
          "name": "addressProvider_",
          "type": "address"
        },
        {
          "internalType": "uint256",
          "name": "slippageTolerance_",
          "type": "uint256"
        }
      ],
      "stateMutability": "nonpayable",
      "type": "constructor"
    },
    {
      "anonymous": false,
      "inputs": [
        {
          "indexed": false,
          "internalType": "address",
          "name": "token",
          "type": "address"
        },
        {
          "indexed": false,
          "internalType": "address",
          "name": "curvePool",
          "type": "address"
        }
      ],
      "name": "SetCurvePool",
      "type": "event"
    },
    {
      "anonymous": false,
      "inputs": [
        {
          "indexed": false,
          "internalType": "uint256",
          "name": "value",
          "type": "uint256"
        }
      ],
      "name": "SetSlippageTolerance",
      "type": "event"
    },
    {
      "anonymous": false,
      "inputs": [
        {
          "indexed": false,
          "internalType": "address",
          "name": "token",
          "type": "address"
        },
        {
          "indexed": false,
          "internalType": "bool",
          "name": "swapViaUniswap",
          "type": "bool"
        }
      ],
      "name": "SetSwapViaUniswap",
      "type": "event"
    },
    {
      "inputs": [
        {
          "internalType": "address",
          "name": "tokenIn_",
          "type": "address"
        },
        {
          "internalType": "address",
          "name": "tokenOut_",
          "type": "address"
        },
        {
          "internalType": "uint256",
          "name": "amountIn_",
          "type": "uint256"
        }
      ],
      "name": "amountOut",
      "outputs": [
        {
          "internalType": "uint256",
          "name": "",
          "type": "uint256"
        }
      ],
      "stateMutability": "view",
      "type": "function"
    },
    {
      "inputs": [
        {
          "internalType": "address",
          "name": "",
          "type": "address"
        }
      ],
      "name": "curvePools",
      "outputs": [
        {
          "internalType": "contract ICurveSwapEth",
          "name": "",
          "type": "address"
        }
      ],
      "stateMutability": "view",
      "type": "function"
    },
    {
      "inputs": [
        {
          "internalType": "uint256",
          "name": "slippageTolerance_",
          "type": "uint256"
        }
      ],
      "name": "overrideSlippageTolerance",
      "outputs": [],
      "stateMutability": "nonpayable",
      "type": "function"
    },
    {
      "inputs": [],
      "name": "roleManager",
      "outputs": [
        {
          "internalType": "contract IRoleManager",
          "name": "",
          "type": "address"
        }
      ],
      "stateMutability": "view",
      "type": "function"
    },
    {
      "inputs": [
        {
          "internalType": "address",
          "name": "token_",
          "type": "address"
        },
        {
          "internalType": "address",
          "name": "curvePool_",
          "type": "address"
        }
      ],
      "name": "setCurvePool",
      "outputs": [],
      "stateMutability": "nonpayable",
      "type": "function"
    },
    {
      "inputs": [
        {
          "internalType": "uint256",
          "name": "slippageTolerance_",
          "type": "uint256"
        }
      ],
      "name": "setSlippageTolerance",
      "outputs": [],
      "stateMutability": "nonpayable",
      "type": "function"
    },
    {
      "inputs": [
        {
          "internalType": "address",
          "name": "token_",
          "type": "address"
        },
        {
          "internalType": "bool",
          "name": "swapViaUniswap_",
          "type": "bool"
        }
      ],
      "name": "setSwapViaUniswap",
      "outputs": [],
      "stateMutability": "nonpayable",
      "type": "function"
    },
    {
      "inputs": [],
      "name": "slippageTolerance",
      "outputs": [
        {
          "internalType": "uint256",
          "name": "",
          "type": "uint256"
        }
      ],
      "stateMutability": "view",
      "type": "function"
    },
    {
      "inputs": [
        {
          "internalType": "address",
          "name": "token_",
          "type": "address"
        }
      ],
      "name": "swapAllForWeth",
      "outputs": [],
      "stateMutability": "nonpayable",
      "type": "function"
    },
    {
      "inputs": [
        {
          "internalType": "address",
          "name": "token_",
          "type": "address"
        }
      ],
      "name": "swapAllWethForToken",
      "outputs": [],
      "stateMutability": "nonpayable",
      "type": "function"
    },
    {
      "inputs": [
        {
          "internalType": "address",
          "name": "token_",
          "type": "address"
        },
        {
          "internalType": "uint256",
          "name": "amount_",
          "type": "uint256"
        }
      ],
      "name": "swapForWeth",
      "outputs": [],
      "stateMutability": "nonpayable",
      "type": "function"
    },
    {
      "inputs": [
        {
          "internalType": "address",
          "name": "",
          "type": "address"
        }
      ],
      "name": "swapViaUniswap",
      "outputs": [
        {
          "internalType": "bool",
          "name": "",
          "type": "bool"
        }
      ],
      "stateMutability": "view",
      "type": "function"
    },
    {
      "stateMutability": "payable",
      "type": "receive"
    }
  ],
  "bytecode": "0x60c06040523480156200001157600080fd5b506040516200246238038062002462833981016040819052620000349162000125565b818162000055826001600160a01b03166200007660201b620010ef1760201c565b6001600160a01b039081166080529190911660a05260005550620001799050565b6040516321f8a72160e01b81526a3937b632a6b0b730b3b2b960a91b60048201526000906001600160a01b038316906321f8a7219060240160206040518083038186803b158015620000c757600080fd5b505afa158015620000dc573d6000803e3d6000fd5b505050506040513d601f19601f8201168201806040525081019062000102919062000154565b92915050565b80516001600160a01b03811681146200012057600080fd5b919050565b600080604083850312156200013957600080fd5b620001448362000108565b9150602083015190509250929050565b6000602082840312156200016757600080fd5b620001728262000108565b9392505050565b60805160a0516122a8620001ba600039600081816116df015261184101526000818160c5015281816102a00152818161054901526106fc01526122a86000f3fe6080604052600436106100aa5760003560e01c80636720de0a116100645780636720de0a146101b257806373bf5dea146101d2578063a7888718146101f2578063b990ecf614610228578063bfb05d6b14610248578063d03153aa1461028857600080fd5b8062435da5146100b6578063117da1ee1461010257806321cce12f1461012457806325229d181461015257806354b4dc111461017257806358fd9be01461019257600080fd5b366100b157005b600080fd5b3480156100c257600080fd5b507f00000000000000000000000000000000000000000000000000000000000000005b6040516001600160a01b0390911681526020015b60405180910390f35b34801561010e57600080fd5b5061012261011d366004611d64565b61029e565b005b34801561013057600080fd5b5061014461013f366004611d92565b610495565b6040519081526020016100f9565b34801561015e57600080fd5b5061012261016d366004611dd3565b6104c7565b34801561017e57600080fd5b5061012261018d366004611dfe565b610547565b34801561019e57600080fd5b506101226101ad366004611e37565b6106fa565b3480156101be57600080fd5b506101226101cd366004611d64565b600055565b3480156101de57600080fd5b506101226101ed366004611e65565b610926565b3480156101fe57600080fd5b506100e561020d366004611dd3565b6001602052600090815260409020546001600160a01b031681565b34801561023457600080fd5b50610122610243366004611dd3565b610c22565b34801561025457600080fd5b50610278610263366004611dd3565b60026020526000908152604090205460ff1681565b60405190151581526020016100f9565b34801561029457600080fd5b5061014460005481565b7f0000000000000000000000000000000000000000000000000000000000000000604051632474521560e21b815269676f7665726e616e636560b01b60048201523360248201526001600160a01b0391909116906391d148549060440160206040518083038186803b15801561031357600080fd5b505afa158015610327573d6000803e3d6000fd5b505050506040513d601f19601f8201168201806040525081019061034b9190611e91565b60405180604001604052806013815260200172756e617574686f72697a65642061636365737360681b8152509061039e5760405162461bcd60e51b81526004016103959190611eda565b60405180910390fd5b5060408051808201909152601a81527f496e76616c696420736c69707061676520746f6c6572616e63650000000000006020820152670de0b6b3a76400008211156103fc5760405162461bcd60e51b81526004016103959190611eda565b5060408051808201909152601a81527f496e76616c696420736c69707061676520746f6c6572616e63650000000000006020820152670b1a2bc2ec50000082116104595760405162461bcd60e51b81526004016103959190611eda565b5060008190556040518181527fe4a7fd2711237e77309a9a16ff636a748dbf956fd91f6e6da800d9302f441a799060200160405180910390a150565b6000816104a4575060006104c0565b60006104b0858461117e565b90506104bc84826113d0565b9150505b9392505050565b6040516370a0823160e01b81523360048201526105449082906001600160a01b038216906370a082319060240160206040518083038186803b15801561050c57600080fd5b505afa158015610520573d6000803e3d6000fd5b505050506040513d601f19601f820116820180604052508101906101ed9190611f0d565b50565b7f0000000000000000000000000000000000000000000000000000000000000000604051632474521560e21b815269676f7665726e616e636560b01b60048201523360248201526001600160a01b0391909116906391d148549060440160206040518083038186803b1580156105bc57600080fd5b505afa1580156105d0573d6000803e3d6000fd5b505050506040513d601f19601f820116820180604052508101906105f49190611e91565b60405180604001604052806013815260200172756e617574686f72697a65642061636365737360681b8152509061063e5760405162461bcd60e51b81526004016103959190611eda565b506040805180820190915260188152771e995c9bc81859191c995cdcc81b9bdd08185b1b1bddd95960421b60208201526001600160a01b0383166106955760405162461bcd60e51b81526004016103959190611eda565b506001600160a01b038216600081815260026020908152604091829020805460ff19168515159081179091558251938452908301527f068e81edf54f4fd12885a0fb373370f20859324cbf4788625505f01d4b4030cf91015b60405180910390a15050565b7f0000000000000000000000000000000000000000000000000000000000000000604051632474521560e21b815269676f7665726e616e636560b01b60048201523360248201526001600160a01b0391909116906391d148549060440160206040518083038186803b15801561076f57600080fd5b505afa158015610783573d6000803e3d6000fd5b505050506040513d601f19601f820116820180604052508101906107a79190611e91565b60405180604001604052806013815260200172756e617574686f72697a65642061636365737360681b815250906107f15760405162461bcd60e51b81526004016103959190611eda565b506040805180820190915260188152771e995c9bc81859191c995cdcc81b9bdd08185b1b1bddd95960421b60208201526001600160a01b0383166108485760405162461bcd60e51b81526004016103959190611eda565b506001600160a01b03808316600090815260016020908152604091829020548251808401909352601883527f73616d652061646472657373206e6f7420616c6c6f7765640000000000000000918301919091529091838116911614156108c15760405162461bcd60e51b81526004016103959190611eda565b506001600160a01b0382811660008181526001602090815260409182902080546001600160a01b031916948616948517905581519283528201929092527fc99581e03a01bc0e74719af7085e6d62b1a853b511cb673db6c840eb4ec648ca91016106ee565b8061092f575050565b6109446001600160a01b0383163330846114fc565b6001600160a01b038083166000908152600160205260409020541673c02aaa39b223fe8d0a0e5c4f27ead9083c756cc28115610aaa576109848483611567565b600080610991848761160e565b91509150836001600160a01b0316635b41b9088284886109b18a8c6116c6565b6040516001600160e01b031960e087901b1681526004810194909452602484019290925260448301526064820152608401600060405180830381600087803b1580156109fc57600080fd5b505af1158015610a10573d6000803e3d6000fd5b50506040516370a0823160e01b8152306004820152610aa292503391506001600160a01b038616906370a082319060240160206040518083038186803b158015610a5957600080fd5b505afa158015610a6d573d6000803e3d6000fd5b505050506040513d601f19601f82011682018060405250810190610a919190611f0d565b6001600160a01b038616919061179e565b505050505050565b6040805160028082526060820183526000926020830190803683370190505090508481600081518110610adf57610adf611f3c565b60200260200101906001600160a01b031690816001600160a01b0316815250508181600181518110610b1357610b13611f3c565b60200260200101906001600160a01b031690816001600160a01b0316815250506000610b3e866117d3565b9050610b4a8682611567565b6000816001600160a01b03166338ed173987610b66898b6116c6565b8630426040518663ffffffff1660e01b8152600401610b89959493929190611f96565b600060405180830381600087803b158015610ba357600080fd5b505af1158015610bb7573d6000803e3d6000fd5b505050506040513d6000823e601f3d908101601f19168201604052610bdf9190810190611fd2565b600181518110610bf157610bf1611f3c565b60200260200101519050610c193382866001600160a01b031661179e9092919063ffffffff16565b50505050505050565b6040516370a0823160e01b815233600482015273c02aaa39b223fe8d0a0e5c4f27ead9083c756cc29060009082906370a082319060240160206040518083038186803b158015610c7157600080fd5b505afa158015610c85573d6000803e3d6000fd5b505050506040513d601f19601f82011682018060405250810190610ca99190611f0d565b905080610cb557505050565b6040516323b872dd60e01b8152336004820152306024820152604481018290526001600160a01b038316906323b872dd90606401602060405180830381600087803b158015610d0357600080fd5b505af1158015610d17573d6000803e3d6000fd5b505050506040513d601f19601f82011682018060405250810190610d3b9190611e91565b506001600160a01b038316610e3757604051632e1a7d4d60e01b8152600481018290526001600160a01b03831690632e1a7d4d90602401600060405180830381600087803b158015610d8c57600080fd5b505af1158015610da0573d6000803e3d6000fd5b50506040516000925033915083908381818185875af1925050503d8060008114610de6576040519150601f19603f3d011682016040523d82523d6000602084013e610deb565b606091505b5050905080610e315760405162461bcd60e51b81526020600482015260126024820152710ccc2d2d8cac840e8de40e6cadcc840cae8d60731b6044820152606401610395565b50505050565b6001600160a01b03808416600090815260016020526040902054168015610f8057610e628382611567565b600080610e6f838761160e565b91509150826001600160a01b0316635b41b908838387610e8f898c611828565b6040516001600160e01b031960e087901b1681526004810194909452602484019290925260448301526064820152608401600060405180830381600087803b158015610eda57600080fd5b505af1158015610eee573d6000803e3d6000fd5b50506040516370a0823160e01b8152306004820152610aa292503391506001600160a01b038916906370a082319060240160206040518083038186803b158015610f3757600080fd5b505afa158015610f4b573d6000803e3d6000fd5b505050506040513d601f19601f82011682018060405250810190610f6f9190611f0d565b6001600160a01b038916919061179e565b6040805160028082526060820183526000926020830190803683370190505090508381600081518110610fb557610fb5611f3c565b60200260200101906001600160a01b031690816001600160a01b0316815250508481600181518110610fe957610fe9611f3c565b60200260200101906001600160a01b031690816001600160a01b0316815250506000611014866117d3565b90506110208582611567565b6000816001600160a01b03166338ed17398661103c888b611828565b8630426040518663ffffffff1660e01b815260040161105f959493929190611f96565b600060405180830381600087803b15801561107957600080fd5b505af115801561108d573d6000803e3d6000fd5b505050506040513d6000823e601f3d908101601f191682016040526110b59190810190611fd2565b6001815181106110c7576110c7611f3c565b60200260200101519050610c193382896001600160a01b031661179e9092919063ffffffff16565b6040516321f8a72160e01b81526a3937b632a6b0b730b3b2b960a91b60048201526000906001600160a01b038316906321f8a721906024015b60206040518083038186803b15801561114057600080fd5b505afa158015611154573d6000803e3d6000fd5b505050506040513d601f19601f820116820180604052508101906111789190612090565b92915050565b60008161118d57506000611178565b73c02aaa39b223fe8d0a0e5c4f27ead9083c756cc26001600160a01b0384168114156111bc5782915050611178565b6001600160a01b0384166111d35782915050611178565b6001600160a01b0380851660009081526001602052604090205416801561129857600080611201838861160e565b60405163556d6e9f60e01b815260048101829052602481018390526044810189905291935091506001600160a01b0384169063556d6e9f906064015b60206040518083038186803b15801561125557600080fd5b505afa158015611269573d6000803e3d6000fd5b505050506040513d601f19601f8201168201806040525081019061128d9190611f0d565b945050505050611178565b60408051600280825260608201835260009260208301908036833701905050905085816000815181106112cd576112cd611f3c565b60200260200101906001600160a01b031690816001600160a01b031681525050828160018151811061130157611301611f3c565b60200260200101906001600160a01b031690816001600160a01b03168152505061132a866117d3565b6001600160a01b031663d06ca61f86836040518363ffffffff1660e01b81526004016113579291906120ad565b60006040518083038186803b15801561136f57600080fd5b505afa158015611383573d6000803e3d6000fd5b505050506040513d6000823e601f3d908101601f191682016040526113ab9190810190611fd2565b6001815181106113bd576113bd611f3c565b6020026020010151935050505092915050565b6000816113df57506000611178565b73c02aaa39b223fe8d0a0e5c4f27ead9083c756cc26001600160a01b03841681141561140e5782915050611178565b6001600160a01b0384166114255782915050611178565b6001600160a01b0380851660009081526001602052604090205416801561149357600080611453838861160e565b60405163556d6e9f60e01b815260048101839052602481018290526044810189905291935091506001600160a01b0384169063556d6e9f9060640161123d565b60408051600280825260608201835260009260208301908036833701905050905082816000815181106114c8576114c8611f3c565b60200260200101906001600160a01b031690816001600160a01b031681525050858160018151811061130157611301611f3c565b6040516001600160a01b0380851660248301528316604482015260648101829052610e319085906323b872dd60e01b906084015b60408051601f198184030181529190526020810180516001600160e01b03166001600160e01b0319909316929092179091526118fa565b604051636eb1769f60e11b81523060048201526001600160a01b0382811660248301526000919084169063dd62ed3e9060440160206040518083038186803b1580156115b257600080fd5b505afa1580156115c6573d6000803e3d6000fd5b505050506040513d601f19601f820116820180604052508101906115ea9190611f0d565b11156115f4575050565b61160a6001600160a01b038316826000196119cc565b5050565b600080826001600160a01b0316846001600160a01b031663c661065760016040518263ffffffff1660e01b815260040161164a91815260200190565b60206040518083038186803b15801561166257600080fd5b505afa158015611676573d6000803e3d6000fd5b505050506040513d601f19601f8201168201806040525081019061169a9190612090565b6001600160a01b0316146116b157600160006116b6565b600060015b60ff918216969116945092505050565b60006116d182611af0565b61179460005461178e61170c7f00000000000000000000000000000000000000000000000000000000000000006001600160a01b0316611b79565b60405163e5ec9db960e01b81526001600160a01b038881166004830152919091169063e5ec9db99060240160206040518083038186803b15801561174f57600080fd5b505afa158015611763573d6000803e3d6000fd5b505050506040513d601f19601f820116820180604052508101906117879190611f0d565b8790611bb9565b90611bb9565b6104c091906120dc565b6040516001600160a01b0383166024820152604481018290526117ce90849063a9059cbb60e01b90606401611530565b505050565b6001600160a01b03811660009081526002602052604081205460ff1661180d5773d9e1ce17f2641f24ae83637ab66a2cca9c378b9f611178565b737a250d5630b4cf539739df2c5dacb4c659f2488d92915050565b600061183382611af0565b6118f060005461178e61186e7f00000000000000000000000000000000000000000000000000000000000000006001600160a01b0316611b79565b60405163e5ec9db960e01b81526001600160a01b038881166004830152919091169063e5ec9db99060240160206040518083038186803b1580156118b157600080fd5b505afa1580156118c5573d6000803e3d6000fd5b505050506040513d601f19601f820116820180604052508101906118e99190611f0d565b8790611bce565b6104c091906120fb565b600061194f826040518060400160405280602081526020017f5361666545524332303a206c6f772d6c6576656c2063616c6c206661696c6564815250856001600160a01b0316611be39092919063ffffffff16565b8051909150156117ce578080602001905181019061196d9190611e91565b6117ce5760405162461bcd60e51b815260206004820152602a60248201527f5361666545524332303a204552433230206f7065726174696f6e20646964206e6044820152691bdd081cdd58d8d9595960b21b6064820152608401610395565b801580611a555750604051636eb1769f60e11b81523060048201526001600160a01b03838116602483015284169063dd62ed3e9060440160206040518083038186803b158015611a1b57600080fd5b505afa158015611a2f573d6000803e3d6000fd5b505050506040513d601f19601f82011682018060405250810190611a539190611f0d565b155b611ac05760405162461bcd60e51b815260206004820152603660248201527f5361666545524332303a20617070726f76652066726f6d206e6f6e2d7a65726f60448201527520746f206e6f6e2d7a65726f20616c6c6f77616e636560501b6064820152608401610395565b6040516001600160a01b0383166024820152604481018290526117ce90849063095ea7b360e01b90606401611530565b6000816001600160a01b031663313ce5676040518163ffffffff1660e01b815260040160206040518083038186803b158015611b2b57600080fd5b505afa158015611b3f573d6000803e3d6000fd5b505050506040513d601f19601f82011682018060405250810190611b63919061211d565b611b6e906012612140565b61117890600a612247565b6040516321f8a72160e01b81526d37b930b1b632a83937bb34b232b960911b60048201526000906001600160a01b038316906321f8a72190602401611128565b6000670de0b6b3a76400006118f083856120dc565b6000816118f0670de0b6b3a7640000856120dc565b6060611bf28484600085611bfa565b949350505050565b606082471015611c5b5760405162461bcd60e51b815260206004820152602660248201527f416464726573733a20696e73756666696369656e742062616c616e636520666f6044820152651c8818d85b1b60d21b6064820152608401610395565b6001600160a01b0385163b611cb25760405162461bcd60e51b815260206004820152601d60248201527f416464726573733a2063616c6c20746f206e6f6e2d636f6e74726163740000006044820152606401610395565b600080866001600160a01b03168587604051611cce9190612256565b60006040518083038185875af1925050503d8060008114611d0b576040519150601f19603f3d011682016040523d82523d6000602084013e611d10565b606091505b5091509150611d20828286611d2b565b979650505050505050565b60608315611d3a5750816104c0565b825115611d4a5782518084602001fd5b8160405162461bcd60e51b81526004016103959190611eda565b600060208284031215611d7657600080fd5b5035919050565b6001600160a01b038116811461054457600080fd5b600080600060608486031215611da757600080fd5b8335611db281611d7d565b92506020840135611dc281611d7d565b929592945050506040919091013590565b600060208284031215611de557600080fd5b81356104c081611d7d565b801515811461054457600080fd5b60008060408385031215611e1157600080fd5b8235611e1c81611d7d565b91506020830135611e2c81611df0565b809150509250929050565b60008060408385031215611e4a57600080fd5b8235611e5581611d7d565b91506020830135611e2c81611d7d565b60008060408385031215611e7857600080fd5b8235611e8381611d7d565b946020939093013593505050565b600060208284031215611ea357600080fd5b81516104c081611df0565b60005b83811015611ec9578181015183820152602001611eb1565b83811115610e315750506000910152565b6020815260008251806020840152611ef9816040850160208701611eae565b601f01601f19169190910160400192915050565b600060208284031215611f1f57600080fd5b5051919050565b634e487b7160e01b600052604160045260246000fd5b634e487b7160e01b600052603260045260246000fd5b600081518084526020808501945080840160005b83811015611f8b5781516001600160a01b031687529582019590820190600101611f66565b509495945050505050565b85815284602082015260a060408201526000611fb560a0830186611f52565b6001600160a01b0394909416606083015250608001529392505050565b60006020808385031215611fe557600080fd5b825167ffffffffffffffff80821115611ffd57600080fd5b818501915085601f83011261201157600080fd5b81518181111561202357612023611f26565b8060051b604051601f19603f8301168101818110858211171561204857612048611f26565b60405291825284820192508381018501918883111561206657600080fd5b938501935b828510156120845784518452938501939285019261206b565b98975050505050505050565b6000602082840312156120a257600080fd5b81516104c081611d7d565b828152604060208201526000611bf26040830184611f52565b634e487b7160e01b600052601160045260246000fd5b60008160001904831182151516156120f6576120f66120c6565b500290565b60008261211857634e487b7160e01b600052601260045260246000fd5b500490565b60006020828403121561212f57600080fd5b815160ff811681146104c057600080fd5b600060ff821660ff84168082101561215a5761215a6120c6565b90039392505050565b600181815b8085111561219e578160001904821115612184576121846120c6565b8085161561219157918102915b93841c9390800290612168565b509250929050565b6000826121b557506001611178565b816121c257506000611178565b81600181146121d857600281146121e2576121fe565b6001915050611178565b60ff8411156121f3576121f36120c6565b50506001821b611178565b5060208310610133831016604e8410600b8410161715612221575081810a611178565b61222b8383612163565b806000190482111561223f5761223f6120c6565b029392505050565b60006104c060ff8416836121a6565b60008251612268818460208701611eae565b919091019291505056fea26469706673582212205beaf0ad499d050815f3a6d8787a7fa3f1ad19b05b5523cbe537a893f0ef319164736f6c63430008090033",
  "linkReferences": {},
  "deployedLinkReferences": {}
}