{
  "_format": "hh-sol-artifact-1",
  "contractName": "CompoundMultiOracle",
  "sourceName": "contracts/oracles/compound/CompoundMultiOracle.sol",
  "abi": [
    {
      "anonymous": false,
      "inputs": [
        {
          "indexed": true,
          "internalType": "bytes4",
          "name": "role",
          "type": "bytes4"
        },
        {
          "indexed": true,
          "internalType": "bytes4",
          "name": "newAdminRole",
          "type": "bytes4"
        }
      ],
      "name": "RoleAdminChanged",
      "type": "event"
    },
    {
      "anonymous": false,
      "inputs": [
        {
          "indexed": true,
          "internalType": "bytes4",
          "name": "role",
          "type": "bytes4"
        },
        {
          "indexed": true,
          "internalType": "address",
          "name": "account",
          "type": "address"
        },
        {
          "indexed": true,
          "internalType": "address",
          "name": "sender",
          "type": "address"
        }
      ],
      "name": "RoleGranted",
      "type": "event"
    },
    {
      "anonymous": false,
      "inputs": [
        {
          "indexed": true,
          "internalType": "bytes4",
          "name": "role",
          "type": "bytes4"
        },
        {
          "indexed": true,
          "internalType": "address",
          "name": "account",
          "type": "address"
        },
        {
          "indexed": true,
          "internalType": "address",
          "name": "sender",
          "type": "address"
        }
      ],
      "name": "RoleRevoked",
      "type": "event"
    },
    {
      "anonymous": false,
      "inputs": [
        {
          "indexed": true,
          "internalType": "bytes6",
          "name": "baseId",
          "type": "bytes6"
        },
        {
          "indexed": true,
          "internalType": "bytes6",
          "name": "kind",
          "type": "bytes6"
        },
        {
          "indexed": true,
          "internalType": "address",
          "name": "source",
          "type": "address"
        }
      ],
      "name": "SourceSet",
      "type": "event"
    },
    {
      "inputs": [],
      "name": "LOCK",
      "outputs": [
        {
          "internalType": "bytes4",
          "name": "",
          "type": "bytes4"
        }
      ],
      "stateMutability": "view",
      "type": "function"
    },
    {
      "inputs": [],
      "name": "ROOT",
      "outputs": [
        {
          "internalType": "bytes4",
          "name": "",
          "type": "bytes4"
        }
      ],
      "stateMutability": "view",
      "type": "function"
    },
    {
      "inputs": [],
      "name": "SCALE_FACTOR",
      "outputs": [
        {
          "internalType": "uint256",
          "name": "",
          "type": "uint256"
        }
      ],
      "stateMutability": "view",
      "type": "function"
    },
    {
      "inputs": [],
      "name": "decimals",
      "outputs": [
        {
          "internalType": "uint8",
          "name": "",
          "type": "uint8"
        }
      ],
      "stateMutability": "view",
      "type": "function"
    },
    {
      "inputs": [
        {
          "internalType": "bytes32",
          "name": "base",
          "type": "bytes32"
        },
        {
          "internalType": "bytes32",
          "name": "kind",
          "type": "bytes32"
        },
        {
          "internalType": "uint256",
          "name": "amount",
          "type": "uint256"
        }
      ],
      "name": "get",
      "outputs": [
        {
          "internalType": "uint256",
          "name": "value",
          "type": "uint256"
        },
        {
          "internalType": "uint256",
          "name": "updateTime",
          "type": "uint256"
        }
      ],
      "stateMutability": "nonpayable",
      "type": "function"
    },
    {
      "inputs": [
        {
          "internalType": "bytes4",
          "name": "role",
          "type": "bytes4"
        }
      ],
      "name": "getRoleAdmin",
      "outputs": [
        {
          "internalType": "bytes4",
          "name": "",
          "type": "bytes4"
        }
      ],
      "stateMutability": "view",
      "type": "function"
    },
    {
      "inputs": [
        {
          "internalType": "bytes4",
          "name": "role",
          "type": "bytes4"
        },
        {
          "internalType": "address",
          "name": "account",
          "type": "address"
        }
      ],
      "name": "grantRole",
      "outputs": [],
      "stateMutability": "nonpayable",
      "type": "function"
    },
    {
      "inputs": [
        {
          "internalType": "bytes4[]",
          "name": "roles",
          "type": "bytes4[]"
        },
        {
          "internalType": "address",
          "name": "account",
          "type": "address"
        }
      ],
      "name": "grantRoles",
      "outputs": [],
      "stateMutability": "nonpayable",
      "type": "function"
    },
    {
      "inputs": [
        {
          "internalType": "bytes4",
          "name": "role",
          "type": "bytes4"
        },
        {
          "internalType": "address",
          "name": "account",
          "type": "address"
        }
      ],
      "name": "hasRole",
      "outputs": [
        {
          "internalType": "bool",
          "name": "",
          "type": "bool"
        }
      ],
      "stateMutability": "view",
      "type": "function"
    },
    {
      "inputs": [
        {
          "internalType": "bytes4",
          "name": "role",
          "type": "bytes4"
        }
      ],
      "name": "lockRole",
      "outputs": [],
      "stateMutability": "nonpayable",
      "type": "function"
    },
    {
      "inputs": [
        {
          "internalType": "bytes32",
          "name": "base",
          "type": "bytes32"
        },
        {
          "internalType": "bytes32",
          "name": "kind",
          "type": "bytes32"
        },
        {
          "internalType": "uint256",
          "name": "amount",
          "type": "uint256"
        }
      ],
      "name": "peek",
      "outputs": [
        {
          "internalType": "uint256",
          "name": "value",
          "type": "uint256"
        },
        {
          "internalType": "uint256",
          "name": "updateTime",
          "type": "uint256"
        }
      ],
      "stateMutability": "view",
      "type": "function"
    },
    {
      "inputs": [
        {
          "internalType": "bytes4",
          "name": "role",
          "type": "bytes4"
        },
        {
          "internalType": "address",
          "name": "account",
          "type": "address"
        }
      ],
      "name": "renounceRole",
      "outputs": [],
      "stateMutability": "nonpayable",
      "type": "function"
    },
    {
      "inputs": [
        {
          "internalType": "bytes4",
          "name": "role",
          "type": "bytes4"
        },
        {
          "internalType": "address",
          "name": "account",
          "type": "address"
        }
      ],
      "name": "revokeRole",
      "outputs": [],
      "stateMutability": "nonpayable",
      "type": "function"
    },
    {
      "inputs": [
        {
          "internalType": "bytes4[]",
          "name": "roles",
          "type": "bytes4[]"
        },
        {
          "internalType": "address",
          "name": "account",
          "type": "address"
        }
      ],
      "name": "revokeRoles",
      "outputs": [],
      "stateMutability": "nonpayable",
      "type": "function"
    },
    {
      "inputs": [
        {
          "internalType": "bytes4",
          "name": "role",
          "type": "bytes4"
        },
        {
          "internalType": "bytes4",
          "name": "adminRole",
          "type": "bytes4"
        }
      ],
      "name": "setRoleAdmin",
      "outputs": [],
      "stateMutability": "nonpayable",
      "type": "function"
    },
    {
      "inputs": [
        {
          "internalType": "bytes6",
          "name": "base",
          "type": "bytes6"
        },
        {
          "internalType": "bytes6",
          "name": "kind",
          "type": "bytes6"
        },
        {
          "internalType": "address",
          "name": "source",
          "type": "address"
        }
      ],
      "name": "setSource",
      "outputs": [],
      "stateMutability": "nonpayable",
      "type": "function"
    },
    {
      "inputs": [
        {
          "internalType": "bytes6[]",
          "name": "bases",
          "type": "bytes6[]"
        },
        {
          "internalType": "bytes6[]",
          "name": "kinds",
          "type": "bytes6[]"
        },
        {
          "internalType": "address[]",
          "name": "sources_",
          "type": "address[]"
        }
      ],
      "name": "setSources",
      "outputs": [],
      "stateMutability": "nonpayable",
      "type": "function"
    },
    {
      "inputs": [
        {
          "internalType": "bytes6",
          "name": "",
          "type": "bytes6"
        },
        {
          "internalType": "bytes6",
          "name": "",
          "type": "bytes6"
        }
      ],
      "name": "sources",
      "outputs": [
        {
          "internalType": "address",
          "name": "",
          "type": "address"
        }
      ],
      "stateMutability": "view",
      "type": "function"
    }
  ],
  "bytecode": "0x60806040526263686960e81b600155637261746560e01b6002553480156200002657600080fd5b50620000346000336200004e565b620000486001600160e01b031980620000c3565b6200019c565b6200005a828262000145565b620000bf576001600160e01b031982166000818152602081815260408083206001600160a01b0386168085529252808320805460ff1916600117905551339391927fe6231789d19137da31d0550f4ba9ee379020a8cfb64cb79bf1790c996d2e616591a45b5050565b6001600160e01b03198116620000d9836200017a565b6001600160e01b03191614620000bf576001600160e01b0319828116600081815260208190526040808220600101805463ffffffff191660e087901c17905551928416927fd348e2220a50b4500ec353f6e802d2f14dd1b5d6786148fd1bbcc570bf92d4739190a35050565b6001600160e01b031982166000908152602081815260408083206001600160a01b038516845290915290205460ff1692915050565b6001600160e01b03191660009081526020819052604090206001015460e01b90565b61147b80620001ac6000396000f3fe608060405234801561001057600080fd5b50600436106101365760003560e01c806385f5f156116100b2578063ad82110f11610081578063ce4b5bbe11610066578063ce4b5bbe14610271578063de02cde714610286578063effae3531461029957610136565b8063ad82110f1461024b578063ae93c1b51461025e57610136565b806385f5f156146101fd57806392b45d9c146102105780639f1ed3c014610223578063a4f0d7d01461024357610136565b8063559742d9116101095780635ba5e9f0116100ee5780635ba5e9f0146101d757806368284fd41461018e578063687f0e4c146101ea57610136565b8063559742d9146101af5780635909c12f146101c257610136565b806310ab94321461013b578063313ce5671461016457806344faded014610179578063462f9a281461018e575b600080fd5b61014e610149366004610ffc565b6102ac565b60405161015b91906110fb565b60405180910390f35b61016c6102bf565b60405161015b9190611302565b61018c610187366004610ffc565b6102c4565b005b6101a161019c366004610fb7565b61030b565b60405161015b9291906112f4565b61018c6101bd366004610fe2565b610356565b6101ca6103ad565b60405161015b9190611106565b6101ca6101e5366004610fe2565b6103b2565b61018c6101f8366004610ffc565b6103c5565b61018c61020b366004610ed5565b610404565b61018c61021e366004611080565b610520565b610236610231366004611057565b610575565b60405161015b91906110da565b6101ca6105a8565b61018c610259366004610e2c565b6105cc565b61018c61026c36600461102e565b61066a565b61027961069d565b60405161015b91906112eb565b61018c610294366004610ffc565b6106a2565b61018c6102a7366004610e2c565b6106d5565b60006102b88383610766565b9392505050565b601281565b816102d76102d1826107c0565b33610766565b6102fc5760405162461bcd60e51b81526004016102f39061116a565b60405180910390fd5b61030683836107fa565b505050565b600080600061032a61031c876108ac565b610325876108ac565b6108ee565b92509050670de0b6b3a764000061034185836113a3565b61034b9190611383565b925050935093915050565b806103636102d1826107c0565b61037f5760405162461bcd60e51b81526004016102f39061116a565b6103a9827fffffffff00000000000000000000000000000000000000000000000000000000610aee565b5050565b600081565b60006103bd826107c0565b90505b919050565b73ffffffffffffffffffffffffffffffffffffffff811633146103fa5760405162461bcd60e51b81526004016102f390611246565b6103a982826107fa565b6104326000357fffffffff000000000000000000000000000000000000000000000000000000001633610766565b61044e5760405162461bcd60e51b81526004016102f3906112b4565b81518351148015610460575080518251145b61047c5760405162461bcd60e51b81526004016102f3906111a1565b60005b835181101561051a576105088482815181106104ab57634e487b7160e01b600052603260045260246000fd5b60200260200101518483815181106104d357634e487b7160e01b600052603260045260246000fd5b60200260200101518484815181106104fb57634e487b7160e01b600052603260045260246000fd5b6020026020010151610bd0565b80610512816113e0565b91505061047f565b50505050565b61054e6000357fffffffff000000000000000000000000000000000000000000000000000000001633610766565b61056a5760405162461bcd60e51b81526004016102f3906112b4565b610306838383610bd0565b600360209081526000928352604080842090915290825290205473ffffffffffffffffffffffffffffffffffffffff1681565b7fffffffff0000000000000000000000000000000000000000000000000000000081565b60005b82518110156103065761060b6102d18483815181106105fe57634e487b7160e01b600052603260045260246000fd5b60200260200101516107c0565b6106275760405162461bcd60e51b81526004016102f39061116a565b61065883828151811061064a57634e487b7160e01b600052603260045260246000fd5b6020026020010151836107fa565b80610662816113e0565b9150506105cf565b816106776102d1826107c0565b6106935760405162461bcd60e51b81526004016102f39061116a565b6103068383610aee565b600181565b816106af6102d1826107c0565b6106cb5760405162461bcd60e51b81526004016102f39061116a565b6103068383610c81565b60005b8251811015610306576107076102d18483815181106105fe57634e487b7160e01b600052603260045260246000fd5b6107235760405162461bcd60e51b81526004016102f39061116a565b61075483828151811061074657634e487b7160e01b600052603260045260246000fd5b602002602001015183610c81565b8061075e816113e0565b9150506106d8565b7fffffffff00000000000000000000000000000000000000000000000000000000821660009081526020818152604080832073ffffffffffffffffffffffffffffffffffffffff8516845290915290205460ff1692915050565b7fffffffff000000000000000000000000000000000000000000000000000000001660009081526020819052604090206001015460e01b90565b6108048282610766565b156103a9577fffffffff00000000000000000000000000000000000000000000000000000000821660008181526020818152604080832073ffffffffffffffffffffffffffffffffffffffff8616808552925280832080547fffffffffffffffffffffffffffffffffffffffffffffffffffffffffffffff0016905551339391927f4ddc7b757e7bdd7254a9cd39452d307a52761bc824625c6a33104a075d8099e691a45050565b807fffffffffffff0000000000000000000000000000000000000000000000000000811681146103c05760405162461bcd60e51b81526004016102f390611133565b7fffffffffffff000000000000000000000000000000000000000000000000000080831660009081526003602090815260408083209385168352929052908120548190819073ffffffffffffffffffffffffffffffffffffffff16806109665760405162461bcd60e51b81526004016102f39061120f565b6109716002546108ac565b7fffffffffffff000000000000000000000000000000000000000000000000000086811691161415610a22578073ffffffffffffffffffffffffffffffffffffffff1663aa5af0fd6040518163ffffffff1660e01b815260040160206040518083038186803b1580156109e357600080fd5b505afa1580156109f7573d6000803e3d6000fd5b505050506040513d601f19601f82011682018060405250810190610a1b91906110c2565b9150610ab7565b610a2d6001546108ac565b7fffffffffffff000000000000000000000000000000000000000000000000000086811691161415610a9f578073ffffffffffffffffffffffffffffffffffffffff1663182df0f56040518163ffffffff1660e01b815260040160206040518083038186803b1580156109e357600080fd5b60405162461bcd60e51b81526004016102f39061127d565b60008211610ad75760405162461bcd60e51b81526004016102f3906111d8565b610ae26001836113a3565b96429650945050505050565b7fffffffff000000000000000000000000000000000000000000000000000000008116610b1a836107c0565b7fffffffff0000000000000000000000000000000000000000000000000000000016146103a9577fffffffff0000000000000000000000000000000000000000000000000000000082811660008181526020819052604080822060010180547fffffffffffffffffffffffffffffffffffffffffffffffffffffffff000000001660e087901c17905551928416927fd348e2220a50b4500ec353f6e802d2f14dd1b5d6786148fd1bbcc570bf92d4739190a35050565b7fffffffffffff000000000000000000000000000000000000000000000000000083811660008181526003602090815260408083209487168084529490915280822080547fffffffffffffffffffffffff00000000000000000000000000000000000000001673ffffffffffffffffffffffffffffffffffffffff87169081179091559051909392917f6b17b6fe258656b70fbe6082d40c42859bfac908441594fab748a898387cc03591a4505050565b610c8b8282610766565b6103a9577fffffffff00000000000000000000000000000000000000000000000000000000821660008181526020818152604080832073ffffffffffffffffffffffffffffffffffffffff8616808552925280832080547fffffffffffffffffffffffffffffffffffffffffffffffffffffffffffffff0016600117905551339391927fe6231789d19137da31d0550f4ba9ee379020a8cfb64cb79bf1790c996d2e616591a45050565b803573ffffffffffffffffffffffffffffffffffffffff811681146103c057600080fd5b600082601f830112610d69578081fd5b81356020610d7e610d798361135f565b611310565b8281528181019085830183850287018401881015610d9a578586fd5b855b85811015610dbf57610dad82610dfc565b84529284019290840190600101610d9c565b5090979650505050505050565b80357fffffffff00000000000000000000000000000000000000000000000000000000811681146103c057600080fd5b80357fffffffffffff0000000000000000000000000000000000000000000000000000811681146103c057600080fd5b60008060408385031215610e3e578182fd5b823567ffffffffffffffff811115610e54578283fd5b8301601f81018513610e64578283fd5b80356020610e74610d798361135f565b82815281810190848301838502860184018a1015610e90578788fd5b8795505b84861015610eb957610ea581610dcc565b835260019590950194918301918301610e94565b509550610ec99050868201610d35565b93505050509250929050565b600080600060608486031215610ee9578081fd5b833567ffffffffffffffff80821115610f00578283fd5b610f0c87838801610d59565b9450602091508186013581811115610f22578384fd5b610f2e88828901610d59565b945050604086013581811115610f42578384fd5b86019050601f81018713610f54578283fd5b8035610f62610d798261135f565b81815283810190838501858402850186018b1015610f7e578687fd5b8694505b83851015610fa757610f9381610d35565b835260019490940193918501918501610f82565b5080955050505050509250925092565b600080600060608486031215610fcb578283fd5b505081359360208301359350604090920135919050565b600060208284031215610ff3578081fd5b6102b882610dcc565b6000806040838503121561100e578182fd5b61101783610dcc565b915061102560208401610d35565b90509250929050565b60008060408385031215611040578182fd5b61104983610dcc565b915061102560208401610dcc565b60008060408385031215611069578182fd5b61107283610dfc565b915061102560208401610dfc565b600080600060608486031215611094578283fd5b61109d84610dfc565b92506110ab60208501610dfc565b91506110b960408501610d35565b90509250925092565b6000602082840312156110d3578081fd5b5051919050565b73ffffffffffffffffffffffffffffffffffffffff91909116815260200190565b901515815260200190565b7fffffffff0000000000000000000000000000000000000000000000000000000091909116815260200190565b6020808252600d908201527f43617374206f766572666c6f7700000000000000000000000000000000000000604082015260600190565b6020808252600a908201527f4f6e6c792061646d696e00000000000000000000000000000000000000000000604082015260600190565b60208082526011908201527f4d69736d61746368656420696e70757473000000000000000000000000000000604082015260600190565b60208082526016908201527f436f6d706f756e64207072696365206973207a65726f00000000000000000000604082015260600190565b60208082526010908201527f536f75726365206e6f7420666f756e6400000000000000000000000000000000604082015260600190565b60208082526016908201527f52656e6f756e6365206f6e6c7920666f722073656c6600000000000000000000604082015260600190565b60208082526013908201527f556e6b6e6f776e206f7261636c65207479706500000000000000000000000000604082015260600190565b6020808252600d908201527f4163636573732064656e69656400000000000000000000000000000000000000604082015260600190565b90815260200190565b918252602082015260400190565b60ff91909116815260200190565b604051601f82017fffffffffffffffffffffffffffffffffffffffffffffffffffffffffffffffe016810167ffffffffffffffff811182821017156113575761135761142f565b604052919050565b600067ffffffffffffffff8211156113795761137961142f565b5060209081020190565b60008261139e57634e487b7160e01b81526012600452602481fd5b500490565b6000817fffffffffffffffffffffffffffffffffffffffffffffffffffffffffffffffff04831182151516156113db576113db611419565b500290565b60007fffffffffffffffffffffffffffffffffffffffffffffffffffffffffffffffff82141561141257611412611419565b5060010190565b634e487b7160e01b600052601160045260246000fd5b634e487b7160e01b600052604160045260246000fdfea264697066735822122084ce393365689cc4f7147f0462ba64b57945a11a9e08680bcc075714dbd95f3b64736f6c63430008010033",
  "linkReferences": {},
  "deployedLinkReferences": {}
}