{
  "_format": "hh-sol-artifact-1",
  "contractName": "Controller",
  "sourceName": "contracts/v3/controllers/Controller.sol",
  "abi": [
    {
      "inputs": [
        {
          "internalType": "address",
          "name": "_manager",
          "type": "address"
        }
      ],
      "stateMutability": "nonpayable",
      "type": "constructor"
    },
    {
      "anonymous": false,
      "inputs": [
        {
          "indexed": true,
          "internalType": "address",
          "name": "strategy",
          "type": "address"
        }
      ],
      "name": "Harvest",
      "type": "event"
    },
    {
      "anonymous": false,
      "inputs": [
        {
          "indexed": true,
          "internalType": "address",
          "name": "vault",
          "type": "address"
        },
        {
          "indexed": true,
          "internalType": "address",
          "name": "strategy1",
          "type": "address"
        },
        {
          "indexed": true,
          "internalType": "address",
          "name": "strategy2",
          "type": "address"
        }
      ],
      "name": "StrategiesReordered",
      "type": "event"
    },
    {
      "anonymous": false,
      "inputs": [
        {
          "indexed": true,
          "internalType": "address",
          "name": "vault",
          "type": "address"
        },
        {
          "indexed": true,
          "internalType": "address",
          "name": "strategy",
          "type": "address"
        },
        {
          "indexed": false,
          "internalType": "uint256",
          "name": "cap",
          "type": "uint256"
        }
      ],
      "name": "StrategyAdded",
      "type": "event"
    },
    {
      "anonymous": false,
      "inputs": [
        {
          "indexed": true,
          "internalType": "address",
          "name": "vault",
          "type": "address"
        },
        {
          "indexed": true,
          "internalType": "address",
          "name": "strategy",
          "type": "address"
        }
      ],
      "name": "StrategyRemoved",
      "type": "event"
    },
    {
      "inputs": [
        {
          "internalType": "address",
          "name": "_vault",
          "type": "address"
        },
        {
          "internalType": "address",
          "name": "_strategy",
          "type": "address"
        },
        {
          "internalType": "uint256",
          "name": "_cap",
          "type": "uint256"
        },
        {
          "internalType": "uint256",
          "name": "_timeout",
          "type": "uint256"
        }
      ],
      "name": "addStrategy",
      "outputs": [],
      "stateMutability": "nonpayable",
      "type": "function"
    },
    {
      "inputs": [],
      "name": "balanceOf",
      "outputs": [
        {
          "internalType": "uint256",
          "name": "_balance",
          "type": "uint256"
        }
      ],
      "stateMutability": "view",
      "type": "function"
    },
    {
      "inputs": [
        {
          "internalType": "address",
          "name": "_vault",
          "type": "address"
        }
      ],
      "name": "converter",
      "outputs": [
        {
          "internalType": "address",
          "name": "",
          "type": "address"
        }
      ],
      "stateMutability": "view",
      "type": "function"
    },
    {
      "inputs": [
        {
          "internalType": "address",
          "name": "_strategy",
          "type": "address"
        },
        {
          "internalType": "address",
          "name": "_token",
          "type": "address"
        },
        {
          "internalType": "uint256",
          "name": "_amount",
          "type": "uint256"
        }
      ],
      "name": "earn",
      "outputs": [],
      "stateMutability": "nonpayable",
      "type": "function"
    },
    {
      "inputs": [
        {
          "internalType": "address",
          "name": "_vault",
          "type": "address"
        },
        {
          "internalType": "address",
          "name": "_strategy",
          "type": "address"
        }
      ],
      "name": "getCap",
      "outputs": [
        {
          "internalType": "uint256",
          "name": "",
          "type": "uint256"
        }
      ],
      "stateMutability": "view",
      "type": "function"
    },
    {
      "inputs": [],
      "name": "globalInvestEnabled",
      "outputs": [
        {
          "internalType": "bool",
          "name": "",
          "type": "bool"
        }
      ],
      "stateMutability": "view",
      "type": "function"
    },
    {
      "inputs": [
        {
          "internalType": "address",
          "name": "_strategy",
          "type": "address"
        },
        {
          "internalType": "uint256",
          "name": "_estimatedWETH",
          "type": "uint256"
        },
        {
          "internalType": "uint256",
          "name": "_estimatedYAXIS",
          "type": "uint256"
        }
      ],
      "name": "harvestStrategy",
      "outputs": [],
      "stateMutability": "nonpayable",
      "type": "function"
    },
    {
      "inputs": [
        {
          "internalType": "address",
          "name": "_strategy",
          "type": "address"
        },
        {
          "internalType": "address",
          "name": "_token",
          "type": "address"
        }
      ],
      "name": "inCaseStrategyGetStuck",
      "outputs": [],
      "stateMutability": "nonpayable",
      "type": "function"
    },
    {
      "inputs": [
        {
          "internalType": "address",
          "name": "_token",
          "type": "address"
        },
        {
          "internalType": "uint256",
          "name": "_amount",
          "type": "uint256"
        }
      ],
      "name": "inCaseTokensGetStuck",
      "outputs": [],
      "stateMutability": "nonpayable",
      "type": "function"
    },
    {
      "inputs": [],
      "name": "investEnabled",
      "outputs": [
        {
          "internalType": "bool",
          "name": "",
          "type": "bool"
        }
      ],
      "stateMutability": "view",
      "type": "function"
    },
    {
      "inputs": [],
      "name": "manager",
      "outputs": [
        {
          "internalType": "contract IManager",
          "name": "",
          "type": "address"
        }
      ],
      "stateMutability": "view",
      "type": "function"
    },
    {
      "inputs": [],
      "name": "maxStrategies",
      "outputs": [
        {
          "internalType": "uint256",
          "name": "",
          "type": "uint256"
        }
      ],
      "stateMutability": "view",
      "type": "function"
    },
    {
      "inputs": [
        {
          "internalType": "address",
          "name": "_vault",
          "type": "address"
        },
        {
          "internalType": "address",
          "name": "_strategy",
          "type": "address"
        },
        {
          "internalType": "uint256",
          "name": "_timeout",
          "type": "uint256"
        }
      ],
      "name": "removeStrategy",
      "outputs": [],
      "stateMutability": "nonpayable",
      "type": "function"
    },
    {
      "inputs": [
        {
          "internalType": "address",
          "name": "_vault",
          "type": "address"
        },
        {
          "internalType": "address",
          "name": "_strategy1",
          "type": "address"
        },
        {
          "internalType": "address",
          "name": "_strategy2",
          "type": "address"
        }
      ],
      "name": "reorderStrategies",
      "outputs": [],
      "stateMutability": "nonpayable",
      "type": "function"
    },
    {
      "inputs": [
        {
          "internalType": "address",
          "name": "_vault",
          "type": "address"
        },
        {
          "internalType": "address",
          "name": "_strategy",
          "type": "address"
        },
        {
          "internalType": "uint256",
          "name": "_cap",
          "type": "uint256"
        },
        {
          "internalType": "address",
          "name": "_convert",
          "type": "address"
        }
      ],
      "name": "setCap",
      "outputs": [],
      "stateMutability": "nonpayable",
      "type": "function"
    },
    {
      "inputs": [
        {
          "internalType": "address",
          "name": "_vault",
          "type": "address"
        },
        {
          "internalType": "address",
          "name": "_converter",
          "type": "address"
        }
      ],
      "name": "setConverter",
      "outputs": [],
      "stateMutability": "nonpayable",
      "type": "function"
    },
    {
      "inputs": [
        {
          "internalType": "bool",
          "name": "_investEnabled",
          "type": "bool"
        }
      ],
      "name": "setInvestEnabled",
      "outputs": [],
      "stateMutability": "nonpayable",
      "type": "function"
    },
    {
      "inputs": [
        {
          "internalType": "uint256",
          "name": "_maxStrategies",
          "type": "uint256"
        }
      ],
      "name": "setMaxStrategies",
      "outputs": [],
      "stateMutability": "nonpayable",
      "type": "function"
    },
    {
      "inputs": [
        {
          "internalType": "address",
          "name": "_strategy",
          "type": "address"
        }
      ],
      "name": "skim",
      "outputs": [],
      "stateMutability": "nonpayable",
      "type": "function"
    },
    {
      "inputs": [
        {
          "internalType": "address",
          "name": "_vault",
          "type": "address"
        }
      ],
      "name": "strategies",
      "outputs": [
        {
          "internalType": "address[]",
          "name": "",
          "type": "address[]"
        }
      ],
      "stateMutability": "view",
      "type": "function"
    },
    {
      "inputs": [],
      "name": "strategies",
      "outputs": [
        {
          "internalType": "uint256",
          "name": "",
          "type": "uint256"
        }
      ],
      "stateMutability": "view",
      "type": "function"
    },
    {
      "inputs": [
        {
          "internalType": "address",
          "name": "_token",
          "type": "address"
        },
        {
          "internalType": "uint256",
          "name": "_amount",
          "type": "uint256"
        }
      ],
      "name": "withdraw",
      "outputs": [],
      "stateMutability": "nonpayable",
      "type": "function"
    },
    {
      "inputs": [
        {
          "internalType": "address",
          "name": "_strategy",
          "type": "address"
        },
        {
          "internalType": "address",
          "name": "_convert",
          "type": "address"
        }
      ],
      "name": "withdrawAll",
      "outputs": [],
      "stateMutability": "nonpayable",
      "type": "function"
    }
  ],
  "bytecode": "0x60a060405234801561001057600080fd5b50604051620041bf380380620041bf8339818101604052602081101561003557600080fd5b50516001600160601b031960609190911b166080526000805460ff19166001908117909155600a905560805160601c61408a620001356000398061052452806105f452806109db5280610a9c5280610b975280610eba5280610ede5280610f9e528061107252806111325280611201528061144c52806115e752806116a7528061177752806118545280611ac55280611c105280611cd05280611d9f528061203752806120f752806121d95280612299528061236952806127fb52806129345280612a405280612b005280612bcf5280612e985280612f58528061302752806131345280613204528061340952806134db52806135ac525061408a6000f3fe608060405234801561001057600080fd5b506004361061014d5760003560e01c806376e2008d116100c3578063b23fa5621161007c578063b23fa56214610466578063bc25cf7714610494578063c6d758cb146104ba578063c79c21b7146104e6578063d9f9027f146104ee578063f3fef3a3146104f65761014d565b806376e2008d146103375780638c12f286146103735780638fc1ea1e146103ab57806392530a55146103ca57806395c2204614610406578063a8671c31146104345761014d565b8063481c6a7511610115578063481c6a751461028a5780634ff173d7146102ae5780636bb3722e146102cb5780636e0b4f901461030157806371f4f3fb14610327578063722713f71461032f5761014d565b806309cae2c814610152578063123e63d31461018257806319c494501461019e57806338e88610146101de57806339ebf82314610214575b600080fd5b6101806004803603604081101561016857600080fd5b506001600160a01b0381358116916020013516610522565b005b61018a6109a1565b604080519115158252519081900360200190f35b6101cc600480360360408110156101b457600080fd5b506001600160a01b03813581169160200135166109aa565b60408051918252519081900360200190f35b610180600480360360608110156101f457600080fd5b506001600160a01b038135811691602081013590911690604001356109d9565b61023a6004803603602081101561022a57600080fd5b50356001600160a01b0316610e3f565b60408051602080825283518183015283519192839290830191858101910280838360005b8381101561027657818101518382015260200161025e565b505050509050019250505060405180910390f35b610292610eb8565b604080516001600160a01b039092168252519081900360200190f35b610180600480360360208110156102c457600080fd5b5035610edc565b610180600480360360608110156102e157600080fd5b506001600160a01b03813581169160208101359091169060400135611070565b6102926004803603602081101561031757600080fd5b50356001600160a01b0316611582565b61018a6115a0565b6101cc6115cf565b6101806004803603608081101561034d57600080fd5b506001600160a01b038135811691602081013590911690604081013590606001356115e5565b6101806004803603606081101561038957600080fd5b506001600160a01b038135811691602081013582169160409091013516611c0e565b610180600480360360208110156103c157600080fd5b50351515612035565b610180600480360360808110156103e057600080fd5b506001600160a01b038135811691602081013582169160408201359160600135166121d7565b6101806004803603604081101561041c57600080fd5b506001600160a01b03813581169160200135166127f9565b6101806004803603606081101561044a57600080fd5b506001600160a01b038135169060208101359060400135612a3e565b6101806004803603604081101561047c57600080fd5b506001600160a01b0381358116916020013516612e96565b610180600480360360208110156104aa57600080fd5b50356001600160a01b0316613132565b610180600480360360408110156104d057600080fd5b506001600160a01b038135169060200135613407565b6101cc61356f565b6101cc613575565b6101806004803603604081101561050c57600080fd5b506001600160a01b03813516906020013561358c565b7f00000000000000000000000000000000000000000000000000000000000000006001600160a01b0316631fe4a6866040518163ffffffff1660e01b815260040160206040518083038186803b15801561057b57600080fd5b505afa15801561058f573d6000803e3d6000fd5b505050506040513d60208110156105a557600080fd5b50516001600160a01b031633146105f1576040805162461bcd60e51b815260206004820152600b60248201526a085cdd1c985d1959da5cdd60aa1b604482015290519081900360640190fd5b817f00000000000000000000000000000000000000000000000000000000000000006001600160a01b0316637ae6c8d4826040518263ffffffff1660e01b815260040180826001600160a01b0316815260200191505060206040518083038186803b15801561065f57600080fd5b505afa158015610673573d6000803e3d6000fd5b505050506040513d602081101561068957600080fd5b50516106cf576040805162461bcd60e51b815260206004820152601060248201526f21616c6c6f776564537472617465677960801b604482015290519081900360640190fd5b6000836001600160a01b0316631f1fcd516040518163ffffffff1660e01b815260040160206040518083038186803b15801561070a57600080fd5b505afa15801561071e573d6000803e3d6000fd5b505050506040513d602081101561073457600080fd5b50516040805163429c145b60e11b815290519192506001600160a01b0386169163853828b69160048082019260009290919082900301818387803b15801561077b57600080fd5b505af115801561078f573d6000803e3d6000fd5b505050506000816001600160a01b03166370a08231306040518263ffffffff1660e01b815260040180826001600160a01b0316815260200191505060206040518083038186803b1580156107e257600080fd5b505afa1580156107f6573d6000803e3d6000fd5b505050506040513d602081101561080c57600080fd5b50516001600160a01b038087166000908152600360205260409020549192501661083681876139a8565b6001600160a01b03851615610919576001600160a01b0380821660009081526002602052604090205481169061086f9085168285613a3d565b604080516375892cf160e01b81526001600160a01b038681166004830152888116602483015260448201869052600160648301529151918316916375892cf1916084808201926020929091908290030181600087803b1580156108d157600080fd5b505af11580156108e5573d6000803e3d6000fd5b505050506040513d60208110156108fb57600080fd5b505192506109136001600160a01b0387168385613a3d565b5061092d565b61092d6001600160a01b0384168284613a3d565b6001600160a01b03811660009081526002602052604090206001015482811061097b5761095a8184613a8f565b6001600160a01b038316600090815260026020526040902060010155610998565b6001600160a01b0382166000908152600260205260408120600101555b50505050505050565b60005460ff1681565b6001600160a01b0391821660009081526002602090815260408083209390941682526005909201909152205490565b7f00000000000000000000000000000000000000000000000000000000000000006001600160a01b031663b9b8af0b6040518163ffffffff1660e01b815260040160206040518083038186803b158015610a3257600080fd5b505afa158015610a46573d6000803e3d6000fd5b505050506040513d6020811015610a5c57600080fd5b505115610a99576040805162461bcd60e51b81526020600482015260066024820152651a185b1d195960d21b604482015290519081900360640190fd5b827f00000000000000000000000000000000000000000000000000000000000000006001600160a01b0316637ae6c8d4826040518263ffffffff1660e01b815260040180826001600160a01b0316815260200191505060206040518083038186803b158015610b0757600080fd5b505afa158015610b1b573d6000803e3d6000fd5b505050506040513d6020811015610b3157600080fd5b5051610b77576040805162461bcd60e51b815260206004820152601060248201526f21616c6c6f776564537472617465677960801b604482015290519081900360640190fd5b6040805163746bb5e760e11b815233600482015290516001600160a01b037f0000000000000000000000000000000000000000000000000000000000000000169163e8d76bce916024808301926020929190829003018186803b158015610bdd57600080fd5b505afa158015610bf1573d6000803e3d6000fd5b505050506040513d6020811015610c0757600080fd5b5051610c43576040805162461bcd60e51b8152602060048201526006602482015265085d985d5b1d60d21b604482015290519081900360640190fd5b6000846001600160a01b0316631f1fcd516040518163ffffffff1660e01b815260040160206040518083038186803b158015610c7e57600080fd5b505afa158015610c92573d6000803e3d6000fd5b505050506040513d6020811015610ca857600080fd5b505190506001600160a01b0380821690851614610d9257336000908152600260205260409020546001600160a01b0390811690610ce89086168286613a3d565b604080516375892cf160e01b81526001600160a01b038781166004830152848116602483015260448201879052600160648301529151918316916375892cf1916084808201926020929091908290030181600087803b158015610d4a57600080fd5b505af1158015610d5e573d6000803e3d6000fd5b505050506040513d6020811015610d7457600080fd5b50519350610d8c6001600160a01b0383168786613a3d565b50610da6565b610da66001600160a01b0385168685613a3d565b33600090815260026020526040902060010154610dc39084613ad8565b33600090815260026020526040808220600101929092558151630d0e30db60e41b815291516001600160a01b0388169263d0e30db092600480830193919282900301818387803b158015610e1657600080fd5b505af1158015610e2a573d6000803e3d6000fd5b50505050610e3833866139a8565b5050505050565b6001600160a01b038116600090815260026020818152604092839020909101805483518184028101840190945280845260609392830182828015610eac57602002820191906000526020600020905b81546001600160a01b03168152600190910190602001808311610e8e575b50505050509050919050565b7f000000000000000000000000000000000000000000000000000000000000000081565b7f00000000000000000000000000000000000000000000000000000000000000006001600160a01b031663b9b8af0b6040518163ffffffff1660e01b815260040160206040518083038186803b158015610f3557600080fd5b505afa158015610f49573d6000803e3d6000fd5b505050506040513d6020811015610f5f57600080fd5b505115610f9c576040805162461bcd60e51b81526020600482015260066024820152651a185b1d195960d21b604482015290519081900360640190fd5b7f00000000000000000000000000000000000000000000000000000000000000006001600160a01b0316631fe4a6866040518163ffffffff1660e01b815260040160206040518083038186803b158015610ff557600080fd5b505afa158015611009573d6000803e3d6000fd5b505050506040513d602081101561101f57600080fd5b50516001600160a01b0316331461106b576040805162461bcd60e51b815260206004820152600b60248201526a085cdd1c985d1959da5cdd60aa1b604482015290519081900360640190fd5b600155565b7f00000000000000000000000000000000000000000000000000000000000000006001600160a01b031663b9b8af0b6040518163ffffffff1660e01b815260040160206040518083038186803b1580156110c957600080fd5b505afa1580156110dd573d6000803e3d6000fd5b505050506040513d60208110156110f357600080fd5b505115611130576040805162461bcd60e51b81526020600482015260066024820152651a185b1d195960d21b604482015290519081900360640190fd5b7f00000000000000000000000000000000000000000000000000000000000000006001600160a01b0316631fe4a6866040518163ffffffff1660e01b815260040160206040518083038186803b15801561118957600080fd5b505afa15801561119d573d6000803e3d6000fd5b505050506040513d60208110156111b357600080fd5b50516001600160a01b031633146111ff576040805162461bcd60e51b815260206004820152600b60248201526a085cdd1c985d1959da5cdd60aa1b604482015290519081900360640190fd5b7f00000000000000000000000000000000000000000000000000000000000000006001600160a01b031663e8d76bce846040518263ffffffff1660e01b815260040180826001600160a01b0316815260200191505060206040518083038186803b15801561126c57600080fd5b505afa158015611280573d6000803e3d6000fd5b505050506040513d602081101561129657600080fd5b50516112d3576040805162461bcd60e51b81526020600482015260076024820152660857dd985d5b1d60ca1b604482015290519081900360640190fd5b6001600160a01b03808416600090815260026020818152604080842094871684526004850190915282205490830154909190611310906001613a8f565b9050600083600201828154811061132357fe5b6000918252602090912001546002850180546001600160a01b03909216925082918590811061134e57fe5b600091825260208083209190910180546001600160a01b0319166001600160a01b03948516179055918316815260048601909152604090208390556002840180548061139657fe5b60008281526020808220830160001990810180546001600160a01b031990811690915593019093556001600160a01b03891680825260048089018552604080842084905560058a0186528084208490556003808b0187528185208590559095528483208054909416909355835163429c145b60e11b81529351909363853828b69381810193929182900301818387803b15801561143257600080fd5b505af1158015611446573d6000803e3d6000fd5b505050507f00000000000000000000000000000000000000000000000000000000000000006001600160a01b0316634bdaeac16040518163ffffffff1660e01b815260040160206040518083038186803b1580156114a357600080fd5b505afa1580156114b7573d6000803e3d6000fd5b505050506040513d60208110156114cd57600080fd5b5051604080516335d9b91760e11b81526001600160a01b038a8116600483015289811660248301526044820189905291519190921691636bb3722e91606480830192600092919082900301818387803b15801561152957600080fd5b505af115801561153d573d6000803e3d6000fd5b50506040516001600160a01b03808a1693508a1691507f64a0e13af5f4bc5a68b1b79d9ff6e775f93e814ee8b0c97d620520190d04bae290600090a350505050505050565b6001600160a01b039081166000908152600260205260409020541690565b6000805460ff16156115c85750336000908152600260208190526040909120015415156115cc565b5060005b90565b3360009081526002602052604090206001015490565b7f00000000000000000000000000000000000000000000000000000000000000006001600160a01b031663b9b8af0b6040518163ffffffff1660e01b815260040160206040518083038186803b15801561163e57600080fd5b505afa158015611652573d6000803e3d6000fd5b505050506040513d602081101561166857600080fd5b5051156116a5576040805162461bcd60e51b81526020600482015260066024820152651a185b1d195960d21b604482015290519081900360640190fd5b7f00000000000000000000000000000000000000000000000000000000000000006001600160a01b0316631fe4a6866040518163ffffffff1660e01b815260040160206040518083038186803b1580156116fe57600080fd5b505afa158015611712573d6000803e3d6000fd5b505050506040513d602081101561172857600080fd5b50516001600160a01b03163314611774576040805162461bcd60e51b815260206004820152600b60248201526a085cdd1c985d1959da5cdd60aa1b604482015290519081900360640190fd5b827f00000000000000000000000000000000000000000000000000000000000000006001600160a01b0316637ae6c8d4826040518263ffffffff1660e01b815260040180826001600160a01b0316815260200191505060206040518083038186803b1580156117e257600080fd5b505afa1580156117f6573d6000803e3d6000fd5b505050506040513d602081101561180c57600080fd5b5051611852576040805162461bcd60e51b815260206004820152601060248201526f21616c6c6f776564537472617465677960801b604482015290519081900360640190fd5b7f00000000000000000000000000000000000000000000000000000000000000006001600160a01b031663e8d76bce866040518263ffffffff1660e01b815260040180826001600160a01b0316815260200191505060206040518083038186803b1580156118bf57600080fd5b505afa1580156118d3573d6000803e3d6000fd5b505050506040513d60208110156118e957600080fd5b5051611926576040805162461bcd60e51b81526020600482015260076024820152660857dd985d5b1d60ca1b604482015290519081900360640190fd5b6001600160a01b038581166000908152600260205260409020541661197f576040805162461bcd60e51b815260206004820152600a60248201526910b1b7b73b32b93a32b960b11b604482015290519081900360640190fd5b6001600160a01b0384811660009081526003602052604090205416156119ec576040805162461bcd60e51b815260206004820152601960248201527f537472617465677920697320616c726561647920616464656400000000000000604482015290519081900360640190fd5b6001600160a01b038516600090815260026020819052604090912001546001548110611a50576040805162461bcd60e51b815260206004820152600e60248201526d216d61785374726174656769657360901b604482015290519081900360640190fd5b6001600160a01b0386811660008181526002602081815260408084209283018054600181018255908552828520018054968c166001600160a01b0319978816811790915584526005830182528084208a90556004909201815281832086905560039052902080549092161790558215611bbb577f00000000000000000000000000000000000000000000000000000000000000006001600160a01b0316634bdaeac16040518163ffffffff1660e01b815260040160206040518083038186803b158015611b1c57600080fd5b505afa158015611b30573d6000803e3d6000fd5b505050506040513d6020811015611b4657600080fd5b505160408051634b704acd60e01b81526001600160a01b03898116600483015288811660248301526044820187905291519190921691634b704acd91606480830192600092919082900301818387803b158015611ba257600080fd5b505af1158015611bb6573d6000803e3d6000fd5b505050505b846001600160a01b0316866001600160a01b03167fc2008aa15e9b0989ec7ae02bc3d8054428c527c989269ffb2a5bff829028a012866040518082815260200191505060405180910390a3505050505050565b7f00000000000000000000000000000000000000000000000000000000000000006001600160a01b031663b9b8af0b6040518163ffffffff1660e01b815260040160206040518083038186803b158015611c6757600080fd5b505afa158015611c7b573d6000803e3d6000fd5b505050506040513d6020811015611c9157600080fd5b505115611cce576040805162461bcd60e51b81526020600482015260066024820152651a185b1d195960d21b604482015290519081900360640190fd5b7f00000000000000000000000000000000000000000000000000000000000000006001600160a01b0316631fe4a6866040518163ffffffff1660e01b815260040160206040518083038186803b158015611d2757600080fd5b505afa158015611d3b573d6000803e3d6000fd5b505050506040513d6020811015611d5157600080fd5b50516001600160a01b03163314611d9d576040805162461bcd60e51b815260206004820152600b60248201526a085cdd1c985d1959da5cdd60aa1b604482015290519081900360640190fd5b7f00000000000000000000000000000000000000000000000000000000000000006001600160a01b031663e8d76bce846040518263ffffffff1660e01b815260040180826001600160a01b0316815260200191505060206040518083038186803b158015611e0a57600080fd5b505afa158015611e1e573d6000803e3d6000fd5b505050506040513d6020811015611e3457600080fd5b5051611e71576040805162461bcd60e51b81526020600482015260076024820152660857dd985d5b1d60ca1b604482015290519081900360640190fd5b6001600160a01b03828116600090815260036020526040902054811690841614611ed0576040805162461bcd60e51b815260206004820152600b60248201526a215f73747261746567793160a81b604482015290519081900360640190fd5b6001600160a01b03818116600090815260036020526040902054811690841614611f2f576040805162461bcd60e51b815260206004820152600b60248201526a10afb9ba3930ba32b3bc9960a91b604482015290519081900360640190fd5b6001600160a01b03808416600090815260026020818152604080842087861685526004810190925280842054948616845290922054908201805492939285919084908110611f7957fe5b9060005260206000200160006101000a8154816001600160a01b0302191690836001600160a01b0316021790555084836002018281548110611fb757fe5b600091825260208083209190910180546001600160a01b0319166001600160a01b03948516179055878316808352600487019091526040808320859055878416808452818420879055905190939192918a16917ffea1ac549b0e10ecbe67c9d07de370cb3976ed51ef1fd559cf7472021417467891a4505050505050565b7f00000000000000000000000000000000000000000000000000000000000000006001600160a01b031663b9b8af0b6040518163ffffffff1660e01b815260040160206040518083038186803b15801561208e57600080fd5b505afa1580156120a2573d6000803e3d6000fd5b505050506040513d60208110156120b857600080fd5b5051156120f5576040805162461bcd60e51b81526020600482015260066024820152651a185b1d195960d21b604482015290519081900360640190fd5b7f00000000000000000000000000000000000000000000000000000000000000006001600160a01b0316631fe4a6866040518163ffffffff1660e01b815260040160206040518083038186803b15801561214e57600080fd5b505afa158015612162573d6000803e3d6000fd5b505050506040513d602081101561217857600080fd5b50516001600160a01b031633146121c4576040805162461bcd60e51b815260206004820152600b60248201526a085cdd1c985d1959da5cdd60aa1b604482015290519081900360640190fd5b6000805460ff1916911515919091179055565b7f00000000000000000000000000000000000000000000000000000000000000006001600160a01b031663b9b8af0b6040518163ffffffff1660e01b815260040160206040518083038186803b15801561223057600080fd5b505afa158015612244573d6000803e3d6000fd5b505050506040513d602081101561225a57600080fd5b505115612297576040805162461bcd60e51b81526020600482015260066024820152651a185b1d195960d21b604482015290519081900360640190fd5b7f00000000000000000000000000000000000000000000000000000000000000006001600160a01b0316631fe4a6866040518163ffffffff1660e01b815260040160206040518083038186803b1580156122f057600080fd5b505afa158015612304573d6000803e3d6000fd5b505050506040513d602081101561231a57600080fd5b50516001600160a01b03163314612366576040805162461bcd60e51b815260206004820152600b60248201526a085cdd1c985d1959da5cdd60aa1b604482015290519081900360640190fd5b827f00000000000000000000000000000000000000000000000000000000000000006001600160a01b0316637ae6c8d4826040518263ffffffff1660e01b815260040180826001600160a01b0316815260200191505060206040518083038186803b1580156123d457600080fd5b505afa1580156123e8573d6000803e3d6000fd5b505050506040513d60208110156123fe57600080fd5b5051612444576040805162461bcd60e51b815260206004820152601060248201526f21616c6c6f776564537472617465677960801b604482015290519081900360640190fd5b6001600160a01b03808616600090815260026020908152604080832093881680845260059094018252808320879055805163722713f760e01b8152905192939263722713f792600480840193919291829003018186803b1580156124a757600080fd5b505afa1580156124bb573d6000803e3d6000fd5b505050506040513d60208110156124d157600080fd5b5051905083811180156124e357508315155b156127f15760006124f48286613a8f565b9050856001600160a01b0316632e1a7d4d826040518263ffffffff1660e01b815260040180828152602001915050600060405180830381600087803b15801561253c57600080fd5b505af1158015612550573d6000803e3d6000fd5b5050505061255e87876139a8565b856001600160a01b031663722713f76040518163ffffffff1660e01b815260040160206040518083038186803b15801561259757600080fd5b505afa1580156125ab573d6000803e3d6000fd5b505050506040513d60208110156125c157600080fd5b50516001600160a01b0388166000908152600260205260409020600101549092506125ec9082613a8f565b60026000896001600160a01b03166001600160a01b03168152602001908152602001600020600101819055506000866001600160a01b0316631f1fcd516040518163ffffffff1660e01b815260040160206040518083038186803b15801561265357600080fd5b505afa158015612667573d6000803e3d6000fd5b505050506040513d602081101561267d57600080fd5b5051604080516370a0823160e01b815230600482015290519192506001600160a01b038316916370a0823191602480820192602092909190829003018186803b1580156126c957600080fd5b505afa1580156126dd573d6000803e3d6000fd5b505050506040513d60208110156126f357600080fd5b505192506001600160a01b038516156127da576001600160a01b038089166000908152600260205260409020548116906127309083168286613a3d565b604080516375892cf160e01b81526001600160a01b038481166004830152888116602483015260448201879052600160648301529151918316916375892cf1916084808201926020929091908290030181600087803b15801561279257600080fd5b505af11580156127a6573d6000803e3d6000fd5b505050506040513d60208110156127bc57600080fd5b505193506127d46001600160a01b0387168a86613a3d565b506127ee565b6127ee6001600160a01b0382168985613a3d565b50505b505050505050565b7f00000000000000000000000000000000000000000000000000000000000000006001600160a01b0316631fe4a6866040518163ffffffff1660e01b815260040160206040518083038186803b15801561285257600080fd5b505afa158015612866573d6000803e3d6000fd5b505050506040513d602081101561287c57600080fd5b50516001600160a01b031633146128c8576040805162461bcd60e51b815260206004820152600b60248201526a085cdd1c985d1959da5cdd60aa1b604482015290519081900360640190fd5b816001600160a01b03166351cff8d9826040518263ffffffff1660e01b815260040180826001600160a01b03168152602001915050600060405180830381600087803b15801561291757600080fd5b505af115801561292b573d6000803e3d6000fd5b50505050612a3a7f00000000000000000000000000000000000000000000000000000000000000006001600160a01b03166361d027b36040518163ffffffff1660e01b815260040160206040518083038186803b15801561298b57600080fd5b505afa15801561299f573d6000803e3d6000fd5b505050506040513d60208110156129b557600080fd5b5051604080516370a0823160e01b815230600482015290516001600160a01b038516916370a08231916024808301926020929190829003018186803b1580156129fd57600080fd5b505afa158015612a11573d6000803e3d6000fd5b505050506040513d6020811015612a2757600080fd5b50516001600160a01b0384169190613a3d565b5050565b7f00000000000000000000000000000000000000000000000000000000000000006001600160a01b031663b9b8af0b6040518163ffffffff1660e01b815260040160206040518083038186803b158015612a9757600080fd5b505afa158015612aab573d6000803e3d6000fd5b505050506040513d6020811015612ac157600080fd5b505115612afe576040805162461bcd60e51b81526020600482015260066024820152651a185b1d195960d21b604482015290519081900360640190fd5b7f00000000000000000000000000000000000000000000000000000000000000006001600160a01b0316634bdaeac16040518163ffffffff1660e01b815260040160206040518083038186803b158015612b5757600080fd5b505afa158015612b6b573d6000803e3d6000fd5b505050506040513d6020811015612b8157600080fd5b50516001600160a01b03163314612bcc576040805162461bcd60e51b815260206004820152600a60248201526910b430b93b32b9ba32b960b11b604482015290519081900360640190fd5b827f00000000000000000000000000000000000000000000000000000000000000006001600160a01b0316637ae6c8d4826040518263ffffffff1660e01b815260040180826001600160a01b0316815260200191505060206040518083038186803b158015612c3a57600080fd5b505afa158015612c4e573d6000803e3d6000fd5b505050506040513d6020811015612c6457600080fd5b5051612caa576040805162461bcd60e51b815260206004820152601060248201526f21616c6c6f776564537472617465677960801b604482015290519081900360640190fd5b6000846001600160a01b031663722713f76040518163ffffffff1660e01b815260040160206040518083038186803b158015612ce557600080fd5b505afa158015612cf9573d6000803e3d6000fd5b505050506040513d6020811015612d0f57600080fd5b50516040805163e4a4b7b160e01b8152600481018790526024810186905290519192506001600160a01b0387169163e4a4b7b19160448082019260009290919082900301818387803b158015612d6457600080fd5b505af1158015612d78573d6000803e3d6000fd5b505050506000856001600160a01b031663722713f76040518163ffffffff1660e01b815260040160206040518083038186803b158015612db757600080fd5b505afa158015612dcb573d6000803e3d6000fd5b505050506040513d6020811015612de157600080fd5b50516001600160a01b0380881660009081526003602052604090205491925016612e30612e0e8385613a8f565b6001600160a01b03831660009081526002602052604090206001015490613ad8565b6001600160a01b0380831660009081526002602090815260408083206001810195909555928b168083526003909401905281812085905590517f188a622567eeca997c3d494fd65f76ca910b90a50a0c44d5e37b2ea5539e027b9190a250505050505050565b7f00000000000000000000000000000000000000000000000000000000000000006001600160a01b031663b9b8af0b6040518163ffffffff1660e01b815260040160206040518083038186803b158015612eef57600080fd5b505afa158015612f03573d6000803e3d6000fd5b505050506040513d6020811015612f1957600080fd5b505115612f56576040805162461bcd60e51b81526020600482015260066024820152651a185b1d195960d21b604482015290519081900360640190fd5b7f00000000000000000000000000000000000000000000000000000000000000006001600160a01b0316631fe4a6866040518163ffffffff1660e01b815260040160206040518083038186803b158015612faf57600080fd5b505afa158015612fc3573d6000803e3d6000fd5b505050506040513d6020811015612fd957600080fd5b50516001600160a01b03163314613025576040805162461bcd60e51b815260206004820152600b60248201526a085cdd1c985d1959da5cdd60aa1b604482015290519081900360640190fd5b7f00000000000000000000000000000000000000000000000000000000000000006001600160a01b03166383649674826040518263ffffffff1660e01b815260040180826001600160a01b0316815260200191505060206040518083038186803b15801561309257600080fd5b505afa1580156130a6573d6000803e3d6000fd5b505050506040513d60208110156130bc57600080fd5b5051613104576040805162461bcd60e51b815260206004820152601260248201527121616c6c6f776564436f6e7665727465727360701b604482015290519081900360640190fd5b6001600160a01b03918216600090815260026020526040902080546001600160a01b03191691909216179055565b7f00000000000000000000000000000000000000000000000000000000000000006001600160a01b0316631fe4a6866040518163ffffffff1660e01b815260040160206040518083038186803b15801561318b57600080fd5b505afa15801561319f573d6000803e3d6000fd5b505050506040513d60208110156131b557600080fd5b50516001600160a01b03163314613201576040805162461bcd60e51b815260206004820152600b60248201526a085cdd1c985d1959da5cdd60aa1b604482015290519081900360640190fd5b807f00000000000000000000000000000000000000000000000000000000000000006001600160a01b0316637ae6c8d4826040518263ffffffff1660e01b815260040180826001600160a01b0316815260200191505060206040518083038186803b15801561326f57600080fd5b505afa158015613283573d6000803e3d6000fd5b505050506040513d602081101561329957600080fd5b50516132df576040805162461bcd60e51b815260206004820152601060248201526f21616c6c6f776564537472617465677960801b604482015290519081900360640190fd5b6000826001600160a01b0316631f1fcd516040518163ffffffff1660e01b815260040160206040518083038186803b15801561331a57600080fd5b505afa15801561332e573d6000803e3d6000fd5b505050506040513d602081101561334457600080fd5b505160408051630774672d60e21b815290519192506001600160a01b03851691631dd19cb49160048082019260009290919082900301818387803b15801561338b57600080fd5b505af115801561339f573d6000803e3d6000fd5b5050506001600160a01b038085166000908152600360209081526040918290205482516370a0823160e01b815230600482015292516134029550908416938616926370a08231926024808301939192829003018186803b1580156129fd57600080fd5b505050565b7f00000000000000000000000000000000000000000000000000000000000000006001600160a01b0316631fe4a6866040518163ffffffff1660e01b815260040160206040518083038186803b15801561346057600080fd5b505afa158015613474573d6000803e3d6000fd5b505050506040513d602081101561348a57600080fd5b50516001600160a01b031633146134d6576040805162461bcd60e51b815260206004820152600b60248201526a085cdd1c985d1959da5cdd60aa1b604482015290519081900360640190fd5b612a3a7f00000000000000000000000000000000000000000000000000000000000000006001600160a01b03166361d027b36040518163ffffffff1660e01b815260040160206040518083038186803b15801561353257600080fd5b505afa158015613546573d6000803e3d6000fd5b505050506040513d602081101561355c57600080fd5b50516001600160a01b0384169083613a3d565b60015481565b336000908152600260208190526040909120015490565b6040805163746bb5e760e11b815233600482015290516001600160a01b037f0000000000000000000000000000000000000000000000000000000000000000169163e8d76bce916024808301926020929190829003018186803b1580156135f257600080fd5b505afa158015613606573d6000803e3d6000fd5b505050506040513d602081101561361c57600080fd5b5051613658576040805162461bcd60e51b8152602060048201526006602482015265085d985d5b1d60d21b604482015290519081900360640190fd5b6060806136653384613b32565b9150915060005b82518110156138e45760006001600160a01b031683828151811061368c57fe5b60200260200101516001600160a01b031614156136a8576138e4565b8281815181106136b457fe5b60200260200101516001600160a01b0316632e1a7d4d8383815181106136d657fe5b60200260200101516040518263ffffffff1660e01b815260040180828152602001915050600060405180830381600087803b15801561371457600080fd5b505af1158015613728573d6000803e3d6000fd5b505050506137493384838151811061373c57fe5b60200260200101516139a8565b600083828151811061375757fe5b60200260200101516001600160a01b0316631f1fcd516040518163ffffffff1660e01b815260040160206040518083038186803b15801561379757600080fd5b505afa1580156137ab573d6000803e3d6000fd5b505050506040513d60208110156137c157600080fd5b505190506001600160a01b03808216908716146138db573360009081526002602052604090205483516001600160a01b039091169061382990829086908690811061380857fe5b6020026020010151846001600160a01b0316613a3d9092919063ffffffff16565b806001600160a01b03166375892cf1838987878151811061384657fe5b602002602001015160016040518563ffffffff1660e01b815260040180856001600160a01b03168152602001846001600160a01b03168152602001838152602001828152602001945050505050602060405180830381600087803b1580156138ad57600080fd5b505af11580156138c1573d6000803e3d6000fd5b505050506040513d60208110156138d757600080fd5b5050505b5060010161366c565b50604080516370a0823160e01b815230600482015290516001600160a01b038616916370a08231916024808301926020929190829003018186803b15801561392b57600080fd5b505afa15801561393f573d6000803e3d6000fd5b505050506040513d602081101561395557600080fd5b5051336000908152600260205260409020600101549093506139779084613a8f565b336000818152600260205260409020600101919091556139a2906001600160a01b0386169085613a3d565b50505050565b806001600160a01b031663722713f76040518163ffffffff1660e01b815260040160206040518083038186803b1580156139e157600080fd5b505afa1580156139f5573d6000803e3d6000fd5b505050506040513d6020811015613a0b57600080fd5b50516001600160a01b039283166000908152600260209081526040808320949095168252600390930190925291902055565b604080516001600160a01b038416602482015260448082018490528251808303909101815260649091019091526020810180516001600160e01b031663a9059cbb60e01b179052613402908490613cdd565b6000613ad183836040518060400160405280601e81526020017f536166654d6174683a207375627472616374696f6e206f766572666c6f770000815250613d8e565b9392505050565b600082820183811015613ad1576040805162461bcd60e51b815260206004820152601b60248201527f536166654d6174683a206164646974696f6e206f766572666c6f770000000000604482015290519081900360640190fd5b6001600160a01b0382166000908152600260208190526040909120015460609081908067ffffffffffffffff81118015613b6b57600080fd5b50604051908082528060200260200182016040528015613b95578160200160208202803683370190505b5092508067ffffffffffffffff81118015613baf57600080fd5b50604051908082528060200260200182016040528015613bd9578160200160208202803683370190505b50915060008060005b83811015613cd2576001600160a01b038816600090815260026020819052604090912001805482908110613c1257fe5b9060005260206000200160009054906101000a90046001600160a01b0316925082868281518110613c3f57fe5b6001600160a01b039283166020918202929092018101919091528982166000908152600282526040808220938716825260039093019091522054915086821015613cac5781858281518110613c9057fe5b6020908102919091010152613ca58783613a8f565b9650613cca565b86858281518110613cb957fe5b602002602001018181525050613cd2565b600101613be2565b505050509250929050565b6060613d32826040518060400160405280602081526020017f5361666545524332303a206c6f772d6c6576656c2063616c6c206661696c6564815250856001600160a01b0316613e259092919063ffffffff16565b80519091501561340257808060200190516020811015613d5157600080fd5b50516134025760405162461bcd60e51b815260040180806020018281038252602a81526020018061402b602a913960400191505060405180910390fd5b60008184841115613e1d5760405162461bcd60e51b81526004018080602001828103825283818151815260200191508051906020019080838360005b83811015613de2578181015183820152602001613dca565b50505050905090810190601f168015613e0f5780820380516001836020036101000a031916815260200191505b509250505060405180910390fd5b505050900390565b6060613e348484600085613e3c565b949350505050565b606082471015613e7d5760405162461bcd60e51b81526004018080602001828103825260268152602001806140056026913960400191505060405180910390fd5b613e8685613f98565b613ed7576040805162461bcd60e51b815260206004820152601d60248201527f416464726573733a2063616c6c20746f206e6f6e2d636f6e7472616374000000604482015290519081900360640190fd5b60006060866001600160a01b031685876040518082805190602001908083835b60208310613f165780518252601f199092019160209182019101613ef7565b6001836020036101000a03801982511681845116808217855250505050505090500191505060006040518083038185875af1925050503d8060008114613f78576040519150601f19603f3d011682016040523d82523d6000602084013e613f7d565b606091505b5091509150613f8d828286613f9e565b979650505050505050565b3b151590565b60608315613fad575081613ad1565b825115613fbd5782518084602001fd5b60405162461bcd60e51b8152602060048201818152845160248401528451859391928392604401919085019080838360008315613de2578181015183820152602001613dca56fe416464726573733a20696e73756666696369656e742062616c616e636520666f722063616c6c5361666545524332303a204552433230206f7065726174696f6e20646964206e6f742073756363656564a2646970667358221220666ef39d9ca3223a3b3c6be0c2e8466321f7140cd3ed7dd66a29f3e34892b21e64736f6c634300060c0033",
  "linkReferences": {},
  "deployedLinkReferences": {}
}