{
  "_format": "hh-sol-artifact-1",
  "contractName": "MockInflationManager",
  "sourceName": "contracts/testing/MockInflationManager.sol",
  "abi": [
    {
      "inputs": [
        {
          "internalType": "contract IAddressProvider",
          "name": "addressProvider",
          "type": "address"
        }
      ],
      "stateMutability": "nonpayable",
      "type": "constructor"
    },
    {
      "anonymous": false,
      "inputs": [
        {
          "indexed": true,
          "internalType": "address",
          "name": "token",
          "type": "address"
        },
        {
          "indexed": true,
          "internalType": "address",
          "name": "ammGauge",
          "type": "address"
        }
      ],
      "name": "AmmGaugeDelisted",
      "type": "event"
    },
    {
      "anonymous": false,
      "inputs": [
        {
          "indexed": true,
          "internalType": "address",
          "name": "token",
          "type": "address"
        },
        {
          "indexed": true,
          "internalType": "address",
          "name": "ammGauge",
          "type": "address"
        }
      ],
      "name": "AmmGaugeListed",
      "type": "event"
    },
    {
      "anonymous": false,
      "inputs": [
        {
          "indexed": true,
          "internalType": "bytes32",
          "name": "key",
          "type": "bytes32"
        },
        {
          "indexed": false,
          "internalType": "address",
          "name": "value",
          "type": "address"
        },
        {
          "indexed": false,
          "internalType": "uint256",
          "name": "delay",
          "type": "uint256"
        }
      ],
      "name": "ConfigPreparedAddress",
      "type": "event"
    },
    {
      "anonymous": false,
      "inputs": [
        {
          "indexed": true,
          "internalType": "bytes32",
          "name": "key",
          "type": "bytes32"
        },
        {
          "indexed": false,
          "internalType": "uint256",
          "name": "value",
          "type": "uint256"
        },
        {
          "indexed": false,
          "internalType": "uint256",
          "name": "delay",
          "type": "uint256"
        }
      ],
      "name": "ConfigPreparedNumber",
      "type": "event"
    },
    {
      "anonymous": false,
      "inputs": [
        {
          "indexed": true,
          "internalType": "bytes32",
          "name": "key",
          "type": "bytes32"
        }
      ],
      "name": "ConfigReset",
      "type": "event"
    },
    {
      "anonymous": false,
      "inputs": [
        {
          "indexed": true,
          "internalType": "bytes32",
          "name": "key",
          "type": "bytes32"
        },
        {
          "indexed": false,
          "internalType": "address",
          "name": "oldValue",
          "type": "address"
        },
        {
          "indexed": false,
          "internalType": "address",
          "name": "newValue",
          "type": "address"
        }
      ],
      "name": "ConfigUpdatedAddress",
      "type": "event"
    },
    {
      "anonymous": false,
      "inputs": [
        {
          "indexed": true,
          "internalType": "bytes32",
          "name": "key",
          "type": "bytes32"
        },
        {
          "indexed": false,
          "internalType": "uint256",
          "name": "oldValue",
          "type": "uint256"
        },
        {
          "indexed": false,
          "internalType": "uint256",
          "name": "newValue",
          "type": "uint256"
        }
      ],
      "name": "ConfigUpdatedNumber",
      "type": "event"
    },
    {
      "anonymous": false,
      "inputs": [
        {
          "indexed": true,
          "internalType": "address",
          "name": "pool",
          "type": "address"
        },
        {
          "indexed": true,
          "internalType": "address",
          "name": "keeperGauge",
          "type": "address"
        }
      ],
      "name": "KeeperGaugeDelisted",
      "type": "event"
    },
    {
      "anonymous": false,
      "inputs": [
        {
          "indexed": true,
          "internalType": "address",
          "name": "pool",
          "type": "address"
        },
        {
          "indexed": true,
          "internalType": "address",
          "name": "keeperGauge",
          "type": "address"
        }
      ],
      "name": "KeeperGaugeListed",
      "type": "event"
    },
    {
      "anonymous": false,
      "inputs": [
        {
          "indexed": true,
          "internalType": "address",
          "name": "token",
          "type": "address"
        },
        {
          "indexed": false,
          "internalType": "uint256",
          "name": "newWeight",
          "type": "uint256"
        }
      ],
      "name": "NewAmmTokenWeight",
      "type": "event"
    },
    {
      "anonymous": false,
      "inputs": [
        {
          "indexed": true,
          "internalType": "address",
          "name": "pool",
          "type": "address"
        },
        {
          "indexed": false,
          "internalType": "uint256",
          "name": "newWeight",
          "type": "uint256"
        }
      ],
      "name": "NewKeeperWeight",
      "type": "event"
    },
    {
      "anonymous": false,
      "inputs": [
        {
          "indexed": true,
          "internalType": "address",
          "name": "pool",
          "type": "address"
        },
        {
          "indexed": false,
          "internalType": "uint256",
          "name": "newWeight",
          "type": "uint256"
        }
      ],
      "name": "NewLpWeight",
      "type": "event"
    },
    {
      "inputs": [
        {
          "internalType": "address",
          "name": "lpToken",
          "type": "address"
        }
      ],
      "name": "addGaugeForVault",
      "outputs": [
        {
          "internalType": "bool",
          "name": "",
          "type": "bool"
        }
      ],
      "stateMutability": "nonpayable",
      "type": "function"
    },
    {
      "inputs": [
        {
          "internalType": "address",
          "name": "depositStakerVault",
          "type": "address"
        },
        {
          "internalType": "address",
          "name": "strategyPool",
          "type": "address"
        }
      ],
      "name": "addStrategyToDepositStakerVault",
      "outputs": [
        {
          "internalType": "bool",
          "name": "",
          "type": "bool"
        }
      ],
      "stateMutability": "nonpayable",
      "type": "function"
    },
    {
      "inputs": [],
      "name": "addressProvider",
      "outputs": [
        {
          "internalType": "contract IAddressProvider",
          "name": "",
          "type": "address"
        }
      ],
      "stateMutability": "view",
      "type": "function"
    },
    {
      "inputs": [
        {
          "internalType": "address",
          "name": "pool",
          "type": "address"
        }
      ],
      "name": "advanceKeeperGaugeEpoch",
      "outputs": [
        {
          "internalType": "bool",
          "name": "",
          "type": "bool"
        }
      ],
      "stateMutability": "nonpayable",
      "type": "function"
    },
    {
      "inputs": [
        {
          "internalType": "address[]",
          "name": "tokens",
          "type": "address[]"
        }
      ],
      "name": "batchExecuteAmmTokenWeights",
      "outputs": [
        {
          "internalType": "bool",
          "name": "",
          "type": "bool"
        }
      ],
      "stateMutability": "nonpayable",
      "type": "function"
    },
    {
      "inputs": [
        {
          "internalType": "address[]",
          "name": "pools",
          "type": "address[]"
        }
      ],
      "name": "batchExecuteKeeperPoolWeights",
      "outputs": [
        {
          "internalType": "bool",
          "name": "",
          "type": "bool"
        }
      ],
      "stateMutability": "nonpayable",
      "type": "function"
    },
    {
      "inputs": [
        {
          "internalType": "address[]",
          "name": "lpTokens",
          "type": "address[]"
        }
      ],
      "name": "batchExecuteLpPoolWeights",
      "outputs": [
        {
          "internalType": "bool",
          "name": "",
          "type": "bool"
        }
      ],
      "stateMutability": "nonpayable",
      "type": "function"
    },
    {
      "inputs": [
        {
          "internalType": "address[]",
          "name": "tokens",
          "type": "address[]"
        },
        {
          "internalType": "uint256[]",
          "name": "weights",
          "type": "uint256[]"
        }
      ],
      "name": "batchPrepareAmmTokenWeights",
      "outputs": [
        {
          "internalType": "bool",
          "name": "",
          "type": "bool"
        }
      ],
      "stateMutability": "nonpayable",
      "type": "function"
    },
    {
      "inputs": [
        {
          "internalType": "address[]",
          "name": "pools",
          "type": "address[]"
        },
        {
          "internalType": "uint256[]",
          "name": "weights",
          "type": "uint256[]"
        }
      ],
      "name": "batchPrepareKeeperPoolWeights",
      "outputs": [
        {
          "internalType": "bool",
          "name": "",
          "type": "bool"
        }
      ],
      "stateMutability": "nonpayable",
      "type": "function"
    },
    {
      "inputs": [
        {
          "internalType": "address[]",
          "name": "lpTokens",
          "type": "address[]"
        },
        {
          "internalType": "uint256[]",
          "name": "weights",
          "type": "uint256[]"
        }
      ],
      "name": "batchPrepareLpPoolWeights",
      "outputs": [
        {
          "internalType": "bool",
          "name": "",
          "type": "bool"
        }
      ],
      "stateMutability": "nonpayable",
      "type": "function"
    },
    {
      "inputs": [
        {
          "internalType": "address",
          "name": "_keeperGauge",
          "type": "address"
        }
      ],
      "name": "callKillKeeperGauge",
      "outputs": [],
      "stateMutability": "nonpayable",
      "type": "function"
    },
    {
      "inputs": [],
      "name": "checkpointAllGauges",
      "outputs": [
        {
          "internalType": "bool",
          "name": "",
          "type": "bool"
        }
      ],
      "stateMutability": "nonpayable",
      "type": "function"
    },
    {
      "inputs": [
        {
          "internalType": "bytes32",
          "name": "",
          "type": "bytes32"
        }
      ],
      "name": "currentAddresses",
      "outputs": [
        {
          "internalType": "address",
          "name": "",
          "type": "address"
        }
      ],
      "stateMutability": "view",
      "type": "function"
    },
    {
      "inputs": [
        {
          "internalType": "bytes32",
          "name": "",
          "type": "bytes32"
        }
      ],
      "name": "currentUInts256",
      "outputs": [
        {
          "internalType": "uint256",
          "name": "",
          "type": "uint256"
        }
      ],
      "stateMutability": "view",
      "type": "function"
    },
    {
      "inputs": [],
      "name": "deactivateWeightBasedKeeperDistribution",
      "outputs": [
        {
          "internalType": "bool",
          "name": "",
          "type": "bool"
        }
      ],
      "stateMutability": "nonpayable",
      "type": "function"
    },
    {
      "inputs": [
        {
          "internalType": "bytes32",
          "name": "",
          "type": "bytes32"
        }
      ],
      "name": "deadlines",
      "outputs": [
        {
          "internalType": "uint256",
          "name": "",
          "type": "uint256"
        }
      ],
      "stateMutability": "view",
      "type": "function"
    },
    {
      "inputs": [
        {
          "internalType": "address",
          "name": "token",
          "type": "address"
        }
      ],
      "name": "executeAmmTokenWeight",
      "outputs": [
        {
          "internalType": "uint256",
          "name": "",
          "type": "uint256"
        }
      ],
      "stateMutability": "nonpayable",
      "type": "function"
    },
    {
      "inputs": [
        {
          "internalType": "address",
          "name": "pool",
          "type": "address"
        }
      ],
      "name": "executeKeeperPoolWeight",
      "outputs": [
        {
          "internalType": "uint256",
          "name": "",
          "type": "uint256"
        }
      ],
      "stateMutability": "nonpayable",
      "type": "function"
    },
    {
      "inputs": [
        {
          "internalType": "address",
          "name": "lpToken",
          "type": "address"
        }
      ],
      "name": "executeLpPoolWeight",
      "outputs": [
        {
          "internalType": "uint256",
          "name": "",
          "type": "uint256"
        }
      ],
      "stateMutability": "nonpayable",
      "type": "function"
    },
    {
      "inputs": [
        {
          "internalType": "address",
          "name": "",
          "type": "address"
        }
      ],
      "name": "gauges",
      "outputs": [
        {
          "internalType": "bool",
          "name": "",
          "type": "bool"
        }
      ],
      "stateMutability": "view",
      "type": "function"
    },
    {
      "inputs": [],
      "name": "getAllAmmGauges",
      "outputs": [
        {
          "internalType": "address[]",
          "name": "",
          "type": "address[]"
        }
      ],
      "stateMutability": "view",
      "type": "function"
    },
    {
      "inputs": [
        {
          "internalType": "address",
          "name": "token",
          "type": "address"
        }
      ],
      "name": "getAmmGaugeForToken",
      "outputs": [
        {
          "internalType": "address",
          "name": "",
          "type": "address"
        }
      ],
      "stateMutability": "view",
      "type": "function"
    },
    {
      "inputs": [
        {
          "internalType": "address",
          "name": "token",
          "type": "address"
        }
      ],
      "name": "getAmmRateForToken",
      "outputs": [
        {
          "internalType": "uint256",
          "name": "",
          "type": "uint256"
        }
      ],
      "stateMutability": "view",
      "type": "function"
    },
    {
      "inputs": [
        {
          "internalType": "address",
          "name": "token",
          "type": "address"
        }
      ],
      "name": "getAmmWeightForToken",
      "outputs": [
        {
          "internalType": "uint256",
          "name": "",
          "type": "uint256"
        }
      ],
      "stateMutability": "view",
      "type": "function"
    },
    {
      "inputs": [
        {
          "internalType": "address",
          "name": "pool",
          "type": "address"
        }
      ],
      "name": "getKeeperGaugeForPool",
      "outputs": [
        {
          "internalType": "address",
          "name": "",
          "type": "address"
        }
      ],
      "stateMutability": "view",
      "type": "function"
    },
    {
      "inputs": [
        {
          "internalType": "address",
          "name": "pool",
          "type": "address"
        }
      ],
      "name": "getKeeperRateForPool",
      "outputs": [
        {
          "internalType": "uint256",
          "name": "",
          "type": "uint256"
        }
      ],
      "stateMutability": "view",
      "type": "function"
    },
    {
      "inputs": [
        {
          "internalType": "address",
          "name": "pool",
          "type": "address"
        }
      ],
      "name": "getKeeperWeightForPool",
      "outputs": [
        {
          "internalType": "uint256",
          "name": "",
          "type": "uint256"
        }
      ],
      "stateMutability": "view",
      "type": "function"
    },
    {
      "inputs": [
        {
          "internalType": "address",
          "name": "lpToken",
          "type": "address"
        }
      ],
      "name": "getLpPoolWeight",
      "outputs": [
        {
          "internalType": "uint256",
          "name": "",
          "type": "uint256"
        }
      ],
      "stateMutability": "view",
      "type": "function"
    },
    {
      "inputs": [
        {
          "internalType": "address",
          "name": "stakerVault",
          "type": "address"
        }
      ],
      "name": "getLpRateForStakerVault",
      "outputs": [
        {
          "internalType": "uint256",
          "name": "",
          "type": "uint256"
        }
      ],
      "stateMutability": "view",
      "type": "function"
    },
    {
      "inputs": [
        {
          "internalType": "address",
          "name": "account",
          "type": "address"
        }
      ],
      "name": "isInflationWeightManager",
      "outputs": [
        {
          "internalType": "bool",
          "name": "",
          "type": "bool"
        }
      ],
      "stateMutability": "view",
      "type": "function"
    },
    {
      "inputs": [
        {
          "internalType": "address",
          "name": "beneficiary",
          "type": "address"
        },
        {
          "internalType": "uint256",
          "name": "amount",
          "type": "uint256"
        }
      ],
      "name": "mintRewards",
      "outputs": [],
      "stateMutability": "nonpayable",
      "type": "function"
    },
    {
      "inputs": [],
      "name": "minter",
      "outputs": [
        {
          "internalType": "address",
          "name": "",
          "type": "address"
        }
      ],
      "stateMutability": "view",
      "type": "function"
    },
    {
      "inputs": [
        {
          "internalType": "bytes32",
          "name": "",
          "type": "bytes32"
        }
      ],
      "name": "pendingAddresses",
      "outputs": [
        {
          "internalType": "address",
          "name": "",
          "type": "address"
        }
      ],
      "stateMutability": "view",
      "type": "function"
    },
    {
      "inputs": [
        {
          "internalType": "bytes32",
          "name": "",
          "type": "bytes32"
        }
      ],
      "name": "pendingUInts256",
      "outputs": [
        {
          "internalType": "uint256",
          "name": "",
          "type": "uint256"
        }
      ],
      "stateMutability": "view",
      "type": "function"
    },
    {
      "inputs": [
        {
          "internalType": "address",
          "name": "token",
          "type": "address"
        },
        {
          "internalType": "uint256",
          "name": "newTokenWeight",
          "type": "uint256"
        }
      ],
      "name": "prepareAmmTokenWeight",
      "outputs": [
        {
          "internalType": "bool",
          "name": "",
          "type": "bool"
        }
      ],
      "stateMutability": "nonpayable",
      "type": "function"
    },
    {
      "inputs": [
        {
          "internalType": "address",
          "name": "pool",
          "type": "address"
        },
        {
          "internalType": "uint256",
          "name": "newPoolWeight",
          "type": "uint256"
        }
      ],
      "name": "prepareKeeperPoolWeight",
      "outputs": [
        {
          "internalType": "bool",
          "name": "",
          "type": "bool"
        }
      ],
      "stateMutability": "nonpayable",
      "type": "function"
    },
    {
      "inputs": [
        {
          "internalType": "address",
          "name": "lpToken",
          "type": "address"
        },
        {
          "internalType": "uint256",
          "name": "newPoolWeight",
          "type": "uint256"
        }
      ],
      "name": "prepareLpPoolWeight",
      "outputs": [
        {
          "internalType": "bool",
          "name": "",
          "type": "bool"
        }
      ],
      "stateMutability": "nonpayable",
      "type": "function"
    },
    {
      "inputs": [
        {
          "internalType": "address",
          "name": "token",
          "type": "address"
        }
      ],
      "name": "removeAmmGauge",
      "outputs": [
        {
          "internalType": "bool",
          "name": "",
          "type": "bool"
        }
      ],
      "stateMutability": "nonpayable",
      "type": "function"
    },
    {
      "inputs": [
        {
          "internalType": "address",
          "name": "pool",
          "type": "address"
        }
      ],
      "name": "removeKeeperGauge",
      "outputs": [
        {
          "internalType": "bool",
          "name": "",
          "type": "bool"
        }
      ],
      "stateMutability": "nonpayable",
      "type": "function"
    },
    {
      "inputs": [
        {
          "internalType": "address",
          "name": "stakerVault",
          "type": "address"
        },
        {
          "internalType": "address",
          "name": "lpToken",
          "type": "address"
        }
      ],
      "name": "removeStakerVaultFromInflation",
      "outputs": [],
      "stateMutability": "nonpayable",
      "type": "function"
    },
    {
      "inputs": [],
      "name": "roleManager",
      "outputs": [
        {
          "internalType": "contract IRoleManager",
          "name": "",
          "type": "address"
        }
      ],
      "stateMutability": "view",
      "type": "function"
    },
    {
      "inputs": [
        {
          "internalType": "address",
          "name": "token",
          "type": "address"
        },
        {
          "internalType": "address",
          "name": "_ammGauge",
          "type": "address"
        }
      ],
      "name": "setAmmGauge",
      "outputs": [
        {
          "internalType": "bool",
          "name": "",
          "type": "bool"
        }
      ],
      "stateMutability": "nonpayable",
      "type": "function"
    },
    {
      "inputs": [
        {
          "internalType": "address",
          "name": "pool",
          "type": "address"
        },
        {
          "internalType": "address",
          "name": "_keeperGauge",
          "type": "address"
        }
      ],
      "name": "setKeeperGauge",
      "outputs": [
        {
          "internalType": "bool",
          "name": "",
          "type": "bool"
        }
      ],
      "stateMutability": "nonpayable",
      "type": "function"
    },
    {
      "inputs": [
        {
          "internalType": "address",
          "name": "_minter",
          "type": "address"
        }
      ],
      "name": "setMinter",
      "outputs": [
        {
          "internalType": "bool",
          "name": "",
          "type": "bool"
        }
      ],
      "stateMutability": "nonpayable",
      "type": "function"
    },
    {
      "inputs": [],
      "name": "totalAmmTokenWeight",
      "outputs": [
        {
          "internalType": "uint256",
          "name": "",
          "type": "uint256"
        }
      ],
      "stateMutability": "view",
      "type": "function"
    },
    {
      "inputs": [],
      "name": "totalKeeperPoolWeight",
      "outputs": [
        {
          "internalType": "uint256",
          "name": "",
          "type": "uint256"
        }
      ],
      "stateMutability": "view",
      "type": "function"
    },
    {
      "inputs": [],
      "name": "totalLpPoolWeight",
      "outputs": [
        {
          "internalType": "uint256",
          "name": "",
          "type": "uint256"
        }
      ],
      "stateMutability": "view",
      "type": "function"
    },
    {
      "inputs": [],
      "name": "weightBasedKeeperDistributionDeactivated",
      "outputs": [
        {
          "internalType": "bool",
          "name": "",
          "type": "bool"
        }
      ],
      "stateMutability": "view",
      "type": "function"
    },
    {
      "inputs": [
        {
          "internalType": "address",
          "name": "gauge",
          "type": "address"
        }
      ],
      "name": "whitelistGauge",
      "outputs": [],
      "stateMutability": "nonpayable",
      "type": "function"
    }
  ],
  "bytecode": "0x60c06040523480156200001157600080fd5b5060405162004d7838038062004d78833981016040819052620000349162000118565b8062000054816001600160a01b03166200006d60201b620038d01760201c565b6001600160a01b039081166080521660a052506200013f565b6040516321f8a72160e01b81526a3937b632a6b0b730b3b2b960a91b60048201526000906001600160a01b038316906321f8a7219060240160206040518083038186803b158015620000be57600080fd5b505afa158015620000d3573d6000803e3d6000fd5b505050506040513d601f19601f82011682018060405250810190620000f9919062000118565b92915050565b6001600160a01b03811681146200011557600080fd5b50565b6000602082840312156200012b57600080fd5b81516200013881620000ff565b9392505050565b60805160a051614bd4620001a4600039600081816103bf015281816108a001528181610d3a015281816111050152818161144d0152818161199e01528181611e4b0152818161276001528181612e730152613c590152600061395a0152614bd46000f3fe608060405234801561001057600080fd5b50600436106102ba5760003560e01c80637ddbc91111610182578063b662fc55116100e9578063df9f8fb7116100a2578063e3976edf1161007c578063e3976edf14610662578063f76c33991461068b578063fca3b5aa146106b4578063fd600b84146106c757600080fd5b8063df9f8fb714610629578063e00328581461063c578063e195a2151461064f57600080fd5b8063b662fc55146105bc578063b9a09fd5146105c4578063bea00b72146105e7578063c51dfc8f146105fa578063c9fb321a1461060d578063df9ccfff1461061657600080fd5b80638e01c1961161013b5780638e01c1961461053b5780639bbdd1ac1461054e5780639c6856fc14610561578063a871d4ee14610574578063aff1b7e414610589578063b2d918c1146105a957600080fd5b80637ddbc911146104d35780638461372f146104e657806385cabd98146104f95780638a75b2cd1461050c5780638d651082146105155780638d6dca551461052857600080fd5b8063346a4a51116102265780634bb38245116101df5780634bb38245146104605780635394ee051461047357806354a8f333146104875780636a20de921461049a5780636ad2d131146104ad57806372ec31a8146104c057600080fd5b8063346a4a51146103e15780633d65d2df146104015780633da3c28f146104145780634203505714610427578063430e2e571461043a5780634875e0521461044d57600080fd5b80631caea2c9116102785780631caea2c9146103655780631dc388ea14610378578063204b0b8d1461038b57806326ea87b01461039e5780632897a553146103a75780632954018c146103ba57600080fd5b8062435da5146102bf57806302d53462146102e457806307546172146102f95780630edb01e41461030c57806315dbfe6214610324578063187e66e314610352575b600080fd5b6102c76106da565b6040516001600160a01b0390911681526020015b60405180910390f35b6102f76102f236600461469f565b6106e9565b005b6005546102c7906001600160a01b031681565b610314610760565b60405190151581526020016102db565b6103446103323660046146bc565b60016020526000908152604090205481565b6040519081526020016102db565b6103146103603660046146d5565b610994565b6102f761037336600461469f565b610af4565b61034461038636600461469f565b610bf2565b6103146103993660046146d5565b610c29565b61034460075481565b6103446103b536600461469f565b610ec5565b6102c77f000000000000000000000000000000000000000000000000000000000000000081565b6103446103ef3660046146bc565b60046020526000908152604090205481565b61031461040f366004614746565b610fb6565b61034461042236600461469f565b611323565b61034461043536600461469f565b611401565b61031461044836600461469f565b611423565b61031461045b3660046147b2565b611601565b61031461046e3660046147eb565b611855565b60055461031490600160a01b900460ff1681565b610314610495366004614746565b611b2b565b6102f76104a83660046146d5565b611d45565b6103446104bb36600461469f565b611e27565b6103446104ce36600461469f565b611fd3565b6102c76104e136600461469f565b611fdf565b6103146104f43660046147b2565b611ff5565b61031461050736600461469f565b612339565b61034460085481565b610314610523366004614746565b6123d8565b61031461053636600461469f565b6125db565b61034461054936600461469f565b61273c565b61031461055c3660046147b2565b6127fe565b61034461056f36600461469f565b612b86565b61057c612c75565b6040516102db919061482d565b6103446105973660046146bc565b60036020526000908152604090205481565b6103146105b73660046146d5565b612c81565b610314612dc4565b6103146105d236600461469f565b600f6020526000908152604090205460ff1681565b6103446105f536600461469f565b613065565b6102f76106083660046147b2565b613086565b61034460065481565b6102c761062436600461469f565b61318c565b61031461063736600461469f565b61319a565b61031461064a3660046147eb565b613284565b61031461065d3660046147eb565b6133de565b6102c76106703660046146bc565b6000602081905290815260409020546001600160a01b031681565b6102c76106993660046146bc565b6002602052600090815260409020546001600160a01b031681565b6103146106c236600461469f565b61353b565b6103146106d536600461469f565b6136e1565b60006106e4613958565b905090565b806001600160a01b03166341c0e1b56040518163ffffffff1660e01b8152600401602060405180830381600087803b15801561072457600080fd5b505af1158015610738573d6000803e3d6000fd5b505050506040513d601f19601f8201168201806040525081019061075c919061487a565b5050565b600061076a613958565b604051632474521560e21b815269676f7665726e616e636560b01b60048201523360248201526001600160a01b0391909116906391d148549060440160206040518083038186803b1580156107be57600080fd5b505afa1580156107d2573d6000803e3d6000fd5b505050506040513d601f19601f820116820180604052508101906107f6919061487a565b604051806040016040528060138152602001600080516020614b1a833981519152815250906108415760405162461bcd60e51b8152600401610838919061489c565b60405180910390fd5b50600554600160a01b900460ff161561089c5760405162461bcd60e51b815260206004820152601f60248201527f5765696768742d626173656420646973742e2064656163746976617465642e006044820152606401610838565b60007f00000000000000000000000000000000000000000000000000000000000000006001600160a01b031663c5c63e656040518163ffffffff1660e01b815260040160006040518083038186803b1580156108f757600080fd5b505afa15801561090b573d6000803e3d6000fd5b505050506040513d6000823e601f3d908101601f191682016040526109339190810190614912565b805190915060005b8181101561097757610965838281518110610958576109586149d7565b602002602001015161397c565b8061096f81614a03565b91505061093b565b50506005805460ff60a01b1916600160a01b179055506001905090565b600069676f7665726e616e636560b01b7034b7333630ba34b7b72fb6b0b730b3b2b960791b6109c1613958565b6001600160a01b031663d756a4228383336040518463ffffffff1660e01b81526004016109f093929190614a1e565b60206040518083038186803b158015610a0857600080fd5b505afa158015610a1c573d6000803e3d6000fd5b505050506040513d601f19601f82011682018060405250810190610a40919061487a565b604051806040016040528060138152602001600080516020614b1a83398151915281525090610a825760405162461bcd60e51b8152600401610838919061489c565b50610a8e600c86613a76565b610ad05760405162461bcd60e51b8152602060048201526013602482015272185b5b4819d85d59d9481b9bdd08199bdd5b99606a1b6044820152606401610838565b6000610adb86613a92565b9050610ae78186613ad0565b5060019695505050505050565b6931b7b73a3937b63632b960b11b610b0a613958565b604051632474521560e21b8152600481018390523360248201526001600160a01b0391909116906391d148549060440160206040518083038186803b158015610b5257600080fd5b505afa158015610b66573d6000803e3d6000fd5b505050506040513d601f19601f82011682018060405250810190610b8a919061487a565b604051806040016040528060138152602001600080516020614b1a83398151915281525090610bcc5760405162461bcd60e51b8152600401610838919061489c565b50506001600160a01b03166000908152600f60205260409020805460ff19166001179055565b600080610bfe83613a92565b9050610c138382610c0e33612339565b613ae0565b5060009081526003602052604090205492915050565b600069676f7665726e616e636560b01b7034b7333630ba34b7b72fb6b0b730b3b2b960791b610c56613958565b6001600160a01b031663d756a4228383336040518463ffffffff1660e01b8152600401610c8593929190614a1e565b60206040518083038186803b158015610c9d57600080fd5b505afa158015610cb1573d6000803e3d6000fd5b505050506040513d601f19601f82011682018060405250810190610cd5919061487a565b604051806040016040528060138152602001600080516020614b1a83398151915281525090610d175760405162461bcd60e51b8152600401610838919061489c565b5060405163059eadeb60e41b81526001600160a01b0386811660048301526000917f0000000000000000000000000000000000000000000000000000000000000000909116906359eadeb09060240160206040518083038186803b158015610d7e57600080fd5b505afa158015610d92573d6000803e3d6000fd5b505050506040513d601f19601f82011682018060405250810190610db69190614a3d565b9050600f6000826001600160a01b0316632c8161246040518163ffffffff1660e01b815260040160206040518083038186803b158015610df557600080fd5b505afa158015610e09573d6000803e3d6000fd5b505050506040513d601f19601f82011682018060405250810190610e2d9190614a3d565b6001600160a01b031681526020808201929092526040908101600020548151808301909252601482527311d85d59d948191bd95cc81b9bdd08195e1a5cdd60621b928201929092529060ff16610e965760405162461bcd60e51b8152600401610838919061489c565b50610ea086613c37565b6000610eab82613d28565b9050610eb78187613ad0565b506001979650505050505050565b6005546000906001600160a01b03161580610ee05750600754155b15610eed57506000919050565b6000610ef883613d28565b90506000600560009054906101000a90046001600160a01b03166001600160a01b03166388258d316040518163ffffffff1660e01b815260040160206040518083038186803b158015610f4a57600080fd5b505afa158015610f5e573d6000803e3d6000fd5b505050506040513d601f19601f82011682018060405250810190610f829190614a5a565b60075460008481526003602052604081205492935091610fa3908490614a73565b610fad9190614a92565b95945050505050565b600069676f7665726e616e636560b01b7034b7333630ba34b7b72fb6b0b730b3b2b960791b610fe3613958565b6001600160a01b031663d756a4228383336040518463ffffffff1660e01b815260040161101293929190614a1e565b60206040518083038186803b15801561102a57600080fd5b505afa15801561103e573d6000803e3d6000fd5b505050506040513d601f19601f82011682018060405250810190611062919061487a565b604051806040016040528060138152602001600080516020614b1a833981519152815250906110a45760405162461bcd60e51b8152600401610838919061489c565b50858481146110f55760405162461bcd60e51b815260206004820152601b60248201527f496e76616c6964206c656e677468206f6620617267756d656e747300000000006044820152606401610838565b6000805b828110156113135760007f00000000000000000000000000000000000000000000000000000000000000006001600160a01b03166359eadeb08c8c85818110611144576111446149d7565b9050602002016020810190611159919061469f565b6040516001600160e01b031960e084901b1681526001600160a01b03909116600482015260240160206040518083038186803b15801561119857600080fd5b505afa1580156111ac573d6000803e3d6000fd5b505050506040513d601f19601f820116820180604052508101906111d09190614a3d565b905060006001600160a01b0316816001600160a01b0316632c8161246040518163ffffffff1660e01b815260040160206040518083038186803b15801561121657600080fd5b505afa15801561122a573d6000803e3d6000fd5b505050506040513d601f19601f8201168201806040525081019061124e9190614a3d565b6001600160a01b03161415604051806040016040528060118152602001701859191c995cdcc81b9bdd08199bdd5b99607a1b815250906112a15760405162461bcd60e51b8152600401610838919061489c565b506112d18b8b848181106112b7576112b76149d7565b90506020020160208101906112cc919061469f565b613c37565b6112da81613d28565b92506112fe838a8a858181106112f2576112f26149d7565b90506020020135613ad0565b5050808061130b90614a03565b9150506110f9565b5060019998505050505050505050565b6005546000906001600160a01b0316158061133e5750600854155b1561134b57506000919050565b600061135683613a92565b90506000600560009054906101000a90046001600160a01b03166001600160a01b031663877f16926040518163ffffffff1660e01b815260040160206040518083038186803b1580156113a857600080fd5b505afa1580156113bc573d6000803e3d6000fd5b505050506040513d601f19601f820116820180604052508101906113e09190614a5a565b60085460008481526003602052604081205492935091610fa3908490614a73565b60008061140d83613a92565b6000908152600360205260409020549392505050565b604051635b80b5fb60e11b815233600482018190526001600160a01b0383811660248401526000927f00000000000000000000000000000000000000000000000000000000000000009091169063b7016bf69060440160206040518083038186803b15801561149157600080fd5b505afa1580156114a5573d6000803e3d6000fd5b505050506040513d601f19601f820116820180604052508101906114c9919061487a565b604051806040016040528060138152602001600080516020614b1a8339815191528152509061150b5760405162461bcd60e51b8152600401610838919061489c565b506000816001600160a01b0316632c8161246040518163ffffffff1660e01b815260040160206040518083038186803b15801561154757600080fd5b505afa15801561155b573d6000803e3d6000fd5b505050506040513d601f19601f8201168201806040525081019061157f9190614a3d565b60408051808201909152601481527311d85d59d948191bd95cc81b9bdd08195e1a5cdd60621b60208201529091506001600160a01b0382166115d45760405162461bcd60e51b8152600401610838919061489c565b506001600160a01b03166000908152600f60205260409020805460ff191660019081179091559392505050565b600061160b613958565b604051632474521560e21b815269676f7665726e616e636560b01b60048201523360248201526001600160a01b0391909116906391d148549060440160206040518083038186803b15801561165f57600080fd5b505afa158015611673573d6000803e3d6000fd5b505050506040513d601f19601f82011682018060405250810190611697919061487a565b604051806040016040528060138152602001600080516020614b1a833981519152815250906116d95760405162461bcd60e51b8152600401610838919061489c565b506000826001600160a01b0316638d928af86040518163ffffffff1660e01b815260040160206040518083038186803b15801561171557600080fd5b505afa158015611729573d6000803e3d6000fd5b505050506040513d601f19601f8201168201806040525081019061174d9190614a3d565b9050836001600160a01b031663223e5479826001600160a01b03166307da06036040518163ffffffff1660e01b815260040160206040518083038186803b15801561179757600080fd5b505afa1580156117ab573d6000803e3d6000fd5b505050506040513d601f19601f820116820180604052508101906117cf9190614a3d565b6040516001600160e01b031960e084901b1681526001600160a01b039091166004820152602401602060405180830381600087803b15801561181057600080fd5b505af1158015611824573d6000803e3d6000fd5b505050506040513d601f19601f82011682018060405250810190611848919061487a565b5060019150505b92915050565b600069676f7665726e616e636560b01b7034b7333630ba34b7b72fb6b0b730b3b2b960791b611882613958565b6001600160a01b031663d756a4228383336040518463ffffffff1660e01b81526004016118b193929190614a1e565b60206040518083038186803b1580156118c957600080fd5b505afa1580156118dd573d6000803e3d6000fd5b505050506040513d601f19601f82011682018060405250810190611901919061487a565b604051806040016040528060138152602001600080516020614b1a833981519152815250906119435760405162461bcd60e51b8152600401610838919061489c565b508360005b81811015610ae7576000878783818110611964576119646149d7565b9050602002016020810190611979919061469f565b60405163059eadeb60e41b81526001600160a01b0380831660048301529192506000917f000000000000000000000000000000000000000000000000000000000000000016906359eadeb09060240160206040518083038186803b1580156119e057600080fd5b505afa1580156119f4573d6000803e3d6000fd5b505050506040513d601f19601f82011682018060405250810190611a189190614a3d565b905060006001600160a01b0316816001600160a01b0316632c8161246040518163ffffffff1660e01b815260040160206040518083038186803b158015611a5e57600080fd5b505afa158015611a72573d6000803e3d6000fd5b505050506040513d601f19601f82011682018060405250810190611a969190614a3d565b6001600160a01b03161415604051806040016040528060118152602001701859191c995cdcc81b9bdd08199bdd5b99607a1b81525090611ae95760405162461bcd60e51b8152600401610838919061489c565b50611af382613c37565b6000611afe82613d28565b9050611b14818484611b0f33612339565b613d48565b505050508080611b2390614a03565b915050611948565b600069676f7665726e616e636560b01b7034b7333630ba34b7b72fb6b0b730b3b2b960791b611b58613958565b6001600160a01b031663d756a4228383336040518463ffffffff1660e01b8152600401611b8793929190614a1e565b60206040518083038186803b158015611b9f57600080fd5b505afa158015611bb3573d6000803e3d6000fd5b505050506040513d601f19601f82011682018060405250810190611bd7919061487a565b604051806040016040528060138152602001600080516020614b1a83398151915281525090611c195760405162461bcd60e51b8152600401610838919061489c565b50856000858214611c6c5760405162461bcd60e51b815260206004820152601b60248201527f496e76616c6964206c656e677468206f6620617267756d656e747300000000006044820152606401610838565b60005b8281101561131357611ca98a8a83818110611c8c57611c8c6149d7565b9050602002016020810190611ca1919061469f565b600c90613a76565b611ceb5760405162461bcd60e51b8152602060048201526013602482015272185b5b4819d85d59d9481b9bdd08199bdd5b99606a1b6044820152606401610838565b611d1a8a8a83818110611d0057611d006149d7565b9050602002016020810190611d15919061469f565b613a92565b9150611d32828989848181106112f2576112f26149d7565b5080611d3d81614a03565b915050611c6f565b336000908152600f602090815260409182902054825180840190935260138352600080516020614b1a8339815191529183019190915260ff16611d9b5760405162461bcd60e51b8152600401610838919061489c565b506005546040516340c10f1960e01b81526001600160a01b03848116600483015260248201849052909116906340c10f1990604401602060405180830381600087803b158015611dea57600080fd5b505af1158015611dfe573d6000803e3d6000fd5b505050506040513d601f19601f82011682018060405250810190611e22919061487a565b505050565b60405163059eadeb60e41b81526001600160a01b03828116600483015260009182917f000000000000000000000000000000000000000000000000000000000000000016906359eadeb09060240160206040518083038186803b158015611e8d57600080fd5b505afa158015611ea1573d6000803e3d6000fd5b505050506040513d601f19601f82011682018060405250810190611ec59190614a3d565b905060006001600160a01b0316816001600160a01b0316632c8161246040518163ffffffff1660e01b815260040160206040518083038186803b158015611f0b57600080fd5b505afa158015611f1f573d6000803e3d6000fd5b505050506040513d601f19601f82011682018060405250810190611f439190614a3d565b6001600160a01b03161415604051806040016040528060118152602001701859191c995cdcc81b9bdd08199bdd5b99607a1b81525090611f965760405162461bcd60e51b8152600401610838919061489c565b50611fa083613c37565b6000611fab82613d28565b9050611fbc818584611b0f33612339565b506000908152600360205260409020549392505050565b60008061140d83613e96565b600080611fed600c84613eba565b949350505050565b6000611fff613958565b604051632474521560e21b815269676f7665726e616e636560b01b60048201523360248201526001600160a01b0391909116906391d148549060440160206040518083038186803b15801561205357600080fd5b505afa158015612067573d6000803e3d6000fd5b505050506040513d601f19601f8201168201806040525081019061208b919061487a565b604051806040016040528060138152602001600080516020614b1a833981519152815250906120cd5760405162461bcd60e51b8152600401610838919061489c565b5060405163fa3f8f1b60e01b81526001600160a01b03848116600483015283169063fa3f8f1b9060240160206040518083038186803b15801561210f57600080fd5b505afa158015612123573d6000803e3d6000fd5b505050506040513d601f19601f82011682018060405250810190612147919061487a565b6040518060400160405280601781526020017f61646472657373206e6f742077686974656c69737465640000000000000000008152509061219b5760405162461bcd60e51b8152600401610838919061489c565b5060006121a8600c613ee1565b905060005b818110156121f6576001600160a01b0384166121ca600c83613eec565b6001600160a01b031614156121e45760009250505061184f565b806121ee81614a03565b9150506121ad565b50612202600c85613a76565b15612300576000612214600c86613ef9565b9050806001600160a01b0316635790a0c86040518163ffffffff1660e01b8152600401602060405180830381600087803b15801561225157600080fd5b505af1158015612265573d6000803e3d6000fd5b505050506040513d601f19601f82011682018060405250810190612289919061487a565b50806001600160a01b03166341c0e1b56040518163ffffffff1660e01b8152600401602060405180830381600087803b1580156122c557600080fd5b505af11580156122d9573d6000803e3d6000fd5b505050506040513d601f19601f820116820180604052508101906122fd919061487a565b50505b61230c600c8585613f0e565b5050506001600160a01b03166000908152600f60205260409020805460ff19166001908117909155919050565b6000612343613958565b604051632474521560e21b81527034b7333630ba34b7b72fb6b0b730b3b2b960791b60048201526001600160a01b03848116602483015291909116906391d148549060440160206040518083038186803b1580156123a057600080fd5b505afa1580156123b4573d6000803e3d6000fd5b505050506040513d601f19601f8201168201806040525081019061184f919061487a565b60006123e2613958565b604051632474521560e21b815269676f7665726e616e636560b01b60048201523360248201526001600160a01b0391909116906391d148549060440160206040518083038186803b15801561243657600080fd5b505afa15801561244a573d6000803e3d6000fd5b505050506040513d601f19601f8201168201806040525081019061246e919061487a565b604051806040016040528060138152602001600080516020614b1a833981519152815250906124b05760405162461bcd60e51b8152600401610838919061489c565b5060408051808201909152601081526f1a5b9d985b1a5908185c99dd5b595b9d60821b602082015284908382146124fa5760405162461bcd60e51b8152600401610838919061489c565b506000805b82811015610eb75761253988888381811061251c5761251c6149d7565b9050602002016020810190612531919061469f565b600990613a76565b6040518060400160405280601081526020016f1a5b9d985b1a5908185c99dd5b595b9d60821b815250906125805760405162461bcd60e51b8152600401610838919061489c565b506125b0888883818110612596576125966149d7565b90506020020160208101906125ab919061469f565b613e96565b91506125c8828787848181106112f2576112f26149d7565b50806125d381614a03565b9150506124ff565b60006125e5613958565b604051632474521560e21b815269676f7665726e616e636560b01b60048201523360248201526001600160a01b0391909116906391d148549060440160206040518083038186803b15801561263957600080fd5b505afa15801561264d573d6000803e3d6000fd5b505050506040513d601f19601f82011682018060405250810190612671919061487a565b604051806040016040528060138152602001600080516020614b1a833981519152815250906126b35760405162461bcd60e51b8152600401610838919061489c565b506126bf600983613ef9565b6001600160a01b0316633cf80e6c6040518163ffffffff1660e01b8152600401602060405180830381600087803b1580156126f957600080fd5b505af115801561270d573d6000803e3d6000fd5b505050506040513d601f19601f82011682018060405250810190612731919061487a565b50600190505b919050565b60405163059eadeb60e41b81526001600160a01b03828116600483015260009182917f000000000000000000000000000000000000000000000000000000000000000016906359eadeb09060240160206040518083038186803b1580156127a257600080fd5b505afa1580156127b6573d6000803e3d6000fd5b505050506040513d601f19601f820116820180604052508101906127da9190614a3d565b905060006127e782613d28565b600090815260036020526040902054949350505050565b6000612808613958565b604051632474521560e21b815269676f7665726e616e636560b01b60048201523360248201526001600160a01b0391909116906391d148549060440160206040518083038186803b15801561285c57600080fd5b505afa158015612870573d6000803e3d6000fd5b505050506040513d601f19601f82011682018060405250810190612894919061487a565b604051806040016040528060138152602001600080516020614b1a833981519152815250906128d65760405162461bcd60e51b8152600401610838919061489c565b5060006128e36009613ee1565b90506000805b82811015612930576001600160a01b038516612906600983613eec565b6001600160a01b0316141561291e5760019150612930565b8061292881614a03565b9150506128e9565b50801580156129485750600554600160a01b900460ff165b8015612955575060018210155b156129655760009250505061184f565b600080612973600988613eba565b915091508115806129965750856001600160a01b0316816001600160a01b031614155b6040518060400160405280601081526020016f1a5b9d985b1a5908185c99dd5b595b9d60821b815250906129dd5760405162461bcd60e51b8152600401610838919061489c565b50818015612a595750806001600160a01b0316631f3a0e416040518163ffffffff1660e01b815260040160206040518083038186803b158015612a1f57600080fd5b505afa158015612a33573d6000803e3d6000fd5b505050506040513d601f19601f82011682018060405250810190612a57919061487a565b155b15612b4757806001600160a01b0316635790a0c86040518163ffffffff1660e01b8152600401602060405180830381600087803b158015612a9957600080fd5b505af1158015612aad573d6000803e3d6000fd5b505050506040513d601f19601f82011682018060405250810190612ad1919061487a565b50806001600160a01b03166341c0e1b56040518163ffffffff1660e01b8152600401602060405180830381600087803b158015612b0d57600080fd5b505af1158015612b21573d6000803e3d6000fd5b505050506040513d601f19601f82011682018060405250810190612b45919061487a565b505b612b5360098888613f0e565b5050506001600160a01b0384166000908152600f60205260409020805460ff191660019081179091559250505092915050565b6005546000906001600160a01b0316612ba157506000919050565b6005546040805163017e7eab60e71b815290516000926001600160a01b03169163bf3f5580916004808301926020929190829003018186803b158015612be657600080fd5b505afa158015612bfa573d6000803e3d6000fd5b505050506040513d601f19601f82011682018060405250810190612c1e9190614a5a565b600554909150600160a01b900460ff1615612c395792915050565b600654612c495750600092915050565b6000612c5484613e96565b60065460008281526003602052604081205492935091610fa3908590614a73565b60606106e4600c613f27565b6000612c8b613958565b604051632474521560e21b815269676f7665726e616e636560b01b60048201523360248201526001600160a01b0391909116906391d148549060440160206040518083038186803b158015612cdf57600080fd5b505afa158015612cf3573d6000803e3d6000fd5b505050506040513d601f19601f82011682018060405250810190612d17919061487a565b604051806040016040528060138152602001600080516020614b1a83398151915281525090612d595760405162461bcd60e51b8152600401610838919061489c565b50612d65600984613a76565b6040518060400160405280601081526020016f1a5b9d985b1a5908185c99dd5b595b9d60821b81525090612dac5760405162461bcd60e51b8152600401610838919061489c565b506000612db884613e96565b90506118488184613ad0565b600080612dd16009613ee1565b905060005b81811015612e6e57612de9600982613eec565b6001600160a01b0316635790a0c86040518163ffffffff1660e01b8152600401602060405180830381600087803b158015612e2357600080fd5b505af1158015612e37573d6000803e3d6000fd5b505050506040513d601f19601f82011682018060405250810190612e5b919061487a565b5080612e6681614a03565b915050612dd6565b5060007f00000000000000000000000000000000000000000000000000000000000000006001600160a01b03166375a8012b6040518163ffffffff1660e01b815260040160006040518083038186803b158015612eca57600080fd5b505afa158015612ede573d6000803e3d6000fd5b505050506040513d6000823e601f3d908101601f19168201604052612f069190810190614912565b905060005b8151811015612fb357818181518110612f2657612f266149d7565b60200260200101516001600160a01b0316635790a0c86040518163ffffffff1660e01b8152600401602060405180830381600087803b158015612f6857600080fd5b505af1158015612f7c573d6000803e3d6000fd5b505050506040513d601f19601f82011682018060405250810190612fa0919061487a565b5080612fab81614a03565b915050612f0b565b50612fbe600c613ee1565b915060005b8281101561305b57612fd6600c82613eec565b6001600160a01b0316635790a0c86040518163ffffffff1660e01b8152600401602060405180830381600087803b15801561301057600080fd5b505af1158015613024573d6000803e3d6000fd5b505050506040513d601f19601f82011682018060405250810190613048919061487a565b508061305381614a03565b915050612fc3565b5060019250505090565b60008061307183613e96565b9050610c13818461308133612339565b613fd6565b6931b7b73a3937b63632b960b11b61309c613958565b604051632474521560e21b8152600481018390523360248201526001600160a01b0391909116906391d148549060440160206040518083038186803b1580156130e457600080fd5b505afa1580156130f8573d6000803e3d6000fd5b505050506040513d601f19601f8201168201806040525081019061311c919061487a565b604051806040016040528060138152602001600080516020614b1a8339815191528152509061315e5760405162461bcd60e51b8152600401610838919061489c565b50600061316a84613d28565b9050613177816000613ad0565b506131858184866001613d48565b5050505050565b600080611fed600984613eba565b60006131a4613958565b604051632474521560e21b815269676f7665726e616e636560b01b60048201523360248201526001600160a01b0391909116906391d148549060440160206040518083038186803b1580156131f857600080fd5b505afa15801561320c573d6000803e3d6000fd5b505050506040513d601f19601f82011682018060405250810190613230919061487a565b604051806040016040528060138152602001600080516020614b1a833981519152815250906132725760405162461bcd60e51b8152600401610838919061489c565b5061327c8261397c565b506001919050565b600069676f7665726e616e636560b01b7034b7333630ba34b7b72fb6b0b730b3b2b960791b6132b1613958565b6001600160a01b031663d756a4228383336040518463ffffffff1660e01b81526004016132e093929190614a1e565b60206040518083038186803b1580156132f857600080fd5b505afa15801561330c573d6000803e3d6000fd5b505050506040513d601f19601f82011682018060405250810190613330919061487a565b604051806040016040528060138152602001600080516020614b1a833981519152815250906133725760405162461bcd60e51b8152600401610838919061489c565b50836000805b82811015610eb757613395888883818110612596576125966149d7565b91506133cb828989848181106133ad576133ad6149d7565b90506020020160208101906133c2919061469f565b61308133612339565b50806133d681614a03565b915050613378565b600069676f7665726e616e636560b01b7034b7333630ba34b7b72fb6b0b730b3b2b960791b61340b613958565b6001600160a01b031663d756a4228383336040518463ffffffff1660e01b815260040161343a93929190614a1e565b60206040518083038186803b15801561345257600080fd5b505afa158015613466573d6000803e3d6000fd5b505050506040513d601f19601f8201168201806040525081019061348a919061487a565b604051806040016040528060138152602001600080516020614b1a833981519152815250906134cc5760405162461bcd60e51b8152600401610838919061489c565b508360006134d933612339565b905060008060005b84811015611313578989828181106134fb576134fb6149d7565b9050602002016020810190613510919061469f565b915061351b82613a92565b9250613528828486613ae0565b508061353381614a03565b9150506134e1565b6000613545613958565b604051632474521560e21b815269676f7665726e616e636560b01b60048201523360248201526001600160a01b0391909116906391d148549060440160206040518083038186803b15801561359957600080fd5b505afa1580156135ad573d6000803e3d6000fd5b505050506040513d601f19601f820116820180604052508101906135d1919061487a565b604051806040016040528060138152602001600080516020614b1a833981519152815250906136135760405162461bcd60e51b8152600401610838919061489c565b506005546040805180820190915260168152751059191c995cdcc81a5cc8185b1c9958591e481cd95d60521b6020820152906001600160a01b03161561366c5760405162461bcd60e51b8152600401610838919061489c565b5060006001600160a01b0316826001600160a01b03161415604051806080016040528060448152602001614b5b60449139906136bb5760405162461bcd60e51b8152600401610838919061489c565b5050600580546001600160a01b0383166001600160a01b03199091161790556001919050565b60006136eb613958565b604051632474521560e21b815269676f7665726e616e636560b01b60048201523360248201526001600160a01b0391909116906391d148549060440160206040518083038186803b15801561373f57600080fd5b505afa158015613753573d6000803e3d6000fd5b505050506040513d601f19601f82011682018060405250810190613777919061487a565b604051806040016040528060138152602001600080516020614b1a833981519152815250906137b95760405162461bcd60e51b8152600401610838919061489c565b506137c5600c83613a76565b6137d157506000919050565b60006137de600c84613ef9565b905060006137eb84613a92565b90506137f8816000613ad0565b5061380584826001613ae0565b50816001600160a01b03166341c0e1b56040518163ffffffff1660e01b8152600401602060405180830381600087803b15801561384157600080fd5b505af1158015613855573d6000803e3d6000fd5b505050506040513d601f19601f82011682018060405250810190613879919061487a565b50613885600c8561411b565b50816001600160a01b0316846001600160a01b03167fcc16c499caeb153ba6505515fba6ee59e03ae0b2d58e71b0bf2f5d6c1edce18a60405160405180910390a35060019392505050565b6040516321f8a72160e01b81526a3937b632a6b0b730b3b2b960a91b60048201526000906001600160a01b038316906321f8a7219060240160206040518083038186803b15801561392057600080fd5b505afa158015613934573d6000803e3d6000fd5b505050506040513d601f19601f8201168201806040525081019061184f9190614a3d565b7f000000000000000000000000000000000000000000000000000000000000000090565b6000613989600983613ef9565b9050600061399683613e96565b90506139a3816000613ad0565b506139b081846001613fd6565b506139bc60098461411b565b50816001600160a01b03166341c0e1b56040518163ffffffff1660e01b8152600401602060405180830381600087803b1580156139f857600080fd5b505af1158015613a0c573d6000803e3d6000fd5b505050506040513d601f19601f82011682018060405250810190613a30919061487a565b50816001600160a01b0316836001600160a01b03167f17f0f96ae429677ea4738e76673566db1bd65621496eee49c94173e289e24dc860405160405180910390a3505050565b6000613a8b836001600160a01b038416614130565b9392505050565b600068185b5b55d95a59da1d60ba1b82604051602001613ab3929190614ab4565b604051602081830303815290604052805190602001209050919050565b6000613a8b83836203f48061413c565b6000613aed600c85613ef9565b6001600160a01b0316635790a0c86040518163ffffffff1660e01b8152600401602060405180830381600087803b158015613b2757600080fd5b505af1158015613b3b573d6000803e3d6000fd5b505050506040513d601f19601f82011682018060405250810190613b5f919061487a565b50600083815260016020908152604080832054600390925290912054600854613b889190614ad4565b613b929190614aeb565b6008819055613ba2576000613ba6565b6008545b60085581613bbc57613bb783614192565b613bd6565b600083815260016020526040902054613bd69084906141bd565b50836001600160a01b03167fae184fbf7bfb224f97d6249d7fa54401f07985f32c0dc355869f2268ef3211f56003600086815260200190815260200160002054604051613c2591815260200190565b60405180910390a25060019392505050565b604051633dea062f60e21b81526001600160a01b0382811660048301526000917f00000000000000000000000000000000000000000000000000000000000000009091169063f7a818bc9060240160206040518083038186803b158015613c9d57600080fd5b505afa158015613cb1573d6000803e3d6000fd5b505050506040513d601f19601f82011682018060405250810190613cd59190614a3d565b6001600160a01b03161415604051806040016040528060118152602001701859191c995cdcc81b9bdd08199bdd5b99607a1b8152509061075c5760405162461bcd60e51b8152600401610838919061489c565b6000671b1c15d95a59da1d60c21b82604051602001613ab3929190614ab4565b6000826001600160a01b0316635790a0c86040518163ffffffff1660e01b8152600401602060405180830381600087803b158015613d8557600080fd5b505af1158015613d99573d6000803e3d6000fd5b505050506040513d601f19601f82011682018060405250810190613dbd919061487a565b50600085815260016020908152604080832054600390925290912054600754613de69190614ad4565b613df09190614aeb565b6007819055613e00576000613e04565b6007545b60075581613e1a57613e1585614192565b613e34565b600085815260016020526040902054613e349086906141bd565b50836001600160a01b03167fed56e077a86640eda727b81e991a174258c5356858ae761a377afccf9fac283e6003600088815260200190815260200160002054604051613e8391815260200190565b60405180910390a2506001949350505050565b60006b1ad9595c195c95d95a59da1d60a21b82604051602001613ab3929190614ab4565b6000808080613ed2866001600160a01b038716614229565b909450925050505b9250929050565b600061184f82614263565b600080610fad848461426e565b6000613a8b836001600160a01b03841661427d565b6000611fed846001600160a01b038086169085166142ed565b60606000613f3483613ee1565b905060008167ffffffffffffffff811115613f5157613f516148f1565b604051908082528060200260200182016040528015613f7a578160200160208202803683370190505b50905060005b82811015613fce57613f928582613eec565b828281518110613fa457613fa46149d7565b6001600160a01b039092166020928302919091019091015280613fc681614a03565b915050613f80565b509392505050565b6000613fe3600984613ef9565b6001600160a01b0316635790a0c86040518163ffffffff1660e01b8152600401602060405180830381600087803b15801561401d57600080fd5b505af1158015614031573d6000803e3d6000fd5b505050506040513d601f19601f82011682018060405250810190614055919061487a565b5060008481526001602090815260408083205460039092529091205460065461407e9190614ad4565b6140889190614aeb565b600681905561409857600061409c565b6006545b600655816140b2576140ad84614192565b6140cc565b6000848152600160205260409020546140cc9085906141bd565b50826001600160a01b03167fd4087c97381173c70bcc96da898724a384de03e9b747eefe531406b538babeac6003600087815260200190815260200160002054604051613c2591815260200190565b6000613a8b836001600160a01b03841661430a565b6000613a8b8383614327565b6000614148848361433f565b600084815260016020908152604091829020859055815185815290810184905285917f0e6790002e78fb96ff1fdfe3a3bb2a86489d3f3923372c1fe5b6b1fed071eed49101613c25565b600061419d82614419565b6000828152600160205260409020546141b683826141bd565b5092915050565b6000828152600360209081526040808320805490859055600183528184208490556004835281842084905581518181529283018590529185917fcc0bafe2accb565ea70674bf4b2555e49a47d410fb9932dfab3e5f41855d0a2f910160405180910390a2509092915050565b60008181526002830160205260408120548190806142585761424b8585614130565b925060009150613eda9050565b600192509050613eda565b600061184f826144c2565b6000808080613ed286866144cc565b6000818152600283016020526040812054801515806142a157506142a18484614130565b613a8b5760405162461bcd60e51b815260206004820152601e60248201527f456e756d657261626c654d61703a206e6f6e6578697374656e74206b657900006044820152606401610838565b60008281526002840160205260408120829055611fed84846144f7565b60008181526002830160205260408120819055613a8b8383614503565b60008181526001830160205260408120541515613a8b565b6004600083815260200190815260200160002054600014604051806040016040528060128152602001710646561646c696e65206d75737420626520360741b8152509061439f5760405162461bcd60e51b8152600401610838919061489c565b5060408051808201909152601881527f64656c6179206265206174206c6561737420332064617973000000000000000060208201526203f4808210156143f85760405162461bcd60e51b8152600401610838919061489c565b506144038142614aeb565b6000928352600460205260409092209190915550565b60006004600083815260200190815260200160002054905080421015604051806060016040528060218152602001614b3a602191399061446c5760405162461bcd60e51b8152600401610838919061489c565b5060408051808201909152600d81526c0646561646c696e65206973203609c1b6020820152816144af5760405162461bcd60e51b8152600401610838919061489c565b5050600090815260046020526040812055565b600061184f825490565b600080806144da858561450f565b600081815260029690960160205260409095205494959350505050565b6000613a8b838361451b565b6000613a8b838361456a565b6000613a8b838361465d565b60008181526001830160205260408120546145625750815460018181018455600084815260208082209093018490558454848252828601909352604090209190915561184f565b50600061184f565b6000818152600183016020526040812054801561465357600061458e600183614ad4565b85549091506000906145a290600190614ad4565b90508181146146075760008660000182815481106145c2576145c26149d7565b90600052602060002001549050808760000184815481106145e5576145e56149d7565b6000918252602080832090910192909255918252600188019052604090208390555b855486908061461857614618614b03565b60019003818190600052602060002001600090559055856001016000868152602001908152602001600020600090556001935050505061184f565b600091505061184f565b6000826000018281548110614674576146746149d7565b9060005260206000200154905092915050565b6001600160a01b038116811461469c57600080fd5b50565b6000602082840312156146b157600080fd5b8135613a8b81614687565b6000602082840312156146ce57600080fd5b5035919050565b600080604083850312156146e857600080fd5b82356146f381614687565b946020939093013593505050565b60008083601f84011261471357600080fd5b50813567ffffffffffffffff81111561472b57600080fd5b6020830191508360208260051b8501011115613eda57600080fd5b6000806000806040858703121561475c57600080fd5b843567ffffffffffffffff8082111561477457600080fd5b61478088838901614701565b9096509450602087013591508082111561479957600080fd5b506147a687828801614701565b95989497509550505050565b600080604083850312156147c557600080fd5b82356147d081614687565b915060208301356147e081614687565b809150509250929050565b600080602083850312156147fe57600080fd5b823567ffffffffffffffff81111561481557600080fd5b61482185828601614701565b90969095509350505050565b6020808252825182820181905260009190848201906040850190845b8181101561486e5783516001600160a01b031683529284019291840191600101614849565b50909695505050505050565b60006020828403121561488c57600080fd5b81518015158114613a8b57600080fd5b600060208083528351808285015260005b818110156148c9578581018301518582016040015282016148ad565b818111156148db576000604083870101525b50601f01601f1916929092016040019392505050565b634e487b7160e01b600052604160045260246000fd5b805161273781614687565b6000602080838503121561492557600080fd5b825167ffffffffffffffff8082111561493d57600080fd5b818501915085601f83011261495157600080fd5b815181811115614963576149636148f1565b8060051b604051601f19603f83011681018181108582111715614988576149886148f1565b6040529182528482019250838101850191888311156149a657600080fd5b938501935b828510156149cb576149bc85614907565b845293850193928501926149ab565b98975050505050505050565b634e487b7160e01b600052603260045260246000fd5b634e487b7160e01b600052601160045260246000fd5b6000600019821415614a1757614a176149ed565b5060010190565b92835260208301919091526001600160a01b0316604082015260600190565b600060208284031215614a4f57600080fd5b8151613a8b81614687565b600060208284031215614a6c57600080fd5b5051919050565b6000816000190483118215151615614a8d57614a8d6149ed565b500290565b600082614aaf57634e487b7160e01b600052601260045260246000fd5b500490565b91825260601b6bffffffffffffffffffffffff1916602082015260340190565b600082821015614ae657614ae66149ed565b500390565b60008219821115614afe57614afe6149ed565b500190565b634e487b7160e01b600052603160045260246000fdfe756e617574686f72697a65642061636365737300000000000000000000000000646561646c696e6520686173206e6f74206265656e207265616368656420796574746865206d696e7465722061646472657373206f6620746865204c5020746f6b656e20616e642074686520706f6f6c206164647265737320646f206e6f74206d61746368a2646970667358221220f595697b0336d07d7661db59c2f9e7f9c8a9e5b6dd6fed1fc6bea0f32ecaa56b64736f6c63430008090033",
  "linkReferences": {},
  "deployedLinkReferences": {}
}