{
  "_format": "hh-sol-artifact-1",
  "contractName": "CoreProxy",
  "sourceName": "contracts/CoreProxy.sol",
  "abi": [
    {
      "inputs": [
        {
          "internalType": "address",
          "name": "_imp",
          "type": "address"
        }
      ],
      "stateMutability": "nonpayable",
      "type": "constructor"
    },
    {
      "anonymous": false,
      "inputs": [
        {
          "indexed": true,
          "internalType": "address",
          "name": "previousOwner",
          "type": "address"
        },
        {
          "indexed": true,
          "internalType": "address",
          "name": "newOwner",
          "type": "address"
        }
      ],
      "name": "OwnershipTransferred",
      "type": "event"
    },
    {
      "stateMutability": "nonpayable",
      "type": "fallback"
    },
    {
      "inputs": [],
      "name": "implement",
      "outputs": [
        {
          "internalType": "address",
          "name": "",
          "type": "address"
        }
      ],
      "stateMutability": "view",
      "type": "function"
    },
    {
      "inputs": [],
      "name": "owner",
      "outputs": [
        {
          "internalType": "address",
          "name": "",
          "type": "address"
        }
      ],
      "stateMutability": "view",
      "type": "function"
    },
    {
      "inputs": [],
      "name": "renounceOwnership",
      "outputs": [],
      "stateMutability": "nonpayable",
      "type": "function"
    },
    {
      "inputs": [
        {
          "internalType": "address",
          "name": "newOwner",
          "type": "address"
        }
      ],
      "name": "transferOwnership",
      "outputs": [],
      "stateMutability": "nonpayable",
      "type": "function"
    }
  ],
  "bytecode": "0x60a060405234801561001057600080fd5b5060405161040638038061040683398101604081905261002f9161009d565b6100383361004d565b60601b6001600160601b0319166080526100cb565b600080546001600160a01b038381166001600160a01b0319831681178455604051919092169283917f8be0079c531659141344cd1fd0a4f28419497f9722a3daafe3b4186f6b6457e09190a35050565b6000602082840312156100ae578081fd5b81516001600160a01b03811681146100c4578182fd5b9392505050565b60805160601c6103186100ee600039600081816051015260c801526103186000f3fe608060405234801561001057600080fd5b506004361061004c5760003560e01c8063715018a6146100935780638da5cb5b1461009d578063aa254851146100c6578063f2fde38b146100ec575b6040517f00000000000000000000000000000000000000000000000000000000000000009036600082376000803683855af43d806000843e81801561008f578184f35b8184fd5b61009b6100ff565b005b6000546001600160a01b03165b6040516001600160a01b03909116815260200160405180910390f35b7f00000000000000000000000000000000000000000000000000000000000000006100aa565b61009b6100fa3660046102b4565b61016a565b6000546001600160a01b0316331461015e5760405162461bcd60e51b815260206004820181905260248201527f4f776e61626c653a2063616c6c6572206973206e6f7420746865206f776e657260448201526064015b60405180910390fd5b610168600061024c565b565b6000546001600160a01b031633146101c45760405162461bcd60e51b815260206004820181905260248201527f4f776e61626c653a2063616c6c6572206973206e6f7420746865206f776e65726044820152606401610155565b6001600160a01b0381166102405760405162461bcd60e51b815260206004820152602660248201527f4f776e61626c653a206e6577206f776e657220697320746865207a65726f206160448201527f64647265737300000000000000000000000000000000000000000000000000006064820152608401610155565b6102498161024c565b50565b600080546001600160a01b038381167fffffffffffffffffffffffff0000000000000000000000000000000000000000831681178455604051919092169283917f8be0079c531659141344cd1fd0a4f28419497f9722a3daafe3b4186f6b6457e09190a35050565b6000602082840312156102c5578081fd5b81356001600160a01b03811681146102db578182fd5b939250505056fea2646970667358221220e123e308f709f273d6d2c0e3583c4d19d55e09d7c1cd273be06fb86e9c3dfc4164736f6c63430008040033",
  "linkReferences": {},
  "deployedLinkReferences": {}
}