{
  "_format": "hh-sol-artifact-1",
  "contractName": "RoyaltyVaultFactory",
  "sourceName": "contracts/RoyaltyVaultFactory.sol",
  "abi": [
    {
      "inputs": [
        {
          "internalType": "address",
          "name": "_royaltyVault",
          "type": "address"
        }
      ],
      "stateMutability": "nonpayable",
      "type": "constructor"
    },
    {
      "anonymous": false,
      "inputs": [
        {
          "indexed": false,
          "internalType": "address",
          "name": "vault",
          "type": "address"
        }
      ],
      "name": "VaultCreated",
      "type": "event"
    },
    {
      "inputs": [
        {
          "internalType": "address",
          "name": "_splitter",
          "type": "address"
        },
        {
          "internalType": "address",
          "name": "_royaltyAsset",
          "type": "address"
        }
      ],
      "name": "createVault",
      "outputs": [
        {
          "internalType": "address",
          "name": "vault",
          "type": "address"
        }
      ],
      "stateMutability": "nonpayable",
      "type": "function"
    },
    {
      "inputs": [],
      "name": "platformFee",
      "outputs": [
        {
          "internalType": "uint256",
          "name": "",
          "type": "uint256"
        }
      ],
      "stateMutability": "view",
      "type": "function"
    },
    {
      "inputs": [],
      "name": "platformFeeRecipient",
      "outputs": [
        {
          "internalType": "address",
          "name": "",
          "type": "address"
        }
      ],
      "stateMutability": "view",
      "type": "function"
    },
    {
      "inputs": [],
      "name": "royaltyAsset",
      "outputs": [
        {
          "internalType": "address",
          "name": "",
          "type": "address"
        }
      ],
      "stateMutability": "view",
      "type": "function"
    },
    {
      "inputs": [],
      "name": "royaltyVault",
      "outputs": [
        {
          "internalType": "address",
          "name": "",
          "type": "address"
        }
      ],
      "stateMutability": "view",
      "type": "function"
    },
    {
      "inputs": [
        {
          "internalType": "address",
          "name": "_vault",
          "type": "address"
        },
        {
          "internalType": "uint256",
          "name": "_platformFee",
          "type": "uint256"
        }
      ],
      "name": "setPlatformFee",
      "outputs": [],
      "stateMutability": "nonpayable",
      "type": "function"
    },
    {
      "inputs": [
        {
          "internalType": "address",
          "name": "_vault",
          "type": "address"
        },
        {
          "internalType": "address",
          "name": "_platformFeeRecipient",
          "type": "address"
        }
      ],
      "name": "setPlatformFeeRecipient",
      "outputs": [],
      "stateMutability": "nonpayable",
      "type": "function"
    },
    {
      "inputs": [],
      "name": "splitterProxy",
      "outputs": [
        {
          "internalType": "address",
          "name": "",
          "type": "address"
        }
      ],
      "stateMutability": "view",
      "type": "function"
    }
  ],
  "bytecode": "0x60a060405234801561001057600080fd5b50604051610ca2380380610ca283398101604081905261002f91610072565b60601b6001600160601b0319166080526101f4600255600380547370388c130222eae55a0527a2367486bf5d12d6e76001600160a01b03199091161790556100a0565b600060208284031215610083578081fd5b81516001600160a01b0381168114610099578182fd5b9392505050565b60805160601c610be56100bd600039600060d60152610be56000f3fe608060405234801561001057600080fd5b50600436106100885760003560e01c8063a3b577ab1161005b578063a3b577ab14610110578063c894ad4914610123578063cc92d31c14610136578063eb13554f1461014957600080fd5b806317126fe41461008d57806326232a2e146100a25780638db1afb1146100be57806393225993146100d1575b600080fd5b6100a061009b3660046103fc565b61015c565b005b6100ab60025481565b6040519081526020015b60405180910390f35b6100a06100cc36600461042e565b6102ba565b6100f87f000000000000000000000000000000000000000000000000000000000000000081565b6040516001600160a01b0390911681526020016100b5565b6000546100f8906001600160a01b031681565b6001546100f8906001600160a01b031681565b6100f86101443660046103fc565b610300565b6003546100f8906001600160a01b031681565b6001600160a01b0382166101d1576040517f08c379a000000000000000000000000000000000000000000000000000000000815260206004820152600d60248201527f496e76616c6964207661756c740000000000000000000000000000000000000060448201526064015b60405180910390fd5b6001600160a01b038116610241576040517f08c379a000000000000000000000000000000000000000000000000000000000815260206004820152601e60248201527f496e76616c696420706c6174666f726d2066656520726563697069656e74000060448201526064016101c8565b6040517f1871e2430000000000000000000000000000000000000000000000000000000081526001600160a01b038281166004830152831690631871e243906024015b600060405180830381600087803b15801561029e57600080fd5b505af11580156102b2573d6000803e3d6000fd5b505050505050565b6040517f12e8e2c3000000000000000000000000000000000000000000000000000000008152600481018290526001600160a01b038316906312e8e2c390602401610284565b600180546001600160a01b038481167fffffffffffffffffffffffff00000000000000000000000000000000000000009283168117909355600080549185169190921617815560408051602081019390935290910160405160208183030381529060405280519060200120604051610377906103d3565b8190604051809103906000f5905080158015610397573d6000803e3d6000fd5b50600180547fffffffffffffffffffffffff00000000000000000000000000000000000000009081169091556000805490911690559392505050565b6107588061045883390190565b80356001600160a01b03811681146103f757600080fd5b919050565b6000806040838503121561040e578182fd5b610417836103e0565b9150610425602084016103e0565b90509250929050565b60008060408385031215610440578182fd5b610449836103e0565b94602093909301359350505056fe608060405234801561001057600080fd5b5061001a336102f5565b336001600160a01b031663932259936040518163ffffffff1660e01b8152600401602060405180830381600087803b15801561005557600080fd5b505af1158015610069573d6000803e3d6000fd5b505050506040513d601f19601f8201168201806040525081019061008d9190610347565b600560006101000a8154816001600160a01b0302191690836001600160a01b03160217905550336001600160a01b031663c894ad496040518163ffffffff1660e01b8152600401602060405180830381600087803b1580156100ee57600080fd5b505af1158015610102573d6000803e3d6000fd5b505050506040513d601f19601f820116820180604052508101906101269190610347565b6000806101000a8154816001600160a01b0302191690836001600160a01b03160217905550336001600160a01b031663a3b577ab6040518163ffffffff1660e01b8152600401602060405180830381600087803b15801561018657600080fd5b505af115801561019a573d6000803e3d6000fd5b505050506040513d601f19601f820116820180604052508101906101be9190610347565b600160006101000a8154816001600160a01b0302191690836001600160a01b03160217905550336001600160a01b03166326232a2e6040518163ffffffff1660e01b8152600401602060405180830381600087803b15801561021f57600080fd5b505af1158015610233573d6000803e3d6000fd5b505050506040513d601f19601f820116820180604052508101906102579190610375565b600281905550336001600160a01b031663eb13554f6040518163ffffffff1660e01b8152600401602060405180830381600087803b15801561029857600080fd5b505af11580156102ac573d6000803e3d6000fd5b505050506040513d601f19601f820116820180604052508101906102d09190610347565b600380546001600160a01b0319166001600160a01b039290921691909117905561038d565b600480546001600160a01b038381166001600160a01b0319831681179093556040519116919082907f8be0079c531659141344cd1fd0a4f28419497f9722a3daafe3b4186f6b6457e090600090a35050565b600060208284031215610358578081fd5b81516001600160a01b038116811461036e578182fd5b9392505050565b600060208284031215610386578081fd5b5051919050565b6103bc8061039c6000396000f3fe6080604052600436106100745760003560e01c8063a3b577ab1161004e578063a3b577ab14610121578063c894ad4914610141578063eb13554f14610161578063f2fde38b146101815761007b565b806326232a2e146100af578063715018a6146100d85780638da5cb5b146100ef5761007b565b3661007b57005b6005546040516001600160a01b039091169036600082376000803683855af43d806000843e8180156100ab578184f35b8184fd5b3480156100bb57600080fd5b506100c560025481565b6040519081526020015b60405180910390f35b3480156100e457600080fd5b506100ed6101a1565b005b3480156100fb57600080fd5b506004546001600160a01b03165b6040516001600160a01b0390911681526020016100cf565b34801561012d57600080fd5b50600154610109906001600160a01b031681565b34801561014d57600080fd5b50600054610109906001600160a01b031681565b34801561016d57600080fd5b50600354610109906001600160a01b031681565b34801561018d57600080fd5b506100ed61019c366004610358565b61020c565b6004546001600160a01b031633146102005760405162461bcd60e51b815260206004820181905260248201527f4f776e61626c653a2063616c6c6572206973206e6f7420746865206f776e657260448201526064015b60405180910390fd5b61020a60006102ee565b565b6004546001600160a01b031633146102665760405162461bcd60e51b815260206004820181905260248201527f4f776e61626c653a2063616c6c6572206973206e6f7420746865206f776e657260448201526064016101f7565b6001600160a01b0381166102e25760405162461bcd60e51b815260206004820152602660248201527f4f776e61626c653a206e6577206f776e657220697320746865207a65726f206160448201527f646472657373000000000000000000000000000000000000000000000000000060648201526084016101f7565b6102eb816102ee565b50565b600480546001600160a01b038381167fffffffffffffffffffffffff0000000000000000000000000000000000000000831681179093556040519116919082907f8be0079c531659141344cd1fd0a4f28419497f9722a3daafe3b4186f6b6457e090600090a35050565b600060208284031215610369578081fd5b81356001600160a01b038116811461037f578182fd5b939250505056fea26469706673582212208859f9b3c78ed76dbe3cae2ad077bdf655cb548fade6700d483df83aaac0f7b364736f6c63430008040033a26469706673582212203bb179599835ff81bfc669d0ebcbc6bae6c7fd065f1fafe3560dfd6f32e0150364736f6c63430008040033",
  "linkReferences": {},
  "deployedLinkReferences": {}
}