{
  "_format": "hh-sol-artifact-1",
  "contractName": "MockAuraMath",
  "sourceName": "contracts/mocks/MockAuraMath.sol",
  "abi": [
    {
      "inputs": [],
      "stateMutability": "nonpayable",
      "type": "constructor"
    },
    {
      "inputs": [
        {
          "internalType": "uint112",
          "name": "a",
          "type": "uint112"
        },
        {
          "internalType": "uint112",
          "name": "b",
          "type": "uint112"
        }
      ],
      "name": "AuraMath112_add",
      "outputs": [
        {
          "internalType": "uint112",
          "name": "",
          "type": "uint112"
        }
      ],
      "stateMutability": "pure",
      "type": "function"
    },
    {
      "inputs": [
        {
          "internalType": "uint112",
          "name": "a",
          "type": "uint112"
        },
        {
          "internalType": "uint112",
          "name": "b",
          "type": "uint112"
        }
      ],
      "name": "AuraMath112_sub",
      "outputs": [
        {
          "internalType": "uint112",
          "name": "",
          "type": "uint112"
        }
      ],
      "stateMutability": "pure",
      "type": "function"
    },
    {
      "inputs": [
        {
          "internalType": "uint224",
          "name": "a",
          "type": "uint224"
        },
        {
          "internalType": "uint224",
          "name": "b",
          "type": "uint224"
        }
      ],
      "name": "AuraMath224_add",
      "outputs": [
        {
          "internalType": "uint224",
          "name": "",
          "type": "uint224"
        }
      ],
      "stateMutability": "pure",
      "type": "function"
    },
    {
      "inputs": [
        {
          "internalType": "uint32",
          "name": "a",
          "type": "uint32"
        },
        {
          "internalType": "uint32",
          "name": "b",
          "type": "uint32"
        }
      ],
      "name": "AuraMath32_sub",
      "outputs": [
        {
          "internalType": "uint32",
          "name": "",
          "type": "uint32"
        }
      ],
      "stateMutability": "pure",
      "type": "function"
    },
    {
      "inputs": [
        {
          "internalType": "uint256",
          "name": "a",
          "type": "uint256"
        },
        {
          "internalType": "uint256",
          "name": "b",
          "type": "uint256"
        }
      ],
      "name": "AuraMath_add",
      "outputs": [
        {
          "internalType": "uint256",
          "name": "",
          "type": "uint256"
        }
      ],
      "stateMutability": "pure",
      "type": "function"
    },
    {
      "inputs": [
        {
          "internalType": "uint256",
          "name": "a",
          "type": "uint256"
        },
        {
          "internalType": "uint256",
          "name": "b",
          "type": "uint256"
        }
      ],
      "name": "AuraMath_average",
      "outputs": [
        {
          "internalType": "uint256",
          "name": "",
          "type": "uint256"
        }
      ],
      "stateMutability": "pure",
      "type": "function"
    },
    {
      "inputs": [
        {
          "internalType": "uint256",
          "name": "a",
          "type": "uint256"
        },
        {
          "internalType": "uint256",
          "name": "b",
          "type": "uint256"
        }
      ],
      "name": "AuraMath_div",
      "outputs": [
        {
          "internalType": "uint256",
          "name": "",
          "type": "uint256"
        }
      ],
      "stateMutability": "pure",
      "type": "function"
    },
    {
      "inputs": [
        {
          "internalType": "uint256",
          "name": "a",
          "type": "uint256"
        },
        {
          "internalType": "uint256",
          "name": "b",
          "type": "uint256"
        }
      ],
      "name": "AuraMath_min",
      "outputs": [
        {
          "internalType": "uint256",
          "name": "",
          "type": "uint256"
        }
      ],
      "stateMutability": "pure",
      "type": "function"
    },
    {
      "inputs": [
        {
          "internalType": "uint256",
          "name": "a",
          "type": "uint256"
        },
        {
          "internalType": "uint256",
          "name": "b",
          "type": "uint256"
        }
      ],
      "name": "AuraMath_mul",
      "outputs": [
        {
          "internalType": "uint256",
          "name": "",
          "type": "uint256"
        }
      ],
      "stateMutability": "pure",
      "type": "function"
    },
    {
      "inputs": [
        {
          "internalType": "uint256",
          "name": "a",
          "type": "uint256"
        },
        {
          "internalType": "uint256",
          "name": "b",
          "type": "uint256"
        }
      ],
      "name": "AuraMath_sub",
      "outputs": [
        {
          "internalType": "uint256",
          "name": "",
          "type": "uint256"
        }
      ],
      "stateMutability": "pure",
      "type": "function"
    },
    {
      "inputs": [
        {
          "internalType": "uint256",
          "name": "a",
          "type": "uint256"
        }
      ],
      "name": "AuraMath_to112",
      "outputs": [
        {
          "internalType": "uint112",
          "name": "",
          "type": "uint112"
        }
      ],
      "stateMutability": "pure",
      "type": "function"
    },
    {
      "inputs": [
        {
          "internalType": "uint256",
          "name": "a",
          "type": "uint256"
        }
      ],
      "name": "AuraMath_to128",
      "outputs": [
        {
          "internalType": "uint128",
          "name": "",
          "type": "uint128"
        }
      ],
      "stateMutability": "pure",
      "type": "function"
    },
    {
      "inputs": [
        {
          "internalType": "uint256",
          "name": "a",
          "type": "uint256"
        }
      ],
      "name": "AuraMath_to224",
      "outputs": [
        {
          "internalType": "uint224",
          "name": "",
          "type": "uint224"
        }
      ],
      "stateMutability": "pure",
      "type": "function"
    },
    {
      "inputs": [
        {
          "internalType": "uint256",
          "name": "a",
          "type": "uint256"
        }
      ],
      "name": "AuraMath_to32",
      "outputs": [
        {
          "internalType": "uint32",
          "name": "",
          "type": "uint32"
        }
      ],
      "stateMutability": "pure",
      "type": "function"
    },
    {
      "inputs": [
        {
          "internalType": "uint256",
          "name": "a",
          "type": "uint256"
        }
      ],
      "name": "AuraMath_to96",
      "outputs": [
        {
          "internalType": "uint96",
          "name": "",
          "type": "uint96"
        }
      ],
      "stateMutability": "pure",
      "type": "function"
    }
  ],
  "bytecode": "0x608060405234801561001057600080fd5b50610874806100206000396000f3fe608060405234801561001057600080fd5b50600436106100f55760003560e01c806397234de011610097578063c027f3f411610066578063c027f3f414610268578063de6a49811461027b578063df2dacda1461028e578063e09bce43146102a157600080fd5b806397234de0146102075780639d94c6a21461021a578063a437cbeb14610242578063b666ebb21461025557600080fd5b80633ccf878a116100d35780633ccf878a1461015e57806356a2f2211461019057806363f03ceb146101c05780637e1a1ad5146101f457600080fd5b8063176ba6d4146100fa57806317dfdf751461012a578063232a77321461014b575b600080fd5b61010d610108366004610615565b6102b4565b6040516001600160e01b0390911681526020015b60405180910390f35b61013d61013836600461062e565b6102c5565b604051908152602001610121565b61013d61015936600461062e565b6102d8565b61017161016c366004610673565b6102e4565b6040516dffffffffffffffffffffffffffff9091168152602001610121565b6101a361019e366004610615565b6102f0565b6040516bffffffffffffffffffffffff9091168152602001610121565b6101d36101ce366004610615565b6102fb565b6040516fffffffffffffffffffffffffffffffff9091168152602001610121565b610171610202366004610615565b610306565b61013d61021536600461062e565b610311565b61022d610228366004610615565b61031d565b60405163ffffffff9091168152602001610121565b61013d61025036600461062e565b610328565b610171610263366004610673565b610334565b61013d61027636600461062e565b610340565b61013d61028936600461062e565b61034c565b61010d61029c3660046106bd565b610358565b61022d6102af3660046106fb565b610364565b60006102bf82610370565b92915050565b60006102d183836103d2565b9392505050565b60006102d183836103de565b60006102d183836103ea565b60006102bf826103f6565b60006102bf82610454565b60006102bf826104b6565b60006102d18383610516565b60006102bf8261052c565b60006102d18383610582565b60006102d183836105d9565b60006102d183836105e5565b60006102d183836105f1565b60006102d183836105fd565b60006102d18383610609565b60006001600160e01b038211156103ce5760405162461bcd60e51b815260206004820152601a60248201527f417572614d6174683a2075696e74323234204f766572666c6f7700000000000060448201526064015b60405180910390fd5b5090565b60006102d18284610751565b60006102d18284610765565b60006102d18284610784565b60006bffffffffffffffffffffffff8211156103ce5760405162461bcd60e51b815260206004820152601960248201527f417572614d6174683a2075696e743936204f766572666c6f770000000000000060448201526064016103c5565b60006fffffffffffffffffffffffffffffffff8211156103ce5760405162461bcd60e51b815260206004820152601a60248201527f417572614d6174683a2075696e74313238204f766572666c6f7700000000000060448201526064016103c5565b60006dffffffffffffffffffffffffffff8211156103ce5760405162461bcd60e51b815260206004820152601a60248201527f417572614d6174683a2075696e74313132204f766572666c6f7700000000000060448201526064016103c5565b600081831061052557816102d1565b5090919050565b600063ffffffff8211156103ce5760405162461bcd60e51b815260206004820152601960248201527f417572614d6174683a2075696e743332204f766572666c6f770000000000000060448201526064016103c5565b6000600261059081846107b3565b61059b6002866107b3565b6105a591906107c7565b6105af9190610751565b6105ba600284610751565b6105c5600286610751565b6105cf91906107c7565b6102d191906107c7565b60006102d182846107df565b60006102d182846107c7565b60006102d18284610811565b60006102d18284610828565b60006102d1828461084a565b60006020828403121561062757600080fd5b5035919050565b6000806040838503121561064157600080fd5b50508035926020909101359150565b80356dffffffffffffffffffffffffffff8116811461066e57600080fd5b919050565b6000806040838503121561068657600080fd5b61068f83610650565b915061069d60208401610650565b90509250929050565b80356001600160e01b038116811461066e57600080fd5b600080604083850312156106d057600080fd5b6106d9836106a6565b915061069d602084016106a6565b803563ffffffff8116811461066e57600080fd5b6000806040838503121561070e57600080fd5b610717836106e7565b915061069d602084016106e7565b634e487b7160e01b600052601260045260246000fd5b634e487b7160e01b600052601160045260246000fd5b60008261076057610760610725565b500490565b600081600019048311821515161561077f5761077f61073b565b500290565b60006dffffffffffffffffffffffffffff838116908316818110156107ab576107ab61073b565b039392505050565b6000826107c2576107c2610725565b500690565b600082198211156107da576107da61073b565b500190565b60006dffffffffffffffffffffffffffff8083168185168083038211156108085761080861073b565b01949350505050565b6000828210156108235761082361073b565b500390565b60006001600160e01b038083168185168083038211156108085761080861073b565b600063ffffffff838116908316818110156107ab576107ab61073b56fea164736f6c634300080b000a",
  "linkReferences": {},
  "deployedLinkReferences": {}
}