{
  "_format": "hh-sol-artifact-1",
  "contractName": "CrvDepositorWrapper",
  "sourceName": "contracts/CrvDepositorWrapper.sol",
  "abi": [
    {
      "inputs": [
        {
          "internalType": "address",
          "name": "_crvDeposit",
          "type": "address"
        },
        {
          "internalType": "contract IVault",
          "name": "_balancerVault",
          "type": "address"
        },
        {
          "internalType": "address",
          "name": "_bal",
          "type": "address"
        },
        {
          "internalType": "address",
          "name": "_weth",
          "type": "address"
        },
        {
          "internalType": "bytes32",
          "name": "_balETHPoolId",
          "type": "bytes32"
        }
      ],
      "stateMutability": "nonpayable",
      "type": "constructor"
    },
    {
      "inputs": [],
      "name": "BAL",
      "outputs": [
        {
          "internalType": "address",
          "name": "",
          "type": "address"
        }
      ],
      "stateMutability": "view",
      "type": "function"
    },
    {
      "inputs": [],
      "name": "BALANCER_POOL_TOKEN",
      "outputs": [
        {
          "internalType": "address",
          "name": "",
          "type": "address"
        }
      ],
      "stateMutability": "view",
      "type": "function"
    },
    {
      "inputs": [],
      "name": "BALANCER_VAULT",
      "outputs": [
        {
          "internalType": "contract IVault",
          "name": "",
          "type": "address"
        }
      ],
      "stateMutability": "view",
      "type": "function"
    },
    {
      "inputs": [],
      "name": "BAL_ETH_POOL_ID",
      "outputs": [
        {
          "internalType": "bytes32",
          "name": "",
          "type": "bytes32"
        }
      ],
      "stateMutability": "view",
      "type": "function"
    },
    {
      "inputs": [],
      "name": "WETH",
      "outputs": [
        {
          "internalType": "address",
          "name": "",
          "type": "address"
        }
      ],
      "stateMutability": "view",
      "type": "function"
    },
    {
      "inputs": [],
      "name": "crvDeposit",
      "outputs": [
        {
          "internalType": "address",
          "name": "",
          "type": "address"
        }
      ],
      "stateMutability": "view",
      "type": "function"
    },
    {
      "inputs": [
        {
          "internalType": "uint256",
          "name": "_amount",
          "type": "uint256"
        },
        {
          "internalType": "uint256",
          "name": "_minOut",
          "type": "uint256"
        },
        {
          "internalType": "bool",
          "name": "_lock",
          "type": "bool"
        },
        {
          "internalType": "address",
          "name": "_stakeAddress",
          "type": "address"
        }
      ],
      "name": "deposit",
      "outputs": [],
      "stateMutability": "nonpayable",
      "type": "function"
    },
    {
      "inputs": [
        {
          "internalType": "uint256",
          "name": "_amount",
          "type": "uint256"
        },
        {
          "internalType": "uint256",
          "name": "_outputBps",
          "type": "uint256"
        }
      ],
      "name": "getMinOut",
      "outputs": [
        {
          "internalType": "uint256",
          "name": "",
          "type": "uint256"
        }
      ],
      "stateMutability": "view",
      "type": "function"
    },
    {
      "inputs": [],
      "name": "setApprovals",
      "outputs": [],
      "stateMutability": "nonpayable",
      "type": "function"
    }
  ],
  "bytecode": "0x6101406040523480156200001257600080fd5b50604051620014793803806200147983398101604081905262000035916200014a565b838383836000846001600160a01b031663f6c00927836040518263ffffffff1660e01b81526004016200006a91815260200190565b6040805180830381865afa15801562000087573d6000803e3d6000fd5b505050506040513d601f19601f82011682018060405250810190620000ad9190620001be565b5090506001600160a01b038116620000fa5760405162461bcd60e51b815260206004820152600c60248201526b21706f6f6c4164647265737360a01b604482015260640160405180910390fd5b6001600160a01b0394851660805292841660a05290831660c05290821660e052610100529490941661012052506200020092505050565b6001600160a01b03811681146200014757600080fd5b50565b600080600080600060a086880312156200016357600080fd5b8551620001708162000131565b6020870151909550620001838162000131565b6040870151909450620001968162000131565b6060870151909350620001a98162000131565b80925050608086015190509295509295909350565b60008060408385031215620001d257600080fd5b8251620001df8162000131565b602084015190925060038110620001f557600080fd5b809150509250929050565b60805160a05160c05160e05161010051610120516111c8620002b16000396000818161017d015281816102cc015261035001526000818161012f015261061801526000818160e80152818161022201528181610380015261086e0152600081816101560152818161053901526106e50152600081816101cb0152818161049a015281816104e5015261073b0152600081816101a4015281816105e901528181610707015261075d01526111c86000f3fe608060405234801561001057600080fd5b50600436106100a35760003560e01c80638f1483f311610076578063b026e2271161005b578063b026e22714610178578063bc1638461461019f578063beeadf16146101c657600080fd5b80638f1483f31461012a578063ad5c46481461015157600080fd5b806323f15c17146100a85780632968f616146100ce578063804cca0a146100e35780638757b15b14610122575b600080fd5b6100bb6100b6366004610d50565b6101ed565b6040519081526020015b60405180910390f35b6100e16100dc366004610d83565b610200565b005b61010a7f000000000000000000000000000000000000000000000000000000000000000081565b6040516001600160a01b0390911681526020016100c5565b6100e1610331565b6100bb7f000000000000000000000000000000000000000000000000000000000000000081565b61010a7f000000000000000000000000000000000000000000000000000000000000000081565b61010a7f000000000000000000000000000000000000000000000000000000000000000081565b61010a7f000000000000000000000000000000000000000000000000000000000000000081565b61010a7f000000000000000000000000000000000000000000000000000000000000000081565b60006101f98383610440565b9392505050565b61020a848461048d565b6040516370a0823160e01b81523060048201526000907f00000000000000000000000000000000000000000000000000000000000000006001600160a01b0316906370a0823190602401602060405180830381865afa158015610271573d6000803e3d6000fd5b505050506040513d601f19601f820116820180604052508101906102959190610dd9565b604051631e97b6e960e01b81523360048201526024810182905284151560448201526001600160a01b0384811660648301529192507f000000000000000000000000000000000000000000000000000000000000000090911690631e97b6e990608401600060405180830381600087803b15801561031257600080fd5b505af1158015610326573d6000803e3d6000fd5b505050505050505050565b6103396106d8565b60405163095ea7b360e01b81526001600160a01b037f00000000000000000000000000000000000000000000000000000000000000008116600483015260001960248301527f0000000000000000000000000000000000000000000000000000000000000000169063095ea7b3906044016020604051808303816000875af11580156103c9573d6000803e3d6000fd5b505050506040513d601f19601f820116820180604052508101906103ed9190610df2565b61043e5760405162461bcd60e51b815260206004820152600960248201527f21617070726f76616c000000000000000000000000000000000000000000000060448201526064015b60405180910390fd5b565b60008061044b610784565b90506000612710848361046688670de0b6b3a7640000610e0f565b6104709190610e3c565b61047a9190610e0f565b6104849190610e3c565b95945050505050565b6104c26001600160a01b037f00000000000000000000000000000000000000000000000000000000000000001633308561091d565b6040805160028082526060820183526000926020830190803683370190505090507f00000000000000000000000000000000000000000000000000000000000000008160008151811061051757610517610e74565b60200260200101906001600160a01b031690816001600160a01b0316815250507f00000000000000000000000000000000000000000000000000000000000000008160018151811061056b5761056b610e74565b6001600160a01b0392909216602092830291909101820152604080516002808252606082018352600093919290918301908036833701905050905083816000815181106105ba576105ba610e74565b6020026020010181815250506000816001815181106105db576105db610e74565b6020026020010181815250507f00000000000000000000000000000000000000000000000000000000000000006001600160a01b031663b95cac287f0000000000000000000000000000000000000000000000000000000000000000303060405180608001604052808881526020018781526020016001888b60405160200161066693929190610ea0565b6040516020818303038152906040528152602001600015158152506040518563ffffffff1660e01b81526004016106a09493929190610f9a565b600060405180830381600087803b1580156106ba57600080fd5b505af11580156106ce573d6000803e3d6000fd5b5050505050505050565b61072e6001600160a01b037f0000000000000000000000000000000000000000000000000000000000000000167f00000000000000000000000000000000000000000000000000000000000000006000196109bb565b61043e6001600160a01b037f0000000000000000000000000000000000000000000000000000000000000000167f00000000000000000000000000000000000000000000000000000000000000006000196109bb565b604080516001808252818301909252600091829190816020015b6107c36040805160608101909152806000815260200160008152602001600081525090565b81526020019060019003908161079e5790505090506001816000815181106107ed576107ed610e74565b602002602001015160000190600281111561080a5761080a610e8a565b9081600281111561081d5761081d610e8a565b81525050610e108160008151811061083757610837610e74565b6020026020010151602001818152505060008160008151811061085c5761085c610e74565b602002602001015160400181815250507f00000000000000000000000000000000000000000000000000000000000000006001600160a01b0316631dccd830826040518263ffffffff1660e01b81526004016108b89190611065565b600060405180830381865afa1580156108d5573d6000803e3d6000fd5b505050506040513d6000823e601f3d908101601f191682016040526108fd91908101906110ce565b60008151811061090f5761090f610e74565b602002602001015191505090565b6040516001600160a01b03808516602483015283166044820152606481018290526109b59085906323b872dd60e01b906084015b60408051601f198184030181529190526020810180517bffffffffffffffffffffffffffffffffffffffffffffffffffffffff167fffffffff0000000000000000000000000000000000000000000000000000000090931692909217909152610adc565b50505050565b801580610a355750604051636eb1769f60e11b81523060048201526001600160a01b03838116602483015284169063dd62ed3e90604401602060405180830381865afa158015610a0f573d6000803e3d6000fd5b505050506040513d601f19601f82011682018060405250810190610a339190610dd9565b155b610aa75760405162461bcd60e51b815260206004820152603660248201527f5361666545524332303a20617070726f76652066726f6d206e6f6e2d7a65726f60448201527f20746f206e6f6e2d7a65726f20616c6c6f77616e6365000000000000000000006064820152608401610435565b6040516001600160a01b038316602482015260448101829052610ad790849063095ea7b360e01b90606401610951565b505050565b6000610b31826040518060400160405280602081526020017f5361666545524332303a206c6f772d6c6576656c2063616c6c206661696c6564815250856001600160a01b0316610bc19092919063ffffffff16565b805190915015610ad75780806020019051810190610b4f9190610df2565b610ad75760405162461bcd60e51b815260206004820152602a60248201527f5361666545524332303a204552433230206f7065726174696f6e20646964206e60448201527f6f742073756363656564000000000000000000000000000000000000000000006064820152608401610435565b6060610bd08484600085610bd8565b949350505050565b606082471015610c505760405162461bcd60e51b815260206004820152602660248201527f416464726573733a20696e73756666696369656e742062616c616e636520666f60448201527f722063616c6c00000000000000000000000000000000000000000000000000006064820152608401610435565b843b610c9e5760405162461bcd60e51b815260206004820152601d60248201527f416464726573733a2063616c6c20746f206e6f6e2d636f6e74726163740000006044820152606401610435565b600080866001600160a01b03168587604051610cba919061118c565b60006040518083038185875af1925050503d8060008114610cf7576040519150601f19603f3d011682016040523d82523d6000602084013e610cfc565b606091505b5091509150610d0c828286610d17565b979650505050505050565b60608315610d265750816101f9565b825115610d365782518084602001fd5b8160405162461bcd60e51b815260040161043591906111a8565b60008060408385031215610d6357600080fd5b50508035926020909101359150565b8015158114610d8057600080fd5b50565b60008060008060808587031215610d9957600080fd5b84359350602085013592506040850135610db281610d72565b915060608501356001600160a01b0381168114610dce57600080fd5b939692955090935050565b600060208284031215610deb57600080fd5b5051919050565b600060208284031215610e0457600080fd5b81516101f981610d72565b6000816000190483118215151615610e3757634e487b7160e01b600052601160045260246000fd5b500290565b600082610e5957634e487b7160e01b600052601260045260246000fd5b500490565b634e487b7160e01b600052604160045260246000fd5b634e487b7160e01b600052603260045260246000fd5b634e487b7160e01b600052602160045260246000fd5b60006060820160048610610eb657610eb6610e8a565b8583526020606081850152818651808452608086019150828801935060005b81811015610ef157845183529383019391830191600101610ed5565b5050809350505050826040830152949350505050565b600081518084526020808501945080840160005b83811015610f3757815187529582019590820190600101610f1b565b509495945050505050565b60005b83811015610f5d578181015183820152602001610f45565b838111156109b55750506000910152565b60008151808452610f86816020860160208601610f42565b601f01601f19169290920160200192915050565b848152600060206001600160a01b038087168285015280861660408501526080606085015261010084018551608080870152818151808452610120880191508583019350600092505b8083101561100557835185168252928501926001929092019190850190610fe3565b50848801519450607f199350838782030160a08801526110258186610f07565b94505050506040850151818584030160c08601526110438382610f6e565b92505050606084015161105a60e085018215159052565b509695505050505050565b602080825282518282018190526000919060409081850190868401855b828110156110c157815180516003811061109e5761109e610e8a565b855280870151878601528501518585015260609093019290850190600101611082565b5091979650505050505050565b600060208083850312156110e157600080fd5b825167ffffffffffffffff808211156110f957600080fd5b818501915085601f83011261110d57600080fd5b81518181111561111f5761111f610e5e565b8060051b604051601f19603f8301168101818110858211171561114457611144610e5e565b60405291825284820192508381018501918883111561116257600080fd5b938501935b8285101561118057845184529385019392850192611167565b98975050505050505050565b6000825161119e818460208701610f42565b9190910192915050565b6020815260006101f96020830184610f6e56fea164736f6c634300080b000a",
  "linkReferences": {},
  "deployedLinkReferences": {}
}