{
  "_format": "hh-sol-artifact-1",
  "contractName": "BatchLiquidator",
  "sourceName": "contracts/tests/BatchLiquidator.sol",
  "abi": [
    {
      "inputs": [
        {
          "internalType": "contract IClearingHouse",
          "name": "_clearingHouse",
          "type": "address"
        },
        {
          "internalType": "contract IMarginAccount",
          "name": "_marginAccount",
          "type": "address"
        }
      ],
      "stateMutability": "nonpayable",
      "type": "constructor"
    },
    {
      "anonymous": false,
      "inputs": [
        {
          "indexed": true,
          "internalType": "address",
          "name": "previousOwner",
          "type": "address"
        },
        {
          "indexed": true,
          "internalType": "address",
          "name": "newOwner",
          "type": "address"
        }
      ],
      "name": "OwnershipTransferred",
      "type": "event"
    },
    {
      "inputs": [],
      "name": "clearingHouse",
      "outputs": [
        {
          "internalType": "contract IClearingHouse",
          "name": "",
          "type": "address"
        }
      ],
      "stateMutability": "view",
      "type": "function"
    },
    {
      "inputs": [
        {
          "internalType": "address[]",
          "name": "traders",
          "type": "address[]"
        }
      ],
      "name": "liquidate",
      "outputs": [],
      "stateMutability": "nonpayable",
      "type": "function"
    },
    {
      "inputs": [
        {
          "internalType": "address[]",
          "name": "traders",
          "type": "address[]"
        }
      ],
      "name": "liquidateMakers",
      "outputs": [],
      "stateMutability": "nonpayable",
      "type": "function"
    },
    {
      "inputs": [
        {
          "internalType": "address[]",
          "name": "traders",
          "type": "address[]"
        }
      ],
      "name": "liquidateTakers",
      "outputs": [],
      "stateMutability": "nonpayable",
      "type": "function"
    },
    {
      "inputs": [],
      "name": "marginAccount",
      "outputs": [
        {
          "internalType": "contract IMarginAccount",
          "name": "",
          "type": "address"
        }
      ],
      "stateMutability": "view",
      "type": "function"
    },
    {
      "inputs": [],
      "name": "owner",
      "outputs": [
        {
          "internalType": "address",
          "name": "",
          "type": "address"
        }
      ],
      "stateMutability": "view",
      "type": "function"
    },
    {
      "inputs": [],
      "name": "renounceOwnership",
      "outputs": [],
      "stateMutability": "nonpayable",
      "type": "function"
    },
    {
      "inputs": [
        {
          "internalType": "address",
          "name": "newOwner",
          "type": "address"
        }
      ],
      "name": "transferOwnership",
      "outputs": [],
      "stateMutability": "nonpayable",
      "type": "function"
    },
    {
      "inputs": [
        {
          "internalType": "contract IERC20",
          "name": "token",
          "type": "address"
        }
      ],
      "name": "withdraw",
      "outputs": [],
      "stateMutability": "nonpayable",
      "type": "function"
    }
  ],
  "bytecode": "0x60c06040523480156200001157600080fd5b506040516200156b3803806200156b833981810160405281019062000037919062000256565b620000576200004b620000c760201b60201c565b620000cf60201b60201c565b8173ffffffffffffffffffffffffffffffffffffffff1660808173ffffffffffffffffffffffffffffffffffffffff16815250508073ffffffffffffffffffffffffffffffffffffffff1660a08173ffffffffffffffffffffffffffffffffffffffff168152505050506200029d565b600033905090565b60008060009054906101000a900473ffffffffffffffffffffffffffffffffffffffff169050816000806101000a81548173ffffffffffffffffffffffffffffffffffffffff021916908373ffffffffffffffffffffffffffffffffffffffff1602179055508173ffffffffffffffffffffffffffffffffffffffff168173ffffffffffffffffffffffffffffffffffffffff167f8be0079c531659141344cd1fd0a4f28419497f9722a3daafe3b4186f6b6457e060405160405180910390a35050565b600080fd5b600073ffffffffffffffffffffffffffffffffffffffff82169050919050565b6000620001c58262000198565b9050919050565b6000620001d982620001b8565b9050919050565b620001eb81620001cc565b8114620001f757600080fd5b50565b6000815190506200020b81620001e0565b92915050565b60006200021e82620001b8565b9050919050565b620002308162000211565b81146200023c57600080fd5b50565b600081519050620002508162000225565b92915050565b6000806040838503121562000270576200026f62000193565b5b60006200028085828601620001fa565b925050602062000293858286016200023f565b9150509250929050565b60805160a051611293620002d8600039600061069c01526000818161018a0152818161032a0152818161040201526105d201526112936000f3fe608060405234801561001057600080fd5b50600436106100935760003560e01c8063a985994b11610066578063a985994b146100fa578063cca6416914610116578063f2fde38b14610132578063f6e043ee1461014e578063f742269d1461016a57610093565b80630af968001461009857806351cff8d9146100b6578063715018a6146100d25780638da5cb5b146100dc575b600080fd5b6100a0610188565b6040516100ad9190610afc565b60405180910390f35b6100d060048036038101906100cb9190610b71565b6101ac565b005b6100da610269565b005b6100e46102f1565b6040516100f19190610bad565b60405180910390f35b610114600480360381019061010f9190610c2d565b61031a565b005b610130600480360381019061012b9190610c2d565b6103f2565b005b61014c60048036038101906101479190610ca6565b6104ca565b005b61016860048036038101906101639190610c2d565b6105c2565b005b61017261069a565b60405161017f9190610cf4565b60405180910390f35b7f000000000000000000000000000000000000000000000000000000000000000081565b6102666101b76102f1565b8273ffffffffffffffffffffffffffffffffffffffff166370a08231306040518263ffffffff1660e01b81526004016101f09190610bad565b60206040518083038186803b15801561020857600080fd5b505afa15801561021c573d6000803e3d6000fd5b505050506040513d601f19601f820116820180604052508101906102409190610d45565b8373ffffffffffffffffffffffffffffffffffffffff166106be9092919063ffffffff16565b50565b610271610744565b73ffffffffffffffffffffffffffffffffffffffff1661028f6102f1565b73ffffffffffffffffffffffffffffffffffffffff16146102e5576040517f08c379a00000000000000000000000000000000000000000000000000000000081526004016102dc90610dcf565b60405180910390fd5b6102ef600061074c565b565b60008060009054906101000a900473ffffffffffffffffffffffffffffffffffffffff16905090565b60005b828290508110156103ed577f000000000000000000000000000000000000000000000000000000000000000073ffffffffffffffffffffffffffffffffffffffff16632f86556884848481811061037757610376610def565b5b905060200201602081019061038c9190610ca6565b6040518263ffffffff1660e01b81526004016103a89190610bad565b600060405180830381600087803b1580156103c257600080fd5b505af11580156103d6573d6000803e3d6000fd5b5050505080806103e590610e4d565b91505061031d565b505050565b60005b828290508110156104c5577f000000000000000000000000000000000000000000000000000000000000000073ffffffffffffffffffffffffffffffffffffffff16631bde66e784848481811061044f5761044e610def565b5b90506020020160208101906104649190610ca6565b6040518263ffffffff1660e01b81526004016104809190610bad565b600060405180830381600087803b15801561049a57600080fd5b505af11580156104ae573d6000803e3d6000fd5b5050505080806104bd90610e4d565b9150506103f5565b505050565b6104d2610744565b73ffffffffffffffffffffffffffffffffffffffff166104f06102f1565b73ffffffffffffffffffffffffffffffffffffffff1614610546576040517f08c379a000000000000000000000000000000000000000000000000000000000815260040161053d90610dcf565b60405180910390fd5b600073ffffffffffffffffffffffffffffffffffffffff168173ffffffffffffffffffffffffffffffffffffffff1614156105b6576040517f08c379a00000000000000000000000000000000000000000000000000000000081526004016105ad90610f08565b60405180910390fd5b6105bf8161074c565b50565b60005b82829050811015610695577f000000000000000000000000000000000000000000000000000000000000000073ffffffffffffffffffffffffffffffffffffffff16638de17bcc84848481811061061f5761061e610def565b5b90506020020160208101906106349190610ca6565b6040518263ffffffff1660e01b81526004016106509190610bad565b600060405180830381600087803b15801561066a57600080fd5b505af115801561067e573d6000803e3d6000fd5b50505050808061068d90610e4d565b9150506105c5565b505050565b7f000000000000000000000000000000000000000000000000000000000000000081565b61073f8363a9059cbb60e01b84846040516024016106dd929190610f37565b604051602081830303815290604052907bffffffffffffffffffffffffffffffffffffffffffffffffffffffff19166020820180517bffffffffffffffffffffffffffffffffffffffffffffffffffffffff8381831617835250505050610810565b505050565b600033905090565b60008060009054906101000a900473ffffffffffffffffffffffffffffffffffffffff169050816000806101000a81548173ffffffffffffffffffffffffffffffffffffffff021916908373ffffffffffffffffffffffffffffffffffffffff1602179055508173ffffffffffffffffffffffffffffffffffffffff168173ffffffffffffffffffffffffffffffffffffffff167f8be0079c531659141344cd1fd0a4f28419497f9722a3daafe3b4186f6b6457e060405160405180910390a35050565b6000610872826040518060400160405280602081526020017f5361666545524332303a206c6f772d6c6576656c2063616c6c206661696c65648152508573ffffffffffffffffffffffffffffffffffffffff166108d79092919063ffffffff16565b90506000815111156108d257808060200190518101906108929190610f98565b6108d1576040517f08c379a00000000000000000000000000000000000000000000000000000000081526004016108c890611037565b60405180910390fd5b5b505050565b60606108e684846000856108ef565b90509392505050565b606082471015610934576040517f08c379a000000000000000000000000000000000000000000000000000000000815260040161092b906110c9565b60405180910390fd5b61093d85610a03565b61097c576040517f08c379a000000000000000000000000000000000000000000000000000000000815260040161097390611135565b60405180910390fd5b6000808673ffffffffffffffffffffffffffffffffffffffff1685876040516109a591906111cf565b60006040518083038185875af1925050503d80600081146109e2576040519150601f19603f3d011682016040523d82523d6000602084013e6109e7565b606091505b50915091506109f7828286610a16565b92505050949350505050565b600080823b905060008111915050919050565b60608315610a2657829050610a76565b600083511115610a395782518084602001fd5b816040517f08c379a0000000000000000000000000000000000000000000000000000000008152600401610a6d919061123b565b60405180910390fd5b9392505050565b600073ffffffffffffffffffffffffffffffffffffffff82169050919050565b6000819050919050565b6000610ac2610abd610ab884610a7d565b610a9d565b610a7d565b9050919050565b6000610ad482610aa7565b9050919050565b6000610ae682610ac9565b9050919050565b610af681610adb565b82525050565b6000602082019050610b116000830184610aed565b92915050565b600080fd5b600080fd5b6000610b2c82610a7d565b9050919050565b6000610b3e82610b21565b9050919050565b610b4e81610b33565b8114610b5957600080fd5b50565b600081359050610b6b81610b45565b92915050565b600060208284031215610b8757610b86610b17565b5b6000610b9584828501610b5c565b91505092915050565b610ba781610b21565b82525050565b6000602082019050610bc26000830184610b9e565b92915050565b600080fd5b600080fd5b600080fd5b60008083601f840112610bed57610bec610bc8565b5b8235905067ffffffffffffffff811115610c0a57610c09610bcd565b5b602083019150836020820283011115610c2657610c25610bd2565b5b9250929050565b60008060208385031215610c4457610c43610b17565b5b600083013567ffffffffffffffff811115610c6257610c61610b1c565b5b610c6e85828601610bd7565b92509250509250929050565b610c8381610b21565b8114610c8e57600080fd5b50565b600081359050610ca081610c7a565b92915050565b600060208284031215610cbc57610cbb610b17565b5b6000610cca84828501610c91565b91505092915050565b6000610cde82610ac9565b9050919050565b610cee81610cd3565b82525050565b6000602082019050610d096000830184610ce5565b92915050565b6000819050919050565b610d2281610d0f565b8114610d2d57600080fd5b50565b600081519050610d3f81610d19565b92915050565b600060208284031215610d5b57610d5a610b17565b5b6000610d6984828501610d30565b91505092915050565b600082825260208201905092915050565b7f4f776e61626c653a2063616c6c6572206973206e6f7420746865206f776e6572600082015250565b6000610db9602083610d72565b9150610dc482610d83565b602082019050919050565b60006020820190508181036000830152610de881610dac565b9050919050565b7f4e487b7100000000000000000000000000000000000000000000000000000000600052603260045260246000fd5b7f4e487b7100000000000000000000000000000000000000000000000000000000600052601160045260246000fd5b6000610e5882610d0f565b91507fffffffffffffffffffffffffffffffffffffffffffffffffffffffffffffffff821415610e8b57610e8a610e1e565b5b600182019050919050565b7f4f776e61626c653a206e6577206f776e657220697320746865207a65726f206160008201527f6464726573730000000000000000000000000000000000000000000000000000602082015250565b6000610ef2602683610d72565b9150610efd82610e96565b604082019050919050565b60006020820190508181036000830152610f2181610ee5565b9050919050565b610f3181610d0f565b82525050565b6000604082019050610f4c6000830185610b9e565b610f596020830184610f28565b9392505050565b60008115159050919050565b610f7581610f60565b8114610f8057600080fd5b50565b600081519050610f9281610f6c565b92915050565b600060208284031215610fae57610fad610b17565b5b6000610fbc84828501610f83565b91505092915050565b7f5361666545524332303a204552433230206f7065726174696f6e20646964206e60008201527f6f74207375636365656400000000000000000000000000000000000000000000602082015250565b6000611021602a83610d72565b915061102c82610fc5565b604082019050919050565b6000602082019050818103600083015261105081611014565b9050919050565b7f416464726573733a20696e73756666696369656e742062616c616e636520666f60008201527f722063616c6c0000000000000000000000000000000000000000000000000000602082015250565b60006110b3602683610d72565b91506110be82611057565b604082019050919050565b600060208201905081810360008301526110e2816110a6565b9050919050565b7f416464726573733a2063616c6c20746f206e6f6e2d636f6e7472616374000000600082015250565b600061111f601d83610d72565b915061112a826110e9565b602082019050919050565b6000602082019050818103600083015261114e81611112565b9050919050565b600081519050919050565b600081905092915050565b60005b8381101561118957808201518184015260208101905061116e565b83811115611198576000848401525b50505050565b60006111a982611155565b6111b38185611160565b93506111c381856020860161116b565b80840191505092915050565b60006111db828461119e565b915081905092915050565b600081519050919050565b6000601f19601f8301169050919050565b600061120d826111e6565b6112178185610d72565b935061122781856020860161116b565b611230816111f1565b840191505092915050565b600060208201905081810360008301526112558184611202565b90509291505056fea26469706673582212208b44a3943a5bdf67ed2dc478f9f2520bcac530f9d634aa480354432d1770f21264736f6c63430008090033",
  "linkReferences": {},
  "deployedLinkReferences": {}
}