{
  "_format": "hh-sol-artifact-1",
  "contractName": "ERC20PresetMinterPauserUpgradeable",
  "sourceName": "@openzeppelin/contracts-upgradeable/token/ERC20/presets/ERC20PresetMinterPauserUpgradeable.sol",
  "abi": [
    {
      "anonymous": false,
      "inputs": [
        {
          "indexed": true,
          "internalType": "address",
          "name": "owner",
          "type": "address"
        },
        {
          "indexed": true,
          "internalType": "address",
          "name": "spender",
          "type": "address"
        },
        {
          "indexed": false,
          "internalType": "uint256",
          "name": "value",
          "type": "uint256"
        }
      ],
      "name": "Approval",
      "type": "event"
    },
    {
      "anonymous": false,
      "inputs": [
        {
          "indexed": false,
          "internalType": "address",
          "name": "account",
          "type": "address"
        }
      ],
      "name": "Paused",
      "type": "event"
    },
    {
      "anonymous": false,
      "inputs": [
        {
          "indexed": true,
          "internalType": "bytes32",
          "name": "role",
          "type": "bytes32"
        },
        {
          "indexed": true,
          "internalType": "bytes32",
          "name": "previousAdminRole",
          "type": "bytes32"
        },
        {
          "indexed": true,
          "internalType": "bytes32",
          "name": "newAdminRole",
          "type": "bytes32"
        }
      ],
      "name": "RoleAdminChanged",
      "type": "event"
    },
    {
      "anonymous": false,
      "inputs": [
        {
          "indexed": true,
          "internalType": "bytes32",
          "name": "role",
          "type": "bytes32"
        },
        {
          "indexed": true,
          "internalType": "address",
          "name": "account",
          "type": "address"
        },
        {
          "indexed": true,
          "internalType": "address",
          "name": "sender",
          "type": "address"
        }
      ],
      "name": "RoleGranted",
      "type": "event"
    },
    {
      "anonymous": false,
      "inputs": [
        {
          "indexed": true,
          "internalType": "bytes32",
          "name": "role",
          "type": "bytes32"
        },
        {
          "indexed": true,
          "internalType": "address",
          "name": "account",
          "type": "address"
        },
        {
          "indexed": true,
          "internalType": "address",
          "name": "sender",
          "type": "address"
        }
      ],
      "name": "RoleRevoked",
      "type": "event"
    },
    {
      "anonymous": false,
      "inputs": [
        {
          "indexed": true,
          "internalType": "address",
          "name": "from",
          "type": "address"
        },
        {
          "indexed": true,
          "internalType": "address",
          "name": "to",
          "type": "address"
        },
        {
          "indexed": false,
          "internalType": "uint256",
          "name": "value",
          "type": "uint256"
        }
      ],
      "name": "Transfer",
      "type": "event"
    },
    {
      "anonymous": false,
      "inputs": [
        {
          "indexed": false,
          "internalType": "address",
          "name": "account",
          "type": "address"
        }
      ],
      "name": "Unpaused",
      "type": "event"
    },
    {
      "inputs": [],
      "name": "DEFAULT_ADMIN_ROLE",
      "outputs": [
        {
          "internalType": "bytes32",
          "name": "",
          "type": "bytes32"
        }
      ],
      "stateMutability": "view",
      "type": "function"
    },
    {
      "inputs": [],
      "name": "MINTER_ROLE",
      "outputs": [
        {
          "internalType": "bytes32",
          "name": "",
          "type": "bytes32"
        }
      ],
      "stateMutability": "view",
      "type": "function"
    },
    {
      "inputs": [],
      "name": "PAUSER_ROLE",
      "outputs": [
        {
          "internalType": "bytes32",
          "name": "",
          "type": "bytes32"
        }
      ],
      "stateMutability": "view",
      "type": "function"
    },
    {
      "inputs": [
        {
          "internalType": "address",
          "name": "owner",
          "type": "address"
        },
        {
          "internalType": "address",
          "name": "spender",
          "type": "address"
        }
      ],
      "name": "allowance",
      "outputs": [
        {
          "internalType": "uint256",
          "name": "",
          "type": "uint256"
        }
      ],
      "stateMutability": "view",
      "type": "function"
    },
    {
      "inputs": [
        {
          "internalType": "address",
          "name": "spender",
          "type": "address"
        },
        {
          "internalType": "uint256",
          "name": "amount",
          "type": "uint256"
        }
      ],
      "name": "approve",
      "outputs": [
        {
          "internalType": "bool",
          "name": "",
          "type": "bool"
        }
      ],
      "stateMutability": "nonpayable",
      "type": "function"
    },
    {
      "inputs": [
        {
          "internalType": "address",
          "name": "account",
          "type": "address"
        }
      ],
      "name": "balanceOf",
      "outputs": [
        {
          "internalType": "uint256",
          "name": "",
          "type": "uint256"
        }
      ],
      "stateMutability": "view",
      "type": "function"
    },
    {
      "inputs": [
        {
          "internalType": "uint256",
          "name": "amount",
          "type": "uint256"
        }
      ],
      "name": "burn",
      "outputs": [],
      "stateMutability": "nonpayable",
      "type": "function"
    },
    {
      "inputs": [
        {
          "internalType": "address",
          "name": "account",
          "type": "address"
        },
        {
          "internalType": "uint256",
          "name": "amount",
          "type": "uint256"
        }
      ],
      "name": "burnFrom",
      "outputs": [],
      "stateMutability": "nonpayable",
      "type": "function"
    },
    {
      "inputs": [],
      "name": "decimals",
      "outputs": [
        {
          "internalType": "uint8",
          "name": "",
          "type": "uint8"
        }
      ],
      "stateMutability": "view",
      "type": "function"
    },
    {
      "inputs": [
        {
          "internalType": "address",
          "name": "spender",
          "type": "address"
        },
        {
          "internalType": "uint256",
          "name": "subtractedValue",
          "type": "uint256"
        }
      ],
      "name": "decreaseAllowance",
      "outputs": [
        {
          "internalType": "bool",
          "name": "",
          "type": "bool"
        }
      ],
      "stateMutability": "nonpayable",
      "type": "function"
    },
    {
      "inputs": [
        {
          "internalType": "bytes32",
          "name": "role",
          "type": "bytes32"
        }
      ],
      "name": "getRoleAdmin",
      "outputs": [
        {
          "internalType": "bytes32",
          "name": "",
          "type": "bytes32"
        }
      ],
      "stateMutability": "view",
      "type": "function"
    },
    {
      "inputs": [
        {
          "internalType": "bytes32",
          "name": "role",
          "type": "bytes32"
        },
        {
          "internalType": "uint256",
          "name": "index",
          "type": "uint256"
        }
      ],
      "name": "getRoleMember",
      "outputs": [
        {
          "internalType": "address",
          "name": "",
          "type": "address"
        }
      ],
      "stateMutability": "view",
      "type": "function"
    },
    {
      "inputs": [
        {
          "internalType": "bytes32",
          "name": "role",
          "type": "bytes32"
        }
      ],
      "name": "getRoleMemberCount",
      "outputs": [
        {
          "internalType": "uint256",
          "name": "",
          "type": "uint256"
        }
      ],
      "stateMutability": "view",
      "type": "function"
    },
    {
      "inputs": [
        {
          "internalType": "bytes32",
          "name": "role",
          "type": "bytes32"
        },
        {
          "internalType": "address",
          "name": "account",
          "type": "address"
        }
      ],
      "name": "grantRole",
      "outputs": [],
      "stateMutability": "nonpayable",
      "type": "function"
    },
    {
      "inputs": [
        {
          "internalType": "bytes32",
          "name": "role",
          "type": "bytes32"
        },
        {
          "internalType": "address",
          "name": "account",
          "type": "address"
        }
      ],
      "name": "hasRole",
      "outputs": [
        {
          "internalType": "bool",
          "name": "",
          "type": "bool"
        }
      ],
      "stateMutability": "view",
      "type": "function"
    },
    {
      "inputs": [
        {
          "internalType": "address",
          "name": "spender",
          "type": "address"
        },
        {
          "internalType": "uint256",
          "name": "addedValue",
          "type": "uint256"
        }
      ],
      "name": "increaseAllowance",
      "outputs": [
        {
          "internalType": "bool",
          "name": "",
          "type": "bool"
        }
      ],
      "stateMutability": "nonpayable",
      "type": "function"
    },
    {
      "inputs": [
        {
          "internalType": "string",
          "name": "name",
          "type": "string"
        },
        {
          "internalType": "string",
          "name": "symbol",
          "type": "string"
        }
      ],
      "name": "initialize",
      "outputs": [],
      "stateMutability": "nonpayable",
      "type": "function"
    },
    {
      "inputs": [
        {
          "internalType": "address",
          "name": "to",
          "type": "address"
        },
        {
          "internalType": "uint256",
          "name": "amount",
          "type": "uint256"
        }
      ],
      "name": "mint",
      "outputs": [],
      "stateMutability": "nonpayable",
      "type": "function"
    },
    {
      "inputs": [],
      "name": "name",
      "outputs": [
        {
          "internalType": "string",
          "name": "",
          "type": "string"
        }
      ],
      "stateMutability": "view",
      "type": "function"
    },
    {
      "inputs": [],
      "name": "pause",
      "outputs": [],
      "stateMutability": "nonpayable",
      "type": "function"
    },
    {
      "inputs": [],
      "name": "paused",
      "outputs": [
        {
          "internalType": "bool",
          "name": "",
          "type": "bool"
        }
      ],
      "stateMutability": "view",
      "type": "function"
    },
    {
      "inputs": [
        {
          "internalType": "bytes32",
          "name": "role",
          "type": "bytes32"
        },
        {
          "internalType": "address",
          "name": "account",
          "type": "address"
        }
      ],
      "name": "renounceRole",
      "outputs": [],
      "stateMutability": "nonpayable",
      "type": "function"
    },
    {
      "inputs": [
        {
          "internalType": "bytes32",
          "name": "role",
          "type": "bytes32"
        },
        {
          "internalType": "address",
          "name": "account",
          "type": "address"
        }
      ],
      "name": "revokeRole",
      "outputs": [],
      "stateMutability": "nonpayable",
      "type": "function"
    },
    {
      "inputs": [
        {
          "internalType": "bytes4",
          "name": "interfaceId",
          "type": "bytes4"
        }
      ],
      "name": "supportsInterface",
      "outputs": [
        {
          "internalType": "bool",
          "name": "",
          "type": "bool"
        }
      ],
      "stateMutability": "view",
      "type": "function"
    },
    {
      "inputs": [],
      "name": "symbol",
      "outputs": [
        {
          "internalType": "string",
          "name": "",
          "type": "string"
        }
      ],
      "stateMutability": "view",
      "type": "function"
    },
    {
      "inputs": [],
      "name": "totalSupply",
      "outputs": [
        {
          "internalType": "uint256",
          "name": "",
          "type": "uint256"
        }
      ],
      "stateMutability": "view",
      "type": "function"
    },
    {
      "inputs": [
        {
          "internalType": "address",
          "name": "recipient",
          "type": "address"
        },
        {
          "internalType": "uint256",
          "name": "amount",
          "type": "uint256"
        }
      ],
      "name": "transfer",
      "outputs": [
        {
          "internalType": "bool",
          "name": "",
          "type": "bool"
        }
      ],
      "stateMutability": "nonpayable",
      "type": "function"
    },
    {
      "inputs": [
        {
          "internalType": "address",
          "name": "sender",
          "type": "address"
        },
        {
          "internalType": "address",
          "name": "recipient",
          "type": "address"
        },
        {
          "internalType": "uint256",
          "name": "amount",
          "type": "uint256"
        }
      ],
      "name": "transferFrom",
      "outputs": [
        {
          "internalType": "bool",
          "name": "",
          "type": "bool"
        }
      ],
      "stateMutability": "nonpayable",
      "type": "function"
    },
    {
      "inputs": [],
      "name": "unpause",
      "outputs": [],
      "stateMutability": "nonpayable",
      "type": "function"
    }
  ],
  "bytecode": "0x608060405234801561001057600080fd5b50614111806100206000396000f3fe608060405234801561001057600080fd5b50600436106101cf5760003560e01c80635c975abb11610104578063a217fddf116100a2578063d539139311610071578063d539139314610554578063d547741f14610572578063dd62ed3e1461058e578063e63ab1e9146105be576101cf565b8063a217fddf146104a6578063a457c2d7146104c4578063a9059cbb146104f4578063ca15c87314610524576101cf565b80638456cb59116100de5780638456cb591461041e5780639010d07c1461042857806391d148541461045857806395d89b4114610488576101cf565b80635c975abb146103b457806370a08231146103d257806379cc679014610402576101cf565b8063313ce567116101715780633f4ba83a1161014b5780633f4ba83a1461035657806340c10f191461036057806342966c681461037c5780634cd88b7614610398576101cf565b8063313ce567146102ec57806336568abe1461030a5780633950935114610326576101cf565b806318160ddd116101ad57806318160ddd1461025257806323b872dd14610270578063248a9ca3146102a05780632f2ff15d146102d0576101cf565b806301ffc9a7146101d457806306fdde0314610204578063095ea7b314610222575b600080fd5b6101ee60048036038101906101e99190612cdd565b6105dc565b6040516101fb9190612d25565b60405180910390f35b61020c610656565b6040516102199190612dd9565b60405180910390f35b61023c60048036038101906102379190612e8f565b6106e8565b6040516102499190612d25565b60405180910390f35b61025a610706565b6040516102679190612ede565b60405180910390f35b61028a60048036038101906102859190612ef9565b610710565b6040516102979190612d25565b60405180910390f35b6102ba60048036038101906102b59190612f82565b610808565b6040516102c79190612fbe565b60405180910390f35b6102ea60048036038101906102e59190612fd9565b610828565b005b6102f461085c565b6040516103019190613035565b60405180910390f35b610324600480360381019061031f9190612fd9565b610865565b005b610340600480360381019061033b9190612e8f565b610899565b60405161034d9190612d25565b60405180910390f35b61035e610945565b005b61037a60048036038101906103759190612e8f565b6109bf565b005b61039660048036038101906103919190613050565b610a3d565b005b6103b260048036038101906103ad91906131b2565b610a51565b005b6103bc610b36565b6040516103c99190612d25565b60405180910390f35b6103ec60048036038101906103e7919061322a565b610b4e565b6040516103f99190612ede565b60405180910390f35b61041c60048036038101906104179190612e8f565b610b97565b005b610426610c12565b005b610442600480360381019061043d9190613257565b610c8c565b60405161044f91906132a6565b60405180910390f35b610472600480360381019061046d9190612fd9565b610cbb565b60405161047f9190612d25565b60405180910390f35b610490610d26565b60405161049d9190612dd9565b60405180910390f35b6104ae610db8565b6040516104bb9190612fbe565b60405180910390f35b6104de60048036038101906104d99190612e8f565b610dbf565b6040516104eb9190612d25565b60405180910390f35b61050e60048036038101906105099190612e8f565b610eaa565b60405161051b9190612d25565b60405180910390f35b61053e60048036038101906105399190612f82565b610ec8565b60405161054b9190612ede565b60405180910390f35b61055c610eec565b6040516105699190612fbe565b60405180910390f35b61058c60048036038101906105879190612fd9565b610f10565b005b6105a860048036038101906105a391906132c1565b610f44565b6040516105b59190612ede565b60405180910390f35b6105c6610fcb565b6040516105d39190612fbe565b60405180910390f35b60007f5a05180f000000000000000000000000000000000000000000000000000000007bffffffffffffffffffffffffffffffffffffffffffffffffffffffff1916827bffffffffffffffffffffffffffffffffffffffffffffffffffffffff1916148061064f575061064e82610fef565b5b9050919050565b606060cc805461066590613330565b80601f016020809104026020016040519081016040528092919081815260200182805461069190613330565b80156106de5780601f106106b3576101008083540402835291602001916106de565b820191906000526020600020905b8154815290600101906020018083116106c157829003601f168201915b5050505050905090565b60006106fc6106f5611069565b8484611071565b6001905092915050565b600060cb54905090565b600061071d84848461123c565b600060ca60008673ffffffffffffffffffffffffffffffffffffffff1673ffffffffffffffffffffffffffffffffffffffff1681526020019081526020016000206000610768611069565b73ffffffffffffffffffffffffffffffffffffffff1673ffffffffffffffffffffffffffffffffffffffff168152602001908152602001600020549050828110156107e8576040517f08c379a00000000000000000000000000000000000000000000000000000000081526004016107df906133d4565b60405180910390fd5b6107fc856107f4611069565b858403611071565b60019150509392505050565b600060656000838152602001908152602001600020600101549050919050565b61083282826114c0565b61085781609760008581526020019081526020016000206114e990919063ffffffff16565b505050565b60006012905090565b61086f8282611519565b610894816097600085815260200190815260200160002061159c90919063ffffffff16565b505050565b600061093b6108a6611069565b848460ca60006108b4611069565b73ffffffffffffffffffffffffffffffffffffffff1673ffffffffffffffffffffffffffffffffffffffff16815260200190815260200160002060008873ffffffffffffffffffffffffffffffffffffffff1673ffffffffffffffffffffffffffffffffffffffff168152602001908152602001600020546109369190613423565b611071565b6001905092915050565b6109767f65d7a28e3265b37a6474929f336521b332c1681b933f6cb9f3376673440d862a610971611069565b610cbb565b6109b5576040517f08c379a00000000000000000000000000000000000000000000000000000000081526004016109ac906134eb565b60405180910390fd5b6109bd6115cc565b565b6109f07f9f2df0fed2c77648de5860a4cc508cd0818c85b8b8a1ab4ceeef8d981c8956a66109eb611069565b610cbb565b610a2f576040517f08c379a0000000000000000000000000000000000000000000000000000000008152600401610a269061357d565b60405180910390fd5b610a39828261166f565b5050565b610a4e610a48611069565b826117d0565b50565b600060019054906101000a900460ff1680610a77575060008054906101000a900460ff16155b610ab6576040517f08c379a0000000000000000000000000000000000000000000000000000000008152600401610aad9061360f565b60405180910390fd5b60008060019054906101000a900460ff161590508015610b06576001600060016101000a81548160ff02191690831515021790555060016000806101000a81548160ff0219169083151502179055505b610b1083836119a9565b8015610b315760008060016101000a81548160ff0219169083151502179055505b505050565b600061012d60009054906101000a900460ff16905090565b600060c960008373ffffffffffffffffffffffffffffffffffffffff1673ffffffffffffffffffffffffffffffffffffffff168152602001908152602001600020549050919050565b6000610baa83610ba5611069565b610f44565b905081811015610bef576040517f08c379a0000000000000000000000000000000000000000000000000000000008152600401610be6906136a1565b60405180910390fd5b610c0383610bfb611069565b848403611071565b610c0d83836117d0565b505050565b610c437f65d7a28e3265b37a6474929f336521b332c1681b933f6cb9f3376673440d862a610c3e611069565b610cbb565b610c82576040517f08c379a0000000000000000000000000000000000000000000000000000000008152600401610c7990613733565b60405180910390fd5b610c8a611ad0565b565b6000610cb38260976000868152602001908152602001600020611b7490919063ffffffff16565b905092915050565b60006065600084815260200190815260200160002060000160008373ffffffffffffffffffffffffffffffffffffffff1673ffffffffffffffffffffffffffffffffffffffff16815260200190815260200160002060009054906101000a900460ff16905092915050565b606060cd8054610d3590613330565b80601f0160208091040260200160405190810160405280929190818152602001828054610d6190613330565b8015610dae5780601f10610d8357610100808354040283529160200191610dae565b820191906000526020600020905b815481529060010190602001808311610d9157829003601f168201915b5050505050905090565b6000801b81565b60008060ca6000610dce611069565b73ffffffffffffffffffffffffffffffffffffffff1673ffffffffffffffffffffffffffffffffffffffff16815260200190815260200160002060008573ffffffffffffffffffffffffffffffffffffffff1673ffffffffffffffffffffffffffffffffffffffff16815260200190815260200160002054905082811015610e8b576040517f08c379a0000000000000000000000000000000000000000000000000000000008152600401610e82906137c5565b60405180910390fd5b610e9f610e96611069565b85858403611071565b600191505092915050565b6000610ebe610eb7611069565b848461123c565b6001905092915050565b6000610ee560976000848152602001908152602001600020611b8e565b9050919050565b7f9f2df0fed2c77648de5860a4cc508cd0818c85b8b8a1ab4ceeef8d981c8956a681565b610f1a8282611ba3565b610f3f816097600085815260200190815260200160002061159c90919063ffffffff16565b505050565b600060ca60008473ffffffffffffffffffffffffffffffffffffffff1673ffffffffffffffffffffffffffffffffffffffff16815260200190815260200160002060008373ffffffffffffffffffffffffffffffffffffffff1673ffffffffffffffffffffffffffffffffffffffff16815260200190815260200160002054905092915050565b7f65d7a28e3265b37a6474929f336521b332c1681b933f6cb9f3376673440d862a81565b60007f7965db0b000000000000000000000000000000000000000000000000000000007bffffffffffffffffffffffffffffffffffffffffffffffffffffffff1916827bffffffffffffffffffffffffffffffffffffffffffffffffffffffff19161480611062575061106182611bcc565b5b9050919050565b600033905090565b600073ffffffffffffffffffffffffffffffffffffffff168373ffffffffffffffffffffffffffffffffffffffff1614156110e1576040517f08c379a00000000000000000000000000000000000000000000000000000000081526004016110d890613857565b60405180910390fd5b600073ffffffffffffffffffffffffffffffffffffffff168273ffffffffffffffffffffffffffffffffffffffff161415611151576040517f08c379a0000000000000000000000000000000000000000000000000000000008152600401611148906138e9565b60405180910390fd5b8060ca60008573ffffffffffffffffffffffffffffffffffffffff1673ffffffffffffffffffffffffffffffffffffffff16815260200190815260200160002060008473ffffffffffffffffffffffffffffffffffffffff1673ffffffffffffffffffffffffffffffffffffffff168152602001908152602001600020819055508173ffffffffffffffffffffffffffffffffffffffff168373ffffffffffffffffffffffffffffffffffffffff167f8c5be1e5ebec7d5bd14f71427d1e84f3dd0314c0f7b2291e5b200ac8c7c3b9258360405161122f9190612ede565b60405180910390a3505050565b600073ffffffffffffffffffffffffffffffffffffffff168373ffffffffffffffffffffffffffffffffffffffff1614156112ac576040517f08c379a00000000000000000000000000000000000000000000000000000000081526004016112a39061397b565b60405180910390fd5b600073ffffffffffffffffffffffffffffffffffffffff168273ffffffffffffffffffffffffffffffffffffffff16141561131c576040517f08c379a000000000000000000000000000000000000000000000000000000000815260040161131390613a0d565b60405180910390fd5b611327838383611c36565b600060c960008573ffffffffffffffffffffffffffffffffffffffff1673ffffffffffffffffffffffffffffffffffffffff168152602001908152602001600020549050818110156113ae576040517f08c379a00000000000000000000000000000000000000000000000000000000081526004016113a590613a9f565b60405180910390fd5b81810360c960008673ffffffffffffffffffffffffffffffffffffffff1673ffffffffffffffffffffffffffffffffffffffff168152602001908152602001600020819055508160c960008573ffffffffffffffffffffffffffffffffffffffff1673ffffffffffffffffffffffffffffffffffffffff16815260200190815260200160002060008282546114439190613423565b925050819055508273ffffffffffffffffffffffffffffffffffffffff168473ffffffffffffffffffffffffffffffffffffffff167fddf252ad1be2c89b69c2b068fc378daa952ba7f163c4a11628f55a4df523b3ef846040516114a79190612ede565b60405180910390a36114ba848484611c46565b50505050565b6114c982610808565b6114da816114d5611069565b611c4b565b6114e48383611ce8565b505050565b6000611511836000018373ffffffffffffffffffffffffffffffffffffffff1660001b611dc9565b905092915050565b611521611069565b73ffffffffffffffffffffffffffffffffffffffff168173ffffffffffffffffffffffffffffffffffffffff161461158e576040517f08c379a000000000000000000000000000000000000000000000000000000000815260040161158590613b31565b60405180910390fd5b6115988282611e39565b5050565b60006115c4836000018373ffffffffffffffffffffffffffffffffffffffff1660001b611f1b565b905092915050565b6115d4610b36565b611613576040517f08c379a000000000000000000000000000000000000000000000000000000000815260040161160a90613b9d565b60405180910390fd5b600061012d60006101000a81548160ff0219169083151502179055507f5db9ee0a495bf2e6ff9c91a7834c1ba4fdd244a5e8aa4e537bd38aeae4b073aa611658611069565b60405161166591906132a6565b60405180910390a1565b600073ffffffffffffffffffffffffffffffffffffffff168273ffffffffffffffffffffffffffffffffffffffff1614156116df576040517f08c379a00000000000000000000000000000000000000000000000000000000081526004016116d690613c09565b60405180910390fd5b6116eb60008383611c36565b8060cb60008282546116fd9190613423565b925050819055508060c960008473ffffffffffffffffffffffffffffffffffffffff1673ffffffffffffffffffffffffffffffffffffffff16815260200190815260200160002060008282546117539190613423565b925050819055508173ffffffffffffffffffffffffffffffffffffffff16600073ffffffffffffffffffffffffffffffffffffffff167fddf252ad1be2c89b69c2b068fc378daa952ba7f163c4a11628f55a4df523b3ef836040516117b89190612ede565b60405180910390a36117cc60008383611c46565b5050565b600073ffffffffffffffffffffffffffffffffffffffff168273ffffffffffffffffffffffffffffffffffffffff161415611840576040517f08c379a000000000000000000000000000000000000000000000000000000000815260040161183790613c9b565b60405180910390fd5b61184c82600083611c36565b600060c960008473ffffffffffffffffffffffffffffffffffffffff1673ffffffffffffffffffffffffffffffffffffffff168152602001908152602001600020549050818110156118d3576040517f08c379a00000000000000000000000000000000000000000000000000000000081526004016118ca90613d2d565b60405180910390fd5b81810360c960008573ffffffffffffffffffffffffffffffffffffffff1673ffffffffffffffffffffffffffffffffffffffff168152602001908152602001600020819055508160cb600082825461192b9190613d4d565b92505081905550600073ffffffffffffffffffffffffffffffffffffffff168373ffffffffffffffffffffffffffffffffffffffff167fddf252ad1be2c89b69c2b068fc378daa952ba7f163c4a11628f55a4df523b3ef846040516119909190612ede565b60405180910390a36119a483600084611c46565b505050565b600060019054906101000a900460ff16806119cf575060008054906101000a900460ff16155b611a0e576040517f08c379a0000000000000000000000000000000000000000000000000000000008152600401611a059061360f565b60405180910390fd5b60008060019054906101000a900460ff161590508015611a5e576001600060016101000a81548160ff02191690831515021790555060016000806101000a81548160ff0219169083151502179055505b611a6661202f565b611a6e612108565b611a766121e1565b611a7e6122ba565b611a888383612393565b611a9061249c565b611a98612575565b611aa061266a565b611aaa8383612743565b8015611acb5760008060016101000a81548160ff0219169083151502179055505b505050565b611ad8610b36565b15611b18576040517f08c379a0000000000000000000000000000000000000000000000000000000008152600401611b0f90613dcd565b60405180910390fd5b600161012d60006101000a81548160ff0219169083151502179055507f62e78cea01bee320cd4e420270b5ea74000d11b0c9f74754ebdbfc544b05a258611b5d611069565b604051611b6a91906132a6565b60405180910390a1565b6000611b838360000183612894565b60001c905092915050565b6000611b9c826000016128bf565b9050919050565b611bac82610808565b611bbd81611bb8611069565b611c4b565b611bc78383611e39565b505050565b60007f01ffc9a7000000000000000000000000000000000000000000000000000000007bffffffffffffffffffffffffffffffffffffffffffffffffffffffff1916827bffffffffffffffffffffffffffffffffffffffffffffffffffffffff1916149050919050565b611c418383836128d0565b505050565b505050565b611c558282610cbb565b611ce457611c7a8173ffffffffffffffffffffffffffffffffffffffff166014612928565b611c888360001c6020612928565b604051602001611c99929190613ec1565b6040516020818303038152906040526040517f08c379a0000000000000000000000000000000000000000000000000000000008152600401611cdb9190612dd9565b60405180910390fd5b5050565b611cf28282610cbb565b611dc55760016065600084815260200190815260200160002060000160008373ffffffffffffffffffffffffffffffffffffffff1673ffffffffffffffffffffffffffffffffffffffff16815260200190815260200160002060006101000a81548160ff021916908315150217905550611d6a611069565b73ffffffffffffffffffffffffffffffffffffffff168173ffffffffffffffffffffffffffffffffffffffff16837f2f8788117e7eff1d82e926ec794901d17c78024a50270940304540a733656f0d60405160405180910390a45b5050565b6000611dd58383612b64565b611e2e578260000182908060018154018082558091505060019003906000526020600020016000909190919091505582600001805490508360010160008481526020019081526020016000208190555060019050611e33565b600090505b92915050565b611e438282610cbb565b15611f175760006065600084815260200190815260200160002060000160008373ffffffffffffffffffffffffffffffffffffffff1673ffffffffffffffffffffffffffffffffffffffff16815260200190815260200160002060006101000a81548160ff021916908315150217905550611ebc611069565b73ffffffffffffffffffffffffffffffffffffffff168173ffffffffffffffffffffffffffffffffffffffff16837ff6391f5c32d9c69d2a47ea670b442974b53935d1edc7fd64eb21e047a839171b60405160405180910390a45b5050565b60008083600101600084815260200190815260200160002054905060008114612023576000600182611f4d9190613d4d565b9050600060018660000180549050611f659190613d4d565b9050818114611fd4576000866000018281548110611f8657611f85613efb565b5b9060005260206000200154905080876000018481548110611faa57611fa9613efb565b5b90600052602060002001819055508387600101600083815260200190815260200160002081905550505b85600001805480611fe857611fe7613f2a565b5b600190038181906000526020600020016000905590558560010160008681526020019081526020016000206000905560019350505050612029565b60009150505b92915050565b600060019054906101000a900460ff1680612055575060008054906101000a900460ff16155b612094576040517f08c379a000000000000000000000000000000000000000000000000000000000815260040161208b9061360f565b60405180910390fd5b60008060019054906101000a900460ff1615905080156120e4576001600060016101000a81548160ff02191690831515021790555060016000806101000a81548160ff0219169083151502179055505b80156121055760008060016101000a81548160ff0219169083151502179055505b50565b600060019054906101000a900460ff168061212e575060008054906101000a900460ff16155b61216d576040517f08c379a00000000000000000000000000000000000000000000000000000000081526004016121649061360f565b60405180910390fd5b60008060019054906101000a900460ff1615905080156121bd576001600060016101000a81548160ff02191690831515021790555060016000806101000a81548160ff0219169083151502179055505b80156121de5760008060016101000a81548160ff0219169083151502179055505b50565b600060019054906101000a900460ff1680612207575060008054906101000a900460ff16155b612246576040517f08c379a000000000000000000000000000000000000000000000000000000000815260040161223d9061360f565b60405180910390fd5b60008060019054906101000a900460ff161590508015612296576001600060016101000a81548160ff02191690831515021790555060016000806101000a81548160ff0219169083151502179055505b80156122b75760008060016101000a81548160ff0219169083151502179055505b50565b600060019054906101000a900460ff16806122e0575060008054906101000a900460ff16155b61231f576040517f08c379a00000000000000000000000000000000000000000000000000000000081526004016123169061360f565b60405180910390fd5b60008060019054906101000a900460ff16159050801561236f576001600060016101000a81548160ff02191690831515021790555060016000806101000a81548160ff0219169083151502179055505b80156123905760008060016101000a81548160ff0219169083151502179055505b50565b600060019054906101000a900460ff16806123b9575060008054906101000a900460ff16155b6123f8576040517f08c379a00000000000000000000000000000000000000000000000000000000081526004016123ef9061360f565b60405180910390fd5b60008060019054906101000a900460ff161590508015612448576001600060016101000a81548160ff02191690831515021790555060016000806101000a81548160ff0219169083151502179055505b8260cc908051906020019061245e929190612bce565b508160cd9080519060200190612475929190612bce565b5080156124975760008060016101000a81548160ff0219169083151502179055505b505050565b600060019054906101000a900460ff16806124c2575060008054906101000a900460ff16155b612501576040517f08c379a00000000000000000000000000000000000000000000000000000000081526004016124f89061360f565b60405180910390fd5b60008060019054906101000a900460ff161590508015612551576001600060016101000a81548160ff02191690831515021790555060016000806101000a81548160ff0219169083151502179055505b80156125725760008060016101000a81548160ff0219169083151502179055505b50565b600060019054906101000a900460ff168061259b575060008054906101000a900460ff16155b6125da576040517f08c379a00000000000000000000000000000000000000000000000000000000081526004016125d19061360f565b60405180910390fd5b60008060019054906101000a900460ff16159050801561262a576001600060016101000a81548160ff02191690831515021790555060016000806101000a81548160ff0219169083151502179055505b600061012d60006101000a81548160ff02191690831515021790555080156126675760008060016101000a81548160ff0219169083151502179055505b50565b600060019054906101000a900460ff1680612690575060008054906101000a900460ff16155b6126cf576040517f08c379a00000000000000000000000000000000000000000000000000000000081526004016126c69061360f565b60405180910390fd5b60008060019054906101000a900460ff16159050801561271f576001600060016101000a81548160ff02191690831515021790555060016000806101000a81548160ff0219169083151502179055505b80156127405760008060016101000a81548160ff0219169083151502179055505b50565b600060019054906101000a900460ff1680612769575060008054906101000a900460ff16155b6127a8576040517f08c379a000000000000000000000000000000000000000000000000000000000815260040161279f9061360f565b60405180910390fd5b60008060019054906101000a900460ff1615905080156127f8576001600060016101000a81548160ff02191690831515021790555060016000806101000a81548160ff0219169083151502179055505b61280c6000801b612807611069565b612b87565b61283d7f9f2df0fed2c77648de5860a4cc508cd0818c85b8b8a1ab4ceeef8d981c8956a6612838611069565b612b87565b61286e7f65d7a28e3265b37a6474929f336521b332c1681b933f6cb9f3376673440d862a612869611069565b612b87565b801561288f5760008060016101000a81548160ff0219169083151502179055505b505050565b60008260000182815481106128ac576128ab613efb565b5b9060005260206000200154905092915050565b600081600001805490509050919050565b6128db838383612bbb565b6128e3610b36565b15612923576040517f08c379a000000000000000000000000000000000000000000000000000000000815260040161291a90613fcb565b60405180910390fd5b505050565b60606000600283600261293b9190613feb565b6129459190613423565b67ffffffffffffffff81111561295e5761295d613087565b5b6040519080825280601f01601f1916602001820160405280156129905781602001600182028036833780820191505090505b5090507f3000000000000000000000000000000000000000000000000000000000000000816000815181106129c8576129c7613efb565b5b60200101907effffffffffffffffffffffffffffffffffffffffffffffffffffffffffffff1916908160001a9053507f780000000000000000000000000000000000000000000000000000000000000081600181518110612a2c57612a2b613efb565b5b60200101907effffffffffffffffffffffffffffffffffffffffffffffffffffffffffffff1916908160001a90535060006001846002612a6c9190613feb565b612a769190613423565b90505b6001811115612b16577f3031323334353637383961626364656600000000000000000000000000000000600f861660108110612ab857612ab7613efb565b5b1a60f81b828281518110612acf57612ace613efb565b5b60200101907effffffffffffffffffffffffffffffffffffffffffffffffffffffffffffff1916908160001a905350600485901c945080612b0f90614045565b9050612a79565b5060008414612b5a576040517f08c379a0000000000000000000000000000000000000000000000000000000008152600401612b51906140bb565b60405180910390fd5b8091505092915050565b600080836001016000848152602001908152602001600020541415905092915050565b612b918282612bc0565b612bb681609760008581526020019081526020016000206114e990919063ffffffff16565b505050565b505050565b612bca8282611ce8565b5050565b828054612bda90613330565b90600052602060002090601f016020900481019282612bfc5760008555612c43565b82601f10612c1557805160ff1916838001178555612c43565b82800160010185558215612c43579182015b82811115612c42578251825591602001919060010190612c27565b5b509050612c509190612c54565b5090565b5b80821115612c6d576000816000905550600101612c55565b5090565b6000604051905090565b600080fd5b600080fd5b60007fffffffff0000000000000000000000000000000000000000000000000000000082169050919050565b612cba81612c85565b8114612cc557600080fd5b50565b600081359050612cd781612cb1565b92915050565b600060208284031215612cf357612cf2612c7b565b5b6000612d0184828501612cc8565b91505092915050565b60008115159050919050565b612d1f81612d0a565b82525050565b6000602082019050612d3a6000830184612d16565b92915050565b600081519050919050565b600082825260208201905092915050565b60005b83811015612d7a578082015181840152602081019050612d5f565b83811115612d89576000848401525b50505050565b6000601f19601f8301169050919050565b6000612dab82612d40565b612db58185612d4b565b9350612dc5818560208601612d5c565b612dce81612d8f565b840191505092915050565b60006020820190508181036000830152612df38184612da0565b905092915050565b600073ffffffffffffffffffffffffffffffffffffffff82169050919050565b6000612e2682612dfb565b9050919050565b612e3681612e1b565b8114612e4157600080fd5b50565b600081359050612e5381612e2d565b92915050565b6000819050919050565b612e6c81612e59565b8114612e7757600080fd5b50565b600081359050612e8981612e63565b92915050565b60008060408385031215612ea657612ea5612c7b565b5b6000612eb485828601612e44565b9250506020612ec585828601612e7a565b9150509250929050565b612ed881612e59565b82525050565b6000602082019050612ef36000830184612ecf565b92915050565b600080600060608486031215612f1257612f11612c7b565b5b6000612f2086828701612e44565b9350506020612f3186828701612e44565b9250506040612f4286828701612e7a565b9150509250925092565b6000819050919050565b612f5f81612f4c565b8114612f6a57600080fd5b50565b600081359050612f7c81612f56565b92915050565b600060208284031215612f9857612f97612c7b565b5b6000612fa684828501612f6d565b91505092915050565b612fb881612f4c565b82525050565b6000602082019050612fd36000830184612faf565b92915050565b60008060408385031215612ff057612fef612c7b565b5b6000612ffe85828601612f6d565b925050602061300f85828601612e44565b9150509250929050565b600060ff82169050919050565b61302f81613019565b82525050565b600060208201905061304a6000830184613026565b92915050565b60006020828403121561306657613065612c7b565b5b600061307484828501612e7a565b91505092915050565b600080fd5b600080fd5b7f4e487b7100000000000000000000000000000000000000000000000000000000600052604160045260246000fd5b6130bf82612d8f565b810181811067ffffffffffffffff821117156130de576130dd613087565b5b80604052505050565b60006130f1612c71565b90506130fd82826130b6565b919050565b600067ffffffffffffffff82111561311d5761311c613087565b5b61312682612d8f565b9050602081019050919050565b82818337600083830152505050565b600061315561315084613102565b6130e7565b90508281526020810184848401111561317157613170613082565b5b61317c848285613133565b509392505050565b600082601f8301126131995761319861307d565b5b81356131a9848260208601613142565b91505092915050565b600080604083850312156131c9576131c8612c7b565b5b600083013567ffffffffffffffff8111156131e7576131e6612c80565b5b6131f385828601613184565b925050602083013567ffffffffffffffff81111561321457613213612c80565b5b61322085828601613184565b9150509250929050565b6000602082840312156132405761323f612c7b565b5b600061324e84828501612e44565b91505092915050565b6000806040838503121561326e5761326d612c7b565b5b600061327c85828601612f6d565b925050602061328d85828601612e7a565b9150509250929050565b6132a081612e1b565b82525050565b60006020820190506132bb6000830184613297565b92915050565b600080604083850312156132d8576132d7612c7b565b5b60006132e685828601612e44565b92505060206132f785828601612e44565b9150509250929050565b7f4e487b7100000000000000000000000000000000000000000000000000000000600052602260045260246000fd5b6000600282049050600182168061334857607f821691505b6020821081141561335c5761335b613301565b5b50919050565b7f45524332303a207472616e7366657220616d6f756e742065786365656473206160008201527f6c6c6f77616e6365000000000000000000000000000000000000000000000000602082015250565b60006133be602883612d4b565b91506133c982613362565b604082019050919050565b600060208201905081810360008301526133ed816133b1565b9050919050565b7f4e487b7100000000000000000000000000000000000000000000000000000000600052601160045260246000fd5b600061342e82612e59565b915061343983612e59565b9250827fffffffffffffffffffffffffffffffffffffffffffffffffffffffffffffffff0382111561346e5761346d6133f4565b5b828201905092915050565b7f45524332305072657365744d696e7465725061757365723a206d75737420686160008201527f76652070617573657220726f6c6520746f20756e706175736500000000000000602082015250565b60006134d5603983612d4b565b91506134e082613479565b604082019050919050565b60006020820190508181036000830152613504816134c8565b9050919050565b7f45524332305072657365744d696e7465725061757365723a206d75737420686160008201527f7665206d696e74657220726f6c6520746f206d696e7400000000000000000000602082015250565b6000613567603683612d4b565b91506135728261350b565b604082019050919050565b600060208201905081810360008301526135968161355a565b9050919050565b7f496e697469616c697a61626c653a20636f6e747261637420697320616c72656160008201527f647920696e697469616c697a6564000000000000000000000000000000000000602082015250565b60006135f9602e83612d4b565b91506136048261359d565b604082019050919050565b60006020820190508181036000830152613628816135ec565b9050919050565b7f45524332303a206275726e20616d6f756e74206578636565647320616c6c6f7760008201527f616e636500000000000000000000000000000000000000000000000000000000602082015250565b600061368b602483612d4b565b91506136968261362f565b604082019050919050565b600060208201905081810360008301526136ba8161367e565b9050919050565b7f45524332305072657365744d696e7465725061757365723a206d75737420686160008201527f76652070617573657220726f6c6520746f207061757365000000000000000000602082015250565b600061371d603783612d4b565b9150613728826136c1565b604082019050919050565b6000602082019050818103600083015261374c81613710565b9050919050565b7f45524332303a2064656372656173656420616c6c6f77616e63652062656c6f7760008201527f207a65726f000000000000000000000000000000000000000000000000000000602082015250565b60006137af602583612d4b565b91506137ba82613753565b604082019050919050565b600060208201905081810360008301526137de816137a2565b9050919050565b7f45524332303a20617070726f76652066726f6d20746865207a65726f2061646460008201527f7265737300000000000000000000000000000000000000000000000000000000602082015250565b6000613841602483612d4b565b915061384c826137e5565b604082019050919050565b6000602082019050818103600083015261387081613834565b9050919050565b7f45524332303a20617070726f766520746f20746865207a65726f20616464726560008201527f7373000000000000000000000000000000000000000000000000000000000000602082015250565b60006138d3602283612d4b565b91506138de82613877565b604082019050919050565b60006020820190508181036000830152613902816138c6565b9050919050565b7f45524332303a207472616e736665722066726f6d20746865207a65726f20616460008201527f6472657373000000000000000000000000000000000000000000000000000000602082015250565b6000613965602583612d4b565b915061397082613909565b604082019050919050565b6000602082019050818103600083015261399481613958565b9050919050565b7f45524332303a207472616e7366657220746f20746865207a65726f206164647260008201527f6573730000000000000000000000000000000000000000000000000000000000602082015250565b60006139f7602383612d4b565b9150613a028261399b565b604082019050919050565b60006020820190508181036000830152613a26816139ea565b9050919050565b7f45524332303a207472616e7366657220616d6f756e742065786365656473206260008201527f616c616e63650000000000000000000000000000000000000000000000000000602082015250565b6000613a89602683612d4b565b9150613a9482613a2d565b604082019050919050565b60006020820190508181036000830152613ab881613a7c565b9050919050565b7f416363657373436f6e74726f6c3a2063616e206f6e6c792072656e6f756e636560008201527f20726f6c657320666f722073656c660000000000000000000000000000000000602082015250565b6000613b1b602f83612d4b565b9150613b2682613abf565b604082019050919050565b60006020820190508181036000830152613b4a81613b0e565b9050919050565b7f5061757361626c653a206e6f7420706175736564000000000000000000000000600082015250565b6000613b87601483612d4b565b9150613b9282613b51565b602082019050919050565b60006020820190508181036000830152613bb681613b7a565b9050919050565b7f45524332303a206d696e7420746f20746865207a65726f206164647265737300600082015250565b6000613bf3601f83612d4b565b9150613bfe82613bbd565b602082019050919050565b60006020820190508181036000830152613c2281613be6565b9050919050565b7f45524332303a206275726e2066726f6d20746865207a65726f2061646472657360008201527f7300000000000000000000000000000000000000000000000000000000000000602082015250565b6000613c85602183612d4b565b9150613c9082613c29565b604082019050919050565b60006020820190508181036000830152613cb481613c78565b9050919050565b7f45524332303a206275726e20616d6f756e7420657863656564732062616c616e60008201527f6365000000000000000000000000000000000000000000000000000000000000602082015250565b6000613d17602283612d4b565b9150613d2282613cbb565b604082019050919050565b60006020820190508181036000830152613d4681613d0a565b9050919050565b6000613d5882612e59565b9150613d6383612e59565b925082821015613d7657613d756133f4565b5b828203905092915050565b7f5061757361626c653a2070617573656400000000000000000000000000000000600082015250565b6000613db7601083612d4b565b9150613dc282613d81565b602082019050919050565b60006020820190508181036000830152613de681613daa565b9050919050565b600081905092915050565b7f416363657373436f6e74726f6c3a206163636f756e7420000000000000000000600082015250565b6000613e2e601783613ded565b9150613e3982613df8565b601782019050919050565b6000613e4f82612d40565b613e598185613ded565b9350613e69818560208601612d5c565b80840191505092915050565b7f206973206d697373696e6720726f6c6520000000000000000000000000000000600082015250565b6000613eab601183613ded565b9150613eb682613e75565b601182019050919050565b6000613ecc82613e21565b9150613ed88285613e44565b9150613ee382613e9e565b9150613eef8284613e44565b91508190509392505050565b7f4e487b7100000000000000000000000000000000000000000000000000000000600052603260045260246000fd5b7f4e487b7100000000000000000000000000000000000000000000000000000000600052603160045260246000fd5b7f45524332305061757361626c653a20746f6b656e207472616e7366657220776860008201527f696c652070617573656400000000000000000000000000000000000000000000602082015250565b6000613fb5602a83612d4b565b9150613fc082613f59565b604082019050919050565b60006020820190508181036000830152613fe481613fa8565b9050919050565b6000613ff682612e59565b915061400183612e59565b9250817fffffffffffffffffffffffffffffffffffffffffffffffffffffffffffffffff048311821515161561403a576140396133f4565b5b828202905092915050565b600061405082612e59565b91506000821415614064576140636133f4565b5b600182039050919050565b7f537472696e67733a20686578206c656e67746820696e73756666696369656e74600082015250565b60006140a5602083612d4b565b91506140b08261406f565b602082019050919050565b600060208201905081810360008301526140d481614098565b905091905056fea2646970667358221220204556ba66140a1509c3c3ba64386056130a6f206bf5ae060e9e6d83541cbdc564736f6c63430008090033",
  "linkReferences": {},
  "deployedLinkReferences": {}
}