{
  "_format": "hh-sol-artifact-1",
  "contractName": "AaveHandler",
  "sourceName": "contracts/actions/topup/handlers/AaveHandler.sol",
  "abi": [
    {
      "inputs": [
        {
          "internalType": "address",
          "name": "lendingPoolAddress",
          "type": "address"
        },
        {
          "internalType": "address",
          "name": "wethAddress",
          "type": "address"
        }
      ],
      "stateMutability": "nonpayable",
      "type": "constructor"
    },
    {
      "inputs": [],
      "name": "BACKD_REFERRAL_CODE",
      "outputs": [
        {
          "internalType": "uint16",
          "name": "",
          "type": "uint16"
        }
      ],
      "stateMutability": "view",
      "type": "function"
    },
    {
      "inputs": [
        {
          "internalType": "bytes32",
          "name": "account",
          "type": "bytes32"
        },
        {
          "internalType": "bytes",
          "name": "",
          "type": "bytes"
        }
      ],
      "name": "getUserFactor",
      "outputs": [
        {
          "internalType": "uint256",
          "name": "",
          "type": "uint256"
        }
      ],
      "stateMutability": "view",
      "type": "function"
    },
    {
      "inputs": [],
      "name": "lendingPool",
      "outputs": [
        {
          "internalType": "contract ILendingPool",
          "name": "",
          "type": "address"
        }
      ],
      "stateMutability": "view",
      "type": "function"
    },
    {
      "inputs": [
        {
          "internalType": "bytes32",
          "name": "account",
          "type": "bytes32"
        },
        {
          "internalType": "address",
          "name": "underlying",
          "type": "address"
        },
        {
          "internalType": "uint256",
          "name": "amount",
          "type": "uint256"
        },
        {
          "internalType": "bytes",
          "name": "extra",
          "type": "bytes"
        }
      ],
      "name": "topUp",
      "outputs": [
        {
          "internalType": "bool",
          "name": "",
          "type": "bool"
        }
      ],
      "stateMutability": "nonpayable",
      "type": "function"
    },
    {
      "inputs": [],
      "name": "weth",
      "outputs": [
        {
          "internalType": "contract IWETH",
          "name": "",
          "type": "address"
        }
      ],
      "stateMutability": "view",
      "type": "function"
    }
  ],
  "bytecode": "0x60c060405234801561001057600080fd5b50604051610fc4380380610fc483398101604081905261002f91610062565b6001600160a01b039182166080521660a052610095565b80516001600160a01b038116811461005d57600080fd5b919050565b6000806040838503121561007557600080fd5b61007e83610046565b915061008c60208401610046565b90509250929050565b60805160a051610edb6100e960003960008181606101528181610210015261028401526000818160c10152818161012c015281816102d7015281816103cd01528181610563015261063c0152610edb6000f3fe608060405234801561001057600080fd5b50600436106100575760003560e01c80633fc8cef31461005c57806349b745e3146100a0578063a59a9973146100bc578063ce7e692e146100e3578063dac6de7214610104575b600080fd5b6100837f000000000000000000000000000000000000000000000000000000000000000081565b6040516001600160a01b0390911681526020015b60405180910390f35b6100a961f36a81565b60405161ffff9091168152602001610097565b6100837f000000000000000000000000000000000000000000000000000000000000000081565b6100f66100f1366004610b15565b610127565b604051908152602001610097565b610117610112366004610b74565b6101e7565b6040519015158152602001610097565b6000807f00000000000000000000000000000000000000000000000000000000000000006001600160a01b031663bf92857c6101638660601c90565b6040516001600160e01b031960e084901b1681526001600160a01b03909116600482015260240160c06040518083038186803b1580156101a257600080fd5b505afa1580156101b6573d6000803e3d6000fd5b505050506040513d601f19601f820116820180604052508101906101da9190610bd7565b9998505050505050505050565b600080828060200190518101906101fe9190610c21565b90506001600160a01b0385166102a6577f00000000000000000000000000000000000000000000000000000000000000006001600160a01b031663d0e30db0856040518263ffffffff1660e01b81526004016000604051808303818588803b15801561026957600080fd5b505af115801561027d573d6000803e3d6000fd5b50505050507f000000000000000000000000000000000000000000000000000000000000000094505b60006102b28760601c90565b6040516335ea6a7560e01b81526001600160a01b0388811660048301529192506000917f000000000000000000000000000000000000000000000000000000000000000016906335ea6a75906024016101806040518083038186803b15801561031a57600080fd5b505afa15801561032e573d6000803e3d6000fd5b505050506040513d601f19601f820116820180604052508101906103529190610cdb565b60e081015160408051808201909152601e81527f756e6465726c79696e6720746f6b656e206e6f7420737570706f72746564000060208201529192506001600160a01b03166103bd5760405162461bcd60e51b81526004016103b49190610df8565b60405180910390fd5b506103f26001600160a01b0388167f0000000000000000000000000000000000000000000000000000000000000000886106a8565b8215610606576101008101516040516370a0823160e01b81526001600160a01b03848116600483015260009216906370a082319060240160206040518083038186803b15801561044157600080fd5b505afa158015610455573d6000803e3d6000fd5b505050506040513d601f19601f820116820180604052508101906104799190610e2b565b6101208301516040516370a0823160e01b81526001600160a01b038681166004830152929350600092909116906370a082319060240160206040518083038186803b1580156104c757600080fd5b505afa1580156104db573d6000803e3d6000fd5b505050506040513d601f19601f820116820180604052508101906104ff9190610e2b565b9050600061050d8383610e5a565b1115610603576000818311610523576002610526565b60015b60405163573ade8160e01b81526001600160a01b038c81166004830152602482018c905260ff9290921660448201819052878316606483015292507f00000000000000000000000000000000000000000000000000000000000000009091169063573ade8190608401602060405180830381600087803b1580156105a957600080fd5b505af11580156105bd573d6000803e3d6000fd5b505050506040513d601f19601f820116820180604052508101906105e19190610e2b565b6105eb908a610e72565b98508861060157600196505050505050506106a0565b505b50505b60405163e8eda9df60e01b81526001600160a01b03888116600483015260248201889052838116604483015261f36a60648301527f0000000000000000000000000000000000000000000000000000000000000000169063e8eda9df90608401600060405180830381600087803b15801561068057600080fd5b505af1158015610694573d6000803e3d6000fd5b50505050600193505050505b949350505050565b8015806107315750604051636eb1769f60e11b81523060048201526001600160a01b03838116602483015284169063dd62ed3e9060440160206040518083038186803b1580156106f757600080fd5b505afa15801561070b573d6000803e3d6000fd5b505050506040513d601f19601f8201168201806040525081019061072f9190610e2b565b155b61079c5760405162461bcd60e51b815260206004820152603660248201527f5361666545524332303a20617070726f76652066726f6d206e6f6e2d7a65726f60448201527520746f206e6f6e2d7a65726f20616c6c6f77616e636560501b60648201526084016103b4565b604080516001600160a01b038416602482015260448082018490528251808303909101815260649091019091526020810180516001600160e01b031663095ea7b360e01b1790526107ee9084906107f3565b505050565b6000610848826040518060400160405280602081526020017f5361666545524332303a206c6f772d6c6576656c2063616c6c206661696c6564815250856001600160a01b03166108c59092919063ffffffff16565b8051909150156107ee57808060200190518101906108669190610c21565b6107ee5760405162461bcd60e51b815260206004820152602a60248201527f5361666545524332303a204552433230206f7065726174696f6e20646964206e6044820152691bdd081cdd58d8d9595960b21b60648201526084016103b4565b60606108d484846000856108de565b90505b9392505050565b60608247101561093f5760405162461bcd60e51b815260206004820152602660248201527f416464726573733a20696e73756666696369656e742062616c616e636520666f6044820152651c8818d85b1b60d21b60648201526084016103b4565b6001600160a01b0385163b6109965760405162461bcd60e51b815260206004820152601d60248201527f416464726573733a2063616c6c20746f206e6f6e2d636f6e747261637400000060448201526064016103b4565b600080866001600160a01b031685876040516109b29190610e89565b60006040518083038185875af1925050503d80600081146109ef576040519150601f19603f3d011682016040523d82523d6000602084013e6109f4565b606091505b5091509150610a04828286610a0f565b979650505050505050565b60608315610a1e5750816108d7565b825115610a2e5782518084602001fd5b8160405162461bcd60e51b81526004016103b49190610df8565b634e487b7160e01b600052604160045260246000fd5b604051610180810167ffffffffffffffff81118282101715610a8257610a82610a48565b60405290565b600082601f830112610a9957600080fd5b813567ffffffffffffffff80821115610ab457610ab4610a48565b604051601f8301601f19908116603f01168101908282118183101715610adc57610adc610a48565b81604052838152866020858801011115610af557600080fd5b836020870160208301376000602085830101528094505050505092915050565b60008060408385031215610b2857600080fd5b82359150602083013567ffffffffffffffff811115610b4657600080fd5b610b5285828601610a88565b9150509250929050565b6001600160a01b0381168114610b7157600080fd5b50565b60008060008060808587031215610b8a57600080fd5b843593506020850135610b9c81610b5c565b925060408501359150606085013567ffffffffffffffff811115610bbf57600080fd5b610bcb87828801610a88565b91505092959194509250565b60008060008060008060c08789031215610bf057600080fd5b865195506020870151945060408701519350606087015192506080870151915060a087015190509295509295509295565b600060208284031215610c3357600080fd5b815180151581146108d757600080fd5b600060208284031215610c5557600080fd5b6040516020810181811067ffffffffffffffff82111715610c7857610c78610a48565b6040529151825250919050565b80516fffffffffffffffffffffffffffffffff81168114610ca557600080fd5b919050565b805164ffffffffff81168114610ca557600080fd5b8051610ca581610b5c565b805160ff81168114610ca557600080fd5b60006101808284031215610cee57600080fd5b610cf6610a5e565b610d008484610c43565b8152610d0e60208401610c85565b6020820152610d1f60408401610c85565b6040820152610d3060608401610c85565b6060820152610d4160808401610c85565b6080820152610d5260a08401610c85565b60a0820152610d6360c08401610caa565b60c0820152610d7460e08401610cbf565b60e0820152610100610d87818501610cbf565b90820152610120610d99848201610cbf565b90820152610140610dab848201610cbf565b90820152610160610dbd848201610cca565b908201529392505050565b60005b83811015610de3578181015183820152602001610dcb565b83811115610df2576000848401525b50505050565b6020815260008251806020840152610e17816040850160208701610dc8565b601f01601f19169190910160400192915050565b600060208284031215610e3d57600080fd5b5051919050565b634e487b7160e01b600052601160045260246000fd5b60008219821115610e6d57610e6d610e44565b500190565b600082821015610e8457610e84610e44565b500390565b60008251610e9b818460208701610dc8565b919091019291505056fea2646970667358221220110bc38aa169eebfe6f62b334036d72976d2e4cd3bbc5d0208cf56a3fd4c23e164736f6c63430008090033",
  "linkReferences": {},
  "deployedLinkReferences": {}
}