{
  "_format": "hh-sol-artifact-1",
  "contractName": "GemJoinMock",
  "sourceName": "contracts/mocks/TLMMock.sol",
  "abi": [
    {
      "inputs": [
        {
          "internalType": "contract IERC20",
          "name": "gem_",
          "type": "address"
        }
      ],
      "stateMutability": "nonpayable",
      "type": "constructor"
    },
    {
      "inputs": [],
      "name": "gem",
      "outputs": [
        {
          "internalType": "contract IERC20",
          "name": "",
          "type": "address"
        }
      ],
      "stateMutability": "view",
      "type": "function"
    },
    {
      "inputs": [
        {
          "internalType": "address",
          "name": "from",
          "type": "address"
        },
        {
          "internalType": "uint256",
          "name": "amount",
          "type": "uint256"
        }
      ],
      "name": "pull",
      "outputs": [],
      "stateMutability": "nonpayable",
      "type": "function"
    }
  ],
  "bytecode": "0x60a060405234801561001057600080fd5b506040516102e63803806102e683398101604081905261002f91610044565b60601b6001600160601b031916608052610072565b600060208284031215610055578081fd5b81516001600160a01b038116811461006b578182fd5b9392505050565b60805160601c610251610095600039600081816070015260cf01526102516000f3fe608060405234801561001057600080fd5b50600436106100365760003560e01c80637bd2bea71461003b578063f2d5d56b14610059575b600080fd5b61004361006e565b60405161005091906101fa565b60405180910390f35b61006c61006736600461015f565b610092565b005b7f000000000000000000000000000000000000000000000000000000000000000081565b6040517f23b872dd00000000000000000000000000000000000000000000000000000000815273ffffffffffffffffffffffffffffffffffffffff7f000000000000000000000000000000000000000000000000000000000000000016906323b872dd90610108908590309086906004016101c9565b602060405180830381600087803b15801561012257600080fd5b505af1158015610136573d6000803e3d6000fd5b505050506040513d601f19601f8201168201806040525081019061015a91906101a2565b505050565b60008060408385031215610171578182fd5b823573ffffffffffffffffffffffffffffffffffffffff81168114610194578283fd5b946020939093013593505050565b6000602082840312156101b3578081fd5b815180151581146101c2578182fd5b9392505050565b73ffffffffffffffffffffffffffffffffffffffff9384168152919092166020820152604081019190915260600190565b73ffffffffffffffffffffffffffffffffffffffff9190911681526020019056fea264697066735822122061847932c9f64738ad9fab9fc66b0cac2185610a5b1e89ae1d24980de22a974b64736f6c63430008010033",
  "linkReferences": {},
  "deployedLinkReferences": {}
}