{
  "_format": "hh-sol-artifact-1",
  "contractName": "TLMMock",
  "sourceName": "contracts/mocks/TLMMock.sol",
  "abi": [
    {
      "inputs": [
        {
          "internalType": "contract IERC20",
          "name": "dai_",
          "type": "address"
        },
        {
          "internalType": "contract IERC20",
          "name": "fyDai_",
          "type": "address"
        }
      ],
      "stateMutability": "nonpayable",
      "type": "constructor"
    },
    {
      "inputs": [],
      "name": "FYDAI",
      "outputs": [
        {
          "internalType": "bytes32",
          "name": "",
          "type": "bytes32"
        }
      ],
      "stateMutability": "view",
      "type": "function"
    },
    {
      "inputs": [],
      "name": "dai",
      "outputs": [
        {
          "internalType": "contract IERC20",
          "name": "",
          "type": "address"
        }
      ],
      "stateMutability": "view",
      "type": "function"
    },
    {
      "inputs": [],
      "name": "gem",
      "outputs": [
        {
          "internalType": "contract IERC20",
          "name": "",
          "type": "address"
        }
      ],
      "stateMutability": "view",
      "type": "function"
    },
    {
      "inputs": [
        {
          "internalType": "bytes32",
          "name": "",
          "type": "bytes32"
        }
      ],
      "name": "ilks",
      "outputs": [
        {
          "internalType": "address",
          "name": "gemJoin",
          "type": "address"
        },
        {
          "internalType": "uint256",
          "name": "yield",
          "type": "uint256"
        }
      ],
      "stateMutability": "view",
      "type": "function"
    },
    {
      "inputs": [
        {
          "internalType": "bytes32",
          "name": "ilk",
          "type": "bytes32"
        },
        {
          "internalType": "address",
          "name": "usr",
          "type": "address"
        },
        {
          "internalType": "uint256",
          "name": "gemAmt",
          "type": "uint256"
        }
      ],
      "name": "sellGem",
      "outputs": [
        {
          "internalType": "uint256",
          "name": "",
          "type": "uint256"
        }
      ],
      "stateMutability": "nonpayable",
      "type": "function"
    }
  ],
  "bytecode": "0x60c060405234801561001057600080fd5b506040516108df3803806108df83398101604081905261002f916100ff565b6001600160601b0319606083811b821660805282901b1660a0526040518190610057906100d6565b6100619190610131565b604051809103906000f08015801561007d573d6000803e3d6000fd5b5064465944414960d81b60009081526020527f784756658bac43aeede008208cd643d250e763cff74a01e6028a59852d926e7680546001600160a01b0319166001600160a01b0392909216919091179055506101459050565b6102e6806105f983390190565b80516001600160a01b03811681146100fa57600080fd5b919050565b60008060408385031215610111578182fd5b61011a836100e3565b9150610128602084016100e3565b90509250929050565b6001600160a01b0391909116815260200190565b60805160601c60a05160601c6104826101776000396000610101015260008181610294015261033c01526104826000f3fe608060405234801561001057600080fd5b50600436106100675760003560e01c8063cb8ec2a311610050578063cb8ec2a31461009f578063d9638d36146100b2578063f4b9fa75146100d357610067565b80631a3fed601461006c5780637bd2bea71461008a575b600080fd5b6100746100db565b60405161008191906103eb565b60405180910390f35b6100926100ff565b60405161008191906103f4565b6100746100ad366004610376565b610123565b6100c56100c036600461035e565b610308565b6040516100819291906103c5565b61009261033a565b7f465944414900000000000000000000000000000000000000000000000000000081565b7f000000000000000000000000000000000000000000000000000000000000000081565b60007f46594441490000000000000000000000000000000000000000000000000000008414610187576040517f08c379a000000000000000000000000000000000000000000000000000000000815260040161017e90610415565b60405180910390fd5b7f465944414900000000000000000000000000000000000000000000000000000060009081526020527f784756658bac43aeede008208cd643d250e763cff74a01e6028a59852d926e76546040517ff2d5d56b000000000000000000000000000000000000000000000000000000008152839173ffffffffffffffffffffffffffffffffffffffff169063f2d5d56b9061022790339085906004016103c5565b600060405180830381600087803b15801561024157600080fd5b505af1158015610255573d6000803e3d6000fd5b50506040517f40c10f1900000000000000000000000000000000000000000000000000000000815273ffffffffffffffffffffffffffffffffffffffff7f00000000000000000000000000000000000000000000000000000000000000001692506340c10f1991506102cd90879085906004016103c5565b600060405180830381600087803b1580156102e757600080fd5b505af11580156102fb573d6000803e3d6000fd5b5092979650505050505050565b6000602081905290815260409020805460019091015473ffffffffffffffffffffffffffffffffffffffff9091169082565b7f000000000000000000000000000000000000000000000000000000000000000081565b60006020828403121561036f578081fd5b5035919050565b60008060006060848603121561038a578182fd5b83359250602084013573ffffffffffffffffffffffffffffffffffffffff811681146103b4578283fd5b929592945050506040919091013590565b73ffffffffffffffffffffffffffffffffffffffff929092168252602082015260400190565b90815260200190565b73ffffffffffffffffffffffffffffffffffffffff91909116815260200190565b6020808252600e908201527f4d69736d61746368656420696c6b00000000000000000000000000000000000060408201526060019056fea2646970667358221220a02bf8cf89b02577f2358ea40a23f43cf1e624adcacb0ec2b63a319ebab2682064736f6c6343000801003360a060405234801561001057600080fd5b506040516102e63803806102e683398101604081905261002f91610044565b60601b6001600160601b031916608052610072565b600060208284031215610055578081fd5b81516001600160a01b038116811461006b578182fd5b9392505050565b60805160601c610251610095600039600081816070015260cf01526102516000f3fe608060405234801561001057600080fd5b50600436106100365760003560e01c80637bd2bea71461003b578063f2d5d56b14610059575b600080fd5b61004361006e565b60405161005091906101fa565b60405180910390f35b61006c61006736600461015f565b610092565b005b7f000000000000000000000000000000000000000000000000000000000000000081565b6040517f23b872dd00000000000000000000000000000000000000000000000000000000815273ffffffffffffffffffffffffffffffffffffffff7f000000000000000000000000000000000000000000000000000000000000000016906323b872dd90610108908590309086906004016101c9565b602060405180830381600087803b15801561012257600080fd5b505af1158015610136573d6000803e3d6000fd5b505050506040513d601f19601f8201168201806040525081019061015a91906101a2565b505050565b60008060408385031215610171578182fd5b823573ffffffffffffffffffffffffffffffffffffffff81168114610194578283fd5b946020939093013593505050565b6000602082840312156101b3578081fd5b815180151581146101c2578182fd5b9392505050565b73ffffffffffffffffffffffffffffffffffffffff9384168152919092166020820152604081019190915260600190565b73ffffffffffffffffffffffffffffffffffffffff9190911681526020019056fea264697066735822122061847932c9f64738ad9fab9fc66b0cac2185610a5b1e89ae1d24980de22a974b64736f6c63430008010033",
  "linkReferences": {},
  "deployedLinkReferences": {}
}