{
  "_format": "hh-sol-artifact-1",
  "contractName": "MockConvexBaseRewardPool",
  "sourceName": "contracts/v3/mock/MockConvexBaseRewardPool.sol",
  "abi": [
    {
      "inputs": [
        {
          "internalType": "uint256",
          "name": "pid_",
          "type": "uint256"
        },
        {
          "internalType": "address",
          "name": "",
          "type": "address"
        },
        {
          "internalType": "address",
          "name": "rewardToken_",
          "type": "address"
        },
        {
          "internalType": "address",
          "name": "",
          "type": "address"
        },
        {
          "internalType": "address",
          "name": "",
          "type": "address"
        }
      ],
      "stateMutability": "nonpayable",
      "type": "constructor"
    },
    {
      "inputs": [],
      "name": "extraRewardsLength",
      "outputs": [
        {
          "internalType": "uint256",
          "name": "",
          "type": "uint256"
        }
      ],
      "stateMutability": "view",
      "type": "function"
    },
    {
      "inputs": [
        {
          "internalType": "address",
          "name": "_account",
          "type": "address"
        },
        {
          "internalType": "bool",
          "name": "",
          "type": "bool"
        }
      ],
      "name": "getReward",
      "outputs": [
        {
          "internalType": "bool",
          "name": "",
          "type": "bool"
        }
      ],
      "stateMutability": "nonpayable",
      "type": "function"
    },
    {
      "inputs": [],
      "name": "pid",
      "outputs": [
        {
          "internalType": "uint256",
          "name": "",
          "type": "uint256"
        }
      ],
      "stateMutability": "view",
      "type": "function"
    },
    {
      "inputs": [],
      "name": "rewardToken",
      "outputs": [
        {
          "internalType": "contract IERC20",
          "name": "",
          "type": "address"
        }
      ],
      "stateMutability": "view",
      "type": "function"
    },
    {
      "inputs": [
        {
          "internalType": "address",
          "name": "",
          "type": "address"
        },
        {
          "internalType": "uint256",
          "name": "",
          "type": "uint256"
        }
      ],
      "name": "stakeFor",
      "outputs": [
        {
          "internalType": "bool",
          "name": "",
          "type": "bool"
        }
      ],
      "stateMutability": "pure",
      "type": "function"
    }
  ],
  "bytecode": "0x608060405234801561001057600080fd5b50604051610587380380610587833981810160405260a081101561003357600080fd5b508051604090910151600191909155600080546001600160a01b039092166001600160a01b0319909216919091178155600255610512806100756000396000f3fe608060405234801561001057600080fd5b50600436106100575760003560e01c80632ee409081461005c5780637050ccd91461009c578063d55a23f4146100ca578063f1068454146100e4578063f7c618c1146100ec575b600080fd5b6100886004803603604081101561007257600080fd5b506001600160a01b038135169060200135610110565b604080519115158252519081900360200190f35b610088600480360360408110156100b257600080fd5b506001600160a01b0381351690602001351515610118565b6100d261013c565b60408051918252519081900360200190f35b6100d2610142565b6100f4610148565b604080516001600160a01b039092168252519081900360200190f35b600192915050565b60008054610133906001600160a01b031630856103e8610157565b50600192915050565b60025481565b60015481565b6000546001600160a01b031681565b604080516001600160a01b0380861660248301528416604482015260648082018490528251808303909101815260849091019091526020810180516001600160e01b03166323b872dd60e01b1790526101b19085906101b7565b50505050565b606061020c826040518060400160405280602081526020017f5361666545524332303a206c6f772d6c6576656c2063616c6c206661696c6564815250856001600160a01b031661026d9092919063ffffffff16565b8051909150156102685780806020019051602081101561022b57600080fd5b50516102685760405162461bcd60e51b815260040180806020018281038252602a8152602001806104b3602a913960400191505060405180910390fd5b505050565b606061027c8484600085610286565b90505b9392505050565b6060824710156102c75760405162461bcd60e51b815260040180806020018281038252602681526020018061048d6026913960400191505060405180910390fd5b6102d0856103e2565b610321576040805162461bcd60e51b815260206004820152601d60248201527f416464726573733a2063616c6c20746f206e6f6e2d636f6e7472616374000000604482015290519081900360640190fd5b60006060866001600160a01b031685876040518082805190602001908083835b602083106103605780518252601f199092019160209182019101610341565b6001836020036101000a03801982511681845116808217855250505050505090500191505060006040518083038185875af1925050503d80600081146103c2576040519150601f19603f3d011682016040523d82523d6000602084013e6103c7565b606091505b50915091506103d78282866103e8565b979650505050505050565b3b151590565b606083156103f757508161027f565b8251156104075782518084602001fd5b8160405162461bcd60e51b81526004018080602001828103825283818151815260200191508051906020019080838360005b83811015610451578181015183820152602001610439565b50505050905090810190601f16801561047e5780820380516001836020036101000a031916815260200191505b509250505060405180910390fdfe416464726573733a20696e73756666696369656e742062616c616e636520666f722063616c6c5361666545524332303a204552433230206f7065726174696f6e20646964206e6f742073756363656564a264697066735822122081b72aafbd5176e79fb301b6c34a88f3e01dc46173f6519f76164a8e1c4d01fc64736f6c634300060c0033",
  "linkReferences": {},
  "deployedLinkReferences": {}
}