{
  "_format": "hh-sol-artifact-1",
  "contractName": "Oracle",
  "sourceName": "contracts/oracle/Oracle.sol",
  "abi": [
    {
      "inputs": [],
      "name": "decimals",
      "outputs": [
        {
          "internalType": "uint8",
          "name": "",
          "type": "uint8"
        }
      ],
      "stateMutability": "view",
      "type": "function"
    },
    {
      "inputs": [],
      "name": "latestAnswer",
      "outputs": [
        {
          "internalType": "uint256",
          "name": "",
          "type": "uint256"
        }
      ],
      "stateMutability": "view",
      "type": "function"
    },
    {
      "inputs": [],
      "name": "price",
      "outputs": [
        {
          "internalType": "uint256",
          "name": "",
          "type": "uint256"
        }
      ],
      "stateMutability": "view",
      "type": "function"
    },
    {
      "inputs": [
        {
          "internalType": "uint8",
          "name": "_decimals",
          "type": "uint8"
        }
      ],
      "name": "setDecimals",
      "outputs": [],
      "stateMutability": "nonpayable",
      "type": "function"
    },
    {
      "inputs": [
        {
          "internalType": "uint256",
          "name": "_price",
          "type": "uint256"
        }
      ],
      "name": "setPrice",
      "outputs": [],
      "stateMutability": "nonpayable",
      "type": "function"
    }
  ],
  "bytecode": "0x60806040526305f5e1006000556001805460ff1916600817905534801561002557600080fd5b5061018c806100356000396000f3fe608060405234801561001057600080fd5b50600436106100675760003560e01c80637a1395aa116100505780637a1395aa1461009f57806391b7f5ed146100b4578063a035b1fe146100c757610067565b8063313ce5671461006c57806350d25bcd1461008a575b600080fd5b6100746100cf565b6040516100819190610148565b60405180910390f35b6100926100d8565b604051610081919061013f565b6100b26100ad366004610117565b6100de565b005b6100b26100c23660046100ff565b6100f4565b6100926100f9565b60015460ff1681565b60005490565b6001805460ff191660ff92909216919091179055565b600055565b60005481565b600060208284031215610110578081fd5b5035919050565b600060208284031215610128578081fd5b813560ff81168114610138578182fd5b9392505050565b90815260200190565b60ff9190911681526020019056fea264697066735822122010581560bc56416c74b29a72581be745d12b2f77193350d7a55ac3cf96f7d44d64736f6c63430008000033",
  "linkReferences": {},
  "deployedLinkReferences": {}
}