{
  "_format": "hh-sol-artifact-1",
  "contractName": "CompositeMultiOracle",
  "sourceName": "contracts/oracles/composite/CompositeMultiOracle.sol",
  "abi": [
    {
      "anonymous": false,
      "inputs": [
        {
          "indexed": true,
          "internalType": "bytes6",
          "name": "baseId",
          "type": "bytes6"
        },
        {
          "indexed": true,
          "internalType": "bytes6",
          "name": "quoteId",
          "type": "bytes6"
        },
        {
          "indexed": true,
          "internalType": "bytes6[]",
          "name": "path",
          "type": "bytes6[]"
        }
      ],
      "name": "PathSet",
      "type": "event"
    },
    {
      "anonymous": false,
      "inputs": [
        {
          "indexed": true,
          "internalType": "bytes4",
          "name": "role",
          "type": "bytes4"
        },
        {
          "indexed": true,
          "internalType": "bytes4",
          "name": "newAdminRole",
          "type": "bytes4"
        }
      ],
      "name": "RoleAdminChanged",
      "type": "event"
    },
    {
      "anonymous": false,
      "inputs": [
        {
          "indexed": true,
          "internalType": "bytes4",
          "name": "role",
          "type": "bytes4"
        },
        {
          "indexed": true,
          "internalType": "address",
          "name": "account",
          "type": "address"
        },
        {
          "indexed": true,
          "internalType": "address",
          "name": "sender",
          "type": "address"
        }
      ],
      "name": "RoleGranted",
      "type": "event"
    },
    {
      "anonymous": false,
      "inputs": [
        {
          "indexed": true,
          "internalType": "bytes4",
          "name": "role",
          "type": "bytes4"
        },
        {
          "indexed": true,
          "internalType": "address",
          "name": "account",
          "type": "address"
        },
        {
          "indexed": true,
          "internalType": "address",
          "name": "sender",
          "type": "address"
        }
      ],
      "name": "RoleRevoked",
      "type": "event"
    },
    {
      "anonymous": false,
      "inputs": [
        {
          "indexed": true,
          "internalType": "bytes6",
          "name": "baseId",
          "type": "bytes6"
        },
        {
          "indexed": true,
          "internalType": "bytes6",
          "name": "quoteId",
          "type": "bytes6"
        },
        {
          "indexed": true,
          "internalType": "address",
          "name": "source",
          "type": "address"
        }
      ],
      "name": "SourceSet",
      "type": "event"
    },
    {
      "inputs": [],
      "name": "LOCK",
      "outputs": [
        {
          "internalType": "bytes4",
          "name": "",
          "type": "bytes4"
        }
      ],
      "stateMutability": "view",
      "type": "function"
    },
    {
      "inputs": [],
      "name": "ROOT",
      "outputs": [
        {
          "internalType": "bytes4",
          "name": "",
          "type": "bytes4"
        }
      ],
      "stateMutability": "view",
      "type": "function"
    },
    {
      "inputs": [],
      "name": "decimals",
      "outputs": [
        {
          "internalType": "uint8",
          "name": "",
          "type": "uint8"
        }
      ],
      "stateMutability": "view",
      "type": "function"
    },
    {
      "inputs": [
        {
          "internalType": "bytes32",
          "name": "base",
          "type": "bytes32"
        },
        {
          "internalType": "bytes32",
          "name": "quote",
          "type": "bytes32"
        },
        {
          "internalType": "uint256",
          "name": "amount",
          "type": "uint256"
        }
      ],
      "name": "get",
      "outputs": [
        {
          "internalType": "uint256",
          "name": "value",
          "type": "uint256"
        },
        {
          "internalType": "uint256",
          "name": "updateTime",
          "type": "uint256"
        }
      ],
      "stateMutability": "nonpayable",
      "type": "function"
    },
    {
      "inputs": [
        {
          "internalType": "bytes4",
          "name": "role",
          "type": "bytes4"
        }
      ],
      "name": "getRoleAdmin",
      "outputs": [
        {
          "internalType": "bytes4",
          "name": "",
          "type": "bytes4"
        }
      ],
      "stateMutability": "view",
      "type": "function"
    },
    {
      "inputs": [
        {
          "internalType": "bytes4",
          "name": "role",
          "type": "bytes4"
        },
        {
          "internalType": "address",
          "name": "account",
          "type": "address"
        }
      ],
      "name": "grantRole",
      "outputs": [],
      "stateMutability": "nonpayable",
      "type": "function"
    },
    {
      "inputs": [
        {
          "internalType": "bytes4[]",
          "name": "roles",
          "type": "bytes4[]"
        },
        {
          "internalType": "address",
          "name": "account",
          "type": "address"
        }
      ],
      "name": "grantRoles",
      "outputs": [],
      "stateMutability": "nonpayable",
      "type": "function"
    },
    {
      "inputs": [
        {
          "internalType": "bytes4",
          "name": "role",
          "type": "bytes4"
        },
        {
          "internalType": "address",
          "name": "account",
          "type": "address"
        }
      ],
      "name": "hasRole",
      "outputs": [
        {
          "internalType": "bool",
          "name": "",
          "type": "bool"
        }
      ],
      "stateMutability": "view",
      "type": "function"
    },
    {
      "inputs": [
        {
          "internalType": "bytes4",
          "name": "role",
          "type": "bytes4"
        }
      ],
      "name": "lockRole",
      "outputs": [],
      "stateMutability": "nonpayable",
      "type": "function"
    },
    {
      "inputs": [
        {
          "internalType": "bytes6",
          "name": "",
          "type": "bytes6"
        },
        {
          "internalType": "bytes6",
          "name": "",
          "type": "bytes6"
        },
        {
          "internalType": "uint256",
          "name": "",
          "type": "uint256"
        }
      ],
      "name": "paths",
      "outputs": [
        {
          "internalType": "bytes6",
          "name": "",
          "type": "bytes6"
        }
      ],
      "stateMutability": "view",
      "type": "function"
    },
    {
      "inputs": [
        {
          "internalType": "bytes32",
          "name": "base",
          "type": "bytes32"
        },
        {
          "internalType": "bytes32",
          "name": "quote",
          "type": "bytes32"
        },
        {
          "internalType": "uint256",
          "name": "amount",
          "type": "uint256"
        }
      ],
      "name": "peek",
      "outputs": [
        {
          "internalType": "uint256",
          "name": "value",
          "type": "uint256"
        },
        {
          "internalType": "uint256",
          "name": "updateTime",
          "type": "uint256"
        }
      ],
      "stateMutability": "view",
      "type": "function"
    },
    {
      "inputs": [
        {
          "internalType": "bytes4",
          "name": "role",
          "type": "bytes4"
        },
        {
          "internalType": "address",
          "name": "account",
          "type": "address"
        }
      ],
      "name": "renounceRole",
      "outputs": [],
      "stateMutability": "nonpayable",
      "type": "function"
    },
    {
      "inputs": [
        {
          "internalType": "bytes4",
          "name": "role",
          "type": "bytes4"
        },
        {
          "internalType": "address",
          "name": "account",
          "type": "address"
        }
      ],
      "name": "revokeRole",
      "outputs": [],
      "stateMutability": "nonpayable",
      "type": "function"
    },
    {
      "inputs": [
        {
          "internalType": "bytes4[]",
          "name": "roles",
          "type": "bytes4[]"
        },
        {
          "internalType": "address",
          "name": "account",
          "type": "address"
        }
      ],
      "name": "revokeRoles",
      "outputs": [],
      "stateMutability": "nonpayable",
      "type": "function"
    },
    {
      "inputs": [
        {
          "internalType": "bytes6",
          "name": "base",
          "type": "bytes6"
        },
        {
          "internalType": "bytes6",
          "name": "quote",
          "type": "bytes6"
        },
        {
          "internalType": "bytes6[]",
          "name": "path",
          "type": "bytes6[]"
        }
      ],
      "name": "setPath",
      "outputs": [],
      "stateMutability": "nonpayable",
      "type": "function"
    },
    {
      "inputs": [
        {
          "internalType": "bytes6[]",
          "name": "bases",
          "type": "bytes6[]"
        },
        {
          "internalType": "bytes6[]",
          "name": "quotes",
          "type": "bytes6[]"
        },
        {
          "internalType": "bytes6[][]",
          "name": "paths_",
          "type": "bytes6[][]"
        }
      ],
      "name": "setPaths",
      "outputs": [],
      "stateMutability": "nonpayable",
      "type": "function"
    },
    {
      "inputs": [
        {
          "internalType": "bytes4",
          "name": "role",
          "type": "bytes4"
        },
        {
          "internalType": "bytes4",
          "name": "adminRole",
          "type": "bytes4"
        }
      ],
      "name": "setRoleAdmin",
      "outputs": [],
      "stateMutability": "nonpayable",
      "type": "function"
    },
    {
      "inputs": [
        {
          "internalType": "bytes6",
          "name": "base",
          "type": "bytes6"
        },
        {
          "internalType": "bytes6",
          "name": "quote",
          "type": "bytes6"
        },
        {
          "internalType": "address",
          "name": "source",
          "type": "address"
        }
      ],
      "name": "setSource",
      "outputs": [],
      "stateMutability": "nonpayable",
      "type": "function"
    },
    {
      "inputs": [
        {
          "internalType": "bytes6[]",
          "name": "bases",
          "type": "bytes6[]"
        },
        {
          "internalType": "bytes6[]",
          "name": "quotes",
          "type": "bytes6[]"
        },
        {
          "internalType": "address[]",
          "name": "sources_",
          "type": "address[]"
        }
      ],
      "name": "setSources",
      "outputs": [],
      "stateMutability": "nonpayable",
      "type": "function"
    },
    {
      "inputs": [
        {
          "internalType": "bytes6",
          "name": "",
          "type": "bytes6"
        },
        {
          "internalType": "bytes6",
          "name": "",
          "type": "bytes6"
        }
      ],
      "name": "sources",
      "outputs": [
        {
          "internalType": "address",
          "name": "source",
          "type": "address"
        },
        {
          "internalType": "uint8",
          "name": "decimals",
          "type": "uint8"
        }
      ],
      "stateMutability": "view",
      "type": "function"
    }
  ],
  "bytecode": "0x60806040523480156200001157600080fd5b506200001f60003362000039565b620000336001600160e01b031980620000ae565b62000187565b62000045828262000130565b620000aa576001600160e01b031982166000818152602081815260408083206001600160a01b0386168085529252808320805460ff1916600117905551339391927fe6231789d19137da31d0550f4ba9ee379020a8cfb64cb79bf1790c996d2e616591a45b5050565b6001600160e01b03198116620000c48362000165565b6001600160e01b03191614620000aa576001600160e01b0319828116600081815260208190526040808220600101805463ffffffff191660e087901c17905551928416927fd348e2220a50b4500ec353f6e802d2f14dd1b5d6786148fd1bbcc570bf92d4739190a35050565b6001600160e01b031982166000908152602081815260408083206001600160a01b038516845290915290205460ff1692915050565b6001600160e01b03191660009081526020819052604090206001015460e01b90565b6120f680620001976000396000f3fe608060405234801561001057600080fd5b506004361061016c5760003560e01c8063687f0e4c116100cd578063a4f0d7d011610081578063ae93c1b511610066578063ae93c1b5146102ee578063de02cde714610301578063effae353146103145761016c565b8063a4f0d7d0146102d3578063ad82110f146102db5761016c565b80638668ca87116100b25780638668ca871461027f57806392b45d9c1461029f5780639f1ed3c0146102b25761016c565b8063687f0e4c1461025957806385f5f1561461026c5761016c565b8063559742d9116101245780635ba5e9f0116101095780635ba5e9f01461022057806360509e5f1461023357806368284fd4146102465761016c565b8063559742d9146101f85780635909c12f1461020b5761016c565b80633679896c116101555780633679896c146101af57806344faded0146101c4578063462f9a28146101d75761016c565b806310ab943214610171578063313ce5671461019a575b600080fd5b61018461017f366004611a4f565b610327565b6040516101919190611c71565b60405180910390f35b6101a261033a565b6040516101919190611ea2565b6101c26101bd366004611937565b61033f565b005b6101c26101d2366004611a4f565b610464565b6101ea6101e5366004611a0a565b6104a2565b604051610191929190611e94565b6101c2610206366004611a35565b610652565b6102136106a9565b6040516101919190611c7c565b61021361022e366004611a35565b6106ae565b6101c2610241366004611b15565b6106c1565b6101ea610254366004611a0a565b610716565b6101c2610267366004611a4f565b610897565b6101c261027a366004611855565b6108d6565b61029261028d366004611b71565b6109ec565b6040516101919190611ca9565b6101c26102ad366004611ad3565b610a3f565b6102c56102c0366004611aaa565b610a94565b604051610191929190611c48565b610213610ae4565b6101c26102e93660046117ac565b610b08565b6101c26102fc366004611a81565b610ba6565b6101c261030f366004611a4f565b610bd9565b6101c26103223660046117ac565b610c0c565b60006103338383610c9d565b9392505050565b601281565b61036d6000357fffffffff000000000000000000000000000000000000000000000000000000001633610c9d565b6103925760405162461bcd60e51b815260040161038990611e26565b60405180910390fd5b815183511480156103a4575080518351145b6103c05760405162461bcd60e51b815260040161038990611d81565b60005b835181101561045e5761044c8482815181106103ef57634e487b7160e01b600052603260045260246000fd5b602002602001015184838151811061041757634e487b7160e01b600052603260045260246000fd5b602002602001015184848151811061043f57634e487b7160e01b600052603260045260246000fd5b6020026020010151610cf7565b8061045681612079565b9150506103c3565b50505050565b8161047761047182610ec4565b33610c9d565b6104935760405162461bcd60e51b815260040161038990611d4a565b61049d8383610efe565b505050565b600080670de0b6b3a7640000816104b887610fb0565b905060006104c587610fb0565b7fffffffffffff000000000000000000000000000000000000000000000000000080841660009081526002602090815260408083209385168352928152828220805484518184028101840190955280855294955091939083018282801561058b57602002820191906000526020600020906000905b82829054906101000a900460d01b79ffffffffffffffffffffffffffffffffffffffffffffffffffff19168152602001906006019060208260050104928301926001038202915080841161053a5790505b5050505050905060005b8151811015610616576105d1848383815181106105c257634e487b7160e01b600052603260045260246000fd5b60200260200101518789610ff2565b80975081965050508181815181106105f957634e487b7160e01b600052603260045260246000fd5b60200260200101519350808061060e90612079565b915050610595565b5061062383838688610ff2565b95509350670de0b6b3a764000061063a888661205a565b6106449190611f23565b955050505050935093915050565b8061065f61047182610ec4565b61067b5760405162461bcd60e51b815260040161038990611d4a565b6106a5827fffffffff00000000000000000000000000000000000000000000000000000000611180565b5050565b600081565b60006106b982610ec4565b90505b919050565b6106ef6000357fffffffff000000000000000000000000000000000000000000000000000000001633610c9d565b61070b5760405162461bcd60e51b815260040161038990611e26565b61049d838383610cf7565b600080670de0b6b3a76400008161072c87610fb0565b9050600061073987610fb0565b7fffffffffffff00000000000000000000000000000000000000000000000000008084166000908152600260209081526040808320938516835292815282822080548451818402810184019095528085529495509193908301828280156107ff57602002820191906000526020600020906000905b82829054906101000a900460d01b79ffffffffffffffffffffffffffffffffffffffffffffffffffff1916815260200190600601906020826005010492830192600103820291508084116107ae5790505b5050505050905060005b815181101561088a576108458483838151811061083657634e487b7160e01b600052603260045260246000fd5b60200260200101518789611262565b809750819650505081818151811061086d57634e487b7160e01b600052603260045260246000fd5b60200260200101519350808061088290612079565b915050610809565b5061062383838688611262565b73ffffffffffffffffffffffffffffffffffffffff811633146108cc5760405162461bcd60e51b815260040161038990611def565b6106a58282610efe565b6109046000357fffffffff000000000000000000000000000000000000000000000000000000001633610c9d565b6109205760405162461bcd60e51b815260040161038990611e26565b81518351148015610932575080518351145b61094e5760405162461bcd60e51b815260040161038990611d81565b60005b835181101561045e576109da84828151811061097d57634e487b7160e01b600052603260045260246000fd5b60200260200101518483815181106109a557634e487b7160e01b600052603260045260246000fd5b60200260200101518484815181106109cd57634e487b7160e01b600052603260045260246000fd5b6020026020010151611384565b806109e481612079565b915050610951565b60026020528260005260406000206020528160005260406000208181548110610a1457600080fd5b906000526020600020906005918282040191900660060292509250509054906101000a900460d01b81565b610a6d6000357fffffffff000000000000000000000000000000000000000000000000000000001633610c9d565b610a895760405162461bcd60e51b815260040161038990611e26565b61049d838383611384565b600160209081526000928352604080842090915290825290205473ffffffffffffffffffffffffffffffffffffffff81169074010000000000000000000000000000000000000000900460ff1682565b7fffffffff0000000000000000000000000000000000000000000000000000000081565b60005b825181101561049d57610b47610471848381518110610b3a57634e487b7160e01b600052603260045260246000fd5b6020026020010151610ec4565b610b635760405162461bcd60e51b815260040161038990611d4a565b610b94838281518110610b8657634e487b7160e01b600052603260045260246000fd5b602002602001015183610efe565b80610b9e81612079565b915050610b0b565b81610bb361047182610ec4565b610bcf5760405162461bcd60e51b815260040161038990611d4a565b61049d8383611180565b81610be661047182610ec4565b610c025760405162461bcd60e51b815260040161038990611d4a565b61049d838361153c565b60005b825181101561049d57610c3e610471848381518110610b3a57634e487b7160e01b600052603260045260246000fd5b610c5a5760405162461bcd60e51b815260040161038990611d4a565b610c8b838281518110610c7d57634e487b7160e01b600052603260045260246000fd5b60200260200101518361153c565b80610c9581612079565b915050610c0f565b7fffffffff00000000000000000000000000000000000000000000000000000000821660009081526020818152604080832073ffffffffffffffffffffffffffffffffffffffff8516845290915290205460ff1692915050565b8260005b8251811015610e07577fffffffffffff00000000000000000000000000000000000000000000000000008216600090815260016020526040812084518290869085908110610d5957634e487b7160e01b600052603260045260246000fd5b6020908102919091018101517fffffffffffff00000000000000000000000000000000000000000000000000001682528101919091526040016000205473ffffffffffffffffffffffffffffffffffffffff161415610dca5760405162461bcd60e51b815260040161038990611db8565b828181518110610dea57634e487b7160e01b600052603260045260246000fd5b602002602001015191508080610dff90612079565b915050610cfb565b507fffffffffffff0000000000000000000000000000000000000000000000000000808516600090815260026020908152604080832093871683529281529190208351610e56928501906115f0565b5081604051610e659190611bf0565b604051908190038120907fffffffffffff000000000000000000000000000000000000000000000000000080861691908716907f1a30194647573e0cd88589e25162b9297036ca9711565ff379143a91b1a1349290600090a450505050565b7fffffffff000000000000000000000000000000000000000000000000000000001660009081526020819052604090206001015460e01b90565b610f088282610c9d565b156106a5577fffffffff00000000000000000000000000000000000000000000000000000000821660008181526020818152604080832073ffffffffffffffffffffffffffffffffffffffff8616808552925280832080547fffffffffffffffffffffffffffffffffffffffffffffffffffffffffffffff0016905551339391927f4ddc7b757e7bdd7254a9cd39452d307a52761bc824625c6a33104a075d8099e691a45050565b807fffffffffffff0000000000000000000000000000000000000000000000000000811681146106bc5760405162461bcd60e51b815260040161038990611d13565b7fffffffffffff00000000000000000000000000000000000000000000000000008481166000908152600160209081526040808320938716835292815282822083518085019094525473ffffffffffffffffffffffffffffffffffffffff81168085527401000000000000000000000000000000000000000090910460ff1691840191909152909182916110985760405162461bcd60e51b815260040161038990611db8565b806000015173ffffffffffffffffffffffffffffffffffffffff1663462f9a2888888460200151600a6110cb9190611f89565b6040518463ffffffff1660e01b81526004016110e993929190611cd6565b6040805180830381600087803b15801561110257600080fd5b505af1158015611116573d6000803e3d6000fd5b505050506040513d601f19601f8201168201806040525081019061113a9190611bac565b6020830151919450925061114f90600a611f89565b611159848761205a565b6111639190611f23565b92508382106111725783611174565b815b91505094509492505050565b7fffffffff0000000000000000000000000000000000000000000000000000000081166111ac83610ec4565b7fffffffff0000000000000000000000000000000000000000000000000000000016146106a5577fffffffff0000000000000000000000000000000000000000000000000000000082811660008181526020819052604080822060010180547fffffffffffffffffffffffffffffffffffffffffffffffffffffffff000000001660e087901c17905551928416927fd348e2220a50b4500ec353f6e802d2f14dd1b5d6786148fd1bbcc570bf92d4739190a35050565b7fffffffffffff00000000000000000000000000000000000000000000000000008481166000908152600160209081526040808320938716835292815282822083518085019094525473ffffffffffffffffffffffffffffffffffffffff81168085527401000000000000000000000000000000000000000090910460ff1691840191909152909182916113085760405162461bcd60e51b815260040161038990611db8565b806000015173ffffffffffffffffffffffffffffffffffffffff166368284fd488888460200151600a61133b9190611f89565b6040518463ffffffff1660e01b815260040161135993929190611cd6565b604080518083038186803b15801561137057600080fd5b505afa158015611116573d6000803e3d6000fd5b60008173ffffffffffffffffffffffffffffffffffffffff1663313ce5676040518163ffffffff1660e01b815260040160206040518083038186803b1580156113cc57600080fd5b505afa1580156113e0573d6000803e3d6000fd5b505050506040513d601f19601f820116820180604052508101906114049190611bcf565b905060128160ff16111561142a5760405162461bcd60e51b815260040161038990611e5d565b60408051808201825273ffffffffffffffffffffffffffffffffffffffff84811680835260ff85811660208086019182527fffffffffffff00000000000000000000000000000000000000000000000000008b8116600081815260018452898120928d16808252929093528883209751885494517fffffffffffffffffffffffff00000000000000000000000000000000000000009095169716969096177fffffffffffffffffffffff00ffffffffffffffffffffffffffffffffffffffff1674010000000000000000000000000000000000000000939094169290920292909217909455935190937f6b17b6fe258656b70fbe6082d40c42859bfac908441594fab748a898387cc03591a450505050565b6115468282610c9d565b6106a5577fffffffff00000000000000000000000000000000000000000000000000000000821660008181526020818152604080832073ffffffffffffffffffffffffffffffffffffffff8616808552925280832080547fffffffffffffffffffffffffffffffffffffffffffffffffffffffffffffff0016600117905551339391927fe6231789d19137da31d0550f4ba9ee379020a8cfb64cb79bf1790c996d2e616591a45050565b828054828255906000526020600020906004016005900481019282156116905791602002820160005b8382111561165c57835183826101000a81548165ffffffffffff021916908360d01c02179055509260200192600601602081600501049283019260010302611619565b801561168e5782816101000a81549065ffffffffffff021916905560060160208160050104928301926001030261165c565b505b5061169c9291506116a0565b5090565b5b8082111561169c57600081556001016116a1565b803573ffffffffffffffffffffffffffffffffffffffff811681146106bc57600080fd5b600082601f8301126116e9578081fd5b813560206116fe6116f983611eff565b611eb0565b828152818101908583018385028701840188101561171a578586fd5b855b8581101561173f5761172d8261177c565b8452928401929084019060010161171c565b5090979650505050505050565b80357fffffffff00000000000000000000000000000000000000000000000000000000811681146106bc57600080fd5b80357fffffffffffff0000000000000000000000000000000000000000000000000000811681146106bc57600080fd5b600080604083850312156117be578182fd5b823567ffffffffffffffff8111156117d4578283fd5b8301601f810185136117e4578283fd5b803560206117f46116f983611eff565b82815281810190848301838502860184018a1015611810578788fd5b8795505b84861015611839576118258161174c565b835260019590950194918301918301611814565b50955061184990508682016116b5565b93505050509250929050565b600080600060608486031215611869578081fd5b833567ffffffffffffffff80821115611880578283fd5b61188c878388016116d9565b94506020915081860135818111156118a2578384fd5b6118ae888289016116d9565b9450506040860135818111156118c2578384fd5b86019050601f810187136118d4578283fd5b80356118e26116f982611eff565b81815283810190838501858402850186018b10156118fe578687fd5b8694505b8385101561192757611913816116b5565b835260019490940193918501918501611902565b5080955050505050509250925092565b60008060006060848603121561194b578283fd5b833567ffffffffffffffff80821115611962578485fd5b61196e878388016116d9565b9450602091508186013581811115611984578485fd5b611990888289016116d9565b9450506040860135818111156119a4578384fd5b86019050601f810187136119b6578283fd5b80356119c46116f982611eff565b81815283810190838501865b848110156119f9576119e78c8884358901016116d9565b845292860192908601906001016119d0565b505080955050505050509250925092565b600080600060608486031215611a1e578283fd5b505081359360208301359350604090920135919050565b600060208284031215611a46578081fd5b6103338261174c565b60008060408385031215611a61578182fd5b611a6a8361174c565b9150611a78602084016116b5565b90509250929050565b60008060408385031215611a93578182fd5b611a9c8361174c565b9150611a786020840161174c565b60008060408385031215611abc578182fd5b611ac58361177c565b9150611a786020840161177c565b600080600060608486031215611ae7578081fd5b611af08461177c565b9250611afe6020850161177c565b9150611b0c604085016116b5565b90509250925092565b600080600060608486031215611b29578081fd5b611b328461177c565b9250611b406020850161177c565b9150604084013567ffffffffffffffff811115611b5b578182fd5b611b67868287016116d9565b9150509250925092565b600080600060608486031215611b85578081fd5b611b8e8461177c565b9250611b9c6020850161177c565b9150604084013590509250925092565b60008060408385031215611bbe578182fd5b505080516020909101519092909150565b600060208284031215611be0578081fd5b815160ff81168114610333578182fd5b815160009082906020808601845b83811015611c3c5781517fffffffffffff00000000000000000000000000000000000000000000000000001685529382019390820190600101611bfe565b50929695505050505050565b73ffffffffffffffffffffffffffffffffffffffff92909216825260ff16602082015260400190565b901515815260200190565b7fffffffff0000000000000000000000000000000000000000000000000000000091909116815260200190565b7fffffffffffff000000000000000000000000000000000000000000000000000091909116815260200190565b7fffffffffffff00000000000000000000000000000000000000000000000000009384168152919092166020820152604081019190915260600190565b6020808252600d908201527f43617374206f766572666c6f7700000000000000000000000000000000000000604082015260600190565b6020808252600a908201527f4f6e6c792061646d696e00000000000000000000000000000000000000000000604082015260600190565b60208082526011908201527f4d69736d61746368656420696e70757473000000000000000000000000000000604082015260600190565b60208082526010908201527f536f75726365206e6f7420666f756e6400000000000000000000000000000000604082015260600190565b60208082526016908201527f52656e6f756e6365206f6e6c7920666f722073656c6600000000000000000000604082015260600190565b6020808252600d908201527f4163636573732064656e69656400000000000000000000000000000000000000604082015260600190565b60208082526014908201527f556e737570706f7274656420646563696d616c73000000000000000000000000604082015260600190565b918252602082015260400190565b60ff91909116815260200190565b604051601f82017fffffffffffffffffffffffffffffffffffffffffffffffffffffffffffffffe016810167ffffffffffffffff81118282101715611ef757611ef76120aa565b604052919050565b600067ffffffffffffffff821115611f1957611f196120aa565b5060209081020190565b600082611f3e57634e487b7160e01b81526012600452602481fd5b500490565b80825b6001808611611f555750611f80565b818704821115611f6757611f67612094565b80861615611f7457918102915b9490941c938002611f46565b94509492505050565b600061033360001960ff851684600082611fa557506001610333565b81611fb257506000610333565b8160018114611fc85760028114611fd257611fff565b6001915050610333565b60ff841115611fe357611fe3612094565b6001841b915084821115611ff957611ff9612094565b50610333565b5060208310610133831016604e8410600b8410161715612032575081810a8381111561202d5761202d612094565b610333565b61203f8484846001611f43565b80860482111561205157612051612094565b02949350505050565b600081600019048311821515161561207457612074612094565b500290565b600060001982141561208d5761208d612094565b5060010190565b634e487b7160e01b600052601160045260246000fd5b634e487b7160e01b600052604160045260246000fdfea2646970667358221220be44fafacf459230fca286ceecb31ffaf24cc8724b8e9bf1f551dd6ed86ef8fe64736f6c63430008010033",
  "linkReferences": {},
  "deployedLinkReferences": {}
}