{
  "_format": "hh-sol-artifact-1",
  "contractName": "MockTopUpActionFeeHandler",
  "sourceName": "contracts/testing/MockTopUpActionFeeHandler.sol",
  "abi": [
    {
      "inputs": [
        {
          "internalType": "contract IController",
          "name": "_controller",
          "type": "address"
        },
        {
          "internalType": "address",
          "name": "_actionContract",
          "type": "address"
        },
        {
          "internalType": "uint256",
          "name": "keeperFee",
          "type": "uint256"
        },
        {
          "internalType": "uint256",
          "name": "treasuryFee",
          "type": "uint256"
        }
      ],
      "stateMutability": "nonpayable",
      "type": "constructor"
    },
    {
      "anonymous": false,
      "inputs": [
        {
          "indexed": true,
          "internalType": "bytes32",
          "name": "key",
          "type": "bytes32"
        },
        {
          "indexed": false,
          "internalType": "address",
          "name": "value",
          "type": "address"
        },
        {
          "indexed": false,
          "internalType": "uint256",
          "name": "delay",
          "type": "uint256"
        }
      ],
      "name": "ConfigPreparedAddress",
      "type": "event"
    },
    {
      "anonymous": false,
      "inputs": [
        {
          "indexed": true,
          "internalType": "bytes32",
          "name": "key",
          "type": "bytes32"
        },
        {
          "indexed": false,
          "internalType": "uint256",
          "name": "value",
          "type": "uint256"
        },
        {
          "indexed": false,
          "internalType": "uint256",
          "name": "delay",
          "type": "uint256"
        }
      ],
      "name": "ConfigPreparedNumber",
      "type": "event"
    },
    {
      "anonymous": false,
      "inputs": [
        {
          "indexed": true,
          "internalType": "bytes32",
          "name": "key",
          "type": "bytes32"
        }
      ],
      "name": "ConfigReset",
      "type": "event"
    },
    {
      "anonymous": false,
      "inputs": [
        {
          "indexed": true,
          "internalType": "bytes32",
          "name": "key",
          "type": "bytes32"
        },
        {
          "indexed": false,
          "internalType": "address",
          "name": "oldValue",
          "type": "address"
        },
        {
          "indexed": false,
          "internalType": "address",
          "name": "newValue",
          "type": "address"
        }
      ],
      "name": "ConfigUpdatedAddress",
      "type": "event"
    },
    {
      "anonymous": false,
      "inputs": [
        {
          "indexed": true,
          "internalType": "bytes32",
          "name": "key",
          "type": "bytes32"
        },
        {
          "indexed": false,
          "internalType": "uint256",
          "name": "oldValue",
          "type": "uint256"
        },
        {
          "indexed": false,
          "internalType": "uint256",
          "name": "newValue",
          "type": "uint256"
        }
      ],
      "name": "ConfigUpdatedNumber",
      "type": "event"
    },
    {
      "anonymous": false,
      "inputs": [
        {
          "indexed": true,
          "internalType": "address",
          "name": "payer",
          "type": "address"
        },
        {
          "indexed": true,
          "internalType": "address",
          "name": "keeper",
          "type": "address"
        },
        {
          "indexed": false,
          "internalType": "address",
          "name": "token",
          "type": "address"
        },
        {
          "indexed": false,
          "internalType": "uint256",
          "name": "amount",
          "type": "uint256"
        },
        {
          "indexed": false,
          "internalType": "uint256",
          "name": "keeperAmount",
          "type": "uint256"
        },
        {
          "indexed": false,
          "internalType": "uint256",
          "name": "lpAmount",
          "type": "uint256"
        }
      ],
      "name": "FeesPayed",
      "type": "event"
    },
    {
      "anonymous": false,
      "inputs": [
        {
          "indexed": true,
          "internalType": "address",
          "name": "keeper",
          "type": "address"
        },
        {
          "indexed": false,
          "internalType": "address",
          "name": "token",
          "type": "address"
        },
        {
          "indexed": false,
          "internalType": "uint256",
          "name": "totalClaimed",
          "type": "uint256"
        }
      ],
      "name": "KeeperFeesClaimed",
      "type": "event"
    },
    {
      "inputs": [],
      "name": "actionContract",
      "outputs": [
        {
          "internalType": "address",
          "name": "",
          "type": "address"
        }
      ],
      "stateMutability": "view",
      "type": "function"
    },
    {
      "inputs": [
        {
          "internalType": "address",
          "name": "beneficiary",
          "type": "address"
        },
        {
          "internalType": "uint256",
          "name": "amount",
          "type": "uint256"
        },
        {
          "internalType": "address",
          "name": "lpTokenAddress",
          "type": "address"
        }
      ],
      "name": "callReportFees",
      "outputs": [],
      "stateMutability": "nonpayable",
      "type": "function"
    },
    {
      "inputs": [
        {
          "internalType": "address",
          "name": "beneficiary",
          "type": "address"
        },
        {
          "internalType": "address",
          "name": "token",
          "type": "address"
        }
      ],
      "name": "claimKeeperFeesForPool",
      "outputs": [
        {
          "internalType": "bool",
          "name": "",
          "type": "bool"
        }
      ],
      "stateMutability": "nonpayable",
      "type": "function"
    },
    {
      "inputs": [
        {
          "internalType": "address",
          "name": "token",
          "type": "address"
        }
      ],
      "name": "claimTreasuryFees",
      "outputs": [
        {
          "internalType": "bool",
          "name": "",
          "type": "bool"
        }
      ],
      "stateMutability": "nonpayable",
      "type": "function"
    },
    {
      "inputs": [],
      "name": "controller",
      "outputs": [
        {
          "internalType": "contract IController",
          "name": "",
          "type": "address"
        }
      ],
      "stateMutability": "view",
      "type": "function"
    },
    {
      "inputs": [
        {
          "internalType": "bytes32",
          "name": "",
          "type": "bytes32"
        }
      ],
      "name": "currentAddresses",
      "outputs": [
        {
          "internalType": "address",
          "name": "",
          "type": "address"
        }
      ],
      "stateMutability": "view",
      "type": "function"
    },
    {
      "inputs": [
        {
          "internalType": "bytes32",
          "name": "",
          "type": "bytes32"
        }
      ],
      "name": "currentUInts256",
      "outputs": [
        {
          "internalType": "uint256",
          "name": "",
          "type": "uint256"
        }
      ],
      "stateMutability": "view",
      "type": "function"
    },
    {
      "inputs": [
        {
          "internalType": "bytes32",
          "name": "",
          "type": "bytes32"
        }
      ],
      "name": "deadlines",
      "outputs": [
        {
          "internalType": "uint256",
          "name": "",
          "type": "uint256"
        }
      ],
      "stateMutability": "view",
      "type": "function"
    },
    {
      "inputs": [],
      "name": "executeKeeperFee",
      "outputs": [
        {
          "internalType": "uint256",
          "name": "",
          "type": "uint256"
        }
      ],
      "stateMutability": "nonpayable",
      "type": "function"
    },
    {
      "inputs": [
        {
          "internalType": "address",
          "name": "lpToken",
          "type": "address"
        }
      ],
      "name": "executeKeeperGauge",
      "outputs": [
        {
          "internalType": "address",
          "name": "",
          "type": "address"
        }
      ],
      "stateMutability": "nonpayable",
      "type": "function"
    },
    {
      "inputs": [],
      "name": "executeTreasuryFee",
      "outputs": [
        {
          "internalType": "uint256",
          "name": "",
          "type": "uint256"
        }
      ],
      "stateMutability": "nonpayable",
      "type": "function"
    },
    {
      "inputs": [],
      "name": "getKeeperFeeFraction",
      "outputs": [
        {
          "internalType": "uint256",
          "name": "",
          "type": "uint256"
        }
      ],
      "stateMutability": "view",
      "type": "function"
    },
    {
      "inputs": [
        {
          "internalType": "address",
          "name": "lpToken",
          "type": "address"
        }
      ],
      "name": "getKeeperGauge",
      "outputs": [
        {
          "internalType": "address",
          "name": "",
          "type": "address"
        }
      ],
      "stateMutability": "view",
      "type": "function"
    },
    {
      "inputs": [],
      "name": "getTreasuryFeeFraction",
      "outputs": [
        {
          "internalType": "uint256",
          "name": "",
          "type": "uint256"
        }
      ],
      "stateMutability": "view",
      "type": "function"
    },
    {
      "inputs": [
        {
          "internalType": "address",
          "name": "",
          "type": "address"
        },
        {
          "internalType": "address",
          "name": "",
          "type": "address"
        }
      ],
      "name": "keeperRecords",
      "outputs": [
        {
          "internalType": "uint256",
          "name": "",
          "type": "uint256"
        }
      ],
      "stateMutability": "view",
      "type": "function"
    },
    {
      "inputs": [
        {
          "internalType": "address",
          "name": "payer",
          "type": "address"
        },
        {
          "internalType": "address",
          "name": "beneficiary",
          "type": "address"
        },
        {
          "internalType": "uint256",
          "name": "amount",
          "type": "uint256"
        },
        {
          "internalType": "address",
          "name": "lpTokenAddress",
          "type": "address"
        }
      ],
      "name": "payFees",
      "outputs": [
        {
          "internalType": "bool",
          "name": "",
          "type": "bool"
        }
      ],
      "stateMutability": "nonpayable",
      "type": "function"
    },
    {
      "inputs": [
        {
          "internalType": "bytes32",
          "name": "",
          "type": "bytes32"
        }
      ],
      "name": "pendingAddresses",
      "outputs": [
        {
          "internalType": "address",
          "name": "",
          "type": "address"
        }
      ],
      "stateMutability": "view",
      "type": "function"
    },
    {
      "inputs": [
        {
          "internalType": "bytes32",
          "name": "",
          "type": "bytes32"
        }
      ],
      "name": "pendingUInts256",
      "outputs": [
        {
          "internalType": "uint256",
          "name": "",
          "type": "uint256"
        }
      ],
      "stateMutability": "view",
      "type": "function"
    },
    {
      "inputs": [
        {
          "internalType": "uint256",
          "name": "newKeeperFee",
          "type": "uint256"
        }
      ],
      "name": "prepareKeeperFee",
      "outputs": [
        {
          "internalType": "bool",
          "name": "",
          "type": "bool"
        }
      ],
      "stateMutability": "nonpayable",
      "type": "function"
    },
    {
      "inputs": [
        {
          "internalType": "address",
          "name": "lpToken",
          "type": "address"
        },
        {
          "internalType": "address",
          "name": "newKeeperGauge",
          "type": "address"
        }
      ],
      "name": "prepareKeeperGauge",
      "outputs": [
        {
          "internalType": "bool",
          "name": "",
          "type": "bool"
        }
      ],
      "stateMutability": "nonpayable",
      "type": "function"
    },
    {
      "inputs": [
        {
          "internalType": "uint256",
          "name": "newTreasuryFee",
          "type": "uint256"
        }
      ],
      "name": "prepareTreasuryFee",
      "outputs": [
        {
          "internalType": "bool",
          "name": "",
          "type": "bool"
        }
      ],
      "stateMutability": "nonpayable",
      "type": "function"
    },
    {
      "inputs": [],
      "name": "resetKeeperFee",
      "outputs": [
        {
          "internalType": "bool",
          "name": "",
          "type": "bool"
        }
      ],
      "stateMutability": "nonpayable",
      "type": "function"
    },
    {
      "inputs": [
        {
          "internalType": "address",
          "name": "lpToken",
          "type": "address"
        }
      ],
      "name": "resetKeeperGauge",
      "outputs": [
        {
          "internalType": "bool",
          "name": "",
          "type": "bool"
        }
      ],
      "stateMutability": "nonpayable",
      "type": "function"
    },
    {
      "inputs": [],
      "name": "resetTreasuryFee",
      "outputs": [
        {
          "internalType": "bool",
          "name": "",
          "type": "bool"
        }
      ],
      "stateMutability": "nonpayable",
      "type": "function"
    },
    {
      "inputs": [],
      "name": "roleManager",
      "outputs": [
        {
          "internalType": "contract IRoleManager",
          "name": "",
          "type": "address"
        }
      ],
      "stateMutability": "view",
      "type": "function"
    },
    {
      "inputs": [
        {
          "internalType": "address",
          "name": "lpToken",
          "type": "address"
        },
        {
          "internalType": "address",
          "name": "_keeperGauge",
          "type": "address"
        }
      ],
      "name": "setInitialKeeperGaugeForToken",
      "outputs": [
        {
          "internalType": "bool",
          "name": "",
          "type": "bool"
        }
      ],
      "stateMutability": "nonpayable",
      "type": "function"
    },
    {
      "inputs": [
        {
          "internalType": "address",
          "name": "",
          "type": "address"
        }
      ],
      "name": "treasuryAmounts",
      "outputs": [
        {
          "internalType": "uint256",
          "name": "",
          "type": "uint256"
        }
      ],
      "stateMutability": "view",
      "type": "function"
    }
  ],
  "bytecode": "0x60e06040523480156200001157600080fd5b50604051620024cc380380620024cc8339810160408190526200003491620002ac565b83838383620000cb846001600160a01b0316632954018c6040518163ffffffff1660e01b815260040160206040518083038186803b1580156200007657600080fd5b505afa1580156200008b573d6000803e3d6000fd5b505050506040513d601f19601f82011682018060405250810190620000b19190620002f9565b6001600160a01b03166200019560201b620014c51760201c565b6001600160a01b0316608052670de0b6b3a7640000620000ec828462000320565b11156040518060400160405280600e81526020016d1a5b9d985b1a5908185b5bdd5b9d60921b815250906200013f5760405162461bcd60e51b815260040162000136919062000347565b60405180910390fd5b506001600160a01b0380841660a052841660c0526200016b684b656570657246656560b81b8362000227565b50620001866a547265617375727946656560a81b8262000227565b5050505050505050506200039f565b6040516321f8a72160e01b81526a3937b632a6b0b730b3b2b960a91b60048201526000906001600160a01b038316906321f8a7219060240160206040518083038186803b158015620001e657600080fd5b505afa158015620001fb573d6000803e3d6000fd5b505050506040513d601f19601f82011682018060405250810190620002219190620002f9565b92915050565b6000828152600360209081526040808320805490859055600183528184208490556004835281842084905581518181529283018590529185917fcc0bafe2accb565ea70674bf4b2555e49a47d410fb9932dfab3e5f41855d0a2f910160405180910390a2509092915050565b6001600160a01b0381168114620002a957600080fd5b50565b60008060008060808587031215620002c357600080fd5b8451620002d08162000293565b6020860151909450620002e38162000293565b6040860151606090960151949790965092505050565b6000602082840312156200030c57600080fd5b8151620003198162000293565b9392505050565b600082198211156200034257634e487b7160e01b600052601160045260246000fd5b500190565b600060208083528351808285015260005b81811015620003765785810183015185820160400152820162000358565b8181111562000389576000604083870101525b50601f01601f1916929092016040019392505050565b60805160a05160c0516120be6200040e60003960008181610436015261097301526000818161029001526111410152600081816101af015281816104610152818161063c015281816107ee01528181610bee01528181610d4f01528181610e5a01526113b601526120be6000f3fe608060405234801561001057600080fd5b50600436106101a85760003560e01c80638fe96732116100f9578063cb44017311610097578063e73c361511610071578063e73c3615146103ca578063ee036a75146103f5578063f76c339914610408578063f77c47911461043157600080fd5b8063cb44017314610386578063cfd93e321461038e578063e3976edf146103a157600080fd5b8063ac3483b0116100d3578063ac3483b014610343578063aff1b7e414610356578063b94f5bdf14610376578063bbeffd851461037e57600080fd5b80638fe967321461030a57806390f6ce0c1461031d578063a151eab11461033057600080fd5b806339bef3661161016657806372038b181161014057806372038b18146102ba5780637265fc91146102c257806373c03fe1146102d557806377233752146102ea57600080fd5b806339bef36614610283578063444116b51461028b5780635fe8af5d146102b257600080fd5b8062435da5146101ad5780630f2703a2146101ec57806312bb00ee1461020f57806315dbfe62146102225780632a56555114610250578063346a4a5114610263575b600080fd5b7f00000000000000000000000000000000000000000000000000000000000000005b6040516001600160a01b0390911681526020015b60405180910390f35b6101ff6101fa366004611e23565b61045d565b60405190151581526020016101e3565b6101ff61021d366004611e5c565b610638565b610242610230366004611e5c565b60016020526000908152604090205481565b6040519081526020016101e3565b6101cf61025e366004611e75565b61079d565b610242610271366004611e5c565b60046020526000908152604090205481565b6102426107b0565b6101cf7f000000000000000000000000000000000000000000000000000000000000000081565b6101ff6107ea565b6102426108f9565b6101ff6102d0366004611e75565b610935565b6102e86102e3366004611e92565b610a17565b005b6102426102f8366004611e75565b60056020526000908152604090205481565b6101ff610318366004611e23565b610ab7565b6101cf61032b366004611e75565b610bbb565b6101ff61033e366004611e5c565b610bea565b6101ff610351366004611e75565b610d4b565b610242610364366004611e5c565b60036020526000908152604090205481565b6101ff610e56565b610242610f67565b610242611039565b6101ff61039c366004611ed4565b611109565b6101cf6103af366004611e5c565b6000602081905290815260409020546001600160a01b031681565b6102426103d8366004611e23565b600660209081526000928352604080842090915290825290205481565b6101ff610403366004611e23565b6113b2565b6101cf610416366004611e5c565b6002602052600090815260409020546001600160a01b031681565b6101cf7f000000000000000000000000000000000000000000000000000000000000000081565b905090565b60007f0000000000000000000000000000000000000000000000000000000000000000604051632474521560e21b815269676f7665726e616e636560b01b60048201523360248201526001600160a01b0391909116906391d148549060440160206040518083038186803b1580156104d457600080fd5b505afa1580156104e8573d6000803e3d6000fd5b505050506040513d601f19601f8201168201806040525081019061050c9190611f27565b60405180604001604052806013815260200172756e617574686f72697a65642061636365737360681b8152509061055f5760405162461bcd60e51b81526004016105569190611f75565b60405180910390fd5b50600061056b84610bbb565b6001600160a01b031614604051806040016040528060188152602001771e995c9bc81859191c995cdcc81b9bdd08185b1b1bddd95960421b815250906105c45760405162461bcd60e51b81526004016105569190611f75565b506040805180820190915260188152771e995c9bc81859191c995cdcc81b9bdd08185b1b1bddd95960421b60208201526001600160a01b03831661061b5760405162461bcd60e51b81526004016105569190611f75565b5061062e6106288461154e565b836115a9565b5060019392505050565b60007f0000000000000000000000000000000000000000000000000000000000000000604051632474521560e21b815269676f7665726e616e636560b01b60048201523360248201526001600160a01b0391909116906391d148549060440160206040518083038186803b1580156106af57600080fd5b505afa1580156106c3573d6000803e3d6000fd5b505050506040513d601f19601f820116820180604052508101906106e79190611f27565b60405180604001604052806013815260200172756e617574686f72697a65642061636365737360681b815250906107315760405162461bcd60e51b81526004016105569190611f75565b5060408051808201909152600e81526d1a5b9d985b1a5908185b5bdd5b9d60921b6020820152670de0b6b3a76400008311156107805760405162461bcd60e51b81526004016105569190611f75565b50610797684b656570657246656560b81b83611634565b92915050565b60006107976107ab8361154e565b611644565b684b656570657246656560b81b60005260036020527f46fbd738fa5d44e701d49be219801064ee5964d35f7f3946d57a88ca6bd5e7905490565b60007f0000000000000000000000000000000000000000000000000000000000000000604051632474521560e21b815269676f7665726e616e636560b01b60048201523360248201526001600160a01b0391909116906391d148549060440160206040518083038186803b15801561086157600080fd5b505afa158015610875573d6000803e3d6000fd5b505050506040513d601f19601f820116820180604052508101906108999190611f27565b60405180604001604052806013815260200172756e617574686f72697a65642061636365737360681b815250906108e35760405162461bcd60e51b81526004016105569190611f75565b50610458684b656570657246656560b81b611678565b6a547265617375727946656560a81b60005260036020527f7a257e8f29bfe1d0de97f10ac228f173c9eb0267f3cbf293b42ec4a0e86dc96f5490565b6001600160a01b0380821660009081526005602090815260408083208054908490558151630a55006360e21b8152915193949093610a0e936109fd937f000000000000000000000000000000000000000000000000000000000000000090931692632954018c9260048083019392829003018186803b1580156109b757600080fd5b505afa1580156109cb573d6000803e3d6000fd5b505050506040513d601f19601f820116820180604052508101906109ef9190611fa8565b6001600160a01b031661171f565b6001600160a01b0385169083611759565b50600192915050565b6000610a2282610bbb565b6040516303d86c0d60e31b81526001600160a01b03868116600483015260248201869052848116604483015291925090821690631ec3606890606401602060405180830381600087803b158015610a7857600080fd5b505af1158015610a8c573d6000803e3d6000fd5b505050506040513d601f19601f82011682018060405250810190610ab09190611f27565b5050505050565b6001600160a01b0380831660009081526006602090815260408083209385168352928152828220548351808501909452601d84527f7468657265206973206e6f20636c61696d61626c652062616c616e636500000091840191909152909181610b335760405162461bcd60e51b81526004016105569190611f75565b506001600160a01b038085166000908152600660209081526040808320938716808452939091528120558390610b6a908684611759565b604080516001600160a01b038681168252602082018590528716917fa2099e15da4f15b4446a2ccd0b9767c2e897c797777c20ab5f5b899a62704e67910160405180910390a2506001949350505050565b600060026000610bca8461154e565b81526020810191909152604001600020546001600160a01b031692915050565b60007f0000000000000000000000000000000000000000000000000000000000000000604051632474521560e21b815269676f7665726e616e636560b01b60048201523360248201526001600160a01b0391909116906391d148549060440160206040518083038186803b158015610c6157600080fd5b505afa158015610c75573d6000803e3d6000fd5b505050506040513d601f19601f82011682018060405250810190610c999190611f27565b60405180604001604052806013815260200172756e617574686f72697a65642061636365737360681b81525090610ce35760405162461bcd60e51b81526004016105569190611f75565b5060408051808201909152600e81526d1a5b9d985b1a5908185b5bdd5b9d60921b6020820152670de0b6b3a7640000831115610d325760405162461bcd60e51b81526004016105569190611f75565b506107976a547265617375727946656560a81b83611634565b60007f0000000000000000000000000000000000000000000000000000000000000000604051632474521560e21b815269676f7665726e616e636560b01b60048201523360248201526001600160a01b0391909116906391d148549060440160206040518083038186803b158015610dc257600080fd5b505afa158015610dd6573d6000803e3d6000fd5b505050506040513d601f19601f82011682018060405250810190610dfa9190611f27565b60405180604001604052806013815260200172756e617574686f72697a65642061636365737360681b81525090610e445760405162461bcd60e51b81526004016105569190611f75565b50610797610e518361154e565b6117c1565b60007f0000000000000000000000000000000000000000000000000000000000000000604051632474521560e21b815269676f7665726e616e636560b01b60048201523360248201526001600160a01b0391909116906391d148549060440160206040518083038186803b158015610ecd57600080fd5b505afa158015610ee1573d6000803e3d6000fd5b505050506040513d601f19601f82011682018060405250810190610f059190611f27565b60405180604001604052806013815260200172756e617574686f72697a65642061636365737360681b81525090610f4f5760405162461bcd60e51b81526004016105569190611f75565b506104586a547265617375727946656560a81b611678565b60016020527f60c67394e69102ffbeb9a616df8f05bd23ff11b556ace7ba8bedef12119e00a5546a547265617375727946656560a81b60009081527fe37c5cdd27e258abaa4f959c757cd2d7040a9ff7ea53e54acf000117f55809ac549091670de0b6b3a764000091610fda9190611fdb565b11156040518060400160405280600e81526020016d1a5b9d985b1a5908185b5bdd5b9d60921b815250906110215760405162461bcd60e51b81526004016105569190611f75565b506104586a547265617375727946656560a81b611872565b60016020527f60c67394e69102ffbeb9a616df8f05bd23ff11b556ace7ba8bedef12119e00a5546a547265617375727946656560a81b60009081527fe37c5cdd27e258abaa4f959c757cd2d7040a9ff7ea53e54acf000117f55809ac549091670de0b6b3a7640000916110ac9190611fdb565b11156040518060400160405280600e81526020016d1a5b9d985b1a5908185b5bdd5b9d60921b815250906110f35760405162461bcd60e51b81526004016105569190611f75565b50610458684b656570657246656560b81b611872565b604080518082019091526013815272756e617574686f72697a65642061636365737360681b6020820152600090336001600160a01b037f0000000000000000000000000000000000000000000000000000000000000000161461117f5760405162461bcd60e51b81526004016105569190611f75565b50600061119461118d6107b0565b8590611896565b905060006111aa6111a36108f9565b8690611896565b9050836111c26001600160a01b0382163330896118b5565b60006111cd86610bbb565b90506001600160a01b0381161561126a576040516303d86c0d60e31b81526001600160a01b038981166004830152602482018690528781166044830152821690631ec3606890606401602060405180830381600087803b15801561123057600080fd5b505af1158015611244573d6000803e3d6000fd5b505050506040513d601f19601f820116820180604052508101906112689190611f27565b505b6001600160a01b038089166000908152600660209081526040808320938a16835292905290812080548692906112a1908490611fdb565b90915550506001600160a01b038616600090815260056020526040812080548592906112ce908490611fdb565b9091555060009050836112e1868a611ff3565b6112eb9190611ff3565b604051630852cd8d60e31b8152600481018290529091506001600160a01b038416906342966c6890602401600060405180830381600087803b15801561133057600080fd5b505af1158015611344573d6000803e3d6000fd5b5050604080516001600160a01b038b81168252602082018d905291810189905260608101859052818d169350908d1691507ffa9d128d86552a91243363427b3fde4f942de701bf1f81908816fc2c056750859060800160405180910390a35060019998505050505050505050565b60007f0000000000000000000000000000000000000000000000000000000000000000604051632474521560e21b815269676f7665726e616e636560b01b60048201523360248201526001600160a01b0391909116906391d148549060440160206040518083038186803b15801561142957600080fd5b505afa15801561143d573d6000803e3d6000fd5b505050506040513d601f19601f820116820180604052508101906114619190611f27565b60405180604001604052806013815260200172756e617574686f72697a65642061636365737360681b815250906114ab5760405162461bcd60e51b81526004016105569190611f75565b506114be6114b88461154e565b836118f3565b9392505050565b6040516321f8a72160e01b81526a3937b632a6b0b730b3b2b960a91b60048201526000906001600160a01b038316906321f8a721906024015b60206040518083038186803b15801561151657600080fd5b505afa15801561152a573d6000803e3d6000fd5b505050506040513d601f19601f820116820180604052508101906107979190611fa8565b60006a4b6565706572476175676560a81b8260405160200161158c92919091825260601b6bffffffffffffffffffffffff1916602082015260340190565b604051602081830303815290604052805190602001209050919050565b600082815260026020908152604080832080546001600160a01b03198082166001600160a01b038881169182179094558686528487208054909216909155600485528386208690558351929091168083529382015285917fc4a957706c639829ad54381b04930c464db6c7ffdc09d2b4b1acc9ee34fb926191015b60405180910390a2509092915050565b60006114be83836203f480611903565b600061164f82611967565b6000828152602081905260409020546001600160a01b031661167183826115a9565b5092915050565b600081815260046020908152604080832054815180830190925260128252710646561646c696e65206d75737420626520360741b92820192909252906116d15760405162461bcd60e51b81526004016105569190611f75565b50600082815260046020908152604080832083905560019091528082208290555183917f90fb84ad67dd037c388289337bb80b61b8605d38ba9a875dc38b5600909d172f91a2506001919050565b6040516321f8a72160e01b815267747265617375727960c01b60048201526000906001600160a01b038316906321f8a721906024016114fe565b6040516001600160a01b0383166024820152604481018290526117bc90849063a9059cbb60e01b906064015b60408051601f198184030181529190526020810180516001600160e01b03166001600160e01b031990931692909217909152611a10565b505050565b600081815260046020908152604080832054815180830190925260128252710646561646c696e65206d75737420626520360741b928201929092529061181a5760405162461bcd60e51b81526004016105569190611f75565b5060008281526004602090815260408083208390559082905280822080546001600160a01b03191690555183917f90fb84ad67dd037c388289337bb80b61b8605d38ba9a875dc38b5600909d172f91a2506001919050565b600061187d82611967565b6000828152600160205260409020546116718382611ae2565b6000670de0b6b3a76400006118ab838561200a565b6114be9190612029565b6040516001600160a01b03808516602483015283166044820152606481018290526118ed9085906323b872dd60e01b90608401611785565b50505050565b60006114be83836203f480611b43565b600061190f8483611bb0565b600084815260016020908152604091829020859055815185815290810184905285917f0e6790002e78fb96ff1fdfe3a3bb2a86489d3f3923372c1fe5b6b1fed071eed491015b60405180910390a25060019392505050565b6000600460008381526020019081526020016000205490508042101560405180606001604052806021815260200161206860219139906119ba5760405162461bcd60e51b81526004016105569190611f75565b5060408051808201909152600d81526c0646561646c696e65206973203609c1b6020820152816119fd5760405162461bcd60e51b81526004016105569190611f75565b5050600090815260046020526040812055565b6000611a65826040518060400160405280602081526020017f5361666545524332303a206c6f772d6c6576656c2063616c6c206661696c6564815250856001600160a01b0316611c8a9092919063ffffffff16565b8051909150156117bc5780806020019051810190611a839190611f27565b6117bc5760405162461bcd60e51b815260206004820152602a60248201527f5361666545524332303a204552433230206f7065726174696f6e20646964206e6044820152691bdd081cdd58d8d9595960b21b6064820152608401610556565b6000828152600360209081526040808320805490859055600183528184208490556004835281842084905581518181529283018590529185917fcc0bafe2accb565ea70674bf4b2555e49a47d410fb9932dfab3e5f41855d0a2f9101611624565b6000611b4f8483611bb0565b6000848152602081815260409182902080546001600160a01b0319166001600160a01b038716908117909155825190815290810184905285917fd46e58ee9dc1ae703349f8c09c19f23213a531b4d57f00cfd4a5a6cb6519668d9101611955565b6004600083815260200190815260200160002054600014604051806040016040528060128152602001710646561646c696e65206d75737420626520360741b81525090611c105760405162461bcd60e51b81526004016105569190611f75565b5060408051808201909152601881527f64656c6179206265206174206c6561737420332064617973000000000000000060208201526203f480821015611c695760405162461bcd60e51b81526004016105569190611f75565b50611c748142611fdb565b6000928352600460205260409092209190915550565b6060611c998484600085611ca1565b949350505050565b606082471015611d025760405162461bcd60e51b815260206004820152602660248201527f416464726573733a20696e73756666696369656e742062616c616e636520666f6044820152651c8818d85b1b60d21b6064820152608401610556565b6001600160a01b0385163b611d595760405162461bcd60e51b815260206004820152601d60248201527f416464726573733a2063616c6c20746f206e6f6e2d636f6e74726163740000006044820152606401610556565b600080866001600160a01b03168587604051611d75919061204b565b60006040518083038185875af1925050503d8060008114611db2576040519150601f19603f3d011682016040523d82523d6000602084013e611db7565b606091505b5091509150611dc7828286611dd2565b979650505050505050565b60608315611de15750816114be565b825115611df15782518084602001fd5b8160405162461bcd60e51b81526004016105569190611f75565b6001600160a01b0381168114611e2057600080fd5b50565b60008060408385031215611e3657600080fd5b8235611e4181611e0b565b91506020830135611e5181611e0b565b809150509250929050565b600060208284031215611e6e57600080fd5b5035919050565b600060208284031215611e8757600080fd5b81356114be81611e0b565b600080600060608486031215611ea757600080fd5b8335611eb281611e0b565b9250602084013591506040840135611ec981611e0b565b809150509250925092565b60008060008060808587031215611eea57600080fd5b8435611ef581611e0b565b93506020850135611f0581611e0b565b9250604085013591506060850135611f1c81611e0b565b939692955090935050565b600060208284031215611f3957600080fd5b815180151581146114be57600080fd5b60005b83811015611f64578181015183820152602001611f4c565b838111156118ed5750506000910152565b6020815260008251806020840152611f94816040850160208701611f49565b601f01601f19169190910160400192915050565b600060208284031215611fba57600080fd5b81516114be81611e0b565b634e487b7160e01b600052601160045260246000fd5b60008219821115611fee57611fee611fc5565b500190565b60008282101561200557612005611fc5565b500390565b600081600019048311821515161561202457612024611fc5565b500290565b60008261204657634e487b7160e01b600052601260045260246000fd5b500490565b6000825161205d818460208701611f49565b919091019291505056fe646561646c696e6520686173206e6f74206265656e207265616368656420796574a2646970667358221220bdca1c87c90a35a62bfa9eb6f0c64f5f4f0e88215963500bdc753a32a760387f64736f6c63430008090033",
  "linkReferences": {},
  "deployedLinkReferences": {}
}