{
  "_format": "hh-sol-artifact-1",
  "contractName": "RealitioMockup",
  "sourceName": "contracts/mockups/RealitioMockup.sol",
  "abi": [
    {
      "inputs": [],
      "name": "actualContentHash",
      "outputs": [
        {
          "internalType": "bytes32",
          "name": "",
          "type": "bytes32"
        }
      ],
      "stateMutability": "view",
      "type": "function"
    },
    {
      "inputs": [],
      "name": "actualQuestionId",
      "outputs": [
        {
          "internalType": "bytes32",
          "name": "",
          "type": "bytes32"
        }
      ],
      "stateMutability": "view",
      "type": "function"
    },
    {
      "inputs": [
        {
          "internalType": "uint256",
          "name": "template_id",
          "type": "uint256"
        },
        {
          "internalType": "string",
          "name": "question",
          "type": "string"
        },
        {
          "internalType": "address",
          "name": "arbitrator",
          "type": "address"
        },
        {
          "internalType": "uint32",
          "name": "timeout",
          "type": "uint32"
        },
        {
          "internalType": "uint32",
          "name": "opening_ts",
          "type": "uint32"
        },
        {
          "internalType": "uint256",
          "name": "nonce",
          "type": "uint256"
        }
      ],
      "name": "askQuestion",
      "outputs": [
        {
          "internalType": "bytes32",
          "name": "",
          "type": "bytes32"
        }
      ],
      "stateMutability": "payable",
      "type": "function"
    },
    {
      "inputs": [
        {
          "internalType": "bytes32",
          "name": "question_id",
          "type": "bytes32"
        }
      ],
      "name": "getContentHash",
      "outputs": [
        {
          "internalType": "bytes32",
          "name": "",
          "type": "bytes32"
        }
      ],
      "stateMutability": "view",
      "type": "function"
    },
    {
      "inputs": [
        {
          "internalType": "bytes32",
          "name": "question_id",
          "type": "bytes32"
        }
      ],
      "name": "isFinalized",
      "outputs": [
        {
          "internalType": "bool",
          "name": "",
          "type": "bool"
        }
      ],
      "stateMutability": "view",
      "type": "function"
    },
    {
      "inputs": [
        {
          "internalType": "bytes32",
          "name": "question_id",
          "type": "bytes32"
        }
      ],
      "name": "resultFor",
      "outputs": [
        {
          "internalType": "bytes32",
          "name": "",
          "type": "bytes32"
        }
      ],
      "stateMutability": "view",
      "type": "function"
    },
    {
      "inputs": [
        {
          "internalType": "uint256",
          "name": "_result",
          "type": "uint256"
        }
      ],
      "name": "setResult",
      "outputs": [],
      "stateMutability": "nonpayable",
      "type": "function"
    }
  ],
  "bytecode": "0x60806040526101a460005534801561001657600080fd5b506103cd806100266000396000f3fe6080604052600436106100705760003560e01c8063762c38fd1161004e578063762c38fd146100d45780637f8d429e146100e7578063812448a514610117578063d09cc57e1461013957600080fd5b80630732caa41461007557806351577ea91461009e57806375c4a887146100be575b600080fd5b34801561008157600080fd5b5061008b60025481565b6040519081526020015b60405180910390f35b3480156100aa57600080fd5b5061008b6100b936600461029d565b610159565b3480156100ca57600080fd5b5061008b60015481565b61008b6100e23660046102b5565b61017a565b3480156100f357600080fd5b5061010761010236600461029d565b610224565b6040519015158152602001610095565b34801561012357600080fd5b5061013761013236600461029d565b610241565b005b34801561014557600080fd5b5061008b61015436600461029d565b610258565b600060015482141561016d57505060025490565b506000919050565b919050565b600080888489896040516020016101949493929190610368565b60408051808303601f1901815282825280516020918201208184018190526060998a1b6bffffffffffffffffffffffff199081168585015260e09990991b6001600160e01b03191660548501523390991b9097166058830152606c8083019590955280518083039095018552608c9091019052505080519201919091206002929092555060018190559392505050565b600080546101a4141561023957506000919050565b506001919050565b80604514156102535760001960005550565b600055565b600080546101a4141561026a57600080fd5b505060005490565b80356001600160a01b038116811461017557600080fd5b803563ffffffff8116811461017557600080fd5b6000602082840312156102ae578081fd5b5035919050565b600080600080600080600060c0888a0312156102cf578283fd5b87359650602088013567ffffffffffffffff808211156102ed578485fd5b818a0191508a601f830112610300578485fd5b81358181111561030e578586fd5b8b602082850101111561031f578586fd5b60208301985080975050505061033760408901610272565b935061034560608901610289565b925061035360808901610289565b915060a0880135905092959891949750929550565b84815260e084901b6001600160e01b03191660208201528183602483013760009101602401908152939250505056fea264697066735822122030fbc1527adacc5bf35e836d233cf2b419bcace56ad0efa2148e99ad3733979264736f6c63430008040033",
  "linkReferences": {},
  "deployedLinkReferences": {}
}