{
  "_format": "hh-sol-artifact-1",
  "contractName": "MockUserFactors",
  "sourceName": "contracts/testing/MockTopUpHandler.sol",
  "abi": [
    {
      "inputs": [
        {
          "internalType": "address",
          "name": "account",
          "type": "address"
        }
      ],
      "name": "getUserFactor",
      "outputs": [
        {
          "internalType": "uint256",
          "name": "",
          "type": "uint256"
        }
      ],
      "stateMutability": "view",
      "type": "function"
    },
    {
      "inputs": [
        {
          "internalType": "address",
          "name": "account",
          "type": "address"
        }
      ],
      "name": "increaseUserFactor",
      "outputs": [],
      "stateMutability": "nonpayable",
      "type": "function"
    }
  ],
  "bytecode": "0x608060405234801561001057600080fd5b5061018b806100206000396000f3fe608060405234801561001057600080fd5b50600436106100365760003560e01c80631d0a29a01461003b5780639dc0870214610060575b600080fd5b61004e610049366004610106565b610075565b60405190815260200160405180910390f35b61007361006e366004610106565b6100ab565b005b6001600160a01b038116600090815260208190526040812054801561009a57806100a4565b67120a871cc00200005b9392505050565b6001600160a01b038116600090815260208190526040902054806100d4575067120a871cc00200005b6100e6670429d069189e00008261012f565b6001600160a01b0390921660009081526020819052604090209190915550565b60006020828403121561011857600080fd5b81356001600160a01b03811681146100a457600080fd5b6000821982111561015057634e487b7160e01b600052601160045260246000fd5b50019056fea2646970667358221220383bf600f98e0ce114733d0033667af212d93902406955dedb40e1c1229d12a064736f6c63430008090033",
  "linkReferences": {},
  "deployedLinkReferences": {}
}