{
  "_format": "hh-sol-artifact-1",
  "contractName": "MockTopUpHandler",
  "sourceName": "contracts/testing/MockTopUpHandler.sol",
  "abi": [
    {
      "inputs": [],
      "stateMutability": "nonpayable",
      "type": "constructor"
    },
    {
      "inputs": [
        {
          "internalType": "bytes32",
          "name": "account",
          "type": "bytes32"
        },
        {
          "internalType": "bytes",
          "name": "",
          "type": "bytes"
        }
      ],
      "name": "getUserFactor",
      "outputs": [
        {
          "internalType": "uint256",
          "name": "",
          "type": "uint256"
        }
      ],
      "stateMutability": "view",
      "type": "function"
    },
    {
      "inputs": [
        {
          "internalType": "bytes32",
          "name": "account",
          "type": "bytes32"
        },
        {
          "internalType": "address",
          "name": "underlying",
          "type": "address"
        },
        {
          "internalType": "uint256",
          "name": "amount",
          "type": "uint256"
        },
        {
          "internalType": "bytes",
          "name": "",
          "type": "bytes"
        }
      ],
      "name": "topUp",
      "outputs": [
        {
          "internalType": "bool",
          "name": "",
          "type": "bool"
        }
      ],
      "stateMutability": "nonpayable",
      "type": "function"
    },
    {
      "inputs": [],
      "name": "userFactors",
      "outputs": [
        {
          "internalType": "contract MockUserFactors",
          "name": "",
          "type": "address"
        }
      ],
      "stateMutability": "view",
      "type": "function"
    }
  ],
  "bytecode": "0x60a060405234801561001057600080fd5b5060405161001d9061004b565b604051809103906000f080158015610039573d6000803e3d6000fd5b506001600160a01b0316608052610058565b6101ab8061084e83390190565b6080516107c86100866000396000818160940152818160d20152818161015d015261026b01526107c86000f3fe608060405234801561001057600080fd5b50600436106100415760003560e01c8063ce7e692e14610046578063dac6de721461006c578063f6ce55f01461008f575b600080fd5b610059610054366004610622565b6100ce565b6040519081526020015b60405180910390f35b61007f61007a366004610669565b6101e7565b6040519015158152602001610063565b6100b67f000000000000000000000000000000000000000000000000000000000000000081565b6040516001600160a01b039091168152602001610063565b60007f00000000000000000000000000000000000000000000000000000000000000006001600160a01b03166101425760405162461bcd60e51b81526020600482015260146024820152731d5cd95c88199858dd1bdc9cc81b9bdd081cd95d60621b60448201526064015b60405180910390fd5b60405162e8514d60e51b8152606084901c60048201819052907f00000000000000000000000000000000000000000000000000000000000000006001600160a01b031690631d0a29a09060240160206040518083038186803b1580156101a757600080fd5b505afa1580156101bb573d6000803e3d6000fd5b505050506040513d601f19601f820116820180604052508101906101df91906106d8565b949350505050565b6000606085901c6001600160a01b038516610238576040516001600160a01b0382169085156108fc029086906000818181858888f19350505050158015610232573d6000803e3d6000fd5b5061024c565b61024c6001600160a01b03861682866102d3565b604051634ee0438160e11b81526001600160a01b0382811660048301527f00000000000000000000000000000000000000000000000000000000000000001690639dc0870290602401600060405180830381600087803b1580156102af57600080fd5b505af11580156102c3573d6000803e3d6000fd5b5060019998505050505050505050565b604080516001600160a01b038416602482015260448082018490528251808303909101815260649091019091526020810180516001600160e01b031663a9059cbb60e01b17905261032590849061032a565b505050565b600061037f826040518060400160405280602081526020017f5361666545524332303a206c6f772d6c6576656c2063616c6c206661696c6564815250856001600160a01b03166103fc9092919063ffffffff16565b805190915015610325578080602001905181019061039d91906106f1565b6103255760405162461bcd60e51b815260206004820152602a60248201527f5361666545524332303a204552433230206f7065726174696f6e20646964206e6044820152691bdd081cdd58d8d9595960b21b6064820152608401610139565b606061040b8484600085610415565b90505b9392505050565b6060824710156104765760405162461bcd60e51b815260206004820152602660248201527f416464726573733a20696e73756666696369656e742062616c616e636520666f6044820152651c8818d85b1b60d21b6064820152608401610139565b6001600160a01b0385163b6104cd5760405162461bcd60e51b815260206004820152601d60248201527f416464726573733a2063616c6c20746f206e6f6e2d636f6e74726163740000006044820152606401610139565b600080866001600160a01b031685876040516104e99190610743565b60006040518083038185875af1925050503d8060008114610526576040519150601f19603f3d011682016040523d82523d6000602084013e61052b565b606091505b509150915061053b828286610546565b979650505050505050565b6060831561055557508161040e565b8251156105655782518084602001fd5b8160405162461bcd60e51b8152600401610139919061075f565b634e487b7160e01b600052604160045260246000fd5b600082601f8301126105a657600080fd5b813567ffffffffffffffff808211156105c1576105c161057f565b604051601f8301601f19908116603f011681019082821181831017156105e9576105e961057f565b8160405283815286602085880101111561060257600080fd5b836020870160208301376000602085830101528094505050505092915050565b6000806040838503121561063557600080fd5b82359150602083013567ffffffffffffffff81111561065357600080fd5b61065f85828601610595565b9150509250929050565b6000806000806080858703121561067f57600080fd5b8435935060208501356001600160a01b038116811461069d57600080fd5b925060408501359150606085013567ffffffffffffffff8111156106c057600080fd5b6106cc87828801610595565b91505092959194509250565b6000602082840312156106ea57600080fd5b5051919050565b60006020828403121561070357600080fd5b8151801515811461040e57600080fd5b60005b8381101561072e578181015183820152602001610716565b8381111561073d576000848401525b50505050565b60008251610755818460208701610713565b9190910192915050565b602081526000825180602084015261077e816040850160208701610713565b601f01601f1916919091016040019291505056fea26469706673582212207064d1d0997768db1568d33fdc336b71a219edee2167005644e21df15ad218a064736f6c63430008090033608060405234801561001057600080fd5b5061018b806100206000396000f3fe608060405234801561001057600080fd5b50600436106100365760003560e01c80631d0a29a01461003b5780639dc0870214610060575b600080fd5b61004e610049366004610106565b610075565b60405190815260200160405180910390f35b61007361006e366004610106565b6100ab565b005b6001600160a01b038116600090815260208190526040812054801561009a57806100a4565b67120a871cc00200005b9392505050565b6001600160a01b038116600090815260208190526040902054806100d4575067120a871cc00200005b6100e6670429d069189e00008261012f565b6001600160a01b0390921660009081526020819052604090209190915550565b60006020828403121561011857600080fd5b81356001600160a01b03811681146100a457600080fd5b6000821982111561015057634e487b7160e01b600052601160045260246000fd5b50019056fea2646970667358221220383bf600f98e0ce114733d0033667af212d93902406955dedb40e1c1229d12a064736f6c63430008090033",
  "linkReferences": {},
  "deployedLinkReferences": {}
}