{
  "_format": "hh-sol-artifact-1",
  "contractName": "NameWrapper",
  "sourceName": "contracts/wrapper/NameWrapper.sol",
  "abi": [
    {
      "inputs": [
        {
          "internalType": "contract ENS",
          "name": "_ens",
          "type": "address"
        },
        {
          "internalType": "contract IBaseRegistrar",
          "name": "_registrar",
          "type": "address"
        },
        {
          "internalType": "contract IMetadataService",
          "name": "_metadataService",
          "type": "address"
        }
      ],
      "stateMutability": "nonpayable",
      "type": "constructor"
    },
    {
      "inputs": [],
      "name": "CannotUpgrade",
      "type": "error"
    },
    {
      "inputs": [],
      "name": "IncompatibleParent",
      "type": "error"
    },
    {
      "inputs": [
        {
          "internalType": "address",
          "name": "owner",
          "type": "address"
        }
      ],
      "name": "IncorrectTargetOwner",
      "type": "error"
    },
    {
      "inputs": [],
      "name": "IncorrectTokenType",
      "type": "error"
    },
    {
      "inputs": [
        {
          "internalType": "bytes32",
          "name": "labelHash",
          "type": "bytes32"
        },
        {
          "internalType": "bytes32",
          "name": "expectedLabelhash",
          "type": "bytes32"
        }
      ],
      "name": "LabelMismatch",
      "type": "error"
    },
    {
      "inputs": [
        {
          "internalType": "string",
          "name": "label",
          "type": "string"
        }
      ],
      "name": "LabelTooLong",
      "type": "error"
    },
    {
      "inputs": [],
      "name": "LabelTooShort",
      "type": "error"
    },
    {
      "inputs": [],
      "name": "NameNotFound",
      "type": "error"
    },
    {
      "inputs": [
        {
          "internalType": "bytes32",
          "name": "node",
          "type": "bytes32"
        }
      ],
      "name": "OperationProhibited",
      "type": "error"
    },
    {
      "inputs": [
        {
          "internalType": "bytes32",
          "name": "node",
          "type": "bytes32"
        },
        {
          "internalType": "address",
          "name": "addr",
          "type": "address"
        }
      ],
      "name": "Unauthorised",
      "type": "error"
    },
    {
      "anonymous": false,
      "inputs": [
        {
          "indexed": true,
          "internalType": "address",
          "name": "account",
          "type": "address"
        },
        {
          "indexed": true,
          "internalType": "address",
          "name": "operator",
          "type": "address"
        },
        {
          "indexed": false,
          "internalType": "bool",
          "name": "approved",
          "type": "bool"
        }
      ],
      "name": "ApprovalForAll",
      "type": "event"
    },
    {
      "anonymous": false,
      "inputs": [
        {
          "indexed": true,
          "internalType": "address",
          "name": "controller",
          "type": "address"
        },
        {
          "indexed": false,
          "internalType": "bool",
          "name": "active",
          "type": "bool"
        }
      ],
      "name": "ControllerChanged",
      "type": "event"
    },
    {
      "anonymous": false,
      "inputs": [
        {
          "indexed": true,
          "internalType": "bytes32",
          "name": "node",
          "type": "bytes32"
        },
        {
          "indexed": false,
          "internalType": "uint32",
          "name": "fuses",
          "type": "uint32"
        },
        {
          "indexed": false,
          "internalType": "uint64",
          "name": "expiry",
          "type": "uint64"
        }
      ],
      "name": "FusesSet",
      "type": "event"
    },
    {
      "anonymous": false,
      "inputs": [
        {
          "indexed": true,
          "internalType": "bytes32",
          "name": "node",
          "type": "bytes32"
        },
        {
          "indexed": false,
          "internalType": "address",
          "name": "owner",
          "type": "address"
        }
      ],
      "name": "NameUnwrapped",
      "type": "event"
    },
    {
      "anonymous": false,
      "inputs": [
        {
          "indexed": true,
          "internalType": "bytes32",
          "name": "node",
          "type": "bytes32"
        },
        {
          "indexed": false,
          "internalType": "bytes",
          "name": "name",
          "type": "bytes"
        },
        {
          "indexed": false,
          "internalType": "address",
          "name": "owner",
          "type": "address"
        },
        {
          "indexed": false,
          "internalType": "uint32",
          "name": "fuses",
          "type": "uint32"
        },
        {
          "indexed": false,
          "internalType": "uint64",
          "name": "expiry",
          "type": "uint64"
        }
      ],
      "name": "NameWrapped",
      "type": "event"
    },
    {
      "anonymous": false,
      "inputs": [
        {
          "indexed": true,
          "internalType": "address",
          "name": "previousOwner",
          "type": "address"
        },
        {
          "indexed": true,
          "internalType": "address",
          "name": "newOwner",
          "type": "address"
        }
      ],
      "name": "OwnershipTransferred",
      "type": "event"
    },
    {
      "anonymous": false,
      "inputs": [
        {
          "indexed": true,
          "internalType": "address",
          "name": "operator",
          "type": "address"
        },
        {
          "indexed": true,
          "internalType": "address",
          "name": "from",
          "type": "address"
        },
        {
          "indexed": true,
          "internalType": "address",
          "name": "to",
          "type": "address"
        },
        {
          "indexed": false,
          "internalType": "uint256[]",
          "name": "ids",
          "type": "uint256[]"
        },
        {
          "indexed": false,
          "internalType": "uint256[]",
          "name": "values",
          "type": "uint256[]"
        }
      ],
      "name": "TransferBatch",
      "type": "event"
    },
    {
      "anonymous": false,
      "inputs": [
        {
          "indexed": true,
          "internalType": "address",
          "name": "operator",
          "type": "address"
        },
        {
          "indexed": true,
          "internalType": "address",
          "name": "from",
          "type": "address"
        },
        {
          "indexed": true,
          "internalType": "address",
          "name": "to",
          "type": "address"
        },
        {
          "indexed": false,
          "internalType": "uint256",
          "name": "id",
          "type": "uint256"
        },
        {
          "indexed": false,
          "internalType": "uint256",
          "name": "value",
          "type": "uint256"
        }
      ],
      "name": "TransferSingle",
      "type": "event"
    },
    {
      "anonymous": false,
      "inputs": [
        {
          "indexed": false,
          "internalType": "string",
          "name": "value",
          "type": "string"
        },
        {
          "indexed": true,
          "internalType": "uint256",
          "name": "id",
          "type": "uint256"
        }
      ],
      "name": "URI",
      "type": "event"
    },
    {
      "inputs": [
        {
          "internalType": "uint256",
          "name": "",
          "type": "uint256"
        }
      ],
      "name": "_tokens",
      "outputs": [
        {
          "internalType": "uint256",
          "name": "",
          "type": "uint256"
        }
      ],
      "stateMutability": "view",
      "type": "function"
    },
    {
      "inputs": [
        {
          "internalType": "bytes32",
          "name": "node",
          "type": "bytes32"
        },
        {
          "internalType": "uint32",
          "name": "fuseMask",
          "type": "uint32"
        }
      ],
      "name": "allFusesBurned",
      "outputs": [
        {
          "internalType": "bool",
          "name": "",
          "type": "bool"
        }
      ],
      "stateMutability": "view",
      "type": "function"
    },
    {
      "inputs": [
        {
          "internalType": "address",
          "name": "account",
          "type": "address"
        },
        {
          "internalType": "uint256",
          "name": "id",
          "type": "uint256"
        }
      ],
      "name": "balanceOf",
      "outputs": [
        {
          "internalType": "uint256",
          "name": "",
          "type": "uint256"
        }
      ],
      "stateMutability": "view",
      "type": "function"
    },
    {
      "inputs": [
        {
          "internalType": "address[]",
          "name": "accounts",
          "type": "address[]"
        },
        {
          "internalType": "uint256[]",
          "name": "ids",
          "type": "uint256[]"
        }
      ],
      "name": "balanceOfBatch",
      "outputs": [
        {
          "internalType": "uint256[]",
          "name": "",
          "type": "uint256[]"
        }
      ],
      "stateMutability": "view",
      "type": "function"
    },
    {
      "inputs": [
        {
          "internalType": "address",
          "name": "",
          "type": "address"
        }
      ],
      "name": "controllers",
      "outputs": [
        {
          "internalType": "bool",
          "name": "",
          "type": "bool"
        }
      ],
      "stateMutability": "view",
      "type": "function"
    },
    {
      "inputs": [],
      "name": "ens",
      "outputs": [
        {
          "internalType": "contract ENS",
          "name": "",
          "type": "address"
        }
      ],
      "stateMutability": "view",
      "type": "function"
    },
    {
      "inputs": [
        {
          "internalType": "uint256",
          "name": "tokenId",
          "type": "uint256"
        }
      ],
      "name": "getData",
      "outputs": [
        {
          "internalType": "address",
          "name": "owner",
          "type": "address"
        },
        {
          "internalType": "uint32",
          "name": "fuses",
          "type": "uint32"
        },
        {
          "internalType": "uint64",
          "name": "expiry",
          "type": "uint64"
        }
      ],
      "stateMutability": "view",
      "type": "function"
    },
    {
      "inputs": [
        {
          "internalType": "bytes32",
          "name": "node",
          "type": "bytes32"
        }
      ],
      "name": "getFuses",
      "outputs": [
        {
          "internalType": "uint32",
          "name": "fuses",
          "type": "uint32"
        },
        {
          "internalType": "uint64",
          "name": "expiry",
          "type": "uint64"
        }
      ],
      "stateMutability": "view",
      "type": "function"
    },
    {
      "inputs": [
        {
          "internalType": "address",
          "name": "account",
          "type": "address"
        },
        {
          "internalType": "address",
          "name": "operator",
          "type": "address"
        }
      ],
      "name": "isApprovedForAll",
      "outputs": [
        {
          "internalType": "bool",
          "name": "",
          "type": "bool"
        }
      ],
      "stateMutability": "view",
      "type": "function"
    },
    {
      "inputs": [
        {
          "internalType": "bytes32",
          "name": "node",
          "type": "bytes32"
        },
        {
          "internalType": "address",
          "name": "addr",
          "type": "address"
        }
      ],
      "name": "isTokenOwnerOrApproved",
      "outputs": [
        {
          "internalType": "bool",
          "name": "",
          "type": "bool"
        }
      ],
      "stateMutability": "view",
      "type": "function"
    },
    {
      "inputs": [],
      "name": "metadataService",
      "outputs": [
        {
          "internalType": "contract IMetadataService",
          "name": "",
          "type": "address"
        }
      ],
      "stateMutability": "view",
      "type": "function"
    },
    {
      "inputs": [
        {
          "internalType": "bytes32",
          "name": "",
          "type": "bytes32"
        }
      ],
      "name": "names",
      "outputs": [
        {
          "internalType": "bytes",
          "name": "",
          "type": "bytes"
        }
      ],
      "stateMutability": "view",
      "type": "function"
    },
    {
      "inputs": [
        {
          "internalType": "address",
          "name": "to",
          "type": "address"
        },
        {
          "internalType": "address",
          "name": "",
          "type": "address"
        },
        {
          "internalType": "uint256",
          "name": "tokenId",
          "type": "uint256"
        },
        {
          "internalType": "bytes",
          "name": "data",
          "type": "bytes"
        }
      ],
      "name": "onERC721Received",
      "outputs": [
        {
          "internalType": "bytes4",
          "name": "",
          "type": "bytes4"
        }
      ],
      "stateMutability": "nonpayable",
      "type": "function"
    },
    {
      "inputs": [],
      "name": "owner",
      "outputs": [
        {
          "internalType": "address",
          "name": "",
          "type": "address"
        }
      ],
      "stateMutability": "view",
      "type": "function"
    },
    {
      "inputs": [
        {
          "internalType": "uint256",
          "name": "id",
          "type": "uint256"
        }
      ],
      "name": "ownerOf",
      "outputs": [
        {
          "internalType": "address",
          "name": "owner",
          "type": "address"
        }
      ],
      "stateMutability": "view",
      "type": "function"
    },
    {
      "inputs": [
        {
          "internalType": "string",
          "name": "label",
          "type": "string"
        },
        {
          "internalType": "address",
          "name": "wrappedOwner",
          "type": "address"
        },
        {
          "internalType": "uint256",
          "name": "duration",
          "type": "uint256"
        },
        {
          "internalType": "address",
          "name": "resolver",
          "type": "address"
        },
        {
          "internalType": "uint32",
          "name": "fuses",
          "type": "uint32"
        },
        {
          "internalType": "uint64",
          "name": "expiry",
          "type": "uint64"
        }
      ],
      "name": "registerAndWrapETH2LD",
      "outputs": [
        {
          "internalType": "uint256",
          "name": "registrarExpiry",
          "type": "uint256"
        }
      ],
      "stateMutability": "nonpayable",
      "type": "function"
    },
    {
      "inputs": [],
      "name": "registrar",
      "outputs": [
        {
          "internalType": "contract IBaseRegistrar",
          "name": "",
          "type": "address"
        }
      ],
      "stateMutability": "view",
      "type": "function"
    },
    {
      "inputs": [
        {
          "internalType": "uint256",
          "name": "tokenId",
          "type": "uint256"
        },
        {
          "internalType": "uint256",
          "name": "duration",
          "type": "uint256"
        },
        {
          "internalType": "uint64",
          "name": "expiry",
          "type": "uint64"
        }
      ],
      "name": "renew",
      "outputs": [
        {
          "internalType": "uint256",
          "name": "expires",
          "type": "uint256"
        }
      ],
      "stateMutability": "nonpayable",
      "type": "function"
    },
    {
      "inputs": [],
      "name": "renounceOwnership",
      "outputs": [],
      "stateMutability": "nonpayable",
      "type": "function"
    },
    {
      "inputs": [
        {
          "internalType": "address",
          "name": "from",
          "type": "address"
        },
        {
          "internalType": "address",
          "name": "to",
          "type": "address"
        },
        {
          "internalType": "uint256[]",
          "name": "ids",
          "type": "uint256[]"
        },
        {
          "internalType": "uint256[]",
          "name": "amounts",
          "type": "uint256[]"
        },
        {
          "internalType": "bytes",
          "name": "data",
          "type": "bytes"
        }
      ],
      "name": "safeBatchTransferFrom",
      "outputs": [],
      "stateMutability": "nonpayable",
      "type": "function"
    },
    {
      "inputs": [
        {
          "internalType": "address",
          "name": "from",
          "type": "address"
        },
        {
          "internalType": "address",
          "name": "to",
          "type": "address"
        },
        {
          "internalType": "uint256",
          "name": "id",
          "type": "uint256"
        },
        {
          "internalType": "uint256",
          "name": "amount",
          "type": "uint256"
        },
        {
          "internalType": "bytes",
          "name": "data",
          "type": "bytes"
        }
      ],
      "name": "safeTransferFrom",
      "outputs": [],
      "stateMutability": "nonpayable",
      "type": "function"
    },
    {
      "inputs": [
        {
          "internalType": "address",
          "name": "operator",
          "type": "address"
        },
        {
          "internalType": "bool",
          "name": "approved",
          "type": "bool"
        }
      ],
      "name": "setApprovalForAll",
      "outputs": [],
      "stateMutability": "nonpayable",
      "type": "function"
    },
    {
      "inputs": [
        {
          "internalType": "bytes32",
          "name": "parentNode",
          "type": "bytes32"
        },
        {
          "internalType": "bytes32",
          "name": "labelhash",
          "type": "bytes32"
        },
        {
          "internalType": "uint32",
          "name": "fuses",
          "type": "uint32"
        },
        {
          "internalType": "uint64",
          "name": "expiry",
          "type": "uint64"
        }
      ],
      "name": "setChildFuses",
      "outputs": [],
      "stateMutability": "nonpayable",
      "type": "function"
    },
    {
      "inputs": [
        {
          "internalType": "address",
          "name": "controller",
          "type": "address"
        },
        {
          "internalType": "bool",
          "name": "active",
          "type": "bool"
        }
      ],
      "name": "setController",
      "outputs": [],
      "stateMutability": "nonpayable",
      "type": "function"
    },
    {
      "inputs": [
        {
          "internalType": "bytes32",
          "name": "node",
          "type": "bytes32"
        },
        {
          "internalType": "uint32",
          "name": "fuses",
          "type": "uint32"
        }
      ],
      "name": "setFuses",
      "outputs": [
        {
          "internalType": "uint32",
          "name": "",
          "type": "uint32"
        }
      ],
      "stateMutability": "nonpayable",
      "type": "function"
    },
    {
      "inputs": [
        {
          "internalType": "contract IMetadataService",
          "name": "_newMetadataService",
          "type": "address"
        }
      ],
      "name": "setMetadataService",
      "outputs": [],
      "stateMutability": "nonpayable",
      "type": "function"
    },
    {
      "inputs": [
        {
          "internalType": "bytes32",
          "name": "node",
          "type": "bytes32"
        },
        {
          "internalType": "address",
          "name": "owner",
          "type": "address"
        },
        {
          "internalType": "address",
          "name": "resolver",
          "type": "address"
        },
        {
          "internalType": "uint64",
          "name": "ttl",
          "type": "uint64"
        }
      ],
      "name": "setRecord",
      "outputs": [],
      "stateMutability": "nonpayable",
      "type": "function"
    },
    {
      "inputs": [
        {
          "internalType": "bytes32",
          "name": "node",
          "type": "bytes32"
        },
        {
          "internalType": "address",
          "name": "resolver",
          "type": "address"
        }
      ],
      "name": "setResolver",
      "outputs": [],
      "stateMutability": "nonpayable",
      "type": "function"
    },
    {
      "inputs": [
        {
          "internalType": "bytes32",
          "name": "parentNode",
          "type": "bytes32"
        },
        {
          "internalType": "string",
          "name": "label",
          "type": "string"
        },
        {
          "internalType": "address",
          "name": "newOwner",
          "type": "address"
        },
        {
          "internalType": "uint32",
          "name": "fuses",
          "type": "uint32"
        },
        {
          "internalType": "uint64",
          "name": "expiry",
          "type": "uint64"
        }
      ],
      "name": "setSubnodeOwner",
      "outputs": [
        {
          "internalType": "bytes32",
          "name": "node",
          "type": "bytes32"
        }
      ],
      "stateMutability": "nonpayable",
      "type": "function"
    },
    {
      "inputs": [
        {
          "internalType": "bytes32",
          "name": "parentNode",
          "type": "bytes32"
        },
        {
          "internalType": "string",
          "name": "label",
          "type": "string"
        },
        {
          "internalType": "address",
          "name": "newOwner",
          "type": "address"
        },
        {
          "internalType": "address",
          "name": "resolver",
          "type": "address"
        },
        {
          "internalType": "uint64",
          "name": "ttl",
          "type": "uint64"
        },
        {
          "internalType": "uint32",
          "name": "fuses",
          "type": "uint32"
        },
        {
          "internalType": "uint64",
          "name": "expiry",
          "type": "uint64"
        }
      ],
      "name": "setSubnodeRecord",
      "outputs": [],
      "stateMutability": "nonpayable",
      "type": "function"
    },
    {
      "inputs": [
        {
          "internalType": "bytes32",
          "name": "node",
          "type": "bytes32"
        },
        {
          "internalType": "uint64",
          "name": "ttl",
          "type": "uint64"
        }
      ],
      "name": "setTTL",
      "outputs": [],
      "stateMutability": "nonpayable",
      "type": "function"
    },
    {
      "inputs": [
        {
          "internalType": "contract INameWrapperUpgrade",
          "name": "_upgradeAddress",
          "type": "address"
        }
      ],
      "name": "setUpgradeContract",
      "outputs": [],
      "stateMutability": "nonpayable",
      "type": "function"
    },
    {
      "inputs": [
        {
          "internalType": "bytes4",
          "name": "interfaceId",
          "type": "bytes4"
        }
      ],
      "name": "supportsInterface",
      "outputs": [
        {
          "internalType": "bool",
          "name": "",
          "type": "bool"
        }
      ],
      "stateMutability": "view",
      "type": "function"
    },
    {
      "inputs": [
        {
          "internalType": "address",
          "name": "newOwner",
          "type": "address"
        }
      ],
      "name": "transferOwnership",
      "outputs": [],
      "stateMutability": "nonpayable",
      "type": "function"
    },
    {
      "inputs": [
        {
          "internalType": "bytes32",
          "name": "parentNode",
          "type": "bytes32"
        },
        {
          "internalType": "bytes32",
          "name": "labelhash",
          "type": "bytes32"
        },
        {
          "internalType": "address",
          "name": "newController",
          "type": "address"
        }
      ],
      "name": "unwrap",
      "outputs": [],
      "stateMutability": "nonpayable",
      "type": "function"
    },
    {
      "inputs": [
        {
          "internalType": "bytes32",
          "name": "labelhash",
          "type": "bytes32"
        },
        {
          "internalType": "address",
          "name": "newRegistrant",
          "type": "address"
        },
        {
          "internalType": "address",
          "name": "newController",
          "type": "address"
        }
      ],
      "name": "unwrapETH2LD",
      "outputs": [],
      "stateMutability": "nonpayable",
      "type": "function"
    },
    {
      "inputs": [
        {
          "internalType": "bytes32",
          "name": "parentNode",
          "type": "bytes32"
        },
        {
          "internalType": "string",
          "name": "label",
          "type": "string"
        },
        {
          "internalType": "address",
          "name": "wrappedOwner",
          "type": "address"
        },
        {
          "internalType": "address",
          "name": "resolver",
          "type": "address"
        }
      ],
      "name": "upgrade",
      "outputs": [],
      "stateMutability": "nonpayable",
      "type": "function"
    },
    {
      "inputs": [],
      "name": "upgradeContract",
      "outputs": [
        {
          "internalType": "contract INameWrapperUpgrade",
          "name": "",
          "type": "address"
        }
      ],
      "stateMutability": "view",
      "type": "function"
    },
    {
      "inputs": [
        {
          "internalType": "string",
          "name": "label",
          "type": "string"
        },
        {
          "internalType": "address",
          "name": "wrappedOwner",
          "type": "address"
        },
        {
          "internalType": "address",
          "name": "resolver",
          "type": "address"
        }
      ],
      "name": "upgradeETH2LD",
      "outputs": [],
      "stateMutability": "nonpayable",
      "type": "function"
    },
    {
      "inputs": [
        {
          "internalType": "uint256",
          "name": "tokenId",
          "type": "uint256"
        }
      ],
      "name": "uri",
      "outputs": [
        {
          "internalType": "string",
          "name": "",
          "type": "string"
        }
      ],
      "stateMutability": "view",
      "type": "function"
    },
    {
      "inputs": [
        {
          "internalType": "bytes",
          "name": "name",
          "type": "bytes"
        },
        {
          "internalType": "address",
          "name": "wrappedOwner",
          "type": "address"
        },
        {
          "internalType": "address",
          "name": "resolver",
          "type": "address"
        }
      ],
      "name": "wrap",
      "outputs": [],
      "stateMutability": "nonpayable",
      "type": "function"
    },
    {
      "inputs": [
        {
          "internalType": "string",
          "name": "label",
          "type": "string"
        },
        {
          "internalType": "address",
          "name": "wrappedOwner",
          "type": "address"
        },
        {
          "internalType": "uint32",
          "name": "fuses",
          "type": "uint32"
        },
        {
          "internalType": "uint64",
          "name": "expiry",
          "type": "uint64"
        },
        {
          "internalType": "address",
          "name": "resolver",
          "type": "address"
        }
      ],
      "name": "wrapETH2LD",
      "outputs": [
        {
          "internalType": "uint64",
          "name": "",
          "type": "uint64"
        }
      ],
      "stateMutability": "nonpayable",
      "type": "function"
    }
  ],
  "bytecode": "0x60c06040523480156200001157600080fd5b506040516200601f3803806200601f833981016040819052620000349162000299565b6200003f336200018a565b6001600160a01b0383811660805282811660a052600480546001600160a01b031916918316919091179055600163ffffffbf60a01b03197fafa26c20e8b3d9a2853d642cfe1021dae26242ffedfac91c97aab212c1a4b93b8190557fa6eef7e35abe7026729641147f7915573c7e97b47efa546f5f6e3230263bcb49556040805180820190915260018152600060208083018281529180526005905290516200010a917f05b8ccbb9d4d8fb16ea74ce3c29a41f1b461fbdaff4714a0d9a8eb05499746bc91620001da565b50604080518082019091526005808252626cae8d60e31b60208084019182527f93cdeb708b7545dc668eb9280176169d1c33cfd8ed6f04690a0bcc88a93fc4ae60005291909152905162000180917fd99130487705d6970718a0cee91984b61956f8a1db3482bba7e6bf0131adb01f91620001da565b5050505062000329565b600080546001600160a01b038381166001600160a01b0319831681178455604051919092169283917f8be0079c531659141344cd1fd0a4f28419497f9722a3daafe3b4186f6b6457e09190a35050565b828054620001e890620002ed565b90600052602060002090601f0160209004810192826200020c576000855562000257565b82601f106200022757805160ff191683800117855562000257565b8280016001018555821562000257579182015b82811115620002575782518255916020019190600101906200023a565b506200026592915062000269565b5090565b5b808211156200026557600081556001016200026a565b6001600160a01b03811681146200029657600080fd5b50565b600080600060608486031215620002af57600080fd5b8351620002bc8162000280565b6020850151909350620002cf8162000280565b6040850151909250620002e28162000280565b809150509250925092565b600181811c908216806200030257607f821691505b6020821081036200032357634e487b7160e01b600052602260045260246000fd5b50919050565b60805160a051615bf7620004286000396000818161046701528181610a7101528181610b68015281816116a901528181611b2c01528181611d5401528181611e9101528181612134015281816122b001528181613481015281816135780152818161369a0152818161372901526144c00152600081816104b4015281816109f701528181610d4c01528181610ebf0152818161102e01528181611104015281816111cf015281816121d20152818161234e01528181612535015281816126b7015281816127750152818161291801528181612dbd01528181612eb401528181612f9601528181613028015281816139b20152613fc40152615bf76000f3fe608060405234801561001057600080fd5b50600436106102dd5760003560e01c80638b4dfa7511610186578063da8c229e116100e3578063ed70554d11610097578063f2fde38b11610071578063f2fde38b1461071e578063f44779b914610731578063f9547a9e1461074457600080fd5b8063ed70554d146106d8578063ee7eba78146106f8578063f242432a1461070b57600080fd5b8063e72bf00f116100c8578063e72bf00f14610676578063e985e9c514610689578063eb8ae530146106c557600080fd5b8063da8c229e14610640578063e0dba60f1461066357600080fd5b8063b6bcad261161013a578063c658e0861161011f578063c658e08614610607578063cf4088231461061a578063d8c9921a1461062d57600080fd5b8063b6bcad26146105cc578063c20a2eb0146105df57600080fd5b80639f56dac61161016b5780639f56dac614610593578063a22cb465146105a6578063adf4960a146105b957600080fd5b80638b4dfa751461056f5780638da5cb5b1461058257600080fd5b806324c1af441161023f5780634ac07f41116101f35780636352211e116101cd5780636352211e146105415780636846f2f714610554578063715018a61461056757600080fd5b80634ac07f41146104d65780634e1273f41461050e578063530954671461052e57600080fd5b80632eb2c2d6116102245780632eb2c2d61461048957806333c69ea91461049c5780633f15457f146104af57600080fd5b806324c1af441461044f5780632b20e3971461046257600080fd5b8063150b7a02116102965780631896f70a1161027b5780631896f70a146103fe5780631f4e15041461041157806320c38e2b1461043c57600080fd5b8063150b7a02146103a75780631534e177146103eb57600080fd5b806301ffc9a7116102c757806301ffc9a71461034f5780630e89341c1461037257806314ab90381461039257600080fd5b8062fdd58e146102e25780630178fe3f14610308575b600080fd5b6102f56102f0366004614b52565b610770565b6040519081526020015b60405180910390f35b61031b610316366004614b7e565b610831565b604080516001600160a01b03909416845263ffffffff909216602084015267ffffffffffffffff16908201526060016102ff565b61036261035d366004614bc5565b610868565b60405190151581526020016102ff565b610385610380366004614b7e565b6108be565b6040516102ff9190614c41565b6103a56103a0366004614c71565b61094b565b005b6103ba6103b5366004614ce6565b610a64565b6040517fffffffff0000000000000000000000000000000000000000000000000000000090911681526020016102ff565b6103a56103f9366004614d59565b610c0c565b6103a561040c366004614d76565b610ca0565b600654610424906001600160a01b031681565b6040516001600160a01b0390911681526020016102ff565b61038561044a366004614b7e565b610d7b565b6103a561045d366004614e9a565b610e15565b6104247f000000000000000000000000000000000000000000000000000000000000000081565b6103a5610497366004614fcd565b611247565b6103a56104aa36600461507b565b6115e5565b6104247f000000000000000000000000000000000000000000000000000000000000000081565b6104e96104e4366004614b7e565b6117ca565b6040805163ffffffff909316835267ffffffffffffffff9091166020830152016102ff565b61052161051c3660046150c1565b6118d8565b6040516102ff91906151bf565b600454610424906001600160a01b031681565b61042461054f366004614b7e565b611a16565b6102f56105623660046151d2565b611a21565b6103a5611bda565b6103a561057d366004615207565b611c40565b6000546001600160a01b0316610424565b6102f56105a1366004615249565b611db6565b6103a56105b43660046152dc565b611f5a565b6103626105c736600461530a565b612062565b6103a56105da366004614d59565b612087565b6105f26105ed36600461530a565b6123ad565b60405163ffffffff90911681526020016102ff565b6102f561061536600461532d565b612479565b6103a56106283660046153ac565b612856565b6103a561063b3660046153e4565b6129a6565b61036261064e366004614d59565b60036020526000908152604090205460ff1681565b6103a56106713660046152dc565b612a8e565b6103a5610684366004615412565b612b66565b61036261069736600461547a565b6001600160a01b03918216600090815260026020908152604080832093909416825291909152205460ff1690565b6103a56106d3366004615412565b612c77565b6102f56106e6366004614b7e565b60016020526000908152604090205481565b6103a56107063660046154a8565b6130cf565b6103a561071936600461551c565b6131c5565b6103a561072c366004614d59565b6132fa565b61036261073f366004614d76565b6133d9565b610757610752366004615585565b613434565b60405167ffffffffffffffff90911681526020016102ff565b60006001600160a01b0383166107f35760405162461bcd60e51b815260206004820152602b60248201527f455243313135353a2062616c616e636520717565727920666f7220746865207a60448201527f65726f206164647265737300000000000000000000000000000000000000000060648201526084015b60405180910390fd5b60006107fe83610831565b50509050836001600160a01b0316816001600160a01b03160361082557600191505061082b565b60009150505b92915050565b6000818152600160205260408120549060c082901c82428210156108585760009250610860565b60a081901c92505b509193909250565b60007fffffffff0000000000000000000000000000000000000000000000000000000082167f71bc027200000000000000000000000000000000000000000000000000000000148061082b575061082b826137e1565b600480546040517f0e89341c0000000000000000000000000000000000000000000000000000000081529182018390526060916001600160a01b0390911690630e89341c90602401600060405180830381865afa158015610923573d6000803e3d6000fd5b505050506040513d6000823e601f3d908101601f1916820160405261082b919081019061560f565b8161095681336133d9565b61097c5760405163168ab55d60e31b8152600481018290523360248201526044016107ea565b826010600061098a83610831565b5091505063ffffffff82821616156109b85760405163a2a7201360e01b8152600481018490526024016107ea565b6040517f14ab90380000000000000000000000000000000000000000000000000000000081526004810187905267ffffffffffffffff861660248201527f00000000000000000000000000000000000000000000000000000000000000006001600160a01b0316906314ab9038906044015b600060405180830381600087803b158015610a4457600080fd5b505af1158015610a58573d6000803e3d6000fd5b50505050505050505050565b6000336001600160a01b037f00000000000000000000000000000000000000000000000000000000000000001614610ac8576040517f1931a53800000000000000000000000000000000000000000000000000000000815260040160405180910390fd5b600080808080610ada87890189615691565b84516020860120949950929750909550935091508990808214610b33576040517fc65c3ccc00000000000000000000000000000000000000000000000000000000815260048101829052602481018390526044016107ea565b6040517f28ed4f6c000000000000000000000000000000000000000000000000000000008152600481018390523060248201527f00000000000000000000000000000000000000000000000000000000000000006001600160a01b0316906328ed4f6c90604401600060405180830381600087803b158015610bb457600080fd5b505af1158015610bc8573d6000803e3d6000fd5b50505050610bd987878787876138c4565b507f150b7a02000000000000000000000000000000000000000000000000000000009d9c50505050505050505050505050565b6000546001600160a01b03163314610c665760405162461bcd60e51b815260206004820181905260248201527f4f776e61626c653a2063616c6c6572206973206e6f7420746865206f776e657260448201526064016107ea565b600480547fffffffffffffffffffffffff0000000000000000000000000000000000000000166001600160a01b0392909216919091179055565b81610cab81336133d9565b610cd15760405163168ab55d60e31b8152600481018290523360248201526044016107ea565b8260086000610cdf83610831565b5091505063ffffffff8282161615610d0d5760405163a2a7201360e01b8152600481018490526024016107ea565b6040517f1896f70a000000000000000000000000000000000000000000000000000000008152600481018790526001600160a01b0386811660248301527f00000000000000000000000000000000000000000000000000000000000000001690631896f70a90604401610a2a565b60056020526000908152604090208054610d9490615709565b80601f0160208091040260200160405190810160405280929190818152602001828054610dc090615709565b8015610e0d5780601f10610de257610100808354040283529160200191610e0d565b820191906000526020600020905b815481529060010190602001808311610df057829003601f168201915b505050505081565b86610e2081336133d9565b610e465760405163168ab55d60e31b8152600481018290523360248201526044016107ea565b8787805190602001206000610e828383604080516020808201949094528082019290925280518083038201815260609092019052805191012090565b6040517f02571be3000000000000000000000000000000000000000000000000000000008152600481018290529091506000906001600160a01b037f000000000000000000000000000000000000000000000000000000000000000016906302571be390602401602060405180830381865afa158015610f06573d6000803e3d6000fd5b505050506040513d601f19601f82011682018060405250810190610f2a919061575c565b90506001600160a01b038116610f74576000610f4585610831565b509150506020811615610f6e5760405163a2a7201360e01b8152600481018690526024016107ea565b50610faa565b6000610f7f83610831565b509150506040811615610fa85760405163a2a7201360e01b8152600481018690526024016107ea565b505b8a5160208c01206000610fe48e83604080516020808201949094528082019290925280518083038201815260609092019052805191012090565b9050610ff18e828a613a1b565b6040517f02571be300000000000000000000000000000000000000000000000000000000815260048101859052909a503092506001600160a01b037f00000000000000000000000000000000000000000000000000000000000000001691506302571be390602401602060405180830381865afa158015611076573d6000803e3d6000fd5b505050506040513d601f19601f8201168201806040525081019061109a919061575c565b6001600160a01b031614611173576040517f5ef2c7f0000000000000000000000000000000000000000000000000000000008152600481018f9052602481018390523060448201526001600160a01b038c8116606483015267ffffffffffffffff8c1660848301527f00000000000000000000000000000000000000000000000000000000000000001690635ef2c7f09060a401600060405180830381600087803b15801561114857600080fd5b505af115801561115c573d6000803e3d6000fd5b5050505061116e8e828f8f8d8d613a5a565b611237565b6040517f5ef2c7f0000000000000000000000000000000000000000000000000000000008152600481018f9052602481018390523060448201526001600160a01b038c8116606483015267ffffffffffffffff8c1660848301527f00000000000000000000000000000000000000000000000000000000000000001690635ef2c7f09060a401600060405180830381600087803b15801561121357600080fd5b505af1158015611227573d6000803e3d6000fd5b50505050611237818d8b8b613b14565b5050505050505050505050505050565b81518351146112be5760405162461bcd60e51b815260206004820152602860248201527f455243313135353a2069647320616e6420616d6f756e7473206c656e6774682060448201527f6d69736d6174636800000000000000000000000000000000000000000000000060648201526084016107ea565b6001600160a01b03841661133a5760405162461bcd60e51b815260206004820152602560248201527f455243313135353a207472616e7366657220746f20746865207a65726f20616460448201527f647265737300000000000000000000000000000000000000000000000000000060648201526084016107ea565b6001600160a01b03851633148061137457506001600160a01b038516600090815260026020908152604080832033845290915290205460ff165b6113e65760405162461bcd60e51b815260206004820152603260248201527f455243313135353a207472616e736665722063616c6c6572206973206e6f742060448201527f6f776e6572206e6f7220617070726f766564000000000000000000000000000060648201526084016107ea565b60005b835181101561157857600084828151811061140657611406615779565b60200260200101519050600084838151811061142457611424615779565b60200260200101519050600080600061143c85610831565b92509250925061144d826004161590565b61146d5760405163a2a7201360e01b8152600481018690526024016107ea565b83600114801561148e57508a6001600160a01b0316836001600160a01b0316145b6115005760405162461bcd60e51b815260206004820152602a60248201527f455243313135353a20696e73756666696369656e742062616c616e636520666f60448201527f72207472616e736665720000000000000000000000000000000000000000000060648201526084016107ea565b60008581526001602052604090206001600160a01b038b1677ffffffff000000000000000000000000000000000000000060a085901b16177fffffffffffffffff00000000000000000000000000000000000000000000000060c084901b16179055505050505080611571906157d7565b90506113e9565b50836001600160a01b0316856001600160a01b0316336001600160a01b03167f4a39dc06d4c0dbc64b70af90fd698a233a518aa5d07e595d983b8c0526c8f7fb86866040516115c892919061580f565b60405180910390a46115de338686868686613b4f565b5050505050565b604080516020808201879052818301869052825180830384018152606090920190925280519101206000808061161a84610831565b9194509250905060007f6c32148f748aba23997146d7fe89e962e3cc30271290fb96f5f4337756c03b5289016117235761165485336133d9565b61167a5760405163168ab55d60e31b8152600481018690523360248201526044016107ea565b6040517fd6e4fa86000000000000000000000000000000000000000000000000000000008152600481018990527f00000000000000000000000000000000000000000000000000000000000000006001600160a01b03169063d6e4fa8690602401602060405180830381865afa1580156116f8573d6000803e3d6000fd5b505050506040513d601f19601f8201168201806040525081019061171c919061583d565b9050611761565b61172d89336133d9565b6117535760405163168ab55d60e31b8152600481018690523360248201526044016107ea565b61175c89610831565b925050505b61176c868383613d5b565b9550604083161580159061178e57508263ffffffff1687841763ffffffff1614155b156117af5760405163a2a7201360e01b8152600481018690526024016107ea565b958217956117bf85858989613da5565b505050505050505050565b6000806117d683610831565b90935091505063ffffffff82161580156117f8575067ffffffffffffffff8116155b156118d3576000838152600560205260408120805461181690615709565b80601f016020809104026020016040519081016040528092919081815260200182805461184290615709565b801561188f5780601f106118645761010080835404028352916020019161188f565b820191906000526020600020905b81548152906001019060200180831161187257829003601f168201915b5050505050905080516000036118d1576040517f3b4d540000000000000000000000000000000000000000000000000000000000815260040160405180910390fd5b505b915091565b606081518351146119515760405162461bcd60e51b815260206004820152602960248201527f455243313135353a206163636f756e747320616e6420696473206c656e67746860448201527f206d69736d61746368000000000000000000000000000000000000000000000060648201526084016107ea565b6000835167ffffffffffffffff81111561196d5761196d614da6565b604051908082528060200260200182016040528015611996578160200160208202803683370190505b50905060005b8451811015611a0e576119e18582815181106119ba576119ba615779565b60200260200101518583815181106119d4576119d4615779565b6020026020010151610770565b8282815181106119f3576119f3615779565b6020908102919091010152611a07816157d7565b905061199c565b509392505050565b600061082b82613e01565b3360009081526003602052604081205460ff16611aa65760405162461bcd60e51b815260206004820152602860248201527f436f6e74726f6c6c61626c653a2043616c6c6572206973206e6f74206120636f60448201527f6e74726f6c6c657200000000000000000000000000000000000000000000000060648201526084016107ea565b604080517f93cdeb708b7545dc668eb9280176169d1c33cfd8ed6f04690a0bcc88a93fc4ae602080830191909152818301879052825180830384018152606090920190925280519101206000906040517fc475abff00000000000000000000000000000000000000000000000000000000815260048101879052602481018690529091507f00000000000000000000000000000000000000000000000000000000000000006001600160a01b03169063c475abff906044016020604051808303816000875af1158015611b7d573d6000803e3d6000fd5b505050506040513d601f19601f82011682018060405250810190611ba1919061583d565b915060008080611bb084610831565b925092509250611bc1868287613d5b565b9550611bcf84848489613e17565b505050509392505050565b6000546001600160a01b03163314611c345760405162461bcd60e51b815260206004820181905260248201527f4f776e61626c653a2063616c6c6572206973206e6f7420746865206f776e657260448201526064016107ea565b611c3e6000613e88565b565b604080517f93cdeb708b7545dc668eb9280176169d1c33cfd8ed6f04690a0bcc88a93fc4ae60208083019190915281830186905282518083038401815260609092019092528051910120611c9481336133d9565b611cba5760405163168ab55d60e31b8152600481018290523360248201526044016107ea565b604080517f93cdeb708b7545dc668eb9280176169d1c33cfd8ed6f04690a0bcc88a93fc4ae60208083019190915281830187905282518083038401815260609092019092528051910120611d0f905b83613ef0565b6040517f23b872dd0000000000000000000000000000000000000000000000000000000081523060048201526001600160a01b038481166024830152604482018690527f000000000000000000000000000000000000000000000000000000000000000016906323b872dd90606401600060405180830381600087803b158015611d9857600080fd5b505af1158015611dac573d6000803e3d6000fd5b5050505050505050565b3360009081526003602052604081205460ff16611e3b5760405162461bcd60e51b815260206004820152602860248201527f436f6e74726f6c6c61626c653a2043616c6c6572206973206e6f74206120636f60448201527f6e74726f6c6c657200000000000000000000000000000000000000000000000060648201526084016107ea565b60008888604051611e4d929190615856565b6040519081900381207ffca247ac000000000000000000000000000000000000000000000000000000008252600482018190523060248301526044820188905291507f00000000000000000000000000000000000000000000000000000000000000006001600160a01b03169063fca247ac906064016020604051808303816000875af1158015611ee2573d6000803e3d6000fd5b505050506040513d601f19601f82011682018060405250810190611f06919061583d565b9150611f4d89898080601f0160208091040260200160405190810160405280939291908181526020018383808284376000920191909152508b9250889150879050896138c4565b5050979650505050505050565b6001600160a01b0382163303611fd85760405162461bcd60e51b815260206004820152602960248201527f455243313135353a2073657474696e6720617070726f76616c2073746174757360448201527f20666f722073656c66000000000000000000000000000000000000000000000060648201526084016107ea565b3360008181526002602090815260408083206001600160a01b0387168085529083529281902080547fffffffffffffffffffffffffffffffffffffffffffffffffffffffffffffff001686151590811790915590519081529192917f17307eab39ab6107e8899845ad3d59bd9653f200f220920489ca2b5937696c31910160405180910390a35050565b60008061206e84610831565b50841663ffffffff908116908516149250505092915050565b6000546001600160a01b031633146120e15760405162461bcd60e51b815260206004820181905260248201527f4f776e61626c653a2063616c6c6572206973206e6f7420746865206f776e657260448201526064016107ea565b6006546001600160a01b031615612233576006546040517fa22cb4650000000000000000000000000000000000000000000000000000000081526001600160a01b039182166004820152600060248201527f00000000000000000000000000000000000000000000000000000000000000009091169063a22cb46590604401600060405180830381600087803b15801561217a57600080fd5b505af115801561218e573d6000803e3d6000fd5b50506006546040517fa22cb4650000000000000000000000000000000000000000000000000000000081526001600160a01b039182166004820152600060248201527f0000000000000000000000000000000000000000000000000000000000000000909116925063a22cb4659150604401600060405180830381600087803b15801561221a57600080fd5b505af115801561222e573d6000803e3d6000fd5b505050505b600680547fffffffffffffffffffffffff0000000000000000000000000000000000000000166001600160a01b038316908117909155156123aa576006546040517fa22cb4650000000000000000000000000000000000000000000000000000000081526001600160a01b039182166004820152600160248201527f00000000000000000000000000000000000000000000000000000000000000009091169063a22cb46590604401600060405180830381600087803b1580156122f657600080fd5b505af115801561230a573d6000803e3d6000fd5b50506006546040517fa22cb4650000000000000000000000000000000000000000000000000000000081526001600160a01b039182166004820152600160248201527f0000000000000000000000000000000000000000000000000000000000000000909116925063a22cb4659150604401600060405180830381600087803b15801561239657600080fd5b505af11580156115de573d6000803e3d6000fd5b50565b6000826123ba81336133d9565b6123e05760405163168ab55d60e31b8152600481018290523360248201526044016107ea565b83600260006123ee83610831565b5091505063ffffffff828216161561241c5760405163a2a7201360e01b8152600481018490526024016107ea565b60408616156124475760405163168ab55d60e31b8152600481018890523360248201526044016107ea565b600080806124548a610831565b925092509250818917985061246b8a848b84613da5565b509698975050505050505050565b60008661248681336133d9565b6124ac5760405163168ab55d60e31b8152600481018290523360248201526044016107ea565b8787876040516124bd929190615856565b604051809103902060006124f88383604080516020808201949094528082019290925280518083038201815260609092019052805191012090565b6040517f02571be3000000000000000000000000000000000000000000000000000000008152600481018290529091506000906001600160a01b037f000000000000000000000000000000000000000000000000000000000000000016906302571be390602401602060405180830381865afa15801561257c573d6000803e3d6000fd5b505050506040513d601f19601f820116820180604052508101906125a0919061575c565b90506001600160a01b0381166125ea5760006125bb85610831565b5091505060208116156125e45760405163a2a7201360e01b8152600481018690526024016107ea565b50612620565b60006125f583610831565b50915050604081161561261e5760405163a2a7201360e01b8152600481018690526024016107ea565b505b60008b8b604051612632929190615856565b6040518091039020905061266d8d82604080516020808201949094528082019290925280518083038201815260609092019052805191012090565b965061267a8d888a613a1b565b6040517f02571be3000000000000000000000000000000000000000000000000000000008152600481018b9052909a503092506001600160a01b037f00000000000000000000000000000000000000000000000000000000000000001691506302571be390602401602060405180830381865afa1580156126ff573d6000803e3d6000fd5b505050506040513d601f19601f82011682018060405250810190612723919061575c565b6001600160a01b03161461283a576040517f06ab5923000000000000000000000000000000000000000000000000000000008152600481018e9052602481018290523060448201526001600160a01b037f000000000000000000000000000000000000000000000000000000000000000016906306ab5923906064016020604051808303816000875af11580156127be573d6000803e3d6000fd5b505050506040513d601f19601f820116820180604052508101906127e2919061583d565b506128358d888e8e8080601f016020809104026020016040519081016040528093929190818152602001838380828437600081840152601f19601f820116905080830192505050505050508d8d8d613a5a565b612846565b612846878b8b8b613b14565b5050505050509695505050505050565b8361286181336133d9565b6128875760405163168ab55d60e31b8152600481018290523360248201526044016107ea565b84601c600061289583610831565b5091505063ffffffff82821616156128c35760405163a2a7201360e01b8152600481018490526024016107ea565b6040517fcf408823000000000000000000000000000000000000000000000000000000008152600481018990523060248201526001600160a01b03878116604483015267ffffffffffffffff871660648301527f0000000000000000000000000000000000000000000000000000000000000000169063cf40882390608401600060405180830381600087803b15801561295c57600080fd5b505af1158015612970573d6000803e3d6000fd5b5050505060006129828960001c610831565b505090506117bf81898b60001c60016040518060200160405280600081525061405b565b604080516020808201869052818301859052825180830384018152606090920190925280519101206129d881336133d9565b6129fe5760405163168ab55d60e31b8152600481018290523360248201526044016107ea565b7f6c32148f748aba23997146d7fe89e962e3cc30271290fb96f5f4337756c03b528401612a57576040517f615a470300000000000000000000000000000000000000000000000000000000815260040160405180910390fd5b60408051602080820187905281830186905282518083038401815260609092019092528051910120612a8890611d09565b50505050565b6000546001600160a01b03163314612ae85760405162461bcd60e51b815260206004820181905260248201527f4f776e61626c653a2063616c6c6572206973206e6f7420746865206f776e657260448201526064016107ea565b6001600160a01b03821660008181526003602090815260409182902080547fffffffffffffffffffffffffffffffffffffffffffffffffffffffffffffff001685151590811790915591519182527f4c97694570a07277810af7e5669ffd5f6a2d6b74b6e9a274b8b870fd5114cf8791015b60405180910390a25050565b60008484604051612b78929190615856565b60405190819003902090506000612bd67f93cdeb708b7545dc668eb9280176169d1c33cfd8ed6f04690a0bcc88a93fc4ae83604080516020808201949094528082019290925280518083038201815260609092019052805191012090565b9050600080612be483614203565b6006546040517ff9547a9e0000000000000000000000000000000000000000000000000000000081529294509092506001600160a01b03169063f9547a9e90612c3b908b908b908b90889088908d90600401615891565b600060405180830381600087803b158015612c5557600080fd5b505af1158015612c69573d6000803e3d6000fd5b505050505050505050505050565b600080612cbe600087878080601f01602080910402602001604051908101604052809392919081815260200183838082843760009201919091525092939250506142919050565b915091506000612d078288888080601f01602080910402602001604051908101604052809392919081815260200183838082843760009201919091525092939250506143489050565b604080516020808201849052818301879052825180830384018152606090920190925280519101209091507f6c32148f748aba23997146d7fe89e962e3cc30271290fb96f5f4337756c03b528201612d8b576040517f615a470300000000000000000000000000000000000000000000000000000000815260040160405180910390fd5b6040517f02571be3000000000000000000000000000000000000000000000000000000008152600481018290526000907f00000000000000000000000000000000000000000000000000000000000000006001600160a01b0316906302571be390602401602060405180830381865afa158015612e0c573d6000803e3d6000fd5b505050506040513d601f19601f82011682018060405250810190612e30919061575c565b90506001600160a01b0381163314801590612e6f57506001600160a01b038116600090815260026020908152604080832033845290915290205460ff16155b8015612f2157506040517fe985e9c50000000000000000000000000000000000000000000000000000000081526001600160a01b0382811660048301523360248301527f0000000000000000000000000000000000000000000000000000000000000000169063e985e9c590604401602060405180830381865afa158015612efb573d6000803e3d6000fd5b505050506040513d601f19601f82011682018060405250810190612f1f91906158e7565b155b15612f485760405163168ab55d60e31b8152600481018390523360248201526044016107ea565b6001600160a01b03861615612ff3576040517f1896f70a000000000000000000000000000000000000000000000000000000008152600481018390526001600160a01b0387811660248301527f00000000000000000000000000000000000000000000000000000000000000001690631896f70a90604401600060405180830381600087803b158015612fda57600080fd5b505af1158015612fee573d6000803e3d6000fd5b505050505b6040517f5b0fc9c3000000000000000000000000000000000000000000000000000000008152600481018390523060248201527f00000000000000000000000000000000000000000000000000000000000000006001600160a01b031690635b0fc9c390604401600060405180830381600087803b15801561307457600080fd5b505af1158015613088573d6000803e3d6000fd5b505050506117bf828a8a8080601f01602080910402602001604051908101604052809392919081815260200183838082843760009201829052508d93509150819050614407565b600084846040516130e1929190615856565b60405180910390209050600061311e8783604080516020808201949094528082019290925280518083038201815260609092019052805191012090565b905060008061312c83614203565b6006546040517f24c1af440000000000000000000000000000000000000000000000000000000081529294509092506001600160a01b0316906324c1af4490613188908c908c908c908c908c906000908b908b90600401615904565b600060405180830381600087803b1580156131a257600080fd5b505af11580156131b6573d6000803e3d6000fd5b50505050505050505050505050565b6001600160a01b0384166132415760405162461bcd60e51b815260206004820152602560248201527f455243313135353a207472616e7366657220746f20746865207a65726f20616460448201527f647265737300000000000000000000000000000000000000000000000000000060648201526084016107ea565b6001600160a01b03851633148061327b57506001600160a01b038516600090815260026020908152604080832033845290915290205460ff165b6132ed5760405162461bcd60e51b815260206004820152602960248201527f455243313135353a2063616c6c6572206973206e6f74206f776e6572206e6f7260448201527f20617070726f766564000000000000000000000000000000000000000000000060648201526084016107ea565b6115de858585858561405b565b6000546001600160a01b031633146133545760405162461bcd60e51b815260206004820181905260248201527f4f776e61626c653a2063616c6c6572206973206e6f7420746865206f776e657260448201526064016107ea565b6001600160a01b0381166133d05760405162461bcd60e51b815260206004820152602660248201527f4f776e61626c653a206e6577206f776e657220697320746865207a65726f206160448201527f646472657373000000000000000000000000000000000000000000000000000060648201526084016107ea565b6123aa81613e88565b6000806133e584611a16565b9050826001600160a01b0316816001600160a01b0316148061342c57506001600160a01b0380821660009081526002602090815260408083209387168352929052205460ff165b949350505050565b6000808787604051613447929190615856565b6040519081900381207f6352211e0000000000000000000000000000000000000000000000000000000082526004820181905291506000907f00000000000000000000000000000000000000000000000000000000000000006001600160a01b031690636352211e90602401602060405180830381865afa1580156134d0573d6000803e3d6000fd5b505050506040513d601f19601f820116820180604052508101906134f4919061575c565b90506001600160a01b038116331480159061353357506001600160a01b038116600090815260026020908152604080832033845290915290205460ff16155b80156135e557506040517fe985e9c50000000000000000000000000000000000000000000000000000000081526001600160a01b0382811660048301523360248301527f0000000000000000000000000000000000000000000000000000000000000000169063e985e9c590604401602060405180830381865afa1580156135bf573d6000803e3d6000fd5b505050506040513d601f19601f820116820180604052508101906135e391906158e7565b155b1561365557604080517f93cdeb708b7545dc668eb9280176169d1c33cfd8ed6f04690a0bcc88a93fc4ae6020808301919091528183018590528251808303840181526060830193849052805191012063168ab55d60e31b909252606481019190915233608482015260a4016107ea565b6040517f23b872dd0000000000000000000000000000000000000000000000000000000081526001600160a01b038281166004830152306024830152604482018490527f000000000000000000000000000000000000000000000000000000000000000016906323b872dd90606401600060405180830381600087803b1580156136de57600080fd5b505af11580156136f2573d6000803e3d6000fd5b50506040517f28ed4f6c000000000000000000000000000000000000000000000000000000008152600481018590523060248201527f00000000000000000000000000000000000000000000000000000000000000006001600160a01b031692506328ed4f6c9150604401600060405180830381600087803b15801561377757600080fd5b505af115801561378b573d6000803e3d6000fd5b505050506137d489898080601f0160208091040260200160405190810160405280939291908181526020018383808284376000920191909152508b92508a9150899050886138c4565b9998505050505050505050565b60007fffffffff0000000000000000000000000000000000000000000000000000000082167fd9b67a2600000000000000000000000000000000000000000000000000000000148061387457507fffffffff0000000000000000000000000000000000000000000000000000000082167f0e89341c00000000000000000000000000000000000000000000000000000000145b8061082b57507f01ffc9a7000000000000000000000000000000000000000000000000000000007fffffffff0000000000000000000000000000000000000000000000000000000083161461082b565b84516020860120600090816139207f93cdeb708b7545dc668eb9280176169d1c33cfd8ed6f04690a0bcc88a93fc4ae83604080516020808201949094528082019290925280518083038201815260609092019052805191012090565b905061392d818387614478565b965061396491507f93cdeb708b7545dc668eb9280176169d1c33cfd8ed6f04690a0bcc88a93fc4ae9050828a8a60408b178a613a5a565b6001600160a01b03841615613a0f576040517f1896f70a000000000000000000000000000000000000000000000000000000008152600481018290526001600160a01b0385811660248301527f00000000000000000000000000000000000000000000000000000000000000001690631896f70a90604401600060405180830381600087803b1580156139f657600080fd5b505af1158015613a0a573d6000803e3d6000fd5b505050505b50929695505050505050565b6000808080613a2986610831565b919550935090506000613a3b88610831565b92505050613a4a868383613d5b565b9550859250505093509350939050565b60008681526005602052604081208054613afc918791613a7990615709565b80601f0160208091040260200160405190810160405280929190818152602001828054613aa590615709565b8015613af25780601f10613ac757610100808354040283529160200191613af2565b820191906000526020600020905b815481529060010190602001808311613ad557829003601f168201915b5050505050614540565b9050613b0b8682868686614407565b50505050505050565b6000613b1f85610831565b50509050613b4381858760001c60016040518060200160405280600081525061405b565b6115de85858585613da5565b6001600160a01b0384163b15613d53576040517fbc197c810000000000000000000000000000000000000000000000000000000081526001600160a01b0385169063bc197c8190613bac9089908990889088908890600401615967565b6020604051808303816000875af1925050508015613be7575060408051601f3d908101601f19168201909252613be4918101906159c5565b60015b613c9c57613bf36159e2565b806308c379a003613c2c5750613c076159fe565b80613c125750613c2e565b8060405162461bcd60e51b81526004016107ea9190614c41565b505b60405162461bcd60e51b815260206004820152603460248201527f455243313135353a207472616e7366657220746f206e6f6e204552433131353560448201527f526563656976657220696d706c656d656e74657200000000000000000000000060648201526084016107ea565b7fffffffff0000000000000000000000000000000000000000000000000000000081167fbc197c810000000000000000000000000000000000000000000000000000000014613b0b5760405162461bcd60e51b815260206004820152602860248201527f455243313135353a204552433131353552656365697665722072656a6563746560448201527f6420746f6b656e7300000000000000000000000000000000000000000000000060648201526084016107ea565b505050505050565b60008167ffffffffffffffff168467ffffffffffffffff161115613d7d578193505b8267ffffffffffffffff168467ffffffffffffffff161015613d9d578293505b509192915050565b613db184848484613e17565b6040805163ffffffff8416815267ffffffffffffffff8316602082015285917f936318e296f824e203b086d97bb155a0200cec4847efea1fb4b9b7f924157355910160405180910390a250505050565b600080613e0d83610831565b5090949350505050565b613e2184836145e9565b60008481526001602052604090206001600160a01b03841677ffffffff000000000000000000000000000000000000000060a085901b16177fffffffffffffffff00000000000000000000000000000000000000000000000060c084901b16179055612a88565b600080546001600160a01b038381167fffffffffffffffffffffffff0000000000000000000000000000000000000000831681178455604051919092169283917f8be0079c531659141344cd1fd0a4f28419497f9722a3daafe3b4186f6b6457e09190a35050565b6001600160a01b0381161580613f0e57506001600160a01b03811630145b15613f50576040517f5949361a0000000000000000000000000000000000000000000000000000000081526001600160a01b03821660048201526024016107ea565b613f5b826001612062565b15613f7c5760405163a2a7201360e01b8152600481018390526024016107ea565b613f8582614626565b6040517f5b0fc9c3000000000000000000000000000000000000000000000000000000008152600481018390526001600160a01b0382811660248301527f00000000000000000000000000000000000000000000000000000000000000001690635b0fc9c390604401600060405180830381600087803b15801561400857600080fd5b505af115801561401c573d6000803e3d6000fd5b50506040516001600160a01b03841681528492507fee2ba1195c65bcf218a83d874335c6bf9d9067b4c672f3c3bf16cf40de7586c49150602001612b5a565b600080600061406986610831565b925092509250866001600160a01b0316836001600160a01b031603614090575050506115de565b60048216156140b55760405163a2a7201360e01b8152600481018790526024016107ea565b8460011480156140d65750876001600160a01b0316836001600160a01b0316145b6141485760405162461bcd60e51b815260206004820152602a60248201527f455243313135353a20696e73756666696369656e742062616c616e636520666f60448201527f72207472616e736665720000000000000000000000000000000000000000000060648201526084016107ea565b60008681526001602052604090206001600160a01b03881677ffffffff000000000000000000000000000000000000000060a085901b16177fffffffffffffffff00000000000000000000000000000000000000000000000060c084901b1617905560408051878152602081018790526001600160a01b03808a1692908b169133917fc3d58168c5ae7397731d063d5bbf3d657854427343f4c083240f7aacaa2d0f62910160405180910390a4611dac33898989898961468f565b60065460009081906001600160a01b031661424a576040517f24c1d6d400000000000000000000000000000000000000000000000000000000815260040160405180910390fd5b61425483336133d9565b61427a5760405163168ab55d60e31b8152600481018490523360248201526044016107ea565b614283836117ca565b90925090506118d383614626565b600080835183106142e45760405162461bcd60e51b815260206004820152601e60248201527f726561644c6162656c3a20496e646578206f7574206f6620626f756e6473000060448201526064016107ea565b60008484815181106142f8576142f8615779565b016020015160f81c905080156143245761431d85614317866001615aa6565b836147ea565b9250614329565b600092505b6143338185615aa6565b61433e906001615aa6565b9150509250929050565b60008060006143578585614291565b9092509050816143c9576001855161436f9190615abe565b84146143bd5760405162461bcd60e51b815260206004820152601d60248201527f6e616d65686173683a204a756e6b20617420656e64206f66206e616d6500000060448201526064016107ea565b506000915061082b9050565b6143d38582614348565b6040805160208101929092528101839052606001604051602081830303815290604052805190602001209250505092915050565b6000858152600560209081526040909120855161442692870190614aa4565b506144338584848461480e565b847f8ce7013e8abebc55c3890a68f5a27c67c3f7efa64e584de5fb22363c606fd340858585856040516144699493929190615ad5565b60405180910390a25050505050565b600080808061448687610831565b6040517fd6e4fa86000000000000000000000000000000000000000000000000000000008152600481018a905292965090945091506000907f00000000000000000000000000000000000000000000000000000000000000006001600160a01b03169063d6e4fa8690602401602060405180830381865afa15801561450f573d6000803e3d6000fd5b505050506040513d601f19601f82011682018060405250810190614533919061583d565b9050613a4a868383613d5b565b606060018351101561457e576040517f280dacb600000000000000000000000000000000000000000000000000000000815260040160405180910390fd5b60ff835111156145bc57826040517fe3ba295f0000000000000000000000000000000000000000000000000000000081526004016107ea9190614c41565b825183836040516020016145d293929190615b1d565b604051602081830303815290604052905092915050565b63ffffffbf8116158015906146015750604181811614155b156146225760405163a2a7201360e01b8152600481018390526024016107ea565b5050565b600061463182611a16565b600083815260016020526040812055905060408051838152600160208201526000916001600160a01b0384169133917fc3d58168c5ae7397731d063d5bbf3d657854427343f4c083240f7aacaa2d0f62910160405180910390a45050565b6001600160a01b0384163b15613d53576040517ff23a6e610000000000000000000000000000000000000000000000000000000081526001600160a01b0385169063f23a6e61906146ec9089908990889088908890600401615b7e565b6020604051808303816000875af1925050508015614727575060408051601f3d908101601f19168201909252614724918101906159c5565b60015b61473357613bf36159e2565b7fffffffff0000000000000000000000000000000000000000000000000000000081167ff23a6e610000000000000000000000000000000000000000000000000000000014613b0b5760405162461bcd60e51b815260206004820152602860248201527f455243313135353a204552433131353552656365697665722072656a6563746560448201527f6420746f6b656e7300000000000000000000000000000000000000000000000060648201526084016107ea565b82516000906147f98385615aa6565b111561480457600080fd5b5091016020012090565b600061481985611a16565b905061482585846145e9565b6001600160a01b038116156148745761483d85614626565b6040516000815285907fee2ba1195c65bcf218a83d874335c6bf9d9067b4c672f3c3bf16cf40de7586c49060200160405180910390a25b6115de8585858583600061488782611a16565b90506001600160a01b038116156148e05760405162461bcd60e51b815260206004820152601f60248201527f455243313135353a206d696e74206f66206578697374696e6720746f6b656e0060448201526064016107ea565b6001600160a01b03851661495c5760405162461bcd60e51b815260206004820152602160248201527f455243313135353a206d696e7420746f20746865207a65726f2061646472657360448201527f730000000000000000000000000000000000000000000000000000000000000060648201526084016107ea565b306001600160a01b038616036149da5760405162461bcd60e51b815260206004820152603460248201527f455243313135353a206e65774f776e65722063616e6e6f74206265207468652060448201527f4e616d655772617070657220636f6e747261637400000000000000000000000060648201526084016107ea565b60008281526001602052604090206001600160a01b03861677ffffffff000000000000000000000000000000000000000060a087901b16177fffffffffffffffff00000000000000000000000000000000000000000000000060c086901b1617905560408051838152600160208201526001600160a01b0387169160009133917fc3d58168c5ae7397731d063d5bbf3d657854427343f4c083240f7aacaa2d0f62910160405180910390a4613d53336000878560016040518060200160405280600081525061468f565b828054614ab090615709565b90600052602060002090601f016020900481019282614ad25760008555614b18565b82601f10614aeb57805160ff1916838001178555614b18565b82800160010185558215614b18579182015b82811115614b18578251825591602001919060010190614afd565b50614b24929150614b28565b5090565b5b80821115614b245760008155600101614b29565b6001600160a01b03811681146123aa57600080fd5b60008060408385031215614b6557600080fd5b8235614b7081614b3d565b946020939093013593505050565b600060208284031215614b9057600080fd5b5035919050565b7fffffffff00000000000000000000000000000000000000000000000000000000811681146123aa57600080fd5b600060208284031215614bd757600080fd5b8135614be281614b97565b9392505050565b60005b83811015614c04578181015183820152602001614bec565b83811115612a885750506000910152565b60008151808452614c2d816020860160208601614be9565b601f01601f19169290920160200192915050565b602081526000614be26020830184614c15565b803567ffffffffffffffff81168114614c6c57600080fd5b919050565b60008060408385031215614c8457600080fd5b82359150614c9460208401614c54565b90509250929050565b60008083601f840112614caf57600080fd5b50813567ffffffffffffffff811115614cc757600080fd5b602083019150836020828501011115614cdf57600080fd5b9250929050565b600080600080600060808688031215614cfe57600080fd5b8535614d0981614b3d565b94506020860135614d1981614b3d565b935060408601359250606086013567ffffffffffffffff811115614d3c57600080fd5b614d4888828901614c9d565b969995985093965092949392505050565b600060208284031215614d6b57600080fd5b8135614be281614b3d565b60008060408385031215614d8957600080fd5b823591506020830135614d9b81614b3d565b809150509250929050565b7f4e487b7100000000000000000000000000000000000000000000000000000000600052604160045260246000fd5b601f19601f830116810181811067ffffffffffffffff82111715614dfb57614dfb614da6565b6040525050565b600067ffffffffffffffff821115614e1c57614e1c614da6565b50601f01601f191660200190565b600082601f830112614e3b57600080fd5b8135614e4681614e02565b604051614e538282614dd5565b828152856020848701011115614e6857600080fd5b82602086016020830137600092810160200192909252509392505050565b803563ffffffff81168114614c6c57600080fd5b600080600080600080600060e0888a031215614eb557600080fd5b87359650602088013567ffffffffffffffff811115614ed357600080fd5b614edf8a828b01614e2a565b9650506040880135614ef081614b3d565b94506060880135614f0081614b3d565b9350614f0e60808901614c54565b9250614f1c60a08901614e86565b9150614f2a60c08901614c54565b905092959891949750929550565b600067ffffffffffffffff821115614f5257614f52614da6565b5060051b60200190565b600082601f830112614f6d57600080fd5b81356020614f7a82614f38565b604051614f878282614dd5565b83815260059390931b8501820192828101915086841115614fa757600080fd5b8286015b84811015614fc25780358352918301918301614fab565b509695505050505050565b600080600080600060a08688031215614fe557600080fd5b8535614ff081614b3d565b9450602086013561500081614b3d565b9350604086013567ffffffffffffffff8082111561501d57600080fd5b61502989838a01614f5c565b9450606088013591508082111561503f57600080fd5b61504b89838a01614f5c565b9350608088013591508082111561506157600080fd5b5061506e88828901614e2a565b9150509295509295909350565b6000806000806080858703121561509157600080fd5b84359350602085013592506150a860408601614e86565b91506150b660608601614c54565b905092959194509250565b600080604083850312156150d457600080fd5b823567ffffffffffffffff808211156150ec57600080fd5b818501915085601f83011261510057600080fd5b8135602061510d82614f38565b60405161511a8282614dd5565b83815260059390931b850182019282810191508984111561513a57600080fd5b948201945b8386101561516157853561515281614b3d565b8252948201949082019061513f565b9650508601359250508082111561517757600080fd5b5061433e85828601614f5c565b600081518084526020808501945080840160005b838110156151b457815187529582019590820190600101615198565b509495945050505050565b602081526000614be26020830184615184565b6000806000606084860312156151e757600080fd5b83359250602084013591506151fe60408501614c54565b90509250925092565b60008060006060848603121561521c57600080fd5b83359250602084013561522e81614b3d565b9150604084013561523e81614b3d565b809150509250925092565b600080600080600080600060c0888a03121561526457600080fd5b873567ffffffffffffffff81111561527b57600080fd5b6152878a828b01614c9d565b909850965050602088013561529b81614b3d565b94506040880135935060608801356152b281614b3d565b92506152c060808901614e86565b9150614f2a60a08901614c54565b80151581146123aa57600080fd5b600080604083850312156152ef57600080fd5b82356152fa81614b3d565b91506020830135614d9b816152ce565b6000806040838503121561531d57600080fd5b82359150614c9460208401614e86565b60008060008060008060a0878903121561534657600080fd5b86359550602087013567ffffffffffffffff81111561536457600080fd5b61537089828a01614c9d565b909650945050604087013561538481614b3d565b925061539260608801614e86565b91506153a060808801614c54565b90509295509295509295565b600080600080608085870312156153c257600080fd5b8435935060208501356153d481614b3d565b925060408501356150a881614b3d565b6000806000606084860312156153f957600080fd5b8335925060208401359150604084013561523e81614b3d565b6000806000806060858703121561542857600080fd5b843567ffffffffffffffff81111561543f57600080fd5b61544b87828801614c9d565b909550935050602085013561545f81614b3d565b9150604085013561546f81614b3d565b939692955090935050565b6000806040838503121561548d57600080fd5b823561549881614b3d565b91506020830135614d9b81614b3d565b6000806000806000608086880312156154c057600080fd5b85359450602086013567ffffffffffffffff8111156154de57600080fd5b6154ea88828901614c9d565b90955093505060408601356154fe81614b3d565b9150606086013561550e81614b3d565b809150509295509295909350565b600080600080600060a0868803121561553457600080fd5b853561553f81614b3d565b9450602086013561554f81614b3d565b93506040860135925060608601359150608086013567ffffffffffffffff81111561557957600080fd5b61506e88828901614e2a565b60008060008060008060a0878903121561559e57600080fd5b863567ffffffffffffffff8111156155b557600080fd5b6155c189828a01614c9d565b90975095505060208701356155d581614b3d565b93506155e360408801614e86565b92506155f160608801614c54565b9150608087013561560181614b3d565b809150509295509295509295565b60006020828403121561562157600080fd5b815167ffffffffffffffff81111561563857600080fd5b8201601f8101841361564957600080fd5b805161565481614e02565b6040516156618282614dd5565b82815286602084860101111561567657600080fd5b615687836020830160208701614be9565b9695505050505050565b600080600080600060a086880312156156a957600080fd5b853567ffffffffffffffff8111156156c057600080fd5b6156cc88828901614e2a565b95505060208601356156dd81614b3d565b93506156eb60408701614e86565b92506156f960608701614c54565b9150608086013561550e81614b3d565b600181811c9082168061571d57607f821691505b602082108103615756577f4e487b7100000000000000000000000000000000000000000000000000000000600052602260045260246000fd5b50919050565b60006020828403121561576e57600080fd5b8151614be281614b3d565b7f4e487b7100000000000000000000000000000000000000000000000000000000600052603260045260246000fd5b7f4e487b7100000000000000000000000000000000000000000000000000000000600052601160045260246000fd5b60007fffffffffffffffffffffffffffffffffffffffffffffffffffffffffffffffff8203615808576158086157a8565b5060010190565b6040815260006158226040830185615184565b82810360208401526158348185615184565b95945050505050565b60006020828403121561584f57600080fd5b5051919050565b8183823760009101908152919050565b818352818160208501375060006020828401015260006020601f19601f840116840101905092915050565b60a0815260006158a560a08301888a615866565b90506001600160a01b03808716602084015263ffffffff8616604084015267ffffffffffffffff85166060840152808416608084015250979650505050505050565b6000602082840312156158f957600080fd5b8151614be2816152ce565b88815260e06020820152600061591e60e08301898b615866565b6001600160a01b03978816604084015295909616606082015267ffffffffffffffff938416608082015263ffffffff9290921660a083015290911660c090910152949350505050565b60006001600160a01b03808816835280871660208401525060a0604083015261599360a0830186615184565b82810360608401526159a58186615184565b905082810360808401526159b98185614c15565b98975050505050505050565b6000602082840312156159d757600080fd5b8151614be281614b97565b600060033d11156159fb5760046000803e5060005160e01c5b90565b600060443d1015615a0c5790565b6040517ffffffffffffffffffffffffffffffffffffffffffffffffffffffffffffffffc803d016004833e81513d67ffffffffffffffff8160248401118184111715615a5a57505050505090565b8285019150815181811115615a725750505050505090565b843d8701016020828501011115615a8c5750505050505090565b615a9b60208286010187614dd5565b509095945050505050565b60008219821115615ab957615ab96157a8565b500190565b600082821015615ad057615ad06157a8565b500390565b608081526000615ae86080830187614c15565b6001600160a01b039590951660208301525063ffffffff92909216604083015267ffffffffffffffff16606090910152919050565b7fff000000000000000000000000000000000000000000000000000000000000008460f81b16815260008351615b5a816001850160208801614be9565b835190830190615b71816001840160208801614be9565b0160010195945050505050565b60006001600160a01b03808816835280871660208401525084604083015283606083015260a06080830152615bb660a0830184614c15565b97965050505050505056fea26469706673582212206009284efc51867f8a5020a363e8de90523ec7db84a8b7b68596ba818aa591ab64736f6c634300080d0033",
  "linkReferences": {},
  "deployedLinkReferences": {}
}