{
  "_format": "hh-sol-artifact-1",
  "contractName": "FlashBorrower",
  "sourceName": "contracts/mocks/FlashBorrower.sol",
  "abi": [
    {
      "inputs": [
        {
          "internalType": "contract IERC3156FlashLender",
          "name": "lender_",
          "type": "address"
        }
      ],
      "stateMutability": "nonpayable",
      "type": "constructor"
    },
    {
      "inputs": [],
      "name": "flashAmount",
      "outputs": [
        {
          "internalType": "uint256",
          "name": "",
          "type": "uint256"
        }
      ],
      "stateMutability": "view",
      "type": "function"
    },
    {
      "inputs": [],
      "name": "flashBalance",
      "outputs": [
        {
          "internalType": "uint256",
          "name": "",
          "type": "uint256"
        }
      ],
      "stateMutability": "view",
      "type": "function"
    },
    {
      "inputs": [
        {
          "internalType": "address",
          "name": "token",
          "type": "address"
        },
        {
          "internalType": "uint256",
          "name": "amount",
          "type": "uint256"
        },
        {
          "internalType": "enum FlashBorrower.Action",
          "name": "action",
          "type": "uint8"
        }
      ],
      "name": "flashBorrow",
      "outputs": [],
      "stateMutability": "nonpayable",
      "type": "function"
    },
    {
      "inputs": [],
      "name": "flashFee",
      "outputs": [
        {
          "internalType": "uint256",
          "name": "",
          "type": "uint256"
        }
      ],
      "stateMutability": "view",
      "type": "function"
    },
    {
      "inputs": [],
      "name": "flashInitiator",
      "outputs": [
        {
          "internalType": "address",
          "name": "",
          "type": "address"
        }
      ],
      "stateMutability": "view",
      "type": "function"
    },
    {
      "inputs": [],
      "name": "flashToken",
      "outputs": [
        {
          "internalType": "address",
          "name": "",
          "type": "address"
        }
      ],
      "stateMutability": "view",
      "type": "function"
    },
    {
      "inputs": [],
      "name": "lender",
      "outputs": [
        {
          "internalType": "contract IERC3156FlashLender",
          "name": "",
          "type": "address"
        }
      ],
      "stateMutability": "view",
      "type": "function"
    },
    {
      "inputs": [
        {
          "internalType": "address",
          "name": "initiator",
          "type": "address"
        },
        {
          "internalType": "address",
          "name": "token",
          "type": "address"
        },
        {
          "internalType": "uint256",
          "name": "amount",
          "type": "uint256"
        },
        {
          "internalType": "uint256",
          "name": "fee",
          "type": "uint256"
        },
        {
          "internalType": "bytes",
          "name": "data",
          "type": "bytes"
        }
      ],
      "name": "onFlashLoan",
      "outputs": [
        {
          "internalType": "bytes32",
          "name": "",
          "type": "bytes32"
        }
      ],
      "stateMutability": "nonpayable",
      "type": "function"
    }
  ],
  "bytecode": "0x608060405234801561001057600080fd5b50604051610ceb380380610ceb83398101604081905261002f91610054565b600080546001600160a01b0319166001600160a01b0392909216919091179055610082565b600060208284031215610065578081fd5b81516001600160a01b038116811461007b578182fd5b9392505050565b610c5a806100916000396000f3fe608060405234801561001057600080fd5b50600436106100885760003560e01c8063dc4a79001161005b578063dc4a7900146100db578063e07df5b4146100f0578063ebbc8d24146100f8578063ffe8c8c51461010057610088565b806323e30c8b1461008d57806377ee0855146100b6578063b570137a146100cb578063bcead63e146100d3575b600080fd5b6100a061009b3660046108da565b610108565b6040516100ad9190610a7d565b60405180910390f35b6100be61055f565b6040516100ad9190610a0f565b6100a061057b565b6100be610581565b6100ee6100e936600461097b565b61059d565b005b6100a061087a565b6100a0610880565b6100be610886565b6000805473ffffffffffffffffffffffffffffffffffffffff163314610163576040517f08c379a000000000000000000000000000000000000000000000000000000000815260040161015a90610b69565b60405180910390fd5b6000610171838501856109dd565b6002805473ffffffffffffffffffffffffffffffffffffffff808c167fffffffffffffffffffffffff00000000000000000000000000000000000000009283161790925560038054928b1692909116919091179055600487905560058690559050600081600481111561020d577f4e487b7100000000000000000000000000000000000000000000000000000000600052602160045260246000fd5b14156102bd576040517f70a0823100000000000000000000000000000000000000000000000000000000815273ffffffffffffffffffffffffffffffffffffffff8816906370a0823190610265903090600401610a0f565b60206040518083038186803b15801561027d57600080fd5b505afa158015610291573d6000803e3d6000fd5b505050506040513d601f19601f820116820180604052508101906102b591906109f7565b600155610532565b60018160048111156102f8577f4e487b7100000000000000000000000000000000000000000000000000000000600052602160045260246000fd5b1415610445576040517f70a0823100000000000000000000000000000000000000000000000000000000815273ffffffffffffffffffffffffffffffffffffffff8816906370a0823190610350903090600401610a0f565b60206040518083038186803b15801561036857600080fd5b505afa15801561037c573d6000803e3d6000fd5b505050506040513d601f19601f820116820180604052508101906103a091906109f7565b60015560005473ffffffffffffffffffffffffffffffffffffffff8089169163a9059cbb91166103d0888a610ba0565b6040518363ffffffff1660e01b81526004016103ed929190610a57565b602060405180830381600087803b15801561040757600080fd5b505af115801561041b573d6000803e3d6000fd5b505050506040513d601f19601f8201168201806040525081019061043f91906109b6565b50610532565b6002816004811115610480577f4e487b7100000000000000000000000000000000000000000000000000000000600052602160045260246000fd5b14156104db576040517fa9059cbb00000000000000000000000000000000000000000000000000000000815273ffffffffffffffffffffffffffffffffffffffff88169063a9059cbb906103ed906000908a90600401610a57565b6003816004811115610516577f4e487b7100000000000000000000000000000000000000000000000000000000600052602160045260246000fd5b1415610532576105328761052b886002610bb8565b600061059d565b507f439148f0bbc682ca079e46d6e2c2f0c1e3b820f1a291b069d8882abf8cf18dd9979650505050505050565b60035473ffffffffffffffffffffffffffffffffffffffff1681565b60045481565b60005473ffffffffffffffffffffffffffffffffffffffff1681565b6000816040516020016105b09190610b28565b604080517fffffffffffffffffffffffffffffffffffffffffffffffffffffffffffffffe081840301815290829052600080547fdd62ed3e0000000000000000000000000000000000000000000000000000000084529193509173ffffffffffffffffffffffffffffffffffffffff8088169263dd62ed3e926106399230921690600401610a30565b60206040518083038186803b15801561065157600080fd5b505afa158015610665573d6000803e3d6000fd5b505050506040513d601f19601f8201168201806040525081019061068991906109f7565b6000546040517fd9d98ce400000000000000000000000000000000000000000000000000000000815291925073ffffffffffffffffffffffffffffffffffffffff8088169263095ea7b39290911690819063d9d98ce4906106f0908b908b90600401610a57565b60206040518083038186803b15801561070857600080fd5b505afa15801561071c573d6000803e3d6000fd5b505050506040513d601f19601f8201168201806040525081019061074091906109f7565b61074a8886610ba0565b6107549190610ba0565b6040518363ffffffff1660e01b8152600401610771929190610a57565b602060405180830381600087803b15801561078b57600080fd5b505af115801561079f573d6000803e3d6000fd5b505050506040513d601f19601f820116820180604052508101906107c391906109b6565b506000546040517f5cffe9de00000000000000000000000000000000000000000000000000000000815273ffffffffffffffffffffffffffffffffffffffff90911690635cffe9de90610820903090899089908890600401610a86565b602060405180830381600087803b15801561083a57600080fd5b505af115801561084e573d6000803e3d6000fd5b505050506040513d601f19601f8201168201806040525081019061087291906109b6565b505050505050565b60055481565b60015481565b60025473ffffffffffffffffffffffffffffffffffffffff1681565b803573ffffffffffffffffffffffffffffffffffffffff811681146108c657600080fd5b919050565b8035600581106108c657600080fd5b60008060008060008060a087890312156108f2578182fd5b6108fb876108a2565b9550610909602088016108a2565b94506040870135935060608701359250608087013567ffffffffffffffff80821115610933578384fd5b818901915089601f830112610946578384fd5b813581811115610954578485fd5b8a6020828501011115610965578485fd5b6020830194508093505050509295509295509295565b60008060006060848603121561098f578283fd5b610998846108a2565b9250602084013591506109ad604085016108cb565b90509250925092565b6000602082840312156109c7578081fd5b815180151581146109d6578182fd5b9392505050565b6000602082840312156109ee578081fd5b6109d6826108cb565b600060208284031215610a08578081fd5b5051919050565b73ffffffffffffffffffffffffffffffffffffffff91909116815260200190565b73ffffffffffffffffffffffffffffffffffffffff92831681529116602082015260400190565b73ffffffffffffffffffffffffffffffffffffffff929092168252602082015260400190565b90815260200190565b600073ffffffffffffffffffffffffffffffffffffffff80871683526020818716818501528560408501526080606085015284519150816080850152825b82811015610ae05785810182015185820160a001528101610ac4565b82811115610af1578360a084870101525b5050601f017fffffffffffffffffffffffffffffffffffffffffffffffffffffffffffffffe0169190910160a00195945050505050565b6020810160058310610b63577f4e487b7100000000000000000000000000000000000000000000000000000000600052602160045260246000fd5b91905290565b6020808252601f908201527f466c617368426f72726f7765723a20556e74727573746564206c656e64657200604082015260600190565b60008219821115610bb357610bb3610bf5565b500190565b6000817fffffffffffffffffffffffffffffffffffffffffffffffffffffffffffffffff0483118215151615610bf057610bf0610bf5565b500290565b7f4e487b7100000000000000000000000000000000000000000000000000000000600052601160045260246000fdfea2646970667358221220b67ab9dbda6a0985547d75459e03bc06434c61cfeb8bbebd7a001d0108c7ce8264736f6c63430008010033",
  "linkReferences": {},
  "deployedLinkReferences": {}
}