{
  "_format": "hh-sol-artifact-1",
  "contractName": "TracerPerpetualSwapMock",
  "sourceName": "contracts/test/TracerPerpetualSwapMock.sol",
  "abi": [
    {
      "inputs": [
        {
          "components": [
            {
              "internalType": "address",
              "name": "maker",
              "type": "address"
            },
            {
              "internalType": "address",
              "name": "market",
              "type": "address"
            },
            {
              "internalType": "uint256",
              "name": "price",
              "type": "uint256"
            },
            {
              "internalType": "uint256",
              "name": "amount",
              "type": "uint256"
            },
            {
              "internalType": "enum Perpetuals.Side",
              "name": "side",
              "type": "uint8"
            },
            {
              "internalType": "uint256",
              "name": "expires",
              "type": "uint256"
            },
            {
              "internalType": "uint256",
              "name": "created",
              "type": "uint256"
            }
          ],
          "internalType": "struct Perpetuals.Order",
          "name": "order1",
          "type": "tuple"
        },
        {
          "components": [
            {
              "internalType": "address",
              "name": "maker",
              "type": "address"
            },
            {
              "internalType": "address",
              "name": "market",
              "type": "address"
            },
            {
              "internalType": "uint256",
              "name": "price",
              "type": "uint256"
            },
            {
              "internalType": "uint256",
              "name": "amount",
              "type": "uint256"
            },
            {
              "internalType": "enum Perpetuals.Side",
              "name": "side",
              "type": "uint8"
            },
            {
              "internalType": "uint256",
              "name": "expires",
              "type": "uint256"
            },
            {
              "internalType": "uint256",
              "name": "created",
              "type": "uint256"
            }
          ],
          "internalType": "struct Perpetuals.Order",
          "name": "order2",
          "type": "tuple"
        },
        {
          "internalType": "uint256",
          "name": "fillAmount",
          "type": "uint256"
        }
      ],
      "name": "matchOrders",
      "outputs": [],
      "stateMutability": "nonpayable",
      "type": "function"
    }
  ],
  "bytecode": "0x608060405234801561001057600080fd5b506101b2806100206000396000f3fe608060405234801561001057600080fd5b506004361061002b5760003560e01c80635a90f5da14610030575b600080fd5b61004361003e36600461013d565b610045565b005b505050565b803573ffffffffffffffffffffffffffffffffffffffff8116811461006e57600080fd5b919050565b80356002811061006e57600080fd5b600060e08284031215610093578081fd5b60405160e0810181811067ffffffffffffffff821117156100db577f4e487b710000000000000000000000000000000000000000000000000000000083526041600452602483fd5b6040529050806100ea8361004a565b81526100f86020840161004a565b6020820152604083013560408201526060830135606082015261011d60808401610073565b608082015260a083013560a082015260c083013560c08201525092915050565b60008060006101e08486031215610152578283fd5b61015c8585610082565b925061016b8560e08601610082565b91506101c08401359050925092509256fea2646970667358221220b3949b2ed1eb49976cae92e4bb97ac6288a98142bc42fd6a5e771bddd23f688664736f6c63430008000033",
  "linkReferences": {},
  "deployedLinkReferences": {}
}