{
  "_format": "hh-sol-artifact-1",
  "contractName": "Governable",
  "sourceName": "contracts/legos/Governable.sol",
  "abi": [
    {
      "inputs": [],
      "name": "governance",
      "outputs": [
        {
          "internalType": "address",
          "name": "",
          "type": "address"
        }
      ],
      "stateMutability": "view",
      "type": "function"
    },
    {
      "inputs": [
        {
          "internalType": "address",
          "name": "_governance",
          "type": "address"
        }
      ],
      "name": "setGovernace",
      "outputs": [],
      "stateMutability": "nonpayable",
      "type": "function"
    }
  ],
  "bytecode": "0x608060405234801561001057600080fd5b506102e3806100206000396000f3fe608060405234801561001057600080fd5b50600436106100365760003560e01c80635aa6e6751461003b578063851e3ca514610059575b600080fd5b610043610075565b60405161005091906101b7565b60405180910390f35b610073600480360381019061006e9190610203565b610099565b005b60008054906101000a900473ffffffffffffffffffffffffffffffffffffffff1681565b60008054906101000a900473ffffffffffffffffffffffffffffffffffffffff1673ffffffffffffffffffffffffffffffffffffffff163373ffffffffffffffffffffffffffffffffffffffff1614610127576040517f08c379a000000000000000000000000000000000000000000000000000000000815260040161011e9061028d565b60405180910390fd5b61013081610133565b50565b806000806101000a81548173ffffffffffffffffffffffffffffffffffffffff021916908373ffffffffffffffffffffffffffffffffffffffff16021790555050565b600073ffffffffffffffffffffffffffffffffffffffff82169050919050565b60006101a182610176565b9050919050565b6101b181610196565b82525050565b60006020820190506101cc60008301846101a8565b92915050565b600080fd5b6101e081610196565b81146101eb57600080fd5b50565b6000813590506101fd816101d7565b92915050565b600060208284031215610219576102186101d2565b5b6000610227848285016101ee565b91505092915050565b600082825260208201905092915050565b7f4f4e4c595f474f5645524e414e43450000000000000000000000000000000000600082015250565b6000610277600f83610230565b915061028282610241565b602082019050919050565b600060208201905081810360008301526102a68161026a565b905091905056fea26469706673582212200de5cc09a96d32b3f8d4e99f0994ce0fb6d03d4877266708c2b016f5ed5074c064736f6c63430008090033",
  "linkReferences": {},
  "deployedLinkReferences": {}
}