{
  "_format": "hh-sol-artifact-1",
  "contractName": "CTokenRateMock",
  "sourceName": "contracts/mocks/oracles/compound/CTokenRateMock.sol",
  "abi": [
    {
      "inputs": [],
      "name": "borrowIndex",
      "outputs": [
        {
          "internalType": "uint256",
          "name": "",
          "type": "uint256"
        }
      ],
      "stateMutability": "view",
      "type": "function"
    },
    {
      "inputs": [
        {
          "internalType": "uint256",
          "name": "rate",
          "type": "uint256"
        }
      ],
      "name": "set",
      "outputs": [],
      "stateMutability": "nonpayable",
      "type": "function"
    }
  ],
  "bytecode": "0x608060405234801561001057600080fd5b5060c38061001f6000396000f3fe6080604052348015600f57600080fd5b506004361060325760003560e01c806360fe47b1146037578063aa5af0fd146048575b600080fd5b60466042366004606d565b6062565b005b604e6067565b604051605991906084565b60405180910390f35b600055565b60005481565b600060208284031215607d578081fd5b5035919050565b9081526020019056fea26469706673582212209f030944269fc6a4b4b36c29e4358ea2d15317b29b9abc4de494e08ffc74cf4064736f6c63430008010033",
  "linkReferences": {},
  "deployedLinkReferences": {}
}