{
  "_format": "hh-sol-artifact-1",
  "contractName": "PrizeDistributor",
  "sourceName": "@pooltogether/v4-core/contracts/PrizeDistributor.sol",
  "abi": [
    {
      "inputs": [
        {
          "internalType": "address",
          "name": "_owner",
          "type": "address"
        },
        {
          "internalType": "contract IERC20",
          "name": "_token",
          "type": "address"
        },
        {
          "internalType": "contract IDrawCalculator",
          "name": "_drawCalculator",
          "type": "address"
        }
      ],
      "stateMutability": "nonpayable",
      "type": "constructor"
    },
    {
      "anonymous": false,
      "inputs": [
        {
          "indexed": true,
          "internalType": "address",
          "name": "user",
          "type": "address"
        },
        {
          "indexed": true,
          "internalType": "uint32",
          "name": "drawId",
          "type": "uint32"
        },
        {
          "indexed": false,
          "internalType": "uint256",
          "name": "payout",
          "type": "uint256"
        }
      ],
      "name": "ClaimedDraw",
      "type": "event"
    },
    {
      "anonymous": false,
      "inputs": [
        {
          "indexed": true,
          "internalType": "contract IDrawCalculator",
          "name": "calculator",
          "type": "address"
        }
      ],
      "name": "DrawCalculatorSet",
      "type": "event"
    },
    {
      "anonymous": false,
      "inputs": [
        {
          "indexed": true,
          "internalType": "contract IERC20",
          "name": "token",
          "type": "address"
        },
        {
          "indexed": true,
          "internalType": "address",
          "name": "to",
          "type": "address"
        },
        {
          "indexed": false,
          "internalType": "uint256",
          "name": "amount",
          "type": "uint256"
        }
      ],
      "name": "ERC20Withdrawn",
      "type": "event"
    },
    {
      "anonymous": false,
      "inputs": [
        {
          "indexed": true,
          "internalType": "address",
          "name": "pendingOwner",
          "type": "address"
        }
      ],
      "name": "OwnershipOffered",
      "type": "event"
    },
    {
      "anonymous": false,
      "inputs": [
        {
          "indexed": true,
          "internalType": "address",
          "name": "previousOwner",
          "type": "address"
        },
        {
          "indexed": true,
          "internalType": "address",
          "name": "newOwner",
          "type": "address"
        }
      ],
      "name": "OwnershipTransferred",
      "type": "event"
    },
    {
      "anonymous": false,
      "inputs": [
        {
          "indexed": true,
          "internalType": "contract IERC20",
          "name": "token",
          "type": "address"
        }
      ],
      "name": "TokenSet",
      "type": "event"
    },
    {
      "inputs": [
        {
          "internalType": "address",
          "name": "_user",
          "type": "address"
        },
        {
          "internalType": "uint32[]",
          "name": "_drawIds",
          "type": "uint32[]"
        },
        {
          "internalType": "bytes",
          "name": "_data",
          "type": "bytes"
        }
      ],
      "name": "claim",
      "outputs": [
        {
          "internalType": "uint256",
          "name": "",
          "type": "uint256"
        }
      ],
      "stateMutability": "nonpayable",
      "type": "function"
    },
    {
      "inputs": [],
      "name": "claimOwnership",
      "outputs": [],
      "stateMutability": "nonpayable",
      "type": "function"
    },
    {
      "inputs": [],
      "name": "getDrawCalculator",
      "outputs": [
        {
          "internalType": "contract IDrawCalculator",
          "name": "",
          "type": "address"
        }
      ],
      "stateMutability": "view",
      "type": "function"
    },
    {
      "inputs": [
        {
          "internalType": "address",
          "name": "_user",
          "type": "address"
        },
        {
          "internalType": "uint32",
          "name": "_drawId",
          "type": "uint32"
        }
      ],
      "name": "getDrawPayoutBalanceOf",
      "outputs": [
        {
          "internalType": "uint256",
          "name": "",
          "type": "uint256"
        }
      ],
      "stateMutability": "view",
      "type": "function"
    },
    {
      "inputs": [],
      "name": "getToken",
      "outputs": [
        {
          "internalType": "contract IERC20",
          "name": "",
          "type": "address"
        }
      ],
      "stateMutability": "view",
      "type": "function"
    },
    {
      "inputs": [],
      "name": "owner",
      "outputs": [
        {
          "internalType": "address",
          "name": "",
          "type": "address"
        }
      ],
      "stateMutability": "view",
      "type": "function"
    },
    {
      "inputs": [],
      "name": "pendingOwner",
      "outputs": [
        {
          "internalType": "address",
          "name": "",
          "type": "address"
        }
      ],
      "stateMutability": "view",
      "type": "function"
    },
    {
      "inputs": [],
      "name": "renounceOwnership",
      "outputs": [],
      "stateMutability": "nonpayable",
      "type": "function"
    },
    {
      "inputs": [
        {
          "internalType": "contract IDrawCalculator",
          "name": "_newCalculator",
          "type": "address"
        }
      ],
      "name": "setDrawCalculator",
      "outputs": [
        {
          "internalType": "contract IDrawCalculator",
          "name": "",
          "type": "address"
        }
      ],
      "stateMutability": "nonpayable",
      "type": "function"
    },
    {
      "inputs": [
        {
          "internalType": "address",
          "name": "_newOwner",
          "type": "address"
        }
      ],
      "name": "transferOwnership",
      "outputs": [],
      "stateMutability": "nonpayable",
      "type": "function"
    },
    {
      "inputs": [
        {
          "internalType": "contract IERC20",
          "name": "_erc20Token",
          "type": "address"
        },
        {
          "internalType": "address",
          "name": "_to",
          "type": "address"
        },
        {
          "internalType": "uint256",
          "name": "_amount",
          "type": "uint256"
        }
      ],
      "name": "withdrawERC20",
      "outputs": [
        {
          "internalType": "bool",
          "name": "",
          "type": "bool"
        }
      ],
      "stateMutability": "nonpayable",
      "type": "function"
    }
  ],
  "bytecode": "0x60a06040523480156200001157600080fd5b506040516200130d3803806200130d8339810160408190526200003491620001f9565b82620000408162000107565b506200004c8162000157565b6001600160a01b038216620000b85760405162461bcd60e51b815260206004820152602760248201527f5072697a654469737472696275746f722f746f6b656e2d6e6f742d7a65726f2d6044820152666164647265737360c81b60648201526084015b60405180910390fd5b6001600160601b0319606083901b166080526040516001600160a01b038316907fa07c91c183e42229e705a9795a1c06d76528b673788b849597364528c96eefb790600090a250505062000266565b600080546001600160a01b038381166001600160a01b0319831681178455604051919092169283917f8be0079c531659141344cd1fd0a4f28419497f9722a3daafe3b4186f6b6457e09190a35050565b6001600160a01b038116620001af5760405162461bcd60e51b815260206004820152601e60248201527f5072697a654469737472696275746f722f63616c632d6e6f742d7a65726f00006044820152606401620000af565b600280546001600160a01b0319166001600160a01b0383169081179091556040517fff37eafdc3779d387d79dcf458fdc36536d857426f03a53204694f8fbb0d8a6b90600090a250565b6000806000606084860312156200020f57600080fd5b83516200021c816200024d565b60208501519093506200022f816200024d565b604085015190925062000242816200024d565b809150509250925092565b6001600160a01b03811681146200026357600080fd5b50565b60805160601c6110826200028b6000396000818160b001526108c801526110826000f3fe608060405234801561001057600080fd5b50600436106100a95760003560e01c8063715018a611610071578063715018a61461013e5780638da5cb5b14610146578063b7f892d114610157578063bb7d4e2d14610178578063e30c39781461018b578063f2fde38b1461019c57600080fd5b806321df0da7146100ae5780632d680cfa146100ed57806344004cc1146100fe578063454a8140146101215780634e71e0c814610134575b600080fd5b7f00000000000000000000000000000000000000000000000000000000000000005b6040516001600160a01b0390911681526020015b60405180910390f35b6002546001600160a01b03166100d0565b61011161010c366004610df8565b6101af565b60405190151581526020016100e4565b6100d061012f366004610bfe565b61032f565b61013c61037b565b005b61013c6103fc565b6000546001600160a01b03166100d0565b61016a610165366004610ccf565b610441565b6040519081526020016100e4565b61016a610186366004610c1b565b610470565b6001546001600160a01b03166100d0565b61013c6101aa366004610bfe565b61068d565b6000336101c46000546001600160a01b031690565b6001600160a01b0316146101f35760405162461bcd60e51b81526004016101ea90610f27565b60405180910390fd5b6001600160a01b03831661025d5760405162461bcd60e51b815260206004820152602b60248201527f5072697a654469737472696275746f722f726563697069656e742d6e6f742d7a60448201526a65726f2d6164647265737360a81b60648201526084016101ea565b6001600160a01b0384166102c35760405162461bcd60e51b815260206004820152602760248201527f5072697a654469737472696275746f722f45524332302d6e6f742d7a65726f2d6044820152666164647265737360c81b60648201526084016101ea565b6102d76001600160a01b0385168484610774565b826001600160a01b0316846001600160a01b03167fbfed55bdcd242e3dd0f60ddd7d1e87c67f61c34cd9527b3e6455d841b10253628460405161031c91815260200190565b60405180910390a35060015b9392505050565b6000336103446000546001600160a01b031690565b6001600160a01b03161461036a5760405162461bcd60e51b81526004016101ea90610f27565b610373826107cb565b50805b919050565b6001546001600160a01b031633146103d55760405162461bcd60e51b815260206004820152601f60248201527f4f776e61626c652f63616c6c65722d6e6f742d70656e64696e674f776e65720060448201526064016101ea565b6001546103ea906001600160a01b031661086b565b600180546001600160a01b0319169055565b3361040f6000546001600160a01b031690565b6001600160a01b0316146104355760405162461bcd60e51b81526004016101ea90610f27565b61043f600061086b565b565b6001600160a01b038216600090815260036020908152604080832063ffffffff85168452909152812054610328565b6002546040516355651c9760e11b8152600091829182916001600160a01b03169063aaca392e906104ad908b908b908b908b908b90600401610e70565b60006040518083038186803b1580156104c557600080fd5b505afa1580156104d9573d6000803e3d6000fd5b505050506040513d6000823e601f3d908101601f191682016040526105019190810190610d04565b50805190915060005b8181101561067557600089898381811061052657610526611008565b905060200201602081019061053b9190610e39565b9050600084838151811061055157610551611008565b6020908102919091018101516001600160a01b038e16600090815260038352604080822063ffffffff8716835290935291822054909250908183116105d85760405162461bcd60e51b815260206004820152601c60248201527f5072697a654469737472696275746f722f7a65726f2d7061796f75740000000060448201526064016101ea565b506001600160a01b038d16600090815260036020908152604080832063ffffffff8716845290915290208290558082036106128189610f8f565b97508363ffffffff168e6001600160a01b03167fda18d31fbb73ed04b84307ef1bc6602e02c855af9f65b53ed10ba43e8d35b7dd8360405161065691815260200190565b60405180910390a350505050808061066d90610fd7565b91505061050a565b5061068089846108bb565b5090979650505050505050565b336106a06000546001600160a01b031690565b6001600160a01b0316146106c65760405162461bcd60e51b81526004016101ea90610f27565b6001600160a01b03811661072a5760405162461bcd60e51b815260206004820152602560248201527f4f776e61626c652f70656e64696e674f776e65722d6e6f742d7a65726f2d6164604482015264647265737360d81b60648201526084016101ea565b600180546001600160a01b0319166001600160a01b0383169081179091556040517f239a2ddded15777fa246aed5f7e1a9bc69a39d4eb4a397034d1d85766cca7d4c90600090a250565b604080516001600160a01b038416602482015260448082018490528251808303909101815260649091019091526020810180516001600160e01b031663a9059cbb60e01b1790526107c69084906108f3565b505050565b6001600160a01b0381166108215760405162461bcd60e51b815260206004820152601e60248201527f5072697a654469737472696275746f722f63616c632d6e6f742d7a65726f000060448201526064016101ea565b600280546001600160a01b0319166001600160a01b0383169081179091556040517fff37eafdc3779d387d79dcf458fdc36536d857426f03a53204694f8fbb0d8a6b90600090a250565b600080546001600160a01b038381166001600160a01b0319831681178455604051919092169283917f8be0079c531659141344cd1fd0a4f28419497f9722a3daafe3b4186f6b6457e09190a35050565b6108ef6001600160a01b037f0000000000000000000000000000000000000000000000000000000000000000168383610774565b5050565b6000610948826040518060400160405280602081526020017f5361666545524332303a206c6f772d6c6576656c2063616c6c206661696c6564815250856001600160a01b03166109c59092919063ffffffff16565b8051909150156107c657808060200190518101906109669190610dd6565b6107c65760405162461bcd60e51b815260206004820152602a60248201527f5361666545524332303a204552433230206f7065726174696f6e20646964206e6044820152691bdd081cdd58d8d9595960b21b60648201526084016101ea565b60606109d484846000856109dc565b949350505050565b606082471015610a3d5760405162461bcd60e51b815260206004820152602660248201527f416464726573733a20696e73756666696369656e742062616c616e636520666f6044820152651c8818d85b1b60d21b60648201526084016101ea565b843b610a8b5760405162461bcd60e51b815260206004820152601d60248201527f416464726573733a2063616c6c20746f206e6f6e2d636f6e747261637400000060448201526064016101ea565b600080866001600160a01b03168587604051610aa79190610e54565b60006040518083038185875af1925050503d8060008114610ae4576040519150601f19603f3d011682016040523d82523d6000602084013e610ae9565b606091505b5091509150610af9828286610b04565b979650505050505050565b60608315610b13575081610328565b825115610b235782518084602001fd5b8160405162461bcd60e51b81526004016101ea9190610ef4565b60008083601f840112610b4f57600080fd5b50813567ffffffffffffffff811115610b6757600080fd5b602083019150836020828501011115610b7f57600080fd5b9250929050565b600082601f830112610b9757600080fd5b815167ffffffffffffffff811115610bb157610bb161101e565b610bc4601f8201601f1916602001610f5e565b818152846020838601011115610bd957600080fd5b6109d4826020830160208701610fa7565b803563ffffffff8116811461037657600080fd5b600060208284031215610c1057600080fd5b813561032881611034565b600080600080600060608688031215610c3357600080fd5b8535610c3e81611034565b9450602086013567ffffffffffffffff80821115610c5b57600080fd5b818801915088601f830112610c6f57600080fd5b813581811115610c7e57600080fd5b8960208260051b8501011115610c9357600080fd5b602083019650809550506040880135915080821115610cb157600080fd5b50610cbe88828901610b3d565b969995985093965092949392505050565b60008060408385031215610ce257600080fd5b8235610ced81611034565b9150610cfb60208401610bea565b90509250929050565b60008060408385031215610d1757600080fd5b825167ffffffffffffffff80821115610d2f57600080fd5b818501915085601f830112610d4357600080fd5b8151602082821115610d5757610d5761101e565b8160051b610d66828201610f5e565b8381528281019086840183880185018c1015610d8157600080fd5b600097505b85881015610da4578051835260019790970196918401918401610d86565b509289015192975091945050505080821115610dbf57600080fd5b50610dcc85828601610b86565b9150509250929050565b600060208284031215610de857600080fd5b8151801515811461032857600080fd5b600080600060608486031215610e0d57600080fd5b8335610e1881611034565b92506020840135610e2881611034565b929592945050506040919091013590565b600060208284031215610e4b57600080fd5b61032882610bea565b60008251610e66818460208701610fa7565b9190910192915050565b6001600160a01b038616815260606020808301829052908201859052600090869060808401835b88811015610ec05763ffffffff610ead85610bea565b1682529282019290820190600101610e97565b5084810360408601528581528587838301376000818701830152601f909501601f1916909401909301979650505050505050565b6020815260008251806020840152610f13816040850160208701610fa7565b601f01601f19169190910160400192915050565b60208082526018908201527f4f776e61626c652f63616c6c65722d6e6f742d6f776e65720000000000000000604082015260600190565b604051601f8201601f1916810167ffffffffffffffff81118282101715610f8757610f8761101e565b604052919050565b60008219821115610fa257610fa2610ff2565b500190565b60005b83811015610fc2578181015183820152602001610faa565b83811115610fd1576000848401525b50505050565b6000600019821415610feb57610feb610ff2565b5060010190565b634e487b7160e01b600052601160045260246000fd5b634e487b7160e01b600052603260045260246000fd5b634e487b7160e01b600052604160045260246000fd5b6001600160a01b038116811461104957600080fd5b5056fea2646970667358221220737e6b02dffc654be59383f2c6b04bf9eb5aebf9a92ac7ee040988706ee2ddd664736f6c63430008060033",
  "linkReferences": {},
  "deployedLinkReferences": {}
}