{
  "_format": "hh-sol-artifact-1",
  "contractName": "AddressProvider",
  "sourceName": "contracts/AddressProvider.sol",
  "abi": [
    {
      "inputs": [
        {
          "internalType": "address",
          "name": "treasury",
          "type": "address"
        }
      ],
      "stateMutability": "nonpayable",
      "type": "constructor"
    },
    {
      "anonymous": false,
      "inputs": [
        {
          "indexed": true,
          "internalType": "address",
          "name": "action",
          "type": "address"
        }
      ],
      "name": "ActionListed",
      "type": "event"
    },
    {
      "anonymous": false,
      "inputs": [
        {
          "indexed": true,
          "internalType": "bytes32",
          "name": "key",
          "type": "bytes32"
        },
        {
          "indexed": false,
          "internalType": "address",
          "name": "value",
          "type": "address"
        },
        {
          "indexed": false,
          "internalType": "uint256",
          "name": "delay",
          "type": "uint256"
        }
      ],
      "name": "ConfigPreparedAddress",
      "type": "event"
    },
    {
      "anonymous": false,
      "inputs": [
        {
          "indexed": true,
          "internalType": "bytes32",
          "name": "key",
          "type": "bytes32"
        },
        {
          "indexed": false,
          "internalType": "uint256",
          "name": "value",
          "type": "uint256"
        },
        {
          "indexed": false,
          "internalType": "uint256",
          "name": "delay",
          "type": "uint256"
        }
      ],
      "name": "ConfigPreparedNumber",
      "type": "event"
    },
    {
      "anonymous": false,
      "inputs": [
        {
          "indexed": true,
          "internalType": "bytes32",
          "name": "key",
          "type": "bytes32"
        }
      ],
      "name": "ConfigReset",
      "type": "event"
    },
    {
      "anonymous": false,
      "inputs": [
        {
          "indexed": true,
          "internalType": "bytes32",
          "name": "key",
          "type": "bytes32"
        },
        {
          "indexed": false,
          "internalType": "address",
          "name": "oldValue",
          "type": "address"
        },
        {
          "indexed": false,
          "internalType": "address",
          "name": "newValue",
          "type": "address"
        }
      ],
      "name": "ConfigUpdatedAddress",
      "type": "event"
    },
    {
      "anonymous": false,
      "inputs": [
        {
          "indexed": true,
          "internalType": "bytes32",
          "name": "key",
          "type": "bytes32"
        },
        {
          "indexed": false,
          "internalType": "uint256",
          "name": "oldValue",
          "type": "uint256"
        },
        {
          "indexed": false,
          "internalType": "uint256",
          "name": "newValue",
          "type": "uint256"
        }
      ],
      "name": "ConfigUpdatedNumber",
      "type": "event"
    },
    {
      "anonymous": false,
      "inputs": [
        {
          "indexed": true,
          "internalType": "bytes32",
          "name": "key",
          "type": "bytes32"
        }
      ],
      "name": "KnownAddressKeyAdded",
      "type": "event"
    },
    {
      "anonymous": false,
      "inputs": [
        {
          "indexed": true,
          "internalType": "address",
          "name": "pool",
          "type": "address"
        }
      ],
      "name": "PoolDelisted",
      "type": "event"
    },
    {
      "anonymous": false,
      "inputs": [
        {
          "indexed": true,
          "internalType": "address",
          "name": "pool",
          "type": "address"
        }
      ],
      "name": "PoolListed",
      "type": "event"
    },
    {
      "anonymous": false,
      "inputs": [
        {
          "indexed": true,
          "internalType": "address",
          "name": "stakerVault",
          "type": "address"
        }
      ],
      "name": "StakerVaultDelisted",
      "type": "event"
    },
    {
      "anonymous": false,
      "inputs": [
        {
          "indexed": true,
          "internalType": "address",
          "name": "stakerVault",
          "type": "address"
        }
      ],
      "name": "StakerVaultListed",
      "type": "event"
    },
    {
      "anonymous": false,
      "inputs": [
        {
          "indexed": true,
          "internalType": "address",
          "name": "previousVault",
          "type": "address"
        },
        {
          "indexed": true,
          "internalType": "address",
          "name": "newVault",
          "type": "address"
        }
      ],
      "name": "VaultUpdated",
      "type": "event"
    },
    {
      "inputs": [
        {
          "internalType": "address",
          "name": "action",
          "type": "address"
        }
      ],
      "name": "addAction",
      "outputs": [
        {
          "internalType": "bool",
          "name": "",
          "type": "bool"
        }
      ],
      "stateMutability": "nonpayable",
      "type": "function"
    },
    {
      "inputs": [
        {
          "internalType": "address",
          "name": "feeHandler",
          "type": "address"
        }
      ],
      "name": "addFeeHandler",
      "outputs": [
        {
          "internalType": "bool",
          "name": "",
          "type": "bool"
        }
      ],
      "stateMutability": "nonpayable",
      "type": "function"
    },
    {
      "inputs": [
        {
          "internalType": "address",
          "name": "pool",
          "type": "address"
        }
      ],
      "name": "addPool",
      "outputs": [],
      "stateMutability": "nonpayable",
      "type": "function"
    },
    {
      "inputs": [
        {
          "internalType": "address",
          "name": "stakerVault",
          "type": "address"
        }
      ],
      "name": "addStakerVault",
      "outputs": [
        {
          "internalType": "bool",
          "name": "",
          "type": "bool"
        }
      ],
      "stateMutability": "nonpayable",
      "type": "function"
    },
    {
      "inputs": [],
      "name": "allActions",
      "outputs": [
        {
          "internalType": "address[]",
          "name": "",
          "type": "address[]"
        }
      ],
      "stateMutability": "view",
      "type": "function"
    },
    {
      "inputs": [],
      "name": "allPools",
      "outputs": [
        {
          "internalType": "address[]",
          "name": "",
          "type": "address[]"
        }
      ],
      "stateMutability": "view",
      "type": "function"
    },
    {
      "inputs": [],
      "name": "allStakerVaults",
      "outputs": [
        {
          "internalType": "address[]",
          "name": "",
          "type": "address[]"
        }
      ],
      "stateMutability": "view",
      "type": "function"
    },
    {
      "inputs": [],
      "name": "allVaults",
      "outputs": [
        {
          "internalType": "address[]",
          "name": "",
          "type": "address[]"
        }
      ],
      "stateMutability": "view",
      "type": "function"
    },
    {
      "inputs": [
        {
          "internalType": "bytes32",
          "name": "",
          "type": "bytes32"
        }
      ],
      "name": "currentAddresses",
      "outputs": [
        {
          "internalType": "address",
          "name": "",
          "type": "address"
        }
      ],
      "stateMutability": "view",
      "type": "function"
    },
    {
      "inputs": [
        {
          "internalType": "bytes32",
          "name": "",
          "type": "bytes32"
        }
      ],
      "name": "currentUInts256",
      "outputs": [
        {
          "internalType": "uint256",
          "name": "",
          "type": "uint256"
        }
      ],
      "stateMutability": "view",
      "type": "function"
    },
    {
      "inputs": [
        {
          "internalType": "bytes32",
          "name": "",
          "type": "bytes32"
        }
      ],
      "name": "deadlines",
      "outputs": [
        {
          "internalType": "uint256",
          "name": "",
          "type": "uint256"
        }
      ],
      "stateMutability": "view",
      "type": "function"
    },
    {
      "inputs": [
        {
          "internalType": "bytes32",
          "name": "key",
          "type": "bytes32"
        }
      ],
      "name": "executeAddress",
      "outputs": [
        {
          "internalType": "address",
          "name": "",
          "type": "address"
        }
      ],
      "stateMutability": "nonpayable",
      "type": "function"
    },
    {
      "inputs": [
        {
          "internalType": "bytes32",
          "name": "key",
          "type": "bytes32"
        }
      ],
      "name": "freezeAddress",
      "outputs": [],
      "stateMutability": "nonpayable",
      "type": "function"
    },
    {
      "inputs": [
        {
          "internalType": "bytes32",
          "name": "key",
          "type": "bytes32"
        }
      ],
      "name": "getAddress",
      "outputs": [
        {
          "internalType": "address",
          "name": "",
          "type": "address"
        }
      ],
      "stateMutability": "view",
      "type": "function"
    },
    {
      "inputs": [
        {
          "internalType": "bytes32",
          "name": "key",
          "type": "bytes32"
        },
        {
          "internalType": "bool",
          "name": "checkExists",
          "type": "bool"
        }
      ],
      "name": "getAddress",
      "outputs": [
        {
          "internalType": "address",
          "name": "",
          "type": "address"
        }
      ],
      "stateMutability": "view",
      "type": "function"
    },
    {
      "inputs": [
        {
          "internalType": "bytes32",
          "name": "key",
          "type": "bytes32"
        }
      ],
      "name": "getAddressMeta",
      "outputs": [
        {
          "components": [
            {
              "internalType": "bool",
              "name": "freezable",
              "type": "bool"
            },
            {
              "internalType": "bool",
              "name": "frozen",
              "type": "bool"
            }
          ],
          "internalType": "struct AddressProviderMeta.Meta",
          "name": "",
          "type": "tuple"
        }
      ],
      "stateMutability": "view",
      "type": "function"
    },
    {
      "inputs": [],
      "name": "getKnownAddressKeys",
      "outputs": [
        {
          "internalType": "bytes32[]",
          "name": "",
          "type": "bytes32[]"
        }
      ],
      "stateMutability": "view",
      "type": "function"
    },
    {
      "inputs": [
        {
          "internalType": "uint256",
          "name": "index",
          "type": "uint256"
        }
      ],
      "name": "getPoolAtIndex",
      "outputs": [
        {
          "internalType": "address",
          "name": "",
          "type": "address"
        }
      ],
      "stateMutability": "view",
      "type": "function"
    },
    {
      "inputs": [
        {
          "internalType": "address",
          "name": "token",
          "type": "address"
        }
      ],
      "name": "getPoolForToken",
      "outputs": [
        {
          "internalType": "contract ILiquidityPool",
          "name": "",
          "type": "address"
        }
      ],
      "stateMutability": "view",
      "type": "function"
    },
    {
      "inputs": [
        {
          "internalType": "address",
          "name": "token",
          "type": "address"
        }
      ],
      "name": "getStakerVault",
      "outputs": [
        {
          "internalType": "address",
          "name": "",
          "type": "address"
        }
      ],
      "stateMutability": "view",
      "type": "function"
    },
    {
      "inputs": [
        {
          "internalType": "uint256",
          "name": "index",
          "type": "uint256"
        }
      ],
      "name": "getVaultAtIndex",
      "outputs": [
        {
          "internalType": "address",
          "name": "",
          "type": "address"
        }
      ],
      "stateMutability": "view",
      "type": "function"
    },
    {
      "inputs": [
        {
          "internalType": "address",
          "name": "roleManager",
          "type": "address"
        }
      ],
      "name": "initialize",
      "outputs": [],
      "stateMutability": "nonpayable",
      "type": "function"
    },
    {
      "inputs": [
        {
          "internalType": "bytes32",
          "name": "key",
          "type": "bytes32"
        },
        {
          "internalType": "address",
          "name": "initialAddress",
          "type": "address"
        },
        {
          "internalType": "bool",
          "name": "freezable",
          "type": "bool"
        }
      ],
      "name": "initializeAddress",
      "outputs": [],
      "stateMutability": "nonpayable",
      "type": "function"
    },
    {
      "inputs": [
        {
          "internalType": "bytes32",
          "name": "key",
          "type": "bytes32"
        },
        {
          "internalType": "address",
          "name": "initialAddress",
          "type": "address"
        }
      ],
      "name": "initializeAddress",
      "outputs": [],
      "stateMutability": "nonpayable",
      "type": "function"
    },
    {
      "inputs": [
        {
          "internalType": "bytes32",
          "name": "key",
          "type": "bytes32"
        },
        {
          "internalType": "address",
          "name": "initialAddress",
          "type": "address"
        }
      ],
      "name": "initializeAndFreezeAddress",
      "outputs": [],
      "stateMutability": "nonpayable",
      "type": "function"
    },
    {
      "inputs": [
        {
          "internalType": "address",
          "name": "action",
          "type": "address"
        }
      ],
      "name": "isAction",
      "outputs": [
        {
          "internalType": "bool",
          "name": "",
          "type": "bool"
        }
      ],
      "stateMutability": "view",
      "type": "function"
    },
    {
      "inputs": [
        {
          "internalType": "address",
          "name": "pool",
          "type": "address"
        }
      ],
      "name": "isPool",
      "outputs": [
        {
          "internalType": "bool",
          "name": "",
          "type": "bool"
        }
      ],
      "stateMutability": "view",
      "type": "function"
    },
    {
      "inputs": [
        {
          "internalType": "address",
          "name": "stakerVault",
          "type": "address"
        },
        {
          "internalType": "address",
          "name": "token",
          "type": "address"
        }
      ],
      "name": "isStakerVault",
      "outputs": [
        {
          "internalType": "bool",
          "name": "",
          "type": "bool"
        }
      ],
      "stateMutability": "view",
      "type": "function"
    },
    {
      "inputs": [
        {
          "internalType": "address",
          "name": "stakerVault",
          "type": "address"
        }
      ],
      "name": "isStakerVaultRegistered",
      "outputs": [
        {
          "internalType": "bool",
          "name": "",
          "type": "bool"
        }
      ],
      "stateMutability": "view",
      "type": "function"
    },
    {
      "inputs": [
        {
          "internalType": "address",
          "name": "vault",
          "type": "address"
        }
      ],
      "name": "isVault",
      "outputs": [
        {
          "internalType": "bool",
          "name": "",
          "type": "bool"
        }
      ],
      "stateMutability": "view",
      "type": "function"
    },
    {
      "inputs": [
        {
          "internalType": "address",
          "name": "feeHandler",
          "type": "address"
        }
      ],
      "name": "isWhiteListedFeeHandler",
      "outputs": [
        {
          "internalType": "bool",
          "name": "",
          "type": "bool"
        }
      ],
      "stateMutability": "view",
      "type": "function"
    },
    {
      "inputs": [
        {
          "internalType": "bytes32",
          "name": "",
          "type": "bytes32"
        }
      ],
      "name": "pendingAddresses",
      "outputs": [
        {
          "internalType": "address",
          "name": "",
          "type": "address"
        }
      ],
      "stateMutability": "view",
      "type": "function"
    },
    {
      "inputs": [
        {
          "internalType": "bytes32",
          "name": "",
          "type": "bytes32"
        }
      ],
      "name": "pendingUInts256",
      "outputs": [
        {
          "internalType": "uint256",
          "name": "",
          "type": "uint256"
        }
      ],
      "stateMutability": "view",
      "type": "function"
    },
    {
      "inputs": [],
      "name": "poolsCount",
      "outputs": [
        {
          "internalType": "uint256",
          "name": "",
          "type": "uint256"
        }
      ],
      "stateMutability": "view",
      "type": "function"
    },
    {
      "inputs": [
        {
          "internalType": "bytes32",
          "name": "key",
          "type": "bytes32"
        },
        {
          "internalType": "address",
          "name": "newAddress",
          "type": "address"
        }
      ],
      "name": "prepareAddress",
      "outputs": [
        {
          "internalType": "bool",
          "name": "",
          "type": "bool"
        }
      ],
      "stateMutability": "nonpayable",
      "type": "function"
    },
    {
      "inputs": [
        {
          "internalType": "address",
          "name": "feeHandler",
          "type": "address"
        }
      ],
      "name": "removeFeeHandler",
      "outputs": [
        {
          "internalType": "bool",
          "name": "",
          "type": "bool"
        }
      ],
      "stateMutability": "nonpayable",
      "type": "function"
    },
    {
      "inputs": [
        {
          "internalType": "address",
          "name": "pool",
          "type": "address"
        }
      ],
      "name": "removePool",
      "outputs": [
        {
          "internalType": "bool",
          "name": "",
          "type": "bool"
        }
      ],
      "stateMutability": "nonpayable",
      "type": "function"
    },
    {
      "inputs": [
        {
          "internalType": "bytes32",
          "name": "key",
          "type": "bytes32"
        }
      ],
      "name": "resetAddress",
      "outputs": [
        {
          "internalType": "bool",
          "name": "",
          "type": "bool"
        }
      ],
      "stateMutability": "nonpayable",
      "type": "function"
    },
    {
      "inputs": [],
      "name": "roleManager",
      "outputs": [
        {
          "internalType": "contract IRoleManager",
          "name": "",
          "type": "address"
        }
      ],
      "stateMutability": "view",
      "type": "function"
    },
    {
      "inputs": [
        {
          "internalType": "address",
          "name": "token",
          "type": "address"
        }
      ],
      "name": "safeGetPoolForToken",
      "outputs": [
        {
          "internalType": "address",
          "name": "",
          "type": "address"
        }
      ],
      "stateMutability": "view",
      "type": "function"
    },
    {
      "inputs": [
        {
          "internalType": "address",
          "name": "token",
          "type": "address"
        }
      ],
      "name": "tryGetStakerVault",
      "outputs": [
        {
          "internalType": "bool",
          "name": "",
          "type": "bool"
        },
        {
          "internalType": "address",
          "name": "",
          "type": "address"
        }
      ],
      "stateMutability": "view",
      "type": "function"
    },
    {
      "inputs": [
        {
          "internalType": "address",
          "name": "previousVault",
          "type": "address"
        },
        {
          "internalType": "address",
          "name": "newVault",
          "type": "address"
        }
      ],
      "name": "updateVault",
      "outputs": [],
      "stateMutability": "nonpayable",
      "type": "function"
    },
    {
      "inputs": [],
      "name": "vaultsCount",
      "outputs": [
        {
          "internalType": "uint256",
          "name": "",
          "type": "uint256"
        }
      ],
      "stateMutability": "view",
      "type": "function"
    }
  ],
  "bytecode": "0x60806040523480156200001157600080fd5b5060405162002ea938038062002ea9833981016040819052620000349162000228565b600060405180604001604052806001151581526020016000151581525090506200009067747265617375727960c01b6200007983620000b160201b62001e1e1760201c565b600b620000ef60201b62001e58179092919060201c565b50620000a867747265617375727960c01b8362000106565b50505062000253565b6000808260000151620000c6576000620000c9565b60015b60ff16811790508260200151620000e2576000620000e5565b60025b60ff161792915050565b6000620000fe84848462000194565b949350505050565b600082815260036020908152604080832080546001600160a01b03198082166001600160a01b03888116918217909455600186528487208054909216909155600585528386208690558351929091168083529382015285917fc4a957706c639829ad54381b04930c464db6c7ffdc09d2b4b1acc9ee34fb9261910160405180910390a2829150505b92915050565b600082815260028401602090815260408220839055620000fe908590859062001e65620001c1821b17901c565b6000620001cf8383620001d6565b9392505050565b60008181526001830160205260408120546200021f575081546001818101845560008481526020808220909301849055845484825282860190935260409020919091556200018e565b5060006200018e565b6000602082840312156200023b57600080fd5b81516001600160a01b0381168114620001cf57600080fd5b612c4680620002636000396000f3fe608060405234801561001057600080fd5b50600436106102685760003560e01c806372409ab411610151578063c1d84e0b116100c3578063e3976edf11610087578063e3976edf14610590578063e6dc9e2b146105b9578063e76e75d4146105cc578063ec8a0f20146105df578063f76c3399146105f2578063f7a818bc1461061b57600080fd5b8063c1d84e0b1461053c578063c4d66de81461054f578063c5c63e6514610562578063d2f31c391461056a578063d914cd4b1461057d57600080fd5b8063889777381161011557806388977738146104d35780638a326546146104db5780638c788de0146104ee578063a3823335146104f6578063aff1b7e414610509578063b7016bf61461052957600080fd5b806372409ab41461045e57806375a8012b14610471578063784503981461047957806379c27a73146104ab5780637f52d894146104c057600080fd5b8063255bfbcc116101ea5780635b16ebb7116101ae5780635b16ebb7146103d85780635d138a34146103eb578063622e68cb146103f3578063652b9b4114610406578063682da3f8146104195780636b3d334d1461042c57600080fd5b8063255bfbcc1461036c578063346a4a511461037f57806339e7bcb91461039f5780633b7d0946146103b257806359eadeb0146103c557600080fd5b806315dbfe621161023157806315dbfe62146102e25780631b451d281461031057806321f8a7211461032357806323b9da8214610336578063250b7ba51461035957600080fd5b8062435da51461026d578063063effeb146102925780630ce44e3a146102a75780631010b58c146102ba578063115129b5146102cd575b600080fd5b61027561062e565b6040516001600160a01b0390911681526020015b60405180910390f35b61029a61063d565b60405161028991906128cd565b6102756102b536600461291a565b610649565b6102756102c836600461291a565b61065c565b6102e06102db36600461294b565b610669565b005b6103026102f036600461291a565b60026020526000908152604090205481565b604051908152602001610289565b6102e061031e36600461297b565b61076d565b61027561033136600461291a565b6108bd565b6103496103443660046129a9565b610934565b6040519015158152602001610289565b61034961036736600461291a565b610a5c565b61027561037a3660046129a9565b610b3e565b61030261038d36600461291a565b60056020526000908152604090205481565b6103496103ad3660046129a9565b610ba2565b6103496103c03660046129a9565b610c29565b6102756103d33660046129a9565b610e5d565b6103496103e63660046129a9565b610e6a565b61029a610f19565b6103496104013660046129a9565b610f25565b6103496104143660046129a9565b610f32565b6103496104273660046129a9565b610f3f565b61043f61043a3660046129a9565b61108d565b6040805192151583526001600160a01b03909116602083015201610289565b6102e061046c3660046129d4565b6110a4565b61029a6111a2565b61048c61048736600461291a565b6111ae565b6040805182511515815260209283015115159281019290925201610289565b6104b3611257565b6040516102899190612a16565b6103496104ce3660046129a9565b611263565b610302611270565b6102e06104e936600461294b565b61127c565b61030261128c565b61027561050436600461291a565b611298565b61030261051736600461291a565b60046020526000908152604090205481565b61034961053736600461297b565b6112fe565b61034961054a3660046129a9565b611337565b6102e061055d3660046129a9565b61156e565b61029a61167a565b6103496105783660046129a9565b611686565b6102e061058b3660046129a9565b6117ca565b61027561059e36600461291a565b6001602052600090815260409020546001600160a01b031681565b6102756105c7366004612a4e565b611ac2565b6102e06105da36600461291a565b611b42565b6103496105ed36600461294b565b611cd1565b61027561060036600461291a565b6003602052600090815260409020546001600160a01b031681565b6102756106293660046129a9565b611e10565b6000610638611e71565b905090565b60606106386010611e8a565b6000610656601083611f31565b92915050565b6000610656601283611f3d565b610671611e71565b604051632474521560e21b815269676f7665726e616e636560b01b60048201523360248201526001600160a01b0391909116906391d148549060440160206040518083038186803b1580156106c557600080fd5b505afa1580156106d9573d6000803e3d6000fd5b505050506040513d601f19601f820116820180604052508101906106fd9190612a73565b604051806040016040528060138152602001600080516020612bd0833981519152815250906107485760405162461bcd60e51b815260040161073f9190612a90565b60405180910390fd5b506040805180820190915260018082526020820152610768838383611f4a565b505050565b631c1bdbdb60e21b61077d611e71565b604051632474521560e21b8152600481018390523360248201526001600160a01b0391909116906391d148549060440160206040518083038186803b1580156107c557600080fd5b505afa1580156107d9573d6000803e3d6000fd5b505050506040513d601f19601f820116820180604052508101906107fd9190612a73565b604051806040016040528060138152602001600080516020612bd08339815191528152509061083f5760405162461bcd60e51b815260040161073f9190612a90565b506001600160a01b0383161561085c5761085a601084611fb2565b505b6001600160a01b0382161561087857610876601083611fc7565b505b816001600160a01b0316836001600160a01b03167f483bdedaaf23706a9800ac1af0d852b34927780d79f9d6ba60a80c7cad75ea3960405160405180910390a3505050565b60006108ca600b83611fdc565b604051806040016040528060168152602001751859191c995cdcc8191bd95cc81b9bdd08195e1a5cdd60521b815250906109175760405162461bcd60e51b815260040161073f9190612a90565b50506000908152600360205260409020546001600160a01b031690565b600061093e611e71565b604051632474521560e21b815269676f7665726e616e636560b01b60048201523360248201526001600160a01b0391909116906391d148549060440160206040518083038186803b15801561099257600080fd5b505afa1580156109a6573d6000803e3d6000fd5b505050506040513d601f19601f820116820180604052508101906109ca9190612a73565b604051806040016040528060138152602001600080516020612bd083398151915281525090610a0c5760405162461bcd60e51b815260040161073f9190612a90565b506000610a1a600e84611fc7565b90508015610656576040516001600160a01b038416907f94bf98b0e859f6cd82a6c9e869a41f9a081cd22b48924e50ae880fff57eed8e590600090a292915050565b6000610a66611e71565b604051632474521560e21b815269676f7665726e616e636560b01b60048201523360248201526001600160a01b0391909116906391d148549060440160206040518083038186803b158015610aba57600080fd5b505afa158015610ace573d6000803e3d6000fd5b505050506040513d601f19601f82011682018060405250810190610af29190612a73565b604051806040016040528060138152602001600080516020612bd083398151915281525090610b345760405162461bcd60e51b815260040161073f9190612a90565b5061065682611fe8565b60008080610b4d60128561209a565b9150915081604051806040016040528060118152602001701859191c995cdcc81b9bdd08199bdd5b99607a1b81525090610b9a5760405162461bcd60e51b815260040161073f9190612a90565b509392505050565b600080826001600160a01b03166321df0da76040518163ffffffff1660e01b815260040160206040518083038186803b158015610bde57600080fd5b505afa158015610bf2573d6000803e3d6000fd5b505050506040513d601f19601f82011682018060405250810190610c169190612ae5565b9050610c2283826112fe565b9392505050565b60006931b7b73a3937b63632b960b11b610c41611e71565b604051632474521560e21b8152600481018390523360248201526001600160a01b0391909116906391d148549060440160206040518083038186803b158015610c8957600080fd5b505afa158015610c9d573d6000803e3d6000fd5b505050506040513d601f19601f82011682018060405250810190610cc19190612a73565b604051806040016040528060138152602001600080516020612bd083398151915281525090610d035760405162461bcd60e51b815260040161073f9190612a90565b506000836001600160a01b0316638214f5a46040518163ffffffff1660e01b815260040160206040518083038186803b158015610d3f57600080fd5b505afa158015610d53573d6000803e3d6000fd5b505050506040513d601f19601f82011682018060405250810190610d779190612ae5565b90506000610d866012836120c1565b90508015610e55576000856001600160a01b0316638d928af86040518163ffffffff1660e01b815260040160206040518083038186803b158015610dc957600080fd5b505afa158015610ddd573d6000803e3d6000fd5b505050506040513d601f19601f82011682018060405250810190610e019190612ae5565b90506001600160a01b03811615610e1f57610e1d601082611fb2565b505b6040516001600160a01b038716907fb9e2d8ce3b465127d3242c33b980deaf0fc9be45564857347057829d543e115490600090a2505b949350505050565b60006106566006836120d6565b600080826001600160a01b0316638214f5a46040518163ffffffff1660e01b815260040160206040518083038186803b158015610ea657600080fd5b505afa158015610eba573d6000803e3d6000fd5b505050506040513d601f19601f82011682018060405250810190610ede9190612ae5565b9050600080610eee60128461209a565b91509150818015610f105750806001600160a01b0316856001600160a01b0316145b95945050505050565b6060610638600e611e8a565b6000610656600e836120eb565b60006106566010836120eb565b6000610f49611e71565b604051632474521560e21b815269676f7665726e616e636560b01b60048201523360248201526001600160a01b0391909116906391d148549060440160206040518083038186803b158015610f9d57600080fd5b505afa158015610fb1573d6000803e3d6000fd5b505050506040513d601f19601f82011682018060405250810190610fd59190612a73565b604051806040016040528060138152602001600080516020612bd0833981519152815250906110175760405162461bcd60e51b815260040161073f9190612a90565b506110236009836120eb565b156040518060400160405280601b81526020017f6164647265737320616c72656164792077686974656c69737465640000000000815250906110785760405162461bcd60e51b815260040161073f9190612a90565b50611084600983611fc7565b50600192915050565b60008061109b60068461209a565b91509150915091565b6110ac611e71565b604051632474521560e21b815269676f7665726e616e636560b01b60048201523360248201526001600160a01b0391909116906391d148549060440160206040518083038186803b15801561110057600080fd5b505afa158015611114573d6000803e3d6000fd5b505050506040513d601f19601f820116820180604052508101906111389190612a73565b604051806040016040528060138152602001600080516020612bd08339815191528152509061117a5760405162461bcd60e51b815260040161073f9190612a90565b506040805180820190915281151581526000602082015261119c848483611f4a565b50505050565b6060610638600661210d565b60408051808201909152600080825260208201526000806111d0600b856121b4565b9150915081604051806040016040528060168152602001751859191c995cdcc8191bd95cc81b9bdd08195e1a5cdd60521b815250906112225760405162461bcd60e51b815260040161073f9190612a90565b506040805180820182526000808252602091820152815180830190925260018084168114835283811c81161490820152610e55565b6060610638600b6121c3565b60006106566009836120eb565b6000610638601061225d565b611288828260006110a4565b5050565b60006106386012612267565b6000806112a4836111ae565b90508060200151156040518060400160405280601181526020017030b2323932b9b99034b990333937bd32b760791b815250906112f45760405162461bcd60e51b815260040161073f9190612a90565b50610c2283612272565b6000808061130d60068561209a565b91509150818015610f105750846001600160a01b0316816001600160a01b03161495945050505050565b60006931b7b73a3937b63632b960b11b61134f611e71565b604051632474521560e21b8152600481018390523360248201526001600160a01b0391909116906391d148549060440160206040518083038186803b15801561139757600080fd5b505afa1580156113ab573d6000803e3d6000fd5b505050506040513d601f19601f820116820180604052508101906113cf9190612a73565b604051806040016040528060138152602001600080516020612bd0833981519152815250906114115760405162461bcd60e51b815260040161073f9190612a90565b506000836001600160a01b03166321df0da76040518163ffffffff1660e01b815260040160206040518083038186803b15801561144d57600080fd5b505afa158015611461573d6000803e3d6000fd5b505050506040513d601f19601f820116820180604052508101906114859190612ae5565b6040805180820190915260188152771e995c9bc81859191c995cdcc81b9bdd08185b1b1bddd95960421b60208201529091506001600160a01b0382166114de5760405162461bcd60e51b815260040161073f9190612a90565b506114ea6006826122a6565b156040518060600160405280602b8152602001612ba5602b9139906115225760405162461bcd60e51b815260040161073f9190612a90565b5061152f600682866122bb565b506040516001600160a01b038516907f90155492be7a3762b22fb2ab49dc404aeed6cbb42373e85859eba75f6d1ce7de90600090a25060019392505050565b600054610100900460ff166115895760005460ff161561158d565b303b155b6115f05760405162461bcd60e51b815260206004820152602e60248201527f496e697469616c697a61626c653a20636f6e747261637420697320616c72656160448201526d191e481a5b9a5d1a585b1a5e995960921b606482015260840161073f565b600054610100900460ff16158015611612576000805461ffff19166101011790555b604080518082019091526001808252602082015261164a6a3937b632a6b0b730b3b2b960a91b61164183611e1e565b600b9190611e58565b506116636a3937b632a6b0b730b3b2b960a91b846122d4565b50508015611288576000805461ff00191690555050565b6060610638601261210d565b6000611690611e71565b604051632474521560e21b815269676f7665726e616e636560b01b60048201523360248201526001600160a01b0391909116906391d148549060440160206040518083038186803b1580156116e457600080fd5b505afa1580156116f8573d6000803e3d6000fd5b505050506040513d601f19601f8201168201806040525081019061171c9190612a73565b604051806040016040528060138152602001600080516020612bd08339815191528152509061175e5760405162461bcd60e51b815260040161073f9190612a90565b5061176a6009836120eb565b6040518060400160405280601781526020017f61646472657373206e6f742077686974656c6973746564000000000000000000815250906117be5760405162461bcd60e51b815260040161073f9190612a90565b50611084600983611fb2565b6b706f6f6c5f666163746f727960a01b69676f7665726e616e636560b01b6117f0611e71565b604051636bab521160e11b815260048101849052602481018390523360448201526001600160a01b03919091169063d756a4229060640160206040518083038186803b15801561183f57600080fd5b505afa158015611853573d6000803e3d6000fd5b505050506040513d601f19601f820116820180604052508101906118779190612a73565b604051806040016040528060138152602001600080516020612bd0833981519152815250906118b95760405162461bcd60e51b815260040161073f9190612a90565b506040805180820190915260188152771e995c9bc81859191c995cdcc81b9bdd08185b1b1bddd95960421b60208201526001600160a01b0384166119105760405162461bcd60e51b815260040161073f9190612a90565b5060008390506000816001600160a01b0316638214f5a46040518163ffffffff1660e01b815260040160206040518083038186803b15801561195157600080fd5b505afa158015611965573d6000803e3d6000fd5b505050506040513d601f19601f820116820180604052508101906119899190612ae5565b6040805180820190915260188152771e995c9bc81859191c995cdcc81b9bdd08185b1b1bddd95960421b60208201529091506001600160a01b0382166119e25760405162461bcd60e51b815260040161073f9190612a90565b506119ef601282876122bb565b15611abb576000826001600160a01b0316638d928af86040518163ffffffff1660e01b815260040160206040518083038186803b158015611a2f57600080fd5b505afa158015611a43573d6000803e3d6000fd5b505050506040513d601f19601f82011682018060405250810190611a679190612ae5565b90506001600160a01b03811615611a8557611a83601082611fc7565b505b6040516001600160a01b038716907fb6c7def82cf7e1ea091f2be573ceccf2fc51d7a7cf49b7e8575a477d72ca442390600090a2505b5050505050565b6000811580611ad75750611ad7600b84611fdc565b604051806040016040528060168152602001751859191c995cdcc8191bd95cc81b9bdd08195e1a5cdd60521b81525090611b245760405162461bcd60e51b815260040161073f9190612a90565b5050506000908152600360205260409020546001600160a01b031690565b611b4a611e71565b604051632474521560e21b815269676f7665726e616e636560b01b60048201523360248201526001600160a01b0391909116906391d148549060440160206040518083038186803b158015611b9e57600080fd5b505afa158015611bb2573d6000803e3d6000fd5b505050506040513d601f19601f82011682018060405250810190611bd69190612a73565b604051806040016040528060138152602001600080516020612bd083398151915281525090611c185760405162461bcd60e51b815260040161073f9190612a90565b506000611c24826111ae565b90508060200151156040518060400160405280601181526020017030b2323932b9b99034b990333937bd32b760791b81525090611c745760405162461bcd60e51b815260040161073f9190612a90565b50805160408051808201909152601081526f1a5b9d985b1a5908185c99dd5b595b9d60821b602082015290611cbc5760405162461bcd60e51b815260040161073f9190612a90565b50600160208201526107688261164183611e1e565b6000611cdb611e71565b604051632474521560e21b815269676f7665726e616e636560b01b60048201523360248201526001600160a01b0391909116906391d148549060440160206040518083038186803b158015611d2f57600080fd5b505afa158015611d43573d6000803e3d6000fd5b505050506040513d601f19601f82011682018060405250810190611d679190612a73565b604051806040016040528060138152602001600080516020612bd083398151915281525090611da95760405162461bcd60e51b815260040161073f9190612a90565b506000611db5846111ae565b90508060200151156040518060400160405280601181526020017030b2323932b9b99034b990333937bd32b760791b81525090611e055760405162461bcd60e51b815260040161073f9190612a90565b50610e55848461235f565b600080610e5560128461209a565b6000808260000151611e31576000611e34565b60015b60ff16811790508260200151611e4b576000611e4e565b60025b60ff161792915050565b6000610e5584848461236f565b6000610c22838361238c565b60006106386a3937b632a6b0b730b3b2b960a91b6108bd565b60606000611e978361225d565b905060008167ffffffffffffffff811115611eb457611eb4612b02565b604051908082528060200260200182016040528015611edd578160200160208202803683370190505b50905060005b82811015610b9a57611ef58582611f31565b828281518110611f0757611f07612b18565b6001600160a01b039092166020928302919091019091015280611f2981612b44565b915050611ee3565b6000610c2283836123db565b600080610f108484612405565b611f55600b84611fdc565b156040518060400160405280601081526020016f1a5b9d985b1a5908185c99dd5b595b9d60821b81525090611f9d5760405162461bcd60e51b815260040161073f9190612a90565b50611fa88382612414565b61119c83836122d4565b6000610c22836001600160a01b038416612498565b6000610c22836001600160a01b03841661238c565b6000610c22838361258b565b600081815260056020908152604080832054815180830190925260128252710646561646c696e65206d75737420626520360741b92820192909252906120415760405162461bcd60e51b815260040161073f9190612a90565b506000828152600560209081526040808320839055600190915280822080546001600160a01b03191690555183917f90fb84ad67dd037c388289337bb80b61b8605d38ba9a875dc38b5600909d172f91a2506001919050565b60008080806120b2866001600160a01b038716612597565b909450925050505b9250929050565b6000610c22836001600160a01b0384166125d1565b6000610c22836001600160a01b0384166125ee565b6001600160a01b03811660009081526001830160205260408120541515610c22565b6060600061211a83612267565b905060008167ffffffffffffffff81111561213757612137612b02565b604051908082528060200260200182016040528015612160578160200160208202803683370190505b50905060005b82811015610b9a576121788582611f3d565b82828151811061218a5761218a612b18565b6001600160a01b0390921660209283029190910190910152806121ac81612b44565b915050612166565b60008080806120b28686612597565b606060006121d083612267565b905060008167ffffffffffffffff8111156121ed576121ed612b02565b604051908082528060200260200182016040528015612216578160200160208202803683370190505b50905060005b82811015610b9a5761222e858261265e565b82828151811061224057612240612b18565b60209081029190910101528061225581612b44565b91505061221c565b6000610656825490565b600061065682612674565b600061227d8261267f565b6000828152600160205260409020546001600160a01b031661229f83826122d4565b5092915050565b6000610c22836001600160a01b03841661258b565b6000610e55846001600160a01b0380861690851661236f565b600082815260036020908152604080832080546001600160a01b03198082166001600160a01b03888116918217909455600186528487208054909216909155600585528386208690558351929091168083529382015285917fc4a957706c639829ad54381b04930c464db6c7ffdc09d2b4b1acc9ee34fb9261910160405180910390a2509092915050565b6000610c2283836203f480612728565b60008281526002840160205260408120829055610e558484611e65565b60008181526001830160205260408120546123d357508154600181810184556000848152602080822090930184905584548482528286019093526040902091909155610656565b506000610656565b60008260000182815481106123f2576123f2612b18565b9060005260206000200154905092915050565b60008080806120b286866127a4565b6124218261164183611e1e565b6040518060400160405280601081526020016f1a5b9d985b1a5908185c99dd5b595b9d60821b815250906124685760405162461bcd60e51b815260040161073f9190612a90565b5060405182907f0de8c1e2edd3ebb03a4489213a39c3b46b6b90669a8ae9abe1d175dcd915d5db90600090a25050565b600081815260018301602052604081205480156125815760006124bc600183612b5f565b85549091506000906124d090600190612b5f565b90508181146125355760008660000182815481106124f0576124f0612b18565b906000526020600020015490508087600001848154811061251357612513612b18565b6000918252602080832090910192909255918252600188019052604090208390555b855486908061254657612546612b76565b600190038181906000526020600020016000905590558560010160008681526020019081526020016000206000905560019350505050610656565b6000915050610656565b6000610c2283836127cf565b60008181526002830160205260408120548190806125c6576125b9858561258b565b9250600091506120ba9050565b6001925090506120ba565b60008181526002830160205260408120819055610c2283836127e7565b6000818152600283016020526040812054801515806126125750612612848461258b565b610c225760405162461bcd60e51b815260206004820152601e60248201527f456e756d657261626c654d61703a206e6f6e6578697374656e74206b65790000604482015260640161073f565b60008061266b8484612405565b50949350505050565b60006106568261225d565b60006005600083815260200190815260200160002054905080421015604051806060016040528060218152602001612bf060219139906126d25760405162461bcd60e51b815260040161073f9190612a90565b5060408051808201909152600d81526c0646561646c696e65206973203609c1b6020820152816127155760405162461bcd60e51b815260040161073f9190612a90565b5050600090815260056020526040812055565b600061273484836127f3565b60008481526001602090815260409182902080546001600160a01b0319166001600160a01b038716908117909155825190815290810184905285917fd46e58ee9dc1ae703349f8c09c19f23213a531b4d57f00cfd4a5a6cb6519668d910160405180910390a25060019392505050565b600080806127b28585611f31565b600081815260029690960160205260409095205494959350505050565b60008181526001830160205260408120541515610c22565b6000610c228383612498565b6005600083815260200190815260200160002054600014604051806040016040528060128152602001710646561646c696e65206d75737420626520360741b815250906128535760405162461bcd60e51b815260040161073f9190612a90565b5060408051808201909152601881527f64656c6179206265206174206c6561737420332064617973000000000000000060208201526203f4808210156128ac5760405162461bcd60e51b815260040161073f9190612a90565b506128b78142612b8c565b6000928352600560205260409092209190915550565b6020808252825182820181905260009190848201906040850190845b8181101561290e5783516001600160a01b0316835292840192918401916001016128e9565b50909695505050505050565b60006020828403121561292c57600080fd5b5035919050565b6001600160a01b038116811461294857600080fd5b50565b6000806040838503121561295e57600080fd5b82359150602083013561297081612933565b809150509250929050565b6000806040838503121561298e57600080fd5b823561299981612933565b9150602083013561297081612933565b6000602082840312156129bb57600080fd5b8135610c2281612933565b801515811461294857600080fd5b6000806000606084860312156129e957600080fd5b8335925060208401356129fb81612933565b91506040840135612a0b816129c6565b809150509250925092565b6020808252825182820181905260009190848201906040850190845b8181101561290e57835183529284019291840191600101612a32565b60008060408385031215612a6157600080fd5b823591506020830135612970816129c6565b600060208284031215612a8557600080fd5b8151610c22816129c6565b600060208083528351808285015260005b81811015612abd57858101830151858201604001528201612aa1565b81811115612acf576000604083870101525b50601f01601f1916929092016040019392505050565b600060208284031215612af757600080fd5b8151610c2281612933565b634e487b7160e01b600052604160045260246000fd5b634e487b7160e01b600052603260045260246000fd5b634e487b7160e01b600052601160045260246000fd5b6000600019821415612b5857612b58612b2e565b5060010190565b600082821015612b7157612b71612b2e565b500390565b634e487b7160e01b600052603160045260246000fd5b60008219821115612b9f57612b9f612b2e565b50019056fe61207374616b6572207661756c7420616c72656164792065786973747320666f722074686520746f6b656e756e617574686f72697a65642061636365737300000000000000000000000000646561646c696e6520686173206e6f74206265656e207265616368656420796574a26469706673582212203e35dace1d3fce73c95df4f35152d4c82152e64dddd23b5b6d8667cdac977aa564736f6c63430008090033",
  "linkReferences": {},
  "deployedLinkReferences": {}
}