{
  "_format": "hh-sol-artifact-1",
  "contractName": "Disperse",
  "sourceName": "contracts/tests/Disperse.sol",
  "abi": [
    {
      "inputs": [
        {
          "internalType": "address[]",
          "name": "recipients",
          "type": "address[]"
        },
        {
          "internalType": "uint256[]",
          "name": "values",
          "type": "uint256[]"
        }
      ],
      "name": "disperseEther",
      "outputs": [],
      "stateMutability": "payable",
      "type": "function"
    },
    {
      "inputs": [
        {
          "internalType": "contract IERC20",
          "name": "token",
          "type": "address"
        },
        {
          "internalType": "address[]",
          "name": "recipients",
          "type": "address[]"
        },
        {
          "internalType": "uint256[]",
          "name": "values",
          "type": "uint256[]"
        }
      ],
      "name": "disperseToken",
      "outputs": [],
      "stateMutability": "nonpayable",
      "type": "function"
    },
    {
      "inputs": [
        {
          "internalType": "contract IERC20",
          "name": "token",
          "type": "address"
        },
        {
          "internalType": "address[]",
          "name": "recipients",
          "type": "address[]"
        },
        {
          "internalType": "uint256",
          "name": "amount",
          "type": "uint256"
        }
      ],
      "name": "disperseTokenEqual",
      "outputs": [],
      "stateMutability": "nonpayable",
      "type": "function"
    },
    {
      "inputs": [
        {
          "internalType": "contract IERC20",
          "name": "token",
          "type": "address"
        },
        {
          "internalType": "address[]",
          "name": "recipients",
          "type": "address[]"
        },
        {
          "internalType": "uint256[]",
          "name": "values",
          "type": "uint256[]"
        }
      ],
      "name": "disperseTokenSimple",
      "outputs": [],
      "stateMutability": "nonpayable",
      "type": "function"
    }
  ],
  "bytecode": "0x608060405234801561001057600080fd5b50610c0d806100206000396000f3fe60806040526004361061003f5760003560e01c806351ba162c14610044578063b1521cf61461006d578063c73a2d6014610096578063e63d38ed146100bf575b600080fd5b34801561005057600080fd5b5061006b60048036038101906100669190610784565b6100db565b005b34801561007957600080fd5b50610094600480360381019061008f919061084f565b6101dc565b005b3480156100a257600080fd5b506100bd60048036038101906100b89190610784565b610367565b005b6100d960048036038101906100d491906108c3565b610549565b005b60005b848490508110156101d4578573ffffffffffffffffffffffffffffffffffffffff166323b872dd3387878581811061011957610118610944565b5b905060200201602081019061012e919061099f565b86868681811061014157610140610944565b5b905060200201356040518463ffffffff1660e01b8152600401610166939291906109ea565b602060405180830381600087803b15801561018057600080fd5b505af1158015610194573d6000803e3d6000fd5b505050506040513d601f19601f820116820180604052508101906101b89190610a59565b6101c157600080fd5b80806101cc90610ab5565b9150506100de565b505050505050565b8373ffffffffffffffffffffffffffffffffffffffff166323b872dd333086869050856102099190610afe565b6040518463ffffffff1660e01b8152600401610227939291906109ea565b602060405180830381600087803b15801561024157600080fd5b505af1158015610255573d6000803e3d6000fd5b505050506040513d601f19601f820116820180604052508101906102799190610a59565b61028257600080fd5b60005b83839050811015610360578473ffffffffffffffffffffffffffffffffffffffff1663a9059cbb8585848181106102bf576102be610944565b5b90506020020160208101906102d4919061099f565b846040518363ffffffff1660e01b81526004016102f2929190610b58565b602060405180830381600087803b15801561030c57600080fd5b505af1158015610320573d6000803e3d6000fd5b505050506040513d601f19601f820116820180604052508101906103449190610a59565b61034d57600080fd5b808061035890610ab5565b915050610285565b5050505050565b6000805b858590508110156103b05783838281811061038957610388610944565b5b905060200201358261039b9190610b81565b915080806103a890610ab5565b91505061036b565b508573ffffffffffffffffffffffffffffffffffffffff166323b872dd3330846040518463ffffffff1660e01b81526004016103ee939291906109ea565b602060405180830381600087803b15801561040857600080fd5b505af115801561041c573d6000803e3d6000fd5b505050506040513d601f19601f820116820180604052508101906104409190610a59565b61044957600080fd5b60005b85859050811015610540578673ffffffffffffffffffffffffffffffffffffffff1663a9059cbb87878481811061048657610485610944565b5b905060200201602081019061049b919061099f565b8686858181106104ae576104ad610944565b5b905060200201356040518363ffffffff1660e01b81526004016104d2929190610b58565b602060405180830381600087803b1580156104ec57600080fd5b505af1158015610500573d6000803e3d6000fd5b505050506040513d601f19601f820116820180604052508101906105249190610a59565b61052d57600080fd5b808061053890610ab5565b91505061044c565b50505050505050565b60005b848490508110156105f15784848281811061056a57610569610944565b5b905060200201602081019061057f919061099f565b73ffffffffffffffffffffffffffffffffffffffff166108fc8484848181106105ab576105aa610944565b5b905060200201359081150290604051600060405180830381858888f193505050501580156105dd573d6000803e3d6000fd5b5080806105e990610ab5565b91505061054c565b5060004790506000811115610648573373ffffffffffffffffffffffffffffffffffffffff166108fc829081150290604051600060405180830381858888f19350505050158015610646573d6000803e3d6000fd5b505b5050505050565b600080fd5b600080fd5b600073ffffffffffffffffffffffffffffffffffffffff82169050919050565b600061068482610659565b9050919050565b600061069682610679565b9050919050565b6106a68161068b565b81146106b157600080fd5b50565b6000813590506106c38161069d565b92915050565b600080fd5b600080fd5b600080fd5b60008083601f8401126106ee576106ed6106c9565b5b8235905067ffffffffffffffff81111561070b5761070a6106ce565b5b602083019150836020820283011115610727576107266106d3565b5b9250929050565b60008083601f840112610744576107436106c9565b5b8235905067ffffffffffffffff811115610761576107606106ce565b5b60208301915083602082028301111561077d5761077c6106d3565b5b9250929050565b6000806000806000606086880312156107a05761079f61064f565b5b60006107ae888289016106b4565b955050602086013567ffffffffffffffff8111156107cf576107ce610654565b5b6107db888289016106d8565b9450945050604086013567ffffffffffffffff8111156107fe576107fd610654565b5b61080a8882890161072e565b92509250509295509295909350565b6000819050919050565b61082c81610819565b811461083757600080fd5b50565b60008135905061084981610823565b92915050565b600080600080606085870312156108695761086861064f565b5b6000610877878288016106b4565b945050602085013567ffffffffffffffff81111561089857610897610654565b5b6108a4878288016106d8565b935093505060406108b78782880161083a565b91505092959194509250565b600080600080604085870312156108dd576108dc61064f565b5b600085013567ffffffffffffffff8111156108fb576108fa610654565b5b610907878288016106d8565b9450945050602085013567ffffffffffffffff81111561092a57610929610654565b5b6109368782880161072e565b925092505092959194509250565b7f4e487b7100000000000000000000000000000000000000000000000000000000600052603260045260246000fd5b61097c81610679565b811461098757600080fd5b50565b60008135905061099981610973565b92915050565b6000602082840312156109b5576109b461064f565b5b60006109c38482850161098a565b91505092915050565b6109d581610679565b82525050565b6109e481610819565b82525050565b60006060820190506109ff60008301866109cc565b610a0c60208301856109cc565b610a1960408301846109db565b949350505050565b60008115159050919050565b610a3681610a21565b8114610a4157600080fd5b50565b600081519050610a5381610a2d565b92915050565b600060208284031215610a6f57610a6e61064f565b5b6000610a7d84828501610a44565b91505092915050565b7f4e487b7100000000000000000000000000000000000000000000000000000000600052601160045260246000fd5b6000610ac082610819565b91507fffffffffffffffffffffffffffffffffffffffffffffffffffffffffffffffff821415610af357610af2610a86565b5b600182019050919050565b6000610b0982610819565b9150610b1483610819565b9250817fffffffffffffffffffffffffffffffffffffffffffffffffffffffffffffffff0483118215151615610b4d57610b4c610a86565b5b828202905092915050565b6000604082019050610b6d60008301856109cc565b610b7a60208301846109db565b9392505050565b6000610b8c82610819565b9150610b9783610819565b9250827fffffffffffffffffffffffffffffffffffffffffffffffffffffffffffffffff03821115610bcc57610bcb610a86565b5b82820190509291505056fea2646970667358221220f2cc67a415901bd9a81224ec77a1b389f3a5a241d4ad3fd6a2967c3a0575790964736f6c63430008090033",
  "linkReferences": {},
  "deployedLinkReferences": {}
}