{
  "_format": "hh-sol-artifact-1",
  "contractName": "PoolOpen",
  "sourceName": "contracts/facets/PoolOpen.sol",
  "abi": [
    {
      "inputs": [
        {
          "internalType": "uint256",
          "name": "_amount",
          "type": "uint256"
        },
        {
          "internalType": "address",
          "name": "_receiver",
          "type": "address"
        },
        {
          "internalType": "contract IERC20",
          "name": "_token",
          "type": "address"
        }
      ],
      "name": "stake",
      "outputs": [
        {
          "internalType": "uint256",
          "name": "",
          "type": "uint256"
        }
      ],
      "stateMutability": "nonpayable",
      "type": "function"
    }
  ],
  "bytecode": "0x608060405234801561001057600080fd5b50610766806100206000396000f3fe608060405234801561001057600080fd5b506004361061002b5760003560e01c8063a7d545db14610030575b600080fd5b61004361003e3660046105f9565b610059565b60405161005091906106e5565b60405180910390f35b6000610066848484610070565b90505b9392505050565b600080841161009a5760405162461bcd60e51b81526004016100919061063a565b60405180910390fd5b6001600160a01b0383166100c05760405162461bcd60e51b8152600401610091906106a4565b60006100ca61019e565b8054909150600160a01b900460ff166100f55760405162461bcd60e51b81526004016100919061065a565b61010a6001600160a01b0384163330886101dd565b604051631e4aa95160e11b815273__$f06c55dfbaf779ce4e61bb81add28e8f1b$__90633c9552a290610145908490899089906004016106c6565b60206040518083038186803b15801561015d57600080fd5b505af4158015610171573d6000803e3d6000fd5b505050506040513d601f19601f8201168201806040525081019061019591906105e1565b95945050505050565b60006101b06101ab61023d565b610289565b80549091506001600160a01b03166101da5760405162461bcd60e51b81526004016100919061067d565b90565b604080516001600160a01b0380861660248301528416604482015260648082018490528251808303909101815260849091019091526020810180516001600160e01b03166323b872dd60e01b17905261023790859061035c565b50505050565b6000806000368080601f0160208091040260200160405190810160405280939291908181526020018383808284376000920191909152505050503601516001600160a01b031692915050565b600080604051806040016040528060168152602001753234b0b6b7b7321739b432b93637b1b5973837b7b61760511b815250836040516020018080602001836001600160a01b03168152602001828103825284818151815260200191508051906020019080838360005b8381101561030b5781810151838201526020016102f3565b50505050905090810190601f1680156103385780820380516001836020036101000a031916815260200191505b5060408051601f198184030181529190528051602090910120979650505050505050565b60006103b1826040518060400160405280602081526020017f5361666545524332303a206c6f772d6c6576656c2063616c6c206661696c6564815250856001600160a01b03166104129092919063ffffffff16565b80519091501561040d578080602001905160208110156103d057600080fd5b505161040d5760405162461bcd60e51b815260040180806020018281038252602a815260200180610707602a913960400191505060405180910390fd5b505050565b606061006684846000858561042685610537565b610477576040805162461bcd60e51b815260206004820152601d60248201527f416464726573733a2063616c6c20746f206e6f6e2d636f6e7472616374000000604482015290519081900360640190fd5b600080866001600160a01b031685876040518082805190602001908083835b602083106104b55780518252601f199092019160209182019101610496565b6001836020036101000a03801982511681845116808217855250505050505090500191505060006040518083038185875af1925050503d8060008114610517576040519150601f19603f3d011682016040523d82523d6000602084013e61051c565b606091505b509150915061052c82828661053d565b979650505050505050565b3b151590565b6060831561054c575081610069565b82511561055c5782518084602001fd5b8160405162461bcd60e51b81526004018080602001828103825283818151815260200191508051906020019080838360005b838110156105a657818101518382015260200161058e565b50505050905090810190601f1680156105d35780820380516001836020036101000a031916815260200191505b509250505060405180910390fd5b6000602082840312156105f2578081fd5b5051919050565b60008060006060848603121561060d578182fd5b83359250602084013561061f816106ee565b9150604084013561062f816106ee565b809150509250925092565b602080825260069082015265105353d5539560d21b604082015260600190565b6020808252600990820152684e4f5f5354414b455360b81b604082015260600190565b6020808252600d908201526c24a72b20a624a22faa27a5a2a760991b604082015260600190565b6020808252600890820152672922a1a2a4ab22a960c11b604082015260600190565b92835260208301919091526001600160a01b0316604082015260600190565b90815260200190565b6001600160a01b038116811461070357600080fd5b5056fe5361666545524332303a204552433230206f7065726174696f6e20646964206e6f742073756363656564a264697066735822122067eda6d285430031d62a5f93f44b2016abe7444bf481a4fd5c3c997835ec5b5f64736f6c63430007060033",
  "linkReferences": {
    "contracts/libraries/LibPool.sol": {
      "LibPool": [
        {
          "length": 20,
          "start": 313
        }
      ]
    }
  },
  "deployedLinkReferences": {
    "contracts/libraries/LibPool.sol": {
      "LibPool": [
        {
          "length": 20,
          "start": 281
        }
      ]
    }
  }
}