{
  "_format": "hh-sol-artifact-1",
  "contractName": "ControlledToken",
  "sourceName": "contracts/ControlledToken.sol",
  "abi": [
    {
      "inputs": [
        {
          "internalType": "string",
          "name": "_name",
          "type": "string"
        },
        {
          "internalType": "string",
          "name": "_symbol",
          "type": "string"
        },
        {
          "internalType": "uint8",
          "name": "decimals_",
          "type": "uint8"
        },
        {
          "internalType": "address",
          "name": "_controller",
          "type": "address"
        }
      ],
      "stateMutability": "nonpayable",
      "type": "constructor"
    },
    {
      "anonymous": false,
      "inputs": [
        {
          "indexed": true,
          "internalType": "address",
          "name": "owner",
          "type": "address"
        },
        {
          "indexed": true,
          "internalType": "address",
          "name": "spender",
          "type": "address"
        },
        {
          "indexed": false,
          "internalType": "uint256",
          "name": "value",
          "type": "uint256"
        }
      ],
      "name": "Approval",
      "type": "event"
    },
    {
      "anonymous": false,
      "inputs": [
        {
          "indexed": false,
          "internalType": "string",
          "name": "name",
          "type": "string"
        },
        {
          "indexed": false,
          "internalType": "string",
          "name": "symbol",
          "type": "string"
        },
        {
          "indexed": false,
          "internalType": "uint8",
          "name": "decimals",
          "type": "uint8"
        },
        {
          "indexed": true,
          "internalType": "address",
          "name": "controller",
          "type": "address"
        }
      ],
      "name": "Deployed",
      "type": "event"
    },
    {
      "anonymous": false,
      "inputs": [
        {
          "indexed": true,
          "internalType": "address",
          "name": "from",
          "type": "address"
        },
        {
          "indexed": true,
          "internalType": "address",
          "name": "to",
          "type": "address"
        },
        {
          "indexed": false,
          "internalType": "uint256",
          "name": "value",
          "type": "uint256"
        }
      ],
      "name": "Transfer",
      "type": "event"
    },
    {
      "inputs": [],
      "name": "DOMAIN_SEPARATOR",
      "outputs": [
        {
          "internalType": "bytes32",
          "name": "",
          "type": "bytes32"
        }
      ],
      "stateMutability": "view",
      "type": "function"
    },
    {
      "inputs": [
        {
          "internalType": "address",
          "name": "owner",
          "type": "address"
        },
        {
          "internalType": "address",
          "name": "spender",
          "type": "address"
        }
      ],
      "name": "allowance",
      "outputs": [
        {
          "internalType": "uint256",
          "name": "",
          "type": "uint256"
        }
      ],
      "stateMutability": "view",
      "type": "function"
    },
    {
      "inputs": [
        {
          "internalType": "address",
          "name": "spender",
          "type": "address"
        },
        {
          "internalType": "uint256",
          "name": "amount",
          "type": "uint256"
        }
      ],
      "name": "approve",
      "outputs": [
        {
          "internalType": "bool",
          "name": "",
          "type": "bool"
        }
      ],
      "stateMutability": "nonpayable",
      "type": "function"
    },
    {
      "inputs": [
        {
          "internalType": "address",
          "name": "account",
          "type": "address"
        }
      ],
      "name": "balanceOf",
      "outputs": [
        {
          "internalType": "uint256",
          "name": "",
          "type": "uint256"
        }
      ],
      "stateMutability": "view",
      "type": "function"
    },
    {
      "inputs": [],
      "name": "controller",
      "outputs": [
        {
          "internalType": "address",
          "name": "",
          "type": "address"
        }
      ],
      "stateMutability": "view",
      "type": "function"
    },
    {
      "inputs": [
        {
          "internalType": "address",
          "name": "_user",
          "type": "address"
        },
        {
          "internalType": "uint256",
          "name": "_amount",
          "type": "uint256"
        }
      ],
      "name": "controllerBurn",
      "outputs": [],
      "stateMutability": "nonpayable",
      "type": "function"
    },
    {
      "inputs": [
        {
          "internalType": "address",
          "name": "_operator",
          "type": "address"
        },
        {
          "internalType": "address",
          "name": "_user",
          "type": "address"
        },
        {
          "internalType": "uint256",
          "name": "_amount",
          "type": "uint256"
        }
      ],
      "name": "controllerBurnFrom",
      "outputs": [],
      "stateMutability": "nonpayable",
      "type": "function"
    },
    {
      "inputs": [
        {
          "internalType": "address",
          "name": "_user",
          "type": "address"
        },
        {
          "internalType": "uint256",
          "name": "_amount",
          "type": "uint256"
        }
      ],
      "name": "controllerMint",
      "outputs": [],
      "stateMutability": "nonpayable",
      "type": "function"
    },
    {
      "inputs": [],
      "name": "decimals",
      "outputs": [
        {
          "internalType": "uint8",
          "name": "",
          "type": "uint8"
        }
      ],
      "stateMutability": "view",
      "type": "function"
    },
    {
      "inputs": [
        {
          "internalType": "address",
          "name": "spender",
          "type": "address"
        },
        {
          "internalType": "uint256",
          "name": "subtractedValue",
          "type": "uint256"
        }
      ],
      "name": "decreaseAllowance",
      "outputs": [
        {
          "internalType": "bool",
          "name": "",
          "type": "bool"
        }
      ],
      "stateMutability": "nonpayable",
      "type": "function"
    },
    {
      "inputs": [
        {
          "internalType": "address",
          "name": "spender",
          "type": "address"
        },
        {
          "internalType": "uint256",
          "name": "addedValue",
          "type": "uint256"
        }
      ],
      "name": "increaseAllowance",
      "outputs": [
        {
          "internalType": "bool",
          "name": "",
          "type": "bool"
        }
      ],
      "stateMutability": "nonpayable",
      "type": "function"
    },
    {
      "inputs": [],
      "name": "name",
      "outputs": [
        {
          "internalType": "string",
          "name": "",
          "type": "string"
        }
      ],
      "stateMutability": "view",
      "type": "function"
    },
    {
      "inputs": [
        {
          "internalType": "address",
          "name": "owner",
          "type": "address"
        }
      ],
      "name": "nonces",
      "outputs": [
        {
          "internalType": "uint256",
          "name": "",
          "type": "uint256"
        }
      ],
      "stateMutability": "view",
      "type": "function"
    },
    {
      "inputs": [
        {
          "internalType": "address",
          "name": "owner",
          "type": "address"
        },
        {
          "internalType": "address",
          "name": "spender",
          "type": "address"
        },
        {
          "internalType": "uint256",
          "name": "value",
          "type": "uint256"
        },
        {
          "internalType": "uint256",
          "name": "deadline",
          "type": "uint256"
        },
        {
          "internalType": "uint8",
          "name": "v",
          "type": "uint8"
        },
        {
          "internalType": "bytes32",
          "name": "r",
          "type": "bytes32"
        },
        {
          "internalType": "bytes32",
          "name": "s",
          "type": "bytes32"
        }
      ],
      "name": "permit",
      "outputs": [],
      "stateMutability": "nonpayable",
      "type": "function"
    },
    {
      "inputs": [],
      "name": "symbol",
      "outputs": [
        {
          "internalType": "string",
          "name": "",
          "type": "string"
        }
      ],
      "stateMutability": "view",
      "type": "function"
    },
    {
      "inputs": [],
      "name": "totalSupply",
      "outputs": [
        {
          "internalType": "uint256",
          "name": "",
          "type": "uint256"
        }
      ],
      "stateMutability": "view",
      "type": "function"
    },
    {
      "inputs": [
        {
          "internalType": "address",
          "name": "recipient",
          "type": "address"
        },
        {
          "internalType": "uint256",
          "name": "amount",
          "type": "uint256"
        }
      ],
      "name": "transfer",
      "outputs": [
        {
          "internalType": "bool",
          "name": "",
          "type": "bool"
        }
      ],
      "stateMutability": "nonpayable",
      "type": "function"
    },
    {
      "inputs": [
        {
          "internalType": "address",
          "name": "sender",
          "type": "address"
        },
        {
          "internalType": "address",
          "name": "recipient",
          "type": "address"
        },
        {
          "internalType": "uint256",
          "name": "amount",
          "type": "uint256"
        }
      ],
      "name": "transferFrom",
      "outputs": [
        {
          "internalType": "bool",
          "name": "",
          "type": "bool"
        }
      ],
      "stateMutability": "nonpayable",
      "type": "function"
    }
  ],
  "bytecode": "0x6101806040527f6e71edae12b1b97f4d1f60370fef10105fa2faae0126114a169c64845d6126c9610120523480156200003757600080fd5b5060405162001bd438038062001bd48339810160408190526200005a91620003f2565b6040518060400160405280601c81526020017f506f6f6c546f67657468657220436f6e74726f6c6c6564546f6b656e0000000081525080604051806040016040528060018152602001603160f81b81525086868160039080519060200190620000c5929190620002bb565b508051620000db906004906020840190620002bb565b5050825160209384012082519284019290922060c083815260e08290524660a0818152604080517f8b73c3c69bb8fe3d512ecc4cf759cc79239f7b179b0ffacaa9a75d522b39400f818a018190528183019890985260608101959095526080808601939093523085830152805180860390920182529390920190925280519401939093209092526101005250506001600160a01b038116620001d85760405162461bcd60e51b815260206004820152602b60248201527f436f6e74726f6c6c6564546f6b656e2f636f6e74726f6c6c65722d6e6f742d7a60448201526a65726f2d6164647265737360a81b60648201526084015b60405180910390fd5b6001600160601b0319606082901b166101405260ff82166200023d5760405162461bcd60e51b815260206004820181905260248201527f436f6e74726f6c6c6564546f6b656e2f646563696d616c732d67742d7a65726f6044820152606401620001cf565b7fff0000000000000000000000000000000000000000000000000000000000000060f883901b16610160526040516001600160a01b038216907fde72fc29218361f33503847e6f32be813f9ec92fc7c772bb59e46675c890fd0e90620002a990879087908790620004c4565b60405180910390a25050505062000587565b828054620002c99062000534565b90600052602060002090601f016020900481019282620002ed576000855562000338565b82601f106200030857805160ff191683800117855562000338565b8280016001018555821562000338579182015b82811115620003385782518255916020019190600101906200031b565b50620003469291506200034a565b5090565b5b808211156200034657600081556001016200034b565b600082601f8301126200037357600080fd5b81516001600160401b038082111562000390576200039062000571565b604051601f8301601f19908116603f01168101908282118183101715620003bb57620003bb62000571565b81604052838152866020858801011115620003d557600080fd5b620003e884602083016020890162000501565b9695505050505050565b600080600080608085870312156200040957600080fd5b84516001600160401b03808211156200042157600080fd5b6200042f8883890162000361565b955060208701519150808211156200044657600080fd5b50620004558782880162000361565b935050604085015160ff811681146200046d57600080fd5b60608601519092506001600160a01b03811681146200048b57600080fd5b939692955090935050565b60008151808452620004b081602086016020860162000501565b601f01601f19169290920160200192915050565b606081526000620004d9606083018662000496565b8281036020840152620004ed818662000496565b91505060ff83166040830152949350505050565b60005b838110156200051e57818101518382015260200162000504565b838111156200052e576000848401525b50505050565b600181811c908216806200054957607f821691505b602082108114156200056b57634e487b7160e01b600052602260045260246000fd5b50919050565b634e487b7160e01b600052604160045260246000fd5b60805160a05160c05160e05161010051610120516101405160601c6101605160f81c6115cc6200060860003960006101a80152600081816102e3015281816104df01528181610565015261065e015260006107f601526000610ccc01526000610d1b01526000610cf601526000610c7a01526000610ca301526115cc6000f3fe608060405234801561001057600080fd5b50600436106101365760003560e01c806370a08231116100b2578063a457c2d711610081578063d505accf11610066578063d505accf14610292578063dd62ed3e146102a5578063f77c4791146102de57600080fd5b8063a457c2d71461026c578063a9059cbb1461027f57600080fd5b806370a08231146102155780637ecebe001461023e57806390596dd11461025157806395d89b411461026457600080fd5b8063313ce5671161010957806339509351116100ee57806339509351146101da5780635d7b0758146101ed578063631b5dfb1461020257600080fd5b8063313ce567146101a15780633644e515146101d257600080fd5b806306fdde031461013b578063095ea7b31461015957806318160ddd1461017c57806323b872dd1461018e575b600080fd5b61014361031d565b60405161015091906114b1565b60405180910390f35b61016c610167366004611487565b6103af565b6040519015158152602001610150565b6002545b604051908152602001610150565b61016c61019c3660046113d8565b6103c5565b60405160ff7f0000000000000000000000000000000000000000000000000000000000000000168152602001610150565b610180610489565b61016c6101e8366004611487565b610498565b6102006101fb366004611487565b6104d4565b005b6102006102103660046113d8565b61055a565b610180610223366004611383565b6001600160a01b031660009081526020819052604090205490565b61018061024c366004611383565b610633565b61020061025f366004611487565b610653565b6101436106d5565b61016c61027a366004611487565b6106e4565b61016c61028d366004611487565b610795565b6102006102a0366004611414565b6107a2565b6101806102b33660046113a5565b6001600160a01b03918216600090815260016020908152604080832093909416825291909152205490565b6103057f000000000000000000000000000000000000000000000000000000000000000081565b6040516001600160a01b039091168152602001610150565b60606003805461032c90611535565b80601f016020809104026020016040519081016040528092919081815260200182805461035890611535565b80156103a55780601f1061037a576101008083540402835291602001916103a5565b820191906000526020600020905b81548152906001019060200180831161038857829003601f168201915b5050505050905090565b60006103bc338484610906565b50600192915050565b60006103d2848484610a5e565b6001600160a01b0384166000908152600160209081526040808320338452909152902054828110156104715760405162461bcd60e51b815260206004820152602860248201527f45524332303a207472616e7366657220616d6f756e742065786365656473206160448201527f6c6c6f77616e636500000000000000000000000000000000000000000000000060648201526084015b60405180910390fd5b61047e8533858403610906565b506001949350505050565b6000610493610c76565b905090565b3360008181526001602090815260408083206001600160a01b038716845290915281205490916103bc9185906104cf908690611506565b610906565b336001600160a01b037f0000000000000000000000000000000000000000000000000000000000000000161461054c5760405162461bcd60e51b815260206004820152601f60248201527f436f6e74726f6c6c6564546f6b656e2f6f6e6c792d636f6e74726f6c6c6572006044820152606401610468565b6105568282610d69565b5050565b336001600160a01b037f000000000000000000000000000000000000000000000000000000000000000016146105d25760405162461bcd60e51b815260206004820152601f60248201527f436f6e74726f6c6c6564546f6b656e2f6f6e6c792d636f6e74726f6c6c6572006044820152606401610468565b816001600160a01b0316836001600160a01b031614610624576001600160a01b0382811660009081526001602090815260408083209387168352929052205461062490839085906104cf90859061151e565b61062e8282610e48565b505050565b6001600160a01b0381166000908152600560205260408120545b92915050565b336001600160a01b037f000000000000000000000000000000000000000000000000000000000000000016146106cb5760405162461bcd60e51b815260206004820152601f60248201527f436f6e74726f6c6c6564546f6b656e2f6f6e6c792d636f6e74726f6c6c6572006044820152606401610468565b6105568282610e48565b60606004805461032c90611535565b3360009081526001602090815260408083206001600160a01b03861684529091528120548281101561077e5760405162461bcd60e51b815260206004820152602560248201527f45524332303a2064656372656173656420616c6c6f77616e63652062656c6f7760448201527f207a65726f0000000000000000000000000000000000000000000000000000006064820152608401610468565b61078b3385858403610906565b5060019392505050565b60006103bc338484610a5e565b834211156107f25760405162461bcd60e51b815260206004820152601d60248201527f45524332305065726d69743a206578706972656420646561646c696e650000006044820152606401610468565b60007f00000000000000000000000000000000000000000000000000000000000000008888886108218c610fcd565b6040805160208101969096526001600160a01b0394851690860152929091166060840152608083015260a082015260c0810186905260e001604051602081830303815290604052805190602001209050600061087c82610ff5565b9050600061088c8287878761105e565b9050896001600160a01b0316816001600160a01b0316146108ef5760405162461bcd60e51b815260206004820152601e60248201527f45524332305065726d69743a20696e76616c6964207369676e617475726500006044820152606401610468565b6108fa8a8a8a610906565b50505050505050505050565b6001600160a01b0383166109815760405162461bcd60e51b8152602060048201526024808201527f45524332303a20617070726f76652066726f6d20746865207a65726f2061646460448201527f72657373000000000000000000000000000000000000000000000000000000006064820152608401610468565b6001600160a01b0382166109fd5760405162461bcd60e51b815260206004820152602260248201527f45524332303a20617070726f766520746f20746865207a65726f20616464726560448201527f73730000000000000000000000000000000000000000000000000000000000006064820152608401610468565b6001600160a01b0383811660008181526001602090815260408083209487168084529482529182902085905590518481527f8c5be1e5ebec7d5bd14f71427d1e84f3dd0314c0f7b2291e5b200ac8c7c3b925910160405180910390a3505050565b6001600160a01b038316610ada5760405162461bcd60e51b815260206004820152602560248201527f45524332303a207472616e736665722066726f6d20746865207a65726f20616460448201527f64726573730000000000000000000000000000000000000000000000000000006064820152608401610468565b6001600160a01b038216610b565760405162461bcd60e51b815260206004820152602360248201527f45524332303a207472616e7366657220746f20746865207a65726f206164647260448201527f65737300000000000000000000000000000000000000000000000000000000006064820152608401610468565b6001600160a01b03831660009081526020819052604090205481811015610be55760405162461bcd60e51b815260206004820152602660248201527f45524332303a207472616e7366657220616d6f756e742065786365656473206260448201527f616c616e636500000000000000000000000000000000000000000000000000006064820152608401610468565b6001600160a01b03808516600090815260208190526040808220858503905591851681529081208054849290610c1c908490611506565b92505081905550826001600160a01b0316846001600160a01b03167fddf252ad1be2c89b69c2b068fc378daa952ba7f163c4a11628f55a4df523b3ef84604051610c6891815260200190565b60405180910390a350505050565b60007f0000000000000000000000000000000000000000000000000000000000000000461415610cc557507f000000000000000000000000000000000000000000000000000000000000000090565b50604080517f00000000000000000000000000000000000000000000000000000000000000006020808301919091527f0000000000000000000000000000000000000000000000000000000000000000828401527f000000000000000000000000000000000000000000000000000000000000000060608301524660808301523060a0808401919091528351808403909101815260c0909201909252805191012090565b6001600160a01b038216610dbf5760405162461bcd60e51b815260206004820152601f60248201527f45524332303a206d696e7420746f20746865207a65726f2061646472657373006044820152606401610468565b8060026000828254610dd19190611506565b90915550506001600160a01b03821660009081526020819052604081208054839290610dfe908490611506565b90915550506040518181526001600160a01b038316906000907fddf252ad1be2c89b69c2b068fc378daa952ba7f163c4a11628f55a4df523b3ef9060200160405180910390a35050565b6001600160a01b038216610ec45760405162461bcd60e51b815260206004820152602160248201527f45524332303a206275726e2066726f6d20746865207a65726f2061646472657360448201527f73000000000000000000000000000000000000000000000000000000000000006064820152608401610468565b6001600160a01b03821660009081526020819052604090205481811015610f535760405162461bcd60e51b815260206004820152602260248201527f45524332303a206275726e20616d6f756e7420657863656564732062616c616e60448201527f63650000000000000000000000000000000000000000000000000000000000006064820152608401610468565b6001600160a01b0383166000908152602081905260408120838303905560028054849290610f8290849061151e565b90915550506040518281526000906001600160a01b038516907fddf252ad1be2c89b69c2b068fc378daa952ba7f163c4a11628f55a4df523b3ef9060200160405180910390a3505050565b6001600160a01b03811660009081526005602052604090208054600181018255905b50919050565b600061064d611002610c76565b836040517f19010000000000000000000000000000000000000000000000000000000000006020820152602281018390526042810182905260009060620160405160208183030381529060405280519060200120905092915050565b600080600061106f87878787611086565b9150915061107c81611173565b5095945050505050565b6000807f7fffffffffffffffffffffffffffffff5d576e7357a4501ddfe92f46681b20a08311156110bd575060009050600361116a565b8460ff16601b141580156110d557508460ff16601c14155b156110e6575060009050600461116a565b6040805160008082526020820180845289905260ff881692820192909252606081018690526080810185905260019060a0016020604051602081039080840390855afa15801561113a573d6000803e3d6000fd5b5050604051601f1901519150506001600160a01b0381166111635760006001925092505061116a565b9150600090505b94509492505050565b600081600481111561118757611187611580565b14156111905750565b60018160048111156111a4576111a4611580565b14156111f25760405162461bcd60e51b815260206004820152601860248201527f45434453413a20696e76616c6964207369676e617475726500000000000000006044820152606401610468565b600281600481111561120657611206611580565b14156112545760405162461bcd60e51b815260206004820152601f60248201527f45434453413a20696e76616c6964207369676e6174757265206c656e677468006044820152606401610468565b600381600481111561126857611268611580565b14156112dc5760405162461bcd60e51b815260206004820152602260248201527f45434453413a20696e76616c6964207369676e6174757265202773272076616c60448201527f75650000000000000000000000000000000000000000000000000000000000006064820152608401610468565b60048160048111156112f0576112f0611580565b14156113645760405162461bcd60e51b815260206004820152602260248201527f45434453413a20696e76616c6964207369676e6174757265202776272076616c60448201527f75650000000000000000000000000000000000000000000000000000000000006064820152608401610468565b50565b80356001600160a01b038116811461137e57600080fd5b919050565b60006020828403121561139557600080fd5b61139e82611367565b9392505050565b600080604083850312156113b857600080fd5b6113c183611367565b91506113cf60208401611367565b90509250929050565b6000806000606084860312156113ed57600080fd5b6113f684611367565b925061140460208501611367565b9150604084013590509250925092565b600080600080600080600060e0888a03121561142f57600080fd5b61143888611367565b965061144660208901611367565b95506040880135945060608801359350608088013560ff8116811461146a57600080fd5b9699959850939692959460a0840135945060c09093013592915050565b6000806040838503121561149a57600080fd5b6114a383611367565b946020939093013593505050565b600060208083528351808285015260005b818110156114de578581018301518582016040015282016114c2565b818111156114f0576000604083870101525b50601f01601f1916929092016040019392505050565b600082198211156115195761151961156a565b500190565b6000828210156115305761153061156a565b500390565b600181811c9082168061154957607f821691505b60208210811415610fef57634e487b7160e01b600052602260045260246000fd5b634e487b7160e01b600052601160045260246000fd5b634e487b7160e01b600052602160045260246000fdfea264697066735822122066c2263ea0784f2a04816f0030ada113600c0197e60e41488de07c50662a457b64736f6c63430008060033",
  "linkReferences": {},
  "deployedLinkReferences": {}
}