{
  "_format": "hh-sol-artifact-1",
  "contractName": "KeeperGauge",
  "sourceName": "contracts/tokenomics/KeeperGauge.sol",
  "abi": [
    {
      "inputs": [
        {
          "internalType": "contract IController",
          "name": "_controller",
          "type": "address"
        },
        {
          "internalType": "address",
          "name": "_pool",
          "type": "address"
        }
      ],
      "stateMutability": "nonpayable",
      "type": "constructor"
    },
    {
      "inputs": [],
      "name": "advanceEpoch",
      "outputs": [
        {
          "internalType": "bool",
          "name": "",
          "type": "bool"
        }
      ],
      "stateMutability": "nonpayable",
      "type": "function"
    },
    {
      "inputs": [
        {
          "internalType": "address",
          "name": "beneficiary",
          "type": "address"
        },
        {
          "internalType": "uint256",
          "name": "endEpoch",
          "type": "uint256"
        }
      ],
      "name": "claimRewards",
      "outputs": [
        {
          "internalType": "uint256",
          "name": "",
          "type": "uint256"
        }
      ],
      "stateMutability": "nonpayable",
      "type": "function"
    },
    {
      "inputs": [
        {
          "internalType": "address",
          "name": "beneficiary",
          "type": "address"
        }
      ],
      "name": "claimRewards",
      "outputs": [
        {
          "internalType": "uint256",
          "name": "",
          "type": "uint256"
        }
      ],
      "stateMutability": "nonpayable",
      "type": "function"
    },
    {
      "inputs": [
        {
          "internalType": "address",
          "name": "beneficiary",
          "type": "address"
        }
      ],
      "name": "claimableRewards",
      "outputs": [
        {
          "internalType": "uint256",
          "name": "",
          "type": "uint256"
        }
      ],
      "stateMutability": "view",
      "type": "function"
    },
    {
      "inputs": [],
      "name": "controller",
      "outputs": [
        {
          "internalType": "contract IController",
          "name": "",
          "type": "address"
        }
      ],
      "stateMutability": "view",
      "type": "function"
    },
    {
      "inputs": [],
      "name": "epoch",
      "outputs": [
        {
          "internalType": "uint256",
          "name": "",
          "type": "uint256"
        }
      ],
      "stateMutability": "view",
      "type": "function"
    },
    {
      "inputs": [
        {
          "internalType": "address",
          "name": "",
          "type": "address"
        }
      ],
      "name": "keeperRecords",
      "outputs": [
        {
          "internalType": "uint256",
          "name": "nextEpochToClaim",
          "type": "uint256"
        },
        {
          "internalType": "bool",
          "name": "firstEpochSet",
          "type": "bool"
        }
      ],
      "stateMutability": "view",
      "type": "function"
    },
    {
      "inputs": [],
      "name": "kill",
      "outputs": [
        {
          "internalType": "bool",
          "name": "",
          "type": "bool"
        }
      ],
      "stateMutability": "nonpayable",
      "type": "function"
    },
    {
      "inputs": [],
      "name": "killed",
      "outputs": [
        {
          "internalType": "bool",
          "name": "",
          "type": "bool"
        }
      ],
      "stateMutability": "view",
      "type": "function"
    },
    {
      "inputs": [],
      "name": "lastUpdated",
      "outputs": [
        {
          "internalType": "uint48",
          "name": "",
          "type": "uint48"
        }
      ],
      "stateMutability": "view",
      "type": "function"
    },
    {
      "inputs": [
        {
          "internalType": "uint256",
          "name": "",
          "type": "uint256"
        }
      ],
      "name": "perPeriodTotalFees",
      "outputs": [
        {
          "internalType": "uint256",
          "name": "",
          "type": "uint256"
        }
      ],
      "stateMutability": "view",
      "type": "function"
    },
    {
      "inputs": [
        {
          "internalType": "uint256",
          "name": "",
          "type": "uint256"
        }
      ],
      "name": "perPeriodTotalInflation",
      "outputs": [
        {
          "internalType": "uint256",
          "name": "",
          "type": "uint256"
        }
      ],
      "stateMutability": "view",
      "type": "function"
    },
    {
      "inputs": [],
      "name": "pool",
      "outputs": [
        {
          "internalType": "address",
          "name": "",
          "type": "address"
        }
      ],
      "stateMutability": "view",
      "type": "function"
    },
    {
      "inputs": [],
      "name": "poolCheckpoint",
      "outputs": [
        {
          "internalType": "bool",
          "name": "",
          "type": "bool"
        }
      ],
      "stateMutability": "nonpayable",
      "type": "function"
    },
    {
      "inputs": [
        {
          "internalType": "address",
          "name": "beneficiary",
          "type": "address"
        },
        {
          "internalType": "uint256",
          "name": "amount",
          "type": "uint256"
        },
        {
          "internalType": "address",
          "name": "lpTokenAddress",
          "type": "address"
        }
      ],
      "name": "reportFees",
      "outputs": [
        {
          "internalType": "bool",
          "name": "",
          "type": "bool"
        }
      ],
      "stateMutability": "nonpayable",
      "type": "function"
    },
    {
      "inputs": [],
      "name": "roleManager",
      "outputs": [
        {
          "internalType": "contract IRoleManager",
          "name": "",
          "type": "address"
        }
      ],
      "stateMutability": "view",
      "type": "function"
    }
  ],
  "bytecode": "0x60e06040523480156200001157600080fd5b506040516200122c3803806200122c8339810160408190526200003491620001a9565b620000c7826001600160a01b0316632954018c6040518163ffffffff1660e01b815260040160206040518083038186803b1580156200007257600080fd5b505afa15801562000087573d6000803e3d6000fd5b505050506040513d601f19601f82011682018060405250810190620000ad9190620001e8565b6001600160a01b0316620000fe60201b62000b3b1760201c565b6001600160a01b0390811660805291821660a0521660c0526003805465ffffffffffff19164265ffffffffffff161790556200020f565b6040516321f8a72160e01b81526a3937b632a6b0b730b3b2b960a91b60048201526000906001600160a01b038316906321f8a7219060240160206040518083038186803b1580156200014f57600080fd5b505afa15801562000164573d6000803e3d6000fd5b505050506040513d601f19601f820116820180604052508101906200018a9190620001e8565b92915050565b6001600160a01b0381168114620001a657600080fd5b50565b60008060408385031215620001bd57600080fd5b8251620001ca8162000190565b6020840151909250620001dd8162000190565b809150509250929050565b600060208284031215620001fb57600080fd5b8151620002088162000190565b9392505050565b60805160a05160c051610fbc6200027060003960008181610148015261085d0152600081816102b2015281816102d80152818161054d01528181610664015281816107b70152610c45015260008181610106015261094b0152610fbc6000f3fe608060405234801561001057600080fd5b50600436106100ff5760003560e01c806383c70f9711610097578063d0b06f5d11610066578063d0b06f5d1461025e578063dc01f60d14610287578063ef5cfb8c1461029a578063f77c4791146102ad57600080fd5b806383c70f97146101e057806385e4de1b14610200578063900cf0cf146102425780639a99b4f01461024b57600080fd5b80633cf80e6c116100d35780633cf80e6c1461019a57806341c0e1b5146101a25780634c56c559146101aa5780635790a0c8146101d857600080fd5b8062435da51461010457806316f0115b146101435780631ec360681461016a5780631f3a0e411461018d575b600080fd5b7f00000000000000000000000000000000000000000000000000000000000000005b6040516001600160a01b0390911681526020015b60405180910390f35b6101267f000000000000000000000000000000000000000000000000000000000000000081565b61017d610178366004610d94565b6102d4565b604051901515815260200161013a565b60055461017d9060ff1681565b61017d610549565b61017d610660565b6101ca6101b8366004610dd6565b60016020526000908152604090205481565b60405190815260200161013a565b61017d610785565b6101ca6101ee366004610dd6565b60046020526000908152604090205481565b61022d61020e366004610def565b6000602081905290815260409020600181015460029091015460ff1682565b6040805192835290151560208301520161013a565b6101ca60025481565b6101ca610259366004610e0c565b610935565b6003546102709065ffffffffffff1681565b60405165ffffffffffff909116815260200161013a565b6101ca610295366004610def565b610afd565b6101ca6102a8366004610def565b610b2d565b6101267f000000000000000000000000000000000000000000000000000000000000000081565b60007f00000000000000000000000000000000000000000000000000000000000000006001600160a01b0316632954018c6040518163ffffffff1660e01b815260040160206040518083038186803b15801561032f57600080fd5b505afa158015610343573d6000803e3d6000fd5b505050506040513d601f19601f820116820180604052508101906103679190610e38565b604051631fd4b62560e21b81523360048201526001600160a01b039190911690637f52d8949060240160206040518083038186803b1580156103a857600080fd5b505afa1580156103bc573d6000803e3d6000fd5b505050506040513d601f19601f820116820180604052508101906103e09190610e55565b6040518060400160405280601781526020017f61646472657373206e6f742077686974656c69737465640000000000000000008152509061043d5760405162461bcd60e51b81526004016104349190610e77565b60405180910390fd5b5060055460408051808201909152601281527118dbdb9d1c9858dd081a5cc81c185d5cd95960721b60208201529060ff161561048c5760405162461bcd60e51b81526004016104349190610e77565b506001600160a01b03841660009081526020819052604090206002015460ff166104e1576001600160a01b03841660009081526020819052604090206002808201805460ff1916600190811790915590549101555b6001600160a01b038416600090815260208181526040808320600254845290915281208054859290610514908490610ee2565b90915550506002546000908152600160205260408120805485929061053a908490610ee2565b90915550600195945050505050565b60007f00000000000000000000000000000000000000000000000000000000000000006001600160a01b031663dbcd89fa6040518163ffffffff1660e01b815260040160206040518083038186803b1580156105a457600080fd5b505afa1580156105b8573d6000803e3d6000fd5b505050506040513d601f19601f820116820180604052508101906105dc9190610e38565b6001600160a01b0316336001600160a01b03161460405180604001604052806013815260200172756e617574686f72697a65642061636365737360681b8152509061063a5760405162461bcd60e51b81526004016104349190610e77565b50610643610785565b506002805490600061065483610efa565b91905055506001905090565b60007f00000000000000000000000000000000000000000000000000000000000000006001600160a01b031663dbcd89fa6040518163ffffffff1660e01b815260040160206040518083038186803b1580156106bb57600080fd5b505afa1580156106cf573d6000803e3d6000fd5b505050506040513d601f19601f820116820180604052508101906106f39190610e38565b6001600160a01b0316336001600160a01b03161460405180604001604052806013815260200172756e617574686f72697a65642061636365737360681b815250906107515760405162461bcd60e51b81526004016104349190610e77565b5061075a610785565b506002805490600061076b83610efa565b90915550506005805460ff19166001908117909155905090565b60055460009060ff16156107995750600090565b6003546000906107b19065ffffffffffff1642610f15565b905060007f00000000000000000000000000000000000000000000000000000000000000006001600160a01b031663dbcd89fa6040518163ffffffff1660e01b815260040160206040518083038186803b15801561080e57600080fd5b505afa158015610822573d6000803e3d6000fd5b505050506040513d601f19601f820116820180604052508101906108469190610e38565b60405163271a15bf60e21b81526001600160a01b037f0000000000000000000000000000000000000000000000000000000000000000811660048301529190911690639c6856fc9060240160206040518083038186803b1580156108a957600080fd5b505afa1580156108bd573d6000803e3d6000fd5b505050506040513d601f19601f820116820180604052508101906108e19190610f2c565b90506108ed8282610f45565b6002546000908152600460205260408120805490919061090e908490610ee2565b90915550506003805465ffffffffffff19164265ffffffffffff1617905550600192915050565b6000336001600160a01b03841614806109f557507f0000000000000000000000000000000000000000000000000000000000000000604051632474521560e21b815268067617567655f7a61760bc1b60048201523360248201526001600160a01b0391909116906391d148549060440160206040518083038186803b1580156109bd57600080fd5b505afa1580156109d1573d6000803e3d6000fd5b505050506040513d601f19601f820116820180604052508101906109f59190610e55565b60405180604001604052806013815260200172756e617574686f72697a65642061636365737360681b81525090610a3f5760405162461bcd60e51b81526004016104349190610e77565b50600254821115610a505760025491505b6001600160a01b038316600090815260208190526040812060010154610a7890859085610bc3565b6001600160a01b038516600090815260208181526040918290206001018690558151808301909252601982527f7a65726f207472616e73666572206e6f7420616c6c6f776564000000000000009082015290915081610aea5760405162461bcd60e51b81526004016104349190610e77565b50610af58482610c41565b509392505050565b6001600160a01b038116600090815260208190526040812060010154600254610b27918491610bc3565b92915050565b6000610b2782600254610935565b6040516321f8a72160e01b81526a3937b632a6b0b730b3b2b960a91b60048201526000906001600160a01b038316906321f8a7219060240160206040518083038186803b158015610b8b57600080fd5b505afa158015610b9f573d6000803e3d6000fd5b505050506040513d601f19601f82011682018060405250810190610b279190610e38565b600080835b83811015610c385760008181526004602090815260408083205460018352818420546001600160a01b038b168552848452828520868652909352922054610c1a9291610c149190610d41565b90610d67565b610c249083610ee2565b915080610c3081610efa565b915050610bc8565b50949350505050565b60007f00000000000000000000000000000000000000000000000000000000000000006001600160a01b031663dbcd89fa6040518163ffffffff1660e01b815260040160206040518083038186803b158015610c9c57600080fd5b505afa158015610cb0573d6000803e3d6000fd5b505050506040513d601f19601f82011682018060405250810190610cd49190610e38565b6040516335106f4960e11b81526001600160a01b038581166004830152602482018590529190911690636a20de9290604401600060405180830381600087803b158015610d2057600080fd5b505af1158015610d34573d6000803e3d6000fd5b5060019695505050505050565b600081610d56670de0b6b3a764000085610f45565b610d609190610f64565b9392505050565b6000670de0b6b3a7640000610d568385610f45565b6001600160a01b0381168114610d9157600080fd5b50565b600080600060608486031215610da957600080fd5b8335610db481610d7c565b9250602084013591506040840135610dcb81610d7c565b809150509250925092565b600060208284031215610de857600080fd5b5035919050565b600060208284031215610e0157600080fd5b8135610d6081610d7c565b60008060408385031215610e1f57600080fd5b8235610e2a81610d7c565b946020939093013593505050565b600060208284031215610e4a57600080fd5b8151610d6081610d7c565b600060208284031215610e6757600080fd5b81518015158114610d6057600080fd5b600060208083528351808285015260005b81811015610ea457858101830151858201604001528201610e88565b81811115610eb6576000604083870101525b50601f01601f1916929092016040019392505050565b634e487b7160e01b600052601160045260246000fd5b60008219821115610ef557610ef5610ecc565b500190565b6000600019821415610f0e57610f0e610ecc565b5060010190565b600082821015610f2757610f27610ecc565b500390565b600060208284031215610f3e57600080fd5b5051919050565b6000816000190483118215151615610f5f57610f5f610ecc565b500290565b600082610f8157634e487b7160e01b600052601260045260246000fd5b50049056fea2646970667358221220b246eb42ddead45105a09971d9883b96743e353875cbb9cabe601a3f2e34e66364736f6c63430008090033",
  "linkReferences": {},
  "deployedLinkReferences": {}
}