{
  "_format": "hh-sol-artifact-1",
  "contractName": "Extension",
  "sourceName": "contracts/Pool/Extension.sol",
  "abi": [
    {
      "anonymous": false,
      "inputs": [
        {
          "indexed": false,
          "internalType": "address",
          "name": "poolID",
          "type": "address"
        }
      ],
      "name": "ExtensionPassed",
      "type": "event"
    },
    {
      "anonymous": false,
      "inputs": [
        {
          "indexed": false,
          "internalType": "uint256",
          "name": "extensionVoteEndTime",
          "type": "uint256"
        }
      ],
      "name": "ExtensionRequested",
      "type": "event"
    },
    {
      "anonymous": false,
      "inputs": [
        {
          "indexed": true,
          "internalType": "address",
          "name": "lender",
          "type": "address"
        },
        {
          "indexed": false,
          "internalType": "uint256",
          "name": "totalExtensionSupport",
          "type": "uint256"
        },
        {
          "indexed": false,
          "internalType": "uint256",
          "name": "lastVoteTime",
          "type": "uint256"
        }
      ],
      "name": "LenderVoted",
      "type": "event"
    },
    {
      "anonymous": false,
      "inputs": [
        {
          "indexed": true,
          "internalType": "address",
          "name": "poolFactory",
          "type": "address"
        }
      ],
      "name": "PoolFactoryUpdated",
      "type": "event"
    },
    {
      "anonymous": false,
      "inputs": [
        {
          "indexed": false,
          "internalType": "uint256",
          "name": "votingPassRatio",
          "type": "uint256"
        }
      ],
      "name": "VotingPassRatioUpdated",
      "type": "event"
    },
    {
      "inputs": [],
      "name": "closePoolExtension",
      "outputs": [],
      "stateMutability": "nonpayable",
      "type": "function"
    },
    {
      "inputs": [
        {
          "internalType": "address",
          "name": "",
          "type": "address"
        }
      ],
      "name": "extensions",
      "outputs": [
        {
          "internalType": "bool",
          "name": "hasExtensionPassed",
          "type": "bool"
        },
        {
          "internalType": "uint256",
          "name": "totalExtensionSupport",
          "type": "uint256"
        },
        {
          "internalType": "uint256",
          "name": "extensionVoteEndTime",
          "type": "uint256"
        },
        {
          "internalType": "uint256",
          "name": "repaymentInterval",
          "type": "uint256"
        }
      ],
      "stateMutability": "view",
      "type": "function"
    },
    {
      "inputs": [
        {
          "internalType": "address",
          "name": "_poolFactory",
          "type": "address"
        },
        {
          "internalType": "uint256",
          "name": "_votingPassRatio",
          "type": "uint256"
        }
      ],
      "name": "initialize",
      "outputs": [],
      "stateMutability": "nonpayable",
      "type": "function"
    },
    {
      "inputs": [
        {
          "internalType": "uint256",
          "name": "_repaymentInterval",
          "type": "uint256"
        }
      ],
      "name": "initializePoolExtension",
      "outputs": [],
      "stateMutability": "nonpayable",
      "type": "function"
    },
    {
      "inputs": [
        {
          "internalType": "address",
          "name": "_from",
          "type": "address"
        },
        {
          "internalType": "address",
          "name": "_to",
          "type": "address"
        },
        {
          "internalType": "uint256",
          "name": "_amount",
          "type": "uint256"
        }
      ],
      "name": "removeVotes",
      "outputs": [],
      "stateMutability": "nonpayable",
      "type": "function"
    },
    {
      "inputs": [
        {
          "internalType": "address",
          "name": "_pool",
          "type": "address"
        }
      ],
      "name": "requestExtension",
      "outputs": [],
      "stateMutability": "nonpayable",
      "type": "function"
    },
    {
      "inputs": [
        {
          "internalType": "address",
          "name": "_poolFactory",
          "type": "address"
        }
      ],
      "name": "updatePoolFactory",
      "outputs": [],
      "stateMutability": "nonpayable",
      "type": "function"
    },
    {
      "inputs": [
        {
          "internalType": "uint256",
          "name": "_votingPassRatio",
          "type": "uint256"
        }
      ],
      "name": "updateVotingPassRatio",
      "outputs": [],
      "stateMutability": "nonpayable",
      "type": "function"
    },
    {
      "inputs": [
        {
          "internalType": "address",
          "name": "_pool",
          "type": "address"
        }
      ],
      "name": "voteOnExtension",
      "outputs": [],
      "stateMutability": "nonpayable",
      "type": "function"
    },
    {
      "inputs": [],
      "name": "votingPassRatio",
      "outputs": [
        {
          "internalType": "uint256",
          "name": "",
          "type": "uint256"
        }
      ],
      "stateMutability": "view",
      "type": "function"
    }
  ],
  "bytecode": "0x608060405234801561001057600080fd5b506112a9806100206000396000f3fe608060405234801561001057600080fd5b506004361061009e5760003560e01c806380d59c851161006657806380d59c85146101405780638afed92a14610166578063b5a70cea1461018c578063b9a08bd7146101a9578063cd6dc687146101f75761009e565b80630347e804146100a357806345f8f010146100c257806347cb7c6c146100e8578063722eb6d1146100f057806374113a2714610126575b600080fd5b6100c0600480360360208110156100b957600080fd5b5035610223565b005b6100c0600480360360208110156100d857600080fd5b50356001600160a01b03166102f1565b6100c06103bc565b6100c06004803603606081101561010657600080fd5b506001600160a01b038135811691602081013590911690604001356103e8565b61012e61052a565b60408051918252519081900360200190f35b6100c06004803603602081101561015657600080fd5b50356001600160a01b0316610530565b6100c06004803603602081101561017c57600080fd5b50356001600160a01b03166107a2565b6100c0600480360360208110156101a257600080fd5b5035610adf565b6101cf600480360360208110156101bf57600080fd5b50356001600160a01b0316610c00565b6040805194151585526020850193909352838301919091526060830152519081900360800190f35b6100c06004803603604081101561020d57600080fd5b506001600160a01b038135169060200135610c2e565b600260009054906101000a90046001600160a01b03166001600160a01b0316638da5cb5b6040518163ffffffff1660e01b815260040160206040518083038186803b15801561027157600080fd5b505afa158015610285573d6000803e3d6000fd5b505050506040513d602081101561029b57600080fd5b50516001600160a01b031633146102e5576040805162461bcd60e51b81526020600482015260096024820152682737ba1037bbb732b960b91b604482015290519081900360640190fd5b6102ee81610ce3565b50565b600260009054906101000a90046001600160a01b03166001600160a01b0316638da5cb5b6040518163ffffffff1660e01b815260040160206040518083038186803b15801561033f57600080fd5b505afa158015610353573d6000803e3d6000fd5b505050506040513d602081101561036957600080fd5b50516001600160a01b031633146103b3576040805162461bcd60e51b81526020600482015260096024820152682737ba1037bbb732b960b91b604482015290519081900360640190fd5b6102ee81610d1e565b3360009081526001602081905260408220805460ff191681559081018290556002810182905560030155565b3360008181526001602052604090205460ff16156104065750610525565b6001600160a01b03811660009081526001602052604090206002015480158015906104315750428111155b15610522576001600160a01b03808316600090815260016020908152604080832093891683526004909301905220548114156104ac576001600160a01b0382166000908152600160208190526040909120015461048e9084610dc3565b6001600160a01b038316600090815260016020819052604090912001555b6001600160a01b0380831660009081526001602090815260408083209388168352600490930190522054811415610522576001600160a01b038216600090815260016020819052604090912001546105049084610e25565b6001600160a01b038316600090815260016020819052604090912001555b50505b505050565b60035481565b6001600160a01b03811660009081526001602052604090206002015442811161058a5760405162461bcd60e51b81526004018080602001828103825260268152602001806110cf6026913960400191505060405180910390fd5b600080836001600160a01b031663b2c09233336040518263ffffffff1660e01b815260040180826001600160a01b03168152602001915050604080518083038186803b1580156105d957600080fd5b505afa1580156105ed573d6000803e3d6000fd5b505050506040513d604081101561060357600080fd5b50805160209091015190925090508161064d5760405162461bcd60e51b81526004018080602001828103825260338152602001806111846033913960400191505060405180910390fd5b6003546001600160a01b0385166000908152600160209081526040808320338452600401909152902054848114156106b65760405162461bcd60e51b815260040180806020018281038252602e81526020018061112e602e913960400191505060405180910390fd5b506001600160a01b0385166000908152600160208190526040909120015484906106e08186610e25565b6001600160a01b03881660009081526001602090815260408083203380855260049091018352928190208690558051848152918201869052805193945091927f0a8ea94a61adb9b6f01366abaa0ed52716931571afd18109d2ed9f18c522f0b5929181900390910190a26001600160a01b03871660009081526001602081905260409091200181905561078a6c0c9f2c9cd04674edea400000006107848686610e86565b90610edf565b81106107995761079987610f46565b50505050505050565b80336001600160a01b0316816001600160a01b0316637df1f1b96040518163ffffffff1660e01b8152600401602060405180830381600087803b1580156107e857600080fd5b505af11580156107fc573d6000803e3d6000fd5b505050506040513d602081101561081257600080fd5b50516001600160a01b03161461085e576040805162461bcd60e51b815260206004820152600c60248201526b2737ba102137b93937bbb2b960a11b604482015290519081900360640190fd5b6001600160a01b038216600090815260016020526040902060030154806108b65760405162461bcd60e51b815260040180806020018281038252603081526020018061109f6030913960400191505060405180910390fd5b6001600160a01b0383166000908152600160205260409020600201544281106109105760405162461bcd60e51b81526004018080602001828103825260398152602001806110f56039913960400191505060405180910390fd5b6001600160a01b03841660009081526001602052604090205460ff16156109685760405162461bcd60e51b815260040180806020018281038252603681526020018061123e6036913960400191505060405180910390fd5b6001600160a01b038085166000908152600160208181526040808420909201839055600254825163171e108560e01b815292519394169263171e1085926004808201939291829003018186803b1580156109c157600080fd5b505afa1580156109d5573d6000803e3d6000fd5b505050506040513d60208110156109eb57600080fd5b50516040805163bf3b8e4b60e01b81526001600160a01b03888116600483015291519293506000929184169163bf3b8e4b91602480820192602092909190829003018186803b158015610a3d57600080fd5b505afa158015610a51573d6000803e3d6000fd5b505050506040513d6020811015610a6757600080fd5b50519050610a82816c0c9f2c9cd04674edea40000000610edf565b6001600160a01b038716600090815260016020908152604091829020600201839055815183815291519295507fd1227b96f2a4760a4dbde6777d1cd5a4f68c7d46a202a290c9a91946290b5e0e92918290030190a1505050505050565b600254336000908152600160205260409020600301546001600160a01b039091169015610b3d5760405162461bcd60e51b81526004018080602001828103825260388152602001806112066038913960400191505060405180910390fd5b6040805163edf7ae2160e01b815233600482015290516001600160a01b0383169163edf7ae21916024808301926020929190829003018186803b158015610b8357600080fd5b505afa158015610b97573d6000803e3d6000fd5b505050506040513d6020811015610bad57600080fd5b5051610bea5760405162461bcd60e51b815260040180806020018281038252602881526020018061115c6028913960400191505060405180910390fd5b5033600090815260016020526040902060030155565b6001602081905260009182526040909120805491810154600282015460039092015460ff9093169290919084565b600054610100900460ff1680610c475750610c47611087565b80610c55575060005460ff16155b610c905760405162461bcd60e51b815260040180806020018281038252602e8152602001806111b7602e913960400191505060405180910390fd5b600054610100900460ff16158015610cbb576000805460ff1961ff0019909116610100171660011790555b610cc483610d1e565b610ccd82610ce3565b8015610525576000805461ff0019169055505050565b60038190556040805182815290517f80e7cab94b51becc6b80510fb0ceac2a7ee03afd9670427b2cac6a2ff739a8d79181900360200190a150565b6001600160a01b038116610d79576040805162461bcd60e51b815260206004820152601860248201527f5a65726f2061646472657373206e6f7420616c6c6f7765640000000000000000604482015290519081900360640190fd5b600280546001600160a01b0319166001600160a01b0383169081179091556040517f1c7678eaee5fa898fb56c2cae0f73cba66bd4eee97d2df577030caea131dd9a590600090a250565b600082821115610e1a576040805162461bcd60e51b815260206004820152601e60248201527f536166654d6174683a207375627472616374696f6e206f766572666c6f770000604482015290519081900360640190fd5b508082035b92915050565b600082820183811015610e7f576040805162461bcd60e51b815260206004820152601b60248201527f536166654d6174683a206164646974696f6e206f766572666c6f770000000000604482015290519081900360640190fd5b9392505050565b600082610e9557506000610e1f565b82820282848281610ea257fe5b0414610e7f5760405162461bcd60e51b81526004018080602001828103825260218152602001806111e56021913960400191505060405180910390fd5b6000808211610f35576040805162461bcd60e51b815260206004820152601a60248201527f536166654d6174683a206469766973696f6e206279207a65726f000000000000604482015290519081900360640190fd5b818381610f3e57fe5b049392505050565b6002546040805163171e108560e01b815290516001600160a01b0390921691600091839163171e108591600480820192602092909190829003018186803b158015610f9057600080fd5b505afa158015610fa4573d6000803e3d6000fd5b505050506040513d6020811015610fba57600080fd5b50516001600160a01b038085166000818152600160208190526040808320805460ff19169092178255426002909201919091558051634e65cfd960e11b815260048101939093525193945091841692639ccb9fb29260248084019391929182900301818387803b15801561102d57600080fd5b505af1158015611041573d6000803e3d6000fd5b5050604080516001600160a01b038716815290517fa4f302c9f8b4a9851753ecc51e676bd12aeafb73a0748731e421b3023e21219c9350908190036020019150a1505050565b600061109230611098565b15905090565b3b15159056fe457874656e73696f6e3a3a72657175657374457874656e73696f6e202d20556e696e697469616c697a656420706f6f6c506f6f6c3a3a766f74654f6e457874656e73696f6e202d20566f74696e67206973206f766572457874656e73696f6e3a3a72657175657374457874656e73696f6e202d20457874656e73696f6e2072657175657374656420616c7265616479506f6f6c3a3a766f74654f6e457874656e73696f6e202d20796f75206861766520616c726561647920766f74656452657061796d656e74733a3a6f6e6c7956616c6964506f6f6c202d20496e76616c696420506f6f6c506f6f6c3a3a766f74654f6e457874656e73696f6e202d204e6f7420612076616c6964206c656e64657220666f7220706f6f6c496e697469616c697a61626c653a20636f6e747261637420697320616c726561647920696e697469616c697a6564536166654d6174683a206d756c7469706c69636174696f6e206f766572666c6f77457874656e73696f6e3a3a696e697469616c697a65506f6f6c457874656e73696f6e202d20616c726561647920696e697469616c697a6564457874656e73696f6e3a3a72657175657374457874656e73696f6e3a20457874656e73696f6e20616c726561647920617661696c6564a26469706673582212207a5acb3cf40b7f32c8d58ae20d47965ad4280dea4a57f3c60669588731ece9bd64736f6c63430007060033",
  "linkReferences": {},
  "deployedLinkReferences": {}
}