{
  "_format": "hh-sol-artifact-1",
  "contractName": "MockAmmGauge",
  "sourceName": "contracts/testing/MockAmmGauge.sol",
  "abi": [
    {
      "inputs": [
        {
          "internalType": "contract IController",
          "name": "_controller",
          "type": "address"
        },
        {
          "internalType": "address",
          "name": "_ammToken",
          "type": "address"
        }
      ],
      "stateMutability": "nonpayable",
      "type": "constructor"
    },
    {
      "anonymous": false,
      "inputs": [
        {
          "indexed": true,
          "internalType": "address",
          "name": "account",
          "type": "address"
        },
        {
          "indexed": true,
          "internalType": "address",
          "name": "token",
          "type": "address"
        },
        {
          "indexed": false,
          "internalType": "uint256",
          "name": "amount",
          "type": "uint256"
        }
      ],
      "name": "AmmStaked",
      "type": "event"
    },
    {
      "anonymous": false,
      "inputs": [
        {
          "indexed": true,
          "internalType": "address",
          "name": "account",
          "type": "address"
        },
        {
          "indexed": true,
          "internalType": "address",
          "name": "token",
          "type": "address"
        },
        {
          "indexed": false,
          "internalType": "uint256",
          "name": "amount",
          "type": "uint256"
        }
      ],
      "name": "AmmUnstaked",
      "type": "event"
    },
    {
      "anonymous": false,
      "inputs": [
        {
          "indexed": true,
          "internalType": "address",
          "name": "account",
          "type": "address"
        },
        {
          "indexed": false,
          "internalType": "uint256",
          "name": "amount",
          "type": "uint256"
        }
      ],
      "name": "RewardClaimed",
      "type": "event"
    },
    {
      "inputs": [],
      "name": "ammLastUpdated",
      "outputs": [
        {
          "internalType": "uint48",
          "name": "",
          "type": "uint48"
        }
      ],
      "stateMutability": "view",
      "type": "function"
    },
    {
      "inputs": [],
      "name": "ammStakedIntegral",
      "outputs": [
        {
          "internalType": "uint256",
          "name": "",
          "type": "uint256"
        }
      ],
      "stateMutability": "view",
      "type": "function"
    },
    {
      "inputs": [],
      "name": "ammToken",
      "outputs": [
        {
          "internalType": "address",
          "name": "",
          "type": "address"
        }
      ],
      "stateMutability": "view",
      "type": "function"
    },
    {
      "inputs": [
        {
          "internalType": "address",
          "name": "",
          "type": "address"
        }
      ],
      "name": "balances",
      "outputs": [
        {
          "internalType": "uint256",
          "name": "",
          "type": "uint256"
        }
      ],
      "stateMutability": "view",
      "type": "function"
    },
    {
      "inputs": [
        {
          "internalType": "address",
          "name": "",
          "type": "address"
        }
      ],
      "name": "claimRewards",
      "outputs": [
        {
          "internalType": "uint256",
          "name": "",
          "type": "uint256"
        }
      ],
      "stateMutability": "pure",
      "type": "function"
    },
    {
      "inputs": [
        {
          "internalType": "address",
          "name": "user",
          "type": "address"
        }
      ],
      "name": "claimableRewards",
      "outputs": [
        {
          "internalType": "uint256",
          "name": "",
          "type": "uint256"
        }
      ],
      "stateMutability": "view",
      "type": "function"
    },
    {
      "inputs": [],
      "name": "controller",
      "outputs": [
        {
          "internalType": "contract IController",
          "name": "",
          "type": "address"
        }
      ],
      "stateMutability": "view",
      "type": "function"
    },
    {
      "inputs": [],
      "name": "getAmmToken",
      "outputs": [
        {
          "internalType": "address",
          "name": "",
          "type": "address"
        }
      ],
      "stateMutability": "view",
      "type": "function"
    },
    {
      "inputs": [
        {
          "internalType": "address",
          "name": "token",
          "type": "address"
        }
      ],
      "name": "isAmmToken",
      "outputs": [
        {
          "internalType": "bool",
          "name": "",
          "type": "bool"
        }
      ],
      "stateMutability": "view",
      "type": "function"
    },
    {
      "inputs": [],
      "name": "kill",
      "outputs": [
        {
          "internalType": "bool",
          "name": "",
          "type": "bool"
        }
      ],
      "stateMutability": "nonpayable",
      "type": "function"
    },
    {
      "inputs": [],
      "name": "killed",
      "outputs": [
        {
          "internalType": "bool",
          "name": "",
          "type": "bool"
        }
      ],
      "stateMutability": "view",
      "type": "function"
    },
    {
      "inputs": [
        {
          "internalType": "address",
          "name": "",
          "type": "address"
        }
      ],
      "name": "perUserShare",
      "outputs": [
        {
          "internalType": "uint256",
          "name": "",
          "type": "uint256"
        }
      ],
      "stateMutability": "view",
      "type": "function"
    },
    {
      "inputs": [
        {
          "internalType": "address",
          "name": "",
          "type": "address"
        }
      ],
      "name": "perUserStakedIntegral",
      "outputs": [
        {
          "internalType": "uint256",
          "name": "",
          "type": "uint256"
        }
      ],
      "stateMutability": "view",
      "type": "function"
    },
    {
      "inputs": [],
      "name": "poolCheckpoint",
      "outputs": [
        {
          "internalType": "bool",
          "name": "",
          "type": "bool"
        }
      ],
      "stateMutability": "pure",
      "type": "function"
    },
    {
      "inputs": [],
      "name": "roleManager",
      "outputs": [
        {
          "internalType": "contract IRoleManager",
          "name": "",
          "type": "address"
        }
      ],
      "stateMutability": "view",
      "type": "function"
    },
    {
      "inputs": [
        {
          "internalType": "uint256",
          "name": "",
          "type": "uint256"
        }
      ],
      "name": "stake",
      "outputs": [
        {
          "internalType": "bool",
          "name": "",
          "type": "bool"
        }
      ],
      "stateMutability": "nonpayable",
      "type": "function"
    },
    {
      "inputs": [
        {
          "internalType": "address",
          "name": "account",
          "type": "address"
        },
        {
          "internalType": "uint256",
          "name": "amount",
          "type": "uint256"
        }
      ],
      "name": "stakeFor",
      "outputs": [
        {
          "internalType": "bool",
          "name": "",
          "type": "bool"
        }
      ],
      "stateMutability": "nonpayable",
      "type": "function"
    },
    {
      "inputs": [],
      "name": "totalStaked",
      "outputs": [
        {
          "internalType": "uint256",
          "name": "",
          "type": "uint256"
        }
      ],
      "stateMutability": "view",
      "type": "function"
    },
    {
      "inputs": [
        {
          "internalType": "uint256",
          "name": "",
          "type": "uint256"
        }
      ],
      "name": "unstake",
      "outputs": [
        {
          "internalType": "bool",
          "name": "",
          "type": "bool"
        }
      ],
      "stateMutability": "nonpayable",
      "type": "function"
    },
    {
      "inputs": [
        {
          "internalType": "address",
          "name": "dst",
          "type": "address"
        },
        {
          "internalType": "uint256",
          "name": "amount",
          "type": "uint256"
        }
      ],
      "name": "unstakeFor",
      "outputs": [
        {
          "internalType": "bool",
          "name": "",
          "type": "bool"
        }
      ],
      "stateMutability": "nonpayable",
      "type": "function"
    }
  ],
  "bytecode": "0x60e06040523480156200001157600080fd5b50604051620012a6380380620012a68339810160408190526200003491620001b2565b8181620000c9826001600160a01b0316632954018c6040518163ffffffff1660e01b815260040160206040518083038186803b1580156200007457600080fd5b505afa15801562000089573d6000803e3d6000fd5b505050506040513d601f19601f82011682018060405250810190620000af9190620001f1565b6001600160a01b03166200010760201b620009c11760201c565b6001600160a01b0390811660805290811660c0521660a05250506005805466ffffffffffff0019166101004265ffffffffffff160217905562000218565b6040516321f8a72160e01b81526a3937b632a6b0b730b3b2b960a91b60048201526000906001600160a01b038316906321f8a7219060240160206040518083038186803b1580156200015857600080fd5b505afa1580156200016d573d6000803e3d6000fd5b505050506040513d601f19601f82011682018060405250810190620001939190620001f1565b92915050565b6001600160a01b0381168114620001af57600080fd5b50565b60008060408385031215620001c657600080fd5b8251620001d38162000199565b6020840151909250620001e68162000199565b809150509250929050565b6000602082840312156200020457600080fd5b8151620002118162000199565b9392505050565b60805160a05160c05161101162000295600039600081816101f6015281816102ae0152818161031b015281816103c101528181610452015281816104920152818161057a015281816106bc0152818161074d0152818161078c01526108660152600081816102e901526108bf0152600061013201526110116000f3fe608060405234801561001057600080fd5b506004361061012b5760003560e01c806367673084116100ad578063ac79313911610071578063ac793139146102a9578063dc01f60d146102d0578063ef5cfb8c146102d0578063f77c4791146102e4578063fa3f8f1b1461030b57600080fd5b80636767308414610257578063817b1cd214610277578063870cf99f14610280578063a3db1abb146102a0578063a694fc3a146101ba57600080fd5b806336ef088c116100f457806336ef088c146101e15780633b2caf55146101f457806341c0e1b51461021a5780635790a0c814610222578063654b911b1461022957600080fd5b8062435da5146101305780631f3a0e411461016f57806327e235e31461018c5780632e17de78146101ba5780632ee40908146101ce575b600080fd5b7f00000000000000000000000000000000000000000000000000000000000000005b6040516001600160a01b0390911681526020015b60405180910390f35b60055461017c9060ff1681565b6040519015158152602001610166565b6101ac61019a366004610e20565b60006020819052908152604090205481565b604051908152602001610166565b61017c6101c8366004610e3d565b50600190565b61017c6101dc366004610e56565b61034b565b61017c6101ef366004610e56565b6105f1565b7f0000000000000000000000000000000000000000000000000000000000000000610152565b61017c6108bb565b600161017c565b60055461024090610100900465ffffffffffff1681565b60405165ffffffffffff9091168152602001610166565b6101ac610265366004610e20565b60036020526000908152604090205481565b6101ac60025481565b6101ac61028e366004610e20565b60046020526000908152604090205481565b6101ac60015481565b6101527f000000000000000000000000000000000000000000000000000000000000000081565b6101ac6102de366004610e20565b50600090565b6101527f000000000000000000000000000000000000000000000000000000000000000081565b61017c610319366004610e20565b7f00000000000000000000000000000000000000000000000000000000000000006001600160a01b0390811691161490565b60008082116040518060400160405280600e81526020016d1a5b9d985b1a5908185b5bdd5b9d60921b8152509061039e5760405162461bcd60e51b81526004016103959190610eae565b60405180910390fd5b506103a883610a4f565b506040516370a0823160e01b81523060048201526000907f00000000000000000000000000000000000000000000000000000000000000006001600160a01b0316906370a082319060240160206040518083038186803b15801561040b57600080fd5b505afa15801561041f573d6000803e3d6000fd5b505050506040513d601f19601f820116820180604052508101906104439190610ee1565b905061047a6001600160a01b037f000000000000000000000000000000000000000000000000000000000000000016333086610ae9565b6040516370a0823160e01b81523060048201526000907f00000000000000000000000000000000000000000000000000000000000000006001600160a01b0316906370a082319060240160206040518083038186803b1580156104dc57600080fd5b505afa1580156104f0573d6000803e3d6000fd5b505050506040513d601f19601f820116820180604052508101906105149190610ee1565b905060006105228383610f10565b905080600080886001600160a01b03166001600160a01b0316815260200190815260200160002060008282546105589190610f27565b9250508190555080600260008282546105719190610f27565b925050819055507f00000000000000000000000000000000000000000000000000000000000000006001600160a01b0316866001600160a01b03167fe50e01a006e0e13d78357108d064628dc8a6abf6ac87e5272b2f720bd83c9102876040516105dd91815260200190565b60405180910390a350600195945050505050565b60008082116040518060400160405280600e81526020016d1a5b9d985b1a5908185b5bdd5b9d60921b8152509061063b5760405162461bcd60e51b81526004016103959190610eae565b5033600090815260208181526040918290205482518084019093526014835273696e73756666696369656e742062616c616e636560601b918301919091528311156106995760405162461bcd60e51b81526004016103959190610eae565b506106a333610a4f565b506040516370a0823160e01b81523060048201526000907f00000000000000000000000000000000000000000000000000000000000000006001600160a01b0316906370a082319060240160206040518083038186803b15801561070657600080fd5b505afa15801561071a573d6000803e3d6000fd5b505050506040513d601f19601f8201168201806040525081019061073e9190610ee1565b90506107746001600160a01b037f0000000000000000000000000000000000000000000000000000000000000000168585610b5a565b6040516370a0823160e01b81523060048201526000907f00000000000000000000000000000000000000000000000000000000000000006001600160a01b0316906370a082319060240160206040518083038186803b1580156107d657600080fd5b505afa1580156107ea573d6000803e3d6000fd5b505050506040513d601f19601f8201168201806040525081019061080e9190610ee1565b9050600061081c8284610f10565b33600090815260208190526040812080549293508392909190610840908490610f10565b9250508190555080600260008282546108599190610f10565b90915550506040518581527f00000000000000000000000000000000000000000000000000000000000000006001600160a01b03169033907f6a3d96108f8ba7846f5d2c24c6409830e6e16d8ab9c1e4f17059cb74ee9092f7906020016105dd565b60007f00000000000000000000000000000000000000000000000000000000000000006001600160a01b031663dbcd89fa6040518163ffffffff1660e01b815260040160206040518083038186803b15801561091657600080fd5b505afa15801561092a573d6000803e3d6000fd5b505050506040513d601f19601f8201168201806040525081019061094e9190610f3f565b6001600160a01b0316336001600160a01b03161460405180604001604052806013815260200172756e617574686f72697a65642061636365737360681b815250906109ac5760405162461bcd60e51b81526004016103959190610eae565b50506005805460ff1916600190811790915590565b6040516321f8a72160e01b81526a3937b632a6b0b730b3b2b960a91b60048201526000906001600160a01b038316906321f8a7219060240160206040518083038186803b158015610a1157600080fd5b505afa158015610a25573d6000803e3d6000fd5b505050506040513d601f19601f82011682018060405250810190610a499190610f3f565b92915050565b6001600160a01b038116600090815260036020526040812054600154610a9791610a7891610f10565b6001600160a01b03841660009081526020819052604090205490610b8f565b6001600160a01b03831660009081526004602052604081208054909190610abf908490610f27565b9091555050600180546001600160a01b039093166000908152600360205260409020929092555090565b6040516001600160a01b0380851660248301528316604482015260648101829052610b549085906323b872dd60e01b906084015b60408051601f198184030181529190526020810180516001600160e01b03166001600160e01b031990931692909217909152610bb5565b50505050565b6040516001600160a01b038316602482015260448101829052610b8a90849063a9059cbb60e01b90606401610b1d565b505050565b6000670de0b6b3a7640000610ba48385610f5c565b610bae9190610f7b565b9392505050565b6000610c0a826040518060400160405280602081526020017f5361666545524332303a206c6f772d6c6576656c2063616c6c206661696c6564815250856001600160a01b0316610c879092919063ffffffff16565b805190915015610b8a5780806020019051810190610c289190610f9d565b610b8a5760405162461bcd60e51b815260206004820152602a60248201527f5361666545524332303a204552433230206f7065726174696f6e20646964206e6044820152691bdd081cdd58d8d9595960b21b6064820152608401610395565b6060610c968484600085610c9e565b949350505050565b606082471015610cff5760405162461bcd60e51b815260206004820152602660248201527f416464726573733a20696e73756666696369656e742062616c616e636520666f6044820152651c8818d85b1b60d21b6064820152608401610395565b6001600160a01b0385163b610d565760405162461bcd60e51b815260206004820152601d60248201527f416464726573733a2063616c6c20746f206e6f6e2d636f6e74726163740000006044820152606401610395565b600080866001600160a01b03168587604051610d729190610fbf565b60006040518083038185875af1925050503d8060008114610daf576040519150601f19603f3d011682016040523d82523d6000602084013e610db4565b606091505b5091509150610dc4828286610dcf565b979650505050505050565b60608315610dde575081610bae565b825115610dee5782518084602001fd5b8160405162461bcd60e51b81526004016103959190610eae565b6001600160a01b0381168114610e1d57600080fd5b50565b600060208284031215610e3257600080fd5b8135610bae81610e08565b600060208284031215610e4f57600080fd5b5035919050565b60008060408385031215610e6957600080fd5b8235610e7481610e08565b946020939093013593505050565b60005b83811015610e9d578181015183820152602001610e85565b83811115610b545750506000910152565b6020815260008251806020840152610ecd816040850160208701610e82565b601f01601f19169190910160400192915050565b600060208284031215610ef357600080fd5b5051919050565b634e487b7160e01b600052601160045260246000fd5b600082821015610f2257610f22610efa565b500390565b60008219821115610f3a57610f3a610efa565b500190565b600060208284031215610f5157600080fd5b8151610bae81610e08565b6000816000190483118215151615610f7657610f76610efa565b500290565b600082610f9857634e487b7160e01b600052601260045260246000fd5b500490565b600060208284031215610faf57600080fd5b81518015158114610bae57600080fd5b60008251610fd1818460208701610e82565b919091019291505056fea26469706673582212200c5c1308368d5b5e4ca5f1fa9e33ee8d822a1bd87286148b48f6253e6b00fd4f64736f6c63430008090033",
  "linkReferences": {},
  "deployedLinkReferences": {}
}