{
  "_format": "hh-sol-artifact-1",
  "contractName": "ZapCall",
  "sourceName": "contracts/test/ZapCall.sol",
  "abi": [
    {
      "inputs": [
        {
          "internalType": "contract IERC20",
          "name": "wbtc",
          "type": "address"
        },
        {
          "internalType": "contract IZap",
          "name": "zap",
          "type": "address"
        }
      ],
      "name": "mint",
      "outputs": [],
      "stateMutability": "nonpayable",
      "type": "function"
    }
  ],
  "bytecode": "0x608060405234801561001057600080fd5b506108b0806100206000396000f3fe608060405234801561001057600080fd5b506004361061002b5760003560e01c8063ee1fe2ad14610030575b600080fd5b6100926004803603604081101561004657600080fd5b81019080803573ffffffffffffffffffffffffffffffffffffffff169060200190929190803573ffffffffffffffffffffffffffffffffffffffff169060200190929190505050610094565b005b60008273ffffffffffffffffffffffffffffffffffffffff166370a08231306040518263ffffffff1660e01b8152600401808273ffffffffffffffffffffffffffffffffffffffff1673ffffffffffffffffffffffffffffffffffffffff16815260200191505060206040518083038186803b15801561011357600080fd5b505afa158015610127573d6000803e3d6000fd5b505050506040513d602081101561013d57600080fd5b8101908080519060200190929190505050905061017b82828573ffffffffffffffffffffffffffffffffffffffff1661025e9092919063ffffffff16565b8173ffffffffffffffffffffffffffffffffffffffff1663f92883a284836000600160006040518663ffffffff1660e01b8152600401808673ffffffffffffffffffffffffffffffffffffffff1673ffffffffffffffffffffffffffffffffffffffff16815260200185815260200184815260200183815260200182815260200195505050505050602060405180830381600087803b15801561021d57600080fd5b505af1158015610231573d6000803e3d6000fd5b505050506040513d602081101561024757600080fd5b810190808051906020019092919050505050505050565b6000811480610358575060008373ffffffffffffffffffffffffffffffffffffffff1663dd62ed3e30856040518363ffffffff1660e01b8152600401808373ffffffffffffffffffffffffffffffffffffffff1673ffffffffffffffffffffffffffffffffffffffff1681526020018273ffffffffffffffffffffffffffffffffffffffff1673ffffffffffffffffffffffffffffffffffffffff1681526020019250505060206040518083038186803b15801561031b57600080fd5b505afa15801561032f573d6000803e3d6000fd5b505050506040513d602081101561034557600080fd5b8101908080519060200190929190505050145b6103ad576040517f08c379a00000000000000000000000000000000000000000000000000000000081526004018080602001828103825260368152602001806108456036913960400191505060405180910390fd5b6104608363095ea7b360e01b8484604051602401808373ffffffffffffffffffffffffffffffffffffffff1673ffffffffffffffffffffffffffffffffffffffff16815260200182815260200192505050604051602081830303815290604052907bffffffffffffffffffffffffffffffffffffffffffffffffffffffff19166020820180517bffffffffffffffffffffffffffffffffffffffffffffffffffffffff8381831617835250505050610465565b505050565b60606104c7826040518060400160405280602081526020017f5361666545524332303a206c6f772d6c6576656c2063616c6c206661696c65648152508573ffffffffffffffffffffffffffffffffffffffff166105549092919063ffffffff16565b905060008151111561054f578080602001905160208110156104e857600080fd5b810190808051906020019092919050505061054e576040517f08c379a000000000000000000000000000000000000000000000000000000000815260040180806020018281038252602a81526020018061081b602a913960400191505060405180910390fd5b5b505050565b6060610563848460008561056c565b90509392505050565b6060824710156105c7576040517f08c379a00000000000000000000000000000000000000000000000000000000081526004018080602001828103825260268152602001806107f56026913960400191505060405180910390fd5b6105d085610715565b610642576040517f08c379a000000000000000000000000000000000000000000000000000000000815260040180806020018281038252601d8152602001807f416464726573733a2063616c6c20746f206e6f6e2d636f6e747261637400000081525060200191505060405180910390fd5b600060608673ffffffffffffffffffffffffffffffffffffffff1685876040518082805190602001908083835b60208310610692578051825260208201915060208101905060208303925061066f565b6001836020036101000a03801982511681845116808217855250505050505090500191505060006040518083038185875af1925050503d80600081146106f4576040519150601f19603f3d011682016040523d82523d6000602084013e6106f9565b606091505b5091509150610709828286610728565b92505050949350505050565b600080823b905060008111915050919050565b60608315610738578290506107ed565b60008351111561074b5782518084602001fd5b816040517f08c379a00000000000000000000000000000000000000000000000000000000081526004018080602001828103825283818151815260200191508051906020019080838360005b838110156107b2578082015181840152602081019050610797565b50505050905090810190601f1680156107df5780820380516001836020036101000a031916815260200191505b509250505060405180910390fd5b939250505056fe416464726573733a20696e73756666696369656e742062616c616e636520666f722063616c6c5361666545524332303a204552433230206f7065726174696f6e20646964206e6f7420737563636565645361666545524332303a20617070726f76652066726f6d206e6f6e2d7a65726f20746f206e6f6e2d7a65726f20616c6c6f77616e6365a2646970667358221220877184f9fbd3a192abe4a752d29a075eca3a87af17bee2a0b89cda5a002e917864736f6c634300060b0033",
  "linkReferences": {},
  "deployedLinkReferences": {}
}