{
  "_format": "hh-sol-artifact-1",
  "contractName": "PerpetualsMock",
  "sourceName": "contracts/test/LibPerpetualsMock.sol",
  "abi": [
    {
      "inputs": [
        {
          "internalType": "uint256",
          "name": "oldFilledAmount",
          "type": "uint256"
        },
        {
          "internalType": "uint256",
          "name": "oldAverage",
          "type": "uint256"
        },
        {
          "internalType": "uint256",
          "name": "fillChange",
          "type": "uint256"
        },
        {
          "internalType": "uint256",
          "name": "newFillExecutionPrice",
          "type": "uint256"
        }
      ],
      "name": "calculateAverageExecutionPrice",
      "outputs": [
        {
          "internalType": "uint256",
          "name": "",
          "type": "uint256"
        }
      ],
      "stateMutability": "pure",
      "type": "function"
    },
    {
      "inputs": [
        {
          "internalType": "uint256",
          "name": "collateralAmount",
          "type": "uint256"
        },
        {
          "internalType": "uint256",
          "name": "poolTarget",
          "type": "uint256"
        },
        {
          "internalType": "uint256",
          "name": "baseMaxLeverage",
          "type": "uint256"
        },
        {
          "internalType": "uint256",
          "name": "lowestMaxLeverage",
          "type": "uint256"
        },
        {
          "internalType": "uint256",
          "name": "deleveragingCliff",
          "type": "uint256"
        },
        {
          "internalType": "uint256",
          "name": "insurancePoolSwitchStage",
          "type": "uint256"
        }
      ],
      "name": "calculateTrueMaxLeverage",
      "outputs": [
        {
          "internalType": "uint256",
          "name": "",
          "type": "uint256"
        }
      ],
      "stateMutability": "pure",
      "type": "function"
    },
    {
      "inputs": [
        {
          "components": [
            {
              "internalType": "address",
              "name": "maker",
              "type": "address"
            },
            {
              "internalType": "address",
              "name": "market",
              "type": "address"
            },
            {
              "internalType": "uint256",
              "name": "price",
              "type": "uint256"
            },
            {
              "internalType": "uint256",
              "name": "amount",
              "type": "uint256"
            },
            {
              "internalType": "enum Perpetuals.Side",
              "name": "side",
              "type": "uint8"
            },
            {
              "internalType": "uint256",
              "name": "expires",
              "type": "uint256"
            },
            {
              "internalType": "uint256",
              "name": "created",
              "type": "uint256"
            }
          ],
          "internalType": "struct Perpetuals.Order",
          "name": "a",
          "type": "tuple"
        },
        {
          "internalType": "uint256",
          "name": "aFilled",
          "type": "uint256"
        },
        {
          "components": [
            {
              "internalType": "address",
              "name": "maker",
              "type": "address"
            },
            {
              "internalType": "address",
              "name": "market",
              "type": "address"
            },
            {
              "internalType": "uint256",
              "name": "price",
              "type": "uint256"
            },
            {
              "internalType": "uint256",
              "name": "amount",
              "type": "uint256"
            },
            {
              "internalType": "enum Perpetuals.Side",
              "name": "side",
              "type": "uint8"
            },
            {
              "internalType": "uint256",
              "name": "expires",
              "type": "uint256"
            },
            {
              "internalType": "uint256",
              "name": "created",
              "type": "uint256"
            }
          ],
          "internalType": "struct Perpetuals.Order",
          "name": "b",
          "type": "tuple"
        },
        {
          "internalType": "uint256",
          "name": "bFilled",
          "type": "uint256"
        }
      ],
      "name": "canMatch",
      "outputs": [
        {
          "internalType": "bool",
          "name": "",
          "type": "bool"
        }
      ],
      "stateMutability": "view",
      "type": "function"
    },
    {
      "inputs": [
        {
          "components": [
            {
              "internalType": "address",
              "name": "maker",
              "type": "address"
            },
            {
              "internalType": "address",
              "name": "market",
              "type": "address"
            },
            {
              "internalType": "uint256",
              "name": "price",
              "type": "uint256"
            },
            {
              "internalType": "uint256",
              "name": "amount",
              "type": "uint256"
            },
            {
              "internalType": "enum Perpetuals.Side",
              "name": "side",
              "type": "uint8"
            },
            {
              "internalType": "uint256",
              "name": "expires",
              "type": "uint256"
            },
            {
              "internalType": "uint256",
              "name": "created",
              "type": "uint256"
            }
          ],
          "internalType": "struct Perpetuals.Order",
          "name": "order",
          "type": "tuple"
        }
      ],
      "name": "orderId",
      "outputs": [
        {
          "internalType": "bytes32",
          "name": "",
          "type": "bytes32"
        }
      ],
      "stateMutability": "pure",
      "type": "function"
    }
  ],
  "bytecode": "0x608060405234801561001057600080fd5b50610868806100206000396000f3fe608060405234801561001057600080fd5b506004361061004c5760003560e01c8063188ec14114610051578063443d2b941461007a57806353d07f711461008d57806397dc40f6146100ad575b600080fd5b61006461005f3660046106fd565b6100c0565b604051610071919061074a565b60405180910390f35b6100646100883660046106cc565b6100dd565b6100a061009b3660046105e2565b6100f6565b604051610071919061073f565b6100646100bb36600461062a565b610120565b60006100d0878787878787610133565b90505b9695505050505050565b60006100eb85858585610207565b90505b949350505050565b60006100eb61010a3687900387018761062a565b8561011a3687900387018761062a565b85610265565b600061012b826103dd565b90505b919050565b6000856101415750826100d3565b600061014d888861040d565b905061015a8160646107e6565b905083811061016c57859150506100d3565b82811161017c57849150506100d3565b8284141561018d57849150506100d3565b60006101998688610805565b905060006101a78587610805565b905060006101be6101b8848461040d565b85610429565b905060006101de6101cf8a8c610805565b6101d9898b610805565b61040d565b6101e8908a610805565b905060006101f682846107ce565b9d9c50505050505050505050505050565b6000806102148686610429565b905060006102228585610429565b9050600061023086896107ce565b90508061024357600093505050506100ee565b600061025861025284866107ce565b8361040d565b9998505050505050505050565b60008042905060008460800151600181111561029157634e487b7160e01b600052602160045260246000fd5b876080015160018111156102b557634e487b7160e01b600052602160045260246000fd5b14159050600080886080015160018111156102e057634e487b7160e01b600052602160045260246000fd5b146102f657856040015188604001511115610303565b8560400151886040015110155b9050600086602001516001600160a01b031689602001516001600160a01b0316149050600087600001516001600160a01b03168a600001516001600160a01b03161415905060008a60a001518610801561036057508860a0015186105b905060008b606001518b10801561037a5750896060015189105b905060008c60c00151881015801561039657508a60c001518810155b90508580156103a25750835b80156103ab5750845b80156103b45750865b80156103bd5750825b80156103c65750815b80156101f657509c9b505050505050505050505050565b6000816040516020016103f09190610753565b604051602081830303815290604052805190602001209050919050565b600061042283670de0b6b3a764000084610435565b9392505050565b600061042283836104df565b600080806000198587098686029250828110908390030390508061046b576000841161046057600080fd5b508290049050610422565b80841161047757600080fd5b600084868809600260036001881981018916988990049182028318808302840302808302840302808302840302808302840302808302840302918202909203026000889003889004909101858311909403939093029303949094049190911702949350505050565b60008080600019848609848602925082811083820303915050600080670de0b6b3a76400008688099150506706f05b59d3b1ffff8111826105325780670de0b6b3a764000085040194505050505061059f565b82670de0b6b3a76400001161054657600080fd5b6204000082850304939091119091037d40000000000000000000000000000000000000000000000000000000000002919091177faccb18165bd6fe31ae1cf318dc5b51eee0e1ba569b88cd74c1773b91fac10669020190505b92915050565b80356001600160a01b038116811461012e57600080fd5b80356002811061012e57600080fd5b600060e082840312156105dc578081fd5b50919050565b60008060008061020085870312156105f8578384fd5b61060286866105cb565b935060e085013592506106198661010087016105cb565b939692955092936101e00135925050565b600060e0828403121561063b578081fd5b60405160e0810181811067ffffffffffffffff8211171561066a57634e487b7160e01b83526041600452602483fd5b604052610676836105a5565b8152610684602084016105a5565b602082015260408301356040820152606083013560608201526106a9608084016105bc565b608082015260a083013560a082015260c083013560c08201528091505092915050565b600080600080608085870312156106e1578384fd5b5050823594602084013594506040840135936060013592509050565b60008060008060008060c08789031215610715578182fd5b505084359660208601359650604086013595606081013595506080810135945060a0013592509050565b901515815260200190565b90815260200190565b600060e0820190506001600160a01b038084511683528060208501511660208401525060408301516040830152606083015160608301526080830151600281106107ad57634e487b7160e01b600052602160045260246000fd5b8060808401525060a083015160a083015260c083015160c083015292915050565b600082198211156107e1576107e161081c565b500190565b60008160001904831182151516156108005761080061081c565b500290565b6000828210156108175761081761081c565b500390565b634e487b7160e01b600052601160045260246000fdfea26469706673582212202ad5a1572b9814793e5193ed49538d28d8971861ee9b8f64db655f7343e931b964736f6c63430008000033",
  "linkReferences": {},
  "deployedLinkReferences": {}
}