{
  "_format": "hh-sol-artifact-1",
  "contractName": "PyroToken",
  "sourceName": "contracts/testing/realBehodler/LiquidityReceiver.sol",
  "abi": [
    {
      "inputs": [],
      "stateMutability": "nonpayable",
      "type": "constructor"
    },
    {
      "anonymous": false,
      "inputs": [
        {
          "indexed": true,
          "internalType": "address",
          "name": "owner",
          "type": "address"
        },
        {
          "indexed": true,
          "internalType": "address",
          "name": "spender",
          "type": "address"
        },
        {
          "indexed": false,
          "internalType": "uint256",
          "name": "value",
          "type": "uint256"
        }
      ],
      "name": "Approval",
      "type": "event"
    },
    {
      "anonymous": false,
      "inputs": [
        {
          "indexed": true,
          "internalType": "address",
          "name": "from",
          "type": "address"
        },
        {
          "indexed": true,
          "internalType": "address",
          "name": "to",
          "type": "address"
        },
        {
          "indexed": false,
          "internalType": "uint128",
          "name": "value",
          "type": "uint128"
        },
        {
          "indexed": false,
          "internalType": "uint128",
          "name": "burnt",
          "type": "uint128"
        }
      ],
      "name": "Transfer",
      "type": "event"
    },
    {
      "inputs": [
        {
          "internalType": "address",
          "name": "owner",
          "type": "address"
        },
        {
          "internalType": "address",
          "name": "spender",
          "type": "address"
        }
      ],
      "name": "allowance",
      "outputs": [
        {
          "internalType": "uint256",
          "name": "",
          "type": "uint256"
        }
      ],
      "stateMutability": "view",
      "type": "function"
    },
    {
      "inputs": [
        {
          "internalType": "address",
          "name": "spender",
          "type": "address"
        },
        {
          "internalType": "uint256",
          "name": "amount",
          "type": "uint256"
        }
      ],
      "name": "approve",
      "outputs": [
        {
          "internalType": "bool",
          "name": "",
          "type": "bool"
        }
      ],
      "stateMutability": "nonpayable",
      "type": "function"
    },
    {
      "inputs": [
        {
          "internalType": "address",
          "name": "account",
          "type": "address"
        }
      ],
      "name": "balanceOf",
      "outputs": [
        {
          "internalType": "uint256",
          "name": "",
          "type": "uint256"
        }
      ],
      "stateMutability": "view",
      "type": "function"
    },
    {
      "inputs": [
        {
          "internalType": "uint256",
          "name": "amount",
          "type": "uint256"
        }
      ],
      "name": "burn",
      "outputs": [],
      "stateMutability": "nonpayable",
      "type": "function"
    },
    {
      "inputs": [
        {
          "internalType": "address",
          "name": "account",
          "type": "address"
        },
        {
          "internalType": "uint256",
          "name": "amount",
          "type": "uint256"
        }
      ],
      "name": "burnFrom",
      "outputs": [],
      "stateMutability": "nonpayable",
      "type": "function"
    },
    {
      "inputs": [
        {
          "internalType": "uint256",
          "name": "amount",
          "type": "uint256"
        },
        {
          "internalType": "address",
          "name": "redeemer",
          "type": "address"
        }
      ],
      "name": "calculateRedemptionFee",
      "outputs": [
        {
          "internalType": "uint256",
          "name": "",
          "type": "uint256"
        }
      ],
      "stateMutability": "view",
      "type": "function"
    },
    {
      "inputs": [
        {
          "internalType": "uint256",
          "name": "amount",
          "type": "uint256"
        },
        {
          "internalType": "address",
          "name": "sender",
          "type": "address"
        },
        {
          "internalType": "address",
          "name": "receiver",
          "type": "address"
        }
      ],
      "name": "calculateTransferFee",
      "outputs": [
        {
          "internalType": "uint256",
          "name": "",
          "type": "uint256"
        }
      ],
      "stateMutability": "view",
      "type": "function"
    },
    {
      "inputs": [],
      "name": "config",
      "outputs": [
        {
          "internalType": "address",
          "name": "liquidityReceiver",
          "type": "address"
        },
        {
          "internalType": "contract IERC20",
          "name": "baseToken",
          "type": "address"
        },
        {
          "internalType": "address",
          "name": "loanOfficer",
          "type": "address"
        },
        {
          "internalType": "bool",
          "name": "pullPendingFeeRevenue",
          "type": "bool"
        }
      ],
      "stateMutability": "view",
      "type": "function"
    },
    {
      "inputs": [],
      "name": "decimals",
      "outputs": [
        {
          "internalType": "uint8",
          "name": "",
          "type": "uint8"
        }
      ],
      "stateMutability": "view",
      "type": "function"
    },
    {
      "inputs": [
        {
          "internalType": "address",
          "name": "spender",
          "type": "address"
        },
        {
          "internalType": "uint256",
          "name": "subtractedValue",
          "type": "uint256"
        }
      ],
      "name": "decreaseAllowance",
      "outputs": [
        {
          "internalType": "bool",
          "name": "",
          "type": "bool"
        }
      ],
      "stateMutability": "nonpayable",
      "type": "function"
    },
    {
      "inputs": [
        {
          "internalType": "address",
          "name": "spender",
          "type": "address"
        },
        {
          "internalType": "uint256",
          "name": "addedValue",
          "type": "uint256"
        }
      ],
      "name": "increaseAllowance",
      "outputs": [
        {
          "internalType": "bool",
          "name": "",
          "type": "bool"
        }
      ],
      "stateMutability": "nonpayable",
      "type": "function"
    },
    {
      "inputs": [
        {
          "internalType": "address",
          "name": "baseToken",
          "type": "address"
        },
        {
          "internalType": "string",
          "name": "name_",
          "type": "string"
        },
        {
          "internalType": "string",
          "name": "symbol_",
          "type": "string"
        }
      ],
      "name": "initialize",
      "outputs": [],
      "stateMutability": "nonpayable",
      "type": "function"
    },
    {
      "inputs": [
        {
          "internalType": "address",
          "name": "recipient",
          "type": "address"
        },
        {
          "internalType": "uint256",
          "name": "baseTokenAmount",
          "type": "uint256"
        }
      ],
      "name": "mint",
      "outputs": [
        {
          "internalType": "uint256",
          "name": "",
          "type": "uint256"
        }
      ],
      "stateMutability": "nonpayable",
      "type": "function"
    },
    {
      "inputs": [],
      "name": "name",
      "outputs": [
        {
          "internalType": "string",
          "name": "",
          "type": "string"
        }
      ],
      "stateMutability": "view",
      "type": "function"
    },
    {
      "inputs": [
        {
          "internalType": "address",
          "name": "recipient",
          "type": "address"
        },
        {
          "internalType": "uint256",
          "name": "amount",
          "type": "uint256"
        }
      ],
      "name": "redeem",
      "outputs": [
        {
          "internalType": "uint256",
          "name": "",
          "type": "uint256"
        }
      ],
      "stateMutability": "nonpayable",
      "type": "function"
    },
    {
      "inputs": [
        {
          "internalType": "address",
          "name": "owner",
          "type": "address"
        },
        {
          "internalType": "address",
          "name": "recipient",
          "type": "address"
        },
        {
          "internalType": "uint256",
          "name": "amount",
          "type": "uint256"
        }
      ],
      "name": "redeemFrom",
      "outputs": [
        {
          "internalType": "uint256",
          "name": "",
          "type": "uint256"
        }
      ],
      "stateMutability": "nonpayable",
      "type": "function"
    },
    {
      "inputs": [],
      "name": "redeemRate",
      "outputs": [
        {
          "internalType": "uint256",
          "name": "",
          "type": "uint256"
        }
      ],
      "stateMutability": "view",
      "type": "function"
    },
    {
      "inputs": [
        {
          "internalType": "address",
          "name": "exempt",
          "type": "address"
        },
        {
          "internalType": "enum FeeExemption",
          "name": "status",
          "type": "uint8"
        }
      ],
      "name": "setFeeExemptionStatusFor",
      "outputs": [],
      "stateMutability": "nonpayable",
      "type": "function"
    },
    {
      "inputs": [
        {
          "internalType": "address",
          "name": "loanOfficer",
          "type": "address"
        }
      ],
      "name": "setLoanOfficer",
      "outputs": [],
      "stateMutability": "nonpayable",
      "type": "function"
    },
    {
      "inputs": [
        {
          "internalType": "address",
          "name": "borrower",
          "type": "address"
        },
        {
          "internalType": "uint256",
          "name": "baseTokenBorrowed",
          "type": "uint256"
        },
        {
          "internalType": "uint256",
          "name": "pyroTokenStaked",
          "type": "uint256"
        }
      ],
      "name": "setObligationFor",
      "outputs": [
        {
          "internalType": "bool",
          "name": "success",
          "type": "bool"
        }
      ],
      "stateMutability": "nonpayable",
      "type": "function"
    },
    {
      "inputs": [],
      "name": "symbol",
      "outputs": [
        {
          "internalType": "string",
          "name": "",
          "type": "string"
        }
      ],
      "stateMutability": "view",
      "type": "function"
    },
    {
      "inputs": [
        {
          "internalType": "bool",
          "name": "pullPendingFeeRevenue",
          "type": "bool"
        }
      ],
      "name": "togglePullPendingFeeRevenue",
      "outputs": [],
      "stateMutability": "nonpayable",
      "type": "function"
    },
    {
      "inputs": [],
      "name": "totalSupply",
      "outputs": [
        {
          "internalType": "uint256",
          "name": "",
          "type": "uint256"
        }
      ],
      "stateMutability": "view",
      "type": "function"
    },
    {
      "inputs": [
        {
          "internalType": "address",
          "name": "recipient",
          "type": "address"
        },
        {
          "internalType": "uint256",
          "name": "amount",
          "type": "uint256"
        }
      ],
      "name": "transfer",
      "outputs": [
        {
          "internalType": "bool",
          "name": "",
          "type": "bool"
        }
      ],
      "stateMutability": "nonpayable",
      "type": "function"
    },
    {
      "inputs": [
        {
          "internalType": "address",
          "name": "sender",
          "type": "address"
        },
        {
          "internalType": "address",
          "name": "recipient",
          "type": "address"
        },
        {
          "internalType": "uint256",
          "name": "amount",
          "type": "uint256"
        }
      ],
      "name": "transferFrom",
      "outputs": [
        {
          "internalType": "bool",
          "name": "",
          "type": "bool"
        }
      ],
      "stateMutability": "nonpayable",
      "type": "function"
    },
    {
      "inputs": [
        {
          "internalType": "address",
          "name": "liquidityReceiver",
          "type": "address"
        }
      ],
      "name": "transferToNewLiquidityReceiver",
      "outputs": [],
      "stateMutability": "nonpayable",
      "type": "function"
    }
  ],
  "bytecode": "0x60806040523480156200001157600080fd5b5060016005819055506200002a6200009160201b60201c565b600660000160006101000a81548173ffffffffffffffffffffffffffffffffffffffff021916908373ffffffffffffffffffffffffffffffffffffffff1602179055506001600660020160146101000a81548160ff02191690831515021790555062000099565b600033905090565b613e1980620000a96000396000f3fe608060405234801561001057600080fd5b506004361061018e5760003560e01c806362748c9b116100de578063a457c2d711610097578063e720663911610071578063e7206639146104e6578063e7464db114610516578063e83ecdae14610546578063f3b915d7146105625761018e565b8063a457c2d714610456578063a9059cbb14610486578063dd62ed3e146104b65761018e565b806362748c9b1461037f57806370a08231146103af57806379502c55146103df57806379cc679014610400578063906571471461041c57806395d89b41146104385761018e565b806330ecd3c41161014b57806340c10f191161012557806340c10f19146102fb57806342966c681461032b5780634a4bff9a1461034757806352ec9c10146103635761018e565b806330ecd3c41461027d578063313ce567146102ad57806339509351146102cb5761018e565b806306fdde0314610193578063095ea7b3146101b15780630adcdbaa146101e157806318160ddd146101ff5780631e9a69501461021d57806323b872dd1461024d575b600080fd5b61019b61057e565b6040516101a8919061323a565b60405180910390f35b6101cb60048036038101906101c69190612cf6565b610610565b6040516101d8919061321f565b60405180910390f35b6101e961062e565b6040516101f691906134cc565b60405180910390f35b610207610730565b60405161021491906134cc565b60405180910390f35b61023760048036038101906102329190612cf6565b61073a565b60405161024491906134cc565b60405180910390f35b61026760048036038101906102629190612bec565b610756565b604051610274919061321f565b60405180910390f35b61029760048036038101906102929190612e61565b61084e565b6040516102a491906134cc565b60405180910390f35b6102b56109c1565b6040516102c291906134e7565b60405180910390f35b6102e560048036038101906102e09190612cf6565b6109ca565b6040516102f2919061321f565b60405180910390f35b61031560048036038101906103109190612cf6565b610a76565b60405161032291906134cc565b60405180910390f35b61034560048036038101906103409190612dd3565b610f01565b005b610361600480360381019061035c9190612b87565b610f15565b005b61037d60048036038101906103789190612b87565b611066565b005b61039960048036038101906103949190612d32565b611147565b6040516103a6919061321f565b60405180910390f35b6103c960048036038101906103c49190612b87565b611778565b6040516103d691906134cc565b60405180910390f35b6103e76117c0565b6040516103f794939291906131b1565b60405180910390f35b61041a60048036038101906104159190612cf6565b61184b565b005b61043660048036038101906104319190612c77565b6118c6565b005b6104406119d7565b60405161044d919061323a565b60405180910390f35b610470600480360381019061046b9190612cf6565b611a69565b60405161047d919061321f565b60405180910390f35b6104a0600480360381019061049b9190612cf6565b611b54565b6040516104ad919061321f565b60405180910390f35b6104d060048036038101906104cb9190612bb0565b611b72565b6040516104dd91906134cc565b60405180910390f35b61050060048036038101906104fb9190612e25565b611bf9565b60405161050d91906134cc565b60405180910390f35b610530600480360381019061052b9190612bec565b611cd2565b60405161053d91906134cc565b60405180910390f35b610560600480360381019061055b9190612d81565b611d8d565b005b61057c60048036038101906105779190612c3b565b611e47565b005b60606003805461058d90613810565b80601f01602080910402602001604051908101604052809291908181526020018280546105b990613810565b80156106065780601f106105db57610100808354040283529160200191610606565b820191906000526020600020905b8154815290600101906020018083116105e957829003601f168201915b5050505050905090565b600061062461061d611f72565b8484611f7a565b6001905092915050565b600080600660010160009054906101000a900473ffffffffffffffffffffffffffffffffffffffff1673ffffffffffffffffffffffffffffffffffffffff166370a08231306040518263ffffffff1660e01b815260040161068f919061315f565b60206040518083038186803b1580156106a757600080fd5b505afa1580156106bb573d6000803e3d6000fd5b505050506040513d601f19601f820116820180604052508101906106df9190612dfc565b9050600060025414806106f25750600081145b1561070857670de0b6b3a764000091505061072d565b600254670de0b6b3a76400008261071f91906135fb565b61072991906135ca565b9150505b90565b6000600254905090565b600061074e83610748611f72565b84612145565b905092915050565b6000610763848484612458565b6000600160008673ffffffffffffffffffffffffffffffffffffffff1673ffffffffffffffffffffffffffffffffffffffff16815260200190815260200160002060006107ae611f72565b73ffffffffffffffffffffffffffffffffffffffff1673ffffffffffffffffffffffffffffffffffffffff1681526020019081526020016000205490508281101561082e576040517f08c379a00000000000000000000000000000000000000000000000000000000081526004016108259061335a565b60405180910390fd5b6108428561083a611f72565b858403611f7a565b60019150509392505050565b600080600960008573ffffffffffffffffffffffffffffffffffffffff1673ffffffffffffffffffffffffffffffffffffffff16815260200190815260200160002060009054906101000a900460ff1660078111156108d6577f4e487b7100000000000000000000000000000000000000000000000000000000600052602160045260246000fd5b90506000600960008573ffffffffffffffffffffffffffffffffffffffff1673ffffffffffffffffffffffffffffffffffffffff16815260200190815260200160002060009054906101000a900460ff16600781111561095f577f4e487b7100000000000000000000000000000000000000000000000000000000600052602160045260246000fd5b905060018210158015610973575060048211155b8061099757506002811480610996575060048110158015610995575060068111155b5b5b156109a7576000925050506109ba565b6103e8866109b591906135ca565b925050505b9392505050565b60006012905090565b6000610a6c6109d7611f72565b8484600160006109e5611f72565b73ffffffffffffffffffffffffffffffffffffffff1673ffffffffffffffffffffffffffffffffffffffff16815260200190815260200160002060008873ffffffffffffffffffffffffffffffffffffffff1673ffffffffffffffffffffffffffffffffffffffff16815260200190815260200160002054610a679190613574565b611f7a565b6001905092915050565b6000600660020160149054906101000a900460ff1615610b6757600660000160009054906101000a900473ffffffffffffffffffffffffffffffffffffffff1673ffffffffffffffffffffffffffffffffffffffff1663ece53132600660010160009054906101000a900473ffffffffffffffffffffffffffffffffffffffff166040518263ffffffff1660e01b8152600401610b13919061315f565b602060405180830381600087803b158015610b2d57600080fd5b505af1158015610b41573d6000803e3d6000fd5b505050506040513d601f19601f82011682018060405250810190610b659190612dfc565b505b600073ffffffffffffffffffffffffffffffffffffffff16600660010160009054906101000a900473ffffffffffffffffffffffffffffffffffffffff1673ffffffffffffffffffffffffffffffffffffffff161415610bfc576040517f08c379a0000000000000000000000000000000000000000000000000000000008152600401610bf3906132fa565b60405180910390fd5b6000610c0661062e565b90506000600660010160009054906101000a900473ffffffffffffffffffffffffffffffffffffffff1673ffffffffffffffffffffffffffffffffffffffff166370a08231306040518263ffffffff1660e01b8152600401610c68919061315f565b60206040518083038186803b158015610c8057600080fd5b505afa158015610c94573d6000803e3d6000fd5b505050506040513d601f19601f82011682018060405250810190610cb89190612dfc565b9050600660010160009054906101000a900473ffffffffffffffffffffffffffffffffffffffff1673ffffffffffffffffffffffffffffffffffffffff166323b872dd610d03611f72565b30876040518463ffffffff1660e01b8152600401610d239392919061317a565b602060405180830381600087803b158015610d3d57600080fd5b505af1158015610d51573d6000803e3d6000fd5b505050506040513d601f19601f82011682018060405250810190610d759190612daa565b610d7e57600080fd5b600081600660010160009054906101000a900473ffffffffffffffffffffffffffffffffffffffff1673ffffffffffffffffffffffffffffffffffffffff166370a08231306040518263ffffffff1660e01b8152600401610ddf919061315f565b60206040518083038186803b158015610df757600080fd5b505afa158015610e0b573d6000803e3d6000fd5b505050506040513d601f19601f82011682018060405250810190610e2f9190612dfc565b610e3991906136e9565b905060008382670de0b6b3a7640000610e5291906135fb565b610e5c91906135ca565b9050610e81604051806060016040528060228152602001613dc2602291398284612629565b610e8b87826126c8565b8673ffffffffffffffffffffffffffffffffffffffff16600073ffffffffffffffffffffffffffffffffffffffff167fd94c96605b7cfa934c976dea75c09ddc9874e545045672180eb7be82d5c47a34836000604051610eec92919061347a565b60405180910390a38094505050505092915050565b610f12610f0c611f72565b82612813565b50565b600660000160009054906101000a900473ffffffffffffffffffffffffffffffffffffffff1673ffffffffffffffffffffffffffffffffffffffff16610f59611f72565b73ffffffffffffffffffffffffffffffffffffffff1614610faf576040517f08c379a0000000000000000000000000000000000000000000000000000000008152600401610fa69061329a565b60405180910390fd5b600073ffffffffffffffffffffffffffffffffffffffff168173ffffffffffffffffffffffffffffffffffffffff16141561101f576040517f08c379a00000000000000000000000000000000000000000000000000000000081526004016110169061333a565b60405180910390fd5b80600660000160006101000a81548173ffffffffffffffffffffffffffffffffffffffff021916908373ffffffffffffffffffffffffffffffffffffffff16021790555050565b600660000160009054906101000a900473ffffffffffffffffffffffffffffffffffffffff1673ffffffffffffffffffffffffffffffffffffffff166110aa611f72565b73ffffffffffffffffffffffffffffffffffffffff1614611100576040517f08c379a00000000000000000000000000000000000000000000000000000000081526004016110f79061329a565b60405180910390fd5b80600660020160006101000a81548173ffffffffffffffffffffffffffffffffffffffff021916908373ffffffffffffffffffffffffffffffffffffffff16021790555050565b6000600660020160009054906101000a900473ffffffffffffffffffffffffffffffffffffffff1673ffffffffffffffffffffffffffffffffffffffff1661118d611f72565b73ffffffffffffffffffffffffffffffffffffffff16146111e3576040517f08c379a00000000000000000000000000000000000000000000000000000000081526004016111da9061331a565b60405180910390fd5b60026005541415611229576040517f08c379a00000000000000000000000000000000000000000000000000000000081526004016112209061341a565b60405180910390fd5b60026005819055506000600a60008673ffffffffffffffffffffffffffffffffffffffff1673ffffffffffffffffffffffffffffffffffffffff1681526020019081526020016000206040518060600160405290816000820154815260200160018201548152602001600282015481525050905060006112a761062e565b9050600081670de0b6b3a7640000876112c091906135fb565b6112ca91906135ca565b90508085101561130f576040517f08c379a0000000000000000000000000000000000000000000000000000000008152600401611306906133fa565b60405180910390fd5b604051806060016040528087815260200186815260200183815250600a60008973ffffffffffffffffffffffffffffffffffffffff1673ffffffffffffffffffffffffffffffffffffffff168152602001908152602001600020600082015181600001556020820151816001015560408201518160020155905050600083602001518661139c9190613655565b9050600080821315611500578190506000600160008b73ffffffffffffffffffffffffffffffffffffffff1673ffffffffffffffffffffffffffffffffffffffff16815260200190815260200160002060006113f6611f72565b73ffffffffffffffffffffffffffffffffffffffff1673ffffffffffffffffffffffffffffffffffffffff1681526020019081526020016000205490506114508a61143f611f72565b848461144b91906136e9565b611f7a565b816000808c73ffffffffffffffffffffffffffffffffffffffff1673ffffffffffffffffffffffffffffffffffffffff168152602001908152602001600020600082825461149e91906136e9565b92505081905550816000803073ffffffffffffffffffffffffffffffffffffffff1673ffffffffffffffffffffffffffffffffffffffff16815260200190815260200160002060008282546114f39190613574565b92505081905550506115c1565b60008212156115c0578161151390613873565b9050806000808b73ffffffffffffffffffffffffffffffffffffffff1673ffffffffffffffffffffffffffffffffffffffff16815260200190815260200160002060008282546115639190613574565b92505081905550806000803073ffffffffffffffffffffffffffffffffffffffff1673ffffffffffffffffffffffffffffffffffffffff16815260200190815260200160002060008282546115b891906136e9565b925050819055505b5b60008560000151896115d39190613655565b9050600081131561169657600660010160009054906101000a900473ffffffffffffffffffffffffffffffffffffffff1673ffffffffffffffffffffffffffffffffffffffff1663a9059cbb8b836040518363ffffffff1660e01b815260040161163e9291906131f6565b602060405180830381600087803b15801561165857600080fd5b505af115801561166c573d6000803e3d6000fd5b505050506040513d601f19601f820116820180604052508101906116909190612daa565b5061175f565b600081121561175e57600660010160009054906101000a900473ffffffffffffffffffffffffffffffffffffffff1673ffffffffffffffffffffffffffffffffffffffff166323b872dd8b30846116ec90613873565b6040518463ffffffff1660e01b815260040161170a9392919061317a565b602060405180830381600087803b15801561172457600080fd5b505af1158015611738573d6000803e3d6000fd5b505050506040513d601f19601f8201168201806040525081019061175c9190612daa565b505b5b6001965050505050505060016005819055509392505050565b60008060008373ffffffffffffffffffffffffffffffffffffffff1673ffffffffffffffffffffffffffffffffffffffff168152602001908152602001600020549050919050565b60068060000160009054906101000a900473ffffffffffffffffffffffffffffffffffffffff16908060010160009054906101000a900473ffffffffffffffffffffffffffffffffffffffff16908060020160009054906101000a900473ffffffffffffffffffffffffffffffffffffffff16908060020160149054906101000a900460ff16905084565b600061185e83611859611f72565b611b72565b9050818110156118a3576040517f08c379a000000000000000000000000000000000000000000000000000000000815260040161189a9061337a565b60405180910390fd5b6118b7836118af611f72565b848403611f7a565b6118c18383612813565b505050565b600660000160009054906101000a900473ffffffffffffffffffffffffffffffffffffffff1673ffffffffffffffffffffffffffffffffffffffff1661190a611f72565b73ffffffffffffffffffffffffffffffffffffffff1614611960576040517f08c379a00000000000000000000000000000000000000000000000000000000081526004016119579061329a565b60405180910390fd5b82600660010160006101000a81548173ffffffffffffffffffffffffffffffffffffffff021916908373ffffffffffffffffffffffffffffffffffffffff16021790555081600390805190602001906119ba9291906129fe565b5080600490805190602001906119d19291906129fe565b50505050565b6060600480546119e690613810565b80601f0160208091040260200160405190810160405280929190818152602001828054611a1290613810565b8015611a5f5780601f10611a3457610100808354040283529160200191611a5f565b820191906000526020600020905b815481529060010190602001808311611a4257829003601f168201915b5050505050905090565b60008060016000611a78611f72565b73ffffffffffffffffffffffffffffffffffffffff1673ffffffffffffffffffffffffffffffffffffffff16815260200190815260200160002060008573ffffffffffffffffffffffffffffffffffffffff1673ffffffffffffffffffffffffffffffffffffffff16815260200190815260200160002054905082811015611b35576040517f08c379a0000000000000000000000000000000000000000000000000000000008152600401611b2c9061343a565b60405180910390fd5b611b49611b40611f72565b85858403611f7a565b600191505092915050565b6000611b68611b61611f72565b8484612458565b6001905092915050565b6000600160008473ffffffffffffffffffffffffffffffffffffffff1673ffffffffffffffffffffffffffffffffffffffff16815260200190815260200160002060008373ffffffffffffffffffffffffffffffffffffffff1673ffffffffffffffffffffffffffffffffffffffff16815260200190815260200160002054905092915050565b600080600960008473ffffffffffffffffffffffffffffffffffffffff1673ffffffffffffffffffffffffffffffffffffffff16815260200190815260200160002060009054906101000a900460ff166007811115611c81577f4e487b7100000000000000000000000000000000000000000000000000000000600052602160045260246000fd5b905060038110158015611c95575060048111155b80611ca05750600581115b15611caf576000915050611ccc565b6064600285611cbe91906135fb565b611cc891906135ca565b9150505b92915050565b600080600160008673ffffffffffffffffffffffffffffffffffffffff1673ffffffffffffffffffffffffffffffffffffffff1681526020019081526020016000206000611d1e611f72565b73ffffffffffffffffffffffffffffffffffffffff1673ffffffffffffffffffffffffffffffffffffffff168152602001908152602001600020549050611d7885611d67611f72565b8584611d7391906136e9565b611f7a565b611d83858585612145565b9150509392505050565b600660000160009054906101000a900473ffffffffffffffffffffffffffffffffffffffff1673ffffffffffffffffffffffffffffffffffffffff16611dd1611f72565b73ffffffffffffffffffffffffffffffffffffffff1614611e27576040517f08c379a0000000000000000000000000000000000000000000000000000000008152600401611e1e9061329a565b60405180910390fd5b80600660020160146101000a81548160ff02191690831515021790555050565b600660000160009054906101000a900473ffffffffffffffffffffffffffffffffffffffff1673ffffffffffffffffffffffffffffffffffffffff16611e8b611f72565b73ffffffffffffffffffffffffffffffffffffffff1614611ee1576040517f08c379a0000000000000000000000000000000000000000000000000000000008152600401611ed89061329a565b60405180910390fd5b80600960008473ffffffffffffffffffffffffffffffffffffffff1673ffffffffffffffffffffffffffffffffffffffff16815260200190815260200160002060006101000a81548160ff02191690836007811115611f69577f4e487b7100000000000000000000000000000000000000000000000000000000600052602160045260246000fd5b02179055505050565b600033905090565b600073ffffffffffffffffffffffffffffffffffffffff168373ffffffffffffffffffffffffffffffffffffffff161415611fea576040517f08c379a0000000000000000000000000000000000000000000000000000000008152600401611fe1906133ba565b60405180910390fd5b600073ffffffffffffffffffffffffffffffffffffffff168273ffffffffffffffffffffffffffffffffffffffff16141561205a576040517f08c379a0000000000000000000000000000000000000000000000000000000008152600401612051906132da565b60405180910390fd5b80600160008573ffffffffffffffffffffffffffffffffffffffff1673ffffffffffffffffffffffffffffffffffffffff16815260200190815260200160002060008473ffffffffffffffffffffffffffffffffffffffff1673ffffffffffffffffffffffffffffffffffffffff168152602001908152602001600020819055508173ffffffffffffffffffffffffffffffffffffffff168373ffffffffffffffffffffffffffffffffffffffff167f8c5be1e5ebec7d5bd14f71427d1e84f3dd0314c0f7b2291e5b200ac8c7c3b9258360405161213891906134cc565b60405180910390a3505050565b6000600660020160149054906101000a900460ff161561223657600660000160009054906101000a900473ffffffffffffffffffffffffffffffffffffffff1673ffffffffffffffffffffffffffffffffffffffff1663ece53132600660010160009054906101000a900473ffffffffffffffffffffffffffffffffffffffff166040518263ffffffff1660e01b81526004016121e2919061315f565b602060405180830381600087803b1580156121fc57600080fd5b505af1158015612210573d6000803e3d6000fd5b505050506040513d601f19601f820116820180604052508101906122349190612dfc565b505b600061224061062e565b9050826000808673ffffffffffffffffffffffffffffffffffffffff1673ffffffffffffffffffffffffffffffffffffffff168152602001908152602001600020600082825461229091906136e9565b9250508190555060006122a38486611bf9565b9050600081856122b391906136e9565b9050600083670de0b6b3a7640000836122cc91906135fb565b6122d691906135ca565b905085600260008282546122ea91906136e9565b92505081905550600073ffffffffffffffffffffffffffffffffffffffff168773ffffffffffffffffffffffffffffffffffffffff167fd94c96605b7cfa934c976dea75c09ddc9874e545045672180eb7be82d5c47a3488896040516123519291906134a3565b60405180910390a3600660010160009054906101000a900473ffffffffffffffffffffffffffffffffffffffff1673ffffffffffffffffffffffffffffffffffffffff1663a9059cbb89836040518363ffffffff1660e01b81526004016123b99291906131f6565b602060405180830381600087803b1580156123d357600080fd5b505af11580156123e7573d6000803e3d6000fd5b505050506040513d601f19601f8201168201806040525081019061240b9190612daa565b61244a576040517f08c379a0000000000000000000000000000000000000000000000000000000008152600401612441906133da565b60405180910390fd5b809450505050509392505050565b600073ffffffffffffffffffffffffffffffffffffffff168273ffffffffffffffffffffffffffffffffffffffff16141561249b5761249681610f01565b612624565b60008060008573ffffffffffffffffffffffffffffffffffffffff1673ffffffffffffffffffffffffffffffffffffffff16815260200190815260200160002054905060006124eb83868661084e565b905080600260008282546124ff91906136e9565b925050819055506000818461251491906136e9565b9050838361252291906136e9565b6000808873ffffffffffffffffffffffffffffffffffffffff1673ffffffffffffffffffffffffffffffffffffffff16815260200190815260200160002081905550806000808773ffffffffffffffffffffffffffffffffffffffff1673ffffffffffffffffffffffffffffffffffffffff16815260200190815260200160002060008282546125b29190613574565b925050819055508473ffffffffffffffffffffffffffffffffffffffff168673ffffffffffffffffffffffffffffffffffffffff167fd94c96605b7cfa934c976dea75c09ddc9874e545045672180eb7be82d5c47a3486856040516126189291906134a3565b60405180910390a35050505b505050565b6126c38383836040516024016126419392919061325c565b6040516020818303038152906040527f969cdd03000000000000000000000000000000000000000000000000000000007bffffffffffffffffffffffffffffffffffffffffffffffffffffffff19166020820180517bffffffffffffffffffffffffffffffffffffffffffffffffffffffff83818316178352505050506129d5565b505050565b600073ffffffffffffffffffffffffffffffffffffffff168273ffffffffffffffffffffffffffffffffffffffff161415612738576040517f08c379a000000000000000000000000000000000000000000000000000000000815260040161272f9061345a565b60405180910390fd5b806002600082825461274a9190613574565b92505081905550806000808473ffffffffffffffffffffffffffffffffffffffff1673ffffffffffffffffffffffffffffffffffffffff168152602001908152602001600020600082825461279f9190613574565b925050819055508173ffffffffffffffffffffffffffffffffffffffff16600073ffffffffffffffffffffffffffffffffffffffff167fd94c96605b7cfa934c976dea75c09ddc9874e545045672180eb7be82d5c47a3483600060405161280792919061347a565b60405180910390a35050565b600073ffffffffffffffffffffffffffffffffffffffff168273ffffffffffffffffffffffffffffffffffffffff161415612883576040517f08c379a000000000000000000000000000000000000000000000000000000000815260040161287a9061339a565b60405180910390fd5b60008060008473ffffffffffffffffffffffffffffffffffffffff1673ffffffffffffffffffffffffffffffffffffffff16815260200190815260200160002054905081811015612909576040517f08c379a0000000000000000000000000000000000000000000000000000000008152600401612900906132ba565b60405180910390fd5b8181036000808573ffffffffffffffffffffffffffffffffffffffff1673ffffffffffffffffffffffffffffffffffffffff16815260200190815260200160002081905550816002600082825461296091906136e9565b92505081905550600073ffffffffffffffffffffffffffffffffffffffff168373ffffffffffffffffffffffffffffffffffffffff167fd94c96605b7cfa934c976dea75c09ddc9874e545045672180eb7be82d5c47a348460006040516129c892919061347a565b60405180910390a3505050565b60008151905060006a636f6e736f6c652e6c6f679050602083016000808483855afa5050505050565b828054612a0a90613810565b90600052602060002090601f016020900481019282612a2c5760008555612a73565b82601f10612a4557805160ff1916838001178555612a73565b82800160010185558215612a73579182015b82811115612a72578251825591602001919060010190612a57565b5b509050612a809190612a84565b5090565b5b80821115612a9d576000816000905550600101612a85565b5090565b6000612ab4612aaf84613527565b613502565b905082815260208101848484011115612acc57600080fd5b612ad78482856137ce565b509392505050565b600081359050612aee81613d6c565b92915050565b600081359050612b0381613d83565b92915050565b600081519050612b1881613d83565b92915050565b600081359050612b2d81613d9a565b92915050565b600082601f830112612b4457600080fd5b8135612b54848260208601612aa1565b91505092915050565b600081359050612b6c81613daa565b92915050565b600081519050612b8181613daa565b92915050565b600060208284031215612b9957600080fd5b6000612ba784828501612adf565b91505092915050565b60008060408385031215612bc357600080fd5b6000612bd185828601612adf565b9250506020612be285828601612adf565b9150509250929050565b600080600060608486031215612c0157600080fd5b6000612c0f86828701612adf565b9350506020612c2086828701612adf565b9250506040612c3186828701612b5d565b9150509250925092565b60008060408385031215612c4e57600080fd5b6000612c5c85828601612adf565b9250506020612c6d85828601612b1e565b9150509250929050565b600080600060608486031215612c8c57600080fd5b6000612c9a86828701612adf565b935050602084013567ffffffffffffffff811115612cb757600080fd5b612cc386828701612b33565b925050604084013567ffffffffffffffff811115612ce057600080fd5b612cec86828701612b33565b9150509250925092565b60008060408385031215612d0957600080fd5b6000612d1785828601612adf565b9250506020612d2885828601612b5d565b9150509250929050565b600080600060608486031215612d4757600080fd5b6000612d5586828701612adf565b9350506020612d6686828701612b5d565b9250506040612d7786828701612b5d565b9150509250925092565b600060208284031215612d9357600080fd5b6000612da184828501612af4565b91505092915050565b600060208284031215612dbc57600080fd5b6000612dca84828501612b09565b91505092915050565b600060208284031215612de557600080fd5b6000612df384828501612b5d565b91505092915050565b600060208284031215612e0e57600080fd5b6000612e1c84828501612b72565b91505092915050565b60008060408385031215612e3857600080fd5b6000612e4685828601612b5d565b9250506020612e5785828601612adf565b9150509250929050565b600080600060608486031215612e7657600080fd5b6000612e8486828701612b5d565b9350506020612e9586828701612adf565b9250506040612ea686828701612adf565b9150509250925092565b612eb98161371d565b82525050565b612ec88161372f565b82525050565b612ed781613798565b82525050565b612ee6816137bc565b82525050565b6000612ef782613558565b612f018185613563565b9350612f118185602086016137dd565b612f1a81613978565b840191505092915050565b6000612f32602383613563565b9150612f3d82613989565b604082019050919050565b6000612f55602283613563565b9150612f60826139d8565b604082019050919050565b6000612f78602283613563565b9150612f8382613a27565b604082019050919050565b6000612f9b601d83613563565b9150612fa682613a76565b602082019050919050565b6000612fbe601d83613563565b9150612fc982613a9f565b602082019050919050565b6000612fe1603d83613563565b9150612fec82613ac8565b604082019050919050565b6000613004602883613563565b915061300f82613b17565b604082019050919050565b6000613027602483613563565b915061303282613b66565b604082019050919050565b600061304a602183613563565b915061305582613bb5565b604082019050919050565b600061306d602483613563565b915061307882613c04565b604082019050919050565b6000613090602283613563565b915061309b82613c53565b604082019050919050565b60006130b3601983613563565b91506130be82613ca2565b602082019050919050565b60006130d6601f83613563565b91506130e182613ccb565b602082019050919050565b60006130f9602583613563565b915061310482613cf4565b604082019050919050565b600061311c601f83613563565b915061312782613d43565b602082019050919050565b61313b81613745565b82525050565b61314a81613781565b82525050565b6131598161378b565b82525050565b60006020820190506131746000830184612eb0565b92915050565b600060608201905061318f6000830186612eb0565b61319c6020830185612eb0565b6131a96040830184613141565b949350505050565b60006080820190506131c66000830187612eb0565b6131d36020830186612ece565b6131e06040830185612eb0565b6131ed6060830184612ebf565b95945050505050565b600060408201905061320b6000830185612eb0565b6132186020830184613141565b9392505050565b60006020820190506132346000830184612ebf565b92915050565b600060208201905081810360008301526132548184612eec565b905092915050565b600060608201905081810360008301526132768186612eec565b90506132856020830185613141565b6132926040830184613141565b949350505050565b600060208201905081810360008301526132b381612f25565b9050919050565b600060208201905081810360008301526132d381612f48565b9050919050565b600060208201905081810360008301526132f381612f6b565b9050919050565b6000602082019050818103600083015261331381612f8e565b9050919050565b6000602082019050818103600083015261333381612fb1565b9050919050565b6000602082019050818103600083015261335381612fd4565b9050919050565b6000602082019050818103600083015261337381612ff7565b9050919050565b600060208201905081810360008301526133938161301a565b9050919050565b600060208201905081810360008301526133b38161303d565b9050919050565b600060208201905081810360008301526133d381613060565b9050919050565b600060208201905081810360008301526133f381613083565b9050919050565b60006020820190508181036000830152613413816130a6565b9050919050565b60006020820190508181036000830152613433816130c9565b9050919050565b60006020820190508181036000830152613453816130ec565b9050919050565b600060208201905081810360008301526134738161310f565b9050919050565b600060408201905061348f6000830185613132565b61349c6020830184612edd565b9392505050565b60006040820190506134b86000830185613132565b6134c56020830184613132565b9392505050565b60006020820190506134e16000830184613141565b92915050565b60006020820190506134fc6000830184613150565b92915050565b600061350c61351d565b90506135188282613842565b919050565b6000604051905090565b600067ffffffffffffffff82111561354257613541613949565b5b61354b82613978565b9050602081019050919050565b600081519050919050565b600082825260208201905092915050565b600061357f82613781565b915061358a83613781565b9250827fffffffffffffffffffffffffffffffffffffffffffffffffffffffffffffffff038211156135bf576135be6138bc565b5b828201905092915050565b60006135d582613781565b91506135e083613781565b9250826135f0576135ef6138eb565b5b828204905092915050565b600061360682613781565b915061361183613781565b9250817fffffffffffffffffffffffffffffffffffffffffffffffffffffffffffffffff048311821515161561364a576136496138bc565b5b828202905092915050565b60006136608261373b565b915061366b8361373b565b9250827f8000000000000000000000000000000000000000000000000000000000000000018212600084121516156136a6576136a56138bc565b5b827f7fffffffffffffffffffffffffffffffffffffffffffffffffffffffffffffff0182136000841216156136de576136dd6138bc565b5b828203905092915050565b60006136f482613781565b91506136ff83613781565b925082821015613712576137116138bc565b5b828203905092915050565b600061372882613761565b9050919050565b60008115159050919050565b6000819050919050565b60006fffffffffffffffffffffffffffffffff82169050919050565b600073ffffffffffffffffffffffffffffffffffffffff82169050919050565b6000819050919050565b600060ff82169050919050565b60006137a3826137aa565b9050919050565b60006137b582613761565b9050919050565b60006137c782613745565b9050919050565b82818337600083830152505050565b60005b838110156137fb5780820151818401526020810190506137e0565b8381111561380a576000848401525b50505050565b6000600282049050600182168061382857607f821691505b6020821081141561383c5761383b61391a565b5b50919050565b61384b82613978565b810181811067ffffffffffffffff8211171561386a57613869613949565b5b80604052505050565b600061387e8261373b565b91507f80000000000000000000000000000000000000000000000000000000000000008214156138b1576138b06138bc565b5b816000039050919050565b7f4e487b7100000000000000000000000000000000000000000000000000000000600052601160045260246000fd5b7f4e487b7100000000000000000000000000000000000000000000000000000000600052601260045260246000fd5b7f4e487b7100000000000000000000000000000000000000000000000000000000600052602260045260246000fd5b7f4e487b7100000000000000000000000000000000000000000000000000000000600052604160045260246000fd5b6000601f19601f8301169050919050565b7f5079726f546f6b656e3a204f6e6c79204c69717569646974792052656365697660008201527f65722e0000000000000000000000000000000000000000000000000000000000602082015250565b7f45524332303a206275726e20616d6f756e7420657863656564732062616c616e60008201527f6365000000000000000000000000000000000000000000000000000000000000602082015250565b7f45524332303a20617070726f766520746f20746865207a65726f20616464726560008201527f7373000000000000000000000000000000000000000000000000000000000000602082015250565b7f5079726f546f6b656e3a206261736520746f6b656e206e6f7420736574000000600082015250565b7f5079726f546f6b656e3a204f6e6c79204c6f616e204f6666696365722e000000600082015250565b7f5079726f546f6b656e3a204e6577204c6971756964697479205265636569766560008201527f722063616e6e6f7420626520746865207a65726f20616464726573732e000000602082015250565b7f45524332303a207472616e7366657220616d6f756e742065786365656473206160008201527f6c6c6f77616e6365000000000000000000000000000000000000000000000000602082015250565b7f45524332303a206275726e20616d6f756e74206578636565647320616c6c6f7760008201527f616e636500000000000000000000000000000000000000000000000000000000602082015250565b7f45524332303a206275726e2066726f6d20746865207a65726f2061646472657360008201527f7300000000000000000000000000000000000000000000000000000000000000602082015250565b7f45524332303a20617070726f76652066726f6d20746865207a65726f2061646460008201527f7265737300000000000000000000000000000000000000000000000000000000602082015250565b7f5079726f546f6b656e2072657365727665207472616e73666572206661696c6560008201527f642e000000000000000000000000000000000000000000000000000000000000602082015250565b7f5079726f3a20556e7375737461696e61626c65206c6f616e2e00000000000000600082015250565b7f5265656e7472616e637947756172643a207265656e7472616e742063616c6c00600082015250565b7f45524332303a2064656372656173656420616c6c6f77616e63652062656c6f7760008201527f207a65726f000000000000000000000000000000000000000000000000000000602082015250565b7f45524332303a206d696e7420746f20746865207a65726f206164647265737300600082015250565b613d758161371d565b8114613d8057600080fd5b50565b613d8c8161372f565b8114613d9757600080fd5b50565b60088110613da757600080fd5b50565b613db381613781565b8114613dbe57600080fd5b5056fe6d696e746564207079726f2025732c2062617365546f6b656e416d6f756e74202573a2646970667358221220d943e335de41b11b5f5f00894605568c384b865389fe56e114c9b0742a57b4de64736f6c63430008040033",
  "linkReferences": {},
  "deployedLinkReferences": {}
}