{
  "_format": "hh-sol-artifact-1",
  "contractName": "StrategySwapper",
  "sourceName": "contracts/strategies/StrategySwapper.sol",
  "abi": [
    {
      "inputs": [
        {
          "internalType": "address",
          "name": "addressProvider_",
          "type": "address"
        },
        {
          "internalType": "uint256",
          "name": "slippageTolerance_",
          "type": "uint256"
        }
      ],
      "stateMutability": "nonpayable",
      "type": "constructor"
    },
    {
      "anonymous": false,
      "inputs": [
        {
          "indexed": false,
          "internalType": "address",
          "name": "token",
          "type": "address"
        },
        {
          "indexed": false,
          "internalType": "address",
          "name": "curvePool",
          "type": "address"
        }
      ],
      "name": "SetCurvePool",
      "type": "event"
    },
    {
      "anonymous": false,
      "inputs": [
        {
          "indexed": false,
          "internalType": "uint256",
          "name": "value",
          "type": "uint256"
        }
      ],
      "name": "SetSlippageTolerance",
      "type": "event"
    },
    {
      "anonymous": false,
      "inputs": [
        {
          "indexed": false,
          "internalType": "address",
          "name": "token",
          "type": "address"
        },
        {
          "indexed": false,
          "internalType": "bool",
          "name": "swapViaUniswap",
          "type": "bool"
        }
      ],
      "name": "SetSwapViaUniswap",
      "type": "event"
    },
    {
      "inputs": [
        {
          "internalType": "address",
          "name": "tokenIn_",
          "type": "address"
        },
        {
          "internalType": "address",
          "name": "tokenOut_",
          "type": "address"
        },
        {
          "internalType": "uint256",
          "name": "amountIn_",
          "type": "uint256"
        }
      ],
      "name": "amountOut",
      "outputs": [
        {
          "internalType": "uint256",
          "name": "",
          "type": "uint256"
        }
      ],
      "stateMutability": "view",
      "type": "function"
    },
    {
      "inputs": [
        {
          "internalType": "address",
          "name": "",
          "type": "address"
        }
      ],
      "name": "curvePools",
      "outputs": [
        {
          "internalType": "contract ICurveSwapEth",
          "name": "",
          "type": "address"
        }
      ],
      "stateMutability": "view",
      "type": "function"
    },
    {
      "inputs": [],
      "name": "roleManager",
      "outputs": [
        {
          "internalType": "contract IRoleManager",
          "name": "",
          "type": "address"
        }
      ],
      "stateMutability": "view",
      "type": "function"
    },
    {
      "inputs": [
        {
          "internalType": "address",
          "name": "token_",
          "type": "address"
        },
        {
          "internalType": "address",
          "name": "curvePool_",
          "type": "address"
        }
      ],
      "name": "setCurvePool",
      "outputs": [],
      "stateMutability": "nonpayable",
      "type": "function"
    },
    {
      "inputs": [
        {
          "internalType": "uint256",
          "name": "slippageTolerance_",
          "type": "uint256"
        }
      ],
      "name": "setSlippageTolerance",
      "outputs": [],
      "stateMutability": "nonpayable",
      "type": "function"
    },
    {
      "inputs": [
        {
          "internalType": "address",
          "name": "token_",
          "type": "address"
        },
        {
          "internalType": "bool",
          "name": "swapViaUniswap_",
          "type": "bool"
        }
      ],
      "name": "setSwapViaUniswap",
      "outputs": [],
      "stateMutability": "nonpayable",
      "type": "function"
    },
    {
      "inputs": [],
      "name": "slippageTolerance",
      "outputs": [
        {
          "internalType": "uint256",
          "name": "",
          "type": "uint256"
        }
      ],
      "stateMutability": "view",
      "type": "function"
    },
    {
      "inputs": [
        {
          "internalType": "address",
          "name": "token_",
          "type": "address"
        }
      ],
      "name": "swapAllForWeth",
      "outputs": [],
      "stateMutability": "nonpayable",
      "type": "function"
    },
    {
      "inputs": [
        {
          "internalType": "address",
          "name": "token_",
          "type": "address"
        }
      ],
      "name": "swapAllWethForToken",
      "outputs": [],
      "stateMutability": "nonpayable",
      "type": "function"
    },
    {
      "inputs": [
        {
          "internalType": "address",
          "name": "token_",
          "type": "address"
        },
        {
          "internalType": "uint256",
          "name": "amount_",
          "type": "uint256"
        }
      ],
      "name": "swapForWeth",
      "outputs": [],
      "stateMutability": "nonpayable",
      "type": "function"
    },
    {
      "inputs": [
        {
          "internalType": "address",
          "name": "",
          "type": "address"
        }
      ],
      "name": "swapViaUniswap",
      "outputs": [
        {
          "internalType": "bool",
          "name": "",
          "type": "bool"
        }
      ],
      "stateMutability": "view",
      "type": "function"
    },
    {
      "stateMutability": "payable",
      "type": "receive"
    }
  ],
  "bytecode": "0x60c06040523480156200001157600080fd5b506040516200243238038062002432833981016040819052620000349162000120565b62000053826001600160a01b03166200007160201b620010c41760201c565b6001600160a01b039081166080529190911660a05260005562000174565b6040516321f8a72160e01b81526a3937b632a6b0b730b3b2b960a91b60048201526000906001600160a01b038316906321f8a7219060240160206040518083038186803b158015620000c257600080fd5b505afa158015620000d7573d6000803e3d6000fd5b505050506040513d601f19601f82011682018060405250810190620000fd91906200014f565b92915050565b80516001600160a01b03811681146200011b57600080fd5b919050565b600080604083850312156200013457600080fd5b6200013f8362000103565b9150602083015190509250929050565b6000602082840312156200016257600080fd5b6200016d8262000103565b9392505050565b60805160a05161227d620001b5600039600081816116b4015261181601526000818160ba015281816102750152818161051e01526106d1015261227d6000f3fe60806040526004361061009f5760003560e01c806358fd9be01161006457806358fd9be01461018757806373bf5dea146101a7578063a7888718146101c7578063b990ecf6146101fd578063bfb05d6b1461021d578063d03153aa1461025d57600080fd5b8062435da5146100ab578063117da1ee146100f757806321cce12f1461011957806325229d181461014757806354b4dc111461016757600080fd5b366100a657005b600080fd5b3480156100b757600080fd5b507f00000000000000000000000000000000000000000000000000000000000000005b6040516001600160a01b0390911681526020015b60405180910390f35b34801561010357600080fd5b50610117610112366004611d39565b610273565b005b34801561012557600080fd5b50610139610134366004611d67565b61046a565b6040519081526020016100ee565b34801561015357600080fd5b50610117610162366004611da8565b61049c565b34801561017357600080fd5b50610117610182366004611dd3565b61051c565b34801561019357600080fd5b506101176101a2366004611e0c565b6106cf565b3480156101b357600080fd5b506101176101c2366004611e3a565b6108fb565b3480156101d357600080fd5b506100da6101e2366004611da8565b6001602052600090815260409020546001600160a01b031681565b34801561020957600080fd5b50610117610218366004611da8565b610bf7565b34801561022957600080fd5b5061024d610238366004611da8565b60026020526000908152604090205460ff1681565b60405190151581526020016100ee565b34801561026957600080fd5b5061013960005481565b7f0000000000000000000000000000000000000000000000000000000000000000604051632474521560e21b815269676f7665726e616e636560b01b60048201523360248201526001600160a01b0391909116906391d148549060440160206040518083038186803b1580156102e857600080fd5b505afa1580156102fc573d6000803e3d6000fd5b505050506040513d601f19601f820116820180604052508101906103209190611e66565b60405180604001604052806013815260200172756e617574686f72697a65642061636365737360681b815250906103735760405162461bcd60e51b815260040161036a9190611eaf565b60405180910390fd5b5060408051808201909152601a81527f496e76616c696420736c69707061676520746f6c6572616e63650000000000006020820152670de0b6b3a76400008211156103d15760405162461bcd60e51b815260040161036a9190611eaf565b5060408051808201909152601a81527f496e76616c696420736c69707061676520746f6c6572616e63650000000000006020820152670b1a2bc2ec500000821161042e5760405162461bcd60e51b815260040161036a9190611eaf565b5060008190556040518181527fe4a7fd2711237e77309a9a16ff636a748dbf956fd91f6e6da800d9302f441a799060200160405180910390a150565b60008161047957506000610495565b60006104858584611153565b905061049184826113a5565b9150505b9392505050565b6040516370a0823160e01b81523360048201526105199082906001600160a01b038216906370a082319060240160206040518083038186803b1580156104e157600080fd5b505afa1580156104f5573d6000803e3d6000fd5b505050506040513d601f19601f820116820180604052508101906101c29190611ee2565b50565b7f0000000000000000000000000000000000000000000000000000000000000000604051632474521560e21b815269676f7665726e616e636560b01b60048201523360248201526001600160a01b0391909116906391d148549060440160206040518083038186803b15801561059157600080fd5b505afa1580156105a5573d6000803e3d6000fd5b505050506040513d601f19601f820116820180604052508101906105c99190611e66565b60405180604001604052806013815260200172756e617574686f72697a65642061636365737360681b815250906106135760405162461bcd60e51b815260040161036a9190611eaf565b506040805180820190915260188152771e995c9bc81859191c995cdcc81b9bdd08185b1b1bddd95960421b60208201526001600160a01b03831661066a5760405162461bcd60e51b815260040161036a9190611eaf565b506001600160a01b038216600081815260026020908152604091829020805460ff19168515159081179091558251938452908301527f068e81edf54f4fd12885a0fb373370f20859324cbf4788625505f01d4b4030cf91015b60405180910390a15050565b7f0000000000000000000000000000000000000000000000000000000000000000604051632474521560e21b815269676f7665726e616e636560b01b60048201523360248201526001600160a01b0391909116906391d148549060440160206040518083038186803b15801561074457600080fd5b505afa158015610758573d6000803e3d6000fd5b505050506040513d601f19601f8201168201806040525081019061077c9190611e66565b60405180604001604052806013815260200172756e617574686f72697a65642061636365737360681b815250906107c65760405162461bcd60e51b815260040161036a9190611eaf565b506040805180820190915260188152771e995c9bc81859191c995cdcc81b9bdd08185b1b1bddd95960421b60208201526001600160a01b03831661081d5760405162461bcd60e51b815260040161036a9190611eaf565b506001600160a01b03808316600090815260016020908152604091829020548251808401909352601883527f73616d652061646472657373206e6f7420616c6c6f7765640000000000000000918301919091529091838116911614156108965760405162461bcd60e51b815260040161036a9190611eaf565b506001600160a01b0382811660008181526001602090815260409182902080546001600160a01b031916948616948517905581519283528201929092527fc99581e03a01bc0e74719af7085e6d62b1a853b511cb673db6c840eb4ec648ca91016106c3565b80610904575050565b6109196001600160a01b0383163330846114d1565b6001600160a01b038083166000908152600160205260409020541673c02aaa39b223fe8d0a0e5c4f27ead9083c756cc28115610a7f57610959848361153c565b60008061096684876115e3565b91509150836001600160a01b0316635b41b9088284886109868a8c61169b565b6040516001600160e01b031960e087901b1681526004810194909452602484019290925260448301526064820152608401600060405180830381600087803b1580156109d157600080fd5b505af11580156109e5573d6000803e3d6000fd5b50506040516370a0823160e01b8152306004820152610a7792503391506001600160a01b038616906370a082319060240160206040518083038186803b158015610a2e57600080fd5b505afa158015610a42573d6000803e3d6000fd5b505050506040513d601f19601f82011682018060405250810190610a669190611ee2565b6001600160a01b0386169190611773565b505050505050565b6040805160028082526060820183526000926020830190803683370190505090508481600081518110610ab457610ab4611f11565b60200260200101906001600160a01b031690816001600160a01b0316815250508181600181518110610ae857610ae8611f11565b60200260200101906001600160a01b031690816001600160a01b0316815250506000610b13866117a8565b9050610b1f868261153c565b6000816001600160a01b03166338ed173987610b3b898b61169b565b8630426040518663ffffffff1660e01b8152600401610b5e959493929190611f6b565b600060405180830381600087803b158015610b7857600080fd5b505af1158015610b8c573d6000803e3d6000fd5b505050506040513d6000823e601f3d908101601f19168201604052610bb49190810190611fa7565b600181518110610bc657610bc6611f11565b60200260200101519050610bee3382866001600160a01b03166117739092919063ffffffff16565b50505050505050565b6040516370a0823160e01b815233600482015273c02aaa39b223fe8d0a0e5c4f27ead9083c756cc29060009082906370a082319060240160206040518083038186803b158015610c4657600080fd5b505afa158015610c5a573d6000803e3d6000fd5b505050506040513d601f19601f82011682018060405250810190610c7e9190611ee2565b905080610c8a57505050565b6040516323b872dd60e01b8152336004820152306024820152604481018290526001600160a01b038316906323b872dd90606401602060405180830381600087803b158015610cd857600080fd5b505af1158015610cec573d6000803e3d6000fd5b505050506040513d601f19601f82011682018060405250810190610d109190611e66565b506001600160a01b038316610e0c57604051632e1a7d4d60e01b8152600481018290526001600160a01b03831690632e1a7d4d90602401600060405180830381600087803b158015610d6157600080fd5b505af1158015610d75573d6000803e3d6000fd5b50506040516000925033915083908381818185875af1925050503d8060008114610dbb576040519150601f19603f3d011682016040523d82523d6000602084013e610dc0565b606091505b5050905080610e065760405162461bcd60e51b81526020600482015260126024820152710ccc2d2d8cac840e8de40e6cadcc840cae8d60731b604482015260640161036a565b50505050565b6001600160a01b03808416600090815260016020526040902054168015610f5557610e37838261153c565b600080610e4483876115e3565b91509150826001600160a01b0316635b41b908838387610e64898c6117fd565b6040516001600160e01b031960e087901b1681526004810194909452602484019290925260448301526064820152608401600060405180830381600087803b158015610eaf57600080fd5b505af1158015610ec3573d6000803e3d6000fd5b50506040516370a0823160e01b8152306004820152610a7792503391506001600160a01b038916906370a082319060240160206040518083038186803b158015610f0c57600080fd5b505afa158015610f20573d6000803e3d6000fd5b505050506040513d601f19601f82011682018060405250810190610f449190611ee2565b6001600160a01b0389169190611773565b6040805160028082526060820183526000926020830190803683370190505090508381600081518110610f8a57610f8a611f11565b60200260200101906001600160a01b031690816001600160a01b0316815250508481600181518110610fbe57610fbe611f11565b60200260200101906001600160a01b031690816001600160a01b0316815250506000610fe9866117a8565b9050610ff5858261153c565b6000816001600160a01b03166338ed173986611011888b6117fd565b8630426040518663ffffffff1660e01b8152600401611034959493929190611f6b565b600060405180830381600087803b15801561104e57600080fd5b505af1158015611062573d6000803e3d6000fd5b505050506040513d6000823e601f3d908101601f1916820160405261108a9190810190611fa7565b60018151811061109c5761109c611f11565b60200260200101519050610bee3382896001600160a01b03166117739092919063ffffffff16565b6040516321f8a72160e01b81526a3937b632a6b0b730b3b2b960a91b60048201526000906001600160a01b038316906321f8a721906024015b60206040518083038186803b15801561111557600080fd5b505afa158015611129573d6000803e3d6000fd5b505050506040513d601f19601f8201168201806040525081019061114d9190612065565b92915050565b6000816111625750600061114d565b73c02aaa39b223fe8d0a0e5c4f27ead9083c756cc26001600160a01b038416811415611191578291505061114d565b6001600160a01b0384166111a8578291505061114d565b6001600160a01b0380851660009081526001602052604090205416801561126d576000806111d683886115e3565b60405163556d6e9f60e01b815260048101829052602481018390526044810189905291935091506001600160a01b0384169063556d6e9f906064015b60206040518083038186803b15801561122a57600080fd5b505afa15801561123e573d6000803e3d6000fd5b505050506040513d601f19601f820116820180604052508101906112629190611ee2565b94505050505061114d565b60408051600280825260608201835260009260208301908036833701905050905085816000815181106112a2576112a2611f11565b60200260200101906001600160a01b031690816001600160a01b03168152505082816001815181106112d6576112d6611f11565b60200260200101906001600160a01b031690816001600160a01b0316815250506112ff866117a8565b6001600160a01b031663d06ca61f86836040518363ffffffff1660e01b815260040161132c929190612082565b60006040518083038186803b15801561134457600080fd5b505afa158015611358573d6000803e3d6000fd5b505050506040513d6000823e601f3d908101601f191682016040526113809190810190611fa7565b60018151811061139257611392611f11565b6020026020010151935050505092915050565b6000816113b45750600061114d565b73c02aaa39b223fe8d0a0e5c4f27ead9083c756cc26001600160a01b0384168114156113e3578291505061114d565b6001600160a01b0384166113fa578291505061114d565b6001600160a01b038085166000908152600160205260409020541680156114685760008061142883886115e3565b60405163556d6e9f60e01b815260048101839052602481018290526044810189905291935091506001600160a01b0384169063556d6e9f90606401611212565b604080516002808252606082018352600092602083019080368337019050509050828160008151811061149d5761149d611f11565b60200260200101906001600160a01b031690816001600160a01b03168152505085816001815181106112d6576112d6611f11565b6040516001600160a01b0380851660248301528316604482015260648101829052610e069085906323b872dd60e01b906084015b60408051601f198184030181529190526020810180516001600160e01b03166001600160e01b0319909316929092179091526118cf565b604051636eb1769f60e11b81523060048201526001600160a01b0382811660248301526000919084169063dd62ed3e9060440160206040518083038186803b15801561158757600080fd5b505afa15801561159b573d6000803e3d6000fd5b505050506040513d601f19601f820116820180604052508101906115bf9190611ee2565b11156115c9575050565b6115df6001600160a01b038316826000196119a1565b5050565b600080826001600160a01b0316846001600160a01b031663c661065760016040518263ffffffff1660e01b815260040161161f91815260200190565b60206040518083038186803b15801561163757600080fd5b505afa15801561164b573d6000803e3d6000fd5b505050506040513d601f19601f8201168201806040525081019061166f9190612065565b6001600160a01b031614611686576001600061168b565b600060015b60ff918216969116945092505050565b60006116a682611ac5565b6117696000546117636116e17f00000000000000000000000000000000000000000000000000000000000000006001600160a01b0316611b4e565b60405163e5ec9db960e01b81526001600160a01b038881166004830152919091169063e5ec9db99060240160206040518083038186803b15801561172457600080fd5b505afa158015611738573d6000803e3d6000fd5b505050506040513d601f19601f8201168201806040525081019061175c9190611ee2565b8790611b8e565b90611b8e565b61049591906120b1565b6040516001600160a01b0383166024820152604481018290526117a390849063a9059cbb60e01b90606401611505565b505050565b6001600160a01b03811660009081526002602052604081205460ff166117e25773d9e1ce17f2641f24ae83637ab66a2cca9c378b9f61114d565b737a250d5630b4cf539739df2c5dacb4c659f2488d92915050565b600061180882611ac5565b6118c56000546117636118437f00000000000000000000000000000000000000000000000000000000000000006001600160a01b0316611b4e565b60405163e5ec9db960e01b81526001600160a01b038881166004830152919091169063e5ec9db99060240160206040518083038186803b15801561188657600080fd5b505afa15801561189a573d6000803e3d6000fd5b505050506040513d601f19601f820116820180604052508101906118be9190611ee2565b8790611ba3565b61049591906120d0565b6000611924826040518060400160405280602081526020017f5361666545524332303a206c6f772d6c6576656c2063616c6c206661696c6564815250856001600160a01b0316611bb89092919063ffffffff16565b8051909150156117a357808060200190518101906119429190611e66565b6117a35760405162461bcd60e51b815260206004820152602a60248201527f5361666545524332303a204552433230206f7065726174696f6e20646964206e6044820152691bdd081cdd58d8d9595960b21b606482015260840161036a565b801580611a2a5750604051636eb1769f60e11b81523060048201526001600160a01b03838116602483015284169063dd62ed3e9060440160206040518083038186803b1580156119f057600080fd5b505afa158015611a04573d6000803e3d6000fd5b505050506040513d601f19601f82011682018060405250810190611a289190611ee2565b155b611a955760405162461bcd60e51b815260206004820152603660248201527f5361666545524332303a20617070726f76652066726f6d206e6f6e2d7a65726f60448201527520746f206e6f6e2d7a65726f20616c6c6f77616e636560501b606482015260840161036a565b6040516001600160a01b0383166024820152604481018290526117a390849063095ea7b360e01b90606401611505565b6000816001600160a01b031663313ce5676040518163ffffffff1660e01b815260040160206040518083038186803b158015611b0057600080fd5b505afa158015611b14573d6000803e3d6000fd5b505050506040513d601f19601f82011682018060405250810190611b3891906120f2565b611b43906012612115565b61114d90600a61221c565b6040516321f8a72160e01b81526d37b930b1b632a83937bb34b232b960911b60048201526000906001600160a01b038316906321f8a721906024016110fd565b6000670de0b6b3a76400006118c583856120b1565b6000816118c5670de0b6b3a7640000856120b1565b6060611bc78484600085611bcf565b949350505050565b606082471015611c305760405162461bcd60e51b815260206004820152602660248201527f416464726573733a20696e73756666696369656e742062616c616e636520666f6044820152651c8818d85b1b60d21b606482015260840161036a565b6001600160a01b0385163b611c875760405162461bcd60e51b815260206004820152601d60248201527f416464726573733a2063616c6c20746f206e6f6e2d636f6e7472616374000000604482015260640161036a565b600080866001600160a01b03168587604051611ca3919061222b565b60006040518083038185875af1925050503d8060008114611ce0576040519150601f19603f3d011682016040523d82523d6000602084013e611ce5565b606091505b5091509150611cf5828286611d00565b979650505050505050565b60608315611d0f575081610495565b825115611d1f5782518084602001fd5b8160405162461bcd60e51b815260040161036a9190611eaf565b600060208284031215611d4b57600080fd5b5035919050565b6001600160a01b038116811461051957600080fd5b600080600060608486031215611d7c57600080fd5b8335611d8781611d52565b92506020840135611d9781611d52565b929592945050506040919091013590565b600060208284031215611dba57600080fd5b813561049581611d52565b801515811461051957600080fd5b60008060408385031215611de657600080fd5b8235611df181611d52565b91506020830135611e0181611dc5565b809150509250929050565b60008060408385031215611e1f57600080fd5b8235611e2a81611d52565b91506020830135611e0181611d52565b60008060408385031215611e4d57600080fd5b8235611e5881611d52565b946020939093013593505050565b600060208284031215611e7857600080fd5b815161049581611dc5565b60005b83811015611e9e578181015183820152602001611e86565b83811115610e065750506000910152565b6020815260008251806020840152611ece816040850160208701611e83565b601f01601f19169190910160400192915050565b600060208284031215611ef457600080fd5b5051919050565b634e487b7160e01b600052604160045260246000fd5b634e487b7160e01b600052603260045260246000fd5b600081518084526020808501945080840160005b83811015611f605781516001600160a01b031687529582019590820190600101611f3b565b509495945050505050565b85815284602082015260a060408201526000611f8a60a0830186611f27565b6001600160a01b0394909416606083015250608001529392505050565b60006020808385031215611fba57600080fd5b825167ffffffffffffffff80821115611fd257600080fd5b818501915085601f830112611fe657600080fd5b815181811115611ff857611ff8611efb565b8060051b604051601f19603f8301168101818110858211171561201d5761201d611efb565b60405291825284820192508381018501918883111561203b57600080fd5b938501935b8285101561205957845184529385019392850192612040565b98975050505050505050565b60006020828403121561207757600080fd5b815161049581611d52565b828152604060208201526000611bc76040830184611f27565b634e487b7160e01b600052601160045260246000fd5b60008160001904831182151516156120cb576120cb61209b565b500290565b6000826120ed57634e487b7160e01b600052601260045260246000fd5b500490565b60006020828403121561210457600080fd5b815160ff8116811461049557600080fd5b600060ff821660ff84168082101561212f5761212f61209b565b90039392505050565b600181815b808511156121735781600019048211156121595761215961209b565b8085161561216657918102915b93841c939080029061213d565b509250929050565b60008261218a5750600161114d565b816121975750600061114d565b81600181146121ad57600281146121b7576121d3565b600191505061114d565b60ff8411156121c8576121c861209b565b50506001821b61114d565b5060208310610133831016604e8410600b84101617156121f6575081810a61114d565b6122008383612138565b80600019048211156122145761221461209b565b029392505050565b600061049560ff84168361217b565b6000825161223d818460208701611e83565b919091019291505056fea2646970667358221220f1a74795c9d458058609e7405b7fa971a167f95bd63272cdbedeb7dd8735930f64736f6c63430008090033",
  "linkReferences": {},
  "deployedLinkReferences": {}
}