{
  "_format": "hh-sol-artifact-1",
  "contractName": "InsuranceDeployerV1",
  "sourceName": "contracts/deployers/InsuranceDeployerV1.sol",
  "abi": [
    {
      "inputs": [
        {
          "internalType": "address",
          "name": "tracer",
          "type": "address"
        }
      ],
      "name": "deploy",
      "outputs": [
        {
          "internalType": "address",
          "name": "",
          "type": "address"
        }
      ],
      "stateMutability": "nonpayable",
      "type": "function"
    }
  ],
  "bytecode": "0x608060405234801561001057600080fd5b50612ba4806100206000396000f3fe608060405234801561001057600080fd5b506004361061002b5760003560e01c80634c96a38914610030575b600080fd5b61004361003e3660046100a4565b610059565b60405161005091906100df565b60405180910390f35b6000808260405161006990610097565b61007391906100df565b604051809103906000f08015801561008f573d6000803e3d6000fd5b509392505050565b612a6e8061010183390190565b6000602082840312156100b5578081fd5b813573ffffffffffffffffffffffffffffffffffffffff811681146100d8578182fd5b9392505050565b73ffffffffffffffffffffffffffffffffffffffff9190911681526020019056fe60806040523480156200001157600080fd5b5060405162002a6e38038062002a6e83398101604081905262000034916200020a565b600580546001600160a01b0319166001600160a01b0383161790556040516000906200006090620001fc565b6200006b906200023a565b604051809103906000f08015801562000088573d6000803e3d6000fd5b50600480546001600160a01b0319166001600160a01b03838116919091178255600554604080516369a2780f60e11b8152905194955091169263d344f01e92828101926020929190829003018186803b158015620000e557600080fd5b505afa158015620000fa573d6000803e3d6000fd5b505050506040513d601f19601f820116820180604052508101906200012091906200020a565b600180546001600160a01b0319166001600160a01b03928316179055600554604080516369a2780f60e11b81529051919092169163d344f01e916004808301926020929190829003018186803b1580156200017a57600080fd5b505afa1580156200018f573d6000803e3d6000fd5b505050506040513d601f19601f82011682018060405250810190620001b591906200020a565b6001600160a01b0316826001600160a01b03167ff39bf11ec1893da40cd3eed622b1dfe15357eeb253ca42528a053c03026d205760405160405180910390a3505062000280565b6111f1806200187d83390190565b6000602082840312156200021c578081fd5b81516001600160a01b038116811462000233578182fd5b9392505050565b6040808252601190820152702a3930b1b2b9102837b7b6102a37b5b2b760791b60608201526080602082018190526003908201526215141560ea1b60a082015260c00190565b6115ed80620002906000396000f3fe608060405234801561001057600080fd5b50600436106100ea5760003560e01c8063b6b55f251161008c578063dd5e5d1111610066578063dd5e5d1114610185578063ea882b251461018d578063ebbe226214610195578063fc0c546a146101a8576100ea565b8063b6b55f2514610157578063bb2cd8541461016a578063dd1cffb914610172576100ea565b806397cd676d116100c857806397cd676d14610137578063a16990f41461013f578063aabaecd614610147578063b575dc1b1461014f576100ea565b806304f3aef0146100ef57806320fc473b1461010d5780632e1a7d4d14610122575b600080fd5b6100f76101b0565b6040516101049190611330565b60405180910390f35b6101156101b6565b604051610104919061123a565b61013561013036600461120a565b6101c5565b005b6100f7610493565b610115610499565b6101156104a8565b6100f76104b7565b61013561016536600461120a565b6104cf565b61013561078d565b61013561018036600461120a565b610919565b6100f7610c6b565b6100f7610cff565b6100f76101a3366004611143565b610dfd565b610115610e9e565b60025481565b6005546001600160a01b031681565b6101cd61078d565b60006101d833610dfd565b9050818110156102035760405162461bcd60e51b81526004016101fa906112c2565b60405180910390fd5b60015460048054604080516318160ddd60e01b815290516001600160a01b0394851694909216926000926102969285926318160ddd928282019260209290829003018186803b15801561025557600080fd5b505afa158015610269573d6000803e3d6000fd5b505050506040513d601f19601f8201168201806040525081019061028d9190611222565b60025487610ead565b90506000610329600560009054906101000a90046001600160a01b03166001600160a01b03166327624b076040518163ffffffff1660e01b815260040160206040518083038186803b1580156102eb57600080fd5b505afa1580156102ff573d6000803e3d6000fd5b505050506040513d601f19601f820116820180604052508101906103239190611222565b83610ed9565b9050816002546103399190611575565b6002556040517f79cc67900000000000000000000000000000000000000000000000000000000081526001600160a01b038416906379cc6790906103839033908a90600401611272565b600060405180830381600087803b15801561039d57600080fd5b505af11580156103b1573d6000803e3d6000fd5b50506040517fa9059cbb0000000000000000000000000000000000000000000000000000000081526001600160a01b038716925063a9059cbb91506103fc9033908590600401611272565b602060405180830381600087803b15801561041657600080fd5b505af115801561042a573d6000803e3d6000fd5b505050506040513d601f19601f8201168201806040525081019061044e919061117b565b50600554604051839133916001600160a01b03909116907f63c96e213422c96c78f393c470017a2bec65c34e255bd5fc150bf6f6cb4b005a90600090a4505050505050565b60035481565b6000546001600160a01b031681565b6001546001600160a01b031681565b60006002546003546104c99190611371565b90505b90565b600154600554604080517f27624b0700000000000000000000000000000000000000000000000000000000815290516001600160a01b039384169360009316916327624b07916004808301926020929190829003018186803b15801561053457600080fd5b505afa158015610548573d6000803e3d6000fd5b505050506040513d601f19601f8201168201806040525081019061056c9190611222565b9050600061057a8285610ed9565b6040517f23b872dd0000000000000000000000000000000000000000000000000000000081529091506001600160a01b038416906323b872dd906105c69033903090869060040161124e565b602060405180830381600087803b1580156105e057600080fd5b505af11580156105f4573d6000803e3d6000fd5b505050506040513d601f19601f82011682018060405250810190610618919061117b565b5060006106258383610f06565b905061062f61078d565b60048054604080516318160ddd60e01b815290516001600160a01b03909216926000926106bb9285926318160ddd928282019260209290829003018186803b15801561067a57600080fd5b505afa15801561068e573d6000803e3d6000fd5b505050506040513d601f19601f820116820180604052508101906106b29190611222565b60025485610f3d565b6040517f40c10f190000000000000000000000000000000000000000000000000000000081529091506001600160a01b038316906340c10f19906107059033908590600401611272565b600060405180830381600087803b15801561071f57600080fd5b505af1158015610733573d6000803e3d6000fd5b50505050826002546107459190611371565b600255600554604051849133916001600160a01b03909116907f5972028664ef94f91d3223e269e09eda01f35a81b7cf13014b7f9c64e9b0758690600090a450505050505050565b6005546040517ff8b2cb4f0000000000000000000000000000000000000000000000000000000081526000916001600160a01b03169063f8b2cb4f906107d790309060040161123a565b60a06040518083038186803b1580156107ef57600080fd5b505afa158015610803573d6000803e3d6000fd5b505050506040513d601f19601f82011682018060405250810190610827919061119b565b51516005546040517f2e1a7d4d0000000000000000000000000000000000000000000000000000000081529192506001600160a01b031690632e1a7d4d90610873908490600401611330565b600060405180830381600087803b15801561088d57600080fd5b505af11580156108a1573d6000803e3d6000fd5b50505050600060025411156109045760006108ce826108c96002546108c46104b7565b610f6c565b610f81565b9050806002546108de9190611371565b60025560035481906108f1908490611371565b6108fb9190611575565b60035550610916565b806003546109129190611371565b6003555b50565b600560009054906101000a90046001600160a01b03166001600160a01b03166364c872c26040518163ffffffff1660e01b815260040160206040518083038186803b15801561096757600080fd5b505afa15801561097b573d6000803e3d6000fd5b505050506040513d601f19601f8201168201806040525081019061099f919061115f565b6001600160a01b0316336001600160a01b0316146109cf5760405162461bcd60e51b81526004016101fa9061128b565b600554604080517fd344f01e00000000000000000000000000000000000000000000000000000000815290516000926001600160a01b03169163d344f01e916004808301926020929190829003018186803b158015610a2d57600080fd5b505afa158015610a41573d6000803e3d6000fd5b505050506040513d601f19601f82011682018060405250810190610a65919061115f565b90506000610a716104b7565b9050808310610ac157670de0b6b3a76400006002541115610ab157610a9e670de0b6b3a764000082611575565b670de0b6b3a76400006002559250610ab7565b60035492505b6000600355610b4b565b600354831115610b3957670de0b6b3a76400006002541015610ae7576003549250610ab7565b670de0b6b3a7640000610afa8483611575565b1015610b1257610a9e670de0b6b3a764000082611575565b600354610b1f9084611575565b600254610b2c9190611575565b6002556000600355610b4b565b82600354610b479190611575565b6003555b6005546040517f095ea7b30000000000000000000000000000000000000000000000000000000081526001600160a01b038481169263095ea7b392610b9892909116908790600401611272565b602060405180830381600087803b158015610bb257600080fd5b505af1158015610bc6573d6000803e3d6000fd5b505050506040513d601f19601f82011682018060405250810190610bea919061117b565b506005546040517fb6b55f250000000000000000000000000000000000000000000000000000000081526001600160a01b039091169063b6b55f2590610c34908690600401611330565b600060405180830381600087803b158015610c4e57600080fd5b505af1158015610c62573d6000803e3d6000fd5b50505050505050565b60006064600560009054906101000a90046001600160a01b03166001600160a01b03166390c6e6946040518163ffffffff1660e01b815260040160206040518083038186803b158015610cbd57600080fd5b505afa158015610cd1573d6000803e3d6000fd5b505050506040513d601f19601f82011682018060405250810190610cf59190611222565b6104c99190611389565b600080660cf9bf5c1cf80090506000600560009054906101000a90046001600160a01b03166001600160a01b03166390c6e6946040518163ffffffff1660e01b815260040160206040518083038186803b158015610d5c57600080fd5b505afa158015610d70573d6000803e3d6000fd5b505050506040513d601f19601f82011682018060405250810190610d949190611222565b905080610da6576000925050506104cc565b6000610db06104b7565b90506000610dbc610c6b565b9050818111610dd25760009450505050506104cc565b6000610de7610de18484611575565b85610f6c565b9050610df38582610f81565b9550505050505090565b600480546040517f70a082310000000000000000000000000000000000000000000000000000000081526000926001600160a01b03909216916370a0823191610e489186910161123a565b60206040518083038186803b158015610e6057600080fd5b505afa158015610e74573d6000803e3d6000fd5b505050506040513d601f19601f82011682018060405250810190610e989190611222565b92915050565b6004546001600160a01b031681565b600083610ebc57506000610ed2565b610ecf610ec98486610f6c565b83610f81565b90505b9392505050565b600080610ee7846012611575565b610ef290600a6113ef565b9050610efe8184611389565b949350505050565b600080610f14846012611575565b610f1f90600a6113ef565b9050610f2a81610f8d565b610f3384610f8d565b610efe91906114bd565b600083610f4b575080610ed2565b82610f5857506000610ed2565b610f65610ec98585610f6c565b9050610ed2565b6000610ed283670de0b6b3a764000084610fd3565b6000610ed2838361107e565b60007f7fffffffffffffffffffffffffffffffffffffffffffffffffffffffffffffff821115610fcf5760405162461bcd60e51b81526004016101fa906112f9565b5090565b60008080600019858709868602925082811090839003039050806110095760008411610ffe57600080fd5b508290049050610ed2565b80841161101557600080fd5b60008486880960026001871981018816978890046003810283188082028403028082028403028082028403028082028403028082028403029081029092039091026000889003889004909101858311909403939093029303949094049190911702949350505050565b60008080600019848609848602925082811083820303915050600080670de0b6b3a76400008688099150506706f05b59d3b1ffff8111826110d15780670de0b6b3a7640000850401945050505050610e98565b82670de0b6b3a7640000116110e557600080fd5b6204000082850304939091119091037d40000000000000000000000000000000000000000000000000000000000002919091177faccb18165bd6fe31ae1cf318dc5b51eee0e1ba569b88cd74c1773b91fac106690201905092915050565b600060208284031215611154578081fd5b8135610ed2816115a2565b600060208284031215611170578081fd5b8151610ed2816115a2565b60006020828403121561118c578081fd5b81518015158114610ed2578182fd5b600081830360a08112156111ad578182fd5b6111b76080611339565b60408212156111c4578283fd5b6111ce6040611339565b91508351825260208401516020830152818152604084015160208201526060840151604082015260808401516060820152809250505092915050565b60006020828403121561121b578081fd5b5035919050565b600060208284031215611233578081fd5b5051919050565b6001600160a01b0391909116815260200190565b6001600160a01b039384168152919092166020820152604081019190915260600190565b6001600160a01b03929092168252602082015260400190565b6020808252601c908201527f494e533a2073656e646572206e6f74204c495120636f6e747261637400000000604082015260600190565b60208082526015908201527f494e533a2062616c616e6365203c20616d6f756e740000000000000000000000604082015260600190565b60208082526010908201527f75696e74323536206f766572666c6f7700000000000000000000000000000000604082015260600190565b90815260200190565b60405181810167ffffffffffffffff8111828210171561136957634e487b7160e01b600052604160045260246000fd5b604052919050565b600082198211156113845761138461158c565b500190565b6000826113a457634e487b7160e01b81526012600452602481fd5b500490565b80825b60018086116113bb57506113e6565b8187048211156113cd576113cd61158c565b808616156113da57918102915b9490941c9380026113ac565b94509492505050565b6000610ed2600019848460008261140857506001610ed2565b8161141557506000610ed2565b816001811461142b576002811461143557611462565b6001915050610ed2565b60ff8411156114465761144661158c565b6001841b91508482111561145c5761145c61158c565b50610ed2565b5060208310610133831016604e8410600b8410161715611495575081810a838111156114905761149061158c565b610ed2565b6114a284848460016113a9565b8086048211156114b4576114b461158c565b02949350505050565b60007f7fffffffffffffffffffffffffffffffffffffffffffffffffffffffffffffff818413828413858304851182821616156114fc576114fc61158c565b7f8000000000000000000000000000000000000000000000000000000000000000848712868205881281841616156115365761153661158c565b8587129250878205871284841616156115515761155161158c565b878505871281841616156115675761156761158c565b505050929093029392505050565b6000828210156115875761158761158c565b500390565b634e487b7160e01b600052601160045260246000fd5b6001600160a01b038116811461091657600080fdfea26469706673582212207d911a3f35f61e7fc580849cf0c5de2f791fec3198bb1b258f45855599d1384c64736f6c6343000800003360806040523480156200001157600080fd5b50604051620011f1380380620011f183398101604081905262000034916200022f565b8151829082906200004d906003906020850190620000de565b50805162000063906004906020840190620000de565b505050620000806200007a6200008860201b60201c565b6200008c565b5050620002e9565b3390565b600580546001600160a01b038381166001600160a01b0319831681179093556040519116919082907f8be0079c531659141344cd1fd0a4f28419497f9722a3daafe3b4186f6b6457e090600090a35050565b828054620000ec9062000296565b90600052602060002090601f0160209004810192826200011057600085556200015b565b82601f106200012b57805160ff19168380011785556200015b565b828001600101855582156200015b579182015b828111156200015b5782518255916020019190600101906200013e565b50620001699291506200016d565b5090565b5b808211156200016957600081556001016200016e565b600082601f83011262000195578081fd5b81516001600160401b0380821115620001b257620001b2620002d3565b6040516020601f8401601f1916820181018381118382101715620001da57620001da620002d3565b6040528382528584018101871015620001f1578485fd5b8492505b83831015620002145785830181015182840182015291820191620001f5565b838311156200022557848185840101525b5095945050505050565b6000806040838503121562000242578182fd5b82516001600160401b038082111562000259578384fd5b620002678683870162000184565b935060208501519150808211156200027d578283fd5b506200028c8582860162000184565b9150509250929050565b600281046001821680620002ab57607f821691505b60208210811415620002cd57634e487b7160e01b600052602260045260246000fd5b50919050565b634e487b7160e01b600052604160045260246000fd5b610ef880620002f96000396000f3fe608060405234801561001057600080fd5b506004361061011b5760003560e01c806370a08231116100b257806395d89b4111610081578063a9059cbb11610066578063a9059cbb14610234578063dd62ed3e14610247578063f2fde38b1461025a5761011b565b806395d89b4114610219578063a457c2d7146102215761011b565b806370a08231146101d6578063715018a6146101e957806379cc6790146101f15780638da5cb5b146102045761011b565b8063313ce567116100ee578063313ce56714610186578063395093511461019b57806340c10f19146101ae57806342966c68146101c35761011b565b806306fdde0314610120578063095ea7b31461013e57806318160ddd1461015e57806323b872dd14610173575b600080fd5b61012861026d565b6040516101359190610a11565b60405180910390f35b61015161014c3660046109b1565b6102ff565b6040516101359190610a06565b610166610321565b6040516101359190610e4c565b610151610181366004610976565b610327565b61018e610355565b6040516101359190610e55565b6101516101a93660046109b1565b61035a565b6101c16101bc3660046109b1565b610386565b005b6101c16101d13660046109da565b61039c565b6101666101e4366004610923565b6103b0565b6101c16103cf565b6101c16101ff3660046109b1565b6103e3565b61020c6103f5565b60405161013591906109f2565b610128610404565b61015161022f3660046109b1565b610413565b6101516102423660046109b1565b610464565b610166610255366004610944565b61047c565b6101c1610268366004610923565b6104a7565b60606003805461027c90610e87565b80601f01602080910402602001604051908101604052809291908181526020018280546102a890610e87565b80156102f55780601f106102ca576101008083540402835291602001916102f5565b820191906000526020600020905b8154815290600101906020018083116102d857829003601f168201915b5050505050905090565b60008061030a6104de565b90506103178185856104e2565b5060019392505050565b60025490565b6000806103326104de565b905061033f858285610596565b61034a8585856105e0565b506001949350505050565b601290565b6000806103656104de565b9050610317818585610377858961047c565b6103819190610e63565b6104e2565b61038e6106e1565b6103988282610720565b5050565b6103ad6103a76104de565b826107ca565b50565b6001600160a01b0381166000908152602081905260409020545b919050565b6103d76106e1565b6103e160006108a2565b565b6103eb6106e1565b61039882826107ca565b6005546001600160a01b031690565b60606004805461027c90610e87565b60008061041e6104de565b9050600061042c828661047c565b9050838110156104575760405162461bcd60e51b815260040161044e90610db8565b60405180910390fd5b61034a82868684036104e2565b60008061046f6104de565b90506103178185856105e0565b6001600160a01b03918216600090815260016020908152604080832093909416825291909152205490565b6104af6106e1565b6001600160a01b0381166104d55760405162461bcd60e51b815260040161044e90610b1e565b6103ad816108a2565b3390565b6001600160a01b0383166105085760405162461bcd60e51b815260040161044e90610d5b565b6001600160a01b03821661052e5760405162461bcd60e51b815260040161044e90610b7b565b6001600160a01b0380841660008181526001602090815260408083209487168084529490915290819020849055517f8c5be1e5ebec7d5bd14f71427d1e84f3dd0314c0f7b2291e5b200ac8c7c3b92590610589908590610e4c565b60405180910390a3505050565b60006105a2848461047c565b905060001981146105da57818110156105cd5760405162461bcd60e51b815260040161044e90610bd8565b6105da84848484036104e2565b50505050565b6001600160a01b0383166106065760405162461bcd60e51b815260040161044e90610cfe565b6001600160a01b03821661062c5760405162461bcd60e51b815260040161044e90610a64565b61063783838361089d565b6001600160a01b038316600090815260208190526040902054818110156106705760405162461bcd60e51b815260040161044e90610c0f565b6001600160a01b0380851660008181526020819052604080822086860390559286168082529083902080548601905591517fddf252ad1be2c89b69c2b068fc378daa952ba7f163c4a11628f55a4df523b3ef906106ce908690610e4c565b60405180910390a36105da84848461089d565b6106e96104de565b6001600160a01b03166106fa6103f5565b6001600160a01b0316146103e15760405162461bcd60e51b815260040161044e90610c6c565b6001600160a01b0382166107465760405162461bcd60e51b815260040161044e90610e15565b6107526000838361089d565b80600260008282546107649190610e63565b90915550506001600160a01b038216600081815260208190526040808220805485019055517fddf252ad1be2c89b69c2b068fc378daa952ba7f163c4a11628f55a4df523b3ef906107b6908590610e4c565b60405180910390a36103986000838361089d565b6001600160a01b0382166107f05760405162461bcd60e51b815260040161044e90610ca1565b6107fc8260008361089d565b6001600160a01b038216600090815260208190526040902054818110156108355760405162461bcd60e51b815260040161044e90610ac1565b6001600160a01b0383166000818152602081905260408082208585039055600280548690039055519091907fddf252ad1be2c89b69c2b068fc378daa952ba7f163c4a11628f55a4df523b3ef9061088d908690610e4c565b60405180910390a361089d836000845b505050565b600580546001600160a01b038381167fffffffffffffffffffffffff0000000000000000000000000000000000000000831681179093556040519116919082907f8be0079c531659141344cd1fd0a4f28419497f9722a3daafe3b4186f6b6457e090600090a35050565b80356001600160a01b03811681146103ca57600080fd5b600060208284031215610934578081fd5b61093d8261090c565b9392505050565b60008060408385031215610956578081fd5b61095f8361090c565b915061096d6020840161090c565b90509250929050565b60008060006060848603121561098a578081fd5b6109938461090c565b92506109a16020850161090c565b9150604084013590509250925092565b600080604083850312156109c3578182fd5b6109cc8361090c565b946020939093013593505050565b6000602082840312156109eb578081fd5b5035919050565b6001600160a01b0391909116815260200190565b901515815260200190565b6000602080835283518082850152825b81811015610a3d57858101830151858201604001528201610a21565b81811115610a4e5783604083870101525b50601f01601f1916929092016040019392505050565b60208082526023908201527f45524332303a207472616e7366657220746f20746865207a65726f206164647260408201527f6573730000000000000000000000000000000000000000000000000000000000606082015260800190565b60208082526022908201527f45524332303a206275726e20616d6f756e7420657863656564732062616c616e60408201527f6365000000000000000000000000000000000000000000000000000000000000606082015260800190565b60208082526026908201527f4f776e61626c653a206e6577206f776e657220697320746865207a65726f206160408201527f6464726573730000000000000000000000000000000000000000000000000000606082015260800190565b60208082526022908201527f45524332303a20617070726f766520746f20746865207a65726f20616464726560408201527f7373000000000000000000000000000000000000000000000000000000000000606082015260800190565b6020808252601d908201527f45524332303a20696e73756666696369656e7420616c6c6f77616e6365000000604082015260600190565b60208082526026908201527f45524332303a207472616e7366657220616d6f756e742065786365656473206260408201527f616c616e63650000000000000000000000000000000000000000000000000000606082015260800190565b6020808252818101527f4f776e61626c653a2063616c6c6572206973206e6f7420746865206f776e6572604082015260600190565b60208082526021908201527f45524332303a206275726e2066726f6d20746865207a65726f2061646472657360408201527f7300000000000000000000000000000000000000000000000000000000000000606082015260800190565b60208082526025908201527f45524332303a207472616e736665722066726f6d20746865207a65726f20616460408201527f6472657373000000000000000000000000000000000000000000000000000000606082015260800190565b60208082526024908201527f45524332303a20617070726f76652066726f6d20746865207a65726f2061646460408201527f7265737300000000000000000000000000000000000000000000000000000000606082015260800190565b60208082526025908201527f45524332303a2064656372656173656420616c6c6f77616e63652062656c6f7760408201527f207a65726f000000000000000000000000000000000000000000000000000000606082015260800190565b6020808252601f908201527f45524332303a206d696e7420746f20746865207a65726f206164647265737300604082015260600190565b90815260200190565b60ff91909116815260200190565b60008219821115610e8257634e487b7160e01b81526011600452602481fd5b500190565b600281046001821680610e9b57607f821691505b60208210811415610ebc57634e487b7160e01b600052602260045260246000fd5b5091905056fea2646970667358221220dbf9150c05ad4a9c28f465278ec50a9a783544fb63f8a1c28e7305ea9b8b208464736f6c63430008000033a2646970667358221220fe50f30ac198fffa19a0a8d02ee19eaea435f1dd50d461a14ecf6a035638f95464736f6c63430008000033",
  "linkReferences": {},
  "deployedLinkReferences": {}
}