{
  "_format": "hh-sol-artifact-1",
  "contractName": "PoolFactory",
  "sourceName": "contracts/pool/PoolFactory.sol",
  "abi": [
    {
      "inputs": [
        {
          "internalType": "contract IController",
          "name": "_controller",
          "type": "address"
        }
      ],
      "stateMutability": "nonpayable",
      "type": "constructor"
    },
    {
      "anonymous": false,
      "inputs": [
        {
          "indexed": false,
          "internalType": "bytes32",
          "name": "key",
          "type": "bytes32"
        },
        {
          "indexed": false,
          "internalType": "bytes32",
          "name": "name",
          "type": "bytes32"
        },
        {
          "indexed": false,
          "internalType": "address",
          "name": "implementation",
          "type": "address"
        }
      ],
      "name": "NewImplementation",
      "type": "event"
    },
    {
      "anonymous": false,
      "inputs": [
        {
          "indexed": false,
          "internalType": "address",
          "name": "pool",
          "type": "address"
        },
        {
          "indexed": false,
          "internalType": "address",
          "name": "vault",
          "type": "address"
        },
        {
          "indexed": false,
          "internalType": "address",
          "name": "lpToken",
          "type": "address"
        },
        {
          "indexed": false,
          "internalType": "address",
          "name": "stakerVault",
          "type": "address"
        }
      ],
      "name": "NewPool",
      "type": "event"
    },
    {
      "inputs": [
        {
          "internalType": "bytes32",
          "name": "name",
          "type": "bytes32"
        },
        {
          "internalType": "address",
          "name": "implementation",
          "type": "address"
        }
      ],
      "name": "addLpTokenImplementation",
      "outputs": [
        {
          "internalType": "bool",
          "name": "",
          "type": "bool"
        }
      ],
      "stateMutability": "nonpayable",
      "type": "function"
    },
    {
      "inputs": [
        {
          "internalType": "bytes32",
          "name": "name",
          "type": "bytes32"
        },
        {
          "internalType": "address",
          "name": "implementation",
          "type": "address"
        }
      ],
      "name": "addPoolImplementation",
      "outputs": [
        {
          "internalType": "bool",
          "name": "",
          "type": "bool"
        }
      ],
      "stateMutability": "nonpayable",
      "type": "function"
    },
    {
      "inputs": [
        {
          "internalType": "bytes32",
          "name": "name",
          "type": "bytes32"
        },
        {
          "internalType": "address",
          "name": "implementation",
          "type": "address"
        }
      ],
      "name": "addStakerVaultImplementation",
      "outputs": [
        {
          "internalType": "bool",
          "name": "",
          "type": "bool"
        }
      ],
      "stateMutability": "nonpayable",
      "type": "function"
    },
    {
      "inputs": [
        {
          "internalType": "bytes32",
          "name": "name",
          "type": "bytes32"
        },
        {
          "internalType": "address",
          "name": "implementation",
          "type": "address"
        }
      ],
      "name": "addVaultImplementation",
      "outputs": [
        {
          "internalType": "bool",
          "name": "",
          "type": "bool"
        }
      ],
      "stateMutability": "nonpayable",
      "type": "function"
    },
    {
      "inputs": [],
      "name": "addressProvider",
      "outputs": [
        {
          "internalType": "contract IAddressProvider",
          "name": "",
          "type": "address"
        }
      ],
      "stateMutability": "view",
      "type": "function"
    },
    {
      "inputs": [],
      "name": "controller",
      "outputs": [
        {
          "internalType": "contract IController",
          "name": "",
          "type": "address"
        }
      ],
      "stateMutability": "view",
      "type": "function"
    },
    {
      "inputs": [
        {
          "internalType": "string",
          "name": "poolName",
          "type": "string"
        },
        {
          "internalType": "uint256",
          "name": "depositCap",
          "type": "uint256"
        },
        {
          "internalType": "address",
          "name": "underlying",
          "type": "address"
        },
        {
          "components": [
            {
              "internalType": "string",
              "name": "name",
              "type": "string"
            },
            {
              "internalType": "string",
              "name": "symbol",
              "type": "string"
            },
            {
              "internalType": "uint8",
              "name": "decimals",
              "type": "uint8"
            }
          ],
          "internalType": "struct PoolFactory.LpTokenArgs",
          "name": "lpTokenArgs",
          "type": "tuple"
        },
        {
          "components": [
            {
              "internalType": "uint256",
              "name": "debtLimit",
              "type": "uint256"
            },
            {
              "internalType": "uint256",
              "name": "targetAllocation",
              "type": "uint256"
            },
            {
              "internalType": "uint256",
              "name": "bound",
              "type": "uint256"
            }
          ],
          "internalType": "struct PoolFactory.VaultArgs",
          "name": "vaultArgs",
          "type": "tuple"
        },
        {
          "components": [
            {
              "internalType": "bytes32",
              "name": "pool",
              "type": "bytes32"
            },
            {
              "internalType": "bytes32",
              "name": "vault",
              "type": "bytes32"
            },
            {
              "internalType": "bytes32",
              "name": "lpToken",
              "type": "bytes32"
            },
            {
              "internalType": "bytes32",
              "name": "stakerVault",
              "type": "bytes32"
            }
          ],
          "internalType": "struct PoolFactory.ImplementationNames",
          "name": "implementationNames",
          "type": "tuple"
        }
      ],
      "name": "deployPool",
      "outputs": [
        {
          "components": [
            {
              "internalType": "address",
              "name": "pool",
              "type": "address"
            },
            {
              "internalType": "address",
              "name": "vault",
              "type": "address"
            },
            {
              "internalType": "address",
              "name": "lpToken",
              "type": "address"
            },
            {
              "internalType": "address",
              "name": "stakerVault",
              "type": "address"
            }
          ],
          "internalType": "struct PoolFactory.Addresses",
          "name": "addrs",
          "type": "tuple"
        }
      ],
      "stateMutability": "nonpayable",
      "type": "function"
    },
    {
      "inputs": [
        {
          "internalType": "bytes32",
          "name": "",
          "type": "bytes32"
        },
        {
          "internalType": "bytes32",
          "name": "",
          "type": "bytes32"
        }
      ],
      "name": "implementations",
      "outputs": [
        {
          "internalType": "address",
          "name": "",
          "type": "address"
        }
      ],
      "stateMutability": "view",
      "type": "function"
    },
    {
      "inputs": [],
      "name": "roleManager",
      "outputs": [
        {
          "internalType": "contract IRoleManager",
          "name": "",
          "type": "address"
        }
      ],
      "stateMutability": "view",
      "type": "function"
    }
  ],
  "bytecode": "0x60e06040523480156200001157600080fd5b50604051620018fe380380620018fe83398101604081905262000034916200020c565b620000c7816001600160a01b0316632954018c6040518163ffffffff1660e01b815260040160206040518083038186803b1580156200007257600080fd5b505afa15801562000087573d6000803e3d6000fd5b505050506040513d601f19601f82011682018060405250810190620000ad91906200020c565b6001600160a01b03166200016160201b620010511760201c565b6001600160a01b03908116608052811660a081905260408051630a55006360e21b81529051632954018c91600480820192602092909190829003018186803b1580156200011357600080fd5b505afa15801562000128573d6000803e3d6000fd5b505050506040513d601f19601f820116820180604052508101906200014e91906200020c565b6001600160a01b031660c0525062000233565b6040516321f8a72160e01b81526a3937b632a6b0b730b3b2b960a91b60048201526000906001600160a01b038316906321f8a7219060240160206040518083038186803b158015620001b257600080fd5b505afa158015620001c7573d6000803e3d6000fd5b505050506040513d601f19601f82011682018060405250810190620001ed91906200020c565b92915050565b6001600160a01b03811681146200020957600080fd5b50565b6000602082840312156200021f57600080fd5b81516200022c81620001f3565b9392505050565b60805160a05160c05161166c620002926000396000818160db0152610f750152600081816101e50152610d6101526000818160990152818161020b015281816103270152818161043401528181610544015261067a015261166c6000f3fe608060405234801561001057600080fd5b50600436106100925760003560e01c806393ade8e71161006657806393ade8e714610133578063bbbaf17214610146578063d74009b214610159578063f6b6af7d146101af578063f77c4791146101e057600080fd5b8062435da5146100975780632954018c146100d6578063327bea89146100fd57806334e6cbad14610120575b600080fd5b7f00000000000000000000000000000000000000000000000000000000000000005b6040516001600160a01b0390911681526020015b60405180910390f35b6100b97f000000000000000000000000000000000000000000000000000000000000000081565b61011061010b366004611243565b610207565b60405190151581526020016100cd565b61011061012e366004611243565b610323565b610110610141366004611243565b610430565b610110610154366004611243565b610540565b61016c61016736600461129d565b610654565b6040516100cd919081516001600160a01b039081168252602080840151821690830152604080840151821690830152606092830151169181019190915260800190565b6100b96101bd366004611371565b60006020818152928152604080822090935290815220546001600160a01b031681565b6100b97f000000000000000000000000000000000000000000000000000000000000000081565b60007f0000000000000000000000000000000000000000000000000000000000000000604051632474521560e21b815269676f7665726e616e636560b01b60048201523360248201526001600160a01b0391909116906391d148549060440160206040518083038186803b15801561027e57600080fd5b505afa158015610292573d6000803e3d6000fd5b505050506040513d601f19601f820116820180604052508101906102b69190611393565b60405180604001604052806013815260200172756e617574686f72697a65642061636365737360681b815250906103095760405162461bcd60e51b815260040161030091906113b5565b60405180910390fd5b5061031c631c1bdbdb60e21b84846110df565b9392505050565b60007f0000000000000000000000000000000000000000000000000000000000000000604051632474521560e21b815269676f7665726e616e636560b01b60048201523360248201526001600160a01b0391909116906391d148549060440160206040518083038186803b15801561039a57600080fd5b505afa1580156103ae573d6000803e3d6000fd5b505050506040513d601f19601f820116820180604052508101906103d29190611393565b60405180604001604052806013815260200172756e617574686f72697a65642061636365737360681b8152509061041c5760405162461bcd60e51b815260040161030091906113b5565b5061031c641d985d5b1d60da1b84846110df565b60007f0000000000000000000000000000000000000000000000000000000000000000604051632474521560e21b815269676f7665726e616e636560b01b60048201523360248201526001600160a01b0391909116906391d148549060440160206040518083038186803b1580156104a757600080fd5b505afa1580156104bb573d6000803e3d6000fd5b505050506040513d601f19601f820116820180604052508101906104df9190611393565b60405180604001604052806013815260200172756e617574686f72697a65642061636365737360681b815250906105295760405162461bcd60e51b815260040161030091906113b5565b5061031c6736382fba37b5b2b760c11b84846110df565b60007f0000000000000000000000000000000000000000000000000000000000000000604051632474521560e21b815269676f7665726e616e636560b01b60048201523360248201526001600160a01b0391909116906391d148549060440160206040518083038186803b1580156105b757600080fd5b505afa1580156105cb573d6000803e3d6000fd5b505050506040513d601f19601f820116820180604052508101906105ef9190611393565b60405180604001604052806013815260200172756e617574686f72697a65642061636365737360681b815250906106395760405162461bcd60e51b815260040161030091906113b5565b5061031c6b1cdd185ad95c97dd985d5b1d60a21b84846110df565b6040805160808101825260008082526020820181905291810182905260608101919091527f0000000000000000000000000000000000000000000000000000000000000000604051632474521560e21b815269676f7665726e616e636560b01b60048201523360248201526001600160a01b0391909116906391d148549060440160206040518083038186803b1580156106ed57600080fd5b505afa158015610701573d6000803e3d6000fd5b505050506040513d601f19601f820116820180604052508101906107259190611393565b60405180604001604052806013815260200172756e617574686f72697a65642061636365737360681b8152509061076f5760405162461bcd60e51b815260040161030091906113b5565b5060408051608081018252600080825260208083018281528385018390526060808501849052873584527f41c12a0618fd8c91e4bd4c2bad3960a11ca69ecb61096f2afe909d647d705506835292859020546001600160a01b0316908190528451928301909452602a8083529293151592906115ae90830139906108065760405162461bcd60e51b815260040161030091906113b5565b5060408381013560009081527f509576413f2a764e16fca6f55b1b0b59f0c7d685debdb649e7380f6e646f85ec602090815290829020546001600160a01b0316808452825160608101909352602e80845290151592916115d890830139906108815760405162461bcd60e51b815260040161030091906113b5565b5060208381013560009081527f5a91006bbd508b31448de1f8d6457185050e71de2fb28afff373542928e213b98252604090819020546001600160a01b031660608085018290528251908101909252602b8083529015159261158390830139906108fe5760405162461bcd60e51b815260040161030091906113b5565b5060608084013560009081527f2cf082650f22d678d13e32cb83a8e9eb2f601f6cb0dd457ecf139323a1bac1aa6020908152604091829020546001600160a01b031684830181905282519384019092526031808452911515929190611606908301399061097e5760405162461bcd60e51b815260040161030091906113b5565b5061098c8160200151611183565b6001600160a01b0316825260608101516109a590611183565b6001600160a01b0390811660208401528616610b795760006001600160a01b031681602001516001600160a01b0316639816f4736040518163ffffffff1660e01b815260040160206040518083038186803b158015610a0357600080fd5b505afa158015610a17573d6000803e3d6000fd5b505050506040513d601f19601f82011682018060405250810190610a3b919061140a565b6001600160a01b0316146040518060600160405280602a81526020016115ae602a913990610a7c5760405162461bcd60e51b815260040161030091906113b5565b50610a8d6060860160408701611427565b60ff166012146040518060400160405280601c81526020017f696e636f7272656374206e756d626572206f6620646563696d616c730000000081525090610ae75760405162461bcd60e51b815260040161030091906113b5565b5081516020830151604051634f3bddeb60e01b81526001600160a01b0390921691634f3bddeb91610b21918d918d918d9190600401611473565b602060405180830381600087803b158015610b3b57600080fd5b505af1158015610b4f573d6000803e3d6000fd5b505050506040513d601f19601f82011682018060405250810190610b739190611393565b50610c07565b81516020830151604051632ad84a2b60e11b81526001600160a01b03909216916355b0945691610bb3918d918d918c918e916004016114a8565b602060405180830381600087803b158015610bcd57600080fd5b505af1158015610be1573d6000803e3d6000fd5b505050506040513d601f19601f82011682018060405250810190610c059190611393565b505b8051610c1290611183565b6001600160a01b03166040830181905263de7ea79d610c3187806114e6565b610c3e60208a018a6114e6565b610c4e60608c0160408d01611427565b88516040516001600160e01b031960e089901b168152610c7696959493929190600401611534565b602060405180830381600087803b158015610c9057600080fd5b505af1158015610ca4573d6000803e3d6000fd5b505050506040513d601f19601f82011682018060405250810190610cc89190611393565b50610cd68160400151611183565b6001600160a01b0390811660608401819052604080850151905163189acdbd60e31b8152921660048301529063c4d66de890602401600060405180830381600087803b158015610d2557600080fd5b505af1158015610d39573d6000803e3d6000fd5b50505050606082015160405163c1d84e0b60e01b81526001600160a01b0391821660048201527f00000000000000000000000000000000000000000000000000000000000000009091169063c1d84e0b90602401602060405180830381600087803b158015610da757600080fd5b505af1158015610dbb573d6000803e3d6000fd5b505050506040513d601f19601f82011682018060405250810190610ddf9190611393565b5081516040808401519051639ee933b560e01b81526001600160a01b039182166004820152911690639ee933b590602401602060405180830381600087803b158015610e2a57600080fd5b505af1158015610e3e573d6000803e3d6000fd5b505050506040513d601f19601f82011682018060405250810190610e629190611393565b5081600001516001600160a01b03166366f07dd26040518163ffffffff1660e01b8152600401602060405180830381600087803b158015610ea257600080fd5b505af1158015610eb6573d6000803e3d6000fd5b505050506040513d601f19601f82011682018060405250810190610eda9190611393565b50602082810151835160408051634ec81af160e01b81526001600160a01b0392831660048201528835602482015293880135604485015287013560648401521690634ec81af190608401600060405180830381600087803b158015610f3e57600080fd5b505af1158015610f52573d6000803e3d6000fd5b5050835160405163d914cd4b60e01b81526001600160a01b0391821660048201527f0000000000000000000000000000000000000000000000000000000000000000909116925063d914cd4b9150602401600060405180830381600087803b158015610fbd57600080fd5b505af1158015610fd1573d6000803e3d6000fd5b505083516020850151604080870151606088015191517f7485fd97aa22b8f3780a33f0f69ac8a5f0e479548977fe3fa7d9459698a2d8fe965061103d95509091906001600160a01b03948516815292841660208401529083166040830152909116606082015260800190565b60405180910390a150979650505050505050565b6040516321f8a72160e01b81526a3937b632a6b0b730b3b2b960a91b60048201526000906001600160a01b038316906321f8a7219060240160206040518083038186803b1580156110a157600080fd5b505afa1580156110b5573d6000803e3d6000fd5b505050506040513d601f19601f820116820180604052508101906110d9919061140a565b92915050565b600083815260208181526040808320858452918290528220546001600160a01b03161561111057600091505061031c565b6000848152602082815260409182902080546001600160a01b0387166001600160a01b0319909116811790915582518881529182018790528183015290517fb6995687d7ca103560700935c62676d62918daf01877efebce4eeeeb6bedd5129181900360600190a1506001949350505050565b6000604051733d602d80600a3d3981f3363d3d373d3d3d363d7360601b81528260601b60148201526e5af43d82803e903d91602b57fd5bf360881b60288201526037816000f09150506001600160a01b03811661121b5760405162461bcd60e51b8152602060048201526016602482015275115490cc4c4d8dce8818dc99585d194819985a5b195960521b6044820152606401610300565b919050565b6001600160a01b038116811461123557600080fd5b50565b803561121b81611220565b6000806040838503121561125657600080fd5b82359150602083013561126881611220565b809150509250929050565b60006060828403121561128557600080fd5b50919050565b60006080828403121561128557600080fd5b6000806000806000806000610160888a0312156112b957600080fd5b873567ffffffffffffffff808211156112d157600080fd5b818a0191508a601f8301126112e557600080fd5b8135818111156112f457600080fd5b8b602082850101111561130657600080fd5b60208381019a509098508a0135965061132160408b01611238565b955060608a013591508082111561133757600080fd5b506113448a828b01611273565b9350506113548960808a01611273565b91506113638960e08a0161128b565b905092959891949750929550565b6000806040838503121561138457600080fd5b50508035926020909101359150565b6000602082840312156113a557600080fd5b8151801515811461031c57600080fd5b600060208083528351808285015260005b818110156113e2578581018301518582016040015282016113c6565b818111156113f4576000604083870101525b50601f01601f1916929092016040019392505050565b60006020828403121561141c57600080fd5b815161031c81611220565b60006020828403121561143957600080fd5b813560ff8116811461031c57600080fd5b81835281816020850137506000828201602090810191909152601f909101601f19169091010190565b60608152600061148760608301868861144a565b6020830194909452506001600160a01b039190911660409091015292915050565b6080815260006114bc60808301878961144a565b6001600160a01b039586166020840152604083019490945250921660609092019190915292915050565b6000808335601e198436030181126114fd57600080fd5b83018035915067ffffffffffffffff82111561151857600080fd5b60200191503681900382131561152d57600080fd5b9250929050565b60808152600061154860808301888a61144a565b828103602084015261155b81878961144a565b60ff95909516604084015250506001600160a01b039190911660609091015294935050505056fe696e76616c6964207661756c7420696d706c656d656e746174696f6e20666f7220676976656e20636f696e696e76616c696420706f6f6c20696d706c656d656e746174696f6e20666f7220676976656e20636f696e696e76616c6964204c5020546f6b656e20696d706c656d656e746174696f6e20666f7220676976656e20636f696e696e76616c6964207374616b65725661756c7420696d706c656d656e746174696f6e20666f7220676976656e20636f696ea264697066735822122029164dbe9394afcae5f366a6ac5d3b17e50a789ed7169edbcb353c9a40ce335d64736f6c63430008090033",
  "linkReferences": {},
  "deployedLinkReferences": {}
}