{
  "_format": "hh-sol-artifact-1",
  "contractName": "ETHConvexStrategy",
  "sourceName": "contracts/v3/strategies/ETHConvexStrategy.sol",
  "abi": [
    {
      "inputs": [
        {
          "internalType": "string",
          "name": "_name",
          "type": "string"
        },
        {
          "internalType": "address",
          "name": "_want",
          "type": "address"
        },
        {
          "internalType": "address",
          "name": "_crv",
          "type": "address"
        },
        {
          "internalType": "address",
          "name": "_cvx",
          "type": "address"
        },
        {
          "internalType": "address",
          "name": "_weth",
          "type": "address"
        },
        {
          "internalType": "address",
          "name": "_aleth",
          "type": "address"
        },
        {
          "internalType": "uint256",
          "name": "_pid",
          "type": "uint256"
        },
        {
          "internalType": "contract IConvexVault",
          "name": "_convexVault",
          "type": "address"
        },
        {
          "internalType": "address",
          "name": "_stableSwapPool",
          "type": "address"
        },
        {
          "internalType": "address",
          "name": "_controller",
          "type": "address"
        },
        {
          "internalType": "address",
          "name": "_manager",
          "type": "address"
        },
        {
          "internalType": "address",
          "name": "_router",
          "type": "address"
        }
      ],
      "stateMutability": "nonpayable",
      "type": "constructor"
    },
    {
      "inputs": [],
      "name": "ONE_HUNDRED_PERCENT",
      "outputs": [
        {
          "internalType": "uint256",
          "name": "",
          "type": "uint256"
        }
      ],
      "stateMutability": "view",
      "type": "function"
    },
    {
      "inputs": [],
      "name": "aleth",
      "outputs": [
        {
          "internalType": "address",
          "name": "",
          "type": "address"
        }
      ],
      "stateMutability": "view",
      "type": "function"
    },
    {
      "inputs": [
        {
          "internalType": "contract IERC20",
          "name": "_token",
          "type": "address"
        },
        {
          "internalType": "address",
          "name": "_spender",
          "type": "address"
        },
        {
          "internalType": "uint256",
          "name": "_amount",
          "type": "uint256"
        }
      ],
      "name": "approveForSpender",
      "outputs": [],
      "stateMutability": "nonpayable",
      "type": "function"
    },
    {
      "inputs": [],
      "name": "balanceOf",
      "outputs": [
        {
          "internalType": "uint256",
          "name": "",
          "type": "uint256"
        }
      ],
      "stateMutability": "view",
      "type": "function"
    },
    {
      "inputs": [],
      "name": "balanceOfPool",
      "outputs": [
        {
          "internalType": "uint256",
          "name": "",
          "type": "uint256"
        }
      ],
      "stateMutability": "view",
      "type": "function"
    },
    {
      "inputs": [],
      "name": "balanceOfWant",
      "outputs": [
        {
          "internalType": "uint256",
          "name": "",
          "type": "uint256"
        }
      ],
      "stateMutability": "view",
      "type": "function"
    },
    {
      "inputs": [],
      "name": "controller",
      "outputs": [
        {
          "internalType": "address",
          "name": "",
          "type": "address"
        }
      ],
      "stateMutability": "view",
      "type": "function"
    },
    {
      "inputs": [],
      "name": "convexVault",
      "outputs": [
        {
          "internalType": "contract IConvexVault",
          "name": "",
          "type": "address"
        }
      ],
      "stateMutability": "view",
      "type": "function"
    },
    {
      "inputs": [],
      "name": "crv",
      "outputs": [
        {
          "internalType": "address",
          "name": "",
          "type": "address"
        }
      ],
      "stateMutability": "view",
      "type": "function"
    },
    {
      "inputs": [],
      "name": "crvRewards",
      "outputs": [
        {
          "internalType": "contract IConvexRewards",
          "name": "",
          "type": "address"
        }
      ],
      "stateMutability": "view",
      "type": "function"
    },
    {
      "inputs": [],
      "name": "cvx",
      "outputs": [
        {
          "internalType": "address",
          "name": "",
          "type": "address"
        }
      ],
      "stateMutability": "view",
      "type": "function"
    },
    {
      "inputs": [],
      "name": "cvxDepositLP",
      "outputs": [
        {
          "internalType": "address",
          "name": "",
          "type": "address"
        }
      ],
      "stateMutability": "view",
      "type": "function"
    },
    {
      "inputs": [],
      "name": "deposit",
      "outputs": [],
      "stateMutability": "nonpayable",
      "type": "function"
    },
    {
      "inputs": [],
      "name": "getMostPremium",
      "outputs": [
        {
          "internalType": "address",
          "name": "",
          "type": "address"
        },
        {
          "internalType": "uint256",
          "name": "",
          "type": "uint256"
        }
      ],
      "stateMutability": "view",
      "type": "function"
    },
    {
      "inputs": [
        {
          "internalType": "uint256",
          "name": "_estimatedWETH",
          "type": "uint256"
        },
        {
          "internalType": "uint256",
          "name": "_estimatedYAXIS",
          "type": "uint256"
        }
      ],
      "name": "harvest",
      "outputs": [],
      "stateMutability": "nonpayable",
      "type": "function"
    },
    {
      "inputs": [],
      "name": "manager",
      "outputs": [
        {
          "internalType": "contract IManager",
          "name": "",
          "type": "address"
        }
      ],
      "stateMutability": "view",
      "type": "function"
    },
    {
      "inputs": [],
      "name": "name",
      "outputs": [
        {
          "internalType": "string",
          "name": "",
          "type": "string"
        }
      ],
      "stateMutability": "view",
      "type": "function"
    },
    {
      "inputs": [],
      "name": "pid",
      "outputs": [
        {
          "internalType": "uint256",
          "name": "",
          "type": "uint256"
        }
      ],
      "stateMutability": "view",
      "type": "function"
    },
    {
      "inputs": [],
      "name": "router",
      "outputs": [
        {
          "internalType": "contract ISwap",
          "name": "",
          "type": "address"
        }
      ],
      "stateMutability": "view",
      "type": "function"
    },
    {
      "inputs": [
        {
          "internalType": "address",
          "name": "_router",
          "type": "address"
        }
      ],
      "name": "setRouter",
      "outputs": [],
      "stateMutability": "nonpayable",
      "type": "function"
    },
    {
      "inputs": [],
      "name": "skim",
      "outputs": [],
      "stateMutability": "nonpayable",
      "type": "function"
    },
    {
      "inputs": [],
      "name": "stableSwapPool",
      "outputs": [
        {
          "internalType": "contract IStableSwap2Pool",
          "name": "",
          "type": "address"
        }
      ],
      "stateMutability": "view",
      "type": "function"
    },
    {
      "inputs": [],
      "name": "want",
      "outputs": [
        {
          "internalType": "address",
          "name": "",
          "type": "address"
        }
      ],
      "stateMutability": "view",
      "type": "function"
    },
    {
      "inputs": [],
      "name": "weth",
      "outputs": [
        {
          "internalType": "address",
          "name": "",
          "type": "address"
        }
      ],
      "stateMutability": "view",
      "type": "function"
    },
    {
      "inputs": [
        {
          "internalType": "uint256",
          "name": "_amount",
          "type": "uint256"
        }
      ],
      "name": "withdraw",
      "outputs": [],
      "stateMutability": "nonpayable",
      "type": "function"
    },
    {
      "inputs": [
        {
          "internalType": "address",
          "name": "_asset",
          "type": "address"
        }
      ],
      "name": "withdraw",
      "outputs": [],
      "stateMutability": "nonpayable",
      "type": "function"
    },
    {
      "inputs": [],
      "name": "withdrawAll",
      "outputs": [],
      "stateMutability": "nonpayable",
      "type": "function"
    }
  ],
  "bytecode": "0x6102006040523480156200001257600080fd5b50604051620031fd380380620031fd83398181016040526101808110156200003957600080fd5b81019080805160405193929190846401000000008211156200005a57600080fd5b9083019060208201858111156200007057600080fd5b82516401000000008111828201881017156200008b57600080fd5b82525081516020918201929091019080838360005b83811015620000ba578181015183820152602001620000a0565b50505050905090810190601f168015620000e85780820380516001836020036101000a031916815260200191505b506040908152602082810151918301516060840151608085015160a086015160c087015160e08801516101008901516101208a01516101408b0151610160909b01518e519a9d50979b50959994989397929691959094909390928d91859185918f918d9187916200015f91600091890190620009bf565b50606083811b6001600160601b031990811660805286821b811660c05285821b811660e0529083901b1660a052600180546001600160a01b0319166001600160a01b0383811691909117909155620001c990831682600019620005ac602090811b6200103417901c565b50505050506001600160a01b038b161515905062000216576040805162461bcd60e51b815260206004820152600560248201526410afb1b93b60d91b604482015290519081900360640190fd5b6001600160a01b0389166200025a576040805162461bcd60e51b8152602060048201526005602482015264042bec6ecf60db1b604482015290519081900360640190fd5b6001600160a01b038716620002a0576040805162461bcd60e51b8152602060048201526007602482015266042bec2d8cae8d60cb1b604482015290519081900360640190fd5b6001600160a01b038516620002ec576040805162461bcd60e51b815260206004820152600d60248201526c0857d8dbdb9d995e15985d5b1d609a1b604482015290519081900360640190fd5b6001600160a01b0384166200033b576040805162461bcd60e51b815260206004820152601060248201526f0857dcdd18589b1954ddd85c141bdbdb60821b604482015290519081900360640190fd5b600080866001600160a01b0316631526fe27896040518263ffffffff1660e01b81526004018082815260200191505060c06040518083038186803b1580156200038357600080fd5b505afa15801562000398573d6000803e3d6000fd5b505050506040513d60c0811015620003af57600080fd5b8101908080519060200190929190805190602001909291908051906020019092919080519060200190929190805190602001909291908051906020019092919050505050509350509250508b6001600160a01b0316610100816001600160a01b031660601b815250508a6001600160a01b0316610120816001600160a01b031660601b81525050886001600160a01b0316610140816001600160a01b031660601b81525050876101608181525050866001600160a01b0316610180816001600160a01b031660601b81525050816001600160a01b03166101a0816001600160a01b031660601b81525050806001600160a01b03166101c0816001600160a01b031660601b81525050856001600160a01b03166101e0816001600160a01b031660601b81525050620004fc876000198f6001600160a01b0316620005ac60201b62001034179092919060201c565b62000523836000198e6001600160a01b0316620005ac60201b62001034179092919060201c565b6200054a836000198d6001600160a01b0316620005ac60201b62001034179092919060201c565b62000571866000198f6001600160a01b0316620005ac60201b62001034179092919060201c565b62000598866000198b6001600160a01b0316620005ac60201b62001034179092919060201c565b505050505050505050505050505062000a5b565b80158062000636575060408051636eb1769f60e11b81523060048201526001600160a01b03848116602483015291519185169163dd62ed3e91604480820192602092909190829003018186803b1580156200060657600080fd5b505afa1580156200061b573d6000803e3d6000fd5b505050506040513d60208110156200063257600080fd5b5051155b620006735760405162461bcd60e51b8152600401808060200182810382526036815260200180620031c76036913960400191505060405180910390fd5b604080516001600160a01b038416602482015260448082018490528251808303909101815260649091019091526020810180516001600160e01b0390811663095ea7b360e01b17909152620006cb918591620006d016565b505050565b60606200072c826040518060400160405280602081526020017f5361666545524332303a206c6f772d6c6576656c2063616c6c206661696c6564815250856001600160a01b03166200078c60201b62001147179092919060201c565b805190915015620006cb578080602001905160208110156200074d57600080fd5b5051620006cb5760405162461bcd60e51b815260040180806020018281038252602a8152602001806200319d602a913960400191505060405180910390fd5b60606200079d8484600085620007a7565b90505b9392505050565b606082471015620007ea5760405162461bcd60e51b8152600401808060200182810382526026815260200180620031776026913960400191505060405180910390fd5b620007f5856200090f565b62000847576040805162461bcd60e51b815260206004820152601d60248201527f416464726573733a2063616c6c20746f206e6f6e2d636f6e7472616374000000604482015290519081900360640190fd5b60006060866001600160a01b031685876040518082805190602001908083835b60208310620008885780518252601f19909201916020918201910162000867565b6001836020036101000a03801982511681845116808217855250505050505090500191505060006040518083038185875af1925050503d8060008114620008ec576040519150601f19603f3d011682016040523d82523d6000602084013e620008f1565b606091505b5090925090506200090482828662000915565b979650505050505050565b3b151590565b6060831562000926575081620007a0565b825115620009375782518084602001fd5b8160405162461bcd60e51b81526004018080602001828103825283818151815260200191508051906020019080838360005b838110156200098357818101518382015260200162000969565b50505050905090810190601f168015620009b15780820380516001836020036101000a031916815260200191505b509250505060405180910390fd5b828054600181600116156101000203166002900490600052602060002090601f016020900481019282601f1062000a0257805160ff191683800117855562000a32565b8280016001018555821562000a32579182015b8281111562000a3257825182559160200191906001019062000a15565b5062000a4092915062000a44565b5090565b5b8082111562000a40576000815560010162000a45565b60805160601c60a05160601c60c05160601c60e05160601c6101005160601c6101205160601c6101405160601c610160516101805160601c6101a05160601c6101c05160601c6101e05160601c61258562000bf2600039806107465280610798528061228a525080610c1352806115e8528061167c5280611cde52508061049e52806109fc525080610a2052806113af52806114a45280611c01525080610fdf52806113de528061146d5280611c305250806103ea52806108335280612203525080610bef52806114f8528061159c525080610a4452806115bd528061183752508061076a5280610c375280610ee75280611fb052508061054552806105aa528061063352806106f7528061087852806109d05280610a915280610bc55280610e025280610e7b52806110035250806107225280610d2a5280610d5f52806117fe528061188652806118b55280611ee95280611f2f528061208252806121575250806105db528061060652806106d552806108e45280610afd5280610ba35280610d8c528061120252806112a852506125856000f3fe608060405234801561001057600080fd5b50600436106101a95760003560e01c80636a4874a1116100f9578063d0e30db011610097578063ef9e237911610071578063ef9e23791461039a578063f1068454146103d0578063f77c4791146103d8578063f887ea40146103e0576101a9565b8063d0e30db014610367578063dd0081c71461036f578063e4a4b7b114610377576101a9565b8063923c1d61116100d3578063923c1d6114610329578063b6bff29514610331578063c0d7865514610339578063c1a3d44c1461035f576101a9565b80636a4874a114610311578063722713f714610319578063853828b614610321576101a9565b80633fc8cef31161016657806348677dbe1161014057806348677dbe146102b057806351cff8d9146102db57806361c08ff614610301578063689538e714610309576101a9565b80633fc8cef3146102985780634362c0d1146102a0578063481c6a75146102a8576101a9565b8063033f225b146101ae57806306fdde03146101d2578063115880861461024f5780631dd19cb4146102695780631f1fcd51146102735780632e1a7d4d1461027b575b600080fd5b6101b66103e8565b604080516001600160a01b039092168252519081900360200190f35b6101da61040c565b6040805160208082528351818301528351919283929083019185019080838360005b838110156102145781810151838201526020016101fc565b50505050905090810190601f1680156102415780820380516001836020036101000a031916815260200191505b509250505060405180910390f35b61025761049a565b60408051918252519081900360200190f35b61027161053a565b005b6101b6610604565b6102716004803603602081101561029157600080fd5b5035610628565b6101b6610720565b6101b6610744565b6101b6610768565b6102b861078c565b604080516001600160a01b03909316835260208301919091528051918290030190f35b610271600480360360208110156102f157600080fd5b50356001600160a01b031661086d565b6101b66109fa565b6101b6610a1e565b6101b6610a42565b610257610a66565b610271610a86565b6101b6610bed565b6101b6610c11565b6102716004803603602081101561034f57600080fd5b50356001600160a01b0316610c35565b610257610d88565b610271610df7565b610257610e6a565b6102716004803603604081101561038d57600080fd5b5080359060200135610e70565b610271600480360360608110156103b057600080fd5b506001600160a01b03813581169160208101359091169060400135610ee5565b610257610fdd565b6101b6611001565b6101b6611025565b7f000000000000000000000000000000000000000000000000000000000000000081565b6000805460408051602060026001851615610100026000190190941693909304601f810184900484028201840190925281815292918301828280156104925780601f1061046757610100808354040283529160200191610492565b820191906000526020600020905b81548152906001019060200180831161047557829003601f168201915b505050505081565b60007f00000000000000000000000000000000000000000000000000000000000000006001600160a01b03166370a08231306040518263ffffffff1660e01b815260040180826001600160a01b0316815260200191505060206040518083038186803b15801561050957600080fd5b505afa15801561051d573d6000803e3d6000fd5b505050506040513d602081101561053357600080fd5b5051905090565b336001600160a01b037f000000000000000000000000000000000000000000000000000000000000000016146105a5576040805162461bcd60e51b815260206004820152600b60248201526a10b1b7b73a3937b63632b960a91b604482015290519081900360640190fd5b6106027f00000000000000000000000000000000000000000000000000000000000000006105d1610d88565b6001600160a01b037f0000000000000000000000000000000000000000000000000000000000000000169190611160565b565b7f000000000000000000000000000000000000000000000000000000000000000081565b336001600160a01b037f00000000000000000000000000000000000000000000000000000000000000001614610693576040805162461bcd60e51b815260206004820152600b60248201526a10b1b7b73a3937b63632b960a91b604482015290519081900360640190fd5b600061069d610d88565b9050818110156106c8576106b96106b483836111b2565b6111fd565b91506106c58282611353565b91505b61071c6001600160a01b037f0000000000000000000000000000000000000000000000000000000000000000167f000000000000000000000000000000000000000000000000000000000000000084611160565b5050565b7f000000000000000000000000000000000000000000000000000000000000000081565b7f000000000000000000000000000000000000000000000000000000000000000081565b7f000000000000000000000000000000000000000000000000000000000000000081565b600080600047905060007f00000000000000000000000000000000000000000000000000000000000000006001600160a01b0316634903b0d160016040518263ffffffff1660e01b81526004018082815260200191505060206040518083038186803b1580156107fb57600080fd5b505afa15801561080f573d6000803e3d6000fd5b505050506040513d602081101561082557600080fd5b505190508082111561085f577f00000000000000000000000000000000000000000000000000000000000000006001935093505050610869565b6000809350935050505b9091565b336001600160a01b037f000000000000000000000000000000000000000000000000000000000000000016146108d8576040805162461bcd60e51b815260206004820152600b60248201526a10b1b7b73a3937b63632b960a91b604482015290519081900360640190fd5b806001600160a01b03167f00000000000000000000000000000000000000000000000000000000000000006001600160a01b03161415610948576040805162461bcd60e51b815260206004808301919091526024820152631dd85b9d60e21b604482015290519081900360640190fd5b604080516370a0823160e01b8152306004820152905182916000916001600160a01b038416916370a08231916024808301926020929190829003018186803b15801561099357600080fd5b505afa1580156109a7573d6000803e3d6000fd5b505050506040513d60208110156109bd57600080fd5b505190506109f56001600160a01b0383167f000000000000000000000000000000000000000000000000000000000000000083611160565b505050565b7f000000000000000000000000000000000000000000000000000000000000000081565b7f000000000000000000000000000000000000000000000000000000000000000081565b7f000000000000000000000000000000000000000000000000000000000000000081565b6000610a81610a7361049a565b610a7b610d88565b90611353565b905090565b336001600160a01b037f00000000000000000000000000000000000000000000000000000000000000001614610af1576040805162461bcd60e51b815260206004820152600b60248201526a10b1b7b73a3937b63632b960a91b604482015290519081900360640190fd5b610af96113ad565b60007f00000000000000000000000000000000000000000000000000000000000000006001600160a01b03166370a08231306040518263ffffffff1660e01b815260040180826001600160a01b0316815260200191505060206040518083038186803b158015610b6857600080fd5b505afa158015610b7c573d6000803e3d6000fd5b505050506040513d6020811015610b9257600080fd5b50519050610bea6001600160a01b037f0000000000000000000000000000000000000000000000000000000000000000167f000000000000000000000000000000000000000000000000000000000000000083611160565b50565b7f000000000000000000000000000000000000000000000000000000000000000081565b7f000000000000000000000000000000000000000000000000000000000000000081565b7f00000000000000000000000000000000000000000000000000000000000000006001600160a01b0316635aa6e6756040518163ffffffff1660e01b815260040160206040518083038186803b158015610c8e57600080fd5b505afa158015610ca2573d6000803e3d6000fd5b505050506040513d6020811015610cb857600080fd5b50516001600160a01b03163314610d04576040805162461bcd60e51b815260206004820152600b60248201526a21676f7665726e616e636560a81b604482015290519081900360640190fd5b600180546001600160a01b0319166001600160a01b0383811691909117909155610d52907f000000000000000000000000000000000000000000000000000000000000000016826000611034565b610bea6001600160a01b037f00000000000000000000000000000000000000000000000000000000000000001682600019611034565b60007f00000000000000000000000000000000000000000000000000000000000000006001600160a01b03166370a08231306040518263ffffffff1660e01b815260040180826001600160a01b0316815260200191505060206040518083038186803b15801561050957600080fd5b336001600160a01b037f00000000000000000000000000000000000000000000000000000000000000001614610e62576040805162461bcd60e51b815260206004820152600b60248201526a10b1b7b73a3937b63632b960a91b604482015290519081900360640190fd5b61060261145d565b61271081565b336001600160a01b037f00000000000000000000000000000000000000000000000000000000000000001614610edb576040805162461bcd60e51b815260206004820152600b60248201526a10b1b7b73a3937b63632b960a91b604482015290519081900360640190fd5b61071c82826114ec565b7f00000000000000000000000000000000000000000000000000000000000000006001600160a01b0316635aa6e6756040518163ffffffff1660e01b815260040160206040518083038186803b158015610f3e57600080fd5b505afa158015610f52573d6000803e3d6000fd5b505050506040513d6020811015610f6857600080fd5b50516001600160a01b03163314610fb4576040805162461bcd60e51b815260206004820152600b60248201526a21676f7665726e616e636560a81b604482015290519081900360640190fd5b610fc96001600160a01b038416836000611034565b6109f56001600160a01b0384168383611034565b7f000000000000000000000000000000000000000000000000000000000000000081565b7f000000000000000000000000000000000000000000000000000000000000000081565b6001546001600160a01b031681565b8015806110ba575060408051636eb1769f60e11b81523060048201526001600160a01b03848116602483015291519185169163dd62ed3e91604480820192602092909190829003018186803b15801561108c57600080fd5b505afa1580156110a0573d6000803e3d6000fd5b505050506040513d60208110156110b657600080fd5b5051155b6110f55760405162461bcd60e51b815260040180806020018281038252603681526020018061251a6036913960400191505060405180910390fd5b604080516001600160a01b038416602482015260448082018490528251808303909101815260649091019091526020810180516001600160e01b031663095ea7b360e01b1790526109f590849061195b565b60606111568484600085611a0c565b90505b9392505050565b604080516001600160a01b038416602482015260448082018490528251808303909101815260649091019091526020810180516001600160e01b031663a9059cbb60e01b1790526109f590849061195b565b60006111f483836040518060400160405280601e81526020017f536166654d6174683a207375627472616374696f6e206f766572666c6f770000815250611b68565b90505b92915050565b6000807f00000000000000000000000000000000000000000000000000000000000000006001600160a01b03166370a08231306040518263ffffffff1660e01b815260040180826001600160a01b0316815260200191505060206040518083038186803b15801561126d57600080fd5b505afa158015611281573d6000803e3d6000fd5b505050506040513d602081101561129757600080fd5b505190506112a483611bff565b60007f00000000000000000000000000000000000000000000000000000000000000006001600160a01b03166370a08231306040518263ffffffff1660e01b815260040180826001600160a01b0316815260200191505060206040518083038186803b15801561131357600080fd5b505afa158015611327573d6000803e3d6000fd5b505050506040513d602081101561133d57600080fd5b5051905061134b81836111b2565b949350505050565b6000828201838110156111f4576040805162461bcd60e51b815260206004820152601b60248201527f536166654d6174683a206164646974696f6e206f766572666c6f770000000000604482015290519081900360640190fd5b7f00000000000000000000000000000000000000000000000000000000000000006001600160a01b031663958e2d317f00000000000000000000000000000000000000000000000000000000000000006040518263ffffffff1660e01b815260040180828152602001915050602060405180830381600087803b15801561143357600080fd5b505af1158015611447573d6000803e3d6000fd5b505050506040513d602081101561071c57600080fd5b6040805163303acfe760e11b81527f000000000000000000000000000000000000000000000000000000000000000060048201526001602482015290516001600160a01b037f000000000000000000000000000000000000000000000000000000000000000016916360759fce9160448083019260209291908290030181600087803b15801561143357600080fd5b6114f4611cb7565b60007f00000000000000000000000000000000000000000000000000000000000000006001600160a01b03166370a08231306040518263ffffffff1660e01b815260040180826001600160a01b0316815260200191505060206040518083038186803b15801561156357600080fd5b505afa158015611577573d6000803e3d6000fd5b505050506040513d602081101561158d57600080fd5b5051905080156115e4576115e47f00000000000000000000000000000000000000000000000000000000000000007f0000000000000000000000000000000000000000000000000000000000000000836001611d26565b60007f00000000000000000000000000000000000000000000000000000000000000006001600160a01b031663d55a23f46040518163ffffffff1660e01b815260040160206040518083038186803b15801561163f57600080fd5b505afa158015611653573d6000803e3d6000fd5b505050506040513d602081101561166957600080fd5b5051905060005b8181101561182f5760007f00000000000000000000000000000000000000000000000000000000000000006001600160a01b03166340c35446836040518263ffffffff1660e01b81526004018082815260200191505060206040518083038186803b1580156116de57600080fd5b505afa1580156116f2573d6000803e3d6000fd5b505050506040513d602081101561170857600080fd5b50516040805163f7c618c160e01b815290516001600160a01b039092169163f7c618c191600480820192602092909190829003018186803b15801561174c57600080fd5b505afa158015611760573d6000803e3d6000fd5b505050506040513d602081101561177657600080fd5b5051604080516370a0823160e01b815230600482015290519192506000916001600160a01b038416916370a08231916024808301926020929190829003018186803b1580156117c457600080fd5b505afa1580156117d8573d6000803e3d6000fd5b505050506040513d60208110156117ee57600080fd5b50519050801561182557611825827f0000000000000000000000000000000000000000000000000000000000000000836001611d26565b5050600101611670565b50600061185d7f00000000000000000000000000000000000000000000000000000000000000008686611e65565b9050801561195457600061186f61078c565b5090506001600160a01b038116156118b3576118ae7f000000000000000000000000000000000000000000000000000000000000000082846001611d26565b611932565b7f00000000000000000000000000000000000000000000000000000000000000006001600160a01b0316632e1a7d4d836040518263ffffffff1660e01b815260040180828152602001915050600060405180830381600087803b15801561191957600080fd5b505af115801561192d573d6000803e3d6000fd5b505050505b61193a6121d8565b6000611944610d88565b11156119525761195261145d565b505b5050505050565b60606119b0826040518060400160405280602081526020017f5361666545524332303a206c6f772d6c6576656c2063616c6c206661696c6564815250856001600160a01b03166111479092919063ffffffff16565b8051909150156109f5578080602001905160208110156119cf57600080fd5b50516109f55760405162461bcd60e51b815260040180806020018281038252602a8152602001806124f0602a913960400191505060405180910390fd5b606082471015611a4d5760405162461bcd60e51b81526004018080602001828103825260268152602001806124a96026913960400191505060405180910390fd5b611a5685612323565b611aa7576040805162461bcd60e51b815260206004820152601d60248201527f416464726573733a2063616c6c20746f206e6f6e2d636f6e7472616374000000604482015290519081900360640190fd5b60006060866001600160a01b031685876040518082805190602001908083835b60208310611ae65780518252601f199092019160209182019101611ac7565b6001836020036101000a03801982511681845116808217855250505050505090500191505060006040518083038185875af1925050503d8060008114611b48576040519150601f19603f3d011682016040523d82523d6000602084013e611b4d565b606091505b5091509150611b5d828286612329565b979650505050505050565b60008184841115611bf75760405162461bcd60e51b81526004018080602001828103825283818151815260200191508051906020019080838360005b83811015611bbc578181015183820152602001611ba4565b50505050905090810190601f168015611be95780820380516001836020036101000a031916815260200191505b509250505060405180910390fd5b505050900390565b7f00000000000000000000000000000000000000000000000000000000000000006001600160a01b031663441a3e707f0000000000000000000000000000000000000000000000000000000000000000836040518363ffffffff1660e01b81526004018083815260200182815260200192505050602060405180830381600087803b158015611c8d57600080fd5b505af1158015611ca1573d6000803e3d6000fd5b505050506040513d60208110156109f557600080fd5b60408051637050ccd960e01b81523060048201526001602482015290516001600160a01b037f00000000000000000000000000000000000000000000000000000000000000001691637050ccd99160448083019260209291908290030181600087803b15801561143357600080fd5b60408051600280825260608083018452926020830190803683370190505090508481600081518110611d5457fe5b60200260200101906001600160a01b031690816001600160a01b0316815250508381600181518110611d8257fe5b6001600160a01b039283166020918202929092018101919091526001546040516338ed173960e01b8152600481018781526024820187905230606483018190526402540be4006084840181905260a060448501908152885160a4860152885195909716966338ed1739968b968b968b96939260c490910191878201910280838360005b83811015611e1d578181015183820152602001611e05565b505050509050019650505050505050600060405180830381600087803b158015611e4657600080fd5b505af1158015611e5a573d6000803e3d6000fd5b505050505050505050565b600080846001600160a01b03166370a08231306040518263ffffffff1660e01b815260040180826001600160a01b0316815260200191505060206040518083038186803b158015611eb557600080fd5b505afa158015611ec9573d6000803e3d6000fd5b505050506040513d6020811015611edf57600080fd5b50519050611f0f857f00000000000000000000000000000000000000000000000000000000000000008387611d26565b604080516370a0823160e01b815230600482015290516001600160a01b037f000000000000000000000000000000000000000000000000000000000000000016916370a08231916024808301926020929190829003018186803b158015611f7557600080fd5b505afa158015611f89573d6000803e3d6000fd5b505050506040513d6020811015611f9f57600080fd5b5051915081156121d05760008060007f00000000000000000000000000000000000000000000000000000000000000006001600160a01b031663da633d316040518163ffffffff1660e01b815260040160606040518083038186803b15801561200757600080fd5b505afa15801561201b573d6000803e3d6000fd5b505050506040513d606081101561203157600080fd5b508051602082015160409092015190945090925090506000811580159061206057506001600160a01b03831615155b156121375761207b612710612075888561238f565b906123e8565b90506120a97f000000000000000000000000000000000000000000000000000000000000000085838a611d26565b61213783856001600160a01b03166370a08231306040518263ffffffff1660e01b815260040180826001600160a01b0316815260200191505060206040518083038186803b1580156120fa57600080fd5b505afa15801561210e573d6000803e3d6000fd5b505050506040513d602081101561212457600080fd5b50516001600160a01b0387169190611160565b604080516370a0823160e01b815230600482015290516001600160a01b037f000000000000000000000000000000000000000000000000000000000000000016916370a08231916024808301926020929190829003018186803b15801561219d57600080fd5b505afa1580156121b1573d6000803e3d6000fd5b505050506040513d60208110156121c757600080fd5b50519550505050505b509392505050565b6121e061248a565b478152604080516370a0823160e01b815230600482015290516001600160a01b037f000000000000000000000000000000000000000000000000000000000000000016916370a08231916024808301926020929190829003018186803b15801561224957600080fd5b505afa15801561225d573d6000803e3d6000fd5b505050506040513d602081101561227357600080fd5b5051602082015260408051630b4c7e4d60e01b81527f00000000000000000000000000000000000000000000000000000000000000006001600160a01b031691630b4c7e4d918491600191600401908190849080838360005b838110156122e45781810151838201526020016122cc565b5050505090500182815260200192505050600060405180830381600087803b15801561230f57600080fd5b505af1158015611954573d6000803e3d6000fd5b3b151590565b60608315612338575081611159565b8251156123485782518084602001fd5b60405162461bcd60e51b8152602060048201818152845160248401528451859391928392604401919085019080838360008315611bbc578181015183820152602001611ba4565b60008261239e575060006111f7565b828202828482816123ab57fe5b04146111f45760405162461bcd60e51b81526004018080602001828103825260218152602001806124cf6021913960400191505060405180910390fd5b60006111f483836040518060400160405280601a81526020017f536166654d6174683a206469766973696f6e206279207a65726f000000000000815250600081836124745760405162461bcd60e51b8152602060048201818152835160248401528351909283926044909101919085019080838360008315611bbc578181015183820152602001611ba4565b50600083858161248057fe5b0495945050505050565b6040518060400160405280600290602082028036833750919291505056fe416464726573733a20696e73756666696369656e742062616c616e636520666f722063616c6c536166654d6174683a206d756c7469706c69636174696f6e206f766572666c6f775361666545524332303a204552433230206f7065726174696f6e20646964206e6f7420737563636565645361666545524332303a20617070726f76652066726f6d206e6f6e2d7a65726f20746f206e6f6e2d7a65726f20616c6c6f77616e6365a2646970667358221220d3b779d686982d9e3d6cccc347697859d4773ff93b51cc7409e57139d045cda364736f6c634300060c0033416464726573733a20696e73756666696369656e742062616c616e636520666f722063616c6c5361666545524332303a204552433230206f7065726174696f6e20646964206e6f7420737563636565645361666545524332303a20617070726f76652066726f6d206e6f6e2d7a65726f20746f206e6f6e2d7a65726f20616c6c6f77616e6365",
  "linkReferences": {},
  "deployedLinkReferences": {}
}