{
  "_format": "hh-sol-artifact-1",
  "contractName": "Wand",
  "sourceName": "contracts/Wand.sol",
  "abi": [
    {
      "inputs": [
        {
          "internalType": "contract ICauldronGov",
          "name": "cauldron_",
          "type": "address"
        },
        {
          "internalType": "contract ILadleGov",
          "name": "ladle_",
          "type": "address"
        },
        {
          "internalType": "address",
          "name": "witch_",
          "type": "address"
        },
        {
          "internalType": "contract IPoolFactory",
          "name": "poolFactory_",
          "type": "address"
        },
        {
          "internalType": "contract IJoinFactory",
          "name": "joinFactory_",
          "type": "address"
        },
        {
          "internalType": "contract IFYTokenFactory",
          "name": "fyTokenFactory_",
          "type": "address"
        }
      ],
      "stateMutability": "nonpayable",
      "type": "constructor"
    },
    {
      "anonymous": false,
      "inputs": [
        {
          "indexed": true,
          "internalType": "bytes32",
          "name": "param",
          "type": "bytes32"
        },
        {
          "indexed": false,
          "internalType": "address",
          "name": "value",
          "type": "address"
        }
      ],
      "name": "Point",
      "type": "event"
    },
    {
      "anonymous": false,
      "inputs": [
        {
          "indexed": true,
          "internalType": "bytes4",
          "name": "role",
          "type": "bytes4"
        },
        {
          "indexed": true,
          "internalType": "bytes4",
          "name": "newAdminRole",
          "type": "bytes4"
        }
      ],
      "name": "RoleAdminChanged",
      "type": "event"
    },
    {
      "anonymous": false,
      "inputs": [
        {
          "indexed": true,
          "internalType": "bytes4",
          "name": "role",
          "type": "bytes4"
        },
        {
          "indexed": true,
          "internalType": "address",
          "name": "account",
          "type": "address"
        },
        {
          "indexed": true,
          "internalType": "address",
          "name": "sender",
          "type": "address"
        }
      ],
      "name": "RoleGranted",
      "type": "event"
    },
    {
      "anonymous": false,
      "inputs": [
        {
          "indexed": true,
          "internalType": "bytes4",
          "name": "role",
          "type": "bytes4"
        },
        {
          "indexed": true,
          "internalType": "address",
          "name": "account",
          "type": "address"
        },
        {
          "indexed": true,
          "internalType": "address",
          "name": "sender",
          "type": "address"
        }
      ],
      "name": "RoleRevoked",
      "type": "event"
    },
    {
      "inputs": [],
      "name": "BURN",
      "outputs": [
        {
          "internalType": "bytes4",
          "name": "",
          "type": "bytes4"
        }
      ],
      "stateMutability": "view",
      "type": "function"
    },
    {
      "inputs": [],
      "name": "EXIT",
      "outputs": [
        {
          "internalType": "bytes4",
          "name": "",
          "type": "bytes4"
        }
      ],
      "stateMutability": "view",
      "type": "function"
    },
    {
      "inputs": [],
      "name": "JOIN",
      "outputs": [
        {
          "internalType": "bytes4",
          "name": "",
          "type": "bytes4"
        }
      ],
      "stateMutability": "view",
      "type": "function"
    },
    {
      "inputs": [],
      "name": "LOCK",
      "outputs": [
        {
          "internalType": "bytes4",
          "name": "",
          "type": "bytes4"
        }
      ],
      "stateMutability": "view",
      "type": "function"
    },
    {
      "inputs": [],
      "name": "MINT",
      "outputs": [
        {
          "internalType": "bytes4",
          "name": "",
          "type": "bytes4"
        }
      ],
      "stateMutability": "view",
      "type": "function"
    },
    {
      "inputs": [],
      "name": "ROOT",
      "outputs": [
        {
          "internalType": "bytes4",
          "name": "",
          "type": "bytes4"
        }
      ],
      "stateMutability": "view",
      "type": "function"
    },
    {
      "inputs": [
        {
          "internalType": "bytes6",
          "name": "assetId",
          "type": "bytes6"
        },
        {
          "internalType": "address",
          "name": "asset",
          "type": "address"
        }
      ],
      "name": "addAsset",
      "outputs": [],
      "stateMutability": "nonpayable",
      "type": "function"
    },
    {
      "inputs": [
        {
          "internalType": "bytes6",
          "name": "seriesId",
          "type": "bytes6"
        },
        {
          "internalType": "bytes6",
          "name": "baseId",
          "type": "bytes6"
        },
        {
          "internalType": "uint32",
          "name": "maturity",
          "type": "uint32"
        },
        {
          "internalType": "bytes6[]",
          "name": "ilkIds",
          "type": "bytes6[]"
        },
        {
          "internalType": "string",
          "name": "name",
          "type": "string"
        },
        {
          "internalType": "string",
          "name": "symbol",
          "type": "string"
        }
      ],
      "name": "addSeries",
      "outputs": [],
      "stateMutability": "nonpayable",
      "type": "function"
    },
    {
      "inputs": [],
      "name": "cauldron",
      "outputs": [
        {
          "internalType": "contract ICauldronGov",
          "name": "",
          "type": "address"
        }
      ],
      "stateMutability": "view",
      "type": "function"
    },
    {
      "inputs": [],
      "name": "fyTokenFactory",
      "outputs": [
        {
          "internalType": "contract IFYTokenFactory",
          "name": "",
          "type": "address"
        }
      ],
      "stateMutability": "view",
      "type": "function"
    },
    {
      "inputs": [
        {
          "internalType": "bytes4",
          "name": "role",
          "type": "bytes4"
        }
      ],
      "name": "getRoleAdmin",
      "outputs": [
        {
          "internalType": "bytes4",
          "name": "",
          "type": "bytes4"
        }
      ],
      "stateMutability": "view",
      "type": "function"
    },
    {
      "inputs": [
        {
          "internalType": "bytes4",
          "name": "role",
          "type": "bytes4"
        },
        {
          "internalType": "address",
          "name": "account",
          "type": "address"
        }
      ],
      "name": "grantRole",
      "outputs": [],
      "stateMutability": "nonpayable",
      "type": "function"
    },
    {
      "inputs": [
        {
          "internalType": "bytes4[]",
          "name": "roles",
          "type": "bytes4[]"
        },
        {
          "internalType": "address",
          "name": "account",
          "type": "address"
        }
      ],
      "name": "grantRoles",
      "outputs": [],
      "stateMutability": "nonpayable",
      "type": "function"
    },
    {
      "inputs": [
        {
          "internalType": "bytes4",
          "name": "role",
          "type": "bytes4"
        },
        {
          "internalType": "address",
          "name": "account",
          "type": "address"
        }
      ],
      "name": "hasRole",
      "outputs": [
        {
          "internalType": "bool",
          "name": "",
          "type": "bool"
        }
      ],
      "stateMutability": "view",
      "type": "function"
    },
    {
      "inputs": [],
      "name": "joinFactory",
      "outputs": [
        {
          "internalType": "contract IJoinFactory",
          "name": "",
          "type": "address"
        }
      ],
      "stateMutability": "view",
      "type": "function"
    },
    {
      "inputs": [],
      "name": "ladle",
      "outputs": [
        {
          "internalType": "contract ILadleGov",
          "name": "",
          "type": "address"
        }
      ],
      "stateMutability": "view",
      "type": "function"
    },
    {
      "inputs": [
        {
          "internalType": "bytes4",
          "name": "role",
          "type": "bytes4"
        }
      ],
      "name": "lockRole",
      "outputs": [],
      "stateMutability": "nonpayable",
      "type": "function"
    },
    {
      "inputs": [
        {
          "internalType": "bytes6",
          "name": "assetId",
          "type": "bytes6"
        },
        {
          "internalType": "contract IMultiOracleGov",
          "name": "oracle",
          "type": "address"
        },
        {
          "internalType": "address",
          "name": "rateSource",
          "type": "address"
        },
        {
          "internalType": "address",
          "name": "chiSource",
          "type": "address"
        }
      ],
      "name": "makeBase",
      "outputs": [],
      "stateMutability": "nonpayable",
      "type": "function"
    },
    {
      "inputs": [
        {
          "internalType": "bytes6",
          "name": "baseId",
          "type": "bytes6"
        },
        {
          "internalType": "bytes6",
          "name": "ilkId",
          "type": "bytes6"
        },
        {
          "internalType": "contract IMultiOracleGov",
          "name": "oracle",
          "type": "address"
        },
        {
          "internalType": "address",
          "name": "spotSource",
          "type": "address"
        },
        {
          "internalType": "uint32",
          "name": "ratio",
          "type": "uint32"
        },
        {
          "internalType": "uint96",
          "name": "max",
          "type": "uint96"
        },
        {
          "internalType": "uint24",
          "name": "min",
          "type": "uint24"
        },
        {
          "internalType": "uint8",
          "name": "dec",
          "type": "uint8"
        }
      ],
      "name": "makeIlk",
      "outputs": [],
      "stateMutability": "nonpayable",
      "type": "function"
    },
    {
      "inputs": [
        {
          "internalType": "bytes32",
          "name": "param",
          "type": "bytes32"
        },
        {
          "internalType": "address",
          "name": "value",
          "type": "address"
        }
      ],
      "name": "point",
      "outputs": [],
      "stateMutability": "nonpayable",
      "type": "function"
    },
    {
      "inputs": [],
      "name": "poolFactory",
      "outputs": [
        {
          "internalType": "contract IPoolFactory",
          "name": "",
          "type": "address"
        }
      ],
      "stateMutability": "view",
      "type": "function"
    },
    {
      "inputs": [
        {
          "internalType": "bytes4",
          "name": "role",
          "type": "bytes4"
        },
        {
          "internalType": "address",
          "name": "account",
          "type": "address"
        }
      ],
      "name": "renounceRole",
      "outputs": [],
      "stateMutability": "nonpayable",
      "type": "function"
    },
    {
      "inputs": [
        {
          "internalType": "bytes4",
          "name": "role",
          "type": "bytes4"
        },
        {
          "internalType": "address",
          "name": "account",
          "type": "address"
        }
      ],
      "name": "revokeRole",
      "outputs": [],
      "stateMutability": "nonpayable",
      "type": "function"
    },
    {
      "inputs": [
        {
          "internalType": "bytes4[]",
          "name": "roles",
          "type": "bytes4[]"
        },
        {
          "internalType": "address",
          "name": "account",
          "type": "address"
        }
      ],
      "name": "revokeRoles",
      "outputs": [],
      "stateMutability": "nonpayable",
      "type": "function"
    },
    {
      "inputs": [
        {
          "internalType": "bytes4",
          "name": "role",
          "type": "bytes4"
        },
        {
          "internalType": "bytes4",
          "name": "adminRole",
          "type": "bytes4"
        }
      ],
      "name": "setRoleAdmin",
      "outputs": [],
      "stateMutability": "nonpayable",
      "type": "function"
    },
    {
      "inputs": [],
      "name": "witch",
      "outputs": [
        {
          "internalType": "address",
          "name": "",
          "type": "address"
        }
      ],
      "stateMutability": "view",
      "type": "function"
    }
  ],
  "bytecode": "0x60806040526263686960e81b600155637261746560e01b6002553480156200002657600080fd5b5060405162002f6638038062002f6683398101604081905262000049916200022b565b62000056600033620000dd565b6200006a6001600160e01b03198062000152565b600380546001600160a01b03199081166001600160a01b0398891617909155600480548216968816969096179095556005805486169487169490941790935560068054851692861692909217909155600780548416918516919091179055600880549092169216919091179055620002d7565b620000e98282620001d4565b6200014e576001600160e01b031982166000818152602081815260408083206001600160a01b0386168085529252808320805460ff1916600117905551339391927fe6231789d19137da31d0550f4ba9ee379020a8cfb64cb79bf1790c996d2e616591a45b5050565b6001600160e01b03198116620001688362000209565b6001600160e01b031916146200014e576001600160e01b0319828116600081815260208190526040808220600101805463ffffffff191660e087901c17905551928416927fd348e2220a50b4500ec353f6e802d2f14dd1b5d6786148fd1bbcc570bf92d4739190a35050565b6001600160e01b031982166000908152602081815260408083206001600160a01b038516845290915290205460ff1692915050565b6001600160e01b03191660009081526020819052604090206001015460e01b90565b60008060008060008060c0878903121562000244578182fd5b86516200025181620002be565b60208801519096506200026481620002be565b60408801519095506200027781620002be565b60608801519094506200028a81620002be565b60808801519093506200029d81620002be565b60a0880151909250620002b081620002be565b809150509295509295509295565b6001600160a01b0381168114620002d457600080fd5b50565b612c7f80620002e76000396000f3fe608060405234801561001057600080fd5b50600436106101ae5760003560e01c806394b8e38f116100ee578063ade8a18c11610097578063ddf0c8b311610071578063ddf0c8b31461030e578063de02cde714610316578063e665f9e414610329578063effae3531461033c576101ae565b8063ade8a18c146102e0578063ae93c1b5146102f3578063c0a2526c14610306576101ae565b8063a4f0d7d0116100c8578063a4f0d7d0146102b2578063a6bb3ed9146102ba578063ad82110f146102cd576101ae565b806394b8e38f1461029a57806397ff6a04146102a2578063a308e851146102aa576101ae565b80635909c12f1161015b57806376563cec1161013557806376563cec1461026f5780637f96814814610277578063836a3ce01461027f578063892723b714610287576101ae565b80635909c12f146102415780635ba5e9f014610249578063687f0e4c1461025c576101ae565b80634219dc401161018c5780634219dc401461020657806344faded01461021b578063559742d91461022e576101ae565b806310ab9432146101b35780631295bd08146101dc5780633e36f4c7146101f1575b600080fd5b6101c66101c13660046122cf565b61034f565b6040516101d39190612646565b60405180910390f35b6101ef6101ea366004612268565b610362565b005b6101f9610631565b6040516101d39190612651565b61020e610655565b6040516101d391906125ba565b6101ef6102293660046122cf565b610664565b6101ef61023c366004612297565b6106a2565b6101f96106e1565b6101f9610257366004612297565b6106e6565b6101ef61026a3660046122cf565b6106f9565b6101f961072b565b6101f961074f565b61020e610773565b6101ef610295366004612402565b610782565b61020e61120b565b61020e61121a565b61020e611229565b6101f9611238565b6101ef6102c8366004612344565b611244565b6101ef6102db3660046121b8565b61153c565b6101ef6102ee366004612516565b6115da565b6101ef6103013660046122fc565b611916565b6101f9611949565b61020e61196d565b6101ef6103243660046122cf565b61197c565b6101ef610337366004612329565b6119af565b6101ef61034a3660046121b8565b611e02565b600061035b8383611e93565b9392505050565b6103786000356001600160e01b03191633611e93565b61039d5760405162461bcd60e51b815260040161039490612afd565b60405180910390fd5b817f6361756c64726f6e00000000000000000000000000000000000000000000000014156103fd57600380547fffffffffffffffffffffffff0000000000000000000000000000000000000000166001600160a01b0383161790556105f5565b817f6c61646c65000000000000000000000000000000000000000000000000000000141561045d57600480547fffffffffffffffffffffffff0000000000000000000000000000000000000000166001600160a01b0383161790556105f5565b817f776974636800000000000000000000000000000000000000000000000000000014156104bd57600580547fffffffffffffffffffffffff0000000000000000000000000000000000000000166001600160a01b0383161790556105f5565b817f706f6f6c466163746f7279000000000000000000000000000000000000000000141561051d57600680547fffffffffffffffffffffffff0000000000000000000000000000000000000000166001600160a01b0383161790556105f5565b817f6a6f696e466163746f7279000000000000000000000000000000000000000000141561057d57600780547fffffffffffffffffffffffff0000000000000000000000000000000000000000166001600160a01b0383161790556105f5565b817f6679546f6b656e466163746f727900000000000000000000000000000000000014156105dd57600880547fffffffffffffffffffffffff0000000000000000000000000000000000000000166001600160a01b0383161790556105f5565b60405162461bcd60e51b8152600401610394906129b3565b817fd61f2f59686784f82db8673820acfa642f9709c800724e09f7ac0e1aaedf4af78260405161062591906125ba565b60405180910390a25050565b7f40c10f19c047ae7dfa66d6312b683d2ea3dfbcb4159e96b967c5f4b0a86f284281565b6006546001600160a01b031681565b8161067761067182611ec8565b33611e93565b6106935760405162461bcd60e51b815260040161039490612945565b61069d8383611eea565b505050565b806106af61067182611ec8565b6106cb5760405162461bcd60e51b815260040161039490612945565b6106dd826001600160e01b0319611f77565b5050565b600081565b60006106f182611ec8565b90505b919050565b6001600160a01b03811633146107215760405162461bcd60e51b815260040161039490612a8f565b6106dd8282611eea565b7f12e5ff77ed4cce2fcc30e6ec6b6ff6dcbb5a542b02f21aae1ee0cc4abfbc80bc81565b7fceae3abd4e17dfee0ab6fa886c6d338ec96728b9206023d362cbab3646b94b2e81565b6007546001600160a01b031681565b6107986000356001600160e01b03191633611e93565b6107b45760405162461bcd60e51b815260040161039490612afd565b6003546040517f19be8d120000000000000000000000000000000000000000000000000000000081526000916001600160a01b0316906319be8d12906107fe908990600401612689565b60206040518083038186803b15801561081657600080fd5b505afa15801561082a573d6000803e3d6000fd5b505050506040513d601f19601f8201168201806040525081019061084e919061219c565b90506001600160a01b0381166108765760405162461bcd60e51b815260040161039490612a58565b600480546040517f60e0b6360000000000000000000000000000000000000000000000000000000081526000926001600160a01b03909216916360e0b636916108c1918b9101612689565b60206040518083038186803b1580156108d957600080fd5b505afa1580156108ed573d6000803e3d6000fd5b505050506040513d601f19601f82011682018060405250810190610911919061219c565b90506001600160a01b0381166109395760405162461bcd60e51b81526004016103949061290e565b6003546040517f4df0ecf00000000000000000000000000000000000000000000000000000000081526000916001600160a01b031690634df0ecf090610983908b90600401612689565b60206040518083038186803b15801561099b57600080fd5b505afa1580156109af573d6000803e3d6000fd5b505050506040513d601f19601f820116820180604052508101906109d3919061219c565b90506001600160a01b0381166109fb5760405162461bcd60e51b8152600401610394906129ea565b6008546040517f839b132d0000000000000000000000000000000000000000000000000000000081526000916001600160a01b03169063839b132d90610a4f908c90869088908e908d908d90600401612858565b602060405180830381600087803b158015610a6957600080fd5b505af1158015610a7d573d6000803e3d6000fd5b505050506040513d601f19601f82011682018060405250810190610aa1919061219c565b60408051600180825281830190925291925060009190602080830190803683370190505090507f12e5ff77ed4cce2fcc30e6ec6b6ff6dcbb5a542b02f21aae1ee0cc4abfbc80bc81600081518110610b0957634e487b7160e01b600052603260045260246000fd5b6001600160e01b0319909216602092830291909101909101526040517feffae3530000000000000000000000000000000000000000000000000000000081526001600160a01b0385169063effae35390610b6990849086906004016125e8565b600060405180830381600087803b158015610b8357600080fd5b505af1158015610b97573d6000803e3d6000fd5b5060029250610ba4915050565b604051908082528060200260200182016040528015610bcd578160200160208202803683370190505b5090507f40c10f19c047ae7dfa66d6312b683d2ea3dfbcb4159e96b967c5f4b0a86f284281600081518110610c1257634e487b7160e01b600052603260045260246000fd5b60200260200101907bffffffffffffffffffffffffffffffffffffffffffffffffffffffff191690817bffffffffffffffffffffffffffffffffffffffffffffffffffffffff1916815250507f9dc29fac0ba6d4fc521c69c2b0c636d612e3343bc39ed934429b8876b0d12cba81600181518110610ca057634e487b7160e01b600052603260045260246000fd5b6001600160e01b031990921660209283029190910190910152600480546040517feffae3530000000000000000000000000000000000000000000000000000000081526001600160a01b038086169363effae35393610d069387939190911691016125e8565b600060405180830381600087803b158015610d2057600080fd5b505af1158015610d34573d6000803e3d6000fd5b50505050816001600160a01b031663de02cde7836001600160a01b0316635909c12f6040518163ffffffff1660e01b815260040160206040518083038186803b158015610d8057600080fd5b505afa158015610d94573d6000803e3d6000fd5b505050506040513d601f19601f82011682018060405250810190610db891906122b3565b336040518363ffffffff1660e01b8152600401610dd6929190612666565b600060405180830381600087803b158015610df057600080fd5b505af1158015610e04573d6000803e3d6000fd5b50505050816001600160a01b031663687f0e4c836001600160a01b0316635909c12f6040518163ffffffff1660e01b815260040160206040518083038186803b158015610e5057600080fd5b505afa158015610e64573d6000803e3d6000fd5b505050506040513d601f19601f82011682018060405250810190610e8891906122b3565b306040518363ffffffff1660e01b8152600401610ea6929190612666565b600060405180830381600087803b158015610ec057600080fd5b505af1158015610ed4573d6000803e3d6000fd5b50506003546040517f96dcdf260000000000000000000000000000000000000000000000000000000081526001600160a01b0390911692506396dcdf269150610f25908e908e908790600401612764565b600060405180830381600087803b158015610f3f57600080fd5b505af1158015610f53573d6000803e3d6000fd5b50506003546040517f53eecb770000000000000000000000000000000000000000000000000000000081526001600160a01b0390911692506353eecb779150610fa2908e908c906004016126f1565b600060405180830381600087803b158015610fbc57600080fd5b505af1158015610fd0573d6000803e3d6000fd5b50506006546040517fe34336150000000000000000000000000000000000000000000000000000000081526001600160a01b03909116925063e3433615915061101f90889086906004016125ce565b602060405180830381600087803b15801561103957600080fd5b505af115801561104d573d6000803e3d6000fd5b505050506040513d601f19601f82011682018060405250810190611071919061219c565b506006546040517f209b67380000000000000000000000000000000000000000000000000000000081526000916001600160a01b03169063209b6738906110be90899087906004016125ce565b60206040518083038186803b1580156110d657600080fd5b505afa1580156110ea573d6000803e3d6000fd5b505050506040513d601f19601f8201168201806040525081019061110e919061219c565b6040517ff2fde38b0000000000000000000000000000000000000000000000000000000081529091506001600160a01b0382169063f2fde38b906111569033906004016125ba565b600060405180830381600087803b15801561117057600080fd5b505af1158015611184573d6000803e3d6000fd5b50505050600460009054906101000a90046001600160a01b03166001600160a01b03166333e6035a8d836040518363ffffffff1660e01b81526004016111cb9291906126b6565b600060405180830381600087803b1580156111e557600080fd5b505af11580156111f9573d6000803e3d6000fd5b50505050505050505050505050505050565b6004546001600160a01b031681565b6003546001600160a01b031681565b6005546001600160a01b031681565b6001600160e01b031981565b61125a6000356001600160e01b03191633611e93565b6112765760405162461bcd60e51b815260040161039490612afd565b6040517f92b45d9c0000000000000000000000000000000000000000000000000000000081526001600160a01b038716906392b45d9c906112bf908b908b908a90600401612764565b600060405180830381600087803b1580156112d957600080fd5b505af11580156112ed573d6000803e3d6000fd5b50506003546040517f8ef6bdfa0000000000000000000000000000000000000000000000000000000081526001600160a01b039091169250638ef6bdfa9150611340908b908b908b908a906004016127a9565b600060405180830381600087803b15801561135a57600080fd5b505af115801561136e573d6000803e3d6000fd5b50506003546040517fd3fc152b0000000000000000000000000000000000000000000000000000000081526001600160a01b03909116925063d3fc152b91506113c3908b908b908890889088906004016127f9565b600060405180830381600087803b1580156113dd57600080fd5b505af11580156113f1573d6000803e3d6000fd5b5050600480546040517f60e0b636000000000000000000000000000000000000000000000000000000008152600094506001600160a01b0390911692506360e0b63691611440918c9101612689565b60206040518083038186803b15801561145857600080fd5b505afa15801561146c573d6000803e3d6000fd5b505050506040513d601f19601f82011682018060405250810190611490919061219c565b6005546040517fde02cde70000000000000000000000000000000000000000000000000000000081529192506001600160a01b038084169263de02cde7926114ff927f12e5ff77ed4cce2fcc30e6ec6b6ff6dcbb5a542b02f21aae1ee0cc4abfbc80bc92911690600401612666565b600060405180830381600087803b15801561151957600080fd5b505af115801561152d573d6000803e3d6000fd5b50505050505050505050505050565b60005b825181101561069d5761157b61067184838151811061156e57634e487b7160e01b600052603260045260246000fd5b6020026020010151611ec8565b6115975760405162461bcd60e51b815260040161039490612945565b6115c88382815181106115ba57634e487b7160e01b600052603260045260246000fd5b602002602001015183611eea565b806115d281612bc0565b91505061153f565b6115f06000356001600160e01b03191633611e93565b61160c5760405162461bcd60e51b815260040161039490612afd565b6001600160a01b0383166116325760405162461bcd60e51b815260040161039490612b34565b6001600160a01b0382166116585760405162461bcd60e51b81526004016103949061297c565b6001600160a01b03811661167e5760405162461bcd60e51b815260040161039490612a21565b826001600160a01b03166392b45d9c85611699600254612011565b856040518463ffffffff1660e01b81526004016116b893929190612764565b600060405180830381600087803b1580156116d257600080fd5b505af11580156116e6573d6000803e3d6000fd5b50505050826001600160a01b03166392b45d9c85611705600154612011565b846040518463ffffffff1660e01b815260040161172493929190612764565b600060405180830381600087803b15801561173e57600080fd5b505af1158015611752573d6000803e3d6000fd5b50506003546040517f480d411a0000000000000000000000000000000000000000000000000000000081526001600160a01b03909116925063480d411a91506117a190879087906004016126b6565b600060405180830381600087803b1580156117bb57600080fd5b505af11580156117cf573d6000803e3d6000fd5b5050600480546040517f60e0b636000000000000000000000000000000000000000000000000000000008152600094506001600160a01b0390911692506360e0b6369161181e91899101612689565b60206040518083038186803b15801561183657600080fd5b505afa15801561184a573d6000803e3d6000fd5b505050506040513d601f19601f8201168201806040525081019061186e919061219c565b6005546040517fde02cde70000000000000000000000000000000000000000000000000000000081529192506001600160a01b038084169263de02cde7926118dd927fceae3abd4e17dfee0ab6fa886c6d338ec96728b9206023d362cbab3646b94b2e92911690600401612666565b600060405180830381600087803b1580156118f757600080fd5b505af115801561190b573d6000803e3d6000fd5b505050505050505050565b8161192361067182611ec8565b61193f5760405162461bcd60e51b815260040161039490612945565b61069d8383611f77565b7f9dc29fac0ba6d4fc521c69c2b0c636d612e3343bc39ed934429b8876b0d12cba81565b6008546001600160a01b031681565b8161198961067182611ec8565b6119a55760405162461bcd60e51b815260040161039490612945565b61069d8383612053565b6119c56000356001600160e01b03191633611e93565b6119e15760405162461bcd60e51b815260040161039490612afd565b6001600160a01b038116611a075760405162461bcd60e51b815260040161039490612ac6565b6003546040517fe665f9e40000000000000000000000000000000000000000000000000000000081526001600160a01b039091169063e665f9e490611a5290859085906004016126b6565b600060405180830381600087803b158015611a6c57600080fd5b505af1158015611a80573d6000803e3d6000fd5b50506007546040517fd448c1c5000000000000000000000000000000000000000000000000000000008152600093506001600160a01b03909116915063d448c1c590611ad09085906004016125ba565b602060405180830381600087803b158015611aea57600080fd5b505af1158015611afe573d6000803e3d6000fd5b505050506040513d601f19601f82011682018060405250810190611b22919061219c565b60408051600280825260608201835292935060009290916020830190803683370190505090507fceae3abd4e17dfee0ab6fa886c6d338ec96728b9206023d362cbab3646b94b2e81600081518110611b8a57634e487b7160e01b600052603260045260246000fd5b60200260200101907bffffffffffffffffffffffffffffffffffffffffffffffffffffffff191690817bffffffffffffffffffffffffffffffffffffffffffffffffffffffff1916815250507f12e5ff77ed4cce2fcc30e6ec6b6ff6dcbb5a542b02f21aae1ee0cc4abfbc80bc81600181518110611c1857634e487b7160e01b600052603260045260246000fd5b6001600160e01b031990921660209283029190910190910152600480546040517feffae3530000000000000000000000000000000000000000000000000000000081526001600160a01b038086169363effae35393611c7e9387939190911691016125e8565b600060405180830381600087803b158015611c9857600080fd5b505af1158015611cac573d6000803e3d6000fd5b50505050816001600160a01b031663de02cde7836001600160a01b0316635909c12f6040518163ffffffff1660e01b815260040160206040518083038186803b158015611cf857600080fd5b505afa158015611d0c573d6000803e3d6000fd5b505050506040513d601f19601f82011682018060405250810190611d3091906122b3565b336040518363ffffffff1660e01b8152600401611d4e929190612666565b600060405180830381600087803b158015611d6857600080fd5b505af1158015611d7c573d6000803e3d6000fd5b5050600480546040517f49c29d2b0000000000000000000000000000000000000000000000000000000081526001600160a01b0390911693506349c29d2b9250611dca9188918791016126b6565b600060405180830381600087803b158015611de457600080fd5b505af1158015611df8573d6000803e3d6000fd5b5050505050505050565b60005b825181101561069d57611e3461067184838151811061156e57634e487b7160e01b600052603260045260246000fd5b611e505760405162461bcd60e51b815260040161039490612945565b611e81838281518110611e7357634e487b7160e01b600052603260045260246000fd5b602002602001015183612053565b80611e8b81612bc0565b915050611e05565b6001600160e01b031982166000908152602081815260408083206001600160a01b038516845290915290205460ff1692915050565b6001600160e01b03191660009081526020819052604090206001015460e01b90565b611ef48282611e93565b156106dd576001600160e01b031982166000818152602081815260408083206001600160a01b038616808552925280832080547fffffffffffffffffffffffffffffffffffffffffffffffffffffffffffffff0016905551339391927f4ddc7b757e7bdd7254a9cd39452d307a52761bc824625c6a33104a075d8099e691a45050565b6001600160e01b03198116611f8b83611ec8565b6001600160e01b031916146106dd576001600160e01b031982811660008181526020819052604080822060010180547fffffffffffffffffffffffffffffffffffffffffffffffffffffffff000000001660e087901c17905551928416927fd348e2220a50b4500ec353f6e802d2f14dd1b5d6786148fd1bbcc570bf92d4739190a35050565b807fffffffffffff0000000000000000000000000000000000000000000000000000811681146106f45760405162461bcd60e51b8152600401610394906128d7565b61205d8282611e93565b6106dd576001600160e01b031982166000818152602081815260408083206001600160a01b038616808552925280832080547fffffffffffffffffffffffffffffffffffffffffffffffffffffffffffffff0016600117905551339391927fe6231789d19137da31d0550f4ba9ee379020a8cfb64cb79bf1790c996d2e616591a45050565b80356106f481612c1b565b80357fffffffffffff0000000000000000000000000000000000000000000000000000811681146106f457600080fd5b600082601f83011261212d578081fd5b813567ffffffffffffffff81111561214757612147612c05565b61215a6020601f19601f84011601612b6b565b81815284602083860101111561216e578283fd5b816020850160208301379081016020019190915292915050565b803563ffffffff811681146106f457600080fd5b6000602082840312156121ad578081fd5b815161035b81612c1b565b600080604083850312156121ca578081fd5b823567ffffffffffffffff8111156121e0578182fd5b8301601f810185136121f0578182fd5b8035602061220561220083612b9c565b612b6b565b82815281810190848301838502860184018a1015612221578687fd5b8695505b8486101561224c57803561223881612c33565b835260019590950194918301918301612225565b50955061225c90508682016120e2565b93505050509250929050565b6000806040838503121561227a578182fd5b82359150602083013561228c81612c1b565b809150509250929050565b6000602082840312156122a8578081fd5b813561035b81612c33565b6000602082840312156122c4578081fd5b815161035b81612c33565b600080604083850312156122e1578182fd5b82356122ec81612c33565b9150602083013561228c81612c1b565b6000806040838503121561230e578182fd5b823561231981612c33565b9150602083013561228c81612c33565b6000806040838503121561233b578182fd5b6122ec836120ed565b600080600080600080600080610100898b031215612360578384fd5b612369896120ed565b975061237760208a016120ed565b9650604089013561238781612c1b565b9550606089013561239781612c1b565b94506123a560808a01612188565b935060a08901356bffffffffffffffffffffffff811681146123c5578384fd5b925060c089013562ffffff811681146123dc578283fd5b915060e089013560ff811681146123f1578182fd5b809150509295985092959890939650565b60008060008060008060c0878903121561241a578384fd5b612423876120ed565b955060206124328189016120ed565b955061244060408901612188565b9450606088013567ffffffffffffffff8082111561245c578485fd5b818a0191508a601f83011261246f578485fd5b813561247d61220082612b9c565b81815284810190848601868402860187018f1015612499578889fd5b8895505b838610156124c2576124ae816120ed565b83526001959095019491860191860161249d565b509750505060808a01359250808311156124da578485fd5b6124e68b848c0161211d565b945060a08a01359250808311156124fb578384fd5b505061250989828a0161211d565b9150509295509295509295565b6000806000806080858703121561252b578182fd5b612534856120ed565b9350602085013561254481612c1b565b9250604085013561255481612c1b565b9150606085013561256481612c1b565b939692955090935050565b60008151808452815b8181101561259457602081850181015186830182015201612578565b818111156125a55782602083870101525b50601f01601f19169290920160200192915050565b6001600160a01b0391909116815260200190565b6001600160a01b0392831681529116602082015260400190565b604080825283519082018190526000906020906060840190828701845b8281101561262b5781516001600160e01b03191684529284019290840190600101612605565b5050506001600160a01b039490941692019190915250919050565b901515815260200190565b6001600160e01b031991909116815260200190565b6001600160e01b03199290921682526001600160a01b0316602082015260400190565b7fffffffffffff000000000000000000000000000000000000000000000000000091909116815260200190565b7fffffffffffff00000000000000000000000000000000000000000000000000009290921682526001600160a01b0316602082015260400190565b6000604082017fffffffffffff0000000000000000000000000000000000000000000000000000808616845260206040818601528286518085526060870191508288019450855b81811015612756578551851683529483019491830191600101612738565b509098975050505050505050565b7fffffffffffff000000000000000000000000000000000000000000000000000093841681529190921660208201526001600160a01b03909116604082015260600190565b7fffffffffffff000000000000000000000000000000000000000000000000000094851681529290931660208301526001600160a01b0316604082015263ffffffff909116606082015260800190565b7fffffffffffff000000000000000000000000000000000000000000000000000095861681529390941660208401526bffffffffffffffffffffffff91909116604083015262ffffff16606082015260ff909116608082015260a00190565b60007fffffffffffff0000000000000000000000000000000000000000000000000000881682526001600160a01b03808816602084015280871660408401525063ffffffff8516606083015260c060808301526128b860c083018561256f565b82810360a08401526128ca818561256f565b9998505050505050505050565b6020808252600d908201527f43617374206f766572666c6f7700000000000000000000000000000000000000604082015260600190565b6020808252600e908201527f4a6f696e206e6f7420666f756e64000000000000000000000000000000000000604082015260600190565b6020808252600a908201527f4f6e6c792061646d696e00000000000000000000000000000000000000000000604082015260600190565b60208082526014908201527f5261746520736f75726365207265717569726564000000000000000000000000604082015260600190565b60208082526016908201527f556e7265636f676e697a656420706172616d6574657200000000000000000000604082015260600190565b60208082526014908201527f436869206f7261636c65206e6f7420666f756e64000000000000000000000000604082015260600190565b60208082526013908201527f43686920736f7572636520726571756972656400000000000000000000000000604082015260600190565b6020808252600e908201527f42617365206e6f7420666f756e64000000000000000000000000000000000000604082015260600190565b60208082526016908201527f52656e6f756e6365206f6e6c7920666f722073656c6600000000000000000000604082015260600190565b6020808252600e908201527f4173736574207265717569726564000000000000000000000000000000000000604082015260600190565b6020808252600d908201527f4163636573732064656e69656400000000000000000000000000000000000000604082015260600190565b6020808252600f908201527f4f7261636c652072657175697265640000000000000000000000000000000000604082015260600190565b604051601f8201601f1916810167ffffffffffffffff81118282101715612b9457612b94612c05565b604052919050565b600067ffffffffffffffff821115612bb657612bb6612c05565b5060209081020190565b60007fffffffffffffffffffffffffffffffffffffffffffffffffffffffffffffffff821415612bfe57634e487b7160e01b81526011600452602481fd5b5060010190565b634e487b7160e01b600052604160045260246000fd5b6001600160a01b0381168114612c3057600080fd5b50565b6001600160e01b031981168114612c3057600080fdfea26469706673582212205a0f2371d5adc292f4884e8554928289e55c173418ada3a5eea87b95590eb25164736f6c63430008010033",
  "linkReferences": {},
  "deployedLinkReferences": {}
}