{
  "_format": "hh-sol-artifact-1",
  "contractName": "TwabLib",
  "sourceName": "contracts/libraries/TwabLib.sol",
  "abi": [
    {
      "inputs": [],
      "name": "MAX_CARDINALITY",
      "outputs": [
        {
          "internalType": "uint24",
          "name": "",
          "type": "uint24"
        }
      ],
      "stateMutability": "view",
      "type": "function"
    }
  ],
  "bytecode": "0x608f610038600b82828239805160001a607314602b57634e487b7160e01b600052600060045260246000fd5b30600052607381538281f3fe730000000000000000000000000000000000000000301460806040526004361060335760003560e01c80638200d873146038575b600080fd5b604162ffffff81565b60405162ffffff909116815260200160405180910390f3fea2646970667358221220cc5148b7c0c7c2b8e56a497ae7e2cdc2e31c60a0d3d2487881bee807f430c72264736f6c63430008060033",
  "linkReferences": {},
  "deployedLinkReferences": {}
}