{
  "_format": "hh-sol-artifact-1",
  "contractName": "Manager",
  "sourceName": "contracts/facets/Manager.sol",
  "abi": [
    {
      "inputs": [
        {
          "internalType": "bytes32",
          "name": "_protocol",
          "type": "bytes32"
        },
        {
          "internalType": "contract IERC20",
          "name": "_token",
          "type": "address"
        },
        {
          "internalType": "uint256",
          "name": "_premium",
          "type": "uint256"
        }
      ],
      "name": "setProtocolPremium",
      "outputs": [],
      "stateMutability": "nonpayable",
      "type": "function"
    },
    {
      "inputs": [
        {
          "internalType": "bytes32",
          "name": "_protocol",
          "type": "bytes32"
        },
        {
          "internalType": "contract IERC20[]",
          "name": "_token",
          "type": "address[]"
        },
        {
          "internalType": "uint256[]",
          "name": "_premium",
          "type": "uint256[]"
        }
      ],
      "name": "setProtocolPremium",
      "outputs": [],
      "stateMutability": "nonpayable",
      "type": "function"
    },
    {
      "inputs": [
        {
          "internalType": "bytes32[]",
          "name": "_protocol",
          "type": "bytes32[]"
        },
        {
          "internalType": "contract IERC20[][]",
          "name": "_token",
          "type": "address[][]"
        },
        {
          "internalType": "uint256[][]",
          "name": "_premium",
          "type": "uint256[][]"
        }
      ],
      "name": "setProtocolPremium",
      "outputs": [],
      "stateMutability": "nonpayable",
      "type": "function"
    },
    {
      "inputs": [
        {
          "internalType": "bytes32[]",
          "name": "_protocol",
          "type": "bytes32[]"
        },
        {
          "internalType": "contract IERC20[][]",
          "name": "_token",
          "type": "address[][]"
        },
        {
          "internalType": "uint256[][]",
          "name": "_premium",
          "type": "uint256[][]"
        },
        {
          "internalType": "uint256[][]",
          "name": "_newUsd",
          "type": "uint256[][]"
        }
      ],
      "name": "setProtocolPremiumAndTokenPrice",
      "outputs": [],
      "stateMutability": "nonpayable",
      "type": "function"
    },
    {
      "inputs": [
        {
          "internalType": "bytes32",
          "name": "_protocol",
          "type": "bytes32"
        },
        {
          "internalType": "contract IERC20[]",
          "name": "_token",
          "type": "address[]"
        },
        {
          "internalType": "uint256[]",
          "name": "_premium",
          "type": "uint256[]"
        },
        {
          "internalType": "uint256[]",
          "name": "_newUsd",
          "type": "uint256[]"
        }
      ],
      "name": "setProtocolPremiumAndTokenPrice",
      "outputs": [],
      "stateMutability": "nonpayable",
      "type": "function"
    },
    {
      "inputs": [
        {
          "internalType": "bytes32[]",
          "name": "_protocol",
          "type": "bytes32[]"
        },
        {
          "internalType": "contract IERC20",
          "name": "_token",
          "type": "address"
        },
        {
          "internalType": "uint256[]",
          "name": "_premium",
          "type": "uint256[]"
        },
        {
          "internalType": "uint256",
          "name": "_newUsd",
          "type": "uint256"
        }
      ],
      "name": "setProtocolPremiumAndTokenPrice",
      "outputs": [],
      "stateMutability": "nonpayable",
      "type": "function"
    },
    {
      "inputs": [
        {
          "internalType": "bytes32",
          "name": "_protocol",
          "type": "bytes32"
        },
        {
          "internalType": "contract IERC20",
          "name": "_token",
          "type": "address"
        },
        {
          "internalType": "uint256",
          "name": "_premium",
          "type": "uint256"
        },
        {
          "internalType": "uint256",
          "name": "_newUsd",
          "type": "uint256"
        }
      ],
      "name": "setProtocolPremiumAndTokenPrice",
      "outputs": [],
      "stateMutability": "nonpayable",
      "type": "function"
    },
    {
      "inputs": [
        {
          "internalType": "contract IERC20",
          "name": "_token",
          "type": "address"
        },
        {
          "internalType": "uint256",
          "name": "_newUsd",
          "type": "uint256"
        }
      ],
      "name": "setTokenPrice",
      "outputs": [],
      "stateMutability": "nonpayable",
      "type": "function"
    },
    {
      "inputs": [
        {
          "internalType": "contract IERC20[]",
          "name": "_token",
          "type": "address[]"
        },
        {
          "internalType": "uint256[]",
          "name": "_newUsd",
          "type": "uint256[]"
        }
      ],
      "name": "setTokenPrice",
      "outputs": [],
      "stateMutability": "nonpayable",
      "type": "function"
    }
  ],
  "bytecode": "0x608060405234801561001057600080fd5b50611cce806100206000396000f3fe608060405234801561001057600080fd5b50600436106100935760003560e01c8063aa0758e911610066578063aa0758e9146100e6578063b1297958146100f9578063bb4755581461010c578063e84e5a9d1461011f578063ee2474661461013257610093565b806302190bb514610098578063083bbd12146100ad578063431f63c9146100c05780636dbd19a6146100d3575b600080fd5b6100ab6100a63660046117b6565b610145565b005b6100ab6100bb366004611a1a565b6103f2565b6100ab6100ce366004611a88565b6104bb565b6100ab6100e1366004611998565b610582565b6100ab6100f4366004611938565b6106dd565b6100ab610107366004611732565b61080e565b6100ab61011a36600461185e565b610a10565b6100ab61012d3660046118d7565b610c2f565b6100ab610140366004611a4e565b610d5f565b61014d610e22565b546001600160a01b0316331461017e5760405162461bcd60e51b815260040161017590611b83565b60405180910390fd5b600080610189610e46565b9150915084518651146101ae5760405162461bcd60e51b815260040161017590611b22565b83518651146101cf5760405162461bcd60e51b815260040161017590611b00565b82518651146101f05760405162461bcd60e51b815260040161017590611bcb565b60005b86518110156103df5784818151811061020857fe5b60200260200101515186828151811061021d57fe5b602002602001015151146102435760405162461bcd60e51b815260040161017590611ba9565b83818151811061024f57fe5b60200260200101515186828151811061026457fe5b6020026020010151511461028a5760405162461bcd60e51b815260040161017590611bed565b60005b86828151811061029957fe5b6020026020010151518110156103d65773__$f06c55dfbaf779ce4e61bb81add28e8f1b$__6305a4cea28884815181106102cf57fe5b602002602001015183815181106102e257fe5b60200260200101516040518263ffffffff1660e01b81526004016103069190611ac9565b60006040518083038186803b15801561031e57600080fd5b505af4158015610332573d6000803e3d6000fd5b505050506103c988838151811061034557fe5b602002602001015188848151811061035957fe5b6020026020010151838151811061036c57fe5b602002602001015188858151811061038057fe5b6020026020010151848151811061039357fe5b60200260200101518886815181106103a757fe5b602002602001015185815181106103ba57fe5b60200260200101518888610edf565b909450925060010161028d565b506001016101f3565b506103ea8282610f3b565b505050505050565b6103fa610e22565b546001600160a01b031633146104225760405162461bcd60e51b815260040161017590611b83565b6040516302d2675160e11b815273__$f06c55dfbaf779ce4e61bb81add28e8f1b$__906305a4cea290610459908590600401611ac9565b60006040518083038186803b15801561047157600080fd5b505af4158015610485573d6000803e3d6000fd5b50505050600080610494610e46565b915091506104a58585858585611029565b90925090506104b48282610f3b565b5050505050565b6104c3610e22565b546001600160a01b031633146104eb5760405162461bcd60e51b815260040161017590611b83565b6040516302d2675160e11b815273__$f06c55dfbaf779ce4e61bb81add28e8f1b$__906305a4cea290610522908590600401611ac9565b60006040518083038186803b15801561053a57600080fd5b505af415801561054e573d6000803e3d6000fd5b5050505060008061055d610e46565b9150915061056d8484848461108a565b909250905061057c8282610f3b565b50505050565b61058a610e22565b546001600160a01b031633146105b25760405162461bcd60e51b815260040161017590611b83565b81518351146105d35760405162461bcd60e51b815260040161017590611b22565b80518351146105f45760405162461bcd60e51b815260040161017590611b00565b6000806105ff610e46565b9150915060005b85518110156103df5773__$f06c55dfbaf779ce4e61bb81add28e8f1b$__6305a4cea287838151811061063557fe5b60200260200101516040518263ffffffff1660e01b81526004016106599190611ac9565b60006040518083038186803b15801561067157600080fd5b505af4158015610685573d6000803e3d6000fd5b505050506106d08787838151811061069957fe5b60200260200101518784815181106106ad57fe5b60200260200101518785815181106106c157fe5b60200260200101518787610edf565b9093509150600101610606565b6106e5610e22565b546001600160a01b0316331461070d5760405162461bcd60e51b815260040161017590611b83565b805182511461072e5760405162461bcd60e51b815260040161017590611b44565b600080610739610e46565b9150915060005b84518110156108035773__$f06c55dfbaf779ce4e61bb81add28e8f1b$__6305a4cea286838151811061076f57fe5b60200260200101516040518263ffffffff1660e01b81526004016107939190611ac9565b60006040518083038186803b1580156107ab57600080fd5b505af41580156107bf573d6000803e3d6000fd5b505050506107f6868683815181106107d357fe5b60200260200101518684815181106107e757fe5b60200260200101518686611029565b9093509150600101610740565b506104b48282610f3b565b610816610e22565b546001600160a01b0316331461083e5760405162461bcd60e51b815260040161017590611b83565b815183511461085f5760405162461bcd60e51b815260040161017590611b22565b80518351146108805760405162461bcd60e51b815260040161017590611b00565b60008061088b610e46565b9150915060005b8551811015610803578381815181106108a757fe5b6020026020010151518582815181106108bc57fe5b602002602001015151146108e25760405162461bcd60e51b815260040161017590611bcb565b60005b8582815181106108f157fe5b602002602001015151811015610a075773__$f06c55dfbaf779ce4e61bb81add28e8f1b$__6305a4cea287848151811061092757fe5b6020026020010151838151811061093a57fe5b60200260200101516040518263ffffffff1660e01b815260040161095e9190611ac9565b60006040518083038186803b15801561097657600080fd5b505af415801561098a573d6000803e3d6000fd5b505050506109fa87838151811061099d57fe5b60200260200101518784815181106109b157fe5b602002602001015183815181106109c457fe5b60200260200101518785815181106109d857fe5b602002602001015184815181106109eb57fe5b60200260200101518787611029565b90945092506001016108e5565b50600101610892565b610a18610e22565b546001600160a01b03163314610a405760405162461bcd60e51b815260040161017590611b83565b8151845114610a615760405162461bcd60e51b815260040161017590611b44565b6000610a6c846110d7565b9050610a7881856111aa565b6040516302d2675160e11b815273__$f06c55dfbaf779ce4e61bb81add28e8f1b$__906305a4cea290610aaf908790600401611ac9565b60006040518083038186803b158015610ac757600080fd5b505af4158015610adb573d6000803e3d6000fd5b50505050600c81015480600080610af0610e46565b915091506000610b0089886111fb565b905060005b8a51811015610bfd5786600f0160008c8381518110610b2057fe5b60209081029190910181015182528101919091526040016000205460ff16610b5a5760405162461bcd60e51b815260040161017590611c0f565b610bb2898281518110610b6957fe5b6020026020010151610bac89600b0160008f8681518110610b8657fe5b60200260200101518152602001908152602001600020548861124d90919063ffffffff16565b906112af565b9450888181518110610bc057fe5b602002602001015187600b0160008d8481518110610bda57fe5b602090810291909101810151825281019190915260400160002055600101610b05565b50600c8601849055610c148684848888868d611310565b9093509150610c238383610f3b565b50505050505050505050565b610c37610e22565b546001600160a01b03163314610c5f5760405162461bcd60e51b815260040161017590611b83565b8051825114610c805760405162461bcd60e51b815260040161017590611b44565b600080610c8b610e46565b9150915060005b8451811015610d545773__$f06c55dfbaf779ce4e61bb81add28e8f1b$__6305a4cea2868381518110610cc157fe5b60200260200101516040518263ffffffff1660e01b8152600401610ce59190611ac9565b60006040518083038186803b158015610cfd57600080fd5b505af4158015610d11573d6000803e3d6000fd5b50505050610d47858281518110610d2457fe5b6020026020010151858381518110610d3857fe5b6020026020010151858561108a565b9093509150600101610c92565b5061057c8282610f3b565b610d67610e22565b546001600160a01b03163314610d8f5760405162461bcd60e51b815260040161017590611b83565b6040516302d2675160e11b815273__$f06c55dfbaf779ce4e61bb81add28e8f1b$__906305a4cea290610dc6908690600401611ac9565b60006040518083038186803b158015610dde57600080fd5b505af4158015610df2573d6000803e3d6000fd5b50505050600080610e01610e46565b91509150610e13868686868686610edf565b90925090506103ea8282610f3b565b7f190488561d88e36f1e28cbe7392dc28aedf700281c58bde4049b57fb87e2944c90565b6000806000610e5361141d565b90508060010154925073__$c67bac06d8ae77ccee809d21b761428721$__633a31a7406040518163ffffffff1660e01b815260040160206040518083038186803b158015610ea057600080fd5b505af4158015610eb4573d6000803e3d6000fd5b505050506040513d601f19601f82011682018060405250810190610ed89190611ab1565b9150509091565b6000806000610eed886110d7565b9050610ef981896111aa565b6000610f0589886111fb565b9050600080610f15848d8c611441565b91509150610f288489898585888f611310565b909d909c509a5050505050505050505050565b6000610f4561141d565b90506000610f516114bb565b905073__$c67bac06d8ae77ccee809d21b761428721$__631229187d6040518163ffffffff1660e01b815260040160006040518083038186803b158015610f9757600080fd5b505af4158015610fab573d6000803e3d6000fd5b5050505060028101548415801590610fc1575080155b15610fd957670de0b6b3a76400006004840155611005565b8315610ffd57610ff384610fed83886114df565b90611538565b6004840155611005565b600060048401555b60058301555043600682018190556001820193909355600281019190915560030155565b600080600061103661141d565b90506000611043886110d7565b905061104f81896111aa565b60008061105d838c8b611441565b6001600160a01b038c166000908152602087905260409020549193509150610f28848a8a86868680611310565b6000806000611098876110d7565b90506110a481886111aa565b60006110b088886111fb565b600c8301549091506110c78388888480878e611310565b909a909950975050505050505050565b600080604051806040016040528060168152602001753234b0b6b7b7321739b432b93637b1b5973837b7b61760511b815250836040516020018080602001836001600160a01b03168152602001828103825284818151815260200191508051906020019080838360005b83811015611159578181015183820152602001611141565b50505050905090810190601f1680156111865780820380516001836020036101000a031916815260200191505b5060408051601f198184030181529190528051602090910120979650505050505050565b6001600160a01b0381163014156111d35760405162461bcd60e51b815260040161017590611b64565b600982015460ff166111f75760405162461bcd60e51b815260040161017590611add565b5050565b60008061120661141d565b6001600160a01b03851660009081526020829052604090205492509050828214611246576001600160a01b03841660009081526020829052604090208390555b5092915050565b6000828211156112a4576040805162461bcd60e51b815260206004820152601e60248201527f536166654d6174683a207375627472616374696f6e206f766572666c6f770000604482015290519081900360640190fd5b508082035b92915050565b600082820183811015611309576040805162461bcd60e51b815260206004820152601b60248201527f536166654d6174683a206164646974696f6e206f766572666c6f770000000000604482015290519081900360640190fd5b9392505050565b6000808061131e87866114df565b9050600061132c87866114df565b90508082111561135d5761135661134f670de0b6b3a7640000610fed858561124d565b8b9061124d565b9950611380565b61137d611376670de0b6b3a7640000610fed848661124d565b8b906112af565b99505b600e8b01541561140c57858511156113d0576113c96113c2670de0b6b3a7640000610fed8e600e01546113bc8b8b61124d90919063ffffffff16565b906114df565b8a906112af565b985061140c565b8585101561140c57611409611402670de0b6b3a7640000610fed8e600e01546113bc8a8c61124d90919063ffffffff16565b8a9061124d565b98505b509799969850959650505050505050565b7fcdaab98845a65ea47b0852a56cf7039170a5285c240d3bfde826581682c8fcd590565b6000828152600f84016020526040812054819060ff166114735760405162461bcd60e51b815260040161017590611c0f565b600c8501546000858152600b8701602052604090205490925061149d908490610bac90859061124d565b600c86018190556000948552600b9095016020525060409092205591565b7fc0ca2b8775046ee5e33165d3145277182912c7895a3747ac51a97d562a7ce5d090565b6000826114ee575060006112a9565b828202828482816114fb57fe5b04146113095760405162461bcd60e51b8152600401808060200182810382526021815260200180611c786021913960400191505060405180910390fd5b600080821161158e576040805162461bcd60e51b815260206004820152601a60248201527f536166654d6174683a206469766973696f6e206279207a65726f000000000000604482015290519081900360640190fd5b81838161159757fe5b049392505050565b600082601f8301126115af578081fd5b813560206115c46115bf83611c59565b611c35565b82815281810190858301855b858110156115f9576115e7898684358b01016116b5565b845292840192908401906001016115d0565b5090979650505050505050565b600082601f830112611616578081fd5b813560206116266115bf83611c59565b82815281810190858301855b858110156115f957611649898684358b010161165b565b84529284019290840190600101611632565b600082601f83011261166b578081fd5b8135602061167b6115bf83611c59565b8281528181019085830183850287018401881015611697578586fd5b855b858110156115f957813584529284019290840190600101611699565b600082601f8301126116c5578081fd5b813560206116d56115bf83611c59565b82815281810190858301838502870184018810156116f1578586fd5b855b858110156115f95761170482611716565b845292840192908401906001016116f3565b80356001600160a01b038116811461172d57600080fd5b919050565b600080600060608486031215611746578283fd5b833567ffffffffffffffff8082111561175d578485fd5b6117698783880161165b565b9450602086013591508082111561177e578384fd5b61178a8783880161159f565b9350604086013591508082111561179f578283fd5b506117ac86828701611606565b9150509250925092565b600080600080608085870312156117cb578081fd5b843567ffffffffffffffff808211156117e2578283fd5b6117ee8883890161165b565b95506020870135915080821115611803578283fd5b61180f8883890161159f565b94506040870135915080821115611824578283fd5b61183088838901611606565b93506060870135915080821115611845578283fd5b5061185287828801611606565b91505092959194509250565b60008060008060808587031215611873578384fd5b843567ffffffffffffffff8082111561188a578586fd5b6118968883890161165b565b95506118a460208801611716565b945060408701359150808211156118b9578384fd5b506118c68782880161165b565b949793965093946060013593505050565b600080604083850312156118e9578182fd5b823567ffffffffffffffff80821115611900578384fd5b61190c868387016116b5565b93506020850135915080821115611921578283fd5b5061192e8582860161165b565b9150509250929050565b60008060006060848603121561194c578283fd5b83359250602084013567ffffffffffffffff8082111561196a578384fd5b611976878388016116b5565b9350604086013591508082111561198b578283fd5b506117ac8682870161165b565b600080600080608085870312156119ad578182fd5b84359350602085013567ffffffffffffffff808211156119cb578384fd5b6119d7888389016116b5565b945060408701359150808211156119ec578384fd5b6119f88883890161165b565b93506060870135915080821115611a0d578283fd5b506118528782880161165b565b600080600060608486031215611a2e578081fd5b83359250611a3e60208501611716565b9150604084013590509250925092565b60008060008060808587031215611a63578182fd5b84359350611a7360208601611716565b93969395505050506040820135916060013590565b60008060408385031215611a9a578182fd5b611aa383611716565b946020939093013593505050565b600060208284031215611ac2578081fd5b5051919050565b6001600160a01b0391909116815260200190565b60208082526009908201526815d2125511531254d560ba1b604082015260600190565b6020808252600890820152672622a723aa242f9960c11b604082015260600190565b6020808252600890820152674c454e4754485f3160c01b604082015260600190565b6020808252600690820152650988a9c8ea8960d31b604082015260600190565b6020808252600590820152640a6908aa4b60db1b604082015260600190565b6020808252600c908201526b2727aa2fa3a7ab2fa6a0a4a760a11b604082015260600190565b60208082526008908201526713115391d51217cd60c21b604082015260600190565b6020808252600890820152674c454e4754485f3360c01b604082015260600190565b6020808252600890820152674c454e4754485f3560c01b604082015260600190565b6020808252600c908201526b1393d397d41493d513d0d3d360a21b604082015260600190565b60405181810167ffffffffffffffff81118282101715611c5157fe5b604052919050565b600067ffffffffffffffff821115611c6d57fe5b506020908102019056fe536166654d6174683a206d756c7469706c69636174696f6e206f766572666c6f77a26469706673582212204df490485bf9e3b0c064eb67f82dd827cac94ad277b08a8e6d322958c1f4155d64736f6c63430007060033",
  "linkReferences": {
    "contracts/libraries/LibPool.sol": {
      "LibPool": [
        {
          "length": 20,
          "start": 715
        },
        {
          "length": 20,
          "start": 1105
        },
        {
          "length": 20,
          "start": 1306
        },
        {
          "length": 20,
          "start": 1585
        },
        {
          "length": 20,
          "start": 1899
        },
        {
          "length": 20,
          "start": 2339
        },
        {
          "length": 20,
          "start": 2727
        },
        {
          "length": 20,
          "start": 3261
        },
        {
          "length": 20,
          "start": 3518
        }
      ]
    },
    "contracts/libraries/LibSherX.sol": {
      "LibSherX": [
        {
          "length": 20,
          "start": 3710
        },
        {
          "length": 20,
          "start": 3957
        }
      ]
    }
  },
  "deployedLinkReferences": {
    "contracts/libraries/LibPool.sol": {
      "LibPool": [
        {
          "length": 20,
          "start": 683
        },
        {
          "length": 20,
          "start": 1073
        },
        {
          "length": 20,
          "start": 1274
        },
        {
          "length": 20,
          "start": 1553
        },
        {
          "length": 20,
          "start": 1867
        },
        {
          "length": 20,
          "start": 2307
        },
        {
          "length": 20,
          "start": 2695
        },
        {
          "length": 20,
          "start": 3229
        },
        {
          "length": 20,
          "start": 3486
        }
      ]
    },
    "contracts/libraries/LibSherX.sol": {
      "LibSherX": [
        {
          "length": 20,
          "start": 3678
        },
        {
          "length": 20,
          "start": 3925
        }
      ]
    }
  }
}