{
  "_format": "hh-sol-artifact-1",
  "contractName": "LiquidityPoolProfiler",
  "sourceName": "contracts/testing/profiling/LiquidityPoolProfiler.sol",
  "abi": [
    {
      "inputs": [
        {
          "internalType": "address",
          "name": "_liquidityPool",
          "type": "address"
        },
        {
          "internalType": "address",
          "name": "token",
          "type": "address"
        }
      ],
      "stateMutability": "nonpayable",
      "type": "constructor"
    },
    {
      "inputs": [],
      "name": "liquidityPool",
      "outputs": [
        {
          "internalType": "contract LiquidityPool",
          "name": "",
          "type": "address"
        }
      ],
      "stateMutability": "view",
      "type": "function"
    },
    {
      "inputs": [
        {
          "internalType": "uint256",
          "name": "amount",
          "type": "uint256"
        }
      ],
      "name": "profileDeposit",
      "outputs": [],
      "stateMutability": "nonpayable",
      "type": "function"
    }
  ],
  "bytecode": "0x608060405234801561001057600080fd5b506040516105dd3803806105dd83398101604081905261002f916101e9565b600080546001600160a01b0319166001600160a01b03841690811790915560408051635fcbd28560e01b81529051635fcbd28591600480820192602092909190829003018186803b15801561008357600080fd5b505afa158015610097573d6000803e3d6000fd5b505050506040513d601f19601f820116820180604052508101906100bb9190610223565b60005460405163095ea7b360e01b81526001600160a01b039182166004820152600019602482015291169063095ea7b390604401602060405180830381600087803b15801561010957600080fd5b505af115801561011d573d6000803e3d6000fd5b505050506040513d601f19601f820116820180604052508101906101419190610247565b5060005460405163095ea7b360e01b81526001600160a01b03918216600482015260001960248201529082169063095ea7b390604401602060405180830381600087803b15801561019157600080fd5b505af11580156101a5573d6000803e3d6000fd5b505050506040513d601f19601f820116820180604052508101906101c99190610247565b505050610269565b6001600160a01b03811681146101e657600080fd5b50565b600080604083850312156101fc57600080fd5b8251610207816101d1565b6020840151909250610218816101d1565b809150509250929050565b60006020828403121561023557600080fd5b8151610240816101d1565b9392505050565b60006020828403121561025957600080fd5b8151801515811461024057600080fd5b610365806102786000396000f3fe608060405234801561001057600080fd5b50600436106100365760003560e01c8063665a11ca1461003b578063ec6728ea1461006a575b600080fd5b60005461004e906001600160a01b031681565b6040516001600160a01b03909116815260200160405180910390f35b61007d6100783660046102fd565b61007f565b005b60005460405163b6b55f2560e01b8152600481018390526001600160a01b039091169063b6b55f2590602401602060405180830381600087803b1580156100c557600080fd5b505af11580156100d9573d6000803e3d6000fd5b505050506040513d601f19601f820116820180604052508101906100fd9190610316565b5060005460405163b6b55f2560e01b8152600481018390526001600160a01b039091169063b6b55f2590602401602060405180830381600087803b15801561014457600080fd5b505af1158015610158573d6000803e3d6000fd5b505050506040513d601f19601f8201168201806040525081019061017c9190610316565b5060005460405163b6b55f2560e01b8152600481018390526001600160a01b039091169063b6b55f2590602401602060405180830381600087803b1580156101c357600080fd5b505af11580156101d7573d6000803e3d6000fd5b505050506040513d601f19601f820116820180604052508101906101fb9190610316565b5060005460405163db006a7560e01b8152600481018390526001600160a01b039091169063db006a7590602401602060405180830381600087803b15801561024257600080fd5b505af1158015610256573d6000803e3d6000fd5b505050506040513d601f19601f8201168201806040525081019061027a9190610316565b5060005460405163db006a7560e01b8152600481018390526001600160a01b039091169063db006a7590602401602060405180830381600087803b1580156102c157600080fd5b505af11580156102d5573d6000803e3d6000fd5b505050506040513d601f19601f820116820180604052508101906102f99190610316565b5050565b60006020828403121561030f57600080fd5b5035919050565b60006020828403121561032857600080fd5b505191905056fea2646970667358221220ab03cfe9688041a44a006c0e9b0c2b388a3fc99f8b07505cb2a5d7a0eff3cec664736f6c63430008090033",
  "linkReferences": {},
  "deployedLinkReferences": {}
}