{
  "_format": "hh-sol-artifact-1",
  "contractName": "ReserveHarness",
  "sourceName": "contracts/test/ReserveHarness.sol",
  "abi": [
    {
      "inputs": [
        {
          "internalType": "address",
          "name": "_owner",
          "type": "address"
        },
        {
          "internalType": "contract IERC20",
          "name": "_token",
          "type": "address"
        }
      ],
      "stateMutability": "nonpayable",
      "type": "constructor"
    },
    {
      "anonymous": false,
      "inputs": [
        {
          "indexed": false,
          "internalType": "uint256",
          "name": "reserveAccumulated",
          "type": "uint256"
        },
        {
          "indexed": false,
          "internalType": "uint256",
          "name": "withdrawAccumulated",
          "type": "uint256"
        }
      ],
      "name": "Checkpoint",
      "type": "event"
    },
    {
      "anonymous": false,
      "inputs": [
        {
          "indexed": true,
          "internalType": "contract IERC20",
          "name": "token",
          "type": "address"
        }
      ],
      "name": "Deployed",
      "type": "event"
    },
    {
      "anonymous": false,
      "inputs": [
        {
          "indexed": true,
          "internalType": "address",
          "name": "previousManager",
          "type": "address"
        },
        {
          "indexed": true,
          "internalType": "address",
          "name": "newManager",
          "type": "address"
        }
      ],
      "name": "ManagerTransferred",
      "type": "event"
    },
    {
      "anonymous": false,
      "inputs": [
        {
          "indexed": true,
          "internalType": "address",
          "name": "pendingOwner",
          "type": "address"
        }
      ],
      "name": "OwnershipOffered",
      "type": "event"
    },
    {
      "anonymous": false,
      "inputs": [
        {
          "indexed": true,
          "internalType": "address",
          "name": "previousOwner",
          "type": "address"
        },
        {
          "indexed": true,
          "internalType": "address",
          "name": "newOwner",
          "type": "address"
        }
      ],
      "name": "OwnershipTransferred",
      "type": "event"
    },
    {
      "anonymous": false,
      "inputs": [
        {
          "indexed": true,
          "internalType": "address",
          "name": "recipient",
          "type": "address"
        },
        {
          "indexed": false,
          "internalType": "uint256",
          "name": "amount",
          "type": "uint256"
        }
      ],
      "name": "Withdrawn",
      "type": "event"
    },
    {
      "inputs": [],
      "name": "checkpoint",
      "outputs": [],
      "stateMutability": "nonpayable",
      "type": "function"
    },
    {
      "inputs": [],
      "name": "claimOwnership",
      "outputs": [],
      "stateMutability": "nonpayable",
      "type": "function"
    },
    {
      "inputs": [
        {
          "internalType": "contract ERC20Mintable",
          "name": "_token",
          "type": "address"
        },
        {
          "internalType": "uint256",
          "name": "_amount",
          "type": "uint256"
        }
      ],
      "name": "doubleCheckpoint",
      "outputs": [],
      "stateMutability": "nonpayable",
      "type": "function"
    },
    {
      "inputs": [
        {
          "components": [
            {
              "internalType": "uint224",
              "name": "amount",
              "type": "uint224"
            },
            {
              "internalType": "uint32",
              "name": "timestamp",
              "type": "uint32"
            }
          ],
          "internalType": "struct ObservationLib.Observation",
          "name": "_newestObservation",
          "type": "tuple"
        },
        {
          "components": [
            {
              "internalType": "uint224",
              "name": "amount",
              "type": "uint224"
            },
            {
              "internalType": "uint32",
              "name": "timestamp",
              "type": "uint32"
            }
          ],
          "internalType": "struct ObservationLib.Observation",
          "name": "_oldestObservation",
          "type": "tuple"
        },
        {
          "internalType": "uint24",
          "name": "_cardinality",
          "type": "uint24"
        },
        {
          "internalType": "uint32",
          "name": "timestamp",
          "type": "uint32"
        }
      ],
      "name": "getReserveAccumulatedAt",
      "outputs": [
        {
          "internalType": "uint224",
          "name": "",
          "type": "uint224"
        }
      ],
      "stateMutability": "view",
      "type": "function"
    },
    {
      "inputs": [
        {
          "internalType": "uint32",
          "name": "_startTimestamp",
          "type": "uint32"
        },
        {
          "internalType": "uint32",
          "name": "_endTimestamp",
          "type": "uint32"
        }
      ],
      "name": "getReserveAccumulatedBetween",
      "outputs": [
        {
          "internalType": "uint224",
          "name": "",
          "type": "uint224"
        }
      ],
      "stateMutability": "view",
      "type": "function"
    },
    {
      "inputs": [],
      "name": "getToken",
      "outputs": [
        {
          "internalType": "contract IERC20",
          "name": "",
          "type": "address"
        }
      ],
      "stateMutability": "view",
      "type": "function"
    },
    {
      "inputs": [],
      "name": "manager",
      "outputs": [
        {
          "internalType": "address",
          "name": "",
          "type": "address"
        }
      ],
      "stateMutability": "view",
      "type": "function"
    },
    {
      "inputs": [],
      "name": "owner",
      "outputs": [
        {
          "internalType": "address",
          "name": "",
          "type": "address"
        }
      ],
      "stateMutability": "view",
      "type": "function"
    },
    {
      "inputs": [],
      "name": "pendingOwner",
      "outputs": [
        {
          "internalType": "address",
          "name": "",
          "type": "address"
        }
      ],
      "stateMutability": "view",
      "type": "function"
    },
    {
      "inputs": [],
      "name": "renounceOwnership",
      "outputs": [],
      "stateMutability": "nonpayable",
      "type": "function"
    },
    {
      "inputs": [
        {
          "internalType": "address",
          "name": "_newManager",
          "type": "address"
        }
      ],
      "name": "setManager",
      "outputs": [
        {
          "internalType": "bool",
          "name": "",
          "type": "bool"
        }
      ],
      "stateMutability": "nonpayable",
      "type": "function"
    },
    {
      "inputs": [
        {
          "components": [
            {
              "internalType": "uint224",
              "name": "amount",
              "type": "uint224"
            },
            {
              "internalType": "uint32",
              "name": "timestamp",
              "type": "uint32"
            }
          ],
          "internalType": "struct ObservationLib.Observation[]",
          "name": "observations",
          "type": "tuple[]"
        }
      ],
      "name": "setObservationsAt",
      "outputs": [],
      "stateMutability": "nonpayable",
      "type": "function"
    },
    {
      "inputs": [],
      "name": "token",
      "outputs": [
        {
          "internalType": "contract IERC20",
          "name": "",
          "type": "address"
        }
      ],
      "stateMutability": "view",
      "type": "function"
    },
    {
      "inputs": [
        {
          "internalType": "address",
          "name": "_newOwner",
          "type": "address"
        }
      ],
      "name": "transferOwnership",
      "outputs": [],
      "stateMutability": "nonpayable",
      "type": "function"
    },
    {
      "inputs": [],
      "name": "withdrawAccumulator",
      "outputs": [
        {
          "internalType": "uint224",
          "name": "",
          "type": "uint224"
        }
      ],
      "stateMutability": "view",
      "type": "function"
    },
    {
      "inputs": [
        {
          "internalType": "address",
          "name": "_recipient",
          "type": "address"
        },
        {
          "internalType": "uint256",
          "name": "_amount",
          "type": "uint256"
        }
      ],
      "name": "withdrawTo",
      "outputs": [],
      "stateMutability": "nonpayable",
      "type": "function"
    }
  ],
  "bytecode": "0x60a06040523480156200001157600080fd5b5060405162001a3e38038062001a3e8339810160408190526200003491620000e3565b818181620000428162000093565b506001600160601b0319606082901b166080526040516001600160a01b038216907ff40fcec21964ffb566044d083b4073f29f7f7929110ea19e1b3ebe375d89055e90600090a2505050506200013b565b600080546001600160a01b038381166001600160a01b0319831681178455604051919092169283917f8be0079c531659141344cd1fd0a4f28419497f9722a3daafe3b4186f6b6457e09190a35050565b60008060408385031215620000f757600080fd5b8251620001048162000122565b6020840151909250620001178162000122565b809150509250929050565b6001600160a01b03811681146200013857600080fd5b50565b60805160601c6118cf6200016f6000396000818161012f0152818161025601528181610412015261099101526118cf6000f3fe608060405234801561001057600080fd5b50600436106101005760003560e01c80638da5cb5b11610097578063d0ebdbe711610066578063d0ebdbe71461020a578063e30c39781461022d578063f2fde38b1461023e578063fc0c546a1461025157600080fd5b80638da5cb5b146101cb578063af6a9400146101dc578063b96b35e0146101ef578063c2c4c5c11461020257600080fd5b8063481c6a75116100d3578063481c6a75146101975780634e71e0c8146101a85780636099b487146101b0578063715018a6146101c357600080fd5b80631af082db14610105578063205c28781461011a57806321df0da71461012d5780632d00ddda1461016c575b600080fd5b61011861011336600461149a565b610278565b005b61011861012836600461146e565b610309565b7f00000000000000000000000000000000000000000000000000000000000000005b6040516001600160a01b0390911681526020015b60405180910390f35b60035461017f906001600160e01b031681565b6040516001600160e01b039091168152602001610163565b6002546001600160a01b031661014f565b610118610490565b6101186101be36600461146e565b61051e565b6101186105cc565b6000546001600160a01b031661014f565b61017f6101ea3660046115ac565b610641565b61017f6101fd366004611531565b610779565b610118610792565b61021d610218366004611451565b61079a565b6040519015158152602001610163565b6001546001600160a01b031661014f565b61011861024c366004611451565b610816565b61014f7f000000000000000000000000000000000000000000000000000000000000000081565b60005b818110156102d057828282818110610295576102956117ec565b90506040020160048262ffffff81106102b0576102b06117ec565b016102bb8282611802565b508190506102c881611773565b91505061027b565b50630100000380547fffffffffffffffffffffffffffffffffffffffffffffffffffffffffff0000001661ffff90921691909117905550565b3361031c6002546001600160a01b031690565b6001600160a01b0316148061034a57503361033f6000546001600160a01b031690565b6001600160a01b0316145b6103c15760405162461bcd60e51b815260206004820152602660248201527f4d616e61676561626c652f63616c6c65722d6e6f742d6d616e616765722d6f7260448201527f2d6f776e6572000000000000000000000000000000000000000000000000000060648201526084015b60405180910390fd5b6103c9610952565b600380548291906000906103e79084906001600160e01b0316611652565b92506101000a8154816001600160e01b0302191690836001600160e01b0316021790555061044982827f00000000000000000000000000000000000000000000000000000000000000006001600160a01b0316610bd59092919063ffffffff16565b816001600160a01b03167f7084f5476618d8e60b11ef0d7d3f06914655adb8793e28ff7f018d4c76d505d58260405161048491815260200190565b60405180910390a25050565b6001546001600160a01b031633146104ea5760405162461bcd60e51b815260206004820152601f60248201527f4f776e61626c652f63616c6c65722d6e6f742d70656e64696e674f776e65720060448201526064016103b8565b6001546104ff906001600160a01b0316610c45565b6001805473ffffffffffffffffffffffffffffffffffffffff19169055565b610526610952565b6040517f40c10f19000000000000000000000000000000000000000000000000000000008152306004820152602481018290526001600160a01b038316906340c10f1990604401602060405180830381600087803b15801561058757600080fd5b505af115801561059b573d6000803e3d6000fd5b505050506040513d601f19601f820116820180604052508101906105bf919061150f565b506105c8610952565b5050565b336105df6000546001600160a01b031690565b6001600160a01b0316146106355760405162461bcd60e51b815260206004820152601860248201527f4f776e61626c652f63616c6c65722d6e6f742d6f776e6572000000000000000060448201526064016103b8565b61063f6000610c45565b565b60008163ffffffff168363ffffffff161061069e5760405162461bcd60e51b815260206004820152601b60248201527f526573657276652f73746172742d6c6573732d7468656e2d656e64000000000060448201526064016103b8565b630100000354604080518082019091526000808252602082015262ffffff9091169081156107185760046106d36001846116f1565b62ffffff1662ffffff81106106ea576106ea6117ec565b604080518082019091529101546001600160e01b0381168252600160e01b900463ffffffff16602082015290505b604080518082019091526004546001600160e01b0381168252600160e01b900463ffffffff16602082015260006107518383868a610ca2565b905060006107618484878a610ca2565b905061076d82826116c9565b98975050505050505050565b600061078785858585610ca2565b90505b949350505050565b61063f610952565b6000336107af6000546001600160a01b031690565b6001600160a01b0316146108055760405162461bcd60e51b815260206004820152601860248201527f4f776e61626c652f63616c6c65722d6e6f742d6f776e6572000000000000000060448201526064016103b8565b61080e82610d4a565b90505b919050565b336108296000546001600160a01b031690565b6001600160a01b03161461087f5760405162461bcd60e51b815260206004820152601860248201527f4f776e61626c652f63616c6c65722d6e6f742d6f776e6572000000000000000060448201526064016103b8565b6001600160a01b0381166108fb5760405162461bcd60e51b815260206004820152602560248201527f4f776e61626c652f70656e64696e674f776e65722d6e6f742d7a65726f2d616460448201527f647265737300000000000000000000000000000000000000000000000000000060648201526084016103b8565b6001805473ffffffffffffffffffffffffffffffffffffffff19166001600160a01b0383169081179091556040517f239a2ddded15777fa246aed5f7e1a9bc69a39d4eb4a397034d1d85766cca7d4c90600090a250565b6301000003546040517f70a0823100000000000000000000000000000000000000000000000000000000815230600482015262ffffff909116906000907f00000000000000000000000000000000000000000000000000000000000000006001600160a01b0316906370a082319060240160206040518083038186803b1580156109db57600080fd5b505afa1580156109ef573d6000803e3d6000fd5b505050506040513d601f19601f82011682018060405250810190610a139190611593565b6003549091506001600160e01b03166000610a2d84610e36565b905080600001516001600160e01b0316826001600160e01b031684610a52919061167d565b1115610bcf57426000610a658486611652565b90508163ffffffff16836020015163ffffffff1614610b1c576040518060400160405280826001600160e01b031681526020018363ffffffff1681525060048762ffffff1662ffffff8110610abc57610abc6117ec565b825160209093015163ffffffff16600160e01b026001600160e01b03909316929092179101556301000003805462ffffff16906000610afa83611750565b91906101000a81548162ffffff021916908362ffffff16021790555050610b89565b604080518082019091526001600160e01b038216815263ffffffff831660208201526004610b4b6001896116f1565b62ffffff1662ffffff8110610b6257610b626117ec565b825160209093015163ffffffff16600160e01b026001600160e01b03909316929092179101555b604080516001600160e01b038084168252861660208201527f21d81d5d656869e8ce3ba8d65526a2f0dbbcd3d36f5f9999eb7c84360e45eced910160405180910390a150505b50505050565b604080516001600160a01b038416602482015260448082018490528251808303909101815260649091019091526020810180516001600160e01b03167fa9059cbb00000000000000000000000000000000000000000000000000000000179052610c40908490610eaa565b505050565b600080546001600160a01b0383811673ffffffffffffffffffffffffffffffffffffffff19831681178455604051919092169283917f8be0079c531659141344cd1fd0a4f28419497f9722a3daafe3b4186f6b6457e09190a35050565b60004262ffffff8416610cb957600091505061078a565b8263ffffffff16856020015163ffffffff161115610cdb57600091505061078a565b8263ffffffff16866020015163ffffffff1611610cfb575050835161078a565b600080610d186004610d0e6001896116f1565b6000888a88610f8f565b915091508463ffffffff16816020015163ffffffff161415610d3f5751925061078a915050565b5051915061078a9050565b6002546000906001600160a01b03908116908316811415610dd35760405162461bcd60e51b815260206004820152602360248201527f4d616e61676561626c652f6578697374696e672d6d616e616765722d6164647260448201527f657373000000000000000000000000000000000000000000000000000000000060648201526084016103b8565b6002805473ffffffffffffffffffffffffffffffffffffffff19166001600160a01b0385811691821790925560405190918316907f9cb45c728de594dab506a1f1a8554e24c8eeaf983618d5ec5dd7bc6f3c49feee90600090a350600192915050565b604080518082019091526000808252602082015262ffffff821615610811576004610e626001846116f1565b62ffffff1662ffffff8110610e7957610e796117ec565b604080518082019091529101546001600160e01b0381168252600160e01b900463ffffffff16602082015292915050565b6000610eff826040518060400160405280602081526020017f5361666545524332303a206c6f772d6c6576656c2063616c6c206661696c6564815250856001600160a01b031661115c9092919063ffffffff16565b805190915015610c405780806020019051810190610f1d919061150f565b610c405760405162461bcd60e51b815260206004820152602a60248201527f5361666545524332303a204552433230206f7065726174696f6e20646964206e60448201527f6f7420737563636565640000000000000000000000000000000000000000000060648201526084016103b8565b6040805180820190915260008082526020820152604080518082019091526000808252602082015260008662ffffff1690506000818962ffffff1610610fda578862ffffff16610ff5565b6001610feb62ffffff88168461167d565b610ff5919061170d565b905060005b6002611006838561167d565b61101091906116b5565b90508a611022828962ffffff16611175565b62ffffff1662ffffff8110611039576110396117ec565b604080518082019091529101546001600160e01b0381168252600160e01b900463ffffffff1660208201819052909550806110815761107982600161167d565b935050610ffa565b8b611091838a62ffffff16611181565b62ffffff1662ffffff81106110a8576110a86117ec565b604080518082019091529101546001600160e01b038116825263ffffffff600160e01b909104811660208301529095506000906110ed90838116908c908b9061119716565b905080801561111657506111168660200151898c63ffffffff166111979092919063ffffffff16565b1561112257505061114e565b806111395761113260018461170d565b9350611147565b61114483600161167d565b94505b5050610ffa565b505050965096945050505050565b606061116b8484600085611268565b90505b9392505050565b600061116e82846117ac565b600061116e61119184600161167d565b83611175565b60008163ffffffff168463ffffffff16111580156111c157508163ffffffff168363ffffffff1611155b156111dd578263ffffffff168463ffffffff161115905061116e565b60008263ffffffff168563ffffffff161161120c5761120763ffffffff8616640100000000611695565b611214565b8463ffffffff165b64ffffffffff16905060008363ffffffff168563ffffffff161161124c5761124763ffffffff8616640100000000611695565b611254565b8463ffffffff165b64ffffffffff169091111595945050505050565b6060824710156112e05760405162461bcd60e51b815260206004820152602660248201527f416464726573733a20696e73756666696369656e742062616c616e636520666f60448201527f722063616c6c000000000000000000000000000000000000000000000000000060648201526084016103b8565b843b61132e5760405162461bcd60e51b815260206004820152601d60248201527f416464726573733a2063616c6c20746f206e6f6e2d636f6e747261637400000060448201526064016103b8565b600080866001600160a01b0316858760405161134a91906115e5565b60006040518083038185875af1925050503d8060008114611387576040519150601f19603f3d011682016040523d82523d6000602084013e61138c565b606091505b509150915061139c8282866113a7565b979650505050505050565b606083156113b657508161116e565b8251156113c65782518084602001fd5b8160405162461bcd60e51b81526004016103b89190611601565b6000604082840312156113f257600080fd5b6040516040810181811067ffffffffffffffff8211171561142357634e487b7160e01b600052604160045260246000fd5b604052905080823561143481611872565b8152602083013561144481611887565b6020919091015292915050565b60006020828403121561146357600080fd5b813561116e8161185a565b6000806040838503121561148157600080fd5b823561148c8161185a565b946020939093013593505050565b600080602083850312156114ad57600080fd5b823567ffffffffffffffff808211156114c557600080fd5b818501915085601f8301126114d957600080fd5b8135818111156114e857600080fd5b8660208260061b85010111156114fd57600080fd5b60209290920196919550909350505050565b60006020828403121561152157600080fd5b8151801515811461116e57600080fd5b60008060008060c0858703121561154757600080fd5b61155186866113e0565b935061156086604087016113e0565b9250608085013562ffffff8116811461157857600080fd5b915060a085013561158881611887565b939692955090935050565b6000602082840312156115a557600080fd5b5051919050565b600080604083850312156115bf57600080fd5b82356115ca81611887565b915060208301356115da81611887565b809150509250929050565b600082516115f7818460208701611724565b9190910192915050565b6020815260008251806020840152611620816040850160208701611724565b601f017fffffffffffffffffffffffffffffffffffffffffffffffffffffffffffffffe0169190910160400192915050565b60006001600160e01b03808316818516808303821115611674576116746117c0565b01949350505050565b60008219821115611690576116906117c0565b500190565b600064ffffffffff808316818516808303821115611674576116746117c0565b6000826116c4576116c46117d6565b500490565b60006001600160e01b03838116908316818110156116e9576116e96117c0565b039392505050565b600062ffffff838116908316818110156116e9576116e96117c0565b60008282101561171f5761171f6117c0565b500390565b60005b8381101561173f578181015183820152602001611727565b83811115610bcf5750506000910152565b600062ffffff80831681811415611769576117696117c0565b6001019392505050565b60007fffffffffffffffffffffffffffffffffffffffffffffffffffffffffffffffff8214156117a5576117a56117c0565b5060010190565b6000826117bb576117bb6117d6565b500690565b634e487b7160e01b600052601160045260246000fd5b634e487b7160e01b600052601260045260246000fd5b634e487b7160e01b600052603260045260246000fd5b813561180d81611872565b6001600160e01b03811690507fffffffff000000000000000000000000000000000000000000000000000000008181845416178355602084013561185081611887565b60e01b1617905550565b6001600160a01b038116811461186f57600080fd5b50565b6001600160e01b038116811461186f57600080fd5b63ffffffff8116811461186f57600080fdfea264697066735822122082adef1792efbe186e0bd53f8ebd0b66a49e9b9b48c2ef18a649481501e52f7964736f6c63430008060033",
  "linkReferences": {},
  "deployedLinkReferences": {}
}